{
  "_format": "hh-sol-artifact-1",
  "contractName": "ERC721WithoutOperatorFiltererMock",
  "sourceName": "contracts/mocks/token/ERC721/ERC721WithoutOperatorFiltererMock.sol",
  "abi": [
    {
      "inputs": [
        {
          "internalType": "contract IForwarderRegistry",
          "name": "forwarderRegistry",
          "type": "address"
        }
      ],
      "stateMutability": "nonpayable",
      "type": "constructor"
    },
    {
      "inputs": [],
      "name": "ERC721BalanceOfAddressZero",
      "type": "error"
    },
    {
      "inputs": [
        {
          "internalType": "uint256",
          "name": "tokenId",
          "type": "uint256"
        }
      ],
      "name": "ERC721ExistingToken",
      "type": "error"
    },
    {
      "inputs": [],
      "name": "ERC721MintToAddressZero",
      "type": "error"
    },
    {
      "inputs": [
        {
          "internalType": "address",
          "name": "sender",
          "type": "address"
        },
        {
          "internalType": "address",
          "name": "owner",
          "type": "address"
        },
        {
          "internalType": "uint256",
          "name": "tokenId",
          "type": "uint256"
        }
      ],
      "name": "ERC721NonApprovedForApproval",
      "type": "error"
    },
    {
      "inputs": [
        {
          "internalType": "address",
          "name": "sender",
          "type": "address"
        },
        {
          "internalType": "address",
          "name": "owner",
          "type": "address"
        },
        {
          "internalType": "uint256",
          "name": "tokenId",
          "type": "uint256"
        }
      ],
      "name": "ERC721NonApprovedForTransfer",
      "type": "error"
    },
    {
      "inputs": [
        {
          "internalType": "uint256",
          "name": "tokenId",
          "type": "uint256"
        }
      ],
      "name": "ERC721NonExistingToken",
      "type": "error"
    },
    {
      "inputs": [
        {
          "internalType": "address",
          "name": "account",
          "type": "address"
        },
        {
          "internalType": "uint256",
          "name": "tokenId",
          "type": "uint256"
        }
      ],
      "name": "ERC721NonOwnedToken",
      "type": "error"
    },
    {
      "inputs": [
        {
          "internalType": "address",
          "name": "recipient",
          "type": "address"
        },
        {
          "internalType": "uint256",
          "name": "tokenId",
          "type": "uint256"
        }
      ],
      "name": "ERC721SafeTransferRejected",
      "type": "error"
    },
    {
      "inputs": [
        {
          "internalType": "address",
          "name": "account",
          "type": "address"
        }
      ],
      "name": "ERC721SelfApproval",
      "type": "error"
    },
    {
      "inputs": [
        {
          "internalType": "address",
          "name": "account",
          "type": "address"
        }
      ],
      "name": "ERC721SelfApprovalForAll",
      "type": "error"
    },
    {
      "inputs": [],
      "name": "ERC721TransferToAddressZero",
      "type": "error"
    },
    {
      "inputs": [],
      "name": "IllegalInterfaceId",
      "type": "error"
    },
    {
      "inputs": [
        {
          "internalType": "address",
          "name": "account",
          "type": "address"
        }
      ],
      "name": "NotContractOwner",
      "type": "error"
    },
    {
      "inputs": [
        {
          "internalType": "bytes32",
          "name": "role",
          "type": "bytes32"
        },
        {
          "internalType": "address",
          "name": "account",
          "type": "address"
        }
      ],
      "name": "NotRoleHolder",
      "type": "error"
    },
    {
      "anonymous": false,
      "inputs": [
        {
          "indexed": true,
          "internalType": "address",
          "name": "owner",
          "type": "address"
        },
        {
          "indexed": true,
          "internalType": "address",
          "name": "approved",
          "type": "address"
        },
        {
          "indexed": true,
          "internalType": "uint256",
          "name": "tokenId",
          "type": "uint256"
        }
      ],
      "name": "Approval",
      "type": "event"
    },
    {
      "anonymous": false,
      "inputs": [
        {
          "indexed": true,
          "internalType": "address",
          "name": "owner",
          "type": "address"
        },
        {
          "indexed": true,
          "internalType": "address",
          "name": "operator",
          "type": "address"
        },
        {
          "indexed": false,
          "internalType": "bool",
          "name": "approved",
          "type": "bool"
        }
      ],
      "name": "ApprovalForAll",
      "type": "event"
    },
    {
      "anonymous": false,
      "inputs": [
        {
          "indexed": true,
          "internalType": "address",
          "name": "previousOwner",
          "type": "address"
        },
        {
          "indexed": true,
          "internalType": "address",
          "name": "newOwner",
          "type": "address"
        }
      ],
      "name": "OwnershipTransferred",
      "type": "event"
    },
    {
      "anonymous": false,
      "inputs": [
        {
          "indexed": false,
          "internalType": "bytes32",
          "name": "role",
          "type": "bytes32"
        },
        {
          "indexed": false,
          "internalType": "address",
          "name": "account",
          "type": "address"
        },
        {
          "indexed": false,
          "internalType": "address",
          "name": "operator",
          "type": "address"
        }
      ],
      "name": "RoleGranted",
      "type": "event"
    },
    {
      "anonymous": false,
      "inputs": [
        {
          "indexed": false,
          "internalType": "bytes32",
          "name": "role",
          "type": "bytes32"
        },
        {
          "indexed": false,
          "internalType": "address",
          "name": "account",
          "type": "address"
        },
        {
          "indexed": false,
          "internalType": "address",
          "name": "operator",
          "type": "address"
        }
      ],
      "name": "RoleRevoked",
      "type": "event"
    },
    {
      "anonymous": false,
      "inputs": [
        {
          "indexed": true,
          "internalType": "address",
          "name": "from",
          "type": "address"
        },
        {
          "indexed": true,
          "internalType": "address",
          "name": "to",
          "type": "address"
        },
        {
          "indexed": true,
          "internalType": "uint256",
          "name": "tokenId",
          "type": "uint256"
        }
      ],
      "name": "Transfer",
      "type": "event"
    },
    {
      "inputs": [],
      "name": "MINTER_ROLE",
      "outputs": [
        {
          "internalType": "bytes32",
          "name": "",
          "type": "bytes32"
        }
      ],
      "stateMutability": "view",
      "type": "function"
    },
    {
      "inputs": [],
      "name": "__msgData",
      "outputs": [
        {
          "internalType": "bytes",
          "name": "",
          "type": "bytes"
        }
      ],
      "stateMutability": "view",
      "type": "function"
    },
    {
      "inputs": [
        {
          "internalType": "address",
          "name": "to",
          "type": "address"
        },
        {
          "internalType": "uint256",
          "name": "tokenId",
          "type": "uint256"
        }
      ],
      "name": "approve",
      "outputs": [],
      "stateMutability": "nonpayable",
      "type": "function"
    },
    {
      "inputs": [
        {
          "internalType": "address",
          "name": "owner",
          "type": "address"
        }
      ],
      "name": "balanceOf",
      "outputs": [
        {
          "internalType": "uint256",
          "name": "balance",
          "type": "uint256"
        }
      ],
      "stateMutability": "view",
      "type": "function"
    },
    {
      "inputs": [
        {
          "internalType": "address",
          "name": "to",
          "type": "address"
        },
        {
          "internalType": "uint256[]",
          "name": "tokenIds",
          "type": "uint256[]"
        }
      ],
      "name": "batchMint",
      "outputs": [],
      "stateMutability": "nonpayable",
      "type": "function"
    },
    {
      "inputs": [
        {
          "internalType": "address",
          "name": "from",
          "type": "address"
        },
        {
          "internalType": "address",
          "name": "to",
          "type": "address"
        },
        {
          "internalType": "uint256[]",
          "name": "tokenIds",
          "type": "uint256[]"
        }
      ],
      "name": "batchTransferFrom",
      "outputs": [],
      "stateMutability": "nonpayable",
      "type": "function"
    },
    {
      "inputs": [],
      "name": "forwarderRegistry",
      "outputs": [
        {
          "internalType": "contract IForwarderRegistry",
          "name": "",
          "type": "address"
        }
      ],
      "stateMutability": "view",
      "type": "function"
    },
    {
      "inputs": [
        {
          "internalType": "uint256",
          "name": "tokenId",
          "type": "uint256"
        }
      ],
      "name": "getApproved",
      "outputs": [
        {
          "internalType": "address",
          "name": "approved",
          "type": "address"
        }
      ],
      "stateMutability": "view",
      "type": "function"
    },
    {
      "inputs": [
        {
          "internalType": "bytes32",
          "name": "role",
          "type": "bytes32"
        },
        {
          "internalType": "address",
          "name": "account",
          "type": "address"
        }
      ],
      "name": "grantRole",
      "outputs": [],
      "stateMutability": "nonpayable",
      "type": "function"
    },
    {
      "inputs": [
        {
          "internalType": "bytes32",
          "name": "role",
          "type": "bytes32"
        },
        {
          "internalType": "address",
          "name": "account",
          "type": "address"
        }
      ],
      "name": "hasRole",
      "outputs": [
        {
          "internalType": "bool",
          "name": "hasRole_",
          "type": "bool"
        }
      ],
      "stateMutability": "view",
      "type": "function"
    },
    {
      "inputs": [
        {
          "internalType": "address",
          "name": "owner",
          "type": "address"
        },
        {
          "internalType": "address",
          "name": "operator",
          "type": "address"
        }
      ],
      "name": "isApprovedForAll",
      "outputs": [
        {
          "internalType": "bool",
          "name": "approvedForAll",
          "type": "bool"
        }
      ],
      "stateMutability": "view",
      "type": "function"
    },
    {
      "inputs": [
        {
          "internalType": "address",
          "name": "forwarder",
          "type": "address"
        }
      ],
      "name": "isTrustedForwarder",
      "outputs": [
        {
          "internalType": "bool",
          "name": "",
          "type": "bool"
        }
      ],
      "stateMutability": "view",
      "type": "function"
    },
    {
      "inputs": [
        {
          "internalType": "address",
          "name": "to",
          "type": "address"
        },
        {
          "internalType": "uint256",
          "name": "tokenId",
          "type": "uint256"
        }
      ],
      "name": "mint",
      "outputs": [],
      "stateMutability": "nonpayable",
      "type": "function"
    },
    {
      "inputs": [],
      "name": "owner",
      "outputs": [
        {
          "internalType": "address",
          "name": "",
          "type": "address"
        }
      ],
      "stateMutability": "view",
      "type": "function"
    },
    {
      "inputs": [
        {
          "internalType": "uint256",
          "name": "tokenId",
          "type": "uint256"
        }
      ],
      "name": "ownerOf",
      "outputs": [
        {
          "internalType": "address",
          "name": "tokenOwner",
          "type": "address"
        }
      ],
      "stateMutability": "view",
      "type": "function"
    },
    {
      "inputs": [
        {
          "internalType": "bytes32",
          "name": "role",
          "type": "bytes32"
        }
      ],
      "name": "renounceRole",
      "outputs": [],
      "stateMutability": "nonpayable",
      "type": "function"
    },
    {
      "inputs": [
        {
          "internalType": "bytes32",
          "name": "role",
          "type": "bytes32"
        },
        {
          "internalType": "address",
          "name": "account",
          "type": "address"
        }
      ],
      "name": "revokeRole",
      "outputs": [],
      "stateMutability": "nonpayable",
      "type": "function"
    },
    {
      "inputs": [
        {
          "internalType": "address",
          "name": "to",
          "type": "address"
        },
        {
          "internalType": "uint256",
          "name": "tokenId",
          "type": "uint256"
        },
        {
          "internalType": "bytes",
          "name": "data",
          "type": "bytes"
        }
      ],
      "name": "safeMint",
      "outputs": [],
      "stateMutability": "nonpayable",
      "type": "function"
    },
    {
      "inputs": [
        {
          "internalType": "address",
          "name": "from",
          "type": "address"
        },
        {
          "internalType": "address",
          "name": "to",
          "type": "address"
        },
        {
          "internalType": "uint256",
          "name": "tokenId",
          "type": "uint256"
        }
      ],
      "name": "safeTransferFrom",
      "outputs": [],
      "stateMutability": "nonpayable",
      "type": "function"
    },
    {
      "inputs": [
        {
          "internalType": "address",
          "name": "from",
          "type": "address"
        },
        {
          "internalType": "address",
          "name": "to",
          "type": "address"
        },
        {
          "internalType": "uint256",
          "name": "tokenId",
          "type": "uint256"
        },
        {
          "internalType": "bytes",
          "name": "data",
          "type": "bytes"
        }
      ],
      "name": "safeTransferFrom",
      "outputs": [],
      "stateMutability": "nonpayable",
      "type": "function"
    },
    {
      "inputs": [
        {
          "internalType": "address",
          "name": "operator",
          "type": "address"
        },
        {
          "internalType": "bool",
          "name": "approved",
          "type": "bool"
        }
      ],
      "name": "setApprovalForAll",
      "outputs": [],
      "stateMutability": "nonpayable",
      "type": "function"
    },
    {
      "inputs": [
        {
          "internalType": "bytes4",
          "name": "interfaceId",
          "type": "bytes4"
        }
      ],
      "name": "supportsInterface",
      "outputs": [
        {
          "internalType": "bool",
          "name": "",
          "type": "bool"
        }
      ],
      "stateMutability": "view",
      "type": "function"
    },
    {
      "inputs": [
        {
          "internalType": "address",
          "name": "from",
          "type": "address"
        },
        {
          "internalType": "address",
          "name": "to",
          "type": "address"
        },
        {
          "internalType": "uint256",
          "name": "tokenId",
          "type": "uint256"
        }
      ],
      "name": "transferFrom",
      "outputs": [],
      "stateMutability": "nonpayable",
      "type": "function"
    },
    {
      "inputs": [
        {
          "internalType": "address",
          "name": "newOwner",
          "type": "address"
        }
      ],
      "name": "transferOwnership",
      "outputs": [],
      "stateMutability": "nonpayable",
      "type": "function"
    }
  ],
  "bytecode": "0x60a060405234801562000010575f80fd5b5060405162002866380380620028668339810160408190526200003391620001ff565b8080336200004062000080565b6200004a620000a2565b620000608162000059620000ba565b90620000ef565b506200006b62000161565b6001600160a01b0316608052506200024e9050565b620000a06380ac58cd60e01b60016200009862000174565b9190620001a3565b565b620000a063f3993d1160e01b60016200009862000174565b5f80620000e960017fc9ed16f33ab3a66c84bfd83099ccb2a8845871e2e1c1928f63797152f0fd54cd6200022e565b92915050565b6001600160a01b03811615620001455781546001600160a01b0319166001600160a01b03821690811783556040515f907f8be0079c531659141344cd1fd0a4f28419497f9722a3daafe3b4186f6b6457e0908290a35b6200015d6307f5828d60e41b60016200009862000174565b5050565b620000a0638e773e1360e01b6001620000985b5f80620000e960017fca9d3e17f264b0f3984e2634e94adb37fa3e6a8103f06aeae6fa59e21c769f5e6200022e565b600160e01b6001600160e01b0319831601620001d2576040516372c683bb60e01b815260040160405180910390fd5b6001600160e01b0319919091165f9081526020929092526040909120805460ff1916911515919091179055565b5f6020828403121562000210575f80fd5b81516001600160a01b038116811462000227575f80fd5b9392505050565b81810381811115620000e957634e487b7160e01b5f52601160045260245ffd5b6080516125dc6200028a5f395f818161021d015281816102b301528181611c6701528181611cef01528181611e110152611e4f01526125dc5ff3fe608060405234801561000f575f80fd5b506004361061018f575f3560e01c806370a08231116100dd578063b88d4fde11610088578063e985e9c511610063578063e985e9c5146103c5578063f2fde38b146103d8578063f3993d11146103eb575f80fd5b8063b88d4fde14610378578063d53913931461038b578063d547741f146103b2575f80fd5b80638da5cb5b116100b85780638da5cb5b1461034a57806391d1485414610352578063a22cb46514610365575f80fd5b806370a08231146103035780638832e6e3146103245780638bb9c5bf14610337575f80fd5b806331e66e1e1161013d5780634684d7e9116101185780634684d7e914610290578063572b6c05146102a35780636352211e146102f0575f80fd5b806331e66e1e1461025457806340c10f191461026a57806342842e0e1461027d575f80fd5b806323b872dd1161016d57806323b872dd146102085780632b4c9f161461021b5780632f2ff15d14610241575f80fd5b806301ffc9a714610193578063081812fc146101bb578063095ea7b3146101f3575b5f80fd5b6101a66101a13660046120b0565b6103fe565b60405190151581526020015b60405180910390f35b6101ce6101c93660046120cb565b610417565b60405173ffffffffffffffffffffffffffffffffffffffff90911681526020016101b2565b61020661020136600461210a565b61042a565b005b610206610216366004612132565b61044b565b7f00000000000000000000000000000000000000000000000000000000000000006101ce565b61020661024f36600461216b565b61046f565b61025c6104a2565b6040516101b2929190612195565b61020661027836600461210a565b6104b4565b61020661028b366004612132565b610503565b61020661029e366004612229565b610522565b6101a66102b1366004612278565b7f000000000000000000000000000000000000000000000000000000000000000073ffffffffffffffffffffffffffffffffffffffff90811691161490565b6101ce6102fe3660046120cb565b610595565b610316610311366004612278565b6105a8565b6040519081526020016101b2565b6102066103323660046122cf565b6105bb565b6102066103453660046120cb565b610642565b6101ce610660565b6101a661036036600461216b565b61068b565b610206610373366004612332565b6106d4565b610206610386366004612367565b6106f1565b6103167f6d696e746572000000000000000000000000000000000000000000000000000081565b6102066103c036600461216b565b61071b565b6101a66103d33660046123d1565b610748565b6102066103e6366004612278565b610794565b6102066103f93660046123f9565b6107af565b5f6104118261040b6107d0565b906107fd565b92915050565b5f610411826104246108d4565b90610901565b6104476104356109b7565b838361043f6108d4565b9291906109c0565b5050565b61046a6104566109b7565b8484846104616108d4565b93929190610c37565b505050565b5f6104786109b7565b905061048c81610486610f11565b90610f3e565b61046a83838361049a610fa9565b929190610fd6565b365f6104ac6110aa565b915091509091565b6104ef7f6d696e74657200000000000000000000000000000000000000000000000000006104e06109b7565b6104e8610fa9565b91906110b4565b61044782826104fc6108d4565b9190611139565b61046a61050e6109b7565b8484846105196108d4565b93929190611251565b61054e7f6d696e74657200000000000000000000000000000000000000000000000000006104e06109b7565b61046a838383808060200260200160405190810160405280939291908181526020018383602002808284375f9201919091525061058e92506108d4915050565b9190611296565b5f610411826105a26108d4565b90611406565b5f610411826105b56108d4565b9061146e565b6105e77f6d696e74657200000000000000000000000000000000000000000000000000006104e06109b7565b61063c6105f26109b7565b858585858080601f0160208091040260200160405190810160405280939291908181526020018383808284375f9201919091525061063392506108d4915050565b939291906114e8565b50505050565b61065d61064d6109b7565b82610656610fa9565b919061151d565b50565b5f61068661066c610f11565b5473ffffffffffffffffffffffffffffffffffffffff1690565b905090565b5f6106cd8383610699610fa9565b5f9283526020908152604080842073ffffffffffffffffffffffffffffffffffffffff909316845291905290205460ff1690565b9392505050565b6104476106df6109b7565b83836106e96108d4565b9291906115c0565b6107146106fc6109b7565b86868686866107096108d4565b9594939291906116d7565b5050505050565b5f6107246109b7565b905061073281610486610f11565b61046a838383610740610fa9565b92919061174c565b5f6106cd83836107566108d4565b919073ffffffffffffffffffffffffffffffffffffffff9182165f908152600393909301602090815260408085209290931684525290205460ff1690565b61065d61079f6109b7565b826107a8610f11565b9190611814565b61063c6107ba6109b7565b858585856107c66108d4565b9493929190611927565b5f8061041160017fca9d3e17f264b0f3984e2634e94adb37fa3e6a8103f06aeae6fa59e21c769f5e61244a565b5f7c01000000000000000000000000000000000000000000000000000000007fffffffff0000000000000000000000000000000000000000000000000000000083160161084b57505f610411565b7ffe003659000000000000000000000000000000000000000000000000000000007fffffffff0000000000000000000000000000000000000000000000000000000083160161089c57506001610411565b507fffffffff00000000000000000000000000000000000000000000000000000000165f908152602091909152604090205460ff1690565b5f8061041160017fddf3ee18ae6d688373c219468f8be446e7ae82215f4779d821c7ea5e8c13c0c161244a565b5f8181526020839052604081205473ffffffffffffffffffffffffffffffffffffffff8116610964576040517fdd560475000000000000000000000000000000000000000000000000000000008152600481018490526024015b60405180910390fd5b740100000000000000000000000000000000000000008116156109ae5750505f81815260028301602052604090205473ffffffffffffffffffffffffffffffffffffffff16610411565b5f915050610411565b5f610686611c25565b5f8181526020859052604090205473ffffffffffffffffffffffffffffffffffffffff8116610a1e576040517fdd5604750000000000000000000000000000000000000000000000000000000081526004810183905260240161095b565b8073ffffffffffffffffffffffffffffffffffffffff80821690851603610a89576040517fb7fdc01000000000000000000000000000000000000000000000000000000000815273ffffffffffffffffffffffffffffffffffffffff8216600482015260240161095b565b610a94868287611d69565b610af1576040517fc7563a1800000000000000000000000000000000000000000000000000000000815273ffffffffffffffffffffffffffffffffffffffff8087166004830152821660248201526044810184905260640161095b565b73ffffffffffffffffffffffffffffffffffffffff8416610b555774010000000000000000000000000000000000000000821615610b50575f83815260208790526040902073ffffffffffffffffffffffffffffffffffffffff821690555b610bd4565b740100000000000000000000000000000000000000008217808314610b85575f8481526020889052604090208190555b505f838152600287016020526040902080547fffffffffffffffffffffffff00000000000000000000000000000000000000001673ffffffffffffffffffffffffffffffffffffffff86161790555b828473ffffffffffffffffffffffffffffffffffffffff168273ffffffffffffffffffffffffffffffffffffffff167f8c5be1e5ebec7d5bd14f71427d1e84f3dd0314c0f7b2291e5b200ac8c7c3b92560405160405180910390a4505050505050565b73ffffffffffffffffffffffffffffffffffffffff8216610c84576040517f86c8706700000000000000000000000000000000000000000000000000000000815260040160405180910390fd5b5f8181526020869052604090205473ffffffffffffffffffffffffffffffffffffffff8116610ce2576040517fdd5604750000000000000000000000000000000000000000000000000000000081526004810183905260240161095b565b73ffffffffffffffffffffffffffffffffffffffff84168173ffffffffffffffffffffffffffffffffffffffff1614610d66576040517f14dbb53600000000000000000000000000000000000000000000000000000000815273ffffffffffffffffffffffffffffffffffffffff851660048201526024810183905260440161095b565b610d71868587611d69565b610e1f577401000000000000000000000000000000000000000081161580610dc157505f82815260028701602052604090205473ffffffffffffffffffffffffffffffffffffffff868116911614155b15610e1f576040517fa4a3018b00000000000000000000000000000000000000000000000000000000815273ffffffffffffffffffffffffffffffffffffffff8087166004830152851660248201526044810183905260640161095b565b5f82815260208790526040902073ffffffffffffffffffffffffffffffffffffffff80851691829055851614610eae5773ffffffffffffffffffffffffffffffffffffffff8085165f9081526001808901602052604080832080547fffffffffffffffffffffffffffffffffffffffffffffffffffffffffffffffff0190559286168252919020805490910190555b818373ffffffffffffffffffffffffffffffffffffffff168573ffffffffffffffffffffffffffffffffffffffff167fddf252ad1be2c89b69c2b068fc378daa952ba7f163c4a11628f55a4df523b3ef60405160405180910390a4505050505050565b5f8061041160017fc9ed16f33ab3a66c84bfd83099ccb2a8845871e2e1c1928f63797152f0fd54cd61244a565b815473ffffffffffffffffffffffffffffffffffffffff828116911614610447576040517f2ef4875e00000000000000000000000000000000000000000000000000000000815273ffffffffffffffffffffffffffffffffffffffff8216600482015260240161095b565b5f8061041160017fc8827d3282af6f37b64c3e9e6f3ac9df286ab0bb0fccd6f8661bf19adb368b2361244a565b5f8381526020858152604080832073ffffffffffffffffffffffffffffffffffffffff8616845290915290205460ff1661063c575f8381526020858152604080832073ffffffffffffffffffffffffffffffffffffffff8681168086529184529382902080547fffffffffffffffffffffffffffffffffffffffffffffffffffffffffffffff00166001179055815187815292830152918316918101919091527f2f8788117e7eff1d82e926ec794901d17c78024a50270940304540a733656f0d906060015b60405180910390a150505050565b365f6104ac611ddc565b5f8281526020848152604080832073ffffffffffffffffffffffffffffffffffffffff8516845290915290205460ff1661046a576040517f7aa728820000000000000000000000000000000000000000000000000000000081526004810183905273ffffffffffffffffffffffffffffffffffffffff8216602482015260440161095b565b73ffffffffffffffffffffffffffffffffffffffff8216611186576040517f7851b9cd00000000000000000000000000000000000000000000000000000000815260040160405180910390fd5b5f8181526020849052604090205473ffffffffffffffffffffffffffffffffffffffff16156111e4576040517f753eceac0000000000000000000000000000000000000000000000000000000081526004810182905260240161095b565b5f8181526020848152604080832073ffffffffffffffffffffffffffffffffffffffff86169081905580845260018088019093528184208054909301909255518392907fddf252ad1be2c89b69c2b068fc378daa952ba7f163c4a11628f55a4df523b3ef908290a4505050565b61125e8585858585610c37565b73ffffffffffffffffffffffffffffffffffffffff82163b15610714576107148484848460405180602001604052805f815250611f41565b73ffffffffffffffffffffffffffffffffffffffff82166112e3576040517f7851b9cd00000000000000000000000000000000000000000000000000000000815260040160405180910390fd5b80515f5b8181146113d2575f83828151811061130157611301612482565b6020026020010151905061133c865f015f8381526020019081526020015f205473ffffffffffffffffffffffffffffffffffffffff16151590565b15611376576040517f753eceac0000000000000000000000000000000000000000000000000000000081526004810182905260240161095b565b5f8181526020879052604080822073ffffffffffffffffffffffffffffffffffffffff88169081905590518392907fddf252ad1be2c89b69c2b068fc378daa952ba7f163c4a11628f55a4df523b3ef908290a4506001016112e7565b5073ffffffffffffffffffffffffffffffffffffffff9092165f908152600190930160205250604090912080549091019055565b5f8181526020839052604081205473ffffffffffffffffffffffffffffffffffffffff8116611464576040517fdd5604750000000000000000000000000000000000000000000000000000000081526004810184905260240161095b565b805b949350505050565b5f73ffffffffffffffffffffffffffffffffffffffff82166114bc576040517faefbce4e00000000000000000000000000000000000000000000000000000000815260040160405180910390fd5b5073ffffffffffffffffffffffffffffffffffffffff165f908152600191909101602052604090205490565b6114f3858484611139565b73ffffffffffffffffffffffffffffffffffffffff83163b1561071457610714845f858585611f41565b6115288382846110b4565b5f8181526020848152604080832073ffffffffffffffffffffffffffffffffffffffff86168085529083529281902080547fffffffffffffffffffffffffffffffffffffffffffffffffffffffffffffff0016905580518481529182018390528101919091527ff6391f5c32d9c69d2a47ea670b442974b53935d1edc7fd64eb21e047a839171b9060600160405180910390a1505050565b8273ffffffffffffffffffffffffffffffffffffffff168273ffffffffffffffffffffffffffffffffffffffff160361163d576040517fe4215c6a00000000000000000000000000000000000000000000000000000000815273ffffffffffffffffffffffffffffffffffffffff8416600482015260240161095b565b73ffffffffffffffffffffffffffffffffffffffff8381165f81815260038701602090815260408083209487168084529482529182902080547fffffffffffffffffffffffffffffffffffffffffffffffffffffffffffffff001686151590811790915591519182527f17307eab39ab6107e8899845ad3d59bd9653f200f220920489ca2b5937696c31910160405180910390a350505050565b6116e48787878787610c37565b73ffffffffffffffffffffffffffffffffffffffff84163b15611743576117438686868686868080601f0160208091040260200160405190810160405280939291908181526020018383808284375f92019190915250611f4192505050565b50505050505050565b5f8381526020858152604080832073ffffffffffffffffffffffffffffffffffffffff8616845290915290205460ff161561063c575f8381526020858152604080832073ffffffffffffffffffffffffffffffffffffffff8681168086529184529382902080547fffffffffffffffffffffffffffffffffffffffffffffffffffffffffffffff00169055815187815292830152918316918101919091527ff6391f5c32d9c69d2a47ea670b442974b53935d1edc7fd64eb21e047a839171b9060600161109c565b825473ffffffffffffffffffffffffffffffffffffffff9081169083168114611881576040517f2ef4875e00000000000000000000000000000000000000000000000000000000815273ffffffffffffffffffffffffffffffffffffffff8416600482015260240161095b565b8173ffffffffffffffffffffffffffffffffffffffff168173ffffffffffffffffffffffffffffffffffffffff161461063c5783547fffffffffffffffffffffffff00000000000000000000000000000000000000001673ffffffffffffffffffffffffffffffffffffffff8381169182178655604051908316907f8be0079c531659141344cd1fd0a4f28419497f9722a3daafe3b4186f6b6457e0905f90a350505050565b73ffffffffffffffffffffffffffffffffffffffff8316611974576040517f86c8706700000000000000000000000000000000000000000000000000000000815260040160405180910390fd5b5f611980878688611d69565b9050815f5b818114611b9e575f85858381811061199f5761199f612482565b602090810292909201355f818152928d90526040909220549192505073ffffffffffffffffffffffffffffffffffffffff8116611a0b576040517fdd5604750000000000000000000000000000000000000000000000000000000081526004810183905260240161095b565b73ffffffffffffffffffffffffffffffffffffffff89168173ffffffffffffffffffffffffffffffffffffffff1614611a8f576040517f14dbb53600000000000000000000000000000000000000000000000000000000815273ffffffffffffffffffffffffffffffffffffffff8a1660048201526024810183905260440161095b565b84611b3e577401000000000000000000000000000000000000000081161580611ae057505f82815260028c01602052604090205473ffffffffffffffffffffffffffffffffffffffff8b8116911614155b15611b3e576040517fa4a3018b00000000000000000000000000000000000000000000000000000000815273ffffffffffffffffffffffffffffffffffffffff808c1660048301528a1660248201526044810183905260640161095b565b5f82815260208c9052604080822073ffffffffffffffffffffffffffffffffffffffff808c16918290559151859391928d16917fddf252ad1be2c89b69c2b068fc378daa952ba7f163c4a11628f55a4df523b3ef91a45050600101611985565b508473ffffffffffffffffffffffffffffffffffffffff168673ffffffffffffffffffffffffffffffffffffffff1614158015611bda57508015155b15611c1b5773ffffffffffffffffffffffffffffffffffffffff8087165f90815260018a016020526040808220805485900390559187168152208054820190555b5050505050505050565b5f33321480611c345750601836105b15611c3e57503390565b7fffffffffffffffffffffffffffffffffffffffffffffffffffffffffffffffec36013560601c7f000000000000000000000000000000000000000000000000000000000000000073ffffffffffffffffffffffffffffffffffffffff16331480611d5857506040517f8929a8ca00000000000000000000000000000000000000000000000000000000815273ffffffffffffffffffffffffffffffffffffffff82811660048301523360248301527f00000000000000000000000000000000000000000000000000000000000000001690638929a8ca90604401602060405180830381865afa158015611d34573d5f803e3d5ffd5b505050506040513d601f19601f82011682018060405250810190611d5891906124af565b15611d6257919050565b3391505090565b5f8173ffffffffffffffffffffffffffffffffffffffff168373ffffffffffffffffffffffffffffffffffffffff16148061146657505073ffffffffffffffffffffffffffffffffffffffff9182165f908152600393909301602090815260408085209290931684525290205460ff1690565b365f33321480611dec5750601836105b15611df957505f91369150565b3373ffffffffffffffffffffffffffffffffffffffff7f0000000000000000000000000000000000000000000000000000000000000000161480611f2c575073ffffffffffffffffffffffffffffffffffffffff7f000000000000000000000000000000000000000000000000000000000000000016638929a8ca367fffffffffffffffffffffffffffffffffffffffffffffffffffffffffffffffec013560601c6040517fffffffff0000000000000000000000000000000000000000000000000000000060e084901b16815273ffffffffffffffffffffffffffffffffffffffff9091166004820152336024820152604401602060405180830381865afa158015611f08573d5f803e3d5ffd5b505050506040513d601f19601f82011682018060405250810190611f2c91906124af565b15611f39576104ac612053565b505f91369150565b6040517f150b7a02000000000000000000000000000000000000000000000000000000008082529073ffffffffffffffffffffffffffffffffffffffff85169063150b7a0290611f9b9089908990889088906004016124ca565b6020604051808303815f875af1158015611fb7573d5f803e3d5ffd5b505050506040513d601f19601f82011682018060405250810190611fdb9190612564565b7fffffffff000000000000000000000000000000000000000000000000000000001614610714576040517fc215a7a100000000000000000000000000000000000000000000000000000000815273ffffffffffffffffffffffffffffffffffffffff841660048201526024810183905260440161095b565b365f6104ac7fffffffffffffffffffffffffffffffffffffffffffffffffffffffffffffffec830182848161257f565b7fffffffff000000000000000000000000000000000000000000000000000000008116811461065d575f80fd5b5f602082840312156120c0575f80fd5b81356106cd81612083565b5f602082840312156120db575f80fd5b5035919050565b803573ffffffffffffffffffffffffffffffffffffffff81168114612105575f80fd5b919050565b5f806040838503121561211b575f80fd5b612124836120e2565b946020939093013593505050565b5f805f60608486031215612144575f80fd5b61214d846120e2565b925061215b602085016120e2565b9150604084013590509250925092565b5f806040838503121561217c575f80fd5b8235915061218c602084016120e2565b90509250929050565b60208152816020820152818360408301375f818301604090810191909152601f9092017fffffffffffffffffffffffffffffffffffffffffffffffffffffffffffffffe0160101919050565b5f8083601f8401126121f1575f80fd5b50813567ffffffffffffffff811115612208575f80fd5b6020830191508360208260051b8501011115612222575f80fd5b9250929050565b5f805f6040848603121561223b575f80fd5b612244846120e2565b9250602084013567ffffffffffffffff81111561225f575f80fd5b61226b868287016121e1565b9497909650939450505050565b5f60208284031215612288575f80fd5b6106cd826120e2565b5f8083601f8401126122a1575f80fd5b50813567ffffffffffffffff8111156122b8575f80fd5b602083019150836020828501011115612222575f80fd5b5f805f80606085870312156122e2575f80fd5b6122eb856120e2565b935060208501359250604085013567ffffffffffffffff81111561230d575f80fd5b61231987828801612291565b95989497509550505050565b801515811461065d575f80fd5b5f8060408385031215612343575f80fd5b61234c836120e2565b9150602083013561235c81612325565b809150509250929050565b5f805f805f6080868803121561237b575f80fd5b612384866120e2565b9450612392602087016120e2565b935060408601359250606086013567ffffffffffffffff8111156123b4575f80fd5b6123c088828901612291565b969995985093965092949392505050565b5f80604083850312156123e2575f80fd5b6123eb836120e2565b915061218c602084016120e2565b5f805f806060858703121561240c575f80fd5b612415856120e2565b9350612423602086016120e2565b9250604085013567ffffffffffffffff81111561243e575f80fd5b612319878288016121e1565b81810381811115610411577f4e487b71000000000000000000000000000000000000000000000000000000005f52601160045260245ffd5b7f4e487b71000000000000000000000000000000000000000000000000000000005f52603260045260245ffd5b5f602082840312156124bf575f80fd5b81516106cd81612325565b5f73ffffffffffffffffffffffffffffffffffffffff808716835260208187168185015285604085015260806060850152845191508160808501525f5b828110156125235785810182015185820160a001528101612507565b50505f60a0828501015260a07fffffffffffffffffffffffffffffffffffffffffffffffffffffffffffffffe0601f83011684010191505095945050505050565b5f60208284031215612574575f80fd5b81516106cd81612083565b5f808585111561258d575f80fd5b83861115612599575f80fd5b505082019391909203915056fea26469706673582212200608db4a6cd44543067bc32d96273d9284522a358869149d96fa56cde93ea53864736f6c63430008150033",
  "linkReferences": {},
  "deployedLinkReferences": {}
}