{
  "_format": "hh-sol-artifact-1",
  "contractName": "InterfaceDetectionFacetMock",
  "sourceName": "contracts/mocks/introspection/facets/InterfaceDetectionFacetMock.sol",
  "abi": [
    {
      "inputs": [
        {
          "internalType": "bytes4",
          "name": "interfaceId",
          "type": "bytes4"
        },
        {
          "internalType": "bool",
          "name": "supported",
          "type": "bool"
        }
      ],
      "name": "setSupportedInterface",
      "outputs": [],
      "stateMutability": "nonpayable",
      "type": "function"
    },
    {
      "inputs": [
        {
          "internalType": "bytes4",
          "name": "interfaceId",
          "type": "bytes4"
        }
      ],
      "name": "supportsInterface",
      "outputs": [
        {
          "internalType": "bool",
          "name": "",
          "type": "bool"
        }
      ],
      "stateMutability": "view",
      "type": "function"
    }
  ],
  "bytecode": "0x608060405234801561001057600080fd5b506103c4806100206000396000f3fe608060405234801561001057600080fd5b50600436106100365760003560e01c806301ffc9a71461003b5780637f73528b14610062575b600080fd5b61004e6100493660046102f6565b610077565b604051901515815260200160405180910390f35b610075610070366004610318565b610091565b005b600061008b826100856100a9565b906100d7565b92915050565b6100a5828261009e6100a9565b91906101b1565b5050565b60008061008b60017fca9d3e17f264b0f3984e2634e94adb37fa3e6a8103f06aeae6fa59e21c769f5e610354565b60007c01000000000000000000000000000000000000000000000000000000007fffffffff000000000000000000000000000000000000000000000000000000008316016101275750600061008b565b7ffe003659000000000000000000000000000000000000000000000000000000007fffffffff000000000000000000000000000000000000000000000000000000008316016101785750600161008b565b507fffffffff00000000000000000000000000000000000000000000000000000000166000908152602091909152604090205460ff1690565b7c01000000000000000000000000000000000000000000000000000000007fffffffff0000000000000000000000000000000000000000000000000000000083160161025d576040517f08c379a000000000000000000000000000000000000000000000000000000000815260206004820152601f60248201527f496e74657266616365446574656374696f6e3a2077726f6e672076616c756500604482015260640160405180910390fd5b7fffffffff00000000000000000000000000000000000000000000000000000000919091166000908152602092909252604090912080547fffffffffffffffffffffffffffffffffffffffffffffffffffffffffffffff0016911515919091179055565b80357fffffffff00000000000000000000000000000000000000000000000000000000811681146102f157600080fd5b919050565b60006020828403121561030857600080fd5b610311826102c1565b9392505050565b6000806040838503121561032b57600080fd5b610334836102c1565b91506020830135801515811461034957600080fd5b809150509250929050565b8181038181111561008b577f4e487b7100000000000000000000000000000000000000000000000000000000600052601160045260246000fdfea2646970667358221220f03d27460fe5b2b8df255ce2d283c30f8d0048342e13e177b7a52538ffb37ade64736f6c63430008110033",
  "linkReferences": {},
  "deployedLinkReferences": {}
}