{
  "_format": "hh-sol-artifact-1",
  "contractName": "ERC721MetadataPerTokenMock",
  "sourceName": "contracts/mocks/token/ERC721/ERC721MetadataPerTokenMock.sol",
  "abi": [
    {
      "inputs": [
        {
          "internalType": "string",
          "name": "tokenName",
          "type": "string"
        },
        {
          "internalType": "string",
          "name": "tokenSymbol",
          "type": "string"
        },
        {
          "internalType": "contract IForwarderRegistry",
          "name": "forwarderRegistry",
          "type": "address"
        }
      ],
      "stateMutability": "nonpayable",
      "type": "constructor"
    },
    {
      "anonymous": false,
      "inputs": [
        {
          "indexed": true,
          "internalType": "address",
          "name": "owner",
          "type": "address"
        },
        {
          "indexed": true,
          "internalType": "address",
          "name": "approved",
          "type": "address"
        },
        {
          "indexed": true,
          "internalType": "uint256",
          "name": "tokenId",
          "type": "uint256"
        }
      ],
      "name": "Approval",
      "type": "event"
    },
    {
      "anonymous": false,
      "inputs": [
        {
          "indexed": true,
          "internalType": "address",
          "name": "owner",
          "type": "address"
        },
        {
          "indexed": true,
          "internalType": "address",
          "name": "operator",
          "type": "address"
        },
        {
          "indexed": false,
          "internalType": "bool",
          "name": "approved",
          "type": "bool"
        }
      ],
      "name": "ApprovalForAll",
      "type": "event"
    },
    {
      "anonymous": false,
      "inputs": [
        {
          "indexed": true,
          "internalType": "address",
          "name": "previousOwner",
          "type": "address"
        },
        {
          "indexed": true,
          "internalType": "address",
          "name": "newOwner",
          "type": "address"
        }
      ],
      "name": "OwnershipTransferred",
      "type": "event"
    },
    {
      "anonymous": false,
      "inputs": [
        {
          "indexed": false,
          "internalType": "bytes32",
          "name": "role",
          "type": "bytes32"
        },
        {
          "indexed": false,
          "internalType": "address",
          "name": "account",
          "type": "address"
        },
        {
          "indexed": false,
          "internalType": "address",
          "name": "operator",
          "type": "address"
        }
      ],
      "name": "RoleGranted",
      "type": "event"
    },
    {
      "anonymous": false,
      "inputs": [
        {
          "indexed": false,
          "internalType": "bytes32",
          "name": "role",
          "type": "bytes32"
        },
        {
          "indexed": false,
          "internalType": "address",
          "name": "account",
          "type": "address"
        },
        {
          "indexed": false,
          "internalType": "address",
          "name": "operator",
          "type": "address"
        }
      ],
      "name": "RoleRevoked",
      "type": "event"
    },
    {
      "anonymous": false,
      "inputs": [
        {
          "indexed": true,
          "internalType": "address",
          "name": "from",
          "type": "address"
        },
        {
          "indexed": true,
          "internalType": "address",
          "name": "to",
          "type": "address"
        },
        {
          "indexed": true,
          "internalType": "uint256",
          "name": "tokenId",
          "type": "uint256"
        }
      ],
      "name": "Transfer",
      "type": "event"
    },
    {
      "inputs": [],
      "name": "MINTER_ROLE",
      "outputs": [
        {
          "internalType": "bytes32",
          "name": "",
          "type": "bytes32"
        }
      ],
      "stateMutability": "view",
      "type": "function"
    },
    {
      "inputs": [],
      "name": "__msgData",
      "outputs": [
        {
          "internalType": "bytes",
          "name": "",
          "type": "bytes"
        }
      ],
      "stateMutability": "view",
      "type": "function"
    },
    {
      "inputs": [
        {
          "internalType": "address",
          "name": "to",
          "type": "address"
        },
        {
          "internalType": "uint256",
          "name": "tokenId",
          "type": "uint256"
        }
      ],
      "name": "approve",
      "outputs": [],
      "stateMutability": "nonpayable",
      "type": "function"
    },
    {
      "inputs": [
        {
          "internalType": "address",
          "name": "owner",
          "type": "address"
        }
      ],
      "name": "balanceOf",
      "outputs": [
        {
          "internalType": "uint256",
          "name": "balance",
          "type": "uint256"
        }
      ],
      "stateMutability": "view",
      "type": "function"
    },
    {
      "inputs": [
        {
          "internalType": "address",
          "name": "to",
          "type": "address"
        },
        {
          "internalType": "uint256[]",
          "name": "tokenIds",
          "type": "uint256[]"
        }
      ],
      "name": "batchMint",
      "outputs": [],
      "stateMutability": "nonpayable",
      "type": "function"
    },
    {
      "inputs": [
        {
          "internalType": "uint256[]",
          "name": "tokenIds",
          "type": "uint256[]"
        },
        {
          "internalType": "string[]",
          "name": "uris",
          "type": "string[]"
        }
      ],
      "name": "batchSetTokenURI",
      "outputs": [],
      "stateMutability": "nonpayable",
      "type": "function"
    },
    {
      "inputs": [],
      "name": "forwarderRegistry",
      "outputs": [
        {
          "internalType": "contract IForwarderRegistry",
          "name": "",
          "type": "address"
        }
      ],
      "stateMutability": "view",
      "type": "function"
    },
    {
      "inputs": [
        {
          "internalType": "uint256",
          "name": "tokenId",
          "type": "uint256"
        }
      ],
      "name": "getApproved",
      "outputs": [
        {
          "internalType": "address",
          "name": "approved",
          "type": "address"
        }
      ],
      "stateMutability": "view",
      "type": "function"
    },
    {
      "inputs": [
        {
          "internalType": "bytes32",
          "name": "role",
          "type": "bytes32"
        },
        {
          "internalType": "address",
          "name": "account",
          "type": "address"
        }
      ],
      "name": "grantRole",
      "outputs": [],
      "stateMutability": "nonpayable",
      "type": "function"
    },
    {
      "inputs": [
        {
          "internalType": "bytes32",
          "name": "role",
          "type": "bytes32"
        },
        {
          "internalType": "address",
          "name": "account",
          "type": "address"
        }
      ],
      "name": "hasRole",
      "outputs": [
        {
          "internalType": "bool",
          "name": "",
          "type": "bool"
        }
      ],
      "stateMutability": "view",
      "type": "function"
    },
    {
      "inputs": [
        {
          "internalType": "address",
          "name": "owner",
          "type": "address"
        },
        {
          "internalType": "address",
          "name": "operator",
          "type": "address"
        }
      ],
      "name": "isApprovedForAll",
      "outputs": [
        {
          "internalType": "bool",
          "name": "approvedForAll",
          "type": "bool"
        }
      ],
      "stateMutability": "view",
      "type": "function"
    },
    {
      "inputs": [
        {
          "internalType": "address",
          "name": "forwarder",
          "type": "address"
        }
      ],
      "name": "isTrustedForwarder",
      "outputs": [
        {
          "internalType": "bool",
          "name": "",
          "type": "bool"
        }
      ],
      "stateMutability": "view",
      "type": "function"
    },
    {
      "inputs": [
        {
          "internalType": "address",
          "name": "to",
          "type": "address"
        },
        {
          "internalType": "uint256",
          "name": "tokenId",
          "type": "uint256"
        }
      ],
      "name": "mint",
      "outputs": [],
      "stateMutability": "nonpayable",
      "type": "function"
    },
    {
      "inputs": [],
      "name": "name",
      "outputs": [
        {
          "internalType": "string",
          "name": "tokenName",
          "type": "string"
        }
      ],
      "stateMutability": "view",
      "type": "function"
    },
    {
      "inputs": [],
      "name": "owner",
      "outputs": [
        {
          "internalType": "address",
          "name": "",
          "type": "address"
        }
      ],
      "stateMutability": "view",
      "type": "function"
    },
    {
      "inputs": [
        {
          "internalType": "uint256",
          "name": "tokenId",
          "type": "uint256"
        }
      ],
      "name": "ownerOf",
      "outputs": [
        {
          "internalType": "address",
          "name": "tokenOwner",
          "type": "address"
        }
      ],
      "stateMutability": "view",
      "type": "function"
    },
    {
      "inputs": [
        {
          "internalType": "bytes32",
          "name": "role",
          "type": "bytes32"
        }
      ],
      "name": "renounceRole",
      "outputs": [],
      "stateMutability": "nonpayable",
      "type": "function"
    },
    {
      "inputs": [
        {
          "internalType": "bytes32",
          "name": "role",
          "type": "bytes32"
        },
        {
          "internalType": "address",
          "name": "account",
          "type": "address"
        }
      ],
      "name": "revokeRole",
      "outputs": [],
      "stateMutability": "nonpayable",
      "type": "function"
    },
    {
      "inputs": [
        {
          "internalType": "address",
          "name": "to",
          "type": "address"
        },
        {
          "internalType": "uint256",
          "name": "tokenId",
          "type": "uint256"
        },
        {
          "internalType": "bytes",
          "name": "data",
          "type": "bytes"
        }
      ],
      "name": "safeMint",
      "outputs": [],
      "stateMutability": "nonpayable",
      "type": "function"
    },
    {
      "inputs": [
        {
          "internalType": "address",
          "name": "from",
          "type": "address"
        },
        {
          "internalType": "address",
          "name": "to",
          "type": "address"
        },
        {
          "internalType": "uint256",
          "name": "tokenId",
          "type": "uint256"
        }
      ],
      "name": "safeTransferFrom",
      "outputs": [],
      "stateMutability": "nonpayable",
      "type": "function"
    },
    {
      "inputs": [
        {
          "internalType": "address",
          "name": "from",
          "type": "address"
        },
        {
          "internalType": "address",
          "name": "to",
          "type": "address"
        },
        {
          "internalType": "uint256",
          "name": "tokenId",
          "type": "uint256"
        },
        {
          "internalType": "bytes",
          "name": "data",
          "type": "bytes"
        }
      ],
      "name": "safeTransferFrom",
      "outputs": [],
      "stateMutability": "nonpayable",
      "type": "function"
    },
    {
      "inputs": [
        {
          "internalType": "address",
          "name": "operator",
          "type": "address"
        },
        {
          "internalType": "bool",
          "name": "approved",
          "type": "bool"
        }
      ],
      "name": "setApprovalForAll",
      "outputs": [],
      "stateMutability": "nonpayable",
      "type": "function"
    },
    {
      "inputs": [
        {
          "internalType": "uint256",
          "name": "tokenId",
          "type": "uint256"
        },
        {
          "internalType": "string",
          "name": "uri",
          "type": "string"
        }
      ],
      "name": "setTokenURI",
      "outputs": [],
      "stateMutability": "nonpayable",
      "type": "function"
    },
    {
      "inputs": [
        {
          "internalType": "bytes4",
          "name": "interfaceId",
          "type": "bytes4"
        }
      ],
      "name": "supportsInterface",
      "outputs": [
        {
          "internalType": "bool",
          "name": "",
          "type": "bool"
        }
      ],
      "stateMutability": "view",
      "type": "function"
    },
    {
      "inputs": [],
      "name": "symbol",
      "outputs": [
        {
          "internalType": "string",
          "name": "tokenSymbol",
          "type": "string"
        }
      ],
      "stateMutability": "view",
      "type": "function"
    },
    {
      "inputs": [
        {
          "internalType": "uint256",
          "name": "tokenId",
          "type": "uint256"
        }
      ],
      "name": "tokenURI",
      "outputs": [
        {
          "internalType": "string",
          "name": "uri",
          "type": "string"
        }
      ],
      "stateMutability": "view",
      "type": "function"
    },
    {
      "inputs": [
        {
          "internalType": "address",
          "name": "from",
          "type": "address"
        },
        {
          "internalType": "address",
          "name": "to",
          "type": "address"
        },
        {
          "internalType": "uint256",
          "name": "tokenId",
          "type": "uint256"
        }
      ],
      "name": "transferFrom",
      "outputs": [],
      "stateMutability": "nonpayable",
      "type": "function"
    },
    {
      "inputs": [
        {
          "internalType": "address",
          "name": "newOwner",
          "type": "address"
        }
      ],
      "name": "transferOwnership",
      "outputs": [],
      "stateMutability": "nonpayable",
      "type": "function"
    }
  ],
  "bytecode": "0x60a06040523480156200001157600080fd5b506040516200342f3803806200342f83398101604081905262000034916200036b565b8282828080336200004462000097565b6200005a8162000053620000b9565b90620000ef565b506200006562000162565b6001600160a01b0316608052506200008c90508282620000846200017a565b9190620001aa565b505050505062000574565b620000b76380ac58cd60e01b6001620000af620001e6565b919062000216565b565b600080620000e960017fc9ed16f33ab3a66c84bfd83099ccb2a8845871e2e1c1928f63797152f0fd54cd620003f8565b92915050565b6001600160a01b03811615620001465781546001600160a01b0319166001600160a01b03821690811783556040516000907f8be0079c531659141344cd1fd0a4f28419497f9722a3daafe3b4186f6b6457e0908290a35b6200015e6307f5828d60e41b6001620000af620001e6565b5050565b620000b7638e773e1360e01b6001620000af620001e6565b600080620000e960017f9c4269c0f9f430d98876ffe9767fbf3f3232ea91a549beb549e5329532520eb3620003f8565b82620001b78382620004a8565b5060018301620001c88282620004a8565b50620001e1635b5e139f60e01b6001620000af620001e6565b505050565b600080620000e960017fca9d3e17f264b0f3984e2634e94adb37fa3e6a8103f06aeae6fa59e21c769f5e620003f8565b600160e01b6001600160e01b0319831601620002785760405162461bcd60e51b815260206004820152601f60248201527f496e74657266616365446574656374696f6e3a2077726f6e672076616c756500604482015260640160405180910390fd5b6001600160e01b03199190911660009081526020929092526040909120805460ff1916911515919091179055565b634e487b7160e01b600052604160045260246000fd5b600082601f830112620002ce57600080fd5b81516001600160401b0380821115620002eb57620002eb620002a6565b604051601f8301601f19908116603f01168101908282118183101715620003165762000316620002a6565b816040528381526020925086838588010111156200033357600080fd5b600091505b8382101562000357578582018301518183018401529082019062000338565b600093810190920192909252949350505050565b6000806000606084860312156200038157600080fd5b83516001600160401b03808211156200039957600080fd5b620003a787838801620002bc565b94506020860151915080821115620003be57600080fd5b50620003cd86828701620002bc565b604086015190935090506001600160a01b0381168114620003ed57600080fd5b809150509250925092565b81810381811115620000e957634e487b7160e01b600052601160045260246000fd5b600181811c908216806200042f57607f821691505b6020821081036200045057634e487b7160e01b600052602260045260246000fd5b50919050565b601f821115620001e157600081815260208120601f850160051c810160208610156200047f5750805b601f850160051c820191505b81811015620004a0578281556001016200048b565b505050505050565b81516001600160401b03811115620004c457620004c4620002a6565b620004dc81620004d584546200041a565b8462000456565b602080601f831160018114620005145760008415620004fb5750858301515b600019600386901b1c1916600185901b178555620004a0565b600085815260208120601f198616915b82811015620005455788860151825594840194600190910190840162000524565b5085821015620005645787850151600019600388901b60f8161c191681555b5050505050600190811b01905550565b608051612e7c620005b36000396000818161027b01528181610311015281816123160152818161239e01528181612451015261248f0152612e7c6000f3fe608060405234801561001057600080fd5b50600436106101c45760003560e01c80636706467b116100f9578063a22cb46511610097578063d539139311610071578063d539139314610417578063d547741f1461043e578063e985e9c514610451578063f2fde38b1461046457600080fd5b8063a22cb465146103de578063b88d4fde146103f1578063c87b56dd1461040457600080fd5b80638bb9c5bf116100d35780638bb9c5bf146103a85780638da5cb5b146103bb57806391d14854146103c357806395d89b41146103d657600080fd5b80636706467b1461036157806370a08231146103745780638832e6e31461039557600080fd5b80632f2ff15d1161016657806342842e0e1161014057806342842e0e146102db5780634684d7e9146102ee578063572b6c05146103015780636352211e1461034e57600080fd5b80632f2ff15d1461029f57806331e66e1e146102b257806340c10f19146102c857600080fd5b8063095ea7b3116101a2578063095ea7b31461023e578063162094c41461025357806323b872dd146102665780632b4c9f161461027957600080fd5b806301ffc9a7146101c957806306fdde03146101f1578063081812fc14610206575b600080fd5b6101dc6101d73660046125e3565b610477565b60405190151581526020015b60405180910390f35b6101f9610491565b6040516101e8919061266e565b610219610214366004612681565b6104a8565b60405173ffffffffffffffffffffffffffffffffffffffff90911681526020016101e8565b61025161024c3660046126c3565b6104bc565b005b610251610261366004612736565b6104dd565b610251610274366004612782565b610533565b7f0000000000000000000000000000000000000000000000000000000000000000610219565b6102516102ad3660046127be565b610552565b6102ba610586565b6040516101e89291906127ea565b6102516102d63660046126c3565b610599565b6102516102e9366004612782565b6105d9565b6102516102fc36600461287c565b6105f8565b6101dc61030f3660046128c2565b7f000000000000000000000000000000000000000000000000000000000000000073ffffffffffffffffffffffffffffffffffffffff90811691161490565b61021961035c366004612681565b61066c565b61025161036f3660046128dd565b610680565b6103876103823660046128c2565b6106ca565b6040519081526020016101e8565b6102516103a3366004612949565b6106de565b6102516103b6366004612681565b610760565b61021961077e565b6101dc6103d13660046127be565b6107a5565b6101f96107f0565b6102516103ec3660046129a5565b610802565b6102516103ff3660046129dc565b61081f565b6101f9610412366004612681565b610849565b6103877f6d696e746572000000000000000000000000000000000000000000000000000081565b61025161044c3660046127be565b61086a565b6101dc61045f366004612a4b565b610898565b6102516104723660046128c2565b6108e6565b600061048b82610485610901565b9061092f565b92915050565b60606104a361049e610a09565b610a37565b905090565b600061048b826104b6610acd565b90610afb565b6104d96104c7610be1565b83836104d1610acd565b929190610beb565b5050565b6105187f6d696e7465720000000000000000000000000000000000000000000000000000610509610be1565b610511610eb4565b9190610ee2565b61052e838383610526610f8e565b929190610fbc565b505050565b61052e61053e610be1565b848484610549610acd565b93929190610fd5565b600061055c610be1565b90506105708161056a61132a565b90611358565b61052e83838361057e610eb4565b9291906113db565b3660006105916114b1565b915091509091565b6105c57f6d696e7465720000000000000000000000000000000000000000000000000000610509610be1565b6104d982826105d2610acd565b91906114bc565b61052e6105e4610be1565b8484846105ef610acd565b93929190611633565b6106247f6d696e7465720000000000000000000000000000000000000000000000000000610509610be1565b61052e838383808060200260200160405190810160405280939291908181526020018383602002808284376000920191909152506106659250610acd915050565b9190611679565b600061048b8261067a610acd565b9061184d565b6106ac7f6d696e7465720000000000000000000000000000000000000000000000000000610509610be1565b6106c4848484846106bb610f8e565b939291906118e3565b50505050565b600061048b826106d8610acd565b906119c4565b61070a7f6d696e7465720000000000000000000000000000000000000000000000000000610509610be1565b6106c4610715610be1565b858585858080601f0160208091040260200160405190810160405280939291908181526020018383808284376000920191909152506107579250610acd915050565b93929190611a70565b61077b61076b610be1565b82610774610eb4565b9190611aa6565b50565b60006104a361078b61132a565b5473ffffffffffffffffffffffffffffffffffffffff1690565b60006107e983836107b4610eb4565b60009283526020908152604080842073ffffffffffffffffffffffffffffffffffffffff909316845291905290205460ff1690565b9392505050565b60606104a36107fd610a09565b611b4a565b6104d961080d610be1565b8383610817610acd565b929190611b5b565b61084261082a610be1565b8686868686610837610acd565b959493929190611c8b565b5050505050565b60606108578261067a610acd565b5061048b82610864610f8e565b90611cf8565b6000610874610be1565b90506108828161056a61132a565b61052e838383610890610eb4565b929190611d9b565b60006107e983836108a7610acd565b919073ffffffffffffffffffffffffffffffffffffffff9182166000908152600393909301602090815260408085209290931684525290205460ff1690565b61077b6108f1610be1565b826108fa61132a565b9190611e65565b60008061048b60017fca9d3e17f264b0f3984e2634e94adb37fa3e6a8103f06aeae6fa59e21c769f5e612a75565b60007c01000000000000000000000000000000000000000000000000000000007fffffffff0000000000000000000000000000000000000000000000000000000083160161097f5750600061048b565b7ffe003659000000000000000000000000000000000000000000000000000000007fffffffff000000000000000000000000000000000000000000000000000000008316016109d05750600161048b565b507fffffffff00000000000000000000000000000000000000000000000000000000166000908152602091909152604090205460ff1690565b60008061048b60017f9c4269c0f9f430d98876ffe9767fbf3f3232ea91a549beb549e5329532520eb3612a75565b6060816000018054610a4890612aaf565b80601f0160208091040260200160405190810160405280929190818152602001828054610a7490612aaf565b8015610ac15780601f10610a9657610100808354040283529160200191610ac1565b820191906000526020600020905b815481529060010190602001808311610aa457829003601f168201915b50505050509050919050565b60008061048b60017fddf3ee18ae6d688373c219468f8be446e7ae82215f4779d821c7ea5e8c13c0c1612a75565b60008181526020839052604081205473ffffffffffffffffffffffffffffffffffffffff8116610b8c576040517f08c379a000000000000000000000000000000000000000000000000000000000815260206004820152601a60248201527f4552433732313a206e6f6e2d6578697374696e6720746f6b656e00000000000060448201526064015b60405180910390fd5b74010000000000000000000000000000000000000000811615610bd7575050600081815260028301602052604090205473ffffffffffffffffffffffffffffffffffffffff1661048b565b600091505061048b565b60006104a3611f91565b60008181526020859052604090205473ffffffffffffffffffffffffffffffffffffffff8116610c77576040517f08c379a000000000000000000000000000000000000000000000000000000000815260206004820152601a60248201527f4552433732313a206e6f6e2d6578697374696e6720746f6b656e0000000000006044820152606401610b83565b8073ffffffffffffffffffffffffffffffffffffffff80821690851603610cfa576040517f08c379a000000000000000000000000000000000000000000000000000000000815260206004820152601560248201527f4552433732313a2073656c662d617070726f76616c00000000000000000000006044820152606401610b83565b610d05868287611f9b565b610d6b576040517f08c379a000000000000000000000000000000000000000000000000000000000815260206004820152601b60248201527f4552433732313a206e6f6e2d617070726f7665642073656e64657200000000006044820152606401610b83565b73ffffffffffffffffffffffffffffffffffffffff8416610dd05774010000000000000000000000000000000000000000821615610dcb57600083815260208790526040902073ffffffffffffffffffffffffffffffffffffffff821690555b610e51565b740100000000000000000000000000000000000000008217808314610e015760008481526020889052604090208190555b506000838152600287016020526040902080547fffffffffffffffffffffffff00000000000000000000000000000000000000001673ffffffffffffffffffffffffffffffffffffffff86161790555b828473ffffffffffffffffffffffffffffffffffffffff168273ffffffffffffffffffffffffffffffffffffffff167f8c5be1e5ebec7d5bd14f71427d1e84f3dd0314c0f7b2291e5b200ac8c7c3b92560405160405180910390a4505050505050565b60008061048b60017fc8827d3282af6f37b64c3e9e6f3ac9df286ab0bb0fccd6f8661bf19adb368b23612a75565b60008281526020848152604080832073ffffffffffffffffffffffffffffffffffffffff8516845290915290205460ff1661052e57610f2082612010565b604051602001610f309190612b02565b604080517fffffffffffffffffffffffffffffffffffffffffffffffffffffffffffffffe0818403018152908290527f08c379a0000000000000000000000000000000000000000000000000000000008252610b839160040161266e565b60008061048b60017f10425d47eba0194223d0d18d437db44682fcfacfc9f759b1b8092cc8a56516aa612a75565b6000838152602085905260409020610842828483612beb565b73ffffffffffffffffffffffffffffffffffffffff8216611052576040517f08c379a000000000000000000000000000000000000000000000000000000000815260206004820152601e60248201527f4552433732313a207472616e7366657220746f206164647265737328302900006044820152606401610b83565b60008181526020869052604090205473ffffffffffffffffffffffffffffffffffffffff81166110de576040517f08c379a000000000000000000000000000000000000000000000000000000000815260206004820152601a60248201527f4552433732313a206e6f6e2d6578697374696e6720746f6b656e0000000000006044820152606401610b83565b73ffffffffffffffffffffffffffffffffffffffff84168173ffffffffffffffffffffffffffffffffffffffff1614611173576040517f08c379a000000000000000000000000000000000000000000000000000000000815260206004820152601760248201527f4552433732313a206e6f6e2d6f776e656420746f6b656e0000000000000000006044820152606401610b83565b61117e868587611f9b565b61123657740100000000000000000000000000000000000000008116151580156111d05750600082815260028701602052604090205473ffffffffffffffffffffffffffffffffffffffff8681169116145b611236576040517f08c379a000000000000000000000000000000000000000000000000000000000815260206004820152601b60248201527f4552433732313a206e6f6e2d617070726f7665642073656e64657200000000006044820152606401610b83565b600082815260208790526040902073ffffffffffffffffffffffffffffffffffffffff808516918290558516146112c75773ffffffffffffffffffffffffffffffffffffffff80851660009081526001808901602052604080832080547fffffffffffffffffffffffffffffffffffffffffffffffffffffffffffffffff0190559286168252919020805490910190555b818373ffffffffffffffffffffffffffffffffffffffff168573ffffffffffffffffffffffffffffffffffffffff167fddf252ad1be2c89b69c2b068fc378daa952ba7f163c4a11628f55a4df523b3ef60405160405180910390a4505050505050565b60008061048b60017fc9ed16f33ab3a66c84bfd83099ccb2a8845871e2e1c1928f63797152f0fd54cd612a75565b815473ffffffffffffffffffffffffffffffffffffffff8281169116146104d9576040517f08c379a000000000000000000000000000000000000000000000000000000000815260206004820152601860248201527f4f776e6572736869703a206e6f7420746865206f776e657200000000000000006044820152606401610b83565b60008381526020858152604080832073ffffffffffffffffffffffffffffffffffffffff8616845290915290205460ff166106c45760008381526020858152604080832073ffffffffffffffffffffffffffffffffffffffff8681168086529184529382902080547fffffffffffffffffffffffffffffffffffffffffffffffffffffffffffffff00166001179055815187815292830152918316918101919091527f2f8788117e7eff1d82e926ec794901d17c78024a50270940304540a733656f0d906060015b60405180910390a150505050565b3660006105916121a2565b73ffffffffffffffffffffffffffffffffffffffff8216611539576040517f08c379a000000000000000000000000000000000000000000000000000000000815260206004820152601a60248201527f4552433732313a206d696e7420746f20616464726573732830290000000000006044820152606401610b83565b60008181526020849052604090205473ffffffffffffffffffffffffffffffffffffffff16156115c5576040517f08c379a000000000000000000000000000000000000000000000000000000000815260206004820152601660248201527f4552433732313a206578697374696e6720746f6b656e000000000000000000006044820152606401610b83565b60008181526020848152604080832073ffffffffffffffffffffffffffffffffffffffff86169081905580845260018088019093528184208054909301909255518392907fddf252ad1be2c89b69c2b068fc378daa952ba7f163c4a11628f55a4df523b3ef908290a4505050565b6116408585858585610fd5565b73ffffffffffffffffffffffffffffffffffffffff82163b156108425761084284848484604051806020016040528060008152506121ad565b73ffffffffffffffffffffffffffffffffffffffff82166116f6576040517f08c379a000000000000000000000000000000000000000000000000000000000815260206004820152601a60248201527f4552433732313a206d696e7420746f20616464726573732830290000000000006044820152606401610b83565b805160005b81811461181857600083828151811061171657611716612d05565b602002602001015190506117548660000160008381526020019081526020016000205473ffffffffffffffffffffffffffffffffffffffff16151590565b156117bb576040517f08c379a000000000000000000000000000000000000000000000000000000000815260206004820152601660248201527f4552433732313a206578697374696e6720746f6b656e000000000000000000006044820152606401610b83565b60008181526020879052604080822073ffffffffffffffffffffffffffffffffffffffff88169081905590518392907fddf252ad1be2c89b69c2b068fc378daa952ba7f163c4a11628f55a4df523b3ef908290a4506001016116fb565b5073ffffffffffffffffffffffffffffffffffffffff9092166000908152600190930160205250604090912080549091019055565b60008181526020839052604081205473ffffffffffffffffffffffffffffffffffffffff81166118d9576040517f08c379a000000000000000000000000000000000000000000000000000000000815260206004820152601a60248201527f4552433732313a206e6f6e2d6578697374696e6720746f6b656e0000000000006044820152606401610b83565b805b949350505050565b8281811461194d576040517f08c379a000000000000000000000000000000000000000000000000000000000815260206004820152601d60248201527f4d657461646174613a20696e636f6e73697374656e74206172726179730000006044820152606401610b83565b60005b8181146119bb5783838281811061196957611969612d05565b905060200281019061197b9190612d34565b88600089898681811061199057611990612d05565b90506020020135815260200190815260200160002091826119b2929190612beb565b50600101611950565b50505050505050565b600073ffffffffffffffffffffffffffffffffffffffff8216611a43576040517f08c379a000000000000000000000000000000000000000000000000000000000815260206004820152601d60248201527f4552433732313a2062616c616e6365206f6620616464726573732830290000006044820152606401610b83565b5073ffffffffffffffffffffffffffffffffffffffff166000908152600191909101602052604090205490565b611a7b8584846114bc565b73ffffffffffffffffffffffffffffffffffffffff83163b15610842576108428460008585856121ad565b611ab1838284610ee2565b60008181526020848152604080832073ffffffffffffffffffffffffffffffffffffffff86168085529083529281902080547fffffffffffffffffffffffffffffffffffffffffffffffffffffffffffffff0016905580518481529182018390528101919091527ff6391f5c32d9c69d2a47ea670b442974b53935d1edc7fd64eb21e047a839171b9060600160405180910390a1505050565b6060816001018054610a4890612aaf565b8273ffffffffffffffffffffffffffffffffffffffff168273ffffffffffffffffffffffffffffffffffffffff1603611bf0576040517f08c379a000000000000000000000000000000000000000000000000000000000815260206004820152601d60248201527f4552433732313a2073656c662d617070726f76616c20666f7220616c6c0000006044820152606401610b83565b73ffffffffffffffffffffffffffffffffffffffff838116600081815260038701602090815260408083209487168084529482529182902080547fffffffffffffffffffffffffffffffffffffffffffffffffffffffffffffff001686151590811790915591519182527f17307eab39ab6107e8899845ad3d59bd9653f200f220920489ca2b5937696c31910160405180910390a350505050565b611c988787878787610fd5565b73ffffffffffffffffffffffffffffffffffffffff84163b156119bb576119bb8686868686868080601f0160208091040260200160405190810160405280939291908181526020018383808284376000920191909152506121ad92505050565b6000818152602083905260409020805460609190611d1590612aaf565b80601f0160208091040260200160405190810160405280929190818152602001828054611d4190612aaf565b8015611d8e5780601f10611d6357610100808354040283529160200191611d8e565b820191906000526020600020905b815481529060010190602001808311611d7157829003601f168201915b5050505050905092915050565b60008381526020858152604080832073ffffffffffffffffffffffffffffffffffffffff8616845290915290205460ff16156106c45760008381526020858152604080832073ffffffffffffffffffffffffffffffffffffffff8681168086529184529382902080547fffffffffffffffffffffffffffffffffffffffffffffffffffffffffffffff00169055815187815292830152918316918101919091527ff6391f5c32d9c69d2a47ea670b442974b53935d1edc7fd64eb21e047a839171b906060016114a3565b825473ffffffffffffffffffffffffffffffffffffffff9081169083168114611eea576040517f08c379a000000000000000000000000000000000000000000000000000000000815260206004820152601860248201527f4f776e6572736869703a206e6f7420746865206f776e657200000000000000006044820152606401610b83565b8173ffffffffffffffffffffffffffffffffffffffff168173ffffffffffffffffffffffffffffffffffffffff16146106c45783547fffffffffffffffffffffffff00000000000000000000000000000000000000001673ffffffffffffffffffffffffffffffffffffffff8381169182178655604051908316907f8be0079c531659141344cd1fd0a4f28419497f9722a3daafe3b4186f6b6457e090600090a350505050565b60006104a36122d3565b60008173ffffffffffffffffffffffffffffffffffffffff168373ffffffffffffffffffffffffffffffffffffffff1614806118db57505073ffffffffffffffffffffffffffffffffffffffff9182166000908152600393909301602090815260408085209290931684525290205460ff1690565b6060600082900361202f57505060408051602081019091526000815290565b60008260405160200161204491815260200190565b604080517fffffffffffffffffffffffffffffffffffffffffffffffffffffffffffffffe08184030181529190529050601f5b81818151811061208957612089612d05565b01602001517fff00000000000000000000000000000000000000000000000000000000000000166000036120de577fffffffffffffffffffffffffffffffffffffffffffffffffffffffffffffffff01612077565b60008160010167ffffffffffffffff8111156120fc576120fc612b6e565b6040519080825280601f01601f191660200182016040528015612126576020820181803683370190505b50905060005b8281116121995783818151811061214557612145612d05565b602001015160f81c60f81b82828151811061216257612162612d05565b60200101907effffffffffffffffffffffffffffffffffffffffffffffffffffffffffffff1916908160001a90535060010161212c565b50949350505050565b36600061059161241a565b6040517f150b7a02000000000000000000000000000000000000000000000000000000008082529073ffffffffffffffffffffffffffffffffffffffff85169063150b7a0290612207908990899088908890600401612d99565b6020604051808303816000875af1158015612226573d6000803e3d6000fd5b505050506040513d601f19601f8201168201806040525081019061224a9190612de2565b7fffffffff000000000000000000000000000000000000000000000000000000001614610842576040517f08c379a000000000000000000000000000000000000000000000000000000000815260206004820152601e60248201527f4552433732313a2073616665207472616e736665722072656a656374656400006044820152606401610b83565b6000333214806122e35750601836105b156122ed57503390565b7fffffffffffffffffffffffffffffffffffffffffffffffffffffffffffffffec36013560601c7f000000000000000000000000000000000000000000000000000000000000000073ffffffffffffffffffffffffffffffffffffffff1633148061240957506040517f8929a8ca00000000000000000000000000000000000000000000000000000000815273ffffffffffffffffffffffffffffffffffffffff82811660048301523360248301527f00000000000000000000000000000000000000000000000000000000000000001690638929a8ca90604401602060405180830381865afa1580156123e5573d6000803e3d6000fd5b505050506040513d601f19601f820116820180604052508101906124099190612dff565b1561241357919050565b3391505090565b3660003332148061242b5750601836105b156124395750600091369150565b3373ffffffffffffffffffffffffffffffffffffffff7f000000000000000000000000000000000000000000000000000000000000000016148061256e575073ffffffffffffffffffffffffffffffffffffffff7f000000000000000000000000000000000000000000000000000000000000000016638929a8ca367fffffffffffffffffffffffffffffffffffffffffffffffffffffffffffffffec013560601c6040517fffffffff0000000000000000000000000000000000000000000000000000000060e084901b16815273ffffffffffffffffffffffffffffffffffffffff9091166004820152336024820152604401602060405180830381865afa15801561254a573d6000803e3d6000fd5b505050506040513d601f19601f8201168201806040525081019061256e9190612dff565b1561257b57610591612584565b50600091369150565b3660006105917fffffffffffffffffffffffffffffffffffffffffffffffffffffffffffffffec8301828481612e1c565b7fffffffff000000000000000000000000000000000000000000000000000000008116811461077b57600080fd5b6000602082840312156125f557600080fd5b81356107e9816125b5565b60005b8381101561261b578181015183820152602001612603565b50506000910152565b6000815180845261263c816020860160208601612600565b601f017fffffffffffffffffffffffffffffffffffffffffffffffffffffffffffffffe0169290920160200192915050565b6020815260006107e96020830184612624565b60006020828403121561269357600080fd5b5035919050565b803573ffffffffffffffffffffffffffffffffffffffff811681146126be57600080fd5b919050565b600080604083850312156126d657600080fd5b6126df8361269a565b946020939093013593505050565b60008083601f8401126126ff57600080fd5b50813567ffffffffffffffff81111561271757600080fd5b60208301915083602082850101111561272f57600080fd5b9250929050565b60008060006040848603121561274b57600080fd5b83359250602084013567ffffffffffffffff81111561276957600080fd5b612775868287016126ed565b9497909650939450505050565b60008060006060848603121561279757600080fd5b6127a08461269a565b92506127ae6020850161269a565b9150604084013590509250925092565b600080604083850312156127d157600080fd5b823591506127e16020840161269a565b90509250929050565b60208152816020820152818360408301376000818301604090810191909152601f9092017fffffffffffffffffffffffffffffffffffffffffffffffffffffffffffffffe0160101919050565b60008083601f84011261284957600080fd5b50813567ffffffffffffffff81111561286157600080fd5b6020830191508360208260051b850101111561272f57600080fd5b60008060006040848603121561289157600080fd5b61289a8461269a565b9250602084013567ffffffffffffffff8111156128b657600080fd5b61277586828701612837565b6000602082840312156128d457600080fd5b6107e98261269a565b600080600080604085870312156128f357600080fd5b843567ffffffffffffffff8082111561290b57600080fd5b61291788838901612837565b9096509450602087013591508082111561293057600080fd5b5061293d87828801612837565b95989497509550505050565b6000806000806060858703121561295f57600080fd5b6129688561269a565b935060208501359250604085013567ffffffffffffffff81111561298b57600080fd5b61293d878288016126ed565b801515811461077b57600080fd5b600080604083850312156129b857600080fd5b6129c18361269a565b915060208301356129d181612997565b809150509250929050565b6000806000806000608086880312156129f457600080fd5b6129fd8661269a565b9450612a0b6020870161269a565b935060408601359250606086013567ffffffffffffffff811115612a2e57600080fd5b612a3a888289016126ed565b969995985093965092949392505050565b60008060408385031215612a5e57600080fd5b612a678361269a565b91506127e16020840161269a565b8181038181111561048b577f4e487b7100000000000000000000000000000000000000000000000000000000600052601160045260246000fd5b600181811c90821680612ac357607f821691505b602082108103612afc577f4e487b7100000000000000000000000000000000000000000000000000000000600052602260045260246000fd5b50919050565b7f416363657373436f6e74726f6c3a206d697373696e6720270000000000000000815260008251612b3a816018850160208701612600565b7f2720726f6c6500000000000000000000000000000000000000000000000000006018939091019283015250601e01919050565b7f4e487b7100000000000000000000000000000000000000000000000000000000600052604160045260246000fd5b601f82111561052e57600081815260208120601f850160051c81016020861015612bc45750805b601f850160051c820191505b81811015612be357828155600101612bd0565b505050505050565b67ffffffffffffffff831115612c0357612c03612b6e565b612c1783612c118354612aaf565b83612b9d565b6000601f841160018114612c695760008515612c335750838201355b7fffffffffffffffffffffffffffffffffffffffffffffffffffffffffffffffff600387901b1c1916600186901b178355610842565b6000838152602090207fffffffffffffffffffffffffffffffffffffffffffffffffffffffffffffffe0861690835b82811015612cb85786850135825560209485019460019092019101612c98565b5086821015612cf3577fffffffffffffffffffffffffffffffffffffffffffffffffffffffffffffffff60f88860031b161c19848701351681555b505060018560011b0183555050505050565b7f4e487b7100000000000000000000000000000000000000000000000000000000600052603260045260246000fd5b60008083357fffffffffffffffffffffffffffffffffffffffffffffffffffffffffffffffe1843603018112612d6957600080fd5b83018035915067ffffffffffffffff821115612d8457600080fd5b60200191503681900382131561272f57600080fd5b600073ffffffffffffffffffffffffffffffffffffffff808716835280861660208401525083604083015260806060830152612dd86080830184612624565b9695505050505050565b600060208284031215612df457600080fd5b81516107e9816125b5565b600060208284031215612e1157600080fd5b81516107e981612997565b60008085851115612e2c57600080fd5b83861115612e3957600080fd5b505082019391909203915056fea264697066735822122070199e598dee4239a2e596526d9d7ed5c7465d5b94e9b439bc12c25a5c269a1d64736f6c63430008130033",
  "linkReferences": {},
  "deployedLinkReferences": {}
}