{
  "_format": "hh-sol-artifact-1",
  "contractName": "ERC721MetadataPerTokenMock",
  "sourceName": "contracts/mocks/token/ERC721/ERC721MetadataPerTokenMock.sol",
  "abi": [
    {
      "inputs": [
        {
          "internalType": "string",
          "name": "tokenName",
          "type": "string"
        },
        {
          "internalType": "string",
          "name": "tokenSymbol",
          "type": "string"
        },
        {
          "internalType": "contract IForwarderRegistry",
          "name": "forwarderRegistry",
          "type": "address"
        }
      ],
      "stateMutability": "nonpayable",
      "type": "constructor"
    },
    {
      "anonymous": false,
      "inputs": [
        {
          "indexed": true,
          "internalType": "address",
          "name": "owner",
          "type": "address"
        },
        {
          "indexed": true,
          "internalType": "address",
          "name": "approved",
          "type": "address"
        },
        {
          "indexed": true,
          "internalType": "uint256",
          "name": "tokenId",
          "type": "uint256"
        }
      ],
      "name": "Approval",
      "type": "event"
    },
    {
      "anonymous": false,
      "inputs": [
        {
          "indexed": true,
          "internalType": "address",
          "name": "owner",
          "type": "address"
        },
        {
          "indexed": true,
          "internalType": "address",
          "name": "operator",
          "type": "address"
        },
        {
          "indexed": false,
          "internalType": "bool",
          "name": "approved",
          "type": "bool"
        }
      ],
      "name": "ApprovalForAll",
      "type": "event"
    },
    {
      "anonymous": false,
      "inputs": [
        {
          "indexed": true,
          "internalType": "address",
          "name": "previousOwner",
          "type": "address"
        },
        {
          "indexed": true,
          "internalType": "address",
          "name": "newOwner",
          "type": "address"
        }
      ],
      "name": "OwnershipTransferred",
      "type": "event"
    },
    {
      "anonymous": false,
      "inputs": [
        {
          "indexed": false,
          "internalType": "bytes32",
          "name": "role",
          "type": "bytes32"
        },
        {
          "indexed": false,
          "internalType": "address",
          "name": "account",
          "type": "address"
        },
        {
          "indexed": false,
          "internalType": "address",
          "name": "operator",
          "type": "address"
        }
      ],
      "name": "RoleGranted",
      "type": "event"
    },
    {
      "anonymous": false,
      "inputs": [
        {
          "indexed": false,
          "internalType": "bytes32",
          "name": "role",
          "type": "bytes32"
        },
        {
          "indexed": false,
          "internalType": "address",
          "name": "account",
          "type": "address"
        },
        {
          "indexed": false,
          "internalType": "address",
          "name": "operator",
          "type": "address"
        }
      ],
      "name": "RoleRevoked",
      "type": "event"
    },
    {
      "anonymous": false,
      "inputs": [
        {
          "indexed": true,
          "internalType": "address",
          "name": "from",
          "type": "address"
        },
        {
          "indexed": true,
          "internalType": "address",
          "name": "to",
          "type": "address"
        },
        {
          "indexed": true,
          "internalType": "uint256",
          "name": "tokenId",
          "type": "uint256"
        }
      ],
      "name": "Transfer",
      "type": "event"
    },
    {
      "inputs": [],
      "name": "MINTER_ROLE",
      "outputs": [
        {
          "internalType": "bytes32",
          "name": "",
          "type": "bytes32"
        }
      ],
      "stateMutability": "view",
      "type": "function"
    },
    {
      "inputs": [],
      "name": "__msgData",
      "outputs": [
        {
          "internalType": "bytes",
          "name": "",
          "type": "bytes"
        }
      ],
      "stateMutability": "view",
      "type": "function"
    },
    {
      "inputs": [
        {
          "internalType": "address",
          "name": "to",
          "type": "address"
        },
        {
          "internalType": "uint256",
          "name": "tokenId",
          "type": "uint256"
        }
      ],
      "name": "approve",
      "outputs": [],
      "stateMutability": "nonpayable",
      "type": "function"
    },
    {
      "inputs": [
        {
          "internalType": "address",
          "name": "owner",
          "type": "address"
        }
      ],
      "name": "balanceOf",
      "outputs": [
        {
          "internalType": "uint256",
          "name": "balance",
          "type": "uint256"
        }
      ],
      "stateMutability": "view",
      "type": "function"
    },
    {
      "inputs": [
        {
          "internalType": "address",
          "name": "to",
          "type": "address"
        },
        {
          "internalType": "uint256[]",
          "name": "tokenIds",
          "type": "uint256[]"
        }
      ],
      "name": "batchMint",
      "outputs": [],
      "stateMutability": "nonpayable",
      "type": "function"
    },
    {
      "inputs": [
        {
          "internalType": "uint256[]",
          "name": "tokenIds",
          "type": "uint256[]"
        },
        {
          "internalType": "string[]",
          "name": "uris",
          "type": "string[]"
        }
      ],
      "name": "batchSetTokenURI",
      "outputs": [],
      "stateMutability": "nonpayable",
      "type": "function"
    },
    {
      "inputs": [],
      "name": "forwarderRegistry",
      "outputs": [
        {
          "internalType": "contract IForwarderRegistry",
          "name": "",
          "type": "address"
        }
      ],
      "stateMutability": "view",
      "type": "function"
    },
    {
      "inputs": [
        {
          "internalType": "uint256",
          "name": "tokenId",
          "type": "uint256"
        }
      ],
      "name": "getApproved",
      "outputs": [
        {
          "internalType": "address",
          "name": "approved",
          "type": "address"
        }
      ],
      "stateMutability": "view",
      "type": "function"
    },
    {
      "inputs": [
        {
          "internalType": "bytes32",
          "name": "role",
          "type": "bytes32"
        },
        {
          "internalType": "address",
          "name": "account",
          "type": "address"
        }
      ],
      "name": "grantRole",
      "outputs": [],
      "stateMutability": "nonpayable",
      "type": "function"
    },
    {
      "inputs": [
        {
          "internalType": "bytes32",
          "name": "role",
          "type": "bytes32"
        },
        {
          "internalType": "address",
          "name": "account",
          "type": "address"
        }
      ],
      "name": "hasRole",
      "outputs": [
        {
          "internalType": "bool",
          "name": "",
          "type": "bool"
        }
      ],
      "stateMutability": "view",
      "type": "function"
    },
    {
      "inputs": [
        {
          "internalType": "address",
          "name": "owner",
          "type": "address"
        },
        {
          "internalType": "address",
          "name": "operator",
          "type": "address"
        }
      ],
      "name": "isApprovedForAll",
      "outputs": [
        {
          "internalType": "bool",
          "name": "approvedForAll",
          "type": "bool"
        }
      ],
      "stateMutability": "view",
      "type": "function"
    },
    {
      "inputs": [
        {
          "internalType": "address",
          "name": "forwarder",
          "type": "address"
        }
      ],
      "name": "isTrustedForwarder",
      "outputs": [
        {
          "internalType": "bool",
          "name": "",
          "type": "bool"
        }
      ],
      "stateMutability": "view",
      "type": "function"
    },
    {
      "inputs": [
        {
          "internalType": "address",
          "name": "to",
          "type": "address"
        },
        {
          "internalType": "uint256",
          "name": "tokenId",
          "type": "uint256"
        }
      ],
      "name": "mint",
      "outputs": [],
      "stateMutability": "nonpayable",
      "type": "function"
    },
    {
      "inputs": [],
      "name": "name",
      "outputs": [
        {
          "internalType": "string",
          "name": "tokenName",
          "type": "string"
        }
      ],
      "stateMutability": "view",
      "type": "function"
    },
    {
      "inputs": [],
      "name": "owner",
      "outputs": [
        {
          "internalType": "address",
          "name": "",
          "type": "address"
        }
      ],
      "stateMutability": "view",
      "type": "function"
    },
    {
      "inputs": [
        {
          "internalType": "uint256",
          "name": "tokenId",
          "type": "uint256"
        }
      ],
      "name": "ownerOf",
      "outputs": [
        {
          "internalType": "address",
          "name": "tokenOwner",
          "type": "address"
        }
      ],
      "stateMutability": "view",
      "type": "function"
    },
    {
      "inputs": [
        {
          "internalType": "bytes32",
          "name": "role",
          "type": "bytes32"
        }
      ],
      "name": "renounceRole",
      "outputs": [],
      "stateMutability": "nonpayable",
      "type": "function"
    },
    {
      "inputs": [
        {
          "internalType": "bytes32",
          "name": "role",
          "type": "bytes32"
        },
        {
          "internalType": "address",
          "name": "account",
          "type": "address"
        }
      ],
      "name": "revokeRole",
      "outputs": [],
      "stateMutability": "nonpayable",
      "type": "function"
    },
    {
      "inputs": [
        {
          "internalType": "address",
          "name": "to",
          "type": "address"
        },
        {
          "internalType": "uint256",
          "name": "tokenId",
          "type": "uint256"
        },
        {
          "internalType": "bytes",
          "name": "data",
          "type": "bytes"
        }
      ],
      "name": "safeMint",
      "outputs": [],
      "stateMutability": "nonpayable",
      "type": "function"
    },
    {
      "inputs": [
        {
          "internalType": "address",
          "name": "from",
          "type": "address"
        },
        {
          "internalType": "address",
          "name": "to",
          "type": "address"
        },
        {
          "internalType": "uint256",
          "name": "tokenId",
          "type": "uint256"
        }
      ],
      "name": "safeTransferFrom",
      "outputs": [],
      "stateMutability": "nonpayable",
      "type": "function"
    },
    {
      "inputs": [
        {
          "internalType": "address",
          "name": "from",
          "type": "address"
        },
        {
          "internalType": "address",
          "name": "to",
          "type": "address"
        },
        {
          "internalType": "uint256",
          "name": "tokenId",
          "type": "uint256"
        },
        {
          "internalType": "bytes",
          "name": "data",
          "type": "bytes"
        }
      ],
      "name": "safeTransferFrom",
      "outputs": [],
      "stateMutability": "nonpayable",
      "type": "function"
    },
    {
      "inputs": [
        {
          "internalType": "address",
          "name": "operator",
          "type": "address"
        },
        {
          "internalType": "bool",
          "name": "approved",
          "type": "bool"
        }
      ],
      "name": "setApprovalForAll",
      "outputs": [],
      "stateMutability": "nonpayable",
      "type": "function"
    },
    {
      "inputs": [
        {
          "internalType": "uint256",
          "name": "tokenId",
          "type": "uint256"
        },
        {
          "internalType": "string",
          "name": "uri",
          "type": "string"
        }
      ],
      "name": "setTokenURI",
      "outputs": [],
      "stateMutability": "nonpayable",
      "type": "function"
    },
    {
      "inputs": [
        {
          "internalType": "bytes4",
          "name": "interfaceId",
          "type": "bytes4"
        }
      ],
      "name": "supportsInterface",
      "outputs": [
        {
          "internalType": "bool",
          "name": "",
          "type": "bool"
        }
      ],
      "stateMutability": "view",
      "type": "function"
    },
    {
      "inputs": [],
      "name": "symbol",
      "outputs": [
        {
          "internalType": "string",
          "name": "tokenSymbol",
          "type": "string"
        }
      ],
      "stateMutability": "view",
      "type": "function"
    },
    {
      "inputs": [
        {
          "internalType": "uint256",
          "name": "tokenId",
          "type": "uint256"
        }
      ],
      "name": "tokenURI",
      "outputs": [
        {
          "internalType": "string",
          "name": "uri",
          "type": "string"
        }
      ],
      "stateMutability": "view",
      "type": "function"
    },
    {
      "inputs": [
        {
          "internalType": "address",
          "name": "from",
          "type": "address"
        },
        {
          "internalType": "address",
          "name": "to",
          "type": "address"
        },
        {
          "internalType": "uint256",
          "name": "tokenId",
          "type": "uint256"
        }
      ],
      "name": "transferFrom",
      "outputs": [],
      "stateMutability": "nonpayable",
      "type": "function"
    },
    {
      "inputs": [
        {
          "internalType": "address",
          "name": "newOwner",
          "type": "address"
        }
      ],
      "name": "transferOwnership",
      "outputs": [],
      "stateMutability": "nonpayable",
      "type": "function"
    }
  ],
  "bytecode": "0x60a06040523480156200001157600080fd5b506040516200384e3803806200384e8339810160408190526200003491620003f3565b8282828080336200004f620000de60201b620009311760201c565b6200007d81620000696200011860201b620009681760201c565b6200014e60201b620009961790919060201c565b5062000093620001cc60201b62000a4c1760201c565b6001600160a01b031660805250620000d390508282620000be620001ef602090811b62000a7a17901c565b6200021f60201b62000aa8179092919060201c565b505050505062000600565b620001166380ac58cd60e01b6001620001016200026660201b62000aed1760201c565b6200029660201b62000b1b179092919060201c565b565b6000806200014860017fc9ed16f33ab3a66c84bfd83099ccb2a8845871e2e1c1928f63797152f0fd54cd62000480565b92915050565b6001600160a01b03811615620001a55781546001600160a01b0319166001600160a01b03821690811783556040516000907f8be0079c531659141344cd1fd0a4f28419497f9722a3daafe3b4186f6b6457e0908290a35b620001c86307f5828d60e41b6001620001016200026660201b62000aed1760201c565b5050565b62000116638e773e1360e01b6001620001016200026660201b62000aed1760201c565b6000806200014860017f9c4269c0f9f430d98876ffe9767fbf3f3232ea91a549beb549e5329532520eb362000480565b826200022c838262000534565b50600183016200023d828262000534565b5062000261635b5e139f60e01b6001620001016200026660201b62000aed1760201c565b505050565b6000806200014860017fca9d3e17f264b0f3984e2634e94adb37fa3e6a8103f06aeae6fa59e21c769f5e62000480565b600160e01b6001600160e01b0319831601620002f85760405162461bcd60e51b815260206004820152601f60248201527f496e74657266616365446574656374696f6e3a2077726f6e672076616c756500604482015260640160405180910390fd5b6001600160e01b03199190911660009081526020929092526040909120805460ff1916911515919091179055565b634e487b7160e01b600052604160045260246000fd5b600082601f8301126200034e57600080fd5b81516001600160401b03808211156200036b576200036b62000326565b604051601f8301601f19908116603f0116810190828211818310171562000396576200039662000326565b81604052838152602092508683858801011115620003b357600080fd5b600091505b83821015620003d75785820183015181830184015290820190620003b8565b83821115620003e95760008385830101525b9695505050505050565b6000806000606084860312156200040957600080fd5b83516001600160401b03808211156200042157600080fd5b6200042f878388016200033c565b945060208601519150808211156200044657600080fd5b5062000455868287016200033c565b604086015190935090506001600160a01b03811681146200047557600080fd5b809150509250925092565b600082821015620004a157634e487b7160e01b600052601160045260246000fd5b500390565b600181811c90821680620004bb57607f821691505b602082108103620004dc57634e487b7160e01b600052602260045260246000fd5b50919050565b601f8211156200026157600081815260208120601f850160051c810160208610156200050b5750805b601f850160051c820191505b818110156200052c5782815560010162000517565b505050505050565b81516001600160401b0381111562000550576200055062000326565b6200056881620005618454620004a6565b84620004e2565b602080601f831160018114620005a05760008415620005875750858301515b600019600386901b1c1916600185901b1785556200052c565b600085815260208120601f198616915b82811015620005d157888601518255948401946001909101908401620005b0565b5085821015620005f05787850151600019600388901b60f8161c191681555b5050505050600190811b01905550565b60805161320f6200063f6000396000818161027b015281816103110152818161257201528181612612015281816126a60152612710015261320f6000f3fe608060405234801561001057600080fd5b50600436106101c45760003560e01c80636706467b116100f9578063a22cb46511610097578063d539139311610071578063d539139314610417578063d547741f1461043e578063e985e9c514610451578063f2fde38b1461046457600080fd5b8063a22cb465146103de578063b88d4fde146103f1578063c87b56dd1461040457600080fd5b80638bb9c5bf116100d35780638bb9c5bf146103a85780638da5cb5b146103bb57806391d14854146103c357806395d89b41146103d657600080fd5b80636706467b1461036157806370a08231146103745780638832e6e31461039557600080fd5b80632f2ff15d1161016657806342842e0e1161014057806342842e0e146102db5780634684d7e9146102ee578063572b6c05146103015780636352211e1461034e57600080fd5b80632f2ff15d1461029f57806331e66e1e146102b257806340c10f19146102c857600080fd5b8063095ea7b3116101a2578063095ea7b31461023e578063162094c41461025357806323b872dd146102665780632b4c9f161461027957600080fd5b806301ffc9a7146101c957806306fdde03146101f1578063081812fc14610206575b600080fd5b6101dc6101d736600461285e565b610477565b60405190151581526020015b60405180910390f35b6101f9610491565b6040516101e891906128f1565b610219610214366004612904565b6104a8565b60405173ffffffffffffffffffffffffffffffffffffffff90911681526020016101e8565b61025161024c366004612946565b6104bc565b005b6102516102613660046129b9565b6104dd565b610251610274366004612a05565b610546565b7f0000000000000000000000000000000000000000000000000000000000000000610219565b6102516102ad366004612a41565b610565565b6102ba610593565b6040516101e8929190612a6d565b6102516102d6366004612946565b6105a6565b6102516102e9366004612a05565b6105f5565b6102516102fc366004612aff565b610614565b6101dc61030f366004612b45565b7f000000000000000000000000000000000000000000000000000000000000000073ffffffffffffffffffffffffffffffffffffffff90811691161490565b61021961035c366004612904565b610688565b61025161036f366004612b60565b61069c565b610387610382366004612b45565b6106c5565b6040519081526020016101e8565b6102516103a3366004612bcc565b6106d9565b6102516103b6366004612904565b61075b565b610219610779565b6101dc6103d1366004612a41565b6107a0565b6101f96107eb565b6102516103ec366004612c28565b6107fd565b6102516103ff366004612c5f565b61081a565b6101f9610412366004612904565b610879565b6103877f6d696e746572000000000000000000000000000000000000000000000000000081565b61025161044c366004612a41565b61089a565b6101dc61045f366004612cce565b6108c8565b610251610472366004612b45565b610916565b600061048b82610485610aed565b90610c2c565b92915050565b60606104a361049e610a7a565b610d06565b905090565b600061048b826104b6610d9c565b90610dca565b6104d96104c7610eab565b83836104d1610d9c565b929190610eb5565b5050565b6104f66104e8610eab565b6104f0610968565b9061117e565b6105418383838080601f01602080910402602001604051908101604052809392919081815260200183838082843760009201919091525061053a9250611201915050565b919061122f565b505050565b610541610551610eab565b84848461055c610d9c565b93929190611247565b600061056f610eab565b905061057d816104f0610968565b61054183838361058b61159c565b9291906115ca565b36600061059e6116a0565b915091509091565b6105e17f6d696e74657200000000000000000000000000000000000000000000000000006105d2610eab565b6105da61159c565b91906116ab565b6104d982826105ee610d9c565b9190611757565b610541610600610eab565b84848461060b610d9c565b939291906118ce565b6106407f6d696e74657200000000000000000000000000000000000000000000000000006105d2610eab565b610541838383808060200260200160405190810160405280939291908181526020018383602002808284376000920191909152506106819250610d9c915050565b9190611914565b600061048b82610696610d9c565b90611ae8565b6106a76104e8610eab565b6106bf848484846106b6611201565b93929190611b7e565b50505050565b600061048b826106d3610d9c565b90611c5d565b6107057f6d696e74657200000000000000000000000000000000000000000000000000006105d2610eab565b6106bf610710610eab565b858585858080601f0160208091040260200160405190810160405280939291908181526020018383808284376000920191909152506107529250610d9c915050565b93929190611d09565b610776610766610eab565b8261076f61159c565b9190611d3f565b50565b60006104a3610786610968565b5473ffffffffffffffffffffffffffffffffffffffff1690565b60006107e483836107af61159c565b60009283526020908152604080842073ffffffffffffffffffffffffffffffffffffffff909316845291905290205460ff1690565b9392505050565b60606104a36107f8610a7a565b611de3565b6104d9610808610eab565b8383610812610d9c565b929190611df4565b610872610825610eab565b86868686868080601f0160208091040260200160405190810160405280939291908181526020018383808284376000920191909152506108689250610d9c915050565b9493929190611f24565b5050505050565b606061088782610696610d9c565b5061048b82610894611201565b90611f5b565b60006108a4610eab565b90506108b2816104f0610968565b6105418383836108c061159c565b929190611ffe565b60006107e483836108d7610d9c565b919073ffffffffffffffffffffffffffffffffffffffff9182166000908152600393909301602090815260408085209290931684525290205460ff1690565b610776610921610eab565b8261092a610968565b91906120c8565b6109667f80ac58cd00000000000000000000000000000000000000000000000000000000600161095f610aed565b9190610b1b565b565b60008061048b60017fc9ed16f33ab3a66c84bfd83099ccb2a8845871e2e1c1928f63797152f0fd54cd612cf8565b73ffffffffffffffffffffffffffffffffffffffff811615610a1e5781547fffffffffffffffffffffffff00000000000000000000000000000000000000001673ffffffffffffffffffffffffffffffffffffffff821690811783556040516000907f8be0079c531659141344cd1fd0a4f28419497f9722a3daafe3b4186f6b6457e0908290a35b6104d97f7f5828d000000000000000000000000000000000000000000000000000000000600161095f610aed565b6109667f8e773e1300000000000000000000000000000000000000000000000000000000600161095f610aed565b60008061048b60017f9c4269c0f9f430d98876ffe9767fbf3f3232ea91a549beb549e5329532520eb3612cf8565b82610ab38382612df8565b5060018301610ac28282612df8565b506105417f5b5e139f00000000000000000000000000000000000000000000000000000000600161095f5b60008061048b60017fca9d3e17f264b0f3984e2634e94adb37fa3e6a8103f06aeae6fa59e21c769f5e612cf8565b7c01000000000000000000000000000000000000000000000000000000007fffffffff00000000000000000000000000000000000000000000000000000000831601610bc8576040517f08c379a000000000000000000000000000000000000000000000000000000000815260206004820152601f60248201527f496e74657266616365446574656374696f6e3a2077726f6e672076616c75650060448201526064015b60405180910390fd5b7fffffffff00000000000000000000000000000000000000000000000000000000919091166000908152602092909252604090912080547fffffffffffffffffffffffffffffffffffffffffffffffffffffffffffffff0016911515919091179055565b60007c01000000000000000000000000000000000000000000000000000000007fffffffff00000000000000000000000000000000000000000000000000000000831601610c7c5750600061048b565b7ffe003659000000000000000000000000000000000000000000000000000000007fffffffff00000000000000000000000000000000000000000000000000000000831601610ccd5750600161048b565b507fffffffff00000000000000000000000000000000000000000000000000000000166000908152602091909152604090205460ff1690565b6060816000018054610d1790612d65565b80601f0160208091040260200160405190810160405280929190818152602001828054610d4390612d65565b8015610d905780601f10610d6557610100808354040283529160200191610d90565b820191906000526020600020905b815481529060010190602001808311610d7357829003601f168201915b50505050509050919050565b60008061048b60017fddf3ee18ae6d688373c219468f8be446e7ae82215f4779d821c7ea5e8c13c0c1612cf8565b60008181526020839052604081205473ffffffffffffffffffffffffffffffffffffffff8116610e56576040517f08c379a000000000000000000000000000000000000000000000000000000000815260206004820152601a60248201527f4552433732313a206e6f6e2d6578697374696e6720746f6b656e0000000000006044820152606401610bbf565b74010000000000000000000000000000000000000000811615610ea1575050600081815260028301602052604090205473ffffffffffffffffffffffffffffffffffffffff1661048b565b600091505061048b565b60006104a36121f4565b60008181526020859052604090205473ffffffffffffffffffffffffffffffffffffffff8116610f41576040517f08c379a000000000000000000000000000000000000000000000000000000000815260206004820152601a60248201527f4552433732313a206e6f6e2d6578697374696e6720746f6b656e0000000000006044820152606401610bbf565b8073ffffffffffffffffffffffffffffffffffffffff80821690851603610fc4576040517f08c379a000000000000000000000000000000000000000000000000000000000815260206004820152601560248201527f4552433732313a2073656c662d617070726f76616c00000000000000000000006044820152606401610bbf565b610fcf8682876121fe565b611035576040517f08c379a000000000000000000000000000000000000000000000000000000000815260206004820152601b60248201527f4552433732313a206e6f6e2d617070726f7665642073656e64657200000000006044820152606401610bbf565b73ffffffffffffffffffffffffffffffffffffffff841661109a577401000000000000000000000000000000000000000082161561109557600083815260208790526040902073ffffffffffffffffffffffffffffffffffffffff821690555b61111b565b7401000000000000000000000000000000000000000082178083146110cb5760008481526020889052604090208190555b506000838152600287016020526040902080547fffffffffffffffffffffffff00000000000000000000000000000000000000001673ffffffffffffffffffffffffffffffffffffffff86161790555b828473ffffffffffffffffffffffffffffffffffffffff168273ffffffffffffffffffffffffffffffffffffffff167f8c5be1e5ebec7d5bd14f71427d1e84f3dd0314c0f7b2291e5b200ac8c7c3b92560405160405180910390a4505050505050565b815473ffffffffffffffffffffffffffffffffffffffff8281169116146104d9576040517f08c379a000000000000000000000000000000000000000000000000000000000815260206004820152601860248201527f4f776e6572736869703a206e6f7420746865206f776e657200000000000000006044820152606401610bbf565b60008061048b60017f10425d47eba0194223d0d18d437db44682fcfacfc9f759b1b8092cc8a56516aa612cf8565b60008281526020849052604090206106bf8282612df8565b73ffffffffffffffffffffffffffffffffffffffff82166112c4576040517f08c379a000000000000000000000000000000000000000000000000000000000815260206004820152601e60248201527f4552433732313a207472616e7366657220746f206164647265737328302900006044820152606401610bbf565b60008181526020869052604090205473ffffffffffffffffffffffffffffffffffffffff8116611350576040517f08c379a000000000000000000000000000000000000000000000000000000000815260206004820152601a60248201527f4552433732313a206e6f6e2d6578697374696e6720746f6b656e0000000000006044820152606401610bbf565b73ffffffffffffffffffffffffffffffffffffffff84168173ffffffffffffffffffffffffffffffffffffffff16146113e5576040517f08c379a000000000000000000000000000000000000000000000000000000000815260206004820152601760248201527f4552433732313a206e6f6e2d6f776e656420746f6b656e0000000000000000006044820152606401610bbf565b6113f08685876121fe565b6114a857740100000000000000000000000000000000000000008116151580156114425750600082815260028701602052604090205473ffffffffffffffffffffffffffffffffffffffff8681169116145b6114a8576040517f08c379a000000000000000000000000000000000000000000000000000000000815260206004820152601b60248201527f4552433732313a206e6f6e2d617070726f7665642073656e64657200000000006044820152606401610bbf565b600082815260208790526040902073ffffffffffffffffffffffffffffffffffffffff808516918290558516146115395773ffffffffffffffffffffffffffffffffffffffff80851660009081526001808901602052604080832080547fffffffffffffffffffffffffffffffffffffffffffffffffffffffffffffffff0190559286168252919020805490910190555b818373ffffffffffffffffffffffffffffffffffffffff168573ffffffffffffffffffffffffffffffffffffffff167fddf252ad1be2c89b69c2b068fc378daa952ba7f163c4a11628f55a4df523b3ef60405160405180910390a4505050505050565b60008061048b60017fc8827d3282af6f37b64c3e9e6f3ac9df286ab0bb0fccd6f8661bf19adb368b23612cf8565b60008381526020858152604080832073ffffffffffffffffffffffffffffffffffffffff8616845290915290205460ff166106bf5760008381526020858152604080832073ffffffffffffffffffffffffffffffffffffffff8681168086529184529382902080547fffffffffffffffffffffffffffffffffffffffffffffffffffffffffffffff00166001179055815187815292830152918316918101919091527f2f8788117e7eff1d82e926ec794901d17c78024a50270940304540a733656f0d906060015b60405180910390a150505050565b36600061059e612273565b60008281526020848152604080832073ffffffffffffffffffffffffffffffffffffffff8516845290915290205460ff16610541576116e98261227e565b6040516020016116f99190612f12565b604080517fffffffffffffffffffffffffffffffffffffffffffffffffffffffffffffffe0818403018152908290527f08c379a0000000000000000000000000000000000000000000000000000000008252610bbf916004016128f1565b73ffffffffffffffffffffffffffffffffffffffff82166117d4576040517f08c379a000000000000000000000000000000000000000000000000000000000815260206004820152601a60248201527f4552433732313a206d696e7420746f20616464726573732830290000000000006044820152606401610bbf565b60008181526020849052604090205473ffffffffffffffffffffffffffffffffffffffff1615611860576040517f08c379a000000000000000000000000000000000000000000000000000000000815260206004820152601660248201527f4552433732313a206578697374696e6720746f6b656e000000000000000000006044820152606401610bbf565b60008181526020848152604080832073ffffffffffffffffffffffffffffffffffffffff86169081905580845260018088019093528184208054909301909255518392907fddf252ad1be2c89b69c2b068fc378daa952ba7f163c4a11628f55a4df523b3ef908290a4505050565b6118db8585858585611247565b73ffffffffffffffffffffffffffffffffffffffff82163b15610872576108728484848460405180602001604052806000815250612410565b73ffffffffffffffffffffffffffffffffffffffff8216611991576040517f08c379a000000000000000000000000000000000000000000000000000000000815260206004820152601a60248201527f4552433732313a206d696e7420746f20616464726573732830290000000000006044820152606401610bbf565b805160005b818114611ab35760008382815181106119b1576119b1612f7e565b602002602001015190506119ef8660000160008381526020019081526020016000205473ffffffffffffffffffffffffffffffffffffffff16151590565b15611a56576040517f08c379a000000000000000000000000000000000000000000000000000000000815260206004820152601660248201527f4552433732313a206578697374696e6720746f6b656e000000000000000000006044820152606401610bbf565b60008181526020879052604080822073ffffffffffffffffffffffffffffffffffffffff88169081905590518392907fddf252ad1be2c89b69c2b068fc378daa952ba7f163c4a11628f55a4df523b3ef908290a450600101611996565b5073ffffffffffffffffffffffffffffffffffffffff9092166000908152600190930160205250604090912080549091019055565b60008181526020839052604081205473ffffffffffffffffffffffffffffffffffffffff8116611b74576040517f08c379a000000000000000000000000000000000000000000000000000000000815260206004820152601a60248201527f4552433732313a206e6f6e2d6578697374696e6720746f6b656e0000000000006044820152606401610bbf565b805b949350505050565b828114611be7576040517f08c379a000000000000000000000000000000000000000000000000000000000815260206004820152601d60248201527f4d657461646174613a20696e636f6e73697374656e74206172726179730000006044820152606401610bbf565b60005b808414611c5557828282818110611c0357611c03612f7e565b9050602002810190611c159190612fad565b876000888886818110611c2a57611c2a612f7e565b9050602002013581526020019081526020016000209182611c4c929190613012565b50600101611bea565b505050505050565b600073ffffffffffffffffffffffffffffffffffffffff8216611cdc576040517f08c379a000000000000000000000000000000000000000000000000000000000815260206004820152601d60248201527f4552433732313a2062616c616e6365206f6620616464726573732830290000006044820152606401610bbf565b5073ffffffffffffffffffffffffffffffffffffffff166000908152600191909101602052604090205490565b611d14858484611757565b73ffffffffffffffffffffffffffffffffffffffff83163b1561087257610872846000858585612410565b611d4a8382846116ab565b60008181526020848152604080832073ffffffffffffffffffffffffffffffffffffffff86168085529083529281902080547fffffffffffffffffffffffffffffffffffffffffffffffffffffffffffffff0016905580518481529182018390528101919091527ff6391f5c32d9c69d2a47ea670b442974b53935d1edc7fd64eb21e047a839171b9060600160405180910390a1505050565b6060816001018054610d1790612d65565b8273ffffffffffffffffffffffffffffffffffffffff168273ffffffffffffffffffffffffffffffffffffffff1603611e89576040517f08c379a000000000000000000000000000000000000000000000000000000000815260206004820152601d60248201527f4552433732313a2073656c662d617070726f76616c20666f7220616c6c0000006044820152606401610bbf565b73ffffffffffffffffffffffffffffffffffffffff838116600081815260038701602090815260408083209487168084529482529182902080547fffffffffffffffffffffffffffffffffffffffffffffffffffffffffffffff001686151590811790915591519182527f17307eab39ab6107e8899845ad3d59bd9653f200f220920489ca2b5937696c31910160405180910390a350505050565b611f318686868686611247565b73ffffffffffffffffffffffffffffffffffffffff83163b15611c5557611c558585858585612410565b6000818152602083905260409020805460609190611f7890612d65565b80601f0160208091040260200160405190810160405280929190818152602001828054611fa490612d65565b8015611ff15780601f10611fc657610100808354040283529160200191611ff1565b820191906000526020600020905b815481529060010190602001808311611fd457829003601f168201915b5050505050905092915050565b60008381526020858152604080832073ffffffffffffffffffffffffffffffffffffffff8616845290915290205460ff16156106bf5760008381526020858152604080832073ffffffffffffffffffffffffffffffffffffffff8681168086529184529382902080547fffffffffffffffffffffffffffffffffffffffffffffffffffffffffffffff00169055815187815292830152918316918101919091527ff6391f5c32d9c69d2a47ea670b442974b53935d1edc7fd64eb21e047a839171b90606001611692565b825473ffffffffffffffffffffffffffffffffffffffff908116908316811461214d576040517f08c379a000000000000000000000000000000000000000000000000000000000815260206004820152601860248201527f4f776e6572736869703a206e6f7420746865206f776e657200000000000000006044820152606401610bbf565b8173ffffffffffffffffffffffffffffffffffffffff168173ffffffffffffffffffffffffffffffffffffffff16146106bf5783547fffffffffffffffffffffffff00000000000000000000000000000000000000001673ffffffffffffffffffffffffffffffffffffffff8381169182178655604051908316907f8be0079c531659141344cd1fd0a4f28419497f9722a3daafe3b4186f6b6457e090600090a350505050565b60006104a3612536565b60008173ffffffffffffffffffffffffffffffffffffffff168373ffffffffffffffffffffffffffffffffffffffff161480611b7657505073ffffffffffffffffffffffffffffffffffffffff9182166000908152600393909301602090815260408085209290931684525290205460ff1690565b36600061059e61268e565b6060600082900361229d57505060408051602081019091526000815290565b6000826040516020016122b291815260200190565b604080517fffffffffffffffffffffffffffffffffffffffffffffffffffffffffffffffe08184030181529190529050601f5b8181815181106122f7576122f7612f7e565b01602001517fff000000000000000000000000000000000000000000000000000000000000001660000361234c577fffffffffffffffffffffffffffffffffffffffffffffffffffffffffffffffff016122e5565b60008160010167ffffffffffffffff81111561236a5761236a612d36565b6040519080825280601f01601f191660200182016040528015612394576020820181803683370190505b50905060005b828111612407578381815181106123b3576123b3612f7e565b602001015160f81c60f81b8282815181106123d0576123d0612f7e565b60200101907effffffffffffffffffffffffffffffffffffffffffffffffffffffffffffff1916908160001a90535060010161239a565b50949350505050565b6040517f150b7a02000000000000000000000000000000000000000000000000000000008082529073ffffffffffffffffffffffffffffffffffffffff85169063150b7a029061246a90899089908890889060040161312c565b6020604051808303816000875af1158015612489573d6000803e3d6000fd5b505050506040513d601f19601f820116820180604052508101906124ad9190613175565b7fffffffff000000000000000000000000000000000000000000000000000000001614610872576040517f08c379a000000000000000000000000000000000000000000000000000000000815260206004820152601e60248201527f4552433732313a2073616665207472616e736665722072656a656374656400006044820152606401610bbf565b60003332810361254557919050565b6000367fffffffffffffffffffffffffffffffffffffffffffffffffffffffffffffffec013560601c90507f000000000000000000000000000000000000000000000000000000000000000073ffffffffffffffffffffffffffffffffffffffff168273ffffffffffffffffffffffffffffffffffffffff16148061267d57506040517fe60125d600000000000000000000000000000000000000000000000000000000815273ffffffffffffffffffffffffffffffffffffffff828116600483015283811660248301527f0000000000000000000000000000000000000000000000000000000000000000169063e60125d690604401602060405180830381865afa158015612659573d6000803e3d6000fd5b505050506040513d601f19601f8201168201806040525081019061267d9190613192565b156126885792915050565b50919050565b366000333281036126a457506000923692509050565b7f000000000000000000000000000000000000000000000000000000000000000073ffffffffffffffffffffffffffffffffffffffff168173ffffffffffffffffffffffffffffffffffffffff1614806127f1575073ffffffffffffffffffffffffffffffffffffffff7f00000000000000000000000000000000000000000000000000000000000000001663e60125d6367fffffffffffffffffffffffffffffffffffffffffffffffffffffffffffffffec013560601c6040517fffffffff0000000000000000000000000000000000000000000000000000000060e084901b16815273ffffffffffffffffffffffffffffffffffffffff91821660048201529084166024820152604401602060405180830381865afa1580156127cd573d6000803e3d6000fd5b505050506040513d601f19601f820116820180604052508101906127f19190613192565b15612807576127fe612812565b92509250509091565b506000923692509050565b366000808083612823601482612cf8565b9261059e939291906131af565b7fffffffff000000000000000000000000000000000000000000000000000000008116811461077657600080fd5b60006020828403121561287057600080fd5b81356107e481612830565b60005b8381101561289657818101518382015260200161287e565b838111156106bf5750506000910152565b600081518084526128bf81602086016020860161287b565b601f017fffffffffffffffffffffffffffffffffffffffffffffffffffffffffffffffe0169290920160200192915050565b6020815260006107e460208301846128a7565b60006020828403121561291657600080fd5b5035919050565b803573ffffffffffffffffffffffffffffffffffffffff8116811461294157600080fd5b919050565b6000806040838503121561295957600080fd5b6129628361291d565b946020939093013593505050565b60008083601f84011261298257600080fd5b50813567ffffffffffffffff81111561299a57600080fd5b6020830191508360208285010111156129b257600080fd5b9250929050565b6000806000604084860312156129ce57600080fd5b83359250602084013567ffffffffffffffff8111156129ec57600080fd5b6129f886828701612970565b9497909650939450505050565b600080600060608486031215612a1a57600080fd5b612a238461291d565b9250612a316020850161291d565b9150604084013590509250925092565b60008060408385031215612a5457600080fd5b82359150612a646020840161291d565b90509250929050565b60208152816020820152818360408301376000818301604090810191909152601f9092017fffffffffffffffffffffffffffffffffffffffffffffffffffffffffffffffe0160101919050565b60008083601f840112612acc57600080fd5b50813567ffffffffffffffff811115612ae457600080fd5b6020830191508360208260051b85010111156129b257600080fd5b600080600060408486031215612b1457600080fd5b612b1d8461291d565b9250602084013567ffffffffffffffff811115612b3957600080fd5b6129f886828701612aba565b600060208284031215612b5757600080fd5b6107e48261291d565b60008060008060408587031215612b7657600080fd5b843567ffffffffffffffff80821115612b8e57600080fd5b612b9a88838901612aba565b90965094506020870135915080821115612bb357600080fd5b50612bc087828801612aba565b95989497509550505050565b60008060008060608587031215612be257600080fd5b612beb8561291d565b935060208501359250604085013567ffffffffffffffff811115612c0e57600080fd5b612bc087828801612970565b801515811461077657600080fd5b60008060408385031215612c3b57600080fd5b612c448361291d565b91506020830135612c5481612c1a565b809150509250929050565b600080600080600060808688031215612c7757600080fd5b612c808661291d565b9450612c8e6020870161291d565b935060408601359250606086013567ffffffffffffffff811115612cb157600080fd5b612cbd88828901612970565b969995985093965092949392505050565b60008060408385031215612ce157600080fd5b612cea8361291d565b9150612a646020840161291d565b600082821015612d31577f4e487b7100000000000000000000000000000000000000000000000000000000600052601160045260246000fd5b500390565b7f4e487b7100000000000000000000000000000000000000000000000000000000600052604160045260246000fd5b600181811c90821680612d7957607f821691505b602082108103612688577f4e487b7100000000000000000000000000000000000000000000000000000000600052602260045260246000fd5b601f82111561054157600081815260208120601f850160051c81016020861015612dd95750805b601f850160051c820191505b81811015611c5557828155600101612de5565b815167ffffffffffffffff811115612e1257612e12612d36565b612e2681612e208454612d65565b84612db2565b602080601f831160018114612e795760008415612e435750858301515b7fffffffffffffffffffffffffffffffffffffffffffffffffffffffffffffffff600386901b1c1916600185901b178555611c55565b6000858152602081207fffffffffffffffffffffffffffffffffffffffffffffffffffffffffffffffe08616915b82811015612ec657888601518255948401946001909101908401612ea7565b5085821015612f0257878501517fffffffffffffffffffffffffffffffffffffffffffffffffffffffffffffffff600388901b60f8161c191681555b5050505050600190811b01905550565b7f416363657373436f6e74726f6c3a206d697373696e6720270000000000000000815260008251612f4a81601885016020870161287b565b7f2720726f6c6500000000000000000000000000000000000000000000000000006018939091019283015250601e01919050565b7f4e487b7100000000000000000000000000000000000000000000000000000000600052603260045260246000fd5b60008083357fffffffffffffffffffffffffffffffffffffffffffffffffffffffffffffffe1843603018112612fe257600080fd5b83018035915067ffffffffffffffff821115612ffd57600080fd5b6020019150368190038213156129b257600080fd5b67ffffffffffffffff83111561302a5761302a612d36565b61303e836130388354612d65565b83612db2565b6000601f841160018114613090576000851561305a5750838201355b7fffffffffffffffffffffffffffffffffffffffffffffffffffffffffffffffff600387901b1c1916600186901b178355610872565b6000838152602090207fffffffffffffffffffffffffffffffffffffffffffffffffffffffffffffffe0861690835b828110156130df57868501358255602094850194600190920191016130bf565b508682101561311a577fffffffffffffffffffffffffffffffffffffffffffffffffffffffffffffffff60f88860031b161c19848701351681555b505060018560011b0183555050505050565b600073ffffffffffffffffffffffffffffffffffffffff80871683528086166020840152508360408301526080606083015261316b60808301846128a7565b9695505050505050565b60006020828403121561318757600080fd5b81516107e481612830565b6000602082840312156131a457600080fd5b81516107e481612c1a565b600080858511156131bf57600080fd5b838611156131cc57600080fd5b505082019391909203915056fea2646970667358221220a453679d66fca6d012e959b7a4a191d2d495be0fe1b7c38ee1d51b644f94e1fc64736f6c634300080f0033",
  "linkReferences": {},
  "deployedLinkReferences": {}
}