{
  "_format": "hh-sol-artifact-1",
  "contractName": "ERC721FacetMock",
  "sourceName": "contracts/mocks/token/ERC721/ERC721FacetMock.sol",
  "abi": [
    {
      "inputs": [
        {
          "internalType": "contract IForwarderRegistry",
          "name": "forwarderRegistry",
          "type": "address"
        }
      ],
      "stateMutability": "nonpayable",
      "type": "constructor"
    },
    {
      "anonymous": false,
      "inputs": [
        {
          "indexed": true,
          "internalType": "address",
          "name": "owner",
          "type": "address"
        },
        {
          "indexed": true,
          "internalType": "address",
          "name": "approved",
          "type": "address"
        },
        {
          "indexed": true,
          "internalType": "uint256",
          "name": "tokenId",
          "type": "uint256"
        }
      ],
      "name": "Approval",
      "type": "event"
    },
    {
      "anonymous": false,
      "inputs": [
        {
          "indexed": true,
          "internalType": "address",
          "name": "owner",
          "type": "address"
        },
        {
          "indexed": true,
          "internalType": "address",
          "name": "operator",
          "type": "address"
        },
        {
          "indexed": false,
          "internalType": "bool",
          "name": "approved",
          "type": "bool"
        }
      ],
      "name": "ApprovalForAll",
      "type": "event"
    },
    {
      "anonymous": false,
      "inputs": [
        {
          "indexed": true,
          "internalType": "address",
          "name": "from",
          "type": "address"
        },
        {
          "indexed": true,
          "internalType": "address",
          "name": "to",
          "type": "address"
        },
        {
          "indexed": true,
          "internalType": "uint256",
          "name": "tokenId",
          "type": "uint256"
        }
      ],
      "name": "Transfer",
      "type": "event"
    },
    {
      "inputs": [],
      "name": "__msgData",
      "outputs": [
        {
          "internalType": "bytes",
          "name": "",
          "type": "bytes"
        }
      ],
      "stateMutability": "view",
      "type": "function"
    },
    {
      "inputs": [
        {
          "internalType": "address",
          "name": "to",
          "type": "address"
        },
        {
          "internalType": "uint256",
          "name": "tokenId",
          "type": "uint256"
        }
      ],
      "name": "approve",
      "outputs": [],
      "stateMutability": "nonpayable",
      "type": "function"
    },
    {
      "inputs": [
        {
          "internalType": "address",
          "name": "owner",
          "type": "address"
        }
      ],
      "name": "balanceOf",
      "outputs": [
        {
          "internalType": "uint256",
          "name": "",
          "type": "uint256"
        }
      ],
      "stateMutability": "view",
      "type": "function"
    },
    {
      "inputs": [
        {
          "internalType": "uint256",
          "name": "tokenId",
          "type": "uint256"
        }
      ],
      "name": "getApproved",
      "outputs": [
        {
          "internalType": "address",
          "name": "operator",
          "type": "address"
        }
      ],
      "stateMutability": "view",
      "type": "function"
    },
    {
      "inputs": [],
      "name": "initERC721Storage",
      "outputs": [],
      "stateMutability": "nonpayable",
      "type": "function"
    },
    {
      "inputs": [
        {
          "internalType": "address",
          "name": "owner",
          "type": "address"
        },
        {
          "internalType": "address",
          "name": "operator",
          "type": "address"
        }
      ],
      "name": "isApprovedForAll",
      "outputs": [
        {
          "internalType": "bool",
          "name": "",
          "type": "bool"
        }
      ],
      "stateMutability": "view",
      "type": "function"
    },
    {
      "inputs": [
        {
          "internalType": "uint256",
          "name": "tokenId",
          "type": "uint256"
        }
      ],
      "name": "ownerOf",
      "outputs": [
        {
          "internalType": "address",
          "name": "",
          "type": "address"
        }
      ],
      "stateMutability": "view",
      "type": "function"
    },
    {
      "inputs": [
        {
          "internalType": "address",
          "name": "from",
          "type": "address"
        },
        {
          "internalType": "address",
          "name": "to",
          "type": "address"
        },
        {
          "internalType": "uint256",
          "name": "tokenId",
          "type": "uint256"
        }
      ],
      "name": "safeTransferFrom",
      "outputs": [],
      "stateMutability": "nonpayable",
      "type": "function"
    },
    {
      "inputs": [
        {
          "internalType": "address",
          "name": "from",
          "type": "address"
        },
        {
          "internalType": "address",
          "name": "to",
          "type": "address"
        },
        {
          "internalType": "uint256",
          "name": "tokenId",
          "type": "uint256"
        },
        {
          "internalType": "bytes",
          "name": "_data",
          "type": "bytes"
        }
      ],
      "name": "safeTransferFrom",
      "outputs": [],
      "stateMutability": "nonpayable",
      "type": "function"
    },
    {
      "inputs": [
        {
          "internalType": "address",
          "name": "operator",
          "type": "address"
        },
        {
          "internalType": "bool",
          "name": "approved",
          "type": "bool"
        }
      ],
      "name": "setApprovalForAll",
      "outputs": [],
      "stateMutability": "nonpayable",
      "type": "function"
    },
    {
      "inputs": [
        {
          "internalType": "address",
          "name": "from",
          "type": "address"
        },
        {
          "internalType": "address",
          "name": "to",
          "type": "address"
        },
        {
          "internalType": "uint256",
          "name": "tokenId",
          "type": "uint256"
        }
      ],
      "name": "transferFrom",
      "outputs": [],
      "stateMutability": "nonpayable",
      "type": "function"
    }
  ],
  "bytecode": "0x60a060405234801561001057600080fd5b5060405161196a38038061196a83398101604081905261002f91610040565b6001600160a01b0316608052610070565b60006020828403121561005257600080fd5b81516001600160a01b038116811461006957600080fd5b9392505050565b6080516118ca6100a060003960008181610b2801528181610bc801528181610e060152610e7001526118ca6000f3fe608060405234801561001057600080fd5b50600436106100c95760003560e01c80636352211e11610081578063b1c7ee021161005b578063b1c7ee02146101a3578063b88d4fde146101ab578063e985e9c5146101be57600080fd5b80636352211e1461015c57806370a082311461016f578063a22cb4651461019057600080fd5b806323b872dd116100b257806323b872dd1461012057806331e66e1e1461013357806342842e0e1461014957600080fd5b8063081812fc146100ce578063095ea7b31461010b575b600080fd5b6100e16100dc366004611475565b6101e1565b60405173ffffffffffffffffffffffffffffffffffffffff90911681526020015b60405180910390f35b61011e6101193660046114b7565b6101fb565b005b61011e61012e3660046114e1565b61021c565b61013b610240565b60405161010292919061151d565b61011e6101573660046114e1565b610253565b6100e161016a366004611475565b610272565b61018261017d36600461156a565b610286565b604051908152602001610102565b61011e61019e366004611596565b61029a565b61011e6102b7565b61011e6101b93660046115fc565b6102da565b6101d16101cc3660046116f6565b610301565b6040519015158152602001610102565b60006101f5826101ef61034f565b9061037d565b92915050565b610218610206610465565b838361021061034f565b929190610474565b5050565b61023b610227610465565b84848461023261034f565b93929190610730565b505050565b36600061024b610756565b915091509091565b61023b61025e610465565b84848461026961034f565b93929190610761565b60006101f58261028061034f565b90610780565b60006101f58261029461034f565b9061080e565b6102186102a5610465565b83836102af61034f565b9291906108ba565b6102d06102c2610465565b6102ca6109e6565b90610a14565b6102d8610a97565b565b6102fb6102e5610465565b858585856102f161034f565b9493929190610ad4565b50505050565b6000610348838361031061034f565b73ffffffffffffffffffffffffffffffffffffffff928316600090815260209182526040808220939094168152919052205460ff1690565b9392505050565b6000806101f560017fddf3ee18ae6d688373c219468f8be446e7ae82215f4779d821c7ea5e8c13c0c1611729565b600081815260018301602052604081205473ffffffffffffffffffffffffffffffffffffffff8116610410576040517f08c379a000000000000000000000000000000000000000000000000000000000815260206004820152601860248201527f4552433732313a206e6f6e2d6578697374696e67204e4654000000000000000060448201526064015b60405180910390fd5b7401000000000000000000000000000000000000000081161561045b575050600081815260038301602052604090205473ffffffffffffffffffffffffffffffffffffffff166101f5565b60009150506101f5565b600061046f610aec565b905090565b6000818152600185016020526040812054908190036104ef576040517f08c379a000000000000000000000000000000000000000000000000000000000815260206004820152601860248201527f4552433732313a206e6f6e2d6578697374696e67204e465400000000000000006044820152606401610407565b8073ffffffffffffffffffffffffffffffffffffffff80821690851603610572576040517f08c379a000000000000000000000000000000000000000000000000000000000815260206004820152601560248201527f4552433732313a2073656c662d617070726f76616c00000000000000000000006044820152606401610407565b61057d868287610c44565b6105e3576040517f08c379a000000000000000000000000000000000000000000000000000000000815260206004820152601b60248201527f4552433732313a206e6f6e2d617070726f7665642073656e64657200000000006044820152606401610407565b73ffffffffffffffffffffffffffffffffffffffff841661064a5774010000000000000000000000000000000000000000821615610645576000838152600187016020526040902073ffffffffffffffffffffffffffffffffffffffff821690555b6106cd565b74010000000000000000000000000000000000000000821780831461067d57600084815260018801602052604090208190555b506000838152600387016020526040902080547fffffffffffffffffffffffff00000000000000000000000000000000000000001673ffffffffffffffffffffffffffffffffffffffff86161790555b828473ffffffffffffffffffffffffffffffffffffffff168273ffffffffffffffffffffffffffffffffffffffff167f8c5be1e5ebec7d5bd14f71427d1e84f3dd0314c0f7b2291e5b200ac8c7c3b92560405160405180910390a4505050505050565b61074f8585858585604051806020016040528060008152506000610cb8565b5050505050565b36600061024b610dee565b61074f8585858585604051806020016040528060008152506001610cb8565b600081815260018301602052604081205473ffffffffffffffffffffffffffffffffffffffff8116610348576040517f08c379a000000000000000000000000000000000000000000000000000000000815260206004820152601860248201527f4552433732313a206e6f6e2d6578697374696e67204e465400000000000000006044820152606401610407565b600073ffffffffffffffffffffffffffffffffffffffff821661088d576040517f08c379a000000000000000000000000000000000000000000000000000000000815260206004820152601460248201527f4552433732313a207a65726f20616464726573730000000000000000000000006044820152606401610407565b5073ffffffffffffffffffffffffffffffffffffffff166000908152600291909101602052604090205490565b8273ffffffffffffffffffffffffffffffffffffffff168273ffffffffffffffffffffffffffffffffffffffff160361094f576040517f08c379a000000000000000000000000000000000000000000000000000000000815260206004820152601560248201527f4552433732313a2073656c662d617070726f76616c00000000000000000000006044820152606401610407565b73ffffffffffffffffffffffffffffffffffffffff8381166000818152602087815260408083209487168084529482529182902080547fffffffffffffffffffffffffffffffffffffffffffffffffffffffffffffff001686151590811790915591519182527f17307eab39ab6107e8899845ad3d59bd9653f200f220920489ca2b5937696c31910160405180910390a350505050565b6000806101f560017fb53127684a568b3173ae13b9f8a6016e243e63b6e8ee1178d6a717850b5d6104611729565b815473ffffffffffffffffffffffffffffffffffffffff828116911614610218576040517f08c379a000000000000000000000000000000000000000000000000000000000815260206004820152601960248201527f50726f787941646d696e3a206e6f74207468652061646d696e000000000000006044820152606401610407565b610acc610ac560017ffddcdbf8ca7eb362a678daf3643ce3cf98ebf69ac314d25d376d5aeabd2f5332611729565b6001610f72565b6102d8610fe2565b610ae48686868686866001610cb8565b505050505050565b600033328103610afb57919050565b6000367fffffffffffffffffffffffffffffffffffffffffffffffffffffffffffffffec013560601c90507f000000000000000000000000000000000000000000000000000000000000000073ffffffffffffffffffffffffffffffffffffffff168273ffffffffffffffffffffffffffffffffffffffff161480610c3357506040517fe60125d600000000000000000000000000000000000000000000000000000000815273ffffffffffffffffffffffffffffffffffffffff828116600483015283811660248301527f0000000000000000000000000000000000000000000000000000000000000000169063e60125d690604401602060405180830381865afa158015610c0f573d6000803e3d6000fd5b505050506040513d601f19601f82011682018060405250810190610c339190611767565b15610c3e5792915050565b50919050565b60008173ffffffffffffffffffffffffffffffffffffffff168373ffffffffffffffffffffffffffffffffffffffff161480610cb0575073ffffffffffffffffffffffffffffffffffffffff8084166000908152602086815260408083209386168352929052205460ff165b949350505050565b73ffffffffffffffffffffffffffffffffffffffff8416610d35576040517f08c379a000000000000000000000000000000000000000000000000000000000815260206004820152601860248201527f4552433732313a207472616e7366657220746f207a65726f00000000000000006044820152606401610407565b6000610d42888789610c44565b9050610d548888888888866000611017565b838573ffffffffffffffffffffffffffffffffffffffff168773ffffffffffffffffffffffffffffffffffffffff167fddf252ad1be2c89b69c2b068fc378daa952ba7f163c4a11628f55a4df523b3ef60405160405180910390a4818015610dd2575073ffffffffffffffffffffffffffffffffffffffff85163b15155b15610de457610de4878787878761119e565b5050505050505050565b36600033328103610e0457506000923692509050565b7f000000000000000000000000000000000000000000000000000000000000000073ffffffffffffffffffffffffffffffffffffffff168173ffffffffffffffffffffffffffffffffffffffff161480610f51575073ffffffffffffffffffffffffffffffffffffffff7f00000000000000000000000000000000000000000000000000000000000000001663e60125d6367fffffffffffffffffffffffffffffffffffffffffffffffffffffffffffffffec013560601c6040517fffffffff0000000000000000000000000000000000000000000000000000000060e084901b16815273ffffffffffffffffffffffffffffffffffffffff91821660048201529084166024820152604401602060405180830381865afa158015610f2d573d6000803e3d6000fd5b505050506040513d601f19601f82011682018060405250810190610f519190611767565b15610f6757610f5e6112c4565b92509250509091565b506000923692509050565b815482908211610fde576040517f08c379a000000000000000000000000000000000000000000000000000000000815260206004820152601660248201527f53746f726167653a2070686173652072656163686564000000000000000000006044820152606401610407565b5550565b6102d87f80ac58cd0000000000000000000000000000000000000000000000000000000060016110106112e2565b9190611310565b600083815260018801602052604090205473ffffffffffffffffffffffffffffffffffffffff868116908216146110aa576040517f08c379a000000000000000000000000000000000000000000000000000000000815260206004820152601560248201527f4552433732313a206e6f6e2d6f776e6564204e465400000000000000000000006044820152606401610407565b8261116357740100000000000000000000000000000000000000008116158015906110fd5750600084815260038901602052604090205473ffffffffffffffffffffffffffffffffffffffff8881169116145b611163576040517f08c379a000000000000000000000000000000000000000000000000000000000815260206004820152601b60248201527f4552433732313a206e6f6e2d617070726f7665642073656e64657200000000006044820152606401610407565b6000848152600189016020526040902073ffffffffffffffffffffffffffffffffffffffff8616905581610de457610de48887876001611400565b6040517f150b7a02000000000000000000000000000000000000000000000000000000008082529073ffffffffffffffffffffffffffffffffffffffff85169063150b7a02906111f8908990899088908890600401611784565b6020604051808303816000875af1158015611217573d6000803e3d6000fd5b505050506040513d601f19601f8201168201806040525081019061123b9190611828565b7fffffffff00000000000000000000000000000000000000000000000000000000161461074f576040517f08c379a000000000000000000000000000000000000000000000000000000000815260206004820152601860248201527f4552433732313a207472616e73666572207265667573656400000000000000006044820152606401610407565b3660008080836112d5601482611729565b9261024b9392919061186a565b6000806101f560017fca9d3e17f264b0f3984e2634e94adb37fa3e6a8103f06aeae6fa59e21c769f5e611729565b7fffffffff00000000000000000000000000000000000000000000000000000000808316900361139c576040517f08c379a000000000000000000000000000000000000000000000000000000000815260206004820152601f60248201527f496e74657266616365446574656374696f6e3a2077726f6e672076616c7565006044820152606401610407565b7fffffffff00000000000000000000000000000000000000000000000000000000919091166000908152602092909252604090912080547fffffffffffffffffffffffffffffffffffffffffffffffffffffffffffffff0016911515919091179055565b8173ffffffffffffffffffffffffffffffffffffffff168373ffffffffffffffffffffffffffffffffffffffff16146102fb5773ffffffffffffffffffffffffffffffffffffffff80841660009081526002860160205260408082208054859003905591841681522080548201905550505050565b60006020828403121561148757600080fd5b5035919050565b803573ffffffffffffffffffffffffffffffffffffffff811681146114b257600080fd5b919050565b600080604083850312156114ca57600080fd5b6114d38361148e565b946020939093013593505050565b6000806000606084860312156114f657600080fd5b6114ff8461148e565b925061150d6020850161148e565b9150604084013590509250925092565b60208152816020820152818360408301376000818301604090810191909152601f9092017fffffffffffffffffffffffffffffffffffffffffffffffffffffffffffffffe0160101919050565b60006020828403121561157c57600080fd5b6103488261148e565b801515811461159357600080fd5b50565b600080604083850312156115a957600080fd5b6115b28361148e565b915060208301356115c281611585565b809150509250929050565b7f4e487b7100000000000000000000000000000000000000000000000000000000600052604160045260246000fd5b6000806000806080858703121561161257600080fd5b61161b8561148e565b93506116296020860161148e565b925060408501359150606085013567ffffffffffffffff8082111561164d57600080fd5b818701915087601f83011261166157600080fd5b813581811115611673576116736115cd565b604051601f82017fffffffffffffffffffffffffffffffffffffffffffffffffffffffffffffffe0908116603f011681019083821181831017156116b9576116b96115cd565b816040528281528a60208487010111156116d257600080fd5b82602086016020830137600060208483010152809550505050505092959194509250565b6000806040838503121561170957600080fd5b6117128361148e565b91506117206020840161148e565b90509250929050565b600082821015611762577f4e487b7100000000000000000000000000000000000000000000000000000000600052601160045260246000fd5b500390565b60006020828403121561177957600080fd5b815161034881611585565b600073ffffffffffffffffffffffffffffffffffffffff8087168352602081871681850152856040850152608060608501528451915081608085015260005b828110156117df5785810182015185820160a0015281016117c3565b828111156117f157600060a084870101525b5050601f017fffffffffffffffffffffffffffffffffffffffffffffffffffffffffffffffe0169190910160a00195945050505050565b60006020828403121561183a57600080fd5b81517fffffffff000000000000000000000000000000000000000000000000000000008116811461034857600080fd5b6000808585111561187a57600080fd5b8386111561188757600080fd5b505082019391909203915056fea2646970667358221220b424df88a6b69680af1e6e21f1e99c408ffdccd5ae7660f6b4a181da037ab46864736f6c634300080e0033",
  "linkReferences": {},
  "deployedLinkReferences": {}
}