{
  "_format": "hh-sol-artifact-1",
  "contractName": "ERC721FullBurn",
  "sourceName": "contracts/token/ERC721/preset/ERC721FullBurn.sol",
  "abi": [
    {
      "inputs": [
        {
          "internalType": "string",
          "name": "tokenName",
          "type": "string"
        },
        {
          "internalType": "string",
          "name": "tokenSymbol",
          "type": "string"
        },
        {
          "internalType": "contract ITokenMetadataResolver",
          "name": "metadataResolver",
          "type": "address"
        },
        {
          "internalType": "contract IOperatorFilterRegistry",
          "name": "filterRegistry",
          "type": "address"
        },
        {
          "internalType": "contract IForwarderRegistry",
          "name": "forwarderRegistry",
          "type": "address"
        }
      ],
      "stateMutability": "nonpayable",
      "type": "constructor"
    },
    {
      "inputs": [
        {
          "internalType": "address",
          "name": "target",
          "type": "address"
        }
      ],
      "name": "AddressEmptyCode",
      "type": "error"
    },
    {
      "inputs": [
        {
          "internalType": "address",
          "name": "account",
          "type": "address"
        }
      ],
      "name": "AddressInsufficientBalance",
      "type": "error"
    },
    {
      "inputs": [
        {
          "internalType": "uint256",
          "name": "percentage",
          "type": "uint256"
        }
      ],
      "name": "ERC2981IncorrectRoyaltyPercentage",
      "type": "error"
    },
    {
      "inputs": [],
      "name": "ERC2981IncorrectRoyaltyReceiver",
      "type": "error"
    },
    {
      "inputs": [],
      "name": "ERC721BalanceOfAddressZero",
      "type": "error"
    },
    {
      "inputs": [
        {
          "internalType": "uint256",
          "name": "tokenId",
          "type": "uint256"
        }
      ],
      "name": "ERC721ExistingToken",
      "type": "error"
    },
    {
      "inputs": [],
      "name": "ERC721MintToAddressZero",
      "type": "error"
    },
    {
      "inputs": [
        {
          "internalType": "address",
          "name": "sender",
          "type": "address"
        },
        {
          "internalType": "address",
          "name": "owner",
          "type": "address"
        },
        {
          "internalType": "uint256",
          "name": "tokenId",
          "type": "uint256"
        }
      ],
      "name": "ERC721NonApprovedForApproval",
      "type": "error"
    },
    {
      "inputs": [
        {
          "internalType": "address",
          "name": "sender",
          "type": "address"
        },
        {
          "internalType": "address",
          "name": "owner",
          "type": "address"
        },
        {
          "internalType": "uint256",
          "name": "tokenId",
          "type": "uint256"
        }
      ],
      "name": "ERC721NonApprovedForTransfer",
      "type": "error"
    },
    {
      "inputs": [
        {
          "internalType": "uint256",
          "name": "tokenId",
          "type": "uint256"
        }
      ],
      "name": "ERC721NonExistingToken",
      "type": "error"
    },
    {
      "inputs": [
        {
          "internalType": "address",
          "name": "account",
          "type": "address"
        },
        {
          "internalType": "uint256",
          "name": "tokenId",
          "type": "uint256"
        }
      ],
      "name": "ERC721NonOwnedToken",
      "type": "error"
    },
    {
      "inputs": [
        {
          "internalType": "address",
          "name": "recipient",
          "type": "address"
        },
        {
          "internalType": "uint256",
          "name": "tokenId",
          "type": "uint256"
        }
      ],
      "name": "ERC721SafeTransferRejected",
      "type": "error"
    },
    {
      "inputs": [
        {
          "internalType": "address",
          "name": "account",
          "type": "address"
        }
      ],
      "name": "ERC721SelfApproval",
      "type": "error"
    },
    {
      "inputs": [
        {
          "internalType": "address",
          "name": "account",
          "type": "address"
        }
      ],
      "name": "ERC721SelfApprovalForAll",
      "type": "error"
    },
    {
      "inputs": [],
      "name": "ERC721TransferToAddressZero",
      "type": "error"
    },
    {
      "inputs": [],
      "name": "FailedInnerCall",
      "type": "error"
    },
    {
      "inputs": [],
      "name": "IllegalInterfaceId",
      "type": "error"
    },
    {
      "inputs": [],
      "name": "InconsistentArrayLengths",
      "type": "error"
    },
    {
      "inputs": [
        {
          "internalType": "address",
          "name": "tokenContract",
          "type": "address"
        }
      ],
      "name": "IncorrectTokenContractType",
      "type": "error"
    },
    {
      "inputs": [
        {
          "internalType": "address",
          "name": "account",
          "type": "address"
        }
      ],
      "name": "NotContractOwner",
      "type": "error"
    },
    {
      "inputs": [
        {
          "internalType": "bytes32",
          "name": "role",
          "type": "bytes32"
        },
        {
          "internalType": "address",
          "name": "account",
          "type": "address"
        }
      ],
      "name": "NotRoleHolder",
      "type": "error"
    },
    {
      "inputs": [
        {
          "internalType": "address",
          "name": "operator",
          "type": "address"
        }
      ],
      "name": "OperatorNotAllowed",
      "type": "error"
    },
    {
      "inputs": [
        {
          "internalType": "address",
          "name": "token",
          "type": "address"
        }
      ],
      "name": "SafeERC20FailedOperation",
      "type": "error"
    },
    {
      "anonymous": false,
      "inputs": [
        {
          "indexed": true,
          "internalType": "address",
          "name": "owner",
          "type": "address"
        },
        {
          "indexed": true,
          "internalType": "address",
          "name": "approved",
          "type": "address"
        },
        {
          "indexed": true,
          "internalType": "uint256",
          "name": "tokenId",
          "type": "uint256"
        }
      ],
      "name": "Approval",
      "type": "event"
    },
    {
      "anonymous": false,
      "inputs": [
        {
          "indexed": true,
          "internalType": "address",
          "name": "owner",
          "type": "address"
        },
        {
          "indexed": true,
          "internalType": "address",
          "name": "operator",
          "type": "address"
        },
        {
          "indexed": false,
          "internalType": "bool",
          "name": "approved",
          "type": "bool"
        }
      ],
      "name": "ApprovalForAll",
      "type": "event"
    },
    {
      "anonymous": false,
      "inputs": [
        {
          "indexed": true,
          "internalType": "address",
          "name": "previousOwner",
          "type": "address"
        },
        {
          "indexed": true,
          "internalType": "address",
          "name": "newOwner",
          "type": "address"
        }
      ],
      "name": "OwnershipTransferred",
      "type": "event"
    },
    {
      "anonymous": false,
      "inputs": [
        {
          "indexed": false,
          "internalType": "bytes32",
          "name": "role",
          "type": "bytes32"
        },
        {
          "indexed": false,
          "internalType": "address",
          "name": "account",
          "type": "address"
        },
        {
          "indexed": false,
          "internalType": "address",
          "name": "operator",
          "type": "address"
        }
      ],
      "name": "RoleGranted",
      "type": "event"
    },
    {
      "anonymous": false,
      "inputs": [
        {
          "indexed": false,
          "internalType": "bytes32",
          "name": "role",
          "type": "bytes32"
        },
        {
          "indexed": false,
          "internalType": "address",
          "name": "account",
          "type": "address"
        },
        {
          "indexed": false,
          "internalType": "address",
          "name": "operator",
          "type": "address"
        }
      ],
      "name": "RoleRevoked",
      "type": "event"
    },
    {
      "anonymous": false,
      "inputs": [
        {
          "indexed": true,
          "internalType": "address",
          "name": "from",
          "type": "address"
        },
        {
          "indexed": true,
          "internalType": "address",
          "name": "to",
          "type": "address"
        },
        {
          "indexed": true,
          "internalType": "uint256",
          "name": "tokenId",
          "type": "uint256"
        }
      ],
      "name": "Transfer",
      "type": "event"
    },
    {
      "inputs": [],
      "name": "MINTER_ROLE",
      "outputs": [
        {
          "internalType": "bytes32",
          "name": "",
          "type": "bytes32"
        }
      ],
      "stateMutability": "view",
      "type": "function"
    },
    {
      "inputs": [],
      "name": "ROYALTY_FEE_DENOMINATOR",
      "outputs": [
        {
          "internalType": "uint256",
          "name": "",
          "type": "uint256"
        }
      ],
      "stateMutability": "view",
      "type": "function"
    },
    {
      "inputs": [
        {
          "internalType": "address",
          "name": "to",
          "type": "address"
        },
        {
          "internalType": "uint256",
          "name": "tokenId",
          "type": "uint256"
        }
      ],
      "name": "approve",
      "outputs": [],
      "stateMutability": "nonpayable",
      "type": "function"
    },
    {
      "inputs": [
        {
          "internalType": "address",
          "name": "owner",
          "type": "address"
        }
      ],
      "name": "balanceOf",
      "outputs": [
        {
          "internalType": "uint256",
          "name": "balance",
          "type": "uint256"
        }
      ],
      "stateMutability": "view",
      "type": "function"
    },
    {
      "inputs": [
        {
          "internalType": "address",
          "name": "from",
          "type": "address"
        },
        {
          "internalType": "uint256[]",
          "name": "tokenIds",
          "type": "uint256[]"
        }
      ],
      "name": "batchBurnFrom",
      "outputs": [],
      "stateMutability": "nonpayable",
      "type": "function"
    },
    {
      "inputs": [
        {
          "internalType": "address",
          "name": "to",
          "type": "address"
        },
        {
          "internalType": "uint256[]",
          "name": "tokenIds",
          "type": "uint256[]"
        }
      ],
      "name": "batchMint",
      "outputs": [],
      "stateMutability": "nonpayable",
      "type": "function"
    },
    {
      "inputs": [
        {
          "internalType": "address",
          "name": "from",
          "type": "address"
        },
        {
          "internalType": "address",
          "name": "to",
          "type": "address"
        },
        {
          "internalType": "uint256[]",
          "name": "tokenIds",
          "type": "uint256[]"
        }
      ],
      "name": "batchTransferFrom",
      "outputs": [],
      "stateMutability": "nonpayable",
      "type": "function"
    },
    {
      "inputs": [
        {
          "internalType": "address",
          "name": "from",
          "type": "address"
        },
        {
          "internalType": "uint256",
          "name": "tokenId",
          "type": "uint256"
        }
      ],
      "name": "burnFrom",
      "outputs": [],
      "stateMutability": "nonpayable",
      "type": "function"
    },
    {
      "inputs": [
        {
          "internalType": "address[]",
          "name": "recipients",
          "type": "address[]"
        },
        {
          "internalType": "uint256[]",
          "name": "tokenIds",
          "type": "uint256[]"
        }
      ],
      "name": "deliver",
      "outputs": [],
      "stateMutability": "nonpayable",
      "type": "function"
    },
    {
      "inputs": [],
      "name": "forwarderRegistry",
      "outputs": [
        {
          "internalType": "contract IForwarderRegistry",
          "name": "",
          "type": "address"
        }
      ],
      "stateMutability": "view",
      "type": "function"
    },
    {
      "inputs": [
        {
          "internalType": "uint256",
          "name": "tokenId",
          "type": "uint256"
        }
      ],
      "name": "getApproved",
      "outputs": [
        {
          "internalType": "address",
          "name": "approved",
          "type": "address"
        }
      ],
      "stateMutability": "view",
      "type": "function"
    },
    {
      "inputs": [
        {
          "internalType": "bytes32",
          "name": "role",
          "type": "bytes32"
        },
        {
          "internalType": "address",
          "name": "account",
          "type": "address"
        }
      ],
      "name": "grantRole",
      "outputs": [],
      "stateMutability": "nonpayable",
      "type": "function"
    },
    {
      "inputs": [
        {
          "internalType": "bytes32",
          "name": "role",
          "type": "bytes32"
        },
        {
          "internalType": "address",
          "name": "account",
          "type": "address"
        }
      ],
      "name": "hasRole",
      "outputs": [
        {
          "internalType": "bool",
          "name": "hasRole_",
          "type": "bool"
        }
      ],
      "stateMutability": "view",
      "type": "function"
    },
    {
      "inputs": [
        {
          "internalType": "address",
          "name": "owner",
          "type": "address"
        },
        {
          "internalType": "address",
          "name": "operator",
          "type": "address"
        }
      ],
      "name": "isApprovedForAll",
      "outputs": [
        {
          "internalType": "bool",
          "name": "approvedForAll",
          "type": "bool"
        }
      ],
      "stateMutability": "view",
      "type": "function"
    },
    {
      "inputs": [
        {
          "internalType": "address",
          "name": "forwarder",
          "type": "address"
        }
      ],
      "name": "isTrustedForwarder",
      "outputs": [
        {
          "internalType": "bool",
          "name": "",
          "type": "bool"
        }
      ],
      "stateMutability": "view",
      "type": "function"
    },
    {
      "inputs": [],
      "name": "metadataResolver",
      "outputs": [
        {
          "internalType": "contract ITokenMetadataResolver",
          "name": "tokenMetadataResolver",
          "type": "address"
        }
      ],
      "stateMutability": "view",
      "type": "function"
    },
    {
      "inputs": [
        {
          "internalType": "address",
          "name": "to",
          "type": "address"
        },
        {
          "internalType": "uint256",
          "name": "tokenId",
          "type": "uint256"
        }
      ],
      "name": "mint",
      "outputs": [],
      "stateMutability": "nonpayable",
      "type": "function"
    },
    {
      "inputs": [],
      "name": "name",
      "outputs": [
        {
          "internalType": "string",
          "name": "tokenName",
          "type": "string"
        }
      ],
      "stateMutability": "view",
      "type": "function"
    },
    {
      "inputs": [],
      "name": "operatorFilterRegistry",
      "outputs": [
        {
          "internalType": "contract IOperatorFilterRegistry",
          "name": "",
          "type": "address"
        }
      ],
      "stateMutability": "view",
      "type": "function"
    },
    {
      "inputs": [],
      "name": "owner",
      "outputs": [
        {
          "internalType": "address",
          "name": "",
          "type": "address"
        }
      ],
      "stateMutability": "view",
      "type": "function"
    },
    {
      "inputs": [
        {
          "internalType": "uint256",
          "name": "tokenId",
          "type": "uint256"
        }
      ],
      "name": "ownerOf",
      "outputs": [
        {
          "internalType": "address",
          "name": "tokenOwner",
          "type": "address"
        }
      ],
      "stateMutability": "view",
      "type": "function"
    },
    {
      "inputs": [
        {
          "internalType": "address[]",
          "name": "accounts",
          "type": "address[]"
        },
        {
          "internalType": "contract IERC20[]",
          "name": "tokens",
          "type": "address[]"
        },
        {
          "internalType": "uint256[]",
          "name": "amounts",
          "type": "uint256[]"
        }
      ],
      "name": "recoverERC20s",
      "outputs": [],
      "stateMutability": "nonpayable",
      "type": "function"
    },
    {
      "inputs": [
        {
          "internalType": "address[]",
          "name": "accounts",
          "type": "address[]"
        },
        {
          "internalType": "contract IERC721[]",
          "name": "contracts",
          "type": "address[]"
        },
        {
          "internalType": "uint256[]",
          "name": "tokenIds",
          "type": "uint256[]"
        }
      ],
      "name": "recoverERC721s",
      "outputs": [],
      "stateMutability": "nonpayable",
      "type": "function"
    },
    {
      "inputs": [
        {
          "internalType": "address payable[]",
          "name": "accounts",
          "type": "address[]"
        },
        {
          "internalType": "uint256[]",
          "name": "amounts",
          "type": "uint256[]"
        }
      ],
      "name": "recoverETH",
      "outputs": [],
      "stateMutability": "nonpayable",
      "type": "function"
    },
    {
      "inputs": [
        {
          "internalType": "bytes32",
          "name": "role",
          "type": "bytes32"
        }
      ],
      "name": "renounceRole",
      "outputs": [],
      "stateMutability": "nonpayable",
      "type": "function"
    },
    {
      "inputs": [
        {
          "internalType": "bytes32",
          "name": "role",
          "type": "bytes32"
        },
        {
          "internalType": "address",
          "name": "account",
          "type": "address"
        }
      ],
      "name": "revokeRole",
      "outputs": [],
      "stateMutability": "nonpayable",
      "type": "function"
    },
    {
      "inputs": [
        {
          "internalType": "uint256",
          "name": "tokenId",
          "type": "uint256"
        },
        {
          "internalType": "uint256",
          "name": "salePrice",
          "type": "uint256"
        }
      ],
      "name": "royaltyInfo",
      "outputs": [
        {
          "internalType": "address",
          "name": "receiver",
          "type": "address"
        },
        {
          "internalType": "uint256",
          "name": "royaltyAmount",
          "type": "uint256"
        }
      ],
      "stateMutability": "view",
      "type": "function"
    },
    {
      "inputs": [
        {
          "internalType": "address",
          "name": "to",
          "type": "address"
        },
        {
          "internalType": "uint256",
          "name": "tokenId",
          "type": "uint256"
        },
        {
          "internalType": "bytes",
          "name": "data",
          "type": "bytes"
        }
      ],
      "name": "safeMint",
      "outputs": [],
      "stateMutability": "nonpayable",
      "type": "function"
    },
    {
      "inputs": [
        {
          "internalType": "address",
          "name": "from",
          "type": "address"
        },
        {
          "internalType": "address",
          "name": "to",
          "type": "address"
        },
        {
          "internalType": "uint256",
          "name": "tokenId",
          "type": "uint256"
        }
      ],
      "name": "safeTransferFrom",
      "outputs": [],
      "stateMutability": "nonpayable",
      "type": "function"
    },
    {
      "inputs": [
        {
          "internalType": "address",
          "name": "from",
          "type": "address"
        },
        {
          "internalType": "address",
          "name": "to",
          "type": "address"
        },
        {
          "internalType": "uint256",
          "name": "tokenId",
          "type": "uint256"
        },
        {
          "internalType": "bytes",
          "name": "data",
          "type": "bytes"
        }
      ],
      "name": "safeTransferFrom",
      "outputs": [],
      "stateMutability": "nonpayable",
      "type": "function"
    },
    {
      "inputs": [
        {
          "internalType": "address",
          "name": "operator",
          "type": "address"
        },
        {
          "internalType": "bool",
          "name": "approved",
          "type": "bool"
        }
      ],
      "name": "setApprovalForAll",
      "outputs": [],
      "stateMutability": "nonpayable",
      "type": "function"
    },
    {
      "inputs": [
        {
          "internalType": "uint256",
          "name": "percentage",
          "type": "uint256"
        }
      ],
      "name": "setRoyaltyPercentage",
      "outputs": [],
      "stateMutability": "nonpayable",
      "type": "function"
    },
    {
      "inputs": [
        {
          "internalType": "address",
          "name": "receiver",
          "type": "address"
        }
      ],
      "name": "setRoyaltyReceiver",
      "outputs": [],
      "stateMutability": "nonpayable",
      "type": "function"
    },
    {
      "inputs": [
        {
          "internalType": "bytes4",
          "name": "interfaceId",
          "type": "bytes4"
        }
      ],
      "name": "supportsInterface",
      "outputs": [
        {
          "internalType": "bool",
          "name": "",
          "type": "bool"
        }
      ],
      "stateMutability": "view",
      "type": "function"
    },
    {
      "inputs": [],
      "name": "symbol",
      "outputs": [
        {
          "internalType": "string",
          "name": "tokenSymbol",
          "type": "string"
        }
      ],
      "stateMutability": "view",
      "type": "function"
    },
    {
      "inputs": [
        {
          "internalType": "uint256",
          "name": "tokenId",
          "type": "uint256"
        }
      ],
      "name": "tokenURI",
      "outputs": [
        {
          "internalType": "string",
          "name": "uri",
          "type": "string"
        }
      ],
      "stateMutability": "view",
      "type": "function"
    },
    {
      "inputs": [
        {
          "internalType": "address",
          "name": "from",
          "type": "address"
        },
        {
          "internalType": "address",
          "name": "to",
          "type": "address"
        },
        {
          "internalType": "uint256",
          "name": "tokenId",
          "type": "uint256"
        }
      ],
      "name": "transferFrom",
      "outputs": [],
      "stateMutability": "nonpayable",
      "type": "function"
    },
    {
      "inputs": [
        {
          "internalType": "address",
          "name": "newOwner",
          "type": "address"
        }
      ],
      "name": "transferOwnership",
      "outputs": [],
      "stateMutability": "nonpayable",
      "type": "function"
    },
    {
      "inputs": [
        {
          "internalType": "contract IOperatorFilterRegistry",
          "name": "registry",
          "type": "address"
        }
      ],
      "name": "updateOperatorFilterRegistry",
      "outputs": [],
      "stateMutability": "nonpayable",
      "type": "function"
    }
  ],
  "bytecode": "0x60a060405234801561001057600080fd5b506040516144cc3803806144cc83398101604081905261002f91610418565b80808686868633610048816100426100de565b90610112565b50610051610188565b61007b8161005d61019f565b9081546001600160a01b0319166001600160a01b0391909116179055565b506100846101cd565b61009a8383836100926101e2565b929190610210565b6100a2610253565b506100ae915050610268565b6100b661027d565b6100be610292565b6100c66102a7565b6001600160a01b031660805250610622945050505050565b60008061010c60017fc9ed16f33ab3a66c84bfd83099ccb2a8845871e2e1c1928f63797152f0fd54cd6104b7565b92915050565b6001600160a01b038116156101685781546001600160a01b0319166001600160a01b03821690811783556040516000907f8be0079c531659141344cd1fd0a4f28419497f9722a3daafe3b4186f6b6457e0908290a35b6101846307f5828d60e41b600161017d6102b8565b91906102e6565b5050565b61019d6380ac58cd60e01b600161017d6102b8565b565b60008061010c60017f609b85bcafa81ecfaf3ff62cdde2c6c9082a68dbe4922f07399c706bdeb7cd316104b7565b61019d63f3993d1160e01b600161017d6102b8565b60008061010c60017f7ea68fd2dcf1c056b94db6a0a537aa80d26fa9ab1eacd85da1ba0b61b7e7a8a56104b7565b8361021b8482610563565b506001840161022a8382610563565b5060029390930180546001600160a01b0319166001600160a01b03909416939093179092555050565b61019d635b5e139f60e01b600161017d6102b8565b61019d638e773e1360e01b600161017d6102b8565b61019d634ed2f41960e11b600161017d6102b8565b61019d638b8b4ef560e01b600161017d6102b8565b61019d63152a902d60e11b600161017d5b60008061010c60017fca9d3e17f264b0f3984e2634e94adb37fa3e6a8103f06aeae6fa59e21c769f5e6104b7565b600160e01b6001600160e01b0319831601610314576040516372c683bb60e01b815260040160405180910390fd5b6001600160e01b03199190911660009081526020929092526040909120805460ff1916911515919091179055565b634e487b7160e01b600052604160045260246000fd5b600082601f83011261036957600080fd5b81516001600160401b038082111561038357610383610342565b604051601f8301601f19908116603f011681019082821181831017156103ab576103ab610342565b81604052838152602092508660208588010111156103c857600080fd5b600091505b838210156103ea57858201830151818301840152908201906103cd565b6000602085830101528094505050505092915050565b6001600160a01b038116811461041557600080fd5b50565b600080600080600060a0868803121561043057600080fd5b85516001600160401b038082111561044757600080fd5b61045389838a01610358565b9650602088015191508082111561046957600080fd5b5061047688828901610358565b945050604086015161048781610400565b606087015190935061049881610400565b60808701519092506104a981610400565b809150509295509295909350565b8181038181111561010c57634e487b7160e01b600052601160045260246000fd5b600181811c908216806104ec57607f821691505b60208210810361050c57634e487b7160e01b600052602260045260246000fd5b50919050565b601f82111561055e576000816000526020600020601f850160051c8101602086101561053b5750805b601f850160051c820191505b8181101561055a57828155600101610547565b5050505b505050565b81516001600160401b0381111561057c5761057c610342565b6105908161058a84546104d8565b84610512565b602080601f8311600181146105c557600084156105ad5750858301515b600019600386901b1c1916600185901b17855561055a565b600085815260208120601f198616915b828110156105f4578886015182559484019460019091019084016105d5565b50858210156106125787850151600019600388901b60f8161c191681555b5050505050600190811b01905550565b608051613e7a610652600039600081816103a301528181610423015281816131b901526132470152613e7a6000f3fe608060405234801561001057600080fd5b50600436106102ad5760003560e01c80638bb9c5bf1161017b578063c3666c36116100d8578063e985e9c51161008c578063f2fde38b11610071578063f2fde38b14610602578063f3993d1114610615578063f7ba94bd1461062857600080fd5b8063e985e9c5146105dc578063f2472965146105ef57600080fd5b8063d5391393116100bd578063d539139314610598578063d547741f146105bf578063e1a8bf2c146105d257600080fd5b8063c3666c3614610572578063c87b56dd1461058557600080fd5b80639da5e8321161012f578063a22cb46511610114578063a22cb46514610544578063b0ccc31e14610557578063b88d4fde1461055f57600080fd5b80639da5e83214610529578063a0c76f621461053c57600080fd5b80638dc251e3116101605780638dc251e3146104fb57806391d148541461050e57806395d89b411461052157600080fd5b80638bb9c5bf146104e05780638da5cb5b146104f357600080fd5b806340c10f19116102295780636352211e116101dd57806373c8a958116101c257806373c8a958146104a757806379cc6790146104ba5780638832e6e3146104cd57600080fd5b80636352211e1461047357806370a082311461048657600080fd5b80634684d7e91161020e5780634684d7e914610400578063572b6c051461041357806361ba27da1461046057600080fd5b806340c10f19146103da57806342842e0e146103ed57600080fd5b8063114ba8ee116102805780632a55205a116102655780632a55205a146103625780632b4c9f16146103a15780632f2ff15d146103c757600080fd5b8063114ba8ee1461033c57806323b872dd1461034f57600080fd5b806301ffc9a7146102b257806306fdde03146102da578063081812fc146102ef578063095ea7b314610327575b600080fd5b6102c56102c0366004613682565b61063b565b60405190151581526020015b60405180910390f35b6102e2610655565b6040516102d1919061370d565b6103026102fd366004613720565b610664565b60405173ffffffffffffffffffffffffffffffffffffffff90911681526020016102d1565b61033a61033536600461375b565b610678565b005b61033a61034a366004613787565b6106c7565b61033a61035d3660046137a4565b610732565b6103756103703660046137e5565b610770565b6040805173ffffffffffffffffffffffffffffffffffffffff90931683526020830191909152016102d1565b7f0000000000000000000000000000000000000000000000000000000000000000610302565b61033a6103d5366004613807565b610793565b61033a6103e836600461375b565b6107c6565b61033a6103fb3660046137a4565b610815565b61033a61040e36600461387c565b610846565b6102c5610421366004613787565b7f000000000000000000000000000000000000000000000000000000000000000073ffffffffffffffffffffffffffffffffffffffff90811691161490565b61033a61046e366004613720565b6108ba565b610302610481366004613720565b6108d7565b610499610494366004613787565b6108eb565b6040519081526020016102d1565b61033a6104b53660046138d1565b6108ff565b61033a6104c836600461375b565b6109f5565b61033a6104db3660046139ad565b610a12565b61033a6104ee366004613720565b610a94565b610302610aaf565b61033a610509366004613787565b610ad6565b6102c561051c366004613807565b610af3565b6102e2610b3e565b61033a610537366004613a09565b610b48565b610302610bec565b61033a610552366004613a77565b610c16565b610302610c45565b61033a61056d366004613aa5565b610c52565b61033a6105803660046138d1565b610c8f565b6102e2610593366004613720565b610f35565b6104997f6d696e746572000000000000000000000000000000000000000000000000000081565b61033a6105cd366004613807565b610f58565b610499620186a081565b6102c56105ea366004613b18565b610f86565b61033a6105fd36600461387c565b610fd4565b61033a610610366004613787565b610ff3565b61033a610623366004613b46565b61100e565b61033a610636366004613a09565b611048565b600061064f826106496110ff565b9061112d565b92915050565b606061065f611207565b905090565b600061064f82610672611219565b90611247565b73ffffffffffffffffffffffffffffffffffffffff8216156106a6576106a6826106a06112fb565b90611329565b6106c36106b1611333565b83836106bb611219565b92919061133d565b5050565b6106e06106d2611333565b6106da6115b8565b906115e6565b61072f816106ec6112fb565b9081547fffffffffffffffffffffffff00000000000000000000000000000000000000001673ffffffffffffffffffffffffffffffffffffffff91909116179055565b50565b600061073c611333565b9050610752818561074b6112fb565b9190611693565b61076a81858585610761611219565b939291906116d0565b50505050565b60008061078784846107806119ae565b91906119dc565b915091505b9250929050565b600061079d611333565b90506107ab816106da6115b8565b6107c18383836107b9611a86565b929190611ab4565b505050565b6108017f6d696e74657200000000000000000000000000000000000000000000000000006107f2611333565b6107fa611a86565b9190611b8a565b6106c3828261080e611219565b9190611c10565b600061081f611333565b905061082e818561074b6112fb565b61076a8185858561083d611219565b93929190611d2a565b6108727f6d696e74657200000000000000000000000000000000000000000000000000006107f2611333565b6107c1838383808060200260200160405190810160405280939291908181526020018383602002808284376000920191909152506108b39250611219915050565b9190611d70565b6108c56106d2611333565b61072f816108d16119ae565b90611ee8565b600061064f826108e5611219565b90611f6e565b600061064f826108f9611219565b90611fd7565b61090a6106d2611333565b84838114158061091a5750808214155b15610951576040517f6582533600000000000000000000000000000000000000000000000000000000815260040160405180910390fd5b60005b818110156109eb576109e388888381811061097157610971613b9f565b90506020020160208101906109869190613787565b85858481811061099857610998613b9f565b905060200201358888858181106109b1576109b1613b9f565b90506020020160208101906109c69190613787565b73ffffffffffffffffffffffffffffffffffffffff169190612053565b600101610954565b5050505050505050565b6106c3610a00611333565b8383610a0a611219565b9291906120e0565b610a3e7f6d696e74657200000000000000000000000000000000000000000000000000006107f2611333565b61076a610a49611333565b858585858080601f016020809104026020016040519081016040528093929190818152602001838380828437600092019190915250610a8b9250611219915050565b9392919061232a565b61072f610a9f611333565b82610aa8611a86565b9190612360565b600061065f610abc6115b8565b5473ffffffffffffffffffffffffffffffffffffffff1690565b610ae16106d2611333565b61072f81610aed6119ae565b90612404565b6000610b378383610b02611a86565b60009283526020908152604080842073ffffffffffffffffffffffffffffffffffffffff909316845291905290205460ff1690565b9392505050565b606061065f612451565b610b747f6d696e74657200000000000000000000000000000000000000000000000000006107f2611333565b61076a84848080602002602001604051908101604052809392919081815260200183836020028082843760009201919091525050604080516020808802828101820190935287825290935087925086918291850190849080828437600092019190915250610be59250611219915050565b9190612463565b600061065f610bf96124f9565b6002015473ffffffffffffffffffffffffffffffffffffffff1690565b8015610c2857610c28826106a06112fb565b6106c3610c33611333565b8383610c3d611219565b929190612527565b600061065f610abc6112fb565b6000610c5c611333565b9050610c6b818761074b6112fb565b610c87818787878787610c7c611219565b95949392919061263f565b505050505050565b610c9a6106d2611333565b848381141580610caa5750808214155b15610ce1576040517f6582533600000000000000000000000000000000000000000000000000000000815260040160405180910390fd5b60005b818110156109eb576000868683818110610d0057610d00613b9f565b9050602002016020810190610d159190613787565b6040517f01ffc9a70000000000000000000000000000000000000000000000000000000081527f80ac58cd00000000000000000000000000000000000000000000000000000000600482015290915073ffffffffffffffffffffffffffffffffffffffff8216906301ffc9a790602401602060405180830381865afa158015610da2573d6000803e3d6000fd5b505050506040513d601f19601f82011682018060405250810190610dc69190613bce565b610e19576040517f986b9f1f00000000000000000000000000000000000000000000000000000000815273ffffffffffffffffffffffffffffffffffffffff821660048201526024015b60405180910390fd5b868683818110610e2b57610e2b613b9f565b9050602002016020810190610e409190613787565b73ffffffffffffffffffffffffffffffffffffffff166342842e0e308b8b86818110610e6e57610e6e613b9f565b9050602002016020810190610e839190613787565b888887818110610e9557610e95613b9f565b6040517fffffffff0000000000000000000000000000000000000000000000000000000060e088901b16815273ffffffffffffffffffffffffffffffffffffffff958616600482015294909316602485015250602090910201356044820152606401600060405180830381600087803b158015610f1157600080fd5b505af1158015610f25573d6000803e3d6000fd5b5050505050806001019050610ce4565b6060610f43826108e5611219565b5061064f3083610f516124f9565b91906126b5565b6000610f62611333565b9050610f70816106da6115b8565b6107c1838383610f7e611a86565b929190612775565b6000610b378383610f95611219565b919073ffffffffffffffffffffffffffffffffffffffff9182166000908152600393909301602090815260408085209290931684525290205460ff1690565b6107c1610fdf611333565b848484610fea611219565b9392919061283f565b61072f610ffe611333565b826110076115b8565b9190612aca565b6000611018611333565b9050611027818661074b6112fb565b6110418186868686611037611219565b9493929190612bde565b5050505050565b6110536106d2611333565b8281811461108d576040517f6582533600000000000000000000000000000000000000000000000000000000815260040160405180910390fd5b60005b81811015610c87576110f78484838181106110ad576110ad613b9f565b905060200201358787848181106110c6576110c6613b9f565b90506020020160208101906110db9190613787565b73ffffffffffffffffffffffffffffffffffffffff1690612ee3565b600101611090565b60008061064f60017fca9d3e17f264b0f3984e2634e94adb37fa3e6a8103f06aeae6fa59e21c769f5e613c1a565b60007c01000000000000000000000000000000000000000000000000000000007fffffffff0000000000000000000000000000000000000000000000000000000083160161117d5750600061064f565b7ffe003659000000000000000000000000000000000000000000000000000000007fffffffff000000000000000000000000000000000000000000000000000000008316016111ce5750600161064f565b507fffffffff00000000000000000000000000000000000000000000000000000000166000908152602091909152604090205460ff1690565b606061065f6112146124f9565b612fb9565b60008061064f60017fddf3ee18ae6d688373c219468f8be446e7ae82215f4779d821c7ea5e8c13c0c1613c1a565b60008181526020839052604081205473ffffffffffffffffffffffffffffffffffffffff81166112a6576040517fdd56047500000000000000000000000000000000000000000000000000000000815260048101849052602401610e10565b740100000000000000000000000000000000000000008116156112f1575050600081815260028301602052604090205473ffffffffffffffffffffffffffffffffffffffff1661064f565b600091505061064f565b60008061064f60017f609b85bcafa81ecfaf3ff62cdde2c6c9082a68dbe4922f07399c706bdeb7cd31613c1a565b6106c3828261304f565b600061065f613176565b60008181526020859052604090205473ffffffffffffffffffffffffffffffffffffffff811661139c576040517fdd56047500000000000000000000000000000000000000000000000000000000815260048101839052602401610e10565b8073ffffffffffffffffffffffffffffffffffffffff80821690851603611407576040517fb7fdc01000000000000000000000000000000000000000000000000000000000815273ffffffffffffffffffffffffffffffffffffffff82166004820152602401610e10565b6114128682876132c3565b61146f576040517fc7563a1800000000000000000000000000000000000000000000000000000000815273ffffffffffffffffffffffffffffffffffffffff80871660048301528216602482015260448101849052606401610e10565b73ffffffffffffffffffffffffffffffffffffffff84166114d457740100000000000000000000000000000000000000008216156114cf57600083815260208790526040902073ffffffffffffffffffffffffffffffffffffffff821690555b611555565b7401000000000000000000000000000000000000000082178083146115055760008481526020889052604090208190555b506000838152600287016020526040902080547fffffffffffffffffffffffff00000000000000000000000000000000000000001673ffffffffffffffffffffffffffffffffffffffff86161790555b828473ffffffffffffffffffffffffffffffffffffffff168273ffffffffffffffffffffffffffffffffffffffff167f8c5be1e5ebec7d5bd14f71427d1e84f3dd0314c0f7b2291e5b200ac8c7c3b92560405160405180910390a4505050505050565b60008061064f60017fc9ed16f33ab3a66c84bfd83099ccb2a8845871e2e1c1928f63797152f0fd54cd613c1a565b815473ffffffffffffffffffffffffffffffffffffffff8281169116146106c3576040517f2ef4875e00000000000000000000000000000000000000000000000000000000815273ffffffffffffffffffffffffffffffffffffffff82166004820152602401610e10565b81547fffffffffffffffffffffffff00000000000000000000000000000000000000001673ffffffffffffffffffffffffffffffffffffffff91909116179055565b8073ffffffffffffffffffffffffffffffffffffffff168273ffffffffffffffffffffffffffffffffffffffff16146107c1576107c1838361304f565b73ffffffffffffffffffffffffffffffffffffffff821661171d576040517f86c8706700000000000000000000000000000000000000000000000000000000815260040160405180910390fd5b60008181526020869052604090205473ffffffffffffffffffffffffffffffffffffffff811661177c576040517fdd56047500000000000000000000000000000000000000000000000000000000815260048101839052602401610e10565b73ffffffffffffffffffffffffffffffffffffffff84168173ffffffffffffffffffffffffffffffffffffffff1614611800576040517f14dbb53600000000000000000000000000000000000000000000000000000000815273ffffffffffffffffffffffffffffffffffffffff8516600482015260248101839052604401610e10565b61180b8685876132c3565b6118ba57740100000000000000000000000000000000000000008116158061185c5750600082815260028701602052604090205473ffffffffffffffffffffffffffffffffffffffff868116911614155b156118ba576040517fa4a3018b00000000000000000000000000000000000000000000000000000000815273ffffffffffffffffffffffffffffffffffffffff80871660048301528516602482015260448101839052606401610e10565b600082815260208790526040902073ffffffffffffffffffffffffffffffffffffffff8085169182905585161461194b5773ffffffffffffffffffffffffffffffffffffffff80851660009081526001808901602052604080832080547fffffffffffffffffffffffffffffffffffffffffffffffffffffffffffffffff0190559286168252919020805490910190555b818373ffffffffffffffffffffffffffffffffffffffff168573ffffffffffffffffffffffffffffffffffffffff167fddf252ad1be2c89b69c2b068fc378daa952ba7f163c4a11628f55a4df523b3ef60405160405180910390a4505050505050565b60008061064f60017f2c0cf10337caabbd02dcf226f05f5fd19a0919a41a8df8958c39b80007826858613c1a565b825473ffffffffffffffffffffffffffffffffffffffff8116906000907401000000000000000000000000000000000000000090046bffffffffffffffffffffffff16831580611a2a575080155b15611a385760009150611a7d565b620186a0841015611a6257620186a0611a518286613c2d565b611a5b9190613c44565b9150611a7d565b80611a70620186a086613c44565b611a7a9190613c2d565b91505b50935093915050565b60008061064f60017fc8827d3282af6f37b64c3e9e6f3ac9df286ab0bb0fccd6f8661bf19adb368b23613c1a565b60008381526020858152604080832073ffffffffffffffffffffffffffffffffffffffff8616845290915290205460ff1661076a5760008381526020858152604080832073ffffffffffffffffffffffffffffffffffffffff8681168086529184529382902080547fffffffffffffffffffffffffffffffffffffffffffffffffffffffffffffff00166001179055815187815292830152918316918101919091527f2f8788117e7eff1d82e926ec794901d17c78024a50270940304540a733656f0d906060015b60405180910390a150505050565b60008281526020848152604080832073ffffffffffffffffffffffffffffffffffffffff8516845290915290205460ff166107c1576040517f7aa728820000000000000000000000000000000000000000000000000000000081526004810183905273ffffffffffffffffffffffffffffffffffffffff82166024820152604401610e10565b73ffffffffffffffffffffffffffffffffffffffff8216611c5d576040517f7851b9cd00000000000000000000000000000000000000000000000000000000815260040160405180910390fd5b60008181526020849052604090205473ffffffffffffffffffffffffffffffffffffffff1615611cbc576040517f753eceac00000000000000000000000000000000000000000000000000000000815260048101829052602401610e10565b60008181526020848152604080832073ffffffffffffffffffffffffffffffffffffffff86169081905580845260018088019093528184208054909301909255518392907fddf252ad1be2c89b69c2b068fc378daa952ba7f163c4a11628f55a4df523b3ef908290a4505050565b611d3785858585856116d0565b73ffffffffffffffffffffffffffffffffffffffff82163b15611041576110418484848460405180602001604052806000815250613338565b73ffffffffffffffffffffffffffffffffffffffff8216611dbd576040517f7851b9cd00000000000000000000000000000000000000000000000000000000815260040160405180910390fd5b805160005b81811015611eb3576000838281518110611dde57611dde613b9f565b60200260200101519050611e1c8660000160008381526020019081526020016000205473ffffffffffffffffffffffffffffffffffffffff16151590565b15611e56576040517f753eceac00000000000000000000000000000000000000000000000000000000815260048101829052602401610e10565b60008181526020879052604080822073ffffffffffffffffffffffffffffffffffffffff88169081905590518392907fddf252ad1be2c89b69c2b068fc378daa952ba7f163c4a11628f55a4df523b3ef908290a450600101611dc2565b5073ffffffffffffffffffffffffffffffffffffffff9092166000908152600190930160205250604090912080549091019055565b620186a0811115611f28576040517fac04040800000000000000000000000000000000000000000000000000000000815260048101829052602401610e10565b81546bffffffffffffffffffffffff909116740100000000000000000000000000000000000000000273ffffffffffffffffffffffffffffffffffffffff909116179055565b60008181526020839052604081205473ffffffffffffffffffffffffffffffffffffffff8116611fcd576040517fdd56047500000000000000000000000000000000000000000000000000000000815260048101849052602401610e10565b805b949350505050565b600073ffffffffffffffffffffffffffffffffffffffff8216612026576040517faefbce4e00000000000000000000000000000000000000000000000000000000815260040160405180910390fd5b5073ffffffffffffffffffffffffffffffffffffffff166000908152600191909101602052604090205490565b6040805173ffffffffffffffffffffffffffffffffffffffff8416602482015260448082018490528251808303909101815260649091019091526020810180517bffffffffffffffffffffffffffffffffffffffffffffffffffffffff167fa9059cbb000000000000000000000000000000000000000000000000000000001790526107c190849061344d565b60008181526020859052604090205473ffffffffffffffffffffffffffffffffffffffff811661213f576040517fdd56047500000000000000000000000000000000000000000000000000000000815260048101839052602401610e10565b73ffffffffffffffffffffffffffffffffffffffff83168173ffffffffffffffffffffffffffffffffffffffff16146121c3576040517f14dbb53600000000000000000000000000000000000000000000000000000000815273ffffffffffffffffffffffffffffffffffffffff8416600482015260248101839052604401610e10565b6121ce8584866132c3565b61227d57740100000000000000000000000000000000000000008116158061221f5750600082815260028601602052604090205473ffffffffffffffffffffffffffffffffffffffff858116911614155b1561227d576040517fa4a3018b00000000000000000000000000000000000000000000000000000000815273ffffffffffffffffffffffffffffffffffffffff80861660048301528416602482015260448101839052606401610e10565b6000828152602086815260408083207fdead000000000000000000000000000000000000000000000000000000000000905573ffffffffffffffffffffffffffffffffffffffff86168084526001890190925280832080547fffffffffffffffffffffffffffffffffffffffffffffffffffffffffffffffff01905551849291907fddf252ad1be2c89b69c2b068fc378daa952ba7f163c4a11628f55a4df523b3ef908390a45050505050565b612335858484611c10565b73ffffffffffffffffffffffffffffffffffffffff83163b1561104157611041846000858585613338565b61236b838284611b8a565b60008181526020848152604080832073ffffffffffffffffffffffffffffffffffffffff86168085529083529281902080547fffffffffffffffffffffffffffffffffffffffffffffffffffffffffffffff0016905580518481529182018390528101919091527ff6391f5c32d9c69d2a47ea670b442974b53935d1edc7fd64eb21e047a839171b9060600160405180910390a1505050565b73ffffffffffffffffffffffffffffffffffffffff8116611651576040517f16de0c8000000000000000000000000000000000000000000000000000000000815260040160405180910390fd5b606061065f61245e6124f9565b6134e3565b81518151811461249f576040517f6582533600000000000000000000000000000000000000000000000000000000815260040160405180910390fd5b60005b81811015611041576124f18482815181106124bf576124bf613b9f565b60200260200101518483815181106124d9576124d9613b9f565b602002602001015187611c109092919063ffffffff16565b6001016124a2565b60008061064f60017f7ea68fd2dcf1c056b94db6a0a537aa80d26fa9ab1eacd85da1ba0b61b7e7a8a5613c1a565b8273ffffffffffffffffffffffffffffffffffffffff168273ffffffffffffffffffffffffffffffffffffffff16036125a4576040517fe4215c6a00000000000000000000000000000000000000000000000000000000815273ffffffffffffffffffffffffffffffffffffffff84166004820152602401610e10565b73ffffffffffffffffffffffffffffffffffffffff838116600081815260038701602090815260408083209487168084529482529182902080547fffffffffffffffffffffffffffffffffffffffffffffffffffffffffffffff001686151590811790915591519182527f17307eab39ab6107e8899845ad3d59bd9653f200f220920489ca2b5937696c31910160405180910390a350505050565b61264c87878787876116d0565b73ffffffffffffffffffffffffffffffffffffffff84163b156126ac576126ac8686868686868080601f01602080910402602001604051908101604052809392919081815260200183838082843760009201919091525061333892505050565b50505050505050565b60028301546040517ff724dad700000000000000000000000000000000000000000000000000000000815273ffffffffffffffffffffffffffffffffffffffff848116600483015260248201849052606092169063f724dad790604401600060405180830381865afa15801561272f573d6000803e3d6000fd5b505050506040513d6000823e601f3d9081017fffffffffffffffffffffffffffffffffffffffffffffffffffffffffffffffe0168201604052611fcf9190810190613cae565b60008381526020858152604080832073ffffffffffffffffffffffffffffffffffffffff8616845290915290205460ff161561076a5760008381526020858152604080832073ffffffffffffffffffffffffffffffffffffffff8681168086529184529382902080547fffffffffffffffffffffffffffffffffffffffffffffffffffffffffffffff00169055815187815292830152918316918101919091527ff6391f5c32d9c69d2a47ea670b442974b53935d1edc7fd64eb21e047a839171b90606001611b7c565b600061284c8685876132c3565b90508160005b81811015612a8c57600085858381811061286e5761286e613b9f565b602090810292909201356000818152928c90526040909220549192505073ffffffffffffffffffffffffffffffffffffffff81166128db576040517fdd56047500000000000000000000000000000000000000000000000000000000815260048101839052602401610e10565b73ffffffffffffffffffffffffffffffffffffffff88168173ffffffffffffffffffffffffffffffffffffffff161461295f576040517f14dbb53600000000000000000000000000000000000000000000000000000000815273ffffffffffffffffffffffffffffffffffffffff8916600482015260248101839052604401610e10565b84612a0f5774010000000000000000000000000000000000000000811615806129b15750600082815260028b01602052604090205473ffffffffffffffffffffffffffffffffffffffff8a8116911614155b15612a0f576040517fa4a3018b00000000000000000000000000000000000000000000000000000000815273ffffffffffffffffffffffffffffffffffffffff808b1660048301528916602482015260448101839052606401610e10565b600082815260208b905260408082207fdead00000000000000000000000000000000000000000000000000000000000090555183919073ffffffffffffffffffffffffffffffffffffffff8b16907fddf252ad1be2c89b69c2b068fc378daa952ba7f163c4a11628f55a4df523b3ef908390a45050600101612852565b5080156126ac5773ffffffffffffffffffffffffffffffffffffffff8516600090815260018801602052604090208054829003905550505050505050565b825473ffffffffffffffffffffffffffffffffffffffff9081169083168114612b37576040517f2ef4875e00000000000000000000000000000000000000000000000000000000815273ffffffffffffffffffffffffffffffffffffffff84166004820152602401610e10565b8173ffffffffffffffffffffffffffffffffffffffff168173ffffffffffffffffffffffffffffffffffffffff161461076a5783547fffffffffffffffffffffffff00000000000000000000000000000000000000001673ffffffffffffffffffffffffffffffffffffffff8381169182178655604051908316907f8be0079c531659141344cd1fd0a4f28419497f9722a3daafe3b4186f6b6457e090600090a350505050565b73ffffffffffffffffffffffffffffffffffffffff8316612c2b576040517f86c8706700000000000000000000000000000000000000000000000000000000815260040160405180910390fd5b6000612c388786886132c3565b90508160005b81811015612e5c576000858583818110612c5a57612c5a613b9f565b602090810292909201356000818152928d90526040909220549192505073ffffffffffffffffffffffffffffffffffffffff8116612cc7576040517fdd56047500000000000000000000000000000000000000000000000000000000815260048101839052602401610e10565b73ffffffffffffffffffffffffffffffffffffffff89168173ffffffffffffffffffffffffffffffffffffffff1614612d4b576040517f14dbb53600000000000000000000000000000000000000000000000000000000815273ffffffffffffffffffffffffffffffffffffffff8a16600482015260248101839052604401610e10565b84612dfb577401000000000000000000000000000000000000000081161580612d9d5750600082815260028c01602052604090205473ffffffffffffffffffffffffffffffffffffffff8b8116911614155b15612dfb576040517fa4a3018b00000000000000000000000000000000000000000000000000000000815273ffffffffffffffffffffffffffffffffffffffff808c1660048301528a16602482015260448101839052606401610e10565b600082815260208c9052604080822073ffffffffffffffffffffffffffffffffffffffff808c16918290559151859391928d16917fddf252ad1be2c89b69c2b068fc378daa952ba7f163c4a11628f55a4df523b3ef91a45050600101612c3e565b508473ffffffffffffffffffffffffffffffffffffffff168673ffffffffffffffffffffffffffffffffffffffff1614158015612e9857508015155b156109eb5773ffffffffffffffffffffffffffffffffffffffff808716600090815260018a016020526040808220805485900390559187168152208054820190555050505050505050565b80471015612f1f576040517fcd786059000000000000000000000000000000000000000000000000000000008152306004820152602401610e10565b60008273ffffffffffffffffffffffffffffffffffffffff168260405160006040518083038185875af1925050503d8060008114612f79576040519150601f19603f3d011682016040523d82523d6000602084013e612f7e565b606091505b50509050806107c1576040517f1425ea4200000000000000000000000000000000000000000000000000000000815260040160405180910390fd5b6060816000018054612fca90613d79565b80601f0160208091040260200160405190810160405280929190818152602001828054612ff690613d79565b80156130435780601f1061301857610100808354040283529160200191613043565b820191906000526020600020905b81548152906001019060200180831161302657829003601f168201915b50505050509050919050565b815473ffffffffffffffffffffffffffffffffffffffff16801580159061308d575060008173ffffffffffffffffffffffffffffffffffffffff163b115b156107c1576040517fc617113400000000000000000000000000000000000000000000000000000000815230600482015273ffffffffffffffffffffffffffffffffffffffff838116602483015282169063c617113490604401602060405180830381865afa158015613104573d6000803e3d6000fd5b505050506040513d601f19601f820116820180604052508101906131289190613bce565b6107c1576040517fede71dcc00000000000000000000000000000000000000000000000000000000815273ffffffffffffffffffffffffffffffffffffffff83166004820152602401610e10565b6000333214806131865750601836105b1561319057503390565b7fffffffffffffffffffffffffffffffffffffffffffffffffffffffffffffffec36013560601c7f000000000000000000000000000000000000000000000000000000000000000073ffffffffffffffffffffffffffffffffffffffff163314806132b257506040517f019a202800000000000000000000000000000000000000000000000000000000815273ffffffffffffffffffffffffffffffffffffffff82811660048301523360248301523060448301527f0000000000000000000000000000000000000000000000000000000000000000169063019a202890606401602060405180830381865afa15801561328e573d6000803e3d6000fd5b505050506040513d601f19601f820116820180604052508101906132b29190613bce565b156132bc57919050565b3391505090565b60008173ffffffffffffffffffffffffffffffffffffffff168373ffffffffffffffffffffffffffffffffffffffff161480611fcf57505073ffffffffffffffffffffffffffffffffffffffff9182166000908152600393909301602090815260408085209290931684525290205460ff1690565b6040517f150b7a02000000000000000000000000000000000000000000000000000000008082529073ffffffffffffffffffffffffffffffffffffffff85169063150b7a0290613392908990899088908890600401613dcc565b6020604051808303816000875af11580156133b1573d6000803e3d6000fd5b505050506040513d601f19601f820116820180604052508101906133d59190613e0b565b7fffffffff000000000000000000000000000000000000000000000000000000001614611041576040517fc215a7a100000000000000000000000000000000000000000000000000000000815273ffffffffffffffffffffffffffffffffffffffff8416600482015260248101839052604401610e10565b600061346f73ffffffffffffffffffffffffffffffffffffffff8416836134f4565b905080516000141580156134945750808060200190518101906134929190613bce565b155b156107c1576040517f5274afe700000000000000000000000000000000000000000000000000000000815273ffffffffffffffffffffffffffffffffffffffff84166004820152602401610e10565b6060816001018054612fca90613d79565b6060610b3783836000846000808573ffffffffffffffffffffffffffffffffffffffff1684866040516135279190613e28565b60006040518083038185875af1925050503d8060008114613564576040519150601f19603f3d011682016040523d82523d6000602084013e613569565b606091505b5091509150613579868383613583565b9695505050505050565b6060826135985761359382613612565b610b37565b81511580156135bc575073ffffffffffffffffffffffffffffffffffffffff84163b155b1561360b576040517f9996b31500000000000000000000000000000000000000000000000000000000815273ffffffffffffffffffffffffffffffffffffffff85166004820152602401610e10565b5080610b37565b8051156136225780518082602001fd5b6040517f1425ea4200000000000000000000000000000000000000000000000000000000815260040160405180910390fd5b7fffffffff000000000000000000000000000000000000000000000000000000008116811461072f57600080fd5b60006020828403121561369457600080fd5b8135610b3781613654565b60005b838110156136ba5781810151838201526020016136a2565b50506000910152565b600081518084526136db81602086016020860161369f565b601f017fffffffffffffffffffffffffffffffffffffffffffffffffffffffffffffffe0169290920160200192915050565b602081526000610b3760208301846136c3565b60006020828403121561373257600080fd5b5035919050565b73ffffffffffffffffffffffffffffffffffffffff8116811461072f57600080fd5b6000806040838503121561376e57600080fd5b823561377981613739565b946020939093013593505050565b60006020828403121561379957600080fd5b8135610b3781613739565b6000806000606084860312156137b957600080fd5b83356137c481613739565b925060208401356137d481613739565b929592945050506040919091013590565b600080604083850312156137f857600080fd5b50508035926020909101359150565b6000806040838503121561381a57600080fd5b82359150602083013561382c81613739565b809150509250929050565b60008083601f84011261384957600080fd5b50813567ffffffffffffffff81111561386157600080fd5b6020830191508360208260051b850101111561078c57600080fd5b60008060006040848603121561389157600080fd5b833561389c81613739565b9250602084013567ffffffffffffffff8111156138b857600080fd5b6138c486828701613837565b9497909650939450505050565b600080600080600080606087890312156138ea57600080fd5b863567ffffffffffffffff8082111561390257600080fd5b61390e8a838b01613837565b9098509650602089013591508082111561392757600080fd5b6139338a838b01613837565b9096509450604089013591508082111561394c57600080fd5b5061395989828a01613837565b979a9699509497509295939492505050565b60008083601f84011261397d57600080fd5b50813567ffffffffffffffff81111561399557600080fd5b60208301915083602082850101111561078c57600080fd5b600080600080606085870312156139c357600080fd5b84356139ce81613739565b935060208501359250604085013567ffffffffffffffff8111156139f157600080fd5b6139fd8782880161396b565b95989497509550505050565b60008060008060408587031215613a1f57600080fd5b843567ffffffffffffffff80821115613a3757600080fd5b613a4388838901613837565b90965094506020870135915080821115613a5c57600080fd5b506139fd87828801613837565b801515811461072f57600080fd5b60008060408385031215613a8a57600080fd5b8235613a9581613739565b9150602083013561382c81613a69565b600080600080600060808688031215613abd57600080fd5b8535613ac881613739565b94506020860135613ad881613739565b935060408601359250606086013567ffffffffffffffff811115613afb57600080fd5b613b078882890161396b565b969995985093965092949392505050565b60008060408385031215613b2b57600080fd5b8235613b3681613739565b9150602083013561382c81613739565b60008060008060608587031215613b5c57600080fd5b8435613b6781613739565b93506020850135613b7781613739565b9250604085013567ffffffffffffffff811115613b9357600080fd5b6139fd87828801613837565b7f4e487b7100000000000000000000000000000000000000000000000000000000600052603260045260246000fd5b600060208284031215613be057600080fd5b8151610b3781613a69565b7f4e487b7100000000000000000000000000000000000000000000000000000000600052601160045260246000fd5b8181038181111561064f5761064f613beb565b808202811582820484141761064f5761064f613beb565b600082613c7a577f4e487b7100000000000000000000000000000000000000000000000000000000600052601260045260246000fd5b500490565b7f4e487b7100000000000000000000000000000000000000000000000000000000600052604160045260246000fd5b600060208284031215613cc057600080fd5b815167ffffffffffffffff80821115613cd857600080fd5b818401915084601f830112613cec57600080fd5b815181811115613cfe57613cfe613c7f565b604051601f82017fffffffffffffffffffffffffffffffffffffffffffffffffffffffffffffffe0908116603f01168101908382118183101715613d4457613d44613c7f565b81604052828152876020848701011115613d5d57600080fd5b613d6e83602083016020880161369f565b979650505050505050565b600181811c90821680613d8d57607f821691505b602082108103613dc6577f4e487b7100000000000000000000000000000000000000000000000000000000600052602260045260246000fd5b50919050565b600073ffffffffffffffffffffffffffffffffffffffff80871683528086166020840152508360408301526080606083015261357960808301846136c3565b600060208284031215613e1d57600080fd5b8151610b3781613654565b60008251613e3a81846020870161369f565b919091019291505056fea2646970667358221220c217c2713769696ad924fb4e29be4de060aa989a0fa43172a91034506818928064736f6c63430008190033",
  "linkReferences": {},
  "deployedLinkReferences": {}
}