{
  "_format": "hh-sol-artifact-1",
  "contractName": "ERC721BurnableFacetMock",
  "sourceName": "contracts/mocks/token/ERC721/ERC721BurnableFacetMock.sol",
  "abi": [
    {
      "inputs": [
        {
          "internalType": "contract IForwarderRegistry",
          "name": "forwarderRegistry",
          "type": "address"
        }
      ],
      "stateMutability": "nonpayable",
      "type": "constructor"
    },
    {
      "inputs": [],
      "name": "__msgData",
      "outputs": [
        {
          "internalType": "bytes",
          "name": "",
          "type": "bytes"
        }
      ],
      "stateMutability": "view",
      "type": "function"
    },
    {
      "inputs": [
        {
          "internalType": "address",
          "name": "from",
          "type": "address"
        },
        {
          "internalType": "uint256[]",
          "name": "tokenIds",
          "type": "uint256[]"
        }
      ],
      "name": "batchBurnFrom",
      "outputs": [],
      "stateMutability": "nonpayable",
      "type": "function"
    },
    {
      "inputs": [
        {
          "internalType": "address",
          "name": "from",
          "type": "address"
        },
        {
          "internalType": "uint256",
          "name": "tokenId",
          "type": "uint256"
        }
      ],
      "name": "burnFrom",
      "outputs": [],
      "stateMutability": "nonpayable",
      "type": "function"
    },
    {
      "inputs": [],
      "name": "initERC721BurnableStorage",
      "outputs": [],
      "stateMutability": "nonpayable",
      "type": "function"
    }
  ],
  "bytecode": "0x60a060405234801561001057600080fd5b50604051610db1380380610db183398101604081905261002f91610040565b6001600160a01b0316608052610070565b60006020828403121561005257600080fd5b81516001600160a01b038116811461006957600080fd5b9392505050565b608051610d116100a0600039600081816104d00152818161053a0152818161067801526107180152610d116000f3fe608060405234801561001057600080fd5b506004361061004c5760003560e01c806331e66e1e1461005157806379cc679014610070578063de81581114610085578063f24729651461008d575b600080fd5b6100596100a0565b6040516100679291906109e8565b60405180910390f35b61008361007e366004610a5e565b6100b3565b005b6100836100d4565b61008361009b366004610ab7565b610124565b3660006100ab610141565b915091509091565b6100d06100be61014c565b83836100c861015b565b92919061018f565b5050565b6100ed6100df61014c565b6100e76101f9565b90610227565b6101227f8b8b4ef500000000000000000000000000000000000000000000000000000000600161011b6102af565b91906102dd565b565b6100d061012f61014c565b838361013961015b565b9291906103cd565b3660006100ab6104b8565b600061015661063c565b905090565b60008061018960017fddf3ee18ae6d688373c219468f8be446e7ae82215f4779d821c7ea5e8c13c0c1610bd5565b92915050565b600061019c858486610794565b90506101ad85858585856000610808565b604051829060009073ffffffffffffffffffffffffffffffffffffffff8616907fddf252ad1be2c89b69c2b068fc378daa952ba7f163c4a11628f55a4df523b3ef908390a45050505050565b60008061018960017fb53127684a568b3173ae13b9f8a6016e243e63b6e8ee1178d6a717850b5d6104610bd5565b815473ffffffffffffffffffffffffffffffffffffffff8281169116146100d0576040517f08c379a000000000000000000000000000000000000000000000000000000000815260206004820152601960248201527f50726f787941646d696e3a206e6f74207468652061646d696e0000000000000060448201526064015b60405180910390fd5b60008061018960017f7180ffa89c91cf90d6c56dacabfc69bc5e36f3099d7eed2f5cc12c5dba016fe0610bd5565b7fffffffff000000000000000000000000000000000000000000000000000000008083169003610369576040517f08c379a000000000000000000000000000000000000000000000000000000000815260206004820152601f60248201527f496e74657266616365446574656374696f6e3a2077726f6e672076616c75650060448201526064016102a6565b7fffffffff00000000000000000000000000000000000000000000000000000000919091166000908152602092909252604090912080547fffffffffffffffffffffffffffffffffffffffffffffffffffffffffffffff0016911515919091179055565b60006103da858486610794565b825190915060005b81811461046c5760008482815181106103fd576103fd610bec565b6020026020010151905061041688888884886001610808565b604051819060009073ffffffffffffffffffffffffffffffffffffffff8916907fddf252ad1be2c89b69c2b068fc378daa952ba7f163c4a11628f55a4df523b3ef908390a45061046581610c1b565b90506103e2565b5080156104b05773ffffffffffffffffffffffffffffffffffffffff84166000908152600287016020526040812080548392906104aa908490610bd5565b90915550505b505050505050565b366000333281036104ce57506000923692509050565b7f000000000000000000000000000000000000000000000000000000000000000073ffffffffffffffffffffffffffffffffffffffff168173ffffffffffffffffffffffffffffffffffffffff16148061061b575073ffffffffffffffffffffffffffffffffffffffff7f00000000000000000000000000000000000000000000000000000000000000001663e60125d6367fffffffffffffffffffffffffffffffffffffffffffffffffffffffffffffffec013560601c6040517fffffffff0000000000000000000000000000000000000000000000000000000060e084901b16815273ffffffffffffffffffffffffffffffffffffffff91821660048201529084166024820152604401602060405180830381865afa1580156105f7573d6000803e3d6000fd5b505050506040513d601f19601f8201168201806040525081019061061b9190610c53565b15610631576106286109ca565b92509250509091565b506000923692509050565b60003332810361064b57919050565b6000367fffffffffffffffffffffffffffffffffffffffffffffffffffffffffffffffec013560601c90507f000000000000000000000000000000000000000000000000000000000000000073ffffffffffffffffffffffffffffffffffffffff168273ffffffffffffffffffffffffffffffffffffffff16148061078357506040517fe60125d600000000000000000000000000000000000000000000000000000000815273ffffffffffffffffffffffffffffffffffffffff828116600483015283811660248301527f0000000000000000000000000000000000000000000000000000000000000000169063e60125d690604401602060405180830381865afa15801561075f573d6000803e3d6000fd5b505050506040513d601f19601f820116820180604052508101906107839190610c53565b1561078e5792915050565b50919050565b60008173ffffffffffffffffffffffffffffffffffffffff168373ffffffffffffffffffffffffffffffffffffffff161480610800575073ffffffffffffffffffffffffffffffffffffffff8084166000908152602086815260408083209386168352929052205460ff165b949350505050565b600083815260018701602052604090205473ffffffffffffffffffffffffffffffffffffffff8581169082161461089b576040517f08c379a000000000000000000000000000000000000000000000000000000000815260206004820152601560248201527f4552433732313a206e6f6e2d6f776e6564204e4654000000000000000000000060448201526064016102a6565b8261095457740100000000000000000000000000000000000000008116158015906108ee5750600084815260038801602052604090205473ffffffffffffffffffffffffffffffffffffffff8781169116145b610954576040517f08c379a000000000000000000000000000000000000000000000000000000000815260206004820152601b60248201527f4552433732313a206e6f6e2d617070726f7665642073656e646572000000000060448201526064016102a6565b600084815260018801602052604090207fdead0000000000000000000000000000000000000000000000000000000000009055816109c15773ffffffffffffffffffffffffffffffffffffffff85166000908152600288016020526040812080549091906104aa90610c7c565b50505050505050565b3660008080836109db601482610bd5565b926100ab93929190610cb1565b60208152816020820152818360408301376000818301604090810191909152601f9092017fffffffffffffffffffffffffffffffffffffffffffffffffffffffffffffffe0160101919050565b803573ffffffffffffffffffffffffffffffffffffffff81168114610a5957600080fd5b919050565b60008060408385031215610a7157600080fd5b610a7a83610a35565b946020939093013593505050565b7f4e487b7100000000000000000000000000000000000000000000000000000000600052604160045260246000fd5b60008060408385031215610aca57600080fd5b610ad383610a35565b915060208084013567ffffffffffffffff80821115610af157600080fd5b818601915086601f830112610b0557600080fd5b813581811115610b1757610b17610a88565b8060051b6040517fffffffffffffffffffffffffffffffffffffffffffffffffffffffffffffffe0603f83011681018181108582111715610b5a57610b5a610a88565b604052918252848201925083810185019189831115610b7857600080fd5b938501935b82851015610b9657843584529385019392850192610b7d565b8096505050505050509250929050565b7f4e487b7100000000000000000000000000000000000000000000000000000000600052601160045260246000fd5b600082821015610be757610be7610ba6565b500390565b7f4e487b7100000000000000000000000000000000000000000000000000000000600052603260045260246000fd5b60007fffffffffffffffffffffffffffffffffffffffffffffffffffffffffffffffff8203610c4c57610c4c610ba6565b5060010190565b600060208284031215610c6557600080fd5b81518015158114610c7557600080fd5b9392505050565b600081610c8b57610c8b610ba6565b507fffffffffffffffffffffffffffffffffffffffffffffffffffffffffffffffff0190565b60008085851115610cc157600080fd5b83861115610cce57600080fd5b505082019391909203915056fea264697066735822122083e8fe944a5019c7ce61efae17ec014d4fac3c4e8edcb2868373367a1366d02964736f6c634300080d0033",
  "linkReferences": {},
  "deployedLinkReferences": {}
}