{
  "_format": "hh-sol-artifact-1",
  "contractName": "ERC721BurnableFacetMock",
  "sourceName": "contracts/mocks/token/ERC721/ERC721BurnableFacetMock.sol",
  "abi": [
    {
      "inputs": [
        {
          "internalType": "contract IForwarderRegistry",
          "name": "forwarderRegistry",
          "type": "address"
        }
      ],
      "stateMutability": "nonpayable",
      "type": "constructor"
    },
    {
      "inputs": [],
      "name": "__msgData",
      "outputs": [
        {
          "internalType": "bytes",
          "name": "",
          "type": "bytes"
        }
      ],
      "stateMutability": "view",
      "type": "function"
    },
    {
      "inputs": [
        {
          "internalType": "address",
          "name": "from",
          "type": "address"
        },
        {
          "internalType": "uint256[]",
          "name": "tokenIds",
          "type": "uint256[]"
        }
      ],
      "name": "batchBurnFrom",
      "outputs": [],
      "stateMutability": "nonpayable",
      "type": "function"
    },
    {
      "inputs": [
        {
          "internalType": "address",
          "name": "from",
          "type": "address"
        },
        {
          "internalType": "uint256",
          "name": "tokenId",
          "type": "uint256"
        }
      ],
      "name": "burnFrom",
      "outputs": [],
      "stateMutability": "nonpayable",
      "type": "function"
    },
    {
      "inputs": [],
      "name": "initERC721BurnableStorage",
      "outputs": [],
      "stateMutability": "nonpayable",
      "type": "function"
    }
  ],
  "bytecode": "0x60a060405234801561001057600080fd5b50604051610e4c380380610e4c83398101604081905261002f91610040565b6001600160a01b0316608052610070565b60006020828403121561005257600080fd5b81516001600160a01b038116811461006957600080fd5b9392505050565b608051610dac6100a0600039600081816106fc01528181610766015281816108a401526109440152610dac6000f3fe608060405234801561001057600080fd5b506004361061004c5760003560e01c806331e66e1e1461005157806379cc679014610070578063de81581114610085578063f24729651461008d575b600080fd5b6100596100a0565b604051610067929190610b90565b60405180910390f35b61008361007e366004610c06565b6100b3565b005b6100836100d4565b61008361009b366004610c30565b6100f7565b3660006100ab61014d565b915091509091565b6100d06100be610158565b83836100c8610167565b92919061019b565b5050565b6100ed6100df610158565b6100e76103a1565b906103cf565b6100f5610452565b565b610148610102610158565b848484808060200260200160405190810160405280939291908181526020018383602002808284376000920191909152506101409250610167915050565b929190610487565b505050565b3660006100ab6106e4565b6000610162610868565b905090565b60008061019560017fddf3ee18ae6d688373c219468f8be446e7ae82215f4779d821c7ea5e8c13c0c1610cb6565b92915050565b60008181526020859052604090205473ffffffffffffffffffffffffffffffffffffffff83811690821614610231576040517f08c379a000000000000000000000000000000000000000000000000000000000815260206004820152601760248201527f4552433732313a206e6f6e2d6f776e656420746f6b656e00000000000000000060448201526064015b60405180910390fd5b61023c8584866109c0565b6102f4577401000000000000000000000000000000000000000081161580159061028e5750600082815260028601602052604090205473ffffffffffffffffffffffffffffffffffffffff8581169116145b6102f4576040517f08c379a000000000000000000000000000000000000000000000000000000000815260206004820152601b60248201527f4552433732313a206e6f6e2d617070726f7665642073656e64657200000000006044820152606401610228565b6000828152602086815260408083207fdead000000000000000000000000000000000000000000000000000000000000905573ffffffffffffffffffffffffffffffffffffffff86168084526001890190925280832080547fffffffffffffffffffffffffffffffffffffffffffffffffffffffffffffffff01905551849291907fddf252ad1be2c89b69c2b068fc378daa952ba7f163c4a11628f55a4df523b3ef908390a45050505050565b60008061019560017fb53127684a568b3173ae13b9f8a6016e243e63b6e8ee1178d6a717850b5d6104610cb6565b815473ffffffffffffffffffffffffffffffffffffffff8281169116146100d0576040517f08c379a000000000000000000000000000000000000000000000000000000000815260206004820152601960248201527f50726f787941646d696e3a206e6f74207468652061646d696e000000000000006044820152606401610228565b6100f57f8b8b4ef5000000000000000000000000000000000000000000000000000000006001610480610a38565b9190610a66565b60006104948584866109c0565b825190915060005b8181146106a65760008482815181106104b7576104b7610cf4565b6020026020010151905060008860000160008381526020019081526020016000205490508073ffffffffffffffffffffffffffffffffffffffff168773ffffffffffffffffffffffffffffffffffffffff1614610570576040517f08c379a000000000000000000000000000000000000000000000000000000000815260206004820152601760248201527f4552433732313a206e6f6e2d6f776e656420746f6b656e0000000000000000006044820152606401610228565b8461062957740100000000000000000000000000000000000000008116158015906105c35750600082815260028a01602052604090205473ffffffffffffffffffffffffffffffffffffffff8981169116145b610629576040517f08c379a000000000000000000000000000000000000000000000000000000000815260206004820152601b60248201527f4552433732313a206e6f6e2d617070726f7665642073656e64657200000000006044820152606401610228565b600082815260208a905260408082207fdead00000000000000000000000000000000000000000000000000000000000090555183919073ffffffffffffffffffffffffffffffffffffffff8a16907fddf252ad1be2c89b69c2b068fc378daa952ba7f163c4a11628f55a4df523b3ef908390a4505060010161049c565b5080156106dc5773ffffffffffffffffffffffffffffffffffffffff841660009081526001870160205260409020805482900390555b505050505050565b366000333281036106fa57506000923692509050565b7f000000000000000000000000000000000000000000000000000000000000000073ffffffffffffffffffffffffffffffffffffffff168173ffffffffffffffffffffffffffffffffffffffff161480610847575073ffffffffffffffffffffffffffffffffffffffff7f00000000000000000000000000000000000000000000000000000000000000001663e60125d6367fffffffffffffffffffffffffffffffffffffffffffffffffffffffffffffffec013560601c6040517fffffffff0000000000000000000000000000000000000000000000000000000060e084901b16815273ffffffffffffffffffffffffffffffffffffffff91821660048201529084166024820152604401602060405180830381865afa158015610823573d6000803e3d6000fd5b505050506040513d601f19601f820116820180604052508101906108479190610d23565b1561085d57610854610b72565b92509250509091565b506000923692509050565b60003332810361087757919050565b6000367fffffffffffffffffffffffffffffffffffffffffffffffffffffffffffffffec013560601c90507f000000000000000000000000000000000000000000000000000000000000000073ffffffffffffffffffffffffffffffffffffffff168273ffffffffffffffffffffffffffffffffffffffff1614806109af57506040517fe60125d600000000000000000000000000000000000000000000000000000000815273ffffffffffffffffffffffffffffffffffffffff828116600483015283811660248301527f0000000000000000000000000000000000000000000000000000000000000000169063e60125d690604401602060405180830381865afa15801561098b573d6000803e3d6000fd5b505050506040513d601f19601f820116820180604052508101906109af9190610d23565b156109ba5792915050565b50919050565b60008173ffffffffffffffffffffffffffffffffffffffff168373ffffffffffffffffffffffffffffffffffffffff161480610a30575073ffffffffffffffffffffffffffffffffffffffff808416600090815260038601602090815260408083209386168352929052205460ff165b949350505050565b60008061019560017fca9d3e17f264b0f3984e2634e94adb37fa3e6a8103f06aeae6fa59e21c769f5e610cb6565b7c01000000000000000000000000000000000000000000000000000000007fffffffff00000000000000000000000000000000000000000000000000000000831601610b0e576040517f08c379a000000000000000000000000000000000000000000000000000000000815260206004820152601f60248201527f496e74657266616365446574656374696f6e3a2077726f6e672076616c7565006044820152606401610228565b7fffffffff00000000000000000000000000000000000000000000000000000000919091166000908152602092909252604090912080547fffffffffffffffffffffffffffffffffffffffffffffffffffffffffffffff0016911515919091179055565b366000808083610b83601482610cb6565b926100ab93929190610d4c565b60208152816020820152818360408301376000818301604090810191909152601f9092017fffffffffffffffffffffffffffffffffffffffffffffffffffffffffffffffe0160101919050565b803573ffffffffffffffffffffffffffffffffffffffff81168114610c0157600080fd5b919050565b60008060408385031215610c1957600080fd5b610c2283610bdd565b946020939093013593505050565b600080600060408486031215610c4557600080fd5b610c4e84610bdd565b9250602084013567ffffffffffffffff80821115610c6b57600080fd5b818601915086601f830112610c7f57600080fd5b813581811115610c8e57600080fd5b8760208260051b8501011115610ca357600080fd5b6020830194508093505050509250925092565b600082821015610cef577f4e487b7100000000000000000000000000000000000000000000000000000000600052601160045260246000fd5b500390565b7f4e487b7100000000000000000000000000000000000000000000000000000000600052603260045260246000fd5b600060208284031215610d3557600080fd5b81518015158114610d4557600080fd5b9392505050565b60008085851115610d5c57600080fd5b83861115610d6957600080fd5b505082019391909203915056fea2646970667358221220084799293d41baaaee728d2ec4bb46235d79aedff7c9835610c221557937009164736f6c634300080e0033",
  "linkReferences": {},
  "deployedLinkReferences": {}
}