{
  "_format": "hh-sol-artifact-1",
  "contractName": "ERC20MintableFacet",
  "sourceName": "contracts/token/ERC20/ERC20MintableFacet.sol",
  "abi": [
    {
      "inputs": [
        {
          "internalType": "contract IForwarderRegistry",
          "name": "forwarderRegistry",
          "type": "address"
        }
      ],
      "stateMutability": "nonpayable",
      "type": "constructor"
    },
    {
      "inputs": [],
      "name": "MINTER_ROLE",
      "outputs": [
        {
          "internalType": "bytes32",
          "name": "",
          "type": "bytes32"
        }
      ],
      "stateMutability": "view",
      "type": "function"
    },
    {
      "inputs": [
        {
          "internalType": "address[]",
          "name": "recipients",
          "type": "address[]"
        },
        {
          "internalType": "uint256[]",
          "name": "values",
          "type": "uint256[]"
        }
      ],
      "name": "batchMint",
      "outputs": [],
      "stateMutability": "nonpayable",
      "type": "function"
    },
    {
      "inputs": [],
      "name": "initERC20MintableStorage",
      "outputs": [],
      "stateMutability": "nonpayable",
      "type": "function"
    },
    {
      "inputs": [
        {
          "internalType": "address",
          "name": "to",
          "type": "address"
        },
        {
          "internalType": "uint256",
          "name": "value",
          "type": "uint256"
        }
      ],
      "name": "mint",
      "outputs": [],
      "stateMutability": "nonpayable",
      "type": "function"
    }
  ],
  "bytecode": "0x60a06040523480156200001157600080fd5b50604051620033c7380380620033c78339818101604052810190620000379190620001c8565b806200006c7f6a83522c126b1f14401cda64886fc651a7060f385b5e2d289e620e1859fee4e760001b6200014460201b60201c565b620000a07ff6fd3c5688ac3ada9425e55f9cce326a85fd64fca9b1584401f3d2203aee560b60001b6200014460201b60201c565b620000d47fe7883c748f395270b53c914004a2b83ffb6acf3836fed33ec0a3c0eb061e618860001b6200014460201b60201c565b8073ffffffffffffffffffffffffffffffffffffffff1660808173ffffffffffffffffffffffffffffffffffffffff1681525050506200013d7f59b9c16d54e7c18b027aad0ccca2057476883a6d361687e36989d2ed7aa1ed3d60001b6200014760201b60201c565b50620001fa565b50565b50565b600080fd5b600073ffffffffffffffffffffffffffffffffffffffff82169050919050565b60006200017c826200014f565b9050919050565b600062000190826200016f565b9050919050565b620001a28162000183565b8114620001ae57600080fd5b50565b600081519050620001c28162000197565b92915050565b600060208284031215620001e157620001e06200014a565b5b6000620001f184828501620001b1565b91505092915050565b6080516131aa6200021d60003960008181611dd40152611e2901526131aa6000f3fe608060405234801561001057600080fd5b506004361061004c5760003560e01c806311e60a3e1461005157806340c10f191461005b5780636857310714610077578063d539139314610093575b600080fd5b6100596100b1565b005b610075600480360381019061007091906127dd565b6101ed565b005b610091600480360381019061008c9190612a39565b61032c565b005b61009b61046b565b6040516100a89190612aca565b60405180910390f35b6100dd7fb7eb7cc33779b14970d8cb61149ae220d16e1398bccf513c81d422acaa2d9f8560001b61048f565b6101097f432b06a1ffe85f269a38879011df6e3ffd66f01e306ed3483b82324a3f2e704e60001b61048f565b6101357ff83f3f0615feda33a883ce5a72cdb0f55b5ab101eee3512b12f6e2e6b06b1cdc60001b61048f565b610156610140610492565b610148610525565b61061590919063ffffffff16565b6101827ff5a0c1822cb3e5df437b0b48090815520cfb6e928eb6b90f002efb56e3b7804560001b61048f565b6101ae7f36d3421ad726cc1f23dd3b2c5a4085d41a4c197564f8ce32d43327716fcd99e160001b61048f565b6101eb7f28963e1e0000000000000000000000000000000000000000000000000000000060016101dc610787565b6108779092919063ffffffff16565b565b6102197febe7ede09ff002e7dbacb8e9c3daf3ef58d751c4a6d155ea5854dde7129679d460001b610a83565b6102457f62c0d72921c4060f1c08882cc70fd3aa00d50525dec95ce0ba87d1ae1d303c4f60001b610a83565b6102717fe07871a93843b7490a50c02456e87f5abd99dad881eb154b7c031a1f32bbbffd60001b610a83565b6102b47f6d696e746572000000000000000000000000000000000000000000000000000061029d610492565b6102a5610a86565b610b769092919063ffffffff16565b6102e07f361004d03e01cd54a434b39d14aafe38e15e8e6b522e50f3274fce6b81ec6e3860001b610a83565b61030c7fb369739369569d5b3697c839eccceacd2c29477eb8a93981fd505a5db48701b060001b610a83565b6103288282610319610d2c565b610e1c9092919063ffffffff16565b5050565b6103587f17654169f1deb1408ab069e8940d2bcc0b05ab65766ab62d1142c4aad4e15d3960001b610a83565b6103847fc1ac2213d300359427ec1373d5c765cad4e34ff216992a7eaedec5e3e593a2a760001b610a83565b6103b07f18d1fbffb416d4a0e8a2bad4a65ad6be42a2224aeba116906330201838d9301c60001b610a83565b6103f37f6d696e74657200000000000000000000000000000000000000000000000000006103dc610492565b6103e4610a86565b610b769092919063ffffffff16565b61041f7fce35f4fc60138535b11497b7463cdd331a595790de653e6469e02f6cdc74adf460001b610a83565b61044b7ff6a84b988dcd65f357e7adcf9855de6a43e9216ae799cc396269c47696107f7560001b610a83565b6104678282610458610d2c565b6112189092919063ffffffff16565b5050565b7f6d696e746572000000000000000000000000000000000000000000000000000081565b50565b60006104c07f476a5494e96c1ce2920888979e39f0a8722fc082370fa18807efcb389b97c34860001b61048f565b6104ec7f5660cfb2b062161bee97fc00067ed48f812efbea5897fc99e9150e672756540460001b61048f565b6105187f0bd3429ebed034c467e75adb62a53f2314d8199eb76ea9c3cbb7ec3d914c5ac060001b61048f565b610520611b47565b905090565b60006105537f29f8332165901d83adc683db950bfa7095446b76821902b9cad5a516e9f9f82660001b611fe4565b61057f7f5c570bd87bb3a186c2c87ff3dd5f58d2c75a5776fe94e0a63fa851fe46a5fa6c60001b611fe4565b6105ab7f405d85ac952971491b2260d550a90002555502250fb83d68df5efc35f77841ce60001b611fe4565b600060017fb53127684a568b3173ae13b9f8a6016e243e63b6e8ee1178d6a717850b5d610460001c6105dd9190612b14565b60001b905061060e7f1d9ce065e06330dbac07abf26a98b6d505daa95772ac105ad61ed7479f8c2b1260001b611fe4565b8091505090565b6106417fbc11fd154e3161de2183b89db4eb967bb1b4cbab0325086fa95095436c11e72b60001b611fe4565b61066d7f1815b032362e96a6d2f880b8f118c97fe36f9016e4d7dde560dc18768369a66d60001b611fe4565b6106997f25f11631eb07cc17d412b02bd63f72577eb8df190f4046eb3478c12a4bb8ae6860001b611fe4565b6106c57ff4fb509d189314ad76c001fa3c672e032a121e16ca67380d998b64660c91044960001b611fe4565b8160000160009054906101000a900473ffffffffffffffffffffffffffffffffffffffff1673ffffffffffffffffffffffffffffffffffffffff168173ffffffffffffffffffffffffffffffffffffffff1614610757576040517f08c379a000000000000000000000000000000000000000000000000000000000815260040161074e90612ba5565b60405180910390fd5b6107837f059066040512573aa34012041b24446b05cb97113084d9f5307dec4a489aeed260001b611fe4565b5050565b60006107b57f33dac451eefd1a6808163eecf8d47d7cba5f56d00787de044ff0ddc2ee89447d60001b611fe7565b6107e17f80b5daaa693fe30ccf9f1f19243499ce9fe4bada91264dd37e7099a713fc8c0360001b611fe7565b61080d7f66e2273229caef60ac0be45d070cc66ba1aaceeca2776bdf1fc50206d54f0f2260001b611fe7565b600060017f7180ffa89c91cf90d6c56dacabfc69bc5e36f3099d7eed2f5cc12c5dba016fe060001c61083f9190612b14565b60001b90506108707f283bb7ffa148f4f77b397c4f3d35798bfd3f1214dd2b6c078e2824cd344247cc60001b611fe7565b8091505090565b6108a37ffeeaaad6b1efab2833cc700d80f740603a4ac6746f8e38068c950d299cc199bf60001b611fe7565b6108cf7f3ca2cb9a9b6e35728cedd7c19d4c121988341387931213a51eab1b4bbaf4113560001b611fe7565b6108fb7f1f9cdb98c65d0ad87aac43319c2670926bcb7c14904c7f9d4ade6235d82de71960001b611fe7565b6109277f5dbdac164f3e02893e8f90adfbe776f3f50c85847d234ab6fb16b0a4846759d760001b611fe7565b63ffffffff60e01b827bffffffffffffffffffffffffffffffffffffffffffffffffffffffff19160361098f576040517f08c379a000000000000000000000000000000000000000000000000000000000815260040161098690612c11565b60405180910390fd5b6109bb7fd6b36b8472d324009615e496388c108ffb1831ab3bd7bded72d29ac4baf2ad1e60001b611fe7565b6109e77f7b2218cefa5bbb0f0239126c55783358df88ffab00f11d9c8f8e38985d9a8c9860001b611fe7565b610a137f2ad1063a0d34755f3bea24bcd3cfaff3dbbf63fbfa3f9b4c9c252fdffa66ed3360001b611fe7565b80836000016000847bffffffffffffffffffffffffffffffffffffffffffffffffffffffff19167bffffffffffffffffffffffffffffffffffffffffffffffffffffffff1916815260200190815260200160002060006101000a81548160ff021916908315150217905550505050565b50565b6000610ab47f801c8c79be2b05b59bfec30b799e1e89c42a285298d34516a11d9983ec0153d460001b611fea565b610ae07f0ad65999965d2b079fdc081d5b9eab8a14d9e7540af712c264dea05d4fa7557160001b611fea565b610b0c7f447a3fd8863869a13a79f3075e8c91b7d7ac516e56bb07785551a7ddb15a748b60001b611fea565b600060017fc8a24fbf085abf1493c5f225802d03df3ece6cd19f18edff36c56d854cddac9e60001c610b3e9190612b14565b60001b9050610b6f7f562c1f2c38f1a5c4ea4487aeb1c80e8f30c8d10d2e641b4fa90b1b60397fb4b760001b611fea565b8091505090565b610ba27f81b6b5d48234abba9d1fb277991a3539b2421ecb71f6e328abc41262a195391560001b611fea565b610bce7fafa8513392110644796616c3f31e8847d87af3ba9e413dd74d1d89138a222b3460001b611fea565b610bfa7fc2137be5366d31cf998c7b8658bc23dea20a703bd5cff8f1e679cebe8356de1360001b611fea565b610c0f828285611fed9092919063ffffffff16565b610cfb57610c3f7f1521956321cfb3a89da6b0453e3aca7b9b098ca723c8a37d55ed1e9814b492f560001b611fea565b610c6b7ffa9449661e0af7aae708409feaa75780e768b400414b7509e29c6dd3634eccbc60001b611fea565b610c977f2e220ace96639132671ab7a71af7e48e7faf59f266e7e79ee3d6d865108e392b60001b611fea565b610ca0826120dc565b604051602001610cb09190612d43565b6040516020818303038152906040526040517f08c379a0000000000000000000000000000000000000000000000000000000008152600401610cf29190612da9565b60405180910390fd5b610d277fc71cd2e6afcee82c0815f03d2ef069134033100cec5bff0b6000a959af1fc5b360001b611fea565b505050565b6000610d5a7f51a9cf70038f30e7c9e892b8da145f23a1ffb6ef6b800794b2ace46a9422057860001b6126c2565b610d867f39d6709454ef595be8dc4166f66a9d65b91a8f35311169ed9bb032b5b9840c7960001b6126c2565b610db27f0a4ee4daa68a1d84599609cdff7036856a765dc4b0df8908075192de28f8767e60001b6126c2565b600060017f9b108a3a4d1bf9fcaf11faf730c194adcf4de5409616cf7026e57018b2743c2660001c610de49190612b14565b60001b9050610e157f42ce42b3b8252f79f4e5fbdd78f7d81d68585f23fbd9ec716f730b101ae4ba2b60001b6126c2565b8091505090565b610e487f7d00db060713f6f8c450b7a54fee326455942963f48fcb6a7308e2a8097eadf460001b6126c2565b610e747f059e8a6a146f7167d0a134d045d131c68a7c76c0e64599451b6d6e347f4b807660001b6126c2565b610ea07f79a01245658c7ebcc5bd0c1bb37441508feadda71f260857282b04fbdc0fd17060001b6126c2565b610ecc7f23f630ffa27c5b4a75be22afd60a4cc32d793a08d02bfe3c7246be57b9c3a0f060001b6126c2565b600073ffffffffffffffffffffffffffffffffffffffff168273ffffffffffffffffffffffffffffffffffffffff1603610f3b576040517f08c379a0000000000000000000000000000000000000000000000000000000008152600401610f3290612e17565b60405180910390fd5b610f677f50c074588322b09e4f9e98d828b384a002bf8ed142bfe6fd61d8d56062d8e73f60001b6126c2565b610f937f5d7cfa05dc8bbb21f3952283edbca5432a4fbe8eeaf0de108c5e3fa139ad9d3b60001b6126c2565b610fbf7f3826b49e6187e3deaa606a3bd9d53afd10c2c9f5da1735db364a881df985765860001b6126c2565b6000811461112857610ff37f1683f7d60d57c8fd6a93945c203574426674c4653acb1171b0a34c0450598b9460001b6126c2565b61101f7f367944e4dbed6a2f2be2f3da44e05b2d9d8ef346a679f00a383014e7b4da6b5e60001b6126c2565b61104b7fd457d5dd01f8a89952060ec0958fa445df573a19c3e8508f835921d6707e4d5960001b6126c2565b6000836002015490506110807fc27599282286f7dd2f03f86c03b26309ee10b29ac98d422126ecfb4ba636b48060001b6126c2565b600082820190508181116110c9576040517f08c379a00000000000000000000000000000000000000000000000000000000081526004016110c090612e83565b60405180910390fd5b808560020181905550828560000160008673ffffffffffffffffffffffffffffffffffffffff1673ffffffffffffffffffffffffffffffffffffffff168152602001908152602001600020600082825401925050819055505050611155565b6111547fc99fd8125fd6327068f80e5062864e7cfb9840a4b88ae234198bd189ea848d5460001b6126c2565b5b6111817f559162a83406d1d14ef1d64582c147c6ac92dba4570157c148617c217ae3194860001b6126c2565b6111ad7f7721657bcd89d6865db89cd0cf520451383ded7e48b5c6750f83b83754dd787a60001b6126c2565b8173ffffffffffffffffffffffffffffffffffffffff16600073ffffffffffffffffffffffffffffffffffffffff167fddf252ad1be2c89b69c2b068fc378daa952ba7f163c4a11628f55a4df523b3ef8360405161120b9190612eb2565b60405180910390a3505050565b6112447ff5bd43cfde7ce035d17176f68046e8b3a5b0b05dd5373e73d2cc78e82f595e5a60001b6126c2565b6112707f81a029ceadb1eaabe72f11a3bf1b278ca1c63e84dce7cf61cd9e1a80d3fff44160001b6126c2565b61129c7f36ffbdb2ef346858e8973ffe214c22836e2002a4327554281406221916bebac160001b6126c2565b6000825190506112ce7f60b4ed87c79e7e67738e64e0f902cde93d3d0b09cfa984c6bae3379b44c4919460001b6126c2565b6112fa7f3c8a8cb1b9afea31a9e218f9853684d576f662633ca9495eb42aa703aeffb86860001b6126c2565b6113267f6d3a24a70dbe148314602b3a1d0ec821bdba3b7a669fbb13c77118abacde8a3e60001b6126c2565b81518114611369576040517f08c379a000000000000000000000000000000000000000000000000000000000815260040161136090612f19565b60405180910390fd5b6113957faf0d6b0b77e39c652b4816268f489ed8196db844747d1231f38fa944a2bf54e060001b6126c2565b6113c17feb3e1d843173395acf921ac197c83b9ab7e7828348f4cadf5c209f88c83bf3de60001b6126c2565b6113ed7fd88a60aa743aa367137ffd1cbe6bb82451725011f2ba81e23fed1d496a8ef4d060001b6126c2565b60008103611453576114217fbc33a30cbac792fc5d5f1036227eb738150bf43e41bb36eaa02bfc9b66c37b7160001b6126c2565b61144d7ff300afb196ef3573faf600693c1166216b141c5495779feb96a7246959daa71860001b6126c2565b50611b42565b61147f7f7c37d88e36ebdd25e9350e8e877059c1a5c763d737ecb9dc5b9ce2469468170160001b6126c2565b6114ab7ff4f49e267902de78fa16572717e1be2575d67f2317c472b77a8e83bf087717e360001b6126c2565b6114d77f28007c1174d1a7a4df7eed26dec26c1f90838fe11c8c82c692964ac4380b413860001b6126c2565b60006115057f650e110d33fb8ad7fc43f51d9b83b1f2d4680f1bf1ffb11c1ab47fb30926dccb60001b6126c2565b6115317fb972545b03585d67c4243a9e8b4eddb89f50932eddd416fe33f50df17194028460001b6126c2565b60005b82811461199f576115677f3234b3b87691a1b4391b3eb6bae0914a726ab1de4d64e28e5c2e1f65c222abe660001b6126c2565b6115937fe3ef8fefe6ce4f0f849512c4c97611295f8996df8eb97840c33fb0690d5b314360001b6126c2565b60008582815181106115a8576115a7612f39565b5b602002602001015190506115de7f6efb7e4dfb3328329332d276f1a2fb67ae5aa715d49ed9b58558474b66df643b60001b6126c2565b61160a7f13dd06aa6289465f649183eb8f7278cb09fde8e8e488e751081e8ea0aa31c2a260001b6126c2565b6116367f32a40afc11f6db4842d75c4a82ad140ced7a9ba362f630709c7ab6795ca26e8460001b6126c2565b600073ffffffffffffffffffffffffffffffffffffffff168173ffffffffffffffffffffffffffffffffffffffff16036116a5576040517f08c379a000000000000000000000000000000000000000000000000000000000815260040161169c90612e17565b60405180910390fd5b6116d17f77829d5b3e4bdc20aa33475a001f66138c3b43c8e424236711ab87eadac0b0cd60001b6126c2565b6116fd7ffa9022388824caef23331e91a94dc24838eb436edb8c029183484daa1d525aac60001b6126c2565b6117297fd552e1e0d82d6b4a1d068f5a60d8da665f82b0151c083e78bf2f8a3292509cb160001b6126c2565b600085838151811061173e5761173d612f39565b5b602002602001015190506117747ff12ed7ed647f65cfd9564d69588515da5b604272351f83f6d759b13643903dd060001b6126c2565b6117a07f63307f220d8a2d5d8ce8c62a5fdb9e5fd3521381cc5f982dad4a462377ec253060001b6126c2565b600081146118a1576117d47f34095a94ab97f9b383c5c6e75b45d3100586b27c586f1c36772ea89ea45b232e60001b6126c2565b6118007fabc5bccf2f0f6d10a45030f08336f0172e9eb5c72b10a521bb7e605181eeaa7a60001b6126c2565b60008185019050848111611849576040517f08c379a000000000000000000000000000000000000000000000000000000000815260040161184090612fb4565b60405180910390fd5b809450818960000160008573ffffffffffffffffffffffffffffffffffffffff1673ffffffffffffffffffffffffffffffffffffffff16815260200190815260200160002060008282540192505081905550506118ce565b6118cd7fbbb89e237966e2280cb02b56abc7a3ed33365e10bdeaf080dfd495b791f16e3860001b6126c2565b5b6118fa7f7d5fabe9fb46f803cc99069fb3ff9aa7916579e7f59e1ddd9246d6aee47b5a5560001b6126c2565b6119267face4b810f6e41342846467aed83dd2bd7437bfb7691ec8d703b33ef27f9dbbc260001b6126c2565b8173ffffffffffffffffffffffffffffffffffffffff16600073ffffffffffffffffffffffffffffffffffffffff167fddf252ad1be2c89b69c2b068fc378daa952ba7f163c4a11628f55a4df523b3ef836040516119849190612eb2565b60405180910390a350508061199890612fd4565b9050611534565b506119cc7f5fcbed5bec23b40886553b5d2d6c280fe865bfe34a6606c774619c6f7061550060001b6126c2565b6119f87f2f91d651f6ccdfb80479807accd8f47ecdf6af23ec895d999c07a9ff3ccfed8d60001b6126c2565b60008114611b1257611a2c7f3bace79a2f8d152c3ca486ad0e15965e945f961c1841a272684114cabc91e23860001b6126c2565b611a587ffcc92fbac9350f064cd28f1bd0657aa1b0d7be1f23038ba0c80ac81fef46837c60001b6126c2565b611a847f9cfc5f8e17ce9ec6a044728e3818c22aa997b7c01b1308768c637ea2bab3110e60001b6126c2565b600085600201549050611ab97ffdd9abf159a17b2b3813368f8427b2ee5bcd96b6523a5c8ba86400f7fcf74a7c60001b6126c2565b60008282019050818111611b02576040517f08c379a0000000000000000000000000000000000000000000000000000000008152600401611af990612e83565b60405180910390fd5b8087600201819055505050611b3f565b611b3e7f836fc48e5a656dd54778631c86b3ea3fbae3c79642f19a1f715ffc52a6b8027e60001b6126c2565b5b50505b505050565b6000611b757f21f83b85e7dbc596177bc46cc6795c14520638d6db8281a9a46e4d6aa22fb1aa60001b6126c5565b611ba17f9fe8a1e1e7c5f38bddac874222fbac3da358d377b550af606038c28c918342a660001b6126c5565b611bcd7f4d776035fe014c48f9b8d211e07ad5f3e10a7407e640d6fd44f001ad72ec145460001b6126c5565b6000339050611bfe7f1470143c211ace273ad33be67e446aa27b56df8ff21c9e30df1c1ce1aab37faf60001b6126c5565b611c2a7f701a5aed6b7834b1cde40063ca2763d0cc2a2d369e96d6ffd63bd7f36d010be860001b6126c5565b3273ffffffffffffffffffffffffffffffffffffffff168173ffffffffffffffffffffffffffffffffffffffff1603611cea57611c897fde73d737f19da71f7e0a8be64041464998117e05c9bb9f65df2259a0779caaa960001b6126c5565b611cb57f2e1b1201e86447778e6a37c8701809fecc19c6c17c8cdf9a32e27254363f132c60001b6126c5565b611ce17f06438a6776a73eebdc69485314350483a51cfddc04e159b6f57dde5e4030039060001b6126c5565b80915050611fe1565b611d167f6b510e6cfe0d366d8eb68be09db038d2dbfc0ca71029993b650b184340fc438a60001b6126c5565b611d427fc81f2aa3e9c76ff8d9709ad059857726fb537b8fa6166dbedc9e3f598edddc4160001b6126c5565b611d6e7fd5cec79665173c3237287beadc96f615eba8ff220376c7f0add1c603fa1dcb0260001b6126c5565b6000611d786126c8565b9050611da67f16b7bdd4d503ca2d391b420534e7b71ff847aea146e0c5e9b1d972d25ac95cf360001b6126c5565b611dd27f8284349b0a2249652b224d12d5fd826a549839b4e0aab6630e88a99ebee0413860001b6126c5565b7f000000000000000000000000000000000000000000000000000000000000000073ffffffffffffffffffffffffffffffffffffffff168273ffffffffffffffffffffffffffffffffffffffff161480611ec457507f000000000000000000000000000000000000000000000000000000000000000073ffffffffffffffffffffffffffffffffffffffff1663e60125d682846040518363ffffffff1660e01b8152600401611e8292919061302b565b602060405180830381865afa158015611e9f573d6000803e3d6000fd5b505050506040513d601f19601f82011682018060405250810190611ec3919061308c565b5b15611f5757611ef57ff1748450d5c67d16e99d465b5f46314c0a03cb614c0a36c7a01d0d452a42d63760001b6126c5565b611f217ffcb9fb7b37e10dcd260ee2b6500d072708cde8b16110ac602ac219c4f0ac7a8860001b6126c5565b611f4d7f0b8b6cb7f0d04c4b23441400a0a579a14ccf6e6d955d51d0d443ae3b764fbf1e60001b6126c5565b8092505050611fe1565b611f837fc6338ea7b912cb871ae88b37af8abae50806bb4e29d453caf0758aea491b82ab60001b6126c5565b611faf7fb1b2861ba78bbb686a91db34f76b76efe61d8e91016be1013861a8390b68a26860001b6126c5565b611fdb7f131b91089cbc4af49187f8d51fbbc23a25f13946f6ab1ab771005101548d429760001b6126c5565b81925050505b90565b50565b50565b50565b600061201b7f0772773cfdc39ccb04de1cf07eabc404db44b2ed99c22e369a8bd443d82b540e60001b611fea565b6120477fe049522e56d47dee99bb4bd6772fb6fdb67bcecb672685f40db35584219b970160001b611fea565b6120737ff7c9f22dff1cc7708f827bd849f309aa6a6190a523f2887883febc9f8833dacb60001b611fea565b83600001600084815260200190815260200160002060008373ffffffffffffffffffffffffffffffffffffffff1673ffffffffffffffffffffffffffffffffffffffff16815260200190815260200160002060009054906101000a900460ff1690509392505050565b606061210a7ff3e26c3bd85fdaa3d8f1259414605a7dd92cd33f6e0a5ea5aee2931a96d320aa60001b61272f565b6121367f14846564a156e661f6474a94d4255a72cce0853ae6558cbf3e923deec39719ae60001b61272f565b6121627f6c4f2a0e0bd15baa64804e395a91bd69578a6e2a90f55320b7b965282ed515d860001b61272f565b6000801b82036121db576121987f66382546bedd8a8744565683ec0549940fef9cc757873afd4aa5cbf1a1c3ddeb60001b61272f565b6121c47f41f0fd3b61868a6d8df29e5b031aeec3a4ac9909f5a87803ff0e75a1215b2e1660001b61272f565b6040518060200160405280600081525090506126bd565b6122077fd7faff261f7667b6fdb79185d8e210684b89ebcf3c16989907a72e26c9a40bd360001b61272f565b6122337fc963fd694ee00300e885d432326b79e852ff0d5d3d5e5b40d91d2cb7322e036860001b61272f565b61225f7f03d940c9787d5829f10521169b1c7207e10ebc0c689f231920f48ae83e75d20760001b61272f565b60008260405160200161227291906130da565b60405160208183030381529060405290506122af7f3be4e21e8f54c6c99bff282d009276b8870f6abdb6debfddfa3e2b6b2db00e7760001b61272f565b6122db7f17306240d3cb74d3489a10c16165676d1e8bd6ae2ff4bb3eeac64cd88d80bb6a60001b61272f565b6000601f905061230d7f5c1c0f404ad5f798e57f5a143443445b34b8ef27d98839f5300c77b624967d3260001b61272f565b6123397ffe20543a09d660584d1a6b1ece822ac581d7a02e435ff8d6e1467dc3c1fc750560001b61272f565b5b60011561247d5761236d7fecafc833e80060b602eb7f1f24a245850dfa0e85b27437f061a032e48428c77a60001b61272f565b6123997f522a216e93d0e4f6e6309facb75020a88b47b2d64392071866ad5395e68a4f3f60001b61272f565b600060f81b8282815181106123b1576123b0612f39565b5b602001015160f81c60f81b7effffffffffffffffffffffffffffffffffffffffffffffffffffffffffffff1916146124145761240f7fb60cfc2b2fdca331d300ee04d83eeaffc639b7f20ec67b5f0a2c76b38ceae2f660001b61272f565b61247d565b6124407fb64ec942692486251857b64186a51a5dcbb575bb273ab2a68476fefa6ba7e85f60001b61272f565b61246c7febb09476ab2c43de302339c8bda76901de4deb1e22a5a915a6428269658244ea60001b61272f565b80612476906130f5565b905061233a565b6124a97f6ef5bcf08ee5e813920ce44c7edcb5ccd95a074dd3355664e76ea5f90677c82160001b61272f565b6124d57ff7f7c96094cd88ffccca7135e60d08b87b722cb510d705e1eebd625cc84a226060001b61272f565b60006001826124e4919061311e565b67ffffffffffffffff8111156124fd576124fc612833565b5b6040519080825280601f01601f19166020018201604052801561252f5781602001600182028036833780820191505090505b50905061255e7f70479c5da0c7bb0ac8f3ac4c0d6fabd84387ce5353aac9f89c3de6a3ab64de4860001b61272f565b61258a7fc19b5a8d1dea10c7016ae2e1347f69ddd08a429e857cf0d52301d9640eca840160001b61272f565b60005b82811161265d576125c07f14f2a6a46e72ed58802d03d80c3041c7ea0a3d7c5d23f2471fc6af1c024bfe2e60001b61272f565b6125ec7f538b385a5c613af0ebaf45feea1f5d29fec7f025d7383803dc0ff5cf1b259e9b60001b61272f565b8381815181106125ff576125fe612f39565b5b602001015160f81c60f81b82828151811061261d5761261c612f39565b5b60200101907effffffffffffffffffffffffffffffffffffffffffffffffffffffffffffff1916908160001a9053508061265690612fd4565b905061258d565b5061268a7ff8dc96e11a0aa5b43175ddf7e5527a22d125faa318ae8ab4e16ce609a2fb746160001b61272f565b6126b67f9e6bab069cd7b2424e0a07809819bfaa214e4a57f459aa03649e424b72e84af060001b61272f565b8093505050505b919050565b50565b50565b60006126f67fd2d14d566965719ee17c5b60ff32623f910e7a0e574f2eeae19a64856bd35c4c60001b612732565b6127227fa390d1eca31ebd819e35c63e13daa420bd40dcdd984217eef68768880371b01d60001b612732565b601436033560601c905090565b50565b50565b6000604051905090565b600080fd5b600080fd5b600073ffffffffffffffffffffffffffffffffffffffff82169050919050565b600061277482612749565b9050919050565b61278481612769565b811461278f57600080fd5b50565b6000813590506127a18161277b565b92915050565b6000819050919050565b6127ba816127a7565b81146127c557600080fd5b50565b6000813590506127d7816127b1565b92915050565b600080604083850312156127f4576127f361273f565b5b600061280285828601612792565b9250506020612813858286016127c8565b9150509250929050565b600080fd5b6000601f19601f8301169050919050565b7f4e487b7100000000000000000000000000000000000000000000000000000000600052604160045260246000fd5b61286b82612822565b810181811067ffffffffffffffff8211171561288a57612889612833565b5b80604052505050565b600061289d612735565b90506128a98282612862565b919050565b600067ffffffffffffffff8211156128c9576128c8612833565b5b602082029050602081019050919050565b600080fd5b60006128f26128ed846128ae565b612893565b90508083825260208201905060208402830185811115612915576129146128da565b5b835b8181101561293e578061292a8882612792565b845260208401935050602081019050612917565b5050509392505050565b600082601f83011261295d5761295c61281d565b5b813561296d8482602086016128df565b91505092915050565b600067ffffffffffffffff82111561299157612990612833565b5b602082029050602081019050919050565b60006129b56129b084612976565b612893565b905080838252602082019050602084028301858111156129d8576129d76128da565b5b835b81811015612a0157806129ed88826127c8565b8452602084019350506020810190506129da565b5050509392505050565b600082601f830112612a2057612a1f61281d565b5b8135612a308482602086016129a2565b91505092915050565b60008060408385031215612a5057612a4f61273f565b5b600083013567ffffffffffffffff811115612a6e57612a6d612744565b5b612a7a85828601612948565b925050602083013567ffffffffffffffff811115612a9b57612a9a612744565b5b612aa785828601612a0b565b9150509250929050565b6000819050919050565b612ac481612ab1565b82525050565b6000602082019050612adf6000830184612abb565b92915050565b7f4e487b7100000000000000000000000000000000000000000000000000000000600052601160045260246000fd5b6000612b1f826127a7565b9150612b2a836127a7565b925082821015612b3d57612b3c612ae5565b5b828203905092915050565b600082825260208201905092915050565b7f50726f787941646d696e3a206e6f74207468652061646d696e00000000000000600082015250565b6000612b8f601983612b48565b9150612b9a82612b59565b602082019050919050565b60006020820190508181036000830152612bbe81612b82565b9050919050565b7f496e74657266616365446574656374696f6e3a2077726f6e672076616c756500600082015250565b6000612bfb601f83612b48565b9150612c0682612bc5565b602082019050919050565b60006020820190508181036000830152612c2a81612bee565b9050919050565b600081905092915050565b7f416363657373436f6e74726f6c3a206d697373696e6720270000000000000000600082015250565b6000612c72601883612c31565b9150612c7d82612c3c565b601882019050919050565b600081519050919050565b60005b83811015612cb1578082015181840152602081019050612c96565b83811115612cc0576000848401525b50505050565b6000612cd182612c88565b612cdb8185612c31565b9350612ceb818560208601612c93565b80840191505092915050565b7f2720726f6c650000000000000000000000000000000000000000000000000000600082015250565b6000612d2d600683612c31565b9150612d3882612cf7565b600682019050919050565b6000612d4e82612c65565b9150612d5a8284612cc6565b9150612d6582612d20565b915081905092915050565b6000612d7b82612c88565b612d858185612b48565b9350612d95818560208601612c93565b612d9e81612822565b840191505092915050565b60006020820190508181036000830152612dc38184612d70565b905092915050565b7f45524332303a206d696e7420746f207a65726f00000000000000000000000000600082015250565b6000612e01601383612b48565b9150612e0c82612dcb565b602082019050919050565b60006020820190508181036000830152612e3081612df4565b9050919050565b7f45524332303a20737570706c79206f766572666c6f7700000000000000000000600082015250565b6000612e6d601683612b48565b9150612e7882612e37565b602082019050919050565b60006020820190508181036000830152612e9c81612e60565b9050919050565b612eac816127a7565b82525050565b6000602082019050612ec76000830184612ea3565b92915050565b7f45524332303a20696e636f6e73697374656e7420617272617973000000000000600082015250565b6000612f03601a83612b48565b9150612f0e82612ecd565b602082019050919050565b60006020820190508181036000830152612f3281612ef6565b9050919050565b7f4e487b7100000000000000000000000000000000000000000000000000000000600052603260045260246000fd5b7f45524332303a2076616c756573206f766572666c6f7700000000000000000000600082015250565b6000612f9e601683612b48565b9150612fa982612f68565b602082019050919050565b60006020820190508181036000830152612fcd81612f91565b9050919050565b6000612fdf826127a7565b91507fffffffffffffffffffffffffffffffffffffffffffffffffffffffffffffffff820361301157613010612ae5565b5b600182019050919050565b61302581612769565b82525050565b6000604082019050613040600083018561301c565b61304d602083018461301c565b9392505050565b60008115159050919050565b61306981613054565b811461307457600080fd5b50565b60008151905061308681613060565b92915050565b6000602082840312156130a2576130a161273f565b5b60006130b084828501613077565b91505092915050565b6000819050919050565b6130d46130cf82612ab1565b6130b9565b82525050565b60006130e682846130c3565b60208201915081905092915050565b6000613100826127a7565b91506000820361311357613112612ae5565b5b600182039050919050565b6000613129826127a7565b9150613134836127a7565b9250827fffffffffffffffffffffffffffffffffffffffffffffffffffffffffffffffff0382111561316957613168612ae5565b5b82820190509291505056fea264697066735822122014a035f2259505214ac953896bd8c67f00ef1ea235c04ff1481be199e75b8a4d64736f6c634300080d0033",
  "linkReferences": {},
  "deployedLinkReferences": {}
}