{
  "_format": "hh-sol-artifact-1",
  "contractName": "ERC20MetadataFacet",
  "sourceName": "contracts/token/ERC20/facets/ERC20MetadataFacet.sol",
  "abi": [
    {
      "inputs": [
        {
          "internalType": "contract IForwarderRegistry",
          "name": "forwarderRegistry",
          "type": "address"
        }
      ],
      "stateMutability": "nonpayable",
      "type": "constructor"
    },
    {
      "inputs": [
        {
          "internalType": "string",
          "name": "uri",
          "type": "string"
        }
      ],
      "name": "initERC20MetadataStorage",
      "outputs": [],
      "stateMutability": "nonpayable",
      "type": "function"
    },
    {
      "inputs": [
        {
          "internalType": "string",
          "name": "uri",
          "type": "string"
        }
      ],
      "name": "setTokenURI",
      "outputs": [],
      "stateMutability": "nonpayable",
      "type": "function"
    },
    {
      "inputs": [],
      "name": "tokenURI",
      "outputs": [
        {
          "internalType": "string",
          "name": "",
          "type": "string"
        }
      ],
      "stateMutability": "view",
      "type": "function"
    }
  ],
  "bytecode": "0x60a060405234801561001057600080fd5b50604051610b25380380610b2583398101604081905261002f91610040565b6001600160a01b0316608052610070565b60006020828403121561005257600080fd5b81516001600160a01b038116811461006957600080fd5b9392505050565b608051610a936100926000396000818161043801526104c00152610a936000f3fe608060405234801561001057600080fd5b50600436106100415760003560e01c80633c130d90146100465780638592febf14610064578063e0df5b6f14610079575b600080fd5b61004e61008c565b60405161005b9190610727565b60405180910390f35b61007761007236600461079a565b6100a3565b005b61007761008736600461079a565b610109565b606061009e61009961016b565b61019f565b905090565b6100bc6100ae610235565b6100b661023f565b9061026d565b61010582828080601f0160208091040260200160405190810160405280939291908181526020018383808284376000920191909152506100ff925061016b915050565b906102f5565b5050565b610122610114610235565b61011c610334565b90610362565b61010582828080601f016020809104026020016040519081016040528093929190818152602001838380828437600092019190915250610165925061016b915050565b906103e5565b60008061019960017ff41bf6a5db26bffdfab174dcf66b31fbba8fdb7e3db040721ce1e62d61839ceb61080c565b92915050565b60608160000180546101b09061084a565b80601f01602080910402602001604051908101604052809291908181526020018280546101dc9061084a565b80156102295780601f106101fe57610100808354040283529160200191610229565b820191906000526020600020905b81548152906001019060200180831161020c57829003601f168201915b50505050509050919050565b600061009e6103f5565b60008061019960017fb53127684a568b3173ae13b9f8a6016e243e63b6e8ee1178d6a717850b5d610461080c565b815473ffffffffffffffffffffffffffffffffffffffff828116911614610105576040517f08c379a000000000000000000000000000000000000000000000000000000000815260206004820152601960248201527f50726f787941646d696e3a206e6f74207468652061646d696e0000000000000060448201526064015b60405180910390fd5b61032a61032360017f81a09c6d0cf7eadf3f152b4337d7a7aed452e49d9d3d75becce33033fab9373861080c565b600161053c565b61010582826105ac565b60008061019960017fc9ed16f33ab3a66c84bfd83099ccb2a8845871e2e1c1928f63797152f0fd54cd61080c565b815473ffffffffffffffffffffffffffffffffffffffff828116911614610105576040517f08c379a000000000000000000000000000000000000000000000000000000000815260206004820152601860248201527f4f776e6572736869703a206e6f7420746865206f776e6572000000000000000060448201526064016102ec565b816103f0828261091a565b505050565b6000333214806104055750601436105b1561040f57503390565b7fffffffffffffffffffffffffffffffffffffffffffffffffffffffffffffffec36013560601c7f000000000000000000000000000000000000000000000000000000000000000073ffffffffffffffffffffffffffffffffffffffff1633148061052b57506040517f8929a8ca00000000000000000000000000000000000000000000000000000000815273ffffffffffffffffffffffffffffffffffffffff82811660048301523360248301527f00000000000000000000000000000000000000000000000000000000000000001690638929a8ca90604401602060405180830381865afa158015610507573d6000803e3d6000fd5b505050506040513d601f19601f8201168201806040525081019061052b9190610a34565b1561053557919050565b3391505090565b8154829082116105a8576040517f08c379a000000000000000000000000000000000000000000000000000000000815260206004820152601660248201527f53746f726167653a20706861736520726561636865640000000000000000000060448201526064016102ec565b5550565b816105b7828261091a565b506101057f3c130d900000000000000000000000000000000000000000000000000000000060016105e66105ed565b919061061b565b60008061019960017fca9d3e17f264b0f3984e2634e94adb37fa3e6a8103f06aeae6fa59e21c769f5e61080c565b7c01000000000000000000000000000000000000000000000000000000007fffffffff000000000000000000000000000000000000000000000000000000008316016106c3576040517f08c379a000000000000000000000000000000000000000000000000000000000815260206004820152601f60248201527f496e74657266616365446574656374696f6e3a2077726f6e672076616c75650060448201526064016102ec565b7fffffffff00000000000000000000000000000000000000000000000000000000919091166000908152602092909252604090912080547fffffffffffffffffffffffffffffffffffffffffffffffffffffffffffffff0016911515919091179055565b600060208083528351808285015260005b8181101561075457858101830151858201604001528201610738565b81811115610766576000604083870101525b50601f017fffffffffffffffffffffffffffffffffffffffffffffffffffffffffffffffe016929092016040019392505050565b600080602083850312156107ad57600080fd5b823567ffffffffffffffff808211156107c557600080fd5b818501915085601f8301126107d957600080fd5b8135818111156107e857600080fd5b8660208285010111156107fa57600080fd5b60209290920196919550909350505050565b600082821015610845577f4e487b7100000000000000000000000000000000000000000000000000000000600052601160045260246000fd5b500390565b600181811c9082168061085e57607f821691505b602082108103610897577f4e487b7100000000000000000000000000000000000000000000000000000000600052602260045260246000fd5b50919050565b7f4e487b7100000000000000000000000000000000000000000000000000000000600052604160045260246000fd5b601f8211156103f057600081815260208120601f850160051c810160208610156108f35750805b601f850160051c820191505b81811015610912578281556001016108ff565b505050505050565b815167ffffffffffffffff8111156109345761093461089d565b61094881610942845461084a565b846108cc565b602080601f83116001811461099b57600084156109655750858301515b7fffffffffffffffffffffffffffffffffffffffffffffffffffffffffffffffff600386901b1c1916600185901b178555610912565b6000858152602081207fffffffffffffffffffffffffffffffffffffffffffffffffffffffffffffffe08616915b828110156109e8578886015182559484019460019091019084016109c9565b5085821015610a2457878501517fffffffffffffffffffffffffffffffffffffffffffffffffffffffffffffffff600388901b60f8161c191681555b5050505050600190811b01905550565b600060208284031215610a4657600080fd5b81518015158114610a5657600080fd5b939250505056fea26469706673582212208257623ad46cbfeb8fa62f57664a30b7caceac5bce7f0b69af1701236561b2ff64736f6c634300080f0033",
  "linkReferences": {},
  "deployedLinkReferences": {}
}