{
  "_format": "hh-sol-artifact-1",
  "contractName": "ERC20MetadataFacet",
  "sourceName": "contracts/token/ERC20/facets/ERC20MetadataFacet.sol",
  "abi": [
    {
      "inputs": [
        {
          "internalType": "contract IForwarderRegistry",
          "name": "forwarderRegistry",
          "type": "address"
        }
      ],
      "stateMutability": "nonpayable",
      "type": "constructor"
    },
    {
      "inputs": [],
      "name": "IllegalInterfaceId",
      "type": "error"
    },
    {
      "inputs": [
        {
          "internalType": "address",
          "name": "account",
          "type": "address"
        }
      ],
      "name": "NotContractOwner",
      "type": "error"
    },
    {
      "inputs": [
        {
          "internalType": "address",
          "name": "account",
          "type": "address"
        }
      ],
      "name": "NotProxyAdmin",
      "type": "error"
    },
    {
      "inputs": [],
      "name": "initERC20MetadataStorage",
      "outputs": [],
      "stateMutability": "nonpayable",
      "type": "function"
    },
    {
      "inputs": [
        {
          "internalType": "string",
          "name": "uri",
          "type": "string"
        }
      ],
      "name": "setTokenURI",
      "outputs": [],
      "stateMutability": "nonpayable",
      "type": "function"
    },
    {
      "inputs": [],
      "name": "tokenURI",
      "outputs": [
        {
          "internalType": "string",
          "name": "",
          "type": "string"
        }
      ],
      "stateMutability": "view",
      "type": "function"
    }
  ],
  "bytecode": "0x60a060405234801561000f575f80fd5b5060405161095838038061095883398101604081905261002e9161003f565b6001600160a01b031660805261006c565b5f6020828403121561004f575f80fd5b81516001600160a01b0381168114610065575f80fd5b9392505050565b6080516108cd61008b5f395f818161037601526103fe01526108cd5ff3fe608060405234801561000f575f80fd5b506004361061003f575f3560e01c80633c130d9014610043578063529eec4714610061578063e0df5b6f1461006b575b5f80fd5b61004b61007e565b6040516100589190610580565b60405180910390f35b610069610095565b005b6100696100793660046105e9565b6100b8565b606061009061008b6100e9565b61011c565b905090565b6100ae6100a06101af565b6100a86101b8565b906101e5565b6100b6610255565b565b6100d16100c36101af565b6100cb61028a565b906102b7565b6100e582826100de6100e9565b9190610322565b5050565b5f8061011660017ff41bf6a5db26bffdfab174dcf66b31fbba8fdb7e3db040721ce1e62d61839ceb610655565b92915050565b6060815f01805461012c9061068d565b80601f01602080910402602001604051908101604052809291908181526020018280546101589061068d565b80156101a35780601f1061017a576101008083540402835291602001916101a3565b820191905f5260205f20905b81548152906001019060200180831161018657829003601f168201915b50505050509050919050565b5f610090610334565b5f8061011660017fb53127684a568b3173ae13b9f8a6016e243e63b6e8ee1178d6a717850b5d6104610655565b815473ffffffffffffffffffffffffffffffffffffffff8281169116146100e5576040517f673a31a100000000000000000000000000000000000000000000000000000000815273ffffffffffffffffffffffffffffffffffffffff821660048201526024015b60405180910390fd5b6100b67f3c130d90000000000000000000000000000000000000000000000000000000006001610283610478565b91906104a5565b5f8061011660017fc9ed16f33ab3a66c84bfd83099ccb2a8845871e2e1c1928f63797152f0fd54cd610655565b815473ffffffffffffffffffffffffffffffffffffffff8281169116146100e5576040517f2ef4875e00000000000000000000000000000000000000000000000000000000815273ffffffffffffffffffffffffffffffffffffffff8216600482015260240161024c565b8261032e828483610759565b50505050565b5f333214806103435750601836105b1561034d57503390565b7fffffffffffffffffffffffffffffffffffffffffffffffffffffffffffffffec36013560601c7f000000000000000000000000000000000000000000000000000000000000000073ffffffffffffffffffffffffffffffffffffffff1633148061046757506040517f8929a8ca00000000000000000000000000000000000000000000000000000000815273ffffffffffffffffffffffffffffffffffffffff82811660048301523360248301527f00000000000000000000000000000000000000000000000000000000000000001690638929a8ca90604401602060405180830381865afa158015610443573d5f803e3d5ffd5b505050506040513d601f19601f820116820180604052508101906104679190610871565b1561047157919050565b3391505090565b5f8061011660017fca9d3e17f264b0f3984e2634e94adb37fa3e6a8103f06aeae6fa59e21c769f5e610655565b7c01000000000000000000000000000000000000000000000000000000007fffffffff0000000000000000000000000000000000000000000000000000000083160161051d576040517f72c683bb00000000000000000000000000000000000000000000000000000000815260040160405180910390fd5b7fffffffff00000000000000000000000000000000000000000000000000000000919091165f908152602092909252604090912080547fffffffffffffffffffffffffffffffffffffffffffffffffffffffffffffff0016911515919091179055565b5f6020808352835180828501525f5b818110156105ab5785810183015185820160400152820161058f565b505f6040828601015260407fffffffffffffffffffffffffffffffffffffffffffffffffffffffffffffffe0601f8301168501019250505092915050565b5f80602083850312156105fa575f80fd5b823567ffffffffffffffff80821115610611575f80fd5b818501915085601f830112610624575f80fd5b813581811115610632575f80fd5b866020828501011115610643575f80fd5b60209290920196919550909350505050565b81810381811115610116577f4e487b71000000000000000000000000000000000000000000000000000000005f52601160045260245ffd5b600181811c908216806106a157607f821691505b6020821081036106d8577f4e487b71000000000000000000000000000000000000000000000000000000005f52602260045260245ffd5b50919050565b7f4e487b71000000000000000000000000000000000000000000000000000000005f52604160045260245ffd5b601f821115610754575f81815260208120601f850160051c810160208610156107315750805b601f850160051c820191505b818110156107505782815560010161073d565b5050505b505050565b67ffffffffffffffff831115610771576107716106de565b6107858361077f835461068d565b8361070b565b5f601f8411600181146107d5575f851561079f5750838201355b7fffffffffffffffffffffffffffffffffffffffffffffffffffffffffffffffff600387901b1c1916600186901b17835561086a565b5f838152602090207fffffffffffffffffffffffffffffffffffffffffffffffffffffffffffffffe0861690835b828110156108235786850135825560209485019460019092019101610803565b508682101561085e577fffffffffffffffffffffffffffffffffffffffffffffffffffffffffffffffff60f88860031b161c19848701351681555b505060018560011b0183555b5050505050565b5f60208284031215610881575f80fd5b81518015158114610890575f80fd5b939250505056fea2646970667358221220047ee301ed63f1e3393d4df4bf989070c15bc352b1a7f390cfbde5e26bc71e8264736f6c63430008150033",
  "linkReferences": {},
  "deployedLinkReferences": {}
}