{
  "_format": "hh-sol-artifact-1",
  "contractName": "ERC20MetadataFacet",
  "sourceName": "contracts/token/ERC20/facets/ERC20MetadataFacet.sol",
  "abi": [
    {
      "inputs": [
        {
          "internalType": "contract IForwarderRegistry",
          "name": "forwarderRegistry",
          "type": "address"
        }
      ],
      "stateMutability": "nonpayable",
      "type": "constructor"
    },
    {
      "inputs": [],
      "name": "IllegalInterfaceId",
      "type": "error"
    },
    {
      "inputs": [
        {
          "internalType": "address",
          "name": "account",
          "type": "address"
        }
      ],
      "name": "NotContractOwner",
      "type": "error"
    },
    {
      "inputs": [
        {
          "internalType": "address",
          "name": "account",
          "type": "address"
        }
      ],
      "name": "NotProxyAdmin",
      "type": "error"
    },
    {
      "inputs": [],
      "name": "initERC20MetadataStorage",
      "outputs": [],
      "stateMutability": "nonpayable",
      "type": "function"
    },
    {
      "inputs": [
        {
          "internalType": "string",
          "name": "uri",
          "type": "string"
        }
      ],
      "name": "setTokenURI",
      "outputs": [],
      "stateMutability": "nonpayable",
      "type": "function"
    },
    {
      "inputs": [],
      "name": "tokenURI",
      "outputs": [
        {
          "internalType": "string",
          "name": "",
          "type": "string"
        }
      ],
      "stateMutability": "view",
      "type": "function"
    }
  ],
  "bytecode": "0x60a0604052348015600f57600080fd5b50604051610985380380610985833981016040819052602c91603c565b6001600160a01b0316608052606a565b600060208284031215604d57600080fd5b81516001600160a01b0381168114606357600080fd5b9392505050565b6080516108f961008c60003960008181610381015261040f01526108f96000f3fe608060405234801561001057600080fd5b50600436106100415760003560e01c80633c130d9014610046578063529eec4714610064578063e0df5b6f1461006e575b600080fd5b61004e610081565b60405161005b9190610595565b60405180910390f35b61006c610098565b005b61006c61007c366004610601565b6100bb565b606061009361008e6100ec565b610120565b905090565b6100b16100a36101b6565b6100ab6101c0565b906101ee565b6100b961025e565b565b6100d46100c66101b6565b6100ce610293565b906102c1565b6100e882826100e16100ec565b919061032c565b5050565b60008061011a60017ff41bf6a5db26bffdfab174dcf66b31fbba8fdb7e3db040721ce1e62d61839ceb610675565b92915050565b6060816000018054610131906106af565b80601f016020809104026020016040519081016040528092919081815260200182805461015d906106af565b80156101aa5780601f1061017f576101008083540402835291602001916101aa565b820191906000526020600020905b81548152906001019060200180831161018d57829003601f168201915b50505050509050919050565b600061009361033e565b60008061011a60017fb53127684a568b3173ae13b9f8a6016e243e63b6e8ee1178d6a717850b5d6104610675565b815473ffffffffffffffffffffffffffffffffffffffff8281169116146100e8576040517f673a31a100000000000000000000000000000000000000000000000000000000815273ffffffffffffffffffffffffffffffffffffffff821660048201526024015b60405180910390fd5b6100b97f3c130d9000000000000000000000000000000000000000000000000000000000600161028c61048b565b91906104b9565b60008061011a60017fc9ed16f33ab3a66c84bfd83099ccb2a8845871e2e1c1928f63797152f0fd54cd610675565b815473ffffffffffffffffffffffffffffffffffffffff8281169116146100e8576040517f2ef4875e00000000000000000000000000000000000000000000000000000000815273ffffffffffffffffffffffffffffffffffffffff82166004820152602401610255565b82610338828483610780565b50505050565b60003332148061034e5750601836105b1561035857503390565b7fffffffffffffffffffffffffffffffffffffffffffffffffffffffffffffffec36013560601c7f000000000000000000000000000000000000000000000000000000000000000073ffffffffffffffffffffffffffffffffffffffff1633148061047a57506040517f019a202800000000000000000000000000000000000000000000000000000000815273ffffffffffffffffffffffffffffffffffffffff82811660048301523360248301523060448301527f0000000000000000000000000000000000000000000000000000000000000000169063019a202890606401602060405180830381865afa158015610456573d6000803e3d6000fd5b505050506040513d601f19601f8201168201806040525081019061047a919061089a565b1561048457919050565b3391505090565b60008061011a60017fca9d3e17f264b0f3984e2634e94adb37fa3e6a8103f06aeae6fa59e21c769f5e610675565b7c01000000000000000000000000000000000000000000000000000000007fffffffff00000000000000000000000000000000000000000000000000000000831601610531576040517f72c683bb00000000000000000000000000000000000000000000000000000000815260040160405180910390fd5b7fffffffff00000000000000000000000000000000000000000000000000000000919091166000908152602092909252604090912080547fffffffffffffffffffffffffffffffffffffffffffffffffffffffffffffff0016911515919091179055565b602081526000825180602084015260005b818110156105c357602081860181015160408684010152016105a6565b5060006040828501015260407fffffffffffffffffffffffffffffffffffffffffffffffffffffffffffffffe0601f83011684010191505092915050565b6000806020838503121561061457600080fd5b823567ffffffffffffffff81111561062b57600080fd5b8301601f8101851361063c57600080fd5b803567ffffffffffffffff81111561065357600080fd5b85602082840101111561066557600080fd5b6020919091019590945092505050565b8181038181111561011a577f4e487b7100000000000000000000000000000000000000000000000000000000600052601160045260246000fd5b600181811c908216806106c357607f821691505b6020821081036106fc577f4e487b7100000000000000000000000000000000000000000000000000000000600052602260045260246000fd5b50919050565b7f4e487b7100000000000000000000000000000000000000000000000000000000600052604160045260246000fd5b601f82111561077b57806000526020600020601f840160051c810160208510156107585750805b601f840160051c820191505b818110156107785760008155600101610764565b50505b505050565b67ffffffffffffffff83111561079857610798610702565b6107ac836107a683546106af565b83610731565b6000601f8411600181146107fe57600085156107c85750838201355b7fffffffffffffffffffffffffffffffffffffffffffffffffffffffffffffffff600387901b1c1916600186901b178355610778565b6000838152602090207fffffffffffffffffffffffffffffffffffffffffffffffffffffffffffffffe0861690835b8281101561084d578685013582556020948501946001909201910161082d565b5086821015610888577fffffffffffffffffffffffffffffffffffffffffffffffffffffffffffffffff60f88860031b161c19848701351681555b505060018560011b0183555050505050565b6000602082840312156108ac57600080fd5b815180151581146108bc57600080fd5b939250505056fea26469706673582212203f03c8b031d7bb6d8297ac608532d4fbca8861ddef00bf9a2ba90047b59559c564736f6c634300081c0033",
  "linkReferences": {},
  "deployedLinkReferences": {}
}