{
  "_format": "hh-sol-artifact-1",
  "contractName": "ERC1155Mock",
  "sourceName": "contracts/mocks/token/ERC1155/ERC1155Mock.sol",
  "abi": [
    {
      "inputs": [
        {
          "internalType": "string",
          "name": "baseMetadataURI",
          "type": "string"
        },
        {
          "internalType": "contract IForwarderRegistry",
          "name": "forwarderRegistry",
          "type": "address"
        }
      ],
      "stateMutability": "nonpayable",
      "type": "constructor"
    },
    {
      "anonymous": false,
      "inputs": [
        {
          "indexed": true,
          "internalType": "address",
          "name": "owner",
          "type": "address"
        },
        {
          "indexed": true,
          "internalType": "address",
          "name": "operator",
          "type": "address"
        },
        {
          "indexed": false,
          "internalType": "bool",
          "name": "approved",
          "type": "bool"
        }
      ],
      "name": "ApprovalForAll",
      "type": "event"
    },
    {
      "anonymous": false,
      "inputs": [
        {
          "indexed": false,
          "internalType": "string",
          "name": "baseMetadataURI",
          "type": "string"
        }
      ],
      "name": "BaseMetadataURISet",
      "type": "event"
    },
    {
      "anonymous": false,
      "inputs": [
        {
          "indexed": true,
          "internalType": "address",
          "name": "previousOwner",
          "type": "address"
        },
        {
          "indexed": true,
          "internalType": "address",
          "name": "newOwner",
          "type": "address"
        }
      ],
      "name": "OwnershipTransferred",
      "type": "event"
    },
    {
      "anonymous": false,
      "inputs": [
        {
          "indexed": false,
          "internalType": "bytes32",
          "name": "role",
          "type": "bytes32"
        },
        {
          "indexed": false,
          "internalType": "address",
          "name": "account",
          "type": "address"
        },
        {
          "indexed": false,
          "internalType": "address",
          "name": "operator",
          "type": "address"
        }
      ],
      "name": "RoleGranted",
      "type": "event"
    },
    {
      "anonymous": false,
      "inputs": [
        {
          "indexed": false,
          "internalType": "bytes32",
          "name": "role",
          "type": "bytes32"
        },
        {
          "indexed": false,
          "internalType": "address",
          "name": "account",
          "type": "address"
        },
        {
          "indexed": false,
          "internalType": "address",
          "name": "operator",
          "type": "address"
        }
      ],
      "name": "RoleRevoked",
      "type": "event"
    },
    {
      "anonymous": false,
      "inputs": [
        {
          "indexed": true,
          "internalType": "address",
          "name": "operator",
          "type": "address"
        },
        {
          "indexed": true,
          "internalType": "address",
          "name": "from",
          "type": "address"
        },
        {
          "indexed": true,
          "internalType": "address",
          "name": "to",
          "type": "address"
        },
        {
          "indexed": false,
          "internalType": "uint256[]",
          "name": "ids",
          "type": "uint256[]"
        },
        {
          "indexed": false,
          "internalType": "uint256[]",
          "name": "values",
          "type": "uint256[]"
        }
      ],
      "name": "TransferBatch",
      "type": "event"
    },
    {
      "anonymous": false,
      "inputs": [
        {
          "indexed": true,
          "internalType": "address",
          "name": "operator",
          "type": "address"
        },
        {
          "indexed": true,
          "internalType": "address",
          "name": "from",
          "type": "address"
        },
        {
          "indexed": true,
          "internalType": "address",
          "name": "to",
          "type": "address"
        },
        {
          "indexed": false,
          "internalType": "uint256",
          "name": "id",
          "type": "uint256"
        },
        {
          "indexed": false,
          "internalType": "uint256",
          "name": "value",
          "type": "uint256"
        }
      ],
      "name": "TransferSingle",
      "type": "event"
    },
    {
      "anonymous": false,
      "inputs": [
        {
          "indexed": false,
          "internalType": "string",
          "name": "value",
          "type": "string"
        },
        {
          "indexed": true,
          "internalType": "uint256",
          "name": "id",
          "type": "uint256"
        }
      ],
      "name": "URI",
      "type": "event"
    },
    {
      "inputs": [],
      "name": "MINTER_ROLE",
      "outputs": [
        {
          "internalType": "bytes32",
          "name": "",
          "type": "bytes32"
        }
      ],
      "stateMutability": "view",
      "type": "function"
    },
    {
      "inputs": [],
      "name": "__msgData",
      "outputs": [
        {
          "internalType": "bytes",
          "name": "",
          "type": "bytes"
        }
      ],
      "stateMutability": "view",
      "type": "function"
    },
    {
      "inputs": [
        {
          "internalType": "address",
          "name": "owner",
          "type": "address"
        },
        {
          "internalType": "uint256",
          "name": "id",
          "type": "uint256"
        }
      ],
      "name": "balanceOf",
      "outputs": [
        {
          "internalType": "uint256",
          "name": "balance",
          "type": "uint256"
        }
      ],
      "stateMutability": "view",
      "type": "function"
    },
    {
      "inputs": [
        {
          "internalType": "address[]",
          "name": "owners",
          "type": "address[]"
        },
        {
          "internalType": "uint256[]",
          "name": "ids",
          "type": "uint256[]"
        }
      ],
      "name": "balanceOfBatch",
      "outputs": [
        {
          "internalType": "uint256[]",
          "name": "balances",
          "type": "uint256[]"
        }
      ],
      "stateMutability": "view",
      "type": "function"
    },
    {
      "inputs": [],
      "name": "baseMetadataURI",
      "outputs": [
        {
          "internalType": "string",
          "name": "baseURI",
          "type": "string"
        }
      ],
      "stateMutability": "view",
      "type": "function"
    },
    {
      "inputs": [],
      "name": "forwarderRegistry",
      "outputs": [
        {
          "internalType": "contract IForwarderRegistry",
          "name": "",
          "type": "address"
        }
      ],
      "stateMutability": "view",
      "type": "function"
    },
    {
      "inputs": [
        {
          "internalType": "bytes32",
          "name": "role",
          "type": "bytes32"
        },
        {
          "internalType": "address",
          "name": "account",
          "type": "address"
        }
      ],
      "name": "grantRole",
      "outputs": [],
      "stateMutability": "nonpayable",
      "type": "function"
    },
    {
      "inputs": [
        {
          "internalType": "bytes32",
          "name": "role",
          "type": "bytes32"
        },
        {
          "internalType": "address",
          "name": "account",
          "type": "address"
        }
      ],
      "name": "hasRole",
      "outputs": [
        {
          "internalType": "bool",
          "name": "",
          "type": "bool"
        }
      ],
      "stateMutability": "view",
      "type": "function"
    },
    {
      "inputs": [
        {
          "internalType": "address",
          "name": "owner",
          "type": "address"
        },
        {
          "internalType": "address",
          "name": "operator",
          "type": "address"
        }
      ],
      "name": "isApprovedForAll",
      "outputs": [
        {
          "internalType": "bool",
          "name": "approvedForAll",
          "type": "bool"
        }
      ],
      "stateMutability": "view",
      "type": "function"
    },
    {
      "inputs": [
        {
          "internalType": "address",
          "name": "forwarder",
          "type": "address"
        }
      ],
      "name": "isTrustedForwarder",
      "outputs": [
        {
          "internalType": "bool",
          "name": "",
          "type": "bool"
        }
      ],
      "stateMutability": "view",
      "type": "function"
    },
    {
      "inputs": [],
      "name": "owner",
      "outputs": [
        {
          "internalType": "address",
          "name": "",
          "type": "address"
        }
      ],
      "stateMutability": "view",
      "type": "function"
    },
    {
      "inputs": [
        {
          "internalType": "bytes32",
          "name": "role",
          "type": "bytes32"
        }
      ],
      "name": "renounceRole",
      "outputs": [],
      "stateMutability": "nonpayable",
      "type": "function"
    },
    {
      "inputs": [
        {
          "internalType": "bytes32",
          "name": "role",
          "type": "bytes32"
        },
        {
          "internalType": "address",
          "name": "account",
          "type": "address"
        }
      ],
      "name": "revokeRole",
      "outputs": [],
      "stateMutability": "nonpayable",
      "type": "function"
    },
    {
      "inputs": [
        {
          "internalType": "address",
          "name": "to",
          "type": "address"
        },
        {
          "internalType": "uint256[]",
          "name": "ids",
          "type": "uint256[]"
        },
        {
          "internalType": "uint256[]",
          "name": "values",
          "type": "uint256[]"
        },
        {
          "internalType": "bytes",
          "name": "data",
          "type": "bytes"
        }
      ],
      "name": "safeBatchMint",
      "outputs": [],
      "stateMutability": "nonpayable",
      "type": "function"
    },
    {
      "inputs": [
        {
          "internalType": "address",
          "name": "from",
          "type": "address"
        },
        {
          "internalType": "address",
          "name": "to",
          "type": "address"
        },
        {
          "internalType": "uint256[]",
          "name": "ids",
          "type": "uint256[]"
        },
        {
          "internalType": "uint256[]",
          "name": "values",
          "type": "uint256[]"
        },
        {
          "internalType": "bytes",
          "name": "data",
          "type": "bytes"
        }
      ],
      "name": "safeBatchTransferFrom",
      "outputs": [],
      "stateMutability": "nonpayable",
      "type": "function"
    },
    {
      "inputs": [
        {
          "internalType": "address[]",
          "name": "recipients",
          "type": "address[]"
        },
        {
          "internalType": "uint256[]",
          "name": "ids",
          "type": "uint256[]"
        },
        {
          "internalType": "uint256[]",
          "name": "values",
          "type": "uint256[]"
        },
        {
          "internalType": "bytes",
          "name": "data",
          "type": "bytes"
        }
      ],
      "name": "safeDeliver",
      "outputs": [],
      "stateMutability": "nonpayable",
      "type": "function"
    },
    {
      "inputs": [
        {
          "internalType": "address",
          "name": "to",
          "type": "address"
        },
        {
          "internalType": "uint256",
          "name": "id",
          "type": "uint256"
        },
        {
          "internalType": "uint256",
          "name": "value",
          "type": "uint256"
        },
        {
          "internalType": "bytes",
          "name": "data",
          "type": "bytes"
        }
      ],
      "name": "safeMint",
      "outputs": [],
      "stateMutability": "nonpayable",
      "type": "function"
    },
    {
      "inputs": [
        {
          "internalType": "address",
          "name": "from",
          "type": "address"
        },
        {
          "internalType": "address",
          "name": "to",
          "type": "address"
        },
        {
          "internalType": "uint256",
          "name": "id",
          "type": "uint256"
        },
        {
          "internalType": "uint256",
          "name": "value",
          "type": "uint256"
        },
        {
          "internalType": "bytes",
          "name": "data",
          "type": "bytes"
        }
      ],
      "name": "safeTransferFrom",
      "outputs": [],
      "stateMutability": "nonpayable",
      "type": "function"
    },
    {
      "inputs": [
        {
          "internalType": "address",
          "name": "operator",
          "type": "address"
        },
        {
          "internalType": "bool",
          "name": "approved",
          "type": "bool"
        }
      ],
      "name": "setApprovalForAll",
      "outputs": [],
      "stateMutability": "nonpayable",
      "type": "function"
    },
    {
      "inputs": [
        {
          "internalType": "string",
          "name": "baseURI",
          "type": "string"
        }
      ],
      "name": "setBaseMetadataURI",
      "outputs": [],
      "stateMutability": "nonpayable",
      "type": "function"
    },
    {
      "inputs": [
        {
          "internalType": "bytes4",
          "name": "interfaceId",
          "type": "bytes4"
        }
      ],
      "name": "supportsInterface",
      "outputs": [
        {
          "internalType": "bool",
          "name": "",
          "type": "bool"
        }
      ],
      "stateMutability": "view",
      "type": "function"
    },
    {
      "inputs": [
        {
          "internalType": "address",
          "name": "newOwner",
          "type": "address"
        }
      ],
      "name": "transferOwnership",
      "outputs": [],
      "stateMutability": "nonpayable",
      "type": "function"
    },
    {
      "inputs": [
        {
          "internalType": "uint256",
          "name": "id",
          "type": "uint256"
        }
      ],
      "name": "uri",
      "outputs": [
        {
          "internalType": "string",
          "name": "metadataURI",
          "type": "string"
        }
      ],
      "stateMutability": "view",
      "type": "function"
    }
  ],
  "bytecode": "0x60a06040523480156200001157600080fd5b5060405162003d6a38038062003d6a833981016040819052620000349162000408565b81818080336200004e6200010360201b620009be1760201c565b6200007c81620000686200013d60201b620009f51760201c565b6200017360201b62000a231790919060201c565b5062000092620001f160201b62000ad91760201c565b6001600160a01b031660805250620000b7905062000214602090811b62000b0717901c565b620000cc6200023760201b62000b351760201c565b620000fa81620000e66200025a60201b62000b631760201c565b6200028a60201b62000b911790919060201c565b50505062000687565b6200013b636cdb3d1360e11b600162000126620002a460201b62000b9b1760201c565b620002d460201b62000bc9179092919060201c565b565b6000806200016d60017fc9ed16f33ab3a66c84bfd83099ccb2a8845871e2e1c1928f63797152f0fd54cd620004d5565b92915050565b6001600160a01b03811615620001ca5781546001600160a01b0319166001600160a01b03821690811783556040516000907f8be0079c531659141344cd1fd0a4f28419497f9722a3daafe3b4186f6b6457e0908290a35b620001ed6307f5828d60e41b600162000126620002a460201b62000b9b1760201c565b5050565b6200013b631464324b60e21b600162000126620002a460201b62000b9b1760201c565b6200013b633a2ae73360e21b600162000126620002a460201b62000b9b1760201c565b6200013b6303a24d0760e21b600162000126620002a460201b62000b9b1760201c565b6000806200016d60017fe94434e3c6b941c5d90218142fadcc69cb2e13723993540bfa1c131dd1d3475a620004d5565b620001ed81836200036460201b62000cda1790919060201c565b6000806200016d60017fca9d3e17f264b0f3984e2634e94adb37fa3e6a8103f06aeae6fa59e21c769f5e620004d5565b600160e01b6001600160e01b0319831601620003365760405162461bcd60e51b815260206004820152601f60248201527f496e74657266616365446574656374696f6e3a2077726f6e672076616c756500604482015260640160405180910390fd5b6001600160e01b03199190911660009081526020929092526040909120805460ff1916911515919091179055565b8162000371828262000586565b507f04b1dc5c136a3ce9fded8db0ce3d3366c58764ec3a8e4c2b9e52e4ddfe5ebbf781604051620003a3919062000652565b60405180910390a15050565b634e487b7160e01b600052604160045260246000fd5b60005b83811015620003e2578181015183820152602001620003c8565b50506000910152565b80516001600160a01b03811681146200040357600080fd5b919050565b600080604083850312156200041c57600080fd5b82516001600160401b03808211156200043457600080fd5b818501915085601f8301126200044957600080fd5b8151818111156200045e576200045e620003af565b604051601f8201601f19908116603f01168101908382118183101715620004895762000489620003af565b81604052828152886020848701011115620004a357600080fd5b620004b6836020830160208801620003c5565b8096505050505050620004cc60208401620003eb565b90509250929050565b818103818111156200016d57634e487b7160e01b600052601160045260246000fd5b600181811c908216806200050c57607f821691505b6020821081036200052d57634e487b7160e01b600052602260045260246000fd5b50919050565b601f8211156200058157600081815260208120601f850160051c810160208610156200055c5750805b601f850160051c820191505b818110156200057d5782815560010162000568565b5050505b505050565b81516001600160401b03811115620005a257620005a2620003af565b620005ba81620005b38454620004f7565b8462000533565b602080601f831160018114620005f25760008415620005d95750858301515b600019600386901b1c1916600185901b1785556200057d565b600085815260208120601f198616915b82811015620006235788860151825594840194600190910190840162000602565b5085821015620006425787850151600019600388901b60f8161c191681555b5050505050600190811b01905550565b602081526000825180602084015262000673816040850160208701620003c5565b601f01601f19169190910160400192915050565b6080516136a4620006c660003960008181610211015281816102c20152818161275e015281816127e60152818161289901526128d701526136a46000f3fe608060405234801561001057600080fd5b506004361061018c5760003560e01c80635cfa9297116100e3578063d53913931161008c578063e985e9c511610066578063e985e9c5146103bb578063f242432a146103ce578063f2fde38b146103e157600080fd5b8063d53913931461036e578063d547741f14610395578063e8ab9ccc146103a857600080fd5b80638da5cb5b116100bd5780638da5cb5b1461034057806391d1485414610348578063a22cb4651461035b57600080fd5b80635cfa9297146103075780637e518ec81461031a5780638bb9c5bf1461032d57600080fd5b80632eb2c2d6116101455780634e1273f41161011f5780634e1273f414610292578063572b6c05146102b25780635b2bd79e146102ff57600080fd5b80632eb2c2d6146102565780632f2ff15d1461026957806331e66e1e1461027c57600080fd5b80630d6a5bbb116101765780630d6a5bbb146101da5780630e89341c146101ef5780632b4c9f161461020f57600080fd5b8062fdd58e1461019157806301ffc9a7146101b7575b600080fd5b6101a461019f366004612a26565b6103f4565b6040519081526020015b60405180910390f35b6101ca6101c5366004612a7e565b610413565b60405190151581526020016101ae565b6101ed6101e8366004612b30565b610427565b005b6102026101fd366004612bdb565b610522565b6040516101ae9190612c62565b7f00000000000000000000000000000000000000000000000000000000000000005b60405173ffffffffffffffffffffffffffffffffffffffff90911681526020016101ae565b6101ed610264366004612c75565b610536565b6101ed610277366004612d30565b61055f565b610284610598565b6040516101ae929190612d5c565b6102a56102a0366004612da9565b6105ab565b6040516101ae9190612e50565b6101ca6102c0366004612e63565b7f000000000000000000000000000000000000000000000000000000000000000073ffffffffffffffffffffffffffffffffffffffff90811691161490565b61020261062e565b6101ed610315366004612e7e565b610645565b6101ed610328366004612ee6565b6106d7565b6101ed61033b366004612bdb565b610737565b610231610755565b6101ca610356366004612d30565b61077c565b6101ed610369366004612f36565b6107c0565b6101a47f6d696e746572000000000000000000000000000000000000000000000000000081565b6101ed6103a3366004612d30565b6107dd565b6101ed6103b6366004612f6d565b61080b565b6101ca6103c9366004613010565b610930565b6101ed6103dc36600461303a565b61097e565b6101ed6103ef366004612e63565b6109a3565b600061040a8383610403610d21565b9190610d4f565b90505b92915050565b600061040d82610421610b9b565b90610e03565b6000610431610edd565b90506104677f6d696e746572000000000000000000000000000000000000000000000000000082610460610ee7565b9190610f15565b610518818989898080602002602001604051908101604052809392919081815260200183836020028082843760009201919091525050604080516020808d0282810182019093528c82529093508c92508b91829185019084908082843760009201919091525050604080516020601f8c018190048102820181019092528a815292508a915089908190840183828082843760009201919091525061050e9250610d21915050565b9493929190610fc1565b5050505050505050565b606061040d82610530610b63565b906111af565b610518610541610edd565b8989898989898989610551610d21565b9897969594939291906111e3565b6000610569610edd565b905061057d816105776109f5565b906114db565b61059383838361058b610ee7565b92919061155e565b505050565b3660006105a3611635565b915091509091565b60606106258585808060200260200160405190810160405280939291908181526020018383602002808284376000920191909152505060408051602080890282810182019093528882529093508892508791829185019084908082843760009201919091525061061e9250610d21915050565b9190611640565b95945050505050565b606061064061063b610b63565b611775565b905090565b600061064f610edd565b905061067e7f6d696e746572000000000000000000000000000000000000000000000000000082610460610ee7565b6106cf8187878787878080601f0160208091040260200160405190810160405280939291908181526020018383808284376000920191909152506106c59250610d21915050565b949392919061180b565b505050505050565b6106ea6106e2610edd565b6105776109f5565b61073382828080601f01602080910402602001604051908101604052809392919081815260200183838082843760009201919091525061072d9250610b63915050565b90610cda565b5050565b610752610742610edd565b8261074b610ee7565b9190611919565b50565b60006106406107626109f5565b5473ffffffffffffffffffffffffffffffffffffffff1690565b600061040a838361078b610ee7565b60009283526020908152604080842073ffffffffffffffffffffffffffffffffffffffff909316845291905290205460ff1690565b6107336107cb610edd565b83836107d5610d21565b9291906119bd565b60006107e7610edd565b90506107f5816105776109f5565b610593838383610803610ee7565b929190611aed565b6000610815610edd565b90506108447f6d696e746572000000000000000000000000000000000000000000000000000082610460610ee7565b610925818a8a8080602002602001604051908101604052809392919081815260200183836020028082843760009201919091525050604080516020808e0282810182019093528d82529093508d92508c91829185019084908082843760009201919091525050604080516020808d0282810182019093528c82529093508c92508b91829185019084908082843760009201919091525050604080516020601f8c018190048102820181019092528a815292508a915089908190840183828082843760009201919091525061091b9250610d21915050565b9493929190611bb7565b505050505050505050565b600061040a838361093f610d21565b919073ffffffffffffffffffffffffffffffffffffffff9182166000908152600193909301602090815260408085209290931684525290205460ff1690565b6106cf610989610edd565b878787878787610997610d21565b96959493929190611ca7565b6107526109ae610edd565b826109b76109f5565b9190611e8a565b6109f37fd9b67a260000000000000000000000000000000000000000000000000000000060016109ec610b9b565b9190610bc9565b565b60008061040d60017fc9ed16f33ab3a66c84bfd83099ccb2a8845871e2e1c1928f63797152f0fd54cd6130e1565b73ffffffffffffffffffffffffffffffffffffffff811615610aab5781547fffffffffffffffffffffffff00000000000000000000000000000000000000001673ffffffffffffffffffffffffffffffffffffffff821690811783556040516000907f8be0079c531659141344cd1fd0a4f28419497f9722a3daafe3b4186f6b6457e0908290a35b6107337f7f5828d00000000000000000000000000000000000000000000000000000000060016109ec610b9b565b6109f37f5190c92c0000000000000000000000000000000000000000000000000000000060016109ec610b9b565b6109f37fe8ab9ccc0000000000000000000000000000000000000000000000000000000060016109ec610b9b565b6109f37f0e89341c0000000000000000000000000000000000000000000000000000000060016109ec610b9b565b60008061040d60017fe94434e3c6b941c5d90218142fadcc69cb2e13723993540bfa1c131dd1d3475a6130e1565b6107338282610cda565b60008061040d60017fca9d3e17f264b0f3984e2634e94adb37fa3e6a8103f06aeae6fa59e21c769f5e6130e1565b7c01000000000000000000000000000000000000000000000000000000007fffffffff00000000000000000000000000000000000000000000000000000000831601610c76576040517f08c379a000000000000000000000000000000000000000000000000000000000815260206004820152601f60248201527f496e74657266616365446574656374696f6e3a2077726f6e672076616c75650060448201526064015b60405180910390fd5b7fffffffff00000000000000000000000000000000000000000000000000000000919091166000908152602092909252604090912080547fffffffffffffffffffffffffffffffffffffffffffffffffffffffffffffff0016911515919091179055565b81610ce582826131bc565b507f04b1dc5c136a3ce9fded8db0ce3d3366c58764ec3a8e4c2b9e52e4ddfe5ebbf781604051610d159190612c62565b60405180910390a15050565b60008061040d60017f5ccf5846fa27a68fafc8e588671a68f5e67c2f9b56af4263806a4d71735e86136130e1565b600073ffffffffffffffffffffffffffffffffffffffff8316610dce576040517f08c379a000000000000000000000000000000000000000000000000000000000815260206004820152601e60248201527f455243313135353a2062616c616e6365206f66206164647265737328302900006044820152606401610c6d565b5060009081526020928352604080822073ffffffffffffffffffffffffffffffffffffffff9390931682529190925290205490565b60007c01000000000000000000000000000000000000000000000000000000007fffffffff00000000000000000000000000000000000000000000000000000000831601610e535750600061040d565b7ffe003659000000000000000000000000000000000000000000000000000000007fffffffff00000000000000000000000000000000000000000000000000000000831601610ea45750600161040d565b507fffffffff00000000000000000000000000000000000000000000000000000000166000908152602091909152604090205460ff1690565b6000610640611fb6565b60008061040d60017fc8827d3282af6f37b64c3e9e6f3ac9df286ab0bb0fccd6f8661bf19adb368b236130e1565b60008281526020848152604080832073ffffffffffffffffffffffffffffffffffffffff8516845290915290205460ff1661059357610f5382611fc0565b604051602001610f6391906132d6565b604080517fffffffffffffffffffffffffffffffffffffffffffffffffffffffffffffffe0818403018152908290527f08c379a0000000000000000000000000000000000000000000000000000000008252610c6d91600401612c62565b73ffffffffffffffffffffffffffffffffffffffff841661103e576040517f08c379a000000000000000000000000000000000000000000000000000000000815260206004820152601b60248201527f455243313135353a206d696e7420746f206164647265737328302900000000006044820152606401610c6d565b8251825181146110aa576040517f08c379a000000000000000000000000000000000000000000000000000000000815260206004820152601c60248201527f455243313135353a20696e636f6e73697374656e7420617272617973000000006044820152606401610c6d565b60005b8181146110fa576110f288878784815181106110cb576110cb613342565b60200260200101518785815181106110e5576110e5613342565b6020026020010151612152565b6001016110ad565b508473ffffffffffffffffffffffffffffffffffffffff16600073ffffffffffffffffffffffffffffffffffffffff168773ffffffffffffffffffffffffffffffffffffffff167f4a39dc06d4c0dbc64b70af90fd698a233a518aa5d07e595d983b8c0526c8f7fb8787604051611172929190613371565b60405180910390a473ffffffffffffffffffffffffffffffffffffffff85163b156111a6576111a686600087878787612226565b50505050505050565b6060826111bb8361234e565b6040516020016111cc929190613396565b604051602081830303815290604052905092915050565b73ffffffffffffffffffffffffffffffffffffffff8716611260576040517f08c379a000000000000000000000000000000000000000000000000000000000815260206004820152601f60248201527f455243313135353a207472616e7366657220746f2061646472657373283029006044820152606401610c6d565b848381146112ca576040517f08c379a000000000000000000000000000000000000000000000000000000000815260206004820152601c60248201527f455243313135353a20696e636f6e73697374656e7420617272617973000000006044820152606401610c6d565b6112d58b8a8c61248b565b61133b576040517f08c379a000000000000000000000000000000000000000000000000000000000815260206004820152601c60248201527f455243313135353a206e6f6e2d617070726f7665642073656e646572000000006044820152606401610c6d565b60005b81811461138a576113828c8b8b8b8b8681811061135d5761135d613342565b905060200201358a8a8781811061137657611376613342565b90506020020135612500565b60010161133e565b508773ffffffffffffffffffffffffffffffffffffffff168973ffffffffffffffffffffffffffffffffffffffff168b73ffffffffffffffffffffffffffffffffffffffff167f4a39dc06d4c0dbc64b70af90fd698a233a518aa5d07e595d983b8c0526c8f7fb8a8a8a8a6040516114059493929190613486565b60405180910390a473ffffffffffffffffffffffffffffffffffffffff88163b156114ce576114ce8a8a8a8a8a8080602002602001604051908101604052809392919081815260200183836020028082843760009201919091525050604080516020808e0282810182019093528d82529093508d92508c91829185019084908082843760009201919091525050604080516020601f8d018190048102820181019092528b815292508b91508a908190840183828082843760009201919091525061222692505050565b5050505050505050505050565b815473ffffffffffffffffffffffffffffffffffffffff828116911614610733576040517f08c379a000000000000000000000000000000000000000000000000000000000815260206004820152601860248201527f4f776e6572736869703a206e6f7420746865206f776e657200000000000000006044820152606401610c6d565b60008381526020858152604080832073ffffffffffffffffffffffffffffffffffffffff8616845290915290205460ff1661162f5760008381526020858152604080832073ffffffffffffffffffffffffffffffffffffffff8681168086529184529382902080547fffffffffffffffffffffffffffffffffffffffffffffffffffffffffffffff00166001179055815187815292830152918316918101919091527f2f8788117e7eff1d82e926ec794901d17c78024a50270940304540a733656f0d906060015b60405180910390a15b50505050565b3660006105a36126b4565b815181516060919081146116b0576040517f08c379a000000000000000000000000000000000000000000000000000000000815260206004820152601c60248201527f455243313135353a20696e636f6e73697374656e7420617272617973000000006044820152606401610c6d565b835167ffffffffffffffff8111156116ca576116ca6130f4565b6040519080825280602002602001820160405280156116f3578160200160208202803683370190505b50915060005b81811461176c5761174785828151811061171557611715613342565b602002602001015185838151811061172f5761172f613342565b602002602001015188610d4f9092919063ffffffff16565b83828151811061175957611759613342565b60209081029190910101526001016116f9565b50509392505050565b606081600001805461178690613123565b80601f01602080910402602001604051908101604052809291908181526020018280546117b290613123565b80156117ff5780601f106117d4576101008083540402835291602001916117ff565b820191906000526020600020905b8154815290600101906020018083116117e257829003601f168201915b50505050509050919050565b73ffffffffffffffffffffffffffffffffffffffff8416611888576040517f08c379a000000000000000000000000000000000000000000000000000000000815260206004820152601b60248201527f455243313135353a206d696e7420746f206164647265737328302900000000006044820152606401610c6d565b61189486858585612152565b604080518481526020810184905273ffffffffffffffffffffffffffffffffffffffff80871692600092918916917fc3d58168c5ae7397731d063d5bbf3d657854427343f4c083240f7aacaa2d0f62910160405180910390a473ffffffffffffffffffffffffffffffffffffffff84163b156106cf576106cf856000868686866126bf565b611924838284610f15565b60008181526020848152604080832073ffffffffffffffffffffffffffffffffffffffff86168085529083529281902080547fffffffffffffffffffffffffffffffffffffffffffffffffffffffffffffff0016905580518481529182018390528101919091527ff6391f5c32d9c69d2a47ea670b442974b53935d1edc7fd64eb21e047a839171b9060600160405180910390a1505050565b8273ffffffffffffffffffffffffffffffffffffffff168273ffffffffffffffffffffffffffffffffffffffff1603611a52576040517f08c379a000000000000000000000000000000000000000000000000000000000815260206004820152601e60248201527f455243313135353a2073656c662d617070726f76616c20666f7220616c6c00006044820152606401610c6d565b73ffffffffffffffffffffffffffffffffffffffff838116600081815260018701602090815260408083209487168084529482529182902080547fffffffffffffffffffffffffffffffffffffffffffffffffffffffffffffff001686151590811790915591519182527f17307eab39ab6107e8899845ad3d59bd9653f200f220920489ca2b5937696c31910160405180910390a350505050565b60008381526020858152604080832073ffffffffffffffffffffffffffffffffffffffff8616845290915290205460ff161561162f5760008381526020858152604080832073ffffffffffffffffffffffffffffffffffffffff8681168086529184529382902080547fffffffffffffffffffffffffffffffffffffffffffffffffffffffffffffff00169055815187815292830152918316918101919091527ff6391f5c32d9c69d2a47ea670b442974b53935d1edc7fd64eb21e047a839171b90606001611626565b8351835181148015611bc95750825181145b611c2f576040517f08c379a000000000000000000000000000000000000000000000000000000000815260206004820152601c60248201527f455243313135353a20696e636f6e73697374656e7420617272617973000000006044820152606401610c6d565b60005b81811461051857611c9f87878381518110611c4f57611c4f613342565b6020026020010151878481518110611c6957611c69613342565b6020026020010151878581518110611c8357611c83613342565b6020026020010151878d61180b9095949392919063ffffffff16565b600101611c32565b73ffffffffffffffffffffffffffffffffffffffff8516611d24576040517f08c379a000000000000000000000000000000000000000000000000000000000815260206004820152601f60248201527f455243313135353a207472616e7366657220746f2061646472657373283029006044820152606401610c6d565b611d2f88878961248b565b611d95576040517f08c379a000000000000000000000000000000000000000000000000000000000815260206004820152601c60248201527f455243313135353a206e6f6e2d617070726f7665642073656e646572000000006044820152606401610c6d565b611da28887878787612500565b8473ffffffffffffffffffffffffffffffffffffffff168673ffffffffffffffffffffffffffffffffffffffff168873ffffffffffffffffffffffffffffffffffffffff167fc3d58168c5ae7397731d063d5bbf3d657854427343f4c083240f7aacaa2d0f628787604051611e21929190918252602082015260400190565b60405180910390a473ffffffffffffffffffffffffffffffffffffffff85163b1561051857610518878787878787878080601f0160208091040260200160405190810160405280939291908181526020018383808284376000920191909152506126bf92505050565b825473ffffffffffffffffffffffffffffffffffffffff9081169083168114611f0f576040517f08c379a000000000000000000000000000000000000000000000000000000000815260206004820152601860248201527f4f776e6572736869703a206e6f7420746865206f776e657200000000000000006044820152606401610c6d565b8173ffffffffffffffffffffffffffffffffffffffff168173ffffffffffffffffffffffffffffffffffffffff161461162f5783547fffffffffffffffffffffffff00000000000000000000000000000000000000001673ffffffffffffffffffffffffffffffffffffffff8381169182178655604051908316907f8be0079c531659141344cd1fd0a4f28419497f9722a3daafe3b4186f6b6457e090600090a350505050565b600061064061271b565b60606000829003611fdf57505060408051602081019091526000815290565b600082604051602001611ff491815260200190565b604080517fffffffffffffffffffffffffffffffffffffffffffffffffffffffffffffffe08184030181529190529050601f5b81818151811061203957612039613342565b01602001517fff000000000000000000000000000000000000000000000000000000000000001660000361208e577fffffffffffffffffffffffffffffffffffffffffffffffffffffffffffffffff01612027565b60008160010167ffffffffffffffff8111156120ac576120ac6130f4565b6040519080825280601f01601f1916602001820160405280156120d6576020820181803683370190505b50905060005b828111612149578381815181106120f5576120f5613342565b602001015160f81c60f81b82828151811061211257612112613342565b60200101907effffffffffffffffffffffffffffffffffffffffffffffffffffffffffffff1916908160001a9053506001016120dc565b50949350505050565b801561162f5760008281526020858152604080832073ffffffffffffffffffffffffffffffffffffffff871684529091529020548181018181116121f2576040517f08c379a000000000000000000000000000000000000000000000000000000000815260206004820152601960248201527f455243313135353a2062616c616e6365206f766572666c6f77000000000000006044820152606401610c6d565b60009384526020958652604080852073ffffffffffffffffffffffffffffffffffffffff9690961685529490955250502055565b6040517fbc197c81000000000000000000000000000000000000000000000000000000008082529073ffffffffffffffffffffffffffffffffffffffff86169063bc197c8190612282908a908a908990899089906004016134b8565b6020604051808303816000875af11580156122a1573d6000803e3d6000fd5b505050506040513d601f19601f820116820180604052508101906122c59190613523565b7fffffffff0000000000000000000000000000000000000000000000000000000016146106cf576040517f08c379a000000000000000000000000000000000000000000000000000000000815260206004820152601a60248201527f455243313135353a207472616e736665722072656a65637465640000000000006044820152606401610c6d565b60608160000361239157505060408051808201909152600181527f3000000000000000000000000000000000000000000000000000000000000000602082015290565b8160005b81156123bb57806123a581613540565b91506123b49050600a836135a7565b9150612395565b60008167ffffffffffffffff8111156123d6576123d66130f4565b6040519080825280601f01601f191660200182016040528015612400576020820181803683370190505b5090505b8415612483576124156001836130e1565b9150612422600a866135bb565b61242d9060306135cf565b60f81b81838151811061244257612442613342565b60200101907effffffffffffffffffffffffffffffffffffffffffffffffffffffffffffff1916908160001a90535061247c600a866135a7565b9450612404565b949350505050565b60008173ffffffffffffffffffffffffffffffffffffffff168373ffffffffffffffffffffffffffffffffffffffff16148061248357505073ffffffffffffffffffffffffffffffffffffffff9182166000908152600193909301602090815260408085209290931684525290205460ff1690565b80156126ad5760008281526020868152604080832073ffffffffffffffffffffffffffffffffffffffff881684529091529020548181038181106125a0576040517f08c379a000000000000000000000000000000000000000000000000000000000815260206004820152601d60248201527f455243313135353a20696e73756666696369656e742062616c616e63650000006044820152606401610c6d565b8473ffffffffffffffffffffffffffffffffffffffff168673ffffffffffffffffffffffffffffffffffffffff16146111a65760008481526020888152604080832073ffffffffffffffffffffffffffffffffffffffff8916845290915290205483810181811161266d576040517f08c379a000000000000000000000000000000000000000000000000000000000815260206004820152601960248201527f455243313135353a2062616c616e6365206f766572666c6f77000000000000006044820152606401610c6d565b600086815260208a8152604080832073ffffffffffffffffffffffffffffffffffffffff808d1685528184528285208890558b1684529091529020555050505b5050505050565b3660006105a3612862565b6040517ff23a6e61000000000000000000000000000000000000000000000000000000008082529073ffffffffffffffffffffffffffffffffffffffff86169063f23a6e6190612282908a908a908990899089906004016135e2565b60003332148061272b5750601836105b1561273557503390565b7fffffffffffffffffffffffffffffffffffffffffffffffffffffffffffffffec36013560601c7f000000000000000000000000000000000000000000000000000000000000000073ffffffffffffffffffffffffffffffffffffffff1633148061285157506040517f8929a8ca00000000000000000000000000000000000000000000000000000000815273ffffffffffffffffffffffffffffffffffffffff82811660048301523360248301527f00000000000000000000000000000000000000000000000000000000000000001690638929a8ca90604401602060405180830381865afa15801561282d573d6000803e3d6000fd5b505050506040513d601f19601f820116820180604052508101906128519190613627565b1561285b57919050565b3391505090565b366000333214806128735750601836105b156128815750600091369150565b3373ffffffffffffffffffffffffffffffffffffffff7f00000000000000000000000000000000000000000000000000000000000000001614806129b6575073ffffffffffffffffffffffffffffffffffffffff7f000000000000000000000000000000000000000000000000000000000000000016638929a8ca367fffffffffffffffffffffffffffffffffffffffffffffffffffffffffffffffec013560601c6040517fffffffff0000000000000000000000000000000000000000000000000000000060e084901b16815273ffffffffffffffffffffffffffffffffffffffff9091166004820152336024820152604401602060405180830381865afa158015612992573d6000803e3d6000fd5b505050506040513d601f19601f820116820180604052508101906129b69190613627565b156129c3576105a36129cc565b50600091369150565b3660006105a37fffffffffffffffffffffffffffffffffffffffffffffffffffffffffffffffec8301828481613644565b803573ffffffffffffffffffffffffffffffffffffffff81168114612a2157600080fd5b919050565b60008060408385031215612a3957600080fd5b612a42836129fd565b946020939093013593505050565b7fffffffff000000000000000000000000000000000000000000000000000000008116811461075257600080fd5b600060208284031215612a9057600080fd5b8135612a9b81612a50565b9392505050565b60008083601f840112612ab457600080fd5b50813567ffffffffffffffff811115612acc57600080fd5b6020830191508360208260051b8501011115612ae757600080fd5b9250929050565b60008083601f840112612b0057600080fd5b50813567ffffffffffffffff811115612b1857600080fd5b602083019150836020828501011115612ae757600080fd5b60008060008060008060006080888a031215612b4b57600080fd5b612b54886129fd565b9650602088013567ffffffffffffffff80821115612b7157600080fd5b612b7d8b838c01612aa2565b909850965060408a0135915080821115612b9657600080fd5b612ba28b838c01612aa2565b909650945060608a0135915080821115612bbb57600080fd5b50612bc88a828b01612aee565b989b979a50959850939692959293505050565b600060208284031215612bed57600080fd5b5035919050565b60005b83811015612c0f578181015183820152602001612bf7565b50506000910152565b60008151808452612c30816020860160208601612bf4565b601f017fffffffffffffffffffffffffffffffffffffffffffffffffffffffffffffffe0169290920160200192915050565b60208152600061040a6020830184612c18565b60008060008060008060008060a0898b031215612c9157600080fd5b612c9a896129fd565b9750612ca860208a016129fd565b9650604089013567ffffffffffffffff80821115612cc557600080fd5b612cd18c838d01612aa2565b909850965060608b0135915080821115612cea57600080fd5b612cf68c838d01612aa2565b909650945060808b0135915080821115612d0f57600080fd5b50612d1c8b828c01612aee565b999c989b5096995094979396929594505050565b60008060408385031215612d4357600080fd5b82359150612d53602084016129fd565b90509250929050565b60208152816020820152818360408301376000818301604090810191909152601f9092017fffffffffffffffffffffffffffffffffffffffffffffffffffffffffffffffe0160101919050565b60008060008060408587031215612dbf57600080fd5b843567ffffffffffffffff80821115612dd757600080fd5b612de388838901612aa2565b90965094506020870135915080821115612dfc57600080fd5b50612e0987828801612aa2565b95989497509550505050565b600081518084526020808501945080840160005b83811015612e4557815187529582019590820190600101612e29565b509495945050505050565b60208152600061040a6020830184612e15565b600060208284031215612e7557600080fd5b61040a826129fd565b600080600080600060808688031215612e9657600080fd5b612e9f866129fd565b94506020860135935060408601359250606086013567ffffffffffffffff811115612ec957600080fd5b612ed588828901612aee565b969995985093965092949392505050565b60008060208385031215612ef957600080fd5b823567ffffffffffffffff811115612f1057600080fd5b612f1c85828601612aee565b90969095509350505050565b801515811461075257600080fd5b60008060408385031215612f4957600080fd5b612f52836129fd565b91506020830135612f6281612f28565b809150509250929050565b6000806000806000806000806080898b031215612f8957600080fd5b883567ffffffffffffffff80821115612fa157600080fd5b612fad8c838d01612aa2565b909a50985060208b0135915080821115612fc657600080fd5b612fd28c838d01612aa2565b909850965060408b0135915080821115612feb57600080fd5b612ff78c838d01612aa2565b909650945060608b0135915080821115612d0f57600080fd5b6000806040838503121561302357600080fd5b61302c836129fd565b9150612d53602084016129fd565b60008060008060008060a0878903121561305357600080fd5b61305c876129fd565b955061306a602088016129fd565b94506040870135935060608701359250608087013567ffffffffffffffff81111561309457600080fd5b6130a089828a01612aee565b979a9699509497509295939492505050565b7f4e487b7100000000000000000000000000000000000000000000000000000000600052601160045260246000fd5b8181038181111561040d5761040d6130b2565b7f4e487b7100000000000000000000000000000000000000000000000000000000600052604160045260246000fd5b600181811c9082168061313757607f821691505b602082108103613170577f4e487b7100000000000000000000000000000000000000000000000000000000600052602260045260246000fd5b50919050565b601f82111561059357600081815260208120601f850160051c8101602086101561319d5750805b601f850160051c820191505b818110156106cf578281556001016131a9565b815167ffffffffffffffff8111156131d6576131d66130f4565b6131ea816131e48454613123565b84613176565b602080601f83116001811461323d57600084156132075750858301515b7fffffffffffffffffffffffffffffffffffffffffffffffffffffffffffffffff600386901b1c1916600185901b1785556106cf565b6000858152602081207fffffffffffffffffffffffffffffffffffffffffffffffffffffffffffffffe08616915b8281101561328a5788860151825594840194600190910190840161326b565b50858210156132c657878501517fffffffffffffffffffffffffffffffffffffffffffffffffffffffffffffffff600388901b60f8161c191681555b5050505050600190811b01905550565b7f416363657373436f6e74726f6c3a206d697373696e672027000000000000000081526000825161330e816018850160208701612bf4565b7f2720726f6c6500000000000000000000000000000000000000000000000000006018939091019283015250601e01919050565b7f4e487b7100000000000000000000000000000000000000000000000000000000600052603260045260246000fd5b6040815260006133846040830185612e15565b82810360208401526106258185612e15565b60008084546133a481613123565b600182811680156133bc57600181146133ef5761341e565b7fffffffffffffffffffffffffffffffffffffffffffffffffffffffffffffff008416875282151583028701945061341e565b8860005260208060002060005b858110156134155781548a8201529084019082016133fc565b50505082870194505b505050508351613432818360208801612bf4565b01949350505050565b81835260007f07ffffffffffffffffffffffffffffffffffffffffffffffffffffffffffffff83111561346d57600080fd5b8260051b80836020870137939093016020019392505050565b60408152600061349a60408301868861343b565b82810360208401526134ad81858761343b565b979650505050505050565b600073ffffffffffffffffffffffffffffffffffffffff808816835280871660208401525060a060408301526134f160a0830186612e15565b82810360608401526135038186612e15565b905082810360808401526135178185612c18565b98975050505050505050565b60006020828403121561353557600080fd5b8151612a9b81612a50565b60007fffffffffffffffffffffffffffffffffffffffffffffffffffffffffffffffff8203613571576135716130b2565b5060010190565b7f4e487b7100000000000000000000000000000000000000000000000000000000600052601260045260246000fd5b6000826135b6576135b6613578565b500490565b6000826135ca576135ca613578565b500690565b8082018082111561040d5761040d6130b2565b600073ffffffffffffffffffffffffffffffffffffffff808816835280871660208401525084604083015283606083015260a060808301526134ad60a0830184612c18565b60006020828403121561363957600080fd5b8151612a9b81612f28565b6000808585111561365457600080fd5b8386111561366157600080fd5b505082019391909203915056fea2646970667358221220f247f9cef775df0c7fa768a717d27d66e766645983dba1354b7a1c211687b64c64736f6c63430008110033",
  "linkReferences": {},
  "deployedLinkReferences": {}
}