{
  "_format": "hh-sol-artifact-1",
  "contractName": "ERC1155Mock",
  "sourceName": "contracts/mocks/token/ERC1155/ERC1155Mock.sol",
  "abi": [
    {
      "inputs": [
        {
          "internalType": "string",
          "name": "baseMetadataURI",
          "type": "string"
        },
        {
          "internalType": "contract IForwarderRegistry",
          "name": "forwarderRegistry",
          "type": "address"
        }
      ],
      "stateMutability": "nonpayable",
      "type": "constructor"
    },
    {
      "anonymous": false,
      "inputs": [
        {
          "indexed": true,
          "internalType": "address",
          "name": "owner",
          "type": "address"
        },
        {
          "indexed": true,
          "internalType": "address",
          "name": "operator",
          "type": "address"
        },
        {
          "indexed": false,
          "internalType": "bool",
          "name": "approved",
          "type": "bool"
        }
      ],
      "name": "ApprovalForAll",
      "type": "event"
    },
    {
      "anonymous": false,
      "inputs": [
        {
          "indexed": false,
          "internalType": "string",
          "name": "baseMetadataURI",
          "type": "string"
        }
      ],
      "name": "BaseMetadataURISet",
      "type": "event"
    },
    {
      "anonymous": false,
      "inputs": [
        {
          "indexed": true,
          "internalType": "address",
          "name": "previousOwner",
          "type": "address"
        },
        {
          "indexed": true,
          "internalType": "address",
          "name": "newOwner",
          "type": "address"
        }
      ],
      "name": "OwnershipTransferred",
      "type": "event"
    },
    {
      "anonymous": false,
      "inputs": [
        {
          "indexed": false,
          "internalType": "bytes32",
          "name": "role",
          "type": "bytes32"
        },
        {
          "indexed": false,
          "internalType": "address",
          "name": "account",
          "type": "address"
        },
        {
          "indexed": false,
          "internalType": "address",
          "name": "operator",
          "type": "address"
        }
      ],
      "name": "RoleGranted",
      "type": "event"
    },
    {
      "anonymous": false,
      "inputs": [
        {
          "indexed": false,
          "internalType": "bytes32",
          "name": "role",
          "type": "bytes32"
        },
        {
          "indexed": false,
          "internalType": "address",
          "name": "account",
          "type": "address"
        },
        {
          "indexed": false,
          "internalType": "address",
          "name": "operator",
          "type": "address"
        }
      ],
      "name": "RoleRevoked",
      "type": "event"
    },
    {
      "anonymous": false,
      "inputs": [
        {
          "indexed": true,
          "internalType": "address",
          "name": "operator",
          "type": "address"
        },
        {
          "indexed": true,
          "internalType": "address",
          "name": "from",
          "type": "address"
        },
        {
          "indexed": true,
          "internalType": "address",
          "name": "to",
          "type": "address"
        },
        {
          "indexed": false,
          "internalType": "uint256[]",
          "name": "ids",
          "type": "uint256[]"
        },
        {
          "indexed": false,
          "internalType": "uint256[]",
          "name": "values",
          "type": "uint256[]"
        }
      ],
      "name": "TransferBatch",
      "type": "event"
    },
    {
      "anonymous": false,
      "inputs": [
        {
          "indexed": true,
          "internalType": "address",
          "name": "operator",
          "type": "address"
        },
        {
          "indexed": true,
          "internalType": "address",
          "name": "from",
          "type": "address"
        },
        {
          "indexed": true,
          "internalType": "address",
          "name": "to",
          "type": "address"
        },
        {
          "indexed": false,
          "internalType": "uint256",
          "name": "id",
          "type": "uint256"
        },
        {
          "indexed": false,
          "internalType": "uint256",
          "name": "value",
          "type": "uint256"
        }
      ],
      "name": "TransferSingle",
      "type": "event"
    },
    {
      "anonymous": false,
      "inputs": [
        {
          "indexed": false,
          "internalType": "string",
          "name": "value",
          "type": "string"
        },
        {
          "indexed": true,
          "internalType": "uint256",
          "name": "id",
          "type": "uint256"
        }
      ],
      "name": "URI",
      "type": "event"
    },
    {
      "inputs": [],
      "name": "MINTER_ROLE",
      "outputs": [
        {
          "internalType": "bytes32",
          "name": "",
          "type": "bytes32"
        }
      ],
      "stateMutability": "view",
      "type": "function"
    },
    {
      "inputs": [],
      "name": "__msgData",
      "outputs": [
        {
          "internalType": "bytes",
          "name": "",
          "type": "bytes"
        }
      ],
      "stateMutability": "view",
      "type": "function"
    },
    {
      "inputs": [
        {
          "internalType": "address",
          "name": "owner",
          "type": "address"
        },
        {
          "internalType": "uint256",
          "name": "id",
          "type": "uint256"
        }
      ],
      "name": "balanceOf",
      "outputs": [
        {
          "internalType": "uint256",
          "name": "balance",
          "type": "uint256"
        }
      ],
      "stateMutability": "view",
      "type": "function"
    },
    {
      "inputs": [
        {
          "internalType": "address[]",
          "name": "owners",
          "type": "address[]"
        },
        {
          "internalType": "uint256[]",
          "name": "ids",
          "type": "uint256[]"
        }
      ],
      "name": "balanceOfBatch",
      "outputs": [
        {
          "internalType": "uint256[]",
          "name": "balances",
          "type": "uint256[]"
        }
      ],
      "stateMutability": "view",
      "type": "function"
    },
    {
      "inputs": [],
      "name": "baseMetadataURI",
      "outputs": [
        {
          "internalType": "string",
          "name": "baseURI",
          "type": "string"
        }
      ],
      "stateMutability": "view",
      "type": "function"
    },
    {
      "inputs": [],
      "name": "forwarderRegistry",
      "outputs": [
        {
          "internalType": "contract IForwarderRegistry",
          "name": "",
          "type": "address"
        }
      ],
      "stateMutability": "view",
      "type": "function"
    },
    {
      "inputs": [
        {
          "internalType": "bytes32",
          "name": "role",
          "type": "bytes32"
        },
        {
          "internalType": "address",
          "name": "account",
          "type": "address"
        }
      ],
      "name": "grantRole",
      "outputs": [],
      "stateMutability": "nonpayable",
      "type": "function"
    },
    {
      "inputs": [
        {
          "internalType": "bytes32",
          "name": "role",
          "type": "bytes32"
        },
        {
          "internalType": "address",
          "name": "account",
          "type": "address"
        }
      ],
      "name": "hasRole",
      "outputs": [
        {
          "internalType": "bool",
          "name": "",
          "type": "bool"
        }
      ],
      "stateMutability": "view",
      "type": "function"
    },
    {
      "inputs": [
        {
          "internalType": "address",
          "name": "owner",
          "type": "address"
        },
        {
          "internalType": "address",
          "name": "operator",
          "type": "address"
        }
      ],
      "name": "isApprovedForAll",
      "outputs": [
        {
          "internalType": "bool",
          "name": "approvedForAll",
          "type": "bool"
        }
      ],
      "stateMutability": "view",
      "type": "function"
    },
    {
      "inputs": [
        {
          "internalType": "address",
          "name": "forwarder",
          "type": "address"
        }
      ],
      "name": "isTrustedForwarder",
      "outputs": [
        {
          "internalType": "bool",
          "name": "",
          "type": "bool"
        }
      ],
      "stateMutability": "view",
      "type": "function"
    },
    {
      "inputs": [],
      "name": "owner",
      "outputs": [
        {
          "internalType": "address",
          "name": "",
          "type": "address"
        }
      ],
      "stateMutability": "view",
      "type": "function"
    },
    {
      "inputs": [
        {
          "internalType": "bytes32",
          "name": "role",
          "type": "bytes32"
        }
      ],
      "name": "renounceRole",
      "outputs": [],
      "stateMutability": "nonpayable",
      "type": "function"
    },
    {
      "inputs": [
        {
          "internalType": "bytes32",
          "name": "role",
          "type": "bytes32"
        },
        {
          "internalType": "address",
          "name": "account",
          "type": "address"
        }
      ],
      "name": "revokeRole",
      "outputs": [],
      "stateMutability": "nonpayable",
      "type": "function"
    },
    {
      "inputs": [
        {
          "internalType": "address",
          "name": "to",
          "type": "address"
        },
        {
          "internalType": "uint256[]",
          "name": "ids",
          "type": "uint256[]"
        },
        {
          "internalType": "uint256[]",
          "name": "values",
          "type": "uint256[]"
        },
        {
          "internalType": "bytes",
          "name": "data",
          "type": "bytes"
        }
      ],
      "name": "safeBatchMint",
      "outputs": [],
      "stateMutability": "nonpayable",
      "type": "function"
    },
    {
      "inputs": [
        {
          "internalType": "address",
          "name": "from",
          "type": "address"
        },
        {
          "internalType": "address",
          "name": "to",
          "type": "address"
        },
        {
          "internalType": "uint256[]",
          "name": "ids",
          "type": "uint256[]"
        },
        {
          "internalType": "uint256[]",
          "name": "values",
          "type": "uint256[]"
        },
        {
          "internalType": "bytes",
          "name": "data",
          "type": "bytes"
        }
      ],
      "name": "safeBatchTransferFrom",
      "outputs": [],
      "stateMutability": "nonpayable",
      "type": "function"
    },
    {
      "inputs": [
        {
          "internalType": "address[]",
          "name": "recipients",
          "type": "address[]"
        },
        {
          "internalType": "uint256[]",
          "name": "ids",
          "type": "uint256[]"
        },
        {
          "internalType": "uint256[]",
          "name": "values",
          "type": "uint256[]"
        },
        {
          "internalType": "bytes",
          "name": "data",
          "type": "bytes"
        }
      ],
      "name": "safeDeliver",
      "outputs": [],
      "stateMutability": "nonpayable",
      "type": "function"
    },
    {
      "inputs": [
        {
          "internalType": "address",
          "name": "to",
          "type": "address"
        },
        {
          "internalType": "uint256",
          "name": "id",
          "type": "uint256"
        },
        {
          "internalType": "uint256",
          "name": "value",
          "type": "uint256"
        },
        {
          "internalType": "bytes",
          "name": "data",
          "type": "bytes"
        }
      ],
      "name": "safeMint",
      "outputs": [],
      "stateMutability": "nonpayable",
      "type": "function"
    },
    {
      "inputs": [
        {
          "internalType": "address",
          "name": "from",
          "type": "address"
        },
        {
          "internalType": "address",
          "name": "to",
          "type": "address"
        },
        {
          "internalType": "uint256",
          "name": "id",
          "type": "uint256"
        },
        {
          "internalType": "uint256",
          "name": "value",
          "type": "uint256"
        },
        {
          "internalType": "bytes",
          "name": "data",
          "type": "bytes"
        }
      ],
      "name": "safeTransferFrom",
      "outputs": [],
      "stateMutability": "nonpayable",
      "type": "function"
    },
    {
      "inputs": [
        {
          "internalType": "address",
          "name": "operator",
          "type": "address"
        },
        {
          "internalType": "bool",
          "name": "approved",
          "type": "bool"
        }
      ],
      "name": "setApprovalForAll",
      "outputs": [],
      "stateMutability": "nonpayable",
      "type": "function"
    },
    {
      "inputs": [
        {
          "internalType": "string",
          "name": "baseURI",
          "type": "string"
        }
      ],
      "name": "setBaseMetadataURI",
      "outputs": [],
      "stateMutability": "nonpayable",
      "type": "function"
    },
    {
      "inputs": [
        {
          "internalType": "bytes4",
          "name": "interfaceId",
          "type": "bytes4"
        }
      ],
      "name": "supportsInterface",
      "outputs": [
        {
          "internalType": "bool",
          "name": "",
          "type": "bool"
        }
      ],
      "stateMutability": "view",
      "type": "function"
    },
    {
      "inputs": [
        {
          "internalType": "address",
          "name": "newOwner",
          "type": "address"
        }
      ],
      "name": "transferOwnership",
      "outputs": [],
      "stateMutability": "nonpayable",
      "type": "function"
    },
    {
      "inputs": [
        {
          "internalType": "uint256",
          "name": "id",
          "type": "uint256"
        }
      ],
      "name": "uri",
      "outputs": [
        {
          "internalType": "string",
          "name": "metadataURI",
          "type": "string"
        }
      ],
      "stateMutability": "view",
      "type": "function"
    }
  ],
  "bytecode": "0x60a06040523480156200001157600080fd5b5060405162003d0d38038062003d0d833981016040819052620000349162000415565b81818080336200004e6200010360201b62000a841760201c565b6200007c81620000686200013d60201b62000abb1760201c565b6200017360201b62000ae91790919060201c565b5062000092620001f160201b62000b9f1760201c565b6001600160a01b031660805250620000b7905062000214602090811b62000bcd17901c565b620000cc6200023760201b62000bfb1760201c565b620000fa81620000e66200025a60201b62000c291760201c565b6200028a60201b62000c571790919060201c565b50505062000698565b6200013b636cdb3d1360e11b600162000126620002a460201b62000c611760201c565b620002d460201b62000c8f179092919060201c565b565b6000806200016d60017fc9ed16f33ab3a66c84bfd83099ccb2a8845871e2e1c1928f63797152f0fd54cd620004e2565b92915050565b6001600160a01b03811615620001ca5781546001600160a01b0319166001600160a01b03821690811783556040516000907f8be0079c531659141344cd1fd0a4f28419497f9722a3daafe3b4186f6b6457e0908290a35b620001ed6307f5828d60e41b600162000126620002a460201b62000c611760201c565b5050565b6200013b631464324b60e21b600162000126620002a460201b62000c611760201c565b6200013b633a2ae73360e21b600162000126620002a460201b62000c611760201c565b6200013b6303a24d0760e21b600162000126620002a460201b62000c611760201c565b6000806200016d60017fe94434e3c6b941c5d90218142fadcc69cb2e13723993540bfa1c131dd1d3475a620004e2565b620001ed81836200036460201b62000da01790919060201c565b6000806200016d60017fca9d3e17f264b0f3984e2634e94adb37fa3e6a8103f06aeae6fa59e21c769f5e620004e2565b600160e01b6001600160e01b0319831601620003365760405162461bcd60e51b815260206004820152601f60248201527f496e74657266616365446574656374696f6e3a2077726f6e672076616c756500604482015260640160405180910390fd5b6001600160e01b03199190911660009081526020929092526040909120805460ff1916911515919091179055565b8162000371828262000597565b507f04b1dc5c136a3ce9fded8db0ce3d3366c58764ec3a8e4c2b9e52e4ddfe5ebbf781604051620003a3919062000663565b60405180910390a15050565b634e487b7160e01b600052604160045260246000fd5b60005b83811015620003e2578181015183820152602001620003c8565b83811115620003f2576000848401525b50505050565b80516001600160a01b03811681146200041057600080fd5b919050565b600080604083850312156200042957600080fd5b82516001600160401b03808211156200044157600080fd5b818501915085601f8301126200045657600080fd5b8151818111156200046b576200046b620003af565b604051601f8201601f19908116603f01168101908382118183101715620004965762000496620003af565b81604052828152886020848701011115620004b057600080fd5b620004c3836020830160208801620003c5565b8096505050505050620004d960208401620003f8565b90509250929050565b6000828210156200050357634e487b7160e01b600052601160045260246000fd5b500390565b600181811c908216806200051d57607f821691505b6020821081036200053e57634e487b7160e01b600052602260045260246000fd5b50919050565b601f8211156200059257600081815260208120601f850160051c810160208610156200056d5750805b601f850160051c820191505b818110156200058e5782815560010162000579565b5050505b505050565b81516001600160401b03811115620005b357620005b3620003af565b620005cb81620005c4845462000508565b8462000544565b602080601f831160018114620006035760008415620005ea5750858301515b600019600386901b1c1916600185901b1785556200058e565b600085815260208120601f198616915b82811015620006345788860151825594840194600190910190840162000613565b5085821015620006535787850151600019600388901b60f8161c191681555b5050505050600190811b01905550565b602081526000825180602084015262000684816040850160208701620003c5565b601f01601f19169190910160400192915050565b608051613636620006d760003960008181610211015281816102c201528181612751015281816127d90152818161288c01526128ca01526136366000f3fe608060405234801561001057600080fd5b506004361061018c5760003560e01c80635cfa9297116100e3578063d53913931161008c578063e985e9c511610066578063e985e9c5146103bb578063f242432a146103ce578063f2fde38b146103e157600080fd5b8063d53913931461036e578063d547741f14610395578063e8ab9ccc146103a857600080fd5b80638da5cb5b116100bd5780638da5cb5b1461034057806391d1485414610348578063a22cb4651461035b57600080fd5b80635cfa9297146103075780637e518ec81461031a5780638bb9c5bf1461032d57600080fd5b80632eb2c2d6116101455780634e1273f41161011f5780634e1273f414610292578063572b6c05146102b25780635b2bd79e146102ff57600080fd5b80632eb2c2d6146102565780632f2ff15d1461026957806331e66e1e1461027c57600080fd5b80630d6a5bbb116101765780630d6a5bbb146101da5780630e89341c146101ef5780632b4c9f161461020f57600080fd5b8062fdd58e1461019157806301ffc9a7146101b7575b600080fd5b6101a461019f366004612a19565b6103f4565b6040519081526020015b60405180910390f35b6101ca6101c5366004612a71565b610413565b60405190151581526020016101ae565b6101ed6101e8366004612b23565b610427565b005b6102026101fd366004612bce565b610522565b6040516101ae9190612c5d565b7f00000000000000000000000000000000000000000000000000000000000000005b60405173ffffffffffffffffffffffffffffffffffffffff90911681526020016101ae565b6101ed610264366004612c70565b610536565b6101ed610277366004612d2b565b6105f0565b610284610629565b6040516101ae929190612d57565b6102a56102a0366004612da4565b61063c565b6040516101ae9190612e4b565b6101ca6102c0366004612e5e565b7f000000000000000000000000000000000000000000000000000000000000000073ffffffffffffffffffffffffffffffffffffffff90811691161490565b6102026106bf565b6101ed610315366004612e79565b6106d6565b6101ed610328366004612ee1565b610768565b6101ed61033b366004612bce565b6107c8565b6102316107e6565b6101ca610356366004612d2b565b61080d565b6101ed610369366004612f31565b610851565b6101a47f6d696e746572000000000000000000000000000000000000000000000000000081565b6101ed6103a3366004612d2b565b61086e565b6101ed6103b6366004612f68565b61089c565b6101ca6103c936600461300b565b6109c1565b6101ed6103dc366004613035565b610a0f565b6101ed6103ef366004612e5e565b610a69565b600061040a8383610403610de7565b9190610e15565b90505b92915050565b600061040d82610421610c61565b90610ec9565b6000610431610fa3565b90506104677f6d696e746572000000000000000000000000000000000000000000000000000082610460610fad565b9190610fdb565b610518818989898080602002602001604051908101604052809392919081815260200183836020028082843760009201919091525050604080516020808d0282810182019093528c82529093508c92508b91829185019084908082843760009201919091525050604080516020601f8c018190048102820181019092528a815292508a915089908190840183828082843760009201919091525061050e9250610de7915050565b9493929190611087565b5050505050505050565b606061040d82610530610c29565b90611275565b610518610541610fa3565b898989898080602002602001604051908101604052809392919081815260200183836020028082843760009201919091525050604080516020808d0282810182019093528c82529093508c92508b91829185019084908082843760009201919091525050604080516020601f8c018190048102820181019092528a815292508a91508990819084018382808284376000920191909152506105e59250610de7915050565b9594939291906112a9565b60006105fa610fa3565b905061060e81610608610abb565b906114fe565b61062483838361061c610fad565b929190611581565b505050565b366000610634611658565b915091509091565b60606106b6858580806020026020016040519081016040528093929190818152602001838360200280828437600092019190915250506040805160208089028281018201909352888252909350889250879182918501908490808284376000920191909152506106af9250610de7915050565b9190611663565b95945050505050565b60606106d16106cc610c29565b611798565b905090565b60006106e0610fa3565b905061070f7f6d696e746572000000000000000000000000000000000000000000000000000082610460610fad565b6107608187878787878080601f0160208091040260200160405190810160405280939291908181526020018383808284376000920191909152506107569250610de7915050565b949392919061182e565b505050505050565b61077b610773610fa3565b610608610abb565b6107c482828080601f0160208091040260200160405190810160405280939291908181526020018383808284376000920191909152506107be9250610c29915050565b90610da0565b5050565b6107e36107d3610fa3565b826107dc610fad565b919061193c565b50565b60006106d16107f3610abb565b5473ffffffffffffffffffffffffffffffffffffffff1690565b600061040a838361081c610fad565b60009283526020908152604080842073ffffffffffffffffffffffffffffffffffffffff909316845291905290205460ff1690565b6107c461085c610fa3565b8383610866610de7565b9291906119e0565b6000610878610fa3565b905061088681610608610abb565b610624838383610894610fad565b929190611b10565b60006108a6610fa3565b90506108d57f6d696e746572000000000000000000000000000000000000000000000000000082610460610fad565b6109b6818a8a8080602002602001604051908101604052809392919081815260200183836020028082843760009201919091525050604080516020808e0282810182019093528d82529093508d92508c91829185019084908082843760009201919091525050604080516020808d0282810182019093528c82529093508c92508b91829185019084908082843760009201919091525050604080516020601f8c018190048102820181019092528a815292508a91508990819084018382808284376000920191909152506109ac9250610de7915050565b9493929190611bda565b505050505050505050565b600061040a83836109d0610de7565b919073ffffffffffffffffffffffffffffffffffffffff9182166000908152600193909301602090815260408085209290931684525290205460ff1690565b610760610a1a610fa3565b8787878787878080601f016020809104026020016040519081016040528093929190818152602001838380828437600092019190915250610a5e9250610de7915050565b959493929190611cca565b6107e3610a74610fa3565b82610a7d610abb565b9190611e77565b610ab97fd9b67a26000000000000000000000000000000000000000000000000000000006001610ab2610c61565b9190610c8f565b565b60008061040d60017fc9ed16f33ab3a66c84bfd83099ccb2a8845871e2e1c1928f63797152f0fd54cd6130dc565b73ffffffffffffffffffffffffffffffffffffffff811615610b715781547fffffffffffffffffffffffff00000000000000000000000000000000000000001673ffffffffffffffffffffffffffffffffffffffff821690811783556040516000907f8be0079c531659141344cd1fd0a4f28419497f9722a3daafe3b4186f6b6457e0908290a35b6107c47f7f5828d0000000000000000000000000000000000000000000000000000000006001610ab2610c61565b610ab97f5190c92c000000000000000000000000000000000000000000000000000000006001610ab2610c61565b610ab97fe8ab9ccc000000000000000000000000000000000000000000000000000000006001610ab2610c61565b610ab97f0e89341c000000000000000000000000000000000000000000000000000000006001610ab2610c61565b60008061040d60017fe94434e3c6b941c5d90218142fadcc69cb2e13723993540bfa1c131dd1d3475a6130dc565b6107c48282610da0565b60008061040d60017fca9d3e17f264b0f3984e2634e94adb37fa3e6a8103f06aeae6fa59e21c769f5e6130dc565b7c01000000000000000000000000000000000000000000000000000000007fffffffff00000000000000000000000000000000000000000000000000000000831601610d3c576040517f08c379a000000000000000000000000000000000000000000000000000000000815260206004820152601f60248201527f496e74657266616365446574656374696f6e3a2077726f6e672076616c75650060448201526064015b60405180910390fd5b7fffffffff00000000000000000000000000000000000000000000000000000000919091166000908152602092909252604090912080547fffffffffffffffffffffffffffffffffffffffffffffffffffffffffffffff0016911515919091179055565b81610dab82826131bb565b507f04b1dc5c136a3ce9fded8db0ce3d3366c58764ec3a8e4c2b9e52e4ddfe5ebbf781604051610ddb9190612c5d565b60405180910390a15050565b60008061040d60017f5ccf5846fa27a68fafc8e588671a68f5e67c2f9b56af4263806a4d71735e86136130dc565b600073ffffffffffffffffffffffffffffffffffffffff8316610e94576040517f08c379a000000000000000000000000000000000000000000000000000000000815260206004820152601e60248201527f455243313135353a2062616c616e6365206f66206164647265737328302900006044820152606401610d33565b5060009081526020928352604080822073ffffffffffffffffffffffffffffffffffffffff9390931682529190925290205490565b60007c01000000000000000000000000000000000000000000000000000000007fffffffff00000000000000000000000000000000000000000000000000000000831601610f195750600061040d565b7ffe003659000000000000000000000000000000000000000000000000000000007fffffffff00000000000000000000000000000000000000000000000000000000831601610f6a5750600161040d565b507fffffffff00000000000000000000000000000000000000000000000000000000166000908152602091909152604090205460ff1690565b60006106d1611fa3565b60008061040d60017fc8827d3282af6f37b64c3e9e6f3ac9df286ab0bb0fccd6f8661bf19adb368b236130dc565b60008281526020848152604080832073ffffffffffffffffffffffffffffffffffffffff8516845290915290205460ff166106245761101982611fad565b60405160200161102991906132d5565b604080517fffffffffffffffffffffffffffffffffffffffffffffffffffffffffffffffe0818403018152908290527f08c379a0000000000000000000000000000000000000000000000000000000008252610d3391600401612c5d565b73ffffffffffffffffffffffffffffffffffffffff8416611104576040517f08c379a000000000000000000000000000000000000000000000000000000000815260206004820152601b60248201527f455243313135353a206d696e7420746f206164647265737328302900000000006044820152606401610d33565b825182518114611170576040517f08c379a000000000000000000000000000000000000000000000000000000000815260206004820152601c60248201527f455243313135353a20696e636f6e73697374656e7420617272617973000000006044820152606401610d33565b60005b8181146111c0576111b8888787848151811061119157611191613341565b60200260200101518785815181106111ab576111ab613341565b602002602001015161213f565b600101611173565b508473ffffffffffffffffffffffffffffffffffffffff16600073ffffffffffffffffffffffffffffffffffffffff168773ffffffffffffffffffffffffffffffffffffffff167f4a39dc06d4c0dbc64b70af90fd698a233a518aa5d07e595d983b8c0526c8f7fb8787604051611238929190613370565b60405180910390a473ffffffffffffffffffffffffffffffffffffffff85163b1561126c5761126c86600087878787612213565b50505050505050565b6060826112818361233b565b604051602001611292929190613395565b604051602081830303815290604052905092915050565b73ffffffffffffffffffffffffffffffffffffffff8416611326576040517f08c379a000000000000000000000000000000000000000000000000000000000815260206004820152601f60248201527f455243313135353a207472616e7366657220746f2061646472657373283029006044820152606401610d33565b825182518114611392576040517f08c379a000000000000000000000000000000000000000000000000000000000815260206004820152601c60248201527f455243313135353a20696e636f6e73697374656e7420617272617973000000006044820152606401610d33565b61139d888789612478565b611403576040517f08c379a000000000000000000000000000000000000000000000000000000000815260206004820152601c60248201527f455243313135353a206e6f6e2d617070726f7665642073656e646572000000006044820152606401610d33565b60005b8181146114545761144c89888888858151811061142557611425613341565b602002602001015188868151811061143f5761143f613341565b60200260200101516124ed565b600101611406565b508473ffffffffffffffffffffffffffffffffffffffff168673ffffffffffffffffffffffffffffffffffffffff168873ffffffffffffffffffffffffffffffffffffffff167f4a39dc06d4c0dbc64b70af90fd698a233a518aa5d07e595d983b8c0526c8f7fb87876040516114cb929190613370565b60405180910390a473ffffffffffffffffffffffffffffffffffffffff85163b1561051857610518878787878787612213565b815473ffffffffffffffffffffffffffffffffffffffff8281169116146107c4576040517f08c379a000000000000000000000000000000000000000000000000000000000815260206004820152601860248201527f4f776e6572736869703a206e6f7420746865206f776e657200000000000000006044820152606401610d33565b60008381526020858152604080832073ffffffffffffffffffffffffffffffffffffffff8616845290915290205460ff166116525760008381526020858152604080832073ffffffffffffffffffffffffffffffffffffffff8681168086529184529382902080547fffffffffffffffffffffffffffffffffffffffffffffffffffffffffffffff00166001179055815187815292830152918316918101919091527f2f8788117e7eff1d82e926ec794901d17c78024a50270940304540a733656f0d906060015b60405180910390a15b50505050565b3660006106346126a7565b815181516060919081146116d3576040517f08c379a000000000000000000000000000000000000000000000000000000000815260206004820152601c60248201527f455243313135353a20696e636f6e73697374656e7420617272617973000000006044820152606401610d33565b835167ffffffffffffffff8111156116ed576116ed6130f3565b604051908082528060200260200182016040528015611716578160200160208202803683370190505b50915060005b81811461178f5761176a85828151811061173857611738613341565b602002602001015185838151811061175257611752613341565b602002602001015188610e159092919063ffffffff16565b83828151811061177c5761177c613341565b602090810291909101015260010161171c565b50509392505050565b60608160000180546117a990613122565b80601f01602080910402602001604051908101604052809291908181526020018280546117d590613122565b80156118225780601f106117f757610100808354040283529160200191611822565b820191906000526020600020905b81548152906001019060200180831161180557829003601f168201915b50505050509050919050565b73ffffffffffffffffffffffffffffffffffffffff84166118ab576040517f08c379a000000000000000000000000000000000000000000000000000000000815260206004820152601b60248201527f455243313135353a206d696e7420746f206164647265737328302900000000006044820152606401610d33565b6118b78685858561213f565b604080518481526020810184905273ffffffffffffffffffffffffffffffffffffffff80871692600092918916917fc3d58168c5ae7397731d063d5bbf3d657854427343f4c083240f7aacaa2d0f62910160405180910390a473ffffffffffffffffffffffffffffffffffffffff84163b1561076057610760856000868686866126b2565b611947838284610fdb565b60008181526020848152604080832073ffffffffffffffffffffffffffffffffffffffff86168085529083529281902080547fffffffffffffffffffffffffffffffffffffffffffffffffffffffffffffff0016905580518481529182018390528101919091527ff6391f5c32d9c69d2a47ea670b442974b53935d1edc7fd64eb21e047a839171b9060600160405180910390a1505050565b8273ffffffffffffffffffffffffffffffffffffffff168273ffffffffffffffffffffffffffffffffffffffff1603611a75576040517f08c379a000000000000000000000000000000000000000000000000000000000815260206004820152601e60248201527f455243313135353a2073656c662d617070726f76616c20666f7220616c6c00006044820152606401610d33565b73ffffffffffffffffffffffffffffffffffffffff838116600081815260018701602090815260408083209487168084529482529182902080547fffffffffffffffffffffffffffffffffffffffffffffffffffffffffffffff001686151590811790915591519182527f17307eab39ab6107e8899845ad3d59bd9653f200f220920489ca2b5937696c31910160405180910390a350505050565b60008381526020858152604080832073ffffffffffffffffffffffffffffffffffffffff8616845290915290205460ff16156116525760008381526020858152604080832073ffffffffffffffffffffffffffffffffffffffff8681168086529184529382902080547fffffffffffffffffffffffffffffffffffffffffffffffffffffffffffffff00169055815187815292830152918316918101919091527ff6391f5c32d9c69d2a47ea670b442974b53935d1edc7fd64eb21e047a839171b90606001611649565b8351835181148015611bec5750825181145b611c52576040517f08c379a000000000000000000000000000000000000000000000000000000000815260206004820152601c60248201527f455243313135353a20696e636f6e73697374656e7420617272617973000000006044820152606401610d33565b60005b81811461051857611cc287878381518110611c7257611c72613341565b6020026020010151878481518110611c8c57611c8c613341565b6020026020010151878581518110611ca657611ca6613341565b6020026020010151878d61182e9095949392919063ffffffff16565b600101611c55565b73ffffffffffffffffffffffffffffffffffffffff8416611d47576040517f08c379a000000000000000000000000000000000000000000000000000000000815260206004820152601f60248201527f455243313135353a207472616e7366657220746f2061646472657373283029006044820152606401610d33565b611d52878688612478565b611db8576040517f08c379a000000000000000000000000000000000000000000000000000000000815260206004820152601c60248201527f455243313135353a206e6f6e2d617070726f7665642073656e646572000000006044820152606401610d33565b611dc587868686866124ed565b8373ffffffffffffffffffffffffffffffffffffffff168573ffffffffffffffffffffffffffffffffffffffff168773ffffffffffffffffffffffffffffffffffffffff167fc3d58168c5ae7397731d063d5bbf3d657854427343f4c083240f7aacaa2d0f628686604051611e44929190918252602082015260400190565b60405180910390a473ffffffffffffffffffffffffffffffffffffffff84163b1561126c5761126c8686868686866126b2565b825473ffffffffffffffffffffffffffffffffffffffff9081169083168114611efc576040517f08c379a000000000000000000000000000000000000000000000000000000000815260206004820152601860248201527f4f776e6572736869703a206e6f7420746865206f776e657200000000000000006044820152606401610d33565b8173ffffffffffffffffffffffffffffffffffffffff168173ffffffffffffffffffffffffffffffffffffffff16146116525783547fffffffffffffffffffffffff00000000000000000000000000000000000000001673ffffffffffffffffffffffffffffffffffffffff8381169182178655604051908316907f8be0079c531659141344cd1fd0a4f28419497f9722a3daafe3b4186f6b6457e090600090a350505050565b60006106d161270e565b60606000829003611fcc57505060408051602081019091526000815290565b600082604051602001611fe191815260200190565b604080517fffffffffffffffffffffffffffffffffffffffffffffffffffffffffffffffe08184030181529190529050601f5b81818151811061202657612026613341565b01602001517fff000000000000000000000000000000000000000000000000000000000000001660000361207b577fffffffffffffffffffffffffffffffffffffffffffffffffffffffffffffffff01612014565b60008160010167ffffffffffffffff811115612099576120996130f3565b6040519080825280601f01601f1916602001820160405280156120c3576020820181803683370190505b50905060005b828111612136578381815181106120e2576120e2613341565b602001015160f81c60f81b8282815181106120ff576120ff613341565b60200101907effffffffffffffffffffffffffffffffffffffffffffffffffffffffffffff1916908160001a9053506001016120c9565b50949350505050565b80156116525760008281526020858152604080832073ffffffffffffffffffffffffffffffffffffffff871684529091529020548181018181116121df576040517f08c379a000000000000000000000000000000000000000000000000000000000815260206004820152601960248201527f455243313135353a2062616c616e6365206f766572666c6f77000000000000006044820152606401610d33565b60009384526020958652604080852073ffffffffffffffffffffffffffffffffffffffff9690961685529490955250502055565b6040517fbc197c81000000000000000000000000000000000000000000000000000000008082529073ffffffffffffffffffffffffffffffffffffffff86169063bc197c819061226f908a908a9089908990899060040161343a565b6020604051808303816000875af115801561228e573d6000803e3d6000fd5b505050506040513d601f19601f820116820180604052508101906122b291906134a5565b7fffffffff000000000000000000000000000000000000000000000000000000001614610760576040517f08c379a000000000000000000000000000000000000000000000000000000000815260206004820152601a60248201527f455243313135353a207472616e736665722072656a65637465640000000000006044820152606401610d33565b60608160000361237e57505060408051808201909152600181527f3000000000000000000000000000000000000000000000000000000000000000602082015290565b8160005b81156123a85780612392816134c2565b91506123a19050600a83613529565b9150612382565b60008167ffffffffffffffff8111156123c3576123c36130f3565b6040519080825280601f01601f1916602001820160405280156123ed576020820181803683370190505b5090505b8415612470576124026001836130dc565b915061240f600a8661353d565b61241a906030613551565b60f81b81838151811061242f5761242f613341565b60200101907effffffffffffffffffffffffffffffffffffffffffffffffffffffffffffff1916908160001a905350612469600a86613529565b94506123f1565b949350505050565b60008173ffffffffffffffffffffffffffffffffffffffff168373ffffffffffffffffffffffffffffffffffffffff16148061247057505073ffffffffffffffffffffffffffffffffffffffff9182166000908152600193909301602090815260408085209290931684525290205460ff1690565b80156126a05760008281526020868152604080832073ffffffffffffffffffffffffffffffffffffffff8816845290915290205481810381811061258d576040517f08c379a000000000000000000000000000000000000000000000000000000000815260206004820152601d60248201527f455243313135353a20696e73756666696369656e742062616c616e63650000006044820152606401610d33565b8473ffffffffffffffffffffffffffffffffffffffff168673ffffffffffffffffffffffffffffffffffffffff161461126c5760008481526020888152604080832073ffffffffffffffffffffffffffffffffffffffff8916845290915290205483810181811161265a576040517f08c379a000000000000000000000000000000000000000000000000000000000815260206004820152601960248201527f455243313135353a2062616c616e6365206f766572666c6f77000000000000006044820152606401610d33565b600086815260208a8152604080832073ffffffffffffffffffffffffffffffffffffffff808d1685528184528285208890558b1684529091529020805490910190555050505b5050505050565b366000610634612855565b6040517ff23a6e61000000000000000000000000000000000000000000000000000000008082529073ffffffffffffffffffffffffffffffffffffffff86169063f23a6e619061226f908a908a90899089908990600401613569565b60003332148061271e5750601436105b1561272857503390565b7fffffffffffffffffffffffffffffffffffffffffffffffffffffffffffffffec36013560601c7f000000000000000000000000000000000000000000000000000000000000000073ffffffffffffffffffffffffffffffffffffffff1633148061284457506040517f8929a8ca00000000000000000000000000000000000000000000000000000000815273ffffffffffffffffffffffffffffffffffffffff82811660048301523360248301527f00000000000000000000000000000000000000000000000000000000000000001690638929a8ca90604401602060405180830381865afa158015612820573d6000803e3d6000fd5b505050506040513d601f19601f8201168201806040525081019061284491906135b9565b1561284e57919050565b3391505090565b366000333214806128665750601436105b156128745750600091369150565b3373ffffffffffffffffffffffffffffffffffffffff7f00000000000000000000000000000000000000000000000000000000000000001614806129a9575073ffffffffffffffffffffffffffffffffffffffff7f000000000000000000000000000000000000000000000000000000000000000016638929a8ca367fffffffffffffffffffffffffffffffffffffffffffffffffffffffffffffffec013560601c6040517fffffffff0000000000000000000000000000000000000000000000000000000060e084901b16815273ffffffffffffffffffffffffffffffffffffffff9091166004820152336024820152604401602060405180830381865afa158015612985573d6000803e3d6000fd5b505050506040513d601f19601f820116820180604052508101906129a991906135b9565b156129b6576106346129bf565b50600091369150565b3660006106347fffffffffffffffffffffffffffffffffffffffffffffffffffffffffffffffec83018284816135d6565b803573ffffffffffffffffffffffffffffffffffffffff81168114612a1457600080fd5b919050565b60008060408385031215612a2c57600080fd5b612a35836129f0565b946020939093013593505050565b7fffffffff00000000000000000000000000000000000000000000000000000000811681146107e357600080fd5b600060208284031215612a8357600080fd5b8135612a8e81612a43565b9392505050565b60008083601f840112612aa757600080fd5b50813567ffffffffffffffff811115612abf57600080fd5b6020830191508360208260051b8501011115612ada57600080fd5b9250929050565b60008083601f840112612af357600080fd5b50813567ffffffffffffffff811115612b0b57600080fd5b602083019150836020828501011115612ada57600080fd5b60008060008060008060006080888a031215612b3e57600080fd5b612b47886129f0565b9650602088013567ffffffffffffffff80821115612b6457600080fd5b612b708b838c01612a95565b909850965060408a0135915080821115612b8957600080fd5b612b958b838c01612a95565b909650945060608a0135915080821115612bae57600080fd5b50612bbb8a828b01612ae1565b989b979a50959850939692959293505050565b600060208284031215612be057600080fd5b5035919050565b60005b83811015612c02578181015183820152602001612bea565b838111156116525750506000910152565b60008151808452612c2b816020860160208601612be7565b601f017fffffffffffffffffffffffffffffffffffffffffffffffffffffffffffffffe0169290920160200192915050565b60208152600061040a6020830184612c13565b60008060008060008060008060a0898b031215612c8c57600080fd5b612c95896129f0565b9750612ca360208a016129f0565b9650604089013567ffffffffffffffff80821115612cc057600080fd5b612ccc8c838d01612a95565b909850965060608b0135915080821115612ce557600080fd5b612cf18c838d01612a95565b909650945060808b0135915080821115612d0a57600080fd5b50612d178b828c01612ae1565b999c989b5096995094979396929594505050565b60008060408385031215612d3e57600080fd5b82359150612d4e602084016129f0565b90509250929050565b60208152816020820152818360408301376000818301604090810191909152601f9092017fffffffffffffffffffffffffffffffffffffffffffffffffffffffffffffffe0160101919050565b60008060008060408587031215612dba57600080fd5b843567ffffffffffffffff80821115612dd257600080fd5b612dde88838901612a95565b90965094506020870135915080821115612df757600080fd5b50612e0487828801612a95565b95989497509550505050565b600081518084526020808501945080840160005b83811015612e4057815187529582019590820190600101612e24565b509495945050505050565b60208152600061040a6020830184612e10565b600060208284031215612e7057600080fd5b61040a826129f0565b600080600080600060808688031215612e9157600080fd5b612e9a866129f0565b94506020860135935060408601359250606086013567ffffffffffffffff811115612ec457600080fd5b612ed088828901612ae1565b969995985093965092949392505050565b60008060208385031215612ef457600080fd5b823567ffffffffffffffff811115612f0b57600080fd5b612f1785828601612ae1565b90969095509350505050565b80151581146107e357600080fd5b60008060408385031215612f4457600080fd5b612f4d836129f0565b91506020830135612f5d81612f23565b809150509250929050565b6000806000806000806000806080898b031215612f8457600080fd5b883567ffffffffffffffff80821115612f9c57600080fd5b612fa88c838d01612a95565b909a50985060208b0135915080821115612fc157600080fd5b612fcd8c838d01612a95565b909850965060408b0135915080821115612fe657600080fd5b612ff28c838d01612a95565b909650945060608b0135915080821115612d0a57600080fd5b6000806040838503121561301e57600080fd5b613027836129f0565b9150612d4e602084016129f0565b60008060008060008060a0878903121561304e57600080fd5b613057876129f0565b9550613065602088016129f0565b94506040870135935060608701359250608087013567ffffffffffffffff81111561308f57600080fd5b61309b89828a01612ae1565b979a9699509497509295939492505050565b7f4e487b7100000000000000000000000000000000000000000000000000000000600052601160045260246000fd5b6000828210156130ee576130ee6130ad565b500390565b7f4e487b7100000000000000000000000000000000000000000000000000000000600052604160045260246000fd5b600181811c9082168061313657607f821691505b60208210810361316f577f4e487b7100000000000000000000000000000000000000000000000000000000600052602260045260246000fd5b50919050565b601f82111561062457600081815260208120601f850160051c8101602086101561319c5750805b601f850160051c820191505b81811015610760578281556001016131a8565b815167ffffffffffffffff8111156131d5576131d56130f3565b6131e9816131e38454613122565b84613175565b602080601f83116001811461323c57600084156132065750858301515b7fffffffffffffffffffffffffffffffffffffffffffffffffffffffffffffffff600386901b1c1916600185901b178555610760565b6000858152602081207fffffffffffffffffffffffffffffffffffffffffffffffffffffffffffffffe08616915b828110156132895788860151825594840194600190910190840161326a565b50858210156132c557878501517fffffffffffffffffffffffffffffffffffffffffffffffffffffffffffffffff600388901b60f8161c191681555b5050505050600190811b01905550565b7f416363657373436f6e74726f6c3a206d697373696e672027000000000000000081526000825161330d816018850160208701612be7565b7f2720726f6c6500000000000000000000000000000000000000000000000000006018939091019283015250601e01919050565b7f4e487b7100000000000000000000000000000000000000000000000000000000600052603260045260246000fd5b6040815260006133836040830185612e10565b82810360208401526106b68185612e10565b60008084546133a381613122565b600182811680156133bb57600181146133ee5761341d565b7fffffffffffffffffffffffffffffffffffffffffffffffffffffffffffffff008416875282151583028701945061341d565b8860005260208060002060005b858110156134145781548a8201529084019082016133fb565b50505082870194505b505050508351613431818360208801612be7565b01949350505050565b600073ffffffffffffffffffffffffffffffffffffffff808816835280871660208401525060a0604083015261347360a0830186612e10565b82810360608401526134858186612e10565b905082810360808401526134998185612c13565b98975050505050505050565b6000602082840312156134b757600080fd5b8151612a8e81612a43565b60007fffffffffffffffffffffffffffffffffffffffffffffffffffffffffffffffff82036134f3576134f36130ad565b5060010190565b7f4e487b7100000000000000000000000000000000000000000000000000000000600052601260045260246000fd5b600082613538576135386134fa565b500490565b60008261354c5761354c6134fa565b500690565b60008219821115613564576135646130ad565b500190565b600073ffffffffffffffffffffffffffffffffffffffff808816835280871660208401525084604083015283606083015260a060808301526135ae60a0830184612c13565b979650505050505050565b6000602082840312156135cb57600080fd5b8151612a8e81612f23565b600080858511156135e657600080fd5b838611156135f357600080fd5b505082019391909203915056fea2646970667358221220b02865f920fc1630c0086bbb2b962f496322cf08a39b15caf299a0d959c08bcf64736f6c634300080f0033",
  "linkReferences": {},
  "deployedLinkReferences": {}
}