{
  "_format": "hh-sol-artifact-1",
  "contractName": "TokenRecoveryFacetMock",
  "sourceName": "contracts/mocks/security/facets/TokenRecoveryFacetMock.sol",
  "abi": [
    {
      "inputs": [
        {
          "internalType": "contract IForwarderRegistry",
          "name": "forwarderRegistry",
          "type": "address"
        }
      ],
      "stateMutability": "nonpayable",
      "type": "constructor"
    },
    {
      "inputs": [],
      "name": "InconsistentArrayLengths",
      "type": "error"
    },
    {
      "inputs": [
        {
          "internalType": "address",
          "name": "account",
          "type": "address"
        }
      ],
      "name": "NotContractOwner",
      "type": "error"
    },
    {
      "inputs": [],
      "name": "__msgData",
      "outputs": [
        {
          "internalType": "bytes",
          "name": "",
          "type": "bytes"
        }
      ],
      "stateMutability": "view",
      "type": "function"
    },
    {
      "inputs": [
        {
          "internalType": "address[]",
          "name": "accounts",
          "type": "address[]"
        },
        {
          "internalType": "contract IERC20[]",
          "name": "tokens",
          "type": "address[]"
        },
        {
          "internalType": "uint256[]",
          "name": "amounts",
          "type": "uint256[]"
        }
      ],
      "name": "recoverERC20s",
      "outputs": [],
      "stateMutability": "nonpayable",
      "type": "function"
    },
    {
      "inputs": [
        {
          "internalType": "address[]",
          "name": "accounts",
          "type": "address[]"
        },
        {
          "internalType": "contract IERC721[]",
          "name": "contracts",
          "type": "address[]"
        },
        {
          "internalType": "uint256[]",
          "name": "tokenIds",
          "type": "uint256[]"
        }
      ],
      "name": "recoverERC721s",
      "outputs": [],
      "stateMutability": "nonpayable",
      "type": "function"
    },
    {
      "inputs": [
        {
          "internalType": "address payable[]",
          "name": "accounts",
          "type": "address[]"
        },
        {
          "internalType": "uint256[]",
          "name": "amounts",
          "type": "uint256[]"
        }
      ],
      "name": "recoverETH",
      "outputs": [],
      "stateMutability": "nonpayable",
      "type": "function"
    },
    {
      "stateMutability": "payable",
      "type": "receive"
    }
  ],
  "bytecode": "0x60a060405234801561000f575f80fd5b5060405161108938038061108983398101604081905261002e9161003f565b6001600160a01b031660805261006c565b5f6020828403121561004f575f80fd5b81516001600160a01b0381168114610065575f80fd5b9392505050565b608051610ff06100995f395f81816106f4015281816107320152818161086601526108ee0152610ff05ff3fe608060405260043610610041575f3560e01c806331e66e1e1461004c57806373c8a95814610077578063c3666c3614610098578063f7ba94bd146100b7575f80fd5b3661004857005b5f80fd5b348015610057575f80fd5b506100606100d6565b60405161006e929190610cae565b60405180910390f35b348015610082575f80fd5b50610096610091366004610d42565b6100e8565b005b3480156100a3575f80fd5b506100966100b2366004610d42565b6101ea565b3480156100c2575f80fd5b506100966100d1366004610dd5565b61035b565b365f6100e0610418565b915091509091565b6101016100f3610422565b6100fb610430565b90610463565b8483811415806101115750808214155b15610148576040517f6582533600000000000000000000000000000000000000000000000000000000815260040160405180910390fd5b5f5b8181146101e0576101d888888381811061016657610166610e3c565b905060200201602081019061017b9190610e8d565b85858481811061018d5761018d610e3c565b905060200201358888858181106101a6576101a6610e3c565b90506020020160208101906101bb9190610e8d565b73ffffffffffffffffffffffffffffffffffffffff1691906104d7565b60010161014a565b5050505050505050565b6101f56100f3610422565b8483811415806102055750808214155b1561023c576040517f6582533600000000000000000000000000000000000000000000000000000000815260040160405180910390fd5b5f5b8181146101e05785858281811061025757610257610e3c565b905060200201602081019061026c9190610e8d565b73ffffffffffffffffffffffffffffffffffffffff166323b872dd308a8a8581811061029a5761029a610e3c565b90506020020160208101906102af9190610e8d565b8787868181106102c1576102c1610e3c565b6040517fffffffff0000000000000000000000000000000000000000000000000000000060e088901b16815273ffffffffffffffffffffffffffffffffffffffff9586166004820152949093166024850152506020909102013560448201526064015f604051808303815f87803b15801561033a575f80fd5b505af115801561034c573d5f803e3d5ffd5b5050505080600101905061023e565b6103666100f3610422565b828181146103a0576040517f6582533600000000000000000000000000000000000000000000000000000000815260040160405180910390fd5b5f5b818114610410576104088484838181106103be576103be610e3c565b905060200201358787848181106103d7576103d7610e3c565b90506020020160208101906103ec9190610e8d565b73ffffffffffffffffffffffffffffffffffffffff1690610569565b6001016103a2565b505050505050565b365f6100e06106bf565b5f61042b610824565b905090565b5f8061045d60017fc9ed16f33ab3a66c84bfd83099ccb2a8845871e2e1c1928f63797152f0fd54cd610eaf565b92915050565b815473ffffffffffffffffffffffffffffffffffffffff8281169116146104d3576040517f2ef4875e00000000000000000000000000000000000000000000000000000000815273ffffffffffffffffffffffffffffffffffffffff821660048201526024015b60405180910390fd5b5050565b6040805173ffffffffffffffffffffffffffffffffffffffff8416602482015260448082018490528251808303909101815260649091019091526020810180517bffffffffffffffffffffffffffffffffffffffffffffffffffffffff167fa9059cbb00000000000000000000000000000000000000000000000000000000179052610564908490610968565b505050565b804710156105d3576040517f08c379a000000000000000000000000000000000000000000000000000000000815260206004820152601d60248201527f416464726573733a20696e73756666696369656e742062616c616e636500000060448201526064016104ca565b5f8273ffffffffffffffffffffffffffffffffffffffff16826040515f6040518083038185875af1925050503d805f8114610629576040519150601f19603f3d011682016040523d82523d5f602084013e61062e565b606091505b5050905080610564576040517f08c379a000000000000000000000000000000000000000000000000000000000815260206004820152603a60248201527f416464726573733a20756e61626c6520746f2073656e642076616c75652c207260448201527f6563697069656e74206d6179206861766520726576657274656400000000000060648201526084016104ca565b365f333214806106cf5750601836105b156106dc57505f91369150565b3373ffffffffffffffffffffffffffffffffffffffff7f000000000000000000000000000000000000000000000000000000000000000016148061080f575073ffffffffffffffffffffffffffffffffffffffff7f000000000000000000000000000000000000000000000000000000000000000016638929a8ca367fffffffffffffffffffffffffffffffffffffffffffffffffffffffffffffffec013560601c6040517fffffffff0000000000000000000000000000000000000000000000000000000060e084901b16815273ffffffffffffffffffffffffffffffffffffffff9091166004820152336024820152604401602060405180830381865afa1580156107eb573d5f803e3d5ffd5b505050506040513d601f19601f8201168201806040525081019061080f9190610ee7565b1561081c576100e0610a75565b505f91369150565b5f333214806108335750601836105b1561083d57503390565b7fffffffffffffffffffffffffffffffffffffffffffffffffffffffffffffffec36013560601c7f000000000000000000000000000000000000000000000000000000000000000073ffffffffffffffffffffffffffffffffffffffff1633148061095757506040517f8929a8ca00000000000000000000000000000000000000000000000000000000815273ffffffffffffffffffffffffffffffffffffffff82811660048301523360248301527f00000000000000000000000000000000000000000000000000000000000000001690638929a8ca90604401602060405180830381865afa158015610933573d5f803e3d5ffd5b505050506040513d601f19601f820116820180604052508101906109579190610ee7565b1561096157919050565b3391505090565b5f6109c9826040518060400160405280602081526020017f5361666545524332303a206c6f772d6c6576656c2063616c6c206661696c65648152508573ffffffffffffffffffffffffffffffffffffffff16610aa59092919063ffffffff16565b905080515f14806109e95750808060200190518101906109e99190610ee7565b610564576040517f08c379a000000000000000000000000000000000000000000000000000000000815260206004820152602a60248201527f5361666545524332303a204552433230206f7065726174696f6e20646964206e60448201527f6f7420737563636565640000000000000000000000000000000000000000000060648201526084016104ca565b365f6100e07fffffffffffffffffffffffffffffffffffffffffffffffffffffffffffffffec8301828481610f06565b6060610ab384845f85610abb565b949350505050565b606082471015610b4d576040517f08c379a000000000000000000000000000000000000000000000000000000000815260206004820152602660248201527f416464726573733a20696e73756666696369656e742062616c616e636520666f60448201527f722063616c6c000000000000000000000000000000000000000000000000000060648201526084016104ca565b5f808673ffffffffffffffffffffffffffffffffffffffff168587604051610b759190610f4f565b5f6040518083038185875af1925050503d805f8114610baf576040519150601f19603f3d011682016040523d82523d5f602084013e610bb4565b606091505b5091509150610bc587838387610bd0565b979650505050505050565b60608315610c655782515f03610c5e5773ffffffffffffffffffffffffffffffffffffffff85163b610c5e576040517f08c379a000000000000000000000000000000000000000000000000000000000815260206004820152601d60248201527f416464726573733a2063616c6c20746f206e6f6e2d636f6e747261637400000060448201526064016104ca565b5081610ab3565b610ab38383815115610c7a5781518083602001fd5b806040517f08c379a00000000000000000000000000000000000000000000000000000000081526004016104ca9190610f6a565b60208152816020820152818360408301375f818301604090810191909152601f9092017fffffffffffffffffffffffffffffffffffffffffffffffffffffffffffffffe0160101919050565b5f8083601f840112610d0a575f80fd5b50813567ffffffffffffffff811115610d21575f80fd5b6020830191508360208260051b8501011115610d3b575f80fd5b9250929050565b5f805f805f8060608789031215610d57575f80fd5b863567ffffffffffffffff80821115610d6e575f80fd5b610d7a8a838b01610cfa565b90985096506020890135915080821115610d92575f80fd5b610d9e8a838b01610cfa565b90965094506040890135915080821115610db6575f80fd5b50610dc389828a01610cfa565b979a9699509497509295939492505050565b5f805f8060408587031215610de8575f80fd5b843567ffffffffffffffff80821115610dff575f80fd5b610e0b88838901610cfa565b90965094506020870135915080821115610e23575f80fd5b50610e3087828801610cfa565b95989497509550505050565b7f4e487b71000000000000000000000000000000000000000000000000000000005f52603260045260245ffd5b73ffffffffffffffffffffffffffffffffffffffff81168114610e8a575f80fd5b50565b5f60208284031215610e9d575f80fd5b8135610ea881610e69565b9392505050565b8181038181111561045d577f4e487b71000000000000000000000000000000000000000000000000000000005f52601160045260245ffd5b5f60208284031215610ef7575f80fd5b81518015158114610ea8575f80fd5b5f8085851115610f14575f80fd5b83861115610f20575f80fd5b5050820193919092039150565b5f5b83811015610f47578181015183820152602001610f2f565b50505f910152565b5f8251610f60818460208701610f2d565b9190910192915050565b602081525f8251806020840152610f88816040850160208701610f2d565b601f017fffffffffffffffffffffffffffffffffffffffffffffffffffffffffffffffe016919091016040019291505056fea264697066735822122048d6ebbed1a44c2d32cd46f98ab71e1d6969009df9143d13b6dd078db4dc7df064736f6c63430008150033",
  "linkReferences": {},
  "deployedLinkReferences": {}
}