{
  "_format": "hh-sol-artifact-1",
  "contractName": "TokenRecoveryFacetMock",
  "sourceName": "contracts/mocks/security/facets/TokenRecoveryFacetMock.sol",
  "abi": [
    {
      "inputs": [
        {
          "internalType": "contract IForwarderRegistry",
          "name": "forwarderRegistry",
          "type": "address"
        }
      ],
      "stateMutability": "nonpayable",
      "type": "constructor"
    },
    {
      "inputs": [],
      "name": "FailedCall",
      "type": "error"
    },
    {
      "inputs": [],
      "name": "InconsistentArrayLengths",
      "type": "error"
    },
    {
      "inputs": [
        {
          "internalType": "address",
          "name": "tokenContract",
          "type": "address"
        }
      ],
      "name": "IncorrectTokenContractType",
      "type": "error"
    },
    {
      "inputs": [
        {
          "internalType": "uint256",
          "name": "balance",
          "type": "uint256"
        },
        {
          "internalType": "uint256",
          "name": "needed",
          "type": "uint256"
        }
      ],
      "name": "InsufficientBalance",
      "type": "error"
    },
    {
      "inputs": [
        {
          "internalType": "address",
          "name": "account",
          "type": "address"
        }
      ],
      "name": "NotContractOwner",
      "type": "error"
    },
    {
      "inputs": [
        {
          "internalType": "address",
          "name": "token",
          "type": "address"
        }
      ],
      "name": "SafeERC20FailedOperation",
      "type": "error"
    },
    {
      "inputs": [],
      "name": "__msgData",
      "outputs": [
        {
          "internalType": "bytes",
          "name": "",
          "type": "bytes"
        }
      ],
      "stateMutability": "view",
      "type": "function"
    },
    {
      "inputs": [
        {
          "internalType": "address[]",
          "name": "accounts",
          "type": "address[]"
        },
        {
          "internalType": "contract IERC20[]",
          "name": "tokens",
          "type": "address[]"
        },
        {
          "internalType": "uint256[]",
          "name": "amounts",
          "type": "uint256[]"
        }
      ],
      "name": "recoverERC20s",
      "outputs": [],
      "stateMutability": "nonpayable",
      "type": "function"
    },
    {
      "inputs": [
        {
          "internalType": "address[]",
          "name": "accounts",
          "type": "address[]"
        },
        {
          "internalType": "contract IERC721[]",
          "name": "contracts",
          "type": "address[]"
        },
        {
          "internalType": "uint256[]",
          "name": "tokenIds",
          "type": "uint256[]"
        }
      ],
      "name": "recoverERC721s",
      "outputs": [],
      "stateMutability": "nonpayable",
      "type": "function"
    },
    {
      "inputs": [
        {
          "internalType": "address payable[]",
          "name": "accounts",
          "type": "address[]"
        },
        {
          "internalType": "uint256[]",
          "name": "amounts",
          "type": "uint256[]"
        }
      ],
      "name": "recoverETH",
      "outputs": [],
      "stateMutability": "nonpayable",
      "type": "function"
    },
    {
      "stateMutability": "payable",
      "type": "receive"
    }
  ],
  "bytecode": "0x60a060405234801561001057600080fd5b50604051610ebc380380610ebc83398101604081905261002f91610040565b6001600160a01b0316608052610070565b60006020828403121561005257600080fd5b81516001600160a01b038116811461006957600080fd5b9392505050565b608051610e1c6100a06000396000818161079b015281816107d90152818161091701526109a50152610e1c6000f3fe6080604052600436106100435760003560e01c806331e66e1e1461004f57806373c8a9581461007b578063c3666c361461009d578063f7ba94bd146100bd57600080fd5b3661004a57005b600080fd5b34801561005b57600080fd5b506100646100dd565b604051610072929190610b3b565b60405180910390f35b34801561008757600080fd5b5061009b610096366004610bd4565b6100f0565b005b3480156100a957600080fd5b5061009b6100b8366004610bd4565b6101f4565b3480156100c957600080fd5b5061009b6100d8366004610c7a565b61049a565b3660006100e8610559565b915091509091565b6101096100fb610564565b610103610573565b906105a7565b8483811415806101195750808214155b15610150576040517f6582533600000000000000000000000000000000000000000000000000000000815260040160405180910390fd5b60005b818110156101ea576101e288888381811061017057610170610ceb565b90506020020160208101906101859190610d3c565b85858481811061019757610197610ceb565b905060200201358888858181106101b0576101b0610ceb565b90506020020160208101906101c59190610d3c565b73ffffffffffffffffffffffffffffffffffffffff169190610616565b600101610153565b5050505050505050565b6101ff6100fb610564565b84838114158061020f5750808214155b15610246576040517f6582533600000000000000000000000000000000000000000000000000000000815260040160405180910390fd5b60005b818110156101ea57600086868381811061026557610265610ceb565b905060200201602081019061027a9190610d3c565b6040517f01ffc9a70000000000000000000000000000000000000000000000000000000081527f80ac58cd00000000000000000000000000000000000000000000000000000000600482015290915073ffffffffffffffffffffffffffffffffffffffff8216906301ffc9a790602401602060405180830381865afa158015610307573d6000803e3d6000fd5b505050506040513d601f19601f8201168201806040525081019061032b9190610d60565b61037e576040517f986b9f1f00000000000000000000000000000000000000000000000000000000815273ffffffffffffffffffffffffffffffffffffffff821660048201526024015b60405180910390fd5b86868381811061039057610390610ceb565b90506020020160208101906103a59190610d3c565b73ffffffffffffffffffffffffffffffffffffffff166342842e0e308b8b868181106103d3576103d3610ceb565b90506020020160208101906103e89190610d3c565b8888878181106103fa576103fa610ceb565b6040517fffffffff0000000000000000000000000000000000000000000000000000000060e088901b16815273ffffffffffffffffffffffffffffffffffffffff958616600482015294909316602485015250602090910201356044820152606401600060405180830381600087803b15801561047657600080fd5b505af115801561048a573d6000803e3d6000fd5b5050505050806001019050610249565b6104a56100fb610564565b828181146104df576040517f6582533600000000000000000000000000000000000000000000000000000000815260040160405180910390fd5b60005b81811015610551576105498484838181106104ff576104ff610ceb565b9050602002013587878481811061051857610518610ceb565b905060200201602081019061052d9190610d3c565b73ffffffffffffffffffffffffffffffffffffffff16906106a8565b6001016104e2565b505050505050565b3660006100e8610764565b600061056e6108d4565b905090565b6000806105a160017fc9ed16f33ab3a66c84bfd83099ccb2a8845871e2e1c1928f63797152f0fd54cd610d82565b92915050565b815473ffffffffffffffffffffffffffffffffffffffff828116911614610612576040517f2ef4875e00000000000000000000000000000000000000000000000000000000815273ffffffffffffffffffffffffffffffffffffffff82166004820152602401610375565b5050565b6040805173ffffffffffffffffffffffffffffffffffffffff8416602482015260448082018490528251808303909101815260649091019091526020810180517bffffffffffffffffffffffffffffffffffffffffffffffffffffffff167fa9059cbb000000000000000000000000000000000000000000000000000000001790526106a3908490610a21565b505050565b804710156106eb576040517fcf47918100000000000000000000000000000000000000000000000000000000815247600482015260248101829052604401610375565b6000808373ffffffffffffffffffffffffffffffffffffffff168360405160006040518083038185875af1925050503d8060008114610746576040519150601f19603f3d011682016040523d82523d6000602084013e61074b565b606091505b50915091508161075e5761075e81610ac5565b50505050565b366000333214806107755750601836105b156107835750600091369150565b3373ffffffffffffffffffffffffffffffffffffffff7f00000000000000000000000000000000000000000000000000000000000000001614806108be575073ffffffffffffffffffffffffffffffffffffffff7f00000000000000000000000000000000000000000000000000000000000000001663019a2028367fffffffffffffffffffffffffffffffffffffffffffffffffffffffffffffffec013560601c6040517fffffffff0000000000000000000000000000000000000000000000000000000060e084901b16815273ffffffffffffffffffffffffffffffffffffffff9091166004820152336024820152306044820152606401602060405180830381865afa15801561089a573d6000803e3d6000fd5b505050506040513d601f19601f820116820180604052508101906108be9190610d60565b156108cb576100e8610b0a565b50600091369150565b6000333214806108e45750601836105b156108ee57503390565b7fffffffffffffffffffffffffffffffffffffffffffffffffffffffffffffffec36013560601c7f000000000000000000000000000000000000000000000000000000000000000073ffffffffffffffffffffffffffffffffffffffff16331480610a1057506040517f019a202800000000000000000000000000000000000000000000000000000000815273ffffffffffffffffffffffffffffffffffffffff82811660048301523360248301523060448301527f0000000000000000000000000000000000000000000000000000000000000000169063019a202890606401602060405180830381865afa1580156109ec573d6000803e3d6000fd5b505050506040513d601f19601f82011682018060405250810190610a109190610d60565b15610a1a57919050565b3391505090565b600080602060008451602086016000885af180610a44576040513d6000823e3d81fd5b50506000513d91508115610a5c578060011415610a76565b73ffffffffffffffffffffffffffffffffffffffff84163b155b1561075e576040517f5274afe700000000000000000000000000000000000000000000000000000000815273ffffffffffffffffffffffffffffffffffffffff85166004820152602401610375565b805115610ad55780518082602001fd5b6040517fd6bda27500000000000000000000000000000000000000000000000000000000815260040160405180910390fd5b50565b3660006100e87fffffffffffffffffffffffffffffffffffffffffffffffffffffffffffffffec8301828481610dbc565b60208152816020820152818360408301376000818301604090810191909152601f9092017fffffffffffffffffffffffffffffffffffffffffffffffffffffffffffffffe0160101919050565b60008083601f840112610b9a57600080fd5b50813567ffffffffffffffff811115610bb257600080fd5b6020830191508360208260051b8501011115610bcd57600080fd5b9250929050565b60008060008060008060608789031215610bed57600080fd5b863567ffffffffffffffff811115610c0457600080fd5b610c1089828a01610b88565b909750955050602087013567ffffffffffffffff811115610c3057600080fd5b610c3c89828a01610b88565b909550935050604087013567ffffffffffffffff811115610c5c57600080fd5b610c6889828a01610b88565b979a9699509497509295939492505050565b60008060008060408587031215610c9057600080fd5b843567ffffffffffffffff811115610ca757600080fd5b610cb387828801610b88565b909550935050602085013567ffffffffffffffff811115610cd357600080fd5b610cdf87828801610b88565b95989497509550505050565b7f4e487b7100000000000000000000000000000000000000000000000000000000600052603260045260246000fd5b73ffffffffffffffffffffffffffffffffffffffff81168114610b0757600080fd5b600060208284031215610d4e57600080fd5b8135610d5981610d1a565b9392505050565b600060208284031215610d7257600080fd5b81518015158114610d5957600080fd5b818103818111156105a1577f4e487b7100000000000000000000000000000000000000000000000000000000600052601160045260246000fd5b60008085851115610dcc57600080fd5b83861115610dd957600080fd5b505082019391909203915056fea26469706673582212201bd5e94ea3bb0a123aa1a6355b41d944d4f1c5ce985a7430d3b7a964406a536564736f6c634300081c0033",
  "linkReferences": {},
  "deployedLinkReferences": {}
}