{
  "_format": "hh-sol-artifact-1",
  "contractName": "ERC721DeliverableOnceFacet",
  "sourceName": "contracts/token/ERC721/facets/ERC721DeliverableOnceFacet.sol",
  "abi": [
    {
      "inputs": [
        {
          "internalType": "contract IForwarderRegistry",
          "name": "forwarderRegistry",
          "type": "address"
        }
      ],
      "stateMutability": "nonpayable",
      "type": "constructor"
    },
    {
      "anonymous": false,
      "inputs": [
        {
          "indexed": true,
          "internalType": "address",
          "name": "owner",
          "type": "address"
        },
        {
          "indexed": true,
          "internalType": "address",
          "name": "approved",
          "type": "address"
        },
        {
          "indexed": true,
          "internalType": "uint256",
          "name": "tokenId",
          "type": "uint256"
        }
      ],
      "name": "Approval",
      "type": "event"
    },
    {
      "anonymous": false,
      "inputs": [
        {
          "indexed": true,
          "internalType": "address",
          "name": "owner",
          "type": "address"
        },
        {
          "indexed": true,
          "internalType": "address",
          "name": "operator",
          "type": "address"
        },
        {
          "indexed": false,
          "internalType": "bool",
          "name": "approved",
          "type": "bool"
        }
      ],
      "name": "ApprovalForAll",
      "type": "event"
    },
    {
      "anonymous": false,
      "inputs": [
        {
          "indexed": true,
          "internalType": "address",
          "name": "from",
          "type": "address"
        },
        {
          "indexed": true,
          "internalType": "address",
          "name": "to",
          "type": "address"
        },
        {
          "indexed": true,
          "internalType": "uint256",
          "name": "tokenId",
          "type": "uint256"
        }
      ],
      "name": "Transfer",
      "type": "event"
    },
    {
      "inputs": [
        {
          "internalType": "address[]",
          "name": "recipients",
          "type": "address[]"
        },
        {
          "internalType": "uint256[]",
          "name": "tokenIds",
          "type": "uint256[]"
        }
      ],
      "name": "deliver",
      "outputs": [],
      "stateMutability": "nonpayable",
      "type": "function"
    },
    {
      "inputs": [],
      "name": "initERC721DeliverableOnceStorage",
      "outputs": [],
      "stateMutability": "nonpayable",
      "type": "function"
    }
  ],
  "bytecode": "0x60a060405234801561000f575f80fd5b50604051610d26380380610d2683398101604081905261002e9161003f565b6001600160a01b031660805261006c565b5f6020828403121561004f575f80fd5b81516001600160a01b0381168114610065575f80fd5b9392505050565b608051610c9b61008b5f395f818161065c01526106e40152610c9b5ff3fe608060405234801561000f575f80fd5b5060043610610034575f3560e01c80639da5e83214610038578063c0b884681461004d575b5f80fd5b61004b610046366004610a69565b610055565b005b61004b61010c565b6100907f6d696e746572000000000000000000000000000000000000000000000000000061008161012f565b61008961013d565b9190610170565b6101068484808060200260200160405190810160405280939291908181526020018383602002808284375f92019190915250506040805160208088028281018201909352878252909350879250869182918501908490808284375f920191909152506100ff9250610229915050565b9190610256565b50505050565b61012561011761012f565b61011f610531565b9061055e565b61012d6105e5565b565b5f61013861061a565b905090565b5f8061016a60017fc8827d3282af6f37b64c3e9e6f3ac9df286ab0bb0fccd6f8661bf19adb368b23610ad0565b92915050565b5f8281526020848152604080832073ffffffffffffffffffffffffffffffffffffffff8516845290915290205460ff16610224576101ad8261075e565b6040516020016101bd9190610b2a565b604080517fffffffffffffffffffffffffffffffffffffffffffffffffffffffffffffffe0818403018152908290527f08c379a000000000000000000000000000000000000000000000000000000000825261021b91600401610b95565b60405180910390fd5b505050565b5f8061016a60017fddf3ee18ae6d688373c219468f8be446e7ae82215f4779d821c7ea5e8c13c0c1610ad0565b8151815181146102c2576040517f08c379a000000000000000000000000000000000000000000000000000000000815260206004820152601b60248201527f4552433732313a20696e636f6e73697374656e74206172726179730000000000604482015260640161021b565b5f5b81811461052a575f8482815181106102de576102de610be5565b602002602001015190505f73ffffffffffffffffffffffffffffffffffffffff168173ffffffffffffffffffffffffffffffffffffffff160361037d576040517f08c379a000000000000000000000000000000000000000000000000000000000815260206004820152601a60248201527f4552433732313a206d696e7420746f2061646472657373283029000000000000604482015260640161021b565b5f84838151811061039057610390610be5565b6020908102919091018101515f8181529189905260409091205490915073ffffffffffffffffffffffffffffffffffffffff81161561042b576040517f08c379a000000000000000000000000000000000000000000000000000000000815260206004820152601660248201527f4552433732313a206578697374696e6720746f6b656e00000000000000000000604482015260640161021b565b7fdead00000000000000000000000000000000000000000000000000000000000081036104b4576040517f08c379a000000000000000000000000000000000000000000000000000000000815260206004820152601360248201527f4552433732313a206275726e7420746f6b656e00000000000000000000000000604482015260640161021b565b5f8281526020898152604080832073ffffffffffffffffffffffffffffffffffffffff8716908190558084526001808d019093528184208054909301909255518492907fddf252ad1be2c89b69c2b068fc378daa952ba7f163c4a11628f55a4df523b3ef908290a45050508060010190506102c4565b5050505050565b5f8061016a60017fb53127684a568b3173ae13b9f8a6016e243e63b6e8ee1178d6a717850b5d6104610ad0565b815473ffffffffffffffffffffffffffffffffffffffff8281169116146105e1576040517f08c379a000000000000000000000000000000000000000000000000000000000815260206004820152601960248201527f50726f787941646d696e3a206e6f74207468652061646d696e00000000000000604482015260640161021b565b5050565b61012d7f9da5e8320000000000000000000000000000000000000000000000000000000060016106136108e9565b9190610916565b5f333214806106295750601836105b1561063357503390565b7fffffffffffffffffffffffffffffffffffffffffffffffffffffffffffffffec36013560601c7f000000000000000000000000000000000000000000000000000000000000000073ffffffffffffffffffffffffffffffffffffffff1633148061074d57506040517f8929a8ca00000000000000000000000000000000000000000000000000000000815273ffffffffffffffffffffffffffffffffffffffff82811660048301523360248301527f00000000000000000000000000000000000000000000000000000000000000001690638929a8ca90604401602060405180830381865afa158015610729573d5f803e3d5ffd5b505050506040513d601f19601f8201168201806040525081019061074d9190610c12565b1561075757919050565b3391505090565b60605f82900361077b57505060408051602081019091525f815290565b5f8260405160200161078f91815260200190565b604080517fffffffffffffffffffffffffffffffffffffffffffffffffffffffffffffffe08184030181529190529050601f5b8181815181106107d4576107d4610be5565b01602001517fff00000000000000000000000000000000000000000000000000000000000000165f03610828577fffffffffffffffffffffffffffffffffffffffffffffffffffffffffffffffff016107c2565b5f8160010167ffffffffffffffff81111561084557610845610c38565b6040519080825280601f01601f19166020018201604052801561086f576020820181803683370190505b5090505f5b8281116108e05783818151811061088d5761088d610be5565b602001015160f81c60f81b8282815181106108aa576108aa610be5565b60200101907effffffffffffffffffffffffffffffffffffffffffffffffffffffffffffff191690815f1a905350600101610874565b50949350505050565b5f8061016a60017fca9d3e17f264b0f3984e2634e94adb37fa3e6a8103f06aeae6fa59e21c769f5e610ad0565b7c01000000000000000000000000000000000000000000000000000000007fffffffff000000000000000000000000000000000000000000000000000000008316016109be576040517f08c379a000000000000000000000000000000000000000000000000000000000815260206004820152601f60248201527f496e74657266616365446574656374696f6e3a2077726f6e672076616c756500604482015260640161021b565b7fffffffff00000000000000000000000000000000000000000000000000000000919091165f908152602092909252604090912080547fffffffffffffffffffffffffffffffffffffffffffffffffffffffffffffff0016911515919091179055565b5f8083601f840112610a31575f80fd5b50813567ffffffffffffffff811115610a48575f80fd5b6020830191508360208260051b8501011115610a62575f80fd5b9250929050565b5f805f8060408587031215610a7c575f80fd5b843567ffffffffffffffff80821115610a93575f80fd5b610a9f88838901610a21565b90965094506020870135915080821115610ab7575f80fd5b50610ac487828801610a21565b95989497509550505050565b8181038181111561016a577f4e487b71000000000000000000000000000000000000000000000000000000005f52601160045260245ffd5b5f5b83811015610b22578181015183820152602001610b0a565b50505f910152565b7f416363657373436f6e74726f6c3a206d697373696e672027000000000000000081525f8251610b61816018850160208701610b08565b7f2720726f6c6500000000000000000000000000000000000000000000000000006018939091019283015250601e01919050565b602081525f8251806020840152610bb3816040850160208701610b08565b601f017fffffffffffffffffffffffffffffffffffffffffffffffffffffffffffffffe0169190910160400192915050565b7f4e487b71000000000000000000000000000000000000000000000000000000005f52603260045260245ffd5b5f60208284031215610c22575f80fd5b81518015158114610c31575f80fd5b9392505050565b7f4e487b71000000000000000000000000000000000000000000000000000000005f52604160045260245ffdfea264697066735822122072865cebe675c04c3da124e4eab8a0a60c4ad9ecd3a2b86b6e0d141a9ba7fd0564736f6c63430008150033",
  "linkReferences": {},
  "deployedLinkReferences": {}
}