{
  "_format": "hh-sol-artifact-1",
  "contractName": "RecoverableFacetMock",
  "sourceName": "contracts/mocks/security/RecoverableFacetMock.sol",
  "abi": [
    {
      "inputs": [
        {
          "internalType": "contract IForwarderRegistry",
          "name": "forwarderRegistry",
          "type": "address"
        }
      ],
      "stateMutability": "nonpayable",
      "type": "constructor"
    },
    {
      "inputs": [],
      "name": "__msgData",
      "outputs": [
        {
          "internalType": "bytes",
          "name": "",
          "type": "bytes"
        }
      ],
      "stateMutability": "view",
      "type": "function"
    },
    {
      "inputs": [
        {
          "internalType": "address[]",
          "name": "accounts",
          "type": "address[]"
        },
        {
          "internalType": "address[]",
          "name": "tokens",
          "type": "address[]"
        },
        {
          "internalType": "uint256[]",
          "name": "amounts",
          "type": "uint256[]"
        }
      ],
      "name": "recoverERC20s",
      "outputs": [],
      "stateMutability": "nonpayable",
      "type": "function"
    },
    {
      "inputs": [
        {
          "internalType": "address[]",
          "name": "accounts",
          "type": "address[]"
        },
        {
          "internalType": "address[]",
          "name": "contracts",
          "type": "address[]"
        },
        {
          "internalType": "uint256[]",
          "name": "tokenIds",
          "type": "uint256[]"
        }
      ],
      "name": "recoverERC721s",
      "outputs": [],
      "stateMutability": "nonpayable",
      "type": "function"
    }
  ],
  "bytecode": "0x60a06040523480156200001157600080fd5b506040516200261438038062002614833981810160405281019062000037919062000201565b80806200006d7f6a83522c126b1f14401cda64886fc651a7060f385b5e2d289e620e1859fee4e760001b6200017a60201b60201c565b620000a17ff6fd3c5688ac3ada9425e55f9cce326a85fd64fca9b1584401f3d2203aee560b60001b6200017a60201b60201c565b620000d57fe7883c748f395270b53c914004a2b83ffb6acf3836fed33ec0a3c0eb061e618860001b6200017a60201b60201c565b8073ffffffffffffffffffffffffffffffffffffffff1660808173ffffffffffffffffffffffffffffffffffffffff1681525050506200013e7fca76b9e3f3d40e8ee67ebfbb4eb3806221e05233e1595e4c2c3bdb6bdd59b63f60001b6200017d60201b60201c565b50620001737fca307d6dd30d5c4207df43dbc956cceeb13b43ada59f630695bcf3befa9a8bfc60001b6200018060201b60201c565b5062000233565b50565b50565b50565b600080fd5b600073ffffffffffffffffffffffffffffffffffffffff82169050919050565b6000620001b58262000188565b9050919050565b6000620001c982620001a8565b9050919050565b620001db81620001bc565b8114620001e757600080fd5b50565b600081519050620001fb81620001d0565b92915050565b6000602082840312156200021a576200021962000183565b5b60006200022a84828501620001ea565b91505092915050565b6080516123b06200026460003960008181610f2301528181610f78015281816113d3015261142801526123b06000f3fe608060405234801561001057600080fd5b50600436106100415760003560e01c806331e66e1e1461004657806373c8a95814610065578063c3666c3614610081575b600080fd5b61004e61009d565b60405161005c929190611bb0565b60405180910390f35b61007f600480360381019061007a9190611c99565b610134565b005b61009b60048036038101906100969190611c99565b6104a3565b005b3660006100cc7f961619c6828c31aec7dcaaf8302979caea4822f8ccb42b08ce15b00a77cc226c60001b610856565b6100f87fdc3975787425f4e609bccee1ea38320e50479fab9c7f90c4176d46ad5d9a8d8160001b610856565b6101247f775da1133a18bd82ca552b0fd410ceab56460a0aecbd4cfc5ce461b66ab906ab60001b610856565b61012c610859565b915091509091565b6101607f016fce6fae9c05fb032028de0375a7095ea7c49766cd2b96927bf0fcae13249160001b6108f0565b61018c7fe565a708704589c301be854d05fd2ee603e6349870d8d8cdfd226824e107273760001b6108f0565b6101b87f9d9dd67c4e7958a66840aa0100e2778faf4f97720c166367ad84899329e0c45160001b6108f0565b6101d96101c36108f3565b6101cb610986565b610a7690919063ffffffff16565b6102057f6caa8c98a4618cab749004b7ef7babab27d7d9d0bd2a869acd3ace7af17a443660001b6108f0565b6102317fb3316ad0e2a6e11bd261a37f35cd0c6382c4780a2fb053d39261a590d0cbd34160001b6108f0565b60008686905090506102657fca517cd2f167cfd66dbae7ad44b94cf5d6f01a8dec589383b7f3380147fdfd9560001b6108f0565b6102917f7c52757fbf9e52c38e3e8793de4d168071243d42dec5bce05577373d3636e09160001b6108f0565b6102bd7f090214adf27048c72bcbff825ce1ec8a1017d02d0c64a5f70a166c69b7b5cc4d60001b6108f0565b84849050811480156102d157508282905081145b610310576040517f08c379a000000000000000000000000000000000000000000000000000000000815260040161030790611daa565b60405180910390fd5b61033c7fe86018585dd39c9cb677051dce8bdf6fba155e56a51ddb2a423a773d3622dcae60001b6108f0565b6103687fafa9903618421a326c7eb385b3fd0b5f2cece01ab23f166e6a3d9101f559bfad60001b6108f0565b6103947f471ffd85a5c25f9275a569d2a61613147e35bee60a44d4ad8cba61caaa5b9aba60001b6108f0565b60005b818114610499576103ca7f95e243928ed7fe15e3c55ceeac60769ed68d084c60620812b3249bb2dc81b69560001b6108f0565b6103f67fdc7f9fda25f1c995706ea0aee8205c2b0e40305a1f1b910c67c8e9427521bd3760001b6108f0565b61048888888381811061040c5761040b611dca565b5b90506020020160208101906104219190611e57565b85858481811061043457610433611dca565b5b9050602002013588888581811061044e5761044d611dca565b5b90506020020160208101906104639190611e57565b73ffffffffffffffffffffffffffffffffffffffff16610be89092919063ffffffff16565b8061049290611ebd565b9050610397565b5050505050505050565b6104cf7f10afdde172b0464621b68c91e783b39a120adddbb67cb3eae5dd9f42a62d2e2060001b6108f0565b6104fb7f328c9ec76ed8cfb2d5d74d3498a58b266ca5c61e137f56016841ac5b16cead3260001b6108f0565b6105277fba416e5689cddf64ccd5c7d2d45bc1707105854c677a676b0061ac9ebcda4ab560001b6108f0565b6105486105326108f3565b61053a610986565b610a7690919063ffffffff16565b6105747f6108ceae36af3cd2fb1a9e07fe2fc8c70a7a619e4e5046ebff1bd94a17c7daee60001b6108f0565b6105a07f8c04b37b72e63cbb3976fa960443267916948463122a35e5f5a6ae7286b9600260001b6108f0565b60008686905090506105d47fc2ef00d9d836af8694c9344b99c6a40104544fae1ae8c2935011c9403055ab2d60001b6108f0565b6106007f9da1731e570ee7ee67a2341bb4a5f819ed6fced5ec22b3784ab4e51c0598918660001b6108f0565b61062c7fa8180ae7803a3cc8d2114518fa1ec8042328e1749a34f81ba02e2aa0f85921a960001b6108f0565b848490508114801561064057508282905081145b61067f576040517f08c379a000000000000000000000000000000000000000000000000000000000815260040161067690611daa565b60405180910390fd5b6106ab7faf3a3cd703b860a8319c263dade75be093b9a29f0fa6cf8f82c3f4c028a5994660001b6108f0565b6106d77f81cea93ecaeed0b69285ed83071cfe99b9cd4f612020a43305a754a28081647260001b6108f0565b6107037f4346a9f479606cd97428266b3f9a476b6d99957be2ee3fb68b3677f87b9e7b1060001b6108f0565b60005b81811461084c576107397f52edde16881c3ba6749ed5aae25cdf19b1a74bd4fbbb9080db835eeacc04470360001b6108f0565b6107657f0a726d8767a7ce968fb5746cf12f74178890de4d56a0ed688f6ac32c4141107f60001b6108f0565b85858281811061077857610777611dca565b5b905060200201602081019061078d9190611e57565b73ffffffffffffffffffffffffffffffffffffffff166323b872dd308a8a858181106107bc576107bb611dca565b5b90506020020160208101906107d19190611e57565b8787868181106107e4576107e3611dca565b5b905060200201356040518463ffffffff1660e01b815260040161080993929190611f23565b600060405180830381600087803b15801561082357600080fd5b505af1158015610837573d6000803e3d6000fd5b505050508061084590611ebd565b9050610706565b5050505050505050565b50565b3660006108887fa452dc4b543693b8fd420db5f77081cee047ae13fbad3c676c18a94e058de68460001b610cf2565b6108b47f6df5562b53036f788ae74add0585255f5e16fd27c4614f39f2dee530446a7ac660001b610cf2565b6108e07f811e54d50c6c0a353c2b2ade74ada8c4a47c6a2d59911b4bb3d6cc9384519b6860001b610cf2565b6108e8610cf5565b915091509091565b50565b60006109217f5e8bcd3851adcd17ab503cc5ac22073370731344b92a0876823f5aa67feff5db60001b610cf2565b61094d7ff65b176573198d26fc954b754ea084f8641937c9f7a27ea99993b2f936fb7ee460001b610cf2565b6109797fee4b83d781f770aeca63fe7e3c54e2d4b0101c8dd6b14b4203222e99d746923060001b610cf2565b610981611146565b905090565b60006109b47f12b4db1a13ae954a255ef0fa37765d8ee1e39537e429053253a663eff808644d60001b6115e3565b6109e07feebae444011023bb1eb9d991a8900c1fc6c9dc05e526ab9149645480ea211c3e60001b6115e3565b610a0c7f7a85e8875e57667831d822c4c89a943f00106e2fdc910c0df83014dfd0d1477360001b6115e3565b600060017f6a1da6973104ff7dedb9b4f5cab5830b3f4a0284ed754366cfc45568bd2d38df60001c610a3e9190611f5a565b60001b9050610a6f7fcd65f8dce9f650605649809ea57b1b403b2167736801d4eb4d6da1b99327986060001b6115e3565b8091505090565b610aa27f311cb72dc07750d6828e4b4e89b77f33fb16c70db0f74c9dbf7e01b75fe2538460001b6115e3565b610ace7f5a948a147df45bdb71c8f98a865604b23d4880b5921ab247626470201792a9d460001b6115e3565b610afa7faa1ac481ace62e8856a31e42b6fa6ad7e8b29c10fa062b8775baa1bf5185f76360001b6115e3565b610b267fa565745ecf1d7ea43fd9e19c5a7b72dbef31f2d274ba98df9594459d1fdda02f60001b6115e3565b8160000160009054906101000a900473ffffffffffffffffffffffffffffffffffffffff1673ffffffffffffffffffffffffffffffffffffffff168173ffffffffffffffffffffffffffffffffffffffff1614610bb8576040517f08c379a0000000000000000000000000000000000000000000000000000000008152600401610baf90611fda565b60405180910390fd5b610be47f3cdf1cbcd193a5f563b48f16d650e4ae6a3f20aa956e2ea1fe221c3ff0241bd160001b6115e3565b5050565b610c147fc7c3131599d9f26afbee94d80af0294a2bb061c91f5f9920010eb01f8522b71d60001b6115e6565b610c407f421c8bcf0b9a395628f35ad41f48108ff5938f79cc2b4ba717ec0a59f5f3fd3e60001b6115e6565b610c6c7f7474b1fbd7f596e2f38d2bbcb68b70ef55ac4355a0e9fa5c2d5497218f29e74460001b6115e6565b610ced8363a9059cbb60e01b8484604051602401610c8b929190611ffa565b604051602081830303815290604052907bffffffffffffffffffffffffffffffffffffffffffffffffffffffff19166020820180517bffffffffffffffffffffffffffffffffffffffffffffffffffffffff83818316178352505050506115e9565b505050565b50565b366000610d247ff74f168f3cfe88b8c75939ced6593b63b3a80d84384ea84798e06eb70c27e8b560001b61187c565b610d507f0c30881a465ce740e34b44da3f5682b69b261b3b3d916bf3cb638422722c466360001b61187c565b610d7c7f7d034622f0cfa82b1eafef58ff96909800ff5cbda4aec1c658399402313d1e4760001b61187c565b6000339050610dad7f3e7b906c7c24b8d911bba8092ce84f23b5c1596b35038fef4ace71fcce1f3a0e60001b61187c565b610dd97f76d316808c9e8931ac3d89e37ff8d9a597f8e50813fa0a88766b36313e96041060001b61187c565b3273ffffffffffffffffffffffffffffffffffffffff168173ffffffffffffffffffffffffffffffffffffffff1603610e9d57610e387fa811c091d51641b1118f1402cc0638dc69041cba2f323377090e0a55500a152460001b61187c565b610e647ff673674fd259625637c155f7345382b871e4581df73bc53013494d30dd1dc16460001b61187c565b610e907f108112c7eebc35534afdbeeca8c2ad7449209fe78eeb1f9fdd0c5f6fb3111cce60001b61187c565b6000369250925050611142565b610ec97f8e23e3f35cdceddd8b15b45bf787b8d6ae38e04c5870f4020c01d683a2f10fc560001b61187c565b610ef57fb4f48de4e10f2751022dce70d5876a74afb41b756eb77cdf4fe88835769afb1a60001b61187c565b610f217f2afe9b0d9d36347d263d9c298082ea9eea1c1879c9904d44b9316a451e41b92f60001b61187c565b7f000000000000000000000000000000000000000000000000000000000000000073ffffffffffffffffffffffffffffffffffffffff168173ffffffffffffffffffffffffffffffffffffffff16148061101a57507f000000000000000000000000000000000000000000000000000000000000000073ffffffffffffffffffffffffffffffffffffffff1663e60125d6610fba61187f565b836040518363ffffffff1660e01b8152600401610fd8929190612023565b602060405180830381865afa158015610ff5573d6000803e3d6000fd5b505050506040513d601f19601f820116820180604052508101906110199190612084565b5b156110b55761104b7f2191333a031dc1f79f931a9c32f8cc636186c8d1941bf6ad2d0e09669ccdb2fd60001b61187c565b6110777f625d923af8cba91f74f7ad122740e01bcd36ee0be52b9596ca85f7881a963db360001b61187c565b6110a37f09e6b704caf4fc80a51357d4ff43f8bab75f1133b8a694db1fb7ac8851fe64b160001b61187c565b6110ab6118e6565b9250925050611142565b6110e17fcfd0711298438e2e01b8a5c4d5745b4b2a1fa1742e9ef04643fd654ff78cfca960001b61187c565b61110d7faec17026272a3ca53764ba29e047c1b72c1edbf88732d32ffae6b5c0d7fcf39960001b61187c565b6111397f7518e0f5afdd21984f9ce13318f9370b2d82da30fc4ffdbb78362126da32d52960001b61187c565b60003692509250505b9091565b60006111747f21f83b85e7dbc596177bc46cc6795c14520638d6db8281a9a46e4d6aa22fb1aa60001b61187c565b6111a07f9fe8a1e1e7c5f38bddac874222fbac3da358d377b550af606038c28c918342a660001b61187c565b6111cc7f4d776035fe014c48f9b8d211e07ad5f3e10a7407e640d6fd44f001ad72ec145460001b61187c565b60003390506111fd7f1470143c211ace273ad33be67e446aa27b56df8ff21c9e30df1c1ce1aab37faf60001b61187c565b6112297f701a5aed6b7834b1cde40063ca2763d0cc2a2d369e96d6ffd63bd7f36d010be860001b61187c565b3273ffffffffffffffffffffffffffffffffffffffff168173ffffffffffffffffffffffffffffffffffffffff16036112e9576112887fde73d737f19da71f7e0a8be64041464998117e05c9bb9f65df2259a0779caaa960001b61187c565b6112b47f2e1b1201e86447778e6a37c8701809fecc19c6c17c8cdf9a32e27254363f132c60001b61187c565b6112e07f06438a6776a73eebdc69485314350483a51cfddc04e159b6f57dde5e4030039060001b61187c565b809150506115e0565b6113157f6b510e6cfe0d366d8eb68be09db038d2dbfc0ca71029993b650b184340fc438a60001b61187c565b6113417fc81f2aa3e9c76ff8d9709ad059857726fb537b8fa6166dbedc9e3f598edddc4160001b61187c565b61136d7fd5cec79665173c3237287beadc96f615eba8ff220376c7f0add1c603fa1dcb0260001b61187c565b600061137761187f565b90506113a57f16b7bdd4d503ca2d391b420534e7b71ff847aea146e0c5e9b1d972d25ac95cf360001b61187c565b6113d17f8284349b0a2249652b224d12d5fd826a549839b4e0aab6630e88a99ebee0413860001b61187c565b7f000000000000000000000000000000000000000000000000000000000000000073ffffffffffffffffffffffffffffffffffffffff168273ffffffffffffffffffffffffffffffffffffffff1614806114c357507f000000000000000000000000000000000000000000000000000000000000000073ffffffffffffffffffffffffffffffffffffffff1663e60125d682846040518363ffffffff1660e01b8152600401611481929190612023565b602060405180830381865afa15801561149e573d6000803e3d6000fd5b505050506040513d601f19601f820116820180604052508101906114c29190612084565b5b15611556576114f47ff1748450d5c67d16e99d465b5f46314c0a03cb614c0a36c7a01d0d452a42d63760001b61187c565b6115207ffcb9fb7b37e10dcd260ee2b6500d072708cde8b16110ac602ac219c4f0ac7a8860001b61187c565b61154c7f0b8b6cb7f0d04c4b23441400a0a579a14ccf6e6d955d51d0d443ae3b764fbf1e60001b61187c565b80925050506115e0565b6115827fc6338ea7b912cb871ae88b37af8abae50806bb4e29d453caf0758aea491b82ab60001b61187c565b6115ae7fb1b2861ba78bbb686a91db34f76b76efe61d8e91016be1013861a8390b68a26860001b61187c565b6115da7f131b91089cbc4af49187f8d51fbbc23a25f13946f6ab1ab771005101548d429760001b61187c565b81925050505b90565b50565b50565b6116157fbcca4dd5897c58575dbc0e451d2cac591145c22d3018d3a411ce31fe8afa386960001b6115e6565b6116417fc36c5e010e2b78abfaad2bf9ae6807ed3b445aaaab50035f09041e29aca99b3660001b6115e6565b61166d7f568df6a0fa9093a1bedc24b9f65f25fad457c32f9b32f54f69625f70a2c8fccc60001b6115e6565b60006116b282604051806060016040528060238152602001612358602391398573ffffffffffffffffffffffffffffffffffffffff166119999092919063ffffffff16565b90506116e07fbf2924f9785d5cfb3221bd565e16b3303299afb08805dd515eb2557ae6677d2260001b6115e6565b61170c7ff105c57f5d3cc02b79c5d2b1759ccff23ddc459aeb197ee6e83d10ffb4b0208260001b6115e6565b60008151111561184a576117427fbfc8b95c264dbffa9167eb77e9e6cf81f6687320a066fd176b26848a5e3a1a9460001b6115e6565b61176e7fd6e1b935be119d89998b82333c3c4ea82cc201d3bfbcabe23604f4ee6c5c72a760001b6115e6565b61179a7f721cc9355cef7fea136dcc71629319ec754b0c4ff08de9351846bb65517b34e160001b6115e6565b6117c67ffdd8974bae6d33f6c68239ccfa1beadd990bb8726a4ab0eb79643f5ced937d2360001b6115e6565b808060200190518101906117da9190612084565b611819576040517f08c379a0000000000000000000000000000000000000000000000000000000008152600401611810906120fd565b60405180910390fd5b6118457fd7af9135d7aa2224213d6c13ae01ea1bcd03fa61dd5338eb76ec09e9fd67712d60001b6115e6565b611877565b6118767f311a89077f137f82af525b36549e6593b8c752428ebed797d5023780af33b09960001b6115e6565b5b505050565b50565b60006118ad7fd2d14d566965719ee17c5b60ff32623f910e7a0e574f2eeae19a64856bd35c4c60001b6119b1565b6118d97fa390d1eca31ebd819e35c63e13daa420bd40dcdd984217eef68768880371b01d60001b6119b1565b601436033560601c905090565b3660006119157f7a9fde0e4d93131667b711f92dc641fa832990e5bb6a3b4626ffa6b5d4f3fdae60001b6119b1565b6119417fc610f11635537ce6a03686b10e383cf783da248254319abfbb04eeb973e3acd760001b6119b1565b61196d7f17531d10ccf76e2a802938b28b374efcd761ac66995a64071083ebf2a16e732060001b6119b1565b600036600090601460003690506119849190611f5a565b9261199193929190612127565b915091509091565b60606119a884846000856119b4565b90509392505050565b50565b6060824710156119f9576040517f08c379a00000000000000000000000000000000000000000000000000000000081526004016119f0906121d4565b60405180910390fd5b611a0285611ac8565b611a41576040517f08c379a0000000000000000000000000000000000000000000000000000000008152600401611a3890612240565b60405180910390fd5b6000808673ffffffffffffffffffffffffffffffffffffffff168587604051611a6a91906122da565b60006040518083038185875af1925050503d8060008114611aa7576040519150601f19603f3d011682016040523d82523d6000602084013e611aac565b606091505b5091509150611abc828286611aeb565b92505050949350505050565b6000808273ffffffffffffffffffffffffffffffffffffffff163b119050919050565b60608315611afb57829050611b4b565b600083511115611b0e5782518084602001fd5b816040517f08c379a0000000000000000000000000000000000000000000000000000000008152600401611b429190612335565b60405180910390fd5b9392505050565b600082825260208201905092915050565b82818337600083830152505050565b6000601f19601f8301169050919050565b6000611b8f8385611b52565b9350611b9c838584611b63565b611ba583611b72565b840190509392505050565b60006020820190508181036000830152611bcb818486611b83565b90509392505050565b600080fd5b600080fd5b600080fd5b600080fd5b600080fd5b60008083601f840112611c0357611c02611bde565b5b8235905067ffffffffffffffff811115611c2057611c1f611be3565b5b602083019150836020820283011115611c3c57611c3b611be8565b5b9250929050565b60008083601f840112611c5957611c58611bde565b5b8235905067ffffffffffffffff811115611c7657611c75611be3565b5b602083019150836020820283011115611c9257611c91611be8565b5b9250929050565b60008060008060008060608789031215611cb657611cb5611bd4565b5b600087013567ffffffffffffffff811115611cd457611cd3611bd9565b5b611ce089828a01611bed565b9650965050602087013567ffffffffffffffff811115611d0357611d02611bd9565b5b611d0f89828a01611bed565b9450945050604087013567ffffffffffffffff811115611d3257611d31611bd9565b5b611d3e89828a01611c43565b92509250509295509295509295565b600082825260208201905092915050565b7f5265636f766572793a20696e636f6e73697374656e7420617272617973000000600082015250565b6000611d94601d83611d4d565b9150611d9f82611d5e565b602082019050919050565b60006020820190508181036000830152611dc381611d87565b9050919050565b7f4e487b7100000000000000000000000000000000000000000000000000000000600052603260045260246000fd5b600073ffffffffffffffffffffffffffffffffffffffff82169050919050565b6000611e2482611df9565b9050919050565b611e3481611e19565b8114611e3f57600080fd5b50565b600081359050611e5181611e2b565b92915050565b600060208284031215611e6d57611e6c611bd4565b5b6000611e7b84828501611e42565b91505092915050565b7f4e487b7100000000000000000000000000000000000000000000000000000000600052601160045260246000fd5b6000819050919050565b6000611ec882611eb3565b91507fffffffffffffffffffffffffffffffffffffffffffffffffffffffffffffffff8203611efa57611ef9611e84565b5b600182019050919050565b611f0e81611e19565b82525050565b611f1d81611eb3565b82525050565b6000606082019050611f386000830186611f05565b611f456020830185611f05565b611f526040830184611f14565b949350505050565b6000611f6582611eb3565b9150611f7083611eb3565b925082821015611f8357611f82611e84565b5b828203905092915050565b7f4f776e6572736869703a206e6f7420746865206f776e65720000000000000000600082015250565b6000611fc4601883611d4d565b9150611fcf82611f8e565b602082019050919050565b60006020820190508181036000830152611ff381611fb7565b9050919050565b600060408201905061200f6000830185611f05565b61201c6020830184611f14565b9392505050565b60006040820190506120386000830185611f05565b6120456020830184611f05565b9392505050565b60008115159050919050565b6120618161204c565b811461206c57600080fd5b50565b60008151905061207e81612058565b92915050565b60006020828403121561209a57612099611bd4565b5b60006120a88482850161206f565b91505092915050565b7f4552433230577261707065723a206f7065726174696f6e206661696c65640000600082015250565b60006120e7601e83611d4d565b91506120f2826120b1565b602082019050919050565b60006020820190508181036000830152612116816120da565b9050919050565b600080fd5b600080fd5b6000808585111561213b5761213a61211d565b5b8386111561214c5761214b612122565b5b6001850283019150848603905094509492505050565b7f416464726573733a20696e73756666696369656e742062616c616e636520666f60008201527f722063616c6c0000000000000000000000000000000000000000000000000000602082015250565b60006121be602683611d4d565b91506121c982612162565b604082019050919050565b600060208201905081810360008301526121ed816121b1565b9050919050565b7f416464726573733a2063616c6c20746f206e6f6e2d636f6e7472616374000000600082015250565b600061222a601d83611d4d565b9150612235826121f4565b602082019050919050565b600060208201905081810360008301526122598161221d565b9050919050565b600081519050919050565b600081905092915050565b60005b83811015612294578082015181840152602081019050612279565b838111156122a3576000848401525b50505050565b60006122b482612260565b6122be818561226b565b93506122ce818560208601612276565b80840191505092915050565b60006122e682846122a9565b915081905092915050565b600081519050919050565b6000612307826122f1565b6123118185611d4d565b9350612321818560208601612276565b61232a81611b72565b840191505092915050565b6000602082019050818103600083015261234f81846122fc565b90509291505056fe4552433230577261707065723a206c6f772d6c6576656c2063616c6c206661696c6564a2646970667358221220b9625dac0b425b7e952425bbcd1652a844d3c3995d5990afc7a1af37711ce9bf64736f6c634300080d0033",
  "linkReferences": {},
  "deployedLinkReferences": {}
}