{
  "_format": "hh-sol-artifact-1",
  "contractName": "RecoverableFacetMock",
  "sourceName": "contracts/mocks/security/RecoverableFacetMock.sol",
  "abi": [
    {
      "inputs": [
        {
          "internalType": "contract IForwarderRegistry",
          "name": "forwarderRegistry",
          "type": "address"
        }
      ],
      "stateMutability": "nonpayable",
      "type": "constructor"
    },
    {
      "inputs": [],
      "name": "__msgData",
      "outputs": [
        {
          "internalType": "bytes",
          "name": "",
          "type": "bytes"
        }
      ],
      "stateMutability": "view",
      "type": "function"
    },
    {
      "inputs": [
        {
          "internalType": "address[]",
          "name": "accounts",
          "type": "address[]"
        },
        {
          "internalType": "address[]",
          "name": "tokens",
          "type": "address[]"
        },
        {
          "internalType": "uint256[]",
          "name": "amounts",
          "type": "uint256[]"
        }
      ],
      "name": "recoverERC20s",
      "outputs": [],
      "stateMutability": "nonpayable",
      "type": "function"
    },
    {
      "inputs": [
        {
          "internalType": "address[]",
          "name": "accounts",
          "type": "address[]"
        },
        {
          "internalType": "address[]",
          "name": "contracts",
          "type": "address[]"
        },
        {
          "internalType": "uint256[]",
          "name": "tokenIds",
          "type": "uint256[]"
        }
      ],
      "name": "recoverERC721s",
      "outputs": [],
      "stateMutability": "nonpayable",
      "type": "function"
    }
  ],
  "bytecode": "0x60a060405234801561001057600080fd5b50604051610ea5380380610ea583398101604081905261002f91610040565b6001600160a01b0316608052610070565b60006020828403121561005257600080fd5b81516001600160a01b038116811461006957600080fd5b9392505050565b608051610e056100a06000396000818161050801528181610572015281816106b001526107500152610e056000f3fe608060405234801561001057600080fd5b50600436106100415760003560e01c806331e66e1e1461004657806373c8a95814610065578063c3666c361461007a575b600080fd5b61004e61008d565b60405161005c929190610aad565b60405180910390f35b610078610073366004610b46565b6100a0565b005b610078610088366004610b46565b6101de565b366000610098610389565b915091509091565b6100b96100ab610394565b6100b36103a3565b906103d7565b8483811480156100c857508082145b610133576040517f08c379a000000000000000000000000000000000000000000000000000000000815260206004820152601d60248201527f5265636f766572793a20696e636f6e73697374656e742061727261797300000060448201526064015b60405180910390fd5b60005b8181146101d4576101c488888381811061015257610152610be0565b90506020020160208101906101679190610c0f565b85858481811061017957610179610be0565b9050602002013588888581811061019257610192610be0565b90506020020160208101906101a79190610c0f565b73ffffffffffffffffffffffffffffffffffffffff16919061045e565b6101cd81610c74565b9050610136565b5050505050505050565b6101e96100ab610394565b8483811480156101f857508082145b61025e576040517f08c379a000000000000000000000000000000000000000000000000000000000815260206004820152601d60248201527f5265636f766572793a20696e636f6e73697374656e7420617272617973000000604482015260640161012a565b60005b8181146101d45785858281811061027a5761027a610be0565b905060200201602081019061028f9190610c0f565b73ffffffffffffffffffffffffffffffffffffffff166323b872dd308a8a858181106102bd576102bd610be0565b90506020020160208101906102d29190610c0f565b8787868181106102e4576102e4610be0565b6040517fffffffff0000000000000000000000000000000000000000000000000000000060e088901b16815273ffffffffffffffffffffffffffffffffffffffff958616600482015294909316602485015250602090910201356044820152606401600060405180830381600087803b15801561036057600080fd5b505af1158015610374573d6000803e3d6000fd5b505050508061038290610c74565b9050610261565b3660006100986104f0565b600061039e610674565b905090565b6000806103d160017f6a1da6973104ff7dedb9b4f5cab5830b3f4a0284ed754366cfc45568bd2d38df610cac565b92915050565b815473ffffffffffffffffffffffffffffffffffffffff82811691161461045a576040517f08c379a000000000000000000000000000000000000000000000000000000000815260206004820152601860248201527f4f776e6572736869703a206e6f7420746865206f776e65720000000000000000604482015260640161012a565b5050565b6040805173ffffffffffffffffffffffffffffffffffffffff8416602482015260448082018490528251808303909101815260649091019091526020810180517bffffffffffffffffffffffffffffffffffffffffffffffffffffffff167fa9059cbb000000000000000000000000000000000000000000000000000000001790526104eb9084906107cc565b505050565b3660003332810361050657506000923692509050565b7f000000000000000000000000000000000000000000000000000000000000000073ffffffffffffffffffffffffffffffffffffffff168173ffffffffffffffffffffffffffffffffffffffff161480610653575073ffffffffffffffffffffffffffffffffffffffff7f00000000000000000000000000000000000000000000000000000000000000001663e60125d6367fffffffffffffffffffffffffffffffffffffffffffffffffffffffffffffffec013560601c6040517fffffffff0000000000000000000000000000000000000000000000000000000060e084901b16815273ffffffffffffffffffffffffffffffffffffffff91821660048201529084166024820152604401602060405180830381865afa15801561062f573d6000803e3d6000fd5b505050506040513d601f19601f820116820180604052508101906106539190610cc3565b156106695761066061088d565b92509250509091565b506000923692509050565b60003332810361068357919050565b6000367fffffffffffffffffffffffffffffffffffffffffffffffffffffffffffffffec013560601c90507f000000000000000000000000000000000000000000000000000000000000000073ffffffffffffffffffffffffffffffffffffffff168273ffffffffffffffffffffffffffffffffffffffff1614806107bb57506040517fe60125d600000000000000000000000000000000000000000000000000000000815273ffffffffffffffffffffffffffffffffffffffff828116600483015283811660248301527f0000000000000000000000000000000000000000000000000000000000000000169063e60125d690604401602060405180830381865afa158015610797573d6000803e3d6000fd5b505050506040513d601f19601f820116820180604052508101906107bb9190610cc3565b156107c65792915050565b50919050565b600061080982604051806060016040528060238152602001610dad6023913973ffffffffffffffffffffffffffffffffffffffff861691906108ab565b8051909150156104eb57808060200190518101906108279190610cc3565b6104eb576040517f08c379a000000000000000000000000000000000000000000000000000000000815260206004820152601e60248201527f4552433230577261707065723a206f7065726174696f6e206661696c65640000604482015260640161012a565b36600080808361089e601482610cac565b9261009893929190610ce5565b60606108ba84846000856108c4565b90505b9392505050565b606082471015610956576040517f08c379a000000000000000000000000000000000000000000000000000000000815260206004820152602660248201527f416464726573733a20696e73756666696369656e742062616c616e636520666f60448201527f722063616c6c0000000000000000000000000000000000000000000000000000606482015260840161012a565b73ffffffffffffffffffffffffffffffffffffffff85163b6109d4576040517f08c379a000000000000000000000000000000000000000000000000000000000815260206004820152601d60248201527f416464726573733a2063616c6c20746f206e6f6e2d636f6e7472616374000000604482015260640161012a565b6000808673ffffffffffffffffffffffffffffffffffffffff1685876040516109fd9190610d3f565b60006040518083038185875af1925050503d8060008114610a3a576040519150601f19603f3d011682016040523d82523d6000602084013e610a3f565b606091505b5091509150610a4f828286610a5a565b979650505050505050565b60608315610a695750816108bd565b825115610a795782518084602001fd5b816040517f08c379a000000000000000000000000000000000000000000000000000000000815260040161012a9190610d5b565b60208152816020820152818360408301376000818301604090810191909152601f9092017fffffffffffffffffffffffffffffffffffffffffffffffffffffffffffffffe0160101919050565b60008083601f840112610b0c57600080fd5b50813567ffffffffffffffff811115610b2457600080fd5b6020830191508360208260051b8501011115610b3f57600080fd5b9250929050565b60008060008060008060608789031215610b5f57600080fd5b863567ffffffffffffffff80821115610b7757600080fd5b610b838a838b01610afa565b90985096506020890135915080821115610b9c57600080fd5b610ba88a838b01610afa565b90965094506040890135915080821115610bc157600080fd5b50610bce89828a01610afa565b979a9699509497509295939492505050565b7f4e487b7100000000000000000000000000000000000000000000000000000000600052603260045260246000fd5b600060208284031215610c2157600080fd5b813573ffffffffffffffffffffffffffffffffffffffff811681146108bd57600080fd5b7f4e487b7100000000000000000000000000000000000000000000000000000000600052601160045260246000fd5b60007fffffffffffffffffffffffffffffffffffffffffffffffffffffffffffffffff8203610ca557610ca5610c45565b5060010190565b600082821015610cbe57610cbe610c45565b500390565b600060208284031215610cd557600080fd5b815180151581146108bd57600080fd5b60008085851115610cf557600080fd5b83861115610d0257600080fd5b5050820193919092039150565b60005b83811015610d2a578181015183820152602001610d12565b83811115610d39576000848401525b50505050565b60008251610d51818460208701610d0f565b9190910192915050565b6020815260008251806020840152610d7a816040850160208701610d0f565b601f017fffffffffffffffffffffffffffffffffffffffffffffffffffffffffffffffe016919091016040019291505056fe4552433230577261707065723a206c6f772d6c6576656c2063616c6c206661696c6564a2646970667358221220062c323245e845006c8b2da1dc8064feaa417207066aeef2b38fb471a66d895464736f6c634300080d0033",
  "linkReferences": {},
  "deployedLinkReferences": {}
}