{
  "_format": "hh-sol-artifact-1",
  "contractName": "ProxyAdminFacet",
  "sourceName": "contracts/proxy/ProxyAdminFacet.sol",
  "abi": [
    {
      "anonymous": false,
      "inputs": [
        {
          "indexed": false,
          "internalType": "address",
          "name": "previousAdmin",
          "type": "address"
        },
        {
          "indexed": false,
          "internalType": "address",
          "name": "newAdmin",
          "type": "address"
        }
      ],
      "name": "AdminChanged",
      "type": "event"
    },
    {
      "inputs": [
        {
          "internalType": "address",
          "name": "newAdmin",
          "type": "address"
        }
      ],
      "name": "changeProxyAdmin",
      "outputs": [],
      "stateMutability": "nonpayable",
      "type": "function"
    },
    {
      "inputs": [
        {
          "internalType": "address",
          "name": "initialAdmin",
          "type": "address"
        }
      ],
      "name": "initProxyAdminStorage",
      "outputs": [],
      "stateMutability": "nonpayable",
      "type": "function"
    },
    {
      "inputs": [],
      "name": "proxyAdmin",
      "outputs": [
        {
          "internalType": "address",
          "name": "admin",
          "type": "address"
        }
      ],
      "stateMutability": "view",
      "type": "function"
    }
  ],
  "bytecode": "0x608060405234801561001057600080fd5b50610f6b806100206000396000f3fe608060405234801561001057600080fd5b50600436106100415760003560e01c80633e47158c146100465780634d350622146100645780639f712f2f14610080575b600080fd5b61004e61009c565b60405161005b9190610cd1565b60405180910390f35b61007e60048036038101906100799190610d1d565b610153565b005b61009a60048036038101906100959190610d1d565b6101f4565b005b60006100ca7f12613d7fe3f294b9ff7d73a3c472ea89b9d4fb8b2ee2f0355f7082fb61db447860001b61029e565b6100f67fdcd8152bba5d80ac9a2266e3bbe08580cab38bb44e276a6768e180ec621ca27260001b61029e565b6101227f783f38b6964b5cf660dbeca6904981e17b6effc3d164e710cb99aec7a98e2f8060001b61029e565b61012a6102a1565b60000160009054906101000a900473ffffffffffffffffffffffffffffffffffffffff16905090565b61017f7fee6764aa8baba6f0ce8006a140e9655f2912dbd567b5aeae48e538a6d67be8cd60001b610391565b6101ab7f5a735d82f7f3d6c4e8e8b1f829765177d3cab2b35457472d5ccef27045b8bded60001b610391565b6101d77f9e6f51b891c3e04c145153fcca074bb026c161d31787e17798652a51c794e87760001b610391565b6101f1816101e36102a1565b61039490919063ffffffff16565b50565b6102207f188f38e7c4ef7d9b9b76b0ff25c34f7273a4531410afaaa153d1570cad434a5b60001b61029e565b61024c7f426a83a672a0b05cc0983c4b7a4b8d33858784a744df0ce71f85ad24c19dbd1960001b61029e565b6102787fdd65b6d40d57ed96f2411282ca6bf00ea1663ee11d39f799d917611834ac11fd60001b61029e565b61029b6102836106a5565b8261028c6102a1565b6106ad9092919063ffffffff16565b50565b50565b60006102cf7f29f8332165901d83adc683db950bfa7095446b76821902b9cad5a516e9f9f82660001b610a93565b6102fb7f5c570bd87bb3a186c2c87ff3dd5f58d2c75a5776fe94e0a63fa851fe46a5fa6c60001b610a93565b6103277f405d85ac952971491b2260d550a90002555502250fb83d68df5efc35f77841ce60001b610a93565b600060017fb53127684a568b3173ae13b9f8a6016e243e63b6e8ee1178d6a717850b5d610460001c6103599190610d83565b60001b905061038a7f1d9ce065e06330dbac07abf26a98b6d505daa95772ac105ad61ed7479f8c2b1260001b610a93565b8091505090565b50565b6103c07f43e4d1aac40fc9359c8c80caeeb69ff945ea70e5a4068d48707135080e00a9b660001b610a93565b6103ec7fae0704307b15af90c4d686a07b5dbe81a4e3a2003b0e2d4fa5c0429ec0fd355b60001b610a93565b6104187f1901254ef3dcdb6cecaa648ab09d3b9da6aa3d2ed1392feaa96a3ed2708eaffc60001b610a93565b61045560027fb53127684a568b3173ae13b9f8a6016e243e63b6e8ee1178d6a717850b5d610460001c61044b9190610d83565b60001b6001610a96565b6104817f364e56efa9c869bdb2ca1c03def3c96af4f9f0c17e1366cba78a0b540a3147c960001b610a93565b6104ad7ff7feac1543e97dc923b772a44aa2657fd6acff5ff70a30b020dbaaec98f7170c60001b610a93565b6104d97fbf155aa57294ed4ee6e06c5b2b9ceec9d94218b5f685970795aacfbcb1c58d4960001b610a93565b600073ffffffffffffffffffffffffffffffffffffffff168173ffffffffffffffffffffffffffffffffffffffff1603610548576040517f08c379a000000000000000000000000000000000000000000000000000000000815260040161053f90610e14565b60405180910390fd5b6105747fe5ef7cfb4ee2da86f40af512b9da00b4890fdbe5d88f220b18712b2222321ee760001b610a93565b6105a07f91ebf3171db7648806210cc9c380de174a150e4578fbeaaa59a73e1c7750802b60001b610a93565b6105cc7fe6b798943e6454eeac6a2991529c5baeda9f4c89519097b3e22675ded764cb4f60001b610a93565b808260000160006101000a81548173ffffffffffffffffffffffffffffffffffffffff021916908373ffffffffffffffffffffffffffffffffffffffff16021790555061063b7fb61e6bd019712ed8927dcab7122c06572bb1217861d0cc61719edfc8ce146d3360001b610a93565b6106677f117a3b3c9ba276c477c710dddb86a6ca8ef26a1477ca0d1475156c5e43038c3460001b610a93565b7f7e644d79422f17c01e4894b5f4f588d331ebfa28653d42ae832dc59e38c9798f600082604051610699929190610e34565b60405180910390a15050565b600033905090565b6106d97f5a31bf997618b5c904d9ebe68d02bfa5d0c0244a0a7121509f7a84110de03a6360001b610a93565b6107057ffaf6f1d3ff8bfb8be29c5442f886f16a4af60900595dac70c55f2865b672786960001b610a93565b6107317fe5c7e3778e4d76e24f87f95eb358418e477e4952b5f5389fe2d05f2854b0e5b860001b610a93565b60008360000160009054906101000a900473ffffffffffffffffffffffffffffffffffffffff1690506107867f9f09b8fdadf8c250b907b76e539b176de58e4959c44e2d4dbafbc07f8039c46760001b610a93565b6107b27fe15af9fe6b47a2adb31f5c2b2289a9557419472b9b540952b5756b39ff6d2dc060001b610a93565b6107de7f8667cccf0fdb932a6e00f7a0c9f9cfe7aa46d79612885fe2169be6592bd258c860001b610a93565b8073ffffffffffffffffffffffffffffffffffffffff168373ffffffffffffffffffffffffffffffffffffffff161461084c576040517f08c379a000000000000000000000000000000000000000000000000000000000815260040161084390610ea9565b60405180910390fd5b6108787f8be8390edb14b77586a68c30ad647ade2be759b29d6f611c92c5b20eb168b19160001b610a93565b6108a47f554df9976cba5005301bd9729b36f6c74af8042615275715adbc83dc219af31d60001b610a93565b6108d07f5bbc12cffb103c266be8832352f45b62f9c7920f135e61a3d4e2d8edb86dc89160001b610a93565b8173ffffffffffffffffffffffffffffffffffffffff168173ffffffffffffffffffffffffffffffffffffffff1614610a605761092f7f2cd0b532e094ec62b8d05659f10eba9afd8eed2e25be5f8f4dcc89a23abd7b6460001b610a93565b61095b7f8aa63a8cfc824c53fac470e428f76ea29053a03813dd917e744681f6037b21b960001b610a93565b6109877f58dc2a60bdbf2d3d9f559065bb90abb5c5ee59cd3f355a204ed5328e402b637760001b610a93565b818460000160006101000a81548173ffffffffffffffffffffffffffffffffffffffff021916908373ffffffffffffffffffffffffffffffffffffffff1602179055506109f67f66528f5dfba5b07746a630c15d556475abcda88f2022e3bff94c6d653f972e8f60001b610a93565b610a227f508dd9c94cd43aa42f73b22588261fda5a47cf67b9b6c104372dd33d63e68a0d60001b610a93565b7f7e644d79422f17c01e4894b5f4f588d331ebfa28653d42ae832dc59e38c9798f8183604051610a53929190610e34565b60405180910390a1610a8d565b610a8c7fdc4e8972afce5b6ec7050c6b363a9aef012e3af019d929d2608f8b6844334fad60001b610a93565b5b50505050565b50565b610ac27f523c5c55fa27c1465eb0ba13f6927ac81ca2e843dca5743a6ceafc60fd44a7a260001b610c83565b610aee7f04772ea788fd843b127a602e9cfb0c6a91dd658dfc8c6564fb399afa5c8187c060001b610c83565b610b1a7fcb69cb3c0f8a75e2c548a59a9a6f16480c220dc9611455e2f2a5ff64c19012f660001b610c83565b6000610b2583610c86565b9050610b537f05454e9c8dc486b9dafcaafcc4a6b37e8e4a0bd10c5a957d6788a08d4705e74a60001b610c83565b610b7f7f545be28ad664a45fbd66a4b1cf9af17e7b7fa1c0858756e55615423b09c10cf960001b610c83565b610bab7f7b74d3cbf19e745235b98e2e533402f6fea14c7950d83932d7459f8c0776ae7560001b610c83565b81816000015410610bf1576040517f08c379a0000000000000000000000000000000000000000000000000000000008152600401610be890610f15565b60405180910390fd5b610c1d7fb77e179c39cd483a2fb9d49c9d6baaf337e679c6fc0b0193351b78700052fb6060001b610c83565b610c497f73251853a52f4546290b9dbdb4820ad06a75d361304d051af620ac9db846f98760001b610c83565b610c757f8670f345bbc08bb652aae01676abdbb142983e1527aecdd350c544d4ac9aa25360001b610c83565b818160000181905550505050565b50565b6000819050919050565b600073ffffffffffffffffffffffffffffffffffffffff82169050919050565b6000610cbb82610c90565b9050919050565b610ccb81610cb0565b82525050565b6000602082019050610ce66000830184610cc2565b92915050565b600080fd5b610cfa81610cb0565b8114610d0557600080fd5b50565b600081359050610d1781610cf1565b92915050565b600060208284031215610d3357610d32610cec565b5b6000610d4184828501610d08565b91505092915050565b6000819050919050565b7f4e487b7100000000000000000000000000000000000000000000000000000000600052601160045260246000fd5b6000610d8e82610d4a565b9150610d9983610d4a565b925082821015610dac57610dab610d54565b5b828203905092915050565b600082825260208201905092915050565b7f50726f787941646d696e3a206e6f20696e697469616c2061646d696e00000000600082015250565b6000610dfe601c83610db7565b9150610e0982610dc8565b602082019050919050565b60006020820190508181036000830152610e2d81610df1565b9050919050565b6000604082019050610e496000830185610cc2565b610e566020830184610cc2565b9392505050565b7f50726f787941646d696e3a206e6f74207468652061646d696e00000000000000600082015250565b6000610e93601983610db7565b9150610e9e82610e5d565b602082019050919050565b60006020820190508181036000830152610ec281610e86565b9050919050565b7f53746f726167653a2076657273696f6e20726561636865640000000000000000600082015250565b6000610eff601883610db7565b9150610f0a82610ec9565b602082019050919050565b60006020820190508181036000830152610f2e81610ef2565b905091905056fea264697066735822122074bd3c33c2da3e89450939b1816159812c29cfff17f84cf42fa77730da97a85664736f6c634300080d0033",
  "linkReferences": {},
  "deployedLinkReferences": {}
}