{
  "_format": "hh-sol-artifact-1",
  "contractName": "ERC1155MetadataFacetMock",
  "sourceName": "contracts/mocks/token/ERC1155/facets/ERC1155MetadataFacetMock.sol",
  "abi": [
    {
      "inputs": [
        {
          "internalType": "contract IForwarderRegistry",
          "name": "forwarderRegistry",
          "type": "address"
        }
      ],
      "stateMutability": "nonpayable",
      "type": "constructor"
    },
    {
      "inputs": [],
      "name": "IllegalInterfaceId",
      "type": "error"
    },
    {
      "inputs": [],
      "name": "InconsistentArrayLengths",
      "type": "error"
    },
    {
      "inputs": [
        {
          "internalType": "uint256",
          "name": "currentPhase",
          "type": "uint256"
        },
        {
          "internalType": "uint256",
          "name": "newPhase",
          "type": "uint256"
        }
      ],
      "name": "InitializationPhaseAlreadyReached",
      "type": "error"
    },
    {
      "inputs": [
        {
          "internalType": "address",
          "name": "account",
          "type": "address"
        }
      ],
      "name": "NotMetadataResolver",
      "type": "error"
    },
    {
      "inputs": [
        {
          "internalType": "address",
          "name": "account",
          "type": "address"
        }
      ],
      "name": "NotProxyAdmin",
      "type": "error"
    },
    {
      "anonymous": false,
      "inputs": [
        {
          "indexed": false,
          "internalType": "string",
          "name": "value",
          "type": "string"
        },
        {
          "indexed": true,
          "internalType": "uint256",
          "name": "id",
          "type": "uint256"
        }
      ],
      "name": "URI",
      "type": "event"
    },
    {
      "inputs": [],
      "name": "__msgData",
      "outputs": [
        {
          "internalType": "bytes",
          "name": "",
          "type": "bytes"
        }
      ],
      "stateMutability": "view",
      "type": "function"
    },
    {
      "inputs": [
        {
          "internalType": "uint256[]",
          "name": "tokenIds",
          "type": "uint256[]"
        },
        {
          "internalType": "string[]",
          "name": "tokenURIs",
          "type": "string[]"
        }
      ],
      "name": "batchSetTokenURI",
      "outputs": [],
      "stateMutability": "nonpayable",
      "type": "function"
    },
    {
      "inputs": [
        {
          "internalType": "string",
          "name": "name",
          "type": "string"
        },
        {
          "internalType": "string",
          "name": "symbol",
          "type": "string"
        },
        {
          "internalType": "contract ITokenMetadataResolver",
          "name": "metadataResolver",
          "type": "address"
        }
      ],
      "name": "initERC1155MetadataStorage",
      "outputs": [],
      "stateMutability": "nonpayable",
      "type": "function"
    },
    {
      "inputs": [],
      "name": "metadataResolver",
      "outputs": [
        {
          "internalType": "contract ITokenMetadataResolver",
          "name": "tokenMetadataResolver",
          "type": "address"
        }
      ],
      "stateMutability": "view",
      "type": "function"
    },
    {
      "inputs": [],
      "name": "name",
      "outputs": [
        {
          "internalType": "string",
          "name": "tokenName",
          "type": "string"
        }
      ],
      "stateMutability": "view",
      "type": "function"
    },
    {
      "inputs": [
        {
          "internalType": "uint256",
          "name": "tokenId",
          "type": "uint256"
        },
        {
          "internalType": "string",
          "name": "tokenURI",
          "type": "string"
        }
      ],
      "name": "setTokenURI",
      "outputs": [],
      "stateMutability": "nonpayable",
      "type": "function"
    },
    {
      "inputs": [],
      "name": "symbol",
      "outputs": [
        {
          "internalType": "string",
          "name": "tokenSymbol",
          "type": "string"
        }
      ],
      "stateMutability": "view",
      "type": "function"
    },
    {
      "inputs": [
        {
          "internalType": "uint256",
          "name": "tokenId",
          "type": "uint256"
        }
      ],
      "name": "uri",
      "outputs": [
        {
          "internalType": "string",
          "name": "metadataURI",
          "type": "string"
        }
      ],
      "stateMutability": "view",
      "type": "function"
    }
  ],
  "bytecode": "0x60a060405234801561001057600080fd5b506040516112b13803806112b183398101604081905261002f91610040565b6001600160a01b0316608052610070565b60006020828403121561005257600080fd5b81516001600160a01b038116811461006957600080fd5b9392505050565b6080516112116100a0600039600081816105ad015281816105eb0152818161072301526107ab01526112116000f3fe608060405234801561001057600080fd5b50600436106100885760003560e01c8063345c14ad1161005b578063345c14ad146100e95780636706467b146100fc57806395d89b411461010f578063a0c76f621461011757600080fd5b806306fdde031461008d5780630e89341c146100ab578063162094c4146100be57806331e66e1e146100d3575b600080fd5b610095610144565b6040516100a29190610b58565b60405180910390f35b6100956100b9366004610ba9565b61015b565b6100d16100cc366004610c0b565b610177565b005b6100db610249565b6040516100a2929190610ca0565b6100d16100f7366004610cb4565b61025c565b6100d161010a366004610d96565b61029e565b6100956103cf565b61011f6103e1565b60405173ffffffffffffffffffffffffffffffffffffffff90911681526020016100a2565b60606101566101516103ea565b610418565b905090565b6060610171308361016a6103ea565b91906104ae565b92915050565b61019f6101826103ea565b6002015473ffffffffffffffffffffffffffffffffffffffff1690565b73ffffffffffffffffffffffffffffffffffffffff163373ffffffffffffffffffffffffffffffffffffffff161461020a576040517f220606710000000000000000000000000000000000000000000000000000000081523360048201526024015b60405180910390fd5b827f6bb7ff708619ba0610cba295a58592e0451dee2622938c8755667688daf3529b838360405161023c929190610ca0565b60405180910390a2505050565b366000610254610576565b915091509091565b6102756102676106e0565b61026f610827565b90610855565b61028f85858585856102856103ea565b94939291906108c4565b610297610965565b5050505050565b8281146102d7576040517f6582533600000000000000000000000000000000000000000000000000000000815260040160405180910390fd5b6102e26101826103ea565b73ffffffffffffffffffffffffffffffffffffffff163373ffffffffffffffffffffffffffffffffffffffff1614610348576040517f22060671000000000000000000000000000000000000000000000000000000008152336004820152602401610201565b60005b838110156102975784848281811061036557610365610e02565b905060200201357f6bb7ff708619ba0610cba295a58592e0451dee2622938c8755667688daf3529b84848481811061039f5761039f610e02565b90506020028101906103b19190610e31565b6040516103bf929190610ca0565b60405180910390a260010161034b565b60606101566103dc6103ea565b61099c565b60006101566101825b60008061017160017f7ea68fd2dcf1c056b94db6a0a537aa80d26fa9ab1eacd85da1ba0b61b7e7a8a5610e96565b606081600001805461042990610ed0565b80601f016020809104026020016040519081016040528092919081815260200182805461045590610ed0565b80156104a25780601f10610477576101008083540402835291602001916104a2565b820191906000526020600020905b81548152906001019060200180831161048557829003601f168201915b50505050509050919050565b60028301546040517ff724dad700000000000000000000000000000000000000000000000000000000815273ffffffffffffffffffffffffffffffffffffffff848116600483015260248201849052606092169063f724dad790604401600060405180830381865afa158015610528573d6000803e3d6000fd5b505050506040513d6000823e601f3d9081017fffffffffffffffffffffffffffffffffffffffffffffffffffffffffffffffe016820160405261056e9190810190610f52565b949350505050565b366000333214806105875750601836105b156105955750600091369150565b3373ffffffffffffffffffffffffffffffffffffffff7f00000000000000000000000000000000000000000000000000000000000000001614806106ca575073ffffffffffffffffffffffffffffffffffffffff7f000000000000000000000000000000000000000000000000000000000000000016638929a8ca367fffffffffffffffffffffffffffffffffffffffffffffffffffffffffffffffec013560601c6040517fffffffff0000000000000000000000000000000000000000000000000000000060e084901b16815273ffffffffffffffffffffffffffffffffffffffff9091166004820152336024820152604401602060405180830381865afa1580156106a6573d6000803e3d6000fd5b505050506040513d601f19601f820116820180604052508101906106ca919061101d565b156106d7576102546109ad565b50600091369150565b6000333214806106f05750601836105b156106fa57503390565b7fffffffffffffffffffffffffffffffffffffffffffffffffffffffffffffffec36013560601c7f000000000000000000000000000000000000000000000000000000000000000073ffffffffffffffffffffffffffffffffffffffff1633148061081657506040517f8929a8ca00000000000000000000000000000000000000000000000000000000815273ffffffffffffffffffffffffffffffffffffffff82811660048301523360248301527f00000000000000000000000000000000000000000000000000000000000000001690638929a8ca90604401602060405180830381865afa1580156107f2573d6000803e3d6000fd5b505050506040513d601f19601f82011682018060405250810190610816919061101d565b1561082057919050565b3391505090565b60008061017160017fb53127684a568b3173ae13b9f8a6016e243e63b6e8ee1178d6a717850b5d6104610e96565b815473ffffffffffffffffffffffffffffffffffffffff8281169116146108c0576040517f673a31a100000000000000000000000000000000000000000000000000000000815273ffffffffffffffffffffffffffffffffffffffff82166004820152602401610201565b5050565b6108f96108f260017f92f72593ca50a0096f68ee94e7000db40ed086164b695855e2250750b8bfaf59610e96565b60016109de565b85610905858783611097565b5060018601610915838583611097565b5060029590950180547fffffffffffffffffffffffff00000000000000000000000000000000000000001673ffffffffffffffffffffffffffffffffffffffff9096169590951790945550505050565b61099a7f0e89341c000000000000000000000000000000000000000000000000000000006001610993610a2a565b9190610a58565b565b606081600101805461042990610ed0565b3660006102547fffffffffffffffffffffffffffffffffffffffffffffffffffffffffffffffec83018284816111b1565b81548290828110610a25576040517fbf0c18ec0000000000000000000000000000000000000000000000000000000081526004810182905260248101849052604401610201565b505550565b60008061017160017fca9d3e17f264b0f3984e2634e94adb37fa3e6a8103f06aeae6fa59e21c769f5e610e96565b7c01000000000000000000000000000000000000000000000000000000007fffffffff00000000000000000000000000000000000000000000000000000000831601610ad0576040517f72c683bb00000000000000000000000000000000000000000000000000000000815260040160405180910390fd5b7fffffffff00000000000000000000000000000000000000000000000000000000919091166000908152602092909252604090912080547fffffffffffffffffffffffffffffffffffffffffffffffffffffffffffffff0016911515919091179055565b60005b83811015610b4f578181015183820152602001610b37565b50506000910152565b6020815260008251806020840152610b77816040850160208701610b34565b601f017fffffffffffffffffffffffffffffffffffffffffffffffffffffffffffffffe0169190910160400192915050565b600060208284031215610bbb57600080fd5b5035919050565b60008083601f840112610bd457600080fd5b50813567ffffffffffffffff811115610bec57600080fd5b602083019150836020828501011115610c0457600080fd5b9250929050565b600080600060408486031215610c2057600080fd5b83359250602084013567ffffffffffffffff811115610c3e57600080fd5b610c4a86828701610bc2565b9497909650939450505050565b8183528181602085013750600060208284010152600060207fffffffffffffffffffffffffffffffffffffffffffffffffffffffffffffffe0601f840116840101905092915050565b60208152600061056e602083018486610c57565b600080600080600060608688031215610ccc57600080fd5b853567ffffffffffffffff80821115610ce457600080fd5b610cf089838a01610bc2565b90975095506020880135915080821115610d0957600080fd5b50610d1688828901610bc2565b909450925050604086013573ffffffffffffffffffffffffffffffffffffffff81168114610d4357600080fd5b809150509295509295909350565b60008083601f840112610d6357600080fd5b50813567ffffffffffffffff811115610d7b57600080fd5b6020830191508360208260051b8501011115610c0457600080fd5b60008060008060408587031215610dac57600080fd5b843567ffffffffffffffff80821115610dc457600080fd5b610dd088838901610d51565b90965094506020870135915080821115610de957600080fd5b50610df687828801610d51565b95989497509550505050565b7f4e487b7100000000000000000000000000000000000000000000000000000000600052603260045260246000fd5b60008083357fffffffffffffffffffffffffffffffffffffffffffffffffffffffffffffffe1843603018112610e6657600080fd5b83018035915067ffffffffffffffff821115610e8157600080fd5b602001915036819003821315610c0457600080fd5b81810381811115610171577f4e487b7100000000000000000000000000000000000000000000000000000000600052601160045260246000fd5b600181811c90821680610ee457607f821691505b602082108103610f1d577f4e487b7100000000000000000000000000000000000000000000000000000000600052602260045260246000fd5b50919050565b7f4e487b7100000000000000000000000000000000000000000000000000000000600052604160045260246000fd5b600060208284031215610f6457600080fd5b815167ffffffffffffffff80821115610f7c57600080fd5b818401915084601f830112610f9057600080fd5b815181811115610fa257610fa2610f23565b604051601f82017fffffffffffffffffffffffffffffffffffffffffffffffffffffffffffffffe0908116603f01168101908382118183101715610fe857610fe8610f23565b8160405282815287602084870101111561100157600080fd5b611012836020830160208801610b34565b979650505050505050565b60006020828403121561102f57600080fd5b8151801515811461103f57600080fd5b9392505050565b601f821115611092576000816000526020600020601f850160051c8101602086101561106f5750805b601f850160051c820191505b8181101561108e5782815560010161107b565b5050505b505050565b67ffffffffffffffff8311156110af576110af610f23565b6110c3836110bd8354610ed0565b83611046565b6000601f84116001811461111557600085156110df5750838201355b7fffffffffffffffffffffffffffffffffffffffffffffffffffffffffffffffff600387901b1c1916600186901b178355610297565b6000838152602090207fffffffffffffffffffffffffffffffffffffffffffffffffffffffffffffffe0861690835b828110156111645786850135825560209485019460019092019101611144565b508682101561119f577fffffffffffffffffffffffffffffffffffffffffffffffffffffffffffffffff60f88860031b161c19848701351681555b505060018560011b0183555050505050565b600080858511156111c157600080fd5b838611156111ce57600080fd5b505082019391909203915056fea2646970667358221220a7b916d7035d74ca88dacc5e2e008121f128605d5c3a0fc1915b01d4f463cae164736f6c63430008160033",
  "linkReferences": {},
  "deployedLinkReferences": {}
}