{
  "_format": "hh-sol-artifact-1",
  "contractName": "ERC1155MetadataFacetMock",
  "sourceName": "contracts/mocks/token/ERC1155/facets/ERC1155MetadataFacetMock.sol",
  "abi": [
    {
      "inputs": [
        {
          "internalType": "contract IForwarderRegistry",
          "name": "forwarderRegistry",
          "type": "address"
        }
      ],
      "stateMutability": "nonpayable",
      "type": "constructor"
    },
    {
      "inputs": [],
      "name": "__msgData",
      "outputs": [
        {
          "internalType": "bytes",
          "name": "",
          "type": "bytes"
        }
      ],
      "stateMutability": "view",
      "type": "function"
    },
    {
      "inputs": [
        {
          "internalType": "string",
          "name": "name",
          "type": "string"
        },
        {
          "internalType": "string",
          "name": "symbol",
          "type": "string"
        },
        {
          "internalType": "contract ITokenMetadataResolver",
          "name": "metadataResolver",
          "type": "address"
        }
      ],
      "name": "initERC1155MetadataStorage",
      "outputs": [],
      "stateMutability": "nonpayable",
      "type": "function"
    },
    {
      "inputs": [],
      "name": "metadataResolver",
      "outputs": [
        {
          "internalType": "contract ITokenMetadataResolver",
          "name": "tokenMetadataResolver",
          "type": "address"
        }
      ],
      "stateMutability": "view",
      "type": "function"
    },
    {
      "inputs": [],
      "name": "name",
      "outputs": [
        {
          "internalType": "string",
          "name": "tokenName",
          "type": "string"
        }
      ],
      "stateMutability": "view",
      "type": "function"
    },
    {
      "inputs": [],
      "name": "symbol",
      "outputs": [
        {
          "internalType": "string",
          "name": "tokenSymbol",
          "type": "string"
        }
      ],
      "stateMutability": "view",
      "type": "function"
    },
    {
      "inputs": [
        {
          "internalType": "uint256",
          "name": "tokenId",
          "type": "uint256"
        }
      ],
      "name": "uri",
      "outputs": [
        {
          "internalType": "string",
          "name": "metadataURI",
          "type": "string"
        }
      ],
      "stateMutability": "view",
      "type": "function"
    }
  ],
  "bytecode": "0x60a060405234801561001057600080fd5b50604051610f61380380610f6183398101604081905261002f91610040565b6001600160a01b0316608052610070565b60006020828403121561005257600080fd5b81516001600160a01b038116811461006957600080fd5b9392505050565b608051610ec16100a06000396000818161038f015281816103cd01528181610505015261058d0152610ec16000f3fe608060405234801561001057600080fd5b50600436106100725760003560e01c8063345c14ad11610050578063345c14ad146100be57806395d89b41146100d3578063a0c76f62146100db57600080fd5b806306fdde03146100775780630e89341c1461009557806331e66e1e146100a8575b600080fd5b61007f610108565b60405161008c91906109ab565b60405180910390f35b61007f6100a33660046109fc565b61011f565b6100b061013b565b60405161008c929190610a15565b6100d16100cc366004610aab565b61014e565b005b61007f610190565b6100e36101a2565b60405173ffffffffffffffffffffffffffffffffffffffff909116815260200161008c565b606061011a6101156101cc565b6101fa565b905090565b6060610135308361012e6101cc565b9190610290565b92915050565b366000610146610358565b915091509091565b6101676101596104c2565b610161610609565b90610637565b61018185858585856101776101cc565b94939291906106c3565b610189610764565b5050505050565b606061011a61019d6101cc565b61079b565b600061011a6101af6101cc565b6002015473ffffffffffffffffffffffffffffffffffffffff1690565b60008061013560017f7ea68fd2dcf1c056b94db6a0a537aa80d26fa9ab1eacd85da1ba0b61b7e7a8a5610b48565b606081600001805461020b90610b82565b80601f016020809104026020016040519081016040528092919081815260200182805461023790610b82565b80156102845780601f1061025957610100808354040283529160200191610284565b820191906000526020600020905b81548152906001019060200180831161026757829003601f168201915b50505050509050919050565b60028301546040517ff724dad700000000000000000000000000000000000000000000000000000000815273ffffffffffffffffffffffffffffffffffffffff848116600483015260248201849052606092169063f724dad790604401600060405180830381865afa15801561030a573d6000803e3d6000fd5b505050506040513d6000823e601f3d9081017fffffffffffffffffffffffffffffffffffffffffffffffffffffffffffffffe01682016040526103509190810190610c04565b949350505050565b366000333214806103695750601836105b156103775750600091369150565b3373ffffffffffffffffffffffffffffffffffffffff7f00000000000000000000000000000000000000000000000000000000000000001614806104ac575073ffffffffffffffffffffffffffffffffffffffff7f000000000000000000000000000000000000000000000000000000000000000016638929a8ca367fffffffffffffffffffffffffffffffffffffffffffffffffffffffffffffffec013560601c6040517fffffffff0000000000000000000000000000000000000000000000000000000060e084901b16815273ffffffffffffffffffffffffffffffffffffffff9091166004820152336024820152604401602060405180830381865afa158015610488573d6000803e3d6000fd5b505050506040513d601f19601f820116820180604052508101906104ac9190610ccf565b156104b9576101466107ac565b50600091369150565b6000333214806104d25750601836105b156104dc57503390565b7fffffffffffffffffffffffffffffffffffffffffffffffffffffffffffffffec36013560601c7f000000000000000000000000000000000000000000000000000000000000000073ffffffffffffffffffffffffffffffffffffffff163314806105f857506040517f8929a8ca00000000000000000000000000000000000000000000000000000000815273ffffffffffffffffffffffffffffffffffffffff82811660048301523360248301527f00000000000000000000000000000000000000000000000000000000000000001690638929a8ca90604401602060405180830381865afa1580156105d4573d6000803e3d6000fd5b505050506040513d601f19601f820116820180604052508101906105f89190610ccf565b1561060257919050565b3391505090565b60008061013560017fb53127684a568b3173ae13b9f8a6016e243e63b6e8ee1178d6a717850b5d6104610b48565b815473ffffffffffffffffffffffffffffffffffffffff8281169116146106bf576040517f08c379a000000000000000000000000000000000000000000000000000000000815260206004820152601960248201527f50726f787941646d696e3a206e6f74207468652061646d696e0000000000000060448201526064015b60405180910390fd5b5050565b6106f86106f160017f92f72593ca50a0096f68ee94e7000db40ed086164b695855e2250750b8bfaf59610b48565b60016107dd565b85610704858783610d47565b5060018601610714838583610d47565b5060029590950180547fffffffffffffffffffffffff00000000000000000000000000000000000000001673ffffffffffffffffffffffffffffffffffffffff9096169590951790945550505050565b6107997f0e89341c00000000000000000000000000000000000000000000000000000000600161079261084d565b919061087b565b565b606081600101805461020b90610b82565b3660006101467fffffffffffffffffffffffffffffffffffffffffffffffffffffffffffffffec8301828481610e61565b815482908211610849576040517f08c379a000000000000000000000000000000000000000000000000000000000815260206004820152601660248201527f53746f726167653a20706861736520726561636865640000000000000000000060448201526064016106b6565b5550565b60008061013560017fca9d3e17f264b0f3984e2634e94adb37fa3e6a8103f06aeae6fa59e21c769f5e610b48565b7c01000000000000000000000000000000000000000000000000000000007fffffffff00000000000000000000000000000000000000000000000000000000831601610923576040517f08c379a000000000000000000000000000000000000000000000000000000000815260206004820152601f60248201527f496e74657266616365446574656374696f6e3a2077726f6e672076616c75650060448201526064016106b6565b7fffffffff00000000000000000000000000000000000000000000000000000000919091166000908152602092909252604090912080547fffffffffffffffffffffffffffffffffffffffffffffffffffffffffffffff0016911515919091179055565b60005b838110156109a257818101518382015260200161098a565b50506000910152565b60208152600082518060208401526109ca816040850160208701610987565b601f017fffffffffffffffffffffffffffffffffffffffffffffffffffffffffffffffe0169190910160400192915050565b600060208284031215610a0e57600080fd5b5035919050565b60208152816020820152818360408301376000818301604090810191909152601f9092017fffffffffffffffffffffffffffffffffffffffffffffffffffffffffffffffe0160101919050565b60008083601f840112610a7457600080fd5b50813567ffffffffffffffff811115610a8c57600080fd5b602083019150836020828501011115610aa457600080fd5b9250929050565b600080600080600060608688031215610ac357600080fd5b853567ffffffffffffffff80821115610adb57600080fd5b610ae789838a01610a62565b90975095506020880135915080821115610b0057600080fd5b50610b0d88828901610a62565b909450925050604086013573ffffffffffffffffffffffffffffffffffffffff81168114610b3a57600080fd5b809150509295509295909350565b81810381811115610135577f4e487b7100000000000000000000000000000000000000000000000000000000600052601160045260246000fd5b600181811c90821680610b9657607f821691505b602082108103610bcf577f4e487b7100000000000000000000000000000000000000000000000000000000600052602260045260246000fd5b50919050565b7f4e487b7100000000000000000000000000000000000000000000000000000000600052604160045260246000fd5b600060208284031215610c1657600080fd5b815167ffffffffffffffff80821115610c2e57600080fd5b818401915084601f830112610c4257600080fd5b815181811115610c5457610c54610bd5565b604051601f82017fffffffffffffffffffffffffffffffffffffffffffffffffffffffffffffffe0908116603f01168101908382118183101715610c9a57610c9a610bd5565b81604052828152876020848701011115610cb357600080fd5b610cc4836020830160208801610987565b979650505050505050565b600060208284031215610ce157600080fd5b81518015158114610cf157600080fd5b9392505050565b601f821115610d4257600081815260208120601f850160051c81016020861015610d1f5750805b601f850160051c820191505b81811015610d3e57828155600101610d2b565b5050505b505050565b67ffffffffffffffff831115610d5f57610d5f610bd5565b610d7383610d6d8354610b82565b83610cf8565b6000601f841160018114610dc55760008515610d8f5750838201355b7fffffffffffffffffffffffffffffffffffffffffffffffffffffffffffffffff600387901b1c1916600186901b178355610189565b6000838152602090207fffffffffffffffffffffffffffffffffffffffffffffffffffffffffffffffe0861690835b82811015610e145786850135825560209485019460019092019101610df4565b5086821015610e4f577fffffffffffffffffffffffffffffffffffffffffffffffffffffffffffffffff60f88860031b161c19848701351681555b505060018560011b0183555050505050565b60008085851115610e7157600080fd5b83861115610e7e57600080fd5b505082019391909203915056fea26469706673582212209c5a3b8b35e91fc5191ef0db763070b9b1e70f7a37a0d3b1d5c7a35aaa152c7764736f6c63430008130033",
  "linkReferences": {},
  "deployedLinkReferences": {}
}