{
  "_format": "hh-sol-artifact-1",
  "contractName": "ERC20MintableFacetMock",
  "sourceName": "contracts/mocks/token/ERC20/ERC20MintableFacetMock.sol",
  "abi": [
    {
      "inputs": [
        {
          "internalType": "contract IForwarderRegistry",
          "name": "forwarderRegistry",
          "type": "address"
        }
      ],
      "stateMutability": "nonpayable",
      "type": "constructor"
    },
    {
      "inputs": [],
      "name": "MINTER_ROLE",
      "outputs": [
        {
          "internalType": "bytes32",
          "name": "",
          "type": "bytes32"
        }
      ],
      "stateMutability": "view",
      "type": "function"
    },
    {
      "inputs": [],
      "name": "__msgData",
      "outputs": [
        {
          "internalType": "bytes",
          "name": "",
          "type": "bytes"
        }
      ],
      "stateMutability": "view",
      "type": "function"
    },
    {
      "inputs": [
        {
          "internalType": "address[]",
          "name": "recipients",
          "type": "address[]"
        },
        {
          "internalType": "uint256[]",
          "name": "values",
          "type": "uint256[]"
        }
      ],
      "name": "batchMint",
      "outputs": [],
      "stateMutability": "nonpayable",
      "type": "function"
    },
    {
      "inputs": [],
      "name": "initERC20MintableStorage",
      "outputs": [],
      "stateMutability": "nonpayable",
      "type": "function"
    },
    {
      "inputs": [
        {
          "internalType": "address",
          "name": "to",
          "type": "address"
        },
        {
          "internalType": "uint256",
          "name": "value",
          "type": "uint256"
        }
      ],
      "name": "mint",
      "outputs": [],
      "stateMutability": "nonpayable",
      "type": "function"
    }
  ],
  "bytecode": "0x60a060405234801561001057600080fd5b506040516112d73803806112d783398101604081905261002f91610040565b6001600160a01b0316608052610070565b60006020828403121561005257600080fd5b81516001600160a01b038116811461006957600080fd5b9392505050565b6080516112376100a06000396000818161085d015281816108fd01528181610acb0152610b3501526112376000f3fe608060405234801561001057600080fd5b50600436106100675760003560e01c806340c10f191161005057806340c10f191461009557806368573107146100a8578063d5391393146100bb57600080fd5b806311e60a3e1461006c57806331e66e1e14610076575b600080fd5b6100746100f0565b005b61007e610113565b60405161008c929190610de7565b60405180910390f35b6100746100a3366004610e5d565b610126565b6100746100b6366004610f94565b610179565b6100e27f6d696e746572000000000000000000000000000000000000000000000000000081565b60405190815260200161008c565b6101096100fb6101b9565b6101036101c8565b906101fc565b610111610284565b565b36600061011e6102b9565b915091509091565b6101617f6d696e74657200000000000000000000000000000000000000000000000000006101526101b9565b61015a6102c4565b91906102f2565b610175828261016e6103a3565b91906103d1565b5050565b6101a57f6d696e74657200000000000000000000000000000000000000000000000000006101526101b9565b61017582826101b26103a3565b919061054a565b60006101c3610821565b905090565b6000806101f660017fb53127684a568b3173ae13b9f8a6016e243e63b6e8ee1178d6a717850b5d6104611054565b92915050565b815473ffffffffffffffffffffffffffffffffffffffff828116911614610175576040517f08c379a000000000000000000000000000000000000000000000000000000000815260206004820152601960248201527f50726f787941646d696e3a206e6f74207468652061646d696e0000000000000060448201526064015b60405180910390fd5b6101117f28963e1e0000000000000000000000000000000000000000000000000000000060016102b2610979565b91906109a7565b36600061011e610ab3565b6000806101f660017fc8827d3282af6f37b64c3e9e6f3ac9df286ab0bb0fccd6f8661bf19adb368b23611054565b60008281526020848152604080832073ffffffffffffffffffffffffffffffffffffffff8516845290915290205460ff1661039e5761033082610c37565b60405160200161034091906110c2565b604080517fffffffffffffffffffffffffffffffffffffffffffffffffffffffffffffffe0818403018152908290527f08c379a000000000000000000000000000000000000000000000000000000000825261027b9160040161112e565b505050565b6000806101f660017f1da92899d3da68bf9787824388a37ea2bfa79780bcef91b9716c390eec8ecbef611054565b73ffffffffffffffffffffffffffffffffffffffff821661044e576040517f08c379a000000000000000000000000000000000000000000000000000000000815260206004820152601960248201527f45524332303a206d696e7420746f206164647265737328302900000000000000604482015260640161027b565b80156104f75760028301548181018181116104c5576040517f08c379a000000000000000000000000000000000000000000000000000000000815260206004820152601660248201527f45524332303a20737570706c79206f766572666c6f7700000000000000000000604482015260640161027b565b60028501555073ffffffffffffffffffffffffffffffffffffffff821660009081526020849052604090208054820190555b60405181815273ffffffffffffffffffffffffffffffffffffffff8316906000907fddf252ad1be2c89b69c2b068fc378daa952ba7f163c4a11628f55a4df523b3ef9060200160405180910390a3505050565b8151815181146105b6576040517f08c379a000000000000000000000000000000000000000000000000000000000815260206004820152601a60248201527f45524332303a20696e636f6e73697374656e7420617272617973000000000000604482015260640161027b565b806000036105c45750505050565b6000805b82811461079b5760008582815181106105e3576105e361117f565b60200260200101519050600073ffffffffffffffffffffffffffffffffffffffff168173ffffffffffffffffffffffffffffffffffffffff1603610683576040517f08c379a000000000000000000000000000000000000000000000000000000000815260206004820152601960248201527f45524332303a206d696e7420746f206164647265737328302900000000000000604482015260640161027b565b60008583815181106106975761069761117f565b602002602001015190508060001461074357838101848111610715576040517f08c379a000000000000000000000000000000000000000000000000000000000815260206004820152601660248201527f45524332303a2076616c756573206f766572666c6f7700000000000000000000604482015260640161027b565b73ffffffffffffffffffffffffffffffffffffffff8316600090815260208a90526040902080548301905593505b60405181815273ffffffffffffffffffffffffffffffffffffffff8316906000907fddf252ad1be2c89b69c2b068fc378daa952ba7f163c4a11628f55a4df523b3ef9060200160405180910390a350506001016105c8565b50801561081a576002850154818101818111610813576040517f08c379a000000000000000000000000000000000000000000000000000000000815260206004820152601660248201527f45524332303a20737570706c79206f766572666c6f7700000000000000000000604482015260640161027b565b6002870155505b5050505050565b60003332810361083057919050565b6000367fffffffffffffffffffffffffffffffffffffffffffffffffffffffffffffffec013560601c90507f000000000000000000000000000000000000000000000000000000000000000073ffffffffffffffffffffffffffffffffffffffff168273ffffffffffffffffffffffffffffffffffffffff16148061096857506040517fe60125d600000000000000000000000000000000000000000000000000000000815273ffffffffffffffffffffffffffffffffffffffff828116600483015283811660248301527f0000000000000000000000000000000000000000000000000000000000000000169063e60125d690604401602060405180830381865afa158015610944573d6000803e3d6000fd5b505050506040513d601f19601f8201168201806040525081019061096891906111ae565b156109735792915050565b50919050565b6000806101f660017fca9d3e17f264b0f3984e2634e94adb37fa3e6a8103f06aeae6fa59e21c769f5e611054565b7c01000000000000000000000000000000000000000000000000000000007fffffffff00000000000000000000000000000000000000000000000000000000831601610a4f576040517f08c379a000000000000000000000000000000000000000000000000000000000815260206004820152601f60248201527f496e74657266616365446574656374696f6e3a2077726f6e672076616c756500604482015260640161027b565b7fffffffff00000000000000000000000000000000000000000000000000000000919091166000908152602092909252604090912080547fffffffffffffffffffffffffffffffffffffffffffffffffffffffffffffff0016911515919091179055565b36600033328103610ac957506000923692509050565b7f000000000000000000000000000000000000000000000000000000000000000073ffffffffffffffffffffffffffffffffffffffff168173ffffffffffffffffffffffffffffffffffffffff161480610c16575073ffffffffffffffffffffffffffffffffffffffff7f00000000000000000000000000000000000000000000000000000000000000001663e60125d6367fffffffffffffffffffffffffffffffffffffffffffffffffffffffffffffffec013560601c6040517fffffffff0000000000000000000000000000000000000000000000000000000060e084901b16815273ffffffffffffffffffffffffffffffffffffffff91821660048201529084166024820152604401602060405180830381865afa158015610bf2573d6000803e3d6000fd5b505050506040513d601f19601f82011682018060405250810190610c1691906111ae565b15610c2c57610c23610dc9565b92509250509091565b506000923692509050565b60606000829003610c5657505060408051602081019091526000815290565b600082604051602001610c6b91815260200190565b604080517fffffffffffffffffffffffffffffffffffffffffffffffffffffffffffffffe08184030181529190529050601f5b818181518110610cb057610cb061117f565b01602001517fff0000000000000000000000000000000000000000000000000000000000000016600003610d05577fffffffffffffffffffffffffffffffffffffffffffffffffffffffffffffffff01610c9e565b60008160010167ffffffffffffffff811115610d2357610d23610e87565b6040519080825280601f01601f191660200182016040528015610d4d576020820181803683370190505b50905060005b828111610dc057838181518110610d6c57610d6c61117f565b602001015160f81c60f81b828281518110610d8957610d8961117f565b60200101907effffffffffffffffffffffffffffffffffffffffffffffffffffffffffffff1916908160001a905350600101610d53565b50949350505050565b366000808083610dda601482611054565b9261011e939291906111d7565b60208152816020820152818360408301376000818301604090810191909152601f9092017fffffffffffffffffffffffffffffffffffffffffffffffffffffffffffffffe0160101919050565b803573ffffffffffffffffffffffffffffffffffffffff81168114610e5857600080fd5b919050565b60008060408385031215610e7057600080fd5b610e7983610e34565b946020939093013593505050565b7f4e487b7100000000000000000000000000000000000000000000000000000000600052604160045260246000fd5b604051601f82017fffffffffffffffffffffffffffffffffffffffffffffffffffffffffffffffe016810167ffffffffffffffff81118282101715610efd57610efd610e87565b604052919050565b600067ffffffffffffffff821115610f1f57610f1f610e87565b5060051b60200190565b600082601f830112610f3a57600080fd5b81356020610f4f610f4a83610f05565b610eb6565b82815260059290921b84018101918181019086841115610f6e57600080fd5b8286015b84811015610f895780358352918301918301610f72565b509695505050505050565b60008060408385031215610fa757600080fd5b823567ffffffffffffffff80821115610fbf57600080fd5b818501915085601f830112610fd357600080fd5b81356020610fe3610f4a83610f05565b82815260059290921b8401810191818101908984111561100257600080fd5b948201945b838610156110275761101886610e34565b82529482019490820190611007565b9650508601359250508082111561103d57600080fd5b5061104a85828601610f29565b9150509250929050565b60008282101561108d577f4e487b7100000000000000000000000000000000000000000000000000000000600052601160045260246000fd5b500390565b60005b838110156110ad578181015183820152602001611095565b838111156110bc576000848401525b50505050565b7f416363657373436f6e74726f6c3a206d697373696e67202700000000000000008152600082516110fa816018850160208701611092565b7f2720726f6c6500000000000000000000000000000000000000000000000000006018939091019283015250601e01919050565b602081526000825180602084015261114d816040850160208701611092565b601f017fffffffffffffffffffffffffffffffffffffffffffffffffffffffffffffffe0169190910160400192915050565b7f4e487b7100000000000000000000000000000000000000000000000000000000600052603260045260246000fd5b6000602082840312156111c057600080fd5b815180151581146111d057600080fd5b9392505050565b600080858511156111e757600080fd5b838611156111f457600080fd5b505082019391909203915056fea26469706673582212206cf655c8d50a398b15d4b14bc3a3abe70f8c5ccd07ca2d01f8224a651ad7c6be64736f6c634300080e0033",
  "linkReferences": {},
  "deployedLinkReferences": {}
}