{
  "_format": "hh-sol-artifact-1",
  "contractName": "ERC20FixedSupplyProxiedMock",
  "sourceName": "contracts/mocks/token/ERC20/preset/proxied/ERC20FixedSupplyProxiedMock.sol",
  "abi": [
    {
      "inputs": [
        {
          "internalType": "contract IForwarderRegistry",
          "name": "forwarderRegistry",
          "type": "address"
        }
      ],
      "stateMutability": "nonpayable",
      "type": "constructor"
    },
    {
      "inputs": [
        {
          "internalType": "address",
          "name": "owner",
          "type": "address"
        },
        {
          "internalType": "address",
          "name": "spender",
          "type": "address"
        },
        {
          "internalType": "uint256",
          "name": "allowance",
          "type": "uint256"
        },
        {
          "internalType": "uint256",
          "name": "increment",
          "type": "uint256"
        }
      ],
      "name": "ERC20AllowanceOverflow",
      "type": "error"
    },
    {
      "inputs": [
        {
          "internalType": "address",
          "name": "owner",
          "type": "address"
        }
      ],
      "name": "ERC20ApprovalToAddressZero",
      "type": "error"
    },
    {
      "inputs": [],
      "name": "ERC20BatchMintValuesOverflow",
      "type": "error"
    },
    {
      "inputs": [],
      "name": "ERC20BatchTransferValuesOverflow",
      "type": "error"
    },
    {
      "inputs": [
        {
          "internalType": "address",
          "name": "owner",
          "type": "address"
        },
        {
          "internalType": "address",
          "name": "spender",
          "type": "address"
        },
        {
          "internalType": "uint256",
          "name": "allowance",
          "type": "uint256"
        },
        {
          "internalType": "uint256",
          "name": "decrement",
          "type": "uint256"
        }
      ],
      "name": "ERC20InsufficientAllowance",
      "type": "error"
    },
    {
      "inputs": [
        {
          "internalType": "address",
          "name": "owner",
          "type": "address"
        },
        {
          "internalType": "uint256",
          "name": "balance",
          "type": "uint256"
        },
        {
          "internalType": "uint256",
          "name": "value",
          "type": "uint256"
        }
      ],
      "name": "ERC20InsufficientBalance",
      "type": "error"
    },
    {
      "inputs": [],
      "name": "ERC20MintToAddressZero",
      "type": "error"
    },
    {
      "inputs": [
        {
          "internalType": "uint256",
          "name": "deadline",
          "type": "uint256"
        }
      ],
      "name": "ERC20PermitExpired",
      "type": "error"
    },
    {
      "inputs": [],
      "name": "ERC20PermitFromAddressZero",
      "type": "error"
    },
    {
      "inputs": [],
      "name": "ERC20PermitInvalidSignature",
      "type": "error"
    },
    {
      "inputs": [
        {
          "internalType": "address",
          "name": "recipient",
          "type": "address"
        }
      ],
      "name": "ERC20SafeTransferRejected",
      "type": "error"
    },
    {
      "inputs": [
        {
          "internalType": "uint256",
          "name": "supply",
          "type": "uint256"
        },
        {
          "internalType": "uint256",
          "name": "value",
          "type": "uint256"
        }
      ],
      "name": "ERC20TotalSupplyOverflow",
      "type": "error"
    },
    {
      "inputs": [
        {
          "internalType": "address",
          "name": "owner",
          "type": "address"
        }
      ],
      "name": "ERC20TransferToAddressZero",
      "type": "error"
    },
    {
      "inputs": [],
      "name": "FailedCall",
      "type": "error"
    },
    {
      "inputs": [],
      "name": "IllegalInterfaceId",
      "type": "error"
    },
    {
      "inputs": [],
      "name": "InconsistentArrayLengths",
      "type": "error"
    },
    {
      "inputs": [
        {
          "internalType": "address",
          "name": "tokenContract",
          "type": "address"
        }
      ],
      "name": "IncorrectTokenContractType",
      "type": "error"
    },
    {
      "inputs": [
        {
          "internalType": "uint256",
          "name": "currentPhase",
          "type": "uint256"
        },
        {
          "internalType": "uint256",
          "name": "newPhase",
          "type": "uint256"
        }
      ],
      "name": "InitializationPhaseAlreadyReached",
      "type": "error"
    },
    {
      "inputs": [
        {
          "internalType": "uint256",
          "name": "balance",
          "type": "uint256"
        },
        {
          "internalType": "uint256",
          "name": "needed",
          "type": "uint256"
        }
      ],
      "name": "InsufficientBalance",
      "type": "error"
    },
    {
      "inputs": [
        {
          "internalType": "address",
          "name": "account",
          "type": "address"
        }
      ],
      "name": "NotContractOwner",
      "type": "error"
    },
    {
      "inputs": [
        {
          "internalType": "address",
          "name": "token",
          "type": "address"
        }
      ],
      "name": "SafeERC20FailedOperation",
      "type": "error"
    },
    {
      "anonymous": false,
      "inputs": [
        {
          "indexed": true,
          "internalType": "address",
          "name": "owner",
          "type": "address"
        },
        {
          "indexed": true,
          "internalType": "address",
          "name": "spender",
          "type": "address"
        },
        {
          "indexed": false,
          "internalType": "uint256",
          "name": "value",
          "type": "uint256"
        }
      ],
      "name": "Approval",
      "type": "event"
    },
    {
      "anonymous": false,
      "inputs": [
        {
          "indexed": true,
          "internalType": "address",
          "name": "previousOwner",
          "type": "address"
        },
        {
          "indexed": true,
          "internalType": "address",
          "name": "newOwner",
          "type": "address"
        }
      ],
      "name": "OwnershipTransferred",
      "type": "event"
    },
    {
      "anonymous": false,
      "inputs": [
        {
          "indexed": true,
          "internalType": "address",
          "name": "from",
          "type": "address"
        },
        {
          "indexed": true,
          "internalType": "address",
          "name": "to",
          "type": "address"
        },
        {
          "indexed": false,
          "internalType": "uint256",
          "name": "value",
          "type": "uint256"
        }
      ],
      "name": "Transfer",
      "type": "event"
    },
    {
      "inputs": [],
      "name": "DOMAIN_SEPARATOR",
      "outputs": [
        {
          "internalType": "bytes32",
          "name": "",
          "type": "bytes32"
        }
      ],
      "stateMutability": "view",
      "type": "function"
    },
    {
      "inputs": [],
      "name": "__msgData",
      "outputs": [
        {
          "internalType": "bytes",
          "name": "",
          "type": "bytes"
        }
      ],
      "stateMutability": "view",
      "type": "function"
    },
    {
      "inputs": [
        {
          "internalType": "address",
          "name": "owner",
          "type": "address"
        },
        {
          "internalType": "address",
          "name": "spender",
          "type": "address"
        }
      ],
      "name": "allowance",
      "outputs": [
        {
          "internalType": "uint256",
          "name": "value",
          "type": "uint256"
        }
      ],
      "stateMutability": "view",
      "type": "function"
    },
    {
      "inputs": [
        {
          "internalType": "address",
          "name": "spender",
          "type": "address"
        },
        {
          "internalType": "uint256",
          "name": "value",
          "type": "uint256"
        }
      ],
      "name": "approve",
      "outputs": [
        {
          "internalType": "bool",
          "name": "result",
          "type": "bool"
        }
      ],
      "stateMutability": "nonpayable",
      "type": "function"
    },
    {
      "inputs": [
        {
          "internalType": "address",
          "name": "owner",
          "type": "address"
        }
      ],
      "name": "balanceOf",
      "outputs": [
        {
          "internalType": "uint256",
          "name": "balance",
          "type": "uint256"
        }
      ],
      "stateMutability": "view",
      "type": "function"
    },
    {
      "inputs": [
        {
          "internalType": "address[]",
          "name": "recipients",
          "type": "address[]"
        },
        {
          "internalType": "uint256[]",
          "name": "values",
          "type": "uint256[]"
        }
      ],
      "name": "batchTransfer",
      "outputs": [
        {
          "internalType": "bool",
          "name": "",
          "type": "bool"
        }
      ],
      "stateMutability": "nonpayable",
      "type": "function"
    },
    {
      "inputs": [
        {
          "internalType": "address",
          "name": "from",
          "type": "address"
        },
        {
          "internalType": "address[]",
          "name": "recipients",
          "type": "address[]"
        },
        {
          "internalType": "uint256[]",
          "name": "values",
          "type": "uint256[]"
        }
      ],
      "name": "batchTransferFrom",
      "outputs": [
        {
          "internalType": "bool",
          "name": "",
          "type": "bool"
        }
      ],
      "stateMutability": "nonpayable",
      "type": "function"
    },
    {
      "inputs": [],
      "name": "decimals",
      "outputs": [
        {
          "internalType": "uint8",
          "name": "",
          "type": "uint8"
        }
      ],
      "stateMutability": "view",
      "type": "function"
    },
    {
      "inputs": [
        {
          "internalType": "address",
          "name": "spender",
          "type": "address"
        },
        {
          "internalType": "uint256",
          "name": "subtractedValue",
          "type": "uint256"
        }
      ],
      "name": "decreaseAllowance",
      "outputs": [
        {
          "internalType": "bool",
          "name": "result",
          "type": "bool"
        }
      ],
      "stateMutability": "nonpayable",
      "type": "function"
    },
    {
      "inputs": [],
      "name": "forwarderRegistry",
      "outputs": [
        {
          "internalType": "contract IForwarderRegistry",
          "name": "",
          "type": "address"
        }
      ],
      "stateMutability": "view",
      "type": "function"
    },
    {
      "inputs": [
        {
          "internalType": "address",
          "name": "spender",
          "type": "address"
        },
        {
          "internalType": "uint256",
          "name": "addedValue",
          "type": "uint256"
        }
      ],
      "name": "increaseAllowance",
      "outputs": [
        {
          "internalType": "bool",
          "name": "result",
          "type": "bool"
        }
      ],
      "stateMutability": "nonpayable",
      "type": "function"
    },
    {
      "inputs": [
        {
          "internalType": "string",
          "name": "tokenName",
          "type": "string"
        },
        {
          "internalType": "string",
          "name": "tokenSymbol",
          "type": "string"
        },
        {
          "internalType": "uint8",
          "name": "tokenDecimals",
          "type": "uint8"
        },
        {
          "internalType": "address[]",
          "name": "holders",
          "type": "address[]"
        },
        {
          "internalType": "uint256[]",
          "name": "allocations",
          "type": "uint256[]"
        }
      ],
      "name": "init",
      "outputs": [],
      "stateMutability": "nonpayable",
      "type": "function"
    },
    {
      "inputs": [
        {
          "internalType": "address",
          "name": "forwarder",
          "type": "address"
        }
      ],
      "name": "isTrustedForwarder",
      "outputs": [
        {
          "internalType": "bool",
          "name": "",
          "type": "bool"
        }
      ],
      "stateMutability": "view",
      "type": "function"
    },
    {
      "inputs": [],
      "name": "name",
      "outputs": [
        {
          "internalType": "string",
          "name": "",
          "type": "string"
        }
      ],
      "stateMutability": "view",
      "type": "function"
    },
    {
      "inputs": [
        {
          "internalType": "address",
          "name": "owner",
          "type": "address"
        }
      ],
      "name": "nonces",
      "outputs": [
        {
          "internalType": "uint256",
          "name": "",
          "type": "uint256"
        }
      ],
      "stateMutability": "view",
      "type": "function"
    },
    {
      "inputs": [],
      "name": "owner",
      "outputs": [
        {
          "internalType": "address",
          "name": "",
          "type": "address"
        }
      ],
      "stateMutability": "view",
      "type": "function"
    },
    {
      "inputs": [
        {
          "internalType": "address",
          "name": "owner",
          "type": "address"
        },
        {
          "internalType": "address",
          "name": "spender",
          "type": "address"
        },
        {
          "internalType": "uint256",
          "name": "value",
          "type": "uint256"
        },
        {
          "internalType": "uint256",
          "name": "deadline",
          "type": "uint256"
        },
        {
          "internalType": "uint8",
          "name": "v",
          "type": "uint8"
        },
        {
          "internalType": "bytes32",
          "name": "r",
          "type": "bytes32"
        },
        {
          "internalType": "bytes32",
          "name": "s",
          "type": "bytes32"
        }
      ],
      "name": "permit",
      "outputs": [],
      "stateMutability": "nonpayable",
      "type": "function"
    },
    {
      "inputs": [
        {
          "internalType": "address[]",
          "name": "accounts",
          "type": "address[]"
        },
        {
          "internalType": "contract IERC20[]",
          "name": "tokens",
          "type": "address[]"
        },
        {
          "internalType": "uint256[]",
          "name": "amounts",
          "type": "uint256[]"
        }
      ],
      "name": "recoverERC20s",
      "outputs": [],
      "stateMutability": "nonpayable",
      "type": "function"
    },
    {
      "inputs": [
        {
          "internalType": "address[]",
          "name": "accounts",
          "type": "address[]"
        },
        {
          "internalType": "contract IERC721[]",
          "name": "contracts",
          "type": "address[]"
        },
        {
          "internalType": "uint256[]",
          "name": "tokenIds",
          "type": "uint256[]"
        }
      ],
      "name": "recoverERC721s",
      "outputs": [],
      "stateMutability": "nonpayable",
      "type": "function"
    },
    {
      "inputs": [
        {
          "internalType": "address payable[]",
          "name": "accounts",
          "type": "address[]"
        },
        {
          "internalType": "uint256[]",
          "name": "amounts",
          "type": "uint256[]"
        }
      ],
      "name": "recoverETH",
      "outputs": [],
      "stateMutability": "nonpayable",
      "type": "function"
    },
    {
      "inputs": [
        {
          "internalType": "address",
          "name": "to",
          "type": "address"
        },
        {
          "internalType": "uint256",
          "name": "value",
          "type": "uint256"
        },
        {
          "internalType": "bytes",
          "name": "data",
          "type": "bytes"
        }
      ],
      "name": "safeTransfer",
      "outputs": [
        {
          "internalType": "bool",
          "name": "",
          "type": "bool"
        }
      ],
      "stateMutability": "nonpayable",
      "type": "function"
    },
    {
      "inputs": [
        {
          "internalType": "address",
          "name": "from",
          "type": "address"
        },
        {
          "internalType": "address",
          "name": "to",
          "type": "address"
        },
        {
          "internalType": "uint256",
          "name": "value",
          "type": "uint256"
        },
        {
          "internalType": "bytes",
          "name": "data",
          "type": "bytes"
        }
      ],
      "name": "safeTransferFrom",
      "outputs": [
        {
          "internalType": "bool",
          "name": "",
          "type": "bool"
        }
      ],
      "stateMutability": "nonpayable",
      "type": "function"
    },
    {
      "inputs": [
        {
          "internalType": "string",
          "name": "uri",
          "type": "string"
        }
      ],
      "name": "setTokenURI",
      "outputs": [],
      "stateMutability": "nonpayable",
      "type": "function"
    },
    {
      "inputs": [
        {
          "internalType": "bytes4",
          "name": "interfaceId",
          "type": "bytes4"
        }
      ],
      "name": "supportsInterface",
      "outputs": [
        {
          "internalType": "bool",
          "name": "",
          "type": "bool"
        }
      ],
      "stateMutability": "view",
      "type": "function"
    },
    {
      "inputs": [],
      "name": "symbol",
      "outputs": [
        {
          "internalType": "string",
          "name": "",
          "type": "string"
        }
      ],
      "stateMutability": "view",
      "type": "function"
    },
    {
      "inputs": [],
      "name": "tokenURI",
      "outputs": [
        {
          "internalType": "string",
          "name": "",
          "type": "string"
        }
      ],
      "stateMutability": "view",
      "type": "function"
    },
    {
      "inputs": [],
      "name": "totalSupply",
      "outputs": [
        {
          "internalType": "uint256",
          "name": "supply",
          "type": "uint256"
        }
      ],
      "stateMutability": "view",
      "type": "function"
    },
    {
      "inputs": [
        {
          "internalType": "address",
          "name": "to",
          "type": "address"
        },
        {
          "internalType": "uint256",
          "name": "value",
          "type": "uint256"
        }
      ],
      "name": "transfer",
      "outputs": [
        {
          "internalType": "bool",
          "name": "result",
          "type": "bool"
        }
      ],
      "stateMutability": "nonpayable",
      "type": "function"
    },
    {
      "inputs": [
        {
          "internalType": "address",
          "name": "from",
          "type": "address"
        },
        {
          "internalType": "address",
          "name": "to",
          "type": "address"
        },
        {
          "internalType": "uint256",
          "name": "value",
          "type": "uint256"
        }
      ],
      "name": "transferFrom",
      "outputs": [
        {
          "internalType": "bool",
          "name": "result",
          "type": "bool"
        }
      ],
      "stateMutability": "nonpayable",
      "type": "function"
    },
    {
      "inputs": [
        {
          "internalType": "address",
          "name": "newOwner",
          "type": "address"
        }
      ],
      "name": "transferOwnership",
      "outputs": [],
      "stateMutability": "nonpayable",
      "type": "function"
    }
  ],
  "bytecode": "0x60a0604052348015600f57600080fd5b5060405161386e38038061386e833981016040819052602c91603c565b6001600160a01b0316608052606a565b600060208284031215604d57600080fd5b81516001600160a01b0381168114606357600080fd5b9392505050565b6080516137c66100a86000396000818161025a01528181610315015281816127b701528181612845015281816128f8015261293601526137c66000f3fe608060405234801561001057600080fd5b50600436106101da5760003560e01c80637ecebe0011610104578063b88d4fde116100a2578063e0df5b6f11610071578063e0df5b6f14610435578063eb79554914610448578063f2fde38b1461045b578063f7ba94bd1461046e57600080fd5b8063b88d4fde146103e9578063c3666c36146103fc578063d505accf1461040f578063dd62ed3e1461042257600080fd5b80638da5cb5b116100de5780638da5cb5b146103b357806395d89b41146103bb578063a457c2d7146103c3578063a9059cbb146103d657600080fd5b80637ecebe001461037a57806388d695b21461038d5780638a6d57b6146103a057600080fd5b806331e66e1e1161017c5780634885b2541161014b5780634885b254146102f2578063572b6c051461030557806370a082311461035257806373c8a9581461036557600080fd5b806331e66e1e146102b95780633644e515146102cf57806339509351146102d75780633c130d90146102ea57600080fd5b806318160ddd116101b857806318160ddd1461022f57806323b872dd146102455780632b4c9f1614610258578063313ce5671461029f57600080fd5b806301ffc9a7146101df57806306fdde0314610207578063095ea7b31461021c575b600080fd5b6101f26101ed366004612e62565b610481565b60405190151581526020015b60405180910390f35b61020f61049b565b6040516101fe9190612ee3565b6101f261022a366004612f18565b6104b2565b6102376104da565b6040519081526020016101fe565b6101f2610253366004612f44565b6104ee565b7f00000000000000000000000000000000000000000000000000000000000000005b60405173ffffffffffffffffffffffffffffffffffffffff90911681526020016101fe565b6102a7610519565b60405160ff90911681526020016101fe565b6102c1610530565b6040516101fe929190612f85565b610237610543565b6101f26102e5366004612f18565b61054d565b61020f61056c565b6101f261030036600461301e565b610579565b6101f26103133660046130a1565b7f000000000000000000000000000000000000000000000000000000000000000073ffffffffffffffffffffffffffffffffffffffff90811691161490565b6102376103603660046130a1565b6105aa565b6103786103733660046130be565b6105e2565b005b6102376103883660046130a1565b6106e6565b6101f261039b366004613158565b6106f4565b6103786103ae36600461321c565b610722565b61027a610800565b61020f610827565b6101f26103d1366004612f18565b610839565b6101f26103e4366004612f18565b610858565b6101f26103f73660046132f6565b610877565b61037861040a3660046130be565b61089c565b61037861041d366004613358565b610b42565b6102376104303660046133c6565b610b69565b6103786104433660046133ff565b610bbb565b6101f2610456366004613441565b610bde565b6103786104693660046130a1565b610c01565b61037861047c366004613158565b610c1f565b60006104958261048f610cde565b90610d0c565b92915050565b60606104ad6104a8610de6565b610e14565b905090565b60006104d16104bf610eaa565b84846104c9610eb4565b929190610ee2565b50600192915050565b60006104ad6104e7610eb4565b6002015490565b600061050f6104fb610eaa565b858585610506610eb4565b93929190610fb9565b5060019392505050565b60006104ad610526610de6565b6002015460ff1690565b36600061053b61100b565b915091509091565b60006104ad611016565b60006104d161055a610eaa565b8484610564610eb4565b9291906110b1565b60606104ad6104a8611263565b600061059e610586610eaa565b8787878787610593610eb4565b959493929190611291565b50600195945050505050565b6000610495826105b8610eb4565b9073ffffffffffffffffffffffffffffffffffffffff166000908152602091909152604090205490565b6105fb6105ed610eaa565b6105f561166b565b90611699565b84838114158061060b5750808214155b15610642576040517f6582533600000000000000000000000000000000000000000000000000000000815260040160405180910390fd5b60005b818110156106dc576106d488888381811061066257610662613491565b905060200201602081019061067791906130a1565b85858481811061068957610689613491565b905060200201358888858181106106a2576106a2613491565b90506020020160208101906106b791906130a1565b73ffffffffffffffffffffffffffffffffffffffff169190611704565b600101610645565b5050505050505050565b6000610495826105b8611796565b6000610717610701610eaa565b8686868661070d610eb4565b94939291906117c4565b506001949350505050565b61073b61072d610eaa565b61073561166b565b90611b1b565b610743611b5a565b61074b611bbe565b610753611bf5565b61076d8989898989610763610de6565b9493929190611c23565b610775611ccb565b61077d611cf9565b6107f5848480806020026020016040519081016040528093929190818152602001838360200280828437600092019190915250506040805160208088028281018201909352878252909350879250869182918501908490808284376000920191909152506107ee9250610eb4915050565b9190611d27565b505050505050505050565b60006104ad61080d61166b565b5473ffffffffffffffffffffffffffffffffffffffff1690565b60606104ad610834610de6565b611f48565b60006104d1610846610eaa565b8484610850610eb4565b929190611f59565b60006104d1610865610eaa565b848461086f610eb4565b929190612091565b600061059e610884610eaa565b8787878787610891610eb4565b959493929190612250565b6108a76105ed610eaa565b8483811415806108b75750808214155b156108ee576040517f6582533600000000000000000000000000000000000000000000000000000000815260040160405180910390fd5b60005b818110156106dc57600086868381811061090d5761090d613491565b905060200201602081019061092291906130a1565b6040517f01ffc9a70000000000000000000000000000000000000000000000000000000081527f80ac58cd00000000000000000000000000000000000000000000000000000000600482015290915073ffffffffffffffffffffffffffffffffffffffff8216906301ffc9a790602401602060405180830381865afa1580156109af573d6000803e3d6000fd5b505050506040513d601f19601f820116820180604052508101906109d391906134c0565b610a26576040517f986b9f1f00000000000000000000000000000000000000000000000000000000815273ffffffffffffffffffffffffffffffffffffffff821660048201526024015b60405180910390fd5b868683818110610a3857610a38613491565b9050602002016020810190610a4d91906130a1565b73ffffffffffffffffffffffffffffffffffffffff166342842e0e308b8b86818110610a7b57610a7b613491565b9050602002016020810190610a9091906130a1565b888887818110610aa257610aa2613491565b6040517fffffffff0000000000000000000000000000000000000000000000000000000060e088901b16815273ffffffffffffffffffffffffffffffffffffffff958616600482015294909316602485015250602090910201356044820152606401600060405180830381600087803b158015610b1e57600080fd5b505af1158015610b32573d6000803e3d6000fd5b50505050508060010190506108f1565b610b6087878787878787610b54611796565b969594939291906122bd565b50505050505050565b6000610bb48383610b78610eb4565b919073ffffffffffffffffffffffffffffffffffffffff9182166000908152600193909301602090815260408085209290931684525290205490565b9392505050565b610bc66105ed610eaa565b610bda8282610bd3611263565b919061252c565b5050565b6000610717610beb610eaa565b86868686610bf7610eb4565b949392919061253e565b610c1c610c0c610eaa565b82610c1561166b565b91906125aa565b50565b610c2a6105ed610eaa565b82818114610c64576040517f6582533600000000000000000000000000000000000000000000000000000000815260040160405180910390fd5b60005b81811015610cd657610cce848483818110610c8457610c84613491565b90506020020135878784818110610c9d57610c9d613491565b9050602002016020810190610cb291906130a1565b73ffffffffffffffffffffffffffffffffffffffff16906126be565b600101610c67565b505050505050565b60008061049560017fca9d3e17f264b0f3984e2634e94adb37fa3e6a8103f06aeae6fa59e21c769f5e6134e2565b60007c01000000000000000000000000000000000000000000000000000000007fffffffff00000000000000000000000000000000000000000000000000000000831601610d5c57506000610495565b7ffe003659000000000000000000000000000000000000000000000000000000007fffffffff00000000000000000000000000000000000000000000000000000000831601610dad57506001610495565b507fffffffff00000000000000000000000000000000000000000000000000000000166000908152602091909152604090205460ff1690565b60008061049560017f335df4119bbb04f056b33eba33b826d3529129e458faf6daa9924b5a8f3b6a826134e2565b6060816000018054610e259061351c565b80601f0160208091040260200160405190810160405280929190818152602001828054610e519061351c565b8015610e9e5780601f10610e7357610100808354040283529160200191610e9e565b820191906000526020600020905b815481529060010190602001808311610e8157829003601f168201915b50505050509050919050565b60006104ad612774565b60008061049560017f1da92899d3da68bf9787824388a37ea2bfa79780bcef91b9716c390eec8ecbef6134e2565b73ffffffffffffffffffffffffffffffffffffffff8216610f47576040517ff7e1ac0f00000000000000000000000000000000000000000000000000000000815273ffffffffffffffffffffffffffffffffffffffff84166004820152602401610a1d565b73ffffffffffffffffffffffffffffffffffffffff838116600081815260018701602090815260408083209487168084529482529182902085905590518481527f8c5be1e5ebec7d5bd14f71427d1e84f3dd0314c0f7b2291e5b200ac8c7c3b92591015b60405180910390a350505050565b8373ffffffffffffffffffffffffffffffffffffffff168373ffffffffffffffffffffffffffffffffffffffff1614610ff857610ff885848684611f59565b61100485848484612091565b5050505050565b36600061053b6128c1565b6000467f8b73c3c69bb8fe3d512ecc4cf759cc79239f7b179b0ffacaa9a75d522b39400f6110456104a8610de6565b80516020918201206040805192830193909352918101919091527fc89efdaa54c0f20c7adf612882df0950f5a951637e0307cdcb4c672f298b8bc66060820152608081018290523060a082015260c0016040516020818303038152906040528051906020012091505090565b73ffffffffffffffffffffffffffffffffffffffff8216611116576040517ff7e1ac0f00000000000000000000000000000000000000000000000000000000815273ffffffffffffffffffffffffffffffffffffffff84166004820152602401610a1d565b73ffffffffffffffffffffffffffffffffffffffff808416600090815260018601602090815260408083209386168352929052205481156111f5578082018181116111bb576040517f93bc2ff100000000000000000000000000000000000000000000000000000000815273ffffffffffffffffffffffffffffffffffffffff8087166004830152851660248201526044810183905260648101849052608401610a1d565b73ffffffffffffffffffffffffffffffffffffffff8086166000908152600188016020908152604080832093881683529290522081905590505b8273ffffffffffffffffffffffffffffffffffffffff168473ffffffffffffffffffffffffffffffffffffffff167f8c5be1e5ebec7d5bd14f71427d1e84f3dd0314c0f7b2291e5b200ac8c7c3b9258360405161125491815260200190565b60405180910390a35050505050565b60008061049560017ff41bf6a5db26bffdfab174dcf66b31fbba8fdb7e3db040721ce1e62d61839ceb6134e2565b828181146112cb576040517f6582533600000000000000000000000000000000000000000000000000000000815260040160405180910390fd5b806000036112d95750610b60565b73ffffffffffffffffffffffffffffffffffffffff86166000908152602089905260408120549080805b8481101561161e57600089898381811061131f5761131f613491565b905060200201602081019061133491906130a1565b905073ffffffffffffffffffffffffffffffffffffffff811661139b576040517f754f425b00000000000000000000000000000000000000000000000000000000815273ffffffffffffffffffffffffffffffffffffffff8c166004820152602401610a1d565b60008888848181106113af576113af613491565b905060200201359050806000146114ed578481018581116113fc576040517fdedd834100000000000000000000000000000000000000000000000000000000815260040160405180910390fd5b8095508273ffffffffffffffffffffffffffffffffffffffff168d73ffffffffffffffffffffffffffffffffffffffff161461148657818f60000160008573ffffffffffffffffffffffffffffffffffffffff1673ffffffffffffffffffffffffffffffffffffffff168152602001908152602001600020600082825401925050819055506114eb565b868211156114e6576040517fe450d38c00000000000000000000000000000000000000000000000000000000815273ffffffffffffffffffffffffffffffffffffffff8e1660048201526024810188905260448101839052606401610a1d565b938101935b505b8173ffffffffffffffffffffffffffffffffffffffff168c73ffffffffffffffffffffffffffffffffffffffff167fddf252ad1be2c89b69c2b068fc378daa952ba7f163c4a11628f55a4df523b3ef8360405161154c91815260200190565b60405180910390a384158015906115635750838514155b15611614578486038681106115ca576040517fe450d38c00000000000000000000000000000000000000000000000000000000815273ffffffffffffffffffffffffffffffffffffffff8e1660048201526024810188905260448101879052606401610a1d565b8481018f60000160008f73ffffffffffffffffffffffffffffffffffffffff1673ffffffffffffffffffffffffffffffffffffffff16815260200190815260200160002081905550505b5050600101611303565b508973ffffffffffffffffffffffffffffffffffffffff168973ffffffffffffffffffffffffffffffffffffffff161461165e5761165e8b8a8c85611f59565b5050505050505050505050565b60008061049560017fc9ed16f33ab3a66c84bfd83099ccb2a8845871e2e1c1928f63797152f0fd54cd6134e2565b815473ffffffffffffffffffffffffffffffffffffffff828116911614610bda576040517f2ef4875e00000000000000000000000000000000000000000000000000000000815273ffffffffffffffffffffffffffffffffffffffff82166004820152602401610a1d565b6040805173ffffffffffffffffffffffffffffffffffffffff8416602482015260448082018490528251808303909101815260649091019091526020810180517bffffffffffffffffffffffffffffffffffffffffffffffffffffffff167fa9059cbb00000000000000000000000000000000000000000000000000000000179052611791908490612a31565b505050565b60008061049560017f93fe0ff7226b064a4a8f0b09910762afb4bc2441835792c021ffd78cd513011e6134e2565b828181146117fe576040517f6582533600000000000000000000000000000000000000000000000000000000815260040160405180910390fd5b8060000361180c5750610cd6565b73ffffffffffffffffffffffffffffffffffffffff86166000908152602088905260408120549080805b84811015611a6d57600089898381811061185257611852613491565b905060200201602081019061186791906130a1565b905073ffffffffffffffffffffffffffffffffffffffff81166118ce576040517f754f425b00000000000000000000000000000000000000000000000000000000815273ffffffffffffffffffffffffffffffffffffffff8c166004820152602401610a1d565b60008888848181106118e2576118e2613491565b905060200201359050806000146119fc5784810185811161192f576040517fdedd834100000000000000000000000000000000000000000000000000000000815260040160405180910390fd5b8095508273ffffffffffffffffffffffffffffffffffffffff168d73ffffffffffffffffffffffffffffffffffffffff16146119955773ffffffffffffffffffffffffffffffffffffffff8316600090815260208f9052604090208054830190556119fa565b868211156119f5576040517fe450d38c00000000000000000000000000000000000000000000000000000000815273ffffffffffffffffffffffffffffffffffffffff8e1660048201526024810188905260448101839052606401610a1d565b938101935b505b8173ffffffffffffffffffffffffffffffffffffffff168c73ffffffffffffffffffffffffffffffffffffffff167fddf252ad1be2c89b69c2b068fc378daa952ba7f163c4a11628f55a4df523b3ef83604051611a5b91815260200190565b60405180910390a35050600101611836565b508115801590611a7d5750808214155b15611b0f57818303838110611ae4576040517fe450d38c00000000000000000000000000000000000000000000000000000000815273ffffffffffffffffffffffffffffffffffffffff8b1660048201526024810185905260448101849052606401610a1d565b73ffffffffffffffffffffffffffffffffffffffff8a16600090815260208c90526040902090820190555b50505050505050505050565b611b50611b4960017f5b388d90dc1312ba799f321972f13311234fa1163bcabec7cf66101c4876eb846134e2565b6001612ad5565b610bda8282612b21565b6000611b64610cde565b9050611b92817f36372b07000000000000000000000000000000000000000000000000000000006001612bd7565b610c1c817f9d075186000000000000000000000000000000000000000000000000000000006001612bd7565b611bf37fc05327e6000000000000000000000000000000000000000000000000000000006001611bec610cde565b9190612bd7565b565b611bf37f53f41a97000000000000000000000000000000000000000000000000000000006001611bec610cde565b611c51611b4960017fd217496980d1cb14720b20a80af36676bbece8e5feeb5d8970a9681a2c76bb756134e2565b85611c5d8587836135e6565b5060018601611c6d8385836135e6565b506002860180547fffffffffffffffffffffffffffffffffffffffffffffffffffffffffffffff001660ff8316179055610cd67fa219a025000000000000000000000000000000000000000000000000000000006001611bec610cde565b611bf37f3c130d90000000000000000000000000000000000000000000000000000000006001611bec610cde565b611bf37f9d8ff7da000000000000000000000000000000000000000000000000000000006001611bec610cde565b815181518114611d63576040517f6582533600000000000000000000000000000000000000000000000000000000815260040160405180910390fd5b80600003611d715750505050565b6000805b82811015611ee9576000858281518110611d9157611d91613491565b60200260200101519050600073ffffffffffffffffffffffffffffffffffffffff168173ffffffffffffffffffffffffffffffffffffffff1603611e01576040517f92fd9c8f00000000000000000000000000000000000000000000000000000000815260040160405180910390fd5b6000858381518110611e1557611e15613491565b6020026020010151905080600014611e9157838101848111611e63576040517f5542ae7c00000000000000000000000000000000000000000000000000000000815260040160405180910390fd5b73ffffffffffffffffffffffffffffffffffffffff8316600090815260208a90526040902080548301905593505b60405181815273ffffffffffffffffffffffffffffffffffffffff8316906000907fddf252ad1be2c89b69c2b068fc378daa952ba7f163c4a11628f55a4df523b3ef9060200160405180910390a35050600101611d75565b508015611004576002850154818101818111611f3b576040517f0366a5f60000000000000000000000000000000000000000000000000000000081526004810183905260248101849052604401610a1d565b6002870155505050505050565b6060816001018054610e259061351c565b73ffffffffffffffffffffffffffffffffffffffff8216611fbe576040517ff7e1ac0f00000000000000000000000000000000000000000000000000000000815273ffffffffffffffffffffffffffffffffffffffff84166004820152602401610a1d565b73ffffffffffffffffffffffffffffffffffffffff80841660009081526001860160209081526040808320938616835292905220547fffffffffffffffffffffffffffffffffffffffffffffffffffffffffffffffff811480159061202257508115155b156111f5578181038181106111bb576040517f137ad6ab00000000000000000000000000000000000000000000000000000000815273ffffffffffffffffffffffffffffffffffffffff8087166004830152851660248201526044810183905260648101849052608401610a1d565b73ffffffffffffffffffffffffffffffffffffffff82166120f6576040517f754f425b00000000000000000000000000000000000000000000000000000000815273ffffffffffffffffffffffffffffffffffffffff84166004820152602401610a1d565b80156121f15773ffffffffffffffffffffffffffffffffffffffff8316600090815260208590526040902054818103818110612184576040517fe450d38c00000000000000000000000000000000000000000000000000000000815273ffffffffffffffffffffffffffffffffffffffff861660048201526024810183905260448101849052606401610a1d565b8373ffffffffffffffffffffffffffffffffffffffff168573ffffffffffffffffffffffffffffffffffffffff16146121ee5773ffffffffffffffffffffffffffffffffffffffff8086166000908152602088905260408082208490559186168152208054840190555b50505b8173ffffffffffffffffffffffffffffffffffffffff168373ffffffffffffffffffffffffffffffffffffffff167fddf252ad1be2c89b69c2b068fc378daa952ba7f163c4a11628f55a4df523b3ef83604051610fab91815260200190565b61225d8787878787610fb9565b73ffffffffffffffffffffffffffffffffffffffff84163b15610b6057610b608686868686868080601f016020809104026020016040519081016040528093929190818152602001838380828437600092019190915250612cb392505050565b73ffffffffffffffffffffffffffffffffffffffff871661230a576040517fa974697600000000000000000000000000000000000000000000000000000000815260040160405180910390fd5b83421115612347576040517fea2b6f5800000000000000000000000000000000000000000000000000000000815260048101859052602401610a1d565b73ffffffffffffffffffffffffffffffffffffffff878116600081815260208b8152604080832080546001810190915581517f6e71edae12b1b97f4d1f60370fef10105fa2faae0126114a169c64845d6126c98185015280830195909552948b166060850152608084018a905260a084019490945260c08084018990528451808503909101815260e090930190935281519190920120906123e6611016565b6040517f19010000000000000000000000000000000000000000000000000000000000006020820152602281019190915260428101839052606201604080517fffffffffffffffffffffffffffffffffffffffffffffffffffffffffffffffe08184030181528282528051602091820120600080855291840180845281905260ff89169284019290925260608301879052608083018690529092509060019060a0016020604051602081039080840390855afa1580156124aa573d6000803e3d6000fd5b5050506020604051035190508973ffffffffffffffffffffffffffffffffffffffff168173ffffffffffffffffffffffffffffffffffffffff161461251b576040517f822a64c800000000000000000000000000000000000000000000000000000000815260040160405180910390fd5b5050506106dc8787876104c9610eb4565b826125388284836135e6565b50505050565b61254a86868686612091565b73ffffffffffffffffffffffffffffffffffffffff84163b15610cd657610cd68586868686868080601f016020809104026020016040519081016040528093929190818152602001838380828437600092019190915250612cb392505050565b825473ffffffffffffffffffffffffffffffffffffffff9081169083168114612617576040517f2ef4875e00000000000000000000000000000000000000000000000000000000815273ffffffffffffffffffffffffffffffffffffffff84166004820152602401610a1d565b8173ffffffffffffffffffffffffffffffffffffffff168173ffffffffffffffffffffffffffffffffffffffff16146125385783547fffffffffffffffffffffffff00000000000000000000000000000000000000001673ffffffffffffffffffffffffffffffffffffffff8381169182178655604051908316907f8be0079c531659141344cd1fd0a4f28419497f9722a3daafe3b4186f6b6457e090600090a350505050565b80471015612701576040517fcf47918100000000000000000000000000000000000000000000000000000000815247600482015260248101829052604401610a1d565b6000808373ffffffffffffffffffffffffffffffffffffffff168360405160006040518083038185875af1925050503d806000811461275c576040519150601f19603f3d011682016040523d82523d6000602084013e612761565b606091505b5091509150816125385761253881612dc1565b6000333214806127845750601836105b1561278e57503390565b7fffffffffffffffffffffffffffffffffffffffffffffffffffffffffffffffec36013560601c7f000000000000000000000000000000000000000000000000000000000000000073ffffffffffffffffffffffffffffffffffffffff163314806128b057506040517f019a202800000000000000000000000000000000000000000000000000000000815273ffffffffffffffffffffffffffffffffffffffff82811660048301523360248301523060448301527f0000000000000000000000000000000000000000000000000000000000000000169063019a202890606401602060405180830381865afa15801561288c573d6000803e3d6000fd5b505050506040513d601f19601f820116820180604052508101906128b091906134c0565b156128ba57919050565b3391505090565b366000333214806128d25750601836105b156128e05750600091369150565b3373ffffffffffffffffffffffffffffffffffffffff7f0000000000000000000000000000000000000000000000000000000000000000161480612a1b575073ffffffffffffffffffffffffffffffffffffffff7f00000000000000000000000000000000000000000000000000000000000000001663019a2028367fffffffffffffffffffffffffffffffffffffffffffffffffffffffffffffffec013560601c6040517fffffffff0000000000000000000000000000000000000000000000000000000060e084901b16815273ffffffffffffffffffffffffffffffffffffffff9091166004820152336024820152306044820152606401602060405180830381865afa1580156129f7573d6000803e3d6000fd5b505050506040513d601f19601f82011682018060405250810190612a1b91906134c0565b15612a285761053b612e03565b50600091369150565b600080602060008451602086016000885af180612a54576040513d6000823e3d81fd5b50506000513d91508115612a6c578060011415612a86565b73ffffffffffffffffffffffffffffffffffffffff84163b155b15612538576040517f5274afe700000000000000000000000000000000000000000000000000000000815273ffffffffffffffffffffffffffffffffffffffff85166004820152602401610a1d565b81548290828110612b1c576040517fbf0c18ec0000000000000000000000000000000000000000000000000000000081526004810182905260248101849052604401610a1d565b505550565b73ffffffffffffffffffffffffffffffffffffffff811615612ba95781547fffffffffffffffffffffffff00000000000000000000000000000000000000001673ffffffffffffffffffffffffffffffffffffffff821690811783556040516000907f8be0079c531659141344cd1fd0a4f28419497f9722a3daafe3b4186f6b6457e0908290a35b610bda7f7f5828d0000000000000000000000000000000000000000000000000000000006001611bec610cde565b7c01000000000000000000000000000000000000000000000000000000007fffffffff00000000000000000000000000000000000000000000000000000000831601612c4f576040517f72c683bb00000000000000000000000000000000000000000000000000000000815260040160405180910390fd5b7fffffffff00000000000000000000000000000000000000000000000000000000919091166000908152602092909252604090912080547fffffffffffffffffffffffffffffffffffffffffffffffffffffffffffffff0016911515919091179055565b6040517f4fc35859000000000000000000000000000000000000000000000000000000008082529073ffffffffffffffffffffffffffffffffffffffff851690634fc3585990612d0d908990899088908890600401613700565b6020604051808303816000875af1158015612d2c573d6000803e3d6000fd5b505050506040513d601f19601f82011682018060405250810190612d509190613749565b7fffffffff000000000000000000000000000000000000000000000000000000001614611004576040517f6d44973600000000000000000000000000000000000000000000000000000000815273ffffffffffffffffffffffffffffffffffffffff84166004820152602401610a1d565b805115612dd15780518082602001fd5b6040517fd6bda27500000000000000000000000000000000000000000000000000000000815260040160405180910390fd5b36600061053b7fffffffffffffffffffffffffffffffffffffffffffffffffffffffffffffffec8301828481613766565b7fffffffff0000000000000000000000000000000000000000000000000000000081168114610c1c57600080fd5b600060208284031215612e7457600080fd5b8135610bb481612e34565b6000815180845260005b81811015612ea557602081850181015186830182015201612e89565b5060006020828601015260207fffffffffffffffffffffffffffffffffffffffffffffffffffffffffffffffe0601f83011685010191505092915050565b602081526000610bb46020830184612e7f565b73ffffffffffffffffffffffffffffffffffffffff81168114610c1c57600080fd5b60008060408385031215612f2b57600080fd5b8235612f3681612ef6565b946020939093013593505050565b600080600060608486031215612f5957600080fd5b8335612f6481612ef6565b92506020840135612f7481612ef6565b929592945050506040919091013590565b60208152816020820152818360408301376000818301604090810191909152601f9092017fffffffffffffffffffffffffffffffffffffffffffffffffffffffffffffffe0160101919050565b60008083601f840112612fe457600080fd5b50813567ffffffffffffffff811115612ffc57600080fd5b6020830191508360208260051b850101111561301757600080fd5b9250929050565b60008060008060006060868803121561303657600080fd5b853561304181612ef6565b9450602086013567ffffffffffffffff8082111561305e57600080fd5b61306a89838a01612fd2565b9096509450604088013591508082111561308357600080fd5b5061309088828901612fd2565b969995985093965092949392505050565b6000602082840312156130b357600080fd5b8135610bb481612ef6565b600080600080600080606087890312156130d757600080fd5b863567ffffffffffffffff808211156130ef57600080fd5b6130fb8a838b01612fd2565b9098509650602089013591508082111561311457600080fd5b6131208a838b01612fd2565b9096509450604089013591508082111561313957600080fd5b5061314689828a01612fd2565b979a9699509497509295939492505050565b6000806000806040858703121561316e57600080fd5b843567ffffffffffffffff8082111561318657600080fd5b61319288838901612fd2565b909650945060208701359150808211156131ab57600080fd5b506131b887828801612fd2565b95989497509550505050565b60008083601f8401126131d657600080fd5b50813567ffffffffffffffff8111156131ee57600080fd5b60208301915083602082850101111561301757600080fd5b803560ff8116811461321757600080fd5b919050565b600080600080600080600080600060a08a8c03121561323a57600080fd5b893567ffffffffffffffff8082111561325257600080fd5b61325e8d838e016131c4565b909b50995060208c013591508082111561327757600080fd5b6132838d838e016131c4565b909950975087915061329760408d01613206565b965060608c01359150808211156132ad57600080fd5b6132b98d838e01612fd2565b909650945060808c01359150808211156132d257600080fd5b506132df8c828d01612fd2565b915080935050809150509295985092959850929598565b60008060008060006080868803121561330e57600080fd5b853561331981612ef6565b9450602086013561332981612ef6565b935060408601359250606086013567ffffffffffffffff81111561334c57600080fd5b613090888289016131c4565b600080600080600080600060e0888a03121561337357600080fd5b873561337e81612ef6565b9650602088013561338e81612ef6565b955060408801359450606088013593506133aa60808901613206565b925060a0880135915060c0880135905092959891949750929550565b600080604083850312156133d957600080fd5b82356133e481612ef6565b915060208301356133f481612ef6565b809150509250929050565b6000806020838503121561341257600080fd5b823567ffffffffffffffff81111561342957600080fd5b613435858286016131c4565b90969095509350505050565b6000806000806060858703121561345757600080fd5b843561346281612ef6565b935060208501359250604085013567ffffffffffffffff81111561348557600080fd5b6131b8878288016131c4565b7f4e487b7100000000000000000000000000000000000000000000000000000000600052603260045260246000fd5b6000602082840312156134d257600080fd5b81518015158114610bb457600080fd5b81810381811115610495577f4e487b7100000000000000000000000000000000000000000000000000000000600052601160045260246000fd5b600181811c9082168061353057607f821691505b602082108103613569577f4e487b7100000000000000000000000000000000000000000000000000000000600052602260045260246000fd5b50919050565b7f4e487b7100000000000000000000000000000000000000000000000000000000600052604160045260246000fd5b601f821115611791576000816000526020600020601f850160051c810160208610156135c75750805b601f850160051c820191505b81811015610cd6578281556001016135d3565b67ffffffffffffffff8311156135fe576135fe61356f565b6136128361360c835461351c565b8361359e565b6000601f841160018114613664576000851561362e5750838201355b7fffffffffffffffffffffffffffffffffffffffffffffffffffffffffffffffff600387901b1c1916600186901b178355611004565b6000838152602090207fffffffffffffffffffffffffffffffffffffffffffffffffffffffffffffffe0861690835b828110156136b35786850135825560209485019460019092019101613693565b50868210156136ee577fffffffffffffffffffffffffffffffffffffffffffffffffffffffffffffffff60f88860031b161c19848701351681555b505060018560011b0183555050505050565b600073ffffffffffffffffffffffffffffffffffffffff80871683528086166020840152508360408301526080606083015261373f6080830184612e7f565b9695505050505050565b60006020828403121561375b57600080fd5b8151610bb481612e34565b6000808585111561377657600080fd5b8386111561378357600080fd5b505082019391909203915056fea2646970667358221220e017a9bc89e2dbc831b80adc67e2b3fd2fc84c415945cff3cbffdcc117db053964736f6c63430008190033",
  "linkReferences": {},
  "deployedLinkReferences": {}
}