{
  "_format": "hh-sol-artifact-1",
  "contractName": "ERC20FixedSupplyProxiedMock",
  "sourceName": "contracts/mocks/token/ERC20/preset/proxied/ERC20FixedSupplyProxiedMock.sol",
  "abi": [
    {
      "inputs": [
        {
          "internalType": "contract IForwarderRegistry",
          "name": "forwarderRegistry",
          "type": "address"
        }
      ],
      "stateMutability": "nonpayable",
      "type": "constructor"
    },
    {
      "inputs": [
        {
          "internalType": "address",
          "name": "owner",
          "type": "address"
        },
        {
          "internalType": "address",
          "name": "spender",
          "type": "address"
        },
        {
          "internalType": "uint256",
          "name": "allowance",
          "type": "uint256"
        },
        {
          "internalType": "uint256",
          "name": "increment",
          "type": "uint256"
        }
      ],
      "name": "ERC20AllowanceOverflow",
      "type": "error"
    },
    {
      "inputs": [
        {
          "internalType": "address",
          "name": "owner",
          "type": "address"
        }
      ],
      "name": "ERC20ApprovalToAddressZero",
      "type": "error"
    },
    {
      "inputs": [],
      "name": "ERC20BatchMintValuesOverflow",
      "type": "error"
    },
    {
      "inputs": [],
      "name": "ERC20BatchTransferValuesOverflow",
      "type": "error"
    },
    {
      "inputs": [
        {
          "internalType": "address",
          "name": "owner",
          "type": "address"
        },
        {
          "internalType": "address",
          "name": "spender",
          "type": "address"
        },
        {
          "internalType": "uint256",
          "name": "allowance",
          "type": "uint256"
        },
        {
          "internalType": "uint256",
          "name": "decrement",
          "type": "uint256"
        }
      ],
      "name": "ERC20InsufficientAllowance",
      "type": "error"
    },
    {
      "inputs": [
        {
          "internalType": "address",
          "name": "owner",
          "type": "address"
        },
        {
          "internalType": "uint256",
          "name": "balance",
          "type": "uint256"
        },
        {
          "internalType": "uint256",
          "name": "value",
          "type": "uint256"
        }
      ],
      "name": "ERC20InsufficientBalance",
      "type": "error"
    },
    {
      "inputs": [],
      "name": "ERC20MintToAddressZero",
      "type": "error"
    },
    {
      "inputs": [
        {
          "internalType": "uint256",
          "name": "deadline",
          "type": "uint256"
        }
      ],
      "name": "ERC20PermitExpired",
      "type": "error"
    },
    {
      "inputs": [],
      "name": "ERC20PermitFromAddressZero",
      "type": "error"
    },
    {
      "inputs": [],
      "name": "ERC20PermitInvalidSignature",
      "type": "error"
    },
    {
      "inputs": [
        {
          "internalType": "address",
          "name": "recipient",
          "type": "address"
        }
      ],
      "name": "ERC20SafeTransferRejected",
      "type": "error"
    },
    {
      "inputs": [
        {
          "internalType": "uint256",
          "name": "supply",
          "type": "uint256"
        },
        {
          "internalType": "uint256",
          "name": "value",
          "type": "uint256"
        }
      ],
      "name": "ERC20TotalSupplyOverflow",
      "type": "error"
    },
    {
      "inputs": [
        {
          "internalType": "address",
          "name": "owner",
          "type": "address"
        }
      ],
      "name": "ERC20TransferToAddressZero",
      "type": "error"
    },
    {
      "inputs": [],
      "name": "IllegalInterfaceId",
      "type": "error"
    },
    {
      "inputs": [],
      "name": "InconsistentArrayLengths",
      "type": "error"
    },
    {
      "inputs": [
        {
          "internalType": "uint256",
          "name": "currentPhase",
          "type": "uint256"
        },
        {
          "internalType": "uint256",
          "name": "newPhase",
          "type": "uint256"
        }
      ],
      "name": "InitializationPhaseAlreadyReached",
      "type": "error"
    },
    {
      "inputs": [
        {
          "internalType": "address",
          "name": "account",
          "type": "address"
        }
      ],
      "name": "NotContractOwner",
      "type": "error"
    },
    {
      "anonymous": false,
      "inputs": [
        {
          "indexed": true,
          "internalType": "address",
          "name": "owner",
          "type": "address"
        },
        {
          "indexed": true,
          "internalType": "address",
          "name": "spender",
          "type": "address"
        },
        {
          "indexed": false,
          "internalType": "uint256",
          "name": "value",
          "type": "uint256"
        }
      ],
      "name": "Approval",
      "type": "event"
    },
    {
      "anonymous": false,
      "inputs": [
        {
          "indexed": true,
          "internalType": "address",
          "name": "previousOwner",
          "type": "address"
        },
        {
          "indexed": true,
          "internalType": "address",
          "name": "newOwner",
          "type": "address"
        }
      ],
      "name": "OwnershipTransferred",
      "type": "event"
    },
    {
      "anonymous": false,
      "inputs": [
        {
          "indexed": true,
          "internalType": "address",
          "name": "from",
          "type": "address"
        },
        {
          "indexed": true,
          "internalType": "address",
          "name": "to",
          "type": "address"
        },
        {
          "indexed": false,
          "internalType": "uint256",
          "name": "value",
          "type": "uint256"
        }
      ],
      "name": "Transfer",
      "type": "event"
    },
    {
      "inputs": [],
      "name": "DOMAIN_SEPARATOR",
      "outputs": [
        {
          "internalType": "bytes32",
          "name": "",
          "type": "bytes32"
        }
      ],
      "stateMutability": "view",
      "type": "function"
    },
    {
      "inputs": [],
      "name": "__msgData",
      "outputs": [
        {
          "internalType": "bytes",
          "name": "",
          "type": "bytes"
        }
      ],
      "stateMutability": "view",
      "type": "function"
    },
    {
      "inputs": [
        {
          "internalType": "address",
          "name": "owner",
          "type": "address"
        },
        {
          "internalType": "address",
          "name": "spender",
          "type": "address"
        }
      ],
      "name": "allowance",
      "outputs": [
        {
          "internalType": "uint256",
          "name": "value",
          "type": "uint256"
        }
      ],
      "stateMutability": "view",
      "type": "function"
    },
    {
      "inputs": [
        {
          "internalType": "address",
          "name": "spender",
          "type": "address"
        },
        {
          "internalType": "uint256",
          "name": "value",
          "type": "uint256"
        }
      ],
      "name": "approve",
      "outputs": [
        {
          "internalType": "bool",
          "name": "result",
          "type": "bool"
        }
      ],
      "stateMutability": "nonpayable",
      "type": "function"
    },
    {
      "inputs": [
        {
          "internalType": "address",
          "name": "owner",
          "type": "address"
        }
      ],
      "name": "balanceOf",
      "outputs": [
        {
          "internalType": "uint256",
          "name": "balance",
          "type": "uint256"
        }
      ],
      "stateMutability": "view",
      "type": "function"
    },
    {
      "inputs": [
        {
          "internalType": "address[]",
          "name": "recipients",
          "type": "address[]"
        },
        {
          "internalType": "uint256[]",
          "name": "values",
          "type": "uint256[]"
        }
      ],
      "name": "batchTransfer",
      "outputs": [
        {
          "internalType": "bool",
          "name": "",
          "type": "bool"
        }
      ],
      "stateMutability": "nonpayable",
      "type": "function"
    },
    {
      "inputs": [
        {
          "internalType": "address",
          "name": "from",
          "type": "address"
        },
        {
          "internalType": "address[]",
          "name": "recipients",
          "type": "address[]"
        },
        {
          "internalType": "uint256[]",
          "name": "values",
          "type": "uint256[]"
        }
      ],
      "name": "batchTransferFrom",
      "outputs": [
        {
          "internalType": "bool",
          "name": "",
          "type": "bool"
        }
      ],
      "stateMutability": "nonpayable",
      "type": "function"
    },
    {
      "inputs": [],
      "name": "decimals",
      "outputs": [
        {
          "internalType": "uint8",
          "name": "",
          "type": "uint8"
        }
      ],
      "stateMutability": "view",
      "type": "function"
    },
    {
      "inputs": [
        {
          "internalType": "address",
          "name": "spender",
          "type": "address"
        },
        {
          "internalType": "uint256",
          "name": "subtractedValue",
          "type": "uint256"
        }
      ],
      "name": "decreaseAllowance",
      "outputs": [
        {
          "internalType": "bool",
          "name": "result",
          "type": "bool"
        }
      ],
      "stateMutability": "nonpayable",
      "type": "function"
    },
    {
      "inputs": [],
      "name": "forwarderRegistry",
      "outputs": [
        {
          "internalType": "contract IForwarderRegistry",
          "name": "",
          "type": "address"
        }
      ],
      "stateMutability": "view",
      "type": "function"
    },
    {
      "inputs": [
        {
          "internalType": "address",
          "name": "spender",
          "type": "address"
        },
        {
          "internalType": "uint256",
          "name": "addedValue",
          "type": "uint256"
        }
      ],
      "name": "increaseAllowance",
      "outputs": [
        {
          "internalType": "bool",
          "name": "result",
          "type": "bool"
        }
      ],
      "stateMutability": "nonpayable",
      "type": "function"
    },
    {
      "inputs": [
        {
          "internalType": "string",
          "name": "tokenName",
          "type": "string"
        },
        {
          "internalType": "string",
          "name": "tokenSymbol",
          "type": "string"
        },
        {
          "internalType": "uint8",
          "name": "tokenDecimals",
          "type": "uint8"
        },
        {
          "internalType": "address[]",
          "name": "holders",
          "type": "address[]"
        },
        {
          "internalType": "uint256[]",
          "name": "allocations",
          "type": "uint256[]"
        }
      ],
      "name": "init",
      "outputs": [],
      "stateMutability": "nonpayable",
      "type": "function"
    },
    {
      "inputs": [
        {
          "internalType": "address",
          "name": "forwarder",
          "type": "address"
        }
      ],
      "name": "isTrustedForwarder",
      "outputs": [
        {
          "internalType": "bool",
          "name": "",
          "type": "bool"
        }
      ],
      "stateMutability": "view",
      "type": "function"
    },
    {
      "inputs": [],
      "name": "name",
      "outputs": [
        {
          "internalType": "string",
          "name": "",
          "type": "string"
        }
      ],
      "stateMutability": "view",
      "type": "function"
    },
    {
      "inputs": [
        {
          "internalType": "address",
          "name": "owner",
          "type": "address"
        }
      ],
      "name": "nonces",
      "outputs": [
        {
          "internalType": "uint256",
          "name": "",
          "type": "uint256"
        }
      ],
      "stateMutability": "view",
      "type": "function"
    },
    {
      "inputs": [],
      "name": "owner",
      "outputs": [
        {
          "internalType": "address",
          "name": "",
          "type": "address"
        }
      ],
      "stateMutability": "view",
      "type": "function"
    },
    {
      "inputs": [
        {
          "internalType": "address",
          "name": "owner",
          "type": "address"
        },
        {
          "internalType": "address",
          "name": "spender",
          "type": "address"
        },
        {
          "internalType": "uint256",
          "name": "value",
          "type": "uint256"
        },
        {
          "internalType": "uint256",
          "name": "deadline",
          "type": "uint256"
        },
        {
          "internalType": "uint8",
          "name": "v",
          "type": "uint8"
        },
        {
          "internalType": "bytes32",
          "name": "r",
          "type": "bytes32"
        },
        {
          "internalType": "bytes32",
          "name": "s",
          "type": "bytes32"
        }
      ],
      "name": "permit",
      "outputs": [],
      "stateMutability": "nonpayable",
      "type": "function"
    },
    {
      "inputs": [
        {
          "internalType": "address[]",
          "name": "accounts",
          "type": "address[]"
        },
        {
          "internalType": "contract IERC20[]",
          "name": "tokens",
          "type": "address[]"
        },
        {
          "internalType": "uint256[]",
          "name": "amounts",
          "type": "uint256[]"
        }
      ],
      "name": "recoverERC20s",
      "outputs": [],
      "stateMutability": "nonpayable",
      "type": "function"
    },
    {
      "inputs": [
        {
          "internalType": "address[]",
          "name": "accounts",
          "type": "address[]"
        },
        {
          "internalType": "contract IERC721[]",
          "name": "contracts",
          "type": "address[]"
        },
        {
          "internalType": "uint256[]",
          "name": "tokenIds",
          "type": "uint256[]"
        }
      ],
      "name": "recoverERC721s",
      "outputs": [],
      "stateMutability": "nonpayable",
      "type": "function"
    },
    {
      "inputs": [
        {
          "internalType": "address payable[]",
          "name": "accounts",
          "type": "address[]"
        },
        {
          "internalType": "uint256[]",
          "name": "amounts",
          "type": "uint256[]"
        }
      ],
      "name": "recoverETH",
      "outputs": [],
      "stateMutability": "nonpayable",
      "type": "function"
    },
    {
      "inputs": [
        {
          "internalType": "address",
          "name": "to",
          "type": "address"
        },
        {
          "internalType": "uint256",
          "name": "value",
          "type": "uint256"
        },
        {
          "internalType": "bytes",
          "name": "data",
          "type": "bytes"
        }
      ],
      "name": "safeTransfer",
      "outputs": [
        {
          "internalType": "bool",
          "name": "",
          "type": "bool"
        }
      ],
      "stateMutability": "nonpayable",
      "type": "function"
    },
    {
      "inputs": [
        {
          "internalType": "address",
          "name": "from",
          "type": "address"
        },
        {
          "internalType": "address",
          "name": "to",
          "type": "address"
        },
        {
          "internalType": "uint256",
          "name": "value",
          "type": "uint256"
        },
        {
          "internalType": "bytes",
          "name": "data",
          "type": "bytes"
        }
      ],
      "name": "safeTransferFrom",
      "outputs": [
        {
          "internalType": "bool",
          "name": "",
          "type": "bool"
        }
      ],
      "stateMutability": "nonpayable",
      "type": "function"
    },
    {
      "inputs": [
        {
          "internalType": "string",
          "name": "uri",
          "type": "string"
        }
      ],
      "name": "setTokenURI",
      "outputs": [],
      "stateMutability": "nonpayable",
      "type": "function"
    },
    {
      "inputs": [
        {
          "internalType": "bytes4",
          "name": "interfaceId",
          "type": "bytes4"
        }
      ],
      "name": "supportsInterface",
      "outputs": [
        {
          "internalType": "bool",
          "name": "",
          "type": "bool"
        }
      ],
      "stateMutability": "view",
      "type": "function"
    },
    {
      "inputs": [],
      "name": "symbol",
      "outputs": [
        {
          "internalType": "string",
          "name": "",
          "type": "string"
        }
      ],
      "stateMutability": "view",
      "type": "function"
    },
    {
      "inputs": [],
      "name": "tokenURI",
      "outputs": [
        {
          "internalType": "string",
          "name": "",
          "type": "string"
        }
      ],
      "stateMutability": "view",
      "type": "function"
    },
    {
      "inputs": [],
      "name": "totalSupply",
      "outputs": [
        {
          "internalType": "uint256",
          "name": "supply",
          "type": "uint256"
        }
      ],
      "stateMutability": "view",
      "type": "function"
    },
    {
      "inputs": [
        {
          "internalType": "address",
          "name": "to",
          "type": "address"
        },
        {
          "internalType": "uint256",
          "name": "value",
          "type": "uint256"
        }
      ],
      "name": "transfer",
      "outputs": [
        {
          "internalType": "bool",
          "name": "result",
          "type": "bool"
        }
      ],
      "stateMutability": "nonpayable",
      "type": "function"
    },
    {
      "inputs": [
        {
          "internalType": "address",
          "name": "from",
          "type": "address"
        },
        {
          "internalType": "address",
          "name": "to",
          "type": "address"
        },
        {
          "internalType": "uint256",
          "name": "value",
          "type": "uint256"
        }
      ],
      "name": "transferFrom",
      "outputs": [
        {
          "internalType": "bool",
          "name": "result",
          "type": "bool"
        }
      ],
      "stateMutability": "nonpayable",
      "type": "function"
    },
    {
      "inputs": [
        {
          "internalType": "address",
          "name": "newOwner",
          "type": "address"
        }
      ],
      "name": "transferOwnership",
      "outputs": [],
      "stateMutability": "nonpayable",
      "type": "function"
    }
  ],
  "bytecode": "0x60a060405234801562000010575f80fd5b50604051620038a9380380620038a9833981016040819052620000339162000045565b6001600160a01b031660805262000074565b5f6020828403121562000056575f80fd5b81516001600160a01b03811681146200006d575f80fd5b9392505050565b6080516137f9620000b05f395f81816102500152818161030b015281816126ab01528181612733015281816127e2015261282001526137f95ff3fe608060405234801561000f575f80fd5b50600436106101d1575f3560e01c80637ecebe00116100fe578063b88d4fde1161009e578063e0df5b6f1161006e578063e0df5b6f1461042b578063eb7955491461043e578063f2fde38b14610451578063f7ba94bd14610464575f80fd5b8063b88d4fde146103df578063c3666c36146103f2578063d505accf14610405578063dd62ed3e14610418575f80fd5b80638da5cb5b116100d95780638da5cb5b146103a957806395d89b41146103b1578063a457c2d7146103b9578063a9059cbb146103cc575f80fd5b80637ecebe001461037057806388d695b2146103835780638a6d57b614610396575f80fd5b806331e66e1e116101745780634885b254116101445780634885b254146102e8578063572b6c05146102fb57806370a082311461034857806373c8a9581461035b575f80fd5b806331e66e1e146102af5780633644e515146102c557806339509351146102cd5780633c130d90146102e0575f80fd5b806318160ddd116101af57806318160ddd1461022557806323b872dd1461023b5780632b4c9f161461024e578063313ce56714610295575f80fd5b806301ffc9a7146101d557806306fdde03146101fd578063095ea7b314610212575b5f80fd5b6101e86101e3366004612ece565b610477565b60405190151581526020015b60405180910390f35b610205610490565b6040516101f49190612f54565b6101e8610220366004612f87565b6104a7565b61022d6104ce565b6040519081526020016101f4565b6101e8610249366004612fb1565b6104e1565b7f00000000000000000000000000000000000000000000000000000000000000005b60405173ffffffffffffffffffffffffffffffffffffffff90911681526020016101f4565b61029d61050b565b60405160ff90911681526020016101f4565b6102b7610521565b6040516101f4929190612fef565b61022d610533565b6101e86102db366004612f87565b61053c565b61020561055a565b6101e86102f6366004613083565b610567565b6101e8610309366004613100565b7f000000000000000000000000000000000000000000000000000000000000000073ffffffffffffffffffffffffffffffffffffffff90811691161490565b61022d610356366004613100565b610597565b61036e61036936600461311b565b6105cd565b005b61022d61037e366004613100565b6106cf565b6101e86103913660046131ae565b6106dc565b61036e6103a4366004613268565b61070a565b6102706107e6565b61020561080c565b6101e86103c7366004612f87565b61081e565b6101e86103da366004612f87565b61083c565b6101e86103ed366004613338565b61085a565b61036e61040036600461311b565b61087e565b61036e610413366004613395565b6109ef565b61022d6104263660046133fe565b610a16565b61036e610439366004613435565b610a66565b6101e861044c366004613474565b610a89565b61036e61045f366004613100565b610aab565b61036e6104723660046131ae565b610ac9565b5f61048a82610484610b86565b90610bb3565b92915050565b60606104a261049d610c8a565b610cb7565b905090565b5f6104c56104b3610d4a565b84846104bd610d53565b929190610d80565b50600192915050565b5f6104a26104da610d53565b6002015490565b5f6105016104ed610d4a565b8585856104f8610d53565b93929190610e5b565b5060019392505050565b5f6104a2610517610c8a565b6002015460ff1690565b365f61052b610ead565b915091509091565b5f6104a2610eb7565b5f6104c5610548610d4a565b8484610552610d53565b929190610f51565b60606104a261049d611101565b5f61058b610573610d4a565b8787878787610580610d53565b95949392919061112e565b50600195945050505050565b5f61048a826105a4610d53565b9073ffffffffffffffffffffffffffffffffffffffff165f908152602091909152604090205490565b6105e66105d8610d4a565b6105e06114de565b9061150b565b8483811415806105f65750808214155b1561062d576040517f6582533600000000000000000000000000000000000000000000000000000000815260040160405180910390fd5b5f5b8181146106c5576106bd88888381811061064b5761064b6134c0565b90506020020160208101906106609190613100565b858584818110610672576106726134c0565b9050602002013588888581811061068b5761068b6134c0565b90506020020160208101906106a09190613100565b73ffffffffffffffffffffffffffffffffffffffff169190611576565b60010161062f565b5050505050505050565b5f61048a826105a4611608565b5f6106fe6106e8610d4a565b868686866106f4610d53565b9493929190611635565b5060015b949350505050565b610723610715610d4a565b61071d6114de565b90611984565b61072b6119c3565b610733611a26565b61073b611a5d565b610755898989898961074b610c8a565b9493929190611a8b565b61075d611b33565b610765611b61565b6107db8484808060200260200160405190810160405280939291908181526020018383602002808284375f92019190915250506040805160208088028281018201909352878252909350879250869182918501908490808284375f920191909152506107d49250610d53915050565b9190611b8f565b505050505050505050565b5f6104a26107f26114de565b5473ffffffffffffffffffffffffffffffffffffffff1690565b60606104a2610819610c8a565b611da7565b5f6104c561082a610d4a565b8484610834610d53565b929190611db8565b5f6104c5610848610d4a565b8484610852610d53565b929190611eef565b5f61058b610866610d4a565b8787878787610873610d53565b9594939291906120ac565b6108896105d8610d4a565b8483811415806108995750808214155b156108d0576040517f6582533600000000000000000000000000000000000000000000000000000000815260040160405180910390fd5b5f5b8181146106c5578585828181106108eb576108eb6134c0565b90506020020160208101906109009190613100565b73ffffffffffffffffffffffffffffffffffffffff166323b872dd308a8a8581811061092e5761092e6134c0565b90506020020160208101906109439190613100565b878786818110610955576109556134c0565b6040517fffffffff0000000000000000000000000000000000000000000000000000000060e088901b16815273ffffffffffffffffffffffffffffffffffffffff9586166004820152949093166024850152506020909102013560448201526064015f604051808303815f87803b1580156109ce575f80fd5b505af11580156109e0573d5f803e3d5ffd5b505050508060010190506108d2565b610a0d87878787878787610a01611608565b96959493929190612118565b50505050505050565b5f610a5f8383610a24610d53565b919073ffffffffffffffffffffffffffffffffffffffff9182165f908152600193909301602090815260408085209290931684525290205490565b9392505050565b610a716105d8610d4a565b610a858282610a7e611101565b9190612383565b5050565b5f6106fe610a95610d4a565b86868686610aa1610d53565b9493929190612395565b610ac6610ab6610d4a565b82610abf6114de565b9190612400565b50565b610ad46105d8610d4a565b82818114610b0e576040517f6582533600000000000000000000000000000000000000000000000000000000815260040160405180910390fd5b5f5b818114610b7e57610b76848483818110610b2c57610b2c6134c0565b90506020020135878784818110610b4557610b456134c0565b9050602002016020810190610b5a9190613100565b73ffffffffffffffffffffffffffffffffffffffff1690612513565b600101610b10565b505050505050565b5f8061048a60017fca9d3e17f264b0f3984e2634e94adb37fa3e6a8103f06aeae6fa59e21c769f5e6134ed565b5f7c01000000000000000000000000000000000000000000000000000000007fffffffff00000000000000000000000000000000000000000000000000000000831601610c0157505f61048a565b7ffe003659000000000000000000000000000000000000000000000000000000007fffffffff00000000000000000000000000000000000000000000000000000000831601610c525750600161048a565b507fffffffff00000000000000000000000000000000000000000000000000000000165f908152602091909152604090205460ff1690565b5f8061048a60017f335df4119bbb04f056b33eba33b826d3529129e458faf6daa9924b5a8f3b6a826134ed565b6060815f018054610cc790613525565b80601f0160208091040260200160405190810160405280929190818152602001828054610cf390613525565b8015610d3e5780601f10610d1557610100808354040283529160200191610d3e565b820191905f5260205f20905b815481529060010190602001808311610d2157829003601f168201915b50505050509050919050565b5f6104a2612669565b5f8061048a60017f1da92899d3da68bf9787824388a37ea2bfa79780bcef91b9716c390eec8ecbef6134ed565b73ffffffffffffffffffffffffffffffffffffffff8216610dea576040517ff7e1ac0f00000000000000000000000000000000000000000000000000000000815273ffffffffffffffffffffffffffffffffffffffff841660048201526024015b60405180910390fd5b73ffffffffffffffffffffffffffffffffffffffff8381165f81815260018701602090815260408083209487168084529482529182902085905590518481527f8c5be1e5ebec7d5bd14f71427d1e84f3dd0314c0f7b2291e5b200ac8c7c3b92591015b60405180910390a350505050565b8373ffffffffffffffffffffffffffffffffffffffff168373ffffffffffffffffffffffffffffffffffffffff1614610e9a57610e9a85848684611db8565b610ea685848484611eef565b5050505050565b365f61052b6127ad565b5f467f8b73c3c69bb8fe3d512ecc4cf759cc79239f7b179b0ffacaa9a75d522b39400f610ee561049d610c8a565b80516020918201206040805192830193909352918101919091527fc89efdaa54c0f20c7adf612882df0950f5a951637e0307cdcb4c672f298b8bc66060820152608081018290523060a082015260c0016040516020818303038152906040528051906020012091505090565b73ffffffffffffffffffffffffffffffffffffffff8216610fb6576040517ff7e1ac0f00000000000000000000000000000000000000000000000000000000815273ffffffffffffffffffffffffffffffffffffffff84166004820152602401610de1565b73ffffffffffffffffffffffffffffffffffffffff8084165f90815260018601602090815260408083209386168352929052205481156110935780820181811161105a576040517f93bc2ff100000000000000000000000000000000000000000000000000000000815273ffffffffffffffffffffffffffffffffffffffff8087166004830152851660248201526044810183905260648101849052608401610de1565b73ffffffffffffffffffffffffffffffffffffffff8086165f908152600188016020908152604080832093881683529290522081905590505b8273ffffffffffffffffffffffffffffffffffffffff168473ffffffffffffffffffffffffffffffffffffffff167f8c5be1e5ebec7d5bd14f71427d1e84f3dd0314c0f7b2291e5b200ac8c7c3b925836040516110f291815260200190565b60405180910390a35050505050565b5f8061048a60017ff41bf6a5db26bffdfab174dcf66b31fbba8fdb7e3db040721ce1e62d61839ceb6134ed565b82818114611168576040517f6582533600000000000000000000000000000000000000000000000000000000815260040160405180910390fd5b805f036111755750610a0d565b73ffffffffffffffffffffffffffffffffffffffff86165f908152602089905260408120549080805b8481146113f1575f8989838181106111b8576111b86134c0565b90506020020160208101906111cd9190613100565b905073ffffffffffffffffffffffffffffffffffffffff8116611234576040517f754f425b00000000000000000000000000000000000000000000000000000000815273ffffffffffffffffffffffffffffffffffffffff8c166004820152602401610de1565b5f888884818110611247576112476134c0565b905060200201359050805f1461138057848101858111611293576040517fdedd834100000000000000000000000000000000000000000000000000000000815260040160405180910390fd5b8095508273ffffffffffffffffffffffffffffffffffffffff168d73ffffffffffffffffffffffffffffffffffffffff161461131957818f5f015f8573ffffffffffffffffffffffffffffffffffffffff1673ffffffffffffffffffffffffffffffffffffffff1681526020019081526020015f205f828254019250508190555061137e565b86821115611379576040517fe450d38c00000000000000000000000000000000000000000000000000000000815273ffffffffffffffffffffffffffffffffffffffff8e1660048201526024810188905260448101839052606401610de1565b938101935b505b8173ffffffffffffffffffffffffffffffffffffffff168c73ffffffffffffffffffffffffffffffffffffffff167fddf252ad1be2c89b69c2b068fc378daa952ba7f163c4a11628f55a4df523b3ef836040516113df91815260200190565b60405180910390a3505060010161119e565b5081158015906114015750808214155b1561149257818303838110611468576040517fe450d38c00000000000000000000000000000000000000000000000000000000815273ffffffffffffffffffffffffffffffffffffffff8b1660048201526024810185905260448101849052606401610de1565b73ffffffffffffffffffffffffffffffffffffffff8a165f90815260208d90526040902090820190555b8973ffffffffffffffffffffffffffffffffffffffff168973ffffffffffffffffffffffffffffffffffffffff16146114d1576114d18b8a8c85611db8565b5050505050505050505050565b5f8061048a60017fc9ed16f33ab3a66c84bfd83099ccb2a8845871e2e1c1928f63797152f0fd54cd6134ed565b815473ffffffffffffffffffffffffffffffffffffffff828116911614610a85576040517f2ef4875e00000000000000000000000000000000000000000000000000000000815273ffffffffffffffffffffffffffffffffffffffff82166004820152602401610de1565b6040805173ffffffffffffffffffffffffffffffffffffffff8416602482015260448082018490528251808303909101815260649091019091526020810180517bffffffffffffffffffffffffffffffffffffffffffffffffffffffff167fa9059cbb00000000000000000000000000000000000000000000000000000000179052611603908490612912565b505050565b5f8061048a60017f93fe0ff7226b064a4a8f0b09910762afb4bc2441835792c021ffd78cd513011e6134ed565b8281811461166f576040517f6582533600000000000000000000000000000000000000000000000000000000815260040160405180910390fd5b805f0361167c5750610b7e565b73ffffffffffffffffffffffffffffffffffffffff86165f908152602088905260408120549080805b8481146118d7575f8989838181106116bf576116bf6134c0565b90506020020160208101906116d49190613100565b905073ffffffffffffffffffffffffffffffffffffffff811661173b576040517f754f425b00000000000000000000000000000000000000000000000000000000815273ffffffffffffffffffffffffffffffffffffffff8c166004820152602401610de1565b5f88888481811061174e5761174e6134c0565b905060200201359050805f146118665784810185811161179a576040517fdedd834100000000000000000000000000000000000000000000000000000000815260040160405180910390fd5b8095508273ffffffffffffffffffffffffffffffffffffffff168d73ffffffffffffffffffffffffffffffffffffffff16146117ff5773ffffffffffffffffffffffffffffffffffffffff83165f90815260208f905260409020805483019055611864565b8682111561185f576040517fe450d38c00000000000000000000000000000000000000000000000000000000815273ffffffffffffffffffffffffffffffffffffffff8e1660048201526024810188905260448101839052606401610de1565b938101935b505b8173ffffffffffffffffffffffffffffffffffffffff168c73ffffffffffffffffffffffffffffffffffffffff167fddf252ad1be2c89b69c2b068fc378daa952ba7f163c4a11628f55a4df523b3ef836040516118c591815260200190565b60405180910390a350506001016116a5565b5081158015906118e75750808214155b156119785781830383811061194e576040517fe450d38c00000000000000000000000000000000000000000000000000000000815273ffffffffffffffffffffffffffffffffffffffff8b1660048201526024810185905260448101849052606401610de1565b73ffffffffffffffffffffffffffffffffffffffff8a165f90815260208c90526040902090820190555b50505050505050505050565b6119b96119b260017f5b388d90dc1312ba799f321972f13311234fa1163bcabec7cf66101c4876eb846134ed565b6001612a1f565b610a858282612a6b565b5f6119cc610b86565b90506119fa817f36372b07000000000000000000000000000000000000000000000000000000006001612b20565b610ac6817f9d075186000000000000000000000000000000000000000000000000000000006001612b20565b611a5b7fc05327e6000000000000000000000000000000000000000000000000000000006001611a54610b86565b9190612b20565b565b611a5b7f53f41a97000000000000000000000000000000000000000000000000000000006001611a54610b86565b611ab96119b260017fd217496980d1cb14720b20a80af36676bbece8e5feeb5d8970a9681a2c76bb756134ed565b85611ac58587836135e8565b5060018601611ad58385836135e8565b506002860180547fffffffffffffffffffffffffffffffffffffffffffffffffffffffffffffff001660ff8316179055610b7e7fa219a025000000000000000000000000000000000000000000000000000000006001611a54610b86565b611a5b7f3c130d90000000000000000000000000000000000000000000000000000000006001611a54610b86565b611a5b7f9d8ff7da000000000000000000000000000000000000000000000000000000006001611a54610b86565b815181518114611bcb576040517f6582533600000000000000000000000000000000000000000000000000000000815260040160405180910390fd5b805f03611bd85750505050565b5f805b828114611d48575f858281518110611bf557611bf56134c0565b602002602001015190505f73ffffffffffffffffffffffffffffffffffffffff168173ffffffffffffffffffffffffffffffffffffffff1603611c64576040517f92fd9c8f00000000000000000000000000000000000000000000000000000000815260040160405180910390fd5b5f858381518110611c7757611c776134c0565b60200260200101519050805f14611cf157838101848111611cc4576040517f5542ae7c00000000000000000000000000000000000000000000000000000000815260040160405180910390fd5b73ffffffffffffffffffffffffffffffffffffffff83165f90815260208a90526040902080548301905593505b60405181815273ffffffffffffffffffffffffffffffffffffffff8316905f907fddf252ad1be2c89b69c2b068fc378daa952ba7f163c4a11628f55a4df523b3ef9060200160405180910390a35050600101611bdb565b508015610ea6576002850154818101818111611d9a576040517f0366a5f60000000000000000000000000000000000000000000000000000000081526004810183905260248101849052604401610de1565b6002870155505050505050565b6060816001018054610cc790613525565b73ffffffffffffffffffffffffffffffffffffffff8216611e1d576040517ff7e1ac0f00000000000000000000000000000000000000000000000000000000815273ffffffffffffffffffffffffffffffffffffffff84166004820152602401610de1565b73ffffffffffffffffffffffffffffffffffffffff8084165f9081526001860160209081526040808320938616835292905220547fffffffffffffffffffffffffffffffffffffffffffffffffffffffffffffffff8114801590611e8057508115155b156110935781810381811061105a576040517f137ad6ab00000000000000000000000000000000000000000000000000000000815273ffffffffffffffffffffffffffffffffffffffff8087166004830152851660248201526044810183905260648101849052608401610de1565b73ffffffffffffffffffffffffffffffffffffffff8216611f54576040517f754f425b00000000000000000000000000000000000000000000000000000000815273ffffffffffffffffffffffffffffffffffffffff84166004820152602401610de1565b801561204d5773ffffffffffffffffffffffffffffffffffffffff83165f90815260208590526040902054818103818110611fe1576040517fe450d38c00000000000000000000000000000000000000000000000000000000815273ffffffffffffffffffffffffffffffffffffffff861660048201526024810183905260448101849052606401610de1565b8373ffffffffffffffffffffffffffffffffffffffff168573ffffffffffffffffffffffffffffffffffffffff161461204a5773ffffffffffffffffffffffffffffffffffffffff8086165f908152602088905260408082208490559186168152208054840190555b50505b8173ffffffffffffffffffffffffffffffffffffffff168373ffffffffffffffffffffffffffffffffffffffff167fddf252ad1be2c89b69c2b068fc378daa952ba7f163c4a11628f55a4df523b3ef83604051610e4d91815260200190565b6120b98787878787610e5b565b73ffffffffffffffffffffffffffffffffffffffff84163b15610a0d57610a0d8686868686868080601f0160208091040260200160405190810160405280939291908181526020018383808284375f92019190915250612bfb92505050565b73ffffffffffffffffffffffffffffffffffffffff8716612165576040517fa974697600000000000000000000000000000000000000000000000000000000815260040160405180910390fd5b834211156121a2576040517fea2b6f5800000000000000000000000000000000000000000000000000000000815260048101859052602401610de1565b73ffffffffffffffffffffffffffffffffffffffff8781165f81815260208b8152604080832080546001810190915581517f6e71edae12b1b97f4d1f60370fef10105fa2faae0126114a169c64845d6126c98185015280830195909552948b166060850152608084018a905260a084019490945260c08084018990528451808503909101815260e09093019093528151919092012090612240610eb7565b6040517f19010000000000000000000000000000000000000000000000000000000000006020820152602281019190915260428101839052606201604080517fffffffffffffffffffffffffffffffffffffffffffffffffffffffffffffffe081840301815282825280516020918201205f80855291840180845281905260ff89169284019290925260608301879052608083018690529092509060019060a0016020604051602081039080840390855afa158015612301573d5f803e3d5ffd5b5050506020604051035190508973ffffffffffffffffffffffffffffffffffffffff168173ffffffffffffffffffffffffffffffffffffffff1614612372576040517f822a64c800000000000000000000000000000000000000000000000000000000815260040160405180910390fd5b5050506106c58787876104bd610d53565b8261238f8284836135e8565b50505050565b6123a186868686611eef565b73ffffffffffffffffffffffffffffffffffffffff84163b15610b7e57610b7e8586868686868080601f0160208091040260200160405190810160405280939291908181526020018383808284375f92019190915250612bfb92505050565b825473ffffffffffffffffffffffffffffffffffffffff908116908316811461246d576040517f2ef4875e00000000000000000000000000000000000000000000000000000000815273ffffffffffffffffffffffffffffffffffffffff84166004820152602401610de1565b8173ffffffffffffffffffffffffffffffffffffffff168173ffffffffffffffffffffffffffffffffffffffff161461238f5783547fffffffffffffffffffffffff00000000000000000000000000000000000000001673ffffffffffffffffffffffffffffffffffffffff8381169182178655604051908316907f8be0079c531659141344cd1fd0a4f28419497f9722a3daafe3b4186f6b6457e0905f90a350505050565b8047101561257d576040517f08c379a000000000000000000000000000000000000000000000000000000000815260206004820152601d60248201527f416464726573733a20696e73756666696369656e742062616c616e63650000006044820152606401610de1565b5f8273ffffffffffffffffffffffffffffffffffffffff16826040515f6040518083038185875af1925050503d805f81146125d3576040519150601f19603f3d011682016040523d82523d5f602084013e6125d8565b606091505b5050905080611603576040517f08c379a000000000000000000000000000000000000000000000000000000000815260206004820152603a60248201527f416464726573733a20756e61626c6520746f2073656e642076616c75652c207260448201527f6563697069656e74206d617920686176652072657665727465640000000000006064820152608401610de1565b5f333214806126785750601836105b1561268257503390565b7fffffffffffffffffffffffffffffffffffffffffffffffffffffffffffffffec36013560601c7f000000000000000000000000000000000000000000000000000000000000000073ffffffffffffffffffffffffffffffffffffffff1633148061279c57506040517f8929a8ca00000000000000000000000000000000000000000000000000000000815273ffffffffffffffffffffffffffffffffffffffff82811660048301523360248301527f00000000000000000000000000000000000000000000000000000000000000001690638929a8ca90604401602060405180830381865afa158015612778573d5f803e3d5ffd5b505050506040513d601f19601f8201168201806040525081019061279c91906136ff565b156127a657919050565b3391505090565b365f333214806127bd5750601836105b156127ca57505f91369150565b3373ffffffffffffffffffffffffffffffffffffffff7f00000000000000000000000000000000000000000000000000000000000000001614806128fd575073ffffffffffffffffffffffffffffffffffffffff7f000000000000000000000000000000000000000000000000000000000000000016638929a8ca367fffffffffffffffffffffffffffffffffffffffffffffffffffffffffffffffec013560601c6040517fffffffff0000000000000000000000000000000000000000000000000000000060e084901b16815273ffffffffffffffffffffffffffffffffffffffff9091166004820152336024820152604401602060405180830381865afa1580156128d9573d5f803e3d5ffd5b505050506040513d601f19601f820116820180604052508101906128fd91906136ff565b1561290a5761052b612d06565b505f91369150565b5f612973826040518060400160405280602081526020017f5361666545524332303a206c6f772d6c6576656c2063616c6c206661696c65648152508573ffffffffffffffffffffffffffffffffffffffff16612d369092919063ffffffff16565b905080515f148061299357508080602001905181019061299391906136ff565b611603576040517f08c379a000000000000000000000000000000000000000000000000000000000815260206004820152602a60248201527f5361666545524332303a204552433230206f7065726174696f6e20646964206e60448201527f6f742073756363656564000000000000000000000000000000000000000000006064820152608401610de1565b81548290828110612a66576040517fbf0c18ec0000000000000000000000000000000000000000000000000000000081526004810182905260248101849052604401610de1565b505550565b73ffffffffffffffffffffffffffffffffffffffff811615612af25781547fffffffffffffffffffffffff00000000000000000000000000000000000000001673ffffffffffffffffffffffffffffffffffffffff821690811783556040515f907f8be0079c531659141344cd1fd0a4f28419497f9722a3daafe3b4186f6b6457e0908290a35b610a857f7f5828d0000000000000000000000000000000000000000000000000000000006001611a54610b86565b7c01000000000000000000000000000000000000000000000000000000007fffffffff00000000000000000000000000000000000000000000000000000000831601612b98576040517f72c683bb00000000000000000000000000000000000000000000000000000000815260040160405180910390fd5b7fffffffff00000000000000000000000000000000000000000000000000000000919091165f908152602092909252604090912080547fffffffffffffffffffffffffffffffffffffffffffffffffffffffffffffff0016911515919091179055565b6040517f4fc35859000000000000000000000000000000000000000000000000000000008082529073ffffffffffffffffffffffffffffffffffffffff851690634fc3585990612c5590899089908890889060040161371e565b6020604051808303815f875af1158015612c71573d5f803e3d5ffd5b505050506040513d601f19601f82011682018060405250810190612c959190613766565b7fffffffff000000000000000000000000000000000000000000000000000000001614610ea6576040517f6d44973600000000000000000000000000000000000000000000000000000000815273ffffffffffffffffffffffffffffffffffffffff84166004820152602401610de1565b365f61052b7fffffffffffffffffffffffffffffffffffffffffffffffffffffffffffffffec8301828481613781565b606061070284845f85855f808673ffffffffffffffffffffffffffffffffffffffff168587604051612d6891906137a8565b5f6040518083038185875af1925050503d805f8114612da2576040519150601f19603f3d011682016040523d82523d5f602084013e612da7565b606091505b5091509150612db887838387612dc3565b979650505050505050565b60608315612e585782515f03612e515773ffffffffffffffffffffffffffffffffffffffff85163b612e51576040517f08c379a000000000000000000000000000000000000000000000000000000000815260206004820152601d60248201527f416464726573733a2063616c6c20746f206e6f6e2d636f6e74726163740000006044820152606401610de1565b5081610702565b6107028383815115612e6d5781518083602001fd5b806040517f08c379a0000000000000000000000000000000000000000000000000000000008152600401610de19190612f54565b7fffffffff0000000000000000000000000000000000000000000000000000000081168114610ac6575f80fd5b5f60208284031215612ede575f80fd5b8135610a5f81612ea1565b5f5b83811015612f03578181015183820152602001612eeb565b50505f910152565b5f8151808452612f22816020860160208601612ee9565b601f017fffffffffffffffffffffffffffffffffffffffffffffffffffffffffffffffe0169290920160200192915050565b602081525f610a5f6020830184612f0b565b73ffffffffffffffffffffffffffffffffffffffff81168114610ac6575f80fd5b5f8060408385031215612f98575f80fd5b8235612fa381612f66565b946020939093013593505050565b5f805f60608486031215612fc3575f80fd5b8335612fce81612f66565b92506020840135612fde81612f66565b929592945050506040919091013590565b60208152816020820152818360408301375f818301604090810191909152601f9092017fffffffffffffffffffffffffffffffffffffffffffffffffffffffffffffffe0160101919050565b5f8083601f84011261304b575f80fd5b50813567ffffffffffffffff811115613062575f80fd5b6020830191508360208260051b850101111561307c575f80fd5b9250929050565b5f805f805f60608688031215613097575f80fd5b85356130a281612f66565b9450602086013567ffffffffffffffff808211156130be575f80fd5b6130ca89838a0161303b565b909650945060408801359150808211156130e2575f80fd5b506130ef8882890161303b565b969995985093965092949392505050565b5f60208284031215613110575f80fd5b8135610a5f81612f66565b5f805f805f8060608789031215613130575f80fd5b863567ffffffffffffffff80821115613147575f80fd5b6131538a838b0161303b565b9098509650602089013591508082111561316b575f80fd5b6131778a838b0161303b565b9096509450604089013591508082111561318f575f80fd5b5061319c89828a0161303b565b979a9699509497509295939492505050565b5f805f80604085870312156131c1575f80fd5b843567ffffffffffffffff808211156131d8575f80fd5b6131e48883890161303b565b909650945060208701359150808211156131fc575f80fd5b506132098782880161303b565b95989497509550505050565b5f8083601f840112613225575f80fd5b50813567ffffffffffffffff81111561323c575f80fd5b60208301915083602082850101111561307c575f80fd5b803560ff81168114613263575f80fd5b919050565b5f805f805f805f805f60a08a8c031215613280575f80fd5b893567ffffffffffffffff80821115613297575f80fd5b6132a38d838e01613215565b909b50995060208c01359150808211156132bb575f80fd5b6132c78d838e01613215565b90995097508791506132db60408d01613253565b965060608c01359150808211156132f0575f80fd5b6132fc8d838e0161303b565b909650945060808c0135915080821115613314575f80fd5b506133218c828d0161303b565b915080935050809150509295985092959850929598565b5f805f805f6080868803121561334c575f80fd5b853561335781612f66565b9450602086013561336781612f66565b935060408601359250606086013567ffffffffffffffff811115613389575f80fd5b6130ef88828901613215565b5f805f805f805f60e0888a0312156133ab575f80fd5b87356133b681612f66565b965060208801356133c681612f66565b955060408801359450606088013593506133e260808901613253565b925060a0880135915060c0880135905092959891949750929550565b5f806040838503121561340f575f80fd5b823561341a81612f66565b9150602083013561342a81612f66565b809150509250929050565b5f8060208385031215613446575f80fd5b823567ffffffffffffffff81111561345c575f80fd5b61346885828601613215565b90969095509350505050565b5f805f8060608587031215613487575f80fd5b843561349281612f66565b935060208501359250604085013567ffffffffffffffff8111156134b4575f80fd5b61320987828801613215565b7f4e487b71000000000000000000000000000000000000000000000000000000005f52603260045260245ffd5b8181038181111561048a577f4e487b71000000000000000000000000000000000000000000000000000000005f52601160045260245ffd5b600181811c9082168061353957607f821691505b602082108103613570577f4e487b71000000000000000000000000000000000000000000000000000000005f52602260045260245ffd5b50919050565b7f4e487b71000000000000000000000000000000000000000000000000000000005f52604160045260245ffd5b601f821115611603575f81815260208120601f850160051c810160208610156135c95750805b601f850160051c820191505b81811015610b7e578281556001016135d5565b67ffffffffffffffff83111561360057613600613576565b6136148361360e8354613525565b836135a3565b5f601f841160018114613664575f851561362e5750838201355b7fffffffffffffffffffffffffffffffffffffffffffffffffffffffffffffffff600387901b1c1916600186901b178355610ea6565b5f838152602090207fffffffffffffffffffffffffffffffffffffffffffffffffffffffffffffffe0861690835b828110156136b25786850135825560209485019460019092019101613692565b50868210156136ed577fffffffffffffffffffffffffffffffffffffffffffffffffffffffffffffffff60f88860031b161c19848701351681555b505060018560011b0183555050505050565b5f6020828403121561370f575f80fd5b81518015158114610a5f575f80fd5b5f73ffffffffffffffffffffffffffffffffffffffff80871683528086166020840152508360408301526080606083015261375c6080830184612f0b565b9695505050505050565b5f60208284031215613776575f80fd5b8151610a5f81612ea1565b5f808585111561378f575f80fd5b8386111561379b575f80fd5b5050820193919092039150565b5f82516137b9818460208701612ee9565b919091019291505056fea2646970667358221220b992b19f294ca87108ba9940f8f269b5e5dc68b285188370c42837cc9654b97c64736f6c63430008150033",
  "linkReferences": {},
  "deployedLinkReferences": {}
}