{
  "_format": "hh-sol-artifact-1",
  "contractName": "ERC165Facet",
  "sourceName": "contracts/introspection/ERC165Facet.sol",
  "abi": [
    {
      "inputs": [],
      "name": "initInterfaceDetectionStorage",
      "outputs": [],
      "stateMutability": "nonpayable",
      "type": "function"
    },
    {
      "inputs": [
        {
          "internalType": "bytes4",
          "name": "interfaceId",
          "type": "bytes4"
        }
      ],
      "name": "supportsInterface",
      "outputs": [
        {
          "internalType": "bool",
          "name": "",
          "type": "bool"
        }
      ],
      "stateMutability": "view",
      "type": "function"
    }
  ],
  "bytecode": "0x608060405234801561001057600080fd5b50610e90806100206000396000f3fe608060405234801561001057600080fd5b50600436106100365760003560e01c806301ffc9a71461003b57806385297cdc1461006b575b600080fd5b61005560048036038101906100509190610c35565b610075565b6040516100629190610c7d565b60405180910390f35b61007361011c565b005b60006100a37ff8a50cb57dfbe5cd3087ac85b472f4e855947a0b492414ca3ed0d3ea9ce7678460001b61022b565b6100cf7f74f508077361b12f3b9081a81671a8b810d2013470fc5f93bc3703060f4b948060001b61022b565b6100fb7f51d3a827738b8595e3720ba2309d5148006e9b73b285f86aca1f5570723bb89260001b61022b565b6101158261010761022e565b61031e90919063ffffffff16565b9050919050565b6101487f33845364a77a830021fe8b16163ba3dc52a13db34d192d7c0fcf92ae7cd8fec660001b61040d565b6101747f5433c5a6686f8d199b849b2a21d90f9b43255c380fb96be9e0086f80d15166dc60001b61040d565b6101a07f272780ca1122a9a5be7bc31d6992bf86b34d4b0f6b11b4b66ec37f3c8413c31760001b61040d565b6101c16101ab610410565b6101b3610418565b61050890919063ffffffff16565b6101ed7f53e68f51bc3dab8ed8010def2e982df1cdd33b0125f9f775bdcaae91bc0a9b0460001b61040d565b6102197f9bc2eb7c59cbc766ab4f0ee748cb02156b8c12f107864ae3e86e30d67969d57b60001b61040d565b61022961022461022e565b61067a565b565b50565b600061025c7f33dac451eefd1a6808163eecf8d47d7cba5f56d00787de044ff0ddc2ee89447d60001b6107cc565b6102887f80b5daaa693fe30ccf9f1f19243499ce9fe4bada91264dd37e7099a713fc8c0360001b6107cc565b6102b47f66e2273229caef60ac0be45d070cc66ba1aaceeca2776bdf1fc50206d54f0f2260001b6107cc565b600060017f7180ffa89c91cf90d6c56dacabfc69bc5e36f3099d7eed2f5cc12c5dba016fe060001c6102e69190610cd1565b60001b90506103177f283bb7ffa148f4f77b397c4f3d35798bfd3f1214dd2b6c078e2824cd344247cc60001b6107cc565b8091505090565b600061034c7ff68de529962505f3d093bf9c43fad9167430b64756c71c5b05318be93a89528360001b6107cc565b6103787f5b3efc29f5fccb99b612e0281cedbf3b49bae6ffb452e10d5d3658b18b0e7f5760001b6107cc565b6103a47fcc4d3945ab61be60c39258bbdebab383f06bca561326ee57b4e10f10ad63938260001b6107cc565b826000016000837bffffffffffffffffffffffffffffffffffffffffffffffffffffffff19167bffffffffffffffffffffffffffffffffffffffffffffffffffffffff1916815260200190815260200160002060009054906101000a900460ff16905092915050565b50565b600033905090565b60006104467f29f8332165901d83adc683db950bfa7095446b76821902b9cad5a516e9f9f82660001b6107cf565b6104727f5c570bd87bb3a186c2c87ff3dd5f58d2c75a5776fe94e0a63fa851fe46a5fa6c60001b6107cf565b61049e7f405d85ac952971491b2260d550a90002555502250fb83d68df5efc35f77841ce60001b6107cf565b600060017fb53127684a568b3173ae13b9f8a6016e243e63b6e8ee1178d6a717850b5d610460001c6104d09190610cd1565b60001b90506105017f1d9ce065e06330dbac07abf26a98b6d505daa95772ac105ad61ed7479f8c2b1260001b6107cf565b8091505090565b6105347fbc11fd154e3161de2183b89db4eb967bb1b4cbab0325086fa95095436c11e72b60001b6107cf565b6105607f1815b032362e96a6d2f880b8f118c97fe36f9016e4d7dde560dc18768369a66d60001b6107cf565b61058c7f25f11631eb07cc17d412b02bd63f72577eb8df190f4046eb3478c12a4bb8ae6860001b6107cf565b6105b87ff4fb509d189314ad76c001fa3c672e032a121e16ca67380d998b64660c91044960001b6107cf565b8160000160009054906101000a900473ffffffffffffffffffffffffffffffffffffffff1673ffffffffffffffffffffffffffffffffffffffff168173ffffffffffffffffffffffffffffffffffffffff161461064a576040517f08c379a000000000000000000000000000000000000000000000000000000000815260040161064190610d62565b60405180910390fd5b6106767f059066040512573aa34012041b24446b05cb97113084d9f5307dec4a489aeed260001b6107cf565b5050565b6106a67f5200586752970e3ad0d6bfb86359724ccb5bbca672323dd1340f822383a3a78a60001b6107cc565b6106d27f21e408fec048d3ce80d29705163530f5314fc555a45fc9ed3eec40536ac1181b60001b6107cc565b6106fe7fdf39b92832ecc4113090a37ec124901cf4d2d8c7e6bd38a4644acf01b4acb95760001b6107cc565b61073b60017f947245cdabe12ef4c13574b38217b361de48f57dd2dc345f43703c79bac2873d60001c6107319190610cd1565b60001b60016107d2565b6107677fb775b727726cd7df9efcdd350b66fb2339470997ef5b7c30b825508f2ed6230060001b6107cc565b6107937fdba9d8a730f53aaaf88810c499da24a361a60fb181cfa11a5a79504d369b1bf360001b6107cc565b6107c97f01ffc9a7000000000000000000000000000000000000000000000000000000006001836109bf9092919063ffffffff16565b50565b50565b50565b6107fe7f523c5c55fa27c1465eb0ba13f6927ac81ca2e843dca5743a6ceafc60fd44a7a260001b610bcb565b61082a7f04772ea788fd843b127a602e9cfb0c6a91dd658dfc8c6564fb399afa5c8187c060001b610bcb565b6108567fcb69cb3c0f8a75e2c548a59a9a6f16480c220dc9611455e2f2a5ff64c19012f660001b610bcb565b600061086183610bce565b905061088f7f05454e9c8dc486b9dafcaafcc4a6b37e8e4a0bd10c5a957d6788a08d4705e74a60001b610bcb565b6108bb7f545be28ad664a45fbd66a4b1cf9af17e7b7fa1c0858756e55615423b09c10cf960001b610bcb565b6108e77f7b74d3cbf19e745235b98e2e533402f6fea14c7950d83932d7459f8c0776ae7560001b610bcb565b8181600001541061092d576040517f08c379a000000000000000000000000000000000000000000000000000000000815260040161092490610dce565b60405180910390fd5b6109597fb77e179c39cd483a2fb9d49c9d6baaf337e679c6fc0b0193351b78700052fb6060001b610bcb565b6109857f73251853a52f4546290b9dbdb4820ad06a75d361304d051af620ac9db846f98760001b610bcb565b6109b17f8670f345bbc08bb652aae01676abdbb142983e1527aecdd350c544d4ac9aa25360001b610bcb565b818160000181905550505050565b6109eb7ffeeaaad6b1efab2833cc700d80f740603a4ac6746f8e38068c950d299cc199bf60001b6107cc565b610a177f3ca2cb9a9b6e35728cedd7c19d4c121988341387931213a51eab1b4bbaf4113560001b6107cc565b610a437f1f9cdb98c65d0ad87aac43319c2670926bcb7c14904c7f9d4ade6235d82de71960001b6107cc565b610a6f7f5dbdac164f3e02893e8f90adfbe776f3f50c85847d234ab6fb16b0a4846759d760001b6107cc565b63ffffffff60e01b827bffffffffffffffffffffffffffffffffffffffffffffffffffffffff191603610ad7576040517f08c379a0000000000000000000000000000000000000000000000000000000008152600401610ace90610e3a565b60405180910390fd5b610b037fd6b36b8472d324009615e496388c108ffb1831ab3bd7bded72d29ac4baf2ad1e60001b6107cc565b610b2f7f7b2218cefa5bbb0f0239126c55783358df88ffab00f11d9c8f8e38985d9a8c9860001b6107cc565b610b5b7f2ad1063a0d34755f3bea24bcd3cfaff3dbbf63fbfa3f9b4c9c252fdffa66ed3360001b6107cc565b80836000016000847bffffffffffffffffffffffffffffffffffffffffffffffffffffffff19167bffffffffffffffffffffffffffffffffffffffffffffffffffffffff1916815260200190815260200160002060006101000a81548160ff021916908315150217905550505050565b50565b6000819050919050565b600080fd5b60007fffffffff0000000000000000000000000000000000000000000000000000000082169050919050565b610c1281610bdd565b8114610c1d57600080fd5b50565b600081359050610c2f81610c09565b92915050565b600060208284031215610c4b57610c4a610bd8565b5b6000610c5984828501610c20565b91505092915050565b60008115159050919050565b610c7781610c62565b82525050565b6000602082019050610c926000830184610c6e565b92915050565b6000819050919050565b7f4e487b7100000000000000000000000000000000000000000000000000000000600052601160045260246000fd5b6000610cdc82610c98565b9150610ce783610c98565b925082821015610cfa57610cf9610ca2565b5b828203905092915050565b600082825260208201905092915050565b7f50726f787941646d696e3a206e6f74207468652061646d696e00000000000000600082015250565b6000610d4c601983610d05565b9150610d5782610d16565b602082019050919050565b60006020820190508181036000830152610d7b81610d3f565b9050919050565b7f53746f726167653a2076657273696f6e20726561636865640000000000000000600082015250565b6000610db8601883610d05565b9150610dc382610d82565b602082019050919050565b60006020820190508181036000830152610de781610dab565b9050919050565b7f496e74657266616365446574656374696f6e3a2077726f6e672076616c756500600082015250565b6000610e24601f83610d05565b9150610e2f82610dee565b602082019050919050565b60006020820190508181036000830152610e5381610e17565b905091905056fea264697066735822122096cf70e97bfb160b61636bf1c23c9241b176d577b495dac203b017e25a9815c964736f6c634300080d0033",
  "linkReferences": {},
  "deployedLinkReferences": {}
}