{
  "_format": "hh-sol-artifact-1",
  "contractName": "ERC165Facet",
  "sourceName": "contracts/introspection/ERC165Facet.sol",
  "abi": [
    {
      "inputs": [
        {
          "internalType": "contract IForwarderRegistry",
          "name": "forwarderRegistry",
          "type": "address"
        }
      ],
      "stateMutability": "nonpayable",
      "type": "constructor"
    },
    {
      "inputs": [],
      "name": "initInterfaceDetectionStorage",
      "outputs": [],
      "stateMutability": "nonpayable",
      "type": "function"
    },
    {
      "inputs": [
        {
          "internalType": "bytes4",
          "name": "interfaceId",
          "type": "bytes4"
        }
      ],
      "name": "supportsInterface",
      "outputs": [
        {
          "internalType": "bool",
          "name": "",
          "type": "bool"
        }
      ],
      "stateMutability": "view",
      "type": "function"
    }
  ],
  "bytecode": "0x60a060405234801561001057600080fd5b5060405161065938038061065983398101604081905261002f91610040565b6001600160a01b0316608052610070565b60006020828403121561005257600080fd5b81516001600160a01b038116811461006957600080fd5b9392505050565b6080516105c76100926000396000818161014e01526101ee01526105c76000f3fe608060405234801561001057600080fd5b50600436106100365760003560e01c806301ffc9a71461003b57806385297cdc14610062575b600080fd5b61004e6100493660046104e8565b61006c565b604051901515815260200160405180910390f35b61006a6100b9565b005b60006100b38261007a6100e4565b907fffffffff00000000000000000000000000000000000000000000000000000000166000908152602091909152604090205460ff1690565b92915050565b6100d26100c4610112565b6100cc61026a565b90610298565b6100e26100dd6100e4565b610324565b565b6000806100b360017f7180ffa89c91cf90d6c56dacabfc69bc5e36f3099d7eed2f5cc12c5dba016fe0610531565b60003332810361012157919050565b6000367fffffffffffffffffffffffffffffffffffffffffffffffffffffffffffffffec013560601c90507f000000000000000000000000000000000000000000000000000000000000000073ffffffffffffffffffffffffffffffffffffffff168273ffffffffffffffffffffffffffffffffffffffff16148061025957506040517fe60125d600000000000000000000000000000000000000000000000000000000815273ffffffffffffffffffffffffffffffffffffffff828116600483015283811660248301527f0000000000000000000000000000000000000000000000000000000000000000169063e60125d690604401602060405180830381865afa158015610235573d6000803e3d6000fd5b505050506040513d601f19601f82011682018060405250810190610259919061056f565b156102645792915050565b50919050565b6000806100b360017fb53127684a568b3173ae13b9f8a6016e243e63b6e8ee1178d6a717850b5d6104610531565b815473ffffffffffffffffffffffffffffffffffffffff828116911614610320576040517f08c379a000000000000000000000000000000000000000000000000000000000815260206004820152601960248201527f50726f787941646d696e3a206e6f74207468652061646d696e0000000000000060448201526064015b60405180910390fd5b5050565b61035961035260017f947245cdabe12ef4c13574b38217b361de48f57dd2dc345f43703c79bac2873d610531565b6001610388565b610385817f01ffc9a70000000000000000000000000000000000000000000000000000000060016103f8565b50565b8154829082116103f4576040517f08c379a000000000000000000000000000000000000000000000000000000000815260206004820152601860248201527f53746f726167653a2076657273696f6e207265616368656400000000000000006044820152606401610317565b5550565b7fffffffff000000000000000000000000000000000000000000000000000000008083169003610484576040517f08c379a000000000000000000000000000000000000000000000000000000000815260206004820152601f60248201527f496e74657266616365446574656374696f6e3a2077726f6e672076616c7565006044820152606401610317565b7fffffffff00000000000000000000000000000000000000000000000000000000919091166000908152602092909252604090912080547fffffffffffffffffffffffffffffffffffffffffffffffffffffffffffffff0016911515919091179055565b6000602082840312156104fa57600080fd5b81357fffffffff000000000000000000000000000000000000000000000000000000008116811461052a57600080fd5b9392505050565b60008282101561056a577f4e487b7100000000000000000000000000000000000000000000000000000000600052601160045260246000fd5b500390565b60006020828403121561058157600080fd5b8151801515811461052a57600080fdfea2646970667358221220e028835184403c1ff46600efa6f8d313e506e446723fb63d98a0e9b2aca1345b64736f6c634300080d0033",
  "linkReferences": {},
  "deployedLinkReferences": {}
}