{
  "_format": "hh-sol-artifact-1",
  "contractName": "ERC20StakingERC20RewardsLinearPoolMock",
  "sourceName": "contracts/mocks/staking/linear/ERC20StakingERC20RewardsLinearPoolMock.sol",
  "abi": [
    {
      "inputs": [
        {
          "internalType": "contract IERC20",
          "name": "stakingToken",
          "type": "address"
        },
        {
          "internalType": "contract IERC20",
          "name": "rewardToken",
          "type": "address"
        },
        {
          "internalType": "address",
          "name": "rewardHolder",
          "type": "address"
        },
        {
          "internalType": "contract IForwarderRegistry",
          "name": "forwarderRegistry",
          "type": "address"
        }
      ],
      "stateMutability": "nonpayable",
      "type": "constructor"
    },
    {
      "inputs": [],
      "name": "IllegalInterfaceId",
      "type": "error"
    },
    {
      "inputs": [],
      "name": "InvalidDuration",
      "type": "error"
    },
    {
      "inputs": [],
      "name": "InvalidRewardAmount",
      "type": "error"
    },
    {
      "inputs": [],
      "name": "InvalidStakeAmount",
      "type": "error"
    },
    {
      "inputs": [],
      "name": "InvalidToken",
      "type": "error"
    },
    {
      "inputs": [],
      "name": "InvalidWithdrawAmount",
      "type": "error"
    },
    {
      "inputs": [
        {
          "internalType": "address",
          "name": "account",
          "type": "address"
        }
      ],
      "name": "NotContractOwner",
      "type": "error"
    },
    {
      "inputs": [
        {
          "internalType": "address",
          "name": "staker",
          "type": "address"
        },
        {
          "internalType": "uint256",
          "name": "stake",
          "type": "uint256"
        },
        {
          "internalType": "uint256",
          "name": "withdraw",
          "type": "uint256"
        }
      ],
      "name": "NotEnoughStake",
      "type": "error"
    },
    {
      "inputs": [
        {
          "internalType": "bytes32",
          "name": "role",
          "type": "bytes32"
        },
        {
          "internalType": "address",
          "name": "account",
          "type": "address"
        }
      ],
      "name": "NotRoleHolder",
      "type": "error"
    },
    {
      "inputs": [],
      "name": "ReentrancyGuardReentrantCall",
      "type": "error"
    },
    {
      "inputs": [
        {
          "internalType": "uint256",
          "name": "reward",
          "type": "uint256"
        },
        {
          "internalType": "uint256",
          "name": "duration",
          "type": "uint256"
        }
      ],
      "name": "RewardTooSmallForDuration",
      "type": "error"
    },
    {
      "inputs": [
        {
          "internalType": "address",
          "name": "token",
          "type": "address"
        }
      ],
      "name": "SafeERC20FailedOperation",
      "type": "error"
    },
    {
      "anonymous": false,
      "inputs": [
        {
          "indexed": true,
          "internalType": "address",
          "name": "staker",
          "type": "address"
        },
        {
          "indexed": false,
          "internalType": "bytes",
          "name": "claimData",
          "type": "bytes"
        },
        {
          "indexed": false,
          "internalType": "uint256",
          "name": "reward",
          "type": "uint256"
        }
      ],
      "name": "Claimed",
      "type": "event"
    },
    {
      "anonymous": false,
      "inputs": [
        {
          "indexed": true,
          "internalType": "address",
          "name": "previousOwner",
          "type": "address"
        },
        {
          "indexed": true,
          "internalType": "address",
          "name": "newOwner",
          "type": "address"
        }
      ],
      "name": "OwnershipTransferred",
      "type": "event"
    },
    {
      "anonymous": false,
      "inputs": [
        {
          "indexed": true,
          "internalType": "address",
          "name": "rewarder",
          "type": "address"
        },
        {
          "indexed": false,
          "internalType": "uint256",
          "name": "reward",
          "type": "uint256"
        },
        {
          "indexed": false,
          "internalType": "uint256",
          "name": "duration",
          "type": "uint256"
        },
        {
          "indexed": false,
          "internalType": "uint256",
          "name": "dust",
          "type": "uint256"
        }
      ],
      "name": "RewardAdded",
      "type": "event"
    },
    {
      "anonymous": false,
      "inputs": [
        {
          "indexed": true,
          "internalType": "address",
          "name": "rewardHolder",
          "type": "address"
        }
      ],
      "name": "RewardHolderSet",
      "type": "event"
    },
    {
      "anonymous": false,
      "inputs": [
        {
          "indexed": false,
          "internalType": "bytes32",
          "name": "role",
          "type": "bytes32"
        },
        {
          "indexed": false,
          "internalType": "address",
          "name": "account",
          "type": "address"
        },
        {
          "indexed": false,
          "internalType": "address",
          "name": "operator",
          "type": "address"
        }
      ],
      "name": "RoleGranted",
      "type": "event"
    },
    {
      "anonymous": false,
      "inputs": [
        {
          "indexed": false,
          "internalType": "bytes32",
          "name": "role",
          "type": "bytes32"
        },
        {
          "indexed": false,
          "internalType": "address",
          "name": "account",
          "type": "address"
        },
        {
          "indexed": false,
          "internalType": "address",
          "name": "operator",
          "type": "address"
        }
      ],
      "name": "RoleRevoked",
      "type": "event"
    },
    {
      "anonymous": false,
      "inputs": [
        {
          "indexed": true,
          "internalType": "address",
          "name": "staker",
          "type": "address"
        },
        {
          "indexed": false,
          "internalType": "bytes",
          "name": "stakeData",
          "type": "bytes"
        },
        {
          "indexed": false,
          "internalType": "uint256",
          "name": "stakePoints",
          "type": "uint256"
        }
      ],
      "name": "Staked",
      "type": "event"
    },
    {
      "anonymous": false,
      "inputs": [
        {
          "indexed": true,
          "internalType": "address",
          "name": "staker",
          "type": "address"
        },
        {
          "indexed": false,
          "internalType": "bytes",
          "name": "withdrawData",
          "type": "bytes"
        },
        {
          "indexed": false,
          "internalType": "uint256",
          "name": "stakePoints",
          "type": "uint256"
        }
      ],
      "name": "Withdrawn",
      "type": "event"
    },
    {
      "inputs": [],
      "name": "REWARDER_ROLE",
      "outputs": [
        {
          "internalType": "bytes32",
          "name": "",
          "type": "bytes32"
        }
      ],
      "stateMutability": "view",
      "type": "function"
    },
    {
      "inputs": [],
      "name": "REWARD_TOKEN",
      "outputs": [
        {
          "internalType": "contract IERC20",
          "name": "",
          "type": "address"
        }
      ],
      "stateMutability": "view",
      "type": "function"
    },
    {
      "inputs": [],
      "name": "SCALING_FACTOR",
      "outputs": [
        {
          "internalType": "uint256",
          "name": "",
          "type": "uint256"
        }
      ],
      "stateMutability": "view",
      "type": "function"
    },
    {
      "inputs": [],
      "name": "STAKING_TOKEN",
      "outputs": [
        {
          "internalType": "contract IERC20",
          "name": "",
          "type": "address"
        }
      ],
      "stateMutability": "view",
      "type": "function"
    },
    {
      "inputs": [],
      "name": "__msgData",
      "outputs": [
        {
          "internalType": "bytes",
          "name": "",
          "type": "bytes"
        }
      ],
      "stateMutability": "view",
      "type": "function"
    },
    {
      "inputs": [
        {
          "internalType": "uint256",
          "name": "reward",
          "type": "uint256"
        },
        {
          "internalType": "uint256",
          "name": "duration",
          "type": "uint256"
        }
      ],
      "name": "addReward",
      "outputs": [],
      "stateMutability": "payable",
      "type": "function"
    },
    {
      "inputs": [],
      "name": "claim",
      "outputs": [],
      "stateMutability": "nonpayable",
      "type": "function"
    },
    {
      "inputs": [],
      "name": "distributionEnd",
      "outputs": [
        {
          "internalType": "uint256",
          "name": "",
          "type": "uint256"
        }
      ],
      "stateMutability": "view",
      "type": "function"
    },
    {
      "inputs": [
        {
          "internalType": "address",
          "name": "account",
          "type": "address"
        }
      ],
      "name": "earned",
      "outputs": [
        {
          "internalType": "uint256",
          "name": "",
          "type": "uint256"
        }
      ],
      "stateMutability": "view",
      "type": "function"
    },
    {
      "inputs": [],
      "name": "forwarderRegistry",
      "outputs": [
        {
          "internalType": "contract IForwarderRegistry",
          "name": "",
          "type": "address"
        }
      ],
      "stateMutability": "view",
      "type": "function"
    },
    {
      "inputs": [
        {
          "internalType": "bytes32",
          "name": "role",
          "type": "bytes32"
        },
        {
          "internalType": "address",
          "name": "account",
          "type": "address"
        }
      ],
      "name": "grantRole",
      "outputs": [],
      "stateMutability": "nonpayable",
      "type": "function"
    },
    {
      "inputs": [
        {
          "internalType": "bytes32",
          "name": "role",
          "type": "bytes32"
        },
        {
          "internalType": "address",
          "name": "account",
          "type": "address"
        }
      ],
      "name": "hasRole",
      "outputs": [
        {
          "internalType": "bool",
          "name": "hasRole_",
          "type": "bool"
        }
      ],
      "stateMutability": "view",
      "type": "function"
    },
    {
      "inputs": [
        {
          "internalType": "address",
          "name": "forwarder",
          "type": "address"
        }
      ],
      "name": "isTrustedForwarder",
      "outputs": [
        {
          "internalType": "bool",
          "name": "",
          "type": "bool"
        }
      ],
      "stateMutability": "view",
      "type": "function"
    },
    {
      "inputs": [],
      "name": "lastTimeRewardApplicable",
      "outputs": [
        {
          "internalType": "uint256",
          "name": "",
          "type": "uint256"
        }
      ],
      "stateMutability": "view",
      "type": "function"
    },
    {
      "inputs": [],
      "name": "lastUpdated",
      "outputs": [
        {
          "internalType": "uint256",
          "name": "",
          "type": "uint256"
        }
      ],
      "stateMutability": "view",
      "type": "function"
    },
    {
      "inputs": [
        {
          "internalType": "address",
          "name": "",
          "type": "address"
        },
        {
          "internalType": "address",
          "name": "from",
          "type": "address"
        },
        {
          "internalType": "uint256",
          "name": "value",
          "type": "uint256"
        },
        {
          "internalType": "bytes",
          "name": "",
          "type": "bytes"
        }
      ],
      "name": "onERC20Received",
      "outputs": [
        {
          "internalType": "bytes4",
          "name": "",
          "type": "bytes4"
        }
      ],
      "stateMutability": "nonpayable",
      "type": "function"
    },
    {
      "inputs": [],
      "name": "owner",
      "outputs": [
        {
          "internalType": "address",
          "name": "",
          "type": "address"
        }
      ],
      "stateMutability": "view",
      "type": "function"
    },
    {
      "inputs": [
        {
          "internalType": "bytes32",
          "name": "role",
          "type": "bytes32"
        }
      ],
      "name": "renounceRole",
      "outputs": [],
      "stateMutability": "nonpayable",
      "type": "function"
    },
    {
      "inputs": [
        {
          "internalType": "bytes32",
          "name": "role",
          "type": "bytes32"
        },
        {
          "internalType": "address",
          "name": "account",
          "type": "address"
        }
      ],
      "name": "revokeRole",
      "outputs": [],
      "stateMutability": "nonpayable",
      "type": "function"
    },
    {
      "inputs": [],
      "name": "rewardHolder",
      "outputs": [
        {
          "internalType": "address",
          "name": "",
          "type": "address"
        }
      ],
      "stateMutability": "view",
      "type": "function"
    },
    {
      "inputs": [],
      "name": "rewardPerStakePoint",
      "outputs": [
        {
          "internalType": "uint256",
          "name": "",
          "type": "uint256"
        }
      ],
      "stateMutability": "view",
      "type": "function"
    },
    {
      "inputs": [
        {
          "internalType": "address",
          "name": "staker",
          "type": "address"
        }
      ],
      "name": "rewardPerStakePointPaid",
      "outputs": [
        {
          "internalType": "uint256",
          "name": "paid",
          "type": "uint256"
        }
      ],
      "stateMutability": "view",
      "type": "function"
    },
    {
      "inputs": [],
      "name": "rewardPerStakePointStored",
      "outputs": [
        {
          "internalType": "uint256",
          "name": "",
          "type": "uint256"
        }
      ],
      "stateMutability": "view",
      "type": "function"
    },
    {
      "inputs": [],
      "name": "rewardRate",
      "outputs": [
        {
          "internalType": "uint256",
          "name": "",
          "type": "uint256"
        }
      ],
      "stateMutability": "view",
      "type": "function"
    },
    {
      "inputs": [
        {
          "internalType": "address",
          "name": "staker",
          "type": "address"
        }
      ],
      "name": "rewards",
      "outputs": [
        {
          "internalType": "uint256",
          "name": "reward",
          "type": "uint256"
        }
      ],
      "stateMutability": "view",
      "type": "function"
    },
    {
      "inputs": [
        {
          "internalType": "address",
          "name": "rewardHolder_",
          "type": "address"
        }
      ],
      "name": "setRewardHolder",
      "outputs": [],
      "stateMutability": "nonpayable",
      "type": "function"
    },
    {
      "inputs": [
        {
          "internalType": "bytes",
          "name": "stakeData",
          "type": "bytes"
        }
      ],
      "name": "stake",
      "outputs": [],
      "stateMutability": "payable",
      "type": "function"
    },
    {
      "inputs": [
        {
          "internalType": "address",
          "name": "staker",
          "type": "address"
        }
      ],
      "name": "staked",
      "outputs": [
        {
          "internalType": "uint256",
          "name": "stakePoints",
          "type": "uint256"
        }
      ],
      "stateMutability": "view",
      "type": "function"
    },
    {
      "inputs": [
        {
          "internalType": "bytes4",
          "name": "interfaceId",
          "type": "bytes4"
        }
      ],
      "name": "supportsInterface",
      "outputs": [
        {
          "internalType": "bool",
          "name": "",
          "type": "bool"
        }
      ],
      "stateMutability": "view",
      "type": "function"
    },
    {
      "inputs": [],
      "name": "totalStaked",
      "outputs": [
        {
          "internalType": "uint256",
          "name": "",
          "type": "uint256"
        }
      ],
      "stateMutability": "view",
      "type": "function"
    },
    {
      "inputs": [
        {
          "internalType": "address",
          "name": "newOwner",
          "type": "address"
        }
      ],
      "name": "transferOwnership",
      "outputs": [],
      "stateMutability": "nonpayable",
      "type": "function"
    },
    {
      "inputs": [
        {
          "internalType": "bytes",
          "name": "withdrawData",
          "type": "bytes"
        }
      ],
      "name": "withdraw",
      "outputs": [],
      "stateMutability": "nonpayable",
      "type": "function"
    }
  ],
  "bytecode": "0x60e060405234801561001057600080fd5b506040516125d43803806125d483398101604081905261002f91610221565b8282858380808033610049816100436100dc565b90610110565b50600160008190556001600160a01b0390911660805261007d9250634fc3585960e01b915061007661017f565b91906101ad565b506001600160a01b0390811660a05282811660c052600980546001600160a01b03191691831691821790556040517f92c047df6e363693ec05d0bd21ac0dbc9951c94b023c16966a58dd78f0e27d2990600090a25050505050506102a1565b60008061010a60017fc9ed16f33ab3a66c84bfd83099ccb2a8845871e2e1c1928f63797152f0fd54cd610280565b92915050565b6001600160a01b038116156101665781546001600160a01b0319166001600160a01b03821690811783556040516000907f8be0079c531659141344cd1fd0a4f28419497f9722a3daafe3b4186f6b6457e0908290a35b61017b6307f5828d60e41b600161007661017f565b5050565b60008061010a60017fca9d3e17f264b0f3984e2634e94adb37fa3e6a8103f06aeae6fa59e21c769f5e610280565b600160e01b6001600160e01b03198316016101db576040516372c683bb60e01b815260040160405180910390fd5b6001600160e01b03199190911660009081526020929092526040909120805460ff1916911515919091179055565b6001600160a01b038116811461021e57600080fd5b50565b6000806000806080858703121561023757600080fd5b845161024281610209565b602086015190945061025381610209565b604086015190935061026481610209565b606086015190925061027581610209565b939692955090935050565b8181038181111561010a57634e487b7160e01b600052601160045260246000fd5b60805160a05160c0516122c561030f600039600081816105b9015261188b01526000818161025c015281816109510152818161177201526117ec01526000818161030101528181610440015281816118f80152818161198601528181611b000152611b3e01526122c56000f3fe6080604052600436106101e25760003560e01c80637b0a47ee1161010257806399248ea711610095578063d547741f11610064578063d547741f14610634578063ef4cadc514610654578063efa90b5414610670578063f2fde38b1461068657600080fd5b806399248ea7146105a75780639d696e36146105db578063c5c8f770146105f1578063d0b06f5d1461061e57600080fd5b80638bb9c5bf116100d15780638bb9c5bf146105255780638da5cb5b1461054557806391d148541461055a57806398807d841461057a57600080fd5b80637b0a47ee146104b057806380faa57d146104c6578063817b1cd2146104db5780638580cf76146104f157600080fd5b80632f2ff15d1161017a578063569c93d211610149578063569c93d2146103f6578063572b6c05146104235780636806cc931461047d57806375c93bb91461049d57600080fd5b80632f2ff15d1461034d57806331e66e1e1461036d5780634e71d92d146103905780634fc35859146103a557600080fd5b80630968f264116101b65780630968f264146102d05780632b4c9f16146102f25780632c9d0b80146103255780632d1e0c021461033a57600080fd5b80628cc262146101e757806301ffc9a71461021a5780630479d6441461024a5780630700037d146102a3575b600080fd5b3480156101f357600080fd5b50610207610202366004611d37565b6106a6565b6040519081526020015b60405180910390f35b34801561022657600080fd5b5061023a610235366004611d52565b61073d565b6040519015158152602001610211565b34801561025657600080fd5b5061027e7f000000000000000000000000000000000000000000000000000000000000000081565b60405173ffffffffffffffffffffffffffffffffffffffff9091168152602001610211565b3480156102af57600080fd5b506102076102be366004611d37565b60076020526000908152604090205481565b3480156102dc57600080fd5b506102f06102eb366004611ddd565b610751565b005b3480156102fe57600080fd5b507f000000000000000000000000000000000000000000000000000000000000000061027e565b34801561033157600080fd5b5061020761079c565b6102f0610348366004611ddd565b610804565b34801561035957600080fd5b506102f0610368366004611e1f565b61083f565b34801561037957600080fd5b50610382610873565b604051610211929190611e94565b34801561039c57600080fd5b506102f0610886565b3480156103b157600080fd5b506103c56103c0366004611eb0565b610937565b6040517fffffffff000000000000000000000000000000000000000000000000000000009091168152602001610211565b34801561040257600080fd5b5060095461027e9073ffffffffffffffffffffffffffffffffffffffff1681565b34801561042f57600080fd5b5061023a61043e366004611d37565b7f000000000000000000000000000000000000000000000000000000000000000073ffffffffffffffffffffffffffffffffffffffff90811691161490565b34801561048957600080fd5b506102f0610498366004611d37565b610a2a565b6102f06104ab366004611f1f565b610acf565b3480156104bc57600080fd5b5061020760035481565b3480156104d257600080fd5b50610207610da9565b3480156104e757600080fd5b5061020760015481565b3480156104fd57600080fd5b506102077f726577617264657200000000000000000000000000000000000000000000000081565b34801561053157600080fd5b506102f0610540366004611f41565b610dc3565b34801561055157600080fd5b5061027e610dde565b34801561056657600080fd5b5061023a610575366004611e1f565b610e0a565b34801561058657600080fd5b50610207610595366004611d37565b60066020526000908152604090205481565b3480156105b357600080fd5b5061027e7f000000000000000000000000000000000000000000000000000000000000000081565b3480156105e757600080fd5b5061020760045481565b3480156105fd57600080fd5b5061020761060c366004611d37565b60086020526000908152604090205481565b34801561062a57600080fd5b5061020760025481565b34801561064057600080fd5b506102f061064f366004611e1f565b610e55565b34801561066057600080fd5b50610207670de0b6b3a764000081565b34801561067c57600080fd5b5061020760055481565b34801561069257600080fd5b506102f06106a1366004611d37565b610e83565b73ffffffffffffffffffffffffffffffffffffffff81166000908152600760209081526040808320546008909252822054670de0b6b3a7640000906106e961079c565b6106f39190611f89565b73ffffffffffffffffffffffffffffffffffffffff85166000908152600660205260409020546107239190611f9c565b61072d9190611fe2565b6107379190611ff6565b92915050565b60006107378261074b610e9e565b90610ecc565b61079861075c610fa6565b83838080601f016020809104026020016040519081016040528093929190818152602001838380828437600092019190915250610fb092505050565b5050565b6001546000908082036107b157505060045490565b80670de0b6b3a76400006003546002546107c9610da9565b6107d39190611f89565b6107dd9190611f9c565b6107e79190611f9c565b6107f19190611fe2565b6004546107fe9190611ff6565b91505090565b600161083a610811610fa6565b82858560405160200161082693929190612009565b6040516020818303038152906040526110ff565b505050565b6000610849610fa6565b905061085d816108576111eb565b90611219565b61083a83838361086b611284565b9291906112b2565b36600061087e611389565b915091509091565b6000610890610fa6565b905061089b81611394565b60006108a6826106a6565b905080156107985773ffffffffffffffffffffffffffffffffffffffff821660009081526007602052604081208190556108e08383611422565b90508273ffffffffffffffffffffffffffffffffffffffff167f4196decb55b5644a278b6ded1c42a27acb5182aa099b1fd48974bcc0cf263fd5828460405161092a92919061209c565b60405180910390a2505050565b60003373ffffffffffffffffffffffffffffffffffffffff7f000000000000000000000000000000000000000000000000000000000000000016146109a8576040517fc1ab6dc100000000000000000000000000000000000000000000000000000000815260040160405180910390fd5b60006109fe8682876040516020016109c291815260200190565b604080517fffffffffffffffffffffffffffffffffffffffffffffffffffffffffffffffe08184030181529082905261082692916020016120be565b507f4fc35859000000000000000000000000000000000000000000000000000000009695505050505050565b610a3d610a35610fa6565b6108576111eb565b60095473ffffffffffffffffffffffffffffffffffffffff828116911614610acc57600980547fffffffffffffffffffffffff00000000000000000000000000000000000000001673ffffffffffffffffffffffffffffffffffffffff83169081179091556040517f92c047df6e363693ec05d0bd21ac0dbc9951c94b023c16966a58dd78f0e27d2990600090a25b50565b6000610ad9610fa6565b9050610b0f7f726577617264657200000000000000000000000000000000000000000000000082610b08611284565b919061142e565b82600003610b49576040517f3853986500000000000000000000000000000000000000000000000000000000815260040160405180910390fd5b81600003610b83576040517f7616640100000000000000000000000000000000000000000000000000000000815260040160405180910390fd5b610b8d6000611394565b60055460009081610b9e8542611ff6565b9050814210610c1b576000610bb38688611fe2565b9050868682610bfc576040517f99e66a49000000000000000000000000000000000000000000000000000000008152600481019290925260248201526044015b60405180910390fd5b50506003819055610c0d86886120d9565b60058390559350610d449050565b818111610caa57610c2c4283611f89565b94506000610c3a8688611fe2565b9050868682610c7e576040517f99e66a4900000000000000000000000000000000000000000000000000000000815260048101929092526024820152604401610bf3565b50508060036000828254610c929190611ff6565b90915550610ca2905086886120d9565b935050610d44565b610cb48587611fe2565b86908690610cf7576040517f99e66a4900000000000000000000000000000000000000000000000000000000815260048101929092526024820152604401610bf3565b5060009050610d064284611f89565b600354610d139190611f9c565b90506000610d218883611ff6565b9050610d2d8782611fe2565b600355610d3a87826120d9565b6005849055945050505b42600255604080518781526020810187905290810184905273ffffffffffffffffffffffffffffffffffffffff8516907f0727302becd070529b3293f4ec8f553d9f6ae1773f638598db1205fbf89080839060600160405180910390a2505050505050565b600554600090428111610dbc57806107fe565b4291505090565b610acc610dce610fa6565b82610dd7611284565b91906114b4565b6000610e05610deb6111eb565b5473ffffffffffffffffffffffffffffffffffffffff1690565b905090565b6000610e4e8383610e19611284565b60009283526020908152604080842073ffffffffffffffffffffffffffffffffffffffff909316845291905290205460ff1690565b9392505050565b6000610e5f610fa6565b9050610e6d816108576111eb565b61083a838383610e7b611284565b929190611558565b610acc610e8e610fa6565b82610e976111eb565b9190611622565b60008061073760017fca9d3e17f264b0f3984e2634e94adb37fa3e6a8103f06aeae6fa59e21c769f5e611f89565b60007c01000000000000000000000000000000000000000000000000000000007fffffffff00000000000000000000000000000000000000000000000000000000831601610f1c57506000610737565b7ffe003659000000000000000000000000000000000000000000000000000000007fffffffff00000000000000000000000000000000000000000000000000000000831601610f6d57506001610737565b507fffffffff00000000000000000000000000000000000000000000000000000000166000908152602091909152604090205460ff1690565b6000610e05611736565b610fb982611394565b6000610fc58383611740565b905080600003611001576040517fdb73cdf000000000000000000000000000000000000000000000000000000000815260040160405180910390fd5b73ffffffffffffffffffffffffffffffffffffffff83166000908152600660205260409020548381838082101561108a576040517f2b6a775800000000000000000000000000000000000000000000000000000000815273ffffffffffffffffffffffffffffffffffffffff909316600484015260248301919091526044820152606401610bf3565b50505073ffffffffffffffffffffffffffffffffffffffff84166000818152600660205260409081902080548590039055838303600155517faae638dec0d864ccb08558c28981bcfaee41330f57c4911cbe2d8432d0fb729e906110f1908690869061209c565b60405180910390a250505050565b61110882611394565b60006111148383611799565b905080600003611150576040517f040ef8ec00000000000000000000000000000000000000000000000000000000815260040160405180910390fd5b80600160008282546111629190611ff6565b909155505073ffffffffffffffffffffffffffffffffffffffff83166000908152600660205260408120805483929061119c908490611ff6565b925050819055508273ffffffffffffffffffffffffffffffffffffffff167ff4679d394f1f97f1a3df1d73e193866ec5a813168ad5fa6958f9be21b10a594e838360405161092a92919061209c565b60008061073760017fc9ed16f33ab3a66c84bfd83099ccb2a8845871e2e1c1928f63797152f0fd54cd611f89565b815473ffffffffffffffffffffffffffffffffffffffff828116911614610798576040517f2ef4875e00000000000000000000000000000000000000000000000000000000815273ffffffffffffffffffffffffffffffffffffffff82166004820152602401610bf3565b60008061073760017fc8827d3282af6f37b64c3e9e6f3ac9df286ab0bb0fccd6f8661bf19adb368b23611f89565b60008381526020858152604080832073ffffffffffffffffffffffffffffffffffffffff8616845290915290205460ff166113835760008381526020858152604080832073ffffffffffffffffffffffffffffffffffffffff8681168086529184529382902080547fffffffffffffffffffffffffffffffffffffffffffffffffffffffffffffff00166001179055815187815292830152918316918101919091527f2f8788117e7eff1d82e926ec794901d17c78024a50270940304540a733656f0d906060015b60405180910390a15b50505050565b36600061087e61181c565b61139c61079c565b600455600554421015806113b1575060015415155b156113c2576113be610da9565b6002555b73ffffffffffffffffffffffffffffffffffffffff811615610acc576113e7816106a6565b73ffffffffffffffffffffffffffffffffffffffff821660009081526007602090815260408083209390935560045460089091529190205550565b6060610e4e8383611827565b60008281526020848152604080832073ffffffffffffffffffffffffffffffffffffffff8516845290915290205460ff1661083a576040517f7aa728820000000000000000000000000000000000000000000000000000000081526004810183905273ffffffffffffffffffffffffffffffffffffffff82166024820152604401610bf3565b6114bf83828461142e565b60008181526020848152604080832073ffffffffffffffffffffffffffffffffffffffff86168085529083529281902080547fffffffffffffffffffffffffffffffffffffffffffffffffffffffffffffff0016905580518481529182018390528101919091527ff6391f5c32d9c69d2a47ea670b442974b53935d1edc7fd64eb21e047a839171b9060600160405180910390a1505050565b60008381526020858152604080832073ffffffffffffffffffffffffffffffffffffffff8616845290915290205460ff16156113835760008381526020858152604080832073ffffffffffffffffffffffffffffffffffffffff8681168086529184529382902080547fffffffffffffffffffffffffffffffffffffffffffffffffffffffffffffff00169055815187815292830152918316918101919091527ff6391f5c32d9c69d2a47ea670b442974b53935d1edc7fd64eb21e047a839171b9060600161137a565b825473ffffffffffffffffffffffffffffffffffffffff908116908316811461168f576040517f2ef4875e00000000000000000000000000000000000000000000000000000000815273ffffffffffffffffffffffffffffffffffffffff84166004820152602401610bf3565b8173ffffffffffffffffffffffffffffffffffffffff168173ffffffffffffffffffffffffffffffffffffffff16146113835783547fffffffffffffffffffffffff00000000000000000000000000000000000000001673ffffffffffffffffffffffffffffffffffffffff8381169182178655604051908316907f8be0079c531659141344cd1fd0a4f28419497f9722a3daafe3b4186f6b6457e090600090a350505050565b6000610e056118b5565b60008180602001905181019061175691906120ed565b905061073773ffffffffffffffffffffffffffffffffffffffff7f0000000000000000000000000000000000000000000000000000000000000000168483611a02565b6000806000838060200190518101906117b29190612145565b91509150808060200190518101906117ca91906120ed565b925081156118145761181473ffffffffffffffffffffffffffffffffffffffff7f000000000000000000000000000000000000000000000000000000000000000016863086611a83565b505092915050565b36600061087e611ac9565b60608160405160200161183c91815260200190565b604080518083037fffffffffffffffffffffffffffffffffffffffffffffffffffffffffffffffe00181529190526009549091506107379073ffffffffffffffffffffffffffffffffffffffff7f0000000000000000000000000000000000000000000000000000000000000000811691168585611a83565b6000333214806118c55750601836105b156118cf57503390565b7fffffffffffffffffffffffffffffffffffffffffffffffffffffffffffffffec36013560601c7f000000000000000000000000000000000000000000000000000000000000000073ffffffffffffffffffffffffffffffffffffffff163314806119f157506040517f019a202800000000000000000000000000000000000000000000000000000000815273ffffffffffffffffffffffffffffffffffffffff82811660048301523360248301523060448301527f0000000000000000000000000000000000000000000000000000000000000000169063019a202890606401602060405180830381865afa1580156119cd573d6000803e3d6000fd5b505050506040513d601f19601f820116820180604052508101906119f1919061224a565b156119fb57919050565b3391505090565b60405173ffffffffffffffffffffffffffffffffffffffff83811660248301526044820183905261083a91859182169063a9059cbb906064015b604051602081830303815290604052915060e01b6020820180517bffffffffffffffffffffffffffffffffffffffffffffffffffffffff8381831617835250505050611c39565b60405173ffffffffffffffffffffffffffffffffffffffff84811660248301528381166044830152606482018390526113839186918216906323b872dd90608401611a3c565b36600033321480611ada5750601836105b15611ae85750600091369150565b3373ffffffffffffffffffffffffffffffffffffffff7f0000000000000000000000000000000000000000000000000000000000000000161480611c23575073ffffffffffffffffffffffffffffffffffffffff7f00000000000000000000000000000000000000000000000000000000000000001663019a2028367fffffffffffffffffffffffffffffffffffffffffffffffffffffffffffffffec013560601c6040517fffffffff0000000000000000000000000000000000000000000000000000000060e084901b16815273ffffffffffffffffffffffffffffffffffffffff9091166004820152336024820152306044820152606401602060405180830381865afa158015611bff573d6000803e3d6000fd5b505050506040513d601f19601f82011682018060405250810190611c23919061224a565b15611c305761087e611cdd565b50600091369150565b600080602060008451602086016000885af180611c5c576040513d6000823e3d81fd5b50506000513d91508115611c74578060011415611c8e565b73ffffffffffffffffffffffffffffffffffffffff84163b155b15611383576040517f5274afe700000000000000000000000000000000000000000000000000000000815273ffffffffffffffffffffffffffffffffffffffff85166004820152602401610bf3565b36600061087e7fffffffffffffffffffffffffffffffffffffffffffffffffffffffffffffffec8301828481612265565b803573ffffffffffffffffffffffffffffffffffffffff81168114611d3257600080fd5b919050565b600060208284031215611d4957600080fd5b610e4e82611d0e565b600060208284031215611d6457600080fd5b81357fffffffff0000000000000000000000000000000000000000000000000000000081168114610e4e57600080fd5b60008083601f840112611da657600080fd5b50813567ffffffffffffffff811115611dbe57600080fd5b602083019150836020828501011115611dd657600080fd5b9250929050565b60008060208385031215611df057600080fd5b823567ffffffffffffffff811115611e0757600080fd5b611e1385828601611d94565b90969095509350505050565b60008060408385031215611e3257600080fd5b82359150611e4260208401611d0e565b90509250929050565b8183528181602085013750600060208284010152600060207fffffffffffffffffffffffffffffffffffffffffffffffffffffffffffffffe0601f840116840101905092915050565b602081526000611ea8602083018486611e4b565b949350505050565b600080600080600060808688031215611ec857600080fd5b611ed186611d0e565b9450611edf60208701611d0e565b935060408601359250606086013567ffffffffffffffff811115611f0257600080fd5b611f0e88828901611d94565b969995985093965092949392505050565b60008060408385031215611f3257600080fd5b50508035926020909101359150565b600060208284031215611f5357600080fd5b5035919050565b7f4e487b7100000000000000000000000000000000000000000000000000000000600052601160045260246000fd5b8181038181111561073757610737611f5a565b808202811582820484141761073757610737611f5a565b7f4e487b7100000000000000000000000000000000000000000000000000000000600052601260045260246000fd5b600082611ff157611ff1611fb3565b500490565b8082018082111561073757610737611f5a565b8315158152604060208201526000612025604083018486611e4b565b95945050505050565b60005b83811015612049578181015183820152602001612031565b50506000910152565b6000815180845261206a81602086016020860161202e565b601f017fffffffffffffffffffffffffffffffffffffffffffffffffffffffffffffffe0169290920160200192915050565b6040815260006120af6040830185612052565b90508260208301529392505050565b8215158152604060208201526000611ea86040830184612052565b6000826120e8576120e8611fb3565b500690565b6000602082840312156120ff57600080fd5b5051919050565b80518015158114611d3257600080fd5b7f4e487b7100000000000000000000000000000000000000000000000000000000600052604160045260246000fd5b6000806040838503121561215857600080fd5b61216183612106565b9150602083015167ffffffffffffffff81111561217d57600080fd5b8301601f8101851361218e57600080fd5b805167ffffffffffffffff8111156121a8576121a8612116565b6040517fffffffffffffffffffffffffffffffffffffffffffffffffffffffffffffffe0603f7fffffffffffffffffffffffffffffffffffffffffffffffffffffffffffffffe0601f8501160116810181811067ffffffffffffffff8211171561221457612214612116565b60405281815282820160200187101561222c57600080fd5b61223d82602083016020860161202e565b8093505050509250929050565b60006020828403121561225c57600080fd5b610e4e82612106565b6000808585111561227557600080fd5b8386111561228257600080fd5b505082019391909203915056fea264697066735822122088b7f54b71d28028fe9dec0da29724ac29917ac17ce7975f249a25c7a9957af464736f6c634300081c0033",
  "linkReferences": {},
  "deployedLinkReferences": {}
}