{
  "_format": "hh-sol-artifact-1",
  "contractName": "ERC20BatchTransfersFacet",
  "sourceName": "contracts/token/ERC20/facets/ERC20BatchTransfersFacet.sol",
  "abi": [
    {
      "inputs": [
        {
          "internalType": "contract IForwarderRegistry",
          "name": "forwarderRegistry",
          "type": "address"
        }
      ],
      "stateMutability": "nonpayable",
      "type": "constructor"
    },
    {
      "inputs": [
        {
          "internalType": "address",
          "name": "owner",
          "type": "address"
        }
      ],
      "name": "ERC20ApprovalToAddressZero",
      "type": "error"
    },
    {
      "inputs": [],
      "name": "ERC20BatchTransferValuesOverflow",
      "type": "error"
    },
    {
      "inputs": [
        {
          "internalType": "address",
          "name": "owner",
          "type": "address"
        },
        {
          "internalType": "address",
          "name": "spender",
          "type": "address"
        },
        {
          "internalType": "uint256",
          "name": "allowance",
          "type": "uint256"
        },
        {
          "internalType": "uint256",
          "name": "decrement",
          "type": "uint256"
        }
      ],
      "name": "ERC20InsufficientAllowance",
      "type": "error"
    },
    {
      "inputs": [
        {
          "internalType": "address",
          "name": "owner",
          "type": "address"
        },
        {
          "internalType": "uint256",
          "name": "balance",
          "type": "uint256"
        },
        {
          "internalType": "uint256",
          "name": "value",
          "type": "uint256"
        }
      ],
      "name": "ERC20InsufficientBalance",
      "type": "error"
    },
    {
      "inputs": [
        {
          "internalType": "address",
          "name": "owner",
          "type": "address"
        }
      ],
      "name": "ERC20TransferToAddressZero",
      "type": "error"
    },
    {
      "inputs": [],
      "name": "IllegalInterfaceId",
      "type": "error"
    },
    {
      "inputs": [],
      "name": "InconsistentArrayLengths",
      "type": "error"
    },
    {
      "inputs": [
        {
          "internalType": "address",
          "name": "account",
          "type": "address"
        }
      ],
      "name": "NotProxyAdmin",
      "type": "error"
    },
    {
      "anonymous": false,
      "inputs": [
        {
          "indexed": true,
          "internalType": "address",
          "name": "owner",
          "type": "address"
        },
        {
          "indexed": true,
          "internalType": "address",
          "name": "spender",
          "type": "address"
        },
        {
          "indexed": false,
          "internalType": "uint256",
          "name": "value",
          "type": "uint256"
        }
      ],
      "name": "Approval",
      "type": "event"
    },
    {
      "anonymous": false,
      "inputs": [
        {
          "indexed": true,
          "internalType": "address",
          "name": "from",
          "type": "address"
        },
        {
          "indexed": true,
          "internalType": "address",
          "name": "to",
          "type": "address"
        },
        {
          "indexed": false,
          "internalType": "uint256",
          "name": "value",
          "type": "uint256"
        }
      ],
      "name": "Transfer",
      "type": "event"
    },
    {
      "inputs": [
        {
          "internalType": "address[]",
          "name": "recipients",
          "type": "address[]"
        },
        {
          "internalType": "uint256[]",
          "name": "values",
          "type": "uint256[]"
        }
      ],
      "name": "batchTransfer",
      "outputs": [
        {
          "internalType": "bool",
          "name": "",
          "type": "bool"
        }
      ],
      "stateMutability": "nonpayable",
      "type": "function"
    },
    {
      "inputs": [
        {
          "internalType": "address",
          "name": "from",
          "type": "address"
        },
        {
          "internalType": "address[]",
          "name": "recipients",
          "type": "address[]"
        },
        {
          "internalType": "uint256[]",
          "name": "values",
          "type": "uint256[]"
        }
      ],
      "name": "batchTransferFrom",
      "outputs": [
        {
          "internalType": "bool",
          "name": "",
          "type": "bool"
        }
      ],
      "stateMutability": "nonpayable",
      "type": "function"
    },
    {
      "inputs": [],
      "name": "initERC20BatchTransfersStorage",
      "outputs": [],
      "stateMutability": "nonpayable",
      "type": "function"
    }
  ],
  "bytecode": "0x60a060405234801561000f575f80fd5b5060405161100038038061100083398101604081905261002e9161003f565b6001600160a01b031660805261006c565b5f6020828403121561004f575f80fd5b81516001600160a01b0381168114610065575f80fd5b9392505050565b608051610f7561008b5f395f818161096101526109e90152610f755ff3fe608060405234801561000f575f80fd5b506004361061003f575f3560e01c80634885b2541461004357806388d695b21461006a578063c30f1be11461007d575b5f80fd5b610056610051366004610db9565b610087565b604051901515815260200160405180910390f35b610056610078366004610e34565b6100b7565b6100856100e4565b005b5f6100ab610093610107565b87878787876100a0610115565b959493929190610148565b50600195945050505050565b5f6100d96100c3610107565b868686866100cf610115565b94939291906104fe565b506001949350505050565b6100fd6100ef610107565b6100f761084e565b9061087b565b6101056108ea565b565b5f61011061091f565b905090565b5f8061014260017f1da92899d3da68bf9787824388a37ea2bfa79780bcef91b9716c390eec8ecbef610e9b565b92915050565b82818114610182576040517f6582533600000000000000000000000000000000000000000000000000000000815260040160405180910390fd5b805f0361018f57506104f5565b73ffffffffffffffffffffffffffffffffffffffff86165f908152602089905260408120549080805b848114610410575f8989838181106101d2576101d2610ed3565b90506020020160208101906101e79190610f00565b905073ffffffffffffffffffffffffffffffffffffffff8116610253576040517f754f425b00000000000000000000000000000000000000000000000000000000815273ffffffffffffffffffffffffffffffffffffffff8c1660048201526024015b60405180910390fd5b5f88888481811061026657610266610ed3565b905060200201359050805f1461039f578481018581116102b2576040517fdedd834100000000000000000000000000000000000000000000000000000000815260040160405180910390fd5b8095508273ffffffffffffffffffffffffffffffffffffffff168d73ffffffffffffffffffffffffffffffffffffffff161461033857818f5f015f8573ffffffffffffffffffffffffffffffffffffffff1673ffffffffffffffffffffffffffffffffffffffff1681526020019081526020015f205f828254019250508190555061039d565b86821115610398576040517fe450d38c00000000000000000000000000000000000000000000000000000000815273ffffffffffffffffffffffffffffffffffffffff8e166004820152602481018890526044810183905260640161024a565b938101935b505b8173ffffffffffffffffffffffffffffffffffffffff168c73ffffffffffffffffffffffffffffffffffffffff167fddf252ad1be2c89b69c2b068fc378daa952ba7f163c4a11628f55a4df523b3ef836040516103fe91815260200190565b60405180910390a350506001016101b8565b5081158015906104205750808214155b156104b157818303838110610487576040517fe450d38c00000000000000000000000000000000000000000000000000000000815273ffffffffffffffffffffffffffffffffffffffff8b166004820152602481018590526044810184905260640161024a565b73ffffffffffffffffffffffffffffffffffffffff8a165f90815260208d90526040902090820190555b8973ffffffffffffffffffffffffffffffffffffffff168973ffffffffffffffffffffffffffffffffffffffff16146104f0576104f08b8a8c85610a63565b505050505b50505050505050565b82818114610538576040517f6582533600000000000000000000000000000000000000000000000000000000815260040160405180910390fd5b805f036105455750610846565b73ffffffffffffffffffffffffffffffffffffffff86165f908152602088905260408120549080805b8481146107a0575f89898381811061058857610588610ed3565b905060200201602081019061059d9190610f00565b905073ffffffffffffffffffffffffffffffffffffffff8116610604576040517f754f425b00000000000000000000000000000000000000000000000000000000815273ffffffffffffffffffffffffffffffffffffffff8c16600482015260240161024a565b5f88888481811061061757610617610ed3565b905060200201359050805f1461072f57848101858111610663576040517fdedd834100000000000000000000000000000000000000000000000000000000815260040160405180910390fd5b8095508273ffffffffffffffffffffffffffffffffffffffff168d73ffffffffffffffffffffffffffffffffffffffff16146106c85773ffffffffffffffffffffffffffffffffffffffff83165f90815260208f90526040902080548301905561072d565b86821115610728576040517fe450d38c00000000000000000000000000000000000000000000000000000000815273ffffffffffffffffffffffffffffffffffffffff8e166004820152602481018890526044810183905260640161024a565b938101935b505b8173ffffffffffffffffffffffffffffffffffffffff168c73ffffffffffffffffffffffffffffffffffffffff167fddf252ad1be2c89b69c2b068fc378daa952ba7f163c4a11628f55a4df523b3ef8360405161078e91815260200190565b60405180910390a3505060010161056e565b5081158015906107b05750808214155b1561084157818303838110610817576040517fe450d38c00000000000000000000000000000000000000000000000000000000815273ffffffffffffffffffffffffffffffffffffffff8b166004820152602481018590526044810184905260640161024a565b73ffffffffffffffffffffffffffffffffffffffff8a165f90815260208c90526040902090820190555b505050505b505050505050565b5f8061014260017fb53127684a568b3173ae13b9f8a6016e243e63b6e8ee1178d6a717850b5d6104610e9b565b815473ffffffffffffffffffffffffffffffffffffffff8281169116146108e6576040517f673a31a100000000000000000000000000000000000000000000000000000000815273ffffffffffffffffffffffffffffffffffffffff8216600482015260240161024a565b5050565b6101057fc05327e6000000000000000000000000000000000000000000000000000000006001610918610c41565b9190610c6e565b5f3332148061092e5750601836105b1561093857503390565b7fffffffffffffffffffffffffffffffffffffffffffffffffffffffffffffffec36013560601c7f000000000000000000000000000000000000000000000000000000000000000073ffffffffffffffffffffffffffffffffffffffff16331480610a5257506040517f8929a8ca00000000000000000000000000000000000000000000000000000000815273ffffffffffffffffffffffffffffffffffffffff82811660048301523360248301527f00000000000000000000000000000000000000000000000000000000000000001690638929a8ca90604401602060405180830381865afa158015610a2e573d5f803e3d5ffd5b505050506040513d601f19601f82011682018060405250810190610a529190610f20565b15610a5c57919050565b3391505090565b73ffffffffffffffffffffffffffffffffffffffff8216610ac8576040517ff7e1ac0f00000000000000000000000000000000000000000000000000000000815273ffffffffffffffffffffffffffffffffffffffff8416600482015260240161024a565b73ffffffffffffffffffffffffffffffffffffffff8084165f9081526001860160209081526040808320938616835292905220547fffffffffffffffffffffffffffffffffffffffffffffffffffffffffffffffff8114801590610b2b57508115155b15610bd357818103818110610b9a576040517f137ad6ab00000000000000000000000000000000000000000000000000000000815273ffffffffffffffffffffffffffffffffffffffff808716600483015285166024820152604481018390526064810184905260840161024a565b73ffffffffffffffffffffffffffffffffffffffff8086165f908152600188016020908152604080832093881683529290522081905590505b8273ffffffffffffffffffffffffffffffffffffffff168473ffffffffffffffffffffffffffffffffffffffff167f8c5be1e5ebec7d5bd14f71427d1e84f3dd0314c0f7b2291e5b200ac8c7c3b92583604051610c3291815260200190565b60405180910390a35050505050565b5f8061014260017fca9d3e17f264b0f3984e2634e94adb37fa3e6a8103f06aeae6fa59e21c769f5e610e9b565b7c01000000000000000000000000000000000000000000000000000000007fffffffff00000000000000000000000000000000000000000000000000000000831601610ce6576040517f72c683bb00000000000000000000000000000000000000000000000000000000815260040160405180910390fd5b7fffffffff00000000000000000000000000000000000000000000000000000000919091165f908152602092909252604090912080547fffffffffffffffffffffffffffffffffffffffffffffffffffffffffffffff0016911515919091179055565b803573ffffffffffffffffffffffffffffffffffffffff81168114610d6c575f80fd5b919050565b5f8083601f840112610d81575f80fd5b50813567ffffffffffffffff811115610d98575f80fd5b6020830191508360208260051b8501011115610db2575f80fd5b9250929050565b5f805f805f60608688031215610dcd575f80fd5b610dd686610d49565b9450602086013567ffffffffffffffff80821115610df2575f80fd5b610dfe89838a01610d71565b90965094506040880135915080821115610e16575f80fd5b50610e2388828901610d71565b969995985093965092949392505050565b5f805f8060408587031215610e47575f80fd5b843567ffffffffffffffff80821115610e5e575f80fd5b610e6a88838901610d71565b90965094506020870135915080821115610e82575f80fd5b50610e8f87828801610d71565b95989497509550505050565b81810381811115610142577f4e487b71000000000000000000000000000000000000000000000000000000005f52601160045260245ffd5b7f4e487b71000000000000000000000000000000000000000000000000000000005f52603260045260245ffd5b5f60208284031215610f10575f80fd5b610f1982610d49565b9392505050565b5f60208284031215610f30575f80fd5b81518015158114610f19575f80fdfea2646970667358221220f947a1189ccdad91a911c8c1a3eff2166cc7602884fedafc1eaee2e5a803287264736f6c63430008150033",
  "linkReferences": {},
  "deployedLinkReferences": {}
}