{
  "_format": "hh-sol-artifact-1",
  "contractName": "ERC20SimpleMock",
  "sourceName": "contracts/mocks/token/ERC20/ERC20SimpleMock.sol",
  "abi": [
    {
      "inputs": [
        {
          "internalType": "address[]",
          "name": "holders",
          "type": "address[]"
        },
        {
          "internalType": "uint256[]",
          "name": "allocations",
          "type": "uint256[]"
        },
        {
          "internalType": "contract IForwarderRegistry",
          "name": "forwarderRegistry",
          "type": "address"
        }
      ],
      "stateMutability": "nonpayable",
      "type": "constructor"
    },
    {
      "anonymous": false,
      "inputs": [
        {
          "indexed": true,
          "internalType": "address",
          "name": "owner",
          "type": "address"
        },
        {
          "indexed": true,
          "internalType": "address",
          "name": "spender",
          "type": "address"
        },
        {
          "indexed": false,
          "internalType": "uint256",
          "name": "value",
          "type": "uint256"
        }
      ],
      "name": "Approval",
      "type": "event"
    },
    {
      "anonymous": false,
      "inputs": [
        {
          "indexed": true,
          "internalType": "address",
          "name": "previousOwner",
          "type": "address"
        },
        {
          "indexed": true,
          "internalType": "address",
          "name": "newOwner",
          "type": "address"
        }
      ],
      "name": "OwnershipTransferred",
      "type": "event"
    },
    {
      "anonymous": false,
      "inputs": [
        {
          "indexed": false,
          "internalType": "bytes32",
          "name": "role",
          "type": "bytes32"
        },
        {
          "indexed": false,
          "internalType": "address",
          "name": "account",
          "type": "address"
        },
        {
          "indexed": false,
          "internalType": "address",
          "name": "operator",
          "type": "address"
        }
      ],
      "name": "RoleGranted",
      "type": "event"
    },
    {
      "anonymous": false,
      "inputs": [
        {
          "indexed": false,
          "internalType": "bytes32",
          "name": "role",
          "type": "bytes32"
        },
        {
          "indexed": false,
          "internalType": "address",
          "name": "account",
          "type": "address"
        },
        {
          "indexed": false,
          "internalType": "address",
          "name": "operator",
          "type": "address"
        }
      ],
      "name": "RoleRevoked",
      "type": "event"
    },
    {
      "anonymous": false,
      "inputs": [
        {
          "indexed": true,
          "internalType": "address",
          "name": "from",
          "type": "address"
        },
        {
          "indexed": true,
          "internalType": "address",
          "name": "to",
          "type": "address"
        },
        {
          "indexed": false,
          "internalType": "uint256",
          "name": "value",
          "type": "uint256"
        }
      ],
      "name": "Transfer",
      "type": "event"
    },
    {
      "inputs": [],
      "name": "MINTER_ROLE",
      "outputs": [
        {
          "internalType": "bytes32",
          "name": "",
          "type": "bytes32"
        }
      ],
      "stateMutability": "view",
      "type": "function"
    },
    {
      "inputs": [],
      "name": "__msgData",
      "outputs": [
        {
          "internalType": "bytes",
          "name": "",
          "type": "bytes"
        }
      ],
      "stateMutability": "view",
      "type": "function"
    },
    {
      "inputs": [
        {
          "internalType": "address",
          "name": "owner",
          "type": "address"
        },
        {
          "internalType": "address",
          "name": "spender",
          "type": "address"
        }
      ],
      "name": "allowance",
      "outputs": [
        {
          "internalType": "uint256",
          "name": "",
          "type": "uint256"
        }
      ],
      "stateMutability": "view",
      "type": "function"
    },
    {
      "inputs": [
        {
          "internalType": "address",
          "name": "spender",
          "type": "address"
        },
        {
          "internalType": "uint256",
          "name": "value",
          "type": "uint256"
        }
      ],
      "name": "approve",
      "outputs": [
        {
          "internalType": "bool",
          "name": "",
          "type": "bool"
        }
      ],
      "stateMutability": "nonpayable",
      "type": "function"
    },
    {
      "inputs": [
        {
          "internalType": "address",
          "name": "account",
          "type": "address"
        }
      ],
      "name": "balanceOf",
      "outputs": [
        {
          "internalType": "uint256",
          "name": "",
          "type": "uint256"
        }
      ],
      "stateMutability": "view",
      "type": "function"
    },
    {
      "inputs": [
        {
          "internalType": "address[]",
          "name": "recipients",
          "type": "address[]"
        },
        {
          "internalType": "uint256[]",
          "name": "values",
          "type": "uint256[]"
        }
      ],
      "name": "batchMint",
      "outputs": [],
      "stateMutability": "nonpayable",
      "type": "function"
    },
    {
      "inputs": [
        {
          "internalType": "address",
          "name": "spender",
          "type": "address"
        },
        {
          "internalType": "uint256",
          "name": "subtractedValue",
          "type": "uint256"
        }
      ],
      "name": "decreaseAllowance",
      "outputs": [
        {
          "internalType": "bool",
          "name": "",
          "type": "bool"
        }
      ],
      "stateMutability": "nonpayable",
      "type": "function"
    },
    {
      "inputs": [
        {
          "internalType": "bytes32",
          "name": "role",
          "type": "bytes32"
        },
        {
          "internalType": "address",
          "name": "account",
          "type": "address"
        }
      ],
      "name": "grantRole",
      "outputs": [],
      "stateMutability": "nonpayable",
      "type": "function"
    },
    {
      "inputs": [
        {
          "internalType": "bytes32",
          "name": "role",
          "type": "bytes32"
        },
        {
          "internalType": "address",
          "name": "account",
          "type": "address"
        }
      ],
      "name": "hasRole",
      "outputs": [
        {
          "internalType": "bool",
          "name": "",
          "type": "bool"
        }
      ],
      "stateMutability": "view",
      "type": "function"
    },
    {
      "inputs": [
        {
          "internalType": "address",
          "name": "spender",
          "type": "address"
        },
        {
          "internalType": "uint256",
          "name": "addedValue",
          "type": "uint256"
        }
      ],
      "name": "increaseAllowance",
      "outputs": [
        {
          "internalType": "bool",
          "name": "",
          "type": "bool"
        }
      ],
      "stateMutability": "nonpayable",
      "type": "function"
    },
    {
      "inputs": [
        {
          "internalType": "address",
          "name": "to",
          "type": "address"
        },
        {
          "internalType": "uint256",
          "name": "value",
          "type": "uint256"
        }
      ],
      "name": "mint",
      "outputs": [],
      "stateMutability": "nonpayable",
      "type": "function"
    },
    {
      "inputs": [],
      "name": "owner",
      "outputs": [
        {
          "internalType": "address",
          "name": "",
          "type": "address"
        }
      ],
      "stateMutability": "view",
      "type": "function"
    },
    {
      "inputs": [
        {
          "internalType": "bytes32",
          "name": "role",
          "type": "bytes32"
        }
      ],
      "name": "renounceRole",
      "outputs": [],
      "stateMutability": "nonpayable",
      "type": "function"
    },
    {
      "inputs": [
        {
          "internalType": "bytes32",
          "name": "role",
          "type": "bytes32"
        },
        {
          "internalType": "address",
          "name": "account",
          "type": "address"
        }
      ],
      "name": "revokeRole",
      "outputs": [],
      "stateMutability": "nonpayable",
      "type": "function"
    },
    {
      "inputs": [
        {
          "internalType": "bytes4",
          "name": "interfaceId",
          "type": "bytes4"
        }
      ],
      "name": "supportsInterface",
      "outputs": [
        {
          "internalType": "bool",
          "name": "",
          "type": "bool"
        }
      ],
      "stateMutability": "view",
      "type": "function"
    },
    {
      "inputs": [],
      "name": "totalSupply",
      "outputs": [
        {
          "internalType": "uint256",
          "name": "",
          "type": "uint256"
        }
      ],
      "stateMutability": "view",
      "type": "function"
    },
    {
      "inputs": [
        {
          "internalType": "address",
          "name": "to",
          "type": "address"
        },
        {
          "internalType": "uint256",
          "name": "value",
          "type": "uint256"
        }
      ],
      "name": "transfer",
      "outputs": [
        {
          "internalType": "bool",
          "name": "",
          "type": "bool"
        }
      ],
      "stateMutability": "nonpayable",
      "type": "function"
    },
    {
      "inputs": [
        {
          "internalType": "address",
          "name": "from",
          "type": "address"
        },
        {
          "internalType": "address",
          "name": "to",
          "type": "address"
        },
        {
          "internalType": "uint256",
          "name": "value",
          "type": "uint256"
        }
      ],
      "name": "transferFrom",
      "outputs": [
        {
          "internalType": "bool",
          "name": "",
          "type": "bool"
        }
      ],
      "stateMutability": "nonpayable",
      "type": "function"
    },
    {
      "inputs": [
        {
          "internalType": "address",
          "name": "newOwner",
          "type": "address"
        }
      ],
      "name": "transferOwnership",
      "outputs": [],
      "stateMutability": "nonpayable",
      "type": "function"
    }
  ],
  "bytecode": "0x60a06040523480156200001157600080fd5b5060405162002d2f38038062002d2f8339810160408190526200003491620007c3565b80338484620000688282620000536200011160201b6200064e1760201c565b6200014760201b6200067c179092919060201c565b50506200009462000083620001f560201b6200071b1760201c565b6200022560201b620007491760201c565b620000c281620000ae6200027d60201b620007a31760201c565b620002ad60201b620007d11790919060201c565b50620000fb63144b1f0f60e11b6001620000e6620001f560201b6200071b1760201c565b6200035c60201b620008b5179092919060201c565b6001600160a01b03166080525062000909915050565b6000806200014160017f1da92899d3da68bf9787824388a37ea2bfa79780bcef91b9716c390eec8ecbef620008bd565b92915050565b6200018e6200017860017f29556ab02630c82cd68880b714c652161a4c550fbc08f822cf0d4cbddfef3b54620008bd565b60001b6001620003ea60201b620009aa1760201c565b620001aa8282856200045d60201b62000a1a179092919060201c565b620001cd6336372b0760e01b6001620000e6620001f560201b6200071b1760201c565b620001f0634e83a8c360e11b6001620000e6620001f560201b6200071b1760201c565b505050565b6000806200014160017fca9d3e17f264b0f3984e2634e94adb37fa3e6a8103f06aeae6fa59e21c769f5e620008bd565b620002566200017860017f0d3428378c86c503fd28ad8ca6ada1714405b0214c2235cfa78ae4407ebdd416620008bd565b6200027a6301ffc9a760e01b6001836200035c60201b620008b5179092919060201c565b50565b6000806200014160017fbbb5d9542f7a98b323b5aeba2ecddfa10d73251c23dd96dda0031c8675c64b98620008bd565b620002de6200017860017fd634006372253bb6f81402c0189d7165d8af35aaaf996a72e7102954b6c3bfbd620008bd565b6001600160a01b03811615620003355781546001600160a01b0319166001600160a01b03821690811783556040516000907f8be0079c531659141344cd1fd0a4f28419497f9722a3daafe3b4186f6b6457e0908290a35b620003586307f5828d60e41b6001620000e6620001f560201b6200071b1760201c565b5050565b6001600160e01b03198083169003620003bc5760405162461bcd60e51b815260206004820152601f60248201527f496e74657266616365446574656374696f6e3a2077726f6e672076616c75650060448201526064015b60405180910390fd5b6001600160e01b03199190911660009081526020929092526040909120805460ff1916911515919091179055565b60006200040283620006b660201b62000cfa1760201c565b905081816000015410620004595760405162461bcd60e51b815260206004820152601860248201527f53746f726167653a2076657273696f6e207265616368656400000000000000006044820152606401620003b3565b5550565b815181518114620004b15760405162461bcd60e51b815260206004820152601a60248201527f45524332303a20696e636f6e73697374656e74206172726179730000000000006044820152606401620003b3565b80600003620004c05750505050565b6000805b82811462000647576000858281518110620004e357620004e3620008d7565b6020026020010151905060006001600160a01b0316816001600160a01b031603620005515760405162461bcd60e51b815260206004820152601360248201527f45524332303a206d696e7420746f207a65726f000000000000000000000000006044820152606401620003b3565b6000858381518110620005685762000568620008d7565b6020026020010151905080600014620005f057838101848111620005cf5760405162461bcd60e51b815260206004820152601660248201527f45524332303a2076616c756573206f766572666c6f77000000000000000000006044820152606401620003b3565b6001600160a01b038316600090815260208a90526040902080548301905593505b6040518181526001600160a01b038316906000907fddf252ad1be2c89b69c2b068fc378daa952ba7f163c4a11628f55a4df523b3ef9060200160405180910390a35050806200063f90620008ed565b9050620004c4565b508015620006af576002850154818101818111620006a85760405162461bcd60e51b815260206004820152601660248201527f45524332303a20737570706c79206f766572666c6f77000000000000000000006044820152606401620003b3565b6002870155505b5050505050565b90565b634e487b7160e01b600052604160045260246000fd5b604051601f8201601f191681016001600160401b0381118282101715620006fa57620006fa620006b9565b604052919050565b60006001600160401b038211156200071e576200071e620006b9565b5060051b60200190565b6001600160a01b03811681146200027a57600080fd5b600082601f8301126200075057600080fd5b8151602062000769620007638362000702565b620006cf565b82815260059290921b840181019181810190868411156200078957600080fd5b8286015b84811015620007a657805183529183019183016200078d565b509695505050505050565b8051620007be8162000728565b919050565b600080600060608486031215620007d957600080fd5b83516001600160401b0380821115620007f157600080fd5b818601915086601f8301126200080657600080fd5b8151602062000819620007638362000702565b82815260059290921b8401810191818101908a8411156200083957600080fd5b948201945b8386101562000864578551620008548162000728565b825294820194908201906200083e565b918901519197509093505050808211156200087e57600080fd5b506200088d868287016200073e565b9250506200089e60408501620007b1565b90509250925092565b634e487b7160e01b600052601160045260246000fd5b600082821015620008d257620008d2620008a7565b500390565b634e487b7160e01b600052603260045260246000fd5b600060018201620009025762000902620008a7565b5060010190565b6080516123f56200093a600039600081816119d301528181611a7301528181611b070152611b7101526123f56000f3fe608060405234801561001057600080fd5b50600436106101515760003560e01c806370a08231116100cd578063a9059cbb11610081578063d547741f11610066578063d547741f146102d1578063dd62ed3e146102e4578063f2fde38b146102f757600080fd5b8063a9059cbb14610297578063d5391393146102aa57600080fd5b80638da5cb5b116100b25780638da5cb5b1461024457806391d1485414610271578063a457c2d71461028457600080fd5b806370a082311461021e5780638bb9c5bf1461023157600080fd5b80632f2ff15d11610124578063395093511161010957806339509351146101e557806340c10f19146101f8578063685731071461020b57600080fd5b80632f2ff15d146101ba57806331e66e1e146101cf57600080fd5b806301ffc9a714610156578063095ea7b31461017e57806318160ddd1461019157806323b872dd146101a7575b600080fd5b610169610164366004611e1b565b61030a565b60405190151581526020015b60405180910390f35b61016961018c366004611e86565b610357565b61019961037f565b604051908152602001610175565b6101696101b5366004611eb0565b610392565b6101cd6101c8366004611eec565b6103bd565b005b6101d76103f6565b604051610175929190611f18565b6101696101f3366004611e86565b610409565b6101cd610206366004611e86565b610428565b6101cd610219366004612072565b61047b565b61019961022c366004612132565b6104bb565b6101cd61023f36600461214d565b6104f1565b61024c61050f565b60405173ffffffffffffffffffffffffffffffffffffffff9091168152602001610175565b61016961027f366004611eec565b610535565b610169610292366004611e86565b610580565b6101696102a5366004611e86565b61059f565b6101997f6d696e746572000000000000000000000000000000000000000000000000000081565b6101cd6102df366004611eec565b6105be565b6101996102f2366004612166565b6105ec565b6101cd610305366004612132565b610633565b60006103518261031861071b565b907fffffffff00000000000000000000000000000000000000000000000000000000166000908152602091909152604090205460ff1690565b92915050565b6000610376610364610cfd565b848461036e61064e565b929190610d0c565b50600192915050565b600061038961064e565b60020154905090565b60006103b361039f610cfd565b8585856103aa61064e565b93929190610dfb565b5060019392505050565b60006103c7610cfd565b90506103db816103d56107a3565b90610e46565b6103f18383836103e9610ec9565b929190610ef7565b505050565b366000610401610fce565b915091509091565b6000610376610416610cfd565b848461042061064e565b929190610fd9565b6104637f6d696e7465720000000000000000000000000000000000000000000000000000610454610cfd565b61045c610ec9565b91906111a5565b610477828261047061064e565b9190611251565b5050565b6104a77f6d696e7465720000000000000000000000000000000000000000000000000000610454610cfd565b61047782826104b461064e565b9190610a1a565b60006104c561064e565b73ffffffffffffffffffffffffffffffffffffffff909216600090815260209290925250604090205490565b61050c6104fc610cfd565b82610505610ec9565b91906113ca565b50565b60006105196107a3565b5473ffffffffffffffffffffffffffffffffffffffff16919050565b60006105798383610544610ec9565b60009283526020908152604080842073ffffffffffffffffffffffffffffffffffffffff909316845291905290205460ff1690565b9392505050565b600061037661058d610cfd565b848461059761064e565b92919061146e565b60006103766105ac610cfd565b84846105b661064e565b9291906115c0565b60006105c8610cfd565b90506105d6816103d56107a3565b6103f18383836105e4610ec9565b9291906117a1565b60006105f661064e565b73ffffffffffffffffffffffffffffffffffffffff9384166000908152600191909101602090815260408083209490951682529290925250205490565b61050c61063e610cfd565b826106476107a3565b919061186b565b60008061035160017f1da92899d3da68bf9787824388a37ea2bfa79780bcef91b9716c390eec8ecbef6121bf565b6106b16106aa60017f29556ab02630c82cd68880b714c652161a4c550fbc08f822cf0d4cbddfef3b546121bf565b60016109aa565b6106bc838383610a1a565b6106f17f36372b070000000000000000000000000000000000000000000000000000000060016106ea61071b565b91906108b5565b6103f17f9d0751860000000000000000000000000000000000000000000000000000000060016106ea5b60008061035160017fca9d3e17f264b0f3984e2634e94adb37fa3e6a8103f06aeae6fa59e21c769f5e6121bf565b6107776106aa60017f0d3428378c86c503fd28ad8ca6ada1714405b0214c2235cfa78ae4407ebdd4166121bf565b61050c817f01ffc9a70000000000000000000000000000000000000000000000000000000060016108b5565b60008061035160017fbbb5d9542f7a98b323b5aeba2ecddfa10d73251c23dd96dda0031c8675c64b986121bf565b6107ff6106aa60017fd634006372253bb6f81402c0189d7165d8af35aaaf996a72e7102954b6c3bfbd6121bf565b73ffffffffffffffffffffffffffffffffffffffff8116156108875781547fffffffffffffffffffffffff00000000000000000000000000000000000000001673ffffffffffffffffffffffffffffffffffffffff821690811783556040516000907f8be0079c531659141344cd1fd0a4f28419497f9722a3daafe3b4186f6b6457e0908290a35b6104777f7f5828d00000000000000000000000000000000000000000000000000000000060016106ea61071b565b7fffffffff000000000000000000000000000000000000000000000000000000008083169003610946576040517f08c379a000000000000000000000000000000000000000000000000000000000815260206004820152601f60248201527f496e74657266616365446574656374696f6e3a2077726f6e672076616c75650060448201526064015b60405180910390fd5b7fffffffff00000000000000000000000000000000000000000000000000000000919091166000908152602092909252604090912080547fffffffffffffffffffffffffffffffffffffffffffffffffffffffffffffff0016911515919091179055565b815482908211610a16576040517f08c379a000000000000000000000000000000000000000000000000000000000815260206004820152601860248201527f53746f726167653a2076657273696f6e20726561636865640000000000000000604482015260640161093d565b5550565b815181518114610a86576040517f08c379a000000000000000000000000000000000000000000000000000000000815260206004820152601a60248201527f45524332303a20696e636f6e73697374656e7420617272617973000000000000604482015260640161093d565b80600003610a945750505050565b6000805b828114610c74576000858281518110610ab357610ab36121d6565b60200260200101519050600073ffffffffffffffffffffffffffffffffffffffff168173ffffffffffffffffffffffffffffffffffffffff1603610b53576040517f08c379a000000000000000000000000000000000000000000000000000000000815260206004820152601360248201527f45524332303a206d696e7420746f207a65726f00000000000000000000000000604482015260640161093d565b6000858381518110610b6757610b676121d6565b6020026020010151905080600014610c1357838101848111610be5576040517f08c379a000000000000000000000000000000000000000000000000000000000815260206004820152601660248201527f45524332303a2076616c756573206f766572666c6f7700000000000000000000604482015260640161093d565b73ffffffffffffffffffffffffffffffffffffffff8316600090815260208a90526040902080548301905593505b60405181815273ffffffffffffffffffffffffffffffffffffffff8316906000907fddf252ad1be2c89b69c2b068fc378daa952ba7f163c4a11628f55a4df523b3ef9060200160405180910390a3505080610c6d90612205565b9050610a98565b508015610cf3576002850154818101818111610cec576040517f08c379a000000000000000000000000000000000000000000000000000000000815260206004820152601660248201527f45524332303a20737570706c79206f766572666c6f7700000000000000000000604482015260640161093d565b6002870155505b5050505050565b90565b6000610d07611997565b905090565b73ffffffffffffffffffffffffffffffffffffffff8216610d89576040517f08c379a000000000000000000000000000000000000000000000000000000000815260206004820152601b60248201527f45524332303a207a65726f2061646472657373207370656e6465720000000000604482015260640161093d565b73ffffffffffffffffffffffffffffffffffffffff838116600081815260018701602090815260408083209487168084529482529182902085905590518481527f8c5be1e5ebec7d5bd14f71427d1e84f3dd0314c0f7b2291e5b200ac8c7c3b92591015b60405180910390a350505050565b8373ffffffffffffffffffffffffffffffffffffffff168373ffffffffffffffffffffffffffffffffffffffff1614610e3a57610e3a8584868461146e565b610cf3858484846115c0565b815473ffffffffffffffffffffffffffffffffffffffff828116911614610477576040517f08c379a000000000000000000000000000000000000000000000000000000000815260206004820152601860248201527f4f776e6572736869703a206e6f7420746865206f776e65720000000000000000604482015260640161093d565b60008061035160017fc8827d3282af6f37b64c3e9e6f3ac9df286ab0bb0fccd6f8661bf19adb368b236121bf565b60008381526020858152604080832073ffffffffffffffffffffffffffffffffffffffff8616845290915290205460ff16610fc85760008381526020858152604080832073ffffffffffffffffffffffffffffffffffffffff8681168086529184529382902080547fffffffffffffffffffffffffffffffffffffffffffffffffffffffffffffff00166001179055815187815292830152918316918101919091527f2f8788117e7eff1d82e926ec794901d17c78024a50270940304540a733656f0d906060015b60405180910390a15b50505050565b366000610401611aef565b73ffffffffffffffffffffffffffffffffffffffff8216611056576040517f08c379a000000000000000000000000000000000000000000000000000000000815260206004820152601b60248201527f45524332303a207a65726f2061646472657373207370656e6465720000000000604482015260640161093d565b73ffffffffffffffffffffffffffffffffffffffff80841660009081526001860160209081526040808320938616835292905220548115611137578082018181116110fd576040517f08c379a000000000000000000000000000000000000000000000000000000000815260206004820152601960248201527f45524332303a20616c6c6f77616e6365206f766572666c6f7700000000000000604482015260640161093d565b73ffffffffffffffffffffffffffffffffffffffff8086166000908152600188016020908152604080832093881683529290522081905590505b8273ffffffffffffffffffffffffffffffffffffffff168473ffffffffffffffffffffffffffffffffffffffff167f8c5be1e5ebec7d5bd14f71427d1e84f3dd0314c0f7b2291e5b200ac8c7c3b9258360405161119691815260200190565b60405180910390a35050505050565b60008281526020848152604080832073ffffffffffffffffffffffffffffffffffffffff8516845290915290205460ff166103f1576111e382611c73565b6040516020016111f39190612269565b604080517fffffffffffffffffffffffffffffffffffffffffffffffffffffffffffffffe0818403018152908290527f08c379a000000000000000000000000000000000000000000000000000000000825261093d916004016122d5565b73ffffffffffffffffffffffffffffffffffffffff82166112ce576040517f08c379a000000000000000000000000000000000000000000000000000000000815260206004820152601360248201527f45524332303a206d696e7420746f207a65726f00000000000000000000000000604482015260640161093d565b8015611377576002830154818101818111611345576040517f08c379a000000000000000000000000000000000000000000000000000000000815260206004820152601660248201527f45524332303a20737570706c79206f766572666c6f7700000000000000000000604482015260640161093d565b60028501555073ffffffffffffffffffffffffffffffffffffffff821660009081526020849052604090208054820190555b60405181815273ffffffffffffffffffffffffffffffffffffffff8316906000907fddf252ad1be2c89b69c2b068fc378daa952ba7f163c4a11628f55a4df523b3ef9060200160405180910390a3505050565b6113d58382846111a5565b60008181526020848152604080832073ffffffffffffffffffffffffffffffffffffffff86168085529083529281902080547fffffffffffffffffffffffffffffffffffffffffffffffffffffffffffffff0016905580518481529182018390528101919091527ff6391f5c32d9c69d2a47ea670b442974b53935d1edc7fd64eb21e047a839171b9060600160405180910390a1505050565b73ffffffffffffffffffffffffffffffffffffffff82166114eb576040517f08c379a000000000000000000000000000000000000000000000000000000000815260206004820152601b60248201527f45524332303a207a65726f2061646472657373207370656e6465720000000000604482015260640161093d565b73ffffffffffffffffffffffffffffffffffffffff80841660009081526001860160209081526040808320938616835292905220547fffffffffffffffffffffffffffffffffffffffffffffffffffffffffffffffff811480159061154f57508115155b15611137578181038181106110fd576040517f08c379a000000000000000000000000000000000000000000000000000000000815260206004820152601d60248201527f45524332303a20696e73756666696369656e7420616c6c6f77616e6365000000604482015260640161093d565b73ffffffffffffffffffffffffffffffffffffffff821661163d576040517f08c379a000000000000000000000000000000000000000000000000000000000815260206004820152601660248201527f45524332303a20746f207a65726f206164647265737300000000000000000000604482015260640161093d565b80156117425773ffffffffffffffffffffffffffffffffffffffff83166000908152602085905260409020548181038181106116d5576040517f08c379a000000000000000000000000000000000000000000000000000000000815260206004820152601b60248201527f45524332303a20696e73756666696369656e742062616c616e63650000000000604482015260640161093d565b8373ffffffffffffffffffffffffffffffffffffffff168573ffffffffffffffffffffffffffffffffffffffff161461173f5773ffffffffffffffffffffffffffffffffffffffff8086166000908152602088905260408082208490559186168152208054840190555b50505b8173ffffffffffffffffffffffffffffffffffffffff168373ffffffffffffffffffffffffffffffffffffffff167fddf252ad1be2c89b69c2b068fc378daa952ba7f163c4a11628f55a4df523b3ef83604051610ded91815260200190565b60008381526020858152604080832073ffffffffffffffffffffffffffffffffffffffff8616845290915290205460ff1615610fc85760008381526020858152604080832073ffffffffffffffffffffffffffffffffffffffff8681168086529184529382902080547fffffffffffffffffffffffffffffffffffffffffffffffffffffffffffffff00169055815187815292830152918316918101919091527ff6391f5c32d9c69d2a47ea670b442974b53935d1edc7fd64eb21e047a839171b90606001610fbf565b825473ffffffffffffffffffffffffffffffffffffffff90811690831681146118f0576040517f08c379a000000000000000000000000000000000000000000000000000000000815260206004820152601860248201527f4f776e6572736869703a206e6f7420746865206f776e65720000000000000000604482015260640161093d565b8173ffffffffffffffffffffffffffffffffffffffff168173ffffffffffffffffffffffffffffffffffffffff1614610fc85783547fffffffffffffffffffffffff00000000000000000000000000000000000000001673ffffffffffffffffffffffffffffffffffffffff8381169182178655604051908316907f8be0079c531659141344cd1fd0a4f28419497f9722a3daafe3b4186f6b6457e090600090a350505050565b6000333281036119a657919050565b6000367fffffffffffffffffffffffffffffffffffffffffffffffffffffffffffffffec013560601c90507f000000000000000000000000000000000000000000000000000000000000000073ffffffffffffffffffffffffffffffffffffffff168273ffffffffffffffffffffffffffffffffffffffff161480611ade57506040517fe60125d600000000000000000000000000000000000000000000000000000000815273ffffffffffffffffffffffffffffffffffffffff828116600483015283811660248301527f0000000000000000000000000000000000000000000000000000000000000000169063e60125d690604401602060405180830381865afa158015611aba573d6000803e3d6000fd5b505050506040513d601f19601f82011682018060405250810190611ade9190612326565b15611ae95792915050565b50919050565b36600033328103611b0557506000923692509050565b7f000000000000000000000000000000000000000000000000000000000000000073ffffffffffffffffffffffffffffffffffffffff168173ffffffffffffffffffffffffffffffffffffffff161480611c52575073ffffffffffffffffffffffffffffffffffffffff7f00000000000000000000000000000000000000000000000000000000000000001663e60125d6367fffffffffffffffffffffffffffffffffffffffffffffffffffffffffffffffec013560601c6040517fffffffff0000000000000000000000000000000000000000000000000000000060e084901b16815273ffffffffffffffffffffffffffffffffffffffff91821660048201529084166024820152604401602060405180830381865afa158015611c2e573d6000803e3d6000fd5b505050506040513d601f19601f82011682018060405250810190611c529190612326565b15611c6857611c5f611dfd565b92509250509091565b506000923692509050565b60606000829003611c9257505060408051602081019091526000815290565b600082604051602001611ca791815260200190565b604080517fffffffffffffffffffffffffffffffffffffffffffffffffffffffffffffffe08184030181529190529050601f5b818181518110611cec57611cec6121d6565b01602001517fff0000000000000000000000000000000000000000000000000000000000000016600003611d2a57611d2381612348565b9050611cda565b6000611d3782600161237d565b67ffffffffffffffff811115611d4f57611d4f611f65565b6040519080825280601f01601f191660200182016040528015611d79576020820181803683370190505b50905060005b828111611df457838181518110611d9857611d986121d6565b602001015160f81c60f81b828281518110611db557611db56121d6565b60200101907effffffffffffffffffffffffffffffffffffffffffffffffffffffffffffff1916908160001a905350611ded81612205565b9050611d7f565b50949350505050565b366000808083611e0e6014826121bf565b9261040193929190612395565b600060208284031215611e2d57600080fd5b81357fffffffff000000000000000000000000000000000000000000000000000000008116811461057957600080fd5b803573ffffffffffffffffffffffffffffffffffffffff81168114611e8157600080fd5b919050565b60008060408385031215611e9957600080fd5b611ea283611e5d565b946020939093013593505050565b600080600060608486031215611ec557600080fd5b611ece84611e5d565b9250611edc60208501611e5d565b9150604084013590509250925092565b60008060408385031215611eff57600080fd5b82359150611f0f60208401611e5d565b90509250929050565b60208152816020820152818360408301376000818301604090810191909152601f9092017fffffffffffffffffffffffffffffffffffffffffffffffffffffffffffffffe0160101919050565b7f4e487b7100000000000000000000000000000000000000000000000000000000600052604160045260246000fd5b604051601f82017fffffffffffffffffffffffffffffffffffffffffffffffffffffffffffffffe016810167ffffffffffffffff81118282101715611fdb57611fdb611f65565b604052919050565b600067ffffffffffffffff821115611ffd57611ffd611f65565b5060051b60200190565b600082601f83011261201857600080fd5b8135602061202d61202883611fe3565b611f94565b82815260059290921b8401810191818101908684111561204c57600080fd5b8286015b848110156120675780358352918301918301612050565b509695505050505050565b6000806040838503121561208557600080fd5b823567ffffffffffffffff8082111561209d57600080fd5b818501915085601f8301126120b157600080fd5b813560206120c161202883611fe3565b82815260059290921b840181019181810190898411156120e057600080fd5b948201945b83861015612105576120f686611e5d565b825294820194908201906120e5565b9650508601359250508082111561211b57600080fd5b5061212885828601612007565b9150509250929050565b60006020828403121561214457600080fd5b61057982611e5d565b60006020828403121561215f57600080fd5b5035919050565b6000806040838503121561217957600080fd5b61218283611e5d565b9150611f0f60208401611e5d565b7f4e487b7100000000000000000000000000000000000000000000000000000000600052601160045260246000fd5b6000828210156121d1576121d1612190565b500390565b7f4e487b7100000000000000000000000000000000000000000000000000000000600052603260045260246000fd5b60007fffffffffffffffffffffffffffffffffffffffffffffffffffffffffffffffff820361223657612236612190565b5060010190565b60005b83811015612258578181015183820152602001612240565b83811115610fc85750506000910152565b7f416363657373436f6e74726f6c3a206d697373696e67202700000000000000008152600082516122a181601885016020870161223d565b7f2720726f6c6500000000000000000000000000000000000000000000000000006018939091019283015250601e01919050565b60208152600082518060208401526122f481604085016020870161223d565b601f017fffffffffffffffffffffffffffffffffffffffffffffffffffffffffffffffe0169190910160400192915050565b60006020828403121561233857600080fd5b8151801515811461057957600080fd5b60008161235757612357612190565b507fffffffffffffffffffffffffffffffffffffffffffffffffffffffffffffffff0190565b6000821982111561239057612390612190565b500190565b600080858511156123a557600080fd5b838611156123b257600080fd5b505082019391909203915056fea264697066735822122087947ccb50fc0a394f484d4f8d50a2b4fc1ff86773884c0e11fae6847ca5f4ad64736f6c634300080e0033",
  "linkReferences": {},
  "deployedLinkReferences": {}
}