{
  "_format": "hh-sol-artifact-1",
  "contractName": "ERC20SimpleMock",
  "sourceName": "contracts/mocks/token/ERC20/ERC20SimpleMock.sol",
  "abi": [
    {
      "inputs": [
        {
          "internalType": "address[]",
          "name": "holders",
          "type": "address[]"
        },
        {
          "internalType": "uint256[]",
          "name": "allocations",
          "type": "uint256[]"
        },
        {
          "internalType": "contract IForwarderRegistry",
          "name": "forwarderRegistry",
          "type": "address"
        }
      ],
      "stateMutability": "nonpayable",
      "type": "constructor"
    },
    {
      "anonymous": false,
      "inputs": [
        {
          "indexed": true,
          "internalType": "address",
          "name": "owner",
          "type": "address"
        },
        {
          "indexed": true,
          "internalType": "address",
          "name": "spender",
          "type": "address"
        },
        {
          "indexed": false,
          "internalType": "uint256",
          "name": "value",
          "type": "uint256"
        }
      ],
      "name": "Approval",
      "type": "event"
    },
    {
      "anonymous": false,
      "inputs": [
        {
          "indexed": true,
          "internalType": "address",
          "name": "previousOwner",
          "type": "address"
        },
        {
          "indexed": true,
          "internalType": "address",
          "name": "newOwner",
          "type": "address"
        }
      ],
      "name": "OwnershipTransferred",
      "type": "event"
    },
    {
      "anonymous": false,
      "inputs": [
        {
          "indexed": false,
          "internalType": "bytes32",
          "name": "role",
          "type": "bytes32"
        },
        {
          "indexed": false,
          "internalType": "address",
          "name": "account",
          "type": "address"
        },
        {
          "indexed": false,
          "internalType": "address",
          "name": "operator",
          "type": "address"
        }
      ],
      "name": "RoleGranted",
      "type": "event"
    },
    {
      "anonymous": false,
      "inputs": [
        {
          "indexed": false,
          "internalType": "bytes32",
          "name": "role",
          "type": "bytes32"
        },
        {
          "indexed": false,
          "internalType": "address",
          "name": "account",
          "type": "address"
        },
        {
          "indexed": false,
          "internalType": "address",
          "name": "operator",
          "type": "address"
        }
      ],
      "name": "RoleRevoked",
      "type": "event"
    },
    {
      "anonymous": false,
      "inputs": [
        {
          "indexed": true,
          "internalType": "address",
          "name": "from",
          "type": "address"
        },
        {
          "indexed": true,
          "internalType": "address",
          "name": "to",
          "type": "address"
        },
        {
          "indexed": false,
          "internalType": "uint256",
          "name": "value",
          "type": "uint256"
        }
      ],
      "name": "Transfer",
      "type": "event"
    },
    {
      "inputs": [],
      "name": "MINTER_ROLE",
      "outputs": [
        {
          "internalType": "bytes32",
          "name": "",
          "type": "bytes32"
        }
      ],
      "stateMutability": "view",
      "type": "function"
    },
    {
      "inputs": [],
      "name": "__msgData",
      "outputs": [
        {
          "internalType": "bytes",
          "name": "",
          "type": "bytes"
        }
      ],
      "stateMutability": "view",
      "type": "function"
    },
    {
      "inputs": [
        {
          "internalType": "address",
          "name": "owner",
          "type": "address"
        },
        {
          "internalType": "address",
          "name": "spender",
          "type": "address"
        }
      ],
      "name": "allowance",
      "outputs": [
        {
          "internalType": "uint256",
          "name": "value",
          "type": "uint256"
        }
      ],
      "stateMutability": "view",
      "type": "function"
    },
    {
      "inputs": [
        {
          "internalType": "address",
          "name": "spender",
          "type": "address"
        },
        {
          "internalType": "uint256",
          "name": "value",
          "type": "uint256"
        }
      ],
      "name": "approve",
      "outputs": [
        {
          "internalType": "bool",
          "name": "result",
          "type": "bool"
        }
      ],
      "stateMutability": "nonpayable",
      "type": "function"
    },
    {
      "inputs": [
        {
          "internalType": "address",
          "name": "owner",
          "type": "address"
        }
      ],
      "name": "balanceOf",
      "outputs": [
        {
          "internalType": "uint256",
          "name": "balance",
          "type": "uint256"
        }
      ],
      "stateMutability": "view",
      "type": "function"
    },
    {
      "inputs": [
        {
          "internalType": "address[]",
          "name": "recipients",
          "type": "address[]"
        },
        {
          "internalType": "uint256[]",
          "name": "values",
          "type": "uint256[]"
        }
      ],
      "name": "batchMint",
      "outputs": [],
      "stateMutability": "nonpayable",
      "type": "function"
    },
    {
      "inputs": [
        {
          "internalType": "address",
          "name": "spender",
          "type": "address"
        },
        {
          "internalType": "uint256",
          "name": "subtractedValue",
          "type": "uint256"
        }
      ],
      "name": "decreaseAllowance",
      "outputs": [
        {
          "internalType": "bool",
          "name": "result",
          "type": "bool"
        }
      ],
      "stateMutability": "nonpayable",
      "type": "function"
    },
    {
      "inputs": [],
      "name": "forwarderRegistry",
      "outputs": [
        {
          "internalType": "contract IForwarderRegistry",
          "name": "",
          "type": "address"
        }
      ],
      "stateMutability": "view",
      "type": "function"
    },
    {
      "inputs": [
        {
          "internalType": "bytes32",
          "name": "role",
          "type": "bytes32"
        },
        {
          "internalType": "address",
          "name": "account",
          "type": "address"
        }
      ],
      "name": "grantRole",
      "outputs": [],
      "stateMutability": "nonpayable",
      "type": "function"
    },
    {
      "inputs": [
        {
          "internalType": "bytes32",
          "name": "role",
          "type": "bytes32"
        },
        {
          "internalType": "address",
          "name": "account",
          "type": "address"
        }
      ],
      "name": "hasRole",
      "outputs": [
        {
          "internalType": "bool",
          "name": "",
          "type": "bool"
        }
      ],
      "stateMutability": "view",
      "type": "function"
    },
    {
      "inputs": [
        {
          "internalType": "address",
          "name": "spender",
          "type": "address"
        },
        {
          "internalType": "uint256",
          "name": "addedValue",
          "type": "uint256"
        }
      ],
      "name": "increaseAllowance",
      "outputs": [
        {
          "internalType": "bool",
          "name": "result",
          "type": "bool"
        }
      ],
      "stateMutability": "nonpayable",
      "type": "function"
    },
    {
      "inputs": [
        {
          "internalType": "address",
          "name": "forwarder",
          "type": "address"
        }
      ],
      "name": "isTrustedForwarder",
      "outputs": [
        {
          "internalType": "bool",
          "name": "",
          "type": "bool"
        }
      ],
      "stateMutability": "view",
      "type": "function"
    },
    {
      "inputs": [
        {
          "internalType": "address",
          "name": "to",
          "type": "address"
        },
        {
          "internalType": "uint256",
          "name": "value",
          "type": "uint256"
        }
      ],
      "name": "mint",
      "outputs": [],
      "stateMutability": "nonpayable",
      "type": "function"
    },
    {
      "inputs": [],
      "name": "owner",
      "outputs": [
        {
          "internalType": "address",
          "name": "",
          "type": "address"
        }
      ],
      "stateMutability": "view",
      "type": "function"
    },
    {
      "inputs": [
        {
          "internalType": "bytes32",
          "name": "role",
          "type": "bytes32"
        }
      ],
      "name": "renounceRole",
      "outputs": [],
      "stateMutability": "nonpayable",
      "type": "function"
    },
    {
      "inputs": [
        {
          "internalType": "bytes32",
          "name": "role",
          "type": "bytes32"
        },
        {
          "internalType": "address",
          "name": "account",
          "type": "address"
        }
      ],
      "name": "revokeRole",
      "outputs": [],
      "stateMutability": "nonpayable",
      "type": "function"
    },
    {
      "inputs": [
        {
          "internalType": "bytes4",
          "name": "interfaceId",
          "type": "bytes4"
        }
      ],
      "name": "supportsInterface",
      "outputs": [
        {
          "internalType": "bool",
          "name": "",
          "type": "bool"
        }
      ],
      "stateMutability": "view",
      "type": "function"
    },
    {
      "inputs": [],
      "name": "totalSupply",
      "outputs": [
        {
          "internalType": "uint256",
          "name": "supply",
          "type": "uint256"
        }
      ],
      "stateMutability": "view",
      "type": "function"
    },
    {
      "inputs": [
        {
          "internalType": "address",
          "name": "to",
          "type": "address"
        },
        {
          "internalType": "uint256",
          "name": "value",
          "type": "uint256"
        }
      ],
      "name": "transfer",
      "outputs": [
        {
          "internalType": "bool",
          "name": "result",
          "type": "bool"
        }
      ],
      "stateMutability": "nonpayable",
      "type": "function"
    },
    {
      "inputs": [
        {
          "internalType": "address",
          "name": "from",
          "type": "address"
        },
        {
          "internalType": "address",
          "name": "to",
          "type": "address"
        },
        {
          "internalType": "uint256",
          "name": "value",
          "type": "uint256"
        }
      ],
      "name": "transferFrom",
      "outputs": [
        {
          "internalType": "bool",
          "name": "result",
          "type": "bool"
        }
      ],
      "stateMutability": "nonpayable",
      "type": "function"
    },
    {
      "inputs": [
        {
          "internalType": "address",
          "name": "newOwner",
          "type": "address"
        }
      ],
      "name": "transferOwnership",
      "outputs": [],
      "stateMutability": "nonpayable",
      "type": "function"
    }
  ],
  "bytecode": "0x60a06040523480156200001157600080fd5b5060405162002b1038038062002b10833981016040819052620000349162000683565b808033858562000069828262000054620000c660201b620007271760201c565b620000fc60201b62000755179092919060201c565b50506200009981620000856200017f60201b620007c41760201c565b620001af60201b620007f21790919060201c565b50620000af6200024260201b620008af1760201c565b6001600160a01b0316608052506200079f92505050565b600080620000f660017f1da92899d3da68bf9787824388a37ea2bfa79780bcef91b9716c390eec8ecbef62000767565b92915050565b620001188282856200026760201b620008df179092919060201c565b60006200012f620004b960201b62000bbb1760201c565b9050620001556336372b0760e01b600183620004e960201b62000be9179092919060201c565b62000179634e83a8c360e11b600183620004e960201b62000be9179092919060201c565b50505050565b600080620000f660017fc9ed16f33ab3a66c84bfd83099ccb2a8845871e2e1c1928f63797152f0fd54cd62000767565b6001600160a01b03811615620002065781546001600160a01b0319166001600160a01b03821690811783556040516000907f8be0079c531659141344cd1fd0a4f28419497f9722a3daafe3b4186f6b6457e0908290a35b6200023e6307f5828d60e41b600162000229620004b960201b62000bbb1760201c565b620004e960201b62000be9179092919060201c565b5050565b6200026563144b1f0f60e11b600162000229620004b960201b62000bbb1760201c565b565b815181518114620002bf5760405162461bcd60e51b815260206004820152601a60248201527f45524332303a20696e636f6e73697374656e742061727261797300000000000060448201526064015b60405180910390fd5b80600003620002ce5750505050565b6000805b8281146200044a576000858281518110620002f157620002f162000789565b6020026020010151905060006001600160a01b0316816001600160a01b0316036200035f5760405162461bcd60e51b815260206004820152601960248201527f45524332303a206d696e7420746f2061646472657373283029000000000000006044820152606401620002b6565b600085838151811062000376576200037662000789565b6020026020010151905080600014620003fe57838101848111620003dd5760405162461bcd60e51b815260206004820152601660248201527f45524332303a2076616c756573206f766572666c6f77000000000000000000006044820152606401620002b6565b6001600160a01b038316600090815260208a90526040902080548301905593505b6040518181526001600160a01b038316906000907fddf252ad1be2c89b69c2b068fc378daa952ba7f163c4a11628f55a4df523b3ef9060200160405180910390a35050600101620002d2565b508015620004b2576002850154818101818111620004ab5760405162461bcd60e51b815260206004820152601660248201527f45524332303a20737570706c79206f766572666c6f77000000000000000000006044820152606401620002b6565b6002870155505b5050505050565b600080620000f660017fca9d3e17f264b0f3984e2634e94adb37fa3e6a8103f06aeae6fa59e21c769f5e62000767565b600160e01b6001600160e01b0319831601620005485760405162461bcd60e51b815260206004820152601f60248201527f496e74657266616365446574656374696f6e3a2077726f6e672076616c7565006044820152606401620002b6565b6001600160e01b03199190911660009081526020929092526040909120805460ff1916911515919091179055565b634e487b7160e01b600052604160045260246000fd5b604051601f8201601f191681016001600160401b0381118282101715620005b757620005b762000576565b604052919050565b60006001600160401b03821115620005db57620005db62000576565b5060051b60200190565b6001600160a01b0381168114620005fb57600080fd5b50565b600082601f8301126200061057600080fd5b81516020620006296200062383620005bf565b6200058c565b82815260059290921b840181019181810190868411156200064957600080fd5b8286015b848110156200066657805183529183019183016200064d565b509695505050505050565b80516200067e81620005e5565b919050565b6000806000606084860312156200069957600080fd5b83516001600160401b0380821115620006b157600080fd5b818601915086601f830112620006c657600080fd5b81516020620006d96200062383620005bf565b82815260059290921b8401810191818101908a841115620006f957600080fd5b948201945b83861015620007245785516200071481620005e5565b82529482019490820190620006fe565b918901519197509093505050808211156200073e57600080fd5b506200074d86828701620005fe565b9250506200075e6040850162000671565b90509250925092565b81810381811115620000f657634e487b7160e01b600052601160045260246000fd5b634e487b7160e01b600052603260045260246000fd5b608051612332620007de600039600081816101e20152818161028801528181611aa601528181611b2e01528181611be10152611c1f01526123326000f3fe608060405234801561001057600080fd5b50600436106101775760003560e01c806368573107116100d8578063a457c2d71161008c578063d547741f11610066578063d547741f14610366578063dd62ed3e14610379578063f2fde38b1461038c57600080fd5b8063a457c2d714610319578063a9059cbb1461032c578063d53913931461033f57600080fd5b80638bb9c5bf116100bd5780638bb9c5bf146102eb5780638da5cb5b146102fe57806391d148541461030657600080fd5b806368573107146102c557806370a08231146102d857600080fd5b80632f2ff15d1161012f5780633950935111610114578063395093511461025257806340c10f1914610265578063572b6c051461027857600080fd5b80632f2ff15d1461022757806331e66e1e1461023c57600080fd5b806318160ddd1161016057806318160ddd146101b757806323b872dd146101cd5780632b4c9f16146101e057600080fd5b806301ffc9a71461017c578063095ea7b3146101a4575b600080fd5b61018f61018a366004611ed7565b61039f565b60405190151581526020015b60405180910390f35b61018f6101b2366004611f42565b6103b9565b6101bf6103e1565b60405190815260200161019b565b61018f6101db366004611f6c565b6103fa565b7f00000000000000000000000000000000000000000000000000000000000000005b60405173ffffffffffffffffffffffffffffffffffffffff909116815260200161019b565b61023a610235366004611fa8565b610425565b005b61024461045e565b60405161019b929190611fd4565b61018f610260366004611f42565b610471565b61023a610273366004611f42565b610490565b61018f610286366004612021565b7f000000000000000000000000000000000000000000000000000000000000000073ffffffffffffffffffffffffffffffffffffffff90811691161490565b61023a6102d3366004612088565b6104e3565b6101bf6102e6366004612021565b61058d565b61023a6102f93660046120f4565b6105c5565b6102026105e3565b61018f610314366004611fa8565b61060a565b61018f610327366004611f42565b610655565b61018f61033a366004611f42565b610674565b6101bf7f6d696e746572000000000000000000000000000000000000000000000000000081565b61023a610374366004611fa8565b610693565b6101bf61038736600461210d565b6106c1565b61023a61039a366004612021565b61070c565b60006103b3826103ad610bbb565b90610cf5565b92915050565b60006103d86103c6610dcf565b84846103d0610727565b929190610dd9565b50600192915050565b60006103f56103ee610727565b6002015490565b905090565b600061041b610407610dcf565b858585610412610727565b93929190610ec8565b5060019392505050565b600061042f610dcf565b90506104438161043d6107c4565b90610f13565b610459838383610451610f96565b929190610fc4565b505050565b36600061046961109a565b915091509091565b60006103d861047e610dcf565b8484610488610727565b9291906110a5565b6104cb7f6d696e74657200000000000000000000000000000000000000000000000000006104bc610dcf565b6104c4610f96565b9190611271565b6104df82826104d8610727565b919061131d565b5050565b61050f7f6d696e74657200000000000000000000000000000000000000000000000000006104bc610dcf565b610587848480806020026020016040519081016040528093929190818152602001838360200280828437600092019190915250506040805160208088028281018201909352878252909350879250869182918501908490808284376000920191909152506105809250610727915050565b91906108df565b50505050565b60006103b38261059b610727565b9073ffffffffffffffffffffffffffffffffffffffff166000908152602091909152604090205490565b6105e06105d0610dcf565b826105d9610f96565b9190611496565b50565b60006103f56105f06107c4565b5473ffffffffffffffffffffffffffffffffffffffff1690565b600061064e8383610619610f96565b60009283526020908152604080842073ffffffffffffffffffffffffffffffffffffffff909316845291905290205460ff1690565b9392505050565b60006103d8610662610dcf565b848461066c610727565b92919061153a565b60006103d8610681610dcf565b848461068b610727565b92919061168c565b600061069d610dcf565b90506106ab8161043d6107c4565b6104598383836106b9610f96565b92919061186d565b600061064e83836106d0610727565b919073ffffffffffffffffffffffffffffffffffffffff9182166000908152600193909301602090815260408085209290931684525290205490565b6105e0610717610dcf565b826107206107c4565b9190611937565b6000806103b360017f1da92899d3da68bf9787824388a37ea2bfa79780bcef91b9716c390eec8ecbef612137565b6107608383836108df565b600061076a610bbb565b9050610798817f36372b07000000000000000000000000000000000000000000000000000000006001610be9565b610587817f9d075186000000000000000000000000000000000000000000000000000000006001610be9565b6000806103b360017fc9ed16f33ab3a66c84bfd83099ccb2a8845871e2e1c1928f63797152f0fd54cd612137565b73ffffffffffffffffffffffffffffffffffffffff81161561087a5781547fffffffffffffffffffffffff00000000000000000000000000000000000000001673ffffffffffffffffffffffffffffffffffffffff821690811783556040516000907f8be0079c531659141344cd1fd0a4f28419497f9722a3daafe3b4186f6b6457e0908290a35b6104df7f7f5828d00000000000000000000000000000000000000000000000000000000060016108a8610bbb565b9190610be9565b6108dd7f28963e1e0000000000000000000000000000000000000000000000000000000060016108a8610bbb565b565b815181518114610950576040517f08c379a000000000000000000000000000000000000000000000000000000000815260206004820152601a60248201527f45524332303a20696e636f6e73697374656e742061727261797300000000000060448201526064015b60405180910390fd5b8060000361095e5750505050565b6000805b828114610b3557600085828151811061097d5761097d612171565b60200260200101519050600073ffffffffffffffffffffffffffffffffffffffff168173ffffffffffffffffffffffffffffffffffffffff1603610a1d576040517f08c379a000000000000000000000000000000000000000000000000000000000815260206004820152601960248201527f45524332303a206d696e7420746f2061646472657373283029000000000000006044820152606401610947565b6000858381518110610a3157610a31612171565b6020026020010151905080600014610add57838101848111610aaf576040517f08c379a000000000000000000000000000000000000000000000000000000000815260206004820152601660248201527f45524332303a2076616c756573206f766572666c6f77000000000000000000006044820152606401610947565b73ffffffffffffffffffffffffffffffffffffffff8316600090815260208a90526040902080548301905593505b60405181815273ffffffffffffffffffffffffffffffffffffffff8316906000907fddf252ad1be2c89b69c2b068fc378daa952ba7f163c4a11628f55a4df523b3ef9060200160405180910390a35050600101610962565b508015610bb4576002850154818101818111610bad576040517f08c379a000000000000000000000000000000000000000000000000000000000815260206004820152601660248201527f45524332303a20737570706c79206f766572666c6f77000000000000000000006044820152606401610947565b6002870155505b5050505050565b6000806103b360017fca9d3e17f264b0f3984e2634e94adb37fa3e6a8103f06aeae6fa59e21c769f5e612137565b7c01000000000000000000000000000000000000000000000000000000007fffffffff00000000000000000000000000000000000000000000000000000000831601610c91576040517f08c379a000000000000000000000000000000000000000000000000000000000815260206004820152601f60248201527f496e74657266616365446574656374696f6e3a2077726f6e672076616c7565006044820152606401610947565b7fffffffff00000000000000000000000000000000000000000000000000000000919091166000908152602092909252604090912080547fffffffffffffffffffffffffffffffffffffffffffffffffffffffffffffff0016911515919091179055565b60007c01000000000000000000000000000000000000000000000000000000007fffffffff00000000000000000000000000000000000000000000000000000000831601610d45575060006103b3565b7ffe003659000000000000000000000000000000000000000000000000000000007fffffffff00000000000000000000000000000000000000000000000000000000831601610d96575060016103b3565b507fffffffff00000000000000000000000000000000000000000000000000000000166000908152602091909152604090205460ff1690565b60006103f5611a63565b73ffffffffffffffffffffffffffffffffffffffff8216610e56576040517f08c379a000000000000000000000000000000000000000000000000000000000815260206004820152601d60248201527f45524332303a20617070726f76616c20746f20616464726573732830290000006044820152606401610947565b73ffffffffffffffffffffffffffffffffffffffff838116600081815260018701602090815260408083209487168084529482529182902085905590518481527f8c5be1e5ebec7d5bd14f71427d1e84f3dd0314c0f7b2291e5b200ac8c7c3b92591015b60405180910390a350505050565b8373ffffffffffffffffffffffffffffffffffffffff168373ffffffffffffffffffffffffffffffffffffffff1614610f0757610f078584868461153a565b610bb48584848461168c565b815473ffffffffffffffffffffffffffffffffffffffff8281169116146104df576040517f08c379a000000000000000000000000000000000000000000000000000000000815260206004820152601860248201527f4f776e6572736869703a206e6f7420746865206f776e657200000000000000006044820152606401610947565b6000806103b360017fc8827d3282af6f37b64c3e9e6f3ac9df286ab0bb0fccd6f8661bf19adb368b23612137565b60008381526020858152604080832073ffffffffffffffffffffffffffffffffffffffff8616845290915290205460ff166105875760008381526020858152604080832073ffffffffffffffffffffffffffffffffffffffff8681168086529184529382902080547fffffffffffffffffffffffffffffffffffffffffffffffffffffffffffffff00166001179055815187815292830152918316918101919091527f2f8788117e7eff1d82e926ec794901d17c78024a50270940304540a733656f0d906060015b60405180910390a150505050565b366000610469611baa565b73ffffffffffffffffffffffffffffffffffffffff8216611122576040517f08c379a000000000000000000000000000000000000000000000000000000000815260206004820152601d60248201527f45524332303a20617070726f76616c20746f20616464726573732830290000006044820152606401610947565b73ffffffffffffffffffffffffffffffffffffffff80841660009081526001860160209081526040808320938616835292905220548115611203578082018181116111c9576040517f08c379a000000000000000000000000000000000000000000000000000000000815260206004820152601960248201527f45524332303a20616c6c6f77616e6365206f766572666c6f77000000000000006044820152606401610947565b73ffffffffffffffffffffffffffffffffffffffff8086166000908152600188016020908152604080832093881683529290522081905590505b8273ffffffffffffffffffffffffffffffffffffffff168473ffffffffffffffffffffffffffffffffffffffff167f8c5be1e5ebec7d5bd14f71427d1e84f3dd0314c0f7b2291e5b200ac8c7c3b9258360405161126291815260200190565b60405180910390a35050505050565b60008281526020848152604080832073ffffffffffffffffffffffffffffffffffffffff8516845290915290205460ff16610459576112af82611d14565b6040516020016112bf91906121c4565b604080517fffffffffffffffffffffffffffffffffffffffffffffffffffffffffffffffe0818403018152908290527f08c379a000000000000000000000000000000000000000000000000000000000825261094791600401612230565b73ffffffffffffffffffffffffffffffffffffffff821661139a576040517f08c379a000000000000000000000000000000000000000000000000000000000815260206004820152601960248201527f45524332303a206d696e7420746f2061646472657373283029000000000000006044820152606401610947565b8015611443576002830154818101818111611411576040517f08c379a000000000000000000000000000000000000000000000000000000000815260206004820152601660248201527f45524332303a20737570706c79206f766572666c6f77000000000000000000006044820152606401610947565b60028501555073ffffffffffffffffffffffffffffffffffffffff821660009081526020849052604090208054820190555b60405181815273ffffffffffffffffffffffffffffffffffffffff8316906000907fddf252ad1be2c89b69c2b068fc378daa952ba7f163c4a11628f55a4df523b3ef9060200160405180910390a3505050565b6114a1838284611271565b60008181526020848152604080832073ffffffffffffffffffffffffffffffffffffffff86168085529083529281902080547fffffffffffffffffffffffffffffffffffffffffffffffffffffffffffffff0016905580518481529182018390528101919091527ff6391f5c32d9c69d2a47ea670b442974b53935d1edc7fd64eb21e047a839171b9060600160405180910390a1505050565b73ffffffffffffffffffffffffffffffffffffffff82166115b7576040517f08c379a000000000000000000000000000000000000000000000000000000000815260206004820152601d60248201527f45524332303a20617070726f76616c20746f20616464726573732830290000006044820152606401610947565b73ffffffffffffffffffffffffffffffffffffffff80841660009081526001860160209081526040808320938616835292905220547fffffffffffffffffffffffffffffffffffffffffffffffffffffffffffffffff811480159061161b57508115155b15611203578181038181106111c9576040517f08c379a000000000000000000000000000000000000000000000000000000000815260206004820152601d60248201527f45524332303a20696e73756666696369656e7420616c6c6f77616e63650000006044820152606401610947565b73ffffffffffffffffffffffffffffffffffffffff8216611709576040517f08c379a000000000000000000000000000000000000000000000000000000000815260206004820152601d60248201527f45524332303a207472616e7366657220746f20616464726573732830290000006044820152606401610947565b801561180e5773ffffffffffffffffffffffffffffffffffffffff83166000908152602085905260409020548181038181106117a1576040517f08c379a000000000000000000000000000000000000000000000000000000000815260206004820152601b60248201527f45524332303a20696e73756666696369656e742062616c616e636500000000006044820152606401610947565b8373ffffffffffffffffffffffffffffffffffffffff168573ffffffffffffffffffffffffffffffffffffffff161461180b5773ffffffffffffffffffffffffffffffffffffffff8086166000908152602088905260408082208490559186168152208054840190555b50505b8173ffffffffffffffffffffffffffffffffffffffff168373ffffffffffffffffffffffffffffffffffffffff167fddf252ad1be2c89b69c2b068fc378daa952ba7f163c4a11628f55a4df523b3ef83604051610eba91815260200190565b60008381526020858152604080832073ffffffffffffffffffffffffffffffffffffffff8616845290915290205460ff16156105875760008381526020858152604080832073ffffffffffffffffffffffffffffffffffffffff8681168086529184529382902080547fffffffffffffffffffffffffffffffffffffffffffffffffffffffffffffff00169055815187815292830152918316918101919091527ff6391f5c32d9c69d2a47ea670b442974b53935d1edc7fd64eb21e047a839171b9060600161108c565b825473ffffffffffffffffffffffffffffffffffffffff90811690831681146119bc576040517f08c379a000000000000000000000000000000000000000000000000000000000815260206004820152601860248201527f4f776e6572736869703a206e6f7420746865206f776e657200000000000000006044820152606401610947565b8173ffffffffffffffffffffffffffffffffffffffff168173ffffffffffffffffffffffffffffffffffffffff16146105875783547fffffffffffffffffffffffff00000000000000000000000000000000000000001673ffffffffffffffffffffffffffffffffffffffff8381169182178655604051908316907f8be0079c531659141344cd1fd0a4f28419497f9722a3daafe3b4186f6b6457e090600090a350505050565b600033321480611a735750601836105b15611a7d57503390565b7fffffffffffffffffffffffffffffffffffffffffffffffffffffffffffffffec36013560601c7f000000000000000000000000000000000000000000000000000000000000000073ffffffffffffffffffffffffffffffffffffffff16331480611b9957506040517f8929a8ca00000000000000000000000000000000000000000000000000000000815273ffffffffffffffffffffffffffffffffffffffff82811660048301523360248301527f00000000000000000000000000000000000000000000000000000000000000001690638929a8ca90604401602060405180830381865afa158015611b75573d6000803e3d6000fd5b505050506040513d601f19601f82011682018060405250810190611b999190612281565b15611ba357919050565b3391505090565b36600033321480611bbb5750601836105b15611bc95750600091369150565b3373ffffffffffffffffffffffffffffffffffffffff7f0000000000000000000000000000000000000000000000000000000000000000161480611cfe575073ffffffffffffffffffffffffffffffffffffffff7f000000000000000000000000000000000000000000000000000000000000000016638929a8ca367fffffffffffffffffffffffffffffffffffffffffffffffffffffffffffffffec013560601c6040517fffffffff0000000000000000000000000000000000000000000000000000000060e084901b16815273ffffffffffffffffffffffffffffffffffffffff9091166004820152336024820152604401602060405180830381865afa158015611cda573d6000803e3d6000fd5b505050506040513d601f19601f82011682018060405250810190611cfe9190612281565b15611d0b57610469611ea6565b50600091369150565b60606000829003611d3357505060408051602081019091526000815290565b600082604051602001611d4891815260200190565b604080517fffffffffffffffffffffffffffffffffffffffffffffffffffffffffffffffe08184030181529190529050601f5b818181518110611d8d57611d8d612171565b01602001517fff0000000000000000000000000000000000000000000000000000000000000016600003611de2577fffffffffffffffffffffffffffffffffffffffffffffffffffffffffffffffff01611d7b565b60008160010167ffffffffffffffff811115611e0057611e006122a3565b6040519080825280601f01601f191660200182016040528015611e2a576020820181803683370190505b50905060005b828111611e9d57838181518110611e4957611e49612171565b602001015160f81c60f81b828281518110611e6657611e66612171565b60200101907effffffffffffffffffffffffffffffffffffffffffffffffffffffffffffff1916908160001a905350600101611e30565b50949350505050565b3660006104697fffffffffffffffffffffffffffffffffffffffffffffffffffffffffffffffec83018284816122d2565b600060208284031215611ee957600080fd5b81357fffffffff000000000000000000000000000000000000000000000000000000008116811461064e57600080fd5b803573ffffffffffffffffffffffffffffffffffffffff81168114611f3d57600080fd5b919050565b60008060408385031215611f5557600080fd5b611f5e83611f19565b946020939093013593505050565b600080600060608486031215611f8157600080fd5b611f8a84611f19565b9250611f9860208501611f19565b9150604084013590509250925092565b60008060408385031215611fbb57600080fd5b82359150611fcb60208401611f19565b90509250929050565b60208152816020820152818360408301376000818301604090810191909152601f9092017fffffffffffffffffffffffffffffffffffffffffffffffffffffffffffffffe0160101919050565b60006020828403121561203357600080fd5b61064e82611f19565b60008083601f84011261204e57600080fd5b50813567ffffffffffffffff81111561206657600080fd5b6020830191508360208260051b850101111561208157600080fd5b9250929050565b6000806000806040858703121561209e57600080fd5b843567ffffffffffffffff808211156120b657600080fd5b6120c28883890161203c565b909650945060208701359150808211156120db57600080fd5b506120e88782880161203c565b95989497509550505050565b60006020828403121561210657600080fd5b5035919050565b6000806040838503121561212057600080fd5b61212983611f19565b9150611fcb60208401611f19565b818103818111156103b3577f4e487b7100000000000000000000000000000000000000000000000000000000600052601160045260246000fd5b7f4e487b7100000000000000000000000000000000000000000000000000000000600052603260045260246000fd5b60005b838110156121bb5781810151838201526020016121a3565b50506000910152565b7f416363657373436f6e74726f6c3a206d697373696e67202700000000000000008152600082516121fc8160188501602087016121a0565b7f2720726f6c6500000000000000000000000000000000000000000000000000006018939091019283015250601e01919050565b602081526000825180602084015261224f8160408501602087016121a0565b601f017fffffffffffffffffffffffffffffffffffffffffffffffffffffffffffffffe0169190910160400192915050565b60006020828403121561229357600080fd5b8151801515811461064e57600080fd5b7f4e487b7100000000000000000000000000000000000000000000000000000000600052604160045260246000fd5b600080858511156122e257600080fd5b838611156122ef57600080fd5b505082019391909203915056fea2646970667358221220b528238d7b6c925bd3163019afd96f9611a1335399a7cc915766f1a9ce03dec564736f6c63430008100033",
  "linkReferences": {},
  "deployedLinkReferences": {}
}