{
  "_format": "hh-sol-artifact-1",
  "contractName": "ERC20SimpleMock",
  "sourceName": "contracts/mocks/token/ERC20/ERC20SimpleMock.sol",
  "abi": [
    {
      "inputs": [
        {
          "internalType": "address[]",
          "name": "holders",
          "type": "address[]"
        },
        {
          "internalType": "uint256[]",
          "name": "allocations",
          "type": "uint256[]"
        }
      ],
      "stateMutability": "nonpayable",
      "type": "constructor"
    },
    {
      "anonymous": false,
      "inputs": [
        {
          "indexed": true,
          "internalType": "address",
          "name": "owner",
          "type": "address"
        },
        {
          "indexed": true,
          "internalType": "address",
          "name": "spender",
          "type": "address"
        },
        {
          "indexed": false,
          "internalType": "uint256",
          "name": "value",
          "type": "uint256"
        }
      ],
      "name": "Approval",
      "type": "event"
    },
    {
      "anonymous": false,
      "inputs": [
        {
          "indexed": true,
          "internalType": "address",
          "name": "previousOwner",
          "type": "address"
        },
        {
          "indexed": true,
          "internalType": "address",
          "name": "newOwner",
          "type": "address"
        }
      ],
      "name": "OwnershipTransferred",
      "type": "event"
    },
    {
      "anonymous": false,
      "inputs": [
        {
          "indexed": false,
          "internalType": "bytes32",
          "name": "role",
          "type": "bytes32"
        },
        {
          "indexed": false,
          "internalType": "address",
          "name": "account",
          "type": "address"
        },
        {
          "indexed": false,
          "internalType": "address",
          "name": "operator",
          "type": "address"
        }
      ],
      "name": "RoleGranted",
      "type": "event"
    },
    {
      "anonymous": false,
      "inputs": [
        {
          "indexed": false,
          "internalType": "bytes32",
          "name": "role",
          "type": "bytes32"
        },
        {
          "indexed": false,
          "internalType": "address",
          "name": "account",
          "type": "address"
        },
        {
          "indexed": false,
          "internalType": "address",
          "name": "operator",
          "type": "address"
        }
      ],
      "name": "RoleRevoked",
      "type": "event"
    },
    {
      "anonymous": false,
      "inputs": [
        {
          "indexed": true,
          "internalType": "address",
          "name": "from",
          "type": "address"
        },
        {
          "indexed": true,
          "internalType": "address",
          "name": "to",
          "type": "address"
        },
        {
          "indexed": false,
          "internalType": "uint256",
          "name": "value",
          "type": "uint256"
        }
      ],
      "name": "Transfer",
      "type": "event"
    },
    {
      "inputs": [],
      "name": "MINTER_ROLE",
      "outputs": [
        {
          "internalType": "bytes32",
          "name": "",
          "type": "bytes32"
        }
      ],
      "stateMutability": "view",
      "type": "function"
    },
    {
      "inputs": [
        {
          "internalType": "address",
          "name": "owner",
          "type": "address"
        },
        {
          "internalType": "address",
          "name": "spender",
          "type": "address"
        }
      ],
      "name": "allowance",
      "outputs": [
        {
          "internalType": "uint256",
          "name": "",
          "type": "uint256"
        }
      ],
      "stateMutability": "view",
      "type": "function"
    },
    {
      "inputs": [
        {
          "internalType": "address",
          "name": "spender",
          "type": "address"
        },
        {
          "internalType": "uint256",
          "name": "value",
          "type": "uint256"
        }
      ],
      "name": "approve",
      "outputs": [
        {
          "internalType": "bool",
          "name": "",
          "type": "bool"
        }
      ],
      "stateMutability": "nonpayable",
      "type": "function"
    },
    {
      "inputs": [
        {
          "internalType": "address",
          "name": "account",
          "type": "address"
        }
      ],
      "name": "balanceOf",
      "outputs": [
        {
          "internalType": "uint256",
          "name": "",
          "type": "uint256"
        }
      ],
      "stateMutability": "view",
      "type": "function"
    },
    {
      "inputs": [
        {
          "internalType": "address[]",
          "name": "recipients",
          "type": "address[]"
        },
        {
          "internalType": "uint256[]",
          "name": "values",
          "type": "uint256[]"
        }
      ],
      "name": "batchMint",
      "outputs": [],
      "stateMutability": "nonpayable",
      "type": "function"
    },
    {
      "inputs": [
        {
          "internalType": "address",
          "name": "spender",
          "type": "address"
        },
        {
          "internalType": "uint256",
          "name": "subtractedValue",
          "type": "uint256"
        }
      ],
      "name": "decreaseAllowance",
      "outputs": [
        {
          "internalType": "bool",
          "name": "",
          "type": "bool"
        }
      ],
      "stateMutability": "nonpayable",
      "type": "function"
    },
    {
      "inputs": [
        {
          "internalType": "bytes32",
          "name": "role",
          "type": "bytes32"
        },
        {
          "internalType": "address",
          "name": "account",
          "type": "address"
        }
      ],
      "name": "grantRole",
      "outputs": [],
      "stateMutability": "nonpayable",
      "type": "function"
    },
    {
      "inputs": [
        {
          "internalType": "bytes32",
          "name": "role",
          "type": "bytes32"
        },
        {
          "internalType": "address",
          "name": "account",
          "type": "address"
        }
      ],
      "name": "hasRole",
      "outputs": [
        {
          "internalType": "bool",
          "name": "",
          "type": "bool"
        }
      ],
      "stateMutability": "view",
      "type": "function"
    },
    {
      "inputs": [
        {
          "internalType": "address",
          "name": "spender",
          "type": "address"
        },
        {
          "internalType": "uint256",
          "name": "addedValue",
          "type": "uint256"
        }
      ],
      "name": "increaseAllowance",
      "outputs": [
        {
          "internalType": "bool",
          "name": "",
          "type": "bool"
        }
      ],
      "stateMutability": "nonpayable",
      "type": "function"
    },
    {
      "inputs": [
        {
          "internalType": "address",
          "name": "to",
          "type": "address"
        },
        {
          "internalType": "uint256",
          "name": "value",
          "type": "uint256"
        }
      ],
      "name": "mint",
      "outputs": [],
      "stateMutability": "nonpayable",
      "type": "function"
    },
    {
      "inputs": [],
      "name": "owner",
      "outputs": [
        {
          "internalType": "address",
          "name": "",
          "type": "address"
        }
      ],
      "stateMutability": "view",
      "type": "function"
    },
    {
      "inputs": [
        {
          "internalType": "bytes32",
          "name": "role",
          "type": "bytes32"
        }
      ],
      "name": "renounceRole",
      "outputs": [],
      "stateMutability": "nonpayable",
      "type": "function"
    },
    {
      "inputs": [
        {
          "internalType": "bytes32",
          "name": "role",
          "type": "bytes32"
        },
        {
          "internalType": "address",
          "name": "account",
          "type": "address"
        }
      ],
      "name": "revokeRole",
      "outputs": [],
      "stateMutability": "nonpayable",
      "type": "function"
    },
    {
      "inputs": [
        {
          "internalType": "bytes4",
          "name": "interfaceId",
          "type": "bytes4"
        }
      ],
      "name": "supportsInterface",
      "outputs": [
        {
          "internalType": "bool",
          "name": "",
          "type": "bool"
        }
      ],
      "stateMutability": "view",
      "type": "function"
    },
    {
      "inputs": [],
      "name": "totalSupply",
      "outputs": [
        {
          "internalType": "uint256",
          "name": "",
          "type": "uint256"
        }
      ],
      "stateMutability": "view",
      "type": "function"
    },
    {
      "inputs": [
        {
          "internalType": "address",
          "name": "to",
          "type": "address"
        },
        {
          "internalType": "uint256",
          "name": "value",
          "type": "uint256"
        }
      ],
      "name": "transfer",
      "outputs": [
        {
          "internalType": "bool",
          "name": "",
          "type": "bool"
        }
      ],
      "stateMutability": "nonpayable",
      "type": "function"
    },
    {
      "inputs": [
        {
          "internalType": "address",
          "name": "from",
          "type": "address"
        },
        {
          "internalType": "address",
          "name": "to",
          "type": "address"
        },
        {
          "internalType": "uint256",
          "name": "value",
          "type": "uint256"
        }
      ],
      "name": "transferFrom",
      "outputs": [
        {
          "internalType": "bool",
          "name": "",
          "type": "bool"
        }
      ],
      "stateMutability": "nonpayable",
      "type": "function"
    },
    {
      "inputs": [
        {
          "internalType": "address",
          "name": "newOwner",
          "type": "address"
        }
      ],
      "name": "transferOwnership",
      "outputs": [],
      "stateMutability": "nonpayable",
      "type": "function"
    }
  ],
  "bytecode": "0x60806040523480156200001157600080fd5b50604051620028913803806200289183398101604081905262000034916200078c565b338282620000678282620000526200010260201b620005bb1760201c565b6200013860201b620005e9179092919060201c565b50506200009362000082620001e660201b620006881760201c565b6200021660201b620006b61760201c565b620000c181620000ad6200026e60201b620007101760201c565b6200029e60201b6200073e1790919060201c565b50620000fa63144b1f0f60e11b6001620000e5620001e660201b620006881760201c565b6200034d60201b62000822179092919060201c565b5050620008cc565b6000806200013260017f9b108a3a4d1bf9fcaf11faf730c194adcf4de5409616cf7026e57018b2743c2662000880565b92915050565b6200017f6200016960017fbf8178f96cb346c7aa2973a71aa437d56873dd3ed827751d2dd2abe6f717100762000880565b60001b6001620003db60201b620009171760201c565b6200019b8282856200044e60201b62000987179092919060201c565b620001be6336372b0760e01b6001620000e5620001e660201b620006881760201c565b620001e1634e83a8c360e11b6001620000e5620001e660201b620006881760201c565b505050565b6000806200013260017f7180ffa89c91cf90d6c56dacabfc69bc5e36f3099d7eed2f5cc12c5dba016fe062000880565b620002476200016960017f947245cdabe12ef4c13574b38217b361de48f57dd2dc345f43703c79bac2873d62000880565b6200026b6301ffc9a760e01b6001836200034d60201b62000822179092919060201c565b50565b6000806200013260017f6a1da6973104ff7dedb9b4f5cab5830b3f4a0284ed754366cfc45568bd2d38df62000880565b620002cf6200016960017ff1e2f4de496ffe5d046d751d8ec3c329ee011c6c6a229322971a7e02a207f97362000880565b6001600160a01b03811615620003265781546001600160a01b0319166001600160a01b03821690811783556040516000907f8be0079c531659141344cd1fd0a4f28419497f9722a3daafe3b4186f6b6457e0908290a35b620003496307f5828d60e41b6001620000e5620001e660201b620006881760201c565b5050565b6001600160e01b03198083169003620003ad5760405162461bcd60e51b815260206004820152601f60248201527f496e74657266616365446574656374696f6e3a2077726f6e672076616c75650060448201526064015b60405180910390fd5b6001600160e01b03199190911660009081526020929092526040909120805460ff1916911515919091179055565b6000620003f383620006a760201b62000c671760201c565b9050818160000154106200044a5760405162461bcd60e51b815260206004820152601860248201527f53746f726167653a2076657273696f6e207265616368656400000000000000006044820152606401620003a4565b5550565b815181518114620004a25760405162461bcd60e51b815260206004820152601a60248201527f45524332303a20696e636f6e73697374656e74206172726179730000000000006044820152606401620003a4565b80600003620004b15750505050565b6000805b82811462000638576000858281518110620004d457620004d46200089a565b6020026020010151905060006001600160a01b0316816001600160a01b031603620005425760405162461bcd60e51b815260206004820152601360248201527f45524332303a206d696e7420746f207a65726f000000000000000000000000006044820152606401620003a4565b60008583815181106200055957620005596200089a565b6020026020010151905080600014620005e157838101848111620005c05760405162461bcd60e51b815260206004820152601660248201527f45524332303a2076616c756573206f766572666c6f77000000000000000000006044820152606401620003a4565b6001600160a01b038316600090815260208a90526040902080548301905593505b6040518181526001600160a01b038316906000907fddf252ad1be2c89b69c2b068fc378daa952ba7f163c4a11628f55a4df523b3ef9060200160405180910390a35050806200063090620008b0565b9050620004b5565b508015620006a0576002850154818101818111620006995760405162461bcd60e51b815260206004820152601660248201527f45524332303a20737570706c79206f766572666c6f77000000000000000000006044820152606401620003a4565b6002870155505b5050505050565b90565b634e487b7160e01b600052604160045260246000fd5b604051601f8201601f191681016001600160401b0381118282101715620006eb57620006eb620006aa565b604052919050565b60006001600160401b038211156200070f576200070f620006aa565b5060051b60200190565b600082601f8301126200072b57600080fd5b81516020620007446200073e83620006f3565b620006c0565b82815260059290921b840181019181810190868411156200076457600080fd5b8286015b8481101562000781578051835291830191830162000768565b509695505050505050565b60008060408385031215620007a057600080fd5b82516001600160401b0380821115620007b857600080fd5b818501915085601f830112620007cd57600080fd5b81516020620007e06200073e83620006f3565b82815260059290921b840181019181810190898411156200080057600080fd5b948201945b83861015620008375785516001600160a01b0381168114620008275760008081fd5b8252948201949082019062000805565b918801519196509093505050808211156200085157600080fd5b50620008608582860162000719565b9150509250929050565b634e487b7160e01b600052601160045260246000fd5b6000828210156200089557620008956200086a565b500390565b634e487b7160e01b600052603260045260246000fd5b600060018201620008c557620008c56200086a565b5060010190565b611fb580620008dc6000396000f3fe608060405234801561001057600080fd5b50600436106101365760003560e01c80638bb9c5bf116100b2578063a9059cbb11610081578063d547741f11610066578063d547741f146102a0578063dd62ed3e146102b3578063f2fde38b146102c657600080fd5b8063a9059cbb14610266578063d53913931461027957600080fd5b80638bb9c5bf146102005780638da5cb5b1461021357806391d1485414610240578063a457c2d71461025357600080fd5b80632f2ff15d1161010957806340c10f19116100ee57806340c10f19146101c757806368573107146101da57806370a08231146101ed57600080fd5b80632f2ff15d1461019f57806339509351146101b457600080fd5b806301ffc9a71461013b578063095ea7b31461016357806318160ddd1461017657806323b872dd1461018c575b600080fd5b61014e610149366004611a74565b6102d9565b60405190151581526020015b60405180910390f35b61014e610171366004611adf565b610326565b61017e610347565b60405190815260200161015a565b61014e61019a366004611b09565b61035a565b6101b26101ad366004611b45565b61037e565b005b61014e6101c2366004611adf565b6103ac565b6101b26101d5366004611adf565b6103c4565b6101b26101e8366004611c7e565b610411565b61017e6101fb366004611d3e565b61044f565b6101b261020e366004611d59565b610485565b61021b61049c565b60405173ffffffffffffffffffffffffffffffffffffffff909116815260200161015a565b61014e61024e366004611b45565b6104c2565b61014e610261366004611adf565b61050d565b61014e610274366004611adf565b610525565b61017e7f6d696e746572000000000000000000000000000000000000000000000000000081565b6101b26102ae366004611b45565b61053d565b61017e6102c1366004611d72565b610560565b6101b26102d4366004611d3e565b6105a7565b6000610320826102e7610688565b907fffffffff00000000000000000000000000000000000000000000000000000000166000908152602091909152604090205460ff1690565b92915050565b600061033e3384846103366105bb565b929190610c6a565b50600192915050565b60006103516105bb565b60020154905090565b60006103743385858561036b6105bb565b93929190610d59565b5060019392505050565b336103918161038b610710565b90610da4565b6103a783838361039f610e27565b929190610e55565b505050565b600061033e3384846103bc6105bb565b929190610f2c565b6103f97f6d696e7465720000000000000000000000000000000000000000000000000000335b6103f2610e27565b91906110f8565b61040d82826104066105bb565b91906111a4565b5050565b61043b7f6d696e7465720000000000000000000000000000000000000000000000000000336103ea565b61040d82826104486105bb565b9190610987565b60006104596105bb565b73ffffffffffffffffffffffffffffffffffffffff909216600090815260209290925250604090205490565b6104993382610492610e27565b919061131d565b50565b60006104a6610710565b5473ffffffffffffffffffffffffffffffffffffffff16919050565b600061050683836104d1610e27565b60009283526020908152604080842073ffffffffffffffffffffffffffffffffffffffff909316845291905290205460ff1690565b9392505050565b600061033e33848461051d6105bb565b9291906113c1565b600061033e3384846105356105bb565b929190611513565b3361054a8161038b610710565b6103a7838383610558610e27565b9291906116f4565b600061056a6105bb565b73ffffffffffffffffffffffffffffffffffffffff9384166000908152600191909101602090815260408083209490951682529290925250205490565b61049933826105b4610710565b91906117be565b60008061032060017f9b108a3a4d1bf9fcaf11faf730c194adcf4de5409616cf7026e57018b2743c26611dcb565b61061e61061760017fbf8178f96cb346c7aa2973a71aa437d56873dd3ed827751d2dd2abe6f7171007611dcb565b6001610917565b610629838383610987565b61065e7f36372b07000000000000000000000000000000000000000000000000000000006001610657610688565b9190610822565b6103a77f9d0751860000000000000000000000000000000000000000000000000000000060016106575b60008061032060017f7180ffa89c91cf90d6c56dacabfc69bc5e36f3099d7eed2f5cc12c5dba016fe0611dcb565b6106e461061760017f947245cdabe12ef4c13574b38217b361de48f57dd2dc345f43703c79bac2873d611dcb565b610499817f01ffc9a7000000000000000000000000000000000000000000000000000000006001610822565b60008061032060017f6a1da6973104ff7dedb9b4f5cab5830b3f4a0284ed754366cfc45568bd2d38df611dcb565b61076c61061760017ff1e2f4de496ffe5d046d751d8ec3c329ee011c6c6a229322971a7e02a207f973611dcb565b73ffffffffffffffffffffffffffffffffffffffff8116156107f45781547fffffffffffffffffffffffff00000000000000000000000000000000000000001673ffffffffffffffffffffffffffffffffffffffff821690811783556040516000907f8be0079c531659141344cd1fd0a4f28419497f9722a3daafe3b4186f6b6457e0908290a35b61040d7f7f5828d0000000000000000000000000000000000000000000000000000000006001610657610688565b7fffffffff0000000000000000000000000000000000000000000000000000000080831690036108b3576040517f08c379a000000000000000000000000000000000000000000000000000000000815260206004820152601f60248201527f496e74657266616365446574656374696f6e3a2077726f6e672076616c75650060448201526064015b60405180910390fd5b7fffffffff00000000000000000000000000000000000000000000000000000000919091166000908152602092909252604090912080547fffffffffffffffffffffffffffffffffffffffffffffffffffffffffffffff0016911515919091179055565b815482908211610983576040517f08c379a000000000000000000000000000000000000000000000000000000000815260206004820152601860248201527f53746f726167653a2076657273696f6e2072656163686564000000000000000060448201526064016108aa565b5550565b8151815181146109f3576040517f08c379a000000000000000000000000000000000000000000000000000000000815260206004820152601a60248201527f45524332303a20696e636f6e73697374656e742061727261797300000000000060448201526064016108aa565b80600003610a015750505050565b6000805b828114610be1576000858281518110610a2057610a20611de2565b60200260200101519050600073ffffffffffffffffffffffffffffffffffffffff168173ffffffffffffffffffffffffffffffffffffffff1603610ac0576040517f08c379a000000000000000000000000000000000000000000000000000000000815260206004820152601360248201527f45524332303a206d696e7420746f207a65726f0000000000000000000000000060448201526064016108aa565b6000858381518110610ad457610ad4611de2565b6020026020010151905080600014610b8057838101848111610b52576040517f08c379a000000000000000000000000000000000000000000000000000000000815260206004820152601660248201527f45524332303a2076616c756573206f766572666c6f770000000000000000000060448201526064016108aa565b73ffffffffffffffffffffffffffffffffffffffff8316600090815260208a90526040902080548301905593505b60405181815273ffffffffffffffffffffffffffffffffffffffff8316906000907fddf252ad1be2c89b69c2b068fc378daa952ba7f163c4a11628f55a4df523b3ef9060200160405180910390a3505080610bda90611e11565b9050610a05565b508015610c60576002850154818101818111610c59576040517f08c379a000000000000000000000000000000000000000000000000000000000815260206004820152601660248201527f45524332303a20737570706c79206f766572666c6f770000000000000000000060448201526064016108aa565b6002870155505b5050505050565b90565b73ffffffffffffffffffffffffffffffffffffffff8216610ce7576040517f08c379a000000000000000000000000000000000000000000000000000000000815260206004820152601b60248201527f45524332303a207a65726f2061646472657373207370656e646572000000000060448201526064016108aa565b73ffffffffffffffffffffffffffffffffffffffff838116600081815260018701602090815260408083209487168084529482529182902085905590518481527f8c5be1e5ebec7d5bd14f71427d1e84f3dd0314c0f7b2291e5b200ac8c7c3b92591015b60405180910390a350505050565b8373ffffffffffffffffffffffffffffffffffffffff168373ffffffffffffffffffffffffffffffffffffffff1614610d9857610d98858486846113c1565b610c6085848484611513565b815473ffffffffffffffffffffffffffffffffffffffff82811691161461040d576040517f08c379a000000000000000000000000000000000000000000000000000000000815260206004820152601860248201527f4f776e6572736869703a206e6f7420746865206f776e6572000000000000000060448201526064016108aa565b60008061032060017fc8a24fbf085abf1493c5f225802d03df3ece6cd19f18edff36c56d854cddac9e611dcb565b60008381526020858152604080832073ffffffffffffffffffffffffffffffffffffffff8616845290915290205460ff16610f265760008381526020858152604080832073ffffffffffffffffffffffffffffffffffffffff8681168086529184529382902080547fffffffffffffffffffffffffffffffffffffffffffffffffffffffffffffff00166001179055815187815292830152918316918101919091527f2f8788117e7eff1d82e926ec794901d17c78024a50270940304540a733656f0d906060015b60405180910390a15b50505050565b73ffffffffffffffffffffffffffffffffffffffff8216610fa9576040517f08c379a000000000000000000000000000000000000000000000000000000000815260206004820152601b60248201527f45524332303a207a65726f2061646472657373207370656e646572000000000060448201526064016108aa565b73ffffffffffffffffffffffffffffffffffffffff8084166000908152600186016020908152604080832093861683529290522054811561108a57808201818111611050576040517f08c379a000000000000000000000000000000000000000000000000000000000815260206004820152601960248201527f45524332303a20616c6c6f77616e6365206f766572666c6f770000000000000060448201526064016108aa565b73ffffffffffffffffffffffffffffffffffffffff8086166000908152600188016020908152604080832093881683529290522081905590505b8273ffffffffffffffffffffffffffffffffffffffff168473ffffffffffffffffffffffffffffffffffffffff167f8c5be1e5ebec7d5bd14f71427d1e84f3dd0314c0f7b2291e5b200ac8c7c3b925836040516110e991815260200190565b60405180910390a35050505050565b60008281526020848152604080832073ffffffffffffffffffffffffffffffffffffffff8516845290915290205460ff166103a757611136826118ea565b6040516020016111469190611e75565b604080517fffffffffffffffffffffffffffffffffffffffffffffffffffffffffffffffe0818403018152908290527f08c379a00000000000000000000000000000000000000000000000000000000082526108aa91600401611ee1565b73ffffffffffffffffffffffffffffffffffffffff8216611221576040517f08c379a000000000000000000000000000000000000000000000000000000000815260206004820152601360248201527f45524332303a206d696e7420746f207a65726f0000000000000000000000000060448201526064016108aa565b80156112ca576002830154818101818111611298576040517f08c379a000000000000000000000000000000000000000000000000000000000815260206004820152601660248201527f45524332303a20737570706c79206f766572666c6f770000000000000000000060448201526064016108aa565b60028501555073ffffffffffffffffffffffffffffffffffffffff821660009081526020849052604090208054820190555b60405181815273ffffffffffffffffffffffffffffffffffffffff8316906000907fddf252ad1be2c89b69c2b068fc378daa952ba7f163c4a11628f55a4df523b3ef9060200160405180910390a3505050565b6113288382846110f8565b60008181526020848152604080832073ffffffffffffffffffffffffffffffffffffffff86168085529083529281902080547fffffffffffffffffffffffffffffffffffffffffffffffffffffffffffffff0016905580518481529182018390528101919091527ff6391f5c32d9c69d2a47ea670b442974b53935d1edc7fd64eb21e047a839171b9060600160405180910390a1505050565b73ffffffffffffffffffffffffffffffffffffffff821661143e576040517f08c379a000000000000000000000000000000000000000000000000000000000815260206004820152601b60248201527f45524332303a207a65726f2061646472657373207370656e646572000000000060448201526064016108aa565b73ffffffffffffffffffffffffffffffffffffffff80841660009081526001860160209081526040808320938616835292905220547fffffffffffffffffffffffffffffffffffffffffffffffffffffffffffffffff81148015906114a257508115155b1561108a57818103818110611050576040517f08c379a000000000000000000000000000000000000000000000000000000000815260206004820152601d60248201527f45524332303a20696e73756666696369656e7420616c6c6f77616e636500000060448201526064016108aa565b73ffffffffffffffffffffffffffffffffffffffff8216611590576040517f08c379a000000000000000000000000000000000000000000000000000000000815260206004820152601660248201527f45524332303a20746f207a65726f20616464726573730000000000000000000060448201526064016108aa565b80156116955773ffffffffffffffffffffffffffffffffffffffff8316600090815260208590526040902054818103818110611628576040517f08c379a000000000000000000000000000000000000000000000000000000000815260206004820152601b60248201527f45524332303a20696e73756666696369656e742062616c616e6365000000000060448201526064016108aa565b8373ffffffffffffffffffffffffffffffffffffffff168573ffffffffffffffffffffffffffffffffffffffff16146116925773ffffffffffffffffffffffffffffffffffffffff8086166000908152602088905260408082208490559186168152208054840190555b50505b8173ffffffffffffffffffffffffffffffffffffffff168373ffffffffffffffffffffffffffffffffffffffff167fddf252ad1be2c89b69c2b068fc378daa952ba7f163c4a11628f55a4df523b3ef83604051610d4b91815260200190565b60008381526020858152604080832073ffffffffffffffffffffffffffffffffffffffff8616845290915290205460ff1615610f265760008381526020858152604080832073ffffffffffffffffffffffffffffffffffffffff8681168086529184529382902080547fffffffffffffffffffffffffffffffffffffffffffffffffffffffffffffff00169055815187815292830152918316918101919091527ff6391f5c32d9c69d2a47ea670b442974b53935d1edc7fd64eb21e047a839171b90606001610f1d565b825473ffffffffffffffffffffffffffffffffffffffff9081169083168114611843576040517f08c379a000000000000000000000000000000000000000000000000000000000815260206004820152601860248201527f4f776e6572736869703a206e6f7420746865206f776e6572000000000000000060448201526064016108aa565b8173ffffffffffffffffffffffffffffffffffffffff168173ffffffffffffffffffffffffffffffffffffffff1614610f265783547fffffffffffffffffffffffff00000000000000000000000000000000000000001673ffffffffffffffffffffffffffffffffffffffff8381169182178655604051908316907f8be0079c531659141344cd1fd0a4f28419497f9722a3daafe3b4186f6b6457e090600090a350505050565b6060600082900361190957505060408051602081019091526000815290565b60008260405160200161191e91815260200190565b604080517fffffffffffffffffffffffffffffffffffffffffffffffffffffffffffffffe08184030181529190529050601f5b81818151811061196357611963611de2565b01602001517fff00000000000000000000000000000000000000000000000000000000000000166000036119a15761199a81611f32565b9050611951565b60006119ae826001611f67565b67ffffffffffffffff8111156119c6576119c6611b71565b6040519080825280601f01601f1916602001820160405280156119f0576020820181803683370190505b50905060005b828111611a6b57838181518110611a0f57611a0f611de2565b602001015160f81c60f81b828281518110611a2c57611a2c611de2565b60200101907effffffffffffffffffffffffffffffffffffffffffffffffffffffffffffff1916908160001a905350611a6481611e11565b90506119f6565b50949350505050565b600060208284031215611a8657600080fd5b81357fffffffff000000000000000000000000000000000000000000000000000000008116811461050657600080fd5b803573ffffffffffffffffffffffffffffffffffffffff81168114611ada57600080fd5b919050565b60008060408385031215611af257600080fd5b611afb83611ab6565b946020939093013593505050565b600080600060608486031215611b1e57600080fd5b611b2784611ab6565b9250611b3560208501611ab6565b9150604084013590509250925092565b60008060408385031215611b5857600080fd5b82359150611b6860208401611ab6565b90509250929050565b7f4e487b7100000000000000000000000000000000000000000000000000000000600052604160045260246000fd5b604051601f82017fffffffffffffffffffffffffffffffffffffffffffffffffffffffffffffffe016810167ffffffffffffffff81118282101715611be757611be7611b71565b604052919050565b600067ffffffffffffffff821115611c0957611c09611b71565b5060051b60200190565b600082601f830112611c2457600080fd5b81356020611c39611c3483611bef565b611ba0565b82815260059290921b84018101918181019086841115611c5857600080fd5b8286015b84811015611c735780358352918301918301611c5c565b509695505050505050565b60008060408385031215611c9157600080fd5b823567ffffffffffffffff80821115611ca957600080fd5b818501915085601f830112611cbd57600080fd5b81356020611ccd611c3483611bef565b82815260059290921b84018101918181019089841115611cec57600080fd5b948201945b83861015611d1157611d0286611ab6565b82529482019490820190611cf1565b96505086013592505080821115611d2757600080fd5b50611d3485828601611c13565b9150509250929050565b600060208284031215611d5057600080fd5b61050682611ab6565b600060208284031215611d6b57600080fd5b5035919050565b60008060408385031215611d8557600080fd5b611d8e83611ab6565b9150611b6860208401611ab6565b7f4e487b7100000000000000000000000000000000000000000000000000000000600052601160045260246000fd5b600082821015611ddd57611ddd611d9c565b500390565b7f4e487b7100000000000000000000000000000000000000000000000000000000600052603260045260246000fd5b60007fffffffffffffffffffffffffffffffffffffffffffffffffffffffffffffffff8203611e4257611e42611d9c565b5060010190565b60005b83811015611e64578181015183820152602001611e4c565b83811115610f265750506000910152565b7f416363657373436f6e74726f6c3a206d697373696e6720270000000000000000815260008251611ead816018850160208701611e49565b7f2720726f6c6500000000000000000000000000000000000000000000000000006018939091019283015250601e01919050565b6020815260008251806020840152611f00816040850160208701611e49565b601f017fffffffffffffffffffffffffffffffffffffffffffffffffffffffffffffffe0169190910160400192915050565b600081611f4157611f41611d9c565b507fffffffffffffffffffffffffffffffffffffffffffffffffffffffffffffffff0190565b60008219821115611f7a57611f7a611d9c565b50019056fea26469706673582212206709d35a66401209c3f46c38fac94b2c4b8d96c0e22e9777314bc5bff387edb864736f6c634300080d0033",
  "linkReferences": {},
  "deployedLinkReferences": {}
}