{
  "_format": "hh-sol-artifact-1",
  "contractName": "ERC20SimpleMock",
  "sourceName": "contracts/mocks/token/ERC20/ERC20SimpleMock.sol",
  "abi": [
    {
      "inputs": [
        {
          "internalType": "address[]",
          "name": "holders",
          "type": "address[]"
        },
        {
          "internalType": "uint256[]",
          "name": "allocations",
          "type": "uint256[]"
        },
        {
          "internalType": "contract IForwarderRegistry",
          "name": "forwarderRegistry",
          "type": "address"
        }
      ],
      "stateMutability": "nonpayable",
      "type": "constructor"
    },
    {
      "anonymous": false,
      "inputs": [
        {
          "indexed": true,
          "internalType": "address",
          "name": "owner",
          "type": "address"
        },
        {
          "indexed": true,
          "internalType": "address",
          "name": "spender",
          "type": "address"
        },
        {
          "indexed": false,
          "internalType": "uint256",
          "name": "value",
          "type": "uint256"
        }
      ],
      "name": "Approval",
      "type": "event"
    },
    {
      "anonymous": false,
      "inputs": [
        {
          "indexed": true,
          "internalType": "address",
          "name": "previousOwner",
          "type": "address"
        },
        {
          "indexed": true,
          "internalType": "address",
          "name": "newOwner",
          "type": "address"
        }
      ],
      "name": "OwnershipTransferred",
      "type": "event"
    },
    {
      "anonymous": false,
      "inputs": [
        {
          "indexed": false,
          "internalType": "bytes32",
          "name": "role",
          "type": "bytes32"
        },
        {
          "indexed": false,
          "internalType": "address",
          "name": "account",
          "type": "address"
        },
        {
          "indexed": false,
          "internalType": "address",
          "name": "operator",
          "type": "address"
        }
      ],
      "name": "RoleGranted",
      "type": "event"
    },
    {
      "anonymous": false,
      "inputs": [
        {
          "indexed": false,
          "internalType": "bytes32",
          "name": "role",
          "type": "bytes32"
        },
        {
          "indexed": false,
          "internalType": "address",
          "name": "account",
          "type": "address"
        },
        {
          "indexed": false,
          "internalType": "address",
          "name": "operator",
          "type": "address"
        }
      ],
      "name": "RoleRevoked",
      "type": "event"
    },
    {
      "anonymous": false,
      "inputs": [
        {
          "indexed": true,
          "internalType": "address",
          "name": "from",
          "type": "address"
        },
        {
          "indexed": true,
          "internalType": "address",
          "name": "to",
          "type": "address"
        },
        {
          "indexed": false,
          "internalType": "uint256",
          "name": "value",
          "type": "uint256"
        }
      ],
      "name": "Transfer",
      "type": "event"
    },
    {
      "inputs": [],
      "name": "MINTER_ROLE",
      "outputs": [
        {
          "internalType": "bytes32",
          "name": "",
          "type": "bytes32"
        }
      ],
      "stateMutability": "view",
      "type": "function"
    },
    {
      "inputs": [],
      "name": "__msgData",
      "outputs": [
        {
          "internalType": "bytes",
          "name": "",
          "type": "bytes"
        }
      ],
      "stateMutability": "view",
      "type": "function"
    },
    {
      "inputs": [
        {
          "internalType": "address",
          "name": "owner",
          "type": "address"
        },
        {
          "internalType": "address",
          "name": "spender",
          "type": "address"
        }
      ],
      "name": "allowance",
      "outputs": [
        {
          "internalType": "uint256",
          "name": "",
          "type": "uint256"
        }
      ],
      "stateMutability": "view",
      "type": "function"
    },
    {
      "inputs": [
        {
          "internalType": "address",
          "name": "spender",
          "type": "address"
        },
        {
          "internalType": "uint256",
          "name": "value",
          "type": "uint256"
        }
      ],
      "name": "approve",
      "outputs": [
        {
          "internalType": "bool",
          "name": "",
          "type": "bool"
        }
      ],
      "stateMutability": "nonpayable",
      "type": "function"
    },
    {
      "inputs": [
        {
          "internalType": "address",
          "name": "account",
          "type": "address"
        }
      ],
      "name": "balanceOf",
      "outputs": [
        {
          "internalType": "uint256",
          "name": "",
          "type": "uint256"
        }
      ],
      "stateMutability": "view",
      "type": "function"
    },
    {
      "inputs": [
        {
          "internalType": "address[]",
          "name": "recipients",
          "type": "address[]"
        },
        {
          "internalType": "uint256[]",
          "name": "values",
          "type": "uint256[]"
        }
      ],
      "name": "batchMint",
      "outputs": [],
      "stateMutability": "nonpayable",
      "type": "function"
    },
    {
      "inputs": [
        {
          "internalType": "address",
          "name": "spender",
          "type": "address"
        },
        {
          "internalType": "uint256",
          "name": "subtractedValue",
          "type": "uint256"
        }
      ],
      "name": "decreaseAllowance",
      "outputs": [
        {
          "internalType": "bool",
          "name": "",
          "type": "bool"
        }
      ],
      "stateMutability": "nonpayable",
      "type": "function"
    },
    {
      "inputs": [],
      "name": "forwarderRegistry",
      "outputs": [
        {
          "internalType": "contract IForwarderRegistry",
          "name": "",
          "type": "address"
        }
      ],
      "stateMutability": "view",
      "type": "function"
    },
    {
      "inputs": [
        {
          "internalType": "bytes32",
          "name": "role",
          "type": "bytes32"
        },
        {
          "internalType": "address",
          "name": "account",
          "type": "address"
        }
      ],
      "name": "grantRole",
      "outputs": [],
      "stateMutability": "nonpayable",
      "type": "function"
    },
    {
      "inputs": [
        {
          "internalType": "bytes32",
          "name": "role",
          "type": "bytes32"
        },
        {
          "internalType": "address",
          "name": "account",
          "type": "address"
        }
      ],
      "name": "hasRole",
      "outputs": [
        {
          "internalType": "bool",
          "name": "",
          "type": "bool"
        }
      ],
      "stateMutability": "view",
      "type": "function"
    },
    {
      "inputs": [
        {
          "internalType": "address",
          "name": "spender",
          "type": "address"
        },
        {
          "internalType": "uint256",
          "name": "addedValue",
          "type": "uint256"
        }
      ],
      "name": "increaseAllowance",
      "outputs": [
        {
          "internalType": "bool",
          "name": "",
          "type": "bool"
        }
      ],
      "stateMutability": "nonpayable",
      "type": "function"
    },
    {
      "inputs": [
        {
          "internalType": "address",
          "name": "forwarder",
          "type": "address"
        }
      ],
      "name": "isTrustedForwarder",
      "outputs": [
        {
          "internalType": "bool",
          "name": "",
          "type": "bool"
        }
      ],
      "stateMutability": "view",
      "type": "function"
    },
    {
      "inputs": [
        {
          "internalType": "address",
          "name": "to",
          "type": "address"
        },
        {
          "internalType": "uint256",
          "name": "value",
          "type": "uint256"
        }
      ],
      "name": "mint",
      "outputs": [],
      "stateMutability": "nonpayable",
      "type": "function"
    },
    {
      "inputs": [],
      "name": "owner",
      "outputs": [
        {
          "internalType": "address",
          "name": "",
          "type": "address"
        }
      ],
      "stateMutability": "view",
      "type": "function"
    },
    {
      "inputs": [
        {
          "internalType": "bytes32",
          "name": "role",
          "type": "bytes32"
        }
      ],
      "name": "renounceRole",
      "outputs": [],
      "stateMutability": "nonpayable",
      "type": "function"
    },
    {
      "inputs": [
        {
          "internalType": "bytes32",
          "name": "role",
          "type": "bytes32"
        },
        {
          "internalType": "address",
          "name": "account",
          "type": "address"
        }
      ],
      "name": "revokeRole",
      "outputs": [],
      "stateMutability": "nonpayable",
      "type": "function"
    },
    {
      "inputs": [
        {
          "internalType": "bytes4",
          "name": "interfaceId",
          "type": "bytes4"
        }
      ],
      "name": "supportsInterface",
      "outputs": [
        {
          "internalType": "bool",
          "name": "",
          "type": "bool"
        }
      ],
      "stateMutability": "view",
      "type": "function"
    },
    {
      "inputs": [],
      "name": "totalSupply",
      "outputs": [
        {
          "internalType": "uint256",
          "name": "",
          "type": "uint256"
        }
      ],
      "stateMutability": "view",
      "type": "function"
    },
    {
      "inputs": [
        {
          "internalType": "address",
          "name": "to",
          "type": "address"
        },
        {
          "internalType": "uint256",
          "name": "value",
          "type": "uint256"
        }
      ],
      "name": "transfer",
      "outputs": [
        {
          "internalType": "bool",
          "name": "",
          "type": "bool"
        }
      ],
      "stateMutability": "nonpayable",
      "type": "function"
    },
    {
      "inputs": [
        {
          "internalType": "address",
          "name": "from",
          "type": "address"
        },
        {
          "internalType": "address",
          "name": "to",
          "type": "address"
        },
        {
          "internalType": "uint256",
          "name": "value",
          "type": "uint256"
        }
      ],
      "name": "transferFrom",
      "outputs": [
        {
          "internalType": "bool",
          "name": "",
          "type": "bool"
        }
      ],
      "stateMutability": "nonpayable",
      "type": "function"
    },
    {
      "inputs": [
        {
          "internalType": "address",
          "name": "newOwner",
          "type": "address"
        }
      ],
      "name": "transferOwnership",
      "outputs": [],
      "stateMutability": "nonpayable",
      "type": "function"
    }
  ],
  "bytecode": "0x60a06040523480156200001157600080fd5b5060405162002bba38038062002bba833981016040819052620000349162000683565b808033858562000069828262000054620000c660201b620006bd1760201c565b620000fc60201b620006eb179092919060201c565b50506200009981620000856200017f60201b620007601760201c565b620001af60201b6200078e1790919060201c565b50620000af6200024260201b6200084b1760201c565b6001600160a01b031660805250620007a392505050565b600080620000f660017f1da92899d3da68bf9787824388a37ea2bfa79780bcef91b9716c390eec8ecbef62000767565b92915050565b620001188282856200026760201b6200087b179092919060201c565b60006200012f620004b960201b62000b571760201c565b9050620001556336372b0760e01b600183620004e960201b62000b85179092919060201c565b62000179634e83a8c360e11b600183620004e960201b62000b85179092919060201c565b50505050565b600080620000f660017fc9ed16f33ab3a66c84bfd83099ccb2a8845871e2e1c1928f63797152f0fd54cd62000767565b6001600160a01b03811615620002065781546001600160a01b0319166001600160a01b03821690811783556040516000907f8be0079c531659141344cd1fd0a4f28419497f9722a3daafe3b4186f6b6457e0908290a35b6200023e6307f5828d60e41b600162000229620004b960201b62000b571760201c565b620004e960201b62000b85179092919060201c565b5050565b6200026563144b1f0f60e11b600162000229620004b960201b62000b571760201c565b565b815181518114620002bf5760405162461bcd60e51b815260206004820152601a60248201527f45524332303a20696e636f6e73697374656e742061727261797300000000000060448201526064015b60405180910390fd5b80600003620002ce5750505050565b6000805b8281146200044a576000858281518110620002f157620002f16200078d565b6020026020010151905060006001600160a01b0316816001600160a01b0316036200035f5760405162461bcd60e51b815260206004820152601960248201527f45524332303a206d696e7420746f2061646472657373283029000000000000006044820152606401620002b6565b60008583815181106200037657620003766200078d565b6020026020010151905080600014620003fe57838101848111620003dd5760405162461bcd60e51b815260206004820152601660248201527f45524332303a2076616c756573206f766572666c6f77000000000000000000006044820152606401620002b6565b6001600160a01b038316600090815260208a90526040902080548301905593505b6040518181526001600160a01b038316906000907fddf252ad1be2c89b69c2b068fc378daa952ba7f163c4a11628f55a4df523b3ef9060200160405180910390a35050600101620002d2565b508015620004b2576002850154818101818111620004ab5760405162461bcd60e51b815260206004820152601660248201527f45524332303a20737570706c79206f766572666c6f77000000000000000000006044820152606401620002b6565b6002870155505b5050505050565b600080620000f660017fca9d3e17f264b0f3984e2634e94adb37fa3e6a8103f06aeae6fa59e21c769f5e62000767565b600160e01b6001600160e01b0319831601620005485760405162461bcd60e51b815260206004820152601f60248201527f496e74657266616365446574656374696f6e3a2077726f6e672076616c7565006044820152606401620002b6565b6001600160e01b03199190911660009081526020929092526040909120805460ff1916911515919091179055565b634e487b7160e01b600052604160045260246000fd5b604051601f8201601f191681016001600160401b0381118282101715620005b757620005b762000576565b604052919050565b60006001600160401b03821115620005db57620005db62000576565b5060051b60200190565b6001600160a01b0381168114620005fb57600080fd5b50565b600082601f8301126200061057600080fd5b81516020620006296200062383620005bf565b6200058c565b82815260059290921b840181019181810190868411156200064957600080fd5b8286015b848110156200066657805183529183019183016200064d565b509695505050505050565b80516200067e81620005e5565b919050565b6000806000606084860312156200069957600080fd5b83516001600160401b0380821115620006b157600080fd5b818601915086601f830112620006c657600080fd5b81516020620006d96200062383620005bf565b82815260059290921b8401810191818101908a841115620006f957600080fd5b948201945b83861015620007245785516200071481620005e5565b82529482019490820190620006fe565b918901519197509093505050808211156200073e57600080fd5b506200074d86828701620005fe565b9250506200075e6040850162000671565b90509250925092565b6000828210156200078857634e487b7160e01b600052601160045260246000fd5b500390565b634e487b7160e01b600052603260045260246000fd5b6080516123d8620007e2600039600081816101e20152818161028801528181611a3b01528181611adb01528181611b6f0152611bd901526123d86000f3fe608060405234801561001057600080fd5b50600436106101775760003560e01c806368573107116100d8578063a457c2d71161008c578063d547741f11610066578063d547741f14610366578063dd62ed3e14610379578063f2fde38b1461038c57600080fd5b8063a457c2d714610319578063a9059cbb1461032c578063d53913931461033f57600080fd5b80638bb9c5bf116100bd5780638bb9c5bf146102eb5780638da5cb5b146102fe57806391d148541461030657600080fd5b806368573107146102c557806370a08231146102d857600080fd5b80632f2ff15d1161012f5780633950935111610114578063395093511461025257806340c10f1914610265578063572b6c051461027857600080fd5b80632f2ff15d1461022757806331e66e1e1461023c57600080fd5b806318160ddd1161016057806318160ddd146101b757806323b872dd146101cd5780632b4c9f16146101e057600080fd5b806301ffc9a71461017c578063095ea7b3146101a4575b600080fd5b61018f61018a366004611e8b565b61039f565b60405190151581526020015b60405180910390f35b61018f6101b2366004611ef6565b6103b9565b6101bf6103e1565b60405190815260200161019b565b61018f6101db366004611f20565b6103fa565b7f00000000000000000000000000000000000000000000000000000000000000005b60405173ffffffffffffffffffffffffffffffffffffffff909116815260200161019b565b61023a610235366004611f5c565b610425565b005b61024461045e565b60405161019b929190611f88565b61018f610260366004611ef6565b610471565b61023a610273366004611ef6565b610490565b61018f610286366004611fd5565b7f000000000000000000000000000000000000000000000000000000000000000073ffffffffffffffffffffffffffffffffffffffff90811691161490565b61023a6102d33660046120fd565b6104e3565b6101bf6102e6366004611fd5565b610523565b61023a6102f93660046121bd565b61055b565b610202610579565b61018f610314366004611f5c565b6105a0565b61018f610327366004611ef6565b6105eb565b61018f61033a366004611ef6565b61060a565b6101bf7f6d696e746572000000000000000000000000000000000000000000000000000081565b61023a610374366004611f5c565b610629565b6101bf6103873660046121d6565b610657565b61023a61039a366004611fd5565b6106a2565b60006103b3826103ad610b57565b90610c91565b92915050565b60006103d86103c6610d6b565b84846103d06106bd565b929190610d75565b50600192915050565b60006103f56103ee6106bd565b6002015490565b905090565b600061041b610407610d6b565b8585856104126106bd565b93929190610e64565b5060019392505050565b600061042f610d6b565b90506104438161043d610760565b90610eaf565b610459838383610451610f32565b929190610f60565b505050565b366000610469611036565b915091509091565b60006103d861047e610d6b565b84846104886106bd565b929190611041565b6104cb7f6d696e74657200000000000000000000000000000000000000000000000000006104bc610d6b565b6104c4610f32565b919061120d565b6104df82826104d86106bd565b91906112b9565b5050565b61050f7f6d696e74657200000000000000000000000000000000000000000000000000006104bc610d6b565b6104df828261051c6106bd565b919061087b565b60006103b3826105316106bd565b9073ffffffffffffffffffffffffffffffffffffffff166000908152602091909152604090205490565b610576610566610d6b565b8261056f610f32565b9190611432565b50565b60006103f5610586610760565b5473ffffffffffffffffffffffffffffffffffffffff1690565b60006105e483836105af610f32565b60009283526020908152604080842073ffffffffffffffffffffffffffffffffffffffff909316845291905290205460ff1690565b9392505050565b60006103d86105f8610d6b565b84846106026106bd565b9291906114d6565b60006103d8610617610d6b565b84846106216106bd565b929190611628565b6000610633610d6b565b90506106418161043d610760565b61045983838361064f610f32565b929190611809565b60006105e483836106666106bd565b919073ffffffffffffffffffffffffffffffffffffffff9182166000908152600193909301602090815260408085209290931684525290205490565b6105766106ad610d6b565b826106b6610760565b91906118d3565b6000806103b360017f1da92899d3da68bf9787824388a37ea2bfa79780bcef91b9716c390eec8ecbef612200565b6106f683838361087b565b6000610700610b57565b905061072e817f36372b07000000000000000000000000000000000000000000000000000000006001610b85565b61075a817f9d075186000000000000000000000000000000000000000000000000000000006001610b85565b50505050565b6000806103b360017fc9ed16f33ab3a66c84bfd83099ccb2a8845871e2e1c1928f63797152f0fd54cd612200565b73ffffffffffffffffffffffffffffffffffffffff8116156108165781547fffffffffffffffffffffffff00000000000000000000000000000000000000001673ffffffffffffffffffffffffffffffffffffffff821690811783556040516000907f8be0079c531659141344cd1fd0a4f28419497f9722a3daafe3b4186f6b6457e0908290a35b6104df7f7f5828d0000000000000000000000000000000000000000000000000000000006001610844610b57565b9190610b85565b6108797f28963e1e000000000000000000000000000000000000000000000000000000006001610844610b57565b565b8151815181146108ec576040517f08c379a000000000000000000000000000000000000000000000000000000000815260206004820152601a60248201527f45524332303a20696e636f6e73697374656e742061727261797300000000000060448201526064015b60405180910390fd5b806000036108fa5750505050565b6000805b828114610ad15760008582815181106109195761091961223e565b60200260200101519050600073ffffffffffffffffffffffffffffffffffffffff168173ffffffffffffffffffffffffffffffffffffffff16036109b9576040517f08c379a000000000000000000000000000000000000000000000000000000000815260206004820152601960248201527f45524332303a206d696e7420746f20616464726573732830290000000000000060448201526064016108e3565b60008583815181106109cd576109cd61223e565b6020026020010151905080600014610a7957838101848111610a4b576040517f08c379a000000000000000000000000000000000000000000000000000000000815260206004820152601660248201527f45524332303a2076616c756573206f766572666c6f770000000000000000000060448201526064016108e3565b73ffffffffffffffffffffffffffffffffffffffff8316600090815260208a90526040902080548301905593505b60405181815273ffffffffffffffffffffffffffffffffffffffff8316906000907fddf252ad1be2c89b69c2b068fc378daa952ba7f163c4a11628f55a4df523b3ef9060200160405180910390a350506001016108fe565b508015610b50576002850154818101818111610b49576040517f08c379a000000000000000000000000000000000000000000000000000000000815260206004820152601660248201527f45524332303a20737570706c79206f766572666c6f770000000000000000000060448201526064016108e3565b6002870155505b5050505050565b6000806103b360017fca9d3e17f264b0f3984e2634e94adb37fa3e6a8103f06aeae6fa59e21c769f5e612200565b7c01000000000000000000000000000000000000000000000000000000007fffffffff00000000000000000000000000000000000000000000000000000000831601610c2d576040517f08c379a000000000000000000000000000000000000000000000000000000000815260206004820152601f60248201527f496e74657266616365446574656374696f6e3a2077726f6e672076616c75650060448201526064016108e3565b7fffffffff00000000000000000000000000000000000000000000000000000000919091166000908152602092909252604090912080547fffffffffffffffffffffffffffffffffffffffffffffffffffffffffffffff0016911515919091179055565b60007c01000000000000000000000000000000000000000000000000000000007fffffffff00000000000000000000000000000000000000000000000000000000831601610ce1575060006103b3565b7ffe003659000000000000000000000000000000000000000000000000000000007fffffffff00000000000000000000000000000000000000000000000000000000831601610d32575060016103b3565b507fffffffff00000000000000000000000000000000000000000000000000000000166000908152602091909152604090205460ff1690565b60006103f56119ff565b73ffffffffffffffffffffffffffffffffffffffff8216610df2576040517f08c379a000000000000000000000000000000000000000000000000000000000815260206004820152601d60248201527f45524332303a20617070726f76616c20746f206164647265737328302900000060448201526064016108e3565b73ffffffffffffffffffffffffffffffffffffffff838116600081815260018701602090815260408083209487168084529482529182902085905590518481527f8c5be1e5ebec7d5bd14f71427d1e84f3dd0314c0f7b2291e5b200ac8c7c3b92591015b60405180910390a350505050565b8373ffffffffffffffffffffffffffffffffffffffff168373ffffffffffffffffffffffffffffffffffffffff1614610ea357610ea3858486846114d6565b610b5085848484611628565b815473ffffffffffffffffffffffffffffffffffffffff8281169116146104df576040517f08c379a000000000000000000000000000000000000000000000000000000000815260206004820152601860248201527f4f776e6572736869703a206e6f7420746865206f776e6572000000000000000060448201526064016108e3565b6000806103b360017fc8827d3282af6f37b64c3e9e6f3ac9df286ab0bb0fccd6f8661bf19adb368b23612200565b60008381526020858152604080832073ffffffffffffffffffffffffffffffffffffffff8616845290915290205460ff1661075a5760008381526020858152604080832073ffffffffffffffffffffffffffffffffffffffff8681168086529184529382902080547fffffffffffffffffffffffffffffffffffffffffffffffffffffffffffffff00166001179055815187815292830152918316918101919091527f2f8788117e7eff1d82e926ec794901d17c78024a50270940304540a733656f0d906060015b60405180910390a150505050565b366000610469611b57565b73ffffffffffffffffffffffffffffffffffffffff82166110be576040517f08c379a000000000000000000000000000000000000000000000000000000000815260206004820152601d60248201527f45524332303a20617070726f76616c20746f206164647265737328302900000060448201526064016108e3565b73ffffffffffffffffffffffffffffffffffffffff8084166000908152600186016020908152604080832093861683529290522054811561119f57808201818111611165576040517f08c379a000000000000000000000000000000000000000000000000000000000815260206004820152601960248201527f45524332303a20616c6c6f77616e6365206f766572666c6f770000000000000060448201526064016108e3565b73ffffffffffffffffffffffffffffffffffffffff8086166000908152600188016020908152604080832093881683529290522081905590505b8273ffffffffffffffffffffffffffffffffffffffff168473ffffffffffffffffffffffffffffffffffffffff167f8c5be1e5ebec7d5bd14f71427d1e84f3dd0314c0f7b2291e5b200ac8c7c3b925836040516111fe91815260200190565b60405180910390a35050505050565b60008281526020848152604080832073ffffffffffffffffffffffffffffffffffffffff8516845290915290205460ff166104595761124b82611cdb565b60405160200161125b9190612299565b604080517fffffffffffffffffffffffffffffffffffffffffffffffffffffffffffffffe0818403018152908290527f08c379a00000000000000000000000000000000000000000000000000000000082526108e391600401612305565b73ffffffffffffffffffffffffffffffffffffffff8216611336576040517f08c379a000000000000000000000000000000000000000000000000000000000815260206004820152601960248201527f45524332303a206d696e7420746f20616464726573732830290000000000000060448201526064016108e3565b80156113df5760028301548181018181116113ad576040517f08c379a000000000000000000000000000000000000000000000000000000000815260206004820152601660248201527f45524332303a20737570706c79206f766572666c6f770000000000000000000060448201526064016108e3565b60028501555073ffffffffffffffffffffffffffffffffffffffff821660009081526020849052604090208054820190555b60405181815273ffffffffffffffffffffffffffffffffffffffff8316906000907fddf252ad1be2c89b69c2b068fc378daa952ba7f163c4a11628f55a4df523b3ef9060200160405180910390a3505050565b61143d83828461120d565b60008181526020848152604080832073ffffffffffffffffffffffffffffffffffffffff86168085529083529281902080547fffffffffffffffffffffffffffffffffffffffffffffffffffffffffffffff0016905580518481529182018390528101919091527ff6391f5c32d9c69d2a47ea670b442974b53935d1edc7fd64eb21e047a839171b9060600160405180910390a1505050565b73ffffffffffffffffffffffffffffffffffffffff8216611553576040517f08c379a000000000000000000000000000000000000000000000000000000000815260206004820152601d60248201527f45524332303a20617070726f76616c20746f206164647265737328302900000060448201526064016108e3565b73ffffffffffffffffffffffffffffffffffffffff80841660009081526001860160209081526040808320938616835292905220547fffffffffffffffffffffffffffffffffffffffffffffffffffffffffffffffff81148015906115b757508115155b1561119f57818103818110611165576040517f08c379a000000000000000000000000000000000000000000000000000000000815260206004820152601d60248201527f45524332303a20696e73756666696369656e7420616c6c6f77616e636500000060448201526064016108e3565b73ffffffffffffffffffffffffffffffffffffffff82166116a5576040517f08c379a000000000000000000000000000000000000000000000000000000000815260206004820152601d60248201527f45524332303a207472616e7366657220746f206164647265737328302900000060448201526064016108e3565b80156117aa5773ffffffffffffffffffffffffffffffffffffffff831660009081526020859052604090205481810381811061173d576040517f08c379a000000000000000000000000000000000000000000000000000000000815260206004820152601b60248201527f45524332303a20696e73756666696369656e742062616c616e6365000000000060448201526064016108e3565b8373ffffffffffffffffffffffffffffffffffffffff168573ffffffffffffffffffffffffffffffffffffffff16146117a75773ffffffffffffffffffffffffffffffffffffffff8086166000908152602088905260408082208490559186168152208054840190555b50505b8173ffffffffffffffffffffffffffffffffffffffff168373ffffffffffffffffffffffffffffffffffffffff167fddf252ad1be2c89b69c2b068fc378daa952ba7f163c4a11628f55a4df523b3ef83604051610e5691815260200190565b60008381526020858152604080832073ffffffffffffffffffffffffffffffffffffffff8616845290915290205460ff161561075a5760008381526020858152604080832073ffffffffffffffffffffffffffffffffffffffff8681168086529184529382902080547fffffffffffffffffffffffffffffffffffffffffffffffffffffffffffffff00169055815187815292830152918316918101919091527ff6391f5c32d9c69d2a47ea670b442974b53935d1edc7fd64eb21e047a839171b90606001611028565b825473ffffffffffffffffffffffffffffffffffffffff9081169083168114611958576040517f08c379a000000000000000000000000000000000000000000000000000000000815260206004820152601860248201527f4f776e6572736869703a206e6f7420746865206f776e6572000000000000000060448201526064016108e3565b8173ffffffffffffffffffffffffffffffffffffffff168173ffffffffffffffffffffffffffffffffffffffff161461075a5783547fffffffffffffffffffffffff00000000000000000000000000000000000000001673ffffffffffffffffffffffffffffffffffffffff8381169182178655604051908316907f8be0079c531659141344cd1fd0a4f28419497f9722a3daafe3b4186f6b6457e090600090a350505050565b600033328103611a0e57919050565b6000367fffffffffffffffffffffffffffffffffffffffffffffffffffffffffffffffec013560601c90507f000000000000000000000000000000000000000000000000000000000000000073ffffffffffffffffffffffffffffffffffffffff168273ffffffffffffffffffffffffffffffffffffffff161480611b4657506040517fe60125d600000000000000000000000000000000000000000000000000000000815273ffffffffffffffffffffffffffffffffffffffff828116600483015283811660248301527f0000000000000000000000000000000000000000000000000000000000000000169063e60125d690604401602060405180830381865afa158015611b22573d6000803e3d6000fd5b505050506040513d601f19601f82011682018060405250810190611b469190612356565b15611b515792915050565b50919050565b36600033328103611b6d57506000923692509050565b7f000000000000000000000000000000000000000000000000000000000000000073ffffffffffffffffffffffffffffffffffffffff168173ffffffffffffffffffffffffffffffffffffffff161480611cba575073ffffffffffffffffffffffffffffffffffffffff7f00000000000000000000000000000000000000000000000000000000000000001663e60125d6367fffffffffffffffffffffffffffffffffffffffffffffffffffffffffffffffec013560601c6040517fffffffff0000000000000000000000000000000000000000000000000000000060e084901b16815273ffffffffffffffffffffffffffffffffffffffff91821660048201529084166024820152604401602060405180830381865afa158015611c96573d6000803e3d6000fd5b505050506040513d601f19601f82011682018060405250810190611cba9190612356565b15611cd057611cc7611e6d565b92509250509091565b506000923692509050565b60606000829003611cfa57505060408051602081019091526000815290565b600082604051602001611d0f91815260200190565b604080517fffffffffffffffffffffffffffffffffffffffffffffffffffffffffffffffe08184030181529190529050601f5b818181518110611d5457611d5461223e565b01602001517fff0000000000000000000000000000000000000000000000000000000000000016600003611da9577fffffffffffffffffffffffffffffffffffffffffffffffffffffffffffffffff01611d42565b60008160010167ffffffffffffffff811115611dc757611dc7611ff0565b6040519080825280601f01601f191660200182016040528015611df1576020820181803683370190505b50905060005b828111611e6457838181518110611e1057611e1061223e565b602001015160f81c60f81b828281518110611e2d57611e2d61223e565b60200101907effffffffffffffffffffffffffffffffffffffffffffffffffffffffffffff1916908160001a905350600101611df7565b50949350505050565b366000808083611e7e601482612200565b9261046993929190612378565b600060208284031215611e9d57600080fd5b81357fffffffff00000000000000000000000000000000000000000000000000000000811681146105e457600080fd5b803573ffffffffffffffffffffffffffffffffffffffff81168114611ef157600080fd5b919050565b60008060408385031215611f0957600080fd5b611f1283611ecd565b946020939093013593505050565b600080600060608486031215611f3557600080fd5b611f3e84611ecd565b9250611f4c60208501611ecd565b9150604084013590509250925092565b60008060408385031215611f6f57600080fd5b82359150611f7f60208401611ecd565b90509250929050565b60208152816020820152818360408301376000818301604090810191909152601f9092017fffffffffffffffffffffffffffffffffffffffffffffffffffffffffffffffe0160101919050565b600060208284031215611fe757600080fd5b6105e482611ecd565b7f4e487b7100000000000000000000000000000000000000000000000000000000600052604160045260246000fd5b604051601f82017fffffffffffffffffffffffffffffffffffffffffffffffffffffffffffffffe016810167ffffffffffffffff8111828210171561206657612066611ff0565b604052919050565b600067ffffffffffffffff82111561208857612088611ff0565b5060051b60200190565b600082601f8301126120a357600080fd5b813560206120b86120b38361206e565b61201f565b82815260059290921b840181019181810190868411156120d757600080fd5b8286015b848110156120f257803583529183019183016120db565b509695505050505050565b6000806040838503121561211057600080fd5b823567ffffffffffffffff8082111561212857600080fd5b818501915085601f83011261213c57600080fd5b8135602061214c6120b38361206e565b82815260059290921b8401810191818101908984111561216b57600080fd5b948201945b838610156121905761218186611ecd565b82529482019490820190612170565b965050860135925050808211156121a657600080fd5b506121b385828601612092565b9150509250929050565b6000602082840312156121cf57600080fd5b5035919050565b600080604083850312156121e957600080fd5b6121f283611ecd565b9150611f7f60208401611ecd565b600082821015612239577f4e487b7100000000000000000000000000000000000000000000000000000000600052601160045260246000fd5b500390565b7f4e487b7100000000000000000000000000000000000000000000000000000000600052603260045260246000fd5b60005b83811015612288578181015183820152602001612270565b8381111561075a5750506000910152565b7f416363657373436f6e74726f6c3a206d697373696e67202700000000000000008152600082516122d181601885016020870161226d565b7f2720726f6c6500000000000000000000000000000000000000000000000000006018939091019283015250601e01919050565b602081526000825180602084015261232481604085016020870161226d565b601f017fffffffffffffffffffffffffffffffffffffffffffffffffffffffffffffffe0169190910160400192915050565b60006020828403121561236857600080fd5b815180151581146105e457600080fd5b6000808585111561238857600080fd5b8386111561239557600080fd5b505082019391909203915056fea2646970667358221220ee12bd876cd20844aee975677fbebf2b514a972bc6480c917707f8f8e68a160364736f6c634300080e0033",
  "linkReferences": {},
  "deployedLinkReferences": {}
}