{
  "_format": "hh-sol-artifact-1",
  "contractName": "ERC1155BurnableMock",
  "sourceName": "contracts/mocks/token/ERC1155/ERC1155BurnableMock.sol",
  "abi": [
    {
      "inputs": [
        {
          "internalType": "contract IForwarderRegistry",
          "name": "forwarderRegistry",
          "type": "address"
        }
      ],
      "stateMutability": "nonpayable",
      "type": "constructor"
    },
    {
      "anonymous": false,
      "inputs": [
        {
          "indexed": true,
          "internalType": "address",
          "name": "owner",
          "type": "address"
        },
        {
          "indexed": true,
          "internalType": "address",
          "name": "operator",
          "type": "address"
        },
        {
          "indexed": false,
          "internalType": "bool",
          "name": "approved",
          "type": "bool"
        }
      ],
      "name": "ApprovalForAll",
      "type": "event"
    },
    {
      "anonymous": false,
      "inputs": [
        {
          "indexed": false,
          "internalType": "string",
          "name": "baseMetadataURI",
          "type": "string"
        }
      ],
      "name": "BaseMetadataURISet",
      "type": "event"
    },
    {
      "anonymous": false,
      "inputs": [
        {
          "indexed": true,
          "internalType": "address",
          "name": "previousOwner",
          "type": "address"
        },
        {
          "indexed": true,
          "internalType": "address",
          "name": "newOwner",
          "type": "address"
        }
      ],
      "name": "OwnershipTransferred",
      "type": "event"
    },
    {
      "anonymous": false,
      "inputs": [
        {
          "indexed": false,
          "internalType": "bytes32",
          "name": "role",
          "type": "bytes32"
        },
        {
          "indexed": false,
          "internalType": "address",
          "name": "account",
          "type": "address"
        },
        {
          "indexed": false,
          "internalType": "address",
          "name": "operator",
          "type": "address"
        }
      ],
      "name": "RoleGranted",
      "type": "event"
    },
    {
      "anonymous": false,
      "inputs": [
        {
          "indexed": false,
          "internalType": "bytes32",
          "name": "role",
          "type": "bytes32"
        },
        {
          "indexed": false,
          "internalType": "address",
          "name": "account",
          "type": "address"
        },
        {
          "indexed": false,
          "internalType": "address",
          "name": "operator",
          "type": "address"
        }
      ],
      "name": "RoleRevoked",
      "type": "event"
    },
    {
      "anonymous": false,
      "inputs": [
        {
          "indexed": true,
          "internalType": "address",
          "name": "operator",
          "type": "address"
        },
        {
          "indexed": true,
          "internalType": "address",
          "name": "from",
          "type": "address"
        },
        {
          "indexed": true,
          "internalType": "address",
          "name": "to",
          "type": "address"
        },
        {
          "indexed": false,
          "internalType": "uint256[]",
          "name": "ids",
          "type": "uint256[]"
        },
        {
          "indexed": false,
          "internalType": "uint256[]",
          "name": "values",
          "type": "uint256[]"
        }
      ],
      "name": "TransferBatch",
      "type": "event"
    },
    {
      "anonymous": false,
      "inputs": [
        {
          "indexed": true,
          "internalType": "address",
          "name": "operator",
          "type": "address"
        },
        {
          "indexed": true,
          "internalType": "address",
          "name": "from",
          "type": "address"
        },
        {
          "indexed": true,
          "internalType": "address",
          "name": "to",
          "type": "address"
        },
        {
          "indexed": false,
          "internalType": "uint256",
          "name": "id",
          "type": "uint256"
        },
        {
          "indexed": false,
          "internalType": "uint256",
          "name": "value",
          "type": "uint256"
        }
      ],
      "name": "TransferSingle",
      "type": "event"
    },
    {
      "anonymous": false,
      "inputs": [
        {
          "indexed": false,
          "internalType": "string",
          "name": "value",
          "type": "string"
        },
        {
          "indexed": true,
          "internalType": "uint256",
          "name": "id",
          "type": "uint256"
        }
      ],
      "name": "URI",
      "type": "event"
    },
    {
      "inputs": [],
      "name": "MINTER_ROLE",
      "outputs": [
        {
          "internalType": "bytes32",
          "name": "",
          "type": "bytes32"
        }
      ],
      "stateMutability": "view",
      "type": "function"
    },
    {
      "inputs": [],
      "name": "__msgData",
      "outputs": [
        {
          "internalType": "bytes",
          "name": "",
          "type": "bytes"
        }
      ],
      "stateMutability": "view",
      "type": "function"
    },
    {
      "inputs": [
        {
          "internalType": "address",
          "name": "owner",
          "type": "address"
        },
        {
          "internalType": "uint256",
          "name": "id",
          "type": "uint256"
        }
      ],
      "name": "balanceOf",
      "outputs": [
        {
          "internalType": "uint256",
          "name": "balance",
          "type": "uint256"
        }
      ],
      "stateMutability": "view",
      "type": "function"
    },
    {
      "inputs": [
        {
          "internalType": "address[]",
          "name": "owners",
          "type": "address[]"
        },
        {
          "internalType": "uint256[]",
          "name": "ids",
          "type": "uint256[]"
        }
      ],
      "name": "balanceOfBatch",
      "outputs": [
        {
          "internalType": "uint256[]",
          "name": "balances",
          "type": "uint256[]"
        }
      ],
      "stateMutability": "view",
      "type": "function"
    },
    {
      "inputs": [],
      "name": "baseMetadataURI",
      "outputs": [
        {
          "internalType": "string",
          "name": "baseURI",
          "type": "string"
        }
      ],
      "stateMutability": "view",
      "type": "function"
    },
    {
      "inputs": [
        {
          "internalType": "address",
          "name": "from",
          "type": "address"
        },
        {
          "internalType": "uint256[]",
          "name": "ids",
          "type": "uint256[]"
        },
        {
          "internalType": "uint256[]",
          "name": "values",
          "type": "uint256[]"
        }
      ],
      "name": "batchBurnFrom",
      "outputs": [],
      "stateMutability": "nonpayable",
      "type": "function"
    },
    {
      "inputs": [
        {
          "internalType": "address",
          "name": "from",
          "type": "address"
        },
        {
          "internalType": "uint256",
          "name": "id",
          "type": "uint256"
        },
        {
          "internalType": "uint256",
          "name": "value",
          "type": "uint256"
        }
      ],
      "name": "burnFrom",
      "outputs": [],
      "stateMutability": "nonpayable",
      "type": "function"
    },
    {
      "inputs": [],
      "name": "forwarderRegistry",
      "outputs": [
        {
          "internalType": "contract IForwarderRegistry",
          "name": "",
          "type": "address"
        }
      ],
      "stateMutability": "view",
      "type": "function"
    },
    {
      "inputs": [
        {
          "internalType": "bytes32",
          "name": "role",
          "type": "bytes32"
        },
        {
          "internalType": "address",
          "name": "account",
          "type": "address"
        }
      ],
      "name": "grantRole",
      "outputs": [],
      "stateMutability": "nonpayable",
      "type": "function"
    },
    {
      "inputs": [
        {
          "internalType": "bytes32",
          "name": "role",
          "type": "bytes32"
        },
        {
          "internalType": "address",
          "name": "account",
          "type": "address"
        }
      ],
      "name": "hasRole",
      "outputs": [
        {
          "internalType": "bool",
          "name": "",
          "type": "bool"
        }
      ],
      "stateMutability": "view",
      "type": "function"
    },
    {
      "inputs": [
        {
          "internalType": "address",
          "name": "owner",
          "type": "address"
        },
        {
          "internalType": "address",
          "name": "operator",
          "type": "address"
        }
      ],
      "name": "isApprovedForAll",
      "outputs": [
        {
          "internalType": "bool",
          "name": "approvedForAll",
          "type": "bool"
        }
      ],
      "stateMutability": "view",
      "type": "function"
    },
    {
      "inputs": [
        {
          "internalType": "address",
          "name": "forwarder",
          "type": "address"
        }
      ],
      "name": "isTrustedForwarder",
      "outputs": [
        {
          "internalType": "bool",
          "name": "",
          "type": "bool"
        }
      ],
      "stateMutability": "view",
      "type": "function"
    },
    {
      "inputs": [],
      "name": "owner",
      "outputs": [
        {
          "internalType": "address",
          "name": "",
          "type": "address"
        }
      ],
      "stateMutability": "view",
      "type": "function"
    },
    {
      "inputs": [
        {
          "internalType": "bytes32",
          "name": "role",
          "type": "bytes32"
        }
      ],
      "name": "renounceRole",
      "outputs": [],
      "stateMutability": "nonpayable",
      "type": "function"
    },
    {
      "inputs": [
        {
          "internalType": "bytes32",
          "name": "role",
          "type": "bytes32"
        },
        {
          "internalType": "address",
          "name": "account",
          "type": "address"
        }
      ],
      "name": "revokeRole",
      "outputs": [],
      "stateMutability": "nonpayable",
      "type": "function"
    },
    {
      "inputs": [
        {
          "internalType": "address",
          "name": "to",
          "type": "address"
        },
        {
          "internalType": "uint256[]",
          "name": "ids",
          "type": "uint256[]"
        },
        {
          "internalType": "uint256[]",
          "name": "values",
          "type": "uint256[]"
        },
        {
          "internalType": "bytes",
          "name": "data",
          "type": "bytes"
        }
      ],
      "name": "safeBatchMint",
      "outputs": [],
      "stateMutability": "nonpayable",
      "type": "function"
    },
    {
      "inputs": [
        {
          "internalType": "address",
          "name": "from",
          "type": "address"
        },
        {
          "internalType": "address",
          "name": "to",
          "type": "address"
        },
        {
          "internalType": "uint256[]",
          "name": "ids",
          "type": "uint256[]"
        },
        {
          "internalType": "uint256[]",
          "name": "values",
          "type": "uint256[]"
        },
        {
          "internalType": "bytes",
          "name": "data",
          "type": "bytes"
        }
      ],
      "name": "safeBatchTransferFrom",
      "outputs": [],
      "stateMutability": "nonpayable",
      "type": "function"
    },
    {
      "inputs": [
        {
          "internalType": "address[]",
          "name": "recipients",
          "type": "address[]"
        },
        {
          "internalType": "uint256[]",
          "name": "ids",
          "type": "uint256[]"
        },
        {
          "internalType": "uint256[]",
          "name": "values",
          "type": "uint256[]"
        },
        {
          "internalType": "bytes",
          "name": "data",
          "type": "bytes"
        }
      ],
      "name": "safeDeliver",
      "outputs": [],
      "stateMutability": "nonpayable",
      "type": "function"
    },
    {
      "inputs": [
        {
          "internalType": "address",
          "name": "to",
          "type": "address"
        },
        {
          "internalType": "uint256",
          "name": "id",
          "type": "uint256"
        },
        {
          "internalType": "uint256",
          "name": "value",
          "type": "uint256"
        },
        {
          "internalType": "bytes",
          "name": "data",
          "type": "bytes"
        }
      ],
      "name": "safeMint",
      "outputs": [],
      "stateMutability": "nonpayable",
      "type": "function"
    },
    {
      "inputs": [
        {
          "internalType": "address",
          "name": "from",
          "type": "address"
        },
        {
          "internalType": "address",
          "name": "to",
          "type": "address"
        },
        {
          "internalType": "uint256",
          "name": "id",
          "type": "uint256"
        },
        {
          "internalType": "uint256",
          "name": "value",
          "type": "uint256"
        },
        {
          "internalType": "bytes",
          "name": "data",
          "type": "bytes"
        }
      ],
      "name": "safeTransferFrom",
      "outputs": [],
      "stateMutability": "nonpayable",
      "type": "function"
    },
    {
      "inputs": [
        {
          "internalType": "address",
          "name": "operator",
          "type": "address"
        },
        {
          "internalType": "bool",
          "name": "approved",
          "type": "bool"
        }
      ],
      "name": "setApprovalForAll",
      "outputs": [],
      "stateMutability": "nonpayable",
      "type": "function"
    },
    {
      "inputs": [
        {
          "internalType": "string",
          "name": "baseURI",
          "type": "string"
        }
      ],
      "name": "setBaseMetadataURI",
      "outputs": [],
      "stateMutability": "nonpayable",
      "type": "function"
    },
    {
      "inputs": [
        {
          "internalType": "bytes4",
          "name": "interfaceId",
          "type": "bytes4"
        }
      ],
      "name": "supportsInterface",
      "outputs": [
        {
          "internalType": "bool",
          "name": "",
          "type": "bool"
        }
      ],
      "stateMutability": "view",
      "type": "function"
    },
    {
      "inputs": [
        {
          "internalType": "address",
          "name": "newOwner",
          "type": "address"
        }
      ],
      "name": "transferOwnership",
      "outputs": [],
      "stateMutability": "nonpayable",
      "type": "function"
    },
    {
      "inputs": [
        {
          "internalType": "uint256",
          "name": "id",
          "type": "uint256"
        }
      ],
      "name": "uri",
      "outputs": [
        {
          "internalType": "string",
          "name": "metadataURI",
          "type": "string"
        }
      ],
      "stateMutability": "view",
      "type": "function"
    }
  ],
  "bytecode": "0x60a06040523480156200001157600080fd5b5060405162003e2638038062003e26833981016040819052620000349162000323565b80808080336200004e620000e960201b620009ae1760201c565b6200007c81620000686200012360201b620009e51760201c565b6200015960201b62000a131790919060201c565b5062000092620001d760201b62000ac91760201c565b6001600160a01b031660805250620000b79050620001fa602090811b62000af717901c565b620000cc6200021d60201b62000b251760201c565b50620000e26200024060201b62000b531760201c565b5062000377565b62000121636cdb3d1360e11b60016200010c6200026360201b62000b7d1760201c565b6200029360201b62000bab179092919060201c565b565b6000806200015360017fc9ed16f33ab3a66c84bfd83099ccb2a8845871e2e1c1928f63797152f0fd54cd62000355565b92915050565b6001600160a01b03811615620001b05781546001600160a01b0319166001600160a01b03821690811783556040516000907f8be0079c531659141344cd1fd0a4f28419497f9722a3daafe3b4186f6b6457e0908290a35b620001d36307f5828d60e41b60016200010c6200026360201b62000b7d1760201c565b5050565b62000121631464324b60e21b60016200010c6200026360201b62000b7d1760201c565b62000121633a2ae73360e21b60016200010c6200026360201b62000b7d1760201c565b620001216303a24d0760e21b60016200010c6200026360201b62000b7d1760201c565b6200012163921ed8d160e01b60016200010c6200026360201b62000b7d1760201c565b6000806200015360017fca9d3e17f264b0f3984e2634e94adb37fa3e6a8103f06aeae6fa59e21c769f5e62000355565b600160e01b6001600160e01b0319831601620002f55760405162461bcd60e51b815260206004820152601f60248201527f496e74657266616365446574656374696f6e3a2077726f6e672076616c756500604482015260640160405180910390fd5b6001600160e01b03199190911660009081526020929092526040909120805460ff1916911515919091179055565b6000602082840312156200033657600080fd5b81516001600160a01b03811681146200034e57600080fd5b9392505050565b818103818111156200015357634e487b7160e01b600052601160045260246000fd5b608051613a70620003b66000396000818161023a015281816102eb01528181612b2101528181612ba901528181612c5c0152612c9a0152613a706000f3fe608060405234801561001057600080fd5b50600436106101a25760003560e01c80635cfa9297116100ee578063a22cb46511610097578063e8ab9ccc11610071578063e8ab9ccc146103e4578063e985e9c5146103f7578063f242432a1461040a578063f2fde38b1461041d57600080fd5b8063a22cb46514610397578063d5391393146103aa578063d547741f146103d157600080fd5b80638bb9c5bf116100c85780638bb9c5bf146103695780638da5cb5b1461037c57806391d148541461038457600080fd5b80635cfa9297146103305780637e518ec814610343578063805349341461035657600080fd5b80632eb2c2d6116101505780634e1273f41161012a5780634e1273f4146102bb578063572b6c05146102db5780635b2bd79e1461032857600080fd5b80632eb2c2d61461027f5780632f2ff15d1461029257806331e66e1e146102a557600080fd5b80630e89341c116101815780630e89341c14610205578063124d91e5146102255780632b4c9f161461023857600080fd5b8062fdd58e146101a757806301ffc9a7146101cd5780630d6a5bbb146101f0575b600080fd5b6101ba6101b5366004612de9565b610430565b6040519081526020015b60405180910390f35b6101e06101db366004612e41565b61044f565b60405190151581526020016101c4565b6102036101fe366004612ef3565b610463565b005b610218610213366004612f9e565b61055e565b6040516101c49190613025565b610203610233366004613038565b610572565b7f00000000000000000000000000000000000000000000000000000000000000005b60405173ffffffffffffffffffffffffffffffffffffffff90911681526020016101c4565b61020361028d36600461306b565b610596565b6102036102a0366004613126565b6105bf565b6102ad6105f3565b6040516101c492919061319b565b6102ce6102c93660046131af565b610606565b6040516101c49190613256565b6101e06102e9366004613269565b7f000000000000000000000000000000000000000000000000000000000000000073ffffffffffffffffffffffffffffffffffffffff90811691161490565b610218610629565b61020361033e366004613284565b610640565b6102036103513660046132ec565b6106d2565b61020361036436600461332e565b6106fd565b610203610377366004612f9e565b610727565b61025a610745565b6101e0610392366004613126565b61076c565b6102036103a53660046133ac565b6107b0565b6101ba7f6d696e746572000000000000000000000000000000000000000000000000000081565b6102036103df366004613126565b6107cd565b6102036103f23660046133e3565b6107fb565b6101e0610405366004613486565b610920565b6102036104183660046134b0565b61096e565b61020361042b366004613269565b610993565b6000610446838361043f610cbc565b9190610cea565b90505b92915050565b60006104498261045d610b7d565b90610d9e565b600061046d610e78565b90506104a37f6d696e74657200000000000000000000000000000000000000000000000000008261049c610e82565b9190610eb0565b610554818989898080602002602001604051908101604052809392919081815260200183836020028082843760009201919091525050604080516020808d0282810182019093528c82529093508c92508b91829185019084908082843760009201919091525050604080516020601f8c018190048102820181019092528a815292508a915089908190840183828082843760009201919091525061054a9250610cbc915050565b9493929190610f5c565b5050505050505050565b60606104498261056c61114a565b90611178565b61059161057d610e78565b848484610588610cbc565b939291906111ac565b505050565b6105546105a1610e78565b89898989898989896105b1610cbc565b989796959493929190611289565b60006105c9610e78565b90506105dd816105d76109e5565b90611581565b6105918383836105eb610e82565b929190611604565b3660006105fe6116db565b915091509091565b606061062085858585610617610cbc565b939291906116e6565b95945050505050565b606061063b61063661114a565b611824565b905090565b600061064a610e78565b90506106797f6d696e74657200000000000000000000000000000000000000000000000000008261049c610e82565b6106ca8187878787878080601f0160208091040260200160405190810160405280939291908181526020018383808284376000920191909152506106c09250610cbc915050565b94939291906118ba565b505050505050565b6106e56106dd610e78565b6105d76109e5565b6106f982826106f261114a565b91906119c8565b5050565b610720610708610e78565b8686868686610715610cbc565b959493929190611a13565b5050505050565b610742610732610e78565b8261073b610e82565b9190611bca565b50565b600061063b6107526109e5565b5473ffffffffffffffffffffffffffffffffffffffff1690565b6000610446838361077b610e82565b60009283526020908152604080842073ffffffffffffffffffffffffffffffffffffffff909316845291905290205460ff1690565b6106f96107bb610e78565b83836107c5610cbc565b929190611c66565b60006107d7610e78565b90506107e5816105d76109e5565b6105918383836107f3610e82565b929190611d96565b6000610805610e78565b90506108347f6d696e74657200000000000000000000000000000000000000000000000000008261049c610e82565b610915818a8a8080602002602001604051908101604052809392919081815260200183836020028082843760009201919091525050604080516020808e0282810182019093528d82529093508d92508c91829185019084908082843760009201919091525050604080516020808d0282810182019093528c82529093508c92508b91829185019084908082843760009201919091525050604080516020601f8c018190048102820181019092528a815292508a915089908190840183828082843760009201919091525061090b9250610cbc915050565b9493929190611e60565b505050505050505050565b6000610446838361092f610cbc565b919073ffffffffffffffffffffffffffffffffffffffff9182166000908152600193909301602090815260408085209290931684525290205460ff1690565b6106ca610979610e78565b878787878787610987610cbc565b96959493929190611f50565b61074261099e610e78565b826109a76109e5565b9190612133565b6109e37fd9b67a260000000000000000000000000000000000000000000000000000000060016109dc610b7d565b9190610bab565b565b60008061044960017fc9ed16f33ab3a66c84bfd83099ccb2a8845871e2e1c1928f63797152f0fd54cd613528565b73ffffffffffffffffffffffffffffffffffffffff811615610a9b5781547fffffffffffffffffffffffff00000000000000000000000000000000000000001673ffffffffffffffffffffffffffffffffffffffff821690811783556040516000907f8be0079c531659141344cd1fd0a4f28419497f9722a3daafe3b4186f6b6457e0908290a35b6106f97f7f5828d00000000000000000000000000000000000000000000000000000000060016109dc610b7d565b6109e37f5190c92c0000000000000000000000000000000000000000000000000000000060016109dc610b7d565b6109e37fe8ab9ccc0000000000000000000000000000000000000000000000000000000060016109dc610b7d565b6109e37f0e89341c0000000000000000000000000000000000000000000000000000000060016109dc610b7d565b6109e37f921ed8d10000000000000000000000000000000000000000000000000000000060016109dc5b60008061044960017fca9d3e17f264b0f3984e2634e94adb37fa3e6a8103f06aeae6fa59e21c769f5e613528565b7c01000000000000000000000000000000000000000000000000000000007fffffffff00000000000000000000000000000000000000000000000000000000831601610c58576040517f08c379a000000000000000000000000000000000000000000000000000000000815260206004820152601f60248201527f496e74657266616365446574656374696f6e3a2077726f6e672076616c75650060448201526064015b60405180910390fd5b7fffffffff00000000000000000000000000000000000000000000000000000000919091166000908152602092909252604090912080547fffffffffffffffffffffffffffffffffffffffffffffffffffffffffffffff0016911515919091179055565b60008061044960017f5ccf5846fa27a68fafc8e588671a68f5e67c2f9b56af4263806a4d71735e8613613528565b600073ffffffffffffffffffffffffffffffffffffffff8316610d69576040517f08c379a000000000000000000000000000000000000000000000000000000000815260206004820152601e60248201527f455243313135353a2062616c616e6365206f66206164647265737328302900006044820152606401610c4f565b5060009081526020928352604080822073ffffffffffffffffffffffffffffffffffffffff9390931682529190925290205490565b60007c01000000000000000000000000000000000000000000000000000000007fffffffff00000000000000000000000000000000000000000000000000000000831601610dee57506000610449565b7ffe003659000000000000000000000000000000000000000000000000000000007fffffffff00000000000000000000000000000000000000000000000000000000831601610e3f57506001610449565b507fffffffff00000000000000000000000000000000000000000000000000000000166000908152602091909152604090205460ff1690565b600061063b61225f565b60008061044960017fc8827d3282af6f37b64c3e9e6f3ac9df286ab0bb0fccd6f8661bf19adb368b23613528565b60008281526020848152604080832073ffffffffffffffffffffffffffffffffffffffff8516845290915290205460ff1661059157610eee82612269565b604051602001610efe9190613562565b604080517fffffffffffffffffffffffffffffffffffffffffffffffffffffffffffffffe0818403018152908290527f08c379a0000000000000000000000000000000000000000000000000000000008252610c4f91600401613025565b73ffffffffffffffffffffffffffffffffffffffff8416610fd9576040517f08c379a000000000000000000000000000000000000000000000000000000000815260206004820152601b60248201527f455243313135353a206d696e7420746f206164647265737328302900000000006044820152606401610c4f565b825182518114611045576040517f08c379a000000000000000000000000000000000000000000000000000000000815260206004820152601c60248201527f455243313135353a20696e636f6e73697374656e7420617272617973000000006044820152606401610c4f565b60005b8181146110955761108d8887878481518110611066576110666135ce565b6020026020010151878581518110611080576110806135ce565b60200260200101516123fb565b600101611048565b508473ffffffffffffffffffffffffffffffffffffffff16600073ffffffffffffffffffffffffffffffffffffffff168773ffffffffffffffffffffffffffffffffffffffff167f4a39dc06d4c0dbc64b70af90fd698a233a518aa5d07e595d983b8c0526c8f7fb878760405161110d9291906135fd565b60405180910390a473ffffffffffffffffffffffffffffffffffffffff85163b1561114157611141866000878787876124cf565b50505050505050565b60008061044960017fe94434e3c6b941c5d90218142fadcc69cb2e13723993540bfa1c131dd1d3475a613528565b606082611184836125f7565b604051602001611195929190613675565b604051602081830303815290604052905092915050565b6111b78584866126b5565b61121d576040517f08c379a000000000000000000000000000000000000000000000000000000000815260206004820152601c60248201527f455243313135353a206e6f6e2d617070726f7665642073656e646572000000006044820152606401610c4f565b6112298584848461272d565b604080518381526020810183905260009173ffffffffffffffffffffffffffffffffffffffff86811692908816917fc3d58168c5ae7397731d063d5bbf3d657854427343f4c083240f7aacaa2d0f62910160405180910390a45050505050565b73ffffffffffffffffffffffffffffffffffffffff8716611306576040517f08c379a000000000000000000000000000000000000000000000000000000000815260206004820152601f60248201527f455243313135353a207472616e7366657220746f2061646472657373283029006044820152606401610c4f565b84838114611370576040517f08c379a000000000000000000000000000000000000000000000000000000000815260206004820152601c60248201527f455243313135353a20696e636f6e73697374656e7420617272617973000000006044820152606401610c4f565b61137b8b8a8c6126b5565b6113e1576040517f08c379a000000000000000000000000000000000000000000000000000000000815260206004820152601c60248201527f455243313135353a206e6f6e2d617070726f7665642073656e646572000000006044820152606401610c4f565b60005b818114611430576114288c8b8b8b8b86818110611403576114036135ce565b905060200201358a8a8781811061141c5761141c6135ce565b905060200201356127cd565b6001016113e4565b508773ffffffffffffffffffffffffffffffffffffffff168973ffffffffffffffffffffffffffffffffffffffff168b73ffffffffffffffffffffffffffffffffffffffff167f4a39dc06d4c0dbc64b70af90fd698a233a518aa5d07e595d983b8c0526c8f7fb8a8a8a8a6040516114ab9493929190613765565b60405180910390a473ffffffffffffffffffffffffffffffffffffffff88163b15611574576115748a8a8a8a8a8080602002602001604051908101604052809392919081815260200183836020028082843760009201919091525050604080516020808e0282810182019093528d82529093508d92508c91829185019084908082843760009201919091525050604080516020601f8d018190048102820181019092528b815292508b91508a90819084018382808284376000920191909152506124cf92505050565b5050505050505050505050565b815473ffffffffffffffffffffffffffffffffffffffff8281169116146106f9576040517f08c379a000000000000000000000000000000000000000000000000000000000815260206004820152601860248201527f4f776e6572736869703a206e6f7420746865206f776e657200000000000000006044820152606401610c4f565b60008381526020858152604080832073ffffffffffffffffffffffffffffffffffffffff8616845290915290205460ff166116d55760008381526020858152604080832073ffffffffffffffffffffffffffffffffffffffff8681168086529184529382902080547fffffffffffffffffffffffffffffffffffffffffffffffffffffffffffffff00166001179055815187815292830152918316918101919091527f2f8788117e7eff1d82e926ec794901d17c78024a50270940304540a733656f0d906060015b60405180910390a15b50505050565b3660006105fe612980565b606083828114611752576040517f08c379a000000000000000000000000000000000000000000000000000000000815260206004820152601c60248201527f455243313135353a20696e636f6e73697374656e7420617272617973000000006044820152606401610c4f565b8467ffffffffffffffff81111561176b5761176b613797565b604051908082528060200260200182016040528015611794578160200160208202803683370190505b50915060005b818114611819576117f48787838181106117b6576117b66135ce565b90506020020160208101906117cb9190613269565b8686848181106117dd576117dd6135ce565b905060200201358a610cea9092919063ffffffff16565b838281518110611806576118066135ce565b602090810291909101015260010161179a565b505095945050505050565b606081600001805461183590613622565b80601f016020809104026020016040519081016040528092919081815260200182805461186190613622565b80156118ae5780601f10611883576101008083540402835291602001916118ae565b820191906000526020600020905b81548152906001019060200180831161189157829003601f168201915b50505050509050919050565b73ffffffffffffffffffffffffffffffffffffffff8416611937576040517f08c379a000000000000000000000000000000000000000000000000000000000815260206004820152601b60248201527f455243313135353a206d696e7420746f206164647265737328302900000000006044820152606401610c4f565b611943868585856123fb565b604080518481526020810184905273ffffffffffffffffffffffffffffffffffffffff80871692600092918916917fc3d58168c5ae7397731d063d5bbf3d657854427343f4c083240f7aacaa2d0f62910160405180910390a473ffffffffffffffffffffffffffffffffffffffff84163b156106ca576106ca8560008686868661298b565b826119d482848361380c565b507f04b1dc5c136a3ce9fded8db0ce3d3366c58764ec3a8e4c2b9e52e4ddfe5ebbf78282604051611a0692919061319b565b60405180910390a1505050565b82818114611a7d576040517f08c379a000000000000000000000000000000000000000000000000000000000815260206004820152601c60248201527f455243313135353a20696e636f6e73697374656e7420617272617973000000006044820152606401610c4f565b611a888887896126b5565b611aee576040517f08c379a000000000000000000000000000000000000000000000000000000000815260206004820152601c60248201527f455243313135353a206e6f6e2d617070726f7665642073656e646572000000006044820152606401610c4f565b60005b818114611b3c57611b348988888885818110611b0f57611b0f6135ce565b90506020020135878786818110611b2857611b286135ce565b9050602002013561272d565b600101611af1565b50600073ffffffffffffffffffffffffffffffffffffffff168673ffffffffffffffffffffffffffffffffffffffff168873ffffffffffffffffffffffffffffffffffffffff167f4a39dc06d4c0dbc64b70af90fd698a233a518aa5d07e595d983b8c0526c8f7fb88888888604051611bb89493929190613765565b60405180910390a45050505050505050565b611bd5838284610eb0565b60008181526020848152604080832073ffffffffffffffffffffffffffffffffffffffff86168085529083529281902080547fffffffffffffffffffffffffffffffffffffffffffffffffffffffffffffff0016905580518481529182018390528101919091527ff6391f5c32d9c69d2a47ea670b442974b53935d1edc7fd64eb21e047a839171b90606001611a06565b8273ffffffffffffffffffffffffffffffffffffffff168273ffffffffffffffffffffffffffffffffffffffff1603611cfb576040517f08c379a000000000000000000000000000000000000000000000000000000000815260206004820152601e60248201527f455243313135353a2073656c662d617070726f76616c20666f7220616c6c00006044820152606401610c4f565b73ffffffffffffffffffffffffffffffffffffffff838116600081815260018701602090815260408083209487168084529482529182902080547fffffffffffffffffffffffffffffffffffffffffffffffffffffffffffffff001686151590811790915591519182527f17307eab39ab6107e8899845ad3d59bd9653f200f220920489ca2b5937696c31910160405180910390a350505050565b60008381526020858152604080832073ffffffffffffffffffffffffffffffffffffffff8616845290915290205460ff16156116d55760008381526020858152604080832073ffffffffffffffffffffffffffffffffffffffff8681168086529184529382902080547fffffffffffffffffffffffffffffffffffffffffffffffffffffffffffffff00169055815187815292830152918316918101919091527ff6391f5c32d9c69d2a47ea670b442974b53935d1edc7fd64eb21e047a839171b906060016116cc565b8351835181148015611e725750825181145b611ed8576040517f08c379a000000000000000000000000000000000000000000000000000000000815260206004820152601c60248201527f455243313135353a20696e636f6e73697374656e7420617272617973000000006044820152606401610c4f565b60005b81811461055457611f4887878381518110611ef857611ef86135ce565b6020026020010151878481518110611f1257611f126135ce565b6020026020010151878581518110611f2c57611f2c6135ce565b6020026020010151878d6118ba9095949392919063ffffffff16565b600101611edb565b73ffffffffffffffffffffffffffffffffffffffff8516611fcd576040517f08c379a000000000000000000000000000000000000000000000000000000000815260206004820152601f60248201527f455243313135353a207472616e7366657220746f2061646472657373283029006044820152606401610c4f565b611fd88887896126b5565b61203e576040517f08c379a000000000000000000000000000000000000000000000000000000000815260206004820152601c60248201527f455243313135353a206e6f6e2d617070726f7665642073656e646572000000006044820152606401610c4f565b61204b88878787876127cd565b8473ffffffffffffffffffffffffffffffffffffffff168673ffffffffffffffffffffffffffffffffffffffff168873ffffffffffffffffffffffffffffffffffffffff167fc3d58168c5ae7397731d063d5bbf3d657854427343f4c083240f7aacaa2d0f6287876040516120ca929190918252602082015260400190565b60405180910390a473ffffffffffffffffffffffffffffffffffffffff85163b1561055457610554878787878787878080601f01602080910402602001604051908101604052809392919081815260200183838082843760009201919091525061298b92505050565b825473ffffffffffffffffffffffffffffffffffffffff90811690831681146121b8576040517f08c379a000000000000000000000000000000000000000000000000000000000815260206004820152601860248201527f4f776e6572736869703a206e6f7420746865206f776e657200000000000000006044820152606401610c4f565b8173ffffffffffffffffffffffffffffffffffffffff168173ffffffffffffffffffffffffffffffffffffffff16146116d55783547fffffffffffffffffffffffff00000000000000000000000000000000000000001673ffffffffffffffffffffffffffffffffffffffff8381169182178655604051908316907f8be0079c531659141344cd1fd0a4f28419497f9722a3daafe3b4186f6b6457e090600090a350505050565b600061063b6129e7565b6060600082900361228857505060408051602081019091526000815290565b60008260405160200161229d91815260200190565b604080517fffffffffffffffffffffffffffffffffffffffffffffffffffffffffffffffe08184030181529190529050601f5b8181815181106122e2576122e26135ce565b01602001517fff0000000000000000000000000000000000000000000000000000000000000016600003612337577fffffffffffffffffffffffffffffffffffffffffffffffffffffffffffffffff016122d0565b60008160010167ffffffffffffffff81111561235557612355613797565b6040519080825280601f01601f19166020018201604052801561237f576020820181803683370190505b50905060005b8281116123f25783818151811061239e5761239e6135ce565b602001015160f81c60f81b8282815181106123bb576123bb6135ce565b60200101907effffffffffffffffffffffffffffffffffffffffffffffffffffffffffffff1916908160001a905350600101612385565b50949350505050565b80156116d55760008281526020858152604080832073ffffffffffffffffffffffffffffffffffffffff8716845290915290205481810181811161249b576040517f08c379a000000000000000000000000000000000000000000000000000000000815260206004820152601960248201527f455243313135353a2062616c616e6365206f766572666c6f77000000000000006044820152606401610c4f565b60009384526020958652604080852073ffffffffffffffffffffffffffffffffffffffff9690961685529490955250502055565b6040517fbc197c81000000000000000000000000000000000000000000000000000000008082529073ffffffffffffffffffffffffffffffffffffffff86169063bc197c819061252b908a908a90899089908990600401613926565b6020604051808303816000875af115801561254a573d6000803e3d6000fd5b505050506040513d601f19601f8201168201806040525081019061256e9190613991565b7fffffffff0000000000000000000000000000000000000000000000000000000016146106ca576040517f08c379a000000000000000000000000000000000000000000000000000000000815260206004820152601a60248201527f455243313135353a207472616e736665722072656a65637465640000000000006044820152606401610c4f565b60606000612604836129f1565b600101905060008167ffffffffffffffff81111561262457612624613797565b6040519080825280601f01601f19166020018201604052801561264e576020820181803683370190505b5090508181016020015b7fffffffffffffffffffffffffffffffffffffffffffffffffffffffffffffffff017f3031323334353637383961626364656600000000000000000000000000000000600a86061a8153600a850494508461265857509392505050565b60008173ffffffffffffffffffffffffffffffffffffffff168373ffffffffffffffffffffffffffffffffffffffff161480612725575073ffffffffffffffffffffffffffffffffffffffff808416600090815260018601602090815260408083209386168352929052205460ff165b949350505050565b80156116d55760008281526020858152604080832073ffffffffffffffffffffffffffffffffffffffff8716845290915290205481810381811061249b576040517f08c379a000000000000000000000000000000000000000000000000000000000815260206004820152601d60248201527f455243313135353a20696e73756666696369656e742062616c616e63650000006044820152606401610c4f565b80156107205760008281526020868152604080832073ffffffffffffffffffffffffffffffffffffffff8816845290915290205481810381811061286d576040517f08c379a000000000000000000000000000000000000000000000000000000000815260206004820152601d60248201527f455243313135353a20696e73756666696369656e742062616c616e63650000006044820152606401610c4f565b8473ffffffffffffffffffffffffffffffffffffffff168673ffffffffffffffffffffffffffffffffffffffff16146111415760008481526020888152604080832073ffffffffffffffffffffffffffffffffffffffff8916845290915290205483810181811161293a576040517f08c379a000000000000000000000000000000000000000000000000000000000815260206004820152601960248201527f455243313135353a2062616c616e6365206f766572666c6f77000000000000006044820152606401610c4f565b600086815260208a8152604080832073ffffffffffffffffffffffffffffffffffffffff808d1685528184528285208890558b1684529091529020555050505050505050565b3660006105fe612ad3565b6040517ff23a6e61000000000000000000000000000000000000000000000000000000008082529073ffffffffffffffffffffffffffffffffffffffff86169063f23a6e619061252b908a908a908990899089906004016139ae565b600061063b612ade565b6000807a184f03e93ff9f4daa797ed6e38ed64bf6a1f0100000000000000008310612a3a577a184f03e93ff9f4daa797ed6e38ed64bf6a1f010000000000000000830492506040015b6d04ee2d6d415b85acef81000000008310612a66576d04ee2d6d415b85acef8100000000830492506020015b662386f26fc100008310612a8457662386f26fc10000830492506010015b6305f5e1008310612a9c576305f5e100830492506008015b6127108310612ab057612710830492506004015b60648310612ac2576064830492506002015b600a83106104495760010192915050565b3660006105fe612c25565b600033321480612aee5750601836105b15612af857503390565b7fffffffffffffffffffffffffffffffffffffffffffffffffffffffffffffffec36013560601c7f000000000000000000000000000000000000000000000000000000000000000073ffffffffffffffffffffffffffffffffffffffff16331480612c1457506040517f8929a8ca00000000000000000000000000000000000000000000000000000000815273ffffffffffffffffffffffffffffffffffffffff82811660048301523360248301527f00000000000000000000000000000000000000000000000000000000000000001690638929a8ca90604401602060405180830381865afa158015612bf0573d6000803e3d6000fd5b505050506040513d601f19601f82011682018060405250810190612c1491906139f3565b15612c1e57919050565b3391505090565b36600033321480612c365750601836105b15612c445750600091369150565b3373ffffffffffffffffffffffffffffffffffffffff7f0000000000000000000000000000000000000000000000000000000000000000161480612d79575073ffffffffffffffffffffffffffffffffffffffff7f000000000000000000000000000000000000000000000000000000000000000016638929a8ca367fffffffffffffffffffffffffffffffffffffffffffffffffffffffffffffffec013560601c6040517fffffffff0000000000000000000000000000000000000000000000000000000060e084901b16815273ffffffffffffffffffffffffffffffffffffffff9091166004820152336024820152604401602060405180830381865afa158015612d55573d6000803e3d6000fd5b505050506040513d601f19601f82011682018060405250810190612d7991906139f3565b15612d86576105fe612d8f565b50600091369150565b3660006105fe7fffffffffffffffffffffffffffffffffffffffffffffffffffffffffffffffec8301828481613a10565b803573ffffffffffffffffffffffffffffffffffffffff81168114612de457600080fd5b919050565b60008060408385031215612dfc57600080fd5b612e0583612dc0565b946020939093013593505050565b7fffffffff000000000000000000000000000000000000000000000000000000008116811461074257600080fd5b600060208284031215612e5357600080fd5b8135612e5e81612e13565b9392505050565b60008083601f840112612e7757600080fd5b50813567ffffffffffffffff811115612e8f57600080fd5b6020830191508360208260051b8501011115612eaa57600080fd5b9250929050565b60008083601f840112612ec357600080fd5b50813567ffffffffffffffff811115612edb57600080fd5b602083019150836020828501011115612eaa57600080fd5b60008060008060008060006080888a031215612f0e57600080fd5b612f1788612dc0565b9650602088013567ffffffffffffffff80821115612f3457600080fd5b612f408b838c01612e65565b909850965060408a0135915080821115612f5957600080fd5b612f658b838c01612e65565b909650945060608a0135915080821115612f7e57600080fd5b50612f8b8a828b01612eb1565b989b979a50959850939692959293505050565b600060208284031215612fb057600080fd5b5035919050565b60005b83811015612fd2578181015183820152602001612fba565b50506000910152565b60008151808452612ff3816020860160208601612fb7565b601f017fffffffffffffffffffffffffffffffffffffffffffffffffffffffffffffffe0169290920160200192915050565b6020815260006104466020830184612fdb565b60008060006060848603121561304d57600080fd5b61305684612dc0565b95602085013595506040909401359392505050565b60008060008060008060008060a0898b03121561308757600080fd5b61309089612dc0565b975061309e60208a01612dc0565b9650604089013567ffffffffffffffff808211156130bb57600080fd5b6130c78c838d01612e65565b909850965060608b01359150808211156130e057600080fd5b6130ec8c838d01612e65565b909650945060808b013591508082111561310557600080fd5b506131128b828c01612eb1565b999c989b5096995094979396929594505050565b6000806040838503121561313957600080fd5b8235915061314960208401612dc0565b90509250929050565b8183528181602085013750600060208284010152600060207fffffffffffffffffffffffffffffffffffffffffffffffffffffffffffffffe0601f840116840101905092915050565b602081526000612725602083018486613152565b600080600080604085870312156131c557600080fd5b843567ffffffffffffffff808211156131dd57600080fd5b6131e988838901612e65565b9096509450602087013591508082111561320257600080fd5b5061320f87828801612e65565b95989497509550505050565b600081518084526020808501945080840160005b8381101561324b5781518752958201959082019060010161322f565b509495945050505050565b602081526000610446602083018461321b565b60006020828403121561327b57600080fd5b61044682612dc0565b60008060008060006080868803121561329c57600080fd5b6132a586612dc0565b94506020860135935060408601359250606086013567ffffffffffffffff8111156132cf57600080fd5b6132db88828901612eb1565b969995985093965092949392505050565b600080602083850312156132ff57600080fd5b823567ffffffffffffffff81111561331657600080fd5b61332285828601612eb1565b90969095509350505050565b60008060008060006060868803121561334657600080fd5b61334f86612dc0565b9450602086013567ffffffffffffffff8082111561336c57600080fd5b61337889838a01612e65565b9096509450604088013591508082111561339157600080fd5b506132db88828901612e65565b801515811461074257600080fd5b600080604083850312156133bf57600080fd5b6133c883612dc0565b915060208301356133d88161339e565b809150509250929050565b6000806000806000806000806080898b0312156133ff57600080fd5b883567ffffffffffffffff8082111561341757600080fd5b6134238c838d01612e65565b909a50985060208b013591508082111561343c57600080fd5b6134488c838d01612e65565b909850965060408b013591508082111561346157600080fd5b61346d8c838d01612e65565b909650945060608b013591508082111561310557600080fd5b6000806040838503121561349957600080fd5b6134a283612dc0565b915061314960208401612dc0565b60008060008060008060a087890312156134c957600080fd5b6134d287612dc0565b95506134e060208801612dc0565b94506040870135935060608701359250608087013567ffffffffffffffff81111561350a57600080fd5b61351689828a01612eb1565b979a9699509497509295939492505050565b81810381811115610449577f4e487b7100000000000000000000000000000000000000000000000000000000600052601160045260246000fd5b7f416363657373436f6e74726f6c3a206d697373696e672027000000000000000081526000825161359a816018850160208701612fb7565b7f2720726f6c6500000000000000000000000000000000000000000000000000006018939091019283015250601e01919050565b7f4e487b7100000000000000000000000000000000000000000000000000000000600052603260045260246000fd5b604081526000613610604083018561321b565b8281036020840152610620818561321b565b600181811c9082168061363657607f821691505b60208210810361366f577f4e487b7100000000000000000000000000000000000000000000000000000000600052602260045260246000fd5b50919050565b600080845461368381613622565b6001828116801561369b57600181146136ce576136fd565b7fffffffffffffffffffffffffffffffffffffffffffffffffffffffffffffff00841687528215158302870194506136fd565b8860005260208060002060005b858110156136f45781548a8201529084019082016136db565b50505082870194505b505050508351613711818360208801612fb7565b01949350505050565b81835260007f07ffffffffffffffffffffffffffffffffffffffffffffffffffffffffffffff83111561374c57600080fd5b8260051b80836020870137939093016020019392505050565b60408152600061377960408301868861371a565b828103602084015261378c81858761371a565b979650505050505050565b7f4e487b7100000000000000000000000000000000000000000000000000000000600052604160045260246000fd5b601f82111561059157600081815260208120601f850160051c810160208610156137ed5750805b601f850160051c820191505b818110156106ca578281556001016137f9565b67ffffffffffffffff83111561382457613824613797565b613838836138328354613622565b836137c6565b6000601f84116001811461388a57600085156138545750838201355b7fffffffffffffffffffffffffffffffffffffffffffffffffffffffffffffffff600387901b1c1916600186901b178355610720565b6000838152602090207fffffffffffffffffffffffffffffffffffffffffffffffffffffffffffffffe0861690835b828110156138d957868501358255602094850194600190920191016138b9565b5086821015613914577fffffffffffffffffffffffffffffffffffffffffffffffffffffffffffffffff60f88860031b161c19848701351681555b505060018560011b0183555050505050565b600073ffffffffffffffffffffffffffffffffffffffff808816835280871660208401525060a0604083015261395f60a083018661321b565b8281036060840152613971818661321b565b905082810360808401526139858185612fdb565b98975050505050505050565b6000602082840312156139a357600080fd5b8151612e5e81612e13565b600073ffffffffffffffffffffffffffffffffffffffff808816835280871660208401525084604083015283606083015260a0608083015261378c60a0830184612fdb565b600060208284031215613a0557600080fd5b8151612e5e8161339e565b60008085851115613a2057600080fd5b83861115613a2d57600080fd5b505082019391909203915056fea2646970667358221220b9495197c76be29592c9358d52e9dfb34ff4756d78c268e6e0b85a3cb18b1d5064736f6c63430008110033",
  "linkReferences": {},
  "deployedLinkReferences": {}
}