{
  "_format": "hh-sol-artifact-1",
  "contractName": "ERC721DeliverableOnceFacetMock",
  "sourceName": "contracts/mocks/token/ERC721/facets/ERC721DeliverableOnceFacetMock.sol",
  "abi": [
    {
      "inputs": [
        {
          "internalType": "contract IForwarderRegistry",
          "name": "forwarderRegistry",
          "type": "address"
        }
      ],
      "stateMutability": "nonpayable",
      "type": "constructor"
    },
    {
      "inputs": [
        {
          "internalType": "uint256",
          "name": "tokenId",
          "type": "uint256"
        }
      ],
      "name": "ERC721BurntToken",
      "type": "error"
    },
    {
      "inputs": [
        {
          "internalType": "uint256",
          "name": "tokenId",
          "type": "uint256"
        }
      ],
      "name": "ERC721ExistingToken",
      "type": "error"
    },
    {
      "inputs": [],
      "name": "ERC721MintToAddressZero",
      "type": "error"
    },
    {
      "inputs": [],
      "name": "IllegalInterfaceId",
      "type": "error"
    },
    {
      "inputs": [],
      "name": "InconsistentArrayLengths",
      "type": "error"
    },
    {
      "inputs": [
        {
          "internalType": "address",
          "name": "account",
          "type": "address"
        }
      ],
      "name": "NotProxyAdmin",
      "type": "error"
    },
    {
      "inputs": [
        {
          "internalType": "bytes32",
          "name": "role",
          "type": "bytes32"
        },
        {
          "internalType": "address",
          "name": "account",
          "type": "address"
        }
      ],
      "name": "NotRoleHolder",
      "type": "error"
    },
    {
      "anonymous": false,
      "inputs": [
        {
          "indexed": true,
          "internalType": "address",
          "name": "from",
          "type": "address"
        },
        {
          "indexed": true,
          "internalType": "address",
          "name": "to",
          "type": "address"
        },
        {
          "indexed": true,
          "internalType": "uint256",
          "name": "tokenId",
          "type": "uint256"
        }
      ],
      "name": "Transfer",
      "type": "event"
    },
    {
      "inputs": [],
      "name": "__msgData",
      "outputs": [
        {
          "internalType": "bytes",
          "name": "",
          "type": "bytes"
        }
      ],
      "stateMutability": "view",
      "type": "function"
    },
    {
      "inputs": [
        {
          "internalType": "address[]",
          "name": "recipients",
          "type": "address[]"
        },
        {
          "internalType": "uint256[]",
          "name": "tokenIds",
          "type": "uint256[]"
        }
      ],
      "name": "deliver",
      "outputs": [],
      "stateMutability": "nonpayable",
      "type": "function"
    },
    {
      "inputs": [],
      "name": "initERC721DeliverableOnceStorage",
      "outputs": [],
      "stateMutability": "nonpayable",
      "type": "function"
    }
  ],
  "bytecode": "0x60a0604052348015600f57600080fd5b50604051610bf4380380610bf4833981016040819052602c91603c565b6001600160a01b0316608052606a565b600060208284031215604d57600080fd5b81516001600160a01b0381168114606357600080fd5b9392505050565b608051610b5a61009a600039600081816105ae015281816105ec0152818161072401526107ac0152610b5a6000f3fe608060405234801561001057600080fd5b50600436106100415760003560e01c806331e66e1e146100465780639da5e83214610065578063c0b884681461007a575b600080fd5b61004e610082565b60405161005c929190610963565b60405180910390f35b6100786100733660046109fc565b610095565b005b61007861014e565b36600061008d610171565b915091509091565b6100d07f6d696e74657200000000000000000000000000000000000000000000000000006100c161017c565b6100c961018b565b91906101bf565b61014884848080602002602001604051908101604052809392919081815260200183836020028082843760009201919091525050604080516020808802828101820190935287825290935087925086918291850190849080828437600092019190915250610141925061024f915050565b919061027d565b50505050565b61016761015961017c565b6101616104a5565b906104d3565b61016f610542565b565b36600061008d610577565b60006101866106e1565b905090565b6000806101b960017fc8827d3282af6f37b64c3e9e6f3ac9df286ab0bb0fccd6f8661bf19adb368b23610a68565b92915050565b60008281526020848152604080832073ffffffffffffffffffffffffffffffffffffffff8516845290915290205460ff1661024a576040517f7aa728820000000000000000000000000000000000000000000000000000000081526004810183905273ffffffffffffffffffffffffffffffffffffffff821660248201526044015b60405180910390fd5b505050565b6000806101b960017fddf3ee18ae6d688373c219468f8be446e7ae82215f4779d821c7ea5e8c13c0c1610a68565b8151815181146102b9576040517f6582533600000000000000000000000000000000000000000000000000000000815260040160405180910390fd5b60005b8181101561049e5760008482815181106102d8576102d8610aa2565b60200260200101519050600073ffffffffffffffffffffffffffffffffffffffff168173ffffffffffffffffffffffffffffffffffffffff1603610348576040517f7851b9cd00000000000000000000000000000000000000000000000000000000815260040160405180910390fd5b600084838151811061035c5761035c610aa2565b60209081029190910181015160008181529189905260409091205490915073ffffffffffffffffffffffffffffffffffffffff8116156103cb576040517f753eceac00000000000000000000000000000000000000000000000000000000815260048101839052602401610241565b7fdead0000000000000000000000000000000000000000000000000000000000008103610427576040517f31e8d3d500000000000000000000000000000000000000000000000000000000815260048101839052602401610241565b60008281526020898152604080832073ffffffffffffffffffffffffffffffffffffffff8716908190558084526001808d019093528184208054909301909255518492907fddf252ad1be2c89b69c2b068fc378daa952ba7f163c4a11628f55a4df523b3ef908290a45050508060010190506102bc565b5050505050565b6000806101b960017fb53127684a568b3173ae13b9f8a6016e243e63b6e8ee1178d6a717850b5d6104610a68565b815473ffffffffffffffffffffffffffffffffffffffff82811691161461053e576040517f673a31a100000000000000000000000000000000000000000000000000000000815273ffffffffffffffffffffffffffffffffffffffff82166004820152602401610241565b5050565b61016f7f9da5e832000000000000000000000000000000000000000000000000000000006001610570610828565b9190610856565b366000333214806105885750601836105b156105965750600091369150565b3373ffffffffffffffffffffffffffffffffffffffff7f00000000000000000000000000000000000000000000000000000000000000001614806106cb575073ffffffffffffffffffffffffffffffffffffffff7f000000000000000000000000000000000000000000000000000000000000000016638929a8ca367fffffffffffffffffffffffffffffffffffffffffffffffffffffffffffffffec013560601c6040517fffffffff0000000000000000000000000000000000000000000000000000000060e084901b16815273ffffffffffffffffffffffffffffffffffffffff9091166004820152336024820152604401602060405180830381865afa1580156106a7573d6000803e3d6000fd5b505050506040513d601f19601f820116820180604052508101906106cb9190610ad1565b156106d85761008d610932565b50600091369150565b6000333214806106f15750601836105b156106fb57503390565b7fffffffffffffffffffffffffffffffffffffffffffffffffffffffffffffffec36013560601c7f000000000000000000000000000000000000000000000000000000000000000073ffffffffffffffffffffffffffffffffffffffff1633148061081757506040517f8929a8ca00000000000000000000000000000000000000000000000000000000815273ffffffffffffffffffffffffffffffffffffffff82811660048301523360248301527f00000000000000000000000000000000000000000000000000000000000000001690638929a8ca90604401602060405180830381865afa1580156107f3573d6000803e3d6000fd5b505050506040513d601f19601f820116820180604052508101906108179190610ad1565b1561082157919050565b3391505090565b6000806101b960017fca9d3e17f264b0f3984e2634e94adb37fa3e6a8103f06aeae6fa59e21c769f5e610a68565b7c01000000000000000000000000000000000000000000000000000000007fffffffff000000000000000000000000000000000000000000000000000000008316016108ce576040517f72c683bb00000000000000000000000000000000000000000000000000000000815260040160405180910390fd5b7fffffffff00000000000000000000000000000000000000000000000000000000919091166000908152602092909252604090912080547fffffffffffffffffffffffffffffffffffffffffffffffffffffffffffffff0016911515919091179055565b36600061008d7fffffffffffffffffffffffffffffffffffffffffffffffffffffffffffffffec8301828481610afa565b60208152816020820152818360408301376000818301604090810191909152601f9092017fffffffffffffffffffffffffffffffffffffffffffffffffffffffffffffffe0160101919050565b60008083601f8401126109c257600080fd5b50813567ffffffffffffffff8111156109da57600080fd5b6020830191508360208260051b85010111156109f557600080fd5b9250929050565b60008060008060408587031215610a1257600080fd5b843567ffffffffffffffff80821115610a2a57600080fd5b610a36888389016109b0565b90965094506020870135915080821115610a4f57600080fd5b50610a5c878288016109b0565b95989497509550505050565b818103818111156101b9577f4e487b7100000000000000000000000000000000000000000000000000000000600052601160045260246000fd5b7f4e487b7100000000000000000000000000000000000000000000000000000000600052603260045260246000fd5b600060208284031215610ae357600080fd5b81518015158114610af357600080fd5b9392505050565b60008085851115610b0a57600080fd5b83861115610b1757600080fd5b505082019391909203915056fea26469706673582212207ba16361ac238ef8527ef1008b538f2704c4d0e56a5246a457af14d780bf16a564736f6c63430008190033",
  "linkReferences": {},
  "deployedLinkReferences": {}
}