{
  "_format": "hh-sol-artifact-1",
  "contractName": "ERC721DeliverableOnceFacetMock",
  "sourceName": "contracts/mocks/token/ERC721/facets/ERC721DeliverableOnceFacetMock.sol",
  "abi": [
    {
      "inputs": [
        {
          "internalType": "contract IForwarderRegistry",
          "name": "forwarderRegistry",
          "type": "address"
        }
      ],
      "stateMutability": "nonpayable",
      "type": "constructor"
    },
    {
      "inputs": [
        {
          "internalType": "uint256",
          "name": "tokenId",
          "type": "uint256"
        }
      ],
      "name": "ERC721BurntToken",
      "type": "error"
    },
    {
      "inputs": [
        {
          "internalType": "uint256",
          "name": "tokenId",
          "type": "uint256"
        }
      ],
      "name": "ERC721ExistingToken",
      "type": "error"
    },
    {
      "inputs": [],
      "name": "ERC721MintToAddressZero",
      "type": "error"
    },
    {
      "inputs": [],
      "name": "IllegalInterfaceId",
      "type": "error"
    },
    {
      "inputs": [],
      "name": "InconsistentArrayLengths",
      "type": "error"
    },
    {
      "inputs": [
        {
          "internalType": "address",
          "name": "account",
          "type": "address"
        }
      ],
      "name": "NotProxyAdmin",
      "type": "error"
    },
    {
      "inputs": [
        {
          "internalType": "bytes32",
          "name": "role",
          "type": "bytes32"
        },
        {
          "internalType": "address",
          "name": "account",
          "type": "address"
        }
      ],
      "name": "NotRoleHolder",
      "type": "error"
    },
    {
      "anonymous": false,
      "inputs": [
        {
          "indexed": true,
          "internalType": "address",
          "name": "owner",
          "type": "address"
        },
        {
          "indexed": true,
          "internalType": "address",
          "name": "approved",
          "type": "address"
        },
        {
          "indexed": true,
          "internalType": "uint256",
          "name": "tokenId",
          "type": "uint256"
        }
      ],
      "name": "Approval",
      "type": "event"
    },
    {
      "anonymous": false,
      "inputs": [
        {
          "indexed": true,
          "internalType": "address",
          "name": "owner",
          "type": "address"
        },
        {
          "indexed": true,
          "internalType": "address",
          "name": "operator",
          "type": "address"
        },
        {
          "indexed": false,
          "internalType": "bool",
          "name": "approved",
          "type": "bool"
        }
      ],
      "name": "ApprovalForAll",
      "type": "event"
    },
    {
      "anonymous": false,
      "inputs": [
        {
          "indexed": true,
          "internalType": "address",
          "name": "from",
          "type": "address"
        },
        {
          "indexed": true,
          "internalType": "address",
          "name": "to",
          "type": "address"
        },
        {
          "indexed": true,
          "internalType": "uint256",
          "name": "tokenId",
          "type": "uint256"
        }
      ],
      "name": "Transfer",
      "type": "event"
    },
    {
      "inputs": [],
      "name": "__msgData",
      "outputs": [
        {
          "internalType": "bytes",
          "name": "",
          "type": "bytes"
        }
      ],
      "stateMutability": "view",
      "type": "function"
    },
    {
      "inputs": [
        {
          "internalType": "address[]",
          "name": "recipients",
          "type": "address[]"
        },
        {
          "internalType": "uint256[]",
          "name": "tokenIds",
          "type": "uint256[]"
        }
      ],
      "name": "deliver",
      "outputs": [],
      "stateMutability": "nonpayable",
      "type": "function"
    },
    {
      "inputs": [],
      "name": "initERC721DeliverableOnceStorage",
      "outputs": [],
      "stateMutability": "nonpayable",
      "type": "function"
    }
  ],
  "bytecode": "0x60a060405234801561000f575f80fd5b50604051610bc1380380610bc183398101604081905261002e9161003f565b6001600160a01b031660805261006c565b5f6020828403121561004f575f80fd5b81516001600160a01b0381168114610065575f80fd5b9392505050565b608051610b286100995f395f8181610599015281816105d70152818161070b01526107930152610b285ff3fe608060405234801561000f575f80fd5b506004361061003f575f3560e01c806331e66e1e146100435780639da5e83214610062578063c0b8846814610077575b5f80fd5b61004b61007f565b604051610059929190610945565b60405180910390f35b6100756100703660046109d9565b610091565b005b610075610148565b365f61008961016b565b915091509091565b6100cc7f6d696e74657200000000000000000000000000000000000000000000000000006100bd610175565b6100c5610183565b91906101b6565b6101428484808060200260200160405190810160405280939291908181526020018383602002808284375f92019190915250506040805160208088028281018201909352878252909350879250869182918501908490808284375f9201919091525061013b9250610245915050565b9190610272565b50505050565b610161610153610175565b61015b610493565b906104c0565b61016961052f565b565b365f610089610564565b5f61017e6106c9565b905090565b5f806101b060017fc8827d3282af6f37b64c3e9e6f3ac9df286ab0bb0fccd6f8661bf19adb368b23610a40565b92915050565b5f8281526020848152604080832073ffffffffffffffffffffffffffffffffffffffff8516845290915290205460ff16610240576040517f7aa728820000000000000000000000000000000000000000000000000000000081526004810183905273ffffffffffffffffffffffffffffffffffffffff821660248201526044015b60405180910390fd5b505050565b5f806101b060017fddf3ee18ae6d688373c219468f8be446e7ae82215f4779d821c7ea5e8c13c0c1610a40565b8151815181146102ae576040517f6582533600000000000000000000000000000000000000000000000000000000815260040160405180910390fd5b5f5b81811461048c575f8482815181106102ca576102ca610a78565b602002602001015190505f73ffffffffffffffffffffffffffffffffffffffff168173ffffffffffffffffffffffffffffffffffffffff1603610339576040517f7851b9cd00000000000000000000000000000000000000000000000000000000815260040160405180910390fd5b5f84838151811061034c5761034c610a78565b6020908102919091018101515f8181529189905260409091205490915073ffffffffffffffffffffffffffffffffffffffff8116156103ba576040517f753eceac00000000000000000000000000000000000000000000000000000000815260048101839052602401610237565b7fdead0000000000000000000000000000000000000000000000000000000000008103610416576040517f31e8d3d500000000000000000000000000000000000000000000000000000000815260048101839052602401610237565b5f8281526020898152604080832073ffffffffffffffffffffffffffffffffffffffff8716908190558084526001808d019093528184208054909301909255518492907fddf252ad1be2c89b69c2b068fc378daa952ba7f163c4a11628f55a4df523b3ef908290a45050508060010190506102b0565b5050505050565b5f806101b060017fb53127684a568b3173ae13b9f8a6016e243e63b6e8ee1178d6a717850b5d6104610a40565b815473ffffffffffffffffffffffffffffffffffffffff82811691161461052b576040517f673a31a100000000000000000000000000000000000000000000000000000000815273ffffffffffffffffffffffffffffffffffffffff82166004820152602401610237565b5050565b6101697f9da5e83200000000000000000000000000000000000000000000000000000000600161055d61080d565b919061083a565b365f333214806105745750601836105b1561058157505f91369150565b3373ffffffffffffffffffffffffffffffffffffffff7f00000000000000000000000000000000000000000000000000000000000000001614806106b4575073ffffffffffffffffffffffffffffffffffffffff7f000000000000000000000000000000000000000000000000000000000000000016638929a8ca367fffffffffffffffffffffffffffffffffffffffffffffffffffffffffffffffec013560601c6040517fffffffff0000000000000000000000000000000000000000000000000000000060e084901b16815273ffffffffffffffffffffffffffffffffffffffff9091166004820152336024820152604401602060405180830381865afa158015610690573d5f803e3d5ffd5b505050506040513d601f19601f820116820180604052508101906106b49190610aa5565b156106c157610089610915565b505f91369150565b5f333214806106d85750601836105b156106e257503390565b7fffffffffffffffffffffffffffffffffffffffffffffffffffffffffffffffec36013560601c7f000000000000000000000000000000000000000000000000000000000000000073ffffffffffffffffffffffffffffffffffffffff163314806107fc57506040517f8929a8ca00000000000000000000000000000000000000000000000000000000815273ffffffffffffffffffffffffffffffffffffffff82811660048301523360248301527f00000000000000000000000000000000000000000000000000000000000000001690638929a8ca90604401602060405180830381865afa1580156107d8573d5f803e3d5ffd5b505050506040513d601f19601f820116820180604052508101906107fc9190610aa5565b1561080657919050565b3391505090565b5f806101b060017fca9d3e17f264b0f3984e2634e94adb37fa3e6a8103f06aeae6fa59e21c769f5e610a40565b7c01000000000000000000000000000000000000000000000000000000007fffffffff000000000000000000000000000000000000000000000000000000008316016108b2576040517f72c683bb00000000000000000000000000000000000000000000000000000000815260040160405180910390fd5b7fffffffff00000000000000000000000000000000000000000000000000000000919091165f908152602092909252604090912080547fffffffffffffffffffffffffffffffffffffffffffffffffffffffffffffff0016911515919091179055565b365f6100897fffffffffffffffffffffffffffffffffffffffffffffffffffffffffffffffec8301828481610acb565b60208152816020820152818360408301375f818301604090810191909152601f9092017fffffffffffffffffffffffffffffffffffffffffffffffffffffffffffffffe0160101919050565b5f8083601f8401126109a1575f80fd5b50813567ffffffffffffffff8111156109b8575f80fd5b6020830191508360208260051b85010111156109d2575f80fd5b9250929050565b5f805f80604085870312156109ec575f80fd5b843567ffffffffffffffff80821115610a03575f80fd5b610a0f88838901610991565b90965094506020870135915080821115610a27575f80fd5b50610a3487828801610991565b95989497509550505050565b818103818111156101b0577f4e487b71000000000000000000000000000000000000000000000000000000005f52601160045260245ffd5b7f4e487b71000000000000000000000000000000000000000000000000000000005f52603260045260245ffd5b5f60208284031215610ab5575f80fd5b81518015158114610ac4575f80fd5b9392505050565b5f8085851115610ad9575f80fd5b83861115610ae5575f80fd5b505082019391909203915056fea2646970667358221220a2f849931e8750434c34029a389460c94bdcbc59ed2950e17f8f3b87f288624d64736f6c63430008150033",
  "linkReferences": {},
  "deployedLinkReferences": {}
}