{
  "_format": "hh-sol-artifact-1",
  "contractName": "OwnershipStorage",
  "sourceName": "contracts/access/libraries/OwnershipStorage.sol",
  "abi": [
    {
      "anonymous": false,
      "inputs": [
        {
          "indexed": true,
          "internalType": "address",
          "name": "previousOwner",
          "type": "address"
        },
        {
          "indexed": true,
          "internalType": "address",
          "name": "newOwner",
          "type": "address"
        }
      ],
      "name": "OwnershipTransferred",
      "type": "event"
    },
    {
      "inputs": [],
      "name": "OWNERSHIP_STORAGE_POSITION",
      "outputs": [
        {
          "internalType": "bytes32",
          "name": "",
          "type": "bytes32"
        }
      ],
      "stateMutability": "view",
      "type": "function"
    },
    {
      "inputs": [],
      "name": "OWNERSHIP_VERSION_SLOT",
      "outputs": [
        {
          "internalType": "bytes32",
          "name": "",
          "type": "bytes32"
        }
      ],
      "stateMutability": "view",
      "type": "function"
    }
  ],
  "bytecode": "0x61012561003a600b82828239805160001a60731461002d57634e487b7160e01b600052600060045260246000fd5b30600052607381538281f3fe7300000000000000000000000000000000000000003014608060405260043610603d5760003560e01c8063100de1cc1460425780631f89775814605a575b600080fd5b60486060565b60405190815260200160405180910390f35b6048608c565b608960017f6a1da6973104ff7dedb9b4f5cab5830b3f4a0284ed754366cfc45568bd2d38df60b2565b81565b608960017ff1e2f4de496ffe5d046d751d8ec3c329ee011c6c6a229322971a7e02a207f9735b60008282101560ea577f4e487b7100000000000000000000000000000000000000000000000000000000600052601160045260246000fd5b50039056fea26469706673582212205a7189ddd71dd7eee62a0a861433f160862a04819d40f44b6f59a63e0b8d49f664736f6c634300080d0033",
  "linkReferences": {},
  "deployedLinkReferences": {}
}