{
  "_format": "hh-sol-artifact-1",
  "contractName": "ERC721BatchTransferFacetMock",
  "sourceName": "contracts/mocks/token/ERC721/facets/ERC721BatchTransferFacetMock.sol",
  "abi": [
    {
      "inputs": [
        {
          "internalType": "contract IForwarderRegistry",
          "name": "forwarderRegistry",
          "type": "address"
        }
      ],
      "stateMutability": "nonpayable",
      "type": "constructor"
    },
    {
      "inputs": [],
      "name": "__msgData",
      "outputs": [
        {
          "internalType": "bytes",
          "name": "",
          "type": "bytes"
        }
      ],
      "stateMutability": "view",
      "type": "function"
    },
    {
      "inputs": [
        {
          "internalType": "address",
          "name": "from",
          "type": "address"
        },
        {
          "internalType": "address",
          "name": "to",
          "type": "address"
        },
        {
          "internalType": "uint256[]",
          "name": "tokenIds",
          "type": "uint256[]"
        }
      ],
      "name": "batchTransferFrom",
      "outputs": [],
      "stateMutability": "nonpayable",
      "type": "function"
    },
    {
      "inputs": [],
      "name": "initERC721BatchTransferStorage",
      "outputs": [],
      "stateMutability": "nonpayable",
      "type": "function"
    }
  ],
  "bytecode": "0x60a060405234801561001057600080fd5b50604051610d7d380380610d7d83398101604081905261002f91610040565b6001600160a01b0316608052610070565b60006020828403121561005257600080fd5b81516001600160a01b038116811461006957600080fd5b9392505050565b608051610cdd6100a0600039600081816105af015281816106190152818161075701526107f70152610cdd6000f3fe608060405234801561001057600080fd5b50600436106100415760003560e01c806331e66e1e14610046578063684a78aa14610065578063f3993d111461006f575b600080fd5b61004e610082565b60405161005c929190610a43565b60405180910390f35b61006d610095565b005b61006d61007d366004610ae8565b6100b8565b36600061008d6100dc565b915091509091565b6100ae6100a06100e7565b6100a86100f6565b9061012a565b6100b66101b6565b565b6100d76100c36100e7565b8484846100ce6101eb565b93929190610219565b505050565b36600061008d610597565b60006100f161071b565b905090565b60008061012460017fb53127684a568b3173ae13b9f8a6016e243e63b6e8ee1178d6a717850b5d6104610be7565b92915050565b815473ffffffffffffffffffffffffffffffffffffffff8281169116146101b2576040517f08c379a000000000000000000000000000000000000000000000000000000000815260206004820152601960248201527f50726f787941646d696e3a206e6f74207468652061646d696e0000000000000060448201526064015b60405180910390fd5b5050565b6100b67ff3993d110000000000000000000000000000000000000000000000000000000060016101e4610873565b91906108a1565b60008061012460017fddf3ee18ae6d688373c219468f8be446e7ae82215f4779d821c7ea5e8c13c0c1610be7565b73ffffffffffffffffffffffffffffffffffffffff8216610296576040517f08c379a000000000000000000000000000000000000000000000000000000000815260206004820152601e60248201527f4552433732313a207472616e7366657220746f2061646472657373283029000060448201526064016101a9565b60006102a38685876109ad565b825190915060005b8181146105105760008482815181106102c6576102c6610c25565b6020908102919091018101516000818152918b905260409091205490915073ffffffffffffffffffffffffffffffffffffffff8116610361576040517f08c379a000000000000000000000000000000000000000000000000000000000815260206004820152601a60248201527f4552433732313a206e6f6e2d6578697374696e6720746f6b656e00000000000060448201526064016101a9565b73ffffffffffffffffffffffffffffffffffffffff88168173ffffffffffffffffffffffffffffffffffffffff16146103f6576040517f08c379a000000000000000000000000000000000000000000000000000000000815260206004820152601760248201527f4552433732313a206e6f6e2d6f776e656420746f6b656e00000000000000000060448201526064016101a9565b846104af57740100000000000000000000000000000000000000008116151580156104495750600082815260028b01602052604090205473ffffffffffffffffffffffffffffffffffffffff8a81169116145b6104af576040517f08c379a000000000000000000000000000000000000000000000000000000000815260206004820152601b60248201527f4552433732313a206e6f6e2d617070726f7665642073656e646572000000000060448201526064016101a9565b600082815260208b9052604080822073ffffffffffffffffffffffffffffffffffffffff808b16918290559151859391928c16917fddf252ad1be2c89b69c2b068fc378daa952ba7f163c4a11628f55a4df523b3ef91a450506001016102ab565b508373ffffffffffffffffffffffffffffffffffffffff168573ffffffffffffffffffffffffffffffffffffffff161415801561054c57508015155b1561058e5773ffffffffffffffffffffffffffffffffffffffff8086166000908152600189016020526040808220805485900390559186168152208054820190555b50505050505050565b366000333281036105ad57506000923692509050565b7f000000000000000000000000000000000000000000000000000000000000000073ffffffffffffffffffffffffffffffffffffffff168173ffffffffffffffffffffffffffffffffffffffff1614806106fa575073ffffffffffffffffffffffffffffffffffffffff7f00000000000000000000000000000000000000000000000000000000000000001663e60125d6367fffffffffffffffffffffffffffffffffffffffffffffffffffffffffffffffec013560601c6040517fffffffff0000000000000000000000000000000000000000000000000000000060e084901b16815273ffffffffffffffffffffffffffffffffffffffff91821660048201529084166024820152604401602060405180830381865afa1580156106d6573d6000803e3d6000fd5b505050506040513d601f19601f820116820180604052508101906106fa9190610c54565b1561071057610707610a25565b92509250509091565b506000923692509050565b60003332810361072a57919050565b6000367fffffffffffffffffffffffffffffffffffffffffffffffffffffffffffffffec013560601c90507f000000000000000000000000000000000000000000000000000000000000000073ffffffffffffffffffffffffffffffffffffffff168273ffffffffffffffffffffffffffffffffffffffff16148061086257506040517fe60125d600000000000000000000000000000000000000000000000000000000815273ffffffffffffffffffffffffffffffffffffffff828116600483015283811660248301527f0000000000000000000000000000000000000000000000000000000000000000169063e60125d690604401602060405180830381865afa15801561083e573d6000803e3d6000fd5b505050506040513d601f19601f820116820180604052508101906108629190610c54565b1561086d5792915050565b50919050565b60008061012460017fca9d3e17f264b0f3984e2634e94adb37fa3e6a8103f06aeae6fa59e21c769f5e610be7565b7c01000000000000000000000000000000000000000000000000000000007fffffffff00000000000000000000000000000000000000000000000000000000831601610949576040517f08c379a000000000000000000000000000000000000000000000000000000000815260206004820152601f60248201527f496e74657266616365446574656374696f6e3a2077726f6e672076616c75650060448201526064016101a9565b7fffffffff00000000000000000000000000000000000000000000000000000000919091166000908152602092909252604090912080547fffffffffffffffffffffffffffffffffffffffffffffffffffffffffffffff0016911515919091179055565b60008173ffffffffffffffffffffffffffffffffffffffff168373ffffffffffffffffffffffffffffffffffffffff161480610a1d575073ffffffffffffffffffffffffffffffffffffffff808416600090815260038601602090815260408083209386168352929052205460ff165b949350505050565b366000808083610a36601482610be7565b9261008d93929190610c7d565b60208152816020820152818360408301376000818301604090810191909152601f9092017fffffffffffffffffffffffffffffffffffffffffffffffffffffffffffffffe0160101919050565b803573ffffffffffffffffffffffffffffffffffffffff81168114610ab457600080fd5b919050565b7f4e487b7100000000000000000000000000000000000000000000000000000000600052604160045260246000fd5b600080600060608486031215610afd57600080fd5b610b0684610a90565b92506020610b15818601610a90565b9250604085013567ffffffffffffffff80821115610b3257600080fd5b818701915087601f830112610b4657600080fd5b813581811115610b5857610b58610ab9565b8060051b6040517fffffffffffffffffffffffffffffffffffffffffffffffffffffffffffffffe0603f83011681018181108582111715610b9b57610b9b610ab9565b60405291825284820192508381018501918a831115610bb957600080fd5b938501935b82851015610bd757843584529385019392850192610bbe565b8096505050505050509250925092565b600082821015610c20577f4e487b7100000000000000000000000000000000000000000000000000000000600052601160045260246000fd5b500390565b7f4e487b7100000000000000000000000000000000000000000000000000000000600052603260045260246000fd5b600060208284031215610c6657600080fd5b81518015158114610c7657600080fd5b9392505050565b60008085851115610c8d57600080fd5b83861115610c9a57600080fd5b505082019391909203915056fea2646970667358221220c3a3c38d9a859efaca2d1d15cccbe0dcdb7925589dd00799ba87b707a6b2b85e64736f6c634300080e0033",
  "linkReferences": {},
  "deployedLinkReferences": {}
}