{
  "_format": "hh-sol-artifact-1",
  "contractName": "CheckpointsFacetMock",
  "sourceName": "contracts/mocks/lifecycle/CheckpointsFacetMock.sol",
  "abi": [
    {
      "anonymous": false,
      "inputs": [
        {
          "indexed": false,
          "internalType": "bytes32",
          "name": "checkpointId",
          "type": "bytes32"
        },
        {
          "indexed": false,
          "internalType": "uint256",
          "name": "timestamp",
          "type": "uint256"
        }
      ],
      "name": "CheckpointSet",
      "type": "event"
    },
    {
      "inputs": [],
      "name": "START_CHECKPOINTID",
      "outputs": [
        {
          "internalType": "bytes32",
          "name": "",
          "type": "bytes32"
        }
      ],
      "stateMutability": "view",
      "type": "function"
    },
    {
      "inputs": [
        {
          "internalType": "bytes32",
          "name": "checkpointId",
          "type": "bytes32"
        }
      ],
      "name": "checkpoint",
      "outputs": [
        {
          "internalType": "uint256",
          "name": "",
          "type": "uint256"
        }
      ],
      "stateMutability": "view",
      "type": "function"
    },
    {
      "inputs": [
        {
          "internalType": "bytes32",
          "name": "checkpointId",
          "type": "bytes32"
        }
      ],
      "name": "checkpointReached",
      "outputs": [
        {
          "internalType": "bool",
          "name": "",
          "type": "bool"
        }
      ],
      "stateMutability": "view",
      "type": "function"
    },
    {
      "inputs": [
        {
          "internalType": "bytes32",
          "name": "checkpointId",
          "type": "bytes32"
        }
      ],
      "name": "enforceCheckpointNotReached",
      "outputs": [],
      "stateMutability": "view",
      "type": "function"
    },
    {
      "inputs": [
        {
          "internalType": "bytes32",
          "name": "checkpointId",
          "type": "bytes32"
        }
      ],
      "name": "enforceCheckpointReached",
      "outputs": [],
      "stateMutability": "view",
      "type": "function"
    },
    {
      "inputs": [
        {
          "internalType": "bytes32[]",
          "name": "checkpointIds",
          "type": "bytes32[]"
        },
        {
          "internalType": "uint256[]",
          "name": "timestamps",
          "type": "uint256[]"
        }
      ],
      "name": "initCheckpointsStorage",
      "outputs": [],
      "stateMutability": "nonpayable",
      "type": "function"
    },
    {
      "inputs": [
        {
          "internalType": "bytes32",
          "name": "checkpointId",
          "type": "bytes32"
        },
        {
          "internalType": "uint256",
          "name": "timestamp",
          "type": "uint256"
        }
      ],
      "name": "setCheckpoint",
      "outputs": [],
      "stateMutability": "nonpayable",
      "type": "function"
    },
    {
      "inputs": [
        {
          "internalType": "bytes32",
          "name": "checkpointId",
          "type": "bytes32"
        }
      ],
      "name": "triggerCheckpoint",
      "outputs": [],
      "stateMutability": "nonpayable",
      "type": "function"
    }
  ],
  "bytecode": "0x608060405234801561001057600080fd5b50610daa806100206000396000f3fe608060405234801561001057600080fd5b50600436106100875760003560e01c80634f410a801161005b5780634f410a80146100ef5780635b34eba014610102578063b4c6cf7614610123578063deb4d7461461014a57600080fd5b8062cb171d1461008c578063151bdba6146100a1578063244c00be146100c95780634bddd15c146100dc575b600080fd5b61009f61009a3660046109c5565b61015d565b005b6100b46100af366004610a7e565b610187565b60405190151581526020015b60405180910390f35b61009f6100d7366004610a7e565b6101a1565b61009f6100ea366004610a7e565b6101b6565b61009f6100fd366004610a97565b6101c8565b610115610110366004610a7e565b6101ef565b6040519081526020016100c0565b6101157f535441525400000000000000000000000000000000000000000000000000000081565b61009f610158366004610a7e565b61020d565b61016f33610169610228565b90610256565b610183828261017c6102de565b919061030c565b5050565b600061019b826101956102de565b90610461565b92915050565b6101b3816101ad6102de565b90610487565b50565b6101b3816101c26102de565b9061050c565b6101db335b6101d5610534565b90610562565b61018382826101e86102de565b91906105e5565b600061019b826101fd6102de565b6000918252602052604090205490565b610216336101cd565b6101b3816102226102de565b90610667565b60008061019b60017fb53127684a568b3173ae13b9f8a6016e243e63b6e8ee1178d6a717850b5d6104610ae8565b815473ffffffffffffffffffffffffffffffffffffffff828116911614610183576040517f08c379a000000000000000000000000000000000000000000000000000000000815260206004820152601960248201527f50726f787941646d696e3a206e6f74207468652061646d696e0000000000000060448201526064015b60405180910390fd5b60008061019b60017f4a524ceabb4f005f39a09bc26e36b1ec596a1100d17cea8abc46bdceb12607ae610ae8565b61034161033a60017f4c8f66364c5b891527359e308e3f184aaf00c094b068e22e5fcea10aed154790610ae8565b60016106be565b80518251146103ac576040517f08c379a000000000000000000000000000000000000000000000000000000000815260206004820152601f60248201527f436865636b706f696e74733a2077726f6e67206172726179206c656e6774680060448201526064016102d5565b60005b825181101561045b5760008282815181106103cc576103cc610aff565b602002602001015190508060001461044a5760008483815181106103f2576103f2610aff565b602090810291909101810151600081815288835260409081902085905580518281529283018590529092507f099ea97db121bdf4a102e67113e27b6bb74713015b32a5f0e1c3ea0d44fb2953910160405180910390a1505b5061045481610b2e565b90506103af565b50505050565b600081815260208390526040812054801580159061047f5750804210155b949350505050565b6104918282610461565b6101835761049e8161072e565b6040516020016104ae9190610b92565b604080517fffffffffffffffffffffffffffffffffffffffffffffffffffffffffffffffe0818403018152908290527f08c379a00000000000000000000000000000000000000000000000000000000082526102d591600401610bfe565b6105168282610461565b15610183576105248161072e565b6040516020016104ae9190610c4f565b60008061019b60017f6a1da6973104ff7dedb9b4f5cab5830b3f4a0284ed754366cfc45568bd2d38df610ae8565b815473ffffffffffffffffffffffffffffffffffffffff828116911614610183576040517f08c379a000000000000000000000000000000000000000000000000000000000815260206004820152601860248201527f4f776e6572736869703a206e6f7420746865206f776e6572000000000000000060448201526064016102d5565b60008281526020849052604090205415610612576106028261072e565b6040516020016104ae9190610cbb565b8015610662576000828152602084815260409182902083905581518481529081018390527f099ea97db121bdf4a102e67113e27b6bb74713015b32a5f0e1c3ea0d44fb2953910160405180910390a15b505050565b610671828261050c565b6000818152602083815260409182902042908190558251848152918201527f099ea97db121bdf4a102e67113e27b6bb74713015b32a5f0e1c3ea0d44fb2953910160405180910390a15050565b81548290821161072a576040517f08c379a000000000000000000000000000000000000000000000000000000000815260206004820152601860248201527f53746f726167653a2076657273696f6e2072656163686564000000000000000060448201526064016102d5565b5550565b6060600082900361074d57505060408051602081019091526000815290565b60008260405160200161076291815260200190565b604080517fffffffffffffffffffffffffffffffffffffffffffffffffffffffffffffffe08184030181529190529050601f5b8181815181106107a7576107a7610aff565b01602001517fff00000000000000000000000000000000000000000000000000000000000000166000036107e5576107de81610d27565b9050610795565b60006107f2826001610d5c565b67ffffffffffffffff81111561080a5761080a6108b8565b6040519080825280601f01601f191660200182016040528015610834576020820181803683370190505b50905060005b8281116108af5783818151811061085357610853610aff565b602001015160f81c60f81b82828151811061087057610870610aff565b60200101907effffffffffffffffffffffffffffffffffffffffffffffffffffffffffffff1916908160001a9053506108a881610b2e565b905061083a565b50949350505050565b7f4e487b7100000000000000000000000000000000000000000000000000000000600052604160045260246000fd5b604051601f82017fffffffffffffffffffffffffffffffffffffffffffffffffffffffffffffffe016810167ffffffffffffffff8111828210171561092e5761092e6108b8565b604052919050565b600067ffffffffffffffff821115610950576109506108b8565b5060051b60200190565b600082601f83011261096b57600080fd5b8135602061098061097b83610936565b6108e7565b82815260059290921b8401810191818101908684111561099f57600080fd5b8286015b848110156109ba57803583529183019183016109a3565b509695505050505050565b600080604083850312156109d857600080fd5b823567ffffffffffffffff808211156109f057600080fd5b818501915085601f830112610a0457600080fd5b81356020610a1461097b83610936565b82815260059290921b84018101918181019089841115610a3357600080fd5b948201945b83861015610a5157853582529482019490820190610a38565b96505086013592505080821115610a6757600080fd5b50610a748582860161095a565b9150509250929050565b600060208284031215610a9057600080fd5b5035919050565b60008060408385031215610aaa57600080fd5b50508035926020909101359150565b7f4e487b7100000000000000000000000000000000000000000000000000000000600052601160045260246000fd5b600082821015610afa57610afa610ab9565b500390565b7f4e487b7100000000000000000000000000000000000000000000000000000000600052603260045260246000fd5b60007fffffffffffffffffffffffffffffffffffffffffffffffffffffffffffffffff8203610b5f57610b5f610ab9565b5060010190565b60005b83811015610b81578181015183820152602001610b69565b8381111561045b5750506000910152565b7f436865636b706f696e74733a20636865636b706f696e74202700000000000000815260008251610bca816019850160208701610b66565b7f27206e6f742072656163686564207965740000000000000000000000000000006019939091019283015250602a01919050565b6020815260008251806020840152610c1d816040850160208701610b66565b601f017fffffffffffffffffffffffffffffffffffffffffffffffffffffffffffffffe0169190910160400192915050565b7f436865636b706f696e74733a20636865636b706f696e74202700000000000000815260008251610c87816019850160208701610b66565b7f2720616c726561647920726561636865640000000000000000000000000000006019939091019283015250602a01919050565b7f436865636b706f696e74733a20636865636b706f696e74202700000000000000815260008251610cf3816019850160208701610b66565b7f2720616c726561647920736574000000000000000000000000000000000000006019939091019283015250602601919050565b600081610d3657610d36610ab9565b507fffffffffffffffffffffffffffffffffffffffffffffffffffffffffffffffff0190565b60008219821115610d6f57610d6f610ab9565b50019056fea264697066735822122081291a6c37d08a6cb77bd4126cf946ded9dd412a4cbcd70654ff7c8308e375df64736f6c634300080d0033",
  "linkReferences": {},
  "deployedLinkReferences": {}
}