{
  "_format": "hh-sol-artifact-1",
  "contractName": "CheckpointsFacetMock",
  "sourceName": "contracts/mocks/lifecycle/CheckpointsFacetMock.sol",
  "abi": [
    {
      "inputs": [
        {
          "internalType": "contract IForwarderRegistry",
          "name": "forwarderRegistry",
          "type": "address"
        }
      ],
      "stateMutability": "nonpayable",
      "type": "constructor"
    },
    {
      "anonymous": false,
      "inputs": [
        {
          "indexed": false,
          "internalType": "bytes32",
          "name": "checkpointId",
          "type": "bytes32"
        },
        {
          "indexed": false,
          "internalType": "uint256",
          "name": "timestamp",
          "type": "uint256"
        }
      ],
      "name": "CheckpointSet",
      "type": "event"
    },
    {
      "inputs": [],
      "name": "START_CHECKPOINTID",
      "outputs": [
        {
          "internalType": "bytes32",
          "name": "",
          "type": "bytes32"
        }
      ],
      "stateMutability": "view",
      "type": "function"
    },
    {
      "inputs": [],
      "name": "__msgData",
      "outputs": [
        {
          "internalType": "bytes",
          "name": "",
          "type": "bytes"
        }
      ],
      "stateMutability": "view",
      "type": "function"
    },
    {
      "inputs": [
        {
          "internalType": "bytes32",
          "name": "checkpointId",
          "type": "bytes32"
        }
      ],
      "name": "checkpoint",
      "outputs": [
        {
          "internalType": "uint256",
          "name": "",
          "type": "uint256"
        }
      ],
      "stateMutability": "view",
      "type": "function"
    },
    {
      "inputs": [
        {
          "internalType": "bytes32",
          "name": "checkpointId",
          "type": "bytes32"
        }
      ],
      "name": "checkpointReached",
      "outputs": [
        {
          "internalType": "bool",
          "name": "",
          "type": "bool"
        }
      ],
      "stateMutability": "view",
      "type": "function"
    },
    {
      "inputs": [
        {
          "internalType": "bytes32",
          "name": "checkpointId",
          "type": "bytes32"
        }
      ],
      "name": "enforceCheckpointNotReached",
      "outputs": [],
      "stateMutability": "view",
      "type": "function"
    },
    {
      "inputs": [
        {
          "internalType": "bytes32",
          "name": "checkpointId",
          "type": "bytes32"
        }
      ],
      "name": "enforceCheckpointReached",
      "outputs": [],
      "stateMutability": "view",
      "type": "function"
    },
    {
      "inputs": [
        {
          "internalType": "bytes32[]",
          "name": "checkpointIds",
          "type": "bytes32[]"
        },
        {
          "internalType": "uint256[]",
          "name": "timestamps",
          "type": "uint256[]"
        }
      ],
      "name": "initCheckpointsStorage",
      "outputs": [],
      "stateMutability": "nonpayable",
      "type": "function"
    },
    {
      "inputs": [
        {
          "internalType": "bytes32",
          "name": "checkpointId",
          "type": "bytes32"
        },
        {
          "internalType": "uint256",
          "name": "timestamp",
          "type": "uint256"
        }
      ],
      "name": "setCheckpoint",
      "outputs": [],
      "stateMutability": "nonpayable",
      "type": "function"
    },
    {
      "inputs": [
        {
          "internalType": "bytes32",
          "name": "checkpointId",
          "type": "bytes32"
        }
      ],
      "name": "triggerCheckpoint",
      "outputs": [],
      "stateMutability": "nonpayable",
      "type": "function"
    }
  ],
  "bytecode": "0x60a06040523480156200001157600080fd5b5060405162003e9038038062003e90833981810160405281019062000037919062000201565b80806200006d7f6a83522c126b1f14401cda64886fc651a7060f385b5e2d289e620e1859fee4e760001b6200017a60201b60201c565b620000a17ff6fd3c5688ac3ada9425e55f9cce326a85fd64fca9b1584401f3d2203aee560b60001b6200017a60201b60201c565b620000d57fe7883c748f395270b53c914004a2b83ffb6acf3836fed33ec0a3c0eb061e618860001b6200017a60201b60201c565b8073ffffffffffffffffffffffffffffffffffffffff1660808173ffffffffffffffffffffffffffffffffffffffff1681525050506200013e7f5d9694455b99cf9eacbe00f14b3aece396864ec74ac65b68454de3f4dae9025b60001b6200017d60201b60201c565b50620001737fe2d1636e39f69e6ec5bccb489e6d506af790ec9cd2640e77b74612dd7abf03cc60001b6200018060201b60201c565b5062000233565b50565b50565b50565b600080fd5b600073ffffffffffffffffffffffffffffffffffffffff82169050919050565b6000620001b58262000188565b9050919050565b6000620001c982620001a8565b9050919050565b620001db81620001bc565b8114620001e757600080fd5b50565b600081519050620001fb81620001d0565b92915050565b6000602082840312156200021a576200021962000183565b5b60006200022a84828501620001ea565b91505092915050565b608051613c2c62000264600039600081816120fa0152818161214f01528181612d110152612d660152613c2c6000f3fe608060405234801561001057600080fd5b50600436106100a25760003560e01c80634bddd15c116100765780635b34eba01161005b5780635b34eba014610166578063b4c6cf7614610196578063deb4d746146101b4576100a2565b80634bddd15c1461012e5780634f410a801461014a576100a2565b8062cb171d146100a7578063151bdba6146100c3578063244c00be146100f357806331e66e1e1461010f575b600080fd5b6100c160048036038101906100bc9190613303565b6101d0565b005b6100dd60048036038101906100d8919061337b565b6102ed565b6040516100ea91906133c3565b60405180910390f35b61010d6004803603810190610108919061337b565b610394565b005b610117610435565b60405161012592919061342b565b60405180910390f35b6101486004803603810190610143919061337b565b6104cc565b005b610164600480360381019061015f919061344f565b61056d565b005b610180600480360381019061017b919061337b565b61068a565b60405161018d919061349e565b60405180910390f35b61019e610731565b6040516101ab91906134c8565b60405180910390f35b6101ce60048036038101906101c9919061337b565b610755565b005b6101fc7f31fe7c9574874884933969f4eb8fd39da072c4a3745effa7287fdff08cc912e860001b61086f565b6102287ff06ee42b6a040c3c5dd5657496b98ac8f7d8a962e67d8dfe2a9ce25d17785afd60001b61086f565b6102547fdba9871c4b525c89c21a14c26d33f717fa882b294cf56c3e9f2750ace44a850b60001b61086f565b61027561025f610872565b610267610905565b6109f590919063ffffffff16565b6102a17f6e1f7b442032fc783792fce0b031b9d0e1c0aa7829eb0cc0ad4ad45725a2339a60001b61086f565b6102cd7f3705e6762c6d740245d301a3b8ea668b1ac68693b7734a33bf4bbed5769ebe1260001b61086f565b6102e982826102da610b67565b610c579092919063ffffffff16565b5050565b600061031b7fdf2c0281e6f851ba4f780f997569549b21c9da1f08937fe26c45f4bcf28272c160001b611138565b6103477fa56b8b6971074b9674b3e7fbc7f9485f20f486074c27f7a2ce913eecb8b29d2960001b611138565b6103737f256b038b944c760b18700494b4998f9ca7ccce61cfb5cc0da09f7ec24b68929b60001b611138565b61038d8261037f610b67565b61113b90919063ffffffff16565b9050919050565b6103c07f4ba09e75b5fe82f4d3416fae870b690ab70f97b22559e0d8089e685165943b0860001b61124d565b6103ec7f19979463ebc877166129e6e86db3217381613a677c1fbef5c3e3d90ab695b55160001b61124d565b6104187f3cc04b9165b8de26f18e128c7b7dec9484df4b3006be98560c9d5c117a67e48360001b61124d565b61043281610424610b67565b61125090919063ffffffff16565b50565b3660006104647f2f4b11e6b725a7eeebbf14de3db46e939963eb6587740d6cb16d3421bf26648460001b61124d565b6104907f4a31e802229115275eed8eadb8803de1e8e47841a2d54dc9ca5c67e6b0b60d4660001b61124d565b6104bc7fa3c425d568ee34f4bdc508ab30025b470c91dfd32591dc99e5fed34211f028e060001b61124d565b6104c4611403565b915091509091565b6104f87fa1a5f647ccf8c3d45352781fdff9bf8da37fd0b4a3e2c37f05bb97e45428d18660001b61124d565b6105247f79b5937e7753ea01d18aeb77dd8754540381db3bca6d9370ae54805d883c2f8c60001b61124d565b6105507f8fa6563006c35ef327d9ec97429b50432770bb8c2959860c5929d8d320792f3660001b61124d565b61056a8161055c610b67565b61149a90919063ffffffff16565b50565b6105997ff42a804b4ee725138f100a85f8607b5586571ba61ac680215932b6a7e373375560001b611138565b6105c57fe9b88993994b4dccb7e1e75f536bfae37f27f66bb81af94871f7d8c4c15e8ea460001b611138565b6105f17f9bfac3bcb6abd8f7e27c44dc4cda9c331bed6ce8b982c9a5e630146bc01888ac60001b611138565b6106126105fc610872565b61060461164e565b61173e90919063ffffffff16565b61063e7fd2bef87d607db0722115d8a77b7a47fc272e92c7b4923d73adb5d27c0b67ef8e60001b611138565b61066a7f75d0bd1a7da8959508f43d42ae56ed92384998812c0f9c934807a11dcd638fe260001b611138565b6106868282610677610b67565b6118b09092919063ffffffff16565b5050565b60006106b87fe6ea953d9e9083808ac384982c7844ae841a2a48f1d9138bba6368ada403ef6460001b611138565b6106e47fea46f5a03001f196b10fe61abf91bccd118bc4307bdeda3bd6511595e269657560001b611138565b6107107f0c4a2942637957d7b3e987ebfa895556a3847e7cef638b1029a4181188f8ce2860001b611138565b61072a8261071c610b67565b611c2b90919063ffffffff16565b9050919050565b7f535441525400000000000000000000000000000000000000000000000000000081565b6107817faa12f83cf9566503ad2247c6ca00ff2eee40a09ec1a8089e866ebbeb5624f32a60001b611138565b6107ad7f6b27405f8fdc55260d11e6e7499a3fd53c849581516cf52602d9ea8dd67e8b7d60001b611138565b6107d97f84c8991107ff68e679391e57fe4b413964d1949bf36ba0a93e16b803edf962c160001b611138565b6107fa6107e4610872565b6107ec61164e565b61173e90919063ffffffff16565b6108267f07b52b7c6d79ea8c6292e5d9c35fc91d70c46f3740598c369738e9d7447846ef60001b611138565b6108527f105ed62da8a67218ca2012c82cd27a625189e26b03f6e0100048110259f23c4760001b611138565b61086c8161085e610b67565b611ccf90919063ffffffff16565b50565b50565b60006108a07f43440e85c5c4dab9322fbd0822d4dc67eed54ad78cfb04b535bd9152f5d790d660001b61086f565b6108cc7f583136e2c91f8c91e0d7aebd4e0018ea4291b0f6319ef215225cf4ba194e6dd060001b61086f565b6108f87f25400a4fc330947dc9f7313bfca8fc0c4750c4a67bedfb36bfc29808a4fbb62260001b61086f565b610900611e6d565b905090565b60006109337f29f8332165901d83adc683db950bfa7095446b76821902b9cad5a516e9f9f82660001b61230a565b61095f7f5c570bd87bb3a186c2c87ff3dd5f58d2c75a5776fe94e0a63fa851fe46a5fa6c60001b61230a565b61098b7f405d85ac952971491b2260d550a90002555502250fb83d68df5efc35f77841ce60001b61230a565b600060017fb53127684a568b3173ae13b9f8a6016e243e63b6e8ee1178d6a717850b5d610460001c6109bd9190613512565b60001b90506109ee7f1d9ce065e06330dbac07abf26a98b6d505daa95772ac105ad61ed7479f8c2b1260001b61230a565b8091505090565b610a217fbc11fd154e3161de2183b89db4eb967bb1b4cbab0325086fa95095436c11e72b60001b61230a565b610a4d7f1815b032362e96a6d2f880b8f118c97fe36f9016e4d7dde560dc18768369a66d60001b61230a565b610a797f25f11631eb07cc17d412b02bd63f72577eb8df190f4046eb3478c12a4bb8ae6860001b61230a565b610aa57ff4fb509d189314ad76c001fa3c672e032a121e16ca67380d998b64660c91044960001b61230a565b8160000160009054906101000a900473ffffffffffffffffffffffffffffffffffffffff1673ffffffffffffffffffffffffffffffffffffffff168173ffffffffffffffffffffffffffffffffffffffff1614610b37576040517f08c379a0000000000000000000000000000000000000000000000000000000008152600401610b2e906135a3565b60405180910390fd5b610b637f059066040512573aa34012041b24446b05cb97113084d9f5307dec4a489aeed260001b61230a565b5050565b6000610b957f2644116298d34d164b144a1b960d0b359338c007efeb1d386748fb2a797ba87a60001b61230d565b610bc17f6569571ded37db6ce9738807fb9097ec64b5cbc7c7d5c2132c5856cadf789e6760001b61230d565b610bed7f853ba97a77241d57bdd5b03deb65666fddad1cd5d786a7401d0ffc78e5ce3aa960001b61230d565b600060017f4a524ceabb4f005f39a09bc26e36b1ec596a1100d17cea8abc46bdceb12607ae60001c610c1f9190613512565b60001b9050610c507fff2f8af9d777ef25be9ead5672bab74c2e735ac5fcefd23cfe7441975c6e4afe60001b61230d565b8091505090565b610c837f8249a94839178bf9374d049d8ae4f2b32e387c3dc49391c728f925999f7dc97c60001b61230d565b610caf7f32c17853d72d20083550dfec0d92e0f809b6d63f810c2e4254e6ab90b1cf781860001b61230d565b610cdb7fbf5ef3ce265eaa8989720a392f0e7b861c6ded47e8035f8c03ba4a6320270fcc60001b61230d565b610d1860017f4c8f66364c5b891527359e308e3f184aaf00c094b068e22e5fcea10aed15479060001c610d0e9190613512565b60001b6001612310565b610d447f7e4940996aaf235e9f68fd1b205f6f38ad5262e2a7e6aab99d5efff30138751b60001b61230d565b610d707f71c369154441fb0da0f9153dcd1e8f56637dfef9ebc7165aa3d61ad4e57f643860001b61230d565b610d9c7f3a3678828b7b48c5afe74bb29736a39790138e478e1013c0de9fe4150e46023260001b61230d565b8051825114610de0576040517f08c379a0000000000000000000000000000000000000000000000000000000008152600401610dd79061360f565b60405180910390fd5b610e0c7fc55feffde5b41b9b2def7926c218e04ad3c80a0643a2b864df8f2bfba3c292d160001b61230d565b610e387f96b7e43a1a3b172bb4c532b967914d569d82252980db5f05e3246a998e33d94a60001b61230d565b610e647f25e4f84d0e634dbf193a3236d241c4fc4406bbcb6d0658687ed70fb8dd7456e160001b61230d565b60005b825181101561113257610e9c7fe2f775c8bf2cd0937d4e77511f071980414c4b7e9f3cf5472c5def9e3473d86360001b61230d565b610ec87f39fa488540c9b11cfbbe7e36743108a293c42d59b47a4cc53ae2323b2af0ab0960001b61230d565b6000828281518110610edd57610edc61362f565b5b60200260200101519050610f137f82b036bd4377a7859c1f51c025c13b3dc47801428ec625d2db4c3a2c1729978860001b61230d565b610f3f7f35aa86a7d40ab71051c62864d84496a4f1eb56428c00fea96a78cf67c4f91bfa60001b61230d565b600081146110f357610f737f9ffe80ee1d7ea23dc1288d6152908315b0718d87ac64deefdd28efdaac100e3060001b61230d565b610f9f7ff4b6768d897278d5ae29f58f6048565ebd3d5e8cad40f853a48ecc0e493ba66d60001b61230d565b610fcb7fff6c0f9159c04fdf62db1705bb7d346ca306104f2775ba2406609a52467f355860001b61230d565b6000848381518110610fe057610fdf61362f565b5b602002602001015190506110167f3e10abc842612513b85395a64d9f6ce99ec6427a1134f8f89665a886b948ce7160001b61230d565b6110427fd30ffaf92386d288008901cf04f92bea4bb218dadc705e46d3fb88656b1e8ebd60001b61230d565b81866000016000838152602001908152602001600020819055506110887f1e539947297c9343d4ebaac879ea8ed1466a27e6bd3f4ac49ebe3d2f56ba937960001b61230d565b6110b47f5be1860bd21e79ff916f36534b522bc256d4ef82ecd8ff31cfc6a9d2a015227d60001b61230d565b7f099ea97db121bdf4a102e67113e27b6bb74713015b32a5f0e1c3ea0d44fb295381836040516110e592919061365e565b60405180910390a150611120565b61111f7f14931433907a94c9c899464254c5fe95a7001d803c2753917c8028d28f4097d160001b61230d565b5b508061112b90613687565b9050610e67565b50505050565b50565b60006111697f5d613ddc4c80fde3fd482a898e4fb3514fd3f66d6cc07c365a2691e907c4b53360001b61230d565b6111957f28abf6b4c72139481debb7613464fb50cea752a69bc2858121a95fe8aca0e4fc60001b61230d565b6111c17f5e59170ca4d54b923c77867a85d2b464b4fb30d861aeee24fbda65893f29179d60001b61230d565b60008360000160008481526020019081526020016000205490506112077ff8d49efce6f245a6d23ea8675fe2643f911804f1dd0916bb22e8fd7f7d51716060001b61230d565b6112337f6565478fa8e77f37df80ae3dc26437b3d8e1008a5eb3b9b8853f6f51d305e6de60001b61230d565b600081141580156112445750804210155b91505092915050565b50565b61127c7f6ea74813d798b4a6c587c131de97c5107d27e1052bc987d52057935f5989ca0d60001b61230d565b6112a87fc20e2bf2b07640af67cb9a669eec2ace370073b4ac6543397a490357a4e0892a60001b61230d565b6112d47f0e0cdb11795750fb6a7f43d18a4296977ece5c6743a9693310e376643bb5069260001b61230d565b6112e7818361113b90919063ffffffff16565b6113d3576113177f09680411c1b8441305d685826ef2062c98e7473ba969d961fb3cd7b2cb4566e060001b61230d565b6113437fff166bfa1ceecb3203fb2d7c0378a210e9a1c4e908e6b83005797124f276a8f660001b61230d565b61136f7f5d958413f5fc3e162c3d24e905ad9b057308c5c1c07a9a5ca83ebd8077e2a5db60001b61230d565b611378816124fd565b60405160200161138891906137e1565b6040516020818303038152906040526040517f08c379a00000000000000000000000000000000000000000000000000000000081526004016113ca9190613847565b60405180910390fd5b6113ff7ff0691af9ebc20a3ad25d83de956c61951a290b0eb2b3a4b413a70b72c38e156f60001b61230d565b5050565b3660006114327f565fd7259c1f4c2e11288af7914960a73548afe96f39bea08ee48664016a61c060001b61086f565b61145e7fefe798e0e8597868548c0266796faba2972a2d2f82376fc7ef4f8eace6ed783a60001b61086f565b61148a7f61ff46873e32bd096aa7f05e657563d490f4b4a9666603fb354da7183631010360001b61086f565b611492612ae3565b915091509091565b6114c67f87a1367f9d91ceeb404222f087ce89b0fd3e88a3a886a3e9b39d6a30e4a008c760001b61230d565b6114f27fb912a58b5c913c0fd192784f489ba5df192e28875396f8c67dd5a61c23b4a47f60001b61230d565b61151e7fae8ec1de3e294ef223d8195ca7890b52812b2acc052716e4c125dfc4c038ff4060001b61230d565b611531818361113b90919063ffffffff16565b1561161e576115627f6a51ff319a920765c4f442c1ac2b92980c9148d7c02363d8ef4d500b2b653b5160001b61230d565b61158e7f93fa9a1a85333cb511f73bddd90f2e7af7f249780010e30cc59d9832ae24358760001b61230d565b6115ba7f35cab9267a105a9dcd066b2fab51ee55f8778b8f12cefb11b5a5b43d29625eb760001b61230d565b6115c3816124fd565b6040516020016115d391906138b5565b6040516020818303038152906040526040517f08c379a00000000000000000000000000000000000000000000000000000000081526004016116159190613847565b60405180910390fd5b61164a7f7b1836366b5f1b155feb98447dec9b857cc9524e1c3f627df14cf2adccf8bfc060001b61230d565b5050565b600061167c7f12b4db1a13ae954a255ef0fa37765d8ee1e39537e429053253a663eff808644d60001b612f34565b6116a87feebae444011023bb1eb9d991a8900c1fc6c9dc05e526ab9149645480ea211c3e60001b612f34565b6116d47f7a85e8875e57667831d822c4c89a943f00106e2fdc910c0df83014dfd0d1477360001b612f34565b600060017f6a1da6973104ff7dedb9b4f5cab5830b3f4a0284ed754366cfc45568bd2d38df60001c6117069190613512565b60001b90506117377fcd65f8dce9f650605649809ea57b1b403b2167736801d4eb4d6da1b99327986060001b612f34565b8091505090565b61176a7f311cb72dc07750d6828e4b4e89b77f33fb16c70db0f74c9dbf7e01b75fe2538460001b612f34565b6117967f5a948a147df45bdb71c8f98a865604b23d4880b5921ab247626470201792a9d460001b612f34565b6117c27faa1ac481ace62e8856a31e42b6fa6ad7e8b29c10fa062b8775baa1bf5185f76360001b612f34565b6117ee7fa565745ecf1d7ea43fd9e19c5a7b72dbef31f2d274ba98df9594459d1fdda02f60001b612f34565b8160000160009054906101000a900473ffffffffffffffffffffffffffffffffffffffff1673ffffffffffffffffffffffffffffffffffffffff168173ffffffffffffffffffffffffffffffffffffffff1614611880576040517f08c379a00000000000000000000000000000000000000000000000000000000081526004016118779061392e565b60405180910390fd5b6118ac7f3cdf1cbcd193a5f563b48f16d650e4ae6a3f20aa956e2ea1fe221c3ff0241bd160001b612f34565b5050565b6118dc7f87be1768857f5c1ee9902b6459727e4cd38e53be06c3b0db19dffca737c7393960001b61230d565b6119087f2942177f7c4ac18e8318d6860231308075d40bf68aa57836f8adc6e0abbf55d860001b61230d565b6119347ffe644c3543580a174bf6313c6fc59fdcb4cb93296bd04add71408683dc7615d260001b61230d565b60008360000160008481526020019081526020016000205414611a395761197d7f5bdd7f1ecb97588abe0cf5a9176c865d293c64e72750ec86f8cfcb621bdf902760001b61230d565b6119a97fc8cf583ed74eb320f8ee3fbb7fcbdf83cdda6aca983244b607aed293d8e7481460001b61230d565b6119d57fc0fddc94de1b1f5b90b4bd1b39bfcb1646f12a17764ec54ee8fe4755f9d85af160001b61230d565b6119de826124fd565b6040516020016119ee919061399a565b6040516020818303038152906040526040517f08c379a0000000000000000000000000000000000000000000000000000000008152600401611a309190613847565b60405180910390fd5b611a657fe8c3a536e39c2fe842ec3e2f3e5958d1e7789a9e33ebeb2b05dd02446cd40aab60001b61230d565b611a917f0fcdc7270122d842470db6f3c7b6fd096eedc5f6e97b8a8e34e19d871ade0b7760001b61230d565b611abd7fe382d4b3c9e2fe781de6735fcad161e00598bc033f8ace2e5a9f90cbd3db1cb960001b61230d565b60008114611bf957611af17ff6bbfcf22f87a0ca5fa819f9f95ef5a721e6ddf65039d83e85b13328af86c8de60001b61230d565b611b1d7fd1b9d637841b426aa2a844e71597e4e6b87d48c54841f851543c46e6f0ec560760001b61230d565b611b497f8648b5ead850e54d189af5746799232e1fd69ed213275966d5d78c448d12da5b60001b61230d565b8083600001600084815260200190815260200160002081905550611b8f7f996c152d3af9459f958cfe0299f88e4bbc04607957e6a68b89b565a950b2e07860001b61230d565b611bbb7f546b60fb6a71c9029c61a56f750083fef9f25a55d828e57c054804042a07204460001b61230d565b7f099ea97db121bdf4a102e67113e27b6bb74713015b32a5f0e1c3ea0d44fb29538282604051611bec92919061365e565b60405180910390a1611c26565b611c257f3aaf9d92ff3ec4012ca23a736eb260e35150414ac1cacf0b4ebbb3d3d47a056460001b61230d565b5b505050565b6000611c597f3d32e9f89b39bf5a39bcfdd5808a76375b8f08e988320674f9b9e889664676b260001b61230d565b611c857f8ec598498f1792db775412ee4420254dbc1d1caeb4636a913792c124f17b063760001b61230d565b611cb17f4126f14fe50f89b43314f5cf7647d8cb113efe55fb5ce1d11c66dc1c8bdb00b260001b61230d565b82600001600083815260200190815260200160002054905092915050565b611cfb7fe018d3dac50af1ebd318e7cd4349ef3d4817ecce8c9e7d6b5c7cf6a14e5dd1ad60001b61230d565b611d277fa7e9c2f85a529f4d92d658fd64371a956d345688f3f8f28063bda1ecdd45e06e60001b61230d565b611d537f7e02abd059ad3c6325c9c1a0b6e500b1614a407fefa06adcad1b0862c00cd2da60001b61230d565b611d66818361149a90919063ffffffff16565b611d927f82a3489cb8505bdf052bfdc78243a722f462ad63fff22de95e3fc38db4c40a4360001b61230d565b611dbe7f4b6b8b85afd9207fd6a023b7c369dd11817f5946e1a049768ab2fb0af747334f60001b61230d565b4282600001600083815260200190815260200160002081905550611e047f80a7b84b2f96a1c90dfc2e7a26c0f0e81157228945b2f2048ccb765e4339368560001b61230d565b611e307f4fde4b7384ac3515acce553ca1c2b903ac931731943381fd660913c5949514a160001b61230d565b7f099ea97db121bdf4a102e67113e27b6bb74713015b32a5f0e1c3ea0d44fb29538142604051611e6192919061365e565b60405180910390a15050565b6000611e9b7f21f83b85e7dbc596177bc46cc6795c14520638d6db8281a9a46e4d6aa22fb1aa60001b612f37565b611ec77f9fe8a1e1e7c5f38bddac874222fbac3da358d377b550af606038c28c918342a660001b612f37565b611ef37f4d776035fe014c48f9b8d211e07ad5f3e10a7407e640d6fd44f001ad72ec145460001b612f37565b6000339050611f247f1470143c211ace273ad33be67e446aa27b56df8ff21c9e30df1c1ce1aab37faf60001b612f37565b611f507f701a5aed6b7834b1cde40063ca2763d0cc2a2d369e96d6ffd63bd7f36d010be860001b612f37565b3273ffffffffffffffffffffffffffffffffffffffff168173ffffffffffffffffffffffffffffffffffffffff160361201057611faf7fde73d737f19da71f7e0a8be64041464998117e05c9bb9f65df2259a0779caaa960001b612f37565b611fdb7f2e1b1201e86447778e6a37c8701809fecc19c6c17c8cdf9a32e27254363f132c60001b612f37565b6120077f06438a6776a73eebdc69485314350483a51cfddc04e159b6f57dde5e4030039060001b612f37565b80915050612307565b61203c7f6b510e6cfe0d366d8eb68be09db038d2dbfc0ca71029993b650b184340fc438a60001b612f37565b6120687fc81f2aa3e9c76ff8d9709ad059857726fb537b8fa6166dbedc9e3f598edddc4160001b612f37565b6120947fd5cec79665173c3237287beadc96f615eba8ff220376c7f0add1c603fa1dcb0260001b612f37565b600061209e612f3a565b90506120cc7f16b7bdd4d503ca2d391b420534e7b71ff847aea146e0c5e9b1d972d25ac95cf360001b612f37565b6120f87f8284349b0a2249652b224d12d5fd826a549839b4e0aab6630e88a99ebee0413860001b612f37565b7f000000000000000000000000000000000000000000000000000000000000000073ffffffffffffffffffffffffffffffffffffffff168273ffffffffffffffffffffffffffffffffffffffff1614806121ea57507f000000000000000000000000000000000000000000000000000000000000000073ffffffffffffffffffffffffffffffffffffffff1663e60125d682846040518363ffffffff1660e01b81526004016121a8929190613a08565b602060405180830381865afa1580156121c5573d6000803e3d6000fd5b505050506040513d601f19601f820116820180604052508101906121e99190613a5d565b5b1561227d5761221b7ff1748450d5c67d16e99d465b5f46314c0a03cb614c0a36c7a01d0d452a42d63760001b612f37565b6122477ffcb9fb7b37e10dcd260ee2b6500d072708cde8b16110ac602ac219c4f0ac7a8860001b612f37565b6122737f0b8b6cb7f0d04c4b23441400a0a579a14ccf6e6d955d51d0d443ae3b764fbf1e60001b612f37565b8092505050612307565b6122a97fc6338ea7b912cb871ae88b37af8abae50806bb4e29d453caf0758aea491b82ab60001b612f37565b6122d57fb1b2861ba78bbb686a91db34f76b76efe61d8e91016be1013861a8390b68a26860001b612f37565b6123017f131b91089cbc4af49187f8d51fbbc23a25f13946f6ab1ab771005101548d429760001b612f37565b81925050505b90565b50565b50565b61233c7f523c5c55fa27c1465eb0ba13f6927ac81ca2e843dca5743a6ceafc60fd44a7a260001b612fa1565b6123687f04772ea788fd843b127a602e9cfb0c6a91dd658dfc8c6564fb399afa5c8187c060001b612fa1565b6123947fcb69cb3c0f8a75e2c548a59a9a6f16480c220dc9611455e2f2a5ff64c19012f660001b612fa1565b600061239f83612fa4565b90506123cd7f05454e9c8dc486b9dafcaafcc4a6b37e8e4a0bd10c5a957d6788a08d4705e74a60001b612fa1565b6123f97f545be28ad664a45fbd66a4b1cf9af17e7b7fa1c0858756e55615423b09c10cf960001b612fa1565b6124257f7b74d3cbf19e745235b98e2e533402f6fea14c7950d83932d7459f8c0776ae7560001b612fa1565b8181600001541061246b576040517f08c379a000000000000000000000000000000000000000000000000000000000815260040161246290613ad6565b60405180910390fd5b6124977fb77e179c39cd483a2fb9d49c9d6baaf337e679c6fc0b0193351b78700052fb6060001b612fa1565b6124c37f73251853a52f4546290b9dbdb4820ad06a75d361304d051af620ac9db846f98760001b612fa1565b6124ef7f8670f345bbc08bb652aae01676abdbb142983e1527aecdd350c544d4ac9aa25360001b612fa1565b818160000181905550505050565b606061252b7ff3e26c3bd85fdaa3d8f1259414605a7dd92cd33f6e0a5ea5aee2931a96d320aa60001b612fae565b6125577f14846564a156e661f6474a94d4255a72cce0853ae6558cbf3e923deec39719ae60001b612fae565b6125837f6c4f2a0e0bd15baa64804e395a91bd69578a6e2a90f55320b7b965282ed515d860001b612fae565b6000801b82036125fc576125b97f66382546bedd8a8744565683ec0549940fef9cc757873afd4aa5cbf1a1c3ddeb60001b612fae565b6125e57f41f0fd3b61868a6d8df29e5b031aeec3a4ac9909f5a87803ff0e75a1215b2e1660001b612fae565b604051806020016040528060008152509050612ade565b6126287fd7faff261f7667b6fdb79185d8e210684b89ebcf3c16989907a72e26c9a40bd360001b612fae565b6126547fc963fd694ee00300e885d432326b79e852ff0d5d3d5e5b40d91d2cb7322e036860001b612fae565b6126807f03d940c9787d5829f10521169b1c7207e10ebc0c689f231920f48ae83e75d20760001b612fae565b6000826040516020016126939190613b17565b60405160208183030381529060405290506126d07f3be4e21e8f54c6c99bff282d009276b8870f6abdb6debfddfa3e2b6b2db00e7760001b612fae565b6126fc7f17306240d3cb74d3489a10c16165676d1e8bd6ae2ff4bb3eeac64cd88d80bb6a60001b612fae565b6000601f905061272e7f5c1c0f404ad5f798e57f5a143443445b34b8ef27d98839f5300c77b624967d3260001b612fae565b61275a7ffe20543a09d660584d1a6b1ece822ac581d7a02e435ff8d6e1467dc3c1fc750560001b612fae565b5b60011561289e5761278e7fecafc833e80060b602eb7f1f24a245850dfa0e85b27437f061a032e48428c77a60001b612fae565b6127ba7f522a216e93d0e4f6e6309facb75020a88b47b2d64392071866ad5395e68a4f3f60001b612fae565b600060f81b8282815181106127d2576127d161362f565b5b602001015160f81c60f81b7effffffffffffffffffffffffffffffffffffffffffffffffffffffffffffff191614612835576128307fb60cfc2b2fdca331d300ee04d83eeaffc639b7f20ec67b5f0a2c76b38ceae2f660001b612fae565b61289e565b6128617fb64ec942692486251857b64186a51a5dcbb575bb273ab2a68476fefa6ba7e85f60001b612fae565b61288d7febb09476ab2c43de302339c8bda76901de4deb1e22a5a915a6428269658244ea60001b612fae565b8061289790613b32565b905061275b565b6128ca7f6ef5bcf08ee5e813920ce44c7edcb5ccd95a074dd3355664e76ea5f90677c82160001b612fae565b6128f67ff7f7c96094cd88ffccca7135e60d08b87b722cb510d705e1eebd625cc84a226060001b612fae565b60006001826129059190613b5b565b67ffffffffffffffff81111561291e5761291d613091565b5b6040519080825280601f01601f1916602001820160405280156129505781602001600182028036833780820191505090505b50905061297f7f70479c5da0c7bb0ac8f3ac4c0d6fabd84387ce5353aac9f89c3de6a3ab64de4860001b612fae565b6129ab7fc19b5a8d1dea10c7016ae2e1347f69ddd08a429e857cf0d52301d9640eca840160001b612fae565b60005b828111612a7e576129e17f14f2a6a46e72ed58802d03d80c3041c7ea0a3d7c5d23f2471fc6af1c024bfe2e60001b612fae565b612a0d7f538b385a5c613af0ebaf45feea1f5d29fec7f025d7383803dc0ff5cf1b259e9b60001b612fae565b838181518110612a2057612a1f61362f565b5b602001015160f81c60f81b828281518110612a3e57612a3d61362f565b5b60200101907effffffffffffffffffffffffffffffffffffffffffffffffffffffffffffff1916908160001a90535080612a7790613687565b90506129ae565b50612aab7ff8dc96e11a0aa5b43175ddf7e5527a22d125faa318ae8ab4e16ce609a2fb746160001b612fae565b612ad77f9e6bab069cd7b2424e0a07809819bfaa214e4a57f459aa03649e424b72e84af060001b612fae565b8093505050505b919050565b366000612b127ff74f168f3cfe88b8c75939ced6593b63b3a80d84384ea84798e06eb70c27e8b560001b612f37565b612b3e7f0c30881a465ce740e34b44da3f5682b69b261b3b3d916bf3cb638422722c466360001b612f37565b612b6a7f7d034622f0cfa82b1eafef58ff96909800ff5cbda4aec1c658399402313d1e4760001b612f37565b6000339050612b9b7f3e7b906c7c24b8d911bba8092ce84f23b5c1596b35038fef4ace71fcce1f3a0e60001b612f37565b612bc77f76d316808c9e8931ac3d89e37ff8d9a597f8e50813fa0a88766b36313e96041060001b612f37565b3273ffffffffffffffffffffffffffffffffffffffff168173ffffffffffffffffffffffffffffffffffffffff1603612c8b57612c267fa811c091d51641b1118f1402cc0638dc69041cba2f323377090e0a55500a152460001b612f37565b612c527ff673674fd259625637c155f7345382b871e4581df73bc53013494d30dd1dc16460001b612f37565b612c7e7f108112c7eebc35534afdbeeca8c2ad7449209fe78eeb1f9fdd0c5f6fb3111cce60001b612f37565b6000369250925050612f30565b612cb77f8e23e3f35cdceddd8b15b45bf787b8d6ae38e04c5870f4020c01d683a2f10fc560001b612f37565b612ce37fb4f48de4e10f2751022dce70d5876a74afb41b756eb77cdf4fe88835769afb1a60001b612f37565b612d0f7f2afe9b0d9d36347d263d9c298082ea9eea1c1879c9904d44b9316a451e41b92f60001b612f37565b7f000000000000000000000000000000000000000000000000000000000000000073ffffffffffffffffffffffffffffffffffffffff168173ffffffffffffffffffffffffffffffffffffffff161480612e0857507f000000000000000000000000000000000000000000000000000000000000000073ffffffffffffffffffffffffffffffffffffffff1663e60125d6612da8612f3a565b836040518363ffffffff1660e01b8152600401612dc6929190613a08565b602060405180830381865afa158015612de3573d6000803e3d6000fd5b505050506040513d601f19601f82011682018060405250810190612e079190613a5d565b5b15612ea357612e397f2191333a031dc1f79f931a9c32f8cc636186c8d1941bf6ad2d0e09669ccdb2fd60001b612f37565b612e657f625d923af8cba91f74f7ad122740e01bcd36ee0be52b9596ca85f7881a963db360001b612f37565b612e917f09e6b704caf4fc80a51357d4ff43f8bab75f1133b8a694db1fb7ac8851fe64b160001b612f37565b612e99612fb1565b9250925050612f30565b612ecf7fcfd0711298438e2e01b8a5c4d5745b4b2a1fa1742e9ef04643fd654ff78cfca960001b612f37565b612efb7faec17026272a3ca53764ba29e047c1b72c1edbf88732d32ffae6b5c0d7fcf39960001b612f37565b612f277f7518e0f5afdd21984f9ce13318f9370b2d82da30fc4ffdbb78362126da32d52960001b612f37565b60003692509250505b9091565b50565b50565b6000612f687fd2d14d566965719ee17c5b60ff32623f910e7a0e574f2eeae19a64856bd35c4c60001b613064565b612f947fa390d1eca31ebd819e35c63e13daa420bd40dcdd984217eef68768880371b01d60001b613064565b601436033560601c905090565b50565b6000819050919050565b50565b366000612fe07f7a9fde0e4d93131667b711f92dc641fa832990e5bb6a3b4626ffa6b5d4f3fdae60001b613064565b61300c7fc610f11635537ce6a03686b10e383cf783da248254319abfbb04eeb973e3acd760001b613064565b6130387f17531d10ccf76e2a802938b28b374efcd761ac66995a64071083ebf2a16e732060001b613064565b6000366000906014600036905061304f9190613512565b9261305c93929190613bbb565b915091509091565b50565b6000604051905090565b600080fd5b600080fd5b600080fd5b6000601f19601f8301169050919050565b7f4e487b7100000000000000000000000000000000000000000000000000000000600052604160045260246000fd5b6130c982613080565b810181811067ffffffffffffffff821117156130e8576130e7613091565b5b80604052505050565b60006130fb613067565b905061310782826130c0565b919050565b600067ffffffffffffffff82111561312757613126613091565b5b602082029050602081019050919050565b600080fd5b6000819050919050565b6131508161313d565b811461315b57600080fd5b50565b60008135905061316d81613147565b92915050565b60006131866131818461310c565b6130f1565b905080838252602082019050602084028301858111156131a9576131a8613138565b5b835b818110156131d257806131be888261315e565b8452602084019350506020810190506131ab565b5050509392505050565b600082601f8301126131f1576131f061307b565b5b8135613201848260208601613173565b91505092915050565b600067ffffffffffffffff82111561322557613224613091565b5b602082029050602081019050919050565b6000819050919050565b61324981613236565b811461325457600080fd5b50565b60008135905061326681613240565b92915050565b600061327f61327a8461320a565b6130f1565b905080838252602082019050602084028301858111156132a2576132a1613138565b5b835b818110156132cb57806132b78882613257565b8452602084019350506020810190506132a4565b5050509392505050565b600082601f8301126132ea576132e961307b565b5b81356132fa84826020860161326c565b91505092915050565b6000806040838503121561331a57613319613071565b5b600083013567ffffffffffffffff81111561333857613337613076565b5b613344858286016131dc565b925050602083013567ffffffffffffffff81111561336557613364613076565b5b613371858286016132d5565b9150509250929050565b60006020828403121561339157613390613071565b5b600061339f8482850161315e565b91505092915050565b60008115159050919050565b6133bd816133a8565b82525050565b60006020820190506133d860008301846133b4565b92915050565b600082825260208201905092915050565b82818337600083830152505050565b600061340a83856133de565b93506134178385846133ef565b61342083613080565b840190509392505050565b600060208201905081810360008301526134468184866133fe565b90509392505050565b6000806040838503121561346657613465613071565b5b60006134748582860161315e565b925050602061348585828601613257565b9150509250929050565b61349881613236565b82525050565b60006020820190506134b3600083018461348f565b92915050565b6134c28161313d565b82525050565b60006020820190506134dd60008301846134b9565b92915050565b7f4e487b7100000000000000000000000000000000000000000000000000000000600052601160045260246000fd5b600061351d82613236565b915061352883613236565b92508282101561353b5761353a6134e3565b5b828203905092915050565b600082825260208201905092915050565b7f50726f787941646d696e3a206e6f74207468652061646d696e00000000000000600082015250565b600061358d601983613546565b915061359882613557565b602082019050919050565b600060208201905081810360008301526135bc81613580565b9050919050565b7f436865636b706f696e74733a2077726f6e67206172726179206c656e67746800600082015250565b60006135f9601f83613546565b9150613604826135c3565b602082019050919050565b60006020820190508181036000830152613628816135ec565b9050919050565b7f4e487b7100000000000000000000000000000000000000000000000000000000600052603260045260246000fd5b600060408201905061367360008301856134b9565b613680602083018461348f565b9392505050565b600061369282613236565b91507fffffffffffffffffffffffffffffffffffffffffffffffffffffffffffffffff82036136c4576136c36134e3565b5b600182019050919050565b600081905092915050565b7f436865636b706f696e74733a20636865636b706f696e74202700000000000000600082015250565b60006137106019836136cf565b915061371b826136da565b601982019050919050565b600081519050919050565b60005b8381101561374f578082015181840152602081019050613734565b8381111561375e576000848401525b50505050565b600061376f82613726565b61377981856136cf565b9350613789818560208601613731565b80840191505092915050565b7f27206e6f74207265616368656420796574000000000000000000000000000000600082015250565b60006137cb6011836136cf565b91506137d682613795565b601182019050919050565b60006137ec82613703565b91506137f88284613764565b9150613803826137be565b915081905092915050565b600061381982613726565b6138238185613546565b9350613833818560208601613731565b61383c81613080565b840191505092915050565b60006020820190508181036000830152613861818461380e565b905092915050565b7f2720616c72656164792072656163686564000000000000000000000000000000600082015250565b600061389f6011836136cf565b91506138aa82613869565b601182019050919050565b60006138c082613703565b91506138cc8284613764565b91506138d782613892565b915081905092915050565b7f4f776e6572736869703a206e6f7420746865206f776e65720000000000000000600082015250565b6000613918601883613546565b9150613923826138e2565b602082019050919050565b600060208201905081810360008301526139478161390b565b9050919050565b7f2720616c72656164792073657400000000000000000000000000000000000000600082015250565b6000613984600d836136cf565b915061398f8261394e565b600d82019050919050565b60006139a582613703565b91506139b18284613764565b91506139bc82613977565b915081905092915050565b600073ffffffffffffffffffffffffffffffffffffffff82169050919050565b60006139f2826139c7565b9050919050565b613a02816139e7565b82525050565b6000604082019050613a1d60008301856139f9565b613a2a60208301846139f9565b9392505050565b613a3a816133a8565b8114613a4557600080fd5b50565b600081519050613a5781613a31565b92915050565b600060208284031215613a7357613a72613071565b5b6000613a8184828501613a48565b91505092915050565b7f53746f726167653a2076657273696f6e20726561636865640000000000000000600082015250565b6000613ac0601883613546565b9150613acb82613a8a565b602082019050919050565b60006020820190508181036000830152613aef81613ab3565b9050919050565b6000819050919050565b613b11613b0c8261313d565b613af6565b82525050565b6000613b238284613b00565b60208201915081905092915050565b6000613b3d82613236565b915060008203613b5057613b4f6134e3565b5b600182039050919050565b6000613b6682613236565b9150613b7183613236565b9250827fffffffffffffffffffffffffffffffffffffffffffffffffffffffffffffffff03821115613ba657613ba56134e3565b5b828201905092915050565b600080fd5b600080fd5b60008085851115613bcf57613bce613bb1565b5b83861115613be057613bdf613bb6565b5b600185028301915084860390509450949250505056fea2646970667358221220c19ec72e47f97b83f0780df9de5201359f251b17f99d7c2a943acd8d79a0518c64736f6c634300080d0033",
  "linkReferences": {},
  "deployedLinkReferences": {}
}