{
  "_format": "hh-sol-artifact-1",
  "contractName": "AccessControlFacetMock",
  "sourceName": "contracts/mocks/access/facets/AccessControlFacetMock.sol",
  "abi": [
    {
      "inputs": [
        {
          "internalType": "contract IForwarderRegistry",
          "name": "forwarderRegistry",
          "type": "address"
        }
      ],
      "stateMutability": "nonpayable",
      "type": "constructor"
    },
    {
      "anonymous": false,
      "inputs": [
        {
          "indexed": false,
          "internalType": "bytes32",
          "name": "role",
          "type": "bytes32"
        },
        {
          "indexed": false,
          "internalType": "address",
          "name": "account",
          "type": "address"
        },
        {
          "indexed": false,
          "internalType": "address",
          "name": "operator",
          "type": "address"
        }
      ],
      "name": "RoleGranted",
      "type": "event"
    },
    {
      "anonymous": false,
      "inputs": [
        {
          "indexed": false,
          "internalType": "bytes32",
          "name": "role",
          "type": "bytes32"
        },
        {
          "indexed": false,
          "internalType": "address",
          "name": "account",
          "type": "address"
        },
        {
          "indexed": false,
          "internalType": "address",
          "name": "operator",
          "type": "address"
        }
      ],
      "name": "RoleRevoked",
      "type": "event"
    },
    {
      "inputs": [],
      "name": "TEST_ROLE",
      "outputs": [
        {
          "internalType": "bytes32",
          "name": "",
          "type": "bytes32"
        }
      ],
      "stateMutability": "view",
      "type": "function"
    },
    {
      "inputs": [],
      "name": "__msgData",
      "outputs": [
        {
          "internalType": "bytes",
          "name": "",
          "type": "bytes"
        }
      ],
      "stateMutability": "view",
      "type": "function"
    },
    {
      "inputs": [
        {
          "internalType": "bytes32",
          "name": "role",
          "type": "bytes32"
        },
        {
          "internalType": "address",
          "name": "account",
          "type": "address"
        }
      ],
      "name": "enforceHasRole",
      "outputs": [],
      "stateMutability": "view",
      "type": "function"
    },
    {
      "inputs": [
        {
          "internalType": "bytes32",
          "name": "role",
          "type": "bytes32"
        },
        {
          "internalType": "address",
          "name": "account",
          "type": "address"
        }
      ],
      "name": "grantRole",
      "outputs": [],
      "stateMutability": "nonpayable",
      "type": "function"
    },
    {
      "inputs": [
        {
          "internalType": "bytes32",
          "name": "role",
          "type": "bytes32"
        },
        {
          "internalType": "address",
          "name": "account",
          "type": "address"
        }
      ],
      "name": "hasRole",
      "outputs": [
        {
          "internalType": "bool",
          "name": "",
          "type": "bool"
        }
      ],
      "stateMutability": "view",
      "type": "function"
    },
    {
      "inputs": [
        {
          "internalType": "bytes32",
          "name": "role",
          "type": "bytes32"
        }
      ],
      "name": "renounceRole",
      "outputs": [],
      "stateMutability": "nonpayable",
      "type": "function"
    },
    {
      "inputs": [
        {
          "internalType": "bytes32",
          "name": "role",
          "type": "bytes32"
        },
        {
          "internalType": "address",
          "name": "account",
          "type": "address"
        }
      ],
      "name": "revokeRole",
      "outputs": [],
      "stateMutability": "nonpayable",
      "type": "function"
    }
  ],
  "bytecode": "0x60a060405234801561001057600080fd5b50604051610df8380380610df883398101604081905261002f91610040565b6001600160a01b0316608052610070565b60006020828403121561005257600080fd5b81516001600160a01b038116811461006957600080fd5b9392505050565b608051610d586100a060003960008181610676015281816106fe015281816107b101526107ef0152610d586000f3fe608060405234801561001057600080fd5b506004361061007d5760003560e01c80638bb9c5bf1161005b5780638bb9c5bf146100eb57806391d14854146100fe578063d547741f14610121578063db9b206a1461013457600080fd5b80632f2ff15d1461008257806331e66e1e146100975780633ad554d0146100b6575b600080fd5b610095610090366004610aa7565b610147565b005b61009f610180565b6040516100ad929190610af0565b60405180910390f35b6100dd7f746573746572000000000000000000000000000000000000000000000000000081565b6040519081526020016100ad565b6100956100f9366004610b3d565b610193565b61011161010c366004610aa7565b6101b1565b60405190151581526020016100ad565b61009561012f366004610aa7565b6101fe565b610095610142366004610aa7565b61022c565b6000610151610244565b90506101658161015f610253565b90610281565b61017b838383610173610309565b929190610337565b505050565b36600061018b61040e565b915091509091565b6101ae61019e610244565b826101a7610309565b9190610419565b50565b60006101f583836101c0610309565b60009283526020908152604080842073ffffffffffffffffffffffffffffffffffffffff909316845291905290205460ff1690565b90505b92915050565b6000610208610244565b90506102168161015f610253565b61017b838383610224610309565b9291906104bd565b6102408282610239610309565b9190610587565b5050565b600061024e610633565b905090565b6000806101f860017fc9ed16f33ab3a66c84bfd83099ccb2a8845871e2e1c1928f63797152f0fd54cd610b56565b815473ffffffffffffffffffffffffffffffffffffffff828116911614610240576040517f08c379a000000000000000000000000000000000000000000000000000000000815260206004820152601860248201527f4f776e6572736869703a206e6f7420746865206f776e6572000000000000000060448201526064015b60405180910390fd5b6000806101f860017fc8827d3282af6f37b64c3e9e6f3ac9df286ab0bb0fccd6f8661bf19adb368b23610b56565b60008381526020858152604080832073ffffffffffffffffffffffffffffffffffffffff8616845290915290205460ff166104085760008381526020858152604080832073ffffffffffffffffffffffffffffffffffffffff8681168086529184529382902080547fffffffffffffffffffffffffffffffffffffffffffffffffffffffffffffff00166001179055815187815292830152918316918101919091527f2f8788117e7eff1d82e926ec794901d17c78024a50270940304540a733656f0d906060015b60405180910390a15b50505050565b36600061018b61077a565b610424838284610587565b60008181526020848152604080832073ffffffffffffffffffffffffffffffffffffffff86168085529083529281902080547fffffffffffffffffffffffffffffffffffffffffffffffffffffffffffffff0016905580518481529182018390528101919091527ff6391f5c32d9c69d2a47ea670b442974b53935d1edc7fd64eb21e047a839171b9060600160405180910390a1505050565b60008381526020858152604080832073ffffffffffffffffffffffffffffffffffffffff8616845290915290205460ff16156104085760008381526020858152604080832073ffffffffffffffffffffffffffffffffffffffff8681168086529184529382902080547fffffffffffffffffffffffffffffffffffffffffffffffffffffffffffffff00169055815187815292830152918316918101919091527ff6391f5c32d9c69d2a47ea670b442974b53935d1edc7fd64eb21e047a839171b906060016103ff565b60008281526020848152604080832073ffffffffffffffffffffffffffffffffffffffff8516845290915290205460ff1661017b576105c5826108e4565b6040516020016105d59190610bb4565b604080517fffffffffffffffffffffffffffffffffffffffffffffffffffffffffffffffe0818403018152908290527f08c379a000000000000000000000000000000000000000000000000000000000825261030091600401610c20565b6000333214806106435750601836105b1561064d57503390565b7fffffffffffffffffffffffffffffffffffffffffffffffffffffffffffffffec36013560601c7f000000000000000000000000000000000000000000000000000000000000000073ffffffffffffffffffffffffffffffffffffffff1633148061076957506040517f8929a8ca00000000000000000000000000000000000000000000000000000000815273ffffffffffffffffffffffffffffffffffffffff82811660048301523360248301527f00000000000000000000000000000000000000000000000000000000000000001690638929a8ca90604401602060405180830381865afa158015610745573d6000803e3d6000fd5b505050506040513d601f19601f820116820180604052508101906107699190610c71565b1561077357919050565b3391505090565b3660003332148061078b5750601836105b156107995750600091369150565b3373ffffffffffffffffffffffffffffffffffffffff7f00000000000000000000000000000000000000000000000000000000000000001614806108ce575073ffffffffffffffffffffffffffffffffffffffff7f000000000000000000000000000000000000000000000000000000000000000016638929a8ca367fffffffffffffffffffffffffffffffffffffffffffffffffffffffffffffffec013560601c6040517fffffffff0000000000000000000000000000000000000000000000000000000060e084901b16815273ffffffffffffffffffffffffffffffffffffffff9091166004820152336024820152604401602060405180830381865afa1580156108aa573d6000803e3d6000fd5b505050506040513d601f19601f820116820180604052508101906108ce9190610c71565b156108db5761018b610a76565b50600091369150565b6060600082900361090357505060408051602081019091526000815290565b60008260405160200161091891815260200190565b604080517fffffffffffffffffffffffffffffffffffffffffffffffffffffffffffffffe08184030181529190529050601f5b81818151811061095d5761095d610c9a565b01602001517fff00000000000000000000000000000000000000000000000000000000000000166000036109b2577fffffffffffffffffffffffffffffffffffffffffffffffffffffffffffffffff0161094b565b60008160010167ffffffffffffffff8111156109d0576109d0610cc9565b6040519080825280601f01601f1916602001820160405280156109fa576020820181803683370190505b50905060005b828111610a6d57838181518110610a1957610a19610c9a565b602001015160f81c60f81b828281518110610a3657610a36610c9a565b60200101907effffffffffffffffffffffffffffffffffffffffffffffffffffffffffffff1916908160001a905350600101610a00565b50949350505050565b36600061018b7fffffffffffffffffffffffffffffffffffffffffffffffffffffffffffffffec8301828481610cf8565b60008060408385031215610aba57600080fd5b82359150602083013573ffffffffffffffffffffffffffffffffffffffff81168114610ae557600080fd5b809150509250929050565b60208152816020820152818360408301376000818301604090810191909152601f9092017fffffffffffffffffffffffffffffffffffffffffffffffffffffffffffffffe0160101919050565b600060208284031215610b4f57600080fd5b5035919050565b818103818111156101f8577f4e487b7100000000000000000000000000000000000000000000000000000000600052601160045260246000fd5b60005b83811015610bab578181015183820152602001610b93565b50506000910152565b7f416363657373436f6e74726f6c3a206d697373696e6720270000000000000000815260008251610bec816018850160208701610b90565b7f2720726f6c6500000000000000000000000000000000000000000000000000006018939091019283015250601e01919050565b6020815260008251806020840152610c3f816040850160208701610b90565b601f017fffffffffffffffffffffffffffffffffffffffffffffffffffffffffffffffe0169190910160400192915050565b600060208284031215610c8357600080fd5b81518015158114610c9357600080fd5b9392505050565b7f4e487b7100000000000000000000000000000000000000000000000000000000600052603260045260246000fd5b7f4e487b7100000000000000000000000000000000000000000000000000000000600052604160045260246000fd5b60008085851115610d0857600080fd5b83861115610d1557600080fd5b505082019391909203915056fea264697066735822122049ec604fc153e6f9b3ecbf0f11b0d86ae094abd01d45ed032e557b5733dacef564736f6c63430008130033",
  "linkReferences": {},
  "deployedLinkReferences": {}
}