{
  "_format": "hh-sol-artifact-1",
  "contractName": "ERC20Facet",
  "sourceName": "contracts/token/ERC20/facets/ERC20Facet.sol",
  "abi": [
    {
      "inputs": [
        {
          "internalType": "contract IForwarderRegistry",
          "name": "forwarderRegistry",
          "type": "address"
        }
      ],
      "stateMutability": "nonpayable",
      "type": "constructor"
    },
    {
      "anonymous": false,
      "inputs": [
        {
          "indexed": true,
          "internalType": "address",
          "name": "owner",
          "type": "address"
        },
        {
          "indexed": true,
          "internalType": "address",
          "name": "spender",
          "type": "address"
        },
        {
          "indexed": false,
          "internalType": "uint256",
          "name": "value",
          "type": "uint256"
        }
      ],
      "name": "Approval",
      "type": "event"
    },
    {
      "anonymous": false,
      "inputs": [
        {
          "indexed": true,
          "internalType": "address",
          "name": "from",
          "type": "address"
        },
        {
          "indexed": true,
          "internalType": "address",
          "name": "to",
          "type": "address"
        },
        {
          "indexed": false,
          "internalType": "uint256",
          "name": "value",
          "type": "uint256"
        }
      ],
      "name": "Transfer",
      "type": "event"
    },
    {
      "inputs": [
        {
          "internalType": "address",
          "name": "owner",
          "type": "address"
        },
        {
          "internalType": "address",
          "name": "spender",
          "type": "address"
        }
      ],
      "name": "allowance",
      "outputs": [
        {
          "internalType": "uint256",
          "name": "value",
          "type": "uint256"
        }
      ],
      "stateMutability": "view",
      "type": "function"
    },
    {
      "inputs": [
        {
          "internalType": "address",
          "name": "spender",
          "type": "address"
        },
        {
          "internalType": "uint256",
          "name": "value",
          "type": "uint256"
        }
      ],
      "name": "approve",
      "outputs": [
        {
          "internalType": "bool",
          "name": "result",
          "type": "bool"
        }
      ],
      "stateMutability": "nonpayable",
      "type": "function"
    },
    {
      "inputs": [
        {
          "internalType": "address",
          "name": "owner",
          "type": "address"
        }
      ],
      "name": "balanceOf",
      "outputs": [
        {
          "internalType": "uint256",
          "name": "balance",
          "type": "uint256"
        }
      ],
      "stateMutability": "view",
      "type": "function"
    },
    {
      "inputs": [
        {
          "internalType": "address",
          "name": "spender",
          "type": "address"
        },
        {
          "internalType": "uint256",
          "name": "subtractedValue",
          "type": "uint256"
        }
      ],
      "name": "decreaseAllowance",
      "outputs": [
        {
          "internalType": "bool",
          "name": "result",
          "type": "bool"
        }
      ],
      "stateMutability": "nonpayable",
      "type": "function"
    },
    {
      "inputs": [
        {
          "internalType": "address",
          "name": "spender",
          "type": "address"
        },
        {
          "internalType": "uint256",
          "name": "addedValue",
          "type": "uint256"
        }
      ],
      "name": "increaseAllowance",
      "outputs": [
        {
          "internalType": "bool",
          "name": "result",
          "type": "bool"
        }
      ],
      "stateMutability": "nonpayable",
      "type": "function"
    },
    {
      "inputs": [
        {
          "internalType": "address[]",
          "name": "holders",
          "type": "address[]"
        },
        {
          "internalType": "uint256[]",
          "name": "allocations",
          "type": "uint256[]"
        }
      ],
      "name": "initERC20Storage",
      "outputs": [],
      "stateMutability": "nonpayable",
      "type": "function"
    },
    {
      "inputs": [],
      "name": "totalSupply",
      "outputs": [
        {
          "internalType": "uint256",
          "name": "supply",
          "type": "uint256"
        }
      ],
      "stateMutability": "view",
      "type": "function"
    },
    {
      "inputs": [
        {
          "internalType": "address",
          "name": "to",
          "type": "address"
        },
        {
          "internalType": "uint256",
          "name": "value",
          "type": "uint256"
        }
      ],
      "name": "transfer",
      "outputs": [
        {
          "internalType": "bool",
          "name": "result",
          "type": "bool"
        }
      ],
      "stateMutability": "nonpayable",
      "type": "function"
    },
    {
      "inputs": [
        {
          "internalType": "address",
          "name": "from",
          "type": "address"
        },
        {
          "internalType": "address",
          "name": "to",
          "type": "address"
        },
        {
          "internalType": "uint256",
          "name": "value",
          "type": "uint256"
        }
      ],
      "name": "transferFrom",
      "outputs": [
        {
          "internalType": "bool",
          "name": "result",
          "type": "bool"
        }
      ],
      "stateMutability": "nonpayable",
      "type": "function"
    }
  ],
  "bytecode": "0x60a060405234801561001057600080fd5b506040516113ed3803806113ed83398101604081905261002f91610040565b6001600160a01b0316608052610070565b60006020828403121561005257600080fd5b81516001600160a01b038116811461006957600080fd5b9392505050565b60805161135b61009260003960008181610b120152610b9a015261135b6000f3fe608060405234801561001057600080fd5b50600436106100a35760003560e01c80633950935111610076578063a457c2d71161005b578063a457c2d714610134578063a9059cbb14610147578063dd62ed3e1461015a57600080fd5b8063395093511461010e57806370a082311461012157600080fd5b8063095ea7b3146100a857806318160ddd146100d057806323b872dd146100e657806330a12c83146100f9575b600080fd5b6100bb6100b636600461112e565b61016d565b60405190151581526020015b60405180910390f35b6100d8610196565b6040519081526020016100c7565b6100bb6100f4366004611158565b6101af565b61010c6101073660046111e0565b6101da565b005b6100bb61011c36600461112e565b610271565b6100d861012f36600461124c565b610290565b6100bb61014236600461112e565b6102c8565b6100bb61015536600461112e565b6102e7565b6100d8610168366004611267565b610306565b600061018c61017a610358565b8484610184610362565b929190610390565b5060015b92915050565b60006101aa6101a3610362565b6002015490565b905090565b60006101d06101bc610358565b8585856101c7610362565b93929190610484565b5060019392505050565b6101f36101e5610358565b6101ed6104d6565b90610504565b61026b848480806020026020016040519081016040528093929190818152602001838360200280828437600092019190915250506040805160208088028281018201909352878252909350879250869182918501908490808284376000920191909152506102649250610362915050565b919061058b565b50505050565b600061018c61027e610358565b8484610288610362565b9291906105d0565b60006101908261029e610362565b9073ffffffffffffffffffffffffffffffffffffffff166000908152602091909152604090205490565b600061018c6102d5610358565b84846102df610362565b92919061079c565b600061018c6102f4610358565b84846102fe610362565b9291906108ee565b60006103518383610315610362565b919073ffffffffffffffffffffffffffffffffffffffff9182166000908152600193909301602090815260408085209290931684525290205490565b9392505050565b60006101aa610acf565b60008061019060017f1da92899d3da68bf9787824388a37ea2bfa79780bcef91b9716c390eec8ecbef61129a565b73ffffffffffffffffffffffffffffffffffffffff8216610412576040517f08c379a000000000000000000000000000000000000000000000000000000000815260206004820152601d60248201527f45524332303a20617070726f76616c20746f206164647265737328302900000060448201526064015b60405180910390fd5b73ffffffffffffffffffffffffffffffffffffffff838116600081815260018701602090815260408083209487168084529482529182902085905590518481527f8c5be1e5ebec7d5bd14f71427d1e84f3dd0314c0f7b2291e5b200ac8c7c3b92591015b60405180910390a350505050565b8373ffffffffffffffffffffffffffffffffffffffff168373ffffffffffffffffffffffffffffffffffffffff16146104c3576104c38584868461079c565b6104cf858484846108ee565b5050505050565b60008061019060017fb53127684a568b3173ae13b9f8a6016e243e63b6e8ee1178d6a717850b5d610461129a565b815473ffffffffffffffffffffffffffffffffffffffff828116911614610587576040517f08c379a000000000000000000000000000000000000000000000000000000000815260206004820152601960248201527f50726f787941646d696e3a206e6f74207468652061646d696e000000000000006044820152606401610409565b5050565b6105c06105b960017f53d309e32e4ca7be7e99298a42b755b0cd82d1ad9411e9a18f57394d1227499161129a565b6001610c16565b6105cb838383610c86565b505050565b73ffffffffffffffffffffffffffffffffffffffff821661064d576040517f08c379a000000000000000000000000000000000000000000000000000000000815260206004820152601d60248201527f45524332303a20617070726f76616c20746f20616464726573732830290000006044820152606401610409565b73ffffffffffffffffffffffffffffffffffffffff8084166000908152600186016020908152604080832093861683529290522054811561072e578082018181116106f4576040517f08c379a000000000000000000000000000000000000000000000000000000000815260206004820152601960248201527f45524332303a20616c6c6f77616e6365206f766572666c6f77000000000000006044820152606401610409565b73ffffffffffffffffffffffffffffffffffffffff8086166000908152600188016020908152604080832093881683529290522081905590505b8273ffffffffffffffffffffffffffffffffffffffff168473ffffffffffffffffffffffffffffffffffffffff167f8c5be1e5ebec7d5bd14f71427d1e84f3dd0314c0f7b2291e5b200ac8c7c3b9258360405161078d91815260200190565b60405180910390a35050505050565b73ffffffffffffffffffffffffffffffffffffffff8216610819576040517f08c379a000000000000000000000000000000000000000000000000000000000815260206004820152601d60248201527f45524332303a20617070726f76616c20746f20616464726573732830290000006044820152606401610409565b73ffffffffffffffffffffffffffffffffffffffff80841660009081526001860160209081526040808320938616835292905220547fffffffffffffffffffffffffffffffffffffffffffffffffffffffffffffffff811480159061087d57508115155b1561072e578181038181106106f4576040517f08c379a000000000000000000000000000000000000000000000000000000000815260206004820152601d60248201527f45524332303a20696e73756666696369656e7420616c6c6f77616e63650000006044820152606401610409565b73ffffffffffffffffffffffffffffffffffffffff821661096b576040517f08c379a000000000000000000000000000000000000000000000000000000000815260206004820152601d60248201527f45524332303a207472616e7366657220746f20616464726573732830290000006044820152606401610409565b8015610a705773ffffffffffffffffffffffffffffffffffffffff8316600090815260208590526040902054818103818110610a03576040517f08c379a000000000000000000000000000000000000000000000000000000000815260206004820152601b60248201527f45524332303a20696e73756666696369656e742062616c616e636500000000006044820152606401610409565b8373ffffffffffffffffffffffffffffffffffffffff168573ffffffffffffffffffffffffffffffffffffffff1614610a6d5773ffffffffffffffffffffffffffffffffffffffff8086166000908152602088905260408082208490559186168152208054840190555b50505b8173ffffffffffffffffffffffffffffffffffffffff168373ffffffffffffffffffffffffffffffffffffffff167fddf252ad1be2c89b69c2b068fc378daa952ba7f163c4a11628f55a4df523b3ef8360405161047691815260200190565b600033321480610adf5750601836105b15610ae957503390565b7fffffffffffffffffffffffffffffffffffffffffffffffffffffffffffffffec36013560601c7f000000000000000000000000000000000000000000000000000000000000000073ffffffffffffffffffffffffffffffffffffffff16331480610c0557506040517f8929a8ca00000000000000000000000000000000000000000000000000000000815273ffffffffffffffffffffffffffffffffffffffff82811660048301523360248301527f00000000000000000000000000000000000000000000000000000000000000001690638929a8ca90604401602060405180830381865afa158015610be1573d6000803e3d6000fd5b505050506040513d601f19601f82011682018060405250810190610c0591906112d4565b15610c0f57919050565b3391505090565b815482908211610c82576040517f08c379a000000000000000000000000000000000000000000000000000000000815260206004820152601660248201527f53746f726167653a2070686173652072656163686564000000000000000000006044820152606401610409565b5550565b610c91838383610cf5565b6000610c9b610fcb565b9050610cc9817f36372b07000000000000000000000000000000000000000000000000000000006001610ff9565b61026b817f9d075186000000000000000000000000000000000000000000000000000000006001610ff9565b815181518114610d61576040517f08c379a000000000000000000000000000000000000000000000000000000000815260206004820152601a60248201527f45524332303a20696e636f6e73697374656e74206172726179730000000000006044820152606401610409565b80600003610d6f5750505050565b6000805b828114610f46576000858281518110610d8e57610d8e6112f6565b60200260200101519050600073ffffffffffffffffffffffffffffffffffffffff168173ffffffffffffffffffffffffffffffffffffffff1603610e2e576040517f08c379a000000000000000000000000000000000000000000000000000000000815260206004820152601960248201527f45524332303a206d696e7420746f2061646472657373283029000000000000006044820152606401610409565b6000858381518110610e4257610e426112f6565b6020026020010151905080600014610eee57838101848111610ec0576040517f08c379a000000000000000000000000000000000000000000000000000000000815260206004820152601660248201527f45524332303a2076616c756573206f766572666c6f77000000000000000000006044820152606401610409565b73ffffffffffffffffffffffffffffffffffffffff8316600090815260208a90526040902080548301905593505b60405181815273ffffffffffffffffffffffffffffffffffffffff8316906000907fddf252ad1be2c89b69c2b068fc378daa952ba7f163c4a11628f55a4df523b3ef9060200160405180910390a35050600101610d73565b5080156104cf576002850154818101818111610fbe576040517f08c379a000000000000000000000000000000000000000000000000000000000815260206004820152601660248201527f45524332303a20737570706c79206f766572666c6f77000000000000000000006044820152606401610409565b6002870155505050505050565b60008061019060017fca9d3e17f264b0f3984e2634e94adb37fa3e6a8103f06aeae6fa59e21c769f5e61129a565b7c01000000000000000000000000000000000000000000000000000000007fffffffff000000000000000000000000000000000000000000000000000000008316016110a1576040517f08c379a000000000000000000000000000000000000000000000000000000000815260206004820152601f60248201527f496e74657266616365446574656374696f6e3a2077726f6e672076616c7565006044820152606401610409565b7fffffffff00000000000000000000000000000000000000000000000000000000919091166000908152602092909252604090912080547fffffffffffffffffffffffffffffffffffffffffffffffffffffffffffffff0016911515919091179055565b803573ffffffffffffffffffffffffffffffffffffffff8116811461112957600080fd5b919050565b6000806040838503121561114157600080fd5b61114a83611105565b946020939093013593505050565b60008060006060848603121561116d57600080fd5b61117684611105565b925061118460208501611105565b9150604084013590509250925092565b60008083601f8401126111a657600080fd5b50813567ffffffffffffffff8111156111be57600080fd5b6020830191508360208260051b85010111156111d957600080fd5b9250929050565b600080600080604085870312156111f657600080fd5b843567ffffffffffffffff8082111561120e57600080fd5b61121a88838901611194565b9096509450602087013591508082111561123357600080fd5b5061124087828801611194565b95989497509550505050565b60006020828403121561125e57600080fd5b61035182611105565b6000806040838503121561127a57600080fd5b61128383611105565b915061129160208401611105565b90509250929050565b81810381811115610190577f4e487b7100000000000000000000000000000000000000000000000000000000600052601160045260246000fd5b6000602082840312156112e657600080fd5b8151801515811461035157600080fd5b7f4e487b7100000000000000000000000000000000000000000000000000000000600052603260045260246000fdfea2646970667358221220bfb78a144f4184d2dc51dc458b6f6939eaf18158f552c675981b189af005627864736f6c63430008100033",
  "linkReferences": {},
  "deployedLinkReferences": {}
}