{
  "_format": "hh-sol-artifact-1",
  "contractName": "ERC20Facet",
  "sourceName": "contracts/token/ERC20/facets/ERC20Facet.sol",
  "abi": [
    {
      "inputs": [
        {
          "internalType": "contract IForwarderRegistry",
          "name": "forwarderRegistry",
          "type": "address"
        }
      ],
      "stateMutability": "nonpayable",
      "type": "constructor"
    },
    {
      "inputs": [
        {
          "internalType": "address",
          "name": "owner",
          "type": "address"
        },
        {
          "internalType": "address",
          "name": "spender",
          "type": "address"
        },
        {
          "internalType": "uint256",
          "name": "allowance",
          "type": "uint256"
        },
        {
          "internalType": "uint256",
          "name": "increment",
          "type": "uint256"
        }
      ],
      "name": "ERC20AllowanceOverflow",
      "type": "error"
    },
    {
      "inputs": [
        {
          "internalType": "address",
          "name": "owner",
          "type": "address"
        }
      ],
      "name": "ERC20ApprovalToAddressZero",
      "type": "error"
    },
    {
      "inputs": [],
      "name": "ERC20BatchMintValuesOverflow",
      "type": "error"
    },
    {
      "inputs": [
        {
          "internalType": "address",
          "name": "owner",
          "type": "address"
        },
        {
          "internalType": "address",
          "name": "spender",
          "type": "address"
        },
        {
          "internalType": "uint256",
          "name": "allowance",
          "type": "uint256"
        },
        {
          "internalType": "uint256",
          "name": "decrement",
          "type": "uint256"
        }
      ],
      "name": "ERC20InsufficientAllowance",
      "type": "error"
    },
    {
      "inputs": [
        {
          "internalType": "address",
          "name": "owner",
          "type": "address"
        },
        {
          "internalType": "uint256",
          "name": "balance",
          "type": "uint256"
        },
        {
          "internalType": "uint256",
          "name": "value",
          "type": "uint256"
        }
      ],
      "name": "ERC20InsufficientBalance",
      "type": "error"
    },
    {
      "inputs": [],
      "name": "ERC20MintToAddressZero",
      "type": "error"
    },
    {
      "inputs": [
        {
          "internalType": "uint256",
          "name": "supply",
          "type": "uint256"
        },
        {
          "internalType": "uint256",
          "name": "value",
          "type": "uint256"
        }
      ],
      "name": "ERC20TotalSupplyOverflow",
      "type": "error"
    },
    {
      "inputs": [
        {
          "internalType": "address",
          "name": "owner",
          "type": "address"
        }
      ],
      "name": "ERC20TransferToAddressZero",
      "type": "error"
    },
    {
      "inputs": [],
      "name": "IllegalInterfaceId",
      "type": "error"
    },
    {
      "inputs": [],
      "name": "InconsistentArrayLengths",
      "type": "error"
    },
    {
      "inputs": [
        {
          "internalType": "uint256",
          "name": "currentPhase",
          "type": "uint256"
        },
        {
          "internalType": "uint256",
          "name": "newPhase",
          "type": "uint256"
        }
      ],
      "name": "InitializationPhaseAlreadyReached",
      "type": "error"
    },
    {
      "inputs": [
        {
          "internalType": "address",
          "name": "account",
          "type": "address"
        }
      ],
      "name": "NotProxyAdmin",
      "type": "error"
    },
    {
      "anonymous": false,
      "inputs": [
        {
          "indexed": true,
          "internalType": "address",
          "name": "owner",
          "type": "address"
        },
        {
          "indexed": true,
          "internalType": "address",
          "name": "spender",
          "type": "address"
        },
        {
          "indexed": false,
          "internalType": "uint256",
          "name": "value",
          "type": "uint256"
        }
      ],
      "name": "Approval",
      "type": "event"
    },
    {
      "anonymous": false,
      "inputs": [
        {
          "indexed": true,
          "internalType": "address",
          "name": "from",
          "type": "address"
        },
        {
          "indexed": true,
          "internalType": "address",
          "name": "to",
          "type": "address"
        },
        {
          "indexed": false,
          "internalType": "uint256",
          "name": "value",
          "type": "uint256"
        }
      ],
      "name": "Transfer",
      "type": "event"
    },
    {
      "inputs": [
        {
          "internalType": "address",
          "name": "owner",
          "type": "address"
        },
        {
          "internalType": "address",
          "name": "spender",
          "type": "address"
        }
      ],
      "name": "allowance",
      "outputs": [
        {
          "internalType": "uint256",
          "name": "value",
          "type": "uint256"
        }
      ],
      "stateMutability": "view",
      "type": "function"
    },
    {
      "inputs": [
        {
          "internalType": "address",
          "name": "spender",
          "type": "address"
        },
        {
          "internalType": "uint256",
          "name": "value",
          "type": "uint256"
        }
      ],
      "name": "approve",
      "outputs": [
        {
          "internalType": "bool",
          "name": "result",
          "type": "bool"
        }
      ],
      "stateMutability": "nonpayable",
      "type": "function"
    },
    {
      "inputs": [
        {
          "internalType": "address",
          "name": "owner",
          "type": "address"
        }
      ],
      "name": "balanceOf",
      "outputs": [
        {
          "internalType": "uint256",
          "name": "balance",
          "type": "uint256"
        }
      ],
      "stateMutability": "view",
      "type": "function"
    },
    {
      "inputs": [
        {
          "internalType": "address",
          "name": "spender",
          "type": "address"
        },
        {
          "internalType": "uint256",
          "name": "subtractedValue",
          "type": "uint256"
        }
      ],
      "name": "decreaseAllowance",
      "outputs": [
        {
          "internalType": "bool",
          "name": "result",
          "type": "bool"
        }
      ],
      "stateMutability": "nonpayable",
      "type": "function"
    },
    {
      "inputs": [
        {
          "internalType": "address",
          "name": "spender",
          "type": "address"
        },
        {
          "internalType": "uint256",
          "name": "addedValue",
          "type": "uint256"
        }
      ],
      "name": "increaseAllowance",
      "outputs": [
        {
          "internalType": "bool",
          "name": "result",
          "type": "bool"
        }
      ],
      "stateMutability": "nonpayable",
      "type": "function"
    },
    {
      "inputs": [],
      "name": "initERC20Storage",
      "outputs": [],
      "stateMutability": "nonpayable",
      "type": "function"
    },
    {
      "inputs": [
        {
          "internalType": "address[]",
          "name": "initialHolders",
          "type": "address[]"
        },
        {
          "internalType": "uint256[]",
          "name": "initialAllocations",
          "type": "uint256[]"
        }
      ],
      "name": "initERC20StorageWithAllocations",
      "outputs": [],
      "stateMutability": "nonpayable",
      "type": "function"
    },
    {
      "inputs": [],
      "name": "totalSupply",
      "outputs": [
        {
          "internalType": "uint256",
          "name": "supply",
          "type": "uint256"
        }
      ],
      "stateMutability": "view",
      "type": "function"
    },
    {
      "inputs": [
        {
          "internalType": "address",
          "name": "to",
          "type": "address"
        },
        {
          "internalType": "uint256",
          "name": "value",
          "type": "uint256"
        }
      ],
      "name": "transfer",
      "outputs": [
        {
          "internalType": "bool",
          "name": "result",
          "type": "bool"
        }
      ],
      "stateMutability": "nonpayable",
      "type": "function"
    },
    {
      "inputs": [
        {
          "internalType": "address",
          "name": "from",
          "type": "address"
        },
        {
          "internalType": "address",
          "name": "to",
          "type": "address"
        },
        {
          "internalType": "uint256",
          "name": "value",
          "type": "uint256"
        }
      ],
      "name": "transferFrom",
      "outputs": [
        {
          "internalType": "bool",
          "name": "result",
          "type": "bool"
        }
      ],
      "stateMutability": "nonpayable",
      "type": "function"
    }
  ],
  "bytecode": "0x60a060405234801561000f575f80fd5b5060405161124438038061124483398101604081905261002e9161003f565b6001600160a01b031660805261006c565b5f6020828403121561004f575f80fd5b81516001600160a01b0381168114610065575f80fd5b9392505050565b6080516111b961008b5f395f8181610b0f0152610b9701526111b95ff3fe608060405234801561000f575f80fd5b50600436106100b9575f3560e01c8063a457c2d711610072578063c8342b1d11610058578063c8342b1d1461015a578063dd62ed3e1461016f578063fb33f60814610182575f80fd5b8063a457c2d714610134578063a9059cbb14610147575f80fd5b806323b872dd116100a257806323b872dd146100fb578063395093511461010e57806370a0823114610121575f80fd5b8063095ea7b3146100bd57806318160ddd146100e5575b5f80fd5b6100d06100cb366004610fa5565b61018a565b60405190151581526020015b60405180910390f35b6100ed6101b2565b6040519081526020016100dc565b6100d0610109366004610fcd565b6101ca565b6100d061011c366004610fa5565b6101f4565b6100ed61012f366004611006565b610212565b6100d0610142366004610fa5565b610248565b6100d0610155366004610fa5565b610266565b61016d610168366004611067565b610284565b005b6100ed61017d3660046110ce565b61030e565b61016d61035e565b5f6101a8610196610373565b84846101a061037c565b9291906103a9565b5060015b92915050565b5f6101c56101be61037c565b6002015490565b905090565b5f6101ea6101d6610373565b8585856101e161037c565b93929190610484565b5060019392505050565b5f6101a8610200610373565b848461020a61037c565b9291906104d6565b5f6101ac8261021f61037c565b9073ffffffffffffffffffffffffffffffffffffffff165f908152602091909152604090205490565b5f6101a8610254610373565b848461025e61037c565b929190610686565b5f6101a8610272610373565b848461027c61037c565b9291906107bd565b61029d61028f610373565b61029761097a565b906109a7565b6103088484808060200260200160405190810160405280939291908181526020018383602002808284375f92019190915250506040805160208088028281018201909352878252909350879250869182918501908490808284375f92019190915250610a1692505050565b50505050565b5f610357838361031c61037c565b919073ffffffffffffffffffffffffffffffffffffffff9182165f908152600193909301602090815260408085209290931684525290205490565b9392505050565b61036961028f610373565b610371610a67565b565b5f6101c5610acd565b5f806101ac60017f1da92899d3da68bf9787824388a37ea2bfa79780bcef91b9716c390eec8ecbef6110ff565b73ffffffffffffffffffffffffffffffffffffffff8216610413576040517ff7e1ac0f00000000000000000000000000000000000000000000000000000000815273ffffffffffffffffffffffffffffffffffffffff841660048201526024015b60405180910390fd5b73ffffffffffffffffffffffffffffffffffffffff8381165f81815260018701602090815260408083209487168084529482529182902085905590518481527f8c5be1e5ebec7d5bd14f71427d1e84f3dd0314c0f7b2291e5b200ac8c7c3b92591015b60405180910390a350505050565b8373ffffffffffffffffffffffffffffffffffffffff168373ffffffffffffffffffffffffffffffffffffffff16146104c3576104c385848684610686565b6104cf858484846107bd565b5050505050565b73ffffffffffffffffffffffffffffffffffffffff821661053b576040517ff7e1ac0f00000000000000000000000000000000000000000000000000000000815273ffffffffffffffffffffffffffffffffffffffff8416600482015260240161040a565b73ffffffffffffffffffffffffffffffffffffffff8084165f9081526001860160209081526040808320938616835292905220548115610618578082018181116105df576040517f93bc2ff100000000000000000000000000000000000000000000000000000000815273ffffffffffffffffffffffffffffffffffffffff808716600483015285166024820152604481018390526064810184905260840161040a565b73ffffffffffffffffffffffffffffffffffffffff8086165f908152600188016020908152604080832093881683529290522081905590505b8273ffffffffffffffffffffffffffffffffffffffff168473ffffffffffffffffffffffffffffffffffffffff167f8c5be1e5ebec7d5bd14f71427d1e84f3dd0314c0f7b2291e5b200ac8c7c3b9258360405161067791815260200190565b60405180910390a35050505050565b73ffffffffffffffffffffffffffffffffffffffff82166106eb576040517ff7e1ac0f00000000000000000000000000000000000000000000000000000000815273ffffffffffffffffffffffffffffffffffffffff8416600482015260240161040a565b73ffffffffffffffffffffffffffffffffffffffff8084165f9081526001860160209081526040808320938616835292905220547fffffffffffffffffffffffffffffffffffffffffffffffffffffffffffffffff811480159061074e57508115155b15610618578181038181106105df576040517f137ad6ab00000000000000000000000000000000000000000000000000000000815273ffffffffffffffffffffffffffffffffffffffff808716600483015285166024820152604481018390526064810184905260840161040a565b73ffffffffffffffffffffffffffffffffffffffff8216610822576040517f754f425b00000000000000000000000000000000000000000000000000000000815273ffffffffffffffffffffffffffffffffffffffff8416600482015260240161040a565b801561091b5773ffffffffffffffffffffffffffffffffffffffff83165f908152602085905260409020548181038181106108af576040517fe450d38c00000000000000000000000000000000000000000000000000000000815273ffffffffffffffffffffffffffffffffffffffff86166004820152602481018390526044810184905260640161040a565b8373ffffffffffffffffffffffffffffffffffffffff168573ffffffffffffffffffffffffffffffffffffffff16146109185773ffffffffffffffffffffffffffffffffffffffff8086165f908152602088905260408082208490559186168152208054840190555b50505b8173ffffffffffffffffffffffffffffffffffffffff168373ffffffffffffffffffffffffffffffffffffffff167fddf252ad1be2c89b69c2b068fc378daa952ba7f163c4a11628f55a4df523b3ef8360405161047691815260200190565b5f806101ac60017fb53127684a568b3173ae13b9f8a6016e243e63b6e8ee1178d6a717850b5d61046110ff565b815473ffffffffffffffffffffffffffffffffffffffff828116911614610a12576040517f673a31a100000000000000000000000000000000000000000000000000000000815273ffffffffffffffffffffffffffffffffffffffff8216600482015260240161040a565b5050565b610a4b610a4460017f53d309e32e4ca7be7e99298a42b755b0cd82d1ad9411e9a18f57394d122749916110ff565b6001610c11565b610a53610a67565b610a128282610a6061037c565b9190610c5d565b5f610a70610e75565b9050610a9e817f36372b07000000000000000000000000000000000000000000000000000000006001610ea2565b610aca817f9d075186000000000000000000000000000000000000000000000000000000006001610ea2565b50565b5f33321480610adc5750601836105b15610ae657503390565b7fffffffffffffffffffffffffffffffffffffffffffffffffffffffffffffffec36013560601c7f000000000000000000000000000000000000000000000000000000000000000073ffffffffffffffffffffffffffffffffffffffff16331480610c0057506040517f8929a8ca00000000000000000000000000000000000000000000000000000000815273ffffffffffffffffffffffffffffffffffffffff82811660048301523360248301527f00000000000000000000000000000000000000000000000000000000000000001690638929a8ca90604401602060405180830381865afa158015610bdc573d5f803e3d5ffd5b505050506040513d601f19601f82011682018060405250810190610c009190611137565b15610c0a57919050565b3391505090565b81548290828110610c58576040517fbf0c18ec000000000000000000000000000000000000000000000000000000008152600481018290526024810184905260440161040a565b505550565b815181518114610c99576040517f6582533600000000000000000000000000000000000000000000000000000000815260040160405180910390fd5b805f03610ca65750505050565b5f805b828114610e16575f858281518110610cc357610cc3611156565b602002602001015190505f73ffffffffffffffffffffffffffffffffffffffff168173ffffffffffffffffffffffffffffffffffffffff1603610d32576040517f92fd9c8f00000000000000000000000000000000000000000000000000000000815260040160405180910390fd5b5f858381518110610d4557610d45611156565b60200260200101519050805f14610dbf57838101848111610d92576040517f5542ae7c00000000000000000000000000000000000000000000000000000000815260040160405180910390fd5b73ffffffffffffffffffffffffffffffffffffffff83165f90815260208a90526040902080548301905593505b60405181815273ffffffffffffffffffffffffffffffffffffffff8316905f907fddf252ad1be2c89b69c2b068fc378daa952ba7f163c4a11628f55a4df523b3ef9060200160405180910390a35050600101610ca9565b5080156104cf576002850154818101818111610e68576040517f0366a5f6000000000000000000000000000000000000000000000000000000008152600481018390526024810184905260440161040a565b6002870155505050505050565b5f806101ac60017fca9d3e17f264b0f3984e2634e94adb37fa3e6a8103f06aeae6fa59e21c769f5e6110ff565b7c01000000000000000000000000000000000000000000000000000000007fffffffff00000000000000000000000000000000000000000000000000000000831601610f1a576040517f72c683bb00000000000000000000000000000000000000000000000000000000815260040160405180910390fd5b7fffffffff00000000000000000000000000000000000000000000000000000000919091165f908152602092909252604090912080547fffffffffffffffffffffffffffffffffffffffffffffffffffffffffffffff0016911515919091179055565b803573ffffffffffffffffffffffffffffffffffffffff81168114610fa0575f80fd5b919050565b5f8060408385031215610fb6575f80fd5b610fbf83610f7d565b946020939093013593505050565b5f805f60608486031215610fdf575f80fd5b610fe884610f7d565b9250610ff660208501610f7d565b9150604084013590509250925092565b5f60208284031215611016575f80fd5b61035782610f7d565b5f8083601f84011261102f575f80fd5b50813567ffffffffffffffff811115611046575f80fd5b6020830191508360208260051b8501011115611060575f80fd5b9250929050565b5f805f806040858703121561107a575f80fd5b843567ffffffffffffffff80821115611091575f80fd5b61109d8883890161101f565b909650945060208701359150808211156110b5575f80fd5b506110c28782880161101f565b95989497509550505050565b5f80604083850312156110df575f80fd5b6110e883610f7d565b91506110f660208401610f7d565b90509250929050565b818103818111156101ac577f4e487b71000000000000000000000000000000000000000000000000000000005f52601160045260245ffd5b5f60208284031215611147575f80fd5b81518015158114610357575f80fd5b7f4e487b71000000000000000000000000000000000000000000000000000000005f52603260045260245ffdfea2646970667358221220f4e0f4fcc979ca7eb677754e77689cbcf391ff3b073b6f0cd4c94021a218938464736f6c63430008150033",
  "linkReferences": {},
  "deployedLinkReferences": {}
}