{
  "_format": "hh-sol-artifact-1",
  "contractName": "ERC20Facet",
  "sourceName": "contracts/token/ERC20/facets/ERC20Facet.sol",
  "abi": [
    {
      "inputs": [
        {
          "internalType": "contract IForwarderRegistry",
          "name": "forwarderRegistry",
          "type": "address"
        }
      ],
      "stateMutability": "nonpayable",
      "type": "constructor"
    },
    {
      "anonymous": false,
      "inputs": [
        {
          "indexed": true,
          "internalType": "address",
          "name": "owner",
          "type": "address"
        },
        {
          "indexed": true,
          "internalType": "address",
          "name": "spender",
          "type": "address"
        },
        {
          "indexed": false,
          "internalType": "uint256",
          "name": "value",
          "type": "uint256"
        }
      ],
      "name": "Approval",
      "type": "event"
    },
    {
      "anonymous": false,
      "inputs": [
        {
          "indexed": true,
          "internalType": "address",
          "name": "from",
          "type": "address"
        },
        {
          "indexed": true,
          "internalType": "address",
          "name": "to",
          "type": "address"
        },
        {
          "indexed": false,
          "internalType": "uint256",
          "name": "value",
          "type": "uint256"
        }
      ],
      "name": "Transfer",
      "type": "event"
    },
    {
      "inputs": [
        {
          "internalType": "address",
          "name": "owner",
          "type": "address"
        },
        {
          "internalType": "address",
          "name": "spender",
          "type": "address"
        }
      ],
      "name": "allowance",
      "outputs": [
        {
          "internalType": "uint256",
          "name": "value",
          "type": "uint256"
        }
      ],
      "stateMutability": "view",
      "type": "function"
    },
    {
      "inputs": [
        {
          "internalType": "address",
          "name": "spender",
          "type": "address"
        },
        {
          "internalType": "uint256",
          "name": "value",
          "type": "uint256"
        }
      ],
      "name": "approve",
      "outputs": [
        {
          "internalType": "bool",
          "name": "result",
          "type": "bool"
        }
      ],
      "stateMutability": "nonpayable",
      "type": "function"
    },
    {
      "inputs": [
        {
          "internalType": "address",
          "name": "owner",
          "type": "address"
        }
      ],
      "name": "balanceOf",
      "outputs": [
        {
          "internalType": "uint256",
          "name": "balance",
          "type": "uint256"
        }
      ],
      "stateMutability": "view",
      "type": "function"
    },
    {
      "inputs": [
        {
          "internalType": "address",
          "name": "spender",
          "type": "address"
        },
        {
          "internalType": "uint256",
          "name": "subtractedValue",
          "type": "uint256"
        }
      ],
      "name": "decreaseAllowance",
      "outputs": [
        {
          "internalType": "bool",
          "name": "result",
          "type": "bool"
        }
      ],
      "stateMutability": "nonpayable",
      "type": "function"
    },
    {
      "inputs": [
        {
          "internalType": "address",
          "name": "spender",
          "type": "address"
        },
        {
          "internalType": "uint256",
          "name": "addedValue",
          "type": "uint256"
        }
      ],
      "name": "increaseAllowance",
      "outputs": [
        {
          "internalType": "bool",
          "name": "result",
          "type": "bool"
        }
      ],
      "stateMutability": "nonpayable",
      "type": "function"
    },
    {
      "inputs": [],
      "name": "initERC20Storage",
      "outputs": [],
      "stateMutability": "nonpayable",
      "type": "function"
    },
    {
      "inputs": [
        {
          "internalType": "address[]",
          "name": "initialHolders",
          "type": "address[]"
        },
        {
          "internalType": "uint256[]",
          "name": "initialAllocations",
          "type": "uint256[]"
        }
      ],
      "name": "initERC20StorageWithAllocations",
      "outputs": [],
      "stateMutability": "nonpayable",
      "type": "function"
    },
    {
      "inputs": [],
      "name": "totalSupply",
      "outputs": [
        {
          "internalType": "uint256",
          "name": "supply",
          "type": "uint256"
        }
      ],
      "stateMutability": "view",
      "type": "function"
    },
    {
      "inputs": [
        {
          "internalType": "address",
          "name": "to",
          "type": "address"
        },
        {
          "internalType": "uint256",
          "name": "value",
          "type": "uint256"
        }
      ],
      "name": "transfer",
      "outputs": [
        {
          "internalType": "bool",
          "name": "result",
          "type": "bool"
        }
      ],
      "stateMutability": "nonpayable",
      "type": "function"
    },
    {
      "inputs": [
        {
          "internalType": "address",
          "name": "from",
          "type": "address"
        },
        {
          "internalType": "address",
          "name": "to",
          "type": "address"
        },
        {
          "internalType": "uint256",
          "name": "value",
          "type": "uint256"
        }
      ],
      "name": "transferFrom",
      "outputs": [
        {
          "internalType": "bool",
          "name": "result",
          "type": "bool"
        }
      ],
      "stateMutability": "nonpayable",
      "type": "function"
    }
  ],
  "bytecode": "0x60a060405234801561000f575f80fd5b506040516113d43803806113d483398101604081905261002e9161003f565b6001600160a01b031660805261006c565b5f6020828403121561004f575f80fd5b81516001600160a01b0381168114610065575f80fd5b9392505050565b60805161134961008b5f395f8181610b950152610c1d01526113495ff3fe608060405234801561000f575f80fd5b50600436106100b9575f3560e01c8063a457c2d711610072578063c8342b1d11610058578063c8342b1d1461015a578063dd62ed3e1461016f578063fb33f60814610182575f80fd5b8063a457c2d714610134578063a9059cbb14610147575f80fd5b806323b872dd116100a257806323b872dd146100fb578063395093511461010e57806370a0823114610121575f80fd5b8063095ea7b3146100bd57806318160ddd146100e5575b5f80fd5b6100d06100cb366004611135565b61018a565b60405190151581526020015b60405180910390f35b6100ed6101b2565b6040519081526020016100dc565b6100d061010936600461115d565b6101ca565b6100d061011c366004611135565b6101f4565b6100ed61012f366004611196565b610212565b6100d0610142366004611135565b610248565b6100d0610155366004611135565b610266565b61016d6101683660046111f7565b610284565b005b6100ed61017d36600461125e565b61030e565b61016d61035e565b5f6101a8610196610373565b84846101a061037c565b9291906103a9565b5060015b92915050565b5f6101c56101be61037c565b6002015490565b905090565b5f6101ea6101d6610373565b8585856101e161037c565b9392919061049c565b5060019392505050565b5f6101a8610200610373565b848461020a61037c565b9291906104ee565b5f6101ac8261021f61037c565b9073ffffffffffffffffffffffffffffffffffffffff165f908152602091909152604090205490565b5f6101a8610254610373565b848461025e61037c565b9291906106b8565b5f6101a8610272610373565b848461027c61037c565b929190610809565b61029d61028f610373565b6102976109e8565b90610a15565b6103088484808060200260200160405190810160405280939291908181526020018383602002808284375f92019190915250506040805160208088028281018201909352878252909350879250869182918501908490808284375f92019190915250610a9c92505050565b50505050565b5f610357838361031c61037c565b919073ffffffffffffffffffffffffffffffffffffffff9182165f908152600193909301602090815260408085209290931684525290205490565b9392505050565b61036961028f610373565b610371610aed565b565b5f6101c5610b53565b5f806101ac60017f1da92899d3da68bf9787824388a37ea2bfa79780bcef91b9716c390eec8ecbef61128f565b73ffffffffffffffffffffffffffffffffffffffff821661042b576040517f08c379a000000000000000000000000000000000000000000000000000000000815260206004820152601d60248201527f45524332303a20617070726f76616c20746f206164647265737328302900000060448201526064015b60405180910390fd5b73ffffffffffffffffffffffffffffffffffffffff8381165f81815260018701602090815260408083209487168084529482529182902085905590518481527f8c5be1e5ebec7d5bd14f71427d1e84f3dd0314c0f7b2291e5b200ac8c7c3b92591015b60405180910390a350505050565b8373ffffffffffffffffffffffffffffffffffffffff168373ffffffffffffffffffffffffffffffffffffffff16146104db576104db858486846106b8565b6104e785848484610809565b5050505050565b73ffffffffffffffffffffffffffffffffffffffff821661056b576040517f08c379a000000000000000000000000000000000000000000000000000000000815260206004820152601d60248201527f45524332303a20617070726f76616c20746f20616464726573732830290000006044820152606401610422565b73ffffffffffffffffffffffffffffffffffffffff8084165f908152600186016020908152604080832093861683529290522054811561064a57808201818111610611576040517f08c379a000000000000000000000000000000000000000000000000000000000815260206004820152601960248201527f45524332303a20616c6c6f77616e6365206f766572666c6f77000000000000006044820152606401610422565b73ffffffffffffffffffffffffffffffffffffffff8086165f908152600188016020908152604080832093881683529290522081905590505b8273ffffffffffffffffffffffffffffffffffffffff168473ffffffffffffffffffffffffffffffffffffffff167f8c5be1e5ebec7d5bd14f71427d1e84f3dd0314c0f7b2291e5b200ac8c7c3b925836040516106a991815260200190565b60405180910390a35050505050565b73ffffffffffffffffffffffffffffffffffffffff8216610735576040517f08c379a000000000000000000000000000000000000000000000000000000000815260206004820152601d60248201527f45524332303a20617070726f76616c20746f20616464726573732830290000006044820152606401610422565b73ffffffffffffffffffffffffffffffffffffffff8084165f9081526001860160209081526040808320938616835292905220547fffffffffffffffffffffffffffffffffffffffffffffffffffffffffffffffff811480159061079857508115155b1561064a57818103818110610611576040517f08c379a000000000000000000000000000000000000000000000000000000000815260206004820152601d60248201527f45524332303a20696e73756666696369656e7420616c6c6f77616e63650000006044820152606401610422565b73ffffffffffffffffffffffffffffffffffffffff8216610886576040517f08c379a000000000000000000000000000000000000000000000000000000000815260206004820152601d60248201527f45524332303a207472616e7366657220746f20616464726573732830290000006044820152606401610422565b80156109895773ffffffffffffffffffffffffffffffffffffffff83165f9081526020859052604090205481810381811061091d576040517f08c379a000000000000000000000000000000000000000000000000000000000815260206004820152601b60248201527f45524332303a20696e73756666696369656e742062616c616e636500000000006044820152606401610422565b8373ffffffffffffffffffffffffffffffffffffffff168573ffffffffffffffffffffffffffffffffffffffff16146109865773ffffffffffffffffffffffffffffffffffffffff8086165f908152602088905260408082208490559186168152208054840190555b50505b8173ffffffffffffffffffffffffffffffffffffffff168373ffffffffffffffffffffffffffffffffffffffff167fddf252ad1be2c89b69c2b068fc378daa952ba7f163c4a11628f55a4df523b3ef8360405161048e91815260200190565b5f806101ac60017fb53127684a568b3173ae13b9f8a6016e243e63b6e8ee1178d6a717850b5d610461128f565b815473ffffffffffffffffffffffffffffffffffffffff828116911614610a98576040517f08c379a000000000000000000000000000000000000000000000000000000000815260206004820152601960248201527f50726f787941646d696e3a206e6f74207468652061646d696e000000000000006044820152606401610422565b5050565b610ad1610aca60017f53d309e32e4ca7be7e99298a42b755b0cd82d1ad9411e9a18f57394d1227499161128f565b6001610c97565b610ad9610aed565b610a988282610ae661037c565b9190610d07565b5f610af6610fd5565b9050610b24817f36372b07000000000000000000000000000000000000000000000000000000006001611002565b610b50817f9d075186000000000000000000000000000000000000000000000000000000006001611002565b50565b5f33321480610b625750601836105b15610b6c57503390565b7fffffffffffffffffffffffffffffffffffffffffffffffffffffffffffffffec36013560601c7f000000000000000000000000000000000000000000000000000000000000000073ffffffffffffffffffffffffffffffffffffffff16331480610c8657506040517f8929a8ca00000000000000000000000000000000000000000000000000000000815273ffffffffffffffffffffffffffffffffffffffff82811660048301523360248301527f00000000000000000000000000000000000000000000000000000000000000001690638929a8ca90604401602060405180830381865afa158015610c62573d5f803e3d5ffd5b505050506040513d601f19601f82011682018060405250810190610c8691906112c7565b15610c9057919050565b3391505090565b815482908211610d03576040517f08c379a000000000000000000000000000000000000000000000000000000000815260206004820152601660248201527f53746f726167653a2070686173652072656163686564000000000000000000006044820152606401610422565b5550565b815181518114610d73576040517f08c379a000000000000000000000000000000000000000000000000000000000815260206004820152601a60248201527f45524332303a20696e636f6e73697374656e74206172726179730000000000006044820152606401610422565b805f03610d805750505050565b5f805b828114610f50575f858281518110610d9d57610d9d6112e6565b602002602001015190505f73ffffffffffffffffffffffffffffffffffffffff168173ffffffffffffffffffffffffffffffffffffffff1603610e3c576040517f08c379a000000000000000000000000000000000000000000000000000000000815260206004820152601960248201527f45524332303a206d696e7420746f2061646472657373283029000000000000006044820152606401610422565b5f858381518110610e4f57610e4f6112e6565b60200260200101519050805f14610ef957838101848111610ecc576040517f08c379a000000000000000000000000000000000000000000000000000000000815260206004820152601660248201527f45524332303a2076616c756573206f766572666c6f77000000000000000000006044820152606401610422565b73ffffffffffffffffffffffffffffffffffffffff83165f90815260208a90526040902080548301905593505b60405181815273ffffffffffffffffffffffffffffffffffffffff8316905f907fddf252ad1be2c89b69c2b068fc378daa952ba7f163c4a11628f55a4df523b3ef9060200160405180910390a35050600101610d83565b5080156104e7576002850154818101818111610fc8576040517f08c379a000000000000000000000000000000000000000000000000000000000815260206004820152601660248201527f45524332303a20737570706c79206f766572666c6f77000000000000000000006044820152606401610422565b6002870155505050505050565b5f806101ac60017fca9d3e17f264b0f3984e2634e94adb37fa3e6a8103f06aeae6fa59e21c769f5e61128f565b7c01000000000000000000000000000000000000000000000000000000007fffffffff000000000000000000000000000000000000000000000000000000008316016110aa576040517f08c379a000000000000000000000000000000000000000000000000000000000815260206004820152601f60248201527f496e74657266616365446574656374696f6e3a2077726f6e672076616c7565006044820152606401610422565b7fffffffff00000000000000000000000000000000000000000000000000000000919091165f908152602092909252604090912080547fffffffffffffffffffffffffffffffffffffffffffffffffffffffffffffff0016911515919091179055565b803573ffffffffffffffffffffffffffffffffffffffff81168114611130575f80fd5b919050565b5f8060408385031215611146575f80fd5b61114f8361110d565b946020939093013593505050565b5f805f6060848603121561116f575f80fd5b6111788461110d565b92506111866020850161110d565b9150604084013590509250925092565b5f602082840312156111a6575f80fd5b6103578261110d565b5f8083601f8401126111bf575f80fd5b50813567ffffffffffffffff8111156111d6575f80fd5b6020830191508360208260051b85010111156111f0575f80fd5b9250929050565b5f805f806040858703121561120a575f80fd5b843567ffffffffffffffff80821115611221575f80fd5b61122d888389016111af565b90965094506020870135915080821115611245575f80fd5b50611252878288016111af565b95989497509550505050565b5f806040838503121561126f575f80fd5b6112788361110d565b91506112866020840161110d565b90509250929050565b818103818111156101ac577f4e487b71000000000000000000000000000000000000000000000000000000005f52601160045260245ffd5b5f602082840312156112d7575f80fd5b81518015158114610357575f80fd5b7f4e487b71000000000000000000000000000000000000000000000000000000005f52603260045260245ffdfea2646970667358221220dea09f69dbf1bcb5d72a8ae41a212f74b00d7b224aa4105336f20932b5ff747364736f6c63430008150033",
  "linkReferences": {},
  "deployedLinkReferences": {}
}