{
  "_format": "hh-sol-artifact-1",
  "contractName": "ERC1271Mock",
  "sourceName": "contracts/mocks/cryptography/ERC1654Mock.sol",
  "abi": [
    {
      "inputs": [
        {
          "internalType": "address",
          "name": "owner",
          "type": "address"
        }
      ],
      "stateMutability": "nonpayable",
      "type": "constructor"
    },
    {
      "inputs": [
        {
          "internalType": "bytes32",
          "name": "hash",
          "type": "bytes32"
        },
        {
          "internalType": "bytes",
          "name": "signature",
          "type": "bytes"
        }
      ],
      "name": "isValidSignature",
      "outputs": [
        {
          "internalType": "bytes4",
          "name": "magicValue",
          "type": "bytes4"
        }
      ],
      "stateMutability": "view",
      "type": "function"
    }
  ],
  "bytecode": "0x60a060405234801561001057600080fd5b506040516107bc3803806107bc83398101604081905261002f91610040565b6001600160a01b0316608052610070565b60006020828403121561005257600080fd5b81516001600160a01b038116811461006957600080fd5b9392505050565b60805161073261008a6000396000608901526107326000f3fe608060405234801561001057600080fd5b506004361061002b5760003560e01c80631626ba7e14610030575b600080fd5b61004361003e3660046105b5565b610078565b6040517fffffffff00000000000000000000000000000000000000000000000000000000909116815260200160405180910390f35b600080610085848461012e565b90507f000000000000000000000000000000000000000000000000000000000000000073ffffffffffffffffffffffffffffffffffffffff168173ffffffffffffffffffffffffffffffffffffffff160361010357507f1626ba7e000000000000000000000000000000000000000000000000000000009050610128565b507fffffffff0000000000000000000000000000000000000000000000000000000090505b92915050565b600080600061013d8585610152565b9150915061014a816101c0565b509392505050565b60008082516041036101885760208301516040840151606085015160001a61017c8782858561041c565b945094505050506101b9565b82516040036101b157602083015160408401516101a6868383610534565b9350935050506101b9565b506000905060025b9250929050565b60008160048111156101d4576101d461068e565b036101dc5750565b60018160048111156101f0576101f061068e565b0361025c576040517f08c379a000000000000000000000000000000000000000000000000000000000815260206004820152601860248201527f45434453413a20696e76616c6964207369676e6174757265000000000000000060448201526064015b60405180910390fd5b60028160048111156102705761027061068e565b036102d7576040517f08c379a000000000000000000000000000000000000000000000000000000000815260206004820152601f60248201527f45434453413a20696e76616c6964207369676e6174757265206c656e677468006044820152606401610253565b60038160048111156102eb576102eb61068e565b03610378576040517f08c379a000000000000000000000000000000000000000000000000000000000815260206004820152602260248201527f45434453413a20696e76616c6964207369676e6174757265202773272076616c60448201527f75650000000000000000000000000000000000000000000000000000000000006064820152608401610253565b600481600481111561038c5761038c61068e565b03610419576040517f08c379a000000000000000000000000000000000000000000000000000000000815260206004820152602260248201527f45434453413a20696e76616c6964207369676e6174757265202776272076616c60448201527f75650000000000000000000000000000000000000000000000000000000000006064820152608401610253565b50565b6000807f7fffffffffffffffffffffffffffffff5d576e7357a4501ddfe92f46681b20a0831115610453575060009050600361052b565b8460ff16601b1415801561046b57508460ff16601c14155b1561047c575060009050600461052b565b6040805160008082526020820180845289905260ff881692820192909252606081018690526080810185905260019060a0016020604051602081039080840390855afa1580156104d0573d6000803e3d6000fd5b50506040517fffffffffffffffffffffffffffffffffffffffffffffffffffffffffffffffe0015191505073ffffffffffffffffffffffffffffffffffffffff81166105245760006001925092505061052b565b9150600090505b94509492505050565b6000807f7fffffffffffffffffffffffffffffffffffffffffffffffffffffffffffffff83168161056a60ff86901c601b6106bd565b90506105788782888561041c565b935093505050935093915050565b7f4e487b7100000000000000000000000000000000000000000000000000000000600052604160045260246000fd5b600080604083850312156105c857600080fd5b82359150602083013567ffffffffffffffff808211156105e757600080fd5b818501915085601f8301126105fb57600080fd5b81358181111561060d5761060d610586565b604051601f82017fffffffffffffffffffffffffffffffffffffffffffffffffffffffffffffffe0908116603f0116810190838211818310171561065357610653610586565b8160405282815288602084870101111561066c57600080fd5b8260208601602083013760006020848301015280955050505050509250929050565b7f4e487b7100000000000000000000000000000000000000000000000000000000600052602160045260246000fd5b600082198211156106f7577f4e487b7100000000000000000000000000000000000000000000000000000000600052601160045260246000fd5b50019056fea26469706673582212201670377ca733bd34dda46f924dc210efb732e541f35ab85476560749d597eed164736f6c634300080f0033",
  "linkReferences": {},
  "deployedLinkReferences": {}
}