{
  "_format": "hh-sol-artifact-1",
  "contractName": "ERC1271Mock",
  "sourceName": "contracts/mocks/cryptography/ERC1654Mock.sol",
  "abi": [
    {
      "inputs": [
        {
          "internalType": "address",
          "name": "owner",
          "type": "address"
        }
      ],
      "stateMutability": "nonpayable",
      "type": "constructor"
    },
    {
      "inputs": [
        {
          "internalType": "bytes32",
          "name": "hash",
          "type": "bytes32"
        },
        {
          "internalType": "bytes",
          "name": "signature",
          "type": "bytes"
        }
      ],
      "name": "isValidSignature",
      "outputs": [
        {
          "internalType": "bytes4",
          "name": "magicValue",
          "type": "bytes4"
        }
      ],
      "stateMutability": "view",
      "type": "function"
    }
  ],
  "bytecode": "0x60a060405234801561000f575f80fd5b5060405161061638038061061683398101604081905261002e9161003f565b6001600160a01b031660805261006c565b5f6020828403121561004f575f80fd5b81516001600160a01b0381168114610065575f80fd5b9392505050565b6080516105936100835f395f608501526105935ff3fe608060405234801561000f575f80fd5b5060043610610029575f3560e01c80631626ba7e1461002d575b5f80fd5b61004061003b36600461045d565b610075565b6040517fffffffff00000000000000000000000000000000000000000000000000000000909116815260200160405180910390f35b5f80610081848461012a565b90507f000000000000000000000000000000000000000000000000000000000000000073ffffffffffffffffffffffffffffffffffffffff168173ffffffffffffffffffffffffffffffffffffffff16036100ff57507f1626ba7e000000000000000000000000000000000000000000000000000000009050610124565b507fffffffff0000000000000000000000000000000000000000000000000000000090505b92915050565b5f805f610137858561014c565b915091506101448161018e565b509392505050565b5f808251604103610180576020830151604084015160608501515f1a61017487828585610348565b94509450505050610187565b505f905060025b9250929050565b5f8160048111156101a1576101a1610530565b036101a95750565b60018160048111156101bd576101bd610530565b03610229576040517f08c379a000000000000000000000000000000000000000000000000000000000815260206004820152601860248201527f45434453413a20696e76616c6964207369676e6174757265000000000000000060448201526064015b60405180910390fd5b600281600481111561023d5761023d610530565b036102a4576040517f08c379a000000000000000000000000000000000000000000000000000000000815260206004820152601f60248201527f45434453413a20696e76616c6964207369676e6174757265206c656e677468006044820152606401610220565b60038160048111156102b8576102b8610530565b03610345576040517f08c379a000000000000000000000000000000000000000000000000000000000815260206004820152602260248201527f45434453413a20696e76616c6964207369676e6174757265202773272076616c60448201527f75650000000000000000000000000000000000000000000000000000000000006064820152608401610220565b50565b5f807f7fffffffffffffffffffffffffffffff5d576e7357a4501ddfe92f46681b20a083111561037d57505f90506003610427565b604080515f8082526020820180845289905260ff881692820192909252606081018690526080810185905260019060a0016020604051602081039080840390855afa1580156103ce573d5f803e3d5ffd5b50506040517fffffffffffffffffffffffffffffffffffffffffffffffffffffffffffffffe0015191505073ffffffffffffffffffffffffffffffffffffffff8116610421575f60019250925050610427565b91505f90505b94509492505050565b7f4e487b71000000000000000000000000000000000000000000000000000000005f52604160045260245ffd5b5f806040838503121561046e575f80fd5b82359150602083013567ffffffffffffffff8082111561048c575f80fd5b818501915085601f83011261049f575f80fd5b8135818111156104b1576104b1610430565b604051601f82017fffffffffffffffffffffffffffffffffffffffffffffffffffffffffffffffe0908116603f011681019083821181831017156104f7576104f7610430565b8160405282815288602084870101111561050f575f80fd5b826020860160208301375f6020848301015280955050505050509250929050565b7f4e487b71000000000000000000000000000000000000000000000000000000005f52602160045260245ffdfea2646970667358221220af5716487c84fe4cf8cf4d571c728634878bcfaf7a3f136d256a0606cb42442864736f6c63430008150033",
  "linkReferences": {},
  "deployedLinkReferences": {}
}