{
  "_format": "hh-sol-artifact-1",
  "contractName": "ERC20BurnableFacet",
  "sourceName": "contracts/token/ERC20/facets/ERC20BurnableFacet.sol",
  "abi": [
    {
      "inputs": [
        {
          "internalType": "contract IForwarderRegistry",
          "name": "forwarderRegistry",
          "type": "address"
        }
      ],
      "stateMutability": "nonpayable",
      "type": "constructor"
    },
    {
      "inputs": [
        {
          "internalType": "address[]",
          "name": "owners",
          "type": "address[]"
        },
        {
          "internalType": "uint256[]",
          "name": "values",
          "type": "uint256[]"
        }
      ],
      "name": "batchBurnFrom",
      "outputs": [
        {
          "internalType": "bool",
          "name": "",
          "type": "bool"
        }
      ],
      "stateMutability": "nonpayable",
      "type": "function"
    },
    {
      "inputs": [
        {
          "internalType": "uint256",
          "name": "value",
          "type": "uint256"
        }
      ],
      "name": "burn",
      "outputs": [
        {
          "internalType": "bool",
          "name": "",
          "type": "bool"
        }
      ],
      "stateMutability": "nonpayable",
      "type": "function"
    },
    {
      "inputs": [
        {
          "internalType": "address",
          "name": "from",
          "type": "address"
        },
        {
          "internalType": "uint256",
          "name": "value",
          "type": "uint256"
        }
      ],
      "name": "burnFrom",
      "outputs": [
        {
          "internalType": "bool",
          "name": "",
          "type": "bool"
        }
      ],
      "stateMutability": "nonpayable",
      "type": "function"
    },
    {
      "inputs": [],
      "name": "initERC20BurnableStorage",
      "outputs": [],
      "stateMutability": "nonpayable",
      "type": "function"
    }
  ],
  "bytecode": "0x60a060405234801561001057600080fd5b50604051610d78380380610d7883398101604081905261002f91610040565b6001600160a01b0316608052610070565b60006020828403121561005257600080fd5b81516001600160a01b038116811461006957600080fd5b9392505050565b608051610ce6610092600039600081816106b401526107540152610ce66000f3fe608060405234801561001057600080fd5b506004361061004c5760003560e01c80631b9a75291461005157806342966c6814610078578063751ec2d31461008b57806379cc679014610095575b600080fd5b61006461005f366004610b50565b6100a8565b604051901515815260200160405180910390f35b610064610086366004610bbc565b610136565b61009361015b565b005b6100646100a3366004610bd5565b61017e565b600061012b6100b56101a6565b86868080602002602001604051908101604052809392919081815260200183836020028082843760009201919091525050604080516020808a0282810182019093528982529093508992508891829185019084908082843760009201919091525061012392506101b5915050565b9291906101e9565b506001949350505050565b60006101536101436101a6565b8361014c6101b5565b9190610426565b506001919050565b6101746101666101a6565b61016e610544565b90610572565b61017c6105f9565b565b600061019d61018b6101a6565b84846101956101b5565b92919061062e565b50600192915050565b60006101b0610678565b905090565b6000806101e360017f1da92899d3da68bf9787824388a37ea2bfa79780bcef91b9716c390eec8ecbef610c1a565b92915050565b81518151811461025a576040517f08c379a000000000000000000000000000000000000000000000000000000000815260206004820152601a60248201527f45524332303a20696e636f6e73697374656e742061727261797300000000000060448201526064015b60405180910390fd5b806000036102685750610420565b6000805b82811461040a57600085828151811061028757610287610c58565b6020026020010151905060008583815181106102a5576102a5610c58565b602002602001015190508773ffffffffffffffffffffffffffffffffffffffff168273ffffffffffffffffffffffffffffffffffffffff16146102ee576102ee89838a846107d0565b80156103b25773ffffffffffffffffffffffffffffffffffffffff8216600090815260208a90526040902054818103818110610386576040517f08c379a000000000000000000000000000000000000000000000000000000000815260206004820152601b60248201527f45524332303a20696e73756666696369656e742062616c616e636500000000006044820152606401610251565b73ffffffffffffffffffffffffffffffffffffffff8416600090815260208c9052604090205550928301925b60405181815260009073ffffffffffffffffffffffffffffffffffffffff8416907fddf252ad1be2c89b69c2b068fc378daa952ba7f163c4a11628f55a4df523b3ef9060200160405180910390a3505060010161026c565b50801561041d5760028601805482900390555b50505b50505050565b80156104f15773ffffffffffffffffffffffffffffffffffffffff82166000908152602084905260409020548181038181106104be576040517f08c379a000000000000000000000000000000000000000000000000000000000815260206004820152601b60248201527f45524332303a20696e73756666696369656e742062616c616e636500000000006044820152606401610251565b73ffffffffffffffffffffffffffffffffffffffff84166000908152602086905260409020555060028301805482900390555b60405181815260009073ffffffffffffffffffffffffffffffffffffffff8416907fddf252ad1be2c89b69c2b068fc378daa952ba7f163c4a11628f55a4df523b3ef9060200160405180910390a3505050565b6000806101e360017fb53127684a568b3173ae13b9f8a6016e243e63b6e8ee1178d6a717850b5d6104610c1a565b815473ffffffffffffffffffffffffffffffffffffffff8281169116146105f5576040517f08c379a000000000000000000000000000000000000000000000000000000000815260206004820152601960248201527f50726f787941646d696e3a206e6f74207468652061646d696e000000000000006044820152606401610251565b5050565b61017c7f20c07ed10000000000000000000000000000000000000000000000000000000060016106276109ca565b91906109f8565b8273ffffffffffffffffffffffffffffffffffffffff168273ffffffffffffffffffffffffffffffffffffffff161461066d5761066d848385846107d0565b610420848383610426565b60003332810361068757919050565b6000367fffffffffffffffffffffffffffffffffffffffffffffffffffffffffffffffec013560601c90507f000000000000000000000000000000000000000000000000000000000000000073ffffffffffffffffffffffffffffffffffffffff168273ffffffffffffffffffffffffffffffffffffffff1614806107bf57506040517fe60125d600000000000000000000000000000000000000000000000000000000815273ffffffffffffffffffffffffffffffffffffffff828116600483015283811660248301527f0000000000000000000000000000000000000000000000000000000000000000169063e60125d690604401602060405180830381865afa15801561079b573d6000803e3d6000fd5b505050506040513d601f19601f820116820180604052508101906107bf9190610c87565b156107ca5792915050565b50919050565b73ffffffffffffffffffffffffffffffffffffffff821661084d576040517f08c379a000000000000000000000000000000000000000000000000000000000815260206004820152601d60248201527f45524332303a20617070726f76616c20746f20616464726573732830290000006044820152606401610251565b73ffffffffffffffffffffffffffffffffffffffff80841660009081526001860160209081526040808320938616835292905220547fffffffffffffffffffffffffffffffffffffffffffffffffffffffffffffffff81148015906108b157508115155b1561095c57818103818110610922576040517f08c379a000000000000000000000000000000000000000000000000000000000815260206004820152601d60248201527f45524332303a20696e73756666696369656e7420616c6c6f77616e63650000006044820152606401610251565b73ffffffffffffffffffffffffffffffffffffffff8086166000908152600188016020908152604080832093881683529290522081905590505b8273ffffffffffffffffffffffffffffffffffffffff168473ffffffffffffffffffffffffffffffffffffffff167f8c5be1e5ebec7d5bd14f71427d1e84f3dd0314c0f7b2291e5b200ac8c7c3b925836040516109bb91815260200190565b60405180910390a35050505050565b6000806101e360017fca9d3e17f264b0f3984e2634e94adb37fa3e6a8103f06aeae6fa59e21c769f5e610c1a565b7c01000000000000000000000000000000000000000000000000000000007fffffffff00000000000000000000000000000000000000000000000000000000831601610aa0576040517f08c379a000000000000000000000000000000000000000000000000000000000815260206004820152601f60248201527f496e74657266616365446574656374696f6e3a2077726f6e672076616c7565006044820152606401610251565b7fffffffff00000000000000000000000000000000000000000000000000000000919091166000908152602092909252604090912080547fffffffffffffffffffffffffffffffffffffffffffffffffffffffffffffff0016911515919091179055565b60008083601f840112610b1657600080fd5b50813567ffffffffffffffff811115610b2e57600080fd5b6020830191508360208260051b8501011115610b4957600080fd5b9250929050565b60008060008060408587031215610b6657600080fd5b843567ffffffffffffffff80821115610b7e57600080fd5b610b8a88838901610b04565b90965094506020870135915080821115610ba357600080fd5b50610bb087828801610b04565b95989497509550505050565b600060208284031215610bce57600080fd5b5035919050565b60008060408385031215610be857600080fd5b823573ffffffffffffffffffffffffffffffffffffffff81168114610c0c57600080fd5b946020939093013593505050565b600082821015610c53577f4e487b7100000000000000000000000000000000000000000000000000000000600052601160045260246000fd5b500390565b7f4e487b7100000000000000000000000000000000000000000000000000000000600052603260045260246000fd5b600060208284031215610c9957600080fd5b81518015158114610ca957600080fd5b939250505056fea264697066735822122050c84f584ffc1b9d588f3ce8f23f2c96edc58ddaf2077c0dc28e7dc11fb8fb6464736f6c634300080e0033",
  "linkReferences": {},
  "deployedLinkReferences": {}
}