{
  "_format": "hh-sol-artifact-1",
  "contractName": "ERC1155FullProxied",
  "sourceName": "contracts/token/ERC1155/preset/proxied/ERC1155FullProxied.sol",
  "abi": [
    {
      "inputs": [
        {
          "internalType": "contract IForwarderRegistry",
          "name": "forwarderRegistry",
          "type": "address"
        }
      ],
      "stateMutability": "nonpayable",
      "type": "constructor"
    },
    {
      "inputs": [],
      "name": "ERC1155BalanceOfAddressZero",
      "type": "error"
    },
    {
      "inputs": [
        {
          "internalType": "address",
          "name": "recipient",
          "type": "address"
        },
        {
          "internalType": "uint256",
          "name": "id",
          "type": "uint256"
        },
        {
          "internalType": "uint256",
          "name": "balance",
          "type": "uint256"
        },
        {
          "internalType": "uint256",
          "name": "value",
          "type": "uint256"
        }
      ],
      "name": "ERC1155BalanceOverflow",
      "type": "error"
    },
    {
      "inputs": [
        {
          "internalType": "address",
          "name": "owner",
          "type": "address"
        },
        {
          "internalType": "uint256",
          "name": "id",
          "type": "uint256"
        },
        {
          "internalType": "uint256",
          "name": "balance",
          "type": "uint256"
        },
        {
          "internalType": "uint256",
          "name": "value",
          "type": "uint256"
        }
      ],
      "name": "ERC1155InsufficientBalance",
      "type": "error"
    },
    {
      "inputs": [],
      "name": "ERC1155MintToAddressZero",
      "type": "error"
    },
    {
      "inputs": [
        {
          "internalType": "address",
          "name": "sender",
          "type": "address"
        },
        {
          "internalType": "address",
          "name": "owner",
          "type": "address"
        }
      ],
      "name": "ERC1155NonApproved",
      "type": "error"
    },
    {
      "inputs": [
        {
          "internalType": "address",
          "name": "recipient",
          "type": "address"
        },
        {
          "internalType": "uint256[]",
          "name": "ids",
          "type": "uint256[]"
        },
        {
          "internalType": "uint256[]",
          "name": "values",
          "type": "uint256[]"
        }
      ],
      "name": "ERC1155SafeBatchTransferRejected",
      "type": "error"
    },
    {
      "inputs": [
        {
          "internalType": "address",
          "name": "recipient",
          "type": "address"
        },
        {
          "internalType": "uint256",
          "name": "id",
          "type": "uint256"
        },
        {
          "internalType": "uint256",
          "name": "value",
          "type": "uint256"
        }
      ],
      "name": "ERC1155SafeTransferRejected",
      "type": "error"
    },
    {
      "inputs": [
        {
          "internalType": "address",
          "name": "account",
          "type": "address"
        }
      ],
      "name": "ERC1155SelfApprovalForAll",
      "type": "error"
    },
    {
      "inputs": [],
      "name": "ERC1155TransferToAddressZero",
      "type": "error"
    },
    {
      "inputs": [
        {
          "internalType": "uint256",
          "name": "percentage",
          "type": "uint256"
        }
      ],
      "name": "ERC2981IncorrectRoyaltyPercentage",
      "type": "error"
    },
    {
      "inputs": [],
      "name": "ERC2981IncorrectRoyaltyReceiver",
      "type": "error"
    },
    {
      "inputs": [],
      "name": "FailedCall",
      "type": "error"
    },
    {
      "inputs": [],
      "name": "IllegalInterfaceId",
      "type": "error"
    },
    {
      "inputs": [],
      "name": "InconsistentArrayLengths",
      "type": "error"
    },
    {
      "inputs": [
        {
          "internalType": "address",
          "name": "tokenContract",
          "type": "address"
        }
      ],
      "name": "IncorrectTokenContractType",
      "type": "error"
    },
    {
      "inputs": [
        {
          "internalType": "uint256",
          "name": "currentPhase",
          "type": "uint256"
        },
        {
          "internalType": "uint256",
          "name": "newPhase",
          "type": "uint256"
        }
      ],
      "name": "InitializationPhaseAlreadyReached",
      "type": "error"
    },
    {
      "inputs": [
        {
          "internalType": "uint256",
          "name": "balance",
          "type": "uint256"
        },
        {
          "internalType": "uint256",
          "name": "needed",
          "type": "uint256"
        }
      ],
      "name": "InsufficientBalance",
      "type": "error"
    },
    {
      "inputs": [
        {
          "internalType": "address",
          "name": "account",
          "type": "address"
        }
      ],
      "name": "NotContractOwner",
      "type": "error"
    },
    {
      "inputs": [
        {
          "internalType": "address",
          "name": "account",
          "type": "address"
        }
      ],
      "name": "NotMetadataResolver",
      "type": "error"
    },
    {
      "inputs": [
        {
          "internalType": "bytes32",
          "name": "role",
          "type": "bytes32"
        },
        {
          "internalType": "address",
          "name": "account",
          "type": "address"
        }
      ],
      "name": "NotRoleHolder",
      "type": "error"
    },
    {
      "inputs": [
        {
          "internalType": "address",
          "name": "operator",
          "type": "address"
        }
      ],
      "name": "OperatorNotAllowed",
      "type": "error"
    },
    {
      "inputs": [
        {
          "internalType": "address",
          "name": "token",
          "type": "address"
        }
      ],
      "name": "SafeERC20FailedOperation",
      "type": "error"
    },
    {
      "anonymous": false,
      "inputs": [
        {
          "indexed": true,
          "internalType": "address",
          "name": "owner",
          "type": "address"
        },
        {
          "indexed": true,
          "internalType": "address",
          "name": "operator",
          "type": "address"
        },
        {
          "indexed": false,
          "internalType": "bool",
          "name": "approved",
          "type": "bool"
        }
      ],
      "name": "ApprovalForAll",
      "type": "event"
    },
    {
      "anonymous": false,
      "inputs": [
        {
          "indexed": true,
          "internalType": "address",
          "name": "previousOwner",
          "type": "address"
        },
        {
          "indexed": true,
          "internalType": "address",
          "name": "newOwner",
          "type": "address"
        }
      ],
      "name": "OwnershipTransferred",
      "type": "event"
    },
    {
      "anonymous": false,
      "inputs": [
        {
          "indexed": false,
          "internalType": "bytes32",
          "name": "role",
          "type": "bytes32"
        },
        {
          "indexed": false,
          "internalType": "address",
          "name": "account",
          "type": "address"
        },
        {
          "indexed": false,
          "internalType": "address",
          "name": "operator",
          "type": "address"
        }
      ],
      "name": "RoleGranted",
      "type": "event"
    },
    {
      "anonymous": false,
      "inputs": [
        {
          "indexed": false,
          "internalType": "bytes32",
          "name": "role",
          "type": "bytes32"
        },
        {
          "indexed": false,
          "internalType": "address",
          "name": "account",
          "type": "address"
        },
        {
          "indexed": false,
          "internalType": "address",
          "name": "operator",
          "type": "address"
        }
      ],
      "name": "RoleRevoked",
      "type": "event"
    },
    {
      "anonymous": false,
      "inputs": [
        {
          "indexed": true,
          "internalType": "address",
          "name": "operator",
          "type": "address"
        },
        {
          "indexed": true,
          "internalType": "address",
          "name": "from",
          "type": "address"
        },
        {
          "indexed": true,
          "internalType": "address",
          "name": "to",
          "type": "address"
        },
        {
          "indexed": false,
          "internalType": "uint256[]",
          "name": "ids",
          "type": "uint256[]"
        },
        {
          "indexed": false,
          "internalType": "uint256[]",
          "name": "values",
          "type": "uint256[]"
        }
      ],
      "name": "TransferBatch",
      "type": "event"
    },
    {
      "anonymous": false,
      "inputs": [
        {
          "indexed": true,
          "internalType": "address",
          "name": "operator",
          "type": "address"
        },
        {
          "indexed": true,
          "internalType": "address",
          "name": "from",
          "type": "address"
        },
        {
          "indexed": true,
          "internalType": "address",
          "name": "to",
          "type": "address"
        },
        {
          "indexed": false,
          "internalType": "uint256",
          "name": "id",
          "type": "uint256"
        },
        {
          "indexed": false,
          "internalType": "uint256",
          "name": "value",
          "type": "uint256"
        }
      ],
      "name": "TransferSingle",
      "type": "event"
    },
    {
      "anonymous": false,
      "inputs": [
        {
          "indexed": false,
          "internalType": "string",
          "name": "value",
          "type": "string"
        },
        {
          "indexed": true,
          "internalType": "uint256",
          "name": "id",
          "type": "uint256"
        }
      ],
      "name": "URI",
      "type": "event"
    },
    {
      "inputs": [],
      "name": "MINTER_ROLE",
      "outputs": [
        {
          "internalType": "bytes32",
          "name": "",
          "type": "bytes32"
        }
      ],
      "stateMutability": "view",
      "type": "function"
    },
    {
      "inputs": [],
      "name": "ROYALTY_FEE_DENOMINATOR",
      "outputs": [
        {
          "internalType": "uint256",
          "name": "",
          "type": "uint256"
        }
      ],
      "stateMutability": "view",
      "type": "function"
    },
    {
      "inputs": [
        {
          "internalType": "address",
          "name": "owner",
          "type": "address"
        },
        {
          "internalType": "uint256",
          "name": "id",
          "type": "uint256"
        }
      ],
      "name": "balanceOf",
      "outputs": [
        {
          "internalType": "uint256",
          "name": "balance",
          "type": "uint256"
        }
      ],
      "stateMutability": "view",
      "type": "function"
    },
    {
      "inputs": [
        {
          "internalType": "address[]",
          "name": "owners",
          "type": "address[]"
        },
        {
          "internalType": "uint256[]",
          "name": "ids",
          "type": "uint256[]"
        }
      ],
      "name": "balanceOfBatch",
      "outputs": [
        {
          "internalType": "uint256[]",
          "name": "balances",
          "type": "uint256[]"
        }
      ],
      "stateMutability": "view",
      "type": "function"
    },
    {
      "inputs": [
        {
          "internalType": "uint256[]",
          "name": "tokenIds",
          "type": "uint256[]"
        },
        {
          "internalType": "string[]",
          "name": "tokenURIs",
          "type": "string[]"
        }
      ],
      "name": "batchSetTokenURI",
      "outputs": [],
      "stateMutability": "nonpayable",
      "type": "function"
    },
    {
      "inputs": [],
      "name": "forwarderRegistry",
      "outputs": [
        {
          "internalType": "contract IForwarderRegistry",
          "name": "",
          "type": "address"
        }
      ],
      "stateMutability": "view",
      "type": "function"
    },
    {
      "inputs": [
        {
          "internalType": "bytes32",
          "name": "role",
          "type": "bytes32"
        },
        {
          "internalType": "address",
          "name": "account",
          "type": "address"
        }
      ],
      "name": "grantRole",
      "outputs": [],
      "stateMutability": "nonpayable",
      "type": "function"
    },
    {
      "inputs": [
        {
          "internalType": "bytes32",
          "name": "role",
          "type": "bytes32"
        },
        {
          "internalType": "address",
          "name": "account",
          "type": "address"
        }
      ],
      "name": "hasRole",
      "outputs": [
        {
          "internalType": "bool",
          "name": "hasRole_",
          "type": "bool"
        }
      ],
      "stateMutability": "view",
      "type": "function"
    },
    {
      "inputs": [
        {
          "internalType": "string",
          "name": "tokenName",
          "type": "string"
        },
        {
          "internalType": "string",
          "name": "tokenSymbol",
          "type": "string"
        },
        {
          "internalType": "contract ITokenMetadataResolver",
          "name": "metadataResolver",
          "type": "address"
        },
        {
          "internalType": "contract IOperatorFilterRegistry",
          "name": "filterRegistry",
          "type": "address"
        }
      ],
      "name": "init",
      "outputs": [],
      "stateMutability": "nonpayable",
      "type": "function"
    },
    {
      "inputs": [
        {
          "internalType": "address",
          "name": "owner",
          "type": "address"
        },
        {
          "internalType": "address",
          "name": "operator",
          "type": "address"
        }
      ],
      "name": "isApprovedForAll",
      "outputs": [
        {
          "internalType": "bool",
          "name": "approvedForAll",
          "type": "bool"
        }
      ],
      "stateMutability": "view",
      "type": "function"
    },
    {
      "inputs": [
        {
          "internalType": "address",
          "name": "forwarder",
          "type": "address"
        }
      ],
      "name": "isTrustedForwarder",
      "outputs": [
        {
          "internalType": "bool",
          "name": "",
          "type": "bool"
        }
      ],
      "stateMutability": "view",
      "type": "function"
    },
    {
      "inputs": [],
      "name": "metadataResolver",
      "outputs": [
        {
          "internalType": "contract ITokenMetadataResolver",
          "name": "tokenMetadataResolver",
          "type": "address"
        }
      ],
      "stateMutability": "view",
      "type": "function"
    },
    {
      "inputs": [],
      "name": "name",
      "outputs": [
        {
          "internalType": "string",
          "name": "tokenName",
          "type": "string"
        }
      ],
      "stateMutability": "view",
      "type": "function"
    },
    {
      "inputs": [],
      "name": "operatorFilterRegistry",
      "outputs": [
        {
          "internalType": "contract IOperatorFilterRegistry",
          "name": "",
          "type": "address"
        }
      ],
      "stateMutability": "view",
      "type": "function"
    },
    {
      "inputs": [],
      "name": "owner",
      "outputs": [
        {
          "internalType": "address",
          "name": "",
          "type": "address"
        }
      ],
      "stateMutability": "view",
      "type": "function"
    },
    {
      "inputs": [
        {
          "internalType": "address[]",
          "name": "accounts",
          "type": "address[]"
        },
        {
          "internalType": "contract IERC20[]",
          "name": "tokens",
          "type": "address[]"
        },
        {
          "internalType": "uint256[]",
          "name": "amounts",
          "type": "uint256[]"
        }
      ],
      "name": "recoverERC20s",
      "outputs": [],
      "stateMutability": "nonpayable",
      "type": "function"
    },
    {
      "inputs": [
        {
          "internalType": "address[]",
          "name": "accounts",
          "type": "address[]"
        },
        {
          "internalType": "contract IERC721[]",
          "name": "contracts",
          "type": "address[]"
        },
        {
          "internalType": "uint256[]",
          "name": "tokenIds",
          "type": "uint256[]"
        }
      ],
      "name": "recoverERC721s",
      "outputs": [],
      "stateMutability": "nonpayable",
      "type": "function"
    },
    {
      "inputs": [
        {
          "internalType": "address payable[]",
          "name": "accounts",
          "type": "address[]"
        },
        {
          "internalType": "uint256[]",
          "name": "amounts",
          "type": "uint256[]"
        }
      ],
      "name": "recoverETH",
      "outputs": [],
      "stateMutability": "nonpayable",
      "type": "function"
    },
    {
      "inputs": [
        {
          "internalType": "bytes32",
          "name": "role",
          "type": "bytes32"
        }
      ],
      "name": "renounceRole",
      "outputs": [],
      "stateMutability": "nonpayable",
      "type": "function"
    },
    {
      "inputs": [
        {
          "internalType": "bytes32",
          "name": "role",
          "type": "bytes32"
        },
        {
          "internalType": "address",
          "name": "account",
          "type": "address"
        }
      ],
      "name": "revokeRole",
      "outputs": [],
      "stateMutability": "nonpayable",
      "type": "function"
    },
    {
      "inputs": [
        {
          "internalType": "uint256",
          "name": "tokenId",
          "type": "uint256"
        },
        {
          "internalType": "uint256",
          "name": "salePrice",
          "type": "uint256"
        }
      ],
      "name": "royaltyInfo",
      "outputs": [
        {
          "internalType": "address",
          "name": "receiver",
          "type": "address"
        },
        {
          "internalType": "uint256",
          "name": "royaltyAmount",
          "type": "uint256"
        }
      ],
      "stateMutability": "view",
      "type": "function"
    },
    {
      "inputs": [
        {
          "internalType": "address",
          "name": "to",
          "type": "address"
        },
        {
          "internalType": "uint256[]",
          "name": "ids",
          "type": "uint256[]"
        },
        {
          "internalType": "uint256[]",
          "name": "values",
          "type": "uint256[]"
        },
        {
          "internalType": "bytes",
          "name": "data",
          "type": "bytes"
        }
      ],
      "name": "safeBatchMint",
      "outputs": [],
      "stateMutability": "nonpayable",
      "type": "function"
    },
    {
      "inputs": [
        {
          "internalType": "address",
          "name": "from",
          "type": "address"
        },
        {
          "internalType": "address",
          "name": "to",
          "type": "address"
        },
        {
          "internalType": "uint256[]",
          "name": "ids",
          "type": "uint256[]"
        },
        {
          "internalType": "uint256[]",
          "name": "values",
          "type": "uint256[]"
        },
        {
          "internalType": "bytes",
          "name": "data",
          "type": "bytes"
        }
      ],
      "name": "safeBatchTransferFrom",
      "outputs": [],
      "stateMutability": "nonpayable",
      "type": "function"
    },
    {
      "inputs": [
        {
          "internalType": "address[]",
          "name": "recipients",
          "type": "address[]"
        },
        {
          "internalType": "uint256[]",
          "name": "ids",
          "type": "uint256[]"
        },
        {
          "internalType": "uint256[]",
          "name": "values",
          "type": "uint256[]"
        },
        {
          "internalType": "bytes",
          "name": "data",
          "type": "bytes"
        }
      ],
      "name": "safeDeliver",
      "outputs": [],
      "stateMutability": "nonpayable",
      "type": "function"
    },
    {
      "inputs": [
        {
          "internalType": "address",
          "name": "to",
          "type": "address"
        },
        {
          "internalType": "uint256",
          "name": "id",
          "type": "uint256"
        },
        {
          "internalType": "uint256",
          "name": "value",
          "type": "uint256"
        },
        {
          "internalType": "bytes",
          "name": "data",
          "type": "bytes"
        }
      ],
      "name": "safeMint",
      "outputs": [],
      "stateMutability": "nonpayable",
      "type": "function"
    },
    {
      "inputs": [
        {
          "internalType": "address",
          "name": "from",
          "type": "address"
        },
        {
          "internalType": "address",
          "name": "to",
          "type": "address"
        },
        {
          "internalType": "uint256",
          "name": "id",
          "type": "uint256"
        },
        {
          "internalType": "uint256",
          "name": "value",
          "type": "uint256"
        },
        {
          "internalType": "bytes",
          "name": "data",
          "type": "bytes"
        }
      ],
      "name": "safeTransferFrom",
      "outputs": [],
      "stateMutability": "nonpayable",
      "type": "function"
    },
    {
      "inputs": [
        {
          "internalType": "address",
          "name": "operator",
          "type": "address"
        },
        {
          "internalType": "bool",
          "name": "approved",
          "type": "bool"
        }
      ],
      "name": "setApprovalForAll",
      "outputs": [],
      "stateMutability": "nonpayable",
      "type": "function"
    },
    {
      "inputs": [
        {
          "internalType": "uint256",
          "name": "percentage",
          "type": "uint256"
        }
      ],
      "name": "setRoyaltyPercentage",
      "outputs": [],
      "stateMutability": "nonpayable",
      "type": "function"
    },
    {
      "inputs": [
        {
          "internalType": "address",
          "name": "receiver",
          "type": "address"
        }
      ],
      "name": "setRoyaltyReceiver",
      "outputs": [],
      "stateMutability": "nonpayable",
      "type": "function"
    },
    {
      "inputs": [
        {
          "internalType": "uint256",
          "name": "tokenId",
          "type": "uint256"
        },
        {
          "internalType": "string",
          "name": "tokenURI",
          "type": "string"
        }
      ],
      "name": "setTokenURI",
      "outputs": [],
      "stateMutability": "nonpayable",
      "type": "function"
    },
    {
      "inputs": [
        {
          "internalType": "bytes4",
          "name": "interfaceId",
          "type": "bytes4"
        }
      ],
      "name": "supportsInterface",
      "outputs": [
        {
          "internalType": "bool",
          "name": "",
          "type": "bool"
        }
      ],
      "stateMutability": "view",
      "type": "function"
    },
    {
      "inputs": [],
      "name": "symbol",
      "outputs": [
        {
          "internalType": "string",
          "name": "tokenSymbol",
          "type": "string"
        }
      ],
      "stateMutability": "view",
      "type": "function"
    },
    {
      "inputs": [
        {
          "internalType": "address",
          "name": "newOwner",
          "type": "address"
        }
      ],
      "name": "transferOwnership",
      "outputs": [],
      "stateMutability": "nonpayable",
      "type": "function"
    },
    {
      "inputs": [
        {
          "internalType": "contract IOperatorFilterRegistry",
          "name": "registry",
          "type": "address"
        }
      ],
      "name": "updateOperatorFilterRegistry",
      "outputs": [],
      "stateMutability": "nonpayable",
      "type": "function"
    },
    {
      "inputs": [
        {
          "internalType": "uint256",
          "name": "tokenId",
          "type": "uint256"
        }
      ],
      "name": "uri",
      "outputs": [
        {
          "internalType": "string",
          "name": "metadataURI",
          "type": "string"
        }
      ],
      "stateMutability": "view",
      "type": "function"
    }
  ],
  "bytecode": "0x60a060405234801561001057600080fd5b506040516142e43803806142e483398101604081905261002f91610040565b6001600160a01b0316608052610070565b60006020828403121561005257600080fd5b81516001600160a01b038116811461006957600080fd5b9392505050565b6080516142446100a060003960008181610345015281816103e0015281816129d90152612a6701526142446000f3fe608060405234801561001057600080fd5b50600436106102405760003560e01c806373c8a95811610145578063c3666c36116100bd578063e8ab9ccc1161008c578063f242432a11610071578063f242432a14610552578063f2fde38b14610565578063f7ba94bd1461057857600080fd5b8063e8ab9ccc1461052c578063e985e9c51461053f57600080fd5b8063c3666c36146104d5578063d5391393146104e8578063d547741f1461050f578063e1a8bf2c1461052257600080fd5b806391d1485411610114578063a0c76f62116100f9578063a0c76f62146104b2578063a22cb465146104ba578063b0ccc31e146104cd57600080fd5b806391d148541461049757806395d89b41146104aa57600080fd5b806373c8a958146104565780638bb9c5bf146104695780638da5cb5b1461047c5780638dc251e31461048457600080fd5b80632a55205a116101d85780634e1273f4116101a75780635cfa92971161018c5780635cfa92971461041d57806361ba27da146104305780636706467b1461044357600080fd5b80634e1273f4146103b0578063572b6c05146103d057600080fd5b80632a55205a146103045780632b4c9f16146103435780632eb2c2d61461038a5780632f2ff15d1461039d57600080fd5b80630e07f854116102145780630e07f854146102b85780630e89341c146102cb578063114ba8ee146102de578063162094c4146102f157600080fd5b8062fdd58e1461024557806301ffc9a71461026b57806306fdde031461028e5780630d6a5bbb146102a3575b600080fd5b6102586102533660046133ff565b61058b565b6040519081526020015b60405180910390f35b61027e610279366004613459565b6105aa565b6040519015158152602001610262565b6102966105be565b60405161026291906134eb565b6102b66102b1366004613585565b6105d5565b005b6102b66102c636600461363e565b6106d0565b6102966102d93660046136d8565b610745565b6102b66102ec3660046136f1565b61075b565b6102b66102ff36600461370e565b6107c6565b61031761031236600461375a565b610898565b6040805173ffffffffffffffffffffffffffffffffffffffff9093168352602083019190915201610262565b7f00000000000000000000000000000000000000000000000000000000000000005b60405173ffffffffffffffffffffffffffffffffffffffff9091168152602001610262565b6102b661039836600461377c565b6108bb565b6102b66103ab366004613847565b610908565b6103c36103be366004613877565b61093b565b6040516102629190613924565b61027e6103de3660046136f1565b7f000000000000000000000000000000000000000000000000000000000000000073ffffffffffffffffffffffffffffffffffffffff90811691161490565b6102b661042b366004613937565b61095e565b6102b661043e3660046136d8565b6109e8565b6102b6610451366004613877565b610a05565b6102b66104643660046139a1565b610b3d565b6102b66104773660046136d8565b610c29565b610365610c44565b6102b66104923660046136f1565b610c6b565b61027e6104a5366004613847565b610c88565b610296610ccc565b610365610cde565b6102b66104c8366004613a55565b610ceb565b610365610d24565b6102b66104e33660046139a1565b610d31565b6102587f6d696e746572000000000000000000000000000000000000000000000000000081565b6102b661051d366004613847565b610fd2565b610258620186a081565b6102b661053a366004613a83565b611000565b61027e61054d366004613b3a565b61111a565b6102b6610560366004613b68565b611168565b6102b66105733660046136f1565b6111a8565b6102b6610586366004613877565b6111c3565b60006105a1838361059a61127a565b91906112a8565b90505b92915050565b60006105a4826105b861132c565b9061135a565b60606105d06105cb611434565b611462565b905090565b60006105df6114f8565b90506106157f6d696e74657200000000000000000000000000000000000000000000000000008261060e611502565b9190611530565b6106c6818989898080602002602001604051908101604052809392919081815260200183836020028082843760009201919091525050604080516020808d0282810182019093528c82529093508c92508b91829185019084908082843760009201919091525050604080516020601f8c018190048102820181019092528a815292508a91508990819084018382808284376000920191909152506106bc925061127a915050565b94939291906115b6565b5050505050505050565b6106e96106db6114f8565b6106e361173c565b9061176a565b6106f16117a9565b6106f96117e0565b61070161180e565b61070961183c565b61071161186a565b61072b8686868686610721611434565b9493929190611898565b61073d81610737611932565b90611960565b505050505050565b60606105a43083610754611434565b91906119d0565b6107746107666114f8565b61076e61173c565b90611a98565b6107c381610780611932565b9081547fffffffffffffffffffffffff00000000000000000000000000000000000000001673ffffffffffffffffffffffffffffffffffffffff91909116179055565b50565b6107ee6107d1611434565b6002015473ffffffffffffffffffffffffffffffffffffffff1690565b73ffffffffffffffffffffffffffffffffffffffff163373ffffffffffffffffffffffffffffffffffffffff1614610859576040517f220606710000000000000000000000000000000000000000000000000000000081523360048201526024015b60405180910390fd5b827f6bb7ff708619ba0610cba295a58592e0451dee2622938c8755667688daf3529b838360405161088b929190613bd2565b60405180910390a2505050565b6000806108af84846108a8611b03565b9190611b31565b915091505b9250929050565b60006108c56114f8565b90506108db818a6108d4611932565b9190611bdb565b6108fd818a8a8a8a8a8a8a8a6108ef61127a565b989796959493929190611c18565b505050505050505050565b60006109126114f8565b90506109208161076e61173c565b61093683838361092e611502565b929190611ea1565b505050565b60606109558585858561094c61127a565b93929190611f78565b95945050505050565b60006109686114f8565b90506109977f6d696e74657200000000000000000000000000000000000000000000000000008261060e611502565b61073d8187878787878080601f0160208091040260200160405190810160405280939291908181526020018383808284376000920191909152506109de925061127a915050565b9493929190612087565b6109f36107666114f8565b6107c3816109ff611b03565b90612165565b828114610a3e576040517f6582533600000000000000000000000000000000000000000000000000000000815260040160405180910390fd5b610a496107d1611434565b73ffffffffffffffffffffffffffffffffffffffff163373ffffffffffffffffffffffffffffffffffffffff1614610aaf576040517f22060671000000000000000000000000000000000000000000000000000000008152336004820152602401610850565b60005b83811015610b3657848482818110610acc57610acc613c1f565b905060200201357f6bb7ff708619ba0610cba295a58592e0451dee2622938c8755667688daf3529b848484818110610b0657610b06613c1f565b9050602002810190610b189190613c4e565b604051610b26929190613bd2565b60405180910390a2600101610ab2565b5050505050565b610b486107666114f8565b848381141580610b585750808214155b15610b8f576040517f6582533600000000000000000000000000000000000000000000000000000000815260040160405180910390fd5b60005b818110156106c657610c21888883818110610baf57610baf613c1f565b9050602002016020810190610bc491906136f1565b858584818110610bd657610bd6613c1f565b90506020020135888885818110610bef57610bef613c1f565b9050602002016020810190610c0491906136f1565b73ffffffffffffffffffffffffffffffffffffffff1691906121eb565b600101610b92565b6107c3610c346114f8565b82610c3d611502565b9190612278565b60006105d0610c5161173c565b5473ffffffffffffffffffffffffffffffffffffffff1690565b610c766107666114f8565b6107c381610c82611b03565b9061231c565b60006105a18383610c97611502565b60009283526020908152604080842073ffffffffffffffffffffffffffffffffffffffff909316845291905290205460ff1690565b60606105d0610cd9611434565b612369565b60006105d06107d1611434565b8015610d0357610d0382610cfd611932565b9061237a565b610d20610d0e6114f8565b8383610d1861127a565b929190612384565b5050565b60006105d0610c51611932565b610d3c6107666114f8565b848381141580610d4c5750808214155b15610d83576040517f6582533600000000000000000000000000000000000000000000000000000000815260040160405180910390fd5b60005b818110156106c6576000868683818110610da257610da2613c1f565b9050602002016020810190610db791906136f1565b6040517f01ffc9a70000000000000000000000000000000000000000000000000000000081527f80ac58cd00000000000000000000000000000000000000000000000000000000600482015290915073ffffffffffffffffffffffffffffffffffffffff8216906301ffc9a790602401602060405180830381865afa158015610e44573d6000803e3d6000fd5b505050506040513d601f19601f82011682018060405250810190610e689190613cb3565b610eb6576040517f986b9f1f00000000000000000000000000000000000000000000000000000000815273ffffffffffffffffffffffffffffffffffffffff82166004820152602401610850565b868683818110610ec857610ec8613c1f565b9050602002016020810190610edd91906136f1565b73ffffffffffffffffffffffffffffffffffffffff166342842e0e308b8b86818110610f0b57610f0b613c1f565b9050602002016020810190610f2091906136f1565b888887818110610f3257610f32613c1f565b6040517fffffffff0000000000000000000000000000000000000000000000000000000060e088901b16815273ffffffffffffffffffffffffffffffffffffffff958616600482015294909316602485015250602090910201356044820152606401600060405180830381600087803b158015610fae57600080fd5b505af1158015610fc2573d6000803e3d6000fd5b5050505050806001019050610d86565b6000610fdc6114f8565b9050610fea8161076e61173c565b610936838383610ff8611502565b92919061249c565b600061100a6114f8565b90506110397f6d696e74657200000000000000000000000000000000000000000000000000008261060e611502565b6108fd818a8a8080602002602001604051908101604052809392919081815260200183836020028082843760009201919091525050604080516020808e0282810182019093528d82529093508d92508c91829185019084908082843760009201919091525050604080516020808d0282810182019093528c82529093508c92508b91829185019084908082843760009201919091525050604080516020601f8c018190048102820181019092528a815292508a9150899081908401838280828437600092019190915250611110925061127a915050565b9493929190612566565b60006105a1838361112961127a565b919073ffffffffffffffffffffffffffffffffffffffff9182166000908152600193909301602090815260408085209290931684525290205460ff1690565b60006111726114f8565b905061118181886108d4611932565b61119f8188888888888861119361127a565b96959493929190612629565b50505050505050565b6107c36111b36114f8565b826111bc61173c565b91906127cc565b6111ce6107666114f8565b82818114611208576040517f6582533600000000000000000000000000000000000000000000000000000000815260040160405180910390fd5b60005b8181101561073d5761127284848381811061122857611228613c1f565b9050602002013587878481811061124157611241613c1f565b905060200201602081019061125691906136f1565b73ffffffffffffffffffffffffffffffffffffffff16906128e0565b60010161120b565b6000806105a460017f5ccf5846fa27a68fafc8e588671a68f5e67c2f9b56af4263806a4d71735e8613613cff565b600073ffffffffffffffffffffffffffffffffffffffff83166112f7576040517fca2434a500000000000000000000000000000000000000000000000000000000815260040160405180910390fd5b5060009081526020928352604080822073ffffffffffffffffffffffffffffffffffffffff9390931682529190925290205490565b6000806105a460017fca9d3e17f264b0f3984e2634e94adb37fa3e6a8103f06aeae6fa59e21c769f5e613cff565b60007c01000000000000000000000000000000000000000000000000000000007fffffffff000000000000000000000000000000000000000000000000000000008316016113aa575060006105a4565b7ffe003659000000000000000000000000000000000000000000000000000000007fffffffff000000000000000000000000000000000000000000000000000000008316016113fb575060016105a4565b507fffffffff00000000000000000000000000000000000000000000000000000000166000908152602091909152604090205460ff1690565b6000806105a460017f7ea68fd2dcf1c056b94db6a0a537aa80d26fa9ab1eacd85da1ba0b61b7e7a8a5613cff565b606081600001805461147390613d12565b80601f016020809104026020016040519081016040528092919081815260200182805461149f90613d12565b80156114ec5780601f106114c1576101008083540402835291602001916114ec565b820191906000526020600020905b8154815290600101906020018083116114cf57829003601f168201915b50505050509050919050565b60006105d0612996565b6000806105a460017fc8827d3282af6f37b64c3e9e6f3ac9df286ab0bb0fccd6f8661bf19adb368b23613cff565b60008281526020848152604080832073ffffffffffffffffffffffffffffffffffffffff8516845290915290205460ff16610936576040517f7aa728820000000000000000000000000000000000000000000000000000000081526004810183905273ffffffffffffffffffffffffffffffffffffffff82166024820152604401610850565b73ffffffffffffffffffffffffffffffffffffffff8416611603576040517f021149bd00000000000000000000000000000000000000000000000000000000815260040160405180910390fd5b82518251811461163f576040517f6582533600000000000000000000000000000000000000000000000000000000815260040160405180910390fd5b60005b8181101561169057611688888787848151811061166157611661613c1f565b602002602001015187858151811061167b5761167b613c1f565b6020026020010151612ae3565b600101611642565b508473ffffffffffffffffffffffffffffffffffffffff16600073ffffffffffffffffffffffffffffffffffffffff168773ffffffffffffffffffffffffffffffffffffffff167f4a39dc06d4c0dbc64b70af90fd698a233a518aa5d07e595d983b8c0526c8f7fb8787604051611708929190613d65565b60405180910390a473ffffffffffffffffffffffffffffffffffffffff85163b1561119f5761119f86600087878787612bb4565b6000806105a460017fc9ed16f33ab3a66c84bfd83099ccb2a8845871e2e1c1928f63797152f0fd54cd613cff565b61179f61179860017f5b388d90dc1312ba799f321972f13311234fa1163bcabec7cf66101c4876eb84613cff565b6001612cb2565b610d208282612cfe565b6117de7fd9b67a260000000000000000000000000000000000000000000000000000000060016117d761132c565b9190612db4565b565b6117de7f0e89341c0000000000000000000000000000000000000000000000000000000060016117d761132c565b6117de7f5190c92c0000000000000000000000000000000000000000000000000000000060016117d761132c565b6117de7fe8ab9ccc0000000000000000000000000000000000000000000000000000000060016117d761132c565b6117de7f2a55205a0000000000000000000000000000000000000000000000000000000060016117d761132c565b6118c661179860017f92f72593ca50a0096f68ee94e7000db40ed086164b695855e2250750b8bfaf59613cff565b856118d2858783613e00565b50600186016118e2838583613e00565b5060029590950180547fffffffffffffffffffffffff00000000000000000000000000000000000000001673ffffffffffffffffffffffffffffffffffffffff9096169590951790945550505050565b6000806105a460017f609b85bcafa81ecfaf3ff62cdde2c6c9082a68dbe4922f07399c706bdeb7cd31613cff565b61198e61179860017f2f02d396cb1be29636682c8684200b30a98554d3b74293aa4495cb5e1d252f6e613cff565b81547fffffffffffffffffffffffff00000000000000000000000000000000000000001673ffffffffffffffffffffffffffffffffffffffff91909116179055565b60028301546040517ff724dad700000000000000000000000000000000000000000000000000000000815273ffffffffffffffffffffffffffffffffffffffff848116600483015260248201849052606092169063f724dad790604401600060405180830381865afa158015611a4a573d6000803e3d6000fd5b505050506040513d6000823e601f3d9081017fffffffffffffffffffffffffffffffffffffffffffffffffffffffffffffffe0168201604052611a909190810190613f1a565b949350505050565b815473ffffffffffffffffffffffffffffffffffffffff828116911614610d20576040517f2ef4875e00000000000000000000000000000000000000000000000000000000815273ffffffffffffffffffffffffffffffffffffffff82166004820152602401610850565b6000806105a460017f2c0cf10337caabbd02dcf226f05f5fd19a0919a41a8df8958c39b80007826858613cff565b825473ffffffffffffffffffffffffffffffffffffffff8116906000907401000000000000000000000000000000000000000090046bffffffffffffffffffffffff16831580611b7f575080155b15611b8d5760009150611bd2565b620186a0841015611bb757620186a0611ba68286614003565b611bb0919061401a565b9150611bd2565b80611bc5620186a08661401a565b611bcf9190614003565b91505b50935093915050565b8073ffffffffffffffffffffffffffffffffffffffff168273ffffffffffffffffffffffffffffffffffffffff1614610936576109368383612e90565b73ffffffffffffffffffffffffffffffffffffffff8716611c65576040517fb5e8901500000000000000000000000000000000000000000000000000000000815260040160405180910390fd5b84838114611c9f576040517f6582533600000000000000000000000000000000000000000000000000000000815260040160405180910390fd5b611caa8b8a8c612fb7565b611d00576040517f05bbb9c400000000000000000000000000000000000000000000000000000000815273ffffffffffffffffffffffffffffffffffffffff808c1660048301528a166024820152604401610850565b60005b81811015611d5057611d488c8b8b8b8b86818110611d2357611d23613c1f565b905060200201358a8a87818110611d3c57611d3c613c1f565b9050602002013561302c565b600101611d03565b508773ffffffffffffffffffffffffffffffffffffffff168973ffffffffffffffffffffffffffffffffffffffff168b73ffffffffffffffffffffffffffffffffffffffff167f4a39dc06d4c0dbc64b70af90fd698a233a518aa5d07e595d983b8c0526c8f7fb8a8a8a8a604051611dcb94939291906140a0565b60405180910390a473ffffffffffffffffffffffffffffffffffffffff88163b15611e9457611e948a8a8a8a8a8080602002602001604051908101604052809392919081815260200183836020028082843760009201919091525050604080516020808e0282810182019093528d82529093508d92508c91829185019084908082843760009201919091525050604080516020601f8d018190048102820181019092528b815292508b91508a9081908401838280828437600092019190915250612bb492505050565b5050505050505050505050565b60008381526020858152604080832073ffffffffffffffffffffffffffffffffffffffff8616845290915290205460ff16611f725760008381526020858152604080832073ffffffffffffffffffffffffffffffffffffffff8681168086529184529382902080547fffffffffffffffffffffffffffffffffffffffffffffffffffffffffffffff00166001179055815187815292830152918316918101919091527f2f8788117e7eff1d82e926ec794901d17c78024a50270940304540a733656f0d906060015b60405180910390a15b50505050565b606083828114611fb4576040517f6582533600000000000000000000000000000000000000000000000000000000815260040160405180910390fd5b8467ffffffffffffffff811115611fcd57611fcd613d8a565b604051908082528060200260200182016040528015611ff6578160200160208202803683370190505b50915060005b8181101561207c5761205787878381811061201957612019613c1f565b905060200201602081019061202e91906136f1565b86868481811061204057612040613c1f565b905060200201358a6112a89092919063ffffffff16565b83828151811061206957612069613c1f565b6020908102919091010152600101611ffc565b505095945050505050565b73ffffffffffffffffffffffffffffffffffffffff84166120d4576040517f021149bd00000000000000000000000000000000000000000000000000000000815260040160405180910390fd5b6120e086858585612ae3565b604080518481526020810184905273ffffffffffffffffffffffffffffffffffffffff80871692600092918916917fc3d58168c5ae7397731d063d5bbf3d657854427343f4c083240f7aacaa2d0f62910160405180910390a473ffffffffffffffffffffffffffffffffffffffff84163b1561073d5761073d856000868686866131d9565b620186a08111156121a5576040517fac04040800000000000000000000000000000000000000000000000000000000815260048101829052602401610850565b81546bffffffffffffffffffffffff909116740100000000000000000000000000000000000000000273ffffffffffffffffffffffffffffffffffffffff909116179055565b6040805173ffffffffffffffffffffffffffffffffffffffff8416602482015260448082018490528251808303909101815260649091019091526020810180517bffffffffffffffffffffffffffffffffffffffffffffffffffffffff167fa9059cbb000000000000000000000000000000000000000000000000000000001790526109369084906132f7565b612283838284611530565b60008181526020848152604080832073ffffffffffffffffffffffffffffffffffffffff86168085529083529281902080547fffffffffffffffffffffffffffffffffffffffffffffffffffffffffffffff0016905580518481529182018390528101919091527ff6391f5c32d9c69d2a47ea670b442974b53935d1edc7fd64eb21e047a839171b9060600160405180910390a1505050565b73ffffffffffffffffffffffffffffffffffffffff811661198e576040517f16de0c8000000000000000000000000000000000000000000000000000000000815260040160405180910390fd5b606081600101805461147390613d12565b610d208282612e90565b8273ffffffffffffffffffffffffffffffffffffffff168273ffffffffffffffffffffffffffffffffffffffff1603612401576040517ffb0fdf6100000000000000000000000000000000000000000000000000000000815273ffffffffffffffffffffffffffffffffffffffff84166004820152602401610850565b73ffffffffffffffffffffffffffffffffffffffff838116600081815260018701602090815260408083209487168084529482529182902080547fffffffffffffffffffffffffffffffffffffffffffffffffffffffffffffff001686151590811790915591519182527f17307eab39ab6107e8899845ad3d59bd9653f200f220920489ca2b5937696c31910160405180910390a350505050565b60008381526020858152604080832073ffffffffffffffffffffffffffffffffffffffff8616845290915290205460ff1615611f725760008381526020858152604080832073ffffffffffffffffffffffffffffffffffffffff8681168086529184529382902080547fffffffffffffffffffffffffffffffffffffffffffffffffffffffffffffff00169055815187815292830152918316918101919091527ff6391f5c32d9c69d2a47ea670b442974b53935d1edc7fd64eb21e047a839171b90606001611f69565b8351835181141580612579575082518114155b156125b0576040517f6582533600000000000000000000000000000000000000000000000000000000815260040160405180910390fd5b60005b818110156106c657612621878783815181106125d1576125d1613c1f565b60200260200101518784815181106125eb576125eb613c1f565b602002602001015187858151811061260557612605613c1f565b6020026020010151878d6120879095949392919063ffffffff16565b6001016125b3565b73ffffffffffffffffffffffffffffffffffffffff8516612676576040517fb5e8901500000000000000000000000000000000000000000000000000000000815260040160405180910390fd5b612681888789612fb7565b6126d7576040517f05bbb9c400000000000000000000000000000000000000000000000000000000815273ffffffffffffffffffffffffffffffffffffffff808916600483015287166024820152604401610850565b6126e4888787878761302c565b8473ffffffffffffffffffffffffffffffffffffffff168673ffffffffffffffffffffffffffffffffffffffff168873ffffffffffffffffffffffffffffffffffffffff167fc3d58168c5ae7397731d063d5bbf3d657854427343f4c083240f7aacaa2d0f628787604051612763929190918252602082015260400190565b60405180910390a473ffffffffffffffffffffffffffffffffffffffff85163b156106c6576106c6878787878787878080601f0160208091040260200160405190810160405280939291908181526020018383808284376000920191909152506131d992505050565b825473ffffffffffffffffffffffffffffffffffffffff9081169083168114612839576040517f2ef4875e00000000000000000000000000000000000000000000000000000000815273ffffffffffffffffffffffffffffffffffffffff84166004820152602401610850565b8173ffffffffffffffffffffffffffffffffffffffff168173ffffffffffffffffffffffffffffffffffffffff1614611f725783547fffffffffffffffffffffffff00000000000000000000000000000000000000001673ffffffffffffffffffffffffffffffffffffffff8381169182178655604051908316907f8be0079c531659141344cd1fd0a4f28419497f9722a3daafe3b4186f6b6457e090600090a350505050565b80471015612923576040517fcf47918100000000000000000000000000000000000000000000000000000000815247600482015260248101829052604401610850565b6000808373ffffffffffffffffffffffffffffffffffffffff168360405160006040518083038185875af1925050503d806000811461297e576040519150601f19603f3d011682016040523d82523d6000602084013e612983565b606091505b509150915081611f7257611f728161339b565b6000333214806129a65750601836105b156129b057503390565b7fffffffffffffffffffffffffffffffffffffffffffffffffffffffffffffffec36013560601c7f000000000000000000000000000000000000000000000000000000000000000073ffffffffffffffffffffffffffffffffffffffff16331480612ad257506040517f019a202800000000000000000000000000000000000000000000000000000000815273ffffffffffffffffffffffffffffffffffffffff82811660048301523360248301523060448301527f0000000000000000000000000000000000000000000000000000000000000000169063019a202890606401602060405180830381865afa158015612aae573d6000803e3d6000fd5b505050506040513d601f19601f82011682018060405250810190612ad29190613cb3565b15612adc57919050565b3391505090565b8015611f725760008281526020858152604080832073ffffffffffffffffffffffffffffffffffffffff87168452909152902054818101818111612b80576040517f42fb00bc00000000000000000000000000000000000000000000000000000000815273ffffffffffffffffffffffffffffffffffffffff86166004820152602481018590526044810183905260648101849052608401610850565b60009384526020958652604080852073ffffffffffffffffffffffffffffffffffffffff9690961685529490955250502055565b6040517fbc197c81000000000000000000000000000000000000000000000000000000008082529073ffffffffffffffffffffffffffffffffffffffff86169063bc197c8190612c10908a908a908990899089906004016140d2565b6020604051808303816000875af1158015612c2f573d6000803e3d6000fd5b505050506040513d601f19601f82011682018060405250810190612c53919061414f565b7fffffffff00000000000000000000000000000000000000000000000000000000161461073d578383836040517fc287817e0000000000000000000000000000000000000000000000000000000081526004016108509392919061416c565b81548290828110612cf9576040517fbf0c18ec0000000000000000000000000000000000000000000000000000000081526004810182905260248101849052604401610850565b505550565b73ffffffffffffffffffffffffffffffffffffffff811615612d865781547fffffffffffffffffffffffff00000000000000000000000000000000000000001673ffffffffffffffffffffffffffffffffffffffff821690811783556040516000907f8be0079c531659141344cd1fd0a4f28419497f9722a3daafe3b4186f6b6457e0908290a35b610d207f7f5828d00000000000000000000000000000000000000000000000000000000060016117d761132c565b7c01000000000000000000000000000000000000000000000000000000007fffffffff00000000000000000000000000000000000000000000000000000000831601612e2c576040517f72c683bb00000000000000000000000000000000000000000000000000000000815260040160405180910390fd5b7fffffffff00000000000000000000000000000000000000000000000000000000919091166000908152602092909252604090912080547fffffffffffffffffffffffffffffffffffffffffffffffffffffffffffffff0016911515919091179055565b815473ffffffffffffffffffffffffffffffffffffffff168015801590612ece575060008173ffffffffffffffffffffffffffffffffffffffff163b115b15610936576040517fc617113400000000000000000000000000000000000000000000000000000000815230600482015273ffffffffffffffffffffffffffffffffffffffff838116602483015282169063c617113490604401602060405180830381865afa158015612f45573d6000803e3d6000fd5b505050506040513d601f19601f82011682018060405250810190612f699190613cb3565b610936576040517fede71dcc00000000000000000000000000000000000000000000000000000000815273ffffffffffffffffffffffffffffffffffffffff83166004820152602401610850565b60008173ffffffffffffffffffffffffffffffffffffffff168373ffffffffffffffffffffffffffffffffffffffff161480611a9057505073ffffffffffffffffffffffffffffffffffffffff9182166000908152600193909301602090815260408085209290931684525290205460ff1690565b8015610b365760008281526020868152604080832073ffffffffffffffffffffffffffffffffffffffff881684529091529020548181038181106130c9576040517f03dee4c500000000000000000000000000000000000000000000000000000000815273ffffffffffffffffffffffffffffffffffffffff87166004820152602481018590526044810183905260648101849052608401610850565b8473ffffffffffffffffffffffffffffffffffffffff168673ffffffffffffffffffffffffffffffffffffffff161461119f5760008481526020888152604080832073ffffffffffffffffffffffffffffffffffffffff89168452909152902054838101818111613193576040517f42fb00bc00000000000000000000000000000000000000000000000000000000815273ffffffffffffffffffffffffffffffffffffffff88166004820152602481018790526044810183905260648101869052608401610850565b600086815260208a8152604080832073ffffffffffffffffffffffffffffffffffffffff808d1685528184528285208890558b1684529091529020555050505050505050565b6040517ff23a6e61000000000000000000000000000000000000000000000000000000008082529073ffffffffffffffffffffffffffffffffffffffff86169063f23a6e6190613235908a908a908990899089906004016141b7565b6020604051808303816000875af1158015613254573d6000803e3d6000fd5b505050506040513d601f19601f82011682018060405250810190613278919061414f565b7fffffffff00000000000000000000000000000000000000000000000000000000161461073d576040517f40f39d3800000000000000000000000000000000000000000000000000000000815273ffffffffffffffffffffffffffffffffffffffff851660048201526024810184905260448101839052606401610850565b600080602060008451602086016000885af18061331a576040513d6000823e3d81fd5b50506000513d9150811561333257806001141561334c565b73ffffffffffffffffffffffffffffffffffffffff84163b155b15611f72576040517f5274afe700000000000000000000000000000000000000000000000000000000815273ffffffffffffffffffffffffffffffffffffffff85166004820152602401610850565b8051156133ab5780518082602001fd5b6040517fd6bda27500000000000000000000000000000000000000000000000000000000815260040160405180910390fd5b73ffffffffffffffffffffffffffffffffffffffff811681146107c357600080fd5b6000806040838503121561341257600080fd5b823561341d816133dd565b946020939093013593505050565b7fffffffff00000000000000000000000000000000000000000000000000000000811681146107c357600080fd5b60006020828403121561346b57600080fd5b81356134768161342b565b9392505050565b60005b83811015613498578181015183820152602001613480565b50506000910152565b600081518084526134b981602086016020860161347d565b601f017fffffffffffffffffffffffffffffffffffffffffffffffffffffffffffffffe0169290920160200192915050565b6020815260006105a160208301846134a1565b60008083601f84011261351057600080fd5b50813567ffffffffffffffff81111561352857600080fd5b6020830191508360208260051b85010111156108b457600080fd5b60008083601f84011261355557600080fd5b50813567ffffffffffffffff81111561356d57600080fd5b6020830191508360208285010111156108b457600080fd5b60008060008060008060006080888a0312156135a057600080fd5b87356135ab816133dd565b9650602088013567ffffffffffffffff8111156135c757600080fd5b6135d38a828b016134fe565b909750955050604088013567ffffffffffffffff8111156135f357600080fd5b6135ff8a828b016134fe565b909550935050606088013567ffffffffffffffff81111561361f57600080fd5b61362b8a828b01613543565b989b979a50959850939692959293505050565b6000806000806000806080878903121561365757600080fd5b863567ffffffffffffffff81111561366e57600080fd5b61367a89828a01613543565b909750955050602087013567ffffffffffffffff81111561369a57600080fd5b6136a689828a01613543565b90955093505060408701356136ba816133dd565b915060608701356136ca816133dd565b809150509295509295509295565b6000602082840312156136ea57600080fd5b5035919050565b60006020828403121561370357600080fd5b8135613476816133dd565b60008060006040848603121561372357600080fd5b83359250602084013567ffffffffffffffff81111561374157600080fd5b61374d86828701613543565b9497909650939450505050565b6000806040838503121561376d57600080fd5b50508035926020909101359150565b60008060008060008060008060a0898b03121561379857600080fd5b88356137a3816133dd565b975060208901356137b3816133dd565b9650604089013567ffffffffffffffff8111156137cf57600080fd5b6137db8b828c016134fe565b909750955050606089013567ffffffffffffffff8111156137fb57600080fd5b6138078b828c016134fe565b909550935050608089013567ffffffffffffffff81111561382757600080fd5b6138338b828c01613543565b999c989b5096995094979396929594505050565b6000806040838503121561385a57600080fd5b82359150602083013561386c816133dd565b809150509250929050565b6000806000806040858703121561388d57600080fd5b843567ffffffffffffffff8111156138a457600080fd5b6138b0878288016134fe565b909550935050602085013567ffffffffffffffff8111156138d057600080fd5b6138dc878288016134fe565b95989497509550505050565b600081518084526020840193506020830160005b8281101561391a5781518652602095860195909101906001016138fc565b5093949350505050565b6020815260006105a160208301846138e8565b60008060008060006080868803121561394f57600080fd5b853561395a816133dd565b94506020860135935060408601359250606086013567ffffffffffffffff81111561398457600080fd5b61399088828901613543565b969995985093965092949392505050565b600080600080600080606087890312156139ba57600080fd5b863567ffffffffffffffff8111156139d157600080fd5b6139dd89828a016134fe565b909750955050602087013567ffffffffffffffff8111156139fd57600080fd5b613a0989828a016134fe565b909550935050604087013567ffffffffffffffff811115613a2957600080fd5b613a3589828a016134fe565b979a9699509497509295939492505050565b80151581146107c357600080fd5b60008060408385031215613a6857600080fd5b8235613a73816133dd565b9150602083013561386c81613a47565b6000806000806000806000806080898b031215613a9f57600080fd5b883567ffffffffffffffff811115613ab657600080fd5b613ac28b828c016134fe565b909950975050602089013567ffffffffffffffff811115613ae257600080fd5b613aee8b828c016134fe565b909750955050604089013567ffffffffffffffff811115613b0e57600080fd5b613b1a8b828c016134fe565b909550935050606089013567ffffffffffffffff81111561382757600080fd5b60008060408385031215613b4d57600080fd5b8235613b58816133dd565b9150602083013561386c816133dd565b60008060008060008060a08789031215613b8157600080fd5b8635613b8c816133dd565b95506020870135613b9c816133dd565b94506040870135935060608701359250608087013567ffffffffffffffff811115613bc657600080fd5b613a3589828a01613543565b60208152816020820152818360408301376000818301604090810191909152601f9092017fffffffffffffffffffffffffffffffffffffffffffffffffffffffffffffffe0160101919050565b7f4e487b7100000000000000000000000000000000000000000000000000000000600052603260045260246000fd5b60008083357fffffffffffffffffffffffffffffffffffffffffffffffffffffffffffffffe1843603018112613c8357600080fd5b83018035915067ffffffffffffffff821115613c9e57600080fd5b6020019150368190038213156108b457600080fd5b600060208284031215613cc557600080fd5b815161347681613a47565b7f4e487b7100000000000000000000000000000000000000000000000000000000600052601160045260246000fd5b818103818111156105a4576105a4613cd0565b600181811c90821680613d2657607f821691505b602082108103613d5f577f4e487b7100000000000000000000000000000000000000000000000000000000600052602260045260246000fd5b50919050565b604081526000613d7860408301856138e8565b828103602084015261095581856138e8565b7f4e487b7100000000000000000000000000000000000000000000000000000000600052604160045260246000fd5b601f82111561093657806000526020600020601f840160051c81016020851015613de05750805b601f840160051c820191505b81811015610b365760008155600101613dec565b67ffffffffffffffff831115613e1857613e18613d8a565b613e2c83613e268354613d12565b83613db9565b6000601f841160018114613e7e5760008515613e485750838201355b7fffffffffffffffffffffffffffffffffffffffffffffffffffffffffffffffff600387901b1c1916600186901b178355610b36565b6000838152602090207fffffffffffffffffffffffffffffffffffffffffffffffffffffffffffffffe0861690835b82811015613ecd5786850135825560209485019460019092019101613ead565b5086821015613f08577fffffffffffffffffffffffffffffffffffffffffffffffffffffffffffffffff60f88860031b161c19848701351681555b505060018560011b0183555050505050565b600060208284031215613f2c57600080fd5b815167ffffffffffffffff811115613f4357600080fd5b8201601f81018413613f5457600080fd5b805167ffffffffffffffff811115613f6e57613f6e613d8a565b6040517fffffffffffffffffffffffffffffffffffffffffffffffffffffffffffffffe0603f7fffffffffffffffffffffffffffffffffffffffffffffffffffffffffffffffe0601f8501160116810181811067ffffffffffffffff82111715613fda57613fda613d8a565b604052818152828201602001861015613ff257600080fd5b61095582602083016020860161347d565b80820281158282048414176105a4576105a4613cd0565b600082614050577f4e487b7100000000000000000000000000000000000000000000000000000000600052601260045260246000fd5b500490565b81835260007f07ffffffffffffffffffffffffffffffffffffffffffffffffffffffffffffff83111561408757600080fd5b8260051b80836020870137939093016020019392505050565b6040815260006140b4604083018688614055565b82810360208401526140c7818587614055565b979650505050505050565b73ffffffffffffffffffffffffffffffffffffffff8616815273ffffffffffffffffffffffffffffffffffffffff8516602082015260a06040820152600061411d60a08301866138e8565b828103606084015261412f81866138e8565b9050828103608084015261414381856134a1565b98975050505050505050565b60006020828403121561416157600080fd5b81516134768161342b565b73ffffffffffffffffffffffffffffffffffffffff8416815260606020820152600061419b60608301856138e8565b82810360408401526141ad81856138e8565b9695505050505050565b73ffffffffffffffffffffffffffffffffffffffff8616815273ffffffffffffffffffffffffffffffffffffffff8516602082015283604082015282606082015260a0608082015260006140c760a08301846134a156fea2646970667358221220923ae7ce65a15313b02db732e30c46691d7d1a1c69c714e9e7ac0302c5c1b74064736f6c634300081c0033",
  "linkReferences": {},
  "deployedLinkReferences": {}
}