{
  "_format": "hh-sol-artifact-1",
  "contractName": "ERC1155FullProxied",
  "sourceName": "contracts/token/ERC1155/preset/proxied/ERC1155FullProxied.sol",
  "abi": [
    {
      "inputs": [
        {
          "internalType": "contract IForwarderRegistry",
          "name": "forwarderRegistry",
          "type": "address"
        }
      ],
      "stateMutability": "nonpayable",
      "type": "constructor"
    },
    {
      "inputs": [],
      "name": "ERC1155BalanceOfAddressZero",
      "type": "error"
    },
    {
      "inputs": [
        {
          "internalType": "address",
          "name": "recipient",
          "type": "address"
        },
        {
          "internalType": "uint256",
          "name": "id",
          "type": "uint256"
        },
        {
          "internalType": "uint256",
          "name": "balance",
          "type": "uint256"
        },
        {
          "internalType": "uint256",
          "name": "value",
          "type": "uint256"
        }
      ],
      "name": "ERC1155BalanceOverflow",
      "type": "error"
    },
    {
      "inputs": [
        {
          "internalType": "address",
          "name": "owner",
          "type": "address"
        },
        {
          "internalType": "uint256",
          "name": "id",
          "type": "uint256"
        },
        {
          "internalType": "uint256",
          "name": "balance",
          "type": "uint256"
        },
        {
          "internalType": "uint256",
          "name": "value",
          "type": "uint256"
        }
      ],
      "name": "ERC1155InsufficientBalance",
      "type": "error"
    },
    {
      "inputs": [],
      "name": "ERC1155MintToAddressZero",
      "type": "error"
    },
    {
      "inputs": [
        {
          "internalType": "address",
          "name": "sender",
          "type": "address"
        },
        {
          "internalType": "address",
          "name": "owner",
          "type": "address"
        }
      ],
      "name": "ERC1155NonApproved",
      "type": "error"
    },
    {
      "inputs": [
        {
          "internalType": "address",
          "name": "recipient",
          "type": "address"
        },
        {
          "internalType": "uint256[]",
          "name": "ids",
          "type": "uint256[]"
        },
        {
          "internalType": "uint256[]",
          "name": "values",
          "type": "uint256[]"
        }
      ],
      "name": "ERC1155SafeBatchTransferRejected",
      "type": "error"
    },
    {
      "inputs": [
        {
          "internalType": "address",
          "name": "recipient",
          "type": "address"
        },
        {
          "internalType": "uint256",
          "name": "id",
          "type": "uint256"
        },
        {
          "internalType": "uint256",
          "name": "value",
          "type": "uint256"
        }
      ],
      "name": "ERC1155SafeTransferRejected",
      "type": "error"
    },
    {
      "inputs": [
        {
          "internalType": "address",
          "name": "account",
          "type": "address"
        }
      ],
      "name": "ERC1155SelfApprovalForAll",
      "type": "error"
    },
    {
      "inputs": [],
      "name": "ERC1155TransferToAddressZero",
      "type": "error"
    },
    {
      "inputs": [
        {
          "internalType": "uint256",
          "name": "percentage",
          "type": "uint256"
        }
      ],
      "name": "ERC2981IncorrectRoyaltyPercentage",
      "type": "error"
    },
    {
      "inputs": [],
      "name": "ERC2981IncorrectRoyaltyReceiver",
      "type": "error"
    },
    {
      "inputs": [],
      "name": "FailedCall",
      "type": "error"
    },
    {
      "inputs": [],
      "name": "IllegalInterfaceId",
      "type": "error"
    },
    {
      "inputs": [],
      "name": "InconsistentArrayLengths",
      "type": "error"
    },
    {
      "inputs": [
        {
          "internalType": "address",
          "name": "tokenContract",
          "type": "address"
        }
      ],
      "name": "IncorrectTokenContractType",
      "type": "error"
    },
    {
      "inputs": [
        {
          "internalType": "uint256",
          "name": "currentPhase",
          "type": "uint256"
        },
        {
          "internalType": "uint256",
          "name": "newPhase",
          "type": "uint256"
        }
      ],
      "name": "InitializationPhaseAlreadyReached",
      "type": "error"
    },
    {
      "inputs": [
        {
          "internalType": "uint256",
          "name": "balance",
          "type": "uint256"
        },
        {
          "internalType": "uint256",
          "name": "needed",
          "type": "uint256"
        }
      ],
      "name": "InsufficientBalance",
      "type": "error"
    },
    {
      "inputs": [
        {
          "internalType": "address",
          "name": "account",
          "type": "address"
        }
      ],
      "name": "NotContractOwner",
      "type": "error"
    },
    {
      "inputs": [
        {
          "internalType": "address",
          "name": "account",
          "type": "address"
        }
      ],
      "name": "NotMetadataResolver",
      "type": "error"
    },
    {
      "inputs": [
        {
          "internalType": "bytes32",
          "name": "role",
          "type": "bytes32"
        },
        {
          "internalType": "address",
          "name": "account",
          "type": "address"
        }
      ],
      "name": "NotRoleHolder",
      "type": "error"
    },
    {
      "inputs": [
        {
          "internalType": "address",
          "name": "operator",
          "type": "address"
        }
      ],
      "name": "OperatorNotAllowed",
      "type": "error"
    },
    {
      "inputs": [
        {
          "internalType": "address",
          "name": "token",
          "type": "address"
        }
      ],
      "name": "SafeERC20FailedOperation",
      "type": "error"
    },
    {
      "anonymous": false,
      "inputs": [
        {
          "indexed": true,
          "internalType": "address",
          "name": "owner",
          "type": "address"
        },
        {
          "indexed": true,
          "internalType": "address",
          "name": "operator",
          "type": "address"
        },
        {
          "indexed": false,
          "internalType": "bool",
          "name": "approved",
          "type": "bool"
        }
      ],
      "name": "ApprovalForAll",
      "type": "event"
    },
    {
      "anonymous": false,
      "inputs": [
        {
          "indexed": true,
          "internalType": "address",
          "name": "previousOwner",
          "type": "address"
        },
        {
          "indexed": true,
          "internalType": "address",
          "name": "newOwner",
          "type": "address"
        }
      ],
      "name": "OwnershipTransferred",
      "type": "event"
    },
    {
      "anonymous": false,
      "inputs": [
        {
          "indexed": false,
          "internalType": "bytes32",
          "name": "role",
          "type": "bytes32"
        },
        {
          "indexed": false,
          "internalType": "address",
          "name": "account",
          "type": "address"
        },
        {
          "indexed": false,
          "internalType": "address",
          "name": "operator",
          "type": "address"
        }
      ],
      "name": "RoleGranted",
      "type": "event"
    },
    {
      "anonymous": false,
      "inputs": [
        {
          "indexed": false,
          "internalType": "bytes32",
          "name": "role",
          "type": "bytes32"
        },
        {
          "indexed": false,
          "internalType": "address",
          "name": "account",
          "type": "address"
        },
        {
          "indexed": false,
          "internalType": "address",
          "name": "operator",
          "type": "address"
        }
      ],
      "name": "RoleRevoked",
      "type": "event"
    },
    {
      "anonymous": false,
      "inputs": [
        {
          "indexed": true,
          "internalType": "address",
          "name": "operator",
          "type": "address"
        },
        {
          "indexed": true,
          "internalType": "address",
          "name": "from",
          "type": "address"
        },
        {
          "indexed": true,
          "internalType": "address",
          "name": "to",
          "type": "address"
        },
        {
          "indexed": false,
          "internalType": "uint256[]",
          "name": "ids",
          "type": "uint256[]"
        },
        {
          "indexed": false,
          "internalType": "uint256[]",
          "name": "values",
          "type": "uint256[]"
        }
      ],
      "name": "TransferBatch",
      "type": "event"
    },
    {
      "anonymous": false,
      "inputs": [
        {
          "indexed": true,
          "internalType": "address",
          "name": "operator",
          "type": "address"
        },
        {
          "indexed": true,
          "internalType": "address",
          "name": "from",
          "type": "address"
        },
        {
          "indexed": true,
          "internalType": "address",
          "name": "to",
          "type": "address"
        },
        {
          "indexed": false,
          "internalType": "uint256",
          "name": "id",
          "type": "uint256"
        },
        {
          "indexed": false,
          "internalType": "uint256",
          "name": "value",
          "type": "uint256"
        }
      ],
      "name": "TransferSingle",
      "type": "event"
    },
    {
      "anonymous": false,
      "inputs": [
        {
          "indexed": false,
          "internalType": "string",
          "name": "value",
          "type": "string"
        },
        {
          "indexed": true,
          "internalType": "uint256",
          "name": "id",
          "type": "uint256"
        }
      ],
      "name": "URI",
      "type": "event"
    },
    {
      "inputs": [],
      "name": "MINTER_ROLE",
      "outputs": [
        {
          "internalType": "bytes32",
          "name": "",
          "type": "bytes32"
        }
      ],
      "stateMutability": "view",
      "type": "function"
    },
    {
      "inputs": [],
      "name": "ROYALTY_FEE_DENOMINATOR",
      "outputs": [
        {
          "internalType": "uint256",
          "name": "",
          "type": "uint256"
        }
      ],
      "stateMutability": "view",
      "type": "function"
    },
    {
      "inputs": [
        {
          "internalType": "address",
          "name": "owner",
          "type": "address"
        },
        {
          "internalType": "uint256",
          "name": "id",
          "type": "uint256"
        }
      ],
      "name": "balanceOf",
      "outputs": [
        {
          "internalType": "uint256",
          "name": "balance",
          "type": "uint256"
        }
      ],
      "stateMutability": "view",
      "type": "function"
    },
    {
      "inputs": [
        {
          "internalType": "address[]",
          "name": "owners",
          "type": "address[]"
        },
        {
          "internalType": "uint256[]",
          "name": "ids",
          "type": "uint256[]"
        }
      ],
      "name": "balanceOfBatch",
      "outputs": [
        {
          "internalType": "uint256[]",
          "name": "balances",
          "type": "uint256[]"
        }
      ],
      "stateMutability": "view",
      "type": "function"
    },
    {
      "inputs": [
        {
          "internalType": "uint256[]",
          "name": "tokenIds",
          "type": "uint256[]"
        },
        {
          "internalType": "string[]",
          "name": "tokenURIs",
          "type": "string[]"
        }
      ],
      "name": "batchSetTokenURI",
      "outputs": [],
      "stateMutability": "nonpayable",
      "type": "function"
    },
    {
      "inputs": [],
      "name": "forwarderRegistry",
      "outputs": [
        {
          "internalType": "contract IForwarderRegistry",
          "name": "",
          "type": "address"
        }
      ],
      "stateMutability": "view",
      "type": "function"
    },
    {
      "inputs": [
        {
          "internalType": "bytes32",
          "name": "role",
          "type": "bytes32"
        },
        {
          "internalType": "address",
          "name": "account",
          "type": "address"
        }
      ],
      "name": "grantRole",
      "outputs": [],
      "stateMutability": "nonpayable",
      "type": "function"
    },
    {
      "inputs": [
        {
          "internalType": "bytes32",
          "name": "role",
          "type": "bytes32"
        },
        {
          "internalType": "address",
          "name": "account",
          "type": "address"
        }
      ],
      "name": "hasRole",
      "outputs": [
        {
          "internalType": "bool",
          "name": "hasRole_",
          "type": "bool"
        }
      ],
      "stateMutability": "view",
      "type": "function"
    },
    {
      "inputs": [
        {
          "internalType": "string",
          "name": "tokenName",
          "type": "string"
        },
        {
          "internalType": "string",
          "name": "tokenSymbol",
          "type": "string"
        },
        {
          "internalType": "contract ITokenMetadataResolver",
          "name": "metadataResolver",
          "type": "address"
        },
        {
          "internalType": "contract IOperatorFilterRegistry",
          "name": "filterRegistry",
          "type": "address"
        }
      ],
      "name": "init",
      "outputs": [],
      "stateMutability": "nonpayable",
      "type": "function"
    },
    {
      "inputs": [
        {
          "internalType": "address",
          "name": "owner",
          "type": "address"
        },
        {
          "internalType": "address",
          "name": "operator",
          "type": "address"
        }
      ],
      "name": "isApprovedForAll",
      "outputs": [
        {
          "internalType": "bool",
          "name": "approvedForAll",
          "type": "bool"
        }
      ],
      "stateMutability": "view",
      "type": "function"
    },
    {
      "inputs": [
        {
          "internalType": "address",
          "name": "forwarder",
          "type": "address"
        }
      ],
      "name": "isTrustedForwarder",
      "outputs": [
        {
          "internalType": "bool",
          "name": "",
          "type": "bool"
        }
      ],
      "stateMutability": "view",
      "type": "function"
    },
    {
      "inputs": [],
      "name": "metadataResolver",
      "outputs": [
        {
          "internalType": "contract ITokenMetadataResolver",
          "name": "tokenMetadataResolver",
          "type": "address"
        }
      ],
      "stateMutability": "view",
      "type": "function"
    },
    {
      "inputs": [],
      "name": "name",
      "outputs": [
        {
          "internalType": "string",
          "name": "tokenName",
          "type": "string"
        }
      ],
      "stateMutability": "view",
      "type": "function"
    },
    {
      "inputs": [],
      "name": "operatorFilterRegistry",
      "outputs": [
        {
          "internalType": "contract IOperatorFilterRegistry",
          "name": "",
          "type": "address"
        }
      ],
      "stateMutability": "view",
      "type": "function"
    },
    {
      "inputs": [],
      "name": "owner",
      "outputs": [
        {
          "internalType": "address",
          "name": "",
          "type": "address"
        }
      ],
      "stateMutability": "view",
      "type": "function"
    },
    {
      "inputs": [
        {
          "internalType": "address[]",
          "name": "accounts",
          "type": "address[]"
        },
        {
          "internalType": "contract IERC20[]",
          "name": "tokens",
          "type": "address[]"
        },
        {
          "internalType": "uint256[]",
          "name": "amounts",
          "type": "uint256[]"
        }
      ],
      "name": "recoverERC20s",
      "outputs": [],
      "stateMutability": "nonpayable",
      "type": "function"
    },
    {
      "inputs": [
        {
          "internalType": "address[]",
          "name": "accounts",
          "type": "address[]"
        },
        {
          "internalType": "contract IERC721[]",
          "name": "contracts",
          "type": "address[]"
        },
        {
          "internalType": "uint256[]",
          "name": "tokenIds",
          "type": "uint256[]"
        }
      ],
      "name": "recoverERC721s",
      "outputs": [],
      "stateMutability": "nonpayable",
      "type": "function"
    },
    {
      "inputs": [
        {
          "internalType": "address payable[]",
          "name": "accounts",
          "type": "address[]"
        },
        {
          "internalType": "uint256[]",
          "name": "amounts",
          "type": "uint256[]"
        }
      ],
      "name": "recoverETH",
      "outputs": [],
      "stateMutability": "nonpayable",
      "type": "function"
    },
    {
      "inputs": [
        {
          "internalType": "bytes32",
          "name": "role",
          "type": "bytes32"
        }
      ],
      "name": "renounceRole",
      "outputs": [],
      "stateMutability": "nonpayable",
      "type": "function"
    },
    {
      "inputs": [
        {
          "internalType": "bytes32",
          "name": "role",
          "type": "bytes32"
        },
        {
          "internalType": "address",
          "name": "account",
          "type": "address"
        }
      ],
      "name": "revokeRole",
      "outputs": [],
      "stateMutability": "nonpayable",
      "type": "function"
    },
    {
      "inputs": [
        {
          "internalType": "uint256",
          "name": "tokenId",
          "type": "uint256"
        },
        {
          "internalType": "uint256",
          "name": "salePrice",
          "type": "uint256"
        }
      ],
      "name": "royaltyInfo",
      "outputs": [
        {
          "internalType": "address",
          "name": "receiver",
          "type": "address"
        },
        {
          "internalType": "uint256",
          "name": "royaltyAmount",
          "type": "uint256"
        }
      ],
      "stateMutability": "view",
      "type": "function"
    },
    {
      "inputs": [
        {
          "internalType": "address",
          "name": "to",
          "type": "address"
        },
        {
          "internalType": "uint256[]",
          "name": "ids",
          "type": "uint256[]"
        },
        {
          "internalType": "uint256[]",
          "name": "values",
          "type": "uint256[]"
        },
        {
          "internalType": "bytes",
          "name": "data",
          "type": "bytes"
        }
      ],
      "name": "safeBatchMint",
      "outputs": [],
      "stateMutability": "nonpayable",
      "type": "function"
    },
    {
      "inputs": [
        {
          "internalType": "address",
          "name": "from",
          "type": "address"
        },
        {
          "internalType": "address",
          "name": "to",
          "type": "address"
        },
        {
          "internalType": "uint256[]",
          "name": "ids",
          "type": "uint256[]"
        },
        {
          "internalType": "uint256[]",
          "name": "values",
          "type": "uint256[]"
        },
        {
          "internalType": "bytes",
          "name": "data",
          "type": "bytes"
        }
      ],
      "name": "safeBatchTransferFrom",
      "outputs": [],
      "stateMutability": "nonpayable",
      "type": "function"
    },
    {
      "inputs": [
        {
          "internalType": "address[]",
          "name": "recipients",
          "type": "address[]"
        },
        {
          "internalType": "uint256[]",
          "name": "ids",
          "type": "uint256[]"
        },
        {
          "internalType": "uint256[]",
          "name": "values",
          "type": "uint256[]"
        },
        {
          "internalType": "bytes",
          "name": "data",
          "type": "bytes"
        }
      ],
      "name": "safeDeliver",
      "outputs": [],
      "stateMutability": "nonpayable",
      "type": "function"
    },
    {
      "inputs": [
        {
          "internalType": "address",
          "name": "to",
          "type": "address"
        },
        {
          "internalType": "uint256",
          "name": "id",
          "type": "uint256"
        },
        {
          "internalType": "uint256",
          "name": "value",
          "type": "uint256"
        },
        {
          "internalType": "bytes",
          "name": "data",
          "type": "bytes"
        }
      ],
      "name": "safeMint",
      "outputs": [],
      "stateMutability": "nonpayable",
      "type": "function"
    },
    {
      "inputs": [
        {
          "internalType": "address",
          "name": "from",
          "type": "address"
        },
        {
          "internalType": "address",
          "name": "to",
          "type": "address"
        },
        {
          "internalType": "uint256",
          "name": "id",
          "type": "uint256"
        },
        {
          "internalType": "uint256",
          "name": "value",
          "type": "uint256"
        },
        {
          "internalType": "bytes",
          "name": "data",
          "type": "bytes"
        }
      ],
      "name": "safeTransferFrom",
      "outputs": [],
      "stateMutability": "nonpayable",
      "type": "function"
    },
    {
      "inputs": [
        {
          "internalType": "address",
          "name": "operator",
          "type": "address"
        },
        {
          "internalType": "bool",
          "name": "approved",
          "type": "bool"
        }
      ],
      "name": "setApprovalForAll",
      "outputs": [],
      "stateMutability": "nonpayable",
      "type": "function"
    },
    {
      "inputs": [
        {
          "internalType": "uint256",
          "name": "percentage",
          "type": "uint256"
        }
      ],
      "name": "setRoyaltyPercentage",
      "outputs": [],
      "stateMutability": "nonpayable",
      "type": "function"
    },
    {
      "inputs": [
        {
          "internalType": "address",
          "name": "receiver",
          "type": "address"
        }
      ],
      "name": "setRoyaltyReceiver",
      "outputs": [],
      "stateMutability": "nonpayable",
      "type": "function"
    },
    {
      "inputs": [
        {
          "internalType": "uint256",
          "name": "tokenId",
          "type": "uint256"
        },
        {
          "internalType": "string",
          "name": "tokenURI",
          "type": "string"
        }
      ],
      "name": "setTokenURI",
      "outputs": [],
      "stateMutability": "nonpayable",
      "type": "function"
    },
    {
      "inputs": [
        {
          "internalType": "bytes4",
          "name": "interfaceId",
          "type": "bytes4"
        }
      ],
      "name": "supportsInterface",
      "outputs": [
        {
          "internalType": "bool",
          "name": "",
          "type": "bool"
        }
      ],
      "stateMutability": "view",
      "type": "function"
    },
    {
      "inputs": [],
      "name": "symbol",
      "outputs": [
        {
          "internalType": "string",
          "name": "tokenSymbol",
          "type": "string"
        }
      ],
      "stateMutability": "view",
      "type": "function"
    },
    {
      "inputs": [
        {
          "internalType": "address",
          "name": "newOwner",
          "type": "address"
        }
      ],
      "name": "transferOwnership",
      "outputs": [],
      "stateMutability": "nonpayable",
      "type": "function"
    },
    {
      "inputs": [
        {
          "internalType": "contract IOperatorFilterRegistry",
          "name": "registry",
          "type": "address"
        }
      ],
      "name": "updateOperatorFilterRegistry",
      "outputs": [],
      "stateMutability": "nonpayable",
      "type": "function"
    },
    {
      "inputs": [
        {
          "internalType": "uint256",
          "name": "tokenId",
          "type": "uint256"
        }
      ],
      "name": "uri",
      "outputs": [
        {
          "internalType": "string",
          "name": "metadataURI",
          "type": "string"
        }
      ],
      "stateMutability": "view",
      "type": "function"
    }
  ],
  "bytecode": "0x60a060405234801561001057600080fd5b5060405161431138038061431183398101604081905261002f91610040565b6001600160a01b0316608052610070565b60006020828403121561005257600080fd5b81516001600160a01b038116811461006957600080fd5b9392505050565b6080516142716100a060003960008181610345015281816103e0015281816128c3015261295101526142716000f3fe608060405234801561001057600080fd5b50600436106102405760003560e01c806373c8a95811610145578063c3666c36116100bd578063e8ab9ccc1161008c578063f242432a11610071578063f242432a14610552578063f2fde38b14610565578063f7ba94bd1461057857600080fd5b8063e8ab9ccc1461052c578063e985e9c51461053f57600080fd5b8063c3666c36146104d5578063d5391393146104e8578063d547741f1461050f578063e1a8bf2c1461052257600080fd5b806391d1485411610114578063a0c76f62116100f9578063a0c76f62146104b2578063a22cb465146104ba578063b0ccc31e146104cd57600080fd5b806391d148541461049757806395d89b41146104aa57600080fd5b806373c8a958146104565780638bb9c5bf146104695780638da5cb5b1461047c5780638dc251e31461048457600080fd5b80632a55205a116101d85780634e1273f4116101a75780635cfa92971161018c5780635cfa92971461041d57806361ba27da146104305780636706467b1461044357600080fd5b80634e1273f4146103b0578063572b6c05146103d057600080fd5b80632a55205a146103045780632b4c9f16146103435780632eb2c2d61461038a5780632f2ff15d1461039d57600080fd5b80630e07f854116102145780630e07f854146102b85780630e89341c146102cb578063114ba8ee146102de578063162094c4146102f157600080fd5b8062fdd58e1461024557806301ffc9a71461026b57806306fdde031461028e5780630d6a5bbb146102a3575b600080fd5b61025861025336600461342c565b61058b565b6040519081526020015b60405180910390f35b61027e610279366004613486565b6105aa565b6040519015158152602001610262565b6102966105be565b6040516102629190613518565b6102b66102b13660046135b2565b6105d5565b005b6102b66102c636600461366b565b6106d0565b6102966102d9366004613705565b610745565b6102b66102ec36600461371e565b61075b565b6102b66102ff36600461373b565b6107c6565b610317610312366004613787565b610898565b6040805173ffffffffffffffffffffffffffffffffffffffff9093168352602083019190915201610262565b7f00000000000000000000000000000000000000000000000000000000000000005b60405173ffffffffffffffffffffffffffffffffffffffff9091168152602001610262565b6102b66103983660046137a9565b6108bb565b6102b66103ab366004613874565b610908565b6103c36103be3660046138a4565b61093b565b6040516102629190613951565b61027e6103de36600461371e565b7f000000000000000000000000000000000000000000000000000000000000000073ffffffffffffffffffffffffffffffffffffffff90811691161490565b6102b661042b366004613964565b61095e565b6102b661043e366004613705565b6109e8565b6102b66104513660046138a4565b610a05565b6102b66104643660046139ce565b610b3d565b6102b6610477366004613705565b610b56565b610365610b71565b6102b661049236600461371e565b610b98565b61027e6104a5366004613874565b610bb5565b610296610bf9565b610365610c0b565b6102b66104c8366004613a82565b610c18565b610365610c51565b6102b66104e33660046139ce565b610c5e565b6102587f6d696e746572000000000000000000000000000000000000000000000000000081565b6102b661051d366004613874565b610c77565b610258620186a081565b6102b661053a366004613ab0565b610ca5565b61027e61054d366004613b67565b610dbf565b6102b6610560366004613b95565b610e0d565b6102b661057336600461371e565b610e4d565b6102b66105863660046138a4565b610e68565b60006105a1838361059a610e85565b9190610eb3565b90505b92915050565b60006105a4826105b8610f37565b90610f65565b60606105d06105cb61103f565b61106d565b905090565b60006105df611103565b90506106157f6d696e74657200000000000000000000000000000000000000000000000000008261060e61110d565b919061113b565b6106c6818989898080602002602001604051908101604052809392919081815260200183836020028082843760009201919091525050604080516020808d0282810182019093528c82529093508c92508b91829185019084908082843760009201919091525050604080516020601f8c018190048102820181019092528a815292508a91508990819084018382808284376000920191909152506106bc9250610e85915050565b94939291906111c1565b5050505050505050565b6106e96106db611103565b6106e3611347565b90611375565b6106f16113b4565b6106f96113eb565b610701611419565b610709611447565b610711611475565b61072b868686868661072161103f565b94939291906114a3565b61073d8161073761153d565b9061156b565b505050505050565b60606105a4308361075461103f565b91906115db565b610774610766611103565b61076e611347565b906116a3565b6107c38161078061153d565b9081547fffffffffffffffffffffffff00000000000000000000000000000000000000001673ffffffffffffffffffffffffffffffffffffffff91909116179055565b50565b6107ee6107d161103f565b6002015473ffffffffffffffffffffffffffffffffffffffff1690565b73ffffffffffffffffffffffffffffffffffffffff163373ffffffffffffffffffffffffffffffffffffffff1614610859576040517f220606710000000000000000000000000000000000000000000000000000000081523360048201526024015b60405180910390fd5b827f6bb7ff708619ba0610cba295a58592e0451dee2622938c8755667688daf3529b838360405161088b929190613bff565b60405180910390a2505050565b6000806108af84846108a861170e565b919061173c565b915091505b9250929050565b60006108c5611103565b90506108db818a6108d461153d565b91906117e6565b6108fd818a8a8a8a8a8a8a8a6108ef610e85565b989796959493929190611823565b505050505050505050565b6000610912611103565b90506109208161076e611347565b61093683838361092e61110d565b929190611aac565b505050565b60606109558585858561094c610e85565b93929190611b82565b95945050505050565b6000610968611103565b90506109977f6d696e74657200000000000000000000000000000000000000000000000000008261060e61110d565b61073d8187878787878080601f0160208091040260200160405190810160405280939291908181526020018383808284376000920191909152506109de9250610e85915050565b9493929190611c91565b6109f3610766611103565b6107c3816109ff61170e565b90611d6f565b828114610a3e576040517f6582533600000000000000000000000000000000000000000000000000000000815260040160405180910390fd5b610a496107d161103f565b73ffffffffffffffffffffffffffffffffffffffff163373ffffffffffffffffffffffffffffffffffffffff1614610aaf576040517f22060671000000000000000000000000000000000000000000000000000000008152336004820152602401610850565b60005b83811015610b3657848482818110610acc57610acc613c4c565b905060200201357f6bb7ff708619ba0610cba295a58592e0451dee2622938c8755667688daf3529b848484818110610b0657610b06613c4c565b9050602002810190610b189190613c7b565b604051610b26929190613bff565b60405180910390a2600101610ab2565b5050505050565b610b48610766611103565b61073d868686868686611df5565b6107c3610b61611103565b82610b6a61110d565b9190611ed6565b60006105d0610b7e611347565b5473ffffffffffffffffffffffffffffffffffffffff1690565b610ba3610766611103565b6107c381610baf61170e565b90611f7a565b60006105a18383610bc461110d565b60009283526020908152604080842073ffffffffffffffffffffffffffffffffffffffff909316845291905290205460ff1690565b60606105d0610c0661103f565b611fc7565b60006105d06107d161103f565b8015610c3057610c3082610c2a61153d565b90611fd8565b610c4d610c3b611103565b8383610c45610e85565b929190611fe2565b5050565b60006105d0610b7e61153d565b610c69610766611103565b61073d8686868686866120fa565b6000610c81611103565b9050610c8f8161076e611347565b610936838383610c9d61110d565b929190612390565b6000610caf611103565b9050610cde7f6d696e74657200000000000000000000000000000000000000000000000000008261060e61110d565b6108fd818a8a8080602002602001604051908101604052809392919081815260200183836020028082843760009201919091525050604080516020808e0282810182019093528d82529093508d92508c91829185019084908082843760009201919091525050604080516020808d0282810182019093528c82529093508c92508b91829185019084908082843760009201919091525050604080516020601f8c018190048102820181019092528a815292508a9150899081908401838280828437600092019190915250610db59250610e85915050565b949392919061245a565b60006105a18383610dce610e85565b919073ffffffffffffffffffffffffffffffffffffffff9182166000908152600193909301602090815260408085209290931684525290205460ff1690565b6000610e17611103565b9050610e2681886108d461153d565b610e4481888888888888610e38610e85565b9695949392919061251d565b50505050505050565b6107c3610e58611103565b82610e61611347565b91906126c0565b610e73610766611103565b610e7f848484846127d4565b50505050565b6000806105a460017f5ccf5846fa27a68fafc8e588671a68f5e67c2f9b56af4263806a4d71735e8613613d0f565b600073ffffffffffffffffffffffffffffffffffffffff8316610f02576040517fca2434a500000000000000000000000000000000000000000000000000000000815260040160405180910390fd5b5060009081526020928352604080822073ffffffffffffffffffffffffffffffffffffffff9390931682529190925290205490565b6000806105a460017fca9d3e17f264b0f3984e2634e94adb37fa3e6a8103f06aeae6fa59e21c769f5e613d0f565b60007c01000000000000000000000000000000000000000000000000000000007fffffffff00000000000000000000000000000000000000000000000000000000831601610fb5575060006105a4565b7ffe003659000000000000000000000000000000000000000000000000000000007fffffffff00000000000000000000000000000000000000000000000000000000831601611006575060016105a4565b507fffffffff00000000000000000000000000000000000000000000000000000000166000908152602091909152604090205460ff1690565b6000806105a460017f7ea68fd2dcf1c056b94db6a0a537aa80d26fa9ab1eacd85da1ba0b61b7e7a8a5613d0f565b606081600001805461107e90613d22565b80601f01602080910402602001604051908101604052809291908181526020018280546110aa90613d22565b80156110f75780601f106110cc576101008083540402835291602001916110f7565b820191906000526020600020905b8154815290600101906020018083116110da57829003601f168201915b50505050509050919050565b60006105d0612880565b6000806105a460017fc8827d3282af6f37b64c3e9e6f3ac9df286ab0bb0fccd6f8661bf19adb368b23613d0f565b60008281526020848152604080832073ffffffffffffffffffffffffffffffffffffffff8516845290915290205460ff16610936576040517f7aa728820000000000000000000000000000000000000000000000000000000081526004810183905273ffffffffffffffffffffffffffffffffffffffff82166024820152604401610850565b73ffffffffffffffffffffffffffffffffffffffff841661120e576040517f021149bd00000000000000000000000000000000000000000000000000000000815260040160405180910390fd5b82518251811461124a576040517f6582533600000000000000000000000000000000000000000000000000000000815260040160405180910390fd5b60005b8181101561129b57611293888787848151811061126c5761126c613c4c565b602002602001015187858151811061128657611286613c4c565b60200260200101516129cd565b60010161124d565b508473ffffffffffffffffffffffffffffffffffffffff16600073ffffffffffffffffffffffffffffffffffffffff168773ffffffffffffffffffffffffffffffffffffffff167f4a39dc06d4c0dbc64b70af90fd698a233a518aa5d07e595d983b8c0526c8f7fb8787604051611313929190613d75565b60405180910390a473ffffffffffffffffffffffffffffffffffffffff85163b15610e4457610e4486600087878787612a9e565b6000806105a460017fc9ed16f33ab3a66c84bfd83099ccb2a8845871e2e1c1928f63797152f0fd54cd613d0f565b6113aa6113a360017f5b388d90dc1312ba799f321972f13311234fa1163bcabec7cf66101c4876eb84613d0f565b6001612b9c565b610c4d8282612be8565b6113e97fd9b67a260000000000000000000000000000000000000000000000000000000060016113e2610f37565b9190612c9e565b565b6113e97f0e89341c0000000000000000000000000000000000000000000000000000000060016113e2610f37565b6113e97f5190c92c0000000000000000000000000000000000000000000000000000000060016113e2610f37565b6113e97fe8ab9ccc0000000000000000000000000000000000000000000000000000000060016113e2610f37565b6113e97f2a55205a0000000000000000000000000000000000000000000000000000000060016113e2610f37565b6114d16113a360017f92f72593ca50a0096f68ee94e7000db40ed086164b695855e2250750b8bfaf59613d0f565b856114dd858783613e10565b50600186016114ed838583613e10565b5060029590950180547fffffffffffffffffffffffff00000000000000000000000000000000000000001673ffffffffffffffffffffffffffffffffffffffff9096169590951790945550505050565b6000806105a460017f609b85bcafa81ecfaf3ff62cdde2c6c9082a68dbe4922f07399c706bdeb7cd31613d0f565b6115996113a360017f2f02d396cb1be29636682c8684200b30a98554d3b74293aa4495cb5e1d252f6e613d0f565b81547fffffffffffffffffffffffff00000000000000000000000000000000000000001673ffffffffffffffffffffffffffffffffffffffff91909116179055565b60028301546040517ff724dad700000000000000000000000000000000000000000000000000000000815273ffffffffffffffffffffffffffffffffffffffff848116600483015260248201849052606092169063f724dad790604401600060405180830381865afa158015611655573d6000803e3d6000fd5b505050506040513d6000823e601f3d9081017fffffffffffffffffffffffffffffffffffffffffffffffffffffffffffffffe016820160405261169b9190810190613f2a565b949350505050565b815473ffffffffffffffffffffffffffffffffffffffff828116911614610c4d576040517f2ef4875e00000000000000000000000000000000000000000000000000000000815273ffffffffffffffffffffffffffffffffffffffff82166004820152602401610850565b6000806105a460017f2c0cf10337caabbd02dcf226f05f5fd19a0919a41a8df8958c39b80007826858613d0f565b825473ffffffffffffffffffffffffffffffffffffffff8116906000907401000000000000000000000000000000000000000090046bffffffffffffffffffffffff1683158061178a575080155b1561179857600091506117dd565b620186a08410156117c257620186a06117b18286614013565b6117bb919061402a565b91506117dd565b806117d0620186a08661402a565b6117da9190614013565b91505b50935093915050565b8073ffffffffffffffffffffffffffffffffffffffff168273ffffffffffffffffffffffffffffffffffffffff1614610936576109368383612d7a565b73ffffffffffffffffffffffffffffffffffffffff8716611870576040517fb5e8901500000000000000000000000000000000000000000000000000000000815260040160405180910390fd5b848381146118aa576040517f6582533600000000000000000000000000000000000000000000000000000000815260040160405180910390fd5b6118b58b8a8c612ea1565b61190b576040517f05bbb9c400000000000000000000000000000000000000000000000000000000815273ffffffffffffffffffffffffffffffffffffffff808c1660048301528a166024820152604401610850565b60005b8181101561195b576119538c8b8b8b8b8681811061192e5761192e613c4c565b905060200201358a8a8781811061194757611947613c4c565b90506020020135612f16565b60010161190e565b508773ffffffffffffffffffffffffffffffffffffffff168973ffffffffffffffffffffffffffffffffffffffff168b73ffffffffffffffffffffffffffffffffffffffff167f4a39dc06d4c0dbc64b70af90fd698a233a518aa5d07e595d983b8c0526c8f7fb8a8a8a8a6040516119d694939291906140b0565b60405180910390a473ffffffffffffffffffffffffffffffffffffffff88163b15611a9f57611a9f8a8a8a8a8a8080602002602001604051908101604052809392919081815260200183836020028082843760009201919091525050604080516020808e0282810182019093528d82529093508d92508c91829185019084908082843760009201919091525050604080516020601f8d018190048102820181019092528b815292508b91508a9081908401838280828437600092019190915250612a9e92505050565b5050505050505050505050565b60008381526020858152604080832073ffffffffffffffffffffffffffffffffffffffff8616845290915290205460ff16610e7f5760008381526020858152604080832073ffffffffffffffffffffffffffffffffffffffff8681168086529184529382902080547fffffffffffffffffffffffffffffffffffffffffffffffffffffffffffffff00166001179055815187815292830152918316918101919091527f2f8788117e7eff1d82e926ec794901d17c78024a50270940304540a733656f0d906060015b60405180910390a150505050565b606083828114611bbe576040517f6582533600000000000000000000000000000000000000000000000000000000815260040160405180910390fd5b8467ffffffffffffffff811115611bd757611bd7613d9a565b604051908082528060200260200182016040528015611c00578160200160208202803683370190505b50915060005b81811015611c8657611c61878783818110611c2357611c23613c4c565b9050602002016020810190611c38919061371e565b868684818110611c4a57611c4a613c4c565b905060200201358a610eb39092919063ffffffff16565b838281518110611c7357611c73613c4c565b6020908102919091010152600101611c06565b505095945050505050565b73ffffffffffffffffffffffffffffffffffffffff8416611cde576040517f021149bd00000000000000000000000000000000000000000000000000000000815260040160405180910390fd5b611cea868585856129cd565b604080518481526020810184905273ffffffffffffffffffffffffffffffffffffffff80871692600092918916917fc3d58168c5ae7397731d063d5bbf3d657854427343f4c083240f7aacaa2d0f62910160405180910390a473ffffffffffffffffffffffffffffffffffffffff84163b1561073d5761073d856000868686866130c3565b620186a0811115611daf576040517fac04040800000000000000000000000000000000000000000000000000000000815260048101829052602401610850565b81546bffffffffffffffffffffffff909116740100000000000000000000000000000000000000000273ffffffffffffffffffffffffffffffffffffffff909116179055565b848381141580611e055750808214155b15611e3c576040517f6582533600000000000000000000000000000000000000000000000000000000815260040160405180910390fd5b60005b818110156106c657611ece888883818110611e5c57611e5c613c4c565b9050602002016020810190611e71919061371e565b858584818110611e8357611e83613c4c565b90506020020135888885818110611e9c57611e9c613c4c565b9050602002016020810190611eb1919061371e565b73ffffffffffffffffffffffffffffffffffffffff1691906131e1565b600101611e3f565b611ee183828461113b565b60008181526020848152604080832073ffffffffffffffffffffffffffffffffffffffff86168085529083529281902080547fffffffffffffffffffffffffffffffffffffffffffffffffffffffffffffff0016905580518481529182018390528101919091527ff6391f5c32d9c69d2a47ea670b442974b53935d1edc7fd64eb21e047a839171b9060600160405180910390a1505050565b73ffffffffffffffffffffffffffffffffffffffff8116611599576040517f16de0c8000000000000000000000000000000000000000000000000000000000815260040160405180910390fd5b606081600101805461107e90613d22565b610c4d8282612d7a565b8273ffffffffffffffffffffffffffffffffffffffff168273ffffffffffffffffffffffffffffffffffffffff160361205f576040517ffb0fdf6100000000000000000000000000000000000000000000000000000000815273ffffffffffffffffffffffffffffffffffffffff84166004820152602401610850565b73ffffffffffffffffffffffffffffffffffffffff838116600081815260018701602090815260408083209487168084529482529182902080547fffffffffffffffffffffffffffffffffffffffffffffffffffffffffffffff001686151590811790915591519182527f17307eab39ab6107e8899845ad3d59bd9653f200f220920489ca2b5937696c31910160405180910390a350505050565b84838114158061210a5750808214155b15612141576040517f6582533600000000000000000000000000000000000000000000000000000000815260040160405180910390fd5b60005b818110156106c657600086868381811061216057612160613c4c565b9050602002016020810190612175919061371e565b6040517f01ffc9a70000000000000000000000000000000000000000000000000000000081527f80ac58cd00000000000000000000000000000000000000000000000000000000600482015290915073ffffffffffffffffffffffffffffffffffffffff8216906301ffc9a790602401602060405180830381865afa158015612202573d6000803e3d6000fd5b505050506040513d601f19601f8201168201806040525081019061222691906140e2565b612274576040517f986b9f1f00000000000000000000000000000000000000000000000000000000815273ffffffffffffffffffffffffffffffffffffffff82166004820152602401610850565b86868381811061228657612286613c4c565b905060200201602081019061229b919061371e565b73ffffffffffffffffffffffffffffffffffffffff166342842e0e308b8b868181106122c9576122c9613c4c565b90506020020160208101906122de919061371e565b8888878181106122f0576122f0613c4c565b6040517fffffffff0000000000000000000000000000000000000000000000000000000060e088901b16815273ffffffffffffffffffffffffffffffffffffffff958616600482015294909316602485015250602090910201356044820152606401600060405180830381600087803b15801561236c57600080fd5b505af1158015612380573d6000803e3d6000fd5b5050505050806001019050612144565b60008381526020858152604080832073ffffffffffffffffffffffffffffffffffffffff8616845290915290205460ff1615610e7f5760008381526020858152604080832073ffffffffffffffffffffffffffffffffffffffff8681168086529184529382902080547fffffffffffffffffffffffffffffffffffffffffffffffffffffffffffffff00169055815187815292830152918316918101919091527ff6391f5c32d9c69d2a47ea670b442974b53935d1edc7fd64eb21e047a839171b90606001611b74565b835183518114158061246d575082518114155b156124a4576040517f6582533600000000000000000000000000000000000000000000000000000000815260040160405180910390fd5b60005b818110156106c657612515878783815181106124c5576124c5613c4c565b60200260200101518784815181106124df576124df613c4c565b60200260200101518785815181106124f9576124f9613c4c565b6020026020010151878d611c919095949392919063ffffffff16565b6001016124a7565b73ffffffffffffffffffffffffffffffffffffffff851661256a576040517fb5e8901500000000000000000000000000000000000000000000000000000000815260040160405180910390fd5b612575888789612ea1565b6125cb576040517f05bbb9c400000000000000000000000000000000000000000000000000000000815273ffffffffffffffffffffffffffffffffffffffff808916600483015287166024820152604401610850565b6125d88887878787612f16565b8473ffffffffffffffffffffffffffffffffffffffff168673ffffffffffffffffffffffffffffffffffffffff168873ffffffffffffffffffffffffffffffffffffffff167fc3d58168c5ae7397731d063d5bbf3d657854427343f4c083240f7aacaa2d0f628787604051612657929190918252602082015260400190565b60405180910390a473ffffffffffffffffffffffffffffffffffffffff85163b156106c6576106c6878787878787878080601f0160208091040260200160405190810160405280939291908181526020018383808284376000920191909152506130c392505050565b825473ffffffffffffffffffffffffffffffffffffffff908116908316811461272d576040517f2ef4875e00000000000000000000000000000000000000000000000000000000815273ffffffffffffffffffffffffffffffffffffffff84166004820152602401610850565b8173ffffffffffffffffffffffffffffffffffffffff168173ffffffffffffffffffffffffffffffffffffffff1614610e7f5783547fffffffffffffffffffffffff00000000000000000000000000000000000000001673ffffffffffffffffffffffffffffffffffffffff8381169182178655604051908316907f8be0079c531659141344cd1fd0a4f28419497f9722a3daafe3b4186f6b6457e090600090a350505050565b8281811461280e576040517f6582533600000000000000000000000000000000000000000000000000000000815260040160405180910390fd5b60005b8181101561073d5761287884848381811061282e5761282e613c4c565b9050602002013587878481811061284757612847613c4c565b905060200201602081019061285c919061371e565b73ffffffffffffffffffffffffffffffffffffffff169061326e565b600101612811565b6000333214806128905750601836105b1561289a57503390565b7fffffffffffffffffffffffffffffffffffffffffffffffffffffffffffffffec36013560601c7f000000000000000000000000000000000000000000000000000000000000000073ffffffffffffffffffffffffffffffffffffffff163314806129bc57506040517f019a202800000000000000000000000000000000000000000000000000000000815273ffffffffffffffffffffffffffffffffffffffff82811660048301523360248301523060448301527f0000000000000000000000000000000000000000000000000000000000000000169063019a202890606401602060405180830381865afa158015612998573d6000803e3d6000fd5b505050506040513d601f19601f820116820180604052508101906129bc91906140e2565b156129c657919050565b3391505090565b8015610e7f5760008281526020858152604080832073ffffffffffffffffffffffffffffffffffffffff87168452909152902054818101818111612a6a576040517f42fb00bc00000000000000000000000000000000000000000000000000000000815273ffffffffffffffffffffffffffffffffffffffff86166004820152602481018590526044810183905260648101849052608401610850565b60009384526020958652604080852073ffffffffffffffffffffffffffffffffffffffff9690961685529490955250502055565b6040517fbc197c81000000000000000000000000000000000000000000000000000000008082529073ffffffffffffffffffffffffffffffffffffffff86169063bc197c8190612afa908a908a908990899089906004016140ff565b6020604051808303816000875af1158015612b19573d6000803e3d6000fd5b505050506040513d601f19601f82011682018060405250810190612b3d919061417c565b7fffffffff00000000000000000000000000000000000000000000000000000000161461073d578383836040517fc287817e00000000000000000000000000000000000000000000000000000000815260040161085093929190614199565b81548290828110612be3576040517fbf0c18ec0000000000000000000000000000000000000000000000000000000081526004810182905260248101849052604401610850565b505550565b73ffffffffffffffffffffffffffffffffffffffff811615612c705781547fffffffffffffffffffffffff00000000000000000000000000000000000000001673ffffffffffffffffffffffffffffffffffffffff821690811783556040516000907f8be0079c531659141344cd1fd0a4f28419497f9722a3daafe3b4186f6b6457e0908290a35b610c4d7f7f5828d00000000000000000000000000000000000000000000000000000000060016113e2610f37565b7c01000000000000000000000000000000000000000000000000000000007fffffffff00000000000000000000000000000000000000000000000000000000831601612d16576040517f72c683bb00000000000000000000000000000000000000000000000000000000815260040160405180910390fd5b7fffffffff00000000000000000000000000000000000000000000000000000000919091166000908152602092909252604090912080547fffffffffffffffffffffffffffffffffffffffffffffffffffffffffffffff0016911515919091179055565b815473ffffffffffffffffffffffffffffffffffffffff168015801590612db8575060008173ffffffffffffffffffffffffffffffffffffffff163b115b15610936576040517fc617113400000000000000000000000000000000000000000000000000000000815230600482015273ffffffffffffffffffffffffffffffffffffffff838116602483015282169063c617113490604401602060405180830381865afa158015612e2f573d6000803e3d6000fd5b505050506040513d601f19601f82011682018060405250810190612e5391906140e2565b610936576040517fede71dcc00000000000000000000000000000000000000000000000000000000815273ffffffffffffffffffffffffffffffffffffffff83166004820152602401610850565b60008173ffffffffffffffffffffffffffffffffffffffff168373ffffffffffffffffffffffffffffffffffffffff16148061169b57505073ffffffffffffffffffffffffffffffffffffffff9182166000908152600193909301602090815260408085209290931684525290205460ff1690565b8015610b365760008281526020868152604080832073ffffffffffffffffffffffffffffffffffffffff88168452909152902054818103818110612fb3576040517f03dee4c500000000000000000000000000000000000000000000000000000000815273ffffffffffffffffffffffffffffffffffffffff87166004820152602481018590526044810183905260648101849052608401610850565b8473ffffffffffffffffffffffffffffffffffffffff168673ffffffffffffffffffffffffffffffffffffffff1614610e445760008481526020888152604080832073ffffffffffffffffffffffffffffffffffffffff8916845290915290205483810181811161307d576040517f42fb00bc00000000000000000000000000000000000000000000000000000000815273ffffffffffffffffffffffffffffffffffffffff88166004820152602481018790526044810183905260648101869052608401610850565b600086815260208a8152604080832073ffffffffffffffffffffffffffffffffffffffff808d1685528184528285208890558b1684529091529020555050505050505050565b6040517ff23a6e61000000000000000000000000000000000000000000000000000000008082529073ffffffffffffffffffffffffffffffffffffffff86169063f23a6e619061311f908a908a908990899089906004016141e4565b6020604051808303816000875af115801561313e573d6000803e3d6000fd5b505050506040513d601f19601f82011682018060405250810190613162919061417c565b7fffffffff00000000000000000000000000000000000000000000000000000000161461073d576040517f40f39d3800000000000000000000000000000000000000000000000000000000815273ffffffffffffffffffffffffffffffffffffffff851660048201526024810184905260448101839052606401610850565b6040805173ffffffffffffffffffffffffffffffffffffffff8416602482015260448082018490528251808303909101815260649091019091526020810180517bffffffffffffffffffffffffffffffffffffffffffffffffffffffff167fa9059cbb00000000000000000000000000000000000000000000000000000000179052610936908490613324565b804710156132b1576040517fcf47918100000000000000000000000000000000000000000000000000000000815247600482015260248101829052604401610850565b6000808373ffffffffffffffffffffffffffffffffffffffff168360405160006040518083038185875af1925050503d806000811461330c576040519150601f19603f3d011682016040523d82523d6000602084013e613311565b606091505b509150915081610e7f57610e7f816133c8565b600080602060008451602086016000885af180613347576040513d6000823e3d81fd5b50506000513d9150811561335f578060011415613379565b73ffffffffffffffffffffffffffffffffffffffff84163b155b15610e7f576040517f5274afe700000000000000000000000000000000000000000000000000000000815273ffffffffffffffffffffffffffffffffffffffff85166004820152602401610850565b8051156133d85780518082602001fd5b6040517fd6bda27500000000000000000000000000000000000000000000000000000000815260040160405180910390fd5b73ffffffffffffffffffffffffffffffffffffffff811681146107c357600080fd5b6000806040838503121561343f57600080fd5b823561344a8161340a565b946020939093013593505050565b7fffffffff00000000000000000000000000000000000000000000000000000000811681146107c357600080fd5b60006020828403121561349857600080fd5b81356134a381613458565b9392505050565b60005b838110156134c55781810151838201526020016134ad565b50506000910152565b600081518084526134e68160208601602086016134aa565b601f017fffffffffffffffffffffffffffffffffffffffffffffffffffffffffffffffe0169290920160200192915050565b6020815260006105a160208301846134ce565b60008083601f84011261353d57600080fd5b50813567ffffffffffffffff81111561355557600080fd5b6020830191508360208260051b85010111156108b457600080fd5b60008083601f84011261358257600080fd5b50813567ffffffffffffffff81111561359a57600080fd5b6020830191508360208285010111156108b457600080fd5b60008060008060008060006080888a0312156135cd57600080fd5b87356135d88161340a565b9650602088013567ffffffffffffffff8111156135f457600080fd5b6136008a828b0161352b565b909750955050604088013567ffffffffffffffff81111561362057600080fd5b61362c8a828b0161352b565b909550935050606088013567ffffffffffffffff81111561364c57600080fd5b6136588a828b01613570565b989b979a50959850939692959293505050565b6000806000806000806080878903121561368457600080fd5b863567ffffffffffffffff81111561369b57600080fd5b6136a789828a01613570565b909750955050602087013567ffffffffffffffff8111156136c757600080fd5b6136d389828a01613570565b90955093505060408701356136e78161340a565b915060608701356136f78161340a565b809150509295509295509295565b60006020828403121561371757600080fd5b5035919050565b60006020828403121561373057600080fd5b81356134a38161340a565b60008060006040848603121561375057600080fd5b83359250602084013567ffffffffffffffff81111561376e57600080fd5b61377a86828701613570565b9497909650939450505050565b6000806040838503121561379a57600080fd5b50508035926020909101359150565b60008060008060008060008060a0898b0312156137c557600080fd5b88356137d08161340a565b975060208901356137e08161340a565b9650604089013567ffffffffffffffff8111156137fc57600080fd5b6138088b828c0161352b565b909750955050606089013567ffffffffffffffff81111561382857600080fd5b6138348b828c0161352b565b909550935050608089013567ffffffffffffffff81111561385457600080fd5b6138608b828c01613570565b999c989b5096995094979396929594505050565b6000806040838503121561388757600080fd5b8235915060208301356138998161340a565b809150509250929050565b600080600080604085870312156138ba57600080fd5b843567ffffffffffffffff8111156138d157600080fd5b6138dd8782880161352b565b909550935050602085013567ffffffffffffffff8111156138fd57600080fd5b6139098782880161352b565b95989497509550505050565b600081518084526020840193506020830160005b82811015613947578151865260209586019590910190600101613929565b5093949350505050565b6020815260006105a16020830184613915565b60008060008060006080868803121561397c57600080fd5b85356139878161340a565b94506020860135935060408601359250606086013567ffffffffffffffff8111156139b157600080fd5b6139bd88828901613570565b969995985093965092949392505050565b600080600080600080606087890312156139e757600080fd5b863567ffffffffffffffff8111156139fe57600080fd5b613a0a89828a0161352b565b909750955050602087013567ffffffffffffffff811115613a2a57600080fd5b613a3689828a0161352b565b909550935050604087013567ffffffffffffffff811115613a5657600080fd5b613a6289828a0161352b565b979a9699509497509295939492505050565b80151581146107c357600080fd5b60008060408385031215613a9557600080fd5b8235613aa08161340a565b9150602083013561389981613a74565b6000806000806000806000806080898b031215613acc57600080fd5b883567ffffffffffffffff811115613ae357600080fd5b613aef8b828c0161352b565b909950975050602089013567ffffffffffffffff811115613b0f57600080fd5b613b1b8b828c0161352b565b909750955050604089013567ffffffffffffffff811115613b3b57600080fd5b613b478b828c0161352b565b909550935050606089013567ffffffffffffffff81111561385457600080fd5b60008060408385031215613b7a57600080fd5b8235613b858161340a565b915060208301356138998161340a565b60008060008060008060a08789031215613bae57600080fd5b8635613bb98161340a565b95506020870135613bc98161340a565b94506040870135935060608701359250608087013567ffffffffffffffff811115613bf357600080fd5b613a6289828a01613570565b60208152816020820152818360408301376000818301604090810191909152601f9092017fffffffffffffffffffffffffffffffffffffffffffffffffffffffffffffffe0160101919050565b7f4e487b7100000000000000000000000000000000000000000000000000000000600052603260045260246000fd5b60008083357fffffffffffffffffffffffffffffffffffffffffffffffffffffffffffffffe1843603018112613cb057600080fd5b83018035915067ffffffffffffffff821115613ccb57600080fd5b6020019150368190038213156108b457600080fd5b7f4e487b7100000000000000000000000000000000000000000000000000000000600052601160045260246000fd5b818103818111156105a4576105a4613ce0565b600181811c90821680613d3657607f821691505b602082108103613d6f577f4e487b7100000000000000000000000000000000000000000000000000000000600052602260045260246000fd5b50919050565b604081526000613d886040830185613915565b82810360208401526109558185613915565b7f4e487b7100000000000000000000000000000000000000000000000000000000600052604160045260246000fd5b601f82111561093657806000526020600020601f840160051c81016020851015613df05750805b601f840160051c820191505b81811015610b365760008155600101613dfc565b67ffffffffffffffff831115613e2857613e28613d9a565b613e3c83613e368354613d22565b83613dc9565b6000601f841160018114613e8e5760008515613e585750838201355b7fffffffffffffffffffffffffffffffffffffffffffffffffffffffffffffffff600387901b1c1916600186901b178355610b36565b6000838152602090207fffffffffffffffffffffffffffffffffffffffffffffffffffffffffffffffe0861690835b82811015613edd5786850135825560209485019460019092019101613ebd565b5086821015613f18577fffffffffffffffffffffffffffffffffffffffffffffffffffffffffffffffff60f88860031b161c19848701351681555b505060018560011b0183555050505050565b600060208284031215613f3c57600080fd5b815167ffffffffffffffff811115613f5357600080fd5b8201601f81018413613f6457600080fd5b805167ffffffffffffffff811115613f7e57613f7e613d9a565b6040517fffffffffffffffffffffffffffffffffffffffffffffffffffffffffffffffe0603f7fffffffffffffffffffffffffffffffffffffffffffffffffffffffffffffffe0601f8501160116810181811067ffffffffffffffff82111715613fea57613fea613d9a565b60405281815282820160200186101561400257600080fd5b6109558260208301602086016134aa565b80820281158282048414176105a4576105a4613ce0565b600082614060577f4e487b7100000000000000000000000000000000000000000000000000000000600052601260045260246000fd5b500490565b81835260007f07ffffffffffffffffffffffffffffffffffffffffffffffffffffffffffffff83111561409757600080fd5b8260051b80836020870137939093016020019392505050565b6040815260006140c4604083018688614065565b82810360208401526140d7818587614065565b979650505050505050565b6000602082840312156140f457600080fd5b81516134a381613a74565b73ffffffffffffffffffffffffffffffffffffffff8616815273ffffffffffffffffffffffffffffffffffffffff8516602082015260a06040820152600061414a60a0830186613915565b828103606084015261415c8186613915565b9050828103608084015261417081856134ce565b98975050505050505050565b60006020828403121561418e57600080fd5b81516134a381613458565b73ffffffffffffffffffffffffffffffffffffffff841681526060602082015260006141c86060830185613915565b82810360408401526141da8185613915565b9695505050505050565b73ffffffffffffffffffffffffffffffffffffffff8616815273ffffffffffffffffffffffffffffffffffffffff8516602082015283604082015282606082015260a0608082015260006140d760a08301846134ce56fea26469706673582212205a5010ee6fddda16b6e15cfeba40b54d3dbc2e447fc9797fb5c5029498fdb9f364736f6c634300081c0033",
  "linkReferences": {},
  "deployedLinkReferences": {}
}