{
  "_format": "hh-sol-artifact-1",
  "contractName": "ERC1155FullProxied",
  "sourceName": "contracts/token/ERC1155/preset/proxied/ERC1155FullProxied.sol",
  "abi": [
    {
      "inputs": [
        {
          "internalType": "contract IForwarderRegistry",
          "name": "forwarderRegistry",
          "type": "address"
        }
      ],
      "stateMutability": "nonpayable",
      "type": "constructor"
    },
    {
      "inputs": [
        {
          "internalType": "uint256",
          "name": "percentage",
          "type": "uint256"
        }
      ],
      "name": "IncorrectRoyaltyPercentage",
      "type": "error"
    },
    {
      "inputs": [],
      "name": "IncorrectRoyaltyReceiver",
      "type": "error"
    },
    {
      "inputs": [
        {
          "internalType": "address",
          "name": "operator",
          "type": "address"
        }
      ],
      "name": "OperatorNotAllowed",
      "type": "error"
    },
    {
      "anonymous": false,
      "inputs": [
        {
          "indexed": true,
          "internalType": "address",
          "name": "owner",
          "type": "address"
        },
        {
          "indexed": true,
          "internalType": "address",
          "name": "operator",
          "type": "address"
        },
        {
          "indexed": false,
          "internalType": "bool",
          "name": "approved",
          "type": "bool"
        }
      ],
      "name": "ApprovalForAll",
      "type": "event"
    },
    {
      "anonymous": false,
      "inputs": [
        {
          "indexed": true,
          "internalType": "address",
          "name": "previousOwner",
          "type": "address"
        },
        {
          "indexed": true,
          "internalType": "address",
          "name": "newOwner",
          "type": "address"
        }
      ],
      "name": "OwnershipTransferred",
      "type": "event"
    },
    {
      "anonymous": false,
      "inputs": [
        {
          "indexed": false,
          "internalType": "bytes32",
          "name": "role",
          "type": "bytes32"
        },
        {
          "indexed": false,
          "internalType": "address",
          "name": "account",
          "type": "address"
        },
        {
          "indexed": false,
          "internalType": "address",
          "name": "operator",
          "type": "address"
        }
      ],
      "name": "RoleGranted",
      "type": "event"
    },
    {
      "anonymous": false,
      "inputs": [
        {
          "indexed": false,
          "internalType": "bytes32",
          "name": "role",
          "type": "bytes32"
        },
        {
          "indexed": false,
          "internalType": "address",
          "name": "account",
          "type": "address"
        },
        {
          "indexed": false,
          "internalType": "address",
          "name": "operator",
          "type": "address"
        }
      ],
      "name": "RoleRevoked",
      "type": "event"
    },
    {
      "anonymous": false,
      "inputs": [
        {
          "indexed": true,
          "internalType": "address",
          "name": "operator",
          "type": "address"
        },
        {
          "indexed": true,
          "internalType": "address",
          "name": "from",
          "type": "address"
        },
        {
          "indexed": true,
          "internalType": "address",
          "name": "to",
          "type": "address"
        },
        {
          "indexed": false,
          "internalType": "uint256[]",
          "name": "ids",
          "type": "uint256[]"
        },
        {
          "indexed": false,
          "internalType": "uint256[]",
          "name": "values",
          "type": "uint256[]"
        }
      ],
      "name": "TransferBatch",
      "type": "event"
    },
    {
      "anonymous": false,
      "inputs": [
        {
          "indexed": true,
          "internalType": "address",
          "name": "operator",
          "type": "address"
        },
        {
          "indexed": true,
          "internalType": "address",
          "name": "from",
          "type": "address"
        },
        {
          "indexed": true,
          "internalType": "address",
          "name": "to",
          "type": "address"
        },
        {
          "indexed": false,
          "internalType": "uint256",
          "name": "id",
          "type": "uint256"
        },
        {
          "indexed": false,
          "internalType": "uint256",
          "name": "value",
          "type": "uint256"
        }
      ],
      "name": "TransferSingle",
      "type": "event"
    },
    {
      "anonymous": false,
      "inputs": [
        {
          "indexed": false,
          "internalType": "string",
          "name": "value",
          "type": "string"
        },
        {
          "indexed": true,
          "internalType": "uint256",
          "name": "id",
          "type": "uint256"
        }
      ],
      "name": "URI",
      "type": "event"
    },
    {
      "inputs": [],
      "name": "MINTER_ROLE",
      "outputs": [
        {
          "internalType": "bytes32",
          "name": "",
          "type": "bytes32"
        }
      ],
      "stateMutability": "view",
      "type": "function"
    },
    {
      "inputs": [],
      "name": "ROYALTY_FEE_DENOMINATOR",
      "outputs": [
        {
          "internalType": "uint256",
          "name": "",
          "type": "uint256"
        }
      ],
      "stateMutability": "view",
      "type": "function"
    },
    {
      "inputs": [
        {
          "internalType": "address",
          "name": "owner",
          "type": "address"
        },
        {
          "internalType": "uint256",
          "name": "id",
          "type": "uint256"
        }
      ],
      "name": "balanceOf",
      "outputs": [
        {
          "internalType": "uint256",
          "name": "balance",
          "type": "uint256"
        }
      ],
      "stateMutability": "view",
      "type": "function"
    },
    {
      "inputs": [
        {
          "internalType": "address[]",
          "name": "owners",
          "type": "address[]"
        },
        {
          "internalType": "uint256[]",
          "name": "ids",
          "type": "uint256[]"
        }
      ],
      "name": "balanceOfBatch",
      "outputs": [
        {
          "internalType": "uint256[]",
          "name": "balances",
          "type": "uint256[]"
        }
      ],
      "stateMutability": "view",
      "type": "function"
    },
    {
      "inputs": [],
      "name": "forwarderRegistry",
      "outputs": [
        {
          "internalType": "contract IForwarderRegistry",
          "name": "",
          "type": "address"
        }
      ],
      "stateMutability": "view",
      "type": "function"
    },
    {
      "inputs": [
        {
          "internalType": "bytes32",
          "name": "role",
          "type": "bytes32"
        },
        {
          "internalType": "address",
          "name": "account",
          "type": "address"
        }
      ],
      "name": "grantRole",
      "outputs": [],
      "stateMutability": "nonpayable",
      "type": "function"
    },
    {
      "inputs": [
        {
          "internalType": "bytes32",
          "name": "role",
          "type": "bytes32"
        },
        {
          "internalType": "address",
          "name": "account",
          "type": "address"
        }
      ],
      "name": "hasRole",
      "outputs": [
        {
          "internalType": "bool",
          "name": "hasRole_",
          "type": "bool"
        }
      ],
      "stateMutability": "view",
      "type": "function"
    },
    {
      "inputs": [
        {
          "internalType": "string",
          "name": "tokenName",
          "type": "string"
        },
        {
          "internalType": "string",
          "name": "tokenSymbol",
          "type": "string"
        },
        {
          "internalType": "contract ITokenMetadataResolver",
          "name": "metadataResolver",
          "type": "address"
        },
        {
          "internalType": "contract IOperatorFilterRegistry",
          "name": "filterRegistry",
          "type": "address"
        }
      ],
      "name": "init",
      "outputs": [],
      "stateMutability": "nonpayable",
      "type": "function"
    },
    {
      "inputs": [
        {
          "internalType": "address",
          "name": "owner",
          "type": "address"
        },
        {
          "internalType": "address",
          "name": "operator",
          "type": "address"
        }
      ],
      "name": "isApprovedForAll",
      "outputs": [
        {
          "internalType": "bool",
          "name": "approvedForAll",
          "type": "bool"
        }
      ],
      "stateMutability": "view",
      "type": "function"
    },
    {
      "inputs": [
        {
          "internalType": "address",
          "name": "forwarder",
          "type": "address"
        }
      ],
      "name": "isTrustedForwarder",
      "outputs": [
        {
          "internalType": "bool",
          "name": "",
          "type": "bool"
        }
      ],
      "stateMutability": "view",
      "type": "function"
    },
    {
      "inputs": [],
      "name": "metadataResolver",
      "outputs": [
        {
          "internalType": "contract ITokenMetadataResolver",
          "name": "tokenMetadataResolver",
          "type": "address"
        }
      ],
      "stateMutability": "view",
      "type": "function"
    },
    {
      "inputs": [],
      "name": "name",
      "outputs": [
        {
          "internalType": "string",
          "name": "tokenName",
          "type": "string"
        }
      ],
      "stateMutability": "view",
      "type": "function"
    },
    {
      "inputs": [],
      "name": "operatorFilterRegistry",
      "outputs": [
        {
          "internalType": "contract IOperatorFilterRegistry",
          "name": "",
          "type": "address"
        }
      ],
      "stateMutability": "view",
      "type": "function"
    },
    {
      "inputs": [],
      "name": "owner",
      "outputs": [
        {
          "internalType": "address",
          "name": "",
          "type": "address"
        }
      ],
      "stateMutability": "view",
      "type": "function"
    },
    {
      "inputs": [
        {
          "internalType": "address[]",
          "name": "accounts",
          "type": "address[]"
        },
        {
          "internalType": "contract IERC20[]",
          "name": "tokens",
          "type": "address[]"
        },
        {
          "internalType": "uint256[]",
          "name": "amounts",
          "type": "uint256[]"
        }
      ],
      "name": "recoverERC20s",
      "outputs": [],
      "stateMutability": "nonpayable",
      "type": "function"
    },
    {
      "inputs": [
        {
          "internalType": "address[]",
          "name": "accounts",
          "type": "address[]"
        },
        {
          "internalType": "contract IERC721[]",
          "name": "contracts",
          "type": "address[]"
        },
        {
          "internalType": "uint256[]",
          "name": "tokenIds",
          "type": "uint256[]"
        }
      ],
      "name": "recoverERC721s",
      "outputs": [],
      "stateMutability": "nonpayable",
      "type": "function"
    },
    {
      "inputs": [
        {
          "internalType": "address payable[]",
          "name": "accounts",
          "type": "address[]"
        },
        {
          "internalType": "uint256[]",
          "name": "amounts",
          "type": "uint256[]"
        }
      ],
      "name": "recoverETH",
      "outputs": [],
      "stateMutability": "nonpayable",
      "type": "function"
    },
    {
      "inputs": [
        {
          "internalType": "bytes32",
          "name": "role",
          "type": "bytes32"
        }
      ],
      "name": "renounceRole",
      "outputs": [],
      "stateMutability": "nonpayable",
      "type": "function"
    },
    {
      "inputs": [
        {
          "internalType": "bytes32",
          "name": "role",
          "type": "bytes32"
        },
        {
          "internalType": "address",
          "name": "account",
          "type": "address"
        }
      ],
      "name": "revokeRole",
      "outputs": [],
      "stateMutability": "nonpayable",
      "type": "function"
    },
    {
      "inputs": [
        {
          "internalType": "uint256",
          "name": "tokenId",
          "type": "uint256"
        },
        {
          "internalType": "uint256",
          "name": "salePrice",
          "type": "uint256"
        }
      ],
      "name": "royaltyInfo",
      "outputs": [
        {
          "internalType": "address",
          "name": "receiver",
          "type": "address"
        },
        {
          "internalType": "uint256",
          "name": "royaltyAmount",
          "type": "uint256"
        }
      ],
      "stateMutability": "view",
      "type": "function"
    },
    {
      "inputs": [
        {
          "internalType": "address",
          "name": "to",
          "type": "address"
        },
        {
          "internalType": "uint256[]",
          "name": "ids",
          "type": "uint256[]"
        },
        {
          "internalType": "uint256[]",
          "name": "values",
          "type": "uint256[]"
        },
        {
          "internalType": "bytes",
          "name": "data",
          "type": "bytes"
        }
      ],
      "name": "safeBatchMint",
      "outputs": [],
      "stateMutability": "nonpayable",
      "type": "function"
    },
    {
      "inputs": [
        {
          "internalType": "address",
          "name": "from",
          "type": "address"
        },
        {
          "internalType": "address",
          "name": "to",
          "type": "address"
        },
        {
          "internalType": "uint256[]",
          "name": "ids",
          "type": "uint256[]"
        },
        {
          "internalType": "uint256[]",
          "name": "values",
          "type": "uint256[]"
        },
        {
          "internalType": "bytes",
          "name": "data",
          "type": "bytes"
        }
      ],
      "name": "safeBatchTransferFrom",
      "outputs": [],
      "stateMutability": "nonpayable",
      "type": "function"
    },
    {
      "inputs": [
        {
          "internalType": "address[]",
          "name": "recipients",
          "type": "address[]"
        },
        {
          "internalType": "uint256[]",
          "name": "ids",
          "type": "uint256[]"
        },
        {
          "internalType": "uint256[]",
          "name": "values",
          "type": "uint256[]"
        },
        {
          "internalType": "bytes",
          "name": "data",
          "type": "bytes"
        }
      ],
      "name": "safeDeliver",
      "outputs": [],
      "stateMutability": "nonpayable",
      "type": "function"
    },
    {
      "inputs": [
        {
          "internalType": "address",
          "name": "to",
          "type": "address"
        },
        {
          "internalType": "uint256",
          "name": "id",
          "type": "uint256"
        },
        {
          "internalType": "uint256",
          "name": "value",
          "type": "uint256"
        },
        {
          "internalType": "bytes",
          "name": "data",
          "type": "bytes"
        }
      ],
      "name": "safeMint",
      "outputs": [],
      "stateMutability": "nonpayable",
      "type": "function"
    },
    {
      "inputs": [
        {
          "internalType": "address",
          "name": "from",
          "type": "address"
        },
        {
          "internalType": "address",
          "name": "to",
          "type": "address"
        },
        {
          "internalType": "uint256",
          "name": "id",
          "type": "uint256"
        },
        {
          "internalType": "uint256",
          "name": "value",
          "type": "uint256"
        },
        {
          "internalType": "bytes",
          "name": "data",
          "type": "bytes"
        }
      ],
      "name": "safeTransferFrom",
      "outputs": [],
      "stateMutability": "nonpayable",
      "type": "function"
    },
    {
      "inputs": [
        {
          "internalType": "address",
          "name": "operator",
          "type": "address"
        },
        {
          "internalType": "bool",
          "name": "approved",
          "type": "bool"
        }
      ],
      "name": "setApprovalForAll",
      "outputs": [],
      "stateMutability": "nonpayable",
      "type": "function"
    },
    {
      "inputs": [
        {
          "internalType": "uint256",
          "name": "percentage",
          "type": "uint256"
        }
      ],
      "name": "setRoyaltyPercentage",
      "outputs": [],
      "stateMutability": "nonpayable",
      "type": "function"
    },
    {
      "inputs": [
        {
          "internalType": "address",
          "name": "receiver",
          "type": "address"
        }
      ],
      "name": "setRoyaltyReceiver",
      "outputs": [],
      "stateMutability": "nonpayable",
      "type": "function"
    },
    {
      "inputs": [
        {
          "internalType": "bytes4",
          "name": "interfaceId",
          "type": "bytes4"
        }
      ],
      "name": "supportsInterface",
      "outputs": [
        {
          "internalType": "bool",
          "name": "",
          "type": "bool"
        }
      ],
      "stateMutability": "view",
      "type": "function"
    },
    {
      "inputs": [],
      "name": "symbol",
      "outputs": [
        {
          "internalType": "string",
          "name": "tokenSymbol",
          "type": "string"
        }
      ],
      "stateMutability": "view",
      "type": "function"
    },
    {
      "inputs": [
        {
          "internalType": "address",
          "name": "newOwner",
          "type": "address"
        }
      ],
      "name": "transferOwnership",
      "outputs": [],
      "stateMutability": "nonpayable",
      "type": "function"
    },
    {
      "inputs": [
        {
          "internalType": "contract IOperatorFilterRegistry",
          "name": "registry",
          "type": "address"
        }
      ],
      "name": "updateOperatorFilterRegistry",
      "outputs": [],
      "stateMutability": "nonpayable",
      "type": "function"
    },
    {
      "inputs": [
        {
          "internalType": "uint256",
          "name": "tokenId",
          "type": "uint256"
        }
      ],
      "name": "uri",
      "outputs": [
        {
          "internalType": "string",
          "name": "metadataURI",
          "type": "string"
        }
      ],
      "stateMutability": "view",
      "type": "function"
    }
  ],
  "bytecode": "0x60a060405234801562000010575f80fd5b506040516200437e3803806200437e833981016040819052620000339162000045565b6001600160a01b031660805262000074565b5f6020828403121562000056575f80fd5b81516001600160a01b03811681146200006d575f80fd5b9392505050565b6080516142dc620000a25f395f81816102f10152818161038c0152818161297001526129f801526142dc5ff3fe608060405234801561000f575f80fd5b5060043610610200575f3560e01c80638bb9c5bf11610123578063c3666c36116100b8578063e8ab9ccc11610088578063f242432a1161006e578063f242432a146104eb578063f2fde38b146104fe578063f7ba94bd14610511575f80fd5b8063e8ab9ccc146104c5578063e985e9c5146104d8575f80fd5b8063c3666c361461046e578063d539139314610481578063d547741f146104a8578063e1a8bf2c146104bb575f80fd5b806395d89b41116100f357806395d89b4114610443578063a0c76f621461044b578063a22cb46514610453578063b0ccc31e14610466575f80fd5b80638bb9c5bf146104025780638da5cb5b146104155780638dc251e31461041d57806391d1485414610430575f80fd5b80632b4c9f1611610199578063572b6c0511610169578063572b6c051461037c5780635cfa9297146103c957806361ba27da146103dc57806373c8a958146103ef575f80fd5b80632b4c9f16146102ef5780632eb2c2d6146103365780632f2ff15d146103495780634e1273f41461035c575f80fd5b80630e07f854116101d45780630e07f854146102775780630e89341c1461028a578063114ba8ee1461029d5780632a55205a146102b0575f80fd5b8062fdd58e1461020457806301ffc9a71461022a57806306fdde031461024d5780630d6a5bbb14610262575b5f80fd5b610217610212366004613661565b610524565b6040519081526020015b60405180910390f35b61023d6102383660046136b8565b610542565b6040519015158152602001610221565b610255610555565b6040516102219190613745565b6102756102703660046137d6565b61056c565b005b61027561028536600461387b565b610663565b61025561029836600461390a565b6106d8565b6102756102ab366004613921565b6106ee565b6102c36102be36600461393c565b610759565b6040805173ffffffffffffffffffffffffffffffffffffffff9093168352602083019190915201610221565b7f00000000000000000000000000000000000000000000000000000000000000005b60405173ffffffffffffffffffffffffffffffffffffffff9091168152602001610221565b61027561034436600461395c565b61077b565b610275610357366004613a13565b6107c7565b61036f61036a366004613a41565b6107f9565b6040516102219190613ae1565b61023d61038a366004613921565b7f000000000000000000000000000000000000000000000000000000000000000073ffffffffffffffffffffffffffffffffffffffff90811691161490565b6102756103d7366004613af3565b61081e565b6102756103ea36600461390a565b6108a6565b6102756103fd366004613b58565b6108c3565b61027561041036600461390a565b6109e0565b6103116109fb565b61027561042b366004613921565b610a21565b61023d61043e366004613a13565b610a3e565b610255610a80565b610311610a92565b610275610461366004613bf8565b610abb565b610311610af4565b61027561047c366004613b58565b610b00565b6102177f6d696e746572000000000000000000000000000000000000000000000000000081565b6102756104b6366004613a13565b610c9f565b610217620186a081565b6102756104d3366004613c24565b610ccc565b61023d6104e6366004613cbe565b610de1565b6102756104f9366004613cea565b610e2d565b61027561050c366004613921565b610e6c565b61027561051f366004613a41565b610e87565b5f6105398383610532610f6c565b9190610f99565b90505b92915050565b5f61053c8261054f61104b565b90611078565b606061056761056261114f565b61117c565b905090565b5f61057561120f565b90506105ab7f6d696e7465720000000000000000000000000000000000000000000000000000826105a4611218565b9190611245565b61065981898989808060200260200160405190810160405280939291908181526020018383602002808284375f9201919091525050604080516020808d0282810182019093528c82529093508c92508b9182918501908490808284375f9201919091525050604080516020601f8c018190048102820181019092528a815292508a91508990819084018382808284375f9201919091525061064f9250610f6c915050565b94939291906112f0565b5050505050505050565b61067c61066e61120f565b6106766114d2565b906114ff565b61068461153e565b61068c611575565b6106946115a3565b61069c6115d1565b6106a46115ff565b6106be86868686866106b461114f565b949392919061162d565b6106d0816106ca6116c7565b906116f4565b505050505050565b606061053c30836106e761114f565b9190611764565b6107076106f961120f565b6107016114d2565b90611820565b610756816107136116c7565b9081547fffffffffffffffffffffffff00000000000000000000000000000000000000001673ffffffffffffffffffffffffffffffffffffffff91909116179055565b50565b5f8061076f84846107686118a3565b91906118d0565b915091505b9250929050565b5f61078461120f565b905061079a818a6107936116c7565b9190611978565b6107bc818a8a8a8a8a8a8a8a6107ae610f6c565b9897969594939291906119b5565b505050505050505050565b5f6107d061120f565b90506107de816107016114d2565b6107f48383836107ec611218565b929190611ca9565b505050565b60606108138585858561080a610f6c565b93929190611d7e565b90505b949350505050565b5f61082761120f565b90506108567f6d696e7465720000000000000000000000000000000000000000000000000000826105a4611218565b6106d08187878787878080601f0160208091040260200160405190810160405280939291908181526020018383808284375f9201919091525061089c9250610f6c915050565b9493929190611ebb565b6108b16106f961120f565b610756816108bd6118a3565b90611fc7565b6108ce6106f961120f565b8483811480156108dd57508082145b610948576040517f08c379a000000000000000000000000000000000000000000000000000000000815260206004820152601d60248201527f5265636f766572793a20696e636f6e73697374656e742061727261797300000060448201526064015b60405180910390fd5b5f5b818114610659576109d888888381811061096657610966613d4f565b905060200201602081019061097b9190613921565b85858481811061098d5761098d613d4f565b905060200201358888858181106109a6576109a6613d4f565b90506020020160208101906109bb9190613921565b73ffffffffffffffffffffffffffffffffffffffff16919061204d565b60010161094a565b6107566109eb61120f565b826109f4611218565b91906120da565b5f610567610a076114d2565b5473ffffffffffffffffffffffffffffffffffffffff1690565b610a2c6106f961120f565b61075681610a386118a3565b9061217d565b5f6105398383610a4c611218565b5f9283526020908152604080842073ffffffffffffffffffffffffffffffffffffffff909316845291905290205460ff1690565b6060610567610a8d61114f565b6121ca565b5f610567610a9e61114f565b6002015473ffffffffffffffffffffffffffffffffffffffff1690565b8015610ad357610ad382610acd6116c7565b906121db565b610af0610ade61120f565b8383610ae8610f6c565b9291906121e5565b5050565b5f610567610a076116c7565b610b0b6106f961120f565b848381148015610b1a57508082145b610b80576040517f08c379a000000000000000000000000000000000000000000000000000000000815260206004820152601d60248201527f5265636f766572793a20696e636f6e73697374656e7420617272617973000000604482015260640161093f565b5f5b81811461065957858582818110610b9b57610b9b613d4f565b9050602002016020810190610bb09190613921565b73ffffffffffffffffffffffffffffffffffffffff166323b872dd308a8a85818110610bde57610bde613d4f565b9050602002016020810190610bf39190613921565b878786818110610c0557610c05613d4f565b6040517fffffffff0000000000000000000000000000000000000000000000000000000060e088901b16815273ffffffffffffffffffffffffffffffffffffffff9586166004820152949093166024850152506020909102013560448201526064015f604051808303815f87803b158015610c7e575f80fd5b505af1158015610c90573d5f803e3d5ffd5b50505050806001019050610b82565b5f610ca861120f565b9050610cb6816107016114d2565b6107f4838383610cc4611218565b929190612314565b5f610cd561120f565b9050610d047f6d696e7465720000000000000000000000000000000000000000000000000000826105a4611218565b6107bc818a8a808060200260200160405190810160405280939291908181526020018383602002808284375f9201919091525050604080516020808e0282810182019093528d82529093508d92508c9182918501908490808284375f9201919091525050604080516020808d0282810182019093528c82529093508c92508b9182918501908490808284375f9201919091525050604080516020601f8c018190048102820181019092528a815292508a91508990819084018382808284375f92019190915250610dd79250610f6c915050565b94939291906123dc565b5f6105398383610def610f6c565b919073ffffffffffffffffffffffffffffffffffffffff9182165f908152600193909301602090815260408085209290931684525290205460ff1690565b5f610e3661120f565b9050610e4581886107936116c7565b610e6381888888888888610e57610f6c565b969594939291906124cb565b50505050505050565b610756610e7761120f565b82610e806114d2565b91906126ad565b610e926106f961120f565b82818114610efc576040517f08c379a000000000000000000000000000000000000000000000000000000000815260206004820152601d60248201527f5265636f766572793a20696e636f6e73697374656e7420617272617973000000604482015260640161093f565b5f5b8181146106d057610f64848483818110610f1a57610f1a613d4f565b90506020020135878784818110610f3357610f33613d4f565b9050602002016020810190610f489190613921565b73ffffffffffffffffffffffffffffffffffffffff16906127d8565b600101610efe565b5f8061053c60017f5ccf5846fa27a68fafc8e588671a68f5e67c2f9b56af4263806a4d71735e8613613da9565b5f73ffffffffffffffffffffffffffffffffffffffff8316611017576040517f08c379a000000000000000000000000000000000000000000000000000000000815260206004820152601e60248201527f455243313135353a2062616c616e6365206f6620616464726573732830290000604482015260640161093f565b505f9081526020928352604080822073ffffffffffffffffffffffffffffffffffffffff9390931682529190925290205490565b5f8061053c60017fca9d3e17f264b0f3984e2634e94adb37fa3e6a8103f06aeae6fa59e21c769f5e613da9565b5f7c01000000000000000000000000000000000000000000000000000000007fffffffff000000000000000000000000000000000000000000000000000000008316016110c657505f61053c565b7ffe003659000000000000000000000000000000000000000000000000000000007fffffffff000000000000000000000000000000000000000000000000000000008316016111175750600161053c565b507fffffffff00000000000000000000000000000000000000000000000000000000165f908152602091909152604090205460ff1690565b5f8061053c60017f7ea68fd2dcf1c056b94db6a0a537aa80d26fa9ab1eacd85da1ba0b61b7e7a8a5613da9565b6060815f01805461118c90613dbc565b80601f01602080910402602001604051908101604052809291908181526020018280546111b890613dbc565b80156112035780601f106111da57610100808354040283529160200191611203565b820191905f5260205f20905b8154815290600101906020018083116111e657829003601f168201915b50505050509050919050565b5f61056761292e565b5f8061053c60017fc8827d3282af6f37b64c3e9e6f3ac9df286ab0bb0fccd6f8661bf19adb368b23613da9565b5f8281526020848152604080832073ffffffffffffffffffffffffffffffffffffffff8516845290915290205460ff166107f45761128282612a72565b6040516020016112929190613e0d565b604080517fffffffffffffffffffffffffffffffffffffffffffffffffffffffffffffffe0818403018152908290527f08c379a000000000000000000000000000000000000000000000000000000000825261093f91600401613745565b73ffffffffffffffffffffffffffffffffffffffff841661136d576040517f08c379a000000000000000000000000000000000000000000000000000000000815260206004820152601b60248201527f455243313135353a206d696e7420746f20616464726573732830290000000000604482015260640161093f565b8251825181146113d9576040517f08c379a000000000000000000000000000000000000000000000000000000000815260206004820152601c60248201527f455243313135353a20696e636f6e73697374656e742061727261797300000000604482015260640161093f565b5f5b8181146114285761142088878784815181106113f9576113f9613d4f565b602002602001015187858151811061141357611413613d4f565b6020026020010151612bfd565b6001016113db565b508473ffffffffffffffffffffffffffffffffffffffff165f73ffffffffffffffffffffffffffffffffffffffff168773ffffffffffffffffffffffffffffffffffffffff167f4a39dc06d4c0dbc64b70af90fd698a233a518aa5d07e595d983b8c0526c8f7fb878760405161149f929190613e78565b60405180910390a473ffffffffffffffffffffffffffffffffffffffff85163b15610e6357610e63865f87878787612ccf565b5f8061053c60017fc9ed16f33ab3a66c84bfd83099ccb2a8845871e2e1c1928f63797152f0fd54cd613da9565b61153461152d60017f5b388d90dc1312ba799f321972f13311234fa1163bcabec7cf66101c4876eb84613da9565b6001612df4565b610af08282612e64565b6115737fd9b67a2600000000000000000000000000000000000000000000000000000000600161156c61104b565b9190612f19565b565b6115737f0e89341c00000000000000000000000000000000000000000000000000000000600161156c61104b565b6115737f5190c92c00000000000000000000000000000000000000000000000000000000600161156c61104b565b6115737fe8ab9ccc00000000000000000000000000000000000000000000000000000000600161156c61104b565b6115737f2a55205a00000000000000000000000000000000000000000000000000000000600161156c61104b565b61165b61152d60017f92f72593ca50a0096f68ee94e7000db40ed086164b695855e2250750b8bfaf59613da9565b85611667858783613f17565b5060018601611677838583613f17565b5060029590950180547fffffffffffffffffffffffff00000000000000000000000000000000000000001673ffffffffffffffffffffffffffffffffffffffff9096169590951790945550505050565b5f8061053c60017f609b85bcafa81ecfaf3ff62cdde2c6c9082a68dbe4922f07399c706bdeb7cd31613da9565b61172261152d60017f2f02d396cb1be29636682c8684200b30a98554d3b74293aa4495cb5e1d252f6e613da9565b81547fffffffffffffffffffffffff00000000000000000000000000000000000000001673ffffffffffffffffffffffffffffffffffffffff91909116179055565b60028301546040517ff724dad700000000000000000000000000000000000000000000000000000000815273ffffffffffffffffffffffffffffffffffffffff848116600483015260248201849052606092169063f724dad7906044015f60405180830381865afa1580156117db573d5f803e3d5ffd5b505050506040513d5f823e601f3d9081017fffffffffffffffffffffffffffffffffffffffffffffffffffffffffffffffe0168201604052610816919081019061402e565b815473ffffffffffffffffffffffffffffffffffffffff828116911614610af0576040517f08c379a000000000000000000000000000000000000000000000000000000000815260206004820152601860248201527f4f776e6572736869703a206e6f7420746865206f776e65720000000000000000604482015260640161093f565b5f8061053c60017f2c0cf10337caabbd02dcf226f05f5fd19a0919a41a8df8958c39b80007826858613da9565b825473ffffffffffffffffffffffffffffffffffffffff8116905f907401000000000000000000000000000000000000000090046bffffffffffffffffffffffff1683158061191d575080155b1561192a575f915061196f565b620186a084101561195457620186a061194382866140e9565b61194d9190614100565b915061196f565b80611962620186a086614100565b61196c91906140e9565b91505b50935093915050565b8073ffffffffffffffffffffffffffffffffffffffff168273ffffffffffffffffffffffffffffffffffffffff16146107f4576107f48383613024565b73ffffffffffffffffffffffffffffffffffffffff8716611a32576040517f08c379a000000000000000000000000000000000000000000000000000000000815260206004820152601f60248201527f455243313135353a207472616e7366657220746f206164647265737328302900604482015260640161093f565b84838114611a9c576040517f08c379a000000000000000000000000000000000000000000000000000000000815260206004820152601c60248201527f455243313135353a20696e636f6e73697374656e742061727261797300000000604482015260640161093f565b611aa78b8a8c613148565b611b0d576040517f08c379a000000000000000000000000000000000000000000000000000000000815260206004820152601c60248201527f455243313135353a206e6f6e2d617070726f7665642073656e64657200000000604482015260640161093f565b5f5b818114611b5b57611b538c8b8b8b8b86818110611b2e57611b2e613d4f565b905060200201358a8a87818110611b4757611b47613d4f565b905060200201356131bb565b600101611b0f565b508773ffffffffffffffffffffffffffffffffffffffff168973ffffffffffffffffffffffffffffffffffffffff168b73ffffffffffffffffffffffffffffffffffffffff167f4a39dc06d4c0dbc64b70af90fd698a233a518aa5d07e595d983b8c0526c8f7fb8a8a8a8a604051611bd69493929190614181565b60405180910390a473ffffffffffffffffffffffffffffffffffffffff88163b15611c9c57611c9c8a8a8a8a8a808060200260200160405190810160405280939291908181526020018383602002808284375f9201919091525050604080516020808e0282810182019093528d82529093508d92508c9182918501908490808284375f9201919091525050604080516020601f8d018190048102820181019092528b815292508b91508a90819084018382808284375f92019190915250612ccf92505050565b5050505050505050505050565b5f8381526020858152604080832073ffffffffffffffffffffffffffffffffffffffff8616845290915290205460ff16611d78575f8381526020858152604080832073ffffffffffffffffffffffffffffffffffffffff8681168086529184529382902080547fffffffffffffffffffffffffffffffffffffffffffffffffffffffffffffff00166001179055815187815292830152918316918101919091527f2f8788117e7eff1d82e926ec794901d17c78024a50270940304540a733656f0d906060015b60405180910390a15b50505050565b606083828114611dea576040517f08c379a000000000000000000000000000000000000000000000000000000000815260206004820152601c60248201527f455243313135353a20696e636f6e73697374656e742061727261797300000000604482015260640161093f565b8467ffffffffffffffff811115611e0357611e03613ea5565b604051908082528060200260200182016040528015611e2c578160200160208202803683370190505b5091505f5b818114611eb057611e8b878783818110611e4d57611e4d613d4f565b9050602002016020810190611e629190613921565b868684818110611e7457611e74613d4f565b905060200201358a610f999092919063ffffffff16565b838281518110611e9d57611e9d613d4f565b6020908102919091010152600101611e31565b505095945050505050565b73ffffffffffffffffffffffffffffffffffffffff8416611f38576040517f08c379a000000000000000000000000000000000000000000000000000000000815260206004820152601b60248201527f455243313135353a206d696e7420746f20616464726573732830290000000000604482015260640161093f565b611f4486858585612bfd565b604080518481526020810184905273ffffffffffffffffffffffffffffffffffffffff808716925f92918916917fc3d58168c5ae7397731d063d5bbf3d657854427343f4c083240f7aacaa2d0f62910160405180910390a473ffffffffffffffffffffffffffffffffffffffff84163b156106d0576106d0855f8686868661336c565b620186a0811115612007576040517f3affc6c40000000000000000000000000000000000000000000000000000000081526004810182905260240161093f565b81546bffffffffffffffffffffffff909116740100000000000000000000000000000000000000000273ffffffffffffffffffffffffffffffffffffffff909116179055565b6040805173ffffffffffffffffffffffffffffffffffffffff8416602482015260448082018490528251808303909101815260649091019091526020810180517bffffffffffffffffffffffffffffffffffffffffffffffffffffffff167fa9059cbb000000000000000000000000000000000000000000000000000000001790526107f49084906133c8565b6120e5838284611245565b5f8181526020848152604080832073ffffffffffffffffffffffffffffffffffffffff86168085529083529281902080547fffffffffffffffffffffffffffffffffffffffffffffffffffffffffffffff0016905580518481529182018390528101919091527ff6391f5c32d9c69d2a47ea670b442974b53935d1edc7fd64eb21e047a839171b9060600160405180910390a1505050565b73ffffffffffffffffffffffffffffffffffffffff8116611722576040517f6fe1b4c800000000000000000000000000000000000000000000000000000000815260040160405180910390fd5b606081600101805461118c90613dbc565b610af08282613024565b8273ffffffffffffffffffffffffffffffffffffffff168273ffffffffffffffffffffffffffffffffffffffff160361227a576040517f08c379a000000000000000000000000000000000000000000000000000000000815260206004820152601e60248201527f455243313135353a2073656c662d617070726f76616c20666f7220616c6c0000604482015260640161093f565b73ffffffffffffffffffffffffffffffffffffffff8381165f81815260018701602090815260408083209487168084529482529182902080547fffffffffffffffffffffffffffffffffffffffffffffffffffffffffffffff001686151590811790915591519182527f17307eab39ab6107e8899845ad3d59bd9653f200f220920489ca2b5937696c31910160405180910390a350505050565b5f8381526020858152604080832073ffffffffffffffffffffffffffffffffffffffff8616845290915290205460ff1615611d78575f8381526020858152604080832073ffffffffffffffffffffffffffffffffffffffff8681168086529184529382902080547fffffffffffffffffffffffffffffffffffffffffffffffffffffffffffffff00169055815187815292830152918316918101919091527ff6391f5c32d9c69d2a47ea670b442974b53935d1edc7fd64eb21e047a839171b90606001611d6f565b83518351811480156123ee5750825181145b612454576040517f08c379a000000000000000000000000000000000000000000000000000000000815260206004820152601c60248201527f455243313135353a20696e636f6e73697374656e742061727261797300000000604482015260640161093f565b5f5b818114610659576124c38787838151811061247357612473613d4f565b602002602001015187848151811061248d5761248d613d4f565b60200260200101518785815181106124a7576124a7613d4f565b6020026020010151878d611ebb9095949392919063ffffffff16565b600101612456565b73ffffffffffffffffffffffffffffffffffffffff8516612548576040517f08c379a000000000000000000000000000000000000000000000000000000000815260206004820152601f60248201527f455243313135353a207472616e7366657220746f206164647265737328302900604482015260640161093f565b612553888789613148565b6125b9576040517f08c379a000000000000000000000000000000000000000000000000000000000815260206004820152601c60248201527f455243313135353a206e6f6e2d617070726f7665642073656e64657200000000604482015260640161093f565b6125c688878787876131bb565b8473ffffffffffffffffffffffffffffffffffffffff168673ffffffffffffffffffffffffffffffffffffffff168873ffffffffffffffffffffffffffffffffffffffff167fc3d58168c5ae7397731d063d5bbf3d657854427343f4c083240f7aacaa2d0f628787604051612645929190918252602082015260400190565b60405180910390a473ffffffffffffffffffffffffffffffffffffffff85163b1561065957610659878787878787878080601f0160208091040260200160405190810160405280939291908181526020018383808284375f9201919091525061336c92505050565b825473ffffffffffffffffffffffffffffffffffffffff9081169083168114612732576040517f08c379a000000000000000000000000000000000000000000000000000000000815260206004820152601860248201527f4f776e6572736869703a206e6f7420746865206f776e65720000000000000000604482015260640161093f565b8173ffffffffffffffffffffffffffffffffffffffff168173ffffffffffffffffffffffffffffffffffffffff1614611d785783547fffffffffffffffffffffffff00000000000000000000000000000000000000001673ffffffffffffffffffffffffffffffffffffffff8381169182178655604051908316907f8be0079c531659141344cd1fd0a4f28419497f9722a3daafe3b4186f6b6457e0905f90a350505050565b80471015612842576040517f08c379a000000000000000000000000000000000000000000000000000000000815260206004820152601d60248201527f416464726573733a20696e73756666696369656e742062616c616e6365000000604482015260640161093f565b5f8273ffffffffffffffffffffffffffffffffffffffff16826040515f6040518083038185875af1925050503d805f8114612898576040519150601f19603f3d011682016040523d82523d5f602084013e61289d565b606091505b50509050806107f4576040517f08c379a000000000000000000000000000000000000000000000000000000000815260206004820152603a60248201527f416464726573733a20756e61626c6520746f2073656e642076616c75652c207260448201527f6563697069656e74206d61792068617665207265766572746564000000000000606482015260840161093f565b5f3332148061293d5750601836105b1561294757503390565b7fffffffffffffffffffffffffffffffffffffffffffffffffffffffffffffffec36013560601c7f000000000000000000000000000000000000000000000000000000000000000073ffffffffffffffffffffffffffffffffffffffff16331480612a6157506040517f8929a8ca00000000000000000000000000000000000000000000000000000000815273ffffffffffffffffffffffffffffffffffffffff82811660048301523360248301527f00000000000000000000000000000000000000000000000000000000000000001690638929a8ca90604401602060405180830381865afa158015612a3d573d5f803e3d5ffd5b505050506040513d601f19601f82011682018060405250810190612a6191906141a7565b15612a6b57919050565b3391505090565b60605f829003612a8f57505060408051602081019091525f815290565b5f82604051602001612aa391815260200190565b604080517fffffffffffffffffffffffffffffffffffffffffffffffffffffffffffffffe08184030181529190529050601f5b818181518110612ae857612ae8613d4f565b01602001517fff00000000000000000000000000000000000000000000000000000000000000165f03612b3c577fffffffffffffffffffffffffffffffffffffffffffffffffffffffffffffffff01612ad6565b5f8160010167ffffffffffffffff811115612b5957612b59613ea5565b6040519080825280601f01601f191660200182016040528015612b83576020820181803683370190505b5090505f5b828111612bf457838181518110612ba157612ba1613d4f565b602001015160f81c60f81b828281518110612bbe57612bbe613d4f565b60200101907effffffffffffffffffffffffffffffffffffffffffffffffffffffffffffff191690815f1a905350600101612b88565b50949350505050565b8015611d78575f8281526020858152604080832073ffffffffffffffffffffffffffffffffffffffff87168452909152902054818101818111612c9c576040517f08c379a000000000000000000000000000000000000000000000000000000000815260206004820152601960248201527f455243313135353a2062616c616e6365206f766572666c6f7700000000000000604482015260640161093f565b5f9384526020958652604080852073ffffffffffffffffffffffffffffffffffffffff9690961685529490955250502055565b6040517fbc197c81000000000000000000000000000000000000000000000000000000008082529073ffffffffffffffffffffffffffffffffffffffff86169063bc197c8190612d2b908a908a908990899089906004016141c2565b6020604051808303815f875af1158015612d47573d5f803e3d5ffd5b505050506040513d601f19601f82011682018060405250810190612d6b919061422c565b7fffffffff0000000000000000000000000000000000000000000000000000000016146106d0576040517f08c379a000000000000000000000000000000000000000000000000000000000815260206004820152601a60248201527f455243313135353a207472616e736665722072656a6563746564000000000000604482015260640161093f565b815482908211612e60576040517f08c379a000000000000000000000000000000000000000000000000000000000815260206004820152601660248201527f53746f726167653a207068617365207265616368656400000000000000000000604482015260640161093f565b5550565b73ffffffffffffffffffffffffffffffffffffffff811615612eeb5781547fffffffffffffffffffffffff00000000000000000000000000000000000000001673ffffffffffffffffffffffffffffffffffffffff821690811783556040515f907f8be0079c531659141344cd1fd0a4f28419497f9722a3daafe3b4186f6b6457e0908290a35b610af07f7f5828d000000000000000000000000000000000000000000000000000000000600161156c61104b565b7c01000000000000000000000000000000000000000000000000000000007fffffffff00000000000000000000000000000000000000000000000000000000831601612fc1576040517f08c379a000000000000000000000000000000000000000000000000000000000815260206004820152601f60248201527f496e74657266616365446574656374696f6e3a2077726f6e672076616c756500604482015260640161093f565b7fffffffff00000000000000000000000000000000000000000000000000000000919091165f908152602092909252604090912080547fffffffffffffffffffffffffffffffffffffffffffffffffffffffffffffff0016911515919091179055565b815473ffffffffffffffffffffffffffffffffffffffff16801580159061306157505f8173ffffffffffffffffffffffffffffffffffffffff163b115b156107f4576040517fc617113400000000000000000000000000000000000000000000000000000000815230600482015273ffffffffffffffffffffffffffffffffffffffff838116602483015282169063c617113490604401602060405180830381865afa1580156130d6573d5f803e3d5ffd5b505050506040513d601f19601f820116820180604052508101906130fa91906141a7565b6107f4576040517fede71dcc00000000000000000000000000000000000000000000000000000000815273ffffffffffffffffffffffffffffffffffffffff8316600482015260240161093f565b5f8173ffffffffffffffffffffffffffffffffffffffff168373ffffffffffffffffffffffffffffffffffffffff16148061081657505073ffffffffffffffffffffffffffffffffffffffff9182165f908152600193909301602090815260408085209290931684525290205460ff1690565b8015613365575f8281526020868152604080832073ffffffffffffffffffffffffffffffffffffffff8816845290915290205481810381811061325a576040517f08c379a000000000000000000000000000000000000000000000000000000000815260206004820152601d60248201527f455243313135353a20696e73756666696369656e742062616c616e6365000000604482015260640161093f565b8473ffffffffffffffffffffffffffffffffffffffff168673ffffffffffffffffffffffffffffffffffffffff1614610e63575f8481526020888152604080832073ffffffffffffffffffffffffffffffffffffffff89168452909152902054838101818111613326576040517f08c379a000000000000000000000000000000000000000000000000000000000815260206004820152601960248201527f455243313135353a2062616c616e6365206f766572666c6f7700000000000000604482015260640161093f565b5f86815260208a8152604080832073ffffffffffffffffffffffffffffffffffffffff808d1685528184528285208890558b1684529091529020555050505b5050505050565b6040517ff23a6e61000000000000000000000000000000000000000000000000000000008082529073ffffffffffffffffffffffffffffffffffffffff86169063f23a6e6190612d2b908a908a90899089908990600401614247565b5f613429826040518060400160405280602081526020017f5361666545524332303a206c6f772d6c6576656c2063616c6c206661696c65648152508573ffffffffffffffffffffffffffffffffffffffff166134d59092919063ffffffff16565b905080515f148061344957508080602001905181019061344991906141a7565b6107f4576040517f08c379a000000000000000000000000000000000000000000000000000000000815260206004820152602a60248201527f5361666545524332303a204552433230206f7065726174696f6e20646964206e60448201527f6f74207375636365656400000000000000000000000000000000000000000000606482015260840161093f565b606061081684845f85855f808673ffffffffffffffffffffffffffffffffffffffff168587604051613507919061428b565b5f6040518083038185875af1925050503d805f8114613541576040519150601f19603f3d011682016040523d82523d5f602084013e613546565b606091505b509150915061355787838387613562565b979650505050505050565b606083156135f75782515f036135f05773ffffffffffffffffffffffffffffffffffffffff85163b6135f0576040517f08c379a000000000000000000000000000000000000000000000000000000000815260206004820152601d60248201527f416464726573733a2063616c6c20746f206e6f6e2d636f6e7472616374000000604482015260640161093f565b5081610816565b610816838381511561360c5781518083602001fd5b806040517f08c379a000000000000000000000000000000000000000000000000000000000815260040161093f9190613745565b73ffffffffffffffffffffffffffffffffffffffff81168114610756575f80fd5b5f8060408385031215613672575f80fd5b823561367d81613640565b946020939093013593505050565b7fffffffff0000000000000000000000000000000000000000000000000000000081168114610756575f80fd5b5f602082840312156136c8575f80fd5b81356136d38161368b565b9392505050565b5f5b838110156136f45781810151838201526020016136dc565b50505f910152565b5f81518084526137138160208601602086016136da565b601f017fffffffffffffffffffffffffffffffffffffffffffffffffffffffffffffffe0169290920160200192915050565b602081525f61053960208301846136fc565b5f8083601f840112613767575f80fd5b50813567ffffffffffffffff81111561377e575f80fd5b6020830191508360208260051b8501011115610774575f80fd5b5f8083601f8401126137a8575f80fd5b50813567ffffffffffffffff8111156137bf575f80fd5b602083019150836020828501011115610774575f80fd5b5f805f805f805f6080888a0312156137ec575f80fd5b87356137f781613640565b9650602088013567ffffffffffffffff80821115613813575f80fd5b61381f8b838c01613757565b909850965060408a0135915080821115613837575f80fd5b6138438b838c01613757565b909650945060608a013591508082111561385b575f80fd5b506138688a828b01613798565b989b979a50959850939692959293505050565b5f805f805f8060808789031215613890575f80fd5b863567ffffffffffffffff808211156138a7575f80fd5b6138b38a838b01613798565b909850965060208901359150808211156138cb575f80fd5b506138d889828a01613798565b90955093505060408701356138ec81613640565b915060608701356138fc81613640565b809150509295509295509295565b5f6020828403121561391a575f80fd5b5035919050565b5f60208284031215613931575f80fd5b81356136d381613640565b5f806040838503121561394d575f80fd5b50508035926020909101359150565b5f805f805f805f8060a0898b031215613973575f80fd5b883561397e81613640565b9750602089013561398e81613640565b9650604089013567ffffffffffffffff808211156139aa575f80fd5b6139b68c838d01613757565b909850965060608b01359150808211156139ce575f80fd5b6139da8c838d01613757565b909650945060808b01359150808211156139f2575f80fd5b506139ff8b828c01613798565b999c989b5096995094979396929594505050565b5f8060408385031215613a24575f80fd5b823591506020830135613a3681613640565b809150509250929050565b5f805f8060408587031215613a54575f80fd5b843567ffffffffffffffff80821115613a6b575f80fd5b613a7788838901613757565b90965094506020870135915080821115613a8f575f80fd5b50613a9c87828801613757565b95989497509550505050565b5f8151808452602080850194508084015f5b83811015613ad657815187529582019590820190600101613aba565b509495945050505050565b602081525f6105396020830184613aa8565b5f805f805f60808688031215613b07575f80fd5b8535613b1281613640565b94506020860135935060408601359250606086013567ffffffffffffffff811115613b3b575f80fd5b613b4788828901613798565b969995985093965092949392505050565b5f805f805f8060608789031215613b6d575f80fd5b863567ffffffffffffffff80821115613b84575f80fd5b613b908a838b01613757565b90985096506020890135915080821115613ba8575f80fd5b613bb48a838b01613757565b90965094506040890135915080821115613bcc575f80fd5b50613bd989828a01613757565b979a9699509497509295939492505050565b8015158114610756575f80fd5b5f8060408385031215613c09575f80fd5b8235613c1481613640565b91506020830135613a3681613beb565b5f805f805f805f806080898b031215613c3b575f80fd5b883567ffffffffffffffff80821115613c52575f80fd5b613c5e8c838d01613757565b909a50985060208b0135915080821115613c76575f80fd5b613c828c838d01613757565b909850965060408b0135915080821115613c9a575f80fd5b613ca68c838d01613757565b909650945060608b01359150808211156139f2575f80fd5b5f8060408385031215613ccf575f80fd5b8235613cda81613640565b91506020830135613a3681613640565b5f805f805f8060a08789031215613cff575f80fd5b8635613d0a81613640565b95506020870135613d1a81613640565b94506040870135935060608701359250608087013567ffffffffffffffff811115613d43575f80fd5b613bd989828a01613798565b7f4e487b71000000000000000000000000000000000000000000000000000000005f52603260045260245ffd5b7f4e487b71000000000000000000000000000000000000000000000000000000005f52601160045260245ffd5b8181038181111561053c5761053c613d7c565b600181811c90821680613dd057607f821691505b602082108103613e07577f4e487b71000000000000000000000000000000000000000000000000000000005f52602260045260245ffd5b50919050565b7f416363657373436f6e74726f6c3a206d697373696e672027000000000000000081525f8251613e448160188501602087016136da565b7f2720726f6c6500000000000000000000000000000000000000000000000000006018939091019283015250601e01919050565b604081525f613e8a6040830185613aa8565b8281036020840152613e9c8185613aa8565b95945050505050565b7f4e487b71000000000000000000000000000000000000000000000000000000005f52604160045260245ffd5b601f8211156107f4575f81815260208120601f850160051c81016020861015613ef85750805b601f850160051c820191505b818110156106d057828155600101613f04565b67ffffffffffffffff831115613f2f57613f2f613ea5565b613f4383613f3d8354613dbc565b83613ed2565b5f601f841160018114613f93575f8515613f5d5750838201355b7fffffffffffffffffffffffffffffffffffffffffffffffffffffffffffffffff600387901b1c1916600186901b178355613365565b5f838152602090207fffffffffffffffffffffffffffffffffffffffffffffffffffffffffffffffe0861690835b82811015613fe15786850135825560209485019460019092019101613fc1565b508682101561401c577fffffffffffffffffffffffffffffffffffffffffffffffffffffffffffffffff60f88860031b161c19848701351681555b505060018560011b0183555050505050565b5f6020828403121561403e575f80fd5b815167ffffffffffffffff80821115614055575f80fd5b818401915084601f830112614068575f80fd5b81518181111561407a5761407a613ea5565b604051601f82017fffffffffffffffffffffffffffffffffffffffffffffffffffffffffffffffe0908116603f011681019083821181831017156140c0576140c0613ea5565b816040528281528760208487010111156140d8575f80fd5b6135578360208301602088016136da565b808202811582820484141761053c5761053c613d7c565b5f82614133577f4e487b71000000000000000000000000000000000000000000000000000000005f52601260045260245ffd5b500490565b8183525f7f07ffffffffffffffffffffffffffffffffffffffffffffffffffffffffffffff831115614168575f80fd5b8260051b80836020870137939093016020019392505050565b604081525f614194604083018688614138565b8281036020840152613557818587614138565b5f602082840312156141b7575f80fd5b81516136d381613beb565b5f73ffffffffffffffffffffffffffffffffffffffff808816835280871660208401525060a060408301526141fa60a0830186613aa8565b828103606084015261420c8186613aa8565b9050828103608084015261422081856136fc565b98975050505050505050565b5f6020828403121561423c575f80fd5b81516136d38161368b565b5f73ffffffffffffffffffffffffffffffffffffffff808816835280871660208401525084604083015283606083015260a0608083015261355760a08301846136fc565b5f825161429c8184602087016136da565b919091019291505056fea2646970667358221220087eebf8e4180534870e26c857f7d3bc39421a11a796433a757123069293fd8264736f6c63430008150033",
  "linkReferences": {},
  "deployedLinkReferences": {}
}