{
  "_format": "hh-sol-artifact-1",
  "contractName": "ERC721ReceiverMock",
  "sourceName": "contracts/mocks/token/ERC721/ERC721ReceiverMock.sol",
  "abi": [
    {
      "inputs": [
        {
          "internalType": "bool",
          "name": "accept721",
          "type": "bool"
        },
        {
          "internalType": "address",
          "name": "tokenAddress",
          "type": "address"
        }
      ],
      "stateMutability": "nonpayable",
      "type": "constructor"
    },
    {
      "anonymous": false,
      "inputs": [
        {
          "indexed": false,
          "internalType": "address",
          "name": "operator",
          "type": "address"
        },
        {
          "indexed": false,
          "internalType": "address",
          "name": "from",
          "type": "address"
        },
        {
          "indexed": false,
          "internalType": "uint256",
          "name": "tokenId",
          "type": "uint256"
        },
        {
          "indexed": false,
          "internalType": "bytes",
          "name": "data",
          "type": "bytes"
        },
        {
          "indexed": false,
          "internalType": "uint256",
          "name": "gas",
          "type": "uint256"
        }
      ],
      "name": "Received",
      "type": "event"
    },
    {
      "inputs": [
        {
          "internalType": "address",
          "name": "operator",
          "type": "address"
        },
        {
          "internalType": "address",
          "name": "from",
          "type": "address"
        },
        {
          "internalType": "uint256",
          "name": "tokenId",
          "type": "uint256"
        },
        {
          "internalType": "bytes",
          "name": "data",
          "type": "bytes"
        }
      ],
      "name": "onERC721Received",
      "outputs": [
        {
          "internalType": "bytes4",
          "name": "",
          "type": "bytes4"
        }
      ],
      "stateMutability": "nonpayable",
      "type": "function"
    },
    {
      "inputs": [
        {
          "internalType": "bytes4",
          "name": "interfaceId",
          "type": "bytes4"
        }
      ],
      "name": "supportsInterface",
      "outputs": [
        {
          "internalType": "bool",
          "name": "",
          "type": "bool"
        }
      ],
      "stateMutability": "view",
      "type": "function"
    }
  ],
  "bytecode": "0x60c060405234801561001057600080fd5b5060405161089d38038061089d83398101604081905261002f9161013b565b610061630a85bd0160e11b600161004e61007860201b6101ff1760201c565b6100ac60201b61022d179092919060201c565b9015156080526001600160a01b031660a0526101ab565b6000806100a660017fca9d3e17f264b0f3984e2634e94adb37fa3e6a8103f06aeae6fa59e21c769f5e610186565b92915050565b600160e01b6001600160e01b031983160161010d5760405162461bcd60e51b815260206004820152601f60248201527f496e74657266616365446574656374696f6e3a2077726f6e672076616c756500604482015260640160405180910390fd5b6001600160e01b03199190911660009081526020929092526040909120805460ff1916911515919091179055565b6000806040838503121561014e57600080fd5b8251801515811461015e57600080fd5b60208401519092506001600160a01b038116811461017b57600080fd5b809150509250929050565b6000828210156101a657634e487b7160e01b600052601160045260246000fd5b500390565b60805160a0516106ce6101cf600039600060db0152600061016901526106ce6000f3fe608060405234801561001057600080fd5b50600436106100365760003560e01c806301ffc9a71461003b578063150b7a0214610063575b600080fd5b61004e610049366004610413565b6100a7565b60405190151581526020015b60405180910390f35b6100766100713660046104b4565b6100c1565b6040517fffffffff00000000000000000000000000000000000000000000000000000000909116815260200161005a565b60006100bb826100b56101ff565b90610339565b92915050565b60003373ffffffffffffffffffffffffffffffffffffffff7f00000000000000000000000000000000000000000000000000000000000000001614610167576040517f08c379a000000000000000000000000000000000000000000000000000000000815260206004820152601b60248201527f45524337323152656365697665723a2077726f6e6720746f6b656e000000000060448201526064015b60405180910390fd5b7f0000000000000000000000000000000000000000000000000000000000000000156101f3577f28fa6e16458f9c24aa59ddd4085264573006dbe30304837873c7deafc702b038858585855a6040516101c49594939291906105ae565b60405180910390a1507f150b7a02000000000000000000000000000000000000000000000000000000006101f7565b5060005b949350505050565b6000806100bb60017fca9d3e17f264b0f3984e2634e94adb37fa3e6a8103f06aeae6fa59e21c769f5e61065a565b7c01000000000000000000000000000000000000000000000000000000007fffffffff000000000000000000000000000000000000000000000000000000008316016102d5576040517f08c379a000000000000000000000000000000000000000000000000000000000815260206004820152601f60248201527f496e74657266616365446574656374696f6e3a2077726f6e672076616c756500604482015260640161015e565b7fffffffff00000000000000000000000000000000000000000000000000000000919091166000908152602092909252604090912080547fffffffffffffffffffffffffffffffffffffffffffffffffffffffffffffff0016911515919091179055565b60007c01000000000000000000000000000000000000000000000000000000007fffffffff00000000000000000000000000000000000000000000000000000000831601610389575060006100bb565b7ffe003659000000000000000000000000000000000000000000000000000000007fffffffff000000000000000000000000000000000000000000000000000000008316016103da575060016100bb565b507fffffffff00000000000000000000000000000000000000000000000000000000166000908152602091909152604090205460ff1690565b60006020828403121561042557600080fd5b81357fffffffff000000000000000000000000000000000000000000000000000000008116811461045557600080fd5b9392505050565b803573ffffffffffffffffffffffffffffffffffffffff8116811461048057600080fd5b919050565b7f4e487b7100000000000000000000000000000000000000000000000000000000600052604160045260246000fd5b600080600080608085870312156104ca57600080fd5b6104d38561045c565b93506104e16020860161045c565b925060408501359150606085013567ffffffffffffffff8082111561050557600080fd5b818701915087601f83011261051957600080fd5b81358181111561052b5761052b610485565b604051601f82017fffffffffffffffffffffffffffffffffffffffffffffffffffffffffffffffe0908116603f0116810190838211818310171561057157610571610485565b816040528281528a602084870101111561058a57600080fd5b82602086016020830137600060208483010152809550505050505092959194509250565b600073ffffffffffffffffffffffffffffffffffffffff808816835260208188168185015286604085015260a06060850152855191508160a085015260005b828110156106095786810182015185820160c0015281016105ed565b8281111561061b57600060c084870101525b5050608083019390935250601f919091017fffffffffffffffffffffffffffffffffffffffffffffffffffffffffffffffe0160160c001949350505050565b600082821015610693577f4e487b7100000000000000000000000000000000000000000000000000000000600052601160045260246000fd5b50039056fea2646970667358221220220e6e9b71fb303aa07ae4c790651a781420868891964f61d6936a1ea3476c9664736f6c634300080e0033",
  "linkReferences": {},
  "deployedLinkReferences": {}
}