{
  "_format": "hh-sol-artifact-1",
  "contractName": "ERC721ReceiverMock",
  "sourceName": "contracts/mocks/token/ERC721/ERC721ReceiverMock.sol",
  "abi": [
    {
      "inputs": [
        {
          "internalType": "bool",
          "name": "accept721",
          "type": "bool"
        },
        {
          "internalType": "address",
          "name": "tokenAddress",
          "type": "address"
        }
      ],
      "stateMutability": "nonpayable",
      "type": "constructor"
    },
    {
      "anonymous": false,
      "inputs": [
        {
          "indexed": false,
          "internalType": "address",
          "name": "operator",
          "type": "address"
        },
        {
          "indexed": false,
          "internalType": "address",
          "name": "from",
          "type": "address"
        },
        {
          "indexed": false,
          "internalType": "uint256",
          "name": "tokenId",
          "type": "uint256"
        },
        {
          "indexed": false,
          "internalType": "bytes",
          "name": "data",
          "type": "bytes"
        },
        {
          "indexed": false,
          "internalType": "uint256",
          "name": "gas",
          "type": "uint256"
        }
      ],
      "name": "Received",
      "type": "event"
    },
    {
      "inputs": [
        {
          "internalType": "address",
          "name": "operator",
          "type": "address"
        },
        {
          "internalType": "address",
          "name": "from",
          "type": "address"
        },
        {
          "internalType": "uint256",
          "name": "tokenId",
          "type": "uint256"
        },
        {
          "internalType": "bytes",
          "name": "data",
          "type": "bytes"
        }
      ],
      "name": "onERC721Received",
      "outputs": [
        {
          "internalType": "bytes4",
          "name": "",
          "type": "bytes4"
        }
      ],
      "stateMutability": "nonpayable",
      "type": "function"
    },
    {
      "inputs": [
        {
          "internalType": "bytes4",
          "name": "interfaceId",
          "type": "bytes4"
        }
      ],
      "name": "supportsInterface",
      "outputs": [
        {
          "internalType": "bool",
          "name": "",
          "type": "bool"
        }
      ],
      "stateMutability": "view",
      "type": "function"
    }
  ],
  "bytecode": "0x60c060405234801561001057600080fd5b5060405161088138038061088183398101604081905261002f91610138565b610061630a85bd0160e11b600161004e61007860201b61021e1760201c565b6100ac60201b61024c179092919060201c565b9015156080526001600160a01b031660a0526101a8565b6000806100a660017fca9d3e17f264b0f3984e2634e94adb37fa3e6a8103f06aeae6fa59e21c769f5e610183565b92915050565b6001600160e01b0319808316900361010a5760405162461bcd60e51b815260206004820152601f60248201527f496e74657266616365446574656374696f6e3a2077726f6e672076616c756500604482015260640160405180910390fd5b6001600160e01b03199190911660009081526020929092526040909120805460ff1916911515919091179055565b6000806040838503121561014b57600080fd5b8251801515811461015b57600080fd5b60208401519092506001600160a01b038116811461017857600080fd5b809150509250929050565b6000828210156101a357634e487b7160e01b600052601160045260246000fd5b500390565b60805160a0516106b56101cc600039600060db0152600061016901526106b56000f3fe608060405234801561001057600080fd5b50600436106100365760003560e01c806301ffc9a71461003b578063150b7a0214610063575b600080fd5b61004e6100493660046103fa565b6100a7565b60405190151581526020015b60405180910390f35b61007661007136600461049b565b6100c1565b6040517fffffffff00000000000000000000000000000000000000000000000000000000909116815260200161005a565b60006100bb826100b561021e565b9061033c565b92915050565b60003373ffffffffffffffffffffffffffffffffffffffff7f00000000000000000000000000000000000000000000000000000000000000001614610167576040517f08c379a000000000000000000000000000000000000000000000000000000000815260206004820152601b60248201527f45524337323152656365697665723a2077726f6e6720746f6b656e000000000060448201526064015b60405180910390fd5b7f0000000000000000000000000000000000000000000000000000000000000000156101f3577f28fa6e16458f9c24aa59ddd4085264573006dbe30304837873c7deafc702b038858585855a6040516101c4959493929190610595565b60405180910390a1507f150b7a0200000000000000000000000000000000000000000000000000000000610216565b507fffffffff000000000000000000000000000000000000000000000000000000005b949350505050565b6000806100bb60017fca9d3e17f264b0f3984e2634e94adb37fa3e6a8103f06aeae6fa59e21c769f5e610641565b7fffffffff0000000000000000000000000000000000000000000000000000000080831690036102d8576040517f08c379a000000000000000000000000000000000000000000000000000000000815260206004820152601f60248201527f496e74657266616365446574656374696f6e3a2077726f6e672076616c756500604482015260640161015e565b7fffffffff00000000000000000000000000000000000000000000000000000000919091166000908152602092909252604090912080547fffffffffffffffffffffffffffffffffffffffffffffffffffffffffffffff0016911515919091179055565b60007fffffffff000000000000000000000000000000000000000000000000000000008083169003610370575060006100bb565b7ffe003659000000000000000000000000000000000000000000000000000000007fffffffff000000000000000000000000000000000000000000000000000000008316016103c1575060016100bb565b507fffffffff00000000000000000000000000000000000000000000000000000000166000908152602091909152604090205460ff1690565b60006020828403121561040c57600080fd5b81357fffffffff000000000000000000000000000000000000000000000000000000008116811461043c57600080fd5b9392505050565b803573ffffffffffffffffffffffffffffffffffffffff8116811461046757600080fd5b919050565b7f4e487b7100000000000000000000000000000000000000000000000000000000600052604160045260246000fd5b600080600080608085870312156104b157600080fd5b6104ba85610443565b93506104c860208601610443565b925060408501359150606085013567ffffffffffffffff808211156104ec57600080fd5b818701915087601f83011261050057600080fd5b8135818111156105125761051261046c565b604051601f82017fffffffffffffffffffffffffffffffffffffffffffffffffffffffffffffffe0908116603f011681019083821181831017156105585761055861046c565b816040528281528a602084870101111561057157600080fd5b82602086016020830137600060208483010152809550505050505092959194509250565b600073ffffffffffffffffffffffffffffffffffffffff808816835260208188168185015286604085015260a06060850152855191508160a085015260005b828110156105f05786810182015185820160c0015281016105d4565b8281111561060257600060c084870101525b5050608083019390935250601f919091017fffffffffffffffffffffffffffffffffffffffffffffffffffffffffffffffe0160160c001949350505050565b60008282101561067a577f4e487b7100000000000000000000000000000000000000000000000000000000600052601160045260246000fd5b50039056fea2646970667358221220b959d53566f22ad92e949502b633baf28171e4dcb7fb8e7ab45af8e153c276de64736f6c634300080e0033",
  "linkReferences": {},
  "deployedLinkReferences": {}
}