{
  "_format": "hh-sol-artifact-1",
  "contractName": "OperatorFiltererFacet",
  "sourceName": "contracts/token/royalty/facets/OperatorFiltererFacet.sol",
  "abi": [
    {
      "inputs": [
        {
          "internalType": "contract IForwarderRegistry",
          "name": "forwarderRegistry",
          "type": "address"
        }
      ],
      "stateMutability": "nonpayable",
      "type": "constructor"
    },
    {
      "inputs": [
        {
          "internalType": "contract IOperatorFilterRegistry",
          "name": "operatorFilterRegistry",
          "type": "address"
        }
      ],
      "name": "initOperatorFilterer",
      "outputs": [],
      "stateMutability": "nonpayable",
      "type": "function"
    },
    {
      "inputs": [],
      "name": "operatorFilterRegistry",
      "outputs": [
        {
          "internalType": "contract IOperatorFilterRegistry",
          "name": "",
          "type": "address"
        }
      ],
      "stateMutability": "view",
      "type": "function"
    },
    {
      "inputs": [
        {
          "internalType": "contract IOperatorFilterRegistry",
          "name": "registry",
          "type": "address"
        }
      ],
      "name": "updateOperatorFilterRegistry",
      "outputs": [],
      "stateMutability": "nonpayable",
      "type": "function"
    }
  ],
  "bytecode": "0x60a060405234801561000f575f80fd5b5060405161067f38038061067f83398101604081905261002e9161003f565b6001600160a01b031660805261006c565b5f6020828403121561004f575f80fd5b81516001600160a01b0381168114610065575f80fd5b9392505050565b6080516105f461008b5f395f81816103bb015261044301526105f45ff3fe608060405234801561000f575f80fd5b506004361061003f575f3560e01c8063114ba8ee1461004357806330fd6a7514610058578063b0ccc31e1461006b575b5f80fd5b61005661005136600461052d565b61009c565b005b61005661006636600461052d565b610107565b610073610132565b60405173ffffffffffffffffffffffffffffffffffffffff909116815260200160405180910390f35b6100b56100a761015d565b6100af610166565b90610199565b610104816100c1610225565b9081547fffffffffffffffffffffffff00000000000000000000000000000000000000001673ffffffffffffffffffffffffffffffffffffffff91909116179055565b50565b61012061011261015d565b61011a610252565b9061027f565b6101048161012c610225565b90610302565b5f61015861013e610225565b5473ffffffffffffffffffffffffffffffffffffffff1690565b905090565b5f610158610379565b5f8061019360017fc9ed16f33ab3a66c84bfd83099ccb2a8845871e2e1c1928f63797152f0fd54cd610567565b92915050565b815473ffffffffffffffffffffffffffffffffffffffff828116911614610221576040517f08c379a000000000000000000000000000000000000000000000000000000000815260206004820152601860248201527f4f776e6572736869703a206e6f7420746865206f776e6572000000000000000060448201526064015b60405180910390fd5b5050565b5f8061019360017f609b85bcafa81ecfaf3ff62cdde2c6c9082a68dbe4922f07399c706bdeb7cd31610567565b5f8061019360017fb53127684a568b3173ae13b9f8a6016e243e63b6e8ee1178d6a717850b5d6104610567565b815473ffffffffffffffffffffffffffffffffffffffff828116911614610221576040517f08c379a000000000000000000000000000000000000000000000000000000000815260206004820152601960248201527f50726f787941646d696e3a206e6f74207468652061646d696e000000000000006044820152606401610218565b61033761033060017f2f02d396cb1be29636682c8684200b30a98554d3b74293aa4495cb5e1d252f6e610567565b60016104bd565b81547fffffffffffffffffffffffff00000000000000000000000000000000000000001673ffffffffffffffffffffffffffffffffffffffff91909116179055565b5f333214806103885750601836105b1561039257503390565b7fffffffffffffffffffffffffffffffffffffffffffffffffffffffffffffffec36013560601c7f000000000000000000000000000000000000000000000000000000000000000073ffffffffffffffffffffffffffffffffffffffff163314806104ac57506040517f8929a8ca00000000000000000000000000000000000000000000000000000000815273ffffffffffffffffffffffffffffffffffffffff82811660048301523360248301527f00000000000000000000000000000000000000000000000000000000000000001690638929a8ca90604401602060405180830381865afa158015610488573d5f803e3d5ffd5b505050506040513d601f19601f820116820180604052508101906104ac919061059f565b156104b657919050565b3391505090565b815482908211610529576040517f08c379a000000000000000000000000000000000000000000000000000000000815260206004820152601660248201527f53746f726167653a2070686173652072656163686564000000000000000000006044820152606401610218565b5550565b5f6020828403121561053d575f80fd5b813573ffffffffffffffffffffffffffffffffffffffff81168114610560575f80fd5b9392505050565b81810381811115610193577f4e487b71000000000000000000000000000000000000000000000000000000005f52601160045260245ffd5b5f602082840312156105af575f80fd5b81518015158114610560575f80fdfea2646970667358221220887f4f306fcb41224e39a1aa1ab300f74674300b016a3cb732a24bb7fa83e17264736f6c63430008150033",
  "linkReferences": {},
  "deployedLinkReferences": {}
}