{
  "_format": "hh-sol-artifact-1",
  "contractName": "OperatorFiltererFacet",
  "sourceName": "contracts/token/royalty/facets/OperatorFiltererFacet.sol",
  "abi": [
    {
      "inputs": [
        {
          "internalType": "contract IForwarderRegistry",
          "name": "forwarderRegistry",
          "type": "address"
        }
      ],
      "stateMutability": "nonpayable",
      "type": "constructor"
    },
    {
      "inputs": [
        {
          "internalType": "uint256",
          "name": "currentPhase",
          "type": "uint256"
        },
        {
          "internalType": "uint256",
          "name": "newPhase",
          "type": "uint256"
        }
      ],
      "name": "InitializationPhaseAlreadyReached",
      "type": "error"
    },
    {
      "inputs": [
        {
          "internalType": "address",
          "name": "account",
          "type": "address"
        }
      ],
      "name": "NotContractOwner",
      "type": "error"
    },
    {
      "inputs": [
        {
          "internalType": "address",
          "name": "account",
          "type": "address"
        }
      ],
      "name": "NotProxyAdmin",
      "type": "error"
    },
    {
      "inputs": [
        {
          "internalType": "contract IOperatorFilterRegistry",
          "name": "operatorFilterRegistry",
          "type": "address"
        }
      ],
      "name": "initOperatorFilterer",
      "outputs": [],
      "stateMutability": "nonpayable",
      "type": "function"
    },
    {
      "inputs": [],
      "name": "operatorFilterRegistry",
      "outputs": [
        {
          "internalType": "contract IOperatorFilterRegistry",
          "name": "",
          "type": "address"
        }
      ],
      "stateMutability": "view",
      "type": "function"
    },
    {
      "inputs": [
        {
          "internalType": "contract IOperatorFilterRegistry",
          "name": "registry",
          "type": "address"
        }
      ],
      "name": "updateOperatorFilterRegistry",
      "outputs": [],
      "stateMutability": "nonpayable",
      "type": "function"
    }
  ],
  "bytecode": "0x60a0604052348015600f57600080fd5b50604051610645380380610645833981016040819052602c91603c565b6001600160a01b0316608052606a565b600060208284031215604d57600080fd5b81516001600160a01b0381168114606357600080fd5b9392505050565b6080516105b961008c60003960008181610394015261042201526105b96000f3fe608060405234801561001057600080fd5b50600436106100415760003560e01c8063114ba8ee1461004657806330fd6a751461005b578063b0ccc31e1461006e575b600080fd5b6100596100543660046104ea565b61009f565b005b6100596100693660046104ea565b61010a565b610076610135565b60405173ffffffffffffffffffffffffffffffffffffffff909116815260200160405180910390f35b6100b86100aa610161565b6100b261016b565b9061019f565b610107816100c4610213565b9081547fffffffffffffffffffffffff00000000000000000000000000000000000000001673ffffffffffffffffffffffffffffffffffffffff91909116179055565b50565b610123610115610161565b61011d610241565b9061026f565b6101078161012f610213565b906102da565b600061015c610142610213565b5473ffffffffffffffffffffffffffffffffffffffff1690565b905090565b600061015c610351565b60008061019960017fc9ed16f33ab3a66c84bfd83099ccb2a8845871e2e1c1928f63797152f0fd54cd610527565b92915050565b815473ffffffffffffffffffffffffffffffffffffffff82811691161461020f576040517f2ef4875e00000000000000000000000000000000000000000000000000000000815273ffffffffffffffffffffffffffffffffffffffff821660048201526024015b60405180910390fd5b5050565b60008061019960017f609b85bcafa81ecfaf3ff62cdde2c6c9082a68dbe4922f07399c706bdeb7cd31610527565b60008061019960017fb53127684a568b3173ae13b9f8a6016e243e63b6e8ee1178d6a717850b5d6104610527565b815473ffffffffffffffffffffffffffffffffffffffff82811691161461020f576040517f673a31a100000000000000000000000000000000000000000000000000000000815273ffffffffffffffffffffffffffffffffffffffff82166004820152602401610206565b61030f61030860017f2f02d396cb1be29636682c8684200b30a98554d3b74293aa4495cb5e1d252f6e610527565b600161049e565b81547fffffffffffffffffffffffff00000000000000000000000000000000000000001673ffffffffffffffffffffffffffffffffffffffff91909116179055565b6000333214806103615750601836105b1561036b57503390565b7fffffffffffffffffffffffffffffffffffffffffffffffffffffffffffffffec36013560601c7f000000000000000000000000000000000000000000000000000000000000000073ffffffffffffffffffffffffffffffffffffffff1633148061048d57506040517f019a202800000000000000000000000000000000000000000000000000000000815273ffffffffffffffffffffffffffffffffffffffff82811660048301523360248301523060448301527f0000000000000000000000000000000000000000000000000000000000000000169063019a202890606401602060405180830381865afa158015610469573d6000803e3d6000fd5b505050506040513d601f19601f8201168201806040525081019061048d9190610561565b1561049757919050565b3391505090565b815482908281106104e5576040517fbf0c18ec0000000000000000000000000000000000000000000000000000000081526004810182905260248101849052604401610206565b505550565b6000602082840312156104fc57600080fd5b813573ffffffffffffffffffffffffffffffffffffffff8116811461052057600080fd5b9392505050565b81810381811115610199577f4e487b7100000000000000000000000000000000000000000000000000000000600052601160045260246000fd5b60006020828403121561057357600080fd5b8151801515811461052057600080fdfea26469706673582212201d04f9f2e0bc7ad3733c902973abc1a5480fa5e8fd554e58ed391000c6f7dfab64736f6c634300081c0033",
  "linkReferences": {},
  "deployedLinkReferences": {}
}