{
  "_format": "hh-sol-artifact-1",
  "contractName": "OperatorFiltererFacet",
  "sourceName": "contracts/token/royalty/facets/OperatorFiltererFacet.sol",
  "abi": [
    {
      "inputs": [
        {
          "internalType": "contract IForwarderRegistry",
          "name": "forwarderRegistry",
          "type": "address"
        }
      ],
      "stateMutability": "nonpayable",
      "type": "constructor"
    },
    {
      "inputs": [
        {
          "internalType": "contract IOperatorFilterRegistry",
          "name": "registry",
          "type": "address"
        }
      ],
      "name": "init",
      "outputs": [],
      "stateMutability": "nonpayable",
      "type": "function"
    },
    {
      "inputs": [],
      "name": "operatorFilterRegistry",
      "outputs": [
        {
          "internalType": "contract IOperatorFilterRegistry",
          "name": "",
          "type": "address"
        }
      ],
      "stateMutability": "view",
      "type": "function"
    },
    {
      "inputs": [
        {
          "internalType": "contract IOperatorFilterRegistry",
          "name": "registry",
          "type": "address"
        }
      ],
      "name": "updateOperatorFilterRegistry",
      "outputs": [],
      "stateMutability": "nonpayable",
      "type": "function"
    }
  ],
  "bytecode": "0x60a060405234801561001057600080fd5b5060405161069938038061069983398101604081905261002f91610040565b6001600160a01b0316608052610070565b60006020828403121561005257600080fd5b81516001600160a01b038116811461006957600080fd5b9392505050565b608051610607610092600039600081816103c4015261044c01526106076000f3fe608060405234801561001057600080fd5b50600436106100415760003560e01c8063114ba8ee1461004657806319ab453c1461005b578063b0ccc31e1461006e575b600080fd5b610059610054366004610538565b61009f565b005b610059610069366004610538565b61010a565b610076610135565b60405173ffffffffffffffffffffffffffffffffffffffff909116815260200160405180910390f35b6100b86100aa610161565b6100b261016b565b9061019f565b610107816100c461022b565b9081547fffffffffffffffffffffffff00000000000000000000000000000000000000001673ffffffffffffffffffffffffffffffffffffffff91909116179055565b50565b610123610115610161565b61011d610259565b90610287565b6101078161012f61022b565b9061030a565b600061015c61014261022b565b5473ffffffffffffffffffffffffffffffffffffffff1690565b905090565b600061015c610381565b60008061019960017fc9ed16f33ab3a66c84bfd83099ccb2a8845871e2e1c1928f63797152f0fd54cd610575565b92915050565b815473ffffffffffffffffffffffffffffffffffffffff828116911614610227576040517f08c379a000000000000000000000000000000000000000000000000000000000815260206004820152601860248201527f4f776e6572736869703a206e6f7420746865206f776e6572000000000000000060448201526064015b60405180910390fd5b5050565b60008061019960017f609b85bcafa81ecfaf3ff62cdde2c6c9082a68dbe4922f07399c706bdeb7cd31610575565b60008061019960017fb53127684a568b3173ae13b9f8a6016e243e63b6e8ee1178d6a717850b5d6104610575565b815473ffffffffffffffffffffffffffffffffffffffff828116911614610227576040517f08c379a000000000000000000000000000000000000000000000000000000000815260206004820152601960248201527f50726f787941646d696e3a206e6f74207468652061646d696e00000000000000604482015260640161021e565b61033f61033860017f2f02d396cb1be29636682c8684200b30a98554d3b74293aa4495cb5e1d252f6e610575565b60016104c8565b81547fffffffffffffffffffffffff00000000000000000000000000000000000000001673ffffffffffffffffffffffffffffffffffffffff91909116179055565b6000333214806103915750601836105b1561039b57503390565b7fffffffffffffffffffffffffffffffffffffffffffffffffffffffffffffffec36013560601c7f000000000000000000000000000000000000000000000000000000000000000073ffffffffffffffffffffffffffffffffffffffff163314806104b757506040517f8929a8ca00000000000000000000000000000000000000000000000000000000815273ffffffffffffffffffffffffffffffffffffffff82811660048301523360248301527f00000000000000000000000000000000000000000000000000000000000000001690638929a8ca90604401602060405180830381865afa158015610493573d6000803e3d6000fd5b505050506040513d601f19601f820116820180604052508101906104b791906105af565b156104c157919050565b3391505090565b815482908211610534576040517f08c379a000000000000000000000000000000000000000000000000000000000815260206004820152601660248201527f53746f726167653a207068617365207265616368656400000000000000000000604482015260640161021e565b5550565b60006020828403121561054a57600080fd5b813573ffffffffffffffffffffffffffffffffffffffff8116811461056e57600080fd5b9392505050565b81810381811115610199577f4e487b7100000000000000000000000000000000000000000000000000000000600052601160045260246000fd5b6000602082840312156105c157600080fd5b8151801515811461056e57600080fdfea264697066735822122007d2e0547a349a397dd4ce0f81c3c61ca9d7f0c4f659e2906dd7b04fb8dc9b1464736f6c63430008110033",
  "linkReferences": {},
  "deployedLinkReferences": {}
}