{
  "_format": "hh-sol-artifact-1",
  "contractName": "ERC721Full",
  "sourceName": "contracts/token/ERC721/preset/ERC721Full.sol",
  "abi": [
    {
      "inputs": [
        {
          "internalType": "string",
          "name": "tokenName",
          "type": "string"
        },
        {
          "internalType": "string",
          "name": "tokenSymbol",
          "type": "string"
        },
        {
          "internalType": "contract ITokenMetadataResolver",
          "name": "metadataResolver",
          "type": "address"
        },
        {
          "internalType": "contract IOperatorFilterRegistry",
          "name": "filterRegistry",
          "type": "address"
        },
        {
          "internalType": "contract IForwarderRegistry",
          "name": "forwarderRegistry",
          "type": "address"
        }
      ],
      "stateMutability": "nonpayable",
      "type": "constructor"
    },
    {
      "inputs": [
        {
          "internalType": "uint256",
          "name": "percentage",
          "type": "uint256"
        }
      ],
      "name": "ERC2981IncorrectRoyaltyPercentage",
      "type": "error"
    },
    {
      "inputs": [],
      "name": "ERC2981IncorrectRoyaltyReceiver",
      "type": "error"
    },
    {
      "inputs": [],
      "name": "ERC721BalanceOfAddressZero",
      "type": "error"
    },
    {
      "inputs": [
        {
          "internalType": "uint256",
          "name": "tokenId",
          "type": "uint256"
        }
      ],
      "name": "ERC721ExistingToken",
      "type": "error"
    },
    {
      "inputs": [],
      "name": "ERC721MintToAddressZero",
      "type": "error"
    },
    {
      "inputs": [
        {
          "internalType": "address",
          "name": "sender",
          "type": "address"
        },
        {
          "internalType": "address",
          "name": "owner",
          "type": "address"
        },
        {
          "internalType": "uint256",
          "name": "tokenId",
          "type": "uint256"
        }
      ],
      "name": "ERC721NonApprovedForApproval",
      "type": "error"
    },
    {
      "inputs": [
        {
          "internalType": "address",
          "name": "sender",
          "type": "address"
        },
        {
          "internalType": "address",
          "name": "owner",
          "type": "address"
        },
        {
          "internalType": "uint256",
          "name": "tokenId",
          "type": "uint256"
        }
      ],
      "name": "ERC721NonApprovedForTransfer",
      "type": "error"
    },
    {
      "inputs": [
        {
          "internalType": "uint256",
          "name": "tokenId",
          "type": "uint256"
        }
      ],
      "name": "ERC721NonExistingToken",
      "type": "error"
    },
    {
      "inputs": [
        {
          "internalType": "address",
          "name": "account",
          "type": "address"
        },
        {
          "internalType": "uint256",
          "name": "tokenId",
          "type": "uint256"
        }
      ],
      "name": "ERC721NonOwnedToken",
      "type": "error"
    },
    {
      "inputs": [
        {
          "internalType": "address",
          "name": "recipient",
          "type": "address"
        },
        {
          "internalType": "uint256",
          "name": "tokenId",
          "type": "uint256"
        }
      ],
      "name": "ERC721SafeTransferRejected",
      "type": "error"
    },
    {
      "inputs": [
        {
          "internalType": "address",
          "name": "account",
          "type": "address"
        }
      ],
      "name": "ERC721SelfApproval",
      "type": "error"
    },
    {
      "inputs": [
        {
          "internalType": "address",
          "name": "account",
          "type": "address"
        }
      ],
      "name": "ERC721SelfApprovalForAll",
      "type": "error"
    },
    {
      "inputs": [],
      "name": "ERC721TransferToAddressZero",
      "type": "error"
    },
    {
      "inputs": [],
      "name": "IllegalInterfaceId",
      "type": "error"
    },
    {
      "inputs": [],
      "name": "InconsistentArrayLengths",
      "type": "error"
    },
    {
      "inputs": [
        {
          "internalType": "address",
          "name": "account",
          "type": "address"
        }
      ],
      "name": "NotContractOwner",
      "type": "error"
    },
    {
      "inputs": [
        {
          "internalType": "bytes32",
          "name": "role",
          "type": "bytes32"
        },
        {
          "internalType": "address",
          "name": "account",
          "type": "address"
        }
      ],
      "name": "NotRoleHolder",
      "type": "error"
    },
    {
      "inputs": [
        {
          "internalType": "address",
          "name": "operator",
          "type": "address"
        }
      ],
      "name": "OperatorNotAllowed",
      "type": "error"
    },
    {
      "anonymous": false,
      "inputs": [
        {
          "indexed": true,
          "internalType": "address",
          "name": "owner",
          "type": "address"
        },
        {
          "indexed": true,
          "internalType": "address",
          "name": "approved",
          "type": "address"
        },
        {
          "indexed": true,
          "internalType": "uint256",
          "name": "tokenId",
          "type": "uint256"
        }
      ],
      "name": "Approval",
      "type": "event"
    },
    {
      "anonymous": false,
      "inputs": [
        {
          "indexed": true,
          "internalType": "address",
          "name": "owner",
          "type": "address"
        },
        {
          "indexed": true,
          "internalType": "address",
          "name": "operator",
          "type": "address"
        },
        {
          "indexed": false,
          "internalType": "bool",
          "name": "approved",
          "type": "bool"
        }
      ],
      "name": "ApprovalForAll",
      "type": "event"
    },
    {
      "anonymous": false,
      "inputs": [
        {
          "indexed": true,
          "internalType": "address",
          "name": "previousOwner",
          "type": "address"
        },
        {
          "indexed": true,
          "internalType": "address",
          "name": "newOwner",
          "type": "address"
        }
      ],
      "name": "OwnershipTransferred",
      "type": "event"
    },
    {
      "anonymous": false,
      "inputs": [
        {
          "indexed": false,
          "internalType": "bytes32",
          "name": "role",
          "type": "bytes32"
        },
        {
          "indexed": false,
          "internalType": "address",
          "name": "account",
          "type": "address"
        },
        {
          "indexed": false,
          "internalType": "address",
          "name": "operator",
          "type": "address"
        }
      ],
      "name": "RoleGranted",
      "type": "event"
    },
    {
      "anonymous": false,
      "inputs": [
        {
          "indexed": false,
          "internalType": "bytes32",
          "name": "role",
          "type": "bytes32"
        },
        {
          "indexed": false,
          "internalType": "address",
          "name": "account",
          "type": "address"
        },
        {
          "indexed": false,
          "internalType": "address",
          "name": "operator",
          "type": "address"
        }
      ],
      "name": "RoleRevoked",
      "type": "event"
    },
    {
      "anonymous": false,
      "inputs": [
        {
          "indexed": true,
          "internalType": "address",
          "name": "from",
          "type": "address"
        },
        {
          "indexed": true,
          "internalType": "address",
          "name": "to",
          "type": "address"
        },
        {
          "indexed": true,
          "internalType": "uint256",
          "name": "tokenId",
          "type": "uint256"
        }
      ],
      "name": "Transfer",
      "type": "event"
    },
    {
      "inputs": [],
      "name": "MINTER_ROLE",
      "outputs": [
        {
          "internalType": "bytes32",
          "name": "",
          "type": "bytes32"
        }
      ],
      "stateMutability": "view",
      "type": "function"
    },
    {
      "inputs": [],
      "name": "ROYALTY_FEE_DENOMINATOR",
      "outputs": [
        {
          "internalType": "uint256",
          "name": "",
          "type": "uint256"
        }
      ],
      "stateMutability": "view",
      "type": "function"
    },
    {
      "inputs": [
        {
          "internalType": "address",
          "name": "to",
          "type": "address"
        },
        {
          "internalType": "uint256",
          "name": "tokenId",
          "type": "uint256"
        }
      ],
      "name": "approve",
      "outputs": [],
      "stateMutability": "nonpayable",
      "type": "function"
    },
    {
      "inputs": [
        {
          "internalType": "address",
          "name": "owner",
          "type": "address"
        }
      ],
      "name": "balanceOf",
      "outputs": [
        {
          "internalType": "uint256",
          "name": "balance",
          "type": "uint256"
        }
      ],
      "stateMutability": "view",
      "type": "function"
    },
    {
      "inputs": [
        {
          "internalType": "address",
          "name": "to",
          "type": "address"
        },
        {
          "internalType": "uint256[]",
          "name": "tokenIds",
          "type": "uint256[]"
        }
      ],
      "name": "batchMint",
      "outputs": [],
      "stateMutability": "nonpayable",
      "type": "function"
    },
    {
      "inputs": [
        {
          "internalType": "address",
          "name": "from",
          "type": "address"
        },
        {
          "internalType": "address",
          "name": "to",
          "type": "address"
        },
        {
          "internalType": "uint256[]",
          "name": "tokenIds",
          "type": "uint256[]"
        }
      ],
      "name": "batchTransferFrom",
      "outputs": [],
      "stateMutability": "nonpayable",
      "type": "function"
    },
    {
      "inputs": [
        {
          "internalType": "address[]",
          "name": "recipients",
          "type": "address[]"
        },
        {
          "internalType": "uint256[]",
          "name": "tokenIds",
          "type": "uint256[]"
        }
      ],
      "name": "deliver",
      "outputs": [],
      "stateMutability": "nonpayable",
      "type": "function"
    },
    {
      "inputs": [],
      "name": "forwarderRegistry",
      "outputs": [
        {
          "internalType": "contract IForwarderRegistry",
          "name": "",
          "type": "address"
        }
      ],
      "stateMutability": "view",
      "type": "function"
    },
    {
      "inputs": [
        {
          "internalType": "uint256",
          "name": "tokenId",
          "type": "uint256"
        }
      ],
      "name": "getApproved",
      "outputs": [
        {
          "internalType": "address",
          "name": "approved",
          "type": "address"
        }
      ],
      "stateMutability": "view",
      "type": "function"
    },
    {
      "inputs": [
        {
          "internalType": "bytes32",
          "name": "role",
          "type": "bytes32"
        },
        {
          "internalType": "address",
          "name": "account",
          "type": "address"
        }
      ],
      "name": "grantRole",
      "outputs": [],
      "stateMutability": "nonpayable",
      "type": "function"
    },
    {
      "inputs": [
        {
          "internalType": "bytes32",
          "name": "role",
          "type": "bytes32"
        },
        {
          "internalType": "address",
          "name": "account",
          "type": "address"
        }
      ],
      "name": "hasRole",
      "outputs": [
        {
          "internalType": "bool",
          "name": "hasRole_",
          "type": "bool"
        }
      ],
      "stateMutability": "view",
      "type": "function"
    },
    {
      "inputs": [
        {
          "internalType": "address",
          "name": "owner",
          "type": "address"
        },
        {
          "internalType": "address",
          "name": "operator",
          "type": "address"
        }
      ],
      "name": "isApprovedForAll",
      "outputs": [
        {
          "internalType": "bool",
          "name": "approvedForAll",
          "type": "bool"
        }
      ],
      "stateMutability": "view",
      "type": "function"
    },
    {
      "inputs": [
        {
          "internalType": "address",
          "name": "forwarder",
          "type": "address"
        }
      ],
      "name": "isTrustedForwarder",
      "outputs": [
        {
          "internalType": "bool",
          "name": "",
          "type": "bool"
        }
      ],
      "stateMutability": "view",
      "type": "function"
    },
    {
      "inputs": [],
      "name": "metadataResolver",
      "outputs": [
        {
          "internalType": "contract ITokenMetadataResolver",
          "name": "tokenMetadataResolver",
          "type": "address"
        }
      ],
      "stateMutability": "view",
      "type": "function"
    },
    {
      "inputs": [
        {
          "internalType": "address",
          "name": "to",
          "type": "address"
        },
        {
          "internalType": "uint256",
          "name": "tokenId",
          "type": "uint256"
        }
      ],
      "name": "mint",
      "outputs": [],
      "stateMutability": "nonpayable",
      "type": "function"
    },
    {
      "inputs": [],
      "name": "name",
      "outputs": [
        {
          "internalType": "string",
          "name": "tokenName",
          "type": "string"
        }
      ],
      "stateMutability": "view",
      "type": "function"
    },
    {
      "inputs": [],
      "name": "operatorFilterRegistry",
      "outputs": [
        {
          "internalType": "contract IOperatorFilterRegistry",
          "name": "",
          "type": "address"
        }
      ],
      "stateMutability": "view",
      "type": "function"
    },
    {
      "inputs": [],
      "name": "owner",
      "outputs": [
        {
          "internalType": "address",
          "name": "",
          "type": "address"
        }
      ],
      "stateMutability": "view",
      "type": "function"
    },
    {
      "inputs": [
        {
          "internalType": "uint256",
          "name": "tokenId",
          "type": "uint256"
        }
      ],
      "name": "ownerOf",
      "outputs": [
        {
          "internalType": "address",
          "name": "tokenOwner",
          "type": "address"
        }
      ],
      "stateMutability": "view",
      "type": "function"
    },
    {
      "inputs": [
        {
          "internalType": "address[]",
          "name": "accounts",
          "type": "address[]"
        },
        {
          "internalType": "contract IERC20[]",
          "name": "tokens",
          "type": "address[]"
        },
        {
          "internalType": "uint256[]",
          "name": "amounts",
          "type": "uint256[]"
        }
      ],
      "name": "recoverERC20s",
      "outputs": [],
      "stateMutability": "nonpayable",
      "type": "function"
    },
    {
      "inputs": [
        {
          "internalType": "address[]",
          "name": "accounts",
          "type": "address[]"
        },
        {
          "internalType": "contract IERC721[]",
          "name": "contracts",
          "type": "address[]"
        },
        {
          "internalType": "uint256[]",
          "name": "tokenIds",
          "type": "uint256[]"
        }
      ],
      "name": "recoverERC721s",
      "outputs": [],
      "stateMutability": "nonpayable",
      "type": "function"
    },
    {
      "inputs": [
        {
          "internalType": "address payable[]",
          "name": "accounts",
          "type": "address[]"
        },
        {
          "internalType": "uint256[]",
          "name": "amounts",
          "type": "uint256[]"
        }
      ],
      "name": "recoverETH",
      "outputs": [],
      "stateMutability": "nonpayable",
      "type": "function"
    },
    {
      "inputs": [
        {
          "internalType": "bytes32",
          "name": "role",
          "type": "bytes32"
        }
      ],
      "name": "renounceRole",
      "outputs": [],
      "stateMutability": "nonpayable",
      "type": "function"
    },
    {
      "inputs": [
        {
          "internalType": "bytes32",
          "name": "role",
          "type": "bytes32"
        },
        {
          "internalType": "address",
          "name": "account",
          "type": "address"
        }
      ],
      "name": "revokeRole",
      "outputs": [],
      "stateMutability": "nonpayable",
      "type": "function"
    },
    {
      "inputs": [
        {
          "internalType": "uint256",
          "name": "tokenId",
          "type": "uint256"
        },
        {
          "internalType": "uint256",
          "name": "salePrice",
          "type": "uint256"
        }
      ],
      "name": "royaltyInfo",
      "outputs": [
        {
          "internalType": "address",
          "name": "receiver",
          "type": "address"
        },
        {
          "internalType": "uint256",
          "name": "royaltyAmount",
          "type": "uint256"
        }
      ],
      "stateMutability": "view",
      "type": "function"
    },
    {
      "inputs": [
        {
          "internalType": "address",
          "name": "to",
          "type": "address"
        },
        {
          "internalType": "uint256",
          "name": "tokenId",
          "type": "uint256"
        },
        {
          "internalType": "bytes",
          "name": "data",
          "type": "bytes"
        }
      ],
      "name": "safeMint",
      "outputs": [],
      "stateMutability": "nonpayable",
      "type": "function"
    },
    {
      "inputs": [
        {
          "internalType": "address",
          "name": "from",
          "type": "address"
        },
        {
          "internalType": "address",
          "name": "to",
          "type": "address"
        },
        {
          "internalType": "uint256",
          "name": "tokenId",
          "type": "uint256"
        }
      ],
      "name": "safeTransferFrom",
      "outputs": [],
      "stateMutability": "nonpayable",
      "type": "function"
    },
    {
      "inputs": [
        {
          "internalType": "address",
          "name": "from",
          "type": "address"
        },
        {
          "internalType": "address",
          "name": "to",
          "type": "address"
        },
        {
          "internalType": "uint256",
          "name": "tokenId",
          "type": "uint256"
        },
        {
          "internalType": "bytes",
          "name": "data",
          "type": "bytes"
        }
      ],
      "name": "safeTransferFrom",
      "outputs": [],
      "stateMutability": "nonpayable",
      "type": "function"
    },
    {
      "inputs": [
        {
          "internalType": "address",
          "name": "operator",
          "type": "address"
        },
        {
          "internalType": "bool",
          "name": "approved",
          "type": "bool"
        }
      ],
      "name": "setApprovalForAll",
      "outputs": [],
      "stateMutability": "nonpayable",
      "type": "function"
    },
    {
      "inputs": [
        {
          "internalType": "uint256",
          "name": "percentage",
          "type": "uint256"
        }
      ],
      "name": "setRoyaltyPercentage",
      "outputs": [],
      "stateMutability": "nonpayable",
      "type": "function"
    },
    {
      "inputs": [
        {
          "internalType": "address",
          "name": "receiver",
          "type": "address"
        }
      ],
      "name": "setRoyaltyReceiver",
      "outputs": [],
      "stateMutability": "nonpayable",
      "type": "function"
    },
    {
      "inputs": [
        {
          "internalType": "bytes4",
          "name": "interfaceId",
          "type": "bytes4"
        }
      ],
      "name": "supportsInterface",
      "outputs": [
        {
          "internalType": "bool",
          "name": "",
          "type": "bool"
        }
      ],
      "stateMutability": "view",
      "type": "function"
    },
    {
      "inputs": [],
      "name": "symbol",
      "outputs": [
        {
          "internalType": "string",
          "name": "tokenSymbol",
          "type": "string"
        }
      ],
      "stateMutability": "view",
      "type": "function"
    },
    {
      "inputs": [
        {
          "internalType": "uint256",
          "name": "tokenId",
          "type": "uint256"
        }
      ],
      "name": "tokenURI",
      "outputs": [
        {
          "internalType": "string",
          "name": "uri",
          "type": "string"
        }
      ],
      "stateMutability": "view",
      "type": "function"
    },
    {
      "inputs": [
        {
          "internalType": "address",
          "name": "from",
          "type": "address"
        },
        {
          "internalType": "address",
          "name": "to",
          "type": "address"
        },
        {
          "internalType": "uint256",
          "name": "tokenId",
          "type": "uint256"
        }
      ],
      "name": "transferFrom",
      "outputs": [],
      "stateMutability": "nonpayable",
      "type": "function"
    },
    {
      "inputs": [
        {
          "internalType": "address",
          "name": "newOwner",
          "type": "address"
        }
      ],
      "name": "transferOwnership",
      "outputs": [],
      "stateMutability": "nonpayable",
      "type": "function"
    },
    {
      "inputs": [
        {
          "internalType": "contract IOperatorFilterRegistry",
          "name": "registry",
          "type": "address"
        }
      ],
      "name": "updateOperatorFilterRegistry",
      "outputs": [],
      "stateMutability": "nonpayable",
      "type": "function"
    }
  ],
  "bytecode": "0x60a060405234801562000010575f80fd5b5060405162003e8a38038062003e8a833981016040819052620000339162000434565b80808686868633620000508162000049620000f2565b9062000127565b506200005b620001a1565b62000088816200006a620001bb565b9081546001600160a01b0319166001600160a01b0391909116179055565b5062000093620001ea565b620000ad838383620000a462000202565b92919062000231565b620000b762000278565b50620000c591505062000290565b620000cf620002a8565b620000d9620002c0565b6001600160a01b0316608052506200064e945050505050565b5f806200012160017fc9ed16f33ab3a66c84bfd83099ccb2a8845871e2e1c1928f63797152f0fd54cd620004da565b92915050565b6001600160a01b038116156200017d5781546001600160a01b0319166001600160a01b03821690811783556040515f907f8be0079c531659141344cd1fd0a4f28419497f9722a3daafe3b4186f6b6457e0908290a35b6200019d6307f5828d60e41b600162000195620002d3565b919062000302565b5050565b620001b96380ac58cd60e01b600162000195620002d3565b565b5f806200012160017f609b85bcafa81ecfaf3ff62cdde2c6c9082a68dbe4922f07399c706bdeb7cd31620004da565b620001b963f3993d1160e01b600162000195620002d3565b5f806200012160017f7ea68fd2dcf1c056b94db6a0a537aa80d26fa9ab1eacd85da1ba0b61b7e7a8a5620004da565b836200023e848262000586565b50600184016200024f838262000586565b5060029390930180546001600160a01b0319166001600160a01b03909416939093179092555050565b620001b9635b5e139f60e01b600162000195620002d3565b620001b9638e773e1360e01b600162000195620002d3565b620001b9634ed2f41960e11b600162000195620002d3565b620001b963152a902d60e11b6001620001955b5f806200012160017fca9d3e17f264b0f3984e2634e94adb37fa3e6a8103f06aeae6fa59e21c769f5e620004da565b600160e01b6001600160e01b031983160162000331576040516372c683bb60e01b815260040160405180910390fd5b6001600160e01b0319919091165f9081526020929092526040909120805460ff1916911515919091179055565b634e487b7160e01b5f52604160045260245ffd5b5f82601f83011262000382575f80fd5b81516001600160401b03808211156200039f576200039f6200035e565b604051601f8301601f19908116603f01168101908282118183101715620003ca57620003ca6200035e565b81604052838152602092508683858801011115620003e6575f80fd5b5f91505b83821015620004095785820183015181830184015290820190620003ea565b5f93810190920192909252949350505050565b6001600160a01b038116811462000431575f80fd5b50565b5f805f805f60a0868803121562000449575f80fd5b85516001600160401b038082111562000460575f80fd5b6200046e89838a0162000372565b9650602088015191508082111562000484575f80fd5b50620004938882890162000372565b9450506040860151620004a6816200041c565b6060870151909350620004b9816200041c565b6080870151909250620004cc816200041c565b809150509295509295909350565b818103818111156200012157634e487b7160e01b5f52601160045260245ffd5b600181811c908216806200050f57607f821691505b6020821081036200052e57634e487b7160e01b5f52602260045260245ffd5b50919050565b601f82111562000581575f81815260208120601f850160051c810160208610156200055c5750805b601f850160051c820191505b818110156200057d5782815560010162000568565b5050505b505050565b81516001600160401b03811115620005a257620005a26200035e565b620005ba81620005b38454620004fa565b8462000534565b602080601f831160018114620005f0575f8415620005d85750858301515b5f19600386901b1c1916600185901b1785556200057d565b5f85815260208120601f198616915b828110156200062057888601518255948401946001909101908401620005ff565b50858210156200063e57878501515f19600388901b60f8161c191681555b5050505050600190811b01905550565b60805161380e6200067c5f395f818161035e015281816103de01528181612b2e0152612bb6015261380e5ff3fe608060405234801561000f575f80fd5b5060043610610269575f3560e01c80638bb9c5bf11610157578063b88d4fde116100d2578063e1a8bf2c11610088578063f2fde38b1161006e578063f2fde38b14610597578063f3993d11146105aa578063f7ba94bd146105bd575f80fd5b8063e1a8bf2c1461057a578063e985e9c514610584575f80fd5b8063c87b56dd116100b8578063c87b56dd1461052d578063d539139314610540578063d547741f14610567575f80fd5b8063b88d4fde14610507578063c3666c361461051a575f80fd5b806395d89b4111610127578063a0c76f621161010d578063a0c76f62146104e4578063a22cb465146104ec578063b0ccc31e146104ff575f80fd5b806395d89b41146104c95780639da5e832146104d1575f80fd5b80638bb9c5bf146104885780638da5cb5b1461049b5780638dc251e3146104a357806391d14854146104b6575f80fd5b806340c10f19116101e757806361ba27da116101b757806370a082311161019d57806370a082311461044157806373c8a958146104625780638832e6e314610475575f80fd5b806361ba27da1461041b5780636352211e1461042e575f80fd5b806340c10f191461039557806342842e0e146103a85780634684d7e9146103bb578063572b6c05146103ce575f80fd5b8063114ba8ee1161023c5780632a55205a116102225780632a55205a1461031d5780632b4c9f161461035c5780632f2ff15d14610382575f80fd5b8063114ba8ee146102f757806323b872dd1461030a575f80fd5b806301ffc9a71461026d57806306fdde0314610295578063081812fc146102aa578063095ea7b3146102e2575b5f80fd5b61028061027b36600461306b565b6105d0565b60405190151581526020015b60405180910390f35b61029d6105e9565b60405161028c91906130f1565b6102bd6102b8366004613103565b6105f8565b60405173ffffffffffffffffffffffffffffffffffffffff909116815260200161028c565b6102f56102f036600461313b565b61060b565b005b6102f5610305366004613165565b61065a565b6102f5610318366004613180565b6106c5565b61033061032b3660046131be565b610702565b6040805173ffffffffffffffffffffffffffffffffffffffff909316835260208301919091520161028c565b7f00000000000000000000000000000000000000000000000000000000000000006102bd565b6102f56103903660046131de565b610724565b6102f56103a336600461313b565b610756565b6102f56103b6366004613180565b6107a5565b6102f56103c936600461324d565b6107d5565b6102806103dc366004613165565b7f000000000000000000000000000000000000000000000000000000000000000073ffffffffffffffffffffffffffffffffffffffff90811691161490565b6102f5610429366004613103565b610848565b6102bd61043c366004613103565b610865565b61045461044f366004613165565b610878565b60405190815260200161028c565b6102f561047036600461329e565b61088b565b6102f561048336600461336f565b61097f565b6102f5610496366004613103565b610a00565b6102bd610a1b565b6102f56104b1366004613165565b610a41565b6102806104c43660046131de565b610a5e565b61029d610aa7565b6102f56104df3660046133c7565b610ab1565b6102bd610b53565b6102f56104fa36600461342f565b610b7c565b6102bd610bab565b6102f561051536600461345b565b610bb7565b6102f561052836600461329e565b610bf3565b61029d61053b366004613103565b610d64565b6104547f6d696e746572000000000000000000000000000000000000000000000000000081565b6102f56105753660046131de565b610d87565b610454620186a081565b6102806105923660046134c9565b610db4565b6102f56105a5366004613165565b610e00565b6102f56105b83660046134f5565b610e1b565b6102f56105cb3660046133c7565b610e54565b5f6105e3826105dd610f09565b90610f36565b92915050565b60606105f361100d565b905090565b5f6105e38261060561101f565b9061104c565b73ffffffffffffffffffffffffffffffffffffffff8216156106395761063982610633611102565b9061112f565b610656610644611139565b838361064e61101f565b929190611142565b5050565b610673610665611139565b61066d6113b9565b906113e6565b6106c28161067f611102565b9081547fffffffffffffffffffffffff00000000000000000000000000000000000000001673ffffffffffffffffffffffffffffffffffffffff91909116179055565b50565b5f6106ce611139565b90506106e481856106dd611102565b9190611493565b6106fc818585856106f361101f565b939291906114d0565b50505050565b5f8061071884846107116117aa565b91906117d7565b915091505b9250929050565b5f61072d611139565b905061073b8161066d6113b9565b61075183838361074961187f565b9291906118ac565b505050565b6107917f6d696e7465720000000000000000000000000000000000000000000000000000610782611139565b61078a61187f565b9190611980565b610656828261079e61101f565b9190611a05565b5f6107ae611139565b90506107bd81856106dd611102565b6106fc818585856107cc61101f565b93929190611b1d565b6108017f6d696e7465720000000000000000000000000000000000000000000000000000610782611139565b610751838383808060200260200160405190810160405280939291908181526020018383602002808284375f92019190915250610841925061101f915050565b9190611b62565b610853610665611139565b6106c28161085f6117aa565b90611cd2565b5f6105e38261087261101f565b90611d58565b5f6105e38261088561101f565b90611dc0565b610896610665611139565b8483811415806108a65750808214155b156108dd576040517f6582533600000000000000000000000000000000000000000000000000000000815260040160405180910390fd5b5f5b8181146109755761096d8888838181106108fb576108fb61354a565b90506020020160208101906109109190613165565b8585848181106109225761092261354a565b9050602002013588888581811061093b5761093b61354a565b90506020020160208101906109509190613165565b73ffffffffffffffffffffffffffffffffffffffff169190611e3a565b6001016108df565b5050505050505050565b6109ab7f6d696e7465720000000000000000000000000000000000000000000000000000610782611139565b6106fc6109b6611139565b858585858080601f0160208091040260200160405190810160405280939291908181526020018383808284375f920191909152506109f7925061101f915050565b93929190611ec7565b6106c2610a0b611139565b82610a1461187f565b9190611efc565b5f6105f3610a276113b9565b5473ffffffffffffffffffffffffffffffffffffffff1690565b610a4c610665611139565b6106c281610a586117aa565b90611f9f565b5f610aa08383610a6c61187f565b5f9283526020908152604080842073ffffffffffffffffffffffffffffffffffffffff909316845291905290205460ff1690565b9392505050565b60606105f3611fec565b610add7f6d696e7465720000000000000000000000000000000000000000000000000000610782611139565b6106fc8484808060200260200160405190810160405280939291908181526020018383602002808284375f92019190915250506040805160208088028281018201909352878252909350879250869182918501908490808284375f92019190915250610b4c925061101f915050565b9190611ffe565b5f6105f3610b5f612092565b6002015473ffffffffffffffffffffffffffffffffffffffff1690565b8015610b8e57610b8e82610633611102565b610656610b99611139565b8383610ba361101f565b9291906120bf565b5f6105f3610a27611102565b5f610bc0611139565b9050610bcf81876106dd611102565b610beb818787878787610be061101f565b9594939291906121d6565b505050505050565b610bfe610665611139565b848381141580610c0e5750808214155b15610c45576040517f6582533600000000000000000000000000000000000000000000000000000000815260040160405180910390fd5b5f5b81811461097557858582818110610c6057610c6061354a565b9050602002016020810190610c759190613165565b73ffffffffffffffffffffffffffffffffffffffff166323b872dd308a8a85818110610ca357610ca361354a565b9050602002016020810190610cb89190613165565b878786818110610cca57610cca61354a565b6040517fffffffff0000000000000000000000000000000000000000000000000000000060e088901b16815273ffffffffffffffffffffffffffffffffffffffff9586166004820152949093166024850152506020909102013560448201526064015f604051808303815f87803b158015610d43575f80fd5b505af1158015610d55573d5f803e3d5ffd5b50505050806001019050610c47565b6060610d728261087261101f565b506105e33083610d80612092565b919061224b565b5f610d90611139565b9050610d9e8161066d6113b9565b610751838383610dac61187f565b929190612307565b5f610aa08383610dc261101f565b919073ffffffffffffffffffffffffffffffffffffffff9182165f908152600393909301602090815260408085209290931684525290205460ff1690565b6106c2610e0b611139565b82610e146113b9565b91906123cf565b5f610e24611139565b9050610e3381866106dd611102565b610e4d8186868686610e4361101f565b94939291906124e2565b5050505050565b610e5f610665611139565b82818114610e99576040517f6582533600000000000000000000000000000000000000000000000000000000815260040160405180910390fd5b5f5b818114610beb57610f01848483818110610eb757610eb761354a565b90506020020135878784818110610ed057610ed061354a565b9050602002016020810190610ee59190613165565b73ffffffffffffffffffffffffffffffffffffffff16906127df565b600101610e9b565b5f806105e360017fca9d3e17f264b0f3984e2634e94adb37fa3e6a8103f06aeae6fa59e21c769f5e6135a4565b5f7c01000000000000000000000000000000000000000000000000000000007fffffffff00000000000000000000000000000000000000000000000000000000831601610f8457505f6105e3565b7ffe003659000000000000000000000000000000000000000000000000000000007fffffffff00000000000000000000000000000000000000000000000000000000831601610fd5575060016105e3565b507fffffffff00000000000000000000000000000000000000000000000000000000165f908152602091909152604090205460ff1690565b60606105f361101a612092565b612935565b5f806105e360017fddf3ee18ae6d688373c219468f8be446e7ae82215f4779d821c7ea5e8c13c0c16135a4565b5f8181526020839052604081205473ffffffffffffffffffffffffffffffffffffffff81166110af576040517fdd560475000000000000000000000000000000000000000000000000000000008152600481018490526024015b60405180910390fd5b740100000000000000000000000000000000000000008116156110f95750505f81815260028301602052604090205473ffffffffffffffffffffffffffffffffffffffff166105e3565b5f9150506105e3565b5f806105e360017f609b85bcafa81ecfaf3ff62cdde2c6c9082a68dbe4922f07399c706bdeb7cd316135a4565b61065682826129c8565b5f6105f3612aec565b5f8181526020859052604090205473ffffffffffffffffffffffffffffffffffffffff81166111a0576040517fdd560475000000000000000000000000000000000000000000000000000000008152600481018390526024016110a6565b8073ffffffffffffffffffffffffffffffffffffffff8082169085160361120b576040517fb7fdc01000000000000000000000000000000000000000000000000000000000815273ffffffffffffffffffffffffffffffffffffffff821660048201526024016110a6565b611216868287612c30565b611273576040517fc7563a1800000000000000000000000000000000000000000000000000000000815273ffffffffffffffffffffffffffffffffffffffff808716600483015282166024820152604481018490526064016110a6565b73ffffffffffffffffffffffffffffffffffffffff84166112d757740100000000000000000000000000000000000000008216156112d2575f83815260208790526040902073ffffffffffffffffffffffffffffffffffffffff821690555b611356565b740100000000000000000000000000000000000000008217808314611307575f8481526020889052604090208190555b505f838152600287016020526040902080547fffffffffffffffffffffffff00000000000000000000000000000000000000001673ffffffffffffffffffffffffffffffffffffffff86161790555b828473ffffffffffffffffffffffffffffffffffffffff168273ffffffffffffffffffffffffffffffffffffffff167f8c5be1e5ebec7d5bd14f71427d1e84f3dd0314c0f7b2291e5b200ac8c7c3b92560405160405180910390a4505050505050565b5f806105e360017fc9ed16f33ab3a66c84bfd83099ccb2a8845871e2e1c1928f63797152f0fd54cd6135a4565b815473ffffffffffffffffffffffffffffffffffffffff828116911614610656576040517f2ef4875e00000000000000000000000000000000000000000000000000000000815273ffffffffffffffffffffffffffffffffffffffff821660048201526024016110a6565b81547fffffffffffffffffffffffff00000000000000000000000000000000000000001673ffffffffffffffffffffffffffffffffffffffff91909116179055565b8073ffffffffffffffffffffffffffffffffffffffff168273ffffffffffffffffffffffffffffffffffffffff16146107515761075183836129c8565b73ffffffffffffffffffffffffffffffffffffffff821661151d576040517f86c8706700000000000000000000000000000000000000000000000000000000815260040160405180910390fd5b5f8181526020869052604090205473ffffffffffffffffffffffffffffffffffffffff811661157b576040517fdd560475000000000000000000000000000000000000000000000000000000008152600481018390526024016110a6565b73ffffffffffffffffffffffffffffffffffffffff84168173ffffffffffffffffffffffffffffffffffffffff16146115ff576040517f14dbb53600000000000000000000000000000000000000000000000000000000815273ffffffffffffffffffffffffffffffffffffffff85166004820152602481018390526044016110a6565b61160a868587612c30565b6116b857740100000000000000000000000000000000000000008116158061165a57505f82815260028701602052604090205473ffffffffffffffffffffffffffffffffffffffff868116911614155b156116b8576040517fa4a3018b00000000000000000000000000000000000000000000000000000000815273ffffffffffffffffffffffffffffffffffffffff808716600483015285166024820152604481018390526064016110a6565b5f82815260208790526040902073ffffffffffffffffffffffffffffffffffffffff808516918290558516146117475773ffffffffffffffffffffffffffffffffffffffff8085165f9081526001808901602052604080832080547fffffffffffffffffffffffffffffffffffffffffffffffffffffffffffffffff0190559286168252919020805490910190555b818373ffffffffffffffffffffffffffffffffffffffff168573ffffffffffffffffffffffffffffffffffffffff167fddf252ad1be2c89b69c2b068fc378daa952ba7f163c4a11628f55a4df523b3ef60405160405180910390a4505050505050565b5f806105e360017f2c0cf10337caabbd02dcf226f05f5fd19a0919a41a8df8958c39b800078268586135a4565b825473ffffffffffffffffffffffffffffffffffffffff8116905f907401000000000000000000000000000000000000000090046bffffffffffffffffffffffff16831580611824575080155b15611831575f9150611876565b620186a084101561185b57620186a061184a82866135b7565b61185491906135ce565b9150611876565b80611869620186a0866135ce565b61187391906135b7565b91505b50935093915050565b5f806105e360017fc8827d3282af6f37b64c3e9e6f3ac9df286ab0bb0fccd6f8661bf19adb368b236135a4565b5f8381526020858152604080832073ffffffffffffffffffffffffffffffffffffffff8616845290915290205460ff166106fc575f8381526020858152604080832073ffffffffffffffffffffffffffffffffffffffff8681168086529184529382902080547fffffffffffffffffffffffffffffffffffffffffffffffffffffffffffffff00166001179055815187815292830152918316918101919091527f2f8788117e7eff1d82e926ec794901d17c78024a50270940304540a733656f0d906060015b60405180910390a150505050565b5f8281526020848152604080832073ffffffffffffffffffffffffffffffffffffffff8516845290915290205460ff16610751576040517f7aa728820000000000000000000000000000000000000000000000000000000081526004810183905273ffffffffffffffffffffffffffffffffffffffff821660248201526044016110a6565b73ffffffffffffffffffffffffffffffffffffffff8216611a52576040517f7851b9cd00000000000000000000000000000000000000000000000000000000815260040160405180910390fd5b5f8181526020849052604090205473ffffffffffffffffffffffffffffffffffffffff1615611ab0576040517f753eceac000000000000000000000000000000000000000000000000000000008152600481018290526024016110a6565b5f8181526020848152604080832073ffffffffffffffffffffffffffffffffffffffff86169081905580845260018088019093528184208054909301909255518392907fddf252ad1be2c89b69c2b068fc378daa952ba7f163c4a11628f55a4df523b3ef908290a4505050565b611b2a85858585856114d0565b73ffffffffffffffffffffffffffffffffffffffff82163b15610e4d57610e4d8484848460405180602001604052805f815250612ca3565b73ffffffffffffffffffffffffffffffffffffffff8216611baf576040517f7851b9cd00000000000000000000000000000000000000000000000000000000815260040160405180910390fd5b80515f5b818114611c9e575f838281518110611bcd57611bcd61354a565b60200260200101519050611c08865f015f8381526020019081526020015f205473ffffffffffffffffffffffffffffffffffffffff16151590565b15611c42576040517f753eceac000000000000000000000000000000000000000000000000000000008152600481018290526024016110a6565b5f8181526020879052604080822073ffffffffffffffffffffffffffffffffffffffff88169081905590518392907fddf252ad1be2c89b69c2b068fc378daa952ba7f163c4a11628f55a4df523b3ef908290a450600101611bb3565b5073ffffffffffffffffffffffffffffffffffffffff9092165f908152600190930160205250604090912080549091019055565b620186a0811115611d12576040517fac040408000000000000000000000000000000000000000000000000000000008152600481018290526024016110a6565b81546bffffffffffffffffffffffff909116740100000000000000000000000000000000000000000273ffffffffffffffffffffffffffffffffffffffff909116179055565b5f8181526020839052604081205473ffffffffffffffffffffffffffffffffffffffff8116611db6576040517fdd560475000000000000000000000000000000000000000000000000000000008152600481018490526024016110a6565b805b949350505050565b5f73ffffffffffffffffffffffffffffffffffffffff8216611e0e576040517faefbce4e00000000000000000000000000000000000000000000000000000000815260040160405180910390fd5b5073ffffffffffffffffffffffffffffffffffffffff165f908152600191909101602052604090205490565b6040805173ffffffffffffffffffffffffffffffffffffffff8416602482015260448082018490528251808303909101815260649091019091526020810180517bffffffffffffffffffffffffffffffffffffffffffffffffffffffff167fa9059cbb00000000000000000000000000000000000000000000000000000000179052610751908490612db5565b611ed2858484611a05565b73ffffffffffffffffffffffffffffffffffffffff83163b15610e4d57610e4d845f858585612ca3565b611f07838284611980565b5f8181526020848152604080832073ffffffffffffffffffffffffffffffffffffffff86168085529083529281902080547fffffffffffffffffffffffffffffffffffffffffffffffffffffffffffffff0016905580518481529182018390528101919091527ff6391f5c32d9c69d2a47ea670b442974b53935d1edc7fd64eb21e047a839171b9060600160405180910390a1505050565b73ffffffffffffffffffffffffffffffffffffffff8116611451576040517f16de0c8000000000000000000000000000000000000000000000000000000000815260040160405180910390fd5b60606105f3611ff9612092565b612ec2565b81518151811461203a576040517f6582533600000000000000000000000000000000000000000000000000000000815260040160405180910390fd5b5f5b818114610e4d5761208a8482815181106120585761205861354a565b60200260200101518483815181106120725761207261354a565b602002602001015187611a059092919063ffffffff16565b60010161203c565b5f806105e360017f7ea68fd2dcf1c056b94db6a0a537aa80d26fa9ab1eacd85da1ba0b61b7e7a8a56135a4565b8273ffffffffffffffffffffffffffffffffffffffff168273ffffffffffffffffffffffffffffffffffffffff160361213c576040517fe4215c6a00000000000000000000000000000000000000000000000000000000815273ffffffffffffffffffffffffffffffffffffffff841660048201526024016110a6565b73ffffffffffffffffffffffffffffffffffffffff8381165f81815260038701602090815260408083209487168084529482529182902080547fffffffffffffffffffffffffffffffffffffffffffffffffffffffffffffff001686151590811790915591519182527f17307eab39ab6107e8899845ad3d59bd9653f200f220920489ca2b5937696c31910160405180910390a350505050565b6121e387878787876114d0565b73ffffffffffffffffffffffffffffffffffffffff84163b15612242576122428686868686868080601f0160208091040260200160405190810160405280939291908181526020018383808284375f92019190915250612ca392505050565b50505050505050565b60028301546040517ff724dad700000000000000000000000000000000000000000000000000000000815273ffffffffffffffffffffffffffffffffffffffff848116600483015260248201849052606092169063f724dad7906044015f60405180830381865afa1580156122c2573d5f803e3d5ffd5b505050506040513d5f823e601f3d9081017fffffffffffffffffffffffffffffffffffffffffffffffffffffffffffffffe0168201604052611db89190810190613633565b5f8381526020858152604080832073ffffffffffffffffffffffffffffffffffffffff8616845290915290205460ff16156106fc575f8381526020858152604080832073ffffffffffffffffffffffffffffffffffffffff8681168086529184529382902080547fffffffffffffffffffffffffffffffffffffffffffffffffffffffffffffff00169055815187815292830152918316918101919091527ff6391f5c32d9c69d2a47ea670b442974b53935d1edc7fd64eb21e047a839171b90606001611972565b825473ffffffffffffffffffffffffffffffffffffffff908116908316811461243c576040517f2ef4875e00000000000000000000000000000000000000000000000000000000815273ffffffffffffffffffffffffffffffffffffffff841660048201526024016110a6565b8173ffffffffffffffffffffffffffffffffffffffff168173ffffffffffffffffffffffffffffffffffffffff16146106fc5783547fffffffffffffffffffffffff00000000000000000000000000000000000000001673ffffffffffffffffffffffffffffffffffffffff8381169182178655604051908316907f8be0079c531659141344cd1fd0a4f28419497f9722a3daafe3b4186f6b6457e0905f90a350505050565b73ffffffffffffffffffffffffffffffffffffffff831661252f576040517f86c8706700000000000000000000000000000000000000000000000000000000815260040160405180910390fd5b5f61253b878688612c30565b9050815f5b818114612759575f85858381811061255a5761255a61354a565b602090810292909201355f818152928d90526040909220549192505073ffffffffffffffffffffffffffffffffffffffff81166125c6576040517fdd560475000000000000000000000000000000000000000000000000000000008152600481018390526024016110a6565b73ffffffffffffffffffffffffffffffffffffffff89168173ffffffffffffffffffffffffffffffffffffffff161461264a576040517f14dbb53600000000000000000000000000000000000000000000000000000000815273ffffffffffffffffffffffffffffffffffffffff8a166004820152602481018390526044016110a6565b846126f957740100000000000000000000000000000000000000008116158061269b57505f82815260028c01602052604090205473ffffffffffffffffffffffffffffffffffffffff8b8116911614155b156126f9576040517fa4a3018b00000000000000000000000000000000000000000000000000000000815273ffffffffffffffffffffffffffffffffffffffff808c1660048301528a166024820152604481018390526064016110a6565b5f82815260208c9052604080822073ffffffffffffffffffffffffffffffffffffffff808c16918290559151859391928d16917fddf252ad1be2c89b69c2b068fc378daa952ba7f163c4a11628f55a4df523b3ef91a45050600101612540565b508473ffffffffffffffffffffffffffffffffffffffff168673ffffffffffffffffffffffffffffffffffffffff161415801561279557508015155b156109755773ffffffffffffffffffffffffffffffffffffffff8087165f90815260018a016020526040808220805485900390559187168152208054820190555050505050505050565b80471015612849576040517f08c379a000000000000000000000000000000000000000000000000000000000815260206004820152601d60248201527f416464726573733a20696e73756666696369656e742062616c616e636500000060448201526064016110a6565b5f8273ffffffffffffffffffffffffffffffffffffffff16826040515f6040518083038185875af1925050503d805f811461289f576040519150601f19603f3d011682016040523d82523d5f602084013e6128a4565b606091505b5050905080610751576040517f08c379a000000000000000000000000000000000000000000000000000000000815260206004820152603a60248201527f416464726573733a20756e61626c6520746f2073656e642076616c75652c207260448201527f6563697069656e74206d6179206861766520726576657274656400000000000060648201526084016110a6565b6060815f018054612945906136ee565b80601f0160208091040260200160405190810160405280929190818152602001828054612971906136ee565b80156129bc5780601f10612993576101008083540402835291602001916129bc565b820191905f5260205f20905b81548152906001019060200180831161299f57829003601f168201915b50505050509050919050565b815473ffffffffffffffffffffffffffffffffffffffff168015801590612a0557505f8173ffffffffffffffffffffffffffffffffffffffff163b115b15610751576040517fc617113400000000000000000000000000000000000000000000000000000000815230600482015273ffffffffffffffffffffffffffffffffffffffff838116602483015282169063c617113490604401602060405180830381865afa158015612a7a573d5f803e3d5ffd5b505050506040513d601f19601f82011682018060405250810190612a9e919061373f565b610751576040517fede71dcc00000000000000000000000000000000000000000000000000000000815273ffffffffffffffffffffffffffffffffffffffff831660048201526024016110a6565b5f33321480612afb5750601836105b15612b0557503390565b7fffffffffffffffffffffffffffffffffffffffffffffffffffffffffffffffec36013560601c7f000000000000000000000000000000000000000000000000000000000000000073ffffffffffffffffffffffffffffffffffffffff16331480612c1f57506040517f8929a8ca00000000000000000000000000000000000000000000000000000000815273ffffffffffffffffffffffffffffffffffffffff82811660048301523360248301527f00000000000000000000000000000000000000000000000000000000000000001690638929a8ca90604401602060405180830381865afa158015612bfb573d5f803e3d5ffd5b505050506040513d601f19601f82011682018060405250810190612c1f919061373f565b15612c2957919050565b3391505090565b5f8173ffffffffffffffffffffffffffffffffffffffff168373ffffffffffffffffffffffffffffffffffffffff161480611db857505073ffffffffffffffffffffffffffffffffffffffff9182165f908152600393909301602090815260408085209290931684525290205460ff1690565b6040517f150b7a02000000000000000000000000000000000000000000000000000000008082529073ffffffffffffffffffffffffffffffffffffffff85169063150b7a0290612cfd90899089908890889060040161375a565b6020604051808303815f875af1158015612d19573d5f803e3d5ffd5b505050506040513d601f19601f82011682018060405250810190612d3d91906137a2565b7fffffffff000000000000000000000000000000000000000000000000000000001614610e4d576040517fc215a7a100000000000000000000000000000000000000000000000000000000815273ffffffffffffffffffffffffffffffffffffffff84166004820152602481018390526044016110a6565b5f612e16826040518060400160405280602081526020017f5361666545524332303a206c6f772d6c6576656c2063616c6c206661696c65648152508573ffffffffffffffffffffffffffffffffffffffff16612ed39092919063ffffffff16565b905080515f1480612e36575080806020019051810190612e36919061373f565b610751576040517f08c379a000000000000000000000000000000000000000000000000000000000815260206004820152602a60248201527f5361666545524332303a204552433230206f7065726174696f6e20646964206e60448201527f6f7420737563636565640000000000000000000000000000000000000000000060648201526084016110a6565b6060816001018054612945906136ee565b6060611db884845f85855f808673ffffffffffffffffffffffffffffffffffffffff168587604051612f0591906137bd565b5f6040518083038185875af1925050503d805f8114612f3f576040519150601f19603f3d011682016040523d82523d5f602084013e612f44565b606091505b5091509150612f5587838387612f60565b979650505050505050565b60608315612ff55782515f03612fee5773ffffffffffffffffffffffffffffffffffffffff85163b612fee576040517f08c379a000000000000000000000000000000000000000000000000000000000815260206004820152601d60248201527f416464726573733a2063616c6c20746f206e6f6e2d636f6e747261637400000060448201526064016110a6565b5081611db8565b611db8838381511561300a5781518083602001fd5b806040517f08c379a00000000000000000000000000000000000000000000000000000000081526004016110a691906130f1565b7fffffffff00000000000000000000000000000000000000000000000000000000811681146106c2575f80fd5b5f6020828403121561307b575f80fd5b8135610aa08161303e565b5f5b838110156130a0578181015183820152602001613088565b50505f910152565b5f81518084526130bf816020860160208601613086565b601f017fffffffffffffffffffffffffffffffffffffffffffffffffffffffffffffffe0169290920160200192915050565b602081525f610aa060208301846130a8565b5f60208284031215613113575f80fd5b5035919050565b73ffffffffffffffffffffffffffffffffffffffff811681146106c2575f80fd5b5f806040838503121561314c575f80fd5b82356131578161311a565b946020939093013593505050565b5f60208284031215613175575f80fd5b8135610aa08161311a565b5f805f60608486031215613192575f80fd5b833561319d8161311a565b925060208401356131ad8161311a565b929592945050506040919091013590565b5f80604083850312156131cf575f80fd5b50508035926020909101359150565b5f80604083850312156131ef575f80fd5b8235915060208301356132018161311a565b809150509250929050565b5f8083601f84011261321c575f80fd5b50813567ffffffffffffffff811115613233575f80fd5b6020830191508360208260051b850101111561071d575f80fd5b5f805f6040848603121561325f575f80fd5b833561326a8161311a565b9250602084013567ffffffffffffffff811115613285575f80fd5b6132918682870161320c565b9497909650939450505050565b5f805f805f80606087890312156132b3575f80fd5b863567ffffffffffffffff808211156132ca575f80fd5b6132d68a838b0161320c565b909850965060208901359150808211156132ee575f80fd5b6132fa8a838b0161320c565b90965094506040890135915080821115613312575f80fd5b5061331f89828a0161320c565b979a9699509497509295939492505050565b5f8083601f840112613341575f80fd5b50813567ffffffffffffffff811115613358575f80fd5b60208301915083602082850101111561071d575f80fd5b5f805f8060608587031215613382575f80fd5b843561338d8161311a565b935060208501359250604085013567ffffffffffffffff8111156133af575f80fd5b6133bb87828801613331565b95989497509550505050565b5f805f80604085870312156133da575f80fd5b843567ffffffffffffffff808211156133f1575f80fd5b6133fd8883890161320c565b90965094506020870135915080821115613415575f80fd5b506133bb8782880161320c565b80151581146106c2575f80fd5b5f8060408385031215613440575f80fd5b823561344b8161311a565b9150602083013561320181613422565b5f805f805f6080868803121561346f575f80fd5b853561347a8161311a565b9450602086013561348a8161311a565b935060408601359250606086013567ffffffffffffffff8111156134ac575f80fd5b6134b888828901613331565b969995985093965092949392505050565b5f80604083850312156134da575f80fd5b82356134e58161311a565b915060208301356132018161311a565b5f805f8060608587031215613508575f80fd5b84356135138161311a565b935060208501356135238161311a565b9250604085013567ffffffffffffffff81111561353e575f80fd5b6133bb8782880161320c565b7f4e487b71000000000000000000000000000000000000000000000000000000005f52603260045260245ffd5b7f4e487b71000000000000000000000000000000000000000000000000000000005f52601160045260245ffd5b818103818111156105e3576105e3613577565b80820281158282048414176105e3576105e3613577565b5f82613601577f4e487b71000000000000000000000000000000000000000000000000000000005f52601260045260245ffd5b500490565b7f4e487b71000000000000000000000000000000000000000000000000000000005f52604160045260245ffd5b5f60208284031215613643575f80fd5b815167ffffffffffffffff8082111561365a575f80fd5b818401915084601f83011261366d575f80fd5b81518181111561367f5761367f613606565b604051601f82017fffffffffffffffffffffffffffffffffffffffffffffffffffffffffffffffe0908116603f011681019083821181831017156136c5576136c5613606565b816040528281528760208487010111156136dd575f80fd5b612f55836020830160208801613086565b600181811c9082168061370257607f821691505b602082108103613739577f4e487b71000000000000000000000000000000000000000000000000000000005f52602260045260245ffd5b50919050565b5f6020828403121561374f575f80fd5b8151610aa081613422565b5f73ffffffffffffffffffffffffffffffffffffffff80871683528086166020840152508360408301526080606083015261379860808301846130a8565b9695505050505050565b5f602082840312156137b2575f80fd5b8151610aa08161303e565b5f82516137ce818460208701613086565b919091019291505056fea26469706673582212203c287c0f7bd35c44a8e6c5049fbb437051604e7831e5ba707a74d336ee0b900464736f6c63430008150033",
  "linkReferences": {},
  "deployedLinkReferences": {}
}