{
  "_format": "hh-sol-artifact-1",
  "contractName": "ERC721Full",
  "sourceName": "contracts/token/ERC721/preset/ERC721Full.sol",
  "abi": [
    {
      "inputs": [
        {
          "internalType": "string",
          "name": "tokenName",
          "type": "string"
        },
        {
          "internalType": "string",
          "name": "tokenSymbol",
          "type": "string"
        },
        {
          "internalType": "contract ITokenMetadataResolver",
          "name": "metadataResolver",
          "type": "address"
        },
        {
          "internalType": "contract IOperatorFilterRegistry",
          "name": "filterRegistry",
          "type": "address"
        },
        {
          "internalType": "contract IForwarderRegistry",
          "name": "forwarderRegistry",
          "type": "address"
        }
      ],
      "stateMutability": "nonpayable",
      "type": "constructor"
    },
    {
      "inputs": [
        {
          "internalType": "uint256",
          "name": "percentage",
          "type": "uint256"
        }
      ],
      "name": "ERC2981IncorrectRoyaltyPercentage",
      "type": "error"
    },
    {
      "inputs": [],
      "name": "ERC2981IncorrectRoyaltyReceiver",
      "type": "error"
    },
    {
      "inputs": [],
      "name": "ERC721BalanceOfAddressZero",
      "type": "error"
    },
    {
      "inputs": [
        {
          "internalType": "uint256",
          "name": "tokenId",
          "type": "uint256"
        }
      ],
      "name": "ERC721ExistingToken",
      "type": "error"
    },
    {
      "inputs": [],
      "name": "ERC721MintToAddressZero",
      "type": "error"
    },
    {
      "inputs": [
        {
          "internalType": "address",
          "name": "sender",
          "type": "address"
        },
        {
          "internalType": "address",
          "name": "owner",
          "type": "address"
        },
        {
          "internalType": "uint256",
          "name": "tokenId",
          "type": "uint256"
        }
      ],
      "name": "ERC721NonApprovedForApproval",
      "type": "error"
    },
    {
      "inputs": [
        {
          "internalType": "address",
          "name": "sender",
          "type": "address"
        },
        {
          "internalType": "address",
          "name": "owner",
          "type": "address"
        },
        {
          "internalType": "uint256",
          "name": "tokenId",
          "type": "uint256"
        }
      ],
      "name": "ERC721NonApprovedForTransfer",
      "type": "error"
    },
    {
      "inputs": [
        {
          "internalType": "uint256",
          "name": "tokenId",
          "type": "uint256"
        }
      ],
      "name": "ERC721NonExistingToken",
      "type": "error"
    },
    {
      "inputs": [
        {
          "internalType": "address",
          "name": "account",
          "type": "address"
        },
        {
          "internalType": "uint256",
          "name": "tokenId",
          "type": "uint256"
        }
      ],
      "name": "ERC721NonOwnedToken",
      "type": "error"
    },
    {
      "inputs": [
        {
          "internalType": "address",
          "name": "recipient",
          "type": "address"
        },
        {
          "internalType": "uint256",
          "name": "tokenId",
          "type": "uint256"
        }
      ],
      "name": "ERC721SafeTransferRejected",
      "type": "error"
    },
    {
      "inputs": [
        {
          "internalType": "address",
          "name": "account",
          "type": "address"
        }
      ],
      "name": "ERC721SelfApproval",
      "type": "error"
    },
    {
      "inputs": [
        {
          "internalType": "address",
          "name": "account",
          "type": "address"
        }
      ],
      "name": "ERC721SelfApprovalForAll",
      "type": "error"
    },
    {
      "inputs": [],
      "name": "ERC721TransferToAddressZero",
      "type": "error"
    },
    {
      "inputs": [],
      "name": "FailedCall",
      "type": "error"
    },
    {
      "inputs": [],
      "name": "IllegalInterfaceId",
      "type": "error"
    },
    {
      "inputs": [],
      "name": "InconsistentArrayLengths",
      "type": "error"
    },
    {
      "inputs": [
        {
          "internalType": "address",
          "name": "tokenContract",
          "type": "address"
        }
      ],
      "name": "IncorrectTokenContractType",
      "type": "error"
    },
    {
      "inputs": [
        {
          "internalType": "uint256",
          "name": "balance",
          "type": "uint256"
        },
        {
          "internalType": "uint256",
          "name": "needed",
          "type": "uint256"
        }
      ],
      "name": "InsufficientBalance",
      "type": "error"
    },
    {
      "inputs": [
        {
          "internalType": "address",
          "name": "account",
          "type": "address"
        }
      ],
      "name": "NotContractOwner",
      "type": "error"
    },
    {
      "inputs": [
        {
          "internalType": "bytes32",
          "name": "role",
          "type": "bytes32"
        },
        {
          "internalType": "address",
          "name": "account",
          "type": "address"
        }
      ],
      "name": "NotRoleHolder",
      "type": "error"
    },
    {
      "inputs": [
        {
          "internalType": "address",
          "name": "operator",
          "type": "address"
        }
      ],
      "name": "OperatorNotAllowed",
      "type": "error"
    },
    {
      "inputs": [
        {
          "internalType": "address",
          "name": "token",
          "type": "address"
        }
      ],
      "name": "SafeERC20FailedOperation",
      "type": "error"
    },
    {
      "anonymous": false,
      "inputs": [
        {
          "indexed": true,
          "internalType": "address",
          "name": "owner",
          "type": "address"
        },
        {
          "indexed": true,
          "internalType": "address",
          "name": "approved",
          "type": "address"
        },
        {
          "indexed": true,
          "internalType": "uint256",
          "name": "tokenId",
          "type": "uint256"
        }
      ],
      "name": "Approval",
      "type": "event"
    },
    {
      "anonymous": false,
      "inputs": [
        {
          "indexed": true,
          "internalType": "address",
          "name": "owner",
          "type": "address"
        },
        {
          "indexed": true,
          "internalType": "address",
          "name": "operator",
          "type": "address"
        },
        {
          "indexed": false,
          "internalType": "bool",
          "name": "approved",
          "type": "bool"
        }
      ],
      "name": "ApprovalForAll",
      "type": "event"
    },
    {
      "anonymous": false,
      "inputs": [
        {
          "indexed": true,
          "internalType": "address",
          "name": "previousOwner",
          "type": "address"
        },
        {
          "indexed": true,
          "internalType": "address",
          "name": "newOwner",
          "type": "address"
        }
      ],
      "name": "OwnershipTransferred",
      "type": "event"
    },
    {
      "anonymous": false,
      "inputs": [
        {
          "indexed": false,
          "internalType": "bytes32",
          "name": "role",
          "type": "bytes32"
        },
        {
          "indexed": false,
          "internalType": "address",
          "name": "account",
          "type": "address"
        },
        {
          "indexed": false,
          "internalType": "address",
          "name": "operator",
          "type": "address"
        }
      ],
      "name": "RoleGranted",
      "type": "event"
    },
    {
      "anonymous": false,
      "inputs": [
        {
          "indexed": false,
          "internalType": "bytes32",
          "name": "role",
          "type": "bytes32"
        },
        {
          "indexed": false,
          "internalType": "address",
          "name": "account",
          "type": "address"
        },
        {
          "indexed": false,
          "internalType": "address",
          "name": "operator",
          "type": "address"
        }
      ],
      "name": "RoleRevoked",
      "type": "event"
    },
    {
      "anonymous": false,
      "inputs": [
        {
          "indexed": true,
          "internalType": "address",
          "name": "from",
          "type": "address"
        },
        {
          "indexed": true,
          "internalType": "address",
          "name": "to",
          "type": "address"
        },
        {
          "indexed": true,
          "internalType": "uint256",
          "name": "tokenId",
          "type": "uint256"
        }
      ],
      "name": "Transfer",
      "type": "event"
    },
    {
      "inputs": [],
      "name": "MINTER_ROLE",
      "outputs": [
        {
          "internalType": "bytes32",
          "name": "",
          "type": "bytes32"
        }
      ],
      "stateMutability": "view",
      "type": "function"
    },
    {
      "inputs": [],
      "name": "ROYALTY_FEE_DENOMINATOR",
      "outputs": [
        {
          "internalType": "uint256",
          "name": "",
          "type": "uint256"
        }
      ],
      "stateMutability": "view",
      "type": "function"
    },
    {
      "inputs": [
        {
          "internalType": "address",
          "name": "to",
          "type": "address"
        },
        {
          "internalType": "uint256",
          "name": "tokenId",
          "type": "uint256"
        }
      ],
      "name": "approve",
      "outputs": [],
      "stateMutability": "nonpayable",
      "type": "function"
    },
    {
      "inputs": [
        {
          "internalType": "address",
          "name": "owner",
          "type": "address"
        }
      ],
      "name": "balanceOf",
      "outputs": [
        {
          "internalType": "uint256",
          "name": "balance",
          "type": "uint256"
        }
      ],
      "stateMutability": "view",
      "type": "function"
    },
    {
      "inputs": [
        {
          "internalType": "address",
          "name": "to",
          "type": "address"
        },
        {
          "internalType": "uint256[]",
          "name": "tokenIds",
          "type": "uint256[]"
        }
      ],
      "name": "batchMint",
      "outputs": [],
      "stateMutability": "nonpayable",
      "type": "function"
    },
    {
      "inputs": [
        {
          "internalType": "address",
          "name": "from",
          "type": "address"
        },
        {
          "internalType": "address",
          "name": "to",
          "type": "address"
        },
        {
          "internalType": "uint256[]",
          "name": "tokenIds",
          "type": "uint256[]"
        }
      ],
      "name": "batchTransferFrom",
      "outputs": [],
      "stateMutability": "nonpayable",
      "type": "function"
    },
    {
      "inputs": [
        {
          "internalType": "address[]",
          "name": "recipients",
          "type": "address[]"
        },
        {
          "internalType": "uint256[]",
          "name": "tokenIds",
          "type": "uint256[]"
        }
      ],
      "name": "deliver",
      "outputs": [],
      "stateMutability": "nonpayable",
      "type": "function"
    },
    {
      "inputs": [],
      "name": "forwarderRegistry",
      "outputs": [
        {
          "internalType": "contract IForwarderRegistry",
          "name": "",
          "type": "address"
        }
      ],
      "stateMutability": "view",
      "type": "function"
    },
    {
      "inputs": [
        {
          "internalType": "uint256",
          "name": "tokenId",
          "type": "uint256"
        }
      ],
      "name": "getApproved",
      "outputs": [
        {
          "internalType": "address",
          "name": "approved",
          "type": "address"
        }
      ],
      "stateMutability": "view",
      "type": "function"
    },
    {
      "inputs": [
        {
          "internalType": "bytes32",
          "name": "role",
          "type": "bytes32"
        },
        {
          "internalType": "address",
          "name": "account",
          "type": "address"
        }
      ],
      "name": "grantRole",
      "outputs": [],
      "stateMutability": "nonpayable",
      "type": "function"
    },
    {
      "inputs": [
        {
          "internalType": "bytes32",
          "name": "role",
          "type": "bytes32"
        },
        {
          "internalType": "address",
          "name": "account",
          "type": "address"
        }
      ],
      "name": "hasRole",
      "outputs": [
        {
          "internalType": "bool",
          "name": "hasRole_",
          "type": "bool"
        }
      ],
      "stateMutability": "view",
      "type": "function"
    },
    {
      "inputs": [
        {
          "internalType": "address",
          "name": "owner",
          "type": "address"
        },
        {
          "internalType": "address",
          "name": "operator",
          "type": "address"
        }
      ],
      "name": "isApprovedForAll",
      "outputs": [
        {
          "internalType": "bool",
          "name": "approvedForAll",
          "type": "bool"
        }
      ],
      "stateMutability": "view",
      "type": "function"
    },
    {
      "inputs": [
        {
          "internalType": "address",
          "name": "forwarder",
          "type": "address"
        }
      ],
      "name": "isTrustedForwarder",
      "outputs": [
        {
          "internalType": "bool",
          "name": "",
          "type": "bool"
        }
      ],
      "stateMutability": "view",
      "type": "function"
    },
    {
      "inputs": [],
      "name": "metadataResolver",
      "outputs": [
        {
          "internalType": "contract ITokenMetadataResolver",
          "name": "tokenMetadataResolver",
          "type": "address"
        }
      ],
      "stateMutability": "view",
      "type": "function"
    },
    {
      "inputs": [
        {
          "internalType": "address",
          "name": "to",
          "type": "address"
        },
        {
          "internalType": "uint256",
          "name": "tokenId",
          "type": "uint256"
        }
      ],
      "name": "mint",
      "outputs": [],
      "stateMutability": "nonpayable",
      "type": "function"
    },
    {
      "inputs": [],
      "name": "name",
      "outputs": [
        {
          "internalType": "string",
          "name": "tokenName",
          "type": "string"
        }
      ],
      "stateMutability": "view",
      "type": "function"
    },
    {
      "inputs": [],
      "name": "operatorFilterRegistry",
      "outputs": [
        {
          "internalType": "contract IOperatorFilterRegistry",
          "name": "",
          "type": "address"
        }
      ],
      "stateMutability": "view",
      "type": "function"
    },
    {
      "inputs": [],
      "name": "owner",
      "outputs": [
        {
          "internalType": "address",
          "name": "",
          "type": "address"
        }
      ],
      "stateMutability": "view",
      "type": "function"
    },
    {
      "inputs": [
        {
          "internalType": "uint256",
          "name": "tokenId",
          "type": "uint256"
        }
      ],
      "name": "ownerOf",
      "outputs": [
        {
          "internalType": "address",
          "name": "tokenOwner",
          "type": "address"
        }
      ],
      "stateMutability": "view",
      "type": "function"
    },
    {
      "inputs": [
        {
          "internalType": "address[]",
          "name": "accounts",
          "type": "address[]"
        },
        {
          "internalType": "contract IERC20[]",
          "name": "tokens",
          "type": "address[]"
        },
        {
          "internalType": "uint256[]",
          "name": "amounts",
          "type": "uint256[]"
        }
      ],
      "name": "recoverERC20s",
      "outputs": [],
      "stateMutability": "nonpayable",
      "type": "function"
    },
    {
      "inputs": [
        {
          "internalType": "address[]",
          "name": "accounts",
          "type": "address[]"
        },
        {
          "internalType": "contract IERC721[]",
          "name": "contracts",
          "type": "address[]"
        },
        {
          "internalType": "uint256[]",
          "name": "tokenIds",
          "type": "uint256[]"
        }
      ],
      "name": "recoverERC721s",
      "outputs": [],
      "stateMutability": "nonpayable",
      "type": "function"
    },
    {
      "inputs": [
        {
          "internalType": "address payable[]",
          "name": "accounts",
          "type": "address[]"
        },
        {
          "internalType": "uint256[]",
          "name": "amounts",
          "type": "uint256[]"
        }
      ],
      "name": "recoverETH",
      "outputs": [],
      "stateMutability": "nonpayable",
      "type": "function"
    },
    {
      "inputs": [
        {
          "internalType": "bytes32",
          "name": "role",
          "type": "bytes32"
        }
      ],
      "name": "renounceRole",
      "outputs": [],
      "stateMutability": "nonpayable",
      "type": "function"
    },
    {
      "inputs": [
        {
          "internalType": "bytes32",
          "name": "role",
          "type": "bytes32"
        },
        {
          "internalType": "address",
          "name": "account",
          "type": "address"
        }
      ],
      "name": "revokeRole",
      "outputs": [],
      "stateMutability": "nonpayable",
      "type": "function"
    },
    {
      "inputs": [
        {
          "internalType": "uint256",
          "name": "tokenId",
          "type": "uint256"
        },
        {
          "internalType": "uint256",
          "name": "salePrice",
          "type": "uint256"
        }
      ],
      "name": "royaltyInfo",
      "outputs": [
        {
          "internalType": "address",
          "name": "receiver",
          "type": "address"
        },
        {
          "internalType": "uint256",
          "name": "royaltyAmount",
          "type": "uint256"
        }
      ],
      "stateMutability": "view",
      "type": "function"
    },
    {
      "inputs": [
        {
          "internalType": "address",
          "name": "to",
          "type": "address"
        },
        {
          "internalType": "uint256",
          "name": "tokenId",
          "type": "uint256"
        },
        {
          "internalType": "bytes",
          "name": "data",
          "type": "bytes"
        }
      ],
      "name": "safeMint",
      "outputs": [],
      "stateMutability": "nonpayable",
      "type": "function"
    },
    {
      "inputs": [
        {
          "internalType": "address",
          "name": "from",
          "type": "address"
        },
        {
          "internalType": "address",
          "name": "to",
          "type": "address"
        },
        {
          "internalType": "uint256",
          "name": "tokenId",
          "type": "uint256"
        }
      ],
      "name": "safeTransferFrom",
      "outputs": [],
      "stateMutability": "nonpayable",
      "type": "function"
    },
    {
      "inputs": [
        {
          "internalType": "address",
          "name": "from",
          "type": "address"
        },
        {
          "internalType": "address",
          "name": "to",
          "type": "address"
        },
        {
          "internalType": "uint256",
          "name": "tokenId",
          "type": "uint256"
        },
        {
          "internalType": "bytes",
          "name": "data",
          "type": "bytes"
        }
      ],
      "name": "safeTransferFrom",
      "outputs": [],
      "stateMutability": "nonpayable",
      "type": "function"
    },
    {
      "inputs": [
        {
          "internalType": "address",
          "name": "operator",
          "type": "address"
        },
        {
          "internalType": "bool",
          "name": "approved",
          "type": "bool"
        }
      ],
      "name": "setApprovalForAll",
      "outputs": [],
      "stateMutability": "nonpayable",
      "type": "function"
    },
    {
      "inputs": [
        {
          "internalType": "uint256",
          "name": "percentage",
          "type": "uint256"
        }
      ],
      "name": "setRoyaltyPercentage",
      "outputs": [],
      "stateMutability": "nonpayable",
      "type": "function"
    },
    {
      "inputs": [
        {
          "internalType": "address",
          "name": "receiver",
          "type": "address"
        }
      ],
      "name": "setRoyaltyReceiver",
      "outputs": [],
      "stateMutability": "nonpayable",
      "type": "function"
    },
    {
      "inputs": [
        {
          "internalType": "bytes4",
          "name": "interfaceId",
          "type": "bytes4"
        }
      ],
      "name": "supportsInterface",
      "outputs": [
        {
          "internalType": "bool",
          "name": "",
          "type": "bool"
        }
      ],
      "stateMutability": "view",
      "type": "function"
    },
    {
      "inputs": [],
      "name": "symbol",
      "outputs": [
        {
          "internalType": "string",
          "name": "tokenSymbol",
          "type": "string"
        }
      ],
      "stateMutability": "view",
      "type": "function"
    },
    {
      "inputs": [
        {
          "internalType": "uint256",
          "name": "tokenId",
          "type": "uint256"
        }
      ],
      "name": "tokenURI",
      "outputs": [
        {
          "internalType": "string",
          "name": "uri",
          "type": "string"
        }
      ],
      "stateMutability": "view",
      "type": "function"
    },
    {
      "inputs": [
        {
          "internalType": "address",
          "name": "from",
          "type": "address"
        },
        {
          "internalType": "address",
          "name": "to",
          "type": "address"
        },
        {
          "internalType": "uint256",
          "name": "tokenId",
          "type": "uint256"
        }
      ],
      "name": "transferFrom",
      "outputs": [],
      "stateMutability": "nonpayable",
      "type": "function"
    },
    {
      "inputs": [
        {
          "internalType": "address",
          "name": "newOwner",
          "type": "address"
        }
      ],
      "name": "transferOwnership",
      "outputs": [],
      "stateMutability": "nonpayable",
      "type": "function"
    },
    {
      "inputs": [
        {
          "internalType": "contract IOperatorFilterRegistry",
          "name": "registry",
          "type": "address"
        }
      ],
      "name": "updateOperatorFilterRegistry",
      "outputs": [],
      "stateMutability": "nonpayable",
      "type": "function"
    }
  ],
  "bytecode": "0x60a060405234801561001057600080fd5b50604051613e3c380380613e3c83398101604081905261002f916103f6565b80808686868633610048816100426100d6565b9061010a565b50610051610180565b61007b8161005d610197565b9081546001600160a01b0319166001600160a01b0391909116179055565b506100846101c5565b61009a8383836100926101da565b929190610208565b6100a261024b565b506100ae915050610260565b6100b6610275565b6100be61028a565b6001600160a01b031660805250610603945050505050565b60008061010460017fc9ed16f33ab3a66c84bfd83099ccb2a8845871e2e1c1928f63797152f0fd54cd61049b565b92915050565b6001600160a01b038116156101605781546001600160a01b0319166001600160a01b03821690811783556040516000907f8be0079c531659141344cd1fd0a4f28419497f9722a3daafe3b4186f6b6457e0908290a35b61017c6307f5828d60e41b600161017561029b565b91906102c9565b5050565b6101956380ac58cd60e01b600161017561029b565b565b60008061010460017f609b85bcafa81ecfaf3ff62cdde2c6c9082a68dbe4922f07399c706bdeb7cd3161049b565b61019563f3993d1160e01b600161017561029b565b60008061010460017f7ea68fd2dcf1c056b94db6a0a537aa80d26fa9ab1eacd85da1ba0b61b7e7a8a561049b565b836102138482610545565b50600184016102228382610545565b5060029390930180546001600160a01b0319166001600160a01b03909416939093179092555050565b610195635b5e139f60e01b600161017561029b565b610195638e773e1360e01b600161017561029b565b610195634ed2f41960e11b600161017561029b565b61019563152a902d60e11b60016101755b60008061010460017fca9d3e17f264b0f3984e2634e94adb37fa3e6a8103f06aeae6fa59e21c769f5e61049b565b600160e01b6001600160e01b03198316016102f7576040516372c683bb60e01b815260040160405180910390fd5b6001600160e01b03199190911660009081526020929092526040909120805460ff1916911515919091179055565b634e487b7160e01b600052604160045260246000fd5b600082601f83011261034c57600080fd5b81516001600160401b0381111561036557610365610325565b604051601f8201601f19908116603f011681016001600160401b038111828210171561039357610393610325565b6040528181528382016020018510156103ab57600080fd5b60005b828110156103ca576020818601810151838301820152016103ae565b506000918101602001919091529392505050565b6001600160a01b03811681146103f357600080fd5b50565b600080600080600060a0868803121561040e57600080fd5b85516001600160401b0381111561042457600080fd5b6104308882890161033b565b602088015190965090506001600160401b0381111561044e57600080fd5b61045a8882890161033b565b945050604086015161046b816103de565b606087015190935061047c816103de565b608087015190925061048d816103de565b809150509295509295909350565b8181038181111561010457634e487b7160e01b600052601160045260246000fd5b600181811c908216806104d057607f821691505b6020821081036104f057634e487b7160e01b600052602260045260246000fd5b50919050565b601f82111561054057806000526020600020601f840160051c8101602085101561051d5750805b601f840160051c820191505b8181101561053d5760008155600101610529565b50505b505050565b81516001600160401b0381111561055e5761055e610325565b6105728161056c84546104bc565b846104f6565b6020601f8211600181146105a6576000831561058e5750848201515b600019600385901b1c1916600184901b17845561053d565b600084815260208120601f198516915b828110156105d657878501518255602094850194600190920191016105b6565b50848210156105f45786840151600019600387901b60f8161c191681555b50505050600190811b01905550565b6080516138096106336000396000818161036d015281816103ed01528181612c2c0152612cba01526138096000f3fe608060405234801561001057600080fd5b50600436106102775760003560e01c80638bb9c5bf11610160578063b88d4fde116100d8578063e1a8bf2c1161008c578063f2fde38b11610071578063f2fde38b146105a6578063f3993d11146105b9578063f7ba94bd146105cc57600080fd5b8063e1a8bf2c14610589578063e985e9c51461059357600080fd5b8063c87b56dd116100bd578063c87b56dd1461053c578063d53913931461054f578063d547741f1461057657600080fd5b8063b88d4fde14610516578063c3666c361461052957600080fd5b806395d89b411161012f578063a0c76f6211610114578063a0c76f62146104f3578063a22cb465146104fb578063b0ccc31e1461050e57600080fd5b806395d89b41146104d85780639da5e832146104e057600080fd5b80638bb9c5bf146104975780638da5cb5b146104aa5780638dc251e3146104b257806391d14854146104c557600080fd5b806340c10f19116101f357806361ba27da116101c257806370a08231116101a757806370a082311461045057806373c8a958146104715780638832e6e31461048457600080fd5b806361ba27da1461042a5780636352211e1461043d57600080fd5b806340c10f19146103a457806342842e0e146103b75780634684d7e9146103ca578063572b6c05146103dd57600080fd5b8063114ba8ee1161024a5780632a55205a1161022f5780632a55205a1461032c5780632b4c9f161461036b5780632f2ff15d1461039157600080fd5b8063114ba8ee1461030657806323b872dd1461031957600080fd5b806301ffc9a71461027c57806306fdde03146102a4578063081812fc146102b9578063095ea7b3146102f1575b600080fd5b61028f61028a366004612fe5565b6105df565b60405190151581526020015b60405180910390f35b6102ac6105f9565b60405161029b9190613070565b6102cc6102c7366004613083565b610608565b60405173ffffffffffffffffffffffffffffffffffffffff909116815260200161029b565b6103046102ff3660046130be565b61061c565b005b6103046103143660046130ea565b61066b565b610304610327366004613107565b6106d6565b61033f61033a366004613148565b610714565b6040805173ffffffffffffffffffffffffffffffffffffffff909316835260208301919091520161029b565b7f00000000000000000000000000000000000000000000000000000000000000006102cc565b61030461039f36600461316a565b610737565b6103046103b23660046130be565b61076a565b6103046103c5366004613107565b6107b9565b6103046103d83660046131df565b6107ea565b61028f6103eb3660046130ea565b7f000000000000000000000000000000000000000000000000000000000000000073ffffffffffffffffffffffffffffffffffffffff90811691161490565b610304610438366004613083565b61085e565b6102cc61044b366004613083565b61087b565b61046361045e3660046130ea565b61088f565b60405190815260200161029b565b61030461047f366004613234565b6108a3565b61030461049236600461331c565b610999565b6103046104a5366004613083565b610a1b565b6102cc610a36565b6103046104c03660046130ea565b610a5d565b61028f6104d336600461316a565b610a7a565b6102ac610ac5565b6103046104ee366004613378565b610acf565b6102cc610b73565b6103046105093660046133eb565b610b9d565b6102cc610bcc565b610304610524366004613419565b610bd9565b610304610537366004613234565b610c16565b6102ac61054a366004613083565b610ebc565b6104637f6d696e746572000000000000000000000000000000000000000000000000000081565b61030461058436600461316a565b610edf565b610463620186a081565b61028f6105a136600461348c565b610f0d565b6103046105b43660046130ea565b610f5b565b6103046105c73660046134ba565b610f76565b6103046105da366004613378565b610fb0565b60006105f3826105ed611067565b90611095565b92915050565b606061060361116f565b905090565b60006105f382610616611181565b906111af565b73ffffffffffffffffffffffffffffffffffffffff82161561064a5761064a82610644611263565b90611291565b61066761065561129b565b838361065f611181565b9291906112a5565b5050565b61068461067661129b565b61067e611520565b9061154e565b6106d381610690611263565b9081547fffffffffffffffffffffffff00000000000000000000000000000000000000001673ffffffffffffffffffffffffffffffffffffffff91909116179055565b50565b60006106e061129b565b90506106f681856106ef611263565b91906115fb565b61070e81858585610705611181565b93929190611638565b50505050565b60008061072b8484610724611916565b9190611944565b915091505b9250929050565b600061074161129b565b905061074f8161067e611520565b61076583838361075d6119ee565b929190611a1c565b505050565b6107a57f6d696e746572000000000000000000000000000000000000000000000000000061079661129b565b61079e6119ee565b9190611af2565b61066782826107b2611181565b9190611b78565b60006107c361129b565b90506107d281856106ef611263565b61070e818585856107e1611181565b93929190611c92565b6108167f6d696e746572000000000000000000000000000000000000000000000000000061079661129b565b610765838383808060200260200160405190810160405280939291908181526020018383602002808284376000920191909152506108579250611181915050565b9190611cd8565b61086961067661129b565b6106d381610875611916565b90611e50565b60006105f382610889611181565b90611ed6565b60006105f38261089d611181565b90611f3f565b6108ae61067661129b565b8483811415806108be5750808214155b156108f5576040517f6582533600000000000000000000000000000000000000000000000000000000815260040160405180910390fd5b60005b8181101561098f5761098788888381811061091557610915613507565b905060200201602081019061092a91906130ea565b85858481811061093c5761093c613507565b9050602002013588888581811061095557610955613507565b905060200201602081019061096a91906130ea565b73ffffffffffffffffffffffffffffffffffffffff169190611fbb565b6001016108f8565b5050505050505050565b6109c57f6d696e746572000000000000000000000000000000000000000000000000000061079661129b565b61070e6109d061129b565b858585858080601f016020809104026020016040519081016040528093929190818152602001838380828437600092019190915250610a129250611181915050565b93929190612048565b6106d3610a2661129b565b82610a2f6119ee565b919061207e565b6000610603610a43611520565b5473ffffffffffffffffffffffffffffffffffffffff1690565b610a6861067661129b565b6106d381610a74611916565b90612122565b6000610abe8383610a896119ee565b60009283526020908152604080842073ffffffffffffffffffffffffffffffffffffffff909316845291905290205460ff1690565b9392505050565b606061060361216f565b610afb7f6d696e746572000000000000000000000000000000000000000000000000000061079661129b565b61070e84848080602002602001604051908101604052809392919081815260200183836020028082843760009201919091525050604080516020808802828101820190935287825290935087925086918291850190849080828437600092019190915250610b6c9250611181915050565b9190612181565b6000610603610b80612217565b6002015473ffffffffffffffffffffffffffffffffffffffff1690565b8015610baf57610baf82610644611263565b610667610bba61129b565b8383610bc4611181565b929190612245565b6000610603610a43611263565b6000610be361129b565b9050610bf281876106ef611263565b610c0e818787878787610c03611181565b95949392919061235d565b505050505050565b610c2161067661129b565b848381141580610c315750808214155b15610c68576040517f6582533600000000000000000000000000000000000000000000000000000000815260040160405180910390fd5b60005b8181101561098f576000868683818110610c8757610c87613507565b9050602002016020810190610c9c91906130ea565b6040517f01ffc9a70000000000000000000000000000000000000000000000000000000081527f80ac58cd00000000000000000000000000000000000000000000000000000000600482015290915073ffffffffffffffffffffffffffffffffffffffff8216906301ffc9a790602401602060405180830381865afa158015610d29573d6000803e3d6000fd5b505050506040513d601f19601f82011682018060405250810190610d4d9190613536565b610da0576040517f986b9f1f00000000000000000000000000000000000000000000000000000000815273ffffffffffffffffffffffffffffffffffffffff821660048201526024015b60405180910390fd5b868683818110610db257610db2613507565b9050602002016020810190610dc791906130ea565b73ffffffffffffffffffffffffffffffffffffffff166342842e0e308b8b86818110610df557610df5613507565b9050602002016020810190610e0a91906130ea565b888887818110610e1c57610e1c613507565b6040517fffffffff0000000000000000000000000000000000000000000000000000000060e088901b16815273ffffffffffffffffffffffffffffffffffffffff958616600482015294909316602485015250602090910201356044820152606401600060405180830381600087803b158015610e9857600080fd5b505af1158015610eac573d6000803e3d6000fd5b5050505050806001019050610c6b565b6060610eca82610889611181565b506105f33083610ed8612217565b91906123d3565b6000610ee961129b565b9050610ef78161067e611520565b610765838383610f056119ee565b929190612493565b6000610abe8383610f1c611181565b919073ffffffffffffffffffffffffffffffffffffffff9182166000908152600393909301602090815260408085209290931684525290205460ff1690565b6106d3610f6661129b565b82610f6f611520565b919061255d565b6000610f8061129b565b9050610f8f81866106ef611263565b610fa98186868686610f9f611181565b9493929190612671565b5050505050565b610fbb61067661129b565b82818114610ff5576040517f6582533600000000000000000000000000000000000000000000000000000000815260040160405180910390fd5b60005b81811015610c0e5761105f84848381811061101557611015613507565b9050602002013587878481811061102e5761102e613507565b905060200201602081019061104391906130ea565b73ffffffffffffffffffffffffffffffffffffffff1690612976565b600101610ff8565b6000806105f360017fca9d3e17f264b0f3984e2634e94adb37fa3e6a8103f06aeae6fa59e21c769f5e613582565b60007c01000000000000000000000000000000000000000000000000000000007fffffffff000000000000000000000000000000000000000000000000000000008316016110e5575060006105f3565b7ffe003659000000000000000000000000000000000000000000000000000000007fffffffff00000000000000000000000000000000000000000000000000000000831601611136575060016105f3565b507fffffffff00000000000000000000000000000000000000000000000000000000166000908152602091909152604090205460ff1690565b606061060361117c612217565b612a2c565b6000806105f360017fddf3ee18ae6d688373c219468f8be446e7ae82215f4779d821c7ea5e8c13c0c1613582565b60008181526020839052604081205473ffffffffffffffffffffffffffffffffffffffff811661120e576040517fdd56047500000000000000000000000000000000000000000000000000000000815260048101849052602401610d97565b74010000000000000000000000000000000000000000811615611259575050600081815260028301602052604090205473ffffffffffffffffffffffffffffffffffffffff166105f3565b60009150506105f3565b6000806105f360017f609b85bcafa81ecfaf3ff62cdde2c6c9082a68dbe4922f07399c706bdeb7cd31613582565b6106678282612ac2565b6000610603612be9565b60008181526020859052604090205473ffffffffffffffffffffffffffffffffffffffff8116611304576040517fdd56047500000000000000000000000000000000000000000000000000000000815260048101839052602401610d97565b8073ffffffffffffffffffffffffffffffffffffffff8082169085160361136f576040517fb7fdc01000000000000000000000000000000000000000000000000000000000815273ffffffffffffffffffffffffffffffffffffffff82166004820152602401610d97565b61137a868287612d36565b6113d7576040517fc7563a1800000000000000000000000000000000000000000000000000000000815273ffffffffffffffffffffffffffffffffffffffff80871660048301528216602482015260448101849052606401610d97565b73ffffffffffffffffffffffffffffffffffffffff841661143c577401000000000000000000000000000000000000000082161561143757600083815260208790526040902073ffffffffffffffffffffffffffffffffffffffff821690555b6114bd565b74010000000000000000000000000000000000000000821780831461146d5760008481526020889052604090208190555b506000838152600287016020526040902080547fffffffffffffffffffffffff00000000000000000000000000000000000000001673ffffffffffffffffffffffffffffffffffffffff86161790555b828473ffffffffffffffffffffffffffffffffffffffff168273ffffffffffffffffffffffffffffffffffffffff167f8c5be1e5ebec7d5bd14f71427d1e84f3dd0314c0f7b2291e5b200ac8c7c3b92560405160405180910390a4505050505050565b6000806105f360017fc9ed16f33ab3a66c84bfd83099ccb2a8845871e2e1c1928f63797152f0fd54cd613582565b815473ffffffffffffffffffffffffffffffffffffffff828116911614610667576040517f2ef4875e00000000000000000000000000000000000000000000000000000000815273ffffffffffffffffffffffffffffffffffffffff82166004820152602401610d97565b81547fffffffffffffffffffffffff00000000000000000000000000000000000000001673ffffffffffffffffffffffffffffffffffffffff91909116179055565b8073ffffffffffffffffffffffffffffffffffffffff168273ffffffffffffffffffffffffffffffffffffffff1614610765576107658383612ac2565b73ffffffffffffffffffffffffffffffffffffffff8216611685576040517f86c8706700000000000000000000000000000000000000000000000000000000815260040160405180910390fd5b60008181526020869052604090205473ffffffffffffffffffffffffffffffffffffffff81166116e4576040517fdd56047500000000000000000000000000000000000000000000000000000000815260048101839052602401610d97565b73ffffffffffffffffffffffffffffffffffffffff84168173ffffffffffffffffffffffffffffffffffffffff1614611768576040517f14dbb53600000000000000000000000000000000000000000000000000000000815273ffffffffffffffffffffffffffffffffffffffff8516600482015260248101839052604401610d97565b611773868587612d36565b6118225774010000000000000000000000000000000000000000811615806117c45750600082815260028701602052604090205473ffffffffffffffffffffffffffffffffffffffff868116911614155b15611822576040517fa4a3018b00000000000000000000000000000000000000000000000000000000815273ffffffffffffffffffffffffffffffffffffffff80871660048301528516602482015260448101839052606401610d97565b600082815260208790526040902073ffffffffffffffffffffffffffffffffffffffff808516918290558516146118b35773ffffffffffffffffffffffffffffffffffffffff80851660009081526001808901602052604080832080547fffffffffffffffffffffffffffffffffffffffffffffffffffffffffffffffff0190559286168252919020805490910190555b818373ffffffffffffffffffffffffffffffffffffffff168573ffffffffffffffffffffffffffffffffffffffff167fddf252ad1be2c89b69c2b068fc378daa952ba7f163c4a11628f55a4df523b3ef60405160405180910390a4505050505050565b6000806105f360017f2c0cf10337caabbd02dcf226f05f5fd19a0919a41a8df8958c39b80007826858613582565b825473ffffffffffffffffffffffffffffffffffffffff8116906000907401000000000000000000000000000000000000000090046bffffffffffffffffffffffff16831580611992575080155b156119a057600091506119e5565b620186a08410156119ca57620186a06119b98286613595565b6119c391906135ac565b91506119e5565b806119d8620186a0866135ac565b6119e29190613595565b91505b50935093915050565b6000806105f360017fc8827d3282af6f37b64c3e9e6f3ac9df286ab0bb0fccd6f8661bf19adb368b23613582565b60008381526020858152604080832073ffffffffffffffffffffffffffffffffffffffff8616845290915290205460ff1661070e5760008381526020858152604080832073ffffffffffffffffffffffffffffffffffffffff8681168086529184529382902080547fffffffffffffffffffffffffffffffffffffffffffffffffffffffffffffff00166001179055815187815292830152918316918101919091527f2f8788117e7eff1d82e926ec794901d17c78024a50270940304540a733656f0d906060015b60405180910390a150505050565b60008281526020848152604080832073ffffffffffffffffffffffffffffffffffffffff8516845290915290205460ff16610765576040517f7aa728820000000000000000000000000000000000000000000000000000000081526004810183905273ffffffffffffffffffffffffffffffffffffffff82166024820152604401610d97565b73ffffffffffffffffffffffffffffffffffffffff8216611bc5576040517f7851b9cd00000000000000000000000000000000000000000000000000000000815260040160405180910390fd5b60008181526020849052604090205473ffffffffffffffffffffffffffffffffffffffff1615611c24576040517f753eceac00000000000000000000000000000000000000000000000000000000815260048101829052602401610d97565b60008181526020848152604080832073ffffffffffffffffffffffffffffffffffffffff86169081905580845260018088019093528184208054909301909255518392907fddf252ad1be2c89b69c2b068fc378daa952ba7f163c4a11628f55a4df523b3ef908290a4505050565b611c9f8585858585611638565b73ffffffffffffffffffffffffffffffffffffffff82163b15610fa957610fa98484848460405180602001604052806000815250612dab565b73ffffffffffffffffffffffffffffffffffffffff8216611d25576040517f7851b9cd00000000000000000000000000000000000000000000000000000000815260040160405180910390fd5b805160005b81811015611e1b576000838281518110611d4657611d46613507565b60200260200101519050611d848660000160008381526020019081526020016000205473ffffffffffffffffffffffffffffffffffffffff16151590565b15611dbe576040517f753eceac00000000000000000000000000000000000000000000000000000000815260048101829052602401610d97565b60008181526020879052604080822073ffffffffffffffffffffffffffffffffffffffff88169081905590518392907fddf252ad1be2c89b69c2b068fc378daa952ba7f163c4a11628f55a4df523b3ef908290a450600101611d2a565b5073ffffffffffffffffffffffffffffffffffffffff9092166000908152600190930160205250604090912080549091019055565b620186a0811115611e90576040517fac04040800000000000000000000000000000000000000000000000000000000815260048101829052602401610d97565b81546bffffffffffffffffffffffff909116740100000000000000000000000000000000000000000273ffffffffffffffffffffffffffffffffffffffff909116179055565b60008181526020839052604081205473ffffffffffffffffffffffffffffffffffffffff8116611f35576040517fdd56047500000000000000000000000000000000000000000000000000000000815260048101849052602401610d97565b805b949350505050565b600073ffffffffffffffffffffffffffffffffffffffff8216611f8e576040517faefbce4e00000000000000000000000000000000000000000000000000000000815260040160405180910390fd5b5073ffffffffffffffffffffffffffffffffffffffff166000908152600191909101602052604090205490565b6040805173ffffffffffffffffffffffffffffffffffffffff8416602482015260448082018490528251808303909101815260649091019091526020810180517bffffffffffffffffffffffffffffffffffffffffffffffffffffffff167fa9059cbb00000000000000000000000000000000000000000000000000000000179052610765908490612ec0565b612053858484611b78565b73ffffffffffffffffffffffffffffffffffffffff83163b15610fa957610fa9846000858585612dab565b612089838284611af2565b60008181526020848152604080832073ffffffffffffffffffffffffffffffffffffffff86168085529083529281902080547fffffffffffffffffffffffffffffffffffffffffffffffffffffffffffffff0016905580518481529182018390528101919091527ff6391f5c32d9c69d2a47ea670b442974b53935d1edc7fd64eb21e047a839171b9060600160405180910390a1505050565b73ffffffffffffffffffffffffffffffffffffffff81166115b9576040517f16de0c8000000000000000000000000000000000000000000000000000000000815260040160405180910390fd5b606061060361217c612217565b612f64565b8151815181146121bd576040517f6582533600000000000000000000000000000000000000000000000000000000815260040160405180910390fd5b60005b81811015610fa95761220f8482815181106121dd576121dd613507565b60200260200101518483815181106121f7576121f7613507565b602002602001015187611b789092919063ffffffff16565b6001016121c0565b6000806105f360017f7ea68fd2dcf1c056b94db6a0a537aa80d26fa9ab1eacd85da1ba0b61b7e7a8a5613582565b8273ffffffffffffffffffffffffffffffffffffffff168273ffffffffffffffffffffffffffffffffffffffff16036122c2576040517fe4215c6a00000000000000000000000000000000000000000000000000000000815273ffffffffffffffffffffffffffffffffffffffff84166004820152602401610d97565b73ffffffffffffffffffffffffffffffffffffffff838116600081815260038701602090815260408083209487168084529482529182902080547fffffffffffffffffffffffffffffffffffffffffffffffffffffffffffffff001686151590811790915591519182527f17307eab39ab6107e8899845ad3d59bd9653f200f220920489ca2b5937696c31910160405180910390a350505050565b61236a8787878787611638565b73ffffffffffffffffffffffffffffffffffffffff84163b156123ca576123ca8686868686868080601f016020809104026020016040519081016040528093929190818152602001838380828437600092019190915250612dab92505050565b50505050505050565b60028301546040517ff724dad700000000000000000000000000000000000000000000000000000000815273ffffffffffffffffffffffffffffffffffffffff848116600483015260248201849052606092169063f724dad790604401600060405180830381865afa15801561244d573d6000803e3d6000fd5b505050506040513d6000823e601f3d9081017fffffffffffffffffffffffffffffffffffffffffffffffffffffffffffffffe0168201604052611f379190810190613616565b60008381526020858152604080832073ffffffffffffffffffffffffffffffffffffffff8616845290915290205460ff161561070e5760008381526020858152604080832073ffffffffffffffffffffffffffffffffffffffff8681168086529184529382902080547fffffffffffffffffffffffffffffffffffffffffffffffffffffffffffffff00169055815187815292830152918316918101919091527ff6391f5c32d9c69d2a47ea670b442974b53935d1edc7fd64eb21e047a839171b90606001611ae4565b825473ffffffffffffffffffffffffffffffffffffffff90811690831681146125ca576040517f2ef4875e00000000000000000000000000000000000000000000000000000000815273ffffffffffffffffffffffffffffffffffffffff84166004820152602401610d97565b8173ffffffffffffffffffffffffffffffffffffffff168173ffffffffffffffffffffffffffffffffffffffff161461070e5783547fffffffffffffffffffffffff00000000000000000000000000000000000000001673ffffffffffffffffffffffffffffffffffffffff8381169182178655604051908316907f8be0079c531659141344cd1fd0a4f28419497f9722a3daafe3b4186f6b6457e090600090a350505050565b73ffffffffffffffffffffffffffffffffffffffff83166126be576040517f86c8706700000000000000000000000000000000000000000000000000000000815260040160405180910390fd5b60006126cb878688612d36565b90508160005b818110156128ef5760008585838181106126ed576126ed613507565b602090810292909201356000818152928d90526040909220549192505073ffffffffffffffffffffffffffffffffffffffff811661275a576040517fdd56047500000000000000000000000000000000000000000000000000000000815260048101839052602401610d97565b73ffffffffffffffffffffffffffffffffffffffff89168173ffffffffffffffffffffffffffffffffffffffff16146127de576040517f14dbb53600000000000000000000000000000000000000000000000000000000815273ffffffffffffffffffffffffffffffffffffffff8a16600482015260248101839052604401610d97565b8461288e5774010000000000000000000000000000000000000000811615806128305750600082815260028c01602052604090205473ffffffffffffffffffffffffffffffffffffffff8b8116911614155b1561288e576040517fa4a3018b00000000000000000000000000000000000000000000000000000000815273ffffffffffffffffffffffffffffffffffffffff808c1660048301528a16602482015260448101839052606401610d97565b600082815260208c9052604080822073ffffffffffffffffffffffffffffffffffffffff808c16918290559151859391928d16917fddf252ad1be2c89b69c2b068fc378daa952ba7f163c4a11628f55a4df523b3ef91a450506001016126d1565b508473ffffffffffffffffffffffffffffffffffffffff168673ffffffffffffffffffffffffffffffffffffffff161415801561292b57508015155b1561098f5773ffffffffffffffffffffffffffffffffffffffff808716600090815260018a016020526040808220805485900390559187168152208054820190555050505050505050565b804710156129b9576040517fcf47918100000000000000000000000000000000000000000000000000000000815247600482015260248101829052604401610d97565b6000808373ffffffffffffffffffffffffffffffffffffffff168360405160006040518083038185875af1925050503d8060008114612a14576040519150601f19603f3d011682016040523d82523d6000602084013e612a19565b606091505b50915091508161070e5761070e81612f75565b6060816000018054612a3d90613708565b80601f0160208091040260200160405190810160405280929190818152602001828054612a6990613708565b8015612ab65780601f10612a8b57610100808354040283529160200191612ab6565b820191906000526020600020905b815481529060010190602001808311612a9957829003601f168201915b50505050509050919050565b815473ffffffffffffffffffffffffffffffffffffffff168015801590612b00575060008173ffffffffffffffffffffffffffffffffffffffff163b115b15610765576040517fc617113400000000000000000000000000000000000000000000000000000000815230600482015273ffffffffffffffffffffffffffffffffffffffff838116602483015282169063c617113490604401602060405180830381865afa158015612b77573d6000803e3d6000fd5b505050506040513d601f19601f82011682018060405250810190612b9b9190613536565b610765576040517fede71dcc00000000000000000000000000000000000000000000000000000000815273ffffffffffffffffffffffffffffffffffffffff83166004820152602401610d97565b600033321480612bf95750601836105b15612c0357503390565b7fffffffffffffffffffffffffffffffffffffffffffffffffffffffffffffffec36013560601c7f000000000000000000000000000000000000000000000000000000000000000073ffffffffffffffffffffffffffffffffffffffff16331480612d2557506040517f019a202800000000000000000000000000000000000000000000000000000000815273ffffffffffffffffffffffffffffffffffffffff82811660048301523360248301523060448301527f0000000000000000000000000000000000000000000000000000000000000000169063019a202890606401602060405180830381865afa158015612d01573d6000803e3d6000fd5b505050506040513d601f19601f82011682018060405250810190612d259190613536565b15612d2f57919050565b3391505090565b60008173ffffffffffffffffffffffffffffffffffffffff168373ffffffffffffffffffffffffffffffffffffffff161480611f3757505073ffffffffffffffffffffffffffffffffffffffff9182166000908152600393909301602090815260408085209290931684525290205460ff1690565b6040517f150b7a02000000000000000000000000000000000000000000000000000000008082529073ffffffffffffffffffffffffffffffffffffffff85169063150b7a0290612e0590899089908890889060040161375b565b6020604051808303816000875af1158015612e24573d6000803e3d6000fd5b505050506040513d601f19601f82011682018060405250810190612e4891906137b6565b7fffffffff000000000000000000000000000000000000000000000000000000001614610fa9576040517fc215a7a100000000000000000000000000000000000000000000000000000000815273ffffffffffffffffffffffffffffffffffffffff8416600482015260248101839052604401610d97565b600080602060008451602086016000885af180612ee3576040513d6000823e3d81fd5b50506000513d91508115612efb578060011415612f15565b73ffffffffffffffffffffffffffffffffffffffff84163b155b1561070e576040517f5274afe700000000000000000000000000000000000000000000000000000000815273ffffffffffffffffffffffffffffffffffffffff85166004820152602401610d97565b6060816001018054612a3d90613708565b805115612f855780518082602001fd5b6040517fd6bda27500000000000000000000000000000000000000000000000000000000815260040160405180910390fd5b7fffffffff00000000000000000000000000000000000000000000000000000000811681146106d357600080fd5b600060208284031215612ff757600080fd5b8135610abe81612fb7565b60005b8381101561301d578181015183820152602001613005565b50506000910152565b6000815180845261303e816020860160208601613002565b601f017fffffffffffffffffffffffffffffffffffffffffffffffffffffffffffffffe0169290920160200192915050565b602081526000610abe6020830184613026565b60006020828403121561309557600080fd5b5035919050565b73ffffffffffffffffffffffffffffffffffffffff811681146106d357600080fd5b600080604083850312156130d157600080fd5b82356130dc8161309c565b946020939093013593505050565b6000602082840312156130fc57600080fd5b8135610abe8161309c565b60008060006060848603121561311c57600080fd5b83356131278161309c565b925060208401356131378161309c565b929592945050506040919091013590565b6000806040838503121561315b57600080fd5b50508035926020909101359150565b6000806040838503121561317d57600080fd5b82359150602083013561318f8161309c565b809150509250929050565b60008083601f8401126131ac57600080fd5b50813567ffffffffffffffff8111156131c457600080fd5b6020830191508360208260051b850101111561073057600080fd5b6000806000604084860312156131f457600080fd5b83356131ff8161309c565b9250602084013567ffffffffffffffff81111561321b57600080fd5b6132278682870161319a565b9497909650939450505050565b6000806000806000806060878903121561324d57600080fd5b863567ffffffffffffffff81111561326457600080fd5b61327089828a0161319a565b909750955050602087013567ffffffffffffffff81111561329057600080fd5b61329c89828a0161319a565b909550935050604087013567ffffffffffffffff8111156132bc57600080fd5b6132c889828a0161319a565b979a9699509497509295939492505050565b60008083601f8401126132ec57600080fd5b50813567ffffffffffffffff81111561330457600080fd5b60208301915083602082850101111561073057600080fd5b6000806000806060858703121561333257600080fd5b843561333d8161309c565b935060208501359250604085013567ffffffffffffffff81111561336057600080fd5b61336c878288016132da565b95989497509550505050565b6000806000806040858703121561338e57600080fd5b843567ffffffffffffffff8111156133a557600080fd5b6133b18782880161319a565b909550935050602085013567ffffffffffffffff8111156133d157600080fd5b61336c8782880161319a565b80151581146106d357600080fd5b600080604083850312156133fe57600080fd5b82356134098161309c565b9150602083013561318f816133dd565b60008060008060006080868803121561343157600080fd5b853561343c8161309c565b9450602086013561344c8161309c565b935060408601359250606086013567ffffffffffffffff81111561346f57600080fd5b61347b888289016132da565b969995985093965092949392505050565b6000806040838503121561349f57600080fd5b82356134aa8161309c565b9150602083013561318f8161309c565b600080600080606085870312156134d057600080fd5b84356134db8161309c565b935060208501356134eb8161309c565b9250604085013567ffffffffffffffff8111156133d157600080fd5b7f4e487b7100000000000000000000000000000000000000000000000000000000600052603260045260246000fd5b60006020828403121561354857600080fd5b8151610abe816133dd565b7f4e487b7100000000000000000000000000000000000000000000000000000000600052601160045260246000fd5b818103818111156105f3576105f3613553565b80820281158282048414176105f3576105f3613553565b6000826135e2577f4e487b7100000000000000000000000000000000000000000000000000000000600052601260045260246000fd5b500490565b7f4e487b7100000000000000000000000000000000000000000000000000000000600052604160045260246000fd5b60006020828403121561362857600080fd5b815167ffffffffffffffff81111561363f57600080fd5b8201601f8101841361365057600080fd5b805167ffffffffffffffff81111561366a5761366a6135e7565b6040517fffffffffffffffffffffffffffffffffffffffffffffffffffffffffffffffe0603f7fffffffffffffffffffffffffffffffffffffffffffffffffffffffffffffffe0601f8501160116810181811067ffffffffffffffff821117156136d6576136d66135e7565b6040528181528282016020018610156136ee57600080fd5b6136ff826020830160208601613002565b95945050505050565b600181811c9082168061371c57607f821691505b602082108103613755577f4e487b7100000000000000000000000000000000000000000000000000000000600052602260045260246000fd5b50919050565b73ffffffffffffffffffffffffffffffffffffffff8516815273ffffffffffffffffffffffffffffffffffffffff841660208201528260408201526080606082015260006137ac6080830184613026565b9695505050505050565b6000602082840312156137c857600080fd5b8151610abe81612fb756fea2646970667358221220845743ddca8e5a45482cdfa07b428c1501f1686d5481796b7865d594a43d75cc64736f6c634300081c0033",
  "linkReferences": {},
  "deployedLinkReferences": {}
}