{
  "_format": "hh-sol-artifact-1",
  "contractName": "ERC1155MintableFacet",
  "sourceName": "contracts/token/ERC1155/facets/ERC1155MintableFacet.sol",
  "abi": [
    {
      "inputs": [
        {
          "internalType": "contract IForwarderRegistry",
          "name": "forwarderRegistry",
          "type": "address"
        }
      ],
      "stateMutability": "nonpayable",
      "type": "constructor"
    },
    {
      "inputs": [],
      "name": "MINTER_ROLE",
      "outputs": [
        {
          "internalType": "bytes32",
          "name": "",
          "type": "bytes32"
        }
      ],
      "stateMutability": "view",
      "type": "function"
    },
    {
      "inputs": [],
      "name": "initERC1155MintableStorage",
      "outputs": [],
      "stateMutability": "nonpayable",
      "type": "function"
    },
    {
      "inputs": [
        {
          "internalType": "address",
          "name": "to",
          "type": "address"
        },
        {
          "internalType": "uint256[]",
          "name": "ids",
          "type": "uint256[]"
        },
        {
          "internalType": "uint256[]",
          "name": "values",
          "type": "uint256[]"
        },
        {
          "internalType": "bytes",
          "name": "data",
          "type": "bytes"
        }
      ],
      "name": "safeBatchMint",
      "outputs": [],
      "stateMutability": "nonpayable",
      "type": "function"
    },
    {
      "inputs": [
        {
          "internalType": "address",
          "name": "to",
          "type": "address"
        },
        {
          "internalType": "uint256",
          "name": "id",
          "type": "uint256"
        },
        {
          "internalType": "uint256",
          "name": "value",
          "type": "uint256"
        },
        {
          "internalType": "bytes",
          "name": "data",
          "type": "bytes"
        }
      ],
      "name": "safeMint",
      "outputs": [],
      "stateMutability": "nonpayable",
      "type": "function"
    }
  ],
  "bytecode": "0x60a060405234801561001057600080fd5b506040516113a23803806113a283398101604081905261002f91610040565b6001600160a01b0316608052610070565b60006020828403121561005257600080fd5b81516001600160a01b038116811461006957600080fd5b9392505050565b608051611310610092600039600081816107ae015261084e01526113106000f3fe608060405234801561001057600080fd5b506004361061004c5760003560e01c80630d6a5bbb146100515780635cfa92971461006657806389511ecd14610079578063d539139314610081575b600080fd5b61006461005f366004610ea7565b6100ba565b005b610064610074366004610f52565b6101b5565b610064610247565b6100a87f6d696e746572000000000000000000000000000000000000000000000000000081565b60405190815260200160405180910390f35b60006100c461026a565b90506100fa7f6d696e7465720000000000000000000000000000000000000000000000000000826100f3610279565b91906102ad565b6101ab818989898080602002602001604051908101604052809392919081815260200183836020028082843760009201919091525050604080516020808d0282810182019093528c82529093508c92508b91829185019084908082843760009201919091525050604080516020601f8c018190048102820181019092528a815292508a91508990819084018382808284376000920191909152506101a19250610367915050565b9493929190610395565b5050505050505050565b60006101bf61026a565b90506101ee7f6d696e7465720000000000000000000000000000000000000000000000000000826100f3610279565b61023f8187878787878080601f0160208091040260200160405190810160405280939291908181526020018383808284376000920191909152506102359250610367915050565b949392919061057a565b505050505050565b61026061025261026a565b61025a610688565b906106b6565b61026861073d565b565b6000610274610772565b905090565b6000806102a760017fc8827d3282af6f37b64c3e9e6f3ac9df286ab0bb0fccd6f8661bf19adb368b23610fba565b92915050565b60008281526020848152604080832073ffffffffffffffffffffffffffffffffffffffff8516845290915290205460ff16610362576102eb826108ca565b6040516020016102fb9190611024565b604080517fffffffffffffffffffffffffffffffffffffffffffffffffffffffffffffffe0818403018152908290527f08c379a0000000000000000000000000000000000000000000000000000000008252610359916004016110da565b60405180910390fd5b505050565b6000806102a760017f5ccf5846fa27a68fafc8e588671a68f5e67c2f9b56af4263806a4d71735e8613610fba565b73ffffffffffffffffffffffffffffffffffffffff8416610412576040517f08c379a000000000000000000000000000000000000000000000000000000000815260206004820152601b60248201527f455243313135353a206d696e7420746f206164647265737328302900000000006044820152606401610359565b815183511461047d576040517f08c379a000000000000000000000000000000000000000000000000000000000815260206004820152601c60248201527f455243313135353a20696e636f6e73697374656e7420617272617973000000006044820152606401610359565b60005b835181146104ce576104c6878686848151811061049f5761049f6110f4565b60200260200101518685815181106104b9576104b96110f4565b6020026020010151610a5c565b600101610480565b508373ffffffffffffffffffffffffffffffffffffffff16600073ffffffffffffffffffffffffffffffffffffffff168673ffffffffffffffffffffffffffffffffffffffff167f4a39dc06d4c0dbc64b70af90fd698a233a518aa5d07e595d983b8c0526c8f7fb868660405161054692919061115e565b60405180910390a473ffffffffffffffffffffffffffffffffffffffff84163b1561023f5761023f85600086868686610b32565b73ffffffffffffffffffffffffffffffffffffffff84166105f7576040517f08c379a000000000000000000000000000000000000000000000000000000000815260206004820152601b60248201527f455243313135353a206d696e7420746f206164647265737328302900000000006044820152606401610359565b61060386858585610a5c565b604080518481526020810184905273ffffffffffffffffffffffffffffffffffffffff80871692600092918916917fc3d58168c5ae7397731d063d5bbf3d657854427343f4c083240f7aacaa2d0f62910160405180910390a473ffffffffffffffffffffffffffffffffffffffff84163b1561023f5761023f85600086868686610c5a565b6000806102a760017fb53127684a568b3173ae13b9f8a6016e243e63b6e8ee1178d6a717850b5d6104610fba565b815473ffffffffffffffffffffffffffffffffffffffff828116911614610739576040517f08c379a000000000000000000000000000000000000000000000000000000000815260206004820152601960248201527f50726f787941646d696e3a206e6f74207468652061646d696e000000000000006044820152606401610359565b5050565b6102687f5190c92c00000000000000000000000000000000000000000000000000000000600161076b610cb6565b9190610ce4565b60003332810361078157919050565b6000367fffffffffffffffffffffffffffffffffffffffffffffffffffffffffffffffec013560601c90507f000000000000000000000000000000000000000000000000000000000000000073ffffffffffffffffffffffffffffffffffffffff168273ffffffffffffffffffffffffffffffffffffffff1614806108b957506040517fe60125d600000000000000000000000000000000000000000000000000000000815273ffffffffffffffffffffffffffffffffffffffff828116600483015283811660248301527f0000000000000000000000000000000000000000000000000000000000000000169063e60125d690604401602060405180830381865afa158015610895573d6000803e3d6000fd5b505050506040513d601f19601f820116820180604052508101906108b9919061118c565b156108c45792915050565b50919050565b606060008290036108e957505060408051602081019091526000815290565b6000826040516020016108fe91815260200190565b604080517fffffffffffffffffffffffffffffffffffffffffffffffffffffffffffffffe08184030181529190529050601f5b818181518110610943576109436110f4565b01602001517fff0000000000000000000000000000000000000000000000000000000000000016600003610998577fffffffffffffffffffffffffffffffffffffffffffffffffffffffffffffffff01610931565b60008160010167ffffffffffffffff8111156109b6576109b66111ae565b6040519080825280601f01601f1916602001820160405280156109e0576020820181803683370190505b50905060005b828111610a53578381815181106109ff576109ff6110f4565b602001015160f81c60f81b828281518110610a1c57610a1c6110f4565b60200101907effffffffffffffffffffffffffffffffffffffffffffffffffffffffffffff1916908160001a9053506001016109e6565b50949350505050565b8015610b2c5760008281526020858152604080832073ffffffffffffffffffffffffffffffffffffffff87168452909152902054818101818111610afc576040517f08c379a000000000000000000000000000000000000000000000000000000000815260206004820152601960248201527f455243313135353a2062616c616e6365206f766572666c6f77000000000000006044820152606401610359565b60008481526020878152604080832073ffffffffffffffffffffffffffffffffffffffff89168452909152902055505b50505050565b6040517fbc197c81000000000000000000000000000000000000000000000000000000008082529073ffffffffffffffffffffffffffffffffffffffff86169063bc197c8190610b8e908a908a908990899089906004016111dd565b6020604051808303816000875af1158015610bad573d6000803e3d6000fd5b505050506040513d601f19601f82011682018060405250810190610bd19190611248565b7fffffffff00000000000000000000000000000000000000000000000000000000161461023f576040517f08c379a000000000000000000000000000000000000000000000000000000000815260206004820152601a60248201527f455243313135353a207472616e736665722072656a65637465640000000000006044820152606401610359565b6040517ff23a6e61000000000000000000000000000000000000000000000000000000008082529073ffffffffffffffffffffffffffffffffffffffff86169063f23a6e6190610b8e908a908a9089908990899060040161128a565b6000806102a760017fca9d3e17f264b0f3984e2634e94adb37fa3e6a8103f06aeae6fa59e21c769f5e610fba565b7c01000000000000000000000000000000000000000000000000000000007fffffffff00000000000000000000000000000000000000000000000000000000831601610d8c576040517f08c379a000000000000000000000000000000000000000000000000000000000815260206004820152601f60248201527f496e74657266616365446574656374696f6e3a2077726f6e672076616c7565006044820152606401610359565b7fffffffff00000000000000000000000000000000000000000000000000000000919091166000908152602092909252604090912080547fffffffffffffffffffffffffffffffffffffffffffffffffffffffffffffff0016911515919091179055565b803573ffffffffffffffffffffffffffffffffffffffff81168114610e1457600080fd5b919050565b60008083601f840112610e2b57600080fd5b50813567ffffffffffffffff811115610e4357600080fd5b6020830191508360208260051b8501011115610e5e57600080fd5b9250929050565b60008083601f840112610e7757600080fd5b50813567ffffffffffffffff811115610e8f57600080fd5b602083019150836020828501011115610e5e57600080fd5b60008060008060008060006080888a031215610ec257600080fd5b610ecb88610df0565b9650602088013567ffffffffffffffff80821115610ee857600080fd5b610ef48b838c01610e19565b909850965060408a0135915080821115610f0d57600080fd5b610f198b838c01610e19565b909650945060608a0135915080821115610f3257600080fd5b50610f3f8a828b01610e65565b989b979a50959850939692959293505050565b600080600080600060808688031215610f6a57600080fd5b610f7386610df0565b94506020860135935060408601359250606086013567ffffffffffffffff811115610f9d57600080fd5b610fa988828901610e65565b969995985093965092949392505050565b600082821015610ff3577f4e487b7100000000000000000000000000000000000000000000000000000000600052601160045260246000fd5b500390565b60005b83811015611013578181015183820152602001610ffb565b83811115610b2c5750506000910152565b7f416363657373436f6e74726f6c3a206d697373696e672027000000000000000081526000825161105c816018850160208701610ff8565b7f2720726f6c6500000000000000000000000000000000000000000000000000006018939091019283015250601e01919050565b600081518084526110a8816020860160208601610ff8565b601f017fffffffffffffffffffffffffffffffffffffffffffffffffffffffffffffffe0169290920160200192915050565b6020815260006110ed6020830184611090565b9392505050565b7f4e487b7100000000000000000000000000000000000000000000000000000000600052603260045260246000fd5b600081518084526020808501945080840160005b8381101561115357815187529582019590820190600101611137565b509495945050505050565b6040815260006111716040830185611123565b82810360208401526111838185611123565b95945050505050565b60006020828403121561119e57600080fd5b815180151581146110ed57600080fd5b7f4e487b7100000000000000000000000000000000000000000000000000000000600052604160045260246000fd5b600073ffffffffffffffffffffffffffffffffffffffff808816835280871660208401525060a0604083015261121660a0830186611123565b82810360608401526112288186611123565b9050828103608084015261123c8185611090565b98975050505050505050565b60006020828403121561125a57600080fd5b81517fffffffff00000000000000000000000000000000000000000000000000000000811681146110ed57600080fd5b600073ffffffffffffffffffffffffffffffffffffffff808816835280871660208401525084604083015283606083015260a060808301526112cf60a0830184611090565b97965050505050505056fea26469706673582212200bcc42fb744e139eb1d9450cbb64ea980a9d30856509ae884f5ef248ac254a1e64736f6c634300080f0033",
  "linkReferences": {},
  "deployedLinkReferences": {}
}