{
  "_format": "hh-sol-artifact-1",
  "contractName": "ERC1155MintableFacet",
  "sourceName": "contracts/token/ERC1155/facets/ERC1155MintableFacet.sol",
  "abi": [
    {
      "inputs": [
        {
          "internalType": "contract IForwarderRegistry",
          "name": "forwarderRegistry",
          "type": "address"
        }
      ],
      "stateMutability": "nonpayable",
      "type": "constructor"
    },
    {
      "inputs": [
        {
          "internalType": "address",
          "name": "recipient",
          "type": "address"
        },
        {
          "internalType": "uint256",
          "name": "id",
          "type": "uint256"
        },
        {
          "internalType": "uint256",
          "name": "balance",
          "type": "uint256"
        },
        {
          "internalType": "uint256",
          "name": "value",
          "type": "uint256"
        }
      ],
      "name": "ERC1155BalanceOverflow",
      "type": "error"
    },
    {
      "inputs": [],
      "name": "ERC1155MintToAddressZero",
      "type": "error"
    },
    {
      "inputs": [
        {
          "internalType": "address",
          "name": "recipient",
          "type": "address"
        },
        {
          "internalType": "uint256[]",
          "name": "ids",
          "type": "uint256[]"
        },
        {
          "internalType": "uint256[]",
          "name": "values",
          "type": "uint256[]"
        }
      ],
      "name": "ERC1155SafeBatchTransferRejected",
      "type": "error"
    },
    {
      "inputs": [
        {
          "internalType": "address",
          "name": "recipient",
          "type": "address"
        },
        {
          "internalType": "uint256",
          "name": "id",
          "type": "uint256"
        },
        {
          "internalType": "uint256",
          "name": "value",
          "type": "uint256"
        }
      ],
      "name": "ERC1155SafeTransferRejected",
      "type": "error"
    },
    {
      "inputs": [],
      "name": "IllegalInterfaceId",
      "type": "error"
    },
    {
      "inputs": [],
      "name": "InconsistentArrayLengths",
      "type": "error"
    },
    {
      "inputs": [
        {
          "internalType": "address",
          "name": "account",
          "type": "address"
        }
      ],
      "name": "NotProxyAdmin",
      "type": "error"
    },
    {
      "inputs": [
        {
          "internalType": "bytes32",
          "name": "role",
          "type": "bytes32"
        },
        {
          "internalType": "address",
          "name": "account",
          "type": "address"
        }
      ],
      "name": "NotRoleHolder",
      "type": "error"
    },
    {
      "anonymous": false,
      "inputs": [
        {
          "indexed": true,
          "internalType": "address",
          "name": "owner",
          "type": "address"
        },
        {
          "indexed": true,
          "internalType": "address",
          "name": "operator",
          "type": "address"
        },
        {
          "indexed": false,
          "internalType": "bool",
          "name": "approved",
          "type": "bool"
        }
      ],
      "name": "ApprovalForAll",
      "type": "event"
    },
    {
      "anonymous": false,
      "inputs": [
        {
          "indexed": true,
          "internalType": "address",
          "name": "operator",
          "type": "address"
        },
        {
          "indexed": true,
          "internalType": "address",
          "name": "from",
          "type": "address"
        },
        {
          "indexed": true,
          "internalType": "address",
          "name": "to",
          "type": "address"
        },
        {
          "indexed": false,
          "internalType": "uint256[]",
          "name": "ids",
          "type": "uint256[]"
        },
        {
          "indexed": false,
          "internalType": "uint256[]",
          "name": "values",
          "type": "uint256[]"
        }
      ],
      "name": "TransferBatch",
      "type": "event"
    },
    {
      "anonymous": false,
      "inputs": [
        {
          "indexed": true,
          "internalType": "address",
          "name": "operator",
          "type": "address"
        },
        {
          "indexed": true,
          "internalType": "address",
          "name": "from",
          "type": "address"
        },
        {
          "indexed": true,
          "internalType": "address",
          "name": "to",
          "type": "address"
        },
        {
          "indexed": false,
          "internalType": "uint256",
          "name": "id",
          "type": "uint256"
        },
        {
          "indexed": false,
          "internalType": "uint256",
          "name": "value",
          "type": "uint256"
        }
      ],
      "name": "TransferSingle",
      "type": "event"
    },
    {
      "anonymous": false,
      "inputs": [
        {
          "indexed": false,
          "internalType": "string",
          "name": "value",
          "type": "string"
        },
        {
          "indexed": true,
          "internalType": "uint256",
          "name": "id",
          "type": "uint256"
        }
      ],
      "name": "URI",
      "type": "event"
    },
    {
      "inputs": [],
      "name": "MINTER_ROLE",
      "outputs": [
        {
          "internalType": "bytes32",
          "name": "",
          "type": "bytes32"
        }
      ],
      "stateMutability": "view",
      "type": "function"
    },
    {
      "inputs": [],
      "name": "initERC1155MintableStorage",
      "outputs": [],
      "stateMutability": "nonpayable",
      "type": "function"
    },
    {
      "inputs": [
        {
          "internalType": "address",
          "name": "to",
          "type": "address"
        },
        {
          "internalType": "uint256[]",
          "name": "ids",
          "type": "uint256[]"
        },
        {
          "internalType": "uint256[]",
          "name": "values",
          "type": "uint256[]"
        },
        {
          "internalType": "bytes",
          "name": "data",
          "type": "bytes"
        }
      ],
      "name": "safeBatchMint",
      "outputs": [],
      "stateMutability": "nonpayable",
      "type": "function"
    },
    {
      "inputs": [
        {
          "internalType": "address",
          "name": "to",
          "type": "address"
        },
        {
          "internalType": "uint256",
          "name": "id",
          "type": "uint256"
        },
        {
          "internalType": "uint256",
          "name": "value",
          "type": "uint256"
        },
        {
          "internalType": "bytes",
          "name": "data",
          "type": "bytes"
        }
      ],
      "name": "safeMint",
      "outputs": [],
      "stateMutability": "nonpayable",
      "type": "function"
    }
  ],
  "bytecode": "0x60a060405234801561001057600080fd5b5060405161112238038061112283398101604081905261002f91610040565b6001600160a01b0316608052610070565b60006020828403121561005257600080fd5b81516001600160a01b038116811461006957600080fd5b9392505050565b608051611090610092600039600081816106ec015261077401526110906000f3fe608060405234801561001057600080fd5b506004361061004c5760003560e01c80630d6a5bbb146100515780635cfa92971461006657806389511ecd14610079578063d539139314610081575b600080fd5b61006461005f366004610ca0565b6100ba565b005b610064610074366004610d4b565b6101b5565b610064610247565b6100a87f6d696e746572000000000000000000000000000000000000000000000000000081565b60405190815260200160405180910390f35b60006100c461026a565b90506100fa7f6d696e7465720000000000000000000000000000000000000000000000000000826100f3610279565b91906102ad565b6101ab818989898080602002602001604051908101604052809392919081815260200183836020028082843760009201919091525050604080516020808d0282810182019093528c82529093508c92508b91829185019084908082843760009201919091525050604080516020601f8c018190048102820181019092528a815292508a91508990819084018382808284376000920191909152506101a1925061033d915050565b949392919061036b565b5050505050505050565b60006101bf61026a565b90506101ee7f6d696e7465720000000000000000000000000000000000000000000000000000826100f3610279565b61023f8187878787878080601f016020809104026020016040519081016040528093929190818152602001838380828437600092019190915250610235925061033d915050565b94939291906104f9565b505050505050565b61026061025261026a565b61025a6105d7565b90610605565b610268610674565b565b60006102746106a9565b905090565b6000806102a760017fc8827d3282af6f37b64c3e9e6f3ac9df286ab0bb0fccd6f8661bf19adb368b23610db3565b92915050565b60008281526020848152604080832073ffffffffffffffffffffffffffffffffffffffff8516845290915290205460ff16610338576040517f7aa728820000000000000000000000000000000000000000000000000000000081526004810183905273ffffffffffffffffffffffffffffffffffffffff821660248201526044015b60405180910390fd5b505050565b6000806102a760017f5ccf5846fa27a68fafc8e588671a68f5e67c2f9b56af4263806a4d71735e8613610db3565b73ffffffffffffffffffffffffffffffffffffffff84166103b8576040517f021149bd00000000000000000000000000000000000000000000000000000000815260040160405180910390fd5b8251825181146103f4576040517f6582533600000000000000000000000000000000000000000000000000000000815260040160405180910390fd5b60005b8181146104445761043c888787848151811061041557610415610ded565b602002602001015187858151811061042f5761042f610ded565b60200260200101516107f0565b6001016103f7565b508473ffffffffffffffffffffffffffffffffffffffff16600073ffffffffffffffffffffffffffffffffffffffff168773ffffffffffffffffffffffffffffffffffffffff167f4a39dc06d4c0dbc64b70af90fd698a233a518aa5d07e595d983b8c0526c8f7fb87876040516104bc929190610e57565b60405180910390a473ffffffffffffffffffffffffffffffffffffffff85163b156104f0576104f0866000878787876108c3565b50505050505050565b73ffffffffffffffffffffffffffffffffffffffff8416610546576040517f021149bd00000000000000000000000000000000000000000000000000000000815260040160405180910390fd5b610552868585856107f0565b604080518481526020810184905273ffffffffffffffffffffffffffffffffffffffff80871692600092918916917fc3d58168c5ae7397731d063d5bbf3d657854427343f4c083240f7aacaa2d0f62910160405180910390a473ffffffffffffffffffffffffffffffffffffffff84163b1561023f5761023f856000868686866109c1565b6000806102a760017fb53127684a568b3173ae13b9f8a6016e243e63b6e8ee1178d6a717850b5d6104610db3565b815473ffffffffffffffffffffffffffffffffffffffff828116911614610670576040517f673a31a100000000000000000000000000000000000000000000000000000000815273ffffffffffffffffffffffffffffffffffffffff8216600482015260240161032f565b5050565b6102687f5190c92c0000000000000000000000000000000000000000000000000000000060016106a2610adf565b9190610b0d565b6000333214806106b95750601836105b156106c357503390565b7fffffffffffffffffffffffffffffffffffffffffffffffffffffffffffffffec36013560601c7f000000000000000000000000000000000000000000000000000000000000000073ffffffffffffffffffffffffffffffffffffffff163314806107df57506040517f8929a8ca00000000000000000000000000000000000000000000000000000000815273ffffffffffffffffffffffffffffffffffffffff82811660048301523360248301527f00000000000000000000000000000000000000000000000000000000000000001690638929a8ca90604401602060405180830381865afa1580156107bb573d6000803e3d6000fd5b505050506040513d601f19601f820116820180604052508101906107df9190610e85565b156107e957919050565b3391505090565b80156108bd5760008281526020858152604080832073ffffffffffffffffffffffffffffffffffffffff8716845290915290205481810181811161088d576040517f42fb00bc00000000000000000000000000000000000000000000000000000000815273ffffffffffffffffffffffffffffffffffffffff8616600482015260248101859052604481018390526064810184905260840161032f565b60008481526020878152604080832073ffffffffffffffffffffffffffffffffffffffff89168452909152902055505b50505050565b6040517fbc197c81000000000000000000000000000000000000000000000000000000008082529073ffffffffffffffffffffffffffffffffffffffff86169063bc197c819061091f908a908a90899089908990600401610f12565b6020604051808303816000875af115801561093e573d6000803e3d6000fd5b505050506040513d601f19601f820116820180604052508101906109629190610f7d565b7fffffffff00000000000000000000000000000000000000000000000000000000161461023f578383836040517fc287817e00000000000000000000000000000000000000000000000000000000815260040161032f93929190610fbf565b6040517ff23a6e61000000000000000000000000000000000000000000000000000000008082529073ffffffffffffffffffffffffffffffffffffffff86169063f23a6e6190610a1d908a908a9089908990899060040161100a565b6020604051808303816000875af1158015610a3c573d6000803e3d6000fd5b505050506040513d601f19601f82011682018060405250810190610a609190610f7d565b7fffffffff00000000000000000000000000000000000000000000000000000000161461023f576040517f40f39d3800000000000000000000000000000000000000000000000000000000815273ffffffffffffffffffffffffffffffffffffffff85166004820152602481018490526044810183905260640161032f565b6000806102a760017fca9d3e17f264b0f3984e2634e94adb37fa3e6a8103f06aeae6fa59e21c769f5e610db3565b7c01000000000000000000000000000000000000000000000000000000007fffffffff00000000000000000000000000000000000000000000000000000000831601610b85576040517f72c683bb00000000000000000000000000000000000000000000000000000000815260040160405180910390fd5b7fffffffff00000000000000000000000000000000000000000000000000000000919091166000908152602092909252604090912080547fffffffffffffffffffffffffffffffffffffffffffffffffffffffffffffff0016911515919091179055565b803573ffffffffffffffffffffffffffffffffffffffff81168114610c0d57600080fd5b919050565b60008083601f840112610c2457600080fd5b50813567ffffffffffffffff811115610c3c57600080fd5b6020830191508360208260051b8501011115610c5757600080fd5b9250929050565b60008083601f840112610c7057600080fd5b50813567ffffffffffffffff811115610c8857600080fd5b602083019150836020828501011115610c5757600080fd5b60008060008060008060006080888a031215610cbb57600080fd5b610cc488610be9565b9650602088013567ffffffffffffffff80821115610ce157600080fd5b610ced8b838c01610c12565b909850965060408a0135915080821115610d0657600080fd5b610d128b838c01610c12565b909650945060608a0135915080821115610d2b57600080fd5b50610d388a828b01610c5e565b989b979a50959850939692959293505050565b600080600080600060808688031215610d6357600080fd5b610d6c86610be9565b94506020860135935060408601359250606086013567ffffffffffffffff811115610d9657600080fd5b610da288828901610c5e565b969995985093965092949392505050565b818103818111156102a7577f4e487b7100000000000000000000000000000000000000000000000000000000600052601160045260246000fd5b7f4e487b7100000000000000000000000000000000000000000000000000000000600052603260045260246000fd5b600081518084526020808501945080840160005b83811015610e4c57815187529582019590820190600101610e30565b509495945050505050565b604081526000610e6a6040830185610e1c565b8281036020840152610e7c8185610e1c565b95945050505050565b600060208284031215610e9757600080fd5b81518015158114610ea757600080fd5b9392505050565b6000815180845260005b81811015610ed457602081850181015186830182015201610eb8565b5060006020828601015260207fffffffffffffffffffffffffffffffffffffffffffffffffffffffffffffffe0601f83011685010191505092915050565b600073ffffffffffffffffffffffffffffffffffffffff808816835280871660208401525060a06040830152610f4b60a0830186610e1c565b8281036060840152610f5d8186610e1c565b90508281036080840152610f718185610eae565b98975050505050505050565b600060208284031215610f8f57600080fd5b81517fffffffff0000000000000000000000000000000000000000000000000000000081168114610ea757600080fd5b73ffffffffffffffffffffffffffffffffffffffff84168152606060208201526000610fee6060830185610e1c565b82810360408401526110008185610e1c565b9695505050505050565b600073ffffffffffffffffffffffffffffffffffffffff808816835280871660208401525084604083015283606083015260a0608083015261104f60a0830184610eae565b97965050505050505056fea264697066735822122038e0caaf591c620cf7006ae82a6676769e15d3743a6deadc164801c4bc2e5b5964736f6c63430008150033",
  "linkReferences": {},
  "deployedLinkReferences": {}
}