{
  "_format": "hh-sol-artifact-1",
  "contractName": "ERC721BatchTransferFacet",
  "sourceName": "contracts/token/ERC721/facets/ERC721BatchTransferFacet.sol",
  "abi": [
    {
      "inputs": [
        {
          "internalType": "contract IForwarderRegistry",
          "name": "forwarderRegistry",
          "type": "address"
        }
      ],
      "stateMutability": "nonpayable",
      "type": "constructor"
    },
    {
      "anonymous": false,
      "inputs": [
        {
          "indexed": true,
          "internalType": "address",
          "name": "owner",
          "type": "address"
        },
        {
          "indexed": true,
          "internalType": "address",
          "name": "approved",
          "type": "address"
        },
        {
          "indexed": true,
          "internalType": "uint256",
          "name": "tokenId",
          "type": "uint256"
        }
      ],
      "name": "Approval",
      "type": "event"
    },
    {
      "anonymous": false,
      "inputs": [
        {
          "indexed": true,
          "internalType": "address",
          "name": "owner",
          "type": "address"
        },
        {
          "indexed": true,
          "internalType": "address",
          "name": "operator",
          "type": "address"
        },
        {
          "indexed": false,
          "internalType": "bool",
          "name": "approved",
          "type": "bool"
        }
      ],
      "name": "ApprovalForAll",
      "type": "event"
    },
    {
      "anonymous": false,
      "inputs": [
        {
          "indexed": true,
          "internalType": "address",
          "name": "from",
          "type": "address"
        },
        {
          "indexed": true,
          "internalType": "address",
          "name": "to",
          "type": "address"
        },
        {
          "indexed": true,
          "internalType": "uint256",
          "name": "tokenId",
          "type": "uint256"
        }
      ],
      "name": "Transfer",
      "type": "event"
    },
    {
      "inputs": [
        {
          "internalType": "address",
          "name": "from",
          "type": "address"
        },
        {
          "internalType": "address",
          "name": "to",
          "type": "address"
        },
        {
          "internalType": "uint256[]",
          "name": "tokenIds",
          "type": "uint256[]"
        }
      ],
      "name": "batchTransferFrom",
      "outputs": [],
      "stateMutability": "nonpayable",
      "type": "function"
    },
    {
      "inputs": [],
      "name": "initERC721BatchTransferStorage",
      "outputs": [],
      "stateMutability": "nonpayable",
      "type": "function"
    }
  ],
  "bytecode": "0x60a060405234801561000f575f80fd5b50604051610a33380380610a3383398101604081905261002e9161003f565b6001600160a01b031660805261006c565b5f6020828403121561004f575f80fd5b81516001600160a01b0381168114610065575f80fd5b9392505050565b6080516109a861008b5f395f8181610585015261060d01526109a85ff3fe608060405234801561000f575f80fd5b5060043610610034575f3560e01c8063684a78aa14610038578063f3993d1114610042575b5f80fd5b610040610055565b005b61004061005036600461085d565b610078565b61006e61006061009f565b6100686100ad565b906100e0565b61007661016c565b565b61009961008361009f565b8585858561008f6101a1565b94939291906101ce565b50505050565b5f6100a8610543565b905090565b5f806100da60017fb53127684a568b3173ae13b9f8a6016e243e63b6e8ee1178d6a717850b5d61046108e7565b92915050565b815473ffffffffffffffffffffffffffffffffffffffff828116911614610168576040517f08c379a000000000000000000000000000000000000000000000000000000000815260206004820152601960248201527f50726f787941646d696e3a206e6f74207468652061646d696e0000000000000060448201526064015b60405180910390fd5b5050565b6100767ff3993d1100000000000000000000000000000000000000000000000000000000600161019a610687565b91906106b4565b5f806100da60017fddf3ee18ae6d688373c219468f8be446e7ae82215f4779d821c7ea5e8c13c0c16108e7565b73ffffffffffffffffffffffffffffffffffffffff831661024b576040517f08c379a000000000000000000000000000000000000000000000000000000000815260206004820152601e60248201527f4552433732313a207472616e7366657220746f20616464726573732830290000604482015260640161015f565b5f6102578786886107bf565b9050815f5b8181146104bc575f8585838181106102765761027661091f565b602090810292909201355f818152928d90526040909220549192505073ffffffffffffffffffffffffffffffffffffffff811661030f576040517f08c379a000000000000000000000000000000000000000000000000000000000815260206004820152601a60248201527f4552433732313a206e6f6e2d6578697374696e6720746f6b656e000000000000604482015260640161015f565b73ffffffffffffffffffffffffffffffffffffffff89168173ffffffffffffffffffffffffffffffffffffffff16146103a4576040517f08c379a000000000000000000000000000000000000000000000000000000000815260206004820152601760248201527f4552433732313a206e6f6e2d6f776e656420746f6b656e000000000000000000604482015260640161015f565b8461045c57740100000000000000000000000000000000000000008116151580156103f657505f82815260028c01602052604090205473ffffffffffffffffffffffffffffffffffffffff8b81169116145b61045c576040517f08c379a000000000000000000000000000000000000000000000000000000000815260206004820152601b60248201527f4552433732313a206e6f6e2d617070726f7665642073656e6465720000000000604482015260640161015f565b5f82815260208c9052604080822073ffffffffffffffffffffffffffffffffffffffff808c16918290559151859391928d16917fddf252ad1be2c89b69c2b068fc378daa952ba7f163c4a11628f55a4df523b3ef91a4505060010161025c565b508473ffffffffffffffffffffffffffffffffffffffff168673ffffffffffffffffffffffffffffffffffffffff16141580156104f857508015155b156105395773ffffffffffffffffffffffffffffffffffffffff8087165f90815260018a016020526040808220805485900390559187168152208054820190555b5050505050505050565b5f333214806105525750601836105b1561055c57503390565b7fffffffffffffffffffffffffffffffffffffffffffffffffffffffffffffffec36013560601c7f000000000000000000000000000000000000000000000000000000000000000073ffffffffffffffffffffffffffffffffffffffff1633148061067657506040517f8929a8ca00000000000000000000000000000000000000000000000000000000815273ffffffffffffffffffffffffffffffffffffffff82811660048301523360248301527f00000000000000000000000000000000000000000000000000000000000000001690638929a8ca90604401602060405180830381865afa158015610652573d5f803e3d5ffd5b505050506040513d601f19601f82011682018060405250810190610676919061094c565b1561068057919050565b3391505090565b5f806100da60017fca9d3e17f264b0f3984e2634e94adb37fa3e6a8103f06aeae6fa59e21c769f5e6108e7565b7c01000000000000000000000000000000000000000000000000000000007fffffffff0000000000000000000000000000000000000000000000000000000083160161075c576040517f08c379a000000000000000000000000000000000000000000000000000000000815260206004820152601f60248201527f496e74657266616365446574656374696f6e3a2077726f6e672076616c756500604482015260640161015f565b7fffffffff00000000000000000000000000000000000000000000000000000000919091165f908152602092909252604090912080547fffffffffffffffffffffffffffffffffffffffffffffffffffffffffffffff0016911515919091179055565b5f8173ffffffffffffffffffffffffffffffffffffffff168373ffffffffffffffffffffffffffffffffffffffff16148061082d575073ffffffffffffffffffffffffffffffffffffffff8084165f90815260038601602090815260408083209386168352929052205460ff165b949350505050565b803573ffffffffffffffffffffffffffffffffffffffff81168114610858575f80fd5b919050565b5f805f8060608587031215610870575f80fd5b61087985610835565b935061088760208601610835565b9250604085013567ffffffffffffffff808211156108a3575f80fd5b818701915087601f8301126108b6575f80fd5b8135818111156108c4575f80fd5b8860208260051b85010111156108d8575f80fd5b95989497505060200194505050565b818103818111156100da577f4e487b71000000000000000000000000000000000000000000000000000000005f52601160045260245ffd5b7f4e487b71000000000000000000000000000000000000000000000000000000005f52603260045260245ffd5b5f6020828403121561095c575f80fd5b8151801515811461096b575f80fd5b939250505056fea2646970667358221220d38df48968a326cbc40a4dc1a31441f6f6c5785d865036674e95c9c5d93cf9f564736f6c63430008150033",
  "linkReferences": {},
  "deployedLinkReferences": {}
}