{
  "_format": "hh-sol-artifact-1",
  "contractName": "ERC721BatchTransferFacet",
  "sourceName": "contracts/token/ERC721/facets/ERC721BatchTransferFacet.sol",
  "abi": [
    {
      "inputs": [
        {
          "internalType": "contract IForwarderRegistry",
          "name": "forwarderRegistry",
          "type": "address"
        }
      ],
      "stateMutability": "nonpayable",
      "type": "constructor"
    },
    {
      "inputs": [
        {
          "internalType": "address",
          "name": "sender",
          "type": "address"
        },
        {
          "internalType": "address",
          "name": "owner",
          "type": "address"
        },
        {
          "internalType": "uint256",
          "name": "tokenId",
          "type": "uint256"
        }
      ],
      "name": "ERC721NonApprovedForTransfer",
      "type": "error"
    },
    {
      "inputs": [
        {
          "internalType": "uint256",
          "name": "tokenId",
          "type": "uint256"
        }
      ],
      "name": "ERC721NonExistingToken",
      "type": "error"
    },
    {
      "inputs": [
        {
          "internalType": "address",
          "name": "account",
          "type": "address"
        },
        {
          "internalType": "uint256",
          "name": "tokenId",
          "type": "uint256"
        }
      ],
      "name": "ERC721NonOwnedToken",
      "type": "error"
    },
    {
      "inputs": [],
      "name": "ERC721TransferToAddressZero",
      "type": "error"
    },
    {
      "inputs": [],
      "name": "IllegalInterfaceId",
      "type": "error"
    },
    {
      "inputs": [
        {
          "internalType": "address",
          "name": "account",
          "type": "address"
        }
      ],
      "name": "NotProxyAdmin",
      "type": "error"
    },
    {
      "anonymous": false,
      "inputs": [
        {
          "indexed": true,
          "internalType": "address",
          "name": "from",
          "type": "address"
        },
        {
          "indexed": true,
          "internalType": "address",
          "name": "to",
          "type": "address"
        },
        {
          "indexed": true,
          "internalType": "uint256",
          "name": "tokenId",
          "type": "uint256"
        }
      ],
      "name": "Transfer",
      "type": "event"
    },
    {
      "inputs": [
        {
          "internalType": "address",
          "name": "from",
          "type": "address"
        },
        {
          "internalType": "address",
          "name": "to",
          "type": "address"
        },
        {
          "internalType": "uint256[]",
          "name": "tokenIds",
          "type": "uint256[]"
        }
      ],
      "name": "batchTransferFrom",
      "outputs": [],
      "stateMutability": "nonpayable",
      "type": "function"
    },
    {
      "inputs": [],
      "name": "initERC721BatchTransferStorage",
      "outputs": [],
      "stateMutability": "nonpayable",
      "type": "function"
    }
  ],
  "bytecode": "0x60a060405234801561001057600080fd5b5060405161099f38038061099f83398101604081905261002f91610040565b6001600160a01b0316608052610070565b60006020828403121561005257600080fd5b81516001600160a01b038116811461006957600080fd5b9392505050565b60805161090d61009260003960008181610505015261058d015261090d6000f3fe608060405234801561001057600080fd5b50600436106100365760003560e01c8063684a78aa1461003b578063f3993d1114610045575b600080fd5b610043610058565b005b6100436100533660046107b4565b61007b565b6100716100636100a2565b61006b6100b1565b906100e5565b610079610159565b565b61009c6100866100a2565b8585858561009261018e565b94939291906101bc565b50505050565b60006100ac6104c2565b905090565b6000806100df60017fb53127684a568b3173ae13b9f8a6016e243e63b6e8ee1178d6a717850b5d6104610845565b92915050565b815473ffffffffffffffffffffffffffffffffffffffff828116911614610155576040517f673a31a100000000000000000000000000000000000000000000000000000000815273ffffffffffffffffffffffffffffffffffffffff821660048201526024015b60405180910390fd5b5050565b6100797ff3993d11000000000000000000000000000000000000000000000000000000006001610187610609565b9190610637565b6000806100df60017fddf3ee18ae6d688373c219468f8be446e7ae82215f4779d821c7ea5e8c13c0c1610845565b73ffffffffffffffffffffffffffffffffffffffff8316610209576040517f86c8706700000000000000000000000000000000000000000000000000000000815260040160405180910390fd5b6000610216878688610713565b90508160005b8181101561043a5760008585838181106102385761023861087f565b602090810292909201356000818152928d90526040909220549192505073ffffffffffffffffffffffffffffffffffffffff81166102a5576040517fdd5604750000000000000000000000000000000000000000000000000000000081526004810183905260240161014c565b73ffffffffffffffffffffffffffffffffffffffff89168173ffffffffffffffffffffffffffffffffffffffff1614610329576040517f14dbb53600000000000000000000000000000000000000000000000000000000815273ffffffffffffffffffffffffffffffffffffffff8a1660048201526024810183905260440161014c565b846103d957740100000000000000000000000000000000000000008116158061037b5750600082815260028c01602052604090205473ffffffffffffffffffffffffffffffffffffffff8b8116911614155b156103d9576040517fa4a3018b00000000000000000000000000000000000000000000000000000000815273ffffffffffffffffffffffffffffffffffffffff808c1660048301528a1660248201526044810183905260640161014c565b600082815260208c9052604080822073ffffffffffffffffffffffffffffffffffffffff808c16918290559151859391928d16917fddf252ad1be2c89b69c2b068fc378daa952ba7f163c4a11628f55a4df523b3ef91a4505060010161021c565b508473ffffffffffffffffffffffffffffffffffffffff168673ffffffffffffffffffffffffffffffffffffffff161415801561047657508015155b156104b85773ffffffffffffffffffffffffffffffffffffffff808716600090815260018a016020526040808220805485900390559187168152208054820190555b5050505050505050565b6000333214806104d25750601836105b156104dc57503390565b7fffffffffffffffffffffffffffffffffffffffffffffffffffffffffffffffec36013560601c7f000000000000000000000000000000000000000000000000000000000000000073ffffffffffffffffffffffffffffffffffffffff163314806105f857506040517f8929a8ca00000000000000000000000000000000000000000000000000000000815273ffffffffffffffffffffffffffffffffffffffff82811660048301523360248301527f00000000000000000000000000000000000000000000000000000000000000001690638929a8ca90604401602060405180830381865afa1580156105d4573d6000803e3d6000fd5b505050506040513d601f19601f820116820180604052508101906105f891906108ae565b1561060257919050565b3391505090565b6000806100df60017fca9d3e17f264b0f3984e2634e94adb37fa3e6a8103f06aeae6fa59e21c769f5e610845565b7c01000000000000000000000000000000000000000000000000000000007fffffffff000000000000000000000000000000000000000000000000000000008316016106af576040517f72c683bb00000000000000000000000000000000000000000000000000000000815260040160405180910390fd5b7fffffffff00000000000000000000000000000000000000000000000000000000919091166000908152602092909252604090912080547fffffffffffffffffffffffffffffffffffffffffffffffffffffffffffffff0016911515919091179055565b60008173ffffffffffffffffffffffffffffffffffffffff168373ffffffffffffffffffffffffffffffffffffffff161480610783575073ffffffffffffffffffffffffffffffffffffffff808416600090815260038601602090815260408083209386168352929052205460ff165b949350505050565b803573ffffffffffffffffffffffffffffffffffffffff811681146107af57600080fd5b919050565b600080600080606085870312156107ca57600080fd5b6107d38561078b565b93506107e16020860161078b565b9250604085013567ffffffffffffffff808211156107fe57600080fd5b818701915087601f83011261081257600080fd5b81358181111561082157600080fd5b8860208260051b850101111561083657600080fd5b95989497505060200194505050565b818103818111156100df577f4e487b7100000000000000000000000000000000000000000000000000000000600052601160045260246000fd5b7f4e487b7100000000000000000000000000000000000000000000000000000000600052603260045260246000fd5b6000602082840312156108c057600080fd5b815180151581146108d057600080fd5b939250505056fea2646970667358221220624b236c18f39e0ec05e4547e57ecf6783086fe1a9e8de498554d293111a75ca64736f6c63430008180033",
  "linkReferences": {},
  "deployedLinkReferences": {}
}