{
  "_format": "hh-sol-artifact-1",
  "contractName": "ContractOwnershipMock",
  "sourceName": "contracts/mocks/access/ContractOwnershipMock.sol",
  "abi": [
    {
      "inputs": [
        {
          "internalType": "address",
          "name": "initialOwner",
          "type": "address"
        },
        {
          "internalType": "contract IForwarderRegistry",
          "name": "forwarderRegistry",
          "type": "address"
        }
      ],
      "stateMutability": "nonpayable",
      "type": "constructor"
    },
    {
      "anonymous": false,
      "inputs": [
        {
          "indexed": true,
          "internalType": "address",
          "name": "previousOwner",
          "type": "address"
        },
        {
          "indexed": true,
          "internalType": "address",
          "name": "newOwner",
          "type": "address"
        }
      ],
      "name": "OwnershipTransferred",
      "type": "event"
    },
    {
      "inputs": [],
      "name": "__msgData",
      "outputs": [
        {
          "internalType": "bytes",
          "name": "",
          "type": "bytes"
        }
      ],
      "stateMutability": "view",
      "type": "function"
    },
    {
      "inputs": [
        {
          "internalType": "address",
          "name": "account",
          "type": "address"
        }
      ],
      "name": "enforceIsContractOwner",
      "outputs": [],
      "stateMutability": "view",
      "type": "function"
    },
    {
      "inputs": [],
      "name": "forwarderRegistry",
      "outputs": [
        {
          "internalType": "contract IForwarderRegistry",
          "name": "",
          "type": "address"
        }
      ],
      "stateMutability": "view",
      "type": "function"
    },
    {
      "inputs": [
        {
          "internalType": "address",
          "name": "forwarder",
          "type": "address"
        }
      ],
      "name": "isTrustedForwarder",
      "outputs": [
        {
          "internalType": "bool",
          "name": "",
          "type": "bool"
        }
      ],
      "stateMutability": "view",
      "type": "function"
    },
    {
      "inputs": [],
      "name": "owner",
      "outputs": [
        {
          "internalType": "address",
          "name": "",
          "type": "address"
        }
      ],
      "stateMutability": "view",
      "type": "function"
    },
    {
      "inputs": [
        {
          "internalType": "bytes4",
          "name": "interfaceId",
          "type": "bytes4"
        }
      ],
      "name": "supportsInterface",
      "outputs": [
        {
          "internalType": "bool",
          "name": "",
          "type": "bool"
        }
      ],
      "stateMutability": "view",
      "type": "function"
    },
    {
      "inputs": [
        {
          "internalType": "address",
          "name": "newOwner",
          "type": "address"
        }
      ],
      "name": "transferOwnership",
      "outputs": [],
      "stateMutability": "nonpayable",
      "type": "function"
    }
  ],
  "bytecode": "0x60a060405234801561000f575f80fd5b50604051610bb8380380610bb883398101604081905261002e916101d3565b8080836100438161003d610059565b9061008c565b506001600160a01b03166080525061022a915050565b5f8061008660017fc9ed16f33ab3a66c84bfd83099ccb2a8845871e2e1c1928f63797152f0fd54cd61020b565b92915050565b6001600160a01b038116156100e15781546001600160a01b0319166001600160a01b03821690811783556040515f907f8be0079c531659141344cd1fd0a4f28419497f9722a3daafe3b4186f6b6457e0908290a35b6100fd6307f5828d60e41b60016100f6610101565b919061012e565b5050565b5f8061008660017fca9d3e17f264b0f3984e2634e94adb37fa3e6a8103f06aeae6fa59e21c769f5e61020b565b600160e01b6001600160e01b031983160161018f5760405162461bcd60e51b815260206004820152601f60248201527f496e74657266616365446574656374696f6e3a2077726f6e672076616c756500604482015260640160405180910390fd5b6001600160e01b0319919091165f9081526020929092526040909120805460ff1916911515919091179055565b6001600160a01b03811681146101d0575f80fd5b50565b5f80604083850312156101e4575f80fd5b82516101ef816101bc565b6020840151909250610200816101bc565b809150509250929050565b8181038181111561008657634e487b7160e01b5f52601160045260245ffd5b6080516109546102645f395f818160a8015281816101130152818161053701528181610575015281816106a9015261073101526109545ff3fe608060405234801561000f575f80fd5b506004361061007a575f3560e01c8063572b6c0511610058578063572b6c05146101035780638da5cb5b1461015057806397883ae214610158578063f2fde38b1461016d575f80fd5b806301ffc9a71461007e5780632b4c9f16146100a657806331e66e1e146100ed575b5f80fd5b61009161008c3660046107db565b610180565b60405190151581526020015b60405180910390f35b7f00000000000000000000000000000000000000000000000000000000000000005b60405173ffffffffffffffffffffffffffffffffffffffff909116815260200161009d565b6100f5610199565b60405161009d929190610821565b61009161011136600461086d565b7f000000000000000000000000000000000000000000000000000000000000000073ffffffffffffffffffffffffffffffffffffffff90811691161490565b6100c86101ab565b61016b61016636600461086d565b6101d6565b005b61016b61017b36600461086d565b6101eb565b5f6101938261018d610206565b90610233565b92915050565b365f6101a361030a565b915091509091565b5f6101d16101b7610314565b5473ffffffffffffffffffffffffffffffffffffffff1690565b905090565b6101e8816101e2610314565b90610341565b50565b6101e86101f66103cd565b826101ff610314565b91906103d6565b5f8061019360017fca9d3e17f264b0f3984e2634e94adb37fa3e6a8103f06aeae6fa59e21c769f5e6108a0565b5f7c01000000000000000000000000000000000000000000000000000000007fffffffff0000000000000000000000000000000000000000000000000000000083160161028157505f610193565b7ffe003659000000000000000000000000000000000000000000000000000000007fffffffff000000000000000000000000000000000000000000000000000000008316016102d257506001610193565b507fffffffff00000000000000000000000000000000000000000000000000000000165f908152602091909152604090205460ff1690565b365f6101a3610502565b5f8061019360017fc9ed16f33ab3a66c84bfd83099ccb2a8845871e2e1c1928f63797152f0fd54cd6108a0565b815473ffffffffffffffffffffffffffffffffffffffff8281169116146103c9576040517f08c379a000000000000000000000000000000000000000000000000000000000815260206004820152601860248201527f4f776e6572736869703a206e6f7420746865206f776e6572000000000000000060448201526064015b60405180910390fd5b5050565b5f6101d1610667565b825473ffffffffffffffffffffffffffffffffffffffff908116908316811461045b576040517f08c379a000000000000000000000000000000000000000000000000000000000815260206004820152601860248201527f4f776e6572736869703a206e6f7420746865206f776e6572000000000000000060448201526064016103c0565b8173ffffffffffffffffffffffffffffffffffffffff168173ffffffffffffffffffffffffffffffffffffffff16146104fc5783547fffffffffffffffffffffffff00000000000000000000000000000000000000001673ffffffffffffffffffffffffffffffffffffffff8381169182178655604051908316907f8be0079c531659141344cd1fd0a4f28419497f9722a3daafe3b4186f6b6457e0905f90a35b50505050565b365f333214806105125750601836105b1561051f57505f91369150565b3373ffffffffffffffffffffffffffffffffffffffff7f0000000000000000000000000000000000000000000000000000000000000000161480610652575073ffffffffffffffffffffffffffffffffffffffff7f000000000000000000000000000000000000000000000000000000000000000016638929a8ca367fffffffffffffffffffffffffffffffffffffffffffffffffffffffffffffffec013560601c6040517fffffffff0000000000000000000000000000000000000000000000000000000060e084901b16815273ffffffffffffffffffffffffffffffffffffffff9091166004820152336024820152604401602060405180830381865afa15801561062e573d5f803e3d5ffd5b505050506040513d601f19601f8201168201806040525081019061065291906108d8565b1561065f576101a36107ab565b505f91369150565b5f333214806106765750601836105b1561068057503390565b7fffffffffffffffffffffffffffffffffffffffffffffffffffffffffffffffec36013560601c7f000000000000000000000000000000000000000000000000000000000000000073ffffffffffffffffffffffffffffffffffffffff1633148061079a57506040517f8929a8ca00000000000000000000000000000000000000000000000000000000815273ffffffffffffffffffffffffffffffffffffffff82811660048301523360248301527f00000000000000000000000000000000000000000000000000000000000000001690638929a8ca90604401602060405180830381865afa158015610776573d5f803e3d5ffd5b505050506040513d601f19601f8201168201806040525081019061079a91906108d8565b156107a457919050565b3391505090565b365f6101a37fffffffffffffffffffffffffffffffffffffffffffffffffffffffffffffffec83018284816108f7565b5f602082840312156107eb575f80fd5b81357fffffffff000000000000000000000000000000000000000000000000000000008116811461081a575f80fd5b9392505050565b60208152816020820152818360408301375f818301604090810191909152601f9092017fffffffffffffffffffffffffffffffffffffffffffffffffffffffffffffffe0160101919050565b5f6020828403121561087d575f80fd5b813573ffffffffffffffffffffffffffffffffffffffff8116811461081a575f80fd5b81810381811115610193577f4e487b71000000000000000000000000000000000000000000000000000000005f52601160045260245ffd5b5f602082840312156108e8575f80fd5b8151801515811461081a575f80fd5b5f8085851115610905575f80fd5b83861115610911575f80fd5b505082019391909203915056fea26469706673582212204549988ef240e27dc08511110406674f47c7280e6d2a37aa69196855e434e8d664736f6c63430008150033",
  "linkReferences": {},
  "deployedLinkReferences": {}
}