{
  "_format": "hh-sol-artifact-1",
  "contractName": "ContractOwnershipMock",
  "sourceName": "contracts/mocks/access/ContractOwnershipMock.sol",
  "abi": [
    {
      "inputs": [
        {
          "internalType": "address",
          "name": "initialOwner",
          "type": "address"
        },
        {
          "internalType": "contract IForwarderRegistry",
          "name": "forwarderRegistry",
          "type": "address"
        }
      ],
      "stateMutability": "nonpayable",
      "type": "constructor"
    },
    {
      "anonymous": false,
      "inputs": [
        {
          "indexed": true,
          "internalType": "address",
          "name": "previousOwner",
          "type": "address"
        },
        {
          "indexed": true,
          "internalType": "address",
          "name": "newOwner",
          "type": "address"
        }
      ],
      "name": "OwnershipTransferred",
      "type": "event"
    },
    {
      "inputs": [],
      "name": "__msgData",
      "outputs": [
        {
          "internalType": "bytes",
          "name": "",
          "type": "bytes"
        }
      ],
      "stateMutability": "view",
      "type": "function"
    },
    {
      "inputs": [
        {
          "internalType": "address",
          "name": "account",
          "type": "address"
        }
      ],
      "name": "enforceIsContractOwner",
      "outputs": [],
      "stateMutability": "view",
      "type": "function"
    },
    {
      "inputs": [],
      "name": "owner",
      "outputs": [
        {
          "internalType": "address",
          "name": "",
          "type": "address"
        }
      ],
      "stateMutability": "view",
      "type": "function"
    },
    {
      "inputs": [
        {
          "internalType": "bytes4",
          "name": "interfaceId",
          "type": "bytes4"
        }
      ],
      "name": "supportsInterface",
      "outputs": [
        {
          "internalType": "bool",
          "name": "",
          "type": "bool"
        }
      ],
      "stateMutability": "view",
      "type": "function"
    },
    {
      "inputs": [
        {
          "internalType": "address",
          "name": "newOwner",
          "type": "address"
        }
      ],
      "name": "transferOwnership",
      "outputs": [],
      "stateMutability": "nonpayable",
      "type": "function"
    }
  ],
  "bytecode": "0x60a06040523480156200001157600080fd5b5060405162000d5238038062000d52833981016040819052620000349162000219565b80826200006481620000506200007a60201b620001881760201c565b620000b060201b620001b61790919060201c565b506001600160a01b0316608052506200027e9050565b600080620000aa60017fc9ed16f33ab3a66c84bfd83099ccb2a8845871e2e1c1928f63797152f0fd54cd62000258565b92915050565b6001600160a01b03811615620001075781546001600160a01b0319166001600160a01b03821690811783556040516000907f8be0079c531659141344cd1fd0a4f28419497f9722a3daafe3b4186f6b6457e0908290a35b6200013f6307f5828d60e41b60016200012a6200014360201b620002771760201c565b6200017360201b620002a5179092919060201c565b5050565b600080620000aa60017fca9d3e17f264b0f3984e2634e94adb37fa3e6a8103f06aeae6fa59e21c769f5e62000258565b6001600160e01b03198083169003620001d25760405162461bcd60e51b815260206004820152601f60248201527f496e74657266616365446574656374696f6e3a2077726f6e672076616c756500604482015260640160405180910390fd5b6001600160e01b03199190911660009081526020929092526040909120805460ff1916911515919091179055565b6001600160a01b03811681146200021657600080fd5b50565b600080604083850312156200022d57600080fd5b82516200023a8162000200565b60208401519092506200024d8162000200565b809150509250929050565b6000828210156200027957634e487b7160e01b600052601160045260246000fd5b500390565b608051610aa3620002af600039600081816106350152818161069f015281816107dd015261087d0152610aa36000f3fe608060405234801561001057600080fd5b50600436106100675760003560e01c80638da5cb5b116100505780638da5cb5b146100aa57806397883ae2146100d7578063f2fde38b146100ec57600080fd5b806301ffc9a71461006c57806331e66e1e14610094575b600080fd5b61007f61007a366004610917565b6100ff565b60405190151581526020015b60405180910390f35b61009c610119565b60405161008b929190610960565b6100b261012c565b60405173ffffffffffffffffffffffffffffffffffffffff909116815260200161008b565b6100ea6100e53660046109ad565b610158565b005b6100ea6100fa3660046109ad565b61016d565b60006101138261010d610277565b9061039a565b92915050565b366000610124610458565b915091509091565b6000610153610139610188565b5473ffffffffffffffffffffffffffffffffffffffff1690565b905090565b61016a81610164610188565b90610463565b50565b61016a6101786104e6565b82610181610188565b91906104f0565b60008061011360017fc9ed16f33ab3a66c84bfd83099ccb2a8845871e2e1c1928f63797152f0fd54cd6109e3565b73ffffffffffffffffffffffffffffffffffffffff81161561023e5781547fffffffffffffffffffffffff00000000000000000000000000000000000000001673ffffffffffffffffffffffffffffffffffffffff821690811783556040516000907f8be0079c531659141344cd1fd0a4f28419497f9722a3daafe3b4186f6b6457e0908290a35b6102737f7f5828d000000000000000000000000000000000000000000000000000000000600161026c610277565b91906102a5565b5050565b60008061011360017fca9d3e17f264b0f3984e2634e94adb37fa3e6a8103f06aeae6fa59e21c769f5e6109e3565b7fffffffff000000000000000000000000000000000000000000000000000000008083169003610336576040517f08c379a000000000000000000000000000000000000000000000000000000000815260206004820152601f60248201527f496e74657266616365446574656374696f6e3a2077726f6e672076616c75650060448201526064015b60405180910390fd5b7fffffffff00000000000000000000000000000000000000000000000000000000919091166000908152602092909252604090912080547fffffffffffffffffffffffffffffffffffffffffffffffffffffffffffffff0016911515919091179055565b60007fffffffff0000000000000000000000000000000000000000000000000000000080831690036103ce57506000610113565b7ffe003659000000000000000000000000000000000000000000000000000000007fffffffff0000000000000000000000000000000000000000000000000000000083160161041f57506001610113565b507fffffffff00000000000000000000000000000000000000000000000000000000166000908152602091909152604090205460ff1690565b36600061012461061d565b815473ffffffffffffffffffffffffffffffffffffffff828116911614610273576040517f08c379a000000000000000000000000000000000000000000000000000000000815260206004820152601860248201527f4f776e6572736869703a206e6f7420746865206f776e65720000000000000000604482015260640161032d565b60006101536107a1565b825473ffffffffffffffffffffffffffffffffffffffff9081169083168114610575576040517f08c379a000000000000000000000000000000000000000000000000000000000815260206004820152601860248201527f4f776e6572736869703a206e6f7420746865206f776e65720000000000000000604482015260640161032d565b8173ffffffffffffffffffffffffffffffffffffffff168173ffffffffffffffffffffffffffffffffffffffff16146106175783547fffffffffffffffffffffffff00000000000000000000000000000000000000001673ffffffffffffffffffffffffffffffffffffffff8381169182178655604051908316907f8be0079c531659141344cd1fd0a4f28419497f9722a3daafe3b4186f6b6457e090600090a35b50505050565b3660003332810361063357506000923692509050565b7f000000000000000000000000000000000000000000000000000000000000000073ffffffffffffffffffffffffffffffffffffffff168173ffffffffffffffffffffffffffffffffffffffff161480610780575073ffffffffffffffffffffffffffffffffffffffff7f00000000000000000000000000000000000000000000000000000000000000001663e60125d6367fffffffffffffffffffffffffffffffffffffffffffffffffffffffffffffffec013560601c6040517fffffffff0000000000000000000000000000000000000000000000000000000060e084901b16815273ffffffffffffffffffffffffffffffffffffffff91821660048201529084166024820152604401602060405180830381865afa15801561075c573d6000803e3d6000fd5b505050506040513d601f19601f820116820180604052508101906107809190610a21565b156107965761078d6108f9565b92509250509091565b506000923692509050565b6000333281036107b057919050565b6000367fffffffffffffffffffffffffffffffffffffffffffffffffffffffffffffffec013560601c90507f000000000000000000000000000000000000000000000000000000000000000073ffffffffffffffffffffffffffffffffffffffff168273ffffffffffffffffffffffffffffffffffffffff1614806108e857506040517fe60125d600000000000000000000000000000000000000000000000000000000815273ffffffffffffffffffffffffffffffffffffffff828116600483015283811660248301527f0000000000000000000000000000000000000000000000000000000000000000169063e60125d690604401602060405180830381865afa1580156108c4573d6000803e3d6000fd5b505050506040513d601f19601f820116820180604052508101906108e89190610a21565b156108f35792915050565b50919050565b36600080808361090a6014826109e3565b9261012493929190610a43565b60006020828403121561092957600080fd5b81357fffffffff000000000000000000000000000000000000000000000000000000008116811461095957600080fd5b9392505050565b60208152816020820152818360408301376000818301604090810191909152601f9092017fffffffffffffffffffffffffffffffffffffffffffffffffffffffffffffffe0160101919050565b6000602082840312156109bf57600080fd5b813573ffffffffffffffffffffffffffffffffffffffff8116811461095957600080fd5b600082821015610a1c577f4e487b7100000000000000000000000000000000000000000000000000000000600052601160045260246000fd5b500390565b600060208284031215610a3357600080fd5b8151801515811461095957600080fd5b60008085851115610a5357600080fd5b83861115610a6057600080fd5b505082019391909203915056fea26469706673582212201cf1ab2952470915f40df2a451127d4b7cba23d9cc87cbf090f574f5582f6c5a64736f6c634300080e0033",
  "linkReferences": {},
  "deployedLinkReferences": {}
}