{
  "_format": "hh-sol-artifact-1",
  "contractName": "ContractOwnershipMock",
  "sourceName": "contracts/mocks/access/ContractOwnershipMock.sol",
  "abi": [
    {
      "inputs": [
        {
          "internalType": "address",
          "name": "initialOwner",
          "type": "address"
        },
        {
          "internalType": "contract IForwarderRegistry",
          "name": "forwarderRegistry",
          "type": "address"
        }
      ],
      "stateMutability": "nonpayable",
      "type": "constructor"
    },
    {
      "inputs": [],
      "name": "IllegalInterfaceId",
      "type": "error"
    },
    {
      "inputs": [
        {
          "internalType": "address",
          "name": "account",
          "type": "address"
        }
      ],
      "name": "NotContractOwner",
      "type": "error"
    },
    {
      "anonymous": false,
      "inputs": [
        {
          "indexed": true,
          "internalType": "address",
          "name": "previousOwner",
          "type": "address"
        },
        {
          "indexed": true,
          "internalType": "address",
          "name": "newOwner",
          "type": "address"
        }
      ],
      "name": "OwnershipTransferred",
      "type": "event"
    },
    {
      "inputs": [],
      "name": "__msgData",
      "outputs": [
        {
          "internalType": "bytes",
          "name": "",
          "type": "bytes"
        }
      ],
      "stateMutability": "view",
      "type": "function"
    },
    {
      "inputs": [
        {
          "internalType": "address",
          "name": "account",
          "type": "address"
        }
      ],
      "name": "enforceIsContractOwner",
      "outputs": [],
      "stateMutability": "view",
      "type": "function"
    },
    {
      "inputs": [],
      "name": "forwarderRegistry",
      "outputs": [
        {
          "internalType": "contract IForwarderRegistry",
          "name": "",
          "type": "address"
        }
      ],
      "stateMutability": "view",
      "type": "function"
    },
    {
      "inputs": [
        {
          "internalType": "address",
          "name": "forwarder",
          "type": "address"
        }
      ],
      "name": "isTrustedForwarder",
      "outputs": [
        {
          "internalType": "bool",
          "name": "",
          "type": "bool"
        }
      ],
      "stateMutability": "view",
      "type": "function"
    },
    {
      "inputs": [],
      "name": "owner",
      "outputs": [
        {
          "internalType": "address",
          "name": "",
          "type": "address"
        }
      ],
      "stateMutability": "view",
      "type": "function"
    },
    {
      "inputs": [
        {
          "internalType": "bytes4",
          "name": "interfaceId",
          "type": "bytes4"
        }
      ],
      "name": "supportsInterface",
      "outputs": [
        {
          "internalType": "bool",
          "name": "",
          "type": "bool"
        }
      ],
      "stateMutability": "view",
      "type": "function"
    },
    {
      "inputs": [
        {
          "internalType": "address",
          "name": "newOwner",
          "type": "address"
        }
      ],
      "name": "transferOwnership",
      "outputs": [],
      "stateMutability": "nonpayable",
      "type": "function"
    }
  ],
  "bytecode": "0x60a060405234801561000f575f80fd5b50604051610b55380380610b5583398101604081905261002e916101a0565b8080836100438161003d610059565b9061008c565b506001600160a01b0316608052506101f7915050565b5f8061008660017fc9ed16f33ab3a66c84bfd83099ccb2a8845871e2e1c1928f63797152f0fd54cd6101d8565b92915050565b6001600160a01b038116156100e15781546001600160a01b0319166001600160a01b03821690811783556040515f907f8be0079c531659141344cd1fd0a4f28419497f9722a3daafe3b4186f6b6457e0908290a35b6100fd6307f5828d60e41b60016100f6610101565b919061012e565b5050565b5f8061008660017fca9d3e17f264b0f3984e2634e94adb37fa3e6a8103f06aeae6fa59e21c769f5e6101d8565b600160e01b6001600160e01b031983160161015c576040516372c683bb60e01b815260040160405180910390fd5b6001600160e01b0319919091165f9081526020929092526040909120805460ff1916911515919091179055565b6001600160a01b038116811461019d575f80fd5b50565b5f80604083850312156101b1575f80fd5b82516101bc81610189565b60208401519092506101cd81610189565b809150509250929050565b8181038181111561008657634e487b7160e01b5f52601160045260245ffd5b6080516109246102315f395f818160a801528181610113015281816105070152818161054501528181610679015261070101526109245ff3fe608060405234801561000f575f80fd5b506004361061007a575f3560e01c8063572b6c0511610058578063572b6c05146101035780638da5cb5b1461015057806397883ae214610158578063f2fde38b1461016d575f80fd5b806301ffc9a71461007e5780632b4c9f16146100a657806331e66e1e146100ed575b5f80fd5b61009161008c3660046107ab565b610180565b60405190151581526020015b60405180910390f35b7f00000000000000000000000000000000000000000000000000000000000000005b60405173ffffffffffffffffffffffffffffffffffffffff909116815260200161009d565b6100f5610199565b60405161009d9291906107f1565b61009161011136600461083d565b7f000000000000000000000000000000000000000000000000000000000000000073ffffffffffffffffffffffffffffffffffffffff90811691161490565b6100c86101ab565b61016b61016636600461083d565b6101d6565b005b61016b61017b36600461083d565b6101eb565b5f6101938261018d610206565b90610233565b92915050565b365f6101a361030a565b915091509091565b5f6101d16101b7610314565b5473ffffffffffffffffffffffffffffffffffffffff1690565b905090565b6101e8816101e2610314565b90610341565b50565b6101e86101f66103b5565b826101ff610314565b91906103be565b5f8061019360017fca9d3e17f264b0f3984e2634e94adb37fa3e6a8103f06aeae6fa59e21c769f5e610870565b5f7c01000000000000000000000000000000000000000000000000000000007fffffffff0000000000000000000000000000000000000000000000000000000083160161028157505f610193565b7ffe003659000000000000000000000000000000000000000000000000000000007fffffffff000000000000000000000000000000000000000000000000000000008316016102d257506001610193565b507fffffffff00000000000000000000000000000000000000000000000000000000165f908152602091909152604090205460ff1690565b365f6101a36104d2565b5f8061019360017fc9ed16f33ab3a66c84bfd83099ccb2a8845871e2e1c1928f63797152f0fd54cd610870565b815473ffffffffffffffffffffffffffffffffffffffff8281169116146103b1576040517f2ef4875e00000000000000000000000000000000000000000000000000000000815273ffffffffffffffffffffffffffffffffffffffff821660048201526024015b60405180910390fd5b5050565b5f6101d1610637565b825473ffffffffffffffffffffffffffffffffffffffff908116908316811461042b576040517f2ef4875e00000000000000000000000000000000000000000000000000000000815273ffffffffffffffffffffffffffffffffffffffff841660048201526024016103a8565b8173ffffffffffffffffffffffffffffffffffffffff168173ffffffffffffffffffffffffffffffffffffffff16146104cc5783547fffffffffffffffffffffffff00000000000000000000000000000000000000001673ffffffffffffffffffffffffffffffffffffffff8381169182178655604051908316907f8be0079c531659141344cd1fd0a4f28419497f9722a3daafe3b4186f6b6457e0905f90a35b50505050565b365f333214806104e25750601836105b156104ef57505f91369150565b3373ffffffffffffffffffffffffffffffffffffffff7f0000000000000000000000000000000000000000000000000000000000000000161480610622575073ffffffffffffffffffffffffffffffffffffffff7f000000000000000000000000000000000000000000000000000000000000000016638929a8ca367fffffffffffffffffffffffffffffffffffffffffffffffffffffffffffffffec013560601c6040517fffffffff0000000000000000000000000000000000000000000000000000000060e084901b16815273ffffffffffffffffffffffffffffffffffffffff9091166004820152336024820152604401602060405180830381865afa1580156105fe573d5f803e3d5ffd5b505050506040513d601f19601f8201168201806040525081019061062291906108a8565b1561062f576101a361077b565b505f91369150565b5f333214806106465750601836105b1561065057503390565b7fffffffffffffffffffffffffffffffffffffffffffffffffffffffffffffffec36013560601c7f000000000000000000000000000000000000000000000000000000000000000073ffffffffffffffffffffffffffffffffffffffff1633148061076a57506040517f8929a8ca00000000000000000000000000000000000000000000000000000000815273ffffffffffffffffffffffffffffffffffffffff82811660048301523360248301527f00000000000000000000000000000000000000000000000000000000000000001690638929a8ca90604401602060405180830381865afa158015610746573d5f803e3d5ffd5b505050506040513d601f19601f8201168201806040525081019061076a91906108a8565b1561077457919050565b3391505090565b365f6101a37fffffffffffffffffffffffffffffffffffffffffffffffffffffffffffffffec83018284816108c7565b5f602082840312156107bb575f80fd5b81357fffffffff00000000000000000000000000000000000000000000000000000000811681146107ea575f80fd5b9392505050565b60208152816020820152818360408301375f818301604090810191909152601f9092017fffffffffffffffffffffffffffffffffffffffffffffffffffffffffffffffe0160101919050565b5f6020828403121561084d575f80fd5b813573ffffffffffffffffffffffffffffffffffffffff811681146107ea575f80fd5b81810381811115610193577f4e487b71000000000000000000000000000000000000000000000000000000005f52601160045260245ffd5b5f602082840312156108b8575f80fd5b815180151581146107ea575f80fd5b5f80858511156108d5575f80fd5b838611156108e1575f80fd5b505082019391909203915056fea264697066735822122016a11dbfa21f2a71963908c83eec9bdc86ae200e582df5d3dadd0e97035f7a3564736f6c63430008150033",
  "linkReferences": {},
  "deployedLinkReferences": {}
}