{
  "_format": "hh-sol-artifact-1",
  "contractName": "ERC20FixedSupplyMock",
  "sourceName": "contracts/mocks/token/ERC20/preset/ERC20FixedSupplyMock.sol",
  "abi": [
    {
      "inputs": [
        {
          "internalType": "string",
          "name": "tokenName",
          "type": "string"
        },
        {
          "internalType": "string",
          "name": "tokenSymbol",
          "type": "string"
        },
        {
          "internalType": "uint8",
          "name": "tokenDecimals",
          "type": "uint8"
        },
        {
          "internalType": "address[]",
          "name": "holders",
          "type": "address[]"
        },
        {
          "internalType": "uint256[]",
          "name": "allocations",
          "type": "uint256[]"
        },
        {
          "internalType": "contract IForwarderRegistry",
          "name": "forwarderRegistry",
          "type": "address"
        }
      ],
      "stateMutability": "nonpayable",
      "type": "constructor"
    },
    {
      "inputs": [
        {
          "internalType": "address",
          "name": "target",
          "type": "address"
        }
      ],
      "name": "AddressEmptyCode",
      "type": "error"
    },
    {
      "inputs": [
        {
          "internalType": "address",
          "name": "account",
          "type": "address"
        }
      ],
      "name": "AddressInsufficientBalance",
      "type": "error"
    },
    {
      "inputs": [
        {
          "internalType": "address",
          "name": "owner",
          "type": "address"
        },
        {
          "internalType": "address",
          "name": "spender",
          "type": "address"
        },
        {
          "internalType": "uint256",
          "name": "allowance",
          "type": "uint256"
        },
        {
          "internalType": "uint256",
          "name": "increment",
          "type": "uint256"
        }
      ],
      "name": "ERC20AllowanceOverflow",
      "type": "error"
    },
    {
      "inputs": [
        {
          "internalType": "address",
          "name": "owner",
          "type": "address"
        }
      ],
      "name": "ERC20ApprovalToAddressZero",
      "type": "error"
    },
    {
      "inputs": [],
      "name": "ERC20BatchMintValuesOverflow",
      "type": "error"
    },
    {
      "inputs": [],
      "name": "ERC20BatchTransferValuesOverflow",
      "type": "error"
    },
    {
      "inputs": [
        {
          "internalType": "address",
          "name": "owner",
          "type": "address"
        },
        {
          "internalType": "address",
          "name": "spender",
          "type": "address"
        },
        {
          "internalType": "uint256",
          "name": "allowance",
          "type": "uint256"
        },
        {
          "internalType": "uint256",
          "name": "decrement",
          "type": "uint256"
        }
      ],
      "name": "ERC20InsufficientAllowance",
      "type": "error"
    },
    {
      "inputs": [
        {
          "internalType": "address",
          "name": "owner",
          "type": "address"
        },
        {
          "internalType": "uint256",
          "name": "balance",
          "type": "uint256"
        },
        {
          "internalType": "uint256",
          "name": "value",
          "type": "uint256"
        }
      ],
      "name": "ERC20InsufficientBalance",
      "type": "error"
    },
    {
      "inputs": [],
      "name": "ERC20MintToAddressZero",
      "type": "error"
    },
    {
      "inputs": [
        {
          "internalType": "uint256",
          "name": "deadline",
          "type": "uint256"
        }
      ],
      "name": "ERC20PermitExpired",
      "type": "error"
    },
    {
      "inputs": [],
      "name": "ERC20PermitFromAddressZero",
      "type": "error"
    },
    {
      "inputs": [],
      "name": "ERC20PermitInvalidSignature",
      "type": "error"
    },
    {
      "inputs": [
        {
          "internalType": "address",
          "name": "recipient",
          "type": "address"
        }
      ],
      "name": "ERC20SafeTransferRejected",
      "type": "error"
    },
    {
      "inputs": [
        {
          "internalType": "uint256",
          "name": "supply",
          "type": "uint256"
        },
        {
          "internalType": "uint256",
          "name": "value",
          "type": "uint256"
        }
      ],
      "name": "ERC20TotalSupplyOverflow",
      "type": "error"
    },
    {
      "inputs": [
        {
          "internalType": "address",
          "name": "owner",
          "type": "address"
        }
      ],
      "name": "ERC20TransferToAddressZero",
      "type": "error"
    },
    {
      "inputs": [],
      "name": "FailedInnerCall",
      "type": "error"
    },
    {
      "inputs": [],
      "name": "IllegalInterfaceId",
      "type": "error"
    },
    {
      "inputs": [],
      "name": "InconsistentArrayLengths",
      "type": "error"
    },
    {
      "inputs": [
        {
          "internalType": "address",
          "name": "tokenContract",
          "type": "address"
        }
      ],
      "name": "IncorrectTokenContractType",
      "type": "error"
    },
    {
      "inputs": [
        {
          "internalType": "address",
          "name": "account",
          "type": "address"
        }
      ],
      "name": "NotContractOwner",
      "type": "error"
    },
    {
      "inputs": [
        {
          "internalType": "address",
          "name": "token",
          "type": "address"
        }
      ],
      "name": "SafeERC20FailedOperation",
      "type": "error"
    },
    {
      "anonymous": false,
      "inputs": [
        {
          "indexed": true,
          "internalType": "address",
          "name": "owner",
          "type": "address"
        },
        {
          "indexed": true,
          "internalType": "address",
          "name": "spender",
          "type": "address"
        },
        {
          "indexed": false,
          "internalType": "uint256",
          "name": "value",
          "type": "uint256"
        }
      ],
      "name": "Approval",
      "type": "event"
    },
    {
      "anonymous": false,
      "inputs": [
        {
          "indexed": true,
          "internalType": "address",
          "name": "previousOwner",
          "type": "address"
        },
        {
          "indexed": true,
          "internalType": "address",
          "name": "newOwner",
          "type": "address"
        }
      ],
      "name": "OwnershipTransferred",
      "type": "event"
    },
    {
      "anonymous": false,
      "inputs": [
        {
          "indexed": true,
          "internalType": "address",
          "name": "from",
          "type": "address"
        },
        {
          "indexed": true,
          "internalType": "address",
          "name": "to",
          "type": "address"
        },
        {
          "indexed": false,
          "internalType": "uint256",
          "name": "value",
          "type": "uint256"
        }
      ],
      "name": "Transfer",
      "type": "event"
    },
    {
      "inputs": [],
      "name": "DOMAIN_SEPARATOR",
      "outputs": [
        {
          "internalType": "bytes32",
          "name": "",
          "type": "bytes32"
        }
      ],
      "stateMutability": "view",
      "type": "function"
    },
    {
      "inputs": [],
      "name": "__msgData",
      "outputs": [
        {
          "internalType": "bytes",
          "name": "",
          "type": "bytes"
        }
      ],
      "stateMutability": "view",
      "type": "function"
    },
    {
      "inputs": [
        {
          "internalType": "address",
          "name": "owner",
          "type": "address"
        },
        {
          "internalType": "address",
          "name": "spender",
          "type": "address"
        }
      ],
      "name": "allowance",
      "outputs": [
        {
          "internalType": "uint256",
          "name": "value",
          "type": "uint256"
        }
      ],
      "stateMutability": "view",
      "type": "function"
    },
    {
      "inputs": [
        {
          "internalType": "address",
          "name": "spender",
          "type": "address"
        },
        {
          "internalType": "uint256",
          "name": "value",
          "type": "uint256"
        }
      ],
      "name": "approve",
      "outputs": [
        {
          "internalType": "bool",
          "name": "result",
          "type": "bool"
        }
      ],
      "stateMutability": "nonpayable",
      "type": "function"
    },
    {
      "inputs": [
        {
          "internalType": "address",
          "name": "owner",
          "type": "address"
        }
      ],
      "name": "balanceOf",
      "outputs": [
        {
          "internalType": "uint256",
          "name": "balance",
          "type": "uint256"
        }
      ],
      "stateMutability": "view",
      "type": "function"
    },
    {
      "inputs": [
        {
          "internalType": "address[]",
          "name": "recipients",
          "type": "address[]"
        },
        {
          "internalType": "uint256[]",
          "name": "values",
          "type": "uint256[]"
        }
      ],
      "name": "batchTransfer",
      "outputs": [
        {
          "internalType": "bool",
          "name": "",
          "type": "bool"
        }
      ],
      "stateMutability": "nonpayable",
      "type": "function"
    },
    {
      "inputs": [
        {
          "internalType": "address",
          "name": "from",
          "type": "address"
        },
        {
          "internalType": "address[]",
          "name": "recipients",
          "type": "address[]"
        },
        {
          "internalType": "uint256[]",
          "name": "values",
          "type": "uint256[]"
        }
      ],
      "name": "batchTransferFrom",
      "outputs": [
        {
          "internalType": "bool",
          "name": "",
          "type": "bool"
        }
      ],
      "stateMutability": "nonpayable",
      "type": "function"
    },
    {
      "inputs": [],
      "name": "decimals",
      "outputs": [
        {
          "internalType": "uint8",
          "name": "",
          "type": "uint8"
        }
      ],
      "stateMutability": "view",
      "type": "function"
    },
    {
      "inputs": [
        {
          "internalType": "address",
          "name": "spender",
          "type": "address"
        },
        {
          "internalType": "uint256",
          "name": "subtractedValue",
          "type": "uint256"
        }
      ],
      "name": "decreaseAllowance",
      "outputs": [
        {
          "internalType": "bool",
          "name": "result",
          "type": "bool"
        }
      ],
      "stateMutability": "nonpayable",
      "type": "function"
    },
    {
      "inputs": [],
      "name": "forwarderRegistry",
      "outputs": [
        {
          "internalType": "contract IForwarderRegistry",
          "name": "",
          "type": "address"
        }
      ],
      "stateMutability": "view",
      "type": "function"
    },
    {
      "inputs": [
        {
          "internalType": "address",
          "name": "spender",
          "type": "address"
        },
        {
          "internalType": "uint256",
          "name": "addedValue",
          "type": "uint256"
        }
      ],
      "name": "increaseAllowance",
      "outputs": [
        {
          "internalType": "bool",
          "name": "result",
          "type": "bool"
        }
      ],
      "stateMutability": "nonpayable",
      "type": "function"
    },
    {
      "inputs": [
        {
          "internalType": "address",
          "name": "forwarder",
          "type": "address"
        }
      ],
      "name": "isTrustedForwarder",
      "outputs": [
        {
          "internalType": "bool",
          "name": "",
          "type": "bool"
        }
      ],
      "stateMutability": "view",
      "type": "function"
    },
    {
      "inputs": [],
      "name": "name",
      "outputs": [
        {
          "internalType": "string",
          "name": "",
          "type": "string"
        }
      ],
      "stateMutability": "view",
      "type": "function"
    },
    {
      "inputs": [
        {
          "internalType": "address",
          "name": "owner",
          "type": "address"
        }
      ],
      "name": "nonces",
      "outputs": [
        {
          "internalType": "uint256",
          "name": "",
          "type": "uint256"
        }
      ],
      "stateMutability": "view",
      "type": "function"
    },
    {
      "inputs": [],
      "name": "owner",
      "outputs": [
        {
          "internalType": "address",
          "name": "",
          "type": "address"
        }
      ],
      "stateMutability": "view",
      "type": "function"
    },
    {
      "inputs": [
        {
          "internalType": "address",
          "name": "owner",
          "type": "address"
        },
        {
          "internalType": "address",
          "name": "spender",
          "type": "address"
        },
        {
          "internalType": "uint256",
          "name": "value",
          "type": "uint256"
        },
        {
          "internalType": "uint256",
          "name": "deadline",
          "type": "uint256"
        },
        {
          "internalType": "uint8",
          "name": "v",
          "type": "uint8"
        },
        {
          "internalType": "bytes32",
          "name": "r",
          "type": "bytes32"
        },
        {
          "internalType": "bytes32",
          "name": "s",
          "type": "bytes32"
        }
      ],
      "name": "permit",
      "outputs": [],
      "stateMutability": "nonpayable",
      "type": "function"
    },
    {
      "inputs": [
        {
          "internalType": "address[]",
          "name": "accounts",
          "type": "address[]"
        },
        {
          "internalType": "contract IERC20[]",
          "name": "tokens",
          "type": "address[]"
        },
        {
          "internalType": "uint256[]",
          "name": "amounts",
          "type": "uint256[]"
        }
      ],
      "name": "recoverERC20s",
      "outputs": [],
      "stateMutability": "nonpayable",
      "type": "function"
    },
    {
      "inputs": [
        {
          "internalType": "address[]",
          "name": "accounts",
          "type": "address[]"
        },
        {
          "internalType": "contract IERC721[]",
          "name": "contracts",
          "type": "address[]"
        },
        {
          "internalType": "uint256[]",
          "name": "tokenIds",
          "type": "uint256[]"
        }
      ],
      "name": "recoverERC721s",
      "outputs": [],
      "stateMutability": "nonpayable",
      "type": "function"
    },
    {
      "inputs": [
        {
          "internalType": "address payable[]",
          "name": "accounts",
          "type": "address[]"
        },
        {
          "internalType": "uint256[]",
          "name": "amounts",
          "type": "uint256[]"
        }
      ],
      "name": "recoverETH",
      "outputs": [],
      "stateMutability": "nonpayable",
      "type": "function"
    },
    {
      "inputs": [
        {
          "internalType": "address",
          "name": "to",
          "type": "address"
        },
        {
          "internalType": "uint256",
          "name": "value",
          "type": "uint256"
        },
        {
          "internalType": "bytes",
          "name": "data",
          "type": "bytes"
        }
      ],
      "name": "safeTransfer",
      "outputs": [
        {
          "internalType": "bool",
          "name": "",
          "type": "bool"
        }
      ],
      "stateMutability": "nonpayable",
      "type": "function"
    },
    {
      "inputs": [
        {
          "internalType": "address",
          "name": "from",
          "type": "address"
        },
        {
          "internalType": "address",
          "name": "to",
          "type": "address"
        },
        {
          "internalType": "uint256",
          "name": "value",
          "type": "uint256"
        },
        {
          "internalType": "bytes",
          "name": "data",
          "type": "bytes"
        }
      ],
      "name": "safeTransferFrom",
      "outputs": [
        {
          "internalType": "bool",
          "name": "",
          "type": "bool"
        }
      ],
      "stateMutability": "nonpayable",
      "type": "function"
    },
    {
      "inputs": [
        {
          "internalType": "string",
          "name": "uri",
          "type": "string"
        }
      ],
      "name": "setTokenURI",
      "outputs": [],
      "stateMutability": "nonpayable",
      "type": "function"
    },
    {
      "inputs": [
        {
          "internalType": "bytes4",
          "name": "interfaceId",
          "type": "bytes4"
        }
      ],
      "name": "supportsInterface",
      "outputs": [
        {
          "internalType": "bool",
          "name": "",
          "type": "bool"
        }
      ],
      "stateMutability": "view",
      "type": "function"
    },
    {
      "inputs": [],
      "name": "symbol",
      "outputs": [
        {
          "internalType": "string",
          "name": "",
          "type": "string"
        }
      ],
      "stateMutability": "view",
      "type": "function"
    },
    {
      "inputs": [],
      "name": "tokenURI",
      "outputs": [
        {
          "internalType": "string",
          "name": "",
          "type": "string"
        }
      ],
      "stateMutability": "view",
      "type": "function"
    },
    {
      "inputs": [],
      "name": "totalSupply",
      "outputs": [
        {
          "internalType": "uint256",
          "name": "supply",
          "type": "uint256"
        }
      ],
      "stateMutability": "view",
      "type": "function"
    },
    {
      "inputs": [
        {
          "internalType": "address",
          "name": "to",
          "type": "address"
        },
        {
          "internalType": "uint256",
          "name": "value",
          "type": "uint256"
        }
      ],
      "name": "transfer",
      "outputs": [
        {
          "internalType": "bool",
          "name": "result",
          "type": "bool"
        }
      ],
      "stateMutability": "nonpayable",
      "type": "function"
    },
    {
      "inputs": [
        {
          "internalType": "address",
          "name": "from",
          "type": "address"
        },
        {
          "internalType": "address",
          "name": "to",
          "type": "address"
        },
        {
          "internalType": "uint256",
          "name": "value",
          "type": "uint256"
        }
      ],
      "name": "transferFrom",
      "outputs": [
        {
          "internalType": "bool",
          "name": "result",
          "type": "bool"
        }
      ],
      "stateMutability": "nonpayable",
      "type": "function"
    },
    {
      "inputs": [
        {
          "internalType": "address",
          "name": "newOwner",
          "type": "address"
        }
      ],
      "name": "transferOwnership",
      "outputs": [],
      "stateMutability": "nonpayable",
      "type": "function"
    }
  ],
  "bytecode": "0x60a060405234801561001057600080fd5b50604051613a5a380380613a5a83398101604081905261002f916106b1565b8585858585858080338888886100436100c7565b6100598383836100516100fc565b929190610130565b5050506100748161006e61017e60201b60201c565b906101ac565b5061007d61021b565b610085610232565b61008d610247565b61009561025c565b6001600160a01b0316608052506100b683836100af610271565b919061029f565b5050505050505050505050506108fe565b60006100d161042d565b90506100e6816336372b0760e01b600161045b565b6100f981634e83a8c360e11b600161045b565b50565b60008061012a60017f335df4119bbb04f056b33eba33b826d3529129e458faf6daa9924b5a8f3b6a8261077d565b92915050565b8361013b8482610829565b506001840161014a8382610829565b5060028401805460ff191660ff831617905561017863a219a02560e01b600161017161042d565b919061045b565b50505050565b60008061012a60017fc9ed16f33ab3a66c84bfd83099ccb2a8845871e2e1c1928f63797152f0fd54cd61077d565b6001600160a01b038116156102025781546001600160a01b0319166001600160a01b03821690811783556040516000907f8be0079c531659141344cd1fd0a4f28419497f9722a3daafe3b4186f6b6457e0908290a35b6102176307f5828d60e41b600161017161042d565b5050565b6102306303c130d960e41b600161017161042d565b565b610230634ec7fbed60e11b600161017161042d565b6102306353f41a9760e01b600161017161042d565b61023063602993f360e11b600161017161042d565b60008061012a60017f1da92899d3da68bf9787824388a37ea2bfa79780bcef91b9716c390eec8ecbef61077d565b8151815181146102c2576040516332c1299b60e11b815260040160405180910390fd5b806000036102d05750505050565b6000805b828110156103e25760008582815181106102f0576102f06108e8565b6020026020010151905060006001600160a01b0316816001600160a01b03160361032d576040516392fd9c8f60e01b815260040160405180910390fd5b6000858381518110610341576103416108e8565b60200260200101519050806000146103975783810184811161037657604051631550ab9f60e21b815260040160405180910390fd5b6001600160a01b038316600090815260208a90526040902080548301905593505b6040518181526001600160a01b038316906000907fddf252ad1be2c89b69c2b068fc378daa952ba7f163c4a11628f55a4df523b3ef9060200160405180910390a350506001016102d4565b50801561042657600285015481810181811161041f576040516301b352fb60e11b8152600481018390526024810184905260440160405180910390fd5b6002870155505b5050505050565b60008061012a60017fca9d3e17f264b0f3984e2634e94adb37fa3e6a8103f06aeae6fa59e21c769f5e61077d565b600160e01b6001600160e01b0319831601610489576040516372c683bb60e01b815260040160405180910390fd5b6001600160e01b03199190911660009081526020929092526040909120805460ff1916911515919091179055565b634e487b7160e01b600052604160045260246000fd5b604051601f8201601f191681016001600160401b03811182821017156104f5576104f56104b7565b604052919050565b600082601f83011261050e57600080fd5b81516001600160401b03811115610527576105276104b7565b602061053b601f8301601f191682016104cd565b828152858284870101111561054f57600080fd5b60005b8381101561056d578581018301518282018401528201610552565b506000928101909101919091529392505050565b805160ff8116811461059257600080fd5b919050565b60006001600160401b038211156105b0576105b06104b7565b5060051b60200190565b6001600160a01b03811681146100f957600080fd5b600082601f8301126105e057600080fd5b815160206105f56105f083610597565b6104cd565b8083825260208201915060208460051b87010193508684111561061757600080fd5b602086015b8481101561063c57805161062f816105ba565b835291830191830161061c565b509695505050505050565b600082601f83011261065857600080fd5b815160206106686105f083610597565b8083825260208201915060208460051b87010193508684111561068a57600080fd5b602086015b8481101561063c578051835291830191830161068f565b8051610592816105ba565b60008060008060008060c087890312156106ca57600080fd5b86516001600160401b03808211156106e157600080fd5b6106ed8a838b016104fd565b9750602089015191508082111561070357600080fd5b61070f8a838b016104fd565b965061071d60408a01610581565b9550606089015191508082111561073357600080fd5b61073f8a838b016105cf565b9450608089015191508082111561075557600080fd5b5061076289828a01610647565b92505061077160a088016106a6565b90509295509295509295565b8181038181111561012a57634e487b7160e01b600052601160045260246000fd5b600181811c908216806107b257607f821691505b6020821081036107d257634e487b7160e01b600052602260045260246000fd5b50919050565b601f821115610824576000816000526020600020601f850160051c810160208610156108015750805b601f850160051c820191505b818110156108205782815560010161080d565b5050505b505050565b81516001600160401b03811115610842576108426104b7565b61085681610850845461079e565b846107d8565b602080601f83116001811461088b57600084156108735750858301515b600019600386901b1c1916600185901b178555610820565b600085815260208120601f198616915b828110156108ba5788860151825594840194600190910190840161089b565b50858210156108d85787850151600019600388901b60f8161c191681555b5050505050600190811b01905550565b634e487b7160e01b600052603260045260246000fd5b60805161311e61093c6000396000818161024f0152818161030a015281816122a801528181612336015281816123e90152612427015261311e6000f3fe608060405234801561001057600080fd5b50600436106101cf5760003560e01c806373c8a95811610104578063b88d4fde116100a2578063e0df5b6f11610071578063e0df5b6f14610417578063eb7955491461042a578063f2fde38b1461043d578063f7ba94bd1461045057600080fd5b8063b88d4fde146103cb578063c3666c36146103de578063d505accf146103f1578063dd62ed3e1461040457600080fd5b80638da5cb5b116100de5780638da5cb5b1461039557806395d89b411461039d578063a457c2d7146103a5578063a9059cbb146103b857600080fd5b806373c8a9581461035a5780637ecebe001461036f57806388d695b21461038257600080fd5b806331e66e1e116101715780633c130d901161014b5780633c130d90146102df5780634885b254146102e7578063572b6c05146102fa57806370a082311461034757600080fd5b806331e66e1e146102ae5780633644e515146102c457806339509351146102cc57600080fd5b806318160ddd116101ad57806318160ddd1461022457806323b872dd1461023a5780632b4c9f161461024d578063313ce5671461029457600080fd5b806301ffc9a7146101d457806306fdde03146101fc578063095ea7b314610211575b600080fd5b6101e76101e2366004612885565b610463565b60405190151581526020015b60405180910390f35b61020461047d565b6040516101f39190612910565b6101e761021f366004612945565b610494565b61022c6104bc565b6040519081526020016101f3565b6101e7610248366004612971565b6104d0565b7f00000000000000000000000000000000000000000000000000000000000000005b60405173ffffffffffffffffffffffffffffffffffffffff90911681526020016101f3565b61029c6104fc565b60405160ff90911681526020016101f3565b6102b6610513565b6040516101f39291906129b2565b61022c610526565b6101e76102da366004612945565b610530565b61020461054f565b6101e76102f5366004612a4b565b61055c565b6101e7610308366004612ace565b7f000000000000000000000000000000000000000000000000000000000000000073ffffffffffffffffffffffffffffffffffffffff90811691161490565b61022c610355366004612ace565b61058d565b61036d610368366004612aeb565b6105c5565b005b61022c61037d366004612ace565b6106c9565b6101e7610390366004612b85565b6106d7565b61026f610705565b61020461072c565b6101e76103b3366004612945565b61073e565b6101e76103c6366004612945565b61075d565b6101e76103d9366004612c33565b61077c565b61036d6103ec366004612aeb565b6107a1565b61036d6103ff366004612c95565b610a47565b61022c610412366004612d0c565b610a6e565b61036d610425366004612d45565b610ab9565b6101e7610438366004612d87565b610adc565b61036d61044b366004612ace565b610aff565b61036d61045e366004612b85565b610b1d565b600061047782610471610bdc565b90610c0a565b92915050565b606061048f61048a610ce4565b610d12565b905090565b60006104b36104a1610da8565b84846104ab610db2565b929190610de0565b50600192915050565b600061048f6104c9610db2565b6002015490565b60006104f16104dd610da8565b8585856104e8610db2565b93929190610eb7565b5060015b9392505050565b600061048f610509610ce4565b6002015460ff1690565b36600061051e610f09565b915091509091565b600061048f610f14565b60006104b361053d610da8565b8484610547610db2565b929190610faf565b606061048f61048a611161565b6000610581610569610da8565b8787878787610576610db2565b95949392919061118f565b50600195945050505050565b60006104778261059b610db2565b9073ffffffffffffffffffffffffffffffffffffffff166000908152602091909152604090205490565b6105de6105d0610da8565b6105d8611569565b90611597565b8483811415806105ee5750808214155b15610625576040517f6582533600000000000000000000000000000000000000000000000000000000815260040160405180910390fd5b60005b818110156106bf576106b788888381811061064557610645612dd7565b905060200201602081019061065a9190612ace565b85858481811061066c5761066c612dd7565b9050602002013588888581811061068557610685612dd7565b905060200201602081019061069a9190612ace565b73ffffffffffffffffffffffffffffffffffffffff169190611602565b600101610628565b5050505050505050565b60006104778261059b611694565b60006106fa6106e4610da8565b868686866106f0610db2565b94939291906116c2565b506001949350505050565b600061048f610712611569565b5473ffffffffffffffffffffffffffffffffffffffff1690565b606061048f610739610ce4565b611a19565b60006104b361074b610da8565b8484610755610db2565b929190611a2a565b60006104b361076a610da8565b8484610774610db2565b929190611b62565b6000610581610789610da8565b8787878787610796610db2565b959493929190611d21565b6107ac6105d0610da8565b8483811415806107bc5750808214155b156107f3576040517f6582533600000000000000000000000000000000000000000000000000000000815260040160405180910390fd5b60005b818110156106bf57600086868381811061081257610812612dd7565b90506020020160208101906108279190612ace565b6040517f01ffc9a70000000000000000000000000000000000000000000000000000000081527f80ac58cd00000000000000000000000000000000000000000000000000000000600482015290915073ffffffffffffffffffffffffffffffffffffffff8216906301ffc9a790602401602060405180830381865afa1580156108b4573d6000803e3d6000fd5b505050506040513d601f19601f820116820180604052508101906108d89190612e06565b61092b576040517f986b9f1f00000000000000000000000000000000000000000000000000000000815273ffffffffffffffffffffffffffffffffffffffff821660048201526024015b60405180910390fd5b86868381811061093d5761093d612dd7565b90506020020160208101906109529190612ace565b73ffffffffffffffffffffffffffffffffffffffff166342842e0e308b8b8681811061098057610980612dd7565b90506020020160208101906109959190612ace565b8888878181106109a7576109a7612dd7565b6040517fffffffff0000000000000000000000000000000000000000000000000000000060e088901b16815273ffffffffffffffffffffffffffffffffffffffff958616600482015294909316602485015250602090910201356044820152606401600060405180830381600087803b158015610a2357600080fd5b505af1158015610a37573d6000803e3d6000fd5b50505050508060010190506107f6565b610a6587878787878787610a59611694565b96959493929190611d8e565b50505050505050565b60006104f58383610a7d610db2565b919073ffffffffffffffffffffffffffffffffffffffff9182166000908152600193909301602090815260408085209290931684525290205490565b610ac46105d0610da8565b610ad88282610ad1611161565b9190611ffd565b5050565b60006106fa610ae9610da8565b86868686610af5610db2565b949392919061200f565b610b1a610b0a610da8565b82610b13611569565b919061207b565b50565b610b286105d0610da8565b82818114610b62576040517f6582533600000000000000000000000000000000000000000000000000000000815260040160405180910390fd5b60005b81811015610bd457610bcc848483818110610b8257610b82612dd7565b90506020020135878784818110610b9b57610b9b612dd7565b9050602002016020810190610bb09190612ace565b73ffffffffffffffffffffffffffffffffffffffff169061218f565b600101610b65565b505050505050565b60008061047760017fca9d3e17f264b0f3984e2634e94adb37fa3e6a8103f06aeae6fa59e21c769f5e612e28565b60007c01000000000000000000000000000000000000000000000000000000007fffffffff00000000000000000000000000000000000000000000000000000000831601610c5a57506000610477565b7ffe003659000000000000000000000000000000000000000000000000000000007fffffffff00000000000000000000000000000000000000000000000000000000831601610cab57506001610477565b507fffffffff00000000000000000000000000000000000000000000000000000000166000908152602091909152604090205460ff1690565b60008061047760017f335df4119bbb04f056b33eba33b826d3529129e458faf6daa9924b5a8f3b6a82612e28565b6060816000018054610d2390612e62565b80601f0160208091040260200160405190810160405280929190818152602001828054610d4f90612e62565b8015610d9c5780601f10610d7157610100808354040283529160200191610d9c565b820191906000526020600020905b815481529060010190602001808311610d7f57829003601f168201915b50505050509050919050565b600061048f612265565b60008061047760017f1da92899d3da68bf9787824388a37ea2bfa79780bcef91b9716c390eec8ecbef612e28565b73ffffffffffffffffffffffffffffffffffffffff8216610e45576040517ff7e1ac0f00000000000000000000000000000000000000000000000000000000815273ffffffffffffffffffffffffffffffffffffffff84166004820152602401610922565b73ffffffffffffffffffffffffffffffffffffffff838116600081815260018701602090815260408083209487168084529482529182902085905590518481527f8c5be1e5ebec7d5bd14f71427d1e84f3dd0314c0f7b2291e5b200ac8c7c3b92591015b60405180910390a350505050565b8373ffffffffffffffffffffffffffffffffffffffff168373ffffffffffffffffffffffffffffffffffffffff1614610ef657610ef685848684611a2a565b610f0285848484611b62565b5050505050565b36600061051e6123b2565b6000467f8b73c3c69bb8fe3d512ecc4cf759cc79239f7b179b0ffacaa9a75d522b39400f610f4361048a610ce4565b80516020918201206040805192830193909352918101919091527fc89efdaa54c0f20c7adf612882df0950f5a951637e0307cdcb4c672f298b8bc66060820152608081018290523060a082015260c0016040516020818303038152906040528051906020012091505090565b73ffffffffffffffffffffffffffffffffffffffff8216611014576040517ff7e1ac0f00000000000000000000000000000000000000000000000000000000815273ffffffffffffffffffffffffffffffffffffffff84166004820152602401610922565b73ffffffffffffffffffffffffffffffffffffffff808416600090815260018601602090815260408083209386168352929052205481156110f3578082018181116110b9576040517f93bc2ff100000000000000000000000000000000000000000000000000000000815273ffffffffffffffffffffffffffffffffffffffff8087166004830152851660248201526044810183905260648101849052608401610922565b73ffffffffffffffffffffffffffffffffffffffff8086166000908152600188016020908152604080832093881683529290522081905590505b8273ffffffffffffffffffffffffffffffffffffffff168473ffffffffffffffffffffffffffffffffffffffff167f8c5be1e5ebec7d5bd14f71427d1e84f3dd0314c0f7b2291e5b200ac8c7c3b9258360405161115291815260200190565b60405180910390a35050505050565b60008061047760017ff41bf6a5db26bffdfab174dcf66b31fbba8fdb7e3db040721ce1e62d61839ceb612e28565b828181146111c9576040517f6582533600000000000000000000000000000000000000000000000000000000815260040160405180910390fd5b806000036111d75750610a65565b73ffffffffffffffffffffffffffffffffffffffff86166000908152602089905260408120549080805b8481101561151c57600089898381811061121d5761121d612dd7565b90506020020160208101906112329190612ace565b905073ffffffffffffffffffffffffffffffffffffffff8116611299576040517f754f425b00000000000000000000000000000000000000000000000000000000815273ffffffffffffffffffffffffffffffffffffffff8c166004820152602401610922565b60008888848181106112ad576112ad612dd7565b905060200201359050806000146113eb578481018581116112fa576040517fdedd834100000000000000000000000000000000000000000000000000000000815260040160405180910390fd5b8095508273ffffffffffffffffffffffffffffffffffffffff168d73ffffffffffffffffffffffffffffffffffffffff161461138457818f60000160008573ffffffffffffffffffffffffffffffffffffffff1673ffffffffffffffffffffffffffffffffffffffff168152602001908152602001600020600082825401925050819055506113e9565b868211156113e4576040517fe450d38c00000000000000000000000000000000000000000000000000000000815273ffffffffffffffffffffffffffffffffffffffff8e1660048201526024810188905260448101839052606401610922565b938101935b505b8173ffffffffffffffffffffffffffffffffffffffff168c73ffffffffffffffffffffffffffffffffffffffff167fddf252ad1be2c89b69c2b068fc378daa952ba7f163c4a11628f55a4df523b3ef8360405161144a91815260200190565b60405180910390a384158015906114615750838514155b15611512578486038681106114c8576040517fe450d38c00000000000000000000000000000000000000000000000000000000815273ffffffffffffffffffffffffffffffffffffffff8e1660048201526024810188905260448101879052606401610922565b8481018f60000160008f73ffffffffffffffffffffffffffffffffffffffff1673ffffffffffffffffffffffffffffffffffffffff16815260200190815260200160002081905550505b5050600101611201565b508973ffffffffffffffffffffffffffffffffffffffff168973ffffffffffffffffffffffffffffffffffffffff161461155c5761155c8b8a8c85611a2a565b5050505050505050505050565b60008061047760017fc9ed16f33ab3a66c84bfd83099ccb2a8845871e2e1c1928f63797152f0fd54cd612e28565b815473ffffffffffffffffffffffffffffffffffffffff828116911614610ad8576040517f2ef4875e00000000000000000000000000000000000000000000000000000000815273ffffffffffffffffffffffffffffffffffffffff82166004820152602401610922565b6040805173ffffffffffffffffffffffffffffffffffffffff8416602482015260448082018490528251808303909101815260649091019091526020810180517bffffffffffffffffffffffffffffffffffffffffffffffffffffffff167fa9059cbb0000000000000000000000000000000000000000000000000000000017905261168f908490612522565b505050565b60008061047760017f93fe0ff7226b064a4a8f0b09910762afb4bc2441835792c021ffd78cd513011e612e28565b828181146116fc576040517f6582533600000000000000000000000000000000000000000000000000000000815260040160405180910390fd5b8060000361170a5750610bd4565b73ffffffffffffffffffffffffffffffffffffffff86166000908152602088905260408120549080805b8481101561196b57600089898381811061175057611750612dd7565b90506020020160208101906117659190612ace565b905073ffffffffffffffffffffffffffffffffffffffff81166117cc576040517f754f425b00000000000000000000000000000000000000000000000000000000815273ffffffffffffffffffffffffffffffffffffffff8c166004820152602401610922565b60008888848181106117e0576117e0612dd7565b905060200201359050806000146118fa5784810185811161182d576040517fdedd834100000000000000000000000000000000000000000000000000000000815260040160405180910390fd5b8095508273ffffffffffffffffffffffffffffffffffffffff168d73ffffffffffffffffffffffffffffffffffffffff16146118935773ffffffffffffffffffffffffffffffffffffffff8316600090815260208f9052604090208054830190556118f8565b868211156118f3576040517fe450d38c00000000000000000000000000000000000000000000000000000000815273ffffffffffffffffffffffffffffffffffffffff8e1660048201526024810188905260448101839052606401610922565b938101935b505b8173ffffffffffffffffffffffffffffffffffffffff168c73ffffffffffffffffffffffffffffffffffffffff167fddf252ad1be2c89b69c2b068fc378daa952ba7f163c4a11628f55a4df523b3ef8360405161195991815260200190565b60405180910390a35050600101611734565b50811580159061197b5750808214155b15611a0d578183038381106119e2576040517fe450d38c00000000000000000000000000000000000000000000000000000000815273ffffffffffffffffffffffffffffffffffffffff8b1660048201526024810185905260448101849052606401610922565b73ffffffffffffffffffffffffffffffffffffffff8a16600090815260208c90526040902090820190555b50505050505050505050565b6060816001018054610d2390612e62565b73ffffffffffffffffffffffffffffffffffffffff8216611a8f576040517ff7e1ac0f00000000000000000000000000000000000000000000000000000000815273ffffffffffffffffffffffffffffffffffffffff84166004820152602401610922565b73ffffffffffffffffffffffffffffffffffffffff80841660009081526001860160209081526040808320938616835292905220547fffffffffffffffffffffffffffffffffffffffffffffffffffffffffffffffff8114801590611af357508115155b156110f3578181038181106110b9576040517f137ad6ab00000000000000000000000000000000000000000000000000000000815273ffffffffffffffffffffffffffffffffffffffff8087166004830152851660248201526044810183905260648101849052608401610922565b73ffffffffffffffffffffffffffffffffffffffff8216611bc7576040517f754f425b00000000000000000000000000000000000000000000000000000000815273ffffffffffffffffffffffffffffffffffffffff84166004820152602401610922565b8015611cc25773ffffffffffffffffffffffffffffffffffffffff8316600090815260208590526040902054818103818110611c55576040517fe450d38c00000000000000000000000000000000000000000000000000000000815273ffffffffffffffffffffffffffffffffffffffff861660048201526024810183905260448101849052606401610922565b8373ffffffffffffffffffffffffffffffffffffffff168573ffffffffffffffffffffffffffffffffffffffff1614611cbf5773ffffffffffffffffffffffffffffffffffffffff8086166000908152602088905260408082208490559186168152208054840190555b50505b8173ffffffffffffffffffffffffffffffffffffffff168373ffffffffffffffffffffffffffffffffffffffff167fddf252ad1be2c89b69c2b068fc378daa952ba7f163c4a11628f55a4df523b3ef83604051610ea991815260200190565b611d2e8787878787610eb7565b73ffffffffffffffffffffffffffffffffffffffff84163b15610a6557610a658686868686868080601f0160208091040260200160405190810160405280939291908181526020018383808284376000920191909152506125b892505050565b73ffffffffffffffffffffffffffffffffffffffff8716611ddb576040517fa974697600000000000000000000000000000000000000000000000000000000815260040160405180910390fd5b83421115611e18576040517fea2b6f5800000000000000000000000000000000000000000000000000000000815260048101859052602401610922565b73ffffffffffffffffffffffffffffffffffffffff878116600081815260208b8152604080832080546001810190915581517f6e71edae12b1b97f4d1f60370fef10105fa2faae0126114a169c64845d6126c98185015280830195909552948b166060850152608084018a905260a084019490945260c08084018990528451808503909101815260e09093019093528151919092012090611eb7610f14565b6040517f19010000000000000000000000000000000000000000000000000000000000006020820152602281019190915260428101839052606201604080517fffffffffffffffffffffffffffffffffffffffffffffffffffffffffffffffe08184030181528282528051602091820120600080855291840180845281905260ff89169284019290925260608301879052608083018690529092509060019060a0016020604051602081039080840390855afa158015611f7b573d6000803e3d6000fd5b5050506020604051035190508973ffffffffffffffffffffffffffffffffffffffff168173ffffffffffffffffffffffffffffffffffffffff1614611fec576040517f822a64c800000000000000000000000000000000000000000000000000000000815260040160405180910390fd5b5050506106bf8787876104ab610db2565b82612009828483612f2c565b50505050565b61201b86868686611b62565b73ffffffffffffffffffffffffffffffffffffffff84163b15610bd457610bd48586868686868080601f0160208091040260200160405190810160405280939291908181526020018383808284376000920191909152506125b892505050565b825473ffffffffffffffffffffffffffffffffffffffff90811690831681146120e8576040517f2ef4875e00000000000000000000000000000000000000000000000000000000815273ffffffffffffffffffffffffffffffffffffffff84166004820152602401610922565b8173ffffffffffffffffffffffffffffffffffffffff168173ffffffffffffffffffffffffffffffffffffffff16146120095783547fffffffffffffffffffffffff00000000000000000000000000000000000000001673ffffffffffffffffffffffffffffffffffffffff8381169182178655604051908316907f8be0079c531659141344cd1fd0a4f28419497f9722a3daafe3b4186f6b6457e090600090a350505050565b804710156121cb576040517fcd786059000000000000000000000000000000000000000000000000000000008152306004820152602401610922565b60008273ffffffffffffffffffffffffffffffffffffffff168260405160006040518083038185875af1925050503d8060008114612225576040519150601f19603f3d011682016040523d82523d6000602084013e61222a565b606091505b505090508061168f576040517f1425ea4200000000000000000000000000000000000000000000000000000000815260040160405180910390fd5b6000333214806122755750601836105b1561227f57503390565b7fffffffffffffffffffffffffffffffffffffffffffffffffffffffffffffffec36013560601c7f000000000000000000000000000000000000000000000000000000000000000073ffffffffffffffffffffffffffffffffffffffff163314806123a157506040517f019a202800000000000000000000000000000000000000000000000000000000815273ffffffffffffffffffffffffffffffffffffffff82811660048301523360248301523060448301527f0000000000000000000000000000000000000000000000000000000000000000169063019a202890606401602060405180830381865afa15801561237d573d6000803e3d6000fd5b505050506040513d601f19601f820116820180604052508101906123a19190612e06565b156123ab57919050565b3391505090565b366000333214806123c35750601836105b156123d15750600091369150565b3373ffffffffffffffffffffffffffffffffffffffff7f000000000000000000000000000000000000000000000000000000000000000016148061250c575073ffffffffffffffffffffffffffffffffffffffff7f00000000000000000000000000000000000000000000000000000000000000001663019a2028367fffffffffffffffffffffffffffffffffffffffffffffffffffffffffffffffec013560601c6040517fffffffff0000000000000000000000000000000000000000000000000000000060e084901b16815273ffffffffffffffffffffffffffffffffffffffff9091166004820152336024820152306044820152606401602060405180830381865afa1580156124e8573d6000803e3d6000fd5b505050506040513d601f19601f8201168201806040525081019061250c9190612e06565b156125195761051e6126c6565b50600091369150565b600061254473ffffffffffffffffffffffffffffffffffffffff8416836126f7565b905080516000141580156125695750808060200190518101906125679190612e06565b155b1561168f576040517f5274afe700000000000000000000000000000000000000000000000000000000815273ffffffffffffffffffffffffffffffffffffffff84166004820152602401610922565b6040517f4fc35859000000000000000000000000000000000000000000000000000000008082529073ffffffffffffffffffffffffffffffffffffffff851690634fc3585990612612908990899088908890600401613046565b6020604051808303816000875af1158015612631573d6000803e3d6000fd5b505050506040513d601f19601f820116820180604052508101906126559190613085565b7fffffffff000000000000000000000000000000000000000000000000000000001614610f02576040517f6d44973600000000000000000000000000000000000000000000000000000000815273ffffffffffffffffffffffffffffffffffffffff84166004820152602401610922565b36600061051e7fffffffffffffffffffffffffffffffffffffffffffffffffffffffffffffffec83018284816130a2565b60606104f583836000846000808573ffffffffffffffffffffffffffffffffffffffff16848660405161272a91906130cc565b60006040518083038185875af1925050503d8060008114612767576040519150601f19603f3d011682016040523d82523d6000602084013e61276c565b606091505b509150915061277c868383612786565b9695505050505050565b60608261279b5761279682612815565b6104f5565b81511580156127bf575073ffffffffffffffffffffffffffffffffffffffff84163b155b1561280e576040517f9996b31500000000000000000000000000000000000000000000000000000000815273ffffffffffffffffffffffffffffffffffffffff85166004820152602401610922565b50806104f5565b8051156128255780518082602001fd5b6040517f1425ea4200000000000000000000000000000000000000000000000000000000815260040160405180910390fd5b7fffffffff0000000000000000000000000000000000000000000000000000000081168114610b1a57600080fd5b60006020828403121561289757600080fd5b81356104f581612857565b60005b838110156128bd5781810151838201526020016128a5565b50506000910152565b600081518084526128de8160208601602086016128a2565b601f017fffffffffffffffffffffffffffffffffffffffffffffffffffffffffffffffe0169290920160200192915050565b6020815260006104f560208301846128c6565b73ffffffffffffffffffffffffffffffffffffffff81168114610b1a57600080fd5b6000806040838503121561295857600080fd5b823561296381612923565b946020939093013593505050565b60008060006060848603121561298657600080fd5b833561299181612923565b925060208401356129a181612923565b929592945050506040919091013590565b60208152816020820152818360408301376000818301604090810191909152601f9092017fffffffffffffffffffffffffffffffffffffffffffffffffffffffffffffffe0160101919050565b60008083601f840112612a1157600080fd5b50813567ffffffffffffffff811115612a2957600080fd5b6020830191508360208260051b8501011115612a4457600080fd5b9250929050565b600080600080600060608688031215612a6357600080fd5b8535612a6e81612923565b9450602086013567ffffffffffffffff80821115612a8b57600080fd5b612a9789838a016129ff565b90965094506040880135915080821115612ab057600080fd5b50612abd888289016129ff565b969995985093965092949392505050565b600060208284031215612ae057600080fd5b81356104f581612923565b60008060008060008060608789031215612b0457600080fd5b863567ffffffffffffffff80821115612b1c57600080fd5b612b288a838b016129ff565b90985096506020890135915080821115612b4157600080fd5b612b4d8a838b016129ff565b90965094506040890135915080821115612b6657600080fd5b50612b7389828a016129ff565b979a9699509497509295939492505050565b60008060008060408587031215612b9b57600080fd5b843567ffffffffffffffff80821115612bb357600080fd5b612bbf888389016129ff565b90965094506020870135915080821115612bd857600080fd5b50612be5878288016129ff565b95989497509550505050565b60008083601f840112612c0357600080fd5b50813567ffffffffffffffff811115612c1b57600080fd5b602083019150836020828501011115612a4457600080fd5b600080600080600060808688031215612c4b57600080fd5b8535612c5681612923565b94506020860135612c6681612923565b935060408601359250606086013567ffffffffffffffff811115612c8957600080fd5b612abd88828901612bf1565b600080600080600080600060e0888a031215612cb057600080fd5b8735612cbb81612923565b96506020880135612ccb81612923565b95506040880135945060608801359350608088013560ff81168114612cef57600080fd5b9699959850939692959460a0840135945060c09093013592915050565b60008060408385031215612d1f57600080fd5b8235612d2a81612923565b91506020830135612d3a81612923565b809150509250929050565b60008060208385031215612d5857600080fd5b823567ffffffffffffffff811115612d6f57600080fd5b612d7b85828601612bf1565b90969095509350505050565b60008060008060608587031215612d9d57600080fd5b8435612da881612923565b935060208501359250604085013567ffffffffffffffff811115612dcb57600080fd5b612be587828801612bf1565b7f4e487b7100000000000000000000000000000000000000000000000000000000600052603260045260246000fd5b600060208284031215612e1857600080fd5b815180151581146104f557600080fd5b81810381811115610477577f4e487b7100000000000000000000000000000000000000000000000000000000600052601160045260246000fd5b600181811c90821680612e7657607f821691505b602082108103612eaf577f4e487b7100000000000000000000000000000000000000000000000000000000600052602260045260246000fd5b50919050565b7f4e487b7100000000000000000000000000000000000000000000000000000000600052604160045260246000fd5b601f82111561168f576000816000526020600020601f850160051c81016020861015612f0d5750805b601f850160051c820191505b81811015610bd457828155600101612f19565b67ffffffffffffffff831115612f4457612f44612eb5565b612f5883612f528354612e62565b83612ee4565b6000601f841160018114612faa5760008515612f745750838201355b7fffffffffffffffffffffffffffffffffffffffffffffffffffffffffffffffff600387901b1c1916600186901b178355610f02565b6000838152602090207fffffffffffffffffffffffffffffffffffffffffffffffffffffffffffffffe0861690835b82811015612ff95786850135825560209485019460019092019101612fd9565b5086821015613034577fffffffffffffffffffffffffffffffffffffffffffffffffffffffffffffffff60f88860031b161c19848701351681555b505060018560011b0183555050505050565b600073ffffffffffffffffffffffffffffffffffffffff80871683528086166020840152508360408301526080606083015261277c60808301846128c6565b60006020828403121561309757600080fd5b81516104f581612857565b600080858511156130b257600080fd5b838611156130bf57600080fd5b5050820193919092039150565b600082516130de8184602087016128a2565b919091019291505056fea2646970667358221220c06ff691933d55408c7286df9edab061b213ff0583574fe2ff0344fd0f3f516f64736f6c63430008190033",
  "linkReferences": {},
  "deployedLinkReferences": {}
}