{
  "_format": "hh-sol-artifact-1",
  "contractName": "ERC20FixedSupplyMock",
  "sourceName": "contracts/mocks/token/ERC20/preset/ERC20FixedSupplyMock.sol",
  "abi": [
    {
      "inputs": [
        {
          "internalType": "string",
          "name": "tokenName",
          "type": "string"
        },
        {
          "internalType": "string",
          "name": "tokenSymbol",
          "type": "string"
        },
        {
          "internalType": "uint8",
          "name": "tokenDecimals",
          "type": "uint8"
        },
        {
          "internalType": "address[]",
          "name": "holders",
          "type": "address[]"
        },
        {
          "internalType": "uint256[]",
          "name": "allocations",
          "type": "uint256[]"
        },
        {
          "internalType": "contract IForwarderRegistry",
          "name": "forwarderRegistry",
          "type": "address"
        }
      ],
      "stateMutability": "nonpayable",
      "type": "constructor"
    },
    {
      "inputs": [
        {
          "internalType": "address",
          "name": "owner",
          "type": "address"
        },
        {
          "internalType": "address",
          "name": "spender",
          "type": "address"
        },
        {
          "internalType": "uint256",
          "name": "allowance",
          "type": "uint256"
        },
        {
          "internalType": "uint256",
          "name": "increment",
          "type": "uint256"
        }
      ],
      "name": "ERC20AllowanceOverflow",
      "type": "error"
    },
    {
      "inputs": [
        {
          "internalType": "address",
          "name": "owner",
          "type": "address"
        }
      ],
      "name": "ERC20ApprovalToAddressZero",
      "type": "error"
    },
    {
      "inputs": [],
      "name": "ERC20BatchMintValuesOverflow",
      "type": "error"
    },
    {
      "inputs": [],
      "name": "ERC20BatchTransferValuesOverflow",
      "type": "error"
    },
    {
      "inputs": [
        {
          "internalType": "address",
          "name": "owner",
          "type": "address"
        },
        {
          "internalType": "address",
          "name": "spender",
          "type": "address"
        },
        {
          "internalType": "uint256",
          "name": "allowance",
          "type": "uint256"
        },
        {
          "internalType": "uint256",
          "name": "decrement",
          "type": "uint256"
        }
      ],
      "name": "ERC20InsufficientAllowance",
      "type": "error"
    },
    {
      "inputs": [
        {
          "internalType": "address",
          "name": "owner",
          "type": "address"
        },
        {
          "internalType": "uint256",
          "name": "balance",
          "type": "uint256"
        },
        {
          "internalType": "uint256",
          "name": "value",
          "type": "uint256"
        }
      ],
      "name": "ERC20InsufficientBalance",
      "type": "error"
    },
    {
      "inputs": [],
      "name": "ERC20MintToAddressZero",
      "type": "error"
    },
    {
      "inputs": [
        {
          "internalType": "uint256",
          "name": "deadline",
          "type": "uint256"
        }
      ],
      "name": "ERC20PermitExpired",
      "type": "error"
    },
    {
      "inputs": [],
      "name": "ERC20PermitFromAddressZero",
      "type": "error"
    },
    {
      "inputs": [],
      "name": "ERC20PermitInvalidSignature",
      "type": "error"
    },
    {
      "inputs": [
        {
          "internalType": "address",
          "name": "recipient",
          "type": "address"
        }
      ],
      "name": "ERC20SafeTransferRejected",
      "type": "error"
    },
    {
      "inputs": [
        {
          "internalType": "uint256",
          "name": "supply",
          "type": "uint256"
        },
        {
          "internalType": "uint256",
          "name": "value",
          "type": "uint256"
        }
      ],
      "name": "ERC20TotalSupplyOverflow",
      "type": "error"
    },
    {
      "inputs": [
        {
          "internalType": "address",
          "name": "owner",
          "type": "address"
        }
      ],
      "name": "ERC20TransferToAddressZero",
      "type": "error"
    },
    {
      "inputs": [],
      "name": "IllegalInterfaceId",
      "type": "error"
    },
    {
      "inputs": [],
      "name": "InconsistentArrayLengths",
      "type": "error"
    },
    {
      "inputs": [
        {
          "internalType": "address",
          "name": "account",
          "type": "address"
        }
      ],
      "name": "NotContractOwner",
      "type": "error"
    },
    {
      "anonymous": false,
      "inputs": [
        {
          "indexed": true,
          "internalType": "address",
          "name": "owner",
          "type": "address"
        },
        {
          "indexed": true,
          "internalType": "address",
          "name": "spender",
          "type": "address"
        },
        {
          "indexed": false,
          "internalType": "uint256",
          "name": "value",
          "type": "uint256"
        }
      ],
      "name": "Approval",
      "type": "event"
    },
    {
      "anonymous": false,
      "inputs": [
        {
          "indexed": true,
          "internalType": "address",
          "name": "previousOwner",
          "type": "address"
        },
        {
          "indexed": true,
          "internalType": "address",
          "name": "newOwner",
          "type": "address"
        }
      ],
      "name": "OwnershipTransferred",
      "type": "event"
    },
    {
      "anonymous": false,
      "inputs": [
        {
          "indexed": true,
          "internalType": "address",
          "name": "from",
          "type": "address"
        },
        {
          "indexed": true,
          "internalType": "address",
          "name": "to",
          "type": "address"
        },
        {
          "indexed": false,
          "internalType": "uint256",
          "name": "value",
          "type": "uint256"
        }
      ],
      "name": "Transfer",
      "type": "event"
    },
    {
      "inputs": [],
      "name": "DOMAIN_SEPARATOR",
      "outputs": [
        {
          "internalType": "bytes32",
          "name": "",
          "type": "bytes32"
        }
      ],
      "stateMutability": "view",
      "type": "function"
    },
    {
      "inputs": [],
      "name": "__msgData",
      "outputs": [
        {
          "internalType": "bytes",
          "name": "",
          "type": "bytes"
        }
      ],
      "stateMutability": "view",
      "type": "function"
    },
    {
      "inputs": [
        {
          "internalType": "address",
          "name": "owner",
          "type": "address"
        },
        {
          "internalType": "address",
          "name": "spender",
          "type": "address"
        }
      ],
      "name": "allowance",
      "outputs": [
        {
          "internalType": "uint256",
          "name": "value",
          "type": "uint256"
        }
      ],
      "stateMutability": "view",
      "type": "function"
    },
    {
      "inputs": [
        {
          "internalType": "address",
          "name": "spender",
          "type": "address"
        },
        {
          "internalType": "uint256",
          "name": "value",
          "type": "uint256"
        }
      ],
      "name": "approve",
      "outputs": [
        {
          "internalType": "bool",
          "name": "result",
          "type": "bool"
        }
      ],
      "stateMutability": "nonpayable",
      "type": "function"
    },
    {
      "inputs": [
        {
          "internalType": "address",
          "name": "owner",
          "type": "address"
        }
      ],
      "name": "balanceOf",
      "outputs": [
        {
          "internalType": "uint256",
          "name": "balance",
          "type": "uint256"
        }
      ],
      "stateMutability": "view",
      "type": "function"
    },
    {
      "inputs": [
        {
          "internalType": "address[]",
          "name": "recipients",
          "type": "address[]"
        },
        {
          "internalType": "uint256[]",
          "name": "values",
          "type": "uint256[]"
        }
      ],
      "name": "batchTransfer",
      "outputs": [
        {
          "internalType": "bool",
          "name": "",
          "type": "bool"
        }
      ],
      "stateMutability": "nonpayable",
      "type": "function"
    },
    {
      "inputs": [
        {
          "internalType": "address",
          "name": "from",
          "type": "address"
        },
        {
          "internalType": "address[]",
          "name": "recipients",
          "type": "address[]"
        },
        {
          "internalType": "uint256[]",
          "name": "values",
          "type": "uint256[]"
        }
      ],
      "name": "batchTransferFrom",
      "outputs": [
        {
          "internalType": "bool",
          "name": "",
          "type": "bool"
        }
      ],
      "stateMutability": "nonpayable",
      "type": "function"
    },
    {
      "inputs": [],
      "name": "decimals",
      "outputs": [
        {
          "internalType": "uint8",
          "name": "",
          "type": "uint8"
        }
      ],
      "stateMutability": "view",
      "type": "function"
    },
    {
      "inputs": [
        {
          "internalType": "address",
          "name": "spender",
          "type": "address"
        },
        {
          "internalType": "uint256",
          "name": "subtractedValue",
          "type": "uint256"
        }
      ],
      "name": "decreaseAllowance",
      "outputs": [
        {
          "internalType": "bool",
          "name": "result",
          "type": "bool"
        }
      ],
      "stateMutability": "nonpayable",
      "type": "function"
    },
    {
      "inputs": [],
      "name": "forwarderRegistry",
      "outputs": [
        {
          "internalType": "contract IForwarderRegistry",
          "name": "",
          "type": "address"
        }
      ],
      "stateMutability": "view",
      "type": "function"
    },
    {
      "inputs": [
        {
          "internalType": "address",
          "name": "spender",
          "type": "address"
        },
        {
          "internalType": "uint256",
          "name": "addedValue",
          "type": "uint256"
        }
      ],
      "name": "increaseAllowance",
      "outputs": [
        {
          "internalType": "bool",
          "name": "result",
          "type": "bool"
        }
      ],
      "stateMutability": "nonpayable",
      "type": "function"
    },
    {
      "inputs": [
        {
          "internalType": "address",
          "name": "forwarder",
          "type": "address"
        }
      ],
      "name": "isTrustedForwarder",
      "outputs": [
        {
          "internalType": "bool",
          "name": "",
          "type": "bool"
        }
      ],
      "stateMutability": "view",
      "type": "function"
    },
    {
      "inputs": [],
      "name": "name",
      "outputs": [
        {
          "internalType": "string",
          "name": "",
          "type": "string"
        }
      ],
      "stateMutability": "view",
      "type": "function"
    },
    {
      "inputs": [
        {
          "internalType": "address",
          "name": "owner",
          "type": "address"
        }
      ],
      "name": "nonces",
      "outputs": [
        {
          "internalType": "uint256",
          "name": "",
          "type": "uint256"
        }
      ],
      "stateMutability": "view",
      "type": "function"
    },
    {
      "inputs": [],
      "name": "owner",
      "outputs": [
        {
          "internalType": "address",
          "name": "",
          "type": "address"
        }
      ],
      "stateMutability": "view",
      "type": "function"
    },
    {
      "inputs": [
        {
          "internalType": "address",
          "name": "owner",
          "type": "address"
        },
        {
          "internalType": "address",
          "name": "spender",
          "type": "address"
        },
        {
          "internalType": "uint256",
          "name": "value",
          "type": "uint256"
        },
        {
          "internalType": "uint256",
          "name": "deadline",
          "type": "uint256"
        },
        {
          "internalType": "uint8",
          "name": "v",
          "type": "uint8"
        },
        {
          "internalType": "bytes32",
          "name": "r",
          "type": "bytes32"
        },
        {
          "internalType": "bytes32",
          "name": "s",
          "type": "bytes32"
        }
      ],
      "name": "permit",
      "outputs": [],
      "stateMutability": "nonpayable",
      "type": "function"
    },
    {
      "inputs": [
        {
          "internalType": "address[]",
          "name": "accounts",
          "type": "address[]"
        },
        {
          "internalType": "contract IERC20[]",
          "name": "tokens",
          "type": "address[]"
        },
        {
          "internalType": "uint256[]",
          "name": "amounts",
          "type": "uint256[]"
        }
      ],
      "name": "recoverERC20s",
      "outputs": [],
      "stateMutability": "nonpayable",
      "type": "function"
    },
    {
      "inputs": [
        {
          "internalType": "address[]",
          "name": "accounts",
          "type": "address[]"
        },
        {
          "internalType": "contract IERC721[]",
          "name": "contracts",
          "type": "address[]"
        },
        {
          "internalType": "uint256[]",
          "name": "tokenIds",
          "type": "uint256[]"
        }
      ],
      "name": "recoverERC721s",
      "outputs": [],
      "stateMutability": "nonpayable",
      "type": "function"
    },
    {
      "inputs": [
        {
          "internalType": "address payable[]",
          "name": "accounts",
          "type": "address[]"
        },
        {
          "internalType": "uint256[]",
          "name": "amounts",
          "type": "uint256[]"
        }
      ],
      "name": "recoverETH",
      "outputs": [],
      "stateMutability": "nonpayable",
      "type": "function"
    },
    {
      "inputs": [
        {
          "internalType": "address",
          "name": "to",
          "type": "address"
        },
        {
          "internalType": "uint256",
          "name": "value",
          "type": "uint256"
        },
        {
          "internalType": "bytes",
          "name": "data",
          "type": "bytes"
        }
      ],
      "name": "safeTransfer",
      "outputs": [
        {
          "internalType": "bool",
          "name": "",
          "type": "bool"
        }
      ],
      "stateMutability": "nonpayable",
      "type": "function"
    },
    {
      "inputs": [
        {
          "internalType": "address",
          "name": "from",
          "type": "address"
        },
        {
          "internalType": "address",
          "name": "to",
          "type": "address"
        },
        {
          "internalType": "uint256",
          "name": "value",
          "type": "uint256"
        },
        {
          "internalType": "bytes",
          "name": "data",
          "type": "bytes"
        }
      ],
      "name": "safeTransferFrom",
      "outputs": [
        {
          "internalType": "bool",
          "name": "",
          "type": "bool"
        }
      ],
      "stateMutability": "nonpayable",
      "type": "function"
    },
    {
      "inputs": [
        {
          "internalType": "string",
          "name": "uri",
          "type": "string"
        }
      ],
      "name": "setTokenURI",
      "outputs": [],
      "stateMutability": "nonpayable",
      "type": "function"
    },
    {
      "inputs": [
        {
          "internalType": "bytes4",
          "name": "interfaceId",
          "type": "bytes4"
        }
      ],
      "name": "supportsInterface",
      "outputs": [
        {
          "internalType": "bool",
          "name": "",
          "type": "bool"
        }
      ],
      "stateMutability": "view",
      "type": "function"
    },
    {
      "inputs": [],
      "name": "symbol",
      "outputs": [
        {
          "internalType": "string",
          "name": "",
          "type": "string"
        }
      ],
      "stateMutability": "view",
      "type": "function"
    },
    {
      "inputs": [],
      "name": "tokenURI",
      "outputs": [
        {
          "internalType": "string",
          "name": "",
          "type": "string"
        }
      ],
      "stateMutability": "view",
      "type": "function"
    },
    {
      "inputs": [],
      "name": "totalSupply",
      "outputs": [
        {
          "internalType": "uint256",
          "name": "supply",
          "type": "uint256"
        }
      ],
      "stateMutability": "view",
      "type": "function"
    },
    {
      "inputs": [
        {
          "internalType": "address",
          "name": "to",
          "type": "address"
        },
        {
          "internalType": "uint256",
          "name": "value",
          "type": "uint256"
        }
      ],
      "name": "transfer",
      "outputs": [
        {
          "internalType": "bool",
          "name": "result",
          "type": "bool"
        }
      ],
      "stateMutability": "nonpayable",
      "type": "function"
    },
    {
      "inputs": [
        {
          "internalType": "address",
          "name": "from",
          "type": "address"
        },
        {
          "internalType": "address",
          "name": "to",
          "type": "address"
        },
        {
          "internalType": "uint256",
          "name": "value",
          "type": "uint256"
        }
      ],
      "name": "transferFrom",
      "outputs": [
        {
          "internalType": "bool",
          "name": "result",
          "type": "bool"
        }
      ],
      "stateMutability": "nonpayable",
      "type": "function"
    },
    {
      "inputs": [
        {
          "internalType": "address",
          "name": "newOwner",
          "type": "address"
        }
      ],
      "name": "transferOwnership",
      "outputs": [],
      "stateMutability": "nonpayable",
      "type": "function"
    }
  ],
  "bytecode": "0x60a060405234801562000010575f80fd5b50604051620039ba380380620039ba8339810160408190526200003391620006fe565b85858585858580803388888862000049620000e2565b620000638383836200005a6200011c565b92919062000151565b50505062000082816200007b620001a760201b60201c565b90620001d6565b506200008d62000248565b6200009762000262565b620000a16200027a565b620000ab62000292565b6001600160a01b031660805250620000d08383620000c8620002aa565b9190620002d9565b5050505050505050505050506200095b565b5f620000ed6200046d565b905062000104816336372b0760e01b60016200049c565b6200011981634e83a8c360e11b60016200049c565b50565b5f806200014b60017f335df4119bbb04f056b33eba33b826d3529129e458faf6daa9924b5a8f3b6a82620007d3565b92915050565b836200015e84826200087f565b50600184016200016f83826200087f565b5060028401805460ff191660ff8316179055620001a163a219a02560e01b6001620001996200046d565b91906200049c565b50505050565b5f806200014b60017fc9ed16f33ab3a66c84bfd83099ccb2a8845871e2e1c1928f63797152f0fd54cd620007d3565b6001600160a01b038116156200022c5781546001600160a01b0319166001600160a01b03821690811783556040515f907f8be0079c531659141344cd1fd0a4f28419497f9722a3daafe3b4186f6b6457e0908290a35b620002446307f5828d60e41b6001620001996200046d565b5050565b620002606303c130d960e41b6001620001996200046d565b565b62000260634ec7fbed60e11b6001620001996200046d565b620002606353f41a9760e01b6001620001996200046d565b6200026063602993f360e11b6001620001996200046d565b5f806200014b60017f1da92899d3da68bf9787824388a37ea2bfa79780bcef91b9716c390eec8ecbef620007d3565b815181518114620002fd576040516332c1299b60e11b815260040160405180910390fd5b805f036200030b5750505050565b5f805b82811462000420575f8582815181106200032c576200032c62000947565b602002602001015190505f6001600160a01b0316816001600160a01b03160362000369576040516392fd9c8f60e01b815260040160405180910390fd5b5f8583815181106200037f576200037f62000947565b60200260200101519050805f14620003d557838101848111620003b557604051631550ab9f60e21b815260040160405180910390fd5b6001600160a01b0383165f90815260208a90526040902080548301905593505b6040518181526001600160a01b038316905f907fddf252ad1be2c89b69c2b068fc378daa952ba7f163c4a11628f55a4df523b3ef9060200160405180910390a350506001016200030e565b508015620004665760028501548181018181116200045f576040516301b352fb60e11b8152600481018390526024810184905260440160405180910390fd5b6002870155505b5050505050565b5f806200014b60017fca9d3e17f264b0f3984e2634e94adb37fa3e6a8103f06aeae6fa59e21c769f5e620007d3565b600160e01b6001600160e01b0319831601620004cb576040516372c683bb60e01b815260040160405180910390fd5b6001600160e01b0319919091165f9081526020929092526040909120805460ff1916911515919091179055565b634e487b7160e01b5f52604160045260245ffd5b604051601f8201601f191681016001600160401b0381118282101715620005375762000537620004f8565b604052919050565b5f82601f8301126200054f575f80fd5b81516001600160401b038111156200056b576200056b620004f8565b602062000581601f8301601f191682016200050c565b828152858284870101111562000595575f80fd5b5f5b83811015620005b457858101830151828201840152820162000597565b505f928101909101919091529392505050565b805160ff81168114620005d8575f80fd5b919050565b5f6001600160401b03821115620005f857620005f8620004f8565b5060051b60200190565b6001600160a01b038116811462000119575f80fd5b5f82601f83011262000627575f80fd5b81516020620006406200063a83620005dd565b6200050c565b82815260059290921b840181019181810190868411156200065f575f80fd5b8286015b8481101562000687578051620006798162000602565b835291830191830162000663565b509695505050505050565b5f82601f830112620006a2575f80fd5b81516020620006b56200063a83620005dd565b82815260059290921b84018101918181019086841115620006d4575f80fd5b8286015b84811015620006875780518352918301918301620006d8565b8051620005d88162000602565b5f805f805f8060c0878903121562000714575f80fd5b86516001600160401b03808211156200072b575f80fd5b620007398a838b016200053f565b975060208901519150808211156200074f575f80fd5b6200075d8a838b016200053f565b96506200076d60408a01620005c7565b9550606089015191508082111562000783575f80fd5b620007918a838b0162000617565b94506080890151915080821115620007a7575f80fd5b50620007b689828a0162000692565b925050620007c760a08801620006f1565b90509295509295509295565b818103818111156200014b57634e487b7160e01b5f52601160045260245ffd5b600181811c908216806200080857607f821691505b6020821081036200082757634e487b7160e01b5f52602260045260245ffd5b50919050565b601f8211156200087a575f81815260208120601f850160051c81016020861015620008555750805b601f850160051c820191505b81811015620008765782815560010162000861565b5050505b505050565b81516001600160401b038111156200089b576200089b620004f8565b620008b381620008ac8454620007f3565b846200082d565b602080601f831160018114620008e9575f8415620008d15750858301515b5f19600386901b1c1916600185901b17855562000876565b5f85815260208120601f198616915b828110156200091957888601518255948401946001909101908401620008f8565b50858210156200093757878501515f19600388901b60f8161c191681555b5050505050600190811b01905550565b634e487b7160e01b5f52603260045260245ffd5b608051613023620009975f395f8181610245015281816103000152818161218e01528181612216015281816122c5015261230301526130235ff3fe608060405234801561000f575f80fd5b50600436106101c6575f3560e01c806373c8a958116100fe578063b88d4fde1161009e578063e0df5b6f1161006e578063e0df5b6f1461040d578063eb79554914610420578063f2fde38b14610433578063f7ba94bd14610446575f80fd5b8063b88d4fde146103c1578063c3666c36146103d4578063d505accf146103e7578063dd62ed3e146103fa575f80fd5b80638da5cb5b116100d95780638da5cb5b1461038b57806395d89b4114610393578063a457c2d71461039b578063a9059cbb146103ae575f80fd5b806373c8a958146103505780637ecebe001461036557806388d695b214610378575f80fd5b806331e66e1e116101695780633c130d90116101445780633c130d90146102d55780634885b254146102dd578063572b6c05146102f057806370a082311461033d575f80fd5b806331e66e1e146102a45780633644e515146102ba57806339509351146102c2575f80fd5b806318160ddd116101a457806318160ddd1461021a57806323b872dd146102305780632b4c9f1614610243578063313ce5671461028a575f80fd5b806301ffc9a7146101ca57806306fdde03146101f2578063095ea7b314610207575b5f80fd5b6101dd6101d83660046127d5565b610459565b60405190151581526020015b60405180910390f35b6101fa610472565b6040516101e9919061285b565b6101dd61021536600461288e565b610489565b6102226104b0565b6040519081526020016101e9565b6101dd61023e3660046128b8565b6104c3565b7f00000000000000000000000000000000000000000000000000000000000000005b60405173ffffffffffffffffffffffffffffffffffffffff90911681526020016101e9565b6102926104ed565b60405160ff90911681526020016101e9565b6102ac610503565b6040516101e99291906128f6565b610222610515565b6101dd6102d036600461288e565b61051e565b6101fa61053c565b6101dd6102eb36600461298a565b610549565b6101dd6102fe366004612a07565b7f000000000000000000000000000000000000000000000000000000000000000073ffffffffffffffffffffffffffffffffffffffff90811691161490565b61022261034b366004612a07565b610579565b61036361035e366004612a22565b6105af565b005b610222610373366004612a07565b6106b1565b6101dd610386366004612ab5565b6106be565b6102656106ec565b6101fa610712565b6101dd6103a936600461288e565b610724565b6101dd6103bc36600461288e565b610742565b6101dd6103cf366004612b5a565b610760565b6103636103e2366004612a22565b610784565b6103636103f5366004612bb7565b6108f5565b610222610408366004612c28565b61091c565b61036361041b366004612c5f565b61096c565b6101dd61042e366004612c9e565b61098f565b610363610441366004612a07565b6109b1565b610363610454366004612ab5565b6109cf565b5f61046c82610466610a8c565b90610ab9565b92915050565b606061048461047f610b90565b610bbd565b905090565b5f6104a7610495610c50565b848461049f610c59565b929190610c86565b50600192915050565b5f6104846104bc610c59565b6002015490565b5f6104e36104cf610c50565b8585856104da610c59565b93929190610d61565b5060019392505050565b5f6104846104f9610b90565b6002015460ff1690565b365f61050d610db3565b915091509091565b5f610484610dbd565b5f6104a761052a610c50565b8484610534610c59565b929190610e57565b606061048461047f611007565b5f61056d610555610c50565b8787878787610562610c59565b959493929190611034565b50600195945050505050565b5f61046c82610586610c59565b9073ffffffffffffffffffffffffffffffffffffffff165f908152602091909152604090205490565b6105c86105ba610c50565b6105c26113e4565b90611411565b8483811415806105d85750808214155b1561060f576040517f6582533600000000000000000000000000000000000000000000000000000000815260040160405180910390fd5b5f5b8181146106a75761069f88888381811061062d5761062d612cea565b90506020020160208101906106429190612a07565b85858481811061065457610654612cea565b9050602002013588888581811061066d5761066d612cea565b90506020020160208101906106829190612a07565b73ffffffffffffffffffffffffffffffffffffffff16919061147c565b600101610611565b5050505050505050565b5f61046c8261058661150e565b5f6106e06106ca610c50565b868686866106d6610c59565b949392919061153b565b5060015b949350505050565b5f6104846106f86113e4565b5473ffffffffffffffffffffffffffffffffffffffff1690565b606061048461071f610b90565b61188a565b5f6104a7610730610c50565b848461073a610c59565b92919061189b565b5f6104a761074e610c50565b8484610758610c59565b9291906119d2565b5f61056d61076c610c50565b8787878787610779610c59565b959493929190611b8f565b61078f6105ba610c50565b84838114158061079f5750808214155b156107d6576040517f6582533600000000000000000000000000000000000000000000000000000000815260040160405180910390fd5b5f5b8181146106a7578585828181106107f1576107f1612cea565b90506020020160208101906108069190612a07565b73ffffffffffffffffffffffffffffffffffffffff166323b872dd308a8a8581811061083457610834612cea565b90506020020160208101906108499190612a07565b87878681811061085b5761085b612cea565b6040517fffffffff0000000000000000000000000000000000000000000000000000000060e088901b16815273ffffffffffffffffffffffffffffffffffffffff9586166004820152949093166024850152506020909102013560448201526064015f604051808303815f87803b1580156108d4575f80fd5b505af11580156108e6573d5f803e3d5ffd5b505050508060010190506107d8565b6109138787878787878761090761150e565b96959493929190611bfb565b50505050505050565b5f610965838361092a610c59565b919073ffffffffffffffffffffffffffffffffffffffff9182165f908152600193909301602090815260408085209290931684525290205490565b9392505050565b6109776105ba610c50565b61098b8282610984611007565b9190611e66565b5050565b5f6106e061099b610c50565b868686866109a7610c59565b9493929190611e78565b6109cc6109bc610c50565b826109c56113e4565b9190611ee3565b50565b6109da6105ba610c50565b82818114610a14576040517f6582533600000000000000000000000000000000000000000000000000000000815260040160405180910390fd5b5f5b818114610a8457610a7c848483818110610a3257610a32612cea565b90506020020135878784818110610a4b57610a4b612cea565b9050602002016020810190610a609190612a07565b73ffffffffffffffffffffffffffffffffffffffff1690611ff6565b600101610a16565b505050505050565b5f8061046c60017fca9d3e17f264b0f3984e2634e94adb37fa3e6a8103f06aeae6fa59e21c769f5e612d17565b5f7c01000000000000000000000000000000000000000000000000000000007fffffffff00000000000000000000000000000000000000000000000000000000831601610b0757505f61046c565b7ffe003659000000000000000000000000000000000000000000000000000000007fffffffff00000000000000000000000000000000000000000000000000000000831601610b585750600161046c565b507fffffffff00000000000000000000000000000000000000000000000000000000165f908152602091909152604090205460ff1690565b5f8061046c60017f335df4119bbb04f056b33eba33b826d3529129e458faf6daa9924b5a8f3b6a82612d17565b6060815f018054610bcd90612d4f565b80601f0160208091040260200160405190810160405280929190818152602001828054610bf990612d4f565b8015610c445780601f10610c1b57610100808354040283529160200191610c44565b820191905f5260205f20905b815481529060010190602001808311610c2757829003601f168201915b50505050509050919050565b5f61048461214c565b5f8061046c60017f1da92899d3da68bf9787824388a37ea2bfa79780bcef91b9716c390eec8ecbef612d17565b73ffffffffffffffffffffffffffffffffffffffff8216610cf0576040517ff7e1ac0f00000000000000000000000000000000000000000000000000000000815273ffffffffffffffffffffffffffffffffffffffff841660048201526024015b60405180910390fd5b73ffffffffffffffffffffffffffffffffffffffff8381165f81815260018701602090815260408083209487168084529482529182902085905590518481527f8c5be1e5ebec7d5bd14f71427d1e84f3dd0314c0f7b2291e5b200ac8c7c3b92591015b60405180910390a350505050565b8373ffffffffffffffffffffffffffffffffffffffff168373ffffffffffffffffffffffffffffffffffffffff1614610da057610da08584868461189b565b610dac858484846119d2565b5050505050565b365f61050d612290565b5f467f8b73c3c69bb8fe3d512ecc4cf759cc79239f7b179b0ffacaa9a75d522b39400f610deb61047f610b90565b80516020918201206040805192830193909352918101919091527fc89efdaa54c0f20c7adf612882df0950f5a951637e0307cdcb4c672f298b8bc66060820152608081018290523060a082015260c0016040516020818303038152906040528051906020012091505090565b73ffffffffffffffffffffffffffffffffffffffff8216610ebc576040517ff7e1ac0f00000000000000000000000000000000000000000000000000000000815273ffffffffffffffffffffffffffffffffffffffff84166004820152602401610ce7565b73ffffffffffffffffffffffffffffffffffffffff8084165f9081526001860160209081526040808320938616835292905220548115610f9957808201818111610f60576040517f93bc2ff100000000000000000000000000000000000000000000000000000000815273ffffffffffffffffffffffffffffffffffffffff8087166004830152851660248201526044810183905260648101849052608401610ce7565b73ffffffffffffffffffffffffffffffffffffffff8086165f908152600188016020908152604080832093881683529290522081905590505b8273ffffffffffffffffffffffffffffffffffffffff168473ffffffffffffffffffffffffffffffffffffffff167f8c5be1e5ebec7d5bd14f71427d1e84f3dd0314c0f7b2291e5b200ac8c7c3b92583604051610ff891815260200190565b60405180910390a35050505050565b5f8061046c60017ff41bf6a5db26bffdfab174dcf66b31fbba8fdb7e3db040721ce1e62d61839ceb612d17565b8281811461106e576040517f6582533600000000000000000000000000000000000000000000000000000000815260040160405180910390fd5b805f0361107b5750610913565b73ffffffffffffffffffffffffffffffffffffffff86165f908152602089905260408120549080805b8481146112f7575f8989838181106110be576110be612cea565b90506020020160208101906110d39190612a07565b905073ffffffffffffffffffffffffffffffffffffffff811661113a576040517f754f425b00000000000000000000000000000000000000000000000000000000815273ffffffffffffffffffffffffffffffffffffffff8c166004820152602401610ce7565b5f88888481811061114d5761114d612cea565b905060200201359050805f1461128657848101858111611199576040517fdedd834100000000000000000000000000000000000000000000000000000000815260040160405180910390fd5b8095508273ffffffffffffffffffffffffffffffffffffffff168d73ffffffffffffffffffffffffffffffffffffffff161461121f57818f5f015f8573ffffffffffffffffffffffffffffffffffffffff1673ffffffffffffffffffffffffffffffffffffffff1681526020019081526020015f205f8282540192505081905550611284565b8682111561127f576040517fe450d38c00000000000000000000000000000000000000000000000000000000815273ffffffffffffffffffffffffffffffffffffffff8e1660048201526024810188905260448101839052606401610ce7565b938101935b505b8173ffffffffffffffffffffffffffffffffffffffff168c73ffffffffffffffffffffffffffffffffffffffff167fddf252ad1be2c89b69c2b068fc378daa952ba7f163c4a11628f55a4df523b3ef836040516112e591815260200190565b60405180910390a350506001016110a4565b5081158015906113075750808214155b156113985781830383811061136e576040517fe450d38c00000000000000000000000000000000000000000000000000000000815273ffffffffffffffffffffffffffffffffffffffff8b1660048201526024810185905260448101849052606401610ce7565b73ffffffffffffffffffffffffffffffffffffffff8a165f90815260208d90526040902090820190555b8973ffffffffffffffffffffffffffffffffffffffff168973ffffffffffffffffffffffffffffffffffffffff16146113d7576113d78b8a8c8561189b565b5050505050505050505050565b5f8061046c60017fc9ed16f33ab3a66c84bfd83099ccb2a8845871e2e1c1928f63797152f0fd54cd612d17565b815473ffffffffffffffffffffffffffffffffffffffff82811691161461098b576040517f2ef4875e00000000000000000000000000000000000000000000000000000000815273ffffffffffffffffffffffffffffffffffffffff82166004820152602401610ce7565b6040805173ffffffffffffffffffffffffffffffffffffffff8416602482015260448082018490528251808303909101815260649091019091526020810180517bffffffffffffffffffffffffffffffffffffffffffffffffffffffff167fa9059cbb000000000000000000000000000000000000000000000000000000001790526115099084906123f5565b505050565b5f8061046c60017f93fe0ff7226b064a4a8f0b09910762afb4bc2441835792c021ffd78cd513011e612d17565b82818114611575576040517f6582533600000000000000000000000000000000000000000000000000000000815260040160405180910390fd5b805f036115825750610a84565b73ffffffffffffffffffffffffffffffffffffffff86165f908152602088905260408120549080805b8481146117dd575f8989838181106115c5576115c5612cea565b90506020020160208101906115da9190612a07565b905073ffffffffffffffffffffffffffffffffffffffff8116611641576040517f754f425b00000000000000000000000000000000000000000000000000000000815273ffffffffffffffffffffffffffffffffffffffff8c166004820152602401610ce7565b5f88888481811061165457611654612cea565b905060200201359050805f1461176c578481018581116116a0576040517fdedd834100000000000000000000000000000000000000000000000000000000815260040160405180910390fd5b8095508273ffffffffffffffffffffffffffffffffffffffff168d73ffffffffffffffffffffffffffffffffffffffff16146117055773ffffffffffffffffffffffffffffffffffffffff83165f90815260208f90526040902080548301905561176a565b86821115611765576040517fe450d38c00000000000000000000000000000000000000000000000000000000815273ffffffffffffffffffffffffffffffffffffffff8e1660048201526024810188905260448101839052606401610ce7565b938101935b505b8173ffffffffffffffffffffffffffffffffffffffff168c73ffffffffffffffffffffffffffffffffffffffff167fddf252ad1be2c89b69c2b068fc378daa952ba7f163c4a11628f55a4df523b3ef836040516117cb91815260200190565b60405180910390a350506001016115ab565b5081158015906117ed5750808214155b1561187e57818303838110611854576040517fe450d38c00000000000000000000000000000000000000000000000000000000815273ffffffffffffffffffffffffffffffffffffffff8b1660048201526024810185905260448101849052606401610ce7565b73ffffffffffffffffffffffffffffffffffffffff8a165f90815260208c90526040902090820190555b50505050505050505050565b6060816001018054610bcd90612d4f565b73ffffffffffffffffffffffffffffffffffffffff8216611900576040517ff7e1ac0f00000000000000000000000000000000000000000000000000000000815273ffffffffffffffffffffffffffffffffffffffff84166004820152602401610ce7565b73ffffffffffffffffffffffffffffffffffffffff8084165f9081526001860160209081526040808320938616835292905220547fffffffffffffffffffffffffffffffffffffffffffffffffffffffffffffffff811480159061196357508115155b15610f9957818103818110610f60576040517f137ad6ab00000000000000000000000000000000000000000000000000000000815273ffffffffffffffffffffffffffffffffffffffff8087166004830152851660248201526044810183905260648101849052608401610ce7565b73ffffffffffffffffffffffffffffffffffffffff8216611a37576040517f754f425b00000000000000000000000000000000000000000000000000000000815273ffffffffffffffffffffffffffffffffffffffff84166004820152602401610ce7565b8015611b305773ffffffffffffffffffffffffffffffffffffffff83165f90815260208590526040902054818103818110611ac4576040517fe450d38c00000000000000000000000000000000000000000000000000000000815273ffffffffffffffffffffffffffffffffffffffff861660048201526024810183905260448101849052606401610ce7565b8373ffffffffffffffffffffffffffffffffffffffff168573ffffffffffffffffffffffffffffffffffffffff1614611b2d5773ffffffffffffffffffffffffffffffffffffffff8086165f908152602088905260408082208490559186168152208054840190555b50505b8173ffffffffffffffffffffffffffffffffffffffff168373ffffffffffffffffffffffffffffffffffffffff167fddf252ad1be2c89b69c2b068fc378daa952ba7f163c4a11628f55a4df523b3ef83604051610d5391815260200190565b611b9c8787878787610d61565b73ffffffffffffffffffffffffffffffffffffffff84163b15610913576109138686868686868080601f0160208091040260200160405190810160405280939291908181526020018383808284375f9201919091525061250292505050565b73ffffffffffffffffffffffffffffffffffffffff8716611c48576040517fa974697600000000000000000000000000000000000000000000000000000000815260040160405180910390fd5b83421115611c85576040517fea2b6f5800000000000000000000000000000000000000000000000000000000815260048101859052602401610ce7565b73ffffffffffffffffffffffffffffffffffffffff8781165f81815260208b8152604080832080546001810190915581517f6e71edae12b1b97f4d1f60370fef10105fa2faae0126114a169c64845d6126c98185015280830195909552948b166060850152608084018a905260a084019490945260c08084018990528451808503909101815260e09093019093528151919092012090611d23610dbd565b6040517f19010000000000000000000000000000000000000000000000000000000000006020820152602281019190915260428101839052606201604080517fffffffffffffffffffffffffffffffffffffffffffffffffffffffffffffffe081840301815282825280516020918201205f80855291840180845281905260ff89169284019290925260608301879052608083018690529092509060019060a0016020604051602081039080840390855afa158015611de4573d5f803e3d5ffd5b5050506020604051035190508973ffffffffffffffffffffffffffffffffffffffff168173ffffffffffffffffffffffffffffffffffffffff1614611e55576040517f822a64c800000000000000000000000000000000000000000000000000000000815260040160405180910390fd5b5050506106a787878761049f610c59565b82611e72828483612e12565b50505050565b611e84868686866119d2565b73ffffffffffffffffffffffffffffffffffffffff84163b15610a8457610a848586868686868080601f0160208091040260200160405190810160405280939291908181526020018383808284375f9201919091525061250292505050565b825473ffffffffffffffffffffffffffffffffffffffff9081169083168114611f50576040517f2ef4875e00000000000000000000000000000000000000000000000000000000815273ffffffffffffffffffffffffffffffffffffffff84166004820152602401610ce7565b8173ffffffffffffffffffffffffffffffffffffffff168173ffffffffffffffffffffffffffffffffffffffff1614611e725783547fffffffffffffffffffffffff00000000000000000000000000000000000000001673ffffffffffffffffffffffffffffffffffffffff8381169182178655604051908316907f8be0079c531659141344cd1fd0a4f28419497f9722a3daafe3b4186f6b6457e0905f90a350505050565b80471015612060576040517f08c379a000000000000000000000000000000000000000000000000000000000815260206004820152601d60248201527f416464726573733a20696e73756666696369656e742062616c616e63650000006044820152606401610ce7565b5f8273ffffffffffffffffffffffffffffffffffffffff16826040515f6040518083038185875af1925050503d805f81146120b6576040519150601f19603f3d011682016040523d82523d5f602084013e6120bb565b606091505b5050905080611509576040517f08c379a000000000000000000000000000000000000000000000000000000000815260206004820152603a60248201527f416464726573733a20756e61626c6520746f2073656e642076616c75652c207260448201527f6563697069656e74206d617920686176652072657665727465640000000000006064820152608401610ce7565b5f3332148061215b5750601836105b1561216557503390565b7fffffffffffffffffffffffffffffffffffffffffffffffffffffffffffffffec36013560601c7f000000000000000000000000000000000000000000000000000000000000000073ffffffffffffffffffffffffffffffffffffffff1633148061227f57506040517f8929a8ca00000000000000000000000000000000000000000000000000000000815273ffffffffffffffffffffffffffffffffffffffff82811660048301523360248301527f00000000000000000000000000000000000000000000000000000000000000001690638929a8ca90604401602060405180830381865afa15801561225b573d5f803e3d5ffd5b505050506040513d601f19601f8201168201806040525081019061227f9190612f29565b1561228957919050565b3391505090565b365f333214806122a05750601836105b156122ad57505f91369150565b3373ffffffffffffffffffffffffffffffffffffffff7f00000000000000000000000000000000000000000000000000000000000000001614806123e0575073ffffffffffffffffffffffffffffffffffffffff7f000000000000000000000000000000000000000000000000000000000000000016638929a8ca367fffffffffffffffffffffffffffffffffffffffffffffffffffffffffffffffec013560601c6040517fffffffff0000000000000000000000000000000000000000000000000000000060e084901b16815273ffffffffffffffffffffffffffffffffffffffff9091166004820152336024820152604401602060405180830381865afa1580156123bc573d5f803e3d5ffd5b505050506040513d601f19601f820116820180604052508101906123e09190612f29565b156123ed5761050d61260d565b505f91369150565b5f612456826040518060400160405280602081526020017f5361666545524332303a206c6f772d6c6576656c2063616c6c206661696c65648152508573ffffffffffffffffffffffffffffffffffffffff1661263d9092919063ffffffff16565b905080515f14806124765750808060200190518101906124769190612f29565b611509576040517f08c379a000000000000000000000000000000000000000000000000000000000815260206004820152602a60248201527f5361666545524332303a204552433230206f7065726174696f6e20646964206e60448201527f6f742073756363656564000000000000000000000000000000000000000000006064820152608401610ce7565b6040517f4fc35859000000000000000000000000000000000000000000000000000000008082529073ffffffffffffffffffffffffffffffffffffffff851690634fc358599061255c908990899088908890600401612f48565b6020604051808303815f875af1158015612578573d5f803e3d5ffd5b505050506040513d601f19601f8201168201806040525081019061259c9190612f90565b7fffffffff000000000000000000000000000000000000000000000000000000001614610dac576040517f6d44973600000000000000000000000000000000000000000000000000000000815273ffffffffffffffffffffffffffffffffffffffff84166004820152602401610ce7565b365f61050d7fffffffffffffffffffffffffffffffffffffffffffffffffffffffffffffffec8301828481612fab565b60606106e484845f85855f808673ffffffffffffffffffffffffffffffffffffffff16858760405161266f9190612fd2565b5f6040518083038185875af1925050503d805f81146126a9576040519150601f19603f3d011682016040523d82523d5f602084013e6126ae565b606091505b50915091506126bf878383876126ca565b979650505050505050565b6060831561275f5782515f036127585773ffffffffffffffffffffffffffffffffffffffff85163b612758576040517f08c379a000000000000000000000000000000000000000000000000000000000815260206004820152601d60248201527f416464726573733a2063616c6c20746f206e6f6e2d636f6e74726163740000006044820152606401610ce7565b50816106e4565b6106e483838151156127745781518083602001fd5b806040517f08c379a0000000000000000000000000000000000000000000000000000000008152600401610ce7919061285b565b7fffffffff00000000000000000000000000000000000000000000000000000000811681146109cc575f80fd5b5f602082840312156127e5575f80fd5b8135610965816127a8565b5f5b8381101561280a5781810151838201526020016127f2565b50505f910152565b5f81518084526128298160208601602086016127f0565b601f017fffffffffffffffffffffffffffffffffffffffffffffffffffffffffffffffe0169290920160200192915050565b602081525f6109656020830184612812565b73ffffffffffffffffffffffffffffffffffffffff811681146109cc575f80fd5b5f806040838503121561289f575f80fd5b82356128aa8161286d565b946020939093013593505050565b5f805f606084860312156128ca575f80fd5b83356128d58161286d565b925060208401356128e58161286d565b929592945050506040919091013590565b60208152816020820152818360408301375f818301604090810191909152601f9092017fffffffffffffffffffffffffffffffffffffffffffffffffffffffffffffffe0160101919050565b5f8083601f840112612952575f80fd5b50813567ffffffffffffffff811115612969575f80fd5b6020830191508360208260051b8501011115612983575f80fd5b9250929050565b5f805f805f6060868803121561299e575f80fd5b85356129a98161286d565b9450602086013567ffffffffffffffff808211156129c5575f80fd5b6129d189838a01612942565b909650945060408801359150808211156129e9575f80fd5b506129f688828901612942565b969995985093965092949392505050565b5f60208284031215612a17575f80fd5b81356109658161286d565b5f805f805f8060608789031215612a37575f80fd5b863567ffffffffffffffff80821115612a4e575f80fd5b612a5a8a838b01612942565b90985096506020890135915080821115612a72575f80fd5b612a7e8a838b01612942565b90965094506040890135915080821115612a96575f80fd5b50612aa389828a01612942565b979a9699509497509295939492505050565b5f805f8060408587031215612ac8575f80fd5b843567ffffffffffffffff80821115612adf575f80fd5b612aeb88838901612942565b90965094506020870135915080821115612b03575f80fd5b50612b1087828801612942565b95989497509550505050565b5f8083601f840112612b2c575f80fd5b50813567ffffffffffffffff811115612b43575f80fd5b602083019150836020828501011115612983575f80fd5b5f805f805f60808688031215612b6e575f80fd5b8535612b798161286d565b94506020860135612b898161286d565b935060408601359250606086013567ffffffffffffffff811115612bab575f80fd5b6129f688828901612b1c565b5f805f805f805f60e0888a031215612bcd575f80fd5b8735612bd88161286d565b96506020880135612be88161286d565b95506040880135945060608801359350608088013560ff81168114612c0b575f80fd5b9699959850939692959460a0840135945060c09093013592915050565b5f8060408385031215612c39575f80fd5b8235612c448161286d565b91506020830135612c548161286d565b809150509250929050565b5f8060208385031215612c70575f80fd5b823567ffffffffffffffff811115612c86575f80fd5b612c9285828601612b1c565b90969095509350505050565b5f805f8060608587031215612cb1575f80fd5b8435612cbc8161286d565b935060208501359250604085013567ffffffffffffffff811115612cde575f80fd5b612b1087828801612b1c565b7f4e487b71000000000000000000000000000000000000000000000000000000005f52603260045260245ffd5b8181038181111561046c577f4e487b71000000000000000000000000000000000000000000000000000000005f52601160045260245ffd5b600181811c90821680612d6357607f821691505b602082108103612d9a577f4e487b71000000000000000000000000000000000000000000000000000000005f52602260045260245ffd5b50919050565b7f4e487b71000000000000000000000000000000000000000000000000000000005f52604160045260245ffd5b601f821115611509575f81815260208120601f850160051c81016020861015612df35750805b601f850160051c820191505b81811015610a8457828155600101612dff565b67ffffffffffffffff831115612e2a57612e2a612da0565b612e3e83612e388354612d4f565b83612dcd565b5f601f841160018114612e8e575f8515612e585750838201355b7fffffffffffffffffffffffffffffffffffffffffffffffffffffffffffffffff600387901b1c1916600186901b178355610dac565b5f838152602090207fffffffffffffffffffffffffffffffffffffffffffffffffffffffffffffffe0861690835b82811015612edc5786850135825560209485019460019092019101612ebc565b5086821015612f17577fffffffffffffffffffffffffffffffffffffffffffffffffffffffffffffffff60f88860031b161c19848701351681555b505060018560011b0183555050505050565b5f60208284031215612f39575f80fd5b81518015158114610965575f80fd5b5f73ffffffffffffffffffffffffffffffffffffffff808716835280861660208401525083604083015260806060830152612f866080830184612812565b9695505050505050565b5f60208284031215612fa0575f80fd5b8151610965816127a8565b5f8085851115612fb9575f80fd5b83861115612fc5575f80fd5b5050820193919092039150565b5f8251612fe38184602087016127f0565b919091019291505056fea264697066735822122081ba71584ba209ab8ff151eb91fb3da40bdc4c08389a8955abf7ad4aec148e2664736f6c63430008150033",
  "linkReferences": {},
  "deployedLinkReferences": {}
}