{
  "_format": "hh-sol-artifact-1",
  "contractName": "ERC721FullMintOnceBurn",
  "sourceName": "contracts/token/ERC721/preset/ERC721FullMintOnceBurn.sol",
  "abi": [
    {
      "inputs": [
        {
          "internalType": "string",
          "name": "tokenName",
          "type": "string"
        },
        {
          "internalType": "string",
          "name": "tokenSymbol",
          "type": "string"
        },
        {
          "internalType": "contract ITokenMetadataResolver",
          "name": "metadataResolver",
          "type": "address"
        },
        {
          "internalType": "contract IOperatorFilterRegistry",
          "name": "filterRegistry",
          "type": "address"
        },
        {
          "internalType": "contract IForwarderRegistry",
          "name": "forwarderRegistry",
          "type": "address"
        }
      ],
      "stateMutability": "nonpayable",
      "type": "constructor"
    },
    {
      "inputs": [
        {
          "internalType": "address",
          "name": "target",
          "type": "address"
        }
      ],
      "name": "AddressEmptyCode",
      "type": "error"
    },
    {
      "inputs": [
        {
          "internalType": "address",
          "name": "account",
          "type": "address"
        }
      ],
      "name": "AddressInsufficientBalance",
      "type": "error"
    },
    {
      "inputs": [
        {
          "internalType": "uint256",
          "name": "percentage",
          "type": "uint256"
        }
      ],
      "name": "ERC2981IncorrectRoyaltyPercentage",
      "type": "error"
    },
    {
      "inputs": [],
      "name": "ERC2981IncorrectRoyaltyReceiver",
      "type": "error"
    },
    {
      "inputs": [],
      "name": "ERC721BalanceOfAddressZero",
      "type": "error"
    },
    {
      "inputs": [
        {
          "internalType": "uint256",
          "name": "tokenId",
          "type": "uint256"
        }
      ],
      "name": "ERC721BurntToken",
      "type": "error"
    },
    {
      "inputs": [
        {
          "internalType": "uint256",
          "name": "tokenId",
          "type": "uint256"
        }
      ],
      "name": "ERC721ExistingToken",
      "type": "error"
    },
    {
      "inputs": [],
      "name": "ERC721MintToAddressZero",
      "type": "error"
    },
    {
      "inputs": [
        {
          "internalType": "address",
          "name": "sender",
          "type": "address"
        },
        {
          "internalType": "address",
          "name": "owner",
          "type": "address"
        },
        {
          "internalType": "uint256",
          "name": "tokenId",
          "type": "uint256"
        }
      ],
      "name": "ERC721NonApprovedForApproval",
      "type": "error"
    },
    {
      "inputs": [
        {
          "internalType": "address",
          "name": "sender",
          "type": "address"
        },
        {
          "internalType": "address",
          "name": "owner",
          "type": "address"
        },
        {
          "internalType": "uint256",
          "name": "tokenId",
          "type": "uint256"
        }
      ],
      "name": "ERC721NonApprovedForTransfer",
      "type": "error"
    },
    {
      "inputs": [
        {
          "internalType": "uint256",
          "name": "tokenId",
          "type": "uint256"
        }
      ],
      "name": "ERC721NonExistingToken",
      "type": "error"
    },
    {
      "inputs": [
        {
          "internalType": "address",
          "name": "account",
          "type": "address"
        },
        {
          "internalType": "uint256",
          "name": "tokenId",
          "type": "uint256"
        }
      ],
      "name": "ERC721NonOwnedToken",
      "type": "error"
    },
    {
      "inputs": [
        {
          "internalType": "address",
          "name": "recipient",
          "type": "address"
        },
        {
          "internalType": "uint256",
          "name": "tokenId",
          "type": "uint256"
        }
      ],
      "name": "ERC721SafeTransferRejected",
      "type": "error"
    },
    {
      "inputs": [
        {
          "internalType": "address",
          "name": "account",
          "type": "address"
        }
      ],
      "name": "ERC721SelfApproval",
      "type": "error"
    },
    {
      "inputs": [
        {
          "internalType": "address",
          "name": "account",
          "type": "address"
        }
      ],
      "name": "ERC721SelfApprovalForAll",
      "type": "error"
    },
    {
      "inputs": [],
      "name": "ERC721TransferToAddressZero",
      "type": "error"
    },
    {
      "inputs": [],
      "name": "FailedInnerCall",
      "type": "error"
    },
    {
      "inputs": [],
      "name": "IllegalInterfaceId",
      "type": "error"
    },
    {
      "inputs": [],
      "name": "InconsistentArrayLengths",
      "type": "error"
    },
    {
      "inputs": [
        {
          "internalType": "address",
          "name": "tokenContract",
          "type": "address"
        }
      ],
      "name": "IncorrectTokenContractType",
      "type": "error"
    },
    {
      "inputs": [
        {
          "internalType": "address",
          "name": "account",
          "type": "address"
        }
      ],
      "name": "NotContractOwner",
      "type": "error"
    },
    {
      "inputs": [
        {
          "internalType": "bytes32",
          "name": "role",
          "type": "bytes32"
        },
        {
          "internalType": "address",
          "name": "account",
          "type": "address"
        }
      ],
      "name": "NotRoleHolder",
      "type": "error"
    },
    {
      "inputs": [
        {
          "internalType": "address",
          "name": "operator",
          "type": "address"
        }
      ],
      "name": "OperatorNotAllowed",
      "type": "error"
    },
    {
      "inputs": [
        {
          "internalType": "address",
          "name": "token",
          "type": "address"
        }
      ],
      "name": "SafeERC20FailedOperation",
      "type": "error"
    },
    {
      "anonymous": false,
      "inputs": [
        {
          "indexed": true,
          "internalType": "address",
          "name": "owner",
          "type": "address"
        },
        {
          "indexed": true,
          "internalType": "address",
          "name": "approved",
          "type": "address"
        },
        {
          "indexed": true,
          "internalType": "uint256",
          "name": "tokenId",
          "type": "uint256"
        }
      ],
      "name": "Approval",
      "type": "event"
    },
    {
      "anonymous": false,
      "inputs": [
        {
          "indexed": true,
          "internalType": "address",
          "name": "owner",
          "type": "address"
        },
        {
          "indexed": true,
          "internalType": "address",
          "name": "operator",
          "type": "address"
        },
        {
          "indexed": false,
          "internalType": "bool",
          "name": "approved",
          "type": "bool"
        }
      ],
      "name": "ApprovalForAll",
      "type": "event"
    },
    {
      "anonymous": false,
      "inputs": [
        {
          "indexed": true,
          "internalType": "address",
          "name": "previousOwner",
          "type": "address"
        },
        {
          "indexed": true,
          "internalType": "address",
          "name": "newOwner",
          "type": "address"
        }
      ],
      "name": "OwnershipTransferred",
      "type": "event"
    },
    {
      "anonymous": false,
      "inputs": [
        {
          "indexed": false,
          "internalType": "bytes32",
          "name": "role",
          "type": "bytes32"
        },
        {
          "indexed": false,
          "internalType": "address",
          "name": "account",
          "type": "address"
        },
        {
          "indexed": false,
          "internalType": "address",
          "name": "operator",
          "type": "address"
        }
      ],
      "name": "RoleGranted",
      "type": "event"
    },
    {
      "anonymous": false,
      "inputs": [
        {
          "indexed": false,
          "internalType": "bytes32",
          "name": "role",
          "type": "bytes32"
        },
        {
          "indexed": false,
          "internalType": "address",
          "name": "account",
          "type": "address"
        },
        {
          "indexed": false,
          "internalType": "address",
          "name": "operator",
          "type": "address"
        }
      ],
      "name": "RoleRevoked",
      "type": "event"
    },
    {
      "anonymous": false,
      "inputs": [
        {
          "indexed": true,
          "internalType": "address",
          "name": "from",
          "type": "address"
        },
        {
          "indexed": true,
          "internalType": "address",
          "name": "to",
          "type": "address"
        },
        {
          "indexed": true,
          "internalType": "uint256",
          "name": "tokenId",
          "type": "uint256"
        }
      ],
      "name": "Transfer",
      "type": "event"
    },
    {
      "inputs": [],
      "name": "MINTER_ROLE",
      "outputs": [
        {
          "internalType": "bytes32",
          "name": "",
          "type": "bytes32"
        }
      ],
      "stateMutability": "view",
      "type": "function"
    },
    {
      "inputs": [],
      "name": "ROYALTY_FEE_DENOMINATOR",
      "outputs": [
        {
          "internalType": "uint256",
          "name": "",
          "type": "uint256"
        }
      ],
      "stateMutability": "view",
      "type": "function"
    },
    {
      "inputs": [
        {
          "internalType": "address",
          "name": "to",
          "type": "address"
        },
        {
          "internalType": "uint256",
          "name": "tokenId",
          "type": "uint256"
        }
      ],
      "name": "approve",
      "outputs": [],
      "stateMutability": "nonpayable",
      "type": "function"
    },
    {
      "inputs": [
        {
          "internalType": "address",
          "name": "owner",
          "type": "address"
        }
      ],
      "name": "balanceOf",
      "outputs": [
        {
          "internalType": "uint256",
          "name": "balance",
          "type": "uint256"
        }
      ],
      "stateMutability": "view",
      "type": "function"
    },
    {
      "inputs": [
        {
          "internalType": "address",
          "name": "from",
          "type": "address"
        },
        {
          "internalType": "uint256[]",
          "name": "tokenIds",
          "type": "uint256[]"
        }
      ],
      "name": "batchBurnFrom",
      "outputs": [],
      "stateMutability": "nonpayable",
      "type": "function"
    },
    {
      "inputs": [
        {
          "internalType": "address",
          "name": "to",
          "type": "address"
        },
        {
          "internalType": "uint256[]",
          "name": "tokenIds",
          "type": "uint256[]"
        }
      ],
      "name": "batchMint",
      "outputs": [],
      "stateMutability": "nonpayable",
      "type": "function"
    },
    {
      "inputs": [
        {
          "internalType": "address",
          "name": "from",
          "type": "address"
        },
        {
          "internalType": "address",
          "name": "to",
          "type": "address"
        },
        {
          "internalType": "uint256[]",
          "name": "tokenIds",
          "type": "uint256[]"
        }
      ],
      "name": "batchTransferFrom",
      "outputs": [],
      "stateMutability": "nonpayable",
      "type": "function"
    },
    {
      "inputs": [
        {
          "internalType": "address",
          "name": "from",
          "type": "address"
        },
        {
          "internalType": "uint256",
          "name": "tokenId",
          "type": "uint256"
        }
      ],
      "name": "burnFrom",
      "outputs": [],
      "stateMutability": "nonpayable",
      "type": "function"
    },
    {
      "inputs": [
        {
          "internalType": "address[]",
          "name": "recipients",
          "type": "address[]"
        },
        {
          "internalType": "uint256[]",
          "name": "tokenIds",
          "type": "uint256[]"
        }
      ],
      "name": "deliver",
      "outputs": [],
      "stateMutability": "nonpayable",
      "type": "function"
    },
    {
      "inputs": [],
      "name": "forwarderRegistry",
      "outputs": [
        {
          "internalType": "contract IForwarderRegistry",
          "name": "",
          "type": "address"
        }
      ],
      "stateMutability": "view",
      "type": "function"
    },
    {
      "inputs": [
        {
          "internalType": "uint256",
          "name": "tokenId",
          "type": "uint256"
        }
      ],
      "name": "getApproved",
      "outputs": [
        {
          "internalType": "address",
          "name": "approved",
          "type": "address"
        }
      ],
      "stateMutability": "view",
      "type": "function"
    },
    {
      "inputs": [
        {
          "internalType": "bytes32",
          "name": "role",
          "type": "bytes32"
        },
        {
          "internalType": "address",
          "name": "account",
          "type": "address"
        }
      ],
      "name": "grantRole",
      "outputs": [],
      "stateMutability": "nonpayable",
      "type": "function"
    },
    {
      "inputs": [
        {
          "internalType": "bytes32",
          "name": "role",
          "type": "bytes32"
        },
        {
          "internalType": "address",
          "name": "account",
          "type": "address"
        }
      ],
      "name": "hasRole",
      "outputs": [
        {
          "internalType": "bool",
          "name": "hasRole_",
          "type": "bool"
        }
      ],
      "stateMutability": "view",
      "type": "function"
    },
    {
      "inputs": [
        {
          "internalType": "address",
          "name": "owner",
          "type": "address"
        },
        {
          "internalType": "address",
          "name": "operator",
          "type": "address"
        }
      ],
      "name": "isApprovedForAll",
      "outputs": [
        {
          "internalType": "bool",
          "name": "approvedForAll",
          "type": "bool"
        }
      ],
      "stateMutability": "view",
      "type": "function"
    },
    {
      "inputs": [
        {
          "internalType": "address",
          "name": "forwarder",
          "type": "address"
        }
      ],
      "name": "isTrustedForwarder",
      "outputs": [
        {
          "internalType": "bool",
          "name": "",
          "type": "bool"
        }
      ],
      "stateMutability": "view",
      "type": "function"
    },
    {
      "inputs": [],
      "name": "metadataResolver",
      "outputs": [
        {
          "internalType": "contract ITokenMetadataResolver",
          "name": "tokenMetadataResolver",
          "type": "address"
        }
      ],
      "stateMutability": "view",
      "type": "function"
    },
    {
      "inputs": [
        {
          "internalType": "address",
          "name": "to",
          "type": "address"
        },
        {
          "internalType": "uint256",
          "name": "tokenId",
          "type": "uint256"
        }
      ],
      "name": "mint",
      "outputs": [],
      "stateMutability": "nonpayable",
      "type": "function"
    },
    {
      "inputs": [],
      "name": "name",
      "outputs": [
        {
          "internalType": "string",
          "name": "tokenName",
          "type": "string"
        }
      ],
      "stateMutability": "view",
      "type": "function"
    },
    {
      "inputs": [],
      "name": "operatorFilterRegistry",
      "outputs": [
        {
          "internalType": "contract IOperatorFilterRegistry",
          "name": "",
          "type": "address"
        }
      ],
      "stateMutability": "view",
      "type": "function"
    },
    {
      "inputs": [],
      "name": "owner",
      "outputs": [
        {
          "internalType": "address",
          "name": "",
          "type": "address"
        }
      ],
      "stateMutability": "view",
      "type": "function"
    },
    {
      "inputs": [
        {
          "internalType": "uint256",
          "name": "tokenId",
          "type": "uint256"
        }
      ],
      "name": "ownerOf",
      "outputs": [
        {
          "internalType": "address",
          "name": "tokenOwner",
          "type": "address"
        }
      ],
      "stateMutability": "view",
      "type": "function"
    },
    {
      "inputs": [
        {
          "internalType": "address[]",
          "name": "accounts",
          "type": "address[]"
        },
        {
          "internalType": "contract IERC20[]",
          "name": "tokens",
          "type": "address[]"
        },
        {
          "internalType": "uint256[]",
          "name": "amounts",
          "type": "uint256[]"
        }
      ],
      "name": "recoverERC20s",
      "outputs": [],
      "stateMutability": "nonpayable",
      "type": "function"
    },
    {
      "inputs": [
        {
          "internalType": "address[]",
          "name": "accounts",
          "type": "address[]"
        },
        {
          "internalType": "contract IERC721[]",
          "name": "contracts",
          "type": "address[]"
        },
        {
          "internalType": "uint256[]",
          "name": "tokenIds",
          "type": "uint256[]"
        }
      ],
      "name": "recoverERC721s",
      "outputs": [],
      "stateMutability": "nonpayable",
      "type": "function"
    },
    {
      "inputs": [
        {
          "internalType": "address payable[]",
          "name": "accounts",
          "type": "address[]"
        },
        {
          "internalType": "uint256[]",
          "name": "amounts",
          "type": "uint256[]"
        }
      ],
      "name": "recoverETH",
      "outputs": [],
      "stateMutability": "nonpayable",
      "type": "function"
    },
    {
      "inputs": [
        {
          "internalType": "bytes32",
          "name": "role",
          "type": "bytes32"
        }
      ],
      "name": "renounceRole",
      "outputs": [],
      "stateMutability": "nonpayable",
      "type": "function"
    },
    {
      "inputs": [
        {
          "internalType": "bytes32",
          "name": "role",
          "type": "bytes32"
        },
        {
          "internalType": "address",
          "name": "account",
          "type": "address"
        }
      ],
      "name": "revokeRole",
      "outputs": [],
      "stateMutability": "nonpayable",
      "type": "function"
    },
    {
      "inputs": [
        {
          "internalType": "uint256",
          "name": "tokenId",
          "type": "uint256"
        },
        {
          "internalType": "uint256",
          "name": "salePrice",
          "type": "uint256"
        }
      ],
      "name": "royaltyInfo",
      "outputs": [
        {
          "internalType": "address",
          "name": "receiver",
          "type": "address"
        },
        {
          "internalType": "uint256",
          "name": "royaltyAmount",
          "type": "uint256"
        }
      ],
      "stateMutability": "view",
      "type": "function"
    },
    {
      "inputs": [
        {
          "internalType": "address",
          "name": "to",
          "type": "address"
        },
        {
          "internalType": "uint256",
          "name": "tokenId",
          "type": "uint256"
        },
        {
          "internalType": "bytes",
          "name": "data",
          "type": "bytes"
        }
      ],
      "name": "safeMint",
      "outputs": [],
      "stateMutability": "nonpayable",
      "type": "function"
    },
    {
      "inputs": [
        {
          "internalType": "address",
          "name": "from",
          "type": "address"
        },
        {
          "internalType": "address",
          "name": "to",
          "type": "address"
        },
        {
          "internalType": "uint256",
          "name": "tokenId",
          "type": "uint256"
        }
      ],
      "name": "safeTransferFrom",
      "outputs": [],
      "stateMutability": "nonpayable",
      "type": "function"
    },
    {
      "inputs": [
        {
          "internalType": "address",
          "name": "from",
          "type": "address"
        },
        {
          "internalType": "address",
          "name": "to",
          "type": "address"
        },
        {
          "internalType": "uint256",
          "name": "tokenId",
          "type": "uint256"
        },
        {
          "internalType": "bytes",
          "name": "data",
          "type": "bytes"
        }
      ],
      "name": "safeTransferFrom",
      "outputs": [],
      "stateMutability": "nonpayable",
      "type": "function"
    },
    {
      "inputs": [
        {
          "internalType": "address",
          "name": "operator",
          "type": "address"
        },
        {
          "internalType": "bool",
          "name": "approved",
          "type": "bool"
        }
      ],
      "name": "setApprovalForAll",
      "outputs": [],
      "stateMutability": "nonpayable",
      "type": "function"
    },
    {
      "inputs": [
        {
          "internalType": "uint256",
          "name": "percentage",
          "type": "uint256"
        }
      ],
      "name": "setRoyaltyPercentage",
      "outputs": [],
      "stateMutability": "nonpayable",
      "type": "function"
    },
    {
      "inputs": [
        {
          "internalType": "address",
          "name": "receiver",
          "type": "address"
        }
      ],
      "name": "setRoyaltyReceiver",
      "outputs": [],
      "stateMutability": "nonpayable",
      "type": "function"
    },
    {
      "inputs": [
        {
          "internalType": "bytes4",
          "name": "interfaceId",
          "type": "bytes4"
        }
      ],
      "name": "supportsInterface",
      "outputs": [
        {
          "internalType": "bool",
          "name": "",
          "type": "bool"
        }
      ],
      "stateMutability": "view",
      "type": "function"
    },
    {
      "inputs": [],
      "name": "symbol",
      "outputs": [
        {
          "internalType": "string",
          "name": "tokenSymbol",
          "type": "string"
        }
      ],
      "stateMutability": "view",
      "type": "function"
    },
    {
      "inputs": [
        {
          "internalType": "uint256",
          "name": "tokenId",
          "type": "uint256"
        }
      ],
      "name": "tokenURI",
      "outputs": [
        {
          "internalType": "string",
          "name": "uri",
          "type": "string"
        }
      ],
      "stateMutability": "view",
      "type": "function"
    },
    {
      "inputs": [
        {
          "internalType": "address",
          "name": "from",
          "type": "address"
        },
        {
          "internalType": "address",
          "name": "to",
          "type": "address"
        },
        {
          "internalType": "uint256",
          "name": "tokenId",
          "type": "uint256"
        }
      ],
      "name": "transferFrom",
      "outputs": [],
      "stateMutability": "nonpayable",
      "type": "function"
    },
    {
      "inputs": [
        {
          "internalType": "address",
          "name": "newOwner",
          "type": "address"
        }
      ],
      "name": "transferOwnership",
      "outputs": [],
      "stateMutability": "nonpayable",
      "type": "function"
    },
    {
      "inputs": [
        {
          "internalType": "contract IOperatorFilterRegistry",
          "name": "registry",
          "type": "address"
        }
      ],
      "name": "updateOperatorFilterRegistry",
      "outputs": [],
      "stateMutability": "nonpayable",
      "type": "function"
    },
    {
      "inputs": [
        {
          "internalType": "uint256",
          "name": "tokenId",
          "type": "uint256"
        }
      ],
      "name": "wasBurnt",
      "outputs": [
        {
          "internalType": "bool",
          "name": "tokenWasBurnt",
          "type": "bool"
        }
      ],
      "stateMutability": "view",
      "type": "function"
    }
  ],
  "bytecode": "0x60a060405234801561001057600080fd5b5060405161478138038061478183398101604081905261002f91610418565b80808686868633610048816100426100de565b90610112565b50610051610188565b61007b8161005d61019f565b9081546001600160a01b0319166001600160a01b0391909116179055565b506100846101cd565b61009a8383836100926101e2565b929190610210565b6100a2610253565b506100ae915050610268565b6100b661027d565b6100be610292565b6100c66102a7565b6001600160a01b031660805250610622945050505050565b60008061010c60017fc9ed16f33ab3a66c84bfd83099ccb2a8845871e2e1c1928f63797152f0fd54cd6104b7565b92915050565b6001600160a01b038116156101685781546001600160a01b0319166001600160a01b03821690811783556040516000907f8be0079c531659141344cd1fd0a4f28419497f9722a3daafe3b4186f6b6457e0908290a35b6101846307f5828d60e41b600161017d6102b8565b91906102e6565b5050565b61019d6380ac58cd60e01b600161017d6102b8565b565b60008061010c60017f609b85bcafa81ecfaf3ff62cdde2c6c9082a68dbe4922f07399c706bdeb7cd316104b7565b61019d63f3993d1160e01b600161017d6102b8565b60008061010c60017f7ea68fd2dcf1c056b94db6a0a537aa80d26fa9ab1eacd85da1ba0b61b7e7a8a56104b7565b8361021b8482610563565b506001840161022a8382610563565b5060029390930180546001600160a01b0319166001600160a01b03909416939093179092555050565b61019d635b5e139f60e01b600161017d6102b8565b61019d638e773e1360e01b600161017d6102b8565b61019d634ed2f41960e11b600161017d6102b8565b61019d638b8b4ef560e01b600161017d6102b8565b61019d63152a902d60e11b600161017d5b60008061010c60017fca9d3e17f264b0f3984e2634e94adb37fa3e6a8103f06aeae6fa59e21c769f5e6104b7565b600160e01b6001600160e01b0319831601610314576040516372c683bb60e01b815260040160405180910390fd5b6001600160e01b03199190911660009081526020929092526040909120805460ff1916911515919091179055565b634e487b7160e01b600052604160045260246000fd5b600082601f83011261036957600080fd5b81516001600160401b038082111561038357610383610342565b604051601f8301601f19908116603f011681019082821181831017156103ab576103ab610342565b81604052838152602092508660208588010111156103c857600080fd5b600091505b838210156103ea57858201830151818301840152908201906103cd565b6000602085830101528094505050505092915050565b6001600160a01b038116811461041557600080fd5b50565b600080600080600060a0868803121561043057600080fd5b85516001600160401b038082111561044757600080fd5b61045389838a01610358565b9650602088015191508082111561046957600080fd5b5061047688828901610358565b945050604086015161048781610400565b606087015190935061049881610400565b60808701519092506104a981610400565b809150509295509295909350565b8181038181111561010c57634e487b7160e01b600052601160045260246000fd5b600181811c908216806104ec57607f821691505b60208210810361050c57634e487b7160e01b600052602260045260246000fd5b50919050565b601f82111561055e576000816000526020600020601f850160051c8101602086101561053b5750805b601f850160051c820191505b8181101561055a57828155600101610547565b5050505b505050565b81516001600160401b0381111561057c5761057c610342565b6105908161058a84546104d8565b84610512565b602080601f8311600181146105c557600084156105ad5750858301515b600019600386901b1c1916600185901b17855561055a565b600085815260208120601f198616915b828110156105f4578886015182559484019460019091019084016105d5565b50858210156106125787850151600019600388901b60f8161c191681555b5050505050600190811b01905550565b60805161412f610652600039600081816103be0152818161043e0152818161346e01526134fc015261412f6000f3fe608060405234801561001057600080fd5b50600436106102c85760003560e01c80638da5cb5b1161017b578063c77c6955116100d8578063e985e9c51161008c578063f2fde38b11610071578063f2fde38b14610630578063f3993d1114610643578063f7ba94bd1461065657600080fd5b8063e985e9c51461060a578063f24729651461061d57600080fd5b8063d5391393116100bd578063d5391393146105c6578063d547741f146105ed578063e1a8bf2c1461060057600080fd5b8063c77c6955146105a0578063c87b56dd146105b357600080fd5b8063a0c76f621161012f578063b0ccc31e11610114578063b0ccc31e14610572578063b88d4fde1461057a578063c3666c361461058d57600080fd5b8063a0c76f6214610557578063a22cb4651461055f57600080fd5b806391d148541161016057806391d148541461052957806395d89b411461053c5780639da5e8321461054457600080fd5b80638da5cb5b1461050e5780638dc251e31461051657600080fd5b806342842e0e1161022957806370a08231116101dd57806379cc6790116101c257806379cc6790146104d55780638832e6e3146104e85780638bb9c5bf146104fb57600080fd5b806370a08231146104a157806373c8a958146104c257600080fd5b8063572b6c051161020e578063572b6c051461042e57806361ba27da1461047b5780636352211e1461048e57600080fd5b806342842e0e146104085780634684d7e91461041b57600080fd5b806323b872dd116102805780632b4c9f16116102655780632b4c9f16146103bc5780632f2ff15d146103e257806340c10f19146103f557600080fd5b806323b872dd1461036a5780632a55205a1461037d57600080fd5b8063081812fc116102b1578063081812fc1461030a578063095ea7b314610342578063114ba8ee1461035757600080fd5b806301ffc9a7146102cd57806306fdde03146102f5575b600080fd5b6102e06102db366004613937565b610669565b60405190151581526020015b60405180910390f35b6102fd610683565b6040516102ec91906139c2565b61031d6103183660046139d5565b610692565b60405173ffffffffffffffffffffffffffffffffffffffff90911681526020016102ec565b610355610350366004613a10565b6106a6565b005b610355610365366004613a3c565b6106f5565b610355610378366004613a59565b610760565b61039061038b366004613a9a565b61079e565b6040805173ffffffffffffffffffffffffffffffffffffffff90931683526020830191909152016102ec565b7f000000000000000000000000000000000000000000000000000000000000000061031d565b6103556103f0366004613abc565b6107c1565b610355610403366004613a10565b6107f4565b610355610416366004613a59565b610843565b610355610429366004613b31565b610874565b6102e061043c366004613a3c565b7f000000000000000000000000000000000000000000000000000000000000000073ffffffffffffffffffffffffffffffffffffffff90811691161490565b6103556104893660046139d5565b6108e8565b61031d61049c3660046139d5565b610905565b6104b46104af366004613a3c565b610919565b6040519081526020016102ec565b6103556104d0366004613b86565b61092d565b6103556104e3366004613a10565b610a23565b6103556104f6366004613c62565b610a40565b6103556105093660046139d5565b610ac2565b61031d610add565b610355610524366004613a3c565b610b04565b6102e0610537366004613abc565b610b21565b6102fd610b6c565b610355610552366004613cbe565b610b76565b61031d610c1a565b61035561056d366004613d2c565b610c44565b61031d610c73565b610355610588366004613d5a565b610c80565b61035561059b366004613b86565b610cbd565b6102e06105ae3660046139d5565b610f63565b6102fd6105c13660046139d5565b610f77565b6104b47f6d696e746572000000000000000000000000000000000000000000000000000081565b6103556105fb366004613abc565b610f9a565b6104b4620186a081565b6102e0610618366004613dcd565b610fc8565b61035561062b366004613b31565b611016565b61035561063e366004613a3c565b611035565b610355610651366004613dfb565b611050565b610355610664366004613cbe565b61108a565b600061067d82610677611141565b9061116f565b92915050565b606061068d611249565b905090565b600061067d826106a061125b565b90611289565b73ffffffffffffffffffffffffffffffffffffffff8216156106d4576106d4826106ce61133d565b9061136b565b6106f16106df611375565b83836106e961125b565b92919061137f565b5050565b61070e610700611375565b6107086115fa565b90611628565b61075d8161071a61133d565b9081547fffffffffffffffffffffffff00000000000000000000000000000000000000001673ffffffffffffffffffffffffffffffffffffffff91909116179055565b50565b600061076a611375565b9050610780818561077961133d565b91906116d5565b6107988185858561078f61125b565b93929190611712565b50505050565b6000806107b584846107ae6119f0565b9190611a1e565b915091505b9250929050565b60006107cb611375565b90506107d9816107086115fa565b6107ef8383836107e7611ac8565b929190611af6565b505050565b61082f7f6d696e7465720000000000000000000000000000000000000000000000000000610820611375565b610828611ac8565b9190611bcc565b6106f1828261083c61125b565b9190611c52565b600061084d611375565b905061085c818561077961133d565b6107988185858561086b61125b565b93929190611dca565b6108a07f6d696e7465720000000000000000000000000000000000000000000000000000610820611375565b6107ef838383808060200260200160405190810160405280939291908181526020018383602002808284376000920191909152506108e1925061125b915050565b9190611e10565b6108f3610700611375565b61075d816108ff6119f0565b90611fdc565b600061067d8261091361125b565b90612062565b600061067d8261092761125b565b906120cb565b610938610700611375565b8483811415806109485750808214155b1561097f576040517f6582533600000000000000000000000000000000000000000000000000000000815260040160405180910390fd5b60005b81811015610a1957610a1188888381811061099f5761099f613e54565b90506020020160208101906109b49190613a3c565b8585848181106109c6576109c6613e54565b905060200201358888858181106109df576109df613e54565b90506020020160208101906109f49190613a3c565b73ffffffffffffffffffffffffffffffffffffffff169190612147565b600101610982565b5050505050505050565b6106f1610a2e611375565b8383610a3861125b565b9291906121d4565b610a6c7f6d696e7465720000000000000000000000000000000000000000000000000000610820611375565b610798610a77611375565b858585858080601f016020809104026020016040519081016040528093929190818152602001838380828437600092019190915250610ab9925061125b915050565b9392919061241e565b61075d610acd611375565b82610ad6611ac8565b9190612454565b600061068d610aea6115fa565b5473ffffffffffffffffffffffffffffffffffffffff1690565b610b0f610700611375565b61075d81610b1b6119f0565b906124f8565b6000610b658383610b30611ac8565b60009283526020908152604080842073ffffffffffffffffffffffffffffffffffffffff909316845291905290205460ff1690565b9392505050565b606061068d612545565b610ba27f6d696e7465720000000000000000000000000000000000000000000000000000610820611375565b61079884848080602002602001604051908101604052809392919081815260200183836020028082843760009201919091525050604080516020808802828101820190935287825290935087925086918291850190849080828437600092019190915250610c13925061125b915050565b9190612557565b600061068d610c27612778565b6002015473ffffffffffffffffffffffffffffffffffffffff1690565b8015610c5657610c56826106ce61133d565b6106f1610c61611375565b8383610c6b61125b565b9291906127a6565b600061068d610aea61133d565b6000610c8a611375565b9050610c99818761077961133d565b610cb5818787878787610caa61125b565b9594939291906128be565b505050505050565b610cc8610700611375565b848381141580610cd85750808214155b15610d0f576040517f6582533600000000000000000000000000000000000000000000000000000000815260040160405180910390fd5b60005b81811015610a19576000868683818110610d2e57610d2e613e54565b9050602002016020810190610d439190613a3c565b6040517f01ffc9a70000000000000000000000000000000000000000000000000000000081527f80ac58cd00000000000000000000000000000000000000000000000000000000600482015290915073ffffffffffffffffffffffffffffffffffffffff8216906301ffc9a790602401602060405180830381865afa158015610dd0573d6000803e3d6000fd5b505050506040513d601f19601f82011682018060405250810190610df49190613e83565b610e47576040517f986b9f1f00000000000000000000000000000000000000000000000000000000815273ffffffffffffffffffffffffffffffffffffffff821660048201526024015b60405180910390fd5b868683818110610e5957610e59613e54565b9050602002016020810190610e6e9190613a3c565b73ffffffffffffffffffffffffffffffffffffffff166342842e0e308b8b86818110610e9c57610e9c613e54565b9050602002016020810190610eb19190613a3c565b888887818110610ec357610ec3613e54565b6040517fffffffff0000000000000000000000000000000000000000000000000000000060e088901b16815273ffffffffffffffffffffffffffffffffffffffff958616600482015294909316602485015250602090910201356044820152606401600060405180830381600087803b158015610f3f57600080fd5b505af1158015610f53573d6000803e3d6000fd5b5050505050806001019050610d12565b600061067d82610f7161125b565b90612934565b6060610f858261091361125b565b5061067d3083610f93612778565b919061296a565b6000610fa4611375565b9050610fb2816107086115fa565b6107ef838383610fc0611ac8565b929190612a2a565b6000610b658383610fd761125b565b919073ffffffffffffffffffffffffffffffffffffffff9182166000908152600393909301602090815260408085209290931684525290205460ff1690565b6107ef611021611375565b84848461102c61125b565b93929190612af4565b61075d611040611375565b826110496115fa565b9190612d7f565b600061105a611375565b9050611069818661077961133d565b611083818686868661107961125b565b9493929190612e93565b5050505050565b611095610700611375565b828181146110cf576040517f6582533600000000000000000000000000000000000000000000000000000000815260040160405180910390fd5b60005b81811015610cb5576111398484838181106110ef576110ef613e54565b9050602002013587878481811061110857611108613e54565b905060200201602081019061111d9190613a3c565b73ffffffffffffffffffffffffffffffffffffffff1690613198565b6001016110d2565b60008061067d60017fca9d3e17f264b0f3984e2634e94adb37fa3e6a8103f06aeae6fa59e21c769f5e613ecf565b60007c01000000000000000000000000000000000000000000000000000000007fffffffff000000000000000000000000000000000000000000000000000000008316016111bf5750600061067d565b7ffe003659000000000000000000000000000000000000000000000000000000007fffffffff000000000000000000000000000000000000000000000000000000008316016112105750600161067d565b507fffffffff00000000000000000000000000000000000000000000000000000000166000908152602091909152604090205460ff1690565b606061068d611256612778565b61326e565b60008061067d60017fddf3ee18ae6d688373c219468f8be446e7ae82215f4779d821c7ea5e8c13c0c1613ecf565b60008181526020839052604081205473ffffffffffffffffffffffffffffffffffffffff81166112e8576040517fdd56047500000000000000000000000000000000000000000000000000000000815260048101849052602401610e3e565b74010000000000000000000000000000000000000000811615611333575050600081815260028301602052604090205473ffffffffffffffffffffffffffffffffffffffff1661067d565b600091505061067d565b60008061067d60017f609b85bcafa81ecfaf3ff62cdde2c6c9082a68dbe4922f07399c706bdeb7cd31613ecf565b6106f18282613304565b600061068d61342b565b60008181526020859052604090205473ffffffffffffffffffffffffffffffffffffffff81166113de576040517fdd56047500000000000000000000000000000000000000000000000000000000815260048101839052602401610e3e565b8073ffffffffffffffffffffffffffffffffffffffff80821690851603611449576040517fb7fdc01000000000000000000000000000000000000000000000000000000000815273ffffffffffffffffffffffffffffffffffffffff82166004820152602401610e3e565b611454868287613578565b6114b1576040517fc7563a1800000000000000000000000000000000000000000000000000000000815273ffffffffffffffffffffffffffffffffffffffff80871660048301528216602482015260448101849052606401610e3e565b73ffffffffffffffffffffffffffffffffffffffff8416611516577401000000000000000000000000000000000000000082161561151157600083815260208790526040902073ffffffffffffffffffffffffffffffffffffffff821690555b611597565b7401000000000000000000000000000000000000000082178083146115475760008481526020889052604090208190555b506000838152600287016020526040902080547fffffffffffffffffffffffff00000000000000000000000000000000000000001673ffffffffffffffffffffffffffffffffffffffff86161790555b828473ffffffffffffffffffffffffffffffffffffffff168273ffffffffffffffffffffffffffffffffffffffff167f8c5be1e5ebec7d5bd14f71427d1e84f3dd0314c0f7b2291e5b200ac8c7c3b92560405160405180910390a4505050505050565b60008061067d60017fc9ed16f33ab3a66c84bfd83099ccb2a8845871e2e1c1928f63797152f0fd54cd613ecf565b815473ffffffffffffffffffffffffffffffffffffffff8281169116146106f1576040517f2ef4875e00000000000000000000000000000000000000000000000000000000815273ffffffffffffffffffffffffffffffffffffffff82166004820152602401610e3e565b81547fffffffffffffffffffffffff00000000000000000000000000000000000000001673ffffffffffffffffffffffffffffffffffffffff91909116179055565b8073ffffffffffffffffffffffffffffffffffffffff168273ffffffffffffffffffffffffffffffffffffffff16146107ef576107ef8383613304565b73ffffffffffffffffffffffffffffffffffffffff821661175f576040517f86c8706700000000000000000000000000000000000000000000000000000000815260040160405180910390fd5b60008181526020869052604090205473ffffffffffffffffffffffffffffffffffffffff81166117be576040517fdd56047500000000000000000000000000000000000000000000000000000000815260048101839052602401610e3e565b73ffffffffffffffffffffffffffffffffffffffff84168173ffffffffffffffffffffffffffffffffffffffff1614611842576040517f14dbb53600000000000000000000000000000000000000000000000000000000815273ffffffffffffffffffffffffffffffffffffffff8516600482015260248101839052604401610e3e565b61184d868587613578565b6118fc57740100000000000000000000000000000000000000008116158061189e5750600082815260028701602052604090205473ffffffffffffffffffffffffffffffffffffffff868116911614155b156118fc576040517fa4a3018b00000000000000000000000000000000000000000000000000000000815273ffffffffffffffffffffffffffffffffffffffff80871660048301528516602482015260448101839052606401610e3e565b600082815260208790526040902073ffffffffffffffffffffffffffffffffffffffff8085169182905585161461198d5773ffffffffffffffffffffffffffffffffffffffff80851660009081526001808901602052604080832080547fffffffffffffffffffffffffffffffffffffffffffffffffffffffffffffffff0190559286168252919020805490910190555b818373ffffffffffffffffffffffffffffffffffffffff168573ffffffffffffffffffffffffffffffffffffffff167fddf252ad1be2c89b69c2b068fc378daa952ba7f163c4a11628f55a4df523b3ef60405160405180910390a4505050505050565b60008061067d60017f2c0cf10337caabbd02dcf226f05f5fd19a0919a41a8df8958c39b80007826858613ecf565b825473ffffffffffffffffffffffffffffffffffffffff8116906000907401000000000000000000000000000000000000000090046bffffffffffffffffffffffff16831580611a6c575080155b15611a7a5760009150611abf565b620186a0841015611aa457620186a0611a938286613ee2565b611a9d9190613ef9565b9150611abf565b80611ab2620186a086613ef9565b611abc9190613ee2565b91505b50935093915050565b60008061067d60017fc8827d3282af6f37b64c3e9e6f3ac9df286ab0bb0fccd6f8661bf19adb368b23613ecf565b60008381526020858152604080832073ffffffffffffffffffffffffffffffffffffffff8616845290915290205460ff166107985760008381526020858152604080832073ffffffffffffffffffffffffffffffffffffffff8681168086529184529382902080547fffffffffffffffffffffffffffffffffffffffffffffffffffffffffffffff00166001179055815187815292830152918316918101919091527f2f8788117e7eff1d82e926ec794901d17c78024a50270940304540a733656f0d906060015b60405180910390a150505050565b60008281526020848152604080832073ffffffffffffffffffffffffffffffffffffffff8516845290915290205460ff166107ef576040517f7aa728820000000000000000000000000000000000000000000000000000000081526004810183905273ffffffffffffffffffffffffffffffffffffffff82166024820152604401610e3e565b73ffffffffffffffffffffffffffffffffffffffff8216611c9f576040517f7851b9cd00000000000000000000000000000000000000000000000000000000815260040160405180910390fd5b60008181526020849052604090205473ffffffffffffffffffffffffffffffffffffffff811615611cff576040517f753eceac00000000000000000000000000000000000000000000000000000000815260048101839052602401610e3e565b7fdead0000000000000000000000000000000000000000000000000000000000008103611d5b576040517f31e8d3d500000000000000000000000000000000000000000000000000000000815260048101839052602401610e3e565b60008281526020858152604080832073ffffffffffffffffffffffffffffffffffffffff87169081905580845260018089019093528184208054909301909255518492907fddf252ad1be2c89b69c2b068fc378daa952ba7f163c4a11628f55a4df523b3ef908290a450505050565b611dd78585858585611712565b73ffffffffffffffffffffffffffffffffffffffff82163b156110835761108384848484604051806020016040528060008152506135ed565b73ffffffffffffffffffffffffffffffffffffffff8216611e5d576040517f7851b9cd00000000000000000000000000000000000000000000000000000000815260040160405180910390fd5b805160005b81811015611fa7576000838281518110611e7e57611e7e613e54565b60209081029190910181015160008181529188905260409091205490915073ffffffffffffffffffffffffffffffffffffffff811615611eed576040517f753eceac00000000000000000000000000000000000000000000000000000000815260048101839052602401610e3e565b7fdead0000000000000000000000000000000000000000000000000000000000008103611f49576040517f31e8d3d500000000000000000000000000000000000000000000000000000000815260048101839052602401610e3e565b60008281526020889052604080822073ffffffffffffffffffffffffffffffffffffffff89169081905590518492907fddf252ad1be2c89b69c2b068fc378daa952ba7f163c4a11628f55a4df523b3ef908290a45050600101611e62565b5073ffffffffffffffffffffffffffffffffffffffff9092166000908152600190930160205250604090912080549091019055565b620186a081111561201c576040517fac04040800000000000000000000000000000000000000000000000000000000815260048101829052602401610e3e565b81546bffffffffffffffffffffffff909116740100000000000000000000000000000000000000000273ffffffffffffffffffffffffffffffffffffffff909116179055565b60008181526020839052604081205473ffffffffffffffffffffffffffffffffffffffff81166120c1576040517fdd56047500000000000000000000000000000000000000000000000000000000815260048101849052602401610e3e565b805b949350505050565b600073ffffffffffffffffffffffffffffffffffffffff821661211a576040517faefbce4e00000000000000000000000000000000000000000000000000000000815260040160405180910390fd5b5073ffffffffffffffffffffffffffffffffffffffff166000908152600191909101602052604090205490565b6040805173ffffffffffffffffffffffffffffffffffffffff8416602482015260448082018490528251808303909101815260649091019091526020810180517bffffffffffffffffffffffffffffffffffffffffffffffffffffffff167fa9059cbb000000000000000000000000000000000000000000000000000000001790526107ef908490613702565b60008181526020859052604090205473ffffffffffffffffffffffffffffffffffffffff8116612233576040517fdd56047500000000000000000000000000000000000000000000000000000000815260048101839052602401610e3e565b73ffffffffffffffffffffffffffffffffffffffff83168173ffffffffffffffffffffffffffffffffffffffff16146122b7576040517f14dbb53600000000000000000000000000000000000000000000000000000000815273ffffffffffffffffffffffffffffffffffffffff8416600482015260248101839052604401610e3e565b6122c2858486613578565b6123715774010000000000000000000000000000000000000000811615806123135750600082815260028601602052604090205473ffffffffffffffffffffffffffffffffffffffff858116911614155b15612371576040517fa4a3018b00000000000000000000000000000000000000000000000000000000815273ffffffffffffffffffffffffffffffffffffffff80861660048301528416602482015260448101839052606401610e3e565b6000828152602086815260408083207fdead000000000000000000000000000000000000000000000000000000000000905573ffffffffffffffffffffffffffffffffffffffff86168084526001890190925280832080547fffffffffffffffffffffffffffffffffffffffffffffffffffffffffffffffff01905551849291907fddf252ad1be2c89b69c2b068fc378daa952ba7f163c4a11628f55a4df523b3ef908390a45050505050565b612429858484611c52565b73ffffffffffffffffffffffffffffffffffffffff83163b15611083576110838460008585856135ed565b61245f838284611bcc565b60008181526020848152604080832073ffffffffffffffffffffffffffffffffffffffff86168085529083529281902080547fffffffffffffffffffffffffffffffffffffffffffffffffffffffffffffff0016905580518481529182018390528101919091527ff6391f5c32d9c69d2a47ea670b442974b53935d1edc7fd64eb21e047a839171b9060600160405180910390a1505050565b73ffffffffffffffffffffffffffffffffffffffff8116611693576040517f16de0c8000000000000000000000000000000000000000000000000000000000815260040160405180910390fd5b606061068d612552612778565b613798565b815181518114612593576040517f6582533600000000000000000000000000000000000000000000000000000000815260040160405180910390fd5b60005b818110156110835760008482815181106125b2576125b2613e54565b60200260200101519050600073ffffffffffffffffffffffffffffffffffffffff168173ffffffffffffffffffffffffffffffffffffffff1603612622576040517f7851b9cd00000000000000000000000000000000000000000000000000000000815260040160405180910390fd5b600084838151811061263657612636613e54565b60209081029190910181015160008181529189905260409091205490915073ffffffffffffffffffffffffffffffffffffffff8116156126a5576040517f753eceac00000000000000000000000000000000000000000000000000000000815260048101839052602401610e3e565b7fdead0000000000000000000000000000000000000000000000000000000000008103612701576040517f31e8d3d500000000000000000000000000000000000000000000000000000000815260048101839052602401610e3e565b60008281526020898152604080832073ffffffffffffffffffffffffffffffffffffffff8716908190558084526001808d019093528184208054909301909255518492907fddf252ad1be2c89b69c2b068fc378daa952ba7f163c4a11628f55a4df523b3ef908290a4505050806001019050612596565b60008061067d60017f7ea68fd2dcf1c056b94db6a0a537aa80d26fa9ab1eacd85da1ba0b61b7e7a8a5613ecf565b8273ffffffffffffffffffffffffffffffffffffffff168273ffffffffffffffffffffffffffffffffffffffff1603612823576040517fe4215c6a00000000000000000000000000000000000000000000000000000000815273ffffffffffffffffffffffffffffffffffffffff84166004820152602401610e3e565b73ffffffffffffffffffffffffffffffffffffffff838116600081815260038701602090815260408083209487168084529482529182902080547fffffffffffffffffffffffffffffffffffffffffffffffffffffffffffffff001686151590811790915591519182527f17307eab39ab6107e8899845ad3d59bd9653f200f220920489ca2b5937696c31910160405180910390a350505050565b6128cb8787878787611712565b73ffffffffffffffffffffffffffffffffffffffff84163b1561292b5761292b8686868686868080601f0160208091040260200160405190810160405280939291908181526020018383808284376000920191909152506135ed92505050565b50505050505050565b6000818152602083905260408120547fdead00000000000000000000000000000000000000000000000000000000000014610b65565b60028301546040517ff724dad700000000000000000000000000000000000000000000000000000000815273ffffffffffffffffffffffffffffffffffffffff848116600483015260248201849052606092169063f724dad790604401600060405180830381865afa1580156129e4573d6000803e3d6000fd5b505050506040513d6000823e601f3d9081017fffffffffffffffffffffffffffffffffffffffffffffffffffffffffffffffe01682016040526120c39190810190613f63565b60008381526020858152604080832073ffffffffffffffffffffffffffffffffffffffff8616845290915290205460ff16156107985760008381526020858152604080832073ffffffffffffffffffffffffffffffffffffffff8681168086529184529382902080547fffffffffffffffffffffffffffffffffffffffffffffffffffffffffffffff00169055815187815292830152918316918101919091527ff6391f5c32d9c69d2a47ea670b442974b53935d1edc7fd64eb21e047a839171b90606001611bbe565b6000612b01868587613578565b90508160005b81811015612d41576000858583818110612b2357612b23613e54565b602090810292909201356000818152928c90526040909220549192505073ffffffffffffffffffffffffffffffffffffffff8116612b90576040517fdd56047500000000000000000000000000000000000000000000000000000000815260048101839052602401610e3e565b73ffffffffffffffffffffffffffffffffffffffff88168173ffffffffffffffffffffffffffffffffffffffff1614612c14576040517f14dbb53600000000000000000000000000000000000000000000000000000000815273ffffffffffffffffffffffffffffffffffffffff8916600482015260248101839052604401610e3e565b84612cc4577401000000000000000000000000000000000000000081161580612c665750600082815260028b01602052604090205473ffffffffffffffffffffffffffffffffffffffff8a8116911614155b15612cc4576040517fa4a3018b00000000000000000000000000000000000000000000000000000000815273ffffffffffffffffffffffffffffffffffffffff808b1660048301528916602482015260448101839052606401610e3e565b600082815260208b905260408082207fdead00000000000000000000000000000000000000000000000000000000000090555183919073ffffffffffffffffffffffffffffffffffffffff8b16907fddf252ad1be2c89b69c2b068fc378daa952ba7f163c4a11628f55a4df523b3ef908390a45050600101612b07565b50801561292b5773ffffffffffffffffffffffffffffffffffffffff8516600090815260018801602052604090208054829003905550505050505050565b825473ffffffffffffffffffffffffffffffffffffffff9081169083168114612dec576040517f2ef4875e00000000000000000000000000000000000000000000000000000000815273ffffffffffffffffffffffffffffffffffffffff84166004820152602401610e3e565b8173ffffffffffffffffffffffffffffffffffffffff168173ffffffffffffffffffffffffffffffffffffffff16146107985783547fffffffffffffffffffffffff00000000000000000000000000000000000000001673ffffffffffffffffffffffffffffffffffffffff8381169182178655604051908316907f8be0079c531659141344cd1fd0a4f28419497f9722a3daafe3b4186f6b6457e090600090a350505050565b73ffffffffffffffffffffffffffffffffffffffff8316612ee0576040517f86c8706700000000000000000000000000000000000000000000000000000000815260040160405180910390fd5b6000612eed878688613578565b90508160005b81811015613111576000858583818110612f0f57612f0f613e54565b602090810292909201356000818152928d90526040909220549192505073ffffffffffffffffffffffffffffffffffffffff8116612f7c576040517fdd56047500000000000000000000000000000000000000000000000000000000815260048101839052602401610e3e565b73ffffffffffffffffffffffffffffffffffffffff89168173ffffffffffffffffffffffffffffffffffffffff1614613000576040517f14dbb53600000000000000000000000000000000000000000000000000000000815273ffffffffffffffffffffffffffffffffffffffff8a16600482015260248101839052604401610e3e565b846130b05774010000000000000000000000000000000000000000811615806130525750600082815260028c01602052604090205473ffffffffffffffffffffffffffffffffffffffff8b8116911614155b156130b0576040517fa4a3018b00000000000000000000000000000000000000000000000000000000815273ffffffffffffffffffffffffffffffffffffffff808c1660048301528a16602482015260448101839052606401610e3e565b600082815260208c9052604080822073ffffffffffffffffffffffffffffffffffffffff808c16918290559151859391928d16917fddf252ad1be2c89b69c2b068fc378daa952ba7f163c4a11628f55a4df523b3ef91a45050600101612ef3565b508473ffffffffffffffffffffffffffffffffffffffff168673ffffffffffffffffffffffffffffffffffffffff161415801561314d57508015155b15610a195773ffffffffffffffffffffffffffffffffffffffff808716600090815260018a016020526040808220805485900390559187168152208054820190555050505050505050565b804710156131d4576040517fcd786059000000000000000000000000000000000000000000000000000000008152306004820152602401610e3e565b60008273ffffffffffffffffffffffffffffffffffffffff168260405160006040518083038185875af1925050503d806000811461322e576040519150601f19603f3d011682016040523d82523d6000602084013e613233565b606091505b50509050806107ef576040517f1425ea4200000000000000000000000000000000000000000000000000000000815260040160405180910390fd5b606081600001805461327f9061402e565b80601f01602080910402602001604051908101604052809291908181526020018280546132ab9061402e565b80156132f85780601f106132cd576101008083540402835291602001916132f8565b820191906000526020600020905b8154815290600101906020018083116132db57829003601f168201915b50505050509050919050565b815473ffffffffffffffffffffffffffffffffffffffff168015801590613342575060008173ffffffffffffffffffffffffffffffffffffffff163b115b156107ef576040517fc617113400000000000000000000000000000000000000000000000000000000815230600482015273ffffffffffffffffffffffffffffffffffffffff838116602483015282169063c617113490604401602060405180830381865afa1580156133b9573d6000803e3d6000fd5b505050506040513d601f19601f820116820180604052508101906133dd9190613e83565b6107ef576040517fede71dcc00000000000000000000000000000000000000000000000000000000815273ffffffffffffffffffffffffffffffffffffffff83166004820152602401610e3e565b60003332148061343b5750601836105b1561344557503390565b7fffffffffffffffffffffffffffffffffffffffffffffffffffffffffffffffec36013560601c7f000000000000000000000000000000000000000000000000000000000000000073ffffffffffffffffffffffffffffffffffffffff1633148061356757506040517f019a202800000000000000000000000000000000000000000000000000000000815273ffffffffffffffffffffffffffffffffffffffff82811660048301523360248301523060448301527f0000000000000000000000000000000000000000000000000000000000000000169063019a202890606401602060405180830381865afa158015613543573d6000803e3d6000fd5b505050506040513d601f19601f820116820180604052508101906135679190613e83565b1561357157919050565b3391505090565b60008173ffffffffffffffffffffffffffffffffffffffff168373ffffffffffffffffffffffffffffffffffffffff1614806120c357505073ffffffffffffffffffffffffffffffffffffffff9182166000908152600393909301602090815260408085209290931684525290205460ff1690565b6040517f150b7a02000000000000000000000000000000000000000000000000000000008082529073ffffffffffffffffffffffffffffffffffffffff85169063150b7a0290613647908990899088908890600401614081565b6020604051808303816000875af1158015613666573d6000803e3d6000fd5b505050506040513d601f19601f8201168201806040525081019061368a91906140c0565b7fffffffff000000000000000000000000000000000000000000000000000000001614611083576040517fc215a7a100000000000000000000000000000000000000000000000000000000815273ffffffffffffffffffffffffffffffffffffffff8416600482015260248101839052604401610e3e565b600061372473ffffffffffffffffffffffffffffffffffffffff8416836137a9565b905080516000141580156137495750808060200190518101906137479190613e83565b155b156107ef576040517f5274afe700000000000000000000000000000000000000000000000000000000815273ffffffffffffffffffffffffffffffffffffffff84166004820152602401610e3e565b606081600101805461327f9061402e565b6060610b6583836000846000808573ffffffffffffffffffffffffffffffffffffffff1684866040516137dc91906140dd565b60006040518083038185875af1925050503d8060008114613819576040519150601f19603f3d011682016040523d82523d6000602084013e61381e565b606091505b509150915061382e868383613838565b9695505050505050565b60608261384d57613848826138c7565b610b65565b8151158015613871575073ffffffffffffffffffffffffffffffffffffffff84163b155b156138c0576040517f9996b31500000000000000000000000000000000000000000000000000000000815273ffffffffffffffffffffffffffffffffffffffff85166004820152602401610e3e565b5080610b65565b8051156138d75780518082602001fd5b6040517f1425ea4200000000000000000000000000000000000000000000000000000000815260040160405180910390fd5b7fffffffff000000000000000000000000000000000000000000000000000000008116811461075d57600080fd5b60006020828403121561394957600080fd5b8135610b6581613909565b60005b8381101561396f578181015183820152602001613957565b50506000910152565b60008151808452613990816020860160208601613954565b601f017fffffffffffffffffffffffffffffffffffffffffffffffffffffffffffffffe0169290920160200192915050565b602081526000610b656020830184613978565b6000602082840312156139e757600080fd5b5035919050565b73ffffffffffffffffffffffffffffffffffffffff8116811461075d57600080fd5b60008060408385031215613a2357600080fd5b8235613a2e816139ee565b946020939093013593505050565b600060208284031215613a4e57600080fd5b8135610b65816139ee565b600080600060608486031215613a6e57600080fd5b8335613a79816139ee565b92506020840135613a89816139ee565b929592945050506040919091013590565b60008060408385031215613aad57600080fd5b50508035926020909101359150565b60008060408385031215613acf57600080fd5b823591506020830135613ae1816139ee565b809150509250929050565b60008083601f840112613afe57600080fd5b50813567ffffffffffffffff811115613b1657600080fd5b6020830191508360208260051b85010111156107ba57600080fd5b600080600060408486031215613b4657600080fd5b8335613b51816139ee565b9250602084013567ffffffffffffffff811115613b6d57600080fd5b613b7986828701613aec565b9497909650939450505050565b60008060008060008060608789031215613b9f57600080fd5b863567ffffffffffffffff80821115613bb757600080fd5b613bc38a838b01613aec565b90985096506020890135915080821115613bdc57600080fd5b613be88a838b01613aec565b90965094506040890135915080821115613c0157600080fd5b50613c0e89828a01613aec565b979a9699509497509295939492505050565b60008083601f840112613c3257600080fd5b50813567ffffffffffffffff811115613c4a57600080fd5b6020830191508360208285010111156107ba57600080fd5b60008060008060608587031215613c7857600080fd5b8435613c83816139ee565b935060208501359250604085013567ffffffffffffffff811115613ca657600080fd5b613cb287828801613c20565b95989497509550505050565b60008060008060408587031215613cd457600080fd5b843567ffffffffffffffff80821115613cec57600080fd5b613cf888838901613aec565b90965094506020870135915080821115613d1157600080fd5b50613cb287828801613aec565b801515811461075d57600080fd5b60008060408385031215613d3f57600080fd5b8235613d4a816139ee565b91506020830135613ae181613d1e565b600080600080600060808688031215613d7257600080fd5b8535613d7d816139ee565b94506020860135613d8d816139ee565b935060408601359250606086013567ffffffffffffffff811115613db057600080fd5b613dbc88828901613c20565b969995985093965092949392505050565b60008060408385031215613de057600080fd5b8235613deb816139ee565b91506020830135613ae1816139ee565b60008060008060608587031215613e1157600080fd5b8435613e1c816139ee565b93506020850135613e2c816139ee565b9250604085013567ffffffffffffffff811115613e4857600080fd5b613cb287828801613aec565b7f4e487b7100000000000000000000000000000000000000000000000000000000600052603260045260246000fd5b600060208284031215613e9557600080fd5b8151610b6581613d1e565b7f4e487b7100000000000000000000000000000000000000000000000000000000600052601160045260246000fd5b8181038181111561067d5761067d613ea0565b808202811582820484141761067d5761067d613ea0565b600082613f2f577f4e487b7100000000000000000000000000000000000000000000000000000000600052601260045260246000fd5b500490565b7f4e487b7100000000000000000000000000000000000000000000000000000000600052604160045260246000fd5b600060208284031215613f7557600080fd5b815167ffffffffffffffff80821115613f8d57600080fd5b818401915084601f830112613fa157600080fd5b815181811115613fb357613fb3613f34565b604051601f82017fffffffffffffffffffffffffffffffffffffffffffffffffffffffffffffffe0908116603f01168101908382118183101715613ff957613ff9613f34565b8160405282815287602084870101111561401257600080fd5b614023836020830160208801613954565b979650505050505050565b600181811c9082168061404257607f821691505b60208210810361407b577f4e487b7100000000000000000000000000000000000000000000000000000000600052602260045260246000fd5b50919050565b600073ffffffffffffffffffffffffffffffffffffffff80871683528086166020840152508360408301526080606083015261382e6080830184613978565b6000602082840312156140d257600080fd5b8151610b6581613909565b600082516140ef818460208701613954565b919091019291505056fea264697066735822122009ecb9f5bd2cfdbf11f297e8a48bb6641f0a341a1e153f9f691f66809a2caabe64736f6c63430008190033",
  "linkReferences": {},
  "deployedLinkReferences": {}
}