{
  "_format": "hh-sol-artifact-1",
  "contractName": "ERC721FullMintOnceBurn",
  "sourceName": "contracts/token/ERC721/preset/ERC721FullMintOnceBurn.sol",
  "abi": [
    {
      "inputs": [
        {
          "internalType": "string",
          "name": "tokenName",
          "type": "string"
        },
        {
          "internalType": "string",
          "name": "tokenSymbol",
          "type": "string"
        },
        {
          "internalType": "contract ITokenMetadataResolver",
          "name": "metadataResolver",
          "type": "address"
        },
        {
          "internalType": "contract IOperatorFilterRegistry",
          "name": "filterRegistry",
          "type": "address"
        },
        {
          "internalType": "contract IForwarderRegistry",
          "name": "forwarderRegistry",
          "type": "address"
        }
      ],
      "stateMutability": "nonpayable",
      "type": "constructor"
    },
    {
      "inputs": [
        {
          "internalType": "uint256",
          "name": "percentage",
          "type": "uint256"
        }
      ],
      "name": "ERC2981IncorrectRoyaltyPercentage",
      "type": "error"
    },
    {
      "inputs": [],
      "name": "ERC2981IncorrectRoyaltyReceiver",
      "type": "error"
    },
    {
      "inputs": [],
      "name": "ERC721BalanceOfAddressZero",
      "type": "error"
    },
    {
      "inputs": [
        {
          "internalType": "uint256",
          "name": "tokenId",
          "type": "uint256"
        }
      ],
      "name": "ERC721BurntToken",
      "type": "error"
    },
    {
      "inputs": [
        {
          "internalType": "uint256",
          "name": "tokenId",
          "type": "uint256"
        }
      ],
      "name": "ERC721ExistingToken",
      "type": "error"
    },
    {
      "inputs": [],
      "name": "ERC721MintToAddressZero",
      "type": "error"
    },
    {
      "inputs": [
        {
          "internalType": "address",
          "name": "sender",
          "type": "address"
        },
        {
          "internalType": "address",
          "name": "owner",
          "type": "address"
        },
        {
          "internalType": "uint256",
          "name": "tokenId",
          "type": "uint256"
        }
      ],
      "name": "ERC721NonApprovedForApproval",
      "type": "error"
    },
    {
      "inputs": [
        {
          "internalType": "address",
          "name": "sender",
          "type": "address"
        },
        {
          "internalType": "address",
          "name": "owner",
          "type": "address"
        },
        {
          "internalType": "uint256",
          "name": "tokenId",
          "type": "uint256"
        }
      ],
      "name": "ERC721NonApprovedForTransfer",
      "type": "error"
    },
    {
      "inputs": [
        {
          "internalType": "uint256",
          "name": "tokenId",
          "type": "uint256"
        }
      ],
      "name": "ERC721NonExistingToken",
      "type": "error"
    },
    {
      "inputs": [
        {
          "internalType": "address",
          "name": "account",
          "type": "address"
        },
        {
          "internalType": "uint256",
          "name": "tokenId",
          "type": "uint256"
        }
      ],
      "name": "ERC721NonOwnedToken",
      "type": "error"
    },
    {
      "inputs": [
        {
          "internalType": "address",
          "name": "recipient",
          "type": "address"
        },
        {
          "internalType": "uint256",
          "name": "tokenId",
          "type": "uint256"
        }
      ],
      "name": "ERC721SafeTransferRejected",
      "type": "error"
    },
    {
      "inputs": [
        {
          "internalType": "address",
          "name": "account",
          "type": "address"
        }
      ],
      "name": "ERC721SelfApproval",
      "type": "error"
    },
    {
      "inputs": [
        {
          "internalType": "address",
          "name": "account",
          "type": "address"
        }
      ],
      "name": "ERC721SelfApprovalForAll",
      "type": "error"
    },
    {
      "inputs": [],
      "name": "ERC721TransferToAddressZero",
      "type": "error"
    },
    {
      "inputs": [],
      "name": "IllegalInterfaceId",
      "type": "error"
    },
    {
      "inputs": [],
      "name": "InconsistentArrayLengths",
      "type": "error"
    },
    {
      "inputs": [
        {
          "internalType": "address",
          "name": "account",
          "type": "address"
        }
      ],
      "name": "NotContractOwner",
      "type": "error"
    },
    {
      "inputs": [
        {
          "internalType": "bytes32",
          "name": "role",
          "type": "bytes32"
        },
        {
          "internalType": "address",
          "name": "account",
          "type": "address"
        }
      ],
      "name": "NotRoleHolder",
      "type": "error"
    },
    {
      "inputs": [
        {
          "internalType": "address",
          "name": "operator",
          "type": "address"
        }
      ],
      "name": "OperatorNotAllowed",
      "type": "error"
    },
    {
      "anonymous": false,
      "inputs": [
        {
          "indexed": true,
          "internalType": "address",
          "name": "owner",
          "type": "address"
        },
        {
          "indexed": true,
          "internalType": "address",
          "name": "approved",
          "type": "address"
        },
        {
          "indexed": true,
          "internalType": "uint256",
          "name": "tokenId",
          "type": "uint256"
        }
      ],
      "name": "Approval",
      "type": "event"
    },
    {
      "anonymous": false,
      "inputs": [
        {
          "indexed": true,
          "internalType": "address",
          "name": "owner",
          "type": "address"
        },
        {
          "indexed": true,
          "internalType": "address",
          "name": "operator",
          "type": "address"
        },
        {
          "indexed": false,
          "internalType": "bool",
          "name": "approved",
          "type": "bool"
        }
      ],
      "name": "ApprovalForAll",
      "type": "event"
    },
    {
      "anonymous": false,
      "inputs": [
        {
          "indexed": true,
          "internalType": "address",
          "name": "previousOwner",
          "type": "address"
        },
        {
          "indexed": true,
          "internalType": "address",
          "name": "newOwner",
          "type": "address"
        }
      ],
      "name": "OwnershipTransferred",
      "type": "event"
    },
    {
      "anonymous": false,
      "inputs": [
        {
          "indexed": false,
          "internalType": "bytes32",
          "name": "role",
          "type": "bytes32"
        },
        {
          "indexed": false,
          "internalType": "address",
          "name": "account",
          "type": "address"
        },
        {
          "indexed": false,
          "internalType": "address",
          "name": "operator",
          "type": "address"
        }
      ],
      "name": "RoleGranted",
      "type": "event"
    },
    {
      "anonymous": false,
      "inputs": [
        {
          "indexed": false,
          "internalType": "bytes32",
          "name": "role",
          "type": "bytes32"
        },
        {
          "indexed": false,
          "internalType": "address",
          "name": "account",
          "type": "address"
        },
        {
          "indexed": false,
          "internalType": "address",
          "name": "operator",
          "type": "address"
        }
      ],
      "name": "RoleRevoked",
      "type": "event"
    },
    {
      "anonymous": false,
      "inputs": [
        {
          "indexed": true,
          "internalType": "address",
          "name": "from",
          "type": "address"
        },
        {
          "indexed": true,
          "internalType": "address",
          "name": "to",
          "type": "address"
        },
        {
          "indexed": true,
          "internalType": "uint256",
          "name": "tokenId",
          "type": "uint256"
        }
      ],
      "name": "Transfer",
      "type": "event"
    },
    {
      "inputs": [],
      "name": "MINTER_ROLE",
      "outputs": [
        {
          "internalType": "bytes32",
          "name": "",
          "type": "bytes32"
        }
      ],
      "stateMutability": "view",
      "type": "function"
    },
    {
      "inputs": [],
      "name": "ROYALTY_FEE_DENOMINATOR",
      "outputs": [
        {
          "internalType": "uint256",
          "name": "",
          "type": "uint256"
        }
      ],
      "stateMutability": "view",
      "type": "function"
    },
    {
      "inputs": [
        {
          "internalType": "address",
          "name": "to",
          "type": "address"
        },
        {
          "internalType": "uint256",
          "name": "tokenId",
          "type": "uint256"
        }
      ],
      "name": "approve",
      "outputs": [],
      "stateMutability": "nonpayable",
      "type": "function"
    },
    {
      "inputs": [
        {
          "internalType": "address",
          "name": "owner",
          "type": "address"
        }
      ],
      "name": "balanceOf",
      "outputs": [
        {
          "internalType": "uint256",
          "name": "balance",
          "type": "uint256"
        }
      ],
      "stateMutability": "view",
      "type": "function"
    },
    {
      "inputs": [
        {
          "internalType": "address",
          "name": "from",
          "type": "address"
        },
        {
          "internalType": "uint256[]",
          "name": "tokenIds",
          "type": "uint256[]"
        }
      ],
      "name": "batchBurnFrom",
      "outputs": [],
      "stateMutability": "nonpayable",
      "type": "function"
    },
    {
      "inputs": [
        {
          "internalType": "address",
          "name": "to",
          "type": "address"
        },
        {
          "internalType": "uint256[]",
          "name": "tokenIds",
          "type": "uint256[]"
        }
      ],
      "name": "batchMint",
      "outputs": [],
      "stateMutability": "nonpayable",
      "type": "function"
    },
    {
      "inputs": [
        {
          "internalType": "address",
          "name": "from",
          "type": "address"
        },
        {
          "internalType": "address",
          "name": "to",
          "type": "address"
        },
        {
          "internalType": "uint256[]",
          "name": "tokenIds",
          "type": "uint256[]"
        }
      ],
      "name": "batchTransferFrom",
      "outputs": [],
      "stateMutability": "nonpayable",
      "type": "function"
    },
    {
      "inputs": [
        {
          "internalType": "address",
          "name": "from",
          "type": "address"
        },
        {
          "internalType": "uint256",
          "name": "tokenId",
          "type": "uint256"
        }
      ],
      "name": "burnFrom",
      "outputs": [],
      "stateMutability": "nonpayable",
      "type": "function"
    },
    {
      "inputs": [
        {
          "internalType": "address[]",
          "name": "recipients",
          "type": "address[]"
        },
        {
          "internalType": "uint256[]",
          "name": "tokenIds",
          "type": "uint256[]"
        }
      ],
      "name": "deliver",
      "outputs": [],
      "stateMutability": "nonpayable",
      "type": "function"
    },
    {
      "inputs": [],
      "name": "forwarderRegistry",
      "outputs": [
        {
          "internalType": "contract IForwarderRegistry",
          "name": "",
          "type": "address"
        }
      ],
      "stateMutability": "view",
      "type": "function"
    },
    {
      "inputs": [
        {
          "internalType": "uint256",
          "name": "tokenId",
          "type": "uint256"
        }
      ],
      "name": "getApproved",
      "outputs": [
        {
          "internalType": "address",
          "name": "approved",
          "type": "address"
        }
      ],
      "stateMutability": "view",
      "type": "function"
    },
    {
      "inputs": [
        {
          "internalType": "bytes32",
          "name": "role",
          "type": "bytes32"
        },
        {
          "internalType": "address",
          "name": "account",
          "type": "address"
        }
      ],
      "name": "grantRole",
      "outputs": [],
      "stateMutability": "nonpayable",
      "type": "function"
    },
    {
      "inputs": [
        {
          "internalType": "bytes32",
          "name": "role",
          "type": "bytes32"
        },
        {
          "internalType": "address",
          "name": "account",
          "type": "address"
        }
      ],
      "name": "hasRole",
      "outputs": [
        {
          "internalType": "bool",
          "name": "hasRole_",
          "type": "bool"
        }
      ],
      "stateMutability": "view",
      "type": "function"
    },
    {
      "inputs": [
        {
          "internalType": "address",
          "name": "owner",
          "type": "address"
        },
        {
          "internalType": "address",
          "name": "operator",
          "type": "address"
        }
      ],
      "name": "isApprovedForAll",
      "outputs": [
        {
          "internalType": "bool",
          "name": "approvedForAll",
          "type": "bool"
        }
      ],
      "stateMutability": "view",
      "type": "function"
    },
    {
      "inputs": [
        {
          "internalType": "address",
          "name": "forwarder",
          "type": "address"
        }
      ],
      "name": "isTrustedForwarder",
      "outputs": [
        {
          "internalType": "bool",
          "name": "",
          "type": "bool"
        }
      ],
      "stateMutability": "view",
      "type": "function"
    },
    {
      "inputs": [],
      "name": "metadataResolver",
      "outputs": [
        {
          "internalType": "contract ITokenMetadataResolver",
          "name": "tokenMetadataResolver",
          "type": "address"
        }
      ],
      "stateMutability": "view",
      "type": "function"
    },
    {
      "inputs": [
        {
          "internalType": "address",
          "name": "to",
          "type": "address"
        },
        {
          "internalType": "uint256",
          "name": "tokenId",
          "type": "uint256"
        }
      ],
      "name": "mint",
      "outputs": [],
      "stateMutability": "nonpayable",
      "type": "function"
    },
    {
      "inputs": [],
      "name": "name",
      "outputs": [
        {
          "internalType": "string",
          "name": "tokenName",
          "type": "string"
        }
      ],
      "stateMutability": "view",
      "type": "function"
    },
    {
      "inputs": [],
      "name": "operatorFilterRegistry",
      "outputs": [
        {
          "internalType": "contract IOperatorFilterRegistry",
          "name": "",
          "type": "address"
        }
      ],
      "stateMutability": "view",
      "type": "function"
    },
    {
      "inputs": [],
      "name": "owner",
      "outputs": [
        {
          "internalType": "address",
          "name": "",
          "type": "address"
        }
      ],
      "stateMutability": "view",
      "type": "function"
    },
    {
      "inputs": [
        {
          "internalType": "uint256",
          "name": "tokenId",
          "type": "uint256"
        }
      ],
      "name": "ownerOf",
      "outputs": [
        {
          "internalType": "address",
          "name": "tokenOwner",
          "type": "address"
        }
      ],
      "stateMutability": "view",
      "type": "function"
    },
    {
      "inputs": [
        {
          "internalType": "address[]",
          "name": "accounts",
          "type": "address[]"
        },
        {
          "internalType": "contract IERC20[]",
          "name": "tokens",
          "type": "address[]"
        },
        {
          "internalType": "uint256[]",
          "name": "amounts",
          "type": "uint256[]"
        }
      ],
      "name": "recoverERC20s",
      "outputs": [],
      "stateMutability": "nonpayable",
      "type": "function"
    },
    {
      "inputs": [
        {
          "internalType": "address[]",
          "name": "accounts",
          "type": "address[]"
        },
        {
          "internalType": "contract IERC721[]",
          "name": "contracts",
          "type": "address[]"
        },
        {
          "internalType": "uint256[]",
          "name": "tokenIds",
          "type": "uint256[]"
        }
      ],
      "name": "recoverERC721s",
      "outputs": [],
      "stateMutability": "nonpayable",
      "type": "function"
    },
    {
      "inputs": [
        {
          "internalType": "address payable[]",
          "name": "accounts",
          "type": "address[]"
        },
        {
          "internalType": "uint256[]",
          "name": "amounts",
          "type": "uint256[]"
        }
      ],
      "name": "recoverETH",
      "outputs": [],
      "stateMutability": "nonpayable",
      "type": "function"
    },
    {
      "inputs": [
        {
          "internalType": "bytes32",
          "name": "role",
          "type": "bytes32"
        }
      ],
      "name": "renounceRole",
      "outputs": [],
      "stateMutability": "nonpayable",
      "type": "function"
    },
    {
      "inputs": [
        {
          "internalType": "bytes32",
          "name": "role",
          "type": "bytes32"
        },
        {
          "internalType": "address",
          "name": "account",
          "type": "address"
        }
      ],
      "name": "revokeRole",
      "outputs": [],
      "stateMutability": "nonpayable",
      "type": "function"
    },
    {
      "inputs": [
        {
          "internalType": "uint256",
          "name": "tokenId",
          "type": "uint256"
        },
        {
          "internalType": "uint256",
          "name": "salePrice",
          "type": "uint256"
        }
      ],
      "name": "royaltyInfo",
      "outputs": [
        {
          "internalType": "address",
          "name": "receiver",
          "type": "address"
        },
        {
          "internalType": "uint256",
          "name": "royaltyAmount",
          "type": "uint256"
        }
      ],
      "stateMutability": "view",
      "type": "function"
    },
    {
      "inputs": [
        {
          "internalType": "address",
          "name": "to",
          "type": "address"
        },
        {
          "internalType": "uint256",
          "name": "tokenId",
          "type": "uint256"
        },
        {
          "internalType": "bytes",
          "name": "data",
          "type": "bytes"
        }
      ],
      "name": "safeMint",
      "outputs": [],
      "stateMutability": "nonpayable",
      "type": "function"
    },
    {
      "inputs": [
        {
          "internalType": "address",
          "name": "from",
          "type": "address"
        },
        {
          "internalType": "address",
          "name": "to",
          "type": "address"
        },
        {
          "internalType": "uint256",
          "name": "tokenId",
          "type": "uint256"
        }
      ],
      "name": "safeTransferFrom",
      "outputs": [],
      "stateMutability": "nonpayable",
      "type": "function"
    },
    {
      "inputs": [
        {
          "internalType": "address",
          "name": "from",
          "type": "address"
        },
        {
          "internalType": "address",
          "name": "to",
          "type": "address"
        },
        {
          "internalType": "uint256",
          "name": "tokenId",
          "type": "uint256"
        },
        {
          "internalType": "bytes",
          "name": "data",
          "type": "bytes"
        }
      ],
      "name": "safeTransferFrom",
      "outputs": [],
      "stateMutability": "nonpayable",
      "type": "function"
    },
    {
      "inputs": [
        {
          "internalType": "address",
          "name": "operator",
          "type": "address"
        },
        {
          "internalType": "bool",
          "name": "approved",
          "type": "bool"
        }
      ],
      "name": "setApprovalForAll",
      "outputs": [],
      "stateMutability": "nonpayable",
      "type": "function"
    },
    {
      "inputs": [
        {
          "internalType": "uint256",
          "name": "percentage",
          "type": "uint256"
        }
      ],
      "name": "setRoyaltyPercentage",
      "outputs": [],
      "stateMutability": "nonpayable",
      "type": "function"
    },
    {
      "inputs": [
        {
          "internalType": "address",
          "name": "receiver",
          "type": "address"
        }
      ],
      "name": "setRoyaltyReceiver",
      "outputs": [],
      "stateMutability": "nonpayable",
      "type": "function"
    },
    {
      "inputs": [
        {
          "internalType": "bytes4",
          "name": "interfaceId",
          "type": "bytes4"
        }
      ],
      "name": "supportsInterface",
      "outputs": [
        {
          "internalType": "bool",
          "name": "",
          "type": "bool"
        }
      ],
      "stateMutability": "view",
      "type": "function"
    },
    {
      "inputs": [],
      "name": "symbol",
      "outputs": [
        {
          "internalType": "string",
          "name": "tokenSymbol",
          "type": "string"
        }
      ],
      "stateMutability": "view",
      "type": "function"
    },
    {
      "inputs": [
        {
          "internalType": "uint256",
          "name": "tokenId",
          "type": "uint256"
        }
      ],
      "name": "tokenURI",
      "outputs": [
        {
          "internalType": "string",
          "name": "uri",
          "type": "string"
        }
      ],
      "stateMutability": "view",
      "type": "function"
    },
    {
      "inputs": [
        {
          "internalType": "address",
          "name": "from",
          "type": "address"
        },
        {
          "internalType": "address",
          "name": "to",
          "type": "address"
        },
        {
          "internalType": "uint256",
          "name": "tokenId",
          "type": "uint256"
        }
      ],
      "name": "transferFrom",
      "outputs": [],
      "stateMutability": "nonpayable",
      "type": "function"
    },
    {
      "inputs": [
        {
          "internalType": "address",
          "name": "newOwner",
          "type": "address"
        }
      ],
      "name": "transferOwnership",
      "outputs": [],
      "stateMutability": "nonpayable",
      "type": "function"
    },
    {
      "inputs": [
        {
          "internalType": "contract IOperatorFilterRegistry",
          "name": "registry",
          "type": "address"
        }
      ],
      "name": "updateOperatorFilterRegistry",
      "outputs": [],
      "stateMutability": "nonpayable",
      "type": "function"
    },
    {
      "inputs": [
        {
          "internalType": "uint256",
          "name": "tokenId",
          "type": "uint256"
        }
      ],
      "name": "wasBurnt",
      "outputs": [
        {
          "internalType": "bool",
          "name": "tokenWasBurnt",
          "type": "bool"
        }
      ],
      "stateMutability": "view",
      "type": "function"
    }
  ],
  "bytecode": "0x60a06040523480156200001157600080fd5b50604051620047d1380380620047d1833981016040819052620000349162000468565b8080868686863362000051816200004a620000fd565b9062000133565b506200005c620001ae565b62000089816200006b620001c8565b9081546001600160a01b0319166001600160a01b0391909116179055565b5062000094620001f8565b620000ae838383620000a562000210565b92919062000240565b620000b862000287565b50620000c69150506200029f565b620000d0620002b7565b620000da620002cf565b620000e4620002e7565b6001600160a01b03166080525062000693945050505050565b6000806200012d60017fc9ed16f33ab3a66c84bfd83099ccb2a8845871e2e1c1928f63797152f0fd54cd62000514565b92915050565b6001600160a01b038116156200018a5781546001600160a01b0319166001600160a01b03821690811783556040516000907f8be0079c531659141344cd1fd0a4f28419497f9722a3daafe3b4186f6b6457e0908290a35b620001aa6307f5828d60e41b6001620001a2620002fa565b91906200032a565b5050565b620001c66380ac58cd60e01b6001620001a2620002fa565b565b6000806200012d60017f609b85bcafa81ecfaf3ff62cdde2c6c9082a68dbe4922f07399c706bdeb7cd3162000514565b620001c663f3993d1160e01b6001620001a2620002fa565b6000806200012d60017f7ea68fd2dcf1c056b94db6a0a537aa80d26fa9ab1eacd85da1ba0b61b7e7a8a562000514565b836200024d8482620005c7565b50600184016200025e8382620005c7565b5060029390930180546001600160a01b0319166001600160a01b03909416939093179092555050565b620001c6635b5e139f60e01b6001620001a2620002fa565b620001c6638e773e1360e01b6001620001a2620002fa565b620001c6634ed2f41960e11b6001620001a2620002fa565b620001c6638b8b4ef560e01b6001620001a2620002fa565b620001c663152a902d60e11b6001620001a25b6000806200012d60017fca9d3e17f264b0f3984e2634e94adb37fa3e6a8103f06aeae6fa59e21c769f5e62000514565b600160e01b6001600160e01b031983160162000359576040516372c683bb60e01b815260040160405180910390fd5b6001600160e01b03199190911660009081526020929092526040909120805460ff1916911515919091179055565b634e487b7160e01b600052604160045260246000fd5b600082601f830112620003af57600080fd5b81516001600160401b0380821115620003cc57620003cc62000387565b604051601f8301601f19908116603f01168101908282118183101715620003f757620003f762000387565b81604052838152602092508660208588010111156200041557600080fd5b600091505b838210156200043957858201830151818301840152908201906200041a565b6000602085830101528094505050505092915050565b6001600160a01b03811681146200046557600080fd5b50565b600080600080600060a086880312156200048157600080fd5b85516001600160401b03808211156200049957600080fd5b620004a789838a016200039d565b96506020880151915080821115620004be57600080fd5b50620004cd888289016200039d565b9450506040860151620004e0816200044f565b6060870151909350620004f3816200044f565b608087015190925062000506816200044f565b809150509295509295909350565b818103818111156200012d57634e487b7160e01b600052601160045260246000fd5b600181811c908216806200054b57607f821691505b6020821081036200056c57634e487b7160e01b600052602260045260246000fd5b50919050565b601f821115620005c2576000816000526020600020601f850160051c810160208610156200059d5750805b601f850160051c820191505b81811015620005be57828155600101620005a9565b5050505b505050565b81516001600160401b03811115620005e357620005e362000387565b620005fb81620005f4845462000536565b8462000572565b602080601f8311600181146200063357600084156200061a5750858301515b600019600386901b1c1916600185901b178555620005be565b600085815260208120601f198616915b82811015620006645788860151825594840194600190910190840162000643565b5085821015620006835787850151600019600388901b60f8161c191681555b5050505050600190811b01905550565b60805161410d620006c4600039600081816103be0152818161043e015281816133c90152613451015261410d6000f3fe608060405234801561001057600080fd5b50600436106102c85760003560e01c80638da5cb5b1161017b578063c77c6955116100d8578063e985e9c51161008c578063f2fde38b11610071578063f2fde38b14610630578063f3993d1114610643578063f7ba94bd1461065657600080fd5b8063e985e9c51461060a578063f24729651461061d57600080fd5b8063d5391393116100bd578063d5391393146105c6578063d547741f146105ed578063e1a8bf2c1461060057600080fd5b8063c77c6955146105a0578063c87b56dd146105b357600080fd5b8063a0c76f621161012f578063b0ccc31e11610114578063b0ccc31e14610572578063b88d4fde1461057a578063c3666c361461058d57600080fd5b8063a0c76f6214610557578063a22cb4651461055f57600080fd5b806391d148541161016057806391d148541461052957806395d89b411461053c5780639da5e8321461054457600080fd5b80638da5cb5b1461050e5780638dc251e31461051657600080fd5b806342842e0e1161022957806370a08231116101dd57806379cc6790116101c257806379cc6790146104d55780638832e6e3146104e85780638bb9c5bf146104fb57600080fd5b806370a08231146104a157806373c8a958146104c257600080fd5b8063572b6c051161020e578063572b6c051461042e57806361ba27da1461047b5780636352211e1461048e57600080fd5b806342842e0e146104085780634684d7e91461041b57600080fd5b806323b872dd116102805780632b4c9f16116102655780632b4c9f16146103bc5780632f2ff15d146103e257806340c10f19146103f557600080fd5b806323b872dd1461036a5780632a55205a1461037d57600080fd5b8063081812fc116102b1578063081812fc1461030a578063095ea7b314610342578063114ba8ee1461035757600080fd5b806301ffc9a7146102cd57806306fdde03146102f5575b600080fd5b6102e06102db366004613916565b610669565b60405190151581526020015b60405180910390f35b6102fd610683565b6040516102ec91906139a1565b61031d6103183660046139b4565b610692565b60405173ffffffffffffffffffffffffffffffffffffffff90911681526020016102ec565b6103556103503660046139ef565b6106a6565b005b610355610365366004613a1b565b6106f5565b610355610378366004613a38565b610760565b61039061038b366004613a79565b61079e565b6040805173ffffffffffffffffffffffffffffffffffffffff90931683526020830191909152016102ec565b7f000000000000000000000000000000000000000000000000000000000000000061031d565b6103556103f0366004613a9b565b6107c1565b6103556104033660046139ef565b6107f4565b610355610416366004613a38565b610843565b610355610429366004613b10565b610874565b6102e061043c366004613a1b565b7f000000000000000000000000000000000000000000000000000000000000000073ffffffffffffffffffffffffffffffffffffffff90811691161490565b6103556104893660046139b4565b6108e8565b61031d61049c3660046139b4565b610905565b6104b46104af366004613a1b565b610919565b6040519081526020016102ec565b6103556104d0366004613b65565b61092d565b6103556104e33660046139ef565b610a23565b6103556104f6366004613c41565b610a40565b6103556105093660046139b4565b610ac2565b61031d610add565b610355610524366004613a1b565b610b04565b6102e0610537366004613a9b565b610b21565b6102fd610b6c565b610355610552366004613c9d565b610b76565b61031d610c1a565b61035561056d366004613d0b565b610c44565b61031d610c73565b610355610588366004613d39565b610c80565b61035561059b366004613b65565b610cbd565b6102e06105ae3660046139b4565b610e35565b6102fd6105c13660046139b4565b610e49565b6104b47f6d696e746572000000000000000000000000000000000000000000000000000081565b6103556105fb366004613a9b565b610e6c565b6104b4620186a081565b6102e0610618366004613dac565b610e9a565b61035561062b366004613b10565b610ee8565b61035561063e366004613a1b565b610f07565b610355610651366004613dda565b610f22565b610355610664366004613c9d565b610f5c565b600061067d82610677611013565b90611041565b92915050565b606061068d61111b565b905090565b600061067d826106a061112d565b9061115b565b73ffffffffffffffffffffffffffffffffffffffff8216156106d4576106d4826106ce611214565b90611242565b6106f16106df61124c565b83836106e961112d565b929190611256565b5050565b61070e61070061124c565b6107086114d1565b906114ff565b61075d8161071a611214565b9081547fffffffffffffffffffffffff00000000000000000000000000000000000000001673ffffffffffffffffffffffffffffffffffffffff91909116179055565b50565b600061076a61124c565b90506107808185610779611214565b91906115ac565b6107988185858561078f61112d565b939291906115e9565b50505050565b6000806107b584846107ae6118c7565b91906118f5565b915091505b9250929050565b60006107cb61124c565b90506107d9816107086114d1565b6107ef8383836107e761199f565b9291906119cd565b505050565b61082f7f6d696e746572000000000000000000000000000000000000000000000000000061082061124c565b61082861199f565b9190611aa3565b6106f1828261083c61112d565b9190611b29565b600061084d61124c565b905061085c8185610779611214565b6107988185858561086b61112d565b93929190611ca1565b6108a07f6d696e746572000000000000000000000000000000000000000000000000000061082061124c565b6107ef838383808060200260200160405190810160405280939291908181526020018383602002808284376000920191909152506108e1925061112d915050565b9190611ce7565b6108f361070061124c565b61075d816108ff6118c7565b90611eb3565b600061067d8261091361112d565b90611f39565b600061067d8261092761112d565b90611fa2565b61093861070061124c565b8483811415806109485750808214155b1561097f576040517f6582533600000000000000000000000000000000000000000000000000000000815260040160405180910390fd5b60005b81811015610a1957610a1188888381811061099f5761099f613e33565b90506020020160208101906109b49190613a1b565b8585848181106109c6576109c6613e33565b905060200201358888858181106109df576109df613e33565b90506020020160208101906109f49190613a1b565b73ffffffffffffffffffffffffffffffffffffffff16919061201e565b600101610982565b5050505050505050565b6106f1610a2e61124c565b8383610a3861112d565b9291906120ab565b610a6c7f6d696e746572000000000000000000000000000000000000000000000000000061082061124c565b610798610a7761124c565b858585858080601f016020809104026020016040519081016040528093929190818152602001838380828437600092019190915250610ab9925061112d915050565b939291906122f5565b61075d610acd61124c565b82610ad661199f565b919061232b565b600061068d610aea6114d1565b5473ffffffffffffffffffffffffffffffffffffffff1690565b610b0f61070061124c565b61075d81610b1b6118c7565b906123cf565b6000610b658383610b3061199f565b60009283526020908152604080842073ffffffffffffffffffffffffffffffffffffffff909316845291905290205460ff1690565b9392505050565b606061068d61241c565b610ba27f6d696e746572000000000000000000000000000000000000000000000000000061082061124c565b61079884848080602002602001604051908101604052809392919081815260200183836020028082843760009201919091525050604080516020808802828101820190935287825290935087925086918291850190849080828437600092019190915250610c13925061112d915050565b919061242e565b600061068d610c2761264f565b6002015473ffffffffffffffffffffffffffffffffffffffff1690565b8015610c5657610c56826106ce611214565b6106f1610c6161124c565b8383610c6b61112d565b92919061267d565b600061068d610aea611214565b6000610c8a61124c565b9050610c998187610779611214565b610cb5818787878787610caa61112d565b959493929190612795565b505050505050565b610cc861070061124c565b848381141580610cd85750808214155b15610d0f576040517f6582533600000000000000000000000000000000000000000000000000000000815260040160405180910390fd5b60005b81811015610a1957858582818110610d2c57610d2c613e33565b9050602002016020810190610d419190613a1b565b73ffffffffffffffffffffffffffffffffffffffff166323b872dd308a8a85818110610d6f57610d6f613e33565b9050602002016020810190610d849190613a1b565b878786818110610d9657610d96613e33565b6040517fffffffff0000000000000000000000000000000000000000000000000000000060e088901b16815273ffffffffffffffffffffffffffffffffffffffff958616600482015294909316602485015250602090910201356044820152606401600060405180830381600087803b158015610e1257600080fd5b505af1158015610e26573d6000803e3d6000fd5b50505050806001019050610d12565b600061067d82610e4361112d565b9061280b565b6060610e578261091361112d565b5061067d3083610e6561264f565b9190612841565b6000610e7661124c565b9050610e84816107086114d1565b6107ef838383610e9261199f565b929190612901565b6000610b658383610ea961112d565b919073ffffffffffffffffffffffffffffffffffffffff9182166000908152600393909301602090815260408085209290931684525290205460ff1690565b6107ef610ef361124c565b848484610efe61112d565b939291906129cb565b61075d610f1261124c565b82610f1b6114d1565b9190612c56565b6000610f2c61124c565b9050610f3b8186610779611214565b610f558186868686610f4b61112d565b9493929190612d6a565b5050505050565b610f6761070061124c565b82818114610fa1576040517f6582533600000000000000000000000000000000000000000000000000000000815260040160405180910390fd5b60005b81811015610cb55761100b848483818110610fc157610fc1613e33565b90506020020135878784818110610fda57610fda613e33565b9050602002016020810190610fef9190613a1b565b73ffffffffffffffffffffffffffffffffffffffff169061306f565b600101610fa4565b60008061067d60017fca9d3e17f264b0f3984e2634e94adb37fa3e6a8103f06aeae6fa59e21c769f5e613e91565b60007c01000000000000000000000000000000000000000000000000000000007fffffffff000000000000000000000000000000000000000000000000000000008316016110915750600061067d565b7ffe003659000000000000000000000000000000000000000000000000000000007fffffffff000000000000000000000000000000000000000000000000000000008316016110e25750600161067d565b507fffffffff00000000000000000000000000000000000000000000000000000000166000908152602091909152604090205460ff1690565b606061068d61112861264f565b6131c9565b60008061067d60017fddf3ee18ae6d688373c219468f8be446e7ae82215f4779d821c7ea5e8c13c0c1613e91565b60008181526020839052604081205473ffffffffffffffffffffffffffffffffffffffff81166111bf576040517fdd560475000000000000000000000000000000000000000000000000000000008152600481018490526024015b60405180910390fd5b7401000000000000000000000000000000000000000081161561120a575050600081815260028301602052604090205473ffffffffffffffffffffffffffffffffffffffff1661067d565b600091505061067d565b60008061067d60017f609b85bcafa81ecfaf3ff62cdde2c6c9082a68dbe4922f07399c706bdeb7cd31613e91565b6106f1828261325f565b600061068d613386565b60008181526020859052604090205473ffffffffffffffffffffffffffffffffffffffff81166112b5576040517fdd560475000000000000000000000000000000000000000000000000000000008152600481018390526024016111b6565b8073ffffffffffffffffffffffffffffffffffffffff80821690851603611320576040517fb7fdc01000000000000000000000000000000000000000000000000000000000815273ffffffffffffffffffffffffffffffffffffffff821660048201526024016111b6565b61132b8682876134cd565b611388576040517fc7563a1800000000000000000000000000000000000000000000000000000000815273ffffffffffffffffffffffffffffffffffffffff808716600483015282166024820152604481018490526064016111b6565b73ffffffffffffffffffffffffffffffffffffffff84166113ed57740100000000000000000000000000000000000000008216156113e857600083815260208790526040902073ffffffffffffffffffffffffffffffffffffffff821690555b61146e565b74010000000000000000000000000000000000000000821780831461141e5760008481526020889052604090208190555b506000838152600287016020526040902080547fffffffffffffffffffffffff00000000000000000000000000000000000000001673ffffffffffffffffffffffffffffffffffffffff86161790555b828473ffffffffffffffffffffffffffffffffffffffff168273ffffffffffffffffffffffffffffffffffffffff167f8c5be1e5ebec7d5bd14f71427d1e84f3dd0314c0f7b2291e5b200ac8c7c3b92560405160405180910390a4505050505050565b60008061067d60017fc9ed16f33ab3a66c84bfd83099ccb2a8845871e2e1c1928f63797152f0fd54cd613e91565b815473ffffffffffffffffffffffffffffffffffffffff8281169116146106f1576040517f2ef4875e00000000000000000000000000000000000000000000000000000000815273ffffffffffffffffffffffffffffffffffffffff821660048201526024016111b6565b81547fffffffffffffffffffffffff00000000000000000000000000000000000000001673ffffffffffffffffffffffffffffffffffffffff91909116179055565b8073ffffffffffffffffffffffffffffffffffffffff168273ffffffffffffffffffffffffffffffffffffffff16146107ef576107ef838361325f565b73ffffffffffffffffffffffffffffffffffffffff8216611636576040517f86c8706700000000000000000000000000000000000000000000000000000000815260040160405180910390fd5b60008181526020869052604090205473ffffffffffffffffffffffffffffffffffffffff8116611695576040517fdd560475000000000000000000000000000000000000000000000000000000008152600481018390526024016111b6565b73ffffffffffffffffffffffffffffffffffffffff84168173ffffffffffffffffffffffffffffffffffffffff1614611719576040517f14dbb53600000000000000000000000000000000000000000000000000000000815273ffffffffffffffffffffffffffffffffffffffff85166004820152602481018390526044016111b6565b6117248685876134cd565b6117d35774010000000000000000000000000000000000000000811615806117755750600082815260028701602052604090205473ffffffffffffffffffffffffffffffffffffffff868116911614155b156117d3576040517fa4a3018b00000000000000000000000000000000000000000000000000000000815273ffffffffffffffffffffffffffffffffffffffff808716600483015285166024820152604481018390526064016111b6565b600082815260208790526040902073ffffffffffffffffffffffffffffffffffffffff808516918290558516146118645773ffffffffffffffffffffffffffffffffffffffff80851660009081526001808901602052604080832080547fffffffffffffffffffffffffffffffffffffffffffffffffffffffffffffffff0190559286168252919020805490910190555b818373ffffffffffffffffffffffffffffffffffffffff168573ffffffffffffffffffffffffffffffffffffffff167fddf252ad1be2c89b69c2b068fc378daa952ba7f163c4a11628f55a4df523b3ef60405160405180910390a4505050505050565b60008061067d60017f2c0cf10337caabbd02dcf226f05f5fd19a0919a41a8df8958c39b80007826858613e91565b825473ffffffffffffffffffffffffffffffffffffffff8116906000907401000000000000000000000000000000000000000090046bffffffffffffffffffffffff16831580611943575080155b156119515760009150611996565b620186a084101561197b57620186a061196a8286613ea4565b6119749190613ebb565b9150611996565b80611989620186a086613ebb565b6119939190613ea4565b91505b50935093915050565b60008061067d60017fc8827d3282af6f37b64c3e9e6f3ac9df286ab0bb0fccd6f8661bf19adb368b23613e91565b60008381526020858152604080832073ffffffffffffffffffffffffffffffffffffffff8616845290915290205460ff166107985760008381526020858152604080832073ffffffffffffffffffffffffffffffffffffffff8681168086529184529382902080547fffffffffffffffffffffffffffffffffffffffffffffffffffffffffffffff00166001179055815187815292830152918316918101919091527f2f8788117e7eff1d82e926ec794901d17c78024a50270940304540a733656f0d906060015b60405180910390a150505050565b60008281526020848152604080832073ffffffffffffffffffffffffffffffffffffffff8516845290915290205460ff166107ef576040517f7aa728820000000000000000000000000000000000000000000000000000000081526004810183905273ffffffffffffffffffffffffffffffffffffffff821660248201526044016111b6565b73ffffffffffffffffffffffffffffffffffffffff8216611b76576040517f7851b9cd00000000000000000000000000000000000000000000000000000000815260040160405180910390fd5b60008181526020849052604090205473ffffffffffffffffffffffffffffffffffffffff811615611bd6576040517f753eceac000000000000000000000000000000000000000000000000000000008152600481018390526024016111b6565b7fdead0000000000000000000000000000000000000000000000000000000000008103611c32576040517f31e8d3d5000000000000000000000000000000000000000000000000000000008152600481018390526024016111b6565b60008281526020858152604080832073ffffffffffffffffffffffffffffffffffffffff87169081905580845260018089019093528184208054909301909255518492907fddf252ad1be2c89b69c2b068fc378daa952ba7f163c4a11628f55a4df523b3ef908290a450505050565b611cae85858585856115e9565b73ffffffffffffffffffffffffffffffffffffffff82163b15610f5557610f558484848460405180602001604052806000815250613542565b73ffffffffffffffffffffffffffffffffffffffff8216611d34576040517f7851b9cd00000000000000000000000000000000000000000000000000000000815260040160405180910390fd5b805160005b81811015611e7e576000838281518110611d5557611d55613e33565b60209081029190910181015160008181529188905260409091205490915073ffffffffffffffffffffffffffffffffffffffff811615611dc4576040517f753eceac000000000000000000000000000000000000000000000000000000008152600481018390526024016111b6565b7fdead0000000000000000000000000000000000000000000000000000000000008103611e20576040517f31e8d3d5000000000000000000000000000000000000000000000000000000008152600481018390526024016111b6565b60008281526020889052604080822073ffffffffffffffffffffffffffffffffffffffff89169081905590518492907fddf252ad1be2c89b69c2b068fc378daa952ba7f163c4a11628f55a4df523b3ef908290a45050600101611d39565b5073ffffffffffffffffffffffffffffffffffffffff9092166000908152600190930160205250604090912080549091019055565b620186a0811115611ef3576040517fac040408000000000000000000000000000000000000000000000000000000008152600481018290526024016111b6565b81546bffffffffffffffffffffffff909116740100000000000000000000000000000000000000000273ffffffffffffffffffffffffffffffffffffffff909116179055565b60008181526020839052604081205473ffffffffffffffffffffffffffffffffffffffff8116611f98576040517fdd560475000000000000000000000000000000000000000000000000000000008152600481018490526024016111b6565b805b949350505050565b600073ffffffffffffffffffffffffffffffffffffffff8216611ff1576040517faefbce4e00000000000000000000000000000000000000000000000000000000815260040160405180910390fd5b5073ffffffffffffffffffffffffffffffffffffffff166000908152600191909101602052604090205490565b6040805173ffffffffffffffffffffffffffffffffffffffff8416602482015260448082018490528251808303909101815260649091019091526020810180517bffffffffffffffffffffffffffffffffffffffffffffffffffffffff167fa9059cbb000000000000000000000000000000000000000000000000000000001790526107ef908490613657565b60008181526020859052604090205473ffffffffffffffffffffffffffffffffffffffff811661210a576040517fdd560475000000000000000000000000000000000000000000000000000000008152600481018390526024016111b6565b73ffffffffffffffffffffffffffffffffffffffff83168173ffffffffffffffffffffffffffffffffffffffff161461218e576040517f14dbb53600000000000000000000000000000000000000000000000000000000815273ffffffffffffffffffffffffffffffffffffffff84166004820152602481018390526044016111b6565b6121998584866134cd565b6122485774010000000000000000000000000000000000000000811615806121ea5750600082815260028601602052604090205473ffffffffffffffffffffffffffffffffffffffff858116911614155b15612248576040517fa4a3018b00000000000000000000000000000000000000000000000000000000815273ffffffffffffffffffffffffffffffffffffffff808616600483015284166024820152604481018390526064016111b6565b6000828152602086815260408083207fdead000000000000000000000000000000000000000000000000000000000000905573ffffffffffffffffffffffffffffffffffffffff86168084526001890190925280832080547fffffffffffffffffffffffffffffffffffffffffffffffffffffffffffffffff01905551849291907fddf252ad1be2c89b69c2b068fc378daa952ba7f163c4a11628f55a4df523b3ef908390a45050505050565b612300858484611b29565b73ffffffffffffffffffffffffffffffffffffffff83163b15610f5557610f55846000858585613542565b612336838284611aa3565b60008181526020848152604080832073ffffffffffffffffffffffffffffffffffffffff86168085529083529281902080547fffffffffffffffffffffffffffffffffffffffffffffffffffffffffffffff0016905580518481529182018390528101919091527ff6391f5c32d9c69d2a47ea670b442974b53935d1edc7fd64eb21e047a839171b9060600160405180910390a1505050565b73ffffffffffffffffffffffffffffffffffffffff811661156a576040517f16de0c8000000000000000000000000000000000000000000000000000000000815260040160405180910390fd5b606061068d61242961264f565b613766565b81518151811461246a576040517f6582533600000000000000000000000000000000000000000000000000000000815260040160405180910390fd5b60005b81811015610f5557600084828151811061248957612489613e33565b60200260200101519050600073ffffffffffffffffffffffffffffffffffffffff168173ffffffffffffffffffffffffffffffffffffffff16036124f9576040517f7851b9cd00000000000000000000000000000000000000000000000000000000815260040160405180910390fd5b600084838151811061250d5761250d613e33565b60209081029190910181015160008181529189905260409091205490915073ffffffffffffffffffffffffffffffffffffffff81161561257c576040517f753eceac000000000000000000000000000000000000000000000000000000008152600481018390526024016111b6565b7fdead00000000000000000000000000000000000000000000000000000000000081036125d8576040517f31e8d3d5000000000000000000000000000000000000000000000000000000008152600481018390526024016111b6565b60008281526020898152604080832073ffffffffffffffffffffffffffffffffffffffff8716908190558084526001808d019093528184208054909301909255518492907fddf252ad1be2c89b69c2b068fc378daa952ba7f163c4a11628f55a4df523b3ef908290a450505080600101905061246d565b60008061067d60017f7ea68fd2dcf1c056b94db6a0a537aa80d26fa9ab1eacd85da1ba0b61b7e7a8a5613e91565b8273ffffffffffffffffffffffffffffffffffffffff168273ffffffffffffffffffffffffffffffffffffffff16036126fa576040517fe4215c6a00000000000000000000000000000000000000000000000000000000815273ffffffffffffffffffffffffffffffffffffffff841660048201526024016111b6565b73ffffffffffffffffffffffffffffffffffffffff838116600081815260038701602090815260408083209487168084529482529182902080547fffffffffffffffffffffffffffffffffffffffffffffffffffffffffffffff001686151590811790915591519182527f17307eab39ab6107e8899845ad3d59bd9653f200f220920489ca2b5937696c31910160405180910390a350505050565b6127a287878787876115e9565b73ffffffffffffffffffffffffffffffffffffffff84163b15612802576128028686868686868080601f01602080910402602001604051908101604052809392919081815260200183838082843760009201919091525061354292505050565b50505050505050565b6000818152602083905260408120547fdead00000000000000000000000000000000000000000000000000000000000014610b65565b60028301546040517ff724dad700000000000000000000000000000000000000000000000000000000815273ffffffffffffffffffffffffffffffffffffffff848116600483015260248201849052606092169063f724dad790604401600060405180830381865afa1580156128bb573d6000803e3d6000fd5b505050506040513d6000823e601f3d9081017fffffffffffffffffffffffffffffffffffffffffffffffffffffffffffffffe0168201604052611f9a9190810190613f25565b60008381526020858152604080832073ffffffffffffffffffffffffffffffffffffffff8616845290915290205460ff16156107985760008381526020858152604080832073ffffffffffffffffffffffffffffffffffffffff8681168086529184529382902080547fffffffffffffffffffffffffffffffffffffffffffffffffffffffffffffff00169055815187815292830152918316918101919091527ff6391f5c32d9c69d2a47ea670b442974b53935d1edc7fd64eb21e047a839171b90606001611a95565b60006129d88685876134cd565b90508160005b81811015612c185760008585838181106129fa576129fa613e33565b602090810292909201356000818152928c90526040909220549192505073ffffffffffffffffffffffffffffffffffffffff8116612a67576040517fdd560475000000000000000000000000000000000000000000000000000000008152600481018390526024016111b6565b73ffffffffffffffffffffffffffffffffffffffff88168173ffffffffffffffffffffffffffffffffffffffff1614612aeb576040517f14dbb53600000000000000000000000000000000000000000000000000000000815273ffffffffffffffffffffffffffffffffffffffff89166004820152602481018390526044016111b6565b84612b9b577401000000000000000000000000000000000000000081161580612b3d5750600082815260028b01602052604090205473ffffffffffffffffffffffffffffffffffffffff8a8116911614155b15612b9b576040517fa4a3018b00000000000000000000000000000000000000000000000000000000815273ffffffffffffffffffffffffffffffffffffffff808b16600483015289166024820152604481018390526064016111b6565b600082815260208b905260408082207fdead00000000000000000000000000000000000000000000000000000000000090555183919073ffffffffffffffffffffffffffffffffffffffff8b16907fddf252ad1be2c89b69c2b068fc378daa952ba7f163c4a11628f55a4df523b3ef908390a450506001016129de565b5080156128025773ffffffffffffffffffffffffffffffffffffffff8516600090815260018801602052604090208054829003905550505050505050565b825473ffffffffffffffffffffffffffffffffffffffff9081169083168114612cc3576040517f2ef4875e00000000000000000000000000000000000000000000000000000000815273ffffffffffffffffffffffffffffffffffffffff841660048201526024016111b6565b8173ffffffffffffffffffffffffffffffffffffffff168173ffffffffffffffffffffffffffffffffffffffff16146107985783547fffffffffffffffffffffffff00000000000000000000000000000000000000001673ffffffffffffffffffffffffffffffffffffffff8381169182178655604051908316907f8be0079c531659141344cd1fd0a4f28419497f9722a3daafe3b4186f6b6457e090600090a350505050565b73ffffffffffffffffffffffffffffffffffffffff8316612db7576040517f86c8706700000000000000000000000000000000000000000000000000000000815260040160405180910390fd5b6000612dc48786886134cd565b90508160005b81811015612fe8576000858583818110612de657612de6613e33565b602090810292909201356000818152928d90526040909220549192505073ffffffffffffffffffffffffffffffffffffffff8116612e53576040517fdd560475000000000000000000000000000000000000000000000000000000008152600481018390526024016111b6565b73ffffffffffffffffffffffffffffffffffffffff89168173ffffffffffffffffffffffffffffffffffffffff1614612ed7576040517f14dbb53600000000000000000000000000000000000000000000000000000000815273ffffffffffffffffffffffffffffffffffffffff8a166004820152602481018390526044016111b6565b84612f87577401000000000000000000000000000000000000000081161580612f295750600082815260028c01602052604090205473ffffffffffffffffffffffffffffffffffffffff8b8116911614155b15612f87576040517fa4a3018b00000000000000000000000000000000000000000000000000000000815273ffffffffffffffffffffffffffffffffffffffff808c1660048301528a166024820152604481018390526064016111b6565b600082815260208c9052604080822073ffffffffffffffffffffffffffffffffffffffff808c16918290559151859391928d16917fddf252ad1be2c89b69c2b068fc378daa952ba7f163c4a11628f55a4df523b3ef91a45050600101612dca565b508473ffffffffffffffffffffffffffffffffffffffff168673ffffffffffffffffffffffffffffffffffffffff161415801561302457508015155b15610a195773ffffffffffffffffffffffffffffffffffffffff808716600090815260018a016020526040808220805485900390559187168152208054820190555050505050505050565b804710156130d9576040517f08c379a000000000000000000000000000000000000000000000000000000000815260206004820152601d60248201527f416464726573733a20696e73756666696369656e742062616c616e636500000060448201526064016111b6565b60008273ffffffffffffffffffffffffffffffffffffffff168260405160006040518083038185875af1925050503d8060008114613133576040519150601f19603f3d011682016040523d82523d6000602084013e613138565b606091505b50509050806107ef576040517f08c379a000000000000000000000000000000000000000000000000000000000815260206004820152603a60248201527f416464726573733a20756e61626c6520746f2073656e642076616c75652c207260448201527f6563697069656e74206d6179206861766520726576657274656400000000000060648201526084016111b6565b60608160000180546131da90613fe5565b80601f016020809104026020016040519081016040528092919081815260200182805461320690613fe5565b80156132535780601f1061322857610100808354040283529160200191613253565b820191906000526020600020905b81548152906001019060200180831161323657829003601f168201915b50505050509050919050565b815473ffffffffffffffffffffffffffffffffffffffff16801580159061329d575060008173ffffffffffffffffffffffffffffffffffffffff163b115b156107ef576040517fc617113400000000000000000000000000000000000000000000000000000000815230600482015273ffffffffffffffffffffffffffffffffffffffff838116602483015282169063c617113490604401602060405180830381865afa158015613314573d6000803e3d6000fd5b505050506040513d601f19601f820116820180604052508101906133389190614038565b6107ef576040517fede71dcc00000000000000000000000000000000000000000000000000000000815273ffffffffffffffffffffffffffffffffffffffff831660048201526024016111b6565b6000333214806133965750601836105b156133a057503390565b7fffffffffffffffffffffffffffffffffffffffffffffffffffffffffffffffec36013560601c7f000000000000000000000000000000000000000000000000000000000000000073ffffffffffffffffffffffffffffffffffffffff163314806134bc57506040517f8929a8ca00000000000000000000000000000000000000000000000000000000815273ffffffffffffffffffffffffffffffffffffffff82811660048301523360248301527f00000000000000000000000000000000000000000000000000000000000000001690638929a8ca90604401602060405180830381865afa158015613498573d6000803e3d6000fd5b505050506040513d601f19601f820116820180604052508101906134bc9190614038565b156134c657919050565b3391505090565b60008173ffffffffffffffffffffffffffffffffffffffff168373ffffffffffffffffffffffffffffffffffffffff161480611f9a57505073ffffffffffffffffffffffffffffffffffffffff9182166000908152600393909301602090815260408085209290931684525290205460ff1690565b6040517f150b7a02000000000000000000000000000000000000000000000000000000008082529073ffffffffffffffffffffffffffffffffffffffff85169063150b7a029061359c908990899088908890600401614055565b6020604051808303816000875af11580156135bb573d6000803e3d6000fd5b505050506040513d601f19601f820116820180604052508101906135df919061409e565b7fffffffff000000000000000000000000000000000000000000000000000000001614610f55576040517fc215a7a100000000000000000000000000000000000000000000000000000000815273ffffffffffffffffffffffffffffffffffffffff84166004820152602481018390526044016111b6565b60006136b9826040518060400160405280602081526020017f5361666545524332303a206c6f772d6c6576656c2063616c6c206661696c65648152508573ffffffffffffffffffffffffffffffffffffffff166137779092919063ffffffff16565b90508051600014806136da5750808060200190518101906136da9190614038565b6107ef576040517f08c379a000000000000000000000000000000000000000000000000000000000815260206004820152602a60248201527f5361666545524332303a204552433230206f7065726174696f6e20646964206e60448201527f6f7420737563636565640000000000000000000000000000000000000000000060648201526084016111b6565b60608160010180546131da90613fe5565b6060611f9a8484600085856000808673ffffffffffffffffffffffffffffffffffffffff1685876040516137ab91906140bb565b60006040518083038185875af1925050503d80600081146137e8576040519150601f19603f3d011682016040523d82523d6000602084013e6137ed565b606091505b50915091506137fe87838387613809565b979650505050505050565b6060831561389f5782516000036138985773ffffffffffffffffffffffffffffffffffffffff85163b613898576040517f08c379a000000000000000000000000000000000000000000000000000000000815260206004820152601d60248201527f416464726573733a2063616c6c20746f206e6f6e2d636f6e747261637400000060448201526064016111b6565b5081611f9a565b611f9a83838151156138b45781518083602001fd5b806040517f08c379a00000000000000000000000000000000000000000000000000000000081526004016111b691906139a1565b7fffffffff000000000000000000000000000000000000000000000000000000008116811461075d57600080fd5b60006020828403121561392857600080fd5b8135610b65816138e8565b60005b8381101561394e578181015183820152602001613936565b50506000910152565b6000815180845261396f816020860160208601613933565b601f017fffffffffffffffffffffffffffffffffffffffffffffffffffffffffffffffe0169290920160200192915050565b602081526000610b656020830184613957565b6000602082840312156139c657600080fd5b5035919050565b73ffffffffffffffffffffffffffffffffffffffff8116811461075d57600080fd5b60008060408385031215613a0257600080fd5b8235613a0d816139cd565b946020939093013593505050565b600060208284031215613a2d57600080fd5b8135610b65816139cd565b600080600060608486031215613a4d57600080fd5b8335613a58816139cd565b92506020840135613a68816139cd565b929592945050506040919091013590565b60008060408385031215613a8c57600080fd5b50508035926020909101359150565b60008060408385031215613aae57600080fd5b823591506020830135613ac0816139cd565b809150509250929050565b60008083601f840112613add57600080fd5b50813567ffffffffffffffff811115613af557600080fd5b6020830191508360208260051b85010111156107ba57600080fd5b600080600060408486031215613b2557600080fd5b8335613b30816139cd565b9250602084013567ffffffffffffffff811115613b4c57600080fd5b613b5886828701613acb565b9497909650939450505050565b60008060008060008060608789031215613b7e57600080fd5b863567ffffffffffffffff80821115613b9657600080fd5b613ba28a838b01613acb565b90985096506020890135915080821115613bbb57600080fd5b613bc78a838b01613acb565b90965094506040890135915080821115613be057600080fd5b50613bed89828a01613acb565b979a9699509497509295939492505050565b60008083601f840112613c1157600080fd5b50813567ffffffffffffffff811115613c2957600080fd5b6020830191508360208285010111156107ba57600080fd5b60008060008060608587031215613c5757600080fd5b8435613c62816139cd565b935060208501359250604085013567ffffffffffffffff811115613c8557600080fd5b613c9187828801613bff565b95989497509550505050565b60008060008060408587031215613cb357600080fd5b843567ffffffffffffffff80821115613ccb57600080fd5b613cd788838901613acb565b90965094506020870135915080821115613cf057600080fd5b50613c9187828801613acb565b801515811461075d57600080fd5b60008060408385031215613d1e57600080fd5b8235613d29816139cd565b91506020830135613ac081613cfd565b600080600080600060808688031215613d5157600080fd5b8535613d5c816139cd565b94506020860135613d6c816139cd565b935060408601359250606086013567ffffffffffffffff811115613d8f57600080fd5b613d9b88828901613bff565b969995985093965092949392505050565b60008060408385031215613dbf57600080fd5b8235613dca816139cd565b91506020830135613ac0816139cd565b60008060008060608587031215613df057600080fd5b8435613dfb816139cd565b93506020850135613e0b816139cd565b9250604085013567ffffffffffffffff811115613e2757600080fd5b613c9187828801613acb565b7f4e487b7100000000000000000000000000000000000000000000000000000000600052603260045260246000fd5b7f4e487b7100000000000000000000000000000000000000000000000000000000600052601160045260246000fd5b8181038181111561067d5761067d613e62565b808202811582820484141761067d5761067d613e62565b600082613ef1577f4e487b7100000000000000000000000000000000000000000000000000000000600052601260045260246000fd5b500490565b7f4e487b7100000000000000000000000000000000000000000000000000000000600052604160045260246000fd5b600060208284031215613f3757600080fd5b815167ffffffffffffffff80821115613f4f57600080fd5b818401915084601f830112613f6357600080fd5b815181811115613f7557613f75613ef6565b604051601f82017fffffffffffffffffffffffffffffffffffffffffffffffffffffffffffffffe0908116603f01168101908382118183101715613fbb57613fbb613ef6565b81604052828152876020848701011115613fd457600080fd5b6137fe836020830160208801613933565b600181811c90821680613ff957607f821691505b602082108103614032577f4e487b7100000000000000000000000000000000000000000000000000000000600052602260045260246000fd5b50919050565b60006020828403121561404a57600080fd5b8151610b6581613cfd565b600073ffffffffffffffffffffffffffffffffffffffff8087168352808616602084015250836040830152608060608301526140946080830184613957565b9695505050505050565b6000602082840312156140b057600080fd5b8151610b65816138e8565b600082516140cd818460208701613933565b919091019291505056fea26469706673582212202757eb868755dbc4abece70f8b36fa0a880a7062e6155b6c9530f42248118bfb64736f6c63430008160033",
  "linkReferences": {},
  "deployedLinkReferences": {}
}