{
  "_format": "hh-sol-artifact-1",
  "contractName": "ERC721DeliverableFacet",
  "sourceName": "contracts/token/ERC721/facets/ERC721DeliverableFacet.sol",
  "abi": [
    {
      "inputs": [
        {
          "internalType": "contract IForwarderRegistry",
          "name": "forwarderRegistry",
          "type": "address"
        }
      ],
      "stateMutability": "nonpayable",
      "type": "constructor"
    },
    {
      "inputs": [
        {
          "internalType": "uint256",
          "name": "tokenId",
          "type": "uint256"
        }
      ],
      "name": "ERC721ExistingToken",
      "type": "error"
    },
    {
      "inputs": [],
      "name": "ERC721MintToAddressZero",
      "type": "error"
    },
    {
      "inputs": [],
      "name": "IllegalInterfaceId",
      "type": "error"
    },
    {
      "inputs": [],
      "name": "InconsistentArrayLengths",
      "type": "error"
    },
    {
      "inputs": [
        {
          "internalType": "address",
          "name": "account",
          "type": "address"
        }
      ],
      "name": "NotProxyAdmin",
      "type": "error"
    },
    {
      "inputs": [
        {
          "internalType": "bytes32",
          "name": "role",
          "type": "bytes32"
        },
        {
          "internalType": "address",
          "name": "account",
          "type": "address"
        }
      ],
      "name": "NotRoleHolder",
      "type": "error"
    },
    {
      "anonymous": false,
      "inputs": [
        {
          "indexed": true,
          "internalType": "address",
          "name": "from",
          "type": "address"
        },
        {
          "indexed": true,
          "internalType": "address",
          "name": "to",
          "type": "address"
        },
        {
          "indexed": true,
          "internalType": "uint256",
          "name": "tokenId",
          "type": "uint256"
        }
      ],
      "name": "Transfer",
      "type": "event"
    },
    {
      "inputs": [
        {
          "internalType": "address[]",
          "name": "recipients",
          "type": "address[]"
        },
        {
          "internalType": "uint256[]",
          "name": "tokenIds",
          "type": "uint256[]"
        }
      ],
      "name": "deliver",
      "outputs": [],
      "stateMutability": "nonpayable",
      "type": "function"
    },
    {
      "inputs": [],
      "name": "initERC721DeliverableStorage",
      "outputs": [],
      "stateMutability": "nonpayable",
      "type": "function"
    }
  ],
  "bytecode": "0x60a0604052348015600f57600080fd5b50604051610921380380610921833981016040819052602c91603c565b6001600160a01b0316608052606a565b600060208284031215604d57600080fd5b81516001600160a01b0381168114606357600080fd5b9392505050565b60805161089561008c600039600081816103e7015261047501526108956000f3fe608060405234801561001057600080fd5b50600436106100365760003560e01c80639da5e8321461003b578063a330f88d14610050575b600080fd5b61004e610049366004610761565b610058565b005b61004e610111565b6100937f6d696e7465720000000000000000000000000000000000000000000000000000610084610134565b61008c610143565b9190610177565b61010b848480806020026020016040519081016040528093929190818152602001838360200280828437600092019190915250506040805160208088028281018201909352878252909350879250869182918501908490808284376000920191909152506101049250610207915050565b9190610235565b50505050565b61012a61011c610134565b6101246102d2565b90610300565b61013261036f565b565b600061013e6103a4565b905090565b60008061017160017fc8827d3282af6f37b64c3e9e6f3ac9df286ab0bb0fccd6f8661bf19adb368b236107cd565b92915050565b60008281526020848152604080832073ffffffffffffffffffffffffffffffffffffffff8516845290915290205460ff16610202576040517f7aa728820000000000000000000000000000000000000000000000000000000081526004810183905273ffffffffffffffffffffffffffffffffffffffff821660248201526044015b60405180910390fd5b505050565b60008061017160017fddf3ee18ae6d688373c219468f8be446e7ae82215f4779d821c7ea5e8c13c0c16107cd565b815181518114610271576040517f6582533600000000000000000000000000000000000000000000000000000000815260040160405180910390fd5b60005b818110156102cb576102c384828151811061029157610291610807565b60200260200101518483815181106102ab576102ab610807565b6020026020010151876104f19092919063ffffffff16565b600101610274565b5050505050565b60008061017160017fb53127684a568b3173ae13b9f8a6016e243e63b6e8ee1178d6a717850b5d61046107cd565b815473ffffffffffffffffffffffffffffffffffffffff82811691161461036b576040517f673a31a100000000000000000000000000000000000000000000000000000000815273ffffffffffffffffffffffffffffffffffffffff821660048201526024016101f9565b5050565b6101327f9da5e83200000000000000000000000000000000000000000000000000000000600161039d61060b565b9190610639565b6000333214806103b45750601836105b156103be57503390565b7fffffffffffffffffffffffffffffffffffffffffffffffffffffffffffffffec36013560601c7f000000000000000000000000000000000000000000000000000000000000000073ffffffffffffffffffffffffffffffffffffffff163314806104e057506040517f019a202800000000000000000000000000000000000000000000000000000000815273ffffffffffffffffffffffffffffffffffffffff82811660048301523360248301523060448301527f0000000000000000000000000000000000000000000000000000000000000000169063019a202890606401602060405180830381865afa1580156104bc573d6000803e3d6000fd5b505050506040513d601f19601f820116820180604052508101906104e09190610836565b156104ea57919050565b3391505090565b73ffffffffffffffffffffffffffffffffffffffff821661053e576040517f7851b9cd00000000000000000000000000000000000000000000000000000000815260040160405180910390fd5b60008181526020849052604090205473ffffffffffffffffffffffffffffffffffffffff161561059d576040517f753eceac000000000000000000000000000000000000000000000000000000008152600481018290526024016101f9565b60008181526020848152604080832073ffffffffffffffffffffffffffffffffffffffff86169081905580845260018088019093528184208054909301909255518392907fddf252ad1be2c89b69c2b068fc378daa952ba7f163c4a11628f55a4df523b3ef908290a4505050565b60008061017160017fca9d3e17f264b0f3984e2634e94adb37fa3e6a8103f06aeae6fa59e21c769f5e6107cd565b7c01000000000000000000000000000000000000000000000000000000007fffffffff000000000000000000000000000000000000000000000000000000008316016106b1576040517f72c683bb00000000000000000000000000000000000000000000000000000000815260040160405180910390fd5b7fffffffff00000000000000000000000000000000000000000000000000000000919091166000908152602092909252604090912080547fffffffffffffffffffffffffffffffffffffffffffffffffffffffffffffff0016911515919091179055565b60008083601f84011261072757600080fd5b50813567ffffffffffffffff81111561073f57600080fd5b6020830191508360208260051b850101111561075a57600080fd5b9250929050565b6000806000806040858703121561077757600080fd5b843567ffffffffffffffff8082111561078f57600080fd5b61079b88838901610715565b909650945060208701359150808211156107b457600080fd5b506107c187828801610715565b95989497509550505050565b81810381811115610171577f4e487b7100000000000000000000000000000000000000000000000000000000600052601160045260246000fd5b7f4e487b7100000000000000000000000000000000000000000000000000000000600052603260045260246000fd5b60006020828403121561084857600080fd5b8151801515811461085857600080fd5b939250505056fea264697066735822122056f09e09d43ea179806d21d5fca545c050903cce720fb25acc1c6c02a8e7186a64736f6c63430008190033",
  "linkReferences": {},
  "deployedLinkReferences": {}
}