{
  "_format": "hh-sol-artifact-1",
  "contractName": "TokenRecoveryMock",
  "sourceName": "contracts/mocks/security/RecoverableMock.sol",
  "abi": [
    {
      "inputs": [
        {
          "internalType": "contract IForwarderRegistry",
          "name": "forwarderRegistry",
          "type": "address"
        }
      ],
      "stateMutability": "nonpayable",
      "type": "constructor"
    },
    {
      "anonymous": false,
      "inputs": [
        {
          "indexed": true,
          "internalType": "address",
          "name": "previousOwner",
          "type": "address"
        },
        {
          "indexed": true,
          "internalType": "address",
          "name": "newOwner",
          "type": "address"
        }
      ],
      "name": "OwnershipTransferred",
      "type": "event"
    },
    {
      "inputs": [],
      "name": "__msgData",
      "outputs": [
        {
          "internalType": "bytes",
          "name": "",
          "type": "bytes"
        }
      ],
      "stateMutability": "view",
      "type": "function"
    },
    {
      "inputs": [],
      "name": "owner",
      "outputs": [
        {
          "internalType": "address",
          "name": "",
          "type": "address"
        }
      ],
      "stateMutability": "view",
      "type": "function"
    },
    {
      "inputs": [
        {
          "internalType": "address[]",
          "name": "accounts",
          "type": "address[]"
        },
        {
          "internalType": "address[]",
          "name": "tokens",
          "type": "address[]"
        },
        {
          "internalType": "uint256[]",
          "name": "amounts",
          "type": "uint256[]"
        }
      ],
      "name": "recoverERC20s",
      "outputs": [],
      "stateMutability": "nonpayable",
      "type": "function"
    },
    {
      "inputs": [
        {
          "internalType": "address[]",
          "name": "accounts",
          "type": "address[]"
        },
        {
          "internalType": "address[]",
          "name": "contracts",
          "type": "address[]"
        },
        {
          "internalType": "uint256[]",
          "name": "tokenIds",
          "type": "uint256[]"
        }
      ],
      "name": "recoverERC721s",
      "outputs": [],
      "stateMutability": "nonpayable",
      "type": "function"
    },
    {
      "inputs": [
        {
          "internalType": "address payable[]",
          "name": "accounts",
          "type": "address[]"
        },
        {
          "internalType": "uint256[]",
          "name": "amounts",
          "type": "uint256[]"
        }
      ],
      "name": "recoverETH",
      "outputs": [],
      "stateMutability": "nonpayable",
      "type": "function"
    },
    {
      "inputs": [
        {
          "internalType": "bytes4",
          "name": "interfaceId",
          "type": "bytes4"
        }
      ],
      "name": "supportsInterface",
      "outputs": [
        {
          "internalType": "bool",
          "name": "",
          "type": "bool"
        }
      ],
      "stateMutability": "view",
      "type": "function"
    },
    {
      "inputs": [
        {
          "internalType": "address",
          "name": "newOwner",
          "type": "address"
        }
      ],
      "name": "transferOwnership",
      "outputs": [],
      "stateMutability": "nonpayable",
      "type": "function"
    },
    {
      "stateMutability": "payable",
      "type": "receive"
    }
  ],
  "bytecode": "0x60a06040523480156200001157600080fd5b50604051620018b5380380620018b58339810160408190526200003491620001fe565b80336200006481620000506200007860201b620005ea1760201c565b620000ae60201b620006181790919060201c565b506001600160a01b03166080525062000256565b600080620000a860017fc9ed16f33ab3a66c84bfd83099ccb2a8845871e2e1c1928f63797152f0fd54cd62000230565b92915050565b6001600160a01b03811615620001055781546001600160a01b0319166001600160a01b03821690811783556040516000907f8be0079c531659141344cd1fd0a4f28419497f9722a3daafe3b4186f6b6457e0908290a35b6200013d6307f5828d60e41b6001620001286200014160201b620006d91760201c565b6200017160201b62000707179092919060201c565b5050565b600080620000a860017fca9d3e17f264b0f3984e2634e94adb37fa3e6a8103f06aeae6fa59e21c769f5e62000230565b6001600160e01b03198083169003620001d05760405162461bcd60e51b815260206004820152601f60248201527f496e74657266616365446574656374696f6e3a2077726f6e672076616c756500604482015260640160405180910390fd5b6001600160e01b03199190911660009081526020929092526040909120805460ff1916911515919091179055565b6000602082840312156200021157600080fd5b81516001600160a01b03811681146200022957600080fd5b9392505050565b6000828210156200025157634e487b7160e01b600052601160045260246000fd5b500390565b60805161162e6200028760003960008181610c7e01528181610ce801528181610e260152610ec6015261162e6000f3fe6080604052600436106100745760003560e01c80638da5cb5b1161004e5780638da5cb5b146100fa578063c3666c3614610134578063f2fde38b14610154578063f7ba94bd1461017457600080fd5b806301ffc9a71461008057806331e66e1e146100b557806373c8a958146100d857600080fd5b3661007b57005b600080fd5b34801561008c57600080fd5b506100a061009b366004611223565b610194565b60405190151581526020015b60405180910390f35b3480156100c157600080fd5b506100ca6101ae565b6040516100ac929190611265565b3480156100e457600080fd5b506100f86100f33660046112fe565b6101c1565b005b34801561010657600080fd5b5061010f6102ff565b60405173ffffffffffffffffffffffffffffffffffffffff90911681526020016100ac565b34801561014057600080fd5b506100f861014f3660046112fe565b61032b565b34801561016057600080fd5b506100f861016f3660046113ba565b6104d6565b34801561018057600080fd5b506100f861018f3660046113d7565b6104f4565b60006101a8826101a26106d9565b906107f7565b92915050565b3660006101b96108b5565b915091509091565b6101da6101cc6108c0565b6101d46105ea565b906108ca565b8483811480156101e957508082145b610254576040517f08c379a000000000000000000000000000000000000000000000000000000000815260206004820152601d60248201527f5265636f766572793a20696e636f6e73697374656e742061727261797300000060448201526064015b60405180910390fd5b60005b8181146102f5576102e588888381811061027357610273611443565b905060200201602081019061028891906113ba565b85858481811061029a5761029a611443565b905060200201358888858181106102b3576102b3611443565b90506020020160208101906102c891906113ba565b73ffffffffffffffffffffffffffffffffffffffff16919061094d565b6102ee816114a1565b9050610257565b5050505050505050565b600061032661030c6105ea565b5473ffffffffffffffffffffffffffffffffffffffff1690565b905090565b6103366101cc6108c0565b84838114801561034557508082145b6103ab576040517f08c379a000000000000000000000000000000000000000000000000000000000815260206004820152601d60248201527f5265636f766572793a20696e636f6e73697374656e7420617272617973000000604482015260640161024b565b60005b8181146102f5578585828181106103c7576103c7611443565b90506020020160208101906103dc91906113ba565b73ffffffffffffffffffffffffffffffffffffffff166323b872dd308a8a8581811061040a5761040a611443565b905060200201602081019061041f91906113ba565b87878681811061043157610431611443565b6040517fffffffff0000000000000000000000000000000000000000000000000000000060e088901b16815273ffffffffffffffffffffffffffffffffffffffff958616600482015294909316602485015250602090910201356044820152606401600060405180830381600087803b1580156104ad57600080fd5b505af11580156104c1573d6000803e3d6000fd5b50505050806104cf906114a1565b90506103ae565b6104f16104e16108c0565b826104ea6105ea565b91906109df565b50565b6104ff6101cc6108c0565b82818114610569576040517f08c379a000000000000000000000000000000000000000000000000000000000815260206004820152601d60248201527f5265636f766572793a20696e636f6e73697374656e7420617272617973000000604482015260640161024b565b60005b8181146105e2576105d284848381811061058857610588611443565b905060200201358787848181106105a1576105a1611443565b90506020020160208101906105b691906113ba565b73ffffffffffffffffffffffffffffffffffffffff1690610b0c565b6105db816114a1565b905061056c565b505050505050565b6000806101a860017fc9ed16f33ab3a66c84bfd83099ccb2a8845871e2e1c1928f63797152f0fd54cd6114d9565b73ffffffffffffffffffffffffffffffffffffffff8116156106a05781547fffffffffffffffffffffffff00000000000000000000000000000000000000001673ffffffffffffffffffffffffffffffffffffffff821690811783556040516000907f8be0079c531659141344cd1fd0a4f28419497f9722a3daafe3b4186f6b6457e0908290a35b6106d57f7f5828d00000000000000000000000000000000000000000000000000000000060016106ce6106d9565b9190610707565b5050565b6000806101a860017fca9d3e17f264b0f3984e2634e94adb37fa3e6a8103f06aeae6fa59e21c769f5e6114d9565b7fffffffff000000000000000000000000000000000000000000000000000000008083169003610793576040517f08c379a000000000000000000000000000000000000000000000000000000000815260206004820152601f60248201527f496e74657266616365446574656374696f6e3a2077726f6e672076616c756500604482015260640161024b565b7fffffffff00000000000000000000000000000000000000000000000000000000919091166000908152602092909252604090912080547fffffffffffffffffffffffffffffffffffffffffffffffffffffffffffffff0016911515919091179055565b60007fffffffff00000000000000000000000000000000000000000000000000000000808316900361082b575060006101a8565b7ffe003659000000000000000000000000000000000000000000000000000000007fffffffff0000000000000000000000000000000000000000000000000000000083160161087c575060016101a8565b507fffffffff00000000000000000000000000000000000000000000000000000000166000908152602091909152604090205460ff1690565b3660006101b9610c66565b6000610326610dea565b815473ffffffffffffffffffffffffffffffffffffffff8281169116146106d5576040517f08c379a000000000000000000000000000000000000000000000000000000000815260206004820152601860248201527f4f776e6572736869703a206e6f7420746865206f776e65720000000000000000604482015260640161024b565b6040805173ffffffffffffffffffffffffffffffffffffffff8416602482015260448082018490528251808303909101815260649091019091526020810180517bffffffffffffffffffffffffffffffffffffffffffffffffffffffff167fa9059cbb000000000000000000000000000000000000000000000000000000001790526109da908490610f42565b505050565b825473ffffffffffffffffffffffffffffffffffffffff9081169083168114610a64576040517f08c379a000000000000000000000000000000000000000000000000000000000815260206004820152601860248201527f4f776e6572736869703a206e6f7420746865206f776e65720000000000000000604482015260640161024b565b8173ffffffffffffffffffffffffffffffffffffffff168173ffffffffffffffffffffffffffffffffffffffff1614610b065783547fffffffffffffffffffffffff00000000000000000000000000000000000000001673ffffffffffffffffffffffffffffffffffffffff8381169182178655604051908316907f8be0079c531659141344cd1fd0a4f28419497f9722a3daafe3b4186f6b6457e090600090a35b50505050565b80471015610b76576040517f08c379a000000000000000000000000000000000000000000000000000000000815260206004820152601d60248201527f416464726573733a20696e73756666696369656e742062616c616e6365000000604482015260640161024b565b60008273ffffffffffffffffffffffffffffffffffffffff168260405160006040518083038185875af1925050503d8060008114610bd0576040519150601f19603f3d011682016040523d82523d6000602084013e610bd5565b606091505b50509050806109da576040517f08c379a000000000000000000000000000000000000000000000000000000000815260206004820152603a60248201527f416464726573733a20756e61626c6520746f2073656e642076616c75652c207260448201527f6563697069656e74206d61792068617665207265766572746564000000000000606482015260840161024b565b36600033328103610c7c57506000923692509050565b7f000000000000000000000000000000000000000000000000000000000000000073ffffffffffffffffffffffffffffffffffffffff168173ffffffffffffffffffffffffffffffffffffffff161480610dc9575073ffffffffffffffffffffffffffffffffffffffff7f00000000000000000000000000000000000000000000000000000000000000001663e60125d6367fffffffffffffffffffffffffffffffffffffffffffffffffffffffffffffffec013560601c6040517fffffffff0000000000000000000000000000000000000000000000000000000060e084901b16815273ffffffffffffffffffffffffffffffffffffffff91821660048201529084166024820152604401602060405180830381865afa158015610da5573d6000803e3d6000fd5b505050506040513d601f19601f82011682018060405250810190610dc991906114f0565b15610ddf57610dd6611003565b92509250509091565b506000923692509050565b600033328103610df957919050565b6000367fffffffffffffffffffffffffffffffffffffffffffffffffffffffffffffffec013560601c90507f000000000000000000000000000000000000000000000000000000000000000073ffffffffffffffffffffffffffffffffffffffff168273ffffffffffffffffffffffffffffffffffffffff161480610f3157506040517fe60125d600000000000000000000000000000000000000000000000000000000815273ffffffffffffffffffffffffffffffffffffffff828116600483015283811660248301527f0000000000000000000000000000000000000000000000000000000000000000169063e60125d690604401602060405180830381865afa158015610f0d573d6000803e3d6000fd5b505050506040513d601f19601f82011682018060405250810190610f3191906114f0565b15610f3c5792915050565b50919050565b6000610f7f826040518060600160405280602381526020016115d66023913973ffffffffffffffffffffffffffffffffffffffff86169190611021565b8051909150156109da5780806020019051810190610f9d91906114f0565b6109da576040517f08c379a000000000000000000000000000000000000000000000000000000000815260206004820152601e60248201527f4552433230577261707065723a206f7065726174696f6e206661696c65640000604482015260640161024b565b3660008080836110146014826114d9565b926101b993929190611512565b6060611030848460008561103a565b90505b9392505050565b6060824710156110cc576040517f08c379a000000000000000000000000000000000000000000000000000000000815260206004820152602660248201527f416464726573733a20696e73756666696369656e742062616c616e636520666f60448201527f722063616c6c0000000000000000000000000000000000000000000000000000606482015260840161024b565b73ffffffffffffffffffffffffffffffffffffffff85163b61114a576040517f08c379a000000000000000000000000000000000000000000000000000000000815260206004820152601d60248201527f416464726573733a2063616c6c20746f206e6f6e2d636f6e7472616374000000604482015260640161024b565b6000808673ffffffffffffffffffffffffffffffffffffffff1685876040516111739190611568565b60006040518083038185875af1925050503d80600081146111b0576040519150601f19603f3d011682016040523d82523d6000602084013e6111b5565b606091505b50915091506111c58282866111d0565b979650505050505050565b606083156111df575081611033565b8251156111ef5782518084602001fd5b816040517f08c379a000000000000000000000000000000000000000000000000000000000815260040161024b9190611584565b60006020828403121561123557600080fd5b81357fffffffff000000000000000000000000000000000000000000000000000000008116811461103357600080fd5b60208152816020820152818360408301376000818301604090810191909152601f9092017fffffffffffffffffffffffffffffffffffffffffffffffffffffffffffffffe0160101919050565b60008083601f8401126112c457600080fd5b50813567ffffffffffffffff8111156112dc57600080fd5b6020830191508360208260051b85010111156112f757600080fd5b9250929050565b6000806000806000806060878903121561131757600080fd5b863567ffffffffffffffff8082111561132f57600080fd5b61133b8a838b016112b2565b9098509650602089013591508082111561135457600080fd5b6113608a838b016112b2565b9096509450604089013591508082111561137957600080fd5b5061138689828a016112b2565b979a9699509497509295939492505050565b73ffffffffffffffffffffffffffffffffffffffff811681146104f157600080fd5b6000602082840312156113cc57600080fd5b813561103381611398565b600080600080604085870312156113ed57600080fd5b843567ffffffffffffffff8082111561140557600080fd5b611411888389016112b2565b9096509450602087013591508082111561142a57600080fd5b50611437878288016112b2565b95989497509550505050565b7f4e487b7100000000000000000000000000000000000000000000000000000000600052603260045260246000fd5b7f4e487b7100000000000000000000000000000000000000000000000000000000600052601160045260246000fd5b60007fffffffffffffffffffffffffffffffffffffffffffffffffffffffffffffffff82036114d2576114d2611472565b5060010190565b6000828210156114eb576114eb611472565b500390565b60006020828403121561150257600080fd5b8151801515811461103357600080fd5b6000808585111561152257600080fd5b8386111561152f57600080fd5b5050820193919092039150565b60005b8381101561155757818101518382015260200161153f565b83811115610b065750506000910152565b6000825161157a81846020870161153c565b9190910192915050565b60208152600082518060208401526115a381604085016020870161153c565b601f017fffffffffffffffffffffffffffffffffffffffffffffffffffffffffffffffe016919091016040019291505056fe4552433230577261707065723a206c6f772d6c6576656c2063616c6c206661696c6564a2646970667358221220bddc8b5c165f1781e32ea9a79160cc863788f0506980a85e7b68d274619f72a664736f6c634300080e0033",
  "linkReferences": {},
  "deployedLinkReferences": {}
}