{
  "_format": "hh-sol-artifact-1",
  "contractName": "PauseFacetMock",
  "sourceName": "contracts/mocks/lifecycle/PauseFacetMock.sol",
  "abi": [
    {
      "inputs": [
        {
          "internalType": "contract IForwarderRegistry",
          "name": "forwarderRegistry",
          "type": "address"
        }
      ],
      "stateMutability": "nonpayable",
      "type": "constructor"
    },
    {
      "anonymous": false,
      "inputs": [],
      "name": "Paused",
      "type": "event"
    },
    {
      "anonymous": false,
      "inputs": [],
      "name": "Unpaused",
      "type": "event"
    },
    {
      "inputs": [],
      "name": "__msgData",
      "outputs": [
        {
          "internalType": "bytes",
          "name": "",
          "type": "bytes"
        }
      ],
      "stateMutability": "view",
      "type": "function"
    },
    {
      "inputs": [],
      "name": "enforceIsNotPaused",
      "outputs": [],
      "stateMutability": "view",
      "type": "function"
    },
    {
      "inputs": [],
      "name": "enforceIsPaused",
      "outputs": [],
      "stateMutability": "view",
      "type": "function"
    },
    {
      "inputs": [
        {
          "internalType": "bool",
          "name": "isPaused",
          "type": "bool"
        }
      ],
      "name": "initPauseStorage",
      "outputs": [],
      "stateMutability": "nonpayable",
      "type": "function"
    },
    {
      "inputs": [],
      "name": "pause",
      "outputs": [],
      "stateMutability": "nonpayable",
      "type": "function"
    },
    {
      "inputs": [],
      "name": "paused",
      "outputs": [
        {
          "internalType": "bool",
          "name": "",
          "type": "bool"
        }
      ],
      "stateMutability": "view",
      "type": "function"
    },
    {
      "inputs": [],
      "name": "unpause",
      "outputs": [],
      "stateMutability": "nonpayable",
      "type": "function"
    }
  ],
  "bytecode": "0x60a060405234801561001057600080fd5b50604051610ad1380380610ad183398101604081905261002f91610040565b6001600160a01b0316608052610070565b60006020828403121561005257600080fd5b81516001600160a01b038116811461006957600080fd5b9392505050565b608051610a316100a060003960008181610549015281816105b3015281816106f101526107910152610a316000f3fe608060405234801561001057600080fd5b506004361061007d5760003560e01c80638456cb591161005b5780638456cb59146100c3578063859f7acb146100cb5780638ebd8073146100d3578063b606577c146100db57600080fd5b806331e66e1e146100825780633f4ba83a146100a15780635c975abb146100ab575b600080fd5b61008a6100ee565b6040516100989291906108f7565b60405180910390f35b6100a9610101565b005b6100b361012c565b6040519015158152602001610098565b6100a9610145565b6100a9610160565b6100a9610170565b6100a96100e9366004610952565b610180565b3660006100f96101ae565b915091509091565b61011a61010c6101b9565b6101146101c3565b906101f7565b61012a610125610283565b6102b1565b565b6000610140610139610283565b5460ff1690565b905090565b61015061010c6101b9565b61012a61015b610283565b61030c565b61012a61016b610283565b61036a565b61012a61017b610283565b6103d5565b61019961018b6101b9565b610193610441565b9061046f565b6101ab816101a5610283565b906104f2565b50565b3660006100f9610531565b60006101406106b5565b6000806101f160017fc9ed16f33ab3a66c84bfd83099ccb2a8845871e2e1c1928f63797152f0fd54cd610976565b92915050565b815473ffffffffffffffffffffffffffffffffffffffff82811691161461027f576040517f08c379a000000000000000000000000000000000000000000000000000000000815260206004820152601860248201527f4f776e6572736869703a206e6f7420746865206f776e6572000000000000000060448201526064015b60405180910390fd5b5050565b6000806101f160017f0186a05f63b1553398ad5ea3233c0ce68b8c9eecc47717f123c5c2b42fbd6d9f610976565b6102ba8161036a565b80547fffffffffffffffffffffffffffffffffffffffffffffffffffffffffffffff001681556040517fa45f47fdea8a1efdd9029a5691c7f759c32b7c698632b563573e155625d1693390600090a150565b610315816103d5565b80547fffffffffffffffffffffffffffffffffffffffffffffffffffffffffffffff001660011781556040517f9e87fac88ff661f02d44f95383c817fece4bce600a3dab7a54406878b965e75290600090a150565b805460ff166101ab576040517f08c379a000000000000000000000000000000000000000000000000000000000815260206004820152601160248201527f50617573653a206e6f74207061757365640000000000000000000000000000006044820152606401610276565b805460ff16156101ab576040517f08c379a000000000000000000000000000000000000000000000000000000000815260206004820152600d60248201527f50617573653a20706175736564000000000000000000000000000000000000006044820152606401610276565b6000806101f160017fb53127684a568b3173ae13b9f8a6016e243e63b6e8ee1178d6a717850b5d6104610976565b815473ffffffffffffffffffffffffffffffffffffffff82811691161461027f576040517f08c379a000000000000000000000000000000000000000000000000000000000815260206004820152601960248201527f50726f787941646d696e3a206e6f74207468652061646d696e000000000000006044820152606401610276565b61052761052060017ff30cd2f0daf7f7819670b733519795cce8e89b4b29de13aca88e6f3e843ff071610976565b600161080d565b61027f828261087d565b3660003332810361054757506000923692509050565b7f000000000000000000000000000000000000000000000000000000000000000073ffffffffffffffffffffffffffffffffffffffff168173ffffffffffffffffffffffffffffffffffffffff161480610694575073ffffffffffffffffffffffffffffffffffffffff7f00000000000000000000000000000000000000000000000000000000000000001663e60125d6367fffffffffffffffffffffffffffffffffffffffffffffffffffffffffffffffec013560601c6040517fffffffff0000000000000000000000000000000000000000000000000000000060e084901b16815273ffffffffffffffffffffffffffffffffffffffff91821660048201529084166024820152604401602060405180830381865afa158015610670573d6000803e3d6000fd5b505050506040513d601f19601f8201168201806040525081019061069491906109b4565b156106aa576106a16108d9565b92509250509091565b506000923692509050565b6000333281036106c457919050565b6000367fffffffffffffffffffffffffffffffffffffffffffffffffffffffffffffffec013560601c90507f000000000000000000000000000000000000000000000000000000000000000073ffffffffffffffffffffffffffffffffffffffff168273ffffffffffffffffffffffffffffffffffffffff1614806107fc57506040517fe60125d600000000000000000000000000000000000000000000000000000000815273ffffffffffffffffffffffffffffffffffffffff828116600483015283811660248301527f0000000000000000000000000000000000000000000000000000000000000000169063e60125d690604401602060405180830381865afa1580156107d8573d6000803e3d6000fd5b505050506040513d601f19601f820116820180604052508101906107fc91906109b4565b156108075792915050565b50919050565b815482908211610879576040517f08c379a000000000000000000000000000000000000000000000000000000000815260206004820152601860248201527f53746f726167653a2076657273696f6e207265616368656400000000000000006044820152606401610276565b5550565b801561027f5781547fffffffffffffffffffffffffffffffffffffffffffffffffffffffffffffff001660011782556040517f9e87fac88ff661f02d44f95383c817fece4bce600a3dab7a54406878b965e75290600090a15050565b3660008080836108ea601482610976565b926100f9939291906109d1565b60208152816020820152818360408301376000818301604090810191909152601f9092017fffffffffffffffffffffffffffffffffffffffffffffffffffffffffffffffe0160101919050565b80151581146101ab57600080fd5b60006020828403121561096457600080fd5b813561096f81610944565b9392505050565b6000828210156109af577f4e487b7100000000000000000000000000000000000000000000000000000000600052601160045260246000fd5b500390565b6000602082840312156109c657600080fd5b815161096f81610944565b600080858511156109e157600080fd5b838611156109ee57600080fd5b505082019391909203915056fea26469706673582212202e4c2f7c53f82bd8aa657448fc42b97ea17698aae233a6d7f92c660f8d4b746864736f6c634300080e0033",
  "linkReferences": {},
  "deployedLinkReferences": {}
}