{
  "_format": "hh-sol-artifact-1",
  "contractName": "PauseMock",
  "sourceName": "contracts/mocks/lifecycle/PauseMock.sol",
  "abi": [
    {
      "inputs": [
        {
          "internalType": "bool",
          "name": "isPaused",
          "type": "bool"
        },
        {
          "internalType": "contract IForwarderRegistry",
          "name": "forwarderRegistry",
          "type": "address"
        }
      ],
      "stateMutability": "nonpayable",
      "type": "constructor"
    },
    {
      "anonymous": false,
      "inputs": [
        {
          "indexed": true,
          "internalType": "address",
          "name": "previousOwner",
          "type": "address"
        },
        {
          "indexed": true,
          "internalType": "address",
          "name": "newOwner",
          "type": "address"
        }
      ],
      "name": "OwnershipTransferred",
      "type": "event"
    },
    {
      "anonymous": false,
      "inputs": [],
      "name": "Paused",
      "type": "event"
    },
    {
      "anonymous": false,
      "inputs": [],
      "name": "Unpaused",
      "type": "event"
    },
    {
      "inputs": [],
      "name": "__msgData",
      "outputs": [
        {
          "internalType": "bytes",
          "name": "",
          "type": "bytes"
        }
      ],
      "stateMutability": "view",
      "type": "function"
    },
    {
      "inputs": [],
      "name": "enforceIsNotPaused",
      "outputs": [],
      "stateMutability": "view",
      "type": "function"
    },
    {
      "inputs": [],
      "name": "enforceIsPaused",
      "outputs": [],
      "stateMutability": "view",
      "type": "function"
    },
    {
      "inputs": [],
      "name": "forwarderRegistry",
      "outputs": [
        {
          "internalType": "contract IForwarderRegistry",
          "name": "",
          "type": "address"
        }
      ],
      "stateMutability": "view",
      "type": "function"
    },
    {
      "inputs": [
        {
          "internalType": "address",
          "name": "forwarder",
          "type": "address"
        }
      ],
      "name": "isTrustedForwarder",
      "outputs": [
        {
          "internalType": "bool",
          "name": "",
          "type": "bool"
        }
      ],
      "stateMutability": "view",
      "type": "function"
    },
    {
      "inputs": [],
      "name": "owner",
      "outputs": [
        {
          "internalType": "address",
          "name": "",
          "type": "address"
        }
      ],
      "stateMutability": "view",
      "type": "function"
    },
    {
      "inputs": [],
      "name": "pause",
      "outputs": [],
      "stateMutability": "nonpayable",
      "type": "function"
    },
    {
      "inputs": [],
      "name": "paused",
      "outputs": [
        {
          "internalType": "bool",
          "name": "",
          "type": "bool"
        }
      ],
      "stateMutability": "view",
      "type": "function"
    },
    {
      "inputs": [
        {
          "internalType": "bytes4",
          "name": "interfaceId",
          "type": "bytes4"
        }
      ],
      "name": "supportsInterface",
      "outputs": [
        {
          "internalType": "bool",
          "name": "",
          "type": "bool"
        }
      ],
      "stateMutability": "view",
      "type": "function"
    },
    {
      "inputs": [
        {
          "internalType": "address",
          "name": "newOwner",
          "type": "address"
        }
      ],
      "name": "transferOwnership",
      "outputs": [],
      "stateMutability": "nonpayable",
      "type": "function"
    },
    {
      "inputs": [],
      "name": "unpause",
      "outputs": [],
      "stateMutability": "nonpayable",
      "type": "function"
    }
  ],
  "bytecode": "0x60a06040523480156200001157600080fd5b5060405162001179380380620011798339810160408190526200003491620002a4565b80808333620000668162000052620000ac60201b620002d61760201c565b620000e260201b620003041790919060201c565b506200009581620000816200017560201b620003c51760201c565b620001a560201b620003f31790919060201c565b506001600160a01b03166080525062000314915050565b600080620000dc60017fc9ed16f33ab3a66c84bfd83099ccb2a8845871e2e1c1928f63797152f0fd54cd620002f2565b92915050565b6001600160a01b03811615620001395781546001600160a01b0319166001600160a01b03821690811783556040516000907f8be0079c531659141344cd1fd0a4f28419497f9722a3daafe3b4186f6b6457e0908290a35b620001716307f5828d60e41b60016200015c620001e460201b6200044f1760201c565b6200021460201b6200047d179092919060201c565b5050565b600080620000dc60017f0186a05f63b1553398ad5ea3233c0ce68b8c9eecc47717f123c5c2b42fbd6d9f620002f2565b80156200017157815460ff191660011782556040517f9e87fac88ff661f02d44f95383c817fece4bce600a3dab7a54406878b965e75290600090a15050565b600080620000dc60017fca9d3e17f264b0f3984e2634e94adb37fa3e6a8103f06aeae6fa59e21c769f5e620002f2565b600160e01b6001600160e01b0319831601620002765760405162461bcd60e51b815260206004820152601f60248201527f496e74657266616365446574656374696f6e3a2077726f6e672076616c756500604482015260640160405180910390fd5b6001600160e01b03199190911660009081526020929092526040909120805460ff1916911515919091179055565b60008060408385031215620002b857600080fd5b82518015158114620002c957600080fd5b60208401519092506001600160a01b0381168114620002e757600080fd5b809150509250929050565b81810381811115620000dc57634e487b7160e01b600052601160045260246000fd5b608051610e27620003526000396000818160f80152818161016d015281816109f401528181610a3201528181610b6a0152610bf20152610e276000f3fe608060405234801561001057600080fd5b50600436106100c95760003560e01c80635c975abb116100815780638da5cb5b1161005b5780638da5cb5b146101c25780638ebd8073146101ca578063f2fde38b146101d257600080fd5b80635c975abb146101aa5780638456cb59146101b2578063859f7acb146101ba57600080fd5b806331e66e1e116100b257806331e66e1e1461013d5780633f4ba83a14610153578063572b6c051461015d57600080fd5b806301ffc9a7146100ce5780632b4c9f16146100f6575b600080fd5b6100e16100dc366004610c9f565b6101e5565b60405190151581526020015b60405180910390f35b7f00000000000000000000000000000000000000000000000000000000000000005b60405173ffffffffffffffffffffffffffffffffffffffff90911681526020016100ed565b6101456101ff565b6040516100ed929190610ce8565b61015b610212565b005b6100e161016b366004610d35565b7f000000000000000000000000000000000000000000000000000000000000000073ffffffffffffffffffffffffffffffffffffffff90811691161490565b6100e161023d565b61015b610256565b61015b610271565b610118610281565b61015b6102a8565b61015b6101e0366004610d35565b6102b8565b60006101f9826101f361044f565b9061058e565b92915050565b36600061020a610668565b915091509091565b61022b61021d610673565b6102256102d6565b9061067d565b61023b6102366103c5565b610700565b565b600061025161024a6103c5565b5460ff1690565b905090565b61026161021d610673565b61023b61026c6103c5565b61075b565b61023b61027c6103c5565b6107b9565b600061025161028e6102d6565b5473ffffffffffffffffffffffffffffffffffffffff1690565b61023b6102b36103c5565b610824565b6102d36102c3610673565b826102cc6102d6565b9190610890565b50565b6000806101f960017fc9ed16f33ab3a66c84bfd83099ccb2a8845871e2e1c1928f63797152f0fd54cd610d6b565b73ffffffffffffffffffffffffffffffffffffffff81161561038c5781547fffffffffffffffffffffffff00000000000000000000000000000000000000001673ffffffffffffffffffffffffffffffffffffffff821690811783556040516000907f8be0079c531659141344cd1fd0a4f28419497f9722a3daafe3b4186f6b6457e0908290a35b6103c17f7f5828d00000000000000000000000000000000000000000000000000000000060016103ba61044f565b919061047d565b5050565b6000806101f960017f0186a05f63b1553398ad5ea3233c0ce68b8c9eecc47717f123c5c2b42fbd6d9f610d6b565b80156103c15781547fffffffffffffffffffffffffffffffffffffffffffffffffffffffffffffff001660011782556040517f9e87fac88ff661f02d44f95383c817fece4bce600a3dab7a54406878b965e75290600090a15050565b6000806101f960017fca9d3e17f264b0f3984e2634e94adb37fa3e6a8103f06aeae6fa59e21c769f5e610d6b565b7c01000000000000000000000000000000000000000000000000000000007fffffffff0000000000000000000000000000000000000000000000000000000083160161052a576040517f08c379a000000000000000000000000000000000000000000000000000000000815260206004820152601f60248201527f496e74657266616365446574656374696f6e3a2077726f6e672076616c75650060448201526064015b60405180910390fd5b7fffffffff00000000000000000000000000000000000000000000000000000000919091166000908152602092909252604090912080547fffffffffffffffffffffffffffffffffffffffffffffffffffffffffffffff0016911515919091179055565b60007c01000000000000000000000000000000000000000000000000000000007fffffffff000000000000000000000000000000000000000000000000000000008316016105de575060006101f9565b7ffe003659000000000000000000000000000000000000000000000000000000007fffffffff0000000000000000000000000000000000000000000000000000000083160161062f575060016101f9565b507fffffffff00000000000000000000000000000000000000000000000000000000166000908152602091909152604090205460ff1690565b36600061020a6109bd565b6000610251610b27565b815473ffffffffffffffffffffffffffffffffffffffff8281169116146103c1576040517f08c379a000000000000000000000000000000000000000000000000000000000815260206004820152601860248201527f4f776e6572736869703a206e6f7420746865206f776e657200000000000000006044820152606401610521565b610709816107b9565b80547fffffffffffffffffffffffffffffffffffffffffffffffffffffffffffffff001681556040517fa45f47fdea8a1efdd9029a5691c7f759c32b7c698632b563573e155625d1693390600090a150565b61076481610824565b80547fffffffffffffffffffffffffffffffffffffffffffffffffffffffffffffff001660011781556040517f9e87fac88ff661f02d44f95383c817fece4bce600a3dab7a54406878b965e75290600090a150565b805460ff166102d3576040517f08c379a000000000000000000000000000000000000000000000000000000000815260206004820152601160248201527f50617573653a206e6f74207061757365640000000000000000000000000000006044820152606401610521565b805460ff16156102d3576040517f08c379a000000000000000000000000000000000000000000000000000000000815260206004820152600d60248201527f50617573653a20706175736564000000000000000000000000000000000000006044820152606401610521565b825473ffffffffffffffffffffffffffffffffffffffff9081169083168114610915576040517f08c379a000000000000000000000000000000000000000000000000000000000815260206004820152601860248201527f4f776e6572736869703a206e6f7420746865206f776e657200000000000000006044820152606401610521565b8173ffffffffffffffffffffffffffffffffffffffff168173ffffffffffffffffffffffffffffffffffffffff16146109b75783547fffffffffffffffffffffffff00000000000000000000000000000000000000001673ffffffffffffffffffffffffffffffffffffffff8381169182178655604051908316907f8be0079c531659141344cd1fd0a4f28419497f9722a3daafe3b4186f6b6457e090600090a35b50505050565b366000333214806109ce5750601836105b156109dc5750600091369150565b3373ffffffffffffffffffffffffffffffffffffffff7f0000000000000000000000000000000000000000000000000000000000000000161480610b11575073ffffffffffffffffffffffffffffffffffffffff7f000000000000000000000000000000000000000000000000000000000000000016638929a8ca367fffffffffffffffffffffffffffffffffffffffffffffffffffffffffffffffec013560601c6040517fffffffff0000000000000000000000000000000000000000000000000000000060e084901b16815273ffffffffffffffffffffffffffffffffffffffff9091166004820152336024820152604401602060405180830381865afa158015610aed573d6000803e3d6000fd5b505050506040513d601f19601f82011682018060405250810190610b119190610da5565b15610b1e5761020a610c6e565b50600091369150565b600033321480610b375750601836105b15610b4157503390565b7fffffffffffffffffffffffffffffffffffffffffffffffffffffffffffffffec36013560601c7f000000000000000000000000000000000000000000000000000000000000000073ffffffffffffffffffffffffffffffffffffffff16331480610c5d57506040517f8929a8ca00000000000000000000000000000000000000000000000000000000815273ffffffffffffffffffffffffffffffffffffffff82811660048301523360248301527f00000000000000000000000000000000000000000000000000000000000000001690638929a8ca90604401602060405180830381865afa158015610c39573d6000803e3d6000fd5b505050506040513d601f19601f82011682018060405250810190610c5d9190610da5565b15610c6757919050565b3391505090565b36600061020a7fffffffffffffffffffffffffffffffffffffffffffffffffffffffffffffffec8301828481610dc7565b600060208284031215610cb157600080fd5b81357fffffffff0000000000000000000000000000000000000000000000000000000081168114610ce157600080fd5b9392505050565b60208152816020820152818360408301376000818301604090810191909152601f9092017fffffffffffffffffffffffffffffffffffffffffffffffffffffffffffffffe0160101919050565b600060208284031215610d4757600080fd5b813573ffffffffffffffffffffffffffffffffffffffff81168114610ce157600080fd5b818103818111156101f9577f4e487b7100000000000000000000000000000000000000000000000000000000600052601160045260246000fd5b600060208284031215610db757600080fd5b81518015158114610ce157600080fd5b60008085851115610dd757600080fd5b83861115610de457600080fd5b505082019391909203915056fea264697066735822122085590e25c10dc6eb12aab8eee11e1ee105fbd0314bbab10b1a78f48d8cb8f53f64736f6c63430008110033",
  "linkReferences": {},
  "deployedLinkReferences": {}
}