{
  "_format": "hh-sol-artifact-1",
  "contractName": "PauseMock",
  "sourceName": "contracts/mocks/lifecycle/PauseMock.sol",
  "abi": [
    {
      "inputs": [
        {
          "internalType": "bool",
          "name": "isPaused",
          "type": "bool"
        },
        {
          "internalType": "contract IForwarderRegistry",
          "name": "forwarderRegistry",
          "type": "address"
        }
      ],
      "stateMutability": "nonpayable",
      "type": "constructor"
    },
    {
      "anonymous": false,
      "inputs": [
        {
          "indexed": true,
          "internalType": "address",
          "name": "previousOwner",
          "type": "address"
        },
        {
          "indexed": true,
          "internalType": "address",
          "name": "newOwner",
          "type": "address"
        }
      ],
      "name": "OwnershipTransferred",
      "type": "event"
    },
    {
      "anonymous": false,
      "inputs": [],
      "name": "Paused",
      "type": "event"
    },
    {
      "anonymous": false,
      "inputs": [],
      "name": "Unpaused",
      "type": "event"
    },
    {
      "inputs": [],
      "name": "__msgData",
      "outputs": [
        {
          "internalType": "bytes",
          "name": "",
          "type": "bytes"
        }
      ],
      "stateMutability": "view",
      "type": "function"
    },
    {
      "inputs": [],
      "name": "enforceIsNotPaused",
      "outputs": [],
      "stateMutability": "view",
      "type": "function"
    },
    {
      "inputs": [],
      "name": "enforceIsPaused",
      "outputs": [],
      "stateMutability": "view",
      "type": "function"
    },
    {
      "inputs": [],
      "name": "owner",
      "outputs": [
        {
          "internalType": "address",
          "name": "",
          "type": "address"
        }
      ],
      "stateMutability": "view",
      "type": "function"
    },
    {
      "inputs": [],
      "name": "pause",
      "outputs": [],
      "stateMutability": "nonpayable",
      "type": "function"
    },
    {
      "inputs": [],
      "name": "paused",
      "outputs": [
        {
          "internalType": "bool",
          "name": "",
          "type": "bool"
        }
      ],
      "stateMutability": "view",
      "type": "function"
    },
    {
      "inputs": [
        {
          "internalType": "bytes4",
          "name": "interfaceId",
          "type": "bytes4"
        }
      ],
      "name": "supportsInterface",
      "outputs": [
        {
          "internalType": "bool",
          "name": "",
          "type": "bool"
        }
      ],
      "stateMutability": "view",
      "type": "function"
    },
    {
      "inputs": [
        {
          "internalType": "address",
          "name": "newOwner",
          "type": "address"
        }
      ],
      "name": "transferOwnership",
      "outputs": [],
      "stateMutability": "nonpayable",
      "type": "function"
    },
    {
      "inputs": [],
      "name": "unpause",
      "outputs": [],
      "stateMutability": "nonpayable",
      "type": "function"
    }
  ],
  "bytecode": "0x60a06040523480156200001157600080fd5b50604051620010883803806200108883398101604081905262000034916200029f565b808233620000658162000051620000aa60201b620002411760201c565b620000e060201b6200026f1790919060201c565b506200009481620000806200017360201b620003301760201c565b620001a360201b6200035e1790919060201c565b506001600160a01b031660805250620003139050565b600080620000da60017fc9ed16f33ab3a66c84bfd83099ccb2a8845871e2e1c1928f63797152f0fd54cd620002ed565b92915050565b6001600160a01b03811615620001375781546001600160a01b0319166001600160a01b03821690811783556040516000907f8be0079c531659141344cd1fd0a4f28419497f9722a3daafe3b4186f6b6457e0908290a35b6200016f6307f5828d60e41b60016200015a620001e260201b620003ba1760201c565b6200021260201b620003e8179092919060201c565b5050565b600080620000da60017f0186a05f63b1553398ad5ea3233c0ce68b8c9eecc47717f123c5c2b42fbd6d9f620002ed565b80156200016f57815460ff191660011782556040517f9e87fac88ff661f02d44f95383c817fece4bce600a3dab7a54406878b965e75290600090a15050565b600080620000da60017fca9d3e17f264b0f3984e2634e94adb37fa3e6a8103f06aeae6fa59e21c769f5e620002ed565b6001600160e01b03198083169003620002715760405162461bcd60e51b815260206004820152601f60248201527f496e74657266616365446574656374696f6e3a2077726f6e672076616c756500604482015260640160405180910390fd5b6001600160e01b03199190911660009081526020929092526040909120805460ff1916911515919091179055565b60008060408385031215620002b357600080fd5b82518015158114620002c457600080fd5b60208401519092506001600160a01b0381168114620002e257600080fd5b809150509250929050565b6000828210156200030e57634e487b7160e01b600052601160045260246000fd5b500390565b608051610d4462000344600039600081816108d60152818161094001528181610a7e0152610b1e0152610d446000f3fe608060405234801561001057600080fd5b50600436106100a35760003560e01c80638456cb59116100765780638da5cb5b1161005b5780638da5cb5b146101085780638ebd807314610135578063f2fde38b1461013d57600080fd5b80638456cb59146100f8578063859f7acb1461010057600080fd5b806301ffc9a7146100a857806331e66e1e146100d05780633f4ba83a146100e65780635c975abb146100f0575b600080fd5b6100bb6100b6366004610bb8565b610150565b60405190151581526020015b60405180910390f35b6100d861016a565b6040516100c7929190610c01565b6100ee61017d565b005b6100bb6101a8565b6100ee6101c1565b6100ee6101dc565b6101106101ec565b60405173ffffffffffffffffffffffffffffffffffffffff90911681526020016100c7565b6100ee610213565b6100ee61014b366004610c4e565b610223565b60006101648261015e6103ba565b906104dd565b92915050565b366000610175610569565b915091509091565b610196610188610574565b610190610241565b9061057e565b6101a66101a1610330565b610601565b565b60006101bc6101b5610330565b5460ff1690565b905090565b6101cc610188610574565b6101a66101d7610330565b61065c565b6101a66101e7610330565b6106ba565b60006101bc6101f9610241565b5473ffffffffffffffffffffffffffffffffffffffff1690565b6101a661021e610330565b610725565b61023e61022e610574565b82610237610241565b9190610791565b50565b60008061016460017fc9ed16f33ab3a66c84bfd83099ccb2a8845871e2e1c1928f63797152f0fd54cd610c84565b73ffffffffffffffffffffffffffffffffffffffff8116156102f75781547fffffffffffffffffffffffff00000000000000000000000000000000000000001673ffffffffffffffffffffffffffffffffffffffff821690811783556040516000907f8be0079c531659141344cd1fd0a4f28419497f9722a3daafe3b4186f6b6457e0908290a35b61032c7f7f5828d00000000000000000000000000000000000000000000000000000000060016103256103ba565b91906103e8565b5050565b60008061016460017f0186a05f63b1553398ad5ea3233c0ce68b8c9eecc47717f123c5c2b42fbd6d9f610c84565b801561032c5781547fffffffffffffffffffffffffffffffffffffffffffffffffffffffffffffff001660011782556040517f9e87fac88ff661f02d44f95383c817fece4bce600a3dab7a54406878b965e75290600090a15050565b60008061016460017fca9d3e17f264b0f3984e2634e94adb37fa3e6a8103f06aeae6fa59e21c769f5e610c84565b7fffffffff000000000000000000000000000000000000000000000000000000008083169003610479576040517f08c379a000000000000000000000000000000000000000000000000000000000815260206004820152601f60248201527f496e74657266616365446574656374696f6e3a2077726f6e672076616c75650060448201526064015b60405180910390fd5b7fffffffff00000000000000000000000000000000000000000000000000000000919091166000908152602092909252604090912080547fffffffffffffffffffffffffffffffffffffffffffffffffffffffffffffff0016911515919091179055565b60007ffe003659000000000000000000000000000000000000000000000000000000007fffffffff0000000000000000000000000000000000000000000000000000000083160161053057506001610164565b507fffffffff00000000000000000000000000000000000000000000000000000000166000908152602091909152604090205460ff1690565b3660006101756108be565b60006101bc610a42565b815473ffffffffffffffffffffffffffffffffffffffff82811691161461032c576040517f08c379a000000000000000000000000000000000000000000000000000000000815260206004820152601860248201527f4f776e6572736869703a206e6f7420746865206f776e657200000000000000006044820152606401610470565b61060a816106ba565b80547fffffffffffffffffffffffffffffffffffffffffffffffffffffffffffffff001681556040517fa45f47fdea8a1efdd9029a5691c7f759c32b7c698632b563573e155625d1693390600090a150565b61066581610725565b80547fffffffffffffffffffffffffffffffffffffffffffffffffffffffffffffff001660011781556040517f9e87fac88ff661f02d44f95383c817fece4bce600a3dab7a54406878b965e75290600090a150565b805460ff1661023e576040517f08c379a000000000000000000000000000000000000000000000000000000000815260206004820152601160248201527f50617573653a206e6f74207061757365640000000000000000000000000000006044820152606401610470565b805460ff161561023e576040517f08c379a000000000000000000000000000000000000000000000000000000000815260206004820152600d60248201527f50617573653a20706175736564000000000000000000000000000000000000006044820152606401610470565b825473ffffffffffffffffffffffffffffffffffffffff9081169083168114610816576040517f08c379a000000000000000000000000000000000000000000000000000000000815260206004820152601860248201527f4f776e6572736869703a206e6f7420746865206f776e657200000000000000006044820152606401610470565b8173ffffffffffffffffffffffffffffffffffffffff168173ffffffffffffffffffffffffffffffffffffffff16146108b85783547fffffffffffffffffffffffff00000000000000000000000000000000000000001673ffffffffffffffffffffffffffffffffffffffff8381169182178655604051908316907f8be0079c531659141344cd1fd0a4f28419497f9722a3daafe3b4186f6b6457e090600090a35b50505050565b366000333281036108d457506000923692509050565b7f000000000000000000000000000000000000000000000000000000000000000073ffffffffffffffffffffffffffffffffffffffff168173ffffffffffffffffffffffffffffffffffffffff161480610a21575073ffffffffffffffffffffffffffffffffffffffff7f00000000000000000000000000000000000000000000000000000000000000001663e60125d6367fffffffffffffffffffffffffffffffffffffffffffffffffffffffffffffffec013560601c6040517fffffffff0000000000000000000000000000000000000000000000000000000060e084901b16815273ffffffffffffffffffffffffffffffffffffffff91821660048201529084166024820152604401602060405180830381865afa1580156109fd573d6000803e3d6000fd5b505050506040513d601f19601f82011682018060405250810190610a219190610cc2565b15610a3757610a2e610b9a565b92509250509091565b506000923692509050565b600033328103610a5157919050565b6000367fffffffffffffffffffffffffffffffffffffffffffffffffffffffffffffffec013560601c90507f000000000000000000000000000000000000000000000000000000000000000073ffffffffffffffffffffffffffffffffffffffff168273ffffffffffffffffffffffffffffffffffffffff161480610b8957506040517fe60125d600000000000000000000000000000000000000000000000000000000815273ffffffffffffffffffffffffffffffffffffffff828116600483015283811660248301527f0000000000000000000000000000000000000000000000000000000000000000169063e60125d690604401602060405180830381865afa158015610b65573d6000803e3d6000fd5b505050506040513d601f19601f82011682018060405250810190610b899190610cc2565b15610b945792915050565b50919050565b366000808083610bab601482610c84565b9261017593929190610ce4565b600060208284031215610bca57600080fd5b81357fffffffff0000000000000000000000000000000000000000000000000000000081168114610bfa57600080fd5b9392505050565b60208152816020820152818360408301376000818301604090810191909152601f9092017fffffffffffffffffffffffffffffffffffffffffffffffffffffffffffffffe0160101919050565b600060208284031215610c6057600080fd5b813573ffffffffffffffffffffffffffffffffffffffff81168114610bfa57600080fd5b600082821015610cbd577f4e487b7100000000000000000000000000000000000000000000000000000000600052601160045260246000fd5b500390565b600060208284031215610cd457600080fd5b81518015158114610bfa57600080fd5b60008085851115610cf457600080fd5b83861115610d0157600080fd5b505082019391909203915056fea26469706673582212201423fced727fc488495d9a63e16ba9d5617adc272340aa2e00181a418491f57864736f6c634300080e0033",
  "linkReferences": {},
  "deployedLinkReferences": {}
}