{
  "_format": "hh-sol-artifact-1",
  "contractName": "PauseMock",
  "sourceName": "contracts/mocks/lifecycle/PauseMock.sol",
  "abi": [
    {
      "inputs": [
        {
          "internalType": "bool",
          "name": "isPaused",
          "type": "bool"
        },
        {
          "internalType": "contract IForwarderRegistry",
          "name": "forwarderRegistry",
          "type": "address"
        }
      ],
      "stateMutability": "nonpayable",
      "type": "constructor"
    },
    {
      "inputs": [],
      "name": "IllegalInterfaceId",
      "type": "error"
    },
    {
      "inputs": [
        {
          "internalType": "address",
          "name": "account",
          "type": "address"
        }
      ],
      "name": "NotContractOwner",
      "type": "error"
    },
    {
      "inputs": [],
      "name": "NotPaused",
      "type": "error"
    },
    {
      "inputs": [],
      "name": "Paused",
      "type": "error"
    },
    {
      "anonymous": false,
      "inputs": [
        {
          "indexed": true,
          "internalType": "address",
          "name": "previousOwner",
          "type": "address"
        },
        {
          "indexed": true,
          "internalType": "address",
          "name": "newOwner",
          "type": "address"
        }
      ],
      "name": "OwnershipTransferred",
      "type": "event"
    },
    {
      "anonymous": false,
      "inputs": [],
      "name": "Pause",
      "type": "event"
    },
    {
      "anonymous": false,
      "inputs": [],
      "name": "Unpause",
      "type": "event"
    },
    {
      "inputs": [],
      "name": "__msgData",
      "outputs": [
        {
          "internalType": "bytes",
          "name": "",
          "type": "bytes"
        }
      ],
      "stateMutability": "view",
      "type": "function"
    },
    {
      "inputs": [],
      "name": "enforceIsNotPaused",
      "outputs": [],
      "stateMutability": "view",
      "type": "function"
    },
    {
      "inputs": [],
      "name": "enforceIsPaused",
      "outputs": [],
      "stateMutability": "view",
      "type": "function"
    },
    {
      "inputs": [],
      "name": "forwarderRegistry",
      "outputs": [
        {
          "internalType": "contract IForwarderRegistry",
          "name": "",
          "type": "address"
        }
      ],
      "stateMutability": "view",
      "type": "function"
    },
    {
      "inputs": [
        {
          "internalType": "address",
          "name": "forwarder",
          "type": "address"
        }
      ],
      "name": "isTrustedForwarder",
      "outputs": [
        {
          "internalType": "bool",
          "name": "",
          "type": "bool"
        }
      ],
      "stateMutability": "view",
      "type": "function"
    },
    {
      "inputs": [],
      "name": "owner",
      "outputs": [
        {
          "internalType": "address",
          "name": "",
          "type": "address"
        }
      ],
      "stateMutability": "view",
      "type": "function"
    },
    {
      "inputs": [],
      "name": "pause",
      "outputs": [],
      "stateMutability": "nonpayable",
      "type": "function"
    },
    {
      "inputs": [],
      "name": "paused",
      "outputs": [
        {
          "internalType": "bool",
          "name": "",
          "type": "bool"
        }
      ],
      "stateMutability": "view",
      "type": "function"
    },
    {
      "inputs": [
        {
          "internalType": "bytes4",
          "name": "interfaceId",
          "type": "bytes4"
        }
      ],
      "name": "supportsInterface",
      "outputs": [
        {
          "internalType": "bool",
          "name": "",
          "type": "bool"
        }
      ],
      "stateMutability": "view",
      "type": "function"
    },
    {
      "inputs": [
        {
          "internalType": "address",
          "name": "newOwner",
          "type": "address"
        }
      ],
      "name": "transferOwnership",
      "outputs": [],
      "stateMutability": "nonpayable",
      "type": "function"
    },
    {
      "inputs": [],
      "name": "unpause",
      "outputs": [],
      "stateMutability": "nonpayable",
      "type": "function"
    }
  ],
  "bytecode": "0x60a060405234801561001057600080fd5b50604051610e35380380610e3583398101604081905261002f9161020e565b808083336100458161003f61006e565b906100a2565b5061005881610052610118565b90610146565b506001600160a01b03166080525061027a915050565b60008061009c60017fc9ed16f33ab3a66c84bfd83099ccb2a8845871e2e1c1928f63797152f0fd54cd610259565b92915050565b6001600160a01b038116156100f85781546001600160a01b0319166001600160a01b03821690811783556040516000907f8be0079c531659141344cd1fd0a4f28419497f9722a3daafe3b4186f6b6457e0908290a35b6101146307f5828d60e41b600161010d610184565b91906101b2565b5050565b60008061009c60017f0186a05f63b1553398ad5ea3233c0ce68b8c9eecc47717f123c5c2b42fbd6d9f610259565b801561011457815460ff191660011782556040517f6985a02210a168e66602d3235cb6db0e70f92b3ba4d376a33c0f3d9434bff62590600090a15050565b60008061009c60017fca9d3e17f264b0f3984e2634e94adb37fa3e6a8103f06aeae6fa59e21c769f5e610259565b600160e01b6001600160e01b03198316016101e0576040516372c683bb60e01b815260040160405180910390fd5b6001600160e01b03199190911660009081526020929092526040909120805460ff1916911515919091179055565b6000806040838503121561022157600080fd5b8251801515811461023157600080fd5b60208401519092506001600160a01b038116811461024e57600080fd5b809150509250929050565b8181038181111561009c57634e487b7160e01b600052601160045260246000fd5b608051610b7e6102b76000396000818160f80152818161016d0152818161073f0152818161077d015281816108bb01526109490152610b7e6000f3fe608060405234801561001057600080fd5b50600436106100c95760003560e01c80635c975abb116100815780638da5cb5b1161005b5780638da5cb5b146101c25780638ebd8073146101ca578063f2fde38b146101d257600080fd5b80635c975abb146101aa5780638456cb59146101b2578063859f7acb146101ba57600080fd5b806331e66e1e116100b257806331e66e1e1461013d5780633f4ba83a14610153578063572b6c051461015d57600080fd5b806301ffc9a7146100ce5780632b4c9f16146100f6575b600080fd5b6100e16100dc3660046109f6565b6101e5565b60405190151581526020015b60405180910390f35b7f00000000000000000000000000000000000000000000000000000000000000005b60405173ffffffffffffffffffffffffffffffffffffffff90911681526020016100ed565b6101456101ff565b6040516100ed929190610a3f565b61015b610212565b005b6100e161016b366004610a8c565b7f000000000000000000000000000000000000000000000000000000000000000073ffffffffffffffffffffffffffffffffffffffff90811691161490565b6100e161023d565b61015b610256565b61015b610271565b610118610281565b61015b6102a8565b61015b6101e0366004610a8c565b6102b8565b60006101f9826101f36102d6565b90610304565b92915050565b36600061020a6103de565b915091509091565b61022b61021d6103e9565b6102256103f3565b90610421565b61023b610236610495565b6104c3565b565b600061025161024a610495565b5460ff1690565b905090565b61026161021d6103e9565b61023b61026c610495565b61051e565b61023b61027c610495565b61057c565b600061025161028e6103f3565b5473ffffffffffffffffffffffffffffffffffffffff1690565b61023b6102b3610495565b6105b7565b6102d36102c36103e9565b826102cc6103f3565b91906105f3565b50565b6000806101f960017fca9d3e17f264b0f3984e2634e94adb37fa3e6a8103f06aeae6fa59e21c769f5e610ac2565b60007c01000000000000000000000000000000000000000000000000000000007fffffffff00000000000000000000000000000000000000000000000000000000831601610354575060006101f9565b7ffe003659000000000000000000000000000000000000000000000000000000007fffffffff000000000000000000000000000000000000000000000000000000008316016103a5575060016101f9565b507fffffffff00000000000000000000000000000000000000000000000000000000166000908152602091909152604090205460ff1690565b36600061020a610708565b6000610251610878565b6000806101f960017fc9ed16f33ab3a66c84bfd83099ccb2a8845871e2e1c1928f63797152f0fd54cd610ac2565b815473ffffffffffffffffffffffffffffffffffffffff828116911614610491576040517f2ef4875e00000000000000000000000000000000000000000000000000000000815273ffffffffffffffffffffffffffffffffffffffff821660048201526024015b60405180910390fd5b5050565b6000806101f960017f0186a05f63b1553398ad5ea3233c0ce68b8c9eecc47717f123c5c2b42fbd6d9f610ac2565b6104cc8161057c565b80547fffffffffffffffffffffffffffffffffffffffffffffffffffffffffffffff001681556040517f7805862f689e2f13df9f062ff482ad3ad112aca9e0847911ed832e158c525b3390600090a150565b610527816105b7565b80547fffffffffffffffffffffffffffffffffffffffffffffffffffffffffffffff001660011781556040517f6985a02210a168e66602d3235cb6db0e70f92b3ba4d376a33c0f3d9434bff62590600090a150565b805460ff166102d3576040517f6cd6020100000000000000000000000000000000000000000000000000000000815260040160405180910390fd5b805460ff16156102d3576040517f9e87fac800000000000000000000000000000000000000000000000000000000815260040160405180910390fd5b825473ffffffffffffffffffffffffffffffffffffffff9081169083168114610660576040517f2ef4875e00000000000000000000000000000000000000000000000000000000815273ffffffffffffffffffffffffffffffffffffffff84166004820152602401610488565b8173ffffffffffffffffffffffffffffffffffffffff168173ffffffffffffffffffffffffffffffffffffffff16146107025783547fffffffffffffffffffffffff00000000000000000000000000000000000000001673ffffffffffffffffffffffffffffffffffffffff8381169182178655604051908316907f8be0079c531659141344cd1fd0a4f28419497f9722a3daafe3b4186f6b6457e090600090a35b50505050565b366000333214806107195750601836105b156107275750600091369150565b3373ffffffffffffffffffffffffffffffffffffffff7f0000000000000000000000000000000000000000000000000000000000000000161480610862575073ffffffffffffffffffffffffffffffffffffffff7f00000000000000000000000000000000000000000000000000000000000000001663019a2028367fffffffffffffffffffffffffffffffffffffffffffffffffffffffffffffffec013560601c6040517fffffffff0000000000000000000000000000000000000000000000000000000060e084901b16815273ffffffffffffffffffffffffffffffffffffffff9091166004820152336024820152306044820152606401602060405180830381865afa15801561083e573d6000803e3d6000fd5b505050506040513d601f19601f820116820180604052508101906108629190610afc565b1561086f5761020a6109c5565b50600091369150565b6000333214806108885750601836105b1561089257503390565b7fffffffffffffffffffffffffffffffffffffffffffffffffffffffffffffffec36013560601c7f000000000000000000000000000000000000000000000000000000000000000073ffffffffffffffffffffffffffffffffffffffff163314806109b457506040517f019a202800000000000000000000000000000000000000000000000000000000815273ffffffffffffffffffffffffffffffffffffffff82811660048301523360248301523060448301527f0000000000000000000000000000000000000000000000000000000000000000169063019a202890606401602060405180830381865afa158015610990573d6000803e3d6000fd5b505050506040513d601f19601f820116820180604052508101906109b49190610afc565b156109be57919050565b3391505090565b36600061020a7fffffffffffffffffffffffffffffffffffffffffffffffffffffffffffffffec8301828481610b1e565b600060208284031215610a0857600080fd5b81357fffffffff0000000000000000000000000000000000000000000000000000000081168114610a3857600080fd5b9392505050565b60208152816020820152818360408301376000818301604090810191909152601f9092017fffffffffffffffffffffffffffffffffffffffffffffffffffffffffffffffe0160101919050565b600060208284031215610a9e57600080fd5b813573ffffffffffffffffffffffffffffffffffffffff81168114610a3857600080fd5b818103818111156101f9577f4e487b7100000000000000000000000000000000000000000000000000000000600052601160045260246000fd5b600060208284031215610b0e57600080fd5b81518015158114610a3857600080fd5b60008085851115610b2e57600080fd5b83861115610b3b57600080fd5b505082019391909203915056fea2646970667358221220399ad587974dfa382f7a316266d919beabe4a3700030eb19922c2ade0931291064736f6c634300081c0033",
  "linkReferences": {},
  "deployedLinkReferences": {}
}