{
  "_format": "hh-sol-artifact-1",
  "contractName": "ProxyAdminStorage",
  "sourceName": "contracts/proxy/libraries/ProxyAdminStorage.sol",
  "abi": [
    {
      "anonymous": false,
      "inputs": [
        {
          "indexed": false,
          "internalType": "address",
          "name": "previousAdmin",
          "type": "address"
        },
        {
          "indexed": false,
          "internalType": "address",
          "name": "newAdmin",
          "type": "address"
        }
      ],
      "name": "AdminChanged",
      "type": "event"
    },
    {
      "inputs": [],
      "name": "PROXYADMIN_STORAGE_SLOT",
      "outputs": [
        {
          "internalType": "bytes32",
          "name": "",
          "type": "bytes32"
        }
      ],
      "stateMutability": "view",
      "type": "function"
    },
    {
      "inputs": [],
      "name": "PROXYADMIN_VERSION_SLOT",
      "outputs": [
        {
          "internalType": "bytes32",
          "name": "",
          "type": "bytes32"
        }
      ],
      "stateMutability": "view",
      "type": "function"
    }
  ],
  "bytecode": "0x6101c4610053600b82828239805160001a607314610046577f4e487b7100000000000000000000000000000000000000000000000000000000600052600060045260246000fd5b30600052607381538281f3fe73000000000000000000000000000000000000000030146080604052600436106100405760003560e01c80630f49101b14610045578063c478898014610063575b600080fd5b61004d610081565b60405161005a9190610106565b60405180910390f35b61006b6100b7565b6040516100789190610106565b60405180910390f35b60017fb53127684a568b3173ae13b9f8a6016e243e63b6e8ee1178d6a717850b5d610460001c6100b1919061015a565b60001b81565b60027fb53127684a568b3173ae13b9f8a6016e243e63b6e8ee1178d6a717850b5d610460001c6100e7919061015a565b60001b81565b6000819050919050565b610100816100ed565b82525050565b600060208201905061011b60008301846100f7565b92915050565b6000819050919050565b7f4e487b7100000000000000000000000000000000000000000000000000000000600052601160045260246000fd5b600061016582610121565b915061017083610121565b9250828210156101835761018261012b565b5b82820390509291505056fea26469706673582212201f04c1002af3104e585c3da5406de90adad719c18d8811ec48329c25333701d364736f6c634300080d0033",
  "linkReferences": {},
  "deployedLinkReferences": {}
}