{
  "_format": "hh-sol-artifact-1",
  "contractName": "ProxyAdminStorage",
  "sourceName": "contracts/proxy/libraries/ProxyAdminStorage.sol",
  "abi": [
    {
      "anonymous": false,
      "inputs": [
        {
          "indexed": false,
          "internalType": "address",
          "name": "previousAdmin",
          "type": "address"
        },
        {
          "indexed": false,
          "internalType": "address",
          "name": "newAdmin",
          "type": "address"
        }
      ],
      "name": "AdminChanged",
      "type": "event"
    },
    {
      "inputs": [],
      "name": "PROXYADMIN_STORAGE_SLOT",
      "outputs": [
        {
          "internalType": "bytes32",
          "name": "",
          "type": "bytes32"
        }
      ],
      "stateMutability": "view",
      "type": "function"
    },
    {
      "inputs": [],
      "name": "PROXYADMIN_VERSION_SLOT",
      "outputs": [
        {
          "internalType": "bytes32",
          "name": "",
          "type": "bytes32"
        }
      ],
      "stateMutability": "view",
      "type": "function"
    }
  ],
  "bytecode": "0x61012561003a600b82828239805160001a60731461002d57634e487b7160e01b600052600060045260246000fd5b30600052607381538281f3fe7300000000000000000000000000000000000000003014608060405260043610603d5760003560e01c80630f49101b146042578063c478898014605a575b600080fd5b60486060565b60405190815260200160405180910390f35b6048608c565b608960017fb53127684a568b3173ae13b9f8a6016e243e63b6e8ee1178d6a717850b5d610460b2565b81565b608960017f4ba39e466466abda8ede3880e9caad29e2f559ec3de284b4c5c4d6b8b206de205b60008282101560ea577f4e487b7100000000000000000000000000000000000000000000000000000000600052601160045260246000fd5b50039056fea2646970667358221220d0e3dc122b077b27324dfac5ef036819fee2625b0f4efe13ea207e1c06ccf3fd64736f6c634300080e0033",
  "linkReferences": {},
  "deployedLinkReferences": {}
}