{
  "_format": "hh-sol-artifact-1",
  "contractName": "ContractOwnershipFacetMock",
  "sourceName": "contracts/mocks/access/facets/ContractOwnershipFacetMock.sol",
  "abi": [
    {
      "inputs": [
        {
          "internalType": "contract IForwarderRegistry",
          "name": "forwarderRegistry",
          "type": "address"
        }
      ],
      "stateMutability": "nonpayable",
      "type": "constructor"
    },
    {
      "anonymous": false,
      "inputs": [
        {
          "indexed": true,
          "internalType": "address",
          "name": "previousOwner",
          "type": "address"
        },
        {
          "indexed": true,
          "internalType": "address",
          "name": "newOwner",
          "type": "address"
        }
      ],
      "name": "OwnershipTransferred",
      "type": "event"
    },
    {
      "inputs": [],
      "name": "__msgData",
      "outputs": [
        {
          "internalType": "bytes",
          "name": "",
          "type": "bytes"
        }
      ],
      "stateMutability": "view",
      "type": "function"
    },
    {
      "inputs": [
        {
          "internalType": "address",
          "name": "account",
          "type": "address"
        }
      ],
      "name": "enforceIsContractOwner",
      "outputs": [],
      "stateMutability": "view",
      "type": "function"
    },
    {
      "inputs": [
        {
          "internalType": "address",
          "name": "initialOwner",
          "type": "address"
        }
      ],
      "name": "initContractOwnershipStorage",
      "outputs": [],
      "stateMutability": "nonpayable",
      "type": "function"
    },
    {
      "inputs": [],
      "name": "owner",
      "outputs": [
        {
          "internalType": "address",
          "name": "",
          "type": "address"
        }
      ],
      "stateMutability": "view",
      "type": "function"
    },
    {
      "inputs": [
        {
          "internalType": "address",
          "name": "newOwner",
          "type": "address"
        }
      ],
      "name": "transferOwnership",
      "outputs": [],
      "stateMutability": "nonpayable",
      "type": "function"
    }
  ],
  "bytecode": "0x60a060405234801561000f575f80fd5b50604051610b84380380610b8483398101604081905261002e9161003f565b6001600160a01b031660805261006c565b5f6020828403121561004f575f80fd5b81516001600160a01b0381168114610065575f80fd5b9392505050565b608051610aeb6100995f395f81816104a9015281816104e70152818161061b01526106a30152610aeb5ff3fe608060405234801561000f575f80fd5b5060043610610064575f3560e01c80638da5cb5b1161004d5780638da5cb5b1461009c57806397883ae2146100c9578063f2fde38b146100dc575f80fd5b806331e66e1e1461006857806363e340d614610087575b5f80fd5b6100706100ef565b60405161007e9291906109b1565b60405180910390f35b61009a6100953660046109fd565b610101565b005b6100a461012f565b60405173ffffffffffffffffffffffffffffffffffffffff909116815260200161007e565b61009a6100d73660046109fd565b61015a565b61009a6100ea3660046109fd565b61016c565b365f6100f9610187565b915091509091565b61011a61010c610191565b61011461019a565b906101cd565b61012c81610126610259565b90610286565b50565b5f61015561013b610259565b5473ffffffffffffffffffffffffffffffffffffffff1690565b905090565b61012c81610166610259565b906102c5565b61012c610177610191565b82610180610259565b9190610348565b365f6100f9610474565b5f6101556105d9565b5f806101c760017fb53127684a568b3173ae13b9f8a6016e243e63b6e8ee1178d6a717850b5d6104610a37565b92915050565b815473ffffffffffffffffffffffffffffffffffffffff828116911614610255576040517f08c379a000000000000000000000000000000000000000000000000000000000815260206004820152601960248201527f50726f787941646d696e3a206e6f74207468652061646d696e0000000000000060448201526064015b60405180910390fd5b5050565b5f806101c760017fc9ed16f33ab3a66c84bfd83099ccb2a8845871e2e1c1928f63797152f0fd54cd610a37565b6102bb6102b460017f5b388d90dc1312ba799f321972f13311234fa1163bcabec7cf66101c4876eb84610a37565b600161071d565b610255828261078d565b815473ffffffffffffffffffffffffffffffffffffffff828116911614610255576040517f08c379a000000000000000000000000000000000000000000000000000000000815260206004820152601860248201527f4f776e6572736869703a206e6f7420746865206f776e65720000000000000000604482015260640161024c565b825473ffffffffffffffffffffffffffffffffffffffff90811690831681146103cd576040517f08c379a000000000000000000000000000000000000000000000000000000000815260206004820152601860248201527f4f776e6572736869703a206e6f7420746865206f776e65720000000000000000604482015260640161024c565b8173ffffffffffffffffffffffffffffffffffffffff168173ffffffffffffffffffffffffffffffffffffffff161461046e5783547fffffffffffffffffffffffff00000000000000000000000000000000000000001673ffffffffffffffffffffffffffffffffffffffff8381169182178655604051908316907f8be0079c531659141344cd1fd0a4f28419497f9722a3daafe3b4186f6b6457e0905f90a35b50505050565b365f333214806104845750601836105b1561049157505f91369150565b3373ffffffffffffffffffffffffffffffffffffffff7f00000000000000000000000000000000000000000000000000000000000000001614806105c4575073ffffffffffffffffffffffffffffffffffffffff7f000000000000000000000000000000000000000000000000000000000000000016638929a8ca367fffffffffffffffffffffffffffffffffffffffffffffffffffffffffffffffec013560601c6040517fffffffff0000000000000000000000000000000000000000000000000000000060e084901b16815273ffffffffffffffffffffffffffffffffffffffff9091166004820152336024820152604401602060405180830381865afa1580156105a0573d5f803e3d5ffd5b505050506040513d601f19601f820116820180604052508101906105c49190610a6f565b156105d1576100f9610849565b505f91369150565b5f333214806105e85750601836105b156105f257503390565b7fffffffffffffffffffffffffffffffffffffffffffffffffffffffffffffffec36013560601c7f000000000000000000000000000000000000000000000000000000000000000073ffffffffffffffffffffffffffffffffffffffff1633148061070c57506040517f8929a8ca00000000000000000000000000000000000000000000000000000000815273ffffffffffffffffffffffffffffffffffffffff82811660048301523360248301527f00000000000000000000000000000000000000000000000000000000000000001690638929a8ca90604401602060405180830381865afa1580156106e8573d5f803e3d5ffd5b505050506040513d601f19601f8201168201806040525081019061070c9190610a6f565b1561071657919050565b3391505090565b815482908211610789576040517f08c379a000000000000000000000000000000000000000000000000000000000815260206004820152601660248201527f53746f726167653a207068617365207265616368656400000000000000000000604482015260640161024c565b5550565b73ffffffffffffffffffffffffffffffffffffffff8116156108145781547fffffffffffffffffffffffff00000000000000000000000000000000000000001673ffffffffffffffffffffffffffffffffffffffff821690811783556040515f907f8be0079c531659141344cd1fd0a4f28419497f9722a3daafe3b4186f6b6457e0908290a35b6102557f7f5828d0000000000000000000000000000000000000000000000000000000006001610842610879565b91906108a6565b365f6100f97fffffffffffffffffffffffffffffffffffffffffffffffffffffffffffffffec8301828481610a8e565b5f806101c760017fca9d3e17f264b0f3984e2634e94adb37fa3e6a8103f06aeae6fa59e21c769f5e610a37565b7c01000000000000000000000000000000000000000000000000000000007fffffffff0000000000000000000000000000000000000000000000000000000083160161094e576040517f08c379a000000000000000000000000000000000000000000000000000000000815260206004820152601f60248201527f496e74657266616365446574656374696f6e3a2077726f6e672076616c756500604482015260640161024c565b7fffffffff00000000000000000000000000000000000000000000000000000000919091165f908152602092909252604090912080547fffffffffffffffffffffffffffffffffffffffffffffffffffffffffffffff0016911515919091179055565b60208152816020820152818360408301375f818301604090810191909152601f9092017fffffffffffffffffffffffffffffffffffffffffffffffffffffffffffffffe0160101919050565b5f60208284031215610a0d575f80fd5b813573ffffffffffffffffffffffffffffffffffffffff81168114610a30575f80fd5b9392505050565b818103818111156101c7577f4e487b71000000000000000000000000000000000000000000000000000000005f52601160045260245ffd5b5f60208284031215610a7f575f80fd5b81518015158114610a30575f80fd5b5f8085851115610a9c575f80fd5b83861115610aa8575f80fd5b505082019391909203915056fea2646970667358221220666d0b0a0e88da057e51a6d504154ad5aaf320de521d75df3abb93f03d182de964736f6c63430008150033",
  "linkReferences": {},
  "deployedLinkReferences": {}
}