{
  "_format": "hh-sol-artifact-1",
  "contractName": "ContractOwnershipFacetMock",
  "sourceName": "contracts/mocks/access/facets/ContractOwnershipFacetMock.sol",
  "abi": [
    {
      "inputs": [
        {
          "internalType": "contract IForwarderRegistry",
          "name": "forwarderRegistry",
          "type": "address"
        }
      ],
      "stateMutability": "nonpayable",
      "type": "constructor"
    },
    {
      "inputs": [],
      "name": "IllegalInterfaceId",
      "type": "error"
    },
    {
      "inputs": [
        {
          "internalType": "uint256",
          "name": "currentPhase",
          "type": "uint256"
        },
        {
          "internalType": "uint256",
          "name": "newPhase",
          "type": "uint256"
        }
      ],
      "name": "InitializationPhaseAlreadyReached",
      "type": "error"
    },
    {
      "inputs": [
        {
          "internalType": "address",
          "name": "account",
          "type": "address"
        }
      ],
      "name": "NotContractOwner",
      "type": "error"
    },
    {
      "inputs": [
        {
          "internalType": "address",
          "name": "account",
          "type": "address"
        }
      ],
      "name": "NotProxyAdmin",
      "type": "error"
    },
    {
      "anonymous": false,
      "inputs": [
        {
          "indexed": true,
          "internalType": "address",
          "name": "previousOwner",
          "type": "address"
        },
        {
          "indexed": true,
          "internalType": "address",
          "name": "newOwner",
          "type": "address"
        }
      ],
      "name": "OwnershipTransferred",
      "type": "event"
    },
    {
      "inputs": [],
      "name": "__msgData",
      "outputs": [
        {
          "internalType": "bytes",
          "name": "",
          "type": "bytes"
        }
      ],
      "stateMutability": "view",
      "type": "function"
    },
    {
      "inputs": [
        {
          "internalType": "address",
          "name": "account",
          "type": "address"
        }
      ],
      "name": "enforceIsContractOwner",
      "outputs": [],
      "stateMutability": "view",
      "type": "function"
    },
    {
      "inputs": [
        {
          "internalType": "address",
          "name": "initialOwner",
          "type": "address"
        }
      ],
      "name": "initContractOwnershipStorage",
      "outputs": [],
      "stateMutability": "nonpayable",
      "type": "function"
    },
    {
      "inputs": [],
      "name": "owner",
      "outputs": [
        {
          "internalType": "address",
          "name": "",
          "type": "address"
        }
      ],
      "stateMutability": "view",
      "type": "function"
    },
    {
      "inputs": [
        {
          "internalType": "address",
          "name": "newOwner",
          "type": "address"
        }
      ],
      "name": "transferOwnership",
      "outputs": [],
      "stateMutability": "nonpayable",
      "type": "function"
    }
  ],
  "bytecode": "0x60a060405234801561001057600080fd5b50604051610b12380380610b1283398101604081905261002f91610040565b6001600160a01b0316608052610070565b60006020828403121561005257600080fd5b81516001600160a01b038116811461006957600080fd5b9392505050565b608051610a726100a06000396000818161046e015281816104ac015281816105e4015261066c0152610a726000f3fe608060405234801561001057600080fd5b50600436106100675760003560e01c80638da5cb5b116100505780638da5cb5b146100a057806397883ae2146100cd578063f2fde38b146100e057600080fd5b806331e66e1e1461006c57806363e340d61461008b575b600080fd5b6100746100f3565b60405161008292919061092c565b60405180910390f35b61009e610099366004610979565b610106565b005b6100a8610134565b60405173ffffffffffffffffffffffffffffffffffffffff9091168152602001610082565b61009e6100db366004610979565b610160565b61009e6100ee366004610979565b610172565b3660006100fe61018d565b915091509091565b61011f610111610198565b6101196101a2565b906101d6565b6101318161012b61024a565b90610278565b50565b600061015b61014161024a565b5473ffffffffffffffffffffffffffffffffffffffff1690565b905090565b6101318161016c61024a565b906102b7565b61013161017d610198565b8261018661024a565b9190610322565b3660006100fe610437565b600061015b6105a1565b6000806101d060017fb53127684a568b3173ae13b9f8a6016e243e63b6e8ee1178d6a717850b5d61046109b6565b92915050565b815473ffffffffffffffffffffffffffffffffffffffff828116911614610246576040517f673a31a100000000000000000000000000000000000000000000000000000000815273ffffffffffffffffffffffffffffffffffffffff821660048201526024015b60405180910390fd5b5050565b6000806101d060017fc9ed16f33ab3a66c84bfd83099ccb2a8845871e2e1c1928f63797152f0fd54cd6109b6565b6102ad6102a660017f5b388d90dc1312ba799f321972f13311234fa1163bcabec7cf66101c4876eb846109b6565b60016106e8565b6102468282610734565b815473ffffffffffffffffffffffffffffffffffffffff828116911614610246576040517f2ef4875e00000000000000000000000000000000000000000000000000000000815273ffffffffffffffffffffffffffffffffffffffff8216600482015260240161023d565b825473ffffffffffffffffffffffffffffffffffffffff908116908316811461038f576040517f2ef4875e00000000000000000000000000000000000000000000000000000000815273ffffffffffffffffffffffffffffffffffffffff8416600482015260240161023d565b8173ffffffffffffffffffffffffffffffffffffffff168173ffffffffffffffffffffffffffffffffffffffff16146104315783547fffffffffffffffffffffffff00000000000000000000000000000000000000001673ffffffffffffffffffffffffffffffffffffffff8381169182178655604051908316907f8be0079c531659141344cd1fd0a4f28419497f9722a3daafe3b4186f6b6457e090600090a35b50505050565b366000333214806104485750601836105b156104565750600091369150565b3373ffffffffffffffffffffffffffffffffffffffff7f000000000000000000000000000000000000000000000000000000000000000016148061058b575073ffffffffffffffffffffffffffffffffffffffff7f000000000000000000000000000000000000000000000000000000000000000016638929a8ca367fffffffffffffffffffffffffffffffffffffffffffffffffffffffffffffffec013560601c6040517fffffffff0000000000000000000000000000000000000000000000000000000060e084901b16815273ffffffffffffffffffffffffffffffffffffffff9091166004820152336024820152604401602060405180830381865afa158015610567573d6000803e3d6000fd5b505050506040513d601f19601f8201168201806040525081019061058b91906109f0565b15610598576100fe6107f1565b50600091369150565b6000333214806105b15750601836105b156105bb57503390565b7fffffffffffffffffffffffffffffffffffffffffffffffffffffffffffffffec36013560601c7f000000000000000000000000000000000000000000000000000000000000000073ffffffffffffffffffffffffffffffffffffffff163314806106d757506040517f8929a8ca00000000000000000000000000000000000000000000000000000000815273ffffffffffffffffffffffffffffffffffffffff82811660048301523360248301527f00000000000000000000000000000000000000000000000000000000000000001690638929a8ca90604401602060405180830381865afa1580156106b3573d6000803e3d6000fd5b505050506040513d601f19601f820116820180604052508101906106d791906109f0565b156106e157919050565b3391505090565b8154829082811061072f576040517fbf0c18ec000000000000000000000000000000000000000000000000000000008152600481018290526024810184905260440161023d565b505550565b73ffffffffffffffffffffffffffffffffffffffff8116156107bc5781547fffffffffffffffffffffffff00000000000000000000000000000000000000001673ffffffffffffffffffffffffffffffffffffffff821690811783556040516000907f8be0079c531659141344cd1fd0a4f28419497f9722a3daafe3b4186f6b6457e0908290a35b6102467f7f5828d00000000000000000000000000000000000000000000000000000000060016107ea610822565b9190610850565b3660006100fe7fffffffffffffffffffffffffffffffffffffffffffffffffffffffffffffffec8301828481610a12565b6000806101d060017fca9d3e17f264b0f3984e2634e94adb37fa3e6a8103f06aeae6fa59e21c769f5e6109b6565b7c01000000000000000000000000000000000000000000000000000000007fffffffff000000000000000000000000000000000000000000000000000000008316016108c8576040517f72c683bb00000000000000000000000000000000000000000000000000000000815260040160405180910390fd5b7fffffffff00000000000000000000000000000000000000000000000000000000919091166000908152602092909252604090912080547fffffffffffffffffffffffffffffffffffffffffffffffffffffffffffffff0016911515919091179055565b60208152816020820152818360408301376000818301604090810191909152601f9092017fffffffffffffffffffffffffffffffffffffffffffffffffffffffffffffffe0160101919050565b60006020828403121561098b57600080fd5b813573ffffffffffffffffffffffffffffffffffffffff811681146109af57600080fd5b9392505050565b818103818111156101d0577f4e487b7100000000000000000000000000000000000000000000000000000000600052601160045260246000fd5b600060208284031215610a0257600080fd5b815180151581146109af57600080fd5b60008085851115610a2257600080fd5b83861115610a2f57600080fd5b505082019391909203915056fea264697066735822122080c5b778d530238253b097f87d6cbf2a3aab8cd8fa801083240a869a580c5bee64736f6c63430008150033",
  "linkReferences": {},
  "deployedLinkReferences": {}
}