{
  "_format": "hh-sol-artifact-1",
  "contractName": "ForwarderMock",
  "sourceName": "contracts/mocks/metatx/ForwarderMock.sol",
  "abi": [
    {
      "inputs": [
        {
          "internalType": "address",
          "name": "target",
          "type": "address"
        }
      ],
      "name": "AddressEmptyCode",
      "type": "error"
    },
    {
      "inputs": [],
      "name": "FailedCall",
      "type": "error"
    },
    {
      "inputs": [
        {
          "internalType": "uint256",
          "name": "balance",
          "type": "uint256"
        },
        {
          "internalType": "uint256",
          "name": "needed",
          "type": "uint256"
        }
      ],
      "name": "InsufficientBalance",
      "type": "error"
    },
    {
      "inputs": [
        {
          "internalType": "address",
          "name": "from",
          "type": "address"
        },
        {
          "internalType": "address",
          "name": "target",
          "type": "address"
        },
        {
          "internalType": "bytes",
          "name": "data",
          "type": "bytes"
        }
      ],
      "name": "forward",
      "outputs": [],
      "stateMutability": "payable",
      "type": "function"
    },
    {
      "inputs": [
        {
          "internalType": "address",
          "name": "target",
          "type": "address"
        },
        {
          "internalType": "bytes",
          "name": "data",
          "type": "bytes"
        }
      ],
      "name": "non2771Forward",
      "outputs": [],
      "stateMutability": "payable",
      "type": "function"
    }
  ],
  "bytecode": "0x6080604052348015600f57600080fd5b506104858061001f6000396000f3fe6080604052600436106100295760003560e01c806382c662a51461002e578063e5166b9214610043575b600080fd5b61004161003c366004610333565b610056565b005b610041610051366004610386565b6100b4565b6100ae82828080601f016020809104026020016040519081016040528093929190818152602001838380828437600092019190915250505073ffffffffffffffffffffffffffffffffffffffff86169190503461011f565b50505050565b6101188282866040516020016100cc939291906103e7565b604080517fffffffffffffffffffffffffffffffffffffffffffffffffffffffffffffffe081840301815291905273ffffffffffffffffffffffffffffffffffffffff8516903461011f565b5050505050565b606081471015610169576040517fcf479181000000000000000000000000000000000000000000000000000000008152476004820152602481018390526044015b60405180910390fd5b6000808573ffffffffffffffffffffffffffffffffffffffff1684866040516101929190610420565b60006040518083038185875af1925050503d80600081146101cf576040519150601f19603f3d011682016040523d82523d6000602084013e6101d4565b606091505b50915091506101e48683836101f0565b925050505b9392505050565b606082610205576102008261027f565b6101e9565b8151158015610229575073ffffffffffffffffffffffffffffffffffffffff84163b155b15610278576040517f9996b31500000000000000000000000000000000000000000000000000000000815273ffffffffffffffffffffffffffffffffffffffff85166004820152602401610160565b50806101e9565b80511561028f5780518082602001fd5b6040517fd6bda27500000000000000000000000000000000000000000000000000000000815260040160405180910390fd5b803573ffffffffffffffffffffffffffffffffffffffff811681146102e557600080fd5b919050565b60008083601f8401126102fc57600080fd5b50813567ffffffffffffffff81111561031457600080fd5b60208301915083602082850101111561032c57600080fd5b9250929050565b60008060006040848603121561034857600080fd5b610351846102c1565b9250602084013567ffffffffffffffff81111561036d57600080fd5b610379868287016102ea565b9497909650939450505050565b6000806000806060858703121561039c57600080fd5b6103a5856102c1565b93506103b3602086016102c1565b9250604085013567ffffffffffffffff8111156103cf57600080fd5b6103db878288016102ea565b95989497509550505050565b8284823760609190911b7fffffffffffffffffffffffffffffffffffffffff000000000000000000000000169101908152601401919050565b6000825160005b818110156104415760208186018101518583015201610427565b50600092019182525091905056fea2646970667358221220861d013705fba239ee240f0fe57970350d7a11cbdbcc7ff51885292d981be3a364736f6c63430008190033",
  "linkReferences": {},
  "deployedLinkReferences": {}
}