{
  "_format": "hh-sol-artifact-1",
  "contractName": "CheckpointsFacetMock",
  "sourceName": "contracts/mocks/lifecycle/facets/CheckpointsFacetMock.sol",
  "abi": [
    {
      "inputs": [
        {
          "internalType": "contract IForwarderRegistry",
          "name": "forwarderRegistry",
          "type": "address"
        }
      ],
      "stateMutability": "nonpayable",
      "type": "constructor"
    },
    {
      "anonymous": false,
      "inputs": [
        {
          "indexed": false,
          "internalType": "bytes32",
          "name": "checkpointId",
          "type": "bytes32"
        },
        {
          "indexed": false,
          "internalType": "uint256",
          "name": "timestamp",
          "type": "uint256"
        }
      ],
      "name": "CheckpointSet",
      "type": "event"
    },
    {
      "inputs": [],
      "name": "START_CHECKPOINTID",
      "outputs": [
        {
          "internalType": "bytes32",
          "name": "",
          "type": "bytes32"
        }
      ],
      "stateMutability": "view",
      "type": "function"
    },
    {
      "inputs": [],
      "name": "__msgData",
      "outputs": [
        {
          "internalType": "bytes",
          "name": "",
          "type": "bytes"
        }
      ],
      "stateMutability": "view",
      "type": "function"
    },
    {
      "inputs": [
        {
          "internalType": "bytes32",
          "name": "checkpointId",
          "type": "bytes32"
        }
      ],
      "name": "checkpoint",
      "outputs": [
        {
          "internalType": "uint256",
          "name": "",
          "type": "uint256"
        }
      ],
      "stateMutability": "view",
      "type": "function"
    },
    {
      "inputs": [
        {
          "internalType": "bytes32",
          "name": "checkpointId",
          "type": "bytes32"
        }
      ],
      "name": "checkpointReached",
      "outputs": [
        {
          "internalType": "bool",
          "name": "",
          "type": "bool"
        }
      ],
      "stateMutability": "view",
      "type": "function"
    },
    {
      "inputs": [
        {
          "internalType": "bytes32",
          "name": "checkpointId",
          "type": "bytes32"
        }
      ],
      "name": "enforceCheckpointNotReached",
      "outputs": [],
      "stateMutability": "view",
      "type": "function"
    },
    {
      "inputs": [
        {
          "internalType": "bytes32",
          "name": "checkpointId",
          "type": "bytes32"
        }
      ],
      "name": "enforceCheckpointReached",
      "outputs": [],
      "stateMutability": "view",
      "type": "function"
    },
    {
      "inputs": [
        {
          "internalType": "bytes32[]",
          "name": "checkpointIds",
          "type": "bytes32[]"
        },
        {
          "internalType": "uint256[]",
          "name": "timestamps",
          "type": "uint256[]"
        }
      ],
      "name": "initCheckpointsStorage",
      "outputs": [],
      "stateMutability": "nonpayable",
      "type": "function"
    },
    {
      "inputs": [
        {
          "internalType": "bytes32",
          "name": "checkpointId",
          "type": "bytes32"
        },
        {
          "internalType": "uint256",
          "name": "timestamp",
          "type": "uint256"
        }
      ],
      "name": "setCheckpoint",
      "outputs": [],
      "stateMutability": "nonpayable",
      "type": "function"
    },
    {
      "inputs": [
        {
          "internalType": "bytes32",
          "name": "checkpointId",
          "type": "bytes32"
        }
      ],
      "name": "triggerCheckpoint",
      "outputs": [],
      "stateMutability": "nonpayable",
      "type": "function"
    }
  ],
  "bytecode": "0x60a060405234801561001057600080fd5b5060405161113a38038061113a83398101604081905261002f91610040565b6001600160a01b0316608052610070565b60006020828403121561005257600080fd5b81516001600160a01b038116811461006957600080fd5b9392505050565b60805161109a6100a0600039600081816106c70152818161074f01528181610b1c0152610b5a015261109a6000f3fe608060405234801561001057600080fd5b50600436106100a25760003560e01c80634bddd15c116100765780635b34eba01161005b5780635b34eba014610133578063b4c6cf7614610154578063deb4d7461461017b57600080fd5b80634bddd15c1461010d5780634f410a801461012057600080fd5b8062cb171d146100a7578063151bdba6146100bc578063244c00be146100e457806331e66e1e146100f7575b600080fd5b6100ba6100b5366004610ccc565b61018e565b005b6100cf6100ca366004610d38565b610225565b60405190151581526020015b60405180910390f35b6100ba6100f2366004610d38565b61023f565b6100ff610254565b6040516100db929190610d51565b6100ba61011b366004610d38565b610267565b6100ba61012e366004610d9e565b610279565b610146610141366004610d38565b6102aa565b6040519081526020016100db565b6101467f535441525400000000000000000000000000000000000000000000000000000081565b6100ba610189366004610d38565b6102c8565b6101a76101996102e5565b6101a16102f4565b90610322565b61021f8484808060200260200160405190810160405280939291908181526020018383602002808284376000920191909152505060408051602080880282810182019093528782529093508792508691829185019084908082843760009201919091525061021892506103aa915050565b91906103d8565b50505050565b6000610239826102336103aa565b9061041d565b92915050565b6102518161024b6103aa565b90610443565b50565b36600061025f6104c8565b915091509091565b610251816102736103aa565b906104d3565b6102926102846102e5565b61028c6104fb565b90610529565b6102a6828261029f6103aa565b91906105ac565b5050565b6000610239826102b86103aa565b6000918252602052604090205490565b6102d36102846102e5565b610251816102df6103aa565b9061062d565b60006102ef610684565b905090565b60008061023960017fb53127684a568b3173ae13b9f8a6016e243e63b6e8ee1178d6a717850b5d6104610dc0565b815473ffffffffffffffffffffffffffffffffffffffff8281169116146102a6576040517f08c379a000000000000000000000000000000000000000000000000000000000815260206004820152601960248201527f50726f787941646d696e3a206e6f74207468652061646d696e0000000000000060448201526064015b60405180910390fd5b60008061023960017f0def758eb96c12015155889b8e63d1cb5c0dbce5585bbdf9d99ea353f56c716c610dc0565b61040d61040660017f196e5733a2e7d65819650a38085014d2c42b0e9cb19fece2fe9c43f2c650b898610dc0565b60016107cb565b61041883838361083b565b505050565b600081815260208390526040812054801580159061043b5750804210155b949350505050565b61044d828261041d565b6102a65761045a81610953565b60405160200161046a9190610e1e565b604080517fffffffffffffffffffffffffffffffffffffffffffffffffffffffffffffffe0818403018152908290527f08c379a00000000000000000000000000000000000000000000000000000000082526103a191600401610e8a565b36600061025f610ae5565b6104dd828261041d565b156102a6576104eb81610953565b60405160200161046a9190610edb565b60008061023960017fc9ed16f33ab3a66c84bfd83099ccb2a8845871e2e1c1928f63797152f0fd54cd610dc0565b815473ffffffffffffffffffffffffffffffffffffffff8281169116146102a6576040517f08c379a000000000000000000000000000000000000000000000000000000000815260206004820152601860248201527f4f776e6572736869703a206e6f7420746865206f776e6572000000000000000060448201526064016103a1565b600082815260208490526040902054156105d9576105c982610953565b60405160200161046a9190610f47565b8015610418576000828152602084815260409182902083905581518481529081018390527f099ea97db121bdf4a102e67113e27b6bb74713015b32a5f0e1c3ea0d44fb2953910160405180910390a1505050565b61063782826104d3565b6000818152602083815260409182902042908190558251848152918201527f099ea97db121bdf4a102e67113e27b6bb74713015b32a5f0e1c3ea0d44fb2953910160405180910390a15050565b6000333214806106945750601836105b1561069e57503390565b7fffffffffffffffffffffffffffffffffffffffffffffffffffffffffffffffec36013560601c7f000000000000000000000000000000000000000000000000000000000000000073ffffffffffffffffffffffffffffffffffffffff163314806107ba57506040517f8929a8ca00000000000000000000000000000000000000000000000000000000815273ffffffffffffffffffffffffffffffffffffffff82811660048301523360248301527f00000000000000000000000000000000000000000000000000000000000000001690638929a8ca90604401602060405180830381865afa158015610796573d6000803e3d6000fd5b505050506040513d601f19601f820116820180604052508101906107ba9190610fb3565b156107c457919050565b3391505090565b815482908211610837576040517f08c379a000000000000000000000000000000000000000000000000000000000815260206004820152601660248201527f53746f726167653a20706861736520726561636865640000000000000000000060448201526064016103a1565b5550565b8151815181146108a7576040517f08c379a000000000000000000000000000000000000000000000000000000000815260206004820152601f60248201527f436865636b706f696e74733a2077726f6e67206172726179206c656e6774680060448201526064016103a1565b60005b81811461094c5760008382815181106108c5576108c5610fdc565b60200260200101519050806000146109435760008583815181106108eb576108eb610fdc565b602090810291909101810151600081815289835260409081902085905580518281529283018590529092507f099ea97db121bdf4a102e67113e27b6bb74713015b32a5f0e1c3ea0d44fb2953910160405180910390a1505b506001016108aa565b5050505050565b6060600082900361097257505060408051602081019091526000815290565b60008260405160200161098791815260200190565b604080517fffffffffffffffffffffffffffffffffffffffffffffffffffffffffffffffe08184030181529190529050601f5b8181815181106109cc576109cc610fdc565b01602001517fff0000000000000000000000000000000000000000000000000000000000000016600003610a21577fffffffffffffffffffffffffffffffffffffffffffffffffffffffffffffffff016109ba565b60008160010167ffffffffffffffff811115610a3f57610a3f61100b565b6040519080825280601f01601f191660200182016040528015610a69576020820181803683370190505b50905060005b828111610adc57838181518110610a8857610a88610fdc565b602001015160f81c60f81b828281518110610aa557610aa5610fdc565b60200101907effffffffffffffffffffffffffffffffffffffffffffffffffffffffffffff1916908160001a905350600101610a6f565b50949350505050565b36600033321480610af65750601836105b15610b045750600091369150565b3373ffffffffffffffffffffffffffffffffffffffff7f0000000000000000000000000000000000000000000000000000000000000000161480610c39575073ffffffffffffffffffffffffffffffffffffffff7f000000000000000000000000000000000000000000000000000000000000000016638929a8ca367fffffffffffffffffffffffffffffffffffffffffffffffffffffffffffffffec013560601c6040517fffffffff0000000000000000000000000000000000000000000000000000000060e084901b16815273ffffffffffffffffffffffffffffffffffffffff9091166004820152336024820152604401602060405180830381865afa158015610c15573d6000803e3d6000fd5b505050506040513d601f19601f82011682018060405250810190610c399190610fb3565b15610c465761025f610c4f565b50600091369150565b36600061025f7fffffffffffffffffffffffffffffffffffffffffffffffffffffffffffffffec830182848161103a565b60008083601f840112610c9257600080fd5b50813567ffffffffffffffff811115610caa57600080fd5b6020830191508360208260051b8501011115610cc557600080fd5b9250929050565b60008060008060408587031215610ce257600080fd5b843567ffffffffffffffff80821115610cfa57600080fd5b610d0688838901610c80565b90965094506020870135915080821115610d1f57600080fd5b50610d2c87828801610c80565b95989497509550505050565b600060208284031215610d4a57600080fd5b5035919050565b60208152816020820152818360408301376000818301604090810191909152601f9092017fffffffffffffffffffffffffffffffffffffffffffffffffffffffffffffffe0160101919050565b60008060408385031215610db157600080fd5b50508035926020909101359150565b81810381811115610239577f4e487b7100000000000000000000000000000000000000000000000000000000600052601160045260246000fd5b60005b83811015610e15578181015183820152602001610dfd565b50506000910152565b7f436865636b706f696e74733a20636865636b706f696e74202700000000000000815260008251610e56816019850160208701610dfa565b7f27206e6f742072656163686564207965740000000000000000000000000000006019939091019283015250602a01919050565b6020815260008251806020840152610ea9816040850160208701610dfa565b601f017fffffffffffffffffffffffffffffffffffffffffffffffffffffffffffffffe0169190910160400192915050565b7f436865636b706f696e74733a20636865636b706f696e74202700000000000000815260008251610f13816019850160208701610dfa565b7f2720616c726561647920726561636865640000000000000000000000000000006019939091019283015250602a01919050565b7f436865636b706f696e74733a20636865636b706f696e74202700000000000000815260008251610f7f816019850160208701610dfa565b7f2720616c726561647920736574000000000000000000000000000000000000006019939091019283015250602601919050565b600060208284031215610fc557600080fd5b81518015158114610fd557600080fd5b9392505050565b7f4e487b7100000000000000000000000000000000000000000000000000000000600052603260045260246000fd5b7f4e487b7100000000000000000000000000000000000000000000000000000000600052604160045260246000fd5b6000808585111561104a57600080fd5b8386111561105757600080fd5b505082019391909203915056fea2646970667358221220fe9161b616f67feee43b29cf84b11da473561d19350c1a8ec6c19e9a92d6dc0464736f6c63430008110033",
  "linkReferences": {},
  "deployedLinkReferences": {}
}