{
  "_format": "hh-sol-artifact-1",
  "contractName": "CheckpointsFacetMock",
  "sourceName": "contracts/mocks/lifecycle/facets/CheckpointsFacetMock.sol",
  "abi": [
    {
      "inputs": [
        {
          "internalType": "contract IForwarderRegistry",
          "name": "forwarderRegistry",
          "type": "address"
        }
      ],
      "stateMutability": "nonpayable",
      "type": "constructor"
    },
    {
      "inputs": [
        {
          "internalType": "bytes32",
          "name": "checkpointId",
          "type": "bytes32"
        }
      ],
      "name": "CheckpointAlreadySet",
      "type": "error"
    },
    {
      "inputs": [
        {
          "internalType": "bytes32",
          "name": "checkpointId",
          "type": "bytes32"
        }
      ],
      "name": "CheckpointNotReached",
      "type": "error"
    },
    {
      "inputs": [
        {
          "internalType": "bytes32",
          "name": "checkpointId",
          "type": "bytes32"
        }
      ],
      "name": "CheckpointReached",
      "type": "error"
    },
    {
      "inputs": [],
      "name": "InconsistentArrayLengths",
      "type": "error"
    },
    {
      "inputs": [
        {
          "internalType": "address",
          "name": "account",
          "type": "address"
        }
      ],
      "name": "NotContractOwner",
      "type": "error"
    },
    {
      "anonymous": false,
      "inputs": [
        {
          "indexed": false,
          "internalType": "bytes32",
          "name": "checkpointId",
          "type": "bytes32"
        },
        {
          "indexed": false,
          "internalType": "uint256",
          "name": "timestamp",
          "type": "uint256"
        }
      ],
      "name": "CheckpointSet",
      "type": "event"
    },
    {
      "inputs": [],
      "name": "START_CHECKPOINTID",
      "outputs": [
        {
          "internalType": "bytes32",
          "name": "",
          "type": "bytes32"
        }
      ],
      "stateMutability": "view",
      "type": "function"
    },
    {
      "inputs": [],
      "name": "__msgData",
      "outputs": [
        {
          "internalType": "bytes",
          "name": "",
          "type": "bytes"
        }
      ],
      "stateMutability": "view",
      "type": "function"
    },
    {
      "inputs": [
        {
          "internalType": "bytes32[]",
          "name": "checkpointIds",
          "type": "bytes32[]"
        },
        {
          "internalType": "uint256[]",
          "name": "timestamps",
          "type": "uint256[]"
        }
      ],
      "name": "batchSetCheckpoint",
      "outputs": [],
      "stateMutability": "nonpayable",
      "type": "function"
    },
    {
      "inputs": [
        {
          "internalType": "bytes32",
          "name": "checkpointId",
          "type": "bytes32"
        }
      ],
      "name": "checkpoint",
      "outputs": [
        {
          "internalType": "uint256",
          "name": "",
          "type": "uint256"
        }
      ],
      "stateMutability": "view",
      "type": "function"
    },
    {
      "inputs": [
        {
          "internalType": "bytes32",
          "name": "checkpointId",
          "type": "bytes32"
        }
      ],
      "name": "checkpointReached",
      "outputs": [
        {
          "internalType": "bool",
          "name": "",
          "type": "bool"
        }
      ],
      "stateMutability": "view",
      "type": "function"
    },
    {
      "inputs": [
        {
          "internalType": "bytes32",
          "name": "checkpointId",
          "type": "bytes32"
        }
      ],
      "name": "enforceCheckpointNotReached",
      "outputs": [],
      "stateMutability": "view",
      "type": "function"
    },
    {
      "inputs": [
        {
          "internalType": "bytes32",
          "name": "checkpointId",
          "type": "bytes32"
        }
      ],
      "name": "enforceCheckpointReached",
      "outputs": [],
      "stateMutability": "view",
      "type": "function"
    },
    {
      "inputs": [
        {
          "internalType": "bytes32",
          "name": "checkpointId",
          "type": "bytes32"
        },
        {
          "internalType": "uint256",
          "name": "timestamp",
          "type": "uint256"
        }
      ],
      "name": "setCheckpoint",
      "outputs": [],
      "stateMutability": "nonpayable",
      "type": "function"
    },
    {
      "inputs": [
        {
          "internalType": "bytes32",
          "name": "checkpointId",
          "type": "bytes32"
        }
      ],
      "name": "triggerCheckpoint",
      "outputs": [],
      "stateMutability": "nonpayable",
      "type": "function"
    }
  ],
  "bytecode": "0x60a060405234801561001057600080fd5b50604051610b4e380380610b4e83398101604081905261002f91610040565b6001600160a01b0316608052610070565b60006020828403121561005257600080fd5b81516001600160a01b038116811461006957600080fd5b9392505050565b608051610aae6100a0600039600081816105d10152818161060f0152818161074701526107cf0152610aae6000f3fe608060405234801561001057600080fd5b50600436106100a35760003560e01c80634bddd15c116100765780635b34eba01161005b5780635b34eba014610134578063b4c6cf7614610155578063deb4d7461461017c57600080fd5b80634bddd15c1461010e5780634f410a801461012157600080fd5b8063151bdba6146100a8578063244c00be146100d057806331e66e1e146100e55780633b149369146100fb575b600080fd5b6100bb6100b636600461087c565b61018f565b60405190151581526020015b60405180910390f35b6100e36100de36600461087c565b6101a9565b005b6100ed6101be565b6040516100c7929190610895565b6100e361010936600461092e565b6101d1565b6100e361011c36600461087c565b610208565b6100e361012f36600461099a565b61021a565b61014761014236600461087c565b61023d565b6040519081526020016100c7565b6101477f535441525400000000000000000000000000000000000000000000000000000081565b6100e361018a36600461087c565b61025b565b60006101a38261019d610278565b906102a6565b92915050565b6101bb816101b5610278565b906102cc565b50565b3660006101c9610314565b915091509091565b6101ea6101dc61031f565b6101e461032e565b9061035c565b610202848484846101f9610278565b939291906103c7565b50505050565b6101bb81610214610278565b90610461565b6102256101dc61031f565b6102398282610232610278565b91906104a5565b5050565b60006101a38261024b610278565b6000918252602052604090205490565b6102666101dc61031f565b6101bb81610272610278565b90610543565b6000806101a360017f0def758eb96c12015155889b8e63d1cb5c0dbce5585bbdf9d99ea353f56c716c6109bc565b60008181526020839052604081205480158015906102c45750804210155b949350505050565b6102d682826102a6565b610239576040517fa7afbc52000000000000000000000000000000000000000000000000000000008152600481018290526024015b60405180910390fd5b3660006101c961059a565b6000610329610704565b905090565b6000806101a360017fc9ed16f33ab3a66c84bfd83099ccb2a8845871e2e1c1928f63797152f0fd54cd6109bc565b815473ffffffffffffffffffffffffffffffffffffffff828116911614610239576040517f2ef4875e00000000000000000000000000000000000000000000000000000000815273ffffffffffffffffffffffffffffffffffffffff8216600482015260240161030b565b82818114610401576040517f6582533600000000000000000000000000000000000000000000000000000000815260040160405180910390fd5b60005b81811461045857610450868683818110610420576104206109f6565b90506020020135858584818110610439576104396109f6565b90506020020135896104a59092919063ffffffff16565b600101610404565b50505050505050565b61046b82826102a6565b15610239576040517f8e54d9090000000000000000000000000000000000000000000000000000000081526004810182905260240161030b565b600082815260208490526040902054156104ee576040517f33e962eb0000000000000000000000000000000000000000000000000000000081526004810183905260240161030b565b801561053e576000828152602084815260409182902083905581518481529081018390527f099ea97db121bdf4a102e67113e27b6bb74713015b32a5f0e1c3ea0d44fb2953910160405180910390a15b505050565b61054d8282610461565b6000818152602083815260409182902042908190558251848152918201527f099ea97db121bdf4a102e67113e27b6bb74713015b32a5f0e1c3ea0d44fb2953910160405180910390a15050565b366000333214806105ab5750601836105b156105b95750600091369150565b3373ffffffffffffffffffffffffffffffffffffffff7f00000000000000000000000000000000000000000000000000000000000000001614806106ee575073ffffffffffffffffffffffffffffffffffffffff7f000000000000000000000000000000000000000000000000000000000000000016638929a8ca367fffffffffffffffffffffffffffffffffffffffffffffffffffffffffffffffec013560601c6040517fffffffff0000000000000000000000000000000000000000000000000000000060e084901b16815273ffffffffffffffffffffffffffffffffffffffff9091166004820152336024820152604401602060405180830381865afa1580156106ca573d6000803e3d6000fd5b505050506040513d601f19601f820116820180604052508101906106ee9190610a25565b156106fb576101c961084b565b50600091369150565b6000333214806107145750601836105b1561071e57503390565b7fffffffffffffffffffffffffffffffffffffffffffffffffffffffffffffffec36013560601c7f000000000000000000000000000000000000000000000000000000000000000073ffffffffffffffffffffffffffffffffffffffff1633148061083a57506040517f8929a8ca00000000000000000000000000000000000000000000000000000000815273ffffffffffffffffffffffffffffffffffffffff82811660048301523360248301527f00000000000000000000000000000000000000000000000000000000000000001690638929a8ca90604401602060405180830381865afa158015610816573d6000803e3d6000fd5b505050506040513d601f19601f8201168201806040525081019061083a9190610a25565b1561084457919050565b3391505090565b3660006101c97fffffffffffffffffffffffffffffffffffffffffffffffffffffffffffffffec8301828481610a4e565b60006020828403121561088e57600080fd5b5035919050565b60208152816020820152818360408301376000818301604090810191909152601f9092017fffffffffffffffffffffffffffffffffffffffffffffffffffffffffffffffe0160101919050565b60008083601f8401126108f457600080fd5b50813567ffffffffffffffff81111561090c57600080fd5b6020830191508360208260051b850101111561092757600080fd5b9250929050565b6000806000806040858703121561094457600080fd5b843567ffffffffffffffff8082111561095c57600080fd5b610968888389016108e2565b9096509450602087013591508082111561098157600080fd5b5061098e878288016108e2565b95989497509550505050565b600080604083850312156109ad57600080fd5b50508035926020909101359150565b818103818111156101a3577f4e487b7100000000000000000000000000000000000000000000000000000000600052601160045260246000fd5b7f4e487b7100000000000000000000000000000000000000000000000000000000600052603260045260246000fd5b600060208284031215610a3757600080fd5b81518015158114610a4757600080fd5b9392505050565b60008085851115610a5e57600080fd5b83861115610a6b57600080fd5b505082019391909203915056fea2646970667358221220f70e866152019db5c31a07661e27c6c76041b6022dfadb5d9154f2f89e68ff6464736f6c63430008150033",
  "linkReferences": {},
  "deployedLinkReferences": {}
}