{
  "_format": "hh-sol-artifact-1",
  "contractName": "DiamondLoupeFacet",
  "sourceName": "contracts/diamond/facets/DiamondLoupeFacet.sol",
  "abi": [
    {
      "inputs": [
        {
          "internalType": "contract IForwarderRegistry",
          "name": "forwarderRegistry",
          "type": "address"
        }
      ],
      "stateMutability": "nonpayable",
      "type": "constructor"
    },
    {
      "inputs": [],
      "name": "IllegalInterfaceId",
      "type": "error"
    },
    {
      "inputs": [
        {
          "internalType": "address",
          "name": "account",
          "type": "address"
        }
      ],
      "name": "NotProxyAdmin",
      "type": "error"
    },
    {
      "inputs": [
        {
          "internalType": "bytes4",
          "name": "functionSelector",
          "type": "bytes4"
        }
      ],
      "name": "facetAddress",
      "outputs": [
        {
          "internalType": "address",
          "name": "facetAddress_",
          "type": "address"
        }
      ],
      "stateMutability": "view",
      "type": "function"
    },
    {
      "inputs": [],
      "name": "facetAddresses",
      "outputs": [
        {
          "internalType": "address[]",
          "name": "facetAddresses_",
          "type": "address[]"
        }
      ],
      "stateMutability": "view",
      "type": "function"
    },
    {
      "inputs": [
        {
          "internalType": "address",
          "name": "facet",
          "type": "address"
        }
      ],
      "name": "facetFunctionSelectors",
      "outputs": [
        {
          "internalType": "bytes4[]",
          "name": "facetFunctionSelectors_",
          "type": "bytes4[]"
        }
      ],
      "stateMutability": "view",
      "type": "function"
    },
    {
      "inputs": [],
      "name": "facets",
      "outputs": [
        {
          "components": [
            {
              "internalType": "address",
              "name": "facet",
              "type": "address"
            },
            {
              "internalType": "bytes4[]",
              "name": "selectors",
              "type": "bytes4[]"
            }
          ],
          "internalType": "struct Facet[]",
          "name": "facets_",
          "type": "tuple[]"
        }
      ],
      "stateMutability": "view",
      "type": "function"
    },
    {
      "inputs": [],
      "name": "initDiamondLoupeStorage",
      "outputs": [],
      "stateMutability": "nonpayable",
      "type": "function"
    }
  ],
  "bytecode": "0x60a060405234801561001057600080fd5b50604051610fa0380380610fa083398101604081905261002f91610040565b6001600160a01b0316608052610070565b60006020828403121561005257600080fd5b81516001600160a01b038116811461006957600080fd5b9392505050565b608051610f0e610092600039600081816101f101526102790152610f0e6000f3fe608060405234801561001057600080fd5b50600436106100675760003560e01c80637a0ed627116100505780637a0ed62714610094578063adfca15e146100a9578063cdffacc6146100c957600080fd5b80634fe5dd791461006c57806352ef6b2c14610076575b600080fd5b610074610101565b005b61007e610124565b60405161008b9190610c2d565b60405180910390f35b61009c61013b565b60405161008b9190610ce4565b6100bc6100b7366004610d8c565b61014d565b60405161008b9190610dc9565b6100dc6100d7366004610ddc565b610167565b60405173ffffffffffffffffffffffffffffffffffffffff909116815260200161008b565b61011a61010c6101ae565b6101146102f5565b90610323565b610122610396565b565b60606101366101316103cb565b6103f9565b905090565b60606101366101486103cb565b6105ae565b60606101618261015b6103cb565b906109d2565b92915050565b6000610161826101756103cb565b907fffffffff00000000000000000000000000000000000000000000000000000000166000908152602091909152604090205460601c90565b6000333214806101be5750601836105b156101c857503390565b7fffffffffffffffffffffffffffffffffffffffffffffffffffffffffffffffec36013560601c7f000000000000000000000000000000000000000000000000000000000000000073ffffffffffffffffffffffffffffffffffffffff163314806102e457506040517f8929a8ca00000000000000000000000000000000000000000000000000000000815273ffffffffffffffffffffffffffffffffffffffff82811660048301523360248301527f00000000000000000000000000000000000000000000000000000000000000001690638929a8ca90604401602060405180830381865afa1580156102c0573d6000803e3d6000fd5b505050506040513d601f19601f820116820180604052508101906102e49190610e1e565b156102ee57919050565b3391505090565b60008061016160017fb53127684a568b3173ae13b9f8a6016e243e63b6e8ee1178d6a717850b5d6104610e40565b815473ffffffffffffffffffffffffffffffffffffffff828116911614610392576040517f673a31a100000000000000000000000000000000000000000000000000000000815273ffffffffffffffffffffffffffffffffffffffff8216600482015260240160405180910390fd5b5050565b6101227f48e2b0930000000000000000000000000000000000000000000000000000000060016103c4610b23565b9190610b51565b60008061016160017f65d27473a5b05206737961f69a3b7a55316862d7a6ef82b3f5455fe92fab43e3610e40565b600181015460609061ffff168067ffffffffffffffff81111561041e5761041e610e7a565b604051908082528060200260200182016040528015610447578160200160208202803683370190505b50915060008060005b8361ffff168210156105a4576000818152600287016020526040812054905b8060081461059a578360010193508561ffff16841161059a57600581901b82901b7fffffffff000000000000000000000000000000000000000000000000000000008116600090815260208a9052604081205460601c90805b88811461052c578a81815181106104e1576104e1610ea9565b602002602001015173ffffffffffffffffffffffffffffffffffffffff168373ffffffffffffffffffffffffffffffffffffffff1603610524576001915061052c565b6001016104c8565b50801561053b57505050610592565b818a898151811061054e5761054e610ea9565b602002602001019073ffffffffffffffffffffffffffffffffffffffff16908173ffffffffffffffffffffffffffffffffffffffff16815250508760010197505050505b60010161046f565b5050600101610450565b5050825250919050565b600181015460609061ffff168067ffffffffffffffff8111156105d3576105d3610e7a565b60405190808252806020026020018201604052801561061957816020015b6040805180820190915260008152606060208201528152602001906001900390816105f15790505b50915060008161ffff1667ffffffffffffffff81111561063b5761063b610e7a565b604051908082528060200260200182016040528015610664578160200160208202803683370190505b50905060008060005b8461ffff1682101561096e576000818152600288016020526040812054905b80600814610964578360010193508661ffff16841161096457600581901b82901b7fffffffff000000000000000000000000000000000000000000000000000000008116600090815260208b9052604081205460601c90805b888114610806578273ffffffffffffffffffffffffffffffffffffffff168c828151811061071557610715610ea9565b60200260200101516000015173ffffffffffffffffffffffffffffffffffffffff16036107fe57838c828151811061074f5761074f610ea9565b6020026020010151602001518b838151811061076d5761076d610ea9565b60200260200101518151811061078557610785610ea9565b60200260200101907bffffffffffffffffffffffffffffffffffffffffffffffffffffffff191690817bffffffffffffffffffffffffffffffffffffffffffffffffffffffff1916815250508981815181106107e3576107e3610ea9565b60200260200101805160010190818152505060019150610806565b6001016106e5565b5080156108155750505061095c565b818b898151811061082857610828610ea9565b602090810291909101015173ffffffffffffffffffffffffffffffffffffffff909116905261ffff8a1667ffffffffffffffff81111561086a5761086a610e7a565b604051908082528060200260200182016040528015610893578160200160208202803683370190505b508b89815181106108a6576108a6610ea9565b602002602001015160200181905250828b89815181106108c8576108c8610ea9565b6020026020010151602001516000815181106108e6576108e6610ea9565b60200260200101907bffffffffffffffffffffffffffffffffffffffffffffffffffffffff191690817bffffffffffffffffffffffffffffffffffffffffffffffffffffffff191681525050600189898151811061094657610946610ea9565b6020026020010181815250508760010197505050505b60010161068c565b505060010161066d565b5060005b8281146109c657600084828151811061098d5761098d610ea9565b6020026020010151905060008783815181106109ab576109ab610ea9565b60209081029190910181015101519190915250600101610972565b50508352509092915050565b600182015460609061ffff168067ffffffffffffffff8111156109f7576109f7610e7a565b604051908082528060200260200182016040528015610a20578160200160208202803683370190505b50915060008060005b8361ffff16821015610b18576000818152600288016020526040812054905b80600814610b0e578360010193508561ffff168411610b0e57600581901b82901b7fffffffff000000000000000000000000000000000000000000000000000000008116600090815260208b9052604090205460601c73ffffffffffffffffffffffffffffffffffffffff8a1603610b055780888781518110610acd57610acd610ea9565b7fffffffff00000000000000000000000000000000000000000000000000000000909216602092830291909101909101526001909501945b50600101610a48565b5050600101610a29565b505082525092915050565b60008061016160017fca9d3e17f264b0f3984e2634e94adb37fa3e6a8103f06aeae6fa59e21c769f5e610e40565b7c01000000000000000000000000000000000000000000000000000000007fffffffff00000000000000000000000000000000000000000000000000000000831601610bc9576040517f72c683bb00000000000000000000000000000000000000000000000000000000815260040160405180910390fd5b7fffffffff00000000000000000000000000000000000000000000000000000000919091166000908152602092909252604090912080547fffffffffffffffffffffffffffffffffffffffffffffffffffffffffffffff0016911515919091179055565b6020808252825182820181905260009190848201906040850190845b81811015610c7b57835173ffffffffffffffffffffffffffffffffffffffff1683529284019291840191600101610c49565b50909695505050505050565b600081518084526020808501945080840160005b83811015610cd95781517fffffffff000000000000000000000000000000000000000000000000000000001687529582019590820190600101610c9b565b509495945050505050565b60006020808301818452808551808352604092508286019150828160051b87010184880160005b83811015610d7e578883037fffffffffffffffffffffffffffffffffffffffffffffffffffffffffffffffc00185528151805173ffffffffffffffffffffffffffffffffffffffff168452870151878401879052610d6b87850182610c87565b9588019593505090860190600101610d0b565b509098975050505050505050565b600060208284031215610d9e57600080fd5b813573ffffffffffffffffffffffffffffffffffffffff81168114610dc257600080fd5b9392505050565b602081526000610dc26020830184610c87565b600060208284031215610dee57600080fd5b81357fffffffff0000000000000000000000000000000000000000000000000000000081168114610dc257600080fd5b600060208284031215610e3057600080fd5b81518015158114610dc257600080fd5b81810381811115610161577f4e487b7100000000000000000000000000000000000000000000000000000000600052601160045260246000fd5b7f4e487b7100000000000000000000000000000000000000000000000000000000600052604160045260246000fd5b7f4e487b7100000000000000000000000000000000000000000000000000000000600052603260045260246000fdfea2646970667358221220301f6fa07fc6626c726f592eeead3da46543ba0bb210f6eee42879d8ddc7533a64736f6c63430008150033",
  "linkReferences": {},
  "deployedLinkReferences": {}
}