{
  "_format": "hh-sol-artifact-1",
  "contractName": "LinearPoolMock",
  "sourceName": "contracts/mocks/staking/linear/LinearPoolMock.sol",
  "abi": [
    {
      "inputs": [
        {
          "internalType": "contract LinearPoolReentrancyAttacker",
          "name": "reentrancyAttacker",
          "type": "address"
        },
        {
          "internalType": "contract IForwarderRegistry",
          "name": "forwarderRegistry",
          "type": "address"
        }
      ],
      "stateMutability": "nonpayable",
      "type": "constructor"
    },
    {
      "inputs": [],
      "name": "FailedCall",
      "type": "error"
    },
    {
      "inputs": [],
      "name": "IllegalInterfaceId",
      "type": "error"
    },
    {
      "inputs": [],
      "name": "InconsistentArrayLengths",
      "type": "error"
    },
    {
      "inputs": [
        {
          "internalType": "address",
          "name": "tokenContract",
          "type": "address"
        }
      ],
      "name": "IncorrectTokenContractType",
      "type": "error"
    },
    {
      "inputs": [
        {
          "internalType": "uint256",
          "name": "balance",
          "type": "uint256"
        },
        {
          "internalType": "uint256",
          "name": "needed",
          "type": "uint256"
        }
      ],
      "name": "InsufficientBalance",
      "type": "error"
    },
    {
      "inputs": [],
      "name": "InvalidDuration",
      "type": "error"
    },
    {
      "inputs": [],
      "name": "InvalidRewardAmount",
      "type": "error"
    },
    {
      "inputs": [],
      "name": "InvalidStakeAmount",
      "type": "error"
    },
    {
      "inputs": [],
      "name": "InvalidWithdrawAmount",
      "type": "error"
    },
    {
      "inputs": [
        {
          "internalType": "address",
          "name": "account",
          "type": "address"
        }
      ],
      "name": "NotContractOwner",
      "type": "error"
    },
    {
      "inputs": [
        {
          "internalType": "address",
          "name": "staker",
          "type": "address"
        },
        {
          "internalType": "uint256",
          "name": "stake",
          "type": "uint256"
        },
        {
          "internalType": "uint256",
          "name": "withdraw",
          "type": "uint256"
        }
      ],
      "name": "NotEnoughStake",
      "type": "error"
    },
    {
      "inputs": [
        {
          "internalType": "bytes32",
          "name": "role",
          "type": "bytes32"
        },
        {
          "internalType": "address",
          "name": "account",
          "type": "address"
        }
      ],
      "name": "NotRoleHolder",
      "type": "error"
    },
    {
      "inputs": [],
      "name": "ReentrancyGuardReentrantCall",
      "type": "error"
    },
    {
      "inputs": [
        {
          "internalType": "uint256",
          "name": "reward",
          "type": "uint256"
        },
        {
          "internalType": "uint256",
          "name": "duration",
          "type": "uint256"
        }
      ],
      "name": "RewardTooSmallForDuration",
      "type": "error"
    },
    {
      "inputs": [
        {
          "internalType": "address",
          "name": "token",
          "type": "address"
        }
      ],
      "name": "SafeERC20FailedOperation",
      "type": "error"
    },
    {
      "anonymous": false,
      "inputs": [
        {
          "indexed": true,
          "internalType": "address",
          "name": "staker",
          "type": "address"
        },
        {
          "indexed": false,
          "internalType": "bytes",
          "name": "claimData",
          "type": "bytes"
        },
        {
          "indexed": false,
          "internalType": "uint256",
          "name": "reward",
          "type": "uint256"
        }
      ],
      "name": "Claimed",
      "type": "event"
    },
    {
      "anonymous": false,
      "inputs": [
        {
          "indexed": false,
          "internalType": "address",
          "name": "rewarder",
          "type": "address"
        },
        {
          "indexed": false,
          "internalType": "uint256",
          "name": "reward",
          "type": "uint256"
        },
        {
          "indexed": false,
          "internalType": "uint256",
          "name": "dust",
          "type": "uint256"
        }
      ],
      "name": "ComputeAddRewardCalled",
      "type": "event"
    },
    {
      "anonymous": false,
      "inputs": [
        {
          "indexed": false,
          "internalType": "address",
          "name": "staker",
          "type": "address"
        },
        {
          "indexed": false,
          "internalType": "uint256",
          "name": "reward",
          "type": "uint256"
        }
      ],
      "name": "ComputeClaimCalled",
      "type": "event"
    },
    {
      "anonymous": false,
      "inputs": [
        {
          "indexed": false,
          "internalType": "address",
          "name": "staker",
          "type": "address"
        },
        {
          "indexed": false,
          "internalType": "bytes",
          "name": "stakeData",
          "type": "bytes"
        }
      ],
      "name": "ComputeStakeCalled",
      "type": "event"
    },
    {
      "anonymous": false,
      "inputs": [
        {
          "indexed": false,
          "internalType": "address",
          "name": "staker",
          "type": "address"
        },
        {
          "indexed": false,
          "internalType": "bytes",
          "name": "withdrawData",
          "type": "bytes"
        }
      ],
      "name": "ComputeWithdrawCalled",
      "type": "event"
    },
    {
      "anonymous": false,
      "inputs": [
        {
          "indexed": true,
          "internalType": "address",
          "name": "previousOwner",
          "type": "address"
        },
        {
          "indexed": true,
          "internalType": "address",
          "name": "newOwner",
          "type": "address"
        }
      ],
      "name": "OwnershipTransferred",
      "type": "event"
    },
    {
      "anonymous": false,
      "inputs": [
        {
          "indexed": true,
          "internalType": "address",
          "name": "rewarder",
          "type": "address"
        },
        {
          "indexed": false,
          "internalType": "uint256",
          "name": "reward",
          "type": "uint256"
        },
        {
          "indexed": false,
          "internalType": "uint256",
          "name": "duration",
          "type": "uint256"
        },
        {
          "indexed": false,
          "internalType": "uint256",
          "name": "dust",
          "type": "uint256"
        }
      ],
      "name": "RewardAdded",
      "type": "event"
    },
    {
      "anonymous": false,
      "inputs": [
        {
          "indexed": false,
          "internalType": "bytes32",
          "name": "role",
          "type": "bytes32"
        },
        {
          "indexed": false,
          "internalType": "address",
          "name": "account",
          "type": "address"
        },
        {
          "indexed": false,
          "internalType": "address",
          "name": "operator",
          "type": "address"
        }
      ],
      "name": "RoleGranted",
      "type": "event"
    },
    {
      "anonymous": false,
      "inputs": [
        {
          "indexed": false,
          "internalType": "bytes32",
          "name": "role",
          "type": "bytes32"
        },
        {
          "indexed": false,
          "internalType": "address",
          "name": "account",
          "type": "address"
        },
        {
          "indexed": false,
          "internalType": "address",
          "name": "operator",
          "type": "address"
        }
      ],
      "name": "RoleRevoked",
      "type": "event"
    },
    {
      "anonymous": false,
      "inputs": [
        {
          "indexed": true,
          "internalType": "address",
          "name": "staker",
          "type": "address"
        },
        {
          "indexed": false,
          "internalType": "bytes",
          "name": "stakeData",
          "type": "bytes"
        },
        {
          "indexed": false,
          "internalType": "uint256",
          "name": "stakePoints",
          "type": "uint256"
        }
      ],
      "name": "Staked",
      "type": "event"
    },
    {
      "anonymous": false,
      "inputs": [
        {
          "indexed": true,
          "internalType": "address",
          "name": "staker",
          "type": "address"
        },
        {
          "indexed": false,
          "internalType": "bytes",
          "name": "withdrawData",
          "type": "bytes"
        },
        {
          "indexed": false,
          "internalType": "uint256",
          "name": "stakePoints",
          "type": "uint256"
        }
      ],
      "name": "Withdrawn",
      "type": "event"
    },
    {
      "inputs": [],
      "name": "REENTRANCY_ATTACKER",
      "outputs": [
        {
          "internalType": "contract LinearPoolReentrancyAttacker",
          "name": "",
          "type": "address"
        }
      ],
      "stateMutability": "view",
      "type": "function"
    },
    {
      "inputs": [],
      "name": "REWARDER_ROLE",
      "outputs": [
        {
          "internalType": "bytes32",
          "name": "",
          "type": "bytes32"
        }
      ],
      "stateMutability": "view",
      "type": "function"
    },
    {
      "inputs": [],
      "name": "SCALING_FACTOR",
      "outputs": [
        {
          "internalType": "uint256",
          "name": "",
          "type": "uint256"
        }
      ],
      "stateMutability": "view",
      "type": "function"
    },
    {
      "inputs": [],
      "name": "__msgData",
      "outputs": [
        {
          "internalType": "bytes",
          "name": "",
          "type": "bytes"
        }
      ],
      "stateMutability": "view",
      "type": "function"
    },
    {
      "inputs": [
        {
          "internalType": "uint256",
          "name": "reward",
          "type": "uint256"
        },
        {
          "internalType": "uint256",
          "name": "duration",
          "type": "uint256"
        }
      ],
      "name": "addReward",
      "outputs": [],
      "stateMutability": "payable",
      "type": "function"
    },
    {
      "inputs": [],
      "name": "claim",
      "outputs": [],
      "stateMutability": "nonpayable",
      "type": "function"
    },
    {
      "inputs": [],
      "name": "distributionEnd",
      "outputs": [
        {
          "internalType": "uint256",
          "name": "",
          "type": "uint256"
        }
      ],
      "stateMutability": "view",
      "type": "function"
    },
    {
      "inputs": [
        {
          "internalType": "address",
          "name": "account",
          "type": "address"
        }
      ],
      "name": "earned",
      "outputs": [
        {
          "internalType": "uint256",
          "name": "",
          "type": "uint256"
        }
      ],
      "stateMutability": "view",
      "type": "function"
    },
    {
      "inputs": [],
      "name": "forwarderRegistry",
      "outputs": [
        {
          "internalType": "contract IForwarderRegistry",
          "name": "",
          "type": "address"
        }
      ],
      "stateMutability": "view",
      "type": "function"
    },
    {
      "inputs": [
        {
          "internalType": "bytes32",
          "name": "role",
          "type": "bytes32"
        },
        {
          "internalType": "address",
          "name": "account",
          "type": "address"
        }
      ],
      "name": "grantRole",
      "outputs": [],
      "stateMutability": "nonpayable",
      "type": "function"
    },
    {
      "inputs": [
        {
          "internalType": "bytes32",
          "name": "role",
          "type": "bytes32"
        },
        {
          "internalType": "address",
          "name": "account",
          "type": "address"
        }
      ],
      "name": "hasRole",
      "outputs": [
        {
          "internalType": "bool",
          "name": "hasRole_",
          "type": "bool"
        }
      ],
      "stateMutability": "view",
      "type": "function"
    },
    {
      "inputs": [
        {
          "internalType": "address",
          "name": "forwarder",
          "type": "address"
        }
      ],
      "name": "isTrustedForwarder",
      "outputs": [
        {
          "internalType": "bool",
          "name": "",
          "type": "bool"
        }
      ],
      "stateMutability": "view",
      "type": "function"
    },
    {
      "inputs": [],
      "name": "lastTimeRewardApplicable",
      "outputs": [
        {
          "internalType": "uint256",
          "name": "",
          "type": "uint256"
        }
      ],
      "stateMutability": "view",
      "type": "function"
    },
    {
      "inputs": [],
      "name": "lastUpdated",
      "outputs": [
        {
          "internalType": "uint256",
          "name": "",
          "type": "uint256"
        }
      ],
      "stateMutability": "view",
      "type": "function"
    },
    {
      "inputs": [],
      "name": "owner",
      "outputs": [
        {
          "internalType": "address",
          "name": "",
          "type": "address"
        }
      ],
      "stateMutability": "view",
      "type": "function"
    },
    {
      "inputs": [
        {
          "internalType": "address[]",
          "name": "accounts",
          "type": "address[]"
        },
        {
          "internalType": "contract IERC20[]",
          "name": "tokens",
          "type": "address[]"
        },
        {
          "internalType": "uint256[]",
          "name": "amounts",
          "type": "uint256[]"
        }
      ],
      "name": "recoverERC20s",
      "outputs": [],
      "stateMutability": "nonpayable",
      "type": "function"
    },
    {
      "inputs": [
        {
          "internalType": "address[]",
          "name": "accounts",
          "type": "address[]"
        },
        {
          "internalType": "contract IERC721[]",
          "name": "contracts",
          "type": "address[]"
        },
        {
          "internalType": "uint256[]",
          "name": "tokenIds",
          "type": "uint256[]"
        }
      ],
      "name": "recoverERC721s",
      "outputs": [],
      "stateMutability": "nonpayable",
      "type": "function"
    },
    {
      "inputs": [
        {
          "internalType": "address payable[]",
          "name": "accounts",
          "type": "address[]"
        },
        {
          "internalType": "uint256[]",
          "name": "amounts",
          "type": "uint256[]"
        }
      ],
      "name": "recoverETH",
      "outputs": [],
      "stateMutability": "nonpayable",
      "type": "function"
    },
    {
      "inputs": [
        {
          "internalType": "bytes32",
          "name": "role",
          "type": "bytes32"
        }
      ],
      "name": "renounceRole",
      "outputs": [],
      "stateMutability": "nonpayable",
      "type": "function"
    },
    {
      "inputs": [
        {
          "internalType": "bytes32",
          "name": "role",
          "type": "bytes32"
        },
        {
          "internalType": "address",
          "name": "account",
          "type": "address"
        }
      ],
      "name": "revokeRole",
      "outputs": [],
      "stateMutability": "nonpayable",
      "type": "function"
    },
    {
      "inputs": [],
      "name": "rewardPerStakePoint",
      "outputs": [
        {
          "internalType": "uint256",
          "name": "",
          "type": "uint256"
        }
      ],
      "stateMutability": "view",
      "type": "function"
    },
    {
      "inputs": [
        {
          "internalType": "address",
          "name": "staker",
          "type": "address"
        }
      ],
      "name": "rewardPerStakePointPaid",
      "outputs": [
        {
          "internalType": "uint256",
          "name": "paid",
          "type": "uint256"
        }
      ],
      "stateMutability": "view",
      "type": "function"
    },
    {
      "inputs": [],
      "name": "rewardPerStakePointStored",
      "outputs": [
        {
          "internalType": "uint256",
          "name": "",
          "type": "uint256"
        }
      ],
      "stateMutability": "view",
      "type": "function"
    },
    {
      "inputs": [],
      "name": "rewardRate",
      "outputs": [
        {
          "internalType": "uint256",
          "name": "",
          "type": "uint256"
        }
      ],
      "stateMutability": "view",
      "type": "function"
    },
    {
      "inputs": [
        {
          "internalType": "address",
          "name": "staker",
          "type": "address"
        }
      ],
      "name": "rewards",
      "outputs": [
        {
          "internalType": "uint256",
          "name": "reward",
          "type": "uint256"
        }
      ],
      "stateMutability": "view",
      "type": "function"
    },
    {
      "inputs": [
        {
          "internalType": "bytes",
          "name": "stakeData",
          "type": "bytes"
        }
      ],
      "name": "stake",
      "outputs": [],
      "stateMutability": "payable",
      "type": "function"
    },
    {
      "inputs": [
        {
          "internalType": "address",
          "name": "staker",
          "type": "address"
        }
      ],
      "name": "staked",
      "outputs": [
        {
          "internalType": "uint256",
          "name": "stakePoints",
          "type": "uint256"
        }
      ],
      "stateMutability": "view",
      "type": "function"
    },
    {
      "inputs": [
        {
          "internalType": "bytes4",
          "name": "interfaceId",
          "type": "bytes4"
        }
      ],
      "name": "supportsInterface",
      "outputs": [
        {
          "internalType": "bool",
          "name": "",
          "type": "bool"
        }
      ],
      "stateMutability": "view",
      "type": "function"
    },
    {
      "inputs": [],
      "name": "totalStaked",
      "outputs": [
        {
          "internalType": "uint256",
          "name": "",
          "type": "uint256"
        }
      ],
      "stateMutability": "view",
      "type": "function"
    },
    {
      "inputs": [
        {
          "internalType": "address",
          "name": "newOwner",
          "type": "address"
        }
      ],
      "name": "transferOwnership",
      "outputs": [],
      "stateMutability": "nonpayable",
      "type": "function"
    },
    {
      "inputs": [
        {
          "internalType": "bytes",
          "name": "withdrawData",
          "type": "bytes"
        }
      ],
      "name": "withdraw",
      "outputs": [],
      "stateMutability": "nonpayable",
      "type": "function"
    }
  ],
  "bytecode": "0x60c060405234801561001057600080fd5b506040516129cb3803806129cb83398101604081905261002f916101b5565b808080336100458161003f610069565b9061009d565b5060016000556001600160a01b039081166080529390931660a05250610210915050565b60008061009760017fc9ed16f33ab3a66c84bfd83099ccb2a8845871e2e1c1928f63797152f0fd54cd6101ef565b92915050565b6001600160a01b038116156100f35781546001600160a01b0319166001600160a01b03821690811783556040516000907f8be0079c531659141344cd1fd0a4f28419497f9722a3daafe3b4186f6b6457e0908290a35b61010f6307f5828d60e41b6001610108610113565b9190610141565b5050565b60008061009760017fca9d3e17f264b0f3984e2634e94adb37fa3e6a8103f06aeae6fa59e21c769f5e6101ef565b600160e01b6001600160e01b031983160161016f576040516372c683bb60e01b815260040160405180910390fd5b6001600160e01b03199190911660009081526020929092526040909120805460ff1916911515919091179055565b6001600160a01b03811681146101b257600080fd5b50565b600080604083850312156101c857600080fd5b82516101d38161019d565b60208401519092506101e48161019d565b809150509250929050565b8181038181111561009757634e487b7160e01b600052601160045260246000fd5b60805160a0516127656102666000396000818161037401528181611ca80152611d9601526000818161029d015281816103b301528181611b4801528181611bd601528181611e650152611ea301526127656000f3fe6080604052600436106101d75760003560e01c806380faa57d11610102578063c3666c3611610095578063ef4cadc511610064578063ef4cadc5146105b3578063efa90b54146105cf578063f2fde38b146105e5578063f7ba94bd1461060557600080fd5b8063c3666c3614610530578063c5c8f77014610550578063d0b06f5d1461057d578063d547741f1461059357600080fd5b80638da5cb5b116100d15780638da5cb5b146104b857806391d14854146104cd57806398807d84146104ed5780639d696e361461051a57600080fd5b806380faa57d14610439578063817b1cd21461044e5780638580cf76146104645780638bb9c5bf1461049857600080fd5b80632f2ff15d1161017a578063572b6c0511610149578063572b6c051461039657806373c8a958146103f057806375c93bb9146104105780637b0a47ee1461042357600080fd5b80632f2ff15d1461030a57806331e66e1e1461032a5780634e71d92d1461034d57806352880f351461036257600080fd5b80630968f264116101b65780630968f2641461026c5780632b4c9f161461028e5780632c9d0b80146102e25780632d1e0c02146102f757600080fd5b80628cc262146101dc57806301ffc9a71461020f5780630700037d1461023f575b600080fd5b3480156101e857600080fd5b506101fc6101f736600461221a565b610625565b6040519081526020015b60405180910390f35b34801561021b57600080fd5b5061022f61022a366004612237565b6106bc565b6040519015158152602001610206565b34801561024b57600080fd5b506101fc61025a36600461221a565b60076020526000908152604090205481565b34801561027857600080fd5b5061028c610287366004612279565b6106d0565b005b34801561029a57600080fd5b507f00000000000000000000000000000000000000000000000000000000000000005b60405173ffffffffffffffffffffffffffffffffffffffff9091168152602001610206565b3480156102ee57600080fd5b506101fc61072d565b61028c610305366004612279565b610795565b34801561031657600080fd5b5061028c6103253660046122ed565b6107e4565b34801561033657600080fd5b5061033f61081d565b60405161020692919061231d565b34801561035957600080fd5b5061028c610830565b34801561036e57600080fd5b506102bd7f000000000000000000000000000000000000000000000000000000000000000081565b3480156103a257600080fd5b5061022f6103b136600461221a565b7f000000000000000000000000000000000000000000000000000000000000000073ffffffffffffffffffffffffffffffffffffffff90811691161490565b3480156103fc57600080fd5b5061028c61040b3660046123b6565b6108e1565b61028c61041e36600461245c565b61090a565b34801561042f57600080fd5b506101fc60035481565b34801561044557600080fd5b506101fc610bef565b34801561045a57600080fd5b506101fc60015481565b34801561047057600080fd5b506101fc7f726577617264657200000000000000000000000000000000000000000000000081565b3480156104a457600080fd5b5061028c6104b336600461247e565b610c09565b3480156104c457600080fd5b506102bd610c27565b3480156104d957600080fd5b5061022f6104e83660046122ed565b610c53565b3480156104f957600080fd5b506101fc61050836600461221a565b60066020526000908152604090205481565b34801561052657600080fd5b506101fc60045481565b34801561053c57600080fd5b5061028c61054b3660046123b6565b610c9e565b34801561055c57600080fd5b506101fc61056b36600461221a565b60086020526000908152604090205481565b34801561058957600080fd5b506101fc60025481565b34801561059f57600080fd5b5061028c6105ae3660046122ed565b610cb7565b3480156105bf57600080fd5b506101fc670de0b6b3a764000081565b3480156105db57600080fd5b506101fc60055481565b3480156105f157600080fd5b5061028c61060036600461221a565b610ce5565b34801561061157600080fd5b5061028c610620366004612497565b610d00565b73ffffffffffffffffffffffffffffffffffffffff81166000908152600760209081526040808320546008909252822054670de0b6b3a76400009061066861072d565b6106729190612537565b73ffffffffffffffffffffffffffffffffffffffff85166000908152600660205260409020546106a2919061254a565b6106ac9190612590565b6106b691906125a4565b92915050565b60006106b6826106ca610d1d565b90610d4b565b6106d8610e25565b61071f6106e3610e68565b83838080601f016020809104026020016040519081016040528093929190818152602001838380828437600092019190915250610e7292505050565b6107296001600055565b5050565b60015460009080820361074257505060045490565b80670de0b6b3a764000060035460025461075a610bef565b6107649190612537565b61076e919061254a565b610778919061254a565b6107829190612590565b60045461078f91906125a4565b91505090565b61079d610e25565b61071f6107a8610e68565b83838080601f016020809104026020016040519081016040528093929190818152602001838380828437600092019190915250610fc292505050565b60006107ee610e68565b9050610802816107fc6110ae565b906110dc565b610818838383610810611147565b929190611175565b505050565b36600061082861124b565b915091509091565b600061083a610e68565b905061084581611256565b600061085082610625565b905080156107295773ffffffffffffffffffffffffffffffffffffffff8216600090815260076020526040812081905561088a83836112e4565b90508273ffffffffffffffffffffffffffffffffffffffff167f4196decb55b5644a278b6ded1c42a27acb5182aa099b1fd48974bcc0cf263fd582846040516108d492919061261b565b60405180910390a2505050565b6108f46108ec610e68565b6107fc6110ae565b61090286868686868661137b565b505050505050565b6000610914610e68565b905061094a7f726577617264657200000000000000000000000000000000000000000000000082610943611147565b9190611466565b82600003610984576040517f3853986500000000000000000000000000000000000000000000000000000000815260040160405180910390fd5b816000036109be576040517f7616640100000000000000000000000000000000000000000000000000000000815260040160405180910390fd5b6109c86000611256565b600554600090816109d985426125a4565b9050814210610a565760006109ee8688612590565b9050868682610a37576040517f99e66a49000000000000000000000000000000000000000000000000000000008152600481019290925260248201526044015b60405180910390fd5b50506003819055610a48868861263d565b60058390559350610b7f9050565b818111610ae557610a674283612537565b94506000610a758688612590565b9050868682610ab9576040517f99e66a4900000000000000000000000000000000000000000000000000000000815260048101929092526024820152604401610a2e565b50508060036000828254610acd91906125a4565b90915550610add9050868861263d565b935050610b7f565b610aef8587612590565b86908690610b32576040517f99e66a4900000000000000000000000000000000000000000000000000000000815260048101929092526024820152604401610a2e565b5060009050610b414284612537565b600354610b4e919061254a565b90506000610b5c88836125a4565b9050610b688782612590565b600355610b75878261263d565b6005849055945050505b42600255610b8e8487856114ec565b604080518781526020810187905290810184905273ffffffffffffffffffffffffffffffffffffffff8516907f0727302becd070529b3293f4ec8f553d9f6ae1773f638598db1205fbf89080839060600160405180910390a2505050505050565b600554600090428111610c02578061078f565b4291505090565b610c24610c14610e68565b82610c1d611147565b9190611549565b50565b6000610c4e610c346110ae565b5473ffffffffffffffffffffffffffffffffffffffff1690565b905090565b6000610c978383610c62611147565b60009283526020908152604080842073ffffffffffffffffffffffffffffffffffffffff909316845291905290205460ff1690565b9392505050565b610ca96108ec610e68565b6109028686868686866115e5565b6000610cc1610e68565b9050610ccf816107fc6110ae565b610818838383610cdd611147565b92919061187b565b610c24610cf0610e68565b82610cf96110ae565b9190611945565b610d0b6108ec610e68565b610d1784848484611a59565b50505050565b6000806106b660017fca9d3e17f264b0f3984e2634e94adb37fa3e6a8103f06aeae6fa59e21c769f5e612537565b60007c01000000000000000000000000000000000000000000000000000000007fffffffff00000000000000000000000000000000000000000000000000000000831601610d9b575060006106b6565b7ffe003659000000000000000000000000000000000000000000000000000000007fffffffff00000000000000000000000000000000000000000000000000000000831601610dec575060016106b6565b507fffffffff00000000000000000000000000000000000000000000000000000000166000908152602091909152604090205460ff1690565b600260005403610e61576040517f3ee5aeb500000000000000000000000000000000000000000000000000000000815260040160405180910390fd5b6002600055565b6000610c4e611b05565b610e7b82611256565b6000610e878383611c52565b905080600003610ec3576040517fdb73cdf000000000000000000000000000000000000000000000000000000000815260040160405180910390fd5b73ffffffffffffffffffffffffffffffffffffffff831660009081526006602052604090205483818380821015610f4c576040517f2b6a775800000000000000000000000000000000000000000000000000000000815273ffffffffffffffffffffffffffffffffffffffff909316600484015260248301919091526044820152606401610a2e565b50505073ffffffffffffffffffffffffffffffffffffffff8416600081815260066020526040908190208484039055600180548590039055517faae638dec0d864ccb08558c28981bcfaee41330f57c4911cbe2d8432d0fb729e90610fb4908690869061261b565b60405180910390a250505050565b610fcb82611256565b6000610fd78383611d40565b905080600003611013576040517f040ef8ec00000000000000000000000000000000000000000000000000000000815260040160405180910390fd5b806001600082825461102591906125a4565b909155505073ffffffffffffffffffffffffffffffffffffffff83166000908152600660205260408120805483929061105f9084906125a4565b925050819055508273ffffffffffffffffffffffffffffffffffffffff167ff4679d394f1f97f1a3df1d73e193866ec5a813168ad5fa6958f9be21b10a594e83836040516108d492919061261b565b6000806106b660017fc9ed16f33ab3a66c84bfd83099ccb2a8845871e2e1c1928f63797152f0fd54cd612537565b815473ffffffffffffffffffffffffffffffffffffffff828116911614610729576040517f2ef4875e00000000000000000000000000000000000000000000000000000000815273ffffffffffffffffffffffffffffffffffffffff82166004820152602401610a2e565b6000806106b660017fc8827d3282af6f37b64c3e9e6f3ac9df286ab0bb0fccd6f8661bf19adb368b23612537565b60008381526020858152604080832073ffffffffffffffffffffffffffffffffffffffff8616845290915290205460ff16610d175760008381526020858152604080832073ffffffffffffffffffffffffffffffffffffffff8681168086529184529382902080547fffffffffffffffffffffffffffffffffffffffffffffffffffffffffffffff00166001179055815187815292830152918316918101919091527f2f8788117e7eff1d82e926ec794901d17c78024a50270940304540a733656f0d906060015b60405180910390a150505050565b366000610828611e2e565b61125e61072d565b60045560055442101580611273575060015415155b1561128457611280610bef565b6002555b73ffffffffffffffffffffffffffffffffffffffff811615610c24576112a981610625565b73ffffffffffffffffffffffffffffffffffffffff821660009081526007602090815260408083209390935560045460089091529190205550565b6060816040516020016112f991815260200190565b604080517fffffffffffffffffffffffffffffffffffffffffffffffffffffffffffffffe081840301815282825273ffffffffffffffffffffffffffffffffffffffff861683526020830185905292507f1267fbcfc45a7058f0942d2eea638e60e12ee4e423dbae167aa7b798ff77c38091015b60405180910390a192915050565b84838114158061138b5750808214155b156113c2576040517f6582533600000000000000000000000000000000000000000000000000000000815260040160405180910390fd5b60005b8181101561145c576114548888838181106113e2576113e2612651565b90506020020160208101906113f7919061221a565b85858481811061140957611409612651565b9050602002013588888581811061142257611422612651565b9050602002016020810190611437919061221a565b73ffffffffffffffffffffffffffffffffffffffff169190611f9e565b6001016113c5565b5050505050505050565b60008281526020848152604080832073ffffffffffffffffffffffffffffffffffffffff8516845290915290205460ff16610818576040517f7aa728820000000000000000000000000000000000000000000000000000000081526004810183905273ffffffffffffffffffffffffffffffffffffffff82166024820152604401610a2e565b6040805173ffffffffffffffffffffffffffffffffffffffff85168152602081018490529081018290527fa91dc00da5c824c57090248188942f1aaa004ce87267ab23e484ff236d06c4f1906060015b60405180910390a1505050565b611554838284611466565b60008181526020848152604080832073ffffffffffffffffffffffffffffffffffffffff86168085529083529281902080547fffffffffffffffffffffffffffffffffffffffffffffffffffffffffffffff0016905580518481529182018390528101919091527ff6391f5c32d9c69d2a47ea670b442974b53935d1edc7fd64eb21e047a839171b9060600161153c565b8483811415806115f55750808214155b1561162c576040517f6582533600000000000000000000000000000000000000000000000000000000815260040160405180910390fd5b60005b8181101561145c57600086868381811061164b5761164b612651565b9050602002016020810190611660919061221a565b6040517f01ffc9a70000000000000000000000000000000000000000000000000000000081527f80ac58cd00000000000000000000000000000000000000000000000000000000600482015290915073ffffffffffffffffffffffffffffffffffffffff8216906301ffc9a790602401602060405180830381865afa1580156116ed573d6000803e3d6000fd5b505050506040513d601f19601f820116820180604052508101906117119190612680565b61175f576040517f986b9f1f00000000000000000000000000000000000000000000000000000000815273ffffffffffffffffffffffffffffffffffffffff82166004820152602401610a2e565b86868381811061177157611771612651565b9050602002016020810190611786919061221a565b73ffffffffffffffffffffffffffffffffffffffff166342842e0e308b8b868181106117b4576117b4612651565b90506020020160208101906117c9919061221a565b8888878181106117db576117db612651565b6040517fffffffff0000000000000000000000000000000000000000000000000000000060e088901b16815273ffffffffffffffffffffffffffffffffffffffff958616600482015294909316602485015250602090910201356044820152606401600060405180830381600087803b15801561185757600080fd5b505af115801561186b573d6000803e3d6000fd5b505050505080600101905061162f565b60008381526020858152604080832073ffffffffffffffffffffffffffffffffffffffff8616845290915290205460ff1615610d175760008381526020858152604080832073ffffffffffffffffffffffffffffffffffffffff8681168086529184529382902080547fffffffffffffffffffffffffffffffffffffffffffffffffffffffffffffff00169055815187815292830152918316918101919091527ff6391f5c32d9c69d2a47ea670b442974b53935d1edc7fd64eb21e047a839171b9060600161123d565b825473ffffffffffffffffffffffffffffffffffffffff90811690831681146119b2576040517f2ef4875e00000000000000000000000000000000000000000000000000000000815273ffffffffffffffffffffffffffffffffffffffff84166004820152602401610a2e565b8173ffffffffffffffffffffffffffffffffffffffff168173ffffffffffffffffffffffffffffffffffffffff1614610d175783547fffffffffffffffffffffffff00000000000000000000000000000000000000001673ffffffffffffffffffffffffffffffffffffffff8381169182178655604051908316907f8be0079c531659141344cd1fd0a4f28419497f9722a3daafe3b4186f6b6457e090600090a350505050565b82818114611a93576040517f6582533600000000000000000000000000000000000000000000000000000000815260040160405180910390fd5b60005b8181101561090257611afd848483818110611ab357611ab3612651565b90506020020135878784818110611acc57611acc612651565b9050602002016020810190611ae1919061221a565b73ffffffffffffffffffffffffffffffffffffffff169061202b565b600101611a96565b600033321480611b155750601836105b15611b1f57503390565b7fffffffffffffffffffffffffffffffffffffffffffffffffffffffffffffffec36013560601c7f000000000000000000000000000000000000000000000000000000000000000073ffffffffffffffffffffffffffffffffffffffff16331480611c4157506040517f019a202800000000000000000000000000000000000000000000000000000000815273ffffffffffffffffffffffffffffffffffffffff82811660048301523360248301523060448301527f0000000000000000000000000000000000000000000000000000000000000000169063019a202890606401602060405180830381865afa158015611c1d573d6000803e3d6000fd5b505050506040513d601f19601f82011682018060405250810190611c419190612680565b15611c4b57919050565b3391505090565b600081806020019051810190611c6891906126a2565b6040517f0968f26400000000000000000000000000000000000000000000000000000000815290915073ffffffffffffffffffffffffffffffffffffffff7f00000000000000000000000000000000000000000000000000000000000000001690630968f26490611cdd9085906004016126bb565b600060405180830381600087803b158015611cf757600080fd5b505af1158015611d0b573d6000803e3d6000fd5b505050507f36a2ea31c4d4156a140674bc8c3400a4e5c09f48aeb6fcee2b3d04962eeebc20838360405161136d9291906126ce565b600081806020019051810190611d5691906126a2565b6040517f2d1e0c0200000000000000000000000000000000000000000000000000000000815290915073ffffffffffffffffffffffffffffffffffffffff7f00000000000000000000000000000000000000000000000000000000000000001690632d1e0c0290611dcb9085906004016126bb565b600060405180830381600087803b158015611de557600080fd5b505af1158015611df9573d6000803e3d6000fd5b505050507f8939976db42d3930b780581daf935c63f4b2b954a86929d714db0ac546958b7f838360405161136d9291906126ce565b36600033321480611e3f5750601836105b15611e4d5750600091369150565b3373ffffffffffffffffffffffffffffffffffffffff7f0000000000000000000000000000000000000000000000000000000000000000161480611f88575073ffffffffffffffffffffffffffffffffffffffff7f00000000000000000000000000000000000000000000000000000000000000001663019a2028367fffffffffffffffffffffffffffffffffffffffffffffffffffffffffffffffec013560601c6040517fffffffff0000000000000000000000000000000000000000000000000000000060e084901b16815273ffffffffffffffffffffffffffffffffffffffff9091166004820152336024820152306044820152606401602060405180830381865afa158015611f64573d6000803e3d6000fd5b505050506040513d601f19601f82011682018060405250810190611f889190612680565b15611f95576108286120e1565b50600091369150565b6040805173ffffffffffffffffffffffffffffffffffffffff8416602482015260448082018490528251808303909101815260649091019091526020810180517bffffffffffffffffffffffffffffffffffffffffffffffffffffffff167fa9059cbb00000000000000000000000000000000000000000000000000000000179052610818908490612112565b8047101561206e576040517fcf47918100000000000000000000000000000000000000000000000000000000815247600482015260248101829052604401610a2e565b6000808373ffffffffffffffffffffffffffffffffffffffff168360405160006040518083038185875af1925050503d80600081146120c9576040519150601f19603f3d011682016040523d82523d6000602084013e6120ce565b606091505b509150915081610d1757610d17816121b6565b3660006108287fffffffffffffffffffffffffffffffffffffffffffffffffffffffffffffffec8301828481612705565b600080602060008451602086016000885af180612135576040513d6000823e3d81fd5b50506000513d9150811561214d578060011415612167565b73ffffffffffffffffffffffffffffffffffffffff84163b155b15610d17576040517f5274afe700000000000000000000000000000000000000000000000000000000815273ffffffffffffffffffffffffffffffffffffffff85166004820152602401610a2e565b8051156121c65780518082602001fd5b6040517fd6bda27500000000000000000000000000000000000000000000000000000000815260040160405180910390fd5b73ffffffffffffffffffffffffffffffffffffffff81168114610c2457600080fd5b60006020828403121561222c57600080fd5b8135610c97816121f8565b60006020828403121561224957600080fd5b81357fffffffff0000000000000000000000000000000000000000000000000000000081168114610c9757600080fd5b6000806020838503121561228c57600080fd5b823567ffffffffffffffff8111156122a357600080fd5b8301601f810185136122b457600080fd5b803567ffffffffffffffff8111156122cb57600080fd5b8560208284010111156122dd57600080fd5b6020919091019590945092505050565b6000806040838503121561230057600080fd5b823591506020830135612312816121f8565b809150509250929050565b60208152816020820152818360408301376000818301604090810191909152601f9092017fffffffffffffffffffffffffffffffffffffffffffffffffffffffffffffffe0160101919050565b60008083601f84011261237c57600080fd5b50813567ffffffffffffffff81111561239457600080fd5b6020830191508360208260051b85010111156123af57600080fd5b9250929050565b600080600080600080606087890312156123cf57600080fd5b863567ffffffffffffffff8111156123e657600080fd5b6123f289828a0161236a565b909750955050602087013567ffffffffffffffff81111561241257600080fd5b61241e89828a0161236a565b909550935050604087013567ffffffffffffffff81111561243e57600080fd5b61244a89828a0161236a565b979a9699509497509295939492505050565b6000806040838503121561246f57600080fd5b50508035926020909101359150565b60006020828403121561249057600080fd5b5035919050565b600080600080604085870312156124ad57600080fd5b843567ffffffffffffffff8111156124c457600080fd5b6124d08782880161236a565b909550935050602085013567ffffffffffffffff8111156124f057600080fd5b6124fc8782880161236a565b95989497509550505050565b7f4e487b7100000000000000000000000000000000000000000000000000000000600052601160045260246000fd5b818103818111156106b6576106b6612508565b80820281158282048414176106b6576106b6612508565b7f4e487b7100000000000000000000000000000000000000000000000000000000600052601260045260246000fd5b60008261259f5761259f612561565b500490565b808201808211156106b6576106b6612508565b6000815180845260005b818110156125dd576020818501810151868301820152016125c1565b5060006020828601015260207fffffffffffffffffffffffffffffffffffffffffffffffffffffffffffffffe0601f83011685010191505092915050565b60408152600061262e60408301856125b7565b90508260208301529392505050565b60008261264c5761264c612561565b500690565b7f4e487b7100000000000000000000000000000000000000000000000000000000600052603260045260246000fd5b60006020828403121561269257600080fd5b81518015158114610c9757600080fd5b6000602082840312156126b457600080fd5b5051919050565b602081526000610c9760208301846125b7565b73ffffffffffffffffffffffffffffffffffffffff831681526040602082015260006126fd60408301846125b7565b949350505050565b6000808585111561271557600080fd5b8386111561272257600080fd5b505082019391909203915056fea264697066735822122003a9773c4ea6830a8a0bfc27f45296e768f932757524b17ebf02cc37c22053ac64736f6c634300081c0033",
  "linkReferences": {},
  "deployedLinkReferences": {}
}