{
  "_format": "hh-sol-artifact-1",
  "contractName": "ERC1155BurnableFacet",
  "sourceName": "contracts/token/ERC1155/facets/ERC1155BurnableFacet.sol",
  "abi": [
    {
      "inputs": [
        {
          "internalType": "contract IForwarderRegistry",
          "name": "forwarderRegistry",
          "type": "address"
        }
      ],
      "stateMutability": "nonpayable",
      "type": "constructor"
    },
    {
      "inputs": [
        {
          "internalType": "address",
          "name": "owner",
          "type": "address"
        },
        {
          "internalType": "uint256",
          "name": "id",
          "type": "uint256"
        },
        {
          "internalType": "uint256",
          "name": "balance",
          "type": "uint256"
        },
        {
          "internalType": "uint256",
          "name": "value",
          "type": "uint256"
        }
      ],
      "name": "ERC1155InsufficientBalance",
      "type": "error"
    },
    {
      "inputs": [
        {
          "internalType": "address",
          "name": "sender",
          "type": "address"
        },
        {
          "internalType": "address",
          "name": "owner",
          "type": "address"
        }
      ],
      "name": "ERC1155NonApproved",
      "type": "error"
    },
    {
      "inputs": [],
      "name": "IllegalInterfaceId",
      "type": "error"
    },
    {
      "inputs": [],
      "name": "InconsistentArrayLengths",
      "type": "error"
    },
    {
      "inputs": [
        {
          "internalType": "address",
          "name": "account",
          "type": "address"
        }
      ],
      "name": "NotProxyAdmin",
      "type": "error"
    },
    {
      "anonymous": false,
      "inputs": [
        {
          "indexed": true,
          "internalType": "address",
          "name": "operator",
          "type": "address"
        },
        {
          "indexed": true,
          "internalType": "address",
          "name": "from",
          "type": "address"
        },
        {
          "indexed": true,
          "internalType": "address",
          "name": "to",
          "type": "address"
        },
        {
          "indexed": false,
          "internalType": "uint256[]",
          "name": "ids",
          "type": "uint256[]"
        },
        {
          "indexed": false,
          "internalType": "uint256[]",
          "name": "values",
          "type": "uint256[]"
        }
      ],
      "name": "TransferBatch",
      "type": "event"
    },
    {
      "anonymous": false,
      "inputs": [
        {
          "indexed": true,
          "internalType": "address",
          "name": "operator",
          "type": "address"
        },
        {
          "indexed": true,
          "internalType": "address",
          "name": "from",
          "type": "address"
        },
        {
          "indexed": true,
          "internalType": "address",
          "name": "to",
          "type": "address"
        },
        {
          "indexed": false,
          "internalType": "uint256",
          "name": "id",
          "type": "uint256"
        },
        {
          "indexed": false,
          "internalType": "uint256",
          "name": "value",
          "type": "uint256"
        }
      ],
      "name": "TransferSingle",
      "type": "event"
    },
    {
      "inputs": [
        {
          "internalType": "address",
          "name": "from",
          "type": "address"
        },
        {
          "internalType": "uint256[]",
          "name": "ids",
          "type": "uint256[]"
        },
        {
          "internalType": "uint256[]",
          "name": "values",
          "type": "uint256[]"
        }
      ],
      "name": "batchBurnFrom",
      "outputs": [],
      "stateMutability": "nonpayable",
      "type": "function"
    },
    {
      "inputs": [
        {
          "internalType": "address",
          "name": "from",
          "type": "address"
        },
        {
          "internalType": "uint256",
          "name": "id",
          "type": "uint256"
        },
        {
          "internalType": "uint256",
          "name": "value",
          "type": "uint256"
        }
      ],
      "name": "burnFrom",
      "outputs": [],
      "stateMutability": "nonpayable",
      "type": "function"
    },
    {
      "inputs": [],
      "name": "initERC1155BurnableStorage",
      "outputs": [],
      "stateMutability": "nonpayable",
      "type": "function"
    }
  ],
  "bytecode": "0x60a060405234801561001057600080fd5b50604051610ae2380380610ae283398101604081905261002f91610040565b6001600160a01b0316608052610070565b60006020828403121561005257600080fd5b81516001600160a01b038116811461006957600080fd5b9392505050565b608051610a506100926000396000818161048901526105110152610a506000f3fe608060405234801561001057600080fd5b50600436106100415760003560e01c8063124d91e514610046578063641ff7d91461005b5780638053493414610063575b600080fd5b61005961005436600461080b565b610076565b005b61005961009a565b61005961007136600461088a565b6100bd565b6100956100816100e7565b84848461008c6100f6565b9392919061012a565b505050565b6100b36100a56100e7565b6100ad6101fc565b9061022a565b6100bb610299565b565b6100e06100c86100e7565b86868686866100d56100f6565b9594939291906102ce565b5050505050565b60006100f1610446565b905090565b60008061012460017f5ccf5846fa27a68fafc8e588671a68f5e67c2f9b56af4263806a4d71735e861361090b565b92915050565b61013585848661058d565b610190576040517f05bbb9c400000000000000000000000000000000000000000000000000000000815273ffffffffffffffffffffffffffffffffffffffff8086166004830152841660248201526044015b60405180910390fd5b61019c85848484610605565b604080518381526020810183905260009173ffffffffffffffffffffffffffffffffffffffff86811692908816917fc3d58168c5ae7397731d063d5bbf3d657854427343f4c083240f7aacaa2d0f62910160405180910390a45050505050565b60008061012460017fb53127684a568b3173ae13b9f8a6016e243e63b6e8ee1178d6a717850b5d610461090b565b815473ffffffffffffffffffffffffffffffffffffffff828116911614610295576040517f673a31a100000000000000000000000000000000000000000000000000000000815273ffffffffffffffffffffffffffffffffffffffff82166004820152602401610187565b5050565b6100bb7f921ed8d10000000000000000000000000000000000000000000000000000000060016102c76106d8565b9190610706565b82818114610308576040517f6582533600000000000000000000000000000000000000000000000000000000815260040160405180910390fd5b61031388878961058d565b610369576040517f05bbb9c400000000000000000000000000000000000000000000000000000000815273ffffffffffffffffffffffffffffffffffffffff808916600483015287166024820152604401610187565b60005b818110156103b8576103b0898888888581811061038b5761038b610945565b905060200201358787868181106103a4576103a4610945565b90506020020135610605565b60010161036c565b50600073ffffffffffffffffffffffffffffffffffffffff168673ffffffffffffffffffffffffffffffffffffffff168873ffffffffffffffffffffffffffffffffffffffff167f4a39dc06d4c0dbc64b70af90fd698a233a518aa5d07e595d983b8c0526c8f7fb8888888860405161043494939291906109bf565b60405180910390a45050505050505050565b6000333214806104565750601836105b1561046057503390565b7fffffffffffffffffffffffffffffffffffffffffffffffffffffffffffffffec36013560601c7f000000000000000000000000000000000000000000000000000000000000000073ffffffffffffffffffffffffffffffffffffffff1633148061057c57506040517f8929a8ca00000000000000000000000000000000000000000000000000000000815273ffffffffffffffffffffffffffffffffffffffff82811660048301523360248301527f00000000000000000000000000000000000000000000000000000000000000001690638929a8ca90604401602060405180830381865afa158015610558573d6000803e3d6000fd5b505050506040513d601f19601f8201168201806040525081019061057c91906109f1565b1561058657919050565b3391505090565b60008173ffffffffffffffffffffffffffffffffffffffff168373ffffffffffffffffffffffffffffffffffffffff1614806105fd575073ffffffffffffffffffffffffffffffffffffffff808416600090815260018601602090815260408083209386168352929052205460ff165b949350505050565b80156106d25760008281526020858152604080832073ffffffffffffffffffffffffffffffffffffffff871684529091529020548181038181106106a2576040517f03dee4c500000000000000000000000000000000000000000000000000000000815273ffffffffffffffffffffffffffffffffffffffff86166004820152602481018590526044810183905260648101849052608401610187565b60008481526020878152604080832073ffffffffffffffffffffffffffffffffffffffff89168452909152902055505b50505050565b60008061012460017fca9d3e17f264b0f3984e2634e94adb37fa3e6a8103f06aeae6fa59e21c769f5e61090b565b7c01000000000000000000000000000000000000000000000000000000007fffffffff0000000000000000000000000000000000000000000000000000000083160161077e576040517f72c683bb00000000000000000000000000000000000000000000000000000000815260040160405180910390fd5b7fffffffff00000000000000000000000000000000000000000000000000000000919091166000908152602092909252604090912080547fffffffffffffffffffffffffffffffffffffffffffffffffffffffffffffff0016911515919091179055565b803573ffffffffffffffffffffffffffffffffffffffff8116811461080657600080fd5b919050565b60008060006060848603121561082057600080fd5b610829846107e2565b95602085013595506040909401359392505050565b60008083601f84011261085057600080fd5b50813567ffffffffffffffff81111561086857600080fd5b6020830191508360208260051b850101111561088357600080fd5b9250929050565b6000806000806000606086880312156108a257600080fd5b6108ab866107e2565b9450602086013567ffffffffffffffff808211156108c857600080fd5b6108d489838a0161083e565b909650945060408801359150808211156108ed57600080fd5b506108fa8882890161083e565b969995985093965092949392505050565b81810381811115610124577f4e487b7100000000000000000000000000000000000000000000000000000000600052601160045260246000fd5b7f4e487b7100000000000000000000000000000000000000000000000000000000600052603260045260246000fd5b81835260007f07ffffffffffffffffffffffffffffffffffffffffffffffffffffffffffffff8311156109a657600080fd5b8260051b80836020870137939093016020019392505050565b6040815260006109d3604083018688610974565b82810360208401526109e6818587610974565b979650505050505050565b600060208284031215610a0357600080fd5b81518015158114610a1357600080fd5b939250505056fea264697066735822122070499d9fdf708c0520d509c615d3b4e587510e2ba8254a521f51fef3a78e199964736f6c63430008160033",
  "linkReferences": {},
  "deployedLinkReferences": {}
}