{
  "_format": "hh-sol-artifact-1",
  "contractName": "ERC721DeliverableFacetMock",
  "sourceName": "contracts/mocks/token/ERC721/facets/ERC721DeliverableFacetMock.sol",
  "abi": [
    {
      "inputs": [
        {
          "internalType": "contract IForwarderRegistry",
          "name": "forwarderRegistry",
          "type": "address"
        }
      ],
      "stateMutability": "nonpayable",
      "type": "constructor"
    },
    {
      "anonymous": false,
      "inputs": [
        {
          "indexed": true,
          "internalType": "address",
          "name": "owner",
          "type": "address"
        },
        {
          "indexed": true,
          "internalType": "address",
          "name": "approved",
          "type": "address"
        },
        {
          "indexed": true,
          "internalType": "uint256",
          "name": "tokenId",
          "type": "uint256"
        }
      ],
      "name": "Approval",
      "type": "event"
    },
    {
      "anonymous": false,
      "inputs": [
        {
          "indexed": true,
          "internalType": "address",
          "name": "owner",
          "type": "address"
        },
        {
          "indexed": true,
          "internalType": "address",
          "name": "operator",
          "type": "address"
        },
        {
          "indexed": false,
          "internalType": "bool",
          "name": "approved",
          "type": "bool"
        }
      ],
      "name": "ApprovalForAll",
      "type": "event"
    },
    {
      "anonymous": false,
      "inputs": [
        {
          "indexed": true,
          "internalType": "address",
          "name": "from",
          "type": "address"
        },
        {
          "indexed": true,
          "internalType": "address",
          "name": "to",
          "type": "address"
        },
        {
          "indexed": true,
          "internalType": "uint256",
          "name": "tokenId",
          "type": "uint256"
        }
      ],
      "name": "Transfer",
      "type": "event"
    },
    {
      "inputs": [],
      "name": "__msgData",
      "outputs": [
        {
          "internalType": "bytes",
          "name": "",
          "type": "bytes"
        }
      ],
      "stateMutability": "view",
      "type": "function"
    },
    {
      "inputs": [
        {
          "internalType": "address[]",
          "name": "recipients",
          "type": "address[]"
        },
        {
          "internalType": "uint256[]",
          "name": "tokenIds",
          "type": "uint256[]"
        }
      ],
      "name": "deliver",
      "outputs": [],
      "stateMutability": "nonpayable",
      "type": "function"
    },
    {
      "inputs": [],
      "name": "initERC721DeliverableStorage",
      "outputs": [],
      "stateMutability": "nonpayable",
      "type": "function"
    }
  ],
  "bytecode": "0x60a060405234801561000f575f80fd5b50604051610ee7380380610ee783398101604081905261002e9161003f565b6001600160a01b031660805261006c565b5f6020828403121561004f575f80fd5b81516001600160a01b0381168114610065575f80fd5b9392505050565b608051610e4e6100995f395f8181610485015281816104c3015281816105f7015261067f0152610e4e5ff3fe608060405234801561000f575f80fd5b506004361061003f575f3560e01c806331e66e1e146100435780639da5e83214610062578063a330f88d14610077575b5f80fd5b61004b61007f565b604051610059929190610b61565b60405180910390f35b610075610070366004610bf5565b610091565b005b610075610148565b365f61008961016b565b915091509091565b6100cc7f6d696e74657200000000000000000000000000000000000000000000000000006100bd610175565b6100c5610183565b91906101b6565b6101428484808060200260200160405190810160405280939291908181526020018383602002808284375f92019190915250506040805160208088028281018201909352878252909350879250869182918501908490808284375f9201919091525061013b925061026f915050565b919061029c565b50505050565b610161610153610175565b61015b610367565b90610394565b61016961041b565b565b365f610089610450565b5f61017e6105b5565b905090565b5f806101b060017fc8827d3282af6f37b64c3e9e6f3ac9df286ab0bb0fccd6f8661bf19adb368b23610c5c565b92915050565b5f8281526020848152604080832073ffffffffffffffffffffffffffffffffffffffff8516845290915290205460ff1661026a576101f3826106f9565b6040516020016102039190610cb6565b604080517fffffffffffffffffffffffffffffffffffffffffffffffffffffffffffffffe0818403018152908290527f08c379a000000000000000000000000000000000000000000000000000000000825261026191600401610d21565b60405180910390fd5b505050565b5f806101b060017fddf3ee18ae6d688373c219468f8be446e7ae82215f4779d821c7ea5e8c13c0c1610c5c565b815181518114610308576040517f08c379a000000000000000000000000000000000000000000000000000000000815260206004820152601b60248201527f4552433732313a20696e636f6e73697374656e742061727261797300000000006044820152606401610261565b5f5b8181146103605761035884828151811061032657610326610d71565b602002602001015184838151811061034057610340610d71565b6020026020010151876108849092919063ffffffff16565b60010161030a565b5050505050565b5f806101b060017fb53127684a568b3173ae13b9f8a6016e243e63b6e8ee1178d6a717850b5d6104610c5c565b815473ffffffffffffffffffffffffffffffffffffffff828116911614610417576040517f08c379a000000000000000000000000000000000000000000000000000000000815260206004820152601960248201527f50726f787941646d696e3a206e6f74207468652061646d696e000000000000006044820152606401610261565b5050565b6101697f9da5e8320000000000000000000000000000000000000000000000000000000060016104496109f9565b9190610a26565b365f333214806104605750601836105b1561046d57505f91369150565b3373ffffffffffffffffffffffffffffffffffffffff7f00000000000000000000000000000000000000000000000000000000000000001614806105a0575073ffffffffffffffffffffffffffffffffffffffff7f000000000000000000000000000000000000000000000000000000000000000016638929a8ca367fffffffffffffffffffffffffffffffffffffffffffffffffffffffffffffffec013560601c6040517fffffffff0000000000000000000000000000000000000000000000000000000060e084901b16815273ffffffffffffffffffffffffffffffffffffffff9091166004820152336024820152604401602060405180830381865afa15801561057c573d5f803e3d5ffd5b505050506040513d601f19601f820116820180604052508101906105a09190610d9e565b156105ad57610089610b31565b505f91369150565b5f333214806105c45750601836105b156105ce57503390565b7fffffffffffffffffffffffffffffffffffffffffffffffffffffffffffffffec36013560601c7f000000000000000000000000000000000000000000000000000000000000000073ffffffffffffffffffffffffffffffffffffffff163314806106e857506040517f8929a8ca00000000000000000000000000000000000000000000000000000000815273ffffffffffffffffffffffffffffffffffffffff82811660048301523360248301527f00000000000000000000000000000000000000000000000000000000000000001690638929a8ca90604401602060405180830381865afa1580156106c4573d5f803e3d5ffd5b505050506040513d601f19601f820116820180604052508101906106e89190610d9e565b156106f257919050565b3391505090565b60605f82900361071657505060408051602081019091525f815290565b5f8260405160200161072a91815260200190565b604080517fffffffffffffffffffffffffffffffffffffffffffffffffffffffffffffffe08184030181529190529050601f5b81818151811061076f5761076f610d71565b01602001517fff00000000000000000000000000000000000000000000000000000000000000165f036107c3577fffffffffffffffffffffffffffffffffffffffffffffffffffffffffffffffff0161075d565b5f8160010167ffffffffffffffff8111156107e0576107e0610dc4565b6040519080825280601f01601f19166020018201604052801561080a576020820181803683370190505b5090505f5b82811161087b5783818151811061082857610828610d71565b602001015160f81c60f81b82828151811061084557610845610d71565b60200101907effffffffffffffffffffffffffffffffffffffffffffffffffffffffffffff191690815f1a90535060010161080f565b50949350505050565b73ffffffffffffffffffffffffffffffffffffffff8216610901576040517f08c379a000000000000000000000000000000000000000000000000000000000815260206004820152601a60248201527f4552433732313a206d696e7420746f20616464726573732830290000000000006044820152606401610261565b5f8181526020849052604090205473ffffffffffffffffffffffffffffffffffffffff161561098c576040517f08c379a000000000000000000000000000000000000000000000000000000000815260206004820152601660248201527f4552433732313a206578697374696e6720746f6b656e000000000000000000006044820152606401610261565b5f8181526020848152604080832073ffffffffffffffffffffffffffffffffffffffff86169081905580845260018088019093528184208054909301909255518392907fddf252ad1be2c89b69c2b068fc378daa952ba7f163c4a11628f55a4df523b3ef908290a4505050565b5f806101b060017fca9d3e17f264b0f3984e2634e94adb37fa3e6a8103f06aeae6fa59e21c769f5e610c5c565b7c01000000000000000000000000000000000000000000000000000000007fffffffff00000000000000000000000000000000000000000000000000000000831601610ace576040517f08c379a000000000000000000000000000000000000000000000000000000000815260206004820152601f60248201527f496e74657266616365446574656374696f6e3a2077726f6e672076616c7565006044820152606401610261565b7fffffffff00000000000000000000000000000000000000000000000000000000919091165f908152602092909252604090912080547fffffffffffffffffffffffffffffffffffffffffffffffffffffffffffffff0016911515919091179055565b365f6100897fffffffffffffffffffffffffffffffffffffffffffffffffffffffffffffffec8301828481610df1565b60208152816020820152818360408301375f818301604090810191909152601f9092017fffffffffffffffffffffffffffffffffffffffffffffffffffffffffffffffe0160101919050565b5f8083601f840112610bbd575f80fd5b50813567ffffffffffffffff811115610bd4575f80fd5b6020830191508360208260051b8501011115610bee575f80fd5b9250929050565b5f805f8060408587031215610c08575f80fd5b843567ffffffffffffffff80821115610c1f575f80fd5b610c2b88838901610bad565b90965094506020870135915080821115610c43575f80fd5b50610c5087828801610bad565b95989497509550505050565b818103818111156101b0577f4e487b71000000000000000000000000000000000000000000000000000000005f52601160045260245ffd5b5f5b83811015610cae578181015183820152602001610c96565b50505f910152565b7f416363657373436f6e74726f6c3a206d697373696e672027000000000000000081525f8251610ced816018850160208701610c94565b7f2720726f6c6500000000000000000000000000000000000000000000000000006018939091019283015250601e01919050565b602081525f8251806020840152610d3f816040850160208701610c94565b601f017fffffffffffffffffffffffffffffffffffffffffffffffffffffffffffffffe0169190910160400192915050565b7f4e487b71000000000000000000000000000000000000000000000000000000005f52603260045260245ffd5b5f60208284031215610dae575f80fd5b81518015158114610dbd575f80fd5b9392505050565b7f4e487b71000000000000000000000000000000000000000000000000000000005f52604160045260245ffd5b5f8085851115610dff575f80fd5b83861115610e0b575f80fd5b505082019391909203915056fea2646970667358221220aa45dd666f9a6b404d64ab3196907dbadeaf8f847e8e874881a34e131de4ce9c64736f6c63430008150033",
  "linkReferences": {},
  "deployedLinkReferences": {}
}