{
  "_format": "hh-sol-artifact-1",
  "contractName": "ERC721DeliverableFacetMock",
  "sourceName": "contracts/mocks/token/ERC721/facets/ERC721DeliverableFacetMock.sol",
  "abi": [
    {
      "inputs": [
        {
          "internalType": "contract IForwarderRegistry",
          "name": "forwarderRegistry",
          "type": "address"
        }
      ],
      "stateMutability": "nonpayable",
      "type": "constructor"
    },
    {
      "inputs": [
        {
          "internalType": "uint256",
          "name": "tokenId",
          "type": "uint256"
        }
      ],
      "name": "ERC721ExistingToken",
      "type": "error"
    },
    {
      "inputs": [],
      "name": "ERC721MintToAddressZero",
      "type": "error"
    },
    {
      "inputs": [],
      "name": "IllegalInterfaceId",
      "type": "error"
    },
    {
      "inputs": [],
      "name": "InconsistentArrayLengths",
      "type": "error"
    },
    {
      "inputs": [
        {
          "internalType": "address",
          "name": "account",
          "type": "address"
        }
      ],
      "name": "NotProxyAdmin",
      "type": "error"
    },
    {
      "inputs": [
        {
          "internalType": "bytes32",
          "name": "role",
          "type": "bytes32"
        },
        {
          "internalType": "address",
          "name": "account",
          "type": "address"
        }
      ],
      "name": "NotRoleHolder",
      "type": "error"
    },
    {
      "anonymous": false,
      "inputs": [
        {
          "indexed": true,
          "internalType": "address",
          "name": "owner",
          "type": "address"
        },
        {
          "indexed": true,
          "internalType": "address",
          "name": "approved",
          "type": "address"
        },
        {
          "indexed": true,
          "internalType": "uint256",
          "name": "tokenId",
          "type": "uint256"
        }
      ],
      "name": "Approval",
      "type": "event"
    },
    {
      "anonymous": false,
      "inputs": [
        {
          "indexed": true,
          "internalType": "address",
          "name": "owner",
          "type": "address"
        },
        {
          "indexed": true,
          "internalType": "address",
          "name": "operator",
          "type": "address"
        },
        {
          "indexed": false,
          "internalType": "bool",
          "name": "approved",
          "type": "bool"
        }
      ],
      "name": "ApprovalForAll",
      "type": "event"
    },
    {
      "anonymous": false,
      "inputs": [
        {
          "indexed": true,
          "internalType": "address",
          "name": "from",
          "type": "address"
        },
        {
          "indexed": true,
          "internalType": "address",
          "name": "to",
          "type": "address"
        },
        {
          "indexed": true,
          "internalType": "uint256",
          "name": "tokenId",
          "type": "uint256"
        }
      ],
      "name": "Transfer",
      "type": "event"
    },
    {
      "inputs": [],
      "name": "__msgData",
      "outputs": [
        {
          "internalType": "bytes",
          "name": "",
          "type": "bytes"
        }
      ],
      "stateMutability": "view",
      "type": "function"
    },
    {
      "inputs": [
        {
          "internalType": "address[]",
          "name": "recipients",
          "type": "address[]"
        },
        {
          "internalType": "uint256[]",
          "name": "tokenIds",
          "type": "uint256[]"
        }
      ],
      "name": "deliver",
      "outputs": [],
      "stateMutability": "nonpayable",
      "type": "function"
    },
    {
      "inputs": [],
      "name": "initERC721DeliverableStorage",
      "outputs": [],
      "stateMutability": "nonpayable",
      "type": "function"
    }
  ],
  "bytecode": "0x60a060405234801561001057600080fd5b50604051610b88380380610b8883398101604081905261002f91610040565b6001600160a01b0316608052610070565b60006020828403121561005257600080fd5b81516001600160a01b038116811461006957600080fd5b9392505050565b608051610ae86100a060003960008181610422015281816104600152818161059801526106200152610ae86000f3fe608060405234801561001057600080fd5b50600436106100415760003560e01c806331e66e1e146100465780639da5e83214610065578063a330f88d1461007a575b600080fd5b61004e610082565b60405161005c9291906108f1565b60405180910390f35b61007861007336600461098a565b610095565b005b61007861014e565b36600061008d610171565b915091509091565b6100d07f6d696e74657200000000000000000000000000000000000000000000000000006100c161017c565b6100c961018b565b91906101bf565b61014884848080602002602001604051908101604052809392919081815260200183836020028082843760009201919091525050604080516020808802828101820190935287825290935087925086918291850190849080828437600092019190915250610141925061024f915050565b919061027d565b50505050565b61016761015961017c565b610161610319565b90610347565b61016f6103b6565b565b36600061008d6103eb565b6000610186610555565b905090565b6000806101b960017fc8827d3282af6f37b64c3e9e6f3ac9df286ab0bb0fccd6f8661bf19adb368b236109f6565b92915050565b60008281526020848152604080832073ffffffffffffffffffffffffffffffffffffffff8516845290915290205460ff1661024a576040517f7aa728820000000000000000000000000000000000000000000000000000000081526004810183905273ffffffffffffffffffffffffffffffffffffffff821660248201526044015b60405180910390fd5b505050565b6000806101b960017fddf3ee18ae6d688373c219468f8be446e7ae82215f4779d821c7ea5e8c13c0c16109f6565b8151815181146102b9576040517f6582533600000000000000000000000000000000000000000000000000000000815260040160405180910390fd5b60005b8181146103125761030a8482815181106102d8576102d8610a30565b60200260200101518483815181106102f2576102f2610a30565b60200260200101518761069c9092919063ffffffff16565b6001016102bc565b5050505050565b6000806101b960017fb53127684a568b3173ae13b9f8a6016e243e63b6e8ee1178d6a717850b5d61046109f6565b815473ffffffffffffffffffffffffffffffffffffffff8281169116146103b2576040517f673a31a100000000000000000000000000000000000000000000000000000000815273ffffffffffffffffffffffffffffffffffffffff82166004820152602401610241565b5050565b61016f7f9da5e8320000000000000000000000000000000000000000000000000000000060016103e46107b6565b91906107e4565b366000333214806103fc5750601836105b1561040a5750600091369150565b3373ffffffffffffffffffffffffffffffffffffffff7f000000000000000000000000000000000000000000000000000000000000000016148061053f575073ffffffffffffffffffffffffffffffffffffffff7f000000000000000000000000000000000000000000000000000000000000000016638929a8ca367fffffffffffffffffffffffffffffffffffffffffffffffffffffffffffffffec013560601c6040517fffffffff0000000000000000000000000000000000000000000000000000000060e084901b16815273ffffffffffffffffffffffffffffffffffffffff9091166004820152336024820152604401602060405180830381865afa15801561051b573d6000803e3d6000fd5b505050506040513d601f19601f8201168201806040525081019061053f9190610a5f565b1561054c5761008d6108c0565b50600091369150565b6000333214806105655750601836105b1561056f57503390565b7fffffffffffffffffffffffffffffffffffffffffffffffffffffffffffffffec36013560601c7f000000000000000000000000000000000000000000000000000000000000000073ffffffffffffffffffffffffffffffffffffffff1633148061068b57506040517f8929a8ca00000000000000000000000000000000000000000000000000000000815273ffffffffffffffffffffffffffffffffffffffff82811660048301523360248301527f00000000000000000000000000000000000000000000000000000000000000001690638929a8ca90604401602060405180830381865afa158015610667573d6000803e3d6000fd5b505050506040513d601f19601f8201168201806040525081019061068b9190610a5f565b1561069557919050565b3391505090565b73ffffffffffffffffffffffffffffffffffffffff82166106e9576040517f7851b9cd00000000000000000000000000000000000000000000000000000000815260040160405180910390fd5b60008181526020849052604090205473ffffffffffffffffffffffffffffffffffffffff1615610748576040517f753eceac00000000000000000000000000000000000000000000000000000000815260048101829052602401610241565b60008181526020848152604080832073ffffffffffffffffffffffffffffffffffffffff86169081905580845260018088019093528184208054909301909255518392907fddf252ad1be2c89b69c2b068fc378daa952ba7f163c4a11628f55a4df523b3ef908290a4505050565b6000806101b960017fca9d3e17f264b0f3984e2634e94adb37fa3e6a8103f06aeae6fa59e21c769f5e6109f6565b7c01000000000000000000000000000000000000000000000000000000007fffffffff0000000000000000000000000000000000000000000000000000000083160161085c576040517f72c683bb00000000000000000000000000000000000000000000000000000000815260040160405180910390fd5b7fffffffff00000000000000000000000000000000000000000000000000000000919091166000908152602092909252604090912080547fffffffffffffffffffffffffffffffffffffffffffffffffffffffffffffff0016911515919091179055565b36600061008d7fffffffffffffffffffffffffffffffffffffffffffffffffffffffffffffffec8301828481610a88565b60208152816020820152818360408301376000818301604090810191909152601f9092017fffffffffffffffffffffffffffffffffffffffffffffffffffffffffffffffe0160101919050565b60008083601f84011261095057600080fd5b50813567ffffffffffffffff81111561096857600080fd5b6020830191508360208260051b850101111561098357600080fd5b9250929050565b600080600080604085870312156109a057600080fd5b843567ffffffffffffffff808211156109b857600080fd5b6109c48883890161093e565b909650945060208701359150808211156109dd57600080fd5b506109ea8782880161093e565b95989497509550505050565b818103818111156101b9577f4e487b7100000000000000000000000000000000000000000000000000000000600052601160045260246000fd5b7f4e487b7100000000000000000000000000000000000000000000000000000000600052603260045260246000fd5b600060208284031215610a7157600080fd5b81518015158114610a8157600080fd5b9392505050565b60008085851115610a9857600080fd5b83861115610aa557600080fd5b505082019391909203915056fea2646970667358221220d23178ff946a63d1f470953c18185f706f6f8dbb3cc0e476c067f7dc4fc1ae2664736f6c63430008150033",
  "linkReferences": {},
  "deployedLinkReferences": {}
}