{
  "_format": "hh-sol-artifact-1",
  "contractName": "SafeContractOwnershipFacet",
  "sourceName": "contracts/access/facets/SafeContractOwnershipFacet.sol",
  "abi": [
    {
      "inputs": [
        {
          "internalType": "contract IForwarderRegistry",
          "name": "forwarderRegistry",
          "type": "address"
        }
      ],
      "stateMutability": "nonpayable",
      "type": "constructor"
    },
    {
      "inputs": [],
      "name": "IllegalInterfaceId",
      "type": "error"
    },
    {
      "inputs": [
        {
          "internalType": "uint256",
          "name": "currentPhase",
          "type": "uint256"
        },
        {
          "internalType": "uint256",
          "name": "newPhase",
          "type": "uint256"
        }
      ],
      "name": "InitializationPhaseAlreadyReached",
      "type": "error"
    },
    {
      "inputs": [
        {
          "internalType": "address",
          "name": "account",
          "type": "address"
        }
      ],
      "name": "NotContractOwner",
      "type": "error"
    },
    {
      "inputs": [
        {
          "internalType": "address",
          "name": "account",
          "type": "address"
        }
      ],
      "name": "NotPendingContractOwner",
      "type": "error"
    },
    {
      "inputs": [
        {
          "internalType": "address",
          "name": "account",
          "type": "address"
        }
      ],
      "name": "NotProxyAdmin",
      "type": "error"
    },
    {
      "anonymous": false,
      "inputs": [
        {
          "indexed": true,
          "internalType": "address",
          "name": "pendingOwner",
          "type": "address"
        }
      ],
      "name": "OwnershipTransferPending",
      "type": "event"
    },
    {
      "anonymous": false,
      "inputs": [
        {
          "indexed": true,
          "internalType": "address",
          "name": "previousOwner",
          "type": "address"
        },
        {
          "indexed": true,
          "internalType": "address",
          "name": "newOwner",
          "type": "address"
        }
      ],
      "name": "OwnershipTransferred",
      "type": "event"
    },
    {
      "inputs": [],
      "name": "acceptOwnership",
      "outputs": [],
      "stateMutability": "nonpayable",
      "type": "function"
    },
    {
      "inputs": [
        {
          "internalType": "address",
          "name": "initialOwner",
          "type": "address"
        }
      ],
      "name": "initContractOwnershipStorage",
      "outputs": [],
      "stateMutability": "nonpayable",
      "type": "function"
    },
    {
      "inputs": [],
      "name": "owner",
      "outputs": [
        {
          "internalType": "address",
          "name": "",
          "type": "address"
        }
      ],
      "stateMutability": "view",
      "type": "function"
    },
    {
      "inputs": [],
      "name": "pendingOwner",
      "outputs": [
        {
          "internalType": "address",
          "name": "",
          "type": "address"
        }
      ],
      "stateMutability": "view",
      "type": "function"
    },
    {
      "inputs": [
        {
          "internalType": "address",
          "name": "newOwner",
          "type": "address"
        }
      ],
      "name": "transferOwnership",
      "outputs": [],
      "stateMutability": "nonpayable",
      "type": "function"
    }
  ],
  "bytecode": "0x60a0604052348015600f57600080fd5b50604051610a1b380380610a1b833981016040819052602c91603c565b6001600160a01b0316608052606a565b600060208284031215604d57600080fd5b81516001600160a01b0381168114606357600080fd5b9392505050565b60805161098f61008c600039600081816105a30152610631015261098f6000f3fe608060405234801561001057600080fd5b50600436106100675760003560e01c80638da5cb5b116100505780638da5cb5b14610089578063e30c3978146100ba578063f2fde38b146100c257600080fd5b806363e340d61461006c57806379ba509714610081575b600080fd5b61007f61007a3660046108c0565b6100d5565b005b61007f610103565b61009161011e565b60405173ffffffffffffffffffffffffffffffffffffffff909116815260200160405180910390f35b61009161014a565b61007f6100d03660046108c0565b610174565b6100ee6100e061018f565b6100e8610199565b906101cd565b610100816100fa610241565b9061026f565b50565b61011c61010e61018f565b610116610241565b906102ae565b565b600061014561012b610241565b5473ffffffffffffffffffffffffffffffffffffffff1690565b905090565b6000610145610157610241565b6001015473ffffffffffffffffffffffffffffffffffffffff1690565b61010061017f61018f565b82610188610241565b91906103b5565b6000610145610560565b6000806101c760017fb53127684a568b3173ae13b9f8a6016e243e63b6e8ee1178d6a717850b5d61046108fd565b92915050565b815473ffffffffffffffffffffffffffffffffffffffff82811691161461023d576040517f673a31a100000000000000000000000000000000000000000000000000000000815273ffffffffffffffffffffffffffffffffffffffff821660048201526024015b60405180910390fd5b5050565b6000806101c760017f9d118bc1195e908806a0d8a492ffda365ad8222890448ff28ede06205764e12c6108fd565b6102a461029d60017f0a5ee31d9c53ad463777e870bc52a4da1baabf467a02dee7381e23f5450e41ce6108fd565b60016106ad565b61023d82826106f9565b600182015473ffffffffffffffffffffffffffffffffffffffff908116908216811461031e576040517f6184875200000000000000000000000000000000000000000000000000000000815273ffffffffffffffffffffffffffffffffffffffff83166004820152602401610234565b825460405173ffffffffffffffffffffffffffffffffffffffff8084169216907f8be0079c531659141344cd1fd0a4f28419497f9722a3daafe3b4186f6b6457e090600090a3825473ffffffffffffffffffffffffffffffffffffffff9091167fffffffffffffffffffffffff00000000000000000000000000000000000000009182161783556001909201805490921690915550565b825473ffffffffffffffffffffffffffffffffffffffff9081169083168114610422576040517f2ef4875e00000000000000000000000000000000000000000000000000000000815273ffffffffffffffffffffffffffffffffffffffff84166004820152602401610234565b73ffffffffffffffffffffffffffffffffffffffff82166104b85783547fffffffffffffffffffffffff00000000000000000000000000000000000000009081168555600185018054909116905560405160009073ffffffffffffffffffffffffffffffffffffffff8316907f8be0079c531659141344cd1fd0a4f28419497f9722a3daafe3b4186f6b6457e0908390a361055a565b8173ffffffffffffffffffffffffffffffffffffffff168173ffffffffffffffffffffffffffffffffffffffff161461055a576001840180547fffffffffffffffffffffffff00000000000000000000000000000000000000001673ffffffffffffffffffffffffffffffffffffffff84169081179091556040517ffcf6b9a1f453b7c06ba4f44b1f8c38b02e8b90a7bd35bd0d5c43e2deb547f56890600090a25b50505050565b6000333214806105705750601836105b1561057a57503390565b7fffffffffffffffffffffffffffffffffffffffffffffffffffffffffffffffec36013560601c7f000000000000000000000000000000000000000000000000000000000000000073ffffffffffffffffffffffffffffffffffffffff1633148061069c57506040517f019a202800000000000000000000000000000000000000000000000000000000815273ffffffffffffffffffffffffffffffffffffffff82811660048301523360248301523060448301527f0000000000000000000000000000000000000000000000000000000000000000169063019a202890606401602060405180830381865afa158015610678573d6000803e3d6000fd5b505050506040513d601f19601f8201168201806040525081019061069c9190610937565b156106a657919050565b3391505090565b815482908281106106f4576040517fbf0c18ec0000000000000000000000000000000000000000000000000000000081526004810182905260248101849052604401610234565b505550565b73ffffffffffffffffffffffffffffffffffffffff8116156107815781547fffffffffffffffffffffffff00000000000000000000000000000000000000001673ffffffffffffffffffffffffffffffffffffffff821690811783556040516000907f8be0079c531659141344cd1fd0a4f28419497f9722a3daafe3b4186f6b6457e0908290a35b61023d7f7f5828d00000000000000000000000000000000000000000000000000000000060016107af6107b6565b91906107e4565b6000806101c760017fca9d3e17f264b0f3984e2634e94adb37fa3e6a8103f06aeae6fa59e21c769f5e6108fd565b7c01000000000000000000000000000000000000000000000000000000007fffffffff0000000000000000000000000000000000000000000000000000000083160161085c576040517f72c683bb00000000000000000000000000000000000000000000000000000000815260040160405180910390fd5b7fffffffff00000000000000000000000000000000000000000000000000000000919091166000908152602092909252604090912080547fffffffffffffffffffffffffffffffffffffffffffffffffffffffffffffff0016911515919091179055565b6000602082840312156108d257600080fd5b813573ffffffffffffffffffffffffffffffffffffffff811681146108f657600080fd5b9392505050565b818103818111156101c7577f4e487b7100000000000000000000000000000000000000000000000000000000600052601160045260246000fd5b60006020828403121561094957600080fd5b815180151581146108f657600080fdfea2646970667358221220b09b7aa4aa25aefd7dcb63b5e275c0548691fe9a16d20e67afb485fe9d19e94c64736f6c63430008190033",
  "linkReferences": {},
  "deployedLinkReferences": {}
}