{
  "_format": "hh-sol-artifact-1",
  "contractName": "ERC20PermitStorage",
  "sourceName": "contracts/token/ERC20/libraries/ERC20PermitStorage.sol",
  "abi": [
    {
      "inputs": [],
      "name": "ERC20PERMIT_STORAGE_POSITION",
      "outputs": [
        {
          "internalType": "bytes32",
          "name": "",
          "type": "bytes32"
        }
      ],
      "stateMutability": "view",
      "type": "function"
    },
    {
      "inputs": [],
      "name": "ERC20PERMIT_VERSION_SLOT",
      "outputs": [
        {
          "internalType": "bytes32",
          "name": "",
          "type": "bytes32"
        }
      ],
      "stateMutability": "view",
      "type": "function"
    }
  ],
  "bytecode": "0x61012561003a600b82828239805160001a60731461002d57634e487b7160e01b600052600060045260246000fd5b30600052607381538281f3fe7300000000000000000000000000000000000000003014608060405260043610603d5760003560e01c806345f135c91460425780635a6b204014605a575b600080fd5b60486060565b60405190815260200160405180910390f35b6048608c565b608960017f95ba67aaba42060bd66d13e9b8dd4b2e66edfe610eefbc1a5ad18df7e733579060b2565b81565b608960017f4333ef392c4389b60d8e640834410f533783dabc9597d2a8e8187fba883e669d5b60008282101560ea577f4e487b7100000000000000000000000000000000000000000000000000000000600052601160045260246000fd5b50039056fea26469706673582212205d4bc8754f65e97f253446ba7e736d8602d1787102d78823339f3cede178aa4064736f6c634300080e0033",
  "linkReferences": {},
  "deployedLinkReferences": {}
}