{
  "_format": "hh-sol-artifact-1",
  "contractName": "ERC20PermitStorage",
  "sourceName": "contracts/token/ERC20/libraries/ERC20PermitStorage.sol",
  "abi": [
    {
      "inputs": [],
      "name": "ERC20PERMIT_STORAGE_POSITION",
      "outputs": [
        {
          "internalType": "bytes32",
          "name": "",
          "type": "bytes32"
        }
      ],
      "stateMutability": "view",
      "type": "function"
    },
    {
      "inputs": [],
      "name": "ERC20PERMIT_VERSION_SLOT",
      "outputs": [
        {
          "internalType": "bytes32",
          "name": "",
          "type": "bytes32"
        }
      ],
      "stateMutability": "view",
      "type": "function"
    }
  ],
  "bytecode": "0x6101c4610053600b82828239805160001a607314610046577f4e487b7100000000000000000000000000000000000000000000000000000000600052600060045260246000fd5b30600052607381538281f3fe73000000000000000000000000000000000000000030146080604052600436106100405760003560e01c806345f135c9146100455780635a6b204014610063575b600080fd5b61004d610081565b60405161005a9190610106565b60405180910390f35b61006b6100b7565b6040516100789190610106565b60405180910390f35b60017f95ba67aaba42060bd66d13e9b8dd4b2e66edfe610eefbc1a5ad18df7e733579060001c6100b1919061015a565b60001b81565b60017f4333ef392c4389b60d8e640834410f533783dabc9597d2a8e8187fba883e669d60001c6100e7919061015a565b60001b81565b6000819050919050565b610100816100ed565b82525050565b600060208201905061011b60008301846100f7565b92915050565b6000819050919050565b7f4e487b7100000000000000000000000000000000000000000000000000000000600052601160045260246000fd5b600061016582610121565b915061017083610121565b9250828210156101835761018261012b565b5b82820390509291505056fea26469706673582212202ec1bd03b1c573ade7aa3c966c550a8b759cf2a89171a25eb2a29d48b9f4df4664736f6c634300080d0033",
  "linkReferences": {},
  "deployedLinkReferences": {}
}