{
  "_format": "hh-sol-artifact-1",
  "contractName": "ERC20FixedSupply",
  "sourceName": "contracts/token/ERC20/preset/ERC20FixedSupply.sol",
  "abi": [
    {
      "inputs": [
        {
          "internalType": "string",
          "name": "tokenName",
          "type": "string"
        },
        {
          "internalType": "string",
          "name": "tokenSymbol",
          "type": "string"
        },
        {
          "internalType": "uint8",
          "name": "tokenDecimals",
          "type": "uint8"
        },
        {
          "internalType": "address[]",
          "name": "holders",
          "type": "address[]"
        },
        {
          "internalType": "uint256[]",
          "name": "allocations",
          "type": "uint256[]"
        },
        {
          "internalType": "contract IForwarderRegistry",
          "name": "forwarderRegistry",
          "type": "address"
        }
      ],
      "stateMutability": "nonpayable",
      "type": "constructor"
    },
    {
      "anonymous": false,
      "inputs": [
        {
          "indexed": true,
          "internalType": "address",
          "name": "owner",
          "type": "address"
        },
        {
          "indexed": true,
          "internalType": "address",
          "name": "spender",
          "type": "address"
        },
        {
          "indexed": false,
          "internalType": "uint256",
          "name": "value",
          "type": "uint256"
        }
      ],
      "name": "Approval",
      "type": "event"
    },
    {
      "anonymous": false,
      "inputs": [
        {
          "indexed": true,
          "internalType": "address",
          "name": "previousOwner",
          "type": "address"
        },
        {
          "indexed": true,
          "internalType": "address",
          "name": "newOwner",
          "type": "address"
        }
      ],
      "name": "OwnershipTransferred",
      "type": "event"
    },
    {
      "anonymous": false,
      "inputs": [
        {
          "indexed": true,
          "internalType": "address",
          "name": "from",
          "type": "address"
        },
        {
          "indexed": true,
          "internalType": "address",
          "name": "to",
          "type": "address"
        },
        {
          "indexed": false,
          "internalType": "uint256",
          "name": "value",
          "type": "uint256"
        }
      ],
      "name": "Transfer",
      "type": "event"
    },
    {
      "inputs": [],
      "name": "DOMAIN_SEPARATOR",
      "outputs": [
        {
          "internalType": "bytes32",
          "name": "",
          "type": "bytes32"
        }
      ],
      "stateMutability": "view",
      "type": "function"
    },
    {
      "inputs": [
        {
          "internalType": "address",
          "name": "owner",
          "type": "address"
        },
        {
          "internalType": "address",
          "name": "spender",
          "type": "address"
        }
      ],
      "name": "allowance",
      "outputs": [
        {
          "internalType": "uint256",
          "name": "value",
          "type": "uint256"
        }
      ],
      "stateMutability": "view",
      "type": "function"
    },
    {
      "inputs": [
        {
          "internalType": "address",
          "name": "spender",
          "type": "address"
        },
        {
          "internalType": "uint256",
          "name": "value",
          "type": "uint256"
        }
      ],
      "name": "approve",
      "outputs": [
        {
          "internalType": "bool",
          "name": "result",
          "type": "bool"
        }
      ],
      "stateMutability": "nonpayable",
      "type": "function"
    },
    {
      "inputs": [
        {
          "internalType": "address",
          "name": "owner",
          "type": "address"
        }
      ],
      "name": "balanceOf",
      "outputs": [
        {
          "internalType": "uint256",
          "name": "balance",
          "type": "uint256"
        }
      ],
      "stateMutability": "view",
      "type": "function"
    },
    {
      "inputs": [
        {
          "internalType": "address[]",
          "name": "recipients",
          "type": "address[]"
        },
        {
          "internalType": "uint256[]",
          "name": "values",
          "type": "uint256[]"
        }
      ],
      "name": "batchTransfer",
      "outputs": [
        {
          "internalType": "bool",
          "name": "",
          "type": "bool"
        }
      ],
      "stateMutability": "nonpayable",
      "type": "function"
    },
    {
      "inputs": [
        {
          "internalType": "address",
          "name": "from",
          "type": "address"
        },
        {
          "internalType": "address[]",
          "name": "recipients",
          "type": "address[]"
        },
        {
          "internalType": "uint256[]",
          "name": "values",
          "type": "uint256[]"
        }
      ],
      "name": "batchTransferFrom",
      "outputs": [
        {
          "internalType": "bool",
          "name": "",
          "type": "bool"
        }
      ],
      "stateMutability": "nonpayable",
      "type": "function"
    },
    {
      "inputs": [],
      "name": "decimals",
      "outputs": [
        {
          "internalType": "uint8",
          "name": "",
          "type": "uint8"
        }
      ],
      "stateMutability": "view",
      "type": "function"
    },
    {
      "inputs": [
        {
          "internalType": "address",
          "name": "spender",
          "type": "address"
        },
        {
          "internalType": "uint256",
          "name": "subtractedValue",
          "type": "uint256"
        }
      ],
      "name": "decreaseAllowance",
      "outputs": [
        {
          "internalType": "bool",
          "name": "result",
          "type": "bool"
        }
      ],
      "stateMutability": "nonpayable",
      "type": "function"
    },
    {
      "inputs": [],
      "name": "forwarderRegistry",
      "outputs": [
        {
          "internalType": "contract IForwarderRegistry",
          "name": "",
          "type": "address"
        }
      ],
      "stateMutability": "view",
      "type": "function"
    },
    {
      "inputs": [
        {
          "internalType": "address",
          "name": "spender",
          "type": "address"
        },
        {
          "internalType": "uint256",
          "name": "addedValue",
          "type": "uint256"
        }
      ],
      "name": "increaseAllowance",
      "outputs": [
        {
          "internalType": "bool",
          "name": "result",
          "type": "bool"
        }
      ],
      "stateMutability": "nonpayable",
      "type": "function"
    },
    {
      "inputs": [
        {
          "internalType": "address",
          "name": "forwarder",
          "type": "address"
        }
      ],
      "name": "isTrustedForwarder",
      "outputs": [
        {
          "internalType": "bool",
          "name": "",
          "type": "bool"
        }
      ],
      "stateMutability": "view",
      "type": "function"
    },
    {
      "inputs": [],
      "name": "name",
      "outputs": [
        {
          "internalType": "string",
          "name": "",
          "type": "string"
        }
      ],
      "stateMutability": "view",
      "type": "function"
    },
    {
      "inputs": [
        {
          "internalType": "address",
          "name": "owner",
          "type": "address"
        }
      ],
      "name": "nonces",
      "outputs": [
        {
          "internalType": "uint256",
          "name": "",
          "type": "uint256"
        }
      ],
      "stateMutability": "view",
      "type": "function"
    },
    {
      "inputs": [],
      "name": "owner",
      "outputs": [
        {
          "internalType": "address",
          "name": "",
          "type": "address"
        }
      ],
      "stateMutability": "view",
      "type": "function"
    },
    {
      "inputs": [
        {
          "internalType": "address",
          "name": "owner",
          "type": "address"
        },
        {
          "internalType": "address",
          "name": "spender",
          "type": "address"
        },
        {
          "internalType": "uint256",
          "name": "value",
          "type": "uint256"
        },
        {
          "internalType": "uint256",
          "name": "deadline",
          "type": "uint256"
        },
        {
          "internalType": "uint8",
          "name": "v",
          "type": "uint8"
        },
        {
          "internalType": "bytes32",
          "name": "r",
          "type": "bytes32"
        },
        {
          "internalType": "bytes32",
          "name": "s",
          "type": "bytes32"
        }
      ],
      "name": "permit",
      "outputs": [],
      "stateMutability": "nonpayable",
      "type": "function"
    },
    {
      "inputs": [
        {
          "internalType": "address[]",
          "name": "accounts",
          "type": "address[]"
        },
        {
          "internalType": "contract IERC20[]",
          "name": "tokens",
          "type": "address[]"
        },
        {
          "internalType": "uint256[]",
          "name": "amounts",
          "type": "uint256[]"
        }
      ],
      "name": "recoverERC20s",
      "outputs": [],
      "stateMutability": "nonpayable",
      "type": "function"
    },
    {
      "inputs": [
        {
          "internalType": "address[]",
          "name": "accounts",
          "type": "address[]"
        },
        {
          "internalType": "contract IERC721[]",
          "name": "contracts",
          "type": "address[]"
        },
        {
          "internalType": "uint256[]",
          "name": "tokenIds",
          "type": "uint256[]"
        }
      ],
      "name": "recoverERC721s",
      "outputs": [],
      "stateMutability": "nonpayable",
      "type": "function"
    },
    {
      "inputs": [
        {
          "internalType": "address payable[]",
          "name": "accounts",
          "type": "address[]"
        },
        {
          "internalType": "uint256[]",
          "name": "amounts",
          "type": "uint256[]"
        }
      ],
      "name": "recoverETH",
      "outputs": [],
      "stateMutability": "nonpayable",
      "type": "function"
    },
    {
      "inputs": [
        {
          "internalType": "address",
          "name": "to",
          "type": "address"
        },
        {
          "internalType": "uint256",
          "name": "value",
          "type": "uint256"
        },
        {
          "internalType": "bytes",
          "name": "data",
          "type": "bytes"
        }
      ],
      "name": "safeTransfer",
      "outputs": [
        {
          "internalType": "bool",
          "name": "",
          "type": "bool"
        }
      ],
      "stateMutability": "nonpayable",
      "type": "function"
    },
    {
      "inputs": [
        {
          "internalType": "address",
          "name": "from",
          "type": "address"
        },
        {
          "internalType": "address",
          "name": "to",
          "type": "address"
        },
        {
          "internalType": "uint256",
          "name": "value",
          "type": "uint256"
        },
        {
          "internalType": "bytes",
          "name": "data",
          "type": "bytes"
        }
      ],
      "name": "safeTransferFrom",
      "outputs": [
        {
          "internalType": "bool",
          "name": "",
          "type": "bool"
        }
      ],
      "stateMutability": "nonpayable",
      "type": "function"
    },
    {
      "inputs": [
        {
          "internalType": "string",
          "name": "uri",
          "type": "string"
        }
      ],
      "name": "setTokenURI",
      "outputs": [],
      "stateMutability": "nonpayable",
      "type": "function"
    },
    {
      "inputs": [
        {
          "internalType": "bytes4",
          "name": "interfaceId",
          "type": "bytes4"
        }
      ],
      "name": "supportsInterface",
      "outputs": [
        {
          "internalType": "bool",
          "name": "",
          "type": "bool"
        }
      ],
      "stateMutability": "view",
      "type": "function"
    },
    {
      "inputs": [],
      "name": "symbol",
      "outputs": [
        {
          "internalType": "string",
          "name": "",
          "type": "string"
        }
      ],
      "stateMutability": "view",
      "type": "function"
    },
    {
      "inputs": [],
      "name": "tokenURI",
      "outputs": [
        {
          "internalType": "string",
          "name": "",
          "type": "string"
        }
      ],
      "stateMutability": "view",
      "type": "function"
    },
    {
      "inputs": [],
      "name": "totalSupply",
      "outputs": [
        {
          "internalType": "uint256",
          "name": "supply",
          "type": "uint256"
        }
      ],
      "stateMutability": "view",
      "type": "function"
    },
    {
      "inputs": [
        {
          "internalType": "address",
          "name": "to",
          "type": "address"
        },
        {
          "internalType": "uint256",
          "name": "value",
          "type": "uint256"
        }
      ],
      "name": "transfer",
      "outputs": [
        {
          "internalType": "bool",
          "name": "result",
          "type": "bool"
        }
      ],
      "stateMutability": "nonpayable",
      "type": "function"
    },
    {
      "inputs": [
        {
          "internalType": "address",
          "name": "from",
          "type": "address"
        },
        {
          "internalType": "address",
          "name": "to",
          "type": "address"
        },
        {
          "internalType": "uint256",
          "name": "value",
          "type": "uint256"
        }
      ],
      "name": "transferFrom",
      "outputs": [
        {
          "internalType": "bool",
          "name": "result",
          "type": "bool"
        }
      ],
      "stateMutability": "nonpayable",
      "type": "function"
    },
    {
      "inputs": [
        {
          "internalType": "address",
          "name": "newOwner",
          "type": "address"
        }
      ],
      "name": "transferOwnership",
      "outputs": [],
      "stateMutability": "nonpayable",
      "type": "function"
    }
  ],
  "bytecode": "0x60a06040523480156200001157600080fd5b5060405162003c1138038062003c118339810160408190526200003491620007f8565b80803388888862000044620000d7565b6200005e8383836200005562000112565b92919062000148565b5050506200007d81620000766200019e60201b60201c565b90620001ce565b506200008862000241565b620000926200025b565b6200009c62000273565b620000a66200028b565b6001600160a01b031660805250620000cb8383620000c3620002a3565b9190620002d3565b50505050505062000a68565b6000620000e362000525565b9050620000fa816336372b0760e01b600162000555565b6200010f81634e83a8c360e11b600162000555565b50565b6000806200014260017f335df4119bbb04f056b33eba33b826d3529129e458faf6daa9924b5a8f3b6a82620008d5565b92915050565b8362000155848262000986565b506001840162000166838262000986565b5060028401805460ff191660ff83161790556200019863a219a02560e01b60016200019062000525565b919062000555565b50505050565b6000806200014260017fc9ed16f33ab3a66c84bfd83099ccb2a8845871e2e1c1928f63797152f0fd54cd620008d5565b6001600160a01b03811615620002255781546001600160a01b0319166001600160a01b03821690811783556040516000907f8be0079c531659141344cd1fd0a4f28419497f9722a3daafe3b4186f6b6457e0908290a35b6200023d6307f5828d60e41b60016200019062000525565b5050565b620002596303c130d960e41b60016200019062000525565b565b62000259634ec7fbed60e11b60016200019062000525565b620002596353f41a9760e01b60016200019062000525565b6200025963602993f360e11b60016200019062000525565b6000806200014260017f1da92899d3da68bf9787824388a37ea2bfa79780bcef91b9716c390eec8ecbef620008d5565b8151815181146200032b5760405162461bcd60e51b815260206004820152601a60248201527f45524332303a20696e636f6e73697374656e742061727261797300000000000060448201526064015b60405180910390fd5b806000036200033a5750505050565b6000805b828114620004b65760008582815181106200035d576200035d62000a52565b6020026020010151905060006001600160a01b0316816001600160a01b031603620003cb5760405162461bcd60e51b815260206004820152601960248201527f45524332303a206d696e7420746f206164647265737328302900000000000000604482015260640162000322565b6000858381518110620003e257620003e262000a52565b60200260200101519050806000146200046a57838101848111620004495760405162461bcd60e51b815260206004820152601660248201527f45524332303a2076616c756573206f766572666c6f7700000000000000000000604482015260640162000322565b6001600160a01b038316600090815260208a90526040902080548301905593505b6040518181526001600160a01b038316906000907fddf252ad1be2c89b69c2b068fc378daa952ba7f163c4a11628f55a4df523b3ef9060200160405180910390a350506001016200033e565b5080156200051e576002850154818101818111620005175760405162461bcd60e51b815260206004820152601660248201527f45524332303a20737570706c79206f766572666c6f7700000000000000000000604482015260640162000322565b6002870155505b5050505050565b6000806200014260017fca9d3e17f264b0f3984e2634e94adb37fa3e6a8103f06aeae6fa59e21c769f5e620008d5565b600160e01b6001600160e01b0319831601620005b45760405162461bcd60e51b815260206004820152601f60248201527f496e74657266616365446574656374696f6e3a2077726f6e672076616c756500604482015260640162000322565b6001600160e01b03199190911660009081526020929092526040909120805460ff1916911515919091179055565b634e487b7160e01b600052604160045260246000fd5b604051601f8201601f191681016001600160401b0381118282101715620006235762000623620005e2565b604052919050565b600082601f8301126200063d57600080fd5b81516001600160401b03811115620006595762000659620005e2565b60206200066f601f8301601f19168201620005f8565b82815285828487010111156200068457600080fd5b60005b83811015620006a457858101830151828201840152820162000687565b506000928101909101919091529392505050565b805160ff81168114620006ca57600080fd5b919050565b60006001600160401b03821115620006eb57620006eb620005e2565b5060051b60200190565b6001600160a01b03811681146200010f57600080fd5b600082601f8301126200071d57600080fd5b81516020620007366200073083620006cf565b620005f8565b82815260059290921b840181019181810190868411156200075657600080fd5b8286015b848110156200077e5780516200077081620006f5565b83529183019183016200075a565b509695505050505050565b600082601f8301126200079b57600080fd5b81516020620007ae6200073083620006cf565b82815260059290921b84018101918181019086841115620007ce57600080fd5b8286015b848110156200077e5780518352918301918301620007d2565b8051620006ca81620006f5565b60008060008060008060c087890312156200081257600080fd5b86516001600160401b03808211156200082a57600080fd5b620008388a838b016200062b565b975060208901519150808211156200084f57600080fd5b6200085d8a838b016200062b565b96506200086d60408a01620006b8565b955060608901519150808211156200088457600080fd5b620008928a838b016200070b565b94506080890151915080821115620008a957600080fd5b50620008b889828a0162000789565b925050620008c960a08801620007eb565b90509295509295509295565b818103818111156200014257634e487b7160e01b600052601160045260246000fd5b600181811c908216806200090c57607f821691505b6020821081036200092d57634e487b7160e01b600052602260045260246000fd5b50919050565b601f8211156200098157600081815260208120601f850160051c810160208610156200095c5750805b601f850160051c820191505b818110156200097d5782815560010162000968565b5050505b505050565b81516001600160401b03811115620009a257620009a2620005e2565b620009ba81620009b38454620008f7565b8462000933565b602080601f831160018114620009f25760008415620009d95750858301515b600019600386901b1c1916600185901b1785556200097d565b600085815260208120601f198616915b8281101562000a235788860151825594840194600190910190840162000a02565b508582101562000a425787850151600019600388901b60f8161c191681555b5050505050600190811b01905550565b634e487b7160e01b600052603260045260246000fd5b60805161317862000a9960003960008181610244015281816102e90152818161247601526124fe01526131786000f3fe608060405234801561001057600080fd5b50600436106101c45760003560e01c80637ecebe00116100f9578063c3666c3611610097578063e0df5b6f11610071578063e0df5b6f146103f6578063eb79554914610409578063f2fde38b1461041c578063f7ba94bd1461042f57600080fd5b8063c3666c36146103bd578063d505accf146103d0578063dd62ed3e146103e357600080fd5b806395d89b41116100d357806395d89b411461037c578063a457c2d714610384578063a9059cbb14610397578063b88d4fde146103aa57600080fd5b80637ecebe001461034e57806388d695b2146103615780638da5cb5b1461037457600080fd5b80633644e515116101665780634885b254116101405780634885b254146102c6578063572b6c05146102d957806370a082311461032657806373c8a9581461033957600080fd5b80633644e515146102a357806339509351146102ab5780633c130d90146102be57600080fd5b806318160ddd116101a257806318160ddd1461021957806323b872dd1461022f5780632b4c9f1614610242578063313ce5671461028957600080fd5b806301ffc9a7146101c957806306fdde03146101f1578063095ea7b314610206575b600080fd5b6101dc6101d736600461294e565b610442565b60405190151581526020015b60405180910390f35b6101f961045c565b6040516101e891906129d9565b6101dc610214366004612a0e565b610473565b61022161049b565b6040519081526020016101e8565b6101dc61023d366004612a3a565b6104af565b7f00000000000000000000000000000000000000000000000000000000000000005b60405173ffffffffffffffffffffffffffffffffffffffff90911681526020016101e8565b6102916104da565b60405160ff90911681526020016101e8565b6102216104f1565b6101dc6102b9366004612a0e565b6104fb565b6101f961051a565b6101dc6102d4366004612ac7565b610527565b6101dc6102e7366004612b4a565b7f000000000000000000000000000000000000000000000000000000000000000073ffffffffffffffffffffffffffffffffffffffff90811691161490565b610221610334366004612b4a565b610558565b61034c610347366004612b67565b610590565b005b61022161035c366004612b4a565b6106c6565b6101dc61036f366004612c01565b6106d4565b610264610703565b6101f961072a565b6101dc610392366004612a0e565b61073c565b6101dc6103a5366004612a0e565b61075b565b6101dc6103b8366004612caf565b61077a565b61034c6103cb366004612b67565b61079f565b61034c6103de366004612d11565b610944565b6102216103f1366004612d88565b61096b565b61034c610404366004612dc1565b6109bd565b6101dc610417366004612e03565b6109e0565b61034c61042a366004612b4a565b610a03565b61034c61043d366004612c01565b610a21565b600061045682610450610b0f565b90610b3d565b92915050565b606061046e610469610c17565b610c45565b905090565b6000610492610480610cdb565b848461048a610ce5565b929190610d13565b50600192915050565b600061046e6104a8610ce5565b6002015490565b60006104d06104bc610cdb565b8585856104c7610ce5565b93929190610e02565b5060019392505050565b600061046e6104e7610c17565b6002015460ff1690565b600061046e610e54565b6000610492610508610cdb565b8484610512610ce5565b929190610eef565b606061046e6104696110bb565b600061054c610534610cdb565b8787878787610541610ce5565b9594939291906110e9565b50600195945050505050565b600061045682610566610ce5565b9073ffffffffffffffffffffffffffffffffffffffff166000908152602091909152604090205490565b6105a961059b610cdb565b6105a361152f565b9061155d565b8483811480156105b857508082145b610623576040517f08c379a000000000000000000000000000000000000000000000000000000000815260206004820152601d60248201527f5265636f766572793a20696e636f6e73697374656e742061727261797300000060448201526064015b60405180910390fd5b60005b8181146106bc576106b488888381811061064257610642612e53565b90506020020160208101906106579190612b4a565b85858481811061066957610669612e53565b9050602002013588888581811061068257610682612e53565b90506020020160208101906106979190612b4a565b73ffffffffffffffffffffffffffffffffffffffff1691906115e0565b600101610626565b5050505050505050565b600061045682610566611672565b60006106f76106e1610cdb565b868686866106ed610ce5565b94939291906116a0565b5060015b949350505050565b600061046e61071061152f565b5473ffffffffffffffffffffffffffffffffffffffff1690565b606061046e610737610c17565b611a82565b6000610492610749610cdb565b8484610753610ce5565b929190611a93565b6000610492610768610cdb565b8484610772610ce5565b929190611be5565b600061054c610787610cdb565b8787878787610794610ce5565b959493929190611dc6565b6107aa61059b610cdb565b8483811480156107b957508082145b61081f576040517f08c379a000000000000000000000000000000000000000000000000000000000815260206004820152601d60248201527f5265636f766572793a20696e636f6e73697374656e7420617272617973000000604482015260640161061a565b60005b8181146106bc5785858281811061083b5761083b612e53565b90506020020160208101906108509190612b4a565b73ffffffffffffffffffffffffffffffffffffffff166323b872dd308a8a8581811061087e5761087e612e53565b90506020020160208101906108939190612b4a565b8787868181106108a5576108a5612e53565b6040517fffffffff0000000000000000000000000000000000000000000000000000000060e088901b16815273ffffffffffffffffffffffffffffffffffffffff958616600482015294909316602485015250602090910201356044820152606401600060405180830381600087803b15801561092157600080fd5b505af1158015610935573d6000803e3d6000fd5b50505050806001019050610822565b61096287878787878787610956611672565b96959493929190611e33565b50505050505050565b60006109b6838361097a610ce5565b919073ffffffffffffffffffffffffffffffffffffffff9182166000908152600193909301602090815260408085209290931684525290205490565b9392505050565b6109c861059b610cdb565b6109dc82826109d56110bb565b919061212f565b5050565b60006106f76109ed610cdb565b868686866109f9610ce5565b9493929190612141565b610a1e610a0e610cdb565b82610a1761152f565b91906121ad565b50565b610a2c61059b610cdb565b82818114610a96576040517f08c379a000000000000000000000000000000000000000000000000000000000815260206004820152601d60248201527f5265636f766572793a20696e636f6e73697374656e7420617272617973000000604482015260640161061a565b60005b818114610b0757610aff848483818110610ab557610ab5612e53565b90506020020135878784818110610ace57610ace612e53565b9050602002016020810190610ae39190612b4a565b73ffffffffffffffffffffffffffffffffffffffff16906122d9565b600101610a99565b505050505050565b60008061045660017fca9d3e17f264b0f3984e2634e94adb37fa3e6a8103f06aeae6fa59e21c769f5e612e82565b60007c01000000000000000000000000000000000000000000000000000000007fffffffff00000000000000000000000000000000000000000000000000000000831601610b8d57506000610456565b7ffe003659000000000000000000000000000000000000000000000000000000007fffffffff00000000000000000000000000000000000000000000000000000000831601610bde57506001610456565b507fffffffff00000000000000000000000000000000000000000000000000000000166000908152602091909152604090205460ff1690565b60008061045660017f335df4119bbb04f056b33eba33b826d3529129e458faf6daa9924b5a8f3b6a82612e82565b6060816000018054610c5690612ebc565b80601f0160208091040260200160405190810160405280929190818152602001828054610c8290612ebc565b8015610ccf5780601f10610ca457610100808354040283529160200191610ccf565b820191906000526020600020905b815481529060010190602001808311610cb257829003601f168201915b50505050509050919050565b600061046e612433565b60008061045660017f1da92899d3da68bf9787824388a37ea2bfa79780bcef91b9716c390eec8ecbef612e82565b73ffffffffffffffffffffffffffffffffffffffff8216610d90576040517f08c379a000000000000000000000000000000000000000000000000000000000815260206004820152601d60248201527f45524332303a20617070726f76616c20746f2061646472657373283029000000604482015260640161061a565b73ffffffffffffffffffffffffffffffffffffffff838116600081815260018701602090815260408083209487168084529482529182902085905590518481527f8c5be1e5ebec7d5bd14f71427d1e84f3dd0314c0f7b2291e5b200ac8c7c3b92591015b60405180910390a350505050565b8373ffffffffffffffffffffffffffffffffffffffff168373ffffffffffffffffffffffffffffffffffffffff1614610e4157610e4185848684611a93565b610e4d85848484611be5565b5050505050565b6000467f8b73c3c69bb8fe3d512ecc4cf759cc79239f7b179b0ffacaa9a75d522b39400f610e83610469610c17565b80516020918201206040805192830193909352918101919091527fc89efdaa54c0f20c7adf612882df0950f5a951637e0307cdcb4c672f298b8bc66060820152608081018290523060a082015260c0016040516020818303038152906040528051906020012091505090565b73ffffffffffffffffffffffffffffffffffffffff8216610f6c576040517f08c379a000000000000000000000000000000000000000000000000000000000815260206004820152601d60248201527f45524332303a20617070726f76616c20746f2061646472657373283029000000604482015260640161061a565b73ffffffffffffffffffffffffffffffffffffffff8084166000908152600186016020908152604080832093861683529290522054811561104d57808201818111611013576040517f08c379a000000000000000000000000000000000000000000000000000000000815260206004820152601960248201527f45524332303a20616c6c6f77616e6365206f766572666c6f7700000000000000604482015260640161061a565b73ffffffffffffffffffffffffffffffffffffffff8086166000908152600188016020908152604080832093881683529290522081905590505b8273ffffffffffffffffffffffffffffffffffffffff168473ffffffffffffffffffffffffffffffffffffffff167f8c5be1e5ebec7d5bd14f71427d1e84f3dd0314c0f7b2291e5b200ac8c7c3b925836040516110ac91815260200190565b60405180910390a35050505050565b60008061045660017ff41bf6a5db26bffdfab174dcf66b31fbba8fdb7e3db040721ce1e62d61839ceb612e82565b82818114611153576040517f08c379a000000000000000000000000000000000000000000000000000000000815260206004820152601a60248201527f45524332303a20696e636f6e73697374656e7420617272617973000000000000604482015260640161061a565b806000036111615750610962565b73ffffffffffffffffffffffffffffffffffffffff86166000908152602089905260408120549080805b8481146114375760008989838181106111a6576111a6612e53565b90506020020160208101906111bb9190612b4a565b905073ffffffffffffffffffffffffffffffffffffffff811661123a576040517f08c379a000000000000000000000000000000000000000000000000000000000815260206004820152601d60248201527f45524332303a207472616e7366657220746f2061646472657373283029000000604482015260640161061a565b600088888481811061124e5761124e612e53565b905060200201359050806000146113c6578481018581116112cb576040517f08c379a000000000000000000000000000000000000000000000000000000000815260206004820152601660248201527f45524332303a2076616c756573206f766572666c6f7700000000000000000000604482015260640161061a565b8095508273ffffffffffffffffffffffffffffffffffffffff168d73ffffffffffffffffffffffffffffffffffffffff161461135557818f60000160008573ffffffffffffffffffffffffffffffffffffffff1673ffffffffffffffffffffffffffffffffffffffff168152602001908152602001600020600082825401925050819055506113c4565b868211156113bf576040517f08c379a000000000000000000000000000000000000000000000000000000000815260206004820152601b60248201527f45524332303a20696e73756666696369656e742062616c616e63650000000000604482015260640161061a565b938101935b505b8173ffffffffffffffffffffffffffffffffffffffff168c73ffffffffffffffffffffffffffffffffffffffff167fddf252ad1be2c89b69c2b068fc378daa952ba7f163c4a11628f55a4df523b3ef8360405161142591815260200190565b60405180910390a3505060010161118b565b5081158015906114475750808214155b156114e3578183038381106114b8576040517f08c379a000000000000000000000000000000000000000000000000000000000815260206004820152601b60248201527f45524332303a20696e73756666696369656e742062616c616e63650000000000604482015260640161061a565b73ffffffffffffffffffffffffffffffffffffffff8a16600090815260208d90526040902090820190555b8973ffffffffffffffffffffffffffffffffffffffff168973ffffffffffffffffffffffffffffffffffffffff1614611522576115228b8a8c85611a93565b5050505050505050505050565b60008061045660017fc9ed16f33ab3a66c84bfd83099ccb2a8845871e2e1c1928f63797152f0fd54cd612e82565b815473ffffffffffffffffffffffffffffffffffffffff8281169116146109dc576040517f08c379a000000000000000000000000000000000000000000000000000000000815260206004820152601860248201527f4f776e6572736869703a206e6f7420746865206f776e65720000000000000000604482015260640161061a565b6040805173ffffffffffffffffffffffffffffffffffffffff8416602482015260448082018490528251808303909101815260649091019091526020810180517bffffffffffffffffffffffffffffffffffffffffffffffffffffffff167fa9059cbb0000000000000000000000000000000000000000000000000000000017905261166d90849061257a565b505050565b60008061045660017f93fe0ff7226b064a4a8f0b09910762afb4bc2441835792c021ffd78cd513011e612e82565b8281811461170a576040517f08c379a000000000000000000000000000000000000000000000000000000000815260206004820152601a60248201527f45524332303a20696e636f6e73697374656e7420617272617973000000000000604482015260640161061a565b806000036117185750610b07565b73ffffffffffffffffffffffffffffffffffffffff86166000908152602088905260408120549080805b8481146119ca57600089898381811061175d5761175d612e53565b90506020020160208101906117729190612b4a565b905073ffffffffffffffffffffffffffffffffffffffff81166117f1576040517f08c379a000000000000000000000000000000000000000000000000000000000815260206004820152601d60248201527f45524332303a207472616e7366657220746f2061646472657373283029000000604482015260640161061a565b600088888481811061180557611805612e53565b9050602002013590508060001461195957848101858111611882576040517f08c379a000000000000000000000000000000000000000000000000000000000815260206004820152601660248201527f45524332303a2076616c756573206f766572666c6f7700000000000000000000604482015260640161061a565b8095508273ffffffffffffffffffffffffffffffffffffffff168d73ffffffffffffffffffffffffffffffffffffffff16146118e85773ffffffffffffffffffffffffffffffffffffffff8316600090815260208f905260409020805483019055611957565b86821115611952576040517f08c379a000000000000000000000000000000000000000000000000000000000815260206004820152601b60248201527f45524332303a20696e73756666696369656e742062616c616e63650000000000604482015260640161061a565b938101935b505b8173ffffffffffffffffffffffffffffffffffffffff168c73ffffffffffffffffffffffffffffffffffffffff167fddf252ad1be2c89b69c2b068fc378daa952ba7f163c4a11628f55a4df523b3ef836040516119b891815260200190565b60405180910390a35050600101611742565b5081158015906119da5750808214155b15611a7657818303838110611a4b576040517f08c379a000000000000000000000000000000000000000000000000000000000815260206004820152601b60248201527f45524332303a20696e73756666696369656e742062616c616e63650000000000604482015260640161061a565b73ffffffffffffffffffffffffffffffffffffffff8a16600090815260208c90526040902090820190555b50505050505050505050565b6060816001018054610c5690612ebc565b73ffffffffffffffffffffffffffffffffffffffff8216611b10576040517f08c379a000000000000000000000000000000000000000000000000000000000815260206004820152601d60248201527f45524332303a20617070726f76616c20746f2061646472657373283029000000604482015260640161061a565b73ffffffffffffffffffffffffffffffffffffffff80841660009081526001860160209081526040808320938616835292905220547fffffffffffffffffffffffffffffffffffffffffffffffffffffffffffffffff8114801590611b7457508115155b1561104d57818103818110611013576040517f08c379a000000000000000000000000000000000000000000000000000000000815260206004820152601d60248201527f45524332303a20696e73756666696369656e7420616c6c6f77616e6365000000604482015260640161061a565b73ffffffffffffffffffffffffffffffffffffffff8216611c62576040517f08c379a000000000000000000000000000000000000000000000000000000000815260206004820152601d60248201527f45524332303a207472616e7366657220746f2061646472657373283029000000604482015260640161061a565b8015611d675773ffffffffffffffffffffffffffffffffffffffff8316600090815260208590526040902054818103818110611cfa576040517f08c379a000000000000000000000000000000000000000000000000000000000815260206004820152601b60248201527f45524332303a20696e73756666696369656e742062616c616e63650000000000604482015260640161061a565b8373ffffffffffffffffffffffffffffffffffffffff168573ffffffffffffffffffffffffffffffffffffffff1614611d645773ffffffffffffffffffffffffffffffffffffffff8086166000908152602088905260408082208490559186168152208054840190555b50505b8173ffffffffffffffffffffffffffffffffffffffff168373ffffffffffffffffffffffffffffffffffffffff167fddf252ad1be2c89b69c2b068fc378daa952ba7f163c4a11628f55a4df523b3ef83604051610df491815260200190565b611dd38787878787610e02565b73ffffffffffffffffffffffffffffffffffffffff84163b15610962576109628686868686868080601f01602080910402602001604051908101604052809392919081815260200183838082843760009201919091525061268992505050565b73ffffffffffffffffffffffffffffffffffffffff8716611eb0576040517f08c379a000000000000000000000000000000000000000000000000000000000815260206004820152601d60248201527f45524332303a207065726d69742066726f6d2061646472657373283029000000604482015260640161061a565b83421115611f1a576040517f08c379a000000000000000000000000000000000000000000000000000000000815260206004820152601560248201527f45524332303a2065787069726564207065726d69740000000000000000000000604482015260640161061a565b73ffffffffffffffffffffffffffffffffffffffff878116600081815260208b8152604080832080546001810190915581517f6e71edae12b1b97f4d1f60370fef10105fa2faae0126114a169c64845d6126c98185015280830195909552948b166060850152608084018a905260a084019490945260c08084018990528451808503909101815260e09093019093528151919092012090611fb9610e54565b6040517f19010000000000000000000000000000000000000000000000000000000000006020820152602281019190915260428101839052606201604080517fffffffffffffffffffffffffffffffffffffffffffffffffffffffffffffffe08184030181528282528051602091820120600080855291840180845281905260ff89169284019290925260608301879052608083018690529092509060019060a0016020604051602081039080840390855afa15801561207d573d6000803e3d6000fd5b5050506020604051035190508973ffffffffffffffffffffffffffffffffffffffff168173ffffffffffffffffffffffffffffffffffffffff161461211e576040517f08c379a000000000000000000000000000000000000000000000000000000000815260206004820152601560248201527f45524332303a20696e76616c6964207065726d69740000000000000000000000604482015260640161061a565b5050506106bc87878761048a610ce5565b8261213b828483612f84565b50505050565b61214d86868686611be5565b73ffffffffffffffffffffffffffffffffffffffff84163b15610b0757610b078586868686868080601f01602080910402602001604051908101604052809392919081815260200183838082843760009201919091525061268992505050565b825473ffffffffffffffffffffffffffffffffffffffff9081169083168114612232576040517f08c379a000000000000000000000000000000000000000000000000000000000815260206004820152601860248201527f4f776e6572736869703a206e6f7420746865206f776e65720000000000000000604482015260640161061a565b8173ffffffffffffffffffffffffffffffffffffffff168173ffffffffffffffffffffffffffffffffffffffff161461213b5783547fffffffffffffffffffffffff00000000000000000000000000000000000000001673ffffffffffffffffffffffffffffffffffffffff8381169182178655604051908316907f8be0079c531659141344cd1fd0a4f28419497f9722a3daafe3b4186f6b6457e090600090a350505050565b80471015612343576040517f08c379a000000000000000000000000000000000000000000000000000000000815260206004820152601d60248201527f416464726573733a20696e73756666696369656e742062616c616e6365000000604482015260640161061a565b60008273ffffffffffffffffffffffffffffffffffffffff168260405160006040518083038185875af1925050503d806000811461239d576040519150601f19603f3d011682016040523d82523d6000602084013e6123a2565b606091505b505090508061166d576040517f08c379a000000000000000000000000000000000000000000000000000000000815260206004820152603a60248201527f416464726573733a20756e61626c6520746f2073656e642076616c75652c207260448201527f6563697069656e74206d61792068617665207265766572746564000000000000606482015260840161061a565b6000333214806124435750601836105b1561244d57503390565b7fffffffffffffffffffffffffffffffffffffffffffffffffffffffffffffffec36013560601c7f000000000000000000000000000000000000000000000000000000000000000073ffffffffffffffffffffffffffffffffffffffff1633148061256957506040517f8929a8ca00000000000000000000000000000000000000000000000000000000815273ffffffffffffffffffffffffffffffffffffffff82811660048301523360248301527f00000000000000000000000000000000000000000000000000000000000000001690638929a8ca90604401602060405180830381865afa158015612545573d6000803e3d6000fd5b505050506040513d601f19601f82011682018060405250810190612569919061309e565b1561257357919050565b3391505090565b60006125dc826040518060400160405280602081526020017f5361666545524332303a206c6f772d6c6576656c2063616c6c206661696c65648152508573ffffffffffffffffffffffffffffffffffffffff166127af9092919063ffffffff16565b90508051600014806125fd5750808060200190518101906125fd919061309e565b61166d576040517f08c379a000000000000000000000000000000000000000000000000000000000815260206004820152602a60248201527f5361666545524332303a204552433230206f7065726174696f6e20646964206e60448201527f6f74207375636365656400000000000000000000000000000000000000000000606482015260840161061a565b6040517f4fc35859000000000000000000000000000000000000000000000000000000008082529073ffffffffffffffffffffffffffffffffffffffff851690634fc35859906126e39089908990889088906004016130c0565b6020604051808303816000875af1158015612702573d6000803e3d6000fd5b505050506040513d601f19601f820116820180604052508101906127269190613109565b7fffffffff000000000000000000000000000000000000000000000000000000001614610e4d576040517f08c379a000000000000000000000000000000000000000000000000000000000815260206004820152601d60248201527f45524332303a2073616665207472616e736665722072656a6563746564000000604482015260640161061a565b60606106fb8484600085856000808673ffffffffffffffffffffffffffffffffffffffff1685876040516127e39190613126565b60006040518083038185875af1925050503d8060008114612820576040519150601f19603f3d011682016040523d82523d6000602084013e612825565b606091505b509150915061283687838387612841565b979650505050505050565b606083156128d75782516000036128d05773ffffffffffffffffffffffffffffffffffffffff85163b6128d0576040517f08c379a000000000000000000000000000000000000000000000000000000000815260206004820152601d60248201527f416464726573733a2063616c6c20746f206e6f6e2d636f6e7472616374000000604482015260640161061a565b50816106fb565b6106fb83838151156128ec5781518083602001fd5b806040517f08c379a000000000000000000000000000000000000000000000000000000000815260040161061a91906129d9565b7fffffffff0000000000000000000000000000000000000000000000000000000081168114610a1e57600080fd5b60006020828403121561296057600080fd5b81356109b681612920565b60005b8381101561298657818101518382015260200161296e565b50506000910152565b600081518084526129a781602086016020860161296b565b601f017fffffffffffffffffffffffffffffffffffffffffffffffffffffffffffffffe0169290920160200192915050565b6020815260006109b6602083018461298f565b73ffffffffffffffffffffffffffffffffffffffff81168114610a1e57600080fd5b60008060408385031215612a2157600080fd5b8235612a2c816129ec565b946020939093013593505050565b600080600060608486031215612a4f57600080fd5b8335612a5a816129ec565b92506020840135612a6a816129ec565b929592945050506040919091013590565b60008083601f840112612a8d57600080fd5b50813567ffffffffffffffff811115612aa557600080fd5b6020830191508360208260051b8501011115612ac057600080fd5b9250929050565b600080600080600060608688031215612adf57600080fd5b8535612aea816129ec565b9450602086013567ffffffffffffffff80821115612b0757600080fd5b612b1389838a01612a7b565b90965094506040880135915080821115612b2c57600080fd5b50612b3988828901612a7b565b969995985093965092949392505050565b600060208284031215612b5c57600080fd5b81356109b6816129ec565b60008060008060008060608789031215612b8057600080fd5b863567ffffffffffffffff80821115612b9857600080fd5b612ba48a838b01612a7b565b90985096506020890135915080821115612bbd57600080fd5b612bc98a838b01612a7b565b90965094506040890135915080821115612be257600080fd5b50612bef89828a01612a7b565b979a9699509497509295939492505050565b60008060008060408587031215612c1757600080fd5b843567ffffffffffffffff80821115612c2f57600080fd5b612c3b88838901612a7b565b90965094506020870135915080821115612c5457600080fd5b50612c6187828801612a7b565b95989497509550505050565b60008083601f840112612c7f57600080fd5b50813567ffffffffffffffff811115612c9757600080fd5b602083019150836020828501011115612ac057600080fd5b600080600080600060808688031215612cc757600080fd5b8535612cd2816129ec565b94506020860135612ce2816129ec565b935060408601359250606086013567ffffffffffffffff811115612d0557600080fd5b612b3988828901612c6d565b600080600080600080600060e0888a031215612d2c57600080fd5b8735612d37816129ec565b96506020880135612d47816129ec565b95506040880135945060608801359350608088013560ff81168114612d6b57600080fd5b9699959850939692959460a0840135945060c09093013592915050565b60008060408385031215612d9b57600080fd5b8235612da6816129ec565b91506020830135612db6816129ec565b809150509250929050565b60008060208385031215612dd457600080fd5b823567ffffffffffffffff811115612deb57600080fd5b612df785828601612c6d565b90969095509350505050565b60008060008060608587031215612e1957600080fd5b8435612e24816129ec565b935060208501359250604085013567ffffffffffffffff811115612e4757600080fd5b612c6187828801612c6d565b7f4e487b7100000000000000000000000000000000000000000000000000000000600052603260045260246000fd5b81810381811115610456577f4e487b7100000000000000000000000000000000000000000000000000000000600052601160045260246000fd5b600181811c90821680612ed057607f821691505b602082108103612f09577f4e487b7100000000000000000000000000000000000000000000000000000000600052602260045260246000fd5b50919050565b7f4e487b7100000000000000000000000000000000000000000000000000000000600052604160045260246000fd5b601f82111561166d57600081815260208120601f850160051c81016020861015612f655750805b601f850160051c820191505b81811015610b0757828155600101612f71565b67ffffffffffffffff831115612f9c57612f9c612f0f565b612fb083612faa8354612ebc565b83612f3e565b6000601f8411600181146130025760008515612fcc5750838201355b7fffffffffffffffffffffffffffffffffffffffffffffffffffffffffffffffff600387901b1c1916600186901b178355610e4d565b6000838152602090207fffffffffffffffffffffffffffffffffffffffffffffffffffffffffffffffe0861690835b828110156130515786850135825560209485019460019092019101613031565b508682101561308c577fffffffffffffffffffffffffffffffffffffffffffffffffffffffffffffffff60f88860031b161c19848701351681555b505060018560011b0183555050505050565b6000602082840312156130b057600080fd5b815180151581146109b657600080fd5b600073ffffffffffffffffffffffffffffffffffffffff8087168352808616602084015250836040830152608060608301526130ff608083018461298f565b9695505050505050565b60006020828403121561311b57600080fd5b81516109b681612920565b6000825161313881846020870161296b565b919091019291505056fea264697066735822122058d1bef9eaf65c261c288f45af32120da4fb796e74baa7c020d72227f3baddec64736f6c63430008130033",
  "linkReferences": {},
  "deployedLinkReferences": {}
}