{
  "_format": "hh-sol-artifact-1",
  "contractName": "SealedDelegateCallFacet",
  "sourceName": "contracts/security/facets/SealedDelegateCallFacet.sol",
  "abi": [
    {
      "inputs": [
        {
          "internalType": "contract IForwarderRegistry",
          "name": "forwarderRegistry",
          "type": "address"
        }
      ],
      "stateMutability": "nonpayable",
      "type": "constructor"
    },
    {
      "anonymous": false,
      "inputs": [
        {
          "indexed": false,
          "internalType": "uint256",
          "name": "sealId",
          "type": "uint256"
        },
        {
          "indexed": false,
          "internalType": "address",
          "name": "sealer",
          "type": "address"
        }
      ],
      "name": "Sealed",
      "type": "event"
    },
    {
      "inputs": [],
      "name": "SEALER_ROLE",
      "outputs": [
        {
          "internalType": "bytes32",
          "name": "",
          "type": "bytes32"
        }
      ],
      "stateMutability": "view",
      "type": "function"
    },
    {
      "inputs": [
        {
          "internalType": "uint256",
          "name": "sealId",
          "type": "uint256"
        }
      ],
      "name": "isSealed",
      "outputs": [
        {
          "internalType": "bool",
          "name": "",
          "type": "bool"
        }
      ],
      "stateMutability": "view",
      "type": "function"
    },
    {
      "inputs": [
        {
          "internalType": "bytes",
          "name": "callData",
          "type": "bytes"
        },
        {
          "internalType": "uint256",
          "name": "sealId",
          "type": "uint256"
        }
      ],
      "name": "sealedDelegateCall",
      "outputs": [
        {
          "internalType": "bytes",
          "name": "returnData",
          "type": "bytes"
        }
      ],
      "stateMutability": "nonpayable",
      "type": "function"
    }
  ],
  "bytecode": "0x60a060405234801561001057600080fd5b50604051610b9d380380610b9d83398101604081905261002f91610040565b6001600160a01b0316608052610070565b60006020828403121561005257600080fd5b81516001600160a01b038116811461006957600080fd5b9392505050565b608051610b0b6100926000396000818161042101526104c10152610b0b6000f3fe608060405234801561001057600080fd5b50600436106100415760003560e01c80632c1758c114610046578063526c98111461006e578063f298cf36146100a3575b600080fd5b61005961005436600461084a565b6100c3565b60405190151581526020015b60405180910390f35b6100957f7365616c6572000000000000000000000000000000000000000000000000000081565b604051908152602001610065565b6100b66100b1366004610863565b6100ea565b6040516100659190610955565b60006100e4826100d161018d565b6000918252602052604090205460ff1690565b92915050565b606060006100f66101bb565b905061012c7f7365616c65720000000000000000000000000000000000000000000000000000826101256101ca565b91906101f8565b610140818461013961018d565b91906102b2565b61018285858080601f01602080910402602001604051908101604052809392919081815260200183838082843760009201919091525030939250506103c09050565b9150505b9392505050565b6000806100e460017f2a97c6c62f2f8616c552895c02acda791e96a0e77ad57580c7b74a08b219567c610968565b60006101c56103e5565b905090565b6000806100e460017fc8827d3282af6f37b64c3e9e6f3ac9df286ab0bb0fccd6f8661bf19adb368b23610968565b60008281526020848152604080832073ffffffffffffffffffffffffffffffffffffffff8516845290915290205460ff166102ad576102368261053d565b60405160200161024691906109a6565b604080517fffffffffffffffffffffffffffffffffffffffffffffffffffffffffffffffe0818403018152908290527f08c379a00000000000000000000000000000000000000000000000000000000082526102a491600401610955565b60405180910390fd5b505050565b60008181526020849052604090205460ff161561032b576040517f08c379a000000000000000000000000000000000000000000000000000000000815260206004820152600d60248201527f5365616c733a207365616c65640000000000000000000000000000000000000060448201526064016102a4565b6000818152602084905260409081902080547fffffffffffffffffffffffffffffffffffffffffffffffffffffffffffffff00166001179055517f4ede4a0b55ef0b366eeda846c0db70204e9f7205524b8c5f653085ca572b2577906103b3908390859091825273ffffffffffffffffffffffffffffffffffffffff16602082015260400190565b60405180910390a1505050565b60606101868383604051806060016040528060278152602001610aaf602791396106cf565b6000333281036103f457919050565b6000367fffffffffffffffffffffffffffffffffffffffffffffffffffffffffffffffec013560601c90507f000000000000000000000000000000000000000000000000000000000000000073ffffffffffffffffffffffffffffffffffffffff168273ffffffffffffffffffffffffffffffffffffffff16148061052c57506040517fe60125d600000000000000000000000000000000000000000000000000000000815273ffffffffffffffffffffffffffffffffffffffff828116600483015283811660248301527f0000000000000000000000000000000000000000000000000000000000000000169063e60125d690604401602060405180830381865afa158015610508573d6000803e3d6000fd5b505050506040513d601f19601f8201168201806040525081019061052c9190610a12565b156105375792915050565b50919050565b6060600082900361055c57505060408051602081019091526000815290565b60008260405160200161057191815260200190565b604080517fffffffffffffffffffffffffffffffffffffffffffffffffffffffffffffffe08184030181529190529050601f5b8181815181106105b6576105b6610a34565b01602001517fff000000000000000000000000000000000000000000000000000000000000001660000361060b577fffffffffffffffffffffffffffffffffffffffffffffffffffffffffffffffff016105a4565b60008160010167ffffffffffffffff81111561062957610629610a63565b6040519080825280601f01601f191660200182016040528015610653576020820181803683370190505b50905060005b8281116106c65783818151811061067257610672610a34565b602001015160f81c60f81b82828151811061068f5761068f610a34565b60200101907effffffffffffffffffffffffffffffffffffffffffffffffffffffffffffff1916908160001a905350600101610659565b50949350505050565b606073ffffffffffffffffffffffffffffffffffffffff84163b610775576040517f08c379a000000000000000000000000000000000000000000000000000000000815260206004820152602660248201527f416464726573733a2064656c65676174652063616c6c20746f206e6f6e2d636f60448201527f6e7472616374000000000000000000000000000000000000000000000000000060648201526084016102a4565b6000808573ffffffffffffffffffffffffffffffffffffffff168560405161079d9190610a92565b600060405180830381855af49150503d80600081146107d8576040519150601f19603f3d011682016040523d82523d6000602084013e6107dd565b606091505b50915091506107ed8282866107f7565b9695505050505050565b60608315610806575081610186565b8251156108165782518084602001fd5b816040517f08c379a00000000000000000000000000000000000000000000000000000000081526004016102a49190610955565b60006020828403121561085c57600080fd5b5035919050565b60008060006040848603121561087857600080fd5b833567ffffffffffffffff8082111561089057600080fd5b818601915086601f8301126108a457600080fd5b8135818111156108b357600080fd5b8760208285010111156108c557600080fd5b6020928301989097509590910135949350505050565b60005b838110156108f65781810151838201526020016108de565b83811115610905576000848401525b50505050565b600081518084526109238160208601602086016108db565b601f017fffffffffffffffffffffffffffffffffffffffffffffffffffffffffffffffe0169290920160200192915050565b602081526000610186602083018461090b565b6000828210156109a1577f4e487b7100000000000000000000000000000000000000000000000000000000600052601160045260246000fd5b500390565b7f416363657373436f6e74726f6c3a206d697373696e67202700000000000000008152600082516109de8160188501602087016108db565b7f2720726f6c6500000000000000000000000000000000000000000000000000006018939091019283015250601e01919050565b600060208284031215610a2457600080fd5b8151801515811461018657600080fd5b7f4e487b7100000000000000000000000000000000000000000000000000000000600052603260045260246000fd5b7f4e487b7100000000000000000000000000000000000000000000000000000000600052604160045260246000fd5b60008251610aa48184602087016108db565b919091019291505056fe416464726573733a206c6f772d6c6576656c2064656c65676174652063616c6c206661696c6564a2646970667358221220879f468d0efe9fed983b2fa2f9c3dd579148167a54cb641fb6d95c46f002e2d164736f6c634300080f0033",
  "linkReferences": {},
  "deployedLinkReferences": {}
}