{
  "_format": "hh-sol-artifact-1",
  "contractName": "ERC20MetadataFacetMock",
  "sourceName": "contracts/mocks/token/ERC20/ERC20MetadataFacetMock.sol",
  "abi": [
    {
      "inputs": [
        {
          "internalType": "contract IForwarderRegistry",
          "name": "forwarderRegistry",
          "type": "address"
        }
      ],
      "stateMutability": "nonpayable",
      "type": "constructor"
    },
    {
      "inputs": [],
      "name": "__msgData",
      "outputs": [
        {
          "internalType": "bytes",
          "name": "",
          "type": "bytes"
        }
      ],
      "stateMutability": "view",
      "type": "function"
    },
    {
      "inputs": [
        {
          "internalType": "string",
          "name": "uri",
          "type": "string"
        }
      ],
      "name": "initERC20MetadataStorage",
      "outputs": [],
      "stateMutability": "nonpayable",
      "type": "function"
    },
    {
      "inputs": [
        {
          "internalType": "string",
          "name": "uri",
          "type": "string"
        }
      ],
      "name": "setTokenURI",
      "outputs": [],
      "stateMutability": "nonpayable",
      "type": "function"
    },
    {
      "inputs": [],
      "name": "tokenURI",
      "outputs": [
        {
          "internalType": "string",
          "name": "",
          "type": "string"
        }
      ],
      "stateMutability": "view",
      "type": "function"
    }
  ],
  "bytecode": "0x60a060405234801561001057600080fd5b50604051610c80380380610c8083398101604081905261002f91610040565b6001600160a01b0316608052610070565b60006020828403121561005257600080fd5b81516001600160a01b038116811461006957600080fd5b9392505050565b608051610be06100a0600039600081816104050152818161046f015281816105ad015261064d0152610be06000f3fe608060405234801561001057600080fd5b506004361061004c5760003560e01c806331e66e1e146100515780633c130d90146100705780638592febf14610085578063e0df5b6f1461009a575b600080fd5b6100596100ad565b60405161006792919061090e565b60405180910390f35b6100786100c0565b604051610067919061095b565b6100986100933660046109fd565b610158565b005b6100986100a83660046109fd565b610186565b3660006100b86101bb565b915091509091565b60606100ca6101c6565b80546100d590610acc565b80601f016020809104026020016040519081016040528092919081815260200182805461010190610acc565b801561014e5780601f106101235761010080835404028352916020019161014e565b820191906000526020600020905b81548152906001019060200180831161013157829003601f168201915b5050505050905090565b6101716101636101fa565b61016b610209565b90610237565b6101838161017d6101c6565b906102bf565b50565b61019f6101916101fa565b61019961033c565b9061036a565b806101a86101c6565b81516101b79260200190610875565b5050565b3660006100b86103ed565b6000806101f460017ff41bf6a5db26bffdfab174dcf66b31fbba8fdb7e3db040721ce1e62d61839ceb610b19565b92915050565b6000610204610571565b905090565b6000806101f460017fb53127684a568b3173ae13b9f8a6016e243e63b6e8ee1178d6a717850b5d6104610b19565b815473ffffffffffffffffffffffffffffffffffffffff8281169116146101b7576040517f08c379a000000000000000000000000000000000000000000000000000000000815260206004820152601960248201527f50726f787941646d696e3a206e6f74207468652061646d696e0000000000000060448201526064015b60405180910390fd5b6102f46102ed60017f89fc10dbe4248abc1b40b428acefa849c6cc0c6a6d0b5d850acef07289392827610b19565b60016106c9565b80516103069083906020840190610875565b506101b77f3c130d90000000000000000000000000000000000000000000000000000000006001610335610739565b9190610767565b6000806101f460017fbbb5d9542f7a98b323b5aeba2ecddfa10d73251c23dd96dda0031c8675c64b98610b19565b815473ffffffffffffffffffffffffffffffffffffffff8281169116146101b7576040517f08c379a000000000000000000000000000000000000000000000000000000000815260206004820152601860248201527f4f776e6572736869703a206e6f7420746865206f776e6572000000000000000060448201526064016102b6565b3660003332810361040357506000923692509050565b7f000000000000000000000000000000000000000000000000000000000000000073ffffffffffffffffffffffffffffffffffffffff168173ffffffffffffffffffffffffffffffffffffffff161480610550575073ffffffffffffffffffffffffffffffffffffffff7f00000000000000000000000000000000000000000000000000000000000000001663e60125d6367fffffffffffffffffffffffffffffffffffffffffffffffffffffffffffffffec013560601c6040517fffffffff0000000000000000000000000000000000000000000000000000000060e084901b16815273ffffffffffffffffffffffffffffffffffffffff91821660048201529084166024820152604401602060405180830381865afa15801561052c573d6000803e3d6000fd5b505050506040513d601f19601f820116820180604052508101906105509190610b57565b156105665761055d610857565b92509250509091565b506000923692509050565b60003332810361058057919050565b6000367fffffffffffffffffffffffffffffffffffffffffffffffffffffffffffffffec013560601c90507f000000000000000000000000000000000000000000000000000000000000000073ffffffffffffffffffffffffffffffffffffffff168273ffffffffffffffffffffffffffffffffffffffff1614806106b857506040517fe60125d600000000000000000000000000000000000000000000000000000000815273ffffffffffffffffffffffffffffffffffffffff828116600483015283811660248301527f0000000000000000000000000000000000000000000000000000000000000000169063e60125d690604401602060405180830381865afa158015610694573d6000803e3d6000fd5b505050506040513d601f19601f820116820180604052508101906106b89190610b57565b156106c35792915050565b50919050565b815482908211610735576040517f08c379a000000000000000000000000000000000000000000000000000000000815260206004820152601860248201527f53746f726167653a2076657273696f6e2072656163686564000000000000000060448201526064016102b6565b5550565b6000806101f460017fca9d3e17f264b0f3984e2634e94adb37fa3e6a8103f06aeae6fa59e21c769f5e610b19565b7fffffffff0000000000000000000000000000000000000000000000000000000080831690036107f3576040517f08c379a000000000000000000000000000000000000000000000000000000000815260206004820152601f60248201527f496e74657266616365446574656374696f6e3a2077726f6e672076616c75650060448201526064016102b6565b7fffffffff00000000000000000000000000000000000000000000000000000000919091166000908152602092909252604090912080547fffffffffffffffffffffffffffffffffffffffffffffffffffffffffffffff0016911515919091179055565b366000808083610868601482610b19565b926100b893929190610b80565b82805461088190610acc565b90600052602060002090601f0160209004810192826108a357600085556108e9565b82601f106108bc57805160ff19168380011785556108e9565b828001600101855582156108e9579182015b828111156108e95782518255916020019190600101906108ce565b506108f59291506108f9565b5090565b5b808211156108f557600081556001016108fa565b60208152816020820152818360408301376000818301604090810191909152601f9092017fffffffffffffffffffffffffffffffffffffffffffffffffffffffffffffffe0160101919050565b600060208083528351808285015260005b818110156109885785810183015185820160400152820161096c565b8181111561099a576000604083870101525b50601f017fffffffffffffffffffffffffffffffffffffffffffffffffffffffffffffffe016929092016040019392505050565b7f4e487b7100000000000000000000000000000000000000000000000000000000600052604160045260246000fd5b600060208284031215610a0f57600080fd5b813567ffffffffffffffff80821115610a2757600080fd5b818401915084601f830112610a3b57600080fd5b813581811115610a4d57610a4d6109ce565b604051601f82017fffffffffffffffffffffffffffffffffffffffffffffffffffffffffffffffe0908116603f01168101908382118183101715610a9357610a936109ce565b81604052828152876020848701011115610aac57600080fd5b826020860160208301376000928101602001929092525095945050505050565b600181811c90821680610ae057607f821691505b6020821081036106c3577f4e487b7100000000000000000000000000000000000000000000000000000000600052602260045260246000fd5b600082821015610b52577f4e487b7100000000000000000000000000000000000000000000000000000000600052601160045260246000fd5b500390565b600060208284031215610b6957600080fd5b81518015158114610b7957600080fd5b9392505050565b60008085851115610b9057600080fd5b83861115610b9d57600080fd5b505082019391909203915056fea2646970667358221220d4fca9764cc4d2c94634e8f44fc6fa21dba922f6014f871b79ca731910bd80e164736f6c634300080e0033",
  "linkReferences": {},
  "deployedLinkReferences": {}
}