{
  "_format": "hh-sol-artifact-1",
  "contractName": "ERC20MetadataFacetMock",
  "sourceName": "contracts/mocks/token/ERC20/ERC20MetadataFacetMock.sol",
  "abi": [
    {
      "inputs": [
        {
          "internalType": "contract IForwarderRegistry",
          "name": "forwarderRegistry",
          "type": "address"
        }
      ],
      "stateMutability": "nonpayable",
      "type": "constructor"
    },
    {
      "inputs": [],
      "name": "__msgData",
      "outputs": [
        {
          "internalType": "bytes",
          "name": "",
          "type": "bytes"
        }
      ],
      "stateMutability": "view",
      "type": "function"
    },
    {
      "inputs": [
        {
          "internalType": "string",
          "name": "uri",
          "type": "string"
        }
      ],
      "name": "initERC20MetadataStorage",
      "outputs": [],
      "stateMutability": "nonpayable",
      "type": "function"
    },
    {
      "inputs": [
        {
          "internalType": "string",
          "name": "uri",
          "type": "string"
        }
      ],
      "name": "setTokenURI",
      "outputs": [],
      "stateMutability": "nonpayable",
      "type": "function"
    },
    {
      "inputs": [],
      "name": "tokenURI",
      "outputs": [
        {
          "internalType": "string",
          "name": "",
          "type": "string"
        }
      ],
      "stateMutability": "view",
      "type": "function"
    }
  ],
  "bytecode": "0x60a060405234801561001057600080fd5b50604051610ca1380380610ca183398101604081905261002f91610040565b6001600160a01b0316608052610070565b60006020828403121561005257600080fd5b81516001600160a01b038116811461006957600080fd5b9392505050565b608051610c016100a06000396000818161042601528181610490015281816105ce015261066e0152610c016000f3fe608060405234801561001057600080fd5b506004361061004c5760003560e01c806331e66e1e146100515780633c130d90146100705780638592febf14610085578063e0df5b6f1461009a575b600080fd5b6100596100ad565b60405161006792919061092f565b60405180910390f35b6100786100c0565b604051610067919061097c565b610098610093366004610a1e565b6100d7565b005b6100986100a8366004610a1e565b610105565b3660006100b8610130565b915091509091565b60606100d26100cd61013b565b61016f565b905090565b6100f06100e2610205565b6100ea61020f565b9061023d565b610102816100fc61013b565b906102c9565b50565b61011e610110610205565b610118610346565b90610374565b6101028161012a61013b565b906103f7565b3660006100b861040e565b60008061016960017ff41bf6a5db26bffdfab174dcf66b31fbba8fdb7e3db040721ce1e62d61839ceb610aed565b92915050565b606081600001805461018090610b2b565b80601f01602080910402602001604051908101604052809291908181526020018280546101ac90610b2b565b80156101f95780601f106101ce576101008083540402835291602001916101f9565b820191906000526020600020905b8154815290600101906020018083116101dc57829003601f168201915b50505050509050919050565b60006100d2610592565b60008061016960017fb53127684a568b3173ae13b9f8a6016e243e63b6e8ee1178d6a717850b5d6104610aed565b815473ffffffffffffffffffffffffffffffffffffffff8281169116146102c5576040517f08c379a000000000000000000000000000000000000000000000000000000000815260206004820152601960248201527f50726f787941646d696e3a206e6f74207468652061646d696e0000000000000060448201526064015b60405180910390fd5b5050565b6102fe6102f760017f89fc10dbe4248abc1b40b428acefa849c6cc0c6a6d0b5d850acef07289392827610aed565b60016106ea565b80516103109083906020840190610896565b506102c57f3c130d9000000000000000000000000000000000000000000000000000000000600161033f61075a565b9190610788565b60008061016960017fc9ed16f33ab3a66c84bfd83099ccb2a8845871e2e1c1928f63797152f0fd54cd610aed565b815473ffffffffffffffffffffffffffffffffffffffff8281169116146102c5576040517f08c379a000000000000000000000000000000000000000000000000000000000815260206004820152601860248201527f4f776e6572736869703a206e6f7420746865206f776e6572000000000000000060448201526064016102bc565b80516104099083906020840190610896565b505050565b3660003332810361042457506000923692509050565b7f000000000000000000000000000000000000000000000000000000000000000073ffffffffffffffffffffffffffffffffffffffff168173ffffffffffffffffffffffffffffffffffffffff161480610571575073ffffffffffffffffffffffffffffffffffffffff7f00000000000000000000000000000000000000000000000000000000000000001663e60125d6367fffffffffffffffffffffffffffffffffffffffffffffffffffffffffffffffec013560601c6040517fffffffff0000000000000000000000000000000000000000000000000000000060e084901b16815273ffffffffffffffffffffffffffffffffffffffff91821660048201529084166024820152604401602060405180830381865afa15801561054d573d6000803e3d6000fd5b505050506040513d601f19601f820116820180604052508101906105719190610b78565b156105875761057e610878565b92509250509091565b506000923692509050565b6000333281036105a157919050565b6000367fffffffffffffffffffffffffffffffffffffffffffffffffffffffffffffffec013560601c90507f000000000000000000000000000000000000000000000000000000000000000073ffffffffffffffffffffffffffffffffffffffff168273ffffffffffffffffffffffffffffffffffffffff1614806106d957506040517fe60125d600000000000000000000000000000000000000000000000000000000815273ffffffffffffffffffffffffffffffffffffffff828116600483015283811660248301527f0000000000000000000000000000000000000000000000000000000000000000169063e60125d690604401602060405180830381865afa1580156106b5573d6000803e3d6000fd5b505050506040513d601f19601f820116820180604052508101906106d99190610b78565b156106e45792915050565b50919050565b815482908211610756576040517f08c379a000000000000000000000000000000000000000000000000000000000815260206004820152601860248201527f53746f726167653a2076657273696f6e2072656163686564000000000000000060448201526064016102bc565b5550565b60008061016960017fca9d3e17f264b0f3984e2634e94adb37fa3e6a8103f06aeae6fa59e21c769f5e610aed565b7fffffffff000000000000000000000000000000000000000000000000000000008083169003610814576040517f08c379a000000000000000000000000000000000000000000000000000000000815260206004820152601f60248201527f496e74657266616365446574656374696f6e3a2077726f6e672076616c75650060448201526064016102bc565b7fffffffff00000000000000000000000000000000000000000000000000000000919091166000908152602092909252604090912080547fffffffffffffffffffffffffffffffffffffffffffffffffffffffffffffff0016911515919091179055565b366000808083610889601482610aed565b926100b893929190610ba1565b8280546108a290610b2b565b90600052602060002090601f0160209004810192826108c4576000855561090a565b82601f106108dd57805160ff191683800117855561090a565b8280016001018555821561090a579182015b8281111561090a5782518255916020019190600101906108ef565b5061091692915061091a565b5090565b5b80821115610916576000815560010161091b565b60208152816020820152818360408301376000818301604090810191909152601f9092017fffffffffffffffffffffffffffffffffffffffffffffffffffffffffffffffe0160101919050565b600060208083528351808285015260005b818110156109a95785810183015185820160400152820161098d565b818111156109bb576000604083870101525b50601f017fffffffffffffffffffffffffffffffffffffffffffffffffffffffffffffffe016929092016040019392505050565b7f4e487b7100000000000000000000000000000000000000000000000000000000600052604160045260246000fd5b600060208284031215610a3057600080fd5b813567ffffffffffffffff80821115610a4857600080fd5b818401915084601f830112610a5c57600080fd5b813581811115610a6e57610a6e6109ef565b604051601f82017fffffffffffffffffffffffffffffffffffffffffffffffffffffffffffffffe0908116603f01168101908382118183101715610ab457610ab46109ef565b81604052828152876020848701011115610acd57600080fd5b826020860160208301376000928101602001929092525095945050505050565b600082821015610b26577f4e487b7100000000000000000000000000000000000000000000000000000000600052601160045260246000fd5b500390565b600181811c90821680610b3f57607f821691505b6020821081036106e4577f4e487b7100000000000000000000000000000000000000000000000000000000600052602260045260246000fd5b600060208284031215610b8a57600080fd5b81518015158114610b9a57600080fd5b9392505050565b60008085851115610bb157600080fd5b83861115610bbe57600080fd5b505082019391909203915056fea264697066735822122013dacc551dd468bac0a303cbddb24ea5a9667b031aea24965be4914cae778fc164736f6c634300080e0033",
  "linkReferences": {},
  "deployedLinkReferences": {}
}