{
  "_format": "hh-sol-artifact-1",
  "contractName": "ERC1155WithoutOperatorFiltererMock",
  "sourceName": "contracts/mocks/token/ERC1155/ERC1155WithoutOperatorFiltererMock.sol",
  "abi": [
    {
      "inputs": [
        {
          "internalType": "contract IForwarderRegistry",
          "name": "forwarderRegistry",
          "type": "address"
        }
      ],
      "stateMutability": "nonpayable",
      "type": "constructor"
    },
    {
      "inputs": [],
      "name": "ERC1155BalanceOfAddressZero",
      "type": "error"
    },
    {
      "inputs": [
        {
          "internalType": "address",
          "name": "recipient",
          "type": "address"
        },
        {
          "internalType": "uint256",
          "name": "id",
          "type": "uint256"
        },
        {
          "internalType": "uint256",
          "name": "balance",
          "type": "uint256"
        },
        {
          "internalType": "uint256",
          "name": "value",
          "type": "uint256"
        }
      ],
      "name": "ERC1155BalanceOverflow",
      "type": "error"
    },
    {
      "inputs": [
        {
          "internalType": "address",
          "name": "owner",
          "type": "address"
        },
        {
          "internalType": "uint256",
          "name": "id",
          "type": "uint256"
        },
        {
          "internalType": "uint256",
          "name": "balance",
          "type": "uint256"
        },
        {
          "internalType": "uint256",
          "name": "value",
          "type": "uint256"
        }
      ],
      "name": "ERC1155InsufficientBalance",
      "type": "error"
    },
    {
      "inputs": [],
      "name": "ERC1155MintToAddressZero",
      "type": "error"
    },
    {
      "inputs": [
        {
          "internalType": "address",
          "name": "sender",
          "type": "address"
        },
        {
          "internalType": "address",
          "name": "owner",
          "type": "address"
        }
      ],
      "name": "ERC1155NonApproved",
      "type": "error"
    },
    {
      "inputs": [
        {
          "internalType": "address",
          "name": "recipient",
          "type": "address"
        },
        {
          "internalType": "uint256[]",
          "name": "ids",
          "type": "uint256[]"
        },
        {
          "internalType": "uint256[]",
          "name": "values",
          "type": "uint256[]"
        }
      ],
      "name": "ERC1155SafeBatchTransferRejected",
      "type": "error"
    },
    {
      "inputs": [
        {
          "internalType": "address",
          "name": "recipient",
          "type": "address"
        },
        {
          "internalType": "uint256",
          "name": "id",
          "type": "uint256"
        },
        {
          "internalType": "uint256",
          "name": "value",
          "type": "uint256"
        }
      ],
      "name": "ERC1155SafeTransferRejected",
      "type": "error"
    },
    {
      "inputs": [
        {
          "internalType": "address",
          "name": "account",
          "type": "address"
        }
      ],
      "name": "ERC1155SelfApprovalForAll",
      "type": "error"
    },
    {
      "inputs": [],
      "name": "ERC1155TransferToAddressZero",
      "type": "error"
    },
    {
      "inputs": [],
      "name": "IllegalInterfaceId",
      "type": "error"
    },
    {
      "inputs": [],
      "name": "InconsistentArrayLengths",
      "type": "error"
    },
    {
      "inputs": [
        {
          "internalType": "address",
          "name": "account",
          "type": "address"
        }
      ],
      "name": "NotContractOwner",
      "type": "error"
    },
    {
      "inputs": [
        {
          "internalType": "bytes32",
          "name": "role",
          "type": "bytes32"
        },
        {
          "internalType": "address",
          "name": "account",
          "type": "address"
        }
      ],
      "name": "NotRoleHolder",
      "type": "error"
    },
    {
      "anonymous": false,
      "inputs": [
        {
          "indexed": true,
          "internalType": "address",
          "name": "owner",
          "type": "address"
        },
        {
          "indexed": true,
          "internalType": "address",
          "name": "operator",
          "type": "address"
        },
        {
          "indexed": false,
          "internalType": "bool",
          "name": "approved",
          "type": "bool"
        }
      ],
      "name": "ApprovalForAll",
      "type": "event"
    },
    {
      "anonymous": false,
      "inputs": [
        {
          "indexed": true,
          "internalType": "address",
          "name": "previousOwner",
          "type": "address"
        },
        {
          "indexed": true,
          "internalType": "address",
          "name": "newOwner",
          "type": "address"
        }
      ],
      "name": "OwnershipTransferred",
      "type": "event"
    },
    {
      "anonymous": false,
      "inputs": [
        {
          "indexed": false,
          "internalType": "bytes32",
          "name": "role",
          "type": "bytes32"
        },
        {
          "indexed": false,
          "internalType": "address",
          "name": "account",
          "type": "address"
        },
        {
          "indexed": false,
          "internalType": "address",
          "name": "operator",
          "type": "address"
        }
      ],
      "name": "RoleGranted",
      "type": "event"
    },
    {
      "anonymous": false,
      "inputs": [
        {
          "indexed": false,
          "internalType": "bytes32",
          "name": "role",
          "type": "bytes32"
        },
        {
          "indexed": false,
          "internalType": "address",
          "name": "account",
          "type": "address"
        },
        {
          "indexed": false,
          "internalType": "address",
          "name": "operator",
          "type": "address"
        }
      ],
      "name": "RoleRevoked",
      "type": "event"
    },
    {
      "anonymous": false,
      "inputs": [
        {
          "indexed": true,
          "internalType": "address",
          "name": "operator",
          "type": "address"
        },
        {
          "indexed": true,
          "internalType": "address",
          "name": "from",
          "type": "address"
        },
        {
          "indexed": true,
          "internalType": "address",
          "name": "to",
          "type": "address"
        },
        {
          "indexed": false,
          "internalType": "uint256[]",
          "name": "ids",
          "type": "uint256[]"
        },
        {
          "indexed": false,
          "internalType": "uint256[]",
          "name": "values",
          "type": "uint256[]"
        }
      ],
      "name": "TransferBatch",
      "type": "event"
    },
    {
      "anonymous": false,
      "inputs": [
        {
          "indexed": true,
          "internalType": "address",
          "name": "operator",
          "type": "address"
        },
        {
          "indexed": true,
          "internalType": "address",
          "name": "from",
          "type": "address"
        },
        {
          "indexed": true,
          "internalType": "address",
          "name": "to",
          "type": "address"
        },
        {
          "indexed": false,
          "internalType": "uint256",
          "name": "id",
          "type": "uint256"
        },
        {
          "indexed": false,
          "internalType": "uint256",
          "name": "value",
          "type": "uint256"
        }
      ],
      "name": "TransferSingle",
      "type": "event"
    },
    {
      "inputs": [],
      "name": "MINTER_ROLE",
      "outputs": [
        {
          "internalType": "bytes32",
          "name": "",
          "type": "bytes32"
        }
      ],
      "stateMutability": "view",
      "type": "function"
    },
    {
      "inputs": [],
      "name": "__msgData",
      "outputs": [
        {
          "internalType": "bytes",
          "name": "",
          "type": "bytes"
        }
      ],
      "stateMutability": "view",
      "type": "function"
    },
    {
      "inputs": [
        {
          "internalType": "address",
          "name": "owner",
          "type": "address"
        },
        {
          "internalType": "uint256",
          "name": "id",
          "type": "uint256"
        }
      ],
      "name": "balanceOf",
      "outputs": [
        {
          "internalType": "uint256",
          "name": "balance",
          "type": "uint256"
        }
      ],
      "stateMutability": "view",
      "type": "function"
    },
    {
      "inputs": [
        {
          "internalType": "address[]",
          "name": "owners",
          "type": "address[]"
        },
        {
          "internalType": "uint256[]",
          "name": "ids",
          "type": "uint256[]"
        }
      ],
      "name": "balanceOfBatch",
      "outputs": [
        {
          "internalType": "uint256[]",
          "name": "balances",
          "type": "uint256[]"
        }
      ],
      "stateMutability": "view",
      "type": "function"
    },
    {
      "inputs": [],
      "name": "forwarderRegistry",
      "outputs": [
        {
          "internalType": "contract IForwarderRegistry",
          "name": "",
          "type": "address"
        }
      ],
      "stateMutability": "view",
      "type": "function"
    },
    {
      "inputs": [
        {
          "internalType": "bytes32",
          "name": "role",
          "type": "bytes32"
        },
        {
          "internalType": "address",
          "name": "account",
          "type": "address"
        }
      ],
      "name": "grantRole",
      "outputs": [],
      "stateMutability": "nonpayable",
      "type": "function"
    },
    {
      "inputs": [
        {
          "internalType": "bytes32",
          "name": "role",
          "type": "bytes32"
        },
        {
          "internalType": "address",
          "name": "account",
          "type": "address"
        }
      ],
      "name": "hasRole",
      "outputs": [
        {
          "internalType": "bool",
          "name": "hasRole_",
          "type": "bool"
        }
      ],
      "stateMutability": "view",
      "type": "function"
    },
    {
      "inputs": [
        {
          "internalType": "address",
          "name": "owner",
          "type": "address"
        },
        {
          "internalType": "address",
          "name": "operator",
          "type": "address"
        }
      ],
      "name": "isApprovedForAll",
      "outputs": [
        {
          "internalType": "bool",
          "name": "approvedForAll",
          "type": "bool"
        }
      ],
      "stateMutability": "view",
      "type": "function"
    },
    {
      "inputs": [
        {
          "internalType": "address",
          "name": "forwarder",
          "type": "address"
        }
      ],
      "name": "isTrustedForwarder",
      "outputs": [
        {
          "internalType": "bool",
          "name": "",
          "type": "bool"
        }
      ],
      "stateMutability": "view",
      "type": "function"
    },
    {
      "inputs": [],
      "name": "owner",
      "outputs": [
        {
          "internalType": "address",
          "name": "",
          "type": "address"
        }
      ],
      "stateMutability": "view",
      "type": "function"
    },
    {
      "inputs": [
        {
          "internalType": "bytes32",
          "name": "role",
          "type": "bytes32"
        }
      ],
      "name": "renounceRole",
      "outputs": [],
      "stateMutability": "nonpayable",
      "type": "function"
    },
    {
      "inputs": [
        {
          "internalType": "bytes32",
          "name": "role",
          "type": "bytes32"
        },
        {
          "internalType": "address",
          "name": "account",
          "type": "address"
        }
      ],
      "name": "revokeRole",
      "outputs": [],
      "stateMutability": "nonpayable",
      "type": "function"
    },
    {
      "inputs": [
        {
          "internalType": "address",
          "name": "to",
          "type": "address"
        },
        {
          "internalType": "uint256[]",
          "name": "ids",
          "type": "uint256[]"
        },
        {
          "internalType": "uint256[]",
          "name": "values",
          "type": "uint256[]"
        },
        {
          "internalType": "bytes",
          "name": "data",
          "type": "bytes"
        }
      ],
      "name": "safeBatchMint",
      "outputs": [],
      "stateMutability": "nonpayable",
      "type": "function"
    },
    {
      "inputs": [
        {
          "internalType": "address",
          "name": "from",
          "type": "address"
        },
        {
          "internalType": "address",
          "name": "to",
          "type": "address"
        },
        {
          "internalType": "uint256[]",
          "name": "ids",
          "type": "uint256[]"
        },
        {
          "internalType": "uint256[]",
          "name": "values",
          "type": "uint256[]"
        },
        {
          "internalType": "bytes",
          "name": "data",
          "type": "bytes"
        }
      ],
      "name": "safeBatchTransferFrom",
      "outputs": [],
      "stateMutability": "nonpayable",
      "type": "function"
    },
    {
      "inputs": [
        {
          "internalType": "address",
          "name": "to",
          "type": "address"
        },
        {
          "internalType": "uint256",
          "name": "id",
          "type": "uint256"
        },
        {
          "internalType": "uint256",
          "name": "value",
          "type": "uint256"
        },
        {
          "internalType": "bytes",
          "name": "data",
          "type": "bytes"
        }
      ],
      "name": "safeMint",
      "outputs": [],
      "stateMutability": "nonpayable",
      "type": "function"
    },
    {
      "inputs": [
        {
          "internalType": "address",
          "name": "from",
          "type": "address"
        },
        {
          "internalType": "address",
          "name": "to",
          "type": "address"
        },
        {
          "internalType": "uint256",
          "name": "id",
          "type": "uint256"
        },
        {
          "internalType": "uint256",
          "name": "value",
          "type": "uint256"
        },
        {
          "internalType": "bytes",
          "name": "data",
          "type": "bytes"
        }
      ],
      "name": "safeTransferFrom",
      "outputs": [],
      "stateMutability": "nonpayable",
      "type": "function"
    },
    {
      "inputs": [
        {
          "internalType": "address",
          "name": "operator",
          "type": "address"
        },
        {
          "internalType": "bool",
          "name": "approved",
          "type": "bool"
        }
      ],
      "name": "setApprovalForAll",
      "outputs": [],
      "stateMutability": "nonpayable",
      "type": "function"
    },
    {
      "inputs": [
        {
          "internalType": "bytes4",
          "name": "interfaceId",
          "type": "bytes4"
        }
      ],
      "name": "supportsInterface",
      "outputs": [
        {
          "internalType": "bool",
          "name": "",
          "type": "bool"
        }
      ],
      "stateMutability": "view",
      "type": "function"
    },
    {
      "inputs": [
        {
          "internalType": "address",
          "name": "newOwner",
          "type": "address"
        }
      ],
      "name": "transferOwnership",
      "outputs": [],
      "stateMutability": "nonpayable",
      "type": "function"
    }
  ],
  "bytecode": "0x60a060405234801561001057600080fd5b5060405161298038038061298083398101604081905261002f916101c5565b80803361003a610069565b61004c81610046610087565b906100bb565b5061005561012a565b6001600160a01b0316608052506102169050565b610085636cdb3d1360e11b600161007e61013b565b9190610169565b565b6000806100b560017fc9ed16f33ab3a66c84bfd83099ccb2a8845871e2e1c1928f63797152f0fd54cd6101f5565b92915050565b6001600160a01b038116156101115781546001600160a01b0319166001600160a01b03821690811783556040516000907f8be0079c531659141344cd1fd0a4f28419497f9722a3daafe3b4186f6b6457e0908290a35b6101266307f5828d60e41b600161007e61013b565b5050565b610085631464324b60e21b600161007e5b6000806100b560017fca9d3e17f264b0f3984e2634e94adb37fa3e6a8103f06aeae6fa59e21c769f5e6101f5565b600160e01b6001600160e01b0319831601610197576040516372c683bb60e01b815260040160405180910390fd5b6001600160e01b03199190911660009081526020929092526040909120805460ff1916911515919091179055565b6000602082840312156101d757600080fd5b81516001600160a01b03811681146101ee57600080fd5b9392505050565b818103818111156100b557634e487b7160e01b600052601160045260246000fd5b60805161272c610254600039600081816101b501528181610266015281816116aa0152818161173801528181611be00152611c1e015261272c6000f3fe608060405234801561001057600080fd5b50600436106101505760003560e01c80635cfa9297116100cd578063d539139311610081578063e985e9c511610066578063e985e9c514610331578063f242432a14610344578063f2fde38b1461035757600080fd5b8063d5391393146102f7578063d547741f1461031e57600080fd5b80638da5cb5b116100b25780638da5cb5b146102c957806391d14854146102d1578063a22cb465146102e457600080fd5b80635cfa9297146102a35780638bb9c5bf146102b657600080fd5b80632eb2c2d61161012457806331e66e1e1161010957806331e66e1e146102205780634e1273f414610236578063572b6c051461025657600080fd5b80632eb2c2d6146101fa5780632f2ff15d1461020d57600080fd5b8062fdd58e1461015557806301ffc9a71461017b5780630d6a5bbb1461019e5780632b4c9f16146101b3575b600080fd5b610168610163366004611e91565b61036a565b6040519081526020015b60405180910390f35b61018e610189366004611ee9565b610389565b6040519015158152602001610172565b6101b16101ac366004611f9b565b61039d565b005b7f00000000000000000000000000000000000000000000000000000000000000005b60405173ffffffffffffffffffffffffffffffffffffffff9091168152602001610172565b6101b1610208366004612052565b610498565b6101b161021b366004612119565b6104c1565b6102286104fa565b604051610172929190612145565b610249610244366004612192565b61050d565b604051610172919061223f565b61018e610264366004612252565b7f000000000000000000000000000000000000000000000000000000000000000073ffffffffffffffffffffffffffffffffffffffff90811691161490565b6101b16102b136600461226d565b610530565b6101b16102c43660046122d5565b6105c2565b6101d56105e0565b61018e6102df366004612119565b61060c565b6101b16102f23660046122fc565b610650565b6101687f6d696e746572000000000000000000000000000000000000000000000000000081565b6101b161032c366004612119565b610671565b61018e61033f366004612333565b61069f565b6101b161035236600461235d565b6106ed565b6101b1610365366004612252565b610712565b6000610380838361037961072d565b919061075b565b90505b92915050565b6000610383826103976107df565b9061080d565b60006103a76108e7565b90506103dd7f6d696e7465720000000000000000000000000000000000000000000000000000826103d66108f1565b919061091f565b61048e818989898080602002602001604051908101604052809392919081815260200183836020028082843760009201919091525050604080516020808d0282810182019093528c82529093508c92508b91829185019084908082843760009201919091525050604080516020601f8c018190048102820181019092528a815292508a9150899081908401838280828437600092019190915250610484925061072d915050565b94939291906109aa565b5050505050505050565b61048e6104a36108e7565b89898989898989896104b361072d565b989796959493929190610b39565b60006104cb6108e7565b90506104df816104d9610dc2565b90610df0565b6104f58383836104ed6108f1565b929190610e5b565b505050565b366000610505610f32565b915091509091565b60606105278585858561051e61072d565b93929190610f3d565b95945050505050565b600061053a6108e7565b90506105697f6d696e7465720000000000000000000000000000000000000000000000000000826103d66108f1565b6105ba8187878787878080601f0160208091040260200160405190810160405280939291908181526020018383808284376000920191909152506105b0925061072d915050565b949392919061104c565b505050505050565b6105dd6105cd6108e7565b826105d66108f1565b919061112a565b50565b60006106076105ed610dc2565b5473ffffffffffffffffffffffffffffffffffffffff1690565b905090565b6000610380838361061b6108f1565b60009283526020908152604080842073ffffffffffffffffffffffffffffffffffffffff909316845291905290205460ff1690565b61066d61065b6108e7565b838361066561072d565b9291906111ce565b5050565b600061067b6108e7565b9050610689816104d9610dc2565b6104f58383836106976108f1565b9291906112e6565b600061038083836106ae61072d565b919073ffffffffffffffffffffffffffffffffffffffff9182166000908152600193909301602090815260408085209290931684525290205460ff1690565b6105ba6106f86108e7565b87878787878761070661072d565b969594939291906113b0565b6105dd61071d6108e7565b82610726610dc2565b9190611553565b60008061038360017f5ccf5846fa27a68fafc8e588671a68f5e67c2f9b56af4263806a4d71735e86136123d5565b600073ffffffffffffffffffffffffffffffffffffffff83166107aa576040517fca2434a500000000000000000000000000000000000000000000000000000000815260040160405180910390fd5b5060009081526020928352604080822073ffffffffffffffffffffffffffffffffffffffff9390931682529190925290205490565b60008061038360017fca9d3e17f264b0f3984e2634e94adb37fa3e6a8103f06aeae6fa59e21c769f5e6123d5565b60007c01000000000000000000000000000000000000000000000000000000007fffffffff0000000000000000000000000000000000000000000000000000000083160161085d57506000610383565b7ffe003659000000000000000000000000000000000000000000000000000000007fffffffff000000000000000000000000000000000000000000000000000000008316016108ae57506001610383565b507fffffffff00000000000000000000000000000000000000000000000000000000166000908152602091909152604090205460ff1690565b6000610607611667565b60008061038360017fc8827d3282af6f37b64c3e9e6f3ac9df286ab0bb0fccd6f8661bf19adb368b236123d5565b60008281526020848152604080832073ffffffffffffffffffffffffffffffffffffffff8516845290915290205460ff166104f5576040517f7aa728820000000000000000000000000000000000000000000000000000000081526004810183905273ffffffffffffffffffffffffffffffffffffffff821660248201526044015b60405180910390fd5b73ffffffffffffffffffffffffffffffffffffffff84166109f7576040517f021149bd00000000000000000000000000000000000000000000000000000000815260040160405180910390fd5b825182518114610a33576040517f6582533600000000000000000000000000000000000000000000000000000000815260040160405180910390fd5b60005b81811015610a8457610a7c8887878481518110610a5557610a5561240f565b6020026020010151878581518110610a6f57610a6f61240f565b60200260200101516117b4565b600101610a36565b508473ffffffffffffffffffffffffffffffffffffffff16600073ffffffffffffffffffffffffffffffffffffffff168773ffffffffffffffffffffffffffffffffffffffff167f4a39dc06d4c0dbc64b70af90fd698a233a518aa5d07e595d983b8c0526c8f7fb8787604051610afc92919061243e565b60405180910390a473ffffffffffffffffffffffffffffffffffffffff85163b15610b3057610b3086600087878787611885565b50505050505050565b73ffffffffffffffffffffffffffffffffffffffff8716610b86576040517fb5e8901500000000000000000000000000000000000000000000000000000000815260040160405180910390fd5b84838114610bc0576040517f6582533600000000000000000000000000000000000000000000000000000000815260040160405180910390fd5b610bcb8b8a8c611983565b610c21576040517f05bbb9c400000000000000000000000000000000000000000000000000000000815273ffffffffffffffffffffffffffffffffffffffff808c1660048301528a1660248201526044016109a1565b60005b81811015610c7157610c698c8b8b8b8b86818110610c4457610c4461240f565b905060200201358a8a87818110610c5d57610c5d61240f565b905060200201356119fb565b600101610c24565b508773ffffffffffffffffffffffffffffffffffffffff168973ffffffffffffffffffffffffffffffffffffffff168b73ffffffffffffffffffffffffffffffffffffffff167f4a39dc06d4c0dbc64b70af90fd698a233a518aa5d07e595d983b8c0526c8f7fb8a8a8a8a604051610cec94939291906124ae565b60405180910390a473ffffffffffffffffffffffffffffffffffffffff88163b15610db557610db58a8a8a8a8a8080602002602001604051908101604052809392919081815260200183836020028082843760009201919091525050604080516020808e0282810182019093528d82529093508d92508c91829185019084908082843760009201919091525050604080516020601f8d018190048102820181019092528b815292508b91508a908190840183828082843760009201919091525061188592505050565b5050505050505050505050565b60008061038360017fc9ed16f33ab3a66c84bfd83099ccb2a8845871e2e1c1928f63797152f0fd54cd6123d5565b815473ffffffffffffffffffffffffffffffffffffffff82811691161461066d576040517f2ef4875e00000000000000000000000000000000000000000000000000000000815273ffffffffffffffffffffffffffffffffffffffff821660048201526024016109a1565b60008381526020858152604080832073ffffffffffffffffffffffffffffffffffffffff8616845290915290205460ff16610f2c5760008381526020858152604080832073ffffffffffffffffffffffffffffffffffffffff8681168086529184529382902080547fffffffffffffffffffffffffffffffffffffffffffffffffffffffffffffff00166001179055815187815292830152918316918101919091527f2f8788117e7eff1d82e926ec794901d17c78024a50270940304540a733656f0d906060015b60405180910390a15b50505050565b366000610505611ba9565b606083828114610f79576040517f6582533600000000000000000000000000000000000000000000000000000000815260040160405180910390fd5b8467ffffffffffffffff811115610f9257610f926124e0565b604051908082528060200260200182016040528015610fbb578160200160208202803683370190505b50915060005b818110156110415761101c878783818110610fde57610fde61240f565b9050602002016020810190610ff39190612252565b8686848181106110055761100561240f565b905060200201358a61075b9092919063ffffffff16565b83828151811061102e5761102e61240f565b6020908102919091010152600101610fc1565b505095945050505050565b73ffffffffffffffffffffffffffffffffffffffff8416611099576040517f021149bd00000000000000000000000000000000000000000000000000000000815260040160405180910390fd5b6110a5868585856117b4565b604080518481526020810184905273ffffffffffffffffffffffffffffffffffffffff80871692600092918916917fc3d58168c5ae7397731d063d5bbf3d657854427343f4c083240f7aacaa2d0f62910160405180910390a473ffffffffffffffffffffffffffffffffffffffff84163b156105ba576105ba85600086868686611d19565b61113583828461091f565b60008181526020848152604080832073ffffffffffffffffffffffffffffffffffffffff86168085529083529281902080547fffffffffffffffffffffffffffffffffffffffffffffffffffffffffffffff0016905580518481529182018390528101919091527ff6391f5c32d9c69d2a47ea670b442974b53935d1edc7fd64eb21e047a839171b9060600160405180910390a1505050565b8273ffffffffffffffffffffffffffffffffffffffff168273ffffffffffffffffffffffffffffffffffffffff160361124b576040517ffb0fdf6100000000000000000000000000000000000000000000000000000000815273ffffffffffffffffffffffffffffffffffffffff841660048201526024016109a1565b73ffffffffffffffffffffffffffffffffffffffff838116600081815260018701602090815260408083209487168084529482529182902080547fffffffffffffffffffffffffffffffffffffffffffffffffffffffffffffff001686151590811790915591519182527f17307eab39ab6107e8899845ad3d59bd9653f200f220920489ca2b5937696c31910160405180910390a350505050565b60008381526020858152604080832073ffffffffffffffffffffffffffffffffffffffff8616845290915290205460ff1615610f2c5760008381526020858152604080832073ffffffffffffffffffffffffffffffffffffffff8681168086529184529382902080547fffffffffffffffffffffffffffffffffffffffffffffffffffffffffffffff00169055815187815292830152918316918101919091527ff6391f5c32d9c69d2a47ea670b442974b53935d1edc7fd64eb21e047a839171b90606001610f23565b73ffffffffffffffffffffffffffffffffffffffff85166113fd576040517fb5e8901500000000000000000000000000000000000000000000000000000000815260040160405180910390fd5b611408888789611983565b61145e576040517f05bbb9c400000000000000000000000000000000000000000000000000000000815273ffffffffffffffffffffffffffffffffffffffff8089166004830152871660248201526044016109a1565b61146b88878787876119fb565b8473ffffffffffffffffffffffffffffffffffffffff168673ffffffffffffffffffffffffffffffffffffffff168873ffffffffffffffffffffffffffffffffffffffff167fc3d58168c5ae7397731d063d5bbf3d657854427343f4c083240f7aacaa2d0f6287876040516114ea929190918252602082015260400190565b60405180910390a473ffffffffffffffffffffffffffffffffffffffff85163b1561048e5761048e878787878787878080601f016020809104026020016040519081016040528093929190818152602001838380828437600092019190915250611d1992505050565b825473ffffffffffffffffffffffffffffffffffffffff90811690831681146115c0576040517f2ef4875e00000000000000000000000000000000000000000000000000000000815273ffffffffffffffffffffffffffffffffffffffff841660048201526024016109a1565b8173ffffffffffffffffffffffffffffffffffffffff168173ffffffffffffffffffffffffffffffffffffffff1614610f2c5783547fffffffffffffffffffffffff00000000000000000000000000000000000000001673ffffffffffffffffffffffffffffffffffffffff8381169182178655604051908316907f8be0079c531659141344cd1fd0a4f28419497f9722a3daafe3b4186f6b6457e090600090a350505050565b6000333214806116775750601836105b1561168157503390565b7fffffffffffffffffffffffffffffffffffffffffffffffffffffffffffffffec36013560601c7f000000000000000000000000000000000000000000000000000000000000000073ffffffffffffffffffffffffffffffffffffffff163314806117a357506040517f019a202800000000000000000000000000000000000000000000000000000000815273ffffffffffffffffffffffffffffffffffffffff82811660048301523360248301523060448301527f0000000000000000000000000000000000000000000000000000000000000000169063019a202890606401602060405180830381865afa15801561177f573d6000803e3d6000fd5b505050506040513d601f19601f820116820180604052508101906117a3919061250f565b156117ad57919050565b3391505090565b8015610f2c5760008281526020858152604080832073ffffffffffffffffffffffffffffffffffffffff87168452909152902054818101818111611851576040517f42fb00bc00000000000000000000000000000000000000000000000000000000815273ffffffffffffffffffffffffffffffffffffffff861660048201526024810185905260448101839052606481018490526084016109a1565b60009384526020958652604080852073ffffffffffffffffffffffffffffffffffffffff9690961685529490955250502055565b6040517fbc197c81000000000000000000000000000000000000000000000000000000008082529073ffffffffffffffffffffffffffffffffffffffff86169063bc197c81906118e1908a908a90899089908990600401612590565b6020604051808303816000875af1158015611900573d6000803e3d6000fd5b505050506040513d601f19601f82011682018060405250810190611924919061260d565b7fffffffff0000000000000000000000000000000000000000000000000000000016146105ba578383836040517fc287817e0000000000000000000000000000000000000000000000000000000081526004016109a19392919061262a565b60008173ffffffffffffffffffffffffffffffffffffffff168373ffffffffffffffffffffffffffffffffffffffff1614806119f3575073ffffffffffffffffffffffffffffffffffffffff808416600090815260018601602090815260408083209386168352929052205460ff165b949350505050565b8015611ba25760008281526020868152604080832073ffffffffffffffffffffffffffffffffffffffff88168452909152902054818103818110611a98576040517f03dee4c500000000000000000000000000000000000000000000000000000000815273ffffffffffffffffffffffffffffffffffffffff871660048201526024810185905260448101839052606481018490526084016109a1565b8473ffffffffffffffffffffffffffffffffffffffff168673ffffffffffffffffffffffffffffffffffffffff1614610b305760008481526020888152604080832073ffffffffffffffffffffffffffffffffffffffff89168452909152902054838101818111611b62576040517f42fb00bc00000000000000000000000000000000000000000000000000000000815273ffffffffffffffffffffffffffffffffffffffff881660048201526024810187905260448101839052606481018690526084016109a1565b600086815260208a8152604080832073ffffffffffffffffffffffffffffffffffffffff808d1685528184528285208890558b1684529091529020555050505b5050505050565b36600033321480611bba5750601836105b15611bc85750600091369150565b3373ffffffffffffffffffffffffffffffffffffffff7f0000000000000000000000000000000000000000000000000000000000000000161480611d03575073ffffffffffffffffffffffffffffffffffffffff7f00000000000000000000000000000000000000000000000000000000000000001663019a2028367fffffffffffffffffffffffffffffffffffffffffffffffffffffffffffffffec013560601c6040517fffffffff0000000000000000000000000000000000000000000000000000000060e084901b16815273ffffffffffffffffffffffffffffffffffffffff9091166004820152336024820152306044820152606401602060405180830381865afa158015611cdf573d6000803e3d6000fd5b505050506040513d601f19601f82011682018060405250810190611d03919061250f565b15611d1057610505611e37565b50600091369150565b6040517ff23a6e61000000000000000000000000000000000000000000000000000000008082529073ffffffffffffffffffffffffffffffffffffffff86169063f23a6e6190611d75908a908a90899089908990600401612675565b6020604051808303816000875af1158015611d94573d6000803e3d6000fd5b505050506040513d601f19601f82011682018060405250810190611db8919061260d565b7fffffffff0000000000000000000000000000000000000000000000000000000016146105ba576040517f40f39d3800000000000000000000000000000000000000000000000000000000815273ffffffffffffffffffffffffffffffffffffffff8516600482015260248101849052604481018390526064016109a1565b3660006105057fffffffffffffffffffffffffffffffffffffffffffffffffffffffffffffffec83018284816126cc565b803573ffffffffffffffffffffffffffffffffffffffff81168114611e8c57600080fd5b919050565b60008060408385031215611ea457600080fd5b611ead83611e68565b946020939093013593505050565b7fffffffff00000000000000000000000000000000000000000000000000000000811681146105dd57600080fd5b600060208284031215611efb57600080fd5b8135611f0681611ebb565b9392505050565b60008083601f840112611f1f57600080fd5b50813567ffffffffffffffff811115611f3757600080fd5b6020830191508360208260051b8501011115611f5257600080fd5b9250929050565b60008083601f840112611f6b57600080fd5b50813567ffffffffffffffff811115611f8357600080fd5b602083019150836020828501011115611f5257600080fd5b60008060008060008060006080888a031215611fb657600080fd5b611fbf88611e68565b9650602088013567ffffffffffffffff811115611fdb57600080fd5b611fe78a828b01611f0d565b909750955050604088013567ffffffffffffffff81111561200757600080fd5b6120138a828b01611f0d565b909550935050606088013567ffffffffffffffff81111561203357600080fd5b61203f8a828b01611f59565b989b979a50959850939692959293505050565b60008060008060008060008060a0898b03121561206e57600080fd5b61207789611e68565b975061208560208a01611e68565b9650604089013567ffffffffffffffff8111156120a157600080fd5b6120ad8b828c01611f0d565b909750955050606089013567ffffffffffffffff8111156120cd57600080fd5b6120d98b828c01611f0d565b909550935050608089013567ffffffffffffffff8111156120f957600080fd5b6121058b828c01611f59565b999c989b5096995094979396929594505050565b6000806040838503121561212c57600080fd5b8235915061213c60208401611e68565b90509250929050565b60208152816020820152818360408301376000818301604090810191909152601f9092017fffffffffffffffffffffffffffffffffffffffffffffffffffffffffffffffe0160101919050565b600080600080604085870312156121a857600080fd5b843567ffffffffffffffff8111156121bf57600080fd5b6121cb87828801611f0d565b909550935050602085013567ffffffffffffffff8111156121eb57600080fd5b6121f787828801611f0d565b95989497509550505050565b600081518084526020840193506020830160005b82811015612235578151865260209586019590910190600101612217565b5093949350505050565b6020815260006103806020830184612203565b60006020828403121561226457600080fd5b61038082611e68565b60008060008060006080868803121561228557600080fd5b61228e86611e68565b94506020860135935060408601359250606086013567ffffffffffffffff8111156122b857600080fd5b6122c488828901611f59565b969995985093965092949392505050565b6000602082840312156122e757600080fd5b5035919050565b80151581146105dd57600080fd5b6000806040838503121561230f57600080fd5b61231883611e68565b91506020830135612328816122ee565b809150509250929050565b6000806040838503121561234657600080fd5b61234f83611e68565b915061213c60208401611e68565b60008060008060008060a0878903121561237657600080fd5b61237f87611e68565b955061238d60208801611e68565b94506040870135935060608701359250608087013567ffffffffffffffff8111156123b757600080fd5b6123c389828a01611f59565b979a9699509497509295939492505050565b81810381811115610383577f4e487b7100000000000000000000000000000000000000000000000000000000600052601160045260246000fd5b7f4e487b7100000000000000000000000000000000000000000000000000000000600052603260045260246000fd5b6040815260006124516040830185612203565b82810360208401526105278185612203565b81835260007f07ffffffffffffffffffffffffffffffffffffffffffffffffffffffffffffff83111561249557600080fd5b8260051b80836020870137939093016020019392505050565b6040815260006124c2604083018688612463565b82810360208401526124d5818587612463565b979650505050505050565b7f4e487b7100000000000000000000000000000000000000000000000000000000600052604160045260246000fd5b60006020828403121561252157600080fd5b8151611f06816122ee565b6000815180845260005b8181101561255257602081850181015186830182015201612536565b5060006020828601015260207fffffffffffffffffffffffffffffffffffffffffffffffffffffffffffffffe0601f83011685010191505092915050565b73ffffffffffffffffffffffffffffffffffffffff8616815273ffffffffffffffffffffffffffffffffffffffff8516602082015260a0604082015260006125db60a0830186612203565b82810360608401526125ed8186612203565b90508281036080840152612601818561252c565b98975050505050505050565b60006020828403121561261f57600080fd5b8151611f0681611ebb565b73ffffffffffffffffffffffffffffffffffffffff841681526060602082015260006126596060830185612203565b828103604084015261266b8185612203565b9695505050505050565b73ffffffffffffffffffffffffffffffffffffffff8616815273ffffffffffffffffffffffffffffffffffffffff8516602082015283604082015282606082015260a0608082015260006124d560a083018461252c565b600080858511156126dc57600080fd5b838611156126e957600080fd5b505082019391909203915056fea2646970667358221220ef40b04d999959d3f6a34582e06ea4a5ea4709cb036569e9b87a4e4615d5957e64736f6c634300081c0033",
  "linkReferences": {},
  "deployedLinkReferences": {}
}