{
  "_format": "hh-sol-artifact-1",
  "contractName": "TokenMetadataResolverRandomizedReveal",
  "sourceName": "contracts/token/metadata/TokenMetadataResolverRandomizedReveal.sol",
  "abi": [
    {
      "inputs": [
        {
          "internalType": "address",
          "name": "linkToken",
          "type": "address"
        },
        {
          "internalType": "address",
          "name": "vrfWrapper",
          "type": "address"
        }
      ],
      "stateMutability": "nonpayable",
      "type": "constructor"
    },
    {
      "inputs": [
        {
          "internalType": "address",
          "name": "tokenContract",
          "type": "address"
        }
      ],
      "name": "EmptyPostRevealBaseMetadataURI",
      "type": "error"
    },
    {
      "inputs": [
        {
          "internalType": "address",
          "name": "tokenContract",
          "type": "address"
        }
      ],
      "name": "EmptyPreRevealTokenMetadataURI",
      "type": "error"
    },
    {
      "inputs": [
        {
          "internalType": "address",
          "name": "targetContract",
          "type": "address"
        },
        {
          "internalType": "address",
          "name": "account",
          "type": "address"
        }
      ],
      "name": "NotTargetContractOwner",
      "type": "error"
    },
    {
      "inputs": [
        {
          "internalType": "address",
          "name": "tokenContract",
          "type": "address"
        }
      ],
      "name": "RevealAlreadyRequested",
      "type": "error"
    },
    {
      "inputs": [
        {
          "internalType": "address",
          "name": "targetContract",
          "type": "address"
        }
      ],
      "name": "TargetIsNotAContract",
      "type": "error"
    },
    {
      "inputs": [
        {
          "internalType": "address",
          "name": "tokenContract",
          "type": "address"
        }
      ],
      "name": "TokenDataNotSet",
      "type": "error"
    },
    {
      "inputs": [
        {
          "internalType": "address",
          "name": "tokenContract",
          "type": "address"
        }
      ],
      "name": "TokensAlreadyRevealed",
      "type": "error"
    },
    {
      "inputs": [
        {
          "internalType": "uint256",
          "name": "requestId",
          "type": "uint256"
        }
      ],
      "name": "UnknownRequestId",
      "type": "error"
    },
    {
      "inputs": [
        {
          "internalType": "address",
          "name": "wrongAddress",
          "type": "address"
        }
      ],
      "name": "WrongLINKTokenAddress",
      "type": "error"
    },
    {
      "inputs": [
        {
          "internalType": "address",
          "name": "tokenContract",
          "type": "address"
        }
      ],
      "name": "ZeroTokenSupply",
      "type": "error"
    },
    {
      "anonymous": false,
      "inputs": [
        {
          "indexed": false,
          "internalType": "address",
          "name": "tokenContract",
          "type": "address"
        },
        {
          "indexed": false,
          "internalType": "uint256",
          "name": "requestId",
          "type": "uint256"
        }
      ],
      "name": "RevealRequested",
      "type": "event"
    },
    {
      "anonymous": false,
      "inputs": [
        {
          "indexed": false,
          "internalType": "address",
          "name": "tokenContract",
          "type": "address"
        },
        {
          "indexed": false,
          "internalType": "string",
          "name": "preRevealTokenMetadataURI",
          "type": "string"
        },
        {
          "indexed": false,
          "internalType": "string",
          "name": "postRevealBaseMetadataURI",
          "type": "string"
        },
        {
          "indexed": false,
          "internalType": "uint256",
          "name": "tokenSupply",
          "type": "uint256"
        }
      ],
      "name": "TokenDataSet",
      "type": "event"
    },
    {
      "anonymous": false,
      "inputs": [
        {
          "indexed": false,
          "internalType": "address",
          "name": "tokenContract",
          "type": "address"
        },
        {
          "indexed": false,
          "internalType": "uint256",
          "name": "requestId",
          "type": "uint256"
        },
        {
          "indexed": false,
          "internalType": "uint256",
          "name": "metadataOffset",
          "type": "uint256"
        }
      ],
      "name": "TokensRevealed",
      "type": "event"
    },
    {
      "inputs": [],
      "name": "CHAINLINK_LINK_TOKEN",
      "outputs": [
        {
          "internalType": "contract LinkTokenInterface",
          "name": "",
          "type": "address"
        }
      ],
      "stateMutability": "view",
      "type": "function"
    },
    {
      "inputs": [],
      "name": "CHAINLINK_VRF_WRAPPER",
      "outputs": [
        {
          "internalType": "contract VRFV2WrapperInterface",
          "name": "",
          "type": "address"
        }
      ],
      "stateMutability": "view",
      "type": "function"
    },
    {
      "inputs": [
        {
          "internalType": "address",
          "name": "",
          "type": "address"
        }
      ],
      "name": "metadataOffset",
      "outputs": [
        {
          "internalType": "uint256",
          "name": "",
          "type": "uint256"
        }
      ],
      "stateMutability": "view",
      "type": "function"
    },
    {
      "inputs": [
        {
          "internalType": "address",
          "name": "",
          "type": "address"
        }
      ],
      "name": "postRevealBaseMetadataURI",
      "outputs": [
        {
          "internalType": "string",
          "name": "",
          "type": "string"
        }
      ],
      "stateMutability": "view",
      "type": "function"
    },
    {
      "inputs": [
        {
          "internalType": "address",
          "name": "",
          "type": "address"
        }
      ],
      "name": "preRevealTokenMetadataURI",
      "outputs": [
        {
          "internalType": "string",
          "name": "",
          "type": "string"
        }
      ],
      "stateMutability": "view",
      "type": "function"
    },
    {
      "inputs": [
        {
          "internalType": "uint256",
          "name": "_requestId",
          "type": "uint256"
        },
        {
          "internalType": "uint256[]",
          "name": "_randomWords",
          "type": "uint256[]"
        }
      ],
      "name": "rawFulfillRandomWords",
      "outputs": [],
      "stateMutability": "nonpayable",
      "type": "function"
    },
    {
      "inputs": [
        {
          "internalType": "uint256",
          "name": "",
          "type": "uint256"
        }
      ],
      "name": "requestIdToTokenContract",
      "outputs": [
        {
          "internalType": "address",
          "name": "",
          "type": "address"
        }
      ],
      "stateMutability": "view",
      "type": "function"
    },
    {
      "inputs": [
        {
          "internalType": "address",
          "name": "tokenContract",
          "type": "address"
        },
        {
          "internalType": "uint32",
          "name": "callbackGasLimit",
          "type": "uint32"
        },
        {
          "internalType": "uint16",
          "name": "requestConfirmations",
          "type": "uint16"
        }
      ],
      "name": "requestReveal",
      "outputs": [],
      "stateMutability": "nonpayable",
      "type": "function"
    },
    {
      "inputs": [
        {
          "internalType": "address",
          "name": "",
          "type": "address"
        }
      ],
      "name": "revealStatus",
      "outputs": [
        {
          "internalType": "enum TokenMetadataResolverRandomizedReveal.RevealStatus",
          "name": "",
          "type": "uint8"
        }
      ],
      "stateMutability": "view",
      "type": "function"
    },
    {
      "inputs": [
        {
          "internalType": "address",
          "name": "tokenContract",
          "type": "address"
        },
        {
          "internalType": "string",
          "name": "preRevealTokenURI",
          "type": "string"
        },
        {
          "internalType": "string",
          "name": "postRevealBaseURI",
          "type": "string"
        },
        {
          "internalType": "uint256",
          "name": "supply",
          "type": "uint256"
        }
      ],
      "name": "setTokenData",
      "outputs": [],
      "stateMutability": "nonpayable",
      "type": "function"
    },
    {
      "inputs": [
        {
          "internalType": "address",
          "name": "tokenContract",
          "type": "address"
        },
        {
          "internalType": "uint256",
          "name": "tokenId",
          "type": "uint256"
        }
      ],
      "name": "tokenMetadataURI",
      "outputs": [
        {
          "internalType": "string",
          "name": "tokenURI",
          "type": "string"
        }
      ],
      "stateMutability": "view",
      "type": "function"
    },
    {
      "inputs": [
        {
          "internalType": "address",
          "name": "",
          "type": "address"
        }
      ],
      "name": "tokenSupply",
      "outputs": [
        {
          "internalType": "uint256",
          "name": "",
          "type": "uint256"
        }
      ],
      "stateMutability": "view",
      "type": "function"
    }
  ],
  "bytecode": "0x60c060405234801561001057600080fd5b50604051611b35380380611b3583398101604081905261002f91610062565b6001600160a01b039182166080521660a052610095565b80516001600160a01b038116811461005d57600080fd5b919050565b6000806040838503121561007557600080fd5b61007e83610046565b915061008c60208401610046565b90509250929050565b60805160a051611a516100e4600039600081816102060152818161029b0152818161048d0152818161066c01526106df01526000818161024c0152818161054b015261062a0152611a516000f3fe608060405234801561001057600080fd5b50600436106100d35760003560e01c80636b0fce1311610081578063e643792e1161005b578063e643792e1461022a578063ee206f9d1461024a578063f724dad71461027057600080fd5b80636b0fce13146101de5780637c9bc105146101f1578063981e4cc21461020457600080fd5b806349855083116100b257806349855083146101605780634bf810d8146101905780636844d6fa146101be57600080fd5b80625e24de146100d85780631fe543e31461013857806328e82e431461014d575b600080fd5b61010e6100e6366004611208565b60056020526000908152604090205473ffffffffffffffffffffffffffffffffffffffff1681565b60405173ffffffffffffffffffffffffffffffffffffffff90911681526020015b60405180910390f35b61014b610146366004611250565b610283565b005b61014b61015b36600461136c565b610335565b61018361016e3660046113c7565b60036020526000908152604090205460ff1681565b60405161012f919061141a565b6101b061019e3660046113c7565b60046020526000908152604090205481565b60405190815260200161012f565b6101d16101cc3660046113c7565b610833565b60405161012f91906114c9565b6101d16101ec3660046113c7565b6108cd565b61014b6101ff366004611525565b6108e6565b7f000000000000000000000000000000000000000000000000000000000000000061010e565b6101b06102383660046113c7565b60026020526000908152604090205481565b7f000000000000000000000000000000000000000000000000000000000000000061010e565b6101d161027e3660046115b5565b610b5b565b3373ffffffffffffffffffffffffffffffffffffffff7f00000000000000000000000000000000000000000000000000000000000000001614610327576040517f08c379a000000000000000000000000000000000000000000000000000000000815260206004820152601f60248201527f6f6e6c792056524620563220777261707065722063616e2066756c66696c6c0060448201526064015b60405180910390fd5b6103318282610cf3565b5050565b61035573ffffffffffffffffffffffffffffffffffffffff841633610efc565b73ffffffffffffffffffffffffffffffffffffffff831660009081526002602052604081205490036103cb576040517f7f78e40300000000000000000000000000000000000000000000000000000000815273ffffffffffffffffffffffffffffffffffffffff8416600482015260240161031e565b600273ffffffffffffffffffffffffffffffffffffffff841660009081526003602052604090205460ff166002811115610407576104076113eb565b03610456576040517fd2a6a91e00000000000000000000000000000000000000000000000000000000815273ffffffffffffffffffffffffffffffffffffffff8416600482015260240161031e565b6040517f4306d35400000000000000000000000000000000000000000000000000000000815263ffffffff831660048201526000907f000000000000000000000000000000000000000000000000000000000000000073ffffffffffffffffffffffffffffffffffffffff1690634306d35490602401602060405180830381865afa1580156104e9573d6000803e3d6000fd5b505050506040513d601f19601f8201168201806040525081019061050d91906115e1565b6040517f23b872dd000000000000000000000000000000000000000000000000000000008152336004820152306024820152604481018290529091507f000000000000000000000000000000000000000000000000000000000000000073ffffffffffffffffffffffffffffffffffffffff16906323b872dd906064016020604051808303816000875af11580156105a9573d6000803e3d6000fd5b505050506040513d601f19601f820116820180604052508101906105cd91906115fa565b506040805163ffffffff8516602082015261ffff84168183015260016060808301919091528251808303909101815260808201928390527f4000aea0000000000000000000000000000000000000000000000000000000009092527f000000000000000000000000000000000000000000000000000000000000000073ffffffffffffffffffffffffffffffffffffffff1691634000aea091610697917f00000000000000000000000000000000000000000000000000000000000000009186919060840161161c565b6020604051808303816000875af11580156106b6573d6000803e3d6000fd5b505050506040513d601f19601f820116820180604052508101906106da91906115fa565b5060007f000000000000000000000000000000000000000000000000000000000000000073ffffffffffffffffffffffffffffffffffffffff1663fc2a88c36040518163ffffffff1660e01b8152600401602060405180830381865afa158015610748573d6000803e3d6000fd5b505050506040513d601f19601f8201168201806040525081019061076c91906115e1565b6000818152600560209081526040808320805473ffffffffffffffffffffffffffffffffffffffff8b167fffffffffffffffffffffffff00000000000000000000000000000000000000009091168117909155808452600383529281902080547fffffffffffffffffffffffffffffffffffffffffffffffffffffffffffffff0016600117905580519283529082018390529192507f40cafdc32fe56fc488360b1b38d2c0ae3ac896e631536bb4bae762e342f0e704910160405180910390a15050505050565b6000602081905290815260409020805461084c9061165a565b80601f01602080910402602001604051908101604052809291908181526020018280546108789061165a565b80156108c55780601f1061089a576101008083540402835291602001916108c5565b820191906000526020600020905b8154815290600101906020018083116108a857829003601f168201915b505050505081565b6001602052600090815260409020805461084c9061165a565b6000849003610939576040517f9e9de65d00000000000000000000000000000000000000000000000000000000815273ffffffffffffffffffffffffffffffffffffffff8716600482015260240161031e565b600082900361098c576040517fea1c6ea000000000000000000000000000000000000000000000000000000000815273ffffffffffffffffffffffffffffffffffffffff8716600482015260240161031e565b806000036109de576040517f0f63365800000000000000000000000000000000000000000000000000000000815273ffffffffffffffffffffffffffffffffffffffff8716600482015260240161031e565b6109fe73ffffffffffffffffffffffffffffffffffffffff871633610efc565b73ffffffffffffffffffffffffffffffffffffffff861660009081526003602052604081205460ff166002811115610a3857610a386113eb565b14610a87576040517f66daadea00000000000000000000000000000000000000000000000000000000815273ffffffffffffffffffffffffffffffffffffffff8716600482015260240161031e565b73ffffffffffffffffffffffffffffffffffffffff86166000908152602081905260409020610ab78587836116fc565b5073ffffffffffffffffffffffffffffffffffffffff86166000908152600160205260409020610ae88385836116fc565b5073ffffffffffffffffffffffffffffffffffffffff861660009081526002602052604090819020829055517f1e2c5cd029119717a495b3bafc43690a7584a3f26d1253838c2aacfdebae1f4390610b4b9088908890889088908890889061185f565b60405180910390a1505050505050565b6060600273ffffffffffffffffffffffffffffffffffffffff841660009081526003602052604090205460ff166002811115610b9957610b996113eb565b03610c3c5773ffffffffffffffffffffffffffffffffffffffff83166000908152600260209081526040808320546004909252822054610bd990856118b6565b610be391906118f0565b73ffffffffffffffffffffffffffffffffffffffff85166000908152600160205260409020909150610c1482610f5c565b604051602001610c2592919061192b565b604051602081830303815290604052915050610ced565b73ffffffffffffffffffffffffffffffffffffffff831660009081526020819052604090208054610c6c9061165a565b80601f0160208091040260200160405190810160405280929190818152602001828054610c989061165a565b8015610ce55780601f10610cba57610100808354040283529160200191610ce5565b820191906000526020600020905b815481529060010190602001808311610cc857829003601f168201915b505050505090505b92915050565b60008281526005602052604090205473ffffffffffffffffffffffffffffffffffffffff1680610d52576040517f597349fa0000000000000000000000000000000000000000000000000000000081526004810184905260240161031e565b600083815260056020526040902080547fffffffffffffffffffffffff0000000000000000000000000000000000000000169055600273ffffffffffffffffffffffffffffffffffffffff821660009081526003602052604090205460ff166002811115610dc257610dc26113eb565b03610e11576040517fd2a6a91e00000000000000000000000000000000000000000000000000000000815273ffffffffffffffffffffffffffffffffffffffff8216600482015260240161031e565b73ffffffffffffffffffffffffffffffffffffffff8116600090815260026020526040812054835184908390610e4957610e496119cf565b6020026020010151610e5b91906118f0565b73ffffffffffffffffffffffffffffffffffffffff83166000818152600460209081526040808320859055600382529182902080547fffffffffffffffffffffffffffffffffffffffffffffffffffffffffffffff001660021790558151928352820187905281018290529091507f4188cd09fa8447854490f2c7c4b3e63e3e8e55beb167c0bc1fd93e3fc30f49f89060600160405180910390a150505050565b610f06828261101a565b610331576040517f29b9b08b00000000000000000000000000000000000000000000000000000000815273ffffffffffffffffffffffffffffffffffffffff80841660048301528216602482015260440161031e565b60606000610f6983611126565b600101905060008167ffffffffffffffff811115610f8957610f89611221565b6040519080825280601f01601f191660200182016040528015610fb3576020820181803683370190505b5090508181016020015b7fffffffffffffffffffffffffffffffffffffffffffffffffffffffffffffffff017f3031323334353637383961626364656600000000000000000000000000000000600a86061a8153600a8504945084610fbd57509392505050565b600073ffffffffffffffffffffffffffffffffffffffff83163b611082576040517f73a5b5e300000000000000000000000000000000000000000000000000000000815273ffffffffffffffffffffffffffffffffffffffff8416600482015260240161031e565b8173ffffffffffffffffffffffffffffffffffffffff168373ffffffffffffffffffffffffffffffffffffffff16638da5cb5b6040518163ffffffff1660e01b8152600401602060405180830381865afa1580156110e4573d6000803e3d6000fd5b505050506040513d601f19601f8201168201806040525081019061110891906119fe565b73ffffffffffffffffffffffffffffffffffffffff16149392505050565b6000807a184f03e93ff9f4daa797ed6e38ed64bf6a1f010000000000000000831061116f577a184f03e93ff9f4daa797ed6e38ed64bf6a1f010000000000000000830492506040015b6d04ee2d6d415b85acef8100000000831061119b576d04ee2d6d415b85acef8100000000830492506020015b662386f26fc1000083106111b957662386f26fc10000830492506010015b6305f5e10083106111d1576305f5e100830492506008015b61271083106111e557612710830492506004015b606483106111f7576064830492506002015b600a8310610ced5760010192915050565b60006020828403121561121a57600080fd5b5035919050565b7f4e487b7100000000000000000000000000000000000000000000000000000000600052604160045260246000fd5b6000806040838503121561126357600080fd5b82359150602083013567ffffffffffffffff81111561128157600080fd5b8301601f8101851361129257600080fd5b803567ffffffffffffffff8111156112ac576112ac611221565b8060051b6040517fffffffffffffffffffffffffffffffffffffffffffffffffffffffffffffffe0603f830116810181811067ffffffffffffffff821117156112f7576112f7611221565b60405291825260208184018101929081018884111561131557600080fd5b6020850194505b838510156113385784358082526020958601959093500161131c565b50809450505050509250929050565b73ffffffffffffffffffffffffffffffffffffffff8116811461136957600080fd5b50565b60008060006060848603121561138157600080fd5b833561138c81611347565b9250602084013563ffffffff811681146113a557600080fd5b9150604084013561ffff811681146113bc57600080fd5b809150509250925092565b6000602082840312156113d957600080fd5b81356113e481611347565b9392505050565b7f4e487b7100000000000000000000000000000000000000000000000000000000600052602160045260246000fd5b6020810160038310611455577f4e487b7100000000000000000000000000000000000000000000000000000000600052602160045260246000fd5b91905290565b60005b8381101561147657818101518382015260200161145e565b50506000910152565b6000815180845261149781602086016020860161145b565b601f017fffffffffffffffffffffffffffffffffffffffffffffffffffffffffffffffe0169290920160200192915050565b6020815260006113e4602083018461147f565b60008083601f8401126114ee57600080fd5b50813567ffffffffffffffff81111561150657600080fd5b60208301915083602082850101111561151e57600080fd5b9250929050565b6000806000806000806080878903121561153e57600080fd5b863561154981611347565b9550602087013567ffffffffffffffff81111561156557600080fd5b61157189828a016114dc565b909650945050604087013567ffffffffffffffff81111561159157600080fd5b61159d89828a016114dc565b979a9699509497949695606090950135949350505050565b600080604083850312156115c857600080fd5b82356115d381611347565b946020939093013593505050565b6000602082840312156115f357600080fd5b5051919050565b60006020828403121561160c57600080fd5b815180151581146113e457600080fd5b73ffffffffffffffffffffffffffffffffffffffff84168152826020820152606060408201526000611651606083018461147f565b95945050505050565b600181811c9082168061166e57607f821691505b6020821081036116a7577f4e487b7100000000000000000000000000000000000000000000000000000000600052602260045260246000fd5b50919050565b601f8211156116f757806000526020600020601f840160051c810160208510156116d45750805b601f840160051c820191505b818110156116f457600081556001016116e0565b50505b505050565b67ffffffffffffffff83111561171457611714611221565b61172883611722835461165a565b836116ad565b6000601f84116001811461177a57600085156117445750838201355b7fffffffffffffffffffffffffffffffffffffffffffffffffffffffffffffffff600387901b1c1916600186901b1783556116f4565b6000838152602090207fffffffffffffffffffffffffffffffffffffffffffffffffffffffffffffffe0861690835b828110156117c957868501358255602094850194600190920191016117a9565b5086821015611804577fffffffffffffffffffffffffffffffffffffffffffffffffffffffffffffffff60f88860031b161c19848701351681555b505060018560011b0183555050505050565b8183528181602085013750600060208284010152600060207fffffffffffffffffffffffffffffffffffffffffffffffffffffffffffffffe0601f840116840101905092915050565b73ffffffffffffffffffffffffffffffffffffffff8716815260806020820152600061188f608083018789611816565b82810360408401526118a2818688611816565b915050826060830152979650505050505050565b80820180821115610ced577f4e487b7100000000000000000000000000000000000000000000000000000000600052601160045260246000fd5b600082611926577f4e487b7100000000000000000000000000000000000000000000000000000000600052601260045260246000fd5b500690565b60008084546119398161165a565b6001821680156119505760018114611983576119b3565b7fffffffffffffffffffffffffffffffffffffffffffffffffffffffffffffff00831686528115158202860193506119b3565b87600052602060002060005b838110156119ab5781548882015260019091019060200161198f565b505081860193505b50505083516119c681836020880161145b565b01949350505050565b7f4e487b7100000000000000000000000000000000000000000000000000000000600052603260045260246000fd5b600060208284031215611a1057600080fd5b81516113e48161134756fea2646970667358221220795f929afb321cd919b4e195c3e05d248989ed6d7b9b9128d29178d616e826a964736f6c634300081c0033",
  "linkReferences": {},
  "deployedLinkReferences": {}
}