{
  "_format": "hh-sol-artifact-1",
  "contractName": "TokenMetadataResolverRandomizedReveal",
  "sourceName": "contracts/token/metadata/TokenMetadataResolverRandomizedReveal.sol",
  "abi": [
    {
      "inputs": [
        {
          "internalType": "address",
          "name": "linkToken",
          "type": "address"
        },
        {
          "internalType": "address",
          "name": "vrfWrapper",
          "type": "address"
        }
      ],
      "stateMutability": "nonpayable",
      "type": "constructor"
    },
    {
      "inputs": [
        {
          "internalType": "address",
          "name": "tokenContract",
          "type": "address"
        }
      ],
      "name": "EmptyPostRevealBaseMetadataURI",
      "type": "error"
    },
    {
      "inputs": [
        {
          "internalType": "address",
          "name": "tokenContract",
          "type": "address"
        }
      ],
      "name": "EmptyPreRevealTokenMetadataURI",
      "type": "error"
    },
    {
      "inputs": [
        {
          "internalType": "address",
          "name": "targetContract",
          "type": "address"
        },
        {
          "internalType": "address",
          "name": "account",
          "type": "address"
        }
      ],
      "name": "NotTargetContractOwner",
      "type": "error"
    },
    {
      "inputs": [
        {
          "internalType": "address",
          "name": "tokenContract",
          "type": "address"
        }
      ],
      "name": "RevealAlreadyRequested",
      "type": "error"
    },
    {
      "inputs": [
        {
          "internalType": "address",
          "name": "targetContract",
          "type": "address"
        }
      ],
      "name": "TargetIsNotAContract",
      "type": "error"
    },
    {
      "inputs": [
        {
          "internalType": "address",
          "name": "tokenContract",
          "type": "address"
        }
      ],
      "name": "TokenDataNotSet",
      "type": "error"
    },
    {
      "inputs": [
        {
          "internalType": "address",
          "name": "tokenContract",
          "type": "address"
        }
      ],
      "name": "TokensAlreadyRevealed",
      "type": "error"
    },
    {
      "inputs": [
        {
          "internalType": "uint256",
          "name": "requestId",
          "type": "uint256"
        }
      ],
      "name": "UnknownRequestId",
      "type": "error"
    },
    {
      "inputs": [
        {
          "internalType": "address",
          "name": "wrongAddress",
          "type": "address"
        }
      ],
      "name": "WrongLINKTokenAddress",
      "type": "error"
    },
    {
      "inputs": [
        {
          "internalType": "address",
          "name": "tokenContract",
          "type": "address"
        }
      ],
      "name": "ZeroTokenSupply",
      "type": "error"
    },
    {
      "anonymous": false,
      "inputs": [
        {
          "indexed": false,
          "internalType": "address",
          "name": "tokenContract",
          "type": "address"
        },
        {
          "indexed": false,
          "internalType": "uint256",
          "name": "requestId",
          "type": "uint256"
        }
      ],
      "name": "RevealRequested",
      "type": "event"
    },
    {
      "anonymous": false,
      "inputs": [
        {
          "indexed": false,
          "internalType": "address",
          "name": "tokenContract",
          "type": "address"
        },
        {
          "indexed": false,
          "internalType": "string",
          "name": "preRevealTokenMetadataURI",
          "type": "string"
        },
        {
          "indexed": false,
          "internalType": "string",
          "name": "postRevealBaseMetadataURI",
          "type": "string"
        },
        {
          "indexed": false,
          "internalType": "uint256",
          "name": "tokenSupply",
          "type": "uint256"
        }
      ],
      "name": "TokenDataSet",
      "type": "event"
    },
    {
      "anonymous": false,
      "inputs": [
        {
          "indexed": false,
          "internalType": "address",
          "name": "tokenContract",
          "type": "address"
        },
        {
          "indexed": false,
          "internalType": "uint256",
          "name": "requestId",
          "type": "uint256"
        },
        {
          "indexed": false,
          "internalType": "uint256",
          "name": "metadataOffset",
          "type": "uint256"
        }
      ],
      "name": "TokensRevealed",
      "type": "event"
    },
    {
      "inputs": [],
      "name": "CHAINLINK_LINK_TOKEN",
      "outputs": [
        {
          "internalType": "contract LinkTokenInterface",
          "name": "",
          "type": "address"
        }
      ],
      "stateMutability": "view",
      "type": "function"
    },
    {
      "inputs": [],
      "name": "CHAINLINK_VRF_WRAPPER",
      "outputs": [
        {
          "internalType": "contract VRFV2WrapperInterface",
          "name": "",
          "type": "address"
        }
      ],
      "stateMutability": "view",
      "type": "function"
    },
    {
      "inputs": [
        {
          "internalType": "address",
          "name": "",
          "type": "address"
        }
      ],
      "name": "metadataOffset",
      "outputs": [
        {
          "internalType": "uint256",
          "name": "",
          "type": "uint256"
        }
      ],
      "stateMutability": "view",
      "type": "function"
    },
    {
      "inputs": [
        {
          "internalType": "address",
          "name": "",
          "type": "address"
        }
      ],
      "name": "postRevealBaseMetadataURI",
      "outputs": [
        {
          "internalType": "string",
          "name": "",
          "type": "string"
        }
      ],
      "stateMutability": "view",
      "type": "function"
    },
    {
      "inputs": [
        {
          "internalType": "address",
          "name": "",
          "type": "address"
        }
      ],
      "name": "preRevealTokenMetadataURI",
      "outputs": [
        {
          "internalType": "string",
          "name": "",
          "type": "string"
        }
      ],
      "stateMutability": "view",
      "type": "function"
    },
    {
      "inputs": [
        {
          "internalType": "uint256",
          "name": "_requestId",
          "type": "uint256"
        },
        {
          "internalType": "uint256[]",
          "name": "_randomWords",
          "type": "uint256[]"
        }
      ],
      "name": "rawFulfillRandomWords",
      "outputs": [],
      "stateMutability": "nonpayable",
      "type": "function"
    },
    {
      "inputs": [
        {
          "internalType": "uint256",
          "name": "",
          "type": "uint256"
        }
      ],
      "name": "requestIdToTokenContract",
      "outputs": [
        {
          "internalType": "address",
          "name": "",
          "type": "address"
        }
      ],
      "stateMutability": "view",
      "type": "function"
    },
    {
      "inputs": [
        {
          "internalType": "address",
          "name": "tokenContract",
          "type": "address"
        },
        {
          "internalType": "uint32",
          "name": "callbackGasLimit",
          "type": "uint32"
        },
        {
          "internalType": "uint16",
          "name": "requestConfirmations",
          "type": "uint16"
        }
      ],
      "name": "requestReveal",
      "outputs": [],
      "stateMutability": "nonpayable",
      "type": "function"
    },
    {
      "inputs": [
        {
          "internalType": "address",
          "name": "",
          "type": "address"
        }
      ],
      "name": "revealStatus",
      "outputs": [
        {
          "internalType": "enum TokenMetadataResolverRandomizedReveal.RevealStatus",
          "name": "",
          "type": "uint8"
        }
      ],
      "stateMutability": "view",
      "type": "function"
    },
    {
      "inputs": [
        {
          "internalType": "address",
          "name": "tokenContract",
          "type": "address"
        },
        {
          "internalType": "string",
          "name": "preRevealTokenURI",
          "type": "string"
        },
        {
          "internalType": "string",
          "name": "postRevealBaseURI",
          "type": "string"
        },
        {
          "internalType": "uint256",
          "name": "supply",
          "type": "uint256"
        }
      ],
      "name": "setTokenData",
      "outputs": [],
      "stateMutability": "nonpayable",
      "type": "function"
    },
    {
      "inputs": [
        {
          "internalType": "address",
          "name": "tokenContract",
          "type": "address"
        },
        {
          "internalType": "uint256",
          "name": "tokenId",
          "type": "uint256"
        }
      ],
      "name": "tokenMetadataURI",
      "outputs": [
        {
          "internalType": "string",
          "name": "tokenURI",
          "type": "string"
        }
      ],
      "stateMutability": "view",
      "type": "function"
    },
    {
      "inputs": [
        {
          "internalType": "address",
          "name": "",
          "type": "address"
        }
      ],
      "name": "tokenSupply",
      "outputs": [
        {
          "internalType": "uint256",
          "name": "",
          "type": "uint256"
        }
      ],
      "stateMutability": "view",
      "type": "function"
    }
  ],
  "bytecode": "0x60c06040523480156200001157600080fd5b5060405162001b3038038062001b30833981016040819052620000349162000069565b6001600160a01b039182166080521660a052620000a1565b80516001600160a01b03811681146200006457600080fd5b919050565b600080604083850312156200007d57600080fd5b62000088836200004c565b915062000098602084016200004c565b90509250929050565b60805160a051611a3f620000f1600039600081816102060152818161029b0152818161048d0152818161066c01526106df01526000818161024c0152818161054b015261062a0152611a3f6000f3fe608060405234801561001057600080fd5b50600436106100d35760003560e01c80636b0fce1311610081578063e643792e1161005b578063e643792e1461022a578063ee206f9d1461024a578063f724dad71461027057600080fd5b80636b0fce13146101de5780637c9bc105146101f1578063981e4cc21461020457600080fd5b806349855083116100b257806349855083146101605780634bf810d8146101905780636844d6fa146101be57600080fd5b80625e24de146100d85780631fe543e31461013857806328e82e431461014d575b600080fd5b61010e6100e6366004611208565b60056020526000908152604090205473ffffffffffffffffffffffffffffffffffffffff1681565b60405173ffffffffffffffffffffffffffffffffffffffff90911681526020015b60405180910390f35b61014b610146366004611250565b610283565b005b61014b61015b36600461135d565b610335565b61018361016e3660046113b8565b60036020526000908152604090205460ff1681565b60405161012f919061140b565b6101b061019e3660046113b8565b60046020526000908152604090205481565b60405190815260200161012f565b6101d16101cc3660046113b8565b610833565b60405161012f91906114ba565b6101d16101ec3660046113b8565b6108cd565b61014b6101ff366004611516565b6108e6565b7f000000000000000000000000000000000000000000000000000000000000000061010e565b6101b06102383660046113b8565b60026020526000908152604090205481565b7f000000000000000000000000000000000000000000000000000000000000000061010e565b6101d161027e3660046115a1565b610b5b565b3373ffffffffffffffffffffffffffffffffffffffff7f00000000000000000000000000000000000000000000000000000000000000001614610327576040517f08c379a000000000000000000000000000000000000000000000000000000000815260206004820152601f60248201527f6f6e6c792056524620563220777261707065722063616e2066756c66696c6c0060448201526064015b60405180910390fd5b6103318282610cf3565b5050565b61035573ffffffffffffffffffffffffffffffffffffffff841633610efc565b73ffffffffffffffffffffffffffffffffffffffff831660009081526002602052604081205490036103cb576040517f7f78e40300000000000000000000000000000000000000000000000000000000815273ffffffffffffffffffffffffffffffffffffffff8416600482015260240161031e565b600273ffffffffffffffffffffffffffffffffffffffff841660009081526003602052604090205460ff166002811115610407576104076113dc565b03610456576040517fd2a6a91e00000000000000000000000000000000000000000000000000000000815273ffffffffffffffffffffffffffffffffffffffff8416600482015260240161031e565b6040517f4306d35400000000000000000000000000000000000000000000000000000000815263ffffffff831660048201526000907f000000000000000000000000000000000000000000000000000000000000000073ffffffffffffffffffffffffffffffffffffffff1690634306d35490602401602060405180830381865afa1580156104e9573d6000803e3d6000fd5b505050506040513d601f19601f8201168201806040525081019061050d91906115cd565b6040517f23b872dd000000000000000000000000000000000000000000000000000000008152336004820152306024820152604481018290529091507f000000000000000000000000000000000000000000000000000000000000000073ffffffffffffffffffffffffffffffffffffffff16906323b872dd906064016020604051808303816000875af11580156105a9573d6000803e3d6000fd5b505050506040513d601f19601f820116820180604052508101906105cd91906115e6565b506040805163ffffffff8516602082015261ffff84168183015260016060808301919091528251808303909101815260808201928390527f4000aea0000000000000000000000000000000000000000000000000000000009092527f000000000000000000000000000000000000000000000000000000000000000073ffffffffffffffffffffffffffffffffffffffff1691634000aea091610697917f000000000000000000000000000000000000000000000000000000000000000091869190608401611608565b6020604051808303816000875af11580156106b6573d6000803e3d6000fd5b505050506040513d601f19601f820116820180604052508101906106da91906115e6565b5060007f000000000000000000000000000000000000000000000000000000000000000073ffffffffffffffffffffffffffffffffffffffff1663fc2a88c36040518163ffffffff1660e01b8152600401602060405180830381865afa158015610748573d6000803e3d6000fd5b505050506040513d601f19601f8201168201806040525081019061076c91906115cd565b6000818152600560209081526040808320805473ffffffffffffffffffffffffffffffffffffffff8b167fffffffffffffffffffffffff00000000000000000000000000000000000000009091168117909155808452600383529281902080547fffffffffffffffffffffffffffffffffffffffffffffffffffffffffffffff0016600117905580519283529082018390529192507f40cafdc32fe56fc488360b1b38d2c0ae3ac896e631536bb4bae762e342f0e704910160405180910390a15050505050565b6000602081905290815260409020805461084c90611646565b80601f016020809104026020016040519081016040528092919081815260200182805461087890611646565b80156108c55780601f1061089a576101008083540402835291602001916108c5565b820191906000526020600020905b8154815290600101906020018083116108a857829003601f168201915b505050505081565b6001602052600090815260409020805461084c90611646565b6000849003610939576040517f9e9de65d00000000000000000000000000000000000000000000000000000000815273ffffffffffffffffffffffffffffffffffffffff8716600482015260240161031e565b600082900361098c576040517fea1c6ea000000000000000000000000000000000000000000000000000000000815273ffffffffffffffffffffffffffffffffffffffff8716600482015260240161031e565b806000036109de576040517f0f63365800000000000000000000000000000000000000000000000000000000815273ffffffffffffffffffffffffffffffffffffffff8716600482015260240161031e565b6109fe73ffffffffffffffffffffffffffffffffffffffff871633610efc565b73ffffffffffffffffffffffffffffffffffffffff861660009081526003602052604081205460ff166002811115610a3857610a386113dc565b14610a87576040517f66daadea00000000000000000000000000000000000000000000000000000000815273ffffffffffffffffffffffffffffffffffffffff8716600482015260240161031e565b73ffffffffffffffffffffffffffffffffffffffff86166000908152602081905260409020610ab78587836116e8565b5073ffffffffffffffffffffffffffffffffffffffff86166000908152600160205260409020610ae88385836116e8565b5073ffffffffffffffffffffffffffffffffffffffff861660009081526002602052604090819020829055517f1e2c5cd029119717a495b3bafc43690a7584a3f26d1253838c2aacfdebae1f4390610b4b9088908890889088908890889061184c565b60405180910390a1505050505050565b6060600273ffffffffffffffffffffffffffffffffffffffff841660009081526003602052604090205460ff166002811115610b9957610b996113dc565b03610c3c5773ffffffffffffffffffffffffffffffffffffffff83166000908152600260209081526040808320546004909252822054610bd990856118a3565b610be391906118dd565b73ffffffffffffffffffffffffffffffffffffffff85166000908152600160205260409020909150610c1482610f5c565b604051602001610c25929190611918565b604051602081830303815290604052915050610ced565b73ffffffffffffffffffffffffffffffffffffffff831660009081526020819052604090208054610c6c90611646565b80601f0160208091040260200160405190810160405280929190818152602001828054610c9890611646565b8015610ce55780601f10610cba57610100808354040283529160200191610ce5565b820191906000526020600020905b815481529060010190602001808311610cc857829003601f168201915b505050505090505b92915050565b60008281526005602052604090205473ffffffffffffffffffffffffffffffffffffffff1680610d52576040517f597349fa0000000000000000000000000000000000000000000000000000000081526004810184905260240161031e565b600083815260056020526040902080547fffffffffffffffffffffffff0000000000000000000000000000000000000000169055600273ffffffffffffffffffffffffffffffffffffffff821660009081526003602052604090205460ff166002811115610dc257610dc26113dc565b03610e11576040517fd2a6a91e00000000000000000000000000000000000000000000000000000000815273ffffffffffffffffffffffffffffffffffffffff8216600482015260240161031e565b73ffffffffffffffffffffffffffffffffffffffff8116600090815260026020526040812054835184908390610e4957610e496119bd565b6020026020010151610e5b91906118dd565b73ffffffffffffffffffffffffffffffffffffffff83166000818152600460209081526040808320859055600382529182902080547fffffffffffffffffffffffffffffffffffffffffffffffffffffffffffffff001660021790558151928352820187905281018290529091507f4188cd09fa8447854490f2c7c4b3e63e3e8e55beb167c0bc1fd93e3fc30f49f89060600160405180910390a150505050565b610f06828261101a565b610331576040517f29b9b08b00000000000000000000000000000000000000000000000000000000815273ffffffffffffffffffffffffffffffffffffffff80841660048301528216602482015260440161031e565b60606000610f6983611126565b600101905060008167ffffffffffffffff811115610f8957610f89611221565b6040519080825280601f01601f191660200182016040528015610fb3576020820181803683370190505b5090508181016020015b7fffffffffffffffffffffffffffffffffffffffffffffffffffffffffffffffff017f3031323334353637383961626364656600000000000000000000000000000000600a86061a8153600a8504945084610fbd57509392505050565b600073ffffffffffffffffffffffffffffffffffffffff83163b611082576040517f73a5b5e300000000000000000000000000000000000000000000000000000000815273ffffffffffffffffffffffffffffffffffffffff8416600482015260240161031e565b8173ffffffffffffffffffffffffffffffffffffffff168373ffffffffffffffffffffffffffffffffffffffff16638da5cb5b6040518163ffffffff1660e01b8152600401602060405180830381865afa1580156110e4573d6000803e3d6000fd5b505050506040513d601f19601f8201168201806040525081019061110891906119ec565b73ffffffffffffffffffffffffffffffffffffffff16149392505050565b6000807a184f03e93ff9f4daa797ed6e38ed64bf6a1f010000000000000000831061116f577a184f03e93ff9f4daa797ed6e38ed64bf6a1f010000000000000000830492506040015b6d04ee2d6d415b85acef8100000000831061119b576d04ee2d6d415b85acef8100000000830492506020015b662386f26fc1000083106111b957662386f26fc10000830492506010015b6305f5e10083106111d1576305f5e100830492506008015b61271083106111e557612710830492506004015b606483106111f7576064830492506002015b600a8310610ced5760010192915050565b60006020828403121561121a57600080fd5b5035919050565b7f4e487b7100000000000000000000000000000000000000000000000000000000600052604160045260246000fd5b6000806040838503121561126357600080fd5b8235915060208084013567ffffffffffffffff8082111561128357600080fd5b818601915086601f83011261129757600080fd5b8135818111156112a9576112a9611221565b8060051b6040517fffffffffffffffffffffffffffffffffffffffffffffffffffffffffffffffe0603f830116810181811085821117156112ec576112ec611221565b60405291825284820192508381018501918983111561130a57600080fd5b938501935b828510156113285784358452938501939285019261130f565b8096505050505050509250929050565b73ffffffffffffffffffffffffffffffffffffffff8116811461135a57600080fd5b50565b60008060006060848603121561137257600080fd5b833561137d81611338565b9250602084013563ffffffff8116811461139657600080fd5b9150604084013561ffff811681146113ad57600080fd5b809150509250925092565b6000602082840312156113ca57600080fd5b81356113d581611338565b9392505050565b7f4e487b7100000000000000000000000000000000000000000000000000000000600052602160045260246000fd5b6020810160038310611446577f4e487b7100000000000000000000000000000000000000000000000000000000600052602160045260246000fd5b91905290565b60005b8381101561146757818101518382015260200161144f565b50506000910152565b6000815180845261148881602086016020860161144c565b601f017fffffffffffffffffffffffffffffffffffffffffffffffffffffffffffffffe0169290920160200192915050565b6020815260006113d56020830184611470565b60008083601f8401126114df57600080fd5b50813567ffffffffffffffff8111156114f757600080fd5b60208301915083602082850101111561150f57600080fd5b9250929050565b6000806000806000806080878903121561152f57600080fd5b863561153a81611338565b9550602087013567ffffffffffffffff8082111561155757600080fd5b6115638a838b016114cd565b9097509550604089013591508082111561157c57600080fd5b5061158989828a016114cd565b979a9699509497949695606090950135949350505050565b600080604083850312156115b457600080fd5b82356115bf81611338565b946020939093013593505050565b6000602082840312156115df57600080fd5b5051919050565b6000602082840312156115f857600080fd5b815180151581146113d557600080fd5b73ffffffffffffffffffffffffffffffffffffffff8416815282602082015260606040820152600061163d6060830184611470565b95945050505050565b600181811c9082168061165a57607f821691505b602082108103611693577f4e487b7100000000000000000000000000000000000000000000000000000000600052602260045260246000fd5b50919050565b601f8211156116e357600081815260208120601f850160051c810160208610156116c05750805b601f850160051c820191505b818110156116df578281556001016116cc565b5050505b505050565b67ffffffffffffffff83111561170057611700611221565b6117148361170e8354611646565b83611699565b6000601f84116001811461176657600085156117305750838201355b7fffffffffffffffffffffffffffffffffffffffffffffffffffffffffffffffff600387901b1c1916600186901b1783556117fc565b6000838152602090207fffffffffffffffffffffffffffffffffffffffffffffffffffffffffffffffe0861690835b828110156117b55786850135825560209485019460019092019101611795565b50868210156117f0577fffffffffffffffffffffffffffffffffffffffffffffffffffffffffffffffff60f88860031b161c19848701351681555b505060018560011b0183555b5050505050565b8183528181602085013750600060208284010152600060207fffffffffffffffffffffffffffffffffffffffffffffffffffffffffffffffe0601f840116840101905092915050565b73ffffffffffffffffffffffffffffffffffffffff8716815260806020820152600061187c608083018789611803565b828103604084015261188f818688611803565b915050826060830152979650505050505050565b80820180821115610ced577f4e487b7100000000000000000000000000000000000000000000000000000000600052601160045260246000fd5b600082611913577f4e487b7100000000000000000000000000000000000000000000000000000000600052601260045260246000fd5b500690565b600080845461192681611646565b6001828116801561193e5760018114611971576119a0565b7fffffffffffffffffffffffffffffffffffffffffffffffffffffffffffffff00841687528215158302870194506119a0565b8860005260208060002060005b858110156119975781548a82015290840190820161197e565b50505082870194505b5050505083516119b481836020880161144c565b01949350505050565b7f4e487b7100000000000000000000000000000000000000000000000000000000600052603260045260246000fd5b6000602082840312156119fe57600080fd5b81516113d58161133856fea264697066735822122095048bc67d19b4daf28d87ea2e2dd78f4a2de7960c62d1a697caa3b058f0aee164736f6c63430008150033",
  "linkReferences": {},
  "deployedLinkReferences": {}
}