{
  "_format": "hh-sol-artifact-1",
  "contractName": "ProxyAdminFacet",
  "sourceName": "contracts/proxy/facets/ProxyAdminFacet.sol",
  "abi": [
    {
      "inputs": [
        {
          "internalType": "contract IForwarderRegistry",
          "name": "forwarderRegistry",
          "type": "address"
        }
      ],
      "stateMutability": "nonpayable",
      "type": "constructor"
    },
    {
      "anonymous": false,
      "inputs": [
        {
          "indexed": false,
          "internalType": "address",
          "name": "previousAdmin",
          "type": "address"
        },
        {
          "indexed": false,
          "internalType": "address",
          "name": "newAdmin",
          "type": "address"
        }
      ],
      "name": "AdminChanged",
      "type": "event"
    },
    {
      "inputs": [
        {
          "internalType": "address",
          "name": "newAdmin",
          "type": "address"
        }
      ],
      "name": "changeProxyAdmin",
      "outputs": [],
      "stateMutability": "nonpayable",
      "type": "function"
    },
    {
      "inputs": [
        {
          "internalType": "address",
          "name": "initialAdmin",
          "type": "address"
        }
      ],
      "name": "initProxyAdminStorage",
      "outputs": [],
      "stateMutability": "nonpayable",
      "type": "function"
    },
    {
      "inputs": [],
      "name": "proxyAdmin",
      "outputs": [
        {
          "internalType": "address",
          "name": "admin",
          "type": "address"
        }
      ],
      "stateMutability": "view",
      "type": "function"
    }
  ],
  "bytecode": "0x60a060405234801561001057600080fd5b506040516106e63803806106e683398101604081905261002f91610040565b6001600160a01b0316608052610070565b60006020828403121561005257600080fd5b81516001600160a01b038116811461006957600080fd5b9392505050565b60805161065461009260003960008181610465015261050501526106546000f3fe608060405234801561001057600080fd5b50600436106100415760003560e01c80633e47158c146100465780634d350622146100775780639f712f2f1461008c575b600080fd5b61004e61009f565b60405173ffffffffffffffffffffffffffffffffffffffff909116815260200160405180910390f35b61008a610085366004610581565b6100cb565b005b61008a61009a366004610581565b6100e0565b60006100c66100ac6100fb565b5473ffffffffffffffffffffffffffffffffffffffff1690565b905090565b6100dd816100d76100fb565b9061012f565b50565b6100dd6100eb610172565b826100f46100fb565b919061017c565b60008061012960017fb53127684a568b3173ae13b9f8a6016e243e63b6e8ee1178d6a717850b5d61046105be565b92915050565b61016461015d60017fc4214a2a0bb1b53325bec6bf1dc591abd32036bb3f39039f460ac4a3eb0f72986105be565b60016102bd565b61016e828261032d565b5050565b60006100c6610429565b825473ffffffffffffffffffffffffffffffffffffffff9081169083168114610206576040517f08c379a000000000000000000000000000000000000000000000000000000000815260206004820152601960248201527f50726f787941646d696e3a206e6f74207468652061646d696e0000000000000060448201526064015b60405180910390fd5b8173ffffffffffffffffffffffffffffffffffffffff168173ffffffffffffffffffffffffffffffffffffffff16146102b75783547fffffffffffffffffffffffff00000000000000000000000000000000000000001673ffffffffffffffffffffffffffffffffffffffff838116918217865560408051918416825260208201929092527f7e644d79422f17c01e4894b5f4f588d331ebfa28653d42ae832dc59e38c9798f910160405180910390a15b50505050565b815482908211610329576040517f08c379a000000000000000000000000000000000000000000000000000000000815260206004820152601660248201527f53746f726167653a20706861736520726561636865640000000000000000000060448201526064016101fd565b5550565b73ffffffffffffffffffffffffffffffffffffffff81166103aa576040517f08c379a000000000000000000000000000000000000000000000000000000000815260206004820152601c60248201527f50726f787941646d696e3a206e6f20696e697469616c2061646d696e0000000060448201526064016101fd565b81547fffffffffffffffffffffffff00000000000000000000000000000000000000001673ffffffffffffffffffffffffffffffffffffffff82169081178355604080516000815260208101929092527f7e644d79422f17c01e4894b5f4f588d331ebfa28653d42ae832dc59e38c9798f910160405180910390a15050565b60003332810361043857919050565b6000367fffffffffffffffffffffffffffffffffffffffffffffffffffffffffffffffec013560601c90507f000000000000000000000000000000000000000000000000000000000000000073ffffffffffffffffffffffffffffffffffffffff168273ffffffffffffffffffffffffffffffffffffffff16148061057057506040517fe60125d600000000000000000000000000000000000000000000000000000000815273ffffffffffffffffffffffffffffffffffffffff828116600483015283811660248301527f0000000000000000000000000000000000000000000000000000000000000000169063e60125d690604401602060405180830381865afa15801561054c573d6000803e3d6000fd5b505050506040513d601f19601f8201168201806040525081019061057091906105fc565b1561057b5792915050565b50919050565b60006020828403121561059357600080fd5b813573ffffffffffffffffffffffffffffffffffffffff811681146105b757600080fd5b9392505050565b6000828210156105f7577f4e487b7100000000000000000000000000000000000000000000000000000000600052601160045260246000fd5b500390565b60006020828403121561060e57600080fd5b815180151581146105b757600080fdfea26469706673582212204e94d4fd58eab381e434e4d44a857600a7e8700775397fa1f71a0b51188ee6a164736f6c634300080f0033",
  "linkReferences": {},
  "deployedLinkReferences": {}
}