{
  "_format": "hh-sol-artifact-1",
  "contractName": "PauseFacet",
  "sourceName": "contracts/lifecycle/facets/PauseFacet.sol",
  "abi": [
    {
      "inputs": [
        {
          "internalType": "contract IForwarderRegistry",
          "name": "forwarderRegistry",
          "type": "address"
        }
      ],
      "stateMutability": "nonpayable",
      "type": "constructor"
    },
    {
      "inputs": [
        {
          "internalType": "uint256",
          "name": "currentPhase",
          "type": "uint256"
        },
        {
          "internalType": "uint256",
          "name": "newPhase",
          "type": "uint256"
        }
      ],
      "name": "InitializationPhaseAlreadyReached",
      "type": "error"
    },
    {
      "inputs": [
        {
          "internalType": "address",
          "name": "account",
          "type": "address"
        }
      ],
      "name": "NotContractOwner",
      "type": "error"
    },
    {
      "inputs": [],
      "name": "NotPaused",
      "type": "error"
    },
    {
      "inputs": [
        {
          "internalType": "address",
          "name": "account",
          "type": "address"
        }
      ],
      "name": "NotProxyAdmin",
      "type": "error"
    },
    {
      "inputs": [],
      "name": "Paused",
      "type": "error"
    },
    {
      "anonymous": false,
      "inputs": [],
      "name": "Paused",
      "type": "event"
    },
    {
      "anonymous": false,
      "inputs": [],
      "name": "Unpaused",
      "type": "event"
    },
    {
      "inputs": [
        {
          "internalType": "bool",
          "name": "isPaused",
          "type": "bool"
        }
      ],
      "name": "initPauseStorage",
      "outputs": [],
      "stateMutability": "nonpayable",
      "type": "function"
    },
    {
      "inputs": [],
      "name": "pause",
      "outputs": [],
      "stateMutability": "nonpayable",
      "type": "function"
    },
    {
      "inputs": [],
      "name": "paused",
      "outputs": [
        {
          "internalType": "bool",
          "name": "",
          "type": "bool"
        }
      ],
      "stateMutability": "view",
      "type": "function"
    },
    {
      "inputs": [],
      "name": "unpause",
      "outputs": [],
      "stateMutability": "nonpayable",
      "type": "function"
    }
  ],
  "bytecode": "0x60a060405234801561000f575f80fd5b5060405161072b38038061072b83398101604081905261002e9161003f565b6001600160a01b031660805261006c565b5f6020828403121561004f575f80fd5b81516001600160a01b0381168114610065575f80fd5b9392505050565b6080516106a061008b5f395f81816103c8015261045001526106a05ff3fe608060405234801561000f575f80fd5b506004361061004a575f3560e01c80633f4ba83a1461004e5780635c975abb146100585780638456cb5914610074578063b606577c1461007c575b5f80fd5b61005661008f565b005b6100606100ba565b604051901515815260200160405180910390f35b6100566100d2565b61005661008a3660046105f5565b6100ed565b6100a861009a61011b565b6100a2610124565b90610157565b6100b86100b36101cb565b6101f8565b565b5f6100cd6100c66101cb565b5460ff1690565b905090565b6100dd61009a61011b565b6100b86100e86101cb565b610252565b6101066100f861011b565b6101006102af565b906102dc565b610118816101126101cb565b90610347565b50565b5f6100cd610386565b5f8061015160017fc9ed16f33ab3a66c84bfd83099ccb2a8845871e2e1c1928f63797152f0fd54cd610617565b92915050565b815473ffffffffffffffffffffffffffffffffffffffff8281169116146101c7576040517f2ef4875e00000000000000000000000000000000000000000000000000000000815273ffffffffffffffffffffffffffffffffffffffff821660048201526024015b60405180910390fd5b5050565b5f8061015160017f0186a05f63b1553398ad5ea3233c0ce68b8c9eecc47717f123c5c2b42fbd6d9f610617565b610201816104ca565b80547fffffffffffffffffffffffffffffffffffffffffffffffffffffffffffffff001681556040517fa45f47fdea8a1efdd9029a5691c7f759c32b7c698632b563573e155625d16933905f90a150565b61025b81610505565b80547fffffffffffffffffffffffffffffffffffffffffffffffffffffffffffffff001660011781556040517f9e87fac88ff661f02d44f95383c817fece4bce600a3dab7a54406878b965e752905f90a150565b5f8061015160017fb53127684a568b3173ae13b9f8a6016e243e63b6e8ee1178d6a717850b5d6104610617565b815473ffffffffffffffffffffffffffffffffffffffff8281169116146101c7576040517f673a31a100000000000000000000000000000000000000000000000000000000815273ffffffffffffffffffffffffffffffffffffffff821660048201526024016101be565b61037c61037560017f3bee9ead429adf7e232b4f4b772a209623333b43e5466fc9b9a766da96c2ae0f610617565b6001610541565b6101c7828261058d565b5f333214806103955750601836105b1561039f57503390565b7fffffffffffffffffffffffffffffffffffffffffffffffffffffffffffffffec36013560601c7f000000000000000000000000000000000000000000000000000000000000000073ffffffffffffffffffffffffffffffffffffffff163314806104b957506040517f8929a8ca00000000000000000000000000000000000000000000000000000000815273ffffffffffffffffffffffffffffffffffffffff82811660048301523360248301527f00000000000000000000000000000000000000000000000000000000000000001690638929a8ca90604401602060405180830381865afa158015610495573d5f803e3d5ffd5b505050506040513d601f19601f820116820180604052508101906104b9919061064f565b156104c357919050565b3391505090565b805460ff16610118576040517f6cd6020100000000000000000000000000000000000000000000000000000000815260040160405180910390fd5b805460ff1615610118576040517f9e87fac800000000000000000000000000000000000000000000000000000000815260040160405180910390fd5b81548290828110610588576040517fbf0c18ec00000000000000000000000000000000000000000000000000000000815260048101829052602481018490526044016101be565b505550565b80156101c75781547fffffffffffffffffffffffffffffffffffffffffffffffffffffffffffffff001660011782556040517f9e87fac88ff661f02d44f95383c817fece4bce600a3dab7a54406878b965e752905f90a15050565b8015158114610118575f80fd5b5f60208284031215610605575f80fd5b8135610610816105e8565b9392505050565b81810381811115610151577f4e487b71000000000000000000000000000000000000000000000000000000005f52601160045260245ffd5b5f6020828403121561065f575f80fd5b8151610610816105e856fea26469706673582212204aa43a85035198ce4ee277261647679653ddba9a08bd734af4f258124cb9ad1d64736f6c63430008150033",
  "linkReferences": {},
  "deployedLinkReferences": {}
}