{
  "_format": "hh-sol-artifact-1",
  "contractName": "ERC20Mock",
  "sourceName": "contracts/mocks/token/ERC20/ERC20Mock.sol",
  "abi": [
    {
      "inputs": [
        {
          "internalType": "address[]",
          "name": "holders",
          "type": "address[]"
        },
        {
          "internalType": "uint256[]",
          "name": "allocations",
          "type": "uint256[]"
        },
        {
          "internalType": "string",
          "name": "name_",
          "type": "string"
        },
        {
          "internalType": "string",
          "name": "symbol_",
          "type": "string"
        },
        {
          "internalType": "uint8",
          "name": "decimals_",
          "type": "uint8"
        },
        {
          "internalType": "string",
          "name": "tokenURI_",
          "type": "string"
        },
        {
          "internalType": "contract IForwarderRegistry",
          "name": "forwarderRegistry",
          "type": "address"
        }
      ],
      "stateMutability": "nonpayable",
      "type": "constructor"
    },
    {
      "anonymous": false,
      "inputs": [
        {
          "indexed": true,
          "internalType": "address",
          "name": "owner",
          "type": "address"
        },
        {
          "indexed": true,
          "internalType": "address",
          "name": "spender",
          "type": "address"
        },
        {
          "indexed": false,
          "internalType": "uint256",
          "name": "value",
          "type": "uint256"
        }
      ],
      "name": "Approval",
      "type": "event"
    },
    {
      "anonymous": false,
      "inputs": [
        {
          "indexed": true,
          "internalType": "address",
          "name": "previousOwner",
          "type": "address"
        },
        {
          "indexed": true,
          "internalType": "address",
          "name": "newOwner",
          "type": "address"
        }
      ],
      "name": "OwnershipTransferred",
      "type": "event"
    },
    {
      "anonymous": false,
      "inputs": [
        {
          "indexed": false,
          "internalType": "bytes32",
          "name": "role",
          "type": "bytes32"
        },
        {
          "indexed": false,
          "internalType": "address",
          "name": "account",
          "type": "address"
        },
        {
          "indexed": false,
          "internalType": "address",
          "name": "operator",
          "type": "address"
        }
      ],
      "name": "RoleGranted",
      "type": "event"
    },
    {
      "anonymous": false,
      "inputs": [
        {
          "indexed": false,
          "internalType": "bytes32",
          "name": "role",
          "type": "bytes32"
        },
        {
          "indexed": false,
          "internalType": "address",
          "name": "account",
          "type": "address"
        },
        {
          "indexed": false,
          "internalType": "address",
          "name": "operator",
          "type": "address"
        }
      ],
      "name": "RoleRevoked",
      "type": "event"
    },
    {
      "anonymous": false,
      "inputs": [
        {
          "indexed": true,
          "internalType": "address",
          "name": "from",
          "type": "address"
        },
        {
          "indexed": true,
          "internalType": "address",
          "name": "to",
          "type": "address"
        },
        {
          "indexed": false,
          "internalType": "uint256",
          "name": "value",
          "type": "uint256"
        }
      ],
      "name": "Transfer",
      "type": "event"
    },
    {
      "inputs": [],
      "name": "DOMAIN_SEPARATOR",
      "outputs": [
        {
          "internalType": "bytes32",
          "name": "",
          "type": "bytes32"
        }
      ],
      "stateMutability": "view",
      "type": "function"
    },
    {
      "inputs": [],
      "name": "MINTER_ROLE",
      "outputs": [
        {
          "internalType": "bytes32",
          "name": "",
          "type": "bytes32"
        }
      ],
      "stateMutability": "view",
      "type": "function"
    },
    {
      "inputs": [],
      "name": "__msgData",
      "outputs": [
        {
          "internalType": "bytes",
          "name": "",
          "type": "bytes"
        }
      ],
      "stateMutability": "view",
      "type": "function"
    },
    {
      "inputs": [
        {
          "internalType": "address",
          "name": "owner",
          "type": "address"
        },
        {
          "internalType": "address",
          "name": "spender",
          "type": "address"
        }
      ],
      "name": "allowance",
      "outputs": [
        {
          "internalType": "uint256",
          "name": "",
          "type": "uint256"
        }
      ],
      "stateMutability": "view",
      "type": "function"
    },
    {
      "inputs": [
        {
          "internalType": "address",
          "name": "spender",
          "type": "address"
        },
        {
          "internalType": "uint256",
          "name": "value",
          "type": "uint256"
        }
      ],
      "name": "approve",
      "outputs": [
        {
          "internalType": "bool",
          "name": "",
          "type": "bool"
        }
      ],
      "stateMutability": "nonpayable",
      "type": "function"
    },
    {
      "inputs": [
        {
          "internalType": "address",
          "name": "account",
          "type": "address"
        }
      ],
      "name": "balanceOf",
      "outputs": [
        {
          "internalType": "uint256",
          "name": "",
          "type": "uint256"
        }
      ],
      "stateMutability": "view",
      "type": "function"
    },
    {
      "inputs": [
        {
          "internalType": "address[]",
          "name": "recipients",
          "type": "address[]"
        },
        {
          "internalType": "uint256[]",
          "name": "values",
          "type": "uint256[]"
        }
      ],
      "name": "batchMint",
      "outputs": [],
      "stateMutability": "nonpayable",
      "type": "function"
    },
    {
      "inputs": [
        {
          "internalType": "address[]",
          "name": "recipients",
          "type": "address[]"
        },
        {
          "internalType": "uint256[]",
          "name": "values",
          "type": "uint256[]"
        }
      ],
      "name": "batchTransfer",
      "outputs": [
        {
          "internalType": "bool",
          "name": "",
          "type": "bool"
        }
      ],
      "stateMutability": "nonpayable",
      "type": "function"
    },
    {
      "inputs": [
        {
          "internalType": "address",
          "name": "from",
          "type": "address"
        },
        {
          "internalType": "address[]",
          "name": "recipients",
          "type": "address[]"
        },
        {
          "internalType": "uint256[]",
          "name": "values",
          "type": "uint256[]"
        }
      ],
      "name": "batchTransferFrom",
      "outputs": [
        {
          "internalType": "bool",
          "name": "",
          "type": "bool"
        }
      ],
      "stateMutability": "nonpayable",
      "type": "function"
    },
    {
      "inputs": [],
      "name": "decimals",
      "outputs": [
        {
          "internalType": "uint8",
          "name": "",
          "type": "uint8"
        }
      ],
      "stateMutability": "view",
      "type": "function"
    },
    {
      "inputs": [
        {
          "internalType": "address",
          "name": "spender",
          "type": "address"
        },
        {
          "internalType": "uint256",
          "name": "subtractedValue",
          "type": "uint256"
        }
      ],
      "name": "decreaseAllowance",
      "outputs": [
        {
          "internalType": "bool",
          "name": "",
          "type": "bool"
        }
      ],
      "stateMutability": "nonpayable",
      "type": "function"
    },
    {
      "inputs": [
        {
          "internalType": "bytes32",
          "name": "role",
          "type": "bytes32"
        },
        {
          "internalType": "address",
          "name": "account",
          "type": "address"
        }
      ],
      "name": "grantRole",
      "outputs": [],
      "stateMutability": "nonpayable",
      "type": "function"
    },
    {
      "inputs": [
        {
          "internalType": "bytes32",
          "name": "role",
          "type": "bytes32"
        },
        {
          "internalType": "address",
          "name": "account",
          "type": "address"
        }
      ],
      "name": "hasRole",
      "outputs": [
        {
          "internalType": "bool",
          "name": "",
          "type": "bool"
        }
      ],
      "stateMutability": "view",
      "type": "function"
    },
    {
      "inputs": [
        {
          "internalType": "address",
          "name": "spender",
          "type": "address"
        },
        {
          "internalType": "uint256",
          "name": "addedValue",
          "type": "uint256"
        }
      ],
      "name": "increaseAllowance",
      "outputs": [
        {
          "internalType": "bool",
          "name": "",
          "type": "bool"
        }
      ],
      "stateMutability": "nonpayable",
      "type": "function"
    },
    {
      "inputs": [
        {
          "internalType": "address",
          "name": "to",
          "type": "address"
        },
        {
          "internalType": "uint256",
          "name": "value",
          "type": "uint256"
        }
      ],
      "name": "mint",
      "outputs": [],
      "stateMutability": "nonpayable",
      "type": "function"
    },
    {
      "inputs": [],
      "name": "name",
      "outputs": [
        {
          "internalType": "string",
          "name": "",
          "type": "string"
        }
      ],
      "stateMutability": "view",
      "type": "function"
    },
    {
      "inputs": [
        {
          "internalType": "address",
          "name": "account",
          "type": "address"
        }
      ],
      "name": "nonces",
      "outputs": [
        {
          "internalType": "uint256",
          "name": "",
          "type": "uint256"
        }
      ],
      "stateMutability": "view",
      "type": "function"
    },
    {
      "inputs": [],
      "name": "owner",
      "outputs": [
        {
          "internalType": "address",
          "name": "",
          "type": "address"
        }
      ],
      "stateMutability": "view",
      "type": "function"
    },
    {
      "inputs": [
        {
          "internalType": "address",
          "name": "owner",
          "type": "address"
        },
        {
          "internalType": "address",
          "name": "spender",
          "type": "address"
        },
        {
          "internalType": "uint256",
          "name": "value",
          "type": "uint256"
        },
        {
          "internalType": "uint256",
          "name": "deadline",
          "type": "uint256"
        },
        {
          "internalType": "uint8",
          "name": "v",
          "type": "uint8"
        },
        {
          "internalType": "bytes32",
          "name": "r",
          "type": "bytes32"
        },
        {
          "internalType": "bytes32",
          "name": "s",
          "type": "bytes32"
        }
      ],
      "name": "permit",
      "outputs": [],
      "stateMutability": "nonpayable",
      "type": "function"
    },
    {
      "inputs": [
        {
          "internalType": "bytes32",
          "name": "role",
          "type": "bytes32"
        }
      ],
      "name": "renounceRole",
      "outputs": [],
      "stateMutability": "nonpayable",
      "type": "function"
    },
    {
      "inputs": [
        {
          "internalType": "bytes32",
          "name": "role",
          "type": "bytes32"
        },
        {
          "internalType": "address",
          "name": "account",
          "type": "address"
        }
      ],
      "name": "revokeRole",
      "outputs": [],
      "stateMutability": "nonpayable",
      "type": "function"
    },
    {
      "inputs": [
        {
          "internalType": "address",
          "name": "to",
          "type": "address"
        },
        {
          "internalType": "uint256",
          "name": "value",
          "type": "uint256"
        },
        {
          "internalType": "bytes",
          "name": "data",
          "type": "bytes"
        }
      ],
      "name": "safeTransfer",
      "outputs": [
        {
          "internalType": "bool",
          "name": "",
          "type": "bool"
        }
      ],
      "stateMutability": "nonpayable",
      "type": "function"
    },
    {
      "inputs": [
        {
          "internalType": "address",
          "name": "from",
          "type": "address"
        },
        {
          "internalType": "address",
          "name": "to",
          "type": "address"
        },
        {
          "internalType": "uint256",
          "name": "value",
          "type": "uint256"
        },
        {
          "internalType": "bytes",
          "name": "data",
          "type": "bytes"
        }
      ],
      "name": "safeTransferFrom",
      "outputs": [
        {
          "internalType": "bool",
          "name": "",
          "type": "bool"
        }
      ],
      "stateMutability": "nonpayable",
      "type": "function"
    },
    {
      "inputs": [
        {
          "internalType": "string",
          "name": "uri",
          "type": "string"
        }
      ],
      "name": "setTokenURI",
      "outputs": [],
      "stateMutability": "nonpayable",
      "type": "function"
    },
    {
      "inputs": [
        {
          "internalType": "bytes4",
          "name": "interfaceId",
          "type": "bytes4"
        }
      ],
      "name": "supportsInterface",
      "outputs": [
        {
          "internalType": "bool",
          "name": "",
          "type": "bool"
        }
      ],
      "stateMutability": "view",
      "type": "function"
    },
    {
      "inputs": [],
      "name": "symbol",
      "outputs": [
        {
          "internalType": "string",
          "name": "",
          "type": "string"
        }
      ],
      "stateMutability": "view",
      "type": "function"
    },
    {
      "inputs": [],
      "name": "tokenURI",
      "outputs": [
        {
          "internalType": "string",
          "name": "",
          "type": "string"
        }
      ],
      "stateMutability": "view",
      "type": "function"
    },
    {
      "inputs": [],
      "name": "totalSupply",
      "outputs": [
        {
          "internalType": "uint256",
          "name": "",
          "type": "uint256"
        }
      ],
      "stateMutability": "view",
      "type": "function"
    },
    {
      "inputs": [
        {
          "internalType": "address",
          "name": "to",
          "type": "address"
        },
        {
          "internalType": "uint256",
          "name": "value",
          "type": "uint256"
        }
      ],
      "name": "transfer",
      "outputs": [
        {
          "internalType": "bool",
          "name": "",
          "type": "bool"
        }
      ],
      "stateMutability": "nonpayable",
      "type": "function"
    },
    {
      "inputs": [
        {
          "internalType": "address",
          "name": "from",
          "type": "address"
        },
        {
          "internalType": "address",
          "name": "to",
          "type": "address"
        },
        {
          "internalType": "uint256",
          "name": "value",
          "type": "uint256"
        }
      ],
      "name": "transferFrom",
      "outputs": [
        {
          "internalType": "bool",
          "name": "",
          "type": "bool"
        }
      ],
      "stateMutability": "nonpayable",
      "type": "function"
    },
    {
      "inputs": [
        {
          "internalType": "address",
          "name": "newOwner",
          "type": "address"
        }
      ],
      "name": "transferOwnership",
      "outputs": [],
      "stateMutability": "nonpayable",
      "type": "function"
    }
  ],
  "bytecode": "0x60a06040523480156200001157600080fd5b5060405162004ac538038062004ac5833981016040819052620000349162000c04565b818585858a8a86803384846200006f82826200005a620001e060201b620009881760201c565b6200021660201b620009b6179092919060201c565b50506200009b6200008a620002c460201b62000a551760201c565b620002f460201b62000a831760201c565b620000c981620000b56200034c60201b62000add1760201c565b6200037c60201b62000b0b1790919060201c565b506200010263144b1f0f60e11b6001620000ed620002c460201b62000a551760201c565b6200042b60201b62000bef179092919060201c565b6001600160a01b031660805250620001469150849050838362000130620004b9602090811b62000ce417901c565b620004e960201b62000d1217909392919060201c565b5050506200017781620001636200058260201b62000dcc1760201c565b620005b260201b62000dfa1790919060201c565b506200018d6200061b60201b62000e691760201c565b620001b06353f41a9760e01b6001620000ed620002c460201b62000a551760201c565b620001d363602993f360e11b6001620000ed620002c460201b62000a551760201c565b5050505050505062000da8565b6000806200021060017f9b108a3a4d1bf9fcaf11faf730c194adcf4de5409616cf7026e57018b2743c2662000d20565b92915050565b6200025d6200024760017fbf8178f96cb346c7aa2973a71aa437d56873dd3ed827751d2dd2abe6f717100762000d20565b60001b60016200067160201b62000ec71760201c565b62000279828285620006e460201b62000f37179092919060201c565b6200029c6336372b0760e01b6001620000ed620002c460201b62000a551760201c565b620002bf634e83a8c360e11b6001620000ed620002c460201b62000a551760201c565b505050565b6000806200021060017f7180ffa89c91cf90d6c56dacabfc69bc5e36f3099d7eed2f5cc12c5dba016fe062000d20565b620003256200024760017f947245cdabe12ef4c13574b38217b361de48f57dd2dc345f43703c79bac2873d62000d20565b620003496301ffc9a760e01b6001836200042b60201b62000bef179092919060201c565b50565b6000806200021060017f6a1da6973104ff7dedb9b4f5cab5830b3f4a0284ed754366cfc45568bd2d38df62000d20565b620003ad6200024760017ff1e2f4de496ffe5d046d751d8ec3c329ee011c6c6a229322971a7e02a207f97362000d20565b6001600160a01b03811615620004045781546001600160a01b0319166001600160a01b03821690811783556040516000907f8be0079c531659141344cd1fd0a4f28419497f9722a3daafe3b4186f6b6457e0908290a35b620004276307f5828d60e41b6001620000ed620002c460201b62000a551760201c565b5050565b6001600160e01b031980831690036200048b5760405162461bcd60e51b815260206004820152601f60248201527f496e74657266616365446574656374696f6e3a2077726f6e672076616c75650060448201526064015b60405180910390fd5b6001600160e01b03199190911660009081526020929092526040909120805460ff1916911515919091179055565b6000806200021060017f5d1a7e6bea56cb3c56898fa84ba3a9d9b39af6b3bb8ddb151202affa90d1a6c162000d20565b6200051a6200024760017f93fe4185b5c3372309a848859957e3c67d2cbb559903fd51818e10075909ab1362000d20565b82516200052e908590602086019062000940565b50815162000546906001860190602085019062000940565b5060028401805460ff191660ff83161790556200057c63a219a02560e01b6001620000ed620002c4602090811b62000a5517901c565b50505050565b6000806200021060017fc87f43a14dc74565aeab7214ba5e19ad52d80ea872054c16beb27b00e72b6feb62000d20565b620005e36200024760017f549fae1d84472c847c31d7a237ccb8ce07bfaea941646b37e7bd4044c9d1ae7c62000d20565b8051620005f7908390602084019062000940565b50620004276303c130d960e41b6001620000ed620002c460201b62000a551760201c565b6200064c6200024760017f95ba67aaba42060bd66d13e9b8dd4b2e66edfe610eefbc1a5ad18df7e733579062000d20565b6200066f634ec7fbed60e11b6001620000ed620002c460201b62000a551760201c565b565b600062000689836200093d60201b620012171760201c565b905081816000015410620006e05760405162461bcd60e51b815260206004820152601860248201527f53746f726167653a2076657273696f6e20726561636865640000000000000000604482015260640162000482565b5550565b815181518114620007385760405162461bcd60e51b815260206004820152601a60248201527f45524332303a20696e636f6e73697374656e7420617272617973000000000000604482015260640162000482565b80600003620007475750505050565b6000805b828114620008ce5760008582815181106200076a576200076a62000d3a565b6020026020010151905060006001600160a01b0316816001600160a01b031603620007d85760405162461bcd60e51b815260206004820152601360248201527f45524332303a206d696e7420746f207a65726f00000000000000000000000000604482015260640162000482565b6000858381518110620007ef57620007ef62000d3a565b60200260200101519050806000146200087757838101848111620008565760405162461bcd60e51b815260206004820152601660248201527f45524332303a2076616c756573206f766572666c6f7700000000000000000000604482015260640162000482565b6001600160a01b038316600090815260208a90526040902080548301905593505b6040518181526001600160a01b038316906000907fddf252ad1be2c89b69c2b068fc378daa952ba7f163c4a11628f55a4df523b3ef9060200160405180910390a3505080620008c69062000d50565b90506200074b565b508015620009365760028501548181018181116200092f5760405162461bcd60e51b815260206004820152601660248201527f45524332303a20737570706c79206f766572666c6f7700000000000000000000604482015260640162000482565b6002870155505b5050505050565b90565b8280546200094e9062000d6c565b90600052602060002090601f016020900481019282620009725760008555620009bd565b82601f106200098d57805160ff1916838001178555620009bd565b82800160010185558215620009bd579182015b82811115620009bd578251825591602001919060010190620009a0565b50620009cb929150620009cf565b5090565b5b80821115620009cb5760008155600101620009d0565b634e487b7160e01b600052604160045260246000fd5b604051601f8201601f191681016001600160401b038111828210171562000a275762000a27620009e6565b604052919050565b60006001600160401b0382111562000a4b5762000a4b620009e6565b5060051b60200190565b6001600160a01b03811681146200034957600080fd5b600082601f83011262000a7d57600080fd5b8151602062000a9662000a908362000a2f565b620009fc565b82815260059290921b8401810191818101908684111562000ab657600080fd5b8286015b8481101562000ade57805162000ad08162000a55565b835291830191830162000aba565b509695505050505050565b600082601f83011262000afb57600080fd5b8151602062000b0e62000a908362000a2f565b82815260059290921b8401810191818101908684111562000b2e57600080fd5b8286015b8481101562000ade578051835291830191830162000b32565b600082601f83011262000b5d57600080fd5b81516001600160401b0381111562000b795762000b79620009e6565b602062000b8f601f8301601f19168201620009fc565b828152858284870101111562000ba457600080fd5b60005b8381101562000bc457858101830151828201840152820162000ba7565b8381111562000bd65760008385840101525b5095945050505050565b805160ff8116811462000bf257600080fd5b919050565b805162000bf28162000a55565b600080600080600080600060e0888a03121562000c2057600080fd5b87516001600160401b038082111562000c3857600080fd5b62000c468b838c0162000a6b565b985060208a015191508082111562000c5d57600080fd5b62000c6b8b838c0162000ae9565b975060408a015191508082111562000c8257600080fd5b62000c908b838c0162000b4b565b965060608a015191508082111562000ca757600080fd5b62000cb58b838c0162000b4b565b955062000cc560808b0162000be0565b945060a08a015191508082111562000cdc57600080fd5b5062000ceb8a828b0162000b4b565b92505062000cfc60c0890162000bf7565b905092959891949750929550565b634e487b7160e01b600052601160045260246000fd5b60008282101562000d355762000d3562000d0a565b500390565b634e487b7160e01b600052603260045260246000fd5b60006001820162000d655762000d6562000d0a565b5060010190565b600181811c9082168062000d8157607f821691505b60208210810362000da257634e487b7160e01b600052602260045260246000fd5b50919050565b608051613cec62000dd960003960008181612f61015281816130010152818161309501526130ff0152613cec6000f3fe608060405234801561001057600080fd5b50600436106101e55760003560e01c80637ecebe001161010f578063b88d4fde116100a2578063dd62ed3e11610071578063dd62ed3e1461041e578063e0df5b6f14610431578063eb79554914610444578063f2fde38b1461045757600080fd5b8063b88d4fde146103be578063d505accf146103d1578063d5391393146103e4578063d547741f1461040b57600080fd5b806391d14854116100de57806391d148541461037d57806395d89b4114610390578063a457c2d714610398578063a9059cbb146103ab57600080fd5b80637ecebe001461031757806388d695b21461032a5780638bb9c5bf1461033d5780638da5cb5b1461035057600080fd5b806331e66e1e1161018757806340c10f191161015657806340c10f19146102cb5780634885b254146102de57806368573107146102f157806370a082311461030457600080fd5b806331e66e1e146102925780633644e515146102a857806339509351146102b05780633c130d90146102c357600080fd5b806318160ddd116101c357806318160ddd1461023a57806323b872dd146102505780632f2ff15d14610263578063313ce5671461027857600080fd5b806301ffc9a7146101ea57806306fdde0314610212578063095ea7b314610227575b600080fd5b6101fd6101f83660046132e6565b61046a565b60405190151581526020015b60405180910390f35b61021a6104b7565b604051610209919061332f565b6101fd6102353660046133a9565b61054f565b610242610577565b604051908152602001610209565b6101fd61025e3660046133d3565b61058a565b61027661027136600461340f565b6105b5565b005b6102806105ee565b60405160ff9091168152602001610209565b61029a610604565b604051610209929190613484565b610242610617565b6101fd6102be3660046133a9565b610626565b61021a610645565b6102766102d93660046133a9565b61064f565b6101fd6102ec36600461360f565b6106a2565b6102766102ff366004613683565b6106c3565b6102426103123660046136e7565b610703565b6102426103253660046136e7565b610739565b6101fd610338366004613683565b610743565b61027661034b366004613702565b610762565b610358610780565b60405173ffffffffffffffffffffffffffffffffffffffff9091168152602001610209565b6101fd61038b36600461340f565b6107a6565b61021a6107f1565b6101fd6103a63660046133a9565b610809565b6101fd6103b93660046133a9565b610828565b6101fd6103cc366004613764565b610847565b6102766103df3660046137d3565b610878565b6102427f6d696e746572000000000000000000000000000000000000000000000000000081565b61027661041936600461340f565b61089f565b61024261042c366004613846565b6108cd565b61027661043f366004613870565b610914565b6101fd610452366004613923565b61093f565b6102766104653660046136e7565b61096d565b60006104b182610478610a55565b907fffffffff00000000000000000000000000000000000000000000000000000000166000908152602091909152604090205460ff1690565b92915050565b60606104c1610ce4565b80546104cc9061397d565b80601f01602080910402602001604051908101604052809291908181526020018280546104f89061397d565b80156105455780601f1061051a57610100808354040283529160200191610545565b820191906000526020600020905b81548152906001019060200180831161052857829003601f168201915b5050505050905090565b600061056e61055c61121a565b8484610566610988565b929190611224565b50600192915050565b6000610581610988565b60020154905090565b60006105ab61059761121a565b8585856105a2610988565b93929190611313565b5060019392505050565b60006105bf61121a565b90506105d3816105cd610add565b9061135e565b6105e98383836105e16113e1565b92919061140f565b505050565b60006105f8610ce4565b6002015460ff16919050565b36600061060f6114e5565b915091509091565b60006106216114f0565b905090565b600061056e61063361121a565b848461063d610988565b929190611593565b60606104c1610dcc565b61068a7f6d696e746572000000000000000000000000000000000000000000000000000061067b61121a565b6106836113e1565b919061175f565b61069e8282610697610988565b919061180b565b5050565b60006105ab6106af61121a565b8585856106ba610988565b93929190611984565b6106ef7f6d696e746572000000000000000000000000000000000000000000000000000061067b61121a565b61069e82826106fc610988565b9190610f37565b600061070d610988565b73ffffffffffffffffffffffffffffffffffffffff909216600090815260209290925250604090205490565b600061070d611dbc565b600061056e61075061121a565b848461075a610988565b929190611dea565b61077d61076d61121a565b826107766113e1565b91906121e2565b50565b600061078a610add565b5473ffffffffffffffffffffffffffffffffffffffff16919050565b60006107ea83836107b56113e1565b60009283526020908152604080842073ffffffffffffffffffffffffffffffffffffffff909316845291905290205460ff1690565b9392505050565b60606107fb610ce4565b60010180546104cc9061397d565b600061056e61081661121a565b8484610820610988565b929190612286565b600061056e61083561121a565b848461083f610988565b9291906123d8565b600061086c61085461121a565b8787878787610861610988565b9594939291906125b9565b50600195945050505050565b6108968787878787878761088a611dbc565b9695949392919061270b565b50505050505050565b60006108a961121a565b90506108b7816105cd610add565b6105e98383836108c56113e1565b929190612a37565b60006108d7610988565b73ffffffffffffffffffffffffffffffffffffffff9384166000908152600191909101602090815260408083209490951682529290925250205490565b61092761091f61121a565b6105cd610add565b80610930610dcc565b815161069e926020019061321f565b600061096261094c61121a565b86868686610958610988565b9493929190612b01565b506001949350505050565b61077d61097861121a565b82610981610add565b9190612c5a565b6000806104b160017f9b108a3a4d1bf9fcaf11faf730c194adcf4de5409616cf7026e57018b2743c266139f9565b6109eb6109e460017fbf8178f96cb346c7aa2973a71aa437d56873dd3ed827751d2dd2abe6f71710076139f9565b6001610ec7565b6109f6838383610f37565b610a2b7f36372b07000000000000000000000000000000000000000000000000000000006001610a24610a55565b9190610bef565b6105e97f9d075186000000000000000000000000000000000000000000000000000000006001610a245b6000806104b160017f7180ffa89c91cf90d6c56dacabfc69bc5e36f3099d7eed2f5cc12c5dba016fe06139f9565b610ab16109e460017f947245cdabe12ef4c13574b38217b361de48f57dd2dc345f43703c79bac2873d6139f9565b61077d817f01ffc9a7000000000000000000000000000000000000000000000000000000006001610bef565b6000806104b160017f6a1da6973104ff7dedb9b4f5cab5830b3f4a0284ed754366cfc45568bd2d38df6139f9565b610b396109e460017ff1e2f4de496ffe5d046d751d8ec3c329ee011c6c6a229322971a7e02a207f9736139f9565b73ffffffffffffffffffffffffffffffffffffffff811615610bc15781547fffffffffffffffffffffffff00000000000000000000000000000000000000001673ffffffffffffffffffffffffffffffffffffffff821690811783556040516000907f8be0079c531659141344cd1fd0a4f28419497f9722a3daafe3b4186f6b6457e0908290a35b61069e7f7f5828d0000000000000000000000000000000000000000000000000000000006001610a24610a55565b7fffffffff000000000000000000000000000000000000000000000000000000008083169003610c80576040517f08c379a000000000000000000000000000000000000000000000000000000000815260206004820152601f60248201527f496e74657266616365446574656374696f6e3a2077726f6e672076616c75650060448201526064015b60405180910390fd5b7fffffffff00000000000000000000000000000000000000000000000000000000919091166000908152602092909252604090912080547fffffffffffffffffffffffffffffffffffffffffffffffffffffffffffffff0016911515919091179055565b6000806104b160017f5d1a7e6bea56cb3c56898fa84ba3a9d9b39af6b3bb8ddb151202affa90d1a6c16139f9565b610d406109e460017f93fe4185b5c3372309a848859957e3c67d2cbb559903fd51818e10075909ab136139f9565b8251610d52908590602086019061321f565b508151610d68906001860190602085019061321f565b506002840180547fffffffffffffffffffffffffffffffffffffffffffffffffffffffffffffff001660ff8316179055610dc67fa219a025000000000000000000000000000000000000000000000000000000006001610a24610a55565b50505050565b6000806104b160017fc87f43a14dc74565aeab7214ba5e19ad52d80ea872054c16beb27b00e72b6feb6139f9565b610e286109e460017f549fae1d84472c847c31d7a237ccb8ce07bfaea941646b37e7bd4044c9d1ae7c6139f9565b8051610e3a908390602084019061321f565b5061069e7f3c130d90000000000000000000000000000000000000000000000000000000006001610a24610a55565b610e976109e460017f95ba67aaba42060bd66d13e9b8dd4b2e66edfe610eefbc1a5ad18df7e73357906139f9565b610ec57f9d8ff7da000000000000000000000000000000000000000000000000000000006001610a24610a55565b565b815482908211610f33576040517f08c379a000000000000000000000000000000000000000000000000000000000815260206004820152601860248201527f53746f726167653a2076657273696f6e207265616368656400000000000000006044820152606401610c77565b5550565b815181518114610fa3576040517f08c379a000000000000000000000000000000000000000000000000000000000815260206004820152601a60248201527f45524332303a20696e636f6e73697374656e74206172726179730000000000006044820152606401610c77565b80600003610fb15750505050565b6000805b828114611191576000858281518110610fd057610fd0613a10565b60200260200101519050600073ffffffffffffffffffffffffffffffffffffffff168173ffffffffffffffffffffffffffffffffffffffff1603611070576040517f08c379a000000000000000000000000000000000000000000000000000000000815260206004820152601360248201527f45524332303a206d696e7420746f207a65726f000000000000000000000000006044820152606401610c77565b600085838151811061108457611084613a10565b602002602001015190508060001461113057838101848111611102576040517f08c379a000000000000000000000000000000000000000000000000000000000815260206004820152601660248201527f45524332303a2076616c756573206f766572666c6f77000000000000000000006044820152606401610c77565b73ffffffffffffffffffffffffffffffffffffffff8316600090815260208a90526040902080548301905593505b60405181815273ffffffffffffffffffffffffffffffffffffffff8316906000907fddf252ad1be2c89b69c2b068fc378daa952ba7f163c4a11628f55a4df523b3ef9060200160405180910390a350508061118a90613a3f565b9050610fb5565b508015611210576002850154818101818111611209576040517f08c379a000000000000000000000000000000000000000000000000000000000815260206004820152601660248201527f45524332303a20737570706c79206f766572666c6f77000000000000000000006044820152606401610c77565b6002870155505b5050505050565b90565b6000610621612d86565b73ffffffffffffffffffffffffffffffffffffffff82166112a1576040517f08c379a000000000000000000000000000000000000000000000000000000000815260206004820152601b60248201527f45524332303a207a65726f2061646472657373207370656e64657200000000006044820152606401610c77565b73ffffffffffffffffffffffffffffffffffffffff838116600081815260018701602090815260408083209487168084529482529182902085905590518481527f8c5be1e5ebec7d5bd14f71427d1e84f3dd0314c0f7b2291e5b200ac8c7c3b92591015b60405180910390a350505050565b8373ffffffffffffffffffffffffffffffffffffffff168373ffffffffffffffffffffffffffffffffffffffff16146113525761135285848684612286565b611210858484846123d8565b815473ffffffffffffffffffffffffffffffffffffffff82811691161461069e576040517f08c379a000000000000000000000000000000000000000000000000000000000815260206004820152601860248201527f4f776e6572736869703a206e6f7420746865206f776e657200000000000000006044820152606401610c77565b6000806104b160017fc8a24fbf085abf1493c5f225802d03df3ece6cd19f18edff36c56d854cddac9e6139f9565b60008381526020858152604080832073ffffffffffffffffffffffffffffffffffffffff8616845290915290205460ff16610dc65760008381526020858152604080832073ffffffffffffffffffffffffffffffffffffffff8681168086529184529382902080547fffffffffffffffffffffffffffffffffffffffffffffffffffffffffffffff00166001179055815187815292830152918316918101919091527f2f8788117e7eff1d82e926ec794901d17c78024a50270940304540a733656f0d906060015b60405180910390a150505050565b36600061060f612d90565b6000467f8b73c3c69bb8fe3d512ecc4cf759cc79239f7b179b0ffacaa9a75d522b39400f61151c610ce4565b6040516115299190613a77565b6040805191829003822060208301939093528101919091527fc89efdaa54c0f20c7adf612882df0950f5a951637e0307cdcb4c672f298b8bc66060820152608081018290523060a082015260c0016040516020818303038152906040528051906020012091505090565b73ffffffffffffffffffffffffffffffffffffffff8216611610576040517f08c379a000000000000000000000000000000000000000000000000000000000815260206004820152601b60248201527f45524332303a207a65726f2061646472657373207370656e64657200000000006044820152606401610c77565b73ffffffffffffffffffffffffffffffffffffffff808416600090815260018601602090815260408083209386168352929052205481156116f1578082018181116116b7576040517f08c379a000000000000000000000000000000000000000000000000000000000815260206004820152601960248201527f45524332303a20616c6c6f77616e6365206f766572666c6f77000000000000006044820152606401610c77565b73ffffffffffffffffffffffffffffffffffffffff8086166000908152600188016020908152604080832093881683529290522081905590505b8273ffffffffffffffffffffffffffffffffffffffff168473ffffffffffffffffffffffffffffffffffffffff167f8c5be1e5ebec7d5bd14f71427d1e84f3dd0314c0f7b2291e5b200ac8c7c3b9258360405161175091815260200190565b60405180910390a35050505050565b60008281526020848152604080832073ffffffffffffffffffffffffffffffffffffffff8516845290915290205460ff166105e95761179d82612d9b565b6040516020016117ad9190613b49565b604080517fffffffffffffffffffffffffffffffffffffffffffffffffffffffffffffffe0818403018152908290527f08c379a0000000000000000000000000000000000000000000000000000000008252610c779160040161332f565b73ffffffffffffffffffffffffffffffffffffffff8216611888576040517f08c379a000000000000000000000000000000000000000000000000000000000815260206004820152601360248201527f45524332303a206d696e7420746f207a65726f000000000000000000000000006044820152606401610c77565b80156119315760028301548181018181116118ff576040517f08c379a000000000000000000000000000000000000000000000000000000000815260206004820152601660248201527f45524332303a20737570706c79206f766572666c6f77000000000000000000006044820152606401610c77565b60028501555073ffffffffffffffffffffffffffffffffffffffff821660009081526020849052604090208054820190555b60405181815273ffffffffffffffffffffffffffffffffffffffff8316906000907fddf252ad1be2c89b69c2b068fc378daa952ba7f163c4a11628f55a4df523b3ef9060200160405180910390a3505050565b8151815181146119f0576040517f08c379a000000000000000000000000000000000000000000000000000000000815260206004820152601a60248201527f45524332303a20696e636f6e73697374656e74206172726179730000000000006044820152606401610c77565b806000036119fe5750611210565b73ffffffffffffffffffffffffffffffffffffffff84166000908152602087905260408120549080805b848114611cc6576000878281518110611a4357611a43613a10565b60200260200101519050600073ffffffffffffffffffffffffffffffffffffffff168173ffffffffffffffffffffffffffffffffffffffff1603611ae3576040517f08c379a000000000000000000000000000000000000000000000000000000000815260206004820152601660248201527f45524332303a20746f207a65726f2061646472657373000000000000000000006044820152606401610c77565b6000878381518110611af757611af7613a10565b6020026020010151905080600014611c4c57848101858111611b75576040517f08c379a000000000000000000000000000000000000000000000000000000000815260206004820152601660248201527f45524332303a2076616c756573206f766572666c6f77000000000000000000006044820152606401610c77565b8095508273ffffffffffffffffffffffffffffffffffffffff168b73ffffffffffffffffffffffffffffffffffffffff1614611bdb5773ffffffffffffffffffffffffffffffffffffffff8316600090815260208e905260409020805483019055611c4a565b86821115611c45576040517f08c379a000000000000000000000000000000000000000000000000000000000815260206004820152601b60248201527f45524332303a20696e73756666696369656e742062616c616e636500000000006044820152606401610c77565b938101935b505b8173ffffffffffffffffffffffffffffffffffffffff168a73ffffffffffffffffffffffffffffffffffffffff167fddf252ad1be2c89b69c2b068fc378daa952ba7f163c4a11628f55a4df523b3ef83604051611cab91815260200190565b60405180910390a3505080611cbf90613a3f565b9050611a28565b508115801590611cd65750808214155b15611d7257818303838110611d47576040517f08c379a000000000000000000000000000000000000000000000000000000000815260206004820152601b60248201527f45524332303a20696e73756666696369656e742062616c616e636500000000006044820152606401610c77565b73ffffffffffffffffffffffffffffffffffffffff8816600090815260208b90526040902090820190555b8773ffffffffffffffffffffffffffffffffffffffff168773ffffffffffffffffffffffffffffffffffffffff1614611db157611db189888a85612286565b505050505050505050565b6000806104b160017f4333ef392c4389b60d8e640834410f533783dabc9597d2a8e8187fba883e669d6139f9565b815181518114611e56576040517f08c379a000000000000000000000000000000000000000000000000000000000815260206004820152601a60248201527f45524332303a20696e636f6e73697374656e74206172726179730000000000006044820152606401610c77565b80600003611e645750610dc6565b73ffffffffffffffffffffffffffffffffffffffff84166000908152602086905260408120549080805b84811461212c576000878281518110611ea957611ea9613a10565b60200260200101519050600073ffffffffffffffffffffffffffffffffffffffff168173ffffffffffffffffffffffffffffffffffffffff1603611f49576040517f08c379a000000000000000000000000000000000000000000000000000000000815260206004820152601660248201527f45524332303a20746f207a65726f2061646472657373000000000000000000006044820152606401610c77565b6000878381518110611f5d57611f5d613a10565b60200260200101519050806000146120b257848101858111611fdb576040517f08c379a000000000000000000000000000000000000000000000000000000000815260206004820152601660248201527f45524332303a2076616c756573206f766572666c6f77000000000000000000006044820152606401610c77565b8095508273ffffffffffffffffffffffffffffffffffffffff168b73ffffffffffffffffffffffffffffffffffffffff16146120415773ffffffffffffffffffffffffffffffffffffffff8316600090815260208d9052604090208054830190556120b0565b868211156120ab576040517f08c379a000000000000000000000000000000000000000000000000000000000815260206004820152601b60248201527f45524332303a20696e73756666696369656e742062616c616e636500000000006044820152606401610c77565b938101935b505b8173ffffffffffffffffffffffffffffffffffffffff168a73ffffffffffffffffffffffffffffffffffffffff167fddf252ad1be2c89b69c2b068fc378daa952ba7f163c4a11628f55a4df523b3ef8360405161211191815260200190565b60405180910390a350508061212590613a3f565b9050611e8e565b50811580159061213c5750808214155b156121d8578183038381106121ad576040517f08c379a000000000000000000000000000000000000000000000000000000000815260206004820152601b60248201527f45524332303a20696e73756666696369656e742062616c616e636500000000006044820152606401610c77565b73ffffffffffffffffffffffffffffffffffffffff8816600090815260208a90526040902090820190555b5050505050505050565b6121ed83828461175f565b60008181526020848152604080832073ffffffffffffffffffffffffffffffffffffffff86168085529083529281902080547fffffffffffffffffffffffffffffffffffffffffffffffffffffffffffffff0016905580518481529182018390528101919091527ff6391f5c32d9c69d2a47ea670b442974b53935d1edc7fd64eb21e047a839171b9060600160405180910390a1505050565b73ffffffffffffffffffffffffffffffffffffffff8216612303576040517f08c379a000000000000000000000000000000000000000000000000000000000815260206004820152601b60248201527f45524332303a207a65726f2061646472657373207370656e64657200000000006044820152606401610c77565b73ffffffffffffffffffffffffffffffffffffffff80841660009081526001860160209081526040808320938616835292905220547fffffffffffffffffffffffffffffffffffffffffffffffffffffffffffffffff811480159061236757508115155b156116f1578181038181106116b7576040517f08c379a000000000000000000000000000000000000000000000000000000000815260206004820152601d60248201527f45524332303a20696e73756666696369656e7420616c6c6f77616e63650000006044820152606401610c77565b73ffffffffffffffffffffffffffffffffffffffff8216612455576040517f08c379a000000000000000000000000000000000000000000000000000000000815260206004820152601660248201527f45524332303a20746f207a65726f2061646472657373000000000000000000006044820152606401610c77565b801561255a5773ffffffffffffffffffffffffffffffffffffffff83166000908152602085905260409020548181038181106124ed576040517f08c379a000000000000000000000000000000000000000000000000000000000815260206004820152601b60248201527f45524332303a20696e73756666696369656e742062616c616e636500000000006044820152606401610c77565b8373ffffffffffffffffffffffffffffffffffffffff168573ffffffffffffffffffffffffffffffffffffffff16146125575773ffffffffffffffffffffffffffffffffffffffff8086166000908152602088905260408082208490559186168152208054840190555b50505b8173ffffffffffffffffffffffffffffffffffffffff168373ffffffffffffffffffffffffffffffffffffffff167fddf252ad1be2c89b69c2b068fc378daa952ba7f163c4a11628f55a4df523b3ef8360405161130591815260200190565b6125c68787878787611313565b73ffffffffffffffffffffffffffffffffffffffff84163b15610896576040517f4fc35859000000000000000000000000000000000000000000000000000000008082529073ffffffffffffffffffffffffffffffffffffffff861690634fc358599061263f908a908a90899089908990600401613bb5565b6020604051808303816000875af115801561265e573d6000803e3d6000fd5b505050506040513d601f19601f820116820180604052508101906126829190613c00565b7fffffffff000000000000000000000000000000000000000000000000000000001614610896576040517f08c379a000000000000000000000000000000000000000000000000000000000815260206004820152601760248201527f45524332303a207472616e7366657220726566757365640000000000000000006044820152606401610c77565b73ffffffffffffffffffffffffffffffffffffffff8716612788576040517f08c379a000000000000000000000000000000000000000000000000000000000815260206004820152601960248201527f45524332303a207a65726f2061646472657373206f776e6572000000000000006044820152606401610c77565b834211156127f2576040517f08c379a000000000000000000000000000000000000000000000000000000000815260206004820152601560248201527f45524332303a2065787069726564207065726d697400000000000000000000006044820152606401610c77565b73ffffffffffffffffffffffffffffffffffffffff8716600090815260208990526040812080547f6e71edae12b1b97f4d1f60370fef10105fa2faae0126114a169c64845d6126c9918a918a918a91908661284c83613a3f565b9091555060408051602081019690965273ffffffffffffffffffffffffffffffffffffffff94851690860152929091166060840152608083015260a082015260c0810186905260e00160405160208183030381529060405280519060200120905060006128b76114f0565b6040517f19010000000000000000000000000000000000000000000000000000000000006020820152602281019190915260428101839052606201604080517fffffffffffffffffffffffffffffffffffffffffffffffffffffffffffffffe08184030181528282528051602091820120600080855291840180845281905260ff89169284019290925260608301879052608083018690529092509060019060a0016020604051602081039080840390855afa15801561297b573d6000803e3d6000fd5b5050506020604051035190508973ffffffffffffffffffffffffffffffffffffffff168173ffffffffffffffffffffffffffffffffffffffff1614612a1c576040517f08c379a000000000000000000000000000000000000000000000000000000000815260206004820152601560248201527f45524332303a20696e76616c6964207065726d697400000000000000000000006044820152606401610c77565b612a2a8a8a8a610566610988565b5050505050505050505050565b60008381526020858152604080832073ffffffffffffffffffffffffffffffffffffffff8616845290915290205460ff1615610dc65760008381526020858152604080832073ffffffffffffffffffffffffffffffffffffffff8681168086529184529382902080547fffffffffffffffffffffffffffffffffffffffffffffffffffffffffffffff00169055815187815292830152918316918101919091527ff6391f5c32d9c69d2a47ea670b442974b53935d1edc7fd64eb21e047a839171b906060016114d7565b612b0d868686866123d8565b73ffffffffffffffffffffffffffffffffffffffff84163b15612c52576040517f4fc35859000000000000000000000000000000000000000000000000000000008082529073ffffffffffffffffffffffffffffffffffffffff861690634fc3585990612b869089908190899089908990600401613bb5565b6020604051808303816000875af1158015612ba5573d6000803e3d6000fd5b505050506040513d601f19601f82011682018060405250810190612bc99190613c00565b7fffffffff000000000000000000000000000000000000000000000000000000001614612c52576040517f08c379a000000000000000000000000000000000000000000000000000000000815260206004820152601760248201527f45524332303a207472616e7366657220726566757365640000000000000000006044820152606401610c77565b505050505050565b825473ffffffffffffffffffffffffffffffffffffffff9081169083168114612cdf576040517f08c379a000000000000000000000000000000000000000000000000000000000815260206004820152601860248201527f4f776e6572736869703a206e6f7420746865206f776e657200000000000000006044820152606401610c77565b8173ffffffffffffffffffffffffffffffffffffffff168173ffffffffffffffffffffffffffffffffffffffff1614610dc65783547fffffffffffffffffffffffff00000000000000000000000000000000000000001673ffffffffffffffffffffffffffffffffffffffff8381169182178655604051908316907f8be0079c531659141344cd1fd0a4f28419497f9722a3daafe3b4186f6b6457e090600090a350505050565b6000610621612f25565b36600061060f61307d565b60606000829003612dba57505060408051602081019091526000815290565b600082604051602001612dcf91815260200190565b604080517fffffffffffffffffffffffffffffffffffffffffffffffffffffffffffffffe08184030181529190529050601f5b818181518110612e1457612e14613a10565b01602001517fff0000000000000000000000000000000000000000000000000000000000000016600003612e5257612e4b81613c1d565b9050612e02565b6000612e5f826001613c52565b67ffffffffffffffff811115612e7757612e776134a0565b6040519080825280601f01601f191660200182016040528015612ea1576020820181803683370190505b50905060005b828111612f1c57838181518110612ec057612ec0613a10565b602001015160f81c60f81b828281518110612edd57612edd613a10565b60200101907effffffffffffffffffffffffffffffffffffffffffffffffffffffffffffff1916908160001a905350612f1581613a3f565b9050612ea7565b50949350505050565b600033328103612f3457919050565b6000367fffffffffffffffffffffffffffffffffffffffffffffffffffffffffffffffec013560601c90507f000000000000000000000000000000000000000000000000000000000000000073ffffffffffffffffffffffffffffffffffffffff168273ffffffffffffffffffffffffffffffffffffffff16148061306c57506040517fe60125d600000000000000000000000000000000000000000000000000000000815273ffffffffffffffffffffffffffffffffffffffff828116600483015283811660248301527f0000000000000000000000000000000000000000000000000000000000000000169063e60125d690604401602060405180830381865afa158015613048573d6000803e3d6000fd5b505050506040513d601f19601f8201168201806040525081019061306c9190613c6a565b156130775792915050565b50919050565b3660003332810361309357506000923692509050565b7f000000000000000000000000000000000000000000000000000000000000000073ffffffffffffffffffffffffffffffffffffffff168173ffffffffffffffffffffffffffffffffffffffff1614806131e0575073ffffffffffffffffffffffffffffffffffffffff7f00000000000000000000000000000000000000000000000000000000000000001663e60125d6367fffffffffffffffffffffffffffffffffffffffffffffffffffffffffffffffec013560601c6040517fffffffff0000000000000000000000000000000000000000000000000000000060e084901b16815273ffffffffffffffffffffffffffffffffffffffff91821660048201529084166024820152604401602060405180830381865afa1580156131bc573d6000803e3d6000fd5b505050506040513d601f19601f820116820180604052508101906131e09190613c6a565b156131f6576131ed613201565b92509250509091565b506000923692509050565b3660008080836132126014826139f9565b9261060f93929190613c8c565b82805461322b9061397d565b90600052602060002090601f01602090048101928261324d5760008555613293565b82601f1061326657805160ff1916838001178555613293565b82800160010185558215613293579182015b82811115613293578251825591602001919060010190613278565b5061329f9291506132a3565b5090565b5b8082111561329f57600081556001016132a4565b7fffffffff000000000000000000000000000000000000000000000000000000008116811461077d57600080fd5b6000602082840312156132f857600080fd5b81356107ea816132b8565b60005b8381101561331e578181015183820152602001613306565b83811115610dc65750506000910152565b602081526000825180602084015261334e816040850160208701613303565b601f017fffffffffffffffffffffffffffffffffffffffffffffffffffffffffffffffe0169190910160400192915050565b803573ffffffffffffffffffffffffffffffffffffffff811681146133a457600080fd5b919050565b600080604083850312156133bc57600080fd5b6133c583613380565b946020939093013593505050565b6000806000606084860312156133e857600080fd5b6133f184613380565b92506133ff60208501613380565b9150604084013590509250925092565b6000806040838503121561342257600080fd5b8235915061343260208401613380565b90509250929050565b8183528181602085013750600060208284010152600060207fffffffffffffffffffffffffffffffffffffffffffffffffffffffffffffffe0601f840116840101905092915050565b60208152600061349860208301848661343b565b949350505050565b7f4e487b7100000000000000000000000000000000000000000000000000000000600052604160045260246000fd5b604051601f82017fffffffffffffffffffffffffffffffffffffffffffffffffffffffffffffffe016810167ffffffffffffffff81118282101715613516576135166134a0565b604052919050565b600067ffffffffffffffff821115613538576135386134a0565b5060051b60200190565b600082601f83011261355357600080fd5b813560206135686135638361351e565b6134cf565b82815260059290921b8401810191818101908684111561358757600080fd5b8286015b848110156135a95761359c81613380565b835291830191830161358b565b509695505050505050565b600082601f8301126135c557600080fd5b813560206135d56135638361351e565b82815260059290921b840181019181810190868411156135f457600080fd5b8286015b848110156135a957803583529183019183016135f8565b60008060006060848603121561362457600080fd5b61362d84613380565b9250602084013567ffffffffffffffff8082111561364a57600080fd5b61365687838801613542565b9350604086013591508082111561366c57600080fd5b50613679868287016135b4565b9150509250925092565b6000806040838503121561369657600080fd5b823567ffffffffffffffff808211156136ae57600080fd5b6136ba86838701613542565b935060208501359150808211156136d057600080fd5b506136dd858286016135b4565b9150509250929050565b6000602082840312156136f957600080fd5b6107ea82613380565b60006020828403121561371457600080fd5b5035919050565b60008083601f84011261372d57600080fd5b50813567ffffffffffffffff81111561374557600080fd5b60208301915083602082850101111561375d57600080fd5b9250929050565b60008060008060006080868803121561377c57600080fd5b61378586613380565b945061379360208701613380565b935060408601359250606086013567ffffffffffffffff8111156137b657600080fd5b6137c28882890161371b565b969995985093965092949392505050565b600080600080600080600060e0888a0312156137ee57600080fd5b6137f788613380565b965061380560208901613380565b95506040880135945060608801359350608088013560ff8116811461382957600080fd5b9699959850939692959460a0840135945060c09093013592915050565b6000806040838503121561385957600080fd5b61386283613380565b915061343260208401613380565b6000602080838503121561388357600080fd5b823567ffffffffffffffff8082111561389b57600080fd5b818501915085601f8301126138af57600080fd5b8135818111156138c1576138c16134a0565b6138f1847fffffffffffffffffffffffffffffffffffffffffffffffffffffffffffffffe0601f840116016134cf565b9150808252868482850101111561390757600080fd5b8084840185840137600090820190930192909252509392505050565b6000806000806060858703121561393957600080fd5b61394285613380565b935060208501359250604085013567ffffffffffffffff81111561396557600080fd5b6139718782880161371b565b95989497509550505050565b600181811c9082168061399157607f821691505b602082108103613077577f4e487b7100000000000000000000000000000000000000000000000000000000600052602260045260246000fd5b7f4e487b7100000000000000000000000000000000000000000000000000000000600052601160045260246000fd5b600082821015613a0b57613a0b6139ca565b500390565b7f4e487b7100000000000000000000000000000000000000000000000000000000600052603260045260246000fd5b60007fffffffffffffffffffffffffffffffffffffffffffffffffffffffffffffffff8203613a7057613a706139ca565b5060010190565b600080835481600182811c915080831680613a9357607f831692505b60208084108203613acb577f4e487b710000000000000000000000000000000000000000000000000000000086526022600452602486fd5b818015613adf5760018114613b0e57613b3b565b7fffffffffffffffffffffffffffffffffffffffffffffffffffffffffffffff00861689528489019650613b3b565b60008a81526020902060005b86811015613b335781548b820152908501908301613b1a565b505084890196505b509498975050505050505050565b7f416363657373436f6e74726f6c3a206d697373696e6720270000000000000000815260008251613b81816018850160208701613303565b7f2720726f6c6500000000000000000000000000000000000000000000000000006018939091019283015250601e01919050565b600073ffffffffffffffffffffffffffffffffffffffff808816835280871660208401525084604083015260806060830152613bf560808301848661343b565b979650505050505050565b600060208284031215613c1257600080fd5b81516107ea816132b8565b600081613c2c57613c2c6139ca565b507fffffffffffffffffffffffffffffffffffffffffffffffffffffffffffffffff0190565b60008219821115613c6557613c656139ca565b500190565b600060208284031215613c7c57600080fd5b815180151581146107ea57600080fd5b60008085851115613c9c57600080fd5b83861115613ca957600080fd5b505082019391909203915056fea2646970667358221220173d5b49bab98a4281891aa6cf9b70d79b3d1430fb1d1985d604c067edb6923664736f6c634300080e0033",
  "linkReferences": {},
  "deployedLinkReferences": {}
}