{
  "_format": "hh-sol-artifact-1",
  "contractName": "ERC20Mock",
  "sourceName": "contracts/mocks/token/ERC20/ERC20Mock.sol",
  "abi": [
    {
      "inputs": [
        {
          "internalType": "address[]",
          "name": "holders",
          "type": "address[]"
        },
        {
          "internalType": "uint256[]",
          "name": "allocations",
          "type": "uint256[]"
        },
        {
          "internalType": "string",
          "name": "name_",
          "type": "string"
        },
        {
          "internalType": "string",
          "name": "symbol_",
          "type": "string"
        },
        {
          "internalType": "uint8",
          "name": "decimals_",
          "type": "uint8"
        },
        {
          "internalType": "string",
          "name": "tokenURI_",
          "type": "string"
        },
        {
          "internalType": "contract IForwarderRegistry",
          "name": "forwarderRegistry",
          "type": "address"
        }
      ],
      "stateMutability": "nonpayable",
      "type": "constructor"
    },
    {
      "anonymous": false,
      "inputs": [
        {
          "indexed": true,
          "internalType": "address",
          "name": "owner",
          "type": "address"
        },
        {
          "indexed": true,
          "internalType": "address",
          "name": "spender",
          "type": "address"
        },
        {
          "indexed": false,
          "internalType": "uint256",
          "name": "value",
          "type": "uint256"
        }
      ],
      "name": "Approval",
      "type": "event"
    },
    {
      "anonymous": false,
      "inputs": [
        {
          "indexed": true,
          "internalType": "address",
          "name": "previousOwner",
          "type": "address"
        },
        {
          "indexed": true,
          "internalType": "address",
          "name": "newOwner",
          "type": "address"
        }
      ],
      "name": "OwnershipTransferred",
      "type": "event"
    },
    {
      "anonymous": false,
      "inputs": [
        {
          "indexed": false,
          "internalType": "bytes32",
          "name": "role",
          "type": "bytes32"
        },
        {
          "indexed": false,
          "internalType": "address",
          "name": "account",
          "type": "address"
        },
        {
          "indexed": false,
          "internalType": "address",
          "name": "operator",
          "type": "address"
        }
      ],
      "name": "RoleGranted",
      "type": "event"
    },
    {
      "anonymous": false,
      "inputs": [
        {
          "indexed": false,
          "internalType": "bytes32",
          "name": "role",
          "type": "bytes32"
        },
        {
          "indexed": false,
          "internalType": "address",
          "name": "account",
          "type": "address"
        },
        {
          "indexed": false,
          "internalType": "address",
          "name": "operator",
          "type": "address"
        }
      ],
      "name": "RoleRevoked",
      "type": "event"
    },
    {
      "anonymous": false,
      "inputs": [
        {
          "indexed": true,
          "internalType": "address",
          "name": "from",
          "type": "address"
        },
        {
          "indexed": true,
          "internalType": "address",
          "name": "to",
          "type": "address"
        },
        {
          "indexed": false,
          "internalType": "uint256",
          "name": "value",
          "type": "uint256"
        }
      ],
      "name": "Transfer",
      "type": "event"
    },
    {
      "inputs": [],
      "name": "DOMAIN_SEPARATOR",
      "outputs": [
        {
          "internalType": "bytes32",
          "name": "",
          "type": "bytes32"
        }
      ],
      "stateMutability": "view",
      "type": "function"
    },
    {
      "inputs": [],
      "name": "MINTER_ROLE",
      "outputs": [
        {
          "internalType": "bytes32",
          "name": "",
          "type": "bytes32"
        }
      ],
      "stateMutability": "view",
      "type": "function"
    },
    {
      "inputs": [],
      "name": "__msgData",
      "outputs": [
        {
          "internalType": "bytes",
          "name": "",
          "type": "bytes"
        }
      ],
      "stateMutability": "view",
      "type": "function"
    },
    {
      "inputs": [
        {
          "internalType": "address",
          "name": "owner",
          "type": "address"
        },
        {
          "internalType": "address",
          "name": "spender",
          "type": "address"
        }
      ],
      "name": "allowance",
      "outputs": [
        {
          "internalType": "uint256",
          "name": "",
          "type": "uint256"
        }
      ],
      "stateMutability": "view",
      "type": "function"
    },
    {
      "inputs": [
        {
          "internalType": "address",
          "name": "spender",
          "type": "address"
        },
        {
          "internalType": "uint256",
          "name": "value",
          "type": "uint256"
        }
      ],
      "name": "approve",
      "outputs": [
        {
          "internalType": "bool",
          "name": "",
          "type": "bool"
        }
      ],
      "stateMutability": "nonpayable",
      "type": "function"
    },
    {
      "inputs": [
        {
          "internalType": "address",
          "name": "account",
          "type": "address"
        }
      ],
      "name": "balanceOf",
      "outputs": [
        {
          "internalType": "uint256",
          "name": "",
          "type": "uint256"
        }
      ],
      "stateMutability": "view",
      "type": "function"
    },
    {
      "inputs": [
        {
          "internalType": "address[]",
          "name": "recipients",
          "type": "address[]"
        },
        {
          "internalType": "uint256[]",
          "name": "values",
          "type": "uint256[]"
        }
      ],
      "name": "batchMint",
      "outputs": [],
      "stateMutability": "nonpayable",
      "type": "function"
    },
    {
      "inputs": [
        {
          "internalType": "address[]",
          "name": "recipients",
          "type": "address[]"
        },
        {
          "internalType": "uint256[]",
          "name": "values",
          "type": "uint256[]"
        }
      ],
      "name": "batchTransfer",
      "outputs": [
        {
          "internalType": "bool",
          "name": "",
          "type": "bool"
        }
      ],
      "stateMutability": "nonpayable",
      "type": "function"
    },
    {
      "inputs": [
        {
          "internalType": "address",
          "name": "from",
          "type": "address"
        },
        {
          "internalType": "address[]",
          "name": "recipients",
          "type": "address[]"
        },
        {
          "internalType": "uint256[]",
          "name": "values",
          "type": "uint256[]"
        }
      ],
      "name": "batchTransferFrom",
      "outputs": [
        {
          "internalType": "bool",
          "name": "",
          "type": "bool"
        }
      ],
      "stateMutability": "nonpayable",
      "type": "function"
    },
    {
      "inputs": [],
      "name": "decimals",
      "outputs": [
        {
          "internalType": "uint8",
          "name": "",
          "type": "uint8"
        }
      ],
      "stateMutability": "view",
      "type": "function"
    },
    {
      "inputs": [
        {
          "internalType": "address",
          "name": "spender",
          "type": "address"
        },
        {
          "internalType": "uint256",
          "name": "subtractedValue",
          "type": "uint256"
        }
      ],
      "name": "decreaseAllowance",
      "outputs": [
        {
          "internalType": "bool",
          "name": "",
          "type": "bool"
        }
      ],
      "stateMutability": "nonpayable",
      "type": "function"
    },
    {
      "inputs": [
        {
          "internalType": "bytes32",
          "name": "role",
          "type": "bytes32"
        },
        {
          "internalType": "address",
          "name": "account",
          "type": "address"
        }
      ],
      "name": "grantRole",
      "outputs": [],
      "stateMutability": "nonpayable",
      "type": "function"
    },
    {
      "inputs": [
        {
          "internalType": "bytes32",
          "name": "role",
          "type": "bytes32"
        },
        {
          "internalType": "address",
          "name": "account",
          "type": "address"
        }
      ],
      "name": "hasRole",
      "outputs": [
        {
          "internalType": "bool",
          "name": "",
          "type": "bool"
        }
      ],
      "stateMutability": "view",
      "type": "function"
    },
    {
      "inputs": [
        {
          "internalType": "address",
          "name": "spender",
          "type": "address"
        },
        {
          "internalType": "uint256",
          "name": "addedValue",
          "type": "uint256"
        }
      ],
      "name": "increaseAllowance",
      "outputs": [
        {
          "internalType": "bool",
          "name": "",
          "type": "bool"
        }
      ],
      "stateMutability": "nonpayable",
      "type": "function"
    },
    {
      "inputs": [
        {
          "internalType": "address",
          "name": "to",
          "type": "address"
        },
        {
          "internalType": "uint256",
          "name": "value",
          "type": "uint256"
        }
      ],
      "name": "mint",
      "outputs": [],
      "stateMutability": "nonpayable",
      "type": "function"
    },
    {
      "inputs": [],
      "name": "name",
      "outputs": [
        {
          "internalType": "string",
          "name": "",
          "type": "string"
        }
      ],
      "stateMutability": "view",
      "type": "function"
    },
    {
      "inputs": [
        {
          "internalType": "address",
          "name": "account",
          "type": "address"
        }
      ],
      "name": "nonces",
      "outputs": [
        {
          "internalType": "uint256",
          "name": "",
          "type": "uint256"
        }
      ],
      "stateMutability": "view",
      "type": "function"
    },
    {
      "inputs": [],
      "name": "owner",
      "outputs": [
        {
          "internalType": "address",
          "name": "",
          "type": "address"
        }
      ],
      "stateMutability": "view",
      "type": "function"
    },
    {
      "inputs": [
        {
          "internalType": "address",
          "name": "owner",
          "type": "address"
        },
        {
          "internalType": "address",
          "name": "spender",
          "type": "address"
        },
        {
          "internalType": "uint256",
          "name": "value",
          "type": "uint256"
        },
        {
          "internalType": "uint256",
          "name": "deadline",
          "type": "uint256"
        },
        {
          "internalType": "uint8",
          "name": "v",
          "type": "uint8"
        },
        {
          "internalType": "bytes32",
          "name": "r",
          "type": "bytes32"
        },
        {
          "internalType": "bytes32",
          "name": "s",
          "type": "bytes32"
        }
      ],
      "name": "permit",
      "outputs": [],
      "stateMutability": "nonpayable",
      "type": "function"
    },
    {
      "inputs": [
        {
          "internalType": "bytes32",
          "name": "role",
          "type": "bytes32"
        }
      ],
      "name": "renounceRole",
      "outputs": [],
      "stateMutability": "nonpayable",
      "type": "function"
    },
    {
      "inputs": [
        {
          "internalType": "bytes32",
          "name": "role",
          "type": "bytes32"
        },
        {
          "internalType": "address",
          "name": "account",
          "type": "address"
        }
      ],
      "name": "revokeRole",
      "outputs": [],
      "stateMutability": "nonpayable",
      "type": "function"
    },
    {
      "inputs": [
        {
          "internalType": "address",
          "name": "to",
          "type": "address"
        },
        {
          "internalType": "uint256",
          "name": "value",
          "type": "uint256"
        },
        {
          "internalType": "bytes",
          "name": "data",
          "type": "bytes"
        }
      ],
      "name": "safeTransfer",
      "outputs": [
        {
          "internalType": "bool",
          "name": "",
          "type": "bool"
        }
      ],
      "stateMutability": "nonpayable",
      "type": "function"
    },
    {
      "inputs": [
        {
          "internalType": "address",
          "name": "from",
          "type": "address"
        },
        {
          "internalType": "address",
          "name": "to",
          "type": "address"
        },
        {
          "internalType": "uint256",
          "name": "value",
          "type": "uint256"
        },
        {
          "internalType": "bytes",
          "name": "data",
          "type": "bytes"
        }
      ],
      "name": "safeTransferFrom",
      "outputs": [
        {
          "internalType": "bool",
          "name": "",
          "type": "bool"
        }
      ],
      "stateMutability": "nonpayable",
      "type": "function"
    },
    {
      "inputs": [
        {
          "internalType": "string",
          "name": "uri",
          "type": "string"
        }
      ],
      "name": "setTokenURI",
      "outputs": [],
      "stateMutability": "nonpayable",
      "type": "function"
    },
    {
      "inputs": [
        {
          "internalType": "bytes4",
          "name": "interfaceId",
          "type": "bytes4"
        }
      ],
      "name": "supportsInterface",
      "outputs": [
        {
          "internalType": "bool",
          "name": "",
          "type": "bool"
        }
      ],
      "stateMutability": "view",
      "type": "function"
    },
    {
      "inputs": [],
      "name": "symbol",
      "outputs": [
        {
          "internalType": "string",
          "name": "",
          "type": "string"
        }
      ],
      "stateMutability": "view",
      "type": "function"
    },
    {
      "inputs": [],
      "name": "tokenURI",
      "outputs": [
        {
          "internalType": "string",
          "name": "",
          "type": "string"
        }
      ],
      "stateMutability": "view",
      "type": "function"
    },
    {
      "inputs": [],
      "name": "totalSupply",
      "outputs": [
        {
          "internalType": "uint256",
          "name": "",
          "type": "uint256"
        }
      ],
      "stateMutability": "view",
      "type": "function"
    },
    {
      "inputs": [
        {
          "internalType": "address",
          "name": "to",
          "type": "address"
        },
        {
          "internalType": "uint256",
          "name": "value",
          "type": "uint256"
        }
      ],
      "name": "transfer",
      "outputs": [
        {
          "internalType": "bool",
          "name": "",
          "type": "bool"
        }
      ],
      "stateMutability": "nonpayable",
      "type": "function"
    },
    {
      "inputs": [
        {
          "internalType": "address",
          "name": "from",
          "type": "address"
        },
        {
          "internalType": "address",
          "name": "to",
          "type": "address"
        },
        {
          "internalType": "uint256",
          "name": "value",
          "type": "uint256"
        }
      ],
      "name": "transferFrom",
      "outputs": [
        {
          "internalType": "bool",
          "name": "",
          "type": "bool"
        }
      ],
      "stateMutability": "nonpayable",
      "type": "function"
    },
    {
      "inputs": [
        {
          "internalType": "address",
          "name": "newOwner",
          "type": "address"
        }
      ],
      "name": "transferOwnership",
      "outputs": [],
      "stateMutability": "nonpayable",
      "type": "function"
    }
  ],
  "bytecode": "0x60a06040523480156200001157600080fd5b506040516200470a3803806200470a833981016040819052620000349162000a52565b818585858a8a86803384846200006f82826200005a620001cb60201b620008d31760201c565b6200020160201b62000901179092919060201c565b50506200009f816200008b6200028460201b620009761760201c565b620002b460201b620009a41790919060201c565b50620000d863144b1f0f60e11b6001620000c36200033260201b62000a611760201c565b6200036260201b62000a8f179092919060201c565b6001600160a01b0316608052506200011c9150849050838362000106620003f0602090811b62000b8417901c565b6200042060201b62000bb217909392919060201c565b5050506200014d81620001396200048260201b62000c381760201c565b620004b260201b62000c661790919060201c565b506200017862000167620004ea60201b62000ca71760201c565b6200051a60201b62000cd51760201c565b6200019b6353f41a9760e01b6001620000c36200033260201b62000a611760201c565b620001be63602993f360e11b6001620000c36200033260201b62000a611760201c565b5050505050505062000bd0565b600080620001fb60017f1da92899d3da68bf9787824388a37ea2bfa79780bcef91b9716c390eec8ecbef62000b58565b92915050565b6200021d8282856200054060201b62000d03179092919060201c565b6000620002346200033260201b62000a611760201c565b90506200025a6336372b0760e01b6001836200036260201b62000a8f179092919060201c565b6200027e634e83a8c360e11b6001836200036260201b62000a8f179092919060201c565b50505050565b600080620001fb60017fc9ed16f33ab3a66c84bfd83099ccb2a8845871e2e1c1928f63797152f0fd54cd62000b58565b6001600160a01b038116156200030b5781546001600160a01b0319166001600160a01b03821690811783556040516000907f8be0079c531659141344cd1fd0a4f28419497f9722a3daafe3b4186f6b6457e0908290a35b6200032e6307f5828d60e41b6001620000c36200033260201b62000a611760201c565b5050565b600080620001fb60017fca9d3e17f264b0f3984e2634e94adb37fa3e6a8103f06aeae6fa59e21c769f5e62000b58565b6001600160e01b03198083169003620003c25760405162461bcd60e51b815260206004820152601f60248201527f496e74657266616365446574656374696f6e3a2077726f6e672076616c75650060448201526064015b60405180910390fd5b6001600160e01b03199190911660009081526020929092526040909120805460ff1916911515919091179055565b600080620001fb60017f335df4119bbb04f056b33eba33b826d3529129e458faf6daa9924b5a8f3b6a8262000b58565b82516200043490859060208601906200078e565b5081516200044c90600186019060208501906200078e565b5060028401805460ff191660ff83161790556200027e63a219a02560e01b6001620000c362000332602090811b62000a6117901c565b600080620001fb60017ff41bf6a5db26bffdfab174dcf66b31fbba8fdb7e3db040721ce1e62d61839ceb62000b58565b8051620004c690839060208401906200078e565b506200032e6303c130d960e41b6001620000c36200033260201b62000a611760201c565b600080620001fb60017f93fe0ff7226b064a4a8f0b09910762afb4bc2441835792c021ffd78cd513011e62000b58565b6200053d634ec7fbed60e11b6001620000c36200033260201b62000a611760201c565b50565b815181518114620005945760405162461bcd60e51b815260206004820152601a60248201527f45524332303a20696e636f6e73697374656e74206172726179730000000000006044820152606401620003b9565b80600003620005a35750505050565b6000805b8281146200071f576000858281518110620005c657620005c662000b7e565b6020026020010151905060006001600160a01b0316816001600160a01b031603620006345760405162461bcd60e51b815260206004820152601360248201527f45524332303a206d696e7420746f207a65726f000000000000000000000000006044820152606401620003b9565b60008583815181106200064b576200064b62000b7e565b6020026020010151905080600014620006d357838101848111620006b25760405162461bcd60e51b815260206004820152601660248201527f45524332303a2076616c756573206f766572666c6f77000000000000000000006044820152606401620003b9565b6001600160a01b038316600090815260208a90526040902080548301905593505b6040518181526001600160a01b038316906000907fddf252ad1be2c89b69c2b068fc378daa952ba7f163c4a11628f55a4df523b3ef9060200160405180910390a35050600101620005a7565b50801562000787576002850154818101818111620007805760405162461bcd60e51b815260206004820152601660248201527f45524332303a20737570706c79206f766572666c6f77000000000000000000006044820152606401620003b9565b6002870155505b5050505050565b8280546200079c9062000b94565b90600052602060002090601f016020900481019282620007c057600085556200080b565b82601f10620007db57805160ff19168380011785556200080b565b828001600101855582156200080b579182015b828111156200080b578251825591602001919060010190620007ee565b50620008199291506200081d565b5090565b5b808211156200081957600081556001016200081e565b634e487b7160e01b600052604160045260246000fd5b604051601f8201601f191681016001600160401b038111828210171562000875576200087562000834565b604052919050565b60006001600160401b0382111562000899576200089962000834565b5060051b60200190565b6001600160a01b03811681146200053d57600080fd5b600082601f830112620008cb57600080fd5b81516020620008e4620008de836200087d565b6200084a565b82815260059290921b840181019181810190868411156200090457600080fd5b8286015b848110156200092c5780516200091e81620008a3565b835291830191830162000908565b509695505050505050565b600082601f8301126200094957600080fd5b815160206200095c620008de836200087d565b82815260059290921b840181019181810190868411156200097c57600080fd5b8286015b848110156200092c578051835291830191830162000980565b600082601f830112620009ab57600080fd5b81516001600160401b03811115620009c757620009c762000834565b6020620009dd601f8301601f191682016200084a565b8281528582848701011115620009f257600080fd5b60005b8381101562000a12578581018301518282018401528201620009f5565b8381111562000a245760008385840101525b5095945050505050565b805160ff8116811462000a4057600080fd5b919050565b805162000a4081620008a3565b600080600080600080600060e0888a03121562000a6e57600080fd5b87516001600160401b038082111562000a8657600080fd5b62000a948b838c01620008b9565b985060208a015191508082111562000aab57600080fd5b62000ab98b838c0162000937565b975060408a015191508082111562000ad057600080fd5b62000ade8b838c0162000999565b965060608a015191508082111562000af557600080fd5b62000b038b838c0162000999565b955062000b1360808b0162000a2e565b945060a08a015191508082111562000b2a57600080fd5b5062000b398a828b0162000999565b92505062000b4a60c0890162000a45565b905092959891949750929550565b60008282101562000b7957634e487b7160e01b600052601160045260246000fd5b500390565b634e487b7160e01b600052603260045260246000fd5b600181811c9082168062000ba957607f821691505b60208210810362000bca57634e487b7160e01b600052602260045260246000fd5b50919050565b608051613b0962000c0160003960008181612e5001528181612ef001528181612f840152612fee0152613b096000f3fe608060405234801561001057600080fd5b50600436106101e55760003560e01c80637ecebe001161010f578063b88d4fde116100a2578063dd62ed3e11610071578063dd62ed3e1461041e578063e0df5b6f14610431578063eb79554914610444578063f2fde38b1461045757600080fd5b8063b88d4fde146103be578063d505accf146103d1578063d5391393146103e4578063d547741f1461040b57600080fd5b806391d14854116100de57806391d148541461037d57806395d89b4114610390578063a457c2d714610398578063a9059cbb146103ab57600080fd5b80637ecebe001461031757806388d695b21461032a5780638bb9c5bf1461033d5780638da5cb5b1461035057600080fd5b806331e66e1e1161018757806340c10f191161015657806340c10f19146102cb5780634885b254146102de57806368573107146102f157806370a082311461030457600080fd5b806331e66e1e146102925780633644e515146102a857806339509351146102b05780633c130d90146102c357600080fd5b806318160ddd116101c357806318160ddd1461023a57806323b872dd146102505780632f2ff15d14610263578063313ce5671461027857600080fd5b806301ffc9a7146101ea57806306fdde0314610212578063095ea7b314610227575b600080fd5b6101fd6101f83660046131d5565b61046a565b60405190151581526020015b60405180910390f35b61021a610484565b604051610209919061321e565b6101fd610235366004613298565b61049b565b6102426104c3565b604051908152602001610209565b6101fd61025e3660046132c2565b6104d7565b6102766102713660046132fe565b610502565b005b61028061053b565b60405160ff9091168152602001610209565b61029a610552565b604051610209929190613373565b610242610565565b6101fd6102be366004613298565b61056f565b61021a61058e565b6102766102d9366004613298565b61059b565b6101fd6102ec3660046134fe565b6105ee565b6102766102ff366004613572565b61060f565b6102426103123660046135d6565b61064f565b6102426103253660046135d6565b610687565b6101fd610338366004613572565b610695565b61027661034b3660046135f1565b6106b4565b6103586106d2565b60405173ffffffffffffffffffffffffffffffffffffffff9091168152602001610209565b6101fd61038b3660046132fe565b6106f9565b61021a610744565b6101fd6103a6366004613298565b610756565b6101fd6103b9366004613298565b610775565b6101fd6103cc366004613653565b610794565b6102766103df3660046136c2565b6107c5565b6102427f6d696e746572000000000000000000000000000000000000000000000000000081565b6102766104193660046132fe565b6107ec565b61024261042c366004613735565b61081a565b61027661043f36600461375f565b610865565b6101fd610452366004613812565b61088a565b6102766104653660046135d6565b6108b8565b600061047e82610478610a61565b90610fda565b92915050565b6060610496610491610b84565b611098565b905090565b60006104ba6104a861112e565b84846104b26108d3565b929190611138565b50600192915050565b60006104966104d06108d3565b6002015490565b60006104f86104e461112e565b8585856104ef6108d3565b93929190611227565b5060019392505050565b600061050c61112e565b90506105208161051a610976565b90611272565b61053683838361052e6112f5565b929190611323565b505050565b6000610496610548610b84565b6002015460ff1690565b36600061055d6113f9565b915091509091565b6000610496611404565b60006104ba61057c61112e565b84846105866108d3565b92919061149f565b6060610496610491610c38565b6105d67f6d696e74657200000000000000000000000000000000000000000000000000006105c761112e565b6105cf6112f5565b919061166b565b6105ea82826105e36108d3565b9190611717565b5050565b60006104f86105fb61112e565b8585856106066108d3565b93929190611890565b61063b7f6d696e74657200000000000000000000000000000000000000000000000000006105c761112e565b6105ea82826106486108d3565b9190610d03565b600061047e8261065d6108d3565b9073ffffffffffffffffffffffffffffffffffffffff166000908152602091909152604090205490565b600061047e8261065d610ca7565b60006104ba6106a261112e565b84846106ac6108d3565b929190611cbf565b6106cf6106bf61112e565b826106c86112f5565b91906120ae565b50565b60006104966106df610976565b5473ffffffffffffffffffffffffffffffffffffffff1690565b600061073d83836107086112f5565b60009283526020908152604080842073ffffffffffffffffffffffffffffffffffffffff909316845291905290205460ff1690565b9392505050565b6060610496610751610b84565b612152565b60006104ba61076361112e565b848461076d6108d3565b929190612163565b60006104ba61078261112e565b848461078c6108d3565b9291906122b5565b60006107b96107a161112e565b87878787876107ae6108d3565b959493929190612496565b50600195945050505050565b6107e3878787878787876107d7610ca7565b969594939291906125e8565b50505050505050565b60006107f661112e565b90506108048161051a610976565b6105368383836108126112f5565b929190612914565b600061073d83836108296108d3565b919073ffffffffffffffffffffffffffffffffffffffff9182166000908152600193909301602090815260408085209290931684525290205490565b61087861087061112e565b61051a610976565b6106cf81610884610c38565b906129de565b60006108ad61089761112e565b868686866108a36108d3565b94939291906129f0565b506001949350505050565b6106cf6108c361112e565b826108cc610976565b9190612b49565b60008061047e60017f1da92899d3da68bf9787824388a37ea2bfa79780bcef91b9716c390eec8ecbef61389b565b61090c838383610d03565b6000610916610a61565b9050610944817f36372b07000000000000000000000000000000000000000000000000000000006001610a8f565b610970817f9d075186000000000000000000000000000000000000000000000000000000006001610a8f565b50505050565b60008061047e60017fc9ed16f33ab3a66c84bfd83099ccb2a8845871e2e1c1928f63797152f0fd54cd61389b565b73ffffffffffffffffffffffffffffffffffffffff811615610a2c5781547fffffffffffffffffffffffff00000000000000000000000000000000000000001673ffffffffffffffffffffffffffffffffffffffff821690811783556040516000907f8be0079c531659141344cd1fd0a4f28419497f9722a3daafe3b4186f6b6457e0908290a35b6105ea7f7f5828d0000000000000000000000000000000000000000000000000000000006001610a5a610a61565b9190610a8f565b60008061047e60017fca9d3e17f264b0f3984e2634e94adb37fa3e6a8103f06aeae6fa59e21c769f5e61389b565b7fffffffff000000000000000000000000000000000000000000000000000000008083169003610b20576040517f08c379a000000000000000000000000000000000000000000000000000000000815260206004820152601f60248201527f496e74657266616365446574656374696f6e3a2077726f6e672076616c75650060448201526064015b60405180910390fd5b7fffffffff00000000000000000000000000000000000000000000000000000000919091166000908152602092909252604090912080547fffffffffffffffffffffffffffffffffffffffffffffffffffffffffffffff0016911515919091179055565b60008061047e60017f335df4119bbb04f056b33eba33b826d3529129e458faf6daa9924b5a8f3b6a8261389b565b8251610bc4908590602086019061310e565b508151610bda906001860190602085019061310e565b506002840180547fffffffffffffffffffffffffffffffffffffffffffffffffffffffffffffff001660ff83161790556109707fa219a025000000000000000000000000000000000000000000000000000000006001610a5a610a61565b60008061047e60017ff41bf6a5db26bffdfab174dcf66b31fbba8fdb7e3db040721ce1e62d61839ceb61389b565b8051610c78908390602084019061310e565b506105ea7f3c130d90000000000000000000000000000000000000000000000000000000006001610a5a610a61565b60008061047e60017f93fe0ff7226b064a4a8f0b09910762afb4bc2441835792c021ffd78cd513011e61389b565b6106cf7f9d8ff7da000000000000000000000000000000000000000000000000000000006001610a5a610a61565b815181518114610d6f576040517f08c379a000000000000000000000000000000000000000000000000000000000815260206004820152601a60248201527f45524332303a20696e636f6e73697374656e74206172726179730000000000006044820152606401610b17565b80600003610d7d5750505050565b6000805b828114610f54576000858281518110610d9c57610d9c6138b2565b60200260200101519050600073ffffffffffffffffffffffffffffffffffffffff168173ffffffffffffffffffffffffffffffffffffffff1603610e3c576040517f08c379a000000000000000000000000000000000000000000000000000000000815260206004820152601360248201527f45524332303a206d696e7420746f207a65726f000000000000000000000000006044820152606401610b17565b6000858381518110610e5057610e506138b2565b6020026020010151905080600014610efc57838101848111610ece576040517f08c379a000000000000000000000000000000000000000000000000000000000815260206004820152601660248201527f45524332303a2076616c756573206f766572666c6f77000000000000000000006044820152606401610b17565b73ffffffffffffffffffffffffffffffffffffffff8316600090815260208a90526040902080548301905593505b60405181815273ffffffffffffffffffffffffffffffffffffffff8316906000907fddf252ad1be2c89b69c2b068fc378daa952ba7f163c4a11628f55a4df523b3ef9060200160405180910390a35050600101610d81565b508015610fd3576002850154818101818111610fcc576040517f08c379a000000000000000000000000000000000000000000000000000000000815260206004820152601660248201527f45524332303a20737570706c79206f766572666c6f77000000000000000000006044820152606401610b17565b6002870155505b5050505050565b60007fffffffff00000000000000000000000000000000000000000000000000000000808316900361100e5750600061047e565b7ffe003659000000000000000000000000000000000000000000000000000000007fffffffff0000000000000000000000000000000000000000000000000000000083160161105f5750600161047e565b507fffffffff00000000000000000000000000000000000000000000000000000000166000908152602091909152604090205460ff1690565b60608160000180546110a9906138e1565b80601f01602080910402602001604051908101604052809291908181526020018280546110d5906138e1565b80156111225780601f106110f757610100808354040283529160200191611122565b820191906000526020600020905b81548152906001019060200180831161110557829003601f168201915b50505050509050919050565b6000610496612c75565b73ffffffffffffffffffffffffffffffffffffffff82166111b5576040517f08c379a000000000000000000000000000000000000000000000000000000000815260206004820152601b60248201527f45524332303a207a65726f2061646472657373207370656e64657200000000006044820152606401610b17565b73ffffffffffffffffffffffffffffffffffffffff838116600081815260018701602090815260408083209487168084529482529182902085905590518481527f8c5be1e5ebec7d5bd14f71427d1e84f3dd0314c0f7b2291e5b200ac8c7c3b92591015b60405180910390a350505050565b8373ffffffffffffffffffffffffffffffffffffffff168373ffffffffffffffffffffffffffffffffffffffff16146112665761126685848684612163565b610fd3858484846122b5565b815473ffffffffffffffffffffffffffffffffffffffff8281169116146105ea576040517f08c379a000000000000000000000000000000000000000000000000000000000815260206004820152601860248201527f4f776e6572736869703a206e6f7420746865206f776e657200000000000000006044820152606401610b17565b60008061047e60017fc8827d3282af6f37b64c3e9e6f3ac9df286ab0bb0fccd6f8661bf19adb368b2361389b565b60008381526020858152604080832073ffffffffffffffffffffffffffffffffffffffff8616845290915290205460ff166109705760008381526020858152604080832073ffffffffffffffffffffffffffffffffffffffff8681168086529184529382902080547fffffffffffffffffffffffffffffffffffffffffffffffffffffffffffffff00166001179055815187815292830152918316918101919091527f2f8788117e7eff1d82e926ec794901d17c78024a50270940304540a733656f0d906060015b60405180910390a150505050565b36600061055d612c7f565b6000467f8b73c3c69bb8fe3d512ecc4cf759cc79239f7b179b0ffacaa9a75d522b39400f611433610491610b84565b80516020918201206040805192830193909352918101919091527fc89efdaa54c0f20c7adf612882df0950f5a951637e0307cdcb4c672f298b8bc66060820152608081018290523060a082015260c0016040516020818303038152906040528051906020012091505090565b73ffffffffffffffffffffffffffffffffffffffff821661151c576040517f08c379a000000000000000000000000000000000000000000000000000000000815260206004820152601b60248201527f45524332303a207a65726f2061646472657373207370656e64657200000000006044820152606401610b17565b73ffffffffffffffffffffffffffffffffffffffff808416600090815260018601602090815260408083209386168352929052205481156115fd578082018181116115c3576040517f08c379a000000000000000000000000000000000000000000000000000000000815260206004820152601960248201527f45524332303a20616c6c6f77616e6365206f766572666c6f77000000000000006044820152606401610b17565b73ffffffffffffffffffffffffffffffffffffffff8086166000908152600188016020908152604080832093881683529290522081905590505b8273ffffffffffffffffffffffffffffffffffffffff168473ffffffffffffffffffffffffffffffffffffffff167f8c5be1e5ebec7d5bd14f71427d1e84f3dd0314c0f7b2291e5b200ac8c7c3b9258360405161165c91815260200190565b60405180910390a35050505050565b60008281526020848152604080832073ffffffffffffffffffffffffffffffffffffffff8516845290915290205460ff16610536576116a982612c8a565b6040516020016116b9919061392e565b604080517fffffffffffffffffffffffffffffffffffffffffffffffffffffffffffffffe0818403018152908290527f08c379a0000000000000000000000000000000000000000000000000000000008252610b179160040161321e565b73ffffffffffffffffffffffffffffffffffffffff8216611794576040517f08c379a000000000000000000000000000000000000000000000000000000000815260206004820152601360248201527f45524332303a206d696e7420746f207a65726f000000000000000000000000006044820152606401610b17565b801561183d57600283015481810181811161180b576040517f08c379a000000000000000000000000000000000000000000000000000000000815260206004820152601660248201527f45524332303a20737570706c79206f766572666c6f77000000000000000000006044820152606401610b17565b60028501555073ffffffffffffffffffffffffffffffffffffffff821660009081526020849052604090208054820190555b60405181815273ffffffffffffffffffffffffffffffffffffffff8316906000907fddf252ad1be2c89b69c2b068fc378daa952ba7f163c4a11628f55a4df523b3ef9060200160405180910390a3505050565b8151815181146118fc576040517f08c379a000000000000000000000000000000000000000000000000000000000815260206004820152601a60248201527f45524332303a20696e636f6e73697374656e74206172726179730000000000006044820152606401610b17565b8060000361190a5750610fd3565b73ffffffffffffffffffffffffffffffffffffffff84166000908152602087905260408120549080805b848114611bc957600087828151811061194f5761194f6138b2565b60200260200101519050600073ffffffffffffffffffffffffffffffffffffffff168173ffffffffffffffffffffffffffffffffffffffff16036119ef576040517f08c379a000000000000000000000000000000000000000000000000000000000815260206004820152601660248201527f45524332303a20746f207a65726f2061646472657373000000000000000000006044820152606401610b17565b6000878381518110611a0357611a036138b2565b6020026020010151905080600014611b5857848101858111611a81576040517f08c379a000000000000000000000000000000000000000000000000000000000815260206004820152601660248201527f45524332303a2076616c756573206f766572666c6f77000000000000000000006044820152606401610b17565b8095508273ffffffffffffffffffffffffffffffffffffffff168b73ffffffffffffffffffffffffffffffffffffffff1614611ae75773ffffffffffffffffffffffffffffffffffffffff8316600090815260208e905260409020805483019055611b56565b86821115611b51576040517f08c379a000000000000000000000000000000000000000000000000000000000815260206004820152601b60248201527f45524332303a20696e73756666696369656e742062616c616e636500000000006044820152606401610b17565b938101935b505b8173ffffffffffffffffffffffffffffffffffffffff168a73ffffffffffffffffffffffffffffffffffffffff167fddf252ad1be2c89b69c2b068fc378daa952ba7f163c4a11628f55a4df523b3ef83604051611bb791815260200190565b60405180910390a35050600101611934565b508115801590611bd95750808214155b15611c7557818303838110611c4a576040517f08c379a000000000000000000000000000000000000000000000000000000000815260206004820152601b60248201527f45524332303a20696e73756666696369656e742062616c616e636500000000006044820152606401610b17565b73ffffffffffffffffffffffffffffffffffffffff8816600090815260208b90526040902090820190555b8773ffffffffffffffffffffffffffffffffffffffff168773ffffffffffffffffffffffffffffffffffffffff1614611cb457611cb489888a85612163565b505050505050505050565b815181518114611d2b576040517f08c379a000000000000000000000000000000000000000000000000000000000815260206004820152601a60248201527f45524332303a20696e636f6e73697374656e74206172726179730000000000006044820152606401610b17565b80600003611d395750610970565b73ffffffffffffffffffffffffffffffffffffffff84166000908152602086905260408120549080805b848114611ff8576000878281518110611d7e57611d7e6138b2565b60200260200101519050600073ffffffffffffffffffffffffffffffffffffffff168173ffffffffffffffffffffffffffffffffffffffff1603611e1e576040517f08c379a000000000000000000000000000000000000000000000000000000000815260206004820152601660248201527f45524332303a20746f207a65726f2061646472657373000000000000000000006044820152606401610b17565b6000878381518110611e3257611e326138b2565b6020026020010151905080600014611f8757848101858111611eb0576040517f08c379a000000000000000000000000000000000000000000000000000000000815260206004820152601660248201527f45524332303a2076616c756573206f766572666c6f77000000000000000000006044820152606401610b17565b8095508273ffffffffffffffffffffffffffffffffffffffff168b73ffffffffffffffffffffffffffffffffffffffff1614611f165773ffffffffffffffffffffffffffffffffffffffff8316600090815260208d905260409020805483019055611f85565b86821115611f80576040517f08c379a000000000000000000000000000000000000000000000000000000000815260206004820152601b60248201527f45524332303a20696e73756666696369656e742062616c616e636500000000006044820152606401610b17565b938101935b505b8173ffffffffffffffffffffffffffffffffffffffff168a73ffffffffffffffffffffffffffffffffffffffff167fddf252ad1be2c89b69c2b068fc378daa952ba7f163c4a11628f55a4df523b3ef83604051611fe691815260200190565b60405180910390a35050600101611d63565b5081158015906120085750808214155b156120a457818303838110612079576040517f08c379a000000000000000000000000000000000000000000000000000000000815260206004820152601b60248201527f45524332303a20696e73756666696369656e742062616c616e636500000000006044820152606401610b17565b73ffffffffffffffffffffffffffffffffffffffff8816600090815260208a90526040902090820190555b5050505050505050565b6120b983828461166b565b60008181526020848152604080832073ffffffffffffffffffffffffffffffffffffffff86168085529083529281902080547fffffffffffffffffffffffffffffffffffffffffffffffffffffffffffffff0016905580518481529182018390528101919091527ff6391f5c32d9c69d2a47ea670b442974b53935d1edc7fd64eb21e047a839171b9060600160405180910390a1505050565b60608160010180546110a9906138e1565b73ffffffffffffffffffffffffffffffffffffffff82166121e0576040517f08c379a000000000000000000000000000000000000000000000000000000000815260206004820152601b60248201527f45524332303a207a65726f2061646472657373207370656e64657200000000006044820152606401610b17565b73ffffffffffffffffffffffffffffffffffffffff80841660009081526001860160209081526040808320938616835292905220547fffffffffffffffffffffffffffffffffffffffffffffffffffffffffffffffff811480159061224457508115155b156115fd578181038181106115c3576040517f08c379a000000000000000000000000000000000000000000000000000000000815260206004820152601d60248201527f45524332303a20696e73756666696369656e7420616c6c6f77616e63650000006044820152606401610b17565b73ffffffffffffffffffffffffffffffffffffffff8216612332576040517f08c379a000000000000000000000000000000000000000000000000000000000815260206004820152601660248201527f45524332303a20746f207a65726f2061646472657373000000000000000000006044820152606401610b17565b80156124375773ffffffffffffffffffffffffffffffffffffffff83166000908152602085905260409020548181038181106123ca576040517f08c379a000000000000000000000000000000000000000000000000000000000815260206004820152601b60248201527f45524332303a20696e73756666696369656e742062616c616e636500000000006044820152606401610b17565b8373ffffffffffffffffffffffffffffffffffffffff168573ffffffffffffffffffffffffffffffffffffffff16146124345773ffffffffffffffffffffffffffffffffffffffff8086166000908152602088905260408082208490559186168152208054840190555b50505b8173ffffffffffffffffffffffffffffffffffffffff168373ffffffffffffffffffffffffffffffffffffffff167fddf252ad1be2c89b69c2b068fc378daa952ba7f163c4a11628f55a4df523b3ef8360405161121991815260200190565b6124a38787878787611227565b73ffffffffffffffffffffffffffffffffffffffff84163b156107e3576040517f4fc35859000000000000000000000000000000000000000000000000000000008082529073ffffffffffffffffffffffffffffffffffffffff861690634fc358599061251c908a908a9089908990899060040161399a565b6020604051808303816000875af115801561253b573d6000803e3d6000fd5b505050506040513d601f19601f8201168201806040525081019061255f91906139e5565b7fffffffff0000000000000000000000000000000000000000000000000000000016146107e3576040517f08c379a000000000000000000000000000000000000000000000000000000000815260206004820152601760248201527f45524332303a207472616e7366657220726566757365640000000000000000006044820152606401610b17565b73ffffffffffffffffffffffffffffffffffffffff8716612665576040517f08c379a000000000000000000000000000000000000000000000000000000000815260206004820152601960248201527f45524332303a207a65726f2061646472657373206f776e6572000000000000006044820152606401610b17565b834211156126cf576040517f08c379a000000000000000000000000000000000000000000000000000000000815260206004820152601560248201527f45524332303a2065787069726564207065726d697400000000000000000000006044820152606401610b17565b73ffffffffffffffffffffffffffffffffffffffff8716600090815260208990526040812080547f6e71edae12b1b97f4d1f60370fef10105fa2faae0126114a169c64845d6126c9918a918a918a91908661272983613a02565b9091555060408051602081019690965273ffffffffffffffffffffffffffffffffffffffff94851690860152929091166060840152608083015260a082015260c0810186905260e0016040516020818303038152906040528051906020012090506000612794611404565b6040517f19010000000000000000000000000000000000000000000000000000000000006020820152602281019190915260428101839052606201604080517fffffffffffffffffffffffffffffffffffffffffffffffffffffffffffffffe08184030181528282528051602091820120600080855291840180845281905260ff89169284019290925260608301879052608083018690529092509060019060a0016020604051602081039080840390855afa158015612858573d6000803e3d6000fd5b5050506020604051035190508973ffffffffffffffffffffffffffffffffffffffff168173ffffffffffffffffffffffffffffffffffffffff16146128f9576040517f08c379a000000000000000000000000000000000000000000000000000000000815260206004820152601560248201527f45524332303a20696e76616c6964207065726d697400000000000000000000006044820152606401610b17565b6129078a8a8a6104b26108d3565b5050505050505050505050565b60008381526020858152604080832073ffffffffffffffffffffffffffffffffffffffff8616845290915290205460ff16156109705760008381526020858152604080832073ffffffffffffffffffffffffffffffffffffffff8681168086529184529382902080547fffffffffffffffffffffffffffffffffffffffffffffffffffffffffffffff00169055815187815292830152918316918101919091527ff6391f5c32d9c69d2a47ea670b442974b53935d1edc7fd64eb21e047a839171b906060016113eb565b8051610536908390602084019061310e565b6129fc868686866122b5565b73ffffffffffffffffffffffffffffffffffffffff84163b15612b41576040517f4fc35859000000000000000000000000000000000000000000000000000000008082529073ffffffffffffffffffffffffffffffffffffffff861690634fc3585990612a75908990819089908990899060040161399a565b6020604051808303816000875af1158015612a94573d6000803e3d6000fd5b505050506040513d601f19601f82011682018060405250810190612ab891906139e5565b7fffffffff000000000000000000000000000000000000000000000000000000001614612b41576040517f08c379a000000000000000000000000000000000000000000000000000000000815260206004820152601760248201527f45524332303a207472616e7366657220726566757365640000000000000000006044820152606401610b17565b505050505050565b825473ffffffffffffffffffffffffffffffffffffffff9081169083168114612bce576040517f08c379a000000000000000000000000000000000000000000000000000000000815260206004820152601860248201527f4f776e6572736869703a206e6f7420746865206f776e657200000000000000006044820152606401610b17565b8173ffffffffffffffffffffffffffffffffffffffff168173ffffffffffffffffffffffffffffffffffffffff16146109705783547fffffffffffffffffffffffff00000000000000000000000000000000000000001673ffffffffffffffffffffffffffffffffffffffff8381169182178655604051908316907f8be0079c531659141344cd1fd0a4f28419497f9722a3daafe3b4186f6b6457e090600090a350505050565b6000610496612e14565b36600061055d612f6c565b60606000829003612ca957505060408051602081019091526000815290565b600082604051602001612cbe91815260200190565b604080517fffffffffffffffffffffffffffffffffffffffffffffffffffffffffffffffe08184030181529190529050601f5b818181518110612d0357612d036138b2565b01602001517fff0000000000000000000000000000000000000000000000000000000000000016600003612d4157612d3a81613a3a565b9050612cf1565b6000612d4e826001613a6f565b67ffffffffffffffff811115612d6657612d6661338f565b6040519080825280601f01601f191660200182016040528015612d90576020820181803683370190505b50905060005b828111612e0b57838181518110612daf57612daf6138b2565b602001015160f81c60f81b828281518110612dcc57612dcc6138b2565b60200101907effffffffffffffffffffffffffffffffffffffffffffffffffffffffffffff1916908160001a905350612e0481613a02565b9050612d96565b50949350505050565b600033328103612e2357919050565b6000367fffffffffffffffffffffffffffffffffffffffffffffffffffffffffffffffec013560601c90507f000000000000000000000000000000000000000000000000000000000000000073ffffffffffffffffffffffffffffffffffffffff168273ffffffffffffffffffffffffffffffffffffffff161480612f5b57506040517fe60125d600000000000000000000000000000000000000000000000000000000815273ffffffffffffffffffffffffffffffffffffffff828116600483015283811660248301527f0000000000000000000000000000000000000000000000000000000000000000169063e60125d690604401602060405180830381865afa158015612f37573d6000803e3d6000fd5b505050506040513d601f19601f82011682018060405250810190612f5b9190613a87565b15612f665792915050565b50919050565b36600033328103612f8257506000923692509050565b7f000000000000000000000000000000000000000000000000000000000000000073ffffffffffffffffffffffffffffffffffffffff168173ffffffffffffffffffffffffffffffffffffffff1614806130cf575073ffffffffffffffffffffffffffffffffffffffff7f00000000000000000000000000000000000000000000000000000000000000001663e60125d6367fffffffffffffffffffffffffffffffffffffffffffffffffffffffffffffffec013560601c6040517fffffffff0000000000000000000000000000000000000000000000000000000060e084901b16815273ffffffffffffffffffffffffffffffffffffffff91821660048201529084166024820152604401602060405180830381865afa1580156130ab573d6000803e3d6000fd5b505050506040513d601f19601f820116820180604052508101906130cf9190613a87565b156130e5576130dc6130f0565b92509250509091565b506000923692509050565b36600080808361310160148261389b565b9261055d93929190613aa9565b82805461311a906138e1565b90600052602060002090601f01602090048101928261313c5760008555613182565b82601f1061315557805160ff1916838001178555613182565b82800160010185558215613182579182015b82811115613182578251825591602001919060010190613167565b5061318e929150613192565b5090565b5b8082111561318e5760008155600101613193565b7fffffffff00000000000000000000000000000000000000000000000000000000811681146106cf57600080fd5b6000602082840312156131e757600080fd5b813561073d816131a7565b60005b8381101561320d5781810151838201526020016131f5565b838111156109705750506000910152565b602081526000825180602084015261323d8160408501602087016131f2565b601f017fffffffffffffffffffffffffffffffffffffffffffffffffffffffffffffffe0169190910160400192915050565b803573ffffffffffffffffffffffffffffffffffffffff8116811461329357600080fd5b919050565b600080604083850312156132ab57600080fd5b6132b48361326f565b946020939093013593505050565b6000806000606084860312156132d757600080fd5b6132e08461326f565b92506132ee6020850161326f565b9150604084013590509250925092565b6000806040838503121561331157600080fd5b823591506133216020840161326f565b90509250929050565b8183528181602085013750600060208284010152600060207fffffffffffffffffffffffffffffffffffffffffffffffffffffffffffffffe0601f840116840101905092915050565b60208152600061338760208301848661332a565b949350505050565b7f4e487b7100000000000000000000000000000000000000000000000000000000600052604160045260246000fd5b604051601f82017fffffffffffffffffffffffffffffffffffffffffffffffffffffffffffffffe016810167ffffffffffffffff811182821017156134055761340561338f565b604052919050565b600067ffffffffffffffff8211156134275761342761338f565b5060051b60200190565b600082601f83011261344257600080fd5b813560206134576134528361340d565b6133be565b82815260059290921b8401810191818101908684111561347657600080fd5b8286015b848110156134985761348b8161326f565b835291830191830161347a565b509695505050505050565b600082601f8301126134b457600080fd5b813560206134c46134528361340d565b82815260059290921b840181019181810190868411156134e357600080fd5b8286015b8481101561349857803583529183019183016134e7565b60008060006060848603121561351357600080fd5b61351c8461326f565b9250602084013567ffffffffffffffff8082111561353957600080fd5b61354587838801613431565b9350604086013591508082111561355b57600080fd5b50613568868287016134a3565b9150509250925092565b6000806040838503121561358557600080fd5b823567ffffffffffffffff8082111561359d57600080fd5b6135a986838701613431565b935060208501359150808211156135bf57600080fd5b506135cc858286016134a3565b9150509250929050565b6000602082840312156135e857600080fd5b61073d8261326f565b60006020828403121561360357600080fd5b5035919050565b60008083601f84011261361c57600080fd5b50813567ffffffffffffffff81111561363457600080fd5b60208301915083602082850101111561364c57600080fd5b9250929050565b60008060008060006080868803121561366b57600080fd5b6136748661326f565b94506136826020870161326f565b935060408601359250606086013567ffffffffffffffff8111156136a557600080fd5b6136b18882890161360a565b969995985093965092949392505050565b600080600080600080600060e0888a0312156136dd57600080fd5b6136e68861326f565b96506136f46020890161326f565b95506040880135945060608801359350608088013560ff8116811461371857600080fd5b9699959850939692959460a0840135945060c09093013592915050565b6000806040838503121561374857600080fd5b6137518361326f565b91506133216020840161326f565b6000602080838503121561377257600080fd5b823567ffffffffffffffff8082111561378a57600080fd5b818501915085601f83011261379e57600080fd5b8135818111156137b0576137b061338f565b6137e0847fffffffffffffffffffffffffffffffffffffffffffffffffffffffffffffffe0601f840116016133be565b915080825286848285010111156137f657600080fd5b8084840185840137600090820190930192909252509392505050565b6000806000806060858703121561382857600080fd5b6138318561326f565b935060208501359250604085013567ffffffffffffffff81111561385457600080fd5b6138608782880161360a565b95989497509550505050565b7f4e487b7100000000000000000000000000000000000000000000000000000000600052601160045260246000fd5b6000828210156138ad576138ad61386c565b500390565b7f4e487b7100000000000000000000000000000000000000000000000000000000600052603260045260246000fd5b600181811c908216806138f557607f821691505b602082108103612f66577f4e487b7100000000000000000000000000000000000000000000000000000000600052602260045260246000fd5b7f416363657373436f6e74726f6c3a206d697373696e67202700000000000000008152600082516139668160188501602087016131f2565b7f2720726f6c6500000000000000000000000000000000000000000000000000006018939091019283015250601e01919050565b600073ffffffffffffffffffffffffffffffffffffffff8088168352808716602084015250846040830152608060608301526139da60808301848661332a565b979650505050505050565b6000602082840312156139f757600080fd5b815161073d816131a7565b60007fffffffffffffffffffffffffffffffffffffffffffffffffffffffffffffffff8203613a3357613a3361386c565b5060010190565b600081613a4957613a4961386c565b507fffffffffffffffffffffffffffffffffffffffffffffffffffffffffffffffff0190565b60008219821115613a8257613a8261386c565b500190565b600060208284031215613a9957600080fd5b8151801515811461073d57600080fd5b60008085851115613ab957600080fd5b83861115613ac657600080fd5b505082019391909203915056fea26469706673582212201c1d6d13f7d4aa736916b26de92c2495dbcbfe2f8d21362fb95ddd34fb8e08db64736f6c634300080e0033",
  "linkReferences": {},
  "deployedLinkReferences": {}
}