{
  "_format": "hh-sol-artifact-1",
  "contractName": "PayoutWalletMock",
  "sourceName": "contracts/mocks/payment/PayoutWalletMock.sol",
  "abi": [
    {
      "inputs": [
        {
          "internalType": "address payable",
          "name": "initialPayoutWallet",
          "type": "address"
        },
        {
          "internalType": "contract IForwarderRegistry",
          "name": "forwarderRegistry",
          "type": "address"
        }
      ],
      "stateMutability": "nonpayable",
      "type": "constructor"
    },
    {
      "anonymous": false,
      "inputs": [
        {
          "indexed": true,
          "internalType": "address",
          "name": "previousOwner",
          "type": "address"
        },
        {
          "indexed": true,
          "internalType": "address",
          "name": "newOwner",
          "type": "address"
        }
      ],
      "name": "OwnershipTransferred",
      "type": "event"
    },
    {
      "anonymous": false,
      "inputs": [
        {
          "indexed": false,
          "internalType": "address",
          "name": "payoutWallet",
          "type": "address"
        }
      ],
      "name": "PayoutWalletSet",
      "type": "event"
    },
    {
      "inputs": [],
      "name": "__msgData",
      "outputs": [
        {
          "internalType": "bytes",
          "name": "",
          "type": "bytes"
        }
      ],
      "stateMutability": "view",
      "type": "function"
    },
    {
      "inputs": [],
      "name": "owner",
      "outputs": [
        {
          "internalType": "address",
          "name": "",
          "type": "address"
        }
      ],
      "stateMutability": "view",
      "type": "function"
    },
    {
      "inputs": [],
      "name": "payoutWallet",
      "outputs": [
        {
          "internalType": "address payable",
          "name": "wallet",
          "type": "address"
        }
      ],
      "stateMutability": "view",
      "type": "function"
    },
    {
      "inputs": [
        {
          "internalType": "address payable",
          "name": "payoutWallet_",
          "type": "address"
        }
      ],
      "name": "setPayoutWallet",
      "outputs": [],
      "stateMutability": "nonpayable",
      "type": "function"
    },
    {
      "inputs": [
        {
          "internalType": "bytes4",
          "name": "interfaceId",
          "type": "bytes4"
        }
      ],
      "name": "supportsInterface",
      "outputs": [
        {
          "internalType": "bool",
          "name": "",
          "type": "bool"
        }
      ],
      "stateMutability": "view",
      "type": "function"
    },
    {
      "inputs": [
        {
          "internalType": "address",
          "name": "newOwner",
          "type": "address"
        }
      ],
      "name": "transferOwnership",
      "outputs": [],
      "stateMutability": "nonpayable",
      "type": "function"
    }
  ],
  "bytecode": "0x60a06040523480156200001157600080fd5b50604051620045fe380380620045fe833981810160405281019062000037919062001630565b8082336200006e7f93712213d35a2dee20c56e271600de4e102367846874dc8781923292350d8bd360001b620003a360201b60201c565b620000a27f7d7afdf85ccc889bef0696a37cb2f72027e2d22cb894cc3700f2d63c077e5b8260001b620003a360201b60201c565b620000d67f2e0b3bbf39bdb34b590ab4be455ea02f46406b61150cfa24c226be9346557efb60001b620003a360201b60201c565b62000100620000ef620003a660201b620005aa1760201c565b620004b860201b6200069a1760201c565b620001347fee77d43cdb84ff6f591a359dfe4c297ada9965eee979398c93ac2444248c090460001b6200064860201b60201c565b620001687fba0137411b19514ccdf31455419ba72ddd33445fd7a7565e465d1d1243ab8afb60001b6200064860201b60201c565b6200019c7ff6924492e56999d342aac88459ca91c16fe31e51b407e41458e9e3d94984953060001b6200064860201b60201c565b620001ca81620001b66200064b60201b620007ec1760201c565b6200075d60201b620008dc1790919060201c565b50620001ff7f2c64ff2838dd9ac539921d10eb5bad2097c73622e8b69ed942d5514dfdf2e28160001b62000b7c60201b60201c565b620002337f888f2d0c1a8d13b544fae2509733ab64282d37d56b33fdef6f50d6215b2c89e360001b62000b7c60201b60201c565b620002677fd5635a205b676a45a77859b7270028f504ec6b28b5203a7882f8593b99373d7e60001b62000b7c60201b60201c565b62000295816200028162000b7f60201b62000c6e1760201c565b62000c9160201b62000d5e1790919060201c565b50620002ca7f6a83522c126b1f14401cda64886fc651a7060f385b5e2d289e620e1859fee4e760001b62000dff60201b60201c565b620002fe7ff6fd3c5688ac3ada9425e55f9cce326a85fd64fca9b1584401f3d2203aee560b60001b62000dff60201b60201c565b620003327fe7883c748f395270b53c914004a2b83ffb6acf3836fed33ec0a3c0eb061e618860001b62000dff60201b60201c565b8073ffffffffffffffffffffffffffffffffffffffff1660808173ffffffffffffffffffffffffffffffffffffffff1681525050506200039b7f19b9a6c75823f613189006505853dc3532bb535a8826a1d9dc04d817c53439e760001b62000e0260201b60201c565b5050620018da565b50565b6000620003dc7f33dac451eefd1a6808163eecf8d47d7cba5f56d00787de044ff0ddc2ee89447d60001b62000e0560201b60201c565b620004107f80b5daaa693fe30ccf9f1f19243499ce9fe4bada91264dd37e7099a713fc8c0360001b62000e0560201b60201c565b620004447f66e2273229caef60ac0be45d070cc66ba1aaceeca2776bdf1fc50206d54f0f2260001b62000e0560201b60201c565b600060017f7180ffa89c91cf90d6c56dacabfc69bc5e36f3099d7eed2f5cc12c5dba016fe060001c620004789190620016b0565b60001b9050620004b17f283bb7ffa148f4f77b397c4f3d35798bfd3f1214dd2b6c078e2824cd344247cc60001b62000e0560201b60201c565b8091505090565b620004ec7f5200586752970e3ad0d6bfb86359724ccb5bbca672323dd1340f822383a3a78a60001b62000e0560201b60201c565b620005207f21e408fec048d3ce80d29705163530f5314fc555a45fc9ed3eec40536ac1181b60001b62000e0560201b60201c565b620005547fdf39b92832ecc4113090a37ec124901cf4d2d8c7e6bd38a4644acf01b4acb95760001b62000e0560201b60201c565b620005a060017f947245cdabe12ef4c13574b38217b361de48f57dd2dc345f43703c79bac2873d60001c6200058a9190620016b0565b60001b600162000e0860201b62000e8e1760201c565b620005d47fb775b727726cd7df9efcdd350b66fb2339470997ef5b7c30b825508f2ed6230060001b62000e0560201b60201c565b620006087fdba9d8a730f53aaaf88810c499da24a361a60fb181cfa11a5a79504d369b1bf360001b62000e0560201b60201c565b620006457f01ffc9a7000000000000000000000000000000000000000000000000000000006001836200104d60201b6200107b179092919060201c565b50565b50565b6000620006817f12b4db1a13ae954a255ef0fa37765d8ee1e39537e429053253a663eff808644d60001b6200129460201b60201c565b620006b57feebae444011023bb1eb9d991a8900c1fc6c9dc05e526ab9149645480ea211c3e60001b6200129460201b60201c565b620006e97f7a85e8875e57667831d822c4c89a943f00106e2fdc910c0df83014dfd0d1477360001b6200129460201b60201c565b600060017f6a1da6973104ff7dedb9b4f5cab5830b3f4a0284ed754366cfc45568bd2d38df60001c6200071d9190620016b0565b60001b9050620007567fcd65f8dce9f650605649809ea57b1b403b2167736801d4eb4d6da1b99327986060001b6200129460201b60201c565b8091505090565b620007917f7ade047f1b18d3d9e4cf2dbfa4799e6897d1938ea0071c35770980d99be7675260001b6200129460201b60201c565b620007c57fc0dd688ff28228f194ec76f495cc7b3de785a006ebf0721800218186e051433c60001b6200129460201b60201c565b620007f97f61c3ae71c4d526f3dfc13684ed672ca191550d63636ab205f7bffd9b572c6aef60001b6200129460201b60201c565b6200084560017ff1e2f4de496ffe5d046d751d8ec3c329ee011c6c6a229322971a7e02a207f97360001c6200082f9190620016b0565b60001b600162000e0860201b62000e8e1760201c565b620008797fd348f5ca66daae8709ef102811c105c3e31fe6f6cc1edc224d2702ff3009e1f360001b6200129460201b60201c565b620008ad7f2fc46fc72a173dcc9c44e150d62890a4da759120e0f0d8e0bc33685ddd0f71be60001b6200129460201b60201c565b600073ffffffffffffffffffffffffffffffffffffffff168173ffffffffffffffffffffffffffffffffffffffff161462000a8a57620009167f848a7b68acd8a245034bcc598f7508c96da067c4bf9df5962896ab6e4cbacbdc60001b6200129460201b60201c565b6200094a7ffdef29fccd1fc52788b15fca93499f63fa408221ea0a7069b8da1a7aaf65e10660001b6200129460201b60201c565b6200097e7f793ccf870c20f1e89df7f66b11ec23db8c2400e3975173b0217a0164a2d8add360001b6200129460201b60201c565b808260000160006101000a81548173ffffffffffffffffffffffffffffffffffffffff021916908373ffffffffffffffffffffffffffffffffffffffff160217905550620009f57fb8e5ea9fbb88bedd793f2345d140e5dd30fa2d6b312ff0e0f840f21e44632d1560001b6200129460201b60201c565b62000a297ffd7dc9b3efa62dab8d13f6b0e28c02f666353f25b3e027756a44e148e82691da60001b6200129460201b60201c565b8073ffffffffffffffffffffffffffffffffffffffff16600073ffffffffffffffffffffffffffffffffffffffff167f8be0079c531659141344cd1fd0a4f28419497f9722a3daafe3b4186f6b6457e060405160405180910390a362000abf565b62000abe7fa8ee02fcfeaac392aadc593dfe7e0afeeae4022baf9fc709470ae9e2d5ce63c460001b6200129460201b60201c565b5b62000af37f1da89fa828fcf0c756100601da9c9cead2f05c62afa4c1d26d316f4bd430b13960001b6200129460201b60201c565b62000b277f69b196e3069d1309b23672c2540a03d602ef55a0acb3cc82b52b164fa69b37bb60001b6200129460201b60201c565b62000b787f7f5828d000000000000000000000000000000000000000000000000000000000600162000b63620003a660201b620005aa1760201c565b6200104d60201b6200107b179092919060201c565b5050565b50565b600062000bb57fb15223dd800023190b5ffab037c2d59190e4c74ff173a70a251292cafac8c37f60001b6200129760201b60201c565b62000be97fbb9ff8a852144302b8c0df4f64d0474f5e9ff9eb539e89edf7a87bac832404f560001b6200129760201b60201c565b62000c1d7f5ed7ac05eccfe0bed3ec6776701f1a32a91125869b72204cc4592e7418e6f34560001b6200129760201b60201c565b600060017f89eb436ee4870c51a38e2f0153cc874917c373f6d1129026cdc184ead19d107d60001c62000c519190620016b0565b60001b905062000c8a7fd7d0bd49f440319dbb6c26aa92784df7263e90d6f07805915132c2d227f22e5760001b6200129760201b60201c565b8091505090565b62000cc57f9167ff8c774fb76107a7f870d877c16c219183060d010200f987b444cd42087f60001b6200129760201b60201c565b62000cf97fc0998e79383f8c1ab9a1e857984e2579277456927e045c1fb9157d39778d717e60001b6200129760201b60201c565b62000d2d7f668dd64756c9c966b3682f3ea5a6f28436df6d23ae1343a9337837fa3494203660001b6200129760201b60201c565b62000d7960017f548ef50d3fd1a953000bd9658360ce0c0fab1e99be465a6bb58c1ef3beb53a8060001c62000d639190620016b0565b60001b600162000e0860201b62000e8e1760201c565b62000dad7fe8c496d750f4e3537908fd7b31ab9cef793435f96ddb2e4c1621946483aff20460001b6200129760201b60201c565b62000de17f4e34d5a1f76f9408cb924cd67cf1f36b4d843246d8b6f1f11d0cded5a1b7eae460001b6200129760201b60201c565b62000dfb81836200129a60201b620012871790919060201c565b5050565b50565b50565b50565b62000e3c7f523c5c55fa27c1465eb0ba13f6927ac81ca2e843dca5743a6ceafc60fd44a7a260001b6200156060201b60201c565b62000e707f04772ea788fd843b127a602e9cfb0c6a91dd658dfc8c6564fb399afa5c8187c060001b6200156060201b60201c565b62000ea47fcb69cb3c0f8a75e2c548a59a9a6f16480c220dc9611455e2f2a5ff64c19012f660001b6200156060201b60201c565b600062000ebc836200156360201b620015001760201c565b905062000ef27f05454e9c8dc486b9dafcaafcc4a6b37e8e4a0bd10c5a957d6788a08d4705e74a60001b6200156060201b60201c565b62000f267f545be28ad664a45fbd66a4b1cf9af17e7b7fa1c0858756e55615423b09c10cf960001b6200156060201b60201c565b62000f5a7f7b74d3cbf19e745235b98e2e533402f6fea14c7950d83932d7459f8c0776ae7560001b6200156060201b60201c565b8181600001541062000fa3576040517f08c379a000000000000000000000000000000000000000000000000000000000815260040162000f9a906200174c565b60405180910390fd5b62000fd77fb77e179c39cd483a2fb9d49c9d6baaf337e679c6fc0b0193351b78700052fb6060001b6200156060201b60201c565b6200100b7f73251853a52f4546290b9dbdb4820ad06a75d361304d051af620ac9db846f98760001b6200156060201b60201c565b6200103f7f8670f345bbc08bb652aae01676abdbb142983e1527aecdd350c544d4ac9aa25360001b6200156060201b60201c565b818160000181905550505050565b620010817ffeeaaad6b1efab2833cc700d80f740603a4ac6746f8e38068c950d299cc199bf60001b62000e0560201b60201c565b620010b57f3ca2cb9a9b6e35728cedd7c19d4c121988341387931213a51eab1b4bbaf4113560001b62000e0560201b60201c565b620010e97f1f9cdb98c65d0ad87aac43319c2670926bcb7c14904c7f9d4ade6235d82de71960001b62000e0560201b60201c565b6200111d7f5dbdac164f3e02893e8f90adfbe776f3f50c85847d234ab6fb16b0a4846759d760001b62000e0560201b60201c565b63ffffffff60e01b827bffffffffffffffffffffffffffffffffffffffffffffffffffffffff19160362001188576040517f08c379a00000000000000000000000000000000000000000000000000000000081526004016200117f90620017be565b60405180910390fd5b620011bc7fd6b36b8472d324009615e496388c108ffb1831ab3bd7bded72d29ac4baf2ad1e60001b62000e0560201b60201c565b620011f07f7b2218cefa5bbb0f0239126c55783358df88ffab00f11d9c8f8e38985d9a8c9860001b62000e0560201b60201c565b620012247f2ad1063a0d34755f3bea24bcd3cfaff3dbbf63fbfa3f9b4c9c252fdffa66ed3360001b62000e0560201b60201c565b80836000016000847bffffffffffffffffffffffffffffffffffffffffffffffffffffffff19167bffffffffffffffffffffffffffffffffffffffffffffffffffffffff1916815260200190815260200160002060006101000a81548160ff021916908315150217905550505050565b50565b50565b620012ce7f363f8b43e4cb4a07b84b9fa759a18172b595a4d47520da9e36a15d34756fb1d260001b6200129760201b60201c565b620013027f57e2e1200cfc84e0ba242674eb98d3707b46a41f49b7586b37c174b4df0153f060001b6200129760201b60201c565b620013367f09b090a534543fc39d79ce4cffc00a6e0d7fd588f47492b82b7720a19b73a95d60001b6200129760201b60201c565b6200136a7fd3ea2804b29484e1e2bfaffee75d3ba11d08fa078d166e489ff57df0cd59fceb60001b6200129760201b60201c565b600073ffffffffffffffffffffffffffffffffffffffff168173ffffffffffffffffffffffffffffffffffffffff1603620013dc576040517f08c379a0000000000000000000000000000000000000000000000000000000008152600401620013d39062001830565b60405180910390fd5b620014107f4350761ee250a75a27f71825b6a65f0423267100ad320dd809e61b2a77e44d5b60001b6200129760201b60201c565b620014447fb4e34919aae47eb9bc568b1ca3cacef0a3241923ec4b06190e27c779cde3180160001b6200129760201b60201c565b620014787f2461979373b55da5b37c9aef9376d5a7ef0e4663e9887c46af09fe7a6eac32ff60001b6200129760201b60201c565b808260000160006101000a81548173ffffffffffffffffffffffffffffffffffffffff021916908373ffffffffffffffffffffffffffffffffffffffff160217905550620014ef7f9da1b91d30bda834d551dfba6db9a163bbb528439749827f0942b2d3e271538b60001b6200129760201b60201c565b620015237ff4b8db34c1493cddb9704fdbf584fe28cbf4064b427aa69b0e9be81fdee5a3e460001b6200129760201b60201c565b7fdd880d24a789958a6398c99c2e54ce31bc10a638cbc42f7dd34285479ae0f85581604051620015549190620018bd565b60405180910390a15050565b50565b6000819050919050565b600080fd5b600073ffffffffffffffffffffffffffffffffffffffff82169050919050565b60006200159f8262001572565b9050919050565b620015b18162001592565b8114620015bd57600080fd5b50565b600081519050620015d181620015a6565b92915050565b6000620015e48262001572565b9050919050565b6000620015f882620015d7565b9050919050565b6200160a81620015eb565b81146200161657600080fd5b50565b6000815190506200162a81620015ff565b92915050565b600080604083850312156200164a57620016496200156d565b5b60006200165a85828601620015c0565b92505060206200166d8582860162001619565b9150509250929050565b6000819050919050565b7f4e487b7100000000000000000000000000000000000000000000000000000000600052601160045260246000fd5b6000620016bd8262001677565b9150620016ca8362001677565b925082821015620016e057620016df62001681565b5b828203905092915050565b600082825260208201905092915050565b7f53746f726167653a2076657273696f6e20726561636865640000000000000000600082015250565b600062001734601883620016eb565b91506200174182620016fc565b602082019050919050565b60006020820190508181036000830152620017678162001725565b9050919050565b7f496e74657266616365446574656374696f6e3a2077726f6e672076616c756500600082015250565b6000620017a6601f83620016eb565b9150620017b3826200176e565b602082019050919050565b60006020820190508181036000830152620017d98162001797565b9050919050565b7f5061796f757457616c6c65743a207a65726f2061646472657373000000000000600082015250565b600062001818601a83620016eb565b91506200182582620017e0565b602082019050919050565b600060208201905081810360008301526200184b8162001809565b9050919050565b6000819050919050565b60006200187d62001877620018718462001572565b62001852565b62001572565b9050919050565b600062001891826200185c565b9050919050565b6000620018a58262001884565b9050919050565b620018b78162001898565b82525050565b6000602082019050620018d46000830184620018ac565b92915050565b608051612cf36200190b60003960008181611ee201528181611f370152818161239201526123e70152612cf36000f3fe608060405234801561001057600080fd5b50600436106100725760003560e01c80638488bb4e116100505780638488bb4e146100e25780638da5cb5b14610100578063f2fde38b1461011e57610072565b806301ffc9a71461007757806331e66e1e146100a75780636b8f9c43146100c6575b600080fd5b610091600480360381019061008c919061271f565b61013a565b60405161009e9190612767565b60405180910390f35b6100af6101e1565b6040516100bd9291906127e0565b60405180910390f35b6100e060048036038101906100db9190612862565b610278565b005b6100ea610392565b6040516100f7919061289e565b60405180910390f35b610108610449565b60405161011591906128da565b60405180910390f35b61013860048036038101906101339190612921565b610500565b005b60006101687ff8a50cb57dfbe5cd3087ac85b472f4e855947a0b492414ca3ed0d3ea9ce7678460001b61150a565b6101947f74f508077361b12f3b9081a81671a8b810d2013470fc5f93bc3703060f4b948060001b61150a565b6101c07f51d3a827738b8595e3720ba2309d5148006e9b73b285f86aca1f5570723bb89260001b61150a565b6101da826101cc6105aa565b61150d90919063ffffffff16565b9050919050565b3660006102107f6f5ce32d9d2f379c2554d4e1179de6e96e0850c7765bf7fbd2ec15f8e755a7da60001b6115fc565b61023c7fe52a38d8d731eda875ac595ee4d4fd41065785190fcdceb41713064d6ab43dc160001b6115fc565b6102687f253280ba53ae980a1fb77e45ab79600be91aee5eeb105ac587b2f3eec4ce829760001b6115fc565b6102706115ff565b915091509091565b6102a47fa6c28f2ca8ae206bc1deb8af9975716714fa9a25f611a670c2d36edec43b552c60001b611696565b6102d07ff6a5f9c1cac36cc425a3314ab5f82bf9343c9543abdef50f2296da3a15c6626660001b611696565b6102fc7fc0ce627a28367142d1e26893e91ea7a406a79bccde99d232236417962f0d12cc60001b611696565b61031d610307611699565b61030f6107ec565b61172c90919063ffffffff16565b6103497ff55af35cb2836ba7f77a4b865b712d307e8db9e40109a484f0c279b139ec814360001b611696565b6103757ff83b05dbd49fae3d433e43abc834d621c2933e08f33ffd8dd44e438afb643c7260001b611696565b61038f81610381610c6e565b61128790919063ffffffff16565b50565b60006103c07f598e1aee9116b235f1c1eae495717e6923083a7fb5b9039266e4f97322cfeec660001b611696565b6103ec7f40146afa843693b5285f58e4090a2e3716f49fbb65c858db553844ad6eb1f93e60001b611696565b6104187f7580a7a743a66c5b9dea04691fc06297d28d7de09cc6e0b664be4e7eb58a4ac660001b611696565b610420610c6e565b60000160009054906101000a900473ffffffffffffffffffffffffffffffffffffffff16905090565b60006104777f843413c3a80603a10b0aa10bd5f1f82cff0a1d8ec6b12e0fc267ea5481ebe15260001b61189e565b6104a37f599f920b3cf0c2c31e8b9ef15872f4edba7b3d935eac1ce98786a62fe4c50c8360001b61189e565b6104cf7f2048414aa8fb1906a4a6033772a4078e3d4a3cda2661b375c19db4083725225c60001b61189e565b6104d76107ec565b60000160009054906101000a900473ffffffffffffffffffffffffffffffffffffffff16905090565b61052c7f5f13e2beb87a5bcbc201caa1ec970b16378cebed0eb297e1a40ddc137a86a63960001b61189e565b6105587f0298e1e039854de28e6fbf14e758e182d6ea7790f1874626c850541e13251cc660001b61189e565b6105847f86bf5d1cdbf7d3de856cb7a4aed493fe35fba57e8b307d0e58407beffd995f7460001b61189e565b6105a761058f611699565b826105986107ec565b6118a19092919063ffffffff16565b50565b60006105d87f33dac451eefd1a6808163eecf8d47d7cba5f56d00787de044ff0ddc2ee89447d60001b611ca8565b6106047f80b5daaa693fe30ccf9f1f19243499ce9fe4bada91264dd37e7099a713fc8c0360001b611ca8565b6106307f66e2273229caef60ac0be45d070cc66ba1aaceeca2776bdf1fc50206d54f0f2260001b611ca8565b600060017f7180ffa89c91cf90d6c56dacabfc69bc5e36f3099d7eed2f5cc12c5dba016fe060001c6106629190612987565b60001b90506106937f283bb7ffa148f4f77b397c4f3d35798bfd3f1214dd2b6c078e2824cd344247cc60001b611ca8565b8091505090565b6106c67f5200586752970e3ad0d6bfb86359724ccb5bbca672323dd1340f822383a3a78a60001b611ca8565b6106f27f21e408fec048d3ce80d29705163530f5314fc555a45fc9ed3eec40536ac1181b60001b611ca8565b61071e7fdf39b92832ecc4113090a37ec124901cf4d2d8c7e6bd38a4644acf01b4acb95760001b611ca8565b61075b60017f947245cdabe12ef4c13574b38217b361de48f57dd2dc345f43703c79bac2873d60001c6107519190612987565b60001b6001610e8e565b6107877fb775b727726cd7df9efcdd350b66fb2339470997ef5b7c30b825508f2ed6230060001b611ca8565b6107b37fdba9d8a730f53aaaf88810c499da24a361a60fb181cfa11a5a79504d369b1bf360001b611ca8565b6107e97f01ffc9a70000000000000000000000000000000000000000000000000000000060018361107b9092919063ffffffff16565b50565b600061081a7f12b4db1a13ae954a255ef0fa37765d8ee1e39537e429053253a663eff808644d60001b611cab565b6108467feebae444011023bb1eb9d991a8900c1fc6c9dc05e526ab9149645480ea211c3e60001b611cab565b6108727f7a85e8875e57667831d822c4c89a943f00106e2fdc910c0df83014dfd0d1477360001b611cab565b600060017f6a1da6973104ff7dedb9b4f5cab5830b3f4a0284ed754366cfc45568bd2d38df60001c6108a49190612987565b60001b90506108d57fcd65f8dce9f650605649809ea57b1b403b2167736801d4eb4d6da1b99327986060001b611cab565b8091505090565b6109087f7ade047f1b18d3d9e4cf2dbfa4799e6897d1938ea0071c35770980d99be7675260001b611cab565b6109347fc0dd688ff28228f194ec76f495cc7b3de785a006ebf0721800218186e051433c60001b611cab565b6109607f61c3ae71c4d526f3dfc13684ed672ca191550d63636ab205f7bffd9b572c6aef60001b611cab565b61099d60017ff1e2f4de496ffe5d046d751d8ec3c329ee011c6c6a229322971a7e02a207f97360001c6109939190612987565b60001b6001610e8e565b6109c97fd348f5ca66daae8709ef102811c105c3e31fe6f6cc1edc224d2702ff3009e1f360001b611cab565b6109f57f2fc46fc72a173dcc9c44e150d62890a4da759120e0f0d8e0bc33685ddd0f71be60001b611cab565b600073ffffffffffffffffffffffffffffffffffffffff168173ffffffffffffffffffffffffffffffffffffffff1614610ba857610a557f848a7b68acd8a245034bcc598f7508c96da067c4bf9df5962896ab6e4cbacbdc60001b611cab565b610a817ffdef29fccd1fc52788b15fca93499f63fa408221ea0a7069b8da1a7aaf65e10660001b611cab565b610aad7f793ccf870c20f1e89df7f66b11ec23db8c2400e3975173b0217a0164a2d8add360001b611cab565b808260000160006101000a81548173ffffffffffffffffffffffffffffffffffffffff021916908373ffffffffffffffffffffffffffffffffffffffff160217905550610b1c7fb8e5ea9fbb88bedd793f2345d140e5dd30fa2d6b312ff0e0f840f21e44632d1560001b611cab565b610b487ffd7dc9b3efa62dab8d13f6b0e28c02f666353f25b3e027756a44e148e82691da60001b611cab565b8073ffffffffffffffffffffffffffffffffffffffff16600073ffffffffffffffffffffffffffffffffffffffff167f8be0079c531659141344cd1fd0a4f28419497f9722a3daafe3b4186f6b6457e060405160405180910390a3610bd5565b610bd47fa8ee02fcfeaac392aadc593dfe7e0afeeae4022baf9fc709470ae9e2d5ce63c460001b611cab565b5b610c017f1da89fa828fcf0c756100601da9c9cead2f05c62afa4c1d26d316f4bd430b13960001b611cab565b610c2d7f69b196e3069d1309b23672c2540a03d602ef55a0acb3cc82b52b164fa69b37bb60001b611cab565b610c6a7f7f5828d0000000000000000000000000000000000000000000000000000000006001610c5b6105aa565b61107b9092919063ffffffff16565b5050565b6000610c9c7fb15223dd800023190b5ffab037c2d59190e4c74ff173a70a251292cafac8c37f60001b611cae565b610cc87fbb9ff8a852144302b8c0df4f64d0474f5e9ff9eb539e89edf7a87bac832404f560001b611cae565b610cf47f5ed7ac05eccfe0bed3ec6776701f1a32a91125869b72204cc4592e7418e6f34560001b611cae565b600060017f89eb436ee4870c51a38e2f0153cc874917c373f6d1129026cdc184ead19d107d60001c610d269190612987565b60001b9050610d577fd7d0bd49f440319dbb6c26aa92784df7263e90d6f07805915132c2d227f22e5760001b611cae565b8091505090565b610d8a7f9167ff8c774fb76107a7f870d877c16c219183060d010200f987b444cd42087f60001b611cae565b610db67fc0998e79383f8c1ab9a1e857984e2579277456927e045c1fb9157d39778d717e60001b611cae565b610de27f668dd64756c9c966b3682f3ea5a6f28436df6d23ae1343a9337837fa3494203660001b611cae565b610e1f60017f548ef50d3fd1a953000bd9658360ce0c0fab1e99be465a6bb58c1ef3beb53a8060001c610e159190612987565b60001b6001610e8e565b610e4b7fe8c496d750f4e3537908fd7b31ab9cef793435f96ddb2e4c1621946483aff20460001b611cae565b610e777f4e34d5a1f76f9408cb924cd67cf1f36b4d843246d8b6f1f11d0cded5a1b7eae460001b611cae565b610e8a818361128790919063ffffffff16565b5050565b610eba7f523c5c55fa27c1465eb0ba13f6927ac81ca2e843dca5743a6ceafc60fd44a7a260001b611cb1565b610ee67f04772ea788fd843b127a602e9cfb0c6a91dd658dfc8c6564fb399afa5c8187c060001b611cb1565b610f127fcb69cb3c0f8a75e2c548a59a9a6f16480c220dc9611455e2f2a5ff64c19012f660001b611cb1565b6000610f1d83611500565b9050610f4b7f05454e9c8dc486b9dafcaafcc4a6b37e8e4a0bd10c5a957d6788a08d4705e74a60001b611cb1565b610f777f545be28ad664a45fbd66a4b1cf9af17e7b7fa1c0858756e55615423b09c10cf960001b611cb1565b610fa37f7b74d3cbf19e745235b98e2e533402f6fea14c7950d83932d7459f8c0776ae7560001b611cb1565b81816000015410610fe9576040517f08c379a0000000000000000000000000000000000000000000000000000000008152600401610fe090612a18565b60405180910390fd5b6110157fb77e179c39cd483a2fb9d49c9d6baaf337e679c6fc0b0193351b78700052fb6060001b611cb1565b6110417f73251853a52f4546290b9dbdb4820ad06a75d361304d051af620ac9db846f98760001b611cb1565b61106d7f8670f345bbc08bb652aae01676abdbb142983e1527aecdd350c544d4ac9aa25360001b611cb1565b818160000181905550505050565b6110a77ffeeaaad6b1efab2833cc700d80f740603a4ac6746f8e38068c950d299cc199bf60001b611ca8565b6110d37f3ca2cb9a9b6e35728cedd7c19d4c121988341387931213a51eab1b4bbaf4113560001b611ca8565b6110ff7f1f9cdb98c65d0ad87aac43319c2670926bcb7c14904c7f9d4ade6235d82de71960001b611ca8565b61112b7f5dbdac164f3e02893e8f90adfbe776f3f50c85847d234ab6fb16b0a4846759d760001b611ca8565b63ffffffff60e01b827bffffffffffffffffffffffffffffffffffffffffffffffffffffffff191603611193576040517f08c379a000000000000000000000000000000000000000000000000000000000815260040161118a90612a84565b60405180910390fd5b6111bf7fd6b36b8472d324009615e496388c108ffb1831ab3bd7bded72d29ac4baf2ad1e60001b611ca8565b6111eb7f7b2218cefa5bbb0f0239126c55783358df88ffab00f11d9c8f8e38985d9a8c9860001b611ca8565b6112177f2ad1063a0d34755f3bea24bcd3cfaff3dbbf63fbfa3f9b4c9c252fdffa66ed3360001b611ca8565b80836000016000847bffffffffffffffffffffffffffffffffffffffffffffffffffffffff19167bffffffffffffffffffffffffffffffffffffffffffffffffffffffff1916815260200190815260200160002060006101000a81548160ff021916908315150217905550505050565b6112b37f363f8b43e4cb4a07b84b9fa759a18172b595a4d47520da9e36a15d34756fb1d260001b611cae565b6112df7f57e2e1200cfc84e0ba242674eb98d3707b46a41f49b7586b37c174b4df0153f060001b611cae565b61130b7f09b090a534543fc39d79ce4cffc00a6e0d7fd588f47492b82b7720a19b73a95d60001b611cae565b6113377fd3ea2804b29484e1e2bfaffee75d3ba11d08fa078d166e489ff57df0cd59fceb60001b611cae565b600073ffffffffffffffffffffffffffffffffffffffff168173ffffffffffffffffffffffffffffffffffffffff16036113a6576040517f08c379a000000000000000000000000000000000000000000000000000000000815260040161139d90612af0565b60405180910390fd5b6113d27f4350761ee250a75a27f71825b6a65f0423267100ad320dd809e61b2a77e44d5b60001b611cae565b6113fe7fb4e34919aae47eb9bc568b1ca3cacef0a3241923ec4b06190e27c779cde3180160001b611cae565b61142a7f2461979373b55da5b37c9aef9376d5a7ef0e4663e9887c46af09fe7a6eac32ff60001b611cae565b808260000160006101000a81548173ffffffffffffffffffffffffffffffffffffffff021916908373ffffffffffffffffffffffffffffffffffffffff1602179055506114997f9da1b91d30bda834d551dfba6db9a163bbb528439749827f0942b2d3e271538b60001b611cae565b6114c57ff4b8db34c1493cddb9704fdbf584fe28cbf4064b427aa69b0e9be81fdee5a3e460001b611cae565b7fdd880d24a789958a6398c99c2e54ce31bc10a638cbc42f7dd34285479ae0f855816040516114f49190612b6f565b60405180910390a15050565b6000819050919050565b50565b600061153b7ff68de529962505f3d093bf9c43fad9167430b64756c71c5b05318be93a89528360001b611ca8565b6115677f5b3efc29f5fccb99b612e0281cedbf3b49bae6ffb452e10d5d3658b18b0e7f5760001b611ca8565b6115937fcc4d3945ab61be60c39258bbdebab383f06bca561326ee57b4e10f10ad63938260001b611ca8565b826000016000837bffffffffffffffffffffffffffffffffffffffffffffffffffffffff19167bffffffffffffffffffffffffffffffffffffffffffffffffffffffff1916815260200190815260200160002060009054906101000a900460ff16905092915050565b50565b36600061162e7f958e22fb5b9cffc9b5ea1ae09093da1284af99a599969d213b2c4148b9d61b9b60001b6115fc565b61165a7f08a575cdc31a7e0f09e7b7d55f711fcbfdbc3cf743cf8291ff3d9f85991120f260001b6115fc565b6116867ffb1511ca18a576c1609144311a0f501a9f90259ce74ecf52dcf20af58a89c50a60001b6115fc565b61168e611cb4565b915091509091565b50565b60006116c77f4aa344a6e7d81e17cea755ce994602f3363fc438378a6ccce015f1ccc2dd304a60001b6115fc565b6116f37f52fd24d904e605ca6f6141a15ba9d2ab595782e6adb13149711f9764519d472360001b6115fc565b61171f7f2bae70e142cc0120489096a99f08820a90e565c39c30b867ea045efe181d252560001b6115fc565b611727612105565b905090565b6117587f311cb72dc07750d6828e4b4e89b77f33fb16c70db0f74c9dbf7e01b75fe2538460001b611cab565b6117847f5a948a147df45bdb71c8f98a865604b23d4880b5921ab247626470201792a9d460001b611cab565b6117b07faa1ac481ace62e8856a31e42b6fa6ad7e8b29c10fa062b8775baa1bf5185f76360001b611cab565b6117dc7fa565745ecf1d7ea43fd9e19c5a7b72dbef31f2d274ba98df9594459d1fdda02f60001b611cab565b8160000160009054906101000a900473ffffffffffffffffffffffffffffffffffffffff1673ffffffffffffffffffffffffffffffffffffffff168173ffffffffffffffffffffffffffffffffffffffff161461186e576040517f08c379a000000000000000000000000000000000000000000000000000000000815260040161186590612bd6565b60405180910390fd5b61189a7f3cdf1cbcd193a5f563b48f16d650e4ae6a3f20aa956e2ea1fe221c3ff0241bd160001b611cab565b5050565b50565b6118cd7fdf59544792feea399434a4930be72a28dcd387f84c2a5fe280a21a2da3cc04d660001b611cab565b6118f97f0e764948267560c4d66737a797428b691c6b7aab5c40985a77f33a37ab527c4b60001b611cab565b6119257f3331bc4470b962efb54bc393cde17bc0b2a105748f5f9e0432e40398096ecfad60001b611cab565b60008360000160009054906101000a900473ffffffffffffffffffffffffffffffffffffffff16905061197a7f5c027b9c47dca10d5a9351c5839dfe289d1764bfdf2caabeb825431d723a22bf60001b611cab565b6119a67f230ea7519ca83615ab759ab061070b00f84308731b014082e940b2d3fa61847260001b611cab565b6119d27f77bbade0c2cdbbf2f8a4624ab384529d8194416749b49fd6047fe47f7cd4cf1160001b611cab565b8073ffffffffffffffffffffffffffffffffffffffff168373ffffffffffffffffffffffffffffffffffffffff1614611a40576040517f08c379a0000000000000000000000000000000000000000000000000000000008152600401611a3790612bd6565b60405180910390fd5b611a6c7fed5f4915a9a3c36dd9176824b7053dca79a55dfedcb55697386f813091b980b860001b611cab565b611a987f1d9c58456e9dafcf49ace88031963e549d56f7729344a4ab5ea5b4e3b4f6ae5160001b611cab565b611ac47f7f6e5d89f70a00c4e073528fd8d9b4b8a56beb221caa3630871384ccdf1196eb60001b611cab565b8173ffffffffffffffffffffffffffffffffffffffff168173ffffffffffffffffffffffffffffffffffffffff1614611c7557611b237f75344049457f04ccd6a4a70b6a90f0df5ef28524a10cc64f98d0d0c2bd92839260001b611cab565b611b4f7f848bee61996961633e02a17f0a9124d5735958ffa875ccdb1672acefc826797560001b611cab565b611b7b7fd22fd39463f994f0dda77f27f8df1de6fe9579e23d1f177e6584b5a6d6598c3b60001b611cab565b818460000160006101000a81548173ffffffffffffffffffffffffffffffffffffffff021916908373ffffffffffffffffffffffffffffffffffffffff160217905550611bea7f93e7178407b10f5b416a8a4e9ae10426316afabe6f8cfeae01c20778706815b760001b611cab565b611c167feaae940865dcfff7289e799138b181a7fb86d5d3bd4c617bfc2362ccb7fc73bc60001b611cab565b8173ffffffffffffffffffffffffffffffffffffffff168173ffffffffffffffffffffffffffffffffffffffff167f8be0079c531659141344cd1fd0a4f28419497f9722a3daafe3b4186f6b6457e060405160405180910390a3611ca2565b611ca17f5269352f2b943550775f3b3039303ce1ead1abfb3ebd4cda535c7cbff25914b060001b611cab565b5b50505050565b50565b50565b50565b50565b366000611ce37ff74f168f3cfe88b8c75939ced6593b63b3a80d84384ea84798e06eb70c27e8b560001b6125a2565b611d0f7f0c30881a465ce740e34b44da3f5682b69b261b3b3d916bf3cb638422722c466360001b6125a2565b611d3b7f7d034622f0cfa82b1eafef58ff96909800ff5cbda4aec1c658399402313d1e4760001b6125a2565b6000339050611d6c7f3e7b906c7c24b8d911bba8092ce84f23b5c1596b35038fef4ace71fcce1f3a0e60001b6125a2565b611d987f76d316808c9e8931ac3d89e37ff8d9a597f8e50813fa0a88766b36313e96041060001b6125a2565b3273ffffffffffffffffffffffffffffffffffffffff168173ffffffffffffffffffffffffffffffffffffffff1603611e5c57611df77fa811c091d51641b1118f1402cc0638dc69041cba2f323377090e0a55500a152460001b6125a2565b611e237ff673674fd259625637c155f7345382b871e4581df73bc53013494d30dd1dc16460001b6125a2565b611e4f7f108112c7eebc35534afdbeeca8c2ad7449209fe78eeb1f9fdd0c5f6fb3111cce60001b6125a2565b6000369250925050612101565b611e887f8e23e3f35cdceddd8b15b45bf787b8d6ae38e04c5870f4020c01d683a2f10fc560001b6125a2565b611eb47fb4f48de4e10f2751022dce70d5876a74afb41b756eb77cdf4fe88835769afb1a60001b6125a2565b611ee07f2afe9b0d9d36347d263d9c298082ea9eea1c1879c9904d44b9316a451e41b92f60001b6125a2565b7f000000000000000000000000000000000000000000000000000000000000000073ffffffffffffffffffffffffffffffffffffffff168173ffffffffffffffffffffffffffffffffffffffff161480611fd957507f000000000000000000000000000000000000000000000000000000000000000073ffffffffffffffffffffffffffffffffffffffff1663e60125d6611f796125a5565b836040518363ffffffff1660e01b8152600401611f97929190612bf6565b602060405180830381865afa158015611fb4573d6000803e3d6000fd5b505050506040513d601f19601f82011682018060405250810190611fd89190612c4b565b5b156120745761200a7f2191333a031dc1f79f931a9c32f8cc636186c8d1941bf6ad2d0e09669ccdb2fd60001b6125a2565b6120367f625d923af8cba91f74f7ad122740e01bcd36ee0be52b9596ca85f7881a963db360001b6125a2565b6120627f09e6b704caf4fc80a51357d4ff43f8bab75f1133b8a694db1fb7ac8851fe64b160001b6125a2565b61206a61260c565b9250925050612101565b6120a07fcfd0711298438e2e01b8a5c4d5745b4b2a1fa1742e9ef04643fd654ff78cfca960001b6125a2565b6120cc7faec17026272a3ca53764ba29e047c1b72c1edbf88732d32ffae6b5c0d7fcf39960001b6125a2565b6120f87f7518e0f5afdd21984f9ce13318f9370b2d82da30fc4ffdbb78362126da32d52960001b6125a2565b60003692509250505b9091565b60006121337f21f83b85e7dbc596177bc46cc6795c14520638d6db8281a9a46e4d6aa22fb1aa60001b6125a2565b61215f7f9fe8a1e1e7c5f38bddac874222fbac3da358d377b550af606038c28c918342a660001b6125a2565b61218b7f4d776035fe014c48f9b8d211e07ad5f3e10a7407e640d6fd44f001ad72ec145460001b6125a2565b60003390506121bc7f1470143c211ace273ad33be67e446aa27b56df8ff21c9e30df1c1ce1aab37faf60001b6125a2565b6121e87f701a5aed6b7834b1cde40063ca2763d0cc2a2d369e96d6ffd63bd7f36d010be860001b6125a2565b3273ffffffffffffffffffffffffffffffffffffffff168173ffffffffffffffffffffffffffffffffffffffff16036122a8576122477fde73d737f19da71f7e0a8be64041464998117e05c9bb9f65df2259a0779caaa960001b6125a2565b6122737f2e1b1201e86447778e6a37c8701809fecc19c6c17c8cdf9a32e27254363f132c60001b6125a2565b61229f7f06438a6776a73eebdc69485314350483a51cfddc04e159b6f57dde5e4030039060001b6125a2565b8091505061259f565b6122d47f6b510e6cfe0d366d8eb68be09db038d2dbfc0ca71029993b650b184340fc438a60001b6125a2565b6123007fc81f2aa3e9c76ff8d9709ad059857726fb537b8fa6166dbedc9e3f598edddc4160001b6125a2565b61232c7fd5cec79665173c3237287beadc96f615eba8ff220376c7f0add1c603fa1dcb0260001b6125a2565b60006123366125a5565b90506123647f16b7bdd4d503ca2d391b420534e7b71ff847aea146e0c5e9b1d972d25ac95cf360001b6125a2565b6123907f8284349b0a2249652b224d12d5fd826a549839b4e0aab6630e88a99ebee0413860001b6125a2565b7f000000000000000000000000000000000000000000000000000000000000000073ffffffffffffffffffffffffffffffffffffffff168273ffffffffffffffffffffffffffffffffffffffff16148061248257507f000000000000000000000000000000000000000000000000000000000000000073ffffffffffffffffffffffffffffffffffffffff1663e60125d682846040518363ffffffff1660e01b8152600401612440929190612bf6565b602060405180830381865afa15801561245d573d6000803e3d6000fd5b505050506040513d601f19601f820116820180604052508101906124819190612c4b565b5b15612515576124b37ff1748450d5c67d16e99d465b5f46314c0a03cb614c0a36c7a01d0d452a42d63760001b6125a2565b6124df7ffcb9fb7b37e10dcd260ee2b6500d072708cde8b16110ac602ac219c4f0ac7a8860001b6125a2565b61250b7f0b8b6cb7f0d04c4b23441400a0a579a14ccf6e6d955d51d0d443ae3b764fbf1e60001b6125a2565b809250505061259f565b6125417fc6338ea7b912cb871ae88b37af8abae50806bb4e29d453caf0758aea491b82ab60001b6125a2565b61256d7fb1b2861ba78bbb686a91db34f76b76efe61d8e91016be1013861a8390b68a26860001b6125a2565b6125997f131b91089cbc4af49187f8d51fbbc23a25f13946f6ab1ab771005101548d429760001b6125a2565b81925050505b90565b50565b60006125d37fd2d14d566965719ee17c5b60ff32623f910e7a0e574f2eeae19a64856bd35c4c60001b6126bf565b6125ff7fa390d1eca31ebd819e35c63e13daa420bd40dcdd984217eef68768880371b01d60001b6126bf565b601436033560601c905090565b36600061263b7f7a9fde0e4d93131667b711f92dc641fa832990e5bb6a3b4626ffa6b5d4f3fdae60001b6126bf565b6126677fc610f11635537ce6a03686b10e383cf783da248254319abfbb04eeb973e3acd760001b6126bf565b6126937f17531d10ccf76e2a802938b28b374efcd761ac66995a64071083ebf2a16e732060001b6126bf565b600036600090601460003690506126aa9190612987565b926126b793929190612c82565b915091509091565b50565b600080fd5b60007fffffffff0000000000000000000000000000000000000000000000000000000082169050919050565b6126fc816126c7565b811461270757600080fd5b50565b600081359050612719816126f3565b92915050565b600060208284031215612735576127346126c2565b5b60006127438482850161270a565b91505092915050565b60008115159050919050565b6127618161274c565b82525050565b600060208201905061277c6000830184612758565b92915050565b600082825260208201905092915050565b82818337600083830152505050565b6000601f19601f8301169050919050565b60006127bf8385612782565b93506127cc838584612793565b6127d5836127a2565b840190509392505050565b600060208201905081810360008301526127fb8184866127b3565b90509392505050565b600073ffffffffffffffffffffffffffffffffffffffff82169050919050565b600061282f82612804565b9050919050565b61283f81612824565b811461284a57600080fd5b50565b60008135905061285c81612836565b92915050565b600060208284031215612878576128776126c2565b5b60006128868482850161284d565b91505092915050565b61289881612824565b82525050565b60006020820190506128b3600083018461288f565b92915050565b60006128c482612804565b9050919050565b6128d4816128b9565b82525050565b60006020820190506128ef60008301846128cb565b92915050565b6128fe816128b9565b811461290957600080fd5b50565b60008135905061291b816128f5565b92915050565b600060208284031215612937576129366126c2565b5b60006129458482850161290c565b91505092915050565b6000819050919050565b7f4e487b7100000000000000000000000000000000000000000000000000000000600052601160045260246000fd5b60006129928261294e565b915061299d8361294e565b9250828210156129b0576129af612958565b5b828203905092915050565b600082825260208201905092915050565b7f53746f726167653a2076657273696f6e20726561636865640000000000000000600082015250565b6000612a026018836129bb565b9150612a0d826129cc565b602082019050919050565b60006020820190508181036000830152612a31816129f5565b9050919050565b7f496e74657266616365446574656374696f6e3a2077726f6e672076616c756500600082015250565b6000612a6e601f836129bb565b9150612a7982612a38565b602082019050919050565b60006020820190508181036000830152612a9d81612a61565b9050919050565b7f5061796f757457616c6c65743a207a65726f2061646472657373000000000000600082015250565b6000612ada601a836129bb565b9150612ae582612aa4565b602082019050919050565b60006020820190508181036000830152612b0981612acd565b9050919050565b6000819050919050565b6000612b35612b30612b2b84612804565b612b10565b612804565b9050919050565b6000612b4782612b1a565b9050919050565b6000612b5982612b3c565b9050919050565b612b6981612b4e565b82525050565b6000602082019050612b846000830184612b60565b92915050565b7f4f776e6572736869703a206e6f7420746865206f776e65720000000000000000600082015250565b6000612bc06018836129bb565b9150612bcb82612b8a565b602082019050919050565b60006020820190508181036000830152612bef81612bb3565b9050919050565b6000604082019050612c0b60008301856128cb565b612c1860208301846128cb565b9392505050565b612c288161274c565b8114612c3357600080fd5b50565b600081519050612c4581612c1f565b92915050565b600060208284031215612c6157612c606126c2565b5b6000612c6f84828501612c36565b91505092915050565b600080fd5b600080fd5b60008085851115612c9657612c95612c78565b5b83861115612ca757612ca6612c7d565b5b600185028301915084860390509450949250505056fea264697066735822122092810925f296005297b560bf041d1422b20cf1b6fb7be0b07e6f6668df32930464736f6c634300080d0033",
  "linkReferences": {},
  "deployedLinkReferences": {}
}