{
  "_format": "hh-sol-artifact-1",
  "contractName": "PayoutWalletMock",
  "sourceName": "contracts/mocks/payment/PayoutWalletMock.sol",
  "abi": [
    {
      "inputs": [
        {
          "internalType": "address payable",
          "name": "payoutWallet_",
          "type": "address"
        }
      ],
      "stateMutability": "nonpayable",
      "type": "constructor"
    },
    {
      "anonymous": false,
      "inputs": [
        {
          "indexed": true,
          "internalType": "address",
          "name": "previousOwner",
          "type": "address"
        },
        {
          "indexed": true,
          "internalType": "address",
          "name": "newOwner",
          "type": "address"
        }
      ],
      "name": "OwnershipTransferred",
      "type": "event"
    },
    {
      "anonymous": false,
      "inputs": [
        {
          "indexed": false,
          "internalType": "address",
          "name": "payoutWallet",
          "type": "address"
        }
      ],
      "name": "PayoutWalletSet",
      "type": "event"
    },
    {
      "inputs": [],
      "name": "owner",
      "outputs": [
        {
          "internalType": "address",
          "name": "",
          "type": "address"
        }
      ],
      "stateMutability": "view",
      "type": "function"
    },
    {
      "inputs": [],
      "name": "payoutWallet",
      "outputs": [
        {
          "internalType": "address payable",
          "name": "wallet",
          "type": "address"
        }
      ],
      "stateMutability": "view",
      "type": "function"
    },
    {
      "inputs": [
        {
          "internalType": "address payable",
          "name": "payoutWallet_",
          "type": "address"
        }
      ],
      "name": "setPayoutWallet",
      "outputs": [],
      "stateMutability": "nonpayable",
      "type": "function"
    },
    {
      "inputs": [
        {
          "internalType": "bytes4",
          "name": "interfaceId",
          "type": "bytes4"
        }
      ],
      "name": "supportsInterface",
      "outputs": [
        {
          "internalType": "bool",
          "name": "",
          "type": "bool"
        }
      ],
      "stateMutability": "view",
      "type": "function"
    },
    {
      "inputs": [
        {
          "internalType": "address",
          "name": "newOwner",
          "type": "address"
        }
      ],
      "name": "transferOwnership",
      "outputs": [],
      "stateMutability": "nonpayable",
      "type": "function"
    }
  ],
  "bytecode": "0x60806040523480156200001157600080fd5b5060405162000db138038062000db1833981016040819052620000349162000486565b8033620000606200004f620000c560201b620001a91760201c565b620000fb60201b620001d71760201c565b6200008e816200007a6200016960201b620002381760201c565b6200019960201b620002661790919060201c565b50620000bd81620000a96200025d60201b620003551760201c565b6200028d60201b620003831790919060201c565b5050620004de565b600080620000f560017f7180ffa89c91cf90d6c56dacabfc69bc5e36f3099d7eed2f5cc12c5dba016fe0620004b8565b92915050565b620001426200012c60017f947245cdabe12ef4c13574b38217b361de48f57dd2dc345f43703c79bac2873d620004b8565b60001b6001620002d860201b620003bb1760201c565b620001666301ffc9a760e01b6001836200034f60201b62000430179092919060201c565b50565b600080620000f560017f6a1da6973104ff7dedb9b4f5cab5830b3f4a0284ed754366cfc45568bd2d38df620004b8565b620001ca6200012c60017ff1e2f4de496ffe5d046d751d8ec3c329ee011c6c6a229322971a7e02a207f973620004b8565b6001600160a01b03811615620002215781546001600160a01b0319166001600160a01b03821690811783556040516000907f8be0079c531659141344cd1fd0a4f28419497f9722a3daafe3b4186f6b6457e0908290a35b620002596307f5828d60e41b600162000244620000c560201b620001a91760201c565b6200034f60201b62000430179092919060201c565b5050565b600080620000f560017f89eb436ee4870c51a38e2f0153cc874917c373f6d1129026cdc184ead19d107d620004b8565b620002be6200012c60017f548ef50d3fd1a953000bd9658360ce0c0fab1e99be465a6bb58c1ef3beb53a80620004b8565b620002598183620003d960201b620005201790919060201c565b6000620002f0836200048360201b620006141760201c565b9050818160000154106200034b5760405162461bcd60e51b815260206004820152601860248201527f53746f726167653a2076657273696f6e2072656163686564000000000000000060448201526064015b60405180910390fd5b5550565b6001600160e01b03198083169003620003ab5760405162461bcd60e51b815260206004820152601f60248201527f496e74657266616365446574656374696f6e3a2077726f6e672076616c756500604482015260640162000342565b6001600160e01b03199190911660009081526020929092526040909120805460ff1916911515919091179055565b6001600160a01b038116620004315760405162461bcd60e51b815260206004820152601a60248201527f5061796f757457616c6c65743a207a65726f2061646472657373000000000000604482015260640162000342565b81546001600160a01b0319166001600160a01b03821690811783556040519081527fdd880d24a789958a6398c99c2e54ce31bc10a638cbc42f7dd34285479ae0f8559060200160405180910390a15050565b90565b6000602082840312156200049957600080fd5b81516001600160a01b0381168114620004b157600080fd5b9392505050565b600082821015620004d957634e487b7160e01b600052601160045260246000fd5b500390565b6108c380620004ee6000396000f3fe608060405234801561001057600080fd5b50600436106100675760003560e01c80638488bb4e116100505780638488bb4e146100a95780638da5cb5b146100d6578063f2fde38b146100de57600080fd5b806301ffc9a71461006c5780636b8f9c4314610094575b600080fd5b61007f61007a3660046107c7565b6100f1565b60405190151581526020015b60405180910390f35b6100a76100a2366004610832565b61013e565b005b6100b1610165565b60405173ffffffffffffffffffffffffffffffffffffffff909116815260200161008b565b6100b161018b565b6100a76100ec366004610832565b610195565b6000610138826100ff6101a9565b907fffffffff00000000000000000000000000000000000000000000000000000000166000908152602091909152604090205460ff1690565b92915050565b6101503361014a610238565b90610617565b6101628161015c610355565b90610520565b50565b600061016f610355565b5473ffffffffffffffffffffffffffffffffffffffff16919050565b600061016f610238565b61016233826101a2610238565b919061069a565b60008061013860017f7180ffa89c91cf90d6c56dacabfc69bc5e36f3099d7eed2f5cc12c5dba016fe061084f565b61020c61020560017f947245cdabe12ef4c13574b38217b361de48f57dd2dc345f43703c79bac2873d61084f565b60016103bb565b610162817f01ffc9a7000000000000000000000000000000000000000000000000000000006001610430565b60008061013860017f6a1da6973104ff7dedb9b4f5cab5830b3f4a0284ed754366cfc45568bd2d38df61084f565b61029461020560017ff1e2f4de496ffe5d046d751d8ec3c329ee011c6c6a229322971a7e02a207f97361084f565b73ffffffffffffffffffffffffffffffffffffffff81161561031c5781547fffffffffffffffffffffffff00000000000000000000000000000000000000001673ffffffffffffffffffffffffffffffffffffffff821690811783556040516000907f8be0079c531659141344cd1fd0a4f28419497f9722a3daafe3b4186f6b6457e0908290a35b6103517f7f5828d000000000000000000000000000000000000000000000000000000000600161034a6101a9565b9190610430565b5050565b60008061013860017f89eb436ee4870c51a38e2f0153cc874917c373f6d1129026cdc184ead19d107d61084f565b6103b161020560017f548ef50d3fd1a953000bd9658360ce0c0fab1e99be465a6bb58c1ef3beb53a8061084f565b6103518282610520565b81548290821161042c576040517f08c379a000000000000000000000000000000000000000000000000000000000815260206004820152601860248201527f53746f726167653a2076657273696f6e2072656163686564000000000000000060448201526064015b60405180910390fd5b5550565b7fffffffff0000000000000000000000000000000000000000000000000000000080831690036104bc576040517f08c379a000000000000000000000000000000000000000000000000000000000815260206004820152601f60248201527f496e74657266616365446574656374696f6e3a2077726f6e672076616c7565006044820152606401610423565b7fffffffff00000000000000000000000000000000000000000000000000000000919091166000908152602092909252604090912080547fffffffffffffffffffffffffffffffffffffffffffffffffffffffffffffff0016911515919091179055565b73ffffffffffffffffffffffffffffffffffffffff811661059d576040517f08c379a000000000000000000000000000000000000000000000000000000000815260206004820152601a60248201527f5061796f757457616c6c65743a207a65726f20616464726573730000000000006044820152606401610423565b81547fffffffffffffffffffffffff00000000000000000000000000000000000000001673ffffffffffffffffffffffffffffffffffffffff821690811783556040519081527fdd880d24a789958a6398c99c2e54ce31bc10a638cbc42f7dd34285479ae0f8559060200160405180910390a15050565b90565b815473ffffffffffffffffffffffffffffffffffffffff828116911614610351576040517f08c379a000000000000000000000000000000000000000000000000000000000815260206004820152601860248201527f4f776e6572736869703a206e6f7420746865206f776e657200000000000000006044820152606401610423565b825473ffffffffffffffffffffffffffffffffffffffff908116908316811461071f576040517f08c379a000000000000000000000000000000000000000000000000000000000815260206004820152601860248201527f4f776e6572736869703a206e6f7420746865206f776e657200000000000000006044820152606401610423565b8173ffffffffffffffffffffffffffffffffffffffff168173ffffffffffffffffffffffffffffffffffffffff16146107c15783547fffffffffffffffffffffffff00000000000000000000000000000000000000001673ffffffffffffffffffffffffffffffffffffffff8381169182178655604051908316907f8be0079c531659141344cd1fd0a4f28419497f9722a3daafe3b4186f6b6457e090600090a35b50505050565b6000602082840312156107d957600080fd5b81357fffffffff000000000000000000000000000000000000000000000000000000008116811461080957600080fd5b9392505050565b73ffffffffffffffffffffffffffffffffffffffff8116811461016257600080fd5b60006020828403121561084457600080fd5b813561080981610810565b600082821015610888577f4e487b7100000000000000000000000000000000000000000000000000000000600052601160045260246000fd5b50039056fea264697066735822122011f5c88bfce054f8770ea4f7ad98b734e5281a3c1ea163d0b3d1ffd42b422b5764736f6c634300080d0033",
  "linkReferences": {},
  "deployedLinkReferences": {}
}