{
  "_format": "hh-sol-artifact-1",
  "contractName": "PayoutWalletMock",
  "sourceName": "contracts/mocks/payment/PayoutWalletMock.sol",
  "abi": [
    {
      "inputs": [
        {
          "internalType": "address payable",
          "name": "initialPayoutWallet",
          "type": "address"
        },
        {
          "internalType": "contract IForwarderRegistry",
          "name": "forwarderRegistry",
          "type": "address"
        }
      ],
      "stateMutability": "nonpayable",
      "type": "constructor"
    },
    {
      "anonymous": false,
      "inputs": [
        {
          "indexed": true,
          "internalType": "address",
          "name": "previousOwner",
          "type": "address"
        },
        {
          "indexed": true,
          "internalType": "address",
          "name": "newOwner",
          "type": "address"
        }
      ],
      "name": "OwnershipTransferred",
      "type": "event"
    },
    {
      "anonymous": false,
      "inputs": [
        {
          "indexed": false,
          "internalType": "address",
          "name": "payoutWallet",
          "type": "address"
        }
      ],
      "name": "PayoutWalletSet",
      "type": "event"
    },
    {
      "inputs": [],
      "name": "__msgData",
      "outputs": [
        {
          "internalType": "bytes",
          "name": "",
          "type": "bytes"
        }
      ],
      "stateMutability": "view",
      "type": "function"
    },
    {
      "inputs": [],
      "name": "owner",
      "outputs": [
        {
          "internalType": "address",
          "name": "",
          "type": "address"
        }
      ],
      "stateMutability": "view",
      "type": "function"
    },
    {
      "inputs": [],
      "name": "payoutWallet",
      "outputs": [
        {
          "internalType": "address payable",
          "name": "wallet",
          "type": "address"
        }
      ],
      "stateMutability": "view",
      "type": "function"
    },
    {
      "inputs": [
        {
          "internalType": "address payable",
          "name": "newPayoutWallet",
          "type": "address"
        }
      ],
      "name": "setPayoutWallet",
      "outputs": [],
      "stateMutability": "nonpayable",
      "type": "function"
    },
    {
      "inputs": [
        {
          "internalType": "bytes4",
          "name": "interfaceId",
          "type": "bytes4"
        }
      ],
      "name": "supportsInterface",
      "outputs": [
        {
          "internalType": "bool",
          "name": "",
          "type": "bool"
        }
      ],
      "stateMutability": "view",
      "type": "function"
    },
    {
      "inputs": [
        {
          "internalType": "address",
          "name": "newOwner",
          "type": "address"
        }
      ],
      "name": "transferOwnership",
      "outputs": [],
      "stateMutability": "nonpayable",
      "type": "function"
    }
  ],
  "bytecode": "0x60a06040523480156200001157600080fd5b5060405162000fe538038062000fe583398101604081905262000034916200033e565b808233620000658162000051620000aa60201b620001c11760201c565b620000e060201b620001ef1790919060201c565b506200009481620000806200017360201b620002b01760201c565b620001a360201b620002de1790919060201c565b506001600160a01b031660805250620003a39050565b600080620000da60017fc9ed16f33ab3a66c84bfd83099ccb2a8845871e2e1c1928f63797152f0fd54cd6200037d565b92915050565b6001600160a01b03811615620001375781546001600160a01b0319166001600160a01b03821690811783556040516000907f8be0079c531659141344cd1fd0a4f28419497f9722a3daafe3b4186f6b6457e0908290a35b6200016f6307f5828d60e41b60016200015a620001bd60201b620002e81760201c565b620001ed60201b62000316179092919060201c565b5050565b600080620000da60017f4fb5f8cdfbce77f22b0931a39e9f476a60a0f66524b2f379e96485471eb700ae6200037d565b6200016f81836200027b60201b6200040b1790919060201c565b600080620000da60017fca9d3e17f264b0f3984e2634e94adb37fa3e6a8103f06aeae6fa59e21c769f5e6200037d565b6001600160e01b031980831690036200024d5760405162461bcd60e51b815260206004820152601f60248201527f496e74657266616365446574656374696f6e3a2077726f6e672076616c75650060448201526064015b60405180910390fd5b6001600160e01b03199190911660009081526020929092526040909120805460ff1916911515919091179055565b6001600160a01b038116620002d35760405162461bcd60e51b815260206004820152601a60248201527f5061796f757457616c6c65743a207a65726f2061646472657373000000000000604482015260640162000244565b81546001600160a01b0319166001600160a01b03821690811783556040519081527fdd880d24a789958a6398c99c2e54ce31bc10a638cbc42f7dd34285479ae0f8559060200160405180910390a15050565b6001600160a01b03811681146200033b57600080fd5b50565b600080604083850312156200035257600080fd5b82516200035f8162000325565b6020840151909250620003728162000325565b809150509250929050565b6000828210156200039e57634e487b7160e01b600052601160045260246000fd5b500390565b608051610c11620003d46000396000818161079a015281816108040152818161094201526109e20152610c116000f3fe608060405234801561001057600080fd5b50600436106100725760003560e01c80638488bb4e116100505780638488bb4e146100ca5780638da5cb5b146100f7578063f2fde38b146100ff57600080fd5b806301ffc9a71461007757806331e66e1e1461009f5780636b8f9c43146100b5575b600080fd5b61008a610085366004610a7c565b610112565b60405190151581526020015b60405180910390f35b6100a761012c565b604051610096929190610ac5565b6100c86100c3366004610b34565b61013f565b005b6100d261016d565b60405173ffffffffffffffffffffffffffffffffffffffff9091168152602001610096565b6100d2610199565b6100c861010d366004610b34565b6101a6565b6000610126826101206102e8565b906104ff565b92915050565b3660006101376105bd565b915091509091565b61015861014a6105c8565b6101526101c1565b906105d2565b61016a816101646102b0565b9061040b565b50565b600061019461017a6102b0565b5473ffffffffffffffffffffffffffffffffffffffff1690565b905090565b600061019461017a6101c1565b61016a6101b16105c8565b826101ba6101c1565b9190610655565b60008061012660017fc9ed16f33ab3a66c84bfd83099ccb2a8845871e2e1c1928f63797152f0fd54cd610b51565b73ffffffffffffffffffffffffffffffffffffffff8116156102775781547fffffffffffffffffffffffff00000000000000000000000000000000000000001673ffffffffffffffffffffffffffffffffffffffff821690811783556040516000907f8be0079c531659141344cd1fd0a4f28419497f9722a3daafe3b4186f6b6457e0908290a35b6102ac7f7f5828d00000000000000000000000000000000000000000000000000000000060016102a56102e8565b9190610316565b5050565b60008061012660017f4fb5f8cdfbce77f22b0931a39e9f476a60a0f66524b2f379e96485471eb700ae610b51565b6102ac828261040b565b60008061012660017fca9d3e17f264b0f3984e2634e94adb37fa3e6a8103f06aeae6fa59e21c769f5e610b51565b7fffffffff0000000000000000000000000000000000000000000000000000000080831690036103a7576040517f08c379a000000000000000000000000000000000000000000000000000000000815260206004820152601f60248201527f496e74657266616365446574656374696f6e3a2077726f6e672076616c75650060448201526064015b60405180910390fd5b7fffffffff00000000000000000000000000000000000000000000000000000000919091166000908152602092909252604090912080547fffffffffffffffffffffffffffffffffffffffffffffffffffffffffffffff0016911515919091179055565b73ffffffffffffffffffffffffffffffffffffffff8116610488576040517f08c379a000000000000000000000000000000000000000000000000000000000815260206004820152601a60248201527f5061796f757457616c6c65743a207a65726f2061646472657373000000000000604482015260640161039e565b81547fffffffffffffffffffffffff00000000000000000000000000000000000000001673ffffffffffffffffffffffffffffffffffffffff821690811783556040519081527fdd880d24a789958a6398c99c2e54ce31bc10a638cbc42f7dd34285479ae0f8559060200160405180910390a15050565b60007fffffffff00000000000000000000000000000000000000000000000000000000808316900361053357506000610126565b7ffe003659000000000000000000000000000000000000000000000000000000007fffffffff0000000000000000000000000000000000000000000000000000000083160161058457506001610126565b507fffffffff00000000000000000000000000000000000000000000000000000000166000908152602091909152604090205460ff1690565b366000610137610782565b6000610194610906565b815473ffffffffffffffffffffffffffffffffffffffff8281169116146102ac576040517f08c379a000000000000000000000000000000000000000000000000000000000815260206004820152601860248201527f4f776e6572736869703a206e6f7420746865206f776e65720000000000000000604482015260640161039e565b825473ffffffffffffffffffffffffffffffffffffffff90811690831681146106da576040517f08c379a000000000000000000000000000000000000000000000000000000000815260206004820152601860248201527f4f776e6572736869703a206e6f7420746865206f776e65720000000000000000604482015260640161039e565b8173ffffffffffffffffffffffffffffffffffffffff168173ffffffffffffffffffffffffffffffffffffffff161461077c5783547fffffffffffffffffffffffff00000000000000000000000000000000000000001673ffffffffffffffffffffffffffffffffffffffff8381169182178655604051908316907f8be0079c531659141344cd1fd0a4f28419497f9722a3daafe3b4186f6b6457e090600090a35b50505050565b3660003332810361079857506000923692509050565b7f000000000000000000000000000000000000000000000000000000000000000073ffffffffffffffffffffffffffffffffffffffff168173ffffffffffffffffffffffffffffffffffffffff1614806108e5575073ffffffffffffffffffffffffffffffffffffffff7f00000000000000000000000000000000000000000000000000000000000000001663e60125d6367fffffffffffffffffffffffffffffffffffffffffffffffffffffffffffffffec013560601c6040517fffffffff0000000000000000000000000000000000000000000000000000000060e084901b16815273ffffffffffffffffffffffffffffffffffffffff91821660048201529084166024820152604401602060405180830381865afa1580156108c1573d6000803e3d6000fd5b505050506040513d601f19601f820116820180604052508101906108e59190610b8f565b156108fb576108f2610a5e565b92509250509091565b506000923692509050565b60003332810361091557919050565b6000367fffffffffffffffffffffffffffffffffffffffffffffffffffffffffffffffec013560601c90507f000000000000000000000000000000000000000000000000000000000000000073ffffffffffffffffffffffffffffffffffffffff168273ffffffffffffffffffffffffffffffffffffffff161480610a4d57506040517fe60125d600000000000000000000000000000000000000000000000000000000815273ffffffffffffffffffffffffffffffffffffffff828116600483015283811660248301527f0000000000000000000000000000000000000000000000000000000000000000169063e60125d690604401602060405180830381865afa158015610a29573d6000803e3d6000fd5b505050506040513d601f19601f82011682018060405250810190610a4d9190610b8f565b15610a585792915050565b50919050565b366000808083610a6f601482610b51565b9261013793929190610bb1565b600060208284031215610a8e57600080fd5b81357fffffffff0000000000000000000000000000000000000000000000000000000081168114610abe57600080fd5b9392505050565b60208152816020820152818360408301376000818301604090810191909152601f9092017fffffffffffffffffffffffffffffffffffffffffffffffffffffffffffffffe0160101919050565b73ffffffffffffffffffffffffffffffffffffffff8116811461016a57600080fd5b600060208284031215610b4657600080fd5b8135610abe81610b12565b600082821015610b8a577f4e487b7100000000000000000000000000000000000000000000000000000000600052601160045260246000fd5b500390565b600060208284031215610ba157600080fd5b81518015158114610abe57600080fd5b60008085851115610bc157600080fd5b83861115610bce57600080fd5b505082019391909203915056fea264697066735822122094ea09da52b55083fdfeeb77015d07a944567a93ded2719fbf5f0c9b436b81cb64736f6c634300080e0033",
  "linkReferences": {},
  "deployedLinkReferences": {}
}