{
  "_format": "hh-sol-artifact-1",
  "contractName": "PayoutWalletMock",
  "sourceName": "contracts/mocks/payment/PayoutWalletMock.sol",
  "abi": [
    {
      "inputs": [
        {
          "internalType": "address payable",
          "name": "initialPayoutWallet",
          "type": "address"
        },
        {
          "internalType": "contract IForwarderRegistry",
          "name": "forwarderRegistry",
          "type": "address"
        }
      ],
      "stateMutability": "nonpayable",
      "type": "constructor"
    },
    {
      "anonymous": false,
      "inputs": [
        {
          "indexed": true,
          "internalType": "address",
          "name": "previousOwner",
          "type": "address"
        },
        {
          "indexed": true,
          "internalType": "address",
          "name": "newOwner",
          "type": "address"
        }
      ],
      "name": "OwnershipTransferred",
      "type": "event"
    },
    {
      "anonymous": false,
      "inputs": [
        {
          "indexed": false,
          "internalType": "address",
          "name": "payoutWallet",
          "type": "address"
        }
      ],
      "name": "PayoutWalletSet",
      "type": "event"
    },
    {
      "inputs": [],
      "name": "__msgData",
      "outputs": [
        {
          "internalType": "bytes",
          "name": "",
          "type": "bytes"
        }
      ],
      "stateMutability": "view",
      "type": "function"
    },
    {
      "inputs": [],
      "name": "forwarderRegistry",
      "outputs": [
        {
          "internalType": "contract IForwarderRegistry",
          "name": "",
          "type": "address"
        }
      ],
      "stateMutability": "view",
      "type": "function"
    },
    {
      "inputs": [
        {
          "internalType": "address",
          "name": "forwarder",
          "type": "address"
        }
      ],
      "name": "isTrustedForwarder",
      "outputs": [
        {
          "internalType": "bool",
          "name": "",
          "type": "bool"
        }
      ],
      "stateMutability": "view",
      "type": "function"
    },
    {
      "inputs": [],
      "name": "owner",
      "outputs": [
        {
          "internalType": "address",
          "name": "",
          "type": "address"
        }
      ],
      "stateMutability": "view",
      "type": "function"
    },
    {
      "inputs": [],
      "name": "payoutWallet",
      "outputs": [
        {
          "internalType": "address payable",
          "name": "wallet",
          "type": "address"
        }
      ],
      "stateMutability": "view",
      "type": "function"
    },
    {
      "inputs": [
        {
          "internalType": "address payable",
          "name": "newPayoutWallet",
          "type": "address"
        }
      ],
      "name": "setPayoutWallet",
      "outputs": [],
      "stateMutability": "nonpayable",
      "type": "function"
    },
    {
      "inputs": [
        {
          "internalType": "bytes4",
          "name": "interfaceId",
          "type": "bytes4"
        }
      ],
      "name": "supportsInterface",
      "outputs": [
        {
          "internalType": "bool",
          "name": "",
          "type": "bool"
        }
      ],
      "stateMutability": "view",
      "type": "function"
    },
    {
      "inputs": [
        {
          "internalType": "address",
          "name": "newOwner",
          "type": "address"
        }
      ],
      "name": "transferOwnership",
      "outputs": [],
      "stateMutability": "nonpayable",
      "type": "function"
    }
  ],
  "bytecode": "0x60a06040523480156200001157600080fd5b50604051620010b4380380620010b4833981016040819052620000349162000343565b80808333620000668162000052620000ac60201b620002461760201c565b620000e260201b620002741790919060201c565b506200009581620000816200017560201b620003351760201c565b620001a560201b620003631790919060201c565b506001600160a01b031660805250620003a8915050565b600080620000dc60017fc9ed16f33ab3a66c84bfd83099ccb2a8845871e2e1c1928f63797152f0fd54cd62000382565b92915050565b6001600160a01b03811615620001395781546001600160a01b0319166001600160a01b03821690811783556040516000907f8be0079c531659141344cd1fd0a4f28419497f9722a3daafe3b4186f6b6457e0908290a35b620001716307f5828d60e41b60016200015c620001bf60201b6200036d1760201c565b620001ef60201b6200039b179092919060201c565b5050565b600080620000dc60017f4fb5f8cdfbce77f22b0931a39e9f476a60a0f66524b2f379e96485471eb700ae62000382565b6200017181836200028060201b620004ac1790919060201c565b600080620000dc60017fca9d3e17f264b0f3984e2634e94adb37fa3e6a8103f06aeae6fa59e21c769f5e62000382565b600160e01b6001600160e01b0319831601620002525760405162461bcd60e51b815260206004820152601f60248201527f496e74657266616365446574656374696f6e3a2077726f6e672076616c75650060448201526064015b60405180910390fd5b6001600160e01b03199190911660009081526020929092526040909120805460ff1916911515919091179055565b6001600160a01b038116620002d85760405162461bcd60e51b815260206004820152601a60248201527f5061796f757457616c6c65743a207a65726f2061646472657373000000000000604482015260640162000249565b81546001600160a01b0319166001600160a01b03821690811783556040519081527fdd880d24a789958a6398c99c2e54ce31bc10a638cbc42f7dd34285479ae0f8559060200160405180910390a15050565b6001600160a01b03811681146200034057600080fd5b50565b600080604083850312156200035757600080fd5b825162000364816200032a565b602084015190925062000377816200032a565b809150509250929050565b600082821015620003a357634e487b7160e01b600052601160045260246000fd5b500390565b608051610cce620003e66000396000818160b70152818161012201528181610857015281816108c1015281816109ff0152610a9f0152610cce6000f3fe608060405234801561001057600080fd5b50600436106100885760003560e01c80636b8f9c431161005b5780636b8f9c431461015f5780638488bb4e146101745780638da5cb5b1461017c578063f2fde38b1461018457600080fd5b806301ffc9a71461008d5780632b4c9f16146100b557806331e66e1e146100fc578063572b6c0514610112575b600080fd5b6100a061009b366004610b39565b610197565b60405190151581526020015b60405180910390f35b7f00000000000000000000000000000000000000000000000000000000000000005b60405173ffffffffffffffffffffffffffffffffffffffff90911681526020016100ac565b6101046101b1565b6040516100ac929190610b82565b6100a0610120366004610bf1565b7f000000000000000000000000000000000000000000000000000000000000000073ffffffffffffffffffffffffffffffffffffffff90811691161490565b61017261016d366004610bf1565b6101c4565b005b6100d76101f2565b6100d761021e565b610172610192366004610bf1565b61022b565b60006101ab826101a561036d565b906105a0565b92915050565b3660006101bc61067a565b915091509091565b6101dd6101cf610685565b6101d7610246565b9061068f565b6101ef816101e9610335565b906104ac565b50565b60006102196101ff610335565b5473ffffffffffffffffffffffffffffffffffffffff1690565b905090565b60006102196101ff610246565b6101ef610236610685565b8261023f610246565b9190610712565b6000806101ab60017fc9ed16f33ab3a66c84bfd83099ccb2a8845871e2e1c1928f63797152f0fd54cd610c0e565b73ffffffffffffffffffffffffffffffffffffffff8116156102fc5781547fffffffffffffffffffffffff00000000000000000000000000000000000000001673ffffffffffffffffffffffffffffffffffffffff821690811783556040516000907f8be0079c531659141344cd1fd0a4f28419497f9722a3daafe3b4186f6b6457e0908290a35b6103317f7f5828d000000000000000000000000000000000000000000000000000000000600161032a61036d565b919061039b565b5050565b6000806101ab60017f4fb5f8cdfbce77f22b0931a39e9f476a60a0f66524b2f379e96485471eb700ae610c0e565b61033182826104ac565b6000806101ab60017fca9d3e17f264b0f3984e2634e94adb37fa3e6a8103f06aeae6fa59e21c769f5e610c0e565b7c01000000000000000000000000000000000000000000000000000000007fffffffff00000000000000000000000000000000000000000000000000000000831601610448576040517f08c379a000000000000000000000000000000000000000000000000000000000815260206004820152601f60248201527f496e74657266616365446574656374696f6e3a2077726f6e672076616c75650060448201526064015b60405180910390fd5b7fffffffff00000000000000000000000000000000000000000000000000000000919091166000908152602092909252604090912080547fffffffffffffffffffffffffffffffffffffffffffffffffffffffffffffff0016911515919091179055565b73ffffffffffffffffffffffffffffffffffffffff8116610529576040517f08c379a000000000000000000000000000000000000000000000000000000000815260206004820152601a60248201527f5061796f757457616c6c65743a207a65726f2061646472657373000000000000604482015260640161043f565b81547fffffffffffffffffffffffff00000000000000000000000000000000000000001673ffffffffffffffffffffffffffffffffffffffff821690811783556040519081527fdd880d24a789958a6398c99c2e54ce31bc10a638cbc42f7dd34285479ae0f8559060200160405180910390a15050565b60007c01000000000000000000000000000000000000000000000000000000007fffffffff000000000000000000000000000000000000000000000000000000008316016105f0575060006101ab565b7ffe003659000000000000000000000000000000000000000000000000000000007fffffffff00000000000000000000000000000000000000000000000000000000831601610641575060016101ab565b507fffffffff00000000000000000000000000000000000000000000000000000000166000908152602091909152604090205460ff1690565b3660006101bc61083f565b60006102196109c3565b815473ffffffffffffffffffffffffffffffffffffffff828116911614610331576040517f08c379a000000000000000000000000000000000000000000000000000000000815260206004820152601860248201527f4f776e6572736869703a206e6f7420746865206f776e65720000000000000000604482015260640161043f565b825473ffffffffffffffffffffffffffffffffffffffff9081169083168114610797576040517f08c379a000000000000000000000000000000000000000000000000000000000815260206004820152601860248201527f4f776e6572736869703a206e6f7420746865206f776e65720000000000000000604482015260640161043f565b8173ffffffffffffffffffffffffffffffffffffffff168173ffffffffffffffffffffffffffffffffffffffff16146108395783547fffffffffffffffffffffffff00000000000000000000000000000000000000001673ffffffffffffffffffffffffffffffffffffffff8381169182178655604051908316907f8be0079c531659141344cd1fd0a4f28419497f9722a3daafe3b4186f6b6457e090600090a35b50505050565b3660003332810361085557506000923692509050565b7f000000000000000000000000000000000000000000000000000000000000000073ffffffffffffffffffffffffffffffffffffffff168173ffffffffffffffffffffffffffffffffffffffff1614806109a2575073ffffffffffffffffffffffffffffffffffffffff7f00000000000000000000000000000000000000000000000000000000000000001663e60125d6367fffffffffffffffffffffffffffffffffffffffffffffffffffffffffffffffec013560601c6040517fffffffff0000000000000000000000000000000000000000000000000000000060e084901b16815273ffffffffffffffffffffffffffffffffffffffff91821660048201529084166024820152604401602060405180830381865afa15801561097e573d6000803e3d6000fd5b505050506040513d601f19601f820116820180604052508101906109a29190610c4c565b156109b8576109af610b1b565b92509250509091565b506000923692509050565b6000333281036109d257919050565b6000367fffffffffffffffffffffffffffffffffffffffffffffffffffffffffffffffec013560601c90507f000000000000000000000000000000000000000000000000000000000000000073ffffffffffffffffffffffffffffffffffffffff168273ffffffffffffffffffffffffffffffffffffffff161480610b0a57506040517fe60125d600000000000000000000000000000000000000000000000000000000815273ffffffffffffffffffffffffffffffffffffffff828116600483015283811660248301527f0000000000000000000000000000000000000000000000000000000000000000169063e60125d690604401602060405180830381865afa158015610ae6573d6000803e3d6000fd5b505050506040513d601f19601f82011682018060405250810190610b0a9190610c4c565b15610b155792915050565b50919050565b366000808083610b2c601482610c0e565b926101bc93929190610c6e565b600060208284031215610b4b57600080fd5b81357fffffffff0000000000000000000000000000000000000000000000000000000081168114610b7b57600080fd5b9392505050565b60208152816020820152818360408301376000818301604090810191909152601f9092017fffffffffffffffffffffffffffffffffffffffffffffffffffffffffffffffe0160101919050565b73ffffffffffffffffffffffffffffffffffffffff811681146101ef57600080fd5b600060208284031215610c0357600080fd5b8135610b7b81610bcf565b600082821015610c47577f4e487b7100000000000000000000000000000000000000000000000000000000600052601160045260246000fd5b500390565b600060208284031215610c5e57600080fd5b81518015158114610b7b57600080fd5b60008085851115610c7e57600080fd5b83861115610c8b57600080fd5b505082019391909203915056fea264697066735822122067c9aaa9e6e18d21513931dc938619077754e3ca46895e87cfa26efc579753a164736f6c634300080f0033",
  "linkReferences": {},
  "deployedLinkReferences": {}
}