{
  "_format": "hh-sol-artifact-1",
  "contractName": "ERC1155WithoutOperatorFiltererProxiedMock",
  "sourceName": "contracts/mocks/token/ERC1155/proxied/ERC1155WithoutOperatorFiltererProxiedMock.sol",
  "abi": [
    {
      "inputs": [
        {
          "internalType": "contract IForwarderRegistry",
          "name": "forwarderRegistry",
          "type": "address"
        }
      ],
      "stateMutability": "nonpayable",
      "type": "constructor"
    },
    {
      "anonymous": false,
      "inputs": [
        {
          "indexed": true,
          "internalType": "address",
          "name": "owner",
          "type": "address"
        },
        {
          "indexed": true,
          "internalType": "address",
          "name": "operator",
          "type": "address"
        },
        {
          "indexed": false,
          "internalType": "bool",
          "name": "approved",
          "type": "bool"
        }
      ],
      "name": "ApprovalForAll",
      "type": "event"
    },
    {
      "anonymous": false,
      "inputs": [
        {
          "indexed": true,
          "internalType": "address",
          "name": "previousOwner",
          "type": "address"
        },
        {
          "indexed": true,
          "internalType": "address",
          "name": "newOwner",
          "type": "address"
        }
      ],
      "name": "OwnershipTransferred",
      "type": "event"
    },
    {
      "anonymous": false,
      "inputs": [
        {
          "indexed": false,
          "internalType": "bytes32",
          "name": "role",
          "type": "bytes32"
        },
        {
          "indexed": false,
          "internalType": "address",
          "name": "account",
          "type": "address"
        },
        {
          "indexed": false,
          "internalType": "address",
          "name": "operator",
          "type": "address"
        }
      ],
      "name": "RoleGranted",
      "type": "event"
    },
    {
      "anonymous": false,
      "inputs": [
        {
          "indexed": false,
          "internalType": "bytes32",
          "name": "role",
          "type": "bytes32"
        },
        {
          "indexed": false,
          "internalType": "address",
          "name": "account",
          "type": "address"
        },
        {
          "indexed": false,
          "internalType": "address",
          "name": "operator",
          "type": "address"
        }
      ],
      "name": "RoleRevoked",
      "type": "event"
    },
    {
      "anonymous": false,
      "inputs": [
        {
          "indexed": true,
          "internalType": "address",
          "name": "operator",
          "type": "address"
        },
        {
          "indexed": true,
          "internalType": "address",
          "name": "from",
          "type": "address"
        },
        {
          "indexed": true,
          "internalType": "address",
          "name": "to",
          "type": "address"
        },
        {
          "indexed": false,
          "internalType": "uint256[]",
          "name": "ids",
          "type": "uint256[]"
        },
        {
          "indexed": false,
          "internalType": "uint256[]",
          "name": "values",
          "type": "uint256[]"
        }
      ],
      "name": "TransferBatch",
      "type": "event"
    },
    {
      "anonymous": false,
      "inputs": [
        {
          "indexed": true,
          "internalType": "address",
          "name": "operator",
          "type": "address"
        },
        {
          "indexed": true,
          "internalType": "address",
          "name": "from",
          "type": "address"
        },
        {
          "indexed": true,
          "internalType": "address",
          "name": "to",
          "type": "address"
        },
        {
          "indexed": false,
          "internalType": "uint256",
          "name": "id",
          "type": "uint256"
        },
        {
          "indexed": false,
          "internalType": "uint256",
          "name": "value",
          "type": "uint256"
        }
      ],
      "name": "TransferSingle",
      "type": "event"
    },
    {
      "anonymous": false,
      "inputs": [
        {
          "indexed": false,
          "internalType": "string",
          "name": "value",
          "type": "string"
        },
        {
          "indexed": true,
          "internalType": "uint256",
          "name": "id",
          "type": "uint256"
        }
      ],
      "name": "URI",
      "type": "event"
    },
    {
      "inputs": [],
      "name": "MINTER_ROLE",
      "outputs": [
        {
          "internalType": "bytes32",
          "name": "",
          "type": "bytes32"
        }
      ],
      "stateMutability": "view",
      "type": "function"
    },
    {
      "inputs": [],
      "name": "__msgData",
      "outputs": [
        {
          "internalType": "bytes",
          "name": "",
          "type": "bytes"
        }
      ],
      "stateMutability": "view",
      "type": "function"
    },
    {
      "inputs": [
        {
          "internalType": "address",
          "name": "owner",
          "type": "address"
        },
        {
          "internalType": "uint256",
          "name": "id",
          "type": "uint256"
        }
      ],
      "name": "balanceOf",
      "outputs": [
        {
          "internalType": "uint256",
          "name": "balance",
          "type": "uint256"
        }
      ],
      "stateMutability": "view",
      "type": "function"
    },
    {
      "inputs": [
        {
          "internalType": "address[]",
          "name": "owners",
          "type": "address[]"
        },
        {
          "internalType": "uint256[]",
          "name": "ids",
          "type": "uint256[]"
        }
      ],
      "name": "balanceOfBatch",
      "outputs": [
        {
          "internalType": "uint256[]",
          "name": "balances",
          "type": "uint256[]"
        }
      ],
      "stateMutability": "view",
      "type": "function"
    },
    {
      "inputs": [],
      "name": "forwarderRegistry",
      "outputs": [
        {
          "internalType": "contract IForwarderRegistry",
          "name": "",
          "type": "address"
        }
      ],
      "stateMutability": "view",
      "type": "function"
    },
    {
      "inputs": [
        {
          "internalType": "bytes32",
          "name": "role",
          "type": "bytes32"
        },
        {
          "internalType": "address",
          "name": "account",
          "type": "address"
        }
      ],
      "name": "grantRole",
      "outputs": [],
      "stateMutability": "nonpayable",
      "type": "function"
    },
    {
      "inputs": [
        {
          "internalType": "bytes32",
          "name": "role",
          "type": "bytes32"
        },
        {
          "internalType": "address",
          "name": "account",
          "type": "address"
        }
      ],
      "name": "hasRole",
      "outputs": [
        {
          "internalType": "bool",
          "name": "hasRole_",
          "type": "bool"
        }
      ],
      "stateMutability": "view",
      "type": "function"
    },
    {
      "inputs": [],
      "name": "init",
      "outputs": [],
      "stateMutability": "nonpayable",
      "type": "function"
    },
    {
      "inputs": [
        {
          "internalType": "address",
          "name": "owner",
          "type": "address"
        },
        {
          "internalType": "address",
          "name": "operator",
          "type": "address"
        }
      ],
      "name": "isApprovedForAll",
      "outputs": [
        {
          "internalType": "bool",
          "name": "approvedForAll",
          "type": "bool"
        }
      ],
      "stateMutability": "view",
      "type": "function"
    },
    {
      "inputs": [
        {
          "internalType": "address",
          "name": "forwarder",
          "type": "address"
        }
      ],
      "name": "isTrustedForwarder",
      "outputs": [
        {
          "internalType": "bool",
          "name": "",
          "type": "bool"
        }
      ],
      "stateMutability": "view",
      "type": "function"
    },
    {
      "inputs": [],
      "name": "owner",
      "outputs": [
        {
          "internalType": "address",
          "name": "",
          "type": "address"
        }
      ],
      "stateMutability": "view",
      "type": "function"
    },
    {
      "inputs": [
        {
          "internalType": "bytes32",
          "name": "role",
          "type": "bytes32"
        }
      ],
      "name": "renounceRole",
      "outputs": [],
      "stateMutability": "nonpayable",
      "type": "function"
    },
    {
      "inputs": [
        {
          "internalType": "bytes32",
          "name": "role",
          "type": "bytes32"
        },
        {
          "internalType": "address",
          "name": "account",
          "type": "address"
        }
      ],
      "name": "revokeRole",
      "outputs": [],
      "stateMutability": "nonpayable",
      "type": "function"
    },
    {
      "inputs": [
        {
          "internalType": "address",
          "name": "to",
          "type": "address"
        },
        {
          "internalType": "uint256[]",
          "name": "ids",
          "type": "uint256[]"
        },
        {
          "internalType": "uint256[]",
          "name": "values",
          "type": "uint256[]"
        },
        {
          "internalType": "bytes",
          "name": "data",
          "type": "bytes"
        }
      ],
      "name": "safeBatchMint",
      "outputs": [],
      "stateMutability": "nonpayable",
      "type": "function"
    },
    {
      "inputs": [
        {
          "internalType": "address",
          "name": "from",
          "type": "address"
        },
        {
          "internalType": "address",
          "name": "to",
          "type": "address"
        },
        {
          "internalType": "uint256[]",
          "name": "ids",
          "type": "uint256[]"
        },
        {
          "internalType": "uint256[]",
          "name": "values",
          "type": "uint256[]"
        },
        {
          "internalType": "bytes",
          "name": "data",
          "type": "bytes"
        }
      ],
      "name": "safeBatchTransferFrom",
      "outputs": [],
      "stateMutability": "nonpayable",
      "type": "function"
    },
    {
      "inputs": [
        {
          "internalType": "address",
          "name": "to",
          "type": "address"
        },
        {
          "internalType": "uint256",
          "name": "id",
          "type": "uint256"
        },
        {
          "internalType": "uint256",
          "name": "value",
          "type": "uint256"
        },
        {
          "internalType": "bytes",
          "name": "data",
          "type": "bytes"
        }
      ],
      "name": "safeMint",
      "outputs": [],
      "stateMutability": "nonpayable",
      "type": "function"
    },
    {
      "inputs": [
        {
          "internalType": "address",
          "name": "from",
          "type": "address"
        },
        {
          "internalType": "address",
          "name": "to",
          "type": "address"
        },
        {
          "internalType": "uint256",
          "name": "id",
          "type": "uint256"
        },
        {
          "internalType": "uint256",
          "name": "value",
          "type": "uint256"
        },
        {
          "internalType": "bytes",
          "name": "data",
          "type": "bytes"
        }
      ],
      "name": "safeTransferFrom",
      "outputs": [],
      "stateMutability": "nonpayable",
      "type": "function"
    },
    {
      "inputs": [
        {
          "internalType": "address",
          "name": "operator",
          "type": "address"
        },
        {
          "internalType": "bool",
          "name": "approved",
          "type": "bool"
        }
      ],
      "name": "setApprovalForAll",
      "outputs": [],
      "stateMutability": "nonpayable",
      "type": "function"
    },
    {
      "inputs": [
        {
          "internalType": "bytes4",
          "name": "interfaceId",
          "type": "bytes4"
        }
      ],
      "name": "supportsInterface",
      "outputs": [
        {
          "internalType": "bool",
          "name": "",
          "type": "bool"
        }
      ],
      "stateMutability": "view",
      "type": "function"
    },
    {
      "inputs": [
        {
          "internalType": "address",
          "name": "newOwner",
          "type": "address"
        }
      ],
      "name": "transferOwnership",
      "outputs": [],
      "stateMutability": "nonpayable",
      "type": "function"
    }
  ],
  "bytecode": "0x60a060405234801562000010575f80fd5b5060405162002d5438038062002d54833981016040819052620000339162000045565b6001600160a01b031660805262000074565b5f6020828403121562000056575f80fd5b81516001600160a01b03811681146200006d575f80fd5b9392505050565b608051612ca4620000b05f395f81816101c6015281816102770152818161196c015281816119f40152818161204c015261208a0152612ca45ff3fe608060405234801561000f575f80fd5b5060043610610162575f3560e01c80638bb9c5bf116100c7578063d547741f1161007d578063e985e9c511610063578063e985e9c51461034a578063f242432a1461035d578063f2fde38b14610370575f80fd5b8063d547741f1461032f578063e1c7392a14610342575f80fd5b806391d14854116100ad57806391d14854146102e2578063a22cb465146102f5578063d539139314610308575f80fd5b80638bb9c5bf146102c75780638da5cb5b146102da575f80fd5b80632f2ff15d1161011c5780634e1273f4116101025780634e1273f414610247578063572b6c05146102675780635cfa9297146102b4575f80fd5b80632f2ff15d1461021e57806331e66e1e14610231575f80fd5b80630d6a5bbb1161014c5780630d6a5bbb146101af5780632b4c9f16146101c45780632eb2c2d61461020b575f80fd5b8062fdd58e1461016657806301ffc9a71461018c575b5f80fd5b610179610174366004612460565b610383565b6040519081526020015b60405180910390f35b61019f61019a3660046124b5565b6103a1565b6040519015158152602001610183565b6101c26101bd36600461255d565b6103b4565b005b7f00000000000000000000000000000000000000000000000000000000000000005b60405173ffffffffffffffffffffffffffffffffffffffff9091168152602001610183565b6101c2610219366004612600565b6104ab565b6101c261022c3660046126b3565b6104d4565b61023961050c565b6040516101839291906126dd565b61025a610255366004612729565b61051e565b60405161018391906127c9565b61019f6102753660046127db565b7f000000000000000000000000000000000000000000000000000000000000000073ffffffffffffffffffffffffffffffffffffffff90811691161490565b6101c26102c23660046127f4565b610541565b6101c26102d5366004612857565b6105d1565b6101e66105ef565b61019f6102f03660046126b3565b61061a565b6101c261030336600461287b565b61065c565b6101797f6d696e746572000000000000000000000000000000000000000000000000000081565b6101c261033d3660046126b3565b61067d565b6101c26106aa565b61019f6103583660046128b0565b6106d5565b6101c261036b3660046128d8565b610721565b6101c261037e3660046127db565b610746565b5f6103988383610391610761565b919061078e565b90505b92915050565b5f61039b826103ae610845565b90610872565b5f6103bd610949565b90506103f37f6d696e7465720000000000000000000000000000000000000000000000000000826103ec610952565b919061097f565b6104a181898989808060200260200160405190810160405280939291908181526020018383602002808284375f9201919091525050604080516020808d0282810182019093528c82529093508c92508b9182918501908490808284375f9201919091525050604080516020601f8c018190048102820181019092528a815292508a91508990819084018382808284375f920191909152506104979250610761915050565b9493929190610a2a565b5050505050505050565b6104a16104b6610949565b89898989898989896104c6610761565b989796959493929190610c15565b5f6104dd610949565b90506104f1816104eb610f09565b90610f36565b6105078383836104ff610952565b929190610fb9565b505050565b365f61051661108e565b915091509091565b60606105388585858561052f610761565b93929190611098565b95945050505050565b5f61054a610949565b90506105797f6d696e7465720000000000000000000000000000000000000000000000000000826103ec610952565b6105c98187878787878080601f0160208091040260200160405190810160405280939291908181526020018383808284375f920191909152506105bf9250610761915050565b94939291906111d5565b505050505050565b6105ec6105dc610949565b826105e5610952565b91906112e1565b50565b5f6106156105fb610f09565b5473ffffffffffffffffffffffffffffffffffffffff1690565b905090565b5f6103988383610628610952565b5f9283526020908152604080842073ffffffffffffffffffffffffffffffffffffffff909316845291905290205460ff1690565b610679610667610949565b8383610671610761565b929190611384565b5050565b5f610686610949565b9050610694816104eb610f09565b6105078383836106a2610952565b9291906114b3565b6106c36106b5610949565b6106bd610f09565b9061157b565b6106cb6115ba565b6106d36115ef565b565b5f61039883836106e3610761565b919073ffffffffffffffffffffffffffffffffffffffff9182165f908152600193909301602090815260408085209290931684525290205460ff1690565b6105c961072c610949565b87878787878761073a610761565b9695949392919061161d565b6105ec610751610949565b8261075a610f09565b91906117ff565b5f8061039b60017f5ccf5846fa27a68fafc8e588671a68f5e67c2f9b56af4263806a4d71735e861361294b565b5f73ffffffffffffffffffffffffffffffffffffffff8316610811576040517f08c379a000000000000000000000000000000000000000000000000000000000815260206004820152601e60248201527f455243313135353a2062616c616e6365206f662061646472657373283029000060448201526064015b60405180910390fd5b505f9081526020928352604080822073ffffffffffffffffffffffffffffffffffffffff9390931682529190925290205490565b5f8061039b60017fca9d3e17f264b0f3984e2634e94adb37fa3e6a8103f06aeae6fa59e21c769f5e61294b565b5f7c01000000000000000000000000000000000000000000000000000000007fffffffff000000000000000000000000000000000000000000000000000000008316016108c057505f61039b565b7ffe003659000000000000000000000000000000000000000000000000000000007fffffffff000000000000000000000000000000000000000000000000000000008316016109115750600161039b565b507fffffffff00000000000000000000000000000000000000000000000000000000165f908152602091909152604090205460ff1690565b5f61061561192a565b5f8061039b60017fc8827d3282af6f37b64c3e9e6f3ac9df286ab0bb0fccd6f8661bf19adb368b2361294b565b5f8281526020848152604080832073ffffffffffffffffffffffffffffffffffffffff8516845290915290205460ff16610507576109bc82611a6e565b6040516020016109cc91906129a5565b604080517fffffffffffffffffffffffffffffffffffffffffffffffffffffffffffffffe0818403018152908290527f08c379a000000000000000000000000000000000000000000000000000000000825261080891600401612a59565b73ffffffffffffffffffffffffffffffffffffffff8416610aa7576040517f08c379a000000000000000000000000000000000000000000000000000000000815260206004820152601b60248201527f455243313135353a206d696e7420746f206164647265737328302900000000006044820152606401610808565b825182518114610b13576040517f08c379a000000000000000000000000000000000000000000000000000000000815260206004820152601c60248201527f455243313135353a20696e636f6e73697374656e7420617272617973000000006044820152606401610808565b5f5b818114610b6257610b5a8887878481518110610b3357610b33612a6b565b6020026020010151878581518110610b4d57610b4d612a6b565b6020026020010151611bf9565b600101610b15565b508473ffffffffffffffffffffffffffffffffffffffff165f73ffffffffffffffffffffffffffffffffffffffff168773ffffffffffffffffffffffffffffffffffffffff167f4a39dc06d4c0dbc64b70af90fd698a233a518aa5d07e595d983b8c0526c8f7fb8787604051610bd9929190612a98565b60405180910390a473ffffffffffffffffffffffffffffffffffffffff85163b15610c0c57610c0c865f87878787611ccb565b50505050505050565b73ffffffffffffffffffffffffffffffffffffffff8716610c92576040517f08c379a000000000000000000000000000000000000000000000000000000000815260206004820152601f60248201527f455243313135353a207472616e7366657220746f2061646472657373283029006044820152606401610808565b84838114610cfc576040517f08c379a000000000000000000000000000000000000000000000000000000000815260206004820152601c60248201527f455243313135353a20696e636f6e73697374656e7420617272617973000000006044820152606401610808565b610d078b8a8c611df0565b610d6d576040517f08c379a000000000000000000000000000000000000000000000000000000000815260206004820152601c60248201527f455243313135353a206e6f6e2d617070726f7665642073656e646572000000006044820152606401610808565b5f5b818114610dbb57610db38c8b8b8b8b86818110610d8e57610d8e612a6b565b905060200201358a8a87818110610da757610da7612a6b565b90506020020135611e66565b600101610d6f565b508773ffffffffffffffffffffffffffffffffffffffff168973ffffffffffffffffffffffffffffffffffffffff168b73ffffffffffffffffffffffffffffffffffffffff167f4a39dc06d4c0dbc64b70af90fd698a233a518aa5d07e595d983b8c0526c8f7fb8a8a8a8a604051610e369493929190612b05565b60405180910390a473ffffffffffffffffffffffffffffffffffffffff88163b15610efc57610efc8a8a8a8a8a808060200260200160405190810160405280939291908181526020018383602002808284375f9201919091525050604080516020808e0282810182019093528d82529093508d92508c9182918501908490808284375f9201919091525050604080516020601f8d018190048102820181019092528b815292508b91508a90819084018382808284375f92019190915250611ccb92505050565b5050505050505050505050565b5f8061039b60017fc9ed16f33ab3a66c84bfd83099ccb2a8845871e2e1c1928f63797152f0fd54cd61294b565b815473ffffffffffffffffffffffffffffffffffffffff828116911614610679576040517f08c379a000000000000000000000000000000000000000000000000000000000815260206004820152601860248201527f4f776e6572736869703a206e6f7420746865206f776e657200000000000000006044820152606401610808565b5f8381526020858152604080832073ffffffffffffffffffffffffffffffffffffffff8616845290915290205460ff16611088575f8381526020858152604080832073ffffffffffffffffffffffffffffffffffffffff8681168086529184529382902080547fffffffffffffffffffffffffffffffffffffffffffffffffffffffffffffff00166001179055815187815292830152918316918101919091527f2f8788117e7eff1d82e926ec794901d17c78024a50270940304540a733656f0d906060015b60405180910390a15b50505050565b365f610516612017565b606083828114611104576040517f08c379a000000000000000000000000000000000000000000000000000000000815260206004820152601c60248201527f455243313135353a20696e636f6e73697374656e7420617272617973000000006044820152606401610808565b8467ffffffffffffffff81111561111d5761111d612b36565b604051908082528060200260200182016040528015611146578160200160208202803683370190505b5091505f5b8181146111ca576111a587878381811061116757611167612a6b565b905060200201602081019061117c91906127db565b86868481811061118e5761118e612a6b565b905060200201358a61078e9092919063ffffffff16565b8382815181106111b7576111b7612a6b565b602090810291909101015260010161114b565b505095945050505050565b73ffffffffffffffffffffffffffffffffffffffff8416611252576040517f08c379a000000000000000000000000000000000000000000000000000000000815260206004820152601b60248201527f455243313135353a206d696e7420746f206164647265737328302900000000006044820152606401610808565b61125e86858585611bf9565b604080518481526020810184905273ffffffffffffffffffffffffffffffffffffffff808716925f92918916917fc3d58168c5ae7397731d063d5bbf3d657854427343f4c083240f7aacaa2d0f62910160405180910390a473ffffffffffffffffffffffffffffffffffffffff84163b156105c9576105c9855f8686868661217c565b6112ec83828461097f565b5f8181526020848152604080832073ffffffffffffffffffffffffffffffffffffffff86168085529083529281902080547fffffffffffffffffffffffffffffffffffffffffffffffffffffffffffffff0016905580518481529182018390528101919091527ff6391f5c32d9c69d2a47ea670b442974b53935d1edc7fd64eb21e047a839171b9060600160405180910390a1505050565b8273ffffffffffffffffffffffffffffffffffffffff168273ffffffffffffffffffffffffffffffffffffffff1603611419576040517f08c379a000000000000000000000000000000000000000000000000000000000815260206004820152601e60248201527f455243313135353a2073656c662d617070726f76616c20666f7220616c6c00006044820152606401610808565b73ffffffffffffffffffffffffffffffffffffffff8381165f81815260018701602090815260408083209487168084529482529182902080547fffffffffffffffffffffffffffffffffffffffffffffffffffffffffffffff001686151590811790915591519182527f17307eab39ab6107e8899845ad3d59bd9653f200f220920489ca2b5937696c31910160405180910390a350505050565b5f8381526020858152604080832073ffffffffffffffffffffffffffffffffffffffff8616845290915290205460ff1615611088575f8381526020858152604080832073ffffffffffffffffffffffffffffffffffffffff8681168086529184529382902080547fffffffffffffffffffffffffffffffffffffffffffffffffffffffffffffff00169055815187815292830152918316918101919091527ff6391f5c32d9c69d2a47ea670b442974b53935d1edc7fd64eb21e047a839171b9060600161107f565b6115b06115a960017f5b388d90dc1312ba799f321972f13311234fa1163bcabec7cf66101c4876eb8461294b565b60016121d8565b6106798282612248565b6106d37fd9b67a260000000000000000000000000000000000000000000000000000000060016115e8610845565b91906122fd565b6106d37f5190c92c0000000000000000000000000000000000000000000000000000000060016115e8610845565b73ffffffffffffffffffffffffffffffffffffffff851661169a576040517f08c379a000000000000000000000000000000000000000000000000000000000815260206004820152601f60248201527f455243313135353a207472616e7366657220746f2061646472657373283029006044820152606401610808565b6116a5888789611df0565b61170b576040517f08c379a000000000000000000000000000000000000000000000000000000000815260206004820152601c60248201527f455243313135353a206e6f6e2d617070726f7665642073656e646572000000006044820152606401610808565b6117188887878787611e66565b8473ffffffffffffffffffffffffffffffffffffffff168673ffffffffffffffffffffffffffffffffffffffff168873ffffffffffffffffffffffffffffffffffffffff167fc3d58168c5ae7397731d063d5bbf3d657854427343f4c083240f7aacaa2d0f628787604051611797929190918252602082015260400190565b60405180910390a473ffffffffffffffffffffffffffffffffffffffff85163b156104a1576104a1878787878787878080601f0160208091040260200160405190810160405280939291908181526020018383808284375f9201919091525061217c92505050565b825473ffffffffffffffffffffffffffffffffffffffff9081169083168114611884576040517f08c379a000000000000000000000000000000000000000000000000000000000815260206004820152601860248201527f4f776e6572736869703a206e6f7420746865206f776e657200000000000000006044820152606401610808565b8173ffffffffffffffffffffffffffffffffffffffff168173ffffffffffffffffffffffffffffffffffffffff16146110885783547fffffffffffffffffffffffff00000000000000000000000000000000000000001673ffffffffffffffffffffffffffffffffffffffff8381169182178655604051908316907f8be0079c531659141344cd1fd0a4f28419497f9722a3daafe3b4186f6b6457e0905f90a350505050565b5f333214806119395750601836105b1561194357503390565b7fffffffffffffffffffffffffffffffffffffffffffffffffffffffffffffffec36013560601c7f000000000000000000000000000000000000000000000000000000000000000073ffffffffffffffffffffffffffffffffffffffff16331480611a5d57506040517f8929a8ca00000000000000000000000000000000000000000000000000000000815273ffffffffffffffffffffffffffffffffffffffff82811660048301523360248301527f00000000000000000000000000000000000000000000000000000000000000001690638929a8ca90604401602060405180830381865afa158015611a39573d5f803e3d5ffd5b505050506040513d601f19601f82011682018060405250810190611a5d9190612b63565b15611a6757919050565b3391505090565b60605f829003611a8b57505060408051602081019091525f815290565b5f82604051602001611a9f91815260200190565b604080517fffffffffffffffffffffffffffffffffffffffffffffffffffffffffffffffe08184030181529190529050601f5b818181518110611ae457611ae4612a6b565b01602001517fff00000000000000000000000000000000000000000000000000000000000000165f03611b38577fffffffffffffffffffffffffffffffffffffffffffffffffffffffffffffffff01611ad2565b5f8160010167ffffffffffffffff811115611b5557611b55612b36565b6040519080825280601f01601f191660200182016040528015611b7f576020820181803683370190505b5090505f5b828111611bf057838181518110611b9d57611b9d612a6b565b602001015160f81c60f81b828281518110611bba57611bba612a6b565b60200101907effffffffffffffffffffffffffffffffffffffffffffffffffffffffffffff191690815f1a905350600101611b84565b50949350505050565b8015611088575f8281526020858152604080832073ffffffffffffffffffffffffffffffffffffffff87168452909152902054818101818111611c98576040517f08c379a000000000000000000000000000000000000000000000000000000000815260206004820152601960248201527f455243313135353a2062616c616e6365206f766572666c6f77000000000000006044820152606401610808565b5f9384526020958652604080852073ffffffffffffffffffffffffffffffffffffffff9690961685529490955250502055565b6040517fbc197c81000000000000000000000000000000000000000000000000000000008082529073ffffffffffffffffffffffffffffffffffffffff86169063bc197c8190611d27908a908a90899089908990600401612b7e565b6020604051808303815f875af1158015611d43573d5f803e3d5ffd5b505050506040513d601f19601f82011682018060405250810190611d679190612be8565b7fffffffff0000000000000000000000000000000000000000000000000000000016146105c9576040517f08c379a000000000000000000000000000000000000000000000000000000000815260206004820152601a60248201527f455243313135353a207472616e736665722072656a65637465640000000000006044820152606401610808565b5f8173ffffffffffffffffffffffffffffffffffffffff168373ffffffffffffffffffffffffffffffffffffffff161480611e5e575073ffffffffffffffffffffffffffffffffffffffff8084165f90815260018601602090815260408083209386168352929052205460ff165b949350505050565b8015612010575f8281526020868152604080832073ffffffffffffffffffffffffffffffffffffffff88168452909152902054818103818110611f05576040517f08c379a000000000000000000000000000000000000000000000000000000000815260206004820152601d60248201527f455243313135353a20696e73756666696369656e742062616c616e63650000006044820152606401610808565b8473ffffffffffffffffffffffffffffffffffffffff168673ffffffffffffffffffffffffffffffffffffffff1614610c0c575f8481526020888152604080832073ffffffffffffffffffffffffffffffffffffffff89168452909152902054838101818111611fd1576040517f08c379a000000000000000000000000000000000000000000000000000000000815260206004820152601960248201527f455243313135353a2062616c616e6365206f766572666c6f77000000000000006044820152606401610808565b5f86815260208a8152604080832073ffffffffffffffffffffffffffffffffffffffff808d1685528184528285208890558b1684529091529020555050505b5050505050565b365f333214806120275750601836105b1561203457505f91369150565b3373ffffffffffffffffffffffffffffffffffffffff7f0000000000000000000000000000000000000000000000000000000000000000161480612167575073ffffffffffffffffffffffffffffffffffffffff7f000000000000000000000000000000000000000000000000000000000000000016638929a8ca367fffffffffffffffffffffffffffffffffffffffffffffffffffffffffffffffec013560601c6040517fffffffff0000000000000000000000000000000000000000000000000000000060e084901b16815273ffffffffffffffffffffffffffffffffffffffff9091166004820152336024820152604401602060405180830381865afa158015612143573d5f803e3d5ffd5b505050506040513d601f19601f820116820180604052508101906121679190612b63565b1561217457610516612408565b505f91369150565b6040517ff23a6e61000000000000000000000000000000000000000000000000000000008082529073ffffffffffffffffffffffffffffffffffffffff86169063f23a6e6190611d27908a908a90899089908990600401612c03565b815482908211612244576040517f08c379a000000000000000000000000000000000000000000000000000000000815260206004820152601660248201527f53746f726167653a2070686173652072656163686564000000000000000000006044820152606401610808565b5550565b73ffffffffffffffffffffffffffffffffffffffff8116156122cf5781547fffffffffffffffffffffffff00000000000000000000000000000000000000001673ffffffffffffffffffffffffffffffffffffffff821690811783556040515f907f8be0079c531659141344cd1fd0a4f28419497f9722a3daafe3b4186f6b6457e0908290a35b6106797f7f5828d00000000000000000000000000000000000000000000000000000000060016115e8610845565b7c01000000000000000000000000000000000000000000000000000000007fffffffff000000000000000000000000000000000000000000000000000000008316016123a5576040517f08c379a000000000000000000000000000000000000000000000000000000000815260206004820152601f60248201527f496e74657266616365446574656374696f6e3a2077726f6e672076616c7565006044820152606401610808565b7fffffffff00000000000000000000000000000000000000000000000000000000919091165f908152602092909252604090912080547fffffffffffffffffffffffffffffffffffffffffffffffffffffffffffffff0016911515919091179055565b365f6105167fffffffffffffffffffffffffffffffffffffffffffffffffffffffffffffffec8301828481612c47565b803573ffffffffffffffffffffffffffffffffffffffff8116811461245b575f80fd5b919050565b5f8060408385031215612471575f80fd5b61247a83612438565b946020939093013593505050565b7fffffffff00000000000000000000000000000000000000000000000000000000811681146105ec575f80fd5b5f602082840312156124c5575f80fd5b81356124d081612488565b9392505050565b5f8083601f8401126124e7575f80fd5b50813567ffffffffffffffff8111156124fe575f80fd5b6020830191508360208260051b8501011115612518575f80fd5b9250929050565b5f8083601f84011261252f575f80fd5b50813567ffffffffffffffff811115612546575f80fd5b602083019150836020828501011115612518575f80fd5b5f805f805f805f6080888a031215612573575f80fd5b61257c88612438565b9650602088013567ffffffffffffffff80821115612598575f80fd5b6125a48b838c016124d7565b909850965060408a01359150808211156125bc575f80fd5b6125c88b838c016124d7565b909650945060608a01359150808211156125e0575f80fd5b506125ed8a828b0161251f565b989b979a50959850939692959293505050565b5f805f805f805f8060a0898b031215612617575f80fd5b61262089612438565b975061262e60208a01612438565b9650604089013567ffffffffffffffff8082111561264a575f80fd5b6126568c838d016124d7565b909850965060608b013591508082111561266e575f80fd5b61267a8c838d016124d7565b909650945060808b0135915080821115612692575f80fd5b5061269f8b828c0161251f565b999c989b5096995094979396929594505050565b5f80604083850312156126c4575f80fd5b823591506126d460208401612438565b90509250929050565b60208152816020820152818360408301375f818301604090810191909152601f9092017fffffffffffffffffffffffffffffffffffffffffffffffffffffffffffffffe0160101919050565b5f805f806040858703121561273c575f80fd5b843567ffffffffffffffff80821115612753575f80fd5b61275f888389016124d7565b90965094506020870135915080821115612777575f80fd5b50612784878288016124d7565b95989497509550505050565b5f8151808452602080850194508084015f5b838110156127be578151875295820195908201906001016127a2565b509495945050505050565b602081525f6103986020830184612790565b5f602082840312156127eb575f80fd5b61039882612438565b5f805f805f60808688031215612808575f80fd5b61281186612438565b94506020860135935060408601359250606086013567ffffffffffffffff81111561283a575f80fd5b6128468882890161251f565b969995985093965092949392505050565b5f60208284031215612867575f80fd5b5035919050565b80151581146105ec575f80fd5b5f806040838503121561288c575f80fd5b61289583612438565b915060208301356128a58161286e565b809150509250929050565b5f80604083850312156128c1575f80fd5b6128ca83612438565b91506126d460208401612438565b5f805f805f8060a087890312156128ed575f80fd5b6128f687612438565b955061290460208801612438565b94506040870135935060608701359250608087013567ffffffffffffffff81111561292d575f80fd5b61293989828a0161251f565b979a9699509497509295939492505050565b8181038181111561039b577f4e487b71000000000000000000000000000000000000000000000000000000005f52601160045260245ffd5b5f5b8381101561299d578181015183820152602001612985565b50505f910152565b7f416363657373436f6e74726f6c3a206d697373696e672027000000000000000081525f82516129dc816018850160208701612983565b7f2720726f6c6500000000000000000000000000000000000000000000000000006018939091019283015250601e01919050565b5f8151808452612a27816020860160208601612983565b601f017fffffffffffffffffffffffffffffffffffffffffffffffffffffffffffffffe0169290920160200192915050565b602081525f6103986020830184612a10565b7f4e487b71000000000000000000000000000000000000000000000000000000005f52603260045260245ffd5b604081525f612aaa6040830185612790565b82810360208401526105388185612790565b8183525f7f07ffffffffffffffffffffffffffffffffffffffffffffffffffffffffffffff831115612aec575f80fd5b8260051b80836020870137939093016020019392505050565b604081525f612b18604083018688612abc565b8281036020840152612b2b818587612abc565b979650505050505050565b7f4e487b71000000000000000000000000000000000000000000000000000000005f52604160045260245ffd5b5f60208284031215612b73575f80fd5b81516124d08161286e565b5f73ffffffffffffffffffffffffffffffffffffffff808816835280871660208401525060a06040830152612bb660a0830186612790565b8281036060840152612bc88186612790565b90508281036080840152612bdc8185612a10565b98975050505050505050565b5f60208284031215612bf8575f80fd5b81516124d081612488565b5f73ffffffffffffffffffffffffffffffffffffffff808816835280871660208401525084604083015283606083015260a06080830152612b2b60a0830184612a10565b5f8085851115612c55575f80fd5b83861115612c61575f80fd5b505082019391909203915056fea2646970667358221220966029e49a1946ae135821dab0acec1103e273fd9ba4dbae60cb5e3dfa27378764736f6c63430008150033",
  "linkReferences": {},
  "deployedLinkReferences": {}
}