{
  "_format": "hh-sol-artifact-1",
  "contractName": "ERC1155WithoutOperatorFiltererProxiedMock",
  "sourceName": "contracts/mocks/token/ERC1155/proxied/ERC1155WithoutOperatorFiltererProxiedMock.sol",
  "abi": [
    {
      "inputs": [
        {
          "internalType": "contract IForwarderRegistry",
          "name": "forwarderRegistry",
          "type": "address"
        }
      ],
      "stateMutability": "nonpayable",
      "type": "constructor"
    },
    {
      "inputs": [],
      "name": "ERC1155BalanceOfAddressZero",
      "type": "error"
    },
    {
      "inputs": [
        {
          "internalType": "address",
          "name": "recipient",
          "type": "address"
        },
        {
          "internalType": "uint256",
          "name": "id",
          "type": "uint256"
        },
        {
          "internalType": "uint256",
          "name": "balance",
          "type": "uint256"
        },
        {
          "internalType": "uint256",
          "name": "value",
          "type": "uint256"
        }
      ],
      "name": "ERC1155BalanceOverflow",
      "type": "error"
    },
    {
      "inputs": [
        {
          "internalType": "address",
          "name": "owner",
          "type": "address"
        },
        {
          "internalType": "uint256",
          "name": "id",
          "type": "uint256"
        },
        {
          "internalType": "uint256",
          "name": "balance",
          "type": "uint256"
        },
        {
          "internalType": "uint256",
          "name": "value",
          "type": "uint256"
        }
      ],
      "name": "ERC1155InsufficientBalance",
      "type": "error"
    },
    {
      "inputs": [],
      "name": "ERC1155MintToAddressZero",
      "type": "error"
    },
    {
      "inputs": [
        {
          "internalType": "address",
          "name": "sender",
          "type": "address"
        },
        {
          "internalType": "address",
          "name": "owner",
          "type": "address"
        }
      ],
      "name": "ERC1155NonApproved",
      "type": "error"
    },
    {
      "inputs": [
        {
          "internalType": "address",
          "name": "recipient",
          "type": "address"
        },
        {
          "internalType": "uint256[]",
          "name": "ids",
          "type": "uint256[]"
        },
        {
          "internalType": "uint256[]",
          "name": "values",
          "type": "uint256[]"
        }
      ],
      "name": "ERC1155SafeBatchTransferRejected",
      "type": "error"
    },
    {
      "inputs": [
        {
          "internalType": "address",
          "name": "recipient",
          "type": "address"
        },
        {
          "internalType": "uint256",
          "name": "id",
          "type": "uint256"
        },
        {
          "internalType": "uint256",
          "name": "value",
          "type": "uint256"
        }
      ],
      "name": "ERC1155SafeTransferRejected",
      "type": "error"
    },
    {
      "inputs": [
        {
          "internalType": "address",
          "name": "account",
          "type": "address"
        }
      ],
      "name": "ERC1155SelfApprovalForAll",
      "type": "error"
    },
    {
      "inputs": [],
      "name": "ERC1155TransferToAddressZero",
      "type": "error"
    },
    {
      "inputs": [],
      "name": "IllegalInterfaceId",
      "type": "error"
    },
    {
      "inputs": [],
      "name": "InconsistentArrayLengths",
      "type": "error"
    },
    {
      "inputs": [
        {
          "internalType": "uint256",
          "name": "currentPhase",
          "type": "uint256"
        },
        {
          "internalType": "uint256",
          "name": "newPhase",
          "type": "uint256"
        }
      ],
      "name": "InitializationPhaseAlreadyReached",
      "type": "error"
    },
    {
      "inputs": [
        {
          "internalType": "address",
          "name": "account",
          "type": "address"
        }
      ],
      "name": "NotContractOwner",
      "type": "error"
    },
    {
      "inputs": [
        {
          "internalType": "bytes32",
          "name": "role",
          "type": "bytes32"
        },
        {
          "internalType": "address",
          "name": "account",
          "type": "address"
        }
      ],
      "name": "NotRoleHolder",
      "type": "error"
    },
    {
      "anonymous": false,
      "inputs": [
        {
          "indexed": true,
          "internalType": "address",
          "name": "owner",
          "type": "address"
        },
        {
          "indexed": true,
          "internalType": "address",
          "name": "operator",
          "type": "address"
        },
        {
          "indexed": false,
          "internalType": "bool",
          "name": "approved",
          "type": "bool"
        }
      ],
      "name": "ApprovalForAll",
      "type": "event"
    },
    {
      "anonymous": false,
      "inputs": [
        {
          "indexed": true,
          "internalType": "address",
          "name": "previousOwner",
          "type": "address"
        },
        {
          "indexed": true,
          "internalType": "address",
          "name": "newOwner",
          "type": "address"
        }
      ],
      "name": "OwnershipTransferred",
      "type": "event"
    },
    {
      "anonymous": false,
      "inputs": [
        {
          "indexed": false,
          "internalType": "bytes32",
          "name": "role",
          "type": "bytes32"
        },
        {
          "indexed": false,
          "internalType": "address",
          "name": "account",
          "type": "address"
        },
        {
          "indexed": false,
          "internalType": "address",
          "name": "operator",
          "type": "address"
        }
      ],
      "name": "RoleGranted",
      "type": "event"
    },
    {
      "anonymous": false,
      "inputs": [
        {
          "indexed": false,
          "internalType": "bytes32",
          "name": "role",
          "type": "bytes32"
        },
        {
          "indexed": false,
          "internalType": "address",
          "name": "account",
          "type": "address"
        },
        {
          "indexed": false,
          "internalType": "address",
          "name": "operator",
          "type": "address"
        }
      ],
      "name": "RoleRevoked",
      "type": "event"
    },
    {
      "anonymous": false,
      "inputs": [
        {
          "indexed": true,
          "internalType": "address",
          "name": "operator",
          "type": "address"
        },
        {
          "indexed": true,
          "internalType": "address",
          "name": "from",
          "type": "address"
        },
        {
          "indexed": true,
          "internalType": "address",
          "name": "to",
          "type": "address"
        },
        {
          "indexed": false,
          "internalType": "uint256[]",
          "name": "ids",
          "type": "uint256[]"
        },
        {
          "indexed": false,
          "internalType": "uint256[]",
          "name": "values",
          "type": "uint256[]"
        }
      ],
      "name": "TransferBatch",
      "type": "event"
    },
    {
      "anonymous": false,
      "inputs": [
        {
          "indexed": true,
          "internalType": "address",
          "name": "operator",
          "type": "address"
        },
        {
          "indexed": true,
          "internalType": "address",
          "name": "from",
          "type": "address"
        },
        {
          "indexed": true,
          "internalType": "address",
          "name": "to",
          "type": "address"
        },
        {
          "indexed": false,
          "internalType": "uint256",
          "name": "id",
          "type": "uint256"
        },
        {
          "indexed": false,
          "internalType": "uint256",
          "name": "value",
          "type": "uint256"
        }
      ],
      "name": "TransferSingle",
      "type": "event"
    },
    {
      "anonymous": false,
      "inputs": [
        {
          "indexed": false,
          "internalType": "string",
          "name": "value",
          "type": "string"
        },
        {
          "indexed": true,
          "internalType": "uint256",
          "name": "id",
          "type": "uint256"
        }
      ],
      "name": "URI",
      "type": "event"
    },
    {
      "inputs": [],
      "name": "MINTER_ROLE",
      "outputs": [
        {
          "internalType": "bytes32",
          "name": "",
          "type": "bytes32"
        }
      ],
      "stateMutability": "view",
      "type": "function"
    },
    {
      "inputs": [],
      "name": "__msgData",
      "outputs": [
        {
          "internalType": "bytes",
          "name": "",
          "type": "bytes"
        }
      ],
      "stateMutability": "view",
      "type": "function"
    },
    {
      "inputs": [
        {
          "internalType": "address",
          "name": "owner",
          "type": "address"
        },
        {
          "internalType": "uint256",
          "name": "id",
          "type": "uint256"
        }
      ],
      "name": "balanceOf",
      "outputs": [
        {
          "internalType": "uint256",
          "name": "balance",
          "type": "uint256"
        }
      ],
      "stateMutability": "view",
      "type": "function"
    },
    {
      "inputs": [
        {
          "internalType": "address[]",
          "name": "owners",
          "type": "address[]"
        },
        {
          "internalType": "uint256[]",
          "name": "ids",
          "type": "uint256[]"
        }
      ],
      "name": "balanceOfBatch",
      "outputs": [
        {
          "internalType": "uint256[]",
          "name": "balances",
          "type": "uint256[]"
        }
      ],
      "stateMutability": "view",
      "type": "function"
    },
    {
      "inputs": [],
      "name": "forwarderRegistry",
      "outputs": [
        {
          "internalType": "contract IForwarderRegistry",
          "name": "",
          "type": "address"
        }
      ],
      "stateMutability": "view",
      "type": "function"
    },
    {
      "inputs": [
        {
          "internalType": "bytes32",
          "name": "role",
          "type": "bytes32"
        },
        {
          "internalType": "address",
          "name": "account",
          "type": "address"
        }
      ],
      "name": "grantRole",
      "outputs": [],
      "stateMutability": "nonpayable",
      "type": "function"
    },
    {
      "inputs": [
        {
          "internalType": "bytes32",
          "name": "role",
          "type": "bytes32"
        },
        {
          "internalType": "address",
          "name": "account",
          "type": "address"
        }
      ],
      "name": "hasRole",
      "outputs": [
        {
          "internalType": "bool",
          "name": "hasRole_",
          "type": "bool"
        }
      ],
      "stateMutability": "view",
      "type": "function"
    },
    {
      "inputs": [],
      "name": "init",
      "outputs": [],
      "stateMutability": "nonpayable",
      "type": "function"
    },
    {
      "inputs": [
        {
          "internalType": "address",
          "name": "owner",
          "type": "address"
        },
        {
          "internalType": "address",
          "name": "operator",
          "type": "address"
        }
      ],
      "name": "isApprovedForAll",
      "outputs": [
        {
          "internalType": "bool",
          "name": "approvedForAll",
          "type": "bool"
        }
      ],
      "stateMutability": "view",
      "type": "function"
    },
    {
      "inputs": [
        {
          "internalType": "address",
          "name": "forwarder",
          "type": "address"
        }
      ],
      "name": "isTrustedForwarder",
      "outputs": [
        {
          "internalType": "bool",
          "name": "",
          "type": "bool"
        }
      ],
      "stateMutability": "view",
      "type": "function"
    },
    {
      "inputs": [],
      "name": "owner",
      "outputs": [
        {
          "internalType": "address",
          "name": "",
          "type": "address"
        }
      ],
      "stateMutability": "view",
      "type": "function"
    },
    {
      "inputs": [
        {
          "internalType": "bytes32",
          "name": "role",
          "type": "bytes32"
        }
      ],
      "name": "renounceRole",
      "outputs": [],
      "stateMutability": "nonpayable",
      "type": "function"
    },
    {
      "inputs": [
        {
          "internalType": "bytes32",
          "name": "role",
          "type": "bytes32"
        },
        {
          "internalType": "address",
          "name": "account",
          "type": "address"
        }
      ],
      "name": "revokeRole",
      "outputs": [],
      "stateMutability": "nonpayable",
      "type": "function"
    },
    {
      "inputs": [
        {
          "internalType": "address",
          "name": "to",
          "type": "address"
        },
        {
          "internalType": "uint256[]",
          "name": "ids",
          "type": "uint256[]"
        },
        {
          "internalType": "uint256[]",
          "name": "values",
          "type": "uint256[]"
        },
        {
          "internalType": "bytes",
          "name": "data",
          "type": "bytes"
        }
      ],
      "name": "safeBatchMint",
      "outputs": [],
      "stateMutability": "nonpayable",
      "type": "function"
    },
    {
      "inputs": [
        {
          "internalType": "address",
          "name": "from",
          "type": "address"
        },
        {
          "internalType": "address",
          "name": "to",
          "type": "address"
        },
        {
          "internalType": "uint256[]",
          "name": "ids",
          "type": "uint256[]"
        },
        {
          "internalType": "uint256[]",
          "name": "values",
          "type": "uint256[]"
        },
        {
          "internalType": "bytes",
          "name": "data",
          "type": "bytes"
        }
      ],
      "name": "safeBatchTransferFrom",
      "outputs": [],
      "stateMutability": "nonpayable",
      "type": "function"
    },
    {
      "inputs": [
        {
          "internalType": "address",
          "name": "to",
          "type": "address"
        },
        {
          "internalType": "uint256",
          "name": "id",
          "type": "uint256"
        },
        {
          "internalType": "uint256",
          "name": "value",
          "type": "uint256"
        },
        {
          "internalType": "bytes",
          "name": "data",
          "type": "bytes"
        }
      ],
      "name": "safeMint",
      "outputs": [],
      "stateMutability": "nonpayable",
      "type": "function"
    },
    {
      "inputs": [
        {
          "internalType": "address",
          "name": "from",
          "type": "address"
        },
        {
          "internalType": "address",
          "name": "to",
          "type": "address"
        },
        {
          "internalType": "uint256",
          "name": "id",
          "type": "uint256"
        },
        {
          "internalType": "uint256",
          "name": "value",
          "type": "uint256"
        },
        {
          "internalType": "bytes",
          "name": "data",
          "type": "bytes"
        }
      ],
      "name": "safeTransferFrom",
      "outputs": [],
      "stateMutability": "nonpayable",
      "type": "function"
    },
    {
      "inputs": [
        {
          "internalType": "address",
          "name": "operator",
          "type": "address"
        },
        {
          "internalType": "bool",
          "name": "approved",
          "type": "bool"
        }
      ],
      "name": "setApprovalForAll",
      "outputs": [],
      "stateMutability": "nonpayable",
      "type": "function"
    },
    {
      "inputs": [
        {
          "internalType": "bytes4",
          "name": "interfaceId",
          "type": "bytes4"
        }
      ],
      "name": "supportsInterface",
      "outputs": [
        {
          "internalType": "bool",
          "name": "",
          "type": "bool"
        }
      ],
      "stateMutability": "view",
      "type": "function"
    },
    {
      "inputs": [
        {
          "internalType": "address",
          "name": "newOwner",
          "type": "address"
        }
      ],
      "name": "transferOwnership",
      "outputs": [],
      "stateMutability": "nonpayable",
      "type": "function"
    }
  ],
  "bytecode": "0x60a060405234801562000010575f80fd5b50604051620029b6380380620029b6833981016040819052620000339162000045565b6001600160a01b031660805262000074565b5f6020828403121562000056575f80fd5b81516001600160a01b03811681146200006d575f80fd5b9392505050565b608051612906620000b05f395f81816101c6015281816102770152818161175e015281816117e601528181611c800152611cbe01526129065ff3fe608060405234801561000f575f80fd5b5060043610610162575f3560e01c80638bb9c5bf116100c7578063d547741f1161007d578063e985e9c511610063578063e985e9c51461034a578063f242432a1461035d578063f2fde38b14610370575f80fd5b8063d547741f1461032f578063e1c7392a14610342575f80fd5b806391d14854116100ad57806391d14854146102e2578063a22cb465146102f5578063d539139314610308575f80fd5b80638bb9c5bf146102c75780638da5cb5b146102da575f80fd5b80632f2ff15d1161011c5780634e1273f4116101025780634e1273f414610247578063572b6c05146102675780635cfa9297146102b4575f80fd5b80632f2ff15d1461021e57806331e66e1e14610231575f80fd5b80630d6a5bbb1161014c5780630d6a5bbb146101af5780632b4c9f16146101c45780632eb2c2d61461020b575f80fd5b8062fdd58e1461016657806301ffc9a71461018c575b5f80fd5b6101796101743660046120ff565b610383565b6040519081526020015b60405180910390f35b61019f61019a366004612154565b6103a1565b6040519015158152602001610183565b6101c26101bd3660046121fc565b6103b4565b005b7f00000000000000000000000000000000000000000000000000000000000000005b60405173ffffffffffffffffffffffffffffffffffffffff9091168152602001610183565b6101c261021936600461229f565b6104ab565b6101c261022c366004612352565b6104d4565b61023961050c565b60405161018392919061237c565b61025a6102553660046123c8565b61051e565b6040516101839190612468565b61019f61027536600461247a565b7f000000000000000000000000000000000000000000000000000000000000000073ffffffffffffffffffffffffffffffffffffffff90811691161490565b6101c26102c2366004612493565b610541565b6101c26102d53660046124f6565b6105d1565b6101e66105ef565b61019f6102f0366004612352565b61061a565b6101c261030336600461251a565b61065c565b6101797f6d696e746572000000000000000000000000000000000000000000000000000081565b6101c261033d366004612352565b61067d565b6101c26106aa565b61019f61035836600461254f565b6106d5565b6101c261036b366004612577565b610721565b6101c261037e36600461247a565b610746565b5f6103988383610391610761565b919061078e565b90505b92915050565b5f61039b826103ae610810565b9061083d565b5f6103bd610914565b90506103f37f6d696e7465720000000000000000000000000000000000000000000000000000826103ec61091d565b919061094a565b6104a181898989808060200260200160405190810160405280939291908181526020018383602002808284375f9201919091525050604080516020808d0282810182019093528c82529093508c92508b9182918501908490808284375f9201919091525050604080516020601f8c018190048102820181019092528a815292508a91508990819084018382808284375f920191909152506104979250610761915050565b94939291906109d4565b5050505050505050565b6104a16104b6610914565b89898989898989896104c6610761565b989796959493929190610b5f565b5f6104dd610914565b90506104f1816104eb610de3565b90610e10565b6105078383836104ff61091d565b929190610e7b565b505050565b365f610516610f50565b915091509091565b60606105388585858561052f610761565b93929190610f5a565b95945050505050565b5f61054a610914565b90506105797f6d696e7465720000000000000000000000000000000000000000000000000000826103ec61091d565b6105c98187878787878080601f0160208091040260200160405190810160405280939291908181526020018383808284375f920191909152506105bf9250610761915050565b9493929190611067565b505050505050565b6105ec6105dc610914565b826105e561091d565b9190611143565b50565b5f6106156105fb610de3565b5473ffffffffffffffffffffffffffffffffffffffff1690565b905090565b5f610398838361062861091d565b5f9283526020908152604080842073ffffffffffffffffffffffffffffffffffffffff909316845291905290205460ff1690565b610679610667610914565b8383610671610761565b9291906111e6565b5050565b5f610686610914565b9050610694816104eb610de3565b6105078383836106a261091d565b9291906112fd565b6106c36106b5610914565b6106bd610de3565b906113c5565b6106cb611404565b6106d3611439565b565b5f61039883836106e3610761565b919073ffffffffffffffffffffffffffffffffffffffff9182165f908152600193909301602090815260408085209290931684525290205460ff1690565b6105c961072c610914565b87878787878761073a610761565b96959493929190611467565b6105ec610751610914565b8261075a610de3565b9190611609565b5f8061039b60017f5ccf5846fa27a68fafc8e588671a68f5e67c2f9b56af4263806a4d71735e86136125ea565b5f73ffffffffffffffffffffffffffffffffffffffff83166107dc576040517fca2434a500000000000000000000000000000000000000000000000000000000815260040160405180910390fd5b505f9081526020928352604080822073ffffffffffffffffffffffffffffffffffffffff9390931682529190925290205490565b5f8061039b60017fca9d3e17f264b0f3984e2634e94adb37fa3e6a8103f06aeae6fa59e21c769f5e6125ea565b5f7c01000000000000000000000000000000000000000000000000000000007fffffffff0000000000000000000000000000000000000000000000000000000083160161088b57505f61039b565b7ffe003659000000000000000000000000000000000000000000000000000000007fffffffff000000000000000000000000000000000000000000000000000000008316016108dc5750600161039b565b507fffffffff00000000000000000000000000000000000000000000000000000000165f908152602091909152604090205460ff1690565b5f61061561171c565b5f8061039b60017fc8827d3282af6f37b64c3e9e6f3ac9df286ab0bb0fccd6f8661bf19adb368b236125ea565b5f8281526020848152604080832073ffffffffffffffffffffffffffffffffffffffff8516845290915290205460ff16610507576040517f7aa728820000000000000000000000000000000000000000000000000000000081526004810183905273ffffffffffffffffffffffffffffffffffffffff821660248201526044015b60405180910390fd5b73ffffffffffffffffffffffffffffffffffffffff8416610a21576040517f021149bd00000000000000000000000000000000000000000000000000000000815260040160405180910390fd5b825182518114610a5d576040517f6582533600000000000000000000000000000000000000000000000000000000815260040160405180910390fd5b5f5b818114610aac57610aa48887878481518110610a7d57610a7d612622565b6020026020010151878581518110610a9757610a97612622565b6020026020010151611860565b600101610a5f565b508473ffffffffffffffffffffffffffffffffffffffff165f73ffffffffffffffffffffffffffffffffffffffff168773ffffffffffffffffffffffffffffffffffffffff167f4a39dc06d4c0dbc64b70af90fd698a233a518aa5d07e595d983b8c0526c8f7fb8787604051610b2392919061264f565b60405180910390a473ffffffffffffffffffffffffffffffffffffffff85163b15610b5657610b56865f8787878761192f565b50505050505050565b73ffffffffffffffffffffffffffffffffffffffff8716610bac576040517fb5e8901500000000000000000000000000000000000000000000000000000000815260040160405180910390fd5b84838114610be6576040517f6582533600000000000000000000000000000000000000000000000000000000815260040160405180910390fd5b610bf18b8a8c611a2a565b610c47576040517f05bbb9c400000000000000000000000000000000000000000000000000000000815273ffffffffffffffffffffffffffffffffffffffff808c1660048301528a1660248201526044016109cb565b5f5b818114610c9557610c8d8c8b8b8b8b86818110610c6857610c68612622565b905060200201358a8a87818110610c8157610c81612622565b90506020020135611aa0565b600101610c49565b508773ffffffffffffffffffffffffffffffffffffffff168973ffffffffffffffffffffffffffffffffffffffff168b73ffffffffffffffffffffffffffffffffffffffff167f4a39dc06d4c0dbc64b70af90fd698a233a518aa5d07e595d983b8c0526c8f7fb8a8a8a8a604051610d1094939291906126bc565b60405180910390a473ffffffffffffffffffffffffffffffffffffffff88163b15610dd657610dd68a8a8a8a8a808060200260200160405190810160405280939291908181526020018383602002808284375f9201919091525050604080516020808e0282810182019093528d82529093508d92508c9182918501908490808284375f9201919091525050604080516020601f8d018190048102820181019092528b815292508b91508a90819084018382808284375f9201919091525061192f92505050565b5050505050505050505050565b5f8061039b60017fc9ed16f33ab3a66c84bfd83099ccb2a8845871e2e1c1928f63797152f0fd54cd6125ea565b815473ffffffffffffffffffffffffffffffffffffffff828116911614610679576040517f2ef4875e00000000000000000000000000000000000000000000000000000000815273ffffffffffffffffffffffffffffffffffffffff821660048201526024016109cb565b5f8381526020858152604080832073ffffffffffffffffffffffffffffffffffffffff8616845290915290205460ff16610f4a575f8381526020858152604080832073ffffffffffffffffffffffffffffffffffffffff8681168086529184529382902080547fffffffffffffffffffffffffffffffffffffffffffffffffffffffffffffff00166001179055815187815292830152918316918101919091527f2f8788117e7eff1d82e926ec794901d17c78024a50270940304540a733656f0d906060015b60405180910390a15b50505050565b365f610516611c4b565b606083828114610f96576040517f6582533600000000000000000000000000000000000000000000000000000000815260040160405180910390fd5b8467ffffffffffffffff811115610faf57610faf6126ed565b604051908082528060200260200182016040528015610fd8578160200160208202803683370190505b5091505f5b81811461105c57611037878783818110610ff957610ff9612622565b905060200201602081019061100e919061247a565b86868481811061102057611020612622565b905060200201358a61078e9092919063ffffffff16565b83828151811061104957611049612622565b6020908102919091010152600101610fdd565b505095945050505050565b73ffffffffffffffffffffffffffffffffffffffff84166110b4576040517f021149bd00000000000000000000000000000000000000000000000000000000815260040160405180910390fd5b6110c086858585611860565b604080518481526020810184905273ffffffffffffffffffffffffffffffffffffffff808716925f92918916917fc3d58168c5ae7397731d063d5bbf3d657854427343f4c083240f7aacaa2d0f62910160405180910390a473ffffffffffffffffffffffffffffffffffffffff84163b156105c9576105c9855f86868686611db0565b61114e83828461094a565b5f8181526020848152604080832073ffffffffffffffffffffffffffffffffffffffff86168085529083529281902080547fffffffffffffffffffffffffffffffffffffffffffffffffffffffffffffff0016905580518481529182018390528101919091527ff6391f5c32d9c69d2a47ea670b442974b53935d1edc7fd64eb21e047a839171b9060600160405180910390a1505050565b8273ffffffffffffffffffffffffffffffffffffffff168273ffffffffffffffffffffffffffffffffffffffff1603611263576040517ffb0fdf6100000000000000000000000000000000000000000000000000000000815273ffffffffffffffffffffffffffffffffffffffff841660048201526024016109cb565b73ffffffffffffffffffffffffffffffffffffffff8381165f81815260018701602090815260408083209487168084529482529182902080547fffffffffffffffffffffffffffffffffffffffffffffffffffffffffffffff001686151590811790915591519182527f17307eab39ab6107e8899845ad3d59bd9653f200f220920489ca2b5937696c31910160405180910390a350505050565b5f8381526020858152604080832073ffffffffffffffffffffffffffffffffffffffff8616845290915290205460ff1615610f4a575f8381526020858152604080832073ffffffffffffffffffffffffffffffffffffffff8681168086529184529382902080547fffffffffffffffffffffffffffffffffffffffffffffffffffffffffffffff00169055815187815292830152918316918101919091527ff6391f5c32d9c69d2a47ea670b442974b53935d1edc7fd64eb21e047a839171b90606001610f41565b6113fa6113f360017f5b388d90dc1312ba799f321972f13311234fa1163bcabec7cf66101c4876eb846125ea565b6001611ecb565b6106798282611f17565b6106d37fd9b67a26000000000000000000000000000000000000000000000000000000006001611432610810565b9190611fcc565b6106d37f5190c92c000000000000000000000000000000000000000000000000000000006001611432610810565b73ffffffffffffffffffffffffffffffffffffffff85166114b4576040517fb5e8901500000000000000000000000000000000000000000000000000000000815260040160405180910390fd5b6114bf888789611a2a565b611515576040517f05bbb9c400000000000000000000000000000000000000000000000000000000815273ffffffffffffffffffffffffffffffffffffffff8089166004830152871660248201526044016109cb565b6115228887878787611aa0565b8473ffffffffffffffffffffffffffffffffffffffff168673ffffffffffffffffffffffffffffffffffffffff168873ffffffffffffffffffffffffffffffffffffffff167fc3d58168c5ae7397731d063d5bbf3d657854427343f4c083240f7aacaa2d0f6287876040516115a1929190918252602082015260400190565b60405180910390a473ffffffffffffffffffffffffffffffffffffffff85163b156104a1576104a1878787878787878080601f0160208091040260200160405190810160405280939291908181526020018383808284375f92019190915250611db092505050565b825473ffffffffffffffffffffffffffffffffffffffff9081169083168114611676576040517f2ef4875e00000000000000000000000000000000000000000000000000000000815273ffffffffffffffffffffffffffffffffffffffff841660048201526024016109cb565b8173ffffffffffffffffffffffffffffffffffffffff168173ffffffffffffffffffffffffffffffffffffffff1614610f4a5783547fffffffffffffffffffffffff00000000000000000000000000000000000000001673ffffffffffffffffffffffffffffffffffffffff8381169182178655604051908316907f8be0079c531659141344cd1fd0a4f28419497f9722a3daafe3b4186f6b6457e0905f90a350505050565b5f3332148061172b5750601836105b1561173557503390565b7fffffffffffffffffffffffffffffffffffffffffffffffffffffffffffffffec36013560601c7f000000000000000000000000000000000000000000000000000000000000000073ffffffffffffffffffffffffffffffffffffffff1633148061184f57506040517f8929a8ca00000000000000000000000000000000000000000000000000000000815273ffffffffffffffffffffffffffffffffffffffff82811660048301523360248301527f00000000000000000000000000000000000000000000000000000000000000001690638929a8ca90604401602060405180830381865afa15801561182b573d5f803e3d5ffd5b505050506040513d601f19601f8201168201806040525081019061184f919061271a565b1561185957919050565b3391505090565b8015610f4a575f8281526020858152604080832073ffffffffffffffffffffffffffffffffffffffff871684529091529020548181018181116118fc576040517f42fb00bc00000000000000000000000000000000000000000000000000000000815273ffffffffffffffffffffffffffffffffffffffff861660048201526024810185905260448101839052606481018490526084016109cb565b5f9384526020958652604080852073ffffffffffffffffffffffffffffffffffffffff9690961685529490955250502055565b6040517fbc197c81000000000000000000000000000000000000000000000000000000008082529073ffffffffffffffffffffffffffffffffffffffff86169063bc197c819061198b908a908a90899089908990600401612796565b6020604051808303815f875af11580156119a7573d5f803e3d5ffd5b505050506040513d601f19601f820116820180604052508101906119cb9190612800565b7fffffffff0000000000000000000000000000000000000000000000000000000016146105c9578383836040517fc287817e0000000000000000000000000000000000000000000000000000000081526004016109cb9392919061281b565b5f8173ffffffffffffffffffffffffffffffffffffffff168373ffffffffffffffffffffffffffffffffffffffff161480611a98575073ffffffffffffffffffffffffffffffffffffffff8084165f90815260018601602090815260408083209386168352929052205460ff165b949350505050565b8015611c44575f8281526020868152604080832073ffffffffffffffffffffffffffffffffffffffff88168452909152902054818103818110611b3c576040517f03dee4c500000000000000000000000000000000000000000000000000000000815273ffffffffffffffffffffffffffffffffffffffff871660048201526024810185905260448101839052606481018490526084016109cb565b8473ffffffffffffffffffffffffffffffffffffffff168673ffffffffffffffffffffffffffffffffffffffff1614610b56575f8481526020888152604080832073ffffffffffffffffffffffffffffffffffffffff89168452909152902054838101818111611c05576040517f42fb00bc00000000000000000000000000000000000000000000000000000000815273ffffffffffffffffffffffffffffffffffffffff881660048201526024810187905260448101839052606481018690526084016109cb565b5f86815260208a8152604080832073ffffffffffffffffffffffffffffffffffffffff808d1685528184528285208890558b1684529091529020555050505b5050505050565b365f33321480611c5b5750601836105b15611c6857505f91369150565b3373ffffffffffffffffffffffffffffffffffffffff7f0000000000000000000000000000000000000000000000000000000000000000161480611d9b575073ffffffffffffffffffffffffffffffffffffffff7f000000000000000000000000000000000000000000000000000000000000000016638929a8ca367fffffffffffffffffffffffffffffffffffffffffffffffffffffffffffffffec013560601c6040517fffffffff0000000000000000000000000000000000000000000000000000000060e084901b16815273ffffffffffffffffffffffffffffffffffffffff9091166004820152336024820152604401602060405180830381865afa158015611d77573d5f803e3d5ffd5b505050506040513d601f19601f82011682018060405250810190611d9b919061271a565b15611da8576105166120a7565b505f91369150565b6040517ff23a6e61000000000000000000000000000000000000000000000000000000008082529073ffffffffffffffffffffffffffffffffffffffff86169063f23a6e6190611e0c908a908a90899089908990600401612865565b6020604051808303815f875af1158015611e28573d5f803e3d5ffd5b505050506040513d601f19601f82011682018060405250810190611e4c9190612800565b7fffffffff0000000000000000000000000000000000000000000000000000000016146105c9576040517f40f39d3800000000000000000000000000000000000000000000000000000000815273ffffffffffffffffffffffffffffffffffffffff8516600482015260248101849052604481018390526064016109cb565b81548290828110611f12576040517fbf0c18ec00000000000000000000000000000000000000000000000000000000815260048101829052602481018490526044016109cb565b505550565b73ffffffffffffffffffffffffffffffffffffffff811615611f9e5781547fffffffffffffffffffffffff00000000000000000000000000000000000000001673ffffffffffffffffffffffffffffffffffffffff821690811783556040515f907f8be0079c531659141344cd1fd0a4f28419497f9722a3daafe3b4186f6b6457e0908290a35b6106797f7f5828d0000000000000000000000000000000000000000000000000000000006001611432610810565b7c01000000000000000000000000000000000000000000000000000000007fffffffff00000000000000000000000000000000000000000000000000000000831601612044576040517f72c683bb00000000000000000000000000000000000000000000000000000000815260040160405180910390fd5b7fffffffff00000000000000000000000000000000000000000000000000000000919091165f908152602092909252604090912080547fffffffffffffffffffffffffffffffffffffffffffffffffffffffffffffff0016911515919091179055565b365f6105167fffffffffffffffffffffffffffffffffffffffffffffffffffffffffffffffec83018284816128a9565b803573ffffffffffffffffffffffffffffffffffffffff811681146120fa575f80fd5b919050565b5f8060408385031215612110575f80fd5b612119836120d7565b946020939093013593505050565b7fffffffff00000000000000000000000000000000000000000000000000000000811681146105ec575f80fd5b5f60208284031215612164575f80fd5b813561216f81612127565b9392505050565b5f8083601f840112612186575f80fd5b50813567ffffffffffffffff81111561219d575f80fd5b6020830191508360208260051b85010111156121b7575f80fd5b9250929050565b5f8083601f8401126121ce575f80fd5b50813567ffffffffffffffff8111156121e5575f80fd5b6020830191508360208285010111156121b7575f80fd5b5f805f805f805f6080888a031215612212575f80fd5b61221b886120d7565b9650602088013567ffffffffffffffff80821115612237575f80fd5b6122438b838c01612176565b909850965060408a013591508082111561225b575f80fd5b6122678b838c01612176565b909650945060608a013591508082111561227f575f80fd5b5061228c8a828b016121be565b989b979a50959850939692959293505050565b5f805f805f805f8060a0898b0312156122b6575f80fd5b6122bf896120d7565b97506122cd60208a016120d7565b9650604089013567ffffffffffffffff808211156122e9575f80fd5b6122f58c838d01612176565b909850965060608b013591508082111561230d575f80fd5b6123198c838d01612176565b909650945060808b0135915080821115612331575f80fd5b5061233e8b828c016121be565b999c989b5096995094979396929594505050565b5f8060408385031215612363575f80fd5b82359150612373602084016120d7565b90509250929050565b60208152816020820152818360408301375f818301604090810191909152601f9092017fffffffffffffffffffffffffffffffffffffffffffffffffffffffffffffffe0160101919050565b5f805f80604085870312156123db575f80fd5b843567ffffffffffffffff808211156123f2575f80fd5b6123fe88838901612176565b90965094506020870135915080821115612416575f80fd5b5061242387828801612176565b95989497509550505050565b5f8151808452602080850194508084015f5b8381101561245d57815187529582019590820190600101612441565b509495945050505050565b602081525f610398602083018461242f565b5f6020828403121561248a575f80fd5b610398826120d7565b5f805f805f608086880312156124a7575f80fd5b6124b0866120d7565b94506020860135935060408601359250606086013567ffffffffffffffff8111156124d9575f80fd5b6124e5888289016121be565b969995985093965092949392505050565b5f60208284031215612506575f80fd5b5035919050565b80151581146105ec575f80fd5b5f806040838503121561252b575f80fd5b612534836120d7565b915060208301356125448161250d565b809150509250929050565b5f8060408385031215612560575f80fd5b612569836120d7565b9150612373602084016120d7565b5f805f805f8060a0878903121561258c575f80fd5b612595876120d7565b95506125a3602088016120d7565b94506040870135935060608701359250608087013567ffffffffffffffff8111156125cc575f80fd5b6125d889828a016121be565b979a9699509497509295939492505050565b8181038181111561039b577f4e487b71000000000000000000000000000000000000000000000000000000005f52601160045260245ffd5b7f4e487b71000000000000000000000000000000000000000000000000000000005f52603260045260245ffd5b604081525f612661604083018561242f565b8281036020840152610538818561242f565b8183525f7f07ffffffffffffffffffffffffffffffffffffffffffffffffffffffffffffff8311156126a3575f80fd5b8260051b80836020870137939093016020019392505050565b604081525f6126cf604083018688612673565b82810360208401526126e2818587612673565b979650505050505050565b7f4e487b71000000000000000000000000000000000000000000000000000000005f52604160045260245ffd5b5f6020828403121561272a575f80fd5b815161216f8161250d565b5f81518084525f5b818110156127595760208185018101518683018201520161273d565b505f6020828601015260207fffffffffffffffffffffffffffffffffffffffffffffffffffffffffffffffe0601f83011685010191505092915050565b5f73ffffffffffffffffffffffffffffffffffffffff808816835280871660208401525060a060408301526127ce60a083018661242f565b82810360608401526127e0818661242f565b905082810360808401526127f48185612735565b98975050505050505050565b5f60208284031215612810575f80fd5b815161216f81612127565b73ffffffffffffffffffffffffffffffffffffffff84168152606060208201525f612849606083018561242f565b828103604084015261285b818561242f565b9695505050505050565b5f73ffffffffffffffffffffffffffffffffffffffff808816835280871660208401525084604083015283606083015260a060808301526126e260a0830184612735565b5f80858511156128b7575f80fd5b838611156128c3575f80fd5b505082019391909203915056fea2646970667358221220c67bd1d1082da1d0e50d4636adde6732bc3bf8b008098bf1178ff5a17d6cbf9164736f6c63430008150033",
  "linkReferences": {},
  "deployedLinkReferences": {}
}