{
  "_format": "hh-sol-artifact-1",
  "contractName": "ERC721BurnableFacet",
  "sourceName": "contracts/token/ERC721/ERC721BurnableFacet.sol",
  "abi": [
    {
      "inputs": [
        {
          "internalType": "contract IForwarderRegistry",
          "name": "forwarderRegistry",
          "type": "address"
        }
      ],
      "stateMutability": "nonpayable",
      "type": "constructor"
    },
    {
      "inputs": [
        {
          "internalType": "address",
          "name": "from",
          "type": "address"
        },
        {
          "internalType": "uint256[]",
          "name": "tokenIds",
          "type": "uint256[]"
        }
      ],
      "name": "batchBurnFrom",
      "outputs": [],
      "stateMutability": "nonpayable",
      "type": "function"
    },
    {
      "inputs": [
        {
          "internalType": "address",
          "name": "from",
          "type": "address"
        },
        {
          "internalType": "uint256",
          "name": "tokenId",
          "type": "uint256"
        }
      ],
      "name": "burnFrom",
      "outputs": [],
      "stateMutability": "nonpayable",
      "type": "function"
    },
    {
      "inputs": [],
      "name": "initERC721BurnableStorage",
      "outputs": [],
      "stateMutability": "nonpayable",
      "type": "function"
    }
  ],
  "bytecode": "0x60a060405234801561001057600080fd5b50604051610b42380380610b4283398101604081905261002f91610040565b6001600160a01b0316608052610070565b60006020828403121561005257600080fd5b81516001600160a01b038116811461006957600080fd5b9392505050565b608051610ab0610092600039600081816104ac015261054c0152610ab06000f3fe608060405234801561001057600080fd5b50600436106100415760003560e01c806379cc679014610046578063de8158111461005b578063f247296514610063575b600080fd5b610059610054366004610827565b610076565b005b610059610097565b610059610071366004610880565b6100e7565b610093610081610104565b838361008b610113565b929190610147565b5050565b6100b06100a2610104565b6100aa6101b1565b906101df565b6100e57f8b8b4ef50000000000000000000000000000000000000000000000000000000060016100de610267565b9190610295565b565b6100936100f2610104565b83836100fc610113565b929190610385565b600061010e610470565b905090565b60008061014160017fddf3ee18ae6d688373c219468f8be446e7ae82215f4779d821c7ea5e8c13c0c161099e565b92915050565b60006101548584866105c8565b90506101658585858585600061063c565b604051829060009073ffffffffffffffffffffffffffffffffffffffff8616907fddf252ad1be2c89b69c2b068fc378daa952ba7f163c4a11628f55a4df523b3ef908390a45050505050565b60008061014160017fb53127684a568b3173ae13b9f8a6016e243e63b6e8ee1178d6a717850b5d610461099e565b815473ffffffffffffffffffffffffffffffffffffffff828116911614610093576040517f08c379a000000000000000000000000000000000000000000000000000000000815260206004820152601960248201527f50726f787941646d696e3a206e6f74207468652061646d696e0000000000000060448201526064015b60405180910390fd5b60008061014160017f7180ffa89c91cf90d6c56dacabfc69bc5e36f3099d7eed2f5cc12c5dba016fe061099e565b7fffffffff000000000000000000000000000000000000000000000000000000008083169003610321576040517f08c379a000000000000000000000000000000000000000000000000000000000815260206004820152601f60248201527f496e74657266616365446574656374696f6e3a2077726f6e672076616c756500604482015260640161025e565b7fffffffff00000000000000000000000000000000000000000000000000000000919091166000908152602092909252604090912080547fffffffffffffffffffffffffffffffffffffffffffffffffffffffffffffff0016911515919091179055565b60006103928584866105c8565b825190915060005b8181146104245760008482815181106103b5576103b56109b5565b602002602001015190506103ce8888888488600161063c565b604051819060009073ffffffffffffffffffffffffffffffffffffffff8916907fddf252ad1be2c89b69c2b068fc378daa952ba7f163c4a11628f55a4df523b3ef908390a45061041d816109e4565b905061039a565b5080156104685773ffffffffffffffffffffffffffffffffffffffff841660009081526002870160205260408120805483929061046290849061099e565b90915550505b505050505050565b60003332810361047f57919050565b6000367fffffffffffffffffffffffffffffffffffffffffffffffffffffffffffffffec013560601c90507f000000000000000000000000000000000000000000000000000000000000000073ffffffffffffffffffffffffffffffffffffffff168273ffffffffffffffffffffffffffffffffffffffff1614806105b757506040517fe60125d600000000000000000000000000000000000000000000000000000000815273ffffffffffffffffffffffffffffffffffffffff828116600483015283811660248301527f0000000000000000000000000000000000000000000000000000000000000000169063e60125d690604401602060405180830381865afa158015610593573d6000803e3d6000fd5b505050506040513d601f19601f820116820180604052508101906105b79190610a1c565b156105c25792915050565b50919050565b60008173ffffffffffffffffffffffffffffffffffffffff168373ffffffffffffffffffffffffffffffffffffffff161480610634575073ffffffffffffffffffffffffffffffffffffffff8084166000908152602086815260408083209386168352929052205460ff165b949350505050565b600083815260018701602052604090205473ffffffffffffffffffffffffffffffffffffffff858116908216146106cf576040517f08c379a000000000000000000000000000000000000000000000000000000000815260206004820152601560248201527f4552433732313a206e6f6e2d6f776e6564204e46540000000000000000000000604482015260640161025e565b8261078857740100000000000000000000000000000000000000008116158015906107225750600084815260038801602052604090205473ffffffffffffffffffffffffffffffffffffffff8781169116145b610788576040517f08c379a000000000000000000000000000000000000000000000000000000000815260206004820152601b60248201527f4552433732313a206e6f6e2d617070726f7665642073656e6465720000000000604482015260640161025e565b600084815260018801602052604090207fdead0000000000000000000000000000000000000000000000000000000000009055816107f55773ffffffffffffffffffffffffffffffffffffffff851660009081526002880160205260408120805490919061046290610a45565b50505050505050565b803573ffffffffffffffffffffffffffffffffffffffff8116811461082257600080fd5b919050565b6000806040838503121561083a57600080fd5b610843836107fe565b946020939093013593505050565b7f4e487b7100000000000000000000000000000000000000000000000000000000600052604160045260246000fd5b6000806040838503121561089357600080fd5b61089c836107fe565b915060208084013567ffffffffffffffff808211156108ba57600080fd5b818601915086601f8301126108ce57600080fd5b8135818111156108e0576108e0610851565b8060051b6040517fffffffffffffffffffffffffffffffffffffffffffffffffffffffffffffffe0603f8301168101818110858211171561092357610923610851565b60405291825284820192508381018501918983111561094157600080fd5b938501935b8285101561095f57843584529385019392850192610946565b8096505050505050509250929050565b7f4e487b7100000000000000000000000000000000000000000000000000000000600052601160045260246000fd5b6000828210156109b0576109b061096f565b500390565b7f4e487b7100000000000000000000000000000000000000000000000000000000600052603260045260246000fd5b60007fffffffffffffffffffffffffffffffffffffffffffffffffffffffffffffffff8203610a1557610a1561096f565b5060010190565b600060208284031215610a2e57600080fd5b81518015158114610a3e57600080fd5b9392505050565b600081610a5457610a5461096f565b507fffffffffffffffffffffffffffffffffffffffffffffffffffffffffffffffff019056fea264697066735822122001a13efbe1f3b4bdbf603912339eeeef1bf93b62e4b95c67559fc925d677e06264736f6c634300080d0033",
  "linkReferences": {},
  "deployedLinkReferences": {}
}