{
  "_format": "hh-sol-artifact-1",
  "contractName": "ERC721MintableOnceMock",
  "sourceName": "contracts/mocks/token/ERC721/ERC721MintableOnceMock.sol",
  "abi": [
    {
      "inputs": [
        {
          "internalType": "string",
          "name": "name_",
          "type": "string"
        },
        {
          "internalType": "string",
          "name": "symbol_",
          "type": "string"
        },
        {
          "internalType": "string",
          "name": "tokenURI_",
          "type": "string"
        }
      ],
      "stateMutability": "nonpayable",
      "type": "constructor"
    },
    {
      "anonymous": false,
      "inputs": [
        {
          "indexed": true,
          "internalType": "address",
          "name": "owner",
          "type": "address"
        },
        {
          "indexed": true,
          "internalType": "address",
          "name": "approved",
          "type": "address"
        },
        {
          "indexed": true,
          "internalType": "uint256",
          "name": "tokenId",
          "type": "uint256"
        }
      ],
      "name": "Approval",
      "type": "event"
    },
    {
      "anonymous": false,
      "inputs": [
        {
          "indexed": true,
          "internalType": "address",
          "name": "owner",
          "type": "address"
        },
        {
          "indexed": true,
          "internalType": "address",
          "name": "operator",
          "type": "address"
        },
        {
          "indexed": false,
          "internalType": "bool",
          "name": "approved",
          "type": "bool"
        }
      ],
      "name": "ApprovalForAll",
      "type": "event"
    },
    {
      "anonymous": false,
      "inputs": [
        {
          "indexed": true,
          "internalType": "address",
          "name": "previousOwner",
          "type": "address"
        },
        {
          "indexed": true,
          "internalType": "address",
          "name": "newOwner",
          "type": "address"
        }
      ],
      "name": "OwnershipTransferred",
      "type": "event"
    },
    {
      "anonymous": false,
      "inputs": [
        {
          "indexed": false,
          "internalType": "bytes32",
          "name": "role",
          "type": "bytes32"
        },
        {
          "indexed": false,
          "internalType": "address",
          "name": "account",
          "type": "address"
        },
        {
          "indexed": false,
          "internalType": "address",
          "name": "operator",
          "type": "address"
        }
      ],
      "name": "RoleGranted",
      "type": "event"
    },
    {
      "anonymous": false,
      "inputs": [
        {
          "indexed": false,
          "internalType": "bytes32",
          "name": "role",
          "type": "bytes32"
        },
        {
          "indexed": false,
          "internalType": "address",
          "name": "account",
          "type": "address"
        },
        {
          "indexed": false,
          "internalType": "address",
          "name": "operator",
          "type": "address"
        }
      ],
      "name": "RoleRevoked",
      "type": "event"
    },
    {
      "anonymous": false,
      "inputs": [
        {
          "indexed": true,
          "internalType": "address",
          "name": "from",
          "type": "address"
        },
        {
          "indexed": true,
          "internalType": "address",
          "name": "to",
          "type": "address"
        },
        {
          "indexed": true,
          "internalType": "uint256",
          "name": "tokenId",
          "type": "uint256"
        }
      ],
      "name": "Transfer",
      "type": "event"
    },
    {
      "inputs": [],
      "name": "MINTER_ROLE",
      "outputs": [
        {
          "internalType": "bytes32",
          "name": "",
          "type": "bytes32"
        }
      ],
      "stateMutability": "view",
      "type": "function"
    },
    {
      "inputs": [
        {
          "internalType": "address",
          "name": "to",
          "type": "address"
        },
        {
          "internalType": "uint256",
          "name": "tokenId",
          "type": "uint256"
        }
      ],
      "name": "approve",
      "outputs": [],
      "stateMutability": "nonpayable",
      "type": "function"
    },
    {
      "inputs": [
        {
          "internalType": "address",
          "name": "owner",
          "type": "address"
        }
      ],
      "name": "balanceOf",
      "outputs": [
        {
          "internalType": "uint256",
          "name": "",
          "type": "uint256"
        }
      ],
      "stateMutability": "view",
      "type": "function"
    },
    {
      "inputs": [
        {
          "internalType": "address",
          "name": "from",
          "type": "address"
        },
        {
          "internalType": "uint256[]",
          "name": "tokenIds",
          "type": "uint256[]"
        }
      ],
      "name": "batchBurnFrom",
      "outputs": [],
      "stateMutability": "nonpayable",
      "type": "function"
    },
    {
      "inputs": [
        {
          "internalType": "address",
          "name": "to",
          "type": "address"
        },
        {
          "internalType": "uint256[]",
          "name": "tokenIds",
          "type": "uint256[]"
        }
      ],
      "name": "batchMint",
      "outputs": [],
      "stateMutability": "nonpayable",
      "type": "function"
    },
    {
      "inputs": [
        {
          "internalType": "address",
          "name": "from",
          "type": "address"
        },
        {
          "internalType": "uint256",
          "name": "tokenId",
          "type": "uint256"
        }
      ],
      "name": "burnFrom",
      "outputs": [],
      "stateMutability": "nonpayable",
      "type": "function"
    },
    {
      "inputs": [
        {
          "internalType": "uint256",
          "name": "tokenId",
          "type": "uint256"
        }
      ],
      "name": "getApproved",
      "outputs": [
        {
          "internalType": "address",
          "name": "operator",
          "type": "address"
        }
      ],
      "stateMutability": "view",
      "type": "function"
    },
    {
      "inputs": [
        {
          "internalType": "bytes32",
          "name": "role",
          "type": "bytes32"
        },
        {
          "internalType": "address",
          "name": "account",
          "type": "address"
        }
      ],
      "name": "grantRole",
      "outputs": [],
      "stateMutability": "nonpayable",
      "type": "function"
    },
    {
      "inputs": [
        {
          "internalType": "bytes32",
          "name": "role",
          "type": "bytes32"
        },
        {
          "internalType": "address",
          "name": "account",
          "type": "address"
        }
      ],
      "name": "hasRole",
      "outputs": [
        {
          "internalType": "bool",
          "name": "",
          "type": "bool"
        }
      ],
      "stateMutability": "view",
      "type": "function"
    },
    {
      "inputs": [
        {
          "internalType": "address",
          "name": "owner",
          "type": "address"
        },
        {
          "internalType": "address",
          "name": "operator",
          "type": "address"
        }
      ],
      "name": "isApprovedForAll",
      "outputs": [
        {
          "internalType": "bool",
          "name": "",
          "type": "bool"
        }
      ],
      "stateMutability": "view",
      "type": "function"
    },
    {
      "inputs": [
        {
          "internalType": "address",
          "name": "to",
          "type": "address"
        },
        {
          "internalType": "uint256",
          "name": "tokenId",
          "type": "uint256"
        }
      ],
      "name": "mint",
      "outputs": [],
      "stateMutability": "nonpayable",
      "type": "function"
    },
    {
      "inputs": [],
      "name": "owner",
      "outputs": [
        {
          "internalType": "address",
          "name": "",
          "type": "address"
        }
      ],
      "stateMutability": "view",
      "type": "function"
    },
    {
      "inputs": [
        {
          "internalType": "uint256",
          "name": "tokenId",
          "type": "uint256"
        }
      ],
      "name": "ownerOf",
      "outputs": [
        {
          "internalType": "address",
          "name": "",
          "type": "address"
        }
      ],
      "stateMutability": "view",
      "type": "function"
    },
    {
      "inputs": [
        {
          "internalType": "bytes32",
          "name": "role",
          "type": "bytes32"
        }
      ],
      "name": "renounceRole",
      "outputs": [],
      "stateMutability": "nonpayable",
      "type": "function"
    },
    {
      "inputs": [
        {
          "internalType": "bytes32",
          "name": "role",
          "type": "bytes32"
        },
        {
          "internalType": "address",
          "name": "account",
          "type": "address"
        }
      ],
      "name": "revokeRole",
      "outputs": [],
      "stateMutability": "nonpayable",
      "type": "function"
    },
    {
      "inputs": [
        {
          "internalType": "address",
          "name": "to",
          "type": "address"
        },
        {
          "internalType": "uint256",
          "name": "tokenId",
          "type": "uint256"
        },
        {
          "internalType": "bytes",
          "name": "data",
          "type": "bytes"
        }
      ],
      "name": "safeMint",
      "outputs": [],
      "stateMutability": "nonpayable",
      "type": "function"
    },
    {
      "inputs": [
        {
          "internalType": "address",
          "name": "from",
          "type": "address"
        },
        {
          "internalType": "address",
          "name": "to",
          "type": "address"
        },
        {
          "internalType": "uint256",
          "name": "tokenId",
          "type": "uint256"
        }
      ],
      "name": "safeTransferFrom",
      "outputs": [],
      "stateMutability": "nonpayable",
      "type": "function"
    },
    {
      "inputs": [
        {
          "internalType": "address",
          "name": "from",
          "type": "address"
        },
        {
          "internalType": "address",
          "name": "to",
          "type": "address"
        },
        {
          "internalType": "uint256",
          "name": "tokenId",
          "type": "uint256"
        },
        {
          "internalType": "bytes",
          "name": "_data",
          "type": "bytes"
        }
      ],
      "name": "safeTransferFrom",
      "outputs": [],
      "stateMutability": "nonpayable",
      "type": "function"
    },
    {
      "inputs": [
        {
          "internalType": "address",
          "name": "operator",
          "type": "address"
        },
        {
          "internalType": "bool",
          "name": "_approved",
          "type": "bool"
        }
      ],
      "name": "setApprovalForAll",
      "outputs": [],
      "stateMutability": "nonpayable",
      "type": "function"
    },
    {
      "inputs": [
        {
          "internalType": "bytes4",
          "name": "interfaceId",
          "type": "bytes4"
        }
      ],
      "name": "supportsInterface",
      "outputs": [
        {
          "internalType": "bool",
          "name": "",
          "type": "bool"
        }
      ],
      "stateMutability": "view",
      "type": "function"
    },
    {
      "inputs": [
        {
          "internalType": "address",
          "name": "from",
          "type": "address"
        },
        {
          "internalType": "address",
          "name": "to",
          "type": "address"
        },
        {
          "internalType": "uint256",
          "name": "tokenId",
          "type": "uint256"
        }
      ],
      "name": "transferFrom",
      "outputs": [],
      "stateMutability": "nonpayable",
      "type": "function"
    },
    {
      "inputs": [
        {
          "internalType": "address",
          "name": "newOwner",
          "type": "address"
        }
      ],
      "name": "transferOwnership",
      "outputs": [],
      "stateMutability": "nonpayable",
      "type": "function"
    }
  ],
  "bytecode": "0x60806040523480156200001157600080fd5b506040516200303e3803806200303e8339810160408190526200003491620004f4565b336200005f6200004e6200011c60201b620008891760201c565b6200015260201b620008b71760201c565b6200008962000078620001bf60201b620009211760201c565b620001ef60201b6200094f1760201c565b620000b781620000a36200024460201b620009a91760201c565b6200027460201b620009d71790919060201c565b50620000f0638e773e1360e01b6001620000db620001bf60201b620009211760201c565b6200032360201b62000abb179092919060201c565b62000113638b8b4ef560e01b6001620000db620001bf60201b620009211760201c565b505050620005ab565b6000806200014c60017fddf3ee18ae6d688373c219468f8be446e7ae82215f4779d821c7ea5e8c13c0c162000585565b92915050565b620001996200018360017ffddcdbf8ca7eb362a678daf3643ce3cf98ebf69ac314d25d376d5aeabd2f533262000585565b60001b6001620003b160201b62000bab1760201c565b620001bc6380ac58cd60e01b6001620000db620001bf60201b620009211760201c565b50565b6000806200014c60017f7180ffa89c91cf90d6c56dacabfc69bc5e36f3099d7eed2f5cc12c5dba016fe062000585565b620002206200018360017f947245cdabe12ef4c13574b38217b361de48f57dd2dc345f43703c79bac2873d62000585565b620001bc6301ffc9a760e01b6001836200032360201b62000abb179092919060201c565b6000806200014c60017f6a1da6973104ff7dedb9b4f5cab5830b3f4a0284ed754366cfc45568bd2d38df62000585565b620002a56200018360017ff1e2f4de496ffe5d046d751d8ec3c329ee011c6c6a229322971a7e02a207f97362000585565b6001600160a01b03811615620002fc5781546001600160a01b0319166001600160a01b03821690811783556040516000907f8be0079c531659141344cd1fd0a4f28419497f9722a3daafe3b4186f6b6457e0908290a35b6200031f6307f5828d60e41b6001620000db620001bf60201b620009211760201c565b5050565b6001600160e01b03198083169003620003835760405162461bcd60e51b815260206004820152601f60248201527f496e74657266616365446574656374696f6e3a2077726f6e672076616c75650060448201526064015b60405180910390fd5b6001600160e01b03199190911660009081526020929092526040909120805460ff1916911515919091179055565b6000620003c9836200042460201b62000c1b1760201c565b905081816000015410620004205760405162461bcd60e51b815260206004820152601860248201527f53746f726167653a2076657273696f6e2072656163686564000000000000000060448201526064016200037a565b5550565b90565b634e487b7160e01b600052604160045260246000fd5b600082601f8301126200044f57600080fd5b81516001600160401b03808211156200046c576200046c62000427565b604051601f8301601f19908116603f0116810190828211818310171562000497576200049762000427565b81604052838152602092508683858801011115620004b457600080fd5b600091505b83821015620004d85785820183015181830184015290820190620004b9565b83821115620004ea5760008385830101525b9695505050505050565b6000806000606084860312156200050a57600080fd5b83516001600160401b03808211156200052257600080fd5b62000530878388016200043d565b945060208601519150808211156200054757600080fd5b62000555878388016200043d565b935060408601519150808211156200056c57600080fd5b506200057b868287016200043d565b9150509250925092565b600082821015620005a657634e487b7160e01b600052601160045260246000fd5b500390565b612a8380620005bb6000396000f3fe608060405234801561001057600080fd5b50600436106101825760003560e01c80638832e6e3116100d8578063b88d4fde1161008c578063e985e9c511610066578063e985e9c514610343578063f247296514610356578063f2fde38b1461036957600080fd5b8063b88d4fde146102f6578063d539139314610309578063d547741f1461033057600080fd5b80638da5cb5b116100bd5780638da5cb5b146102c857806391d14854146102d0578063a22cb465146102e357600080fd5b80638832e6e3146102a25780638bb9c5bf146102b557600080fd5b806340c10f191161013a5780636352211e116101145780636352211e1461025b57806370a082311461026e57806379cc67901461028f57600080fd5b806340c10f191461022257806342842e0e146102355780634684d7e91461024857600080fd5b8063095ea7b31161016b578063095ea7b3146101e757806323b872dd146101fc5780632f2ff15d1461020f57600080fd5b806301ffc9a714610187578063081812fc146101af575b600080fd5b61019a610195366004612450565b61037c565b60405190151581526020015b60405180910390f35b6101c26101bd36600461246d565b6103c9565b60405173ffffffffffffffffffffffffffffffffffffffff90911681526020016101a6565b6101fa6101f53660046124af565b6103dd565b005b6101fa61020a3660046124d9565b6103f7565b6101fa61021d366004612515565b610414565b6101fa6102303660046124af565b61043d565b6101fa6102433660046124d9565b61049c565b6101fa610256366004612541565b6104b4565b6101c261026936600461246d565b610526565b61028161027c3660046125c7565b6105c8565b6040519081526020016101a6565b6101fa61029d3660046124af565b61067e565b6101fa6102b03660046125e2565b610694565b6101fa6102c336600461246d565b61070d565b6101c2610724565b61019a6102de366004612515565b61074a565b6101fa6102f1366004612669565b610795565b6101fa6103043660046126d4565b6107ab565b6102817f6d696e746572000000000000000000000000000000000000000000000000000081565b6101fa61033e366004612515565b6107c5565b61019a6103513660046127ce565b6107e8565b6101fa610364366004612541565b61082b565b6101fa6103773660046125c7565b610875565b60006103c38261038a610921565b907fffffffff00000000000000000000000000000000000000000000000000000000166000908152602091909152604090205460ff1690565b92915050565b60006103c3826103d7610889565b90610c1e565b6103f33383836103eb610889565b929190610d01565b5050565b61040f33848484610406610889565b93929190610fbd565b505050565b33610427816104216109a9565b90610fe3565b61040f838383610435611066565b929190611094565b6104727f6d696e7465720000000000000000000000000000000000000000000000000000335b61046b611066565b919061116a565b6103f3338383604051806020016040528060008152506000610492610889565b9493929190611216565b61040f338484846104ab610889565b939291906113bf565b6104de7f6d696e746572000000000000000000000000000000000000000000000000000033610463565b61040f8383838080602002602001604051908101604052809392919081815260200183836020028082843760009201919091525061051f9250610889915050565b91906113de565b600080610531610889565b60008481526001919091016020526040902054905073ffffffffffffffffffffffffffffffffffffffff81166103c3576040517f08c379a000000000000000000000000000000000000000000000000000000000815260206004820152601860248201527f4552433732313a206e6f6e2d6578697374696e67204e4654000000000000000060448201526064015b60405180910390fd5b600073ffffffffffffffffffffffffffffffffffffffff8216610647576040517f08c379a000000000000000000000000000000000000000000000000000000000815260206004820152601460248201527f4552433732313a207a65726f206164647265737300000000000000000000000060448201526064016105bf565b61064f610889565b73ffffffffffffffffffffffffffffffffffffffff909216600090815260029290920160205250604090205490565b6103f333838361068c610889565b9291906115d0565b6106be7f6d696e746572000000000000000000000000000000000000000000000000000033610463565b61070733858585858080601f0160208091040260200160405190810160405280939291908181526020018383808284376000920191909152506001925061049291506108899050565b50505050565b610721338261071a611066565b919061163a565b50565b600061072e6109a9565b5473ffffffffffffffffffffffffffffffffffffffff16919050565b600061078e8383610759611066565b60009283526020908152604080842073ffffffffffffffffffffffffffffffffffffffff909316845291905290205460ff1690565b9392505050565b6103f33383836107a3610889565b9291906116de565b61070733858585856107bb610889565b949392919061180a565b336107d2816104216109a9565b61040f8383836107e0611066565b929190611822565b60006107f2610889565b73ffffffffffffffffffffffffffffffffffffffff93841660009081526020918252604080822094909516815292905250205460ff1690565b61040f338484848080602002602001604051908101604052809392919081815260200183836020028082843760009201919091525061086d9250610889915050565b9291906118ec565b61072133826108826109a9565b91906119d6565b6000806103c360017fddf3ee18ae6d688373c219468f8be446e7ae82215f4779d821c7ea5e8c13c0c1612827565b6108ec6108e560017ffddcdbf8ca7eb362a678daf3643ce3cf98ebf69ac314d25d376d5aeabd2f5332612827565b6001610bab565b6107217f80ac58cd00000000000000000000000000000000000000000000000000000000600161091a610921565b9190610abb565b6000806103c360017f7180ffa89c91cf90d6c56dacabfc69bc5e36f3099d7eed2f5cc12c5dba016fe0612827565b61097d6108e560017f947245cdabe12ef4c13574b38217b361de48f57dd2dc345f43703c79bac2873d612827565b610721817f01ffc9a7000000000000000000000000000000000000000000000000000000006001610abb565b6000806103c360017f6a1da6973104ff7dedb9b4f5cab5830b3f4a0284ed754366cfc45568bd2d38df612827565b610a056108e560017ff1e2f4de496ffe5d046d751d8ec3c329ee011c6c6a229322971a7e02a207f973612827565b73ffffffffffffffffffffffffffffffffffffffff811615610a8d5781547fffffffffffffffffffffffff00000000000000000000000000000000000000001673ffffffffffffffffffffffffffffffffffffffff821690811783556040516000907f8be0079c531659141344cd1fd0a4f28419497f9722a3daafe3b4186f6b6457e0908290a35b6103f37f7f5828d000000000000000000000000000000000000000000000000000000000600161091a610921565b7fffffffff000000000000000000000000000000000000000000000000000000008083169003610b47576040517f08c379a000000000000000000000000000000000000000000000000000000000815260206004820152601f60248201527f496e74657266616365446574656374696f6e3a2077726f6e672076616c75650060448201526064016105bf565b7fffffffff00000000000000000000000000000000000000000000000000000000919091166000908152602092909252604090912080547fffffffffffffffffffffffffffffffffffffffffffffffffffffffffffffff0016911515919091179055565b815482908211610c17576040517f08c379a000000000000000000000000000000000000000000000000000000000815260206004820152601860248201527f53746f726167653a2076657273696f6e2072656163686564000000000000000060448201526064016105bf565b5550565b90565b600081815260018301602052604081205473ffffffffffffffffffffffffffffffffffffffff8116610cac576040517f08c379a000000000000000000000000000000000000000000000000000000000815260206004820152601860248201527f4552433732313a206e6f6e2d6578697374696e67204e4654000000000000000060448201526064016105bf565b74010000000000000000000000000000000000000000811615610cf7575050600081815260038301602052604090205473ffffffffffffffffffffffffffffffffffffffff166103c3565b60009150506103c3565b600081815260018501602052604081205490819003610d7c576040517f08c379a000000000000000000000000000000000000000000000000000000000815260206004820152601860248201527f4552433732313a206e6f6e2d6578697374696e67204e4654000000000000000060448201526064016105bf565b8073ffffffffffffffffffffffffffffffffffffffff80821690851603610dff576040517f08c379a000000000000000000000000000000000000000000000000000000000815260206004820152601560248201527f4552433732313a2073656c662d617070726f76616c000000000000000000000060448201526064016105bf565b610e0a868287611b02565b610e70576040517f08c379a000000000000000000000000000000000000000000000000000000000815260206004820152601b60248201527f4552433732313a206e6f6e2d617070726f7665642073656e646572000000000060448201526064016105bf565b73ffffffffffffffffffffffffffffffffffffffff8416610ed75774010000000000000000000000000000000000000000821615610ed2576000838152600187016020526040902073ffffffffffffffffffffffffffffffffffffffff821690555b610f5a565b740100000000000000000000000000000000000000008217808314610f0a57600084815260018801602052604090208190555b506000838152600387016020526040902080547fffffffffffffffffffffffff00000000000000000000000000000000000000001673ffffffffffffffffffffffffffffffffffffffff86161790555b828473ffffffffffffffffffffffffffffffffffffffff168273ffffffffffffffffffffffffffffffffffffffff167f8c5be1e5ebec7d5bd14f71427d1e84f3dd0314c0f7b2291e5b200ac8c7c3b92560405160405180910390a4505050505050565b610fdc8585858585604051806020016040528060008152506000611b76565b5050505050565b815473ffffffffffffffffffffffffffffffffffffffff8281169116146103f3576040517f08c379a000000000000000000000000000000000000000000000000000000000815260206004820152601860248201527f4f776e6572736869703a206e6f7420746865206f776e6572000000000000000060448201526064016105bf565b6000806103c360017fc8a24fbf085abf1493c5f225802d03df3ece6cd19f18edff36c56d854cddac9e612827565b60008381526020858152604080832073ffffffffffffffffffffffffffffffffffffffff8616845290915290205460ff166107075760008381526020858152604080832073ffffffffffffffffffffffffffffffffffffffff8681168086529184529382902080547fffffffffffffffffffffffffffffffffffffffffffffffffffffffffffffff00166001179055815187815292830152918316918101919091527f2f8788117e7eff1d82e926ec794901d17c78024a50270940304540a733656f0d906060015b60405180910390a150505050565b60008281526020848152604080832073ffffffffffffffffffffffffffffffffffffffff8516845290915290205460ff1661040f576111a882611cac565b6040516020016111b8919061286a565b604080517fffffffffffffffffffffffffffffffffffffffffffffffffffffffffffffffe0818403018152908290527f08c379a00000000000000000000000000000000000000000000000000000000082526105bf91600401612920565b600083815260018701602052604090205473ffffffffffffffffffffffffffffffffffffffff8116156112a5576040517f08c379a000000000000000000000000000000000000000000000000000000000815260206004820152601460248201527f4552433732313a206578697374696e67204e465400000000000000000000000060448201526064016105bf565b7fdead000000000000000000000000000000000000000000000000000000000000810361132e576040517f08c379a000000000000000000000000000000000000000000000000000000000815260206004820152601160248201527f4552433732313a206275726e74204e465400000000000000000000000000000060448201526064016105bf565b61133b8786866000611e36565b604051849073ffffffffffffffffffffffffffffffffffffffff8716906000907fddf252ad1be2c89b69c2b068fc378daa952ba7f163c4a11628f55a4df523b3ef908290a48180156113a3575073ffffffffffffffffffffffffffffffffffffffff85163b15155b156113b6576113b6866000878787611f1b565b50505050505050565b610fdc8585858585604051806020016040528060008152506001611b76565b73ffffffffffffffffffffffffffffffffffffffff821661145b576040517f08c379a000000000000000000000000000000000000000000000000000000000815260206004820152601460248201527f4552433732313a206d696e7420746f207a65726f00000000000000000000000060448201526064016105bf565b805160005b81811461158d57600083828151811061147b5761147b612933565b6020026020010151905060008660010160008381526020019081526020016000205490507fdead0000000000000000000000000000000000000000000000000000000000008103611528576040517f08c379a000000000000000000000000000000000000000000000000000000000815260206004820152601160248201527f4552433732313a206275726e74204e465400000000000000000000000000000060448201526064016105bf565b6115358787846001611e36565b604051829073ffffffffffffffffffffffffffffffffffffffff8816906000907fddf252ad1be2c89b69c2b068fc378daa952ba7f163c4a11628f55a4df523b3ef908290a450508061158690612962565b9050611460565b5073ffffffffffffffffffffffffffffffffffffffff83166000908152600285016020526040812080548392906115c590849061299a565b909155505050505050565b60006115dd858486611b02565b90506115ee85858585856000612041565b604051829060009073ffffffffffffffffffffffffffffffffffffffff8616907fddf252ad1be2c89b69c2b068fc378daa952ba7f163c4a11628f55a4df523b3ef908390a45050505050565b61164583828461116a565b60008181526020848152604080832073ffffffffffffffffffffffffffffffffffffffff86168085529083529281902080547fffffffffffffffffffffffffffffffffffffffffffffffffffffffffffffff0016905580518481529182018390528101919091527ff6391f5c32d9c69d2a47ea670b442974b53935d1edc7fd64eb21e047a839171b9060600160405180910390a1505050565b8273ffffffffffffffffffffffffffffffffffffffff168273ffffffffffffffffffffffffffffffffffffffff1603611773576040517f08c379a000000000000000000000000000000000000000000000000000000000815260206004820152601560248201527f4552433732313a2073656c662d617070726f76616c000000000000000000000060448201526064016105bf565b73ffffffffffffffffffffffffffffffffffffffff8381166000818152602087815260408083209487168084529482529182902080547fffffffffffffffffffffffffffffffffffffffffffffffffffffffffffffff001686151590811790915591519182527f17307eab39ab6107e8899845ad3d59bd9653f200f220920489ca2b5937696c31910160405180910390a350505050565b61181a8686868686866001611b76565b505050505050565b60008381526020858152604080832073ffffffffffffffffffffffffffffffffffffffff8616845290915290205460ff16156107075760008381526020858152604080832073ffffffffffffffffffffffffffffffffffffffff8681168086529184529382902080547fffffffffffffffffffffffffffffffffffffffffffffffffffffffffffffff00169055815187815292830152918316918101919091527ff6391f5c32d9c69d2a47ea670b442974b53935d1edc7fd64eb21e047a839171b9060600161115c565b60006118f9858486611b02565b825190915060005b81811461198b57600084828151811061191c5761191c612933565b6020026020010151905061193588888884886001612041565b604051819060009073ffffffffffffffffffffffffffffffffffffffff8916907fddf252ad1be2c89b69c2b068fc378daa952ba7f163c4a11628f55a4df523b3ef908390a45061198481612962565b9050611901565b50801561181a5773ffffffffffffffffffffffffffffffffffffffff84166000908152600287016020526040812080548392906119c9908490612827565b9091555050505050505050565b825473ffffffffffffffffffffffffffffffffffffffff9081169083168114611a5b576040517f08c379a000000000000000000000000000000000000000000000000000000000815260206004820152601860248201527f4f776e6572736869703a206e6f7420746865206f776e6572000000000000000060448201526064016105bf565b8173ffffffffffffffffffffffffffffffffffffffff168173ffffffffffffffffffffffffffffffffffffffff16146107075783547fffffffffffffffffffffffff00000000000000000000000000000000000000001673ffffffffffffffffffffffffffffffffffffffff8381169182178655604051908316907f8be0079c531659141344cd1fd0a4f28419497f9722a3daafe3b4186f6b6457e090600090a350505050565b60008173ffffffffffffffffffffffffffffffffffffffff168373ffffffffffffffffffffffffffffffffffffffff161480611b6e575073ffffffffffffffffffffffffffffffffffffffff8084166000908152602086815260408083209386168352929052205460ff165b949350505050565b73ffffffffffffffffffffffffffffffffffffffff8416611bf3576040517f08c379a000000000000000000000000000000000000000000000000000000000815260206004820152601860248201527f4552433732313a207472616e7366657220746f207a65726f000000000000000060448201526064016105bf565b6000611c00888789611b02565b9050611c1288888888888660006121fa565b838573ffffffffffffffffffffffffffffffffffffffff168773ffffffffffffffffffffffffffffffffffffffff167fddf252ad1be2c89b69c2b068fc378daa952ba7f163c4a11628f55a4df523b3ef60405160405180910390a4818015611c90575073ffffffffffffffffffffffffffffffffffffffff85163b15155b15611ca257611ca28787878787611f1b565b5050505050505050565b60606000829003611ccb57505060408051602081019091526000815290565b600082604051602001611ce091815260200190565b604080517fffffffffffffffffffffffffffffffffffffffffffffffffffffffffffffffe08184030181529190529050601f5b818181518110611d2557611d25612933565b01602001517fff0000000000000000000000000000000000000000000000000000000000000016600003611d6357611d5c816129b2565b9050611d13565b6000611d7082600161299a565b67ffffffffffffffff811115611d8857611d886126a5565b6040519080825280601f01601f191660200182016040528015611db2576020820181803683370190505b50905060005b828111611e2d57838181518110611dd157611dd1612933565b602001015160f81c60f81b828281518110611dee57611dee612933565b60200101907effffffffffffffffffffffffffffffffffffffffffffffffffffffffffffff1916908160001a905350611e2681612962565b9050611db8565b50949350505050565b600082815260018501602052604090205415611eae576040517f08c379a000000000000000000000000000000000000000000000000000000000815260206004820152601a60248201527f4552433732313a206578697374696e672f6275726e74204e465400000000000060448201526064016105bf565b6000828152600185016020526040902073ffffffffffffffffffffffffffffffffffffffff84169055806107075773ffffffffffffffffffffffffffffffffffffffff8316600090815260028501602052604081208054909190611f1190612962565b9091555050505050565b6040517f150b7a02000000000000000000000000000000000000000000000000000000008082529073ffffffffffffffffffffffffffffffffffffffff85169063150b7a0290611f759089908990889088906004016129e7565b6020604051808303816000875af1158015611f94573d6000803e3d6000fd5b505050506040513d601f19601f82011682018060405250810190611fb89190612a30565b7fffffffff000000000000000000000000000000000000000000000000000000001614610fdc576040517f08c379a000000000000000000000000000000000000000000000000000000000815260206004820152601860248201527f4552433732313a207472616e736665722072656675736564000000000000000060448201526064016105bf565b600083815260018701602052604090205473ffffffffffffffffffffffffffffffffffffffff858116908216146120d4576040517f08c379a000000000000000000000000000000000000000000000000000000000815260206004820152601560248201527f4552433732313a206e6f6e2d6f776e6564204e4654000000000000000000000060448201526064016105bf565b8261218d57740100000000000000000000000000000000000000008116158015906121275750600084815260038801602052604090205473ffffffffffffffffffffffffffffffffffffffff8781169116145b61218d576040517f08c379a000000000000000000000000000000000000000000000000000000000815260206004820152601b60248201527f4552433732313a206e6f6e2d617070726f7665642073656e646572000000000060448201526064016105bf565b600084815260018801602052604090207fdead0000000000000000000000000000000000000000000000000000000000009055816113b65773ffffffffffffffffffffffffffffffffffffffff85166000908152600288016020526040812080549091906119c9906129b2565b600083815260018801602052604090205473ffffffffffffffffffffffffffffffffffffffff8681169082161461228d576040517f08c379a000000000000000000000000000000000000000000000000000000000815260206004820152601560248201527f4552433732313a206e6f6e2d6f776e6564204e4654000000000000000000000060448201526064016105bf565b8261234657740100000000000000000000000000000000000000008116158015906122e05750600084815260038901602052604090205473ffffffffffffffffffffffffffffffffffffffff8881169116145b612346576040517f08c379a000000000000000000000000000000000000000000000000000000000815260206004820152601b60248201527f4552433732313a206e6f6e2d617070726f7665642073656e646572000000000060448201526064016105bf565b6000848152600189016020526040902073ffffffffffffffffffffffffffffffffffffffff8616905581611ca257611ca288878760018173ffffffffffffffffffffffffffffffffffffffff168373ffffffffffffffffffffffffffffffffffffffff16146107075773ffffffffffffffffffffffffffffffffffffffff83166000908152600285016020526040812080548392906123e6908490612827565b909155505073ffffffffffffffffffffffffffffffffffffffff82166000908152600285016020526040812080548392906115c590849061299a565b7fffffffff000000000000000000000000000000000000000000000000000000008116811461072157600080fd5b60006020828403121561246257600080fd5b813561078e81612422565b60006020828403121561247f57600080fd5b5035919050565b803573ffffffffffffffffffffffffffffffffffffffff811681146124aa57600080fd5b919050565b600080604083850312156124c257600080fd5b6124cb83612486565b946020939093013593505050565b6000806000606084860312156124ee57600080fd5b6124f784612486565b925061250560208501612486565b9150604084013590509250925092565b6000806040838503121561252857600080fd5b8235915061253860208401612486565b90509250929050565b60008060006040848603121561255657600080fd5b61255f84612486565b9250602084013567ffffffffffffffff8082111561257c57600080fd5b818601915086601f83011261259057600080fd5b81358181111561259f57600080fd5b8760208260051b85010111156125b457600080fd5b6020830194508093505050509250925092565b6000602082840312156125d957600080fd5b61078e82612486565b600080600080606085870312156125f857600080fd5b61260185612486565b935060208501359250604085013567ffffffffffffffff8082111561262557600080fd5b818701915087601f83011261263957600080fd5b81358181111561264857600080fd5b88602082850101111561265a57600080fd5b95989497505060200194505050565b6000806040838503121561267c57600080fd5b61268583612486565b91506020830135801515811461269a57600080fd5b809150509250929050565b7f4e487b7100000000000000000000000000000000000000000000000000000000600052604160045260246000fd5b600080600080608085870312156126ea57600080fd5b6126f385612486565b935061270160208601612486565b925060408501359150606085013567ffffffffffffffff8082111561272557600080fd5b818701915087601f83011261273957600080fd5b81358181111561274b5761274b6126a5565b604051601f82017fffffffffffffffffffffffffffffffffffffffffffffffffffffffffffffffe0908116603f01168101908382118183101715612791576127916126a5565b816040528281528a60208487010111156127aa57600080fd5b82602086016020830137600060208483010152809550505050505092959194509250565b600080604083850312156127e157600080fd5b6127ea83612486565b915061253860208401612486565b7f4e487b7100000000000000000000000000000000000000000000000000000000600052601160045260246000fd5b600082821015612839576128396127f8565b500390565b60005b83811015612859578181015183820152602001612841565b838111156107075750506000910152565b7f416363657373436f6e74726f6c3a206d697373696e67202700000000000000008152600082516128a281601885016020870161283e565b7f2720726f6c6500000000000000000000000000000000000000000000000000006018939091019283015250601e01919050565b600081518084526128ee81602086016020860161283e565b601f017fffffffffffffffffffffffffffffffffffffffffffffffffffffffffffffffe0169290920160200192915050565b60208152600061078e60208301846128d6565b7f4e487b7100000000000000000000000000000000000000000000000000000000600052603260045260246000fd5b60007fffffffffffffffffffffffffffffffffffffffffffffffffffffffffffffffff8203612993576129936127f8565b5060010190565b600082198211156129ad576129ad6127f8565b500190565b6000816129c1576129c16127f8565b507fffffffffffffffffffffffffffffffffffffffffffffffffffffffffffffffff0190565b600073ffffffffffffffffffffffffffffffffffffffff808716835280861660208401525083604083015260806060830152612a2660808301846128d6565b9695505050505050565b600060208284031215612a4257600080fd5b815161078e8161242256fea26469706673582212206110b85a0f2ec930db8874a0fe706a419f71ba69ff08b284c28816c54c6535d264736f6c634300080d0033",
  "linkReferences": {},
  "deployedLinkReferences": {}
}