{
  "_format": "hh-sol-artifact-1",
  "contractName": "ERC721MintableOnceMock",
  "sourceName": "contracts/mocks/token/ERC721/ERC721MintableOnceMock.sol",
  "abi": [
    {
      "inputs": [
        {
          "internalType": "contract IForwarderRegistry",
          "name": "forwarderRegistry",
          "type": "address"
        }
      ],
      "stateMutability": "nonpayable",
      "type": "constructor"
    },
    {
      "anonymous": false,
      "inputs": [
        {
          "indexed": true,
          "internalType": "address",
          "name": "owner",
          "type": "address"
        },
        {
          "indexed": true,
          "internalType": "address",
          "name": "approved",
          "type": "address"
        },
        {
          "indexed": true,
          "internalType": "uint256",
          "name": "tokenId",
          "type": "uint256"
        }
      ],
      "name": "Approval",
      "type": "event"
    },
    {
      "anonymous": false,
      "inputs": [
        {
          "indexed": true,
          "internalType": "address",
          "name": "owner",
          "type": "address"
        },
        {
          "indexed": true,
          "internalType": "address",
          "name": "operator",
          "type": "address"
        },
        {
          "indexed": false,
          "internalType": "bool",
          "name": "approved",
          "type": "bool"
        }
      ],
      "name": "ApprovalForAll",
      "type": "event"
    },
    {
      "anonymous": false,
      "inputs": [
        {
          "indexed": true,
          "internalType": "address",
          "name": "previousOwner",
          "type": "address"
        },
        {
          "indexed": true,
          "internalType": "address",
          "name": "newOwner",
          "type": "address"
        }
      ],
      "name": "OwnershipTransferred",
      "type": "event"
    },
    {
      "anonymous": false,
      "inputs": [
        {
          "indexed": false,
          "internalType": "bytes32",
          "name": "role",
          "type": "bytes32"
        },
        {
          "indexed": false,
          "internalType": "address",
          "name": "account",
          "type": "address"
        },
        {
          "indexed": false,
          "internalType": "address",
          "name": "operator",
          "type": "address"
        }
      ],
      "name": "RoleGranted",
      "type": "event"
    },
    {
      "anonymous": false,
      "inputs": [
        {
          "indexed": false,
          "internalType": "bytes32",
          "name": "role",
          "type": "bytes32"
        },
        {
          "indexed": false,
          "internalType": "address",
          "name": "account",
          "type": "address"
        },
        {
          "indexed": false,
          "internalType": "address",
          "name": "operator",
          "type": "address"
        }
      ],
      "name": "RoleRevoked",
      "type": "event"
    },
    {
      "anonymous": false,
      "inputs": [
        {
          "indexed": true,
          "internalType": "address",
          "name": "from",
          "type": "address"
        },
        {
          "indexed": true,
          "internalType": "address",
          "name": "to",
          "type": "address"
        },
        {
          "indexed": true,
          "internalType": "uint256",
          "name": "tokenId",
          "type": "uint256"
        }
      ],
      "name": "Transfer",
      "type": "event"
    },
    {
      "inputs": [],
      "name": "MINTER_ROLE",
      "outputs": [
        {
          "internalType": "bytes32",
          "name": "",
          "type": "bytes32"
        }
      ],
      "stateMutability": "view",
      "type": "function"
    },
    {
      "inputs": [],
      "name": "__msgData",
      "outputs": [
        {
          "internalType": "bytes",
          "name": "",
          "type": "bytes"
        }
      ],
      "stateMutability": "view",
      "type": "function"
    },
    {
      "inputs": [
        {
          "internalType": "address",
          "name": "to",
          "type": "address"
        },
        {
          "internalType": "uint256",
          "name": "tokenId",
          "type": "uint256"
        }
      ],
      "name": "approve",
      "outputs": [],
      "stateMutability": "nonpayable",
      "type": "function"
    },
    {
      "inputs": [
        {
          "internalType": "address",
          "name": "owner",
          "type": "address"
        }
      ],
      "name": "balanceOf",
      "outputs": [
        {
          "internalType": "uint256",
          "name": "balance",
          "type": "uint256"
        }
      ],
      "stateMutability": "view",
      "type": "function"
    },
    {
      "inputs": [
        {
          "internalType": "address",
          "name": "from",
          "type": "address"
        },
        {
          "internalType": "uint256[]",
          "name": "tokenIds",
          "type": "uint256[]"
        }
      ],
      "name": "batchBurnFrom",
      "outputs": [],
      "stateMutability": "nonpayable",
      "type": "function"
    },
    {
      "inputs": [
        {
          "internalType": "address",
          "name": "to",
          "type": "address"
        },
        {
          "internalType": "uint256[]",
          "name": "tokenIds",
          "type": "uint256[]"
        }
      ],
      "name": "batchMint",
      "outputs": [],
      "stateMutability": "nonpayable",
      "type": "function"
    },
    {
      "inputs": [
        {
          "internalType": "address",
          "name": "from",
          "type": "address"
        },
        {
          "internalType": "uint256",
          "name": "tokenId",
          "type": "uint256"
        }
      ],
      "name": "burnFrom",
      "outputs": [],
      "stateMutability": "nonpayable",
      "type": "function"
    },
    {
      "inputs": [
        {
          "internalType": "address[]",
          "name": "recipients",
          "type": "address[]"
        },
        {
          "internalType": "uint256[]",
          "name": "tokenIds",
          "type": "uint256[]"
        }
      ],
      "name": "deliver",
      "outputs": [],
      "stateMutability": "nonpayable",
      "type": "function"
    },
    {
      "inputs": [],
      "name": "forwarderRegistry",
      "outputs": [
        {
          "internalType": "contract IForwarderRegistry",
          "name": "",
          "type": "address"
        }
      ],
      "stateMutability": "view",
      "type": "function"
    },
    {
      "inputs": [
        {
          "internalType": "uint256",
          "name": "tokenId",
          "type": "uint256"
        }
      ],
      "name": "getApproved",
      "outputs": [
        {
          "internalType": "address",
          "name": "approved",
          "type": "address"
        }
      ],
      "stateMutability": "view",
      "type": "function"
    },
    {
      "inputs": [
        {
          "internalType": "bytes32",
          "name": "role",
          "type": "bytes32"
        },
        {
          "internalType": "address",
          "name": "account",
          "type": "address"
        }
      ],
      "name": "grantRole",
      "outputs": [],
      "stateMutability": "nonpayable",
      "type": "function"
    },
    {
      "inputs": [
        {
          "internalType": "bytes32",
          "name": "role",
          "type": "bytes32"
        },
        {
          "internalType": "address",
          "name": "account",
          "type": "address"
        }
      ],
      "name": "hasRole",
      "outputs": [
        {
          "internalType": "bool",
          "name": "",
          "type": "bool"
        }
      ],
      "stateMutability": "view",
      "type": "function"
    },
    {
      "inputs": [
        {
          "internalType": "address",
          "name": "owner",
          "type": "address"
        },
        {
          "internalType": "address",
          "name": "operator",
          "type": "address"
        }
      ],
      "name": "isApprovedForAll",
      "outputs": [
        {
          "internalType": "bool",
          "name": "approvedForAll",
          "type": "bool"
        }
      ],
      "stateMutability": "view",
      "type": "function"
    },
    {
      "inputs": [
        {
          "internalType": "address",
          "name": "forwarder",
          "type": "address"
        }
      ],
      "name": "isTrustedForwarder",
      "outputs": [
        {
          "internalType": "bool",
          "name": "",
          "type": "bool"
        }
      ],
      "stateMutability": "view",
      "type": "function"
    },
    {
      "inputs": [
        {
          "internalType": "address",
          "name": "to",
          "type": "address"
        },
        {
          "internalType": "uint256",
          "name": "tokenId",
          "type": "uint256"
        }
      ],
      "name": "mint",
      "outputs": [],
      "stateMutability": "nonpayable",
      "type": "function"
    },
    {
      "inputs": [],
      "name": "owner",
      "outputs": [
        {
          "internalType": "address",
          "name": "",
          "type": "address"
        }
      ],
      "stateMutability": "view",
      "type": "function"
    },
    {
      "inputs": [
        {
          "internalType": "uint256",
          "name": "tokenId",
          "type": "uint256"
        }
      ],
      "name": "ownerOf",
      "outputs": [
        {
          "internalType": "address",
          "name": "tokenOwner",
          "type": "address"
        }
      ],
      "stateMutability": "view",
      "type": "function"
    },
    {
      "inputs": [
        {
          "internalType": "bytes32",
          "name": "role",
          "type": "bytes32"
        }
      ],
      "name": "renounceRole",
      "outputs": [],
      "stateMutability": "nonpayable",
      "type": "function"
    },
    {
      "inputs": [
        {
          "internalType": "bytes32",
          "name": "role",
          "type": "bytes32"
        },
        {
          "internalType": "address",
          "name": "account",
          "type": "address"
        }
      ],
      "name": "revokeRole",
      "outputs": [],
      "stateMutability": "nonpayable",
      "type": "function"
    },
    {
      "inputs": [
        {
          "internalType": "address",
          "name": "to",
          "type": "address"
        },
        {
          "internalType": "uint256",
          "name": "tokenId",
          "type": "uint256"
        },
        {
          "internalType": "bytes",
          "name": "data",
          "type": "bytes"
        }
      ],
      "name": "safeMint",
      "outputs": [],
      "stateMutability": "nonpayable",
      "type": "function"
    },
    {
      "inputs": [
        {
          "internalType": "address",
          "name": "from",
          "type": "address"
        },
        {
          "internalType": "address",
          "name": "to",
          "type": "address"
        },
        {
          "internalType": "uint256",
          "name": "tokenId",
          "type": "uint256"
        }
      ],
      "name": "safeTransferFrom",
      "outputs": [],
      "stateMutability": "nonpayable",
      "type": "function"
    },
    {
      "inputs": [
        {
          "internalType": "address",
          "name": "from",
          "type": "address"
        },
        {
          "internalType": "address",
          "name": "to",
          "type": "address"
        },
        {
          "internalType": "uint256",
          "name": "tokenId",
          "type": "uint256"
        },
        {
          "internalType": "bytes",
          "name": "data",
          "type": "bytes"
        }
      ],
      "name": "safeTransferFrom",
      "outputs": [],
      "stateMutability": "nonpayable",
      "type": "function"
    },
    {
      "inputs": [
        {
          "internalType": "address",
          "name": "operator",
          "type": "address"
        },
        {
          "internalType": "bool",
          "name": "approved",
          "type": "bool"
        }
      ],
      "name": "setApprovalForAll",
      "outputs": [],
      "stateMutability": "nonpayable",
      "type": "function"
    },
    {
      "inputs": [
        {
          "internalType": "bytes4",
          "name": "interfaceId",
          "type": "bytes4"
        }
      ],
      "name": "supportsInterface",
      "outputs": [
        {
          "internalType": "bool",
          "name": "",
          "type": "bool"
        }
      ],
      "stateMutability": "view",
      "type": "function"
    },
    {
      "inputs": [
        {
          "internalType": "address",
          "name": "from",
          "type": "address"
        },
        {
          "internalType": "address",
          "name": "to",
          "type": "address"
        },
        {
          "internalType": "uint256",
          "name": "tokenId",
          "type": "uint256"
        }
      ],
      "name": "transferFrom",
      "outputs": [],
      "stateMutability": "nonpayable",
      "type": "function"
    },
    {
      "inputs": [
        {
          "internalType": "address",
          "name": "newOwner",
          "type": "address"
        }
      ],
      "name": "transferOwnership",
      "outputs": [],
      "stateMutability": "nonpayable",
      "type": "function"
    },
    {
      "inputs": [
        {
          "internalType": "uint256",
          "name": "tokenId",
          "type": "uint256"
        }
      ],
      "name": "wasBurnt",
      "outputs": [
        {
          "internalType": "bool",
          "name": "tokenWasBurnt",
          "type": "bool"
        }
      ],
      "stateMutability": "view",
      "type": "function"
    }
  ],
  "bytecode": "0x60a06040523480156200001157600080fd5b50604051620034f6380380620034f6833981016040819052620000349162000259565b808033620000416200008b565b620000578162000050620000ad565b90620000e3565b506200006262000156565b6200006c6200016e565b6200007662000186565b6001600160a01b031660805250620002ad9050565b620000ab6380ac58cd60e01b6001620000a362000199565b9190620001c9565b565b600080620000dd60017fc9ed16f33ab3a66c84bfd83099ccb2a8845871e2e1c1928f63797152f0fd54cd6200028b565b92915050565b6001600160a01b038116156200013a5781546001600160a01b0319166001600160a01b03821690811783556040516000907f8be0079c531659141344cd1fd0a4f28419497f9722a3daafe3b4186f6b6457e0908290a35b620001526307f5828d60e41b6001620000a362000199565b5050565b620000ab638e773e1360e01b6001620000a362000199565b620000ab634ed2f41960e11b6001620000a362000199565b620000ab638b8b4ef560e01b6001620000a35b600080620000dd60017fca9d3e17f264b0f3984e2634e94adb37fa3e6a8103f06aeae6fa59e21c769f5e6200028b565b600160e01b6001600160e01b03198316016200022b5760405162461bcd60e51b815260206004820152601f60248201527f496e74657266616365446574656374696f6e3a2077726f6e672076616c756500604482015260640160405180910390fd5b6001600160e01b03199190911660009081526020929092526040909120805460ff1916911515919091179055565b6000602082840312156200026c57600080fd5b81516001600160a01b03811681146200028457600080fd5b9392505050565b81810381811115620000dd57634e487b7160e01b600052601160045260246000fd5b60805161320a620002ec60003960008181610248015281816102de015281816125d60152818161265e0152818161278601526127c4015261320a6000f3fe608060405234801561001057600080fd5b50600436106101b95760003560e01c806379cc6790116100f9578063b88d4fde11610097578063d547741f11610071578063d547741f14610416578063e985e9c514610429578063f24729651461043c578063f2fde38b1461044f57600080fd5b8063b88d4fde146103c9578063c77c6955146103dc578063d5391393146103ef57600080fd5b80638da5cb5b116100d35780638da5cb5b1461038857806391d14854146103905780639da5e832146103a3578063a22cb465146103b657600080fd5b806379cc67901461034f5780638832e6e3146103625780638bb9c5bf1461037557600080fd5b806331e66e1e116101665780634684d7e9116101405780634684d7e9146102bb578063572b6c05146102ce5780636352211e1461031b57806370a082311461032e57600080fd5b806331e66e1e1461027f57806340c10f191461029557806342842e0e146102a857600080fd5b806323b872dd1161019757806323b872dd146102335780632b4c9f16146102465780632f2ff15d1461026c57600080fd5b806301ffc9a7146101be578063081812fc146101e6578063095ea7b31461021e575b600080fd5b6101d16101cc366004612bd0565b610462565b60405190151581526020015b60405180910390f35b6101f96101f4366004612bed565b61047c565b60405173ffffffffffffffffffffffffffffffffffffffff90911681526020016101dd565b61023161022c366004612c2f565b610490565b005b610231610241366004612c59565b6104b1565b7f00000000000000000000000000000000000000000000000000000000000000006101f9565b61023161027a366004612c95565b6104d5565b610287610509565b6040516101dd929190612cc1565b6102316102a3366004612c2f565b61051c565b6102316102b6366004612c59565b61056b565b6102316102c9366004612d5a565b61058a565b6101d16102dc366004612dad565b7f000000000000000000000000000000000000000000000000000000000000000073ffffffffffffffffffffffffffffffffffffffff90811691161490565b6101f9610329366004612bed565b6105fe565b61034161033c366004612dad565b610612565b6040519081526020016101dd565b61023161035d366004612c2f565b610626565b610231610370366004612e0a565b610643565b610231610383366004612bed565b6106cb565b6101f96106e9565b6101d161039e366004612c95565b610715565b6102316103b1366004612e64565b610760565b6102316103c4366004612ed2565b610804565b6102316103d7366004612f09565b610821565b6101d16103ea366004612bed565b61084b565b6103417f6d696e746572000000000000000000000000000000000000000000000000000081565b610231610424366004612c95565b61085f565b6101d1610437366004612f78565b61088d565b61023161044a366004612d5a565b6108db565b61023161045d366004612dad565b6108fa565b600061047682610470610915565b90610943565b92915050565b60006104768261048a610a1d565b90610a4b565b6104ad61049b610b31565b83836104a5610a1d565b929190610b3b565b5050565b6104d06104bc610b31565b8484846104c7610a1d565b93929190610e04565b505050565b60006104df610b31565b90506104f3816104ed611159565b90611187565b6104d083838361050161120a565b929190611238565b36600061051461130e565b915091509091565b6105577f6d696e7465720000000000000000000000000000000000000000000000000000610548610b31565b61055061120a565b9190611319565b6104ad8282610564610a1d565b91906113c5565b6104d0610576610b31565b848484610581610a1d565b939291906115c7565b6105b67f6d696e7465720000000000000000000000000000000000000000000000000000610548610b31565b6104d0838383808060200260200160405190810160405280939291908181526020018383602002808284376000920191909152506105f79250610a1d915050565b919061160d565b60006104768261060c610a1d565b90611862565b600061047682610620610a1d565b906118f8565b6104ad610631610b31565b838361063b610a1d565b9291906119a4565b61066f7f6d696e7465720000000000000000000000000000000000000000000000000000610548610b31565b6106c561067a610b31565b858585858080601f0160208091040260200160405190810160405280939291908181526020018383808284376000920191909152506106bc9250610a1d915050565b93929190611bb8565b50505050565b6106e66106d6610b31565b826106df61120a565b9190611bee565b50565b60006107106106f6611159565b5473ffffffffffffffffffffffffffffffffffffffff1690565b905090565b6000610759838361072461120a565b60009283526020908152604080842073ffffffffffffffffffffffffffffffffffffffff909316845291905290205460ff1690565b9392505050565b61078c7f6d696e7465720000000000000000000000000000000000000000000000000000610548610b31565b6106c5848480806020026020016040519081016040528093929190818152602001838360200280828437600092019190915250506040805160208088028281018201909352878252909350879250869182918501908490808284376000920191909152506107fd9250610a1d915050565b9190611c92565b6104ad61080f610b31565b8383610819610a1d565b929190611f6c565b61084461082c610b31565b8686868686610839610a1d565b95949392919061209c565b5050505050565b600061047682610859610a1d565b90612112565b6000610869610b31565b9050610877816104ed611159565b6104d083838361088561120a565b929190612148565b6000610759838361089c610a1d565b919073ffffffffffffffffffffffffffffffffffffffff9182166000908152600393909301602090815260408085209290931684525290205460ff1690565b6104d06108e6610b31565b8484846108f1610a1d565b93929190612212565b6106e6610905610b31565b8261090e611159565b9190612467565b60008061047660017fca9d3e17f264b0f3984e2634e94adb37fa3e6a8103f06aeae6fa59e21c769f5e612fa2565b60007c01000000000000000000000000000000000000000000000000000000007fffffffff0000000000000000000000000000000000000000000000000000000083160161099357506000610476565b7ffe003659000000000000000000000000000000000000000000000000000000007fffffffff000000000000000000000000000000000000000000000000000000008316016109e457506001610476565b507fffffffff00000000000000000000000000000000000000000000000000000000166000908152602091909152604090205460ff1690565b60008061047660017fddf3ee18ae6d688373c219468f8be446e7ae82215f4779d821c7ea5e8c13c0c1612fa2565b60008181526020839052604081205473ffffffffffffffffffffffffffffffffffffffff8116610adc576040517f08c379a000000000000000000000000000000000000000000000000000000000815260206004820152601a60248201527f4552433732313a206e6f6e2d6578697374696e6720746f6b656e00000000000060448201526064015b60405180910390fd5b74010000000000000000000000000000000000000000811615610b27575050600081815260028301602052604090205473ffffffffffffffffffffffffffffffffffffffff16610476565b6000915050610476565b6000610710612593565b60008181526020859052604090205473ffffffffffffffffffffffffffffffffffffffff8116610bc7576040517f08c379a000000000000000000000000000000000000000000000000000000000815260206004820152601a60248201527f4552433732313a206e6f6e2d6578697374696e6720746f6b656e0000000000006044820152606401610ad3565b8073ffffffffffffffffffffffffffffffffffffffff80821690851603610c4a576040517f08c379a000000000000000000000000000000000000000000000000000000000815260206004820152601560248201527f4552433732313a2073656c662d617070726f76616c00000000000000000000006044820152606401610ad3565b610c558682876126da565b610cbb576040517f08c379a000000000000000000000000000000000000000000000000000000000815260206004820152601b60248201527f4552433732313a206e6f6e2d617070726f7665642073656e64657200000000006044820152606401610ad3565b73ffffffffffffffffffffffffffffffffffffffff8416610d205774010000000000000000000000000000000000000000821615610d1b57600083815260208790526040902073ffffffffffffffffffffffffffffffffffffffff821690555b610da1565b740100000000000000000000000000000000000000008217808314610d515760008481526020889052604090208190555b506000838152600287016020526040902080547fffffffffffffffffffffffff00000000000000000000000000000000000000001673ffffffffffffffffffffffffffffffffffffffff86161790555b828473ffffffffffffffffffffffffffffffffffffffff168273ffffffffffffffffffffffffffffffffffffffff167f8c5be1e5ebec7d5bd14f71427d1e84f3dd0314c0f7b2291e5b200ac8c7c3b92560405160405180910390a4505050505050565b73ffffffffffffffffffffffffffffffffffffffff8216610e81576040517f08c379a000000000000000000000000000000000000000000000000000000000815260206004820152601e60248201527f4552433732313a207472616e7366657220746f206164647265737328302900006044820152606401610ad3565b60008181526020869052604090205473ffffffffffffffffffffffffffffffffffffffff8116610f0d576040517f08c379a000000000000000000000000000000000000000000000000000000000815260206004820152601a60248201527f4552433732313a206e6f6e2d6578697374696e6720746f6b656e0000000000006044820152606401610ad3565b73ffffffffffffffffffffffffffffffffffffffff84168173ffffffffffffffffffffffffffffffffffffffff1614610fa2576040517f08c379a000000000000000000000000000000000000000000000000000000000815260206004820152601760248201527f4552433732313a206e6f6e2d6f776e656420746f6b656e0000000000000000006044820152606401610ad3565b610fad8685876126da565b6110655774010000000000000000000000000000000000000000811615158015610fff5750600082815260028701602052604090205473ffffffffffffffffffffffffffffffffffffffff8681169116145b611065576040517f08c379a000000000000000000000000000000000000000000000000000000000815260206004820152601b60248201527f4552433732313a206e6f6e2d617070726f7665642073656e64657200000000006044820152606401610ad3565b600082815260208790526040902073ffffffffffffffffffffffffffffffffffffffff808516918290558516146110f65773ffffffffffffffffffffffffffffffffffffffff80851660009081526001808901602052604080832080547fffffffffffffffffffffffffffffffffffffffffffffffffffffffffffffffff0190559286168252919020805490910190555b818373ffffffffffffffffffffffffffffffffffffffff168573ffffffffffffffffffffffffffffffffffffffff167fddf252ad1be2c89b69c2b068fc378daa952ba7f163c4a11628f55a4df523b3ef60405160405180910390a4505050505050565b60008061047660017fc9ed16f33ab3a66c84bfd83099ccb2a8845871e2e1c1928f63797152f0fd54cd612fa2565b815473ffffffffffffffffffffffffffffffffffffffff8281169116146104ad576040517f08c379a000000000000000000000000000000000000000000000000000000000815260206004820152601860248201527f4f776e6572736869703a206e6f7420746865206f776e657200000000000000006044820152606401610ad3565b60008061047660017fc8827d3282af6f37b64c3e9e6f3ac9df286ab0bb0fccd6f8661bf19adb368b23612fa2565b60008381526020858152604080832073ffffffffffffffffffffffffffffffffffffffff8616845290915290205460ff166106c55760008381526020858152604080832073ffffffffffffffffffffffffffffffffffffffff8681168086529184529382902080547fffffffffffffffffffffffffffffffffffffffffffffffffffffffffffffff00166001179055815187815292830152918316918101919091527f2f8788117e7eff1d82e926ec794901d17c78024a50270940304540a733656f0d906060015b60405180910390a150505050565b36600061051461274f565b60008281526020848152604080832073ffffffffffffffffffffffffffffffffffffffff8516845290915290205460ff166104d057611357826128b9565b6040516020016113679190613000565b604080517fffffffffffffffffffffffffffffffffffffffffffffffffffffffffffffffe0818403018152908290527f08c379a0000000000000000000000000000000000000000000000000000000008252610ad3916004016130b6565b73ffffffffffffffffffffffffffffffffffffffff8216611442576040517f08c379a000000000000000000000000000000000000000000000000000000000815260206004820152601a60248201527f4552433732313a206d696e7420746f20616464726573732830290000000000006044820152606401610ad3565b60008181526020849052604090205473ffffffffffffffffffffffffffffffffffffffff8116156114cf576040517f08c379a000000000000000000000000000000000000000000000000000000000815260206004820152601660248201527f4552433732313a206578697374696e6720746f6b656e000000000000000000006044820152606401610ad3565b7fdead0000000000000000000000000000000000000000000000000000000000008103611558576040517f08c379a000000000000000000000000000000000000000000000000000000000815260206004820152601360248201527f4552433732313a206275726e7420746f6b656e000000000000000000000000006044820152606401610ad3565b60008281526020858152604080832073ffffffffffffffffffffffffffffffffffffffff87169081905580845260018089019093528184208054909301909255518492907fddf252ad1be2c89b69c2b068fc378daa952ba7f163c4a11628f55a4df523b3ef908290a450505050565b6115d48585858585610e04565b73ffffffffffffffffffffffffffffffffffffffff82163b15610844576108448484848460405180602001604052806000815250612a4b565b73ffffffffffffffffffffffffffffffffffffffff821661168a576040517f08c379a000000000000000000000000000000000000000000000000000000000815260206004820152601a60248201527f4552433732313a206d696e7420746f20616464726573732830290000000000006044820152606401610ad3565b805160005b81811461182d5760008382815181106116aa576116aa6130c9565b60209081029190910181015160008181529188905260409091205490915073ffffffffffffffffffffffffffffffffffffffff811615611746576040517f08c379a000000000000000000000000000000000000000000000000000000000815260206004820152601660248201527f4552433732313a206578697374696e6720746f6b656e000000000000000000006044820152606401610ad3565b7fdead00000000000000000000000000000000000000000000000000000000000081036117cf576040517f08c379a000000000000000000000000000000000000000000000000000000000815260206004820152601360248201527f4552433732313a206275726e7420746f6b656e000000000000000000000000006044820152606401610ad3565b60008281526020889052604080822073ffffffffffffffffffffffffffffffffffffffff89169081905590518492907fddf252ad1be2c89b69c2b068fc378daa952ba7f163c4a11628f55a4df523b3ef908290a4505060010161168f565b5073ffffffffffffffffffffffffffffffffffffffff9092166000908152600190930160205250604090912080549091019055565b60008181526020839052604081205473ffffffffffffffffffffffffffffffffffffffff81166118ee576040517f08c379a000000000000000000000000000000000000000000000000000000000815260206004820152601a60248201527f4552433732313a206e6f6e2d6578697374696e6720746f6b656e0000000000006044820152606401610ad3565b805b949350505050565b600073ffffffffffffffffffffffffffffffffffffffff8216611977576040517f08c379a000000000000000000000000000000000000000000000000000000000815260206004820152601d60248201527f4552433732313a2062616c616e6365206f6620616464726573732830290000006044820152606401610ad3565b5073ffffffffffffffffffffffffffffffffffffffff166000908152600191909101602052604090205490565b6000818152602085905260409020548073ffffffffffffffffffffffffffffffffffffffff168373ffffffffffffffffffffffffffffffffffffffff1614611a48576040517f08c379a000000000000000000000000000000000000000000000000000000000815260206004820152601760248201527f4552433732313a206e6f6e2d6f776e656420746f6b656e0000000000000000006044820152606401610ad3565b611a538584866126da565b611b0b5774010000000000000000000000000000000000000000811615158015611aa55750600082815260028601602052604090205473ffffffffffffffffffffffffffffffffffffffff8581169116145b611b0b576040517f08c379a000000000000000000000000000000000000000000000000000000000815260206004820152601b60248201527f4552433732313a206e6f6e2d617070726f7665642073656e64657200000000006044820152606401610ad3565b6000828152602086815260408083207fdead000000000000000000000000000000000000000000000000000000000000905573ffffffffffffffffffffffffffffffffffffffff86168084526001890190925280832080547fffffffffffffffffffffffffffffffffffffffffffffffffffffffffffffffff01905551849291907fddf252ad1be2c89b69c2b068fc378daa952ba7f163c4a11628f55a4df523b3ef908390a45050505050565b611bc38584846113c5565b73ffffffffffffffffffffffffffffffffffffffff83163b1561084457610844846000858585612a4b565b611bf9838284611319565b60008181526020848152604080832073ffffffffffffffffffffffffffffffffffffffff86168085529083529281902080547fffffffffffffffffffffffffffffffffffffffffffffffffffffffffffffff0016905580518481529182018390528101919091527ff6391f5c32d9c69d2a47ea670b442974b53935d1edc7fd64eb21e047a839171b9060600160405180910390a1505050565b815181518114611cfe576040517f08c379a000000000000000000000000000000000000000000000000000000000815260206004820152601b60248201527f4552433732313a20696e636f6e73697374656e742061727261797300000000006044820152606401610ad3565b60005b818114610844576000848281518110611d1c57611d1c6130c9565b60200260200101519050600073ffffffffffffffffffffffffffffffffffffffff168173ffffffffffffffffffffffffffffffffffffffff1603611dbc576040517f08c379a000000000000000000000000000000000000000000000000000000000815260206004820152601a60248201527f4552433732313a206d696e7420746f20616464726573732830290000000000006044820152606401610ad3565b6000848381518110611dd057611dd06130c9565b60209081029190910181015160008181529189905260409091205490915073ffffffffffffffffffffffffffffffffffffffff811615611e6c576040517f08c379a000000000000000000000000000000000000000000000000000000000815260206004820152601660248201527f4552433732313a206578697374696e6720746f6b656e000000000000000000006044820152606401610ad3565b7fdead0000000000000000000000000000000000000000000000000000000000008103611ef5576040517f08c379a000000000000000000000000000000000000000000000000000000000815260206004820152601360248201527f4552433732313a206275726e7420746f6b656e000000000000000000000000006044820152606401610ad3565b60008281526020898152604080832073ffffffffffffffffffffffffffffffffffffffff8716908190558084526001808d019093528184208054909301909255518492907fddf252ad1be2c89b69c2b068fc378daa952ba7f163c4a11628f55a4df523b3ef908290a4505050806001019050611d01565b8273ffffffffffffffffffffffffffffffffffffffff168273ffffffffffffffffffffffffffffffffffffffff1603612001576040517f08c379a000000000000000000000000000000000000000000000000000000000815260206004820152601d60248201527f4552433732313a2073656c662d617070726f76616c20666f7220616c6c0000006044820152606401610ad3565b73ffffffffffffffffffffffffffffffffffffffff838116600081815260038701602090815260408083209487168084529482529182902080547fffffffffffffffffffffffffffffffffffffffffffffffffffffffffffffff001686151590811790915591519182527f17307eab39ab6107e8899845ad3d59bd9653f200f220920489ca2b5937696c31910160405180910390a350505050565b6120a98787878787610e04565b73ffffffffffffffffffffffffffffffffffffffff84163b15612109576121098686868686868080601f016020809104026020016040519081016040528093929190818152602001838380828437600092019190915250612a4b92505050565b50505050505050565b6000818152602083905260408120547fdead00000000000000000000000000000000000000000000000000000000000014610759565b60008381526020858152604080832073ffffffffffffffffffffffffffffffffffffffff8616845290915290205460ff16156106c55760008381526020858152604080832073ffffffffffffffffffffffffffffffffffffffff8681168086529184529382902080547fffffffffffffffffffffffffffffffffffffffffffffffffffffffffffffff00169055815187815292830152918316918101919091527ff6391f5c32d9c69d2a47ea670b442974b53935d1edc7fd64eb21e047a839171b90606001611300565b600061221f8685876126da565b90508160005b818114612429576000858583818110612240576122406130c9565b602090810292909201356000818152928c905260409092205491925081905073ffffffffffffffffffffffffffffffffffffffff168873ffffffffffffffffffffffffffffffffffffffff16146122f3576040517f08c379a000000000000000000000000000000000000000000000000000000000815260206004820152601760248201527f4552433732313a206e6f6e2d6f776e656420746f6b656e0000000000000000006044820152606401610ad3565b846123ac57740100000000000000000000000000000000000000008116151580156123465750600082815260028b01602052604090205473ffffffffffffffffffffffffffffffffffffffff8a81169116145b6123ac576040517f08c379a000000000000000000000000000000000000000000000000000000000815260206004820152601b60248201527f4552433732313a206e6f6e2d617070726f7665642073656e64657200000000006044820152606401610ad3565b600082815260208b905260408082207fdead00000000000000000000000000000000000000000000000000000000000090555183919073ffffffffffffffffffffffffffffffffffffffff8b16907fddf252ad1be2c89b69c2b068fc378daa952ba7f163c4a11628f55a4df523b3ef908390a45050600101612225565b5080156121095773ffffffffffffffffffffffffffffffffffffffff8516600090815260018801602052604090208054829003905550505050505050565b825473ffffffffffffffffffffffffffffffffffffffff90811690831681146124ec576040517f08c379a000000000000000000000000000000000000000000000000000000000815260206004820152601860248201527f4f776e6572736869703a206e6f7420746865206f776e657200000000000000006044820152606401610ad3565b8173ffffffffffffffffffffffffffffffffffffffff168173ffffffffffffffffffffffffffffffffffffffff16146106c55783547fffffffffffffffffffffffff00000000000000000000000000000000000000001673ffffffffffffffffffffffffffffffffffffffff8381169182178655604051908316907f8be0079c531659141344cd1fd0a4f28419497f9722a3daafe3b4186f6b6457e090600090a350505050565b6000333214806125a35750601836105b156125ad57503390565b7fffffffffffffffffffffffffffffffffffffffffffffffffffffffffffffffec36013560601c7f000000000000000000000000000000000000000000000000000000000000000073ffffffffffffffffffffffffffffffffffffffff163314806126c957506040517f8929a8ca00000000000000000000000000000000000000000000000000000000815273ffffffffffffffffffffffffffffffffffffffff82811660048301523360248301527f00000000000000000000000000000000000000000000000000000000000000001690638929a8ca90604401602060405180830381865afa1580156126a5573d6000803e3d6000fd5b505050506040513d601f19601f820116820180604052508101906126c991906130f8565b156126d357919050565b3391505090565b60008173ffffffffffffffffffffffffffffffffffffffff168373ffffffffffffffffffffffffffffffffffffffff1614806118f057505073ffffffffffffffffffffffffffffffffffffffff9182166000908152600393909301602090815260408085209290931684525290205460ff1690565b366000333214806127605750601836105b1561276e5750600091369150565b3373ffffffffffffffffffffffffffffffffffffffff7f00000000000000000000000000000000000000000000000000000000000000001614806128a3575073ffffffffffffffffffffffffffffffffffffffff7f000000000000000000000000000000000000000000000000000000000000000016638929a8ca367fffffffffffffffffffffffffffffffffffffffffffffffffffffffffffffffec013560601c6040517fffffffff0000000000000000000000000000000000000000000000000000000060e084901b16815273ffffffffffffffffffffffffffffffffffffffff9091166004820152336024820152604401602060405180830381865afa15801561287f573d6000803e3d6000fd5b505050506040513d601f19601f820116820180604052508101906128a391906130f8565b156128b057610514612b71565b50600091369150565b606060008290036128d857505060408051602081019091526000815290565b6000826040516020016128ed91815260200190565b604080517fffffffffffffffffffffffffffffffffffffffffffffffffffffffffffffffe08184030181529190529050601f5b818181518110612932576129326130c9565b01602001517fff0000000000000000000000000000000000000000000000000000000000000016600003612987577fffffffffffffffffffffffffffffffffffffffffffffffffffffffffffffffff01612920565b60008160010167ffffffffffffffff8111156129a5576129a5613115565b6040519080825280601f01601f1916602001820160405280156129cf576020820181803683370190505b50905060005b828111612a42578381815181106129ee576129ee6130c9565b602001015160f81c60f81b828281518110612a0b57612a0b6130c9565b60200101907effffffffffffffffffffffffffffffffffffffffffffffffffffffffffffff1916908160001a9053506001016129d5565b50949350505050565b6040517f150b7a02000000000000000000000000000000000000000000000000000000008082529073ffffffffffffffffffffffffffffffffffffffff85169063150b7a0290612aa5908990899088908890600401613144565b6020604051808303816000875af1158015612ac4573d6000803e3d6000fd5b505050506040513d601f19601f82011682018060405250810190612ae8919061318d565b7fffffffff000000000000000000000000000000000000000000000000000000001614610844576040517f08c379a000000000000000000000000000000000000000000000000000000000815260206004820152601e60248201527f4552433732313a2073616665207472616e736665722072656a656374656400006044820152606401610ad3565b3660006105147fffffffffffffffffffffffffffffffffffffffffffffffffffffffffffffffec83018284816131aa565b7fffffffff00000000000000000000000000000000000000000000000000000000811681146106e657600080fd5b600060208284031215612be257600080fd5b813561075981612ba2565b600060208284031215612bff57600080fd5b5035919050565b803573ffffffffffffffffffffffffffffffffffffffff81168114612c2a57600080fd5b919050565b60008060408385031215612c4257600080fd5b612c4b83612c06565b946020939093013593505050565b600080600060608486031215612c6e57600080fd5b612c7784612c06565b9250612c8560208501612c06565b9150604084013590509250925092565b60008060408385031215612ca857600080fd5b82359150612cb860208401612c06565b90509250929050565b60208152816020820152818360408301376000818301604090810191909152601f9092017fffffffffffffffffffffffffffffffffffffffffffffffffffffffffffffffe0160101919050565b60008083601f840112612d2057600080fd5b50813567ffffffffffffffff811115612d3857600080fd5b6020830191508360208260051b8501011115612d5357600080fd5b9250929050565b600080600060408486031215612d6f57600080fd5b612d7884612c06565b9250602084013567ffffffffffffffff811115612d9457600080fd5b612da086828701612d0e565b9497909650939450505050565b600060208284031215612dbf57600080fd5b61075982612c06565b60008083601f840112612dda57600080fd5b50813567ffffffffffffffff811115612df257600080fd5b602083019150836020828501011115612d5357600080fd5b60008060008060608587031215612e2057600080fd5b612e2985612c06565b935060208501359250604085013567ffffffffffffffff811115612e4c57600080fd5b612e5887828801612dc8565b95989497509550505050565b60008060008060408587031215612e7a57600080fd5b843567ffffffffffffffff80821115612e9257600080fd5b612e9e88838901612d0e565b90965094506020870135915080821115612eb757600080fd5b50612e5887828801612d0e565b80151581146106e657600080fd5b60008060408385031215612ee557600080fd5b612eee83612c06565b91506020830135612efe81612ec4565b809150509250929050565b600080600080600060808688031215612f2157600080fd5b612f2a86612c06565b9450612f3860208701612c06565b935060408601359250606086013567ffffffffffffffff811115612f5b57600080fd5b612f6788828901612dc8565b969995985093965092949392505050565b60008060408385031215612f8b57600080fd5b612f9483612c06565b9150612cb860208401612c06565b81810381811115610476577f4e487b7100000000000000000000000000000000000000000000000000000000600052601160045260246000fd5b60005b83811015612ff7578181015183820152602001612fdf565b50506000910152565b7f416363657373436f6e74726f6c3a206d697373696e6720270000000000000000815260008251613038816018850160208701612fdc565b7f2720726f6c6500000000000000000000000000000000000000000000000000006018939091019283015250601e01919050565b60008151808452613084816020860160208601612fdc565b601f017fffffffffffffffffffffffffffffffffffffffffffffffffffffffffffffffe0169290920160200192915050565b602081526000610759602083018461306c565b7f4e487b7100000000000000000000000000000000000000000000000000000000600052603260045260246000fd5b60006020828403121561310a57600080fd5b815161075981612ec4565b7f4e487b7100000000000000000000000000000000000000000000000000000000600052604160045260246000fd5b600073ffffffffffffffffffffffffffffffffffffffff808716835280861660208401525083604083015260806060830152613183608083018461306c565b9695505050505050565b60006020828403121561319f57600080fd5b815161075981612ba2565b600080858511156131ba57600080fd5b838611156131c757600080fd5b505082019391909203915056fea26469706673582212202c65d3475fdaca18892939d0999566ce19643c5122ffc5df904922b959bacbd964736f6c63430008130033",
  "linkReferences": {},
  "deployedLinkReferences": {}
}