{
  "_format": "hh-sol-artifact-1",
  "contractName": "ERC721MintableOnceMock",
  "sourceName": "contracts/mocks/token/ERC721/ERC721MintableOnceMock.sol",
  "abi": [
    {
      "inputs": [
        {
          "internalType": "string",
          "name": "name_",
          "type": "string"
        },
        {
          "internalType": "string",
          "name": "symbol_",
          "type": "string"
        },
        {
          "internalType": "string",
          "name": "tokenURI_",
          "type": "string"
        },
        {
          "internalType": "contract IForwarderRegistry",
          "name": "forwarderRegistry",
          "type": "address"
        }
      ],
      "stateMutability": "nonpayable",
      "type": "constructor"
    },
    {
      "anonymous": false,
      "inputs": [
        {
          "indexed": true,
          "internalType": "address",
          "name": "owner",
          "type": "address"
        },
        {
          "indexed": true,
          "internalType": "address",
          "name": "approved",
          "type": "address"
        },
        {
          "indexed": true,
          "internalType": "uint256",
          "name": "tokenId",
          "type": "uint256"
        }
      ],
      "name": "Approval",
      "type": "event"
    },
    {
      "anonymous": false,
      "inputs": [
        {
          "indexed": true,
          "internalType": "address",
          "name": "owner",
          "type": "address"
        },
        {
          "indexed": true,
          "internalType": "address",
          "name": "operator",
          "type": "address"
        },
        {
          "indexed": false,
          "internalType": "bool",
          "name": "approved",
          "type": "bool"
        }
      ],
      "name": "ApprovalForAll",
      "type": "event"
    },
    {
      "anonymous": false,
      "inputs": [
        {
          "indexed": true,
          "internalType": "address",
          "name": "previousOwner",
          "type": "address"
        },
        {
          "indexed": true,
          "internalType": "address",
          "name": "newOwner",
          "type": "address"
        }
      ],
      "name": "OwnershipTransferred",
      "type": "event"
    },
    {
      "anonymous": false,
      "inputs": [
        {
          "indexed": false,
          "internalType": "bytes32",
          "name": "role",
          "type": "bytes32"
        },
        {
          "indexed": false,
          "internalType": "address",
          "name": "account",
          "type": "address"
        },
        {
          "indexed": false,
          "internalType": "address",
          "name": "operator",
          "type": "address"
        }
      ],
      "name": "RoleGranted",
      "type": "event"
    },
    {
      "anonymous": false,
      "inputs": [
        {
          "indexed": false,
          "internalType": "bytes32",
          "name": "role",
          "type": "bytes32"
        },
        {
          "indexed": false,
          "internalType": "address",
          "name": "account",
          "type": "address"
        },
        {
          "indexed": false,
          "internalType": "address",
          "name": "operator",
          "type": "address"
        }
      ],
      "name": "RoleRevoked",
      "type": "event"
    },
    {
      "anonymous": false,
      "inputs": [
        {
          "indexed": true,
          "internalType": "address",
          "name": "from",
          "type": "address"
        },
        {
          "indexed": true,
          "internalType": "address",
          "name": "to",
          "type": "address"
        },
        {
          "indexed": true,
          "internalType": "uint256",
          "name": "tokenId",
          "type": "uint256"
        }
      ],
      "name": "Transfer",
      "type": "event"
    },
    {
      "inputs": [],
      "name": "MINTER_ROLE",
      "outputs": [
        {
          "internalType": "bytes32",
          "name": "",
          "type": "bytes32"
        }
      ],
      "stateMutability": "view",
      "type": "function"
    },
    {
      "inputs": [
        {
          "internalType": "address",
          "name": "to",
          "type": "address"
        },
        {
          "internalType": "uint256",
          "name": "tokenId",
          "type": "uint256"
        }
      ],
      "name": "approve",
      "outputs": [],
      "stateMutability": "nonpayable",
      "type": "function"
    },
    {
      "inputs": [
        {
          "internalType": "address",
          "name": "owner",
          "type": "address"
        }
      ],
      "name": "balanceOf",
      "outputs": [
        {
          "internalType": "uint256",
          "name": "",
          "type": "uint256"
        }
      ],
      "stateMutability": "view",
      "type": "function"
    },
    {
      "inputs": [
        {
          "internalType": "address",
          "name": "from",
          "type": "address"
        },
        {
          "internalType": "uint256[]",
          "name": "tokenIds",
          "type": "uint256[]"
        }
      ],
      "name": "batchBurnFrom",
      "outputs": [],
      "stateMutability": "nonpayable",
      "type": "function"
    },
    {
      "inputs": [
        {
          "internalType": "address",
          "name": "to",
          "type": "address"
        },
        {
          "internalType": "uint256[]",
          "name": "tokenIds",
          "type": "uint256[]"
        }
      ],
      "name": "batchMint",
      "outputs": [],
      "stateMutability": "nonpayable",
      "type": "function"
    },
    {
      "inputs": [
        {
          "internalType": "address",
          "name": "from",
          "type": "address"
        },
        {
          "internalType": "uint256",
          "name": "tokenId",
          "type": "uint256"
        }
      ],
      "name": "burnFrom",
      "outputs": [],
      "stateMutability": "nonpayable",
      "type": "function"
    },
    {
      "inputs": [
        {
          "internalType": "uint256",
          "name": "tokenId",
          "type": "uint256"
        }
      ],
      "name": "getApproved",
      "outputs": [
        {
          "internalType": "address",
          "name": "operator",
          "type": "address"
        }
      ],
      "stateMutability": "view",
      "type": "function"
    },
    {
      "inputs": [
        {
          "internalType": "bytes32",
          "name": "role",
          "type": "bytes32"
        },
        {
          "internalType": "address",
          "name": "account",
          "type": "address"
        }
      ],
      "name": "grantRole",
      "outputs": [],
      "stateMutability": "nonpayable",
      "type": "function"
    },
    {
      "inputs": [
        {
          "internalType": "bytes32",
          "name": "role",
          "type": "bytes32"
        },
        {
          "internalType": "address",
          "name": "account",
          "type": "address"
        }
      ],
      "name": "hasRole",
      "outputs": [
        {
          "internalType": "bool",
          "name": "",
          "type": "bool"
        }
      ],
      "stateMutability": "view",
      "type": "function"
    },
    {
      "inputs": [
        {
          "internalType": "address",
          "name": "owner",
          "type": "address"
        },
        {
          "internalType": "address",
          "name": "operator",
          "type": "address"
        }
      ],
      "name": "isApprovedForAll",
      "outputs": [
        {
          "internalType": "bool",
          "name": "",
          "type": "bool"
        }
      ],
      "stateMutability": "view",
      "type": "function"
    },
    {
      "inputs": [
        {
          "internalType": "address",
          "name": "to",
          "type": "address"
        },
        {
          "internalType": "uint256",
          "name": "tokenId",
          "type": "uint256"
        }
      ],
      "name": "mint",
      "outputs": [],
      "stateMutability": "nonpayable",
      "type": "function"
    },
    {
      "inputs": [],
      "name": "name",
      "outputs": [
        {
          "internalType": "string",
          "name": "",
          "type": "string"
        }
      ],
      "stateMutability": "view",
      "type": "function"
    },
    {
      "inputs": [],
      "name": "owner",
      "outputs": [
        {
          "internalType": "address",
          "name": "",
          "type": "address"
        }
      ],
      "stateMutability": "view",
      "type": "function"
    },
    {
      "inputs": [
        {
          "internalType": "uint256",
          "name": "tokenId",
          "type": "uint256"
        }
      ],
      "name": "ownerOf",
      "outputs": [
        {
          "internalType": "address",
          "name": "",
          "type": "address"
        }
      ],
      "stateMutability": "view",
      "type": "function"
    },
    {
      "inputs": [
        {
          "internalType": "bytes32",
          "name": "role",
          "type": "bytes32"
        }
      ],
      "name": "renounceRole",
      "outputs": [],
      "stateMutability": "nonpayable",
      "type": "function"
    },
    {
      "inputs": [
        {
          "internalType": "bytes32",
          "name": "role",
          "type": "bytes32"
        },
        {
          "internalType": "address",
          "name": "account",
          "type": "address"
        }
      ],
      "name": "revokeRole",
      "outputs": [],
      "stateMutability": "nonpayable",
      "type": "function"
    },
    {
      "inputs": [
        {
          "internalType": "address",
          "name": "to",
          "type": "address"
        },
        {
          "internalType": "uint256",
          "name": "tokenId",
          "type": "uint256"
        },
        {
          "internalType": "bytes",
          "name": "data",
          "type": "bytes"
        }
      ],
      "name": "safeMint",
      "outputs": [],
      "stateMutability": "nonpayable",
      "type": "function"
    },
    {
      "inputs": [
        {
          "internalType": "address",
          "name": "from",
          "type": "address"
        },
        {
          "internalType": "address",
          "name": "to",
          "type": "address"
        },
        {
          "internalType": "uint256",
          "name": "tokenId",
          "type": "uint256"
        }
      ],
      "name": "safeTransferFrom",
      "outputs": [],
      "stateMutability": "nonpayable",
      "type": "function"
    },
    {
      "inputs": [
        {
          "internalType": "address",
          "name": "from",
          "type": "address"
        },
        {
          "internalType": "address",
          "name": "to",
          "type": "address"
        },
        {
          "internalType": "uint256",
          "name": "tokenId",
          "type": "uint256"
        },
        {
          "internalType": "bytes",
          "name": "_data",
          "type": "bytes"
        }
      ],
      "name": "safeTransferFrom",
      "outputs": [],
      "stateMutability": "nonpayable",
      "type": "function"
    },
    {
      "inputs": [
        {
          "internalType": "address",
          "name": "operator",
          "type": "address"
        },
        {
          "internalType": "bool",
          "name": "_approved",
          "type": "bool"
        }
      ],
      "name": "setApprovalForAll",
      "outputs": [],
      "stateMutability": "nonpayable",
      "type": "function"
    },
    {
      "inputs": [
        {
          "internalType": "bytes4",
          "name": "interfaceId",
          "type": "bytes4"
        }
      ],
      "name": "supportsInterface",
      "outputs": [
        {
          "internalType": "bool",
          "name": "",
          "type": "bool"
        }
      ],
      "stateMutability": "view",
      "type": "function"
    },
    {
      "inputs": [],
      "name": "symbol",
      "outputs": [
        {
          "internalType": "string",
          "name": "",
          "type": "string"
        }
      ],
      "stateMutability": "view",
      "type": "function"
    },
    {
      "inputs": [
        {
          "internalType": "uint256",
          "name": "tokenId",
          "type": "uint256"
        }
      ],
      "name": "tokenURI",
      "outputs": [
        {
          "internalType": "string",
          "name": "",
          "type": "string"
        }
      ],
      "stateMutability": "view",
      "type": "function"
    },
    {
      "inputs": [
        {
          "internalType": "address",
          "name": "from",
          "type": "address"
        },
        {
          "internalType": "address",
          "name": "to",
          "type": "address"
        },
        {
          "internalType": "uint256",
          "name": "tokenId",
          "type": "uint256"
        }
      ],
      "name": "transferFrom",
      "outputs": [],
      "stateMutability": "nonpayable",
      "type": "function"
    },
    {
      "inputs": [
        {
          "internalType": "address",
          "name": "newOwner",
          "type": "address"
        }
      ],
      "name": "transferOwnership",
      "outputs": [],
      "stateMutability": "nonpayable",
      "type": "function"
    }
  ],
  "bytecode": "0x60a06040523480156200001157600080fd5b5060405162003b1a38038062003b1a833981016040819052620000349162000789565b808484843362000063620000526200018660201b620009201760201c565b620001bc60201b6200094e1760201c565b6200008d6200007c6200022960201b620009b81760201c565b6200025960201b620009e61760201c565b620000bb81620000a7620002ae60201b62000a401760201c565b620002de60201b62000a6e1790919060201c565b50620000f4638e773e1360e01b6001620000df6200022960201b620009b81760201c565b6200038d60201b62000b52179092919060201c565b62000117638b8b4ef560e01b6001620000df6200022960201b620009b81760201c565b62000149838383620001336200041b60201b62000c421760201c565b6200044b60201b62000c7017909392919060201c565b6200016c635b5e139f60e01b6001620000df6200022960201b620009b81760201c565b5050506001600160a01b0316608052506200089e92505050565b600080620001b660017fddf3ee18ae6d688373c219468f8be446e7ae82215f4779d821c7ea5e8c13c0c16200083c565b92915050565b62000203620001ed60017ffddcdbf8ca7eb362a678daf3643ce3cf98ebf69ac314d25d376d5aeabd2f53326200083c565b60001b6001620004ea60201b62000cf31760201c565b620002266380ac58cd60e01b6001620000df6200022960201b620009b81760201c565b50565b600080620001b660017f7180ffa89c91cf90d6c56dacabfc69bc5e36f3099d7eed2f5cc12c5dba016fe06200083c565b6200028a620001ed60017f947245cdabe12ef4c13574b38217b361de48f57dd2dc345f43703c79bac2873d6200083c565b620002266301ffc9a760e01b6001836200038d60201b62000b52179092919060201c565b600080620001b660017f6a1da6973104ff7dedb9b4f5cab5830b3f4a0284ed754366cfc45568bd2d38df6200083c565b6200030f620001ed60017ff1e2f4de496ffe5d046d751d8ec3c329ee011c6c6a229322971a7e02a207f9736200083c565b6001600160a01b03811615620003665781546001600160a01b0319166001600160a01b03821690811783556040516000907f8be0079c531659141344cd1fd0a4f28419497f9722a3daafe3b4186f6b6457e0908290a35b620003896307f5828d60e41b6001620000df6200022960201b620009b81760201c565b5050565b6001600160e01b03198083169003620003ed5760405162461bcd60e51b815260206004820152601f60248201527f496e74657266616365446574656374696f6e3a2077726f6e672076616c75650060448201526064015b60405180910390fd5b6001600160e01b03199190911660009081526020929092526040909120805460ff1916911515919091179055565b600080620001b660017f5f5773833f4966721eb3773ed87c7208ea74d78f0d94de1d8074345cac67333f6200083c565b6200047c620001ed60017fdf2ee7965c9504dc84db8f7759fc283282800c5a2fa3704c9f07f446b3b40a3f6200083c565b620004ac8383620004976200055d60201b62000d631760201c565b6200058d60201b62000d91179092919060201c565b8051620004c0908590602084019062000616565b50620004e4635b5e139f60e01b6001620000df6200022960201b620009b81760201c565b50505050565b600062000502836200061360201b62000e161760201c565b905081816000015410620005595760405162461bcd60e51b815260206004820152601860248201527f53746f726167653a2076657273696f6e207265616368656400000000000000006044820152606401620003e4565b5550565b600080620001b660017f9c4269c0f9f430d98876ffe9767fbf3f3232ea91a549beb549e5329532520eb36200083c565b620005be620001ed60017fa057eeb6560fae2987973d3bf40b89e6da66dd0b6aadac05dc6b5b0d7a8d45576200083c565b8151620005d2908490602085019062000616565b508051620005ea906001850190602084019062000616565b506200060e635b5e139f60e01b6001620000df6200022960201b620009b81760201c565b505050565b90565b828054620006249062000862565b90600052602060002090601f01602090048101928262000648576000855562000693565b82601f106200066357805160ff191683800117855562000693565b8280016001018555821562000693579182015b828111156200069357825182559160200191906001019062000676565b50620006a1929150620006a5565b5090565b5b80821115620006a15760008155600101620006a6565b634e487b7160e01b600052604160045260246000fd5b600082601f830112620006e457600080fd5b81516001600160401b0380821115620007015762000701620006bc565b604051601f8301601f19908116603f011681019082821181831017156200072c576200072c620006bc565b816040528381526020925086838588010111156200074957600080fd5b600091505b838210156200076d57858201830151818301840152908201906200074e565b838211156200077f5760008385830101525b9695505050505050565b60008060008060808587031215620007a057600080fd5b84516001600160401b0380821115620007b857600080fd5b620007c688838901620006d2565b95506020870151915080821115620007dd57600080fd5b620007eb88838901620006d2565b945060408701519150808211156200080257600080fd5b506200081187828801620006d2565b606087015190935090506001600160a01b03811681146200083157600080fd5b939692955090935050565b6000828210156200085d57634e487b7160e01b600052601160045260246000fd5b500390565b600181811c908216806200087757607f821691505b6020821081036200089857634e487b7160e01b600052602260045260246000fd5b50919050565b608051613259620008c16000396000818161204601526120e601526132596000f3fe608060405234801561001057600080fd5b50600436106101a35760003560e01c80638832e6e3116100ee578063b88d4fde11610097578063d547741f11610071578063d547741f14610381578063e985e9c514610394578063f2472965146103a7578063f2fde38b146103ba57600080fd5b8063b88d4fde14610334578063c87b56dd14610347578063d53913931461035a57600080fd5b806391d14854116100c857806391d148541461030657806395d89b4114610319578063a22cb4651461032157600080fd5b80638832e6e3146102d85780638bb9c5bf146102eb5780638da5cb5b146102fe57600080fd5b806340c10f19116101505780636352211e1161012a5780636352211e1461029157806370a08231146102a457806379cc6790146102c557600080fd5b806340c10f191461025857806342842e0e1461026b5780634684d7e91461027e57600080fd5b8063095ea7b311610181578063095ea7b31461021d57806323b872dd146102325780632f2ff15d1461024557600080fd5b806301ffc9a7146101a857806306fdde03146101d0578063081812fc146101e5575b600080fd5b6101bb6101b6366004612b49565b6103cd565b60405190151581526020015b60405180910390f35b6101d861041a565b6040516101c79190612bdc565b6101f86101f3366004612bef565b610431565b60405173ffffffffffffffffffffffffffffffffffffffff90911681526020016101c7565b61023061022b366004612c31565b610445565b005b610230610240366004612c5b565b610466565b610230610253366004612c97565b61048a565b610230610266366004612c31565b6104be565b610230610279366004612c5b565b61052a565b61023061028c366004612cc3565b610549565b6101f861029f366004612bef565b6105bd565b6102b76102b2366004612d49565b6105d1565b6040519081526020016101c7565b6102306102d3366004612c31565b6105e5565b6102306102e6366004612d64565b610602565b6102306102f9366004612bef565b610684565b6101f86106a2565b6101bb610314366004612c97565b6106c8565b6101d8610713565b61023061032f366004612df9565b610725565b610230610342366004612e5f565b610742565b6101d8610355366004612bef565b610763565b6102b77f6d696e746572000000000000000000000000000000000000000000000000000081565b61023061038f366004612c97565b61083f565b6101bb6103a2366004612f59565b61086d565b6102306103b5366004612cc3565b6108b4565b6102306103c8366004612d49565b610905565b6000610414826103db6109b8565b907fffffffff00000000000000000000000000000000000000000000000000000000166000908152602091909152604090205460ff1690565b92915050565b606061042c610427610d63565b610e19565b905090565b60006104148261043f610920565b90610eaf565b610462610450610f92565b838361045a610920565b929190610f9c565b5050565b610485610471610f92565b84848461047c610920565b93929190611258565b505050565b6000610494610f92565b90506104a8816104a2610a40565b9061127e565b6104858383836104b6611301565b92919061132f565b6104f97f6d696e74657200000000000000000000000000000000000000000000000000006104ea610f92565b6104f2611301565b9190611405565b610462610504610f92565b8383604051806020016040528060008152506000610520610920565b94939291906114b1565b610485610535610f92565b848484610540610920565b93929190611657565b6105757f6d696e74657200000000000000000000000000000000000000000000000000006104ea610f92565b610485838383808060200260200160405190810160405280939291908181526020018383602002808284376000920191909152506105b69250610920915050565b9190611676565b6000610414826105cb610920565b90611861565b6000610414826105df610920565b906118ef565b6104626105f0610f92565b83836105fa610920565b92919061199b565b61062e7f6d696e74657200000000000000000000000000000000000000000000000000006104ea610f92565b61067e610639610f92565b858585858080601f0160208091040260200160405190810160405280939291908181526020018383808284376000920191909152506001925061052091506109209050565b50505050565b61069f61068f610f92565b82610698611301565b9190611a05565b50565b60006106ac610a40565b5473ffffffffffffffffffffffffffffffffffffffff16919050565b600061070c83836106d7611301565b60009283526020908152604080842073ffffffffffffffffffffffffffffffffffffffff909316845291905290205460ff1690565b9392505050565b606061042c610720610d63565b611aa9565b610462610730610f92565b838361073a610920565b929190611aba565b61067e61074d610f92565b85858585610759610920565b9493929190611be6565b6060600061076f610920565b6000848152600191909101602052604090205473ffffffffffffffffffffffffffffffffffffffff1603610804576040517f08c379a000000000000000000000000000000000000000000000000000000000815260206004820152601860248201527f4552433732313a206e6f6e2d6578697374696e67204e4654000000000000000060448201526064015b60405180910390fd5b61080f610427610c42565b61081883611bf6565b604051602001610829929190612f83565b6040516020818303038152906040529050919050565b6000610849610f92565b9050610857816104a2610a40565b610485838383610865611301565b929190611d2a565b600061070c838361087c610920565b73ffffffffffffffffffffffffffffffffffffffff928316600090815260209182526040808220939094168152919052205460ff1690565b6104856108bf610f92565b848484808060200260200160405190810160405280939291908181526020018383602002808284376000920191909152506108fd9250610920915050565b929190611df4565b61069f610910610f92565b82610919610a40565b9190611ede565b60008061041460017fddf3ee18ae6d688373c219468f8be446e7ae82215f4779d821c7ea5e8c13c0c1612fe1565b61098361097c60017ffddcdbf8ca7eb362a678daf3643ce3cf98ebf69ac314d25d376d5aeabd2f5332612fe1565b6001610cf3565b61069f7f80ac58cd0000000000000000000000000000000000000000000000000000000060016109b16109b8565b9190610b52565b60008061041460017f7180ffa89c91cf90d6c56dacabfc69bc5e36f3099d7eed2f5cc12c5dba016fe0612fe1565b610a1461097c60017f947245cdabe12ef4c13574b38217b361de48f57dd2dc345f43703c79bac2873d612fe1565b61069f817f01ffc9a7000000000000000000000000000000000000000000000000000000006001610b52565b60008061041460017f6a1da6973104ff7dedb9b4f5cab5830b3f4a0284ed754366cfc45568bd2d38df612fe1565b610a9c61097c60017ff1e2f4de496ffe5d046d751d8ec3c329ee011c6c6a229322971a7e02a207f973612fe1565b73ffffffffffffffffffffffffffffffffffffffff811615610b245781547fffffffffffffffffffffffff00000000000000000000000000000000000000001673ffffffffffffffffffffffffffffffffffffffff821690811783556040516000907f8be0079c531659141344cd1fd0a4f28419497f9722a3daafe3b4186f6b6457e0908290a35b6104627f7f5828d00000000000000000000000000000000000000000000000000000000060016109b16109b8565b7fffffffff000000000000000000000000000000000000000000000000000000008083169003610bde576040517f08c379a000000000000000000000000000000000000000000000000000000000815260206004820152601f60248201527f496e74657266616365446574656374696f6e3a2077726f6e672076616c75650060448201526064016107fb565b7fffffffff00000000000000000000000000000000000000000000000000000000919091166000908152602092909252604090912080547fffffffffffffffffffffffffffffffffffffffffffffffffffffffffffffff0016911515919091179055565b60008061041460017f5f5773833f4966721eb3773ed87c7208ea74d78f0d94de1d8074345cac67333f612fe1565b610c9e61097c60017fdf2ee7965c9504dc84db8f7759fc283282800c5a2fa3704c9f07f446b3b40a3f612fe1565b610cb28383610cab610d63565b9190610d91565b8051610cc49085906020840190612a82565b5061067e7f5b5e139f0000000000000000000000000000000000000000000000000000000060016109b16109b8565b815482908211610d5f576040517f08c379a000000000000000000000000000000000000000000000000000000000815260206004820152601860248201527f53746f726167653a2076657273696f6e2072656163686564000000000000000060448201526064016107fb565b5550565b60008061041460017f9c4269c0f9f430d98876ffe9767fbf3f3232ea91a549beb549e5329532520eb3612fe1565b610dbf61097c60017fa057eeb6560fae2987973d3bf40b89e6da66dd0b6aadac05dc6b5b0d7a8d4557612fe1565b8151610dd19084906020850190612a82565b508051610de79060018501906020840190612a82565b506104857f5b5e139f0000000000000000000000000000000000000000000000000000000060016109b16109b8565b90565b6060816000018054610e2a90612ff8565b80601f0160208091040260200160405190810160405280929190818152602001828054610e5690612ff8565b8015610ea35780601f10610e7857610100808354040283529160200191610ea3565b820191906000526020600020905b815481529060010190602001808311610e8657829003601f168201915b50505050509050919050565b600081815260018301602052604081205473ffffffffffffffffffffffffffffffffffffffff8116610f3d576040517f08c379a000000000000000000000000000000000000000000000000000000000815260206004820152601860248201527f4552433732313a206e6f6e2d6578697374696e67204e4654000000000000000060448201526064016107fb565b74010000000000000000000000000000000000000000811615610f88575050600081815260038301602052604090205473ffffffffffffffffffffffffffffffffffffffff16610414565b6000915050610414565b600061042c61200a565b600081815260018501602052604081205490819003611017576040517f08c379a000000000000000000000000000000000000000000000000000000000815260206004820152601860248201527f4552433732313a206e6f6e2d6578697374696e67204e4654000000000000000060448201526064016107fb565b8073ffffffffffffffffffffffffffffffffffffffff8082169085160361109a576040517f08c379a000000000000000000000000000000000000000000000000000000000815260206004820152601560248201527f4552433732313a2073656c662d617070726f76616c000000000000000000000060448201526064016107fb565b6110a5868287612162565b61110b576040517f08c379a000000000000000000000000000000000000000000000000000000000815260206004820152601b60248201527f4552433732313a206e6f6e2d617070726f7665642073656e646572000000000060448201526064016107fb565b73ffffffffffffffffffffffffffffffffffffffff8416611172577401000000000000000000000000000000000000000082161561116d576000838152600187016020526040902073ffffffffffffffffffffffffffffffffffffffff821690555b6111f5565b7401000000000000000000000000000000000000000082178083146111a557600084815260018801602052604090208190555b506000838152600387016020526040902080547fffffffffffffffffffffffff00000000000000000000000000000000000000001673ffffffffffffffffffffffffffffffffffffffff86161790555b828473ffffffffffffffffffffffffffffffffffffffff168273ffffffffffffffffffffffffffffffffffffffff167f8c5be1e5ebec7d5bd14f71427d1e84f3dd0314c0f7b2291e5b200ac8c7c3b92560405160405180910390a4505050505050565b61127785858585856040518060200160405280600081525060006121d6565b5050505050565b815473ffffffffffffffffffffffffffffffffffffffff828116911614610462576040517f08c379a000000000000000000000000000000000000000000000000000000000815260206004820152601860248201527f4f776e6572736869703a206e6f7420746865206f776e6572000000000000000060448201526064016107fb565b60008061041460017fc8a24fbf085abf1493c5f225802d03df3ece6cd19f18edff36c56d854cddac9e612fe1565b60008381526020858152604080832073ffffffffffffffffffffffffffffffffffffffff8616845290915290205460ff1661067e5760008381526020858152604080832073ffffffffffffffffffffffffffffffffffffffff8681168086529184529382902080547fffffffffffffffffffffffffffffffffffffffffffffffffffffffffffffff00166001179055815187815292830152918316918101919091527f2f8788117e7eff1d82e926ec794901d17c78024a50270940304540a733656f0d906060015b60405180910390a150505050565b60008281526020848152604080832073ffffffffffffffffffffffffffffffffffffffff8516845290915290205460ff16610485576114438261230c565b6040516020016114539190613045565b604080517fffffffffffffffffffffffffffffffffffffffffffffffffffffffffffffffe0818403018152908290527f08c379a00000000000000000000000000000000000000000000000000000000082526107fb91600401612bdc565b73ffffffffffffffffffffffffffffffffffffffff841661152e576040517f08c379a000000000000000000000000000000000000000000000000000000000815260206004820152601460248201527f4552433732313a206d696e7420746f207a65726f00000000000000000000000060448201526064016107fb565b60008381526001870160205260409020547f2153000000000000000000000000000000000000000000000000000000000000016115c7576040517f08c379a000000000000000000000000000000000000000000000000000000000815260206004820152601160248201527f4552433732313a206275726e74204e465400000000000000000000000000000060448201526064016107fb565b6115d4868585600061248d565b604051839073ffffffffffffffffffffffffffffffffffffffff8616906000907fddf252ad1be2c89b69c2b068fc378daa952ba7f163c4a11628f55a4df523b3ef908290a480801561163c575073ffffffffffffffffffffffffffffffffffffffff84163b15155b1561164f5761164f856000868686612572565b505050505050565b61127785858585856040518060200160405280600081525060016121d6565b73ffffffffffffffffffffffffffffffffffffffff82166116f3576040517f08c379a000000000000000000000000000000000000000000000000000000000815260206004820152601460248201527f4552433732313a206d696e7420746f207a65726f00000000000000000000000060448201526064016107fb565b805160005b81811461181e576000838281518110611713576117136130b1565b602002602001015190507fdead00000000000000000000000000000000000000000000000000000000000086600101600083815260200190815260200160002054036117bb576040517f08c379a000000000000000000000000000000000000000000000000000000000815260206004820152601160248201527f4552433732313a206275726e74204e465400000000000000000000000000000060448201526064016107fb565b6117c8868683600161248d565b604051819073ffffffffffffffffffffffffffffffffffffffff8716906000907fddf252ad1be2c89b69c2b068fc378daa952ba7f163c4a11628f55a4df523b3ef908290a450611817816130e0565b90506116f8565b5073ffffffffffffffffffffffffffffffffffffffff8316600090815260028501602052604081208054839290611856908490613118565b909155505050505050565b600081815260018301602052604081205473ffffffffffffffffffffffffffffffffffffffff811661070c576040517f08c379a000000000000000000000000000000000000000000000000000000000815260206004820152601860248201527f4552433732313a206e6f6e2d6578697374696e67204e4654000000000000000060448201526064016107fb565b600073ffffffffffffffffffffffffffffffffffffffff821661196e576040517f08c379a000000000000000000000000000000000000000000000000000000000815260206004820152601460248201527f4552433732313a207a65726f206164647265737300000000000000000000000060448201526064016107fb565b5073ffffffffffffffffffffffffffffffffffffffff166000908152600291909101602052604090205490565b60006119a8858486612162565b90506119b985858585856000612698565b604051829060009073ffffffffffffffffffffffffffffffffffffffff8616907fddf252ad1be2c89b69c2b068fc378daa952ba7f163c4a11628f55a4df523b3ef908390a45050505050565b611a10838284611405565b60008181526020848152604080832073ffffffffffffffffffffffffffffffffffffffff86168085529083529281902080547fffffffffffffffffffffffffffffffffffffffffffffffffffffffffffffff0016905580518481529182018390528101919091527ff6391f5c32d9c69d2a47ea670b442974b53935d1edc7fd64eb21e047a839171b9060600160405180910390a1505050565b6060816001018054610e2a90612ff8565b8273ffffffffffffffffffffffffffffffffffffffff168273ffffffffffffffffffffffffffffffffffffffff1603611b4f576040517f08c379a000000000000000000000000000000000000000000000000000000000815260206004820152601560248201527f4552433732313a2073656c662d617070726f76616c000000000000000000000060448201526064016107fb565b73ffffffffffffffffffffffffffffffffffffffff8381166000818152602087815260408083209487168084529482529182902080547fffffffffffffffffffffffffffffffffffffffffffffffffffffffffffffff001686151590811790915591519182527f17307eab39ab6107e8899845ad3d59bd9653f200f220920489ca2b5937696c31910160405180910390a350505050565b61164f86868686868660016121d6565b606081600003611c3957505060408051808201909152600181527f3000000000000000000000000000000000000000000000000000000000000000602082015290565b8160005b8115611c635780611c4d816130e0565b9150611c5c9050600a83613130565b9150611c3d565b60008167ffffffffffffffff811115611c7e57611c7e612e30565b6040519080825280601f01601f191660200182016040528015611ca8576020820181803683370190505b5090506000611cb8600184612fe1565b90508593505b8315611d2157600a840660300160f81b82828060019003935081518110611ce757611ce76130b1565b60200101907effffffffffffffffffffffffffffffffffffffffffffffffffffffffffffff1916908160001a905350600a84049350611cbe565b50949350505050565b60008381526020858152604080832073ffffffffffffffffffffffffffffffffffffffff8616845290915290205460ff161561067e5760008381526020858152604080832073ffffffffffffffffffffffffffffffffffffffff8681168086529184529382902080547fffffffffffffffffffffffffffffffffffffffffffffffffffffffffffffff00169055815187815292830152918316918101919091527ff6391f5c32d9c69d2a47ea670b442974b53935d1edc7fd64eb21e047a839171b906060016113f7565b6000611e01858486612162565b825190915060005b818114611e93576000848281518110611e2457611e246130b1565b60200260200101519050611e3d88888884886001612698565b604051819060009073ffffffffffffffffffffffffffffffffffffffff8916907fddf252ad1be2c89b69c2b068fc378daa952ba7f163c4a11628f55a4df523b3ef908390a450611e8c816130e0565b9050611e09565b50801561164f5773ffffffffffffffffffffffffffffffffffffffff8416600090815260028701602052604081208054839290611ed1908490612fe1565b9091555050505050505050565b825473ffffffffffffffffffffffffffffffffffffffff9081169083168114611f63576040517f08c379a000000000000000000000000000000000000000000000000000000000815260206004820152601860248201527f4f776e6572736869703a206e6f7420746865206f776e6572000000000000000060448201526064016107fb565b8173ffffffffffffffffffffffffffffffffffffffff168173ffffffffffffffffffffffffffffffffffffffff161461067e5783547fffffffffffffffffffffffff00000000000000000000000000000000000000001673ffffffffffffffffffffffffffffffffffffffff8381169182178655604051908316907f8be0079c531659141344cd1fd0a4f28419497f9722a3daafe3b4186f6b6457e090600090a350505050565b60003332810361201957919050565b6000367fffffffffffffffffffffffffffffffffffffffffffffffffffffffffffffffec013560601c90507f000000000000000000000000000000000000000000000000000000000000000073ffffffffffffffffffffffffffffffffffffffff168273ffffffffffffffffffffffffffffffffffffffff16148061215157506040517fe60125d600000000000000000000000000000000000000000000000000000000815273ffffffffffffffffffffffffffffffffffffffff828116600483015283811660248301527f0000000000000000000000000000000000000000000000000000000000000000169063e60125d690604401602060405180830381865afa15801561212d573d6000803e3d6000fd5b505050506040513d601f19601f82011682018060405250810190612151919061316b565b1561215c5792915050565b50919050565b60008173ffffffffffffffffffffffffffffffffffffffff168373ffffffffffffffffffffffffffffffffffffffff1614806121ce575073ffffffffffffffffffffffffffffffffffffffff8084166000908152602086815260408083209386168352929052205460ff165b949350505050565b73ffffffffffffffffffffffffffffffffffffffff8416612253576040517f08c379a000000000000000000000000000000000000000000000000000000000815260206004820152601860248201527f4552433732313a207472616e7366657220746f207a65726f000000000000000060448201526064016107fb565b6000612260888789612162565b9050612272888888888886600061285a565b838573ffffffffffffffffffffffffffffffffffffffff168773ffffffffffffffffffffffffffffffffffffffff167fddf252ad1be2c89b69c2b068fc378daa952ba7f163c4a11628f55a4df523b3ef60405160405180910390a48180156122f0575073ffffffffffffffffffffffffffffffffffffffff85163b15155b15612302576123028787878787612572565b5050505050505050565b6060600082900361232b57505060408051602081019091526000815290565b60008260405160200161234091815260200190565b604080517fffffffffffffffffffffffffffffffffffffffffffffffffffffffffffffffe08184030181529190529050601f5b818181518110612385576123856130b1565b01602001517fff00000000000000000000000000000000000000000000000000000000000000166000036123c3576123bc81613188565b9050612373565b60006123d0826001613118565b67ffffffffffffffff8111156123e8576123e8612e30565b6040519080825280601f01601f191660200182016040528015612412576020820181803683370190505b50905060005b828111611d2157838181518110612431576124316130b1565b602001015160f81c60f81b82828151811061244e5761244e6130b1565b60200101907effffffffffffffffffffffffffffffffffffffffffffffffffffffffffffff1916908160001a905350612486816130e0565b9050612418565b600082815260018501602052604090205415612505576040517f08c379a000000000000000000000000000000000000000000000000000000000815260206004820152601a60248201527f4552433732313a206578697374696e672f6275726e74204e465400000000000060448201526064016107fb565b6000828152600185016020526040902073ffffffffffffffffffffffffffffffffffffffff841690558061067e5773ffffffffffffffffffffffffffffffffffffffff8316600090815260028501602052604081208054909190612568906130e0565b9091555050505050565b6040517f150b7a02000000000000000000000000000000000000000000000000000000008082529073ffffffffffffffffffffffffffffffffffffffff85169063150b7a02906125cc9089908990889088906004016131bd565b6020604051808303816000875af11580156125eb573d6000803e3d6000fd5b505050506040513d601f19601f8201168201806040525081019061260f9190613206565b7fffffffff000000000000000000000000000000000000000000000000000000001614611277576040517f08c379a000000000000000000000000000000000000000000000000000000000815260206004820152601860248201527f4552433732313a207472616e736665722072656675736564000000000000000060448201526064016107fb565b600083815260018701602052604090205473ffffffffffffffffffffffffffffffffffffffff8581169082161461272b576040517f08c379a000000000000000000000000000000000000000000000000000000000815260206004820152601560248201527f4552433732313a206e6f6e2d6f776e6564204e4654000000000000000000000060448201526064016107fb565b826127e4577401000000000000000000000000000000000000000081161580159061277e5750600084815260038801602052604090205473ffffffffffffffffffffffffffffffffffffffff8781169116145b6127e4576040517f08c379a000000000000000000000000000000000000000000000000000000000815260206004820152601b60248201527f4552433732313a206e6f6e2d617070726f7665642073656e646572000000000060448201526064016107fb565b600084815260018801602052604090207fdead0000000000000000000000000000000000000000000000000000000000009055816128515773ffffffffffffffffffffffffffffffffffffffff8516600090815260028801602052604081208054909190611ed190613188565b50505050505050565b600083815260018801602052604090205473ffffffffffffffffffffffffffffffffffffffff868116908216146128ed576040517f08c379a000000000000000000000000000000000000000000000000000000000815260206004820152601560248201527f4552433732313a206e6f6e2d6f776e6564204e4654000000000000000000000060448201526064016107fb565b826129a657740100000000000000000000000000000000000000008116158015906129405750600084815260038901602052604090205473ffffffffffffffffffffffffffffffffffffffff8881169116145b6129a6576040517f08c379a000000000000000000000000000000000000000000000000000000000815260206004820152601b60248201527f4552433732313a206e6f6e2d617070726f7665642073656e646572000000000060448201526064016107fb565b6000848152600189016020526040902073ffffffffffffffffffffffffffffffffffffffff86169055816123025761230288878760018173ffffffffffffffffffffffffffffffffffffffff168373ffffffffffffffffffffffffffffffffffffffff161461067e5773ffffffffffffffffffffffffffffffffffffffff8316600090815260028501602052604081208054839290612a46908490612fe1565b909155505073ffffffffffffffffffffffffffffffffffffffff8216600090815260028501602052604081208054839290611856908490613118565b828054612a8e90612ff8565b90600052602060002090601f016020900481019282612ab05760008555612af6565b82601f10612ac957805160ff1916838001178555612af6565b82800160010185558215612af6579182015b82811115612af6578251825591602001919060010190612adb565b50612b02929150612b06565b5090565b5b80821115612b025760008155600101612b07565b7fffffffff000000000000000000000000000000000000000000000000000000008116811461069f57600080fd5b600060208284031215612b5b57600080fd5b813561070c81612b1b565b60005b83811015612b81578181015183820152602001612b69565b8381111561067e5750506000910152565b60008151808452612baa816020860160208601612b66565b601f017fffffffffffffffffffffffffffffffffffffffffffffffffffffffffffffffe0169290920160200192915050565b60208152600061070c6020830184612b92565b600060208284031215612c0157600080fd5b5035919050565b803573ffffffffffffffffffffffffffffffffffffffff81168114612c2c57600080fd5b919050565b60008060408385031215612c4457600080fd5b612c4d83612c08565b946020939093013593505050565b600080600060608486031215612c7057600080fd5b612c7984612c08565b9250612c8760208501612c08565b9150604084013590509250925092565b60008060408385031215612caa57600080fd5b82359150612cba60208401612c08565b90509250929050565b600080600060408486031215612cd857600080fd5b612ce184612c08565b9250602084013567ffffffffffffffff80821115612cfe57600080fd5b818601915086601f830112612d1257600080fd5b813581811115612d2157600080fd5b8760208260051b8501011115612d3657600080fd5b6020830194508093505050509250925092565b600060208284031215612d5b57600080fd5b61070c82612c08565b60008060008060608587031215612d7a57600080fd5b612d8385612c08565b935060208501359250604085013567ffffffffffffffff80821115612da757600080fd5b818701915087601f830112612dbb57600080fd5b813581811115612dca57600080fd5b886020828501011115612ddc57600080fd5b95989497505060200194505050565b801515811461069f57600080fd5b60008060408385031215612e0c57600080fd5b612e1583612c08565b91506020830135612e2581612deb565b809150509250929050565b7f4e487b7100000000000000000000000000000000000000000000000000000000600052604160045260246000fd5b60008060008060808587031215612e7557600080fd5b612e7e85612c08565b9350612e8c60208601612c08565b925060408501359150606085013567ffffffffffffffff80821115612eb057600080fd5b818701915087601f830112612ec457600080fd5b813581811115612ed657612ed6612e30565b604051601f82017fffffffffffffffffffffffffffffffffffffffffffffffffffffffffffffffe0908116603f01168101908382118183101715612f1c57612f1c612e30565b816040528281528a6020848701011115612f3557600080fd5b82602086016020830137600060208483010152809550505050505092959194509250565b60008060408385031215612f6c57600080fd5b612f7583612c08565b9150612cba60208401612c08565b60008351612f95818460208801612b66565b835190830190612fa9818360208801612b66565b01949350505050565b7f4e487b7100000000000000000000000000000000000000000000000000000000600052601160045260246000fd5b600082821015612ff357612ff3612fb2565b500390565b600181811c9082168061300c57607f821691505b60208210810361215c577f4e487b7100000000000000000000000000000000000000000000000000000000600052602260045260246000fd5b7f416363657373436f6e74726f6c3a206d697373696e672027000000000000000081526000825161307d816018850160208701612b66565b7f2720726f6c6500000000000000000000000000000000000000000000000000006018939091019283015250601e01919050565b7f4e487b7100000000000000000000000000000000000000000000000000000000600052603260045260246000fd5b60007fffffffffffffffffffffffffffffffffffffffffffffffffffffffffffffffff820361311157613111612fb2565b5060010190565b6000821982111561312b5761312b612fb2565b500190565b600082613166577f4e487b7100000000000000000000000000000000000000000000000000000000600052601260045260246000fd5b500490565b60006020828403121561317d57600080fd5b815161070c81612deb565b60008161319757613197612fb2565b507fffffffffffffffffffffffffffffffffffffffffffffffffffffffffffffffff0190565b600073ffffffffffffffffffffffffffffffffffffffff8087168352808616602084015250836040830152608060608301526131fc6080830184612b92565b9695505050505050565b60006020828403121561321857600080fd5b815161070c81612b1b56fea264697066735822122093e96ce7ff3413a624179d71e96a2c125f8ad286fcbe994af2863f494fea8cf464736f6c634300080d0033",
  "linkReferences": {},
  "deployedLinkReferences": {}
}