{
  "_format": "hh-sol-artifact-1",
  "contractName": "ERC721MintableOnceMock",
  "sourceName": "contracts/mocks/token/ERC721/ERC721MintableOnceMock.sol",
  "abi": [
    {
      "inputs": [
        {
          "internalType": "contract IForwarderRegistry",
          "name": "forwarderRegistry",
          "type": "address"
        }
      ],
      "stateMutability": "nonpayable",
      "type": "constructor"
    },
    {
      "anonymous": false,
      "inputs": [
        {
          "indexed": true,
          "internalType": "address",
          "name": "owner",
          "type": "address"
        },
        {
          "indexed": true,
          "internalType": "address",
          "name": "approved",
          "type": "address"
        },
        {
          "indexed": true,
          "internalType": "uint256",
          "name": "tokenId",
          "type": "uint256"
        }
      ],
      "name": "Approval",
      "type": "event"
    },
    {
      "anonymous": false,
      "inputs": [
        {
          "indexed": true,
          "internalType": "address",
          "name": "owner",
          "type": "address"
        },
        {
          "indexed": true,
          "internalType": "address",
          "name": "operator",
          "type": "address"
        },
        {
          "indexed": false,
          "internalType": "bool",
          "name": "approved",
          "type": "bool"
        }
      ],
      "name": "ApprovalForAll",
      "type": "event"
    },
    {
      "anonymous": false,
      "inputs": [
        {
          "indexed": true,
          "internalType": "address",
          "name": "previousOwner",
          "type": "address"
        },
        {
          "indexed": true,
          "internalType": "address",
          "name": "newOwner",
          "type": "address"
        }
      ],
      "name": "OwnershipTransferred",
      "type": "event"
    },
    {
      "anonymous": false,
      "inputs": [
        {
          "indexed": false,
          "internalType": "bytes32",
          "name": "role",
          "type": "bytes32"
        },
        {
          "indexed": false,
          "internalType": "address",
          "name": "account",
          "type": "address"
        },
        {
          "indexed": false,
          "internalType": "address",
          "name": "operator",
          "type": "address"
        }
      ],
      "name": "RoleGranted",
      "type": "event"
    },
    {
      "anonymous": false,
      "inputs": [
        {
          "indexed": false,
          "internalType": "bytes32",
          "name": "role",
          "type": "bytes32"
        },
        {
          "indexed": false,
          "internalType": "address",
          "name": "account",
          "type": "address"
        },
        {
          "indexed": false,
          "internalType": "address",
          "name": "operator",
          "type": "address"
        }
      ],
      "name": "RoleRevoked",
      "type": "event"
    },
    {
      "anonymous": false,
      "inputs": [
        {
          "indexed": true,
          "internalType": "address",
          "name": "from",
          "type": "address"
        },
        {
          "indexed": true,
          "internalType": "address",
          "name": "to",
          "type": "address"
        },
        {
          "indexed": true,
          "internalType": "uint256",
          "name": "tokenId",
          "type": "uint256"
        }
      ],
      "name": "Transfer",
      "type": "event"
    },
    {
      "inputs": [],
      "name": "MINTER_ROLE",
      "outputs": [
        {
          "internalType": "bytes32",
          "name": "",
          "type": "bytes32"
        }
      ],
      "stateMutability": "view",
      "type": "function"
    },
    {
      "inputs": [],
      "name": "__msgData",
      "outputs": [
        {
          "internalType": "bytes",
          "name": "",
          "type": "bytes"
        }
      ],
      "stateMutability": "view",
      "type": "function"
    },
    {
      "inputs": [
        {
          "internalType": "address",
          "name": "to",
          "type": "address"
        },
        {
          "internalType": "uint256",
          "name": "tokenId",
          "type": "uint256"
        }
      ],
      "name": "approve",
      "outputs": [],
      "stateMutability": "nonpayable",
      "type": "function"
    },
    {
      "inputs": [
        {
          "internalType": "address",
          "name": "owner",
          "type": "address"
        }
      ],
      "name": "balanceOf",
      "outputs": [
        {
          "internalType": "uint256",
          "name": "",
          "type": "uint256"
        }
      ],
      "stateMutability": "view",
      "type": "function"
    },
    {
      "inputs": [
        {
          "internalType": "address",
          "name": "from",
          "type": "address"
        },
        {
          "internalType": "uint256[]",
          "name": "tokenIds",
          "type": "uint256[]"
        }
      ],
      "name": "batchBurnFrom",
      "outputs": [],
      "stateMutability": "nonpayable",
      "type": "function"
    },
    {
      "inputs": [
        {
          "internalType": "address",
          "name": "to",
          "type": "address"
        },
        {
          "internalType": "uint256[]",
          "name": "tokenIds",
          "type": "uint256[]"
        }
      ],
      "name": "batchMint",
      "outputs": [],
      "stateMutability": "nonpayable",
      "type": "function"
    },
    {
      "inputs": [
        {
          "internalType": "address",
          "name": "from",
          "type": "address"
        },
        {
          "internalType": "uint256",
          "name": "tokenId",
          "type": "uint256"
        }
      ],
      "name": "burnFrom",
      "outputs": [],
      "stateMutability": "nonpayable",
      "type": "function"
    },
    {
      "inputs": [
        {
          "internalType": "address[]",
          "name": "recipients",
          "type": "address[]"
        },
        {
          "internalType": "uint256[]",
          "name": "tokenIds",
          "type": "uint256[]"
        }
      ],
      "name": "deliver",
      "outputs": [],
      "stateMutability": "nonpayable",
      "type": "function"
    },
    {
      "inputs": [
        {
          "internalType": "uint256",
          "name": "tokenId",
          "type": "uint256"
        }
      ],
      "name": "getApproved",
      "outputs": [
        {
          "internalType": "address",
          "name": "operator",
          "type": "address"
        }
      ],
      "stateMutability": "view",
      "type": "function"
    },
    {
      "inputs": [
        {
          "internalType": "bytes32",
          "name": "role",
          "type": "bytes32"
        },
        {
          "internalType": "address",
          "name": "account",
          "type": "address"
        }
      ],
      "name": "grantRole",
      "outputs": [],
      "stateMutability": "nonpayable",
      "type": "function"
    },
    {
      "inputs": [
        {
          "internalType": "bytes32",
          "name": "role",
          "type": "bytes32"
        },
        {
          "internalType": "address",
          "name": "account",
          "type": "address"
        }
      ],
      "name": "hasRole",
      "outputs": [
        {
          "internalType": "bool",
          "name": "",
          "type": "bool"
        }
      ],
      "stateMutability": "view",
      "type": "function"
    },
    {
      "inputs": [
        {
          "internalType": "address",
          "name": "owner",
          "type": "address"
        },
        {
          "internalType": "address",
          "name": "operator",
          "type": "address"
        }
      ],
      "name": "isApprovedForAll",
      "outputs": [
        {
          "internalType": "bool",
          "name": "",
          "type": "bool"
        }
      ],
      "stateMutability": "view",
      "type": "function"
    },
    {
      "inputs": [
        {
          "internalType": "address",
          "name": "to",
          "type": "address"
        },
        {
          "internalType": "uint256",
          "name": "tokenId",
          "type": "uint256"
        }
      ],
      "name": "mint",
      "outputs": [],
      "stateMutability": "nonpayable",
      "type": "function"
    },
    {
      "inputs": [],
      "name": "owner",
      "outputs": [
        {
          "internalType": "address",
          "name": "",
          "type": "address"
        }
      ],
      "stateMutability": "view",
      "type": "function"
    },
    {
      "inputs": [
        {
          "internalType": "uint256",
          "name": "tokenId",
          "type": "uint256"
        }
      ],
      "name": "ownerOf",
      "outputs": [
        {
          "internalType": "address",
          "name": "",
          "type": "address"
        }
      ],
      "stateMutability": "view",
      "type": "function"
    },
    {
      "inputs": [
        {
          "internalType": "bytes32",
          "name": "role",
          "type": "bytes32"
        }
      ],
      "name": "renounceRole",
      "outputs": [],
      "stateMutability": "nonpayable",
      "type": "function"
    },
    {
      "inputs": [
        {
          "internalType": "bytes32",
          "name": "role",
          "type": "bytes32"
        },
        {
          "internalType": "address",
          "name": "account",
          "type": "address"
        }
      ],
      "name": "revokeRole",
      "outputs": [],
      "stateMutability": "nonpayable",
      "type": "function"
    },
    {
      "inputs": [
        {
          "internalType": "address",
          "name": "to",
          "type": "address"
        },
        {
          "internalType": "uint256",
          "name": "tokenId",
          "type": "uint256"
        },
        {
          "internalType": "bytes",
          "name": "data",
          "type": "bytes"
        }
      ],
      "name": "safeMint",
      "outputs": [],
      "stateMutability": "nonpayable",
      "type": "function"
    },
    {
      "inputs": [
        {
          "internalType": "address",
          "name": "from",
          "type": "address"
        },
        {
          "internalType": "address",
          "name": "to",
          "type": "address"
        },
        {
          "internalType": "uint256",
          "name": "tokenId",
          "type": "uint256"
        }
      ],
      "name": "safeTransferFrom",
      "outputs": [],
      "stateMutability": "nonpayable",
      "type": "function"
    },
    {
      "inputs": [
        {
          "internalType": "address",
          "name": "from",
          "type": "address"
        },
        {
          "internalType": "address",
          "name": "to",
          "type": "address"
        },
        {
          "internalType": "uint256",
          "name": "tokenId",
          "type": "uint256"
        },
        {
          "internalType": "bytes",
          "name": "_data",
          "type": "bytes"
        }
      ],
      "name": "safeTransferFrom",
      "outputs": [],
      "stateMutability": "nonpayable",
      "type": "function"
    },
    {
      "inputs": [
        {
          "internalType": "address",
          "name": "operator",
          "type": "address"
        },
        {
          "internalType": "bool",
          "name": "approved",
          "type": "bool"
        }
      ],
      "name": "setApprovalForAll",
      "outputs": [],
      "stateMutability": "nonpayable",
      "type": "function"
    },
    {
      "inputs": [
        {
          "internalType": "bytes4",
          "name": "interfaceId",
          "type": "bytes4"
        }
      ],
      "name": "supportsInterface",
      "outputs": [
        {
          "internalType": "bool",
          "name": "",
          "type": "bool"
        }
      ],
      "stateMutability": "view",
      "type": "function"
    },
    {
      "inputs": [
        {
          "internalType": "address",
          "name": "from",
          "type": "address"
        },
        {
          "internalType": "address",
          "name": "to",
          "type": "address"
        },
        {
          "internalType": "uint256",
          "name": "tokenId",
          "type": "uint256"
        }
      ],
      "name": "transferFrom",
      "outputs": [],
      "stateMutability": "nonpayable",
      "type": "function"
    },
    {
      "inputs": [
        {
          "internalType": "address",
          "name": "newOwner",
          "type": "address"
        }
      ],
      "name": "transferOwnership",
      "outputs": [],
      "stateMutability": "nonpayable",
      "type": "function"
    },
    {
      "inputs": [
        {
          "internalType": "uint256",
          "name": "tokenId",
          "type": "uint256"
        }
      ],
      "name": "wasBurnt",
      "outputs": [
        {
          "internalType": "bool",
          "name": "tokenWasBurnt",
          "type": "bool"
        }
      ],
      "stateMutability": "view",
      "type": "function"
    }
  ],
  "bytecode": "0x60a06040523480156200001157600080fd5b506040516200380c3803806200380c8339810160408190526200003491620002e3565b80336200004b620000cc60201b620008b51760201c565b6200007981620000656200010660201b620008ec1760201c565b6200013c60201b6200091a1790919060201c565b506200008f620001ba60201b620009d01760201c565b620000a4620001dd60201b620009fe1760201c565b620000b96200020060201b62000a2c1760201c565b6001600160a01b0316608052506200033b565b620001046380ac58cd60e01b6001620000ef6200022360201b62000a561760201c565b6200025360201b62000a84179092919060201c565b565b6000806200013660017fc9ed16f33ab3a66c84bfd83099ccb2a8845871e2e1c1928f63797152f0fd54cd62000315565b92915050565b6001600160a01b03811615620001935781546001600160a01b0319166001600160a01b03821690811783556040516000907f8be0079c531659141344cd1fd0a4f28419497f9722a3daafe3b4186f6b6457e0908290a35b620001b66307f5828d60e41b6001620000ef6200022360201b62000a561760201c565b5050565b62000104638e773e1360e01b6001620000ef6200022360201b62000a561760201c565b62000104634ed2f41960e11b6001620000ef6200022360201b62000a561760201c565b62000104638b8b4ef560e01b6001620000ef6200022360201b62000a561760201c565b6000806200013660017fca9d3e17f264b0f3984e2634e94adb37fa3e6a8103f06aeae6fa59e21c769f5e62000315565b600160e01b6001600160e01b0319831601620002b55760405162461bcd60e51b815260206004820152601f60248201527f496e74657266616365446574656374696f6e3a2077726f6e672076616c756500604482015260640160405180910390fd5b6001600160e01b03199190911660009081526020929092526040909120805460ff1916911515919091179055565b600060208284031215620002f657600080fd5b81516001600160a01b03811681146200030e57600080fd5b9392505050565b6000828210156200033657634e487b7160e01b600052601160045260246000fd5b500390565b6080516134a06200036c600039600081816127bf0152818161285f0152818161296801526129d201526134a06000f3fe608060405234801561001057600080fd5b50600436106101a35760003560e01c80638832e6e3116100ee578063b88d4fde11610097578063d547741f11610071578063d547741f1461038d578063e985e9c5146103a0578063f2472965146103b3578063f2fde38b146103c657600080fd5b8063b88d4fde14610340578063c77c695514610353578063d53913931461036657600080fd5b806391d14854116100c857806391d14854146103075780639da5e8321461031a578063a22cb4651461032d57600080fd5b80638832e6e3146102d95780638bb9c5bf146102ec5780638da5cb5b146102ff57600080fd5b806340c10f19116101505780636352211e1161012a5780636352211e1461029257806370a08231146102a557806379cc6790146102c657600080fd5b806340c10f191461025957806342842e0e1461026c5780634684d7e91461027f57600080fd5b806323b872dd1161018157806323b872dd1461021d5780632f2ff15d1461023057806331e66e1e1461024357600080fd5b806301ffc9a7146101a8578063081812fc146101d0578063095ea7b314610208575b600080fd5b6101bb6101b6366004612dd8565b6103d9565b60405190151581526020015b60405180910390f35b6101e36101de366004612df5565b6103f3565b60405173ffffffffffffffffffffffffffffffffffffffff90911681526020016101c7565b61021b610216366004612e37565b610407565b005b61021b61022b366004612e61565b610428565b61021b61023e366004612e9d565b61044c565b61024b610480565b6040516101c7929190612ec9565b61021b610267366004612e37565b610493565b61021b61027a366004612e61565b6104e2565b61021b61028d366004612f62565b610501565b6101e36102a0366004612df5565b610575565b6102b86102b3366004612fb5565b610589565b6040519081526020016101c7565b61021b6102d4366004612e37565b61059d565b61021b6102e7366004612fd0565b6105ba565b61021b6102fa366004612df5565b610642565b6101e3610660565b6101bb610315366004612e9d565b61068c565b61021b610328366004613057565b6106d7565b61021b61033b3660046130d1565b61077b565b61021b61034e366004613137565b610798565b6101bb610361366004612df5565b6107b9565b6102b87f6d696e746572000000000000000000000000000000000000000000000000000081565b61021b61039b366004612e9d565b6107cd565b6101bb6103ae366004613231565b6107fb565b61021b6103c1366004612f62565b610849565b61021b6103d4366004612fb5565b61089a565b60006103ed826103e7610a56565b90610b95565b92915050565b60006103ed82610401610c6f565b90610c9d565b610424610412610d7e565b838361041c610c6f565b929190610d88565b5050565b610447610433610d7e565b84848461043e610c6f565b93929190611051565b505050565b6000610456610d7e565b905061046a816104646108ec565b906113a6565b610447838383610478611429565b929190611457565b36600061048b61152d565b915091509091565b6104ce7f6d696e74657200000000000000000000000000000000000000000000000000006104bf610d7e565b6104c7611429565b9190611538565b61042482826104db610c6f565b91906115e4565b6104476104ed610d7e565b8484846104f8610c6f565b939291906117e6565b61052d7f6d696e74657200000000000000000000000000000000000000000000000000006104bf610d7e565b6104478383838080602002602001604051908101604052809392919081815260200183836020028082843760009201919091525061056e9250610c6f915050565b9190611833565b60006103ed82610583610c6f565b90611a88565b60006103ed82610597610c6f565b90611b1e565b6104246105a8610d7e565b83836105b2610c6f565b929190611bca565b6105e67f6d696e74657200000000000000000000000000000000000000000000000000006104bf610d7e565b61063c6105f1610d7e565b858585858080601f0160208091040260200160405190810160405280939291908181526020018383808284376000920191909152506106339250610c6f915050565b93929190611dde565b50505050565b61065d61064d610d7e565b82610656611429565b9190611e14565b50565b600061068761066d6108ec565b5473ffffffffffffffffffffffffffffffffffffffff1690565b905090565b60006106d0838361069b611429565b60009283526020908152604080842073ffffffffffffffffffffffffffffffffffffffff909316845291905290205460ff1690565b9392505050565b6107037f6d696e74657200000000000000000000000000000000000000000000000000006104bf610d7e565b61063c848480806020026020016040519081016040528093929190818152602001838360200280828437600092019190915250506040805160208088028281018201909352878252909350879250869182918501908490808284376000920191909152506107749250610c6f915050565b9190611eb8565b610424610786610d7e565b8383610790610c6f565b929190612192565b61063c6107a3610d7e565b858585856107af610c6f565b94939291906122c2565b60006103ed826107c7610c6f565b90612301565b60006107d7610d7e565b90506107e5816104646108ec565b6104478383836107f3611429565b929190612337565b60006106d0838361080a610c6f565b919073ffffffffffffffffffffffffffffffffffffffff9182166000908152600393909301602090815260408085209290931684525290205460ff1690565b610447610854610d7e565b848484808060200260200160405190810160405280939291908181526020018383602002808284376000920191909152506108929250610c6f915050565b929190612401565b61065d6108a5610d7e565b826108ae6108ec565b9190612657565b6108ea7f80ac58cd0000000000000000000000000000000000000000000000000000000060016108e3610a56565b9190610a84565b565b6000806103ed60017fc9ed16f33ab3a66c84bfd83099ccb2a8845871e2e1c1928f63797152f0fd54cd61325b565b73ffffffffffffffffffffffffffffffffffffffff8116156109a25781547fffffffffffffffffffffffff00000000000000000000000000000000000000001673ffffffffffffffffffffffffffffffffffffffff821690811783556040516000907f8be0079c531659141344cd1fd0a4f28419497f9722a3daafe3b4186f6b6457e0908290a35b6104247f7f5828d00000000000000000000000000000000000000000000000000000000060016108e3610a56565b6108ea7f8e773e130000000000000000000000000000000000000000000000000000000060016108e3610a56565b6108ea7f9da5e8320000000000000000000000000000000000000000000000000000000060016108e3610a56565b6108ea7f8b8b4ef50000000000000000000000000000000000000000000000000000000060016108e35b6000806103ed60017fca9d3e17f264b0f3984e2634e94adb37fa3e6a8103f06aeae6fa59e21c769f5e61325b565b7c01000000000000000000000000000000000000000000000000000000007fffffffff00000000000000000000000000000000000000000000000000000000831601610b31576040517f08c379a000000000000000000000000000000000000000000000000000000000815260206004820152601f60248201527f496e74657266616365446574656374696f6e3a2077726f6e672076616c75650060448201526064015b60405180910390fd5b7fffffffff00000000000000000000000000000000000000000000000000000000919091166000908152602092909252604090912080547fffffffffffffffffffffffffffffffffffffffffffffffffffffffffffffff0016911515919091179055565b60007c01000000000000000000000000000000000000000000000000000000007fffffffff00000000000000000000000000000000000000000000000000000000831601610be5575060006103ed565b7ffe003659000000000000000000000000000000000000000000000000000000007fffffffff00000000000000000000000000000000000000000000000000000000831601610c36575060016103ed565b507fffffffff00000000000000000000000000000000000000000000000000000000166000908152602091909152604090205460ff1690565b6000806103ed60017fddf3ee18ae6d688373c219468f8be446e7ae82215f4779d821c7ea5e8c13c0c161325b565b60008181526020839052604081205473ffffffffffffffffffffffffffffffffffffffff8116610d29576040517f08c379a000000000000000000000000000000000000000000000000000000000815260206004820152601a60248201527f4552433732313a206e6f6e2d6578697374696e6720746f6b656e0000000000006044820152606401610b28565b74010000000000000000000000000000000000000000811615610d74575050600081815260028301602052604090205473ffffffffffffffffffffffffffffffffffffffff166103ed565b60009150506103ed565b6000610687612783565b60008181526020859052604090205473ffffffffffffffffffffffffffffffffffffffff8116610e14576040517f08c379a000000000000000000000000000000000000000000000000000000000815260206004820152601a60248201527f4552433732313a206e6f6e2d6578697374696e6720746f6b656e0000000000006044820152606401610b28565b8073ffffffffffffffffffffffffffffffffffffffff80821690851603610e97576040517f08c379a000000000000000000000000000000000000000000000000000000000815260206004820152601560248201527f4552433732313a2073656c662d617070726f76616c00000000000000000000006044820152606401610b28565b610ea28682876128db565b610f08576040517f08c379a000000000000000000000000000000000000000000000000000000000815260206004820152601b60248201527f4552433732313a206e6f6e2d617070726f7665642073656e64657200000000006044820152606401610b28565b73ffffffffffffffffffffffffffffffffffffffff8416610f6d5774010000000000000000000000000000000000000000821615610f6857600083815260208790526040902073ffffffffffffffffffffffffffffffffffffffff821690555b610fee565b740100000000000000000000000000000000000000008217808314610f9e5760008481526020889052604090208190555b506000838152600287016020526040902080547fffffffffffffffffffffffff00000000000000000000000000000000000000001673ffffffffffffffffffffffffffffffffffffffff86161790555b828473ffffffffffffffffffffffffffffffffffffffff168273ffffffffffffffffffffffffffffffffffffffff167f8c5be1e5ebec7d5bd14f71427d1e84f3dd0314c0f7b2291e5b200ac8c7c3b92560405160405180910390a4505050505050565b73ffffffffffffffffffffffffffffffffffffffff82166110ce576040517f08c379a000000000000000000000000000000000000000000000000000000000815260206004820152601e60248201527f4552433732313a207472616e7366657220746f206164647265737328302900006044820152606401610b28565b60008181526020869052604090205473ffffffffffffffffffffffffffffffffffffffff811661115a576040517f08c379a000000000000000000000000000000000000000000000000000000000815260206004820152601a60248201527f4552433732313a206e6f6e2d6578697374696e6720746f6b656e0000000000006044820152606401610b28565b73ffffffffffffffffffffffffffffffffffffffff84168173ffffffffffffffffffffffffffffffffffffffff16146111ef576040517f08c379a000000000000000000000000000000000000000000000000000000000815260206004820152601760248201527f4552433732313a206e6f6e2d6f776e656420746f6b656e0000000000000000006044820152606401610b28565b6111fa8685876128db565b6112b2577401000000000000000000000000000000000000000081161515801561124c5750600082815260028701602052604090205473ffffffffffffffffffffffffffffffffffffffff8681169116145b6112b2576040517f08c379a000000000000000000000000000000000000000000000000000000000815260206004820152601b60248201527f4552433732313a206e6f6e2d617070726f7665642073656e64657200000000006044820152606401610b28565b600082815260208790526040902073ffffffffffffffffffffffffffffffffffffffff808516918290558516146113435773ffffffffffffffffffffffffffffffffffffffff80851660009081526001808901602052604080832080547fffffffffffffffffffffffffffffffffffffffffffffffffffffffffffffffff0190559286168252919020805490910190555b818373ffffffffffffffffffffffffffffffffffffffff168573ffffffffffffffffffffffffffffffffffffffff167fddf252ad1be2c89b69c2b068fc378daa952ba7f163c4a11628f55a4df523b3ef60405160405180910390a4505050505050565b815473ffffffffffffffffffffffffffffffffffffffff828116911614610424576040517f08c379a000000000000000000000000000000000000000000000000000000000815260206004820152601860248201527f4f776e6572736869703a206e6f7420746865206f776e657200000000000000006044820152606401610b28565b6000806103ed60017fc8827d3282af6f37b64c3e9e6f3ac9df286ab0bb0fccd6f8661bf19adb368b2361325b565b60008381526020858152604080832073ffffffffffffffffffffffffffffffffffffffff8616845290915290205460ff1661063c5760008381526020858152604080832073ffffffffffffffffffffffffffffffffffffffff8681168086529184529382902080547fffffffffffffffffffffffffffffffffffffffffffffffffffffffffffffff00166001179055815187815292830152918316918101919091527f2f8788117e7eff1d82e926ec794901d17c78024a50270940304540a733656f0d906060015b60405180910390a150505050565b36600061048b612950565b60008281526020848152604080832073ffffffffffffffffffffffffffffffffffffffff8516845290915290205460ff166104475761157682612ad4565b60405160200161158691906132c5565b604080517fffffffffffffffffffffffffffffffffffffffffffffffffffffffffffffffe0818403018152908290527f08c379a0000000000000000000000000000000000000000000000000000000008252610b289160040161337b565b73ffffffffffffffffffffffffffffffffffffffff8216611661576040517f08c379a000000000000000000000000000000000000000000000000000000000815260206004820152601a60248201527f4552433732313a206d696e7420746f20616464726573732830290000000000006044820152606401610b28565b60008181526020849052604090205473ffffffffffffffffffffffffffffffffffffffff8116156116ee576040517f08c379a000000000000000000000000000000000000000000000000000000000815260206004820152601660248201527f4552433732313a206578697374696e6720746f6b656e000000000000000000006044820152606401610b28565b7fdead0000000000000000000000000000000000000000000000000000000000008103611777576040517f08c379a000000000000000000000000000000000000000000000000000000000815260206004820152601360248201527f4552433732313a206275726e7420746f6b656e000000000000000000000000006044820152606401610b28565b60008281526020858152604080832073ffffffffffffffffffffffffffffffffffffffff87169081905580845260018089019093528184208054909301909255518492907fddf252ad1be2c89b69c2b068fc378daa952ba7f163c4a11628f55a4df523b3ef908290a450505050565b6117f38585858585611051565b73ffffffffffffffffffffffffffffffffffffffff82163b1561182c5761182c8484848460405180602001604052806000815250612c66565b5050505050565b73ffffffffffffffffffffffffffffffffffffffff82166118b0576040517f08c379a000000000000000000000000000000000000000000000000000000000815260206004820152601a60248201527f4552433732313a206d696e7420746f20616464726573732830290000000000006044820152606401610b28565b805160005b818114611a535760008382815181106118d0576118d061338e565b60209081029190910181015160008181529188905260409091205490915073ffffffffffffffffffffffffffffffffffffffff81161561196c576040517f08c379a000000000000000000000000000000000000000000000000000000000815260206004820152601660248201527f4552433732313a206578697374696e6720746f6b656e000000000000000000006044820152606401610b28565b7fdead00000000000000000000000000000000000000000000000000000000000081036119f5576040517f08c379a000000000000000000000000000000000000000000000000000000000815260206004820152601360248201527f4552433732313a206275726e7420746f6b656e000000000000000000000000006044820152606401610b28565b60008281526020889052604080822073ffffffffffffffffffffffffffffffffffffffff89169081905590518492907fddf252ad1be2c89b69c2b068fc378daa952ba7f163c4a11628f55a4df523b3ef908290a450506001016118b5565b5073ffffffffffffffffffffffffffffffffffffffff9092166000908152600190930160205250604090912080549091019055565b60008181526020839052604081205473ffffffffffffffffffffffffffffffffffffffff8116611b14576040517f08c379a000000000000000000000000000000000000000000000000000000000815260206004820152601a60248201527f4552433732313a206e6f6e2d6578697374696e6720746f6b656e0000000000006044820152606401610b28565b805b949350505050565b600073ffffffffffffffffffffffffffffffffffffffff8216611b9d576040517f08c379a000000000000000000000000000000000000000000000000000000000815260206004820152601d60248201527f4552433732313a2062616c616e6365206f6620616464726573732830290000006044820152606401610b28565b5073ffffffffffffffffffffffffffffffffffffffff166000908152600191909101602052604090205490565b6000818152602085905260409020548073ffffffffffffffffffffffffffffffffffffffff168373ffffffffffffffffffffffffffffffffffffffff1614611c6e576040517f08c379a000000000000000000000000000000000000000000000000000000000815260206004820152601760248201527f4552433732313a206e6f6e2d6f776e656420746f6b656e0000000000000000006044820152606401610b28565b611c798584866128db565b611d315774010000000000000000000000000000000000000000811615158015611ccb5750600082815260028601602052604090205473ffffffffffffffffffffffffffffffffffffffff8581169116145b611d31576040517f08c379a000000000000000000000000000000000000000000000000000000000815260206004820152601b60248201527f4552433732313a206e6f6e2d617070726f7665642073656e64657200000000006044820152606401610b28565b6000828152602086815260408083207fdead000000000000000000000000000000000000000000000000000000000000905573ffffffffffffffffffffffffffffffffffffffff86168084526001890190925280832080547fffffffffffffffffffffffffffffffffffffffffffffffffffffffffffffffff01905551849291907fddf252ad1be2c89b69c2b068fc378daa952ba7f163c4a11628f55a4df523b3ef908390a45050505050565b611de98584846115e4565b73ffffffffffffffffffffffffffffffffffffffff83163b1561182c5761182c846000858585612c66565b611e1f838284611538565b60008181526020848152604080832073ffffffffffffffffffffffffffffffffffffffff86168085529083529281902080547fffffffffffffffffffffffffffffffffffffffffffffffffffffffffffffff0016905580518481529182018390528101919091527ff6391f5c32d9c69d2a47ea670b442974b53935d1edc7fd64eb21e047a839171b9060600160405180910390a1505050565b815181518114611f24576040517f08c379a000000000000000000000000000000000000000000000000000000000815260206004820152601b60248201527f4552433732313a20696e636f6e73697374656e742061727261797300000000006044820152606401610b28565b60005b81811461182c576000848281518110611f4257611f4261338e565b60200260200101519050600073ffffffffffffffffffffffffffffffffffffffff168173ffffffffffffffffffffffffffffffffffffffff1603611fe2576040517f08c379a000000000000000000000000000000000000000000000000000000000815260206004820152601a60248201527f4552433732313a206d696e7420746f20616464726573732830290000000000006044820152606401610b28565b6000848381518110611ff657611ff661338e565b60209081029190910181015160008181529189905260409091205490915073ffffffffffffffffffffffffffffffffffffffff811615612092576040517f08c379a000000000000000000000000000000000000000000000000000000000815260206004820152601660248201527f4552433732313a206578697374696e6720746f6b656e000000000000000000006044820152606401610b28565b7fdead000000000000000000000000000000000000000000000000000000000000810361211b576040517f08c379a000000000000000000000000000000000000000000000000000000000815260206004820152601360248201527f4552433732313a206275726e7420746f6b656e000000000000000000000000006044820152606401610b28565b60008281526020898152604080832073ffffffffffffffffffffffffffffffffffffffff8716908190558084526001808d019093528184208054909301909255518492907fddf252ad1be2c89b69c2b068fc378daa952ba7f163c4a11628f55a4df523b3ef908290a4505050806001019050611f27565b8273ffffffffffffffffffffffffffffffffffffffff168273ffffffffffffffffffffffffffffffffffffffff1603612227576040517f08c379a000000000000000000000000000000000000000000000000000000000815260206004820152601d60248201527f4552433732313a2073656c662d617070726f76616c20666f7220616c6c0000006044820152606401610b28565b73ffffffffffffffffffffffffffffffffffffffff838116600081815260038701602090815260408083209487168084529482529182902080547fffffffffffffffffffffffffffffffffffffffffffffffffffffffffffffff001686151590811790915591519182527f17307eab39ab6107e8899845ad3d59bd9653f200f220920489ca2b5937696c31910160405180910390a350505050565b6122cf8686868686611051565b73ffffffffffffffffffffffffffffffffffffffff83163b156122f9576122f98585858585612c66565b505050505050565b6000818152602083905260408120547fdead000000000000000000000000000000000000000000000000000000000000146106d0565b60008381526020858152604080832073ffffffffffffffffffffffffffffffffffffffff8616845290915290205460ff161561063c5760008381526020858152604080832073ffffffffffffffffffffffffffffffffffffffff8681168086529184529382902080547fffffffffffffffffffffffffffffffffffffffffffffffffffffffffffffff00169055815187815292830152918316918101919091527ff6391f5c32d9c69d2a47ea670b442974b53935d1edc7fd64eb21e047a839171b9060600161151f565b600061240e8584866128db565b825190915060005b81811461261a5760008482815181106124315761243161338e565b6020908102919091018101516000818152918a90526040909120549091508073ffffffffffffffffffffffffffffffffffffffff168773ffffffffffffffffffffffffffffffffffffffff16146124e4576040517f08c379a000000000000000000000000000000000000000000000000000000000815260206004820152601760248201527f4552433732313a206e6f6e2d6f776e656420746f6b656e0000000000000000006044820152606401610b28565b8461259d57740100000000000000000000000000000000000000008116151580156125375750600082815260028a01602052604090205473ffffffffffffffffffffffffffffffffffffffff8981169116145b61259d576040517f08c379a000000000000000000000000000000000000000000000000000000000815260206004820152601b60248201527f4552433732313a206e6f6e2d617070726f7665642073656e64657200000000006044820152606401610b28565b600082815260208a905260408082207fdead00000000000000000000000000000000000000000000000000000000000090555183919073ffffffffffffffffffffffffffffffffffffffff8a16907fddf252ad1be2c89b69c2b068fc378daa952ba7f163c4a11628f55a4df523b3ef908390a45050600101612416565b5080156122f95773ffffffffffffffffffffffffffffffffffffffff84166000908152600187016020526040902080548290039055505050505050565b825473ffffffffffffffffffffffffffffffffffffffff90811690831681146126dc576040517f08c379a000000000000000000000000000000000000000000000000000000000815260206004820152601860248201527f4f776e6572736869703a206e6f7420746865206f776e657200000000000000006044820152606401610b28565b8173ffffffffffffffffffffffffffffffffffffffff168173ffffffffffffffffffffffffffffffffffffffff161461063c5783547fffffffffffffffffffffffff00000000000000000000000000000000000000001673ffffffffffffffffffffffffffffffffffffffff8381169182178655604051908316907f8be0079c531659141344cd1fd0a4f28419497f9722a3daafe3b4186f6b6457e090600090a350505050565b60003332810361279257919050565b6000367fffffffffffffffffffffffffffffffffffffffffffffffffffffffffffffffec013560601c90507f000000000000000000000000000000000000000000000000000000000000000073ffffffffffffffffffffffffffffffffffffffff168273ffffffffffffffffffffffffffffffffffffffff1614806128ca57506040517fe60125d600000000000000000000000000000000000000000000000000000000815273ffffffffffffffffffffffffffffffffffffffff828116600483015283811660248301527f0000000000000000000000000000000000000000000000000000000000000000169063e60125d690604401602060405180830381865afa1580156128a6573d6000803e3d6000fd5b505050506040513d601f19601f820116820180604052508101906128ca91906133bd565b156128d55792915050565b50919050565b60008173ffffffffffffffffffffffffffffffffffffffff168373ffffffffffffffffffffffffffffffffffffffff161480611b1657505073ffffffffffffffffffffffffffffffffffffffff9182166000908152600393909301602090815260408085209290931684525290205460ff1690565b3660003332810361296657506000923692509050565b7f000000000000000000000000000000000000000000000000000000000000000073ffffffffffffffffffffffffffffffffffffffff168173ffffffffffffffffffffffffffffffffffffffff161480612ab3575073ffffffffffffffffffffffffffffffffffffffff7f00000000000000000000000000000000000000000000000000000000000000001663e60125d6367fffffffffffffffffffffffffffffffffffffffffffffffffffffffffffffffec013560601c6040517fffffffff0000000000000000000000000000000000000000000000000000000060e084901b16815273ffffffffffffffffffffffffffffffffffffffff91821660048201529084166024820152604401602060405180830381865afa158015612a8f573d6000803e3d6000fd5b505050506040513d601f19601f82011682018060405250810190612ab391906133bd565b15612ac957612ac0612d8c565b92509250509091565b506000923692509050565b60606000829003612af357505060408051602081019091526000815290565b600082604051602001612b0891815260200190565b604080517fffffffffffffffffffffffffffffffffffffffffffffffffffffffffffffffe08184030181529190529050601f5b818181518110612b4d57612b4d61338e565b01602001517fff0000000000000000000000000000000000000000000000000000000000000016600003612ba2577fffffffffffffffffffffffffffffffffffffffffffffffffffffffffffffffff01612b3b565b60008160010167ffffffffffffffff811115612bc057612bc0613108565b6040519080825280601f01601f191660200182016040528015612bea576020820181803683370190505b50905060005b828111612c5d57838181518110612c0957612c0961338e565b602001015160f81c60f81b828281518110612c2657612c2661338e565b60200101907effffffffffffffffffffffffffffffffffffffffffffffffffffffffffffff1916908160001a905350600101612bf0565b50949350505050565b6040517f150b7a02000000000000000000000000000000000000000000000000000000008082529073ffffffffffffffffffffffffffffffffffffffff85169063150b7a0290612cc09089908990889088906004016133da565b6020604051808303816000875af1158015612cdf573d6000803e3d6000fd5b505050506040513d601f19601f82011682018060405250810190612d039190613423565b7fffffffff00000000000000000000000000000000000000000000000000000000161461182c576040517f08c379a000000000000000000000000000000000000000000000000000000000815260206004820152601e60248201527f4552433732313a2073616665207472616e736665722072656a656374656400006044820152606401610b28565b366000808083612d9d60148261325b565b9261048b93929190613440565b7fffffffff000000000000000000000000000000000000000000000000000000008116811461065d57600080fd5b600060208284031215612dea57600080fd5b81356106d081612daa565b600060208284031215612e0757600080fd5b5035919050565b803573ffffffffffffffffffffffffffffffffffffffff81168114612e3257600080fd5b919050565b60008060408385031215612e4a57600080fd5b612e5383612e0e565b946020939093013593505050565b600080600060608486031215612e7657600080fd5b612e7f84612e0e565b9250612e8d60208501612e0e565b9150604084013590509250925092565b60008060408385031215612eb057600080fd5b82359150612ec060208401612e0e565b90509250929050565b60208152816020820152818360408301376000818301604090810191909152601f9092017fffffffffffffffffffffffffffffffffffffffffffffffffffffffffffffffe0160101919050565b60008083601f840112612f2857600080fd5b50813567ffffffffffffffff811115612f4057600080fd5b6020830191508360208260051b8501011115612f5b57600080fd5b9250929050565b600080600060408486031215612f7757600080fd5b612f8084612e0e565b9250602084013567ffffffffffffffff811115612f9c57600080fd5b612fa886828701612f16565b9497909650939450505050565b600060208284031215612fc757600080fd5b6106d082612e0e565b60008060008060608587031215612fe657600080fd5b612fef85612e0e565b935060208501359250604085013567ffffffffffffffff8082111561301357600080fd5b818701915087601f83011261302757600080fd5b81358181111561303657600080fd5b88602082850101111561304857600080fd5b95989497505060200194505050565b6000806000806040858703121561306d57600080fd5b843567ffffffffffffffff8082111561308557600080fd5b61309188838901612f16565b909650945060208701359150808211156130aa57600080fd5b506130b787828801612f16565b95989497509550505050565b801515811461065d57600080fd5b600080604083850312156130e457600080fd5b6130ed83612e0e565b915060208301356130fd816130c3565b809150509250929050565b7f4e487b7100000000000000000000000000000000000000000000000000000000600052604160045260246000fd5b6000806000806080858703121561314d57600080fd5b61315685612e0e565b935061316460208601612e0e565b925060408501359150606085013567ffffffffffffffff8082111561318857600080fd5b818701915087601f83011261319c57600080fd5b8135818111156131ae576131ae613108565b604051601f82017fffffffffffffffffffffffffffffffffffffffffffffffffffffffffffffffe0908116603f011681019083821181831017156131f4576131f4613108565b816040528281528a602084870101111561320d57600080fd5b82602086016020830137600060208483010152809550505050505092959194509250565b6000806040838503121561324457600080fd5b61324d83612e0e565b9150612ec060208401612e0e565b600082821015613294577f4e487b7100000000000000000000000000000000000000000000000000000000600052601160045260246000fd5b500390565b60005b838110156132b457818101518382015260200161329c565b8381111561063c5750506000910152565b7f416363657373436f6e74726f6c3a206d697373696e67202700000000000000008152600082516132fd816018850160208701613299565b7f2720726f6c6500000000000000000000000000000000000000000000000000006018939091019283015250601e01919050565b60008151808452613349816020860160208601613299565b601f017fffffffffffffffffffffffffffffffffffffffffffffffffffffffffffffffe0169290920160200192915050565b6020815260006106d06020830184613331565b7f4e487b7100000000000000000000000000000000000000000000000000000000600052603260045260246000fd5b6000602082840312156133cf57600080fd5b81516106d0816130c3565b600073ffffffffffffffffffffffffffffffffffffffff8087168352808616602084015250836040830152608060608301526134196080830184613331565b9695505050505050565b60006020828403121561343557600080fd5b81516106d081612daa565b6000808585111561345057600080fd5b8386111561345d57600080fd5b505082019391909203915056fea264697066735822122085787984df4c951bbaa39527b91f2d28552a3db4f37424025ddde209cf88f29c64736f6c634300080e0033",
  "linkReferences": {},
  "deployedLinkReferences": {}
}