{
  "_format": "hh-sol-artifact-1",
  "contractName": "ERC721MintableOnceMock",
  "sourceName": "contracts/mocks/token/ERC721/ERC721MintableOnceMock.sol",
  "abi": [
    {
      "inputs": [
        {
          "internalType": "string",
          "name": "name_",
          "type": "string"
        },
        {
          "internalType": "string",
          "name": "symbol_",
          "type": "string"
        },
        {
          "internalType": "string",
          "name": "tokenURI_",
          "type": "string"
        }
      ],
      "stateMutability": "nonpayable",
      "type": "constructor"
    },
    {
      "anonymous": false,
      "inputs": [
        {
          "indexed": true,
          "internalType": "address",
          "name": "owner",
          "type": "address"
        },
        {
          "indexed": true,
          "internalType": "address",
          "name": "approved",
          "type": "address"
        },
        {
          "indexed": true,
          "internalType": "uint256",
          "name": "tokenId",
          "type": "uint256"
        }
      ],
      "name": "Approval",
      "type": "event"
    },
    {
      "anonymous": false,
      "inputs": [
        {
          "indexed": true,
          "internalType": "address",
          "name": "owner",
          "type": "address"
        },
        {
          "indexed": true,
          "internalType": "address",
          "name": "operator",
          "type": "address"
        },
        {
          "indexed": false,
          "internalType": "bool",
          "name": "approved",
          "type": "bool"
        }
      ],
      "name": "ApprovalForAll",
      "type": "event"
    },
    {
      "anonymous": false,
      "inputs": [
        {
          "indexed": true,
          "internalType": "address",
          "name": "previousOwner",
          "type": "address"
        },
        {
          "indexed": true,
          "internalType": "address",
          "name": "newOwner",
          "type": "address"
        }
      ],
      "name": "OwnershipTransferred",
      "type": "event"
    },
    {
      "anonymous": false,
      "inputs": [
        {
          "indexed": false,
          "internalType": "bytes32",
          "name": "role",
          "type": "bytes32"
        },
        {
          "indexed": false,
          "internalType": "address",
          "name": "account",
          "type": "address"
        },
        {
          "indexed": false,
          "internalType": "address",
          "name": "operator",
          "type": "address"
        }
      ],
      "name": "RoleGranted",
      "type": "event"
    },
    {
      "anonymous": false,
      "inputs": [
        {
          "indexed": false,
          "internalType": "bytes32",
          "name": "role",
          "type": "bytes32"
        },
        {
          "indexed": false,
          "internalType": "address",
          "name": "account",
          "type": "address"
        },
        {
          "indexed": false,
          "internalType": "address",
          "name": "operator",
          "type": "address"
        }
      ],
      "name": "RoleRevoked",
      "type": "event"
    },
    {
      "anonymous": false,
      "inputs": [
        {
          "indexed": true,
          "internalType": "address",
          "name": "from",
          "type": "address"
        },
        {
          "indexed": true,
          "internalType": "address",
          "name": "to",
          "type": "address"
        },
        {
          "indexed": true,
          "internalType": "uint256",
          "name": "tokenId",
          "type": "uint256"
        }
      ],
      "name": "Transfer",
      "type": "event"
    },
    {
      "inputs": [],
      "name": "MINTER_ROLE",
      "outputs": [
        {
          "internalType": "bytes32",
          "name": "",
          "type": "bytes32"
        }
      ],
      "stateMutability": "view",
      "type": "function"
    },
    {
      "inputs": [],
      "name": "__msgData",
      "outputs": [
        {
          "internalType": "bytes",
          "name": "",
          "type": "bytes"
        }
      ],
      "stateMutability": "view",
      "type": "function"
    },
    {
      "inputs": [
        {
          "internalType": "address",
          "name": "to",
          "type": "address"
        },
        {
          "internalType": "uint256",
          "name": "tokenId",
          "type": "uint256"
        }
      ],
      "name": "approve",
      "outputs": [],
      "stateMutability": "nonpayable",
      "type": "function"
    },
    {
      "inputs": [
        {
          "internalType": "address",
          "name": "owner",
          "type": "address"
        }
      ],
      "name": "balanceOf",
      "outputs": [
        {
          "internalType": "uint256",
          "name": "",
          "type": "uint256"
        }
      ],
      "stateMutability": "view",
      "type": "function"
    },
    {
      "inputs": [
        {
          "internalType": "address",
          "name": "from",
          "type": "address"
        },
        {
          "internalType": "uint256[]",
          "name": "tokenIds",
          "type": "uint256[]"
        }
      ],
      "name": "batchBurnFrom",
      "outputs": [],
      "stateMutability": "nonpayable",
      "type": "function"
    },
    {
      "inputs": [
        {
          "internalType": "address",
          "name": "to",
          "type": "address"
        },
        {
          "internalType": "uint256[]",
          "name": "tokenIds",
          "type": "uint256[]"
        }
      ],
      "name": "batchMint",
      "outputs": [],
      "stateMutability": "nonpayable",
      "type": "function"
    },
    {
      "inputs": [
        {
          "internalType": "address",
          "name": "from",
          "type": "address"
        },
        {
          "internalType": "uint256",
          "name": "tokenId",
          "type": "uint256"
        }
      ],
      "name": "burnFrom",
      "outputs": [],
      "stateMutability": "nonpayable",
      "type": "function"
    },
    {
      "inputs": [
        {
          "internalType": "uint256",
          "name": "tokenId",
          "type": "uint256"
        }
      ],
      "name": "getApproved",
      "outputs": [
        {
          "internalType": "address",
          "name": "operator",
          "type": "address"
        }
      ],
      "stateMutability": "view",
      "type": "function"
    },
    {
      "inputs": [
        {
          "internalType": "bytes32",
          "name": "role",
          "type": "bytes32"
        },
        {
          "internalType": "address",
          "name": "account",
          "type": "address"
        }
      ],
      "name": "grantRole",
      "outputs": [],
      "stateMutability": "nonpayable",
      "type": "function"
    },
    {
      "inputs": [
        {
          "internalType": "bytes32",
          "name": "role",
          "type": "bytes32"
        },
        {
          "internalType": "address",
          "name": "account",
          "type": "address"
        }
      ],
      "name": "hasRole",
      "outputs": [
        {
          "internalType": "bool",
          "name": "",
          "type": "bool"
        }
      ],
      "stateMutability": "view",
      "type": "function"
    },
    {
      "inputs": [
        {
          "internalType": "address",
          "name": "owner",
          "type": "address"
        },
        {
          "internalType": "address",
          "name": "operator",
          "type": "address"
        }
      ],
      "name": "isApprovedForAll",
      "outputs": [
        {
          "internalType": "bool",
          "name": "",
          "type": "bool"
        }
      ],
      "stateMutability": "view",
      "type": "function"
    },
    {
      "inputs": [
        {
          "internalType": "address",
          "name": "to",
          "type": "address"
        },
        {
          "internalType": "uint256",
          "name": "tokenId",
          "type": "uint256"
        }
      ],
      "name": "mint",
      "outputs": [],
      "stateMutability": "nonpayable",
      "type": "function"
    },
    {
      "inputs": [],
      "name": "name",
      "outputs": [
        {
          "internalType": "string",
          "name": "",
          "type": "string"
        }
      ],
      "stateMutability": "view",
      "type": "function"
    },
    {
      "inputs": [],
      "name": "owner",
      "outputs": [
        {
          "internalType": "address",
          "name": "",
          "type": "address"
        }
      ],
      "stateMutability": "view",
      "type": "function"
    },
    {
      "inputs": [
        {
          "internalType": "uint256",
          "name": "tokenId",
          "type": "uint256"
        }
      ],
      "name": "ownerOf",
      "outputs": [
        {
          "internalType": "address",
          "name": "",
          "type": "address"
        }
      ],
      "stateMutability": "view",
      "type": "function"
    },
    {
      "inputs": [
        {
          "internalType": "bytes32",
          "name": "role",
          "type": "bytes32"
        }
      ],
      "name": "renounceRole",
      "outputs": [],
      "stateMutability": "nonpayable",
      "type": "function"
    },
    {
      "inputs": [
        {
          "internalType": "bytes32",
          "name": "role",
          "type": "bytes32"
        },
        {
          "internalType": "address",
          "name": "account",
          "type": "address"
        }
      ],
      "name": "revokeRole",
      "outputs": [],
      "stateMutability": "nonpayable",
      "type": "function"
    },
    {
      "inputs": [
        {
          "internalType": "address",
          "name": "to",
          "type": "address"
        },
        {
          "internalType": "uint256",
          "name": "tokenId",
          "type": "uint256"
        },
        {
          "internalType": "bytes",
          "name": "data",
          "type": "bytes"
        }
      ],
      "name": "safeMint",
      "outputs": [],
      "stateMutability": "nonpayable",
      "type": "function"
    },
    {
      "inputs": [
        {
          "internalType": "address",
          "name": "from",
          "type": "address"
        },
        {
          "internalType": "address",
          "name": "to",
          "type": "address"
        },
        {
          "internalType": "uint256",
          "name": "tokenId",
          "type": "uint256"
        }
      ],
      "name": "safeTransferFrom",
      "outputs": [],
      "stateMutability": "nonpayable",
      "type": "function"
    },
    {
      "inputs": [
        {
          "internalType": "address",
          "name": "from",
          "type": "address"
        },
        {
          "internalType": "address",
          "name": "to",
          "type": "address"
        },
        {
          "internalType": "uint256",
          "name": "tokenId",
          "type": "uint256"
        },
        {
          "internalType": "bytes",
          "name": "_data",
          "type": "bytes"
        }
      ],
      "name": "safeTransferFrom",
      "outputs": [],
      "stateMutability": "nonpayable",
      "type": "function"
    },
    {
      "inputs": [
        {
          "internalType": "address",
          "name": "operator",
          "type": "address"
        },
        {
          "internalType": "bool",
          "name": "_approved",
          "type": "bool"
        }
      ],
      "name": "setApprovalForAll",
      "outputs": [],
      "stateMutability": "nonpayable",
      "type": "function"
    },
    {
      "inputs": [
        {
          "internalType": "bytes4",
          "name": "interfaceId",
          "type": "bytes4"
        }
      ],
      "name": "supportsInterface",
      "outputs": [
        {
          "internalType": "bool",
          "name": "",
          "type": "bool"
        }
      ],
      "stateMutability": "view",
      "type": "function"
    },
    {
      "inputs": [],
      "name": "symbol",
      "outputs": [
        {
          "internalType": "string",
          "name": "",
          "type": "string"
        }
      ],
      "stateMutability": "view",
      "type": "function"
    },
    {
      "inputs": [
        {
          "internalType": "uint256",
          "name": "tokenId",
          "type": "uint256"
        }
      ],
      "name": "tokenURI",
      "outputs": [
        {
          "internalType": "string",
          "name": "",
          "type": "string"
        }
      ],
      "stateMutability": "view",
      "type": "function"
    },
    {
      "inputs": [
        {
          "internalType": "address",
          "name": "from",
          "type": "address"
        },
        {
          "internalType": "address",
          "name": "to",
          "type": "address"
        },
        {
          "internalType": "uint256",
          "name": "tokenId",
          "type": "uint256"
        }
      ],
      "name": "transferFrom",
      "outputs": [],
      "stateMutability": "nonpayable",
      "type": "function"
    },
    {
      "inputs": [
        {
          "internalType": "address",
          "name": "newOwner",
          "type": "address"
        }
      ],
      "name": "transferOwnership",
      "outputs": [],
      "stateMutability": "nonpayable",
      "type": "function"
    }
  ],
  "bytecode": "0x60806040523480156200001157600080fd5b50604051620039503803806200395083398101604081905262000034916200077a565b8282823362000062620000516200017760201b620008cf1760201c565b620001ad60201b620008fd1760201c565b6200008c6200007b6200021a60201b620009671760201c565b6200024a60201b620009951760201c565b620000ba81620000a66200029f60201b620009ef1760201c565b620002cf60201b62000a1d1790919060201c565b50620000f3638e773e1360e01b6001620000de6200021a60201b620009671760201c565b6200037e60201b62000b01179092919060201c565b62000116638b8b4ef560e01b6001620000de6200021a60201b620009671760201c565b62000148838383620001326200040c60201b62000bf11760201c565b6200043c60201b62000c1f17909392919060201c565b6200016b635b5e139f60e01b6001620000de6200021a60201b620009671760201c565b5050505050506200086d565b600080620001a760017fddf3ee18ae6d688373c219468f8be446e7ae82215f4779d821c7ea5e8c13c0c16200080b565b92915050565b620001f4620001de60017ffddcdbf8ca7eb362a678daf3643ce3cf98ebf69ac314d25d376d5aeabd2f53326200080b565b60001b6001620004db60201b62000ca21760201c565b620002176380ac58cd60e01b6001620000de6200021a60201b620009671760201c565b50565b600080620001a760017f7180ffa89c91cf90d6c56dacabfc69bc5e36f3099d7eed2f5cc12c5dba016fe06200080b565b6200027b620001de60017f947245cdabe12ef4c13574b38217b361de48f57dd2dc345f43703c79bac2873d6200080b565b620002176301ffc9a760e01b6001836200037e60201b62000b01179092919060201c565b600080620001a760017f6a1da6973104ff7dedb9b4f5cab5830b3f4a0284ed754366cfc45568bd2d38df6200080b565b62000300620001de60017ff1e2f4de496ffe5d046d751d8ec3c329ee011c6c6a229322971a7e02a207f9736200080b565b6001600160a01b03811615620003575781546001600160a01b0319166001600160a01b03821690811783556040516000907f8be0079c531659141344cd1fd0a4f28419497f9722a3daafe3b4186f6b6457e0908290a35b6200037a6307f5828d60e41b6001620000de6200021a60201b620009671760201c565b5050565b6001600160e01b03198083169003620003de5760405162461bcd60e51b815260206004820152601f60248201527f496e74657266616365446574656374696f6e3a2077726f6e672076616c75650060448201526064015b60405180910390fd5b6001600160e01b03199190911660009081526020929092526040909120805460ff1916911515919091179055565b600080620001a760017f5f5773833f4966721eb3773ed87c7208ea74d78f0d94de1d8074345cac67333f6200080b565b6200046d620001de60017fdf2ee7965c9504dc84db8f7759fc283282800c5a2fa3704c9f07f446b3b40a3f6200080b565b6200049d8383620004886200054e60201b62000d121760201c565b6200057e60201b62000d40179092919060201c565b8051620004b1908590602084019062000607565b50620004d5635b5e139f60e01b6001620000de6200021a60201b620009671760201c565b50505050565b6000620004f3836200060460201b62000dc51760201c565b9050818160000154106200054a5760405162461bcd60e51b815260206004820152601860248201527f53746f726167653a2076657273696f6e207265616368656400000000000000006044820152606401620003d5565b5550565b600080620001a760017f9c4269c0f9f430d98876ffe9767fbf3f3232ea91a549beb549e5329532520eb36200080b565b620005af620001de60017fa057eeb6560fae2987973d3bf40b89e6da66dd0b6aadac05dc6b5b0d7a8d45576200080b565b8151620005c3908490602085019062000607565b508051620005db906001850190602084019062000607565b50620005ff635b5e139f60e01b6001620000de6200021a60201b620009671760201c565b505050565b90565b828054620006159062000831565b90600052602060002090601f01602090048101928262000639576000855562000684565b82601f106200065457805160ff191683800117855562000684565b8280016001018555821562000684579182015b828111156200068457825182559160200191906001019062000667565b506200069292915062000696565b5090565b5b8082111562000692576000815560010162000697565b634e487b7160e01b600052604160045260246000fd5b600082601f830112620006d557600080fd5b81516001600160401b0380821115620006f257620006f2620006ad565b604051601f8301601f19908116603f011681019082821181831017156200071d576200071d620006ad565b816040528381526020925086838588010111156200073a57600080fd5b600091505b838210156200075e57858201830151818301840152908201906200073f565b83821115620007705760008385830101525b9695505050505050565b6000806000606084860312156200079057600080fd5b83516001600160401b0380821115620007a857600080fd5b620007b687838801620006c3565b94506020860151915080821115620007cd57600080fd5b620007db87838801620006c3565b93506040860151915080821115620007f257600080fd5b506200080186828701620006c3565b9150509250925092565b6000828210156200082c57634e487b7160e01b600052601160045260246000fd5b500390565b600181811c908216806200084657607f821691505b6020821081036200086757634e487b7160e01b600052602260045260246000fd5b50919050565b6130d3806200087d6000396000f3fe608060405234801561001057600080fd5b50600436106101ae5760003560e01c80638832e6e3116100ee578063b88d4fde11610097578063d547741f11610071578063d547741f1461039d578063e985e9c5146103b0578063f2472965146103c3578063f2fde38b146103d657600080fd5b8063b88d4fde14610350578063c87b56dd14610363578063d53913931461037657600080fd5b806391d14854116100c857806391d148541461032257806395d89b4114610335578063a22cb4651461033d57600080fd5b80638832e6e3146102f45780638bb9c5bf146103075780638da5cb5b1461031a57600080fd5b806331e66e1e1161015b5780634684d7e9116101355780634684d7e91461029a5780636352211e146102ad57806370a08231146102c057806379cc6790146102e157600080fd5b806331e66e1e1461026357806340c10f191461027457806342842e0e1461028757600080fd5b8063095ea7b31161018c578063095ea7b31461022857806323b872dd1461023d5780632f2ff15d1461025057600080fd5b806301ffc9a7146101b357806306fdde03146101db578063081812fc146101f0575b600080fd5b6101c66101c1366004612996565b6103e9565b60405190151581526020015b60405180910390f35b6101e3610436565b6040516101d29190612a29565b6102036101fe366004612a3c565b61044d565b60405173ffffffffffffffffffffffffffffffffffffffff90911681526020016101d2565b61023b610236366004612a7e565b610461565b005b61023b61024b366004612aa8565b61047b565b61023b61025e366004612ae4565b610498565b6000366040516101d2929190612b10565b61023b610282366004612a7e565b6104c1565b61023b610295366004612aa8565b610520565b61023b6102a8366004612b5d565b610538565b6102036102bb366004612a3c565b6105aa565b6102d36102ce366004612be3565b6105be565b6040519081526020016101d2565b61023b6102ef366004612a7e565b6105d2565b61023b610302366004612bfe565b6105e8565b61023b610315366004612a3c565b610661565b610203610678565b6101c6610330366004612ae4565b61069e565b6101e36106e9565b61023b61034b366004612c85565b6106fb565b61023b61035e366004612cf0565b610711565b6101e3610371366004612a3c565b61072b565b6102d37f6d696e746572000000000000000000000000000000000000000000000000000081565b61023b6103ab366004612ae4565b610807565b6101c66103be366004612dea565b61082a565b61023b6103d1366004612b5d565b610871565b61023b6103e4366004612be3565b6108bb565b6000610430826103f7610967565b907fffffffff00000000000000000000000000000000000000000000000000000000166000908152602091909152604090205460ff1690565b92915050565b6060610448610443610d12565b610dc8565b905090565b60006104308261045b6108cf565b90610e5e565b61047733838361046f6108cf565b929190610f41565b5050565b6104933384848461048a6108cf565b939291906111fd565b505050565b336104ab816104a56109ef565b90611223565b6104938383836104b96112a6565b9291906112d4565b6104f67f6d696e7465720000000000000000000000000000000000000000000000000000335b6104ef6112a6565b91906113aa565b6104773383836040518060200160405280600081525060006105166108cf565b9493929190611456565b6104933384848461052f6108cf565b939291906115fc565b6105627f6d696e7465720000000000000000000000000000000000000000000000000000336104e7565b610493838383808060200260200160405190810160405280939291908181526020018383602002808284376000920191909152506105a392506108cf915050565b919061161b565b6000610430826105b86108cf565b90611806565b6000610430826105cc6108cf565b90611894565b6104773383836105e06108cf565b929190611940565b6106127f6d696e7465720000000000000000000000000000000000000000000000000000336104e7565b61065b33858585858080601f0160208091040260200160405190810160405280939291908181526020018383808284376000920191909152506001925061051691506108cf9050565b50505050565b610675338261066e6112a6565b91906119aa565b50565b60006106826109ef565b5473ffffffffffffffffffffffffffffffffffffffff16919050565b60006106e283836106ad6112a6565b60009283526020908152604080842073ffffffffffffffffffffffffffffffffffffffff909316845291905290205460ff1690565b9392505050565b60606104486106f6610d12565b611a4e565b6104773383836107096108cf565b929190611a5f565b61065b33858585856107216108cf565b9493929190611b8b565b606060006107376108cf565b6000848152600191909101602052604090205473ffffffffffffffffffffffffffffffffffffffff16036107cc576040517f08c379a000000000000000000000000000000000000000000000000000000000815260206004820152601860248201527f4552433732313a206e6f6e2d6578697374696e67204e4654000000000000000060448201526064015b60405180910390fd5b6107d7610443610bf1565b6107e083611b9b565b6040516020016107f1929190612e14565b6040516020818303038152906040529050919050565b33610814816104a56109ef565b6104938383836108226112a6565b929190611ccf565b60006106e283836108396108cf565b73ffffffffffffffffffffffffffffffffffffffff928316600090815260209182526040808220939094168152919052205460ff1690565b61049333848484808060200260200160405190810160405280939291908181526020018383602002808284376000920191909152506108b392506108cf915050565b929190611d99565b61067533826108c86109ef565b9190611e83565b60008061043060017fddf3ee18ae6d688373c219468f8be446e7ae82215f4779d821c7ea5e8c13c0c1612e72565b61093261092b60017ffddcdbf8ca7eb362a678daf3643ce3cf98ebf69ac314d25d376d5aeabd2f5332612e72565b6001610ca2565b6106757f80ac58cd000000000000000000000000000000000000000000000000000000006001610960610967565b9190610b01565b60008061043060017f7180ffa89c91cf90d6c56dacabfc69bc5e36f3099d7eed2f5cc12c5dba016fe0612e72565b6109c361092b60017f947245cdabe12ef4c13574b38217b361de48f57dd2dc345f43703c79bac2873d612e72565b610675817f01ffc9a7000000000000000000000000000000000000000000000000000000006001610b01565b60008061043060017f6a1da6973104ff7dedb9b4f5cab5830b3f4a0284ed754366cfc45568bd2d38df612e72565b610a4b61092b60017ff1e2f4de496ffe5d046d751d8ec3c329ee011c6c6a229322971a7e02a207f973612e72565b73ffffffffffffffffffffffffffffffffffffffff811615610ad35781547fffffffffffffffffffffffff00000000000000000000000000000000000000001673ffffffffffffffffffffffffffffffffffffffff821690811783556040516000907f8be0079c531659141344cd1fd0a4f28419497f9722a3daafe3b4186f6b6457e0908290a35b6104777f7f5828d0000000000000000000000000000000000000000000000000000000006001610960610967565b7fffffffff000000000000000000000000000000000000000000000000000000008083169003610b8d576040517f08c379a000000000000000000000000000000000000000000000000000000000815260206004820152601f60248201527f496e74657266616365446574656374696f6e3a2077726f6e672076616c75650060448201526064016107c3565b7fffffffff00000000000000000000000000000000000000000000000000000000919091166000908152602092909252604090912080547fffffffffffffffffffffffffffffffffffffffffffffffffffffffffffffff0016911515919091179055565b60008061043060017f5f5773833f4966721eb3773ed87c7208ea74d78f0d94de1d8074345cac67333f612e72565b610c4d61092b60017fdf2ee7965c9504dc84db8f7759fc283282800c5a2fa3704c9f07f446b3b40a3f612e72565b610c618383610c5a610d12565b9190610d40565b8051610c7390859060208401906128cf565b5061065b7f5b5e139f000000000000000000000000000000000000000000000000000000006001610960610967565b815482908211610d0e576040517f08c379a000000000000000000000000000000000000000000000000000000000815260206004820152601860248201527f53746f726167653a2076657273696f6e2072656163686564000000000000000060448201526064016107c3565b5550565b60008061043060017f9c4269c0f9f430d98876ffe9767fbf3f3232ea91a549beb549e5329532520eb3612e72565b610d6e61092b60017fa057eeb6560fae2987973d3bf40b89e6da66dd0b6aadac05dc6b5b0d7a8d4557612e72565b8151610d8090849060208501906128cf565b508051610d9690600185019060208401906128cf565b506104937f5b5e139f000000000000000000000000000000000000000000000000000000006001610960610967565b90565b6060816000018054610dd990612e89565b80601f0160208091040260200160405190810160405280929190818152602001828054610e0590612e89565b8015610e525780601f10610e2757610100808354040283529160200191610e52565b820191906000526020600020905b815481529060010190602001808311610e3557829003601f168201915b50505050509050919050565b600081815260018301602052604081205473ffffffffffffffffffffffffffffffffffffffff8116610eec576040517f08c379a000000000000000000000000000000000000000000000000000000000815260206004820152601860248201527f4552433732313a206e6f6e2d6578697374696e67204e4654000000000000000060448201526064016107c3565b74010000000000000000000000000000000000000000811615610f37575050600081815260038301602052604090205473ffffffffffffffffffffffffffffffffffffffff16610430565b6000915050610430565b600081815260018501602052604081205490819003610fbc576040517f08c379a000000000000000000000000000000000000000000000000000000000815260206004820152601860248201527f4552433732313a206e6f6e2d6578697374696e67204e4654000000000000000060448201526064016107c3565b8073ffffffffffffffffffffffffffffffffffffffff8082169085160361103f576040517f08c379a000000000000000000000000000000000000000000000000000000000815260206004820152601560248201527f4552433732313a2073656c662d617070726f76616c000000000000000000000060448201526064016107c3565b61104a868287611faf565b6110b0576040517f08c379a000000000000000000000000000000000000000000000000000000000815260206004820152601b60248201527f4552433732313a206e6f6e2d617070726f7665642073656e646572000000000060448201526064016107c3565b73ffffffffffffffffffffffffffffffffffffffff84166111175774010000000000000000000000000000000000000000821615611112576000838152600187016020526040902073ffffffffffffffffffffffffffffffffffffffff821690555b61119a565b74010000000000000000000000000000000000000000821780831461114a57600084815260018801602052604090208190555b506000838152600387016020526040902080547fffffffffffffffffffffffff00000000000000000000000000000000000000001673ffffffffffffffffffffffffffffffffffffffff86161790555b828473ffffffffffffffffffffffffffffffffffffffff168273ffffffffffffffffffffffffffffffffffffffff167f8c5be1e5ebec7d5bd14f71427d1e84f3dd0314c0f7b2291e5b200ac8c7c3b92560405160405180910390a4505050505050565b61121c8585858585604051806020016040528060008152506000612023565b5050505050565b815473ffffffffffffffffffffffffffffffffffffffff828116911614610477576040517f08c379a000000000000000000000000000000000000000000000000000000000815260206004820152601860248201527f4f776e6572736869703a206e6f7420746865206f776e6572000000000000000060448201526064016107c3565b60008061043060017fc8a24fbf085abf1493c5f225802d03df3ece6cd19f18edff36c56d854cddac9e612e72565b60008381526020858152604080832073ffffffffffffffffffffffffffffffffffffffff8616845290915290205460ff1661065b5760008381526020858152604080832073ffffffffffffffffffffffffffffffffffffffff8681168086529184529382902080547fffffffffffffffffffffffffffffffffffffffffffffffffffffffffffffff00166001179055815187815292830152918316918101919091527f2f8788117e7eff1d82e926ec794901d17c78024a50270940304540a733656f0d906060015b60405180910390a150505050565b60008281526020848152604080832073ffffffffffffffffffffffffffffffffffffffff8516845290915290205460ff16610493576113e882612159565b6040516020016113f89190612edc565b604080517fffffffffffffffffffffffffffffffffffffffffffffffffffffffffffffffe0818403018152908290527f08c379a00000000000000000000000000000000000000000000000000000000082526107c391600401612a29565b73ffffffffffffffffffffffffffffffffffffffff84166114d3576040517f08c379a000000000000000000000000000000000000000000000000000000000815260206004820152601460248201527f4552433732313a206d696e7420746f207a65726f00000000000000000000000060448201526064016107c3565b60008381526001870160205260409020547f21530000000000000000000000000000000000000000000000000000000000000161156c576040517f08c379a000000000000000000000000000000000000000000000000000000000815260206004820152601160248201527f4552433732313a206275726e74204e465400000000000000000000000000000060448201526064016107c3565b61157986858560006122da565b604051839073ffffffffffffffffffffffffffffffffffffffff8616906000907fddf252ad1be2c89b69c2b068fc378daa952ba7f163c4a11628f55a4df523b3ef908290a48080156115e1575073ffffffffffffffffffffffffffffffffffffffff84163b15155b156115f4576115f48560008686866123bf565b505050505050565b61121c8585858585604051806020016040528060008152506001612023565b73ffffffffffffffffffffffffffffffffffffffff8216611698576040517f08c379a000000000000000000000000000000000000000000000000000000000815260206004820152601460248201527f4552433732313a206d696e7420746f207a65726f00000000000000000000000060448201526064016107c3565b805160005b8181146117c35760008382815181106116b8576116b8612f48565b602002602001015190507fdead0000000000000000000000000000000000000000000000000000000000008660010160008381526020019081526020016000205403611760576040517f08c379a000000000000000000000000000000000000000000000000000000000815260206004820152601160248201527f4552433732313a206275726e74204e465400000000000000000000000000000060448201526064016107c3565b61176d86868360016122da565b604051819073ffffffffffffffffffffffffffffffffffffffff8716906000907fddf252ad1be2c89b69c2b068fc378daa952ba7f163c4a11628f55a4df523b3ef908290a4506117bc81612f77565b905061169d565b5073ffffffffffffffffffffffffffffffffffffffff83166000908152600285016020526040812080548392906117fb908490612faf565b909155505050505050565b600081815260018301602052604081205473ffffffffffffffffffffffffffffffffffffffff81166106e2576040517f08c379a000000000000000000000000000000000000000000000000000000000815260206004820152601860248201527f4552433732313a206e6f6e2d6578697374696e67204e4654000000000000000060448201526064016107c3565b600073ffffffffffffffffffffffffffffffffffffffff8216611913576040517f08c379a000000000000000000000000000000000000000000000000000000000815260206004820152601460248201527f4552433732313a207a65726f206164647265737300000000000000000000000060448201526064016107c3565b5073ffffffffffffffffffffffffffffffffffffffff166000908152600291909101602052604090205490565b600061194d858486611faf565b905061195e858585858560006124e5565b604051829060009073ffffffffffffffffffffffffffffffffffffffff8616907fddf252ad1be2c89b69c2b068fc378daa952ba7f163c4a11628f55a4df523b3ef908390a45050505050565b6119b58382846113aa565b60008181526020848152604080832073ffffffffffffffffffffffffffffffffffffffff86168085529083529281902080547fffffffffffffffffffffffffffffffffffffffffffffffffffffffffffffff0016905580518481529182018390528101919091527ff6391f5c32d9c69d2a47ea670b442974b53935d1edc7fd64eb21e047a839171b9060600160405180910390a1505050565b6060816001018054610dd990612e89565b8273ffffffffffffffffffffffffffffffffffffffff168273ffffffffffffffffffffffffffffffffffffffff1603611af4576040517f08c379a000000000000000000000000000000000000000000000000000000000815260206004820152601560248201527f4552433732313a2073656c662d617070726f76616c000000000000000000000060448201526064016107c3565b73ffffffffffffffffffffffffffffffffffffffff8381166000818152602087815260408083209487168084529482529182902080547fffffffffffffffffffffffffffffffffffffffffffffffffffffffffffffff001686151590811790915591519182527f17307eab39ab6107e8899845ad3d59bd9653f200f220920489ca2b5937696c31910160405180910390a350505050565b6115f48686868686866001612023565b606081600003611bde57505060408051808201909152600181527f3000000000000000000000000000000000000000000000000000000000000000602082015290565b8160005b8115611c085780611bf281612f77565b9150611c019050600a83612fc7565b9150611be2565b60008167ffffffffffffffff811115611c2357611c23612cc1565b6040519080825280601f01601f191660200182016040528015611c4d576020820181803683370190505b5090506000611c5d600184612e72565b90508593505b8315611cc657600a840660300160f81b82828060019003935081518110611c8c57611c8c612f48565b60200101907effffffffffffffffffffffffffffffffffffffffffffffffffffffffffffff1916908160001a905350600a84049350611c63565b50949350505050565b60008381526020858152604080832073ffffffffffffffffffffffffffffffffffffffff8616845290915290205460ff161561065b5760008381526020858152604080832073ffffffffffffffffffffffffffffffffffffffff8681168086529184529382902080547fffffffffffffffffffffffffffffffffffffffffffffffffffffffffffffff00169055815187815292830152918316918101919091527ff6391f5c32d9c69d2a47ea670b442974b53935d1edc7fd64eb21e047a839171b9060600161139c565b6000611da6858486611faf565b825190915060005b818114611e38576000848281518110611dc957611dc9612f48565b60200260200101519050611de2888888848860016124e5565b604051819060009073ffffffffffffffffffffffffffffffffffffffff8916907fddf252ad1be2c89b69c2b068fc378daa952ba7f163c4a11628f55a4df523b3ef908390a450611e3181612f77565b9050611dae565b5080156115f45773ffffffffffffffffffffffffffffffffffffffff8416600090815260028701602052604081208054839290611e76908490612e72565b9091555050505050505050565b825473ffffffffffffffffffffffffffffffffffffffff9081169083168114611f08576040517f08c379a000000000000000000000000000000000000000000000000000000000815260206004820152601860248201527f4f776e6572736869703a206e6f7420746865206f776e6572000000000000000060448201526064016107c3565b8173ffffffffffffffffffffffffffffffffffffffff168173ffffffffffffffffffffffffffffffffffffffff161461065b5783547fffffffffffffffffffffffff00000000000000000000000000000000000000001673ffffffffffffffffffffffffffffffffffffffff8381169182178655604051908316907f8be0079c531659141344cd1fd0a4f28419497f9722a3daafe3b4186f6b6457e090600090a350505050565b60008173ffffffffffffffffffffffffffffffffffffffff168373ffffffffffffffffffffffffffffffffffffffff16148061201b575073ffffffffffffffffffffffffffffffffffffffff8084166000908152602086815260408083209386168352929052205460ff165b949350505050565b73ffffffffffffffffffffffffffffffffffffffff84166120a0576040517f08c379a000000000000000000000000000000000000000000000000000000000815260206004820152601860248201527f4552433732313a207472616e7366657220746f207a65726f000000000000000060448201526064016107c3565b60006120ad888789611faf565b90506120bf88888888888660006126a7565b838573ffffffffffffffffffffffffffffffffffffffff168773ffffffffffffffffffffffffffffffffffffffff167fddf252ad1be2c89b69c2b068fc378daa952ba7f163c4a11628f55a4df523b3ef60405160405180910390a481801561213d575073ffffffffffffffffffffffffffffffffffffffff85163b15155b1561214f5761214f87878787876123bf565b5050505050505050565b6060600082900361217857505060408051602081019091526000815290565b60008260405160200161218d91815260200190565b604080517fffffffffffffffffffffffffffffffffffffffffffffffffffffffffffffffe08184030181529190529050601f5b8181815181106121d2576121d2612f48565b01602001517fff00000000000000000000000000000000000000000000000000000000000000166000036122105761220981613002565b90506121c0565b600061221d826001612faf565b67ffffffffffffffff81111561223557612235612cc1565b6040519080825280601f01601f19166020018201604052801561225f576020820181803683370190505b50905060005b828111611cc65783818151811061227e5761227e612f48565b602001015160f81c60f81b82828151811061229b5761229b612f48565b60200101907effffffffffffffffffffffffffffffffffffffffffffffffffffffffffffff1916908160001a9053506122d381612f77565b9050612265565b600082815260018501602052604090205415612352576040517f08c379a000000000000000000000000000000000000000000000000000000000815260206004820152601a60248201527f4552433732313a206578697374696e672f6275726e74204e465400000000000060448201526064016107c3565b6000828152600185016020526040902073ffffffffffffffffffffffffffffffffffffffff841690558061065b5773ffffffffffffffffffffffffffffffffffffffff83166000908152600285016020526040812080549091906123b590612f77565b9091555050505050565b6040517f150b7a02000000000000000000000000000000000000000000000000000000008082529073ffffffffffffffffffffffffffffffffffffffff85169063150b7a0290612419908990899088908890600401613037565b6020604051808303816000875af1158015612438573d6000803e3d6000fd5b505050506040513d601f19601f8201168201806040525081019061245c9190613080565b7fffffffff00000000000000000000000000000000000000000000000000000000161461121c576040517f08c379a000000000000000000000000000000000000000000000000000000000815260206004820152601860248201527f4552433732313a207472616e736665722072656675736564000000000000000060448201526064016107c3565b600083815260018701602052604090205473ffffffffffffffffffffffffffffffffffffffff85811690821614612578576040517f08c379a000000000000000000000000000000000000000000000000000000000815260206004820152601560248201527f4552433732313a206e6f6e2d6f776e6564204e4654000000000000000000000060448201526064016107c3565b8261263157740100000000000000000000000000000000000000008116158015906125cb5750600084815260038801602052604090205473ffffffffffffffffffffffffffffffffffffffff8781169116145b612631576040517f08c379a000000000000000000000000000000000000000000000000000000000815260206004820152601b60248201527f4552433732313a206e6f6e2d617070726f7665642073656e646572000000000060448201526064016107c3565b600084815260018801602052604090207fdead00000000000000000000000000000000000000000000000000000000000090558161269e5773ffffffffffffffffffffffffffffffffffffffff8516600090815260028801602052604081208054909190611e7690613002565b50505050505050565b600083815260018801602052604090205473ffffffffffffffffffffffffffffffffffffffff8681169082161461273a576040517f08c379a000000000000000000000000000000000000000000000000000000000815260206004820152601560248201527f4552433732313a206e6f6e2d6f776e6564204e4654000000000000000000000060448201526064016107c3565b826127f3577401000000000000000000000000000000000000000081161580159061278d5750600084815260038901602052604090205473ffffffffffffffffffffffffffffffffffffffff8881169116145b6127f3576040517f08c379a000000000000000000000000000000000000000000000000000000000815260206004820152601b60248201527f4552433732313a206e6f6e2d617070726f7665642073656e646572000000000060448201526064016107c3565b6000848152600189016020526040902073ffffffffffffffffffffffffffffffffffffffff861690558161214f5761214f88878760018173ffffffffffffffffffffffffffffffffffffffff168373ffffffffffffffffffffffffffffffffffffffff161461065b5773ffffffffffffffffffffffffffffffffffffffff8316600090815260028501602052604081208054839290612893908490612e72565b909155505073ffffffffffffffffffffffffffffffffffffffff82166000908152600285016020526040812080548392906117fb908490612faf565b8280546128db90612e89565b90600052602060002090601f0160209004810192826128fd5760008555612943565b82601f1061291657805160ff1916838001178555612943565b82800160010185558215612943579182015b82811115612943578251825591602001919060010190612928565b5061294f929150612953565b5090565b5b8082111561294f5760008155600101612954565b7fffffffff000000000000000000000000000000000000000000000000000000008116811461067557600080fd5b6000602082840312156129a857600080fd5b81356106e281612968565b60005b838110156129ce5781810151838201526020016129b6565b8381111561065b5750506000910152565b600081518084526129f78160208601602086016129b3565b601f017fffffffffffffffffffffffffffffffffffffffffffffffffffffffffffffffe0169290920160200192915050565b6020815260006106e260208301846129df565b600060208284031215612a4e57600080fd5b5035919050565b803573ffffffffffffffffffffffffffffffffffffffff81168114612a7957600080fd5b919050565b60008060408385031215612a9157600080fd5b612a9a83612a55565b946020939093013593505050565b600080600060608486031215612abd57600080fd5b612ac684612a55565b9250612ad460208501612a55565b9150604084013590509250925092565b60008060408385031215612af757600080fd5b82359150612b0760208401612a55565b90509250929050565b60208152816020820152818360408301376000818301604090810191909152601f9092017fffffffffffffffffffffffffffffffffffffffffffffffffffffffffffffffe0160101919050565b600080600060408486031215612b7257600080fd5b612b7b84612a55565b9250602084013567ffffffffffffffff80821115612b9857600080fd5b818601915086601f830112612bac57600080fd5b813581811115612bbb57600080fd5b8760208260051b8501011115612bd057600080fd5b6020830194508093505050509250925092565b600060208284031215612bf557600080fd5b6106e282612a55565b60008060008060608587031215612c1457600080fd5b612c1d85612a55565b935060208501359250604085013567ffffffffffffffff80821115612c4157600080fd5b818701915087601f830112612c5557600080fd5b813581811115612c6457600080fd5b886020828501011115612c7657600080fd5b95989497505060200194505050565b60008060408385031215612c9857600080fd5b612ca183612a55565b915060208301358015158114612cb657600080fd5b809150509250929050565b7f4e487b7100000000000000000000000000000000000000000000000000000000600052604160045260246000fd5b60008060008060808587031215612d0657600080fd5b612d0f85612a55565b9350612d1d60208601612a55565b925060408501359150606085013567ffffffffffffffff80821115612d4157600080fd5b818701915087601f830112612d5557600080fd5b813581811115612d6757612d67612cc1565b604051601f82017fffffffffffffffffffffffffffffffffffffffffffffffffffffffffffffffe0908116603f01168101908382118183101715612dad57612dad612cc1565b816040528281528a6020848701011115612dc657600080fd5b82602086016020830137600060208483010152809550505050505092959194509250565b60008060408385031215612dfd57600080fd5b612e0683612a55565b9150612b0760208401612a55565b60008351612e268184602088016129b3565b835190830190612e3a8183602088016129b3565b01949350505050565b7f4e487b7100000000000000000000000000000000000000000000000000000000600052601160045260246000fd5b600082821015612e8457612e84612e43565b500390565b600181811c90821680612e9d57607f821691505b602082108103612ed6577f4e487b7100000000000000000000000000000000000000000000000000000000600052602260045260246000fd5b50919050565b7f416363657373436f6e74726f6c3a206d697373696e6720270000000000000000815260008251612f148160188501602087016129b3565b7f2720726f6c6500000000000000000000000000000000000000000000000000006018939091019283015250601e01919050565b7f4e487b7100000000000000000000000000000000000000000000000000000000600052603260045260246000fd5b60007fffffffffffffffffffffffffffffffffffffffffffffffffffffffffffffffff8203612fa857612fa8612e43565b5060010190565b60008219821115612fc257612fc2612e43565b500190565b600082612ffd577f4e487b7100000000000000000000000000000000000000000000000000000000600052601260045260246000fd5b500490565b60008161301157613011612e43565b507fffffffffffffffffffffffffffffffffffffffffffffffffffffffffffffffff0190565b600073ffffffffffffffffffffffffffffffffffffffff80871683528086166020840152508360408301526080606083015261307660808301846129df565b9695505050505050565b60006020828403121561309257600080fd5b81516106e28161296856fea2646970667358221220b0adf13eb0105ec4b52684b7be6c8faa4ce0ff7632e080a5fd4c7147f40ebc0564736f6c634300080d0033",
  "linkReferences": {},
  "deployedLinkReferences": {}
}