{
  "_format": "hh-sol-artifact-1",
  "contractName": "ERC721MintableOnceMock",
  "sourceName": "contracts/mocks/token/ERC721/ERC721MintableOnceMock.sol",
  "abi": [
    {
      "inputs": [
        {
          "internalType": "string",
          "name": "name_",
          "type": "string"
        },
        {
          "internalType": "string",
          "name": "symbol_",
          "type": "string"
        },
        {
          "internalType": "string",
          "name": "tokenURI_",
          "type": "string"
        }
      ],
      "stateMutability": "nonpayable",
      "type": "constructor"
    },
    {
      "anonymous": false,
      "inputs": [
        {
          "indexed": true,
          "internalType": "address",
          "name": "owner",
          "type": "address"
        },
        {
          "indexed": true,
          "internalType": "address",
          "name": "approved",
          "type": "address"
        },
        {
          "indexed": true,
          "internalType": "uint256",
          "name": "tokenId",
          "type": "uint256"
        }
      ],
      "name": "Approval",
      "type": "event"
    },
    {
      "anonymous": false,
      "inputs": [
        {
          "indexed": true,
          "internalType": "address",
          "name": "owner",
          "type": "address"
        },
        {
          "indexed": true,
          "internalType": "address",
          "name": "operator",
          "type": "address"
        },
        {
          "indexed": false,
          "internalType": "bool",
          "name": "approved",
          "type": "bool"
        }
      ],
      "name": "ApprovalForAll",
      "type": "event"
    },
    {
      "anonymous": false,
      "inputs": [
        {
          "indexed": true,
          "internalType": "address",
          "name": "previousOwner",
          "type": "address"
        },
        {
          "indexed": true,
          "internalType": "address",
          "name": "newOwner",
          "type": "address"
        }
      ],
      "name": "OwnershipTransferred",
      "type": "event"
    },
    {
      "anonymous": false,
      "inputs": [
        {
          "indexed": false,
          "internalType": "bytes32",
          "name": "role",
          "type": "bytes32"
        },
        {
          "indexed": false,
          "internalType": "address",
          "name": "account",
          "type": "address"
        },
        {
          "indexed": false,
          "internalType": "address",
          "name": "operator",
          "type": "address"
        }
      ],
      "name": "RoleGranted",
      "type": "event"
    },
    {
      "anonymous": false,
      "inputs": [
        {
          "indexed": false,
          "internalType": "bytes32",
          "name": "role",
          "type": "bytes32"
        },
        {
          "indexed": false,
          "internalType": "address",
          "name": "account",
          "type": "address"
        },
        {
          "indexed": false,
          "internalType": "address",
          "name": "operator",
          "type": "address"
        }
      ],
      "name": "RoleRevoked",
      "type": "event"
    },
    {
      "anonymous": false,
      "inputs": [
        {
          "indexed": true,
          "internalType": "address",
          "name": "from",
          "type": "address"
        },
        {
          "indexed": true,
          "internalType": "address",
          "name": "to",
          "type": "address"
        },
        {
          "indexed": true,
          "internalType": "uint256",
          "name": "tokenId",
          "type": "uint256"
        }
      ],
      "name": "Transfer",
      "type": "event"
    },
    {
      "inputs": [],
      "name": "MINTER_ROLE",
      "outputs": [
        {
          "internalType": "bytes32",
          "name": "",
          "type": "bytes32"
        }
      ],
      "stateMutability": "view",
      "type": "function"
    },
    {
      "inputs": [
        {
          "internalType": "address",
          "name": "to",
          "type": "address"
        },
        {
          "internalType": "uint256",
          "name": "tokenId",
          "type": "uint256"
        }
      ],
      "name": "approve",
      "outputs": [],
      "stateMutability": "nonpayable",
      "type": "function"
    },
    {
      "inputs": [
        {
          "internalType": "address",
          "name": "owner",
          "type": "address"
        }
      ],
      "name": "balanceOf",
      "outputs": [
        {
          "internalType": "uint256",
          "name": "",
          "type": "uint256"
        }
      ],
      "stateMutability": "view",
      "type": "function"
    },
    {
      "inputs": [
        {
          "internalType": "address",
          "name": "from",
          "type": "address"
        },
        {
          "internalType": "uint256[]",
          "name": "tokenIds",
          "type": "uint256[]"
        }
      ],
      "name": "batchBurnFrom",
      "outputs": [],
      "stateMutability": "nonpayable",
      "type": "function"
    },
    {
      "inputs": [
        {
          "internalType": "address",
          "name": "to",
          "type": "address"
        },
        {
          "internalType": "uint256[]",
          "name": "tokenIds",
          "type": "uint256[]"
        }
      ],
      "name": "batchMint",
      "outputs": [],
      "stateMutability": "nonpayable",
      "type": "function"
    },
    {
      "inputs": [
        {
          "internalType": "address",
          "name": "from",
          "type": "address"
        },
        {
          "internalType": "uint256",
          "name": "tokenId",
          "type": "uint256"
        }
      ],
      "name": "burnFrom",
      "outputs": [],
      "stateMutability": "nonpayable",
      "type": "function"
    },
    {
      "inputs": [
        {
          "internalType": "uint256",
          "name": "tokenId",
          "type": "uint256"
        }
      ],
      "name": "getApproved",
      "outputs": [
        {
          "internalType": "address",
          "name": "operator",
          "type": "address"
        }
      ],
      "stateMutability": "view",
      "type": "function"
    },
    {
      "inputs": [
        {
          "internalType": "bytes32",
          "name": "role",
          "type": "bytes32"
        },
        {
          "internalType": "address",
          "name": "account",
          "type": "address"
        }
      ],
      "name": "grantRole",
      "outputs": [],
      "stateMutability": "nonpayable",
      "type": "function"
    },
    {
      "inputs": [
        {
          "internalType": "bytes32",
          "name": "role",
          "type": "bytes32"
        },
        {
          "internalType": "address",
          "name": "account",
          "type": "address"
        }
      ],
      "name": "hasRole",
      "outputs": [
        {
          "internalType": "bool",
          "name": "",
          "type": "bool"
        }
      ],
      "stateMutability": "view",
      "type": "function"
    },
    {
      "inputs": [
        {
          "internalType": "address",
          "name": "owner",
          "type": "address"
        },
        {
          "internalType": "address",
          "name": "operator",
          "type": "address"
        }
      ],
      "name": "isApprovedForAll",
      "outputs": [
        {
          "internalType": "bool",
          "name": "",
          "type": "bool"
        }
      ],
      "stateMutability": "view",
      "type": "function"
    },
    {
      "inputs": [
        {
          "internalType": "address",
          "name": "to",
          "type": "address"
        },
        {
          "internalType": "uint256",
          "name": "tokenId",
          "type": "uint256"
        }
      ],
      "name": "mint",
      "outputs": [],
      "stateMutability": "nonpayable",
      "type": "function"
    },
    {
      "inputs": [],
      "name": "name",
      "outputs": [
        {
          "internalType": "string",
          "name": "",
          "type": "string"
        }
      ],
      "stateMutability": "view",
      "type": "function"
    },
    {
      "inputs": [],
      "name": "owner",
      "outputs": [
        {
          "internalType": "address",
          "name": "",
          "type": "address"
        }
      ],
      "stateMutability": "view",
      "type": "function"
    },
    {
      "inputs": [
        {
          "internalType": "uint256",
          "name": "tokenId",
          "type": "uint256"
        }
      ],
      "name": "ownerOf",
      "outputs": [
        {
          "internalType": "address",
          "name": "",
          "type": "address"
        }
      ],
      "stateMutability": "view",
      "type": "function"
    },
    {
      "inputs": [
        {
          "internalType": "bytes32",
          "name": "role",
          "type": "bytes32"
        }
      ],
      "name": "renounceRole",
      "outputs": [],
      "stateMutability": "nonpayable",
      "type": "function"
    },
    {
      "inputs": [
        {
          "internalType": "bytes32",
          "name": "role",
          "type": "bytes32"
        },
        {
          "internalType": "address",
          "name": "account",
          "type": "address"
        }
      ],
      "name": "revokeRole",
      "outputs": [],
      "stateMutability": "nonpayable",
      "type": "function"
    },
    {
      "inputs": [
        {
          "internalType": "address",
          "name": "to",
          "type": "address"
        },
        {
          "internalType": "uint256",
          "name": "tokenId",
          "type": "uint256"
        },
        {
          "internalType": "bytes",
          "name": "data",
          "type": "bytes"
        }
      ],
      "name": "safeMint",
      "outputs": [],
      "stateMutability": "nonpayable",
      "type": "function"
    },
    {
      "inputs": [
        {
          "internalType": "address",
          "name": "from",
          "type": "address"
        },
        {
          "internalType": "address",
          "name": "to",
          "type": "address"
        },
        {
          "internalType": "uint256",
          "name": "tokenId",
          "type": "uint256"
        }
      ],
      "name": "safeTransferFrom",
      "outputs": [],
      "stateMutability": "nonpayable",
      "type": "function"
    },
    {
      "inputs": [
        {
          "internalType": "address",
          "name": "from",
          "type": "address"
        },
        {
          "internalType": "address",
          "name": "to",
          "type": "address"
        },
        {
          "internalType": "uint256",
          "name": "tokenId",
          "type": "uint256"
        },
        {
          "internalType": "bytes",
          "name": "_data",
          "type": "bytes"
        }
      ],
      "name": "safeTransferFrom",
      "outputs": [],
      "stateMutability": "nonpayable",
      "type": "function"
    },
    {
      "inputs": [
        {
          "internalType": "address",
          "name": "operator",
          "type": "address"
        },
        {
          "internalType": "bool",
          "name": "_approved",
          "type": "bool"
        }
      ],
      "name": "setApprovalForAll",
      "outputs": [],
      "stateMutability": "nonpayable",
      "type": "function"
    },
    {
      "inputs": [
        {
          "internalType": "bytes4",
          "name": "interfaceId",
          "type": "bytes4"
        }
      ],
      "name": "supportsInterface",
      "outputs": [
        {
          "internalType": "bool",
          "name": "",
          "type": "bool"
        }
      ],
      "stateMutability": "view",
      "type": "function"
    },
    {
      "inputs": [],
      "name": "symbol",
      "outputs": [
        {
          "internalType": "string",
          "name": "",
          "type": "string"
        }
      ],
      "stateMutability": "view",
      "type": "function"
    },
    {
      "inputs": [
        {
          "internalType": "uint256",
          "name": "tokenId",
          "type": "uint256"
        }
      ],
      "name": "tokenURI",
      "outputs": [
        {
          "internalType": "string",
          "name": "",
          "type": "string"
        }
      ],
      "stateMutability": "view",
      "type": "function"
    },
    {
      "inputs": [
        {
          "internalType": "address",
          "name": "from",
          "type": "address"
        },
        {
          "internalType": "address",
          "name": "to",
          "type": "address"
        },
        {
          "internalType": "uint256",
          "name": "tokenId",
          "type": "uint256"
        }
      ],
      "name": "transferFrom",
      "outputs": [],
      "stateMutability": "nonpayable",
      "type": "function"
    },
    {
      "inputs": [
        {
          "internalType": "address",
          "name": "newOwner",
          "type": "address"
        }
      ],
      "name": "transferOwnership",
      "outputs": [],
      "stateMutability": "nonpayable",
      "type": "function"
    }
  ],
  "bytecode": "0x60806040523480156200001157600080fd5b506040516200397b3803806200397b83398101604081905262000034916200077a565b8282823362000062620000516200017760201b62000a5e1760201c565b620001ad60201b62000a8c1760201c565b6200008c6200007b6200021a60201b62000af61760201c565b6200024a60201b62000b241760201c565b620000ba81620000a66200029f60201b62000b7e1760201c565b620002cf60201b62000bac1790919060201c565b50620000f3638e773e1360e01b6001620000de6200021a60201b62000af61760201c565b6200037e60201b62000c90179092919060201c565b62000116638b8b4ef560e01b6001620000de6200021a60201b62000af61760201c565b62000148838383620001326200040c60201b62000d801760201c565b6200043c60201b62000dae17909392919060201c565b6200016b635b5e139f60e01b6001620000de6200021a60201b62000af61760201c565b5050505050506200086d565b600080620001a760017fddf3ee18ae6d688373c219468f8be446e7ae82215f4779d821c7ea5e8c13c0c16200080b565b92915050565b620001f4620001de60017ffddcdbf8ca7eb362a678daf3643ce3cf98ebf69ac314d25d376d5aeabd2f53326200080b565b60001b6001620004db60201b62000e311760201c565b620002176380ac58cd60e01b6001620000de6200021a60201b62000af61760201c565b50565b600080620001a760017f7180ffa89c91cf90d6c56dacabfc69bc5e36f3099d7eed2f5cc12c5dba016fe06200080b565b6200027b620001de60017f947245cdabe12ef4c13574b38217b361de48f57dd2dc345f43703c79bac2873d6200080b565b620002176301ffc9a760e01b6001836200037e60201b62000c90179092919060201c565b600080620001a760017f6a1da6973104ff7dedb9b4f5cab5830b3f4a0284ed754366cfc45568bd2d38df6200080b565b62000300620001de60017ff1e2f4de496ffe5d046d751d8ec3c329ee011c6c6a229322971a7e02a207f9736200080b565b6001600160a01b03811615620003575781546001600160a01b0319166001600160a01b03821690811783556040516000907f8be0079c531659141344cd1fd0a4f28419497f9722a3daafe3b4186f6b6457e0908290a35b6200037a6307f5828d60e41b6001620000de6200021a60201b62000af61760201c565b5050565b6001600160e01b03198083169003620003de5760405162461bcd60e51b815260206004820152601f60248201527f496e74657266616365446574656374696f6e3a2077726f6e672076616c75650060448201526064015b60405180910390fd5b6001600160e01b03199190911660009081526020929092526040909120805460ff1916911515919091179055565b600080620001a760017f5f5773833f4966721eb3773ed87c7208ea74d78f0d94de1d8074345cac67333f6200080b565b6200046d620001de60017fdf2ee7965c9504dc84db8f7759fc283282800c5a2fa3704c9f07f446b3b40a3f6200080b565b6200049d8383620004886200054e60201b62000ea11760201c565b6200057e60201b62000ecf179092919060201c565b8051620004b1908590602084019062000607565b50620004d5635b5e139f60e01b6001620000de6200021a60201b62000af61760201c565b50505050565b6000620004f3836200060460201b62000f541760201c565b9050818160000154106200054a5760405162461bcd60e51b815260206004820152601860248201527f53746f726167653a2076657273696f6e207265616368656400000000000000006044820152606401620003d5565b5550565b600080620001a760017f9c4269c0f9f430d98876ffe9767fbf3f3232ea91a549beb549e5329532520eb36200080b565b620005af620001de60017fa057eeb6560fae2987973d3bf40b89e6da66dd0b6aadac05dc6b5b0d7a8d45576200080b565b8151620005c3908490602085019062000607565b508051620005db906001850190602084019062000607565b50620005ff635b5e139f60e01b6001620000de6200021a60201b62000af61760201c565b505050565b90565b828054620006159062000831565b90600052602060002090601f01602090048101928262000639576000855562000684565b82601f106200065457805160ff191683800117855562000684565b8280016001018555821562000684579182015b828111156200068457825182559160200191906001019062000667565b506200069292915062000696565b5090565b5b8082111562000692576000815560010162000697565b634e487b7160e01b600052604160045260246000fd5b600082601f830112620006d557600080fd5b81516001600160401b0380821115620006f257620006f2620006ad565b604051601f8301601f19908116603f011681019082821181831017156200071d576200071d620006ad565b816040528381526020925086838588010111156200073a57600080fd5b600091505b838210156200075e57858201830151818301840152908201906200073f565b83821115620007705760008385830101525b9695505050505050565b6000806000606084860312156200079057600080fd5b83516001600160401b0380821115620007a857600080fd5b620007b687838801620006c3565b94506020860151915080821115620007cd57600080fd5b620007db87838801620006c3565b93506040860151915080821115620007f257600080fd5b506200080186828701620006c3565b9150509250925092565b6000828210156200082c57634e487b7160e01b600052601160045260246000fd5b500390565b600181811c908216806200084657607f821691505b6020821081036200086757634e487b7160e01b600052602260045260246000fd5b50919050565b6130fe806200087d6000396000f3fe608060405234801561001057600080fd5b50600436106101a35760003560e01c80638832e6e3116100ee578063b88d4fde11610097578063d547741f11610071578063d547741f14610381578063e985e9c514610394578063f2472965146103a7578063f2fde38b146103ba57600080fd5b8063b88d4fde14610334578063c87b56dd14610347578063d53913931461035a57600080fd5b806391d14854116100c857806391d148541461030657806395d89b4114610319578063a22cb4651461032157600080fd5b80638832e6e3146102d85780638bb9c5bf146102eb5780638da5cb5b146102fe57600080fd5b806340c10f19116101505780636352211e1161012a5780636352211e1461029157806370a08231146102a457806379cc6790146102c557600080fd5b806340c10f191461025857806342842e0e1461026b5780634684d7e91461027e57600080fd5b8063095ea7b311610181578063095ea7b31461021d57806323b872dd146102325780632f2ff15d1461024557600080fd5b806301ffc9a7146101a857806306fdde03146101d0578063081812fc146101e5575b600080fd5b6101bb6101b6366004612944565b6103cd565b60405190151581526020015b60405180910390f35b6101d861041a565b6040516101c791906129d7565b6101f86101f33660046129ea565b6104b2565b60405173ffffffffffffffffffffffffffffffffffffffff90911681526020016101c7565b61023061022b366004612a2c565b6104c6565b005b610230610240366004612a56565b6104e0565b610230610253366004612a92565b6104fd565b610230610266366004612a2c565b610526565b610230610279366004612a56565b610585565b61023061028c366004612abe565b61059d565b6101f861029f3660046129ea565b61060f565b6102b76102b2366004612b44565b6106b1565b6040519081526020016101c7565b6102306102d3366004612a2c565b610767565b6102306102e6366004612b5f565b61077d565b6102306102f93660046129ea565b6107f6565b6101f861080d565b6101bb610314366004612a92565b610833565b6101d861087e565b61023061032f366004612be6565b610896565b610230610342366004612c51565b6108ac565b6101d86103553660046129ea565b6108c6565b6102b77f6d696e746572000000000000000000000000000000000000000000000000000081565b61023061038f366004612a92565b61099a565b6101bb6103a2366004612d4b565b6109bd565b6102306103b5366004612abe565b610a00565b6102306103c8366004612b44565b610a4a565b6000610414826103db610af6565b907fffffffff00000000000000000000000000000000000000000000000000000000166000908152602091909152604090205460ff1690565b92915050565b6060610424610ea1565b805461042f90612d75565b80601f016020809104026020016040519081016040528092919081815260200182805461045b90612d75565b80156104a85780601f1061047d576101008083540402835291602001916104a8565b820191906000526020600020905b81548152906001019060200180831161048b57829003601f168201915b5050505050905090565b6000610414826104c0610a5e565b90610f57565b6104dc3383836104d4610a5e565b92919061103a565b5050565b6104f8338484846104ef610a5e565b939291906112f6565b505050565b336105108161050a610b7e565b9061131c565b6104f883838361051e61139f565b9291906113cd565b61055b7f6d696e7465720000000000000000000000000000000000000000000000000000335b61055461139f565b91906114a3565b6104dc33838360405180602001604052806000815250600061057b610a5e565b949392919061154f565b6104f833848484610594610a5e565b939291906116f5565b6105c77f6d696e74657200000000000000000000000000000000000000000000000000003361054c565b6104f8838383808060200260200160405190810160405280939291908181526020018383602002808284376000920191909152506106089250610a5e915050565b9190611714565b60008061061a610a5e565b60008481526001919091016020526040902054905073ffffffffffffffffffffffffffffffffffffffff8116610414576040517f08c379a000000000000000000000000000000000000000000000000000000000815260206004820152601860248201527f4552433732313a206e6f6e2d6578697374696e67204e4654000000000000000060448201526064015b60405180910390fd5b600073ffffffffffffffffffffffffffffffffffffffff8216610730576040517f08c379a000000000000000000000000000000000000000000000000000000000815260206004820152601460248201527f4552433732313a207a65726f206164647265737300000000000000000000000060448201526064016106a8565b610738610a5e565b73ffffffffffffffffffffffffffffffffffffffff909216600090815260029290920160205250604090205490565b6104dc338383610775610a5e565b9291906118ff565b6107a77f6d696e74657200000000000000000000000000000000000000000000000000003361054c565b6107f033858585858080601f0160208091040260200160405190810160405280939291908181526020018383808284376000920191909152506001925061057b9150610a5e9050565b50505050565b61080a338261080361139f565b9190611969565b50565b6000610817610b7e565b5473ffffffffffffffffffffffffffffffffffffffff16919050565b6000610877838361084261139f565b60009283526020908152604080842073ffffffffffffffffffffffffffffffffffffffff909316845291905290205460ff1690565b9392505050565b6060610888610ea1565b600101805461042f90612d75565b6104dc3383836108a4610a5e565b929190611a0d565b6107f033858585856108bc610a5e565b9493929190611b39565b606060006108d2610a5e565b6000848152600191909101602052604090205473ffffffffffffffffffffffffffffffffffffffff1603610962576040517f08c379a000000000000000000000000000000000000000000000000000000000815260206004820152601860248201527f4552433732313a206e6f6e2d6578697374696e67204e4654000000000000000060448201526064016106a8565b61096a610d80565b61097383611b49565b604051602001610984929190612de4565b6040516020818303038152906040529050919050565b336109a78161050a610b7e565b6104f88383836109b561139f565b929190611c7d565b60006109c7610a5e565b73ffffffffffffffffffffffffffffffffffffffff93841660009081526020918252604080822094909516815292905250205460ff1690565b6104f83384848480806020026020016040519081016040528093929190818152602001838360200280828437600092019190915250610a429250610a5e915050565b929190611d47565b61080a3382610a57610b7e565b9190611e31565b60008061041460017fddf3ee18ae6d688373c219468f8be446e7ae82215f4779d821c7ea5e8c13c0c1612ef0565b610ac1610aba60017ffddcdbf8ca7eb362a678daf3643ce3cf98ebf69ac314d25d376d5aeabd2f5332612ef0565b6001610e31565b61080a7f80ac58cd000000000000000000000000000000000000000000000000000000006001610aef610af6565b9190610c90565b60008061041460017f7180ffa89c91cf90d6c56dacabfc69bc5e36f3099d7eed2f5cc12c5dba016fe0612ef0565b610b52610aba60017f947245cdabe12ef4c13574b38217b361de48f57dd2dc345f43703c79bac2873d612ef0565b61080a817f01ffc9a7000000000000000000000000000000000000000000000000000000006001610c90565b60008061041460017f6a1da6973104ff7dedb9b4f5cab5830b3f4a0284ed754366cfc45568bd2d38df612ef0565b610bda610aba60017ff1e2f4de496ffe5d046d751d8ec3c329ee011c6c6a229322971a7e02a207f973612ef0565b73ffffffffffffffffffffffffffffffffffffffff811615610c625781547fffffffffffffffffffffffff00000000000000000000000000000000000000001673ffffffffffffffffffffffffffffffffffffffff821690811783556040516000907f8be0079c531659141344cd1fd0a4f28419497f9722a3daafe3b4186f6b6457e0908290a35b6104dc7f7f5828d0000000000000000000000000000000000000000000000000000000006001610aef610af6565b7fffffffff000000000000000000000000000000000000000000000000000000008083169003610d1c576040517f08c379a000000000000000000000000000000000000000000000000000000000815260206004820152601f60248201527f496e74657266616365446574656374696f6e3a2077726f6e672076616c75650060448201526064016106a8565b7fffffffff00000000000000000000000000000000000000000000000000000000919091166000908152602092909252604090912080547fffffffffffffffffffffffffffffffffffffffffffffffffffffffffffffff0016911515919091179055565b60008061041460017f5f5773833f4966721eb3773ed87c7208ea74d78f0d94de1d8074345cac67333f612ef0565b610ddc610aba60017fdf2ee7965c9504dc84db8f7759fc283282800c5a2fa3704c9f07f446b3b40a3f612ef0565b610df08383610de9610ea1565b9190610ecf565b8051610e02908590602084019061287d565b506107f07f5b5e139f000000000000000000000000000000000000000000000000000000006001610aef610af6565b815482908211610e9d576040517f08c379a000000000000000000000000000000000000000000000000000000000815260206004820152601860248201527f53746f726167653a2076657273696f6e2072656163686564000000000000000060448201526064016106a8565b5550565b60008061041460017f9c4269c0f9f430d98876ffe9767fbf3f3232ea91a549beb549e5329532520eb3612ef0565b610efd610aba60017fa057eeb6560fae2987973d3bf40b89e6da66dd0b6aadac05dc6b5b0d7a8d4557612ef0565b8151610f0f908490602085019061287d565b508051610f25906001850190602084019061287d565b506104f87f5b5e139f000000000000000000000000000000000000000000000000000000006001610aef610af6565b90565b600081815260018301602052604081205473ffffffffffffffffffffffffffffffffffffffff8116610fe5576040517f08c379a000000000000000000000000000000000000000000000000000000000815260206004820152601860248201527f4552433732313a206e6f6e2d6578697374696e67204e4654000000000000000060448201526064016106a8565b74010000000000000000000000000000000000000000811615611030575050600081815260038301602052604090205473ffffffffffffffffffffffffffffffffffffffff16610414565b6000915050610414565b6000818152600185016020526040812054908190036110b5576040517f08c379a000000000000000000000000000000000000000000000000000000000815260206004820152601860248201527f4552433732313a206e6f6e2d6578697374696e67204e4654000000000000000060448201526064016106a8565b8073ffffffffffffffffffffffffffffffffffffffff80821690851603611138576040517f08c379a000000000000000000000000000000000000000000000000000000000815260206004820152601560248201527f4552433732313a2073656c662d617070726f76616c000000000000000000000060448201526064016106a8565b611143868287611f5d565b6111a9576040517f08c379a000000000000000000000000000000000000000000000000000000000815260206004820152601b60248201527f4552433732313a206e6f6e2d617070726f7665642073656e646572000000000060448201526064016106a8565b73ffffffffffffffffffffffffffffffffffffffff8416611210577401000000000000000000000000000000000000000082161561120b576000838152600187016020526040902073ffffffffffffffffffffffffffffffffffffffff821690555b611293565b74010000000000000000000000000000000000000000821780831461124357600084815260018801602052604090208190555b506000838152600387016020526040902080547fffffffffffffffffffffffff00000000000000000000000000000000000000001673ffffffffffffffffffffffffffffffffffffffff86161790555b828473ffffffffffffffffffffffffffffffffffffffff168273ffffffffffffffffffffffffffffffffffffffff167f8c5be1e5ebec7d5bd14f71427d1e84f3dd0314c0f7b2291e5b200ac8c7c3b92560405160405180910390a4505050505050565b6113158585858585604051806020016040528060008152506000611fd1565b5050505050565b815473ffffffffffffffffffffffffffffffffffffffff8281169116146104dc576040517f08c379a000000000000000000000000000000000000000000000000000000000815260206004820152601860248201527f4f776e6572736869703a206e6f7420746865206f776e6572000000000000000060448201526064016106a8565b60008061041460017fc8a24fbf085abf1493c5f225802d03df3ece6cd19f18edff36c56d854cddac9e612ef0565b60008381526020858152604080832073ffffffffffffffffffffffffffffffffffffffff8616845290915290205460ff166107f05760008381526020858152604080832073ffffffffffffffffffffffffffffffffffffffff8681168086529184529382902080547fffffffffffffffffffffffffffffffffffffffffffffffffffffffffffffff00166001179055815187815292830152918316918101919091527f2f8788117e7eff1d82e926ec794901d17c78024a50270940304540a733656f0d906060015b60405180910390a150505050565b60008281526020848152604080832073ffffffffffffffffffffffffffffffffffffffff8516845290915290205460ff166104f8576114e182612107565b6040516020016114f19190612f07565b604080517fffffffffffffffffffffffffffffffffffffffffffffffffffffffffffffffe0818403018152908290527f08c379a00000000000000000000000000000000000000000000000000000000082526106a8916004016129d7565b73ffffffffffffffffffffffffffffffffffffffff84166115cc576040517f08c379a000000000000000000000000000000000000000000000000000000000815260206004820152601460248201527f4552433732313a206d696e7420746f207a65726f00000000000000000000000060448201526064016106a8565b60008381526001870160205260409020547f215300000000000000000000000000000000000000000000000000000000000001611665576040517f08c379a000000000000000000000000000000000000000000000000000000000815260206004820152601160248201527f4552433732313a206275726e74204e465400000000000000000000000000000060448201526064016106a8565b6116728685856000612288565b604051839073ffffffffffffffffffffffffffffffffffffffff8616906000907fddf252ad1be2c89b69c2b068fc378daa952ba7f163c4a11628f55a4df523b3ef908290a48080156116da575073ffffffffffffffffffffffffffffffffffffffff84163b15155b156116ed576116ed85600086868661236d565b505050505050565b6113158585858585604051806020016040528060008152506001611fd1565b73ffffffffffffffffffffffffffffffffffffffff8216611791576040517f08c379a000000000000000000000000000000000000000000000000000000000815260206004820152601460248201527f4552433732313a206d696e7420746f207a65726f00000000000000000000000060448201526064016106a8565b805160005b8181146118bc5760008382815181106117b1576117b1612f73565b602002602001015190507fdead0000000000000000000000000000000000000000000000000000000000008660010160008381526020019081526020016000205403611859576040517f08c379a000000000000000000000000000000000000000000000000000000000815260206004820152601160248201527f4552433732313a206275726e74204e465400000000000000000000000000000060448201526064016106a8565b6118668686836001612288565b604051819073ffffffffffffffffffffffffffffffffffffffff8716906000907fddf252ad1be2c89b69c2b068fc378daa952ba7f163c4a11628f55a4df523b3ef908290a4506118b581612fa2565b9050611796565b5073ffffffffffffffffffffffffffffffffffffffff83166000908152600285016020526040812080548392906118f4908490612fda565b909155505050505050565b600061190c858486611f5d565b905061191d85858585856000612493565b604051829060009073ffffffffffffffffffffffffffffffffffffffff8616907fddf252ad1be2c89b69c2b068fc378daa952ba7f163c4a11628f55a4df523b3ef908390a45050505050565b6119748382846114a3565b60008181526020848152604080832073ffffffffffffffffffffffffffffffffffffffff86168085529083529281902080547fffffffffffffffffffffffffffffffffffffffffffffffffffffffffffffff0016905580518481529182018390528101919091527ff6391f5c32d9c69d2a47ea670b442974b53935d1edc7fd64eb21e047a839171b9060600160405180910390a1505050565b8273ffffffffffffffffffffffffffffffffffffffff168273ffffffffffffffffffffffffffffffffffffffff1603611aa2576040517f08c379a000000000000000000000000000000000000000000000000000000000815260206004820152601560248201527f4552433732313a2073656c662d617070726f76616c000000000000000000000060448201526064016106a8565b73ffffffffffffffffffffffffffffffffffffffff8381166000818152602087815260408083209487168084529482529182902080547fffffffffffffffffffffffffffffffffffffffffffffffffffffffffffffff001686151590811790915591519182527f17307eab39ab6107e8899845ad3d59bd9653f200f220920489ca2b5937696c31910160405180910390a350505050565b6116ed8686868686866001611fd1565b606081600003611b8c57505060408051808201909152600181527f3000000000000000000000000000000000000000000000000000000000000000602082015290565b8160005b8115611bb65780611ba081612fa2565b9150611baf9050600a83612ff2565b9150611b90565b60008167ffffffffffffffff811115611bd157611bd1612c22565b6040519080825280601f01601f191660200182016040528015611bfb576020820181803683370190505b5090506000611c0b600184612ef0565b90508593505b8315611c7457600a840660300160f81b82828060019003935081518110611c3a57611c3a612f73565b60200101907effffffffffffffffffffffffffffffffffffffffffffffffffffffffffffff1916908160001a905350600a84049350611c11565b50949350505050565b60008381526020858152604080832073ffffffffffffffffffffffffffffffffffffffff8616845290915290205460ff16156107f05760008381526020858152604080832073ffffffffffffffffffffffffffffffffffffffff8681168086529184529382902080547fffffffffffffffffffffffffffffffffffffffffffffffffffffffffffffff00169055815187815292830152918316918101919091527ff6391f5c32d9c69d2a47ea670b442974b53935d1edc7fd64eb21e047a839171b90606001611495565b6000611d54858486611f5d565b825190915060005b818114611de6576000848281518110611d7757611d77612f73565b60200260200101519050611d9088888884886001612493565b604051819060009073ffffffffffffffffffffffffffffffffffffffff8916907fddf252ad1be2c89b69c2b068fc378daa952ba7f163c4a11628f55a4df523b3ef908390a450611ddf81612fa2565b9050611d5c565b5080156116ed5773ffffffffffffffffffffffffffffffffffffffff8416600090815260028701602052604081208054839290611e24908490612ef0565b9091555050505050505050565b825473ffffffffffffffffffffffffffffffffffffffff9081169083168114611eb6576040517f08c379a000000000000000000000000000000000000000000000000000000000815260206004820152601860248201527f4f776e6572736869703a206e6f7420746865206f776e6572000000000000000060448201526064016106a8565b8173ffffffffffffffffffffffffffffffffffffffff168173ffffffffffffffffffffffffffffffffffffffff16146107f05783547fffffffffffffffffffffffff00000000000000000000000000000000000000001673ffffffffffffffffffffffffffffffffffffffff8381169182178655604051908316907f8be0079c531659141344cd1fd0a4f28419497f9722a3daafe3b4186f6b6457e090600090a350505050565b60008173ffffffffffffffffffffffffffffffffffffffff168373ffffffffffffffffffffffffffffffffffffffff161480611fc9575073ffffffffffffffffffffffffffffffffffffffff8084166000908152602086815260408083209386168352929052205460ff165b949350505050565b73ffffffffffffffffffffffffffffffffffffffff841661204e576040517f08c379a000000000000000000000000000000000000000000000000000000000815260206004820152601860248201527f4552433732313a207472616e7366657220746f207a65726f000000000000000060448201526064016106a8565b600061205b888789611f5d565b905061206d8888888888866000612655565b838573ffffffffffffffffffffffffffffffffffffffff168773ffffffffffffffffffffffffffffffffffffffff167fddf252ad1be2c89b69c2b068fc378daa952ba7f163c4a11628f55a4df523b3ef60405160405180910390a48180156120eb575073ffffffffffffffffffffffffffffffffffffffff85163b15155b156120fd576120fd878787878761236d565b5050505050505050565b6060600082900361212657505060408051602081019091526000815290565b60008260405160200161213b91815260200190565b604080517fffffffffffffffffffffffffffffffffffffffffffffffffffffffffffffffe08184030181529190529050601f5b81818151811061218057612180612f73565b01602001517fff00000000000000000000000000000000000000000000000000000000000000166000036121be576121b78161302d565b905061216e565b60006121cb826001612fda565b67ffffffffffffffff8111156121e3576121e3612c22565b6040519080825280601f01601f19166020018201604052801561220d576020820181803683370190505b50905060005b828111611c745783818151811061222c5761222c612f73565b602001015160f81c60f81b82828151811061224957612249612f73565b60200101907effffffffffffffffffffffffffffffffffffffffffffffffffffffffffffff1916908160001a90535061228181612fa2565b9050612213565b600082815260018501602052604090205415612300576040517f08c379a000000000000000000000000000000000000000000000000000000000815260206004820152601a60248201527f4552433732313a206578697374696e672f6275726e74204e465400000000000060448201526064016106a8565b6000828152600185016020526040902073ffffffffffffffffffffffffffffffffffffffff84169055806107f05773ffffffffffffffffffffffffffffffffffffffff831660009081526002850160205260408120805490919061236390612fa2565b9091555050505050565b6040517f150b7a02000000000000000000000000000000000000000000000000000000008082529073ffffffffffffffffffffffffffffffffffffffff85169063150b7a02906123c7908990899088908890600401613062565b6020604051808303816000875af11580156123e6573d6000803e3d6000fd5b505050506040513d601f19601f8201168201806040525081019061240a91906130ab565b7fffffffff000000000000000000000000000000000000000000000000000000001614611315576040517f08c379a000000000000000000000000000000000000000000000000000000000815260206004820152601860248201527f4552433732313a207472616e736665722072656675736564000000000000000060448201526064016106a8565b600083815260018701602052604090205473ffffffffffffffffffffffffffffffffffffffff85811690821614612526576040517f08c379a000000000000000000000000000000000000000000000000000000000815260206004820152601560248201527f4552433732313a206e6f6e2d6f776e6564204e4654000000000000000000000060448201526064016106a8565b826125df57740100000000000000000000000000000000000000008116158015906125795750600084815260038801602052604090205473ffffffffffffffffffffffffffffffffffffffff8781169116145b6125df576040517f08c379a000000000000000000000000000000000000000000000000000000000815260206004820152601b60248201527f4552433732313a206e6f6e2d617070726f7665642073656e646572000000000060448201526064016106a8565b600084815260018801602052604090207fdead00000000000000000000000000000000000000000000000000000000000090558161264c5773ffffffffffffffffffffffffffffffffffffffff8516600090815260028801602052604081208054909190611e249061302d565b50505050505050565b600083815260018801602052604090205473ffffffffffffffffffffffffffffffffffffffff868116908216146126e8576040517f08c379a000000000000000000000000000000000000000000000000000000000815260206004820152601560248201527f4552433732313a206e6f6e2d6f776e6564204e4654000000000000000000000060448201526064016106a8565b826127a1577401000000000000000000000000000000000000000081161580159061273b5750600084815260038901602052604090205473ffffffffffffffffffffffffffffffffffffffff8881169116145b6127a1576040517f08c379a000000000000000000000000000000000000000000000000000000000815260206004820152601b60248201527f4552433732313a206e6f6e2d617070726f7665642073656e646572000000000060448201526064016106a8565b6000848152600189016020526040902073ffffffffffffffffffffffffffffffffffffffff86169055816120fd576120fd88878760018173ffffffffffffffffffffffffffffffffffffffff168373ffffffffffffffffffffffffffffffffffffffff16146107f05773ffffffffffffffffffffffffffffffffffffffff8316600090815260028501602052604081208054839290612841908490612ef0565b909155505073ffffffffffffffffffffffffffffffffffffffff82166000908152600285016020526040812080548392906118f4908490612fda565b82805461288990612d75565b90600052602060002090601f0160209004810192826128ab57600085556128f1565b82601f106128c457805160ff19168380011785556128f1565b828001600101855582156128f1579182015b828111156128f15782518255916020019190600101906128d6565b506128fd929150612901565b5090565b5b808211156128fd5760008155600101612902565b7fffffffff000000000000000000000000000000000000000000000000000000008116811461080a57600080fd5b60006020828403121561295657600080fd5b813561087781612916565b60005b8381101561297c578181015183820152602001612964565b838111156107f05750506000910152565b600081518084526129a5816020860160208601612961565b601f017fffffffffffffffffffffffffffffffffffffffffffffffffffffffffffffffe0169290920160200192915050565b602081526000610877602083018461298d565b6000602082840312156129fc57600080fd5b5035919050565b803573ffffffffffffffffffffffffffffffffffffffff81168114612a2757600080fd5b919050565b60008060408385031215612a3f57600080fd5b612a4883612a03565b946020939093013593505050565b600080600060608486031215612a6b57600080fd5b612a7484612a03565b9250612a8260208501612a03565b9150604084013590509250925092565b60008060408385031215612aa557600080fd5b82359150612ab560208401612a03565b90509250929050565b600080600060408486031215612ad357600080fd5b612adc84612a03565b9250602084013567ffffffffffffffff80821115612af957600080fd5b818601915086601f830112612b0d57600080fd5b813581811115612b1c57600080fd5b8760208260051b8501011115612b3157600080fd5b6020830194508093505050509250925092565b600060208284031215612b5657600080fd5b61087782612a03565b60008060008060608587031215612b7557600080fd5b612b7e85612a03565b935060208501359250604085013567ffffffffffffffff80821115612ba257600080fd5b818701915087601f830112612bb657600080fd5b813581811115612bc557600080fd5b886020828501011115612bd757600080fd5b95989497505060200194505050565b60008060408385031215612bf957600080fd5b612c0283612a03565b915060208301358015158114612c1757600080fd5b809150509250929050565b7f4e487b7100000000000000000000000000000000000000000000000000000000600052604160045260246000fd5b60008060008060808587031215612c6757600080fd5b612c7085612a03565b9350612c7e60208601612a03565b925060408501359150606085013567ffffffffffffffff80821115612ca257600080fd5b818701915087601f830112612cb657600080fd5b813581811115612cc857612cc8612c22565b604051601f82017fffffffffffffffffffffffffffffffffffffffffffffffffffffffffffffffe0908116603f01168101908382118183101715612d0e57612d0e612c22565b816040528281528a6020848701011115612d2757600080fd5b82602086016020830137600060208483010152809550505050505092959194509250565b60008060408385031215612d5e57600080fd5b612d6783612a03565b9150612ab560208401612a03565b600181811c90821680612d8957607f821691505b602082108103612dc2577f4e487b7100000000000000000000000000000000000000000000000000000000600052602260045260246000fd5b50919050565b60008151612dda818560208601612961565b9290920192915050565b600080845481600182811c915080831680612e0057607f831692505b60208084108203612e38577f4e487b710000000000000000000000000000000000000000000000000000000086526022600452602486fd5b818015612e4c5760018114612e7b57612ea8565b7fffffffffffffffffffffffffffffffffffffffffffffffffffffffffffffff00861689528489019650612ea8565b60008b81526020902060005b86811015612ea05781548b820152908501908301612e87565b505084890196505b505050505050612eb88185612dc8565b95945050505050565b7f4e487b7100000000000000000000000000000000000000000000000000000000600052601160045260246000fd5b600082821015612f0257612f02612ec1565b500390565b7f416363657373436f6e74726f6c3a206d697373696e6720270000000000000000815260008251612f3f816018850160208701612961565b7f2720726f6c6500000000000000000000000000000000000000000000000000006018939091019283015250601e01919050565b7f4e487b7100000000000000000000000000000000000000000000000000000000600052603260045260246000fd5b60007fffffffffffffffffffffffffffffffffffffffffffffffffffffffffffffffff8203612fd357612fd3612ec1565b5060010190565b60008219821115612fed57612fed612ec1565b500190565b600082613028577f4e487b7100000000000000000000000000000000000000000000000000000000600052601260045260246000fd5b500490565b60008161303c5761303c612ec1565b507fffffffffffffffffffffffffffffffffffffffffffffffffffffffffffffffff0190565b600073ffffffffffffffffffffffffffffffffffffffff8087168352808616602084015250836040830152608060608301526130a1608083018461298d565b9695505050505050565b6000602082840312156130bd57600080fd5b81516108778161291656fea2646970667358221220b4d415d69a77276a42100568f09ce69ac7edee79583955bfb9efc5055357d4e264736f6c634300080d0033",
  "linkReferences": {},
  "deployedLinkReferences": {}
}