{
  "_format": "hh-sol-artifact-1",
  "contractName": "ERC721MintableOnceMock",
  "sourceName": "contracts/mocks/token/ERC721/ERC721MintableOnceMock.sol",
  "abi": [
    {
      "inputs": [
        {
          "internalType": "string",
          "name": "name_",
          "type": "string"
        },
        {
          "internalType": "string",
          "name": "symbol_",
          "type": "string"
        },
        {
          "internalType": "string",
          "name": "tokenURI_",
          "type": "string"
        }
      ],
      "stateMutability": "nonpayable",
      "type": "constructor"
    },
    {
      "anonymous": false,
      "inputs": [
        {
          "indexed": true,
          "internalType": "address",
          "name": "owner",
          "type": "address"
        },
        {
          "indexed": true,
          "internalType": "address",
          "name": "approved",
          "type": "address"
        },
        {
          "indexed": true,
          "internalType": "uint256",
          "name": "tokenId",
          "type": "uint256"
        }
      ],
      "name": "Approval",
      "type": "event"
    },
    {
      "anonymous": false,
      "inputs": [
        {
          "indexed": true,
          "internalType": "address",
          "name": "owner",
          "type": "address"
        },
        {
          "indexed": true,
          "internalType": "address",
          "name": "operator",
          "type": "address"
        },
        {
          "indexed": false,
          "internalType": "bool",
          "name": "approved",
          "type": "bool"
        }
      ],
      "name": "ApprovalForAll",
      "type": "event"
    },
    {
      "anonymous": false,
      "inputs": [
        {
          "indexed": true,
          "internalType": "address",
          "name": "from",
          "type": "address"
        },
        {
          "indexed": true,
          "internalType": "address",
          "name": "to",
          "type": "address"
        },
        {
          "indexed": true,
          "internalType": "uint256",
          "name": "tokenId",
          "type": "uint256"
        }
      ],
      "name": "Transfer",
      "type": "event"
    },
    {
      "inputs": [
        {
          "internalType": "address",
          "name": "to",
          "type": "address"
        },
        {
          "internalType": "uint256",
          "name": "tokenId",
          "type": "uint256"
        }
      ],
      "name": "approve",
      "outputs": [],
      "stateMutability": "nonpayable",
      "type": "function"
    },
    {
      "inputs": [
        {
          "internalType": "address",
          "name": "owner",
          "type": "address"
        }
      ],
      "name": "balanceOf",
      "outputs": [
        {
          "internalType": "uint256",
          "name": "",
          "type": "uint256"
        }
      ],
      "stateMutability": "view",
      "type": "function"
    },
    {
      "inputs": [
        {
          "internalType": "address",
          "name": "from",
          "type": "address"
        },
        {
          "internalType": "uint256[]",
          "name": "tokenIds",
          "type": "uint256[]"
        }
      ],
      "name": "batchBurnFrom",
      "outputs": [],
      "stateMutability": "nonpayable",
      "type": "function"
    },
    {
      "inputs": [
        {
          "internalType": "address",
          "name": "to",
          "type": "address"
        },
        {
          "internalType": "uint256[]",
          "name": "tokenIds",
          "type": "uint256[]"
        }
      ],
      "name": "batchMintOnce",
      "outputs": [],
      "stateMutability": "nonpayable",
      "type": "function"
    },
    {
      "inputs": [
        {
          "internalType": "address",
          "name": "from",
          "type": "address"
        },
        {
          "internalType": "uint256",
          "name": "tokenId",
          "type": "uint256"
        }
      ],
      "name": "burnFrom",
      "outputs": [],
      "stateMutability": "nonpayable",
      "type": "function"
    },
    {
      "inputs": [
        {
          "internalType": "uint256",
          "name": "tokenId",
          "type": "uint256"
        }
      ],
      "name": "getApproved",
      "outputs": [
        {
          "internalType": "address",
          "name": "operator",
          "type": "address"
        }
      ],
      "stateMutability": "view",
      "type": "function"
    },
    {
      "inputs": [
        {
          "internalType": "address",
          "name": "owner",
          "type": "address"
        },
        {
          "internalType": "address",
          "name": "operator",
          "type": "address"
        }
      ],
      "name": "isApprovedForAll",
      "outputs": [
        {
          "internalType": "bool",
          "name": "",
          "type": "bool"
        }
      ],
      "stateMutability": "view",
      "type": "function"
    },
    {
      "inputs": [
        {
          "internalType": "address",
          "name": "to",
          "type": "address"
        },
        {
          "internalType": "uint256",
          "name": "tokenId",
          "type": "uint256"
        }
      ],
      "name": "mintOnce",
      "outputs": [],
      "stateMutability": "nonpayable",
      "type": "function"
    },
    {
      "inputs": [
        {
          "internalType": "uint256",
          "name": "tokenId",
          "type": "uint256"
        }
      ],
      "name": "ownerOf",
      "outputs": [
        {
          "internalType": "address",
          "name": "",
          "type": "address"
        }
      ],
      "stateMutability": "view",
      "type": "function"
    },
    {
      "inputs": [
        {
          "internalType": "address",
          "name": "to",
          "type": "address"
        },
        {
          "internalType": "uint256",
          "name": "tokenId",
          "type": "uint256"
        },
        {
          "internalType": "bytes",
          "name": "data",
          "type": "bytes"
        }
      ],
      "name": "safeMintOnce",
      "outputs": [],
      "stateMutability": "nonpayable",
      "type": "function"
    },
    {
      "inputs": [
        {
          "internalType": "address",
          "name": "from",
          "type": "address"
        },
        {
          "internalType": "address",
          "name": "to",
          "type": "address"
        },
        {
          "internalType": "uint256",
          "name": "tokenId",
          "type": "uint256"
        }
      ],
      "name": "safeTransferFrom",
      "outputs": [],
      "stateMutability": "nonpayable",
      "type": "function"
    },
    {
      "inputs": [
        {
          "internalType": "address",
          "name": "from",
          "type": "address"
        },
        {
          "internalType": "address",
          "name": "to",
          "type": "address"
        },
        {
          "internalType": "uint256",
          "name": "tokenId",
          "type": "uint256"
        },
        {
          "internalType": "bytes",
          "name": "_data",
          "type": "bytes"
        }
      ],
      "name": "safeTransferFrom",
      "outputs": [],
      "stateMutability": "nonpayable",
      "type": "function"
    },
    {
      "inputs": [
        {
          "internalType": "address",
          "name": "operator",
          "type": "address"
        },
        {
          "internalType": "bool",
          "name": "_approved",
          "type": "bool"
        }
      ],
      "name": "setApprovalForAll",
      "outputs": [],
      "stateMutability": "nonpayable",
      "type": "function"
    },
    {
      "inputs": [
        {
          "internalType": "address",
          "name": "from",
          "type": "address"
        },
        {
          "internalType": "address",
          "name": "to",
          "type": "address"
        },
        {
          "internalType": "uint256",
          "name": "tokenId",
          "type": "uint256"
        }
      ],
      "name": "transferFrom",
      "outputs": [],
      "stateMutability": "nonpayable",
      "type": "function"
    }
  ],
  "bytecode": "0x60806040523480156200001157600080fd5b50604051620024e7380380620024e7833981016040819052620000349162000320565b6200005e6200004d6200006760201b620005a61760201c565b6200009d60201b620005d41760201c565b505050620003d7565b6000806200009760017fddf3ee18ae6d688373c219468f8be446e7ae82215f4779d821c7ea5e8c13c0c1620003b1565b92915050565b620000e4620000ce60017ffddcdbf8ca7eb362a678daf3643ce3cf98ebf69ac314d25d376d5aeabd2f5332620003b1565b60001b60016200011f60201b620006411760201c565b6200011c6380ac58cd60e01b6001620001076200019660201b620006b11760201c565b620001c660201b620006df179092919060201c565b50565b600062000137836200025060201b620007cf1760201c565b905081816000015410620001925760405162461bcd60e51b815260206004820152601860248201527f53746f726167653a2076657273696f6e2072656163686564000000000000000060448201526064015b60405180910390fd5b5550565b6000806200009760017f7180ffa89c91cf90d6c56dacabfc69bc5e36f3099d7eed2f5cc12c5dba016fe0620003b1565b6001600160e01b03198083169003620002225760405162461bcd60e51b815260206004820152601f60248201527f496e74657266616365446574656374696f6e3a2077726f6e672076616c756500604482015260640162000189565b6001600160e01b03199190911660009081526020929092526040909120805460ff1916911515919091179055565b90565b634e487b7160e01b600052604160045260246000fd5b600082601f8301126200027b57600080fd5b81516001600160401b038082111562000298576200029862000253565b604051601f8301601f19908116603f01168101908282118183101715620002c357620002c362000253565b81604052838152602092508683858801011115620002e057600080fd5b600091505b83821015620003045785820183015181830184015290820190620002e5565b83821115620003165760008385830101525b9695505050505050565b6000806000606084860312156200033657600080fd5b83516001600160401b03808211156200034e57600080fd5b6200035c8783880162000269565b945060208601519150808211156200037357600080fd5b620003818783880162000269565b935060408601519150808211156200039857600080fd5b50620003a78682870162000269565b9150509250925092565b600082821015620003d257634e487b7160e01b600052601160045260246000fd5b500390565b61210080620003e76000396000f3fe608060405234801561001057600080fd5b50600436106100ea5760003560e01c8063a22cb4651161008c578063e2366d3b11610066578063e2366d3b146101e7578063e985e9c5146101fa578063f24729651461021d578063f598136a1461023057600080fd5b8063a22cb465146101ae578063b0ebfe0c146101c1578063b88d4fde146101d457600080fd5b806342842e0e116100c857806342842e0e146101545780636352211e1461016757806370a082311461017a57806379cc67901461019b57600080fd5b8063081812fc146100ef578063095ea7b31461012c57806323b872dd14610141575b600080fd5b6101026100fd366004611b20565b610243565b60405173ffffffffffffffffffffffffffffffffffffffff90911681526020015b60405180910390f35b61013f61013a366004611b62565b61025d565b005b61013f61014f366004611b8c565b6102fa565b61013f610162366004611b8c565b610317565b610102610175366004611b20565b61032f565b61018d610188366004611bc8565b61034d565b604051908152602001610123565b61013f6101a9366004611b62565b610408565b61013f6101bc366004611bea565b61041e565b61013f6101cf366004611c26565b610434565b61013f6101e2366004611cdc565b61048d565b61013f6101f5366004611dd6565b6104a7565b61020d610208366004611e5c565b6104ef565b6040519015158152602001610123565b61013f61022b366004611dd6565b610532565b61013f61023e366004611b62565b61057c565b6000610257826102516105a6565b906107d2565b92915050565b61029b6040518060400160405280601281526020017f4552433732314261736520617070726f766500000000000000000000000000008152506108b5565b6102e06040518060400160405280600c81526020017f5f6d736753656e646572282900000000000000000000000000000000000000008152506102db3390565b610944565b6102f63383836102ee6105a6565b9291906109d5565b5050565b610312338484846103096105a6565b93929190610c91565b505050565b610312338484846103266105a6565b93929190610cb7565b60006103396105a6565b600092835260010160205250604090205490565b600073ffffffffffffffffffffffffffffffffffffffff82166103d1576040517f08c379a000000000000000000000000000000000000000000000000000000000815260206004820152601460248201527f4552433732313a207a65726f206164647265737300000000000000000000000060448201526064015b60405180910390fd5b6103d96105a6565b73ffffffffffffffffffffffffffffffffffffffff909216600090815260029290920160205250604090205490565b6102f63383836104166105a6565b929190610cd6565b6102f633838361042c6105a6565b929190610d40565b61048733858585858080601f0160208091040260200160405190810160405280939291908181526020018383808284376000920191909152506001925061047d91506105a69050565b9493929190610e6c565b50505050565b610487338585858561049d6105a6565b9493929190611015565b610312838383808060200260200160405190810160405280939291908181526020018383602002808284376000920191909152506104e892506105a6915050565b919061102d565b60006104f96105a6565b73ffffffffffffffffffffffffffffffffffffffff93841660009081526020918252604080822094909516815292905250205460ff1690565b610312338484848080602002602001604051908101604052809392919081815260200183836020028082843760009201919091525061057492506105a6915050565b92919061117a565b6102f633838360405180602001604052806000815250600061059c6105a6565b9493929190611264565b60008061025760017fddf3ee18ae6d688373c219468f8be446e7ae82215f4779d821c7ea5e8c13c0c1611ebe565b61060961060260017ffddcdbf8ca7eb362a678daf3643ce3cf98ebf69ac314d25d376d5aeabd2f5332611ebe565b6001610641565b61063e7f80ac58cd0000000000000000000000000000000000000000000000000000000060016106376106b1565b91906106df565b50565b8154829082116106ad576040517f08c379a000000000000000000000000000000000000000000000000000000000815260206004820152601860248201527f53746f726167653a2076657273696f6e2072656163686564000000000000000060448201526064016103c8565b5550565b60008061025760017f7180ffa89c91cf90d6c56dacabfc69bc5e36f3099d7eed2f5cc12c5dba016fe0611ebe565b7fffffffff00000000000000000000000000000000000000000000000000000000808316900361076b576040517f08c379a000000000000000000000000000000000000000000000000000000000815260206004820152601f60248201527f496e74657266616365446574656374696f6e3a2077726f6e672076616c75650060448201526064016103c8565b7fffffffff00000000000000000000000000000000000000000000000000000000919091166000908152602092909252604090912080547fffffffffffffffffffffffffffffffffffffffffffffffffffffffffffffff0016911515919091179055565b90565b600081815260018301602052604081205473ffffffffffffffffffffffffffffffffffffffff8116610860576040517f08c379a000000000000000000000000000000000000000000000000000000000815260206004820152601860248201527f4552433732313a206e6f6e2d6578697374696e67204e4654000000000000000060448201526064016103c8565b740100000000000000000000000000000000000000008116156108ab575050600081815260038301602052604090205473ffffffffffffffffffffffffffffffffffffffff16610257565b6000915050610257565b61063e816040516024016108c99190611f40565b604080517fffffffffffffffffffffffffffffffffffffffffffffffffffffffffffffffe08184030181529190526020810180517bffffffffffffffffffffffffffffffffffffffffffffffffffffffff167f41304fac00000000000000000000000000000000000000000000000000000000179052611369565b6102f6828260405160240161095a929190611f53565b604080517fffffffffffffffffffffffffffffffffffffffffffffffffffffffffffffffe08184030181529190526020810180517bffffffffffffffffffffffffffffffffffffffffffffffffffffffff167f319af33300000000000000000000000000000000000000000000000000000000179052611369565b600081815260018501602052604081205490819003610a50576040517f08c379a000000000000000000000000000000000000000000000000000000000815260206004820152601860248201527f4552433732313a206e6f6e2d6578697374696e67204e4654000000000000000060448201526064016103c8565b8073ffffffffffffffffffffffffffffffffffffffff80821690851603610ad3576040517f08c379a000000000000000000000000000000000000000000000000000000000815260206004820152601560248201527f4552433732313a2073656c662d617070726f76616c000000000000000000000060448201526064016103c8565b610ade86828761138a565b610b44576040517f08c379a000000000000000000000000000000000000000000000000000000000815260206004820152601b60248201527f4552433732313a206e6f6e2d617070726f7665642073656e646572000000000060448201526064016103c8565b73ffffffffffffffffffffffffffffffffffffffff8416610bab5774010000000000000000000000000000000000000000821615610ba6576000838152600187016020526040902073ffffffffffffffffffffffffffffffffffffffff821690555b610c2e565b740100000000000000000000000000000000000000008217808314610bde57600084815260018801602052604090208190555b506000838152600387016020526040902080547fffffffffffffffffffffffff00000000000000000000000000000000000000001673ffffffffffffffffffffffffffffffffffffffff86161790555b828473ffffffffffffffffffffffffffffffffffffffff168273ffffffffffffffffffffffffffffffffffffffff167f8c5be1e5ebec7d5bd14f71427d1e84f3dd0314c0f7b2291e5b200ac8c7c3b92560405160405180910390a4505050505050565b610cb085858585856040518060200160405280600081525060006113fe565b5050505050565b610cb085858585856040518060200160405280600081525060016113fe565b6000610ce385848661138a565b9050610cf485858585856000611534565b604051829060009073ffffffffffffffffffffffffffffffffffffffff8616907fddf252ad1be2c89b69c2b068fc378daa952ba7f163c4a11628f55a4df523b3ef908390a45050505050565b8273ffffffffffffffffffffffffffffffffffffffff168273ffffffffffffffffffffffffffffffffffffffff1603610dd5576040517f08c379a000000000000000000000000000000000000000000000000000000000815260206004820152601560248201527f4552433732313a2073656c662d617070726f76616c000000000000000000000060448201526064016103c8565b73ffffffffffffffffffffffffffffffffffffffff8381166000818152602087815260408083209487168084529482529182902080547fffffffffffffffffffffffffffffffffffffffffffffffffffffffffffffff001686151590811790915591519182527f17307eab39ab6107e8899845ad3d59bd9653f200f220920489ca2b5937696c31910160405180910390a350505050565b600083815260018701602052604090205473ffffffffffffffffffffffffffffffffffffffff811615610efb576040517f08c379a000000000000000000000000000000000000000000000000000000000815260206004820152601460248201527f4552433732313a206578697374696e67204e465400000000000000000000000060448201526064016103c8565b7fdead0000000000000000000000000000000000000000000000000000000000008103610f84576040517f08c379a000000000000000000000000000000000000000000000000000000000815260206004820152601160248201527f4552433732313a206275726e74204e465400000000000000000000000000000060448201526064016103c8565b610f9187868660006116ed565b604051849073ffffffffffffffffffffffffffffffffffffffff8716906000907fddf252ad1be2c89b69c2b068fc378daa952ba7f163c4a11628f55a4df523b3ef908290a4818015610ff9575073ffffffffffffffffffffffffffffffffffffffff85163b15155b1561100c5761100c8660008787876117d2565b50505050505050565b61102586868686868660016113fe565b505050505050565b73ffffffffffffffffffffffffffffffffffffffff82166110aa576040517f08c379a000000000000000000000000000000000000000000000000000000000815260206004820152601460248201527f4552433732313a206d696e7420746f207a65726f00000000000000000000000060448201526064016103c8565b805160005b8181146111375760008382815181106110ca576110ca611f8b565b602002602001015190506110e186868360016116ed565b604051819073ffffffffffffffffffffffffffffffffffffffff8716906000907fddf252ad1be2c89b69c2b068fc378daa952ba7f163c4a11628f55a4df523b3ef908290a45061113081611fba565b90506110af565b5073ffffffffffffffffffffffffffffffffffffffff831660009081526002850160205260408120805483929061116f908490611ff2565b909155505050505050565b600061118785848661138a565b825190915060005b8181146112195760008482815181106111aa576111aa611f8b565b602002602001015190506111c388888884886001611534565b604051819060009073ffffffffffffffffffffffffffffffffffffffff8916907fddf252ad1be2c89b69c2b068fc378daa952ba7f163c4a11628f55a4df523b3ef908390a45061121281611fba565b905061118f565b5080156110255773ffffffffffffffffffffffffffffffffffffffff8416600090815260028701602052604081208054839290611257908490611ebe565b9091555050505050505050565b73ffffffffffffffffffffffffffffffffffffffff84166112e1576040517f08c379a000000000000000000000000000000000000000000000000000000000815260206004820152601460248201527f4552433732313a206d696e7420746f207a65726f00000000000000000000000060448201526064016103c8565b6112ee86858560006116ed565b604051839073ffffffffffffffffffffffffffffffffffffffff8616906000907fddf252ad1be2c89b69c2b068fc378daa952ba7f163c4a11628f55a4df523b3ef908290a4808015611356575073ffffffffffffffffffffffffffffffffffffffff84163b15155b15611025576110258560008686866117d2565b80516a636f6e736f6c652e6c6f67602083016000808483855afa5050505050565b60008173ffffffffffffffffffffffffffffffffffffffff168373ffffffffffffffffffffffffffffffffffffffff1614806113f6575073ffffffffffffffffffffffffffffffffffffffff8084166000908152602086815260408083209386168352929052205460ff165b949350505050565b73ffffffffffffffffffffffffffffffffffffffff841661147b576040517f08c379a000000000000000000000000000000000000000000000000000000000815260206004820152601860248201527f4552433732313a207472616e7366657220746f207a65726f000000000000000060448201526064016103c8565b600061148888878961138a565b905061149a88888888888660006118f8565b838573ffffffffffffffffffffffffffffffffffffffff168773ffffffffffffffffffffffffffffffffffffffff167fddf252ad1be2c89b69c2b068fc378daa952ba7f163c4a11628f55a4df523b3ef60405160405180910390a4818015611518575073ffffffffffffffffffffffffffffffffffffffff85163b15155b1561152a5761152a87878787876117d2565b5050505050505050565b600083815260018701602052604090205473ffffffffffffffffffffffffffffffffffffffff858116908216146115c7576040517f08c379a000000000000000000000000000000000000000000000000000000000815260206004820152601560248201527f4552433732313a206e6f6e2d6f776e6564204e4654000000000000000000000060448201526064016103c8565b82611680577401000000000000000000000000000000000000000081161580159061161a5750600084815260038801602052604090205473ffffffffffffffffffffffffffffffffffffffff8781169116145b611680576040517f08c379a000000000000000000000000000000000000000000000000000000000815260206004820152601b60248201527f4552433732313a206e6f6e2d617070726f7665642073656e646572000000000060448201526064016103c8565b600084815260018801602052604090207fdead00000000000000000000000000000000000000000000000000000000000090558161100c5773ffffffffffffffffffffffffffffffffffffffff85166000908152600288016020526040812080549091906112579061200a565b600082815260018501602052604090205415611765576040517f08c379a000000000000000000000000000000000000000000000000000000000815260206004820152601a60248201527f4552433732313a206578697374696e672f6275726e74204e465400000000000060448201526064016103c8565b6000828152600185016020526040902073ffffffffffffffffffffffffffffffffffffffff84169055806104875773ffffffffffffffffffffffffffffffffffffffff83166000908152600285016020526040812080549091906117c890611fba565b9091555050505050565b6040517f150b7a02000000000000000000000000000000000000000000000000000000008082529073ffffffffffffffffffffffffffffffffffffffff85169063150b7a029061182c90899089908890889060040161203f565b6020604051808303816000875af115801561184b573d6000803e3d6000fd5b505050506040513d601f19601f8201168201806040525081019061186f9190612088565b7fffffffff000000000000000000000000000000000000000000000000000000001614610cb0576040517f08c379a000000000000000000000000000000000000000000000000000000000815260206004820152601860248201527f4552433732313a207472616e736665722072656675736564000000000000000060448201526064016103c8565b600083815260018801602052604090205473ffffffffffffffffffffffffffffffffffffffff8681169082161461198b576040517f08c379a000000000000000000000000000000000000000000000000000000000815260206004820152601560248201527f4552433732313a206e6f6e2d6f776e6564204e4654000000000000000000000060448201526064016103c8565b82611a4457740100000000000000000000000000000000000000008116158015906119de5750600084815260038901602052604090205473ffffffffffffffffffffffffffffffffffffffff8881169116145b611a44576040517f08c379a000000000000000000000000000000000000000000000000000000000815260206004820152601b60248201527f4552433732313a206e6f6e2d617070726f7665642073656e646572000000000060448201526064016103c8565b6000848152600189016020526040902073ffffffffffffffffffffffffffffffffffffffff861690558161152a5761152a88878760018173ffffffffffffffffffffffffffffffffffffffff168373ffffffffffffffffffffffffffffffffffffffff16146104875773ffffffffffffffffffffffffffffffffffffffff8316600090815260028501602052604081208054839290611ae4908490611ebe565b909155505073ffffffffffffffffffffffffffffffffffffffff821660009081526002850160205260408120805483929061116f908490611ff2565b600060208284031215611b3257600080fd5b5035919050565b803573ffffffffffffffffffffffffffffffffffffffff81168114611b5d57600080fd5b919050565b60008060408385031215611b7557600080fd5b611b7e83611b39565b946020939093013593505050565b600080600060608486031215611ba157600080fd5b611baa84611b39565b9250611bb860208501611b39565b9150604084013590509250925092565b600060208284031215611bda57600080fd5b611be382611b39565b9392505050565b60008060408385031215611bfd57600080fd5b611c0683611b39565b915060208301358015158114611c1b57600080fd5b809150509250929050565b60008060008060608587031215611c3c57600080fd5b611c4585611b39565b935060208501359250604085013567ffffffffffffffff80821115611c6957600080fd5b818701915087601f830112611c7d57600080fd5b813581811115611c8c57600080fd5b886020828501011115611c9e57600080fd5b95989497505060200194505050565b7f4e487b7100000000000000000000000000000000000000000000000000000000600052604160045260246000fd5b60008060008060808587031215611cf257600080fd5b611cfb85611b39565b9350611d0960208601611b39565b925060408501359150606085013567ffffffffffffffff80821115611d2d57600080fd5b818701915087601f830112611d4157600080fd5b813581811115611d5357611d53611cad565b604051601f82017fffffffffffffffffffffffffffffffffffffffffffffffffffffffffffffffe0908116603f01168101908382118183101715611d9957611d99611cad565b816040528281528a6020848701011115611db257600080fd5b82602086016020830137600060208483010152809550505050505092959194509250565b600080600060408486031215611deb57600080fd5b611df484611b39565b9250602084013567ffffffffffffffff80821115611e1157600080fd5b818601915086601f830112611e2557600080fd5b813581811115611e3457600080fd5b8760208260051b8501011115611e4957600080fd5b6020830194508093505050509250925092565b60008060408385031215611e6f57600080fd5b611e7883611b39565b9150611e8660208401611b39565b90509250929050565b7f4e487b7100000000000000000000000000000000000000000000000000000000600052601160045260246000fd5b600082821015611ed057611ed0611e8f565b500390565b6000815180845260005b81811015611efb57602081850181015186830182015201611edf565b81811115611f0d576000602083870101525b50601f017fffffffffffffffffffffffffffffffffffffffffffffffffffffffffffffffe0169290920160200192915050565b602081526000611be36020830184611ed5565b604081526000611f666040830185611ed5565b905073ffffffffffffffffffffffffffffffffffffffff831660208301529392505050565b7f4e487b7100000000000000000000000000000000000000000000000000000000600052603260045260246000fd5b60007fffffffffffffffffffffffffffffffffffffffffffffffffffffffffffffffff8203611feb57611feb611e8f565b5060010190565b6000821982111561200557612005611e8f565b500190565b60008161201957612019611e8f565b507fffffffffffffffffffffffffffffffffffffffffffffffffffffffffffffffff0190565b600073ffffffffffffffffffffffffffffffffffffffff80871683528086166020840152508360408301526080606083015261207e6080830184611ed5565b9695505050505050565b60006020828403121561209a57600080fd5b81517fffffffff0000000000000000000000000000000000000000000000000000000081168114611be357600080fdfea26469706673582212204825c49227e36680093e68d21c56996c8046fb22c79ae1bc0c7f7df127f1607d64736f6c634300080d0033",
  "linkReferences": {},
  "deployedLinkReferences": {}
}