{
  "_format": "hh-sol-artifact-1",
  "contractName": "ERC721MintableOnceMock",
  "sourceName": "contracts/mocks/token/ERC721/ERC721MintableOnceMock.sol",
  "abi": [
    {
      "inputs": [
        {
          "internalType": "string",
          "name": "name_",
          "type": "string"
        },
        {
          "internalType": "string",
          "name": "symbol_",
          "type": "string"
        },
        {
          "internalType": "string",
          "name": "tokenURI_",
          "type": "string"
        }
      ],
      "stateMutability": "nonpayable",
      "type": "constructor"
    },
    {
      "anonymous": false,
      "inputs": [
        {
          "indexed": true,
          "internalType": "address",
          "name": "owner",
          "type": "address"
        },
        {
          "indexed": true,
          "internalType": "address",
          "name": "approved",
          "type": "address"
        },
        {
          "indexed": true,
          "internalType": "uint256",
          "name": "tokenId",
          "type": "uint256"
        }
      ],
      "name": "Approval",
      "type": "event"
    },
    {
      "anonymous": false,
      "inputs": [
        {
          "indexed": true,
          "internalType": "address",
          "name": "owner",
          "type": "address"
        },
        {
          "indexed": true,
          "internalType": "address",
          "name": "operator",
          "type": "address"
        },
        {
          "indexed": false,
          "internalType": "bool",
          "name": "approved",
          "type": "bool"
        }
      ],
      "name": "ApprovalForAll",
      "type": "event"
    },
    {
      "anonymous": false,
      "inputs": [
        {
          "indexed": true,
          "internalType": "address",
          "name": "previousOwner",
          "type": "address"
        },
        {
          "indexed": true,
          "internalType": "address",
          "name": "newOwner",
          "type": "address"
        }
      ],
      "name": "OwnershipTransferred",
      "type": "event"
    },
    {
      "anonymous": false,
      "inputs": [
        {
          "indexed": false,
          "internalType": "bytes32",
          "name": "role",
          "type": "bytes32"
        },
        {
          "indexed": false,
          "internalType": "address",
          "name": "account",
          "type": "address"
        },
        {
          "indexed": false,
          "internalType": "address",
          "name": "operator",
          "type": "address"
        }
      ],
      "name": "RoleGranted",
      "type": "event"
    },
    {
      "anonymous": false,
      "inputs": [
        {
          "indexed": false,
          "internalType": "bytes32",
          "name": "role",
          "type": "bytes32"
        },
        {
          "indexed": false,
          "internalType": "address",
          "name": "account",
          "type": "address"
        },
        {
          "indexed": false,
          "internalType": "address",
          "name": "operator",
          "type": "address"
        }
      ],
      "name": "RoleRevoked",
      "type": "event"
    },
    {
      "anonymous": false,
      "inputs": [
        {
          "indexed": true,
          "internalType": "address",
          "name": "from",
          "type": "address"
        },
        {
          "indexed": true,
          "internalType": "address",
          "name": "to",
          "type": "address"
        },
        {
          "indexed": true,
          "internalType": "uint256",
          "name": "tokenId",
          "type": "uint256"
        }
      ],
      "name": "Transfer",
      "type": "event"
    },
    {
      "inputs": [],
      "name": "MINTER_ROLE",
      "outputs": [
        {
          "internalType": "bytes32",
          "name": "",
          "type": "bytes32"
        }
      ],
      "stateMutability": "view",
      "type": "function"
    },
    {
      "inputs": [],
      "name": "__msgData",
      "outputs": [
        {
          "internalType": "bytes",
          "name": "",
          "type": "bytes"
        }
      ],
      "stateMutability": "view",
      "type": "function"
    },
    {
      "inputs": [
        {
          "internalType": "address",
          "name": "to",
          "type": "address"
        },
        {
          "internalType": "uint256",
          "name": "tokenId",
          "type": "uint256"
        }
      ],
      "name": "approve",
      "outputs": [],
      "stateMutability": "nonpayable",
      "type": "function"
    },
    {
      "inputs": [
        {
          "internalType": "address",
          "name": "owner",
          "type": "address"
        }
      ],
      "name": "balanceOf",
      "outputs": [
        {
          "internalType": "uint256",
          "name": "",
          "type": "uint256"
        }
      ],
      "stateMutability": "view",
      "type": "function"
    },
    {
      "inputs": [
        {
          "internalType": "address",
          "name": "from",
          "type": "address"
        },
        {
          "internalType": "uint256[]",
          "name": "tokenIds",
          "type": "uint256[]"
        }
      ],
      "name": "batchBurnFrom",
      "outputs": [],
      "stateMutability": "nonpayable",
      "type": "function"
    },
    {
      "inputs": [
        {
          "internalType": "address",
          "name": "to",
          "type": "address"
        },
        {
          "internalType": "uint256[]",
          "name": "tokenIds",
          "type": "uint256[]"
        }
      ],
      "name": "batchMint",
      "outputs": [],
      "stateMutability": "nonpayable",
      "type": "function"
    },
    {
      "inputs": [
        {
          "internalType": "address",
          "name": "from",
          "type": "address"
        },
        {
          "internalType": "uint256",
          "name": "tokenId",
          "type": "uint256"
        }
      ],
      "name": "burnFrom",
      "outputs": [],
      "stateMutability": "nonpayable",
      "type": "function"
    },
    {
      "inputs": [
        {
          "internalType": "uint256",
          "name": "tokenId",
          "type": "uint256"
        }
      ],
      "name": "getApproved",
      "outputs": [
        {
          "internalType": "address",
          "name": "operator",
          "type": "address"
        }
      ],
      "stateMutability": "view",
      "type": "function"
    },
    {
      "inputs": [
        {
          "internalType": "bytes32",
          "name": "role",
          "type": "bytes32"
        },
        {
          "internalType": "address",
          "name": "account",
          "type": "address"
        }
      ],
      "name": "grantRole",
      "outputs": [],
      "stateMutability": "nonpayable",
      "type": "function"
    },
    {
      "inputs": [
        {
          "internalType": "bytes32",
          "name": "role",
          "type": "bytes32"
        },
        {
          "internalType": "address",
          "name": "account",
          "type": "address"
        }
      ],
      "name": "hasRole",
      "outputs": [
        {
          "internalType": "bool",
          "name": "",
          "type": "bool"
        }
      ],
      "stateMutability": "view",
      "type": "function"
    },
    {
      "inputs": [
        {
          "internalType": "address",
          "name": "owner",
          "type": "address"
        },
        {
          "internalType": "address",
          "name": "operator",
          "type": "address"
        }
      ],
      "name": "isApprovedForAll",
      "outputs": [
        {
          "internalType": "bool",
          "name": "",
          "type": "bool"
        }
      ],
      "stateMutability": "view",
      "type": "function"
    },
    {
      "inputs": [
        {
          "internalType": "address",
          "name": "to",
          "type": "address"
        },
        {
          "internalType": "uint256",
          "name": "tokenId",
          "type": "uint256"
        }
      ],
      "name": "mint",
      "outputs": [],
      "stateMutability": "nonpayable",
      "type": "function"
    },
    {
      "inputs": [],
      "name": "name",
      "outputs": [
        {
          "internalType": "string",
          "name": "",
          "type": "string"
        }
      ],
      "stateMutability": "view",
      "type": "function"
    },
    {
      "inputs": [],
      "name": "owner",
      "outputs": [
        {
          "internalType": "address",
          "name": "",
          "type": "address"
        }
      ],
      "stateMutability": "view",
      "type": "function"
    },
    {
      "inputs": [
        {
          "internalType": "uint256",
          "name": "tokenId",
          "type": "uint256"
        }
      ],
      "name": "ownerOf",
      "outputs": [
        {
          "internalType": "address",
          "name": "",
          "type": "address"
        }
      ],
      "stateMutability": "view",
      "type": "function"
    },
    {
      "inputs": [
        {
          "internalType": "bytes32",
          "name": "role",
          "type": "bytes32"
        }
      ],
      "name": "renounceRole",
      "outputs": [],
      "stateMutability": "nonpayable",
      "type": "function"
    },
    {
      "inputs": [
        {
          "internalType": "bytes32",
          "name": "role",
          "type": "bytes32"
        },
        {
          "internalType": "address",
          "name": "account",
          "type": "address"
        }
      ],
      "name": "revokeRole",
      "outputs": [],
      "stateMutability": "nonpayable",
      "type": "function"
    },
    {
      "inputs": [
        {
          "internalType": "address",
          "name": "to",
          "type": "address"
        },
        {
          "internalType": "uint256",
          "name": "tokenId",
          "type": "uint256"
        },
        {
          "internalType": "bytes",
          "name": "data",
          "type": "bytes"
        }
      ],
      "name": "safeMint",
      "outputs": [],
      "stateMutability": "nonpayable",
      "type": "function"
    },
    {
      "inputs": [
        {
          "internalType": "address",
          "name": "from",
          "type": "address"
        },
        {
          "internalType": "address",
          "name": "to",
          "type": "address"
        },
        {
          "internalType": "uint256",
          "name": "tokenId",
          "type": "uint256"
        }
      ],
      "name": "safeTransferFrom",
      "outputs": [],
      "stateMutability": "nonpayable",
      "type": "function"
    },
    {
      "inputs": [
        {
          "internalType": "address",
          "name": "from",
          "type": "address"
        },
        {
          "internalType": "address",
          "name": "to",
          "type": "address"
        },
        {
          "internalType": "uint256",
          "name": "tokenId",
          "type": "uint256"
        },
        {
          "internalType": "bytes",
          "name": "_data",
          "type": "bytes"
        }
      ],
      "name": "safeTransferFrom",
      "outputs": [],
      "stateMutability": "nonpayable",
      "type": "function"
    },
    {
      "inputs": [
        {
          "internalType": "address",
          "name": "operator",
          "type": "address"
        },
        {
          "internalType": "bool",
          "name": "_approved",
          "type": "bool"
        }
      ],
      "name": "setApprovalForAll",
      "outputs": [],
      "stateMutability": "nonpayable",
      "type": "function"
    },
    {
      "inputs": [
        {
          "internalType": "bytes4",
          "name": "interfaceId",
          "type": "bytes4"
        }
      ],
      "name": "supportsInterface",
      "outputs": [
        {
          "internalType": "bool",
          "name": "",
          "type": "bool"
        }
      ],
      "stateMutability": "view",
      "type": "function"
    },
    {
      "inputs": [],
      "name": "symbol",
      "outputs": [
        {
          "internalType": "string",
          "name": "",
          "type": "string"
        }
      ],
      "stateMutability": "view",
      "type": "function"
    },
    {
      "inputs": [
        {
          "internalType": "uint256",
          "name": "tokenId",
          "type": "uint256"
        }
      ],
      "name": "tokenURI",
      "outputs": [
        {
          "internalType": "string",
          "name": "",
          "type": "string"
        }
      ],
      "stateMutability": "view",
      "type": "function"
    },
    {
      "inputs": [
        {
          "internalType": "address",
          "name": "from",
          "type": "address"
        },
        {
          "internalType": "address",
          "name": "to",
          "type": "address"
        },
        {
          "internalType": "uint256",
          "name": "tokenId",
          "type": "uint256"
        }
      ],
      "name": "transferFrom",
      "outputs": [],
      "stateMutability": "nonpayable",
      "type": "function"
    },
    {
      "inputs": [
        {
          "internalType": "address",
          "name": "newOwner",
          "type": "address"
        }
      ],
      "name": "transferOwnership",
      "outputs": [],
      "stateMutability": "nonpayable",
      "type": "function"
    }
  ],
  "bytecode": "0x60806040523480156200001157600080fd5b50604051620039e4380380620039e483398101604081905262000034916200077a565b8282823362000062620000516200017760201b62000a7a1760201c565b620001ad60201b62000aa81760201c565b6200008c6200007b6200021a60201b62000b121760201c565b6200024a60201b62000b401760201c565b620000ba81620000a66200029f60201b62000b9a1760201c565b620002cf60201b62000bc81790919060201c565b50620000f3638e773e1360e01b6001620000de6200021a60201b62000b121760201c565b6200037e60201b62000cac179092919060201c565b62000116638b8b4ef560e01b6001620000de6200021a60201b62000b121760201c565b62000148838383620001326200040c60201b62000d9c1760201c565b6200043c60201b62000dca17909392919060201c565b6200016b635b5e139f60e01b6001620000de6200021a60201b62000b121760201c565b5050505050506200086d565b600080620001a760017fddf3ee18ae6d688373c219468f8be446e7ae82215f4779d821c7ea5e8c13c0c16200080b565b92915050565b620001f4620001de60017ffddcdbf8ca7eb362a678daf3643ce3cf98ebf69ac314d25d376d5aeabd2f53326200080b565b60001b6001620004db60201b62000e4d1760201c565b620002176380ac58cd60e01b6001620000de6200021a60201b62000b121760201c565b50565b600080620001a760017f7180ffa89c91cf90d6c56dacabfc69bc5e36f3099d7eed2f5cc12c5dba016fe06200080b565b6200027b620001de60017f947245cdabe12ef4c13574b38217b361de48f57dd2dc345f43703c79bac2873d6200080b565b620002176301ffc9a760e01b6001836200037e60201b62000cac179092919060201c565b600080620001a760017f6a1da6973104ff7dedb9b4f5cab5830b3f4a0284ed754366cfc45568bd2d38df6200080b565b62000300620001de60017ff1e2f4de496ffe5d046d751d8ec3c329ee011c6c6a229322971a7e02a207f9736200080b565b6001600160a01b03811615620003575781546001600160a01b0319166001600160a01b03821690811783556040516000907f8be0079c531659141344cd1fd0a4f28419497f9722a3daafe3b4186f6b6457e0908290a35b6200037a6307f5828d60e41b6001620000de6200021a60201b62000b121760201c565b5050565b6001600160e01b03198083169003620003de5760405162461bcd60e51b815260206004820152601f60248201527f496e74657266616365446574656374696f6e3a2077726f6e672076616c75650060448201526064015b60405180910390fd5b6001600160e01b03199190911660009081526020929092526040909120805460ff1916911515919091179055565b600080620001a760017f5f5773833f4966721eb3773ed87c7208ea74d78f0d94de1d8074345cac67333f6200080b565b6200046d620001de60017fdf2ee7965c9504dc84db8f7759fc283282800c5a2fa3704c9f07f446b3b40a3f6200080b565b6200049d8383620004886200054e60201b62000ebd1760201c565b6200057e60201b62000eeb179092919060201c565b8051620004b1908590602084019062000607565b50620004d5635b5e139f60e01b6001620000de6200021a60201b62000b121760201c565b50505050565b6000620004f3836200060460201b62000f701760201c565b9050818160000154106200054a5760405162461bcd60e51b815260206004820152601860248201527f53746f726167653a2076657273696f6e207265616368656400000000000000006044820152606401620003d5565b5550565b600080620001a760017f9c4269c0f9f430d98876ffe9767fbf3f3232ea91a549beb549e5329532520eb36200080b565b620005af620001de60017fa057eeb6560fae2987973d3bf40b89e6da66dd0b6aadac05dc6b5b0d7a8d45576200080b565b8151620005c3908490602085019062000607565b508051620005db906001850190602084019062000607565b50620005ff635b5e139f60e01b6001620000de6200021a60201b62000b121760201c565b505050565b90565b828054620006159062000831565b90600052602060002090601f01602090048101928262000639576000855562000684565b82601f106200065457805160ff191683800117855562000684565b8280016001018555821562000684579182015b828111156200068457825182559160200191906001019062000667565b506200069292915062000696565b5090565b5b8082111562000692576000815560010162000697565b634e487b7160e01b600052604160045260246000fd5b600082601f830112620006d557600080fd5b81516001600160401b0380821115620006f257620006f2620006ad565b604051601f8301601f19908116603f011681019082821181831017156200071d576200071d620006ad565b816040528381526020925086838588010111156200073a57600080fd5b600091505b838210156200075e57858201830151818301840152908201906200073f565b83821115620007705760008385830101525b9695505050505050565b6000806000606084860312156200079057600080fd5b83516001600160401b0380821115620007a857600080fd5b620007b687838801620006c3565b94506020860151915080821115620007cd57600080fd5b620007db87838801620006c3565b93506040860151915080821115620007f257600080fd5b506200080186828701620006c3565b9150509250925092565b6000828210156200082c57634e487b7160e01b600052601160045260246000fd5b500390565b600181811c908216806200084657607f821691505b6020821081036200086757634e487b7160e01b600052602260045260246000fd5b50919050565b613167806200087d6000396000f3fe608060405234801561001057600080fd5b50600436106101ae5760003560e01c80638832e6e3116100ee578063b88d4fde11610097578063d547741f11610071578063d547741f1461039d578063e985e9c5146103b0578063f2472965146103c3578063f2fde38b146103d657600080fd5b8063b88d4fde14610350578063c87b56dd14610363578063d53913931461037657600080fd5b806391d14854116100c857806391d148541461032257806395d89b4114610335578063a22cb4651461033d57600080fd5b80638832e6e3146102f45780638bb9c5bf146103075780638da5cb5b1461031a57600080fd5b806331e66e1e1161015b5780634684d7e9116101355780634684d7e91461029a5780636352211e146102ad57806370a08231146102c057806379cc6790146102e157600080fd5b806331e66e1e1461026357806340c10f191461027457806342842e0e1461028757600080fd5b8063095ea7b31161018c578063095ea7b31461022857806323b872dd1461023d5780632f2ff15d1461025057600080fd5b806301ffc9a7146101b357806306fdde03146101db578063081812fc146101f0575b600080fd5b6101c66101c1366004612960565b6103e9565b60405190151581526020015b60405180910390f35b6101e3610436565b6040516101d291906129f3565b6102036101fe366004612a06565b6104ce565b60405173ffffffffffffffffffffffffffffffffffffffff90911681526020016101d2565b61023b610236366004612a48565b6104e2565b005b61023b61024b366004612a72565b6104fc565b61023b61025e366004612aae565b610519565b6000366040516101d2929190612ada565b61023b610282366004612a48565b610542565b61023b610295366004612a72565b6105a1565b61023b6102a8366004612b27565b6105b9565b6102036102bb366004612a06565b61062b565b6102d36102ce366004612bad565b6106cd565b6040519081526020016101d2565b61023b6102ef366004612a48565b610783565b61023b610302366004612bc8565b610799565b61023b610315366004612a06565b610812565b610203610829565b6101c6610330366004612aae565b61084f565b6101e361089a565b61023b61034b366004612c4f565b6108b2565b61023b61035e366004612cba565b6108c8565b6101e3610371366004612a06565b6108e2565b6102d37f6d696e746572000000000000000000000000000000000000000000000000000081565b61023b6103ab366004612aae565b6109b6565b6101c66103be366004612db4565b6109d9565b61023b6103d1366004612b27565b610a1c565b61023b6103e4366004612bad565b610a66565b6000610430826103f7610b12565b907fffffffff00000000000000000000000000000000000000000000000000000000166000908152602091909152604090205460ff1690565b92915050565b6060610440610ebd565b805461044b90612dde565b80601f016020809104026020016040519081016040528092919081815260200182805461047790612dde565b80156104c45780601f10610499576101008083540402835291602001916104c4565b820191906000526020600020905b8154815290600101906020018083116104a757829003601f168201915b5050505050905090565b6000610430826104dc610a7a565b90610f73565b6104f83383836104f0610a7a565b929190611056565b5050565b6105143384848461050b610a7a565b93929190611312565b505050565b3361052c81610526610b9a565b90611338565b61051483838361053a6113bb565b9291906113e9565b6105777f6d696e7465720000000000000000000000000000000000000000000000000000335b6105706113bb565b91906114bf565b6104f8338383604051806020016040528060008152506000610597610a7a565b949392919061156b565b610514338484846105b0610a7a565b93929190611711565b6105e37f6d696e746572000000000000000000000000000000000000000000000000000033610568565b610514838383808060200260200160405190810160405280939291908181526020018383602002808284376000920191909152506106249250610a7a915050565b9190611730565b600080610636610a7a565b60008481526001919091016020526040902054905073ffffffffffffffffffffffffffffffffffffffff8116610430576040517f08c379a000000000000000000000000000000000000000000000000000000000815260206004820152601860248201527f4552433732313a206e6f6e2d6578697374696e67204e4654000000000000000060448201526064015b60405180910390fd5b600073ffffffffffffffffffffffffffffffffffffffff821661074c576040517f08c379a000000000000000000000000000000000000000000000000000000000815260206004820152601460248201527f4552433732313a207a65726f206164647265737300000000000000000000000060448201526064016106c4565b610754610a7a565b73ffffffffffffffffffffffffffffffffffffffff909216600090815260029290920160205250604090205490565b6104f8338383610791610a7a565b92919061191b565b6107c37f6d696e746572000000000000000000000000000000000000000000000000000033610568565b61080c33858585858080601f016020809104026020016040519081016040528093929190818152602001838380828437600092019190915250600192506105979150610a7a9050565b50505050565b610826338261081f6113bb565b9190611985565b50565b6000610833610b9a565b5473ffffffffffffffffffffffffffffffffffffffff16919050565b6000610893838361085e6113bb565b60009283526020908152604080842073ffffffffffffffffffffffffffffffffffffffff909316845291905290205460ff1690565b9392505050565b60606108a4610ebd565b600101805461044b90612dde565b6104f83383836108c0610a7a565b929190611a29565b61080c33858585856108d8610a7a565b9493929190611b55565b606060006108ee610a7a565b6000848152600191909101602052604090205473ffffffffffffffffffffffffffffffffffffffff160361097e576040517f08c379a000000000000000000000000000000000000000000000000000000000815260206004820152601860248201527f4552433732313a206e6f6e2d6578697374696e67204e4654000000000000000060448201526064016106c4565b610986610d9c565b61098f83611b65565b6040516020016109a0929190612e4d565b6040516020818303038152906040529050919050565b336109c381610526610b9a565b6105148383836109d16113bb565b929190611c99565b60006109e3610a7a565b73ffffffffffffffffffffffffffffffffffffffff93841660009081526020918252604080822094909516815292905250205460ff1690565b6105143384848480806020026020016040519081016040528093929190818152602001838360200280828437600092019190915250610a5e9250610a7a915050565b929190611d63565b6108263382610a73610b9a565b9190611e4d565b60008061043060017fddf3ee18ae6d688373c219468f8be446e7ae82215f4779d821c7ea5e8c13c0c1612f59565b610add610ad660017ffddcdbf8ca7eb362a678daf3643ce3cf98ebf69ac314d25d376d5aeabd2f5332612f59565b6001610e4d565b6108267f80ac58cd000000000000000000000000000000000000000000000000000000006001610b0b610b12565b9190610cac565b60008061043060017f7180ffa89c91cf90d6c56dacabfc69bc5e36f3099d7eed2f5cc12c5dba016fe0612f59565b610b6e610ad660017f947245cdabe12ef4c13574b38217b361de48f57dd2dc345f43703c79bac2873d612f59565b610826817f01ffc9a7000000000000000000000000000000000000000000000000000000006001610cac565b60008061043060017f6a1da6973104ff7dedb9b4f5cab5830b3f4a0284ed754366cfc45568bd2d38df612f59565b610bf6610ad660017ff1e2f4de496ffe5d046d751d8ec3c329ee011c6c6a229322971a7e02a207f973612f59565b73ffffffffffffffffffffffffffffffffffffffff811615610c7e5781547fffffffffffffffffffffffff00000000000000000000000000000000000000001673ffffffffffffffffffffffffffffffffffffffff821690811783556040516000907f8be0079c531659141344cd1fd0a4f28419497f9722a3daafe3b4186f6b6457e0908290a35b6104f87f7f5828d0000000000000000000000000000000000000000000000000000000006001610b0b610b12565b7fffffffff000000000000000000000000000000000000000000000000000000008083169003610d38576040517f08c379a000000000000000000000000000000000000000000000000000000000815260206004820152601f60248201527f496e74657266616365446574656374696f6e3a2077726f6e672076616c75650060448201526064016106c4565b7fffffffff00000000000000000000000000000000000000000000000000000000919091166000908152602092909252604090912080547fffffffffffffffffffffffffffffffffffffffffffffffffffffffffffffff0016911515919091179055565b60008061043060017f5f5773833f4966721eb3773ed87c7208ea74d78f0d94de1d8074345cac67333f612f59565b610df8610ad660017fdf2ee7965c9504dc84db8f7759fc283282800c5a2fa3704c9f07f446b3b40a3f612f59565b610e0c8383610e05610ebd565b9190610eeb565b8051610e1e9085906020840190612899565b5061080c7f5b5e139f000000000000000000000000000000000000000000000000000000006001610b0b610b12565b815482908211610eb9576040517f08c379a000000000000000000000000000000000000000000000000000000000815260206004820152601860248201527f53746f726167653a2076657273696f6e2072656163686564000000000000000060448201526064016106c4565b5550565b60008061043060017f9c4269c0f9f430d98876ffe9767fbf3f3232ea91a549beb549e5329532520eb3612f59565b610f19610ad660017fa057eeb6560fae2987973d3bf40b89e6da66dd0b6aadac05dc6b5b0d7a8d4557612f59565b8151610f2b9084906020850190612899565b508051610f419060018501906020840190612899565b506105147f5b5e139f000000000000000000000000000000000000000000000000000000006001610b0b610b12565b90565b600081815260018301602052604081205473ffffffffffffffffffffffffffffffffffffffff8116611001576040517f08c379a000000000000000000000000000000000000000000000000000000000815260206004820152601860248201527f4552433732313a206e6f6e2d6578697374696e67204e4654000000000000000060448201526064016106c4565b7401000000000000000000000000000000000000000081161561104c575050600081815260038301602052604090205473ffffffffffffffffffffffffffffffffffffffff16610430565b6000915050610430565b6000818152600185016020526040812054908190036110d1576040517f08c379a000000000000000000000000000000000000000000000000000000000815260206004820152601860248201527f4552433732313a206e6f6e2d6578697374696e67204e4654000000000000000060448201526064016106c4565b8073ffffffffffffffffffffffffffffffffffffffff80821690851603611154576040517f08c379a000000000000000000000000000000000000000000000000000000000815260206004820152601560248201527f4552433732313a2073656c662d617070726f76616c000000000000000000000060448201526064016106c4565b61115f868287611f79565b6111c5576040517f08c379a000000000000000000000000000000000000000000000000000000000815260206004820152601b60248201527f4552433732313a206e6f6e2d617070726f7665642073656e646572000000000060448201526064016106c4565b73ffffffffffffffffffffffffffffffffffffffff841661122c5774010000000000000000000000000000000000000000821615611227576000838152600187016020526040902073ffffffffffffffffffffffffffffffffffffffff821690555b6112af565b74010000000000000000000000000000000000000000821780831461125f57600084815260018801602052604090208190555b506000838152600387016020526040902080547fffffffffffffffffffffffff00000000000000000000000000000000000000001673ffffffffffffffffffffffffffffffffffffffff86161790555b828473ffffffffffffffffffffffffffffffffffffffff168273ffffffffffffffffffffffffffffffffffffffff167f8c5be1e5ebec7d5bd14f71427d1e84f3dd0314c0f7b2291e5b200ac8c7c3b92560405160405180910390a4505050505050565b6113318585858585604051806020016040528060008152506000611fed565b5050505050565b815473ffffffffffffffffffffffffffffffffffffffff8281169116146104f8576040517f08c379a000000000000000000000000000000000000000000000000000000000815260206004820152601860248201527f4f776e6572736869703a206e6f7420746865206f776e6572000000000000000060448201526064016106c4565b60008061043060017fc8a24fbf085abf1493c5f225802d03df3ece6cd19f18edff36c56d854cddac9e612f59565b60008381526020858152604080832073ffffffffffffffffffffffffffffffffffffffff8616845290915290205460ff1661080c5760008381526020858152604080832073ffffffffffffffffffffffffffffffffffffffff8681168086529184529382902080547fffffffffffffffffffffffffffffffffffffffffffffffffffffffffffffff00166001179055815187815292830152918316918101919091527f2f8788117e7eff1d82e926ec794901d17c78024a50270940304540a733656f0d906060015b60405180910390a150505050565b60008281526020848152604080832073ffffffffffffffffffffffffffffffffffffffff8516845290915290205460ff16610514576114fd82612123565b60405160200161150d9190612f70565b604080517fffffffffffffffffffffffffffffffffffffffffffffffffffffffffffffffe0818403018152908290527f08c379a00000000000000000000000000000000000000000000000000000000082526106c4916004016129f3565b73ffffffffffffffffffffffffffffffffffffffff84166115e8576040517f08c379a000000000000000000000000000000000000000000000000000000000815260206004820152601460248201527f4552433732313a206d696e7420746f207a65726f00000000000000000000000060448201526064016106c4565b60008381526001870160205260409020547f215300000000000000000000000000000000000000000000000000000000000001611681576040517f08c379a000000000000000000000000000000000000000000000000000000000815260206004820152601160248201527f4552433732313a206275726e74204e465400000000000000000000000000000060448201526064016106c4565b61168e86858560006122a4565b604051839073ffffffffffffffffffffffffffffffffffffffff8616906000907fddf252ad1be2c89b69c2b068fc378daa952ba7f163c4a11628f55a4df523b3ef908290a48080156116f6575073ffffffffffffffffffffffffffffffffffffffff84163b15155b1561170957611709856000868686612389565b505050505050565b6113318585858585604051806020016040528060008152506001611fed565b73ffffffffffffffffffffffffffffffffffffffff82166117ad576040517f08c379a000000000000000000000000000000000000000000000000000000000815260206004820152601460248201527f4552433732313a206d696e7420746f207a65726f00000000000000000000000060448201526064016106c4565b805160005b8181146118d85760008382815181106117cd576117cd612fdc565b602002602001015190507fdead0000000000000000000000000000000000000000000000000000000000008660010160008381526020019081526020016000205403611875576040517f08c379a000000000000000000000000000000000000000000000000000000000815260206004820152601160248201527f4552433732313a206275726e74204e465400000000000000000000000000000060448201526064016106c4565b61188286868360016122a4565b604051819073ffffffffffffffffffffffffffffffffffffffff8716906000907fddf252ad1be2c89b69c2b068fc378daa952ba7f163c4a11628f55a4df523b3ef908290a4506118d18161300b565b90506117b2565b5073ffffffffffffffffffffffffffffffffffffffff8316600090815260028501602052604081208054839290611910908490613043565b909155505050505050565b6000611928858486611f79565b9050611939858585858560006124af565b604051829060009073ffffffffffffffffffffffffffffffffffffffff8616907fddf252ad1be2c89b69c2b068fc378daa952ba7f163c4a11628f55a4df523b3ef908390a45050505050565b6119908382846114bf565b60008181526020848152604080832073ffffffffffffffffffffffffffffffffffffffff86168085529083529281902080547fffffffffffffffffffffffffffffffffffffffffffffffffffffffffffffff0016905580518481529182018390528101919091527ff6391f5c32d9c69d2a47ea670b442974b53935d1edc7fd64eb21e047a839171b9060600160405180910390a1505050565b8273ffffffffffffffffffffffffffffffffffffffff168273ffffffffffffffffffffffffffffffffffffffff1603611abe576040517f08c379a000000000000000000000000000000000000000000000000000000000815260206004820152601560248201527f4552433732313a2073656c662d617070726f76616c000000000000000000000060448201526064016106c4565b73ffffffffffffffffffffffffffffffffffffffff8381166000818152602087815260408083209487168084529482529182902080547fffffffffffffffffffffffffffffffffffffffffffffffffffffffffffffff001686151590811790915591519182527f17307eab39ab6107e8899845ad3d59bd9653f200f220920489ca2b5937696c31910160405180910390a350505050565b6117098686868686866001611fed565b606081600003611ba857505060408051808201909152600181527f3000000000000000000000000000000000000000000000000000000000000000602082015290565b8160005b8115611bd25780611bbc8161300b565b9150611bcb9050600a8361305b565b9150611bac565b60008167ffffffffffffffff811115611bed57611bed612c8b565b6040519080825280601f01601f191660200182016040528015611c17576020820181803683370190505b5090506000611c27600184612f59565b90508593505b8315611c9057600a840660300160f81b82828060019003935081518110611c5657611c56612fdc565b60200101907effffffffffffffffffffffffffffffffffffffffffffffffffffffffffffff1916908160001a905350600a84049350611c2d565b50949350505050565b60008381526020858152604080832073ffffffffffffffffffffffffffffffffffffffff8616845290915290205460ff161561080c5760008381526020858152604080832073ffffffffffffffffffffffffffffffffffffffff8681168086529184529382902080547fffffffffffffffffffffffffffffffffffffffffffffffffffffffffffffff00169055815187815292830152918316918101919091527ff6391f5c32d9c69d2a47ea670b442974b53935d1edc7fd64eb21e047a839171b906060016114b1565b6000611d70858486611f79565b825190915060005b818114611e02576000848281518110611d9357611d93612fdc565b60200260200101519050611dac888888848860016124af565b604051819060009073ffffffffffffffffffffffffffffffffffffffff8916907fddf252ad1be2c89b69c2b068fc378daa952ba7f163c4a11628f55a4df523b3ef908390a450611dfb8161300b565b9050611d78565b5080156117095773ffffffffffffffffffffffffffffffffffffffff8416600090815260028701602052604081208054839290611e40908490612f59565b9091555050505050505050565b825473ffffffffffffffffffffffffffffffffffffffff9081169083168114611ed2576040517f08c379a000000000000000000000000000000000000000000000000000000000815260206004820152601860248201527f4f776e6572736869703a206e6f7420746865206f776e6572000000000000000060448201526064016106c4565b8173ffffffffffffffffffffffffffffffffffffffff168173ffffffffffffffffffffffffffffffffffffffff161461080c5783547fffffffffffffffffffffffff00000000000000000000000000000000000000001673ffffffffffffffffffffffffffffffffffffffff8381169182178655604051908316907f8be0079c531659141344cd1fd0a4f28419497f9722a3daafe3b4186f6b6457e090600090a350505050565b60008173ffffffffffffffffffffffffffffffffffffffff168373ffffffffffffffffffffffffffffffffffffffff161480611fe5575073ffffffffffffffffffffffffffffffffffffffff8084166000908152602086815260408083209386168352929052205460ff165b949350505050565b73ffffffffffffffffffffffffffffffffffffffff841661206a576040517f08c379a000000000000000000000000000000000000000000000000000000000815260206004820152601860248201527f4552433732313a207472616e7366657220746f207a65726f000000000000000060448201526064016106c4565b6000612077888789611f79565b90506120898888888888866000612671565b838573ffffffffffffffffffffffffffffffffffffffff168773ffffffffffffffffffffffffffffffffffffffff167fddf252ad1be2c89b69c2b068fc378daa952ba7f163c4a11628f55a4df523b3ef60405160405180910390a4818015612107575073ffffffffffffffffffffffffffffffffffffffff85163b15155b15612119576121198787878787612389565b5050505050505050565b6060600082900361214257505060408051602081019091526000815290565b60008260405160200161215791815260200190565b604080517fffffffffffffffffffffffffffffffffffffffffffffffffffffffffffffffe08184030181529190529050601f5b81818151811061219c5761219c612fdc565b01602001517fff00000000000000000000000000000000000000000000000000000000000000166000036121da576121d381613096565b905061218a565b60006121e7826001613043565b67ffffffffffffffff8111156121ff576121ff612c8b565b6040519080825280601f01601f191660200182016040528015612229576020820181803683370190505b50905060005b828111611c905783818151811061224857612248612fdc565b602001015160f81c60f81b82828151811061226557612265612fdc565b60200101907effffffffffffffffffffffffffffffffffffffffffffffffffffffffffffff1916908160001a90535061229d8161300b565b905061222f565b60008281526001850160205260409020541561231c576040517f08c379a000000000000000000000000000000000000000000000000000000000815260206004820152601a60248201527f4552433732313a206578697374696e672f6275726e74204e465400000000000060448201526064016106c4565b6000828152600185016020526040902073ffffffffffffffffffffffffffffffffffffffff841690558061080c5773ffffffffffffffffffffffffffffffffffffffff831660009081526002850160205260408120805490919061237f9061300b565b9091555050505050565b6040517f150b7a02000000000000000000000000000000000000000000000000000000008082529073ffffffffffffffffffffffffffffffffffffffff85169063150b7a02906123e39089908990889088906004016130cb565b6020604051808303816000875af1158015612402573d6000803e3d6000fd5b505050506040513d601f19601f820116820180604052508101906124269190613114565b7fffffffff000000000000000000000000000000000000000000000000000000001614611331576040517f08c379a000000000000000000000000000000000000000000000000000000000815260206004820152601860248201527f4552433732313a207472616e736665722072656675736564000000000000000060448201526064016106c4565b600083815260018701602052604090205473ffffffffffffffffffffffffffffffffffffffff85811690821614612542576040517f08c379a000000000000000000000000000000000000000000000000000000000815260206004820152601560248201527f4552433732313a206e6f6e2d6f776e6564204e4654000000000000000000000060448201526064016106c4565b826125fb57740100000000000000000000000000000000000000008116158015906125955750600084815260038801602052604090205473ffffffffffffffffffffffffffffffffffffffff8781169116145b6125fb576040517f08c379a000000000000000000000000000000000000000000000000000000000815260206004820152601b60248201527f4552433732313a206e6f6e2d617070726f7665642073656e646572000000000060448201526064016106c4565b600084815260018801602052604090207fdead0000000000000000000000000000000000000000000000000000000000009055816126685773ffffffffffffffffffffffffffffffffffffffff8516600090815260028801602052604081208054909190611e4090613096565b50505050505050565b600083815260018801602052604090205473ffffffffffffffffffffffffffffffffffffffff86811690821614612704576040517f08c379a000000000000000000000000000000000000000000000000000000000815260206004820152601560248201527f4552433732313a206e6f6e2d6f776e6564204e4654000000000000000000000060448201526064016106c4565b826127bd57740100000000000000000000000000000000000000008116158015906127575750600084815260038901602052604090205473ffffffffffffffffffffffffffffffffffffffff8881169116145b6127bd576040517f08c379a000000000000000000000000000000000000000000000000000000000815260206004820152601b60248201527f4552433732313a206e6f6e2d617070726f7665642073656e646572000000000060448201526064016106c4565b6000848152600189016020526040902073ffffffffffffffffffffffffffffffffffffffff86169055816121195761211988878760018173ffffffffffffffffffffffffffffffffffffffff168373ffffffffffffffffffffffffffffffffffffffff161461080c5773ffffffffffffffffffffffffffffffffffffffff831660009081526002850160205260408120805483929061285d908490612f59565b909155505073ffffffffffffffffffffffffffffffffffffffff8216600090815260028501602052604081208054839290611910908490613043565b8280546128a590612dde565b90600052602060002090601f0160209004810192826128c7576000855561290d565b82601f106128e057805160ff191683800117855561290d565b8280016001018555821561290d579182015b8281111561290d5782518255916020019190600101906128f2565b5061291992915061291d565b5090565b5b80821115612919576000815560010161291e565b7fffffffff000000000000000000000000000000000000000000000000000000008116811461082657600080fd5b60006020828403121561297257600080fd5b813561089381612932565b60005b83811015612998578181015183820152602001612980565b8381111561080c5750506000910152565b600081518084526129c181602086016020860161297d565b601f017fffffffffffffffffffffffffffffffffffffffffffffffffffffffffffffffe0169290920160200192915050565b60208152600061089360208301846129a9565b600060208284031215612a1857600080fd5b5035919050565b803573ffffffffffffffffffffffffffffffffffffffff81168114612a4357600080fd5b919050565b60008060408385031215612a5b57600080fd5b612a6483612a1f565b946020939093013593505050565b600080600060608486031215612a8757600080fd5b612a9084612a1f565b9250612a9e60208501612a1f565b9150604084013590509250925092565b60008060408385031215612ac157600080fd5b82359150612ad160208401612a1f565b90509250929050565b60208152816020820152818360408301376000818301604090810191909152601f9092017fffffffffffffffffffffffffffffffffffffffffffffffffffffffffffffffe0160101919050565b600080600060408486031215612b3c57600080fd5b612b4584612a1f565b9250602084013567ffffffffffffffff80821115612b6257600080fd5b818601915086601f830112612b7657600080fd5b813581811115612b8557600080fd5b8760208260051b8501011115612b9a57600080fd5b6020830194508093505050509250925092565b600060208284031215612bbf57600080fd5b61089382612a1f565b60008060008060608587031215612bde57600080fd5b612be785612a1f565b935060208501359250604085013567ffffffffffffffff80821115612c0b57600080fd5b818701915087601f830112612c1f57600080fd5b813581811115612c2e57600080fd5b886020828501011115612c4057600080fd5b95989497505060200194505050565b60008060408385031215612c6257600080fd5b612c6b83612a1f565b915060208301358015158114612c8057600080fd5b809150509250929050565b7f4e487b7100000000000000000000000000000000000000000000000000000000600052604160045260246000fd5b60008060008060808587031215612cd057600080fd5b612cd985612a1f565b9350612ce760208601612a1f565b925060408501359150606085013567ffffffffffffffff80821115612d0b57600080fd5b818701915087601f830112612d1f57600080fd5b813581811115612d3157612d31612c8b565b604051601f82017fffffffffffffffffffffffffffffffffffffffffffffffffffffffffffffffe0908116603f01168101908382118183101715612d7757612d77612c8b565b816040528281528a6020848701011115612d9057600080fd5b82602086016020830137600060208483010152809550505050505092959194509250565b60008060408385031215612dc757600080fd5b612dd083612a1f565b9150612ad160208401612a1f565b600181811c90821680612df257607f821691505b602082108103612e2b577f4e487b7100000000000000000000000000000000000000000000000000000000600052602260045260246000fd5b50919050565b60008151612e4381856020860161297d565b9290920192915050565b600080845481600182811c915080831680612e6957607f831692505b60208084108203612ea1577f4e487b710000000000000000000000000000000000000000000000000000000086526022600452602486fd5b818015612eb55760018114612ee457612f11565b7fffffffffffffffffffffffffffffffffffffffffffffffffffffffffffffff00861689528489019650612f11565b60008b81526020902060005b86811015612f095781548b820152908501908301612ef0565b505084890196505b505050505050612f218185612e31565b95945050505050565b7f4e487b7100000000000000000000000000000000000000000000000000000000600052601160045260246000fd5b600082821015612f6b57612f6b612f2a565b500390565b7f416363657373436f6e74726f6c3a206d697373696e6720270000000000000000815260008251612fa881601885016020870161297d565b7f2720726f6c6500000000000000000000000000000000000000000000000000006018939091019283015250601e01919050565b7f4e487b7100000000000000000000000000000000000000000000000000000000600052603260045260246000fd5b60007fffffffffffffffffffffffffffffffffffffffffffffffffffffffffffffffff820361303c5761303c612f2a565b5060010190565b6000821982111561305657613056612f2a565b500190565b600082613091577f4e487b7100000000000000000000000000000000000000000000000000000000600052601260045260246000fd5b500490565b6000816130a5576130a5612f2a565b507fffffffffffffffffffffffffffffffffffffffffffffffffffffffffffffffff0190565b600073ffffffffffffffffffffffffffffffffffffffff80871683528086166020840152508360408301526080606083015261310a60808301846129a9565b9695505050505050565b60006020828403121561312657600080fd5b81516108938161293256fea2646970667358221220f76e806d34b807679fe7a43ed29274f3dc853229c58300200565e01e5b337c6464736f6c634300080d0033",
  "linkReferences": {},
  "deployedLinkReferences": {}
}