{
  "_format": "hh-sol-artifact-1",
  "contractName": "ERC721MintableOnceMock",
  "sourceName": "contracts/mocks/token/ERC721/ERC721MintableOnceMock.sol",
  "abi": [
    {
      "inputs": [
        {
          "internalType": "string",
          "name": "name_",
          "type": "string"
        },
        {
          "internalType": "string",
          "name": "symbol_",
          "type": "string"
        },
        {
          "internalType": "string",
          "name": "tokenURI_",
          "type": "string"
        },
        {
          "internalType": "contract IForwarderRegistry",
          "name": "forwarderRegistry",
          "type": "address"
        }
      ],
      "stateMutability": "nonpayable",
      "type": "constructor"
    },
    {
      "anonymous": false,
      "inputs": [
        {
          "indexed": true,
          "internalType": "address",
          "name": "owner",
          "type": "address"
        },
        {
          "indexed": true,
          "internalType": "address",
          "name": "approved",
          "type": "address"
        },
        {
          "indexed": true,
          "internalType": "uint256",
          "name": "tokenId",
          "type": "uint256"
        }
      ],
      "name": "Approval",
      "type": "event"
    },
    {
      "anonymous": false,
      "inputs": [
        {
          "indexed": true,
          "internalType": "address",
          "name": "owner",
          "type": "address"
        },
        {
          "indexed": true,
          "internalType": "address",
          "name": "operator",
          "type": "address"
        },
        {
          "indexed": false,
          "internalType": "bool",
          "name": "approved",
          "type": "bool"
        }
      ],
      "name": "ApprovalForAll",
      "type": "event"
    },
    {
      "anonymous": false,
      "inputs": [
        {
          "indexed": false,
          "internalType": "string",
          "name": "baseMetadataURI",
          "type": "string"
        }
      ],
      "name": "BaseMetadataURISet",
      "type": "event"
    },
    {
      "anonymous": false,
      "inputs": [
        {
          "indexed": true,
          "internalType": "address",
          "name": "previousOwner",
          "type": "address"
        },
        {
          "indexed": true,
          "internalType": "address",
          "name": "newOwner",
          "type": "address"
        }
      ],
      "name": "OwnershipTransferred",
      "type": "event"
    },
    {
      "anonymous": false,
      "inputs": [
        {
          "indexed": false,
          "internalType": "bytes32",
          "name": "role",
          "type": "bytes32"
        },
        {
          "indexed": false,
          "internalType": "address",
          "name": "account",
          "type": "address"
        },
        {
          "indexed": false,
          "internalType": "address",
          "name": "operator",
          "type": "address"
        }
      ],
      "name": "RoleGranted",
      "type": "event"
    },
    {
      "anonymous": false,
      "inputs": [
        {
          "indexed": false,
          "internalType": "bytes32",
          "name": "role",
          "type": "bytes32"
        },
        {
          "indexed": false,
          "internalType": "address",
          "name": "account",
          "type": "address"
        },
        {
          "indexed": false,
          "internalType": "address",
          "name": "operator",
          "type": "address"
        }
      ],
      "name": "RoleRevoked",
      "type": "event"
    },
    {
      "anonymous": false,
      "inputs": [
        {
          "indexed": true,
          "internalType": "address",
          "name": "from",
          "type": "address"
        },
        {
          "indexed": true,
          "internalType": "address",
          "name": "to",
          "type": "address"
        },
        {
          "indexed": true,
          "internalType": "uint256",
          "name": "tokenId",
          "type": "uint256"
        }
      ],
      "name": "Transfer",
      "type": "event"
    },
    {
      "inputs": [],
      "name": "MINTER_ROLE",
      "outputs": [
        {
          "internalType": "bytes32",
          "name": "",
          "type": "bytes32"
        }
      ],
      "stateMutability": "view",
      "type": "function"
    },
    {
      "inputs": [],
      "name": "__msgData",
      "outputs": [
        {
          "internalType": "bytes",
          "name": "",
          "type": "bytes"
        }
      ],
      "stateMutability": "view",
      "type": "function"
    },
    {
      "inputs": [
        {
          "internalType": "address",
          "name": "to",
          "type": "address"
        },
        {
          "internalType": "uint256",
          "name": "tokenId",
          "type": "uint256"
        }
      ],
      "name": "approve",
      "outputs": [],
      "stateMutability": "nonpayable",
      "type": "function"
    },
    {
      "inputs": [
        {
          "internalType": "address",
          "name": "owner",
          "type": "address"
        }
      ],
      "name": "balanceOf",
      "outputs": [
        {
          "internalType": "uint256",
          "name": "",
          "type": "uint256"
        }
      ],
      "stateMutability": "view",
      "type": "function"
    },
    {
      "inputs": [],
      "name": "baseMetadataURI",
      "outputs": [
        {
          "internalType": "string",
          "name": "",
          "type": "string"
        }
      ],
      "stateMutability": "view",
      "type": "function"
    },
    {
      "inputs": [
        {
          "internalType": "address",
          "name": "from",
          "type": "address"
        },
        {
          "internalType": "uint256[]",
          "name": "tokenIds",
          "type": "uint256[]"
        }
      ],
      "name": "batchBurnFrom",
      "outputs": [],
      "stateMutability": "nonpayable",
      "type": "function"
    },
    {
      "inputs": [
        {
          "internalType": "address",
          "name": "to",
          "type": "address"
        },
        {
          "internalType": "uint256[]",
          "name": "tokenIds",
          "type": "uint256[]"
        }
      ],
      "name": "batchMint",
      "outputs": [],
      "stateMutability": "nonpayable",
      "type": "function"
    },
    {
      "inputs": [
        {
          "internalType": "address",
          "name": "from",
          "type": "address"
        },
        {
          "internalType": "uint256",
          "name": "tokenId",
          "type": "uint256"
        }
      ],
      "name": "burnFrom",
      "outputs": [],
      "stateMutability": "nonpayable",
      "type": "function"
    },
    {
      "inputs": [
        {
          "internalType": "uint256",
          "name": "tokenId",
          "type": "uint256"
        }
      ],
      "name": "getApproved",
      "outputs": [
        {
          "internalType": "address",
          "name": "operator",
          "type": "address"
        }
      ],
      "stateMutability": "view",
      "type": "function"
    },
    {
      "inputs": [
        {
          "internalType": "bytes32",
          "name": "role",
          "type": "bytes32"
        },
        {
          "internalType": "address",
          "name": "account",
          "type": "address"
        }
      ],
      "name": "grantRole",
      "outputs": [],
      "stateMutability": "nonpayable",
      "type": "function"
    },
    {
      "inputs": [
        {
          "internalType": "bytes32",
          "name": "role",
          "type": "bytes32"
        },
        {
          "internalType": "address",
          "name": "account",
          "type": "address"
        }
      ],
      "name": "hasRole",
      "outputs": [
        {
          "internalType": "bool",
          "name": "",
          "type": "bool"
        }
      ],
      "stateMutability": "view",
      "type": "function"
    },
    {
      "inputs": [
        {
          "internalType": "address",
          "name": "owner",
          "type": "address"
        },
        {
          "internalType": "address",
          "name": "operator",
          "type": "address"
        }
      ],
      "name": "isApprovedForAll",
      "outputs": [
        {
          "internalType": "bool",
          "name": "",
          "type": "bool"
        }
      ],
      "stateMutability": "view",
      "type": "function"
    },
    {
      "inputs": [
        {
          "internalType": "address",
          "name": "to",
          "type": "address"
        },
        {
          "internalType": "uint256",
          "name": "tokenId",
          "type": "uint256"
        }
      ],
      "name": "mint",
      "outputs": [],
      "stateMutability": "nonpayable",
      "type": "function"
    },
    {
      "inputs": [],
      "name": "name",
      "outputs": [
        {
          "internalType": "string",
          "name": "",
          "type": "string"
        }
      ],
      "stateMutability": "view",
      "type": "function"
    },
    {
      "inputs": [],
      "name": "owner",
      "outputs": [
        {
          "internalType": "address",
          "name": "",
          "type": "address"
        }
      ],
      "stateMutability": "view",
      "type": "function"
    },
    {
      "inputs": [
        {
          "internalType": "uint256",
          "name": "tokenId",
          "type": "uint256"
        }
      ],
      "name": "ownerOf",
      "outputs": [
        {
          "internalType": "address",
          "name": "",
          "type": "address"
        }
      ],
      "stateMutability": "view",
      "type": "function"
    },
    {
      "inputs": [
        {
          "internalType": "bytes32",
          "name": "role",
          "type": "bytes32"
        }
      ],
      "name": "renounceRole",
      "outputs": [],
      "stateMutability": "nonpayable",
      "type": "function"
    },
    {
      "inputs": [
        {
          "internalType": "bytes32",
          "name": "role",
          "type": "bytes32"
        },
        {
          "internalType": "address",
          "name": "account",
          "type": "address"
        }
      ],
      "name": "revokeRole",
      "outputs": [],
      "stateMutability": "nonpayable",
      "type": "function"
    },
    {
      "inputs": [
        {
          "internalType": "address",
          "name": "to",
          "type": "address"
        },
        {
          "internalType": "uint256",
          "name": "tokenId",
          "type": "uint256"
        },
        {
          "internalType": "bytes",
          "name": "data",
          "type": "bytes"
        }
      ],
      "name": "safeMint",
      "outputs": [],
      "stateMutability": "nonpayable",
      "type": "function"
    },
    {
      "inputs": [
        {
          "internalType": "address",
          "name": "from",
          "type": "address"
        },
        {
          "internalType": "address",
          "name": "to",
          "type": "address"
        },
        {
          "internalType": "uint256",
          "name": "tokenId",
          "type": "uint256"
        }
      ],
      "name": "safeTransferFrom",
      "outputs": [],
      "stateMutability": "nonpayable",
      "type": "function"
    },
    {
      "inputs": [
        {
          "internalType": "address",
          "name": "from",
          "type": "address"
        },
        {
          "internalType": "address",
          "name": "to",
          "type": "address"
        },
        {
          "internalType": "uint256",
          "name": "tokenId",
          "type": "uint256"
        },
        {
          "internalType": "bytes",
          "name": "_data",
          "type": "bytes"
        }
      ],
      "name": "safeTransferFrom",
      "outputs": [],
      "stateMutability": "nonpayable",
      "type": "function"
    },
    {
      "inputs": [
        {
          "internalType": "address",
          "name": "operator",
          "type": "address"
        },
        {
          "internalType": "bool",
          "name": "_approved",
          "type": "bool"
        }
      ],
      "name": "setApprovalForAll",
      "outputs": [],
      "stateMutability": "nonpayable",
      "type": "function"
    },
    {
      "inputs": [
        {
          "internalType": "string",
          "name": "baseMetadataURI_",
          "type": "string"
        }
      ],
      "name": "setBaseMetadataURI",
      "outputs": [],
      "stateMutability": "nonpayable",
      "type": "function"
    },
    {
      "inputs": [
        {
          "internalType": "bytes4",
          "name": "interfaceId",
          "type": "bytes4"
        }
      ],
      "name": "supportsInterface",
      "outputs": [
        {
          "internalType": "bool",
          "name": "",
          "type": "bool"
        }
      ],
      "stateMutability": "view",
      "type": "function"
    },
    {
      "inputs": [],
      "name": "symbol",
      "outputs": [
        {
          "internalType": "string",
          "name": "",
          "type": "string"
        }
      ],
      "stateMutability": "view",
      "type": "function"
    },
    {
      "inputs": [
        {
          "internalType": "uint256",
          "name": "tokenId",
          "type": "uint256"
        }
      ],
      "name": "tokenURI",
      "outputs": [
        {
          "internalType": "string",
          "name": "",
          "type": "string"
        }
      ],
      "stateMutability": "view",
      "type": "function"
    },
    {
      "inputs": [
        {
          "internalType": "address",
          "name": "from",
          "type": "address"
        },
        {
          "internalType": "address",
          "name": "to",
          "type": "address"
        },
        {
          "internalType": "uint256",
          "name": "tokenId",
          "type": "uint256"
        }
      ],
      "name": "transferFrom",
      "outputs": [],
      "stateMutability": "nonpayable",
      "type": "function"
    },
    {
      "inputs": [
        {
          "internalType": "address",
          "name": "newOwner",
          "type": "address"
        }
      ],
      "name": "transferOwnership",
      "outputs": [],
      "stateMutability": "nonpayable",
      "type": "function"
    }
  ],
  "bytecode": "0x60a06040523480156200001157600080fd5b5060405162003c6c38038062003c6c8339810160408190526200003491620005b9565b808484843362000063620000526200015c60201b620008cc1760201c565b6200019260201b620008fa1760201c565b62000091816200007d620001b860201b6200092f1760201c565b620001e860201b6200095d1790919060201c565b50620000ca638e773e1360e01b6001620000b56200026660201b62000a0f1760201c565b6200029660201b62000a3d179092919060201c565b620000ed638b8b4ef560e01b6001620000b56200026660201b62000a0f1760201c565b6200011f838383620001096200032360201b62000b321760201c565b6200035360201b62000b6017909392919060201c565b62000142635b5e139f60e01b6001620000b56200026660201b62000a0f1760201c565b5050506001600160a01b031660805250620006ce92505050565b6000806200018c60017fddf3ee18ae6d688373c219468f8be446e7ae82215f4779d821c7ea5e8c13c0c16200066c565b92915050565b620001b56380ac58cd60e01b6001620000b56200026660201b62000a0f1760201c565b50565b6000806200018c60017fc9ed16f33ab3a66c84bfd83099ccb2a8845871e2e1c1928f63797152f0fd54cd6200066c565b6001600160a01b038116156200023f5781546001600160a01b0319166001600160a01b03821690811783556040516000907f8be0079c531659141344cd1fd0a4f28419497f9722a3daafe3b4186f6b6457e0908290a35b620002626307f5828d60e41b6001620000b56200026660201b62000a0f1760201c565b5050565b6000806200018c60017fca9d3e17f264b0f3984e2634e94adb37fa3e6a8103f06aeae6fa59e21c769f5e6200066c565b6001600160e01b03198083169003620002f55760405162461bcd60e51b815260206004820152601f60248201527f496e74657266616365446574656374696f6e3a2077726f6e672076616c756500604482015260640160405180910390fd5b6001600160e01b03199190911660009081526020929092526040909120805460ff1916911515919091179055565b6000806200018c60017f5f5773833f4966721eb3773ed87c7208ea74d78f0d94de1d8074345cac67333f6200066c565b6200038383836200036e620003c160201b62000bb51760201c565b620003f160201b62000be3179092919060201c565b805162000397908590602084019062000446565b50620003bb635b5e139f60e01b6001620000b56200026660201b62000a0f1760201c565b50505050565b6000806200018c60017f9c4269c0f9f430d98876ffe9767fbf3f3232ea91a549beb549e5329532520eb36200066c565b815162000405908490602085019062000446565b5080516200041d906001850190602084019062000446565b5062000441635b5e139f60e01b6001620000b56200026660201b62000a0f1760201c565b505050565b828054620004549062000692565b90600052602060002090601f016020900481019282620004785760008555620004c3565b82601f106200049357805160ff1916838001178555620004c3565b82800160010185558215620004c3579182015b82811115620004c3578251825591602001919060010190620004a6565b50620004d1929150620004d5565b5090565b5b80821115620004d15760008155600101620004d6565b634e487b7160e01b600052604160045260246000fd5b600082601f8301126200051457600080fd5b81516001600160401b0380821115620005315762000531620004ec565b604051601f8301601f19908116603f011681019082821181831017156200055c576200055c620004ec565b816040528381526020925086838588010111156200057957600080fd5b600091505b838210156200059d57858201830151818301840152908201906200057e565b83821115620005af5760008385830101525b9695505050505050565b60008060008060808587031215620005d057600080fd5b84516001600160401b0380821115620005e857600080fd5b620005f68883890162000502565b955060208701519150808211156200060d57600080fd5b6200061b8883890162000502565b945060408701519150808211156200063257600080fd5b50620006418782880162000502565b606087015190935090506001600160a01b03811681146200066157600080fd5b939692955090935050565b6000828210156200068d57634e487b7160e01b600052601160045260246000fd5b500390565b600181811c90821680620006a757607f821691505b602082108103620006c857634e487b7160e01b600052602260045260246000fd5b50919050565b60805161356d620006ff60003960008181611e6201528181611f020152818161214001526121aa015261356d6000f3fe608060405234801561001057600080fd5b50600436106101c45760003560e01c80637e518ec8116100f9578063b88d4fde11610097578063d547741f11610071578063d547741f146103d3578063e985e9c5146103e6578063f2472965146103f9578063f2fde38b1461040c57600080fd5b8063b88d4fde14610386578063c87b56dd14610399578063d5391393146103ac57600080fd5b80638da5cb5b116100d35780638da5cb5b1461035057806391d148541461035857806395d89b411461036b578063a22cb4651461037357600080fd5b80637e518ec8146103175780638832e6e31461032a5780638bb9c5bf1461033d57600080fd5b806340c10f19116101665780635b2bd79e116101405780635b2bd79e146102c85780636352211e146102d057806370a08231146102e357806379cc67901461030457600080fd5b806340c10f191461028f57806342842e0e146102a25780634684d7e9146102b557600080fd5b8063095ea7b3116101a2578063095ea7b31461023e57806323b872dd146102535780632f2ff15d1461026657806331e66e1e1461027957600080fd5b806301ffc9a7146101c957806306fdde03146101f1578063081812fc14610206575b600080fd5b6101dc6101d7366004612cae565b61041f565b60405190151581526020015b60405180910390f35b6101f9610439565b6040516101e89190612d41565b610219610214366004612d54565b610450565b60405173ffffffffffffffffffffffffffffffffffffffff90911681526020016101e8565b61025161024c366004612d96565b610464565b005b610251610261366004612dc0565b610485565b610251610274366004612dfc565b6104a9565b6102816104dd565b6040516101e8929190612e71565b61025161029d366004612d96565b6104f0565b6102516102b0366004612dc0565b61055c565b6102516102c3366004612e85565b61057b565b6101f96105ef565b6102196102de366004612d54565b6105fc565b6102f66102f1366004612f0b565b610610565b6040519081526020016101e8565b610251610312366004612d96565b610624565b610251610325366004612f6f565b610641565b610251610338366004612fb1565b610668565b61025161034b366004612d54565b6106ea565b610219610708565b6101dc610366366004612dfc565b61072f565b6101f961077a565b610251610381366004613019565b61078c565b61025161039436600461307f565b6107a9565b6101f96103a7366004612d54565b6107ca565b6102f67f6d696e746572000000000000000000000000000000000000000000000000000081565b6102516103e1366004612dfc565b6107eb565b6101dc6103f4366004613179565b610819565b610251610407366004612e85565b610860565b61025161041a366004612f0b565b6108b1565b60006104338261042d610a0f565b90610c3a565b92915050565b606061044b610446610bb5565b610cf8565b905090565b60006104338261045e6108cc565b90610d8e565b61048161046f610e71565b83836104796108cc565b929190610e7b565b5050565b6104a4610490610e71565b84848461049b6108cc565b93929190611137565b505050565b60006104b3610e71565b90506104c7816104c161092f565b9061115d565b6104a48383836104d56111e0565b92919061120e565b3660006104e86112e4565b915091509091565b61052b7f6d696e746572000000000000000000000000000000000000000000000000000061051c610e71565b6105246111e0565b91906112ef565b610481610536610e71565b83836040518060200160405280600081525060006105526108cc565b949392919061139b565b6104a4610567610e71565b8484846105726108cc565b93929190611541565b6105a77f6d696e746572000000000000000000000000000000000000000000000000000061051c610e71565b6104a4838383808060200260200160405190810160405280939291908181526020018383602002808284376000920191909152506105e892506108cc915050565b9190611560565b606061044b610446610b32565b60006104338261060a6108cc565b90611743565b60006104338261061e6108cc565b906117d1565b61048161062f610e71565b83836106396108cc565b92919061187d565b61065461064c610e71565b6104c161092f565b6104818282610661610b32565b91906118e7565b6106947f6d696e746572000000000000000000000000000000000000000000000000000061051c610e71565b6106e461069f610e71565b858585858080601f0160208091040260200160405190810160405280939291908181526020018383808284376000920191909152506001925061055291506108cc9050565b50505050565b6107056106f5610e71565b826106fe6111e0565b9190611931565b50565b600061044b61071561092f565b5473ffffffffffffffffffffffffffffffffffffffff1690565b6000610773838361073e6111e0565b60009283526020908152604080842073ffffffffffffffffffffffffffffffffffffffff909316845291905290205460ff1690565b9392505050565b606061044b610787610bb5565b6119cd565b610481610797610e71565b83836107a16108cc565b9291906119de565b6106e46107b4610e71565b858585856107c06108cc565b9493929190611b0a565b60606107d88261060a6108cc565b50610433826107e5610b32565b90611b1a565b60006107f5610e71565b9050610803816104c161092f565b6104a48383836108116111e0565b929190611b4e565b600061077383836108286108cc565b73ffffffffffffffffffffffffffffffffffffffff928316600090815260209182526040808220939094168152919052205460ff1690565b6104a461086b610e71565b848484808060200260200160405190810160405280939291908181526020018383602002808284376000920191909152506108a992506108cc915050565b929190611c18565b6107056108bc610e71565b826108c561092f565b9190611cfa565b60008061043360017fddf3ee18ae6d688373c219468f8be446e7ae82215f4779d821c7ea5e8c13c0c16131d2565b6107057f80ac58cd000000000000000000000000000000000000000000000000000000006001610928610a0f565b9190610a3d565b60008061043360017fc9ed16f33ab3a66c84bfd83099ccb2a8845871e2e1c1928f63797152f0fd54cd6131d2565b73ffffffffffffffffffffffffffffffffffffffff8116156109e55781547fffffffffffffffffffffffff00000000000000000000000000000000000000001673ffffffffffffffffffffffffffffffffffffffff821690811783556040516000907f8be0079c531659141344cd1fd0a4f28419497f9722a3daafe3b4186f6b6457e0908290a35b6104817f7f5828d00000000000000000000000000000000000000000000000000000000060016109285b60008061043360017fca9d3e17f264b0f3984e2634e94adb37fa3e6a8103f06aeae6fa59e21c769f5e6131d2565b7fffffffff000000000000000000000000000000000000000000000000000000008083169003610ace576040517f08c379a000000000000000000000000000000000000000000000000000000000815260206004820152601f60248201527f496e74657266616365446574656374696f6e3a2077726f6e672076616c75650060448201526064015b60405180910390fd5b7fffffffff00000000000000000000000000000000000000000000000000000000919091166000908152602092909252604090912080547fffffffffffffffffffffffffffffffffffffffffffffffffffffffffffffff0016911515919091179055565b60008061043360017f5f5773833f4966721eb3773ed87c7208ea74d78f0d94de1d8074345cac67333f6131d2565b610b748383610b6d610bb5565b9190610be3565b8051610b869085906020840190612b55565b506106e47f5b5e139f000000000000000000000000000000000000000000000000000000006001610928610a0f565b60008061043360017f9c4269c0f9f430d98876ffe9767fbf3f3232ea91a549beb549e5329532520eb36131d2565b8151610bf59084906020850190612b55565b508051610c0b9060018501906020840190612b55565b506104a47f5b5e139f000000000000000000000000000000000000000000000000000000006001610928610a0f565b60007fffffffff000000000000000000000000000000000000000000000000000000008083169003610c6e57506000610433565b7ffe003659000000000000000000000000000000000000000000000000000000007fffffffff00000000000000000000000000000000000000000000000000000000831601610cbf57506001610433565b507fffffffff00000000000000000000000000000000000000000000000000000000166000908152602091909152604090205460ff1690565b6060816000018054610d09906131e9565b80601f0160208091040260200160405190810160405280929190818152602001828054610d35906131e9565b8015610d825780601f10610d5757610100808354040283529160200191610d82565b820191906000526020600020905b815481529060010190602001808311610d6557829003601f168201915b50505050509050919050565b600081815260018301602052604081205473ffffffffffffffffffffffffffffffffffffffff8116610e1c576040517f08c379a000000000000000000000000000000000000000000000000000000000815260206004820152601860248201527f4552433732313a206e6f6e2d6578697374696e67204e465400000000000000006044820152606401610ac5565b74010000000000000000000000000000000000000000811615610e67575050600081815260038301602052604090205473ffffffffffffffffffffffffffffffffffffffff16610433565b6000915050610433565b600061044b611e26565b600081815260018501602052604081205490819003610ef6576040517f08c379a000000000000000000000000000000000000000000000000000000000815260206004820152601860248201527f4552433732313a206e6f6e2d6578697374696e67204e465400000000000000006044820152606401610ac5565b8073ffffffffffffffffffffffffffffffffffffffff80821690851603610f79576040517f08c379a000000000000000000000000000000000000000000000000000000000815260206004820152601560248201527f4552433732313a2073656c662d617070726f76616c00000000000000000000006044820152606401610ac5565b610f84868287611f7e565b610fea576040517f08c379a000000000000000000000000000000000000000000000000000000000815260206004820152601b60248201527f4552433732313a206e6f6e2d617070726f7665642073656e64657200000000006044820152606401610ac5565b73ffffffffffffffffffffffffffffffffffffffff8416611051577401000000000000000000000000000000000000000082161561104c576000838152600187016020526040902073ffffffffffffffffffffffffffffffffffffffff821690555b6110d4565b74010000000000000000000000000000000000000000821780831461108457600084815260018801602052604090208190555b506000838152600387016020526040902080547fffffffffffffffffffffffff00000000000000000000000000000000000000001673ffffffffffffffffffffffffffffffffffffffff86161790555b828473ffffffffffffffffffffffffffffffffffffffff168273ffffffffffffffffffffffffffffffffffffffff167f8c5be1e5ebec7d5bd14f71427d1e84f3dd0314c0f7b2291e5b200ac8c7c3b92560405160405180910390a4505050505050565b6111568585858585604051806020016040528060008152506000611ff2565b5050505050565b815473ffffffffffffffffffffffffffffffffffffffff828116911614610481576040517f08c379a000000000000000000000000000000000000000000000000000000000815260206004820152601860248201527f4f776e6572736869703a206e6f7420746865206f776e657200000000000000006044820152606401610ac5565b60008061043360017fc8827d3282af6f37b64c3e9e6f3ac9df286ab0bb0fccd6f8661bf19adb368b236131d2565b60008381526020858152604080832073ffffffffffffffffffffffffffffffffffffffff8616845290915290205460ff166106e45760008381526020858152604080832073ffffffffffffffffffffffffffffffffffffffff8681168086529184529382902080547fffffffffffffffffffffffffffffffffffffffffffffffffffffffffffffff00166001179055815187815292830152918316918101919091527f2f8788117e7eff1d82e926ec794901d17c78024a50270940304540a733656f0d906060015b60405180910390a150505050565b3660006104e8612128565b60008281526020848152604080832073ffffffffffffffffffffffffffffffffffffffff8516845290915290205460ff166104a45761132d826122ac565b60405160200161133d9190613252565b604080517fffffffffffffffffffffffffffffffffffffffffffffffffffffffffffffffe0818403018152908290527f08c379a0000000000000000000000000000000000000000000000000000000008252610ac591600401612d41565b73ffffffffffffffffffffffffffffffffffffffff8416611418576040517f08c379a000000000000000000000000000000000000000000000000000000000815260206004820152601460248201527f4552433732313a206d696e7420746f207a65726f0000000000000000000000006044820152606401610ac5565b60008381526001870160205260409020547f2153000000000000000000000000000000000000000000000000000000000000016114b1576040517f08c379a000000000000000000000000000000000000000000000000000000000815260206004820152601160248201527f4552433732313a206275726e74204e46540000000000000000000000000000006044820152606401610ac5565b6114be8685856000612436565b604051839073ffffffffffffffffffffffffffffffffffffffff8616906000907fddf252ad1be2c89b69c2b068fc378daa952ba7f163c4a11628f55a4df523b3ef908290a4808015611526575073ffffffffffffffffffffffffffffffffffffffff84163b15155b156115395761153985600086868661250f565b505050505050565b6111568585858585604051806020016040528060008152506001611ff2565b73ffffffffffffffffffffffffffffffffffffffff82166115dd576040517f08c379a000000000000000000000000000000000000000000000000000000000815260206004820152601460248201527f4552433732313a206d696e7420746f207a65726f0000000000000000000000006044820152606401610ac5565b805160005b8181146117005760008382815181106115fd576115fd6132be565b602002602001015190507fdead00000000000000000000000000000000000000000000000000000000000086600101600083815260200190815260200160002054036116a5576040517f08c379a000000000000000000000000000000000000000000000000000000000815260206004820152601160248201527f4552433732313a206275726e74204e46540000000000000000000000000000006044820152606401610ac5565b6116b28686836001612436565b604051819073ffffffffffffffffffffffffffffffffffffffff8716906000907fddf252ad1be2c89b69c2b068fc378daa952ba7f163c4a11628f55a4df523b3ef908290a4506001016115e2565b5073ffffffffffffffffffffffffffffffffffffffff83166000908152600285016020526040812080548392906117389084906132ed565b909155505050505050565b600081815260018301602052604081205473ffffffffffffffffffffffffffffffffffffffff8116610773576040517f08c379a000000000000000000000000000000000000000000000000000000000815260206004820152601860248201527f4552433732313a206e6f6e2d6578697374696e67204e465400000000000000006044820152606401610ac5565b600073ffffffffffffffffffffffffffffffffffffffff8216611850576040517f08c379a000000000000000000000000000000000000000000000000000000000815260206004820152601460248201527f4552433732313a207a65726f20616464726573730000000000000000000000006044820152606401610ac5565b5073ffffffffffffffffffffffffffffffffffffffff166000908152600291909101602052604090205490565b600061188a858486611f7e565b905061189b85858585856000612635565b604051829060009073ffffffffffffffffffffffffffffffffffffffff8616907fddf252ad1be2c89b69c2b068fc378daa952ba7f163c4a11628f55a4df523b3ef908390a45050505050565b6118f2838383612bd9565b507f04b1dc5c136a3ce9fded8db0ce3d3366c58764ec3a8e4c2b9e52e4ddfe5ebbf78282604051611924929190612e71565b60405180910390a1505050565b61193c8382846112ef565b60008181526020848152604080832073ffffffffffffffffffffffffffffffffffffffff86168085529083529281902080547fffffffffffffffffffffffffffffffffffffffffffffffffffffffffffffff0016905580518481529182018390528101919091527ff6391f5c32d9c69d2a47ea670b442974b53935d1edc7fd64eb21e047a839171b90606001611924565b6060816001018054610d09906131e9565b8273ffffffffffffffffffffffffffffffffffffffff168273ffffffffffffffffffffffffffffffffffffffff1603611a73576040517f08c379a000000000000000000000000000000000000000000000000000000000815260206004820152601560248201527f4552433732313a2073656c662d617070726f76616c00000000000000000000006044820152606401610ac5565b73ffffffffffffffffffffffffffffffffffffffff8381166000818152602087815260408083209487168084529482529182902080547fffffffffffffffffffffffffffffffffffffffffffffffffffffffffffffff001686151590811790915591519182527f17307eab39ab6107e8899845ad3d59bd9653f200f220920489ca2b5937696c31910160405180910390a350505050565b6115398686868686866001611ff2565b606082611b2683612810565b604051602001611b37929190613305565b604051602081830303815290604052905092915050565b60008381526020858152604080832073ffffffffffffffffffffffffffffffffffffffff8616845290915290205460ff16156106e45760008381526020858152604080832073ffffffffffffffffffffffffffffffffffffffff8681168086529184529382902080547fffffffffffffffffffffffffffffffffffffffffffffffffffffffffffffff00169055815187815292830152918316918101919091527ff6391f5c32d9c69d2a47ea670b442974b53935d1edc7fd64eb21e047a839171b906060016112d6565b6000611c25858486611f7e565b825190915060005b818114611caf576000848281518110611c4857611c486132be565b60200260200101519050611c6188888884886001612635565b604051819060009073ffffffffffffffffffffffffffffffffffffffff8916907fddf252ad1be2c89b69c2b068fc378daa952ba7f163c4a11628f55a4df523b3ef908390a450600101611c2d565b5080156115395773ffffffffffffffffffffffffffffffffffffffff8416600090815260028701602052604081208054839290611ced9084906131d2565b9091555050505050505050565b825473ffffffffffffffffffffffffffffffffffffffff9081169083168114611d7f576040517f08c379a000000000000000000000000000000000000000000000000000000000815260206004820152601860248201527f4f776e6572736869703a206e6f7420746865206f776e657200000000000000006044820152606401610ac5565b8173ffffffffffffffffffffffffffffffffffffffff168173ffffffffffffffffffffffffffffffffffffffff16146106e45783547fffffffffffffffffffffffff00000000000000000000000000000000000000001673ffffffffffffffffffffffffffffffffffffffff8381169182178655604051908316907f8be0079c531659141344cd1fd0a4f28419497f9722a3daafe3b4186f6b6457e090600090a350505050565b600033328103611e3557919050565b6000367fffffffffffffffffffffffffffffffffffffffffffffffffffffffffffffffec013560601c90507f000000000000000000000000000000000000000000000000000000000000000073ffffffffffffffffffffffffffffffffffffffff168273ffffffffffffffffffffffffffffffffffffffff161480611f6d57506040517fe60125d600000000000000000000000000000000000000000000000000000000815273ffffffffffffffffffffffffffffffffffffffff828116600483015283811660248301527f0000000000000000000000000000000000000000000000000000000000000000169063e60125d690604401602060405180830381865afa158015611f49573d6000803e3d6000fd5b505050506040513d601f19601f82011682018060405250810190611f6d91906133e2565b15611f785792915050565b50919050565b60008173ffffffffffffffffffffffffffffffffffffffff168373ffffffffffffffffffffffffffffffffffffffff161480611fea575073ffffffffffffffffffffffffffffffffffffffff8084166000908152602086815260408083209386168352929052205460ff165b949350505050565b73ffffffffffffffffffffffffffffffffffffffff841661206f576040517f08c379a000000000000000000000000000000000000000000000000000000000815260206004820152601860248201527f4552433732313a207472616e7366657220746f207a65726f00000000000000006044820152606401610ac5565b600061207c888789611f7e565b905061208e888888888886600061293b565b838573ffffffffffffffffffffffffffffffffffffffff168773ffffffffffffffffffffffffffffffffffffffff167fddf252ad1be2c89b69c2b068fc378daa952ba7f163c4a11628f55a4df523b3ef60405160405180910390a481801561210c575073ffffffffffffffffffffffffffffffffffffffff85163b15155b1561211e5761211e878787878761250f565b5050505050505050565b3660003332810361213e57506000923692509050565b7f000000000000000000000000000000000000000000000000000000000000000073ffffffffffffffffffffffffffffffffffffffff168173ffffffffffffffffffffffffffffffffffffffff16148061228b575073ffffffffffffffffffffffffffffffffffffffff7f00000000000000000000000000000000000000000000000000000000000000001663e60125d6367fffffffffffffffffffffffffffffffffffffffffffffffffffffffffffffffec013560601c6040517fffffffff0000000000000000000000000000000000000000000000000000000060e084901b16815273ffffffffffffffffffffffffffffffffffffffff91821660048201529084166024820152604401602060405180830381865afa158015612267573d6000803e3d6000fd5b505050506040513d601f19601f8201168201806040525081019061228b91906133e2565b156122a157612298612ac2565b92509250509091565b506000923692509050565b606060008290036122cb57505060408051602081019091526000815290565b6000826040516020016122e091815260200190565b604080517fffffffffffffffffffffffffffffffffffffffffffffffffffffffffffffffe08184030181529190529050601f5b818181518110612325576123256132be565b01602001517fff00000000000000000000000000000000000000000000000000000000000000166000036123635761235c816133ff565b9050612313565b60006123708260016132ed565b67ffffffffffffffff81111561238857612388613050565b6040519080825280601f01601f1916602001820160405280156123b2576020820181803683370190505b50905060005b82811161242d578381815181106123d1576123d16132be565b602001015160f81c60f81b8282815181106123ee576123ee6132be565b60200101907effffffffffffffffffffffffffffffffffffffffffffffffffffffffffffff1916908160001a90535061242681613434565b90506123b8565b50949350505050565b6000828152600185016020526040902054156124ae576040517f08c379a000000000000000000000000000000000000000000000000000000000815260206004820152601a60248201527f4552433732313a206578697374696e672f6275726e74204e46540000000000006044820152606401610ac5565b6000828152600185016020526040902073ffffffffffffffffffffffffffffffffffffffff84169055806106e457505073ffffffffffffffffffffffffffffffffffffffff1660009081526002919091016020526040902080546001019055565b6040517f150b7a02000000000000000000000000000000000000000000000000000000008082529073ffffffffffffffffffffffffffffffffffffffff85169063150b7a029061256990899089908890889060040161346c565b6020604051808303816000875af1158015612588573d6000803e3d6000fd5b505050506040513d601f19601f820116820180604052508101906125ac91906134b5565b7fffffffff000000000000000000000000000000000000000000000000000000001614611156576040517f08c379a000000000000000000000000000000000000000000000000000000000815260206004820152601860248201527f4552433732313a207472616e73666572207265667573656400000000000000006044820152606401610ac5565b600083815260018701602052604090205473ffffffffffffffffffffffffffffffffffffffff858116908216146126c8576040517f08c379a000000000000000000000000000000000000000000000000000000000815260206004820152601560248201527f4552433732313a206e6f6e2d6f776e6564204e465400000000000000000000006044820152606401610ac5565b82612781577401000000000000000000000000000000000000000081161580159061271b5750600084815260038801602052604090205473ffffffffffffffffffffffffffffffffffffffff8781169116145b612781576040517f08c379a000000000000000000000000000000000000000000000000000000000815260206004820152601b60248201527f4552433732313a206e6f6e2d617070726f7665642073656e64657200000000006044820152606401610ac5565b600084815260018801602052604090207fdead0000000000000000000000000000000000000000000000000000000000009055816128075773ffffffffffffffffffffffffffffffffffffffff85166000908152600288016020526040902080547fffffffffffffffffffffffffffffffffffffffffffffffffffffffffffffffff0190555b50505050505050565b60608160000361285357505060408051808201909152600181527f3000000000000000000000000000000000000000000000000000000000000000602082015290565b8160005b811561287d578061286781613434565b91506128769050600a836134d2565b9150612857565b60008167ffffffffffffffff81111561289857612898613050565b6040519080825280601f01601f1916602001820160405280156128c2576020820181803683370190505b50905060006128d26001846131d2565b90508593505b831561242d57600a840660300160f81b82828060019003935081518110612901576129016132be565b60200101907effffffffffffffffffffffffffffffffffffffffffffffffffffffffffffff1916908160001a905350600a840493506128d8565b600083815260018801602052604090205473ffffffffffffffffffffffffffffffffffffffff868116908216146129ce576040517f08c379a000000000000000000000000000000000000000000000000000000000815260206004820152601560248201527f4552433732313a206e6f6e2d6f776e6564204e465400000000000000000000006044820152606401610ac5565b82612a875774010000000000000000000000000000000000000000811615801590612a215750600084815260038901602052604090205473ffffffffffffffffffffffffffffffffffffffff8881169116145b612a87576040517f08c379a000000000000000000000000000000000000000000000000000000000815260206004820152601b60248201527f4552433732313a206e6f6e2d617070726f7665642073656e64657200000000006044820152606401610ac5565b6000848152600189016020526040902073ffffffffffffffffffffffffffffffffffffffff861690558161211e5761211e8887876001612ae0565b366000808083612ad36014826131d2565b926104e89392919061350d565b8173ffffffffffffffffffffffffffffffffffffffff168373ffffffffffffffffffffffffffffffffffffffff16146106e45773ffffffffffffffffffffffffffffffffffffffff80841660009081526002860160205260408082208054859003905591841681522080548201905550505050565b828054612b61906131e9565b90600052602060002090601f016020900481019282612b835760008555612bc9565b82601f10612b9c57805160ff1916838001178555612bc9565b82800160010185558215612bc9579182015b82811115612bc9578251825591602001919060010190612bae565b50612bd5929150612c6b565b5090565b828054612be5906131e9565b90600052602060002090601f016020900481019282612c075760008555612bc9565b82601f10612c3e578280017fffffffffffffffffffffffffffffffffffffffffffffffffffffffffffffff00823516178555612bc9565b82800160010185558215612bc9579182015b82811115612bc9578235825591602001919060010190612c50565b5b80821115612bd55760008155600101612c6c565b7fffffffff000000000000000000000000000000000000000000000000000000008116811461070557600080fd5b600060208284031215612cc057600080fd5b813561077381612c80565b60005b83811015612ce6578181015183820152602001612cce565b838111156106e45750506000910152565b60008151808452612d0f816020860160208601612ccb565b601f017fffffffffffffffffffffffffffffffffffffffffffffffffffffffffffffffe0169290920160200192915050565b6020815260006107736020830184612cf7565b600060208284031215612d6657600080fd5b5035919050565b803573ffffffffffffffffffffffffffffffffffffffff81168114612d9157600080fd5b919050565b60008060408385031215612da957600080fd5b612db283612d6d565b946020939093013593505050565b600080600060608486031215612dd557600080fd5b612dde84612d6d565b9250612dec60208501612d6d565b9150604084013590509250925092565b60008060408385031215612e0f57600080fd5b82359150612e1f60208401612d6d565b90509250929050565b8183528181602085013750600060208284010152600060207fffffffffffffffffffffffffffffffffffffffffffffffffffffffffffffffe0601f840116840101905092915050565b602081526000611fea602083018486612e28565b600080600060408486031215612e9a57600080fd5b612ea384612d6d565b9250602084013567ffffffffffffffff80821115612ec057600080fd5b818601915086601f830112612ed457600080fd5b813581811115612ee357600080fd5b8760208260051b8501011115612ef857600080fd5b6020830194508093505050509250925092565b600060208284031215612f1d57600080fd5b61077382612d6d565b60008083601f840112612f3857600080fd5b50813567ffffffffffffffff811115612f5057600080fd5b602083019150836020828501011115612f6857600080fd5b9250929050565b60008060208385031215612f8257600080fd5b823567ffffffffffffffff811115612f9957600080fd5b612fa585828601612f26565b90969095509350505050565b60008060008060608587031215612fc757600080fd5b612fd085612d6d565b935060208501359250604085013567ffffffffffffffff811115612ff357600080fd5b612fff87828801612f26565b95989497509550505050565b801515811461070557600080fd5b6000806040838503121561302c57600080fd5b61303583612d6d565b915060208301356130458161300b565b809150509250929050565b7f4e487b7100000000000000000000000000000000000000000000000000000000600052604160045260246000fd5b6000806000806080858703121561309557600080fd5b61309e85612d6d565b93506130ac60208601612d6d565b925060408501359150606085013567ffffffffffffffff808211156130d057600080fd5b818701915087601f8301126130e457600080fd5b8135818111156130f6576130f6613050565b604051601f82017fffffffffffffffffffffffffffffffffffffffffffffffffffffffffffffffe0908116603f0116810190838211818310171561313c5761313c613050565b816040528281528a602084870101111561315557600080fd5b82602086016020830137600060208483010152809550505050505092959194509250565b6000806040838503121561318c57600080fd5b61319583612d6d565b9150612e1f60208401612d6d565b7f4e487b7100000000000000000000000000000000000000000000000000000000600052601160045260246000fd5b6000828210156131e4576131e46131a3565b500390565b600181811c908216806131fd57607f821691505b602082108103611f78577f4e487b7100000000000000000000000000000000000000000000000000000000600052602260045260246000fd5b60008151613248818560208601612ccb565b9290920192915050565b7f416363657373436f6e74726f6c3a206d697373696e672027000000000000000081526000825161328a816018850160208701612ccb565b7f2720726f6c6500000000000000000000000000000000000000000000000000006018939091019283015250601e01919050565b7f4e487b7100000000000000000000000000000000000000000000000000000000600052603260045260246000fd5b60008219821115613300576133006131a3565b500190565b600080845481600182811c91508083168061332157607f831692505b60208084108203613359577f4e487b710000000000000000000000000000000000000000000000000000000086526022600452602486fd5b81801561336d576001811461339c576133c9565b7fffffffffffffffffffffffffffffffffffffffffffffffffffffffffffffff008616895284890196506133c9565b60008b81526020902060005b868110156133c15781548b8201529085019083016133a8565b505084890196505b5050505050506133d98185613236565b95945050505050565b6000602082840312156133f457600080fd5b81516107738161300b565b60008161340e5761340e6131a3565b507fffffffffffffffffffffffffffffffffffffffffffffffffffffffffffffffff0190565b60007fffffffffffffffffffffffffffffffffffffffffffffffffffffffffffffffff8203613465576134656131a3565b5060010190565b600073ffffffffffffffffffffffffffffffffffffffff8087168352808616602084015250836040830152608060608301526134ab6080830184612cf7565b9695505050505050565b6000602082840312156134c757600080fd5b815161077381612c80565b600082613508577f4e487b7100000000000000000000000000000000000000000000000000000000600052601260045260246000fd5b500490565b6000808585111561351d57600080fd5b8386111561352a57600080fd5b505082019391909203915056fea2646970667358221220efe6832c31468bbe00c206726a49384fa6bad13c94e882edca3decb38f60d90b64736f6c634300080e0033",
  "linkReferences": {},
  "deployedLinkReferences": {}
}