{
  "_format": "hh-sol-artifact-1",
  "contractName": "ERC721MintableOnceMock",
  "sourceName": "contracts/mocks/token/ERC721/ERC721MintableOnceMock.sol",
  "abi": [
    {
      "inputs": [
        {
          "internalType": "string",
          "name": "name_",
          "type": "string"
        },
        {
          "internalType": "string",
          "name": "symbol_",
          "type": "string"
        },
        {
          "internalType": "string",
          "name": "tokenURI_",
          "type": "string"
        },
        {
          "internalType": "contract IForwarderRegistry",
          "name": "forwarderRegistry",
          "type": "address"
        }
      ],
      "stateMutability": "nonpayable",
      "type": "constructor"
    },
    {
      "anonymous": false,
      "inputs": [
        {
          "indexed": true,
          "internalType": "address",
          "name": "owner",
          "type": "address"
        },
        {
          "indexed": true,
          "internalType": "address",
          "name": "approved",
          "type": "address"
        },
        {
          "indexed": true,
          "internalType": "uint256",
          "name": "tokenId",
          "type": "uint256"
        }
      ],
      "name": "Approval",
      "type": "event"
    },
    {
      "anonymous": false,
      "inputs": [
        {
          "indexed": true,
          "internalType": "address",
          "name": "owner",
          "type": "address"
        },
        {
          "indexed": true,
          "internalType": "address",
          "name": "operator",
          "type": "address"
        },
        {
          "indexed": false,
          "internalType": "bool",
          "name": "approved",
          "type": "bool"
        }
      ],
      "name": "ApprovalForAll",
      "type": "event"
    },
    {
      "anonymous": false,
      "inputs": [
        {
          "indexed": true,
          "internalType": "string",
          "name": "baseMetadataURI",
          "type": "string"
        }
      ],
      "name": "BaseMetadataURISet",
      "type": "event"
    },
    {
      "anonymous": false,
      "inputs": [
        {
          "indexed": true,
          "internalType": "address",
          "name": "previousOwner",
          "type": "address"
        },
        {
          "indexed": true,
          "internalType": "address",
          "name": "newOwner",
          "type": "address"
        }
      ],
      "name": "OwnershipTransferred",
      "type": "event"
    },
    {
      "anonymous": false,
      "inputs": [
        {
          "indexed": false,
          "internalType": "bytes32",
          "name": "role",
          "type": "bytes32"
        },
        {
          "indexed": false,
          "internalType": "address",
          "name": "account",
          "type": "address"
        },
        {
          "indexed": false,
          "internalType": "address",
          "name": "operator",
          "type": "address"
        }
      ],
      "name": "RoleGranted",
      "type": "event"
    },
    {
      "anonymous": false,
      "inputs": [
        {
          "indexed": false,
          "internalType": "bytes32",
          "name": "role",
          "type": "bytes32"
        },
        {
          "indexed": false,
          "internalType": "address",
          "name": "account",
          "type": "address"
        },
        {
          "indexed": false,
          "internalType": "address",
          "name": "operator",
          "type": "address"
        }
      ],
      "name": "RoleRevoked",
      "type": "event"
    },
    {
      "anonymous": false,
      "inputs": [
        {
          "indexed": true,
          "internalType": "address",
          "name": "from",
          "type": "address"
        },
        {
          "indexed": true,
          "internalType": "address",
          "name": "to",
          "type": "address"
        },
        {
          "indexed": true,
          "internalType": "uint256",
          "name": "tokenId",
          "type": "uint256"
        }
      ],
      "name": "Transfer",
      "type": "event"
    },
    {
      "inputs": [],
      "name": "MINTER_ROLE",
      "outputs": [
        {
          "internalType": "bytes32",
          "name": "",
          "type": "bytes32"
        }
      ],
      "stateMutability": "view",
      "type": "function"
    },
    {
      "inputs": [],
      "name": "__msgData",
      "outputs": [
        {
          "internalType": "bytes",
          "name": "",
          "type": "bytes"
        }
      ],
      "stateMutability": "view",
      "type": "function"
    },
    {
      "inputs": [
        {
          "internalType": "address",
          "name": "to",
          "type": "address"
        },
        {
          "internalType": "uint256",
          "name": "tokenId",
          "type": "uint256"
        }
      ],
      "name": "approve",
      "outputs": [],
      "stateMutability": "nonpayable",
      "type": "function"
    },
    {
      "inputs": [
        {
          "internalType": "address",
          "name": "owner",
          "type": "address"
        }
      ],
      "name": "balanceOf",
      "outputs": [
        {
          "internalType": "uint256",
          "name": "",
          "type": "uint256"
        }
      ],
      "stateMutability": "view",
      "type": "function"
    },
    {
      "inputs": [],
      "name": "baseMetadataURI",
      "outputs": [
        {
          "internalType": "string",
          "name": "",
          "type": "string"
        }
      ],
      "stateMutability": "view",
      "type": "function"
    },
    {
      "inputs": [
        {
          "internalType": "address",
          "name": "from",
          "type": "address"
        },
        {
          "internalType": "uint256[]",
          "name": "tokenIds",
          "type": "uint256[]"
        }
      ],
      "name": "batchBurnFrom",
      "outputs": [],
      "stateMutability": "nonpayable",
      "type": "function"
    },
    {
      "inputs": [
        {
          "internalType": "address",
          "name": "to",
          "type": "address"
        },
        {
          "internalType": "uint256[]",
          "name": "tokenIds",
          "type": "uint256[]"
        }
      ],
      "name": "batchMint",
      "outputs": [],
      "stateMutability": "nonpayable",
      "type": "function"
    },
    {
      "inputs": [
        {
          "internalType": "address",
          "name": "from",
          "type": "address"
        },
        {
          "internalType": "uint256",
          "name": "tokenId",
          "type": "uint256"
        }
      ],
      "name": "burnFrom",
      "outputs": [],
      "stateMutability": "nonpayable",
      "type": "function"
    },
    {
      "inputs": [
        {
          "internalType": "uint256",
          "name": "tokenId",
          "type": "uint256"
        }
      ],
      "name": "getApproved",
      "outputs": [
        {
          "internalType": "address",
          "name": "operator",
          "type": "address"
        }
      ],
      "stateMutability": "view",
      "type": "function"
    },
    {
      "inputs": [
        {
          "internalType": "bytes32",
          "name": "role",
          "type": "bytes32"
        },
        {
          "internalType": "address",
          "name": "account",
          "type": "address"
        }
      ],
      "name": "grantRole",
      "outputs": [],
      "stateMutability": "nonpayable",
      "type": "function"
    },
    {
      "inputs": [
        {
          "internalType": "bytes32",
          "name": "role",
          "type": "bytes32"
        },
        {
          "internalType": "address",
          "name": "account",
          "type": "address"
        }
      ],
      "name": "hasRole",
      "outputs": [
        {
          "internalType": "bool",
          "name": "",
          "type": "bool"
        }
      ],
      "stateMutability": "view",
      "type": "function"
    },
    {
      "inputs": [
        {
          "internalType": "address",
          "name": "owner",
          "type": "address"
        },
        {
          "internalType": "address",
          "name": "operator",
          "type": "address"
        }
      ],
      "name": "isApprovedForAll",
      "outputs": [
        {
          "internalType": "bool",
          "name": "",
          "type": "bool"
        }
      ],
      "stateMutability": "view",
      "type": "function"
    },
    {
      "inputs": [
        {
          "internalType": "address",
          "name": "to",
          "type": "address"
        },
        {
          "internalType": "uint256",
          "name": "tokenId",
          "type": "uint256"
        }
      ],
      "name": "mint",
      "outputs": [],
      "stateMutability": "nonpayable",
      "type": "function"
    },
    {
      "inputs": [],
      "name": "name",
      "outputs": [
        {
          "internalType": "string",
          "name": "",
          "type": "string"
        }
      ],
      "stateMutability": "view",
      "type": "function"
    },
    {
      "inputs": [],
      "name": "owner",
      "outputs": [
        {
          "internalType": "address",
          "name": "",
          "type": "address"
        }
      ],
      "stateMutability": "view",
      "type": "function"
    },
    {
      "inputs": [
        {
          "internalType": "uint256",
          "name": "tokenId",
          "type": "uint256"
        }
      ],
      "name": "ownerOf",
      "outputs": [
        {
          "internalType": "address",
          "name": "",
          "type": "address"
        }
      ],
      "stateMutability": "view",
      "type": "function"
    },
    {
      "inputs": [
        {
          "internalType": "bytes32",
          "name": "role",
          "type": "bytes32"
        }
      ],
      "name": "renounceRole",
      "outputs": [],
      "stateMutability": "nonpayable",
      "type": "function"
    },
    {
      "inputs": [
        {
          "internalType": "bytes32",
          "name": "role",
          "type": "bytes32"
        },
        {
          "internalType": "address",
          "name": "account",
          "type": "address"
        }
      ],
      "name": "revokeRole",
      "outputs": [],
      "stateMutability": "nonpayable",
      "type": "function"
    },
    {
      "inputs": [
        {
          "internalType": "address",
          "name": "to",
          "type": "address"
        },
        {
          "internalType": "uint256",
          "name": "tokenId",
          "type": "uint256"
        },
        {
          "internalType": "bytes",
          "name": "data",
          "type": "bytes"
        }
      ],
      "name": "safeMint",
      "outputs": [],
      "stateMutability": "nonpayable",
      "type": "function"
    },
    {
      "inputs": [
        {
          "internalType": "address",
          "name": "from",
          "type": "address"
        },
        {
          "internalType": "address",
          "name": "to",
          "type": "address"
        },
        {
          "internalType": "uint256",
          "name": "tokenId",
          "type": "uint256"
        }
      ],
      "name": "safeTransferFrom",
      "outputs": [],
      "stateMutability": "nonpayable",
      "type": "function"
    },
    {
      "inputs": [
        {
          "internalType": "address",
          "name": "from",
          "type": "address"
        },
        {
          "internalType": "address",
          "name": "to",
          "type": "address"
        },
        {
          "internalType": "uint256",
          "name": "tokenId",
          "type": "uint256"
        },
        {
          "internalType": "bytes",
          "name": "_data",
          "type": "bytes"
        }
      ],
      "name": "safeTransferFrom",
      "outputs": [],
      "stateMutability": "nonpayable",
      "type": "function"
    },
    {
      "inputs": [
        {
          "internalType": "address",
          "name": "operator",
          "type": "address"
        },
        {
          "internalType": "bool",
          "name": "_approved",
          "type": "bool"
        }
      ],
      "name": "setApprovalForAll",
      "outputs": [],
      "stateMutability": "nonpayable",
      "type": "function"
    },
    {
      "inputs": [
        {
          "internalType": "string",
          "name": "baseMetadataURI_",
          "type": "string"
        }
      ],
      "name": "setBaseMetadataURI",
      "outputs": [],
      "stateMutability": "nonpayable",
      "type": "function"
    },
    {
      "inputs": [
        {
          "internalType": "bytes4",
          "name": "interfaceId",
          "type": "bytes4"
        }
      ],
      "name": "supportsInterface",
      "outputs": [
        {
          "internalType": "bool",
          "name": "",
          "type": "bool"
        }
      ],
      "stateMutability": "view",
      "type": "function"
    },
    {
      "inputs": [],
      "name": "symbol",
      "outputs": [
        {
          "internalType": "string",
          "name": "",
          "type": "string"
        }
      ],
      "stateMutability": "view",
      "type": "function"
    },
    {
      "inputs": [
        {
          "internalType": "uint256",
          "name": "tokenId",
          "type": "uint256"
        }
      ],
      "name": "tokenURI",
      "outputs": [
        {
          "internalType": "string",
          "name": "",
          "type": "string"
        }
      ],
      "stateMutability": "view",
      "type": "function"
    },
    {
      "inputs": [
        {
          "internalType": "address",
          "name": "from",
          "type": "address"
        },
        {
          "internalType": "address",
          "name": "to",
          "type": "address"
        },
        {
          "internalType": "uint256",
          "name": "tokenId",
          "type": "uint256"
        }
      ],
      "name": "transferFrom",
      "outputs": [],
      "stateMutability": "nonpayable",
      "type": "function"
    },
    {
      "inputs": [
        {
          "internalType": "address",
          "name": "newOwner",
          "type": "address"
        }
      ],
      "name": "transferOwnership",
      "outputs": [],
      "stateMutability": "nonpayable",
      "type": "function"
    }
  ],
  "bytecode": "0x60a06040523480156200001157600080fd5b5060405162003e4738038062003e478339810160408190526200003491620006b0565b808484843362000063620000526200015c60201b620008cc1760201c565b6200019260201b620008fa1760201c565b62000091816200007d620001ff60201b620009641760201c565b6200022f60201b620009921790919060201c565b50620000ca638e773e1360e01b6001620000b5620002ad60201b62000a441760201c565b620002dd60201b62000a72179092919060201c565b620000ed638b8b4ef560e01b6001620000b5620002ad60201b62000a441760201c565b6200011f838383620001096200036b60201b62000b671760201c565b6200039b60201b62000b9517909392919060201c565b62000142635b5e139f60e01b6001620000b5620002ad60201b62000a441760201c565b5050506001600160a01b031660805250620007c592505050565b6000806200018c60017fddf3ee18ae6d688373c219468f8be446e7ae82215f4779d821c7ea5e8c13c0c162000763565b92915050565b620001d9620001c360017ffddcdbf8ca7eb362a678daf3643ce3cf98ebf69ac314d25d376d5aeabd2f533262000763565b60001b60016200043a60201b62000c181760201c565b620001fc6380ac58cd60e01b6001620000b5620002ad60201b62000a441760201c565b50565b6000806200018c60017fc9ed16f33ab3a66c84bfd83099ccb2a8845871e2e1c1928f63797152f0fd54cd62000763565b6001600160a01b03811615620002865781546001600160a01b0319166001600160a01b03821690811783556040516000907f8be0079c531659141344cd1fd0a4f28419497f9722a3daafe3b4186f6b6457e0908290a35b620002a96307f5828d60e41b6001620000b5620002ad60201b62000a441760201c565b5050565b6000806200018c60017fca9d3e17f264b0f3984e2634e94adb37fa3e6a8103f06aeae6fa59e21c769f5e62000763565b6001600160e01b031980831690036200033d5760405162461bcd60e51b815260206004820152601f60248201527f496e74657266616365446574656374696f6e3a2077726f6e672076616c75650060448201526064015b60405180910390fd5b6001600160e01b03199190911660009081526020929092526040909120805460ff1916911515919091179055565b6000806200018c60017f5f5773833f4966721eb3773ed87c7208ea74d78f0d94de1d8074345cac67333f62000763565b620003cc620001c360017fdf2ee7965c9504dc84db8f7759fc283282800c5a2fa3704c9f07f446b3b40a3f62000763565b620003fc8383620003e7620004ad60201b62000c881760201c565b620004dd60201b62000cb6179092919060201c565b80516200041090859060208401906200053d565b5062000434635b5e139f60e01b6001620000b5620002ad60201b62000a441760201c565b50505050565b600062000452836200053a60201b62000d0c1760201c565b905081816000015410620004a95760405162461bcd60e51b815260206004820152601860248201527f53746f726167653a2076657273696f6e20726561636865640000000000000000604482015260640162000334565b5550565b6000806200018c60017f9c4269c0f9f430d98876ffe9767fbf3f3232ea91a549beb549e5329532520eb362000763565b6200050e620001c360017fa057eeb6560fae2987973d3bf40b89e6da66dd0b6aadac05dc6b5b0d7a8d455762000763565b81516200052290849060208501906200053d565b5080516200043490600185019060208401906200053d565b90565b8280546200054b9062000789565b90600052602060002090601f0160209004810192826200056f5760008555620005ba565b82601f106200058a57805160ff1916838001178555620005ba565b82800160010185558215620005ba579182015b82811115620005ba5782518255916020019190600101906200059d565b50620005c8929150620005cc565b5090565b5b80821115620005c85760008155600101620005cd565b634e487b7160e01b600052604160045260246000fd5b600082601f8301126200060b57600080fd5b81516001600160401b0380821115620006285762000628620005e3565b604051601f8301601f19908116603f01168101908282118183101715620006535762000653620005e3565b816040528381526020925086838588010111156200067057600080fd5b600091505b8382101562000694578582018301518183018401529082019062000675565b83821115620006a65760008385830101525b9695505050505050565b60008060008060808587031215620006c757600080fd5b84516001600160401b0380821115620006df57600080fd5b620006ed88838901620005f9565b955060208701519150808211156200070457600080fd5b6200071288838901620005f9565b945060408701519150808211156200072957600080fd5b506200073887828801620005f9565b606087015190935090506001600160a01b03811681146200075857600080fd5b939692955090935050565b6000828210156200078457634e487b7160e01b600052601160045260246000fd5b500390565b600181811c908216806200079e57607f821691505b602082108103620007bf57634e487b7160e01b600052602260045260246000fd5b50919050565b608051613651620007f660003960008181611f4601528181611fe601528181612224015261228e01526136516000f3fe608060405234801561001057600080fd5b50600436106101c45760003560e01c80637e518ec8116100f9578063b88d4fde11610097578063d547741f11610071578063d547741f146103d3578063e985e9c5146103e6578063f2472965146103f9578063f2fde38b1461040c57600080fd5b8063b88d4fde14610386578063c87b56dd14610399578063d5391393146103ac57600080fd5b80638da5cb5b116100d35780638da5cb5b1461035057806391d148541461035857806395d89b411461036b578063a22cb4651461037357600080fd5b80637e518ec8146103175780638832e6e31461032a5780638bb9c5bf1461033d57600080fd5b806340c10f19116101665780635b2bd79e116101405780635b2bd79e146102c85780636352211e146102d057806370a08231146102e357806379cc67901461030457600080fd5b806340c10f191461028f57806342842e0e146102a25780634684d7e9146102b557600080fd5b8063095ea7b3116101a2578063095ea7b31461023e57806323b872dd146102535780632f2ff15d1461026657806331e66e1e1461027957600080fd5b806301ffc9a7146101c957806306fdde03146101f1578063081812fc14610206575b600080fd5b6101dc6101d7366004612d92565b61041f565b60405190151581526020015b60405180910390f35b6101f9610439565b6040516101e89190612e25565b610219610214366004612e38565b610450565b60405173ffffffffffffffffffffffffffffffffffffffff90911681526020016101e8565b61025161024c366004612e7a565b610464565b005b610251610261366004612ea4565b610485565b610251610274366004612ee0565b6104a9565b6102816104dd565b6040516101e8929190612f0c565b61025161029d366004612e7a565b6104f0565b6102516102b0366004612ea4565b61055c565b6102516102c3366004612f59565b61057b565b6101f96105ef565b6102196102de366004612e38565b6105fc565b6102f66102f1366004612fdf565b610610565b6040519081526020016101e8565b610251610312366004612e7a565b610624565b610251610325366004613043565b610641565b610251610338366004613085565b610668565b61025161034b366004612e38565b6106ea565b610219610708565b6101dc610366366004612ee0565b61072f565b6101f961077a565b6102516103813660046130ed565b61078c565b610251610394366004613153565b6107a9565b6101f96103a7366004612e38565b6107ca565b6102f67f6d696e746572000000000000000000000000000000000000000000000000000081565b6102516103e1366004612ee0565b6107eb565b6101dc6103f436600461324d565b610819565b610251610407366004612f59565b610860565b61025161041a366004612fdf565b6108b1565b60006104338261042d610a44565b90610d0f565b92915050565b606061044b610446610c88565b610dcd565b905090565b60006104338261045e6108cc565b90610e63565b61048161046f610f46565b83836104796108cc565b929190610f50565b5050565b6104a4610490610f46565b84848461049b6108cc565b9392919061120c565b505050565b60006104b3610f46565b90506104c7816104c1610964565b90611232565b6104a48383836104d56112b5565b9291906112e3565b3660006104e86113b9565b915091509091565b61052b7f6d696e746572000000000000000000000000000000000000000000000000000061051c610f46565b6105246112b5565b91906113c4565b610481610536610f46565b83836040518060200160405280600081525060006105526108cc565b9493929190611470565b6104a4610567610f46565b8484846105726108cc565b93929190611616565b6105a77f6d696e746572000000000000000000000000000000000000000000000000000061051c610f46565b6104a4838383808060200260200160405190810160405280939291908181526020018383602002808284376000920191909152506105e892506108cc915050565b9190611635565b606061044b610446610b67565b60006104338261060a6108cc565b90611818565b60006104338261061e6108cc565b906118a6565b61048161062f610f46565b83836106396108cc565b929190611952565b61065461064c610f46565b6104c1610964565b6104818282610661610b67565b91906119bc565b6106947f6d696e746572000000000000000000000000000000000000000000000000000061051c610f46565b6106e461069f610f46565b858585858080601f0160208091040260200160405190810160405280939291908181526020018383808284376000920191909152506001925061055291506108cc9050565b50505050565b6107056106f5610f46565b826106fe6112b5565b9190611a0d565b50565b600061044b610715610964565b5473ffffffffffffffffffffffffffffffffffffffff1690565b6000610773838361073e6112b5565b60009283526020908152604080842073ffffffffffffffffffffffffffffffffffffffff909316845291905290205460ff1690565b9392505050565b606061044b610787610c88565b611ab1565b610481610797610f46565b83836107a16108cc565b929190611ac2565b6106e46107b4610f46565b858585856107c06108cc565b9493929190611bee565b60606107d88261060a6108cc565b50610433826107e5610b67565b90611bfe565b60006107f5610f46565b9050610803816104c1610964565b6104a48383836108116112b5565b929190611c32565b600061077383836108286108cc565b73ffffffffffffffffffffffffffffffffffffffff928316600090815260209182526040808220939094168152919052205460ff1690565b6104a461086b610f46565b848484808060200260200160405190810160405280939291908181526020018383602002808284376000920191909152506108a992506108cc915050565b929190611cfc565b6107056108bc610f46565b826108c5610964565b9190611dde565b60008061043360017fddf3ee18ae6d688373c219468f8be446e7ae82215f4779d821c7ea5e8c13c0c16132a6565b61092f61092860017ffddcdbf8ca7eb362a678daf3643ce3cf98ebf69ac314d25d376d5aeabd2f53326132a6565b6001610c18565b6107057f80ac58cd00000000000000000000000000000000000000000000000000000000600161095d610a44565b9190610a72565b60008061043360017fc9ed16f33ab3a66c84bfd83099ccb2a8845871e2e1c1928f63797152f0fd54cd6132a6565b73ffffffffffffffffffffffffffffffffffffffff811615610a1a5781547fffffffffffffffffffffffff00000000000000000000000000000000000000001673ffffffffffffffffffffffffffffffffffffffff821690811783556040516000907f8be0079c531659141344cd1fd0a4f28419497f9722a3daafe3b4186f6b6457e0908290a35b6104817f7f5828d000000000000000000000000000000000000000000000000000000000600161095d5b60008061043360017fca9d3e17f264b0f3984e2634e94adb37fa3e6a8103f06aeae6fa59e21c769f5e6132a6565b7fffffffff000000000000000000000000000000000000000000000000000000008083169003610b03576040517f08c379a000000000000000000000000000000000000000000000000000000000815260206004820152601f60248201527f496e74657266616365446574656374696f6e3a2077726f6e672076616c75650060448201526064015b60405180910390fd5b7fffffffff00000000000000000000000000000000000000000000000000000000919091166000908152602092909252604090912080547fffffffffffffffffffffffffffffffffffffffffffffffffffffffffffffff0016911515919091179055565b60008061043360017f5f5773833f4966721eb3773ed87c7208ea74d78f0d94de1d8074345cac67333f6132a6565b610bc361092860017fdf2ee7965c9504dc84db8f7759fc283282800c5a2fa3704c9f07f446b3b40a3f6132a6565b610bd78383610bd0610c88565b9190610cb6565b8051610be99085906020840190612c39565b506106e47f5b5e139f00000000000000000000000000000000000000000000000000000000600161095d610a44565b815482908211610c84576040517f08c379a000000000000000000000000000000000000000000000000000000000815260206004820152601860248201527f53746f726167653a2076657273696f6e207265616368656400000000000000006044820152606401610afa565b5550565b60008061043360017f9c4269c0f9f430d98876ffe9767fbf3f3232ea91a549beb549e5329532520eb36132a6565b610ce461092860017fa057eeb6560fae2987973d3bf40b89e6da66dd0b6aadac05dc6b5b0d7a8d45576132a6565b8151610cf69084906020850190612c39565b5080516106e49060018501906020840190612c39565b90565b60007fffffffff000000000000000000000000000000000000000000000000000000008083169003610d4357506000610433565b7ffe003659000000000000000000000000000000000000000000000000000000007fffffffff00000000000000000000000000000000000000000000000000000000831601610d9457506001610433565b507fffffffff00000000000000000000000000000000000000000000000000000000166000908152602091909152604090205460ff1690565b6060816000018054610dde906132bd565b80601f0160208091040260200160405190810160405280929190818152602001828054610e0a906132bd565b8015610e575780601f10610e2c57610100808354040283529160200191610e57565b820191906000526020600020905b815481529060010190602001808311610e3a57829003601f168201915b50505050509050919050565b600081815260018301602052604081205473ffffffffffffffffffffffffffffffffffffffff8116610ef1576040517f08c379a000000000000000000000000000000000000000000000000000000000815260206004820152601860248201527f4552433732313a206e6f6e2d6578697374696e67204e465400000000000000006044820152606401610afa565b74010000000000000000000000000000000000000000811615610f3c575050600081815260038301602052604090205473ffffffffffffffffffffffffffffffffffffffff16610433565b6000915050610433565b600061044b611f0a565b600081815260018501602052604081205490819003610fcb576040517f08c379a000000000000000000000000000000000000000000000000000000000815260206004820152601860248201527f4552433732313a206e6f6e2d6578697374696e67204e465400000000000000006044820152606401610afa565b8073ffffffffffffffffffffffffffffffffffffffff8082169085160361104e576040517f08c379a000000000000000000000000000000000000000000000000000000000815260206004820152601560248201527f4552433732313a2073656c662d617070726f76616c00000000000000000000006044820152606401610afa565b611059868287612062565b6110bf576040517f08c379a000000000000000000000000000000000000000000000000000000000815260206004820152601b60248201527f4552433732313a206e6f6e2d617070726f7665642073656e64657200000000006044820152606401610afa565b73ffffffffffffffffffffffffffffffffffffffff84166111265774010000000000000000000000000000000000000000821615611121576000838152600187016020526040902073ffffffffffffffffffffffffffffffffffffffff821690555b6111a9565b74010000000000000000000000000000000000000000821780831461115957600084815260018801602052604090208190555b506000838152600387016020526040902080547fffffffffffffffffffffffff00000000000000000000000000000000000000001673ffffffffffffffffffffffffffffffffffffffff86161790555b828473ffffffffffffffffffffffffffffffffffffffff168273ffffffffffffffffffffffffffffffffffffffff167f8c5be1e5ebec7d5bd14f71427d1e84f3dd0314c0f7b2291e5b200ac8c7c3b92560405160405180910390a4505050505050565b61122b85858585856040518060200160405280600081525060006120d6565b5050505050565b815473ffffffffffffffffffffffffffffffffffffffff828116911614610481576040517f08c379a000000000000000000000000000000000000000000000000000000000815260206004820152601860248201527f4f776e6572736869703a206e6f7420746865206f776e657200000000000000006044820152606401610afa565b60008061043360017fc8827d3282af6f37b64c3e9e6f3ac9df286ab0bb0fccd6f8661bf19adb368b236132a6565b60008381526020858152604080832073ffffffffffffffffffffffffffffffffffffffff8616845290915290205460ff166106e45760008381526020858152604080832073ffffffffffffffffffffffffffffffffffffffff8681168086529184529382902080547fffffffffffffffffffffffffffffffffffffffffffffffffffffffffffffff00166001179055815187815292830152918316918101919091527f2f8788117e7eff1d82e926ec794901d17c78024a50270940304540a733656f0d906060015b60405180910390a150505050565b3660006104e861220c565b60008281526020848152604080832073ffffffffffffffffffffffffffffffffffffffff8516845290915290205460ff166104a45761140282612390565b6040516020016114129190613326565b604080517fffffffffffffffffffffffffffffffffffffffffffffffffffffffffffffffe0818403018152908290527f08c379a0000000000000000000000000000000000000000000000000000000008252610afa91600401612e25565b73ffffffffffffffffffffffffffffffffffffffff84166114ed576040517f08c379a000000000000000000000000000000000000000000000000000000000815260206004820152601460248201527f4552433732313a206d696e7420746f207a65726f0000000000000000000000006044820152606401610afa565b60008381526001870160205260409020547f215300000000000000000000000000000000000000000000000000000000000001611586576040517f08c379a000000000000000000000000000000000000000000000000000000000815260206004820152601160248201527f4552433732313a206275726e74204e46540000000000000000000000000000006044820152606401610afa565b611593868585600061251a565b604051839073ffffffffffffffffffffffffffffffffffffffff8616906000907fddf252ad1be2c89b69c2b068fc378daa952ba7f163c4a11628f55a4df523b3ef908290a48080156115fb575073ffffffffffffffffffffffffffffffffffffffff84163b15155b1561160e5761160e8560008686866125f3565b505050505050565b61122b85858585856040518060200160405280600081525060016120d6565b73ffffffffffffffffffffffffffffffffffffffff82166116b2576040517f08c379a000000000000000000000000000000000000000000000000000000000815260206004820152601460248201527f4552433732313a206d696e7420746f207a65726f0000000000000000000000006044820152606401610afa565b805160005b8181146117d55760008382815181106116d2576116d2613392565b602002602001015190507fdead000000000000000000000000000000000000000000000000000000000000866001016000838152602001908152602001600020540361177a576040517f08c379a000000000000000000000000000000000000000000000000000000000815260206004820152601160248201527f4552433732313a206275726e74204e46540000000000000000000000000000006044820152606401610afa565b611787868683600161251a565b604051819073ffffffffffffffffffffffffffffffffffffffff8716906000907fddf252ad1be2c89b69c2b068fc378daa952ba7f163c4a11628f55a4df523b3ef908290a4506001016116b7565b5073ffffffffffffffffffffffffffffffffffffffff831660009081526002850160205260408120805483929061180d9084906133c1565b909155505050505050565b600081815260018301602052604081205473ffffffffffffffffffffffffffffffffffffffff8116610773576040517f08c379a000000000000000000000000000000000000000000000000000000000815260206004820152601860248201527f4552433732313a206e6f6e2d6578697374696e67204e465400000000000000006044820152606401610afa565b600073ffffffffffffffffffffffffffffffffffffffff8216611925576040517f08c379a000000000000000000000000000000000000000000000000000000000815260206004820152601460248201527f4552433732313a207a65726f20616464726573730000000000000000000000006044820152606401610afa565b5073ffffffffffffffffffffffffffffffffffffffff166000908152600291909101602052604090205490565b600061195f858486612062565b905061197085858585856000612719565b604051829060009073ffffffffffffffffffffffffffffffffffffffff8616907fddf252ad1be2c89b69c2b068fc378daa952ba7f163c4a11628f55a4df523b3ef908390a45050505050565b6119c7838383612cbd565b5081816040516119d89291906133d9565b604051908190038120907f04b1dc5c136a3ce9fded8db0ce3d3366c58764ec3a8e4c2b9e52e4ddfe5ebbf790600090a2505050565b611a188382846113c4565b60008181526020848152604080832073ffffffffffffffffffffffffffffffffffffffff86168085529083529281902080547fffffffffffffffffffffffffffffffffffffffffffffffffffffffffffffff0016905580518481529182018390528101919091527ff6391f5c32d9c69d2a47ea670b442974b53935d1edc7fd64eb21e047a839171b9060600160405180910390a1505050565b6060816001018054610dde906132bd565b8273ffffffffffffffffffffffffffffffffffffffff168273ffffffffffffffffffffffffffffffffffffffff1603611b57576040517f08c379a000000000000000000000000000000000000000000000000000000000815260206004820152601560248201527f4552433732313a2073656c662d617070726f76616c00000000000000000000006044820152606401610afa565b73ffffffffffffffffffffffffffffffffffffffff8381166000818152602087815260408083209487168084529482529182902080547fffffffffffffffffffffffffffffffffffffffffffffffffffffffffffffff001686151590811790915591519182527f17307eab39ab6107e8899845ad3d59bd9653f200f220920489ca2b5937696c31910160405180910390a350505050565b61160e86868686868660016120d6565b606082611c0a836128f4565b604051602001611c1b9291906133e9565b604051602081830303815290604052905092915050565b60008381526020858152604080832073ffffffffffffffffffffffffffffffffffffffff8616845290915290205460ff16156106e45760008381526020858152604080832073ffffffffffffffffffffffffffffffffffffffff8681168086529184529382902080547fffffffffffffffffffffffffffffffffffffffffffffffffffffffffffffff00169055815187815292830152918316918101919091527ff6391f5c32d9c69d2a47ea670b442974b53935d1edc7fd64eb21e047a839171b906060016113ab565b6000611d09858486612062565b825190915060005b818114611d93576000848281518110611d2c57611d2c613392565b60200260200101519050611d4588888884886001612719565b604051819060009073ffffffffffffffffffffffffffffffffffffffff8916907fddf252ad1be2c89b69c2b068fc378daa952ba7f163c4a11628f55a4df523b3ef908390a450600101611d11565b50801561160e5773ffffffffffffffffffffffffffffffffffffffff8416600090815260028701602052604081208054839290611dd19084906132a6565b9091555050505050505050565b825473ffffffffffffffffffffffffffffffffffffffff9081169083168114611e63576040517f08c379a000000000000000000000000000000000000000000000000000000000815260206004820152601860248201527f4f776e6572736869703a206e6f7420746865206f776e657200000000000000006044820152606401610afa565b8173ffffffffffffffffffffffffffffffffffffffff168173ffffffffffffffffffffffffffffffffffffffff16146106e45783547fffffffffffffffffffffffff00000000000000000000000000000000000000001673ffffffffffffffffffffffffffffffffffffffff8381169182178655604051908316907f8be0079c531659141344cd1fd0a4f28419497f9722a3daafe3b4186f6b6457e090600090a350505050565b600033328103611f1957919050565b6000367fffffffffffffffffffffffffffffffffffffffffffffffffffffffffffffffec013560601c90507f000000000000000000000000000000000000000000000000000000000000000073ffffffffffffffffffffffffffffffffffffffff168273ffffffffffffffffffffffffffffffffffffffff16148061205157506040517fe60125d600000000000000000000000000000000000000000000000000000000815273ffffffffffffffffffffffffffffffffffffffff828116600483015283811660248301527f0000000000000000000000000000000000000000000000000000000000000000169063e60125d690604401602060405180830381865afa15801561202d573d6000803e3d6000fd5b505050506040513d601f19601f8201168201806040525081019061205191906134c6565b1561205c5792915050565b50919050565b60008173ffffffffffffffffffffffffffffffffffffffff168373ffffffffffffffffffffffffffffffffffffffff1614806120ce575073ffffffffffffffffffffffffffffffffffffffff8084166000908152602086815260408083209386168352929052205460ff165b949350505050565b73ffffffffffffffffffffffffffffffffffffffff8416612153576040517f08c379a000000000000000000000000000000000000000000000000000000000815260206004820152601860248201527f4552433732313a207472616e7366657220746f207a65726f00000000000000006044820152606401610afa565b6000612160888789612062565b90506121728888888888866000612a1f565b838573ffffffffffffffffffffffffffffffffffffffff168773ffffffffffffffffffffffffffffffffffffffff167fddf252ad1be2c89b69c2b068fc378daa952ba7f163c4a11628f55a4df523b3ef60405160405180910390a48180156121f0575073ffffffffffffffffffffffffffffffffffffffff85163b15155b156122025761220287878787876125f3565b5050505050505050565b3660003332810361222257506000923692509050565b7f000000000000000000000000000000000000000000000000000000000000000073ffffffffffffffffffffffffffffffffffffffff168173ffffffffffffffffffffffffffffffffffffffff16148061236f575073ffffffffffffffffffffffffffffffffffffffff7f00000000000000000000000000000000000000000000000000000000000000001663e60125d6367fffffffffffffffffffffffffffffffffffffffffffffffffffffffffffffffec013560601c6040517fffffffff0000000000000000000000000000000000000000000000000000000060e084901b16815273ffffffffffffffffffffffffffffffffffffffff91821660048201529084166024820152604401602060405180830381865afa15801561234b573d6000803e3d6000fd5b505050506040513d601f19601f8201168201806040525081019061236f91906134c6565b156123855761237c612ba6565b92509250509091565b506000923692509050565b606060008290036123af57505060408051602081019091526000815290565b6000826040516020016123c491815260200190565b604080517fffffffffffffffffffffffffffffffffffffffffffffffffffffffffffffffe08184030181529190529050601f5b81818151811061240957612409613392565b01602001517fff000000000000000000000000000000000000000000000000000000000000001660000361244757612440816134e3565b90506123f7565b60006124548260016133c1565b67ffffffffffffffff81111561246c5761246c613124565b6040519080825280601f01601f191660200182016040528015612496576020820181803683370190505b50905060005b828111612511578381815181106124b5576124b5613392565b602001015160f81c60f81b8282815181106124d2576124d2613392565b60200101907effffffffffffffffffffffffffffffffffffffffffffffffffffffffffffff1916908160001a90535061250a81613518565b905061249c565b50949350505050565b600082815260018501602052604090205415612592576040517f08c379a000000000000000000000000000000000000000000000000000000000815260206004820152601a60248201527f4552433732313a206578697374696e672f6275726e74204e46540000000000006044820152606401610afa565b6000828152600185016020526040902073ffffffffffffffffffffffffffffffffffffffff84169055806106e457505073ffffffffffffffffffffffffffffffffffffffff1660009081526002919091016020526040902080546001019055565b6040517f150b7a02000000000000000000000000000000000000000000000000000000008082529073ffffffffffffffffffffffffffffffffffffffff85169063150b7a029061264d908990899088908890600401613550565b6020604051808303816000875af115801561266c573d6000803e3d6000fd5b505050506040513d601f19601f820116820180604052508101906126909190613599565b7fffffffff00000000000000000000000000000000000000000000000000000000161461122b576040517f08c379a000000000000000000000000000000000000000000000000000000000815260206004820152601860248201527f4552433732313a207472616e73666572207265667573656400000000000000006044820152606401610afa565b600083815260018701602052604090205473ffffffffffffffffffffffffffffffffffffffff858116908216146127ac576040517f08c379a000000000000000000000000000000000000000000000000000000000815260206004820152601560248201527f4552433732313a206e6f6e2d6f776e6564204e465400000000000000000000006044820152606401610afa565b8261286557740100000000000000000000000000000000000000008116158015906127ff5750600084815260038801602052604090205473ffffffffffffffffffffffffffffffffffffffff8781169116145b612865576040517f08c379a000000000000000000000000000000000000000000000000000000000815260206004820152601b60248201527f4552433732313a206e6f6e2d617070726f7665642073656e64657200000000006044820152606401610afa565b600084815260018801602052604090207fdead0000000000000000000000000000000000000000000000000000000000009055816128eb5773ffffffffffffffffffffffffffffffffffffffff85166000908152600288016020526040902080547fffffffffffffffffffffffffffffffffffffffffffffffffffffffffffffffff0190555b50505050505050565b60608160000361293757505060408051808201909152600181527f3000000000000000000000000000000000000000000000000000000000000000602082015290565b8160005b8115612961578061294b81613518565b915061295a9050600a836135b6565b915061293b565b60008167ffffffffffffffff81111561297c5761297c613124565b6040519080825280601f01601f1916602001820160405280156129a6576020820181803683370190505b50905060006129b66001846132a6565b90508593505b831561251157600a840660300160f81b828280600190039350815181106129e5576129e5613392565b60200101907effffffffffffffffffffffffffffffffffffffffffffffffffffffffffffff1916908160001a905350600a840493506129bc565b600083815260018801602052604090205473ffffffffffffffffffffffffffffffffffffffff86811690821614612ab2576040517f08c379a000000000000000000000000000000000000000000000000000000000815260206004820152601560248201527f4552433732313a206e6f6e2d6f776e6564204e465400000000000000000000006044820152606401610afa565b82612b6b5774010000000000000000000000000000000000000000811615801590612b055750600084815260038901602052604090205473ffffffffffffffffffffffffffffffffffffffff8881169116145b612b6b576040517f08c379a000000000000000000000000000000000000000000000000000000000815260206004820152601b60248201527f4552433732313a206e6f6e2d617070726f7665642073656e64657200000000006044820152606401610afa565b6000848152600189016020526040902073ffffffffffffffffffffffffffffffffffffffff8616905581612202576122028887876001612bc4565b366000808083612bb76014826132a6565b926104e8939291906135f1565b8173ffffffffffffffffffffffffffffffffffffffff168373ffffffffffffffffffffffffffffffffffffffff16146106e45773ffffffffffffffffffffffffffffffffffffffff80841660009081526002860160205260408082208054859003905591841681522080548201905550505050565b828054612c45906132bd565b90600052602060002090601f016020900481019282612c675760008555612cad565b82601f10612c8057805160ff1916838001178555612cad565b82800160010185558215612cad579182015b82811115612cad578251825591602001919060010190612c92565b50612cb9929150612d4f565b5090565b828054612cc9906132bd565b90600052602060002090601f016020900481019282612ceb5760008555612cad565b82601f10612d22578280017fffffffffffffffffffffffffffffffffffffffffffffffffffffffffffffff00823516178555612cad565b82800160010185558215612cad579182015b82811115612cad578235825591602001919060010190612d34565b5b80821115612cb95760008155600101612d50565b7fffffffff000000000000000000000000000000000000000000000000000000008116811461070557600080fd5b600060208284031215612da457600080fd5b813561077381612d64565b60005b83811015612dca578181015183820152602001612db2565b838111156106e45750506000910152565b60008151808452612df3816020860160208601612daf565b601f017fffffffffffffffffffffffffffffffffffffffffffffffffffffffffffffffe0169290920160200192915050565b6020815260006107736020830184612ddb565b600060208284031215612e4a57600080fd5b5035919050565b803573ffffffffffffffffffffffffffffffffffffffff81168114612e7557600080fd5b919050565b60008060408385031215612e8d57600080fd5b612e9683612e51565b946020939093013593505050565b600080600060608486031215612eb957600080fd5b612ec284612e51565b9250612ed060208501612e51565b9150604084013590509250925092565b60008060408385031215612ef357600080fd5b82359150612f0360208401612e51565b90509250929050565b60208152816020820152818360408301376000818301604090810191909152601f9092017fffffffffffffffffffffffffffffffffffffffffffffffffffffffffffffffe0160101919050565b600080600060408486031215612f6e57600080fd5b612f7784612e51565b9250602084013567ffffffffffffffff80821115612f9457600080fd5b818601915086601f830112612fa857600080fd5b813581811115612fb757600080fd5b8760208260051b8501011115612fcc57600080fd5b6020830194508093505050509250925092565b600060208284031215612ff157600080fd5b61077382612e51565b60008083601f84011261300c57600080fd5b50813567ffffffffffffffff81111561302457600080fd5b60208301915083602082850101111561303c57600080fd5b9250929050565b6000806020838503121561305657600080fd5b823567ffffffffffffffff81111561306d57600080fd5b61307985828601612ffa565b90969095509350505050565b6000806000806060858703121561309b57600080fd5b6130a485612e51565b935060208501359250604085013567ffffffffffffffff8111156130c757600080fd5b6130d387828801612ffa565b95989497509550505050565b801515811461070557600080fd5b6000806040838503121561310057600080fd5b61310983612e51565b91506020830135613119816130df565b809150509250929050565b7f4e487b7100000000000000000000000000000000000000000000000000000000600052604160045260246000fd5b6000806000806080858703121561316957600080fd5b61317285612e51565b935061318060208601612e51565b925060408501359150606085013567ffffffffffffffff808211156131a457600080fd5b818701915087601f8301126131b857600080fd5b8135818111156131ca576131ca613124565b604051601f82017fffffffffffffffffffffffffffffffffffffffffffffffffffffffffffffffe0908116603f0116810190838211818310171561321057613210613124565b816040528281528a602084870101111561322957600080fd5b82602086016020830137600060208483010152809550505050505092959194509250565b6000806040838503121561326057600080fd5b61326983612e51565b9150612f0360208401612e51565b7f4e487b7100000000000000000000000000000000000000000000000000000000600052601160045260246000fd5b6000828210156132b8576132b8613277565b500390565b600181811c908216806132d157607f821691505b60208210810361205c577f4e487b7100000000000000000000000000000000000000000000000000000000600052602260045260246000fd5b6000815161331c818560208601612daf565b9290920192915050565b7f416363657373436f6e74726f6c3a206d697373696e672027000000000000000081526000825161335e816018850160208701612daf565b7f2720726f6c6500000000000000000000000000000000000000000000000000006018939091019283015250601e01919050565b7f4e487b7100000000000000000000000000000000000000000000000000000000600052603260045260246000fd5b600082198211156133d4576133d4613277565b500190565b8183823760009101908152919050565b600080845481600182811c91508083168061340557607f831692505b6020808410820361343d577f4e487b710000000000000000000000000000000000000000000000000000000086526022600452602486fd5b8180156134515760018114613480576134ad565b7fffffffffffffffffffffffffffffffffffffffffffffffffffffffffffffff008616895284890196506134ad565b60008b81526020902060005b868110156134a55781548b82015290850190830161348c565b505084890196505b5050505050506134bd818561330a565b95945050505050565b6000602082840312156134d857600080fd5b8151610773816130df565b6000816134f2576134f2613277565b507fffffffffffffffffffffffffffffffffffffffffffffffffffffffffffffffff0190565b60007fffffffffffffffffffffffffffffffffffffffffffffffffffffffffffffffff820361354957613549613277565b5060010190565b600073ffffffffffffffffffffffffffffffffffffffff80871683528086166020840152508360408301526080606083015261358f6080830184612ddb565b9695505050505050565b6000602082840312156135ab57600080fd5b815161077381612d64565b6000826135ec577f4e487b7100000000000000000000000000000000000000000000000000000000600052601260045260246000fd5b500490565b6000808585111561360157600080fd5b8386111561360e57600080fd5b505082019391909203915056fea2646970667358221220347d994edf1bf403fb5e03ed3b72cb4693af2f76a08589e101ee9b29085e1a5764736f6c634300080e0033",
  "linkReferences": {},
  "deployedLinkReferences": {}
}