{
  "_format": "hh-sol-artifact-1",
  "contractName": "ERC721MintableOnceMock",
  "sourceName": "contracts/mocks/token/ERC721/ERC721MintableOnceMock.sol",
  "abi": [
    {
      "inputs": [
        {
          "internalType": "contract IForwarderRegistry",
          "name": "forwarderRegistry",
          "type": "address"
        }
      ],
      "stateMutability": "nonpayable",
      "type": "constructor"
    },
    {
      "anonymous": false,
      "inputs": [
        {
          "indexed": true,
          "internalType": "address",
          "name": "owner",
          "type": "address"
        },
        {
          "indexed": true,
          "internalType": "address",
          "name": "approved",
          "type": "address"
        },
        {
          "indexed": true,
          "internalType": "uint256",
          "name": "tokenId",
          "type": "uint256"
        }
      ],
      "name": "Approval",
      "type": "event"
    },
    {
      "anonymous": false,
      "inputs": [
        {
          "indexed": true,
          "internalType": "address",
          "name": "owner",
          "type": "address"
        },
        {
          "indexed": true,
          "internalType": "address",
          "name": "operator",
          "type": "address"
        },
        {
          "indexed": false,
          "internalType": "bool",
          "name": "approved",
          "type": "bool"
        }
      ],
      "name": "ApprovalForAll",
      "type": "event"
    },
    {
      "anonymous": false,
      "inputs": [
        {
          "indexed": true,
          "internalType": "address",
          "name": "previousOwner",
          "type": "address"
        },
        {
          "indexed": true,
          "internalType": "address",
          "name": "newOwner",
          "type": "address"
        }
      ],
      "name": "OwnershipTransferred",
      "type": "event"
    },
    {
      "anonymous": false,
      "inputs": [
        {
          "indexed": false,
          "internalType": "bytes32",
          "name": "role",
          "type": "bytes32"
        },
        {
          "indexed": false,
          "internalType": "address",
          "name": "account",
          "type": "address"
        },
        {
          "indexed": false,
          "internalType": "address",
          "name": "operator",
          "type": "address"
        }
      ],
      "name": "RoleGranted",
      "type": "event"
    },
    {
      "anonymous": false,
      "inputs": [
        {
          "indexed": false,
          "internalType": "bytes32",
          "name": "role",
          "type": "bytes32"
        },
        {
          "indexed": false,
          "internalType": "address",
          "name": "account",
          "type": "address"
        },
        {
          "indexed": false,
          "internalType": "address",
          "name": "operator",
          "type": "address"
        }
      ],
      "name": "RoleRevoked",
      "type": "event"
    },
    {
      "anonymous": false,
      "inputs": [
        {
          "indexed": true,
          "internalType": "address",
          "name": "from",
          "type": "address"
        },
        {
          "indexed": true,
          "internalType": "address",
          "name": "to",
          "type": "address"
        },
        {
          "indexed": true,
          "internalType": "uint256",
          "name": "tokenId",
          "type": "uint256"
        }
      ],
      "name": "Transfer",
      "type": "event"
    },
    {
      "inputs": [],
      "name": "MINTER_ROLE",
      "outputs": [
        {
          "internalType": "bytes32",
          "name": "",
          "type": "bytes32"
        }
      ],
      "stateMutability": "view",
      "type": "function"
    },
    {
      "inputs": [],
      "name": "__msgData",
      "outputs": [
        {
          "internalType": "bytes",
          "name": "",
          "type": "bytes"
        }
      ],
      "stateMutability": "view",
      "type": "function"
    },
    {
      "inputs": [
        {
          "internalType": "address",
          "name": "to",
          "type": "address"
        },
        {
          "internalType": "uint256",
          "name": "tokenId",
          "type": "uint256"
        }
      ],
      "name": "approve",
      "outputs": [],
      "stateMutability": "nonpayable",
      "type": "function"
    },
    {
      "inputs": [
        {
          "internalType": "address",
          "name": "owner",
          "type": "address"
        }
      ],
      "name": "balanceOf",
      "outputs": [
        {
          "internalType": "uint256",
          "name": "balance",
          "type": "uint256"
        }
      ],
      "stateMutability": "view",
      "type": "function"
    },
    {
      "inputs": [
        {
          "internalType": "address",
          "name": "from",
          "type": "address"
        },
        {
          "internalType": "uint256[]",
          "name": "tokenIds",
          "type": "uint256[]"
        }
      ],
      "name": "batchBurnFrom",
      "outputs": [],
      "stateMutability": "nonpayable",
      "type": "function"
    },
    {
      "inputs": [
        {
          "internalType": "address",
          "name": "to",
          "type": "address"
        },
        {
          "internalType": "uint256[]",
          "name": "tokenIds",
          "type": "uint256[]"
        }
      ],
      "name": "batchMint",
      "outputs": [],
      "stateMutability": "nonpayable",
      "type": "function"
    },
    {
      "inputs": [
        {
          "internalType": "address",
          "name": "from",
          "type": "address"
        },
        {
          "internalType": "uint256",
          "name": "tokenId",
          "type": "uint256"
        }
      ],
      "name": "burnFrom",
      "outputs": [],
      "stateMutability": "nonpayable",
      "type": "function"
    },
    {
      "inputs": [
        {
          "internalType": "address[]",
          "name": "recipients",
          "type": "address[]"
        },
        {
          "internalType": "uint256[]",
          "name": "tokenIds",
          "type": "uint256[]"
        }
      ],
      "name": "deliver",
      "outputs": [],
      "stateMutability": "nonpayable",
      "type": "function"
    },
    {
      "inputs": [],
      "name": "forwarderRegistry",
      "outputs": [
        {
          "internalType": "contract IForwarderRegistry",
          "name": "",
          "type": "address"
        }
      ],
      "stateMutability": "view",
      "type": "function"
    },
    {
      "inputs": [
        {
          "internalType": "uint256",
          "name": "tokenId",
          "type": "uint256"
        }
      ],
      "name": "getApproved",
      "outputs": [
        {
          "internalType": "address",
          "name": "approved",
          "type": "address"
        }
      ],
      "stateMutability": "view",
      "type": "function"
    },
    {
      "inputs": [
        {
          "internalType": "bytes32",
          "name": "role",
          "type": "bytes32"
        },
        {
          "internalType": "address",
          "name": "account",
          "type": "address"
        }
      ],
      "name": "grantRole",
      "outputs": [],
      "stateMutability": "nonpayable",
      "type": "function"
    },
    {
      "inputs": [
        {
          "internalType": "bytes32",
          "name": "role",
          "type": "bytes32"
        },
        {
          "internalType": "address",
          "name": "account",
          "type": "address"
        }
      ],
      "name": "hasRole",
      "outputs": [
        {
          "internalType": "bool",
          "name": "",
          "type": "bool"
        }
      ],
      "stateMutability": "view",
      "type": "function"
    },
    {
      "inputs": [
        {
          "internalType": "address",
          "name": "owner",
          "type": "address"
        },
        {
          "internalType": "address",
          "name": "operator",
          "type": "address"
        }
      ],
      "name": "isApprovedForAll",
      "outputs": [
        {
          "internalType": "bool",
          "name": "approvedForAll",
          "type": "bool"
        }
      ],
      "stateMutability": "view",
      "type": "function"
    },
    {
      "inputs": [
        {
          "internalType": "address",
          "name": "forwarder",
          "type": "address"
        }
      ],
      "name": "isTrustedForwarder",
      "outputs": [
        {
          "internalType": "bool",
          "name": "",
          "type": "bool"
        }
      ],
      "stateMutability": "view",
      "type": "function"
    },
    {
      "inputs": [
        {
          "internalType": "address",
          "name": "to",
          "type": "address"
        },
        {
          "internalType": "uint256",
          "name": "tokenId",
          "type": "uint256"
        }
      ],
      "name": "mint",
      "outputs": [],
      "stateMutability": "nonpayable",
      "type": "function"
    },
    {
      "inputs": [],
      "name": "owner",
      "outputs": [
        {
          "internalType": "address",
          "name": "",
          "type": "address"
        }
      ],
      "stateMutability": "view",
      "type": "function"
    },
    {
      "inputs": [
        {
          "internalType": "uint256",
          "name": "tokenId",
          "type": "uint256"
        }
      ],
      "name": "ownerOf",
      "outputs": [
        {
          "internalType": "address",
          "name": "tokenOwner",
          "type": "address"
        }
      ],
      "stateMutability": "view",
      "type": "function"
    },
    {
      "inputs": [
        {
          "internalType": "bytes32",
          "name": "role",
          "type": "bytes32"
        }
      ],
      "name": "renounceRole",
      "outputs": [],
      "stateMutability": "nonpayable",
      "type": "function"
    },
    {
      "inputs": [
        {
          "internalType": "bytes32",
          "name": "role",
          "type": "bytes32"
        },
        {
          "internalType": "address",
          "name": "account",
          "type": "address"
        }
      ],
      "name": "revokeRole",
      "outputs": [],
      "stateMutability": "nonpayable",
      "type": "function"
    },
    {
      "inputs": [
        {
          "internalType": "address",
          "name": "to",
          "type": "address"
        },
        {
          "internalType": "uint256",
          "name": "tokenId",
          "type": "uint256"
        },
        {
          "internalType": "bytes",
          "name": "data",
          "type": "bytes"
        }
      ],
      "name": "safeMint",
      "outputs": [],
      "stateMutability": "nonpayable",
      "type": "function"
    },
    {
      "inputs": [
        {
          "internalType": "address",
          "name": "from",
          "type": "address"
        },
        {
          "internalType": "address",
          "name": "to",
          "type": "address"
        },
        {
          "internalType": "uint256",
          "name": "tokenId",
          "type": "uint256"
        }
      ],
      "name": "safeTransferFrom",
      "outputs": [],
      "stateMutability": "nonpayable",
      "type": "function"
    },
    {
      "inputs": [
        {
          "internalType": "address",
          "name": "from",
          "type": "address"
        },
        {
          "internalType": "address",
          "name": "to",
          "type": "address"
        },
        {
          "internalType": "uint256",
          "name": "tokenId",
          "type": "uint256"
        },
        {
          "internalType": "bytes",
          "name": "data",
          "type": "bytes"
        }
      ],
      "name": "safeTransferFrom",
      "outputs": [],
      "stateMutability": "nonpayable",
      "type": "function"
    },
    {
      "inputs": [
        {
          "internalType": "address",
          "name": "operator",
          "type": "address"
        },
        {
          "internalType": "bool",
          "name": "approved",
          "type": "bool"
        }
      ],
      "name": "setApprovalForAll",
      "outputs": [],
      "stateMutability": "nonpayable",
      "type": "function"
    },
    {
      "inputs": [
        {
          "internalType": "bytes4",
          "name": "interfaceId",
          "type": "bytes4"
        }
      ],
      "name": "supportsInterface",
      "outputs": [
        {
          "internalType": "bool",
          "name": "",
          "type": "bool"
        }
      ],
      "stateMutability": "view",
      "type": "function"
    },
    {
      "inputs": [
        {
          "internalType": "address",
          "name": "from",
          "type": "address"
        },
        {
          "internalType": "address",
          "name": "to",
          "type": "address"
        },
        {
          "internalType": "uint256",
          "name": "tokenId",
          "type": "uint256"
        }
      ],
      "name": "transferFrom",
      "outputs": [],
      "stateMutability": "nonpayable",
      "type": "function"
    },
    {
      "inputs": [
        {
          "internalType": "address",
          "name": "newOwner",
          "type": "address"
        }
      ],
      "name": "transferOwnership",
      "outputs": [],
      "stateMutability": "nonpayable",
      "type": "function"
    },
    {
      "inputs": [
        {
          "internalType": "uint256",
          "name": "tokenId",
          "type": "uint256"
        }
      ],
      "name": "wasBurnt",
      "outputs": [
        {
          "internalType": "bool",
          "name": "tokenWasBurnt",
          "type": "bool"
        }
      ],
      "stateMutability": "view",
      "type": "function"
    }
  ],
  "bytecode": "0x60a06040523480156200001157600080fd5b5060405162003802380380620038028339810160408190526200003491620002e6565b8080336200004c620000cf60201b620009151760201c565b6200007a81620000666200010960201b6200094c1760201c565b6200013f60201b6200097a1790919060201c565b5062000090620001bd60201b62000a301760201c565b620000a5620001e060201b62000a5e1760201c565b620000ba6200020360201b62000a8c1760201c565b6001600160a01b0316608052506200033a9050565b620001076380ac58cd60e01b6001620000f26200022660201b62000ab61760201c565b6200025660201b62000ae4179092919060201c565b565b6000806200013960017fc9ed16f33ab3a66c84bfd83099ccb2a8845871e2e1c1928f63797152f0fd54cd62000318565b92915050565b6001600160a01b03811615620001965781546001600160a01b0319166001600160a01b03821690811783556040516000907f8be0079c531659141344cd1fd0a4f28419497f9722a3daafe3b4186f6b6457e0908290a35b620001b96307f5828d60e41b6001620000f26200022660201b62000ab61760201c565b5050565b62000107638e773e1360e01b6001620000f26200022660201b62000ab61760201c565b62000107634ed2f41960e11b6001620000f26200022660201b62000ab61760201c565b62000107638b8b4ef560e01b6001620000f26200022660201b62000ab61760201c565b6000806200013960017fca9d3e17f264b0f3984e2634e94adb37fa3e6a8103f06aeae6fa59e21c769f5e62000318565b600160e01b6001600160e01b0319831601620002b85760405162461bcd60e51b815260206004820152601f60248201527f496e74657266616365446574656374696f6e3a2077726f6e672076616c756500604482015260640160405180910390fd5b6001600160e01b03199190911660009081526020929092526040909120805460ff1916911515919091179055565b600060208284031215620002f957600080fd5b81516001600160a01b03811681146200031157600080fd5b9392505050565b818103818111156200013957634e487b7160e01b600052601160045260246000fd5b6080516134896200037960003960008181610248015281816102de01528181612855015281816128dd01528181612a050152612a4301526134896000f3fe608060405234801561001057600080fd5b50600436106101b95760003560e01c806379cc6790116100f9578063b88d4fde11610097578063d547741f11610071578063d547741f14610416578063e985e9c514610429578063f24729651461043c578063f2fde38b1461044f57600080fd5b8063b88d4fde146103c9578063c77c6955146103dc578063d5391393146103ef57600080fd5b80638da5cb5b116100d35780638da5cb5b1461038857806391d14854146103905780639da5e832146103a3578063a22cb465146103b657600080fd5b806379cc67901461034f5780638832e6e3146103625780638bb9c5bf1461037557600080fd5b806331e66e1e116101665780634684d7e9116101405780634684d7e9146102bb578063572b6c05146102ce5780636352211e1461031b57806370a082311461032e57600080fd5b806331e66e1e1461027f57806340c10f191461029557806342842e0e146102a857600080fd5b806323b872dd1161019757806323b872dd146102335780632b4c9f16146102465780632f2ff15d1461026c57600080fd5b806301ffc9a7146101be578063081812fc146101e6578063095ea7b31461021e575b600080fd5b6101d16101cc366004612e4f565b610462565b60405190151581526020015b60405180910390f35b6101f96101f4366004612e6c565b61047c565b60405173ffffffffffffffffffffffffffffffffffffffff90911681526020016101dd565b61023161022c366004612eae565b610490565b005b610231610241366004612ed8565b6104b1565b7f00000000000000000000000000000000000000000000000000000000000000006101f9565b61023161027a366004612f14565b6104d5565b610287610509565b6040516101dd929190612f40565b6102316102a3366004612eae565b61051c565b6102316102b6366004612ed8565b61056b565b6102316102c9366004612fd9565b61058a565b6101d16102dc36600461302c565b7f000000000000000000000000000000000000000000000000000000000000000073ffffffffffffffffffffffffffffffffffffffff90811691161490565b6101f9610329366004612e6c565b6105fe565b61034161033c36600461302c565b610612565b6040519081526020016101dd565b61023161035d366004612eae565b610626565b610231610370366004613089565b610643565b610231610383366004612e6c565b6106cb565b6101f96106e9565b6101d161039e366004612f14565b610715565b6102316103b13660046130e3565b610760565b6102316103c4366004613151565b610804565b6102316103d7366004613188565b610821565b6101d16103ea366004612e6c565b61084b565b6103417f6d696e746572000000000000000000000000000000000000000000000000000081565b610231610424366004612f14565b61085f565b6101d16104373660046131f7565b61088d565b61023161044a366004612fd9565b6108db565b61023161045d36600461302c565b6108fa565b600061047682610470610ab6565b90610bf5565b92915050565b60006104768261048a610ccf565b90610cfd565b6104ad61049b610dde565b83836104a5610ccf565b929190610de8565b5050565b6104d06104bc610dde565b8484846104c7610ccf565b939291906110b1565b505050565b60006104df610dde565b90506104f3816104ed61094c565b90611406565b6104d0838383610501611489565b9291906114b7565b36600061051461158d565b915091509091565b6105577f6d696e7465720000000000000000000000000000000000000000000000000000610548610dde565b610550611489565b9190611598565b6104ad8282610564610ccf565b9190611644565b6104d0610576610dde565b848484610581610ccf565b93929190611846565b6105b67f6d696e7465720000000000000000000000000000000000000000000000000000610548610dde565b6104d0838383808060200260200160405190810160405280939291908181526020018383602002808284376000920191909152506105f79250610ccf915050565b919061188c565b60006104768261060c610ccf565b90611ae1565b600061047682610620610ccf565b90611b77565b6104ad610631610dde565b838361063b610ccf565b929190611c23565b61066f7f6d696e7465720000000000000000000000000000000000000000000000000000610548610dde565b6106c561067a610dde565b858585858080601f0160208091040260200160405190810160405280939291908181526020018383808284376000920191909152506106bc9250610ccf915050565b93929190611e37565b50505050565b6106e66106d6610dde565b826106df611489565b9190611e6d565b50565b60006107106106f661094c565b5473ffffffffffffffffffffffffffffffffffffffff1690565b905090565b60006107598383610724611489565b60009283526020908152604080842073ffffffffffffffffffffffffffffffffffffffff909316845291905290205460ff1690565b9392505050565b61078c7f6d696e7465720000000000000000000000000000000000000000000000000000610548610dde565b6106c5848480806020026020016040519081016040528093929190818152602001838360200280828437600092019190915250506040805160208088028281018201909352878252909350879250869182918501908490808284376000920191909152506107fd9250610ccf915050565b9190611f11565b6104ad61080f610dde565b8383610819610ccf565b9291906121eb565b61084461082c610dde565b8686868686610839610ccf565b95949392919061231b565b5050505050565b600061047682610859610ccf565b90612391565b6000610869610dde565b9050610877816104ed61094c565b6104d0838383610885611489565b9291906123c7565b6000610759838361089c610ccf565b919073ffffffffffffffffffffffffffffffffffffffff9182166000908152600393909301602090815260408085209290931684525290205460ff1690565b6104d06108e6610dde565b8484846108f1610ccf565b93929190612491565b6106e6610905610dde565b8261090e61094c565b91906126e6565b61094a7f80ac58cd000000000000000000000000000000000000000000000000000000006001610943610ab6565b9190610ae4565b565b60008061047660017fc9ed16f33ab3a66c84bfd83099ccb2a8845871e2e1c1928f63797152f0fd54cd613221565b73ffffffffffffffffffffffffffffffffffffffff811615610a025781547fffffffffffffffffffffffff00000000000000000000000000000000000000001673ffffffffffffffffffffffffffffffffffffffff821690811783556040516000907f8be0079c531659141344cd1fd0a4f28419497f9722a3daafe3b4186f6b6457e0908290a35b6104ad7f7f5828d0000000000000000000000000000000000000000000000000000000006001610943610ab6565b61094a7f8e773e13000000000000000000000000000000000000000000000000000000006001610943610ab6565b61094a7f9da5e832000000000000000000000000000000000000000000000000000000006001610943610ab6565b61094a7f8b8b4ef50000000000000000000000000000000000000000000000000000000060016109435b60008061047660017fca9d3e17f264b0f3984e2634e94adb37fa3e6a8103f06aeae6fa59e21c769f5e613221565b7c01000000000000000000000000000000000000000000000000000000007fffffffff00000000000000000000000000000000000000000000000000000000831601610b91576040517f08c379a000000000000000000000000000000000000000000000000000000000815260206004820152601f60248201527f496e74657266616365446574656374696f6e3a2077726f6e672076616c75650060448201526064015b60405180910390fd5b7fffffffff00000000000000000000000000000000000000000000000000000000919091166000908152602092909252604090912080547fffffffffffffffffffffffffffffffffffffffffffffffffffffffffffffff0016911515919091179055565b60007c01000000000000000000000000000000000000000000000000000000007fffffffff00000000000000000000000000000000000000000000000000000000831601610c4557506000610476565b7ffe003659000000000000000000000000000000000000000000000000000000007fffffffff00000000000000000000000000000000000000000000000000000000831601610c9657506001610476565b507fffffffff00000000000000000000000000000000000000000000000000000000166000908152602091909152604090205460ff1690565b60008061047660017fddf3ee18ae6d688373c219468f8be446e7ae82215f4779d821c7ea5e8c13c0c1613221565b60008181526020839052604081205473ffffffffffffffffffffffffffffffffffffffff8116610d89576040517f08c379a000000000000000000000000000000000000000000000000000000000815260206004820152601a60248201527f4552433732313a206e6f6e2d6578697374696e6720746f6b656e0000000000006044820152606401610b88565b74010000000000000000000000000000000000000000811615610dd4575050600081815260028301602052604090205473ffffffffffffffffffffffffffffffffffffffff16610476565b6000915050610476565b6000610710612812565b60008181526020859052604090205473ffffffffffffffffffffffffffffffffffffffff8116610e74576040517f08c379a000000000000000000000000000000000000000000000000000000000815260206004820152601a60248201527f4552433732313a206e6f6e2d6578697374696e6720746f6b656e0000000000006044820152606401610b88565b8073ffffffffffffffffffffffffffffffffffffffff80821690851603610ef7576040517f08c379a000000000000000000000000000000000000000000000000000000000815260206004820152601560248201527f4552433732313a2073656c662d617070726f76616c00000000000000000000006044820152606401610b88565b610f02868287612959565b610f68576040517f08c379a000000000000000000000000000000000000000000000000000000000815260206004820152601b60248201527f4552433732313a206e6f6e2d617070726f7665642073656e64657200000000006044820152606401610b88565b73ffffffffffffffffffffffffffffffffffffffff8416610fcd5774010000000000000000000000000000000000000000821615610fc857600083815260208790526040902073ffffffffffffffffffffffffffffffffffffffff821690555b61104e565b740100000000000000000000000000000000000000008217808314610ffe5760008481526020889052604090208190555b506000838152600287016020526040902080547fffffffffffffffffffffffff00000000000000000000000000000000000000001673ffffffffffffffffffffffffffffffffffffffff86161790555b828473ffffffffffffffffffffffffffffffffffffffff168273ffffffffffffffffffffffffffffffffffffffff167f8c5be1e5ebec7d5bd14f71427d1e84f3dd0314c0f7b2291e5b200ac8c7c3b92560405160405180910390a4505050505050565b73ffffffffffffffffffffffffffffffffffffffff821661112e576040517f08c379a000000000000000000000000000000000000000000000000000000000815260206004820152601e60248201527f4552433732313a207472616e7366657220746f206164647265737328302900006044820152606401610b88565b60008181526020869052604090205473ffffffffffffffffffffffffffffffffffffffff81166111ba576040517f08c379a000000000000000000000000000000000000000000000000000000000815260206004820152601a60248201527f4552433732313a206e6f6e2d6578697374696e6720746f6b656e0000000000006044820152606401610b88565b73ffffffffffffffffffffffffffffffffffffffff84168173ffffffffffffffffffffffffffffffffffffffff161461124f576040517f08c379a000000000000000000000000000000000000000000000000000000000815260206004820152601760248201527f4552433732313a206e6f6e2d6f776e656420746f6b656e0000000000000000006044820152606401610b88565b61125a868587612959565b61131257740100000000000000000000000000000000000000008116151580156112ac5750600082815260028701602052604090205473ffffffffffffffffffffffffffffffffffffffff8681169116145b611312576040517f08c379a000000000000000000000000000000000000000000000000000000000815260206004820152601b60248201527f4552433732313a206e6f6e2d617070726f7665642073656e64657200000000006044820152606401610b88565b600082815260208790526040902073ffffffffffffffffffffffffffffffffffffffff808516918290558516146113a35773ffffffffffffffffffffffffffffffffffffffff80851660009081526001808901602052604080832080547fffffffffffffffffffffffffffffffffffffffffffffffffffffffffffffffff0190559286168252919020805490910190555b818373ffffffffffffffffffffffffffffffffffffffff168573ffffffffffffffffffffffffffffffffffffffff167fddf252ad1be2c89b69c2b068fc378daa952ba7f163c4a11628f55a4df523b3ef60405160405180910390a4505050505050565b815473ffffffffffffffffffffffffffffffffffffffff8281169116146104ad576040517f08c379a000000000000000000000000000000000000000000000000000000000815260206004820152601860248201527f4f776e6572736869703a206e6f7420746865206f776e657200000000000000006044820152606401610b88565b60008061047660017fc8827d3282af6f37b64c3e9e6f3ac9df286ab0bb0fccd6f8661bf19adb368b23613221565b60008381526020858152604080832073ffffffffffffffffffffffffffffffffffffffff8616845290915290205460ff166106c55760008381526020858152604080832073ffffffffffffffffffffffffffffffffffffffff8681168086529184529382902080547fffffffffffffffffffffffffffffffffffffffffffffffffffffffffffffff00166001179055815187815292830152918316918101919091527f2f8788117e7eff1d82e926ec794901d17c78024a50270940304540a733656f0d906060015b60405180910390a150505050565b3660006105146129ce565b60008281526020848152604080832073ffffffffffffffffffffffffffffffffffffffff8516845290915290205460ff166104d0576115d682612b38565b6040516020016115e6919061327f565b604080517fffffffffffffffffffffffffffffffffffffffffffffffffffffffffffffffe0818403018152908290527f08c379a0000000000000000000000000000000000000000000000000000000008252610b8891600401613335565b73ffffffffffffffffffffffffffffffffffffffff82166116c1576040517f08c379a000000000000000000000000000000000000000000000000000000000815260206004820152601a60248201527f4552433732313a206d696e7420746f20616464726573732830290000000000006044820152606401610b88565b60008181526020849052604090205473ffffffffffffffffffffffffffffffffffffffff81161561174e576040517f08c379a000000000000000000000000000000000000000000000000000000000815260206004820152601660248201527f4552433732313a206578697374696e6720746f6b656e000000000000000000006044820152606401610b88565b7fdead00000000000000000000000000000000000000000000000000000000000081036117d7576040517f08c379a000000000000000000000000000000000000000000000000000000000815260206004820152601360248201527f4552433732313a206275726e7420746f6b656e000000000000000000000000006044820152606401610b88565b60008281526020858152604080832073ffffffffffffffffffffffffffffffffffffffff87169081905580845260018089019093528184208054909301909255518492907fddf252ad1be2c89b69c2b068fc378daa952ba7f163c4a11628f55a4df523b3ef908290a450505050565b61185385858585856110b1565b73ffffffffffffffffffffffffffffffffffffffff82163b15610844576108448484848460405180602001604052806000815250612cca565b73ffffffffffffffffffffffffffffffffffffffff8216611909576040517f08c379a000000000000000000000000000000000000000000000000000000000815260206004820152601a60248201527f4552433732313a206d696e7420746f20616464726573732830290000000000006044820152606401610b88565b805160005b818114611aac57600083828151811061192957611929613348565b60209081029190910181015160008181529188905260409091205490915073ffffffffffffffffffffffffffffffffffffffff8116156119c5576040517f08c379a000000000000000000000000000000000000000000000000000000000815260206004820152601660248201527f4552433732313a206578697374696e6720746f6b656e000000000000000000006044820152606401610b88565b7fdead0000000000000000000000000000000000000000000000000000000000008103611a4e576040517f08c379a000000000000000000000000000000000000000000000000000000000815260206004820152601360248201527f4552433732313a206275726e7420746f6b656e000000000000000000000000006044820152606401610b88565b60008281526020889052604080822073ffffffffffffffffffffffffffffffffffffffff89169081905590518492907fddf252ad1be2c89b69c2b068fc378daa952ba7f163c4a11628f55a4df523b3ef908290a4505060010161190e565b5073ffffffffffffffffffffffffffffffffffffffff9092166000908152600190930160205250604090912080549091019055565b60008181526020839052604081205473ffffffffffffffffffffffffffffffffffffffff8116611b6d576040517f08c379a000000000000000000000000000000000000000000000000000000000815260206004820152601a60248201527f4552433732313a206e6f6e2d6578697374696e6720746f6b656e0000000000006044820152606401610b88565b805b949350505050565b600073ffffffffffffffffffffffffffffffffffffffff8216611bf6576040517f08c379a000000000000000000000000000000000000000000000000000000000815260206004820152601d60248201527f4552433732313a2062616c616e6365206f6620616464726573732830290000006044820152606401610b88565b5073ffffffffffffffffffffffffffffffffffffffff166000908152600191909101602052604090205490565b6000818152602085905260409020548073ffffffffffffffffffffffffffffffffffffffff168373ffffffffffffffffffffffffffffffffffffffff1614611cc7576040517f08c379a000000000000000000000000000000000000000000000000000000000815260206004820152601760248201527f4552433732313a206e6f6e2d6f776e656420746f6b656e0000000000000000006044820152606401610b88565b611cd2858486612959565b611d8a5774010000000000000000000000000000000000000000811615158015611d245750600082815260028601602052604090205473ffffffffffffffffffffffffffffffffffffffff8581169116145b611d8a576040517f08c379a000000000000000000000000000000000000000000000000000000000815260206004820152601b60248201527f4552433732313a206e6f6e2d617070726f7665642073656e64657200000000006044820152606401610b88565b6000828152602086815260408083207fdead000000000000000000000000000000000000000000000000000000000000905573ffffffffffffffffffffffffffffffffffffffff86168084526001890190925280832080547fffffffffffffffffffffffffffffffffffffffffffffffffffffffffffffffff01905551849291907fddf252ad1be2c89b69c2b068fc378daa952ba7f163c4a11628f55a4df523b3ef908390a45050505050565b611e42858484611644565b73ffffffffffffffffffffffffffffffffffffffff83163b1561084457610844846000858585612cca565b611e78838284611598565b60008181526020848152604080832073ffffffffffffffffffffffffffffffffffffffff86168085529083529281902080547fffffffffffffffffffffffffffffffffffffffffffffffffffffffffffffff0016905580518481529182018390528101919091527ff6391f5c32d9c69d2a47ea670b442974b53935d1edc7fd64eb21e047a839171b9060600160405180910390a1505050565b815181518114611f7d576040517f08c379a000000000000000000000000000000000000000000000000000000000815260206004820152601b60248201527f4552433732313a20696e636f6e73697374656e742061727261797300000000006044820152606401610b88565b60005b818114610844576000848281518110611f9b57611f9b613348565b60200260200101519050600073ffffffffffffffffffffffffffffffffffffffff168173ffffffffffffffffffffffffffffffffffffffff160361203b576040517f08c379a000000000000000000000000000000000000000000000000000000000815260206004820152601a60248201527f4552433732313a206d696e7420746f20616464726573732830290000000000006044820152606401610b88565b600084838151811061204f5761204f613348565b60209081029190910181015160008181529189905260409091205490915073ffffffffffffffffffffffffffffffffffffffff8116156120eb576040517f08c379a000000000000000000000000000000000000000000000000000000000815260206004820152601660248201527f4552433732313a206578697374696e6720746f6b656e000000000000000000006044820152606401610b88565b7fdead0000000000000000000000000000000000000000000000000000000000008103612174576040517f08c379a000000000000000000000000000000000000000000000000000000000815260206004820152601360248201527f4552433732313a206275726e7420746f6b656e000000000000000000000000006044820152606401610b88565b60008281526020898152604080832073ffffffffffffffffffffffffffffffffffffffff8716908190558084526001808d019093528184208054909301909255518492907fddf252ad1be2c89b69c2b068fc378daa952ba7f163c4a11628f55a4df523b3ef908290a4505050806001019050611f80565b8273ffffffffffffffffffffffffffffffffffffffff168273ffffffffffffffffffffffffffffffffffffffff1603612280576040517f08c379a000000000000000000000000000000000000000000000000000000000815260206004820152601d60248201527f4552433732313a2073656c662d617070726f76616c20666f7220616c6c0000006044820152606401610b88565b73ffffffffffffffffffffffffffffffffffffffff838116600081815260038701602090815260408083209487168084529482529182902080547fffffffffffffffffffffffffffffffffffffffffffffffffffffffffffffff001686151590811790915591519182527f17307eab39ab6107e8899845ad3d59bd9653f200f220920489ca2b5937696c31910160405180910390a350505050565b61232887878787876110b1565b73ffffffffffffffffffffffffffffffffffffffff84163b15612388576123888686868686868080601f016020809104026020016040519081016040528093929190818152602001838380828437600092019190915250612cca92505050565b50505050505050565b6000818152602083905260408120547fdead00000000000000000000000000000000000000000000000000000000000014610759565b60008381526020858152604080832073ffffffffffffffffffffffffffffffffffffffff8616845290915290205460ff16156106c55760008381526020858152604080832073ffffffffffffffffffffffffffffffffffffffff8681168086529184529382902080547fffffffffffffffffffffffffffffffffffffffffffffffffffffffffffffff00169055815187815292830152918316918101919091527ff6391f5c32d9c69d2a47ea670b442974b53935d1edc7fd64eb21e047a839171b9060600161157f565b600061249e868587612959565b90508160005b8181146126a85760008585838181106124bf576124bf613348565b602090810292909201356000818152928c905260409092205491925081905073ffffffffffffffffffffffffffffffffffffffff168873ffffffffffffffffffffffffffffffffffffffff1614612572576040517f08c379a000000000000000000000000000000000000000000000000000000000815260206004820152601760248201527f4552433732313a206e6f6e2d6f776e656420746f6b656e0000000000000000006044820152606401610b88565b8461262b57740100000000000000000000000000000000000000008116151580156125c55750600082815260028b01602052604090205473ffffffffffffffffffffffffffffffffffffffff8a81169116145b61262b576040517f08c379a000000000000000000000000000000000000000000000000000000000815260206004820152601b60248201527f4552433732313a206e6f6e2d617070726f7665642073656e64657200000000006044820152606401610b88565b600082815260208b905260408082207fdead00000000000000000000000000000000000000000000000000000000000090555183919073ffffffffffffffffffffffffffffffffffffffff8b16907fddf252ad1be2c89b69c2b068fc378daa952ba7f163c4a11628f55a4df523b3ef908390a450506001016124a4565b5080156123885773ffffffffffffffffffffffffffffffffffffffff8516600090815260018801602052604090208054829003905550505050505050565b825473ffffffffffffffffffffffffffffffffffffffff908116908316811461276b576040517f08c379a000000000000000000000000000000000000000000000000000000000815260206004820152601860248201527f4f776e6572736869703a206e6f7420746865206f776e657200000000000000006044820152606401610b88565b8173ffffffffffffffffffffffffffffffffffffffff168173ffffffffffffffffffffffffffffffffffffffff16146106c55783547fffffffffffffffffffffffff00000000000000000000000000000000000000001673ffffffffffffffffffffffffffffffffffffffff8381169182178655604051908316907f8be0079c531659141344cd1fd0a4f28419497f9722a3daafe3b4186f6b6457e090600090a350505050565b6000333214806128225750601836105b1561282c57503390565b7fffffffffffffffffffffffffffffffffffffffffffffffffffffffffffffffec36013560601c7f000000000000000000000000000000000000000000000000000000000000000073ffffffffffffffffffffffffffffffffffffffff1633148061294857506040517f8929a8ca00000000000000000000000000000000000000000000000000000000815273ffffffffffffffffffffffffffffffffffffffff82811660048301523360248301527f00000000000000000000000000000000000000000000000000000000000000001690638929a8ca90604401602060405180830381865afa158015612924573d6000803e3d6000fd5b505050506040513d601f19601f820116820180604052508101906129489190613377565b1561295257919050565b3391505090565b60008173ffffffffffffffffffffffffffffffffffffffff168373ffffffffffffffffffffffffffffffffffffffff161480611b6f57505073ffffffffffffffffffffffffffffffffffffffff9182166000908152600393909301602090815260408085209290931684525290205460ff1690565b366000333214806129df5750601836105b156129ed5750600091369150565b3373ffffffffffffffffffffffffffffffffffffffff7f0000000000000000000000000000000000000000000000000000000000000000161480612b22575073ffffffffffffffffffffffffffffffffffffffff7f000000000000000000000000000000000000000000000000000000000000000016638929a8ca367fffffffffffffffffffffffffffffffffffffffffffffffffffffffffffffffec013560601c6040517fffffffff0000000000000000000000000000000000000000000000000000000060e084901b16815273ffffffffffffffffffffffffffffffffffffffff9091166004820152336024820152604401602060405180830381865afa158015612afe573d6000803e3d6000fd5b505050506040513d601f19601f82011682018060405250810190612b229190613377565b15612b2f57610514612df0565b50600091369150565b60606000829003612b5757505060408051602081019091526000815290565b600082604051602001612b6c91815260200190565b604080517fffffffffffffffffffffffffffffffffffffffffffffffffffffffffffffffe08184030181529190529050601f5b818181518110612bb157612bb1613348565b01602001517fff0000000000000000000000000000000000000000000000000000000000000016600003612c06577fffffffffffffffffffffffffffffffffffffffffffffffffffffffffffffffff01612b9f565b60008160010167ffffffffffffffff811115612c2457612c24613394565b6040519080825280601f01601f191660200182016040528015612c4e576020820181803683370190505b50905060005b828111612cc157838181518110612c6d57612c6d613348565b602001015160f81c60f81b828281518110612c8a57612c8a613348565b60200101907effffffffffffffffffffffffffffffffffffffffffffffffffffffffffffff1916908160001a905350600101612c54565b50949350505050565b6040517f150b7a02000000000000000000000000000000000000000000000000000000008082529073ffffffffffffffffffffffffffffffffffffffff85169063150b7a0290612d249089908990889088906004016133c3565b6020604051808303816000875af1158015612d43573d6000803e3d6000fd5b505050506040513d601f19601f82011682018060405250810190612d67919061340c565b7fffffffff000000000000000000000000000000000000000000000000000000001614610844576040517f08c379a000000000000000000000000000000000000000000000000000000000815260206004820152601e60248201527f4552433732313a2073616665207472616e736665722072656a656374656400006044820152606401610b88565b3660006105147fffffffffffffffffffffffffffffffffffffffffffffffffffffffffffffffec8301828481613429565b7fffffffff00000000000000000000000000000000000000000000000000000000811681146106e657600080fd5b600060208284031215612e6157600080fd5b813561075981612e21565b600060208284031215612e7e57600080fd5b5035919050565b803573ffffffffffffffffffffffffffffffffffffffff81168114612ea957600080fd5b919050565b60008060408385031215612ec157600080fd5b612eca83612e85565b946020939093013593505050565b600080600060608486031215612eed57600080fd5b612ef684612e85565b9250612f0460208501612e85565b9150604084013590509250925092565b60008060408385031215612f2757600080fd5b82359150612f3760208401612e85565b90509250929050565b60208152816020820152818360408301376000818301604090810191909152601f9092017fffffffffffffffffffffffffffffffffffffffffffffffffffffffffffffffe0160101919050565b60008083601f840112612f9f57600080fd5b50813567ffffffffffffffff811115612fb757600080fd5b6020830191508360208260051b8501011115612fd257600080fd5b9250929050565b600080600060408486031215612fee57600080fd5b612ff784612e85565b9250602084013567ffffffffffffffff81111561301357600080fd5b61301f86828701612f8d565b9497909650939450505050565b60006020828403121561303e57600080fd5b61075982612e85565b60008083601f84011261305957600080fd5b50813567ffffffffffffffff81111561307157600080fd5b602083019150836020828501011115612fd257600080fd5b6000806000806060858703121561309f57600080fd5b6130a885612e85565b935060208501359250604085013567ffffffffffffffff8111156130cb57600080fd5b6130d787828801613047565b95989497509550505050565b600080600080604085870312156130f957600080fd5b843567ffffffffffffffff8082111561311157600080fd5b61311d88838901612f8d565b9096509450602087013591508082111561313657600080fd5b506130d787828801612f8d565b80151581146106e657600080fd5b6000806040838503121561316457600080fd5b61316d83612e85565b9150602083013561317d81613143565b809150509250929050565b6000806000806000608086880312156131a057600080fd5b6131a986612e85565b94506131b760208701612e85565b935060408601359250606086013567ffffffffffffffff8111156131da57600080fd5b6131e688828901613047565b969995985093965092949392505050565b6000806040838503121561320a57600080fd5b61321383612e85565b9150612f3760208401612e85565b81810381811115610476577f4e487b7100000000000000000000000000000000000000000000000000000000600052601160045260246000fd5b60005b8381101561327657818101518382015260200161325e565b50506000910152565b7f416363657373436f6e74726f6c3a206d697373696e67202700000000000000008152600082516132b781601885016020870161325b565b7f2720726f6c6500000000000000000000000000000000000000000000000000006018939091019283015250601e01919050565b6000815180845261330381602086016020860161325b565b601f017fffffffffffffffffffffffffffffffffffffffffffffffffffffffffffffffe0169290920160200192915050565b60208152600061075960208301846132eb565b7f4e487b7100000000000000000000000000000000000000000000000000000000600052603260045260246000fd5b60006020828403121561338957600080fd5b815161075981613143565b7f4e487b7100000000000000000000000000000000000000000000000000000000600052604160045260246000fd5b600073ffffffffffffffffffffffffffffffffffffffff80871683528086166020840152508360408301526080606083015261340260808301846132eb565b9695505050505050565b60006020828403121561341e57600080fd5b815161075981612e21565b6000808585111561343957600080fd5b8386111561344657600080fd5b505082019391909203915056fea2646970667358221220c9a6bf257053d4ac3ed75b781b91347cfa59075810e6061d0db30a13234763c864736f6c63430008110033",
  "linkReferences": {},
  "deployedLinkReferences": {}
}