{
  "_format": "hh-sol-artifact-1",
  "contractName": "ERC721MintableOnceMock",
  "sourceName": "contracts/mocks/token/ERC721/ERC721MintableOnceMock.sol",
  "abi": [
    {
      "inputs": [
        {
          "internalType": "string",
          "name": "name_",
          "type": "string"
        },
        {
          "internalType": "string",
          "name": "symbol_",
          "type": "string"
        },
        {
          "internalType": "string",
          "name": "tokenURI_",
          "type": "string"
        }
      ],
      "stateMutability": "nonpayable",
      "type": "constructor"
    },
    {
      "anonymous": false,
      "inputs": [
        {
          "indexed": true,
          "internalType": "address",
          "name": "owner",
          "type": "address"
        },
        {
          "indexed": true,
          "internalType": "address",
          "name": "approved",
          "type": "address"
        },
        {
          "indexed": true,
          "internalType": "uint256",
          "name": "tokenId",
          "type": "uint256"
        }
      ],
      "name": "Approval",
      "type": "event"
    },
    {
      "anonymous": false,
      "inputs": [
        {
          "indexed": true,
          "internalType": "address",
          "name": "owner",
          "type": "address"
        },
        {
          "indexed": true,
          "internalType": "address",
          "name": "operator",
          "type": "address"
        },
        {
          "indexed": false,
          "internalType": "bool",
          "name": "approved",
          "type": "bool"
        }
      ],
      "name": "ApprovalForAll",
      "type": "event"
    },
    {
      "anonymous": false,
      "inputs": [
        {
          "indexed": true,
          "internalType": "address",
          "name": "previousOwner",
          "type": "address"
        },
        {
          "indexed": true,
          "internalType": "address",
          "name": "newOwner",
          "type": "address"
        }
      ],
      "name": "OwnershipTransferred",
      "type": "event"
    },
    {
      "anonymous": false,
      "inputs": [
        {
          "indexed": false,
          "internalType": "bytes32",
          "name": "role",
          "type": "bytes32"
        },
        {
          "indexed": false,
          "internalType": "address",
          "name": "account",
          "type": "address"
        },
        {
          "indexed": false,
          "internalType": "address",
          "name": "operator",
          "type": "address"
        }
      ],
      "name": "RoleGranted",
      "type": "event"
    },
    {
      "anonymous": false,
      "inputs": [
        {
          "indexed": false,
          "internalType": "bytes32",
          "name": "role",
          "type": "bytes32"
        },
        {
          "indexed": false,
          "internalType": "address",
          "name": "account",
          "type": "address"
        },
        {
          "indexed": false,
          "internalType": "address",
          "name": "operator",
          "type": "address"
        }
      ],
      "name": "RoleRevoked",
      "type": "event"
    },
    {
      "anonymous": false,
      "inputs": [
        {
          "indexed": true,
          "internalType": "address",
          "name": "from",
          "type": "address"
        },
        {
          "indexed": true,
          "internalType": "address",
          "name": "to",
          "type": "address"
        },
        {
          "indexed": true,
          "internalType": "uint256",
          "name": "tokenId",
          "type": "uint256"
        }
      ],
      "name": "Transfer",
      "type": "event"
    },
    {
      "inputs": [],
      "name": "MINTER_ROLE",
      "outputs": [
        {
          "internalType": "bytes32",
          "name": "",
          "type": "bytes32"
        }
      ],
      "stateMutability": "view",
      "type": "function"
    },
    {
      "inputs": [
        {
          "internalType": "address",
          "name": "to",
          "type": "address"
        },
        {
          "internalType": "uint256",
          "name": "tokenId",
          "type": "uint256"
        }
      ],
      "name": "approve",
      "outputs": [],
      "stateMutability": "nonpayable",
      "type": "function"
    },
    {
      "inputs": [
        {
          "internalType": "address",
          "name": "owner",
          "type": "address"
        }
      ],
      "name": "balanceOf",
      "outputs": [
        {
          "internalType": "uint256",
          "name": "",
          "type": "uint256"
        }
      ],
      "stateMutability": "view",
      "type": "function"
    },
    {
      "inputs": [
        {
          "internalType": "address",
          "name": "from",
          "type": "address"
        },
        {
          "internalType": "uint256[]",
          "name": "tokenIds",
          "type": "uint256[]"
        }
      ],
      "name": "batchBurnFrom",
      "outputs": [],
      "stateMutability": "nonpayable",
      "type": "function"
    },
    {
      "inputs": [
        {
          "internalType": "address",
          "name": "to",
          "type": "address"
        },
        {
          "internalType": "uint256[]",
          "name": "tokenIds",
          "type": "uint256[]"
        }
      ],
      "name": "batchMintOnce",
      "outputs": [],
      "stateMutability": "nonpayable",
      "type": "function"
    },
    {
      "inputs": [
        {
          "internalType": "address",
          "name": "from",
          "type": "address"
        },
        {
          "internalType": "uint256",
          "name": "tokenId",
          "type": "uint256"
        }
      ],
      "name": "burnFrom",
      "outputs": [],
      "stateMutability": "nonpayable",
      "type": "function"
    },
    {
      "inputs": [
        {
          "internalType": "uint256",
          "name": "tokenId",
          "type": "uint256"
        }
      ],
      "name": "getApproved",
      "outputs": [
        {
          "internalType": "address",
          "name": "operator",
          "type": "address"
        }
      ],
      "stateMutability": "view",
      "type": "function"
    },
    {
      "inputs": [
        {
          "internalType": "bytes32",
          "name": "role",
          "type": "bytes32"
        },
        {
          "internalType": "address",
          "name": "account",
          "type": "address"
        }
      ],
      "name": "grantRole",
      "outputs": [],
      "stateMutability": "nonpayable",
      "type": "function"
    },
    {
      "inputs": [
        {
          "internalType": "bytes32",
          "name": "role",
          "type": "bytes32"
        },
        {
          "internalType": "address",
          "name": "account",
          "type": "address"
        }
      ],
      "name": "hasRole",
      "outputs": [
        {
          "internalType": "bool",
          "name": "",
          "type": "bool"
        }
      ],
      "stateMutability": "view",
      "type": "function"
    },
    {
      "inputs": [
        {
          "internalType": "address",
          "name": "owner",
          "type": "address"
        },
        {
          "internalType": "address",
          "name": "operator",
          "type": "address"
        }
      ],
      "name": "isApprovedForAll",
      "outputs": [
        {
          "internalType": "bool",
          "name": "",
          "type": "bool"
        }
      ],
      "stateMutability": "view",
      "type": "function"
    },
    {
      "inputs": [
        {
          "internalType": "address",
          "name": "to",
          "type": "address"
        },
        {
          "internalType": "uint256",
          "name": "tokenId",
          "type": "uint256"
        }
      ],
      "name": "mintOnce",
      "outputs": [],
      "stateMutability": "nonpayable",
      "type": "function"
    },
    {
      "inputs": [],
      "name": "owner",
      "outputs": [
        {
          "internalType": "address",
          "name": "",
          "type": "address"
        }
      ],
      "stateMutability": "view",
      "type": "function"
    },
    {
      "inputs": [
        {
          "internalType": "uint256",
          "name": "tokenId",
          "type": "uint256"
        }
      ],
      "name": "ownerOf",
      "outputs": [
        {
          "internalType": "address",
          "name": "",
          "type": "address"
        }
      ],
      "stateMutability": "view",
      "type": "function"
    },
    {
      "inputs": [
        {
          "internalType": "bytes32",
          "name": "role",
          "type": "bytes32"
        }
      ],
      "name": "renounceRole",
      "outputs": [],
      "stateMutability": "nonpayable",
      "type": "function"
    },
    {
      "inputs": [
        {
          "internalType": "bytes32",
          "name": "role",
          "type": "bytes32"
        },
        {
          "internalType": "address",
          "name": "account",
          "type": "address"
        }
      ],
      "name": "revokeRole",
      "outputs": [],
      "stateMutability": "nonpayable",
      "type": "function"
    },
    {
      "inputs": [
        {
          "internalType": "address",
          "name": "to",
          "type": "address"
        },
        {
          "internalType": "uint256",
          "name": "tokenId",
          "type": "uint256"
        },
        {
          "internalType": "bytes",
          "name": "data",
          "type": "bytes"
        }
      ],
      "name": "safeMintOnce",
      "outputs": [],
      "stateMutability": "nonpayable",
      "type": "function"
    },
    {
      "inputs": [
        {
          "internalType": "address",
          "name": "from",
          "type": "address"
        },
        {
          "internalType": "address",
          "name": "to",
          "type": "address"
        },
        {
          "internalType": "uint256",
          "name": "tokenId",
          "type": "uint256"
        }
      ],
      "name": "safeTransferFrom",
      "outputs": [],
      "stateMutability": "nonpayable",
      "type": "function"
    },
    {
      "inputs": [
        {
          "internalType": "address",
          "name": "from",
          "type": "address"
        },
        {
          "internalType": "address",
          "name": "to",
          "type": "address"
        },
        {
          "internalType": "uint256",
          "name": "tokenId",
          "type": "uint256"
        },
        {
          "internalType": "bytes",
          "name": "_data",
          "type": "bytes"
        }
      ],
      "name": "safeTransferFrom",
      "outputs": [],
      "stateMutability": "nonpayable",
      "type": "function"
    },
    {
      "inputs": [
        {
          "internalType": "address",
          "name": "operator",
          "type": "address"
        },
        {
          "internalType": "bool",
          "name": "_approved",
          "type": "bool"
        }
      ],
      "name": "setApprovalForAll",
      "outputs": [],
      "stateMutability": "nonpayable",
      "type": "function"
    },
    {
      "inputs": [
        {
          "internalType": "bytes4",
          "name": "interfaceId",
          "type": "bytes4"
        }
      ],
      "name": "supportsInterface",
      "outputs": [
        {
          "internalType": "bool",
          "name": "",
          "type": "bool"
        }
      ],
      "stateMutability": "view",
      "type": "function"
    },
    {
      "inputs": [
        {
          "internalType": "address",
          "name": "from",
          "type": "address"
        },
        {
          "internalType": "address",
          "name": "to",
          "type": "address"
        },
        {
          "internalType": "uint256",
          "name": "tokenId",
          "type": "uint256"
        }
      ],
      "name": "transferFrom",
      "outputs": [],
      "stateMutability": "nonpayable",
      "type": "function"
    },
    {
      "inputs": [
        {
          "internalType": "address",
          "name": "newOwner",
          "type": "address"
        }
      ],
      "name": "transferOwnership",
      "outputs": [],
      "stateMutability": "nonpayable",
      "type": "function"
    }
  ],
  "bytecode": "0x60806040523480156200001157600080fd5b5060405162003085380380620030858339810160408190526200003491620004d1565b336200005f6200004e620000f960201b620008931760201c565b6200012f60201b620008c11760201c565b62000089620000786200019c60201b6200092b1760201c565b620001cc60201b620009591760201c565b620000b781620000a36200022160201b620009b31760201c565b6200025160201b620009e11790919060201c565b50620000f063a745805d60e01b6001620000db6200019c60201b6200092b1760201c565b6200030060201b62000ac5179092919060201c565b50505062000588565b6000806200012960017fddf3ee18ae6d688373c219468f8be446e7ae82215f4779d821c7ea5e8c13c0c162000562565b92915050565b620001766200016060017ffddcdbf8ca7eb362a678daf3643ce3cf98ebf69ac314d25d376d5aeabd2f533262000562565b60001b60016200038e60201b62000bb51760201c565b620001996380ac58cd60e01b6001620000db6200019c60201b6200092b1760201c565b50565b6000806200012960017f7180ffa89c91cf90d6c56dacabfc69bc5e36f3099d7eed2f5cc12c5dba016fe062000562565b620001fd6200016060017f947245cdabe12ef4c13574b38217b361de48f57dd2dc345f43703c79bac2873d62000562565b620001996301ffc9a760e01b6001836200030060201b62000ac5179092919060201c565b6000806200012960017f6a1da6973104ff7dedb9b4f5cab5830b3f4a0284ed754366cfc45568bd2d38df62000562565b620002826200016060017ff1e2f4de496ffe5d046d751d8ec3c329ee011c6c6a229322971a7e02a207f97362000562565b6001600160a01b03811615620002d95781546001600160a01b0319166001600160a01b03821690811783556040516000907f8be0079c531659141344cd1fd0a4f28419497f9722a3daafe3b4186f6b6457e0908290a35b620002fc6307f5828d60e41b6001620000db6200019c60201b6200092b1760201c565b5050565b6001600160e01b03198083169003620003605760405162461bcd60e51b815260206004820152601f60248201527f496e74657266616365446574656374696f6e3a2077726f6e672076616c75650060448201526064015b60405180910390fd5b6001600160e01b03199190911660009081526020929092526040909120805460ff1916911515919091179055565b6000620003a6836200040160201b62000c251760201c565b905081816000015410620003fd5760405162461bcd60e51b815260206004820152601860248201527f53746f726167653a2076657273696f6e20726561636865640000000000000000604482015260640162000357565b5550565b90565b634e487b7160e01b600052604160045260246000fd5b600082601f8301126200042c57600080fd5b81516001600160401b038082111562000449576200044962000404565b604051601f8301601f19908116603f0116810190828211818310171562000474576200047462000404565b816040528381526020925086838588010111156200049157600080fd5b600091505b83821015620004b5578582018301518183018401529082019062000496565b83821115620004c75760008385830101525b9695505050505050565b600080600060608486031215620004e757600080fd5b83516001600160401b0380821115620004ff57600080fd5b6200050d878388016200041a565b945060208601519150808211156200052457600080fd5b62000532878388016200041a565b935060408601519150808211156200054957600080fd5b5062000558868287016200041a565b9150509250925092565b6000828210156200058357634e487b7160e01b600052601160045260246000fd5b500390565b612aed80620005986000396000f3fe608060405234801561001057600080fd5b50600436106101825760003560e01c806391d14854116100d8578063d547741f1161008c578063f247296511610066578063f247296514610343578063f2fde38b14610356578063f598136a1461036957600080fd5b8063d547741f1461030a578063e2366d3b1461031d578063e985e9c51461033057600080fd5b8063b0ebfe0c116100bd578063b0ebfe0c146102bd578063b88d4fde146102d0578063d5391393146102e357600080fd5b806391d1485414610297578063a22cb465146102aa57600080fd5b806342842e0e1161013a57806379cc67901161011457806379cc6790146102695780638bb9c5bf1461027c5780638da5cb5b1461028f57600080fd5b806342842e0e146102225780636352211e1461023557806370a082311461024857600080fd5b8063095ea7b31161016b578063095ea7b3146101e757806323b872dd146101fc5780632f2ff15d1461020f57600080fd5b806301ffc9a714610187578063081812fc146101af575b600080fd5b61019a6101953660046124ba565b61037c565b60405190151581526020015b60405180910390f35b6101c26101bd3660046124d7565b6103c9565b60405173ffffffffffffffffffffffffffffffffffffffff90911681526020016101a6565b6101fa6101f5366004612519565b6103dd565b005b6101fa61020a366004612543565b6103f7565b6101fa61021d36600461257f565b610414565b6101fa610230366004612543565b61043d565b6101c26102433660046124d7565b610455565b61025b6102563660046125ab565b6104f7565b6040519081526020016101a6565b6101fa610277366004612519565b6105ad565b6101fa61028a3660046124d7565b6105c3565b6101c26105da565b61019a6102a536600461257f565b610600565b6101fa6102b83660046125c6565b61064b565b6101fa6102cb366004612602565b610661565b6101fa6102de3660046126b8565b6106ef565b61025b7f6d696e746572000000000000000000000000000000000000000000000000000081565b6101fa61031836600461257f565b610709565b6101fa61032b3660046127b2565b61072c565b61019a61033e366004612838565b61079e565b6101fa6103513660046127b2565b6107e1565b6101fa6103643660046125ab565b61082b565b6101fa610377366004612519565b61083f565b60006103c38261038a61092b565b907fffffffff00000000000000000000000000000000000000000000000000000000166000908152602091909152604090205460ff1690565b92915050565b60006103c3826103d7610893565b90610c28565b6103f33383836103eb610893565b929190610d0b565b5050565b61040f33848484610406610893565b93929190610fc7565b505050565b33610427816104216109b3565b90610fed565b61040f838383610435611070565b92919061109e565b61040f3384848461044c610893565b93929190611174565b600080610460610893565b60008481526001919091016020526040902054905073ffffffffffffffffffffffffffffffffffffffff81166103c3576040517f08c379a000000000000000000000000000000000000000000000000000000000815260206004820152601860248201527f4552433732313a206e6f6e2d6578697374696e67204e4654000000000000000060448201526064015b60405180910390fd5b600073ffffffffffffffffffffffffffffffffffffffff8216610576576040517f08c379a000000000000000000000000000000000000000000000000000000000815260206004820152601460248201527f4552433732313a207a65726f206164647265737300000000000000000000000060448201526064016104ee565b61057e610893565b73ffffffffffffffffffffffffffffffffffffffff909216600090815260029290920160205250604090205490565b6103f33383836105bb610893565b929190611193565b6105d733826105d0611070565b91906111fd565b50565b60006105e46109b3565b5473ffffffffffffffffffffffffffffffffffffffff16919050565b6000610644838361060f611070565b60009283526020908152604080842073ffffffffffffffffffffffffffffffffffffffff909316845291905290205460ff1690565b9392505050565b6103f3338383610659610893565b9291906112a1565b6106967f6d696e7465720000000000000000000000000000000000000000000000000000335b61068f611070565b91906113cd565b6106e933858585858080601f016020809104026020016040519081016040528093929190818152602001838380828437600092019190915250600192506106df91506108939050565b9493929190611479565b50505050565b6106e933858585856106ff610893565b9493929190611622565b33610716816104216109b3565b61040f838383610724611070565b92919061163a565b6107567f6d696e746572000000000000000000000000000000000000000000000000000033610687565b61040f838383808060200260200160405190810160405280939291908181526020018383602002808284376000920191909152506107979250610893915050565b9190611704565b60006107a8610893565b73ffffffffffffffffffffffffffffffffffffffff93841660009081526020918252604080822094909516815292905250205460ff1690565b61040f33848484808060200260200160405190810160405280939291908181526020018383602002808284376000920191909152506108239250610893915050565b929190611851565b6105d733826108386109b3565b919061193b565b6108697f6d696e746572000000000000000000000000000000000000000000000000000033610687565b6103f3338383604051806020016040528060008152506000610889610893565b9493929190611a67565b6000806103c360017fddf3ee18ae6d688373c219468f8be446e7ae82215f4779d821c7ea5e8c13c0c1612891565b6108f66108ef60017ffddcdbf8ca7eb362a678daf3643ce3cf98ebf69ac314d25d376d5aeabd2f5332612891565b6001610bb5565b6105d77f80ac58cd00000000000000000000000000000000000000000000000000000000600161092461092b565b9190610ac5565b6000806103c360017f7180ffa89c91cf90d6c56dacabfc69bc5e36f3099d7eed2f5cc12c5dba016fe0612891565b6109876108ef60017f947245cdabe12ef4c13574b38217b361de48f57dd2dc345f43703c79bac2873d612891565b6105d7817f01ffc9a7000000000000000000000000000000000000000000000000000000006001610ac5565b6000806103c360017f6a1da6973104ff7dedb9b4f5cab5830b3f4a0284ed754366cfc45568bd2d38df612891565b610a0f6108ef60017ff1e2f4de496ffe5d046d751d8ec3c329ee011c6c6a229322971a7e02a207f973612891565b73ffffffffffffffffffffffffffffffffffffffff811615610a975781547fffffffffffffffffffffffff00000000000000000000000000000000000000001673ffffffffffffffffffffffffffffffffffffffff821690811783556040516000907f8be0079c531659141344cd1fd0a4f28419497f9722a3daafe3b4186f6b6457e0908290a35b6103f37f7f5828d000000000000000000000000000000000000000000000000000000000600161092461092b565b7fffffffff000000000000000000000000000000000000000000000000000000008083169003610b51576040517f08c379a000000000000000000000000000000000000000000000000000000000815260206004820152601f60248201527f496e74657266616365446574656374696f6e3a2077726f6e672076616c75650060448201526064016104ee565b7fffffffff00000000000000000000000000000000000000000000000000000000919091166000908152602092909252604090912080547fffffffffffffffffffffffffffffffffffffffffffffffffffffffffffffff0016911515919091179055565b815482908211610c21576040517f08c379a000000000000000000000000000000000000000000000000000000000815260206004820152601860248201527f53746f726167653a2076657273696f6e2072656163686564000000000000000060448201526064016104ee565b5550565b90565b600081815260018301602052604081205473ffffffffffffffffffffffffffffffffffffffff8116610cb6576040517f08c379a000000000000000000000000000000000000000000000000000000000815260206004820152601860248201527f4552433732313a206e6f6e2d6578697374696e67204e4654000000000000000060448201526064016104ee565b74010000000000000000000000000000000000000000811615610d01575050600081815260038301602052604090205473ffffffffffffffffffffffffffffffffffffffff166103c3565b60009150506103c3565b600081815260018501602052604081205490819003610d86576040517f08c379a000000000000000000000000000000000000000000000000000000000815260206004820152601860248201527f4552433732313a206e6f6e2d6578697374696e67204e4654000000000000000060448201526064016104ee565b8073ffffffffffffffffffffffffffffffffffffffff80821690851603610e09576040517f08c379a000000000000000000000000000000000000000000000000000000000815260206004820152601560248201527f4552433732313a2073656c662d617070726f76616c000000000000000000000060448201526064016104ee565b610e14868287611b6c565b610e7a576040517f08c379a000000000000000000000000000000000000000000000000000000000815260206004820152601b60248201527f4552433732313a206e6f6e2d617070726f7665642073656e646572000000000060448201526064016104ee565b73ffffffffffffffffffffffffffffffffffffffff8416610ee15774010000000000000000000000000000000000000000821615610edc576000838152600187016020526040902073ffffffffffffffffffffffffffffffffffffffff821690555b610f64565b740100000000000000000000000000000000000000008217808314610f1457600084815260018801602052604090208190555b506000838152600387016020526040902080547fffffffffffffffffffffffff00000000000000000000000000000000000000001673ffffffffffffffffffffffffffffffffffffffff86161790555b828473ffffffffffffffffffffffffffffffffffffffff168273ffffffffffffffffffffffffffffffffffffffff167f8c5be1e5ebec7d5bd14f71427d1e84f3dd0314c0f7b2291e5b200ac8c7c3b92560405160405180910390a4505050505050565b610fe68585858585604051806020016040528060008152506000611be0565b5050505050565b815473ffffffffffffffffffffffffffffffffffffffff8281169116146103f3576040517f08c379a000000000000000000000000000000000000000000000000000000000815260206004820152601860248201527f4f776e6572736869703a206e6f7420746865206f776e6572000000000000000060448201526064016104ee565b6000806103c360017fc8a24fbf085abf1493c5f225802d03df3ece6cd19f18edff36c56d854cddac9e612891565b60008381526020858152604080832073ffffffffffffffffffffffffffffffffffffffff8616845290915290205460ff166106e95760008381526020858152604080832073ffffffffffffffffffffffffffffffffffffffff8681168086529184529382902080547fffffffffffffffffffffffffffffffffffffffffffffffffffffffffffffff00166001179055815187815292830152918316918101919091527f2f8788117e7eff1d82e926ec794901d17c78024a50270940304540a733656f0d906060015b60405180910390a150505050565b610fe68585858585604051806020016040528060008152506001611be0565b60006111a0858486611b6c565b90506111b185858585856000611d16565b604051829060009073ffffffffffffffffffffffffffffffffffffffff8616907fddf252ad1be2c89b69c2b068fc378daa952ba7f163c4a11628f55a4df523b3ef908390a45050505050565b6112088382846113cd565b60008181526020848152604080832073ffffffffffffffffffffffffffffffffffffffff86168085529083529281902080547fffffffffffffffffffffffffffffffffffffffffffffffffffffffffffffff0016905580518481529182018390528101919091527ff6391f5c32d9c69d2a47ea670b442974b53935d1edc7fd64eb21e047a839171b9060600160405180910390a1505050565b8273ffffffffffffffffffffffffffffffffffffffff168273ffffffffffffffffffffffffffffffffffffffff1603611336576040517f08c379a000000000000000000000000000000000000000000000000000000000815260206004820152601560248201527f4552433732313a2073656c662d617070726f76616c000000000000000000000060448201526064016104ee565b73ffffffffffffffffffffffffffffffffffffffff8381166000818152602087815260408083209487168084529482529182902080547fffffffffffffffffffffffffffffffffffffffffffffffffffffffffffffff001686151590811790915591519182527f17307eab39ab6107e8899845ad3d59bd9653f200f220920489ca2b5937696c31910160405180910390a350505050565b60008281526020848152604080832073ffffffffffffffffffffffffffffffffffffffff8516845290915290205460ff1661040f5761140b82611ecf565b60405160200161141b91906128d4565b604080517fffffffffffffffffffffffffffffffffffffffffffffffffffffffffffffffe0818403018152908290527f08c379a00000000000000000000000000000000000000000000000000000000082526104ee9160040161298a565b600083815260018701602052604090205473ffffffffffffffffffffffffffffffffffffffff811615611508576040517f08c379a000000000000000000000000000000000000000000000000000000000815260206004820152601460248201527f4552433732313a206578697374696e67204e465400000000000000000000000060448201526064016104ee565b7fdead0000000000000000000000000000000000000000000000000000000000008103611591576040517f08c379a000000000000000000000000000000000000000000000000000000000815260206004820152601160248201527f4552433732313a206275726e74204e465400000000000000000000000000000060448201526064016104ee565b61159e8786866000612059565b604051849073ffffffffffffffffffffffffffffffffffffffff8716906000907fddf252ad1be2c89b69c2b068fc378daa952ba7f163c4a11628f55a4df523b3ef908290a4818015611606575073ffffffffffffffffffffffffffffffffffffffff85163b15155b156116195761161986600087878761213e565b50505050505050565b6116328686868686866001611be0565b505050505050565b60008381526020858152604080832073ffffffffffffffffffffffffffffffffffffffff8616845290915290205460ff16156106e95760008381526020858152604080832073ffffffffffffffffffffffffffffffffffffffff8681168086529184529382902080547fffffffffffffffffffffffffffffffffffffffffffffffffffffffffffffff00169055815187815292830152918316918101919091527ff6391f5c32d9c69d2a47ea670b442974b53935d1edc7fd64eb21e047a839171b90606001611166565b73ffffffffffffffffffffffffffffffffffffffff8216611781576040517f08c379a000000000000000000000000000000000000000000000000000000000815260206004820152601460248201527f4552433732313a206d696e7420746f207a65726f00000000000000000000000060448201526064016104ee565b805160005b81811461180e5760008382815181106117a1576117a161299d565b602002602001015190506117b88686836001612059565b604051819073ffffffffffffffffffffffffffffffffffffffff8716906000907fddf252ad1be2c89b69c2b068fc378daa952ba7f163c4a11628f55a4df523b3ef908290a450611807816129cc565b9050611786565b5073ffffffffffffffffffffffffffffffffffffffff8316600090815260028501602052604081208054839290611846908490612a04565b909155505050505050565b600061185e858486611b6c565b825190915060005b8181146118f05760008482815181106118815761188161299d565b6020026020010151905061189a88888884886001611d16565b604051819060009073ffffffffffffffffffffffffffffffffffffffff8916907fddf252ad1be2c89b69c2b068fc378daa952ba7f163c4a11628f55a4df523b3ef908390a4506118e9816129cc565b9050611866565b5080156116325773ffffffffffffffffffffffffffffffffffffffff841660009081526002870160205260408120805483929061192e908490612891565b9091555050505050505050565b825473ffffffffffffffffffffffffffffffffffffffff90811690831681146119c0576040517f08c379a000000000000000000000000000000000000000000000000000000000815260206004820152601860248201527f4f776e6572736869703a206e6f7420746865206f776e6572000000000000000060448201526064016104ee565b8173ffffffffffffffffffffffffffffffffffffffff168173ffffffffffffffffffffffffffffffffffffffff16146106e95783547fffffffffffffffffffffffff00000000000000000000000000000000000000001673ffffffffffffffffffffffffffffffffffffffff8381169182178655604051908316907f8be0079c531659141344cd1fd0a4f28419497f9722a3daafe3b4186f6b6457e090600090a350505050565b73ffffffffffffffffffffffffffffffffffffffff8416611ae4576040517f08c379a000000000000000000000000000000000000000000000000000000000815260206004820152601460248201527f4552433732313a206d696e7420746f207a65726f00000000000000000000000060448201526064016104ee565b611af18685856000612059565b604051839073ffffffffffffffffffffffffffffffffffffffff8616906000907fddf252ad1be2c89b69c2b068fc378daa952ba7f163c4a11628f55a4df523b3ef908290a4808015611b59575073ffffffffffffffffffffffffffffffffffffffff84163b15155b156116325761163285600086868661213e565b60008173ffffffffffffffffffffffffffffffffffffffff168373ffffffffffffffffffffffffffffffffffffffff161480611bd8575073ffffffffffffffffffffffffffffffffffffffff8084166000908152602086815260408083209386168352929052205460ff165b949350505050565b73ffffffffffffffffffffffffffffffffffffffff8416611c5d576040517f08c379a000000000000000000000000000000000000000000000000000000000815260206004820152601860248201527f4552433732313a207472616e7366657220746f207a65726f000000000000000060448201526064016104ee565b6000611c6a888789611b6c565b9050611c7c8888888888866000612264565b838573ffffffffffffffffffffffffffffffffffffffff168773ffffffffffffffffffffffffffffffffffffffff167fddf252ad1be2c89b69c2b068fc378daa952ba7f163c4a11628f55a4df523b3ef60405160405180910390a4818015611cfa575073ffffffffffffffffffffffffffffffffffffffff85163b15155b15611d0c57611d0c878787878761213e565b5050505050505050565b600083815260018701602052604090205473ffffffffffffffffffffffffffffffffffffffff85811690821614611da9576040517f08c379a000000000000000000000000000000000000000000000000000000000815260206004820152601560248201527f4552433732313a206e6f6e2d6f776e6564204e4654000000000000000000000060448201526064016104ee565b82611e625774010000000000000000000000000000000000000000811615801590611dfc5750600084815260038801602052604090205473ffffffffffffffffffffffffffffffffffffffff8781169116145b611e62576040517f08c379a000000000000000000000000000000000000000000000000000000000815260206004820152601b60248201527f4552433732313a206e6f6e2d617070726f7665642073656e646572000000000060448201526064016104ee565b600084815260018801602052604090207fdead0000000000000000000000000000000000000000000000000000000000009055816116195773ffffffffffffffffffffffffffffffffffffffff851660009081526002880160205260408120805490919061192e90612a1c565b60606000829003611eee57505060408051602081019091526000815290565b600082604051602001611f0391815260200190565b604080517fffffffffffffffffffffffffffffffffffffffffffffffffffffffffffffffe08184030181529190529050601f5b818181518110611f4857611f4861299d565b01602001517fff0000000000000000000000000000000000000000000000000000000000000016600003611f8657611f7f81612a1c565b9050611f36565b6000611f93826001612a04565b67ffffffffffffffff811115611fab57611fab612689565b6040519080825280601f01601f191660200182016040528015611fd5576020820181803683370190505b50905060005b82811161205057838181518110611ff457611ff461299d565b602001015160f81c60f81b8282815181106120115761201161299d565b60200101907effffffffffffffffffffffffffffffffffffffffffffffffffffffffffffff1916908160001a905350612049816129cc565b9050611fdb565b50949350505050565b6000828152600185016020526040902054156120d1576040517f08c379a000000000000000000000000000000000000000000000000000000000815260206004820152601a60248201527f4552433732313a206578697374696e672f6275726e74204e465400000000000060448201526064016104ee565b6000828152600185016020526040902073ffffffffffffffffffffffffffffffffffffffff84169055806106e95773ffffffffffffffffffffffffffffffffffffffff8316600090815260028501602052604081208054909190612134906129cc565b9091555050505050565b6040517f150b7a02000000000000000000000000000000000000000000000000000000008082529073ffffffffffffffffffffffffffffffffffffffff85169063150b7a0290612198908990899088908890600401612a51565b6020604051808303816000875af11580156121b7573d6000803e3d6000fd5b505050506040513d601f19601f820116820180604052508101906121db9190612a9a565b7fffffffff000000000000000000000000000000000000000000000000000000001614610fe6576040517f08c379a000000000000000000000000000000000000000000000000000000000815260206004820152601860248201527f4552433732313a207472616e736665722072656675736564000000000000000060448201526064016104ee565b600083815260018801602052604090205473ffffffffffffffffffffffffffffffffffffffff868116908216146122f7576040517f08c379a000000000000000000000000000000000000000000000000000000000815260206004820152601560248201527f4552433732313a206e6f6e2d6f776e6564204e4654000000000000000000000060448201526064016104ee565b826123b0577401000000000000000000000000000000000000000081161580159061234a5750600084815260038901602052604090205473ffffffffffffffffffffffffffffffffffffffff8881169116145b6123b0576040517f08c379a000000000000000000000000000000000000000000000000000000000815260206004820152601b60248201527f4552433732313a206e6f6e2d617070726f7665642073656e646572000000000060448201526064016104ee565b6000848152600189016020526040902073ffffffffffffffffffffffffffffffffffffffff8616905581611d0c57611d0c88878760018173ffffffffffffffffffffffffffffffffffffffff168373ffffffffffffffffffffffffffffffffffffffff16146106e95773ffffffffffffffffffffffffffffffffffffffff8316600090815260028501602052604081208054839290612450908490612891565b909155505073ffffffffffffffffffffffffffffffffffffffff8216600090815260028501602052604081208054839290611846908490612a04565b7fffffffff00000000000000000000000000000000000000000000000000000000811681146105d757600080fd5b6000602082840312156124cc57600080fd5b81356106448161248c565b6000602082840312156124e957600080fd5b5035919050565b803573ffffffffffffffffffffffffffffffffffffffff8116811461251457600080fd5b919050565b6000806040838503121561252c57600080fd5b612535836124f0565b946020939093013593505050565b60008060006060848603121561255857600080fd5b612561846124f0565b925061256f602085016124f0565b9150604084013590509250925092565b6000806040838503121561259257600080fd5b823591506125a2602084016124f0565b90509250929050565b6000602082840312156125bd57600080fd5b610644826124f0565b600080604083850312156125d957600080fd5b6125e2836124f0565b9150602083013580151581146125f757600080fd5b809150509250929050565b6000806000806060858703121561261857600080fd5b612621856124f0565b935060208501359250604085013567ffffffffffffffff8082111561264557600080fd5b818701915087601f83011261265957600080fd5b81358181111561266857600080fd5b88602082850101111561267a57600080fd5b95989497505060200194505050565b7f4e487b7100000000000000000000000000000000000000000000000000000000600052604160045260246000fd5b600080600080608085870312156126ce57600080fd5b6126d7856124f0565b93506126e5602086016124f0565b925060408501359150606085013567ffffffffffffffff8082111561270957600080fd5b818701915087601f83011261271d57600080fd5b81358181111561272f5761272f612689565b604051601f82017fffffffffffffffffffffffffffffffffffffffffffffffffffffffffffffffe0908116603f0116810190838211818310171561277557612775612689565b816040528281528a602084870101111561278e57600080fd5b82602086016020830137600060208483010152809550505050505092959194509250565b6000806000604084860312156127c757600080fd5b6127d0846124f0565b9250602084013567ffffffffffffffff808211156127ed57600080fd5b818601915086601f83011261280157600080fd5b81358181111561281057600080fd5b8760208260051b850101111561282557600080fd5b6020830194508093505050509250925092565b6000806040838503121561284b57600080fd5b612854836124f0565b91506125a2602084016124f0565b7f4e487b7100000000000000000000000000000000000000000000000000000000600052601160045260246000fd5b6000828210156128a3576128a3612862565b500390565b60005b838110156128c35781810151838201526020016128ab565b838111156106e95750506000910152565b7f416363657373436f6e74726f6c3a206d697373696e672027000000000000000081526000825161290c8160188501602087016128a8565b7f2720726f6c6500000000000000000000000000000000000000000000000000006018939091019283015250601e01919050565b600081518084526129588160208601602086016128a8565b601f017fffffffffffffffffffffffffffffffffffffffffffffffffffffffffffffffe0169290920160200192915050565b6020815260006106446020830184612940565b7f4e487b7100000000000000000000000000000000000000000000000000000000600052603260045260246000fd5b60007fffffffffffffffffffffffffffffffffffffffffffffffffffffffffffffffff82036129fd576129fd612862565b5060010190565b60008219821115612a1757612a17612862565b500190565b600081612a2b57612a2b612862565b507fffffffffffffffffffffffffffffffffffffffffffffffffffffffffffffffff0190565b600073ffffffffffffffffffffffffffffffffffffffff808716835280861660208401525083604083015260806060830152612a906080830184612940565b9695505050505050565b600060208284031215612aac57600080fd5b81516106448161248c56fea264697066735822122080cb35b40c64e47c19d015899658451bbafa74518357c38d9036d2a7b492b73464736f6c634300080d0033",
  "linkReferences": {},
  "deployedLinkReferences": {}
}