{
  "_format": "hh-sol-artifact-1",
  "contractName": "PausableFacetMock",
  "sourceName": "contracts/mocks/lifecycle/PausableFacetMock.sol",
  "abi": [
    {
      "inputs": [
        {
          "internalType": "contract IForwarderRegistry",
          "name": "forwarderRegistry",
          "type": "address"
        }
      ],
      "stateMutability": "nonpayable",
      "type": "constructor"
    },
    {
      "anonymous": false,
      "inputs": [],
      "name": "Paused",
      "type": "event"
    },
    {
      "anonymous": false,
      "inputs": [],
      "name": "Unpaused",
      "type": "event"
    },
    {
      "inputs": [],
      "name": "__msgData",
      "outputs": [
        {
          "internalType": "bytes",
          "name": "",
          "type": "bytes"
        }
      ],
      "stateMutability": "view",
      "type": "function"
    },
    {
      "inputs": [],
      "name": "enforceIsNotPaused",
      "outputs": [],
      "stateMutability": "view",
      "type": "function"
    },
    {
      "inputs": [],
      "name": "enforceIsPaused",
      "outputs": [],
      "stateMutability": "view",
      "type": "function"
    },
    {
      "inputs": [
        {
          "internalType": "bool",
          "name": "isPaused",
          "type": "bool"
        }
      ],
      "name": "initPauseStorage",
      "outputs": [],
      "stateMutability": "nonpayable",
      "type": "function"
    },
    {
      "inputs": [],
      "name": "pause",
      "outputs": [],
      "stateMutability": "nonpayable",
      "type": "function"
    },
    {
      "inputs": [],
      "name": "paused",
      "outputs": [
        {
          "internalType": "bool",
          "name": "",
          "type": "bool"
        }
      ],
      "stateMutability": "view",
      "type": "function"
    },
    {
      "inputs": [],
      "name": "unpause",
      "outputs": [],
      "stateMutability": "nonpayable",
      "type": "function"
    }
  ],
  "bytecode": "0x60a06040523480156200001157600080fd5b506040516200295738038062002957833981810160405281019062000037919062000200565b80806200006d7f6a83522c126b1f14401cda64886fc651a7060f385b5e2d289e620e1859fee4e760001b6200017960201b60201c565b620000a17ff6fd3c5688ac3ada9425e55f9cce326a85fd64fca9b1584401f3d2203aee560b60001b6200017960201b60201c565b620000d57fe7883c748f395270b53c914004a2b83ffb6acf3836fed33ec0a3c0eb061e618860001b6200017960201b60201c565b8073ffffffffffffffffffffffffffffffffffffffff1660808173ffffffffffffffffffffffffffffffffffffffff1681525050506200013e7fb8ad39a236bf0b85ef81cef62550893fa0d483b025c5c5c0a378147f657b04ff60001b6200017c60201b60201c565b50620001727ecc66a53a36e42a0abc7186ecb33cf25eb9c219e9c1391b80fea10eab08f0f460001b6200017f60201b60201c565b5062000232565b50565b50565b50565b600080fd5b600073ffffffffffffffffffffffffffffffffffffffff82169050919050565b6000620001b48262000187565b9050919050565b6000620001c882620001a7565b9050919050565b620001da81620001bb565b8114620001e657600080fd5b50565b600081519050620001fa81620001cf565b92915050565b60006020828403121562000219576200021862000182565b5b60006200022984828501620001e9565b91505092915050565b6080516126f4620002636000396000818161183a0152818161188f01528181611cea0152611d3f01526126f46000f3fe608060405234801561001057600080fd5b506004361061007d5760003560e01c80638456cb591161005b5780638456cb59146100c9578063859f7acb146100d35780638ebd8073146100dd578063b606577c146100e75761007d565b806331e66e1e146100825780633f4ba83a146100a15780635c975abb146100ab575b600080fd5b61008a610103565b60405161009892919061227b565b60405180910390f35b6100a961019a565b005b6100b36102a9565b6040516100c091906122ba565b60405180910390f35b6100d1610344565b005b6100db610453565b005b6100e56104e9565b005b61010160048036038101906100fc9190612306565b61057f565b005b3660006101327f49517bc04c95c56b113decd5fce24306f97ac10dff74ad8daa972fab410a630860001b610699565b61015e7faa2536aefb4d8c1695695eb8979eecf3ea71912d0234a14d08a98d0653c54efc60001b610699565b61018a7f8837bafd67ac773b6f768217d3300fd5f01937ee4c7fd6708c02493417f26ae260001b610699565b61019261069c565b915091509091565b6101c67f6fff9989851e5ae8159c04a803e8e6d9df306768503cb56013714acbb54084a660001b610733565b6101f27fe1506cdb9a53a5d653ee6ca0e8aacc38165260daa5ff8c6ef7430dfc8a6e6af360001b610733565b61021e7f3a415ac8e1b27a65fcb315c882d8d11f017848a51d888373c19f79fd7307292460001b610733565b61023f610229610736565b6102316107c9565b6108b990919063ffffffff16565b61026b7f41131bb173e1004ed6e18d64031da5e3487037e60a96f62cee3371525084dd4e60001b610733565b6102977f03840184e2b2478492be5f4eeda1b2960b872861a9375de58933e27b5a5f02df60001b610733565b6102a76102a2610a2b565b610b1b565b565b60006102d77fd56720dda48b6d0fb47cbd4507fad1f67986e6ca1d61a44b09137c103ee012f960001b610733565b6103037f11641a4048ac9d7047eda065499821cd88b0a580c44d43aff6fd90e5699744ba60001b610733565b61032f7f496a0fd73d59b177aaf85c0dcec0e2b2efbca209c7f7907c9ac41972ee39074160001b610733565b61033f61033a610a2b565b610ca4565b905090565b6103707ff226eb85e9a0033ef97d98d6e9d490adac964c0f51a905c7e32cac8794b174b560001b610733565b61039c7ffe82579708000ae9aaed1d9867a80fcb50eacf3d0962c4da55be45df9137007a60001b610733565b6103c87f0e72df1ac57b382a9dfb23fa5740eb7a4c6e172794a4b66b7f30ab616207949660001b610733565b6103e96103d3610736565b6103db6107c9565b6108b990919063ffffffff16565b6104157ffa08cc028cd9d4cd0123f684a950d2f802ad72e80e4863f463612007c1a3087960001b610733565b6104417f5bfb161f3c6da584f965049603fa5042043b8823fc25bbafc77ae7304f70523560001b610733565b61045161044c610a2b565b610d43565b565b61047f7f96b6de918c577d9d09760a0a3c158049f4d0a4c1e2b1a60dbb3a57817302f78b60001b610699565b6104ab7ffbaba88817ca6b45cce03aa8adc2a33521d201c972de5741aa3e5a29eb84fd5760001b610699565b6104d77f67be695655bd87cdd368474579024702fbfaeb464b55fe882aa3bd75a033c50060001b610699565b6104e76104e2610a2b565b610ecc565b565b6105157f390c1e9f1a1a85aa7491234c762f3c5696c25c8c080890dcf81723b36a162e8060001b610699565b6105417f9ef765f42a692efbc51d72ce3a10e0ea28b4188c1239878a50c2673bdb7e6a1e60001b610699565b61056d7fe65cbfa1203505f1ecb4f7e650cfb775fa4867de72d4635eb2c6bc287576fb0e60001b610699565b61057d610578610a2b565b610ffc565b565b6105ab7fa46779b5fb2570bd8c9d38822b7d115810804daf39f8c40c59a8110924e3056360001b61112d565b6105d77fa4a38575285f8a97b36e3e4d0e92cd002be22b5a8623896ba5783092ec8a07d260001b61112d565b6106037fe8f5d461e3a708ea1ea9f7037a8768b609bf679a47eeac3b4074e36827fa6c6260001b61112d565b61062461060e610736565b610616611130565b61122090919063ffffffff16565b6106507f17206a1db3fae2590e0dfda90a45b5e151576c46f4835d8b04bbbb47b77b57a860001b61112d565b61067c7f90317c8083b89f2610cdd2598e7794084ba00338949b9c89efa459c8e2250d6260001b61112d565b61069681610688610a2b565b61139290919063ffffffff16565b50565b50565b3660006106cb7f84bdf1012891ada14755238072c6e089f8460a73e913f58ce183f3813df3356060001b61112d565b6106f77f099e23f25a0ec29a00ef22ca515397b5fd634ecb93c229e3e879ef406edbcafb60001b61112d565b6107237f4aa722a871cda9f0f88b058e5adb1b9be2293158a48c1893a14ec2dd1e21555860001b61112d565b61072b61160c565b915091509091565b50565b60006107647f3da773ae643b6729f765ac26b400b6dca0d848348dbe75396a2ca40ee0c7773660001b61112d565b6107907fba87267d15ee84a069488efe8101a70e5b1778b901a7585f372b08607fd2227660001b61112d565b6107bc7f8bd19cad94972dee2a85bdba3210c62f201fe5479582bc7fcd33d35b7c9039f360001b61112d565b6107c4611a5d565b905090565b60006107f77f12b4db1a13ae954a255ef0fa37765d8ee1e39537e429053253a663eff808644d60001b611efa565b6108237feebae444011023bb1eb9d991a8900c1fc6c9dc05e526ab9149645480ea211c3e60001b611efa565b61084f7f7a85e8875e57667831d822c4c89a943f00106e2fdc910c0df83014dfd0d1477360001b611efa565b600060017f6a1da6973104ff7dedb9b4f5cab5830b3f4a0284ed754366cfc45568bd2d38df60001c610881919061236c565b60001b90506108b27fcd65f8dce9f650605649809ea57b1b403b2167736801d4eb4d6da1b99327986060001b611efa565b8091505090565b6108e57f311cb72dc07750d6828e4b4e89b77f33fb16c70db0f74c9dbf7e01b75fe2538460001b611efa565b6109117f5a948a147df45bdb71c8f98a865604b23d4880b5921ab247626470201792a9d460001b611efa565b61093d7faa1ac481ace62e8856a31e42b6fa6ad7e8b29c10fa062b8775baa1bf5185f76360001b611efa565b6109697fa565745ecf1d7ea43fd9e19c5a7b72dbef31f2d274ba98df9594459d1fdda02f60001b611efa565b8160000160009054906101000a900473ffffffffffffffffffffffffffffffffffffffff1673ffffffffffffffffffffffffffffffffffffffff168173ffffffffffffffffffffffffffffffffffffffff16146109fb576040517f08c379a00000000000000000000000000000000000000000000000000000000081526004016109f2906123fd565b60405180910390fd5b610a277f3cdf1cbcd193a5f563b48f16d650e4ae6a3f20aa956e2ea1fe221c3ff0241bd160001b611efa565b5050565b6000610a597fdebc1e9af392a36192084cee67e7ce35a3dad9d56d28914ba0b161a83e4a09bc60001b611efd565b610a857f53f6d6e51bbd6ce87e6ad32d8ac6b805fd31680c1bffced52305309188d6ddd760001b611efd565b610ab17f03c34d4737e15fb617b65441edd1b0846e98c91aaa43f5f0a3301d41ae1ba74060001b611efd565b600060017ffd6a7063f27337ade8f0157bddcda1459491d9175ccca22006adfec651d73f4960001c610ae3919061236c565b60001b9050610b147fc433678b8de1c9c218dbab453e8eda884db98e32abb8b55862a00566ac995f5060001b611efd565b8091505090565b610b477f9912fd1c6205d13db609ad8a722bba424bb759e3b30ead9a6c50024a3aa3f05460001b611efd565b610b737f0f5cf322298b24454adfb2d580a43472cb010cf4db85c03991954938db0135a860001b611efd565b610b9f7f592245fa71e8244008e3d2adb1f393ccdee939a2a79b657310177987d0c462e060001b611efd565b610ba881610ecc565b610bd47fc5ed3c78b57dfb1266393f1e71715e325844f32742429ba3383feb0509c256f860001b611efd565b610c007fb94a9246bf7b08d706dbd58f3f3ad14a8d69f6b3a0ff39fc4463036890e5df4c60001b611efd565b60008160000160006101000a81548160ff021916908315150217905550610c497f081d4ecda32330488baecd8de498660dc6ab7b81723bd60d9fecedecb9ccc37760001b611efd565b610c757fa096f4c58652b8bb1a5101a45cbe5d358a48013ce2c28bd967232a7f9cdf99cc60001b611efd565b7fa45f47fdea8a1efdd9029a5691c7f759c32b7c698632b563573e155625d1693360405160405180910390a150565b6000610cd27fcad7b1c29c2f2edefe67ca4203ca642407b06acf245bef89bd906e539f7bbf3c60001b611efd565b610cfe7fa67a7e9321486ff9c56e451c6f9e88b7ccde69a01d6c131ddda5b7818469675560001b611efd565b610d2a7f75f581c132f68b4bc2631dba32097e2c01e66fd29a6453766c1e3cf28cd00a9a60001b611efd565b8160000160009054906101000a900460ff169050919050565b610d6f7f5613e0c53b5b8fa1364f20b594298d81b86e5b9189c5f302c8409b84f8a0c9b060001b611efd565b610d9b7f5de887f545dd00c71c97cc2200326b07f6b0bf5599df5f6067a704239d06c1e560001b611efd565b610dc77fa25229c7a8a756c858623b44632b8f285ca2afa67ec542400a74b801cfa059cc60001b611efd565b610dd081610ffc565b610dfc7f3ae1699da2c35a35eca1d68d2984b50a877b149e77785ee778acfcbee695a75960001b611efd565b610e287f50b19b375c55f591c4cf23180ed2216970394ef371fc7352d86e79fec42a3a4460001b611efd565b60018160000160006101000a81548160ff021916908315150217905550610e717fd8326d73ac591164d337d52a569ad1667bb03fde455eb6f1508f1f5c42ea90e360001b611efd565b610e9d7f0597abdaaa1d18a8a6d6476219a1d320fd1bfb8e37f9aa299b6709d46c2f485a60001b611efd565b7f9e87fac88ff661f02d44f95383c817fece4bce600a3dab7a54406878b965e75260405160405180910390a150565b610ef87fa7ec9910390f1685a196bd00f321be82df072c3638ebd4bfcdcfd0e77deee19660001b611efd565b610f247f95d4e915f7052e69e812613fe9287ec54e254853a00eed7a681005f3528c6c8460001b611efd565b610f507f69e94e4f8f8f658e9b0c524ffd34f011cc6ab96d1b1b1acb32087849b24642f960001b611efd565b610f7c7f2c5e5381e7bd3fd3b88907aa030d198dc892406f1215a4047a0a45ef7fadcc5560001b611efd565b8060000160009054906101000a900460ff16610fcd576040517f08c379a0000000000000000000000000000000000000000000000000000000008152600401610fc490612469565b60405180910390fd5b610ff97f156965570190b1a80e420eb24a6ff2d871a4c591e63293f6b791a57a4fc6582f60001b611efd565b50565b6110287fd69718b9e5a26c3cc6944d404840f03efbd50544db45cc89f95647ec9fc249b060001b611efd565b6110547fd894e80b2db39936504ef8b2ae437f7ab7a21c3b7500725c698c58a99a2469f160001b611efd565b6110807fad6626ff87340cbca78f4374e8f6c98cabe6a3ace736b66cf67e83bfa4af7e0960001b611efd565b6110ac7f238e3e6d2a8f87408eb27c6976d58d8246a14f7f884723b63b43a66c370ffe2360001b611efd565b8060000160009054906101000a900460ff16156110fe576040517f08c379a00000000000000000000000000000000000000000000000000000000081526004016110f5906124d5565b60405180910390fd5b61112a7f7795cf7e5f1dfbf963746cd7ad09ca08361a777a126a9e92a2365a23e0ec28fa60001b611efd565b50565b50565b600061115e7f29f8332165901d83adc683db950bfa7095446b76821902b9cad5a516e9f9f82660001b611f00565b61118a7f5c570bd87bb3a186c2c87ff3dd5f58d2c75a5776fe94e0a63fa851fe46a5fa6c60001b611f00565b6111b67f405d85ac952971491b2260d550a90002555502250fb83d68df5efc35f77841ce60001b611f00565b600060017fb53127684a568b3173ae13b9f8a6016e243e63b6e8ee1178d6a717850b5d610460001c6111e8919061236c565b60001b90506112197f1d9ce065e06330dbac07abf26a98b6d505daa95772ac105ad61ed7479f8c2b1260001b611f00565b8091505090565b61124c7fbc11fd154e3161de2183b89db4eb967bb1b4cbab0325086fa95095436c11e72b60001b611f00565b6112787f1815b032362e96a6d2f880b8f118c97fe36f9016e4d7dde560dc18768369a66d60001b611f00565b6112a47f25f11631eb07cc17d412b02bd63f72577eb8df190f4046eb3478c12a4bb8ae6860001b611f00565b6112d07ff4fb509d189314ad76c001fa3c672e032a121e16ca67380d998b64660c91044960001b611f00565b8160000160009054906101000a900473ffffffffffffffffffffffffffffffffffffffff1673ffffffffffffffffffffffffffffffffffffffff168173ffffffffffffffffffffffffffffffffffffffff1614611362576040517f08c379a000000000000000000000000000000000000000000000000000000000815260040161135990612541565b60405180910390fd5b61138e7f059066040512573aa34012041b24446b05cb97113084d9f5307dec4a489aeed260001b611f00565b5050565b6113be7f5b062bd1345e23baf5ae5a0f7099cf5230851794a03562928decc560c36e188460001b611efd565b6113ea7fa780aaaed5b9a681c2cd8aad4b7e868ae13f53b842cef5d7c87fd4b1dae0c54a60001b611efd565b6114167fe05c702565d791ea9f274ad2a575f669136bd2203f500acc5dcf5b1ce8c9b20860001b611efd565b61145360017fe5fb6784a0a1056070a5e6f0674bfa852aad166e8d480f190f09f2cc31863ff360001c611449919061236c565b60001b6001611f03565b61147f7f4e11f420a20e01f4a4462dde7a75b78eab372f9c2b7b9c744d03de1b0510d77a60001b611efd565b6114ab7ffd4389b5ad7054a38c7e123a10fed24939fac4badd971041eb701451c3e4fc7c60001b611efd565b80156115db576114dd7fd616d1e6e960dbe8359f3009ce7b95cd65d70b1c7b7756a5addd2864b536211060001b611efd565b6115097f4e61fdac988cd118b5133e8242a56238b5afb09f255972ee1a4d18f4f5be369e60001b611efd565b6115357fdb3af980545927d6b21e9d62d503fea51b2c30bbced05d96fe5ab1ee341d518160001b611efd565b60018260000160006101000a81548160ff02191690831515021790555061157e7f82141f863b459eda678664e66fbbee08e98ff62db4718b4bf857e3778c493dd560001b611efd565b6115aa7ffb0e0adfd17eff4f5bb4e5d1554e3f1db8c84dc2c2cf3e564d1b41684fdeb8c660001b611efd565b7f9e87fac88ff661f02d44f95383c817fece4bce600a3dab7a54406878b965e75260405160405180910390a1611608565b6116077f8eb4fd389c8d8b0335ab8cdc21ceb802de40c17bdb6b8815c33916349f68740b60001b611efd565b5b5050565b36600061163b7ff74f168f3cfe88b8c75939ced6593b63b3a80d84384ea84798e06eb70c27e8b560001b6120f0565b6116677f0c30881a465ce740e34b44da3f5682b69b261b3b3d916bf3cb638422722c466360001b6120f0565b6116937f7d034622f0cfa82b1eafef58ff96909800ff5cbda4aec1c658399402313d1e4760001b6120f0565b60003390506116c47f3e7b906c7c24b8d911bba8092ce84f23b5c1596b35038fef4ace71fcce1f3a0e60001b6120f0565b6116f07f76d316808c9e8931ac3d89e37ff8d9a597f8e50813fa0a88766b36313e96041060001b6120f0565b3273ffffffffffffffffffffffffffffffffffffffff168173ffffffffffffffffffffffffffffffffffffffff16036117b45761174f7fa811c091d51641b1118f1402cc0638dc69041cba2f323377090e0a55500a152460001b6120f0565b61177b7ff673674fd259625637c155f7345382b871e4581df73bc53013494d30dd1dc16460001b6120f0565b6117a77f108112c7eebc35534afdbeeca8c2ad7449209fe78eeb1f9fdd0c5f6fb3111cce60001b6120f0565b6000369250925050611a59565b6117e07f8e23e3f35cdceddd8b15b45bf787b8d6ae38e04c5870f4020c01d683a2f10fc560001b6120f0565b61180c7fb4f48de4e10f2751022dce70d5876a74afb41b756eb77cdf4fe88835769afb1a60001b6120f0565b6118387f2afe9b0d9d36347d263d9c298082ea9eea1c1879c9904d44b9316a451e41b92f60001b6120f0565b7f000000000000000000000000000000000000000000000000000000000000000073ffffffffffffffffffffffffffffffffffffffff168173ffffffffffffffffffffffffffffffffffffffff16148061193157507f000000000000000000000000000000000000000000000000000000000000000073ffffffffffffffffffffffffffffffffffffffff1663e60125d66118d16120f3565b836040518363ffffffff1660e01b81526004016118ef9291906125a2565b602060405180830381865afa15801561190c573d6000803e3d6000fd5b505050506040513d601f19601f8201168201806040525081019061193091906125e0565b5b156119cc576119627f2191333a031dc1f79f931a9c32f8cc636186c8d1941bf6ad2d0e09669ccdb2fd60001b6120f0565b61198e7f625d923af8cba91f74f7ad122740e01bcd36ee0be52b9596ca85f7881a963db360001b6120f0565b6119ba7f09e6b704caf4fc80a51357d4ff43f8bab75f1133b8a694db1fb7ac8851fe64b160001b6120f0565b6119c261215a565b9250925050611a59565b6119f87fcfd0711298438e2e01b8a5c4d5745b4b2a1fa1742e9ef04643fd654ff78cfca960001b6120f0565b611a247faec17026272a3ca53764ba29e047c1b72c1edbf88732d32ffae6b5c0d7fcf39960001b6120f0565b611a507f7518e0f5afdd21984f9ce13318f9370b2d82da30fc4ffdbb78362126da32d52960001b6120f0565b60003692509250505b9091565b6000611a8b7f21f83b85e7dbc596177bc46cc6795c14520638d6db8281a9a46e4d6aa22fb1aa60001b6120f0565b611ab77f9fe8a1e1e7c5f38bddac874222fbac3da358d377b550af606038c28c918342a660001b6120f0565b611ae37f4d776035fe014c48f9b8d211e07ad5f3e10a7407e640d6fd44f001ad72ec145460001b6120f0565b6000339050611b147f1470143c211ace273ad33be67e446aa27b56df8ff21c9e30df1c1ce1aab37faf60001b6120f0565b611b407f701a5aed6b7834b1cde40063ca2763d0cc2a2d369e96d6ffd63bd7f36d010be860001b6120f0565b3273ffffffffffffffffffffffffffffffffffffffff168173ffffffffffffffffffffffffffffffffffffffff1603611c0057611b9f7fde73d737f19da71f7e0a8be64041464998117e05c9bb9f65df2259a0779caaa960001b6120f0565b611bcb7f2e1b1201e86447778e6a37c8701809fecc19c6c17c8cdf9a32e27254363f132c60001b6120f0565b611bf77f06438a6776a73eebdc69485314350483a51cfddc04e159b6f57dde5e4030039060001b6120f0565b80915050611ef7565b611c2c7f6b510e6cfe0d366d8eb68be09db038d2dbfc0ca71029993b650b184340fc438a60001b6120f0565b611c587fc81f2aa3e9c76ff8d9709ad059857726fb537b8fa6166dbedc9e3f598edddc4160001b6120f0565b611c847fd5cec79665173c3237287beadc96f615eba8ff220376c7f0add1c603fa1dcb0260001b6120f0565b6000611c8e6120f3565b9050611cbc7f16b7bdd4d503ca2d391b420534e7b71ff847aea146e0c5e9b1d972d25ac95cf360001b6120f0565b611ce87f8284349b0a2249652b224d12d5fd826a549839b4e0aab6630e88a99ebee0413860001b6120f0565b7f000000000000000000000000000000000000000000000000000000000000000073ffffffffffffffffffffffffffffffffffffffff168273ffffffffffffffffffffffffffffffffffffffff161480611dda57507f000000000000000000000000000000000000000000000000000000000000000073ffffffffffffffffffffffffffffffffffffffff1663e60125d682846040518363ffffffff1660e01b8152600401611d989291906125a2565b602060405180830381865afa158015611db5573d6000803e3d6000fd5b505050506040513d601f19601f82011682018060405250810190611dd991906125e0565b5b15611e6d57611e0b7ff1748450d5c67d16e99d465b5f46314c0a03cb614c0a36c7a01d0d452a42d63760001b6120f0565b611e377ffcb9fb7b37e10dcd260ee2b6500d072708cde8b16110ac602ac219c4f0ac7a8860001b6120f0565b611e637f0b8b6cb7f0d04c4b23441400a0a579a14ccf6e6d955d51d0d443ae3b764fbf1e60001b6120f0565b8092505050611ef7565b611e997fc6338ea7b912cb871ae88b37af8abae50806bb4e29d453caf0758aea491b82ab60001b6120f0565b611ec57fb1b2861ba78bbb686a91db34f76b76efe61d8e91016be1013861a8390b68a26860001b6120f0565b611ef17f131b91089cbc4af49187f8d51fbbc23a25f13946f6ab1ab771005101548d429760001b6120f0565b81925050505b90565b50565b50565b50565b611f2f7f523c5c55fa27c1465eb0ba13f6927ac81ca2e843dca5743a6ceafc60fd44a7a260001b61220d565b611f5b7f04772ea788fd843b127a602e9cfb0c6a91dd658dfc8c6564fb399afa5c8187c060001b61220d565b611f877fcb69cb3c0f8a75e2c548a59a9a6f16480c220dc9611455e2f2a5ff64c19012f660001b61220d565b6000611f9283612210565b9050611fc07f05454e9c8dc486b9dafcaafcc4a6b37e8e4a0bd10c5a957d6788a08d4705e74a60001b61220d565b611fec7f545be28ad664a45fbd66a4b1cf9af17e7b7fa1c0858756e55615423b09c10cf960001b61220d565b6120187f7b74d3cbf19e745235b98e2e533402f6fea14c7950d83932d7459f8c0776ae7560001b61220d565b8181600001541061205e576040517f08c379a000000000000000000000000000000000000000000000000000000000815260040161205590612659565b60405180910390fd5b61208a7fb77e179c39cd483a2fb9d49c9d6baaf337e679c6fc0b0193351b78700052fb6060001b61220d565b6120b67f73251853a52f4546290b9dbdb4820ad06a75d361304d051af620ac9db846f98760001b61220d565b6120e27f8670f345bbc08bb652aae01676abdbb142983e1527aecdd350c544d4ac9aa25360001b61220d565b818160000181905550505050565b50565b60006121217fd2d14d566965719ee17c5b60ff32623f910e7a0e574f2eeae19a64856bd35c4c60001b61221a565b61214d7fa390d1eca31ebd819e35c63e13daa420bd40dcdd984217eef68768880371b01d60001b61221a565b601436033560601c905090565b3660006121897f7a9fde0e4d93131667b711f92dc641fa832990e5bb6a3b4626ffa6b5d4f3fdae60001b61221a565b6121b57fc610f11635537ce6a03686b10e383cf783da248254319abfbb04eeb973e3acd760001b61221a565b6121e17f17531d10ccf76e2a802938b28b374efcd761ac66995a64071083ebf2a16e732060001b61221a565b600036600090601460003690506121f8919061236c565b9261220593929190612683565b915091509091565b50565b6000819050919050565b50565b600082825260208201905092915050565b82818337600083830152505050565b6000601f19601f8301169050919050565b600061225a838561221d565b935061226783858461222e565b6122708361223d565b840190509392505050565b6000602082019050818103600083015261229681848661224e565b90509392505050565b60008115159050919050565b6122b48161229f565b82525050565b60006020820190506122cf60008301846122ab565b92915050565b600080fd5b6122e38161229f565b81146122ee57600080fd5b50565b600081359050612300816122da565b92915050565b60006020828403121561231c5761231b6122d5565b5b600061232a848285016122f1565b91505092915050565b6000819050919050565b7f4e487b7100000000000000000000000000000000000000000000000000000000600052601160045260246000fd5b600061237782612333565b915061238283612333565b9250828210156123955761239461233d565b5b828203905092915050565b600082825260208201905092915050565b7f4f776e6572736869703a206e6f7420746865206f776e65720000000000000000600082015250565b60006123e76018836123a0565b91506123f2826123b1565b602082019050919050565b60006020820190508181036000830152612416816123da565b9050919050565b7f50617573653a206e6f7420706175736564000000000000000000000000000000600082015250565b60006124536011836123a0565b915061245e8261241d565b602082019050919050565b6000602082019050818103600083015261248281612446565b9050919050565b7f50617573653a2070617573656400000000000000000000000000000000000000600082015250565b60006124bf600d836123a0565b91506124ca82612489565b602082019050919050565b600060208201905081810360008301526124ee816124b2565b9050919050565b7f50726f787941646d696e3a206e6f74207468652061646d696e00000000000000600082015250565b600061252b6019836123a0565b9150612536826124f5565b602082019050919050565b6000602082019050818103600083015261255a8161251e565b9050919050565b600073ffffffffffffffffffffffffffffffffffffffff82169050919050565b600061258c82612561565b9050919050565b61259c81612581565b82525050565b60006040820190506125b76000830185612593565b6125c46020830184612593565b9392505050565b6000815190506125da816122da565b92915050565b6000602082840312156125f6576125f56122d5565b5b6000612604848285016125cb565b91505092915050565b7f53746f726167653a2076657273696f6e20726561636865640000000000000000600082015250565b60006126436018836123a0565b915061264e8261260d565b602082019050919050565b6000602082019050818103600083015261267281612636565b9050919050565b600080fd5b600080fd5b6000808585111561269757612696612679565b5b838611156126a8576126a761267e565b5b600185028301915084860390509450949250505056fea2646970667358221220cb775acfd53673ed180e70d97089fa8d563593de833c5abfc8198284fb0bb7fa64736f6c634300080d0033",
  "linkReferences": {},
  "deployedLinkReferences": {}
}