{
  "_format": "hh-sol-artifact-1",
  "contractName": "TokenRecoveryFacet",
  "sourceName": "contracts/security/TokenRecoveryFacet.sol",
  "abi": [
    {
      "inputs": [
        {
          "internalType": "contract IForwarderRegistry",
          "name": "forwarderRegistry",
          "type": "address"
        }
      ],
      "stateMutability": "nonpayable",
      "type": "constructor"
    },
    {
      "inputs": [
        {
          "internalType": "address[]",
          "name": "accounts",
          "type": "address[]"
        },
        {
          "internalType": "address[]",
          "name": "tokens",
          "type": "address[]"
        },
        {
          "internalType": "uint256[]",
          "name": "amounts",
          "type": "uint256[]"
        }
      ],
      "name": "recoverERC20s",
      "outputs": [],
      "stateMutability": "nonpayable",
      "type": "function"
    },
    {
      "inputs": [
        {
          "internalType": "address[]",
          "name": "accounts",
          "type": "address[]"
        },
        {
          "internalType": "address[]",
          "name": "contracts",
          "type": "address[]"
        },
        {
          "internalType": "uint256[]",
          "name": "tokenIds",
          "type": "uint256[]"
        }
      ],
      "name": "recoverERC721s",
      "outputs": [],
      "stateMutability": "nonpayable",
      "type": "function"
    },
    {
      "inputs": [
        {
          "internalType": "address payable[]",
          "name": "accounts",
          "type": "address[]"
        },
        {
          "internalType": "uint256[]",
          "name": "amounts",
          "type": "uint256[]"
        }
      ],
      "name": "recoverETH",
      "outputs": [],
      "stateMutability": "nonpayable",
      "type": "function"
    }
  ],
  "bytecode": "0x60a060405234801561001057600080fd5b50604051610ec6380380610ec683398101604081905261002f91610040565b6001600160a01b0316608052610070565b60006020828403121561005257600080fd5b81516001600160a01b038116811461006957600080fd5b9392505050565b608051610e346100926000396000818161073c01526107dc0152610e346000f3fe608060405234801561001057600080fd5b50600436106100415760003560e01c806373c8a95814610046578063c3666c361461005b578063f7ba94bd1461006e575b600080fd5b610059610054366004610b67565b610081565b005b610059610069366004610b67565b6101b7565b61005961007c366004610c01565b61035c565b61009a61008c61044a565b610094610459565b9061048d565b8483811480156100a957508082145b610114576040517f08c379a000000000000000000000000000000000000000000000000000000000815260206004820152601d60248201527f5265636f766572793a20696e636f6e73697374656e742061727261797300000060448201526064015b60405180910390fd5b60005b8181146101ad576101a588888381811061013357610133610c6d565b90506020020160208101906101489190610cc1565b85858481811061015a5761015a610c6d565b9050602002013588888581811061017357610173610c6d565b90506020020160208101906101889190610cc1565b73ffffffffffffffffffffffffffffffffffffffff169190610514565b600101610117565b5050505050505050565b6101c261008c61044a565b8483811480156101d157508082145b610237576040517f08c379a000000000000000000000000000000000000000000000000000000000815260206004820152601d60248201527f5265636f766572793a20696e636f6e73697374656e7420617272617973000000604482015260640161010b565b60005b8181146101ad5785858281811061025357610253610c6d565b90506020020160208101906102689190610cc1565b73ffffffffffffffffffffffffffffffffffffffff166323b872dd308a8a8581811061029657610296610c6d565b90506020020160208101906102ab9190610cc1565b8787868181106102bd576102bd610c6d565b6040517fffffffff0000000000000000000000000000000000000000000000000000000060e088901b16815273ffffffffffffffffffffffffffffffffffffffff958616600482015294909316602485015250602090910201356044820152606401600060405180830381600087803b15801561033957600080fd5b505af115801561034d573d6000803e3d6000fd5b5050505080600101905061023a565b61036761008c61044a565b828181146103d1576040517f08c379a000000000000000000000000000000000000000000000000000000000815260206004820152601d60248201527f5265636f766572793a20696e636f6e73697374656e7420617272617973000000604482015260640161010b565b60005b8181146104425761043a8484838181106103f0576103f0610c6d565b9050602002013587878481811061040957610409610c6d565b905060200201602081019061041e9190610cc1565b73ffffffffffffffffffffffffffffffffffffffff16906105a6565b6001016103d4565b505050505050565b6000610454610700565b905090565b60008061048760017fc9ed16f33ab3a66c84bfd83099ccb2a8845871e2e1c1928f63797152f0fd54cd610cde565b92915050565b815473ffffffffffffffffffffffffffffffffffffffff828116911614610510576040517f08c379a000000000000000000000000000000000000000000000000000000000815260206004820152601860248201527f4f776e6572736869703a206e6f7420746865206f776e65720000000000000000604482015260640161010b565b5050565b6040805173ffffffffffffffffffffffffffffffffffffffff8416602482015260448082018490528251808303909101815260649091019091526020810180517bffffffffffffffffffffffffffffffffffffffffffffffffffffffff167fa9059cbb000000000000000000000000000000000000000000000000000000001790526105a1908490610858565b505050565b80471015610610576040517f08c379a000000000000000000000000000000000000000000000000000000000815260206004820152601d60248201527f416464726573733a20696e73756666696369656e742062616c616e6365000000604482015260640161010b565b60008273ffffffffffffffffffffffffffffffffffffffff168260405160006040518083038185875af1925050503d806000811461066a576040519150601f19603f3d011682016040523d82523d6000602084013e61066f565b606091505b50509050806105a1576040517f08c379a000000000000000000000000000000000000000000000000000000000815260206004820152603a60248201527f416464726573733a20756e61626c6520746f2073656e642076616c75652c207260448201527f6563697069656e74206d61792068617665207265766572746564000000000000606482015260840161010b565b60003332810361070f57919050565b6000367fffffffffffffffffffffffffffffffffffffffffffffffffffffffffffffffec013560601c90507f000000000000000000000000000000000000000000000000000000000000000073ffffffffffffffffffffffffffffffffffffffff168273ffffffffffffffffffffffffffffffffffffffff16148061084757506040517fe60125d600000000000000000000000000000000000000000000000000000000815273ffffffffffffffffffffffffffffffffffffffff828116600483015283811660248301527f0000000000000000000000000000000000000000000000000000000000000000169063e60125d690604401602060405180830381865afa158015610823573d6000803e3d6000fd5b505050506040513d601f19601f820116820180604052508101906108479190610d1c565b156108525792915050565b50919050565b600061089582604051806060016040528060238152602001610ddc6023913973ffffffffffffffffffffffffffffffffffffffff86169190610919565b8051909150156105a157808060200190518101906108b39190610d1c565b6105a1576040517f08c379a000000000000000000000000000000000000000000000000000000000815260206004820152601e60248201527f4552433230577261707065723a206f7065726174696f6e206661696c65640000604482015260640161010b565b60606109288484600085610932565b90505b9392505050565b6060824710156109c4576040517f08c379a000000000000000000000000000000000000000000000000000000000815260206004820152602660248201527f416464726573733a20696e73756666696369656e742062616c616e636520666f60448201527f722063616c6c0000000000000000000000000000000000000000000000000000606482015260840161010b565b73ffffffffffffffffffffffffffffffffffffffff85163b610a42576040517f08c379a000000000000000000000000000000000000000000000000000000000815260206004820152601d60248201527f416464726573733a2063616c6c20746f206e6f6e2d636f6e7472616374000000604482015260640161010b565b6000808673ffffffffffffffffffffffffffffffffffffffff168587604051610a6b9190610d6e565b60006040518083038185875af1925050503d8060008114610aa8576040519150601f19603f3d011682016040523d82523d6000602084013e610aad565b606091505b5091509150610abd828286610ac8565b979650505050505050565b60608315610ad757508161092b565b825115610ae75782518084602001fd5b816040517f08c379a000000000000000000000000000000000000000000000000000000000815260040161010b9190610d8a565b60008083601f840112610b2d57600080fd5b50813567ffffffffffffffff811115610b4557600080fd5b6020830191508360208260051b8501011115610b6057600080fd5b9250929050565b60008060008060008060608789031215610b8057600080fd5b863567ffffffffffffffff80821115610b9857600080fd5b610ba48a838b01610b1b565b90985096506020890135915080821115610bbd57600080fd5b610bc98a838b01610b1b565b90965094506040890135915080821115610be257600080fd5b50610bef89828a01610b1b565b979a9699509497509295939492505050565b60008060008060408587031215610c1757600080fd5b843567ffffffffffffffff80821115610c2f57600080fd5b610c3b88838901610b1b565b90965094506020870135915080821115610c5457600080fd5b50610c6187828801610b1b565b95989497509550505050565b7f4e487b7100000000000000000000000000000000000000000000000000000000600052603260045260246000fd5b73ffffffffffffffffffffffffffffffffffffffff81168114610cbe57600080fd5b50565b600060208284031215610cd357600080fd5b813561092b81610c9c565b600082821015610d17577f4e487b7100000000000000000000000000000000000000000000000000000000600052601160045260246000fd5b500390565b600060208284031215610d2e57600080fd5b8151801515811461092b57600080fd5b60005b83811015610d59578181015183820152602001610d41565b83811115610d68576000848401525b50505050565b60008251610d80818460208701610d3e565b9190910192915050565b6020815260008251806020840152610da9816040850160208701610d3e565b601f017fffffffffffffffffffffffffffffffffffffffffffffffffffffffffffffffe016919091016040019291505056fe4552433230577261707065723a206c6f772d6c6576656c2063616c6c206661696c6564a2646970667358221220daab6e64ac8c98d3ac4424703b444d3b1933b5f16c45bf882bff961ef549c11964736f6c634300080e0033",
  "linkReferences": {},
  "deployedLinkReferences": {}
}