{
  "_format": "hh-sol-artifact-1",
  "contractName": "InterfaceDetectionFacetMock",
  "sourceName": "contracts/mocks/introspection/InterfaceDetectionFacetMock.sol",
  "abi": [
    {
      "inputs": [
        {
          "internalType": "bytes4",
          "name": "interfaceId",
          "type": "bytes4"
        },
        {
          "internalType": "bool",
          "name": "supported",
          "type": "bool"
        }
      ],
      "name": "setSupportedInterface",
      "outputs": [],
      "stateMutability": "nonpayable",
      "type": "function"
    },
    {
      "inputs": [
        {
          "internalType": "bytes4",
          "name": "interfaceId",
          "type": "bytes4"
        }
      ],
      "name": "supportsInterface",
      "outputs": [
        {
          "internalType": "bool",
          "name": "",
          "type": "bool"
        }
      ],
      "stateMutability": "view",
      "type": "function"
    }
  ],
  "bytecode": "0x608060405234801561001057600080fd5b50610390806100206000396000f3fe608060405234801561001057600080fd5b50600436106100365760003560e01c806301ffc9a71461003b5780637f73528b14610062575b600080fd5b61004e6100493660046102be565b610077565b604051901515815260200160405180910390f35b6100756100703660046102e0565b610091565b005b600061008b826100856100a9565b906100d7565b92915050565b6100a5828261009e6100a9565b9190610195565b5050565b60008061008b60017fca9d3e17f264b0f3984e2634e94adb37fa3e6a8103f06aeae6fa59e21c769f5e61031c565b60007fffffffff00000000000000000000000000000000000000000000000000000000808316900361010b5750600061008b565b7ffe003659000000000000000000000000000000000000000000000000000000007fffffffff0000000000000000000000000000000000000000000000000000000083160161015c5750600161008b565b507fffffffff00000000000000000000000000000000000000000000000000000000166000908152602091909152604090205460ff1690565b7fffffffff000000000000000000000000000000000000000000000000000000008083169003610225576040517f08c379a000000000000000000000000000000000000000000000000000000000815260206004820152601f60248201527f496e74657266616365446574656374696f6e3a2077726f6e672076616c756500604482015260640160405180910390fd5b7fffffffff00000000000000000000000000000000000000000000000000000000919091166000908152602092909252604090912080547fffffffffffffffffffffffffffffffffffffffffffffffffffffffffffffff0016911515919091179055565b80357fffffffff00000000000000000000000000000000000000000000000000000000811681146102b957600080fd5b919050565b6000602082840312156102d057600080fd5b6102d982610289565b9392505050565b600080604083850312156102f357600080fd5b6102fc83610289565b91506020830135801515811461031157600080fd5b809150509250929050565b600082821015610355577f4e487b7100000000000000000000000000000000000000000000000000000000600052601160045260246000fd5b50039056fea2646970667358221220ca9c5e23ef56781279e4cec288662a0cd4597a3737ebdc91c961a9f84b58fc5b64736f6c634300080e0033",
  "linkReferences": {},
  "deployedLinkReferences": {}
}