{
  "_format": "hh-sol-artifact-1",
  "contractName": "ERC721FullProxiedMock",
  "sourceName": "contracts/mocks/token/ERC721/preset/proxied/ERC721FullProxiedMock.sol",
  "abi": [
    {
      "inputs": [
        {
          "internalType": "contract IForwarderRegistry",
          "name": "forwarderRegistry",
          "type": "address"
        }
      ],
      "stateMutability": "nonpayable",
      "type": "constructor"
    },
    {
      "inputs": [
        {
          "internalType": "uint256",
          "name": "percentage",
          "type": "uint256"
        }
      ],
      "name": "ERC2981IncorrectRoyaltyPercentage",
      "type": "error"
    },
    {
      "inputs": [],
      "name": "ERC2981IncorrectRoyaltyReceiver",
      "type": "error"
    },
    {
      "inputs": [],
      "name": "ERC721BalanceOfAddressZero",
      "type": "error"
    },
    {
      "inputs": [
        {
          "internalType": "uint256",
          "name": "tokenId",
          "type": "uint256"
        }
      ],
      "name": "ERC721ExistingToken",
      "type": "error"
    },
    {
      "inputs": [],
      "name": "ERC721MintToAddressZero",
      "type": "error"
    },
    {
      "inputs": [
        {
          "internalType": "address",
          "name": "sender",
          "type": "address"
        },
        {
          "internalType": "address",
          "name": "owner",
          "type": "address"
        },
        {
          "internalType": "uint256",
          "name": "tokenId",
          "type": "uint256"
        }
      ],
      "name": "ERC721NonApprovedForApproval",
      "type": "error"
    },
    {
      "inputs": [
        {
          "internalType": "address",
          "name": "sender",
          "type": "address"
        },
        {
          "internalType": "address",
          "name": "owner",
          "type": "address"
        },
        {
          "internalType": "uint256",
          "name": "tokenId",
          "type": "uint256"
        }
      ],
      "name": "ERC721NonApprovedForTransfer",
      "type": "error"
    },
    {
      "inputs": [
        {
          "internalType": "uint256",
          "name": "tokenId",
          "type": "uint256"
        }
      ],
      "name": "ERC721NonExistingToken",
      "type": "error"
    },
    {
      "inputs": [
        {
          "internalType": "address",
          "name": "account",
          "type": "address"
        },
        {
          "internalType": "uint256",
          "name": "tokenId",
          "type": "uint256"
        }
      ],
      "name": "ERC721NonOwnedToken",
      "type": "error"
    },
    {
      "inputs": [
        {
          "internalType": "address",
          "name": "recipient",
          "type": "address"
        },
        {
          "internalType": "uint256",
          "name": "tokenId",
          "type": "uint256"
        }
      ],
      "name": "ERC721SafeTransferRejected",
      "type": "error"
    },
    {
      "inputs": [
        {
          "internalType": "address",
          "name": "account",
          "type": "address"
        }
      ],
      "name": "ERC721SelfApproval",
      "type": "error"
    },
    {
      "inputs": [
        {
          "internalType": "address",
          "name": "account",
          "type": "address"
        }
      ],
      "name": "ERC721SelfApprovalForAll",
      "type": "error"
    },
    {
      "inputs": [],
      "name": "ERC721TransferToAddressZero",
      "type": "error"
    },
    {
      "inputs": [],
      "name": "IllegalInterfaceId",
      "type": "error"
    },
    {
      "inputs": [],
      "name": "InconsistentArrayLengths",
      "type": "error"
    },
    {
      "inputs": [
        {
          "internalType": "uint256",
          "name": "currentPhase",
          "type": "uint256"
        },
        {
          "internalType": "uint256",
          "name": "newPhase",
          "type": "uint256"
        }
      ],
      "name": "InitializationPhaseAlreadyReached",
      "type": "error"
    },
    {
      "inputs": [
        {
          "internalType": "address",
          "name": "account",
          "type": "address"
        }
      ],
      "name": "NotContractOwner",
      "type": "error"
    },
    {
      "inputs": [
        {
          "internalType": "bytes32",
          "name": "role",
          "type": "bytes32"
        },
        {
          "internalType": "address",
          "name": "account",
          "type": "address"
        }
      ],
      "name": "NotRoleHolder",
      "type": "error"
    },
    {
      "inputs": [
        {
          "internalType": "address",
          "name": "operator",
          "type": "address"
        }
      ],
      "name": "OperatorNotAllowed",
      "type": "error"
    },
    {
      "anonymous": false,
      "inputs": [
        {
          "indexed": true,
          "internalType": "address",
          "name": "owner",
          "type": "address"
        },
        {
          "indexed": true,
          "internalType": "address",
          "name": "approved",
          "type": "address"
        },
        {
          "indexed": true,
          "internalType": "uint256",
          "name": "tokenId",
          "type": "uint256"
        }
      ],
      "name": "Approval",
      "type": "event"
    },
    {
      "anonymous": false,
      "inputs": [
        {
          "indexed": true,
          "internalType": "address",
          "name": "owner",
          "type": "address"
        },
        {
          "indexed": true,
          "internalType": "address",
          "name": "operator",
          "type": "address"
        },
        {
          "indexed": false,
          "internalType": "bool",
          "name": "approved",
          "type": "bool"
        }
      ],
      "name": "ApprovalForAll",
      "type": "event"
    },
    {
      "anonymous": false,
      "inputs": [
        {
          "indexed": true,
          "internalType": "address",
          "name": "previousOwner",
          "type": "address"
        },
        {
          "indexed": true,
          "internalType": "address",
          "name": "newOwner",
          "type": "address"
        }
      ],
      "name": "OwnershipTransferred",
      "type": "event"
    },
    {
      "anonymous": false,
      "inputs": [
        {
          "indexed": false,
          "internalType": "bytes32",
          "name": "role",
          "type": "bytes32"
        },
        {
          "indexed": false,
          "internalType": "address",
          "name": "account",
          "type": "address"
        },
        {
          "indexed": false,
          "internalType": "address",
          "name": "operator",
          "type": "address"
        }
      ],
      "name": "RoleGranted",
      "type": "event"
    },
    {
      "anonymous": false,
      "inputs": [
        {
          "indexed": false,
          "internalType": "bytes32",
          "name": "role",
          "type": "bytes32"
        },
        {
          "indexed": false,
          "internalType": "address",
          "name": "account",
          "type": "address"
        },
        {
          "indexed": false,
          "internalType": "address",
          "name": "operator",
          "type": "address"
        }
      ],
      "name": "RoleRevoked",
      "type": "event"
    },
    {
      "anonymous": false,
      "inputs": [
        {
          "indexed": true,
          "internalType": "address",
          "name": "from",
          "type": "address"
        },
        {
          "indexed": true,
          "internalType": "address",
          "name": "to",
          "type": "address"
        },
        {
          "indexed": true,
          "internalType": "uint256",
          "name": "tokenId",
          "type": "uint256"
        }
      ],
      "name": "Transfer",
      "type": "event"
    },
    {
      "inputs": [],
      "name": "MINTER_ROLE",
      "outputs": [
        {
          "internalType": "bytes32",
          "name": "",
          "type": "bytes32"
        }
      ],
      "stateMutability": "view",
      "type": "function"
    },
    {
      "inputs": [],
      "name": "ROYALTY_FEE_DENOMINATOR",
      "outputs": [
        {
          "internalType": "uint256",
          "name": "",
          "type": "uint256"
        }
      ],
      "stateMutability": "view",
      "type": "function"
    },
    {
      "inputs": [],
      "name": "__msgData",
      "outputs": [
        {
          "internalType": "bytes",
          "name": "",
          "type": "bytes"
        }
      ],
      "stateMutability": "view",
      "type": "function"
    },
    {
      "inputs": [
        {
          "internalType": "address",
          "name": "to",
          "type": "address"
        },
        {
          "internalType": "uint256",
          "name": "tokenId",
          "type": "uint256"
        }
      ],
      "name": "approve",
      "outputs": [],
      "stateMutability": "nonpayable",
      "type": "function"
    },
    {
      "inputs": [
        {
          "internalType": "address",
          "name": "owner",
          "type": "address"
        }
      ],
      "name": "balanceOf",
      "outputs": [
        {
          "internalType": "uint256",
          "name": "balance",
          "type": "uint256"
        }
      ],
      "stateMutability": "view",
      "type": "function"
    },
    {
      "inputs": [
        {
          "internalType": "address",
          "name": "to",
          "type": "address"
        },
        {
          "internalType": "uint256[]",
          "name": "tokenIds",
          "type": "uint256[]"
        }
      ],
      "name": "batchMint",
      "outputs": [],
      "stateMutability": "nonpayable",
      "type": "function"
    },
    {
      "inputs": [
        {
          "internalType": "address",
          "name": "from",
          "type": "address"
        },
        {
          "internalType": "address",
          "name": "to",
          "type": "address"
        },
        {
          "internalType": "uint256[]",
          "name": "tokenIds",
          "type": "uint256[]"
        }
      ],
      "name": "batchTransferFrom",
      "outputs": [],
      "stateMutability": "nonpayable",
      "type": "function"
    },
    {
      "inputs": [
        {
          "internalType": "address[]",
          "name": "recipients",
          "type": "address[]"
        },
        {
          "internalType": "uint256[]",
          "name": "tokenIds",
          "type": "uint256[]"
        }
      ],
      "name": "deliver",
      "outputs": [],
      "stateMutability": "nonpayable",
      "type": "function"
    },
    {
      "inputs": [],
      "name": "forwarderRegistry",
      "outputs": [
        {
          "internalType": "contract IForwarderRegistry",
          "name": "",
          "type": "address"
        }
      ],
      "stateMutability": "view",
      "type": "function"
    },
    {
      "inputs": [
        {
          "internalType": "uint256",
          "name": "tokenId",
          "type": "uint256"
        }
      ],
      "name": "getApproved",
      "outputs": [
        {
          "internalType": "address",
          "name": "approved",
          "type": "address"
        }
      ],
      "stateMutability": "view",
      "type": "function"
    },
    {
      "inputs": [
        {
          "internalType": "bytes32",
          "name": "role",
          "type": "bytes32"
        },
        {
          "internalType": "address",
          "name": "account",
          "type": "address"
        }
      ],
      "name": "grantRole",
      "outputs": [],
      "stateMutability": "nonpayable",
      "type": "function"
    },
    {
      "inputs": [
        {
          "internalType": "bytes32",
          "name": "role",
          "type": "bytes32"
        },
        {
          "internalType": "address",
          "name": "account",
          "type": "address"
        }
      ],
      "name": "hasRole",
      "outputs": [
        {
          "internalType": "bool",
          "name": "hasRole_",
          "type": "bool"
        }
      ],
      "stateMutability": "view",
      "type": "function"
    },
    {
      "inputs": [
        {
          "internalType": "string",
          "name": "tokenName",
          "type": "string"
        },
        {
          "internalType": "string",
          "name": "tokenSymbol",
          "type": "string"
        },
        {
          "internalType": "contract ITokenMetadataResolver",
          "name": "metadataResolver",
          "type": "address"
        },
        {
          "internalType": "contract IOperatorFilterRegistry",
          "name": "filterRegistry",
          "type": "address"
        }
      ],
      "name": "init",
      "outputs": [],
      "stateMutability": "nonpayable",
      "type": "function"
    },
    {
      "inputs": [
        {
          "internalType": "address",
          "name": "owner",
          "type": "address"
        },
        {
          "internalType": "address",
          "name": "operator",
          "type": "address"
        }
      ],
      "name": "isApprovedForAll",
      "outputs": [
        {
          "internalType": "bool",
          "name": "approvedForAll",
          "type": "bool"
        }
      ],
      "stateMutability": "view",
      "type": "function"
    },
    {
      "inputs": [
        {
          "internalType": "address",
          "name": "forwarder",
          "type": "address"
        }
      ],
      "name": "isTrustedForwarder",
      "outputs": [
        {
          "internalType": "bool",
          "name": "",
          "type": "bool"
        }
      ],
      "stateMutability": "view",
      "type": "function"
    },
    {
      "inputs": [],
      "name": "metadataResolver",
      "outputs": [
        {
          "internalType": "contract ITokenMetadataResolver",
          "name": "tokenMetadataResolver",
          "type": "address"
        }
      ],
      "stateMutability": "view",
      "type": "function"
    },
    {
      "inputs": [
        {
          "internalType": "address",
          "name": "to",
          "type": "address"
        },
        {
          "internalType": "uint256",
          "name": "tokenId",
          "type": "uint256"
        }
      ],
      "name": "mint",
      "outputs": [],
      "stateMutability": "nonpayable",
      "type": "function"
    },
    {
      "inputs": [],
      "name": "name",
      "outputs": [
        {
          "internalType": "string",
          "name": "tokenName",
          "type": "string"
        }
      ],
      "stateMutability": "view",
      "type": "function"
    },
    {
      "inputs": [],
      "name": "operatorFilterRegistry",
      "outputs": [
        {
          "internalType": "contract IOperatorFilterRegistry",
          "name": "",
          "type": "address"
        }
      ],
      "stateMutability": "view",
      "type": "function"
    },
    {
      "inputs": [],
      "name": "owner",
      "outputs": [
        {
          "internalType": "address",
          "name": "",
          "type": "address"
        }
      ],
      "stateMutability": "view",
      "type": "function"
    },
    {
      "inputs": [
        {
          "internalType": "uint256",
          "name": "tokenId",
          "type": "uint256"
        }
      ],
      "name": "ownerOf",
      "outputs": [
        {
          "internalType": "address",
          "name": "tokenOwner",
          "type": "address"
        }
      ],
      "stateMutability": "view",
      "type": "function"
    },
    {
      "inputs": [
        {
          "internalType": "address[]",
          "name": "accounts",
          "type": "address[]"
        },
        {
          "internalType": "contract IERC20[]",
          "name": "tokens",
          "type": "address[]"
        },
        {
          "internalType": "uint256[]",
          "name": "amounts",
          "type": "uint256[]"
        }
      ],
      "name": "recoverERC20s",
      "outputs": [],
      "stateMutability": "nonpayable",
      "type": "function"
    },
    {
      "inputs": [
        {
          "internalType": "address[]",
          "name": "accounts",
          "type": "address[]"
        },
        {
          "internalType": "contract IERC721[]",
          "name": "contracts",
          "type": "address[]"
        },
        {
          "internalType": "uint256[]",
          "name": "tokenIds",
          "type": "uint256[]"
        }
      ],
      "name": "recoverERC721s",
      "outputs": [],
      "stateMutability": "nonpayable",
      "type": "function"
    },
    {
      "inputs": [
        {
          "internalType": "address payable[]",
          "name": "accounts",
          "type": "address[]"
        },
        {
          "internalType": "uint256[]",
          "name": "amounts",
          "type": "uint256[]"
        }
      ],
      "name": "recoverETH",
      "outputs": [],
      "stateMutability": "nonpayable",
      "type": "function"
    },
    {
      "inputs": [
        {
          "internalType": "bytes32",
          "name": "role",
          "type": "bytes32"
        }
      ],
      "name": "renounceRole",
      "outputs": [],
      "stateMutability": "nonpayable",
      "type": "function"
    },
    {
      "inputs": [
        {
          "internalType": "bytes32",
          "name": "role",
          "type": "bytes32"
        },
        {
          "internalType": "address",
          "name": "account",
          "type": "address"
        }
      ],
      "name": "revokeRole",
      "outputs": [],
      "stateMutability": "nonpayable",
      "type": "function"
    },
    {
      "inputs": [
        {
          "internalType": "uint256",
          "name": "tokenId",
          "type": "uint256"
        },
        {
          "internalType": "uint256",
          "name": "salePrice",
          "type": "uint256"
        }
      ],
      "name": "royaltyInfo",
      "outputs": [
        {
          "internalType": "address",
          "name": "receiver",
          "type": "address"
        },
        {
          "internalType": "uint256",
          "name": "royaltyAmount",
          "type": "uint256"
        }
      ],
      "stateMutability": "view",
      "type": "function"
    },
    {
      "inputs": [
        {
          "internalType": "address",
          "name": "to",
          "type": "address"
        },
        {
          "internalType": "uint256",
          "name": "tokenId",
          "type": "uint256"
        },
        {
          "internalType": "bytes",
          "name": "data",
          "type": "bytes"
        }
      ],
      "name": "safeMint",
      "outputs": [],
      "stateMutability": "nonpayable",
      "type": "function"
    },
    {
      "inputs": [
        {
          "internalType": "address",
          "name": "from",
          "type": "address"
        },
        {
          "internalType": "address",
          "name": "to",
          "type": "address"
        },
        {
          "internalType": "uint256",
          "name": "tokenId",
          "type": "uint256"
        }
      ],
      "name": "safeTransferFrom",
      "outputs": [],
      "stateMutability": "nonpayable",
      "type": "function"
    },
    {
      "inputs": [
        {
          "internalType": "address",
          "name": "from",
          "type": "address"
        },
        {
          "internalType": "address",
          "name": "to",
          "type": "address"
        },
        {
          "internalType": "uint256",
          "name": "tokenId",
          "type": "uint256"
        },
        {
          "internalType": "bytes",
          "name": "data",
          "type": "bytes"
        }
      ],
      "name": "safeTransferFrom",
      "outputs": [],
      "stateMutability": "nonpayable",
      "type": "function"
    },
    {
      "inputs": [
        {
          "internalType": "address",
          "name": "operator",
          "type": "address"
        },
        {
          "internalType": "bool",
          "name": "approved",
          "type": "bool"
        }
      ],
      "name": "setApprovalForAll",
      "outputs": [],
      "stateMutability": "nonpayable",
      "type": "function"
    },
    {
      "inputs": [
        {
          "internalType": "uint256",
          "name": "percentage",
          "type": "uint256"
        }
      ],
      "name": "setRoyaltyPercentage",
      "outputs": [],
      "stateMutability": "nonpayable",
      "type": "function"
    },
    {
      "inputs": [
        {
          "internalType": "address",
          "name": "receiver",
          "type": "address"
        }
      ],
      "name": "setRoyaltyReceiver",
      "outputs": [],
      "stateMutability": "nonpayable",
      "type": "function"
    },
    {
      "inputs": [
        {
          "internalType": "bytes4",
          "name": "interfaceId",
          "type": "bytes4"
        }
      ],
      "name": "supportsInterface",
      "outputs": [
        {
          "internalType": "bool",
          "name": "",
          "type": "bool"
        }
      ],
      "stateMutability": "view",
      "type": "function"
    },
    {
      "inputs": [],
      "name": "symbol",
      "outputs": [
        {
          "internalType": "string",
          "name": "tokenSymbol",
          "type": "string"
        }
      ],
      "stateMutability": "view",
      "type": "function"
    },
    {
      "inputs": [
        {
          "internalType": "uint256",
          "name": "tokenId",
          "type": "uint256"
        }
      ],
      "name": "tokenURI",
      "outputs": [
        {
          "internalType": "string",
          "name": "uri",
          "type": "string"
        }
      ],
      "stateMutability": "view",
      "type": "function"
    },
    {
      "inputs": [
        {
          "internalType": "address",
          "name": "from",
          "type": "address"
        },
        {
          "internalType": "address",
          "name": "to",
          "type": "address"
        },
        {
          "internalType": "uint256",
          "name": "tokenId",
          "type": "uint256"
        }
      ],
      "name": "transferFrom",
      "outputs": [],
      "stateMutability": "nonpayable",
      "type": "function"
    },
    {
      "inputs": [
        {
          "internalType": "address",
          "name": "newOwner",
          "type": "address"
        }
      ],
      "name": "transferOwnership",
      "outputs": [],
      "stateMutability": "nonpayable",
      "type": "function"
    },
    {
      "inputs": [
        {
          "internalType": "contract IOperatorFilterRegistry",
          "name": "registry",
          "type": "address"
        }
      ],
      "name": "updateOperatorFilterRegistry",
      "outputs": [],
      "stateMutability": "nonpayable",
      "type": "function"
    }
  ],
  "bytecode": "0x60a060405234801562000010575f80fd5b506040516200419f3803806200419f833981016040819052620000339162000045565b6001600160a01b031660805262000074565b5f6020828403121562000056575f80fd5b81516001600160a01b03811681146200006d575f80fd5b9392505050565b6080516140ef620000b05f395f81816103a50152818161043b01528181612e4001528181612ec8015281816131c6015261320401526140ef5ff3fe608060405234801561000f575f80fd5b506004361061029d575f3560e01c80638832e6e311610171578063b88d4fde116100d2578063e1a8bf2c11610088578063f2fde38b1161006e578063f2fde38b146105f4578063f3993d1114610607578063f7ba94bd1461061a575f80fd5b8063e1a8bf2c146105d7578063e985e9c5146105e1575f80fd5b8063c87b56dd116100b8578063c87b56dd1461058a578063d53913931461059d578063d547741f146105c4575f80fd5b8063b88d4fde14610564578063c3666c3614610577575f80fd5b806395d89b4111610127578063a0c76f621161010d578063a0c76f6214610541578063a22cb46514610549578063b0ccc31e1461055c575f80fd5b806395d89b41146105265780639da5e8321461052e575f80fd5b80638da5cb5b116101575780638da5cb5b146104f85780638dc251e31461050057806391d1485414610513575f80fd5b80638832e6e3146104d25780638bb9c5bf146104e5575f80fd5b80632f2ff15d1161021b578063572b6c05116101d15780636352211e116101b75780636352211e1461048b57806370a082311461049e57806373c8a958146104bf575f80fd5b8063572b6c051461042b57806361ba27da14610478575f80fd5b806340c10f191161020157806340c10f19146103f257806342842e0e146104055780634684d7e914610418575f80fd5b80632f2ff15d146103c957806331e66e1e146103dc575f80fd5b80630e07f8541161027057806323b872dd1161025657806323b872dd146103515780632a55205a146103645780632b4c9f16146103a3575f80fd5b80630e07f8541461032b578063114ba8ee1461033e575f80fd5b806301ffc9a7146102a157806306fdde03146102c9578063081812fc146102de578063095ea7b314610316575b5f80fd5b6102b46102af3660046136ee565b61062d565b60405190151581526020015b60405180910390f35b6102d1610646565b6040516102c09190613774565b6102f16102ec366004613786565b610655565b60405173ffffffffffffffffffffffffffffffffffffffff90911681526020016102c0565b6103296103243660046137be565b610668565b005b610329610339366004613826565b6106b7565b61032961034c3660046138b5565b610734565b61032961035f3660046138d0565b61079f565b61037761037236600461390e565b6107dc565b6040805173ffffffffffffffffffffffffffffffffffffffff90931683526020830191909152016102c0565b7f00000000000000000000000000000000000000000000000000000000000000006102f1565b6103296103d736600461392e565b6107fe565b6103e4610830565b6040516102c092919061395c565b6103296104003660046137be565b610842565b6103296104133660046138d0565b610891565b6103296104263660046139e9565b6108c1565b6102b46104393660046138b5565b7f000000000000000000000000000000000000000000000000000000000000000073ffffffffffffffffffffffffffffffffffffffff90811691161490565b610329610486366004613786565b610934565b6102f1610499366004613786565b610951565b6104b16104ac3660046138b5565b610964565b6040519081526020016102c0565b6103296104cd366004613a3a565b610977565b6103296104e0366004613acd565b610a6b565b6103296104f3366004613786565b610aec565b6102f1610b07565b61032961050e3660046138b5565b610b2d565b6102b461052136600461392e565b610b4a565b6102d1610b93565b61032961053c366004613b25565b610b9d565b6102f1610c3f565b610329610557366004613b8d565b610c68565b6102f1610c97565b610329610572366004613bb9565b610ca3565b610329610585366004613a3a565b610cd7565b6102d1610598366004613786565b610e48565b6104b17f6d696e746572000000000000000000000000000000000000000000000000000081565b6103296105d236600461392e565b610e6b565b6104b1620186a081565b6102b46105ef366004613c27565b610e98565b6103296106023660046138b5565b610ee4565b610329610615366004613c53565b610eff565b610329610628366004613b25565b610f38565b5f6106408261063a610fed565b9061101a565b92915050565b60606106506110f1565b905090565b5f61064082610662611103565b90611130565b73ffffffffffffffffffffffffffffffffffffffff82161561069657610696826106906111e6565b90611213565b6106b36106a161121d565b83836106ab611103565b929190611226565b5050565b6106d06106c261121d565b6106ca61149d565b906114ca565b6106d8611509565b6106e0611540565b6106e861156e565b6106f061159c565b6106f86115ca565b6107006115f8565b61071a8686868686610710611626565b9493929190611653565b61072c816107266111e6565b906116ed565b505050505050565b61074d61073f61121d565b61074761149d565b9061175d565b61079c816107596111e6565b9081547fffffffffffffffffffffffff00000000000000000000000000000000000000001673ffffffffffffffffffffffffffffffffffffffff91909116179055565b50565b5f6107a861121d565b90506107be81856107b76111e6565b91906117c8565b6107d6818585856107cd611103565b93929190611805565b50505050565b5f806107f284846107eb611adf565b9190611b0c565b915091505b9250929050565b5f61080761121d565b90506108158161074761149d565b61082b838383610823611bb4565b929190611be1565b505050565b365f61083a611cb5565b915091509091565b61087d7f6d696e746572000000000000000000000000000000000000000000000000000061086e61121d565b610876611bb4565b9190611cbf565b6106b3828261088a611103565b9190611d44565b5f61089a61121d565b90506108a981856107b76111e6565b6107d6818585856108b8611103565b93929190611e5c565b6108ed7f6d696e746572000000000000000000000000000000000000000000000000000061086e61121d565b61082b838383808060200260200160405190810160405280939291908181526020018383602002808284375f9201919091525061092d9250611103915050565b9190611ea1565b61093f61073f61121d565b61079c8161094b611adf565b90612011565b5f6106408261095e611103565b90612097565b5f61064082610971611103565b906120ff565b61098261073f61121d565b8483811415806109925750808214155b156109c9576040517f6582533600000000000000000000000000000000000000000000000000000000815260040160405180910390fd5b5f5b818114610a6157610a598888838181106109e7576109e7613ca8565b90506020020160208101906109fc91906138b5565b858584818110610a0e57610a0e613ca8565b90506020020135888885818110610a2757610a27613ca8565b9050602002016020810190610a3c91906138b5565b73ffffffffffffffffffffffffffffffffffffffff169190612179565b6001016109cb565b5050505050505050565b610a977f6d696e746572000000000000000000000000000000000000000000000000000061086e61121d565b6107d6610aa261121d565b858585858080601f0160208091040260200160405190810160405280939291908181526020018383808284375f92019190915250610ae39250611103915050565b93929190612206565b61079c610af761121d565b82610b00611bb4565b919061223b565b5f610650610b1361149d565b5473ffffffffffffffffffffffffffffffffffffffff1690565b610b3861073f61121d565b61079c81610b44611adf565b906122de565b5f610b8c8383610b58611bb4565b5f9283526020908152604080842073ffffffffffffffffffffffffffffffffffffffff909316845291905290205460ff1690565b9392505050565b606061065061232b565b610bc97f6d696e746572000000000000000000000000000000000000000000000000000061086e61121d565b6107d68484808060200260200160405190810160405280939291908181526020018383602002808284375f92019190915250506040805160208088028281018201909352878252909350879250869182918501908490808284375f92019190915250610c389250611103915050565b919061233d565b5f610650610c4b611626565b6002015473ffffffffffffffffffffffffffffffffffffffff1690565b8015610c7a57610c7a826106906111e6565b6106b3610c8561121d565b8383610c8f611103565b9291906123d1565b5f610650610b136111e6565b5f610cac61121d565b9050610cbb81876107b76111e6565b61072c818787878787610ccc611103565b9594939291906124e8565b610ce261073f61121d565b848381141580610cf25750808214155b15610d29576040517f6582533600000000000000000000000000000000000000000000000000000000815260040160405180910390fd5b5f5b818114610a6157858582818110610d4457610d44613ca8565b9050602002016020810190610d5991906138b5565b73ffffffffffffffffffffffffffffffffffffffff166323b872dd308a8a85818110610d8757610d87613ca8565b9050602002016020810190610d9c91906138b5565b878786818110610dae57610dae613ca8565b6040517fffffffff0000000000000000000000000000000000000000000000000000000060e088901b16815273ffffffffffffffffffffffffffffffffffffffff9586166004820152949093166024850152506020909102013560448201526064015f604051808303815f87803b158015610e27575f80fd5b505af1158015610e39573d5f803e3d5ffd5b50505050806001019050610d2b565b6060610e568261095e611103565b506106403083610e64611626565b919061255d565b5f610e7461121d565b9050610e828161074761149d565b61082b838383610e90611bb4565b929190612619565b5f610b8c8383610ea6611103565b919073ffffffffffffffffffffffffffffffffffffffff9182165f908152600393909301602090815260408085209290931684525290205460ff1690565b61079c610eef61121d565b82610ef861149d565b91906126e1565b5f610f0861121d565b9050610f1781866107b76111e6565b610f318186868686610f27611103565b94939291906127f4565b5050505050565b610f4361073f61121d565b82818114610f7d576040517f6582533600000000000000000000000000000000000000000000000000000000815260040160405180910390fd5b5f5b81811461072c57610fe5848483818110610f9b57610f9b613ca8565b90506020020135878784818110610fb457610fb4613ca8565b9050602002016020810190610fc991906138b5565b73ffffffffffffffffffffffffffffffffffffffff1690612af1565b600101610f7f565b5f8061064060017fca9d3e17f264b0f3984e2634e94adb37fa3e6a8103f06aeae6fa59e21c769f5e613d02565b5f7c01000000000000000000000000000000000000000000000000000000007fffffffff0000000000000000000000000000000000000000000000000000000083160161106857505f610640565b7ffe003659000000000000000000000000000000000000000000000000000000007fffffffff000000000000000000000000000000000000000000000000000000008316016110b957506001610640565b507fffffffff00000000000000000000000000000000000000000000000000000000165f908152602091909152604090205460ff1690565b60606106506110fe611626565b612c47565b5f8061064060017fddf3ee18ae6d688373c219468f8be446e7ae82215f4779d821c7ea5e8c13c0c1613d02565b5f8181526020839052604081205473ffffffffffffffffffffffffffffffffffffffff8116611193576040517fdd560475000000000000000000000000000000000000000000000000000000008152600481018490526024015b60405180910390fd5b740100000000000000000000000000000000000000008116156111dd5750505f81815260028301602052604090205473ffffffffffffffffffffffffffffffffffffffff16610640565b5f915050610640565b5f8061064060017f609b85bcafa81ecfaf3ff62cdde2c6c9082a68dbe4922f07399c706bdeb7cd31613d02565b6106b38282612cda565b5f610650612dfe565b5f8181526020859052604090205473ffffffffffffffffffffffffffffffffffffffff8116611284576040517fdd5604750000000000000000000000000000000000000000000000000000000081526004810183905260240161118a565b8073ffffffffffffffffffffffffffffffffffffffff808216908516036112ef576040517fb7fdc01000000000000000000000000000000000000000000000000000000000815273ffffffffffffffffffffffffffffffffffffffff8216600482015260240161118a565b6112fa868287612f42565b611357576040517fc7563a1800000000000000000000000000000000000000000000000000000000815273ffffffffffffffffffffffffffffffffffffffff8087166004830152821660248201526044810184905260640161118a565b73ffffffffffffffffffffffffffffffffffffffff84166113bb57740100000000000000000000000000000000000000008216156113b6575f83815260208790526040902073ffffffffffffffffffffffffffffffffffffffff821690555b61143a565b7401000000000000000000000000000000000000000082178083146113eb575f8481526020889052604090208190555b505f838152600287016020526040902080547fffffffffffffffffffffffff00000000000000000000000000000000000000001673ffffffffffffffffffffffffffffffffffffffff86161790555b828473ffffffffffffffffffffffffffffffffffffffff168273ffffffffffffffffffffffffffffffffffffffff167f8c5be1e5ebec7d5bd14f71427d1e84f3dd0314c0f7b2291e5b200ac8c7c3b92560405160405180910390a4505050505050565b5f8061064060017fc9ed16f33ab3a66c84bfd83099ccb2a8845871e2e1c1928f63797152f0fd54cd613d02565b6114ff6114f860017f5b388d90dc1312ba799f321972f13311234fa1163bcabec7cf66101c4876eb84613d02565b6001612fb5565b6106b38282613001565b61153e7f80ac58cd000000000000000000000000000000000000000000000000000000006001611537610fed565b91906130b6565b565b61153e7ff3993d11000000000000000000000000000000000000000000000000000000006001611537610fed565b61153e7f5b5e139f000000000000000000000000000000000000000000000000000000006001611537610fed565b61153e7f8e773e13000000000000000000000000000000000000000000000000000000006001611537610fed565b61153e7f9da5e832000000000000000000000000000000000000000000000000000000006001611537610fed565b61153e7f2a55205a000000000000000000000000000000000000000000000000000000006001611537610fed565b5f8061064060017f7ea68fd2dcf1c056b94db6a0a537aa80d26fa9ab1eacd85da1ba0b61b7e7a8a5613d02565b6116816114f860017f92f72593ca50a0096f68ee94e7000db40ed086164b695855e2250750b8bfaf59613d02565b8561168d858783613dd8565b506001860161169d838583613dd8565b5060029590950180547fffffffffffffffffffffffff00000000000000000000000000000000000000001673ffffffffffffffffffffffffffffffffffffffff9096169590951790945550505050565b61171b6114f860017f2f02d396cb1be29636682c8684200b30a98554d3b74293aa4495cb5e1d252f6e613d02565b81547fffffffffffffffffffffffff00000000000000000000000000000000000000001673ffffffffffffffffffffffffffffffffffffffff91909116179055565b815473ffffffffffffffffffffffffffffffffffffffff8281169116146106b3576040517f2ef4875e00000000000000000000000000000000000000000000000000000000815273ffffffffffffffffffffffffffffffffffffffff8216600482015260240161118a565b8073ffffffffffffffffffffffffffffffffffffffff168273ffffffffffffffffffffffffffffffffffffffff161461082b5761082b8383612cda565b73ffffffffffffffffffffffffffffffffffffffff8216611852576040517f86c8706700000000000000000000000000000000000000000000000000000000815260040160405180910390fd5b5f8181526020869052604090205473ffffffffffffffffffffffffffffffffffffffff81166118b0576040517fdd5604750000000000000000000000000000000000000000000000000000000081526004810183905260240161118a565b73ffffffffffffffffffffffffffffffffffffffff84168173ffffffffffffffffffffffffffffffffffffffff1614611934576040517f14dbb53600000000000000000000000000000000000000000000000000000000815273ffffffffffffffffffffffffffffffffffffffff851660048201526024810183905260440161118a565b61193f868587612f42565b6119ed57740100000000000000000000000000000000000000008116158061198f57505f82815260028701602052604090205473ffffffffffffffffffffffffffffffffffffffff868116911614155b156119ed576040517fa4a3018b00000000000000000000000000000000000000000000000000000000815273ffffffffffffffffffffffffffffffffffffffff8087166004830152851660248201526044810183905260640161118a565b5f82815260208790526040902073ffffffffffffffffffffffffffffffffffffffff80851691829055851614611a7c5773ffffffffffffffffffffffffffffffffffffffff8085165f9081526001808901602052604080832080547fffffffffffffffffffffffffffffffffffffffffffffffffffffffffffffffff0190559286168252919020805490910190555b818373ffffffffffffffffffffffffffffffffffffffff168573ffffffffffffffffffffffffffffffffffffffff167fddf252ad1be2c89b69c2b068fc378daa952ba7f163c4a11628f55a4df523b3ef60405160405180910390a4505050505050565b5f8061064060017f2c0cf10337caabbd02dcf226f05f5fd19a0919a41a8df8958c39b80007826858613d02565b825473ffffffffffffffffffffffffffffffffffffffff8116905f907401000000000000000000000000000000000000000090046bffffffffffffffffffffffff16831580611b59575080155b15611b66575f9150611bab565b620186a0841015611b9057620186a0611b7f8286613eef565b611b899190613f06565b9150611bab565b80611b9e620186a086613f06565b611ba89190613eef565b91505b50935093915050565b5f8061064060017fc8827d3282af6f37b64c3e9e6f3ac9df286ab0bb0fccd6f8661bf19adb368b23613d02565b5f8381526020858152604080832073ffffffffffffffffffffffffffffffffffffffff8616845290915290205460ff166107d6575f8381526020858152604080832073ffffffffffffffffffffffffffffffffffffffff8681168086529184529382902080547fffffffffffffffffffffffffffffffffffffffffffffffffffffffffffffff00166001179055815187815292830152918316918101919091527f2f8788117e7eff1d82e926ec794901d17c78024a50270940304540a733656f0d906060015b60405180910390a150505050565b365f61083a613191565b5f8281526020848152604080832073ffffffffffffffffffffffffffffffffffffffff8516845290915290205460ff1661082b576040517f7aa728820000000000000000000000000000000000000000000000000000000081526004810183905273ffffffffffffffffffffffffffffffffffffffff8216602482015260440161118a565b73ffffffffffffffffffffffffffffffffffffffff8216611d91576040517f7851b9cd00000000000000000000000000000000000000000000000000000000815260040160405180910390fd5b5f8181526020849052604090205473ffffffffffffffffffffffffffffffffffffffff1615611def576040517f753eceac0000000000000000000000000000000000000000000000000000000081526004810182905260240161118a565b5f8181526020848152604080832073ffffffffffffffffffffffffffffffffffffffff86169081905580845260018088019093528184208054909301909255518392907fddf252ad1be2c89b69c2b068fc378daa952ba7f163c4a11628f55a4df523b3ef908290a4505050565b611e698585858585611805565b73ffffffffffffffffffffffffffffffffffffffff82163b15610f3157610f318484848460405180602001604052805f8152506132f6565b73ffffffffffffffffffffffffffffffffffffffff8216611eee576040517f7851b9cd00000000000000000000000000000000000000000000000000000000815260040160405180910390fd5b80515f5b818114611fdd575f838281518110611f0c57611f0c613ca8565b60200260200101519050611f47865f015f8381526020019081526020015f205473ffffffffffffffffffffffffffffffffffffffff16151590565b15611f81576040517f753eceac0000000000000000000000000000000000000000000000000000000081526004810182905260240161118a565b5f8181526020879052604080822073ffffffffffffffffffffffffffffffffffffffff88169081905590518392907fddf252ad1be2c89b69c2b068fc378daa952ba7f163c4a11628f55a4df523b3ef908290a450600101611ef2565b5073ffffffffffffffffffffffffffffffffffffffff9092165f908152600190930160205250604090912080549091019055565b620186a0811115612051576040517fac0404080000000000000000000000000000000000000000000000000000000081526004810182905260240161118a565b81546bffffffffffffffffffffffff909116740100000000000000000000000000000000000000000273ffffffffffffffffffffffffffffffffffffffff909116179055565b5f8181526020839052604081205473ffffffffffffffffffffffffffffffffffffffff81166120f5576040517fdd5604750000000000000000000000000000000000000000000000000000000081526004810184905260240161118a565b805b949350505050565b5f73ffffffffffffffffffffffffffffffffffffffff821661214d576040517faefbce4e00000000000000000000000000000000000000000000000000000000815260040160405180910390fd5b5073ffffffffffffffffffffffffffffffffffffffff165f908152600191909101602052604090205490565b6040805173ffffffffffffffffffffffffffffffffffffffff8416602482015260448082018490528251808303909101815260649091019091526020810180517bffffffffffffffffffffffffffffffffffffffffffffffffffffffff167fa9059cbb0000000000000000000000000000000000000000000000000000000017905261082b908490613408565b612211858484611d44565b73ffffffffffffffffffffffffffffffffffffffff83163b15610f3157610f31845f8585856132f6565b612246838284611cbf565b5f8181526020848152604080832073ffffffffffffffffffffffffffffffffffffffff86168085529083529281902080547fffffffffffffffffffffffffffffffffffffffffffffffffffffffffffffff0016905580518481529182018390528101919091527ff6391f5c32d9c69d2a47ea670b442974b53935d1edc7fd64eb21e047a839171b9060600160405180910390a1505050565b73ffffffffffffffffffffffffffffffffffffffff811661171b576040517f16de0c8000000000000000000000000000000000000000000000000000000000815260040160405180910390fd5b6060610650612338611626565b613515565b815181518114612379576040517f6582533600000000000000000000000000000000000000000000000000000000815260040160405180910390fd5b5f5b818114610f31576123c984828151811061239757612397613ca8565b60200260200101518483815181106123b1576123b1613ca8565b602002602001015187611d449092919063ffffffff16565b60010161237b565b8273ffffffffffffffffffffffffffffffffffffffff168273ffffffffffffffffffffffffffffffffffffffff160361244e576040517fe4215c6a00000000000000000000000000000000000000000000000000000000815273ffffffffffffffffffffffffffffffffffffffff8416600482015260240161118a565b73ffffffffffffffffffffffffffffffffffffffff8381165f81815260038701602090815260408083209487168084529482529182902080547fffffffffffffffffffffffffffffffffffffffffffffffffffffffffffffff001686151590811790915591519182527f17307eab39ab6107e8899845ad3d59bd9653f200f220920489ca2b5937696c31910160405180910390a350505050565b6124f58787878787611805565b73ffffffffffffffffffffffffffffffffffffffff84163b15612554576125548686868686868080601f0160208091040260200160405190810160405280939291908181526020018383808284375f920191909152506132f692505050565b50505050505050565b60028301546040517ff724dad700000000000000000000000000000000000000000000000000000000815273ffffffffffffffffffffffffffffffffffffffff848116600483015260248201849052606092169063f724dad7906044015f60405180830381865afa1580156125d4573d5f803e3d5ffd5b505050506040513d5f823e601f3d9081017fffffffffffffffffffffffffffffffffffffffffffffffffffffffffffffffe01682016040526120f79190810190613f3e565b5f8381526020858152604080832073ffffffffffffffffffffffffffffffffffffffff8616845290915290205460ff16156107d6575f8381526020858152604080832073ffffffffffffffffffffffffffffffffffffffff8681168086529184529382902080547fffffffffffffffffffffffffffffffffffffffffffffffffffffffffffffff00169055815187815292830152918316918101919091527ff6391f5c32d9c69d2a47ea670b442974b53935d1edc7fd64eb21e047a839171b90606001611ca7565b825473ffffffffffffffffffffffffffffffffffffffff908116908316811461274e576040517f2ef4875e00000000000000000000000000000000000000000000000000000000815273ffffffffffffffffffffffffffffffffffffffff8416600482015260240161118a565b8173ffffffffffffffffffffffffffffffffffffffff168173ffffffffffffffffffffffffffffffffffffffff16146107d65783547fffffffffffffffffffffffff00000000000000000000000000000000000000001673ffffffffffffffffffffffffffffffffffffffff8381169182178655604051908316907f8be0079c531659141344cd1fd0a4f28419497f9722a3daafe3b4186f6b6457e0905f90a350505050565b73ffffffffffffffffffffffffffffffffffffffff8316612841576040517f86c8706700000000000000000000000000000000000000000000000000000000815260040160405180910390fd5b5f61284d878688612f42565b9050815f5b818114612a6b575f85858381811061286c5761286c613ca8565b602090810292909201355f818152928d90526040909220549192505073ffffffffffffffffffffffffffffffffffffffff81166128d8576040517fdd5604750000000000000000000000000000000000000000000000000000000081526004810183905260240161118a565b73ffffffffffffffffffffffffffffffffffffffff89168173ffffffffffffffffffffffffffffffffffffffff161461295c576040517f14dbb53600000000000000000000000000000000000000000000000000000000815273ffffffffffffffffffffffffffffffffffffffff8a1660048201526024810183905260440161118a565b84612a0b5774010000000000000000000000000000000000000000811615806129ad57505f82815260028c01602052604090205473ffffffffffffffffffffffffffffffffffffffff8b8116911614155b15612a0b576040517fa4a3018b00000000000000000000000000000000000000000000000000000000815273ffffffffffffffffffffffffffffffffffffffff808c1660048301528a1660248201526044810183905260640161118a565b5f82815260208c9052604080822073ffffffffffffffffffffffffffffffffffffffff808c16918290559151859391928d16917fddf252ad1be2c89b69c2b068fc378daa952ba7f163c4a11628f55a4df523b3ef91a45050600101612852565b508473ffffffffffffffffffffffffffffffffffffffff168673ffffffffffffffffffffffffffffffffffffffff1614158015612aa757508015155b15610a615773ffffffffffffffffffffffffffffffffffffffff8087165f90815260018a016020526040808220805485900390559187168152208054820190555050505050505050565b80471015612b5b576040517f08c379a000000000000000000000000000000000000000000000000000000000815260206004820152601d60248201527f416464726573733a20696e73756666696369656e742062616c616e6365000000604482015260640161118a565b5f8273ffffffffffffffffffffffffffffffffffffffff16826040515f6040518083038185875af1925050503d805f8114612bb1576040519150601f19603f3d011682016040523d82523d5f602084013e612bb6565b606091505b505090508061082b576040517f08c379a000000000000000000000000000000000000000000000000000000000815260206004820152603a60248201527f416464726573733a20756e61626c6520746f2073656e642076616c75652c207260448201527f6563697069656e74206d61792068617665207265766572746564000000000000606482015260840161118a565b6060815f018054612c5790613d42565b80601f0160208091040260200160405190810160405280929190818152602001828054612c8390613d42565b8015612cce5780601f10612ca557610100808354040283529160200191612cce565b820191905f5260205f20905b815481529060010190602001808311612cb157829003601f168201915b50505050509050919050565b815473ffffffffffffffffffffffffffffffffffffffff168015801590612d1757505f8173ffffffffffffffffffffffffffffffffffffffff163b115b1561082b576040517fc617113400000000000000000000000000000000000000000000000000000000815230600482015273ffffffffffffffffffffffffffffffffffffffff838116602483015282169063c617113490604401602060405180830381865afa158015612d8c573d5f803e3d5ffd5b505050506040513d601f19601f82011682018060405250810190612db09190613ff9565b61082b576040517fede71dcc00000000000000000000000000000000000000000000000000000000815273ffffffffffffffffffffffffffffffffffffffff8316600482015260240161118a565b5f33321480612e0d5750601836105b15612e1757503390565b7fffffffffffffffffffffffffffffffffffffffffffffffffffffffffffffffec36013560601c7f000000000000000000000000000000000000000000000000000000000000000073ffffffffffffffffffffffffffffffffffffffff16331480612f3157506040517f8929a8ca00000000000000000000000000000000000000000000000000000000815273ffffffffffffffffffffffffffffffffffffffff82811660048301523360248301527f00000000000000000000000000000000000000000000000000000000000000001690638929a8ca90604401602060405180830381865afa158015612f0d573d5f803e3d5ffd5b505050506040513d601f19601f82011682018060405250810190612f319190613ff9565b15612f3b57919050565b3391505090565b5f8173ffffffffffffffffffffffffffffffffffffffff168373ffffffffffffffffffffffffffffffffffffffff1614806120f757505073ffffffffffffffffffffffffffffffffffffffff9182165f908152600393909301602090815260408085209290931684525290205460ff1690565b81548290828110612ffc576040517fbf0c18ec000000000000000000000000000000000000000000000000000000008152600481018290526024810184905260440161118a565b505550565b73ffffffffffffffffffffffffffffffffffffffff8116156130885781547fffffffffffffffffffffffff00000000000000000000000000000000000000001673ffffffffffffffffffffffffffffffffffffffff821690811783556040515f907f8be0079c531659141344cd1fd0a4f28419497f9722a3daafe3b4186f6b6457e0908290a35b6106b37f7f5828d0000000000000000000000000000000000000000000000000000000006001611537610fed565b7c01000000000000000000000000000000000000000000000000000000007fffffffff0000000000000000000000000000000000000000000000000000000083160161312e576040517f72c683bb00000000000000000000000000000000000000000000000000000000815260040160405180910390fd5b7fffffffff00000000000000000000000000000000000000000000000000000000919091165f908152602092909252604090912080547fffffffffffffffffffffffffffffffffffffffffffffffffffffffffffffff0016911515919091179055565b365f333214806131a15750601836105b156131ae57505f91369150565b3373ffffffffffffffffffffffffffffffffffffffff7f00000000000000000000000000000000000000000000000000000000000000001614806132e1575073ffffffffffffffffffffffffffffffffffffffff7f000000000000000000000000000000000000000000000000000000000000000016638929a8ca367fffffffffffffffffffffffffffffffffffffffffffffffffffffffffffffffec013560601c6040517fffffffff0000000000000000000000000000000000000000000000000000000060e084901b16815273ffffffffffffffffffffffffffffffffffffffff9091166004820152336024820152604401602060405180830381865afa1580156132bd573d5f803e3d5ffd5b505050506040513d601f19601f820116820180604052508101906132e19190613ff9565b156132ee5761083a613526565b505f91369150565b6040517f150b7a02000000000000000000000000000000000000000000000000000000008082529073ffffffffffffffffffffffffffffffffffffffff85169063150b7a0290613350908990899088908890600401614014565b6020604051808303815f875af115801561336c573d5f803e3d5ffd5b505050506040513d601f19601f82011682018060405250810190613390919061405c565b7fffffffff000000000000000000000000000000000000000000000000000000001614610f31576040517fc215a7a100000000000000000000000000000000000000000000000000000000815273ffffffffffffffffffffffffffffffffffffffff841660048201526024810183905260440161118a565b5f613469826040518060400160405280602081526020017f5361666545524332303a206c6f772d6c6576656c2063616c6c206661696c65648152508573ffffffffffffffffffffffffffffffffffffffff166135569092919063ffffffff16565b905080515f14806134895750808060200190518101906134899190613ff9565b61082b576040517f08c379a000000000000000000000000000000000000000000000000000000000815260206004820152602a60248201527f5361666545524332303a204552433230206f7065726174696f6e20646964206e60448201527f6f74207375636365656400000000000000000000000000000000000000000000606482015260840161118a565b6060816001018054612c5790613d42565b365f61083a7fffffffffffffffffffffffffffffffffffffffffffffffffffffffffffffffec8301828481614077565b60606120f784845f85855f808673ffffffffffffffffffffffffffffffffffffffff168587604051613588919061409e565b5f6040518083038185875af1925050503d805f81146135c2576040519150601f19603f3d011682016040523d82523d5f602084013e6135c7565b606091505b50915091506135d8878383876135e3565b979650505050505050565b606083156136785782515f036136715773ffffffffffffffffffffffffffffffffffffffff85163b613671576040517f08c379a000000000000000000000000000000000000000000000000000000000815260206004820152601d60248201527f416464726573733a2063616c6c20746f206e6f6e2d636f6e7472616374000000604482015260640161118a565b50816120f7565b6120f7838381511561368d5781518083602001fd5b806040517f08c379a000000000000000000000000000000000000000000000000000000000815260040161118a9190613774565b7fffffffff000000000000000000000000000000000000000000000000000000008116811461079c575f80fd5b5f602082840312156136fe575f80fd5b8135610b8c816136c1565b5f5b8381101561372357818101518382015260200161370b565b50505f910152565b5f8151808452613742816020860160208601613709565b601f017fffffffffffffffffffffffffffffffffffffffffffffffffffffffffffffffe0169290920160200192915050565b602081525f610b8c602083018461372b565b5f60208284031215613796575f80fd5b5035919050565b73ffffffffffffffffffffffffffffffffffffffff8116811461079c575f80fd5b5f80604083850312156137cf575f80fd5b82356137da8161379d565b946020939093013593505050565b5f8083601f8401126137f8575f80fd5b50813567ffffffffffffffff81111561380f575f80fd5b6020830191508360208285010111156107f7575f80fd5b5f805f805f806080878903121561383b575f80fd5b863567ffffffffffffffff80821115613852575f80fd5b61385e8a838b016137e8565b90985096506020890135915080821115613876575f80fd5b5061388389828a016137e8565b90955093505060408701356138978161379d565b915060608701356138a78161379d565b809150509295509295509295565b5f602082840312156138c5575f80fd5b8135610b8c8161379d565b5f805f606084860312156138e2575f80fd5b83356138ed8161379d565b925060208401356138fd8161379d565b929592945050506040919091013590565b5f806040838503121561391f575f80fd5b50508035926020909101359150565b5f806040838503121561393f575f80fd5b8235915060208301356139518161379d565b809150509250929050565b60208152816020820152818360408301375f818301604090810191909152601f9092017fffffffffffffffffffffffffffffffffffffffffffffffffffffffffffffffe0160101919050565b5f8083601f8401126139b8575f80fd5b50813567ffffffffffffffff8111156139cf575f80fd5b6020830191508360208260051b85010111156107f7575f80fd5b5f805f604084860312156139fb575f80fd5b8335613a068161379d565b9250602084013567ffffffffffffffff811115613a21575f80fd5b613a2d868287016139a8565b9497909650939450505050565b5f805f805f8060608789031215613a4f575f80fd5b863567ffffffffffffffff80821115613a66575f80fd5b613a728a838b016139a8565b90985096506020890135915080821115613a8a575f80fd5b613a968a838b016139a8565b90965094506040890135915080821115613aae575f80fd5b50613abb89828a016139a8565b979a9699509497509295939492505050565b5f805f8060608587031215613ae0575f80fd5b8435613aeb8161379d565b935060208501359250604085013567ffffffffffffffff811115613b0d575f80fd5b613b19878288016137e8565b95989497509550505050565b5f805f8060408587031215613b38575f80fd5b843567ffffffffffffffff80821115613b4f575f80fd5b613b5b888389016139a8565b90965094506020870135915080821115613b73575f80fd5b50613b19878288016139a8565b801515811461079c575f80fd5b5f8060408385031215613b9e575f80fd5b8235613ba98161379d565b9150602083013561395181613b80565b5f805f805f60808688031215613bcd575f80fd5b8535613bd88161379d565b94506020860135613be88161379d565b935060408601359250606086013567ffffffffffffffff811115613c0a575f80fd5b613c16888289016137e8565b969995985093965092949392505050565b5f8060408385031215613c38575f80fd5b8235613c438161379d565b915060208301356139518161379d565b5f805f8060608587031215613c66575f80fd5b8435613c718161379d565b93506020850135613c818161379d565b9250604085013567ffffffffffffffff811115613c9c575f80fd5b613b19878288016139a8565b7f4e487b71000000000000000000000000000000000000000000000000000000005f52603260045260245ffd5b7f4e487b71000000000000000000000000000000000000000000000000000000005f52601160045260245ffd5b8181038181111561064057610640613cd5565b7f4e487b71000000000000000000000000000000000000000000000000000000005f52604160045260245ffd5b600181811c90821680613d5657607f821691505b602082108103613d8d577f4e487b71000000000000000000000000000000000000000000000000000000005f52602260045260245ffd5b50919050565b601f82111561082b575f81815260208120601f850160051c81016020861015613db95750805b601f850160051c820191505b8181101561072c57828155600101613dc5565b67ffffffffffffffff831115613df057613df0613d15565b613e0483613dfe8354613d42565b83613d93565b5f601f841160018114613e54575f8515613e1e5750838201355b7fffffffffffffffffffffffffffffffffffffffffffffffffffffffffffffffff600387901b1c1916600186901b178355610f31565b5f838152602090207fffffffffffffffffffffffffffffffffffffffffffffffffffffffffffffffe0861690835b82811015613ea25786850135825560209485019460019092019101613e82565b5086821015613edd577fffffffffffffffffffffffffffffffffffffffffffffffffffffffffffffffff60f88860031b161c19848701351681555b505060018560011b0183555050505050565b808202811582820484141761064057610640613cd5565b5f82613f39577f4e487b71000000000000000000000000000000000000000000000000000000005f52601260045260245ffd5b500490565b5f60208284031215613f4e575f80fd5b815167ffffffffffffffff80821115613f65575f80fd5b818401915084601f830112613f78575f80fd5b815181811115613f8a57613f8a613d15565b604051601f82017fffffffffffffffffffffffffffffffffffffffffffffffffffffffffffffffe0908116603f01168101908382118183101715613fd057613fd0613d15565b81604052828152876020848701011115613fe8575f80fd5b6135d8836020830160208801613709565b5f60208284031215614009575f80fd5b8151610b8c81613b80565b5f73ffffffffffffffffffffffffffffffffffffffff808716835280861660208401525083604083015260806060830152614052608083018461372b565b9695505050505050565b5f6020828403121561406c575f80fd5b8151610b8c816136c1565b5f8085851115614085575f80fd5b83861115614091575f80fd5b5050820193919092039150565b5f82516140af818460208701613709565b919091019291505056fea2646970667358221220e43347d94b1b4efb03e16b6aea173037d8e290de1dc5844a270d24560162c34364736f6c63430008150033",
  "linkReferences": {},
  "deployedLinkReferences": {}
}