{
  "_format": "hh-sol-artifact-1",
  "contractName": "ERC721FullProxiedMock",
  "sourceName": "contracts/mocks/token/ERC721/preset/proxied/ERC721FullProxiedMock.sol",
  "abi": [
    {
      "inputs": [
        {
          "internalType": "contract IForwarderRegistry",
          "name": "forwarderRegistry",
          "type": "address"
        }
      ],
      "stateMutability": "nonpayable",
      "type": "constructor"
    },
    {
      "inputs": [
        {
          "internalType": "uint256",
          "name": "percentage",
          "type": "uint256"
        }
      ],
      "name": "ERC2981IncorrectRoyaltyPercentage",
      "type": "error"
    },
    {
      "inputs": [],
      "name": "ERC2981IncorrectRoyaltyReceiver",
      "type": "error"
    },
    {
      "inputs": [],
      "name": "ERC721BalanceOfAddressZero",
      "type": "error"
    },
    {
      "inputs": [
        {
          "internalType": "uint256",
          "name": "tokenId",
          "type": "uint256"
        }
      ],
      "name": "ERC721ExistingToken",
      "type": "error"
    },
    {
      "inputs": [],
      "name": "ERC721MintToAddressZero",
      "type": "error"
    },
    {
      "inputs": [
        {
          "internalType": "address",
          "name": "sender",
          "type": "address"
        },
        {
          "internalType": "address",
          "name": "owner",
          "type": "address"
        },
        {
          "internalType": "uint256",
          "name": "tokenId",
          "type": "uint256"
        }
      ],
      "name": "ERC721NonApprovedForApproval",
      "type": "error"
    },
    {
      "inputs": [
        {
          "internalType": "address",
          "name": "sender",
          "type": "address"
        },
        {
          "internalType": "address",
          "name": "owner",
          "type": "address"
        },
        {
          "internalType": "uint256",
          "name": "tokenId",
          "type": "uint256"
        }
      ],
      "name": "ERC721NonApprovedForTransfer",
      "type": "error"
    },
    {
      "inputs": [
        {
          "internalType": "uint256",
          "name": "tokenId",
          "type": "uint256"
        }
      ],
      "name": "ERC721NonExistingToken",
      "type": "error"
    },
    {
      "inputs": [
        {
          "internalType": "address",
          "name": "account",
          "type": "address"
        },
        {
          "internalType": "uint256",
          "name": "tokenId",
          "type": "uint256"
        }
      ],
      "name": "ERC721NonOwnedToken",
      "type": "error"
    },
    {
      "inputs": [
        {
          "internalType": "address",
          "name": "recipient",
          "type": "address"
        },
        {
          "internalType": "uint256",
          "name": "tokenId",
          "type": "uint256"
        }
      ],
      "name": "ERC721SafeTransferRejected",
      "type": "error"
    },
    {
      "inputs": [
        {
          "internalType": "address",
          "name": "account",
          "type": "address"
        }
      ],
      "name": "ERC721SelfApproval",
      "type": "error"
    },
    {
      "inputs": [
        {
          "internalType": "address",
          "name": "account",
          "type": "address"
        }
      ],
      "name": "ERC721SelfApprovalForAll",
      "type": "error"
    },
    {
      "inputs": [],
      "name": "ERC721TransferToAddressZero",
      "type": "error"
    },
    {
      "inputs": [],
      "name": "IllegalInterfaceId",
      "type": "error"
    },
    {
      "inputs": [],
      "name": "InconsistentArrayLengths",
      "type": "error"
    },
    {
      "inputs": [
        {
          "internalType": "uint256",
          "name": "currentPhase",
          "type": "uint256"
        },
        {
          "internalType": "uint256",
          "name": "newPhase",
          "type": "uint256"
        }
      ],
      "name": "InitializationPhaseAlreadyReached",
      "type": "error"
    },
    {
      "inputs": [
        {
          "internalType": "address",
          "name": "account",
          "type": "address"
        }
      ],
      "name": "NotContractOwner",
      "type": "error"
    },
    {
      "inputs": [
        {
          "internalType": "bytes32",
          "name": "role",
          "type": "bytes32"
        },
        {
          "internalType": "address",
          "name": "account",
          "type": "address"
        }
      ],
      "name": "NotRoleHolder",
      "type": "error"
    },
    {
      "inputs": [
        {
          "internalType": "address",
          "name": "operator",
          "type": "address"
        }
      ],
      "name": "OperatorNotAllowed",
      "type": "error"
    },
    {
      "anonymous": false,
      "inputs": [
        {
          "indexed": true,
          "internalType": "address",
          "name": "owner",
          "type": "address"
        },
        {
          "indexed": true,
          "internalType": "address",
          "name": "approved",
          "type": "address"
        },
        {
          "indexed": true,
          "internalType": "uint256",
          "name": "tokenId",
          "type": "uint256"
        }
      ],
      "name": "Approval",
      "type": "event"
    },
    {
      "anonymous": false,
      "inputs": [
        {
          "indexed": true,
          "internalType": "address",
          "name": "owner",
          "type": "address"
        },
        {
          "indexed": true,
          "internalType": "address",
          "name": "operator",
          "type": "address"
        },
        {
          "indexed": false,
          "internalType": "bool",
          "name": "approved",
          "type": "bool"
        }
      ],
      "name": "ApprovalForAll",
      "type": "event"
    },
    {
      "anonymous": false,
      "inputs": [
        {
          "indexed": true,
          "internalType": "address",
          "name": "previousOwner",
          "type": "address"
        },
        {
          "indexed": true,
          "internalType": "address",
          "name": "newOwner",
          "type": "address"
        }
      ],
      "name": "OwnershipTransferred",
      "type": "event"
    },
    {
      "anonymous": false,
      "inputs": [
        {
          "indexed": false,
          "internalType": "bytes32",
          "name": "role",
          "type": "bytes32"
        },
        {
          "indexed": false,
          "internalType": "address",
          "name": "account",
          "type": "address"
        },
        {
          "indexed": false,
          "internalType": "address",
          "name": "operator",
          "type": "address"
        }
      ],
      "name": "RoleGranted",
      "type": "event"
    },
    {
      "anonymous": false,
      "inputs": [
        {
          "indexed": false,
          "internalType": "bytes32",
          "name": "role",
          "type": "bytes32"
        },
        {
          "indexed": false,
          "internalType": "address",
          "name": "account",
          "type": "address"
        },
        {
          "indexed": false,
          "internalType": "address",
          "name": "operator",
          "type": "address"
        }
      ],
      "name": "RoleRevoked",
      "type": "event"
    },
    {
      "anonymous": false,
      "inputs": [
        {
          "indexed": true,
          "internalType": "address",
          "name": "from",
          "type": "address"
        },
        {
          "indexed": true,
          "internalType": "address",
          "name": "to",
          "type": "address"
        },
        {
          "indexed": true,
          "internalType": "uint256",
          "name": "tokenId",
          "type": "uint256"
        }
      ],
      "name": "Transfer",
      "type": "event"
    },
    {
      "inputs": [],
      "name": "MINTER_ROLE",
      "outputs": [
        {
          "internalType": "bytes32",
          "name": "",
          "type": "bytes32"
        }
      ],
      "stateMutability": "view",
      "type": "function"
    },
    {
      "inputs": [],
      "name": "ROYALTY_FEE_DENOMINATOR",
      "outputs": [
        {
          "internalType": "uint256",
          "name": "",
          "type": "uint256"
        }
      ],
      "stateMutability": "view",
      "type": "function"
    },
    {
      "inputs": [],
      "name": "__msgData",
      "outputs": [
        {
          "internalType": "bytes",
          "name": "",
          "type": "bytes"
        }
      ],
      "stateMutability": "view",
      "type": "function"
    },
    {
      "inputs": [
        {
          "internalType": "address",
          "name": "to",
          "type": "address"
        },
        {
          "internalType": "uint256",
          "name": "tokenId",
          "type": "uint256"
        }
      ],
      "name": "approve",
      "outputs": [],
      "stateMutability": "nonpayable",
      "type": "function"
    },
    {
      "inputs": [
        {
          "internalType": "address",
          "name": "owner",
          "type": "address"
        }
      ],
      "name": "balanceOf",
      "outputs": [
        {
          "internalType": "uint256",
          "name": "balance",
          "type": "uint256"
        }
      ],
      "stateMutability": "view",
      "type": "function"
    },
    {
      "inputs": [
        {
          "internalType": "address",
          "name": "to",
          "type": "address"
        },
        {
          "internalType": "uint256[]",
          "name": "tokenIds",
          "type": "uint256[]"
        }
      ],
      "name": "batchMint",
      "outputs": [],
      "stateMutability": "nonpayable",
      "type": "function"
    },
    {
      "inputs": [
        {
          "internalType": "address",
          "name": "from",
          "type": "address"
        },
        {
          "internalType": "address",
          "name": "to",
          "type": "address"
        },
        {
          "internalType": "uint256[]",
          "name": "tokenIds",
          "type": "uint256[]"
        }
      ],
      "name": "batchTransferFrom",
      "outputs": [],
      "stateMutability": "nonpayable",
      "type": "function"
    },
    {
      "inputs": [
        {
          "internalType": "address[]",
          "name": "recipients",
          "type": "address[]"
        },
        {
          "internalType": "uint256[]",
          "name": "tokenIds",
          "type": "uint256[]"
        }
      ],
      "name": "deliver",
      "outputs": [],
      "stateMutability": "nonpayable",
      "type": "function"
    },
    {
      "inputs": [],
      "name": "forwarderRegistry",
      "outputs": [
        {
          "internalType": "contract IForwarderRegistry",
          "name": "",
          "type": "address"
        }
      ],
      "stateMutability": "view",
      "type": "function"
    },
    {
      "inputs": [
        {
          "internalType": "uint256",
          "name": "tokenId",
          "type": "uint256"
        }
      ],
      "name": "getApproved",
      "outputs": [
        {
          "internalType": "address",
          "name": "approved",
          "type": "address"
        }
      ],
      "stateMutability": "view",
      "type": "function"
    },
    {
      "inputs": [
        {
          "internalType": "bytes32",
          "name": "role",
          "type": "bytes32"
        },
        {
          "internalType": "address",
          "name": "account",
          "type": "address"
        }
      ],
      "name": "grantRole",
      "outputs": [],
      "stateMutability": "nonpayable",
      "type": "function"
    },
    {
      "inputs": [
        {
          "internalType": "bytes32",
          "name": "role",
          "type": "bytes32"
        },
        {
          "internalType": "address",
          "name": "account",
          "type": "address"
        }
      ],
      "name": "hasRole",
      "outputs": [
        {
          "internalType": "bool",
          "name": "hasRole_",
          "type": "bool"
        }
      ],
      "stateMutability": "view",
      "type": "function"
    },
    {
      "inputs": [
        {
          "internalType": "string",
          "name": "tokenName",
          "type": "string"
        },
        {
          "internalType": "string",
          "name": "tokenSymbol",
          "type": "string"
        },
        {
          "internalType": "contract ITokenMetadataResolver",
          "name": "metadataResolver",
          "type": "address"
        },
        {
          "internalType": "contract IOperatorFilterRegistry",
          "name": "filterRegistry",
          "type": "address"
        }
      ],
      "name": "init",
      "outputs": [],
      "stateMutability": "nonpayable",
      "type": "function"
    },
    {
      "inputs": [
        {
          "internalType": "address",
          "name": "owner",
          "type": "address"
        },
        {
          "internalType": "address",
          "name": "operator",
          "type": "address"
        }
      ],
      "name": "isApprovedForAll",
      "outputs": [
        {
          "internalType": "bool",
          "name": "approvedForAll",
          "type": "bool"
        }
      ],
      "stateMutability": "view",
      "type": "function"
    },
    {
      "inputs": [
        {
          "internalType": "address",
          "name": "forwarder",
          "type": "address"
        }
      ],
      "name": "isTrustedForwarder",
      "outputs": [
        {
          "internalType": "bool",
          "name": "",
          "type": "bool"
        }
      ],
      "stateMutability": "view",
      "type": "function"
    },
    {
      "inputs": [],
      "name": "metadataResolver",
      "outputs": [
        {
          "internalType": "contract ITokenMetadataResolver",
          "name": "tokenMetadataResolver",
          "type": "address"
        }
      ],
      "stateMutability": "view",
      "type": "function"
    },
    {
      "inputs": [
        {
          "internalType": "address",
          "name": "to",
          "type": "address"
        },
        {
          "internalType": "uint256",
          "name": "tokenId",
          "type": "uint256"
        }
      ],
      "name": "mint",
      "outputs": [],
      "stateMutability": "nonpayable",
      "type": "function"
    },
    {
      "inputs": [],
      "name": "name",
      "outputs": [
        {
          "internalType": "string",
          "name": "tokenName",
          "type": "string"
        }
      ],
      "stateMutability": "view",
      "type": "function"
    },
    {
      "inputs": [],
      "name": "operatorFilterRegistry",
      "outputs": [
        {
          "internalType": "contract IOperatorFilterRegistry",
          "name": "",
          "type": "address"
        }
      ],
      "stateMutability": "view",
      "type": "function"
    },
    {
      "inputs": [],
      "name": "owner",
      "outputs": [
        {
          "internalType": "address",
          "name": "",
          "type": "address"
        }
      ],
      "stateMutability": "view",
      "type": "function"
    },
    {
      "inputs": [
        {
          "internalType": "uint256",
          "name": "tokenId",
          "type": "uint256"
        }
      ],
      "name": "ownerOf",
      "outputs": [
        {
          "internalType": "address",
          "name": "tokenOwner",
          "type": "address"
        }
      ],
      "stateMutability": "view",
      "type": "function"
    },
    {
      "inputs": [
        {
          "internalType": "address[]",
          "name": "accounts",
          "type": "address[]"
        },
        {
          "internalType": "contract IERC20[]",
          "name": "tokens",
          "type": "address[]"
        },
        {
          "internalType": "uint256[]",
          "name": "amounts",
          "type": "uint256[]"
        }
      ],
      "name": "recoverERC20s",
      "outputs": [],
      "stateMutability": "nonpayable",
      "type": "function"
    },
    {
      "inputs": [
        {
          "internalType": "address[]",
          "name": "accounts",
          "type": "address[]"
        },
        {
          "internalType": "contract IERC721[]",
          "name": "contracts",
          "type": "address[]"
        },
        {
          "internalType": "uint256[]",
          "name": "tokenIds",
          "type": "uint256[]"
        }
      ],
      "name": "recoverERC721s",
      "outputs": [],
      "stateMutability": "nonpayable",
      "type": "function"
    },
    {
      "inputs": [
        {
          "internalType": "address payable[]",
          "name": "accounts",
          "type": "address[]"
        },
        {
          "internalType": "uint256[]",
          "name": "amounts",
          "type": "uint256[]"
        }
      ],
      "name": "recoverETH",
      "outputs": [],
      "stateMutability": "nonpayable",
      "type": "function"
    },
    {
      "inputs": [
        {
          "internalType": "bytes32",
          "name": "role",
          "type": "bytes32"
        }
      ],
      "name": "renounceRole",
      "outputs": [],
      "stateMutability": "nonpayable",
      "type": "function"
    },
    {
      "inputs": [
        {
          "internalType": "bytes32",
          "name": "role",
          "type": "bytes32"
        },
        {
          "internalType": "address",
          "name": "account",
          "type": "address"
        }
      ],
      "name": "revokeRole",
      "outputs": [],
      "stateMutability": "nonpayable",
      "type": "function"
    },
    {
      "inputs": [
        {
          "internalType": "uint256",
          "name": "tokenId",
          "type": "uint256"
        },
        {
          "internalType": "uint256",
          "name": "salePrice",
          "type": "uint256"
        }
      ],
      "name": "royaltyInfo",
      "outputs": [
        {
          "internalType": "address",
          "name": "receiver",
          "type": "address"
        },
        {
          "internalType": "uint256",
          "name": "royaltyAmount",
          "type": "uint256"
        }
      ],
      "stateMutability": "view",
      "type": "function"
    },
    {
      "inputs": [
        {
          "internalType": "address",
          "name": "to",
          "type": "address"
        },
        {
          "internalType": "uint256",
          "name": "tokenId",
          "type": "uint256"
        },
        {
          "internalType": "bytes",
          "name": "data",
          "type": "bytes"
        }
      ],
      "name": "safeMint",
      "outputs": [],
      "stateMutability": "nonpayable",
      "type": "function"
    },
    {
      "inputs": [
        {
          "internalType": "address",
          "name": "from",
          "type": "address"
        },
        {
          "internalType": "address",
          "name": "to",
          "type": "address"
        },
        {
          "internalType": "uint256",
          "name": "tokenId",
          "type": "uint256"
        }
      ],
      "name": "safeTransferFrom",
      "outputs": [],
      "stateMutability": "nonpayable",
      "type": "function"
    },
    {
      "inputs": [
        {
          "internalType": "address",
          "name": "from",
          "type": "address"
        },
        {
          "internalType": "address",
          "name": "to",
          "type": "address"
        },
        {
          "internalType": "uint256",
          "name": "tokenId",
          "type": "uint256"
        },
        {
          "internalType": "bytes",
          "name": "data",
          "type": "bytes"
        }
      ],
      "name": "safeTransferFrom",
      "outputs": [],
      "stateMutability": "nonpayable",
      "type": "function"
    },
    {
      "inputs": [
        {
          "internalType": "address",
          "name": "operator",
          "type": "address"
        },
        {
          "internalType": "bool",
          "name": "approved",
          "type": "bool"
        }
      ],
      "name": "setApprovalForAll",
      "outputs": [],
      "stateMutability": "nonpayable",
      "type": "function"
    },
    {
      "inputs": [
        {
          "internalType": "uint256",
          "name": "percentage",
          "type": "uint256"
        }
      ],
      "name": "setRoyaltyPercentage",
      "outputs": [],
      "stateMutability": "nonpayable",
      "type": "function"
    },
    {
      "inputs": [
        {
          "internalType": "address",
          "name": "receiver",
          "type": "address"
        }
      ],
      "name": "setRoyaltyReceiver",
      "outputs": [],
      "stateMutability": "nonpayable",
      "type": "function"
    },
    {
      "inputs": [
        {
          "internalType": "bytes4",
          "name": "interfaceId",
          "type": "bytes4"
        }
      ],
      "name": "supportsInterface",
      "outputs": [
        {
          "internalType": "bool",
          "name": "",
          "type": "bool"
        }
      ],
      "stateMutability": "view",
      "type": "function"
    },
    {
      "inputs": [],
      "name": "symbol",
      "outputs": [
        {
          "internalType": "string",
          "name": "tokenSymbol",
          "type": "string"
        }
      ],
      "stateMutability": "view",
      "type": "function"
    },
    {
      "inputs": [
        {
          "internalType": "uint256",
          "name": "tokenId",
          "type": "uint256"
        }
      ],
      "name": "tokenURI",
      "outputs": [
        {
          "internalType": "string",
          "name": "uri",
          "type": "string"
        }
      ],
      "stateMutability": "view",
      "type": "function"
    },
    {
      "inputs": [
        {
          "internalType": "address",
          "name": "from",
          "type": "address"
        },
        {
          "internalType": "address",
          "name": "to",
          "type": "address"
        },
        {
          "internalType": "uint256",
          "name": "tokenId",
          "type": "uint256"
        }
      ],
      "name": "transferFrom",
      "outputs": [],
      "stateMutability": "nonpayable",
      "type": "function"
    },
    {
      "inputs": [
        {
          "internalType": "address",
          "name": "newOwner",
          "type": "address"
        }
      ],
      "name": "transferOwnership",
      "outputs": [],
      "stateMutability": "nonpayable",
      "type": "function"
    },
    {
      "inputs": [
        {
          "internalType": "contract IOperatorFilterRegistry",
          "name": "registry",
          "type": "address"
        }
      ],
      "name": "updateOperatorFilterRegistry",
      "outputs": [],
      "stateMutability": "nonpayable",
      "type": "function"
    }
  ],
  "bytecode": "0x60a06040523480156200001157600080fd5b506040516200429f3803806200429f833981016040819052620000349162000046565b6001600160a01b031660805262000078565b6000602082840312156200005957600080fd5b81516001600160a01b03811681146200007157600080fd5b9392505050565b6080516141e8620000b7600039600081816103b60152818161044c01528181612ebd01528181612f450152818161324b015261328901526141e86000f3fe608060405234801561001057600080fd5b50600436106102ad5760003560e01c80638832e6e31161017b578063b88d4fde116100d8578063e1a8bf2c1161008c578063f2fde38b11610071578063f2fde38b14610605578063f3993d1114610618578063f7ba94bd1461062b57600080fd5b8063e1a8bf2c146105e8578063e985e9c5146105f257600080fd5b8063c87b56dd116100bd578063c87b56dd1461059b578063d5391393146105ae578063d547741f146105d557600080fd5b8063b88d4fde14610575578063c3666c361461058857600080fd5b806395d89b411161012f578063a0c76f6211610114578063a0c76f6214610552578063a22cb4651461055a578063b0ccc31e1461056d57600080fd5b806395d89b41146105375780639da5e8321461053f57600080fd5b80638da5cb5b116101605780638da5cb5b146105095780638dc251e31461051157806391d148541461052457600080fd5b80638832e6e3146104e35780638bb9c5bf146104f657600080fd5b80632f2ff15d11610229578063572b6c05116101dd5780636352211e116101c25780636352211e1461049c57806370a08231146104af57806373c8a958146104d057600080fd5b8063572b6c051461043c57806361ba27da1461048957600080fd5b806340c10f191161020e57806340c10f191461040357806342842e0e146104165780634684d7e91461042957600080fd5b80632f2ff15d146103da57806331e66e1e146103ed57600080fd5b80630e07f8541161028057806323b872dd1161026557806323b872dd146103625780632a55205a146103755780632b4c9f16146103b457600080fd5b80630e07f8541461033c578063114ba8ee1461034f57600080fd5b806301ffc9a7146102b257806306fdde03146102da578063081812fc146102ef578063095ea7b314610327575b600080fd5b6102c56102c0366004613783565b61063e565b60405190151581526020015b60405180910390f35b6102e2610658565b6040516102d1919061380e565b6103026102fd366004613821565b610667565b60405173ffffffffffffffffffffffffffffffffffffffff90911681526020016102d1565b61033a61033536600461385c565b61067b565b005b61033a61034a3660046138ca565b6106ca565b61033a61035d36600461395f565b610747565b61033a61037036600461397c565b6107b2565b6103886103833660046139bd565b6107f0565b6040805173ffffffffffffffffffffffffffffffffffffffff90931683526020830191909152016102d1565b7f0000000000000000000000000000000000000000000000000000000000000000610302565b61033a6103e83660046139df565b610813565b6103f5610846565b6040516102d1929190613a0f565b61033a61041136600461385c565b610859565b61033a61042436600461397c565b6108a8565b61033a610437366004613aa1565b6108d9565b6102c561044a36600461395f565b7f000000000000000000000000000000000000000000000000000000000000000073ffffffffffffffffffffffffffffffffffffffff90811691161490565b61033a610497366004613821565b61094d565b6103026104aa366004613821565b61096a565b6104c26104bd36600461395f565b61097e565b6040519081526020016102d1565b61033a6104de366004613af6565b610992565b61033a6104f1366004613b90565b610a88565b61033a610504366004613821565b610b0a565b610302610b25565b61033a61051f36600461395f565b610b4c565b6102c56105323660046139df565b610b69565b6102e2610bb4565b61033a61054d366004613bec565b610bbe565b610302610c62565b61033a610568366004613c5a565b610c8c565b610302610cbb565b61033a610583366004613c88565b610cc8565b61033a610596366004613af6565b610cfd565b6102e26105a9366004613821565b610e75565b6104c27f6d696e746572000000000000000000000000000000000000000000000000000081565b61033a6105e33660046139df565b610e98565b6104c2620186a081565b6102c5610600366004613cfb565b610ec6565b61033a61061336600461395f565b610f14565b61033a610626366004613d29565b610f2f565b61033a610639366004613bec565b610f69565b60006106528261064c611020565b9061104e565b92915050565b6060610662611128565b905090565b60006106528261067561113a565b90611168565b73ffffffffffffffffffffffffffffffffffffffff8216156106a9576106a9826106a3611221565b9061124f565b6106c66106b4611259565b83836106be61113a565b929190611263565b5050565b6106e36106d5611259565b6106dd6114de565b9061150c565b6106eb61154b565b6106f3611582565b6106fb6115b0565b6107036115de565b61070b61160c565b61071361163a565b61072d8686868686610723611668565b9493929190611696565b61073f81610739611221565b90611730565b505050505050565b610760610752611259565b61075a6114de565b906117a0565b6107af8161076c611221565b9081547fffffffffffffffffffffffff00000000000000000000000000000000000000001673ffffffffffffffffffffffffffffffffffffffff91909116179055565b50565b60006107bc611259565b90506107d281856107cb611221565b919061180b565b6107ea818585856107e161113a565b93929190611848565b50505050565b6000806108078484610800611b26565b9190611b54565b915091505b9250929050565b600061081d611259565b905061082b8161075a6114de565b610841838383610839611bfe565b929190611c2c565b505050565b366000610851611d02565b915091509091565b6108947f6d696e7465720000000000000000000000000000000000000000000000000000610885611259565b61088d611bfe565b9190611d0d565b6106c682826108a161113a565b9190611d93565b60006108b2611259565b90506108c181856107cb611221565b6107ea818585856108d061113a565b93929190611ead565b6109057f6d696e7465720000000000000000000000000000000000000000000000000000610885611259565b61084183838380806020026020016040519081016040528093929190818152602001838360200280828437600092019190915250610946925061113a915050565b9190611ef3565b610958610752611259565b6107af81610964611b26565b9061206b565b60006106528261097861113a565b906120f1565b60006106528261098c61113a565b9061215a565b61099d610752611259565b8483811415806109ad5750808214155b156109e4576040517f6582533600000000000000000000000000000000000000000000000000000000815260040160405180910390fd5b60005b81811015610a7e57610a76888883818110610a0457610a04613d82565b9050602002016020810190610a19919061395f565b858584818110610a2b57610a2b613d82565b90506020020135888885818110610a4457610a44613d82565b9050602002016020810190610a59919061395f565b73ffffffffffffffffffffffffffffffffffffffff1691906121d6565b6001016109e7565b5050505050505050565b610ab47f6d696e7465720000000000000000000000000000000000000000000000000000610885611259565b6107ea610abf611259565b858585858080601f016020809104026020016040519081016040528093929190818152602001838380828437600092019190915250610b01925061113a915050565b93929190612263565b6107af610b15611259565b82610b1e611bfe565b9190612299565b6000610662610b326114de565b5473ffffffffffffffffffffffffffffffffffffffff1690565b610b57610752611259565b6107af81610b63611b26565b9061233d565b6000610bad8383610b78611bfe565b60009283526020908152604080842073ffffffffffffffffffffffffffffffffffffffff909316845291905290205460ff1690565b9392505050565b606061066261238a565b610bea7f6d696e7465720000000000000000000000000000000000000000000000000000610885611259565b6107ea84848080602002602001604051908101604052809392919081815260200183836020028082843760009201919091525050604080516020808802828101820190935287825290935087925086918291850190849080828437600092019190915250610c5b925061113a915050565b919061239c565b6000610662610c6f611668565b6002015473ffffffffffffffffffffffffffffffffffffffff1690565b8015610c9e57610c9e826106a3611221565b6106c6610ca9611259565b8383610cb361113a565b929190612432565b6000610662610b32611221565b6000610cd2611259565b9050610ce181876107cb611221565b61073f818787878787610cf261113a565b95949392919061254a565b610d08610752611259565b848381141580610d185750808214155b15610d4f576040517f6582533600000000000000000000000000000000000000000000000000000000815260040160405180910390fd5b60005b81811015610a7e57858582818110610d6c57610d6c613d82565b9050602002016020810190610d81919061395f565b73ffffffffffffffffffffffffffffffffffffffff166323b872dd308a8a85818110610daf57610daf613d82565b9050602002016020810190610dc4919061395f565b878786818110610dd657610dd6613d82565b6040517fffffffff0000000000000000000000000000000000000000000000000000000060e088901b16815273ffffffffffffffffffffffffffffffffffffffff958616600482015294909316602485015250602090910201356044820152606401600060405180830381600087803b158015610e5257600080fd5b505af1158015610e66573d6000803e3d6000fd5b50505050806001019050610d52565b6060610e838261097861113a565b506106523083610e91611668565b91906125c0565b6000610ea2611259565b9050610eb08161075a6114de565b610841838383610ebe611bfe565b929190612680565b6000610bad8383610ed561113a565b919073ffffffffffffffffffffffffffffffffffffffff9182166000908152600393909301602090815260408085209290931684525290205460ff1690565b6107af610f1f611259565b82610f286114de565b919061274a565b6000610f39611259565b9050610f4881866107cb611221565b610f628186868686610f5861113a565b949392919061285e565b5050505050565b610f74610752611259565b82818114610fae576040517f6582533600000000000000000000000000000000000000000000000000000000815260040160405180910390fd5b60005b8181101561073f57611018848483818110610fce57610fce613d82565b90506020020135878784818110610fe757610fe7613d82565b9050602002016020810190610ffc919061395f565b73ffffffffffffffffffffffffffffffffffffffff1690612b63565b600101610fb1565b60008061065260017fca9d3e17f264b0f3984e2634e94adb37fa3e6a8103f06aeae6fa59e21c769f5e613de0565b60007c01000000000000000000000000000000000000000000000000000000007fffffffff0000000000000000000000000000000000000000000000000000000083160161109e57506000610652565b7ffe003659000000000000000000000000000000000000000000000000000000007fffffffff000000000000000000000000000000000000000000000000000000008316016110ef57506001610652565b507fffffffff00000000000000000000000000000000000000000000000000000000166000908152602091909152604090205460ff1690565b6060610662611135611668565b612cbd565b60008061065260017fddf3ee18ae6d688373c219468f8be446e7ae82215f4779d821c7ea5e8c13c0c1613de0565b60008181526020839052604081205473ffffffffffffffffffffffffffffffffffffffff81166111cc576040517fdd560475000000000000000000000000000000000000000000000000000000008152600481018490526024015b60405180910390fd5b74010000000000000000000000000000000000000000811615611217575050600081815260028301602052604090205473ffffffffffffffffffffffffffffffffffffffff16610652565b6000915050610652565b60008061065260017f609b85bcafa81ecfaf3ff62cdde2c6c9082a68dbe4922f07399c706bdeb7cd31613de0565b6106c68282612d53565b6000610662612e7a565b60008181526020859052604090205473ffffffffffffffffffffffffffffffffffffffff81166112c2576040517fdd560475000000000000000000000000000000000000000000000000000000008152600481018390526024016111c3565b8073ffffffffffffffffffffffffffffffffffffffff8082169085160361132d576040517fb7fdc01000000000000000000000000000000000000000000000000000000000815273ffffffffffffffffffffffffffffffffffffffff821660048201526024016111c3565b611338868287612fc1565b611395576040517fc7563a1800000000000000000000000000000000000000000000000000000000815273ffffffffffffffffffffffffffffffffffffffff808716600483015282166024820152604481018490526064016111c3565b73ffffffffffffffffffffffffffffffffffffffff84166113fa57740100000000000000000000000000000000000000008216156113f557600083815260208790526040902073ffffffffffffffffffffffffffffffffffffffff821690555b61147b565b74010000000000000000000000000000000000000000821780831461142b5760008481526020889052604090208190555b506000838152600287016020526040902080547fffffffffffffffffffffffff00000000000000000000000000000000000000001673ffffffffffffffffffffffffffffffffffffffff86161790555b828473ffffffffffffffffffffffffffffffffffffffff168273ffffffffffffffffffffffffffffffffffffffff167f8c5be1e5ebec7d5bd14f71427d1e84f3dd0314c0f7b2291e5b200ac8c7c3b92560405160405180910390a4505050505050565b60008061065260017fc9ed16f33ab3a66c84bfd83099ccb2a8845871e2e1c1928f63797152f0fd54cd613de0565b61154161153a60017f5b388d90dc1312ba799f321972f13311234fa1163bcabec7cf66101c4876eb84613de0565b6001613036565b6106c68282613082565b6115807f80ac58cd000000000000000000000000000000000000000000000000000000006001611579611020565b9190613138565b565b6115807ff3993d11000000000000000000000000000000000000000000000000000000006001611579611020565b6115807f5b5e139f000000000000000000000000000000000000000000000000000000006001611579611020565b6115807f8e773e13000000000000000000000000000000000000000000000000000000006001611579611020565b6115807f9da5e832000000000000000000000000000000000000000000000000000000006001611579611020565b6115807f2a55205a000000000000000000000000000000000000000000000000000000006001611579611020565b60008061065260017f7ea68fd2dcf1c056b94db6a0a537aa80d26fa9ab1eacd85da1ba0b61b7e7a8a5613de0565b6116c461153a60017f92f72593ca50a0096f68ee94e7000db40ed086164b695855e2250750b8bfaf59613de0565b856116d0858783613ebd565b50600186016116e0838583613ebd565b5060029590950180547fffffffffffffffffffffffff00000000000000000000000000000000000000001673ffffffffffffffffffffffffffffffffffffffff9096169590951790945550505050565b61175e61153a60017f2f02d396cb1be29636682c8684200b30a98554d3b74293aa4495cb5e1d252f6e613de0565b81547fffffffffffffffffffffffff00000000000000000000000000000000000000001673ffffffffffffffffffffffffffffffffffffffff91909116179055565b815473ffffffffffffffffffffffffffffffffffffffff8281169116146106c6576040517f2ef4875e00000000000000000000000000000000000000000000000000000000815273ffffffffffffffffffffffffffffffffffffffff821660048201526024016111c3565b8073ffffffffffffffffffffffffffffffffffffffff168273ffffffffffffffffffffffffffffffffffffffff1614610841576108418383612d53565b73ffffffffffffffffffffffffffffffffffffffff8216611895576040517f86c8706700000000000000000000000000000000000000000000000000000000815260040160405180910390fd5b60008181526020869052604090205473ffffffffffffffffffffffffffffffffffffffff81166118f4576040517fdd560475000000000000000000000000000000000000000000000000000000008152600481018390526024016111c3565b73ffffffffffffffffffffffffffffffffffffffff84168173ffffffffffffffffffffffffffffffffffffffff1614611978576040517f14dbb53600000000000000000000000000000000000000000000000000000000815273ffffffffffffffffffffffffffffffffffffffff85166004820152602481018390526044016111c3565b611983868587612fc1565b611a325774010000000000000000000000000000000000000000811615806119d45750600082815260028701602052604090205473ffffffffffffffffffffffffffffffffffffffff868116911614155b15611a32576040517fa4a3018b00000000000000000000000000000000000000000000000000000000815273ffffffffffffffffffffffffffffffffffffffff808716600483015285166024820152604481018390526064016111c3565b600082815260208790526040902073ffffffffffffffffffffffffffffffffffffffff80851691829055851614611ac35773ffffffffffffffffffffffffffffffffffffffff80851660009081526001808901602052604080832080547fffffffffffffffffffffffffffffffffffffffffffffffffffffffffffffffff0190559286168252919020805490910190555b818373ffffffffffffffffffffffffffffffffffffffff168573ffffffffffffffffffffffffffffffffffffffff167fddf252ad1be2c89b69c2b068fc378daa952ba7f163c4a11628f55a4df523b3ef60405160405180910390a4505050505050565b60008061065260017f2c0cf10337caabbd02dcf226f05f5fd19a0919a41a8df8958c39b80007826858613de0565b825473ffffffffffffffffffffffffffffffffffffffff8116906000907401000000000000000000000000000000000000000090046bffffffffffffffffffffffff16831580611ba2575080155b15611bb05760009150611bf5565b620186a0841015611bda57620186a0611bc98286613fd7565b611bd39190613fee565b9150611bf5565b80611be8620186a086613fee565b611bf29190613fd7565b91505b50935093915050565b60008061065260017fc8827d3282af6f37b64c3e9e6f3ac9df286ab0bb0fccd6f8661bf19adb368b23613de0565b60008381526020858152604080832073ffffffffffffffffffffffffffffffffffffffff8616845290915290205460ff166107ea5760008381526020858152604080832073ffffffffffffffffffffffffffffffffffffffff8681168086529184529382902080547fffffffffffffffffffffffffffffffffffffffffffffffffffffffffffffff00166001179055815187815292830152918316918101919091527f2f8788117e7eff1d82e926ec794901d17c78024a50270940304540a733656f0d906060015b60405180910390a150505050565b366000610851613214565b60008281526020848152604080832073ffffffffffffffffffffffffffffffffffffffff8516845290915290205460ff16610841576040517f7aa728820000000000000000000000000000000000000000000000000000000081526004810183905273ffffffffffffffffffffffffffffffffffffffff821660248201526044016111c3565b73ffffffffffffffffffffffffffffffffffffffff8216611de0576040517f7851b9cd00000000000000000000000000000000000000000000000000000000815260040160405180910390fd5b60008181526020849052604090205473ffffffffffffffffffffffffffffffffffffffff1615611e3f576040517f753eceac000000000000000000000000000000000000000000000000000000008152600481018290526024016111c3565b60008181526020848152604080832073ffffffffffffffffffffffffffffffffffffffff86169081905580845260018088019093528184208054909301909255518392907fddf252ad1be2c89b69c2b068fc378daa952ba7f163c4a11628f55a4df523b3ef908290a4505050565b611eba8585858585611848565b73ffffffffffffffffffffffffffffffffffffffff82163b15610f6257610f62848484846040518060200160405280600081525061337e565b73ffffffffffffffffffffffffffffffffffffffff8216611f40576040517f7851b9cd00000000000000000000000000000000000000000000000000000000815260040160405180910390fd5b805160005b81811015612036576000838281518110611f6157611f61613d82565b60200260200101519050611f9f8660000160008381526020019081526020016000205473ffffffffffffffffffffffffffffffffffffffff16151590565b15611fd9576040517f753eceac000000000000000000000000000000000000000000000000000000008152600481018290526024016111c3565b60008181526020879052604080822073ffffffffffffffffffffffffffffffffffffffff88169081905590518392907fddf252ad1be2c89b69c2b068fc378daa952ba7f163c4a11628f55a4df523b3ef908290a450600101611f45565b5073ffffffffffffffffffffffffffffffffffffffff9092166000908152600190930160205250604090912080549091019055565b620186a08111156120ab576040517fac040408000000000000000000000000000000000000000000000000000000008152600481018290526024016111c3565b81546bffffffffffffffffffffffff909116740100000000000000000000000000000000000000000273ffffffffffffffffffffffffffffffffffffffff909116179055565b60008181526020839052604081205473ffffffffffffffffffffffffffffffffffffffff8116612150576040517fdd560475000000000000000000000000000000000000000000000000000000008152600481018490526024016111c3565b805b949350505050565b600073ffffffffffffffffffffffffffffffffffffffff82166121a9576040517faefbce4e00000000000000000000000000000000000000000000000000000000815260040160405180910390fd5b5073ffffffffffffffffffffffffffffffffffffffff166000908152600191909101602052604090205490565b6040805173ffffffffffffffffffffffffffffffffffffffff8416602482015260448082018490528251808303909101815260649091019091526020810180517bffffffffffffffffffffffffffffffffffffffffffffffffffffffff167fa9059cbb00000000000000000000000000000000000000000000000000000000179052610841908490613493565b61226e858484611d93565b73ffffffffffffffffffffffffffffffffffffffff83163b15610f6257610f6284600085858561337e565b6122a4838284611d0d565b60008181526020848152604080832073ffffffffffffffffffffffffffffffffffffffff86168085529083529281902080547fffffffffffffffffffffffffffffffffffffffffffffffffffffffffffffff0016905580518481529182018390528101919091527ff6391f5c32d9c69d2a47ea670b442974b53935d1edc7fd64eb21e047a839171b9060600160405180910390a1505050565b73ffffffffffffffffffffffffffffffffffffffff811661175e576040517f16de0c8000000000000000000000000000000000000000000000000000000000815260040160405180910390fd5b6060610662612397611668565b6135a2565b8151815181146123d8576040517f6582533600000000000000000000000000000000000000000000000000000000815260040160405180910390fd5b60005b81811015610f625761242a8482815181106123f8576123f8613d82565b602002602001015184838151811061241257612412613d82565b602002602001015187611d939092919063ffffffff16565b6001016123db565b8273ffffffffffffffffffffffffffffffffffffffff168273ffffffffffffffffffffffffffffffffffffffff16036124af576040517fe4215c6a00000000000000000000000000000000000000000000000000000000815273ffffffffffffffffffffffffffffffffffffffff841660048201526024016111c3565b73ffffffffffffffffffffffffffffffffffffffff838116600081815260038701602090815260408083209487168084529482529182902080547fffffffffffffffffffffffffffffffffffffffffffffffffffffffffffffff001686151590811790915591519182527f17307eab39ab6107e8899845ad3d59bd9653f200f220920489ca2b5937696c31910160405180910390a350505050565b6125578787878787611848565b73ffffffffffffffffffffffffffffffffffffffff84163b156125b7576125b78686868686868080601f01602080910402602001604051908101604052809392919081815260200183838082843760009201919091525061337e92505050565b50505050505050565b60028301546040517ff724dad700000000000000000000000000000000000000000000000000000000815273ffffffffffffffffffffffffffffffffffffffff848116600483015260248201849052606092169063f724dad790604401600060405180830381865afa15801561263a573d6000803e3d6000fd5b505050506040513d6000823e601f3d9081017fffffffffffffffffffffffffffffffffffffffffffffffffffffffffffffffe01682016040526121529190810190614029565b60008381526020858152604080832073ffffffffffffffffffffffffffffffffffffffff8616845290915290205460ff16156107ea5760008381526020858152604080832073ffffffffffffffffffffffffffffffffffffffff8681168086529184529382902080547fffffffffffffffffffffffffffffffffffffffffffffffffffffffffffffff00169055815187815292830152918316918101919091527ff6391f5c32d9c69d2a47ea670b442974b53935d1edc7fd64eb21e047a839171b90606001611cf4565b825473ffffffffffffffffffffffffffffffffffffffff90811690831681146127b7576040517f2ef4875e00000000000000000000000000000000000000000000000000000000815273ffffffffffffffffffffffffffffffffffffffff841660048201526024016111c3565b8173ffffffffffffffffffffffffffffffffffffffff168173ffffffffffffffffffffffffffffffffffffffff16146107ea5783547fffffffffffffffffffffffff00000000000000000000000000000000000000001673ffffffffffffffffffffffffffffffffffffffff8381169182178655604051908316907f8be0079c531659141344cd1fd0a4f28419497f9722a3daafe3b4186f6b6457e090600090a350505050565b73ffffffffffffffffffffffffffffffffffffffff83166128ab576040517f86c8706700000000000000000000000000000000000000000000000000000000815260040160405180910390fd5b60006128b8878688612fc1565b90508160005b81811015612adc5760008585838181106128da576128da613d82565b602090810292909201356000818152928d90526040909220549192505073ffffffffffffffffffffffffffffffffffffffff8116612947576040517fdd560475000000000000000000000000000000000000000000000000000000008152600481018390526024016111c3565b73ffffffffffffffffffffffffffffffffffffffff89168173ffffffffffffffffffffffffffffffffffffffff16146129cb576040517f14dbb53600000000000000000000000000000000000000000000000000000000815273ffffffffffffffffffffffffffffffffffffffff8a166004820152602481018390526044016111c3565b84612a7b577401000000000000000000000000000000000000000081161580612a1d5750600082815260028c01602052604090205473ffffffffffffffffffffffffffffffffffffffff8b8116911614155b15612a7b576040517fa4a3018b00000000000000000000000000000000000000000000000000000000815273ffffffffffffffffffffffffffffffffffffffff808c1660048301528a166024820152604481018390526064016111c3565b600082815260208c9052604080822073ffffffffffffffffffffffffffffffffffffffff808c16918290559151859391928d16917fddf252ad1be2c89b69c2b068fc378daa952ba7f163c4a11628f55a4df523b3ef91a450506001016128be565b508473ffffffffffffffffffffffffffffffffffffffff168673ffffffffffffffffffffffffffffffffffffffff1614158015612b1857508015155b15610a7e5773ffffffffffffffffffffffffffffffffffffffff808716600090815260018a016020526040808220805485900390559187168152208054820190555050505050505050565b80471015612bcd576040517f08c379a000000000000000000000000000000000000000000000000000000000815260206004820152601d60248201527f416464726573733a20696e73756666696369656e742062616c616e636500000060448201526064016111c3565b60008273ffffffffffffffffffffffffffffffffffffffff168260405160006040518083038185875af1925050503d8060008114612c27576040519150601f19603f3d011682016040523d82523d6000602084013e612c2c565b606091505b5050905080610841576040517f08c379a000000000000000000000000000000000000000000000000000000000815260206004820152603a60248201527f416464726573733a20756e61626c6520746f2073656e642076616c75652c207260448201527f6563697069656e74206d6179206861766520726576657274656400000000000060648201526084016111c3565b6060816000018054612cce90613e22565b80601f0160208091040260200160405190810160405280929190818152602001828054612cfa90613e22565b8015612d475780601f10612d1c57610100808354040283529160200191612d47565b820191906000526020600020905b815481529060010190602001808311612d2a57829003601f168201915b50505050509050919050565b815473ffffffffffffffffffffffffffffffffffffffff168015801590612d91575060008173ffffffffffffffffffffffffffffffffffffffff163b115b15610841576040517fc617113400000000000000000000000000000000000000000000000000000000815230600482015273ffffffffffffffffffffffffffffffffffffffff838116602483015282169063c617113490604401602060405180830381865afa158015612e08573d6000803e3d6000fd5b505050506040513d601f19601f82011682018060405250810190612e2c91906140e9565b610841576040517fede71dcc00000000000000000000000000000000000000000000000000000000815273ffffffffffffffffffffffffffffffffffffffff831660048201526024016111c3565b600033321480612e8a5750601836105b15612e9457503390565b7fffffffffffffffffffffffffffffffffffffffffffffffffffffffffffffffec36013560601c7f000000000000000000000000000000000000000000000000000000000000000073ffffffffffffffffffffffffffffffffffffffff16331480612fb057506040517f8929a8ca00000000000000000000000000000000000000000000000000000000815273ffffffffffffffffffffffffffffffffffffffff82811660048301523360248301527f00000000000000000000000000000000000000000000000000000000000000001690638929a8ca90604401602060405180830381865afa158015612f8c573d6000803e3d6000fd5b505050506040513d601f19601f82011682018060405250810190612fb091906140e9565b15612fba57919050565b3391505090565b60008173ffffffffffffffffffffffffffffffffffffffff168373ffffffffffffffffffffffffffffffffffffffff16148061215257505073ffffffffffffffffffffffffffffffffffffffff9182166000908152600393909301602090815260408085209290931684525290205460ff1690565b8154829082811061307d576040517fbf0c18ec00000000000000000000000000000000000000000000000000000000815260048101829052602481018490526044016111c3565b505550565b73ffffffffffffffffffffffffffffffffffffffff81161561310a5781547fffffffffffffffffffffffff00000000000000000000000000000000000000001673ffffffffffffffffffffffffffffffffffffffff821690811783556040516000907f8be0079c531659141344cd1fd0a4f28419497f9722a3daafe3b4186f6b6457e0908290a35b6106c67f7f5828d0000000000000000000000000000000000000000000000000000000006001611579611020565b7c01000000000000000000000000000000000000000000000000000000007fffffffff000000000000000000000000000000000000000000000000000000008316016131b0576040517f72c683bb00000000000000000000000000000000000000000000000000000000815260040160405180910390fd5b7fffffffff00000000000000000000000000000000000000000000000000000000919091166000908152602092909252604090912080547fffffffffffffffffffffffffffffffffffffffffffffffffffffffffffffff0016911515919091179055565b366000333214806132255750601836105b156132335750600091369150565b3373ffffffffffffffffffffffffffffffffffffffff7f0000000000000000000000000000000000000000000000000000000000000000161480613368575073ffffffffffffffffffffffffffffffffffffffff7f000000000000000000000000000000000000000000000000000000000000000016638929a8ca367fffffffffffffffffffffffffffffffffffffffffffffffffffffffffffffffec013560601c6040517fffffffff0000000000000000000000000000000000000000000000000000000060e084901b16815273ffffffffffffffffffffffffffffffffffffffff9091166004820152336024820152604401602060405180830381865afa158015613344573d6000803e3d6000fd5b505050506040513d601f19601f8201168201806040525081019061336891906140e9565b15613375576108516135b3565b50600091369150565b6040517f150b7a02000000000000000000000000000000000000000000000000000000008082529073ffffffffffffffffffffffffffffffffffffffff85169063150b7a02906133d8908990899088908890600401614106565b6020604051808303816000875af11580156133f7573d6000803e3d6000fd5b505050506040513d601f19601f8201168201806040525081019061341b919061414f565b7fffffffff000000000000000000000000000000000000000000000000000000001614610f62576040517fc215a7a100000000000000000000000000000000000000000000000000000000815273ffffffffffffffffffffffffffffffffffffffff84166004820152602481018390526044016111c3565b60006134f5826040518060400160405280602081526020017f5361666545524332303a206c6f772d6c6576656c2063616c6c206661696c65648152508573ffffffffffffffffffffffffffffffffffffffff166135e49092919063ffffffff16565b905080516000148061351657508080602001905181019061351691906140e9565b610841576040517f08c379a000000000000000000000000000000000000000000000000000000000815260206004820152602a60248201527f5361666545524332303a204552433230206f7065726174696f6e20646964206e60448201527f6f7420737563636565640000000000000000000000000000000000000000000060648201526084016111c3565b6060816001018054612cce90613e22565b3660006108517fffffffffffffffffffffffffffffffffffffffffffffffffffffffffffffffec830182848161416c565b60606121528484600085856000808673ffffffffffffffffffffffffffffffffffffffff1685876040516136189190614196565b60006040518083038185875af1925050503d8060008114613655576040519150601f19603f3d011682016040523d82523d6000602084013e61365a565b606091505b509150915061366b87838387613676565b979650505050505050565b6060831561370c5782516000036137055773ffffffffffffffffffffffffffffffffffffffff85163b613705576040517f08c379a000000000000000000000000000000000000000000000000000000000815260206004820152601d60248201527f416464726573733a2063616c6c20746f206e6f6e2d636f6e747261637400000060448201526064016111c3565b5081612152565b61215283838151156137215781518083602001fd5b806040517f08c379a00000000000000000000000000000000000000000000000000000000081526004016111c3919061380e565b7fffffffff00000000000000000000000000000000000000000000000000000000811681146107af57600080fd5b60006020828403121561379557600080fd5b8135610bad81613755565b60005b838110156137bb5781810151838201526020016137a3565b50506000910152565b600081518084526137dc8160208601602086016137a0565b601f017fffffffffffffffffffffffffffffffffffffffffffffffffffffffffffffffe0169290920160200192915050565b602081526000610bad60208301846137c4565b60006020828403121561383357600080fd5b5035919050565b73ffffffffffffffffffffffffffffffffffffffff811681146107af57600080fd5b6000806040838503121561386f57600080fd5b823561387a8161383a565b946020939093013593505050565b60008083601f84011261389a57600080fd5b50813567ffffffffffffffff8111156138b257600080fd5b60208301915083602082850101111561080c57600080fd5b600080600080600080608087890312156138e357600080fd5b863567ffffffffffffffff808211156138fb57600080fd5b6139078a838b01613888565b9098509650602089013591508082111561392057600080fd5b5061392d89828a01613888565b90955093505060408701356139418161383a565b915060608701356139518161383a565b809150509295509295509295565b60006020828403121561397157600080fd5b8135610bad8161383a565b60008060006060848603121561399157600080fd5b833561399c8161383a565b925060208401356139ac8161383a565b929592945050506040919091013590565b600080604083850312156139d057600080fd5b50508035926020909101359150565b600080604083850312156139f257600080fd5b823591506020830135613a048161383a565b809150509250929050565b60208152816020820152818360408301376000818301604090810191909152601f9092017fffffffffffffffffffffffffffffffffffffffffffffffffffffffffffffffe0160101919050565b60008083601f840112613a6e57600080fd5b50813567ffffffffffffffff811115613a8657600080fd5b6020830191508360208260051b850101111561080c57600080fd5b600080600060408486031215613ab657600080fd5b8335613ac18161383a565b9250602084013567ffffffffffffffff811115613add57600080fd5b613ae986828701613a5c565b9497909650939450505050565b60008060008060008060608789031215613b0f57600080fd5b863567ffffffffffffffff80821115613b2757600080fd5b613b338a838b01613a5c565b90985096506020890135915080821115613b4c57600080fd5b613b588a838b01613a5c565b90965094506040890135915080821115613b7157600080fd5b50613b7e89828a01613a5c565b979a9699509497509295939492505050565b60008060008060608587031215613ba657600080fd5b8435613bb18161383a565b935060208501359250604085013567ffffffffffffffff811115613bd457600080fd5b613be087828801613888565b95989497509550505050565b60008060008060408587031215613c0257600080fd5b843567ffffffffffffffff80821115613c1a57600080fd5b613c2688838901613a5c565b90965094506020870135915080821115613c3f57600080fd5b50613be087828801613a5c565b80151581146107af57600080fd5b60008060408385031215613c6d57600080fd5b8235613c788161383a565b91506020830135613a0481613c4c565b600080600080600060808688031215613ca057600080fd5b8535613cab8161383a565b94506020860135613cbb8161383a565b935060408601359250606086013567ffffffffffffffff811115613cde57600080fd5b613cea88828901613888565b969995985093965092949392505050565b60008060408385031215613d0e57600080fd5b8235613d198161383a565b91506020830135613a048161383a565b60008060008060608587031215613d3f57600080fd5b8435613d4a8161383a565b93506020850135613d5a8161383a565b9250604085013567ffffffffffffffff811115613d7657600080fd5b613be087828801613a5c565b7f4e487b7100000000000000000000000000000000000000000000000000000000600052603260045260246000fd5b7f4e487b7100000000000000000000000000000000000000000000000000000000600052601160045260246000fd5b8181038181111561065257610652613db1565b7f4e487b7100000000000000000000000000000000000000000000000000000000600052604160045260246000fd5b600181811c90821680613e3657607f821691505b602082108103613e6f577f4e487b7100000000000000000000000000000000000000000000000000000000600052602260045260246000fd5b50919050565b601f821115610841576000816000526020600020601f850160051c81016020861015613e9e5750805b601f850160051c820191505b8181101561073f57828155600101613eaa565b67ffffffffffffffff831115613ed557613ed5613df3565b613ee983613ee38354613e22565b83613e75565b6000601f841160018114613f3b5760008515613f055750838201355b7fffffffffffffffffffffffffffffffffffffffffffffffffffffffffffffffff600387901b1c1916600186901b178355610f62565b6000838152602090207fffffffffffffffffffffffffffffffffffffffffffffffffffffffffffffffe0861690835b82811015613f8a5786850135825560209485019460019092019101613f6a565b5086821015613fc5577fffffffffffffffffffffffffffffffffffffffffffffffffffffffffffffffff60f88860031b161c19848701351681555b505060018560011b0183555050505050565b808202811582820484141761065257610652613db1565b600082614024577f4e487b7100000000000000000000000000000000000000000000000000000000600052601260045260246000fd5b500490565b60006020828403121561403b57600080fd5b815167ffffffffffffffff8082111561405357600080fd5b818401915084601f83011261406757600080fd5b81518181111561407957614079613df3565b604051601f82017fffffffffffffffffffffffffffffffffffffffffffffffffffffffffffffffe0908116603f011681019083821181831017156140bf576140bf613df3565b816040528281528760208487010111156140d857600080fd5b61366b8360208301602088016137a0565b6000602082840312156140fb57600080fd5b8151610bad81613c4c565b600073ffffffffffffffffffffffffffffffffffffffff80871683528086166020840152508360408301526080606083015261414560808301846137c4565b9695505050505050565b60006020828403121561416157600080fd5b8151610bad81613755565b6000808585111561417c57600080fd5b8386111561418957600080fd5b5050820193919092039150565b600082516141a88184602087016137a0565b919091019291505056fea264697066735822122078e8e308b14924e26d770c9f472985bae620c1ee6dbc2f69c5c77098677deecd64736f6c63430008160033",
  "linkReferences": {},
  "deployedLinkReferences": {}
}