{
  "_format": "hh-sol-artifact-1",
  "contractName": "DiamondMock",
  "sourceName": "contracts/mocks/diamond/DiamondMock.sol",
  "abi": [
    {
      "inputs": [
        {
          "components": [
            {
              "internalType": "address",
              "name": "facet",
              "type": "address"
            },
            {
              "internalType": "enum IDiamondCutCommon.FacetCutAction",
              "name": "action",
              "type": "uint8"
            },
            {
              "internalType": "bytes4[]",
              "name": "selectors",
              "type": "bytes4[]"
            }
          ],
          "internalType": "struct IDiamondCutCommon.FacetCut[]",
          "name": "cuts",
          "type": "tuple[]"
        },
        {
          "components": [
            {
              "internalType": "address",
              "name": "target",
              "type": "address"
            },
            {
              "internalType": "bytes",
              "name": "data",
              "type": "bytes"
            }
          ],
          "internalType": "struct IDiamondCutCommon.Initialization[]",
          "name": "initializations",
          "type": "tuple[]"
        }
      ],
      "stateMutability": "payable",
      "type": "constructor"
    },
    {
      "anonymous": false,
      "inputs": [],
      "name": "ImmutableFunctionCalled",
      "type": "event"
    },
    {
      "stateMutability": "payable",
      "type": "fallback"
    },
    {
      "inputs": [],
      "name": "immutableFunction",
      "outputs": [],
      "stateMutability": "nonpayable",
      "type": "function"
    },
    {
      "stateMutability": "payable",
      "type": "receive"
    }
  ],
  "bytecode": "0x6080604052604051620026b4380380620026b4833981016040819052620000269162000fe3565b818162000058828262000043620001fc60201b620001531760201c565b6200023260201b620001b2179092919060201c565b50506040805160018082528183019092526000916020808301908036833701905050905063ba7fabfd60e01b816000815181106200009a576200009a6200119b565b6001600160e01b03199290921660209283029190910190910152604080516001808252818301909252600091816020015b60408051606080820183526000808352602083015291810191909152815260200190600190039081620000cb57905050905030816000815181106200011457620001146200119b565b6020026020010151600001906001600160a01b031690816001600160a01b0316815250506000816000815181106200015057620001506200119b565b6020026020010151602001906002811115620001705762000170620011b1565b90816002811115620001865762000186620011b1565b815250508181600081518110620001a157620001a16200119b565b602002602001015160400181905250620001f281600060405180602001604052806000815250620001dc620001fc60201b620001531760201c565b620002e660201b6200025517909392919060201c565b5050505062001374565b6000806200022c60017f65d27473a5b05206737961f69a3b7a55316862d7a6ef82b3f5455fe92fab43e3620011c7565b92915050565b6200024c82846200033060201b620002aa1790919060201c565b600080516020620026948339815191528260006040516200026f929190620012c2565b60405180910390a1805160005b818114620002df57620002d68382815181106200029d576200029d6200119b565b602002602001015160000151848381518110620002be57620002be6200119b565b602002602001015160200151620004ed60201b60201c565b6001016200027c565b5050505050565b620002f2848462000330565b600080516020620026948339815191528383836040516200031693929190620012ff565b60405180910390a16200032a8282620004ed565b50505050565b600182015461ffff811690819060009060071615620003615750600381901c60009081526002850160205260409020545b835160005b818114620004a55760008682815181106200038557620003856200119b565b60200260200101519050600081602001519050816040015151600003620003f35760405162461bcd60e51b815260206004820152601e60248201527f4469616d6f6e643a206e6f2066756e6374696f6e2073656c6563746f7273000060448201526064015b60405180910390fd5b60008160028111156200040a576200040a620011b1565b0362000439576200042e8686848c620006e560201b6200045217909392919060201c565b90965094506200049a565b6001816002811115620004505762000450620011b1565b03620004765762000470828a620008a560201b620006891790919060201c565b6200049a565b620004948686848c62000ac660201b6200096f17909392919060201c565b90965094505b505060010162000366565b50838314620004c25760018601805461ffff191661ffff85161790555b6007831615620004e557600383901c600090815260028701602052604090208290555b505050505050565b6001600160a01b03821662000551578051156200054d5760405162461bcd60e51b815260206004820152601a60248201527f4469616d6f6e643a2064617461206973206e6f7420656d7074790000000000006044820152606401620003ea565b5050565b8051600003620005a45760405162461bcd60e51b815260206004820152601660248201527f4469616d6f6e643a206461746120697320656d707479000000000000000000006044820152606401620003ea565b6001600160a01b03821630146200062257620005d4826001600160a01b031662000d8060201b62000d711760201c565b620006225760405162461bcd60e51b815260206004820152601b60248201527f4469616d6f6e643a2074617267657420686173206e6f20636f646500000000006044820152606401620003ea565b600080836001600160a01b0316836040516200063f919062001356565b600060405180830381855af49150503d80600081146200067c576040519150601f19603f3d011682016040523d82523d6000602084013e62000681565b606091505b5091509150816200032a57805180156200069c578082602001fd5b60405162461bcd60e51b815260206004820152601b60248201527f4469616d6f6e643a20696e69742063616c6c20726576657274656400000000006044820152606401620003ea565b805160009081906001600160a01b03163014806200072157506200072183600001516001600160a01b031662000d8060201b62000d711760201c565b6200076f5760405162461bcd60e51b815260206004820152601a60248201527f4469616d6f6e643a20666163657420686173206e6f20636f64650000000000006044820152606401620003ea565b60408301515160005b81811462000897576000856040015182815181106200079b576200079b6200119b565b6020908102919091018101516001600160e01b031981166000908152918b9052604090912054909150606081901c15620008185760405162461bcd60e51b815260206004820152601f60248201527f4469616d6f6e643a2073656c6563746f7220616c7265616479206164646564006044820152606401620003ea565b86516001600160e01b0319838116600081815260208e90526040902060609390931b6001600160601b0319168c1790925560058b901b60e090811692831c91831c199a909a161798819003620008825760038a901c600090815260028c0160205260408120999099555b89600101995050505080600101905062000778565b509496939550929350505050565b620008c881600001516001600160a01b031662000d8060201b62000d711760201c565b620009165760405162461bcd60e51b815260206004820152601a60248201527f4469616d6f6e643a20666163657420686173206e6f20636f64650000000000006044820152606401620003ea565b60408101515160005b8181146200032a576000836040015182815181106200094257620009426200119b565b6020908102919091018101516001600160e01b03198116600090815291879052604090912054909150606081901c80620009bf5760405162461bcd60e51b815260206004820152601b60248201527f4469616d6f6e643a2073656c6563746f72206e6f7420666f756e6400000000006044820152606401620003ea565b306001600160a01b0382160362000a195760405162461bcd60e51b815260206004820152601b60248201527f4469616d6f6e643a20696d6d757461626c652066756e6374696f6e00000000006044820152606401620003ea565b85600001516001600160a01b0316816001600160a01b03160362000a805760405162461bcd60e51b815260206004820152601b60248201527f4469616d6f6e643a206964656e746963616c2066756e6374696f6e00000000006044820152606401620003ea565b5084516001600160e01b031992909216600090815260208790526040902060609290921b6001600160601b0319166001600160601b03919091161790556001016200091f565b805160009081906001600160a01b03161562000b255760405162461bcd60e51b815260206004820152601f60248201527f4469616d6f6e643a206e6f6e2d7a65726f2061646472657373206661636574006044820152606401620003ea565b600385901c6007861660005b856040015151811462000d6c5760008660400151828151811062000b595762000b596200119b565b6020908102919091018101516001600160e01b031981166000908152918c9052604090912054909150606081901c62000bd55760405162461bcd60e51b815260206004820152601b60248201527f4469616d6f6e643a2073656c6563746f72206e6f7420666f756e6400000000006044820152606401620003ea565b30606082901c0362000c2a5760405162461bcd60e51b815260206004820152601b60248201527f4469616d6f6e643a20696d6d757461626c652066756e6374696f6e00000000006044820152606401620003ea565b600089900362000c5857600019909401600081815260028c0160205260409020549850936007935062000c60565b600019909301925b600584901b89901b6000806001600160e01b03198084169086161462000cb3576001600160e01b03198316600090815260208f90526040902080546001600160601b0319166001600160601b0386161790555b50506001600160e01b03198316600090815260208d90526040812055611fff600383901c1660e0600584901b1687821462000d1857600082815260028f016020526040902080546001600160e01b031980841c19909116908516831c17905562000d3c565b80836001600160e01b031916901c816001600160e01b031960001b901c198d16179b505b8660000362000d5b57600088815260028f01602052604081208190559b505b505050505080600101905062000b31565b5060039190911b1796939550929350505050565b6001600160a01b03163b151590565b634e487b7160e01b600052604160045260246000fd5b604080519081016001600160401b038111828210171562000dca5762000dca62000d8f565b60405290565b604051606081016001600160401b038111828210171562000dca5762000dca62000d8f565b604051601f8201601f191681016001600160401b038111828210171562000e205762000e2062000d8f565b604052919050565b60006001600160401b0382111562000e445762000e4462000d8f565b5060051b60200190565b80516001600160a01b038116811462000e6657600080fd5b919050565b60005b8381101562000e8857818101518382015260200162000e6e565b838111156200032a5750506000910152565b6000601f838184011262000ead57600080fd5b8251602062000ec662000ec08362000e28565b62000df5565b82815260059290921b8501810191818101908784111562000ee657600080fd5b8287015b8481101562000fd75780516001600160401b038082111562000f0c5760008081fd5b908901906040601f19838d03810182131562000f285760008081fd5b62000f3262000da5565b62000f3f89860162000e4e565b8152828501518481111562000f545760008081fd5b8086019550508d603f86011262000f6b5760008081fd5b888501518481111562000f825762000f8262000d8f565b62000f938a848e8401160162000df5565b94508085528e8482880101111562000fad57600092508283fd5b62000fbe818b870186890162000e6b565b5080890193909352505084525091830191830162000eea565b50979650505050505050565b6000806040838503121562000ff757600080fd5b82516001600160401b03808211156200100f57600080fd5b818501915085601f8301126200102457600080fd5b815160206200103762000ec08362000e28565b82815260059290921b840181019181810190898411156200105757600080fd5b8286015b8481101562001167578051868111156200107457600080fd5b87016060818d03601f190112156200108b57600080fd5b6200109562000dd0565b620010a286830162000e4e565b8152604082015160038110620010b757600080fd5b81870152606082015188811115620010ce57600080fd5b8083019250508c603f830112620010e457600080fd5b85820151620010f762000ec08262000e28565b81815260059190911b830160400190878101908f8311156200111857600080fd5b6040850194505b82851015620011515784516001600160e01b0319811681146200114157600080fd5b825293880193908801906200111f565b604084015250508452509183019183016200105b565b50918801519196509093505050808211156200118257600080fd5b50620011918582860162000e9a565b9150509250929050565b634e487b7160e01b600052603260045260246000fd5b634e487b7160e01b600052602160045260246000fd5b600082821015620011e857634e487b7160e01b600052601160045260246000fd5b500390565b6000815180845260208085019450848260051b860182860160005b85811015620012b5578383038952815180516001600160a01b031684528581015160609081860190600381106200124f57634e487b7160e01b600052602160045260246000fd5b86890152604092830151928601919091528151908190529086019060808501906000905b808210156200129f5783516001600160e01b031916835292880192918801916001919091019062001273565b5050998601999350509084019060010162001208565b5090979650505050505050565b606081526000620012d76060830185620011ed565b60018060a01b0384166020840152828103604084015260008152602081019150509392505050565b606081526000620013146060830186620011ed565b60018060a01b0385166020840152828103604084015283518082526200134281602084016020880162000e6b565b601f01601f19160160200195945050505050565b600082516200136a81846020870162000e6b565b9190910192915050565b61131080620013846000396000f3fe6080604052600436106100225760003560e01c8063ba7fabfd1461013e57610029565b3661002957005b60006100946000357fffffffff000000000000000000000000000000000000000000000000000000001661005b610153565b907fffffffff00000000000000000000000000000000000000000000000000000000166000908152602091909152604090205460601c90565b905073ffffffffffffffffffffffffffffffffffffffff8116610118576040517f08c379a000000000000000000000000000000000000000000000000000000000815260206004820152601b60248201527f4469616d6f6e643a2066756e6374696f6e206e6f7420666f756e64000000000060448201526064015b60405180910390fd5b3660008037600080366000845af43d6000803e808015610137573d6000f35b3d6000fd5b005b34801561014a57600080fd5b5061013c610187565b60008061018160017f65d27473a5b05206737961f69a3b7a55316862d7a6ef82b3f5455fe92fab43e3610ffe565b92915050565b6040517f722d29b00acdf165bd4f9387f49041b6ff0b811414a43fd05527a13121fd7d3490600090a1565b6101bc83836102aa565b7f8faa70878671ccd212d20771b795c50af8fd3ff6cf27f4bde57e5d4de0aeb6738260006040516101ee92919061119b565b60405180910390a1805160005b81811461024e57610246838281518110610217576102176111e4565b602002602001015160000151848381518110610235576102356111e4565b602002602001015160200151610d8d565b6001016101fb565b5050505050565b61025f84846102aa565b7f8faa70878671ccd212d20771b795c50af8fd3ff6cf27f4bde57e5d4de0aeb6738383836040516102929392919061123f565b60405180910390a16102a48282610d8d565b50505050565b600182015461ffff8116908190600090600716156102da5750600381901c60009081526002850160205260409020545b835160005b8181146103ef5760008682815181106102fa576102fa6111e4565b6020026020010151905060008160200151905081604001515160000361037c576040517f08c379a000000000000000000000000000000000000000000000000000000000815260206004820152601e60248201527f4469616d6f6e643a206e6f2066756e6374696f6e2073656c6563746f72730000604482015260640161010f565b60008160028111156103905761039061103c565b036103ab576103a189878785610452565b90965094506103e5565b60018160028111156103bf576103bf61103c565b036103d3576103ce8983610689565b6103e5565b6103df8987878561096f565b90965094505b50506001016102df565b50838314610428576001860180547fffffffffffffffffffffffffffffffffffffffffffffffffffffffffffff00001661ffff85161790555b600783161561044a57600383901c600090815260028701602052604090208290555b505050505050565b8051600090819073ffffffffffffffffffffffffffffffffffffffff163014806104935750825173ffffffffffffffffffffffffffffffffffffffff163b15155b6104f9576040517f08c379a000000000000000000000000000000000000000000000000000000000815260206004820152601a60248201527f4469616d6f6e643a20666163657420686173206e6f20636f6465000000000000604482015260640161010f565b60408301515160005b81811461067b57600085604001518281518110610521576105216111e4565b6020908102919091018101517fffffffff0000000000000000000000000000000000000000000000000000000081166000908152918b9052604090912054909150606081901c156105ce576040517f08c379a000000000000000000000000000000000000000000000000000000000815260206004820152601f60248201527f4469616d6f6e643a2073656c6563746f7220616c726561647920616464656400604482015260640161010f565b86517fffffffff00000000000000000000000000000000000000000000000000000000838116600081815260208e90526040902060609390931b7fffffffffffffffffffffffffffffffffffffffff000000000000000000000000168c1790925560058b901b60e090811692831c91831c199a909a1617988190036106675760038a901c600090815260028c0160205260408120999099555b896001019950505050806001019050610502565b509496939550929350505050565b805173ffffffffffffffffffffffffffffffffffffffff163b610708576040517f08c379a000000000000000000000000000000000000000000000000000000000815260206004820152601a60248201527f4469616d6f6e643a20666163657420686173206e6f20636f6465000000000000604482015260640161010f565b60408101515160005b8181146102a457600083604001518281518110610730576107306111e4565b6020908102919091018101517fffffffff000000000000000000000000000000000000000000000000000000008116600090815291879052604090912054909150606081901c806107dd576040517f08c379a000000000000000000000000000000000000000000000000000000000815260206004820152601b60248201527f4469616d6f6e643a2073656c6563746f72206e6f7420666f756e640000000000604482015260640161010f565b3073ffffffffffffffffffffffffffffffffffffffff82160361085c576040517f08c379a000000000000000000000000000000000000000000000000000000000815260206004820152601b60248201527f4469616d6f6e643a20696d6d757461626c652066756e6374696f6e0000000000604482015260640161010f565b856000015173ffffffffffffffffffffffffffffffffffffffff168173ffffffffffffffffffffffffffffffffffffffff16036108f5576040517f08c379a000000000000000000000000000000000000000000000000000000000815260206004820152601b60248201527f4469616d6f6e643a206964656e746963616c2066756e6374696f6e0000000000604482015260640161010f565b5084517fffffffff0000000000000000000000000000000000000000000000000000000092909216600090815260208790526040902060609290921b7fffffffffffffffffffffffffffffffffffffffff000000000000000000000000166bffffffffffffffffffffffff91909116179055600101610711565b8051600090819073ffffffffffffffffffffffffffffffffffffffff16156109f3576040517f08c379a000000000000000000000000000000000000000000000000000000000815260206004820152601f60248201527f4469616d6f6e643a206e6f6e2d7a65726f206164647265737320666163657400604482015260640161010f565b600385901c6007861660005b8560400151518114610d5d57600086604001518281518110610a2357610a236111e4565b6020908102919091018101517fffffffff0000000000000000000000000000000000000000000000000000000081166000908152918c9052604090912054909150606081901c610acf576040517f08c379a000000000000000000000000000000000000000000000000000000000815260206004820152601b60248201527f4469616d6f6e643a2073656c6563746f72206e6f7420666f756e640000000000604482015260640161010f565b30606082901c03610b3c576040517f08c379a000000000000000000000000000000000000000000000000000000000815260206004820152601b60248201527f4469616d6f6e643a20696d6d757461626c652066756e6374696f6e0000000000604482015260640161010f565b6000899003610b86577fffffffffffffffffffffffffffffffffffffffffffffffffffffffffffffffff909401600081815260028c01602052604090205498509360079350610bac565b7fffffffffffffffffffffffffffffffffffffffffffffffffffffffffffffffff909301925b600584901b89901b6000807fffffffff0000000000000000000000000000000000000000000000000000000080841690861614610c4b577fffffffff000000000000000000000000000000000000000000000000000000008316600090815260208f90526040902080547fffffffffffffffffffffffffffffffffffffffff000000000000000000000000166bffffffffffffffffffffffff86161790555b50507fffffffff000000000000000000000000000000000000000000000000000000008316600090815260208d90526040812055611fff600383901c1660e0600584901b16878214610cde57600082815260028f016020526040902080547fffffffff0000000000000000000000000000000000000000000000000000000080841c19909116908516831c179055610d2f565b80837bffffffffffffffffffffffffffffffffffffffffffffffffffffffff1916901c817fffffffff0000000000000000000000000000000000000000000000000000000060001b901c198d16179b505b86600003610d4d57600088815260028f01602052604081208190559b505b50505050508060010190506109ff565b5060039190911b1796939550929350505050565b73ffffffffffffffffffffffffffffffffffffffff163b151590565b73ffffffffffffffffffffffffffffffffffffffff8216610e1557805115610e11576040517f08c379a000000000000000000000000000000000000000000000000000000000815260206004820152601a60248201527f4469616d6f6e643a2064617461206973206e6f7420656d707479000000000000604482015260640161010f565b5050565b8051600003610e80576040517f08c379a000000000000000000000000000000000000000000000000000000000815260206004820152601660248201527f4469616d6f6e643a206461746120697320656d70747900000000000000000000604482015260640161010f565b73ffffffffffffffffffffffffffffffffffffffff82163014610f1b5773ffffffffffffffffffffffffffffffffffffffff82163b610f1b576040517f08c379a000000000000000000000000000000000000000000000000000000000815260206004820152601b60248201527f4469616d6f6e643a2074617267657420686173206e6f20636f64650000000000604482015260640161010f565b6000808373ffffffffffffffffffffffffffffffffffffffff1683604051610f4391906112be565b600060405180830381855af49150503d8060008114610f7e576040519150601f19603f3d011682016040523d82523d6000602084013e610f83565b606091505b5091509150816102a45780518015610f9c578082602001fd5b6040517f08c379a000000000000000000000000000000000000000000000000000000000815260206004820152601b60248201527f4469616d6f6e643a20696e69742063616c6c2072657665727465640000000000604482015260640161010f565b600082821015611037577f4e487b7100000000000000000000000000000000000000000000000000000000600052601160045260246000fd5b500390565b7f4e487b7100000000000000000000000000000000000000000000000000000000600052602160045260246000fd5b600082825180855260208086019550808260051b84010181860160005b8481101561118e577fffffffffffffffffffffffffffffffffffffffffffffffffffffffffffffffe08684030189528151606080850173ffffffffffffffffffffffffffffffffffffffff83511686528683015160038110611113577f4e487b7100000000000000000000000000000000000000000000000000000000600052602160045260246000fd5b86880152604092830151928601919091528151908190529085019060808501906000905b808210156111795783517fffffffff00000000000000000000000000000000000000000000000000000000168352928701929187019160019190910190611137565b50509985019993505090830190600101611088565b5090979650505050505050565b6060815260006111ae606083018561106b565b73ffffffffffffffffffffffffffffffffffffffff84166020840152828103604084015260008152602081019150509392505050565b7f4e487b7100000000000000000000000000000000000000000000000000000000600052603260045260246000fd5b60005b8381101561122e578181015183820152602001611216565b838111156102a45750506000910152565b606081526000611252606083018661106b565b73ffffffffffffffffffffffffffffffffffffffff851660208401528281036040840152835180825261128c816020840160208801611213565b601f017fffffffffffffffffffffffffffffffffffffffffffffffffffffffffffffffe0160160200195945050505050565b600082516112d0818460208701611213565b919091019291505056fea2646970667358221220bc8dc915526298019664f19db2b023201bdcbaafed6fb7dd047c1d5ef1a8e73d64736f6c634300080f00338faa70878671ccd212d20771b795c50af8fd3ff6cf27f4bde57e5d4de0aeb673",
  "linkReferences": {},
  "deployedLinkReferences": {}
}