{
  "_format": "hh-sol-artifact-1",
  "contractName": "DiamondMock",
  "sourceName": "contracts/mocks/diamond/DiamondMock.sol",
  "abi": [
    {
      "inputs": [
        {
          "components": [
            {
              "internalType": "address",
              "name": "facetAddress",
              "type": "address"
            },
            {
              "internalType": "enum IDiamondCutBase.FacetCutAction",
              "name": "action",
              "type": "uint8"
            },
            {
              "internalType": "bytes4[]",
              "name": "functionSelectors",
              "type": "bytes4[]"
            }
          ],
          "internalType": "struct IDiamondCutBase.FacetCut[]",
          "name": "cuts",
          "type": "tuple[]"
        },
        {
          "components": [
            {
              "internalType": "address",
              "name": "initContract",
              "type": "address"
            },
            {
              "internalType": "bytes",
              "name": "initData",
              "type": "bytes"
            }
          ],
          "internalType": "struct IDiamondCutBase.Initialization[]",
          "name": "initializations",
          "type": "tuple[]"
        }
      ],
      "stateMutability": "payable",
      "type": "constructor"
    },
    {
      "anonymous": false,
      "inputs": [],
      "name": "ImmutableFunctionCalled",
      "type": "event"
    },
    {
      "stateMutability": "payable",
      "type": "fallback"
    },
    {
      "inputs": [],
      "name": "immutableFunction",
      "outputs": [],
      "stateMutability": "nonpayable",
      "type": "function"
    },
    {
      "stateMutability": "payable",
      "type": "receive"
    }
  ],
  "bytecode": "0x6080604052604051620031543803806200315483398101604081905262000026916200133a565b818162000058828262000043620001fc60201b620001701760201c565b6200023260201b620001a4179092919060201c565b50506040805160018082528183019092526000916020808301908036833701905050905063ba7fabfd60e01b816000815181106200009a576200009a620014f2565b6001600160e01b03199290921660209283029190910190910152604080516001808252818301909252600091816020015b60408051606080820183526000808352602083015291810191909152815260200190600190039081620000cb5790505090503081600081518110620001145762000114620014f2565b6020026020010151600001906001600160a01b031690816001600160a01b031681525050600081600081518110620001505762000150620014f2565b602002602001015160200190600281111562000170576200017062001508565b9081600281111562000186576200018662001508565b815250508181600081518110620001a157620001a1620014f2565b602002602001015160400181905250620001f281600060405180602001604052806000815250620001dc620001fc60201b620001701760201c565b620002f160201b6200025017909392919060201c565b5050505062001770565b6000806200022c60017f65d27473a5b05206737961f69a3b7a55316862d7a6ef82b3f5455fe92fab43e362001534565b92915050565b6200024c82846200033b60201b620002a51790919060201c565b600080516020620031348339815191528260006040516200026f92919062001626565b60405180910390a1805160005b81811015620002ea57620002d78382815181106200029e576200029e620014f2565b602002602001015160000151848381518110620002bf57620002bf620014f2565b602002602001015160200151620004ea60201b60201c565b620002e28162001663565b90506200027c565b5050505050565b620002fd84846200033b565b600080516020620031348339815191528383836040516200032193929190620016ad565b60405180910390a1620003358282620004ea565b50505050565b805160005b8181101562000335576000838281518110620003605762000360620014f2565b60200260200101516020015190506000600281111562000384576200038462001508565b81600281111562000399576200039962001508565b036200040157620003fb848381518110620003b857620003b8620014f2565b602002602001015160000151858481518110620003d957620003d9620014f2565b60200260200101516040015187620006fa60201b6200041a179092919060201c565b620004d6565b600181600281111562000418576200041862001508565b036200047a57620003fb848381518110620004375762000437620014f2565b602002602001015160000151858481518110620004585762000458620014f2565b60200260200101516040015187620008c960201b62000739179092919060201c565b620004d6848381518110620004935762000493620014f2565b602002602001015160000151858481518110620004b457620004b4620014f2565b6020026020010151604001518762000ab160201b62000a60179092919060201c565b50620004e28162001663565b905062000340565b6001600160a01b03821662000552578051156200054e5760405162461bcd60e51b815260206004820152601f60248201527f4469616d6f6e643a2063616c6c646174615f206973206e6f7420656d7074790060448201526064015b60405180910390fd5b5050565b6000815111620005a55760405162461bcd60e51b815260206004820152601b60248201527f4469616d6f6e643a2063616c6c646174615f20697320656d7074790000000000604482015260640162000545565b6001600160a01b03821630146200062357620005d5826001600160a01b031662000bce60201b62000bdb1760201c565b620006235760405162461bcd60e51b815260206004820152601a60248201527f4469616d6f6e643a20696e69745f20686173206e6f20636f6465000000000000604482015260640162000545565b600080836001600160a01b031683604051620006409190620016ef565b600060405180830381855af49150503d80600081146200067d576040519150601f19603f3d011682016040523d82523d6000602084013e62000682565b606091505b5091509150816200033557805115620006b1578060405162461bcd60e51b81526004016200054591906200170d565b60405162461bcd60e51b815260206004820152601c60248201527f4469616d6f6e643a20696e69745f2063616c6c20726576657274656400000000604482015260640162000545565b6001600160a01b038216620007525760405162461bcd60e51b815260206004820152601b60248201527f4469616d6f6e643a207a65726f20616464726573732066616365740000000000604482015260640162000545565b805180620007925760405162461bcd60e51b815260206004820152601e602482015260008051602062003114833981519152604482015260640162000545565b6001600160a01b0383166000908152600185016020526040812054906001600160601b0382169003620007d957620007d9848662000bdd60201b62000bf71790919060201c565b60005b82811015620008c1576000848281518110620007fc57620007fc620014f2565b6020908102919091018101516001600160e01b031981166000908152918990526040909120549091506001600160a01b031680156200087e5760405162461bcd60e51b815260206004820152601a60248201527f4469616d6f6e643a206578697374696e672066756e6374696f6e000000000000604482015260640162000545565b6200089c8285898b62000ca360201b62000cff17909392919060201c565b83620008a88162001729565b945050505080620008b99062001663565b9050620007dc565b505050505050565b6001600160a01b038216620009215760405162461bcd60e51b815260206004820152601b60248201527f4469616d6f6e643a207a65726f20616464726573732066616365740000000000604482015260640162000545565b805180620009615760405162461bcd60e51b815260206004820152601e602482015260008051602062003114833981519152604482015260640162000545565b6001600160a01b0383166000908152600185016020526040812054906001600160601b0382169003620009a857620009a8848662000bdd60201b62000bf71790919060201c565b60005b82811015620008c1576000848281518110620009cb57620009cb620014f2565b6020908102919091018101516001600160e01b031981166000908152918990526040909120549091506001600160a01b03908116908716810362000a525760405162461bcd60e51b815260206004820152601b60248201527f4469616d6f6e643a206964656e746963616c2066756e6374696f6e0000000000604482015260640162000545565b62000a6e81838a62000d4360201b62000df2179092919060201c565b62000a8c8285898b62000ca360201b62000cff17909392919060201c565b8362000a988162001729565b94505050508062000aa99062001663565b9050620009ab565b6001600160a01b0382161562000b0a5760405162461bcd60e51b815260206004820152601f60248201527f4469616d6f6e643a206e6f6e2d7a65726f206164647265737320666163657400604482015260640162000545565b80518062000b4a5760405162461bcd60e51b815260206004820152601e602482015260008051602062003114833981519152604482015260640162000545565b60005b81811015620002ea57600083828151811062000b6d5762000b6d620014f2565b6020908102919091018101516001600160e01b03198116600090815288835260409020549092506001600160a01b03169062000bb89088908390859062000df262000d43821b17901c565b50508062000bc69062001663565b905062000b4d565b6001600160a01b03163b151590565b6001600160a01b038116301462000c5b5762000c0d816001600160a01b031662000bce60201b62000bdb1760201c565b62000c5b5760405162461bcd60e51b815260206004820152601a60248201527f4469616d6f6e643a20666163657420686173206e6f20636f6465000000000000604482015260640162000545565b6002820180546001600160a01b0390921660008181526001948501602090815260408220860185905594840183559182529290200180546001600160a01b0319169091179055565b6001600160e01b0319831660008181526020868152604080832080546001600160601b03909716600160a01b026001600160a01b0397881617815594909516808352600180890183529583208054968701815583528183206008870401805460e09890981c60046007909816979097026101000a96870263ffffffff9097021990971695909517909555529290915281546001600160a01b031916179055565b6001600160a01b03821662000d9b5760405162461bcd60e51b815260206004820152601b60248201527f4469616d6f6e643a2066756e6374696f6e206e6f7420666f756e640000000000604482015260640162000545565b306001600160a01b0383160362000df55760405162461bcd60e51b815260206004820152601b60248201527f4469616d6f6e643a20696d6d757461626c652066756e6374696f6e0000000000604482015260640162000545565b6001600160e01b03198116600090815260208481526040808320546001600160a01b0386168452600180880190935290832054600160a01b9091046001600160601b0316929162000e469162001534565b905080821462000f3f576001600160a01b0384166000908152600186016020526040812080548390811062000e7f5762000e7f620014f2565b600091825260208083206008830401546001600160a01b038916845260018a019091526040909220805460079092166004026101000a90920460e01b92508291908590811062000ed35762000ed3620014f2565b600091825260208083206008830401805463ffffffff60079094166004026101000a938402191660e09590951c929092029390931790556001600160e01b03199290921682528690526040902080546001600160a01b0316600160a01b6001600160601b038516021790555b6001600160a01b0384166000908152600186016020526040902080548062000f6b5762000f6b6200175a565b60008281526020808220600860001990940193840401805463ffffffff600460078716026101000a0219169055919092556001600160e01b03198516825286905260408120819055819003620002ea57600285015460009062000fd19060019062001534565b6001600160a01b038616600090815260018089016020526040909120015490915080821462001087576000876002018381548110620010145762001014620014f2565b6000918252602090912001546002890180546001600160a01b039092169250829184908110620010485762001048620014f2565b600091825260208083209190910180546001600160a01b0319166001600160a01b03948516179055929091168152600189810190925260409020018190555b866002018054806200109d576200109d6200175a565b60008281526020808220830160001990810180546001600160a01b03191690559092019092556001600160a01b0388168252600189810190915260408220015550505050505050565b634e487b7160e01b600052604160045260246000fd5b604080519081016001600160401b0381118282101715620011215762001121620010e6565b60405290565b604051606081016001600160401b0381118282101715620011215762001121620010e6565b604051601f8201601f191681016001600160401b0381118282101715620011775762001177620010e6565b604052919050565b60006001600160401b038211156200119b576200119b620010e6565b5060051b60200190565b80516001600160a01b0381168114620011bd57600080fd5b919050565b60005b83811015620011df578181015183820152602001620011c5565b83811115620003355750506000910152565b6000601f83818401126200120457600080fd5b825160206200121d62001217836200117f565b6200114c565b82815260059290921b850181019181810190878411156200123d57600080fd5b8287015b848110156200132e5780516001600160401b0380821115620012635760008081fd5b908901906040601f19838d0381018213156200127f5760008081fd5b62001289620010fc565b62001296898601620011a5565b81528285015184811115620012ab5760008081fd5b8086019550508d603f860112620012c25760008081fd5b8885015184811115620012d957620012d9620010e6565b620012ea8a848e840116016200114c565b94508085528e848288010111156200130457600092508283fd5b62001315818b8701868901620011c2565b5080890193909352505084525091830191830162001241565b50979650505050505050565b600080604083850312156200134e57600080fd5b82516001600160401b03808211156200136657600080fd5b818501915085601f8301126200137b57600080fd5b815160206200138e62001217836200117f565b82815260059290921b84018101918181019089841115620013ae57600080fd5b8286015b84811015620014be57805186811115620013cb57600080fd5b87016060818d03601f19011215620013e257600080fd5b620013ec62001127565b620013f9868301620011a5565b81526040820151600381106200140e57600080fd5b818701526060820151888111156200142557600080fd5b8083019250508c603f8301126200143b57600080fd5b858201516200144e62001217826200117f565b81815260059190911b830160400190878101908f8311156200146f57600080fd5b6040850194505b82851015620014a85784516001600160e01b0319811681146200149857600080fd5b8252938801939088019062001476565b60408401525050845250918301918301620013b2565b5091880151919650909350505080821115620014d957600080fd5b50620014e885828601620011f1565b9150509250929050565b634e487b7160e01b600052603260045260246000fd5b634e487b7160e01b600052602160045260246000fd5b634e487b7160e01b600052601160045260246000fd5b6000828210156200154957620015496200151e565b500390565b600081518084526020808501808196508360051b8101915082860160005b8581101562001619578284038952815180516001600160a01b03168552858101516060908187019060038110620015b357634e487b7160e01b600052602160045260246000fd5b87890152604092830151928701919091528151908190529086019060808601906000905b80821015620016035783516001600160e01b0319168352928801929188019160019190910190620015d7565b505099860199945050908401906001016200156c565b5091979650505050505050565b6060815260006200163b60608301856200154e565b60018060a01b0384166020840152828103604084015260008152602081019150509392505050565b6000600182016200167857620016786200151e565b5060010190565b6000815180845262001699816020860160208601620011c2565b601f01601f19169290920160200192915050565b606081526000620016c260608301866200154e565b6001600160a01b03851660208401528281036040840152620016e581856200167f565b9695505050505050565b6000825162001703818460208701620011c2565b9190910192915050565b6020815260006200172260208301846200167f565b9392505050565b60006001600160601b038281166002600160601b031981016200175057620017506200151e565b6001019392505050565b634e487b7160e01b600052603160045260246000fd5b61199480620017806000396000f3fe6080604052600436106100225760003560e01c8063ba7fabfd1461013557610029565b3661002957005b600061005660017f65d27473a5b05206737961f69a3b7a55316862d7a6ef82b3f5455fe92fab43e36115e7565b600080357fffffffff0000000000000000000000000000000000000000000000000000000016815260208290526040902054909150819073ffffffffffffffffffffffffffffffffffffffff168061010f576040517f08c379a000000000000000000000000000000000000000000000000000000000815260206004820152601b60248201527f4469616d6f6e643a2066756e6374696f6e206e6f7420666f756e64000000000060448201526064015b60405180910390fd5b3660008037600080366000845af43d6000803e80801561012e573d6000f35b3d6000fd5b005b34801561014157600080fd5b506101336040517f722d29b00acdf165bd4f9387f49041b6ff0b811414a43fd05527a13121fd7d3490600090a1565b60008061019e60017f65d27473a5b05206737961f69a3b7a55316862d7a6ef82b3f5455fe92fab43e36115e7565b92915050565b6101ae83836102a5565b7f8faa70878671ccd212d20771b795c50af8fd3ff6cf27f4bde57e5d4de0aeb6738260006040516101e092919061175d565b60405180910390a1805160005b818110156102495761023983828151811061020a5761020a6117a6565b602002602001015160000151848381518110610228576102286117a6565b60200260200101516020015161131b565b610242816117d5565b90506101ed565b5050505050565b61025a84846102a5565b7f8faa70878671ccd212d20771b795c50af8fd3ff6cf27f4bde57e5d4de0aeb67383838360405161028d93929190611883565b60405180910390a161029f828261131b565b50505050565b805160005b8181101561029f5760008382815181106102c6576102c66117a6565b6020026020010151602001519050600060028111156102e7576102e76115fe565b8160028111156102f9576102f96115fe565b036103525761034d848381518110610313576103136117a6565b602002602001015160000151858481518110610331576103316117a6565b6020026020010151604001518761041a9092919063ffffffff16565b610409565b6001816002811115610366576103666115fe565b036103ba5761034d848381518110610380576103806117a6565b60200260200101516000015185848151811061039e5761039e6117a6565b602002602001015160400151876107399092919063ffffffff16565b6104098483815181106103cf576103cf6117a6565b6020026020010151600001518584815181106103ed576103ed6117a6565b60200260200101516040015187610a609092919063ffffffff16565b50610413816117d5565b90506102aa565b73ffffffffffffffffffffffffffffffffffffffff8216610497576040517f08c379a000000000000000000000000000000000000000000000000000000000815260206004820152601b60248201527f4469616d6f6e643a207a65726f206164647265737320666163657400000000006044820152606401610106565b805180610500576040517f08c379a000000000000000000000000000000000000000000000000000000000815260206004820152601e60248201527f4469616d6f6e643a206e6f2066756e6374696f6e2073656c6563746f727300006044820152606401610106565b73ffffffffffffffffffffffffffffffffffffffff83166000908152600185016020526040812054906bffffffffffffffffffffffff82169003610548576105488585610bf7565b60005b82811015610731576000848281518110610567576105676117a6565b6020908102919091018101517fffffffff00000000000000000000000000000000000000000000000000000000811660009081529189905260409091205490915073ffffffffffffffffffffffffffffffffffffffff168015610626576040517f08c379a000000000000000000000000000000000000000000000000000000000815260206004820152601a60248201527f4469616d6f6e643a206578697374696e672066756e6374696f6e0000000000006044820152606401610106565b7fffffffff000000000000000000000000000000000000000000000000000000008216600081815260208a81526040808320805473ffffffffffffffffffffffffffffffffffffffff908116740100000000000000000000000000000000000000006bffffffffffffffffffffffff8c16021782558c168085526001808f0185529285208054938401815585528385206008840401805463ffffffff60079095166004026101000a948502191660e08a901c9490940293909317909255939092528a905281547fffffffffffffffffffffffff0000000000000000000000000000000000000000161790558361071b816118ce565b94505050508061072a906117d5565b905061054b565b505050505050565b73ffffffffffffffffffffffffffffffffffffffff82166107b6576040517f08c379a000000000000000000000000000000000000000000000000000000000815260206004820152601b60248201527f4469616d6f6e643a207a65726f206164647265737320666163657400000000006044820152606401610106565b80518061081f576040517f08c379a000000000000000000000000000000000000000000000000000000000815260206004820152601e60248201527f4469616d6f6e643a206e6f2066756e6374696f6e2073656c6563746f727300006044820152606401610106565b73ffffffffffffffffffffffffffffffffffffffff83166000908152600185016020526040812054906bffffffffffffffffffffffff82169003610867576108678585610bf7565b60005b82811015610731576000848281518110610886576108866117a6565b6020908102919091018101517fffffffff00000000000000000000000000000000000000000000000000000000811660009081529189905260409091205490915073ffffffffffffffffffffffffffffffffffffffff908116908716810361094a576040517f08c379a000000000000000000000000000000000000000000000000000000000815260206004820152601b60248201527f4469616d6f6e643a206964656e746963616c2066756e6374696f6e00000000006044820152606401610106565b610955888284610df2565b7fffffffff000000000000000000000000000000000000000000000000000000008216600081815260208a81526040808320805473ffffffffffffffffffffffffffffffffffffffff908116740100000000000000000000000000000000000000006bffffffffffffffffffffffff8c16021782558c168085526001808f0185529285208054938401815585528385206008840401805463ffffffff60079095166004026101000a948502191660e08a901c9490940293909317909255939092528a905281547fffffffffffffffffffffffff00000000000000000000000000000000000000001617905583610a4a816118ce565b945050505080610a59906117d5565b905061086a565b73ffffffffffffffffffffffffffffffffffffffff821615610ade576040517f08c379a000000000000000000000000000000000000000000000000000000000815260206004820152601f60248201527f4469616d6f6e643a206e6f6e2d7a65726f2061646472657373206661636574006044820152606401610106565b805180610b47576040517f08c379a000000000000000000000000000000000000000000000000000000000815260206004820152601e60248201527f4469616d6f6e643a206e6f2066756e6374696f6e2073656c6563746f727300006044820152606401610106565b60005b81811015610249576000838281518110610b6657610b666117a6565b6020908102919091018101517fffffffff00000000000000000000000000000000000000000000000000000000811660009081529188905260409091205490915073ffffffffffffffffffffffffffffffffffffffff16610bc8878284610df2565b505080610bd4906117d5565b9050610b4a565b73ffffffffffffffffffffffffffffffffffffffff163b151590565b73ffffffffffffffffffffffffffffffffffffffff81163014610c925773ffffffffffffffffffffffffffffffffffffffff81163b610c92576040517f08c379a000000000000000000000000000000000000000000000000000000000815260206004820152601a60248201527f4469616d6f6e643a20666163657420686173206e6f20636f64650000000000006044820152606401610106565b60028201805473ffffffffffffffffffffffffffffffffffffffff90921660008181526001948501602090815260408220860185905594840183559182529290200180547fffffffffffffffffffffffff0000000000000000000000000000000000000000169091179055565b7fffffffff00000000000000000000000000000000000000000000000000000000831660008181526020868152604080832080546bffffffffffffffffffffffff909716740100000000000000000000000000000000000000000273ffffffffffffffffffffffffffffffffffffffff97881617815594909516808352600180890183529583208054968701815583528183206008870401805460e09890981c60046007909816979097026101000a96870263ffffffff9097021990971695909517909555529290915281547fffffffffffffffffffffffff000000000000000000000000000000000000000016179055565b73ffffffffffffffffffffffffffffffffffffffff8216610e6f576040517f08c379a000000000000000000000000000000000000000000000000000000000815260206004820152601b60248201527f4469616d6f6e643a2066756e6374696f6e206e6f7420666f756e6400000000006044820152606401610106565b3073ffffffffffffffffffffffffffffffffffffffff831603610eee576040517f08c379a000000000000000000000000000000000000000000000000000000000815260206004820152601b60248201527f4469616d6f6e643a20696d6d757461626c652066756e6374696f6e00000000006044820152606401610106565b7fffffffff0000000000000000000000000000000000000000000000000000000081166000908152602084815260408083205473ffffffffffffffffffffffffffffffffffffffff86168452600180880190935290832054740100000000000000000000000000000000000000009091046bffffffffffffffffffffffff169291610f78916115e7565b90508082146110bf5773ffffffffffffffffffffffffffffffffffffffff841660009081526001860160205260408120805483908110610fba57610fba6117a6565b6000918252602080832060088304015473ffffffffffffffffffffffffffffffffffffffff8916845260018a019091526040909220805460079092166004026101000a90920460e01b925082919085908110611018576110186117a6565b600091825260208083206008830401805463ffffffff60079094166004026101000a938402191660e09590951c929092029390931790557fffffffff0000000000000000000000000000000000000000000000000000000092909216825286905260409020805473ffffffffffffffffffffffffffffffffffffffff16740100000000000000000000000000000000000000006bffffffffffffffffffffffff8516021790555b73ffffffffffffffffffffffffffffffffffffffff8416600090815260018601602052604090208054806110f5576110f56118f9565b6000828152602080822060087fffffffffffffffffffffffffffffffffffffffffffffffffffffffffffffffff90940193840401805463ffffffff600460078716026101000a0219169055919092557fffffffff00000000000000000000000000000000000000000000000000000000851682528690526040812081905581900361024957600285015460009061118e906001906115e7565b73ffffffffffffffffffffffffffffffffffffffff8616600090815260018089016020526040909120015490915080821461127c5760008760020183815481106111da576111da6117a6565b60009182526020909120015460028901805473ffffffffffffffffffffffffffffffffffffffff9092169250829184908110611218576112186117a6565b600091825260208083209190910180547fffffffffffffffffffffffff00000000000000000000000000000000000000001673ffffffffffffffffffffffffffffffffffffffff948516179055929091168152600189810190925260409020018190555b8660020180548061128f5761128f6118f9565b6000828152602080822083017fffffffffffffffffffffffffffffffffffffffffffffffffffffffffffffffff90810180547fffffffffffffffffffffffff000000000000000000000000000000000000000016905590920190925573ffffffffffffffffffffffffffffffffffffffff88168252600189810190915260408220015550505050505050565b73ffffffffffffffffffffffffffffffffffffffff82166113a35780511561139f576040517f08c379a000000000000000000000000000000000000000000000000000000000815260206004820152601f60248201527f4469616d6f6e643a2063616c6c646174615f206973206e6f7420656d707479006044820152606401610106565b5050565b600081511161140e576040517f08c379a000000000000000000000000000000000000000000000000000000000815260206004820152601b60248201527f4469616d6f6e643a2063616c6c646174615f20697320656d70747900000000006044820152606401610106565b73ffffffffffffffffffffffffffffffffffffffff821630146114a95773ffffffffffffffffffffffffffffffffffffffff82163b6114a9576040517f08c379a000000000000000000000000000000000000000000000000000000000815260206004820152601a60248201527f4469616d6f6e643a20696e69745f20686173206e6f20636f64650000000000006044820152606401610106565b6000808373ffffffffffffffffffffffffffffffffffffffff16836040516114d19190611928565b600060405180830381855af49150503d806000811461150c576040519150601f19603f3d011682016040523d82523d6000602084013e611511565b606091505b50915091508161029f5780511561155657806040517f08c379a00000000000000000000000000000000000000000000000000000000081526004016101069190611944565b6040517f08c379a000000000000000000000000000000000000000000000000000000000815260206004820152601c60248201527f4469616d6f6e643a20696e69745f2063616c6c207265766572746564000000006044820152606401610106565b7f4e487b7100000000000000000000000000000000000000000000000000000000600052601160045260246000fd5b6000828210156115f9576115f96115b8565b500390565b7f4e487b7100000000000000000000000000000000000000000000000000000000600052602160045260246000fd5b600082825180855260208086019550808260051b84010181860160005b84811015611750577fffffffffffffffffffffffffffffffffffffffffffffffffffffffffffffffe08684030189528151606080850173ffffffffffffffffffffffffffffffffffffffff835116865286830151600381106116d5577f4e487b7100000000000000000000000000000000000000000000000000000000600052602160045260246000fd5b86880152604092830151928601919091528151908190529085019060808501906000905b8082101561173b5783517fffffffff000000000000000000000000000000000000000000000000000000001683529287019291870191600191909101906116f9565b5050998501999350509083019060010161164a565b5090979650505050505050565b606081526000611770606083018561162d565b73ffffffffffffffffffffffffffffffffffffffff84166020840152828103604084015260008152602081019150509392505050565b7f4e487b7100000000000000000000000000000000000000000000000000000000600052603260045260246000fd5b60007fffffffffffffffffffffffffffffffffffffffffffffffffffffffffffffffff8203611806576118066115b8565b5060010190565b60005b83811015611828578181015183820152602001611810565b8381111561029f5750506000910152565b6000815180845261185181602086016020860161180d565b601f017fffffffffffffffffffffffffffffffffffffffffffffffffffffffffffffffe0169290920160200192915050565b606081526000611896606083018661162d565b73ffffffffffffffffffffffffffffffffffffffff8516602084015282810360408401526118c48185611839565b9695505050505050565b60006bffffffffffffffffffffffff8083168181036118ef576118ef6115b8565b6001019392505050565b7f4e487b7100000000000000000000000000000000000000000000000000000000600052603160045260246000fd5b6000825161193a81846020870161180d565b9190910192915050565b6020815260006119576020830184611839565b939250505056fea26469706673582212200677140e1e48986410c34c439d6a222452045733095c5f3672d4d5a8dfbfa8b064736f6c634300080e00334469616d6f6e643a206e6f2066756e6374696f6e2073656c6563746f727300008faa70878671ccd212d20771b795c50af8fd3ff6cf27f4bde57e5d4de0aeb673",
  "linkReferences": {},
  "deployedLinkReferences": {}
}