{
  "_format": "hh-sol-artifact-1",
  "contractName": "ERC20MetadataStorage",
  "sourceName": "contracts/token/ERC20/libraries/ERC20MetadataStorage.sol",
  "abi": [
    {
      "inputs": [],
      "name": "ERC20METADATA_STORAGE_POSITION",
      "outputs": [
        {
          "internalType": "bytes32",
          "name": "",
          "type": "bytes32"
        }
      ],
      "stateMutability": "view",
      "type": "function"
    },
    {
      "inputs": [],
      "name": "ERC20METADATA_VERSION_SLOT",
      "outputs": [
        {
          "internalType": "bytes32",
          "name": "",
          "type": "bytes32"
        }
      ],
      "stateMutability": "view",
      "type": "function"
    }
  ],
  "bytecode": "0x61012561003a600b82828239805160001a60731461002d57634e487b7160e01b600052600060045260246000fd5b30600052607381538281f3fe7300000000000000000000000000000000000000003014608060405260043610603d5760003560e01c806352b716c01460425780636db5d36714605a575b600080fd5b60486060565b60405190815260200160405180910390f35b6048608c565b608960017ff41bf6a5db26bffdfab174dcf66b31fbba8fdb7e3db040721ce1e62d61839ceb60b2565b81565b608960017f89fc10dbe4248abc1b40b428acefa849c6cc0c6a6d0b5d850acef072893928275b60008282101560ea577f4e487b7100000000000000000000000000000000000000000000000000000000600052601160045260246000fd5b50039056fea26469706673582212205496719712c17754675f1bd16a1ff9a19bc9399f12f5de34ad6794c8975def3b64736f6c634300080e0033",
  "linkReferences": {},
  "deployedLinkReferences": {}
}