{
  "_format": "hh-sol-artifact-1",
  "contractName": "ERC20MetadataStorage",
  "sourceName": "contracts/token/ERC20/libraries/ERC20MetadataStorage.sol",
  "abi": [
    {
      "inputs": [],
      "name": "ERC20METADATA_STORAGE_POSITION",
      "outputs": [
        {
          "internalType": "bytes32",
          "name": "",
          "type": "bytes32"
        }
      ],
      "stateMutability": "view",
      "type": "function"
    },
    {
      "inputs": [],
      "name": "ERC20METADATA_VERSION_SLOT",
      "outputs": [
        {
          "internalType": "bytes32",
          "name": "",
          "type": "bytes32"
        }
      ],
      "stateMutability": "view",
      "type": "function"
    }
  ],
  "bytecode": "0x61012561003a600b82828239805160001a60731461002d57634e487b7160e01b600052600060045260246000fd5b30600052607381538281f3fe7300000000000000000000000000000000000000003014608060405260043610603d5760003560e01c806352b716c01460425780636db5d36714605a575b600080fd5b60486060565b60405190815260200160405180910390f35b6048608c565b608960017fc87f43a14dc74565aeab7214ba5e19ad52d80ea872054c16beb27b00e72b6feb60b2565b81565b608960017f549fae1d84472c847c31d7a237ccb8ce07bfaea941646b37e7bd4044c9d1ae7c5b60008282101560ea577f4e487b7100000000000000000000000000000000000000000000000000000000600052601160045260246000fd5b50039056fea2646970667358221220aa0ce1c4e14cbaad00f94bfb600790d4799b54c144af46058f7af188414300ac64736f6c634300080d0033",
  "linkReferences": {},
  "deployedLinkReferences": {}
}