{
  "_format": "hh-sol-artifact-1",
  "contractName": "ERC20MintBurnProxiedMock",
  "sourceName": "contracts/mocks/token/ERC20/preset/proxied/ERC20MintBurnProxiedMock.sol",
  "abi": [
    {
      "inputs": [
        {
          "internalType": "contract IForwarderRegistry",
          "name": "forwarderRegistry",
          "type": "address"
        }
      ],
      "stateMutability": "nonpayable",
      "type": "constructor"
    },
    {
      "inputs": [
        {
          "internalType": "address",
          "name": "owner",
          "type": "address"
        },
        {
          "internalType": "address",
          "name": "spender",
          "type": "address"
        },
        {
          "internalType": "uint256",
          "name": "allowance",
          "type": "uint256"
        },
        {
          "internalType": "uint256",
          "name": "increment",
          "type": "uint256"
        }
      ],
      "name": "ERC20AllowanceOverflow",
      "type": "error"
    },
    {
      "inputs": [
        {
          "internalType": "address",
          "name": "owner",
          "type": "address"
        }
      ],
      "name": "ERC20ApprovalToAddressZero",
      "type": "error"
    },
    {
      "inputs": [],
      "name": "ERC20BatchMintValuesOverflow",
      "type": "error"
    },
    {
      "inputs": [],
      "name": "ERC20BatchTransferValuesOverflow",
      "type": "error"
    },
    {
      "inputs": [
        {
          "internalType": "address",
          "name": "owner",
          "type": "address"
        },
        {
          "internalType": "address",
          "name": "spender",
          "type": "address"
        },
        {
          "internalType": "uint256",
          "name": "allowance",
          "type": "uint256"
        },
        {
          "internalType": "uint256",
          "name": "decrement",
          "type": "uint256"
        }
      ],
      "name": "ERC20InsufficientAllowance",
      "type": "error"
    },
    {
      "inputs": [
        {
          "internalType": "address",
          "name": "owner",
          "type": "address"
        },
        {
          "internalType": "uint256",
          "name": "balance",
          "type": "uint256"
        },
        {
          "internalType": "uint256",
          "name": "value",
          "type": "uint256"
        }
      ],
      "name": "ERC20InsufficientBalance",
      "type": "error"
    },
    {
      "inputs": [],
      "name": "ERC20MintToAddressZero",
      "type": "error"
    },
    {
      "inputs": [
        {
          "internalType": "uint256",
          "name": "deadline",
          "type": "uint256"
        }
      ],
      "name": "ERC20PermitExpired",
      "type": "error"
    },
    {
      "inputs": [],
      "name": "ERC20PermitFromAddressZero",
      "type": "error"
    },
    {
      "inputs": [],
      "name": "ERC20PermitInvalidSignature",
      "type": "error"
    },
    {
      "inputs": [
        {
          "internalType": "address",
          "name": "recipient",
          "type": "address"
        }
      ],
      "name": "ERC20SafeTransferRejected",
      "type": "error"
    },
    {
      "inputs": [
        {
          "internalType": "uint256",
          "name": "supply",
          "type": "uint256"
        },
        {
          "internalType": "uint256",
          "name": "value",
          "type": "uint256"
        }
      ],
      "name": "ERC20TotalSupplyOverflow",
      "type": "error"
    },
    {
      "inputs": [
        {
          "internalType": "address",
          "name": "owner",
          "type": "address"
        }
      ],
      "name": "ERC20TransferToAddressZero",
      "type": "error"
    },
    {
      "inputs": [],
      "name": "IllegalInterfaceId",
      "type": "error"
    },
    {
      "inputs": [],
      "name": "InconsistentArrayLengths",
      "type": "error"
    },
    {
      "inputs": [
        {
          "internalType": "uint256",
          "name": "currentPhase",
          "type": "uint256"
        },
        {
          "internalType": "uint256",
          "name": "newPhase",
          "type": "uint256"
        }
      ],
      "name": "InitializationPhaseAlreadyReached",
      "type": "error"
    },
    {
      "inputs": [
        {
          "internalType": "address",
          "name": "account",
          "type": "address"
        }
      ],
      "name": "NotContractOwner",
      "type": "error"
    },
    {
      "inputs": [
        {
          "internalType": "bytes32",
          "name": "role",
          "type": "bytes32"
        },
        {
          "internalType": "address",
          "name": "account",
          "type": "address"
        }
      ],
      "name": "NotRoleHolder",
      "type": "error"
    },
    {
      "anonymous": false,
      "inputs": [
        {
          "indexed": true,
          "internalType": "address",
          "name": "owner",
          "type": "address"
        },
        {
          "indexed": true,
          "internalType": "address",
          "name": "spender",
          "type": "address"
        },
        {
          "indexed": false,
          "internalType": "uint256",
          "name": "value",
          "type": "uint256"
        }
      ],
      "name": "Approval",
      "type": "event"
    },
    {
      "anonymous": false,
      "inputs": [
        {
          "indexed": true,
          "internalType": "address",
          "name": "previousOwner",
          "type": "address"
        },
        {
          "indexed": true,
          "internalType": "address",
          "name": "newOwner",
          "type": "address"
        }
      ],
      "name": "OwnershipTransferred",
      "type": "event"
    },
    {
      "anonymous": false,
      "inputs": [
        {
          "indexed": false,
          "internalType": "bytes32",
          "name": "role",
          "type": "bytes32"
        },
        {
          "indexed": false,
          "internalType": "address",
          "name": "account",
          "type": "address"
        },
        {
          "indexed": false,
          "internalType": "address",
          "name": "operator",
          "type": "address"
        }
      ],
      "name": "RoleGranted",
      "type": "event"
    },
    {
      "anonymous": false,
      "inputs": [
        {
          "indexed": false,
          "internalType": "bytes32",
          "name": "role",
          "type": "bytes32"
        },
        {
          "indexed": false,
          "internalType": "address",
          "name": "account",
          "type": "address"
        },
        {
          "indexed": false,
          "internalType": "address",
          "name": "operator",
          "type": "address"
        }
      ],
      "name": "RoleRevoked",
      "type": "event"
    },
    {
      "anonymous": false,
      "inputs": [
        {
          "indexed": true,
          "internalType": "address",
          "name": "from",
          "type": "address"
        },
        {
          "indexed": true,
          "internalType": "address",
          "name": "to",
          "type": "address"
        },
        {
          "indexed": false,
          "internalType": "uint256",
          "name": "value",
          "type": "uint256"
        }
      ],
      "name": "Transfer",
      "type": "event"
    },
    {
      "inputs": [],
      "name": "DOMAIN_SEPARATOR",
      "outputs": [
        {
          "internalType": "bytes32",
          "name": "",
          "type": "bytes32"
        }
      ],
      "stateMutability": "view",
      "type": "function"
    },
    {
      "inputs": [],
      "name": "MINTER_ROLE",
      "outputs": [
        {
          "internalType": "bytes32",
          "name": "",
          "type": "bytes32"
        }
      ],
      "stateMutability": "view",
      "type": "function"
    },
    {
      "inputs": [],
      "name": "__msgData",
      "outputs": [
        {
          "internalType": "bytes",
          "name": "",
          "type": "bytes"
        }
      ],
      "stateMutability": "view",
      "type": "function"
    },
    {
      "inputs": [
        {
          "internalType": "address",
          "name": "owner",
          "type": "address"
        },
        {
          "internalType": "address",
          "name": "spender",
          "type": "address"
        }
      ],
      "name": "allowance",
      "outputs": [
        {
          "internalType": "uint256",
          "name": "value",
          "type": "uint256"
        }
      ],
      "stateMutability": "view",
      "type": "function"
    },
    {
      "inputs": [
        {
          "internalType": "address",
          "name": "spender",
          "type": "address"
        },
        {
          "internalType": "uint256",
          "name": "value",
          "type": "uint256"
        }
      ],
      "name": "approve",
      "outputs": [
        {
          "internalType": "bool",
          "name": "result",
          "type": "bool"
        }
      ],
      "stateMutability": "nonpayable",
      "type": "function"
    },
    {
      "inputs": [
        {
          "internalType": "address",
          "name": "owner",
          "type": "address"
        }
      ],
      "name": "balanceOf",
      "outputs": [
        {
          "internalType": "uint256",
          "name": "balance",
          "type": "uint256"
        }
      ],
      "stateMutability": "view",
      "type": "function"
    },
    {
      "inputs": [
        {
          "internalType": "address[]",
          "name": "owners",
          "type": "address[]"
        },
        {
          "internalType": "uint256[]",
          "name": "values",
          "type": "uint256[]"
        }
      ],
      "name": "batchBurnFrom",
      "outputs": [
        {
          "internalType": "bool",
          "name": "",
          "type": "bool"
        }
      ],
      "stateMutability": "nonpayable",
      "type": "function"
    },
    {
      "inputs": [
        {
          "internalType": "address[]",
          "name": "recipients",
          "type": "address[]"
        },
        {
          "internalType": "uint256[]",
          "name": "values",
          "type": "uint256[]"
        }
      ],
      "name": "batchMint",
      "outputs": [],
      "stateMutability": "nonpayable",
      "type": "function"
    },
    {
      "inputs": [
        {
          "internalType": "address[]",
          "name": "recipients",
          "type": "address[]"
        },
        {
          "internalType": "uint256[]",
          "name": "values",
          "type": "uint256[]"
        }
      ],
      "name": "batchTransfer",
      "outputs": [
        {
          "internalType": "bool",
          "name": "",
          "type": "bool"
        }
      ],
      "stateMutability": "nonpayable",
      "type": "function"
    },
    {
      "inputs": [
        {
          "internalType": "address",
          "name": "from",
          "type": "address"
        },
        {
          "internalType": "address[]",
          "name": "recipients",
          "type": "address[]"
        },
        {
          "internalType": "uint256[]",
          "name": "values",
          "type": "uint256[]"
        }
      ],
      "name": "batchTransferFrom",
      "outputs": [
        {
          "internalType": "bool",
          "name": "",
          "type": "bool"
        }
      ],
      "stateMutability": "nonpayable",
      "type": "function"
    },
    {
      "inputs": [
        {
          "internalType": "uint256",
          "name": "value",
          "type": "uint256"
        }
      ],
      "name": "burn",
      "outputs": [
        {
          "internalType": "bool",
          "name": "",
          "type": "bool"
        }
      ],
      "stateMutability": "nonpayable",
      "type": "function"
    },
    {
      "inputs": [
        {
          "internalType": "address",
          "name": "from",
          "type": "address"
        },
        {
          "internalType": "uint256",
          "name": "value",
          "type": "uint256"
        }
      ],
      "name": "burnFrom",
      "outputs": [
        {
          "internalType": "bool",
          "name": "",
          "type": "bool"
        }
      ],
      "stateMutability": "nonpayable",
      "type": "function"
    },
    {
      "inputs": [],
      "name": "decimals",
      "outputs": [
        {
          "internalType": "uint8",
          "name": "",
          "type": "uint8"
        }
      ],
      "stateMutability": "view",
      "type": "function"
    },
    {
      "inputs": [
        {
          "internalType": "address",
          "name": "spender",
          "type": "address"
        },
        {
          "internalType": "uint256",
          "name": "subtractedValue",
          "type": "uint256"
        }
      ],
      "name": "decreaseAllowance",
      "outputs": [
        {
          "internalType": "bool",
          "name": "result",
          "type": "bool"
        }
      ],
      "stateMutability": "nonpayable",
      "type": "function"
    },
    {
      "inputs": [],
      "name": "forwarderRegistry",
      "outputs": [
        {
          "internalType": "contract IForwarderRegistry",
          "name": "",
          "type": "address"
        }
      ],
      "stateMutability": "view",
      "type": "function"
    },
    {
      "inputs": [
        {
          "internalType": "bytes32",
          "name": "role",
          "type": "bytes32"
        },
        {
          "internalType": "address",
          "name": "account",
          "type": "address"
        }
      ],
      "name": "grantRole",
      "outputs": [],
      "stateMutability": "nonpayable",
      "type": "function"
    },
    {
      "inputs": [
        {
          "internalType": "bytes32",
          "name": "role",
          "type": "bytes32"
        },
        {
          "internalType": "address",
          "name": "account",
          "type": "address"
        }
      ],
      "name": "hasRole",
      "outputs": [
        {
          "internalType": "bool",
          "name": "hasRole_",
          "type": "bool"
        }
      ],
      "stateMutability": "view",
      "type": "function"
    },
    {
      "inputs": [
        {
          "internalType": "address",
          "name": "spender",
          "type": "address"
        },
        {
          "internalType": "uint256",
          "name": "addedValue",
          "type": "uint256"
        }
      ],
      "name": "increaseAllowance",
      "outputs": [
        {
          "internalType": "bool",
          "name": "result",
          "type": "bool"
        }
      ],
      "stateMutability": "nonpayable",
      "type": "function"
    },
    {
      "inputs": [
        {
          "internalType": "string",
          "name": "tokenName",
          "type": "string"
        },
        {
          "internalType": "string",
          "name": "tokenSymbol",
          "type": "string"
        },
        {
          "internalType": "uint8",
          "name": "tokenDecimals",
          "type": "uint8"
        }
      ],
      "name": "init",
      "outputs": [],
      "stateMutability": "nonpayable",
      "type": "function"
    },
    {
      "inputs": [
        {
          "internalType": "address",
          "name": "forwarder",
          "type": "address"
        }
      ],
      "name": "isTrustedForwarder",
      "outputs": [
        {
          "internalType": "bool",
          "name": "",
          "type": "bool"
        }
      ],
      "stateMutability": "view",
      "type": "function"
    },
    {
      "inputs": [
        {
          "internalType": "address",
          "name": "to",
          "type": "address"
        },
        {
          "internalType": "uint256",
          "name": "value",
          "type": "uint256"
        }
      ],
      "name": "mint",
      "outputs": [],
      "stateMutability": "nonpayable",
      "type": "function"
    },
    {
      "inputs": [],
      "name": "name",
      "outputs": [
        {
          "internalType": "string",
          "name": "",
          "type": "string"
        }
      ],
      "stateMutability": "view",
      "type": "function"
    },
    {
      "inputs": [
        {
          "internalType": "address",
          "name": "owner",
          "type": "address"
        }
      ],
      "name": "nonces",
      "outputs": [
        {
          "internalType": "uint256",
          "name": "",
          "type": "uint256"
        }
      ],
      "stateMutability": "view",
      "type": "function"
    },
    {
      "inputs": [],
      "name": "owner",
      "outputs": [
        {
          "internalType": "address",
          "name": "",
          "type": "address"
        }
      ],
      "stateMutability": "view",
      "type": "function"
    },
    {
      "inputs": [
        {
          "internalType": "address",
          "name": "owner",
          "type": "address"
        },
        {
          "internalType": "address",
          "name": "spender",
          "type": "address"
        },
        {
          "internalType": "uint256",
          "name": "value",
          "type": "uint256"
        },
        {
          "internalType": "uint256",
          "name": "deadline",
          "type": "uint256"
        },
        {
          "internalType": "uint8",
          "name": "v",
          "type": "uint8"
        },
        {
          "internalType": "bytes32",
          "name": "r",
          "type": "bytes32"
        },
        {
          "internalType": "bytes32",
          "name": "s",
          "type": "bytes32"
        }
      ],
      "name": "permit",
      "outputs": [],
      "stateMutability": "nonpayable",
      "type": "function"
    },
    {
      "inputs": [
        {
          "internalType": "address[]",
          "name": "accounts",
          "type": "address[]"
        },
        {
          "internalType": "contract IERC20[]",
          "name": "tokens",
          "type": "address[]"
        },
        {
          "internalType": "uint256[]",
          "name": "amounts",
          "type": "uint256[]"
        }
      ],
      "name": "recoverERC20s",
      "outputs": [],
      "stateMutability": "nonpayable",
      "type": "function"
    },
    {
      "inputs": [
        {
          "internalType": "address[]",
          "name": "accounts",
          "type": "address[]"
        },
        {
          "internalType": "contract IERC721[]",
          "name": "contracts",
          "type": "address[]"
        },
        {
          "internalType": "uint256[]",
          "name": "tokenIds",
          "type": "uint256[]"
        }
      ],
      "name": "recoverERC721s",
      "outputs": [],
      "stateMutability": "nonpayable",
      "type": "function"
    },
    {
      "inputs": [
        {
          "internalType": "address payable[]",
          "name": "accounts",
          "type": "address[]"
        },
        {
          "internalType": "uint256[]",
          "name": "amounts",
          "type": "uint256[]"
        }
      ],
      "name": "recoverETH",
      "outputs": [],
      "stateMutability": "nonpayable",
      "type": "function"
    },
    {
      "inputs": [
        {
          "internalType": "bytes32",
          "name": "role",
          "type": "bytes32"
        }
      ],
      "name": "renounceRole",
      "outputs": [],
      "stateMutability": "nonpayable",
      "type": "function"
    },
    {
      "inputs": [
        {
          "internalType": "bytes32",
          "name": "role",
          "type": "bytes32"
        },
        {
          "internalType": "address",
          "name": "account",
          "type": "address"
        }
      ],
      "name": "revokeRole",
      "outputs": [],
      "stateMutability": "nonpayable",
      "type": "function"
    },
    {
      "inputs": [
        {
          "internalType": "address",
          "name": "to",
          "type": "address"
        },
        {
          "internalType": "uint256",
          "name": "value",
          "type": "uint256"
        },
        {
          "internalType": "bytes",
          "name": "data",
          "type": "bytes"
        }
      ],
      "name": "safeTransfer",
      "outputs": [
        {
          "internalType": "bool",
          "name": "",
          "type": "bool"
        }
      ],
      "stateMutability": "nonpayable",
      "type": "function"
    },
    {
      "inputs": [
        {
          "internalType": "address",
          "name": "from",
          "type": "address"
        },
        {
          "internalType": "address",
          "name": "to",
          "type": "address"
        },
        {
          "internalType": "uint256",
          "name": "value",
          "type": "uint256"
        },
        {
          "internalType": "bytes",
          "name": "data",
          "type": "bytes"
        }
      ],
      "name": "safeTransferFrom",
      "outputs": [
        {
          "internalType": "bool",
          "name": "",
          "type": "bool"
        }
      ],
      "stateMutability": "nonpayable",
      "type": "function"
    },
    {
      "inputs": [
        {
          "internalType": "string",
          "name": "uri",
          "type": "string"
        }
      ],
      "name": "setTokenURI",
      "outputs": [],
      "stateMutability": "nonpayable",
      "type": "function"
    },
    {
      "inputs": [
        {
          "internalType": "bytes4",
          "name": "interfaceId",
          "type": "bytes4"
        }
      ],
      "name": "supportsInterface",
      "outputs": [
        {
          "internalType": "bool",
          "name": "",
          "type": "bool"
        }
      ],
      "stateMutability": "view",
      "type": "function"
    },
    {
      "inputs": [],
      "name": "symbol",
      "outputs": [
        {
          "internalType": "string",
          "name": "",
          "type": "string"
        }
      ],
      "stateMutability": "view",
      "type": "function"
    },
    {
      "inputs": [],
      "name": "tokenURI",
      "outputs": [
        {
          "internalType": "string",
          "name": "",
          "type": "string"
        }
      ],
      "stateMutability": "view",
      "type": "function"
    },
    {
      "inputs": [],
      "name": "totalSupply",
      "outputs": [
        {
          "internalType": "uint256",
          "name": "supply",
          "type": "uint256"
        }
      ],
      "stateMutability": "view",
      "type": "function"
    },
    {
      "inputs": [
        {
          "internalType": "address",
          "name": "to",
          "type": "address"
        },
        {
          "internalType": "uint256",
          "name": "value",
          "type": "uint256"
        }
      ],
      "name": "transfer",
      "outputs": [
        {
          "internalType": "bool",
          "name": "result",
          "type": "bool"
        }
      ],
      "stateMutability": "nonpayable",
      "type": "function"
    },
    {
      "inputs": [
        {
          "internalType": "address",
          "name": "from",
          "type": "address"
        },
        {
          "internalType": "address",
          "name": "to",
          "type": "address"
        },
        {
          "internalType": "uint256",
          "name": "value",
          "type": "uint256"
        }
      ],
      "name": "transferFrom",
      "outputs": [
        {
          "internalType": "bool",
          "name": "result",
          "type": "bool"
        }
      ],
      "stateMutability": "nonpayable",
      "type": "function"
    },
    {
      "inputs": [
        {
          "internalType": "address",
          "name": "newOwner",
          "type": "address"
        }
      ],
      "name": "transferOwnership",
      "outputs": [],
      "stateMutability": "nonpayable",
      "type": "function"
    }
  ],
  "bytecode": "0x60a06040523480156200001157600080fd5b50604051620044cb380380620044cb833981016040819052620000349162000046565b6001600160a01b031660805262000078565b6000602082840312156200005957600080fd5b81516001600160a01b03811681146200007157600080fd5b9392505050565b608051614414620000b76000396000818161035b015281816104510152818161326c015281816132f4015281816133a701526133e501526144146000f3fe608060405234801561001057600080fd5b50600436106102c85760003560e01c806379cc67901161017b578063c3666c36116100d8578063e0df5b6f1161008c578063f2fde38b11610071578063f2fde38b14610608578063f57b01821461061b578063f7ba94bd1461062e57600080fd5b8063e0df5b6f146105e2578063eb795549146105f557600080fd5b8063d5391393116100bd578063d539139314610595578063d547741f146105bc578063dd62ed3e146105cf57600080fd5b8063c3666c361461056f578063d505accf1461058257600080fd5b806391d148541161012f578063a457c2d711610114578063a457c2d714610536578063a9059cbb14610549578063b88d4fde1461055c57600080fd5b806391d148541461051b57806395d89b411461052e57600080fd5b806388d695b21161016057806388d695b2146104ed5780638bb9c5bf146105005780638da5cb5b1461051357600080fd5b806379cc6790146104c75780637ecebe00146104da57600080fd5b80633644e515116102295780634885b254116101dd57806368573107116101c2578063685731071461048e57806370a08231146104a157806373c8a958146104b457600080fd5b80634885b2541461042e578063572b6c051461044157600080fd5b80633c130d901161020e5780633c130d901461040057806340c10f191461040857806342966c681461041b57600080fd5b80633644e515146103e557806339509351146103ed57600080fd5b806323b872dd116102805780632f2ff15d116102655780632f2ff15d146103a0578063313ce567146103b557806331e66e1e146103cf57600080fd5b806323b872dd146103465780632b4c9f161461035957600080fd5b8063095ea7b3116102b1578063095ea7b31461030a57806318160ddd1461031d5780631b9a75291461033357600080fd5b806301ffc9a7146102cd57806306fdde03146102f5575b600080fd5b6102e06102db366004613aa5565b610641565b60405190151581526020015b60405180910390f35b6102fd61065b565b6040516102ec9190613b30565b6102e0610318366004613b65565b610672565b61032561069a565b6040519081526020016102ec565b6102e0610341366004613bdd565b6106ae565b6102e0610354366004613c49565b6106dd565b7f00000000000000000000000000000000000000000000000000000000000000005b60405173ffffffffffffffffffffffffffffffffffffffff90911681526020016102ec565b6103b36103ae366004613c8a565b610708565b005b6103bd610741565b60405160ff90911681526020016102ec565b6103d7610758565b6040516102ec929190613cba565b61032561076b565b6102e06103fb366004613b65565b610775565b6102fd610794565b6103b3610416366004613b65565b6107a1565b6102e0610429366004613d07565b6107f4565b6102e061043c366004613d20565b610819565b6102e061044f366004613da3565b7f000000000000000000000000000000000000000000000000000000000000000073ffffffffffffffffffffffffffffffffffffffff90811691161490565b6103b361049c366004613bdd565b61084a565b6103256104af366004613da3565b6108f4565b6103b36104c2366004613dc0565b61092c565b6102e06104d5366004613b65565b610a2a565b6103256104e8366004613da3565b610a49565b6102e06104fb366004613bdd565b610a57565b6103b361050e366004613d07565b610a7a565b61037b610a98565b6102e0610529366004613c8a565b610abf565b6102fd610b0a565b6102e0610544366004613b65565b610b1c565b6102e0610557366004613b65565b610b3b565b6102e061056a366004613e9c565b610b5a565b6103b361057d366004613dc0565b610b7f565b6103b3610590366004613f14565b610cf7565b6103257f6d696e746572000000000000000000000000000000000000000000000000000081565b6103b36105ca366004613c8a565b610d1e565b6103256105dd366004613f82565b610d4c565b6103b36105f0366004613fb0565b610d97565b6102e0610603366004613ff2565b610db6565b6103b3610616366004613da3565b610dd9565b6103b3610629366004614042565b610df4565b6103b361063c366004613bdd565b610e66565b60006106558261064f610f25565b90610f53565b92915050565b606061066d61066861102d565b61105b565b905090565b600061069161067f6110f1565b84846106896110fb565b929190611129565b50600192915050565b600061066d6106a76110fb565b6002015490565b60006106d16106bb6110f1565b868686866106c76110fb565b9493929190611205565b5060015b949350505050565b60006106fe6106ea6110f1565b8585856106f56110fb565b9392919061140e565b5060019392505050565b60006107126110f1565b905061072681610720611459565b90611487565b61073c8383836107346114f2565b929190611520565b505050565b600061066d61074e61102d565b6002015460ff1690565b3660006107636115f6565b915091509091565b600061066d611601565b60006106916107826110f1565b848461078c6110fb565b92919061169c565b606061066d61066861184e565b6107dc7f6d696e74657200000000000000000000000000000000000000000000000000006107cd6110f1565b6107d56114f2565b919061187c565b6107f082826107e96110fb565b9190611902565b5050565b60006108116108016110f1565b8361080a6110fb565b9190611a26565b506001919050565b600061083e6108266110f1565b87878787876108336110fb565b959493929190611b32565b50600195945050505050565b6108767f6d696e74657200000000000000000000000000000000000000000000000000006107cd6110f1565b6108ee848480806020026020016040519081016040528093929190818152602001838360200280828437600092019190915250506040805160208088028281018201909352878252909350879250869182918501908490808284376000920191909152506108e792506110fb915050565b9190611f0c565b50505050565b6000610655826109026110fb565b9073ffffffffffffffffffffffffffffffffffffffff166000908152602091909152604090205490565b61093f6109376110f1565b610720611459565b84838114158061094f5750808214155b15610986576040517f6582533600000000000000000000000000000000000000000000000000000000815260040160405180910390fd5b60005b81811015610a2057610a188888838181106109a6576109a66140c3565b90506020020160208101906109bb9190613da3565b8585848181106109cd576109cd6140c3565b905060200201358888858181106109e6576109e66140c3565b90506020020160208101906109fb9190613da3565b73ffffffffffffffffffffffffffffffffffffffff16919061212d565b600101610989565b5050505050505050565b6000610691610a376110f1565b8484610a416110fb565b9291906121ba565b600061065582610902612204565b60006106d1610a646110f1565b86868686610a706110fb565b9493929190612232565b610a95610a856110f1565b82610a8e6114f2565b9190612589565b50565b600061066d610aa5611459565b5473ffffffffffffffffffffffffffffffffffffffff1690565b6000610b038383610ace6114f2565b60009283526020908152604080842073ffffffffffffffffffffffffffffffffffffffff909316845291905290205460ff1690565b9392505050565b606061066d610b1761102d565b61262d565b6000610691610b296110f1565b8484610b336110fb565b92919061263e565b6000610691610b486110f1565b8484610b526110fb565b929190612776565b600061083e610b676110f1565b8787878787610b746110fb565b959493929190612935565b610b8a6109376110f1565b848381141580610b9a5750808214155b15610bd1576040517f6582533600000000000000000000000000000000000000000000000000000000815260040160405180910390fd5b60005b81811015610a2057858582818110610bee57610bee6140c3565b9050602002016020810190610c039190613da3565b73ffffffffffffffffffffffffffffffffffffffff166323b872dd308a8a85818110610c3157610c316140c3565b9050602002016020810190610c469190613da3565b878786818110610c5857610c586140c3565b6040517fffffffff0000000000000000000000000000000000000000000000000000000060e088901b16815273ffffffffffffffffffffffffffffffffffffffff958616600482015294909316602485015250602090910201356044820152606401600060405180830381600087803b158015610cd457600080fd5b505af1158015610ce8573d6000803e3d6000fd5b50505050806001019050610bd4565b610d1587878787878787610d09612204565b969594939291906129a2565b50505050505050565b6000610d286110f1565b9050610d3681610720611459565b61073c838383610d446114f2565b929190612c11565b6000610b038383610d5b6110fb565b919073ffffffffffffffffffffffffffffffffffffffff9182166000908152600193909301602090815260408085209290931684525290205490565b610da26109376110f1565b6107f08282610daf61184e565b9190612cdb565b60006106d1610dc36110f1565b86868686610dcf6110fb565b9493929190612ce7565b610a95610de46110f1565b82610ded611459565b9190612d53565b610e0d610dff6110f1565b610e07611459565b90612e67565b610e15612ea6565b610e1d612f0a565b610e25612f41565b610e2d612f6f565b610e35612f9d565b610e4f8585858585610e4561102d565b9493929190612fcb565b610e57613073565b610e5f6130a1565b5050505050565b610e716109376110f1565b82818114610eab576040517f6582533600000000000000000000000000000000000000000000000000000000815260040160405180910390fd5b60005b81811015610f1d57610f15848483818110610ecb57610ecb6140c3565b90506020020135878784818110610ee457610ee46140c3565b9050602002016020810190610ef99190613da3565b73ffffffffffffffffffffffffffffffffffffffff16906130cf565b600101610eae565b505050505050565b60008061065560017fca9d3e17f264b0f3984e2634e94adb37fa3e6a8103f06aeae6fa59e21c769f5e6140f2565b60007c01000000000000000000000000000000000000000000000000000000007fffffffff00000000000000000000000000000000000000000000000000000000831601610fa357506000610655565b7ffe003659000000000000000000000000000000000000000000000000000000007fffffffff00000000000000000000000000000000000000000000000000000000831601610ff457506001610655565b507fffffffff00000000000000000000000000000000000000000000000000000000166000908152602091909152604090205460ff1690565b60008061065560017f335df4119bbb04f056b33eba33b826d3529129e458faf6daa9924b5a8f3b6a826140f2565b606081600001805461106c9061412c565b80601f01602080910402602001604051908101604052809291908181526020018280546110989061412c565b80156110e55780601f106110ba576101008083540402835291602001916110e5565b820191906000526020600020905b8154815290600101906020018083116110c857829003601f168201915b50505050509050919050565b600061066d613229565b60008061065560017f1da92899d3da68bf9787824388a37ea2bfa79780bcef91b9716c390eec8ecbef6140f2565b73ffffffffffffffffffffffffffffffffffffffff8216611193576040517ff7e1ac0f00000000000000000000000000000000000000000000000000000000815273ffffffffffffffffffffffffffffffffffffffff841660048201526024015b60405180910390fd5b73ffffffffffffffffffffffffffffffffffffffff838116600081815260018701602090815260408083209487168084529482529182902085905590518481527f8c5be1e5ebec7d5bd14f71427d1e84f3dd0314c0f7b2291e5b200ac8c7c3b92591015b60405180910390a350505050565b8281811461123f576040517f6582533600000000000000000000000000000000000000000000000000000000815260040160405180910390fd5b8060000361124d5750610f1d565b6000805b828110156113f257600087878381811061126d5761126d6140c3565b90506020020160208101906112829190613da3565b90506000868684818110611298576112986140c3565b9050602002013590508973ffffffffffffffffffffffffffffffffffffffff168273ffffffffffffffffffffffffffffffffffffffff16146112e0576112e08b838c8461263e565b801561139a5773ffffffffffffffffffffffffffffffffffffffff8216600090815260208c9052604090205481810381811061136e576040517fe450d38c00000000000000000000000000000000000000000000000000000000815273ffffffffffffffffffffffffffffffffffffffff85166004820152602481018390526044810184905260640161118a565b73ffffffffffffffffffffffffffffffffffffffff8416600090815260208e9052604090205550928301925b60405181815260009073ffffffffffffffffffffffffffffffffffffffff8416907fddf252ad1be2c89b69c2b068fc378daa952ba7f163c4a11628f55a4df523b3ef9060200160405180910390a35050600101611251565b508015610a205760028801805482900390555050505050505050565b8373ffffffffffffffffffffffffffffffffffffffff168373ffffffffffffffffffffffffffffffffffffffff161461144d5761144d8584868461263e565b610e5f85848484612776565b60008061065560017fc9ed16f33ab3a66c84bfd83099ccb2a8845871e2e1c1928f63797152f0fd54cd6140f2565b815473ffffffffffffffffffffffffffffffffffffffff8281169116146107f0576040517f2ef4875e00000000000000000000000000000000000000000000000000000000815273ffffffffffffffffffffffffffffffffffffffff8216600482015260240161118a565b60008061065560017fc8827d3282af6f37b64c3e9e6f3ac9df286ab0bb0fccd6f8661bf19adb368b236140f2565b60008381526020858152604080832073ffffffffffffffffffffffffffffffffffffffff8616845290915290205460ff166108ee5760008381526020858152604080832073ffffffffffffffffffffffffffffffffffffffff8681168086529184529382902080547fffffffffffffffffffffffffffffffffffffffffffffffffffffffffffffff00166001179055815187815292830152918316918101919091527f2f8788117e7eff1d82e926ec794901d17c78024a50270940304540a733656f0d906060015b60405180910390a150505050565b366000610763613370565b6000467f8b73c3c69bb8fe3d512ecc4cf759cc79239f7b179b0ffacaa9a75d522b39400f61163061066861102d565b80516020918201206040805192830193909352918101919091527fc89efdaa54c0f20c7adf612882df0950f5a951637e0307cdcb4c672f298b8bc66060820152608081018290523060a082015260c0016040516020818303038152906040528051906020012091505090565b73ffffffffffffffffffffffffffffffffffffffff8216611701576040517ff7e1ac0f00000000000000000000000000000000000000000000000000000000815273ffffffffffffffffffffffffffffffffffffffff8416600482015260240161118a565b73ffffffffffffffffffffffffffffffffffffffff808416600090815260018601602090815260408083209386168352929052205481156117e0578082018181116117a6576040517f93bc2ff100000000000000000000000000000000000000000000000000000000815273ffffffffffffffffffffffffffffffffffffffff808716600483015285166024820152604481018390526064810184905260840161118a565b73ffffffffffffffffffffffffffffffffffffffff8086166000908152600188016020908152604080832093881683529290522081905590505b8273ffffffffffffffffffffffffffffffffffffffff168473ffffffffffffffffffffffffffffffffffffffff167f8c5be1e5ebec7d5bd14f71427d1e84f3dd0314c0f7b2291e5b200ac8c7c3b9258360405161183f91815260200190565b60405180910390a35050505050565b60008061065560017ff41bf6a5db26bffdfab174dcf66b31fbba8fdb7e3db040721ce1e62d61839ceb6140f2565b60008281526020848152604080832073ffffffffffffffffffffffffffffffffffffffff8516845290915290205460ff1661073c576040517f7aa728820000000000000000000000000000000000000000000000000000000081526004810183905273ffffffffffffffffffffffffffffffffffffffff8216602482015260440161118a565b73ffffffffffffffffffffffffffffffffffffffff821661194f576040517f92fd9c8f00000000000000000000000000000000000000000000000000000000815260040160405180910390fd5b80156119d25760028301548181018181116119a0576040517f0366a5f6000000000000000000000000000000000000000000000000000000008152600481018390526024810184905260440161118a565b60028501555073ffffffffffffffffffffffffffffffffffffffff821660009081526020849052604090208054820190555b60405181815273ffffffffffffffffffffffffffffffffffffffff8316906000907fddf252ad1be2c89b69c2b068fc378daa952ba7f163c4a11628f55a4df523b3ef906020015b60405180910390a3505050565b8015611ae75773ffffffffffffffffffffffffffffffffffffffff8216600090815260208490526040902054818103818110611ab4576040517fe450d38c00000000000000000000000000000000000000000000000000000000815273ffffffffffffffffffffffffffffffffffffffff85166004820152602481018390526044810184905260640161118a565b73ffffffffffffffffffffffffffffffffffffffff84166000908152602086905260409020555060028301805482900390555b60405181815260009073ffffffffffffffffffffffffffffffffffffffff8416907fddf252ad1be2c89b69c2b068fc378daa952ba7f163c4a11628f55a4df523b3ef90602001611a19565b82818114611b6c576040517f6582533600000000000000000000000000000000000000000000000000000000815260040160405180910390fd5b80600003611b7a5750610d15565b73ffffffffffffffffffffffffffffffffffffffff86166000908152602089905260408120549080805b84811015611ebf576000898983818110611bc057611bc06140c3565b9050602002016020810190611bd59190613da3565b905073ffffffffffffffffffffffffffffffffffffffff8116611c3c576040517f754f425b00000000000000000000000000000000000000000000000000000000815273ffffffffffffffffffffffffffffffffffffffff8c16600482015260240161118a565b6000888884818110611c5057611c506140c3565b90506020020135905080600014611d8e57848101858111611c9d576040517fdedd834100000000000000000000000000000000000000000000000000000000815260040160405180910390fd5b8095508273ffffffffffffffffffffffffffffffffffffffff168d73ffffffffffffffffffffffffffffffffffffffff1614611d2757818f60000160008573ffffffffffffffffffffffffffffffffffffffff1673ffffffffffffffffffffffffffffffffffffffff16815260200190815260200160002060008282540192505081905550611d8c565b86821115611d87576040517fe450d38c00000000000000000000000000000000000000000000000000000000815273ffffffffffffffffffffffffffffffffffffffff8e166004820152602481018890526044810183905260640161118a565b938101935b505b8173ffffffffffffffffffffffffffffffffffffffff168c73ffffffffffffffffffffffffffffffffffffffff167fddf252ad1be2c89b69c2b068fc378daa952ba7f163c4a11628f55a4df523b3ef83604051611ded91815260200190565b60405180910390a38415801590611e045750838514155b15611eb557848603868110611e6b576040517fe450d38c00000000000000000000000000000000000000000000000000000000815273ffffffffffffffffffffffffffffffffffffffff8e166004820152602481018890526044810187905260640161118a565b8481018f60000160008f73ffffffffffffffffffffffffffffffffffffffff1673ffffffffffffffffffffffffffffffffffffffff16815260200190815260200160002081905550505b5050600101611ba4565b508973ffffffffffffffffffffffffffffffffffffffff168973ffffffffffffffffffffffffffffffffffffffff1614611eff57611eff8b8a8c8561263e565b5050505050505050505050565b815181518114611f48576040517f6582533600000000000000000000000000000000000000000000000000000000815260040160405180910390fd5b80600003611f565750505050565b6000805b828110156120ce576000858281518110611f7657611f766140c3565b60200260200101519050600073ffffffffffffffffffffffffffffffffffffffff168173ffffffffffffffffffffffffffffffffffffffff1603611fe6576040517f92fd9c8f00000000000000000000000000000000000000000000000000000000815260040160405180910390fd5b6000858381518110611ffa57611ffa6140c3565b602002602001015190508060001461207657838101848111612048576040517f5542ae7c00000000000000000000000000000000000000000000000000000000815260040160405180910390fd5b73ffffffffffffffffffffffffffffffffffffffff8316600090815260208a90526040902080548301905593505b60405181815273ffffffffffffffffffffffffffffffffffffffff8316906000907fddf252ad1be2c89b69c2b068fc378daa952ba7f163c4a11628f55a4df523b3ef9060200160405180910390a35050600101611f5a565b508015610e5f576002850154818101818111612120576040517f0366a5f6000000000000000000000000000000000000000000000000000000008152600481018390526024810184905260440161118a565b6002870155505050505050565b6040805173ffffffffffffffffffffffffffffffffffffffff8416602482015260448082018490528251808303909101815260649091019091526020810180517bffffffffffffffffffffffffffffffffffffffffffffffffffffffff167fa9059cbb0000000000000000000000000000000000000000000000000000000017905261073c9084906134da565b8273ffffffffffffffffffffffffffffffffffffffff168273ffffffffffffffffffffffffffffffffffffffff16146121f9576121f98483858461263e565b6108ee848383611a26565b60008061065560017f93fe0ff7226b064a4a8f0b09910762afb4bc2441835792c021ffd78cd513011e6140f2565b8281811461226c576040517f6582533600000000000000000000000000000000000000000000000000000000815260040160405180910390fd5b8060000361227a5750610f1d565b73ffffffffffffffffffffffffffffffffffffffff86166000908152602088905260408120549080805b848110156124db5760008989838181106122c0576122c06140c3565b90506020020160208101906122d59190613da3565b905073ffffffffffffffffffffffffffffffffffffffff811661233c576040517f754f425b00000000000000000000000000000000000000000000000000000000815273ffffffffffffffffffffffffffffffffffffffff8c16600482015260240161118a565b6000888884818110612350576123506140c3565b9050602002013590508060001461246a5784810185811161239d576040517fdedd834100000000000000000000000000000000000000000000000000000000815260040160405180910390fd5b8095508273ffffffffffffffffffffffffffffffffffffffff168d73ffffffffffffffffffffffffffffffffffffffff16146124035773ffffffffffffffffffffffffffffffffffffffff8316600090815260208f905260409020805483019055612468565b86821115612463576040517fe450d38c00000000000000000000000000000000000000000000000000000000815273ffffffffffffffffffffffffffffffffffffffff8e166004820152602481018890526044810183905260640161118a565b938101935b505b8173ffffffffffffffffffffffffffffffffffffffff168c73ffffffffffffffffffffffffffffffffffffffff167fddf252ad1be2c89b69c2b068fc378daa952ba7f163c4a11628f55a4df523b3ef836040516124c991815260200190565b60405180910390a350506001016122a4565b5081158015906124eb5750808214155b1561257d57818303838110612552576040517fe450d38c00000000000000000000000000000000000000000000000000000000815273ffffffffffffffffffffffffffffffffffffffff8b166004820152602481018590526044810184905260640161118a565b73ffffffffffffffffffffffffffffffffffffffff8a16600090815260208c90526040902090820190555b50505050505050505050565b61259483828461187c565b60008181526020848152604080832073ffffffffffffffffffffffffffffffffffffffff86168085529083529281902080547fffffffffffffffffffffffffffffffffffffffffffffffffffffffffffffff0016905580518481529182018390528101919091527ff6391f5c32d9c69d2a47ea670b442974b53935d1edc7fd64eb21e047a839171b9060600160405180910390a1505050565b606081600101805461106c9061412c565b73ffffffffffffffffffffffffffffffffffffffff82166126a3576040517ff7e1ac0f00000000000000000000000000000000000000000000000000000000815273ffffffffffffffffffffffffffffffffffffffff8416600482015260240161118a565b73ffffffffffffffffffffffffffffffffffffffff80841660009081526001860160209081526040808320938616835292905220547fffffffffffffffffffffffffffffffffffffffffffffffffffffffffffffffff811480159061270757508115155b156117e0578181038181106117a6576040517f137ad6ab00000000000000000000000000000000000000000000000000000000815273ffffffffffffffffffffffffffffffffffffffff808716600483015285166024820152604481018390526064810184905260840161118a565b73ffffffffffffffffffffffffffffffffffffffff82166127db576040517f754f425b00000000000000000000000000000000000000000000000000000000815273ffffffffffffffffffffffffffffffffffffffff8416600482015260240161118a565b80156128d65773ffffffffffffffffffffffffffffffffffffffff8316600090815260208590526040902054818103818110612869576040517fe450d38c00000000000000000000000000000000000000000000000000000000815273ffffffffffffffffffffffffffffffffffffffff86166004820152602481018390526044810184905260640161118a565b8373ffffffffffffffffffffffffffffffffffffffff168573ffffffffffffffffffffffffffffffffffffffff16146128d35773ffffffffffffffffffffffffffffffffffffffff8086166000908152602088905260408082208490559186168152208054840190555b50505b8173ffffffffffffffffffffffffffffffffffffffff168373ffffffffffffffffffffffffffffffffffffffff167fddf252ad1be2c89b69c2b068fc378daa952ba7f163c4a11628f55a4df523b3ef836040516111f791815260200190565b612942878787878761140e565b73ffffffffffffffffffffffffffffffffffffffff84163b15610d1557610d158686868686868080601f0160208091040260200160405190810160405280939291908181526020018383808284376000920191909152506135e992505050565b73ffffffffffffffffffffffffffffffffffffffff87166129ef576040517fa974697600000000000000000000000000000000000000000000000000000000815260040160405180910390fd5b83421115612a2c576040517fea2b6f580000000000000000000000000000000000000000000000000000000081526004810185905260240161118a565b73ffffffffffffffffffffffffffffffffffffffff878116600081815260208b8152604080832080546001810190915581517f6e71edae12b1b97f4d1f60370fef10105fa2faae0126114a169c64845d6126c98185015280830195909552948b166060850152608084018a905260a084019490945260c08084018990528451808503909101815260e09093019093528151919092012090612acb611601565b6040517f19010000000000000000000000000000000000000000000000000000000000006020820152602281019190915260428101839052606201604080517fffffffffffffffffffffffffffffffffffffffffffffffffffffffffffffffe08184030181528282528051602091820120600080855291840180845281905260ff89169284019290925260608301879052608083018690529092509060019060a0016020604051602081039080840390855afa158015612b8f573d6000803e3d6000fd5b5050506020604051035190508973ffffffffffffffffffffffffffffffffffffffff168173ffffffffffffffffffffffffffffffffffffffff1614612c00576040517f822a64c800000000000000000000000000000000000000000000000000000000815260040160405180910390fd5b505050610a208787876106896110fb565b60008381526020858152604080832073ffffffffffffffffffffffffffffffffffffffff8616845290915290205460ff16156108ee5760008381526020858152604080832073ffffffffffffffffffffffffffffffffffffffff8681168086529184529382902080547fffffffffffffffffffffffffffffffffffffffffffffffffffffffffffffff00169055815187815292830152918316918101919091527ff6391f5c32d9c69d2a47ea670b442974b53935d1edc7fd64eb21e047a839171b906060016115e8565b826108ee8284836141f6565b612cf386868686612776565b73ffffffffffffffffffffffffffffffffffffffff84163b15610f1d57610f1d8586868686868080601f0160208091040260200160405190810160405280939291908181526020018383808284376000920191909152506135e992505050565b825473ffffffffffffffffffffffffffffffffffffffff9081169083168114612dc0576040517f2ef4875e00000000000000000000000000000000000000000000000000000000815273ffffffffffffffffffffffffffffffffffffffff8416600482015260240161118a565b8173ffffffffffffffffffffffffffffffffffffffff168173ffffffffffffffffffffffffffffffffffffffff16146108ee5783547fffffffffffffffffffffffff00000000000000000000000000000000000000001673ffffffffffffffffffffffffffffffffffffffff8381169182178655604051908316907f8be0079c531659141344cd1fd0a4f28419497f9722a3daafe3b4186f6b6457e090600090a350505050565b612e9c612e9560017f5b388d90dc1312ba799f321972f13311234fa1163bcabec7cf66101c4876eb846140f2565b60016136f7565b6107f08282613743565b6000612eb0610f25565b9050612ede817f36372b070000000000000000000000000000000000000000000000000000000060016137f9565b610a95817f9d0751860000000000000000000000000000000000000000000000000000000060016137f9565b612f3f7fc05327e6000000000000000000000000000000000000000000000000000000006001612f38610f25565b91906137f9565b565b612f3f7f53f41a97000000000000000000000000000000000000000000000000000000006001612f38610f25565b612f3f7f28963e1e000000000000000000000000000000000000000000000000000000006001612f38610f25565b612f3f7f20c07ed1000000000000000000000000000000000000000000000000000000006001612f38610f25565b612ff9612e9560017fd217496980d1cb14720b20a80af36676bbece8e5feeb5d8970a9681a2c76bb756140f2565b856130058587836141f6565b50600186016130158385836141f6565b506002860180547fffffffffffffffffffffffffffffffffffffffffffffffffffffffffffffff001660ff8316179055610f1d7fa219a025000000000000000000000000000000000000000000000000000000006001612f38610f25565b612f3f7f3c130d90000000000000000000000000000000000000000000000000000000006001612f38610f25565b612f3f7f9d8ff7da000000000000000000000000000000000000000000000000000000006001612f38610f25565b80471015613139576040517f08c379a000000000000000000000000000000000000000000000000000000000815260206004820152601d60248201527f416464726573733a20696e73756666696369656e742062616c616e6365000000604482015260640161118a565b60008273ffffffffffffffffffffffffffffffffffffffff168260405160006040518083038185875af1925050503d8060008114613193576040519150601f19603f3d011682016040523d82523d6000602084013e613198565b606091505b505090508061073c576040517f08c379a000000000000000000000000000000000000000000000000000000000815260206004820152603a60248201527f416464726573733a20756e61626c6520746f2073656e642076616c75652c207260448201527f6563697069656e74206d61792068617665207265766572746564000000000000606482015260840161118a565b6000333214806132395750601836105b1561324357503390565b7fffffffffffffffffffffffffffffffffffffffffffffffffffffffffffffffec36013560601c7f000000000000000000000000000000000000000000000000000000000000000073ffffffffffffffffffffffffffffffffffffffff1633148061335f57506040517f8929a8ca00000000000000000000000000000000000000000000000000000000815273ffffffffffffffffffffffffffffffffffffffff82811660048301523360248301527f00000000000000000000000000000000000000000000000000000000000000001690638929a8ca90604401602060405180830381865afa15801561333b573d6000803e3d6000fd5b505050506040513d601f19601f8201168201806040525081019061335f9190614310565b1561336957919050565b3391505090565b366000333214806133815750601836105b1561338f5750600091369150565b3373ffffffffffffffffffffffffffffffffffffffff7f00000000000000000000000000000000000000000000000000000000000000001614806134c4575073ffffffffffffffffffffffffffffffffffffffff7f000000000000000000000000000000000000000000000000000000000000000016638929a8ca367fffffffffffffffffffffffffffffffffffffffffffffffffffffffffffffffec013560601c6040517fffffffff0000000000000000000000000000000000000000000000000000000060e084901b16815273ffffffffffffffffffffffffffffffffffffffff9091166004820152336024820152604401602060405180830381865afa1580156134a0573d6000803e3d6000fd5b505050506040513d601f19601f820116820180604052508101906134c49190614310565b156134d1576107636138d5565b50600091369150565b600061353c826040518060400160405280602081526020017f5361666545524332303a206c6f772d6c6576656c2063616c6c206661696c65648152508573ffffffffffffffffffffffffffffffffffffffff166139069092919063ffffffff16565b905080516000148061355d57508080602001905181019061355d9190614310565b61073c576040517f08c379a000000000000000000000000000000000000000000000000000000000815260206004820152602a60248201527f5361666545524332303a204552433230206f7065726174696f6e20646964206e60448201527f6f74207375636365656400000000000000000000000000000000000000000000606482015260840161118a565b6040517f4fc35859000000000000000000000000000000000000000000000000000000008082529073ffffffffffffffffffffffffffffffffffffffff851690634fc3585990613643908990899088908890600401614332565b6020604051808303816000875af1158015613662573d6000803e3d6000fd5b505050506040513d601f19601f82011682018060405250810190613686919061437b565b7fffffffff000000000000000000000000000000000000000000000000000000001614610e5f576040517f6d44973600000000000000000000000000000000000000000000000000000000815273ffffffffffffffffffffffffffffffffffffffff8416600482015260240161118a565b8154829082811061373e576040517fbf0c18ec000000000000000000000000000000000000000000000000000000008152600481018290526024810184905260440161118a565b505550565b73ffffffffffffffffffffffffffffffffffffffff8116156137cb5781547fffffffffffffffffffffffff00000000000000000000000000000000000000001673ffffffffffffffffffffffffffffffffffffffff821690811783556040516000907f8be0079c531659141344cd1fd0a4f28419497f9722a3daafe3b4186f6b6457e0908290a35b6107f07f7f5828d0000000000000000000000000000000000000000000000000000000006001612f38610f25565b7c01000000000000000000000000000000000000000000000000000000007fffffffff00000000000000000000000000000000000000000000000000000000831601613871576040517f72c683bb00000000000000000000000000000000000000000000000000000000815260040160405180910390fd5b7fffffffff00000000000000000000000000000000000000000000000000000000919091166000908152602092909252604090912080547fffffffffffffffffffffffffffffffffffffffffffffffffffffffffffffff0016911515919091179055565b3660006107637fffffffffffffffffffffffffffffffffffffffffffffffffffffffffffffffec8301828481614398565b60606106d58484600085856000808673ffffffffffffffffffffffffffffffffffffffff16858760405161393a91906143c2565b60006040518083038185875af1925050503d8060008114613977576040519150601f19603f3d011682016040523d82523d6000602084013e61397c565b606091505b509150915061398d87838387613998565b979650505050505050565b60608315613a2e578251600003613a275773ffffffffffffffffffffffffffffffffffffffff85163b613a27576040517f08c379a000000000000000000000000000000000000000000000000000000000815260206004820152601d60248201527f416464726573733a2063616c6c20746f206e6f6e2d636f6e7472616374000000604482015260640161118a565b50816106d5565b6106d58383815115613a435781518083602001fd5b806040517f08c379a000000000000000000000000000000000000000000000000000000000815260040161118a9190613b30565b7fffffffff0000000000000000000000000000000000000000000000000000000081168114610a9557600080fd5b600060208284031215613ab757600080fd5b8135610b0381613a77565b60005b83811015613add578181015183820152602001613ac5565b50506000910152565b60008151808452613afe816020860160208601613ac2565b601f017fffffffffffffffffffffffffffffffffffffffffffffffffffffffffffffffe0169290920160200192915050565b602081526000610b036020830184613ae6565b73ffffffffffffffffffffffffffffffffffffffff81168114610a9557600080fd5b60008060408385031215613b7857600080fd5b8235613b8381613b43565b946020939093013593505050565b60008083601f840112613ba357600080fd5b50813567ffffffffffffffff811115613bbb57600080fd5b6020830191508360208260051b8501011115613bd657600080fd5b9250929050565b60008060008060408587031215613bf357600080fd5b843567ffffffffffffffff80821115613c0b57600080fd5b613c1788838901613b91565b90965094506020870135915080821115613c3057600080fd5b50613c3d87828801613b91565b95989497509550505050565b600080600060608486031215613c5e57600080fd5b8335613c6981613b43565b92506020840135613c7981613b43565b929592945050506040919091013590565b60008060408385031215613c9d57600080fd5b823591506020830135613caf81613b43565b809150509250929050565b60208152816020820152818360408301376000818301604090810191909152601f9092017fffffffffffffffffffffffffffffffffffffffffffffffffffffffffffffffe0160101919050565b600060208284031215613d1957600080fd5b5035919050565b600080600080600060608688031215613d3857600080fd5b8535613d4381613b43565b9450602086013567ffffffffffffffff80821115613d6057600080fd5b613d6c89838a01613b91565b90965094506040880135915080821115613d8557600080fd5b50613d9288828901613b91565b969995985093965092949392505050565b600060208284031215613db557600080fd5b8135610b0381613b43565b60008060008060008060608789031215613dd957600080fd5b863567ffffffffffffffff80821115613df157600080fd5b613dfd8a838b01613b91565b90985096506020890135915080821115613e1657600080fd5b613e228a838b01613b91565b90965094506040890135915080821115613e3b57600080fd5b50613e4889828a01613b91565b979a9699509497509295939492505050565b60008083601f840112613e6c57600080fd5b50813567ffffffffffffffff811115613e8457600080fd5b602083019150836020828501011115613bd657600080fd5b600080600080600060808688031215613eb457600080fd5b8535613ebf81613b43565b94506020860135613ecf81613b43565b935060408601359250606086013567ffffffffffffffff811115613ef257600080fd5b613d9288828901613e5a565b803560ff81168114613f0f57600080fd5b919050565b600080600080600080600060e0888a031215613f2f57600080fd5b8735613f3a81613b43565b96506020880135613f4a81613b43565b95506040880135945060608801359350613f6660808901613efe565b925060a0880135915060c0880135905092959891949750929550565b60008060408385031215613f9557600080fd5b8235613fa081613b43565b91506020830135613caf81613b43565b60008060208385031215613fc357600080fd5b823567ffffffffffffffff811115613fda57600080fd5b613fe685828601613e5a565b90969095509350505050565b6000806000806060858703121561400857600080fd5b843561401381613b43565b935060208501359250604085013567ffffffffffffffff81111561403657600080fd5b613c3d87828801613e5a565b60008060008060006060868803121561405a57600080fd5b853567ffffffffffffffff8082111561407257600080fd5b61407e89838a01613e5a565b9097509550602088013591508082111561409757600080fd5b506140a488828901613e5a565b90945092506140b7905060408701613efe565b90509295509295909350565b7f4e487b7100000000000000000000000000000000000000000000000000000000600052603260045260246000fd5b81810381811115610655577f4e487b7100000000000000000000000000000000000000000000000000000000600052601160045260246000fd5b600181811c9082168061414057607f821691505b602082108103614179577f4e487b7100000000000000000000000000000000000000000000000000000000600052602260045260246000fd5b50919050565b7f4e487b7100000000000000000000000000000000000000000000000000000000600052604160045260246000fd5b601f82111561073c576000816000526020600020601f850160051c810160208610156141d75750805b601f850160051c820191505b81811015610f1d578281556001016141e3565b67ffffffffffffffff83111561420e5761420e61417f565b6142228361421c835461412c565b836141ae565b6000601f841160018114614274576000851561423e5750838201355b7fffffffffffffffffffffffffffffffffffffffffffffffffffffffffffffffff600387901b1c1916600186901b178355610e5f565b6000838152602090207fffffffffffffffffffffffffffffffffffffffffffffffffffffffffffffffe0861690835b828110156142c357868501358255602094850194600190920191016142a3565b50868210156142fe577fffffffffffffffffffffffffffffffffffffffffffffffffffffffffffffffff60f88860031b161c19848701351681555b505060018560011b0183555050505050565b60006020828403121561432257600080fd5b81518015158114610b0357600080fd5b600073ffffffffffffffffffffffffffffffffffffffff8087168352808616602084015250836040830152608060608301526143716080830184613ae6565b9695505050505050565b60006020828403121561438d57600080fd5b8151610b0381613a77565b600080858511156143a857600080fd5b838611156143b557600080fd5b5050820193919092039150565b600082516143d4818460208701613ac2565b919091019291505056fea26469706673582212208dc9a20b09e35110a60e0ba959cf9fc15466ef214b3af8634861cfa2b9ae2cd064736f6c63430008160033",
  "linkReferences": {},
  "deployedLinkReferences": {}
}