{
  "_format": "hh-sol-artifact-1",
  "contractName": "ERC20MintBurnProxiedMock",
  "sourceName": "contracts/mocks/token/ERC20/preset/proxied/ERC20MintBurnProxiedMock.sol",
  "abi": [
    {
      "inputs": [
        {
          "internalType": "contract IForwarderRegistry",
          "name": "forwarderRegistry",
          "type": "address"
        }
      ],
      "stateMutability": "nonpayable",
      "type": "constructor"
    },
    {
      "inputs": [
        {
          "internalType": "address",
          "name": "owner",
          "type": "address"
        },
        {
          "internalType": "address",
          "name": "spender",
          "type": "address"
        },
        {
          "internalType": "uint256",
          "name": "allowance",
          "type": "uint256"
        },
        {
          "internalType": "uint256",
          "name": "increment",
          "type": "uint256"
        }
      ],
      "name": "ERC20AllowanceOverflow",
      "type": "error"
    },
    {
      "inputs": [
        {
          "internalType": "address",
          "name": "owner",
          "type": "address"
        }
      ],
      "name": "ERC20ApprovalToAddressZero",
      "type": "error"
    },
    {
      "inputs": [],
      "name": "ERC20BatchMintValuesOverflow",
      "type": "error"
    },
    {
      "inputs": [],
      "name": "ERC20BatchTransferValuesOverflow",
      "type": "error"
    },
    {
      "inputs": [
        {
          "internalType": "address",
          "name": "owner",
          "type": "address"
        },
        {
          "internalType": "address",
          "name": "spender",
          "type": "address"
        },
        {
          "internalType": "uint256",
          "name": "allowance",
          "type": "uint256"
        },
        {
          "internalType": "uint256",
          "name": "decrement",
          "type": "uint256"
        }
      ],
      "name": "ERC20InsufficientAllowance",
      "type": "error"
    },
    {
      "inputs": [
        {
          "internalType": "address",
          "name": "owner",
          "type": "address"
        },
        {
          "internalType": "uint256",
          "name": "balance",
          "type": "uint256"
        },
        {
          "internalType": "uint256",
          "name": "value",
          "type": "uint256"
        }
      ],
      "name": "ERC20InsufficientBalance",
      "type": "error"
    },
    {
      "inputs": [],
      "name": "ERC20MintToAddressZero",
      "type": "error"
    },
    {
      "inputs": [
        {
          "internalType": "uint256",
          "name": "deadline",
          "type": "uint256"
        }
      ],
      "name": "ERC20PermitExpired",
      "type": "error"
    },
    {
      "inputs": [],
      "name": "ERC20PermitFromAddressZero",
      "type": "error"
    },
    {
      "inputs": [],
      "name": "ERC20PermitInvalidSignature",
      "type": "error"
    },
    {
      "inputs": [
        {
          "internalType": "address",
          "name": "recipient",
          "type": "address"
        }
      ],
      "name": "ERC20SafeTransferRejected",
      "type": "error"
    },
    {
      "inputs": [
        {
          "internalType": "uint256",
          "name": "supply",
          "type": "uint256"
        },
        {
          "internalType": "uint256",
          "name": "value",
          "type": "uint256"
        }
      ],
      "name": "ERC20TotalSupplyOverflow",
      "type": "error"
    },
    {
      "inputs": [
        {
          "internalType": "address",
          "name": "owner",
          "type": "address"
        }
      ],
      "name": "ERC20TransferToAddressZero",
      "type": "error"
    },
    {
      "inputs": [],
      "name": "IllegalInterfaceId",
      "type": "error"
    },
    {
      "inputs": [],
      "name": "InconsistentArrayLengths",
      "type": "error"
    },
    {
      "inputs": [
        {
          "internalType": "uint256",
          "name": "currentPhase",
          "type": "uint256"
        },
        {
          "internalType": "uint256",
          "name": "newPhase",
          "type": "uint256"
        }
      ],
      "name": "InitializationPhaseAlreadyReached",
      "type": "error"
    },
    {
      "inputs": [
        {
          "internalType": "address",
          "name": "account",
          "type": "address"
        }
      ],
      "name": "NotContractOwner",
      "type": "error"
    },
    {
      "inputs": [
        {
          "internalType": "bytes32",
          "name": "role",
          "type": "bytes32"
        },
        {
          "internalType": "address",
          "name": "account",
          "type": "address"
        }
      ],
      "name": "NotRoleHolder",
      "type": "error"
    },
    {
      "anonymous": false,
      "inputs": [
        {
          "indexed": true,
          "internalType": "address",
          "name": "owner",
          "type": "address"
        },
        {
          "indexed": true,
          "internalType": "address",
          "name": "spender",
          "type": "address"
        },
        {
          "indexed": false,
          "internalType": "uint256",
          "name": "value",
          "type": "uint256"
        }
      ],
      "name": "Approval",
      "type": "event"
    },
    {
      "anonymous": false,
      "inputs": [
        {
          "indexed": true,
          "internalType": "address",
          "name": "previousOwner",
          "type": "address"
        },
        {
          "indexed": true,
          "internalType": "address",
          "name": "newOwner",
          "type": "address"
        }
      ],
      "name": "OwnershipTransferred",
      "type": "event"
    },
    {
      "anonymous": false,
      "inputs": [
        {
          "indexed": false,
          "internalType": "bytes32",
          "name": "role",
          "type": "bytes32"
        },
        {
          "indexed": false,
          "internalType": "address",
          "name": "account",
          "type": "address"
        },
        {
          "indexed": false,
          "internalType": "address",
          "name": "operator",
          "type": "address"
        }
      ],
      "name": "RoleGranted",
      "type": "event"
    },
    {
      "anonymous": false,
      "inputs": [
        {
          "indexed": false,
          "internalType": "bytes32",
          "name": "role",
          "type": "bytes32"
        },
        {
          "indexed": false,
          "internalType": "address",
          "name": "account",
          "type": "address"
        },
        {
          "indexed": false,
          "internalType": "address",
          "name": "operator",
          "type": "address"
        }
      ],
      "name": "RoleRevoked",
      "type": "event"
    },
    {
      "anonymous": false,
      "inputs": [
        {
          "indexed": true,
          "internalType": "address",
          "name": "from",
          "type": "address"
        },
        {
          "indexed": true,
          "internalType": "address",
          "name": "to",
          "type": "address"
        },
        {
          "indexed": false,
          "internalType": "uint256",
          "name": "value",
          "type": "uint256"
        }
      ],
      "name": "Transfer",
      "type": "event"
    },
    {
      "inputs": [],
      "name": "DOMAIN_SEPARATOR",
      "outputs": [
        {
          "internalType": "bytes32",
          "name": "",
          "type": "bytes32"
        }
      ],
      "stateMutability": "view",
      "type": "function"
    },
    {
      "inputs": [],
      "name": "MINTER_ROLE",
      "outputs": [
        {
          "internalType": "bytes32",
          "name": "",
          "type": "bytes32"
        }
      ],
      "stateMutability": "view",
      "type": "function"
    },
    {
      "inputs": [],
      "name": "__msgData",
      "outputs": [
        {
          "internalType": "bytes",
          "name": "",
          "type": "bytes"
        }
      ],
      "stateMutability": "view",
      "type": "function"
    },
    {
      "inputs": [
        {
          "internalType": "address",
          "name": "owner",
          "type": "address"
        },
        {
          "internalType": "address",
          "name": "spender",
          "type": "address"
        }
      ],
      "name": "allowance",
      "outputs": [
        {
          "internalType": "uint256",
          "name": "value",
          "type": "uint256"
        }
      ],
      "stateMutability": "view",
      "type": "function"
    },
    {
      "inputs": [
        {
          "internalType": "address",
          "name": "spender",
          "type": "address"
        },
        {
          "internalType": "uint256",
          "name": "value",
          "type": "uint256"
        }
      ],
      "name": "approve",
      "outputs": [
        {
          "internalType": "bool",
          "name": "result",
          "type": "bool"
        }
      ],
      "stateMutability": "nonpayable",
      "type": "function"
    },
    {
      "inputs": [
        {
          "internalType": "address",
          "name": "owner",
          "type": "address"
        }
      ],
      "name": "balanceOf",
      "outputs": [
        {
          "internalType": "uint256",
          "name": "balance",
          "type": "uint256"
        }
      ],
      "stateMutability": "view",
      "type": "function"
    },
    {
      "inputs": [
        {
          "internalType": "address[]",
          "name": "owners",
          "type": "address[]"
        },
        {
          "internalType": "uint256[]",
          "name": "values",
          "type": "uint256[]"
        }
      ],
      "name": "batchBurnFrom",
      "outputs": [
        {
          "internalType": "bool",
          "name": "",
          "type": "bool"
        }
      ],
      "stateMutability": "nonpayable",
      "type": "function"
    },
    {
      "inputs": [
        {
          "internalType": "address[]",
          "name": "recipients",
          "type": "address[]"
        },
        {
          "internalType": "uint256[]",
          "name": "values",
          "type": "uint256[]"
        }
      ],
      "name": "batchMint",
      "outputs": [],
      "stateMutability": "nonpayable",
      "type": "function"
    },
    {
      "inputs": [
        {
          "internalType": "address[]",
          "name": "recipients",
          "type": "address[]"
        },
        {
          "internalType": "uint256[]",
          "name": "values",
          "type": "uint256[]"
        }
      ],
      "name": "batchTransfer",
      "outputs": [
        {
          "internalType": "bool",
          "name": "",
          "type": "bool"
        }
      ],
      "stateMutability": "nonpayable",
      "type": "function"
    },
    {
      "inputs": [
        {
          "internalType": "address",
          "name": "from",
          "type": "address"
        },
        {
          "internalType": "address[]",
          "name": "recipients",
          "type": "address[]"
        },
        {
          "internalType": "uint256[]",
          "name": "values",
          "type": "uint256[]"
        }
      ],
      "name": "batchTransferFrom",
      "outputs": [
        {
          "internalType": "bool",
          "name": "",
          "type": "bool"
        }
      ],
      "stateMutability": "nonpayable",
      "type": "function"
    },
    {
      "inputs": [
        {
          "internalType": "uint256",
          "name": "value",
          "type": "uint256"
        }
      ],
      "name": "burn",
      "outputs": [
        {
          "internalType": "bool",
          "name": "",
          "type": "bool"
        }
      ],
      "stateMutability": "nonpayable",
      "type": "function"
    },
    {
      "inputs": [
        {
          "internalType": "address",
          "name": "from",
          "type": "address"
        },
        {
          "internalType": "uint256",
          "name": "value",
          "type": "uint256"
        }
      ],
      "name": "burnFrom",
      "outputs": [
        {
          "internalType": "bool",
          "name": "",
          "type": "bool"
        }
      ],
      "stateMutability": "nonpayable",
      "type": "function"
    },
    {
      "inputs": [],
      "name": "decimals",
      "outputs": [
        {
          "internalType": "uint8",
          "name": "",
          "type": "uint8"
        }
      ],
      "stateMutability": "view",
      "type": "function"
    },
    {
      "inputs": [
        {
          "internalType": "address",
          "name": "spender",
          "type": "address"
        },
        {
          "internalType": "uint256",
          "name": "subtractedValue",
          "type": "uint256"
        }
      ],
      "name": "decreaseAllowance",
      "outputs": [
        {
          "internalType": "bool",
          "name": "result",
          "type": "bool"
        }
      ],
      "stateMutability": "nonpayable",
      "type": "function"
    },
    {
      "inputs": [],
      "name": "forwarderRegistry",
      "outputs": [
        {
          "internalType": "contract IForwarderRegistry",
          "name": "",
          "type": "address"
        }
      ],
      "stateMutability": "view",
      "type": "function"
    },
    {
      "inputs": [
        {
          "internalType": "bytes32",
          "name": "role",
          "type": "bytes32"
        },
        {
          "internalType": "address",
          "name": "account",
          "type": "address"
        }
      ],
      "name": "grantRole",
      "outputs": [],
      "stateMutability": "nonpayable",
      "type": "function"
    },
    {
      "inputs": [
        {
          "internalType": "bytes32",
          "name": "role",
          "type": "bytes32"
        },
        {
          "internalType": "address",
          "name": "account",
          "type": "address"
        }
      ],
      "name": "hasRole",
      "outputs": [
        {
          "internalType": "bool",
          "name": "hasRole_",
          "type": "bool"
        }
      ],
      "stateMutability": "view",
      "type": "function"
    },
    {
      "inputs": [
        {
          "internalType": "address",
          "name": "spender",
          "type": "address"
        },
        {
          "internalType": "uint256",
          "name": "addedValue",
          "type": "uint256"
        }
      ],
      "name": "increaseAllowance",
      "outputs": [
        {
          "internalType": "bool",
          "name": "result",
          "type": "bool"
        }
      ],
      "stateMutability": "nonpayable",
      "type": "function"
    },
    {
      "inputs": [
        {
          "internalType": "string",
          "name": "tokenName",
          "type": "string"
        },
        {
          "internalType": "string",
          "name": "tokenSymbol",
          "type": "string"
        },
        {
          "internalType": "uint8",
          "name": "tokenDecimals",
          "type": "uint8"
        }
      ],
      "name": "init",
      "outputs": [],
      "stateMutability": "nonpayable",
      "type": "function"
    },
    {
      "inputs": [
        {
          "internalType": "address",
          "name": "forwarder",
          "type": "address"
        }
      ],
      "name": "isTrustedForwarder",
      "outputs": [
        {
          "internalType": "bool",
          "name": "",
          "type": "bool"
        }
      ],
      "stateMutability": "view",
      "type": "function"
    },
    {
      "inputs": [
        {
          "internalType": "address",
          "name": "to",
          "type": "address"
        },
        {
          "internalType": "uint256",
          "name": "value",
          "type": "uint256"
        }
      ],
      "name": "mint",
      "outputs": [],
      "stateMutability": "nonpayable",
      "type": "function"
    },
    {
      "inputs": [],
      "name": "name",
      "outputs": [
        {
          "internalType": "string",
          "name": "",
          "type": "string"
        }
      ],
      "stateMutability": "view",
      "type": "function"
    },
    {
      "inputs": [
        {
          "internalType": "address",
          "name": "owner",
          "type": "address"
        }
      ],
      "name": "nonces",
      "outputs": [
        {
          "internalType": "uint256",
          "name": "",
          "type": "uint256"
        }
      ],
      "stateMutability": "view",
      "type": "function"
    },
    {
      "inputs": [],
      "name": "owner",
      "outputs": [
        {
          "internalType": "address",
          "name": "",
          "type": "address"
        }
      ],
      "stateMutability": "view",
      "type": "function"
    },
    {
      "inputs": [
        {
          "internalType": "address",
          "name": "owner",
          "type": "address"
        },
        {
          "internalType": "address",
          "name": "spender",
          "type": "address"
        },
        {
          "internalType": "uint256",
          "name": "value",
          "type": "uint256"
        },
        {
          "internalType": "uint256",
          "name": "deadline",
          "type": "uint256"
        },
        {
          "internalType": "uint8",
          "name": "v",
          "type": "uint8"
        },
        {
          "internalType": "bytes32",
          "name": "r",
          "type": "bytes32"
        },
        {
          "internalType": "bytes32",
          "name": "s",
          "type": "bytes32"
        }
      ],
      "name": "permit",
      "outputs": [],
      "stateMutability": "nonpayable",
      "type": "function"
    },
    {
      "inputs": [
        {
          "internalType": "address[]",
          "name": "accounts",
          "type": "address[]"
        },
        {
          "internalType": "contract IERC20[]",
          "name": "tokens",
          "type": "address[]"
        },
        {
          "internalType": "uint256[]",
          "name": "amounts",
          "type": "uint256[]"
        }
      ],
      "name": "recoverERC20s",
      "outputs": [],
      "stateMutability": "nonpayable",
      "type": "function"
    },
    {
      "inputs": [
        {
          "internalType": "address[]",
          "name": "accounts",
          "type": "address[]"
        },
        {
          "internalType": "contract IERC721[]",
          "name": "contracts",
          "type": "address[]"
        },
        {
          "internalType": "uint256[]",
          "name": "tokenIds",
          "type": "uint256[]"
        }
      ],
      "name": "recoverERC721s",
      "outputs": [],
      "stateMutability": "nonpayable",
      "type": "function"
    },
    {
      "inputs": [
        {
          "internalType": "address payable[]",
          "name": "accounts",
          "type": "address[]"
        },
        {
          "internalType": "uint256[]",
          "name": "amounts",
          "type": "uint256[]"
        }
      ],
      "name": "recoverETH",
      "outputs": [],
      "stateMutability": "nonpayable",
      "type": "function"
    },
    {
      "inputs": [
        {
          "internalType": "bytes32",
          "name": "role",
          "type": "bytes32"
        }
      ],
      "name": "renounceRole",
      "outputs": [],
      "stateMutability": "nonpayable",
      "type": "function"
    },
    {
      "inputs": [
        {
          "internalType": "bytes32",
          "name": "role",
          "type": "bytes32"
        },
        {
          "internalType": "address",
          "name": "account",
          "type": "address"
        }
      ],
      "name": "revokeRole",
      "outputs": [],
      "stateMutability": "nonpayable",
      "type": "function"
    },
    {
      "inputs": [
        {
          "internalType": "address",
          "name": "to",
          "type": "address"
        },
        {
          "internalType": "uint256",
          "name": "value",
          "type": "uint256"
        },
        {
          "internalType": "bytes",
          "name": "data",
          "type": "bytes"
        }
      ],
      "name": "safeTransfer",
      "outputs": [
        {
          "internalType": "bool",
          "name": "",
          "type": "bool"
        }
      ],
      "stateMutability": "nonpayable",
      "type": "function"
    },
    {
      "inputs": [
        {
          "internalType": "address",
          "name": "from",
          "type": "address"
        },
        {
          "internalType": "address",
          "name": "to",
          "type": "address"
        },
        {
          "internalType": "uint256",
          "name": "value",
          "type": "uint256"
        },
        {
          "internalType": "bytes",
          "name": "data",
          "type": "bytes"
        }
      ],
      "name": "safeTransferFrom",
      "outputs": [
        {
          "internalType": "bool",
          "name": "",
          "type": "bool"
        }
      ],
      "stateMutability": "nonpayable",
      "type": "function"
    },
    {
      "inputs": [
        {
          "internalType": "string",
          "name": "uri",
          "type": "string"
        }
      ],
      "name": "setTokenURI",
      "outputs": [],
      "stateMutability": "nonpayable",
      "type": "function"
    },
    {
      "inputs": [
        {
          "internalType": "bytes4",
          "name": "interfaceId",
          "type": "bytes4"
        }
      ],
      "name": "supportsInterface",
      "outputs": [
        {
          "internalType": "bool",
          "name": "",
          "type": "bool"
        }
      ],
      "stateMutability": "view",
      "type": "function"
    },
    {
      "inputs": [],
      "name": "symbol",
      "outputs": [
        {
          "internalType": "string",
          "name": "",
          "type": "string"
        }
      ],
      "stateMutability": "view",
      "type": "function"
    },
    {
      "inputs": [],
      "name": "tokenURI",
      "outputs": [
        {
          "internalType": "string",
          "name": "",
          "type": "string"
        }
      ],
      "stateMutability": "view",
      "type": "function"
    },
    {
      "inputs": [],
      "name": "totalSupply",
      "outputs": [
        {
          "internalType": "uint256",
          "name": "supply",
          "type": "uint256"
        }
      ],
      "stateMutability": "view",
      "type": "function"
    },
    {
      "inputs": [
        {
          "internalType": "address",
          "name": "to",
          "type": "address"
        },
        {
          "internalType": "uint256",
          "name": "value",
          "type": "uint256"
        }
      ],
      "name": "transfer",
      "outputs": [
        {
          "internalType": "bool",
          "name": "result",
          "type": "bool"
        }
      ],
      "stateMutability": "nonpayable",
      "type": "function"
    },
    {
      "inputs": [
        {
          "internalType": "address",
          "name": "from",
          "type": "address"
        },
        {
          "internalType": "address",
          "name": "to",
          "type": "address"
        },
        {
          "internalType": "uint256",
          "name": "value",
          "type": "uint256"
        }
      ],
      "name": "transferFrom",
      "outputs": [
        {
          "internalType": "bool",
          "name": "result",
          "type": "bool"
        }
      ],
      "stateMutability": "nonpayable",
      "type": "function"
    },
    {
      "inputs": [
        {
          "internalType": "address",
          "name": "newOwner",
          "type": "address"
        }
      ],
      "name": "transferOwnership",
      "outputs": [],
      "stateMutability": "nonpayable",
      "type": "function"
    }
  ],
  "bytecode": "0x60a06040523480156200001157600080fd5b50604051620044a3380380620044a3833981016040819052620000349162000046565b6001600160a01b031660805262000078565b6000602082840312156200005957600080fd5b81516001600160a01b03811681146200007157600080fd5b9392505050565b6080516143ec620000b76000396000818161035b0152818161045101528181613246015281816132ce0152818161338101526133bf01526143ec6000f3fe608060405234801561001057600080fd5b50600436106102c85760003560e01c806379cc67901161017b578063c3666c36116100d8578063e0df5b6f1161008c578063f2fde38b11610071578063f2fde38b14610608578063f57b01821461061b578063f7ba94bd1461062e57600080fd5b8063e0df5b6f146105e2578063eb795549146105f557600080fd5b8063d5391393116100bd578063d539139314610595578063d547741f146105bc578063dd62ed3e146105cf57600080fd5b8063c3666c361461056f578063d505accf1461058257600080fd5b806391d148541161012f578063a457c2d711610114578063a457c2d714610536578063a9059cbb14610549578063b88d4fde1461055c57600080fd5b806391d148541461051b57806395d89b411461052e57600080fd5b806388d695b21161016057806388d695b2146104ed5780638bb9c5bf146105005780638da5cb5b1461051357600080fd5b806379cc6790146104c75780637ecebe00146104da57600080fd5b80633644e515116102295780634885b254116101dd57806368573107116101c2578063685731071461048e57806370a08231146104a157806373c8a958146104b457600080fd5b80634885b2541461042e578063572b6c051461044157600080fd5b80633c130d901161020e5780633c130d901461040057806340c10f191461040857806342966c681461041b57600080fd5b80633644e515146103e557806339509351146103ed57600080fd5b806323b872dd116102805780632f2ff15d116102655780632f2ff15d146103a0578063313ce567146103b557806331e66e1e146103cf57600080fd5b806323b872dd146103465780632b4c9f161461035957600080fd5b8063095ea7b3116102b1578063095ea7b31461030a57806318160ddd1461031d5780631b9a75291461033357600080fd5b806301ffc9a7146102cd57806306fdde03146102f5575b600080fd5b6102e06102db366004613a7f565b610641565b60405190151581526020015b60405180910390f35b6102fd61065b565b6040516102ec9190613b0a565b6102e0610318366004613b3f565b610672565b61032561069a565b6040519081526020016102ec565b6102e0610341366004613bb7565b6106ae565b6102e0610354366004613c23565b6106dd565b7f00000000000000000000000000000000000000000000000000000000000000005b60405173ffffffffffffffffffffffffffffffffffffffff90911681526020016102ec565b6103b36103ae366004613c64565b610708565b005b6103bd610741565b60405160ff90911681526020016102ec565b6103d7610758565b6040516102ec929190613c94565b61032561076b565b6102e06103fb366004613b3f565b610775565b6102fd610794565b6103b3610416366004613b3f565b6107a1565b6102e0610429366004613ce1565b6107f4565b6102e061043c366004613cfa565b610819565b6102e061044f366004613d7d565b7f000000000000000000000000000000000000000000000000000000000000000073ffffffffffffffffffffffffffffffffffffffff90811691161490565b6103b361049c366004613bb7565b61084a565b6103256104af366004613d7d565b6108f4565b6103b36104c2366004613d9a565b61092c565b6102e06104d5366004613b3f565b610a29565b6103256104e8366004613d7d565b610a48565b6102e06104fb366004613bb7565b610a56565b6103b361050e366004613ce1565b610a79565b61037b610a97565b6102e0610529366004613c64565b610abe565b6102fd610b09565b6102e0610544366004613b3f565b610b1b565b6102e0610557366004613b3f565b610b3a565b6102e061056a366004613e76565b610b59565b6103b361057d366004613d9a565b610b7e565b6103b3610590366004613eee565b610cf5565b6103257f6d696e746572000000000000000000000000000000000000000000000000000081565b6103b36105ca366004613c64565b610d1c565b6103256105dd366004613f5c565b610d4a565b6103b36105f0366004613f8a565b610d95565b6102e0610603366004613fcc565b610db4565b6103b3610616366004613d7d565b610dd7565b6103b361062936600461401c565b610df2565b6103b361063c366004613bb7565b610e64565b60006106558261064f610f22565b90610f50565b92915050565b606061066d61066861102a565b611058565b905090565b600061069161067f6110ee565b84846106896110f8565b929190611126565b50600192915050565b600061066d6106a76110f8565b6002015490565b60006106d16106bb6110ee565b868686866106c76110f8565b9493929190611202565b5060015b949350505050565b60006106fe6106ea6110ee565b8585856106f56110f8565b9392919061140a565b5060019392505050565b60006107126110ee565b905061072681610720611455565b90611483565b61073c8383836107346114ee565b92919061151c565b505050565b600061066d61074e61102a565b6002015460ff1690565b3660006107636115f2565b915091509091565b600061066d6115fd565b60006106916107826110ee565b848461078c6110f8565b929190611698565b606061066d61066861184a565b6107dc7f6d696e74657200000000000000000000000000000000000000000000000000006107cd6110ee565b6107d56114ee565b9190611878565b6107f082826107e96110f8565b91906118fe565b5050565b60006108116108016110ee565b8361080a6110f8565b9190611a22565b506001919050565b600061083e6108266110ee565b87878787876108336110f8565b959493929190611b2e565b50600195945050505050565b6108767f6d696e74657200000000000000000000000000000000000000000000000000006107cd6110ee565b6108ee848480806020026020016040519081016040528093929190818152602001838360200280828437600092019190915250506040805160208088028281018201909352878252909350879250869182918501908490808284376000920191909152506108e792506110f8915050565b9190611ee8565b50505050565b6000610655826109026110f8565b9073ffffffffffffffffffffffffffffffffffffffff166000908152602091909152604090205490565b61093f6109376110ee565b610720611455565b84838114158061094f5750808214155b15610986576040517f6582533600000000000000000000000000000000000000000000000000000000815260040160405180910390fd5b60005b818114610a1f57610a178888838181106109a5576109a561409d565b90506020020160208101906109ba9190613d7d565b8585848181106109cc576109cc61409d565b905060200201358888858181106109e5576109e561409d565b90506020020160208101906109fa9190613d7d565b73ffffffffffffffffffffffffffffffffffffffff169190612108565b600101610989565b5050505050505050565b6000610691610a366110ee565b8484610a406110f8565b929190612195565b6000610655826109026121df565b60006106d1610a636110ee565b86868686610a6f6110f8565b949392919061220d565b610a94610a846110ee565b82610a8d6114ee565b9190612563565b50565b600061066d610aa4611455565b5473ffffffffffffffffffffffffffffffffffffffff1690565b6000610b028383610acd6114ee565b60009283526020908152604080842073ffffffffffffffffffffffffffffffffffffffff909316845291905290205460ff1690565b9392505050565b606061066d610b1661102a565b612607565b6000610691610b286110ee565b8484610b326110f8565b929190612618565b6000610691610b476110ee565b8484610b516110f8565b929190612750565b600061083e610b666110ee565b8787878787610b736110f8565b95949392919061290f565b610b896109376110ee565b848381141580610b995750808214155b15610bd0576040517f6582533600000000000000000000000000000000000000000000000000000000815260040160405180910390fd5b60005b818114610a1f57858582818110610bec57610bec61409d565b9050602002016020810190610c019190613d7d565b73ffffffffffffffffffffffffffffffffffffffff166323b872dd308a8a85818110610c2f57610c2f61409d565b9050602002016020810190610c449190613d7d565b878786818110610c5657610c5661409d565b6040517fffffffff0000000000000000000000000000000000000000000000000000000060e088901b16815273ffffffffffffffffffffffffffffffffffffffff958616600482015294909316602485015250602090910201356044820152606401600060405180830381600087803b158015610cd257600080fd5b505af1158015610ce6573d6000803e3d6000fd5b50505050806001019050610bd3565b610d1387878787878787610d076121df565b9695949392919061297c565b50505050505050565b6000610d266110ee565b9050610d3481610720611455565b61073c838383610d426114ee565b929190612beb565b6000610b028383610d596110f8565b919073ffffffffffffffffffffffffffffffffffffffff9182166000908152600193909301602090815260408085209290931684525290205490565b610da06109376110ee565b6107f08282610dad61184a565b9190612cb5565b60006106d1610dc16110ee565b86868686610dcd6110f8565b9493929190612cc1565b610a94610de26110ee565b82610deb611455565b9190612d2d565b610e0b610dfd6110ee565b610e05611455565b90612e41565b610e13612e80565b610e1b612ee4565b610e23612f1b565b610e2b612f49565b610e33612f77565b610e4d8585858585610e4361102a565b9493929190612fa5565b610e5561304d565b610e5d61307b565b5050505050565b610e6f6109376110ee565b82818114610ea9576040517f6582533600000000000000000000000000000000000000000000000000000000815260040160405180910390fd5b60005b818114610f1a57610f12848483818110610ec857610ec861409d565b90506020020135878784818110610ee157610ee161409d565b9050602002016020810190610ef69190613d7d565b73ffffffffffffffffffffffffffffffffffffffff16906130a9565b600101610eac565b505050505050565b60008061065560017fca9d3e17f264b0f3984e2634e94adb37fa3e6a8103f06aeae6fa59e21c769f5e6140cc565b60007c01000000000000000000000000000000000000000000000000000000007fffffffff00000000000000000000000000000000000000000000000000000000831601610fa057506000610655565b7ffe003659000000000000000000000000000000000000000000000000000000007fffffffff00000000000000000000000000000000000000000000000000000000831601610ff157506001610655565b507fffffffff00000000000000000000000000000000000000000000000000000000166000908152602091909152604090205460ff1690565b60008061065560017f335df4119bbb04f056b33eba33b826d3529129e458faf6daa9924b5a8f3b6a826140cc565b606081600001805461106990614106565b80601f016020809104026020016040519081016040528092919081815260200182805461109590614106565b80156110e25780601f106110b7576101008083540402835291602001916110e2565b820191906000526020600020905b8154815290600101906020018083116110c557829003601f168201915b50505050509050919050565b600061066d613203565b60008061065560017f1da92899d3da68bf9787824388a37ea2bfa79780bcef91b9716c390eec8ecbef6140cc565b73ffffffffffffffffffffffffffffffffffffffff8216611190576040517ff7e1ac0f00000000000000000000000000000000000000000000000000000000815273ffffffffffffffffffffffffffffffffffffffff841660048201526024015b60405180910390fd5b73ffffffffffffffffffffffffffffffffffffffff838116600081815260018701602090815260408083209487168084529482529182902085905590518481527f8c5be1e5ebec7d5bd14f71427d1e84f3dd0314c0f7b2291e5b200ac8c7c3b92591015b60405180910390a350505050565b8281811461123c576040517f6582533600000000000000000000000000000000000000000000000000000000815260040160405180910390fd5b8060000361124a5750610f1a565b6000805b8281146113ee5760008787838181106112695761126961409d565b905060200201602081019061127e9190613d7d565b905060008686848181106112945761129461409d565b9050602002013590508973ffffffffffffffffffffffffffffffffffffffff168273ffffffffffffffffffffffffffffffffffffffff16146112dc576112dc8b838c84612618565b80156113965773ffffffffffffffffffffffffffffffffffffffff8216600090815260208c9052604090205481810381811061136a576040517fe450d38c00000000000000000000000000000000000000000000000000000000815273ffffffffffffffffffffffffffffffffffffffff851660048201526024810183905260448101849052606401611187565b73ffffffffffffffffffffffffffffffffffffffff8416600090815260208e9052604090205550928301925b60405181815260009073ffffffffffffffffffffffffffffffffffffffff8416907fddf252ad1be2c89b69c2b068fc378daa952ba7f163c4a11628f55a4df523b3ef9060200160405180910390a3505060010161124e565b508015610a1f5760028801805482900390555050505050505050565b8373ffffffffffffffffffffffffffffffffffffffff168373ffffffffffffffffffffffffffffffffffffffff16146114495761144985848684612618565b610e5d85848484612750565b60008061065560017fc9ed16f33ab3a66c84bfd83099ccb2a8845871e2e1c1928f63797152f0fd54cd6140cc565b815473ffffffffffffffffffffffffffffffffffffffff8281169116146107f0576040517f2ef4875e00000000000000000000000000000000000000000000000000000000815273ffffffffffffffffffffffffffffffffffffffff82166004820152602401611187565b60008061065560017fc8827d3282af6f37b64c3e9e6f3ac9df286ab0bb0fccd6f8661bf19adb368b236140cc565b60008381526020858152604080832073ffffffffffffffffffffffffffffffffffffffff8616845290915290205460ff166108ee5760008381526020858152604080832073ffffffffffffffffffffffffffffffffffffffff8681168086529184529382902080547fffffffffffffffffffffffffffffffffffffffffffffffffffffffffffffff00166001179055815187815292830152918316918101919091527f2f8788117e7eff1d82e926ec794901d17c78024a50270940304540a733656f0d906060015b60405180910390a150505050565b36600061076361334a565b6000467f8b73c3c69bb8fe3d512ecc4cf759cc79239f7b179b0ffacaa9a75d522b39400f61162c61066861102a565b80516020918201206040805192830193909352918101919091527fc89efdaa54c0f20c7adf612882df0950f5a951637e0307cdcb4c672f298b8bc66060820152608081018290523060a082015260c0016040516020818303038152906040528051906020012091505090565b73ffffffffffffffffffffffffffffffffffffffff82166116fd576040517ff7e1ac0f00000000000000000000000000000000000000000000000000000000815273ffffffffffffffffffffffffffffffffffffffff84166004820152602401611187565b73ffffffffffffffffffffffffffffffffffffffff808416600090815260018601602090815260408083209386168352929052205481156117dc578082018181116117a2576040517f93bc2ff100000000000000000000000000000000000000000000000000000000815273ffffffffffffffffffffffffffffffffffffffff8087166004830152851660248201526044810183905260648101849052608401611187565b73ffffffffffffffffffffffffffffffffffffffff8086166000908152600188016020908152604080832093881683529290522081905590505b8273ffffffffffffffffffffffffffffffffffffffff168473ffffffffffffffffffffffffffffffffffffffff167f8c5be1e5ebec7d5bd14f71427d1e84f3dd0314c0f7b2291e5b200ac8c7c3b9258360405161183b91815260200190565b60405180910390a35050505050565b60008061065560017ff41bf6a5db26bffdfab174dcf66b31fbba8fdb7e3db040721ce1e62d61839ceb6140cc565b60008281526020848152604080832073ffffffffffffffffffffffffffffffffffffffff8516845290915290205460ff1661073c576040517f7aa728820000000000000000000000000000000000000000000000000000000081526004810183905273ffffffffffffffffffffffffffffffffffffffff82166024820152604401611187565b73ffffffffffffffffffffffffffffffffffffffff821661194b576040517f92fd9c8f00000000000000000000000000000000000000000000000000000000815260040160405180910390fd5b80156119ce57600283015481810181811161199c576040517f0366a5f60000000000000000000000000000000000000000000000000000000081526004810183905260248101849052604401611187565b60028501555073ffffffffffffffffffffffffffffffffffffffff821660009081526020849052604090208054820190555b60405181815273ffffffffffffffffffffffffffffffffffffffff8316906000907fddf252ad1be2c89b69c2b068fc378daa952ba7f163c4a11628f55a4df523b3ef906020015b60405180910390a3505050565b8015611ae35773ffffffffffffffffffffffffffffffffffffffff8216600090815260208490526040902054818103818110611ab0576040517fe450d38c00000000000000000000000000000000000000000000000000000000815273ffffffffffffffffffffffffffffffffffffffff851660048201526024810183905260448101849052606401611187565b73ffffffffffffffffffffffffffffffffffffffff84166000908152602086905260409020555060028301805482900390555b60405181815260009073ffffffffffffffffffffffffffffffffffffffff8416907fddf252ad1be2c89b69c2b068fc378daa952ba7f163c4a11628f55a4df523b3ef90602001611a15565b82818114611b68576040517f6582533600000000000000000000000000000000000000000000000000000000815260040160405180910390fd5b80600003611b765750610d13565b73ffffffffffffffffffffffffffffffffffffffff86166000908152602089905260408120549080805b848114611dfa576000898983818110611bbb57611bbb61409d565b9050602002016020810190611bd09190613d7d565b905073ffffffffffffffffffffffffffffffffffffffff8116611c37576040517f754f425b00000000000000000000000000000000000000000000000000000000815273ffffffffffffffffffffffffffffffffffffffff8c166004820152602401611187565b6000888884818110611c4b57611c4b61409d565b90506020020135905080600014611d8957848101858111611c98576040517fdedd834100000000000000000000000000000000000000000000000000000000815260040160405180910390fd5b8095508273ffffffffffffffffffffffffffffffffffffffff168d73ffffffffffffffffffffffffffffffffffffffff1614611d2257818f60000160008573ffffffffffffffffffffffffffffffffffffffff1673ffffffffffffffffffffffffffffffffffffffff16815260200190815260200160002060008282540192505081905550611d87565b86821115611d82576040517fe450d38c00000000000000000000000000000000000000000000000000000000815273ffffffffffffffffffffffffffffffffffffffff8e1660048201526024810188905260448101839052606401611187565b938101935b505b8173ffffffffffffffffffffffffffffffffffffffff168c73ffffffffffffffffffffffffffffffffffffffff167fddf252ad1be2c89b69c2b068fc378daa952ba7f163c4a11628f55a4df523b3ef83604051611de891815260200190565b60405180910390a35050600101611ba0565b508115801590611e0a5750808214155b15611e9c57818303838110611e71576040517fe450d38c00000000000000000000000000000000000000000000000000000000815273ffffffffffffffffffffffffffffffffffffffff8b1660048201526024810185905260448101849052606401611187565b73ffffffffffffffffffffffffffffffffffffffff8a16600090815260208d90526040902090820190555b8973ffffffffffffffffffffffffffffffffffffffff168973ffffffffffffffffffffffffffffffffffffffff1614611edb57611edb8b8a8c85612618565b5050505050505050505050565b815181518114611f24576040517f6582533600000000000000000000000000000000000000000000000000000000815260040160405180910390fd5b80600003611f325750505050565b6000805b8281146120a9576000858281518110611f5157611f5161409d565b60200260200101519050600073ffffffffffffffffffffffffffffffffffffffff168173ffffffffffffffffffffffffffffffffffffffff1603611fc1576040517f92fd9c8f00000000000000000000000000000000000000000000000000000000815260040160405180910390fd5b6000858381518110611fd557611fd561409d565b602002602001015190508060001461205157838101848111612023576040517f5542ae7c00000000000000000000000000000000000000000000000000000000815260040160405180910390fd5b73ffffffffffffffffffffffffffffffffffffffff8316600090815260208a90526040902080548301905593505b60405181815273ffffffffffffffffffffffffffffffffffffffff8316906000907fddf252ad1be2c89b69c2b068fc378daa952ba7f163c4a11628f55a4df523b3ef9060200160405180910390a35050600101611f36565b508015610e5d5760028501548181018181116120fb576040517f0366a5f60000000000000000000000000000000000000000000000000000000081526004810183905260248101849052604401611187565b6002870155505050505050565b6040805173ffffffffffffffffffffffffffffffffffffffff8416602482015260448082018490528251808303909101815260649091019091526020810180517bffffffffffffffffffffffffffffffffffffffffffffffffffffffff167fa9059cbb0000000000000000000000000000000000000000000000000000000017905261073c9084906134b4565b8273ffffffffffffffffffffffffffffffffffffffff168273ffffffffffffffffffffffffffffffffffffffff16146121d4576121d484838584612618565b6108ee848383611a22565b60008061065560017f93fe0ff7226b064a4a8f0b09910762afb4bc2441835792c021ffd78cd513011e6140cc565b82818114612247576040517f6582533600000000000000000000000000000000000000000000000000000000815260040160405180910390fd5b806000036122555750610f1a565b73ffffffffffffffffffffffffffffffffffffffff86166000908152602088905260408120549080805b8481146124b557600089898381811061229a5761229a61409d565b90506020020160208101906122af9190613d7d565b905073ffffffffffffffffffffffffffffffffffffffff8116612316576040517f754f425b00000000000000000000000000000000000000000000000000000000815273ffffffffffffffffffffffffffffffffffffffff8c166004820152602401611187565b600088888481811061232a5761232a61409d565b9050602002013590508060001461244457848101858111612377576040517fdedd834100000000000000000000000000000000000000000000000000000000815260040160405180910390fd5b8095508273ffffffffffffffffffffffffffffffffffffffff168d73ffffffffffffffffffffffffffffffffffffffff16146123dd5773ffffffffffffffffffffffffffffffffffffffff8316600090815260208f905260409020805483019055612442565b8682111561243d576040517fe450d38c00000000000000000000000000000000000000000000000000000000815273ffffffffffffffffffffffffffffffffffffffff8e1660048201526024810188905260448101839052606401611187565b938101935b505b8173ffffffffffffffffffffffffffffffffffffffff168c73ffffffffffffffffffffffffffffffffffffffff167fddf252ad1be2c89b69c2b068fc378daa952ba7f163c4a11628f55a4df523b3ef836040516124a391815260200190565b60405180910390a3505060010161227f565b5081158015906124c55750808214155b156125575781830383811061252c576040517fe450d38c00000000000000000000000000000000000000000000000000000000815273ffffffffffffffffffffffffffffffffffffffff8b1660048201526024810185905260448101849052606401611187565b73ffffffffffffffffffffffffffffffffffffffff8a16600090815260208c90526040902090820190555b50505050505050505050565b61256e838284611878565b60008181526020848152604080832073ffffffffffffffffffffffffffffffffffffffff86168085529083529281902080547fffffffffffffffffffffffffffffffffffffffffffffffffffffffffffffff0016905580518481529182018390528101919091527ff6391f5c32d9c69d2a47ea670b442974b53935d1edc7fd64eb21e047a839171b9060600160405180910390a1505050565b606081600101805461106990614106565b73ffffffffffffffffffffffffffffffffffffffff821661267d576040517ff7e1ac0f00000000000000000000000000000000000000000000000000000000815273ffffffffffffffffffffffffffffffffffffffff84166004820152602401611187565b73ffffffffffffffffffffffffffffffffffffffff80841660009081526001860160209081526040808320938616835292905220547fffffffffffffffffffffffffffffffffffffffffffffffffffffffffffffffff81148015906126e157508115155b156117dc578181038181106117a2576040517f137ad6ab00000000000000000000000000000000000000000000000000000000815273ffffffffffffffffffffffffffffffffffffffff8087166004830152851660248201526044810183905260648101849052608401611187565b73ffffffffffffffffffffffffffffffffffffffff82166127b5576040517f754f425b00000000000000000000000000000000000000000000000000000000815273ffffffffffffffffffffffffffffffffffffffff84166004820152602401611187565b80156128b05773ffffffffffffffffffffffffffffffffffffffff8316600090815260208590526040902054818103818110612843576040517fe450d38c00000000000000000000000000000000000000000000000000000000815273ffffffffffffffffffffffffffffffffffffffff861660048201526024810183905260448101849052606401611187565b8373ffffffffffffffffffffffffffffffffffffffff168573ffffffffffffffffffffffffffffffffffffffff16146128ad5773ffffffffffffffffffffffffffffffffffffffff8086166000908152602088905260408082208490559186168152208054840190555b50505b8173ffffffffffffffffffffffffffffffffffffffff168373ffffffffffffffffffffffffffffffffffffffff167fddf252ad1be2c89b69c2b068fc378daa952ba7f163c4a11628f55a4df523b3ef836040516111f491815260200190565b61291c878787878761140a565b73ffffffffffffffffffffffffffffffffffffffff84163b15610d1357610d138686868686868080601f0160208091040260200160405190810160405280939291908181526020018383808284376000920191909152506135c392505050565b73ffffffffffffffffffffffffffffffffffffffff87166129c9576040517fa974697600000000000000000000000000000000000000000000000000000000815260040160405180910390fd5b83421115612a06576040517fea2b6f5800000000000000000000000000000000000000000000000000000000815260048101859052602401611187565b73ffffffffffffffffffffffffffffffffffffffff878116600081815260208b8152604080832080546001810190915581517f6e71edae12b1b97f4d1f60370fef10105fa2faae0126114a169c64845d6126c98185015280830195909552948b166060850152608084018a905260a084019490945260c08084018990528451808503909101815260e09093019093528151919092012090612aa56115fd565b6040517f19010000000000000000000000000000000000000000000000000000000000006020820152602281019190915260428101839052606201604080517fffffffffffffffffffffffffffffffffffffffffffffffffffffffffffffffe08184030181528282528051602091820120600080855291840180845281905260ff89169284019290925260608301879052608083018690529092509060019060a0016020604051602081039080840390855afa158015612b69573d6000803e3d6000fd5b5050506020604051035190508973ffffffffffffffffffffffffffffffffffffffff168173ffffffffffffffffffffffffffffffffffffffff1614612bda576040517f822a64c800000000000000000000000000000000000000000000000000000000815260040160405180910390fd5b505050610a1f8787876106896110f8565b60008381526020858152604080832073ffffffffffffffffffffffffffffffffffffffff8616845290915290205460ff16156108ee5760008381526020858152604080832073ffffffffffffffffffffffffffffffffffffffff8681168086529184529382902080547fffffffffffffffffffffffffffffffffffffffffffffffffffffffffffffff00169055815187815292830152918316918101919091527ff6391f5c32d9c69d2a47ea670b442974b53935d1edc7fd64eb21e047a839171b906060016115e4565b826108ee8284836141ce565b612ccd86868686612750565b73ffffffffffffffffffffffffffffffffffffffff84163b15610f1a57610f1a8586868686868080601f0160208091040260200160405190810160405280939291908181526020018383808284376000920191909152506135c392505050565b825473ffffffffffffffffffffffffffffffffffffffff9081169083168114612d9a576040517f2ef4875e00000000000000000000000000000000000000000000000000000000815273ffffffffffffffffffffffffffffffffffffffff84166004820152602401611187565b8173ffffffffffffffffffffffffffffffffffffffff168173ffffffffffffffffffffffffffffffffffffffff16146108ee5783547fffffffffffffffffffffffff00000000000000000000000000000000000000001673ffffffffffffffffffffffffffffffffffffffff8381169182178655604051908316907f8be0079c531659141344cd1fd0a4f28419497f9722a3daafe3b4186f6b6457e090600090a350505050565b612e76612e6f60017f5b388d90dc1312ba799f321972f13311234fa1163bcabec7cf66101c4876eb846140cc565b60016136d1565b6107f0828261371d565b6000612e8a610f22565b9050612eb8817f36372b070000000000000000000000000000000000000000000000000000000060016137d3565b610a94817f9d0751860000000000000000000000000000000000000000000000000000000060016137d3565b612f197fc05327e6000000000000000000000000000000000000000000000000000000006001612f12610f22565b91906137d3565b565b612f197f53f41a97000000000000000000000000000000000000000000000000000000006001612f12610f22565b612f197f28963e1e000000000000000000000000000000000000000000000000000000006001612f12610f22565b612f197f20c07ed1000000000000000000000000000000000000000000000000000000006001612f12610f22565b612fd3612e6f60017fd217496980d1cb14720b20a80af36676bbece8e5feeb5d8970a9681a2c76bb756140cc565b85612fdf8587836141ce565b5060018601612fef8385836141ce565b506002860180547fffffffffffffffffffffffffffffffffffffffffffffffffffffffffffffff001660ff8316179055610f1a7fa219a025000000000000000000000000000000000000000000000000000000006001612f12610f22565b612f197f3c130d90000000000000000000000000000000000000000000000000000000006001612f12610f22565b612f197f9d8ff7da000000000000000000000000000000000000000000000000000000006001612f12610f22565b80471015613113576040517f08c379a000000000000000000000000000000000000000000000000000000000815260206004820152601d60248201527f416464726573733a20696e73756666696369656e742062616c616e63650000006044820152606401611187565b60008273ffffffffffffffffffffffffffffffffffffffff168260405160006040518083038185875af1925050503d806000811461316d576040519150601f19603f3d011682016040523d82523d6000602084013e613172565b606091505b505090508061073c576040517f08c379a000000000000000000000000000000000000000000000000000000000815260206004820152603a60248201527f416464726573733a20756e61626c6520746f2073656e642076616c75652c207260448201527f6563697069656e74206d617920686176652072657665727465640000000000006064820152608401611187565b6000333214806132135750601836105b1561321d57503390565b7fffffffffffffffffffffffffffffffffffffffffffffffffffffffffffffffec36013560601c7f000000000000000000000000000000000000000000000000000000000000000073ffffffffffffffffffffffffffffffffffffffff1633148061333957506040517f8929a8ca00000000000000000000000000000000000000000000000000000000815273ffffffffffffffffffffffffffffffffffffffff82811660048301523360248301527f00000000000000000000000000000000000000000000000000000000000000001690638929a8ca90604401602060405180830381865afa158015613315573d6000803e3d6000fd5b505050506040513d601f19601f8201168201806040525081019061333991906142e8565b1561334357919050565b3391505090565b3660003332148061335b5750601836105b156133695750600091369150565b3373ffffffffffffffffffffffffffffffffffffffff7f000000000000000000000000000000000000000000000000000000000000000016148061349e575073ffffffffffffffffffffffffffffffffffffffff7f000000000000000000000000000000000000000000000000000000000000000016638929a8ca367fffffffffffffffffffffffffffffffffffffffffffffffffffffffffffffffec013560601c6040517fffffffff0000000000000000000000000000000000000000000000000000000060e084901b16815273ffffffffffffffffffffffffffffffffffffffff9091166004820152336024820152604401602060405180830381865afa15801561347a573d6000803e3d6000fd5b505050506040513d601f19601f8201168201806040525081019061349e91906142e8565b156134ab576107636138af565b50600091369150565b6000613516826040518060400160405280602081526020017f5361666545524332303a206c6f772d6c6576656c2063616c6c206661696c65648152508573ffffffffffffffffffffffffffffffffffffffff166138e09092919063ffffffff16565b905080516000148061353757508080602001905181019061353791906142e8565b61073c576040517f08c379a000000000000000000000000000000000000000000000000000000000815260206004820152602a60248201527f5361666545524332303a204552433230206f7065726174696f6e20646964206e60448201527f6f742073756363656564000000000000000000000000000000000000000000006064820152608401611187565b6040517f4fc35859000000000000000000000000000000000000000000000000000000008082529073ffffffffffffffffffffffffffffffffffffffff851690634fc358599061361d90899089908890889060040161430a565b6020604051808303816000875af115801561363c573d6000803e3d6000fd5b505050506040513d601f19601f820116820180604052508101906136609190614353565b7fffffffff000000000000000000000000000000000000000000000000000000001614610e5d576040517f6d44973600000000000000000000000000000000000000000000000000000000815273ffffffffffffffffffffffffffffffffffffffff84166004820152602401611187565b81548290828110613718576040517fbf0c18ec0000000000000000000000000000000000000000000000000000000081526004810182905260248101849052604401611187565b505550565b73ffffffffffffffffffffffffffffffffffffffff8116156137a55781547fffffffffffffffffffffffff00000000000000000000000000000000000000001673ffffffffffffffffffffffffffffffffffffffff821690811783556040516000907f8be0079c531659141344cd1fd0a4f28419497f9722a3daafe3b4186f6b6457e0908290a35b6107f07f7f5828d0000000000000000000000000000000000000000000000000000000006001612f12610f22565b7c01000000000000000000000000000000000000000000000000000000007fffffffff0000000000000000000000000000000000000000000000000000000083160161384b576040517f72c683bb00000000000000000000000000000000000000000000000000000000815260040160405180910390fd5b7fffffffff00000000000000000000000000000000000000000000000000000000919091166000908152602092909252604090912080547fffffffffffffffffffffffffffffffffffffffffffffffffffffffffffffff0016911515919091179055565b3660006107637fffffffffffffffffffffffffffffffffffffffffffffffffffffffffffffffec8301828481614370565b60606106d58484600085856000808673ffffffffffffffffffffffffffffffffffffffff168587604051613914919061439a565b60006040518083038185875af1925050503d8060008114613951576040519150601f19603f3d011682016040523d82523d6000602084013e613956565b606091505b509150915061396787838387613972565b979650505050505050565b60608315613a08578251600003613a015773ffffffffffffffffffffffffffffffffffffffff85163b613a01576040517f08c379a000000000000000000000000000000000000000000000000000000000815260206004820152601d60248201527f416464726573733a2063616c6c20746f206e6f6e2d636f6e74726163740000006044820152606401611187565b50816106d5565b6106d58383815115613a1d5781518083602001fd5b806040517f08c379a00000000000000000000000000000000000000000000000000000000081526004016111879190613b0a565b7fffffffff0000000000000000000000000000000000000000000000000000000081168114610a9457600080fd5b600060208284031215613a9157600080fd5b8135610b0281613a51565b60005b83811015613ab7578181015183820152602001613a9f565b50506000910152565b60008151808452613ad8816020860160208601613a9c565b601f017fffffffffffffffffffffffffffffffffffffffffffffffffffffffffffffffe0169290920160200192915050565b602081526000610b026020830184613ac0565b73ffffffffffffffffffffffffffffffffffffffff81168114610a9457600080fd5b60008060408385031215613b5257600080fd5b8235613b5d81613b1d565b946020939093013593505050565b60008083601f840112613b7d57600080fd5b50813567ffffffffffffffff811115613b9557600080fd5b6020830191508360208260051b8501011115613bb057600080fd5b9250929050565b60008060008060408587031215613bcd57600080fd5b843567ffffffffffffffff80821115613be557600080fd5b613bf188838901613b6b565b90965094506020870135915080821115613c0a57600080fd5b50613c1787828801613b6b565b95989497509550505050565b600080600060608486031215613c3857600080fd5b8335613c4381613b1d565b92506020840135613c5381613b1d565b929592945050506040919091013590565b60008060408385031215613c7757600080fd5b823591506020830135613c8981613b1d565b809150509250929050565b60208152816020820152818360408301376000818301604090810191909152601f9092017fffffffffffffffffffffffffffffffffffffffffffffffffffffffffffffffe0160101919050565b600060208284031215613cf357600080fd5b5035919050565b600080600080600060608688031215613d1257600080fd5b8535613d1d81613b1d565b9450602086013567ffffffffffffffff80821115613d3a57600080fd5b613d4689838a01613b6b565b90965094506040880135915080821115613d5f57600080fd5b50613d6c88828901613b6b565b969995985093965092949392505050565b600060208284031215613d8f57600080fd5b8135610b0281613b1d565b60008060008060008060608789031215613db357600080fd5b863567ffffffffffffffff80821115613dcb57600080fd5b613dd78a838b01613b6b565b90985096506020890135915080821115613df057600080fd5b613dfc8a838b01613b6b565b90965094506040890135915080821115613e1557600080fd5b50613e2289828a01613b6b565b979a9699509497509295939492505050565b60008083601f840112613e4657600080fd5b50813567ffffffffffffffff811115613e5e57600080fd5b602083019150836020828501011115613bb057600080fd5b600080600080600060808688031215613e8e57600080fd5b8535613e9981613b1d565b94506020860135613ea981613b1d565b935060408601359250606086013567ffffffffffffffff811115613ecc57600080fd5b613d6c88828901613e34565b803560ff81168114613ee957600080fd5b919050565b600080600080600080600060e0888a031215613f0957600080fd5b8735613f1481613b1d565b96506020880135613f2481613b1d565b95506040880135945060608801359350613f4060808901613ed8565b925060a0880135915060c0880135905092959891949750929550565b60008060408385031215613f6f57600080fd5b8235613f7a81613b1d565b91506020830135613c8981613b1d565b60008060208385031215613f9d57600080fd5b823567ffffffffffffffff811115613fb457600080fd5b613fc085828601613e34565b90969095509350505050565b60008060008060608587031215613fe257600080fd5b8435613fed81613b1d565b935060208501359250604085013567ffffffffffffffff81111561401057600080fd5b613c1787828801613e34565b60008060008060006060868803121561403457600080fd5b853567ffffffffffffffff8082111561404c57600080fd5b61405889838a01613e34565b9097509550602088013591508082111561407157600080fd5b5061407e88828901613e34565b9094509250614091905060408701613ed8565b90509295509295909350565b7f4e487b7100000000000000000000000000000000000000000000000000000000600052603260045260246000fd5b81810381811115610655577f4e487b7100000000000000000000000000000000000000000000000000000000600052601160045260246000fd5b600181811c9082168061411a57607f821691505b602082108103614153577f4e487b7100000000000000000000000000000000000000000000000000000000600052602260045260246000fd5b50919050565b7f4e487b7100000000000000000000000000000000000000000000000000000000600052604160045260246000fd5b601f82111561073c57600081815260208120601f850160051c810160208610156141af5750805b601f850160051c820191505b81811015610f1a578281556001016141bb565b67ffffffffffffffff8311156141e6576141e6614159565b6141fa836141f48354614106565b83614188565b6000601f84116001811461424c57600085156142165750838201355b7fffffffffffffffffffffffffffffffffffffffffffffffffffffffffffffffff600387901b1c1916600186901b178355610e5d565b6000838152602090207fffffffffffffffffffffffffffffffffffffffffffffffffffffffffffffffe0861690835b8281101561429b578685013582556020948501946001909201910161427b565b50868210156142d6577fffffffffffffffffffffffffffffffffffffffffffffffffffffffffffffffff60f88860031b161c19848701351681555b505060018560011b0183555050505050565b6000602082840312156142fa57600080fd5b81518015158114610b0257600080fd5b600073ffffffffffffffffffffffffffffffffffffffff8087168352808616602084015250836040830152608060608301526143496080830184613ac0565b9695505050505050565b60006020828403121561436557600080fd5b8151610b0281613a51565b6000808585111561438057600080fd5b8386111561438d57600080fd5b5050820193919092039150565b600082516143ac818460208701613a9c565b919091019291505056fea2646970667358221220c6703f976a17256f33fd18958765fc1a574abaa10091f0b9a881bb0bdf8583be64736f6c63430008150033",
  "linkReferences": {},
  "deployedLinkReferences": {}
}