{
  "_format": "hh-sol-artifact-1",
  "contractName": "ERC1155BurnableFacetMock",
  "sourceName": "contracts/mocks/token/ERC1155/facets/ERC1155BurnableFacetMock.sol",
  "abi": [
    {
      "inputs": [
        {
          "internalType": "contract IForwarderRegistry",
          "name": "forwarderRegistry",
          "type": "address"
        }
      ],
      "stateMutability": "nonpayable",
      "type": "constructor"
    },
    {
      "inputs": [],
      "name": "__msgData",
      "outputs": [
        {
          "internalType": "bytes",
          "name": "",
          "type": "bytes"
        }
      ],
      "stateMutability": "view",
      "type": "function"
    },
    {
      "inputs": [
        {
          "internalType": "address",
          "name": "from",
          "type": "address"
        },
        {
          "internalType": "uint256[]",
          "name": "ids",
          "type": "uint256[]"
        },
        {
          "internalType": "uint256[]",
          "name": "values",
          "type": "uint256[]"
        }
      ],
      "name": "batchBurnFrom",
      "outputs": [],
      "stateMutability": "nonpayable",
      "type": "function"
    },
    {
      "inputs": [
        {
          "internalType": "address",
          "name": "from",
          "type": "address"
        },
        {
          "internalType": "uint256",
          "name": "id",
          "type": "uint256"
        },
        {
          "internalType": "uint256",
          "name": "value",
          "type": "uint256"
        }
      ],
      "name": "burnFrom",
      "outputs": [],
      "stateMutability": "nonpayable",
      "type": "function"
    },
    {
      "inputs": [],
      "name": "initERC1155BurnableStorage",
      "outputs": [],
      "stateMutability": "nonpayable",
      "type": "function"
    }
  ],
  "bytecode": "0x60a060405234801561001057600080fd5b50604051610e4a380380610e4a83398101604081905261002f91610040565b6001600160a01b0316608052610070565b60006020828403121561005257600080fd5b81516001600160a01b038116811461006957600080fd5b9392505050565b608051610daa6100a06000396000818161058f0152818161062f01528181610811015261087b0152610daa6000f3fe608060405234801561001057600080fd5b506004361061004c5760003560e01c8063124d91e51461005157806331e66e1e14610066578063641ff7d914610085578063805349341461008d575b600080fd5b61006461005f366004610afe565b6100a0565b005b61006e6100c4565b60405161007c929190610b31565b60405180910390f35b6100646100d7565b61006461009b366004610bca565b6100fa565b6100bf6100ab610184565b8484846100b6610193565b939291906101c7565b505050565b3660006100cf6102a9565b915091509091565b6100f06100e2610184565b6100ea6102b4565b906102e2565b6100f8610369565b565b61017d610105610184565b8686868080602002602001604051908101604052809392919081815260200183836020028082843760009201919091525050604080516020808a028281018201909352898252909350899250889182918501908490808284376000920191909152506101749250610193915050565b9392919061039e565b5050505050565b600061018e610553565b905090565b6000806101c160017f5ccf5846fa27a68fafc8e588671a68f5e67c2f9b56af4263806a4d71735e8613610c4b565b92915050565b6101d28584866106ab565b61023d576040517f08c379a000000000000000000000000000000000000000000000000000000000815260206004820152601c60248201527f455243313135353a206e6f6e2d617070726f7665642073656e6465720000000060448201526064015b60405180910390fd5b61024985848484610723565b604080518381526020810183905260009173ffffffffffffffffffffffffffffffffffffffff86811692908816917fc3d58168c5ae7397731d063d5bbf3d657854427343f4c083240f7aacaa2d0f62910160405180910390a45050505050565b3660006100cf6107f9565b6000806101c160017fb53127684a568b3173ae13b9f8a6016e243e63b6e8ee1178d6a717850b5d6104610c4b565b815473ffffffffffffffffffffffffffffffffffffffff828116911614610365576040517f08c379a000000000000000000000000000000000000000000000000000000000815260206004820152601960248201527f50726f787941646d696e3a206e6f74207468652061646d696e000000000000006044820152606401610234565b5050565b6100f87f921ed8d100000000000000000000000000000000000000000000000000000000600161039761097d565b91906109ab565b81518151811461040a576040517f08c379a000000000000000000000000000000000000000000000000000000000815260206004820152601c60248201527f455243313135353a20696e636f6e73697374656e7420617272617973000000006044820152606401610234565b6104158685876106ab565b61047b576040517f08c379a000000000000000000000000000000000000000000000000000000000815260206004820152601c60248201527f455243313135353a206e6f6e2d617070726f7665642073656e646572000000006044820152606401610234565b60005b8181146104cb576104c3878686848151811061049c5761049c610c89565b60200260200101518685815181106104b6576104b6610c89565b6020026020010151610723565b60010161047e565b50600073ffffffffffffffffffffffffffffffffffffffff168473ffffffffffffffffffffffffffffffffffffffff168673ffffffffffffffffffffffffffffffffffffffff167f4a39dc06d4c0dbc64b70af90fd698a233a518aa5d07e595d983b8c0526c8f7fb8686604051610543929190610cf3565b60405180910390a4505050505050565b60003332810361056257919050565b6000367fffffffffffffffffffffffffffffffffffffffffffffffffffffffffffffffec013560601c90507f000000000000000000000000000000000000000000000000000000000000000073ffffffffffffffffffffffffffffffffffffffff168273ffffffffffffffffffffffffffffffffffffffff16148061069a57506040517fe60125d600000000000000000000000000000000000000000000000000000000815273ffffffffffffffffffffffffffffffffffffffff828116600483015283811660248301527f0000000000000000000000000000000000000000000000000000000000000000169063e60125d690604401602060405180830381865afa158015610676573d6000803e3d6000fd5b505050506040513d601f19601f8201168201806040525081019061069a9190610d21565b156106a55792915050565b50919050565b60008173ffffffffffffffffffffffffffffffffffffffff168373ffffffffffffffffffffffffffffffffffffffff16148061071b575073ffffffffffffffffffffffffffffffffffffffff808416600090815260018601602090815260408083209386168352929052205460ff165b949350505050565b80156107f35760008281526020858152604080832073ffffffffffffffffffffffffffffffffffffffff871684529091529020548181038181106107c3576040517f08c379a000000000000000000000000000000000000000000000000000000000815260206004820152601d60248201527f455243313135353a20696e73756666696369656e742062616c616e63650000006044820152606401610234565b60008481526020878152604080832073ffffffffffffffffffffffffffffffffffffffff89168452909152902055505b50505050565b3660003332810361080f57506000923692509050565b7f000000000000000000000000000000000000000000000000000000000000000073ffffffffffffffffffffffffffffffffffffffff168173ffffffffffffffffffffffffffffffffffffffff16148061095c575073ffffffffffffffffffffffffffffffffffffffff7f00000000000000000000000000000000000000000000000000000000000000001663e60125d6367fffffffffffffffffffffffffffffffffffffffffffffffffffffffffffffffec013560601c6040517fffffffff0000000000000000000000000000000000000000000000000000000060e084901b16815273ffffffffffffffffffffffffffffffffffffffff91821660048201529084166024820152604401602060405180830381865afa158015610938573d6000803e3d6000fd5b505050506040513d601f19601f8201168201806040525081019061095c9190610d21565b1561097257610969610ab7565b92509250509091565b506000923692509050565b6000806101c160017fca9d3e17f264b0f3984e2634e94adb37fa3e6a8103f06aeae6fa59e21c769f5e610c4b565b7c01000000000000000000000000000000000000000000000000000000007fffffffff00000000000000000000000000000000000000000000000000000000831601610a53576040517f08c379a000000000000000000000000000000000000000000000000000000000815260206004820152601f60248201527f496e74657266616365446574656374696f6e3a2077726f6e672076616c7565006044820152606401610234565b7fffffffff00000000000000000000000000000000000000000000000000000000919091166000908152602092909252604090912080547fffffffffffffffffffffffffffffffffffffffffffffffffffffffffffffff0016911515919091179055565b366000808083610ac8601482610c4b565b926100cf93929190610d4a565b803573ffffffffffffffffffffffffffffffffffffffff81168114610af957600080fd5b919050565b600080600060608486031215610b1357600080fd5b610b1c84610ad5565b95602085013595506040909401359392505050565b60208152816020820152818360408301376000818301604090810191909152601f9092017fffffffffffffffffffffffffffffffffffffffffffffffffffffffffffffffe0160101919050565b60008083601f840112610b9057600080fd5b50813567ffffffffffffffff811115610ba857600080fd5b6020830191508360208260051b8501011115610bc357600080fd5b9250929050565b600080600080600060608688031215610be257600080fd5b610beb86610ad5565b9450602086013567ffffffffffffffff80821115610c0857600080fd5b610c1489838a01610b7e565b90965094506040880135915080821115610c2d57600080fd5b50610c3a88828901610b7e565b969995985093965092949392505050565b600082821015610c84577f4e487b7100000000000000000000000000000000000000000000000000000000600052601160045260246000fd5b500390565b7f4e487b7100000000000000000000000000000000000000000000000000000000600052603260045260246000fd5b600081518084526020808501945080840160005b83811015610ce857815187529582019590820190600101610ccc565b509495945050505050565b604081526000610d066040830185610cb8565b8281036020840152610d188185610cb8565b95945050505050565b600060208284031215610d3357600080fd5b81518015158114610d4357600080fd5b9392505050565b60008085851115610d5a57600080fd5b83861115610d6757600080fd5b505082019391909203915056fea26469706673582212208cd9e9454bc6725711f708698ad6cdc54bd24566468f237c49360e5b7d47caec64736f6c634300080f0033",
  "linkReferences": {},
  "deployedLinkReferences": {}
}