{
  "_format": "hh-sol-artifact-1",
  "contractName": "ERC1155BurnableFacetMock",
  "sourceName": "contracts/mocks/token/ERC1155/facets/ERC1155BurnableFacetMock.sol",
  "abi": [
    {
      "inputs": [
        {
          "internalType": "contract IForwarderRegistry",
          "name": "forwarderRegistry",
          "type": "address"
        }
      ],
      "stateMutability": "nonpayable",
      "type": "constructor"
    },
    {
      "inputs": [],
      "name": "__msgData",
      "outputs": [
        {
          "internalType": "bytes",
          "name": "",
          "type": "bytes"
        }
      ],
      "stateMutability": "view",
      "type": "function"
    },
    {
      "inputs": [
        {
          "internalType": "address",
          "name": "from",
          "type": "address"
        },
        {
          "internalType": "uint256[]",
          "name": "ids",
          "type": "uint256[]"
        },
        {
          "internalType": "uint256[]",
          "name": "values",
          "type": "uint256[]"
        }
      ],
      "name": "batchBurnFrom",
      "outputs": [],
      "stateMutability": "nonpayable",
      "type": "function"
    },
    {
      "inputs": [
        {
          "internalType": "address",
          "name": "from",
          "type": "address"
        },
        {
          "internalType": "uint256",
          "name": "id",
          "type": "uint256"
        },
        {
          "internalType": "uint256",
          "name": "value",
          "type": "uint256"
        }
      ],
      "name": "burnFrom",
      "outputs": [],
      "stateMutability": "nonpayable",
      "type": "function"
    },
    {
      "inputs": [],
      "name": "initERC1155BurnableStorage",
      "outputs": [],
      "stateMutability": "nonpayable",
      "type": "function"
    }
  ],
  "bytecode": "0x60a060405234801561001057600080fd5b50604051610eee380380610eee83398101604081905261002f91610040565b6001600160a01b0316608052610070565b60006020828403121561005257600080fd5b81516001600160a01b038116811461006957600080fd5b9392505050565b608051610e4e6100a060003960008181610588015281816106280152818161087501526108df0152610e4e6000f3fe608060405234801561001057600080fd5b506004361061004c5760003560e01c8063124d91e51461005157806331e66e1e14610066578063641ff7d914610085578063805349341461008d575b600080fd5b61006461005f366004610b62565b6100a0565b005b61006e6100c4565b60405161007c929190610b95565b60405180910390f35b6100646100d7565b61006461009b366004610c2e565b6100fa565b6100bf6100ab610184565b8484846100b6610193565b939291906101c7565b505050565b3660006100cf6102aa565b915091509091565b6100f06100e2610184565b6100ea6102b5565b906102e3565b6100f861036a565b565b61017d610105610184565b8686868080602002602001604051908101604052809392919081815260200183836020028082843760009201919091525050604080516020808a028281018201909352898252909350899250889182918501908490808284376000920191909152506101749250610193915050565b9392919061039f565b5050505050565b600061018e61054c565b905090565b6000806101c160017f5ccf5846fa27a68fafc8e588671a68f5e67c2f9b56af4263806a4d71735e8613610cde565b92915050565b6101d28584866106a4565b61023d576040517f08c379a000000000000000000000000000000000000000000000000000000000815260206004820152601c60248201527f455243313135353a206e6f6e2d617070726f7665642073656e6465720000000060448201526064015b60405180910390fd5b6102498584848461071c565b604080518381526020810183905260009173ffffffffffffffffffffffffffffffffffffffff86811692908816917fc3d58168c5ae7397731d063d5bbf3d657854427343f4c083240f7aacaa2d0f6291015b60405180910390a45050505050565b3660006100cf61085d565b6000806101c160017fb53127684a568b3173ae13b9f8a6016e243e63b6e8ee1178d6a717850b5d6104610cde565b815473ffffffffffffffffffffffffffffffffffffffff828116911614610366576040517f08c379a000000000000000000000000000000000000000000000000000000000815260206004820152601960248201527f50726f787941646d696e3a206e6f74207468652061646d696e000000000000006044820152606401610234565b5050565b6100f87f921ed8d10000000000000000000000000000000000000000000000000000000060016103986109e1565b9190610a0f565b805182511461040a576040517f08c379a000000000000000000000000000000000000000000000000000000000815260206004820152601c60248201527f455243313135353a20696e636f6e73697374656e7420617272617973000000006044820152606401610234565b6104158584866106a4565b61047b576040517f08c379a000000000000000000000000000000000000000000000000000000000815260206004820152601c60248201527f455243313135353a206e6f6e2d617070726f7665642073656e646572000000006044820152606401610234565b60005b825181146104d4576104c4868585848151811061049d5761049d610cf5565b60200260200101518585815181106104b7576104b7610cf5565b602002602001015161071c565b6104cd81610d24565b905061047e565b50600073ffffffffffffffffffffffffffffffffffffffff168373ffffffffffffffffffffffffffffffffffffffff168573ffffffffffffffffffffffffffffffffffffffff167f4a39dc06d4c0dbc64b70af90fd698a233a518aa5d07e595d983b8c0526c8f7fb858560405161029b929190610d97565b60003332810361055b57919050565b6000367fffffffffffffffffffffffffffffffffffffffffffffffffffffffffffffffec013560601c90507f000000000000000000000000000000000000000000000000000000000000000073ffffffffffffffffffffffffffffffffffffffff168273ffffffffffffffffffffffffffffffffffffffff16148061069357506040517fe60125d600000000000000000000000000000000000000000000000000000000815273ffffffffffffffffffffffffffffffffffffffff828116600483015283811660248301527f0000000000000000000000000000000000000000000000000000000000000000169063e60125d690604401602060405180830381865afa15801561066f573d6000803e3d6000fd5b505050506040513d601f19601f820116820180604052508101906106939190610dc5565b1561069e5792915050565b50919050565b60008173ffffffffffffffffffffffffffffffffffffffff168373ffffffffffffffffffffffffffffffffffffffff161480610714575073ffffffffffffffffffffffffffffffffffffffff808416600090815260018601602090815260408083209386168352929052205460ff165b949350505050565b80600003610786576040517f08c379a000000000000000000000000000000000000000000000000000000000815260206004820152601360248201527f455243313135353a207a65726f2076616c7565000000000000000000000000006044820152606401610234565b60008281526020858152604080832073ffffffffffffffffffffffffffffffffffffffff87168452909152812054906107bf8383610cde565b905081811061082a576040517f08c379a000000000000000000000000000000000000000000000000000000000815260206004820152601b60248201527f455243313135353a206e6f7420656e6f7567682062616c616e636500000000006044820152606401610234565b60009384526020958652604080852073ffffffffffffffffffffffffffffffffffffffff90961685529490955250502055565b3660003332810361087357506000923692509050565b7f000000000000000000000000000000000000000000000000000000000000000073ffffffffffffffffffffffffffffffffffffffff168173ffffffffffffffffffffffffffffffffffffffff1614806109c0575073ffffffffffffffffffffffffffffffffffffffff7f00000000000000000000000000000000000000000000000000000000000000001663e60125d6367fffffffffffffffffffffffffffffffffffffffffffffffffffffffffffffffec013560601c6040517fffffffff0000000000000000000000000000000000000000000000000000000060e084901b16815273ffffffffffffffffffffffffffffffffffffffff91821660048201529084166024820152604401602060405180830381865afa15801561099c573d6000803e3d6000fd5b505050506040513d601f19601f820116820180604052508101906109c09190610dc5565b156109d6576109cd610b1b565b92509250509091565b506000923692509050565b6000806101c160017fca9d3e17f264b0f3984e2634e94adb37fa3e6a8103f06aeae6fa59e21c769f5e610cde565b7c01000000000000000000000000000000000000000000000000000000007fffffffff00000000000000000000000000000000000000000000000000000000831601610ab7576040517f08c379a000000000000000000000000000000000000000000000000000000000815260206004820152601f60248201527f496e74657266616365446574656374696f6e3a2077726f6e672076616c7565006044820152606401610234565b7fffffffff00000000000000000000000000000000000000000000000000000000919091166000908152602092909252604090912080547fffffffffffffffffffffffffffffffffffffffffffffffffffffffffffffff0016911515919091179055565b366000808083610b2c601482610cde565b926100cf93929190610dee565b803573ffffffffffffffffffffffffffffffffffffffff81168114610b5d57600080fd5b919050565b600080600060608486031215610b7757600080fd5b610b8084610b39565b95602085013595506040909401359392505050565b60208152816020820152818360408301376000818301604090810191909152601f9092017fffffffffffffffffffffffffffffffffffffffffffffffffffffffffffffffe0160101919050565b60008083601f840112610bf457600080fd5b50813567ffffffffffffffff811115610c0c57600080fd5b6020830191508360208260051b8501011115610c2757600080fd5b9250929050565b600080600080600060608688031215610c4657600080fd5b610c4f86610b39565b9450602086013567ffffffffffffffff80821115610c6c57600080fd5b610c7889838a01610be2565b90965094506040880135915080821115610c9157600080fd5b50610c9e88828901610be2565b969995985093965092949392505050565b7f4e487b7100000000000000000000000000000000000000000000000000000000600052601160045260246000fd5b600082821015610cf057610cf0610caf565b500390565b7f4e487b7100000000000000000000000000000000000000000000000000000000600052603260045260246000fd5b60007fffffffffffffffffffffffffffffffffffffffffffffffffffffffffffffffff8203610d5557610d55610caf565b5060010190565b600081518084526020808501945080840160005b83811015610d8c57815187529582019590820190600101610d70565b509495945050505050565b604081526000610daa6040830185610d5c565b8281036020840152610dbc8185610d5c565b95945050505050565b600060208284031215610dd757600080fd5b81518015158114610de757600080fd5b9392505050565b60008085851115610dfe57600080fd5b83861115610e0b57600080fd5b505082019391909203915056fea2646970667358221220744545b2860cd68fcf385b48be8e07d4795196228957b76200c0d6cc8407768964736f6c634300080f0033",
  "linkReferences": {},
  "deployedLinkReferences": {}
}