{
  "_format": "hh-sol-artifact-1",
  "contractName": "DiamondLoupeFacet",
  "sourceName": "contracts/diamond/DiamondLoupeFacet.sol",
  "abi": [
    {
      "inputs": [
        {
          "internalType": "bytes4",
          "name": "functionSelector",
          "type": "bytes4"
        }
      ],
      "name": "facetAddress",
      "outputs": [
        {
          "internalType": "address",
          "name": "facetAddress_",
          "type": "address"
        }
      ],
      "stateMutability": "view",
      "type": "function"
    },
    {
      "inputs": [],
      "name": "facetAddresses",
      "outputs": [
        {
          "internalType": "address[]",
          "name": "facetAddresses_",
          "type": "address[]"
        }
      ],
      "stateMutability": "view",
      "type": "function"
    },
    {
      "inputs": [
        {
          "internalType": "address",
          "name": "facet_",
          "type": "address"
        }
      ],
      "name": "facetFunctionSelectors",
      "outputs": [
        {
          "internalType": "bytes4[]",
          "name": "facetFunctionSelectors_",
          "type": "bytes4[]"
        }
      ],
      "stateMutability": "view",
      "type": "function"
    },
    {
      "inputs": [],
      "name": "facets",
      "outputs": [
        {
          "components": [
            {
              "internalType": "address",
              "name": "facetAddress",
              "type": "address"
            },
            {
              "internalType": "bytes4[]",
              "name": "functionSelectors",
              "type": "bytes4[]"
            }
          ],
          "internalType": "struct IDiamondLoupe.Facet[]",
          "name": "facets_",
          "type": "tuple[]"
        }
      ],
      "stateMutability": "view",
      "type": "function"
    },
    {
      "inputs": [],
      "name": "initDiamondLoupeStorage",
      "outputs": [],
      "stateMutability": "nonpayable",
      "type": "function"
    }
  ],
  "bytecode": "0x608060405234801561001057600080fd5b506109f6806100206000396000f3fe608060405234801561001057600080fd5b50600436106100675760003560e01c80637a0ed627116100505780637a0ed62714610094578063adfca15e146100a9578063cdffacc6146100c957600080fd5b80634fe5dd791461006c57806352ef6b2c14610076575b600080fd5b610074610165565b005b61007e6101ae565b60405161008b91906106f3565b60405180910390f35b61009c61023f565b60405161008b91906107aa565b6100bc6100b7366004610852565b61026f565b60405161008b919061088f565b6101406100d73660046108a2565b7fffffffff000000000000000000000000000000000000000000000000000000001660009081527fc8fcad8db84d3cc18b4c41d551ea0ee66dd599cde068d998e57d5e09332c131c602052604090205473ffffffffffffffffffffffffffffffffffffffff1690565b60405173ffffffffffffffffffffffffffffffffffffffff909116815260200161008b565b61017733610171610349565b9061037d565b6101ac7f48e2b0930000000000000000000000000000000000000000000000000000000060016101a5610409565b9190610437565b565b60607fc8fcad8db84d3cc18b4c41d551ea0ee66dd599cde068d998e57d5e09332c131c60020180548060200260200160405190810160405280929190818152602001828054801561023557602002820191906000526020600020905b815473ffffffffffffffffffffffffffffffffffffffff16815260019091019060200180831161020a575b5050505050905090565b606061026a7fc8fcad8db84d3cc18b4c41d551ea0ee66dd599cde068d998e57d5e09332c131c610527565b905090565b73ffffffffffffffffffffffffffffffffffffffff811660009081527fc8fcad8db84d3cc18b4c41d551ea0ee66dd599cde068d998e57d5e09332c131d602090815260409182902080548351818402810184019094528084526060939283018282801561033d57602002820191906000526020600020906000905b82829054906101000a900460e01b7bffffffffffffffffffffffffffffffffffffffffffffffffffffffff1916815260200190600401906020826003010492830192600103820291508084116102ea5790505b50505050509050919050565b60008061037760017fb53127684a568b3173ae13b9f8a6016e243e63b6e8ee1178d6a717850b5d6104610913565b92915050565b815473ffffffffffffffffffffffffffffffffffffffff828116911614610405576040517f08c379a000000000000000000000000000000000000000000000000000000000815260206004820152601960248201527f50726f787941646d696e3a206e6f74207468652061646d696e0000000000000060448201526064015b60405180910390fd5b5050565b60008061037760017f7180ffa89c91cf90d6c56dacabfc69bc5e36f3099d7eed2f5cc12c5dba016fe0610913565b7fffffffff0000000000000000000000000000000000000000000000000000000080831690036104c3576040517f08c379a000000000000000000000000000000000000000000000000000000000815260206004820152601f60248201527f496e74657266616365446574656374696f6e3a2077726f6e672076616c75650060448201526064016103fc565b7fffffffff00000000000000000000000000000000000000000000000000000000919091166000908152602092909252604090912080547fffffffffffffffffffffffffffffffffffffffffffffffffffffffffffffff0016911515919091179055565b60028101546060908067ffffffffffffffff8111156105485761054861092a565b60405190808252806020026020018201604052801561058e57816020015b6040805180820190915260008152606060208201528152602001906001900390816105665790505b50915060005b818110156106ec5760008460020182815481106105b3576105b3610959565b9060005260206000200160009054906101000a900473ffffffffffffffffffffffffffffffffffffffff169050808483815181106105f3576105f3610959565b60209081029190910181015173ffffffffffffffffffffffffffffffffffffffff92831690529082166000908152600187018252604090819020805482518185028101850190935280835291929091908301828280156106b457602002820191906000526020600020906000905b82829054906101000a900460e01b7bffffffffffffffffffffffffffffffffffffffffffffffffffffffff1916815260200190600401906020826003010492830192600103820291508084116106615790505b50505050508483815181106106cb576106cb610959565b60200260200101516020018190525050806106e590610988565b9050610594565b5050919050565b6020808252825182820181905260009190848201906040850190845b8181101561074157835173ffffffffffffffffffffffffffffffffffffffff168352928401929184019160010161070f565b50909695505050505050565b600081518084526020808501945080840160005b8381101561079f5781517fffffffff000000000000000000000000000000000000000000000000000000001687529582019590820190600101610761565b509495945050505050565b60006020808301818452808551808352604092508286019150828160051b87010184880160005b83811015610844578883037fffffffffffffffffffffffffffffffffffffffffffffffffffffffffffffffc00185528151805173ffffffffffffffffffffffffffffffffffffffff1684528701518784018790526108318785018261074d565b95880195935050908601906001016107d1565b509098975050505050505050565b60006020828403121561086457600080fd5b813573ffffffffffffffffffffffffffffffffffffffff8116811461088857600080fd5b9392505050565b602081526000610888602083018461074d565b6000602082840312156108b457600080fd5b81357fffffffff000000000000000000000000000000000000000000000000000000008116811461088857600080fd5b7f4e487b7100000000000000000000000000000000000000000000000000000000600052601160045260246000fd5b600082821015610925576109256108e4565b500390565b7f4e487b7100000000000000000000000000000000000000000000000000000000600052604160045260246000fd5b7f4e487b7100000000000000000000000000000000000000000000000000000000600052603260045260246000fd5b60007fffffffffffffffffffffffffffffffffffffffffffffffffffffffffffffffff82036109b9576109b96108e4565b506001019056fea2646970667358221220545dee10cdaabb10ff46d0e4dcb93602332c1abca022495cb48e8307510da1e664736f6c634300080d0033",
  "linkReferences": {},
  "deployedLinkReferences": {}
}