{
  "_format": "hh-sol-artifact-1",
  "contractName": "ERC1155DeliverableFacet",
  "sourceName": "contracts/token/ERC1155/facets/ERC1155DeliverableFacet.sol",
  "abi": [
    {
      "inputs": [
        {
          "internalType": "contract IForwarderRegistry",
          "name": "forwarderRegistry",
          "type": "address"
        }
      ],
      "stateMutability": "nonpayable",
      "type": "constructor"
    },
    {
      "inputs": [],
      "name": "initERC1155DeliverableStorage",
      "outputs": [],
      "stateMutability": "nonpayable",
      "type": "function"
    },
    {
      "inputs": [
        {
          "internalType": "address[]",
          "name": "recipients",
          "type": "address[]"
        },
        {
          "internalType": "uint256[]",
          "name": "ids",
          "type": "uint256[]"
        },
        {
          "internalType": "uint256[]",
          "name": "values",
          "type": "uint256[]"
        },
        {
          "internalType": "bytes",
          "name": "data",
          "type": "bytes"
        }
      ],
      "name": "safeDeliver",
      "outputs": [],
      "stateMutability": "nonpayable",
      "type": "function"
    }
  ],
  "bytecode": "0x60a060405234801561001057600080fd5b5060405161110a38038061110a83398101604081905261002f91610040565b6001600160a01b0316608052610070565b60006020828403121561005257600080fd5b81516001600160a01b038116811461006957600080fd5b9392505050565b608051611078610092600039600081816104f6015261059601526110786000f3fe608060405234801561001057600080fd5b50600436106100365760003560e01c8063ba92ca2a1461003b578063e8ab9ccc14610045575b600080fd5b610043610058565b005b610043610053366004610ca9565b61007b565b6100716100636101a7565b61006b6101b6565b906101ea565b610079610276565b565b60006100856101a7565b90506100bb7f6d696e7465720000000000000000000000000000000000000000000000000000826100b46102ab565b91906102d9565b61019c818a8a8080602002602001604051908101604052809392919081815260200183836020028082843760009201919091525050604080516020808e0282810182019093528d82529093508d92508c91829185019084908082843760009201919091525050604080516020808d0282810182019093528c82529093508c92508b91829185019084908082843760009201919091525050604080516020601f8c018190048102820181019092528a815292508a9150899081908401838280828437600092019190915250610192925061038a915050565b94939291906103b8565b505050505050505050565b60006101b16104ba565b905090565b6000806101e460017fb53127684a568b3173ae13b9f8a6016e243e63b6e8ee1178d6a717850b5d6104610dc9565b92915050565b815473ffffffffffffffffffffffffffffffffffffffff828116911614610272576040517f08c379a000000000000000000000000000000000000000000000000000000000815260206004820152601960248201527f50726f787941646d696e3a206e6f74207468652061646d696e0000000000000060448201526064015b60405180910390fd5b5050565b6100797fe8ab9ccc0000000000000000000000000000000000000000000000000000000060016102a4610612565b9190610640565b6000806101e460017fc8827d3282af6f37b64c3e9e6f3ac9df286ab0bb0fccd6f8661bf19adb368b23610dc9565b60008281526020848152604080832073ffffffffffffffffffffffffffffffffffffffff8516845290915290205460ff16610385576103178261074c565b6040516020016103279190610e10565b604080517fffffffffffffffffffffffffffffffffffffffffffffffffffffffffffffffe0818403018152908290527f08c379a000000000000000000000000000000000000000000000000000000000825261026991600401610ec6565b505050565b6000806101e460017f5ccf5846fa27a68fafc8e588671a68f5e67c2f9b56af4263806a4d71735e8613610dc9565b83518351811480156103ca5750825181145b610430576040517f08c379a000000000000000000000000000000000000000000000000000000000815260206004820152601c60248201527f455243313135353a20696e636f6e73697374656e7420617272617973000000006044820152606401610269565b60005b8181146104b0576104a08787838151811061045057610450610ee0565b602002602001015187848151811061046a5761046a610ee0565b602002602001015187858151811061048457610484610ee0565b6020026020010151878d6108de9095949392919063ffffffff16565b6104a981610f0f565b9050610433565b5050505050505050565b6000333281036104c957919050565b6000367fffffffffffffffffffffffffffffffffffffffffffffffffffffffffffffffec013560601c90507f000000000000000000000000000000000000000000000000000000000000000073ffffffffffffffffffffffffffffffffffffffff168273ffffffffffffffffffffffffffffffffffffffff16148061060157506040517fe60125d600000000000000000000000000000000000000000000000000000000815273ffffffffffffffffffffffffffffffffffffffff828116600483015283811660248301527f0000000000000000000000000000000000000000000000000000000000000000169063e60125d690604401602060405180830381865afa1580156105dd573d6000803e3d6000fd5b505050506040513d601f19601f820116820180604052508101906106019190610f47565b1561060c5792915050565b50919050565b6000806101e460017fca9d3e17f264b0f3984e2634e94adb37fa3e6a8103f06aeae6fa59e21c769f5e610dc9565b7c01000000000000000000000000000000000000000000000000000000007fffffffff000000000000000000000000000000000000000000000000000000008316016106e8576040517f08c379a000000000000000000000000000000000000000000000000000000000815260206004820152601f60248201527f496e74657266616365446574656374696f6e3a2077726f6e672076616c7565006044820152606401610269565b7fffffffff00000000000000000000000000000000000000000000000000000000919091166000908152602092909252604090912080547fffffffffffffffffffffffffffffffffffffffffffffffffffffffffffffff0016911515919091179055565b6060600082900361076b57505060408051602081019091526000815290565b60008260405160200161078091815260200190565b604080517fffffffffffffffffffffffffffffffffffffffffffffffffffffffffffffffe08184030181529190529050601f5b8181815181106107c5576107c5610ee0565b01602001517fff000000000000000000000000000000000000000000000000000000000000001660000361081a577fffffffffffffffffffffffffffffffffffffffffffffffffffffffffffffffff016107b3565b60008160010167ffffffffffffffff81111561083857610838610f69565b6040519080825280601f01601f191660200182016040528015610862576020820181803683370190505b50905060005b8281116108d55783818151811061088157610881610ee0565b602001015160f81c60f81b82828151811061089e5761089e610ee0565b60200101907effffffffffffffffffffffffffffffffffffffffffffffffffffffffffffff1916908160001a905350600101610868565b50949350505050565b73ffffffffffffffffffffffffffffffffffffffff841661095b576040517f08c379a000000000000000000000000000000000000000000000000000000000815260206004820152601560248201527f455243313135353a206d696e7420746f207a65726f00000000000000000000006044820152606401610269565b610967868585856109f4565b604080518481526020810184905273ffffffffffffffffffffffffffffffffffffffff80871692600092918916917fc3d58168c5ae7397731d063d5bbf3d657854427343f4c083240f7aacaa2d0f62910160405180910390a473ffffffffffffffffffffffffffffffffffffffff84163b156109ec576109ec85600086868686610b35565b505050505050565b80600003610a5e576040517f08c379a000000000000000000000000000000000000000000000000000000000815260206004820152601360248201527f455243313135353a207a65726f2076616c7565000000000000000000000000006044820152606401610269565b60008281526020858152604080832073ffffffffffffffffffffffffffffffffffffffff8716845290915281205490610a978383610f98565b9050818111610b02576040517f08c379a000000000000000000000000000000000000000000000000000000000815260206004820152601960248201527f455243313135353a2062616c616e6365206f766572666c6f77000000000000006044820152606401610269565b60009384526020958652604080852073ffffffffffffffffffffffffffffffffffffffff90961685529490955250502055565b6040517ff23a6e61000000000000000000000000000000000000000000000000000000008082529073ffffffffffffffffffffffffffffffffffffffff86169063f23a6e6190610b91908a908a90899089908990600401610fb0565b6020604051808303816000875af1158015610bb0573d6000803e3d6000fd5b505050506040513d601f19601f82011682018060405250810190610bd49190611000565b7fffffffff0000000000000000000000000000000000000000000000000000000016146109ec576040517f08c379a000000000000000000000000000000000000000000000000000000000815260206004820152601a60248201527f455243313135353a207472616e736665722072656a65637465640000000000006044820152606401610269565b60008083601f840112610c6f57600080fd5b50813567ffffffffffffffff811115610c8757600080fd5b6020830191508360208260051b8501011115610ca257600080fd5b9250929050565b6000806000806000806000806080898b031215610cc557600080fd5b883567ffffffffffffffff80821115610cdd57600080fd5b610ce98c838d01610c5d565b909a50985060208b0135915080821115610d0257600080fd5b610d0e8c838d01610c5d565b909850965060408b0135915080821115610d2757600080fd5b610d338c838d01610c5d565b909650945060608b0135915080821115610d4c57600080fd5b818b0191508b601f830112610d6057600080fd5b813581811115610d6f57600080fd5b8c6020828501011115610d8157600080fd5b6020830194508093505050509295985092959890939650565b7f4e487b7100000000000000000000000000000000000000000000000000000000600052601160045260246000fd5b600082821015610ddb57610ddb610d9a565b500390565b60005b83811015610dfb578181015183820152602001610de3565b83811115610e0a576000848401525b50505050565b7f416363657373436f6e74726f6c3a206d697373696e6720270000000000000000815260008251610e48816018850160208701610de0565b7f2720726f6c6500000000000000000000000000000000000000000000000000006018939091019283015250601e01919050565b60008151808452610e94816020860160208601610de0565b601f017fffffffffffffffffffffffffffffffffffffffffffffffffffffffffffffffe0169290920160200192915050565b602081526000610ed96020830184610e7c565b9392505050565b7f4e487b7100000000000000000000000000000000000000000000000000000000600052603260045260246000fd5b60007fffffffffffffffffffffffffffffffffffffffffffffffffffffffffffffffff8203610f4057610f40610d9a565b5060010190565b600060208284031215610f5957600080fd5b81518015158114610ed957600080fd5b7f4e487b7100000000000000000000000000000000000000000000000000000000600052604160045260246000fd5b60008219821115610fab57610fab610d9a565b500190565b600073ffffffffffffffffffffffffffffffffffffffff808816835280871660208401525084604083015283606083015260a06080830152610ff560a0830184610e7c565b979650505050505050565b60006020828403121561101257600080fd5b81517fffffffff0000000000000000000000000000000000000000000000000000000081168114610ed957600080fdfea2646970667358221220ec7d514cb434e64e7583836a15f49da0ab582c2af345d6d475b53df8cae8bd0864736f6c634300080f0033",
  "linkReferences": {},
  "deployedLinkReferences": {}
}