{
  "_format": "hh-sol-artifact-1",
  "contractName": "ERC1155Full",
  "sourceName": "contracts/token/ERC1155/preset/ERC1155Full.sol",
  "abi": [
    {
      "inputs": [
        {
          "internalType": "string",
          "name": "tokenName",
          "type": "string"
        },
        {
          "internalType": "string",
          "name": "tokenSymbol",
          "type": "string"
        },
        {
          "internalType": "contract ITokenMetadataResolver",
          "name": "metadataResolver",
          "type": "address"
        },
        {
          "internalType": "contract IOperatorFilterRegistry",
          "name": "filterRegistry",
          "type": "address"
        },
        {
          "internalType": "contract IForwarderRegistry",
          "name": "forwarderRegistry",
          "type": "address"
        }
      ],
      "stateMutability": "nonpayable",
      "type": "constructor"
    },
    {
      "inputs": [],
      "name": "ERC1155BalanceOfAddressZero",
      "type": "error"
    },
    {
      "inputs": [
        {
          "internalType": "address",
          "name": "recipient",
          "type": "address"
        },
        {
          "internalType": "uint256",
          "name": "id",
          "type": "uint256"
        },
        {
          "internalType": "uint256",
          "name": "balance",
          "type": "uint256"
        },
        {
          "internalType": "uint256",
          "name": "value",
          "type": "uint256"
        }
      ],
      "name": "ERC1155BalanceOverflow",
      "type": "error"
    },
    {
      "inputs": [
        {
          "internalType": "address",
          "name": "owner",
          "type": "address"
        },
        {
          "internalType": "uint256",
          "name": "id",
          "type": "uint256"
        },
        {
          "internalType": "uint256",
          "name": "balance",
          "type": "uint256"
        },
        {
          "internalType": "uint256",
          "name": "value",
          "type": "uint256"
        }
      ],
      "name": "ERC1155InsufficientBalance",
      "type": "error"
    },
    {
      "inputs": [],
      "name": "ERC1155MintToAddressZero",
      "type": "error"
    },
    {
      "inputs": [
        {
          "internalType": "address",
          "name": "sender",
          "type": "address"
        },
        {
          "internalType": "address",
          "name": "owner",
          "type": "address"
        }
      ],
      "name": "ERC1155NonApproved",
      "type": "error"
    },
    {
      "inputs": [
        {
          "internalType": "address",
          "name": "recipient",
          "type": "address"
        },
        {
          "internalType": "uint256[]",
          "name": "ids",
          "type": "uint256[]"
        },
        {
          "internalType": "uint256[]",
          "name": "values",
          "type": "uint256[]"
        }
      ],
      "name": "ERC1155SafeBatchTransferRejected",
      "type": "error"
    },
    {
      "inputs": [
        {
          "internalType": "address",
          "name": "recipient",
          "type": "address"
        },
        {
          "internalType": "uint256",
          "name": "id",
          "type": "uint256"
        },
        {
          "internalType": "uint256",
          "name": "value",
          "type": "uint256"
        }
      ],
      "name": "ERC1155SafeTransferRejected",
      "type": "error"
    },
    {
      "inputs": [
        {
          "internalType": "address",
          "name": "account",
          "type": "address"
        }
      ],
      "name": "ERC1155SelfApprovalForAll",
      "type": "error"
    },
    {
      "inputs": [],
      "name": "ERC1155TransferToAddressZero",
      "type": "error"
    },
    {
      "inputs": [
        {
          "internalType": "uint256",
          "name": "percentage",
          "type": "uint256"
        }
      ],
      "name": "ERC2981IncorrectRoyaltyPercentage",
      "type": "error"
    },
    {
      "inputs": [],
      "name": "ERC2981IncorrectRoyaltyReceiver",
      "type": "error"
    },
    {
      "inputs": [],
      "name": "FailedCall",
      "type": "error"
    },
    {
      "inputs": [],
      "name": "IllegalInterfaceId",
      "type": "error"
    },
    {
      "inputs": [],
      "name": "InconsistentArrayLengths",
      "type": "error"
    },
    {
      "inputs": [
        {
          "internalType": "address",
          "name": "tokenContract",
          "type": "address"
        }
      ],
      "name": "IncorrectTokenContractType",
      "type": "error"
    },
    {
      "inputs": [
        {
          "internalType": "uint256",
          "name": "balance",
          "type": "uint256"
        },
        {
          "internalType": "uint256",
          "name": "needed",
          "type": "uint256"
        }
      ],
      "name": "InsufficientBalance",
      "type": "error"
    },
    {
      "inputs": [
        {
          "internalType": "address",
          "name": "account",
          "type": "address"
        }
      ],
      "name": "NotContractOwner",
      "type": "error"
    },
    {
      "inputs": [
        {
          "internalType": "address",
          "name": "account",
          "type": "address"
        }
      ],
      "name": "NotMetadataResolver",
      "type": "error"
    },
    {
      "inputs": [
        {
          "internalType": "bytes32",
          "name": "role",
          "type": "bytes32"
        },
        {
          "internalType": "address",
          "name": "account",
          "type": "address"
        }
      ],
      "name": "NotRoleHolder",
      "type": "error"
    },
    {
      "inputs": [
        {
          "internalType": "address",
          "name": "operator",
          "type": "address"
        }
      ],
      "name": "OperatorNotAllowed",
      "type": "error"
    },
    {
      "inputs": [
        {
          "internalType": "address",
          "name": "token",
          "type": "address"
        }
      ],
      "name": "SafeERC20FailedOperation",
      "type": "error"
    },
    {
      "anonymous": false,
      "inputs": [
        {
          "indexed": true,
          "internalType": "address",
          "name": "owner",
          "type": "address"
        },
        {
          "indexed": true,
          "internalType": "address",
          "name": "operator",
          "type": "address"
        },
        {
          "indexed": false,
          "internalType": "bool",
          "name": "approved",
          "type": "bool"
        }
      ],
      "name": "ApprovalForAll",
      "type": "event"
    },
    {
      "anonymous": false,
      "inputs": [
        {
          "indexed": true,
          "internalType": "address",
          "name": "previousOwner",
          "type": "address"
        },
        {
          "indexed": true,
          "internalType": "address",
          "name": "newOwner",
          "type": "address"
        }
      ],
      "name": "OwnershipTransferred",
      "type": "event"
    },
    {
      "anonymous": false,
      "inputs": [
        {
          "indexed": false,
          "internalType": "bytes32",
          "name": "role",
          "type": "bytes32"
        },
        {
          "indexed": false,
          "internalType": "address",
          "name": "account",
          "type": "address"
        },
        {
          "indexed": false,
          "internalType": "address",
          "name": "operator",
          "type": "address"
        }
      ],
      "name": "RoleGranted",
      "type": "event"
    },
    {
      "anonymous": false,
      "inputs": [
        {
          "indexed": false,
          "internalType": "bytes32",
          "name": "role",
          "type": "bytes32"
        },
        {
          "indexed": false,
          "internalType": "address",
          "name": "account",
          "type": "address"
        },
        {
          "indexed": false,
          "internalType": "address",
          "name": "operator",
          "type": "address"
        }
      ],
      "name": "RoleRevoked",
      "type": "event"
    },
    {
      "anonymous": false,
      "inputs": [
        {
          "indexed": true,
          "internalType": "address",
          "name": "operator",
          "type": "address"
        },
        {
          "indexed": true,
          "internalType": "address",
          "name": "from",
          "type": "address"
        },
        {
          "indexed": true,
          "internalType": "address",
          "name": "to",
          "type": "address"
        },
        {
          "indexed": false,
          "internalType": "uint256[]",
          "name": "ids",
          "type": "uint256[]"
        },
        {
          "indexed": false,
          "internalType": "uint256[]",
          "name": "values",
          "type": "uint256[]"
        }
      ],
      "name": "TransferBatch",
      "type": "event"
    },
    {
      "anonymous": false,
      "inputs": [
        {
          "indexed": true,
          "internalType": "address",
          "name": "operator",
          "type": "address"
        },
        {
          "indexed": true,
          "internalType": "address",
          "name": "from",
          "type": "address"
        },
        {
          "indexed": true,
          "internalType": "address",
          "name": "to",
          "type": "address"
        },
        {
          "indexed": false,
          "internalType": "uint256",
          "name": "id",
          "type": "uint256"
        },
        {
          "indexed": false,
          "internalType": "uint256",
          "name": "value",
          "type": "uint256"
        }
      ],
      "name": "TransferSingle",
      "type": "event"
    },
    {
      "anonymous": false,
      "inputs": [
        {
          "indexed": false,
          "internalType": "string",
          "name": "value",
          "type": "string"
        },
        {
          "indexed": true,
          "internalType": "uint256",
          "name": "id",
          "type": "uint256"
        }
      ],
      "name": "URI",
      "type": "event"
    },
    {
      "inputs": [],
      "name": "MINTER_ROLE",
      "outputs": [
        {
          "internalType": "bytes32",
          "name": "",
          "type": "bytes32"
        }
      ],
      "stateMutability": "view",
      "type": "function"
    },
    {
      "inputs": [],
      "name": "ROYALTY_FEE_DENOMINATOR",
      "outputs": [
        {
          "internalType": "uint256",
          "name": "",
          "type": "uint256"
        }
      ],
      "stateMutability": "view",
      "type": "function"
    },
    {
      "inputs": [
        {
          "internalType": "address",
          "name": "owner",
          "type": "address"
        },
        {
          "internalType": "uint256",
          "name": "id",
          "type": "uint256"
        }
      ],
      "name": "balanceOf",
      "outputs": [
        {
          "internalType": "uint256",
          "name": "balance",
          "type": "uint256"
        }
      ],
      "stateMutability": "view",
      "type": "function"
    },
    {
      "inputs": [
        {
          "internalType": "address[]",
          "name": "owners",
          "type": "address[]"
        },
        {
          "internalType": "uint256[]",
          "name": "ids",
          "type": "uint256[]"
        }
      ],
      "name": "balanceOfBatch",
      "outputs": [
        {
          "internalType": "uint256[]",
          "name": "balances",
          "type": "uint256[]"
        }
      ],
      "stateMutability": "view",
      "type": "function"
    },
    {
      "inputs": [
        {
          "internalType": "uint256[]",
          "name": "tokenIds",
          "type": "uint256[]"
        },
        {
          "internalType": "string[]",
          "name": "tokenURIs",
          "type": "string[]"
        }
      ],
      "name": "batchSetTokenURI",
      "outputs": [],
      "stateMutability": "nonpayable",
      "type": "function"
    },
    {
      "inputs": [],
      "name": "forwarderRegistry",
      "outputs": [
        {
          "internalType": "contract IForwarderRegistry",
          "name": "",
          "type": "address"
        }
      ],
      "stateMutability": "view",
      "type": "function"
    },
    {
      "inputs": [
        {
          "internalType": "bytes32",
          "name": "role",
          "type": "bytes32"
        },
        {
          "internalType": "address",
          "name": "account",
          "type": "address"
        }
      ],
      "name": "grantRole",
      "outputs": [],
      "stateMutability": "nonpayable",
      "type": "function"
    },
    {
      "inputs": [
        {
          "internalType": "bytes32",
          "name": "role",
          "type": "bytes32"
        },
        {
          "internalType": "address",
          "name": "account",
          "type": "address"
        }
      ],
      "name": "hasRole",
      "outputs": [
        {
          "internalType": "bool",
          "name": "hasRole_",
          "type": "bool"
        }
      ],
      "stateMutability": "view",
      "type": "function"
    },
    {
      "inputs": [
        {
          "internalType": "address",
          "name": "owner",
          "type": "address"
        },
        {
          "internalType": "address",
          "name": "operator",
          "type": "address"
        }
      ],
      "name": "isApprovedForAll",
      "outputs": [
        {
          "internalType": "bool",
          "name": "approvedForAll",
          "type": "bool"
        }
      ],
      "stateMutability": "view",
      "type": "function"
    },
    {
      "inputs": [
        {
          "internalType": "address",
          "name": "forwarder",
          "type": "address"
        }
      ],
      "name": "isTrustedForwarder",
      "outputs": [
        {
          "internalType": "bool",
          "name": "",
          "type": "bool"
        }
      ],
      "stateMutability": "view",
      "type": "function"
    },
    {
      "inputs": [],
      "name": "metadataResolver",
      "outputs": [
        {
          "internalType": "contract ITokenMetadataResolver",
          "name": "tokenMetadataResolver",
          "type": "address"
        }
      ],
      "stateMutability": "view",
      "type": "function"
    },
    {
      "inputs": [],
      "name": "name",
      "outputs": [
        {
          "internalType": "string",
          "name": "tokenName",
          "type": "string"
        }
      ],
      "stateMutability": "view",
      "type": "function"
    },
    {
      "inputs": [],
      "name": "operatorFilterRegistry",
      "outputs": [
        {
          "internalType": "contract IOperatorFilterRegistry",
          "name": "",
          "type": "address"
        }
      ],
      "stateMutability": "view",
      "type": "function"
    },
    {
      "inputs": [],
      "name": "owner",
      "outputs": [
        {
          "internalType": "address",
          "name": "",
          "type": "address"
        }
      ],
      "stateMutability": "view",
      "type": "function"
    },
    {
      "inputs": [
        {
          "internalType": "address[]",
          "name": "accounts",
          "type": "address[]"
        },
        {
          "internalType": "contract IERC20[]",
          "name": "tokens",
          "type": "address[]"
        },
        {
          "internalType": "uint256[]",
          "name": "amounts",
          "type": "uint256[]"
        }
      ],
      "name": "recoverERC20s",
      "outputs": [],
      "stateMutability": "nonpayable",
      "type": "function"
    },
    {
      "inputs": [
        {
          "internalType": "address[]",
          "name": "accounts",
          "type": "address[]"
        },
        {
          "internalType": "contract IERC721[]",
          "name": "contracts",
          "type": "address[]"
        },
        {
          "internalType": "uint256[]",
          "name": "tokenIds",
          "type": "uint256[]"
        }
      ],
      "name": "recoverERC721s",
      "outputs": [],
      "stateMutability": "nonpayable",
      "type": "function"
    },
    {
      "inputs": [
        {
          "internalType": "address payable[]",
          "name": "accounts",
          "type": "address[]"
        },
        {
          "internalType": "uint256[]",
          "name": "amounts",
          "type": "uint256[]"
        }
      ],
      "name": "recoverETH",
      "outputs": [],
      "stateMutability": "nonpayable",
      "type": "function"
    },
    {
      "inputs": [
        {
          "internalType": "bytes32",
          "name": "role",
          "type": "bytes32"
        }
      ],
      "name": "renounceRole",
      "outputs": [],
      "stateMutability": "nonpayable",
      "type": "function"
    },
    {
      "inputs": [
        {
          "internalType": "bytes32",
          "name": "role",
          "type": "bytes32"
        },
        {
          "internalType": "address",
          "name": "account",
          "type": "address"
        }
      ],
      "name": "revokeRole",
      "outputs": [],
      "stateMutability": "nonpayable",
      "type": "function"
    },
    {
      "inputs": [
        {
          "internalType": "uint256",
          "name": "tokenId",
          "type": "uint256"
        },
        {
          "internalType": "uint256",
          "name": "salePrice",
          "type": "uint256"
        }
      ],
      "name": "royaltyInfo",
      "outputs": [
        {
          "internalType": "address",
          "name": "receiver",
          "type": "address"
        },
        {
          "internalType": "uint256",
          "name": "royaltyAmount",
          "type": "uint256"
        }
      ],
      "stateMutability": "view",
      "type": "function"
    },
    {
      "inputs": [
        {
          "internalType": "address",
          "name": "to",
          "type": "address"
        },
        {
          "internalType": "uint256[]",
          "name": "ids",
          "type": "uint256[]"
        },
        {
          "internalType": "uint256[]",
          "name": "values",
          "type": "uint256[]"
        },
        {
          "internalType": "bytes",
          "name": "data",
          "type": "bytes"
        }
      ],
      "name": "safeBatchMint",
      "outputs": [],
      "stateMutability": "nonpayable",
      "type": "function"
    },
    {
      "inputs": [
        {
          "internalType": "address",
          "name": "from",
          "type": "address"
        },
        {
          "internalType": "address",
          "name": "to",
          "type": "address"
        },
        {
          "internalType": "uint256[]",
          "name": "ids",
          "type": "uint256[]"
        },
        {
          "internalType": "uint256[]",
          "name": "values",
          "type": "uint256[]"
        },
        {
          "internalType": "bytes",
          "name": "data",
          "type": "bytes"
        }
      ],
      "name": "safeBatchTransferFrom",
      "outputs": [],
      "stateMutability": "nonpayable",
      "type": "function"
    },
    {
      "inputs": [
        {
          "internalType": "address[]",
          "name": "recipients",
          "type": "address[]"
        },
        {
          "internalType": "uint256[]",
          "name": "ids",
          "type": "uint256[]"
        },
        {
          "internalType": "uint256[]",
          "name": "values",
          "type": "uint256[]"
        },
        {
          "internalType": "bytes",
          "name": "data",
          "type": "bytes"
        }
      ],
      "name": "safeDeliver",
      "outputs": [],
      "stateMutability": "nonpayable",
      "type": "function"
    },
    {
      "inputs": [
        {
          "internalType": "address",
          "name": "to",
          "type": "address"
        },
        {
          "internalType": "uint256",
          "name": "id",
          "type": "uint256"
        },
        {
          "internalType": "uint256",
          "name": "value",
          "type": "uint256"
        },
        {
          "internalType": "bytes",
          "name": "data",
          "type": "bytes"
        }
      ],
      "name": "safeMint",
      "outputs": [],
      "stateMutability": "nonpayable",
      "type": "function"
    },
    {
      "inputs": [
        {
          "internalType": "address",
          "name": "from",
          "type": "address"
        },
        {
          "internalType": "address",
          "name": "to",
          "type": "address"
        },
        {
          "internalType": "uint256",
          "name": "id",
          "type": "uint256"
        },
        {
          "internalType": "uint256",
          "name": "value",
          "type": "uint256"
        },
        {
          "internalType": "bytes",
          "name": "data",
          "type": "bytes"
        }
      ],
      "name": "safeTransferFrom",
      "outputs": [],
      "stateMutability": "nonpayable",
      "type": "function"
    },
    {
      "inputs": [
        {
          "internalType": "address",
          "name": "operator",
          "type": "address"
        },
        {
          "internalType": "bool",
          "name": "approved",
          "type": "bool"
        }
      ],
      "name": "setApprovalForAll",
      "outputs": [],
      "stateMutability": "nonpayable",
      "type": "function"
    },
    {
      "inputs": [
        {
          "internalType": "uint256",
          "name": "percentage",
          "type": "uint256"
        }
      ],
      "name": "setRoyaltyPercentage",
      "outputs": [],
      "stateMutability": "nonpayable",
      "type": "function"
    },
    {
      "inputs": [
        {
          "internalType": "address",
          "name": "receiver",
          "type": "address"
        }
      ],
      "name": "setRoyaltyReceiver",
      "outputs": [],
      "stateMutability": "nonpayable",
      "type": "function"
    },
    {
      "inputs": [
        {
          "internalType": "uint256",
          "name": "tokenId",
          "type": "uint256"
        },
        {
          "internalType": "string",
          "name": "tokenURI",
          "type": "string"
        }
      ],
      "name": "setTokenURI",
      "outputs": [],
      "stateMutability": "nonpayable",
      "type": "function"
    },
    {
      "inputs": [
        {
          "internalType": "bytes4",
          "name": "interfaceId",
          "type": "bytes4"
        }
      ],
      "name": "supportsInterface",
      "outputs": [
        {
          "internalType": "bool",
          "name": "",
          "type": "bool"
        }
      ],
      "stateMutability": "view",
      "type": "function"
    },
    {
      "inputs": [],
      "name": "symbol",
      "outputs": [
        {
          "internalType": "string",
          "name": "tokenSymbol",
          "type": "string"
        }
      ],
      "stateMutability": "view",
      "type": "function"
    },
    {
      "inputs": [
        {
          "internalType": "address",
          "name": "newOwner",
          "type": "address"
        }
      ],
      "name": "transferOwnership",
      "outputs": [],
      "stateMutability": "nonpayable",
      "type": "function"
    },
    {
      "inputs": [
        {
          "internalType": "contract IOperatorFilterRegistry",
          "name": "registry",
          "type": "address"
        }
      ],
      "name": "updateOperatorFilterRegistry",
      "outputs": [],
      "stateMutability": "nonpayable",
      "type": "function"
    },
    {
      "inputs": [
        {
          "internalType": "uint256",
          "name": "tokenId",
          "type": "uint256"
        }
      ],
      "name": "uri",
      "outputs": [
        {
          "internalType": "string",
          "name": "metadataURI",
          "type": "string"
        }
      ],
      "stateMutability": "view",
      "type": "function"
    }
  ],
  "bytecode": "0x60a060405234801561001057600080fd5b5060405161421d38038061421d83398101604081905261002f916103d9565b80808686868633610048816100426100ce565b90610102565b50610051610178565b61007b8161005d61018f565b9081546001600160a01b0319166001600160a01b0391909116179055565b5061009283838361008a6101bd565b9291906101eb565b61009a61022e565b506100a6915050610243565b6100ae610258565b6100b661026d565b6001600160a01b0316608052506105e6945050505050565b6000806100fc60017fc9ed16f33ab3a66c84bfd83099ccb2a8845871e2e1c1928f63797152f0fd54cd61047e565b92915050565b6001600160a01b038116156101585781546001600160a01b0319166001600160a01b03821690811783556040516000907f8be0079c531659141344cd1fd0a4f28419497f9722a3daafe3b4186f6b6457e0908290a35b6101746307f5828d60e41b600161016d61027e565b91906102ac565b5050565b61018d636cdb3d1360e11b600161016d61027e565b565b6000806100fc60017f609b85bcafa81ecfaf3ff62cdde2c6c9082a68dbe4922f07399c706bdeb7cd3161047e565b6000806100fc60017f7ea68fd2dcf1c056b94db6a0a537aa80d26fa9ab1eacd85da1ba0b61b7e7a8a561047e565b836101f68482610528565b50600184016102058382610528565b5060029390930180546001600160a01b0319166001600160a01b03909416939093179092555050565b61018d6303a24d0760e21b600161016d61027e565b61018d631464324b60e21b600161016d61027e565b61018d633a2ae73360e21b600161016d61027e565b61018d63152a902d60e11b600161016d5b6000806100fc60017fca9d3e17f264b0f3984e2634e94adb37fa3e6a8103f06aeae6fa59e21c769f5e61047e565b600160e01b6001600160e01b03198316016102da576040516372c683bb60e01b815260040160405180910390fd5b6001600160e01b03199190911660009081526020929092526040909120805460ff1916911515919091179055565b634e487b7160e01b600052604160045260246000fd5b600082601f83011261032f57600080fd5b81516001600160401b0381111561034857610348610308565b604051601f8201601f19908116603f011681016001600160401b038111828210171561037657610376610308565b60405281815283820160200185101561038e57600080fd5b60005b828110156103ad57602081860181015183830182015201610391565b506000918101602001919091529392505050565b6001600160a01b03811681146103d657600080fd5b50565b600080600080600060a086880312156103f157600080fd5b85516001600160401b0381111561040757600080fd5b6104138882890161031e565b602088015190965090506001600160401b0381111561043157600080fd5b61043d8882890161031e565b945050604086015161044e816103c1565b606087015190935061045f816103c1565b6080870151909250610470816103c1565b809150509295509295909350565b818103818111156100fc57634e487b7160e01b600052601160045260246000fd5b600181811c908216806104b357607f821691505b6020821081036104d357634e487b7160e01b600052602260045260246000fd5b50919050565b601f82111561052357806000526020600020601f840160051c810160208510156105005750805b601f840160051c820191505b81811015610520576000815560010161050c565b50505b505050565b81516001600160401b0381111561054157610541610308565b6105558161054f845461049f565b846104d9565b6020601f82116001811461058957600083156105715750848201515b600019600385901b1c1916600184901b178455610520565b600084815260208120601f198516915b828110156105b95787850151825560209485019460019092019101610599565b50848210156105d75786840151600019600387901b60f8161c191681555b50505050600190811b01905550565b608051613c0761061660003960008181610317015281816103b20152818161263201526126c00152613c076000f3fe608060405234801561001057600080fd5b50600436106102255760003560e01c80638bb9c5bf1161012a578063c3666c36116100bd578063e8ab9ccc1161008c578063f242432a11610071578063f242432a14610524578063f2fde38b14610537578063f7ba94bd1461054a57600080fd5b8063e8ab9ccc146104fe578063e985e9c51461051157600080fd5b8063c3666c36146104a7578063d5391393146104ba578063d547741f146104e1578063e1a8bf2c146104f457600080fd5b806395d89b41116100f957806395d89b411461047c578063a0c76f6214610484578063a22cb4651461048c578063b0ccc31e1461049f57600080fd5b80638bb9c5bf1461043b5780638da5cb5b1461044e5780638dc251e31461045657806391d148541461046957600080fd5b80632b4c9f16116101bd578063572b6c051161018c57806361ba27da1161017157806361ba27da146104025780636706467b1461041557806373c8a9581461042857600080fd5b8063572b6c05146103a25780635cfa9297146103ef57600080fd5b80632b4c9f16146103155780632eb2c2d61461035c5780632f2ff15d1461036f5780634e1273f41461038257600080fd5b80630e89341c116101f95780630e89341c1461029d578063114ba8ee146102b0578063162094c4146102c35780632a55205a146102d657600080fd5b8062fdd58e1461022a57806301ffc9a71461025057806306fdde03146102735780630d6a5bbb14610288575b600080fd5b61023d610238366004612fbd565b61055d565b6040519081526020015b60405180910390f35b61026361025e366004613017565b61057c565b6040519015158152602001610247565b61027b610590565b60405161024791906130a9565b61029b610296366004613143565b6105a7565b005b61027b6102ab3660046131fc565b6106a2565b61029b6102be366004613215565b6106b8565b61029b6102d1366004613232565b610723565b6102e96102e436600461327e565b6107f5565b6040805173ffffffffffffffffffffffffffffffffffffffff9093168352602083019190915201610247565b7f00000000000000000000000000000000000000000000000000000000000000005b60405173ffffffffffffffffffffffffffffffffffffffff9091168152602001610247565b61029b61036a3660046132a0565b610818565b61029b61037d36600461336b565b610865565b61039561039036600461339b565b610898565b6040516102479190613448565b6102636103b0366004613215565b7f000000000000000000000000000000000000000000000000000000000000000073ffffffffffffffffffffffffffffffffffffffff90811691161490565b61029b6103fd36600461345b565b6108bb565b61029b6104103660046131fc565b61094d565b61029b61042336600461339b565b61096a565b61029b6104363660046134c5565b610aa2565b61029b6104493660046131fc565b610abb565b610337610ad6565b61029b610464366004613215565b610afd565b61026361047736600461336b565b610b1a565b61027b610b5e565b610337610b70565b61029b61049a366004613579565b610b7d565b610337610bb6565b61029b6104b53660046134c5565b610bc3565b61023d7f6d696e746572000000000000000000000000000000000000000000000000000081565b61029b6104ef36600461336b565b610bdc565b61023d620186a081565b61029b61050c3660046135a7565b610c0a565b61026361051f36600461365e565b610d24565b61029b61053236600461368c565b610d72565b61029b610545366004613215565b610db2565b61029b61055836600461339b565b610dcd565b6000610573838361056c610dea565b9190610e18565b90505b92915050565b60006105768261058a610e9c565b90610eca565b60606105a261059d610fa4565b610fd2565b905090565b60006105b1611068565b90506105e77f6d696e7465720000000000000000000000000000000000000000000000000000826105e0611072565b91906110a0565b610698818989898080602002602001604051908101604052809392919081815260200183836020028082843760009201919091525050604080516020808d0282810182019093528c82529093508c92508b91829185019084908082843760009201919091525050604080516020601f8c018190048102820181019092528a815292508a915089908190840183828082843760009201919091525061068e9250610dea915050565b9493929190611126565b5050505050505050565b606061057630836106b1610fa4565b91906112ac565b6106d16106c3611068565b6106cb611374565b906113a2565b610720816106dd61140d565b9081547fffffffffffffffffffffffff00000000000000000000000000000000000000001673ffffffffffffffffffffffffffffffffffffffff91909116179055565b50565b61074b61072e610fa4565b6002015473ffffffffffffffffffffffffffffffffffffffff1690565b73ffffffffffffffffffffffffffffffffffffffff163373ffffffffffffffffffffffffffffffffffffffff16146107b6576040517f220606710000000000000000000000000000000000000000000000000000000081523360048201526024015b60405180910390fd5b827f6bb7ff708619ba0610cba295a58592e0451dee2622938c8755667688daf3529b83836040516107e89291906136f6565b60405180910390a2505050565b60008061080c848461080561147d565b91906114ab565b915091505b9250929050565b6000610822611068565b9050610838818a61083161140d565b9190611555565b61085a818a8a8a8a8a8a8a8a61084c610dea565b989796959493929190611592565b505050505050505050565b600061086f611068565b905061087d816106cb611374565b61089383838361088b611072565b92919061181b565b505050565b60606108b2858585856108a9610dea565b939291906118f1565b95945050505050565b60006108c5611068565b90506108f47f6d696e7465720000000000000000000000000000000000000000000000000000826105e0611072565b6109458187878787878080601f01602080910402602001604051908101604052809392919081815260200183838082843760009201919091525061093b9250610dea915050565b9493929190611a00565b505050505050565b6109586106c3611068565b6107208161096461147d565b90611ade565b8281146109a3576040517f6582533600000000000000000000000000000000000000000000000000000000815260040160405180910390fd5b6109ae61072e610fa4565b73ffffffffffffffffffffffffffffffffffffffff163373ffffffffffffffffffffffffffffffffffffffff1614610a14576040517f220606710000000000000000000000000000000000000000000000000000000081523360048201526024016107ad565b60005b83811015610a9b57848482818110610a3157610a31613743565b905060200201357f6bb7ff708619ba0610cba295a58592e0451dee2622938c8755667688daf3529b848484818110610a6b57610a6b613743565b9050602002810190610a7d9190613772565b604051610a8b9291906136f6565b60405180910390a2600101610a17565b5050505050565b610aad6106c3611068565b610945868686868686611b64565b610720610ac6611068565b82610acf611072565b9190611c45565b60006105a2610ae3611374565b5473ffffffffffffffffffffffffffffffffffffffff1690565b610b086106c3611068565b61072081610b1461147d565b90611ce9565b60006105738383610b29611072565b60009283526020908152604080842073ffffffffffffffffffffffffffffffffffffffff909316845291905290205460ff1690565b60606105a2610b6b610fa4565b611d36565b60006105a261072e610fa4565b8015610b9557610b9582610b8f61140d565b90611d47565b610bb2610ba0611068565b8383610baa610dea565b929190611d51565b5050565b60006105a2610ae361140d565b610bce6106c3611068565b610945868686868686611e69565b6000610be6611068565b9050610bf4816106cb611374565b610893838383610c02611072565b9291906120ff565b6000610c14611068565b9050610c437f6d696e7465720000000000000000000000000000000000000000000000000000826105e0611072565b61085a818a8a8080602002602001604051908101604052809392919081815260200183836020028082843760009201919091525050604080516020808e0282810182019093528d82529093508d92508c91829185019084908082843760009201919091525050604080516020808d0282810182019093528c82529093508c92508b91829185019084908082843760009201919091525050604080516020601f8c018190048102820181019092528a815292508a9150899081908401838280828437600092019190915250610d1a9250610dea915050565b94939291906121c9565b60006105738383610d33610dea565b919073ffffffffffffffffffffffffffffffffffffffff9182166000908152600193909301602090815260408085209290931684525290205460ff1690565b6000610d7c611068565b9050610d8b818861083161140d565b610da981888888888888610d9d610dea565b9695949392919061228c565b50505050505050565b610720610dbd611068565b82610dc6611374565b919061242f565b610dd86106c3611068565b610de484848484612543565b50505050565b60008061057660017f5ccf5846fa27a68fafc8e588671a68f5e67c2f9b56af4263806a4d71735e8613613806565b600073ffffffffffffffffffffffffffffffffffffffff8316610e67576040517fca2434a500000000000000000000000000000000000000000000000000000000815260040160405180910390fd5b5060009081526020928352604080822073ffffffffffffffffffffffffffffffffffffffff9390931682529190925290205490565b60008061057660017fca9d3e17f264b0f3984e2634e94adb37fa3e6a8103f06aeae6fa59e21c769f5e613806565b60007c01000000000000000000000000000000000000000000000000000000007fffffffff00000000000000000000000000000000000000000000000000000000831601610f1a57506000610576565b7ffe003659000000000000000000000000000000000000000000000000000000007fffffffff00000000000000000000000000000000000000000000000000000000831601610f6b57506001610576565b507fffffffff00000000000000000000000000000000000000000000000000000000166000908152602091909152604090205460ff1690565b60008061057660017f7ea68fd2dcf1c056b94db6a0a537aa80d26fa9ab1eacd85da1ba0b61b7e7a8a5613806565b6060816000018054610fe390613819565b80601f016020809104026020016040519081016040528092919081815260200182805461100f90613819565b801561105c5780601f106110315761010080835404028352916020019161105c565b820191906000526020600020905b81548152906001019060200180831161103f57829003601f168201915b50505050509050919050565b60006105a26125ef565b60008061057660017fc8827d3282af6f37b64c3e9e6f3ac9df286ab0bb0fccd6f8661bf19adb368b23613806565b60008281526020848152604080832073ffffffffffffffffffffffffffffffffffffffff8516845290915290205460ff16610893576040517f7aa728820000000000000000000000000000000000000000000000000000000081526004810183905273ffffffffffffffffffffffffffffffffffffffff821660248201526044016107ad565b73ffffffffffffffffffffffffffffffffffffffff8416611173576040517f021149bd00000000000000000000000000000000000000000000000000000000815260040160405180910390fd5b8251825181146111af576040517f6582533600000000000000000000000000000000000000000000000000000000815260040160405180910390fd5b60005b81811015611200576111f888878784815181106111d1576111d1613743565b60200260200101518785815181106111eb576111eb613743565b602002602001015161273c565b6001016111b2565b508473ffffffffffffffffffffffffffffffffffffffff16600073ffffffffffffffffffffffffffffffffffffffff168773ffffffffffffffffffffffffffffffffffffffff167f4a39dc06d4c0dbc64b70af90fd698a233a518aa5d07e595d983b8c0526c8f7fb878760405161127892919061386c565b60405180910390a473ffffffffffffffffffffffffffffffffffffffff85163b15610da957610da98660008787878761280d565b60028301546040517ff724dad700000000000000000000000000000000000000000000000000000000815273ffffffffffffffffffffffffffffffffffffffff848116600483015260248201849052606092169063f724dad790604401600060405180830381865afa158015611326573d6000803e3d6000fd5b505050506040513d6000823e601f3d9081017fffffffffffffffffffffffffffffffffffffffffffffffffffffffffffffffe016820160405261136c91908101906138c0565b949350505050565b60008061057660017fc9ed16f33ab3a66c84bfd83099ccb2a8845871e2e1c1928f63797152f0fd54cd613806565b815473ffffffffffffffffffffffffffffffffffffffff828116911614610bb2576040517f2ef4875e00000000000000000000000000000000000000000000000000000000815273ffffffffffffffffffffffffffffffffffffffff821660048201526024016107ad565b60008061057660017f609b85bcafa81ecfaf3ff62cdde2c6c9082a68dbe4922f07399c706bdeb7cd31613806565b81547fffffffffffffffffffffffff00000000000000000000000000000000000000001673ffffffffffffffffffffffffffffffffffffffff91909116179055565b60008061057660017f2c0cf10337caabbd02dcf226f05f5fd19a0919a41a8df8958c39b80007826858613806565b825473ffffffffffffffffffffffffffffffffffffffff8116906000907401000000000000000000000000000000000000000090046bffffffffffffffffffffffff168315806114f9575080155b15611507576000915061154c565b620186a084101561153157620186a061152082866139a9565b61152a91906139c0565b915061154c565b8061153f620186a0866139c0565b61154991906139a9565b91505b50935093915050565b8073ffffffffffffffffffffffffffffffffffffffff168273ffffffffffffffffffffffffffffffffffffffff161461089357610893838361290b565b73ffffffffffffffffffffffffffffffffffffffff87166115df576040517fb5e8901500000000000000000000000000000000000000000000000000000000815260040160405180910390fd5b84838114611619576040517f6582533600000000000000000000000000000000000000000000000000000000815260040160405180910390fd5b6116248b8a8c612a32565b61167a576040517f05bbb9c400000000000000000000000000000000000000000000000000000000815273ffffffffffffffffffffffffffffffffffffffff808c1660048301528a1660248201526044016107ad565b60005b818110156116ca576116c28c8b8b8b8b8681811061169d5761169d613743565b905060200201358a8a878181106116b6576116b6613743565b90506020020135612aa7565b60010161167d565b508773ffffffffffffffffffffffffffffffffffffffff168973ffffffffffffffffffffffffffffffffffffffff168b73ffffffffffffffffffffffffffffffffffffffff167f4a39dc06d4c0dbc64b70af90fd698a233a518aa5d07e595d983b8c0526c8f7fb8a8a8a8a6040516117459493929190613a46565b60405180910390a473ffffffffffffffffffffffffffffffffffffffff88163b1561180e5761180e8a8a8a8a8a8080602002602001604051908101604052809392919081815260200183836020028082843760009201919091525050604080516020808e0282810182019093528d82529093508d92508c91829185019084908082843760009201919091525050604080516020601f8d018190048102820181019092528b815292508b91508a908190840183828082843760009201919091525061280d92505050565b5050505050505050505050565b60008381526020858152604080832073ffffffffffffffffffffffffffffffffffffffff8616845290915290205460ff16610de45760008381526020858152604080832073ffffffffffffffffffffffffffffffffffffffff8681168086529184529382902080547fffffffffffffffffffffffffffffffffffffffffffffffffffffffffffffff00166001179055815187815292830152918316918101919091527f2f8788117e7eff1d82e926ec794901d17c78024a50270940304540a733656f0d906060015b60405180910390a150505050565b60608382811461192d576040517f6582533600000000000000000000000000000000000000000000000000000000815260040160405180910390fd5b8467ffffffffffffffff81111561194657611946613891565b60405190808252806020026020018201604052801561196f578160200160208202803683370190505b50915060005b818110156119f5576119d087878381811061199257611992613743565b90506020020160208101906119a79190613215565b8686848181106119b9576119b9613743565b905060200201358a610e189092919063ffffffff16565b8382815181106119e2576119e2613743565b6020908102919091010152600101611975565b505095945050505050565b73ffffffffffffffffffffffffffffffffffffffff8416611a4d576040517f021149bd00000000000000000000000000000000000000000000000000000000815260040160405180910390fd5b611a598685858561273c565b604080518481526020810184905273ffffffffffffffffffffffffffffffffffffffff80871692600092918916917fc3d58168c5ae7397731d063d5bbf3d657854427343f4c083240f7aacaa2d0f62910160405180910390a473ffffffffffffffffffffffffffffffffffffffff84163b156109455761094585600086868686612c54565b620186a0811115611b1e576040517fac040408000000000000000000000000000000000000000000000000000000008152600481018290526024016107ad565b81546bffffffffffffffffffffffff909116740100000000000000000000000000000000000000000273ffffffffffffffffffffffffffffffffffffffff909116179055565b848381141580611b745750808214155b15611bab576040517f6582533600000000000000000000000000000000000000000000000000000000815260040160405180910390fd5b60005b8181101561069857611c3d888883818110611bcb57611bcb613743565b9050602002016020810190611be09190613215565b858584818110611bf257611bf2613743565b90506020020135888885818110611c0b57611c0b613743565b9050602002016020810190611c209190613215565b73ffffffffffffffffffffffffffffffffffffffff169190612d72565b600101611bae565b611c508382846110a0565b60008181526020848152604080832073ffffffffffffffffffffffffffffffffffffffff86168085529083529281902080547fffffffffffffffffffffffffffffffffffffffffffffffffffffffffffffff0016905580518481529182018390528101919091527ff6391f5c32d9c69d2a47ea670b442974b53935d1edc7fd64eb21e047a839171b9060600160405180910390a1505050565b73ffffffffffffffffffffffffffffffffffffffff811661143b576040517f16de0c8000000000000000000000000000000000000000000000000000000000815260040160405180910390fd5b6060816001018054610fe390613819565b610bb2828261290b565b8273ffffffffffffffffffffffffffffffffffffffff168273ffffffffffffffffffffffffffffffffffffffff1603611dce576040517ffb0fdf6100000000000000000000000000000000000000000000000000000000815273ffffffffffffffffffffffffffffffffffffffff841660048201526024016107ad565b73ffffffffffffffffffffffffffffffffffffffff838116600081815260018701602090815260408083209487168084529482529182902080547fffffffffffffffffffffffffffffffffffffffffffffffffffffffffffffff001686151590811790915591519182527f17307eab39ab6107e8899845ad3d59bd9653f200f220920489ca2b5937696c31910160405180910390a350505050565b848381141580611e795750808214155b15611eb0576040517f6582533600000000000000000000000000000000000000000000000000000000815260040160405180910390fd5b60005b81811015610698576000868683818110611ecf57611ecf613743565b9050602002016020810190611ee49190613215565b6040517f01ffc9a70000000000000000000000000000000000000000000000000000000081527f80ac58cd00000000000000000000000000000000000000000000000000000000600482015290915073ffffffffffffffffffffffffffffffffffffffff8216906301ffc9a790602401602060405180830381865afa158015611f71573d6000803e3d6000fd5b505050506040513d601f19601f82011682018060405250810190611f959190613a78565b611fe3576040517f986b9f1f00000000000000000000000000000000000000000000000000000000815273ffffffffffffffffffffffffffffffffffffffff821660048201526024016107ad565b868683818110611ff557611ff5613743565b905060200201602081019061200a9190613215565b73ffffffffffffffffffffffffffffffffffffffff166342842e0e308b8b8681811061203857612038613743565b905060200201602081019061204d9190613215565b88888781811061205f5761205f613743565b6040517fffffffff0000000000000000000000000000000000000000000000000000000060e088901b16815273ffffffffffffffffffffffffffffffffffffffff958616600482015294909316602485015250602090910201356044820152606401600060405180830381600087803b1580156120db57600080fd5b505af11580156120ef573d6000803e3d6000fd5b5050505050806001019050611eb3565b60008381526020858152604080832073ffffffffffffffffffffffffffffffffffffffff8616845290915290205460ff1615610de45760008381526020858152604080832073ffffffffffffffffffffffffffffffffffffffff8681168086529184529382902080547fffffffffffffffffffffffffffffffffffffffffffffffffffffffffffffff00169055815187815292830152918316918101919091527ff6391f5c32d9c69d2a47ea670b442974b53935d1edc7fd64eb21e047a839171b906060016118e3565b83518351811415806121dc575082518114155b15612213576040517f6582533600000000000000000000000000000000000000000000000000000000815260040160405180910390fd5b60005b81811015610698576122848787838151811061223457612234613743565b602002602001015187848151811061224e5761224e613743565b602002602001015187858151811061226857612268613743565b6020026020010151878d611a009095949392919063ffffffff16565b600101612216565b73ffffffffffffffffffffffffffffffffffffffff85166122d9576040517fb5e8901500000000000000000000000000000000000000000000000000000000815260040160405180910390fd5b6122e4888789612a32565b61233a576040517f05bbb9c400000000000000000000000000000000000000000000000000000000815273ffffffffffffffffffffffffffffffffffffffff8089166004830152871660248201526044016107ad565b6123478887878787612aa7565b8473ffffffffffffffffffffffffffffffffffffffff168673ffffffffffffffffffffffffffffffffffffffff168873ffffffffffffffffffffffffffffffffffffffff167fc3d58168c5ae7397731d063d5bbf3d657854427343f4c083240f7aacaa2d0f6287876040516123c6929190918252602082015260400190565b60405180910390a473ffffffffffffffffffffffffffffffffffffffff85163b1561069857610698878787878787878080601f016020809104026020016040519081016040528093929190818152602001838380828437600092019190915250612c5492505050565b825473ffffffffffffffffffffffffffffffffffffffff908116908316811461249c576040517f2ef4875e00000000000000000000000000000000000000000000000000000000815273ffffffffffffffffffffffffffffffffffffffff841660048201526024016107ad565b8173ffffffffffffffffffffffffffffffffffffffff168173ffffffffffffffffffffffffffffffffffffffff1614610de45783547fffffffffffffffffffffffff00000000000000000000000000000000000000001673ffffffffffffffffffffffffffffffffffffffff8381169182178655604051908316907f8be0079c531659141344cd1fd0a4f28419497f9722a3daafe3b4186f6b6457e090600090a350505050565b8281811461257d576040517f6582533600000000000000000000000000000000000000000000000000000000815260040160405180910390fd5b60005b81811015610945576125e784848381811061259d5761259d613743565b905060200201358787848181106125b6576125b6613743565b90506020020160208101906125cb9190613215565b73ffffffffffffffffffffffffffffffffffffffff1690612dff565b600101612580565b6000333214806125ff5750601836105b1561260957503390565b7fffffffffffffffffffffffffffffffffffffffffffffffffffffffffffffffec36013560601c7f000000000000000000000000000000000000000000000000000000000000000073ffffffffffffffffffffffffffffffffffffffff1633148061272b57506040517f019a202800000000000000000000000000000000000000000000000000000000815273ffffffffffffffffffffffffffffffffffffffff82811660048301523360248301523060448301527f0000000000000000000000000000000000000000000000000000000000000000169063019a202890606401602060405180830381865afa158015612707573d6000803e3d6000fd5b505050506040513d601f19601f8201168201806040525081019061272b9190613a78565b1561273557919050565b3391505090565b8015610de45760008281526020858152604080832073ffffffffffffffffffffffffffffffffffffffff871684529091529020548181018181116127d9576040517f42fb00bc00000000000000000000000000000000000000000000000000000000815273ffffffffffffffffffffffffffffffffffffffff861660048201526024810185905260448101839052606481018490526084016107ad565b60009384526020958652604080852073ffffffffffffffffffffffffffffffffffffffff9690961685529490955250502055565b6040517fbc197c81000000000000000000000000000000000000000000000000000000008082529073ffffffffffffffffffffffffffffffffffffffff86169063bc197c8190612869908a908a90899089908990600401613a95565b6020604051808303816000875af1158015612888573d6000803e3d6000fd5b505050506040513d601f19601f820116820180604052508101906128ac9190613b12565b7fffffffff000000000000000000000000000000000000000000000000000000001614610945578383836040517fc287817e0000000000000000000000000000000000000000000000000000000081526004016107ad93929190613b2f565b815473ffffffffffffffffffffffffffffffffffffffff168015801590612949575060008173ffffffffffffffffffffffffffffffffffffffff163b115b15610893576040517fc617113400000000000000000000000000000000000000000000000000000000815230600482015273ffffffffffffffffffffffffffffffffffffffff838116602483015282169063c617113490604401602060405180830381865afa1580156129c0573d6000803e3d6000fd5b505050506040513d601f19601f820116820180604052508101906129e49190613a78565b610893576040517fede71dcc00000000000000000000000000000000000000000000000000000000815273ffffffffffffffffffffffffffffffffffffffff831660048201526024016107ad565b60008173ffffffffffffffffffffffffffffffffffffffff168373ffffffffffffffffffffffffffffffffffffffff16148061136c57505073ffffffffffffffffffffffffffffffffffffffff9182166000908152600193909301602090815260408085209290931684525290205460ff1690565b8015610a9b5760008281526020868152604080832073ffffffffffffffffffffffffffffffffffffffff88168452909152902054818103818110612b44576040517f03dee4c500000000000000000000000000000000000000000000000000000000815273ffffffffffffffffffffffffffffffffffffffff871660048201526024810185905260448101839052606481018490526084016107ad565b8473ffffffffffffffffffffffffffffffffffffffff168673ffffffffffffffffffffffffffffffffffffffff1614610da95760008481526020888152604080832073ffffffffffffffffffffffffffffffffffffffff89168452909152902054838101818111612c0e576040517f42fb00bc00000000000000000000000000000000000000000000000000000000815273ffffffffffffffffffffffffffffffffffffffff881660048201526024810187905260448101839052606481018690526084016107ad565b600086815260208a8152604080832073ffffffffffffffffffffffffffffffffffffffff808d1685528184528285208890558b1684529091529020555050505050505050565b6040517ff23a6e61000000000000000000000000000000000000000000000000000000008082529073ffffffffffffffffffffffffffffffffffffffff86169063f23a6e6190612cb0908a908a90899089908990600401613b7a565b6020604051808303816000875af1158015612ccf573d6000803e3d6000fd5b505050506040513d601f19601f82011682018060405250810190612cf39190613b12565b7fffffffff000000000000000000000000000000000000000000000000000000001614610945576040517f40f39d3800000000000000000000000000000000000000000000000000000000815273ffffffffffffffffffffffffffffffffffffffff8516600482015260248101849052604481018390526064016107ad565b6040805173ffffffffffffffffffffffffffffffffffffffff8416602482015260448082018490528251808303909101815260649091019091526020810180517bffffffffffffffffffffffffffffffffffffffffffffffffffffffff167fa9059cbb00000000000000000000000000000000000000000000000000000000179052610893908490612eb5565b80471015612e42576040517fcf479181000000000000000000000000000000000000000000000000000000008152476004820152602481018290526044016107ad565b6000808373ffffffffffffffffffffffffffffffffffffffff168360405160006040518083038185875af1925050503d8060008114612e9d576040519150601f19603f3d011682016040523d82523d6000602084013e612ea2565b606091505b509150915081610de457610de481612f59565b600080602060008451602086016000885af180612ed8576040513d6000823e3d81fd5b50506000513d91508115612ef0578060011415612f0a565b73ffffffffffffffffffffffffffffffffffffffff84163b155b15610de4576040517f5274afe700000000000000000000000000000000000000000000000000000000815273ffffffffffffffffffffffffffffffffffffffff851660048201526024016107ad565b805115612f695780518082602001fd5b6040517fd6bda27500000000000000000000000000000000000000000000000000000000815260040160405180910390fd5b73ffffffffffffffffffffffffffffffffffffffff8116811461072057600080fd5b60008060408385031215612fd057600080fd5b8235612fdb81612f9b565b946020939093013593505050565b7fffffffff000000000000000000000000000000000000000000000000000000008116811461072057600080fd5b60006020828403121561302957600080fd5b813561303481612fe9565b9392505050565b60005b8381101561305657818101518382015260200161303e565b50506000910152565b6000815180845261307781602086016020860161303b565b601f017fffffffffffffffffffffffffffffffffffffffffffffffffffffffffffffffe0169290920160200192915050565b602081526000610573602083018461305f565b60008083601f8401126130ce57600080fd5b50813567ffffffffffffffff8111156130e657600080fd5b6020830191508360208260051b850101111561081157600080fd5b60008083601f84011261311357600080fd5b50813567ffffffffffffffff81111561312b57600080fd5b60208301915083602082850101111561081157600080fd5b60008060008060008060006080888a03121561315e57600080fd5b873561316981612f9b565b9650602088013567ffffffffffffffff81111561318557600080fd5b6131918a828b016130bc565b909750955050604088013567ffffffffffffffff8111156131b157600080fd5b6131bd8a828b016130bc565b909550935050606088013567ffffffffffffffff8111156131dd57600080fd5b6131e98a828b01613101565b989b979a50959850939692959293505050565b60006020828403121561320e57600080fd5b5035919050565b60006020828403121561322757600080fd5b813561303481612f9b565b60008060006040848603121561324757600080fd5b83359250602084013567ffffffffffffffff81111561326557600080fd5b61327186828701613101565b9497909650939450505050565b6000806040838503121561329157600080fd5b50508035926020909101359150565b60008060008060008060008060a0898b0312156132bc57600080fd5b88356132c781612f9b565b975060208901356132d781612f9b565b9650604089013567ffffffffffffffff8111156132f357600080fd5b6132ff8b828c016130bc565b909750955050606089013567ffffffffffffffff81111561331f57600080fd5b61332b8b828c016130bc565b909550935050608089013567ffffffffffffffff81111561334b57600080fd5b6133578b828c01613101565b999c989b5096995094979396929594505050565b6000806040838503121561337e57600080fd5b82359150602083013561339081612f9b565b809150509250929050565b600080600080604085870312156133b157600080fd5b843567ffffffffffffffff8111156133c857600080fd5b6133d4878288016130bc565b909550935050602085013567ffffffffffffffff8111156133f457600080fd5b613400878288016130bc565b95989497509550505050565b600081518084526020840193506020830160005b8281101561343e578151865260209586019590910190600101613420565b5093949350505050565b602081526000610573602083018461340c565b60008060008060006080868803121561347357600080fd5b853561347e81612f9b565b94506020860135935060408601359250606086013567ffffffffffffffff8111156134a857600080fd5b6134b488828901613101565b969995985093965092949392505050565b600080600080600080606087890312156134de57600080fd5b863567ffffffffffffffff8111156134f557600080fd5b61350189828a016130bc565b909750955050602087013567ffffffffffffffff81111561352157600080fd5b61352d89828a016130bc565b909550935050604087013567ffffffffffffffff81111561354d57600080fd5b61355989828a016130bc565b979a9699509497509295939492505050565b801515811461072057600080fd5b6000806040838503121561358c57600080fd5b823561359781612f9b565b915060208301356133908161356b565b6000806000806000806000806080898b0312156135c357600080fd5b883567ffffffffffffffff8111156135da57600080fd5b6135e68b828c016130bc565b909950975050602089013567ffffffffffffffff81111561360657600080fd5b6136128b828c016130bc565b909750955050604089013567ffffffffffffffff81111561363257600080fd5b61363e8b828c016130bc565b909550935050606089013567ffffffffffffffff81111561334b57600080fd5b6000806040838503121561367157600080fd5b823561367c81612f9b565b9150602083013561339081612f9b565b60008060008060008060a087890312156136a557600080fd5b86356136b081612f9b565b955060208701356136c081612f9b565b94506040870135935060608701359250608087013567ffffffffffffffff8111156136ea57600080fd5b61355989828a01613101565b60208152816020820152818360408301376000818301604090810191909152601f9092017fffffffffffffffffffffffffffffffffffffffffffffffffffffffffffffffe0160101919050565b7f4e487b7100000000000000000000000000000000000000000000000000000000600052603260045260246000fd5b60008083357fffffffffffffffffffffffffffffffffffffffffffffffffffffffffffffffe18436030181126137a757600080fd5b83018035915067ffffffffffffffff8211156137c257600080fd5b60200191503681900382131561081157600080fd5b7f4e487b7100000000000000000000000000000000000000000000000000000000600052601160045260246000fd5b81810381811115610576576105766137d7565b600181811c9082168061382d57607f821691505b602082108103613866577f4e487b7100000000000000000000000000000000000000000000000000000000600052602260045260246000fd5b50919050565b60408152600061387f604083018561340c565b82810360208401526108b2818561340c565b7f4e487b7100000000000000000000000000000000000000000000000000000000600052604160045260246000fd5b6000602082840312156138d257600080fd5b815167ffffffffffffffff8111156138e957600080fd5b8201601f810184136138fa57600080fd5b805167ffffffffffffffff81111561391457613914613891565b6040517fffffffffffffffffffffffffffffffffffffffffffffffffffffffffffffffe0603f7fffffffffffffffffffffffffffffffffffffffffffffffffffffffffffffffe0601f8501160116810181811067ffffffffffffffff8211171561398057613980613891565b60405281815282820160200186101561399857600080fd5b6108b282602083016020860161303b565b8082028115828204841417610576576105766137d7565b6000826139f6577f4e487b7100000000000000000000000000000000000000000000000000000000600052601260045260246000fd5b500490565b81835260007f07ffffffffffffffffffffffffffffffffffffffffffffffffffffffffffffff831115613a2d57600080fd5b8260051b80836020870137939093016020019392505050565b604081526000613a5a6040830186886139fb565b8281036020840152613a6d8185876139fb565b979650505050505050565b600060208284031215613a8a57600080fd5b81516130348161356b565b73ffffffffffffffffffffffffffffffffffffffff8616815273ffffffffffffffffffffffffffffffffffffffff8516602082015260a060408201526000613ae060a083018661340c565b8281036060840152613af2818661340c565b90508281036080840152613b06818561305f565b98975050505050505050565b600060208284031215613b2457600080fd5b815161303481612fe9565b73ffffffffffffffffffffffffffffffffffffffff84168152606060208201526000613b5e606083018561340c565b8281036040840152613b70818561340c565b9695505050505050565b73ffffffffffffffffffffffffffffffffffffffff8616815273ffffffffffffffffffffffffffffffffffffffff8516602082015283604082015282606082015260a060808201526000613a6d60a083018461305f56fea2646970667358221220fbc562dec6c77880b057c67a17471e411db58169332b7a7e6b8ac138aadaf5df64736f6c634300081c0033",
  "linkReferences": {},
  "deployedLinkReferences": {}
}