{
  "_format": "hh-sol-artifact-1",
  "contractName": "ERC1155Full",
  "sourceName": "contracts/token/ERC1155/preset/ERC1155Full.sol",
  "abi": [
    {
      "inputs": [
        {
          "internalType": "string",
          "name": "tokenName",
          "type": "string"
        },
        {
          "internalType": "string",
          "name": "tokenSymbol",
          "type": "string"
        },
        {
          "internalType": "contract ITokenMetadataResolver",
          "name": "metadataResolver",
          "type": "address"
        },
        {
          "internalType": "contract IOperatorFilterRegistry",
          "name": "filterRegistry",
          "type": "address"
        },
        {
          "internalType": "contract IForwarderRegistry",
          "name": "forwarderRegistry",
          "type": "address"
        }
      ],
      "stateMutability": "nonpayable",
      "type": "constructor"
    },
    {
      "inputs": [
        {
          "internalType": "address",
          "name": "target",
          "type": "address"
        }
      ],
      "name": "AddressEmptyCode",
      "type": "error"
    },
    {
      "inputs": [
        {
          "internalType": "address",
          "name": "account",
          "type": "address"
        }
      ],
      "name": "AddressInsufficientBalance",
      "type": "error"
    },
    {
      "inputs": [],
      "name": "ERC1155BalanceOfAddressZero",
      "type": "error"
    },
    {
      "inputs": [
        {
          "internalType": "address",
          "name": "recipient",
          "type": "address"
        },
        {
          "internalType": "uint256",
          "name": "id",
          "type": "uint256"
        },
        {
          "internalType": "uint256",
          "name": "balance",
          "type": "uint256"
        },
        {
          "internalType": "uint256",
          "name": "value",
          "type": "uint256"
        }
      ],
      "name": "ERC1155BalanceOverflow",
      "type": "error"
    },
    {
      "inputs": [
        {
          "internalType": "address",
          "name": "owner",
          "type": "address"
        },
        {
          "internalType": "uint256",
          "name": "id",
          "type": "uint256"
        },
        {
          "internalType": "uint256",
          "name": "balance",
          "type": "uint256"
        },
        {
          "internalType": "uint256",
          "name": "value",
          "type": "uint256"
        }
      ],
      "name": "ERC1155InsufficientBalance",
      "type": "error"
    },
    {
      "inputs": [],
      "name": "ERC1155MintToAddressZero",
      "type": "error"
    },
    {
      "inputs": [
        {
          "internalType": "address",
          "name": "sender",
          "type": "address"
        },
        {
          "internalType": "address",
          "name": "owner",
          "type": "address"
        }
      ],
      "name": "ERC1155NonApproved",
      "type": "error"
    },
    {
      "inputs": [
        {
          "internalType": "address",
          "name": "recipient",
          "type": "address"
        },
        {
          "internalType": "uint256[]",
          "name": "ids",
          "type": "uint256[]"
        },
        {
          "internalType": "uint256[]",
          "name": "values",
          "type": "uint256[]"
        }
      ],
      "name": "ERC1155SafeBatchTransferRejected",
      "type": "error"
    },
    {
      "inputs": [
        {
          "internalType": "address",
          "name": "recipient",
          "type": "address"
        },
        {
          "internalType": "uint256",
          "name": "id",
          "type": "uint256"
        },
        {
          "internalType": "uint256",
          "name": "value",
          "type": "uint256"
        }
      ],
      "name": "ERC1155SafeTransferRejected",
      "type": "error"
    },
    {
      "inputs": [
        {
          "internalType": "address",
          "name": "account",
          "type": "address"
        }
      ],
      "name": "ERC1155SelfApprovalForAll",
      "type": "error"
    },
    {
      "inputs": [],
      "name": "ERC1155TransferToAddressZero",
      "type": "error"
    },
    {
      "inputs": [
        {
          "internalType": "uint256",
          "name": "percentage",
          "type": "uint256"
        }
      ],
      "name": "ERC2981IncorrectRoyaltyPercentage",
      "type": "error"
    },
    {
      "inputs": [],
      "name": "ERC2981IncorrectRoyaltyReceiver",
      "type": "error"
    },
    {
      "inputs": [],
      "name": "FailedInnerCall",
      "type": "error"
    },
    {
      "inputs": [],
      "name": "IllegalInterfaceId",
      "type": "error"
    },
    {
      "inputs": [],
      "name": "InconsistentArrayLengths",
      "type": "error"
    },
    {
      "inputs": [
        {
          "internalType": "address",
          "name": "tokenContract",
          "type": "address"
        }
      ],
      "name": "IncorrectTokenContractType",
      "type": "error"
    },
    {
      "inputs": [
        {
          "internalType": "address",
          "name": "account",
          "type": "address"
        }
      ],
      "name": "NotContractOwner",
      "type": "error"
    },
    {
      "inputs": [
        {
          "internalType": "address",
          "name": "account",
          "type": "address"
        }
      ],
      "name": "NotMetadataResolver",
      "type": "error"
    },
    {
      "inputs": [
        {
          "internalType": "bytes32",
          "name": "role",
          "type": "bytes32"
        },
        {
          "internalType": "address",
          "name": "account",
          "type": "address"
        }
      ],
      "name": "NotRoleHolder",
      "type": "error"
    },
    {
      "inputs": [
        {
          "internalType": "address",
          "name": "operator",
          "type": "address"
        }
      ],
      "name": "OperatorNotAllowed",
      "type": "error"
    },
    {
      "inputs": [
        {
          "internalType": "address",
          "name": "token",
          "type": "address"
        }
      ],
      "name": "SafeERC20FailedOperation",
      "type": "error"
    },
    {
      "anonymous": false,
      "inputs": [
        {
          "indexed": true,
          "internalType": "address",
          "name": "owner",
          "type": "address"
        },
        {
          "indexed": true,
          "internalType": "address",
          "name": "operator",
          "type": "address"
        },
        {
          "indexed": false,
          "internalType": "bool",
          "name": "approved",
          "type": "bool"
        }
      ],
      "name": "ApprovalForAll",
      "type": "event"
    },
    {
      "anonymous": false,
      "inputs": [
        {
          "indexed": true,
          "internalType": "address",
          "name": "previousOwner",
          "type": "address"
        },
        {
          "indexed": true,
          "internalType": "address",
          "name": "newOwner",
          "type": "address"
        }
      ],
      "name": "OwnershipTransferred",
      "type": "event"
    },
    {
      "anonymous": false,
      "inputs": [
        {
          "indexed": false,
          "internalType": "bytes32",
          "name": "role",
          "type": "bytes32"
        },
        {
          "indexed": false,
          "internalType": "address",
          "name": "account",
          "type": "address"
        },
        {
          "indexed": false,
          "internalType": "address",
          "name": "operator",
          "type": "address"
        }
      ],
      "name": "RoleGranted",
      "type": "event"
    },
    {
      "anonymous": false,
      "inputs": [
        {
          "indexed": false,
          "internalType": "bytes32",
          "name": "role",
          "type": "bytes32"
        },
        {
          "indexed": false,
          "internalType": "address",
          "name": "account",
          "type": "address"
        },
        {
          "indexed": false,
          "internalType": "address",
          "name": "operator",
          "type": "address"
        }
      ],
      "name": "RoleRevoked",
      "type": "event"
    },
    {
      "anonymous": false,
      "inputs": [
        {
          "indexed": true,
          "internalType": "address",
          "name": "operator",
          "type": "address"
        },
        {
          "indexed": true,
          "internalType": "address",
          "name": "from",
          "type": "address"
        },
        {
          "indexed": true,
          "internalType": "address",
          "name": "to",
          "type": "address"
        },
        {
          "indexed": false,
          "internalType": "uint256[]",
          "name": "ids",
          "type": "uint256[]"
        },
        {
          "indexed": false,
          "internalType": "uint256[]",
          "name": "values",
          "type": "uint256[]"
        }
      ],
      "name": "TransferBatch",
      "type": "event"
    },
    {
      "anonymous": false,
      "inputs": [
        {
          "indexed": true,
          "internalType": "address",
          "name": "operator",
          "type": "address"
        },
        {
          "indexed": true,
          "internalType": "address",
          "name": "from",
          "type": "address"
        },
        {
          "indexed": true,
          "internalType": "address",
          "name": "to",
          "type": "address"
        },
        {
          "indexed": false,
          "internalType": "uint256",
          "name": "id",
          "type": "uint256"
        },
        {
          "indexed": false,
          "internalType": "uint256",
          "name": "value",
          "type": "uint256"
        }
      ],
      "name": "TransferSingle",
      "type": "event"
    },
    {
      "anonymous": false,
      "inputs": [
        {
          "indexed": false,
          "internalType": "string",
          "name": "value",
          "type": "string"
        },
        {
          "indexed": true,
          "internalType": "uint256",
          "name": "id",
          "type": "uint256"
        }
      ],
      "name": "URI",
      "type": "event"
    },
    {
      "inputs": [],
      "name": "MINTER_ROLE",
      "outputs": [
        {
          "internalType": "bytes32",
          "name": "",
          "type": "bytes32"
        }
      ],
      "stateMutability": "view",
      "type": "function"
    },
    {
      "inputs": [],
      "name": "ROYALTY_FEE_DENOMINATOR",
      "outputs": [
        {
          "internalType": "uint256",
          "name": "",
          "type": "uint256"
        }
      ],
      "stateMutability": "view",
      "type": "function"
    },
    {
      "inputs": [
        {
          "internalType": "address",
          "name": "owner",
          "type": "address"
        },
        {
          "internalType": "uint256",
          "name": "id",
          "type": "uint256"
        }
      ],
      "name": "balanceOf",
      "outputs": [
        {
          "internalType": "uint256",
          "name": "balance",
          "type": "uint256"
        }
      ],
      "stateMutability": "view",
      "type": "function"
    },
    {
      "inputs": [
        {
          "internalType": "address[]",
          "name": "owners",
          "type": "address[]"
        },
        {
          "internalType": "uint256[]",
          "name": "ids",
          "type": "uint256[]"
        }
      ],
      "name": "balanceOfBatch",
      "outputs": [
        {
          "internalType": "uint256[]",
          "name": "balances",
          "type": "uint256[]"
        }
      ],
      "stateMutability": "view",
      "type": "function"
    },
    {
      "inputs": [
        {
          "internalType": "uint256[]",
          "name": "tokenIds",
          "type": "uint256[]"
        },
        {
          "internalType": "string[]",
          "name": "tokenURIs",
          "type": "string[]"
        }
      ],
      "name": "batchSetTokenURI",
      "outputs": [],
      "stateMutability": "nonpayable",
      "type": "function"
    },
    {
      "inputs": [],
      "name": "forwarderRegistry",
      "outputs": [
        {
          "internalType": "contract IForwarderRegistry",
          "name": "",
          "type": "address"
        }
      ],
      "stateMutability": "view",
      "type": "function"
    },
    {
      "inputs": [
        {
          "internalType": "bytes32",
          "name": "role",
          "type": "bytes32"
        },
        {
          "internalType": "address",
          "name": "account",
          "type": "address"
        }
      ],
      "name": "grantRole",
      "outputs": [],
      "stateMutability": "nonpayable",
      "type": "function"
    },
    {
      "inputs": [
        {
          "internalType": "bytes32",
          "name": "role",
          "type": "bytes32"
        },
        {
          "internalType": "address",
          "name": "account",
          "type": "address"
        }
      ],
      "name": "hasRole",
      "outputs": [
        {
          "internalType": "bool",
          "name": "hasRole_",
          "type": "bool"
        }
      ],
      "stateMutability": "view",
      "type": "function"
    },
    {
      "inputs": [
        {
          "internalType": "address",
          "name": "owner",
          "type": "address"
        },
        {
          "internalType": "address",
          "name": "operator",
          "type": "address"
        }
      ],
      "name": "isApprovedForAll",
      "outputs": [
        {
          "internalType": "bool",
          "name": "approvedForAll",
          "type": "bool"
        }
      ],
      "stateMutability": "view",
      "type": "function"
    },
    {
      "inputs": [
        {
          "internalType": "address",
          "name": "forwarder",
          "type": "address"
        }
      ],
      "name": "isTrustedForwarder",
      "outputs": [
        {
          "internalType": "bool",
          "name": "",
          "type": "bool"
        }
      ],
      "stateMutability": "view",
      "type": "function"
    },
    {
      "inputs": [],
      "name": "metadataResolver",
      "outputs": [
        {
          "internalType": "contract ITokenMetadataResolver",
          "name": "tokenMetadataResolver",
          "type": "address"
        }
      ],
      "stateMutability": "view",
      "type": "function"
    },
    {
      "inputs": [],
      "name": "name",
      "outputs": [
        {
          "internalType": "string",
          "name": "tokenName",
          "type": "string"
        }
      ],
      "stateMutability": "view",
      "type": "function"
    },
    {
      "inputs": [],
      "name": "operatorFilterRegistry",
      "outputs": [
        {
          "internalType": "contract IOperatorFilterRegistry",
          "name": "",
          "type": "address"
        }
      ],
      "stateMutability": "view",
      "type": "function"
    },
    {
      "inputs": [],
      "name": "owner",
      "outputs": [
        {
          "internalType": "address",
          "name": "",
          "type": "address"
        }
      ],
      "stateMutability": "view",
      "type": "function"
    },
    {
      "inputs": [
        {
          "internalType": "address[]",
          "name": "accounts",
          "type": "address[]"
        },
        {
          "internalType": "contract IERC20[]",
          "name": "tokens",
          "type": "address[]"
        },
        {
          "internalType": "uint256[]",
          "name": "amounts",
          "type": "uint256[]"
        }
      ],
      "name": "recoverERC20s",
      "outputs": [],
      "stateMutability": "nonpayable",
      "type": "function"
    },
    {
      "inputs": [
        {
          "internalType": "address[]",
          "name": "accounts",
          "type": "address[]"
        },
        {
          "internalType": "contract IERC721[]",
          "name": "contracts",
          "type": "address[]"
        },
        {
          "internalType": "uint256[]",
          "name": "tokenIds",
          "type": "uint256[]"
        }
      ],
      "name": "recoverERC721s",
      "outputs": [],
      "stateMutability": "nonpayable",
      "type": "function"
    },
    {
      "inputs": [
        {
          "internalType": "address payable[]",
          "name": "accounts",
          "type": "address[]"
        },
        {
          "internalType": "uint256[]",
          "name": "amounts",
          "type": "uint256[]"
        }
      ],
      "name": "recoverETH",
      "outputs": [],
      "stateMutability": "nonpayable",
      "type": "function"
    },
    {
      "inputs": [
        {
          "internalType": "bytes32",
          "name": "role",
          "type": "bytes32"
        }
      ],
      "name": "renounceRole",
      "outputs": [],
      "stateMutability": "nonpayable",
      "type": "function"
    },
    {
      "inputs": [
        {
          "internalType": "bytes32",
          "name": "role",
          "type": "bytes32"
        },
        {
          "internalType": "address",
          "name": "account",
          "type": "address"
        }
      ],
      "name": "revokeRole",
      "outputs": [],
      "stateMutability": "nonpayable",
      "type": "function"
    },
    {
      "inputs": [
        {
          "internalType": "uint256",
          "name": "tokenId",
          "type": "uint256"
        },
        {
          "internalType": "uint256",
          "name": "salePrice",
          "type": "uint256"
        }
      ],
      "name": "royaltyInfo",
      "outputs": [
        {
          "internalType": "address",
          "name": "receiver",
          "type": "address"
        },
        {
          "internalType": "uint256",
          "name": "royaltyAmount",
          "type": "uint256"
        }
      ],
      "stateMutability": "view",
      "type": "function"
    },
    {
      "inputs": [
        {
          "internalType": "address",
          "name": "to",
          "type": "address"
        },
        {
          "internalType": "uint256[]",
          "name": "ids",
          "type": "uint256[]"
        },
        {
          "internalType": "uint256[]",
          "name": "values",
          "type": "uint256[]"
        },
        {
          "internalType": "bytes",
          "name": "data",
          "type": "bytes"
        }
      ],
      "name": "safeBatchMint",
      "outputs": [],
      "stateMutability": "nonpayable",
      "type": "function"
    },
    {
      "inputs": [
        {
          "internalType": "address",
          "name": "from",
          "type": "address"
        },
        {
          "internalType": "address",
          "name": "to",
          "type": "address"
        },
        {
          "internalType": "uint256[]",
          "name": "ids",
          "type": "uint256[]"
        },
        {
          "internalType": "uint256[]",
          "name": "values",
          "type": "uint256[]"
        },
        {
          "internalType": "bytes",
          "name": "data",
          "type": "bytes"
        }
      ],
      "name": "safeBatchTransferFrom",
      "outputs": [],
      "stateMutability": "nonpayable",
      "type": "function"
    },
    {
      "inputs": [
        {
          "internalType": "address[]",
          "name": "recipients",
          "type": "address[]"
        },
        {
          "internalType": "uint256[]",
          "name": "ids",
          "type": "uint256[]"
        },
        {
          "internalType": "uint256[]",
          "name": "values",
          "type": "uint256[]"
        },
        {
          "internalType": "bytes",
          "name": "data",
          "type": "bytes"
        }
      ],
      "name": "safeDeliver",
      "outputs": [],
      "stateMutability": "nonpayable",
      "type": "function"
    },
    {
      "inputs": [
        {
          "internalType": "address",
          "name": "to",
          "type": "address"
        },
        {
          "internalType": "uint256",
          "name": "id",
          "type": "uint256"
        },
        {
          "internalType": "uint256",
          "name": "value",
          "type": "uint256"
        },
        {
          "internalType": "bytes",
          "name": "data",
          "type": "bytes"
        }
      ],
      "name": "safeMint",
      "outputs": [],
      "stateMutability": "nonpayable",
      "type": "function"
    },
    {
      "inputs": [
        {
          "internalType": "address",
          "name": "from",
          "type": "address"
        },
        {
          "internalType": "address",
          "name": "to",
          "type": "address"
        },
        {
          "internalType": "uint256",
          "name": "id",
          "type": "uint256"
        },
        {
          "internalType": "uint256",
          "name": "value",
          "type": "uint256"
        },
        {
          "internalType": "bytes",
          "name": "data",
          "type": "bytes"
        }
      ],
      "name": "safeTransferFrom",
      "outputs": [],
      "stateMutability": "nonpayable",
      "type": "function"
    },
    {
      "inputs": [
        {
          "internalType": "address",
          "name": "operator",
          "type": "address"
        },
        {
          "internalType": "bool",
          "name": "approved",
          "type": "bool"
        }
      ],
      "name": "setApprovalForAll",
      "outputs": [],
      "stateMutability": "nonpayable",
      "type": "function"
    },
    {
      "inputs": [
        {
          "internalType": "uint256",
          "name": "percentage",
          "type": "uint256"
        }
      ],
      "name": "setRoyaltyPercentage",
      "outputs": [],
      "stateMutability": "nonpayable",
      "type": "function"
    },
    {
      "inputs": [
        {
          "internalType": "address",
          "name": "receiver",
          "type": "address"
        }
      ],
      "name": "setRoyaltyReceiver",
      "outputs": [],
      "stateMutability": "nonpayable",
      "type": "function"
    },
    {
      "inputs": [
        {
          "internalType": "uint256",
          "name": "tokenId",
          "type": "uint256"
        },
        {
          "internalType": "string",
          "name": "tokenURI",
          "type": "string"
        }
      ],
      "name": "setTokenURI",
      "outputs": [],
      "stateMutability": "nonpayable",
      "type": "function"
    },
    {
      "inputs": [
        {
          "internalType": "bytes4",
          "name": "interfaceId",
          "type": "bytes4"
        }
      ],
      "name": "supportsInterface",
      "outputs": [
        {
          "internalType": "bool",
          "name": "",
          "type": "bool"
        }
      ],
      "stateMutability": "view",
      "type": "function"
    },
    {
      "inputs": [],
      "name": "symbol",
      "outputs": [
        {
          "internalType": "string",
          "name": "tokenSymbol",
          "type": "string"
        }
      ],
      "stateMutability": "view",
      "type": "function"
    },
    {
      "inputs": [
        {
          "internalType": "address",
          "name": "newOwner",
          "type": "address"
        }
      ],
      "name": "transferOwnership",
      "outputs": [],
      "stateMutability": "nonpayable",
      "type": "function"
    },
    {
      "inputs": [
        {
          "internalType": "contract IOperatorFilterRegistry",
          "name": "registry",
          "type": "address"
        }
      ],
      "name": "updateOperatorFilterRegistry",
      "outputs": [],
      "stateMutability": "nonpayable",
      "type": "function"
    },
    {
      "inputs": [
        {
          "internalType": "uint256",
          "name": "tokenId",
          "type": "uint256"
        }
      ],
      "name": "uri",
      "outputs": [
        {
          "internalType": "string",
          "name": "metadataURI",
          "type": "string"
        }
      ],
      "stateMutability": "view",
      "type": "function"
    }
  ],
  "bytecode": "0x60a060405234801561001057600080fd5b506040516142a53803806142a583398101604081905261002f916103de565b80808686868633610048816100426100ce565b90610102565b50610051610178565b61007b8161005d61018f565b9081546001600160a01b0319166001600160a01b0391909116179055565b5061009283838361008a6101bd565b9291906101eb565b61009a61022e565b506100a6915050610243565b6100ae610258565b6100b661026d565b6001600160a01b0316608052506105e8945050505050565b6000806100fc60017fc9ed16f33ab3a66c84bfd83099ccb2a8845871e2e1c1928f63797152f0fd54cd61047d565b92915050565b6001600160a01b038116156101585781546001600160a01b0319166001600160a01b03821690811783556040516000907f8be0079c531659141344cd1fd0a4f28419497f9722a3daafe3b4186f6b6457e0908290a35b6101746307f5828d60e41b600161016d61027e565b91906102ac565b5050565b61018d636cdb3d1360e11b600161016d61027e565b565b6000806100fc60017f609b85bcafa81ecfaf3ff62cdde2c6c9082a68dbe4922f07399c706bdeb7cd3161047d565b6000806100fc60017f7ea68fd2dcf1c056b94db6a0a537aa80d26fa9ab1eacd85da1ba0b61b7e7a8a561047d565b836101f68482610529565b50600184016102058382610529565b5060029390930180546001600160a01b0319166001600160a01b03909416939093179092555050565b61018d6303a24d0760e21b600161016d61027e565b61018d631464324b60e21b600161016d61027e565b61018d633a2ae73360e21b600161016d61027e565b61018d63152a902d60e11b600161016d5b6000806100fc60017fca9d3e17f264b0f3984e2634e94adb37fa3e6a8103f06aeae6fa59e21c769f5e61047d565b600160e01b6001600160e01b03198316016102da576040516372c683bb60e01b815260040160405180910390fd5b6001600160e01b03199190911660009081526020929092526040909120805460ff1916911515919091179055565b634e487b7160e01b600052604160045260246000fd5b600082601f83011261032f57600080fd5b81516001600160401b038082111561034957610349610308565b604051601f8301601f19908116603f0116810190828211818310171561037157610371610308565b816040528381526020925086602085880101111561038e57600080fd5b600091505b838210156103b05785820183015181830184015290820190610393565b6000602085830101528094505050505092915050565b6001600160a01b03811681146103db57600080fd5b50565b600080600080600060a086880312156103f657600080fd5b85516001600160401b038082111561040d57600080fd5b61041989838a0161031e565b9650602088015191508082111561042f57600080fd5b5061043c8882890161031e565b945050604086015161044d816103c6565b606087015190935061045e816103c6565b608087015190925061046f816103c6565b809150509295509295909350565b818103818111156100fc57634e487b7160e01b600052601160045260246000fd5b600181811c908216806104b257607f821691505b6020821081036104d257634e487b7160e01b600052602260045260246000fd5b50919050565b601f821115610524576000816000526020600020601f850160051c810160208610156105015750805b601f850160051c820191505b818110156105205782815560010161050d565b5050505b505050565b81516001600160401b0381111561054257610542610308565b61055681610550845461049e565b846104d8565b602080601f83116001811461058b57600084156105735750858301515b600019600386901b1c1916600185901b178555610520565b600085815260208120601f198616915b828110156105ba5788860151825594840194600190910190840161059b565b50858210156105d85787850151600019600388901b60f8161c191681555b5050505050600190811b01905550565b608051613c8d61061860003960008181610317015281816103b20152818161276a01526127f80152613c8d6000f3fe608060405234801561001057600080fd5b50600436106102255760003560e01c80638bb9c5bf1161012a578063c3666c36116100bd578063e8ab9ccc1161008c578063f242432a11610071578063f242432a14610524578063f2fde38b14610537578063f7ba94bd1461054a57600080fd5b8063e8ab9ccc146104fe578063e985e9c51461051157600080fd5b8063c3666c36146104a7578063d5391393146104ba578063d547741f146104e1578063e1a8bf2c146104f457600080fd5b806395d89b41116100f957806395d89b411461047c578063a0c76f6214610484578063a22cb4651461048c578063b0ccc31e1461049f57600080fd5b80638bb9c5bf1461043b5780638da5cb5b1461044e5780638dc251e31461045657806391d148541461046957600080fd5b80632b4c9f16116101bd578063572b6c051161018c57806361ba27da1161017157806361ba27da146104025780636706467b1461041557806373c8a9581461042857600080fd5b8063572b6c05146103a25780635cfa9297146103ef57600080fd5b80632b4c9f16146103155780632eb2c2d61461035c5780632f2ff15d1461036f5780634e1273f41461038257600080fd5b80630e89341c116101f95780630e89341c1461029d578063114ba8ee146102b0578063162094c4146102c35780632a55205a146102d657600080fd5b8062fdd58e1461022a57806301ffc9a71461025057806306fdde03146102735780630d6a5bbb14610288575b600080fd5b61023d6102383660046130c2565b61055d565b6040519081526020015b60405180910390f35b61026361025e36600461311c565b61057c565b6040519015158152602001610247565b61027b610590565b60405161024791906131a7565b61029b610296366004613241565b6105a7565b005b61027b6102ab3660046132ee565b6106a2565b61029b6102be366004613307565b6106b8565b61029b6102d1366004613324565b610723565b6102e96102e4366004613370565b6107f5565b6040805173ffffffffffffffffffffffffffffffffffffffff9093168352602083019190915201610247565b7f00000000000000000000000000000000000000000000000000000000000000005b60405173ffffffffffffffffffffffffffffffffffffffff9091168152602001610247565b61029b61036a366004613392565b610818565b61029b61037d366004613451565b610865565b610395610390366004613481565b610898565b6040516102479190613529565b6102636103b0366004613307565b7f000000000000000000000000000000000000000000000000000000000000000073ffffffffffffffffffffffffffffffffffffffff90811691161490565b61029b6103fd36600461353c565b6108bb565b61029b6104103660046132ee565b61094d565b61029b610423366004613481565b61096a565b61029b6104363660046135a6565b610aa2565b61029b6104493660046132ee565b610b8e565b610337610ba9565b61029b610464366004613307565b610bd0565b610263610477366004613451565b610bed565b61027b610c31565b610337610c43565b61029b61049a36600461364e565b610c50565b610337610c89565b61029b6104b53660046135a6565b610c96565b61023d7f6d696e746572000000000000000000000000000000000000000000000000000081565b61029b6104ef366004613451565b610f37565b61023d620186a081565b61029b61050c36600461367c565b610f65565b61026361051f36600461371f565b61107f565b61029b61053236600461374d565b6110cd565b61029b610545366004613307565b61110d565b61029b610558366004613481565b611128565b6000610573838361056c6111df565b919061120d565b90505b92915050565b60006105768261058a611293565b906112c1565b60606105a261059d61139b565b6113c9565b905090565b60006105b161145f565b90506105e77f6d696e7465720000000000000000000000000000000000000000000000000000826105e0611469565b9190611497565b610698818989898080602002602001604051908101604052809392919081815260200183836020028082843760009201919091525050604080516020808d0282810182019093528c82529093508c92508b91829185019084908082843760009201919091525050604080516020601f8c018190048102820181019092528a815292508a915089908190840183828082843760009201919091525061068e92506111df915050565b949392919061151d565b5050505050505050565b606061057630836106b161139b565b91906116a3565b6106d16106c361145f565b6106cb61176b565b90611799565b610720816106dd611804565b9081547fffffffffffffffffffffffff00000000000000000000000000000000000000001673ffffffffffffffffffffffffffffffffffffffff91909116179055565b50565b61074b61072e61139b565b6002015473ffffffffffffffffffffffffffffffffffffffff1690565b73ffffffffffffffffffffffffffffffffffffffff163373ffffffffffffffffffffffffffffffffffffffff16146107b6576040517f220606710000000000000000000000000000000000000000000000000000000081523360048201526024015b60405180910390fd5b827f6bb7ff708619ba0610cba295a58592e0451dee2622938c8755667688daf3529b83836040516107e89291906137b7565b60405180910390a2505050565b60008061080c8484610805611874565b91906118a2565b915091505b9250929050565b600061082261145f565b9050610838818a610831611804565b919061194c565b61085a818a8a8a8a8a8a8a8a61084c6111df565b989796959493929190611989565b505050505050505050565b600061086f61145f565b905061087d816106cb61176b565b61089383838361088b611469565b929190611c12565b505050565b60606108b2858585856108a96111df565b93929190611ce9565b95945050505050565b60006108c561145f565b90506108f47f6d696e7465720000000000000000000000000000000000000000000000000000826105e0611469565b6109458187878787878080601f01602080910402602001604051908101604052809392919081815260200183838082843760009201919091525061093b92506111df915050565b9493929190611df8565b505050505050565b6109586106c361145f565b61072081610964611874565b90611ed6565b8281146109a3576040517f6582533600000000000000000000000000000000000000000000000000000000815260040160405180910390fd5b6109ae61072e61139b565b73ffffffffffffffffffffffffffffffffffffffff163373ffffffffffffffffffffffffffffffffffffffff1614610a14576040517f220606710000000000000000000000000000000000000000000000000000000081523360048201526024016107ad565b60005b83811015610a9b57848482818110610a3157610a31613804565b905060200201357f6bb7ff708619ba0610cba295a58592e0451dee2622938c8755667688daf3529b848484818110610a6b57610a6b613804565b9050602002810190610a7d9190613833565b604051610a8b9291906137b7565b60405180910390a2600101610a17565b5050505050565b610aad6106c361145f565b848381141580610abd5750808214155b15610af4576040517f6582533600000000000000000000000000000000000000000000000000000000815260040160405180910390fd5b60005b8181101561069857610b86888883818110610b1457610b14613804565b9050602002016020810190610b299190613307565b858584818110610b3b57610b3b613804565b90506020020135888885818110610b5457610b54613804565b9050602002016020810190610b699190613307565b73ffffffffffffffffffffffffffffffffffffffff169190611f5c565b600101610af7565b610720610b9961145f565b82610ba2611469565b9190611fe9565b60006105a2610bb661176b565b5473ffffffffffffffffffffffffffffffffffffffff1690565b610bdb6106c361145f565b61072081610be7611874565b9061208d565b60006105738383610bfc611469565b60009283526020908152604080842073ffffffffffffffffffffffffffffffffffffffff909316845291905290205460ff1690565b60606105a2610c3e61139b565b6120da565b60006105a261072e61139b565b8015610c6857610c6882610c62611804565b906120eb565b610c85610c7361145f565b8383610c7d6111df565b9291906120f5565b5050565b60006105a2610bb6611804565b610ca16106c361145f565b848381141580610cb15750808214155b15610ce8576040517f6582533600000000000000000000000000000000000000000000000000000000815260040160405180910390fd5b60005b81811015610698576000868683818110610d0757610d07613804565b9050602002016020810190610d1c9190613307565b6040517f01ffc9a70000000000000000000000000000000000000000000000000000000081527f80ac58cd00000000000000000000000000000000000000000000000000000000600482015290915073ffffffffffffffffffffffffffffffffffffffff8216906301ffc9a790602401602060405180830381865afa158015610da9573d6000803e3d6000fd5b505050506040513d601f19601f82011682018060405250810190610dcd9190613898565b610e1b576040517f986b9f1f00000000000000000000000000000000000000000000000000000000815273ffffffffffffffffffffffffffffffffffffffff821660048201526024016107ad565b868683818110610e2d57610e2d613804565b9050602002016020810190610e429190613307565b73ffffffffffffffffffffffffffffffffffffffff166342842e0e308b8b86818110610e7057610e70613804565b9050602002016020810190610e859190613307565b888887818110610e9757610e97613804565b6040517fffffffff0000000000000000000000000000000000000000000000000000000060e088901b16815273ffffffffffffffffffffffffffffffffffffffff958616600482015294909316602485015250602090910201356044820152606401600060405180830381600087803b158015610f1357600080fd5b505af1158015610f27573d6000803e3d6000fd5b5050505050806001019050610ceb565b6000610f4161145f565b9050610f4f816106cb61176b565b610893838383610f5d611469565b92919061220d565b6000610f6f61145f565b9050610f9e7f6d696e7465720000000000000000000000000000000000000000000000000000826105e0611469565b61085a818a8a8080602002602001604051908101604052809392919081815260200183836020028082843760009201919091525050604080516020808e0282810182019093528d82529093508d92508c91829185019084908082843760009201919091525050604080516020808d0282810182019093528c82529093508c92508b91829185019084908082843760009201919091525050604080516020601f8c018190048102820181019092528a815292508a915089908190840183828082843760009201919091525061107592506111df915050565b94939291906122d7565b6000610573838361108e6111df565b919073ffffffffffffffffffffffffffffffffffffffff9182166000908152600193909301602090815260408085209290931684525290205460ff1690565b60006110d761145f565b90506110e68188610831611804565b611104818888888888886110f86111df565b9695949392919061239a565b50505050505050565b61072061111861145f565b8261112161176b565b919061253d565b6111336106c361145f565b8281811461116d576040517f6582533600000000000000000000000000000000000000000000000000000000815260040160405180910390fd5b60005b81811015610945576111d784848381811061118d5761118d613804565b905060200201358787848181106111a6576111a6613804565b90506020020160208101906111bb9190613307565b73ffffffffffffffffffffffffffffffffffffffff1690612651565b600101611170565b60008061057660017f5ccf5846fa27a68fafc8e588671a68f5e67c2f9b56af4263806a4d71735e86136138e4565b600073ffffffffffffffffffffffffffffffffffffffff831661125c576040517fca2434a500000000000000000000000000000000000000000000000000000000815260040160405180910390fd5b5060008181526020848152604080832073ffffffffffffffffffffffffffffffffffffffff861684529091529020545b9392505050565b60008061057660017fca9d3e17f264b0f3984e2634e94adb37fa3e6a8103f06aeae6fa59e21c769f5e6138e4565b60007c01000000000000000000000000000000000000000000000000000000007fffffffff0000000000000000000000000000000000000000000000000000000083160161131157506000610576565b7ffe003659000000000000000000000000000000000000000000000000000000007fffffffff0000000000000000000000000000000000000000000000000000000083160161136257506001610576565b507fffffffff00000000000000000000000000000000000000000000000000000000166000908152602091909152604090205460ff1690565b60008061057660017f7ea68fd2dcf1c056b94db6a0a537aa80d26fa9ab1eacd85da1ba0b61b7e7a8a56138e4565b60608160000180546113da906138f7565b80601f0160208091040260200160405190810160405280929190818152602001828054611406906138f7565b80156114535780601f1061142857610100808354040283529160200191611453565b820191906000526020600020905b81548152906001019060200180831161143657829003601f168201915b50505050509050919050565b60006105a2612727565b60008061057660017fc8827d3282af6f37b64c3e9e6f3ac9df286ab0bb0fccd6f8661bf19adb368b236138e4565b60008281526020848152604080832073ffffffffffffffffffffffffffffffffffffffff8516845290915290205460ff16610893576040517f7aa728820000000000000000000000000000000000000000000000000000000081526004810183905273ffffffffffffffffffffffffffffffffffffffff821660248201526044016107ad565b73ffffffffffffffffffffffffffffffffffffffff841661156a576040517f021149bd00000000000000000000000000000000000000000000000000000000815260040160405180910390fd5b8251825181146115a6576040517f6582533600000000000000000000000000000000000000000000000000000000815260040160405180910390fd5b60005b818110156115f7576115ef88878784815181106115c8576115c8613804565b60200260200101518785815181106115e2576115e2613804565b6020026020010151612874565b6001016115a9565b508473ffffffffffffffffffffffffffffffffffffffff16600073ffffffffffffffffffffffffffffffffffffffff168773ffffffffffffffffffffffffffffffffffffffff167f4a39dc06d4c0dbc64b70af90fd698a233a518aa5d07e595d983b8c0526c8f7fb878760405161166f92919061394a565b60405180910390a473ffffffffffffffffffffffffffffffffffffffff85163b156111045761110486600087878787612945565b60028301546040517ff724dad700000000000000000000000000000000000000000000000000000000815273ffffffffffffffffffffffffffffffffffffffff848116600483015260248201849052606092169063f724dad790604401600060405180830381865afa15801561171d573d6000803e3d6000fd5b505050506040513d6000823e601f3d9081017fffffffffffffffffffffffffffffffffffffffffffffffffffffffffffffffe0168201604052611763919081019061399e565b949350505050565b60008061057660017fc9ed16f33ab3a66c84bfd83099ccb2a8845871e2e1c1928f63797152f0fd54cd6138e4565b815473ffffffffffffffffffffffffffffffffffffffff828116911614610c85576040517f2ef4875e00000000000000000000000000000000000000000000000000000000815273ffffffffffffffffffffffffffffffffffffffff821660048201526024016107ad565b60008061057660017f609b85bcafa81ecfaf3ff62cdde2c6c9082a68dbe4922f07399c706bdeb7cd316138e4565b81547fffffffffffffffffffffffff00000000000000000000000000000000000000001673ffffffffffffffffffffffffffffffffffffffff91909116179055565b60008061057660017f2c0cf10337caabbd02dcf226f05f5fd19a0919a41a8df8958c39b800078268586138e4565b825473ffffffffffffffffffffffffffffffffffffffff8116906000907401000000000000000000000000000000000000000090046bffffffffffffffffffffffff168315806118f0575080155b156118fe5760009150611943565b620186a084101561192857620186a06119178286613a69565b6119219190613a80565b9150611943565b80611936620186a086613a80565b6119409190613a69565b91505b50935093915050565b8073ffffffffffffffffffffffffffffffffffffffff168273ffffffffffffffffffffffffffffffffffffffff1614610893576108938383612a43565b73ffffffffffffffffffffffffffffffffffffffff87166119d6576040517fb5e8901500000000000000000000000000000000000000000000000000000000815260040160405180910390fd5b84838114611a10576040517f6582533600000000000000000000000000000000000000000000000000000000815260040160405180910390fd5b611a1b8b8a8c612b6a565b611a71576040517f05bbb9c400000000000000000000000000000000000000000000000000000000815273ffffffffffffffffffffffffffffffffffffffff808c1660048301528a1660248201526044016107ad565b60005b81811015611ac157611ab98c8b8b8b8b86818110611a9457611a94613804565b905060200201358a8a87818110611aad57611aad613804565b90506020020135612bdf565b600101611a74565b508773ffffffffffffffffffffffffffffffffffffffff168973ffffffffffffffffffffffffffffffffffffffff168b73ffffffffffffffffffffffffffffffffffffffff167f4a39dc06d4c0dbc64b70af90fd698a233a518aa5d07e595d983b8c0526c8f7fb8a8a8a8a604051611b3c9493929190613b06565b60405180910390a473ffffffffffffffffffffffffffffffffffffffff88163b15611c0557611c058a8a8a8a8a8080602002602001604051908101604052809392919081815260200183836020028082843760009201919091525050604080516020808e0282810182019093528d82529093508d92508c91829185019084908082843760009201919091525050604080516020601f8d018190048102820181019092528b815292508b91508a908190840183828082843760009201919091525061294592505050565b5050505050505050505050565b60008381526020858152604080832073ffffffffffffffffffffffffffffffffffffffff8616845290915290205460ff16611ce35760008381526020858152604080832073ffffffffffffffffffffffffffffffffffffffff8681168086529184529382902080547fffffffffffffffffffffffffffffffffffffffffffffffffffffffffffffff00166001179055815187815292830152918316918101919091527f2f8788117e7eff1d82e926ec794901d17c78024a50270940304540a733656f0d906060015b60405180910390a15b50505050565b606083828114611d25576040517f6582533600000000000000000000000000000000000000000000000000000000815260040160405180910390fd5b8467ffffffffffffffff811115611d3e57611d3e61396f565b604051908082528060200260200182016040528015611d67578160200160208202803683370190505b50915060005b81811015611ded57611dc8878783818110611d8a57611d8a613804565b9050602002016020810190611d9f9190613307565b868684818110611db157611db1613804565b905060200201358a61120d9092919063ffffffff16565b838281518110611dda57611dda613804565b6020908102919091010152600101611d6d565b505095945050505050565b73ffffffffffffffffffffffffffffffffffffffff8416611e45576040517f021149bd00000000000000000000000000000000000000000000000000000000815260040160405180910390fd5b611e5186858585612874565b604080518481526020810184905273ffffffffffffffffffffffffffffffffffffffff80871692600092918916917fc3d58168c5ae7397731d063d5bbf3d657854427343f4c083240f7aacaa2d0f62910160405180910390a473ffffffffffffffffffffffffffffffffffffffff84163b156109455761094585600086868686612d8c565b620186a0811115611f16576040517fac040408000000000000000000000000000000000000000000000000000000008152600481018290526024016107ad565b81546bffffffffffffffffffffffff909116740100000000000000000000000000000000000000000273ffffffffffffffffffffffffffffffffffffffff909116179055565b6040805173ffffffffffffffffffffffffffffffffffffffff8416602482015260448082018490528251808303909101815260649091019091526020810180517bffffffffffffffffffffffffffffffffffffffffffffffffffffffff167fa9059cbb00000000000000000000000000000000000000000000000000000000179052610893908490612eaa565b611ff4838284611497565b60008181526020848152604080832073ffffffffffffffffffffffffffffffffffffffff86168085529083529281902080547fffffffffffffffffffffffffffffffffffffffffffffffffffffffffffffff0016905580518481529182018390528101919091527ff6391f5c32d9c69d2a47ea670b442974b53935d1edc7fd64eb21e047a839171b9060600160405180910390a1505050565b73ffffffffffffffffffffffffffffffffffffffff8116611832576040517f16de0c8000000000000000000000000000000000000000000000000000000000815260040160405180910390fd5b60608160010180546113da906138f7565b610c858282612a43565b8273ffffffffffffffffffffffffffffffffffffffff168273ffffffffffffffffffffffffffffffffffffffff1603612172576040517ffb0fdf6100000000000000000000000000000000000000000000000000000000815273ffffffffffffffffffffffffffffffffffffffff841660048201526024016107ad565b73ffffffffffffffffffffffffffffffffffffffff838116600081815260018701602090815260408083209487168084529482529182902080547fffffffffffffffffffffffffffffffffffffffffffffffffffffffffffffff001686151590811790915591519182527f17307eab39ab6107e8899845ad3d59bd9653f200f220920489ca2b5937696c31910160405180910390a350505050565b60008381526020858152604080832073ffffffffffffffffffffffffffffffffffffffff8616845290915290205460ff1615611ce35760008381526020858152604080832073ffffffffffffffffffffffffffffffffffffffff8681168086529184529382902080547fffffffffffffffffffffffffffffffffffffffffffffffffffffffffffffff00169055815187815292830152918316918101919091527ff6391f5c32d9c69d2a47ea670b442974b53935d1edc7fd64eb21e047a839171b90606001611cda565b83518351811415806122ea575082518114155b15612321576040517f6582533600000000000000000000000000000000000000000000000000000000815260040160405180910390fd5b60005b81811015610698576123928787838151811061234257612342613804565b602002602001015187848151811061235c5761235c613804565b602002602001015187858151811061237657612376613804565b6020026020010151878d611df89095949392919063ffffffff16565b600101612324565b73ffffffffffffffffffffffffffffffffffffffff85166123e7576040517fb5e8901500000000000000000000000000000000000000000000000000000000815260040160405180910390fd5b6123f2888789612b6a565b612448576040517f05bbb9c400000000000000000000000000000000000000000000000000000000815273ffffffffffffffffffffffffffffffffffffffff8089166004830152871660248201526044016107ad565b6124558887878787612bdf565b8473ffffffffffffffffffffffffffffffffffffffff168673ffffffffffffffffffffffffffffffffffffffff168873ffffffffffffffffffffffffffffffffffffffff167fc3d58168c5ae7397731d063d5bbf3d657854427343f4c083240f7aacaa2d0f6287876040516124d4929190918252602082015260400190565b60405180910390a473ffffffffffffffffffffffffffffffffffffffff85163b1561069857610698878787878787878080601f016020809104026020016040519081016040528093929190818152602001838380828437600092019190915250612d8c92505050565b825473ffffffffffffffffffffffffffffffffffffffff90811690831681146125aa576040517f2ef4875e00000000000000000000000000000000000000000000000000000000815273ffffffffffffffffffffffffffffffffffffffff841660048201526024016107ad565b8173ffffffffffffffffffffffffffffffffffffffff168173ffffffffffffffffffffffffffffffffffffffff1614611ce35783547fffffffffffffffffffffffff00000000000000000000000000000000000000001673ffffffffffffffffffffffffffffffffffffffff8381169182178655604051908316907f8be0079c531659141344cd1fd0a4f28419497f9722a3daafe3b4186f6b6457e090600090a350505050565b8047101561268d576040517fcd7860590000000000000000000000000000000000000000000000000000000081523060048201526024016107ad565b60008273ffffffffffffffffffffffffffffffffffffffff168260405160006040518083038185875af1925050503d80600081146126e7576040519150601f19603f3d011682016040523d82523d6000602084013e6126ec565b606091505b5050905080610893576040517f1425ea4200000000000000000000000000000000000000000000000000000000815260040160405180910390fd5b6000333214806127375750601836105b1561274157503390565b7fffffffffffffffffffffffffffffffffffffffffffffffffffffffffffffffec36013560601c7f000000000000000000000000000000000000000000000000000000000000000073ffffffffffffffffffffffffffffffffffffffff1633148061286357506040517f019a202800000000000000000000000000000000000000000000000000000000815273ffffffffffffffffffffffffffffffffffffffff82811660048301523360248301523060448301527f0000000000000000000000000000000000000000000000000000000000000000169063019a202890606401602060405180830381865afa15801561283f573d6000803e3d6000fd5b505050506040513d601f19601f820116820180604052508101906128639190613898565b1561286d57919050565b3391505090565b8015611ce35760008281526020858152604080832073ffffffffffffffffffffffffffffffffffffffff87168452909152902054818101818111612911576040517f42fb00bc00000000000000000000000000000000000000000000000000000000815273ffffffffffffffffffffffffffffffffffffffff861660048201526024810185905260448101839052606481018490526084016107ad565b60009384526020958652604080852073ffffffffffffffffffffffffffffffffffffffff9690961685529490955250502055565b6040517fbc197c81000000000000000000000000000000000000000000000000000000008082529073ffffffffffffffffffffffffffffffffffffffff86169063bc197c81906129a1908a908a90899089908990600401613b2d565b6020604051808303816000875af11580156129c0573d6000803e3d6000fd5b505050506040513d601f19601f820116820180604052508101906129e49190613b98565b7fffffffff000000000000000000000000000000000000000000000000000000001614610945578383836040517fc287817e0000000000000000000000000000000000000000000000000000000081526004016107ad93929190613bb5565b815473ffffffffffffffffffffffffffffffffffffffff168015801590612a81575060008173ffffffffffffffffffffffffffffffffffffffff163b115b15610893576040517fc617113400000000000000000000000000000000000000000000000000000000815230600482015273ffffffffffffffffffffffffffffffffffffffff838116602483015282169063c617113490604401602060405180830381865afa158015612af8573d6000803e3d6000fd5b505050506040513d601f19601f82011682018060405250810190612b1c9190613898565b610893576040517fede71dcc00000000000000000000000000000000000000000000000000000000815273ffffffffffffffffffffffffffffffffffffffff831660048201526024016107ad565b60008173ffffffffffffffffffffffffffffffffffffffff168373ffffffffffffffffffffffffffffffffffffffff16148061176357505073ffffffffffffffffffffffffffffffffffffffff9182166000908152600193909301602090815260408085209290931684525290205460ff1690565b8015610a9b5760008281526020868152604080832073ffffffffffffffffffffffffffffffffffffffff88168452909152902054818103818110612c7c576040517f03dee4c500000000000000000000000000000000000000000000000000000000815273ffffffffffffffffffffffffffffffffffffffff871660048201526024810185905260448101839052606481018490526084016107ad565b8473ffffffffffffffffffffffffffffffffffffffff168673ffffffffffffffffffffffffffffffffffffffff16146111045760008481526020888152604080832073ffffffffffffffffffffffffffffffffffffffff89168452909152902054838101818111612d46576040517f42fb00bc00000000000000000000000000000000000000000000000000000000815273ffffffffffffffffffffffffffffffffffffffff881660048201526024810187905260448101839052606481018690526084016107ad565b600086815260208a8152604080832073ffffffffffffffffffffffffffffffffffffffff808d1685528184528285208890558b1684529091529020555050505050505050565b6040517ff23a6e61000000000000000000000000000000000000000000000000000000008082529073ffffffffffffffffffffffffffffffffffffffff86169063f23a6e6190612de8908a908a90899089908990600401613bf6565b6020604051808303816000875af1158015612e07573d6000803e3d6000fd5b505050506040513d601f19601f82011682018060405250810190612e2b9190613b98565b7fffffffff000000000000000000000000000000000000000000000000000000001614610945576040517f40f39d3800000000000000000000000000000000000000000000000000000000815273ffffffffffffffffffffffffffffffffffffffff8516600482015260248101849052604481018390526064016107ad565b6000612ecc73ffffffffffffffffffffffffffffffffffffffff841683612f40565b90508051600014158015612ef1575080806020019051810190612eef9190613898565b155b15610893576040517f5274afe700000000000000000000000000000000000000000000000000000000815273ffffffffffffffffffffffffffffffffffffffff841660048201526024016107ad565b606061057383836000846000808573ffffffffffffffffffffffffffffffffffffffff168486604051612f739190613c3b565b60006040518083038185875af1925050503d8060008114612fb0576040519150601f19603f3d011682016040523d82523d6000602084013e612fb5565b606091505b5091509150612fc5868383612fcf565b9695505050505050565b606082612fe457612fdf8261305e565b61128c565b8151158015613008575073ffffffffffffffffffffffffffffffffffffffff84163b155b15613057576040517f9996b31500000000000000000000000000000000000000000000000000000000815273ffffffffffffffffffffffffffffffffffffffff851660048201526024016107ad565b508061128c565b80511561306e5780518082602001fd5b6040517f1425ea4200000000000000000000000000000000000000000000000000000000815260040160405180910390fd5b73ffffffffffffffffffffffffffffffffffffffff8116811461072057600080fd5b600080604083850312156130d557600080fd5b82356130e0816130a0565b946020939093013593505050565b7fffffffff000000000000000000000000000000000000000000000000000000008116811461072057600080fd5b60006020828403121561312e57600080fd5b813561128c816130ee565b60005b8381101561315457818101518382015260200161313c565b50506000910152565b60008151808452613175816020860160208601613139565b601f017fffffffffffffffffffffffffffffffffffffffffffffffffffffffffffffffe0169290920160200192915050565b602081526000610573602083018461315d565b60008083601f8401126131cc57600080fd5b50813567ffffffffffffffff8111156131e457600080fd5b6020830191508360208260051b850101111561081157600080fd5b60008083601f84011261321157600080fd5b50813567ffffffffffffffff81111561322957600080fd5b60208301915083602082850101111561081157600080fd5b60008060008060008060006080888a03121561325c57600080fd5b8735613267816130a0565b9650602088013567ffffffffffffffff8082111561328457600080fd5b6132908b838c016131ba565b909850965060408a01359150808211156132a957600080fd5b6132b58b838c016131ba565b909650945060608a01359150808211156132ce57600080fd5b506132db8a828b016131ff565b989b979a50959850939692959293505050565b60006020828403121561330057600080fd5b5035919050565b60006020828403121561331957600080fd5b813561128c816130a0565b60008060006040848603121561333957600080fd5b83359250602084013567ffffffffffffffff81111561335757600080fd5b613363868287016131ff565b9497909650939450505050565b6000806040838503121561338357600080fd5b50508035926020909101359150565b60008060008060008060008060a0898b0312156133ae57600080fd5b88356133b9816130a0565b975060208901356133c9816130a0565b9650604089013567ffffffffffffffff808211156133e657600080fd5b6133f28c838d016131ba565b909850965060608b013591508082111561340b57600080fd5b6134178c838d016131ba565b909650945060808b013591508082111561343057600080fd5b5061343d8b828c016131ff565b999c989b5096995094979396929594505050565b6000806040838503121561346457600080fd5b823591506020830135613476816130a0565b809150509250929050565b6000806000806040858703121561349757600080fd5b843567ffffffffffffffff808211156134af57600080fd5b6134bb888389016131ba565b909650945060208701359150808211156134d457600080fd5b506134e1878288016131ba565b95989497509550505050565b60008151808452602080850194506020840160005b8381101561351e57815187529582019590820190600101613502565b509495945050505050565b60208152600061057360208301846134ed565b60008060008060006080868803121561355457600080fd5b853561355f816130a0565b94506020860135935060408601359250606086013567ffffffffffffffff81111561358957600080fd5b613595888289016131ff565b969995985093965092949392505050565b600080600080600080606087890312156135bf57600080fd5b863567ffffffffffffffff808211156135d757600080fd5b6135e38a838b016131ba565b909850965060208901359150808211156135fc57600080fd5b6136088a838b016131ba565b9096509450604089013591508082111561362157600080fd5b5061362e89828a016131ba565b979a9699509497509295939492505050565b801515811461072057600080fd5b6000806040838503121561366157600080fd5b823561366c816130a0565b9150602083013561347681613640565b6000806000806000806000806080898b03121561369857600080fd5b883567ffffffffffffffff808211156136b057600080fd5b6136bc8c838d016131ba565b909a50985060208b01359150808211156136d557600080fd5b6136e18c838d016131ba565b909850965060408b01359150808211156136fa57600080fd5b6137068c838d016131ba565b909650945060608b013591508082111561343057600080fd5b6000806040838503121561373257600080fd5b823561373d816130a0565b91506020830135613476816130a0565b60008060008060008060a0878903121561376657600080fd5b8635613771816130a0565b95506020870135613781816130a0565b94506040870135935060608701359250608087013567ffffffffffffffff8111156137ab57600080fd5b61362e89828a016131ff565b60208152816020820152818360408301376000818301604090810191909152601f9092017fffffffffffffffffffffffffffffffffffffffffffffffffffffffffffffffe0160101919050565b7f4e487b7100000000000000000000000000000000000000000000000000000000600052603260045260246000fd5b60008083357fffffffffffffffffffffffffffffffffffffffffffffffffffffffffffffffe184360301811261386857600080fd5b83018035915067ffffffffffffffff82111561388357600080fd5b60200191503681900382131561081157600080fd5b6000602082840312156138aa57600080fd5b815161128c81613640565b7f4e487b7100000000000000000000000000000000000000000000000000000000600052601160045260246000fd5b81810381811115610576576105766138b5565b600181811c9082168061390b57607f821691505b602082108103613944577f4e487b7100000000000000000000000000000000000000000000000000000000600052602260045260246000fd5b50919050565b60408152600061395d60408301856134ed565b82810360208401526108b281856134ed565b7f4e487b7100000000000000000000000000000000000000000000000000000000600052604160045260246000fd5b6000602082840312156139b057600080fd5b815167ffffffffffffffff808211156139c857600080fd5b818401915084601f8301126139dc57600080fd5b8151818111156139ee576139ee61396f565b604051601f82017fffffffffffffffffffffffffffffffffffffffffffffffffffffffffffffffe0908116603f01168101908382118183101715613a3457613a3461396f565b81604052828152876020848701011115613a4d57600080fd5b613a5e836020830160208801613139565b979650505050505050565b8082028115828204841417610576576105766138b5565b600082613ab6577f4e487b7100000000000000000000000000000000000000000000000000000000600052601260045260246000fd5b500490565b81835260007f07ffffffffffffffffffffffffffffffffffffffffffffffffffffffffffffff831115613aed57600080fd5b8260051b80836020870137939093016020019392505050565b604081526000613b1a604083018688613abb565b8281036020840152613a5e818587613abb565b600073ffffffffffffffffffffffffffffffffffffffff808816835280871660208401525060a06040830152613b6660a08301866134ed565b8281036060840152613b7881866134ed565b90508281036080840152613b8c818561315d565b98975050505050505050565b600060208284031215613baa57600080fd5b815161128c816130ee565b73ffffffffffffffffffffffffffffffffffffffff84168152606060208201526000613be460608301856134ed565b8281036040840152612fc581856134ed565b600073ffffffffffffffffffffffffffffffffffffffff808816835280871660208401525084604083015283606083015260a06080830152613a5e60a083018461315d565b60008251613c4d818460208701613139565b919091019291505056fea2646970667358221220697c69cec8a92e191f070b5f767483a2d58b888ea5d42de32f197b2d0f4ac75164736f6c63430008190033",
  "linkReferences": {},
  "deployedLinkReferences": {}
}