{
  "_format": "hh-sol-artifact-1",
  "contractName": "ERC721TokenMetadataFacet",
  "sourceName": "contracts/token/ERC721/ERC721TokenMetadataFacet.sol",
  "abi": [
    {
      "inputs": [
        {
          "internalType": "contract IForwarderRegistry",
          "name": "forwarderRegistry",
          "type": "address"
        }
      ],
      "stateMutability": "nonpayable",
      "type": "constructor"
    },
    {
      "inputs": [
        {
          "internalType": "uint256[]",
          "name": "tokenIds",
          "type": "uint256[]"
        },
        {
          "internalType": "string[]",
          "name": "tokenURIs",
          "type": "string[]"
        }
      ],
      "name": "batchSetTokenURI",
      "outputs": [],
      "stateMutability": "nonpayable",
      "type": "function"
    },
    {
      "inputs": [
        {
          "internalType": "string",
          "name": "name",
          "type": "string"
        },
        {
          "internalType": "string",
          "name": "symbol",
          "type": "string"
        }
      ],
      "name": "initERC721MetadataStorage",
      "outputs": [],
      "stateMutability": "nonpayable",
      "type": "function"
    },
    {
      "inputs": [],
      "name": "name",
      "outputs": [
        {
          "internalType": "string",
          "name": "",
          "type": "string"
        }
      ],
      "stateMutability": "view",
      "type": "function"
    },
    {
      "inputs": [
        {
          "internalType": "uint256",
          "name": "tokenId",
          "type": "uint256"
        },
        {
          "internalType": "string",
          "name": "uri",
          "type": "string"
        }
      ],
      "name": "setTokenURI",
      "outputs": [],
      "stateMutability": "nonpayable",
      "type": "function"
    },
    {
      "inputs": [],
      "name": "symbol",
      "outputs": [
        {
          "internalType": "string",
          "name": "",
          "type": "string"
        }
      ],
      "stateMutability": "view",
      "type": "function"
    },
    {
      "inputs": [
        {
          "internalType": "uint256",
          "name": "tokenId",
          "type": "uint256"
        }
      ],
      "name": "tokenURI",
      "outputs": [
        {
          "internalType": "string",
          "name": "",
          "type": "string"
        }
      ],
      "stateMutability": "view",
      "type": "function"
    }
  ],
  "bytecode": "0x60a060405234801561001057600080fd5b506040516110e53803806110e583398101604081905261002f91610040565b6001600160a01b0316608052610070565b60006020828403121561005257600080fd5b81516001600160a01b038116811461006957600080fd5b9392505050565b608051611053610092600039600081816107b6015261085601526110536000f3fe608060405234801561001057600080fd5b50600436106100725760003560e01c806395d89b411161005057806395d89b41146100bd578063ab7e8850146100c5578063c87b56dd146100d857600080fd5b806306fdde0314610077578063162094c4146100955780636706467b146100aa575b600080fd5b61007f6100eb565b60405161008c9190610c1d565b60405180910390f35b6100a86100a3366004610d6a565b610102565b005b6100a86100b8366004610dfd565b610133565b61007f61015c565b6100a86100d3366004610e69565b61016e565b61007f6100e6366004610ec3565b61019b565b60606100fd6100f86101c8565b6101f6565b905090565b61011b61010d61028c565b610115610296565b906102c4565b61012f828261012861034c565b919061037a565b5050565b61013e61010d61028c565b6101568484848461014d61034c565b93929190610397565b50505050565b60606100fd6101696101c8565b610480565b61018761017961028c565b610181610491565b906104bf565b61012f828261019461034c565b9190610542565b60606101af826101a9610590565b906105be565b506101c2826101bc61034c565b90610653565b92915050565b6000806101c260017f9c4269c0f9f430d98876ffe9767fbf3f3232ea91a549beb549e5329532520eb3610edc565b606081600001805461020790610f1a565b80601f016020809104026020016040519081016040528092919081815260200182805461023390610f1a565b80156102805780601f1061025557610100808354040283529160200191610280565b820191906000526020600020905b81548152906001019060200180831161026357829003601f168201915b50505050509050919050565b60006100fd61077a565b6000806101c260017fc9ed16f33ab3a66c84bfd83099ccb2a8845871e2e1c1928f63797152f0fd54cd610edc565b815473ffffffffffffffffffffffffffffffffffffffff82811691161461012f576040517f08c379a000000000000000000000000000000000000000000000000000000000815260206004820152601860248201527f4f776e6572736869703a206e6f7420746865206f776e6572000000000000000060448201526064015b60405180910390fd5b6000806101c260017fcea153e5352e750a7f7d04182593def5961809dc6d3d38bc5f28032d416d02d8610edc565b600082815260208481526040909120825161015692840190610af2565b828114610400576040517f08c379a000000000000000000000000000000000000000000000000000000000815260206004820152601b60248201527f4552433732313a20696e636f6e73697374656e742061727261797300000000006044820152606401610343565b60005b60ff81168411156104785782828260ff1681811061042357610423610f67565b90506020028101906104359190610f96565b876000888860ff871681811061044d5761044d610f67565b905060200201358152602001908152602001600020919061046f929190610b76565b50600101610403565b505050505050565b606081600101805461020790610f1a565b6000806101c260017fb53127684a568b3173ae13b9f8a6016e243e63b6e8ee1178d6a717850b5d6104610edc565b815473ffffffffffffffffffffffffffffffffffffffff82811691161461012f576040517f08c379a000000000000000000000000000000000000000000000000000000000815260206004820152601960248201527f50726f787941646d696e3a206e6f74207468652061646d696e000000000000006044820152606401610343565b61057761057060017f80a74eae8bcf9e8f55188cf9804011cada267c6180689727a6232a4e641e71cc610edc565b60016108d2565b61058b82826105846101c8565b9190610942565b505050565b6000806101c260017fddf3ee18ae6d688373c219468f8be446e7ae82215f4779d821c7ea5e8c13c0c1610edc565b600081815260018301602052604081205473ffffffffffffffffffffffffffffffffffffffff811661064c576040517f08c379a000000000000000000000000000000000000000000000000000000000815260206004820152601860248201527f4552433732313a206e6f6e2d6578697374696e67204e465400000000000000006044820152606401610343565b9392505050565b600081815260208390526040902080546060919061067090610f1a565b90506000036106db576040517f08c379a000000000000000000000000000000000000000000000000000000000815260206004820152601860248201527f4552433732313a206e6f6e2d6578697374696e67204e465400000000000000006044820152606401610343565b600082815260208490526040902080546106f490610f1a565b80601f016020809104026020016040519081016040528092919081815260200182805461072090610f1a565b801561076d5780601f106107425761010080835404028352916020019161076d565b820191906000526020600020905b81548152906001019060200180831161075057829003601f168201915b5050505050905092915050565b60003332810361078957919050565b6000367fffffffffffffffffffffffffffffffffffffffffffffffffffffffffffffffec013560601c90507f000000000000000000000000000000000000000000000000000000000000000073ffffffffffffffffffffffffffffffffffffffff168273ffffffffffffffffffffffffffffffffffffffff1614806108c157506040517fe60125d600000000000000000000000000000000000000000000000000000000815273ffffffffffffffffffffffffffffffffffffffff828116600483015283811660248301527f0000000000000000000000000000000000000000000000000000000000000000169063e60125d690604401602060405180830381865afa15801561089d573d6000803e3d6000fd5b505050506040513d601f19601f820116820180604052508101906108c19190610ffb565b156108cc5792915050565b50919050565b81548290821161093e576040517f08c379a000000000000000000000000000000000000000000000000000000000815260206004820152601860248201527f53746f726167653a2076657273696f6e207265616368656400000000000000006044820152606401610343565b5550565b61097061057060017fa057eeb6560fae2987973d3bf40b89e6da66dd0b6aadac05dc6b5b0d7a8d4557610edc565b61058b83838381516109889084906020850190610af2565b50805161099e9060018501906020840190610af2565b5061058b7f5b5e139f0000000000000000000000000000000000000000000000000000000060016109cd6109d4565b9190610a02565b6000806101c260017fca9d3e17f264b0f3984e2634e94adb37fa3e6a8103f06aeae6fa59e21c769f5e610edc565b7fffffffff000000000000000000000000000000000000000000000000000000008083169003610a8e576040517f08c379a000000000000000000000000000000000000000000000000000000000815260206004820152601f60248201527f496e74657266616365446574656374696f6e3a2077726f6e672076616c7565006044820152606401610343565b7fffffffff00000000000000000000000000000000000000000000000000000000919091166000908152602092909252604090912080547fffffffffffffffffffffffffffffffffffffffffffffffffffffffffffffff0016911515919091179055565b828054610afe90610f1a565b90600052602060002090601f016020900481019282610b205760008555610b66565b82601f10610b3957805160ff1916838001178555610b66565b82800160010185558215610b66579182015b82811115610b66578251825591602001919060010190610b4b565b50610b72929150610c08565b5090565b828054610b8290610f1a565b90600052602060002090601f016020900481019282610ba45760008555610b66565b82601f10610bdb578280017fffffffffffffffffffffffffffffffffffffffffffffffffffffffffffffff00823516178555610b66565b82800160010185558215610b66579182015b82811115610b66578235825591602001919060010190610bed565b5b80821115610b725760008155600101610c09565b600060208083528351808285015260005b81811015610c4a57858101830151858201604001528201610c2e565b81811115610c5c576000604083870101525b50601f017fffffffffffffffffffffffffffffffffffffffffffffffffffffffffffffffe016929092016040019392505050565b7f4e487b7100000000000000000000000000000000000000000000000000000000600052604160045260246000fd5b600082601f830112610cd057600080fd5b813567ffffffffffffffff80821115610ceb57610ceb610c90565b604051601f83017fffffffffffffffffffffffffffffffffffffffffffffffffffffffffffffffe0908116603f01168101908282118183101715610d3157610d31610c90565b81604052838152866020858801011115610d4a57600080fd5b836020870160208301376000602085830101528094505050505092915050565b60008060408385031215610d7d57600080fd5b82359150602083013567ffffffffffffffff811115610d9b57600080fd5b610da785828601610cbf565b9150509250929050565b60008083601f840112610dc357600080fd5b50813567ffffffffffffffff811115610ddb57600080fd5b6020830191508360208260051b8501011115610df657600080fd5b9250929050565b60008060008060408587031215610e1357600080fd5b843567ffffffffffffffff80821115610e2b57600080fd5b610e3788838901610db1565b90965094506020870135915080821115610e5057600080fd5b50610e5d87828801610db1565b95989497509550505050565b60008060408385031215610e7c57600080fd5b823567ffffffffffffffff80821115610e9457600080fd5b610ea086838701610cbf565b93506020850135915080821115610eb657600080fd5b50610da785828601610cbf565b600060208284031215610ed557600080fd5b5035919050565b600082821015610f15577f4e487b7100000000000000000000000000000000000000000000000000000000600052601160045260246000fd5b500390565b600181811c90821680610f2e57607f821691505b6020821081036108cc577f4e487b7100000000000000000000000000000000000000000000000000000000600052602260045260246000fd5b7f4e487b7100000000000000000000000000000000000000000000000000000000600052603260045260246000fd5b60008083357fffffffffffffffffffffffffffffffffffffffffffffffffffffffffffffffe1843603018112610fcb57600080fd5b83018035915067ffffffffffffffff821115610fe657600080fd5b602001915036819003821315610df657600080fd5b60006020828403121561100d57600080fd5b8151801515811461064c57600080fdfea2646970667358221220000df842533ac1eb84e637e910b415b9572b9cf0aa759c7b1a4075d1ac9b7d7064736f6c634300080e0033",
  "linkReferences": {},
  "deployedLinkReferences": {}
}