{
  "_format": "hh-sol-artifact-1",
  "contractName": "TokenRecoveryMock",
  "sourceName": "contracts/mocks/security/TokenRecoveryMock.sol",
  "abi": [
    {
      "inputs": [
        {
          "internalType": "contract IForwarderRegistry",
          "name": "forwarderRegistry",
          "type": "address"
        }
      ],
      "stateMutability": "nonpayable",
      "type": "constructor"
    },
    {
      "anonymous": false,
      "inputs": [
        {
          "indexed": true,
          "internalType": "address",
          "name": "previousOwner",
          "type": "address"
        },
        {
          "indexed": true,
          "internalType": "address",
          "name": "newOwner",
          "type": "address"
        }
      ],
      "name": "OwnershipTransferred",
      "type": "event"
    },
    {
      "inputs": [],
      "name": "__msgData",
      "outputs": [
        {
          "internalType": "bytes",
          "name": "",
          "type": "bytes"
        }
      ],
      "stateMutability": "view",
      "type": "function"
    },
    {
      "inputs": [],
      "name": "forwarderRegistry",
      "outputs": [
        {
          "internalType": "contract IForwarderRegistry",
          "name": "",
          "type": "address"
        }
      ],
      "stateMutability": "view",
      "type": "function"
    },
    {
      "inputs": [
        {
          "internalType": "address",
          "name": "forwarder",
          "type": "address"
        }
      ],
      "name": "isTrustedForwarder",
      "outputs": [
        {
          "internalType": "bool",
          "name": "",
          "type": "bool"
        }
      ],
      "stateMutability": "view",
      "type": "function"
    },
    {
      "inputs": [],
      "name": "owner",
      "outputs": [
        {
          "internalType": "address",
          "name": "",
          "type": "address"
        }
      ],
      "stateMutability": "view",
      "type": "function"
    },
    {
      "inputs": [
        {
          "internalType": "address[]",
          "name": "accounts",
          "type": "address[]"
        },
        {
          "internalType": "contract IERC20[]",
          "name": "tokens",
          "type": "address[]"
        },
        {
          "internalType": "uint256[]",
          "name": "amounts",
          "type": "uint256[]"
        }
      ],
      "name": "recoverERC20s",
      "outputs": [],
      "stateMutability": "nonpayable",
      "type": "function"
    },
    {
      "inputs": [
        {
          "internalType": "address[]",
          "name": "accounts",
          "type": "address[]"
        },
        {
          "internalType": "contract IERC721[]",
          "name": "contracts",
          "type": "address[]"
        },
        {
          "internalType": "uint256[]",
          "name": "tokenIds",
          "type": "uint256[]"
        }
      ],
      "name": "recoverERC721s",
      "outputs": [],
      "stateMutability": "nonpayable",
      "type": "function"
    },
    {
      "inputs": [
        {
          "internalType": "address payable[]",
          "name": "accounts",
          "type": "address[]"
        },
        {
          "internalType": "uint256[]",
          "name": "amounts",
          "type": "uint256[]"
        }
      ],
      "name": "recoverETH",
      "outputs": [],
      "stateMutability": "nonpayable",
      "type": "function"
    },
    {
      "inputs": [
        {
          "internalType": "bytes4",
          "name": "interfaceId",
          "type": "bytes4"
        }
      ],
      "name": "supportsInterface",
      "outputs": [
        {
          "internalType": "bool",
          "name": "",
          "type": "bool"
        }
      ],
      "stateMutability": "view",
      "type": "function"
    },
    {
      "inputs": [
        {
          "internalType": "address",
          "name": "newOwner",
          "type": "address"
        }
      ],
      "name": "transferOwnership",
      "outputs": [],
      "stateMutability": "nonpayable",
      "type": "function"
    },
    {
      "stateMutability": "payable",
      "type": "receive"
    }
  ],
  "bytecode": "0x60a060405234801562000010575f80fd5b506040516200170f3803806200170f8339810160408190526200003391620001cf565b8080336200004c816200004562000062565b9062000097565b506001600160a01b0316608052506200021e9050565b5f806200009160017fc9ed16f33ab3a66c84bfd83099ccb2a8845871e2e1c1928f63797152f0fd54cd620001fe565b92915050565b6001600160a01b03811615620000ed5781546001600160a01b0319166001600160a01b03821690811783556040515f907f8be0079c531659141344cd1fd0a4f28419497f9722a3daafe3b4186f6b6457e0908290a35b6200010d6307f5828d60e41b60016200010562000111565b919062000140565b5050565b5f806200009160017fca9d3e17f264b0f3984e2634e94adb37fa3e6a8103f06aeae6fa59e21c769f5e620001fe565b600160e01b6001600160e01b0319831601620001a25760405162461bcd60e51b815260206004820152601f60248201527f496e74657266616365446574656374696f6e3a2077726f6e672076616c756500604482015260640160405180910390fd5b6001600160e01b0319919091165f9081526020929092526040909120805460ff1916911515919091179055565b5f60208284031215620001e0575f80fd5b81516001600160a01b0381168114620001f7575f80fd5b9392505050565b818103818111156200009157634e487b7160e01b5f52601160045260245ffd5b6080516114b6620002595f395f818160e30152818161016601528181610b7e01528181610bbc01528181610cf00152610d7801526114b65ff3fe608060405260043610610096575f3560e01c806373c8a95811610066578063c3666c361161004c578063c3666c36146101d8578063f2fde38b146101f7578063f7ba94bd14610216575f80fd5b806373c8a958146101a35780638da5cb5b146101c4575f80fd5b806301ffc9a7146100a15780632b4c9f16146100d557806331e66e1e14610128578063572b6c051461014a575f80fd5b3661009d57005b5f80fd5b3480156100ac575f80fd5b506100c06100bb366004611138565b610235565b60405190151581526020015b60405180910390f35b3480156100e0575f80fd5b507f00000000000000000000000000000000000000000000000000000000000000005b60405173ffffffffffffffffffffffffffffffffffffffff90911681526020016100cc565b348015610133575f80fd5b5061013c61024e565b6040516100cc92919061117e565b348015610155575f80fd5b506100c06101643660046111eb565b7f000000000000000000000000000000000000000000000000000000000000000073ffffffffffffffffffffffffffffffffffffffff90811691161490565b3480156101ae575f80fd5b506101c26101bd36600461124e565b610260565b005b3480156101cf575f80fd5b50610103610395565b3480156101e3575f80fd5b506101c26101f236600461124e565b6103c0565b348015610202575f80fd5b506101c26102113660046111eb565b61055f565b348015610221575f80fd5b506101c26102303660046112e1565b61057d565b5f6102488261024261066a565b90610697565b92915050565b365f61025861076e565b915091509091565b61027961026b610778565b610273610781565b906107ae565b84838114801561028857508082145b6102f3576040517f08c379a000000000000000000000000000000000000000000000000000000000815260206004820152601d60248201527f5265636f766572793a20696e636f6e73697374656e742061727261797300000060448201526064015b60405180910390fd5b5f5b81811461038b5761038388888381811061031157610311611348565b905060200201602081019061032691906111eb565b85858481811061033857610338611348565b9050602002013588888581811061035157610351611348565b905060200201602081019061036691906111eb565b73ffffffffffffffffffffffffffffffffffffffff169190610835565b6001016102f5565b5050505050505050565b5f6103bb6103a1610781565b5473ffffffffffffffffffffffffffffffffffffffff1690565b905090565b6103cb61026b610778565b8483811480156103da57508082145b610440576040517f08c379a000000000000000000000000000000000000000000000000000000000815260206004820152601d60248201527f5265636f766572793a20696e636f6e73697374656e742061727261797300000060448201526064016102ea565b5f5b81811461038b5785858281811061045b5761045b611348565b905060200201602081019061047091906111eb565b73ffffffffffffffffffffffffffffffffffffffff166323b872dd308a8a8581811061049e5761049e611348565b90506020020160208101906104b391906111eb565b8787868181106104c5576104c5611348565b6040517fffffffff0000000000000000000000000000000000000000000000000000000060e088901b16815273ffffffffffffffffffffffffffffffffffffffff9586166004820152949093166024850152506020909102013560448201526064015f604051808303815f87803b15801561053e575f80fd5b505af1158015610550573d5f803e3d5ffd5b50505050806001019050610442565b61057a61056a610778565b82610573610781565b91906108c7565b50565b61058861026b610778565b828181146105f2576040517f08c379a000000000000000000000000000000000000000000000000000000000815260206004820152601d60248201527f5265636f766572793a20696e636f6e73697374656e742061727261797300000060448201526064016102ea565b5f5b8181146106625761065a84848381811061061057610610611348565b9050602002013587878481811061062957610629611348565b905060200201602081019061063e91906111eb565b73ffffffffffffffffffffffffffffffffffffffff16906109f3565b6001016105f4565b505050505050565b5f8061024860017fca9d3e17f264b0f3984e2634e94adb37fa3e6a8103f06aeae6fa59e21c769f5e611375565b5f7c01000000000000000000000000000000000000000000000000000000007fffffffff000000000000000000000000000000000000000000000000000000008316016106e557505f610248565b7ffe003659000000000000000000000000000000000000000000000000000000007fffffffff0000000000000000000000000000000000000000000000000000000083160161073657506001610248565b507fffffffff00000000000000000000000000000000000000000000000000000000165f908152602091909152604090205460ff1690565b365f610258610b49565b5f6103bb610cae565b5f8061024860017fc9ed16f33ab3a66c84bfd83099ccb2a8845871e2e1c1928f63797152f0fd54cd611375565b815473ffffffffffffffffffffffffffffffffffffffff828116911614610831576040517f08c379a000000000000000000000000000000000000000000000000000000000815260206004820152601860248201527f4f776e6572736869703a206e6f7420746865206f776e6572000000000000000060448201526064016102ea565b5050565b6040805173ffffffffffffffffffffffffffffffffffffffff8416602482015260448082018490528251808303909101815260649091019091526020810180517bffffffffffffffffffffffffffffffffffffffffffffffffffffffff167fa9059cbb000000000000000000000000000000000000000000000000000000001790526108c2908490610df2565b505050565b825473ffffffffffffffffffffffffffffffffffffffff908116908316811461094c576040517f08c379a000000000000000000000000000000000000000000000000000000000815260206004820152601860248201527f4f776e6572736869703a206e6f7420746865206f776e6572000000000000000060448201526064016102ea565b8173ffffffffffffffffffffffffffffffffffffffff168173ffffffffffffffffffffffffffffffffffffffff16146109ed5783547fffffffffffffffffffffffff00000000000000000000000000000000000000001673ffffffffffffffffffffffffffffffffffffffff8381169182178655604051908316907f8be0079c531659141344cd1fd0a4f28419497f9722a3daafe3b4186f6b6457e0905f90a35b50505050565b80471015610a5d576040517f08c379a000000000000000000000000000000000000000000000000000000000815260206004820152601d60248201527f416464726573733a20696e73756666696369656e742062616c616e636500000060448201526064016102ea565b5f8273ffffffffffffffffffffffffffffffffffffffff16826040515f6040518083038185875af1925050503d805f8114610ab3576040519150601f19603f3d011682016040523d82523d5f602084013e610ab8565b606091505b50509050806108c2576040517f08c379a000000000000000000000000000000000000000000000000000000000815260206004820152603a60248201527f416464726573733a20756e61626c6520746f2073656e642076616c75652c207260448201527f6563697069656e74206d6179206861766520726576657274656400000000000060648201526084016102ea565b365f33321480610b595750601836105b15610b6657505f91369150565b3373ffffffffffffffffffffffffffffffffffffffff7f0000000000000000000000000000000000000000000000000000000000000000161480610c99575073ffffffffffffffffffffffffffffffffffffffff7f000000000000000000000000000000000000000000000000000000000000000016638929a8ca367fffffffffffffffffffffffffffffffffffffffffffffffffffffffffffffffec013560601c6040517fffffffff0000000000000000000000000000000000000000000000000000000060e084901b16815273ffffffffffffffffffffffffffffffffffffffff9091166004820152336024820152604401602060405180830381865afa158015610c75573d5f803e3d5ffd5b505050506040513d601f19601f82011682018060405250810190610c9991906113ad565b15610ca657610258610eff565b505f91369150565b5f33321480610cbd5750601836105b15610cc757503390565b7fffffffffffffffffffffffffffffffffffffffffffffffffffffffffffffffec36013560601c7f000000000000000000000000000000000000000000000000000000000000000073ffffffffffffffffffffffffffffffffffffffff16331480610de157506040517f8929a8ca00000000000000000000000000000000000000000000000000000000815273ffffffffffffffffffffffffffffffffffffffff82811660048301523360248301527f00000000000000000000000000000000000000000000000000000000000000001690638929a8ca90604401602060405180830381865afa158015610dbd573d5f803e3d5ffd5b505050506040513d601f19601f82011682018060405250810190610de191906113ad565b15610deb57919050565b3391505090565b5f610e53826040518060400160405280602081526020017f5361666545524332303a206c6f772d6c6576656c2063616c6c206661696c65648152508573ffffffffffffffffffffffffffffffffffffffff16610f2f9092919063ffffffff16565b905080515f1480610e73575080806020019051810190610e7391906113ad565b6108c2576040517f08c379a000000000000000000000000000000000000000000000000000000000815260206004820152602a60248201527f5361666545524332303a204552433230206f7065726174696f6e20646964206e60448201527f6f7420737563636565640000000000000000000000000000000000000000000060648201526084016102ea565b365f6102587fffffffffffffffffffffffffffffffffffffffffffffffffffffffffffffffec83018284816113cc565b6060610f3d84845f85610f45565b949350505050565b606082471015610fd7576040517f08c379a000000000000000000000000000000000000000000000000000000000815260206004820152602660248201527f416464726573733a20696e73756666696369656e742062616c616e636520666f60448201527f722063616c6c000000000000000000000000000000000000000000000000000060648201526084016102ea565b5f808673ffffffffffffffffffffffffffffffffffffffff168587604051610fff9190611415565b5f6040518083038185875af1925050503d805f8114611039576040519150601f19603f3d011682016040523d82523d5f602084013e61103e565b606091505b509150915061104f8783838761105a565b979650505050505050565b606083156110ef5782515f036110e85773ffffffffffffffffffffffffffffffffffffffff85163b6110e8576040517f08c379a000000000000000000000000000000000000000000000000000000000815260206004820152601d60248201527f416464726573733a2063616c6c20746f206e6f6e2d636f6e747261637400000060448201526064016102ea565b5081610f3d565b610f3d83838151156111045781518083602001fd5b806040517f08c379a00000000000000000000000000000000000000000000000000000000081526004016102ea9190611430565b5f60208284031215611148575f80fd5b81357fffffffff0000000000000000000000000000000000000000000000000000000081168114611177575f80fd5b9392505050565b60208152816020820152818360408301375f818301604090810191909152601f9092017fffffffffffffffffffffffffffffffffffffffffffffffffffffffffffffffe0160101919050565b73ffffffffffffffffffffffffffffffffffffffff8116811461057a575f80fd5b5f602082840312156111fb575f80fd5b8135611177816111ca565b5f8083601f840112611216575f80fd5b50813567ffffffffffffffff81111561122d575f80fd5b6020830191508360208260051b8501011115611247575f80fd5b9250929050565b5f805f805f8060608789031215611263575f80fd5b863567ffffffffffffffff8082111561127a575f80fd5b6112868a838b01611206565b9098509650602089013591508082111561129e575f80fd5b6112aa8a838b01611206565b909650945060408901359150808211156112c2575f80fd5b506112cf89828a01611206565b979a9699509497509295939492505050565b5f805f80604085870312156112f4575f80fd5b843567ffffffffffffffff8082111561130b575f80fd5b61131788838901611206565b9096509450602087013591508082111561132f575f80fd5b5061133c87828801611206565b95989497509550505050565b7f4e487b71000000000000000000000000000000000000000000000000000000005f52603260045260245ffd5b81810381811115610248577f4e487b71000000000000000000000000000000000000000000000000000000005f52601160045260245ffd5b5f602082840312156113bd575f80fd5b81518015158114611177575f80fd5b5f80858511156113da575f80fd5b838611156113e6575f80fd5b5050820193919092039150565b5f5b8381101561140d5781810151838201526020016113f5565b50505f910152565b5f82516114268184602087016113f3565b9190910192915050565b602081525f825180602084015261144e8160408501602087016113f3565b601f017fffffffffffffffffffffffffffffffffffffffffffffffffffffffffffffffe016919091016040019291505056fea2646970667358221220532a8ed740d19ef71ec2fd05e6c61a2107c9d70f86e08701cfbe535cf5f9dcbd64736f6c63430008150033",
  "linkReferences": {},
  "deployedLinkReferences": {}
}