{
  "_format": "hh-sol-artifact-1",
  "contractName": "TokenRecoveryMock",
  "sourceName": "contracts/mocks/security/TokenRecoveryMock.sol",
  "abi": [
    {
      "inputs": [
        {
          "internalType": "contract IForwarderRegistry",
          "name": "forwarderRegistry",
          "type": "address"
        }
      ],
      "stateMutability": "nonpayable",
      "type": "constructor"
    },
    {
      "inputs": [],
      "name": "FailedCall",
      "type": "error"
    },
    {
      "inputs": [],
      "name": "IllegalInterfaceId",
      "type": "error"
    },
    {
      "inputs": [],
      "name": "InconsistentArrayLengths",
      "type": "error"
    },
    {
      "inputs": [
        {
          "internalType": "address",
          "name": "tokenContract",
          "type": "address"
        }
      ],
      "name": "IncorrectTokenContractType",
      "type": "error"
    },
    {
      "inputs": [
        {
          "internalType": "uint256",
          "name": "balance",
          "type": "uint256"
        },
        {
          "internalType": "uint256",
          "name": "needed",
          "type": "uint256"
        }
      ],
      "name": "InsufficientBalance",
      "type": "error"
    },
    {
      "inputs": [
        {
          "internalType": "address",
          "name": "account",
          "type": "address"
        }
      ],
      "name": "NotContractOwner",
      "type": "error"
    },
    {
      "inputs": [
        {
          "internalType": "address",
          "name": "token",
          "type": "address"
        }
      ],
      "name": "SafeERC20FailedOperation",
      "type": "error"
    },
    {
      "anonymous": false,
      "inputs": [
        {
          "indexed": true,
          "internalType": "address",
          "name": "previousOwner",
          "type": "address"
        },
        {
          "indexed": true,
          "internalType": "address",
          "name": "newOwner",
          "type": "address"
        }
      ],
      "name": "OwnershipTransferred",
      "type": "event"
    },
    {
      "inputs": [],
      "name": "__msgData",
      "outputs": [
        {
          "internalType": "bytes",
          "name": "",
          "type": "bytes"
        }
      ],
      "stateMutability": "view",
      "type": "function"
    },
    {
      "inputs": [],
      "name": "forwarderRegistry",
      "outputs": [
        {
          "internalType": "contract IForwarderRegistry",
          "name": "",
          "type": "address"
        }
      ],
      "stateMutability": "view",
      "type": "function"
    },
    {
      "inputs": [
        {
          "internalType": "address",
          "name": "forwarder",
          "type": "address"
        }
      ],
      "name": "isTrustedForwarder",
      "outputs": [
        {
          "internalType": "bool",
          "name": "",
          "type": "bool"
        }
      ],
      "stateMutability": "view",
      "type": "function"
    },
    {
      "inputs": [],
      "name": "owner",
      "outputs": [
        {
          "internalType": "address",
          "name": "",
          "type": "address"
        }
      ],
      "stateMutability": "view",
      "type": "function"
    },
    {
      "inputs": [
        {
          "internalType": "address[]",
          "name": "accounts",
          "type": "address[]"
        },
        {
          "internalType": "contract IERC20[]",
          "name": "tokens",
          "type": "address[]"
        },
        {
          "internalType": "uint256[]",
          "name": "amounts",
          "type": "uint256[]"
        }
      ],
      "name": "recoverERC20s",
      "outputs": [],
      "stateMutability": "nonpayable",
      "type": "function"
    },
    {
      "inputs": [
        {
          "internalType": "address[]",
          "name": "accounts",
          "type": "address[]"
        },
        {
          "internalType": "contract IERC721[]",
          "name": "contracts",
          "type": "address[]"
        },
        {
          "internalType": "uint256[]",
          "name": "tokenIds",
          "type": "uint256[]"
        }
      ],
      "name": "recoverERC721s",
      "outputs": [],
      "stateMutability": "nonpayable",
      "type": "function"
    },
    {
      "inputs": [
        {
          "internalType": "address payable[]",
          "name": "accounts",
          "type": "address[]"
        },
        {
          "internalType": "uint256[]",
          "name": "amounts",
          "type": "uint256[]"
        }
      ],
      "name": "recoverETH",
      "outputs": [],
      "stateMutability": "nonpayable",
      "type": "function"
    },
    {
      "inputs": [
        {
          "internalType": "bytes4",
          "name": "interfaceId",
          "type": "bytes4"
        }
      ],
      "name": "supportsInterface",
      "outputs": [
        {
          "internalType": "bool",
          "name": "",
          "type": "bool"
        }
      ],
      "stateMutability": "view",
      "type": "function"
    },
    {
      "inputs": [
        {
          "internalType": "address",
          "name": "newOwner",
          "type": "address"
        }
      ],
      "name": "transferOwnership",
      "outputs": [],
      "stateMutability": "nonpayable",
      "type": "function"
    },
    {
      "stateMutability": "payable",
      "type": "receive"
    }
  ],
  "bytecode": "0x60a060405234801561001057600080fd5b5060405161147938038061147983398101604081905261002f9161018d565b8080336100448161003e610059565b9061008d565b506001600160a01b0316608052506101de9050565b60008061008760017fc9ed16f33ab3a66c84bfd83099ccb2a8845871e2e1c1928f63797152f0fd54cd6101bd565b92915050565b6001600160a01b038116156100e35781546001600160a01b0319166001600160a01b03821690811783556040516000907f8be0079c531659141344cd1fd0a4f28419497f9722a3daafe3b4186f6b6457e0908290a35b6100ff6307f5828d60e41b60016100f8610103565b9190610131565b5050565b60008061008760017fca9d3e17f264b0f3984e2634e94adb37fa3e6a8103f06aeae6fa59e21c769f5e6101bd565b600160e01b6001600160e01b031983160161015f576040516372c683bb60e01b815260040160405180910390fd5b6001600160e01b03199190911660009081526020929092526040909120805460ff1916911515919091179055565b60006020828403121561019f57600080fd5b81516001600160a01b03811681146101b657600080fd5b9392505050565b8181038181111561008757634e487b7160e01b600052601160045260246000fd5b60805161125e61021b6000396000818160ea0152818161016f01528181610a5601528181610a9401528181610bd20152610c60015261125e6000f3fe60806040526004361061009a5760003560e01c806373c8a95811610069578063c3666c361161004e578063c3666c36146101e3578063f2fde38b14610203578063f7ba94bd1461022357600080fd5b806373c8a958146101ac5780638da5cb5b146101ce57600080fd5b806301ffc9a7146100a65780632b4c9f16146100db57806331e66e1e1461012f578063572b6c051461015257600080fd5b366100a157005b600080fd5b3480156100b257600080fd5b506100c66100c1366004610f3b565b610243565b60405190151581526020015b60405180910390f35b3480156100e757600080fd5b507f00000000000000000000000000000000000000000000000000000000000000005b60405173ffffffffffffffffffffffffffffffffffffffff90911681526020016100d2565b34801561013b57600080fd5b5061014461025d565b6040516100d2929190610f84565b34801561015e57600080fd5b506100c661016d366004610ff3565b7f000000000000000000000000000000000000000000000000000000000000000073ffffffffffffffffffffffffffffffffffffffff90811691161490565b3480156101b857600080fd5b506101cc6101c736600461105c565b610270565b005b3480156101da57600080fd5b5061010a61029f565b3480156101ef57600080fd5b506101cc6101fe36600461105c565b6102cb565b34801561020f57600080fd5b506101cc61021e366004610ff3565b6102e4565b34801561022f57600080fd5b506101cc61023e366004611102565b610302565b60006102578261025161031f565b9061034d565b92915050565b366000610268610427565b915091509091565b61028961027b610432565b61028361043c565b9061046a565b6102978686868686866104de565b505050505050565b60006102c66102ac61043c565b5473ffffffffffffffffffffffffffffffffffffffff1690565b905090565b6102d661027b610432565b6102978686868686866105c9565b6102ff6102ef610432565b826102f861043c565b919061085f565b50565b61030d61027b610432565b61031984848484610973565b50505050565b60008061025760017fca9d3e17f264b0f3984e2634e94adb37fa3e6a8103f06aeae6fa59e21c769f5e611173565b60007c01000000000000000000000000000000000000000000000000000000007fffffffff0000000000000000000000000000000000000000000000000000000083160161039d57506000610257565b7ffe003659000000000000000000000000000000000000000000000000000000007fffffffff000000000000000000000000000000000000000000000000000000008316016103ee57506001610257565b507fffffffff00000000000000000000000000000000000000000000000000000000166000908152602091909152604090205460ff1690565b366000610268610a1f565b60006102c6610b8f565b60008061025760017fc9ed16f33ab3a66c84bfd83099ccb2a8845871e2e1c1928f63797152f0fd54cd611173565b815473ffffffffffffffffffffffffffffffffffffffff8281169116146104da576040517f2ef4875e00000000000000000000000000000000000000000000000000000000815273ffffffffffffffffffffffffffffffffffffffff821660048201526024015b60405180910390fd5b5050565b8483811415806104ee5750808214155b15610525576040517f6582533600000000000000000000000000000000000000000000000000000000815260040160405180910390fd5b60005b818110156105bf576105b7888883818110610545576105456111ad565b905060200201602081019061055a9190610ff3565b85858481811061056c5761056c6111ad565b90506020020135888885818110610585576105856111ad565b905060200201602081019061059a9190610ff3565b73ffffffffffffffffffffffffffffffffffffffff169190610cdc565b600101610528565b5050505050505050565b8483811415806105d95750808214155b15610610576040517f6582533600000000000000000000000000000000000000000000000000000000815260040160405180910390fd5b60005b818110156105bf57600086868381811061062f5761062f6111ad565b90506020020160208101906106449190610ff3565b6040517f01ffc9a70000000000000000000000000000000000000000000000000000000081527f80ac58cd00000000000000000000000000000000000000000000000000000000600482015290915073ffffffffffffffffffffffffffffffffffffffff8216906301ffc9a790602401602060405180830381865afa1580156106d1573d6000803e3d6000fd5b505050506040513d601f19601f820116820180604052508101906106f591906111dc565b610743576040517f986b9f1f00000000000000000000000000000000000000000000000000000000815273ffffffffffffffffffffffffffffffffffffffff821660048201526024016104d1565b868683818110610755576107556111ad565b905060200201602081019061076a9190610ff3565b73ffffffffffffffffffffffffffffffffffffffff166342842e0e308b8b86818110610798576107986111ad565b90506020020160208101906107ad9190610ff3565b8888878181106107bf576107bf6111ad565b6040517fffffffff0000000000000000000000000000000000000000000000000000000060e088901b16815273ffffffffffffffffffffffffffffffffffffffff958616600482015294909316602485015250602090910201356044820152606401600060405180830381600087803b15801561083b57600080fd5b505af115801561084f573d6000803e3d6000fd5b5050505050806001019050610613565b825473ffffffffffffffffffffffffffffffffffffffff90811690831681146108cc576040517f2ef4875e00000000000000000000000000000000000000000000000000000000815273ffffffffffffffffffffffffffffffffffffffff841660048201526024016104d1565b8173ffffffffffffffffffffffffffffffffffffffff168173ffffffffffffffffffffffffffffffffffffffff16146103195783547fffffffffffffffffffffffff00000000000000000000000000000000000000001673ffffffffffffffffffffffffffffffffffffffff8381169182178655604051908316907f8be0079c531659141344cd1fd0a4f28419497f9722a3daafe3b4186f6b6457e090600090a350505050565b828181146109ad576040517f6582533600000000000000000000000000000000000000000000000000000000815260040160405180910390fd5b60005b8181101561029757610a178484838181106109cd576109cd6111ad565b905060200201358787848181106109e6576109e66111ad565b90506020020160208101906109fb9190610ff3565b73ffffffffffffffffffffffffffffffffffffffff1690610d6e565b6001016109b0565b36600033321480610a305750601836105b15610a3e5750600091369150565b3373ffffffffffffffffffffffffffffffffffffffff7f0000000000000000000000000000000000000000000000000000000000000000161480610b79575073ffffffffffffffffffffffffffffffffffffffff7f00000000000000000000000000000000000000000000000000000000000000001663019a2028367fffffffffffffffffffffffffffffffffffffffffffffffffffffffffffffffec013560601c6040517fffffffff0000000000000000000000000000000000000000000000000000000060e084901b16815273ffffffffffffffffffffffffffffffffffffffff9091166004820152336024820152306044820152606401602060405180830381865afa158015610b55573d6000803e3d6000fd5b505050506040513d601f19601f82011682018060405250810190610b7991906111dc565b15610b8657610268610e24565b50600091369150565b600033321480610b9f5750601836105b15610ba957503390565b7fffffffffffffffffffffffffffffffffffffffffffffffffffffffffffffffec36013560601c7f000000000000000000000000000000000000000000000000000000000000000073ffffffffffffffffffffffffffffffffffffffff16331480610ccb57506040517f019a202800000000000000000000000000000000000000000000000000000000815273ffffffffffffffffffffffffffffffffffffffff82811660048301523360248301523060448301527f0000000000000000000000000000000000000000000000000000000000000000169063019a202890606401602060405180830381865afa158015610ca7573d6000803e3d6000fd5b505050506040513d601f19601f82011682018060405250810190610ccb91906111dc565b15610cd557919050565b3391505090565b6040805173ffffffffffffffffffffffffffffffffffffffff8416602482015260448082018490528251808303909101815260649091019091526020810180517bffffffffffffffffffffffffffffffffffffffffffffffffffffffff167fa9059cbb00000000000000000000000000000000000000000000000000000000179052610d69908490610e55565b505050565b80471015610db1576040517fcf479181000000000000000000000000000000000000000000000000000000008152476004820152602481018290526044016104d1565b6000808373ffffffffffffffffffffffffffffffffffffffff168360405160006040518083038185875af1925050503d8060008114610e0c576040519150601f19603f3d011682016040523d82523d6000602084013e610e11565b606091505b5091509150816103195761031981610ef9565b3660006102687fffffffffffffffffffffffffffffffffffffffffffffffffffffffffffffffec83018284816111fe565b600080602060008451602086016000885af180610e78576040513d6000823e3d81fd5b50506000513d91508115610e90578060011415610eaa565b73ffffffffffffffffffffffffffffffffffffffff84163b155b15610319576040517f5274afe700000000000000000000000000000000000000000000000000000000815273ffffffffffffffffffffffffffffffffffffffff851660048201526024016104d1565b805115610f095780518082602001fd5b6040517fd6bda27500000000000000000000000000000000000000000000000000000000815260040160405180910390fd5b600060208284031215610f4d57600080fd5b81357fffffffff0000000000000000000000000000000000000000000000000000000081168114610f7d57600080fd5b9392505050565b60208152816020820152818360408301376000818301604090810191909152601f9092017fffffffffffffffffffffffffffffffffffffffffffffffffffffffffffffffe0160101919050565b73ffffffffffffffffffffffffffffffffffffffff811681146102ff57600080fd5b60006020828403121561100557600080fd5b8135610f7d81610fd1565b60008083601f84011261102257600080fd5b50813567ffffffffffffffff81111561103a57600080fd5b6020830191508360208260051b850101111561105557600080fd5b9250929050565b6000806000806000806060878903121561107557600080fd5b863567ffffffffffffffff81111561108c57600080fd5b61109889828a01611010565b909750955050602087013567ffffffffffffffff8111156110b857600080fd5b6110c489828a01611010565b909550935050604087013567ffffffffffffffff8111156110e457600080fd5b6110f089828a01611010565b979a9699509497509295939492505050565b6000806000806040858703121561111857600080fd5b843567ffffffffffffffff81111561112f57600080fd5b61113b87828801611010565b909550935050602085013567ffffffffffffffff81111561115b57600080fd5b61116787828801611010565b95989497509550505050565b81810381811115610257577f4e487b7100000000000000000000000000000000000000000000000000000000600052601160045260246000fd5b7f4e487b7100000000000000000000000000000000000000000000000000000000600052603260045260246000fd5b6000602082840312156111ee57600080fd5b81518015158114610f7d57600080fd5b6000808585111561120e57600080fd5b8386111561121b57600080fd5b505082019391909203915056fea2646970667358221220db1885a6a9df14724e89a54b8292b19f84a20892fc7e474ea2c8b82cdfa94f7364736f6c634300081c0033",
  "linkReferences": {},
  "deployedLinkReferences": {}
}