{
  "_format": "hh-sol-artifact-1",
  "contractName": "TokenRecoveryMock",
  "sourceName": "contracts/mocks/security/TokenRecoveryMock.sol",
  "abi": [
    {
      "inputs": [
        {
          "internalType": "contract IForwarderRegistry",
          "name": "forwarderRegistry",
          "type": "address"
        }
      ],
      "stateMutability": "nonpayable",
      "type": "constructor"
    },
    {
      "anonymous": false,
      "inputs": [
        {
          "indexed": true,
          "internalType": "address",
          "name": "previousOwner",
          "type": "address"
        },
        {
          "indexed": true,
          "internalType": "address",
          "name": "newOwner",
          "type": "address"
        }
      ],
      "name": "OwnershipTransferred",
      "type": "event"
    },
    {
      "inputs": [],
      "name": "__msgData",
      "outputs": [
        {
          "internalType": "bytes",
          "name": "",
          "type": "bytes"
        }
      ],
      "stateMutability": "view",
      "type": "function"
    },
    {
      "inputs": [],
      "name": "owner",
      "outputs": [
        {
          "internalType": "address",
          "name": "",
          "type": "address"
        }
      ],
      "stateMutability": "view",
      "type": "function"
    },
    {
      "inputs": [
        {
          "internalType": "address[]",
          "name": "accounts",
          "type": "address[]"
        },
        {
          "internalType": "address[]",
          "name": "tokens",
          "type": "address[]"
        },
        {
          "internalType": "uint256[]",
          "name": "amounts",
          "type": "uint256[]"
        }
      ],
      "name": "recoverERC20s",
      "outputs": [],
      "stateMutability": "nonpayable",
      "type": "function"
    },
    {
      "inputs": [
        {
          "internalType": "address[]",
          "name": "accounts",
          "type": "address[]"
        },
        {
          "internalType": "address[]",
          "name": "contracts",
          "type": "address[]"
        },
        {
          "internalType": "uint256[]",
          "name": "tokenIds",
          "type": "uint256[]"
        }
      ],
      "name": "recoverERC721s",
      "outputs": [],
      "stateMutability": "nonpayable",
      "type": "function"
    },
    {
      "inputs": [
        {
          "internalType": "address payable[]",
          "name": "accounts",
          "type": "address[]"
        },
        {
          "internalType": "uint256[]",
          "name": "amounts",
          "type": "uint256[]"
        }
      ],
      "name": "recoverETH",
      "outputs": [],
      "stateMutability": "nonpayable",
      "type": "function"
    },
    {
      "inputs": [
        {
          "internalType": "bytes4",
          "name": "interfaceId",
          "type": "bytes4"
        }
      ],
      "name": "supportsInterface",
      "outputs": [
        {
          "internalType": "bool",
          "name": "",
          "type": "bool"
        }
      ],
      "stateMutability": "view",
      "type": "function"
    },
    {
      "inputs": [
        {
          "internalType": "address",
          "name": "newOwner",
          "type": "address"
        }
      ],
      "name": "transferOwnership",
      "outputs": [],
      "stateMutability": "nonpayable",
      "type": "function"
    },
    {
      "stateMutability": "payable",
      "type": "receive"
    }
  ],
  "bytecode": "0x60a06040523480156200001157600080fd5b506040516200189a3803806200189a833981016040819052620000349162000201565b80336200006481620000506200007860201b620005d41760201c565b620000ae60201b620006021790919060201c565b506001600160a01b03166080525062000259565b600080620000a860017fc9ed16f33ab3a66c84bfd83099ccb2a8845871e2e1c1928f63797152f0fd54cd62000233565b92915050565b6001600160a01b03811615620001055781546001600160a01b0319166001600160a01b03821690811783556040516000907f8be0079c531659141344cd1fd0a4f28419497f9722a3daafe3b4186f6b6457e0908290a35b6200013d6307f5828d60e41b6001620001286200014160201b620006c31760201c565b6200017160201b620006f1179092919060201c565b5050565b600080620000a860017fca9d3e17f264b0f3984e2634e94adb37fa3e6a8103f06aeae6fa59e21c769f5e62000233565b600160e01b6001600160e01b0319831601620001d35760405162461bcd60e51b815260206004820152601f60248201527f496e74657266616365446574656374696f6e3a2077726f6e672076616c756500604482015260640160405180910390fd5b6001600160e01b03199190911660009081526020929092526040909120805460ff1916911515919091179055565b6000602082840312156200021457600080fd5b81516001600160a01b03811681146200022c57600080fd5b9392505050565b6000828210156200025457634e487b7160e01b600052601160045260246000fd5b500390565b6080516116106200028a60003960008181610ca001528181610d0a01528181610e480152610ee801526116106000f3fe6080604052600436106100745760003560e01c80638da5cb5b1161004e5780638da5cb5b146100fa578063c3666c3614610134578063f2fde38b14610154578063f7ba94bd1461017457600080fd5b806301ffc9a71461008057806331e66e1e146100b557806373c8a958146100d857600080fd5b3661007b57005b600080fd5b34801561008c57600080fd5b506100a061009b366004611245565b610194565b60405190151581526020015b60405180910390f35b3480156100c157600080fd5b506100ca6101ae565b6040516100ac929190611287565b3480156100e457600080fd5b506100f86100f3366004611320565b6101c1565b005b34801561010657600080fd5b5061010f6102f7565b60405173ffffffffffffffffffffffffffffffffffffffff90911681526020016100ac565b34801561014057600080fd5b506100f861014f366004611320565b610323565b34801561016057600080fd5b506100f861016f3660046113dc565b6104c8565b34801561018057600080fd5b506100f861018f3660046113f9565b6104e6565b60006101a8826101a26106c3565b906107fd565b92915050565b3660006101b96108d7565b915091509091565b6101da6101cc6108e2565b6101d46105d4565b906108ec565b8483811480156101e957508082145b610254576040517f08c379a000000000000000000000000000000000000000000000000000000000815260206004820152601d60248201527f5265636f766572793a20696e636f6e73697374656e742061727261797300000060448201526064015b60405180910390fd5b60005b8181146102ed576102e588888381811061027357610273611465565b905060200201602081019061028891906113dc565b85858481811061029a5761029a611465565b905060200201358888858181106102b3576102b3611465565b90506020020160208101906102c891906113dc565b73ffffffffffffffffffffffffffffffffffffffff16919061096f565b600101610257565b5050505050505050565b600061031e6103046105d4565b5473ffffffffffffffffffffffffffffffffffffffff1690565b905090565b61032e6101cc6108e2565b84838114801561033d57508082145b6103a3576040517f08c379a000000000000000000000000000000000000000000000000000000000815260206004820152601d60248201527f5265636f766572793a20696e636f6e73697374656e7420617272617973000000604482015260640161024b565b60005b8181146102ed578585828181106103bf576103bf611465565b90506020020160208101906103d491906113dc565b73ffffffffffffffffffffffffffffffffffffffff166323b872dd308a8a8581811061040257610402611465565b905060200201602081019061041791906113dc565b87878681811061042957610429611465565b6040517fffffffff0000000000000000000000000000000000000000000000000000000060e088901b16815273ffffffffffffffffffffffffffffffffffffffff958616600482015294909316602485015250602090910201356044820152606401600060405180830381600087803b1580156104a557600080fd5b505af11580156104b9573d6000803e3d6000fd5b505050508060010190506103a6565b6104e36104d36108e2565b826104dc6105d4565b9190610a01565b50565b6104f16101cc6108e2565b8281811461055b576040517f08c379a000000000000000000000000000000000000000000000000000000000815260206004820152601d60248201527f5265636f766572793a20696e636f6e73697374656e7420617272617973000000604482015260640161024b565b60005b8181146105cc576105c484848381811061057a5761057a611465565b9050602002013587878481811061059357610593611465565b90506020020160208101906105a891906113dc565b73ffffffffffffffffffffffffffffffffffffffff1690610b2e565b60010161055e565b505050505050565b6000806101a860017fc9ed16f33ab3a66c84bfd83099ccb2a8845871e2e1c1928f63797152f0fd54cd611494565b73ffffffffffffffffffffffffffffffffffffffff81161561068a5781547fffffffffffffffffffffffff00000000000000000000000000000000000000001673ffffffffffffffffffffffffffffffffffffffff821690811783556040516000907f8be0079c531659141344cd1fd0a4f28419497f9722a3daafe3b4186f6b6457e0908290a35b6106bf7f7f5828d00000000000000000000000000000000000000000000000000000000060016106b86106c3565b91906106f1565b5050565b6000806101a860017fca9d3e17f264b0f3984e2634e94adb37fa3e6a8103f06aeae6fa59e21c769f5e611494565b7c01000000000000000000000000000000000000000000000000000000007fffffffff00000000000000000000000000000000000000000000000000000000831601610799576040517f08c379a000000000000000000000000000000000000000000000000000000000815260206004820152601f60248201527f496e74657266616365446574656374696f6e3a2077726f6e672076616c756500604482015260640161024b565b7fffffffff00000000000000000000000000000000000000000000000000000000919091166000908152602092909252604090912080547fffffffffffffffffffffffffffffffffffffffffffffffffffffffffffffff0016911515919091179055565b60007c01000000000000000000000000000000000000000000000000000000007fffffffff0000000000000000000000000000000000000000000000000000000083160161084d575060006101a8565b7ffe003659000000000000000000000000000000000000000000000000000000007fffffffff0000000000000000000000000000000000000000000000000000000083160161089e575060016101a8565b507fffffffff00000000000000000000000000000000000000000000000000000000166000908152602091909152604090205460ff1690565b3660006101b9610c88565b600061031e610e0c565b815473ffffffffffffffffffffffffffffffffffffffff8281169116146106bf576040517f08c379a000000000000000000000000000000000000000000000000000000000815260206004820152601860248201527f4f776e6572736869703a206e6f7420746865206f776e65720000000000000000604482015260640161024b565b6040805173ffffffffffffffffffffffffffffffffffffffff8416602482015260448082018490528251808303909101815260649091019091526020810180517bffffffffffffffffffffffffffffffffffffffffffffffffffffffff167fa9059cbb000000000000000000000000000000000000000000000000000000001790526109fc908490610f64565b505050565b825473ffffffffffffffffffffffffffffffffffffffff9081169083168114610a86576040517f08c379a000000000000000000000000000000000000000000000000000000000815260206004820152601860248201527f4f776e6572736869703a206e6f7420746865206f776e65720000000000000000604482015260640161024b565b8173ffffffffffffffffffffffffffffffffffffffff168173ffffffffffffffffffffffffffffffffffffffff1614610b285783547fffffffffffffffffffffffff00000000000000000000000000000000000000001673ffffffffffffffffffffffffffffffffffffffff8381169182178655604051908316907f8be0079c531659141344cd1fd0a4f28419497f9722a3daafe3b4186f6b6457e090600090a35b50505050565b80471015610b98576040517f08c379a000000000000000000000000000000000000000000000000000000000815260206004820152601d60248201527f416464726573733a20696e73756666696369656e742062616c616e6365000000604482015260640161024b565b60008273ffffffffffffffffffffffffffffffffffffffff168260405160006040518083038185875af1925050503d8060008114610bf2576040519150601f19603f3d011682016040523d82523d6000602084013e610bf7565b606091505b50509050806109fc576040517f08c379a000000000000000000000000000000000000000000000000000000000815260206004820152603a60248201527f416464726573733a20756e61626c6520746f2073656e642076616c75652c207260448201527f6563697069656e74206d61792068617665207265766572746564000000000000606482015260840161024b565b36600033328103610c9e57506000923692509050565b7f000000000000000000000000000000000000000000000000000000000000000073ffffffffffffffffffffffffffffffffffffffff168173ffffffffffffffffffffffffffffffffffffffff161480610deb575073ffffffffffffffffffffffffffffffffffffffff7f00000000000000000000000000000000000000000000000000000000000000001663e60125d6367fffffffffffffffffffffffffffffffffffffffffffffffffffffffffffffffec013560601c6040517fffffffff0000000000000000000000000000000000000000000000000000000060e084901b16815273ffffffffffffffffffffffffffffffffffffffff91821660048201529084166024820152604401602060405180830381865afa158015610dc7573d6000803e3d6000fd5b505050506040513d601f19601f82011682018060405250810190610deb91906114d2565b15610e0157610df8611025565b92509250509091565b506000923692509050565b600033328103610e1b57919050565b6000367fffffffffffffffffffffffffffffffffffffffffffffffffffffffffffffffec013560601c90507f000000000000000000000000000000000000000000000000000000000000000073ffffffffffffffffffffffffffffffffffffffff168273ffffffffffffffffffffffffffffffffffffffff161480610f5357506040517fe60125d600000000000000000000000000000000000000000000000000000000815273ffffffffffffffffffffffffffffffffffffffff828116600483015283811660248301527f0000000000000000000000000000000000000000000000000000000000000000169063e60125d690604401602060405180830381865afa158015610f2f573d6000803e3d6000fd5b505050506040513d601f19601f82011682018060405250810190610f5391906114d2565b15610f5e5792915050565b50919050565b6000610fa1826040518060600160405280602381526020016115b86023913973ffffffffffffffffffffffffffffffffffffffff86169190611043565b8051909150156109fc5780806020019051810190610fbf91906114d2565b6109fc576040517f08c379a000000000000000000000000000000000000000000000000000000000815260206004820152601e60248201527f4552433230577261707065723a206f7065726174696f6e206661696c65640000604482015260640161024b565b366000808083611036601482611494565b926101b9939291906114f4565b6060611052848460008561105c565b90505b9392505050565b6060824710156110ee576040517f08c379a000000000000000000000000000000000000000000000000000000000815260206004820152602660248201527f416464726573733a20696e73756666696369656e742062616c616e636520666f60448201527f722063616c6c0000000000000000000000000000000000000000000000000000606482015260840161024b565b73ffffffffffffffffffffffffffffffffffffffff85163b61116c576040517f08c379a000000000000000000000000000000000000000000000000000000000815260206004820152601d60248201527f416464726573733a2063616c6c20746f206e6f6e2d636f6e7472616374000000604482015260640161024b565b6000808673ffffffffffffffffffffffffffffffffffffffff168587604051611195919061154a565b60006040518083038185875af1925050503d80600081146111d2576040519150601f19603f3d011682016040523d82523d6000602084013e6111d7565b606091505b50915091506111e78282866111f2565b979650505050505050565b60608315611201575081611055565b8251156112115782518084602001fd5b816040517f08c379a000000000000000000000000000000000000000000000000000000000815260040161024b9190611566565b60006020828403121561125757600080fd5b81357fffffffff000000000000000000000000000000000000000000000000000000008116811461105557600080fd5b60208152816020820152818360408301376000818301604090810191909152601f9092017fffffffffffffffffffffffffffffffffffffffffffffffffffffffffffffffe0160101919050565b60008083601f8401126112e657600080fd5b50813567ffffffffffffffff8111156112fe57600080fd5b6020830191508360208260051b850101111561131957600080fd5b9250929050565b6000806000806000806060878903121561133957600080fd5b863567ffffffffffffffff8082111561135157600080fd5b61135d8a838b016112d4565b9098509650602089013591508082111561137657600080fd5b6113828a838b016112d4565b9096509450604089013591508082111561139b57600080fd5b506113a889828a016112d4565b979a9699509497509295939492505050565b73ffffffffffffffffffffffffffffffffffffffff811681146104e357600080fd5b6000602082840312156113ee57600080fd5b8135611055816113ba565b6000806000806040858703121561140f57600080fd5b843567ffffffffffffffff8082111561142757600080fd5b611433888389016112d4565b9096509450602087013591508082111561144c57600080fd5b50611459878288016112d4565b95989497509550505050565b7f4e487b7100000000000000000000000000000000000000000000000000000000600052603260045260246000fd5b6000828210156114cd577f4e487b7100000000000000000000000000000000000000000000000000000000600052601160045260246000fd5b500390565b6000602082840312156114e457600080fd5b8151801515811461105557600080fd5b6000808585111561150457600080fd5b8386111561151157600080fd5b5050820193919092039150565b60005b83811015611539578181015183820152602001611521565b83811115610b285750506000910152565b6000825161155c81846020870161151e565b9190910192915050565b602081526000825180602084015261158581604085016020870161151e565b601f017fffffffffffffffffffffffffffffffffffffffffffffffffffffffffffffffe016919091016040019291505056fe4552433230577261707065723a206c6f772d6c6576656c2063616c6c206661696c6564a26469706673582212204126dc88acb008e1da11932b3f85a8d16fe10fbc4cee7aa21769aff2810027a464736f6c634300080e0033",
  "linkReferences": {},
  "deployedLinkReferences": {}
}