{
  "_format": "hh-sol-artifact-1",
  "contractName": "ERC1155MetadataPerTokenMock",
  "sourceName": "contracts/mocks/token/ERC1155/ERC1155MetadataURIPerTokenMock.sol",
  "abi": [
    {
      "inputs": [
        {
          "internalType": "contract IForwarderRegistry",
          "name": "forwarderRegistry",
          "type": "address"
        }
      ],
      "stateMutability": "nonpayable",
      "type": "constructor"
    },
    {
      "anonymous": false,
      "inputs": [
        {
          "indexed": true,
          "internalType": "address",
          "name": "owner",
          "type": "address"
        },
        {
          "indexed": true,
          "internalType": "address",
          "name": "operator",
          "type": "address"
        },
        {
          "indexed": false,
          "internalType": "bool",
          "name": "approved",
          "type": "bool"
        }
      ],
      "name": "ApprovalForAll",
      "type": "event"
    },
    {
      "anonymous": false,
      "inputs": [
        {
          "indexed": true,
          "internalType": "address",
          "name": "previousOwner",
          "type": "address"
        },
        {
          "indexed": true,
          "internalType": "address",
          "name": "newOwner",
          "type": "address"
        }
      ],
      "name": "OwnershipTransferred",
      "type": "event"
    },
    {
      "anonymous": false,
      "inputs": [
        {
          "indexed": false,
          "internalType": "bytes32",
          "name": "role",
          "type": "bytes32"
        },
        {
          "indexed": false,
          "internalType": "address",
          "name": "account",
          "type": "address"
        },
        {
          "indexed": false,
          "internalType": "address",
          "name": "operator",
          "type": "address"
        }
      ],
      "name": "RoleGranted",
      "type": "event"
    },
    {
      "anonymous": false,
      "inputs": [
        {
          "indexed": false,
          "internalType": "bytes32",
          "name": "role",
          "type": "bytes32"
        },
        {
          "indexed": false,
          "internalType": "address",
          "name": "account",
          "type": "address"
        },
        {
          "indexed": false,
          "internalType": "address",
          "name": "operator",
          "type": "address"
        }
      ],
      "name": "RoleRevoked",
      "type": "event"
    },
    {
      "anonymous": false,
      "inputs": [
        {
          "indexed": true,
          "internalType": "address",
          "name": "operator",
          "type": "address"
        },
        {
          "indexed": true,
          "internalType": "address",
          "name": "from",
          "type": "address"
        },
        {
          "indexed": true,
          "internalType": "address",
          "name": "to",
          "type": "address"
        },
        {
          "indexed": false,
          "internalType": "uint256[]",
          "name": "ids",
          "type": "uint256[]"
        },
        {
          "indexed": false,
          "internalType": "uint256[]",
          "name": "values",
          "type": "uint256[]"
        }
      ],
      "name": "TransferBatch",
      "type": "event"
    },
    {
      "anonymous": false,
      "inputs": [
        {
          "indexed": true,
          "internalType": "address",
          "name": "operator",
          "type": "address"
        },
        {
          "indexed": true,
          "internalType": "address",
          "name": "from",
          "type": "address"
        },
        {
          "indexed": true,
          "internalType": "address",
          "name": "to",
          "type": "address"
        },
        {
          "indexed": false,
          "internalType": "uint256",
          "name": "id",
          "type": "uint256"
        },
        {
          "indexed": false,
          "internalType": "uint256",
          "name": "value",
          "type": "uint256"
        }
      ],
      "name": "TransferSingle",
      "type": "event"
    },
    {
      "anonymous": false,
      "inputs": [
        {
          "indexed": false,
          "internalType": "string",
          "name": "value",
          "type": "string"
        },
        {
          "indexed": true,
          "internalType": "uint256",
          "name": "id",
          "type": "uint256"
        }
      ],
      "name": "URI",
      "type": "event"
    },
    {
      "inputs": [],
      "name": "MINTER_ROLE",
      "outputs": [
        {
          "internalType": "bytes32",
          "name": "",
          "type": "bytes32"
        }
      ],
      "stateMutability": "view",
      "type": "function"
    },
    {
      "inputs": [],
      "name": "__msgData",
      "outputs": [
        {
          "internalType": "bytes",
          "name": "",
          "type": "bytes"
        }
      ],
      "stateMutability": "view",
      "type": "function"
    },
    {
      "inputs": [
        {
          "internalType": "address",
          "name": "owner",
          "type": "address"
        },
        {
          "internalType": "uint256",
          "name": "id",
          "type": "uint256"
        }
      ],
      "name": "balanceOf",
      "outputs": [
        {
          "internalType": "uint256",
          "name": "balance",
          "type": "uint256"
        }
      ],
      "stateMutability": "view",
      "type": "function"
    },
    {
      "inputs": [
        {
          "internalType": "address[]",
          "name": "owners",
          "type": "address[]"
        },
        {
          "internalType": "uint256[]",
          "name": "ids",
          "type": "uint256[]"
        }
      ],
      "name": "balanceOfBatch",
      "outputs": [
        {
          "internalType": "uint256[]",
          "name": "balances",
          "type": "uint256[]"
        }
      ],
      "stateMutability": "view",
      "type": "function"
    },
    {
      "inputs": [
        {
          "internalType": "uint256[]",
          "name": "ids",
          "type": "uint256[]"
        },
        {
          "internalType": "string[]",
          "name": "metadataURIs",
          "type": "string[]"
        }
      ],
      "name": "batchSetTokenURI",
      "outputs": [],
      "stateMutability": "nonpayable",
      "type": "function"
    },
    {
      "inputs": [],
      "name": "forwarderRegistry",
      "outputs": [
        {
          "internalType": "contract IForwarderRegistry",
          "name": "",
          "type": "address"
        }
      ],
      "stateMutability": "view",
      "type": "function"
    },
    {
      "inputs": [
        {
          "internalType": "bytes32",
          "name": "role",
          "type": "bytes32"
        },
        {
          "internalType": "address",
          "name": "account",
          "type": "address"
        }
      ],
      "name": "grantRole",
      "outputs": [],
      "stateMutability": "nonpayable",
      "type": "function"
    },
    {
      "inputs": [
        {
          "internalType": "bytes32",
          "name": "role",
          "type": "bytes32"
        },
        {
          "internalType": "address",
          "name": "account",
          "type": "address"
        }
      ],
      "name": "hasRole",
      "outputs": [
        {
          "internalType": "bool",
          "name": "",
          "type": "bool"
        }
      ],
      "stateMutability": "view",
      "type": "function"
    },
    {
      "inputs": [
        {
          "internalType": "address",
          "name": "owner",
          "type": "address"
        },
        {
          "internalType": "address",
          "name": "operator",
          "type": "address"
        }
      ],
      "name": "isApprovedForAll",
      "outputs": [
        {
          "internalType": "bool",
          "name": "approvedForAll",
          "type": "bool"
        }
      ],
      "stateMutability": "view",
      "type": "function"
    },
    {
      "inputs": [
        {
          "internalType": "address",
          "name": "forwarder",
          "type": "address"
        }
      ],
      "name": "isTrustedForwarder",
      "outputs": [
        {
          "internalType": "bool",
          "name": "",
          "type": "bool"
        }
      ],
      "stateMutability": "view",
      "type": "function"
    },
    {
      "inputs": [],
      "name": "owner",
      "outputs": [
        {
          "internalType": "address",
          "name": "",
          "type": "address"
        }
      ],
      "stateMutability": "view",
      "type": "function"
    },
    {
      "inputs": [
        {
          "internalType": "bytes32",
          "name": "role",
          "type": "bytes32"
        }
      ],
      "name": "renounceRole",
      "outputs": [],
      "stateMutability": "nonpayable",
      "type": "function"
    },
    {
      "inputs": [
        {
          "internalType": "bytes32",
          "name": "role",
          "type": "bytes32"
        },
        {
          "internalType": "address",
          "name": "account",
          "type": "address"
        }
      ],
      "name": "revokeRole",
      "outputs": [],
      "stateMutability": "nonpayable",
      "type": "function"
    },
    {
      "inputs": [
        {
          "internalType": "address",
          "name": "to",
          "type": "address"
        },
        {
          "internalType": "uint256[]",
          "name": "ids",
          "type": "uint256[]"
        },
        {
          "internalType": "uint256[]",
          "name": "values",
          "type": "uint256[]"
        },
        {
          "internalType": "bytes",
          "name": "data",
          "type": "bytes"
        }
      ],
      "name": "safeBatchMint",
      "outputs": [],
      "stateMutability": "nonpayable",
      "type": "function"
    },
    {
      "inputs": [
        {
          "internalType": "address",
          "name": "from",
          "type": "address"
        },
        {
          "internalType": "address",
          "name": "to",
          "type": "address"
        },
        {
          "internalType": "uint256[]",
          "name": "ids",
          "type": "uint256[]"
        },
        {
          "internalType": "uint256[]",
          "name": "values",
          "type": "uint256[]"
        },
        {
          "internalType": "bytes",
          "name": "data",
          "type": "bytes"
        }
      ],
      "name": "safeBatchTransferFrom",
      "outputs": [],
      "stateMutability": "nonpayable",
      "type": "function"
    },
    {
      "inputs": [
        {
          "internalType": "address",
          "name": "to",
          "type": "address"
        },
        {
          "internalType": "uint256",
          "name": "id",
          "type": "uint256"
        },
        {
          "internalType": "uint256",
          "name": "value",
          "type": "uint256"
        },
        {
          "internalType": "bytes",
          "name": "data",
          "type": "bytes"
        }
      ],
      "name": "safeMint",
      "outputs": [],
      "stateMutability": "nonpayable",
      "type": "function"
    },
    {
      "inputs": [
        {
          "internalType": "address",
          "name": "from",
          "type": "address"
        },
        {
          "internalType": "address",
          "name": "to",
          "type": "address"
        },
        {
          "internalType": "uint256",
          "name": "id",
          "type": "uint256"
        },
        {
          "internalType": "uint256",
          "name": "value",
          "type": "uint256"
        },
        {
          "internalType": "bytes",
          "name": "data",
          "type": "bytes"
        }
      ],
      "name": "safeTransferFrom",
      "outputs": [],
      "stateMutability": "nonpayable",
      "type": "function"
    },
    {
      "inputs": [
        {
          "internalType": "address",
          "name": "operator",
          "type": "address"
        },
        {
          "internalType": "bool",
          "name": "approved",
          "type": "bool"
        }
      ],
      "name": "setApprovalForAll",
      "outputs": [],
      "stateMutability": "nonpayable",
      "type": "function"
    },
    {
      "inputs": [
        {
          "internalType": "uint256",
          "name": "id",
          "type": "uint256"
        },
        {
          "internalType": "string",
          "name": "metadataURI",
          "type": "string"
        }
      ],
      "name": "setTokenURI",
      "outputs": [],
      "stateMutability": "nonpayable",
      "type": "function"
    },
    {
      "inputs": [
        {
          "internalType": "bytes4",
          "name": "interfaceId",
          "type": "bytes4"
        }
      ],
      "name": "supportsInterface",
      "outputs": [
        {
          "internalType": "bool",
          "name": "",
          "type": "bool"
        }
      ],
      "stateMutability": "view",
      "type": "function"
    },
    {
      "inputs": [
        {
          "internalType": "address",
          "name": "newOwner",
          "type": "address"
        }
      ],
      "name": "transferOwnership",
      "outputs": [],
      "stateMutability": "nonpayable",
      "type": "function"
    },
    {
      "inputs": [
        {
          "internalType": "uint256",
          "name": "id",
          "type": "uint256"
        }
      ],
      "name": "uri",
      "outputs": [
        {
          "internalType": "string",
          "name": "metadataURI",
          "type": "string"
        }
      ],
      "stateMutability": "view",
      "type": "function"
    }
  ],
  "bytecode": "0x60a06040523480156200001157600080fd5b506040516200361a3803806200361a8339810160408190526200003491620002b1565b808080336200004d620000bd60201b620009651760201c565b6200007b8162000067620000f760201b6200099c1760201c565b6200012d60201b620009ca1790919060201c565b5062000091620001ab60201b62000a801760201c565b6001600160a01b031660805250620000b69050620001ce602090811b62000aae17901c565b5062000309565b620000f5636cdb3d1360e11b6001620000e0620001f160201b62000ad81760201c565b6200022160201b62000b06179092919060201c565b565b6000806200012760017fc9ed16f33ab3a66c84bfd83099ccb2a8845871e2e1c1928f63797152f0fd54cd620002e3565b92915050565b6001600160a01b03811615620001845781546001600160a01b0319166001600160a01b03821690811783556040516000907f8be0079c531659141344cd1fd0a4f28419497f9722a3daafe3b4186f6b6457e0908290a35b620001a76307f5828d60e41b6001620000e0620001f160201b62000ad81760201c565b5050565b620000f5631464324b60e21b6001620000e0620001f160201b62000ad81760201c565b620000f56303a24d0760e21b6001620000e0620001f160201b62000ad81760201c565b6000806200012760017fca9d3e17f264b0f3984e2634e94adb37fa3e6a8103f06aeae6fa59e21c769f5e620002e3565b600160e01b6001600160e01b0319831601620002835760405162461bcd60e51b815260206004820152601f60248201527f496e74657266616365446574656374696f6e3a2077726f6e672076616c756500604482015260640160405180910390fd5b6001600160e01b03199190911660009081526020929092526040909120805460ff1916911515919091179055565b600060208284031215620002c457600080fd5b81516001600160a01b0381168114620002dc57600080fd5b9392505050565b6000828210156200030457634e487b7160e01b600052601160045260246000fd5b500390565b6080516132d26200034860003960008181610219015281816102ca01528181612442015281816124e20152818161257601526125e001526132d26000f3fe608060405234801561001057600080fd5b50600436106101815760003560e01c80635cfa9297116100d8578063a22cb4651161008c578063e985e9c511610066578063e985e9c5146103a8578063f242432a146103bb578063f2fde38b146103ce57600080fd5b8063a22cb4651461035b578063d53913931461036e578063d547741f1461039557600080fd5b80638bb9c5bf116100bd5780638bb9c5bf1461032d5780638da5cb5b1461034057806391d148541461034857600080fd5b80635cfa9297146103075780636706467b1461031a57600080fd5b80632b4c9f161161013a57806331e66e1e1161011457806331e66e1e146102845780634e1273f41461029a578063572b6c05146102ba57600080fd5b80632b4c9f16146102175780632eb2c2d61461025e5780632f2ff15d1461027157600080fd5b80630d6a5bbb1161016b5780630d6a5bbb146101cf5780630e89341c146101e4578063162094c41461020457600080fd5b8062fdd58e1461018657806301ffc9a7146101ac575b600080fd5b610199610194366004612729565b6103e1565b6040519081526020015b60405180910390f35b6101bf6101ba366004612781565b610400565b60405190151581526020016101a3565b6101e26101dd366004612833565b610414565b005b6101f76101f23660046128de565b61050f565b6040516101a3919061296d565b6101e2610212366004612980565b610523565b7f00000000000000000000000000000000000000000000000000000000000000005b60405173ffffffffffffffffffffffffffffffffffffffff90911681526020016101a3565b6101e261026c3660046129cc565b61058c565b6101e261027f366004612a87565b610646565b61028c610674565b6040516101a3929190612ab3565b6102ad6102a8366004612b00565b610687565b6040516101a39190612ba7565b6101bf6102c8366004612bba565b7f000000000000000000000000000000000000000000000000000000000000000073ffffffffffffffffffffffffffffffffffffffff90811691161490565b6101e2610315366004612bd5565b61070a565b6101e2610328366004612b00565b61079c565b6101e261033b3660046128de565b6107c5565b6102396107e3565b6101bf610356366004612a87565b61080f565b6101e2610369366004612c4b565b610853565b6101997f6d696e746572000000000000000000000000000000000000000000000000000081565b6101e26103a3366004612a87565b610874565b6101bf6103b6366004612c82565b6108a2565b6101e26103c9366004612cac565b6108f0565b6101e26103dc366004612bba565b61094a565b60006103f783836103f0610c17565b9190610c45565b90505b92915050565b60006103fa8261040e610ad8565b90610cf9565b600061041e610dd3565b90506104547f6d696e74657200000000000000000000000000000000000000000000000000008261044d610ddd565b9190610e0b565b610505818989898080602002602001604051908101604052809392919081815260200183836020028082843760009201919091525050604080516020808d0282810182019093528c82529093508c92508b91829185019084908082843760009201919091525050604080516020601f8c018190048102820181019092528a815292508a91508990819084018382808284376000920191909152506104fb9250610c17915050565b9493929190610eb7565b5050505050505050565b60606103fa8261051d61109c565b906110ca565b61053c61052e610dd3565b61053661099c565b9061116d565b6105878383838080601f016020809104026020016040519081016040528093929190818152602001838380828437600092019190915250610580925061109c915050565b91906111f0565b505050565b610505610597610dd3565b898989898080602002602001604051908101604052809392919081815260200183836020028082843760009201919091525050604080516020808d0282810182019093528c82529093508c92508b91829185019084908082843760009201919091525050604080516020601f8c018190048102820181019092528a815292508a915089908190840183828082843760009201919091525061063b9250610c17915050565b959493929190611208565b6000610650610dd3565b905061065e8161053661099c565b61058783838361066c610ddd565b929190611466565b36600061067f61153c565b915091509091565b6060610701858580806020026020016040519081016040528093929190818152602001838360200280828437600092019190915250506040805160208089028281018201909352888252909350889250879182918501908490808284376000920191909152506106fa9250610c17915050565b9190611547565b95945050505050565b6000610714610dd3565b90506107437f6d696e74657200000000000000000000000000000000000000000000000000008261044d610ddd565b6107948187878787878080601f01602080910402602001604051908101604052809392919081815260200183838082843760009201919091525061078a9250610c17915050565b9493929190611679565b505050505050565b6107a761052e610dd3565b6107bf848484846107b661109c565b93929190611787565b50505050565b6107e06107d0610dd3565b826107d9610ddd565b919061185e565b50565b600061080a6107f061099c565b5473ffffffffffffffffffffffffffffffffffffffff1690565b905090565b60006103f7838361081e610ddd565b60009283526020908152604080842073ffffffffffffffffffffffffffffffffffffffff909316845291905290205460ff1690565b61087061085e610dd3565b8383610868610c17565b929190611902565b5050565b600061087e610dd3565b905061088c8161053661099c565b61058783838361089a610ddd565b929190611a32565b60006103f783836108b1610c17565b919073ffffffffffffffffffffffffffffffffffffffff9182166000908152600193909301602090815260408085209290931684525290205460ff1690565b6107946108fb610dd3565b8787878787878080601f01602080910402602001604051908101604052809392919081815260200183838082843760009201919091525061093f9250610c17915050565b959493929190611afc565b6107e0610955610dd3565b8261095e61099c565b9190611ca9565b61099a7fd9b67a26000000000000000000000000000000000000000000000000000000006001610993610ad8565b9190610b06565b565b6000806103fa60017fc9ed16f33ab3a66c84bfd83099ccb2a8845871e2e1c1928f63797152f0fd54cd612d24565b73ffffffffffffffffffffffffffffffffffffffff811615610a525781547fffffffffffffffffffffffff00000000000000000000000000000000000000001673ffffffffffffffffffffffffffffffffffffffff821690811783556040516000907f8be0079c531659141344cd1fd0a4f28419497f9722a3daafe3b4186f6b6457e0908290a35b6108707f7f5828d0000000000000000000000000000000000000000000000000000000006001610993610ad8565b61099a7f5190c92c000000000000000000000000000000000000000000000000000000006001610993610ad8565b61099a7f0e89341c0000000000000000000000000000000000000000000000000000000060016109935b6000806103fa60017fca9d3e17f264b0f3984e2634e94adb37fa3e6a8103f06aeae6fa59e21c769f5e612d24565b7c01000000000000000000000000000000000000000000000000000000007fffffffff00000000000000000000000000000000000000000000000000000000831601610bb3576040517f08c379a000000000000000000000000000000000000000000000000000000000815260206004820152601f60248201527f496e74657266616365446574656374696f6e3a2077726f6e672076616c75650060448201526064015b60405180910390fd5b7fffffffff00000000000000000000000000000000000000000000000000000000919091166000908152602092909252604090912080547fffffffffffffffffffffffffffffffffffffffffffffffffffffffffffffff0016911515919091179055565b6000806103fa60017f5ccf5846fa27a68fafc8e588671a68f5e67c2f9b56af4263806a4d71735e8613612d24565b600073ffffffffffffffffffffffffffffffffffffffff8316610cc4576040517f08c379a000000000000000000000000000000000000000000000000000000000815260206004820152601e60248201527f455243313135353a2062616c616e6365206f66206164647265737328302900006044820152606401610baa565b5060009081526020928352604080822073ffffffffffffffffffffffffffffffffffffffff9390931682529190925290205490565b60007c01000000000000000000000000000000000000000000000000000000007fffffffff00000000000000000000000000000000000000000000000000000000831601610d49575060006103fa565b7ffe003659000000000000000000000000000000000000000000000000000000007fffffffff00000000000000000000000000000000000000000000000000000000831601610d9a575060016103fa565b507fffffffff00000000000000000000000000000000000000000000000000000000166000908152602091909152604090205460ff1690565b600061080a611dd5565b6000806103fa60017fc8827d3282af6f37b64c3e9e6f3ac9df286ab0bb0fccd6f8661bf19adb368b23612d24565b60008281526020848152604080832073ffffffffffffffffffffffffffffffffffffffff8516845290915290205460ff1661058757610e4982611ddf565b604051602001610e599190612d62565b604080517fffffffffffffffffffffffffffffffffffffffffffffffffffffffffffffffe0818403018152908290527f08c379a0000000000000000000000000000000000000000000000000000000008252610baa9160040161296d565b73ffffffffffffffffffffffffffffffffffffffff8416610f34576040517f08c379a000000000000000000000000000000000000000000000000000000000815260206004820152601b60248201527f455243313135353a206d696e7420746f206164647265737328302900000000006044820152606401610baa565b8151835114610f9f576040517f08c379a000000000000000000000000000000000000000000000000000000000815260206004820152601c60248201527f455243313135353a20696e636f6e73697374656e7420617272617973000000006044820152606401610baa565b60005b83518114610ff057610fe88786868481518110610fc157610fc1612dce565b6020026020010151868581518110610fdb57610fdb612dce565b6020026020010151611f71565b600101610fa2565b508373ffffffffffffffffffffffffffffffffffffffff16600073ffffffffffffffffffffffffffffffffffffffff168673ffffffffffffffffffffffffffffffffffffffff167f4a39dc06d4c0dbc64b70af90fd698a233a518aa5d07e595d983b8c0526c8f7fb8686604051611068929190612dfd565b60405180910390a473ffffffffffffffffffffffffffffffffffffffff84163b156107945761079485600086868686612045565b6000806103fa60017f10425d47eba0194223d0d18d437db44682fcfacfc9f759b1b8092cc8a56516aa612d24565b60008181526020839052604090208054606091906110e790612e22565b80601f016020809104026020016040519081016040528092919081815260200182805461111390612e22565b80156111605780601f1061113557610100808354040283529160200191611160565b820191906000526020600020905b81548152906001019060200180831161114357829003601f168201915b5050505050905092915050565b815473ffffffffffffffffffffffffffffffffffffffff828116911614610870576040517f08c379a000000000000000000000000000000000000000000000000000000000815260206004820152601860248201527f4f776e6572736869703a206e6f7420746865206f776e657200000000000000006044820152606401610baa565b60008281526020849052604090206107bf8282612ee4565b73ffffffffffffffffffffffffffffffffffffffff8416611285576040517f08c379a000000000000000000000000000000000000000000000000000000000815260206004820152601f60248201527f455243313135353a207472616e7366657220746f2061646472657373283029006044820152606401610baa565b81518351146112f0576040517f08c379a000000000000000000000000000000000000000000000000000000000815260206004820152601c60248201527f455243313135353a20696e636f6e73697374656e7420617272617973000000006044820152606401610baa565b6112fb87868861216d565b611361576040517f08c379a000000000000000000000000000000000000000000000000000000000815260206004820152601c60248201527f455243313135353a206e6f6e2d617070726f7665642073656e646572000000006044820152606401610baa565b60005b835181146113b3576113ab88878787858151811061138457611384612dce565b602002602001015187868151811061139e5761139e612dce565b60200260200101516121e5565b600101611364565b508373ffffffffffffffffffffffffffffffffffffffff168573ffffffffffffffffffffffffffffffffffffffff168773ffffffffffffffffffffffffffffffffffffffff167f4a39dc06d4c0dbc64b70af90fd698a233a518aa5d07e595d983b8c0526c8f7fb868660405161142a929190612dfd565b60405180910390a473ffffffffffffffffffffffffffffffffffffffff84163b1561145d5761145d868686868686612045565b50505050505050565b60008381526020858152604080832073ffffffffffffffffffffffffffffffffffffffff8616845290915290205460ff166107bf5760008381526020858152604080832073ffffffffffffffffffffffffffffffffffffffff8681168086529184529382902080547fffffffffffffffffffffffffffffffffffffffffffffffffffffffffffffff00166001179055815187815292830152918316918101919091527f2f8788117e7eff1d82e926ec794901d17c78024a50270940304540a733656f0d906060015b60405180910390a150505050565b36600061067f61239f565b606081518351146115b4576040517f08c379a000000000000000000000000000000000000000000000000000000000815260206004820152601c60248201527f455243313135353a20696e636f6e73697374656e7420617272617973000000006044820152606401610baa565b825167ffffffffffffffff8111156115ce576115ce612e6f565b6040519080825280602002602001820160405280156115f7578160200160208202803683370190505b50905060005b835181146116715761164c84828151811061161a5761161a612dce565b602002602001015184838151811061163457611634612dce565b602002602001015187610c459092919063ffffffff16565b82828151811061165e5761165e612dce565b60209081029190910101526001016115fd565b509392505050565b73ffffffffffffffffffffffffffffffffffffffff84166116f6576040517f08c379a000000000000000000000000000000000000000000000000000000000815260206004820152601b60248201527f455243313135353a206d696e7420746f206164647265737328302900000000006044820152606401610baa565b61170286858585611f71565b604080518481526020810184905273ffffffffffffffffffffffffffffffffffffffff80871692600092918916917fc3d58168c5ae7397731d063d5bbf3d657854427343f4c083240f7aacaa2d0f62910160405180910390a473ffffffffffffffffffffffffffffffffffffffff84163b1561079457610794856000868686866123aa565b8281146117f0576040517f08c379a000000000000000000000000000000000000000000000000000000000815260206004820152601d60248201527f4d657461646174613a20696e636f6e73697374656e74206172726179730000006044820152606401610baa565b60005b8084146107945782828281811061180c5761180c612dce565b905060200281019061181e9190612ffe565b87600088888681811061183357611833612dce565b9050602002013581526020019081526020016000209182611855929190613063565b506001016117f3565b611869838284610e0b565b60008181526020848152604080832073ffffffffffffffffffffffffffffffffffffffff86168085529083529281902080547fffffffffffffffffffffffffffffffffffffffffffffffffffffffffffffff0016905580518481529182018390528101919091527ff6391f5c32d9c69d2a47ea670b442974b53935d1edc7fd64eb21e047a839171b9060600160405180910390a1505050565b8273ffffffffffffffffffffffffffffffffffffffff168273ffffffffffffffffffffffffffffffffffffffff1603611997576040517f08c379a000000000000000000000000000000000000000000000000000000000815260206004820152601e60248201527f455243313135353a2073656c662d617070726f76616c20666f7220616c6c00006044820152606401610baa565b73ffffffffffffffffffffffffffffffffffffffff838116600081815260018701602090815260408083209487168084529482529182902080547fffffffffffffffffffffffffffffffffffffffffffffffffffffffffffffff001686151590811790915591519182527f17307eab39ab6107e8899845ad3d59bd9653f200f220920489ca2b5937696c31910160405180910390a350505050565b60008381526020858152604080832073ffffffffffffffffffffffffffffffffffffffff8616845290915290205460ff16156107bf5760008381526020858152604080832073ffffffffffffffffffffffffffffffffffffffff8681168086529184529382902080547fffffffffffffffffffffffffffffffffffffffffffffffffffffffffffffff00169055815187815292830152918316918101919091527ff6391f5c32d9c69d2a47ea670b442974b53935d1edc7fd64eb21e047a839171b9060600161152e565b73ffffffffffffffffffffffffffffffffffffffff8416611b79576040517f08c379a000000000000000000000000000000000000000000000000000000000815260206004820152601f60248201527f455243313135353a207472616e7366657220746f2061646472657373283029006044820152606401610baa565b611b8487868861216d565b611bea576040517f08c379a000000000000000000000000000000000000000000000000000000000815260206004820152601c60248201527f455243313135353a206e6f6e2d617070726f7665642073656e646572000000006044820152606401610baa565b611bf787868686866121e5565b8373ffffffffffffffffffffffffffffffffffffffff168573ffffffffffffffffffffffffffffffffffffffff168773ffffffffffffffffffffffffffffffffffffffff167fc3d58168c5ae7397731d063d5bbf3d657854427343f4c083240f7aacaa2d0f628686604051611c76929190918252602082015260400190565b60405180910390a473ffffffffffffffffffffffffffffffffffffffff84163b1561145d5761145d8686868686866123aa565b825473ffffffffffffffffffffffffffffffffffffffff9081169083168114611d2e576040517f08c379a000000000000000000000000000000000000000000000000000000000815260206004820152601860248201527f4f776e6572736869703a206e6f7420746865206f776e657200000000000000006044820152606401610baa565b8173ffffffffffffffffffffffffffffffffffffffff168173ffffffffffffffffffffffffffffffffffffffff16146107bf5783547fffffffffffffffffffffffff00000000000000000000000000000000000000001673ffffffffffffffffffffffffffffffffffffffff8381169182178655604051908316907f8be0079c531659141344cd1fd0a4f28419497f9722a3daafe3b4186f6b6457e090600090a350505050565b600061080a612406565b60606000829003611dfe57505060408051602081019091526000815290565b600082604051602001611e1391815260200190565b604080517fffffffffffffffffffffffffffffffffffffffffffffffffffffffffffffffe08184030181529190529050601f5b818181518110611e5857611e58612dce565b01602001517fff0000000000000000000000000000000000000000000000000000000000000016600003611ead577fffffffffffffffffffffffffffffffffffffffffffffffffffffffffffffffff01611e46565b60008160010167ffffffffffffffff811115611ecb57611ecb612e6f565b6040519080825280601f01601f191660200182016040528015611ef5576020820181803683370190505b50905060005b828111611f6857838181518110611f1457611f14612dce565b602001015160f81c60f81b828281518110611f3157611f31612dce565b60200101907effffffffffffffffffffffffffffffffffffffffffffffffffffffffffffff1916908160001a905350600101611efb565b50949350505050565b80156107bf5760008281526020858152604080832073ffffffffffffffffffffffffffffffffffffffff87168452909152902054818101818111612011576040517f08c379a000000000000000000000000000000000000000000000000000000000815260206004820152601960248201527f455243313135353a2062616c616e6365206f766572666c6f77000000000000006044820152606401610baa565b60009384526020958652604080852073ffffffffffffffffffffffffffffffffffffffff9690961685529490955250502055565b6040517fbc197c81000000000000000000000000000000000000000000000000000000008082529073ffffffffffffffffffffffffffffffffffffffff86169063bc197c81906120a1908a908a9089908990899060040161317d565b6020604051808303816000875af11580156120c0573d6000803e3d6000fd5b505050506040513d601f19601f820116820180604052508101906120e491906131e8565b7fffffffff000000000000000000000000000000000000000000000000000000001614610794576040517f08c379a000000000000000000000000000000000000000000000000000000000815260206004820152601a60248201527f455243313135353a207472616e736665722072656a65637465640000000000006044820152606401610baa565b60008173ffffffffffffffffffffffffffffffffffffffff168373ffffffffffffffffffffffffffffffffffffffff1614806121dd575073ffffffffffffffffffffffffffffffffffffffff808416600090815260018601602090815260408083209386168352929052205460ff165b949350505050565b80156123985760008281526020868152604080832073ffffffffffffffffffffffffffffffffffffffff88168452909152902054818103818110612285576040517f08c379a000000000000000000000000000000000000000000000000000000000815260206004820152601d60248201527f455243313135353a20696e73756666696369656e742062616c616e63650000006044820152606401610baa565b8473ffffffffffffffffffffffffffffffffffffffff168673ffffffffffffffffffffffffffffffffffffffff161461145d5760008481526020888152604080832073ffffffffffffffffffffffffffffffffffffffff89168452909152902054838101818111612352576040517f08c379a000000000000000000000000000000000000000000000000000000000815260206004820152601960248201527f455243313135353a2062616c616e6365206f766572666c6f77000000000000006044820152606401610baa565b600086815260208a8152604080832073ffffffffffffffffffffffffffffffffffffffff808d1685528184528285208890558b1684529091529020805490910190555050505b5050505050565b36600061067f61255e565b6040517ff23a6e61000000000000000000000000000000000000000000000000000000008082529073ffffffffffffffffffffffffffffffffffffffff86169063f23a6e61906120a1908a908a90899089908990600401613205565b60003332810361241557919050565b6000367fffffffffffffffffffffffffffffffffffffffffffffffffffffffffffffffec013560601c90507f000000000000000000000000000000000000000000000000000000000000000073ffffffffffffffffffffffffffffffffffffffff168273ffffffffffffffffffffffffffffffffffffffff16148061254d57506040517fe60125d600000000000000000000000000000000000000000000000000000000815273ffffffffffffffffffffffffffffffffffffffff828116600483015283811660248301527f0000000000000000000000000000000000000000000000000000000000000000169063e60125d690604401602060405180830381865afa158015612529573d6000803e3d6000fd5b505050506040513d601f19601f8201168201806040525081019061254d9190613255565b156125585792915050565b50919050565b3660003332810361257457506000923692509050565b7f000000000000000000000000000000000000000000000000000000000000000073ffffffffffffffffffffffffffffffffffffffff168173ffffffffffffffffffffffffffffffffffffffff1614806126c1575073ffffffffffffffffffffffffffffffffffffffff7f00000000000000000000000000000000000000000000000000000000000000001663e60125d6367fffffffffffffffffffffffffffffffffffffffffffffffffffffffffffffffec013560601c6040517fffffffff0000000000000000000000000000000000000000000000000000000060e084901b16815273ffffffffffffffffffffffffffffffffffffffff91821660048201529084166024820152604401602060405180830381865afa15801561269d573d6000803e3d6000fd5b505050506040513d601f19601f820116820180604052508101906126c19190613255565b156126d7576126ce6126e2565b92509250509091565b506000923692509050565b3660008080836126f3601482612d24565b9261067f93929190613272565b803573ffffffffffffffffffffffffffffffffffffffff8116811461272457600080fd5b919050565b6000806040838503121561273c57600080fd5b61274583612700565b946020939093013593505050565b7fffffffff00000000000000000000000000000000000000000000000000000000811681146107e057600080fd5b60006020828403121561279357600080fd5b813561279e81612753565b9392505050565b60008083601f8401126127b757600080fd5b50813567ffffffffffffffff8111156127cf57600080fd5b6020830191508360208260051b85010111156127ea57600080fd5b9250929050565b60008083601f84011261280357600080fd5b50813567ffffffffffffffff81111561281b57600080fd5b6020830191508360208285010111156127ea57600080fd5b60008060008060008060006080888a03121561284e57600080fd5b61285788612700565b9650602088013567ffffffffffffffff8082111561287457600080fd5b6128808b838c016127a5565b909850965060408a013591508082111561289957600080fd5b6128a58b838c016127a5565b909650945060608a01359150808211156128be57600080fd5b506128cb8a828b016127f1565b989b979a50959850939692959293505050565b6000602082840312156128f057600080fd5b5035919050565b60005b838110156129125781810151838201526020016128fa565b838111156107bf5750506000910152565b6000815180845261293b8160208601602086016128f7565b601f017fffffffffffffffffffffffffffffffffffffffffffffffffffffffffffffffe0169290920160200192915050565b6020815260006103f76020830184612923565b60008060006040848603121561299557600080fd5b83359250602084013567ffffffffffffffff8111156129b357600080fd5b6129bf868287016127f1565b9497909650939450505050565b60008060008060008060008060a0898b0312156129e857600080fd5b6129f189612700565b97506129ff60208a01612700565b9650604089013567ffffffffffffffff80821115612a1c57600080fd5b612a288c838d016127a5565b909850965060608b0135915080821115612a4157600080fd5b612a4d8c838d016127a5565b909650945060808b0135915080821115612a6657600080fd5b50612a738b828c016127f1565b999c989b5096995094979396929594505050565b60008060408385031215612a9a57600080fd5b82359150612aaa60208401612700565b90509250929050565b60208152816020820152818360408301376000818301604090810191909152601f9092017fffffffffffffffffffffffffffffffffffffffffffffffffffffffffffffffe0160101919050565b60008060008060408587031215612b1657600080fd5b843567ffffffffffffffff80821115612b2e57600080fd5b612b3a888389016127a5565b90965094506020870135915080821115612b5357600080fd5b50612b60878288016127a5565b95989497509550505050565b600081518084526020808501945080840160005b83811015612b9c57815187529582019590820190600101612b80565b509495945050505050565b6020815260006103f76020830184612b6c565b600060208284031215612bcc57600080fd5b6103f782612700565b600080600080600060808688031215612bed57600080fd5b612bf686612700565b94506020860135935060408601359250606086013567ffffffffffffffff811115612c2057600080fd5b612c2c888289016127f1565b969995985093965092949392505050565b80151581146107e057600080fd5b60008060408385031215612c5e57600080fd5b612c6783612700565b91506020830135612c7781612c3d565b809150509250929050565b60008060408385031215612c9557600080fd5b612c9e83612700565b9150612aaa60208401612700565b60008060008060008060a08789031215612cc557600080fd5b612cce87612700565b9550612cdc60208801612700565b94506040870135935060608701359250608087013567ffffffffffffffff811115612d0657600080fd5b612d1289828a016127f1565b979a9699509497509295939492505050565b600082821015612d5d577f4e487b7100000000000000000000000000000000000000000000000000000000600052601160045260246000fd5b500390565b7f416363657373436f6e74726f6c3a206d697373696e6720270000000000000000815260008251612d9a8160188501602087016128f7565b7f2720726f6c6500000000000000000000000000000000000000000000000000006018939091019283015250601e01919050565b7f4e487b7100000000000000000000000000000000000000000000000000000000600052603260045260246000fd5b604081526000612e106040830185612b6c565b82810360208401526107018185612b6c565b600181811c90821680612e3657607f821691505b602082108103612558577f4e487b7100000000000000000000000000000000000000000000000000000000600052602260045260246000fd5b7f4e487b7100000000000000000000000000000000000000000000000000000000600052604160045260246000fd5b601f82111561058757600081815260208120601f850160051c81016020861015612ec55750805b601f850160051c820191505b8181101561079457828155600101612ed1565b815167ffffffffffffffff811115612efe57612efe612e6f565b612f1281612f0c8454612e22565b84612e9e565b602080601f831160018114612f655760008415612f2f5750858301515b7fffffffffffffffffffffffffffffffffffffffffffffffffffffffffffffffff600386901b1c1916600185901b178555610794565b6000858152602081207fffffffffffffffffffffffffffffffffffffffffffffffffffffffffffffffe08616915b82811015612fb257888601518255948401946001909101908401612f93565b5085821015612fee57878501517fffffffffffffffffffffffffffffffffffffffffffffffffffffffffffffffff600388901b60f8161c191681555b5050505050600190811b01905550565b60008083357fffffffffffffffffffffffffffffffffffffffffffffffffffffffffffffffe184360301811261303357600080fd5b83018035915067ffffffffffffffff82111561304e57600080fd5b6020019150368190038213156127ea57600080fd5b67ffffffffffffffff83111561307b5761307b612e6f565b61308f836130898354612e22565b83612e9e565b6000601f8411600181146130e157600085156130ab5750838201355b7fffffffffffffffffffffffffffffffffffffffffffffffffffffffffffffffff600387901b1c1916600186901b178355612398565b6000838152602090207fffffffffffffffffffffffffffffffffffffffffffffffffffffffffffffffe0861690835b828110156131305786850135825560209485019460019092019101613110565b508682101561316b577fffffffffffffffffffffffffffffffffffffffffffffffffffffffffffffffff60f88860031b161c19848701351681555b505060018560011b0183555050505050565b600073ffffffffffffffffffffffffffffffffffffffff808816835280871660208401525060a060408301526131b660a0830186612b6c565b82810360608401526131c88186612b6c565b905082810360808401526131dc8185612923565b98975050505050505050565b6000602082840312156131fa57600080fd5b815161279e81612753565b600073ffffffffffffffffffffffffffffffffffffffff808816835280871660208401525084604083015283606083015260a0608083015261324a60a0830184612923565b979650505050505050565b60006020828403121561326757600080fd5b815161279e81612c3d565b6000808585111561328257600080fd5b8386111561328f57600080fd5b505082019391909203915056fea2646970667358221220bcdfe3c02f00f0d934ee22d0b42d44c8b8baad58980a2e03a80a0fd1ae02854064736f6c634300080f0033",
  "linkReferences": {},
  "deployedLinkReferences": {}
}