{
  "_format": "hh-sol-artifact-1",
  "contractName": "ERC1155MetadataURIPerTokenMock",
  "sourceName": "contracts/mocks/token/ERC1155/ERC1155MetadataURIPerTokenMock.sol",
  "abi": [
    {
      "inputs": [
        {
          "internalType": "contract IForwarderRegistry",
          "name": "forwarderRegistry",
          "type": "address"
        }
      ],
      "stateMutability": "nonpayable",
      "type": "constructor"
    },
    {
      "anonymous": false,
      "inputs": [
        {
          "indexed": true,
          "internalType": "address",
          "name": "owner",
          "type": "address"
        },
        {
          "indexed": true,
          "internalType": "address",
          "name": "operator",
          "type": "address"
        },
        {
          "indexed": false,
          "internalType": "bool",
          "name": "approved",
          "type": "bool"
        }
      ],
      "name": "ApprovalForAll",
      "type": "event"
    },
    {
      "anonymous": false,
      "inputs": [
        {
          "indexed": true,
          "internalType": "address",
          "name": "previousOwner",
          "type": "address"
        },
        {
          "indexed": true,
          "internalType": "address",
          "name": "newOwner",
          "type": "address"
        }
      ],
      "name": "OwnershipTransferred",
      "type": "event"
    },
    {
      "anonymous": false,
      "inputs": [
        {
          "indexed": false,
          "internalType": "bytes32",
          "name": "role",
          "type": "bytes32"
        },
        {
          "indexed": false,
          "internalType": "address",
          "name": "account",
          "type": "address"
        },
        {
          "indexed": false,
          "internalType": "address",
          "name": "operator",
          "type": "address"
        }
      ],
      "name": "RoleGranted",
      "type": "event"
    },
    {
      "anonymous": false,
      "inputs": [
        {
          "indexed": false,
          "internalType": "bytes32",
          "name": "role",
          "type": "bytes32"
        },
        {
          "indexed": false,
          "internalType": "address",
          "name": "account",
          "type": "address"
        },
        {
          "indexed": false,
          "internalType": "address",
          "name": "operator",
          "type": "address"
        }
      ],
      "name": "RoleRevoked",
      "type": "event"
    },
    {
      "anonymous": false,
      "inputs": [
        {
          "indexed": true,
          "internalType": "address",
          "name": "operator",
          "type": "address"
        },
        {
          "indexed": true,
          "internalType": "address",
          "name": "from",
          "type": "address"
        },
        {
          "indexed": true,
          "internalType": "address",
          "name": "to",
          "type": "address"
        },
        {
          "indexed": false,
          "internalType": "uint256[]",
          "name": "ids",
          "type": "uint256[]"
        },
        {
          "indexed": false,
          "internalType": "uint256[]",
          "name": "values",
          "type": "uint256[]"
        }
      ],
      "name": "TransferBatch",
      "type": "event"
    },
    {
      "anonymous": false,
      "inputs": [
        {
          "indexed": true,
          "internalType": "address",
          "name": "operator",
          "type": "address"
        },
        {
          "indexed": true,
          "internalType": "address",
          "name": "from",
          "type": "address"
        },
        {
          "indexed": true,
          "internalType": "address",
          "name": "to",
          "type": "address"
        },
        {
          "indexed": false,
          "internalType": "uint256",
          "name": "id",
          "type": "uint256"
        },
        {
          "indexed": false,
          "internalType": "uint256",
          "name": "value",
          "type": "uint256"
        }
      ],
      "name": "TransferSingle",
      "type": "event"
    },
    {
      "anonymous": false,
      "inputs": [
        {
          "indexed": false,
          "internalType": "string",
          "name": "value",
          "type": "string"
        },
        {
          "indexed": true,
          "internalType": "uint256",
          "name": "id",
          "type": "uint256"
        }
      ],
      "name": "URI",
      "type": "event"
    },
    {
      "inputs": [],
      "name": "MINTER_ROLE",
      "outputs": [
        {
          "internalType": "bytes32",
          "name": "",
          "type": "bytes32"
        }
      ],
      "stateMutability": "view",
      "type": "function"
    },
    {
      "inputs": [],
      "name": "__msgData",
      "outputs": [
        {
          "internalType": "bytes",
          "name": "",
          "type": "bytes"
        }
      ],
      "stateMutability": "view",
      "type": "function"
    },
    {
      "inputs": [
        {
          "internalType": "address",
          "name": "owner",
          "type": "address"
        },
        {
          "internalType": "uint256",
          "name": "id",
          "type": "uint256"
        }
      ],
      "name": "balanceOf",
      "outputs": [
        {
          "internalType": "uint256",
          "name": "balance",
          "type": "uint256"
        }
      ],
      "stateMutability": "view",
      "type": "function"
    },
    {
      "inputs": [
        {
          "internalType": "address[]",
          "name": "owners",
          "type": "address[]"
        },
        {
          "internalType": "uint256[]",
          "name": "ids",
          "type": "uint256[]"
        }
      ],
      "name": "balanceOfBatch",
      "outputs": [
        {
          "internalType": "uint256[]",
          "name": "balances",
          "type": "uint256[]"
        }
      ],
      "stateMutability": "view",
      "type": "function"
    },
    {
      "inputs": [
        {
          "internalType": "uint256[]",
          "name": "ids",
          "type": "uint256[]"
        },
        {
          "internalType": "string[]",
          "name": "metadataURIs",
          "type": "string[]"
        }
      ],
      "name": "batchSetTokenURI",
      "outputs": [],
      "stateMutability": "nonpayable",
      "type": "function"
    },
    {
      "inputs": [],
      "name": "forwarderRegistry",
      "outputs": [
        {
          "internalType": "contract IForwarderRegistry",
          "name": "",
          "type": "address"
        }
      ],
      "stateMutability": "view",
      "type": "function"
    },
    {
      "inputs": [
        {
          "internalType": "bytes32",
          "name": "role",
          "type": "bytes32"
        },
        {
          "internalType": "address",
          "name": "account",
          "type": "address"
        }
      ],
      "name": "grantRole",
      "outputs": [],
      "stateMutability": "nonpayable",
      "type": "function"
    },
    {
      "inputs": [
        {
          "internalType": "bytes32",
          "name": "role",
          "type": "bytes32"
        },
        {
          "internalType": "address",
          "name": "account",
          "type": "address"
        }
      ],
      "name": "hasRole",
      "outputs": [
        {
          "internalType": "bool",
          "name": "",
          "type": "bool"
        }
      ],
      "stateMutability": "view",
      "type": "function"
    },
    {
      "inputs": [
        {
          "internalType": "address",
          "name": "owner",
          "type": "address"
        },
        {
          "internalType": "address",
          "name": "operator",
          "type": "address"
        }
      ],
      "name": "isApprovedForAll",
      "outputs": [
        {
          "internalType": "bool",
          "name": "approvedForAll",
          "type": "bool"
        }
      ],
      "stateMutability": "view",
      "type": "function"
    },
    {
      "inputs": [
        {
          "internalType": "address",
          "name": "forwarder",
          "type": "address"
        }
      ],
      "name": "isTrustedForwarder",
      "outputs": [
        {
          "internalType": "bool",
          "name": "",
          "type": "bool"
        }
      ],
      "stateMutability": "view",
      "type": "function"
    },
    {
      "inputs": [],
      "name": "owner",
      "outputs": [
        {
          "internalType": "address",
          "name": "",
          "type": "address"
        }
      ],
      "stateMutability": "view",
      "type": "function"
    },
    {
      "inputs": [
        {
          "internalType": "bytes32",
          "name": "role",
          "type": "bytes32"
        }
      ],
      "name": "renounceRole",
      "outputs": [],
      "stateMutability": "nonpayable",
      "type": "function"
    },
    {
      "inputs": [
        {
          "internalType": "bytes32",
          "name": "role",
          "type": "bytes32"
        },
        {
          "internalType": "address",
          "name": "account",
          "type": "address"
        }
      ],
      "name": "revokeRole",
      "outputs": [],
      "stateMutability": "nonpayable",
      "type": "function"
    },
    {
      "inputs": [
        {
          "internalType": "address",
          "name": "to",
          "type": "address"
        },
        {
          "internalType": "uint256[]",
          "name": "ids",
          "type": "uint256[]"
        },
        {
          "internalType": "uint256[]",
          "name": "values",
          "type": "uint256[]"
        },
        {
          "internalType": "bytes",
          "name": "data",
          "type": "bytes"
        }
      ],
      "name": "safeBatchMint",
      "outputs": [],
      "stateMutability": "nonpayable",
      "type": "function"
    },
    {
      "inputs": [
        {
          "internalType": "address",
          "name": "from",
          "type": "address"
        },
        {
          "internalType": "address",
          "name": "to",
          "type": "address"
        },
        {
          "internalType": "uint256[]",
          "name": "ids",
          "type": "uint256[]"
        },
        {
          "internalType": "uint256[]",
          "name": "values",
          "type": "uint256[]"
        },
        {
          "internalType": "bytes",
          "name": "data",
          "type": "bytes"
        }
      ],
      "name": "safeBatchTransferFrom",
      "outputs": [],
      "stateMutability": "nonpayable",
      "type": "function"
    },
    {
      "inputs": [
        {
          "internalType": "address",
          "name": "to",
          "type": "address"
        },
        {
          "internalType": "uint256",
          "name": "id",
          "type": "uint256"
        },
        {
          "internalType": "uint256",
          "name": "value",
          "type": "uint256"
        },
        {
          "internalType": "bytes",
          "name": "data",
          "type": "bytes"
        }
      ],
      "name": "safeMint",
      "outputs": [],
      "stateMutability": "nonpayable",
      "type": "function"
    },
    {
      "inputs": [
        {
          "internalType": "address",
          "name": "from",
          "type": "address"
        },
        {
          "internalType": "address",
          "name": "to",
          "type": "address"
        },
        {
          "internalType": "uint256",
          "name": "id",
          "type": "uint256"
        },
        {
          "internalType": "uint256",
          "name": "value",
          "type": "uint256"
        },
        {
          "internalType": "bytes",
          "name": "data",
          "type": "bytes"
        }
      ],
      "name": "safeTransferFrom",
      "outputs": [],
      "stateMutability": "nonpayable",
      "type": "function"
    },
    {
      "inputs": [
        {
          "internalType": "address",
          "name": "operator",
          "type": "address"
        },
        {
          "internalType": "bool",
          "name": "approved",
          "type": "bool"
        }
      ],
      "name": "setApprovalForAll",
      "outputs": [],
      "stateMutability": "nonpayable",
      "type": "function"
    },
    {
      "inputs": [
        {
          "internalType": "uint256",
          "name": "id",
          "type": "uint256"
        },
        {
          "internalType": "string",
          "name": "metadataURI",
          "type": "string"
        }
      ],
      "name": "setTokenURI",
      "outputs": [],
      "stateMutability": "nonpayable",
      "type": "function"
    },
    {
      "inputs": [
        {
          "internalType": "bytes4",
          "name": "interfaceId",
          "type": "bytes4"
        }
      ],
      "name": "supportsInterface",
      "outputs": [
        {
          "internalType": "bool",
          "name": "",
          "type": "bool"
        }
      ],
      "stateMutability": "view",
      "type": "function"
    },
    {
      "inputs": [
        {
          "internalType": "address",
          "name": "newOwner",
          "type": "address"
        }
      ],
      "name": "transferOwnership",
      "outputs": [],
      "stateMutability": "nonpayable",
      "type": "function"
    },
    {
      "inputs": [
        {
          "internalType": "uint256",
          "name": "id",
          "type": "uint256"
        }
      ],
      "name": "uri",
      "outputs": [
        {
          "internalType": "string",
          "name": "metadataURI",
          "type": "string"
        }
      ],
      "stateMutability": "view",
      "type": "function"
    }
  ],
  "bytecode": "0x60a06040523480156200001157600080fd5b5060405162003660380380620036608339810160408190526200003491620002b1565b808080336200004d620000bd60201b620009a71760201c565b6200007b8162000067620000f760201b620009de1760201c565b6200012d60201b62000a0c1790919060201c565b5062000091620001ab60201b62000ac21760201c565b6001600160a01b031660805250620000b69050620001ce602090811b62000af017901c565b5062000309565b620000f5636cdb3d1360e11b6001620000e0620001f160201b62000b1a1760201c565b6200022160201b62000b48179092919060201c565b565b6000806200012760017fc9ed16f33ab3a66c84bfd83099ccb2a8845871e2e1c1928f63797152f0fd54cd620002e3565b92915050565b6001600160a01b03811615620001845781546001600160a01b0319166001600160a01b03821690811783556040516000907f8be0079c531659141344cd1fd0a4f28419497f9722a3daafe3b4186f6b6457e0908290a35b620001a76307f5828d60e41b6001620000e0620001f160201b62000b1a1760201c565b5050565b620000f5631464324b60e21b6001620000e0620001f160201b62000b1a1760201c565b620000f56303a24d0760e21b6001620000e0620001f160201b62000b1a1760201c565b6000806200012760017fca9d3e17f264b0f3984e2634e94adb37fa3e6a8103f06aeae6fa59e21c769f5e620002e3565b600160e01b6001600160e01b0319831601620002835760405162461bcd60e51b815260206004820152601f60248201527f496e74657266616365446574656374696f6e3a2077726f6e672076616c756500604482015260640160405180910390fd5b6001600160e01b03199190911660009081526020929092526040909120805460ff1916911515919091179055565b600060208284031215620002c457600080fd5b81516001600160a01b0381168114620002dc57600080fd5b9392505050565b6000828210156200030457634e487b7160e01b600052601160045260246000fd5b500390565b6080516133186200034860003960008181610219015281816102ca0152818161248801528181612528015281816125bc015261262601526133186000f3fe608060405234801561001057600080fd5b50600436106101815760003560e01c80635cfa9297116100d8578063a22cb4651161008c578063e985e9c511610066578063e985e9c5146103a8578063f242432a146103bb578063f2fde38b146103ce57600080fd5b8063a22cb4651461035b578063d53913931461036e578063d547741f1461039557600080fd5b80638bb9c5bf116100bd5780638bb9c5bf1461032d5780638da5cb5b1461034057806391d148541461034857600080fd5b80635cfa9297146103075780636706467b1461031a57600080fd5b80632b4c9f161161013a57806331e66e1e1161011457806331e66e1e146102845780634e1273f41461029a578063572b6c05146102ba57600080fd5b80632b4c9f16146102175780632eb2c2d61461025e5780632f2ff15d1461027157600080fd5b80630d6a5bbb1161016b5780630d6a5bbb146101cf5780630e89341c146101e4578063162094c41461020457600080fd5b8062fdd58e1461018657806301ffc9a7146101ac575b600080fd5b61019961019436600461276f565b6103e1565b6040519081526020015b60405180910390f35b6101bf6101ba3660046127c7565b610400565b60405190151581526020016101a3565b6101e26101dd366004612879565b610414565b005b6101f76101f2366004612924565b61050f565b6040516101a391906129b3565b6101e26102123660046129c6565b610523565b7f00000000000000000000000000000000000000000000000000000000000000005b60405173ffffffffffffffffffffffffffffffffffffffff90911681526020016101a3565b6101e261026c366004612a12565b6105a7565b6101e261027f366004612acd565b610661565b61028c610695565b6040516101a3929190612af9565b6102ad6102a8366004612b46565b6106a8565b6040516101a39190612bed565b6101bf6102c8366004612c00565b7f000000000000000000000000000000000000000000000000000000000000000073ffffffffffffffffffffffffffffffffffffffff90811691161490565b6101e2610315366004612c1b565b61072b565b6101e2610328366004612b46565b6107bd565b6101e261033b366004612924565b610807565b610239610825565b6101bf610356366004612acd565b610851565b6101e2610369366004612c91565b610895565b6101997f6d696e746572000000000000000000000000000000000000000000000000000081565b6101e26103a3366004612acd565b6108b6565b6101bf6103b6366004612cc8565b6108e4565b6101e26103c9366004612cf2565b610932565b6101e26103dc366004612c00565b61098c565b60006103f783836103f0610c59565b9190610c87565b90505b92915050565b60006103fa8261040e610b1a565b90610d3b565b600061041e610e15565b90506104547f6d696e74657200000000000000000000000000000000000000000000000000008261044d610e1f565b9190610e4d565b610505818989898080602002602001604051908101604052809392919081815260200183836020028082843760009201919091525050604080516020808d0282810182019093528c82529093508c92508b91829185019084908082843760009201919091525050604080516020601f8c018190048102820181019092528a815292508a91508990819084018382808284376000920191909152506104fb9250610c59915050565b9493929190610ef9565b5050505050505050565b60606103fa8261051d6110e7565b90611115565b6105577f6d696e746572000000000000000000000000000000000000000000000000000061054f610e15565b61044d610e1f565b6105a28383838080601f01602080910402602001604051908101604052809392919081815260200183838082843760009201919091525061059b92506110e7915050565b91906111b8565b505050565b6105056105b2610e15565b898989898080602002602001604051908101604052809392919081815260200183836020028082843760009201919091525050604080516020808d0282810182019093528c82529093508c92508b91829185019084908082843760009201919091525050604080516020601f8c018190048102820181019092528a815292508a91508990819084018382808284376000920191909152506106569250610c59915050565b9594939291906111d0565b600061066b610e15565b905061067f816106796109de565b90611425565b6105a283838361068d610e1f565b9291906114a8565b3660006106a061157e565b915091509091565b60606107228585808060200260200160405190810160405280939291908181526020018383602002808284376000920191909152505060408051602080890282810182019093528882529093508892508791829185019084908082843760009201919091525061071b9250610c59915050565b9190611589565b95945050505050565b6000610735610e15565b90506107647f6d696e74657200000000000000000000000000000000000000000000000000008261044d610e1f565b6107b58187878787878080601f0160208091040260200160405190810160405280939291908181526020018383808284376000920191909152506107ab9250610c59915050565b94939291906116be565b505050505050565b6107e97f6d696e746572000000000000000000000000000000000000000000000000000061054f610e15565b610801848484846107f86110e7565b939291906117cc565b50505050565b610822610812610e15565b8261081b610e1f565b91906118a4565b50565b600061084c6108326109de565b5473ffffffffffffffffffffffffffffffffffffffff1690565b905090565b60006103f78383610860610e1f565b60009283526020908152604080842073ffffffffffffffffffffffffffffffffffffffff909316845291905290205460ff1690565b6108b26108a0610e15565b83836108aa610c59565b929190611948565b5050565b60006108c0610e15565b90506108ce816106796109de565b6105a28383836108dc610e1f565b929190611a78565b60006103f783836108f3610c59565b919073ffffffffffffffffffffffffffffffffffffffff9182166000908152600193909301602090815260408085209290931684525290205460ff1690565b6107b561093d610e15565b8787878787878080601f0160208091040260200160405190810160405280939291908181526020018383808284376000920191909152506109819250610c59915050565b959493929190611b42565b610822610997610e15565b826109a06109de565b9190611cef565b6109dc7fd9b67a260000000000000000000000000000000000000000000000000000000060016109d5610b1a565b9190610b48565b565b6000806103fa60017fc9ed16f33ab3a66c84bfd83099ccb2a8845871e2e1c1928f63797152f0fd54cd612d6a565b73ffffffffffffffffffffffffffffffffffffffff811615610a945781547fffffffffffffffffffffffff00000000000000000000000000000000000000001673ffffffffffffffffffffffffffffffffffffffff821690811783556040516000907f8be0079c531659141344cd1fd0a4f28419497f9722a3daafe3b4186f6b6457e0908290a35b6108b27f7f5828d00000000000000000000000000000000000000000000000000000000060016109d5610b1a565b6109dc7f5190c92c0000000000000000000000000000000000000000000000000000000060016109d5610b1a565b6109dc7f0e89341c0000000000000000000000000000000000000000000000000000000060016109d55b6000806103fa60017fca9d3e17f264b0f3984e2634e94adb37fa3e6a8103f06aeae6fa59e21c769f5e612d6a565b7c01000000000000000000000000000000000000000000000000000000007fffffffff00000000000000000000000000000000000000000000000000000000831601610bf5576040517f08c379a000000000000000000000000000000000000000000000000000000000815260206004820152601f60248201527f496e74657266616365446574656374696f6e3a2077726f6e672076616c75650060448201526064015b60405180910390fd5b7fffffffff00000000000000000000000000000000000000000000000000000000919091166000908152602092909252604090912080547fffffffffffffffffffffffffffffffffffffffffffffffffffffffffffffff0016911515919091179055565b6000806103fa60017f5ccf5846fa27a68fafc8e588671a68f5e67c2f9b56af4263806a4d71735e8613612d6a565b600073ffffffffffffffffffffffffffffffffffffffff8316610d06576040517f08c379a000000000000000000000000000000000000000000000000000000000815260206004820152601e60248201527f455243313135353a2062616c616e6365206f66206164647265737328302900006044820152606401610bec565b5060009081526020928352604080822073ffffffffffffffffffffffffffffffffffffffff9390931682529190925290205490565b60007c01000000000000000000000000000000000000000000000000000000007fffffffff00000000000000000000000000000000000000000000000000000000831601610d8b575060006103fa565b7ffe003659000000000000000000000000000000000000000000000000000000007fffffffff00000000000000000000000000000000000000000000000000000000831601610ddc575060016103fa565b507fffffffff00000000000000000000000000000000000000000000000000000000166000908152602091909152604090205460ff1690565b600061084c611e1b565b6000806103fa60017fc8827d3282af6f37b64c3e9e6f3ac9df286ab0bb0fccd6f8661bf19adb368b23612d6a565b60008281526020848152604080832073ffffffffffffffffffffffffffffffffffffffff8516845290915290205460ff166105a257610e8b82611e25565b604051602001610e9b9190612da8565b604080517fffffffffffffffffffffffffffffffffffffffffffffffffffffffffffffffe0818403018152908290527f08c379a0000000000000000000000000000000000000000000000000000000008252610bec916004016129b3565b73ffffffffffffffffffffffffffffffffffffffff8416610f76576040517f08c379a000000000000000000000000000000000000000000000000000000000815260206004820152601b60248201527f455243313135353a206d696e7420746f206164647265737328302900000000006044820152606401610bec565b825182518114610fe2576040517f08c379a000000000000000000000000000000000000000000000000000000000815260206004820152601c60248201527f455243313135353a20696e636f6e73697374656e7420617272617973000000006044820152606401610bec565b60005b8181146110325761102a888787848151811061100357611003612e14565b602002602001015187858151811061101d5761101d612e14565b6020026020010151611fb7565b600101610fe5565b508473ffffffffffffffffffffffffffffffffffffffff16600073ffffffffffffffffffffffffffffffffffffffff168773ffffffffffffffffffffffffffffffffffffffff167f4a39dc06d4c0dbc64b70af90fd698a233a518aa5d07e595d983b8c0526c8f7fb87876040516110aa929190612e43565b60405180910390a473ffffffffffffffffffffffffffffffffffffffff85163b156110de576110de8660008787878761208b565b50505050505050565b6000806103fa60017f10425d47eba0194223d0d18d437db44682fcfacfc9f759b1b8092cc8a56516aa612d6a565b600081815260208390526040902080546060919061113290612e68565b80601f016020809104026020016040519081016040528092919081815260200182805461115e90612e68565b80156111ab5780601f10611180576101008083540402835291602001916111ab565b820191906000526020600020905b81548152906001019060200180831161118e57829003601f168201915b5050505050905092915050565b60008281526020849052604090206108018282612f2a565b73ffffffffffffffffffffffffffffffffffffffff841661124d576040517f08c379a000000000000000000000000000000000000000000000000000000000815260206004820152601f60248201527f455243313135353a207472616e7366657220746f2061646472657373283029006044820152606401610bec565b8251825181146112b9576040517f08c379a000000000000000000000000000000000000000000000000000000000815260206004820152601c60248201527f455243313135353a20696e636f6e73697374656e7420617272617973000000006044820152606401610bec565b6112c48887896121b3565b61132a576040517f08c379a000000000000000000000000000000000000000000000000000000000815260206004820152601c60248201527f455243313135353a206e6f6e2d617070726f7665642073656e646572000000006044820152606401610bec565b60005b81811461137b5761137389888888858151811061134c5761134c612e14565b602002602001015188868151811061136657611366612e14565b602002602001015161222b565b60010161132d565b508473ffffffffffffffffffffffffffffffffffffffff168673ffffffffffffffffffffffffffffffffffffffff168873ffffffffffffffffffffffffffffffffffffffff167f4a39dc06d4c0dbc64b70af90fd698a233a518aa5d07e595d983b8c0526c8f7fb87876040516113f2929190612e43565b60405180910390a473ffffffffffffffffffffffffffffffffffffffff85163b156105055761050587878787878761208b565b815473ffffffffffffffffffffffffffffffffffffffff8281169116146108b2576040517f08c379a000000000000000000000000000000000000000000000000000000000815260206004820152601860248201527f4f776e6572736869703a206e6f7420746865206f776e657200000000000000006044820152606401610bec565b60008381526020858152604080832073ffffffffffffffffffffffffffffffffffffffff8616845290915290205460ff166108015760008381526020858152604080832073ffffffffffffffffffffffffffffffffffffffff8681168086529184529382902080547fffffffffffffffffffffffffffffffffffffffffffffffffffffffffffffff00166001179055815187815292830152918316918101919091527f2f8788117e7eff1d82e926ec794901d17c78024a50270940304540a733656f0d906060015b60405180910390a150505050565b3660006106a06123e5565b815181516060919081146115f9576040517f08c379a000000000000000000000000000000000000000000000000000000000815260206004820152601c60248201527f455243313135353a20696e636f6e73697374656e7420617272617973000000006044820152606401610bec565b835167ffffffffffffffff81111561161357611613612eb5565b60405190808252806020026020018201604052801561163c578160200160208202803683370190505b50915060005b8181146116b55761169085828151811061165e5761165e612e14565b602002602001015185838151811061167857611678612e14565b602002602001015188610c879092919063ffffffff16565b8382815181106116a2576116a2612e14565b6020908102919091010152600101611642565b50509392505050565b73ffffffffffffffffffffffffffffffffffffffff841661173b576040517f08c379a000000000000000000000000000000000000000000000000000000000815260206004820152601b60248201527f455243313135353a206d696e7420746f206164647265737328302900000000006044820152606401610bec565b61174786858585611fb7565b604080518481526020810184905273ffffffffffffffffffffffffffffffffffffffff80871692600092918916917fc3d58168c5ae7397731d063d5bbf3d657854427343f4c083240f7aacaa2d0f62910160405180910390a473ffffffffffffffffffffffffffffffffffffffff84163b156107b5576107b5856000868686866123f0565b82818114611836576040517f08c379a000000000000000000000000000000000000000000000000000000000815260206004820152601d60248201527f4d657461646174613a20696e636f6e73697374656e74206172726179730000006044820152606401610bec565b60005b8181146110de5783838281811061185257611852612e14565b90506020028101906118649190613044565b88600089898681811061187957611879612e14565b905060200201358152602001908152602001600020918261189b9291906130a9565b50600101611839565b6118af838284610e4d565b60008181526020848152604080832073ffffffffffffffffffffffffffffffffffffffff86168085529083529281902080547fffffffffffffffffffffffffffffffffffffffffffffffffffffffffffffff0016905580518481529182018390528101919091527ff6391f5c32d9c69d2a47ea670b442974b53935d1edc7fd64eb21e047a839171b9060600160405180910390a1505050565b8273ffffffffffffffffffffffffffffffffffffffff168273ffffffffffffffffffffffffffffffffffffffff16036119dd576040517f08c379a000000000000000000000000000000000000000000000000000000000815260206004820152601e60248201527f455243313135353a2073656c662d617070726f76616c20666f7220616c6c00006044820152606401610bec565b73ffffffffffffffffffffffffffffffffffffffff838116600081815260018701602090815260408083209487168084529482529182902080547fffffffffffffffffffffffffffffffffffffffffffffffffffffffffffffff001686151590811790915591519182527f17307eab39ab6107e8899845ad3d59bd9653f200f220920489ca2b5937696c31910160405180910390a350505050565b60008381526020858152604080832073ffffffffffffffffffffffffffffffffffffffff8616845290915290205460ff16156108015760008381526020858152604080832073ffffffffffffffffffffffffffffffffffffffff8681168086529184529382902080547fffffffffffffffffffffffffffffffffffffffffffffffffffffffffffffff00169055815187815292830152918316918101919091527ff6391f5c32d9c69d2a47ea670b442974b53935d1edc7fd64eb21e047a839171b90606001611570565b73ffffffffffffffffffffffffffffffffffffffff8416611bbf576040517f08c379a000000000000000000000000000000000000000000000000000000000815260206004820152601f60248201527f455243313135353a207472616e7366657220746f2061646472657373283029006044820152606401610bec565b611bca8786886121b3565b611c30576040517f08c379a000000000000000000000000000000000000000000000000000000000815260206004820152601c60248201527f455243313135353a206e6f6e2d617070726f7665642073656e646572000000006044820152606401610bec565b611c3d878686868661222b565b8373ffffffffffffffffffffffffffffffffffffffff168573ffffffffffffffffffffffffffffffffffffffff168773ffffffffffffffffffffffffffffffffffffffff167fc3d58168c5ae7397731d063d5bbf3d657854427343f4c083240f7aacaa2d0f628686604051611cbc929190918252602082015260400190565b60405180910390a473ffffffffffffffffffffffffffffffffffffffff84163b156110de576110de8686868686866123f0565b825473ffffffffffffffffffffffffffffffffffffffff9081169083168114611d74576040517f08c379a000000000000000000000000000000000000000000000000000000000815260206004820152601860248201527f4f776e6572736869703a206e6f7420746865206f776e657200000000000000006044820152606401610bec565b8173ffffffffffffffffffffffffffffffffffffffff168173ffffffffffffffffffffffffffffffffffffffff16146108015783547fffffffffffffffffffffffff00000000000000000000000000000000000000001673ffffffffffffffffffffffffffffffffffffffff8381169182178655604051908316907f8be0079c531659141344cd1fd0a4f28419497f9722a3daafe3b4186f6b6457e090600090a350505050565b600061084c61244c565b60606000829003611e4457505060408051602081019091526000815290565b600082604051602001611e5991815260200190565b604080517fffffffffffffffffffffffffffffffffffffffffffffffffffffffffffffffe08184030181529190529050601f5b818181518110611e9e57611e9e612e14565b01602001517fff0000000000000000000000000000000000000000000000000000000000000016600003611ef3577fffffffffffffffffffffffffffffffffffffffffffffffffffffffffffffffff01611e8c565b60008160010167ffffffffffffffff811115611f1157611f11612eb5565b6040519080825280601f01601f191660200182016040528015611f3b576020820181803683370190505b50905060005b828111611fae57838181518110611f5a57611f5a612e14565b602001015160f81c60f81b828281518110611f7757611f77612e14565b60200101907effffffffffffffffffffffffffffffffffffffffffffffffffffffffffffff1916908160001a905350600101611f41565b50949350505050565b80156108015760008281526020858152604080832073ffffffffffffffffffffffffffffffffffffffff87168452909152902054818101818111612057576040517f08c379a000000000000000000000000000000000000000000000000000000000815260206004820152601960248201527f455243313135353a2062616c616e6365206f766572666c6f77000000000000006044820152606401610bec565b60009384526020958652604080852073ffffffffffffffffffffffffffffffffffffffff9690961685529490955250502055565b6040517fbc197c81000000000000000000000000000000000000000000000000000000008082529073ffffffffffffffffffffffffffffffffffffffff86169063bc197c81906120e7908a908a908990899089906004016131c3565b6020604051808303816000875af1158015612106573d6000803e3d6000fd5b505050506040513d601f19601f8201168201806040525081019061212a919061322e565b7fffffffff0000000000000000000000000000000000000000000000000000000016146107b5576040517f08c379a000000000000000000000000000000000000000000000000000000000815260206004820152601a60248201527f455243313135353a207472616e736665722072656a65637465640000000000006044820152606401610bec565b60008173ffffffffffffffffffffffffffffffffffffffff168373ffffffffffffffffffffffffffffffffffffffff161480612223575073ffffffffffffffffffffffffffffffffffffffff808416600090815260018601602090815260408083209386168352929052205460ff165b949350505050565b80156123de5760008281526020868152604080832073ffffffffffffffffffffffffffffffffffffffff881684529091529020548181038181106122cb576040517f08c379a000000000000000000000000000000000000000000000000000000000815260206004820152601d60248201527f455243313135353a20696e73756666696369656e742062616c616e63650000006044820152606401610bec565b8473ffffffffffffffffffffffffffffffffffffffff168673ffffffffffffffffffffffffffffffffffffffff16146110de5760008481526020888152604080832073ffffffffffffffffffffffffffffffffffffffff89168452909152902054838101818111612398576040517f08c379a000000000000000000000000000000000000000000000000000000000815260206004820152601960248201527f455243313135353a2062616c616e6365206f766572666c6f77000000000000006044820152606401610bec565b600086815260208a8152604080832073ffffffffffffffffffffffffffffffffffffffff808d1685528184528285208890558b1684529091529020805490910190555050505b5050505050565b3660006106a06125a4565b6040517ff23a6e61000000000000000000000000000000000000000000000000000000008082529073ffffffffffffffffffffffffffffffffffffffff86169063f23a6e61906120e7908a908a9089908990899060040161324b565b60003332810361245b57919050565b6000367fffffffffffffffffffffffffffffffffffffffffffffffffffffffffffffffec013560601c90507f000000000000000000000000000000000000000000000000000000000000000073ffffffffffffffffffffffffffffffffffffffff168273ffffffffffffffffffffffffffffffffffffffff16148061259357506040517fe60125d600000000000000000000000000000000000000000000000000000000815273ffffffffffffffffffffffffffffffffffffffff828116600483015283811660248301527f0000000000000000000000000000000000000000000000000000000000000000169063e60125d690604401602060405180830381865afa15801561256f573d6000803e3d6000fd5b505050506040513d601f19601f82011682018060405250810190612593919061329b565b1561259e5792915050565b50919050565b366000333281036125ba57506000923692509050565b7f000000000000000000000000000000000000000000000000000000000000000073ffffffffffffffffffffffffffffffffffffffff168173ffffffffffffffffffffffffffffffffffffffff161480612707575073ffffffffffffffffffffffffffffffffffffffff7f00000000000000000000000000000000000000000000000000000000000000001663e60125d6367fffffffffffffffffffffffffffffffffffffffffffffffffffffffffffffffec013560601c6040517fffffffff0000000000000000000000000000000000000000000000000000000060e084901b16815273ffffffffffffffffffffffffffffffffffffffff91821660048201529084166024820152604401602060405180830381865afa1580156126e3573d6000803e3d6000fd5b505050506040513d601f19601f82011682018060405250810190612707919061329b565b1561271d57612714612728565b92509250509091565b506000923692509050565b366000808083612739601482612d6a565b926106a0939291906132b8565b803573ffffffffffffffffffffffffffffffffffffffff8116811461276a57600080fd5b919050565b6000806040838503121561278257600080fd5b61278b83612746565b946020939093013593505050565b7fffffffff000000000000000000000000000000000000000000000000000000008116811461082257600080fd5b6000602082840312156127d957600080fd5b81356127e481612799565b9392505050565b60008083601f8401126127fd57600080fd5b50813567ffffffffffffffff81111561281557600080fd5b6020830191508360208260051b850101111561283057600080fd5b9250929050565b60008083601f84011261284957600080fd5b50813567ffffffffffffffff81111561286157600080fd5b60208301915083602082850101111561283057600080fd5b60008060008060008060006080888a03121561289457600080fd5b61289d88612746565b9650602088013567ffffffffffffffff808211156128ba57600080fd5b6128c68b838c016127eb565b909850965060408a01359150808211156128df57600080fd5b6128eb8b838c016127eb565b909650945060608a013591508082111561290457600080fd5b506129118a828b01612837565b989b979a50959850939692959293505050565b60006020828403121561293657600080fd5b5035919050565b60005b83811015612958578181015183820152602001612940565b838111156108015750506000910152565b6000815180845261298181602086016020860161293d565b601f017fffffffffffffffffffffffffffffffffffffffffffffffffffffffffffffffe0169290920160200192915050565b6020815260006103f76020830184612969565b6000806000604084860312156129db57600080fd5b83359250602084013567ffffffffffffffff8111156129f957600080fd5b612a0586828701612837565b9497909650939450505050565b60008060008060008060008060a0898b031215612a2e57600080fd5b612a3789612746565b9750612a4560208a01612746565b9650604089013567ffffffffffffffff80821115612a6257600080fd5b612a6e8c838d016127eb565b909850965060608b0135915080821115612a8757600080fd5b612a938c838d016127eb565b909650945060808b0135915080821115612aac57600080fd5b50612ab98b828c01612837565b999c989b5096995094979396929594505050565b60008060408385031215612ae057600080fd5b82359150612af060208401612746565b90509250929050565b60208152816020820152818360408301376000818301604090810191909152601f9092017fffffffffffffffffffffffffffffffffffffffffffffffffffffffffffffffe0160101919050565b60008060008060408587031215612b5c57600080fd5b843567ffffffffffffffff80821115612b7457600080fd5b612b80888389016127eb565b90965094506020870135915080821115612b9957600080fd5b50612ba6878288016127eb565b95989497509550505050565b600081518084526020808501945080840160005b83811015612be257815187529582019590820190600101612bc6565b509495945050505050565b6020815260006103f76020830184612bb2565b600060208284031215612c1257600080fd5b6103f782612746565b600080600080600060808688031215612c3357600080fd5b612c3c86612746565b94506020860135935060408601359250606086013567ffffffffffffffff811115612c6657600080fd5b612c7288828901612837565b969995985093965092949392505050565b801515811461082257600080fd5b60008060408385031215612ca457600080fd5b612cad83612746565b91506020830135612cbd81612c83565b809150509250929050565b60008060408385031215612cdb57600080fd5b612ce483612746565b9150612af060208401612746565b60008060008060008060a08789031215612d0b57600080fd5b612d1487612746565b9550612d2260208801612746565b94506040870135935060608701359250608087013567ffffffffffffffff811115612d4c57600080fd5b612d5889828a01612837565b979a9699509497509295939492505050565b600082821015612da3577f4e487b7100000000000000000000000000000000000000000000000000000000600052601160045260246000fd5b500390565b7f416363657373436f6e74726f6c3a206d697373696e6720270000000000000000815260008251612de081601885016020870161293d565b7f2720726f6c6500000000000000000000000000000000000000000000000000006018939091019283015250601e01919050565b7f4e487b7100000000000000000000000000000000000000000000000000000000600052603260045260246000fd5b604081526000612e566040830185612bb2565b82810360208401526107228185612bb2565b600181811c90821680612e7c57607f821691505b60208210810361259e577f4e487b7100000000000000000000000000000000000000000000000000000000600052602260045260246000fd5b7f4e487b7100000000000000000000000000000000000000000000000000000000600052604160045260246000fd5b601f8211156105a257600081815260208120601f850160051c81016020861015612f0b5750805b601f850160051c820191505b818110156107b557828155600101612f17565b815167ffffffffffffffff811115612f4457612f44612eb5565b612f5881612f528454612e68565b84612ee4565b602080601f831160018114612fab5760008415612f755750858301515b7fffffffffffffffffffffffffffffffffffffffffffffffffffffffffffffffff600386901b1c1916600185901b1785556107b5565b6000858152602081207fffffffffffffffffffffffffffffffffffffffffffffffffffffffffffffffe08616915b82811015612ff857888601518255948401946001909101908401612fd9565b508582101561303457878501517fffffffffffffffffffffffffffffffffffffffffffffffffffffffffffffffff600388901b60f8161c191681555b5050505050600190811b01905550565b60008083357fffffffffffffffffffffffffffffffffffffffffffffffffffffffffffffffe184360301811261307957600080fd5b83018035915067ffffffffffffffff82111561309457600080fd5b60200191503681900382131561283057600080fd5b67ffffffffffffffff8311156130c1576130c1612eb5565b6130d5836130cf8354612e68565b83612ee4565b6000601f84116001811461312757600085156130f15750838201355b7fffffffffffffffffffffffffffffffffffffffffffffffffffffffffffffffff600387901b1c1916600186901b1783556123de565b6000838152602090207fffffffffffffffffffffffffffffffffffffffffffffffffffffffffffffffe0861690835b828110156131765786850135825560209485019460019092019101613156565b50868210156131b1577fffffffffffffffffffffffffffffffffffffffffffffffffffffffffffffffff60f88860031b161c19848701351681555b505060018560011b0183555050505050565b600073ffffffffffffffffffffffffffffffffffffffff808816835280871660208401525060a060408301526131fc60a0830186612bb2565b828103606084015261320e8186612bb2565b905082810360808401526132228185612969565b98975050505050505050565b60006020828403121561324057600080fd5b81516127e481612799565b600073ffffffffffffffffffffffffffffffffffffffff808816835280871660208401525084604083015283606083015260a0608083015261329060a0830184612969565b979650505050505050565b6000602082840312156132ad57600080fd5b81516127e481612c83565b600080858511156132c857600080fd5b838611156132d557600080fd5b505082019391909203915056fea26469706673582212204353cd67d0100899ad0e97b9442edfe3475bafadefbcbb83b228a49e16423a1764736f6c634300080f0033",
  "linkReferences": {},
  "deployedLinkReferences": {}
}