{
  "_format": "hh-sol-artifact-1",
  "contractName": "ForwarderRegistryContextFacet",
  "sourceName": "contracts/metatx/ForwarderRegistryContextFacet.sol",
  "abi": [
    {
      "inputs": [
        {
          "internalType": "contract IForwarderRegistry",
          "name": "forwarderRegistry_",
          "type": "address"
        }
      ],
      "stateMutability": "nonpayable",
      "type": "constructor"
    },
    {
      "inputs": [],
      "name": "forwarderRegistry",
      "outputs": [
        {
          "internalType": "contract IForwarderRegistry",
          "name": "",
          "type": "address"
        }
      ],
      "stateMutability": "view",
      "type": "function"
    },
    {
      "inputs": [
        {
          "internalType": "address",
          "name": "forwarder",
          "type": "address"
        }
      ],
      "name": "isTrustedForwarder",
      "outputs": [
        {
          "internalType": "bool",
          "name": "",
          "type": "bool"
        }
      ],
      "stateMutability": "view",
      "type": "function"
    }
  ],
  "bytecode": "0x60a060405234801561001057600080fd5b506040516101ec3803806101ec83398101604081905261002f91610040565b6001600160a01b0316608052610070565b60006020828403121561005257600080fd5b81516001600160a01b038116811461006957600080fd5b9392505050565b60805161015c6100906000396000818160400152609c015261015c6000f3fe608060405234801561001057600080fd5b50600436106100365760003560e01c80632b4c9f161461003b578063572b6c051461008c575b600080fd5b6100627f000000000000000000000000000000000000000000000000000000000000000081565b60405173ffffffffffffffffffffffffffffffffffffffff90911681526020015b60405180910390f35b6100d961009a3660046100e9565b7f000000000000000000000000000000000000000000000000000000000000000073ffffffffffffffffffffffffffffffffffffffff90811691161490565b6040519015158152602001610083565b6000602082840312156100fb57600080fd5b813573ffffffffffffffffffffffffffffffffffffffff8116811461011f57600080fd5b939250505056fea2646970667358221220c168b37567e757c0cf36b210c26cb434cb78284a5235d148d0c5957e0dcfac6464736f6c634300080e0033",
  "linkReferences": {},
  "deployedLinkReferences": {}
}