{
  "_format": "hh-sol-artifact-1",
  "contractName": "SealedExecutorMock",
  "sourceName": "contracts/mocks/security/SealedExecutorMock.sol",
  "abi": [
    {
      "inputs": [
        {
          "internalType": "contract IForwarderRegistry",
          "name": "forwarderRegistry",
          "type": "address"
        }
      ],
      "stateMutability": "nonpayable",
      "type": "constructor"
    },
    {
      "anonymous": false,
      "inputs": [
        {
          "indexed": true,
          "internalType": "address",
          "name": "previousOwner",
          "type": "address"
        },
        {
          "indexed": true,
          "internalType": "address",
          "name": "newOwner",
          "type": "address"
        }
      ],
      "name": "OwnershipTransferred",
      "type": "event"
    },
    {
      "anonymous": false,
      "inputs": [
        {
          "indexed": false,
          "internalType": "bytes32",
          "name": "role",
          "type": "bytes32"
        },
        {
          "indexed": false,
          "internalType": "address",
          "name": "account",
          "type": "address"
        },
        {
          "indexed": false,
          "internalType": "address",
          "name": "operator",
          "type": "address"
        }
      ],
      "name": "RoleGranted",
      "type": "event"
    },
    {
      "anonymous": false,
      "inputs": [
        {
          "indexed": false,
          "internalType": "bytes32",
          "name": "role",
          "type": "bytes32"
        },
        {
          "indexed": false,
          "internalType": "address",
          "name": "account",
          "type": "address"
        },
        {
          "indexed": false,
          "internalType": "address",
          "name": "operator",
          "type": "address"
        }
      ],
      "name": "RoleRevoked",
      "type": "event"
    },
    {
      "anonymous": false,
      "inputs": [
        {
          "indexed": false,
          "internalType": "uint256",
          "name": "sealId",
          "type": "uint256"
        },
        {
          "indexed": false,
          "internalType": "address",
          "name": "sealer",
          "type": "address"
        }
      ],
      "name": "Sealed",
      "type": "event"
    },
    {
      "inputs": [],
      "name": "SEALER_ROLE",
      "outputs": [
        {
          "internalType": "bytes32",
          "name": "",
          "type": "bytes32"
        }
      ],
      "stateMutability": "view",
      "type": "function"
    },
    {
      "inputs": [],
      "name": "__msgData",
      "outputs": [
        {
          "internalType": "bytes",
          "name": "",
          "type": "bytes"
        }
      ],
      "stateMutability": "view",
      "type": "function"
    },
    {
      "inputs": [
        {
          "internalType": "bytes32",
          "name": "role",
          "type": "bytes32"
        },
        {
          "internalType": "address",
          "name": "account",
          "type": "address"
        }
      ],
      "name": "grantRole",
      "outputs": [],
      "stateMutability": "nonpayable",
      "type": "function"
    },
    {
      "inputs": [
        {
          "internalType": "bytes32",
          "name": "role",
          "type": "bytes32"
        },
        {
          "internalType": "address",
          "name": "account",
          "type": "address"
        }
      ],
      "name": "hasRole",
      "outputs": [
        {
          "internalType": "bool",
          "name": "",
          "type": "bool"
        }
      ],
      "stateMutability": "view",
      "type": "function"
    },
    {
      "inputs": [
        {
          "internalType": "uint256",
          "name": "sealId",
          "type": "uint256"
        }
      ],
      "name": "isSealed",
      "outputs": [
        {
          "internalType": "bool",
          "name": "wasSealed",
          "type": "bool"
        }
      ],
      "stateMutability": "view",
      "type": "function"
    },
    {
      "inputs": [],
      "name": "owner",
      "outputs": [
        {
          "internalType": "address",
          "name": "",
          "type": "address"
        }
      ],
      "stateMutability": "view",
      "type": "function"
    },
    {
      "inputs": [
        {
          "internalType": "bytes32",
          "name": "role",
          "type": "bytes32"
        }
      ],
      "name": "renounceRole",
      "outputs": [],
      "stateMutability": "nonpayable",
      "type": "function"
    },
    {
      "inputs": [
        {
          "internalType": "bytes32",
          "name": "role",
          "type": "bytes32"
        },
        {
          "internalType": "address",
          "name": "account",
          "type": "address"
        }
      ],
      "name": "revokeRole",
      "outputs": [],
      "stateMutability": "nonpayable",
      "type": "function"
    },
    {
      "inputs": [
        {
          "internalType": "address",
          "name": "target",
          "type": "address"
        },
        {
          "internalType": "bytes",
          "name": "callData",
          "type": "bytes"
        },
        {
          "internalType": "uint256",
          "name": "sealId",
          "type": "uint256"
        }
      ],
      "name": "sealedCall",
      "outputs": [
        {
          "internalType": "bytes",
          "name": "returnData",
          "type": "bytes"
        }
      ],
      "stateMutability": "nonpayable",
      "type": "function"
    },
    {
      "inputs": [
        {
          "internalType": "bytes4",
          "name": "interfaceId",
          "type": "bytes4"
        }
      ],
      "name": "supportsInterface",
      "outputs": [
        {
          "internalType": "bool",
          "name": "",
          "type": "bool"
        }
      ],
      "stateMutability": "view",
      "type": "function"
    },
    {
      "inputs": [
        {
          "internalType": "address",
          "name": "newOwner",
          "type": "address"
        }
      ],
      "name": "transferOwnership",
      "outputs": [],
      "stateMutability": "nonpayable",
      "type": "function"
    }
  ],
  "bytecode": "0x60a06040523480156200001157600080fd5b5060405162001a6838038062001a68833981016040819052620000349162000204565b8080336200006581620000516200007b60201b6200041e1760201c565b620000b160201b6200044c1790919060201c565b506001600160a01b0316608052506200025c9050565b600080620000ab60017fc9ed16f33ab3a66c84bfd83099ccb2a8845871e2e1c1928f63797152f0fd54cd62000236565b92915050565b6001600160a01b03811615620001085781546001600160a01b0319166001600160a01b03821690811783556040516000907f8be0079c531659141344cd1fd0a4f28419497f9722a3daafe3b4186f6b6457e0908290a35b620001406307f5828d60e41b60016200012b6200014460201b6200050d1760201c565b6200017460201b6200053b179092919060201c565b5050565b600080620000ab60017fca9d3e17f264b0f3984e2634e94adb37fa3e6a8103f06aeae6fa59e21c769f5e62000236565b600160e01b6001600160e01b0319831601620001d65760405162461bcd60e51b815260206004820152601f60248201527f496e74657266616365446574656374696f6e3a2077726f6e672076616c756500604482015260640160405180910390fd5b6001600160e01b03199190911660009081526020929092526040909120805460ff1916911515919091179055565b6000602082840312156200021757600080fd5b81516001600160a01b03811681146200022f57600080fd5b9392505050565b6000828210156200025757634e487b7160e01b600052601160045260246000fd5b500390565b6080516117db6200028d60003960008181610dbb01528181610e5b01528181611098015261110201526117db6000f3fe608060405234801561001057600080fd5b50600436106100c95760003560e01c8063526c98111161008157806391d148541161005b57806391d14854146101c9578063d547741f146101dc578063f2fde38b146101ef57600080fd5b8063526c9811146101545780638bb9c5bf146101895780638da5cb5b1461019c57600080fd5b80632c1758c1116100b25780632c1758c1146101165780632f2ff15d1461012957806331e66e1e1461013e57600080fd5b806301ffc9a7146100ce5780630b476f99146100f6575b600080fd5b6100e16100dc36600461140b565b610202565b60405190151581526020015b60405180910390f35b610109610104366004611476565b61021c565b6040516100ed9190611575565b6100e1610124366004611588565b6102d3565b61013c6101373660046115a1565b6102f4565b005b61014661032d565b6040516100ed9291906115cd565b61017b7f7365616c6572000000000000000000000000000000000000000000000000000081565b6040519081526020016100ed565b61013c610197366004611588565b610340565b6101a461035e565b60405173ffffffffffffffffffffffffffffffffffffffff90911681526020016100ed565b6100e16101d73660046115a1565b61038a565b61013c6101ea3660046115a1565b6103d5565b61013c6101fd36600461161a565b610403565b60006102168261021061050d565b9061064c565b92915050565b60606000610228610726565b905061025e7f7365616c6572000000000000000000000000000000000000000000000000000082610257610730565b919061075e565b610272818461026b61080a565b9190610838565b6102c985858080601f0160208091040260200160405190810160405280939291908181526020018383808284376000920191909152505073ffffffffffffffffffffffffffffffffffffffff8a1692915050610946565b9695505050505050565b6000610216826102e161080a565b6000918252602052604090205460ff1690565b60006102fe610726565b90506103128161030c61041e565b90610988565b610328838383610320610730565b929190610a0b565b505050565b366000610338610ae2565b915091509091565b61035b61034b610726565b82610354610730565b9190610aed565b50565b600061038561036b61041e565b5473ffffffffffffffffffffffffffffffffffffffff1690565b905090565b60006103ce8383610399610730565b60009283526020908152604080842073ffffffffffffffffffffffffffffffffffffffff909316845291905290205460ff1690565b9392505050565b60006103df610726565b90506103ed8161030c61041e565b6103288383836103fb610730565b929190610b89565b61035b61040e610726565b8261041761041e565b9190610c53565b60008061021660017fc9ed16f33ab3a66c84bfd83099ccb2a8845871e2e1c1928f63797152f0fd54cd611635565b73ffffffffffffffffffffffffffffffffffffffff8116156104d45781547fffffffffffffffffffffffff00000000000000000000000000000000000000001673ffffffffffffffffffffffffffffffffffffffff821690811783556040516000907f8be0079c531659141344cd1fd0a4f28419497f9722a3daafe3b4186f6b6457e0908290a35b6105097f7f5828d000000000000000000000000000000000000000000000000000000000600161050261050d565b919061053b565b5050565b60008061021660017fca9d3e17f264b0f3984e2634e94adb37fa3e6a8103f06aeae6fa59e21c769f5e611635565b7c01000000000000000000000000000000000000000000000000000000007fffffffff000000000000000000000000000000000000000000000000000000008316016105e8576040517f08c379a000000000000000000000000000000000000000000000000000000000815260206004820152601f60248201527f496e74657266616365446574656374696f6e3a2077726f6e672076616c75650060448201526064015b60405180910390fd5b7fffffffff00000000000000000000000000000000000000000000000000000000919091166000908152602092909252604090912080547fffffffffffffffffffffffffffffffffffffffffffffffffffffffffffffff0016911515919091179055565b60007c01000000000000000000000000000000000000000000000000000000007fffffffff0000000000000000000000000000000000000000000000000000000083160161069c57506000610216565b7ffe003659000000000000000000000000000000000000000000000000000000007fffffffff000000000000000000000000000000000000000000000000000000008316016106ed57506001610216565b507fffffffff00000000000000000000000000000000000000000000000000000000166000908152602091909152604090205460ff1690565b6000610385610d7f565b60008061021660017fc8827d3282af6f37b64c3e9e6f3ac9df286ab0bb0fccd6f8661bf19adb368b23611635565b60008281526020848152604080832073ffffffffffffffffffffffffffffffffffffffff8516845290915290205460ff166103285761079c82610ed7565b6040516020016107ac9190611673565b604080517fffffffffffffffffffffffffffffffffffffffffffffffffffffffffffffffe0818403018152908290527f08c379a00000000000000000000000000000000000000000000000000000000082526105df91600401611575565b60008061021660017f2a97c6c62f2f8616c552895c02acda791e96a0e77ad57580c7b74a08b219567c611635565b60008181526020849052604090205460ff16156108b1576040517f08c379a000000000000000000000000000000000000000000000000000000000815260206004820152600d60248201527f5365616c733a207365616c65640000000000000000000000000000000000000060448201526064016105df565b6000818152602084905260409081902080547fffffffffffffffffffffffffffffffffffffffffffffffffffffffffffffff00166001179055517f4ede4a0b55ef0b366eeda846c0db70204e9f7205524b8c5f653085ca572b257790610939908390859091825273ffffffffffffffffffffffffffffffffffffffff16602082015260400190565b60405180910390a1505050565b60606103ce83836040518060400160405280601e81526020017f416464726573733a206c6f772d6c6576656c2063616c6c206661696c65640000815250611069565b815473ffffffffffffffffffffffffffffffffffffffff828116911614610509576040517f08c379a000000000000000000000000000000000000000000000000000000000815260206004820152601860248201527f4f776e6572736869703a206e6f7420746865206f776e6572000000000000000060448201526064016105df565b60008381526020858152604080832073ffffffffffffffffffffffffffffffffffffffff8616845290915290205460ff16610adc5760008381526020858152604080832073ffffffffffffffffffffffffffffffffffffffff8681168086529184529382902080547fffffffffffffffffffffffffffffffffffffffffffffffffffffffffffffff00166001179055815187815292830152918316918101919091527f2f8788117e7eff1d82e926ec794901d17c78024a50270940304540a733656f0d906060015b60405180910390a15b50505050565b366000610338611080565b610af883828461075e565b60008181526020848152604080832073ffffffffffffffffffffffffffffffffffffffff86168085529083529281902080547fffffffffffffffffffffffffffffffffffffffffffffffffffffffffffffff0016905580518481529182018390528101919091527ff6391f5c32d9c69d2a47ea670b442974b53935d1edc7fd64eb21e047a839171b90606001610939565b60008381526020858152604080832073ffffffffffffffffffffffffffffffffffffffff8616845290915290205460ff1615610adc5760008381526020858152604080832073ffffffffffffffffffffffffffffffffffffffff8681168086529184529382902080547fffffffffffffffffffffffffffffffffffffffffffffffffffffffffffffff00169055815187815292830152918316918101919091527ff6391f5c32d9c69d2a47ea670b442974b53935d1edc7fd64eb21e047a839171b90606001610ad3565b825473ffffffffffffffffffffffffffffffffffffffff9081169083168114610cd8576040517f08c379a000000000000000000000000000000000000000000000000000000000815260206004820152601860248201527f4f776e6572736869703a206e6f7420746865206f776e6572000000000000000060448201526064016105df565b8173ffffffffffffffffffffffffffffffffffffffff168173ffffffffffffffffffffffffffffffffffffffff1614610adc5783547fffffffffffffffffffffffff00000000000000000000000000000000000000001673ffffffffffffffffffffffffffffffffffffffff8381169182178655604051908316907f8be0079c531659141344cd1fd0a4f28419497f9722a3daafe3b4186f6b6457e090600090a350505050565b600033328103610d8e57919050565b6000367fffffffffffffffffffffffffffffffffffffffffffffffffffffffffffffffec013560601c90507f000000000000000000000000000000000000000000000000000000000000000073ffffffffffffffffffffffffffffffffffffffff168273ffffffffffffffffffffffffffffffffffffffff161480610ec657506040517fe60125d600000000000000000000000000000000000000000000000000000000815273ffffffffffffffffffffffffffffffffffffffff828116600483015283811660248301527f0000000000000000000000000000000000000000000000000000000000000000169063e60125d690604401602060405180830381865afa158015610ea2573d6000803e3d6000fd5b505050506040513d601f19601f82011682018060405250810190610ec691906116df565b15610ed15792915050565b50919050565b60606000829003610ef657505060408051602081019091526000815290565b600082604051602001610f0b91815260200190565b604080517fffffffffffffffffffffffffffffffffffffffffffffffffffffffffffffffe08184030181529190529050601f5b818181518110610f5057610f50611701565b01602001517fff0000000000000000000000000000000000000000000000000000000000000016600003610fa5577fffffffffffffffffffffffffffffffffffffffffffffffffffffffffffffffff01610f3e565b60008160010167ffffffffffffffff811115610fc357610fc3611730565b6040519080825280601f01601f191660200182016040528015610fed576020820181803683370190505b50905060005b8281116110605783818151811061100c5761100c611701565b602001015160f81c60f81b82828151811061102957611029611701565b60200101907effffffffffffffffffffffffffffffffffffffffffffffffffffffffffffff1916908160001a905350600101610ff3565b50949350505050565b60606110788484600085611204565b949350505050565b3660003332810361109657506000923692509050565b7f000000000000000000000000000000000000000000000000000000000000000073ffffffffffffffffffffffffffffffffffffffff168173ffffffffffffffffffffffffffffffffffffffff1614806111e3575073ffffffffffffffffffffffffffffffffffffffff7f00000000000000000000000000000000000000000000000000000000000000001663e60125d6367fffffffffffffffffffffffffffffffffffffffffffffffffffffffffffffffec013560601c6040517fffffffff0000000000000000000000000000000000000000000000000000000060e084901b16815273ffffffffffffffffffffffffffffffffffffffff91821660048201529084166024820152604401602060405180830381865afa1580156111bf573d6000803e3d6000fd5b505050506040513d601f19601f820116820180604052508101906111e391906116df565b156111f9576111f061139a565b92509250509091565b506000923692509050565b606082471015611296576040517f08c379a000000000000000000000000000000000000000000000000000000000815260206004820152602660248201527f416464726573733a20696e73756666696369656e742062616c616e636520666f60448201527f722063616c6c000000000000000000000000000000000000000000000000000060648201526084016105df565b73ffffffffffffffffffffffffffffffffffffffff85163b611314576040517f08c379a000000000000000000000000000000000000000000000000000000000815260206004820152601d60248201527f416464726573733a2063616c6c20746f206e6f6e2d636f6e747261637400000060448201526064016105df565b6000808673ffffffffffffffffffffffffffffffffffffffff16858760405161133d919061175f565b60006040518083038185875af1925050503d806000811461137a576040519150601f19603f3d011682016040523d82523d6000602084013e61137f565b606091505b509150915061138f8282866113b8565b979650505050505050565b3660008080836113ab601482611635565b926103389392919061177b565b606083156113c75750816103ce565b8251156113d75782518084602001fd5b816040517f08c379a00000000000000000000000000000000000000000000000000000000081526004016105df9190611575565b60006020828403121561141d57600080fd5b81357fffffffff00000000000000000000000000000000000000000000000000000000811681146103ce57600080fd5b803573ffffffffffffffffffffffffffffffffffffffff8116811461147157600080fd5b919050565b6000806000806060858703121561148c57600080fd5b6114958561144d565b9350602085013567ffffffffffffffff808211156114b257600080fd5b818701915087601f8301126114c657600080fd5b8135818111156114d557600080fd5b8860208285010111156114e757600080fd5b95986020929092019750949560400135945092505050565b60005b8381101561151a578181015183820152602001611502565b83811115610adc5750506000910152565b600081518084526115438160208601602086016114ff565b601f017fffffffffffffffffffffffffffffffffffffffffffffffffffffffffffffffe0169290920160200192915050565b6020815260006103ce602083018461152b565b60006020828403121561159a57600080fd5b5035919050565b600080604083850312156115b457600080fd5b823591506115c46020840161144d565b90509250929050565b60208152816020820152818360408301376000818301604090810191909152601f9092017fffffffffffffffffffffffffffffffffffffffffffffffffffffffffffffffe0160101919050565b60006020828403121561162c57600080fd5b6103ce8261144d565b60008282101561166e577f4e487b7100000000000000000000000000000000000000000000000000000000600052601160045260246000fd5b500390565b7f416363657373436f6e74726f6c3a206d697373696e67202700000000000000008152600082516116ab8160188501602087016114ff565b7f2720726f6c6500000000000000000000000000000000000000000000000000006018939091019283015250601e01919050565b6000602082840312156116f157600080fd5b815180151581146103ce57600080fd5b7f4e487b7100000000000000000000000000000000000000000000000000000000600052603260045260246000fd5b7f4e487b7100000000000000000000000000000000000000000000000000000000600052604160045260246000fd5b600082516117718184602087016114ff565b9190910192915050565b6000808585111561178b57600080fd5b8386111561179857600080fd5b505082019391909203915056fea2646970667358221220cc0b3d2ec6360794ebd50e1c837012cc1431a19bde747cc3b3c3a24138af20b364736f6c634300080f0033",
  "linkReferences": {},
  "deployedLinkReferences": {}
}