{
  "_format": "hh-sol-artifact-1",
  "contractName": "SealedExecutorMock",
  "sourceName": "contracts/mocks/security/SealedExecutorMock.sol",
  "abi": [
    {
      "inputs": [
        {
          "internalType": "contract IForwarderRegistry",
          "name": "forwarderRegistry",
          "type": "address"
        }
      ],
      "stateMutability": "nonpayable",
      "type": "constructor"
    },
    {
      "inputs": [
        {
          "internalType": "uint256",
          "name": "sealId",
          "type": "uint256"
        }
      ],
      "name": "AlreadySealed",
      "type": "error"
    },
    {
      "inputs": [],
      "name": "IllegalInterfaceId",
      "type": "error"
    },
    {
      "inputs": [
        {
          "internalType": "address",
          "name": "account",
          "type": "address"
        }
      ],
      "name": "NotContractOwner",
      "type": "error"
    },
    {
      "inputs": [
        {
          "internalType": "bytes32",
          "name": "role",
          "type": "bytes32"
        },
        {
          "internalType": "address",
          "name": "account",
          "type": "address"
        }
      ],
      "name": "NotRoleHolder",
      "type": "error"
    },
    {
      "anonymous": false,
      "inputs": [
        {
          "indexed": true,
          "internalType": "address",
          "name": "previousOwner",
          "type": "address"
        },
        {
          "indexed": true,
          "internalType": "address",
          "name": "newOwner",
          "type": "address"
        }
      ],
      "name": "OwnershipTransferred",
      "type": "event"
    },
    {
      "anonymous": false,
      "inputs": [
        {
          "indexed": false,
          "internalType": "bytes32",
          "name": "role",
          "type": "bytes32"
        },
        {
          "indexed": false,
          "internalType": "address",
          "name": "account",
          "type": "address"
        },
        {
          "indexed": false,
          "internalType": "address",
          "name": "operator",
          "type": "address"
        }
      ],
      "name": "RoleGranted",
      "type": "event"
    },
    {
      "anonymous": false,
      "inputs": [
        {
          "indexed": false,
          "internalType": "bytes32",
          "name": "role",
          "type": "bytes32"
        },
        {
          "indexed": false,
          "internalType": "address",
          "name": "account",
          "type": "address"
        },
        {
          "indexed": false,
          "internalType": "address",
          "name": "operator",
          "type": "address"
        }
      ],
      "name": "RoleRevoked",
      "type": "event"
    },
    {
      "anonymous": false,
      "inputs": [
        {
          "indexed": false,
          "internalType": "uint256",
          "name": "sealId",
          "type": "uint256"
        },
        {
          "indexed": false,
          "internalType": "address",
          "name": "sealer",
          "type": "address"
        }
      ],
      "name": "Sealed",
      "type": "event"
    },
    {
      "inputs": [],
      "name": "SEALER_ROLE",
      "outputs": [
        {
          "internalType": "bytes32",
          "name": "",
          "type": "bytes32"
        }
      ],
      "stateMutability": "view",
      "type": "function"
    },
    {
      "inputs": [],
      "name": "__msgData",
      "outputs": [
        {
          "internalType": "bytes",
          "name": "",
          "type": "bytes"
        }
      ],
      "stateMutability": "view",
      "type": "function"
    },
    {
      "inputs": [
        {
          "internalType": "bytes32",
          "name": "role",
          "type": "bytes32"
        },
        {
          "internalType": "address",
          "name": "account",
          "type": "address"
        }
      ],
      "name": "grantRole",
      "outputs": [],
      "stateMutability": "nonpayable",
      "type": "function"
    },
    {
      "inputs": [
        {
          "internalType": "bytes32",
          "name": "role",
          "type": "bytes32"
        },
        {
          "internalType": "address",
          "name": "account",
          "type": "address"
        }
      ],
      "name": "hasRole",
      "outputs": [
        {
          "internalType": "bool",
          "name": "hasRole_",
          "type": "bool"
        }
      ],
      "stateMutability": "view",
      "type": "function"
    },
    {
      "inputs": [
        {
          "internalType": "uint256",
          "name": "sealId",
          "type": "uint256"
        }
      ],
      "name": "isSealed",
      "outputs": [
        {
          "internalType": "bool",
          "name": "wasSealed",
          "type": "bool"
        }
      ],
      "stateMutability": "view",
      "type": "function"
    },
    {
      "inputs": [],
      "name": "owner",
      "outputs": [
        {
          "internalType": "address",
          "name": "",
          "type": "address"
        }
      ],
      "stateMutability": "view",
      "type": "function"
    },
    {
      "inputs": [
        {
          "internalType": "bytes32",
          "name": "role",
          "type": "bytes32"
        }
      ],
      "name": "renounceRole",
      "outputs": [],
      "stateMutability": "nonpayable",
      "type": "function"
    },
    {
      "inputs": [
        {
          "internalType": "bytes32",
          "name": "role",
          "type": "bytes32"
        },
        {
          "internalType": "address",
          "name": "account",
          "type": "address"
        }
      ],
      "name": "revokeRole",
      "outputs": [],
      "stateMutability": "nonpayable",
      "type": "function"
    },
    {
      "inputs": [
        {
          "internalType": "address",
          "name": "target",
          "type": "address"
        },
        {
          "internalType": "bytes",
          "name": "callData",
          "type": "bytes"
        },
        {
          "internalType": "uint256",
          "name": "sealId",
          "type": "uint256"
        }
      ],
      "name": "sealedCall",
      "outputs": [
        {
          "internalType": "bytes",
          "name": "returnData",
          "type": "bytes"
        }
      ],
      "stateMutability": "nonpayable",
      "type": "function"
    },
    {
      "inputs": [
        {
          "internalType": "bytes4",
          "name": "interfaceId",
          "type": "bytes4"
        }
      ],
      "name": "supportsInterface",
      "outputs": [
        {
          "internalType": "bool",
          "name": "",
          "type": "bool"
        }
      ],
      "stateMutability": "view",
      "type": "function"
    },
    {
      "inputs": [
        {
          "internalType": "address",
          "name": "newOwner",
          "type": "address"
        }
      ],
      "name": "transferOwnership",
      "outputs": [],
      "stateMutability": "nonpayable",
      "type": "function"
    }
  ],
  "bytecode": "0x60a06040523480156200001157600080fd5b5060405162001536380380620015368339810160408190526200003491620001a1565b8080336200004d816200004662000063565b9062000099565b506001600160a01b031660805250620001f59050565b6000806200009360017fc9ed16f33ab3a66c84bfd83099ccb2a8845871e2e1c1928f63797152f0fd54cd620001d3565b92915050565b6001600160a01b03811615620000f05781546001600160a01b0319166001600160a01b03821690811783556040516000907f8be0079c531659141344cd1fd0a4f28419497f9722a3daafe3b4186f6b6457e0908290a35b620001106307f5828d60e41b60016200010862000114565b919062000144565b5050565b6000806200009360017fca9d3e17f264b0f3984e2634e94adb37fa3e6a8103f06aeae6fa59e21c769f5e620001d3565b600160e01b6001600160e01b031983160162000173576040516372c683bb60e01b815260040160405180910390fd5b6001600160e01b03199190911660009081526020929092526040909120805460ff1916911515919091179055565b600060208284031215620001b457600080fd5b81516001600160a01b0381168114620001cc57600080fd5b9392505050565b818103818111156200009357634e487b7160e01b600052601160045260246000fd5b6080516113106200022660003960008181610b7a01528181610c0201528181610dce0152610e0c01526113106000f3fe608060405234801561001057600080fd5b50600436106100c95760003560e01c8063526c98111161008157806391d148541161005b57806391d14854146101c9578063d547741f146101dc578063f2fde38b146101ef57600080fd5b8063526c9811146101545780638bb9c5bf146101895780638da5cb5b1461019c57600080fd5b80632c1758c1116100b25780632c1758c1146101165780632f2ff15d1461012957806331e66e1e1461013e57600080fd5b806301ffc9a7146100ce5780630b476f99146100f6575b600080fd5b6100e16100dc366004611016565b610202565b60405190151581526020015b60405180910390f35b610109610104366004611081565b61021c565b6040516100ed9190611178565b6100e161012436600461118b565b6102d5565b61013c6101373660046111a4565b6102f6565b005b61014661032f565b6040516100ed9291906111d0565b61017b7f7365616c6572000000000000000000000000000000000000000000000000000081565b6040519081526020016100ed565b61013c61019736600461118b565b610342565b6101a4610360565b60405173ffffffffffffffffffffffffffffffffffffffff90911681526020016100ed565b6100e16101d73660046111a4565b61038c565b61013c6101ea3660046111a4565b6103d7565b61013c6101fd36600461121d565b610405565b600061021682610210610420565b9061044e565b92915050565b60606000610228610528565b905061025e7f7365616c6572000000000000000000000000000000000000000000000000000082610257610532565b9190610560565b610272818461026b6105eb565b9190610619565b6102c985858080601f0160208091040260200160405190810160405280939291908181526020018383808284376000920191909152505073ffffffffffffffffffffffffffffffffffffffff8a16929150506106fa565b9150505b949350505050565b6000610216826102e36105eb565b6000918252602052604090205460ff1690565b6000610300610528565b90506103148161030e61073e565b9061076c565b61032a838383610322610532565b9291906107db565b505050565b36600061033a6108b2565b915091509091565b61035d61034d610528565b82610356610532565b91906108bd565b50565b600061038761036d61073e565b5473ffffffffffffffffffffffffffffffffffffffff1690565b905090565b60006103d0838361039b610532565b60009283526020908152604080842073ffffffffffffffffffffffffffffffffffffffff909316845291905290205460ff1690565b9392505050565b60006103e1610528565b90506103ef8161030e61073e565b61032a8383836103fd610532565b929190610959565b61035d610410610528565b8261041961073e565b9190610a23565b60008061021660017fca9d3e17f264b0f3984e2634e94adb37fa3e6a8103f06aeae6fa59e21c769f5e611238565b60007c01000000000000000000000000000000000000000000000000000000007fffffffff0000000000000000000000000000000000000000000000000000000083160161049e57506000610216565b7ffe003659000000000000000000000000000000000000000000000000000000007fffffffff000000000000000000000000000000000000000000000000000000008316016104ef57506001610216565b507fffffffff00000000000000000000000000000000000000000000000000000000166000908152602091909152604090205460ff1690565b6000610387610b37565b60008061021660017fc8827d3282af6f37b64c3e9e6f3ac9df286ab0bb0fccd6f8661bf19adb368b23611238565b60008281526020848152604080832073ffffffffffffffffffffffffffffffffffffffff8516845290915290205460ff1661032a576040517f7aa728820000000000000000000000000000000000000000000000000000000081526004810183905273ffffffffffffffffffffffffffffffffffffffff821660248201526044015b60405180910390fd5b60008061021660017f2a97c6c62f2f8616c552895c02acda791e96a0e77ad57580c7b74a08b219567c611238565b60008181526020849052604090205460ff1615610665576040517f6e02cd6d000000000000000000000000000000000000000000000000000000008152600481018290526024016105e2565b6000818152602084905260409081902080547fffffffffffffffffffffffffffffffffffffffffffffffffffffffffffffff00166001179055517f4ede4a0b55ef0b366eeda846c0db70204e9f7205524b8c5f653085ca572b2577906106ed908390859091825273ffffffffffffffffffffffffffffffffffffffff16602082015260400190565b60405180910390a1505050565b60606103d0838360006040518060400160405280601e81526020017f416464726573733a206c6f772d6c6576656c2063616c6c206661696c65640000815250610c7e565b60008061021660017fc9ed16f33ab3a66c84bfd83099ccb2a8845871e2e1c1928f63797152f0fd54cd611238565b815473ffffffffffffffffffffffffffffffffffffffff8281169116146107d7576040517f2ef4875e00000000000000000000000000000000000000000000000000000000815273ffffffffffffffffffffffffffffffffffffffff821660048201526024016105e2565b5050565b60008381526020858152604080832073ffffffffffffffffffffffffffffffffffffffff8616845290915290205460ff166108ac5760008381526020858152604080832073ffffffffffffffffffffffffffffffffffffffff8681168086529184529382902080547fffffffffffffffffffffffffffffffffffffffffffffffffffffffffffffff00166001179055815187815292830152918316918101919091527f2f8788117e7eff1d82e926ec794901d17c78024a50270940304540a733656f0d906060015b60405180910390a15b50505050565b36600061033a610d97565b6108c8838284610560565b60008181526020848152604080832073ffffffffffffffffffffffffffffffffffffffff86168085529083529281902080547fffffffffffffffffffffffffffffffffffffffffffffffffffffffffffffff0016905580518481529182018390528101919091527ff6391f5c32d9c69d2a47ea670b442974b53935d1edc7fd64eb21e047a839171b906060016106ed565b60008381526020858152604080832073ffffffffffffffffffffffffffffffffffffffff8616845290915290205460ff16156108ac5760008381526020858152604080832073ffffffffffffffffffffffffffffffffffffffff8681168086529184529382902080547fffffffffffffffffffffffffffffffffffffffffffffffffffffffffffffff00169055815187815292830152918316918101919091527ff6391f5c32d9c69d2a47ea670b442974b53935d1edc7fd64eb21e047a839171b906060016108a3565b825473ffffffffffffffffffffffffffffffffffffffff9081169083168114610a90576040517f2ef4875e00000000000000000000000000000000000000000000000000000000815273ffffffffffffffffffffffffffffffffffffffff841660048201526024016105e2565b8173ffffffffffffffffffffffffffffffffffffffff168173ffffffffffffffffffffffffffffffffffffffff16146108ac5783547fffffffffffffffffffffffff00000000000000000000000000000000000000001673ffffffffffffffffffffffffffffffffffffffff8381169182178655604051908316907f8be0079c531659141344cd1fd0a4f28419497f9722a3daafe3b4186f6b6457e090600090a350505050565b600033321480610b475750601836105b15610b5157503390565b7fffffffffffffffffffffffffffffffffffffffffffffffffffffffffffffffec36013560601c7f000000000000000000000000000000000000000000000000000000000000000073ffffffffffffffffffffffffffffffffffffffff16331480610c6d57506040517f8929a8ca00000000000000000000000000000000000000000000000000000000815273ffffffffffffffffffffffffffffffffffffffff82811660048301523360248301527f00000000000000000000000000000000000000000000000000000000000000001690638929a8ca90604401602060405180830381865afa158015610c49573d6000803e3d6000fd5b505050506040513d601f19601f82011682018060405250810190610c6d9190611272565b15610c7757919050565b3391505090565b606082471015610d10576040517f08c379a000000000000000000000000000000000000000000000000000000000815260206004820152602660248201527f416464726573733a20696e73756666696369656e742062616c616e636520666f60448201527f722063616c6c000000000000000000000000000000000000000000000000000060648201526084016105e2565b6000808673ffffffffffffffffffffffffffffffffffffffff168587604051610d399190611294565b60006040518083038185875af1925050503d8060008114610d76576040519150601f19603f3d011682016040523d82523d6000602084013e610d7b565b606091505b5091509150610d8c87838387610f01565b979650505050505050565b36600033321480610da85750601836105b15610db65750600091369150565b3373ffffffffffffffffffffffffffffffffffffffff7f0000000000000000000000000000000000000000000000000000000000000000161480610eeb575073ffffffffffffffffffffffffffffffffffffffff7f000000000000000000000000000000000000000000000000000000000000000016638929a8ca367fffffffffffffffffffffffffffffffffffffffffffffffffffffffffffffffec013560601c6040517fffffffff0000000000000000000000000000000000000000000000000000000060e084901b16815273ffffffffffffffffffffffffffffffffffffffff9091166004820152336024820152604401602060405180830381865afa158015610ec7573d6000803e3d6000fd5b505050506040513d601f19601f82011682018060405250810190610eeb9190611272565b15610ef85761033a610fa1565b50600091369150565b60608315610f97578251600003610f905773ffffffffffffffffffffffffffffffffffffffff85163b610f90576040517f08c379a000000000000000000000000000000000000000000000000000000000815260206004820152601d60248201527f416464726573733a2063616c6c20746f206e6f6e2d636f6e747261637400000060448201526064016105e2565b50816102cd565b6102cd8383610fd2565b36600061033a7fffffffffffffffffffffffffffffffffffffffffffffffffffffffffffffffec83018284816112b0565b815115610fe25781518083602001fd5b806040517f08c379a00000000000000000000000000000000000000000000000000000000081526004016105e29190611178565b60006020828403121561102857600080fd5b81357fffffffff00000000000000000000000000000000000000000000000000000000811681146103d057600080fd5b803573ffffffffffffffffffffffffffffffffffffffff8116811461107c57600080fd5b919050565b6000806000806060858703121561109757600080fd5b6110a085611058565b9350602085013567ffffffffffffffff808211156110bd57600080fd5b818701915087601f8301126110d157600080fd5b8135818111156110e057600080fd5b8860208285010111156110f257600080fd5b95986020929092019750949560400135945092505050565b60005b8381101561112557818101518382015260200161110d565b50506000910152565b6000815180845261114681602086016020860161110a565b601f017fffffffffffffffffffffffffffffffffffffffffffffffffffffffffffffffe0169290920160200192915050565b6020815260006103d0602083018461112e565b60006020828403121561119d57600080fd5b5035919050565b600080604083850312156111b757600080fd5b823591506111c760208401611058565b90509250929050565b60208152816020820152818360408301376000818301604090810191909152601f9092017fffffffffffffffffffffffffffffffffffffffffffffffffffffffffffffffe0160101919050565b60006020828403121561122f57600080fd5b6103d082611058565b81810381811115610216577f4e487b7100000000000000000000000000000000000000000000000000000000600052601160045260246000fd5b60006020828403121561128457600080fd5b815180151581146103d057600080fd5b600082516112a681846020870161110a565b9190910192915050565b600080858511156112c057600080fd5b838611156112cd57600080fd5b505082019391909203915056fea26469706673582212204ff938856af0a489f7f39159e5faf46f73b22478a24515eff5f6acd64b61b6b064736f6c63430008160033",
  "linkReferences": {},
  "deployedLinkReferences": {}
}