{
  "_format": "hh-sol-artifact-1",
  "contractName": "ERC721MetadataWithBaseURIFacet",
  "sourceName": "contracts/token/ERC721/facets/ERC721MetadataWithBaseURIFacet.sol",
  "abi": [
    {
      "inputs": [
        {
          "internalType": "contract IForwarderRegistry",
          "name": "forwarderRegistry",
          "type": "address"
        }
      ],
      "stateMutability": "nonpayable",
      "type": "constructor"
    },
    {
      "anonymous": false,
      "inputs": [
        {
          "indexed": false,
          "internalType": "string",
          "name": "baseMetadataURI",
          "type": "string"
        }
      ],
      "name": "BaseMetadataURISet",
      "type": "event"
    },
    {
      "inputs": [],
      "name": "baseMetadataURI",
      "outputs": [
        {
          "internalType": "string",
          "name": "baseURI",
          "type": "string"
        }
      ],
      "stateMutability": "view",
      "type": "function"
    },
    {
      "inputs": [
        {
          "internalType": "string",
          "name": "tokenName",
          "type": "string"
        },
        {
          "internalType": "string",
          "name": "tokenSymbol",
          "type": "string"
        },
        {
          "internalType": "string",
          "name": "baseURI",
          "type": "string"
        }
      ],
      "name": "initERC721MetadataStorage",
      "outputs": [],
      "stateMutability": "nonpayable",
      "type": "function"
    },
    {
      "inputs": [],
      "name": "name",
      "outputs": [
        {
          "internalType": "string",
          "name": "tokenName",
          "type": "string"
        }
      ],
      "stateMutability": "view",
      "type": "function"
    },
    {
      "inputs": [
        {
          "internalType": "string",
          "name": "baseURI",
          "type": "string"
        }
      ],
      "name": "setBaseMetadataURI",
      "outputs": [],
      "stateMutability": "nonpayable",
      "type": "function"
    },
    {
      "inputs": [],
      "name": "symbol",
      "outputs": [
        {
          "internalType": "string",
          "name": "tokenSymbol",
          "type": "string"
        }
      ],
      "stateMutability": "view",
      "type": "function"
    },
    {
      "inputs": [
        {
          "internalType": "uint256",
          "name": "tokenId",
          "type": "uint256"
        }
      ],
      "name": "tokenURI",
      "outputs": [
        {
          "internalType": "string",
          "name": "uri",
          "type": "string"
        }
      ],
      "stateMutability": "view",
      "type": "function"
    }
  ],
  "bytecode": "0x60a060405234801561001057600080fd5b5060405161118d38038061118d83398101604081905261002f91610040565b6001600160a01b0316608052610070565b60006020828403121561005257600080fd5b81516001600160a01b038116811461006957600080fd5b9392505050565b6080516110fb61009260003960008181610711015261079901526110fb6000f3fe608060405234801561001057600080fd5b50600436106100725760003560e01c80638ec5b59c116100505780638ec5b59c146100b257806395d89b41146100c5578063c87b56dd146100cd57600080fd5b806306fdde03146100775780635b2bd79e146100955780637e518ec81461009d575b600080fd5b61007f6100e0565b60405161008c9190610b7a565b60405180910390f35b61007f6100f7565b6100b06100ab366004610c14565b610104565b005b6100b06100c0366004610c56565b61016a565b61007f6101b7565b61007f6100db366004610cf0565b6101c9565b60606100f26100ed6101f6565b610224565b905090565b60606100f26100ed6102ba565b61011d61010f6102e8565b6101176102f2565b90610320565b61016682828080601f01602080910402602001604051908101604052809392919081815260200183838082843760009201919091525061016092506102ba915050565b906103a8565b5050565b6101836101756102e8565b61017d6103ef565b9061041d565b61019b868686866101926101f6565b939291906104a0565b6101af82826101a86102ba565b9190610553565b505050505050565b60606100f26101c46101f6565b6105c8565b60606101dd826101d76105d9565b90610607565b506101f0826101ea6102ba565b9061069a565b92915050565b6000806101f060017f9c4269c0f9f430d98876ffe9767fbf3f3232ea91a549beb549e5329532520eb3610d38565b606081600001805461023590610d4b565b80601f016020809104026020016040519081016040528092919081815260200182805461026190610d4b565b80156102ae5780601f10610283576101008083540402835291602001916102ae565b820191906000526020600020905b81548152906001019060200180831161029157829003601f168201915b50505050509050919050565b6000806101f060017fe94434e3c6b941c5d90218142fadcc69cb2e13723993540bfa1c131dd1d3475a610d38565b60006100f26106ce565b6000806101f060017fc9ed16f33ab3a66c84bfd83099ccb2a8845871e2e1c1928f63797152f0fd54cd610d38565b815473ffffffffffffffffffffffffffffffffffffffff828116911614610166576040517f08c379a000000000000000000000000000000000000000000000000000000000815260206004820152601860248201527f4f776e6572736869703a206e6f7420746865206f776e6572000000000000000060448201526064015b60405180910390fd5b816103b38282610e13565b507f04b1dc5c136a3ce9fded8db0ce3d3366c58764ec3a8e4c2b9e52e4ddfe5ebbf7816040516103e39190610b7a565b60405180910390a15050565b6000806101f060017fb53127684a568b3173ae13b9f8a6016e243e63b6e8ee1178d6a717850b5d6104610d38565b815473ffffffffffffffffffffffffffffffffffffffff828116911614610166576040517f08c379a000000000000000000000000000000000000000000000000000000000815260206004820152601960248201527f50726f787941646d696e3a206e6f74207468652061646d696e00000000000000604482015260640161039f565b6104d56104ce60017f5c5aabce181f75938de01fc8f3ad085dae040f02ff51dda186020471d60f770d610d38565b6001610815565b61054c84848080601f01602080910402602001604051908101604052809392919081815260200183838082843760009201919091525050604080516020601f880181900481028201810190925286815292508691508590819084018382808284376000920191909152508a94939250506108859050565b5050505050565b6105816104ce60017f4906b284a41a4863b44f418156dc67ff218ba42abca1a1c41f180669c98a302f610d38565b6105c382828080601f01602080910402602001604051908101604052809392919081815260200183838082843760009201919091525087939250506108d59050565b505050565b606081600101805461023590610d4b565b6000806101f060017fddf3ee18ae6d688373c219468f8be446e7ae82215f4779d821c7ea5e8c13c0c1610d38565b60008181526020839052604081205473ffffffffffffffffffffffffffffffffffffffff8116610693576040517f08c379a000000000000000000000000000000000000000000000000000000000815260206004820152601a60248201527f4552433732313a206e6f6e2d6578697374696e6720746f6b656e000000000000604482015260640161039f565b9392505050565b6060826106a6836108df565b6040516020016106b7929190610f2d565b604051602081830303815290604052905092915050565b6000333214806106de5750601836105b156106e857503390565b7fffffffffffffffffffffffffffffffffffffffffffffffffffffffffffffffec36013560601c7f000000000000000000000000000000000000000000000000000000000000000073ffffffffffffffffffffffffffffffffffffffff1633148061080457506040517f8929a8ca00000000000000000000000000000000000000000000000000000000815273ffffffffffffffffffffffffffffffffffffffff82811660048301523360248301527f00000000000000000000000000000000000000000000000000000000000000001690638929a8ca90604401602060405180830381865afa1580156107e0573d6000803e3d6000fd5b505050506040513d601f19601f820116820180604052508101906108049190610fd2565b1561080e57919050565b3391505090565b815482908211610881576040517f08c379a000000000000000000000000000000000000000000000000000000000815260206004820152601660248201527f53746f726167653a207068617365207265616368656400000000000000000000604482015260640161039f565b5550565b826108908382610e13565b506001830161089f8282610e13565b506105c37f5b5e139f0000000000000000000000000000000000000000000000000000000060016108ce610a1c565b9190610a4a565b61016682826103a8565b60608160000361092257505060408051808201909152600181527f3000000000000000000000000000000000000000000000000000000000000000602082015290565b8160005b811561094c578061093681610ff4565b91506109459050600a8361105b565b9150610926565b60008167ffffffffffffffff81111561096757610967610d9e565b6040519080825280601f01601f191660200182016040528015610991576020820181803683370190505b5090505b8415610a14576109a6600183610d38565b91506109b3600a8661106f565b6109be906030611083565b60f81b8183815181106109d3576109d3611096565b60200101907effffffffffffffffffffffffffffffffffffffffffffffffffffffffffffff1916908160001a905350610a0d600a8661105b565b9450610995565b949350505050565b6000806101f060017fca9d3e17f264b0f3984e2634e94adb37fa3e6a8103f06aeae6fa59e21c769f5e610d38565b7c01000000000000000000000000000000000000000000000000000000007fffffffff00000000000000000000000000000000000000000000000000000000831601610af2576040517f08c379a000000000000000000000000000000000000000000000000000000000815260206004820152601f60248201527f496e74657266616365446574656374696f6e3a2077726f6e672076616c756500604482015260640161039f565b7fffffffff00000000000000000000000000000000000000000000000000000000919091166000908152602092909252604090912080547fffffffffffffffffffffffffffffffffffffffffffffffffffffffffffffff0016911515919091179055565b60005b83811015610b71578181015183820152602001610b59565b50506000910152565b6020815260008251806020840152610b99816040850160208701610b56565b601f017fffffffffffffffffffffffffffffffffffffffffffffffffffffffffffffffe0169190910160400192915050565b60008083601f840112610bdd57600080fd5b50813567ffffffffffffffff811115610bf557600080fd5b602083019150836020828501011115610c0d57600080fd5b9250929050565b60008060208385031215610c2757600080fd5b823567ffffffffffffffff811115610c3e57600080fd5b610c4a85828601610bcb565b90969095509350505050565b60008060008060008060608789031215610c6f57600080fd5b863567ffffffffffffffff80821115610c8757600080fd5b610c938a838b01610bcb565b90985096506020890135915080821115610cac57600080fd5b610cb88a838b01610bcb565b90965094506040890135915080821115610cd157600080fd5b50610cde89828a01610bcb565b979a9699509497509295939492505050565b600060208284031215610d0257600080fd5b5035919050565b7f4e487b7100000000000000000000000000000000000000000000000000000000600052601160045260246000fd5b818103818111156101f0576101f0610d09565b600181811c90821680610d5f57607f821691505b602082108103610d98577f4e487b7100000000000000000000000000000000000000000000000000000000600052602260045260246000fd5b50919050565b7f4e487b7100000000000000000000000000000000000000000000000000000000600052604160045260246000fd5b601f8211156105c357600081815260208120601f850160051c81016020861015610df45750805b601f850160051c820191505b818110156101af57828155600101610e00565b815167ffffffffffffffff811115610e2d57610e2d610d9e565b610e4181610e3b8454610d4b565b84610dcd565b602080601f831160018114610e945760008415610e5e5750858301515b7fffffffffffffffffffffffffffffffffffffffffffffffffffffffffffffffff600386901b1c1916600185901b1785556101af565b6000858152602081207fffffffffffffffffffffffffffffffffffffffffffffffffffffffffffffffe08616915b82811015610ee157888601518255948401946001909101908401610ec2565b5085821015610f1d57878501517fffffffffffffffffffffffffffffffffffffffffffffffffffffffffffffffff600388901b60f8161c191681555b5050505050600190811b01905550565b6000808454610f3b81610d4b565b60018281168015610f535760018114610f8657610fb5565b7fffffffffffffffffffffffffffffffffffffffffffffffffffffffffffffff0084168752821515830287019450610fb5565b8860005260208060002060005b85811015610fac5781548a820152908401908201610f93565b50505082870194505b505050508351610fc9818360208801610b56565b01949350505050565b600060208284031215610fe457600080fd5b8151801515811461069357600080fd5b60007fffffffffffffffffffffffffffffffffffffffffffffffffffffffffffffffff820361102557611025610d09565b5060010190565b7f4e487b7100000000000000000000000000000000000000000000000000000000600052601260045260246000fd5b60008261106a5761106a61102c565b500490565b60008261107e5761107e61102c565b500690565b808201808211156101f0576101f0610d09565b7f4e487b7100000000000000000000000000000000000000000000000000000000600052603260045260246000fdfea2646970667358221220a3cd0d6abc5948b4a65135a7425981ddb85c812e59acfc1680c62302ff31a78764736f6c63430008110033",
  "linkReferences": {},
  "deployedLinkReferences": {}
}