{
  "_format": "hh-sol-artifact-1",
  "contractName": "ERC721MetadataWithBaseURIFacet",
  "sourceName": "contracts/token/ERC721/facets/ERC721MetadataWithBaseURIFacet.sol",
  "abi": [
    {
      "inputs": [
        {
          "internalType": "contract IForwarderRegistry",
          "name": "forwarderRegistry",
          "type": "address"
        }
      ],
      "stateMutability": "nonpayable",
      "type": "constructor"
    },
    {
      "anonymous": false,
      "inputs": [
        {
          "indexed": false,
          "internalType": "string",
          "name": "baseMetadataURI",
          "type": "string"
        }
      ],
      "name": "BaseMetadataURISet",
      "type": "event"
    },
    {
      "inputs": [],
      "name": "baseMetadataURI",
      "outputs": [
        {
          "internalType": "string",
          "name": "baseURI",
          "type": "string"
        }
      ],
      "stateMutability": "view",
      "type": "function"
    },
    {
      "inputs": [
        {
          "internalType": "string",
          "name": "tokenName",
          "type": "string"
        },
        {
          "internalType": "string",
          "name": "tokenSymbol",
          "type": "string"
        },
        {
          "internalType": "string",
          "name": "baseURI",
          "type": "string"
        }
      ],
      "name": "initERC721MetadataStorage",
      "outputs": [],
      "stateMutability": "nonpayable",
      "type": "function"
    },
    {
      "inputs": [],
      "name": "name",
      "outputs": [
        {
          "internalType": "string",
          "name": "tokenName",
          "type": "string"
        }
      ],
      "stateMutability": "view",
      "type": "function"
    },
    {
      "inputs": [
        {
          "internalType": "string",
          "name": "baseURI",
          "type": "string"
        }
      ],
      "name": "setBaseMetadataURI",
      "outputs": [],
      "stateMutability": "nonpayable",
      "type": "function"
    },
    {
      "inputs": [],
      "name": "symbol",
      "outputs": [
        {
          "internalType": "string",
          "name": "tokenSymbol",
          "type": "string"
        }
      ],
      "stateMutability": "view",
      "type": "function"
    },
    {
      "inputs": [
        {
          "internalType": "uint256",
          "name": "tokenId",
          "type": "uint256"
        }
      ],
      "name": "tokenURI",
      "outputs": [
        {
          "internalType": "string",
          "name": "uri",
          "type": "string"
        }
      ],
      "stateMutability": "view",
      "type": "function"
    }
  ],
  "bytecode": "0x60a060405234801561001057600080fd5b5060405161119438038061119483398101604081905261002f91610040565b6001600160a01b0316608052610070565b60006020828403121561005257600080fd5b81516001600160a01b038116811461006957600080fd5b9392505050565b60805161110261009260003960008181610704015261078c01526111026000f3fe608060405234801561001057600080fd5b50600436106100725760003560e01c80638ec5b59c116100505780638ec5b59c146100b257806395d89b41146100c5578063c87b56dd146100cd57600080fd5b806306fdde03146100775780635b2bd79e146100955780637e518ec81461009d575b600080fd5b61007f6100e0565b60405161008c9190610b71565b60405180910390f35b61007f6100f7565b6100b06100ab366004610c0b565b610104565b005b6100b06100c0366004610c4d565b61016a565b61007f610252565b61007f6100db366004610ce7565b610264565b60606100f26100ed610291565b6102bf565b905090565b60606100f26100ed610355565b61011d61010f610383565b61011761038d565b906103bb565b61016682828080601f0160208091040260200160405190810160405280939291908181526020018383808284376000920191909152506101609250610355915050565b90610443565b5050565b610183610175610383565b61017d61048a565b906104b8565b61020186868080601f01602080910402602001604051908101604052809392919081815260200183838082843760009201919091525050604080516020601f8a0181900481028201810190925288815292508891508790819084018382808284376000920191909152506101fa9250610291915050565b919061053b565b61024a82828080601f0160208091040260200160405190810160405280939291908181526020018383808284376000920191909152506102449250610355915050565b90610580565b505050505050565b60606100f261025f610291565b6105b8565b6060610278826102726105c9565b906105f7565b5061028b82610285610355565b9061068d565b92915050565b60008061028b60017f9c4269c0f9f430d98876ffe9767fbf3f3232ea91a549beb549e5329532520eb3610d2f565b60608160000180546102d090610d46565b80601f01602080910402602001604051908101604052809291908181526020018280546102fc90610d46565b80156103495780601f1061031e57610100808354040283529160200191610349565b820191906000526020600020905b81548152906001019060200180831161032c57829003601f168201915b50505050509050919050565b60008061028b60017fe94434e3c6b941c5d90218142fadcc69cb2e13723993540bfa1c131dd1d3475a610d2f565b60006100f26106c1565b60008061028b60017fc9ed16f33ab3a66c84bfd83099ccb2a8845871e2e1c1928f63797152f0fd54cd610d2f565b815473ffffffffffffffffffffffffffffffffffffffff828116911614610166576040517f08c379a000000000000000000000000000000000000000000000000000000000815260206004820152601860248201527f4f776e6572736869703a206e6f7420746865206f776e6572000000000000000060448201526064015b60405180910390fd5b8161044e8282610e0e565b507f04b1dc5c136a3ce9fded8db0ce3d3366c58764ec3a8e4c2b9e52e4ddfe5ebbf78160405161047e9190610b71565b60405180910390a15050565b60008061028b60017fb53127684a568b3173ae13b9f8a6016e243e63b6e8ee1178d6a717850b5d6104610d2f565b815473ffffffffffffffffffffffffffffffffffffffff828116911614610166576040517f08c379a000000000000000000000000000000000000000000000000000000000815260206004820152601960248201527f50726f787941646d696e3a206e6f74207468652061646d696e00000000000000604482015260640161043a565b61057061056960017f5c5aabce181f75938de01fc8f3ad085dae040f02ff51dda186020471d60f770d610d2f565b6001610808565b61057b838383610878565b505050565b6105ae61056960017f4906b284a41a4863b44f418156dc67ff218ba42abca1a1c41f180669c98a302f610d2f565b61016682826108c8565b60608160010180546102d090610d46565b60008061028b60017fddf3ee18ae6d688373c219468f8be446e7ae82215f4779d821c7ea5e8c13c0c1610d2f565b60008181526020839052604081205473ffffffffffffffffffffffffffffffffffffffff8116610683576040517f08c379a000000000000000000000000000000000000000000000000000000000815260206004820152601a60248201527f4552433732313a206e6f6e2d6578697374696e6720746f6b656e000000000000604482015260640161043a565b805b949350505050565b606082610699836108d2565b6040516020016106aa929190610f28565b604051602081830303815290604052905092915050565b6000333214806106d15750601436105b156106db57503390565b7fffffffffffffffffffffffffffffffffffffffffffffffffffffffffffffffec36013560601c7f000000000000000000000000000000000000000000000000000000000000000073ffffffffffffffffffffffffffffffffffffffff163314806107f757506040517f8929a8ca00000000000000000000000000000000000000000000000000000000815273ffffffffffffffffffffffffffffffffffffffff82811660048301523360248301527f00000000000000000000000000000000000000000000000000000000000000001690638929a8ca90604401602060405180830381865afa1580156107d3573d6000803e3d6000fd5b505050506040513d601f19601f820116820180604052508101906107f79190610fcd565b1561080157919050565b3391505090565b815482908211610874576040517f08c379a000000000000000000000000000000000000000000000000000000000815260206004820152601660248201527f53746f726167653a207068617365207265616368656400000000000000000000604482015260640161043a565b5550565b826108838382610e0e565b50600183016108928282610e0e565b5061057b7f5b5e139f0000000000000000000000000000000000000000000000000000000060016108c1610a07565b9190610a35565b6101668282610443565b60608160000361091557505060408051808201909152600181527f3000000000000000000000000000000000000000000000000000000000000000602082015290565b8160005b811561093f578061092981610ff6565b91506109389050600a8361105d565b9150610919565b60008167ffffffffffffffff81111561095a5761095a610d99565b6040519080825280601f01601f191660200182016040528015610984576020820181803683370190505b5090505b841561068557610999600183610d2f565b91506109a6600a86611071565b6109b1906030611085565b60f81b8183815181106109c6576109c661109d565b60200101907effffffffffffffffffffffffffffffffffffffffffffffffffffffffffffff1916908160001a905350610a00600a8661105d565b9450610988565b60008061028b60017fca9d3e17f264b0f3984e2634e94adb37fa3e6a8103f06aeae6fa59e21c769f5e610d2f565b7c01000000000000000000000000000000000000000000000000000000007fffffffff00000000000000000000000000000000000000000000000000000000831601610add576040517f08c379a000000000000000000000000000000000000000000000000000000000815260206004820152601f60248201527f496e74657266616365446574656374696f6e3a2077726f6e672076616c756500604482015260640161043a565b7fffffffff00000000000000000000000000000000000000000000000000000000919091166000908152602092909252604090912080547fffffffffffffffffffffffffffffffffffffffffffffffffffffffffffffff0016911515919091179055565b60005b83811015610b5c578181015183820152602001610b44565b83811115610b6b576000848401525b50505050565b6020815260008251806020840152610b90816040850160208701610b41565b601f017fffffffffffffffffffffffffffffffffffffffffffffffffffffffffffffffe0169190910160400192915050565b60008083601f840112610bd457600080fd5b50813567ffffffffffffffff811115610bec57600080fd5b602083019150836020828501011115610c0457600080fd5b9250929050565b60008060208385031215610c1e57600080fd5b823567ffffffffffffffff811115610c3557600080fd5b610c4185828601610bc2565b90969095509350505050565b60008060008060008060608789031215610c6657600080fd5b863567ffffffffffffffff80821115610c7e57600080fd5b610c8a8a838b01610bc2565b90985096506020890135915080821115610ca357600080fd5b610caf8a838b01610bc2565b90965094506040890135915080821115610cc857600080fd5b50610cd589828a01610bc2565b979a9699509497509295939492505050565b600060208284031215610cf957600080fd5b5035919050565b7f4e487b7100000000000000000000000000000000000000000000000000000000600052601160045260246000fd5b600082821015610d4157610d41610d00565b500390565b600181811c90821680610d5a57607f821691505b602082108103610d93577f4e487b7100000000000000000000000000000000000000000000000000000000600052602260045260246000fd5b50919050565b7f4e487b7100000000000000000000000000000000000000000000000000000000600052604160045260246000fd5b601f82111561057b57600081815260208120601f850160051c81016020861015610def5750805b601f850160051c820191505b8181101561024a57828155600101610dfb565b815167ffffffffffffffff811115610e2857610e28610d99565b610e3c81610e368454610d46565b84610dc8565b602080601f831160018114610e8f5760008415610e595750858301515b7fffffffffffffffffffffffffffffffffffffffffffffffffffffffffffffffff600386901b1c1916600185901b17855561024a565b6000858152602081207fffffffffffffffffffffffffffffffffffffffffffffffffffffffffffffffe08616915b82811015610edc57888601518255948401946001909101908401610ebd565b5085821015610f1857878501517fffffffffffffffffffffffffffffffffffffffffffffffffffffffffffffffff600388901b60f8161c191681555b5050505050600190811b01905550565b6000808454610f3681610d46565b60018281168015610f4e5760018114610f8157610fb0565b7fffffffffffffffffffffffffffffffffffffffffffffffffffffffffffffff0084168752821515830287019450610fb0565b8860005260208060002060005b85811015610fa75781548a820152908401908201610f8e565b50505082870194505b505050508351610fc4818360208801610b41565b01949350505050565b600060208284031215610fdf57600080fd5b81518015158114610fef57600080fd5b9392505050565b60007fffffffffffffffffffffffffffffffffffffffffffffffffffffffffffffffff820361102757611027610d00565b5060010190565b7f4e487b7100000000000000000000000000000000000000000000000000000000600052601260045260246000fd5b60008261106c5761106c61102e565b500490565b6000826110805761108061102e565b500690565b6000821982111561109857611098610d00565b500190565b7f4e487b7100000000000000000000000000000000000000000000000000000000600052603260045260246000fdfea26469706673582212202da87a4075fc71bdbb4af234a02445e8d5ecdad9a06ff2953791d9ad9e8e5c5264736f6c634300080f0033",
  "linkReferences": {},
  "deployedLinkReferences": {}
}