{
  "_format": "hh-sol-artifact-1",
  "contractName": "ERC721Facet",
  "sourceName": "contracts/token/ERC721/facets/ERC721Facet.sol",
  "abi": [
    {
      "inputs": [
        {
          "internalType": "contract IForwarderRegistry",
          "name": "forwarderRegistry",
          "type": "address"
        }
      ],
      "stateMutability": "nonpayable",
      "type": "constructor"
    },
    {
      "anonymous": false,
      "inputs": [
        {
          "indexed": true,
          "internalType": "address",
          "name": "owner",
          "type": "address"
        },
        {
          "indexed": true,
          "internalType": "address",
          "name": "approved",
          "type": "address"
        },
        {
          "indexed": true,
          "internalType": "uint256",
          "name": "tokenId",
          "type": "uint256"
        }
      ],
      "name": "Approval",
      "type": "event"
    },
    {
      "anonymous": false,
      "inputs": [
        {
          "indexed": true,
          "internalType": "address",
          "name": "owner",
          "type": "address"
        },
        {
          "indexed": true,
          "internalType": "address",
          "name": "operator",
          "type": "address"
        },
        {
          "indexed": false,
          "internalType": "bool",
          "name": "approved",
          "type": "bool"
        }
      ],
      "name": "ApprovalForAll",
      "type": "event"
    },
    {
      "anonymous": false,
      "inputs": [
        {
          "indexed": true,
          "internalType": "address",
          "name": "from",
          "type": "address"
        },
        {
          "indexed": true,
          "internalType": "address",
          "name": "to",
          "type": "address"
        },
        {
          "indexed": true,
          "internalType": "uint256",
          "name": "tokenId",
          "type": "uint256"
        }
      ],
      "name": "Transfer",
      "type": "event"
    },
    {
      "inputs": [
        {
          "internalType": "address",
          "name": "to",
          "type": "address"
        },
        {
          "internalType": "uint256",
          "name": "tokenId",
          "type": "uint256"
        }
      ],
      "name": "approve",
      "outputs": [],
      "stateMutability": "nonpayable",
      "type": "function"
    },
    {
      "inputs": [
        {
          "internalType": "address",
          "name": "owner",
          "type": "address"
        }
      ],
      "name": "balanceOf",
      "outputs": [
        {
          "internalType": "uint256",
          "name": "balance",
          "type": "uint256"
        }
      ],
      "stateMutability": "view",
      "type": "function"
    },
    {
      "inputs": [
        {
          "internalType": "uint256",
          "name": "tokenId",
          "type": "uint256"
        }
      ],
      "name": "getApproved",
      "outputs": [
        {
          "internalType": "address",
          "name": "approved",
          "type": "address"
        }
      ],
      "stateMutability": "view",
      "type": "function"
    },
    {
      "inputs": [],
      "name": "initERC721Storage",
      "outputs": [],
      "stateMutability": "nonpayable",
      "type": "function"
    },
    {
      "inputs": [
        {
          "internalType": "address",
          "name": "owner",
          "type": "address"
        },
        {
          "internalType": "address",
          "name": "operator",
          "type": "address"
        }
      ],
      "name": "isApprovedForAll",
      "outputs": [
        {
          "internalType": "bool",
          "name": "approvedForAll",
          "type": "bool"
        }
      ],
      "stateMutability": "view",
      "type": "function"
    },
    {
      "inputs": [
        {
          "internalType": "uint256",
          "name": "tokenId",
          "type": "uint256"
        }
      ],
      "name": "ownerOf",
      "outputs": [
        {
          "internalType": "address",
          "name": "tokenOwner",
          "type": "address"
        }
      ],
      "stateMutability": "view",
      "type": "function"
    },
    {
      "inputs": [
        {
          "internalType": "address",
          "name": "from",
          "type": "address"
        },
        {
          "internalType": "address",
          "name": "to",
          "type": "address"
        },
        {
          "internalType": "uint256",
          "name": "tokenId",
          "type": "uint256"
        }
      ],
      "name": "safeTransferFrom",
      "outputs": [],
      "stateMutability": "nonpayable",
      "type": "function"
    },
    {
      "inputs": [
        {
          "internalType": "address",
          "name": "from",
          "type": "address"
        },
        {
          "internalType": "address",
          "name": "to",
          "type": "address"
        },
        {
          "internalType": "uint256",
          "name": "tokenId",
          "type": "uint256"
        },
        {
          "internalType": "bytes",
          "name": "data",
          "type": "bytes"
        }
      ],
      "name": "safeTransferFrom",
      "outputs": [],
      "stateMutability": "nonpayable",
      "type": "function"
    },
    {
      "inputs": [
        {
          "internalType": "address",
          "name": "operator",
          "type": "address"
        },
        {
          "internalType": "bool",
          "name": "approved",
          "type": "bool"
        }
      ],
      "name": "setApprovalForAll",
      "outputs": [],
      "stateMutability": "nonpayable",
      "type": "function"
    },
    {
      "inputs": [
        {
          "internalType": "address",
          "name": "from",
          "type": "address"
        },
        {
          "internalType": "address",
          "name": "to",
          "type": "address"
        },
        {
          "internalType": "uint256",
          "name": "tokenId",
          "type": "uint256"
        }
      ],
      "name": "transferFrom",
      "outputs": [],
      "stateMutability": "nonpayable",
      "type": "function"
    }
  ],
  "bytecode": "0x60a060405234801561001057600080fd5b5060405161168738038061168783398101604081905261002f91610040565b6001600160a01b0316608052610070565b60006020828403121561005257600080fd5b81516001600160a01b038116811461006957600080fd5b9392505050565b6080516115f561009260003960008181610eb40152610f5401526115f56000f3fe608060405234801561001057600080fd5b50600436106100be5760003560e01c806370a0823111610076578063b1c7ee021161005b578063b1c7ee0214610182578063b88d4fde1461018a578063e985e9c51461019d57600080fd5b806370a082311461014e578063a22cb4651461016f57600080fd5b806323b872dd116100a757806323b872dd1461011557806342842e0e146101285780636352211e1461013b57600080fd5b8063081812fc146100c3578063095ea7b314610100575b600080fd5b6100d66100d13660046112a5565b6101c0565b60405173ffffffffffffffffffffffffffffffffffffffff90911681526020015b60405180910390f35b61011361010e3660046112e7565b6101da565b005b610113610123366004611311565b6101fb565b610113610136366004611311565b61021f565b6100d66101493660046112a5565b61023e565b61016161015c36600461134d565b610252565b6040519081526020016100f7565b61011361017d366004611379565b610266565b610113610283565b6101136101983660046113b0565b6102a6565b6101b06101ab36600461144b565b610305565b60405190151581526020016100f7565b60006101d4826101ce61035a565b90610388565b92915050565b6101f76101e561046e565b83836101ef61035a565b92919061047d565b5050565b61021a61020661046e565b84848461021161035a565b93929190610746565b505050565b61021a61022a61046e565b84848461023561035a565b93929190610a9b565b60006101d48261024c61035a565b90610ae1565b60006101d48261026061035a565b90610b77565b6101f761027161046e565b838361027b61035a565b929190610c23565b61029c61028e61046e565b610296610d53565b90610d81565b6102a4610e04565b565b6102fe6102b161046e565b86868686868080601f0160208091040260200160405190810160405280939291908181526020018383808284376000920191909152506102f4925061035a915050565b9493929190610e39565b5050505050565b6000610353838361031461035a565b919073ffffffffffffffffffffffffffffffffffffffff9182166000908152600393909301602090815260408085209290931684525290205460ff1690565b9392505050565b6000806101d460017fddf3ee18ae6d688373c219468f8be446e7ae82215f4779d821c7ea5e8c13c0c161147e565b60008181526020839052604081205473ffffffffffffffffffffffffffffffffffffffff8116610419576040517f08c379a000000000000000000000000000000000000000000000000000000000815260206004820152601a60248201527f4552433732313a206e6f6e2d6578697374696e6720746f6b656e00000000000060448201526064015b60405180910390fd5b74010000000000000000000000000000000000000000811615610464575050600081815260028301602052604090205473ffffffffffffffffffffffffffffffffffffffff166101d4565b60009150506101d4565b6000610478610e78565b905090565b60008181526020859052604090205473ffffffffffffffffffffffffffffffffffffffff8116610509576040517f08c379a000000000000000000000000000000000000000000000000000000000815260206004820152601a60248201527f4552433732313a206e6f6e2d6578697374696e6720746f6b656e0000000000006044820152606401610410565b8073ffffffffffffffffffffffffffffffffffffffff8082169085160361058c576040517f08c379a000000000000000000000000000000000000000000000000000000000815260206004820152601560248201527f4552433732313a2073656c662d617070726f76616c00000000000000000000006044820152606401610410565b610597868287610fd0565b6105fd576040517f08c379a000000000000000000000000000000000000000000000000000000000815260206004820152601b60248201527f4552433732313a206e6f6e2d617070726f7665642073656e64657200000000006044820152606401610410565b73ffffffffffffffffffffffffffffffffffffffff8416610662577401000000000000000000000000000000000000000082161561065d57600083815260208790526040902073ffffffffffffffffffffffffffffffffffffffff821690555b6106e3565b7401000000000000000000000000000000000000000082178083146106935760008481526020889052604090208190555b506000838152600287016020526040902080547fffffffffffffffffffffffff00000000000000000000000000000000000000001673ffffffffffffffffffffffffffffffffffffffff86161790555b828473ffffffffffffffffffffffffffffffffffffffff168273ffffffffffffffffffffffffffffffffffffffff167f8c5be1e5ebec7d5bd14f71427d1e84f3dd0314c0f7b2291e5b200ac8c7c3b92560405160405180910390a4505050505050565b73ffffffffffffffffffffffffffffffffffffffff82166107c3576040517f08c379a000000000000000000000000000000000000000000000000000000000815260206004820152601e60248201527f4552433732313a207472616e7366657220746f206164647265737328302900006044820152606401610410565b60008181526020869052604090205473ffffffffffffffffffffffffffffffffffffffff811661084f576040517f08c379a000000000000000000000000000000000000000000000000000000000815260206004820152601a60248201527f4552433732313a206e6f6e2d6578697374696e6720746f6b656e0000000000006044820152606401610410565b73ffffffffffffffffffffffffffffffffffffffff84168173ffffffffffffffffffffffffffffffffffffffff16146108e4576040517f08c379a000000000000000000000000000000000000000000000000000000000815260206004820152601760248201527f4552433732313a206e6f6e2d6f776e656420746f6b656e0000000000000000006044820152606401610410565b6108ef868587610fd0565b6109a757740100000000000000000000000000000000000000008116151580156109415750600082815260028701602052604090205473ffffffffffffffffffffffffffffffffffffffff8681169116145b6109a7576040517f08c379a000000000000000000000000000000000000000000000000000000000815260206004820152601b60248201527f4552433732313a206e6f6e2d617070726f7665642073656e64657200000000006044820152606401610410565b600082815260208790526040902073ffffffffffffffffffffffffffffffffffffffff80851691829055851614610a385773ffffffffffffffffffffffffffffffffffffffff80851660009081526001808901602052604080832080547fffffffffffffffffffffffffffffffffffffffffffffffffffffffffffffffff0190559286168252919020805490910190555b818373ffffffffffffffffffffffffffffffffffffffff168573ffffffffffffffffffffffffffffffffffffffff167fddf252ad1be2c89b69c2b068fc378daa952ba7f163c4a11628f55a4df523b3ef60405160405180910390a4505050505050565b610aa88585858585610746565b73ffffffffffffffffffffffffffffffffffffffff82163b156102fe576102fe8484848460405180602001604052806000815250611045565b60008181526020839052604081205473ffffffffffffffffffffffffffffffffffffffff8116610b6d576040517f08c379a000000000000000000000000000000000000000000000000000000000815260206004820152601a60248201527f4552433732313a206e6f6e2d6578697374696e6720746f6b656e0000000000006044820152606401610410565b805b949350505050565b600073ffffffffffffffffffffffffffffffffffffffff8216610bf6576040517f08c379a000000000000000000000000000000000000000000000000000000000815260206004820152601d60248201527f4552433732313a2062616c616e6365206f6620616464726573732830290000006044820152606401610410565b5073ffffffffffffffffffffffffffffffffffffffff166000908152600191909101602052604090205490565b8273ffffffffffffffffffffffffffffffffffffffff168273ffffffffffffffffffffffffffffffffffffffff1603610cb8576040517f08c379a000000000000000000000000000000000000000000000000000000000815260206004820152601d60248201527f4552433732313a2073656c662d617070726f76616c20666f7220616c6c0000006044820152606401610410565b73ffffffffffffffffffffffffffffffffffffffff838116600081815260038701602090815260408083209487168084529482529182902080547fffffffffffffffffffffffffffffffffffffffffffffffffffffffffffffff001686151590811790915591519182527f17307eab39ab6107e8899845ad3d59bd9653f200f220920489ca2b5937696c31910160405180910390a350505050565b6000806101d460017fb53127684a568b3173ae13b9f8a6016e243e63b6e8ee1178d6a717850b5d610461147e565b815473ffffffffffffffffffffffffffffffffffffffff8281169116146101f7576040517f08c379a000000000000000000000000000000000000000000000000000000000815260206004820152601960248201527f50726f787941646d696e3a206e6f74207468652061646d696e000000000000006044820152606401610410565b6102a47f80ac58cd000000000000000000000000000000000000000000000000000000006001610e3261116b565b9190611199565b610e468686868686610746565b73ffffffffffffffffffffffffffffffffffffffff83163b15610e7057610e708585858585611045565b505050505050565b600033328103610e8757919050565b6000367fffffffffffffffffffffffffffffffffffffffffffffffffffffffffffffffec013560601c90507f000000000000000000000000000000000000000000000000000000000000000073ffffffffffffffffffffffffffffffffffffffff168273ffffffffffffffffffffffffffffffffffffffff161480610fbf57506040517fe60125d600000000000000000000000000000000000000000000000000000000815273ffffffffffffffffffffffffffffffffffffffff828116600483015283811660248301527f0000000000000000000000000000000000000000000000000000000000000000169063e60125d690604401602060405180830381865afa158015610f9b573d6000803e3d6000fd5b505050506040513d601f19601f82011682018060405250810190610fbf91906114bc565b15610fca5792915050565b50919050565b60008173ffffffffffffffffffffffffffffffffffffffff168373ffffffffffffffffffffffffffffffffffffffff161480610b6f57505073ffffffffffffffffffffffffffffffffffffffff9182166000908152600393909301602090815260408085209290931684525290205460ff1690565b6040517f150b7a02000000000000000000000000000000000000000000000000000000008082529073ffffffffffffffffffffffffffffffffffffffff85169063150b7a029061109f9089908990889088906004016114d9565b6020604051808303816000875af11580156110be573d6000803e3d6000fd5b505050506040513d601f19601f820116820180604052508101906110e2919061157d565b7fffffffff0000000000000000000000000000000000000000000000000000000016146102fe576040517f08c379a000000000000000000000000000000000000000000000000000000000815260206004820152601e60248201527f4552433732313a2073616665207472616e736665722072656a656374656400006044820152606401610410565b6000806101d460017fca9d3e17f264b0f3984e2634e94adb37fa3e6a8103f06aeae6fa59e21c769f5e61147e565b7c01000000000000000000000000000000000000000000000000000000007fffffffff00000000000000000000000000000000000000000000000000000000831601611241576040517f08c379a000000000000000000000000000000000000000000000000000000000815260206004820152601f60248201527f496e74657266616365446574656374696f6e3a2077726f6e672076616c7565006044820152606401610410565b7fffffffff00000000000000000000000000000000000000000000000000000000919091166000908152602092909252604090912080547fffffffffffffffffffffffffffffffffffffffffffffffffffffffffffffff0016911515919091179055565b6000602082840312156112b757600080fd5b5035919050565b803573ffffffffffffffffffffffffffffffffffffffff811681146112e257600080fd5b919050565b600080604083850312156112fa57600080fd5b611303836112be565b946020939093013593505050565b60008060006060848603121561132657600080fd5b61132f846112be565b925061133d602085016112be565b9150604084013590509250925092565b60006020828403121561135f57600080fd5b610353826112be565b801515811461137657600080fd5b50565b6000806040838503121561138c57600080fd5b611395836112be565b915060208301356113a581611368565b809150509250929050565b6000806000806000608086880312156113c857600080fd5b6113d1866112be565b94506113df602087016112be565b935060408601359250606086013567ffffffffffffffff8082111561140357600080fd5b818801915088601f83011261141757600080fd5b81358181111561142657600080fd5b89602082850101111561143857600080fd5b9699959850939650602001949392505050565b6000806040838503121561145e57600080fd5b611467836112be565b9150611475602084016112be565b90509250929050565b6000828210156114b7577f4e487b7100000000000000000000000000000000000000000000000000000000600052601160045260246000fd5b500390565b6000602082840312156114ce57600080fd5b815161035381611368565b600073ffffffffffffffffffffffffffffffffffffffff8087168352602081871681850152856040850152608060608501528451915081608085015260005b828110156115345785810182015185820160a001528101611518565b8281111561154657600060a084870101525b5050601f017fffffffffffffffffffffffffffffffffffffffffffffffffffffffffffffffe0169190910160a00195945050505050565b60006020828403121561158f57600080fd5b81517fffffffff000000000000000000000000000000000000000000000000000000008116811461035357600080fdfea264697066735822122019b34a273ad85a0167f56313f05c1938da2cc42a8a76e55a03fabe94825d054c64736f6c634300080f0033",
  "linkReferences": {},
  "deployedLinkReferences": {}
}