{
  "_format": "hh-sol-artifact-1",
  "contractName": "ERC20FixedSupplyProxied",
  "sourceName": "contracts/token/ERC20/preset/proxied/ERC20FixedSupplyProxied.sol",
  "abi": [
    {
      "inputs": [
        {
          "internalType": "contract IForwarderRegistry",
          "name": "forwarderRegistry",
          "type": "address"
        }
      ],
      "stateMutability": "nonpayable",
      "type": "constructor"
    },
    {
      "anonymous": false,
      "inputs": [
        {
          "indexed": true,
          "internalType": "address",
          "name": "owner",
          "type": "address"
        },
        {
          "indexed": true,
          "internalType": "address",
          "name": "spender",
          "type": "address"
        },
        {
          "indexed": false,
          "internalType": "uint256",
          "name": "value",
          "type": "uint256"
        }
      ],
      "name": "Approval",
      "type": "event"
    },
    {
      "anonymous": false,
      "inputs": [
        {
          "indexed": true,
          "internalType": "address",
          "name": "from",
          "type": "address"
        },
        {
          "indexed": true,
          "internalType": "address",
          "name": "to",
          "type": "address"
        },
        {
          "indexed": false,
          "internalType": "uint256",
          "name": "value",
          "type": "uint256"
        }
      ],
      "name": "Transfer",
      "type": "event"
    },
    {
      "inputs": [],
      "name": "DOMAIN_SEPARATOR",
      "outputs": [
        {
          "internalType": "bytes32",
          "name": "",
          "type": "bytes32"
        }
      ],
      "stateMutability": "view",
      "type": "function"
    },
    {
      "inputs": [
        {
          "internalType": "address",
          "name": "owner",
          "type": "address"
        },
        {
          "internalType": "address",
          "name": "spender",
          "type": "address"
        }
      ],
      "name": "allowance",
      "outputs": [
        {
          "internalType": "uint256",
          "name": "value",
          "type": "uint256"
        }
      ],
      "stateMutability": "view",
      "type": "function"
    },
    {
      "inputs": [
        {
          "internalType": "address",
          "name": "spender",
          "type": "address"
        },
        {
          "internalType": "uint256",
          "name": "value",
          "type": "uint256"
        }
      ],
      "name": "approve",
      "outputs": [
        {
          "internalType": "bool",
          "name": "result",
          "type": "bool"
        }
      ],
      "stateMutability": "nonpayable",
      "type": "function"
    },
    {
      "inputs": [
        {
          "internalType": "address",
          "name": "owner",
          "type": "address"
        }
      ],
      "name": "balanceOf",
      "outputs": [
        {
          "internalType": "uint256",
          "name": "balance",
          "type": "uint256"
        }
      ],
      "stateMutability": "view",
      "type": "function"
    },
    {
      "inputs": [
        {
          "internalType": "address[]",
          "name": "recipients",
          "type": "address[]"
        },
        {
          "internalType": "uint256[]",
          "name": "values",
          "type": "uint256[]"
        }
      ],
      "name": "batchTransfer",
      "outputs": [
        {
          "internalType": "bool",
          "name": "",
          "type": "bool"
        }
      ],
      "stateMutability": "nonpayable",
      "type": "function"
    },
    {
      "inputs": [
        {
          "internalType": "address",
          "name": "from",
          "type": "address"
        },
        {
          "internalType": "address[]",
          "name": "recipients",
          "type": "address[]"
        },
        {
          "internalType": "uint256[]",
          "name": "values",
          "type": "uint256[]"
        }
      ],
      "name": "batchTransferFrom",
      "outputs": [
        {
          "internalType": "bool",
          "name": "",
          "type": "bool"
        }
      ],
      "stateMutability": "nonpayable",
      "type": "function"
    },
    {
      "inputs": [],
      "name": "decimals",
      "outputs": [
        {
          "internalType": "uint8",
          "name": "",
          "type": "uint8"
        }
      ],
      "stateMutability": "view",
      "type": "function"
    },
    {
      "inputs": [
        {
          "internalType": "address",
          "name": "spender",
          "type": "address"
        },
        {
          "internalType": "uint256",
          "name": "subtractedValue",
          "type": "uint256"
        }
      ],
      "name": "decreaseAllowance",
      "outputs": [
        {
          "internalType": "bool",
          "name": "result",
          "type": "bool"
        }
      ],
      "stateMutability": "nonpayable",
      "type": "function"
    },
    {
      "inputs": [],
      "name": "forwarderRegistry",
      "outputs": [
        {
          "internalType": "contract IForwarderRegistry",
          "name": "",
          "type": "address"
        }
      ],
      "stateMutability": "view",
      "type": "function"
    },
    {
      "inputs": [
        {
          "internalType": "address",
          "name": "spender",
          "type": "address"
        },
        {
          "internalType": "uint256",
          "name": "addedValue",
          "type": "uint256"
        }
      ],
      "name": "increaseAllowance",
      "outputs": [
        {
          "internalType": "bool",
          "name": "result",
          "type": "bool"
        }
      ],
      "stateMutability": "nonpayable",
      "type": "function"
    },
    {
      "inputs": [
        {
          "internalType": "string",
          "name": "tokenName",
          "type": "string"
        },
        {
          "internalType": "string",
          "name": "tokenSymbol",
          "type": "string"
        },
        {
          "internalType": "uint8",
          "name": "tokenDecimals",
          "type": "uint8"
        },
        {
          "internalType": "address[]",
          "name": "holders",
          "type": "address[]"
        },
        {
          "internalType": "uint256[]",
          "name": "allocations",
          "type": "uint256[]"
        }
      ],
      "name": "init",
      "outputs": [],
      "stateMutability": "nonpayable",
      "type": "function"
    },
    {
      "inputs": [
        {
          "internalType": "address",
          "name": "forwarder",
          "type": "address"
        }
      ],
      "name": "isTrustedForwarder",
      "outputs": [
        {
          "internalType": "bool",
          "name": "",
          "type": "bool"
        }
      ],
      "stateMutability": "view",
      "type": "function"
    },
    {
      "inputs": [],
      "name": "name",
      "outputs": [
        {
          "internalType": "string",
          "name": "",
          "type": "string"
        }
      ],
      "stateMutability": "view",
      "type": "function"
    },
    {
      "inputs": [
        {
          "internalType": "address",
          "name": "owner",
          "type": "address"
        }
      ],
      "name": "nonces",
      "outputs": [
        {
          "internalType": "uint256",
          "name": "",
          "type": "uint256"
        }
      ],
      "stateMutability": "view",
      "type": "function"
    },
    {
      "inputs": [
        {
          "internalType": "address",
          "name": "owner",
          "type": "address"
        },
        {
          "internalType": "address",
          "name": "spender",
          "type": "address"
        },
        {
          "internalType": "uint256",
          "name": "value",
          "type": "uint256"
        },
        {
          "internalType": "uint256",
          "name": "deadline",
          "type": "uint256"
        },
        {
          "internalType": "uint8",
          "name": "v",
          "type": "uint8"
        },
        {
          "internalType": "bytes32",
          "name": "r",
          "type": "bytes32"
        },
        {
          "internalType": "bytes32",
          "name": "s",
          "type": "bytes32"
        }
      ],
      "name": "permit",
      "outputs": [],
      "stateMutability": "nonpayable",
      "type": "function"
    },
    {
      "inputs": [
        {
          "internalType": "address[]",
          "name": "accounts",
          "type": "address[]"
        },
        {
          "internalType": "contract IERC20[]",
          "name": "tokens",
          "type": "address[]"
        },
        {
          "internalType": "uint256[]",
          "name": "amounts",
          "type": "uint256[]"
        }
      ],
      "name": "recoverERC20s",
      "outputs": [],
      "stateMutability": "nonpayable",
      "type": "function"
    },
    {
      "inputs": [
        {
          "internalType": "address[]",
          "name": "accounts",
          "type": "address[]"
        },
        {
          "internalType": "contract IERC721[]",
          "name": "contracts",
          "type": "address[]"
        },
        {
          "internalType": "uint256[]",
          "name": "tokenIds",
          "type": "uint256[]"
        }
      ],
      "name": "recoverERC721s",
      "outputs": [],
      "stateMutability": "nonpayable",
      "type": "function"
    },
    {
      "inputs": [
        {
          "internalType": "address payable[]",
          "name": "accounts",
          "type": "address[]"
        },
        {
          "internalType": "uint256[]",
          "name": "amounts",
          "type": "uint256[]"
        }
      ],
      "name": "recoverETH",
      "outputs": [],
      "stateMutability": "nonpayable",
      "type": "function"
    },
    {
      "inputs": [
        {
          "internalType": "address",
          "name": "to",
          "type": "address"
        },
        {
          "internalType": "uint256",
          "name": "value",
          "type": "uint256"
        },
        {
          "internalType": "bytes",
          "name": "data",
          "type": "bytes"
        }
      ],
      "name": "safeTransfer",
      "outputs": [
        {
          "internalType": "bool",
          "name": "",
          "type": "bool"
        }
      ],
      "stateMutability": "nonpayable",
      "type": "function"
    },
    {
      "inputs": [
        {
          "internalType": "address",
          "name": "from",
          "type": "address"
        },
        {
          "internalType": "address",
          "name": "to",
          "type": "address"
        },
        {
          "internalType": "uint256",
          "name": "value",
          "type": "uint256"
        },
        {
          "internalType": "bytes",
          "name": "data",
          "type": "bytes"
        }
      ],
      "name": "safeTransferFrom",
      "outputs": [
        {
          "internalType": "bool",
          "name": "",
          "type": "bool"
        }
      ],
      "stateMutability": "nonpayable",
      "type": "function"
    },
    {
      "inputs": [
        {
          "internalType": "string",
          "name": "uri",
          "type": "string"
        }
      ],
      "name": "setTokenURI",
      "outputs": [],
      "stateMutability": "nonpayable",
      "type": "function"
    },
    {
      "inputs": [
        {
          "internalType": "bytes4",
          "name": "interfaceId",
          "type": "bytes4"
        }
      ],
      "name": "supportsInterface",
      "outputs": [
        {
          "internalType": "bool",
          "name": "",
          "type": "bool"
        }
      ],
      "stateMutability": "view",
      "type": "function"
    },
    {
      "inputs": [],
      "name": "symbol",
      "outputs": [
        {
          "internalType": "string",
          "name": "",
          "type": "string"
        }
      ],
      "stateMutability": "view",
      "type": "function"
    },
    {
      "inputs": [],
      "name": "tokenURI",
      "outputs": [
        {
          "internalType": "string",
          "name": "",
          "type": "string"
        }
      ],
      "stateMutability": "view",
      "type": "function"
    },
    {
      "inputs": [],
      "name": "totalSupply",
      "outputs": [
        {
          "internalType": "uint256",
          "name": "supply",
          "type": "uint256"
        }
      ],
      "stateMutability": "view",
      "type": "function"
    },
    {
      "inputs": [
        {
          "internalType": "address",
          "name": "to",
          "type": "address"
        },
        {
          "internalType": "uint256",
          "name": "value",
          "type": "uint256"
        }
      ],
      "name": "transfer",
      "outputs": [
        {
          "internalType": "bool",
          "name": "result",
          "type": "bool"
        }
      ],
      "stateMutability": "nonpayable",
      "type": "function"
    },
    {
      "inputs": [
        {
          "internalType": "address",
          "name": "from",
          "type": "address"
        },
        {
          "internalType": "address",
          "name": "to",
          "type": "address"
        },
        {
          "internalType": "uint256",
          "name": "value",
          "type": "uint256"
        }
      ],
      "name": "transferFrom",
      "outputs": [
        {
          "internalType": "bool",
          "name": "result",
          "type": "bool"
        }
      ],
      "stateMutability": "nonpayable",
      "type": "function"
    }
  ],
  "bytecode": "0x60a06040523480156200001157600080fd5b506040516200397638038062003976833981016040819052620000349162000046565b6001600160a01b031660805262000078565b6000602082840312156200005957600080fd5b81516001600160a01b03811681146200007157600080fd5b9392505050565b6080516138cd620000a960003960008181610251015281816102db015281816128b2015261293a01526138cd6000f3fe608060405234801561001057600080fd5b50600436106101b95760003560e01c806373c8a958116100f9578063b88d4fde11610097578063dd62ed3e11610071578063dd62ed3e146103e0578063e0df5b6f146103f3578063eb79554914610406578063f7ba94bd1461041957600080fd5b8063b88d4fde146103a7578063c3666c36146103ba578063d505accf146103cd57600080fd5b80638a6d57b6116100d35780638a6d57b61461036657806395d89b4114610379578063a457c2d714610381578063a9059cbb1461039457600080fd5b806373c8a9581461032b5780637ecebe001461034057806388d695b21461035357600080fd5b8063313ce567116101665780633c130d90116101405780633c130d90146102b05780634885b254146102b8578063572b6c05146102cb57806370a082311461031857600080fd5b8063313ce5671461027b5780633644e51514610295578063395093511461029d57600080fd5b806318160ddd1161019757806318160ddd1461020e57806323b872dd146102245780632b4c9f161461023757600080fd5b806301ffc9a7146101be57806306fdde03146101e6578063095ea7b3146101fb575b600080fd5b6101d16101cc366004612fbc565b61042c565b60405190151581526020015b60405180910390f35b6101ee610446565b6040516101dd9190613047565b6101d161020936600461307c565b61045d565b610216610485565b6040519081526020016101dd565b6101d16102323660046130a8565b610499565b60405173ffffffffffffffffffffffffffffffffffffffff7f00000000000000000000000000000000000000000000000000000000000000001681526020016101dd565b6102836104c4565b60405160ff90911681526020016101dd565b6102166104db565b6101d16102ab36600461307c565b6104e5565b6101ee610504565b6101d16102c6366004613135565b610511565b6101d16102d93660046131b8565b7f000000000000000000000000000000000000000000000000000000000000000073ffffffffffffffffffffffffffffffffffffffff90811691161490565b6102166103263660046131b8565b610542565b61033e6103393660046131d5565b61057a565b005b61021661034e3660046131b8565b6106b0565b6101d161036136600461326f565b6106be565b61033e610374366004613333565b6106ed565b6101ee6107cb565b6101d161038f36600461307c565b6107dd565b6101d16103a236600461307c565b6107fc565b6101d16103b536600461340d565b61081b565b61033e6103c83660046131d5565b610840565b61033e6103db36600461346f565b6109e5565b6102166103ee3660046134dd565b610a0c565b61033e610401366004613516565b610a5e565b6101d1610414366004613558565b610a81565b61033e61042736600461326f565b610aa4565b60006104408261043a610b92565b90610bc0565b92915050565b6060610458610453610c9a565b610cc8565b905090565b600061047c61046a610d5e565b8484610474610d68565b929190610d96565b50600192915050565b6000610458610492610d68565b6002015490565b60006104ba6104a6610d5e565b8585856104b1610d68565b93929190610e85565b5060019392505050565b60006104586104d1610c9a565b6002015460ff1690565b6000610458610ed7565b600061047c6104f2610d5e565b84846104fc610d68565b929190610f72565b606061045861045361113e565b600061053661051e610d5e565b878787878761052b610d68565b95949392919061116c565b50600195945050505050565b600061044082610550610d68565b9073ffffffffffffffffffffffffffffffffffffffff166000908152602091909152604090205490565b610593610585610d5e565b61058d6115b2565b906115e0565b8483811480156105a257508082145b61060d576040517f08c379a000000000000000000000000000000000000000000000000000000000815260206004820152601d60248201527f5265636f766572793a20696e636f6e73697374656e742061727261797300000060448201526064015b60405180910390fd5b60005b8181146106a65761069e88888381811061062c5761062c6135a8565b905060200201602081019061064191906131b8565b858584818110610653576106536135a8565b9050602002013588888581811061066c5761066c6135a8565b905060200201602081019061068191906131b8565b73ffffffffffffffffffffffffffffffffffffffff169190611663565b600101610610565b5050505050505050565b6000610440826105506116f5565b60006106e16106cb610d5e565b868686866106d7610d68565b9493929190611723565b5060015b949350505050565b6107066106f8610d5e565b6107006115b2565b90611b05565b61070e611b44565b610716611bab565b61071e611be2565b610738898989898961072e610c9a565b9493929190611c10565b610740611cb8565b610748611ce6565b6107c0848480806020026020016040519081016040528093929190818152602001838360200280828437600092019190915250506040805160208088028281018201909352878252909350879250869182918501908490808284376000920191909152506107b99250610d68915050565b9190611d14565b505050505050505050565b60606104586107d8610c9a565b611fea565b600061047c6107ea610d5e565b84846107f4610d68565b929190611ffb565b600061047c610809610d5e565b8484610813610d68565b92919061214d565b6000610536610828610d5e565b8787878787610835610d68565b95949392919061232e565b61084b610585610d5e565b84838114801561085a57508082145b6108c0576040517f08c379a000000000000000000000000000000000000000000000000000000000815260206004820152601d60248201527f5265636f766572793a20696e636f6e73697374656e74206172726179730000006044820152606401610604565b60005b8181146106a6578585828181106108dc576108dc6135a8565b90506020020160208101906108f191906131b8565b73ffffffffffffffffffffffffffffffffffffffff166323b872dd308a8a8581811061091f5761091f6135a8565b905060200201602081019061093491906131b8565b878786818110610946576109466135a8565b6040517fffffffff0000000000000000000000000000000000000000000000000000000060e088901b16815273ffffffffffffffffffffffffffffffffffffffff958616600482015294909316602485015250602090910201356044820152606401600060405180830381600087803b1580156109c257600080fd5b505af11580156109d6573d6000803e3d6000fd5b505050508060010190506108c3565b610a03878787878787876109f76116f5565b9695949392919061239b565b50505050505050565b6000610a578383610a1b610d68565b919073ffffffffffffffffffffffffffffffffffffffff9182166000908152600193909301602090815260408085209290931684525290205490565b9392505050565b610a69610585610d5e565b610a7d8282610a7661113e565b9190612697565b5050565b60006106e1610a8e610d5e565b86868686610a9a610d68565b94939291906126a9565b610aaf610585610d5e565b82818114610b19576040517f08c379a000000000000000000000000000000000000000000000000000000000815260206004820152601d60248201527f5265636f766572793a20696e636f6e73697374656e74206172726179730000006044820152606401610604565b60005b818114610b8a57610b82848483818110610b3857610b386135a8565b90506020020135878784818110610b5157610b516135a8565b9050602002016020810190610b6691906131b8565b73ffffffffffffffffffffffffffffffffffffffff1690612715565b600101610b1c565b505050505050565b60008061044060017fca9d3e17f264b0f3984e2634e94adb37fa3e6a8103f06aeae6fa59e21c769f5e6135d7565b60007c01000000000000000000000000000000000000000000000000000000007fffffffff00000000000000000000000000000000000000000000000000000000831601610c1057506000610440565b7ffe003659000000000000000000000000000000000000000000000000000000007fffffffff00000000000000000000000000000000000000000000000000000000831601610c6157506001610440565b507fffffffff00000000000000000000000000000000000000000000000000000000166000908152602091909152604090205460ff1690565b60008061044060017f335df4119bbb04f056b33eba33b826d3529129e458faf6daa9924b5a8f3b6a826135d7565b6060816000018054610cd990613611565b80601f0160208091040260200160405190810160405280929190818152602001828054610d0590613611565b8015610d525780601f10610d2757610100808354040283529160200191610d52565b820191906000526020600020905b815481529060010190602001808311610d3557829003601f168201915b50505050509050919050565b600061045861286f565b60008061044060017f1da92899d3da68bf9787824388a37ea2bfa79780bcef91b9716c390eec8ecbef6135d7565b73ffffffffffffffffffffffffffffffffffffffff8216610e13576040517f08c379a000000000000000000000000000000000000000000000000000000000815260206004820152601d60248201527f45524332303a20617070726f76616c20746f20616464726573732830290000006044820152606401610604565b73ffffffffffffffffffffffffffffffffffffffff838116600081815260018701602090815260408083209487168084529482529182902085905590518481527f8c5be1e5ebec7d5bd14f71427d1e84f3dd0314c0f7b2291e5b200ac8c7c3b92591015b60405180910390a350505050565b8373ffffffffffffffffffffffffffffffffffffffff168373ffffffffffffffffffffffffffffffffffffffff1614610ec457610ec485848684611ffb565b610ed08584848461214d565b5050505050565b6000467f8b73c3c69bb8fe3d512ecc4cf759cc79239f7b179b0ffacaa9a75d522b39400f610f06610453610c9a565b80516020918201206040805192830193909352918101919091527fc89efdaa54c0f20c7adf612882df0950f5a951637e0307cdcb4c672f298b8bc66060820152608081018290523060a082015260c0016040516020818303038152906040528051906020012091505090565b73ffffffffffffffffffffffffffffffffffffffff8216610fef576040517f08c379a000000000000000000000000000000000000000000000000000000000815260206004820152601d60248201527f45524332303a20617070726f76616c20746f20616464726573732830290000006044820152606401610604565b73ffffffffffffffffffffffffffffffffffffffff808416600090815260018601602090815260408083209386168352929052205481156110d057808201818111611096576040517f08c379a000000000000000000000000000000000000000000000000000000000815260206004820152601960248201527f45524332303a20616c6c6f77616e6365206f766572666c6f77000000000000006044820152606401610604565b73ffffffffffffffffffffffffffffffffffffffff8086166000908152600188016020908152604080832093881683529290522081905590505b8273ffffffffffffffffffffffffffffffffffffffff168473ffffffffffffffffffffffffffffffffffffffff167f8c5be1e5ebec7d5bd14f71427d1e84f3dd0314c0f7b2291e5b200ac8c7c3b9258360405161112f91815260200190565b60405180910390a35050505050565b60008061044060017ff41bf6a5db26bffdfab174dcf66b31fbba8fdb7e3db040721ce1e62d61839ceb6135d7565b828181146111d6576040517f08c379a000000000000000000000000000000000000000000000000000000000815260206004820152601a60248201527f45524332303a20696e636f6e73697374656e74206172726179730000000000006044820152606401610604565b806000036111e45750610a03565b73ffffffffffffffffffffffffffffffffffffffff86166000908152602089905260408120549080805b8481146114ba576000898983818110611229576112296135a8565b905060200201602081019061123e91906131b8565b905073ffffffffffffffffffffffffffffffffffffffff81166112bd576040517f08c379a000000000000000000000000000000000000000000000000000000000815260206004820152601d60248201527f45524332303a207472616e7366657220746f20616464726573732830290000006044820152606401610604565b60008888848181106112d1576112d16135a8565b905060200201359050806000146114495784810185811161134e576040517f08c379a000000000000000000000000000000000000000000000000000000000815260206004820152601660248201527f45524332303a2076616c756573206f766572666c6f77000000000000000000006044820152606401610604565b8095508273ffffffffffffffffffffffffffffffffffffffff168d73ffffffffffffffffffffffffffffffffffffffff16146113d857818f60000160008573ffffffffffffffffffffffffffffffffffffffff1673ffffffffffffffffffffffffffffffffffffffff16815260200190815260200160002060008282540192505081905550611447565b86821115611442576040517f08c379a000000000000000000000000000000000000000000000000000000000815260206004820152601b60248201527f45524332303a20696e73756666696369656e742062616c616e636500000000006044820152606401610604565b938101935b505b8173ffffffffffffffffffffffffffffffffffffffff168c73ffffffffffffffffffffffffffffffffffffffff167fddf252ad1be2c89b69c2b068fc378daa952ba7f163c4a11628f55a4df523b3ef836040516114a891815260200190565b60405180910390a3505060010161120e565b5081158015906114ca5750808214155b156115665781830383811061153b576040517f08c379a000000000000000000000000000000000000000000000000000000000815260206004820152601b60248201527f45524332303a20696e73756666696369656e742062616c616e636500000000006044820152606401610604565b73ffffffffffffffffffffffffffffffffffffffff8a16600090815260208d90526040902090820190555b8973ffffffffffffffffffffffffffffffffffffffff168973ffffffffffffffffffffffffffffffffffffffff16146115a5576115a58b8a8c85611ffb565b5050505050505050505050565b60008061044060017fc9ed16f33ab3a66c84bfd83099ccb2a8845871e2e1c1928f63797152f0fd54cd6135d7565b815473ffffffffffffffffffffffffffffffffffffffff828116911614610a7d576040517f08c379a000000000000000000000000000000000000000000000000000000000815260206004820152601860248201527f4f776e6572736869703a206e6f7420746865206f776e657200000000000000006044820152606401610604565b6040805173ffffffffffffffffffffffffffffffffffffffff8416602482015260448082018490528251808303909101815260649091019091526020810180517bffffffffffffffffffffffffffffffffffffffffffffffffffffffff167fa9059cbb000000000000000000000000000000000000000000000000000000001790526116f09084906129b6565b505050565b60008061044060017f93fe0ff7226b064a4a8f0b09910762afb4bc2441835792c021ffd78cd513011e6135d7565b8281811461178d576040517f08c379a000000000000000000000000000000000000000000000000000000000815260206004820152601a60248201527f45524332303a20696e636f6e73697374656e74206172726179730000000000006044820152606401610604565b8060000361179b5750610b8a565b73ffffffffffffffffffffffffffffffffffffffff86166000908152602088905260408120549080805b848114611a4d5760008989838181106117e0576117e06135a8565b90506020020160208101906117f591906131b8565b905073ffffffffffffffffffffffffffffffffffffffff8116611874576040517f08c379a000000000000000000000000000000000000000000000000000000000815260206004820152601d60248201527f45524332303a207472616e7366657220746f20616464726573732830290000006044820152606401610604565b6000888884818110611888576118886135a8565b905060200201359050806000146119dc57848101858111611905576040517f08c379a000000000000000000000000000000000000000000000000000000000815260206004820152601660248201527f45524332303a2076616c756573206f766572666c6f77000000000000000000006044820152606401610604565b8095508273ffffffffffffffffffffffffffffffffffffffff168d73ffffffffffffffffffffffffffffffffffffffff161461196b5773ffffffffffffffffffffffffffffffffffffffff8316600090815260208f9052604090208054830190556119da565b868211156119d5576040517f08c379a000000000000000000000000000000000000000000000000000000000815260206004820152601b60248201527f45524332303a20696e73756666696369656e742062616c616e636500000000006044820152606401610604565b938101935b505b8173ffffffffffffffffffffffffffffffffffffffff168c73ffffffffffffffffffffffffffffffffffffffff167fddf252ad1be2c89b69c2b068fc378daa952ba7f163c4a11628f55a4df523b3ef83604051611a3b91815260200190565b60405180910390a350506001016117c5565b508115801590611a5d5750808214155b15611af957818303838110611ace576040517f08c379a000000000000000000000000000000000000000000000000000000000815260206004820152601b60248201527f45524332303a20696e73756666696369656e742062616c616e636500000000006044820152606401610604565b73ffffffffffffffffffffffffffffffffffffffff8a16600090815260208c90526040902090820190555b50505050505050505050565b611b3a611b3360017f5b388d90dc1312ba799f321972f13311234fa1163bcabec7cf66101c4876eb846135d7565b6001612ac5565b610a7d8282612b35565b6000611b4e610b92565b9050611b7c817f36372b07000000000000000000000000000000000000000000000000000000006001612beb565b611ba8817f9d075186000000000000000000000000000000000000000000000000000000006001612beb565b50565b611be07fc05327e6000000000000000000000000000000000000000000000000000000006001611bd9610b92565b9190612beb565b565b611be07f53f41a97000000000000000000000000000000000000000000000000000000006001611bd9610b92565b611c3e611b3360017fd217496980d1cb14720b20a80af36676bbece8e5feeb5d8970a9681a2c76bb756135d7565b85611c4a8587836136d9565b5060018601611c5a8385836136d9565b506002860180547fffffffffffffffffffffffffffffffffffffffffffffffffffffffffffffff001660ff8316179055610b8a7fa219a025000000000000000000000000000000000000000000000000000000006001611bd9610b92565b611be07f3c130d90000000000000000000000000000000000000000000000000000000006001611bd9610b92565b611be07f9d8ff7da000000000000000000000000000000000000000000000000000000006001611bd9610b92565b815181518114611d80576040517f08c379a000000000000000000000000000000000000000000000000000000000815260206004820152601a60248201527f45524332303a20696e636f6e73697374656e74206172726179730000000000006044820152606401610604565b80600003611d8e5750505050565b6000805b828114611f65576000858281518110611dad57611dad6135a8565b60200260200101519050600073ffffffffffffffffffffffffffffffffffffffff168173ffffffffffffffffffffffffffffffffffffffff1603611e4d576040517f08c379a000000000000000000000000000000000000000000000000000000000815260206004820152601960248201527f45524332303a206d696e7420746f2061646472657373283029000000000000006044820152606401610604565b6000858381518110611e6157611e616135a8565b6020026020010151905080600014611f0d57838101848111611edf576040517f08c379a000000000000000000000000000000000000000000000000000000000815260206004820152601660248201527f45524332303a2076616c756573206f766572666c6f77000000000000000000006044820152606401610604565b73ffffffffffffffffffffffffffffffffffffffff8316600090815260208a90526040902080548301905593505b60405181815273ffffffffffffffffffffffffffffffffffffffff8316906000907fddf252ad1be2c89b69c2b068fc378daa952ba7f163c4a11628f55a4df523b3ef9060200160405180910390a35050600101611d92565b508015610ed0576002850154818101818111611fdd576040517f08c379a000000000000000000000000000000000000000000000000000000000815260206004820152601660248201527f45524332303a20737570706c79206f766572666c6f77000000000000000000006044820152606401610604565b6002870155505050505050565b6060816001018054610cd990613611565b73ffffffffffffffffffffffffffffffffffffffff8216612078576040517f08c379a000000000000000000000000000000000000000000000000000000000815260206004820152601d60248201527f45524332303a20617070726f76616c20746f20616464726573732830290000006044820152606401610604565b73ffffffffffffffffffffffffffffffffffffffff80841660009081526001860160209081526040808320938616835292905220547fffffffffffffffffffffffffffffffffffffffffffffffffffffffffffffffff81148015906120dc57508115155b156110d057818103818110611096576040517f08c379a000000000000000000000000000000000000000000000000000000000815260206004820152601d60248201527f45524332303a20696e73756666696369656e7420616c6c6f77616e63650000006044820152606401610604565b73ffffffffffffffffffffffffffffffffffffffff82166121ca576040517f08c379a000000000000000000000000000000000000000000000000000000000815260206004820152601d60248201527f45524332303a207472616e7366657220746f20616464726573732830290000006044820152606401610604565b80156122cf5773ffffffffffffffffffffffffffffffffffffffff8316600090815260208590526040902054818103818110612262576040517f08c379a000000000000000000000000000000000000000000000000000000000815260206004820152601b60248201527f45524332303a20696e73756666696369656e742062616c616e636500000000006044820152606401610604565b8373ffffffffffffffffffffffffffffffffffffffff168573ffffffffffffffffffffffffffffffffffffffff16146122cc5773ffffffffffffffffffffffffffffffffffffffff8086166000908152602088905260408082208490559186168152208054840190555b50505b8173ffffffffffffffffffffffffffffffffffffffff168373ffffffffffffffffffffffffffffffffffffffff167fddf252ad1be2c89b69c2b068fc378daa952ba7f163c4a11628f55a4df523b3ef83604051610e7791815260200190565b61233b8787878787610e85565b73ffffffffffffffffffffffffffffffffffffffff84163b15610a0357610a038686868686868080601f016020809104026020016040519081016040528093929190818152602001838380828437600092019190915250612cf792505050565b73ffffffffffffffffffffffffffffffffffffffff8716612418576040517f08c379a000000000000000000000000000000000000000000000000000000000815260206004820152601d60248201527f45524332303a207065726d69742066726f6d20616464726573732830290000006044820152606401610604565b83421115612482576040517f08c379a000000000000000000000000000000000000000000000000000000000815260206004820152601560248201527f45524332303a2065787069726564207065726d697400000000000000000000006044820152606401610604565b73ffffffffffffffffffffffffffffffffffffffff878116600081815260208b8152604080832080546001810190915581517f6e71edae12b1b97f4d1f60370fef10105fa2faae0126114a169c64845d6126c98185015280830195909552948b166060850152608084018a905260a084019490945260c08084018990528451808503909101815260e09093019093528151919092012090612521610ed7565b6040517f19010000000000000000000000000000000000000000000000000000000000006020820152602281019190915260428101839052606201604080517fffffffffffffffffffffffffffffffffffffffffffffffffffffffffffffffe08184030181528282528051602091820120600080855291840180845281905260ff89169284019290925260608301879052608083018690529092509060019060a0016020604051602081039080840390855afa1580156125e5573d6000803e3d6000fd5b5050506020604051035190508973ffffffffffffffffffffffffffffffffffffffff168173ffffffffffffffffffffffffffffffffffffffff1614612686576040517f08c379a000000000000000000000000000000000000000000000000000000000815260206004820152601560248201527f45524332303a20696e76616c6964207065726d697400000000000000000000006044820152606401610604565b5050506106a6878787610474610d68565b826126a38284836136d9565b50505050565b6126b58686868661214d565b73ffffffffffffffffffffffffffffffffffffffff84163b15610b8a57610b8a8586868686868080601f016020809104026020016040519081016040528093929190818152602001838380828437600092019190915250612cf792505050565b8047101561277f576040517f08c379a000000000000000000000000000000000000000000000000000000000815260206004820152601d60248201527f416464726573733a20696e73756666696369656e742062616c616e63650000006044820152606401610604565b60008273ffffffffffffffffffffffffffffffffffffffff168260405160006040518083038185875af1925050503d80600081146127d9576040519150601f19603f3d011682016040523d82523d6000602084013e6127de565b606091505b50509050806116f0576040517f08c379a000000000000000000000000000000000000000000000000000000000815260206004820152603a60248201527f416464726573733a20756e61626c6520746f2073656e642076616c75652c207260448201527f6563697069656e74206d617920686176652072657665727465640000000000006064820152608401610604565b60003332148061287f5750601836105b1561288957503390565b7fffffffffffffffffffffffffffffffffffffffffffffffffffffffffffffffec36013560601c7f000000000000000000000000000000000000000000000000000000000000000073ffffffffffffffffffffffffffffffffffffffff163314806129a557506040517f8929a8ca00000000000000000000000000000000000000000000000000000000815273ffffffffffffffffffffffffffffffffffffffff82811660048301523360248301527f00000000000000000000000000000000000000000000000000000000000000001690638929a8ca90604401602060405180830381865afa158015612981573d6000803e3d6000fd5b505050506040513d601f19601f820116820180604052508101906129a591906137f3565b156129af57919050565b3391505090565b6000612a18826040518060400160405280602081526020017f5361666545524332303a206c6f772d6c6576656c2063616c6c206661696c65648152508573ffffffffffffffffffffffffffffffffffffffff16612e1d9092919063ffffffff16565b9050805160001480612a39575080806020019051810190612a3991906137f3565b6116f0576040517f08c379a000000000000000000000000000000000000000000000000000000000815260206004820152602a60248201527f5361666545524332303a204552433230206f7065726174696f6e20646964206e60448201527f6f742073756363656564000000000000000000000000000000000000000000006064820152608401610604565b815482908211612b31576040517f08c379a000000000000000000000000000000000000000000000000000000000815260206004820152601660248201527f53746f726167653a2070686173652072656163686564000000000000000000006044820152606401610604565b5550565b73ffffffffffffffffffffffffffffffffffffffff811615612bbd5781547fffffffffffffffffffffffff00000000000000000000000000000000000000001673ffffffffffffffffffffffffffffffffffffffff821690811783556040516000907f8be0079c531659141344cd1fd0a4f28419497f9722a3daafe3b4186f6b6457e0908290a35b610a7d7f7f5828d0000000000000000000000000000000000000000000000000000000006001611bd9610b92565b7c01000000000000000000000000000000000000000000000000000000007fffffffff00000000000000000000000000000000000000000000000000000000831601612c93576040517f08c379a000000000000000000000000000000000000000000000000000000000815260206004820152601f60248201527f496e74657266616365446574656374696f6e3a2077726f6e672076616c7565006044820152606401610604565b7fffffffff00000000000000000000000000000000000000000000000000000000919091166000908152602092909252604090912080547fffffffffffffffffffffffffffffffffffffffffffffffffffffffffffffff0016911515919091179055565b6040517f4fc35859000000000000000000000000000000000000000000000000000000008082529073ffffffffffffffffffffffffffffffffffffffff851690634fc3585990612d51908990899088908890600401613815565b6020604051808303816000875af1158015612d70573d6000803e3d6000fd5b505050506040513d601f19601f82011682018060405250810190612d94919061385e565b7fffffffff000000000000000000000000000000000000000000000000000000001614610ed0576040517f08c379a000000000000000000000000000000000000000000000000000000000815260206004820152601d60248201527f45524332303a2073616665207472616e736665722072656a65637465640000006044820152606401610604565b60606106e58484600085856000808673ffffffffffffffffffffffffffffffffffffffff168587604051612e51919061387b565b60006040518083038185875af1925050503d8060008114612e8e576040519150601f19603f3d011682016040523d82523d6000602084013e612e93565b606091505b5091509150612ea487838387612eaf565b979650505050505050565b60608315612f45578251600003612f3e5773ffffffffffffffffffffffffffffffffffffffff85163b612f3e576040517f08c379a000000000000000000000000000000000000000000000000000000000815260206004820152601d60248201527f416464726573733a2063616c6c20746f206e6f6e2d636f6e74726163740000006044820152606401610604565b50816106e5565b6106e58383815115612f5a5781518083602001fd5b806040517f08c379a00000000000000000000000000000000000000000000000000000000081526004016106049190613047565b7fffffffff0000000000000000000000000000000000000000000000000000000081168114611ba857600080fd5b600060208284031215612fce57600080fd5b8135610a5781612f8e565b60005b83811015612ff4578181015183820152602001612fdc565b50506000910152565b60008151808452613015816020860160208601612fd9565b601f017fffffffffffffffffffffffffffffffffffffffffffffffffffffffffffffffe0169290920160200192915050565b602081526000610a576020830184612ffd565b73ffffffffffffffffffffffffffffffffffffffff81168114611ba857600080fd5b6000806040838503121561308f57600080fd5b823561309a8161305a565b946020939093013593505050565b6000806000606084860312156130bd57600080fd5b83356130c88161305a565b925060208401356130d88161305a565b929592945050506040919091013590565b60008083601f8401126130fb57600080fd5b50813567ffffffffffffffff81111561311357600080fd5b6020830191508360208260051b850101111561312e57600080fd5b9250929050565b60008060008060006060868803121561314d57600080fd5b85356131588161305a565b9450602086013567ffffffffffffffff8082111561317557600080fd5b61318189838a016130e9565b9096509450604088013591508082111561319a57600080fd5b506131a7888289016130e9565b969995985093965092949392505050565b6000602082840312156131ca57600080fd5b8135610a578161305a565b600080600080600080606087890312156131ee57600080fd5b863567ffffffffffffffff8082111561320657600080fd5b6132128a838b016130e9565b9098509650602089013591508082111561322b57600080fd5b6132378a838b016130e9565b9096509450604089013591508082111561325057600080fd5b5061325d89828a016130e9565b979a9699509497509295939492505050565b6000806000806040858703121561328557600080fd5b843567ffffffffffffffff8082111561329d57600080fd5b6132a9888389016130e9565b909650945060208701359150808211156132c257600080fd5b506132cf878288016130e9565b95989497509550505050565b60008083601f8401126132ed57600080fd5b50813567ffffffffffffffff81111561330557600080fd5b60208301915083602082850101111561312e57600080fd5b803560ff8116811461332e57600080fd5b919050565b600080600080600080600080600060a08a8c03121561335157600080fd5b893567ffffffffffffffff8082111561336957600080fd5b6133758d838e016132db565b909b50995060208c013591508082111561338e57600080fd5b61339a8d838e016132db565b90995097508791506133ae60408d0161331d565b965060608c01359150808211156133c457600080fd5b6133d08d838e016130e9565b909650945060808c01359150808211156133e957600080fd5b506133f68c828d016130e9565b915080935050809150509295985092959850929598565b60008060008060006080868803121561342557600080fd5b85356134308161305a565b945060208601356134408161305a565b935060408601359250606086013567ffffffffffffffff81111561346357600080fd5b6131a7888289016132db565b600080600080600080600060e0888a03121561348a57600080fd5b87356134958161305a565b965060208801356134a58161305a565b955060408801359450606088013593506134c16080890161331d565b925060a0880135915060c0880135905092959891949750929550565b600080604083850312156134f057600080fd5b82356134fb8161305a565b9150602083013561350b8161305a565b809150509250929050565b6000806020838503121561352957600080fd5b823567ffffffffffffffff81111561354057600080fd5b61354c858286016132db565b90969095509350505050565b6000806000806060858703121561356e57600080fd5b84356135798161305a565b935060208501359250604085013567ffffffffffffffff81111561359c57600080fd5b6132cf878288016132db565b7f4e487b7100000000000000000000000000000000000000000000000000000000600052603260045260246000fd5b81810381811115610440577f4e487b7100000000000000000000000000000000000000000000000000000000600052601160045260246000fd5b600181811c9082168061362557607f821691505b60208210810361365e577f4e487b7100000000000000000000000000000000000000000000000000000000600052602260045260246000fd5b50919050565b7f4e487b7100000000000000000000000000000000000000000000000000000000600052604160045260246000fd5b601f8211156116f057600081815260208120601f850160051c810160208610156136ba5750805b601f850160051c820191505b81811015610b8a578281556001016136c6565b67ffffffffffffffff8311156136f1576136f1613664565b613705836136ff8354613611565b83613693565b6000601f84116001811461375757600085156137215750838201355b7fffffffffffffffffffffffffffffffffffffffffffffffffffffffffffffffff600387901b1c1916600186901b178355610ed0565b6000838152602090207fffffffffffffffffffffffffffffffffffffffffffffffffffffffffffffffe0861690835b828110156137a65786850135825560209485019460019092019101613786565b50868210156137e1577fffffffffffffffffffffffffffffffffffffffffffffffffffffffffffffffff60f88860031b161c19848701351681555b505060018560011b0183555050505050565b60006020828403121561380557600080fd5b81518015158114610a5757600080fd5b600073ffffffffffffffffffffffffffffffffffffffff8087168352808616602084015250836040830152608060608301526138546080830184612ffd565b9695505050505050565b60006020828403121561387057600080fd5b8151610a5781612f8e565b6000825161388d818460208701612fd9565b919091019291505056fea26469706673582212206715313f452164b6673b98f01e31dc9a9c70d8b33ada24ff0582d4d6844f8f7164736f6c63430008110033",
  "linkReferences": {},
  "deployedLinkReferences": {}
}