{
  "_format": "hh-sol-artifact-1",
  "contractName": "ERC20FixedSupplyProxied",
  "sourceName": "contracts/token/ERC20/preset/proxied/ERC20FixedSupplyProxied.sol",
  "abi": [
    {
      "inputs": [
        {
          "internalType": "contract IForwarderRegistry",
          "name": "forwarderRegistry",
          "type": "address"
        }
      ],
      "stateMutability": "nonpayable",
      "type": "constructor"
    },
    {
      "inputs": [
        {
          "internalType": "address",
          "name": "owner",
          "type": "address"
        },
        {
          "internalType": "address",
          "name": "spender",
          "type": "address"
        },
        {
          "internalType": "uint256",
          "name": "allowance",
          "type": "uint256"
        },
        {
          "internalType": "uint256",
          "name": "increment",
          "type": "uint256"
        }
      ],
      "name": "ERC20AllowanceOverflow",
      "type": "error"
    },
    {
      "inputs": [
        {
          "internalType": "address",
          "name": "owner",
          "type": "address"
        }
      ],
      "name": "ERC20ApprovalToAddressZero",
      "type": "error"
    },
    {
      "inputs": [],
      "name": "ERC20BatchMintValuesOverflow",
      "type": "error"
    },
    {
      "inputs": [],
      "name": "ERC20BatchTransferValuesOverflow",
      "type": "error"
    },
    {
      "inputs": [
        {
          "internalType": "address",
          "name": "owner",
          "type": "address"
        },
        {
          "internalType": "address",
          "name": "spender",
          "type": "address"
        },
        {
          "internalType": "uint256",
          "name": "allowance",
          "type": "uint256"
        },
        {
          "internalType": "uint256",
          "name": "decrement",
          "type": "uint256"
        }
      ],
      "name": "ERC20InsufficientAllowance",
      "type": "error"
    },
    {
      "inputs": [
        {
          "internalType": "address",
          "name": "owner",
          "type": "address"
        },
        {
          "internalType": "uint256",
          "name": "balance",
          "type": "uint256"
        },
        {
          "internalType": "uint256",
          "name": "value",
          "type": "uint256"
        }
      ],
      "name": "ERC20InsufficientBalance",
      "type": "error"
    },
    {
      "inputs": [],
      "name": "ERC20MintToAddressZero",
      "type": "error"
    },
    {
      "inputs": [
        {
          "internalType": "uint256",
          "name": "deadline",
          "type": "uint256"
        }
      ],
      "name": "ERC20PermitExpired",
      "type": "error"
    },
    {
      "inputs": [],
      "name": "ERC20PermitFromAddressZero",
      "type": "error"
    },
    {
      "inputs": [],
      "name": "ERC20PermitInvalidSignature",
      "type": "error"
    },
    {
      "inputs": [
        {
          "internalType": "address",
          "name": "recipient",
          "type": "address"
        }
      ],
      "name": "ERC20SafeTransferRejected",
      "type": "error"
    },
    {
      "inputs": [
        {
          "internalType": "uint256",
          "name": "supply",
          "type": "uint256"
        },
        {
          "internalType": "uint256",
          "name": "value",
          "type": "uint256"
        }
      ],
      "name": "ERC20TotalSupplyOverflow",
      "type": "error"
    },
    {
      "inputs": [
        {
          "internalType": "address",
          "name": "owner",
          "type": "address"
        }
      ],
      "name": "ERC20TransferToAddressZero",
      "type": "error"
    },
    {
      "inputs": [],
      "name": "FailedCall",
      "type": "error"
    },
    {
      "inputs": [],
      "name": "IllegalInterfaceId",
      "type": "error"
    },
    {
      "inputs": [],
      "name": "InconsistentArrayLengths",
      "type": "error"
    },
    {
      "inputs": [
        {
          "internalType": "address",
          "name": "tokenContract",
          "type": "address"
        }
      ],
      "name": "IncorrectTokenContractType",
      "type": "error"
    },
    {
      "inputs": [
        {
          "internalType": "uint256",
          "name": "currentPhase",
          "type": "uint256"
        },
        {
          "internalType": "uint256",
          "name": "newPhase",
          "type": "uint256"
        }
      ],
      "name": "InitializationPhaseAlreadyReached",
      "type": "error"
    },
    {
      "inputs": [
        {
          "internalType": "uint256",
          "name": "balance",
          "type": "uint256"
        },
        {
          "internalType": "uint256",
          "name": "needed",
          "type": "uint256"
        }
      ],
      "name": "InsufficientBalance",
      "type": "error"
    },
    {
      "inputs": [
        {
          "internalType": "address",
          "name": "account",
          "type": "address"
        }
      ],
      "name": "NotContractOwner",
      "type": "error"
    },
    {
      "inputs": [
        {
          "internalType": "address",
          "name": "token",
          "type": "address"
        }
      ],
      "name": "SafeERC20FailedOperation",
      "type": "error"
    },
    {
      "anonymous": false,
      "inputs": [
        {
          "indexed": true,
          "internalType": "address",
          "name": "owner",
          "type": "address"
        },
        {
          "indexed": true,
          "internalType": "address",
          "name": "spender",
          "type": "address"
        },
        {
          "indexed": false,
          "internalType": "uint256",
          "name": "value",
          "type": "uint256"
        }
      ],
      "name": "Approval",
      "type": "event"
    },
    {
      "anonymous": false,
      "inputs": [
        {
          "indexed": true,
          "internalType": "address",
          "name": "previousOwner",
          "type": "address"
        },
        {
          "indexed": true,
          "internalType": "address",
          "name": "newOwner",
          "type": "address"
        }
      ],
      "name": "OwnershipTransferred",
      "type": "event"
    },
    {
      "anonymous": false,
      "inputs": [
        {
          "indexed": true,
          "internalType": "address",
          "name": "from",
          "type": "address"
        },
        {
          "indexed": true,
          "internalType": "address",
          "name": "to",
          "type": "address"
        },
        {
          "indexed": false,
          "internalType": "uint256",
          "name": "value",
          "type": "uint256"
        }
      ],
      "name": "Transfer",
      "type": "event"
    },
    {
      "inputs": [],
      "name": "DOMAIN_SEPARATOR",
      "outputs": [
        {
          "internalType": "bytes32",
          "name": "",
          "type": "bytes32"
        }
      ],
      "stateMutability": "view",
      "type": "function"
    },
    {
      "inputs": [
        {
          "internalType": "address",
          "name": "owner",
          "type": "address"
        },
        {
          "internalType": "address",
          "name": "spender",
          "type": "address"
        }
      ],
      "name": "allowance",
      "outputs": [
        {
          "internalType": "uint256",
          "name": "value",
          "type": "uint256"
        }
      ],
      "stateMutability": "view",
      "type": "function"
    },
    {
      "inputs": [
        {
          "internalType": "address",
          "name": "spender",
          "type": "address"
        },
        {
          "internalType": "uint256",
          "name": "value",
          "type": "uint256"
        }
      ],
      "name": "approve",
      "outputs": [
        {
          "internalType": "bool",
          "name": "result",
          "type": "bool"
        }
      ],
      "stateMutability": "nonpayable",
      "type": "function"
    },
    {
      "inputs": [
        {
          "internalType": "address",
          "name": "owner",
          "type": "address"
        }
      ],
      "name": "balanceOf",
      "outputs": [
        {
          "internalType": "uint256",
          "name": "balance",
          "type": "uint256"
        }
      ],
      "stateMutability": "view",
      "type": "function"
    },
    {
      "inputs": [
        {
          "internalType": "address[]",
          "name": "recipients",
          "type": "address[]"
        },
        {
          "internalType": "uint256[]",
          "name": "values",
          "type": "uint256[]"
        }
      ],
      "name": "batchTransfer",
      "outputs": [
        {
          "internalType": "bool",
          "name": "",
          "type": "bool"
        }
      ],
      "stateMutability": "nonpayable",
      "type": "function"
    },
    {
      "inputs": [
        {
          "internalType": "address",
          "name": "from",
          "type": "address"
        },
        {
          "internalType": "address[]",
          "name": "recipients",
          "type": "address[]"
        },
        {
          "internalType": "uint256[]",
          "name": "values",
          "type": "uint256[]"
        }
      ],
      "name": "batchTransferFrom",
      "outputs": [
        {
          "internalType": "bool",
          "name": "",
          "type": "bool"
        }
      ],
      "stateMutability": "nonpayable",
      "type": "function"
    },
    {
      "inputs": [],
      "name": "decimals",
      "outputs": [
        {
          "internalType": "uint8",
          "name": "",
          "type": "uint8"
        }
      ],
      "stateMutability": "view",
      "type": "function"
    },
    {
      "inputs": [
        {
          "internalType": "address",
          "name": "spender",
          "type": "address"
        },
        {
          "internalType": "uint256",
          "name": "subtractedValue",
          "type": "uint256"
        }
      ],
      "name": "decreaseAllowance",
      "outputs": [
        {
          "internalType": "bool",
          "name": "result",
          "type": "bool"
        }
      ],
      "stateMutability": "nonpayable",
      "type": "function"
    },
    {
      "inputs": [],
      "name": "forwarderRegistry",
      "outputs": [
        {
          "internalType": "contract IForwarderRegistry",
          "name": "",
          "type": "address"
        }
      ],
      "stateMutability": "view",
      "type": "function"
    },
    {
      "inputs": [
        {
          "internalType": "address",
          "name": "spender",
          "type": "address"
        },
        {
          "internalType": "uint256",
          "name": "addedValue",
          "type": "uint256"
        }
      ],
      "name": "increaseAllowance",
      "outputs": [
        {
          "internalType": "bool",
          "name": "result",
          "type": "bool"
        }
      ],
      "stateMutability": "nonpayable",
      "type": "function"
    },
    {
      "inputs": [
        {
          "internalType": "string",
          "name": "tokenName",
          "type": "string"
        },
        {
          "internalType": "string",
          "name": "tokenSymbol",
          "type": "string"
        },
        {
          "internalType": "uint8",
          "name": "tokenDecimals",
          "type": "uint8"
        },
        {
          "internalType": "address[]",
          "name": "holders",
          "type": "address[]"
        },
        {
          "internalType": "uint256[]",
          "name": "allocations",
          "type": "uint256[]"
        }
      ],
      "name": "init",
      "outputs": [],
      "stateMutability": "nonpayable",
      "type": "function"
    },
    {
      "inputs": [
        {
          "internalType": "address",
          "name": "forwarder",
          "type": "address"
        }
      ],
      "name": "isTrustedForwarder",
      "outputs": [
        {
          "internalType": "bool",
          "name": "",
          "type": "bool"
        }
      ],
      "stateMutability": "view",
      "type": "function"
    },
    {
      "inputs": [],
      "name": "name",
      "outputs": [
        {
          "internalType": "string",
          "name": "",
          "type": "string"
        }
      ],
      "stateMutability": "view",
      "type": "function"
    },
    {
      "inputs": [
        {
          "internalType": "address",
          "name": "owner",
          "type": "address"
        }
      ],
      "name": "nonces",
      "outputs": [
        {
          "internalType": "uint256",
          "name": "",
          "type": "uint256"
        }
      ],
      "stateMutability": "view",
      "type": "function"
    },
    {
      "inputs": [],
      "name": "owner",
      "outputs": [
        {
          "internalType": "address",
          "name": "",
          "type": "address"
        }
      ],
      "stateMutability": "view",
      "type": "function"
    },
    {
      "inputs": [
        {
          "internalType": "address",
          "name": "owner",
          "type": "address"
        },
        {
          "internalType": "address",
          "name": "spender",
          "type": "address"
        },
        {
          "internalType": "uint256",
          "name": "value",
          "type": "uint256"
        },
        {
          "internalType": "uint256",
          "name": "deadline",
          "type": "uint256"
        },
        {
          "internalType": "uint8",
          "name": "v",
          "type": "uint8"
        },
        {
          "internalType": "bytes32",
          "name": "r",
          "type": "bytes32"
        },
        {
          "internalType": "bytes32",
          "name": "s",
          "type": "bytes32"
        }
      ],
      "name": "permit",
      "outputs": [],
      "stateMutability": "nonpayable",
      "type": "function"
    },
    {
      "inputs": [
        {
          "internalType": "address[]",
          "name": "accounts",
          "type": "address[]"
        },
        {
          "internalType": "contract IERC20[]",
          "name": "tokens",
          "type": "address[]"
        },
        {
          "internalType": "uint256[]",
          "name": "amounts",
          "type": "uint256[]"
        }
      ],
      "name": "recoverERC20s",
      "outputs": [],
      "stateMutability": "nonpayable",
      "type": "function"
    },
    {
      "inputs": [
        {
          "internalType": "address[]",
          "name": "accounts",
          "type": "address[]"
        },
        {
          "internalType": "contract IERC721[]",
          "name": "contracts",
          "type": "address[]"
        },
        {
          "internalType": "uint256[]",
          "name": "tokenIds",
          "type": "uint256[]"
        }
      ],
      "name": "recoverERC721s",
      "outputs": [],
      "stateMutability": "nonpayable",
      "type": "function"
    },
    {
      "inputs": [
        {
          "internalType": "address payable[]",
          "name": "accounts",
          "type": "address[]"
        },
        {
          "internalType": "uint256[]",
          "name": "amounts",
          "type": "uint256[]"
        }
      ],
      "name": "recoverETH",
      "outputs": [],
      "stateMutability": "nonpayable",
      "type": "function"
    },
    {
      "inputs": [
        {
          "internalType": "address",
          "name": "to",
          "type": "address"
        },
        {
          "internalType": "uint256",
          "name": "value",
          "type": "uint256"
        },
        {
          "internalType": "bytes",
          "name": "data",
          "type": "bytes"
        }
      ],
      "name": "safeTransfer",
      "outputs": [
        {
          "internalType": "bool",
          "name": "",
          "type": "bool"
        }
      ],
      "stateMutability": "nonpayable",
      "type": "function"
    },
    {
      "inputs": [
        {
          "internalType": "address",
          "name": "from",
          "type": "address"
        },
        {
          "internalType": "address",
          "name": "to",
          "type": "address"
        },
        {
          "internalType": "uint256",
          "name": "value",
          "type": "uint256"
        },
        {
          "internalType": "bytes",
          "name": "data",
          "type": "bytes"
        }
      ],
      "name": "safeTransferFrom",
      "outputs": [
        {
          "internalType": "bool",
          "name": "",
          "type": "bool"
        }
      ],
      "stateMutability": "nonpayable",
      "type": "function"
    },
    {
      "inputs": [
        {
          "internalType": "string",
          "name": "uri",
          "type": "string"
        }
      ],
      "name": "setTokenURI",
      "outputs": [],
      "stateMutability": "nonpayable",
      "type": "function"
    },
    {
      "inputs": [
        {
          "internalType": "bytes4",
          "name": "interfaceId",
          "type": "bytes4"
        }
      ],
      "name": "supportsInterface",
      "outputs": [
        {
          "internalType": "bool",
          "name": "",
          "type": "bool"
        }
      ],
      "stateMutability": "view",
      "type": "function"
    },
    {
      "inputs": [],
      "name": "symbol",
      "outputs": [
        {
          "internalType": "string",
          "name": "",
          "type": "string"
        }
      ],
      "stateMutability": "view",
      "type": "function"
    },
    {
      "inputs": [],
      "name": "tokenURI",
      "outputs": [
        {
          "internalType": "string",
          "name": "",
          "type": "string"
        }
      ],
      "stateMutability": "view",
      "type": "function"
    },
    {
      "inputs": [],
      "name": "totalSupply",
      "outputs": [
        {
          "internalType": "uint256",
          "name": "supply",
          "type": "uint256"
        }
      ],
      "stateMutability": "view",
      "type": "function"
    },
    {
      "inputs": [
        {
          "internalType": "address",
          "name": "to",
          "type": "address"
        },
        {
          "internalType": "uint256",
          "name": "value",
          "type": "uint256"
        }
      ],
      "name": "transfer",
      "outputs": [
        {
          "internalType": "bool",
          "name": "result",
          "type": "bool"
        }
      ],
      "stateMutability": "nonpayable",
      "type": "function"
    },
    {
      "inputs": [
        {
          "internalType": "address",
          "name": "from",
          "type": "address"
        },
        {
          "internalType": "address",
          "name": "to",
          "type": "address"
        },
        {
          "internalType": "uint256",
          "name": "value",
          "type": "uint256"
        }
      ],
      "name": "transferFrom",
      "outputs": [
        {
          "internalType": "bool",
          "name": "result",
          "type": "bool"
        }
      ],
      "stateMutability": "nonpayable",
      "type": "function"
    },
    {
      "inputs": [
        {
          "internalType": "address",
          "name": "newOwner",
          "type": "address"
        }
      ],
      "name": "transferOwnership",
      "outputs": [],
      "stateMutability": "nonpayable",
      "type": "function"
    }
  ],
  "bytecode": "0x60a060405234801561001057600080fd5b5060405161367038038061367083398101604081905261002f91610040565b6001600160a01b0316608052610070565b60006020828403121561005257600080fd5b81516001600160a01b038116811461006957600080fd5b9392505050565b6080516135d06100a06000396000818161024f015281816102f40152818161265801526126e601526135d06000f3fe608060405234801561001057600080fd5b50600436106101cf5760003560e01c80637ecebe0011610104578063b88d4fde116100a2578063e0df5b6f11610071578063e0df5b6f14610414578063eb79554914610427578063f2fde38b1461043a578063f7ba94bd1461044d57600080fd5b8063b88d4fde146103c8578063c3666c36146103db578063d505accf146103ee578063dd62ed3e1461040157600080fd5b80638da5cb5b116100de5780638da5cb5b1461039257806395d89b411461039a578063a457c2d7146103a2578063a9059cbb146103b557600080fd5b80637ecebe001461035957806388d695b21461036c5780638a6d57b61461037f57600080fd5b80633644e515116101715780634885b2541161014b5780634885b254146102d1578063572b6c05146102e457806370a082311461033157806373c8a9581461034457600080fd5b80633644e515146102ae57806339509351146102b65780633c130d90146102c957600080fd5b806318160ddd116101ad57806318160ddd1461022457806323b872dd1461023a5780632b4c9f161461024d578063313ce5671461029457600080fd5b806301ffc9a7146101d457806306fdde03146101fc578063095ea7b314610211575b600080fd5b6101e76101e2366004612caa565b610460565b60405190151581526020015b60405180910390f35b61020461047a565b6040516101f39190612d2b565b6101e761021f366004612d60565b610491565b61022c6104b9565b6040519081526020016101f3565b6101e7610248366004612d8c565b6104cd565b7f00000000000000000000000000000000000000000000000000000000000000005b60405173ffffffffffffffffffffffffffffffffffffffff90911681526020016101f3565b61029c6104f8565b60405160ff90911681526020016101f3565b61022c61050f565b6101e76102c4366004612d60565b610519565b610204610538565b6101e76102df366004612e19565b610545565b6101e76102f2366004612ea1565b7f000000000000000000000000000000000000000000000000000000000000000073ffffffffffffffffffffffffffffffffffffffff90811691161490565b61022c61033f366004612ea1565b610576565b610357610352366004612ebe565b6105ae565b005b61022c610367366004612ea1565b6105dd565b6101e761037a366004612f64565b6105eb565b61035761038d36600461302d565b610619565b61026f6106f7565b61020461071e565b6101e76103b0366004612d60565b610730565b6101e76103c3366004612d60565b61074f565b6101e76103d6366004613118565b61076e565b6103576103e9366004612ebe565b610793565b6103576103fc36600461317a565b6107ac565b61022c61040f3660046131e9565b6107d3565b610357610422366004613222565b610825565b6101e7610435366004613264565b610848565b610357610448366004612ea1565b61086b565b61035761045b366004612f64565b610889565b60006104748261046e6108a6565b906108d4565b92915050565b606061048c6104876109ae565b6109dc565b905090565b60006104b061049e610a72565b84846104a8610a7c565b929190610aaa565b50600192915050565b600061048c6104c6610a7c565b6002015490565b60006104ee6104da610a72565b8585856104e5610a7c565b93929190610b86565b5060019392505050565b600061048c6105056109ae565b6002015460ff1690565b600061048c610bd8565b60006104b0610526610a72565b8484610530610a7c565b929190610c73565b606061048c610487610e25565b600061056a610552610a72565b878787878761055f610a7c565b959493929190610e53565b50600195945050505050565b600061047482610584610a7c565b9073ffffffffffffffffffffffffffffffffffffffff166000908152602091909152604090205490565b6105c76105b9610a72565b6105c161122d565b9061125b565b6105d58686868686866112c6565b505050505050565b6000610474826105846113b1565b600061060e6105f8610a72565b86868686610604610a7c565b94939291906113df565b506001949350505050565b610632610624610a72565b61062c61122d565b90611736565b61063a611775565b6106426117d9565b61064a611810565b610664898989898961065a6109ae565b949392919061183e565b61066c6118e6565b610674611914565b6106ec848480806020026020016040519081016040528093929190818152602001838360200280828437600092019190915250506040805160208088028281018201909352878252909350879250869182918501908490808284376000920191909152506106e59250610a7c915050565b9190611942565b505050505050505050565b600061048c61070461122d565b5473ffffffffffffffffffffffffffffffffffffffff1690565b606061048c61072b6109ae565b611b63565b60006104b061073d610a72565b8484610747610a7c565b929190611b74565b60006104b061075c610a72565b8484610766610a7c565b929190611cac565b600061056a61077b610a72565b8787878787610788610a7c565b959493929190611e6b565b61079e6105b9610a72565b6105d5868686868686611ed8565b6107ca878787878787876107be6113b1565b9695949392919061216e565b50505050505050565b600061081e83836107e2610a7c565b919073ffffffffffffffffffffffffffffffffffffffff9182166000908152600193909301602090815260408085209290931684525290205490565b9392505050565b6108306105b9610a72565b610844828261083d610e25565b91906123dd565b5050565b600061060e610855610a72565b86868686610861610a7c565b94939291906123e9565b610886610876610a72565b8261087f61122d565b9190612455565b50565b6108946105b9610a72565b6108a084848484612569565b50505050565b60008061047460017fca9d3e17f264b0f3984e2634e94adb37fa3e6a8103f06aeae6fa59e21c769f5e6132b4565b60007c01000000000000000000000000000000000000000000000000000000007fffffffff0000000000000000000000000000000000000000000000000000000083160161092457506000610474565b7ffe003659000000000000000000000000000000000000000000000000000000007fffffffff0000000000000000000000000000000000000000000000000000000083160161097557506001610474565b507fffffffff00000000000000000000000000000000000000000000000000000000166000908152602091909152604090205460ff1690565b60008061047460017f335df4119bbb04f056b33eba33b826d3529129e458faf6daa9924b5a8f3b6a826132b4565b60608160000180546109ed906132ee565b80601f0160208091040260200160405190810160405280929190818152602001828054610a19906132ee565b8015610a665780601f10610a3b57610100808354040283529160200191610a66565b820191906000526020600020905b815481529060010190602001808311610a4957829003601f168201915b50505050509050919050565b600061048c612615565b60008061047460017f1da92899d3da68bf9787824388a37ea2bfa79780bcef91b9716c390eec8ecbef6132b4565b73ffffffffffffffffffffffffffffffffffffffff8216610b14576040517ff7e1ac0f00000000000000000000000000000000000000000000000000000000815273ffffffffffffffffffffffffffffffffffffffff841660048201526024015b60405180910390fd5b73ffffffffffffffffffffffffffffffffffffffff838116600081815260018701602090815260408083209487168084529482529182902085905590518481527f8c5be1e5ebec7d5bd14f71427d1e84f3dd0314c0f7b2291e5b200ac8c7c3b92591015b60405180910390a350505050565b8373ffffffffffffffffffffffffffffffffffffffff168373ffffffffffffffffffffffffffffffffffffffff1614610bc557610bc585848684611b74565b610bd185848484611cac565b5050505050565b6000467f8b73c3c69bb8fe3d512ecc4cf759cc79239f7b179b0ffacaa9a75d522b39400f610c076104876109ae565b80516020918201206040805192830193909352918101919091527fc89efdaa54c0f20c7adf612882df0950f5a951637e0307cdcb4c672f298b8bc66060820152608081018290523060a082015260c0016040516020818303038152906040528051906020012091505090565b73ffffffffffffffffffffffffffffffffffffffff8216610cd8576040517ff7e1ac0f00000000000000000000000000000000000000000000000000000000815273ffffffffffffffffffffffffffffffffffffffff84166004820152602401610b0b565b73ffffffffffffffffffffffffffffffffffffffff80841660009081526001860160209081526040808320938616835292905220548115610db757808201818111610d7d576040517f93bc2ff100000000000000000000000000000000000000000000000000000000815273ffffffffffffffffffffffffffffffffffffffff8087166004830152851660248201526044810183905260648101849052608401610b0b565b73ffffffffffffffffffffffffffffffffffffffff8086166000908152600188016020908152604080832093881683529290522081905590505b8273ffffffffffffffffffffffffffffffffffffffff168473ffffffffffffffffffffffffffffffffffffffff167f8c5be1e5ebec7d5bd14f71427d1e84f3dd0314c0f7b2291e5b200ac8c7c3b92583604051610e1691815260200190565b60405180910390a35050505050565b60008061047460017ff41bf6a5db26bffdfab174dcf66b31fbba8fdb7e3db040721ce1e62d61839ceb6132b4565b82818114610e8d576040517f6582533600000000000000000000000000000000000000000000000000000000815260040160405180910390fd5b80600003610e9b57506107ca565b73ffffffffffffffffffffffffffffffffffffffff86166000908152602089905260408120549080805b848110156111e0576000898983818110610ee157610ee1613341565b9050602002016020810190610ef69190612ea1565b905073ffffffffffffffffffffffffffffffffffffffff8116610f5d576040517f754f425b00000000000000000000000000000000000000000000000000000000815273ffffffffffffffffffffffffffffffffffffffff8c166004820152602401610b0b565b6000888884818110610f7157610f71613341565b905060200201359050806000146110af57848101858111610fbe576040517fdedd834100000000000000000000000000000000000000000000000000000000815260040160405180910390fd5b8095508273ffffffffffffffffffffffffffffffffffffffff168d73ffffffffffffffffffffffffffffffffffffffff161461104857818f60000160008573ffffffffffffffffffffffffffffffffffffffff1673ffffffffffffffffffffffffffffffffffffffff168152602001908152602001600020600082825401925050819055506110ad565b868211156110a8576040517fe450d38c00000000000000000000000000000000000000000000000000000000815273ffffffffffffffffffffffffffffffffffffffff8e1660048201526024810188905260448101839052606401610b0b565b938101935b505b8173ffffffffffffffffffffffffffffffffffffffff168c73ffffffffffffffffffffffffffffffffffffffff167fddf252ad1be2c89b69c2b068fc378daa952ba7f163c4a11628f55a4df523b3ef8360405161110e91815260200190565b60405180910390a384158015906111255750838514155b156111d65784860386811061118c576040517fe450d38c00000000000000000000000000000000000000000000000000000000815273ffffffffffffffffffffffffffffffffffffffff8e1660048201526024810188905260448101879052606401610b0b565b8481018f60000160008f73ffffffffffffffffffffffffffffffffffffffff1673ffffffffffffffffffffffffffffffffffffffff16815260200190815260200160002081905550505b5050600101610ec5565b508973ffffffffffffffffffffffffffffffffffffffff168973ffffffffffffffffffffffffffffffffffffffff1614611220576112208b8a8c85611b74565b5050505050505050505050565b60008061047460017fc9ed16f33ab3a66c84bfd83099ccb2a8845871e2e1c1928f63797152f0fd54cd6132b4565b815473ffffffffffffffffffffffffffffffffffffffff828116911614610844576040517f2ef4875e00000000000000000000000000000000000000000000000000000000815273ffffffffffffffffffffffffffffffffffffffff82166004820152602401610b0b565b8483811415806112d65750808214155b1561130d576040517f6582533600000000000000000000000000000000000000000000000000000000815260040160405180910390fd5b60005b818110156113a75761139f88888381811061132d5761132d613341565b90506020020160208101906113429190612ea1565b85858481811061135457611354613341565b9050602002013588888581811061136d5761136d613341565b90506020020160208101906113829190612ea1565b73ffffffffffffffffffffffffffffffffffffffff169190612762565b600101611310565b5050505050505050565b60008061047460017f93fe0ff7226b064a4a8f0b09910762afb4bc2441835792c021ffd78cd513011e6132b4565b82818114611419576040517f6582533600000000000000000000000000000000000000000000000000000000815260040160405180910390fd5b8060000361142757506105d5565b73ffffffffffffffffffffffffffffffffffffffff86166000908152602088905260408120549080805b8481101561168857600089898381811061146d5761146d613341565b90506020020160208101906114829190612ea1565b905073ffffffffffffffffffffffffffffffffffffffff81166114e9576040517f754f425b00000000000000000000000000000000000000000000000000000000815273ffffffffffffffffffffffffffffffffffffffff8c166004820152602401610b0b565b60008888848181106114fd576114fd613341565b905060200201359050806000146116175784810185811161154a576040517fdedd834100000000000000000000000000000000000000000000000000000000815260040160405180910390fd5b8095508273ffffffffffffffffffffffffffffffffffffffff168d73ffffffffffffffffffffffffffffffffffffffff16146115b05773ffffffffffffffffffffffffffffffffffffffff8316600090815260208f905260409020805483019055611615565b86821115611610576040517fe450d38c00000000000000000000000000000000000000000000000000000000815273ffffffffffffffffffffffffffffffffffffffff8e1660048201526024810188905260448101839052606401610b0b565b938101935b505b8173ffffffffffffffffffffffffffffffffffffffff168c73ffffffffffffffffffffffffffffffffffffffff167fddf252ad1be2c89b69c2b068fc378daa952ba7f163c4a11628f55a4df523b3ef8360405161167691815260200190565b60405180910390a35050600101611451565b5081158015906116985750808214155b1561172a578183038381106116ff576040517fe450d38c00000000000000000000000000000000000000000000000000000000815273ffffffffffffffffffffffffffffffffffffffff8b1660048201526024810185905260448101849052606401610b0b565b73ffffffffffffffffffffffffffffffffffffffff8a16600090815260208c90526040902090820190555b50505050505050505050565b61176b61176460017f5b388d90dc1312ba799f321972f13311234fa1163bcabec7cf66101c4876eb846132b4565b60016127f4565b6108448282612840565b600061177f6108a6565b90506117ad817f36372b070000000000000000000000000000000000000000000000000000000060016128f6565b610886817f9d0751860000000000000000000000000000000000000000000000000000000060016128f6565b61180e7fc05327e60000000000000000000000000000000000000000000000000000000060016118076108a6565b91906128f6565b565b61180e7f53f41a970000000000000000000000000000000000000000000000000000000060016118076108a6565b61186c61176460017fd217496980d1cb14720b20a80af36676bbece8e5feeb5d8970a9681a2c76bb756132b4565b856118788587836133e6565b50600186016118888385836133e6565b506002860180547fffffffffffffffffffffffffffffffffffffffffffffffffffffffffffffff001660ff83161790556105d57fa219a0250000000000000000000000000000000000000000000000000000000060016118076108a6565b61180e7f3c130d900000000000000000000000000000000000000000000000000000000060016118076108a6565b61180e7f9d8ff7da0000000000000000000000000000000000000000000000000000000060016118076108a6565b81518151811461197e576040517f6582533600000000000000000000000000000000000000000000000000000000815260040160405180910390fd5b8060000361198c5750505050565b6000805b82811015611b045760008582815181106119ac576119ac613341565b60200260200101519050600073ffffffffffffffffffffffffffffffffffffffff168173ffffffffffffffffffffffffffffffffffffffff1603611a1c576040517f92fd9c8f00000000000000000000000000000000000000000000000000000000815260040160405180910390fd5b6000858381518110611a3057611a30613341565b6020026020010151905080600014611aac57838101848111611a7e576040517f5542ae7c00000000000000000000000000000000000000000000000000000000815260040160405180910390fd5b73ffffffffffffffffffffffffffffffffffffffff8316600090815260208a90526040902080548301905593505b60405181815273ffffffffffffffffffffffffffffffffffffffff8316906000907fddf252ad1be2c89b69c2b068fc378daa952ba7f163c4a11628f55a4df523b3ef9060200160405180910390a35050600101611990565b508015610bd1576002850154818101818111611b56576040517f0366a5f60000000000000000000000000000000000000000000000000000000081526004810183905260248101849052604401610b0b565b6002870155505050505050565b60608160010180546109ed906132ee565b73ffffffffffffffffffffffffffffffffffffffff8216611bd9576040517ff7e1ac0f00000000000000000000000000000000000000000000000000000000815273ffffffffffffffffffffffffffffffffffffffff84166004820152602401610b0b565b73ffffffffffffffffffffffffffffffffffffffff80841660009081526001860160209081526040808320938616835292905220547fffffffffffffffffffffffffffffffffffffffffffffffffffffffffffffffff8114801590611c3d57508115155b15610db757818103818110610d7d576040517f137ad6ab00000000000000000000000000000000000000000000000000000000815273ffffffffffffffffffffffffffffffffffffffff8087166004830152851660248201526044810183905260648101849052608401610b0b565b73ffffffffffffffffffffffffffffffffffffffff8216611d11576040517f754f425b00000000000000000000000000000000000000000000000000000000815273ffffffffffffffffffffffffffffffffffffffff84166004820152602401610b0b565b8015611e0c5773ffffffffffffffffffffffffffffffffffffffff8316600090815260208590526040902054818103818110611d9f576040517fe450d38c00000000000000000000000000000000000000000000000000000000815273ffffffffffffffffffffffffffffffffffffffff861660048201526024810183905260448101849052606401610b0b565b8373ffffffffffffffffffffffffffffffffffffffff168573ffffffffffffffffffffffffffffffffffffffff1614611e095773ffffffffffffffffffffffffffffffffffffffff8086166000908152602088905260408082208490559186168152208054840190555b50505b8173ffffffffffffffffffffffffffffffffffffffff168373ffffffffffffffffffffffffffffffffffffffff167fddf252ad1be2c89b69c2b068fc378daa952ba7f163c4a11628f55a4df523b3ef83604051610b7891815260200190565b611e788787878787610b86565b73ffffffffffffffffffffffffffffffffffffffff84163b156107ca576107ca8686868686868080601f0160208091040260200160405190810160405280939291908181526020018383808284376000920191909152506129d292505050565b848381141580611ee85750808214155b15611f1f576040517f6582533600000000000000000000000000000000000000000000000000000000815260040160405180910390fd5b60005b818110156113a7576000868683818110611f3e57611f3e613341565b9050602002016020810190611f539190612ea1565b6040517f01ffc9a70000000000000000000000000000000000000000000000000000000081527f80ac58cd00000000000000000000000000000000000000000000000000000000600482015290915073ffffffffffffffffffffffffffffffffffffffff8216906301ffc9a790602401602060405180830381865afa158015611fe0573d6000803e3d6000fd5b505050506040513d601f19601f820116820180604052508101906120049190613500565b612052576040517f986b9f1f00000000000000000000000000000000000000000000000000000000815273ffffffffffffffffffffffffffffffffffffffff82166004820152602401610b0b565b86868381811061206457612064613341565b90506020020160208101906120799190612ea1565b73ffffffffffffffffffffffffffffffffffffffff166342842e0e308b8b868181106120a7576120a7613341565b90506020020160208101906120bc9190612ea1565b8888878181106120ce576120ce613341565b6040517fffffffff0000000000000000000000000000000000000000000000000000000060e088901b16815273ffffffffffffffffffffffffffffffffffffffff958616600482015294909316602485015250602090910201356044820152606401600060405180830381600087803b15801561214a57600080fd5b505af115801561215e573d6000803e3d6000fd5b5050505050806001019050611f22565b73ffffffffffffffffffffffffffffffffffffffff87166121bb576040517fa974697600000000000000000000000000000000000000000000000000000000815260040160405180910390fd5b834211156121f8576040517fea2b6f5800000000000000000000000000000000000000000000000000000000815260048101859052602401610b0b565b73ffffffffffffffffffffffffffffffffffffffff878116600081815260208b8152604080832080546001810190915581517f6e71edae12b1b97f4d1f60370fef10105fa2faae0126114a169c64845d6126c98185015280830195909552948b166060850152608084018a905260a084019490945260c08084018990528451808503909101815260e09093019093528151919092012090612297610bd8565b6040517f19010000000000000000000000000000000000000000000000000000000000006020820152602281019190915260428101839052606201604080517fffffffffffffffffffffffffffffffffffffffffffffffffffffffffffffffe08184030181528282528051602091820120600080855291840180845281905260ff89169284019290925260608301879052608083018690529092509060019060a0016020604051602081039080840390855afa15801561235b573d6000803e3d6000fd5b5050506020604051035190508973ffffffffffffffffffffffffffffffffffffffff168173ffffffffffffffffffffffffffffffffffffffff16146123cc576040517f822a64c800000000000000000000000000000000000000000000000000000000815260040160405180910390fd5b5050506113a78787876104a8610a7c565b826108a08284836133e6565b6123f586868686611cac565b73ffffffffffffffffffffffffffffffffffffffff84163b156105d5576105d58586868686868080601f0160208091040260200160405190810160405280939291908181526020018383808284376000920191909152506129d292505050565b825473ffffffffffffffffffffffffffffffffffffffff90811690831681146124c2576040517f2ef4875e00000000000000000000000000000000000000000000000000000000815273ffffffffffffffffffffffffffffffffffffffff84166004820152602401610b0b565b8173ffffffffffffffffffffffffffffffffffffffff168173ffffffffffffffffffffffffffffffffffffffff16146108a05783547fffffffffffffffffffffffff00000000000000000000000000000000000000001673ffffffffffffffffffffffffffffffffffffffff8381169182178655604051908316907f8be0079c531659141344cd1fd0a4f28419497f9722a3daafe3b4186f6b6457e090600090a350505050565b828181146125a3576040517f6582533600000000000000000000000000000000000000000000000000000000815260040160405180910390fd5b60005b818110156105d55761260d8484838181106125c3576125c3613341565b905060200201358787848181106125dc576125dc613341565b90506020020160208101906125f19190612ea1565b73ffffffffffffffffffffffffffffffffffffffff1690612ae0565b6001016125a6565b6000333214806126255750601836105b1561262f57503390565b7fffffffffffffffffffffffffffffffffffffffffffffffffffffffffffffffec36013560601c7f000000000000000000000000000000000000000000000000000000000000000073ffffffffffffffffffffffffffffffffffffffff1633148061275157506040517f019a202800000000000000000000000000000000000000000000000000000000815273ffffffffffffffffffffffffffffffffffffffff82811660048301523360248301523060448301527f0000000000000000000000000000000000000000000000000000000000000000169063019a202890606401602060405180830381865afa15801561272d573d6000803e3d6000fd5b505050506040513d601f19601f820116820180604052508101906127519190613500565b1561275b57919050565b3391505090565b6040805173ffffffffffffffffffffffffffffffffffffffff8416602482015260448082018490528251808303909101815260649091019091526020810180517bffffffffffffffffffffffffffffffffffffffffffffffffffffffff167fa9059cbb000000000000000000000000000000000000000000000000000000001790526127ef908490612b96565b505050565b8154829082811061283b576040517fbf0c18ec0000000000000000000000000000000000000000000000000000000081526004810182905260248101849052604401610b0b565b505550565b73ffffffffffffffffffffffffffffffffffffffff8116156128c85781547fffffffffffffffffffffffff00000000000000000000000000000000000000001673ffffffffffffffffffffffffffffffffffffffff821690811783556040516000907f8be0079c531659141344cd1fd0a4f28419497f9722a3daafe3b4186f6b6457e0908290a35b6108447f7f5828d00000000000000000000000000000000000000000000000000000000060016118076108a6565b7c01000000000000000000000000000000000000000000000000000000007fffffffff0000000000000000000000000000000000000000000000000000000083160161296e576040517f72c683bb00000000000000000000000000000000000000000000000000000000815260040160405180910390fd5b7fffffffff00000000000000000000000000000000000000000000000000000000919091166000908152602092909252604090912080547fffffffffffffffffffffffffffffffffffffffffffffffffffffffffffffff0016911515919091179055565b6040517f4fc35859000000000000000000000000000000000000000000000000000000008082529073ffffffffffffffffffffffffffffffffffffffff851690634fc3585990612a2c908990899088908890600401613522565b6020604051808303816000875af1158015612a4b573d6000803e3d6000fd5b505050506040513d601f19601f82011682018060405250810190612a6f919061357d565b7fffffffff000000000000000000000000000000000000000000000000000000001614610bd1576040517f6d44973600000000000000000000000000000000000000000000000000000000815273ffffffffffffffffffffffffffffffffffffffff84166004820152602401610b0b565b80471015612b23576040517fcf47918100000000000000000000000000000000000000000000000000000000815247600482015260248101829052604401610b0b565b6000808373ffffffffffffffffffffffffffffffffffffffff168360405160006040518083038185875af1925050503d8060008114612b7e576040519150601f19603f3d011682016040523d82523d6000602084013e612b83565b606091505b5091509150816108a0576108a081612c3a565b600080602060008451602086016000885af180612bb9576040513d6000823e3d81fd5b50506000513d91508115612bd1578060011415612beb565b73ffffffffffffffffffffffffffffffffffffffff84163b155b156108a0576040517f5274afe700000000000000000000000000000000000000000000000000000000815273ffffffffffffffffffffffffffffffffffffffff85166004820152602401610b0b565b805115612c4a5780518082602001fd5b6040517fd6bda27500000000000000000000000000000000000000000000000000000000815260040160405180910390fd5b7fffffffff000000000000000000000000000000000000000000000000000000008116811461088657600080fd5b600060208284031215612cbc57600080fd5b813561081e81612c7c565b6000815180845260005b81811015612ced57602081850181015186830182015201612cd1565b5060006020828601015260207fffffffffffffffffffffffffffffffffffffffffffffffffffffffffffffffe0601f83011685010191505092915050565b60208152600061081e6020830184612cc7565b73ffffffffffffffffffffffffffffffffffffffff8116811461088657600080fd5b60008060408385031215612d7357600080fd5b8235612d7e81612d3e565b946020939093013593505050565b600080600060608486031215612da157600080fd5b8335612dac81612d3e565b92506020840135612dbc81612d3e565b929592945050506040919091013590565b60008083601f840112612ddf57600080fd5b50813567ffffffffffffffff811115612df757600080fd5b6020830191508360208260051b8501011115612e1257600080fd5b9250929050565b600080600080600060608688031215612e3157600080fd5b8535612e3c81612d3e565b9450602086013567ffffffffffffffff811115612e5857600080fd5b612e6488828901612dcd565b909550935050604086013567ffffffffffffffff811115612e8457600080fd5b612e9088828901612dcd565b969995985093965092949392505050565b600060208284031215612eb357600080fd5b813561081e81612d3e565b60008060008060008060608789031215612ed757600080fd5b863567ffffffffffffffff811115612eee57600080fd5b612efa89828a01612dcd565b909750955050602087013567ffffffffffffffff811115612f1a57600080fd5b612f2689828a01612dcd565b909550935050604087013567ffffffffffffffff811115612f4657600080fd5b612f5289828a01612dcd565b979a9699509497509295939492505050565b60008060008060408587031215612f7a57600080fd5b843567ffffffffffffffff811115612f9157600080fd5b612f9d87828801612dcd565b909550935050602085013567ffffffffffffffff811115612fbd57600080fd5b612fc987828801612dcd565b95989497509550505050565b60008083601f840112612fe757600080fd5b50813567ffffffffffffffff811115612fff57600080fd5b602083019150836020828501011115612e1257600080fd5b803560ff8116811461302857600080fd5b919050565b600080600080600080600080600060a08a8c03121561304b57600080fd5b893567ffffffffffffffff81111561306257600080fd5b61306e8c828d01612fd5565b909a5098505060208a013567ffffffffffffffff81111561308e57600080fd5b61309a8c828d01612fd5565b90985096506130ad905060408b01613017565b945060608a013567ffffffffffffffff8111156130c957600080fd5b6130d58c828d01612dcd565b90955093505060808a013567ffffffffffffffff8111156130f557600080fd5b6131018c828d01612dcd565b915080935050809150509295985092959850929598565b60008060008060006080868803121561313057600080fd5b853561313b81612d3e565b9450602086013561314b81612d3e565b935060408601359250606086013567ffffffffffffffff81111561316e57600080fd5b612e9088828901612fd5565b600080600080600080600060e0888a03121561319557600080fd5b87356131a081612d3e565b965060208801356131b081612d3e565b955060408801359450606088013593506131cc60808901613017565b9699959850939692959460a0840135945060c09093013592915050565b600080604083850312156131fc57600080fd5b823561320781612d3e565b9150602083013561321781612d3e565b809150509250929050565b6000806020838503121561323557600080fd5b823567ffffffffffffffff81111561324c57600080fd5b61325885828601612fd5565b90969095509350505050565b6000806000806060858703121561327a57600080fd5b843561328581612d3e565b935060208501359250604085013567ffffffffffffffff8111156132a857600080fd5b612fc987828801612fd5565b81810381811115610474577f4e487b7100000000000000000000000000000000000000000000000000000000600052601160045260246000fd5b600181811c9082168061330257607f821691505b60208210810361333b577f4e487b7100000000000000000000000000000000000000000000000000000000600052602260045260246000fd5b50919050565b7f4e487b7100000000000000000000000000000000000000000000000000000000600052603260045260246000fd5b7f4e487b7100000000000000000000000000000000000000000000000000000000600052604160045260246000fd5b601f8211156127ef57806000526020600020601f840160051c810160208510156133c65750805b601f840160051c820191505b81811015610bd157600081556001016133d2565b67ffffffffffffffff8311156133fe576133fe613370565b6134128361340c83546132ee565b8361339f565b6000601f841160018114613464576000851561342e5750838201355b7fffffffffffffffffffffffffffffffffffffffffffffffffffffffffffffffff600387901b1c1916600186901b178355610bd1565b6000838152602090207fffffffffffffffffffffffffffffffffffffffffffffffffffffffffffffffe0861690835b828110156134b35786850135825560209485019460019092019101613493565b50868210156134ee577fffffffffffffffffffffffffffffffffffffffffffffffffffffffffffffffff60f88860031b161c19848701351681555b505060018560011b0183555050505050565b60006020828403121561351257600080fd5b8151801515811461081e57600080fd5b73ffffffffffffffffffffffffffffffffffffffff8516815273ffffffffffffffffffffffffffffffffffffffff841660208201528260408201526080606082015260006135736080830184612cc7565b9695505050505050565b60006020828403121561358f57600080fd5b815161081e81612c7c56fea2646970667358221220aa2256ac782978ad26cbdd79cd1793a4a294cec11393dfef13426d3d00cf7d1164736f6c634300081c0033",
  "linkReferences": {},
  "deployedLinkReferences": {}
}