{
  "_format": "hh-sol-artifact-1",
  "contractName": "ERC20FixedSupplyProxied",
  "sourceName": "contracts/token/ERC20/preset/proxied/ERC20FixedSupplyProxied.sol",
  "abi": [
    {
      "inputs": [
        {
          "internalType": "contract IForwarderRegistry",
          "name": "forwarderRegistry",
          "type": "address"
        }
      ],
      "stateMutability": "nonpayable",
      "type": "constructor"
    },
    {
      "inputs": [
        {
          "internalType": "address",
          "name": "owner",
          "type": "address"
        },
        {
          "internalType": "address",
          "name": "spender",
          "type": "address"
        },
        {
          "internalType": "uint256",
          "name": "allowance",
          "type": "uint256"
        },
        {
          "internalType": "uint256",
          "name": "increment",
          "type": "uint256"
        }
      ],
      "name": "ERC20AllowanceOverflow",
      "type": "error"
    },
    {
      "inputs": [
        {
          "internalType": "address",
          "name": "owner",
          "type": "address"
        }
      ],
      "name": "ERC20ApprovalToAddressZero",
      "type": "error"
    },
    {
      "inputs": [],
      "name": "ERC20BatchMintValuesOverflow",
      "type": "error"
    },
    {
      "inputs": [],
      "name": "ERC20BatchTransferValuesOverflow",
      "type": "error"
    },
    {
      "inputs": [
        {
          "internalType": "address",
          "name": "owner",
          "type": "address"
        },
        {
          "internalType": "address",
          "name": "spender",
          "type": "address"
        },
        {
          "internalType": "uint256",
          "name": "allowance",
          "type": "uint256"
        },
        {
          "internalType": "uint256",
          "name": "decrement",
          "type": "uint256"
        }
      ],
      "name": "ERC20InsufficientAllowance",
      "type": "error"
    },
    {
      "inputs": [
        {
          "internalType": "address",
          "name": "owner",
          "type": "address"
        },
        {
          "internalType": "uint256",
          "name": "balance",
          "type": "uint256"
        },
        {
          "internalType": "uint256",
          "name": "value",
          "type": "uint256"
        }
      ],
      "name": "ERC20InsufficientBalance",
      "type": "error"
    },
    {
      "inputs": [],
      "name": "ERC20MintToAddressZero",
      "type": "error"
    },
    {
      "inputs": [
        {
          "internalType": "uint256",
          "name": "deadline",
          "type": "uint256"
        }
      ],
      "name": "ERC20PermitExpired",
      "type": "error"
    },
    {
      "inputs": [],
      "name": "ERC20PermitFromAddressZero",
      "type": "error"
    },
    {
      "inputs": [],
      "name": "ERC20PermitInvalidSignature",
      "type": "error"
    },
    {
      "inputs": [
        {
          "internalType": "address",
          "name": "recipient",
          "type": "address"
        }
      ],
      "name": "ERC20SafeTransferRejected",
      "type": "error"
    },
    {
      "inputs": [
        {
          "internalType": "uint256",
          "name": "supply",
          "type": "uint256"
        },
        {
          "internalType": "uint256",
          "name": "value",
          "type": "uint256"
        }
      ],
      "name": "ERC20TotalSupplyOverflow",
      "type": "error"
    },
    {
      "inputs": [
        {
          "internalType": "address",
          "name": "owner",
          "type": "address"
        }
      ],
      "name": "ERC20TransferToAddressZero",
      "type": "error"
    },
    {
      "inputs": [],
      "name": "IllegalInterfaceId",
      "type": "error"
    },
    {
      "inputs": [],
      "name": "InconsistentArrayLengths",
      "type": "error"
    },
    {
      "inputs": [
        {
          "internalType": "uint256",
          "name": "currentPhase",
          "type": "uint256"
        },
        {
          "internalType": "uint256",
          "name": "newPhase",
          "type": "uint256"
        }
      ],
      "name": "InitializationPhaseAlreadyReached",
      "type": "error"
    },
    {
      "inputs": [
        {
          "internalType": "address",
          "name": "account",
          "type": "address"
        }
      ],
      "name": "NotContractOwner",
      "type": "error"
    },
    {
      "anonymous": false,
      "inputs": [
        {
          "indexed": true,
          "internalType": "address",
          "name": "owner",
          "type": "address"
        },
        {
          "indexed": true,
          "internalType": "address",
          "name": "spender",
          "type": "address"
        },
        {
          "indexed": false,
          "internalType": "uint256",
          "name": "value",
          "type": "uint256"
        }
      ],
      "name": "Approval",
      "type": "event"
    },
    {
      "anonymous": false,
      "inputs": [
        {
          "indexed": true,
          "internalType": "address",
          "name": "previousOwner",
          "type": "address"
        },
        {
          "indexed": true,
          "internalType": "address",
          "name": "newOwner",
          "type": "address"
        }
      ],
      "name": "OwnershipTransferred",
      "type": "event"
    },
    {
      "anonymous": false,
      "inputs": [
        {
          "indexed": true,
          "internalType": "address",
          "name": "from",
          "type": "address"
        },
        {
          "indexed": true,
          "internalType": "address",
          "name": "to",
          "type": "address"
        },
        {
          "indexed": false,
          "internalType": "uint256",
          "name": "value",
          "type": "uint256"
        }
      ],
      "name": "Transfer",
      "type": "event"
    },
    {
      "inputs": [],
      "name": "DOMAIN_SEPARATOR",
      "outputs": [
        {
          "internalType": "bytes32",
          "name": "",
          "type": "bytes32"
        }
      ],
      "stateMutability": "view",
      "type": "function"
    },
    {
      "inputs": [
        {
          "internalType": "address",
          "name": "owner",
          "type": "address"
        },
        {
          "internalType": "address",
          "name": "spender",
          "type": "address"
        }
      ],
      "name": "allowance",
      "outputs": [
        {
          "internalType": "uint256",
          "name": "value",
          "type": "uint256"
        }
      ],
      "stateMutability": "view",
      "type": "function"
    },
    {
      "inputs": [
        {
          "internalType": "address",
          "name": "spender",
          "type": "address"
        },
        {
          "internalType": "uint256",
          "name": "value",
          "type": "uint256"
        }
      ],
      "name": "approve",
      "outputs": [
        {
          "internalType": "bool",
          "name": "result",
          "type": "bool"
        }
      ],
      "stateMutability": "nonpayable",
      "type": "function"
    },
    {
      "inputs": [
        {
          "internalType": "address",
          "name": "owner",
          "type": "address"
        }
      ],
      "name": "balanceOf",
      "outputs": [
        {
          "internalType": "uint256",
          "name": "balance",
          "type": "uint256"
        }
      ],
      "stateMutability": "view",
      "type": "function"
    },
    {
      "inputs": [
        {
          "internalType": "address[]",
          "name": "recipients",
          "type": "address[]"
        },
        {
          "internalType": "uint256[]",
          "name": "values",
          "type": "uint256[]"
        }
      ],
      "name": "batchTransfer",
      "outputs": [
        {
          "internalType": "bool",
          "name": "",
          "type": "bool"
        }
      ],
      "stateMutability": "nonpayable",
      "type": "function"
    },
    {
      "inputs": [
        {
          "internalType": "address",
          "name": "from",
          "type": "address"
        },
        {
          "internalType": "address[]",
          "name": "recipients",
          "type": "address[]"
        },
        {
          "internalType": "uint256[]",
          "name": "values",
          "type": "uint256[]"
        }
      ],
      "name": "batchTransferFrom",
      "outputs": [
        {
          "internalType": "bool",
          "name": "",
          "type": "bool"
        }
      ],
      "stateMutability": "nonpayable",
      "type": "function"
    },
    {
      "inputs": [],
      "name": "decimals",
      "outputs": [
        {
          "internalType": "uint8",
          "name": "",
          "type": "uint8"
        }
      ],
      "stateMutability": "view",
      "type": "function"
    },
    {
      "inputs": [
        {
          "internalType": "address",
          "name": "spender",
          "type": "address"
        },
        {
          "internalType": "uint256",
          "name": "subtractedValue",
          "type": "uint256"
        }
      ],
      "name": "decreaseAllowance",
      "outputs": [
        {
          "internalType": "bool",
          "name": "result",
          "type": "bool"
        }
      ],
      "stateMutability": "nonpayable",
      "type": "function"
    },
    {
      "inputs": [],
      "name": "forwarderRegistry",
      "outputs": [
        {
          "internalType": "contract IForwarderRegistry",
          "name": "",
          "type": "address"
        }
      ],
      "stateMutability": "view",
      "type": "function"
    },
    {
      "inputs": [
        {
          "internalType": "address",
          "name": "spender",
          "type": "address"
        },
        {
          "internalType": "uint256",
          "name": "addedValue",
          "type": "uint256"
        }
      ],
      "name": "increaseAllowance",
      "outputs": [
        {
          "internalType": "bool",
          "name": "result",
          "type": "bool"
        }
      ],
      "stateMutability": "nonpayable",
      "type": "function"
    },
    {
      "inputs": [
        {
          "internalType": "string",
          "name": "tokenName",
          "type": "string"
        },
        {
          "internalType": "string",
          "name": "tokenSymbol",
          "type": "string"
        },
        {
          "internalType": "uint8",
          "name": "tokenDecimals",
          "type": "uint8"
        },
        {
          "internalType": "address[]",
          "name": "holders",
          "type": "address[]"
        },
        {
          "internalType": "uint256[]",
          "name": "allocations",
          "type": "uint256[]"
        }
      ],
      "name": "init",
      "outputs": [],
      "stateMutability": "nonpayable",
      "type": "function"
    },
    {
      "inputs": [
        {
          "internalType": "address",
          "name": "forwarder",
          "type": "address"
        }
      ],
      "name": "isTrustedForwarder",
      "outputs": [
        {
          "internalType": "bool",
          "name": "",
          "type": "bool"
        }
      ],
      "stateMutability": "view",
      "type": "function"
    },
    {
      "inputs": [],
      "name": "name",
      "outputs": [
        {
          "internalType": "string",
          "name": "",
          "type": "string"
        }
      ],
      "stateMutability": "view",
      "type": "function"
    },
    {
      "inputs": [
        {
          "internalType": "address",
          "name": "owner",
          "type": "address"
        }
      ],
      "name": "nonces",
      "outputs": [
        {
          "internalType": "uint256",
          "name": "",
          "type": "uint256"
        }
      ],
      "stateMutability": "view",
      "type": "function"
    },
    {
      "inputs": [],
      "name": "owner",
      "outputs": [
        {
          "internalType": "address",
          "name": "",
          "type": "address"
        }
      ],
      "stateMutability": "view",
      "type": "function"
    },
    {
      "inputs": [
        {
          "internalType": "address",
          "name": "owner",
          "type": "address"
        },
        {
          "internalType": "address",
          "name": "spender",
          "type": "address"
        },
        {
          "internalType": "uint256",
          "name": "value",
          "type": "uint256"
        },
        {
          "internalType": "uint256",
          "name": "deadline",
          "type": "uint256"
        },
        {
          "internalType": "uint8",
          "name": "v",
          "type": "uint8"
        },
        {
          "internalType": "bytes32",
          "name": "r",
          "type": "bytes32"
        },
        {
          "internalType": "bytes32",
          "name": "s",
          "type": "bytes32"
        }
      ],
      "name": "permit",
      "outputs": [],
      "stateMutability": "nonpayable",
      "type": "function"
    },
    {
      "inputs": [
        {
          "internalType": "address[]",
          "name": "accounts",
          "type": "address[]"
        },
        {
          "internalType": "contract IERC20[]",
          "name": "tokens",
          "type": "address[]"
        },
        {
          "internalType": "uint256[]",
          "name": "amounts",
          "type": "uint256[]"
        }
      ],
      "name": "recoverERC20s",
      "outputs": [],
      "stateMutability": "nonpayable",
      "type": "function"
    },
    {
      "inputs": [
        {
          "internalType": "address[]",
          "name": "accounts",
          "type": "address[]"
        },
        {
          "internalType": "contract IERC721[]",
          "name": "contracts",
          "type": "address[]"
        },
        {
          "internalType": "uint256[]",
          "name": "tokenIds",
          "type": "uint256[]"
        }
      ],
      "name": "recoverERC721s",
      "outputs": [],
      "stateMutability": "nonpayable",
      "type": "function"
    },
    {
      "inputs": [
        {
          "internalType": "address payable[]",
          "name": "accounts",
          "type": "address[]"
        },
        {
          "internalType": "uint256[]",
          "name": "amounts",
          "type": "uint256[]"
        }
      ],
      "name": "recoverETH",
      "outputs": [],
      "stateMutability": "nonpayable",
      "type": "function"
    },
    {
      "inputs": [
        {
          "internalType": "address",
          "name": "to",
          "type": "address"
        },
        {
          "internalType": "uint256",
          "name": "value",
          "type": "uint256"
        },
        {
          "internalType": "bytes",
          "name": "data",
          "type": "bytes"
        }
      ],
      "name": "safeTransfer",
      "outputs": [
        {
          "internalType": "bool",
          "name": "",
          "type": "bool"
        }
      ],
      "stateMutability": "nonpayable",
      "type": "function"
    },
    {
      "inputs": [
        {
          "internalType": "address",
          "name": "from",
          "type": "address"
        },
        {
          "internalType": "address",
          "name": "to",
          "type": "address"
        },
        {
          "internalType": "uint256",
          "name": "value",
          "type": "uint256"
        },
        {
          "internalType": "bytes",
          "name": "data",
          "type": "bytes"
        }
      ],
      "name": "safeTransferFrom",
      "outputs": [
        {
          "internalType": "bool",
          "name": "",
          "type": "bool"
        }
      ],
      "stateMutability": "nonpayable",
      "type": "function"
    },
    {
      "inputs": [
        {
          "internalType": "string",
          "name": "uri",
          "type": "string"
        }
      ],
      "name": "setTokenURI",
      "outputs": [],
      "stateMutability": "nonpayable",
      "type": "function"
    },
    {
      "inputs": [
        {
          "internalType": "bytes4",
          "name": "interfaceId",
          "type": "bytes4"
        }
      ],
      "name": "supportsInterface",
      "outputs": [
        {
          "internalType": "bool",
          "name": "",
          "type": "bool"
        }
      ],
      "stateMutability": "view",
      "type": "function"
    },
    {
      "inputs": [],
      "name": "symbol",
      "outputs": [
        {
          "internalType": "string",
          "name": "",
          "type": "string"
        }
      ],
      "stateMutability": "view",
      "type": "function"
    },
    {
      "inputs": [],
      "name": "tokenURI",
      "outputs": [
        {
          "internalType": "string",
          "name": "",
          "type": "string"
        }
      ],
      "stateMutability": "view",
      "type": "function"
    },
    {
      "inputs": [],
      "name": "totalSupply",
      "outputs": [
        {
          "internalType": "uint256",
          "name": "supply",
          "type": "uint256"
        }
      ],
      "stateMutability": "view",
      "type": "function"
    },
    {
      "inputs": [
        {
          "internalType": "address",
          "name": "to",
          "type": "address"
        },
        {
          "internalType": "uint256",
          "name": "value",
          "type": "uint256"
        }
      ],
      "name": "transfer",
      "outputs": [
        {
          "internalType": "bool",
          "name": "result",
          "type": "bool"
        }
      ],
      "stateMutability": "nonpayable",
      "type": "function"
    },
    {
      "inputs": [
        {
          "internalType": "address",
          "name": "from",
          "type": "address"
        },
        {
          "internalType": "address",
          "name": "to",
          "type": "address"
        },
        {
          "internalType": "uint256",
          "name": "value",
          "type": "uint256"
        }
      ],
      "name": "transferFrom",
      "outputs": [
        {
          "internalType": "bool",
          "name": "result",
          "type": "bool"
        }
      ],
      "stateMutability": "nonpayable",
      "type": "function"
    },
    {
      "inputs": [
        {
          "internalType": "address",
          "name": "newOwner",
          "type": "address"
        }
      ],
      "name": "transferOwnership",
      "outputs": [],
      "stateMutability": "nonpayable",
      "type": "function"
    }
  ],
  "bytecode": "0x60a060405234801562000010575f80fd5b506040516200365638038062003656833981016040819052620000339162000045565b6001600160a01b031660805262000074565b5f6020828403121562000056575f80fd5b81516001600160a01b03811681146200006d575f80fd5b9392505050565b6080516135b4620000a25f395f8181610245015281816102ea0152818161266e01526126f601526135b45ff3fe608060405234801561000f575f80fd5b50600436106101c6575f3560e01c80637ecebe00116100fe578063b88d4fde1161009e578063e0df5b6f1161006e578063e0df5b6f1461040a578063eb7955491461041d578063f2fde38b14610430578063f7ba94bd14610443575f80fd5b8063b88d4fde146103be578063c3666c36146103d1578063d505accf146103e4578063dd62ed3e146103f7575f80fd5b80638da5cb5b116100d95780638da5cb5b1461038857806395d89b4114610390578063a457c2d714610398578063a9059cbb146103ab575f80fd5b80637ecebe001461034f57806388d695b2146103625780638a6d57b614610375575f80fd5b80633644e515116101695780634885b254116101445780634885b254146102c7578063572b6c05146102da57806370a082311461032757806373c8a9581461033a575f80fd5b80633644e515146102a457806339509351146102ac5780633c130d90146102bf575f80fd5b806318160ddd116101a457806318160ddd1461021a57806323b872dd146102305780632b4c9f1614610243578063313ce5671461028a575f80fd5b806301ffc9a7146101ca57806306fdde03146101f2578063095ea7b314610207575b5f80fd5b6101dd6101d8366004612cfc565b610456565b60405190151581526020015b60405180910390f35b6101fa61046f565b6040516101e99190612d82565b6101dd610215366004612db5565b610486565b6102226104ad565b6040519081526020016101e9565b6101dd61023e366004612ddf565b6104c0565b7f00000000000000000000000000000000000000000000000000000000000000005b60405173ffffffffffffffffffffffffffffffffffffffff90911681526020016101e9565b6102926104ea565b60405160ff90911681526020016101e9565b610222610500565b6101dd6102ba366004612db5565b610509565b6101fa610527565b6101dd6102d5366004612e65565b610534565b6101dd6102e8366004612ee2565b7f000000000000000000000000000000000000000000000000000000000000000073ffffffffffffffffffffffffffffffffffffffff90811691161490565b610222610335366004612ee2565b610564565b61034d610348366004612efd565b61059a565b005b61022261035d366004612ee2565b61069c565b6101dd610370366004612f90565b6106a9565b61034d61038336600461304a565b6106d7565b6102656107b3565b6101fa6107d9565b6101dd6103a6366004612db5565b6107eb565b6101dd6103b9366004612db5565b610809565b6101dd6103cc36600461311a565b610827565b61034d6103df366004612efd565b61084b565b61034d6103f2366004613177565b6109bc565b6102226104053660046131e0565b6109e3565b61034d610418366004613217565b610a33565b6101dd61042b366004613256565b610a56565b61034d61043e366004612ee2565b610a78565b61034d610451366004612f90565b610a96565b5f61046982610463610b53565b90610b80565b92915050565b606061048161047c610c57565b610c84565b905090565b5f6104a4610492610d17565b848461049c610d20565b929190610d4d565b50600192915050565b5f6104816104b9610d20565b6002015490565b5f6104e06104cc610d17565b8585856104d7610d20565b93929190610e28565b5060019392505050565b5f6104816104f6610c57565b6002015460ff1690565b5f610481610e7a565b5f6104a4610515610d17565b848461051f610d20565b929190610f14565b606061048161047c6110c4565b5f610558610540610d17565b878787878761054d610d20565b9594939291906110f1565b50600195945050505050565b5f61046982610571610d20565b9073ffffffffffffffffffffffffffffffffffffffff165f908152602091909152604090205490565b6105b36105a5610d17565b6105ad6114a1565b906114ce565b8483811415806105c35750808214155b156105fa576040517f6582533600000000000000000000000000000000000000000000000000000000815260040160405180910390fd5b5f5b8181146106925761068a888883818110610618576106186132a2565b905060200201602081019061062d9190612ee2565b85858481811061063f5761063f6132a2565b90506020020135888885818110610658576106586132a2565b905060200201602081019061066d9190612ee2565b73ffffffffffffffffffffffffffffffffffffffff169190611539565b6001016105fc565b5050505050505050565b5f610469826105716115cb565b5f6106cb6106b5610d17565b868686866106c1610d20565b94939291906115f8565b5060015b949350505050565b6106f06106e2610d17565b6106ea6114a1565b90611947565b6106f8611986565b6107006119e9565b610708611a20565b6107228989898989610718610c57565b9493929190611a4e565b61072a611af6565b610732611b24565b6107a88484808060200260200160405190810160405280939291908181526020018383602002808284375f92019190915250506040805160208088028281018201909352878252909350879250869182918501908490808284375f920191909152506107a19250610d20915050565b9190611b52565b505050505050505050565b5f6104816107bf6114a1565b5473ffffffffffffffffffffffffffffffffffffffff1690565b60606104816107e6610c57565b611d6a565b5f6104a46107f7610d17565b8484610801610d20565b929190611d7b565b5f6104a4610815610d17565b848461081f610d20565b929190611eb2565b5f610558610833610d17565b8787878787610840610d20565b95949392919061206f565b6108566105a5610d17565b8483811415806108665750808214155b1561089d576040517f6582533600000000000000000000000000000000000000000000000000000000815260040160405180910390fd5b5f5b818114610692578585828181106108b8576108b86132a2565b90506020020160208101906108cd9190612ee2565b73ffffffffffffffffffffffffffffffffffffffff166323b872dd308a8a858181106108fb576108fb6132a2565b90506020020160208101906109109190612ee2565b878786818110610922576109226132a2565b6040517fffffffff0000000000000000000000000000000000000000000000000000000060e088901b16815273ffffffffffffffffffffffffffffffffffffffff9586166004820152949093166024850152506020909102013560448201526064015f604051808303815f87803b15801561099b575f80fd5b505af11580156109ad573d5f803e3d5ffd5b5050505080600101905061089f565b6109da878787878787876109ce6115cb565b969594939291906120db565b50505050505050565b5f610a2c83836109f1610d20565b919073ffffffffffffffffffffffffffffffffffffffff9182165f908152600193909301602090815260408085209290931684525290205490565b9392505050565b610a3e6105a5610d17565b610a528282610a4b6110c4565b9190612346565b5050565b5f6106cb610a62610d17565b86868686610a6e610d20565b9493929190612358565b610a93610a83610d17565b82610a8c6114a1565b91906123c3565b50565b610aa16105a5610d17565b82818114610adb576040517f6582533600000000000000000000000000000000000000000000000000000000815260040160405180910390fd5b5f5b818114610b4b57610b43848483818110610af957610af96132a2565b90506020020135878784818110610b1257610b126132a2565b9050602002016020810190610b279190612ee2565b73ffffffffffffffffffffffffffffffffffffffff16906124d6565b600101610add565b505050505050565b5f8061046960017fca9d3e17f264b0f3984e2634e94adb37fa3e6a8103f06aeae6fa59e21c769f5e6132cf565b5f7c01000000000000000000000000000000000000000000000000000000007fffffffff00000000000000000000000000000000000000000000000000000000831601610bce57505f610469565b7ffe003659000000000000000000000000000000000000000000000000000000007fffffffff00000000000000000000000000000000000000000000000000000000831601610c1f57506001610469565b507fffffffff00000000000000000000000000000000000000000000000000000000165f908152602091909152604090205460ff1690565b5f8061046960017f335df4119bbb04f056b33eba33b826d3529129e458faf6daa9924b5a8f3b6a826132cf565b6060815f018054610c9490613307565b80601f0160208091040260200160405190810160405280929190818152602001828054610cc090613307565b8015610d0b5780601f10610ce257610100808354040283529160200191610d0b565b820191905f5260205f20905b815481529060010190602001808311610cee57829003601f168201915b50505050509050919050565b5f61048161262c565b5f8061046960017f1da92899d3da68bf9787824388a37ea2bfa79780bcef91b9716c390eec8ecbef6132cf565b73ffffffffffffffffffffffffffffffffffffffff8216610db7576040517ff7e1ac0f00000000000000000000000000000000000000000000000000000000815273ffffffffffffffffffffffffffffffffffffffff841660048201526024015b60405180910390fd5b73ffffffffffffffffffffffffffffffffffffffff8381165f81815260018701602090815260408083209487168084529482529182902085905590518481527f8c5be1e5ebec7d5bd14f71427d1e84f3dd0314c0f7b2291e5b200ac8c7c3b92591015b60405180910390a350505050565b8373ffffffffffffffffffffffffffffffffffffffff168373ffffffffffffffffffffffffffffffffffffffff1614610e6757610e6785848684611d7b565b610e7385848484611eb2565b5050505050565b5f467f8b73c3c69bb8fe3d512ecc4cf759cc79239f7b179b0ffacaa9a75d522b39400f610ea861047c610c57565b80516020918201206040805192830193909352918101919091527fc89efdaa54c0f20c7adf612882df0950f5a951637e0307cdcb4c672f298b8bc66060820152608081018290523060a082015260c0016040516020818303038152906040528051906020012091505090565b73ffffffffffffffffffffffffffffffffffffffff8216610f79576040517ff7e1ac0f00000000000000000000000000000000000000000000000000000000815273ffffffffffffffffffffffffffffffffffffffff84166004820152602401610dae565b73ffffffffffffffffffffffffffffffffffffffff8084165f90815260018601602090815260408083209386168352929052205481156110565780820181811161101d576040517f93bc2ff100000000000000000000000000000000000000000000000000000000815273ffffffffffffffffffffffffffffffffffffffff8087166004830152851660248201526044810183905260648101849052608401610dae565b73ffffffffffffffffffffffffffffffffffffffff8086165f908152600188016020908152604080832093881683529290522081905590505b8273ffffffffffffffffffffffffffffffffffffffff168473ffffffffffffffffffffffffffffffffffffffff167f8c5be1e5ebec7d5bd14f71427d1e84f3dd0314c0f7b2291e5b200ac8c7c3b925836040516110b591815260200190565b60405180910390a35050505050565b5f8061046960017ff41bf6a5db26bffdfab174dcf66b31fbba8fdb7e3db040721ce1e62d61839ceb6132cf565b8281811461112b576040517f6582533600000000000000000000000000000000000000000000000000000000815260040160405180910390fd5b805f0361113857506109da565b73ffffffffffffffffffffffffffffffffffffffff86165f908152602089905260408120549080805b8481146113b4575f89898381811061117b5761117b6132a2565b90506020020160208101906111909190612ee2565b905073ffffffffffffffffffffffffffffffffffffffff81166111f7576040517f754f425b00000000000000000000000000000000000000000000000000000000815273ffffffffffffffffffffffffffffffffffffffff8c166004820152602401610dae565b5f88888481811061120a5761120a6132a2565b905060200201359050805f1461134357848101858111611256576040517fdedd834100000000000000000000000000000000000000000000000000000000815260040160405180910390fd5b8095508273ffffffffffffffffffffffffffffffffffffffff168d73ffffffffffffffffffffffffffffffffffffffff16146112dc57818f5f015f8573ffffffffffffffffffffffffffffffffffffffff1673ffffffffffffffffffffffffffffffffffffffff1681526020019081526020015f205f8282540192505081905550611341565b8682111561133c576040517fe450d38c00000000000000000000000000000000000000000000000000000000815273ffffffffffffffffffffffffffffffffffffffff8e1660048201526024810188905260448101839052606401610dae565b938101935b505b8173ffffffffffffffffffffffffffffffffffffffff168c73ffffffffffffffffffffffffffffffffffffffff167fddf252ad1be2c89b69c2b068fc378daa952ba7f163c4a11628f55a4df523b3ef836040516113a291815260200190565b60405180910390a35050600101611161565b5081158015906113c45750808214155b156114555781830383811061142b576040517fe450d38c00000000000000000000000000000000000000000000000000000000815273ffffffffffffffffffffffffffffffffffffffff8b1660048201526024810185905260448101849052606401610dae565b73ffffffffffffffffffffffffffffffffffffffff8a165f90815260208d90526040902090820190555b8973ffffffffffffffffffffffffffffffffffffffff168973ffffffffffffffffffffffffffffffffffffffff1614611494576114948b8a8c85611d7b565b5050505050505050505050565b5f8061046960017fc9ed16f33ab3a66c84bfd83099ccb2a8845871e2e1c1928f63797152f0fd54cd6132cf565b815473ffffffffffffffffffffffffffffffffffffffff828116911614610a52576040517f2ef4875e00000000000000000000000000000000000000000000000000000000815273ffffffffffffffffffffffffffffffffffffffff82166004820152602401610dae565b6040805173ffffffffffffffffffffffffffffffffffffffff8416602482015260448082018490528251808303909101815260649091019091526020810180517bffffffffffffffffffffffffffffffffffffffffffffffffffffffff167fa9059cbb000000000000000000000000000000000000000000000000000000001790526115c6908490612770565b505050565b5f8061046960017f93fe0ff7226b064a4a8f0b09910762afb4bc2441835792c021ffd78cd513011e6132cf565b82818114611632576040517f6582533600000000000000000000000000000000000000000000000000000000815260040160405180910390fd5b805f0361163f5750610b4b565b73ffffffffffffffffffffffffffffffffffffffff86165f908152602088905260408120549080805b84811461189a575f898983818110611682576116826132a2565b90506020020160208101906116979190612ee2565b905073ffffffffffffffffffffffffffffffffffffffff81166116fe576040517f754f425b00000000000000000000000000000000000000000000000000000000815273ffffffffffffffffffffffffffffffffffffffff8c166004820152602401610dae565b5f888884818110611711576117116132a2565b905060200201359050805f146118295784810185811161175d576040517fdedd834100000000000000000000000000000000000000000000000000000000815260040160405180910390fd5b8095508273ffffffffffffffffffffffffffffffffffffffff168d73ffffffffffffffffffffffffffffffffffffffff16146117c25773ffffffffffffffffffffffffffffffffffffffff83165f90815260208f905260409020805483019055611827565b86821115611822576040517fe450d38c00000000000000000000000000000000000000000000000000000000815273ffffffffffffffffffffffffffffffffffffffff8e1660048201526024810188905260448101839052606401610dae565b938101935b505b8173ffffffffffffffffffffffffffffffffffffffff168c73ffffffffffffffffffffffffffffffffffffffff167fddf252ad1be2c89b69c2b068fc378daa952ba7f163c4a11628f55a4df523b3ef8360405161188891815260200190565b60405180910390a35050600101611668565b5081158015906118aa5750808214155b1561193b57818303838110611911576040517fe450d38c00000000000000000000000000000000000000000000000000000000815273ffffffffffffffffffffffffffffffffffffffff8b1660048201526024810185905260448101849052606401610dae565b73ffffffffffffffffffffffffffffffffffffffff8a165f90815260208c90526040902090820190555b50505050505050505050565b61197c61197560017f5b388d90dc1312ba799f321972f13311234fa1163bcabec7cf66101c4876eb846132cf565b600161287d565b610a5282826128c9565b5f61198f610b53565b90506119bd817f36372b0700000000000000000000000000000000000000000000000000000000600161297e565b610a93817f9d07518600000000000000000000000000000000000000000000000000000000600161297e565b611a1e7fc05327e6000000000000000000000000000000000000000000000000000000006001611a17610b53565b919061297e565b565b611a1e7f53f41a97000000000000000000000000000000000000000000000000000000006001611a17610b53565b611a7c61197560017fd217496980d1cb14720b20a80af36676bbece8e5feeb5d8970a9681a2c76bb756132cf565b85611a888587836133ca565b5060018601611a988385836133ca565b506002860180547fffffffffffffffffffffffffffffffffffffffffffffffffffffffffffffff001660ff8316179055610b4b7fa219a025000000000000000000000000000000000000000000000000000000006001611a17610b53565b611a1e7f3c130d90000000000000000000000000000000000000000000000000000000006001611a17610b53565b611a1e7f9d8ff7da000000000000000000000000000000000000000000000000000000006001611a17610b53565b815181518114611b8e576040517f6582533600000000000000000000000000000000000000000000000000000000815260040160405180910390fd5b805f03611b9b5750505050565b5f805b828114611d0b575f858281518110611bb857611bb86132a2565b602002602001015190505f73ffffffffffffffffffffffffffffffffffffffff168173ffffffffffffffffffffffffffffffffffffffff1603611c27576040517f92fd9c8f00000000000000000000000000000000000000000000000000000000815260040160405180910390fd5b5f858381518110611c3a57611c3a6132a2565b60200260200101519050805f14611cb457838101848111611c87576040517f5542ae7c00000000000000000000000000000000000000000000000000000000815260040160405180910390fd5b73ffffffffffffffffffffffffffffffffffffffff83165f90815260208a90526040902080548301905593505b60405181815273ffffffffffffffffffffffffffffffffffffffff8316905f907fddf252ad1be2c89b69c2b068fc378daa952ba7f163c4a11628f55a4df523b3ef9060200160405180910390a35050600101611b9e565b508015610e73576002850154818101818111611d5d576040517f0366a5f60000000000000000000000000000000000000000000000000000000081526004810183905260248101849052604401610dae565b6002870155505050505050565b6060816001018054610c9490613307565b73ffffffffffffffffffffffffffffffffffffffff8216611de0576040517ff7e1ac0f00000000000000000000000000000000000000000000000000000000815273ffffffffffffffffffffffffffffffffffffffff84166004820152602401610dae565b73ffffffffffffffffffffffffffffffffffffffff8084165f9081526001860160209081526040808320938616835292905220547fffffffffffffffffffffffffffffffffffffffffffffffffffffffffffffffff8114801590611e4357508115155b156110565781810381811061101d576040517f137ad6ab00000000000000000000000000000000000000000000000000000000815273ffffffffffffffffffffffffffffffffffffffff8087166004830152851660248201526044810183905260648101849052608401610dae565b73ffffffffffffffffffffffffffffffffffffffff8216611f17576040517f754f425b00000000000000000000000000000000000000000000000000000000815273ffffffffffffffffffffffffffffffffffffffff84166004820152602401610dae565b80156120105773ffffffffffffffffffffffffffffffffffffffff83165f90815260208590526040902054818103818110611fa4576040517fe450d38c00000000000000000000000000000000000000000000000000000000815273ffffffffffffffffffffffffffffffffffffffff861660048201526024810183905260448101849052606401610dae565b8373ffffffffffffffffffffffffffffffffffffffff168573ffffffffffffffffffffffffffffffffffffffff161461200d5773ffffffffffffffffffffffffffffffffffffffff8086165f908152602088905260408082208490559186168152208054840190555b50505b8173ffffffffffffffffffffffffffffffffffffffff168373ffffffffffffffffffffffffffffffffffffffff167fddf252ad1be2c89b69c2b068fc378daa952ba7f163c4a11628f55a4df523b3ef83604051610e1a91815260200190565b61207c8787878787610e28565b73ffffffffffffffffffffffffffffffffffffffff84163b156109da576109da8686868686868080601f0160208091040260200160405190810160405280939291908181526020018383808284375f92019190915250612a5992505050565b73ffffffffffffffffffffffffffffffffffffffff8716612128576040517fa974697600000000000000000000000000000000000000000000000000000000815260040160405180910390fd5b83421115612165576040517fea2b6f5800000000000000000000000000000000000000000000000000000000815260048101859052602401610dae565b73ffffffffffffffffffffffffffffffffffffffff8781165f81815260208b8152604080832080546001810190915581517f6e71edae12b1b97f4d1f60370fef10105fa2faae0126114a169c64845d6126c98185015280830195909552948b166060850152608084018a905260a084019490945260c08084018990528451808503909101815260e09093019093528151919092012090612203610e7a565b6040517f19010000000000000000000000000000000000000000000000000000000000006020820152602281019190915260428101839052606201604080517fffffffffffffffffffffffffffffffffffffffffffffffffffffffffffffffe081840301815282825280516020918201205f80855291840180845281905260ff89169284019290925260608301879052608083018690529092509060019060a0016020604051602081039080840390855afa1580156122c4573d5f803e3d5ffd5b5050506020604051035190508973ffffffffffffffffffffffffffffffffffffffff168173ffffffffffffffffffffffffffffffffffffffff1614612335576040517f822a64c800000000000000000000000000000000000000000000000000000000815260040160405180910390fd5b50505061069287878761049c610d20565b826123528284836133ca565b50505050565b61236486868686611eb2565b73ffffffffffffffffffffffffffffffffffffffff84163b15610b4b57610b4b8586868686868080601f0160208091040260200160405190810160405280939291908181526020018383808284375f92019190915250612a5992505050565b825473ffffffffffffffffffffffffffffffffffffffff9081169083168114612430576040517f2ef4875e00000000000000000000000000000000000000000000000000000000815273ffffffffffffffffffffffffffffffffffffffff84166004820152602401610dae565b8173ffffffffffffffffffffffffffffffffffffffff168173ffffffffffffffffffffffffffffffffffffffff16146123525783547fffffffffffffffffffffffff00000000000000000000000000000000000000001673ffffffffffffffffffffffffffffffffffffffff8381169182178655604051908316907f8be0079c531659141344cd1fd0a4f28419497f9722a3daafe3b4186f6b6457e0905f90a350505050565b80471015612540576040517f08c379a000000000000000000000000000000000000000000000000000000000815260206004820152601d60248201527f416464726573733a20696e73756666696369656e742062616c616e63650000006044820152606401610dae565b5f8273ffffffffffffffffffffffffffffffffffffffff16826040515f6040518083038185875af1925050503d805f8114612596576040519150601f19603f3d011682016040523d82523d5f602084013e61259b565b606091505b50509050806115c6576040517f08c379a000000000000000000000000000000000000000000000000000000000815260206004820152603a60248201527f416464726573733a20756e61626c6520746f2073656e642076616c75652c207260448201527f6563697069656e74206d617920686176652072657665727465640000000000006064820152608401610dae565b5f3332148061263b5750601836105b1561264557503390565b7fffffffffffffffffffffffffffffffffffffffffffffffffffffffffffffffec36013560601c7f000000000000000000000000000000000000000000000000000000000000000073ffffffffffffffffffffffffffffffffffffffff1633148061275f57506040517f8929a8ca00000000000000000000000000000000000000000000000000000000815273ffffffffffffffffffffffffffffffffffffffff82811660048301523360248301527f00000000000000000000000000000000000000000000000000000000000000001690638929a8ca90604401602060405180830381865afa15801561273b573d5f803e3d5ffd5b505050506040513d601f19601f8201168201806040525081019061275f91906134e1565b1561276957919050565b3391505090565b5f6127d1826040518060400160405280602081526020017f5361666545524332303a206c6f772d6c6576656c2063616c6c206661696c65648152508573ffffffffffffffffffffffffffffffffffffffff16612b649092919063ffffffff16565b905080515f14806127f15750808060200190518101906127f191906134e1565b6115c6576040517f08c379a000000000000000000000000000000000000000000000000000000000815260206004820152602a60248201527f5361666545524332303a204552433230206f7065726174696f6e20646964206e60448201527f6f742073756363656564000000000000000000000000000000000000000000006064820152608401610dae565b815482908281106128c4576040517fbf0c18ec0000000000000000000000000000000000000000000000000000000081526004810182905260248101849052604401610dae565b505550565b73ffffffffffffffffffffffffffffffffffffffff8116156129505781547fffffffffffffffffffffffff00000000000000000000000000000000000000001673ffffffffffffffffffffffffffffffffffffffff821690811783556040515f907f8be0079c531659141344cd1fd0a4f28419497f9722a3daafe3b4186f6b6457e0908290a35b610a527f7f5828d0000000000000000000000000000000000000000000000000000000006001611a17610b53565b7c01000000000000000000000000000000000000000000000000000000007fffffffff000000000000000000000000000000000000000000000000000000008316016129f6576040517f72c683bb00000000000000000000000000000000000000000000000000000000815260040160405180910390fd5b7fffffffff00000000000000000000000000000000000000000000000000000000919091165f908152602092909252604090912080547fffffffffffffffffffffffffffffffffffffffffffffffffffffffffffffff0016911515919091179055565b6040517f4fc35859000000000000000000000000000000000000000000000000000000008082529073ffffffffffffffffffffffffffffffffffffffff851690634fc3585990612ab3908990899088908890600401613500565b6020604051808303815f875af1158015612acf573d5f803e3d5ffd5b505050506040513d601f19601f82011682018060405250810190612af39190613548565b7fffffffff000000000000000000000000000000000000000000000000000000001614610e73576040517f6d44973600000000000000000000000000000000000000000000000000000000815273ffffffffffffffffffffffffffffffffffffffff84166004820152602401610dae565b60606106cf84845f85855f808673ffffffffffffffffffffffffffffffffffffffff168587604051612b969190613563565b5f6040518083038185875af1925050503d805f8114612bd0576040519150601f19603f3d011682016040523d82523d5f602084013e612bd5565b606091505b5091509150612be687838387612bf1565b979650505050505050565b60608315612c865782515f03612c7f5773ffffffffffffffffffffffffffffffffffffffff85163b612c7f576040517f08c379a000000000000000000000000000000000000000000000000000000000815260206004820152601d60248201527f416464726573733a2063616c6c20746f206e6f6e2d636f6e74726163740000006044820152606401610dae565b50816106cf565b6106cf8383815115612c9b5781518083602001fd5b806040517f08c379a0000000000000000000000000000000000000000000000000000000008152600401610dae9190612d82565b7fffffffff0000000000000000000000000000000000000000000000000000000081168114610a93575f80fd5b5f60208284031215612d0c575f80fd5b8135610a2c81612ccf565b5f5b83811015612d31578181015183820152602001612d19565b50505f910152565b5f8151808452612d50816020860160208601612d17565b601f017fffffffffffffffffffffffffffffffffffffffffffffffffffffffffffffffe0169290920160200192915050565b602081525f610a2c6020830184612d39565b73ffffffffffffffffffffffffffffffffffffffff81168114610a93575f80fd5b5f8060408385031215612dc6575f80fd5b8235612dd181612d94565b946020939093013593505050565b5f805f60608486031215612df1575f80fd5b8335612dfc81612d94565b92506020840135612e0c81612d94565b929592945050506040919091013590565b5f8083601f840112612e2d575f80fd5b50813567ffffffffffffffff811115612e44575f80fd5b6020830191508360208260051b8501011115612e5e575f80fd5b9250929050565b5f805f805f60608688031215612e79575f80fd5b8535612e8481612d94565b9450602086013567ffffffffffffffff80821115612ea0575f80fd5b612eac89838a01612e1d565b90965094506040880135915080821115612ec4575f80fd5b50612ed188828901612e1d565b969995985093965092949392505050565b5f60208284031215612ef2575f80fd5b8135610a2c81612d94565b5f805f805f8060608789031215612f12575f80fd5b863567ffffffffffffffff80821115612f29575f80fd5b612f358a838b01612e1d565b90985096506020890135915080821115612f4d575f80fd5b612f598a838b01612e1d565b90965094506040890135915080821115612f71575f80fd5b50612f7e89828a01612e1d565b979a9699509497509295939492505050565b5f805f8060408587031215612fa3575f80fd5b843567ffffffffffffffff80821115612fba575f80fd5b612fc688838901612e1d565b90965094506020870135915080821115612fde575f80fd5b50612feb87828801612e1d565b95989497509550505050565b5f8083601f840112613007575f80fd5b50813567ffffffffffffffff81111561301e575f80fd5b602083019150836020828501011115612e5e575f80fd5b803560ff81168114613045575f80fd5b919050565b5f805f805f805f805f60a08a8c031215613062575f80fd5b893567ffffffffffffffff80821115613079575f80fd5b6130858d838e01612ff7565b909b50995060208c013591508082111561309d575f80fd5b6130a98d838e01612ff7565b90995097508791506130bd60408d01613035565b965060608c01359150808211156130d2575f80fd5b6130de8d838e01612e1d565b909650945060808c01359150808211156130f6575f80fd5b506131038c828d01612e1d565b915080935050809150509295985092959850929598565b5f805f805f6080868803121561312e575f80fd5b853561313981612d94565b9450602086013561314981612d94565b935060408601359250606086013567ffffffffffffffff81111561316b575f80fd5b612ed188828901612ff7565b5f805f805f805f60e0888a03121561318d575f80fd5b873561319881612d94565b965060208801356131a881612d94565b955060408801359450606088013593506131c460808901613035565b925060a0880135915060c0880135905092959891949750929550565b5f80604083850312156131f1575f80fd5b82356131fc81612d94565b9150602083013561320c81612d94565b809150509250929050565b5f8060208385031215613228575f80fd5b823567ffffffffffffffff81111561323e575f80fd5b61324a85828601612ff7565b90969095509350505050565b5f805f8060608587031215613269575f80fd5b843561327481612d94565b935060208501359250604085013567ffffffffffffffff811115613296575f80fd5b612feb87828801612ff7565b7f4e487b71000000000000000000000000000000000000000000000000000000005f52603260045260245ffd5b81810381811115610469577f4e487b71000000000000000000000000000000000000000000000000000000005f52601160045260245ffd5b600181811c9082168061331b57607f821691505b602082108103613352577f4e487b71000000000000000000000000000000000000000000000000000000005f52602260045260245ffd5b50919050565b7f4e487b71000000000000000000000000000000000000000000000000000000005f52604160045260245ffd5b601f8211156115c6575f81815260208120601f850160051c810160208610156133ab5750805b601f850160051c820191505b81811015610b4b578281556001016133b7565b67ffffffffffffffff8311156133e2576133e2613358565b6133f6836133f08354613307565b83613385565b5f601f841160018114613446575f85156134105750838201355b7fffffffffffffffffffffffffffffffffffffffffffffffffffffffffffffffff600387901b1c1916600186901b178355610e73565b5f838152602090207fffffffffffffffffffffffffffffffffffffffffffffffffffffffffffffffe0861690835b828110156134945786850135825560209485019460019092019101613474565b50868210156134cf577fffffffffffffffffffffffffffffffffffffffffffffffffffffffffffffffff60f88860031b161c19848701351681555b505060018560011b0183555050505050565b5f602082840312156134f1575f80fd5b81518015158114610a2c575f80fd5b5f73ffffffffffffffffffffffffffffffffffffffff80871683528086166020840152508360408301526080606083015261353e6080830184612d39565b9695505050505050565b5f60208284031215613558575f80fd5b8151610a2c81612ccf565b5f8251613574818460208701612d17565b919091019291505056fea264697066735822122081b5683aad303d1ab70ed844f50e887e56c5ef281d640157881687c0f433a45a64736f6c63430008150033",
  "linkReferences": {},
  "deployedLinkReferences": {}
}