{
  "_format": "hh-sol-artifact-1",
  "contractName": "ERC721FullMintOnceBurnProxied",
  "sourceName": "contracts/token/ERC721/preset/proxied/ERC721FullMintOnceBurnProxied.sol",
  "abi": [
    {
      "inputs": [
        {
          "internalType": "contract IForwarderRegistry",
          "name": "forwarderRegistry",
          "type": "address"
        }
      ],
      "stateMutability": "nonpayable",
      "type": "constructor"
    },
    {
      "inputs": [
        {
          "internalType": "uint256",
          "name": "percentage",
          "type": "uint256"
        }
      ],
      "name": "ERC2981IncorrectRoyaltyPercentage",
      "type": "error"
    },
    {
      "inputs": [],
      "name": "ERC2981IncorrectRoyaltyReceiver",
      "type": "error"
    },
    {
      "inputs": [],
      "name": "ERC721BalanceOfAddressZero",
      "type": "error"
    },
    {
      "inputs": [
        {
          "internalType": "uint256",
          "name": "tokenId",
          "type": "uint256"
        }
      ],
      "name": "ERC721BurntToken",
      "type": "error"
    },
    {
      "inputs": [
        {
          "internalType": "uint256",
          "name": "tokenId",
          "type": "uint256"
        }
      ],
      "name": "ERC721ExistingToken",
      "type": "error"
    },
    {
      "inputs": [],
      "name": "ERC721MintToAddressZero",
      "type": "error"
    },
    {
      "inputs": [
        {
          "internalType": "address",
          "name": "sender",
          "type": "address"
        },
        {
          "internalType": "address",
          "name": "owner",
          "type": "address"
        },
        {
          "internalType": "uint256",
          "name": "tokenId",
          "type": "uint256"
        }
      ],
      "name": "ERC721NonApprovedForApproval",
      "type": "error"
    },
    {
      "inputs": [
        {
          "internalType": "address",
          "name": "sender",
          "type": "address"
        },
        {
          "internalType": "address",
          "name": "owner",
          "type": "address"
        },
        {
          "internalType": "uint256",
          "name": "tokenId",
          "type": "uint256"
        }
      ],
      "name": "ERC721NonApprovedForTransfer",
      "type": "error"
    },
    {
      "inputs": [
        {
          "internalType": "uint256",
          "name": "tokenId",
          "type": "uint256"
        }
      ],
      "name": "ERC721NonExistingToken",
      "type": "error"
    },
    {
      "inputs": [
        {
          "internalType": "address",
          "name": "account",
          "type": "address"
        },
        {
          "internalType": "uint256",
          "name": "tokenId",
          "type": "uint256"
        }
      ],
      "name": "ERC721NonOwnedToken",
      "type": "error"
    },
    {
      "inputs": [
        {
          "internalType": "address",
          "name": "recipient",
          "type": "address"
        },
        {
          "internalType": "uint256",
          "name": "tokenId",
          "type": "uint256"
        }
      ],
      "name": "ERC721SafeTransferRejected",
      "type": "error"
    },
    {
      "inputs": [
        {
          "internalType": "address",
          "name": "account",
          "type": "address"
        }
      ],
      "name": "ERC721SelfApproval",
      "type": "error"
    },
    {
      "inputs": [
        {
          "internalType": "address",
          "name": "account",
          "type": "address"
        }
      ],
      "name": "ERC721SelfApprovalForAll",
      "type": "error"
    },
    {
      "inputs": [],
      "name": "ERC721TransferToAddressZero",
      "type": "error"
    },
    {
      "inputs": [],
      "name": "IllegalInterfaceId",
      "type": "error"
    },
    {
      "inputs": [],
      "name": "InconsistentArrayLengths",
      "type": "error"
    },
    {
      "inputs": [
        {
          "internalType": "address",
          "name": "tokenContract",
          "type": "address"
        }
      ],
      "name": "IncorrectTokenContractType",
      "type": "error"
    },
    {
      "inputs": [
        {
          "internalType": "uint256",
          "name": "currentPhase",
          "type": "uint256"
        },
        {
          "internalType": "uint256",
          "name": "newPhase",
          "type": "uint256"
        }
      ],
      "name": "InitializationPhaseAlreadyReached",
      "type": "error"
    },
    {
      "inputs": [
        {
          "internalType": "address",
          "name": "account",
          "type": "address"
        }
      ],
      "name": "NotContractOwner",
      "type": "error"
    },
    {
      "inputs": [
        {
          "internalType": "bytes32",
          "name": "role",
          "type": "bytes32"
        },
        {
          "internalType": "address",
          "name": "account",
          "type": "address"
        }
      ],
      "name": "NotRoleHolder",
      "type": "error"
    },
    {
      "inputs": [
        {
          "internalType": "address",
          "name": "operator",
          "type": "address"
        }
      ],
      "name": "OperatorNotAllowed",
      "type": "error"
    },
    {
      "anonymous": false,
      "inputs": [
        {
          "indexed": true,
          "internalType": "address",
          "name": "owner",
          "type": "address"
        },
        {
          "indexed": true,
          "internalType": "address",
          "name": "approved",
          "type": "address"
        },
        {
          "indexed": true,
          "internalType": "uint256",
          "name": "tokenId",
          "type": "uint256"
        }
      ],
      "name": "Approval",
      "type": "event"
    },
    {
      "anonymous": false,
      "inputs": [
        {
          "indexed": true,
          "internalType": "address",
          "name": "owner",
          "type": "address"
        },
        {
          "indexed": true,
          "internalType": "address",
          "name": "operator",
          "type": "address"
        },
        {
          "indexed": false,
          "internalType": "bool",
          "name": "approved",
          "type": "bool"
        }
      ],
      "name": "ApprovalForAll",
      "type": "event"
    },
    {
      "anonymous": false,
      "inputs": [
        {
          "indexed": true,
          "internalType": "address",
          "name": "previousOwner",
          "type": "address"
        },
        {
          "indexed": true,
          "internalType": "address",
          "name": "newOwner",
          "type": "address"
        }
      ],
      "name": "OwnershipTransferred",
      "type": "event"
    },
    {
      "anonymous": false,
      "inputs": [
        {
          "indexed": false,
          "internalType": "bytes32",
          "name": "role",
          "type": "bytes32"
        },
        {
          "indexed": false,
          "internalType": "address",
          "name": "account",
          "type": "address"
        },
        {
          "indexed": false,
          "internalType": "address",
          "name": "operator",
          "type": "address"
        }
      ],
      "name": "RoleGranted",
      "type": "event"
    },
    {
      "anonymous": false,
      "inputs": [
        {
          "indexed": false,
          "internalType": "bytes32",
          "name": "role",
          "type": "bytes32"
        },
        {
          "indexed": false,
          "internalType": "address",
          "name": "account",
          "type": "address"
        },
        {
          "indexed": false,
          "internalType": "address",
          "name": "operator",
          "type": "address"
        }
      ],
      "name": "RoleRevoked",
      "type": "event"
    },
    {
      "anonymous": false,
      "inputs": [
        {
          "indexed": true,
          "internalType": "address",
          "name": "from",
          "type": "address"
        },
        {
          "indexed": true,
          "internalType": "address",
          "name": "to",
          "type": "address"
        },
        {
          "indexed": true,
          "internalType": "uint256",
          "name": "tokenId",
          "type": "uint256"
        }
      ],
      "name": "Transfer",
      "type": "event"
    },
    {
      "inputs": [],
      "name": "MINTER_ROLE",
      "outputs": [
        {
          "internalType": "bytes32",
          "name": "",
          "type": "bytes32"
        }
      ],
      "stateMutability": "view",
      "type": "function"
    },
    {
      "inputs": [],
      "name": "ROYALTY_FEE_DENOMINATOR",
      "outputs": [
        {
          "internalType": "uint256",
          "name": "",
          "type": "uint256"
        }
      ],
      "stateMutability": "view",
      "type": "function"
    },
    {
      "inputs": [
        {
          "internalType": "address",
          "name": "to",
          "type": "address"
        },
        {
          "internalType": "uint256",
          "name": "tokenId",
          "type": "uint256"
        }
      ],
      "name": "approve",
      "outputs": [],
      "stateMutability": "nonpayable",
      "type": "function"
    },
    {
      "inputs": [
        {
          "internalType": "address",
          "name": "owner",
          "type": "address"
        }
      ],
      "name": "balanceOf",
      "outputs": [
        {
          "internalType": "uint256",
          "name": "balance",
          "type": "uint256"
        }
      ],
      "stateMutability": "view",
      "type": "function"
    },
    {
      "inputs": [
        {
          "internalType": "address",
          "name": "from",
          "type": "address"
        },
        {
          "internalType": "uint256[]",
          "name": "tokenIds",
          "type": "uint256[]"
        }
      ],
      "name": "batchBurnFrom",
      "outputs": [],
      "stateMutability": "nonpayable",
      "type": "function"
    },
    {
      "inputs": [
        {
          "internalType": "address",
          "name": "to",
          "type": "address"
        },
        {
          "internalType": "uint256[]",
          "name": "tokenIds",
          "type": "uint256[]"
        }
      ],
      "name": "batchMint",
      "outputs": [],
      "stateMutability": "nonpayable",
      "type": "function"
    },
    {
      "inputs": [
        {
          "internalType": "address",
          "name": "from",
          "type": "address"
        },
        {
          "internalType": "address",
          "name": "to",
          "type": "address"
        },
        {
          "internalType": "uint256[]",
          "name": "tokenIds",
          "type": "uint256[]"
        }
      ],
      "name": "batchTransferFrom",
      "outputs": [],
      "stateMutability": "nonpayable",
      "type": "function"
    },
    {
      "inputs": [
        {
          "internalType": "address",
          "name": "from",
          "type": "address"
        },
        {
          "internalType": "uint256",
          "name": "tokenId",
          "type": "uint256"
        }
      ],
      "name": "burnFrom",
      "outputs": [],
      "stateMutability": "nonpayable",
      "type": "function"
    },
    {
      "inputs": [
        {
          "internalType": "address[]",
          "name": "recipients",
          "type": "address[]"
        },
        {
          "internalType": "uint256[]",
          "name": "tokenIds",
          "type": "uint256[]"
        }
      ],
      "name": "deliver",
      "outputs": [],
      "stateMutability": "nonpayable",
      "type": "function"
    },
    {
      "inputs": [],
      "name": "forwarderRegistry",
      "outputs": [
        {
          "internalType": "contract IForwarderRegistry",
          "name": "",
          "type": "address"
        }
      ],
      "stateMutability": "view",
      "type": "function"
    },
    {
      "inputs": [
        {
          "internalType": "uint256",
          "name": "tokenId",
          "type": "uint256"
        }
      ],
      "name": "getApproved",
      "outputs": [
        {
          "internalType": "address",
          "name": "approved",
          "type": "address"
        }
      ],
      "stateMutability": "view",
      "type": "function"
    },
    {
      "inputs": [
        {
          "internalType": "bytes32",
          "name": "role",
          "type": "bytes32"
        },
        {
          "internalType": "address",
          "name": "account",
          "type": "address"
        }
      ],
      "name": "grantRole",
      "outputs": [],
      "stateMutability": "nonpayable",
      "type": "function"
    },
    {
      "inputs": [
        {
          "internalType": "bytes32",
          "name": "role",
          "type": "bytes32"
        },
        {
          "internalType": "address",
          "name": "account",
          "type": "address"
        }
      ],
      "name": "hasRole",
      "outputs": [
        {
          "internalType": "bool",
          "name": "hasRole_",
          "type": "bool"
        }
      ],
      "stateMutability": "view",
      "type": "function"
    },
    {
      "inputs": [
        {
          "internalType": "string",
          "name": "tokenName",
          "type": "string"
        },
        {
          "internalType": "string",
          "name": "tokenSymbol",
          "type": "string"
        },
        {
          "internalType": "contract ITokenMetadataResolver",
          "name": "metadataResolver",
          "type": "address"
        },
        {
          "internalType": "contract IOperatorFilterRegistry",
          "name": "filterRegistry",
          "type": "address"
        }
      ],
      "name": "init",
      "outputs": [],
      "stateMutability": "nonpayable",
      "type": "function"
    },
    {
      "inputs": [
        {
          "internalType": "address",
          "name": "owner",
          "type": "address"
        },
        {
          "internalType": "address",
          "name": "operator",
          "type": "address"
        }
      ],
      "name": "isApprovedForAll",
      "outputs": [
        {
          "internalType": "bool",
          "name": "approvedForAll",
          "type": "bool"
        }
      ],
      "stateMutability": "view",
      "type": "function"
    },
    {
      "inputs": [
        {
          "internalType": "address",
          "name": "forwarder",
          "type": "address"
        }
      ],
      "name": "isTrustedForwarder",
      "outputs": [
        {
          "internalType": "bool",
          "name": "",
          "type": "bool"
        }
      ],
      "stateMutability": "view",
      "type": "function"
    },
    {
      "inputs": [],
      "name": "metadataResolver",
      "outputs": [
        {
          "internalType": "contract ITokenMetadataResolver",
          "name": "tokenMetadataResolver",
          "type": "address"
        }
      ],
      "stateMutability": "view",
      "type": "function"
    },
    {
      "inputs": [
        {
          "internalType": "address",
          "name": "to",
          "type": "address"
        },
        {
          "internalType": "uint256",
          "name": "tokenId",
          "type": "uint256"
        }
      ],
      "name": "mint",
      "outputs": [],
      "stateMutability": "nonpayable",
      "type": "function"
    },
    {
      "inputs": [],
      "name": "name",
      "outputs": [
        {
          "internalType": "string",
          "name": "tokenName",
          "type": "string"
        }
      ],
      "stateMutability": "view",
      "type": "function"
    },
    {
      "inputs": [],
      "name": "operatorFilterRegistry",
      "outputs": [
        {
          "internalType": "contract IOperatorFilterRegistry",
          "name": "",
          "type": "address"
        }
      ],
      "stateMutability": "view",
      "type": "function"
    },
    {
      "inputs": [],
      "name": "owner",
      "outputs": [
        {
          "internalType": "address",
          "name": "",
          "type": "address"
        }
      ],
      "stateMutability": "view",
      "type": "function"
    },
    {
      "inputs": [
        {
          "internalType": "uint256",
          "name": "tokenId",
          "type": "uint256"
        }
      ],
      "name": "ownerOf",
      "outputs": [
        {
          "internalType": "address",
          "name": "tokenOwner",
          "type": "address"
        }
      ],
      "stateMutability": "view",
      "type": "function"
    },
    {
      "inputs": [
        {
          "internalType": "address[]",
          "name": "accounts",
          "type": "address[]"
        },
        {
          "internalType": "contract IERC20[]",
          "name": "tokens",
          "type": "address[]"
        },
        {
          "internalType": "uint256[]",
          "name": "amounts",
          "type": "uint256[]"
        }
      ],
      "name": "recoverERC20s",
      "outputs": [],
      "stateMutability": "nonpayable",
      "type": "function"
    },
    {
      "inputs": [
        {
          "internalType": "address[]",
          "name": "accounts",
          "type": "address[]"
        },
        {
          "internalType": "contract IERC721[]",
          "name": "contracts",
          "type": "address[]"
        },
        {
          "internalType": "uint256[]",
          "name": "tokenIds",
          "type": "uint256[]"
        }
      ],
      "name": "recoverERC721s",
      "outputs": [],
      "stateMutability": "nonpayable",
      "type": "function"
    },
    {
      "inputs": [
        {
          "internalType": "address payable[]",
          "name": "accounts",
          "type": "address[]"
        },
        {
          "internalType": "uint256[]",
          "name": "amounts",
          "type": "uint256[]"
        }
      ],
      "name": "recoverETH",
      "outputs": [],
      "stateMutability": "nonpayable",
      "type": "function"
    },
    {
      "inputs": [
        {
          "internalType": "bytes32",
          "name": "role",
          "type": "bytes32"
        }
      ],
      "name": "renounceRole",
      "outputs": [],
      "stateMutability": "nonpayable",
      "type": "function"
    },
    {
      "inputs": [
        {
          "internalType": "bytes32",
          "name": "role",
          "type": "bytes32"
        },
        {
          "internalType": "address",
          "name": "account",
          "type": "address"
        }
      ],
      "name": "revokeRole",
      "outputs": [],
      "stateMutability": "nonpayable",
      "type": "function"
    },
    {
      "inputs": [
        {
          "internalType": "uint256",
          "name": "tokenId",
          "type": "uint256"
        },
        {
          "internalType": "uint256",
          "name": "salePrice",
          "type": "uint256"
        }
      ],
      "name": "royaltyInfo",
      "outputs": [
        {
          "internalType": "address",
          "name": "receiver",
          "type": "address"
        },
        {
          "internalType": "uint256",
          "name": "royaltyAmount",
          "type": "uint256"
        }
      ],
      "stateMutability": "view",
      "type": "function"
    },
    {
      "inputs": [
        {
          "internalType": "address",
          "name": "to",
          "type": "address"
        },
        {
          "internalType": "uint256",
          "name": "tokenId",
          "type": "uint256"
        },
        {
          "internalType": "bytes",
          "name": "data",
          "type": "bytes"
        }
      ],
      "name": "safeMint",
      "outputs": [],
      "stateMutability": "nonpayable",
      "type": "function"
    },
    {
      "inputs": [
        {
          "internalType": "address",
          "name": "from",
          "type": "address"
        },
        {
          "internalType": "address",
          "name": "to",
          "type": "address"
        },
        {
          "internalType": "uint256",
          "name": "tokenId",
          "type": "uint256"
        }
      ],
      "name": "safeTransferFrom",
      "outputs": [],
      "stateMutability": "nonpayable",
      "type": "function"
    },
    {
      "inputs": [
        {
          "internalType": "address",
          "name": "from",
          "type": "address"
        },
        {
          "internalType": "address",
          "name": "to",
          "type": "address"
        },
        {
          "internalType": "uint256",
          "name": "tokenId",
          "type": "uint256"
        },
        {
          "internalType": "bytes",
          "name": "data",
          "type": "bytes"
        }
      ],
      "name": "safeTransferFrom",
      "outputs": [],
      "stateMutability": "nonpayable",
      "type": "function"
    },
    {
      "inputs": [
        {
          "internalType": "address",
          "name": "operator",
          "type": "address"
        },
        {
          "internalType": "bool",
          "name": "approved",
          "type": "bool"
        }
      ],
      "name": "setApprovalForAll",
      "outputs": [],
      "stateMutability": "nonpayable",
      "type": "function"
    },
    {
      "inputs": [
        {
          "internalType": "uint256",
          "name": "percentage",
          "type": "uint256"
        }
      ],
      "name": "setRoyaltyPercentage",
      "outputs": [],
      "stateMutability": "nonpayable",
      "type": "function"
    },
    {
      "inputs": [
        {
          "internalType": "address",
          "name": "receiver",
          "type": "address"
        }
      ],
      "name": "setRoyaltyReceiver",
      "outputs": [],
      "stateMutability": "nonpayable",
      "type": "function"
    },
    {
      "inputs": [
        {
          "internalType": "bytes4",
          "name": "interfaceId",
          "type": "bytes4"
        }
      ],
      "name": "supportsInterface",
      "outputs": [
        {
          "internalType": "bool",
          "name": "",
          "type": "bool"
        }
      ],
      "stateMutability": "view",
      "type": "function"
    },
    {
      "inputs": [],
      "name": "symbol",
      "outputs": [
        {
          "internalType": "string",
          "name": "tokenSymbol",
          "type": "string"
        }
      ],
      "stateMutability": "view",
      "type": "function"
    },
    {
      "inputs": [
        {
          "internalType": "uint256",
          "name": "tokenId",
          "type": "uint256"
        }
      ],
      "name": "tokenURI",
      "outputs": [
        {
          "internalType": "string",
          "name": "uri",
          "type": "string"
        }
      ],
      "stateMutability": "view",
      "type": "function"
    },
    {
      "inputs": [
        {
          "internalType": "address",
          "name": "from",
          "type": "address"
        },
        {
          "internalType": "address",
          "name": "to",
          "type": "address"
        },
        {
          "internalType": "uint256",
          "name": "tokenId",
          "type": "uint256"
        }
      ],
      "name": "transferFrom",
      "outputs": [],
      "stateMutability": "nonpayable",
      "type": "function"
    },
    {
      "inputs": [
        {
          "internalType": "address",
          "name": "newOwner",
          "type": "address"
        }
      ],
      "name": "transferOwnership",
      "outputs": [],
      "stateMutability": "nonpayable",
      "type": "function"
    },
    {
      "inputs": [
        {
          "internalType": "contract IOperatorFilterRegistry",
          "name": "registry",
          "type": "address"
        }
      ],
      "name": "updateOperatorFilterRegistry",
      "outputs": [],
      "stateMutability": "nonpayable",
      "type": "function"
    },
    {
      "inputs": [
        {
          "internalType": "uint256",
          "name": "tokenId",
          "type": "uint256"
        }
      ],
      "name": "wasBurnt",
      "outputs": [
        {
          "internalType": "bool",
          "name": "tokenWasBurnt",
          "type": "bool"
        }
      ],
      "stateMutability": "view",
      "type": "function"
    }
  ],
  "bytecode": "0x60a06040523480156200001157600080fd5b50604051620049a1380380620049a1833981016040819052620000349162000046565b6001600160a01b031660805262000078565b6000602082840312156200005957600080fd5b81516001600160a01b03811681146200007157600080fd5b9392505050565b6080516148f8620000a9600039600081816103dc0152818161045c015281816137df015261386701526148f86000f3fe608060405234801561001057600080fd5b50600436106102d35760003560e01c80638bb9c5bf11610186578063c3666c36116100e3578063e1a8bf2c11610097578063f2fde38b11610071578063f2fde38b1461064e578063f3993d1114610661578063f7ba94bd1461067457600080fd5b8063e1a8bf2c1461061e578063e985e9c514610628578063f24729651461063b57600080fd5b8063c87b56dd116100c8578063c87b56dd146105d1578063d5391393146105e4578063d547741f1461060b57600080fd5b8063c3666c36146105ab578063c77c6955146105be57600080fd5b80639da5e8321161013a578063a22cb4651161011f578063a22cb4651461057d578063b0ccc31e14610590578063b88d4fde1461059857600080fd5b80639da5e83214610562578063a0c76f621461057557600080fd5b80638dc251e31161016b5780638dc251e31461053457806391d148541461054757806395d89b411461055a57600080fd5b80638bb9c5bf146105195780638da5cb5b1461052c57600080fd5b806340c10f19116102345780636352211e116101e857806373c8a958116101cd57806373c8a958146104e057806379cc6790146104f35780638832e6e31461050657600080fd5b80636352211e146104ac57806370a08231146104bf57600080fd5b80634684d7e9116102195780634684d7e914610439578063572b6c051461044c57806361ba27da1461049957600080fd5b806340c10f191461041357806342842e0e1461042657600080fd5b8063114ba8ee1161028b5780632a55205a116102705780632a55205a1461039b5780632b4c9f16146103da5780632f2ff15d1461040057600080fd5b8063114ba8ee1461037557806323b872dd1461038857600080fd5b8063081812fc116102bc578063081812fc14610315578063095ea7b31461034d5780630e07f8541461036257600080fd5b806301ffc9a7146102d857806306fdde0314610300575b600080fd5b6102eb6102e6366004613f0a565b610687565b60405190151581526020015b60405180910390f35b6103086106a1565b6040516102f79190613f95565b610328610323366004613fa8565b6106b0565b60405173ffffffffffffffffffffffffffffffffffffffff90911681526020016102f7565b61036061035b366004613fe3565b6106c4565b005b610360610370366004614051565b610713565b6103606103833660046140e6565b610798565b610360610396366004614103565b610803565b6103ae6103a9366004614144565b610841565b6040805173ffffffffffffffffffffffffffffffffffffffff90931683526020830191909152016102f7565b7f0000000000000000000000000000000000000000000000000000000000000000610328565b61036061040e366004614166565b610864565b610360610421366004613fe3565b610897565b610360610434366004614103565b6108e6565b6103606104473660046141db565b610917565b6102eb61045a3660046140e6565b7f000000000000000000000000000000000000000000000000000000000000000073ffffffffffffffffffffffffffffffffffffffff90811691161490565b6103606104a7366004613fa8565b61098b565b6103286104ba366004613fa8565b6109a8565b6104d26104cd3660046140e6565b6109bc565b6040519081526020016102f7565b6103606104ee366004614230565b6109d0565b610360610501366004613fe3565b610ac6565b6103606105143660046142ca565b610ae3565b610360610527366004613fa8565b610b65565b610328610b80565b6103606105423660046140e6565b610ba7565b6102eb610555366004614166565b610bc4565b610308610c0f565b610360610570366004614326565b610c19565b610328610cbd565b61036061058b366004614394565b610ce7565b610328610d16565b6103606105a63660046143c2565b610d23565b6103606105b9366004614230565b610d58565b6102eb6105cc366004613fa8565b610ffe565b6103086105df366004613fa8565b611012565b6104d27f6d696e746572000000000000000000000000000000000000000000000000000081565b610360610619366004614166565b611035565b6104d2620186a081565b6102eb610636366004614435565b611063565b6103606106493660046141db565b6110b1565b61036061065c3660046140e6565b6110d0565b61036061066f366004614463565b6110eb565b610360610682366004614326565b611125565b600061069b826106956111dc565b9061120a565b92915050565b60606106ab6112e4565b905090565b600061069b826106be6112f6565b90611324565b73ffffffffffffffffffffffffffffffffffffffff8216156106f2576106f2826106ec6113d8565b90611406565b61070f6106fd611410565b83836107076112f6565b92919061141a565b5050565b61072c61071e611410565b610726611695565b906116c3565b610734611702565b61073c611739565b610744611767565b61074c611795565b6107546117c3565b61075c6117f1565b61076461181f565b61077e868686868661077461184d565b949392919061187b565b6107908161078a6113d8565b90611915565b505050505050565b6107b16107a3611410565b6107ab611695565b90611985565b610800816107bd6113d8565b9081547fffffffffffffffffffffffff00000000000000000000000000000000000000001673ffffffffffffffffffffffffffffffffffffffff91909116179055565b50565b600061080d611410565b9050610823818561081c6113d8565b91906119f0565b61083b818585856108326112f6565b93929190611a2d565b50505050565b6000806108588484610851611d0b565b9190611d39565b915091505b9250929050565b600061086e611410565b905061087c816107ab611695565b61089283838361088a611de3565b929190611e11565b505050565b6108d27f6d696e74657200000000000000000000000000000000000000000000000000006108c3611410565b6108cb611de3565b9190611ee7565b61070f82826108df6112f6565b9190611f6d565b60006108f0611410565b90506108ff818561081c6113d8565b61083b8185858561090e6112f6565b939291906120e5565b6109437f6d696e74657200000000000000000000000000000000000000000000000000006108c3611410565b6108928383838080602002602001604051908101604052809392919081815260200183836020028082843760009201919091525061098492506112f6915050565b919061212b565b6109966107a3611410565b610800816109a2611d0b565b906122f7565b600061069b826109b66112f6565b9061237d565b600061069b826109ca6112f6565b906123e6565b6109db6107a3611410565b8483811415806109eb5750808214155b15610a22576040517f6582533600000000000000000000000000000000000000000000000000000000815260040160405180910390fd5b60005b81811015610abc57610ab4888883818110610a4257610a426144bc565b9050602002016020810190610a5791906140e6565b858584818110610a6957610a696144bc565b90506020020135888885818110610a8257610a826144bc565b9050602002016020810190610a9791906140e6565b73ffffffffffffffffffffffffffffffffffffffff169190612462565b600101610a25565b5050505050505050565b61070f610ad1611410565b8383610adb6112f6565b9291906124ef565b610b0f7f6d696e74657200000000000000000000000000000000000000000000000000006108c3611410565b61083b610b1a611410565b858585858080601f016020809104026020016040519081016040528093929190818152602001838380828437600092019190915250610b5c92506112f6915050565b93929190612739565b610800610b70611410565b82610b79611de3565b919061276f565b60006106ab610b8d611695565b5473ffffffffffffffffffffffffffffffffffffffff1690565b610bb26107a3611410565b61080081610bbe611d0b565b90612813565b6000610c088383610bd3611de3565b60009283526020908152604080842073ffffffffffffffffffffffffffffffffffffffff909316845291905290205460ff1690565b9392505050565b60606106ab612860565b610c457f6d696e74657200000000000000000000000000000000000000000000000000006108c3611410565b61083b84848080602002602001604051908101604052809392919081815260200183836020028082843760009201919091525050604080516020808802828101820190935287825290935087925086918291850190849080828437600092019190915250610cb692506112f6915050565b9190612872565b60006106ab610cca61184d565b6002015473ffffffffffffffffffffffffffffffffffffffff1690565b8015610cf957610cf9826106ec6113d8565b61070f610d04611410565b8383610d0e6112f6565b929190612a93565b60006106ab610b8d6113d8565b6000610d2d611410565b9050610d3c818761081c6113d8565b610790818787878787610d4d6112f6565b959493929190612bab565b610d636107a3611410565b848381141580610d735750808214155b15610daa576040517f6582533600000000000000000000000000000000000000000000000000000000815260040160405180910390fd5b60005b81811015610abc576000868683818110610dc957610dc96144bc565b9050602002016020810190610dde91906140e6565b6040517f01ffc9a70000000000000000000000000000000000000000000000000000000081527f80ac58cd00000000000000000000000000000000000000000000000000000000600482015290915073ffffffffffffffffffffffffffffffffffffffff8216906301ffc9a790602401602060405180830381865afa158015610e6b573d6000803e3d6000fd5b505050506040513d601f19601f82011682018060405250810190610e8f91906144eb565b610ee2576040517f986b9f1f00000000000000000000000000000000000000000000000000000000815273ffffffffffffffffffffffffffffffffffffffff821660048201526024015b60405180910390fd5b868683818110610ef457610ef46144bc565b9050602002016020810190610f0991906140e6565b73ffffffffffffffffffffffffffffffffffffffff166342842e0e308b8b86818110610f3757610f376144bc565b9050602002016020810190610f4c91906140e6565b888887818110610f5e57610f5e6144bc565b6040517fffffffff0000000000000000000000000000000000000000000000000000000060e088901b16815273ffffffffffffffffffffffffffffffffffffffff958616600482015294909316602485015250602090910201356044820152606401600060405180830381600087803b158015610fda57600080fd5b505af1158015610fee573d6000803e3d6000fd5b5050505050806001019050610dad565b600061069b8261100c6112f6565b90612c21565b6060611020826109b66112f6565b5061069b308361102e61184d565b9190612c57565b600061103f611410565b905061104d816107ab611695565b61089283838361105b611de3565b929190612d17565b6000610c0883836110726112f6565b919073ffffffffffffffffffffffffffffffffffffffff9182166000908152600393909301602090815260408085209290931684525290205460ff1690565b6108926110bc611410565b8484846110c76112f6565b93929190612de1565b6108006110db611410565b826110e4611695565b919061306c565b60006110f5611410565b9050611104818661081c6113d8565b61111e81868686866111146112f6565b9493929190613180565b5050505050565b6111306107a3611410565b8281811461116a576040517f6582533600000000000000000000000000000000000000000000000000000000815260040160405180910390fd5b60005b81811015610790576111d484848381811061118a5761118a6144bc565b905060200201358787848181106111a3576111a36144bc565b90506020020160208101906111b891906140e6565b73ffffffffffffffffffffffffffffffffffffffff1690613485565b60010161116d565b60008061069b60017fca9d3e17f264b0f3984e2634e94adb37fa3e6a8103f06aeae6fa59e21c769f5e614537565b60007c01000000000000000000000000000000000000000000000000000000007fffffffff0000000000000000000000000000000000000000000000000000000083160161125a5750600061069b565b7ffe003659000000000000000000000000000000000000000000000000000000007fffffffff000000000000000000000000000000000000000000000000000000008316016112ab5750600161069b565b507fffffffff00000000000000000000000000000000000000000000000000000000166000908152602091909152604090205460ff1690565b60606106ab6112f161184d565b6135df565b60008061069b60017fddf3ee18ae6d688373c219468f8be446e7ae82215f4779d821c7ea5e8c13c0c1614537565b60008181526020839052604081205473ffffffffffffffffffffffffffffffffffffffff8116611383576040517fdd56047500000000000000000000000000000000000000000000000000000000815260048101849052602401610ed9565b740100000000000000000000000000000000000000008116156113ce575050600081815260028301602052604090205473ffffffffffffffffffffffffffffffffffffffff1661069b565b600091505061069b565b60008061069b60017f609b85bcafa81ecfaf3ff62cdde2c6c9082a68dbe4922f07399c706bdeb7cd31614537565b61070f8282613675565b60006106ab61379c565b60008181526020859052604090205473ffffffffffffffffffffffffffffffffffffffff8116611479576040517fdd56047500000000000000000000000000000000000000000000000000000000815260048101839052602401610ed9565b8073ffffffffffffffffffffffffffffffffffffffff808216908516036114e4576040517fb7fdc01000000000000000000000000000000000000000000000000000000000815273ffffffffffffffffffffffffffffffffffffffff82166004820152602401610ed9565b6114ef8682876138e3565b61154c576040517fc7563a1800000000000000000000000000000000000000000000000000000000815273ffffffffffffffffffffffffffffffffffffffff80871660048301528216602482015260448101849052606401610ed9565b73ffffffffffffffffffffffffffffffffffffffff84166115b157740100000000000000000000000000000000000000008216156115ac57600083815260208790526040902073ffffffffffffffffffffffffffffffffffffffff821690555b611632565b7401000000000000000000000000000000000000000082178083146115e25760008481526020889052604090208190555b506000838152600287016020526040902080547fffffffffffffffffffffffff00000000000000000000000000000000000000001673ffffffffffffffffffffffffffffffffffffffff86161790555b828473ffffffffffffffffffffffffffffffffffffffff168273ffffffffffffffffffffffffffffffffffffffff167f8c5be1e5ebec7d5bd14f71427d1e84f3dd0314c0f7b2291e5b200ac8c7c3b92560405160405180910390a4505050505050565b60008061069b60017fc9ed16f33ab3a66c84bfd83099ccb2a8845871e2e1c1928f63797152f0fd54cd614537565b6116f86116f160017f5b388d90dc1312ba799f321972f13311234fa1163bcabec7cf66101c4876eb84614537565b6001613958565b61070f82826139a4565b6117377f80ac58cd0000000000000000000000000000000000000000000000000000000060016117306111dc565b9190613a5a565b565b6117377ff3993d110000000000000000000000000000000000000000000000000000000060016117306111dc565b6117377f5b5e139f0000000000000000000000000000000000000000000000000000000060016117306111dc565b6117377f8e773e130000000000000000000000000000000000000000000000000000000060016117306111dc565b6117377f9da5e8320000000000000000000000000000000000000000000000000000000060016117306111dc565b6117377f8b8b4ef50000000000000000000000000000000000000000000000000000000060016117306111dc565b6117377f2a55205a0000000000000000000000000000000000000000000000000000000060016117306111dc565b60008061069b60017f7ea68fd2dcf1c056b94db6a0a537aa80d26fa9ab1eacd85da1ba0b61b7e7a8a5614537565b6118a96116f160017f92f72593ca50a0096f68ee94e7000db40ed086164b695855e2250750b8bfaf59614537565b856118b5858783614614565b50600186016118c5838583614614565b5060029590950180547fffffffffffffffffffffffff00000000000000000000000000000000000000001673ffffffffffffffffffffffffffffffffffffffff9096169590951790945550505050565b6119436116f160017f2f02d396cb1be29636682c8684200b30a98554d3b74293aa4495cb5e1d252f6e614537565b81547fffffffffffffffffffffffff00000000000000000000000000000000000000001673ffffffffffffffffffffffffffffffffffffffff91909116179055565b815473ffffffffffffffffffffffffffffffffffffffff82811691161461070f576040517f2ef4875e00000000000000000000000000000000000000000000000000000000815273ffffffffffffffffffffffffffffffffffffffff82166004820152602401610ed9565b8073ffffffffffffffffffffffffffffffffffffffff168273ffffffffffffffffffffffffffffffffffffffff1614610892576108928383613675565b73ffffffffffffffffffffffffffffffffffffffff8216611a7a576040517f86c8706700000000000000000000000000000000000000000000000000000000815260040160405180910390fd5b60008181526020869052604090205473ffffffffffffffffffffffffffffffffffffffff8116611ad9576040517fdd56047500000000000000000000000000000000000000000000000000000000815260048101839052602401610ed9565b73ffffffffffffffffffffffffffffffffffffffff84168173ffffffffffffffffffffffffffffffffffffffff1614611b5d576040517f14dbb53600000000000000000000000000000000000000000000000000000000815273ffffffffffffffffffffffffffffffffffffffff8516600482015260248101839052604401610ed9565b611b688685876138e3565b611c17577401000000000000000000000000000000000000000081161580611bb95750600082815260028701602052604090205473ffffffffffffffffffffffffffffffffffffffff868116911614155b15611c17576040517fa4a3018b00000000000000000000000000000000000000000000000000000000815273ffffffffffffffffffffffffffffffffffffffff80871660048301528516602482015260448101839052606401610ed9565b600082815260208790526040902073ffffffffffffffffffffffffffffffffffffffff80851691829055851614611ca85773ffffffffffffffffffffffffffffffffffffffff80851660009081526001808901602052604080832080547fffffffffffffffffffffffffffffffffffffffffffffffffffffffffffffffff0190559286168252919020805490910190555b818373ffffffffffffffffffffffffffffffffffffffff168573ffffffffffffffffffffffffffffffffffffffff167fddf252ad1be2c89b69c2b068fc378daa952ba7f163c4a11628f55a4df523b3ef60405160405180910390a4505050505050565b60008061069b60017f2c0cf10337caabbd02dcf226f05f5fd19a0919a41a8df8958c39b80007826858614537565b825473ffffffffffffffffffffffffffffffffffffffff8116906000907401000000000000000000000000000000000000000090046bffffffffffffffffffffffff16831580611d87575080155b15611d955760009150611dda565b620186a0841015611dbf57620186a0611dae828661472e565b611db89190614745565b9150611dda565b80611dcd620186a086614745565b611dd7919061472e565b91505b50935093915050565b60008061069b60017fc8827d3282af6f37b64c3e9e6f3ac9df286ab0bb0fccd6f8661bf19adb368b23614537565b60008381526020858152604080832073ffffffffffffffffffffffffffffffffffffffff8616845290915290205460ff1661083b5760008381526020858152604080832073ffffffffffffffffffffffffffffffffffffffff8681168086529184529382902080547fffffffffffffffffffffffffffffffffffffffffffffffffffffffffffffff00166001179055815187815292830152918316918101919091527f2f8788117e7eff1d82e926ec794901d17c78024a50270940304540a733656f0d906060015b60405180910390a150505050565b60008281526020848152604080832073ffffffffffffffffffffffffffffffffffffffff8516845290915290205460ff16610892576040517f7aa728820000000000000000000000000000000000000000000000000000000081526004810183905273ffffffffffffffffffffffffffffffffffffffff82166024820152604401610ed9565b73ffffffffffffffffffffffffffffffffffffffff8216611fba576040517f7851b9cd00000000000000000000000000000000000000000000000000000000815260040160405180910390fd5b60008181526020849052604090205473ffffffffffffffffffffffffffffffffffffffff81161561201a576040517f753eceac00000000000000000000000000000000000000000000000000000000815260048101839052602401610ed9565b7fdead0000000000000000000000000000000000000000000000000000000000008103612076576040517f31e8d3d500000000000000000000000000000000000000000000000000000000815260048101839052602401610ed9565b60008281526020858152604080832073ffffffffffffffffffffffffffffffffffffffff87169081905580845260018089019093528184208054909301909255518492907fddf252ad1be2c89b69c2b068fc378daa952ba7f163c4a11628f55a4df523b3ef908290a450505050565b6120f28585858585611a2d565b73ffffffffffffffffffffffffffffffffffffffff82163b1561111e5761111e8484848460405180602001604052806000815250613b36565b73ffffffffffffffffffffffffffffffffffffffff8216612178576040517f7851b9cd00000000000000000000000000000000000000000000000000000000815260040160405180910390fd5b805160005b818110156122c2576000838281518110612199576121996144bc565b60209081029190910181015160008181529188905260409091205490915073ffffffffffffffffffffffffffffffffffffffff811615612208576040517f753eceac00000000000000000000000000000000000000000000000000000000815260048101839052602401610ed9565b7fdead0000000000000000000000000000000000000000000000000000000000008103612264576040517f31e8d3d500000000000000000000000000000000000000000000000000000000815260048101839052602401610ed9565b60008281526020889052604080822073ffffffffffffffffffffffffffffffffffffffff89169081905590518492907fddf252ad1be2c89b69c2b068fc378daa952ba7f163c4a11628f55a4df523b3ef908290a4505060010161217d565b5073ffffffffffffffffffffffffffffffffffffffff9092166000908152600190930160205250604090912080549091019055565b620186a0811115612337576040517fac04040800000000000000000000000000000000000000000000000000000000815260048101829052602401610ed9565b81546bffffffffffffffffffffffff909116740100000000000000000000000000000000000000000273ffffffffffffffffffffffffffffffffffffffff909116179055565b60008181526020839052604081205473ffffffffffffffffffffffffffffffffffffffff81166123dc576040517fdd56047500000000000000000000000000000000000000000000000000000000815260048101849052602401610ed9565b805b949350505050565b600073ffffffffffffffffffffffffffffffffffffffff8216612435576040517faefbce4e00000000000000000000000000000000000000000000000000000000815260040160405180910390fd5b5073ffffffffffffffffffffffffffffffffffffffff166000908152600191909101602052604090205490565b6040805173ffffffffffffffffffffffffffffffffffffffff8416602482015260448082018490528251808303909101815260649091019091526020810180517bffffffffffffffffffffffffffffffffffffffffffffffffffffffff167fa9059cbb00000000000000000000000000000000000000000000000000000000179052610892908490613c4b565b60008181526020859052604090205473ffffffffffffffffffffffffffffffffffffffff811661254e576040517fdd56047500000000000000000000000000000000000000000000000000000000815260048101839052602401610ed9565b73ffffffffffffffffffffffffffffffffffffffff83168173ffffffffffffffffffffffffffffffffffffffff16146125d2576040517f14dbb53600000000000000000000000000000000000000000000000000000000815273ffffffffffffffffffffffffffffffffffffffff8416600482015260248101839052604401610ed9565b6125dd8584866138e3565b61268c57740100000000000000000000000000000000000000008116158061262e5750600082815260028601602052604090205473ffffffffffffffffffffffffffffffffffffffff858116911614155b1561268c576040517fa4a3018b00000000000000000000000000000000000000000000000000000000815273ffffffffffffffffffffffffffffffffffffffff80861660048301528416602482015260448101839052606401610ed9565b6000828152602086815260408083207fdead000000000000000000000000000000000000000000000000000000000000905573ffffffffffffffffffffffffffffffffffffffff86168084526001890190925280832080547fffffffffffffffffffffffffffffffffffffffffffffffffffffffffffffffff01905551849291907fddf252ad1be2c89b69c2b068fc378daa952ba7f163c4a11628f55a4df523b3ef908390a45050505050565b612744858484611f6d565b73ffffffffffffffffffffffffffffffffffffffff83163b1561111e5761111e846000858585613b36565b61277a838284611ee7565b60008181526020848152604080832073ffffffffffffffffffffffffffffffffffffffff86168085529083529281902080547fffffffffffffffffffffffffffffffffffffffffffffffffffffffffffffff0016905580518481529182018390528101919091527ff6391f5c32d9c69d2a47ea670b442974b53935d1edc7fd64eb21e047a839171b9060600160405180910390a1505050565b73ffffffffffffffffffffffffffffffffffffffff8116611943576040517f16de0c8000000000000000000000000000000000000000000000000000000000815260040160405180910390fd5b60606106ab61286d61184d565b613d5a565b8151815181146128ae576040517f6582533600000000000000000000000000000000000000000000000000000000815260040160405180910390fd5b60005b8181101561111e5760008482815181106128cd576128cd6144bc565b60200260200101519050600073ffffffffffffffffffffffffffffffffffffffff168173ffffffffffffffffffffffffffffffffffffffff160361293d576040517f7851b9cd00000000000000000000000000000000000000000000000000000000815260040160405180910390fd5b6000848381518110612951576129516144bc565b60209081029190910181015160008181529189905260409091205490915073ffffffffffffffffffffffffffffffffffffffff8116156129c0576040517f753eceac00000000000000000000000000000000000000000000000000000000815260048101839052602401610ed9565b7fdead0000000000000000000000000000000000000000000000000000000000008103612a1c576040517f31e8d3d500000000000000000000000000000000000000000000000000000000815260048101839052602401610ed9565b60008281526020898152604080832073ffffffffffffffffffffffffffffffffffffffff8716908190558084526001808d019093528184208054909301909255518492907fddf252ad1be2c89b69c2b068fc378daa952ba7f163c4a11628f55a4df523b3ef908290a45050508060010190506128b1565b8273ffffffffffffffffffffffffffffffffffffffff168273ffffffffffffffffffffffffffffffffffffffff1603612b10576040517fe4215c6a00000000000000000000000000000000000000000000000000000000815273ffffffffffffffffffffffffffffffffffffffff84166004820152602401610ed9565b73ffffffffffffffffffffffffffffffffffffffff838116600081815260038701602090815260408083209487168084529482529182902080547fffffffffffffffffffffffffffffffffffffffffffffffffffffffffffffff001686151590811790915591519182527f17307eab39ab6107e8899845ad3d59bd9653f200f220920489ca2b5937696c31910160405180910390a350505050565b612bb88787878787611a2d565b73ffffffffffffffffffffffffffffffffffffffff84163b15612c1857612c188686868686868080601f016020809104026020016040519081016040528093929190818152602001838380828437600092019190915250613b3692505050565b50505050505050565b6000818152602083905260408120547fdead00000000000000000000000000000000000000000000000000000000000014610c08565b60028301546040517ff724dad700000000000000000000000000000000000000000000000000000000815273ffffffffffffffffffffffffffffffffffffffff848116600483015260248201849052606092169063f724dad790604401600060405180830381865afa158015612cd1573d6000803e3d6000fd5b505050506040513d6000823e601f3d9081017fffffffffffffffffffffffffffffffffffffffffffffffffffffffffffffffe01682016040526123de9190810190614780565b60008381526020858152604080832073ffffffffffffffffffffffffffffffffffffffff8616845290915290205460ff161561083b5760008381526020858152604080832073ffffffffffffffffffffffffffffffffffffffff8681168086529184529382902080547fffffffffffffffffffffffffffffffffffffffffffffffffffffffffffffff00169055815187815292830152918316918101919091527ff6391f5c32d9c69d2a47ea670b442974b53935d1edc7fd64eb21e047a839171b90606001611ed9565b6000612dee8685876138e3565b90508160005b8181101561302e576000858583818110612e1057612e106144bc565b602090810292909201356000818152928c90526040909220549192505073ffffffffffffffffffffffffffffffffffffffff8116612e7d576040517fdd56047500000000000000000000000000000000000000000000000000000000815260048101839052602401610ed9565b73ffffffffffffffffffffffffffffffffffffffff88168173ffffffffffffffffffffffffffffffffffffffff1614612f01576040517f14dbb53600000000000000000000000000000000000000000000000000000000815273ffffffffffffffffffffffffffffffffffffffff8916600482015260248101839052604401610ed9565b84612fb1577401000000000000000000000000000000000000000081161580612f535750600082815260028b01602052604090205473ffffffffffffffffffffffffffffffffffffffff8a8116911614155b15612fb1576040517fa4a3018b00000000000000000000000000000000000000000000000000000000815273ffffffffffffffffffffffffffffffffffffffff808b1660048301528916602482015260448101839052606401610ed9565b600082815260208b905260408082207fdead00000000000000000000000000000000000000000000000000000000000090555183919073ffffffffffffffffffffffffffffffffffffffff8b16907fddf252ad1be2c89b69c2b068fc378daa952ba7f163c4a11628f55a4df523b3ef908390a45050600101612df4565b508015612c185773ffffffffffffffffffffffffffffffffffffffff8516600090815260018801602052604090208054829003905550505050505050565b825473ffffffffffffffffffffffffffffffffffffffff90811690831681146130d9576040517f2ef4875e00000000000000000000000000000000000000000000000000000000815273ffffffffffffffffffffffffffffffffffffffff84166004820152602401610ed9565b8173ffffffffffffffffffffffffffffffffffffffff168173ffffffffffffffffffffffffffffffffffffffff161461083b5783547fffffffffffffffffffffffff00000000000000000000000000000000000000001673ffffffffffffffffffffffffffffffffffffffff8381169182178655604051908316907f8be0079c531659141344cd1fd0a4f28419497f9722a3daafe3b4186f6b6457e090600090a350505050565b73ffffffffffffffffffffffffffffffffffffffff83166131cd576040517f86c8706700000000000000000000000000000000000000000000000000000000815260040160405180910390fd5b60006131da8786886138e3565b90508160005b818110156133fe5760008585838181106131fc576131fc6144bc565b602090810292909201356000818152928d90526040909220549192505073ffffffffffffffffffffffffffffffffffffffff8116613269576040517fdd56047500000000000000000000000000000000000000000000000000000000815260048101839052602401610ed9565b73ffffffffffffffffffffffffffffffffffffffff89168173ffffffffffffffffffffffffffffffffffffffff16146132ed576040517f14dbb53600000000000000000000000000000000000000000000000000000000815273ffffffffffffffffffffffffffffffffffffffff8a16600482015260248101839052604401610ed9565b8461339d57740100000000000000000000000000000000000000008116158061333f5750600082815260028c01602052604090205473ffffffffffffffffffffffffffffffffffffffff8b8116911614155b1561339d576040517fa4a3018b00000000000000000000000000000000000000000000000000000000815273ffffffffffffffffffffffffffffffffffffffff808c1660048301528a16602482015260448101839052606401610ed9565b600082815260208c9052604080822073ffffffffffffffffffffffffffffffffffffffff808c16918290559151859391928d16917fddf252ad1be2c89b69c2b068fc378daa952ba7f163c4a11628f55a4df523b3ef91a450506001016131e0565b508473ffffffffffffffffffffffffffffffffffffffff168673ffffffffffffffffffffffffffffffffffffffff161415801561343a57508015155b15610abc5773ffffffffffffffffffffffffffffffffffffffff808716600090815260018a016020526040808220805485900390559187168152208054820190555050505050505050565b804710156134ef576040517f08c379a000000000000000000000000000000000000000000000000000000000815260206004820152601d60248201527f416464726573733a20696e73756666696369656e742062616c616e63650000006044820152606401610ed9565b60008273ffffffffffffffffffffffffffffffffffffffff168260405160006040518083038185875af1925050503d8060008114613549576040519150601f19603f3d011682016040523d82523d6000602084013e61354e565b606091505b5050905080610892576040517f08c379a000000000000000000000000000000000000000000000000000000000815260206004820152603a60248201527f416464726573733a20756e61626c6520746f2073656e642076616c75652c207260448201527f6563697069656e74206d617920686176652072657665727465640000000000006064820152608401610ed9565b60608160000180546135f090614579565b80601f016020809104026020016040519081016040528092919081815260200182805461361c90614579565b80156136695780601f1061363e57610100808354040283529160200191613669565b820191906000526020600020905b81548152906001019060200180831161364c57829003601f168201915b50505050509050919050565b815473ffffffffffffffffffffffffffffffffffffffff1680158015906136b3575060008173ffffffffffffffffffffffffffffffffffffffff163b115b15610892576040517fc617113400000000000000000000000000000000000000000000000000000000815230600482015273ffffffffffffffffffffffffffffffffffffffff838116602483015282169063c617113490604401602060405180830381865afa15801561372a573d6000803e3d6000fd5b505050506040513d601f19601f8201168201806040525081019061374e91906144eb565b610892576040517fede71dcc00000000000000000000000000000000000000000000000000000000815273ffffffffffffffffffffffffffffffffffffffff83166004820152602401610ed9565b6000333214806137ac5750601836105b156137b657503390565b7fffffffffffffffffffffffffffffffffffffffffffffffffffffffffffffffec36013560601c7f000000000000000000000000000000000000000000000000000000000000000073ffffffffffffffffffffffffffffffffffffffff163314806138d257506040517f8929a8ca00000000000000000000000000000000000000000000000000000000815273ffffffffffffffffffffffffffffffffffffffff82811660048301523360248301527f00000000000000000000000000000000000000000000000000000000000000001690638929a8ca90604401602060405180830381865afa1580156138ae573d6000803e3d6000fd5b505050506040513d601f19601f820116820180604052508101906138d291906144eb565b156138dc57919050565b3391505090565b60008173ffffffffffffffffffffffffffffffffffffffff168373ffffffffffffffffffffffffffffffffffffffff1614806123de57505073ffffffffffffffffffffffffffffffffffffffff9182166000908152600393909301602090815260408085209290931684525290205460ff1690565b8154829082811061399f576040517fbf0c18ec0000000000000000000000000000000000000000000000000000000081526004810182905260248101849052604401610ed9565b505550565b73ffffffffffffffffffffffffffffffffffffffff811615613a2c5781547fffffffffffffffffffffffff00000000000000000000000000000000000000001673ffffffffffffffffffffffffffffffffffffffff821690811783556040516000907f8be0079c531659141344cd1fd0a4f28419497f9722a3daafe3b4186f6b6457e0908290a35b61070f7f7f5828d00000000000000000000000000000000000000000000000000000000060016117306111dc565b7c01000000000000000000000000000000000000000000000000000000007fffffffff00000000000000000000000000000000000000000000000000000000831601613ad2576040517f72c683bb00000000000000000000000000000000000000000000000000000000815260040160405180910390fd5b7fffffffff00000000000000000000000000000000000000000000000000000000919091166000908152602092909252604090912080547fffffffffffffffffffffffffffffffffffffffffffffffffffffffffffffff0016911515919091179055565b6040517f150b7a02000000000000000000000000000000000000000000000000000000008082529073ffffffffffffffffffffffffffffffffffffffff85169063150b7a0290613b90908990899088908890600401614840565b6020604051808303816000875af1158015613baf573d6000803e3d6000fd5b505050506040513d601f19601f82011682018060405250810190613bd39190614889565b7fffffffff00000000000000000000000000000000000000000000000000000000161461111e576040517fc215a7a100000000000000000000000000000000000000000000000000000000815273ffffffffffffffffffffffffffffffffffffffff8416600482015260248101839052604401610ed9565b6000613cad826040518060400160405280602081526020017f5361666545524332303a206c6f772d6c6576656c2063616c6c206661696c65648152508573ffffffffffffffffffffffffffffffffffffffff16613d6b9092919063ffffffff16565b9050805160001480613cce575080806020019051810190613cce91906144eb565b610892576040517f08c379a000000000000000000000000000000000000000000000000000000000815260206004820152602a60248201527f5361666545524332303a204552433230206f7065726174696f6e20646964206e60448201527f6f742073756363656564000000000000000000000000000000000000000000006064820152608401610ed9565b60608160010180546135f090614579565b60606123de8484600085856000808673ffffffffffffffffffffffffffffffffffffffff168587604051613d9f91906148a6565b60006040518083038185875af1925050503d8060008114613ddc576040519150601f19603f3d011682016040523d82523d6000602084013e613de1565b606091505b5091509150613df287838387613dfd565b979650505050505050565b60608315613e93578251600003613e8c5773ffffffffffffffffffffffffffffffffffffffff85163b613e8c576040517f08c379a000000000000000000000000000000000000000000000000000000000815260206004820152601d60248201527f416464726573733a2063616c6c20746f206e6f6e2d636f6e74726163740000006044820152606401610ed9565b50816123de565b6123de8383815115613ea85781518083602001fd5b806040517f08c379a0000000000000000000000000000000000000000000000000000000008152600401610ed99190613f95565b7fffffffff000000000000000000000000000000000000000000000000000000008116811461080057600080fd5b600060208284031215613f1c57600080fd5b8135610c0881613edc565b60005b83811015613f42578181015183820152602001613f2a565b50506000910152565b60008151808452613f63816020860160208601613f27565b601f017fffffffffffffffffffffffffffffffffffffffffffffffffffffffffffffffe0169290920160200192915050565b602081526000610c086020830184613f4b565b600060208284031215613fba57600080fd5b5035919050565b73ffffffffffffffffffffffffffffffffffffffff8116811461080057600080fd5b60008060408385031215613ff657600080fd5b823561400181613fc1565b946020939093013593505050565b60008083601f84011261402157600080fd5b50813567ffffffffffffffff81111561403957600080fd5b60208301915083602082850101111561085d57600080fd5b6000806000806000806080878903121561406a57600080fd5b863567ffffffffffffffff8082111561408257600080fd5b61408e8a838b0161400f565b909850965060208901359150808211156140a757600080fd5b506140b489828a0161400f565b90955093505060408701356140c881613fc1565b915060608701356140d881613fc1565b809150509295509295509295565b6000602082840312156140f857600080fd5b8135610c0881613fc1565b60008060006060848603121561411857600080fd5b833561412381613fc1565b9250602084013561413381613fc1565b929592945050506040919091013590565b6000806040838503121561415757600080fd5b50508035926020909101359150565b6000806040838503121561417957600080fd5b82359150602083013561418b81613fc1565b809150509250929050565b60008083601f8401126141a857600080fd5b50813567ffffffffffffffff8111156141c057600080fd5b6020830191508360208260051b850101111561085d57600080fd5b6000806000604084860312156141f057600080fd5b83356141fb81613fc1565b9250602084013567ffffffffffffffff81111561421757600080fd5b61422386828701614196565b9497909650939450505050565b6000806000806000806060878903121561424957600080fd5b863567ffffffffffffffff8082111561426157600080fd5b61426d8a838b01614196565b9098509650602089013591508082111561428657600080fd5b6142928a838b01614196565b909650945060408901359150808211156142ab57600080fd5b506142b889828a01614196565b979a9699509497509295939492505050565b600080600080606085870312156142e057600080fd5b84356142eb81613fc1565b935060208501359250604085013567ffffffffffffffff81111561430e57600080fd5b61431a8782880161400f565b95989497509550505050565b6000806000806040858703121561433c57600080fd5b843567ffffffffffffffff8082111561435457600080fd5b61436088838901614196565b9096509450602087013591508082111561437957600080fd5b5061431a87828801614196565b801515811461080057600080fd5b600080604083850312156143a757600080fd5b82356143b281613fc1565b9150602083013561418b81614386565b6000806000806000608086880312156143da57600080fd5b85356143e581613fc1565b945060208601356143f581613fc1565b935060408601359250606086013567ffffffffffffffff81111561441857600080fd5b6144248882890161400f565b969995985093965092949392505050565b6000806040838503121561444857600080fd5b823561445381613fc1565b9150602083013561418b81613fc1565b6000806000806060858703121561447957600080fd5b843561448481613fc1565b9350602085013561449481613fc1565b9250604085013567ffffffffffffffff8111156144b057600080fd5b61431a87828801614196565b7f4e487b7100000000000000000000000000000000000000000000000000000000600052603260045260246000fd5b6000602082840312156144fd57600080fd5b8151610c0881614386565b7f4e487b7100000000000000000000000000000000000000000000000000000000600052601160045260246000fd5b8181038181111561069b5761069b614508565b7f4e487b7100000000000000000000000000000000000000000000000000000000600052604160045260246000fd5b600181811c9082168061458d57607f821691505b6020821081036145c6577f4e487b7100000000000000000000000000000000000000000000000000000000600052602260045260246000fd5b50919050565b601f821115610892576000816000526020600020601f850160051c810160208610156145f55750805b601f850160051c820191505b8181101561079057828155600101614601565b67ffffffffffffffff83111561462c5761462c61454a565b6146408361463a8354614579565b836145cc565b6000601f841160018114614692576000851561465c5750838201355b7fffffffffffffffffffffffffffffffffffffffffffffffffffffffffffffffff600387901b1c1916600186901b17835561111e565b6000838152602090207fffffffffffffffffffffffffffffffffffffffffffffffffffffffffffffffe0861690835b828110156146e157868501358255602094850194600190920191016146c1565b508682101561471c577fffffffffffffffffffffffffffffffffffffffffffffffffffffffffffffffff60f88860031b161c19848701351681555b505060018560011b0183555050505050565b808202811582820484141761069b5761069b614508565b60008261477b577f4e487b7100000000000000000000000000000000000000000000000000000000600052601260045260246000fd5b500490565b60006020828403121561479257600080fd5b815167ffffffffffffffff808211156147aa57600080fd5b818401915084601f8301126147be57600080fd5b8151818111156147d0576147d061454a565b604051601f82017fffffffffffffffffffffffffffffffffffffffffffffffffffffffffffffffe0908116603f011681019083821181831017156148165761481661454a565b8160405282815287602084870101111561482f57600080fd5b613df2836020830160208801613f27565b600073ffffffffffffffffffffffffffffffffffffffff80871683528086166020840152508360408301526080606083015261487f6080830184613f4b565b9695505050505050565b60006020828403121561489b57600080fd5b8151610c0881613edc565b600082516148b8818460208701613f27565b919091019291505056fea26469706673582212208590bb457b43193ae9f2ae3ba94ee1f311c4c2c8d6724116868f5189be5b373c64736f6c63430008160033",
  "linkReferences": {},
  "deployedLinkReferences": {}
}