{
  "_format": "hh-sol-artifact-1",
  "contractName": "ContractOwnershipFacet",
  "sourceName": "contracts/access/ContractOwnershipFacet.sol",
  "abi": [
    {
      "inputs": [
        {
          "internalType": "contract IForwarderRegistry",
          "name": "forwarderRegistry",
          "type": "address"
        }
      ],
      "stateMutability": "nonpayable",
      "type": "constructor"
    },
    {
      "anonymous": false,
      "inputs": [
        {
          "indexed": true,
          "internalType": "address",
          "name": "previousOwner",
          "type": "address"
        },
        {
          "indexed": true,
          "internalType": "address",
          "name": "newOwner",
          "type": "address"
        }
      ],
      "name": "OwnershipTransferred",
      "type": "event"
    },
    {
      "inputs": [
        {
          "internalType": "address",
          "name": "initialOwner",
          "type": "address"
        }
      ],
      "name": "initContractOwnershipStorage",
      "outputs": [],
      "stateMutability": "nonpayable",
      "type": "function"
    },
    {
      "inputs": [],
      "name": "owner",
      "outputs": [
        {
          "internalType": "address",
          "name": "",
          "type": "address"
        }
      ],
      "stateMutability": "view",
      "type": "function"
    },
    {
      "inputs": [
        {
          "internalType": "address",
          "name": "newOwner",
          "type": "address"
        }
      ],
      "name": "transferOwnership",
      "outputs": [],
      "stateMutability": "nonpayable",
      "type": "function"
    }
  ],
  "bytecode": "0x60a060405234801561001057600080fd5b5060405161087638038061087683398101604081905261002f91610040565b6001600160a01b0316608052610070565b60006020828403121561005257600080fd5b81516001600160a01b038116811461006957600080fd5b9392505050565b6080516107e461009260003960008181610467015261050701526107e46000f3fe608060405234801561001057600080fd5b50600436106100415760003560e01c806363e340d6146100465780638da5cb5b1461005b578063f2fde38b1461008c575b600080fd5b610059610054366004610711565b61009f565b005b6100636100cd565b60405173ffffffffffffffffffffffffffffffffffffffff909116815260200160405180910390f35b61005961009a366004610711565b6100f9565b6100b86100aa610114565b6100b261011e565b90610152565b6100ca816100c46101de565b9061020c565b50565b60006100f46100da6101de565b5473ffffffffffffffffffffffffffffffffffffffff1690565b905090565b6100ca610104610114565b8261010d6101de565b91906102fe565b60006100f461042b565b60008061014c60017fb53127684a568b3173ae13b9f8a6016e243e63b6e8ee1178d6a717850b5d610461074e565b92915050565b815473ffffffffffffffffffffffffffffffffffffffff8281169116146101da576040517f08c379a000000000000000000000000000000000000000000000000000000000815260206004820152601960248201527f50726f787941646d696e3a206e6f74207468652061646d696e0000000000000060448201526064015b60405180910390fd5b5050565b60008061014c60017fc9ed16f33ab3a66c84bfd83099ccb2a8845871e2e1c1928f63797152f0fd54cd61074e565b61024161023a60017fee885d75c0137bd61d17159c129386ad43dafce94360ecf87196edc1ebf47f8a61074e565b6001610583565b73ffffffffffffffffffffffffffffffffffffffff8116156102c95781547fffffffffffffffffffffffff00000000000000000000000000000000000000001673ffffffffffffffffffffffffffffffffffffffff821690811783556040516000907f8be0079c531659141344cd1fd0a4f28419497f9722a3daafe3b4186f6b6457e0908290a35b6101da7f7f5828d00000000000000000000000000000000000000000000000000000000060016102f76105f3565b9190610621565b825473ffffffffffffffffffffffffffffffffffffffff9081169083168114610383576040517f08c379a000000000000000000000000000000000000000000000000000000000815260206004820152601860248201527f4f776e6572736869703a206e6f7420746865206f776e6572000000000000000060448201526064016101d1565b8173ffffffffffffffffffffffffffffffffffffffff168173ffffffffffffffffffffffffffffffffffffffff16146104255783547fffffffffffffffffffffffff00000000000000000000000000000000000000001673ffffffffffffffffffffffffffffffffffffffff8381169182178655604051908316907f8be0079c531659141344cd1fd0a4f28419497f9722a3daafe3b4186f6b6457e090600090a35b50505050565b60003332810361043a57919050565b6000367fffffffffffffffffffffffffffffffffffffffffffffffffffffffffffffffec013560601c90507f000000000000000000000000000000000000000000000000000000000000000073ffffffffffffffffffffffffffffffffffffffff168273ffffffffffffffffffffffffffffffffffffffff16148061057257506040517fe60125d600000000000000000000000000000000000000000000000000000000815273ffffffffffffffffffffffffffffffffffffffff828116600483015283811660248301527f0000000000000000000000000000000000000000000000000000000000000000169063e60125d690604401602060405180830381865afa15801561054e573d6000803e3d6000fd5b505050506040513d601f19601f82011682018060405250810190610572919061078c565b1561057d5792915050565b50919050565b8154829082116105ef576040517f08c379a000000000000000000000000000000000000000000000000000000000815260206004820152601860248201527f53746f726167653a2076657273696f6e2072656163686564000000000000000060448201526064016101d1565b5550565b60008061014c60017fca9d3e17f264b0f3984e2634e94adb37fa3e6a8103f06aeae6fa59e21c769f5e61074e565b7fffffffff0000000000000000000000000000000000000000000000000000000080831690036106ad576040517f08c379a000000000000000000000000000000000000000000000000000000000815260206004820152601f60248201527f496e74657266616365446574656374696f6e3a2077726f6e672076616c75650060448201526064016101d1565b7fffffffff00000000000000000000000000000000000000000000000000000000919091166000908152602092909252604090912080547fffffffffffffffffffffffffffffffffffffffffffffffffffffffffffffff0016911515919091179055565b60006020828403121561072357600080fd5b813573ffffffffffffffffffffffffffffffffffffffff8116811461074757600080fd5b9392505050565b600082821015610787577f4e487b7100000000000000000000000000000000000000000000000000000000600052601160045260246000fd5b500390565b60006020828403121561079e57600080fd5b8151801515811461074757600080fdfea2646970667358221220624f11c5b01ac3cfea6dc949ed4c3daf3a36c0bd71f967b5548f9afa2f803dbc64736f6c634300080e0033",
  "linkReferences": {},
  "deployedLinkReferences": {}
}