{
  "_format": "hh-sol-artifact-1",
  "contractName": "ERC20SafeTransfersFacet",
  "sourceName": "contracts/token/ERC20/facets/ERC20SafeTransfersFacet.sol",
  "abi": [
    {
      "inputs": [
        {
          "internalType": "contract IForwarderRegistry",
          "name": "forwarderRegistry",
          "type": "address"
        }
      ],
      "stateMutability": "nonpayable",
      "type": "constructor"
    },
    {
      "inputs": [
        {
          "internalType": "address",
          "name": "owner",
          "type": "address"
        }
      ],
      "name": "ERC20ApprovalToAddressZero",
      "type": "error"
    },
    {
      "inputs": [
        {
          "internalType": "address",
          "name": "owner",
          "type": "address"
        },
        {
          "internalType": "address",
          "name": "spender",
          "type": "address"
        },
        {
          "internalType": "uint256",
          "name": "allowance",
          "type": "uint256"
        },
        {
          "internalType": "uint256",
          "name": "decrement",
          "type": "uint256"
        }
      ],
      "name": "ERC20InsufficientAllowance",
      "type": "error"
    },
    {
      "inputs": [
        {
          "internalType": "address",
          "name": "owner",
          "type": "address"
        },
        {
          "internalType": "uint256",
          "name": "balance",
          "type": "uint256"
        },
        {
          "internalType": "uint256",
          "name": "value",
          "type": "uint256"
        }
      ],
      "name": "ERC20InsufficientBalance",
      "type": "error"
    },
    {
      "inputs": [
        {
          "internalType": "address",
          "name": "recipient",
          "type": "address"
        }
      ],
      "name": "ERC20SafeTransferRejected",
      "type": "error"
    },
    {
      "inputs": [
        {
          "internalType": "address",
          "name": "owner",
          "type": "address"
        }
      ],
      "name": "ERC20TransferToAddressZero",
      "type": "error"
    },
    {
      "inputs": [],
      "name": "IllegalInterfaceId",
      "type": "error"
    },
    {
      "inputs": [
        {
          "internalType": "address",
          "name": "account",
          "type": "address"
        }
      ],
      "name": "NotProxyAdmin",
      "type": "error"
    },
    {
      "anonymous": false,
      "inputs": [
        {
          "indexed": true,
          "internalType": "address",
          "name": "owner",
          "type": "address"
        },
        {
          "indexed": true,
          "internalType": "address",
          "name": "spender",
          "type": "address"
        },
        {
          "indexed": false,
          "internalType": "uint256",
          "name": "value",
          "type": "uint256"
        }
      ],
      "name": "Approval",
      "type": "event"
    },
    {
      "anonymous": false,
      "inputs": [
        {
          "indexed": true,
          "internalType": "address",
          "name": "from",
          "type": "address"
        },
        {
          "indexed": true,
          "internalType": "address",
          "name": "to",
          "type": "address"
        },
        {
          "indexed": false,
          "internalType": "uint256",
          "name": "value",
          "type": "uint256"
        }
      ],
      "name": "Transfer",
      "type": "event"
    },
    {
      "inputs": [],
      "name": "initERC20SafeTransfersStorage",
      "outputs": [],
      "stateMutability": "nonpayable",
      "type": "function"
    },
    {
      "inputs": [
        {
          "internalType": "address",
          "name": "to",
          "type": "address"
        },
        {
          "internalType": "uint256",
          "name": "value",
          "type": "uint256"
        },
        {
          "internalType": "bytes",
          "name": "data",
          "type": "bytes"
        }
      ],
      "name": "safeTransfer",
      "outputs": [
        {
          "internalType": "bool",
          "name": "",
          "type": "bool"
        }
      ],
      "stateMutability": "nonpayable",
      "type": "function"
    },
    {
      "inputs": [
        {
          "internalType": "address",
          "name": "from",
          "type": "address"
        },
        {
          "internalType": "address",
          "name": "to",
          "type": "address"
        },
        {
          "internalType": "uint256",
          "name": "value",
          "type": "uint256"
        },
        {
          "internalType": "bytes",
          "name": "data",
          "type": "bytes"
        }
      ],
      "name": "safeTransferFrom",
      "outputs": [
        {
          "internalType": "bool",
          "name": "",
          "type": "bool"
        }
      ],
      "stateMutability": "nonpayable",
      "type": "function"
    }
  ],
  "bytecode": "0x60a060405234801561000f575f80fd5b50604051610d7d380380610d7d83398101604081905261002e9161003f565b6001600160a01b031660805261006c565b5f6020828403121561004f575f80fd5b81516001600160a01b0381168114610065575f80fd5b9392505050565b608051610cf261008b5f395f818161034801526103d00152610cf25ff3fe608060405234801561000f575f80fd5b506004361061003f575f3560e01c8063b88d4fde14610043578063d294f8eb1461006a578063eb79554914610074575b5f80fd5b610056610051366004610ac5565b610087565b604051901515815260200160405180910390f35b6100726100b7565b005b610056610082366004610b2f565b6100da565b5f6100ab610093610107565b87878787876100a0610115565b959493929190610148565b50600195945050505050565b6100d06100c2610107565b6100ca6101bd565b906101ea565b6100d861025e565b565b5f6100fc6100e6610107565b868686866100f2610115565b9493929190610293565b506001949350505050565b5f610110610306565b905090565b5f8061014260017f1da92899d3da68bf9787824388a37ea2bfa79780bcef91b9716c390eec8ecbef610b85565b92915050565b610155878787878761044a565b73ffffffffffffffffffffffffffffffffffffffff84163b156101b4576101b48686868686868080601f0160208091040260200160405190810160405280939291908181526020018383808284375f9201919091525061049c92505050565b50505050505050565b5f8061014260017fb53127684a568b3173ae13b9f8a6016e243e63b6e8ee1178d6a717850b5d6104610b85565b815473ffffffffffffffffffffffffffffffffffffffff82811691161461025a576040517f673a31a100000000000000000000000000000000000000000000000000000000815273ffffffffffffffffffffffffffffffffffffffff821660048201526024015b60405180910390fd5b5050565b6100d87f53f41a9700000000000000000000000000000000000000000000000000000000600161028c6105a7565b91906105d4565b61029f868686866106af565b73ffffffffffffffffffffffffffffffffffffffff84163b156102fe576102fe8586868686868080601f0160208091040260200160405190810160405280939291908181526020018383808284375f9201919091525061049c92505050565b505050505050565b5f333214806103155750601836105b1561031f57503390565b7fffffffffffffffffffffffffffffffffffffffffffffffffffffffffffffffec36013560601c7f000000000000000000000000000000000000000000000000000000000000000073ffffffffffffffffffffffffffffffffffffffff1633148061043957506040517f8929a8ca00000000000000000000000000000000000000000000000000000000815273ffffffffffffffffffffffffffffffffffffffff82811660048301523360248301527f00000000000000000000000000000000000000000000000000000000000000001690638929a8ca90604401602060405180830381865afa158015610415573d5f803e3d5ffd5b505050506040513d601f19601f820116820180604052508101906104399190610bbd565b1561044357919050565b3391505090565b8373ffffffffffffffffffffffffffffffffffffffff168373ffffffffffffffffffffffffffffffffffffffff1614610489576104898584868461087a565b610495858484846106af565b5050505050565b6040517f4fc35859000000000000000000000000000000000000000000000000000000008082529073ffffffffffffffffffffffffffffffffffffffff851690634fc35859906104f6908990899088908890600401610be3565b6020604051808303815f875af1158015610512573d5f803e3d5ffd5b505050506040513d601f19601f820116820180604052508101906105369190610c7d565b7fffffffff000000000000000000000000000000000000000000000000000000001614610495576040517f6d44973600000000000000000000000000000000000000000000000000000000815273ffffffffffffffffffffffffffffffffffffffff84166004820152602401610251565b5f8061014260017fca9d3e17f264b0f3984e2634e94adb37fa3e6a8103f06aeae6fa59e21c769f5e610b85565b7c01000000000000000000000000000000000000000000000000000000007fffffffff0000000000000000000000000000000000000000000000000000000083160161064c576040517f72c683bb00000000000000000000000000000000000000000000000000000000815260040160405180910390fd5b7fffffffff00000000000000000000000000000000000000000000000000000000919091165f908152602092909252604090912080547fffffffffffffffffffffffffffffffffffffffffffffffffffffffffffffff0016911515919091179055565b73ffffffffffffffffffffffffffffffffffffffff8216610714576040517f754f425b00000000000000000000000000000000000000000000000000000000815273ffffffffffffffffffffffffffffffffffffffff84166004820152602401610251565b801561080d5773ffffffffffffffffffffffffffffffffffffffff83165f908152602085905260409020548181038181106107a1576040517fe450d38c00000000000000000000000000000000000000000000000000000000815273ffffffffffffffffffffffffffffffffffffffff861660048201526024810183905260448101849052606401610251565b8373ffffffffffffffffffffffffffffffffffffffff168573ffffffffffffffffffffffffffffffffffffffff161461080a5773ffffffffffffffffffffffffffffffffffffffff8086165f908152602088905260408082208490559186168152208054840190555b50505b8173ffffffffffffffffffffffffffffffffffffffff168373ffffffffffffffffffffffffffffffffffffffff167fddf252ad1be2c89b69c2b068fc378daa952ba7f163c4a11628f55a4df523b3ef8360405161086c91815260200190565b60405180910390a350505050565b73ffffffffffffffffffffffffffffffffffffffff82166108df576040517ff7e1ac0f00000000000000000000000000000000000000000000000000000000815273ffffffffffffffffffffffffffffffffffffffff84166004820152602401610251565b73ffffffffffffffffffffffffffffffffffffffff8084165f9081526001860160209081526040808320938616835292905220547fffffffffffffffffffffffffffffffffffffffffffffffffffffffffffffffff811480159061094257508115155b156109ea578181038181106109b1576040517f137ad6ab00000000000000000000000000000000000000000000000000000000815273ffffffffffffffffffffffffffffffffffffffff8087166004830152851660248201526044810183905260648101849052608401610251565b73ffffffffffffffffffffffffffffffffffffffff8086165f908152600188016020908152604080832093881683529290522081905590505b8273ffffffffffffffffffffffffffffffffffffffff168473ffffffffffffffffffffffffffffffffffffffff167f8c5be1e5ebec7d5bd14f71427d1e84f3dd0314c0f7b2291e5b200ac8c7c3b92583604051610a4991815260200190565b60405180910390a35050505050565b803573ffffffffffffffffffffffffffffffffffffffff81168114610a7b575f80fd5b919050565b5f8083601f840112610a90575f80fd5b50813567ffffffffffffffff811115610aa7575f80fd5b602083019150836020828501011115610abe575f80fd5b9250929050565b5f805f805f60808688031215610ad9575f80fd5b610ae286610a58565b9450610af060208701610a58565b935060408601359250606086013567ffffffffffffffff811115610b12575f80fd5b610b1e88828901610a80565b969995985093965092949392505050565b5f805f8060608587031215610b42575f80fd5b610b4b85610a58565b935060208501359250604085013567ffffffffffffffff811115610b6d575f80fd5b610b7987828801610a80565b95989497509550505050565b81810381811115610142577f4e487b71000000000000000000000000000000000000000000000000000000005f52601160045260245ffd5b5f60208284031215610bcd575f80fd5b81518015158114610bdc575f80fd5b9392505050565b5f73ffffffffffffffffffffffffffffffffffffffff808716835260208187168185015285604085015260806060850152845191508160808501525f5b82811015610c3c5785810182015185820160a001528101610c20565b50505f60a0828501015260a07fffffffffffffffffffffffffffffffffffffffffffffffffffffffffffffffe0601f83011684010191505095945050505050565b5f60208284031215610c8d575f80fd5b81517fffffffff0000000000000000000000000000000000000000000000000000000081168114610bdc575f80fdfea2646970667358221220f53125af957375f1ceaf17f77d0a17bc2a86a23fd24d48cf4baecee0a3d614b064736f6c63430008150033",
  "linkReferences": {},
  "deployedLinkReferences": {}
}