{
  "_format": "hh-sol-artifact-1",
  "contractName": "ERC1155MetadataFacet",
  "sourceName": "contracts/token/ERC1155/facets/ERC1155MetadataFacet.sol",
  "abi": [
    {
      "inputs": [
        {
          "internalType": "contract IForwarderRegistry",
          "name": "forwarderRegistry",
          "type": "address"
        }
      ],
      "stateMutability": "nonpayable",
      "type": "constructor"
    },
    {
      "inputs": [
        {
          "internalType": "string",
          "name": "name",
          "type": "string"
        },
        {
          "internalType": "string",
          "name": "symbol",
          "type": "string"
        },
        {
          "internalType": "contract ITokenMetadataResolver",
          "name": "metadataResolver",
          "type": "address"
        }
      ],
      "name": "initERC1155MetadataStorage",
      "outputs": [],
      "stateMutability": "nonpayable",
      "type": "function"
    },
    {
      "inputs": [],
      "name": "metadataResolver",
      "outputs": [
        {
          "internalType": "contract ITokenMetadataResolver",
          "name": "tokenMetadataResolver",
          "type": "address"
        }
      ],
      "stateMutability": "view",
      "type": "function"
    },
    {
      "inputs": [],
      "name": "name",
      "outputs": [
        {
          "internalType": "string",
          "name": "tokenName",
          "type": "string"
        }
      ],
      "stateMutability": "view",
      "type": "function"
    },
    {
      "inputs": [],
      "name": "symbol",
      "outputs": [
        {
          "internalType": "string",
          "name": "tokenSymbol",
          "type": "string"
        }
      ],
      "stateMutability": "view",
      "type": "function"
    },
    {
      "inputs": [
        {
          "internalType": "uint256",
          "name": "tokenId",
          "type": "uint256"
        }
      ],
      "name": "uri",
      "outputs": [
        {
          "internalType": "string",
          "name": "metadataURI",
          "type": "string"
        }
      ],
      "stateMutability": "view",
      "type": "function"
    }
  ],
  "bytecode": "0x60a060405234801561000f575f80fd5b50604051610cd1380380610cd183398101604081905261002e9161003f565b6001600160a01b031660805261006c565b5f6020828403121561004f575f80fd5b81516001600160a01b0381168114610065575f80fd5b9392505050565b608051610c4661008b5f395f818161035901526103e10152610c465ff3fe608060405234801561000f575f80fd5b5060043610610064575f3560e01c8063345c14ad1161004d578063345c14ad1461009957806395d89b41146100ae578063a0c76f62146100b6575f80fd5b806306fdde03146100685780630e89341c14610086575b5f80fd5b6100706100e3565b60405161007d91906107c7565b60405180910390f35b610070610094366004610817565b6100fa565b6100ac6100a7366004610873565b610116565b005b610070610158565b6100be61016a565b60405173ffffffffffffffffffffffffffffffffffffffff909116815260200161007d565b60606100f56100f0610193565b6101c0565b905090565b60606101103083610109610193565b9190610253565b92915050565b61012f610121610317565b61012961045b565b90610488565b610149858585858561013f610193565b9493929190610514565b6101516105b5565b5050505050565b60606100f5610165610193565b6105ec565b5f6100f5610176610193565b6002015473ffffffffffffffffffffffffffffffffffffffff1690565b5f8061011060017f7ea68fd2dcf1c056b94db6a0a537aa80d26fa9ab1eacd85da1ba0b61b7e7a8a5610909565b6060815f0180546101d090610941565b80601f01602080910402602001604051908101604052809291908181526020018280546101fc90610941565b80156102475780601f1061021e57610100808354040283529160200191610247565b820191905f5260205f20905b81548152906001019060200180831161022a57829003601f168201915b50505050509050919050565b60028301546040517ff724dad700000000000000000000000000000000000000000000000000000000815273ffffffffffffffffffffffffffffffffffffffff848116600483015260248201849052606092169063f724dad7906044015f60405180830381865afa1580156102ca573d5f803e3d5ffd5b505050506040513d5f823e601f3d9081017fffffffffffffffffffffffffffffffffffffffffffffffffffffffffffffffe016820160405261030f91908101906109bf565b949350505050565b5f333214806103265750601836105b1561033057503390565b7fffffffffffffffffffffffffffffffffffffffffffffffffffffffffffffffec36013560601c7f000000000000000000000000000000000000000000000000000000000000000073ffffffffffffffffffffffffffffffffffffffff1633148061044a57506040517f8929a8ca00000000000000000000000000000000000000000000000000000000815273ffffffffffffffffffffffffffffffffffffffff82811660048301523360248301527f00000000000000000000000000000000000000000000000000000000000000001690638929a8ca90604401602060405180830381865afa158015610426573d5f803e3d5ffd5b505050506040513d601f19601f8201168201806040525081019061044a9190610a85565b1561045457919050565b3391505090565b5f8061011060017fb53127684a568b3173ae13b9f8a6016e243e63b6e8ee1178d6a717850b5d6104610909565b815473ffffffffffffffffffffffffffffffffffffffff828116911614610510576040517f08c379a000000000000000000000000000000000000000000000000000000000815260206004820152601960248201527f50726f787941646d696e3a206e6f74207468652061646d696e0000000000000060448201526064015b60405180910390fd5b5050565b61054961054260017f92f72593ca50a0096f68ee94e7000db40ed086164b695855e2250750b8bfaf59610909565b60016105fd565b85610555858783610af9565b5060018601610565838583610af9565b5060029590950180547fffffffffffffffffffffffff00000000000000000000000000000000000000001673ffffffffffffffffffffffffffffffffffffffff9096169590951790945550505050565b6105ea7f0e89341c0000000000000000000000000000000000000000000000000000000060016105e361066d565b919061069a565b565b60608160010180546101d090610941565b815482908211610669576040517f08c379a000000000000000000000000000000000000000000000000000000000815260206004820152601660248201527f53746f726167653a2070686173652072656163686564000000000000000000006044820152606401610507565b5550565b5f8061011060017fca9d3e17f264b0f3984e2634e94adb37fa3e6a8103f06aeae6fa59e21c769f5e610909565b7c01000000000000000000000000000000000000000000000000000000007fffffffff00000000000000000000000000000000000000000000000000000000831601610742576040517f08c379a000000000000000000000000000000000000000000000000000000000815260206004820152601f60248201527f496e74657266616365446574656374696f6e3a2077726f6e672076616c7565006044820152606401610507565b7fffffffff00000000000000000000000000000000000000000000000000000000919091165f908152602092909252604090912080547fffffffffffffffffffffffffffffffffffffffffffffffffffffffffffffff0016911515919091179055565b5f5b838110156107bf5781810151838201526020016107a7565b50505f910152565b602081525f82518060208401526107e58160408501602087016107a5565b601f017fffffffffffffffffffffffffffffffffffffffffffffffffffffffffffffffe0169190910160400192915050565b5f60208284031215610827575f80fd5b5035919050565b5f8083601f84011261083e575f80fd5b50813567ffffffffffffffff811115610855575f80fd5b60208301915083602082850101111561086c575f80fd5b9250929050565b5f805f805f60608688031215610887575f80fd5b853567ffffffffffffffff8082111561089e575f80fd5b6108aa89838a0161082e565b909750955060208801359150808211156108c2575f80fd5b506108cf8882890161082e565b909450925050604086013573ffffffffffffffffffffffffffffffffffffffff811681146108fb575f80fd5b809150509295509295909350565b81810381811115610110577f4e487b71000000000000000000000000000000000000000000000000000000005f52601160045260245ffd5b600181811c9082168061095557607f821691505b60208210810361098c577f4e487b71000000000000000000000000000000000000000000000000000000005f52602260045260245ffd5b50919050565b7f4e487b71000000000000000000000000000000000000000000000000000000005f52604160045260245ffd5b5f602082840312156109cf575f80fd5b815167ffffffffffffffff808211156109e6575f80fd5b818401915084601f8301126109f9575f80fd5b815181811115610a0b57610a0b610992565b604051601f82017fffffffffffffffffffffffffffffffffffffffffffffffffffffffffffffffe0908116603f01168101908382118183101715610a5157610a51610992565b81604052828152876020848701011115610a69575f80fd5b610a7a8360208301602088016107a5565b979650505050505050565b5f60208284031215610a95575f80fd5b81518015158114610aa4575f80fd5b9392505050565b601f821115610af4575f81815260208120601f850160051c81016020861015610ad15750805b601f850160051c820191505b81811015610af057828155600101610add565b5050505b505050565b67ffffffffffffffff831115610b1157610b11610992565b610b2583610b1f8354610941565b83610aab565b5f601f841160018114610b75575f8515610b3f5750838201355b7fffffffffffffffffffffffffffffffffffffffffffffffffffffffffffffffff600387901b1c1916600186901b178355610151565b5f838152602090207fffffffffffffffffffffffffffffffffffffffffffffffffffffffffffffffe0861690835b82811015610bc35786850135825560209485019460019092019101610ba3565b5086821015610bfe577fffffffffffffffffffffffffffffffffffffffffffffffffffffffffffffffff60f88860031b161c19848701351681555b505060018560011b018355505050505056fea2646970667358221220f1a0b1f313fe3ca2c3bc6e5d848e9f50450e88a9f2afaf49cc2a414bae5d3c6f64736f6c63430008150033",
  "linkReferences": {},
  "deployedLinkReferences": {}
}