{
  "_format": "hh-sol-artifact-1",
  "contractName": "ERC1155MetadataFacet",
  "sourceName": "contracts/token/ERC1155/facets/ERC1155MetadataFacet.sol",
  "abi": [
    {
      "inputs": [
        {
          "internalType": "contract IForwarderRegistry",
          "name": "forwarderRegistry",
          "type": "address"
        }
      ],
      "stateMutability": "nonpayable",
      "type": "constructor"
    },
    {
      "inputs": [],
      "name": "IllegalInterfaceId",
      "type": "error"
    },
    {
      "inputs": [
        {
          "internalType": "uint256",
          "name": "currentPhase",
          "type": "uint256"
        },
        {
          "internalType": "uint256",
          "name": "newPhase",
          "type": "uint256"
        }
      ],
      "name": "InitializationPhaseAlreadyReached",
      "type": "error"
    },
    {
      "inputs": [
        {
          "internalType": "address",
          "name": "account",
          "type": "address"
        }
      ],
      "name": "NotProxyAdmin",
      "type": "error"
    },
    {
      "inputs": [
        {
          "internalType": "string",
          "name": "name",
          "type": "string"
        },
        {
          "internalType": "string",
          "name": "symbol",
          "type": "string"
        },
        {
          "internalType": "contract ITokenMetadataResolver",
          "name": "metadataResolver",
          "type": "address"
        }
      ],
      "name": "initERC1155MetadataStorage",
      "outputs": [],
      "stateMutability": "nonpayable",
      "type": "function"
    },
    {
      "inputs": [],
      "name": "metadataResolver",
      "outputs": [
        {
          "internalType": "contract ITokenMetadataResolver",
          "name": "tokenMetadataResolver",
          "type": "address"
        }
      ],
      "stateMutability": "view",
      "type": "function"
    },
    {
      "inputs": [],
      "name": "name",
      "outputs": [
        {
          "internalType": "string",
          "name": "tokenName",
          "type": "string"
        }
      ],
      "stateMutability": "view",
      "type": "function"
    },
    {
      "inputs": [],
      "name": "symbol",
      "outputs": [
        {
          "internalType": "string",
          "name": "tokenSymbol",
          "type": "string"
        }
      ],
      "stateMutability": "view",
      "type": "function"
    },
    {
      "inputs": [
        {
          "internalType": "uint256",
          "name": "tokenId",
          "type": "uint256"
        }
      ],
      "name": "uri",
      "outputs": [
        {
          "internalType": "string",
          "name": "metadataURI",
          "type": "string"
        }
      ],
      "stateMutability": "view",
      "type": "function"
    }
  ],
  "bytecode": "0x60a060405234801561001057600080fd5b50604051610ca1380380610ca183398101604081905261002f91610040565b6001600160a01b0316608052610070565b60006020828403121561005257600080fd5b81516001600160a01b038116811461006957600080fd5b9392505050565b608051610c0f6100926000396000818161036701526103ef0152610c0f6000f3fe608060405234801561001057600080fd5b50600436106100675760003560e01c8063345c14ad11610050578063345c14ad1461009d57806395d89b41146100b2578063a0c76f62146100ba57600080fd5b806306fdde031461006c5780630e89341c1461008a575b600080fd5b6100746100e7565b6040516100819190610770565b60405180910390f35b6100746100983660046107c1565b6100fe565b6100b06100ab366004610823565b61011a565b005b61007461015c565b6100c261016e565b60405173ffffffffffffffffffffffffffffffffffffffff9091168152602001610081565b60606100f96100f4610198565b6101c6565b905090565b6060610114308361010d610198565b919061025c565b92915050565b610133610125610324565b61012d61046b565b90610499565b61014d8585858585610143610198565b949392919061050d565b6101556105ae565b5050505050565b60606100f9610169610198565b6105e5565b60006100f961017b610198565b6002015473ffffffffffffffffffffffffffffffffffffffff1690565b60008061011460017f7ea68fd2dcf1c056b94db6a0a537aa80d26fa9ab1eacd85da1ba0b61b7e7a8a56108c0565b60608160000180546101d7906108fa565b80601f0160208091040260200160405190810160405280929190818152602001828054610203906108fa565b80156102505780601f1061022557610100808354040283529160200191610250565b820191906000526020600020905b81548152906001019060200180831161023357829003601f168201915b50505050509050919050565b60028301546040517ff724dad700000000000000000000000000000000000000000000000000000000815273ffffffffffffffffffffffffffffffffffffffff848116600483015260248201849052606092169063f724dad790604401600060405180830381865afa1580156102d6573d6000803e3d6000fd5b505050506040513d6000823e601f3d9081017fffffffffffffffffffffffffffffffffffffffffffffffffffffffffffffffe016820160405261031c919081019061097c565b949350505050565b6000333214806103345750601836105b1561033e57503390565b7fffffffffffffffffffffffffffffffffffffffffffffffffffffffffffffffec36013560601c7f000000000000000000000000000000000000000000000000000000000000000073ffffffffffffffffffffffffffffffffffffffff1633148061045a57506040517f8929a8ca00000000000000000000000000000000000000000000000000000000815273ffffffffffffffffffffffffffffffffffffffff82811660048301523360248301527f00000000000000000000000000000000000000000000000000000000000000001690638929a8ca90604401602060405180830381865afa158015610436573d6000803e3d6000fd5b505050506040513d601f19601f8201168201806040525081019061045a9190610a47565b1561046457919050565b3391505090565b60008061011460017fb53127684a568b3173ae13b9f8a6016e243e63b6e8ee1178d6a717850b5d61046108c0565b815473ffffffffffffffffffffffffffffffffffffffff828116911614610509576040517f673a31a100000000000000000000000000000000000000000000000000000000815273ffffffffffffffffffffffffffffffffffffffff821660048201526024015b60405180910390fd5b5050565b61054261053b60017f92f72593ca50a0096f68ee94e7000db40ed086164b695855e2250750b8bfaf596108c0565b60016105f6565b8561054e858783610abf565b506001860161055e838583610abf565b5060029590950180547fffffffffffffffffffffffff00000000000000000000000000000000000000001673ffffffffffffffffffffffffffffffffffffffff9096169590951790945550505050565b6105e37f0e89341c0000000000000000000000000000000000000000000000000000000060016105dc610642565b9190610670565b565b60608160010180546101d7906108fa565b8154829082811061063d576040517fbf0c18ec0000000000000000000000000000000000000000000000000000000081526004810182905260248101849052604401610500565b505550565b60008061011460017fca9d3e17f264b0f3984e2634e94adb37fa3e6a8103f06aeae6fa59e21c769f5e6108c0565b7c01000000000000000000000000000000000000000000000000000000007fffffffff000000000000000000000000000000000000000000000000000000008316016106e8576040517f72c683bb00000000000000000000000000000000000000000000000000000000815260040160405180910390fd5b7fffffffff00000000000000000000000000000000000000000000000000000000919091166000908152602092909252604090912080547fffffffffffffffffffffffffffffffffffffffffffffffffffffffffffffff0016911515919091179055565b60005b8381101561076757818101518382015260200161074f565b50506000910152565b602081526000825180602084015261078f81604085016020870161074c565b601f017fffffffffffffffffffffffffffffffffffffffffffffffffffffffffffffffe0169190910160400192915050565b6000602082840312156107d357600080fd5b5035919050565b60008083601f8401126107ec57600080fd5b50813567ffffffffffffffff81111561080457600080fd5b60208301915083602082850101111561081c57600080fd5b9250929050565b60008060008060006060868803121561083b57600080fd5b853567ffffffffffffffff8082111561085357600080fd5b61085f89838a016107da565b9097509550602088013591508082111561087857600080fd5b50610885888289016107da565b909450925050604086013573ffffffffffffffffffffffffffffffffffffffff811681146108b257600080fd5b809150509295509295909350565b81810381811115610114577f4e487b7100000000000000000000000000000000000000000000000000000000600052601160045260246000fd5b600181811c9082168061090e57607f821691505b602082108103610947577f4e487b7100000000000000000000000000000000000000000000000000000000600052602260045260246000fd5b50919050565b7f4e487b7100000000000000000000000000000000000000000000000000000000600052604160045260246000fd5b60006020828403121561098e57600080fd5b815167ffffffffffffffff808211156109a657600080fd5b818401915084601f8301126109ba57600080fd5b8151818111156109cc576109cc61094d565b604051601f82017fffffffffffffffffffffffffffffffffffffffffffffffffffffffffffffffe0908116603f01168101908382118183101715610a1257610a1261094d565b81604052828152876020848701011115610a2b57600080fd5b610a3c83602083016020880161074c565b979650505050505050565b600060208284031215610a5957600080fd5b81518015158114610a6957600080fd5b9392505050565b601f821115610aba57600081815260208120601f850160051c81016020861015610a975750805b601f850160051c820191505b81811015610ab657828155600101610aa3565b5050505b505050565b67ffffffffffffffff831115610ad757610ad761094d565b610aeb83610ae583546108fa565b83610a70565b6000601f841160018114610b3d5760008515610b075750838201355b7fffffffffffffffffffffffffffffffffffffffffffffffffffffffffffffffff600387901b1c1916600186901b178355610155565b6000838152602090207fffffffffffffffffffffffffffffffffffffffffffffffffffffffffffffffe0861690835b82811015610b8c5786850135825560209485019460019092019101610b6c565b5086821015610bc7577fffffffffffffffffffffffffffffffffffffffffffffffffffffffffffffffff60f88860031b161c19848701351681555b505060018560011b018355505050505056fea2646970667358221220a326d064d9d424cabb43718f35052693c5eff90242e370f893a8ebaf69e9114b64736f6c63430008150033",
  "linkReferences": {},
  "deployedLinkReferences": {}
}