{
  "_format": "hh-sol-artifact-1",
  "contractName": "ERC1155MetadataFacet",
  "sourceName": "contracts/token/ERC1155/facets/ERC1155MetadataFacet.sol",
  "abi": [
    {
      "inputs": [
        {
          "internalType": "contract IForwarderRegistry",
          "name": "forwarderRegistry",
          "type": "address"
        }
      ],
      "stateMutability": "nonpayable",
      "type": "constructor"
    },
    {
      "inputs": [],
      "name": "IllegalInterfaceId",
      "type": "error"
    },
    {
      "inputs": [],
      "name": "InconsistentArrayLengths",
      "type": "error"
    },
    {
      "inputs": [
        {
          "internalType": "uint256",
          "name": "currentPhase",
          "type": "uint256"
        },
        {
          "internalType": "uint256",
          "name": "newPhase",
          "type": "uint256"
        }
      ],
      "name": "InitializationPhaseAlreadyReached",
      "type": "error"
    },
    {
      "inputs": [
        {
          "internalType": "address",
          "name": "account",
          "type": "address"
        }
      ],
      "name": "NotMetadataResolver",
      "type": "error"
    },
    {
      "inputs": [
        {
          "internalType": "address",
          "name": "account",
          "type": "address"
        }
      ],
      "name": "NotProxyAdmin",
      "type": "error"
    },
    {
      "anonymous": false,
      "inputs": [
        {
          "indexed": true,
          "internalType": "address",
          "name": "owner",
          "type": "address"
        },
        {
          "indexed": true,
          "internalType": "address",
          "name": "operator",
          "type": "address"
        },
        {
          "indexed": false,
          "internalType": "bool",
          "name": "approved",
          "type": "bool"
        }
      ],
      "name": "ApprovalForAll",
      "type": "event"
    },
    {
      "anonymous": false,
      "inputs": [
        {
          "indexed": true,
          "internalType": "address",
          "name": "operator",
          "type": "address"
        },
        {
          "indexed": true,
          "internalType": "address",
          "name": "from",
          "type": "address"
        },
        {
          "indexed": true,
          "internalType": "address",
          "name": "to",
          "type": "address"
        },
        {
          "indexed": false,
          "internalType": "uint256[]",
          "name": "ids",
          "type": "uint256[]"
        },
        {
          "indexed": false,
          "internalType": "uint256[]",
          "name": "values",
          "type": "uint256[]"
        }
      ],
      "name": "TransferBatch",
      "type": "event"
    },
    {
      "anonymous": false,
      "inputs": [
        {
          "indexed": true,
          "internalType": "address",
          "name": "operator",
          "type": "address"
        },
        {
          "indexed": true,
          "internalType": "address",
          "name": "from",
          "type": "address"
        },
        {
          "indexed": true,
          "internalType": "address",
          "name": "to",
          "type": "address"
        },
        {
          "indexed": false,
          "internalType": "uint256",
          "name": "id",
          "type": "uint256"
        },
        {
          "indexed": false,
          "internalType": "uint256",
          "name": "value",
          "type": "uint256"
        }
      ],
      "name": "TransferSingle",
      "type": "event"
    },
    {
      "anonymous": false,
      "inputs": [
        {
          "indexed": false,
          "internalType": "string",
          "name": "value",
          "type": "string"
        },
        {
          "indexed": true,
          "internalType": "uint256",
          "name": "id",
          "type": "uint256"
        }
      ],
      "name": "URI",
      "type": "event"
    },
    {
      "inputs": [
        {
          "internalType": "uint256[]",
          "name": "tokenIds",
          "type": "uint256[]"
        },
        {
          "internalType": "string[]",
          "name": "tokenURIs",
          "type": "string[]"
        }
      ],
      "name": "batchSetTokenURI",
      "outputs": [],
      "stateMutability": "nonpayable",
      "type": "function"
    },
    {
      "inputs": [
        {
          "internalType": "string",
          "name": "name",
          "type": "string"
        },
        {
          "internalType": "string",
          "name": "symbol",
          "type": "string"
        },
        {
          "internalType": "contract ITokenMetadataResolver",
          "name": "metadataResolver",
          "type": "address"
        }
      ],
      "name": "initERC1155MetadataStorage",
      "outputs": [],
      "stateMutability": "nonpayable",
      "type": "function"
    },
    {
      "inputs": [],
      "name": "metadataResolver",
      "outputs": [
        {
          "internalType": "contract ITokenMetadataResolver",
          "name": "tokenMetadataResolver",
          "type": "address"
        }
      ],
      "stateMutability": "view",
      "type": "function"
    },
    {
      "inputs": [],
      "name": "name",
      "outputs": [
        {
          "internalType": "string",
          "name": "tokenName",
          "type": "string"
        }
      ],
      "stateMutability": "view",
      "type": "function"
    },
    {
      "inputs": [
        {
          "internalType": "uint256",
          "name": "tokenId",
          "type": "uint256"
        },
        {
          "internalType": "string",
          "name": "tokenURI",
          "type": "string"
        }
      ],
      "name": "setTokenURI",
      "outputs": [],
      "stateMutability": "nonpayable",
      "type": "function"
    },
    {
      "inputs": [],
      "name": "symbol",
      "outputs": [
        {
          "internalType": "string",
          "name": "tokenSymbol",
          "type": "string"
        }
      ],
      "stateMutability": "view",
      "type": "function"
    },
    {
      "inputs": [
        {
          "internalType": "uint256",
          "name": "tokenId",
          "type": "uint256"
        }
      ],
      "name": "uri",
      "outputs": [
        {
          "internalType": "string",
          "name": "metadataURI",
          "type": "string"
        }
      ],
      "stateMutability": "view",
      "type": "function"
    }
  ],
  "bytecode": "0x60a060405234801561001057600080fd5b5060405161109738038061109783398101604081905261002f91610040565b6001600160a01b0316608052610070565b60006020828403121561005257600080fd5b81516001600160a01b038116811461006957600080fd5b9392505050565b60805161100561009260003960008181610584015261060c01526110056000f3fe608060405234801561001057600080fd5b506004361061007d5760003560e01c8063345c14ad1161005b578063345c14ad146100c85780636706467b146100db57806395d89b41146100ee578063a0c76f62146100f657600080fd5b806306fdde03146100825780630e89341c146100a0578063162094c4146100b3575b600080fd5b61008a610123565b6040516100979190610988565b60405180910390f35b61008a6100ae3660046109d9565b61013a565b6100c66100c1366004610a3b565b610156565b005b6100c66100d6366004610a87565b610228565b6100c66100e9366004610b69565b61026a565b61008a61039a565b6100fe6103ac565b60405173ffffffffffffffffffffffffffffffffffffffff9091168152602001610097565b60606101356101306103b5565b6103e3565b905090565b606061015030836101496103b5565b9190610479565b92915050565b61017e6101616103b5565b6002015473ffffffffffffffffffffffffffffffffffffffff1690565b73ffffffffffffffffffffffffffffffffffffffff163373ffffffffffffffffffffffffffffffffffffffff16146101e9576040517f220606710000000000000000000000000000000000000000000000000000000081523360048201526024015b60405180910390fd5b827f6bb7ff708619ba0610cba295a58592e0451dee2622938c8755667688daf3529b838360405161021b929190610bd5565b60405180910390a2505050565b610241610233610541565b61023b610688565b906106b6565b61025b85858585856102516103b5565b9493929190610725565b6102636107c6565b5050505050565b8281146102a3576040517f6582533600000000000000000000000000000000000000000000000000000000815260040160405180910390fd5b6102ae6101616103b5565b73ffffffffffffffffffffffffffffffffffffffff163373ffffffffffffffffffffffffffffffffffffffff1614610314576040517f220606710000000000000000000000000000000000000000000000000000000081523360048201526024016101e0565b60005b8084146102635784848281811061033057610330610c22565b905060200201357f6bb7ff708619ba0610cba295a58592e0451dee2622938c8755667688daf3529b84848481811061036a5761036a610c22565b905060200281019061037c9190610c51565b60405161038a929190610bd5565b60405180910390a2600101610317565b60606101356103a76103b5565b6107fd565b60006101356101615b60008061015060017f7ea68fd2dcf1c056b94db6a0a537aa80d26fa9ab1eacd85da1ba0b61b7e7a8a5610cb6565b60608160000180546103f490610cf0565b80601f016020809104026020016040519081016040528092919081815260200182805461042090610cf0565b801561046d5780601f106104425761010080835404028352916020019161046d565b820191906000526020600020905b81548152906001019060200180831161045057829003601f168201915b50505050509050919050565b60028301546040517ff724dad700000000000000000000000000000000000000000000000000000000815273ffffffffffffffffffffffffffffffffffffffff848116600483015260248201849052606092169063f724dad790604401600060405180830381865afa1580156104f3573d6000803e3d6000fd5b505050506040513d6000823e601f3d9081017fffffffffffffffffffffffffffffffffffffffffffffffffffffffffffffffe01682016040526105399190810190610d72565b949350505050565b6000333214806105515750601836105b1561055b57503390565b7fffffffffffffffffffffffffffffffffffffffffffffffffffffffffffffffec36013560601c7f000000000000000000000000000000000000000000000000000000000000000073ffffffffffffffffffffffffffffffffffffffff1633148061067757506040517f8929a8ca00000000000000000000000000000000000000000000000000000000815273ffffffffffffffffffffffffffffffffffffffff82811660048301523360248301527f00000000000000000000000000000000000000000000000000000000000000001690638929a8ca90604401602060405180830381865afa158015610653573d6000803e3d6000fd5b505050506040513d601f19601f820116820180604052508101906106779190610e3d565b1561068157919050565b3391505090565b60008061015060017fb53127684a568b3173ae13b9f8a6016e243e63b6e8ee1178d6a717850b5d6104610cb6565b815473ffffffffffffffffffffffffffffffffffffffff828116911614610721576040517f673a31a100000000000000000000000000000000000000000000000000000000815273ffffffffffffffffffffffffffffffffffffffff821660048201526024016101e0565b5050565b61075a61075360017f92f72593ca50a0096f68ee94e7000db40ed086164b695855e2250750b8bfaf59610cb6565b600161080e565b85610766858783610eb5565b5060018601610776838583610eb5565b5060029590950180547fffffffffffffffffffffffff00000000000000000000000000000000000000001673ffffffffffffffffffffffffffffffffffffffff9096169590951790945550505050565b6107fb7f0e89341c0000000000000000000000000000000000000000000000000000000060016107f461085a565b9190610888565b565b60608160010180546103f490610cf0565b81548290828110610855576040517fbf0c18ec00000000000000000000000000000000000000000000000000000000815260048101829052602481018490526044016101e0565b505550565b60008061015060017fca9d3e17f264b0f3984e2634e94adb37fa3e6a8103f06aeae6fa59e21c769f5e610cb6565b7c01000000000000000000000000000000000000000000000000000000007fffffffff00000000000000000000000000000000000000000000000000000000831601610900576040517f72c683bb00000000000000000000000000000000000000000000000000000000815260040160405180910390fd5b7fffffffff00000000000000000000000000000000000000000000000000000000919091166000908152602092909252604090912080547fffffffffffffffffffffffffffffffffffffffffffffffffffffffffffffff0016911515919091179055565b60005b8381101561097f578181015183820152602001610967565b50506000910152565b60208152600082518060208401526109a7816040850160208701610964565b601f017fffffffffffffffffffffffffffffffffffffffffffffffffffffffffffffffe0169190910160400192915050565b6000602082840312156109eb57600080fd5b5035919050565b60008083601f840112610a0457600080fd5b50813567ffffffffffffffff811115610a1c57600080fd5b602083019150836020828501011115610a3457600080fd5b9250929050565b600080600060408486031215610a5057600080fd5b83359250602084013567ffffffffffffffff811115610a6e57600080fd5b610a7a868287016109f2565b9497909650939450505050565b600080600080600060608688031215610a9f57600080fd5b853567ffffffffffffffff80821115610ab757600080fd5b610ac389838a016109f2565b90975095506020880135915080821115610adc57600080fd5b50610ae9888289016109f2565b909450925050604086013573ffffffffffffffffffffffffffffffffffffffff81168114610b1657600080fd5b809150509295509295909350565b60008083601f840112610b3657600080fd5b50813567ffffffffffffffff811115610b4e57600080fd5b6020830191508360208260051b8501011115610a3457600080fd5b60008060008060408587031215610b7f57600080fd5b843567ffffffffffffffff80821115610b9757600080fd5b610ba388838901610b24565b90965094506020870135915080821115610bbc57600080fd5b50610bc987828801610b24565b95989497509550505050565b60208152816020820152818360408301376000818301604090810191909152601f9092017fffffffffffffffffffffffffffffffffffffffffffffffffffffffffffffffe0160101919050565b7f4e487b7100000000000000000000000000000000000000000000000000000000600052603260045260246000fd5b60008083357fffffffffffffffffffffffffffffffffffffffffffffffffffffffffffffffe1843603018112610c8657600080fd5b83018035915067ffffffffffffffff821115610ca157600080fd5b602001915036819003821315610a3457600080fd5b81810381811115610150577f4e487b7100000000000000000000000000000000000000000000000000000000600052601160045260246000fd5b600181811c90821680610d0457607f821691505b602082108103610d3d577f4e487b7100000000000000000000000000000000000000000000000000000000600052602260045260246000fd5b50919050565b7f4e487b7100000000000000000000000000000000000000000000000000000000600052604160045260246000fd5b600060208284031215610d8457600080fd5b815167ffffffffffffffff80821115610d9c57600080fd5b818401915084601f830112610db057600080fd5b815181811115610dc257610dc2610d43565b604051601f82017fffffffffffffffffffffffffffffffffffffffffffffffffffffffffffffffe0908116603f01168101908382118183101715610e0857610e08610d43565b81604052828152876020848701011115610e2157600080fd5b610e32836020830160208801610964565b979650505050505050565b600060208284031215610e4f57600080fd5b81518015158114610e5f57600080fd5b9392505050565b601f821115610eb057600081815260208120601f850160051c81016020861015610e8d5750805b601f850160051c820191505b81811015610eac57828155600101610e99565b5050505b505050565b67ffffffffffffffff831115610ecd57610ecd610d43565b610ee183610edb8354610cf0565b83610e66565b6000601f841160018114610f335760008515610efd5750838201355b7fffffffffffffffffffffffffffffffffffffffffffffffffffffffffffffffff600387901b1c1916600186901b178355610263565b6000838152602090207fffffffffffffffffffffffffffffffffffffffffffffffffffffffffffffffe0861690835b82811015610f825786850135825560209485019460019092019101610f62565b5086821015610fbd577fffffffffffffffffffffffffffffffffffffffffffffffffffffffffffffffff60f88860031b161c19848701351681555b505060018560011b018355505050505056fea264697066735822122059ae3699c7a9170edab33e3d6441f9e0afb12b3d03d170c492d95b5bf2894bf764736f6c63430008150033",
  "linkReferences": {},
  "deployedLinkReferences": {}
}