{
  "_format": "hh-sol-artifact-1",
  "contractName": "TokenMetadataWithBaseURIStorage",
  "sourceName": "contracts/token/metadata/libraries/TokenMetadataWithBaseURIStorage.sol",
  "abi": [
    {
      "anonymous": false,
      "inputs": [
        {
          "indexed": false,
          "internalType": "string",
          "name": "baseMetadataURI",
          "type": "string"
        }
      ],
      "name": "BaseMetadataURISet",
      "type": "event"
    },
    {
      "inputs": [],
      "name": "LAYOUT_STORAGE_SLOT",
      "outputs": [
        {
          "internalType": "bytes32",
          "name": "",
          "type": "bytes32"
        }
      ],
      "stateMutability": "view",
      "type": "function"
    }
  ],
  "bytecode": "0x60f1610039600b82828239805160001a60731461002c57634e487b7160e01b600052600060045260246000fd5b30600052607381538281f3fe730000000000000000000000000000000000000000301460806040526004361060335760003560e01c806396c3092d146038575b600080fd5b603e6050565b60405190815260200160405180910390f35b607960017fe94434e3c6b941c5d90218142fadcc69cb2e13723993540bfa1c131dd1d3475a607c565b81565b8181038181111560b5577f4e487b7100000000000000000000000000000000000000000000000000000000600052601160045260246000fd5b9291505056fea2646970667358221220011b8b1afad9dfa1f4a7f3432937a2d6faae3d61a842f0b69b0a94de68a6017064736f6c63430008110033",
  "linkReferences": {},
  "deployedLinkReferences": {}
}