{
  "_format": "hh-sol-artifact-1",
  "contractName": "FacetMock",
  "sourceName": "contracts/mocks/diamond/FacetMock.sol",
  "abi": [
    {
      "anonymous": false,
      "inputs": [],
      "name": "FacetFunctionCalled",
      "type": "event"
    },
    {
      "inputs": [],
      "name": "init",
      "outputs": [],
      "stateMutability": "nonpayable",
      "type": "function"
    },
    {
      "inputs": [],
      "name": "revertsWithMessage",
      "outputs": [],
      "stateMutability": "pure",
      "type": "function"
    },
    {
      "inputs": [],
      "name": "revertsWithoutMessage",
      "outputs": [],
      "stateMutability": "pure",
      "type": "function"
    }
  ],
  "bytecode": "0x608060405234801561001057600080fd5b5061011d806100206000396000f3fe6080604052348015600f57600080fd5b5060043610603c5760003560e01c80633787b426146041578063e1c7392a146049578063ea18c28314604f575b600080fd5b60476056565b005b604760bc565b6047600080fd5b6040517f08c379a000000000000000000000000000000000000000000000000000000000815260206004820152600f60248201527f46616365743a2072657665727465640000000000000000000000000000000000604482015260640160405180910390fd5b6040517f84728df003805e87a3a67d30130f2d8b759b34815dac8d22a3e4fcaf3a4f2d6d90600090a156fea2646970667358221220c4c763a8fbf782a0a9d28e44753570bc0f0a16eecf86b8022cb5d10d4fc0cb4f64736f6c634300080d0033",
  "linkReferences": {},
  "deployedLinkReferences": {}
}