{
  "_format": "hh-sol-artifact-1",
  "contractName": "FacetMock",
  "sourceName": "contracts/mocks/diamond/FacetMock.sol",
  "abi": [
    {
      "inputs": [],
      "name": "RevertedWithMessage",
      "type": "error"
    },
    {
      "anonymous": false,
      "inputs": [],
      "name": "FacetFunctionCalled",
      "type": "event"
    },
    {
      "inputs": [],
      "name": "a",
      "outputs": [],
      "stateMutability": "pure",
      "type": "function"
    },
    {
      "inputs": [],
      "name": "b",
      "outputs": [],
      "stateMutability": "pure",
      "type": "function"
    },
    {
      "inputs": [],
      "name": "c",
      "outputs": [],
      "stateMutability": "pure",
      "type": "function"
    },
    {
      "inputs": [],
      "name": "d",
      "outputs": [],
      "stateMutability": "pure",
      "type": "function"
    },
    {
      "inputs": [],
      "name": "doSomething",
      "outputs": [],
      "stateMutability": "nonpayable",
      "type": "function"
    },
    {
      "inputs": [],
      "name": "e",
      "outputs": [],
      "stateMutability": "pure",
      "type": "function"
    },
    {
      "inputs": [],
      "name": "f",
      "outputs": [],
      "stateMutability": "pure",
      "type": "function"
    },
    {
      "inputs": [],
      "name": "g",
      "outputs": [],
      "stateMutability": "pure",
      "type": "function"
    },
    {
      "inputs": [],
      "name": "h",
      "outputs": [],
      "stateMutability": "pure",
      "type": "function"
    },
    {
      "inputs": [],
      "name": "i",
      "outputs": [],
      "stateMutability": "pure",
      "type": "function"
    },
    {
      "inputs": [],
      "name": "j",
      "outputs": [],
      "stateMutability": "pure",
      "type": "function"
    },
    {
      "inputs": [],
      "name": "k",
      "outputs": [],
      "stateMutability": "pure",
      "type": "function"
    },
    {
      "inputs": [],
      "name": "revertsWithMessage",
      "outputs": [],
      "stateMutability": "pure",
      "type": "function"
    },
    {
      "inputs": [],
      "name": "revertsWithoutMessage",
      "outputs": [],
      "stateMutability": "pure",
      "type": "function"
    }
  ],
  "bytecode": "0x6080604052348015600f57600080fd5b5061019c8061001f6000396000f3fe608060405234801561001057600080fd5b50600436106100ea5760003560e01c8063b582ec5f1161008c578063e2179b8e11610066578063e2179b8e146100ef578063e5aa3d58146100ef578063ea18c28314610101578063ffae15ba146100ef57600080fd5b8063b582ec5f146100ef578063b8c9d365146100ef578063c3da42b8146100ef57600080fd5b80634df7e3d0116100c85780634df7e3d0146100ef57806382692679146100f95780638a054ac2146100ef578063b4f40c61146100ef57600080fd5b80630dbe671f146100ef57806326121ff0146100ef5780633787b426146100f1575b600080fd5b005b6100ef610109565b6100ef61013b565b6100ef600080fd5b6040517f96596b5b00000000000000000000000000000000000000000000000000000000815260040160405180910390fd5b6040517f84728df003805e87a3a67d30130f2d8b759b34815dac8d22a3e4fcaf3a4f2d6d90600090a156fea26469706673582212201348e8b87d7985177a434fae55520d47625d2cea261a28152e0bc3a61574e9c364736f6c63430008190033",
  "linkReferences": {},
  "deployedLinkReferences": {}
}