{
  "_format": "hh-sol-artifact-1",
  "contractName": "FacetMock",
  "sourceName": "contracts/mocks/diamond/FacetMock.sol",
  "abi": [
    {
      "anonymous": false,
      "inputs": [],
      "name": "FacetFunctionCalled",
      "type": "event"
    },
    {
      "inputs": [],
      "name": "a",
      "outputs": [],
      "stateMutability": "pure",
      "type": "function"
    },
    {
      "inputs": [],
      "name": "b",
      "outputs": [],
      "stateMutability": "pure",
      "type": "function"
    },
    {
      "inputs": [],
      "name": "c",
      "outputs": [],
      "stateMutability": "pure",
      "type": "function"
    },
    {
      "inputs": [],
      "name": "d",
      "outputs": [],
      "stateMutability": "pure",
      "type": "function"
    },
    {
      "inputs": [],
      "name": "doSomething",
      "outputs": [],
      "stateMutability": "nonpayable",
      "type": "function"
    },
    {
      "inputs": [],
      "name": "e",
      "outputs": [],
      "stateMutability": "pure",
      "type": "function"
    },
    {
      "inputs": [],
      "name": "f",
      "outputs": [],
      "stateMutability": "pure",
      "type": "function"
    },
    {
      "inputs": [],
      "name": "g",
      "outputs": [],
      "stateMutability": "pure",
      "type": "function"
    },
    {
      "inputs": [],
      "name": "h",
      "outputs": [],
      "stateMutability": "pure",
      "type": "function"
    },
    {
      "inputs": [],
      "name": "i",
      "outputs": [],
      "stateMutability": "pure",
      "type": "function"
    },
    {
      "inputs": [],
      "name": "j",
      "outputs": [],
      "stateMutability": "pure",
      "type": "function"
    },
    {
      "inputs": [],
      "name": "k",
      "outputs": [],
      "stateMutability": "pure",
      "type": "function"
    },
    {
      "inputs": [],
      "name": "revertsWithMessage",
      "outputs": [],
      "stateMutability": "pure",
      "type": "function"
    },
    {
      "inputs": [],
      "name": "revertsWithoutMessage",
      "outputs": [],
      "stateMutability": "pure",
      "type": "function"
    }
  ],
  "bytecode": "0x608060405234801561000f575f80fd5b506101c88061001d5f395ff3fe608060405234801561000f575f80fd5b50600436106100e5575f3560e01c8063b582ec5f11610088578063e2179b8e11610063578063e2179b8e146100e9578063e5aa3d58146100e9578063ea18c283146100fb578063ffae15ba146100e9575f80fd5b8063b582ec5f146100e9578063b8c9d365146100e9578063c3da42b8146100e9575f80fd5b80634df7e3d0116100c35780634df7e3d0146100e957806382692679146100f35780638a054ac2146100e9578063b4f40c61146100e9575f80fd5b80630dbe671f146100e957806326121ff0146100e95780633787b426146100eb575b5f80fd5b005b6100e9610102565b6100e9610168565b6100e95f80fd5b6040517f08c379a000000000000000000000000000000000000000000000000000000000815260206004820152600f60248201527f46616365743a2072657665727465640000000000000000000000000000000000604482015260640160405180910390fd5b6040517f84728df003805e87a3a67d30130f2d8b759b34815dac8d22a3e4fcaf3a4f2d6d905f90a156fea2646970667358221220ded87418427bec0667be95be71e5c712371d2183e2519cae586860192dab0ce464736f6c63430008150033",
  "linkReferences": {},
  "deployedLinkReferences": {}
}