{
  "_format": "hh-sol-artifact-1",
  "contractName": "ERC20Facet",
  "sourceName": "contracts/token/ERC20/ERC20Facet.sol",
  "abi": [
    {
      "inputs": [
        {
          "internalType": "contract IForwarderRegistry",
          "name": "forwarderRegistry",
          "type": "address"
        }
      ],
      "stateMutability": "nonpayable",
      "type": "constructor"
    },
    {
      "anonymous": false,
      "inputs": [
        {
          "indexed": true,
          "internalType": "address",
          "name": "owner",
          "type": "address"
        },
        {
          "indexed": true,
          "internalType": "address",
          "name": "spender",
          "type": "address"
        },
        {
          "indexed": false,
          "internalType": "uint256",
          "name": "value",
          "type": "uint256"
        }
      ],
      "name": "Approval",
      "type": "event"
    },
    {
      "anonymous": false,
      "inputs": [
        {
          "indexed": true,
          "internalType": "address",
          "name": "from",
          "type": "address"
        },
        {
          "indexed": true,
          "internalType": "address",
          "name": "to",
          "type": "address"
        },
        {
          "indexed": false,
          "internalType": "uint256",
          "name": "value",
          "type": "uint256"
        }
      ],
      "name": "Transfer",
      "type": "event"
    },
    {
      "inputs": [
        {
          "internalType": "address",
          "name": "owner",
          "type": "address"
        },
        {
          "internalType": "address",
          "name": "spender",
          "type": "address"
        }
      ],
      "name": "allowance",
      "outputs": [
        {
          "internalType": "uint256",
          "name": "",
          "type": "uint256"
        }
      ],
      "stateMutability": "view",
      "type": "function"
    },
    {
      "inputs": [
        {
          "internalType": "address",
          "name": "spender",
          "type": "address"
        },
        {
          "internalType": "uint256",
          "name": "value",
          "type": "uint256"
        }
      ],
      "name": "approve",
      "outputs": [
        {
          "internalType": "bool",
          "name": "",
          "type": "bool"
        }
      ],
      "stateMutability": "nonpayable",
      "type": "function"
    },
    {
      "inputs": [
        {
          "internalType": "address",
          "name": "account",
          "type": "address"
        }
      ],
      "name": "balanceOf",
      "outputs": [
        {
          "internalType": "uint256",
          "name": "",
          "type": "uint256"
        }
      ],
      "stateMutability": "view",
      "type": "function"
    },
    {
      "inputs": [
        {
          "internalType": "address",
          "name": "spender",
          "type": "address"
        },
        {
          "internalType": "uint256",
          "name": "subtractedValue",
          "type": "uint256"
        }
      ],
      "name": "decreaseAllowance",
      "outputs": [
        {
          "internalType": "bool",
          "name": "",
          "type": "bool"
        }
      ],
      "stateMutability": "nonpayable",
      "type": "function"
    },
    {
      "inputs": [
        {
          "internalType": "address",
          "name": "spender",
          "type": "address"
        },
        {
          "internalType": "uint256",
          "name": "addedValue",
          "type": "uint256"
        }
      ],
      "name": "increaseAllowance",
      "outputs": [
        {
          "internalType": "bool",
          "name": "",
          "type": "bool"
        }
      ],
      "stateMutability": "nonpayable",
      "type": "function"
    },
    {
      "inputs": [
        {
          "internalType": "address[]",
          "name": "holders",
          "type": "address[]"
        },
        {
          "internalType": "uint256[]",
          "name": "allocations",
          "type": "uint256[]"
        }
      ],
      "name": "initERC20Storage",
      "outputs": [],
      "stateMutability": "nonpayable",
      "type": "function"
    },
    {
      "inputs": [],
      "name": "totalSupply",
      "outputs": [
        {
          "internalType": "uint256",
          "name": "",
          "type": "uint256"
        }
      ],
      "stateMutability": "view",
      "type": "function"
    },
    {
      "inputs": [
        {
          "internalType": "address",
          "name": "to",
          "type": "address"
        },
        {
          "internalType": "uint256",
          "name": "value",
          "type": "uint256"
        }
      ],
      "name": "transfer",
      "outputs": [
        {
          "internalType": "bool",
          "name": "",
          "type": "bool"
        }
      ],
      "stateMutability": "nonpayable",
      "type": "function"
    },
    {
      "inputs": [
        {
          "internalType": "address",
          "name": "from",
          "type": "address"
        },
        {
          "internalType": "address",
          "name": "to",
          "type": "address"
        },
        {
          "internalType": "uint256",
          "name": "value",
          "type": "uint256"
        }
      ],
      "name": "transferFrom",
      "outputs": [
        {
          "internalType": "bool",
          "name": "",
          "type": "bool"
        }
      ],
      "stateMutability": "nonpayable",
      "type": "function"
    }
  ],
  "bytecode": "0x60a060405234801561001057600080fd5b506040516114e53803806114e583398101604081905261002f91610040565b6001600160a01b0316608052610070565b60006020828403121561005257600080fd5b81516001600160a01b038116811461006957600080fd5b9392505050565b60805161145361009260003960008181610aa60152610b4601526114536000f3fe608060405234801561001057600080fd5b50600436106100a35760003560e01c80633950935111610076578063a457c2d71161005b578063a457c2d714610134578063a9059cbb14610147578063dd62ed3e1461015a57600080fd5b8063395093511461010e57806370a082311461012157600080fd5b8063095ea7b3146100a857806318160ddd146100d057806323b872dd146100e657806330a12c83146100f9575b600080fd5b6100bb6100b63660046110cd565b61016d565b60405190151581526020015b60405180910390f35b6100d8610195565b6040519081526020016100c7565b6100bb6100f43660046110f7565b6101ae565b61010c610107366004611240565b6101d9565b005b6100bb61011c3660046110cd565b61020a565b6100d861012f366004611300565b610229565b6100bb6101423660046110cd565b610267565b6100bb6101553660046110cd565b610286565b6100d861016836600461131b565b6102a5565b600061018c61017a6102f7565b8484610184610301565b92919061032f565b50600192915050565b60006101a96101a2610301565b6002015490565b905090565b60006101cf6101bb6102f7565b8585856101c6610301565b93929190610423565b5060019392505050565b6101f26101e46102f7565b6101ec610475565b906104a3565b61020682826101ff610301565b9190610526565b5050565b600061018c6102176102f7565b8484610221610301565b92919061056b565b600061026182610237610301565b9073ffffffffffffffffffffffffffffffffffffffff166000908152602091909152604090205490565b92915050565b600061018c6102746102f7565b848461027e610301565b929190610737565b600061018c6102936102f7565b848461029d610301565b929190610889565b60006102f083836102b4610301565b919073ffffffffffffffffffffffffffffffffffffffff9182166000908152600193909301602090815260408085209290931684525290205490565b9392505050565b60006101a9610a6a565b60008061026160017f1da92899d3da68bf9787824388a37ea2bfa79780bcef91b9716c390eec8ecbef61137d565b73ffffffffffffffffffffffffffffffffffffffff82166103b1576040517f08c379a000000000000000000000000000000000000000000000000000000000815260206004820152601b60248201527f45524332303a207a65726f2061646472657373207370656e646572000000000060448201526064015b60405180910390fd5b73ffffffffffffffffffffffffffffffffffffffff838116600081815260018701602090815260408083209487168084529482529182902085905590518481527f8c5be1e5ebec7d5bd14f71427d1e84f3dd0314c0f7b2291e5b200ac8c7c3b92591015b60405180910390a350505050565b8373ffffffffffffffffffffffffffffffffffffffff168373ffffffffffffffffffffffffffffffffffffffff16146104625761046285848684610737565b61046e85848484610889565b5050505050565b60008061026160017fb53127684a568b3173ae13b9f8a6016e243e63b6e8ee1178d6a717850b5d610461137d565b815473ffffffffffffffffffffffffffffffffffffffff828116911614610206576040517f08c379a000000000000000000000000000000000000000000000000000000000815260206004820152601960248201527f50726f787941646d696e3a206e6f74207468652061646d696e0000000000000060448201526064016103a8565b61055b61055460017f29556ab02630c82cd68880b714c652161a4c550fbc08f822cf0d4cbddfef3b5461137d565b6001610bc2565b610566838383610c32565b505050565b73ffffffffffffffffffffffffffffffffffffffff82166105e8576040517f08c379a000000000000000000000000000000000000000000000000000000000815260206004820152601b60248201527f45524332303a207a65726f2061646472657373207370656e646572000000000060448201526064016103a8565b73ffffffffffffffffffffffffffffffffffffffff808416600090815260018601602090815260408083209386168352929052205481156106c95780820181811161068f576040517f08c379a000000000000000000000000000000000000000000000000000000000815260206004820152601960248201527f45524332303a20616c6c6f77616e6365206f766572666c6f770000000000000060448201526064016103a8565b73ffffffffffffffffffffffffffffffffffffffff8086166000908152600188016020908152604080832093881683529290522081905590505b8273ffffffffffffffffffffffffffffffffffffffff168473ffffffffffffffffffffffffffffffffffffffff167f8c5be1e5ebec7d5bd14f71427d1e84f3dd0314c0f7b2291e5b200ac8c7c3b9258360405161072891815260200190565b60405180910390a35050505050565b73ffffffffffffffffffffffffffffffffffffffff82166107b4576040517f08c379a000000000000000000000000000000000000000000000000000000000815260206004820152601b60248201527f45524332303a207a65726f2061646472657373207370656e646572000000000060448201526064016103a8565b73ffffffffffffffffffffffffffffffffffffffff80841660009081526001860160209081526040808320938616835292905220547fffffffffffffffffffffffffffffffffffffffffffffffffffffffffffffffff811480159061081857508115155b156106c95781810381811061068f576040517f08c379a000000000000000000000000000000000000000000000000000000000815260206004820152601d60248201527f45524332303a20696e73756666696369656e7420616c6c6f77616e636500000060448201526064016103a8565b73ffffffffffffffffffffffffffffffffffffffff8216610906576040517f08c379a000000000000000000000000000000000000000000000000000000000815260206004820152601660248201527f45524332303a20746f207a65726f20616464726573730000000000000000000060448201526064016103a8565b8015610a0b5773ffffffffffffffffffffffffffffffffffffffff831660009081526020859052604090205481810381811061099e576040517f08c379a000000000000000000000000000000000000000000000000000000000815260206004820152601b60248201527f45524332303a20696e73756666696369656e742062616c616e6365000000000060448201526064016103a8565b8373ffffffffffffffffffffffffffffffffffffffff168573ffffffffffffffffffffffffffffffffffffffff1614610a085773ffffffffffffffffffffffffffffffffffffffff8086166000908152602088905260408082208490559186168152208054840190555b50505b8173ffffffffffffffffffffffffffffffffffffffff168373ffffffffffffffffffffffffffffffffffffffff167fddf252ad1be2c89b69c2b068fc378daa952ba7f163c4a11628f55a4df523b3ef8360405161041591815260200190565b600033328103610a7957919050565b6000367fffffffffffffffffffffffffffffffffffffffffffffffffffffffffffffffec013560601c90507f000000000000000000000000000000000000000000000000000000000000000073ffffffffffffffffffffffffffffffffffffffff168273ffffffffffffffffffffffffffffffffffffffff161480610bb157506040517fe60125d600000000000000000000000000000000000000000000000000000000815273ffffffffffffffffffffffffffffffffffffffff828116600483015283811660248301527f0000000000000000000000000000000000000000000000000000000000000000169063e60125d690604401602060405180830381865afa158015610b8d573d6000803e3d6000fd5b505050506040513d601f19601f82011682018060405250810190610bb19190611394565b15610bbc5792915050565b50919050565b815482908211610c2e576040517f08c379a000000000000000000000000000000000000000000000000000000000815260206004820152601860248201527f53746f726167653a2076657273696f6e2072656163686564000000000000000060448201526064016103a8565b5550565b610c3d838383610ca7565b6000610c47610f86565b9050610c75817f36372b07000000000000000000000000000000000000000000000000000000006001610fb4565b610ca1817f9d075186000000000000000000000000000000000000000000000000000000006001610fb4565b50505050565b815181518114610d13576040517f08c379a000000000000000000000000000000000000000000000000000000000815260206004820152601a60248201527f45524332303a20696e636f6e73697374656e742061727261797300000000000060448201526064016103a8565b80600003610d215750505050565b6000805b828114610f01576000858281518110610d4057610d406113b6565b60200260200101519050600073ffffffffffffffffffffffffffffffffffffffff168173ffffffffffffffffffffffffffffffffffffffff1603610de0576040517f08c379a000000000000000000000000000000000000000000000000000000000815260206004820152601360248201527f45524332303a206d696e7420746f207a65726f0000000000000000000000000060448201526064016103a8565b6000858381518110610df457610df46113b6565b6020026020010151905080600014610ea057838101848111610e72576040517f08c379a000000000000000000000000000000000000000000000000000000000815260206004820152601660248201527f45524332303a2076616c756573206f766572666c6f770000000000000000000060448201526064016103a8565b73ffffffffffffffffffffffffffffffffffffffff8316600090815260208a90526040902080548301905593505b60405181815273ffffffffffffffffffffffffffffffffffffffff8316906000907fddf252ad1be2c89b69c2b068fc378daa952ba7f163c4a11628f55a4df523b3ef9060200160405180910390a3505080610efa906113e5565b9050610d25565b50801561046e576002850154818101818111610f79576040517f08c379a000000000000000000000000000000000000000000000000000000000815260206004820152601660248201527f45524332303a20737570706c79206f766572666c6f770000000000000000000060448201526064016103a8565b6002870155505050505050565b60008061026160017fca9d3e17f264b0f3984e2634e94adb37fa3e6a8103f06aeae6fa59e21c769f5e61137d565b7fffffffff000000000000000000000000000000000000000000000000000000008083169003611040576040517f08c379a000000000000000000000000000000000000000000000000000000000815260206004820152601f60248201527f496e74657266616365446574656374696f6e3a2077726f6e672076616c75650060448201526064016103a8565b7fffffffff00000000000000000000000000000000000000000000000000000000919091166000908152602092909252604090912080547fffffffffffffffffffffffffffffffffffffffffffffffffffffffffffffff0016911515919091179055565b803573ffffffffffffffffffffffffffffffffffffffff811681146110c857600080fd5b919050565b600080604083850312156110e057600080fd5b6110e9836110a4565b946020939093013593505050565b60008060006060848603121561110c57600080fd5b611115846110a4565b9250611123602085016110a4565b9150604084013590509250925092565b7f4e487b7100000000000000000000000000000000000000000000000000000000600052604160045260246000fd5b604051601f82017fffffffffffffffffffffffffffffffffffffffffffffffffffffffffffffffe016810167ffffffffffffffff811182821017156111a9576111a9611133565b604052919050565b600067ffffffffffffffff8211156111cb576111cb611133565b5060051b60200190565b600082601f8301126111e657600080fd5b813560206111fb6111f6836111b1565b611162565b82815260059290921b8401810191818101908684111561121a57600080fd5b8286015b84811015611235578035835291830191830161121e565b509695505050505050565b6000806040838503121561125357600080fd5b823567ffffffffffffffff8082111561126b57600080fd5b818501915085601f83011261127f57600080fd5b8135602061128f6111f6836111b1565b82815260059290921b840181019181810190898411156112ae57600080fd5b948201945b838610156112d3576112c4866110a4565b825294820194908201906112b3565b965050860135925050808211156112e957600080fd5b506112f6858286016111d5565b9150509250929050565b60006020828403121561131257600080fd5b6102f0826110a4565b6000806040838503121561132e57600080fd5b611337836110a4565b9150611345602084016110a4565b90509250929050565b7f4e487b7100000000000000000000000000000000000000000000000000000000600052601160045260246000fd5b60008282101561138f5761138f61134e565b500390565b6000602082840312156113a657600080fd5b815180151581146102f057600080fd5b7f4e487b7100000000000000000000000000000000000000000000000000000000600052603260045260246000fd5b60007fffffffffffffffffffffffffffffffffffffffffffffffffffffffffffffffff82036114165761141661134e565b506001019056fea26469706673582212205159f317868b30256941978c6e92abbfebc84c06f7dd3dd8cbc5369c3668d3c064736f6c634300080e0033",
  "linkReferences": {},
  "deployedLinkReferences": {}
}