{
  "_format": "hh-sol-artifact-1",
  "contractName": "ForwarderRegistryContextFacet",
  "sourceName": "contracts/metatx/facets/ForwarderRegistryContextFacet.sol",
  "abi": [
    {
      "inputs": [
        {
          "internalType": "contract IForwarderRegistry",
          "name": "forwarderRegistry_",
          "type": "address"
        }
      ],
      "stateMutability": "nonpayable",
      "type": "constructor"
    },
    {
      "inputs": [],
      "name": "forwarderRegistry",
      "outputs": [
        {
          "internalType": "contract IForwarderRegistry",
          "name": "",
          "type": "address"
        }
      ],
      "stateMutability": "view",
      "type": "function"
    },
    {
      "inputs": [
        {
          "internalType": "address",
          "name": "forwarder",
          "type": "address"
        }
      ],
      "name": "isTrustedForwarder",
      "outputs": [
        {
          "internalType": "bool",
          "name": "",
          "type": "bool"
        }
      ],
      "stateMutability": "view",
      "type": "function"
    }
  ],
  "bytecode": "0x60a060405234801561000f575f80fd5b506040516101df3803806101df83398101604081905261002e9161003f565b6001600160a01b031660805261006c565b5f6020828403121561004f575f80fd5b81516001600160a01b0381168114610065575f80fd5b9392505050565b6080516101566100895f395f8181603d0152609901526101565ff3fe608060405234801561000f575f80fd5b5060043610610034575f3560e01c80632b4c9f1614610038578063572b6c0514610089575b5f80fd5b61005f7f000000000000000000000000000000000000000000000000000000000000000081565b60405173ffffffffffffffffffffffffffffffffffffffff90911681526020015b60405180910390f35b6100d66100973660046100e6565b7f000000000000000000000000000000000000000000000000000000000000000073ffffffffffffffffffffffffffffffffffffffff90811691161490565b6040519015158152602001610080565b5f602082840312156100f6575f80fd5b813573ffffffffffffffffffffffffffffffffffffffff81168114610119575f80fd5b939250505056fea264697066735822122040070e3f8b265a6f83f271672b1f3b078e3fd59af6ffa3deb745893171fbcf8464736f6c63430008150033",
  "linkReferences": {},
  "deployedLinkReferences": {}
}