{
  "_format": "hh-sol-artifact-1",
  "contractName": "ERC721TokenMetadataWithBaseURIStorage",
  "sourceName": "contracts/token/ERC721/libraries/ERC721TokenMetadataWithBaseURIStorage.sol",
  "abi": [
    {
      "inputs": [],
      "name": "ERC721TOKENMETADATAWITHBASEURI_STORAGE_POSITION",
      "outputs": [
        {
          "internalType": "bytes32",
          "name": "",
          "type": "bytes32"
        }
      ],
      "stateMutability": "view",
      "type": "function"
    },
    {
      "inputs": [],
      "name": "ERC721TOKENMETADATAWITHBASEURI_VERSION_SLOT",
      "outputs": [
        {
          "internalType": "bytes32",
          "name": "",
          "type": "bytes32"
        }
      ],
      "stateMutability": "view",
      "type": "function"
    }
  ],
  "bytecode": "0x61012561003a600b82828239805160001a60731461002d57634e487b7160e01b600052600060045260246000fd5b30600052607381538281f3fe7300000000000000000000000000000000000000003014608060405260043610603d5760003560e01c806305853708146042578063428adbd314605a575b600080fd5b60486060565b60405190815260200160405180910390f35b6048608c565b608960017fdf2ee7965c9504dc84db8f7759fc283282800c5a2fa3704c9f07f446b3b40a3f60b2565b81565b608960017f5f5773833f4966721eb3773ed87c7208ea74d78f0d94de1d8074345cac67333f5b60008282101560ea577f4e487b7100000000000000000000000000000000000000000000000000000000600052601160045260246000fd5b50039056fea2646970667358221220e718c17d04de16b8dd0b967e4c2cc96f4dbded56ea4a1f59fe2b989c5ae28ef964736f6c634300080d0033",
  "linkReferences": {},
  "deployedLinkReferences": {}
}