{
  "_format": "hh-sol-artifact-1",
  "contractName": "ERC721FullMintOnceBurnMock",
  "sourceName": "contracts/mocks/token/ERC721/preset/ERC721FullMintOnceBurnMock.sol",
  "abi": [
    {
      "inputs": [
        {
          "internalType": "string",
          "name": "tokenName",
          "type": "string"
        },
        {
          "internalType": "string",
          "name": "tokenSymbol",
          "type": "string"
        },
        {
          "internalType": "contract ITokenMetadataResolver",
          "name": "metadataResolver",
          "type": "address"
        },
        {
          "internalType": "contract IOperatorFilterRegistry",
          "name": "filterRegistry",
          "type": "address"
        },
        {
          "internalType": "contract IForwarderRegistry",
          "name": "forwarderRegistry",
          "type": "address"
        }
      ],
      "stateMutability": "nonpayable",
      "type": "constructor"
    },
    {
      "inputs": [
        {
          "internalType": "uint256",
          "name": "percentage",
          "type": "uint256"
        }
      ],
      "name": "ERC2981IncorrectRoyaltyPercentage",
      "type": "error"
    },
    {
      "inputs": [],
      "name": "ERC2981IncorrectRoyaltyReceiver",
      "type": "error"
    },
    {
      "inputs": [],
      "name": "ERC721BalanceOfAddressZero",
      "type": "error"
    },
    {
      "inputs": [
        {
          "internalType": "uint256",
          "name": "tokenId",
          "type": "uint256"
        }
      ],
      "name": "ERC721BurntToken",
      "type": "error"
    },
    {
      "inputs": [
        {
          "internalType": "uint256",
          "name": "tokenId",
          "type": "uint256"
        }
      ],
      "name": "ERC721ExistingToken",
      "type": "error"
    },
    {
      "inputs": [],
      "name": "ERC721MintToAddressZero",
      "type": "error"
    },
    {
      "inputs": [
        {
          "internalType": "address",
          "name": "sender",
          "type": "address"
        },
        {
          "internalType": "address",
          "name": "owner",
          "type": "address"
        },
        {
          "internalType": "uint256",
          "name": "tokenId",
          "type": "uint256"
        }
      ],
      "name": "ERC721NonApprovedForApproval",
      "type": "error"
    },
    {
      "inputs": [
        {
          "internalType": "address",
          "name": "sender",
          "type": "address"
        },
        {
          "internalType": "address",
          "name": "owner",
          "type": "address"
        },
        {
          "internalType": "uint256",
          "name": "tokenId",
          "type": "uint256"
        }
      ],
      "name": "ERC721NonApprovedForTransfer",
      "type": "error"
    },
    {
      "inputs": [
        {
          "internalType": "uint256",
          "name": "tokenId",
          "type": "uint256"
        }
      ],
      "name": "ERC721NonExistingToken",
      "type": "error"
    },
    {
      "inputs": [
        {
          "internalType": "address",
          "name": "account",
          "type": "address"
        },
        {
          "internalType": "uint256",
          "name": "tokenId",
          "type": "uint256"
        }
      ],
      "name": "ERC721NonOwnedToken",
      "type": "error"
    },
    {
      "inputs": [
        {
          "internalType": "address",
          "name": "recipient",
          "type": "address"
        },
        {
          "internalType": "uint256",
          "name": "tokenId",
          "type": "uint256"
        }
      ],
      "name": "ERC721SafeTransferRejected",
      "type": "error"
    },
    {
      "inputs": [
        {
          "internalType": "address",
          "name": "account",
          "type": "address"
        }
      ],
      "name": "ERC721SelfApproval",
      "type": "error"
    },
    {
      "inputs": [
        {
          "internalType": "address",
          "name": "account",
          "type": "address"
        }
      ],
      "name": "ERC721SelfApprovalForAll",
      "type": "error"
    },
    {
      "inputs": [],
      "name": "ERC721TransferToAddressZero",
      "type": "error"
    },
    {
      "inputs": [],
      "name": "IllegalInterfaceId",
      "type": "error"
    },
    {
      "inputs": [],
      "name": "InconsistentArrayLengths",
      "type": "error"
    },
    {
      "inputs": [
        {
          "internalType": "address",
          "name": "account",
          "type": "address"
        }
      ],
      "name": "NotContractOwner",
      "type": "error"
    },
    {
      "inputs": [
        {
          "internalType": "bytes32",
          "name": "role",
          "type": "bytes32"
        },
        {
          "internalType": "address",
          "name": "account",
          "type": "address"
        }
      ],
      "name": "NotRoleHolder",
      "type": "error"
    },
    {
      "inputs": [
        {
          "internalType": "address",
          "name": "operator",
          "type": "address"
        }
      ],
      "name": "OperatorNotAllowed",
      "type": "error"
    },
    {
      "anonymous": false,
      "inputs": [
        {
          "indexed": true,
          "internalType": "address",
          "name": "owner",
          "type": "address"
        },
        {
          "indexed": true,
          "internalType": "address",
          "name": "approved",
          "type": "address"
        },
        {
          "indexed": true,
          "internalType": "uint256",
          "name": "tokenId",
          "type": "uint256"
        }
      ],
      "name": "Approval",
      "type": "event"
    },
    {
      "anonymous": false,
      "inputs": [
        {
          "indexed": true,
          "internalType": "address",
          "name": "owner",
          "type": "address"
        },
        {
          "indexed": true,
          "internalType": "address",
          "name": "operator",
          "type": "address"
        },
        {
          "indexed": false,
          "internalType": "bool",
          "name": "approved",
          "type": "bool"
        }
      ],
      "name": "ApprovalForAll",
      "type": "event"
    },
    {
      "anonymous": false,
      "inputs": [
        {
          "indexed": true,
          "internalType": "address",
          "name": "previousOwner",
          "type": "address"
        },
        {
          "indexed": true,
          "internalType": "address",
          "name": "newOwner",
          "type": "address"
        }
      ],
      "name": "OwnershipTransferred",
      "type": "event"
    },
    {
      "anonymous": false,
      "inputs": [
        {
          "indexed": false,
          "internalType": "bytes32",
          "name": "role",
          "type": "bytes32"
        },
        {
          "indexed": false,
          "internalType": "address",
          "name": "account",
          "type": "address"
        },
        {
          "indexed": false,
          "internalType": "address",
          "name": "operator",
          "type": "address"
        }
      ],
      "name": "RoleGranted",
      "type": "event"
    },
    {
      "anonymous": false,
      "inputs": [
        {
          "indexed": false,
          "internalType": "bytes32",
          "name": "role",
          "type": "bytes32"
        },
        {
          "indexed": false,
          "internalType": "address",
          "name": "account",
          "type": "address"
        },
        {
          "indexed": false,
          "internalType": "address",
          "name": "operator",
          "type": "address"
        }
      ],
      "name": "RoleRevoked",
      "type": "event"
    },
    {
      "anonymous": false,
      "inputs": [
        {
          "indexed": true,
          "internalType": "address",
          "name": "from",
          "type": "address"
        },
        {
          "indexed": true,
          "internalType": "address",
          "name": "to",
          "type": "address"
        },
        {
          "indexed": true,
          "internalType": "uint256",
          "name": "tokenId",
          "type": "uint256"
        }
      ],
      "name": "Transfer",
      "type": "event"
    },
    {
      "inputs": [],
      "name": "MINTER_ROLE",
      "outputs": [
        {
          "internalType": "bytes32",
          "name": "",
          "type": "bytes32"
        }
      ],
      "stateMutability": "view",
      "type": "function"
    },
    {
      "inputs": [],
      "name": "ROYALTY_FEE_DENOMINATOR",
      "outputs": [
        {
          "internalType": "uint256",
          "name": "",
          "type": "uint256"
        }
      ],
      "stateMutability": "view",
      "type": "function"
    },
    {
      "inputs": [],
      "name": "__msgData",
      "outputs": [
        {
          "internalType": "bytes",
          "name": "",
          "type": "bytes"
        }
      ],
      "stateMutability": "view",
      "type": "function"
    },
    {
      "inputs": [
        {
          "internalType": "address",
          "name": "to",
          "type": "address"
        },
        {
          "internalType": "uint256",
          "name": "tokenId",
          "type": "uint256"
        }
      ],
      "name": "approve",
      "outputs": [],
      "stateMutability": "nonpayable",
      "type": "function"
    },
    {
      "inputs": [
        {
          "internalType": "address",
          "name": "owner",
          "type": "address"
        }
      ],
      "name": "balanceOf",
      "outputs": [
        {
          "internalType": "uint256",
          "name": "balance",
          "type": "uint256"
        }
      ],
      "stateMutability": "view",
      "type": "function"
    },
    {
      "inputs": [
        {
          "internalType": "address",
          "name": "from",
          "type": "address"
        },
        {
          "internalType": "uint256[]",
          "name": "tokenIds",
          "type": "uint256[]"
        }
      ],
      "name": "batchBurnFrom",
      "outputs": [],
      "stateMutability": "nonpayable",
      "type": "function"
    },
    {
      "inputs": [
        {
          "internalType": "address",
          "name": "to",
          "type": "address"
        },
        {
          "internalType": "uint256[]",
          "name": "tokenIds",
          "type": "uint256[]"
        }
      ],
      "name": "batchMint",
      "outputs": [],
      "stateMutability": "nonpayable",
      "type": "function"
    },
    {
      "inputs": [
        {
          "internalType": "address",
          "name": "from",
          "type": "address"
        },
        {
          "internalType": "address",
          "name": "to",
          "type": "address"
        },
        {
          "internalType": "uint256[]",
          "name": "tokenIds",
          "type": "uint256[]"
        }
      ],
      "name": "batchTransferFrom",
      "outputs": [],
      "stateMutability": "nonpayable",
      "type": "function"
    },
    {
      "inputs": [
        {
          "internalType": "address",
          "name": "from",
          "type": "address"
        },
        {
          "internalType": "uint256",
          "name": "tokenId",
          "type": "uint256"
        }
      ],
      "name": "burnFrom",
      "outputs": [],
      "stateMutability": "nonpayable",
      "type": "function"
    },
    {
      "inputs": [
        {
          "internalType": "address[]",
          "name": "recipients",
          "type": "address[]"
        },
        {
          "internalType": "uint256[]",
          "name": "tokenIds",
          "type": "uint256[]"
        }
      ],
      "name": "deliver",
      "outputs": [],
      "stateMutability": "nonpayable",
      "type": "function"
    },
    {
      "inputs": [],
      "name": "forwarderRegistry",
      "outputs": [
        {
          "internalType": "contract IForwarderRegistry",
          "name": "",
          "type": "address"
        }
      ],
      "stateMutability": "view",
      "type": "function"
    },
    {
      "inputs": [
        {
          "internalType": "uint256",
          "name": "tokenId",
          "type": "uint256"
        }
      ],
      "name": "getApproved",
      "outputs": [
        {
          "internalType": "address",
          "name": "approved",
          "type": "address"
        }
      ],
      "stateMutability": "view",
      "type": "function"
    },
    {
      "inputs": [
        {
          "internalType": "bytes32",
          "name": "role",
          "type": "bytes32"
        },
        {
          "internalType": "address",
          "name": "account",
          "type": "address"
        }
      ],
      "name": "grantRole",
      "outputs": [],
      "stateMutability": "nonpayable",
      "type": "function"
    },
    {
      "inputs": [
        {
          "internalType": "bytes32",
          "name": "role",
          "type": "bytes32"
        },
        {
          "internalType": "address",
          "name": "account",
          "type": "address"
        }
      ],
      "name": "hasRole",
      "outputs": [
        {
          "internalType": "bool",
          "name": "hasRole_",
          "type": "bool"
        }
      ],
      "stateMutability": "view",
      "type": "function"
    },
    {
      "inputs": [
        {
          "internalType": "address",
          "name": "owner",
          "type": "address"
        },
        {
          "internalType": "address",
          "name": "operator",
          "type": "address"
        }
      ],
      "name": "isApprovedForAll",
      "outputs": [
        {
          "internalType": "bool",
          "name": "approvedForAll",
          "type": "bool"
        }
      ],
      "stateMutability": "view",
      "type": "function"
    },
    {
      "inputs": [
        {
          "internalType": "address",
          "name": "forwarder",
          "type": "address"
        }
      ],
      "name": "isTrustedForwarder",
      "outputs": [
        {
          "internalType": "bool",
          "name": "",
          "type": "bool"
        }
      ],
      "stateMutability": "view",
      "type": "function"
    },
    {
      "inputs": [],
      "name": "metadataResolver",
      "outputs": [
        {
          "internalType": "contract ITokenMetadataResolver",
          "name": "tokenMetadataResolver",
          "type": "address"
        }
      ],
      "stateMutability": "view",
      "type": "function"
    },
    {
      "inputs": [
        {
          "internalType": "address",
          "name": "to",
          "type": "address"
        },
        {
          "internalType": "uint256",
          "name": "tokenId",
          "type": "uint256"
        }
      ],
      "name": "mint",
      "outputs": [],
      "stateMutability": "nonpayable",
      "type": "function"
    },
    {
      "inputs": [],
      "name": "name",
      "outputs": [
        {
          "internalType": "string",
          "name": "tokenName",
          "type": "string"
        }
      ],
      "stateMutability": "view",
      "type": "function"
    },
    {
      "inputs": [],
      "name": "operatorFilterRegistry",
      "outputs": [
        {
          "internalType": "contract IOperatorFilterRegistry",
          "name": "",
          "type": "address"
        }
      ],
      "stateMutability": "view",
      "type": "function"
    },
    {
      "inputs": [],
      "name": "owner",
      "outputs": [
        {
          "internalType": "address",
          "name": "",
          "type": "address"
        }
      ],
      "stateMutability": "view",
      "type": "function"
    },
    {
      "inputs": [
        {
          "internalType": "uint256",
          "name": "tokenId",
          "type": "uint256"
        }
      ],
      "name": "ownerOf",
      "outputs": [
        {
          "internalType": "address",
          "name": "tokenOwner",
          "type": "address"
        }
      ],
      "stateMutability": "view",
      "type": "function"
    },
    {
      "inputs": [
        {
          "internalType": "address[]",
          "name": "accounts",
          "type": "address[]"
        },
        {
          "internalType": "contract IERC20[]",
          "name": "tokens",
          "type": "address[]"
        },
        {
          "internalType": "uint256[]",
          "name": "amounts",
          "type": "uint256[]"
        }
      ],
      "name": "recoverERC20s",
      "outputs": [],
      "stateMutability": "nonpayable",
      "type": "function"
    },
    {
      "inputs": [
        {
          "internalType": "address[]",
          "name": "accounts",
          "type": "address[]"
        },
        {
          "internalType": "contract IERC721[]",
          "name": "contracts",
          "type": "address[]"
        },
        {
          "internalType": "uint256[]",
          "name": "tokenIds",
          "type": "uint256[]"
        }
      ],
      "name": "recoverERC721s",
      "outputs": [],
      "stateMutability": "nonpayable",
      "type": "function"
    },
    {
      "inputs": [
        {
          "internalType": "address payable[]",
          "name": "accounts",
          "type": "address[]"
        },
        {
          "internalType": "uint256[]",
          "name": "amounts",
          "type": "uint256[]"
        }
      ],
      "name": "recoverETH",
      "outputs": [],
      "stateMutability": "nonpayable",
      "type": "function"
    },
    {
      "inputs": [
        {
          "internalType": "bytes32",
          "name": "role",
          "type": "bytes32"
        }
      ],
      "name": "renounceRole",
      "outputs": [],
      "stateMutability": "nonpayable",
      "type": "function"
    },
    {
      "inputs": [
        {
          "internalType": "bytes32",
          "name": "role",
          "type": "bytes32"
        },
        {
          "internalType": "address",
          "name": "account",
          "type": "address"
        }
      ],
      "name": "revokeRole",
      "outputs": [],
      "stateMutability": "nonpayable",
      "type": "function"
    },
    {
      "inputs": [
        {
          "internalType": "uint256",
          "name": "tokenId",
          "type": "uint256"
        },
        {
          "internalType": "uint256",
          "name": "salePrice",
          "type": "uint256"
        }
      ],
      "name": "royaltyInfo",
      "outputs": [
        {
          "internalType": "address",
          "name": "receiver",
          "type": "address"
        },
        {
          "internalType": "uint256",
          "name": "royaltyAmount",
          "type": "uint256"
        }
      ],
      "stateMutability": "view",
      "type": "function"
    },
    {
      "inputs": [
        {
          "internalType": "address",
          "name": "to",
          "type": "address"
        },
        {
          "internalType": "uint256",
          "name": "tokenId",
          "type": "uint256"
        },
        {
          "internalType": "bytes",
          "name": "data",
          "type": "bytes"
        }
      ],
      "name": "safeMint",
      "outputs": [],
      "stateMutability": "nonpayable",
      "type": "function"
    },
    {
      "inputs": [
        {
          "internalType": "address",
          "name": "from",
          "type": "address"
        },
        {
          "internalType": "address",
          "name": "to",
          "type": "address"
        },
        {
          "internalType": "uint256",
          "name": "tokenId",
          "type": "uint256"
        }
      ],
      "name": "safeTransferFrom",
      "outputs": [],
      "stateMutability": "nonpayable",
      "type": "function"
    },
    {
      "inputs": [
        {
          "internalType": "address",
          "name": "from",
          "type": "address"
        },
        {
          "internalType": "address",
          "name": "to",
          "type": "address"
        },
        {
          "internalType": "uint256",
          "name": "tokenId",
          "type": "uint256"
        },
        {
          "internalType": "bytes",
          "name": "data",
          "type": "bytes"
        }
      ],
      "name": "safeTransferFrom",
      "outputs": [],
      "stateMutability": "nonpayable",
      "type": "function"
    },
    {
      "inputs": [
        {
          "internalType": "address",
          "name": "operator",
          "type": "address"
        },
        {
          "internalType": "bool",
          "name": "approved",
          "type": "bool"
        }
      ],
      "name": "setApprovalForAll",
      "outputs": [],
      "stateMutability": "nonpayable",
      "type": "function"
    },
    {
      "inputs": [
        {
          "internalType": "uint256",
          "name": "percentage",
          "type": "uint256"
        }
      ],
      "name": "setRoyaltyPercentage",
      "outputs": [],
      "stateMutability": "nonpayable",
      "type": "function"
    },
    {
      "inputs": [
        {
          "internalType": "address",
          "name": "receiver",
          "type": "address"
        }
      ],
      "name": "setRoyaltyReceiver",
      "outputs": [],
      "stateMutability": "nonpayable",
      "type": "function"
    },
    {
      "inputs": [
        {
          "internalType": "bytes4",
          "name": "interfaceId",
          "type": "bytes4"
        }
      ],
      "name": "supportsInterface",
      "outputs": [
        {
          "internalType": "bool",
          "name": "",
          "type": "bool"
        }
      ],
      "stateMutability": "view",
      "type": "function"
    },
    {
      "inputs": [],
      "name": "symbol",
      "outputs": [
        {
          "internalType": "string",
          "name": "tokenSymbol",
          "type": "string"
        }
      ],
      "stateMutability": "view",
      "type": "function"
    },
    {
      "inputs": [
        {
          "internalType": "uint256",
          "name": "tokenId",
          "type": "uint256"
        }
      ],
      "name": "tokenURI",
      "outputs": [
        {
          "internalType": "string",
          "name": "uri",
          "type": "string"
        }
      ],
      "stateMutability": "view",
      "type": "function"
    },
    {
      "inputs": [
        {
          "internalType": "address",
          "name": "from",
          "type": "address"
        },
        {
          "internalType": "address",
          "name": "to",
          "type": "address"
        },
        {
          "internalType": "uint256",
          "name": "tokenId",
          "type": "uint256"
        }
      ],
      "name": "transferFrom",
      "outputs": [],
      "stateMutability": "nonpayable",
      "type": "function"
    },
    {
      "inputs": [
        {
          "internalType": "address",
          "name": "newOwner",
          "type": "address"
        }
      ],
      "name": "transferOwnership",
      "outputs": [],
      "stateMutability": "nonpayable",
      "type": "function"
    },
    {
      "inputs": [
        {
          "internalType": "contract IOperatorFilterRegistry",
          "name": "registry",
          "type": "address"
        }
      ],
      "name": "updateOperatorFilterRegistry",
      "outputs": [],
      "stateMutability": "nonpayable",
      "type": "function"
    },
    {
      "inputs": [
        {
          "internalType": "uint256",
          "name": "tokenId",
          "type": "uint256"
        }
      ],
      "name": "wasBurnt",
      "outputs": [
        {
          "internalType": "bool",
          "name": "tokenWasBurnt",
          "type": "bool"
        }
      ],
      "stateMutability": "view",
      "type": "function"
    }
  ],
  "bytecode": "0x60a06040523480156200001157600080fd5b5060405162004a2e38038062004a2e83398101604081905262000034916200046f565b84848484848080868686863362000056816200004f62000107565b906200013d565b5062000061620001b8565b6200008e8162000070620001d2565b9081546001600160a01b0319166001600160a01b0391909116179055565b506200009962000202565b620000b3838383620000aa6200021a565b9291906200024a565b620000bd62000291565b50620000cb915050620002a9565b620000d5620002c1565b620000df620002d9565b620000e9620002f1565b6001600160a01b031660805250620006989950505050505050505050565b6000806200013760017fc9ed16f33ab3a66c84bfd83099ccb2a8845871e2e1c1928f63797152f0fd54cd6200051b565b92915050565b6001600160a01b03811615620001945781546001600160a01b0319166001600160a01b03821690811783556040516000907f8be0079c531659141344cd1fd0a4f28419497f9722a3daafe3b4186f6b6457e0908290a35b620001b46307f5828d60e41b6001620001ac62000304565b919062000334565b5050565b620001d06380ac58cd60e01b6001620001ac62000304565b565b6000806200013760017f609b85bcafa81ecfaf3ff62cdde2c6c9082a68dbe4922f07399c706bdeb7cd316200051b565b620001d063f3993d1160e01b6001620001ac62000304565b6000806200013760017f7ea68fd2dcf1c056b94db6a0a537aa80d26fa9ab1eacd85da1ba0b61b7e7a8a56200051b565b83620002578482620005cc565b5060018401620002688382620005cc565b5060029390930180546001600160a01b0319166001600160a01b03909416939093179092555050565b620001d0635b5e139f60e01b6001620001ac62000304565b620001d0638e773e1360e01b6001620001ac62000304565b620001d0634ed2f41960e11b6001620001ac62000304565b620001d0638b8b4ef560e01b6001620001ac62000304565b620001d063152a902d60e11b6001620001ac5b6000806200013760017fca9d3e17f264b0f3984e2634e94adb37fa3e6a8103f06aeae6fa59e21c769f5e6200051b565b600160e01b6001600160e01b031983160162000363576040516372c683bb60e01b815260040160405180910390fd5b6001600160e01b03199190911660009081526020929092526040909120805460ff1916911515919091179055565b634e487b7160e01b600052604160045260246000fd5b600082601f830112620003b957600080fd5b81516001600160401b0380821115620003d657620003d662000391565b604051601f8301601f19908116603f0116810190828211818310171562000401576200040162000391565b816040528381526020925086838588010111156200041e57600080fd5b600091505b8382101562000442578582018301518183018401529082019062000423565b600093810190920192909252949350505050565b6001600160a01b03811681146200046c57600080fd5b50565b600080600080600060a086880312156200048857600080fd5b85516001600160401b0380821115620004a057600080fd5b620004ae89838a01620003a7565b96506020880151915080821115620004c557600080fd5b50620004d488828901620003a7565b9450506040860151620004e78162000456565b6060870151909350620004fa8162000456565b60808701519092506200050d8162000456565b809150509295509295909350565b818103818111156200013757634e487b7160e01b600052601160045260246000fd5b600181811c908216806200055257607f821691505b6020821081036200057357634e487b7160e01b600052602260045260246000fd5b50919050565b601f821115620005c757600081815260208120601f850160051c81016020861015620005a25750805b601f850160051c820191505b81811015620005c357828155600101620005ae565b5050505b505050565b81516001600160401b03811115620005e857620005e862000391565b6200060081620005f984546200053d565b8462000579565b602080601f8311600181146200063857600084156200061f5750858301515b600019600386901b1c1916600185901b178555620005c3565b600085815260208120601f198616915b82811015620006695788860151825594840194600190910190840162000648565b5085821015620006885787850151600019600388901b60f8161c191681555b5050505050600190811b01905550565b608051614357620006d7600039600081816103c90152818161045f0152818161340101528181613489015281816135b101526135ef01526143576000f3fe608060405234801561001057600080fd5b50600436106102d35760003560e01c80638bb9c5bf11610186578063c3666c36116100e3578063e1a8bf2c11610097578063f2fde38b11610071578063f2fde38b14610651578063f3993d1114610664578063f7ba94bd1461067757600080fd5b8063e1a8bf2c14610621578063e985e9c51461062b578063f24729651461063e57600080fd5b8063c87b56dd116100c8578063c87b56dd146105d4578063d5391393146105e7578063d547741f1461060e57600080fd5b8063c3666c36146105ae578063c77c6955146105c157600080fd5b80639da5e8321161013a578063a22cb4651161011f578063a22cb46514610580578063b0ccc31e14610593578063b88d4fde1461059b57600080fd5b80639da5e83214610565578063a0c76f621461057857600080fd5b80638dc251e31161016b5780638dc251e31461053757806391d148541461054a57806395d89b411461055d57600080fd5b80638bb9c5bf1461051c5780638da5cb5b1461052f57600080fd5b806340c10f19116102345780636352211e116101e857806373c8a958116101cd57806373c8a958146104e357806379cc6790146104f65780638832e6e31461050957600080fd5b80636352211e146104af57806370a08231146104c257600080fd5b80634684d7e9116102195780634684d7e91461043c578063572b6c051461044f57806361ba27da1461049c57600080fd5b806340c10f191461041657806342842e0e1461042957600080fd5b806323b872dd1161028b5780632b4c9f16116102705780632b4c9f16146103c75780632f2ff15d146103ed57806331e66e1e1461040057600080fd5b806323b872dd146103755780632a55205a1461038857600080fd5b8063081812fc116102bc578063081812fc14610315578063095ea7b31461034d578063114ba8ee1461036257600080fd5b806301ffc9a7146102d857806306fdde0314610300575b600080fd5b6102eb6102e6366004613ae9565b61068a565b60405190151581526020015b60405180910390f35b6103086106a4565b6040516102f79190613b74565b610328610323366004613b87565b6106b3565b60405173ffffffffffffffffffffffffffffffffffffffff90911681526020016102f7565b61036061035b366004613bc2565b6106c7565b005b610360610370366004613bee565b610716565b610360610383366004613c0b565b610781565b61039b610396366004613c4c565b6107bf565b6040805173ffffffffffffffffffffffffffffffffffffffff90931683526020830191909152016102f7565b7f0000000000000000000000000000000000000000000000000000000000000000610328565b6103606103fb366004613c6e565b6107e2565b610408610815565b6040516102f7929190613c9e565b610360610424366004613bc2565b610828565b610360610437366004613c0b565b610877565b61036061044a366004613d30565b6108a8565b6102eb61045d366004613bee565b7f000000000000000000000000000000000000000000000000000000000000000073ffffffffffffffffffffffffffffffffffffffff90811691161490565b6103606104aa366004613b87565b61091c565b6103286104bd366004613b87565b610939565b6104d56104d0366004613bee565b61094d565b6040519081526020016102f7565b6103606104f1366004613d85565b610961565b610360610504366004613bc2565b610a56565b610360610517366004613e61565b610a73565b61036061052a366004613b87565b610af5565b610328610b10565b610360610545366004613bee565b610b37565b6102eb610558366004613c6e565b610b54565b610308610b9f565b610360610573366004613ebd565b610ba9565b610328610c4d565b61036061058e366004613f2b565b610c77565b610328610ca6565b6103606105a9366004613f59565b610cb3565b6103606105bc366004613d85565b610cf0565b6102eb6105cf366004613b87565b610e67565b6103086105e2366004613b87565b610e7b565b6104d57f6d696e746572000000000000000000000000000000000000000000000000000081565b61036061061c366004613c6e565b610e9e565b6104d5620186a081565b6102eb610639366004613fcc565b610ecc565b61036061064c366004613d30565b610f1a565b61036061065f366004613bee565b610f39565b610360610672366004613ffa565b610f54565b610360610685366004613ebd565b610f8e565b600061069e82610698611044565b90611072565b92915050565b60606106ae61114c565b905090565b600061069e826106c161115e565b9061118c565b73ffffffffffffffffffffffffffffffffffffffff8216156106f5576106f5826106ef611245565b90611273565b61071261070061127d565b838361070a61115e565b929190611287565b5050565b61072f61072161127d565b610729611502565b90611530565b61077e8161073b611245565b9081547fffffffffffffffffffffffff00000000000000000000000000000000000000001673ffffffffffffffffffffffffffffffffffffffff91909116179055565b50565b600061078b61127d565b90506107a1818561079a611245565b91906115dd565b6107b9818585856107b061115e565b9392919061161a565b50505050565b6000806107d684846107cf6118f8565b9190611926565b915091505b9250929050565b60006107ec61127d565b90506107fa81610729611502565b6108108383836108086119d0565b9291906119fe565b505050565b366000610820611ad4565b915091509091565b6108637f6d696e746572000000000000000000000000000000000000000000000000000061085461127d565b61085c6119d0565b9190611adf565b610712828261087061115e565b9190611b65565b600061088161127d565b9050610890818561079a611245565b6107b98185858561089f61115e565b93929190611cdd565b6108d47f6d696e746572000000000000000000000000000000000000000000000000000061085461127d565b61081083838380806020026020016040519081016040528093929190818152602001838360200280828437600092019190915250610915925061115e915050565b9190611d23565b61092761072161127d565b61077e816109336118f8565b90611eee565b600061069e8261094761115e565b90611f74565b600061069e8261095b61115e565b90611fdd565b61096c61072161127d565b84838114158061097c5750808214155b156109b3576040517f6582533600000000000000000000000000000000000000000000000000000000815260040160405180910390fd5b60005b818114610a4c57610a448888838181106109d2576109d2614053565b90506020020160208101906109e79190613bee565b8585848181106109f9576109f9614053565b90506020020135888885818110610a1257610a12614053565b9050602002016020810190610a279190613bee565b73ffffffffffffffffffffffffffffffffffffffff169190612059565b6001016109b6565b5050505050505050565b610712610a6161127d565b8383610a6b61115e565b9291906120e6565b610a9f7f6d696e746572000000000000000000000000000000000000000000000000000061085461127d565b6107b9610aaa61127d565b858585858080601f016020809104026020016040519081016040528093929190818152602001838380828437600092019190915250610aec925061115e915050565b93929190612330565b61077e610b0061127d565b82610b096119d0565b9190612366565b60006106ae610b1d611502565b5473ffffffffffffffffffffffffffffffffffffffff1690565b610b4261072161127d565b61077e81610b4e6118f8565b9061240a565b6000610b988383610b636119d0565b60009283526020908152604080842073ffffffffffffffffffffffffffffffffffffffff909316845291905290205460ff1690565b9392505050565b60606106ae612457565b610bd57f6d696e746572000000000000000000000000000000000000000000000000000061085461127d565b6107b984848080602002602001604051908101604052809392919081815260200183836020028082843760009201919091525050604080516020808802828101820190935287825290935087925086918291850190849080828437600092019190915250610c46925061115e915050565b9190612469565b60006106ae610c5a612689565b6002015473ffffffffffffffffffffffffffffffffffffffff1690565b8015610c8957610c89826106ef611245565b610712610c9461127d565b8383610c9e61115e565b9291906126b7565b60006106ae610b1d611245565b6000610cbd61127d565b9050610ccc818761079a611245565b610ce8818787878787610cdd61115e565b9594939291906127cf565b505050505050565b610cfb61072161127d565b848381141580610d0b5750808214155b15610d42576040517f6582533600000000000000000000000000000000000000000000000000000000815260040160405180910390fd5b60005b818114610a4c57858582818110610d5e57610d5e614053565b9050602002016020810190610d739190613bee565b73ffffffffffffffffffffffffffffffffffffffff166323b872dd308a8a85818110610da157610da1614053565b9050602002016020810190610db69190613bee565b878786818110610dc857610dc8614053565b6040517fffffffff0000000000000000000000000000000000000000000000000000000060e088901b16815273ffffffffffffffffffffffffffffffffffffffff958616600482015294909316602485015250602090910201356044820152606401600060405180830381600087803b158015610e4457600080fd5b505af1158015610e58573d6000803e3d6000fd5b50505050806001019050610d45565b600061069e82610e7561115e565b90612845565b6060610e898261094761115e565b5061069e3083610e97612689565b919061287b565b6000610ea861127d565b9050610eb681610729611502565b610810838383610ec46119d0565b92919061293b565b6000610b988383610edb61115e565b919073ffffffffffffffffffffffffffffffffffffffff9182166000908152600393909301602090815260408085209290931684525290205460ff1690565b610810610f2561127d565b848484610f3061115e565b93929190612a05565b61077e610f4461127d565b82610f4d611502565b9190612c8f565b6000610f5e61127d565b9050610f6d818661079a611245565b610f878186868686610f7d61115e565b9493929190612da3565b5050505050565b610f9961072161127d565b82818114610fd3576040517f6582533600000000000000000000000000000000000000000000000000000000815260040160405180910390fd5b60005b818114610ce85761103c848483818110610ff257610ff2614053565b9050602002013587878481811061100b5761100b614053565b90506020020160208101906110209190613bee565b73ffffffffffffffffffffffffffffffffffffffff16906130a7565b600101610fd6565b60008061069e60017fca9d3e17f264b0f3984e2634e94adb37fa3e6a8103f06aeae6fa59e21c769f5e6140b1565b60007c01000000000000000000000000000000000000000000000000000000007fffffffff000000000000000000000000000000000000000000000000000000008316016110c25750600061069e565b7ffe003659000000000000000000000000000000000000000000000000000000007fffffffff000000000000000000000000000000000000000000000000000000008316016111135750600161069e565b507fffffffff00000000000000000000000000000000000000000000000000000000166000908152602091909152604090205460ff1690565b60606106ae611159612689565b613201565b60008061069e60017fddf3ee18ae6d688373c219468f8be446e7ae82215f4779d821c7ea5e8c13c0c16140b1565b60008181526020839052604081205473ffffffffffffffffffffffffffffffffffffffff81166111f0576040517fdd560475000000000000000000000000000000000000000000000000000000008152600481018490526024015b60405180910390fd5b7401000000000000000000000000000000000000000081161561123b575050600081815260028301602052604090205473ffffffffffffffffffffffffffffffffffffffff1661069e565b600091505061069e565b60008061069e60017f609b85bcafa81ecfaf3ff62cdde2c6c9082a68dbe4922f07399c706bdeb7cd316140b1565b6107128282613297565b60006106ae6133be565b60008181526020859052604090205473ffffffffffffffffffffffffffffffffffffffff81166112e6576040517fdd560475000000000000000000000000000000000000000000000000000000008152600481018390526024016111e7565b8073ffffffffffffffffffffffffffffffffffffffff80821690851603611351576040517fb7fdc01000000000000000000000000000000000000000000000000000000000815273ffffffffffffffffffffffffffffffffffffffff821660048201526024016111e7565b61135c868287613505565b6113b9576040517fc7563a1800000000000000000000000000000000000000000000000000000000815273ffffffffffffffffffffffffffffffffffffffff808716600483015282166024820152604481018490526064016111e7565b73ffffffffffffffffffffffffffffffffffffffff841661141e577401000000000000000000000000000000000000000082161561141957600083815260208790526040902073ffffffffffffffffffffffffffffffffffffffff821690555b61149f565b74010000000000000000000000000000000000000000821780831461144f5760008481526020889052604090208190555b506000838152600287016020526040902080547fffffffffffffffffffffffff00000000000000000000000000000000000000001673ffffffffffffffffffffffffffffffffffffffff86161790555b828473ffffffffffffffffffffffffffffffffffffffff168273ffffffffffffffffffffffffffffffffffffffff167f8c5be1e5ebec7d5bd14f71427d1e84f3dd0314c0f7b2291e5b200ac8c7c3b92560405160405180910390a4505050505050565b60008061069e60017fc9ed16f33ab3a66c84bfd83099ccb2a8845871e2e1c1928f63797152f0fd54cd6140b1565b815473ffffffffffffffffffffffffffffffffffffffff828116911614610712576040517f2ef4875e00000000000000000000000000000000000000000000000000000000815273ffffffffffffffffffffffffffffffffffffffff821660048201526024016111e7565b81547fffffffffffffffffffffffff00000000000000000000000000000000000000001673ffffffffffffffffffffffffffffffffffffffff91909116179055565b8073ffffffffffffffffffffffffffffffffffffffff168273ffffffffffffffffffffffffffffffffffffffff1614610810576108108383613297565b73ffffffffffffffffffffffffffffffffffffffff8216611667576040517f86c8706700000000000000000000000000000000000000000000000000000000815260040160405180910390fd5b60008181526020869052604090205473ffffffffffffffffffffffffffffffffffffffff81166116c6576040517fdd560475000000000000000000000000000000000000000000000000000000008152600481018390526024016111e7565b73ffffffffffffffffffffffffffffffffffffffff84168173ffffffffffffffffffffffffffffffffffffffff161461174a576040517f14dbb53600000000000000000000000000000000000000000000000000000000815273ffffffffffffffffffffffffffffffffffffffff85166004820152602481018390526044016111e7565b611755868587613505565b6118045774010000000000000000000000000000000000000000811615806117a65750600082815260028701602052604090205473ffffffffffffffffffffffffffffffffffffffff868116911614155b15611804576040517fa4a3018b00000000000000000000000000000000000000000000000000000000815273ffffffffffffffffffffffffffffffffffffffff808716600483015285166024820152604481018390526064016111e7565b600082815260208790526040902073ffffffffffffffffffffffffffffffffffffffff808516918290558516146118955773ffffffffffffffffffffffffffffffffffffffff80851660009081526001808901602052604080832080547fffffffffffffffffffffffffffffffffffffffffffffffffffffffffffffffff0190559286168252919020805490910190555b818373ffffffffffffffffffffffffffffffffffffffff168573ffffffffffffffffffffffffffffffffffffffff167fddf252ad1be2c89b69c2b068fc378daa952ba7f163c4a11628f55a4df523b3ef60405160405180910390a4505050505050565b60008061069e60017f2c0cf10337caabbd02dcf226f05f5fd19a0919a41a8df8958c39b800078268586140b1565b825473ffffffffffffffffffffffffffffffffffffffff8116906000907401000000000000000000000000000000000000000090046bffffffffffffffffffffffff16831580611974575080155b1561198257600091506119c7565b620186a08410156119ac57620186a061199b82866140c4565b6119a591906140db565b91506119c7565b806119ba620186a0866140db565b6119c491906140c4565b91505b50935093915050565b60008061069e60017fc8827d3282af6f37b64c3e9e6f3ac9df286ab0bb0fccd6f8661bf19adb368b236140b1565b60008381526020858152604080832073ffffffffffffffffffffffffffffffffffffffff8616845290915290205460ff166107b95760008381526020858152604080832073ffffffffffffffffffffffffffffffffffffffff8681168086529184529382902080547fffffffffffffffffffffffffffffffffffffffffffffffffffffffffffffff00166001179055815187815292830152918316918101919091527f2f8788117e7eff1d82e926ec794901d17c78024a50270940304540a733656f0d906060015b60405180910390a150505050565b36600061082061357a565b60008281526020848152604080832073ffffffffffffffffffffffffffffffffffffffff8516845290915290205460ff16610810576040517f7aa728820000000000000000000000000000000000000000000000000000000081526004810183905273ffffffffffffffffffffffffffffffffffffffff821660248201526044016111e7565b73ffffffffffffffffffffffffffffffffffffffff8216611bb2576040517f7851b9cd00000000000000000000000000000000000000000000000000000000815260040160405180910390fd5b60008181526020849052604090205473ffffffffffffffffffffffffffffffffffffffff811615611c12576040517f753eceac000000000000000000000000000000000000000000000000000000008152600481018390526024016111e7565b7fdead0000000000000000000000000000000000000000000000000000000000008103611c6e576040517f31e8d3d5000000000000000000000000000000000000000000000000000000008152600481018390526024016111e7565b60008281526020858152604080832073ffffffffffffffffffffffffffffffffffffffff87169081905580845260018089019093528184208054909301909255518492907fddf252ad1be2c89b69c2b068fc378daa952ba7f163c4a11628f55a4df523b3ef908290a450505050565b611cea858585858561161a565b73ffffffffffffffffffffffffffffffffffffffff82163b15610f8757610f8784848484604051806020016040528060008152506136e4565b73ffffffffffffffffffffffffffffffffffffffff8216611d70576040517f7851b9cd00000000000000000000000000000000000000000000000000000000815260040160405180910390fd5b805160005b818114611eb9576000838281518110611d9057611d90614053565b60209081029190910181015160008181529188905260409091205490915073ffffffffffffffffffffffffffffffffffffffff811615611dff576040517f753eceac000000000000000000000000000000000000000000000000000000008152600481018390526024016111e7565b7fdead0000000000000000000000000000000000000000000000000000000000008103611e5b576040517f31e8d3d5000000000000000000000000000000000000000000000000000000008152600481018390526024016111e7565b60008281526020889052604080822073ffffffffffffffffffffffffffffffffffffffff89169081905590518492907fddf252ad1be2c89b69c2b068fc378daa952ba7f163c4a11628f55a4df523b3ef908290a45050600101611d75565b5073ffffffffffffffffffffffffffffffffffffffff9092166000908152600190930160205250604090912080549091019055565b620186a0811115611f2e576040517fac040408000000000000000000000000000000000000000000000000000000008152600481018290526024016111e7565b81546bffffffffffffffffffffffff909116740100000000000000000000000000000000000000000273ffffffffffffffffffffffffffffffffffffffff909116179055565b60008181526020839052604081205473ffffffffffffffffffffffffffffffffffffffff8116611fd3576040517fdd560475000000000000000000000000000000000000000000000000000000008152600481018490526024016111e7565b805b949350505050565b600073ffffffffffffffffffffffffffffffffffffffff821661202c576040517faefbce4e00000000000000000000000000000000000000000000000000000000815260040160405180910390fd5b5073ffffffffffffffffffffffffffffffffffffffff166000908152600191909101602052604090205490565b6040805173ffffffffffffffffffffffffffffffffffffffff8416602482015260448082018490528251808303909101815260649091019091526020810180517bffffffffffffffffffffffffffffffffffffffffffffffffffffffff167fa9059cbb000000000000000000000000000000000000000000000000000000001790526108109084906137f9565b60008181526020859052604090205473ffffffffffffffffffffffffffffffffffffffff8116612145576040517fdd560475000000000000000000000000000000000000000000000000000000008152600481018390526024016111e7565b73ffffffffffffffffffffffffffffffffffffffff83168173ffffffffffffffffffffffffffffffffffffffff16146121c9576040517f14dbb53600000000000000000000000000000000000000000000000000000000815273ffffffffffffffffffffffffffffffffffffffff84166004820152602481018390526044016111e7565b6121d4858486613505565b6122835774010000000000000000000000000000000000000000811615806122255750600082815260028601602052604090205473ffffffffffffffffffffffffffffffffffffffff858116911614155b15612283576040517fa4a3018b00000000000000000000000000000000000000000000000000000000815273ffffffffffffffffffffffffffffffffffffffff808616600483015284166024820152604481018390526064016111e7565b6000828152602086815260408083207fdead000000000000000000000000000000000000000000000000000000000000905573ffffffffffffffffffffffffffffffffffffffff86168084526001890190925280832080547fffffffffffffffffffffffffffffffffffffffffffffffffffffffffffffffff01905551849291907fddf252ad1be2c89b69c2b068fc378daa952ba7f163c4a11628f55a4df523b3ef908390a45050505050565b61233b858484611b65565b73ffffffffffffffffffffffffffffffffffffffff83163b15610f8757610f878460008585856136e4565b612371838284611adf565b60008181526020848152604080832073ffffffffffffffffffffffffffffffffffffffff86168085529083529281902080547fffffffffffffffffffffffffffffffffffffffffffffffffffffffffffffff0016905580518481529182018390528101919091527ff6391f5c32d9c69d2a47ea670b442974b53935d1edc7fd64eb21e047a839171b9060600160405180910390a1505050565b73ffffffffffffffffffffffffffffffffffffffff811661159b576040517f16de0c8000000000000000000000000000000000000000000000000000000000815260040160405180910390fd5b60606106ae612464612689565b613908565b8151815181146124a5576040517f6582533600000000000000000000000000000000000000000000000000000000815260040160405180910390fd5b60005b818114610f875760008482815181106124c3576124c3614053565b60200260200101519050600073ffffffffffffffffffffffffffffffffffffffff168173ffffffffffffffffffffffffffffffffffffffff1603612533576040517f7851b9cd00000000000000000000000000000000000000000000000000000000815260040160405180910390fd5b600084838151811061254757612547614053565b60209081029190910181015160008181529189905260409091205490915073ffffffffffffffffffffffffffffffffffffffff8116156125b6576040517f753eceac000000000000000000000000000000000000000000000000000000008152600481018390526024016111e7565b7fdead0000000000000000000000000000000000000000000000000000000000008103612612576040517f31e8d3d5000000000000000000000000000000000000000000000000000000008152600481018390526024016111e7565b60008281526020898152604080832073ffffffffffffffffffffffffffffffffffffffff8716908190558084526001808d019093528184208054909301909255518492907fddf252ad1be2c89b69c2b068fc378daa952ba7f163c4a11628f55a4df523b3ef908290a45050508060010190506124a8565b60008061069e60017f7ea68fd2dcf1c056b94db6a0a537aa80d26fa9ab1eacd85da1ba0b61b7e7a8a56140b1565b8273ffffffffffffffffffffffffffffffffffffffff168273ffffffffffffffffffffffffffffffffffffffff1603612734576040517fe4215c6a00000000000000000000000000000000000000000000000000000000815273ffffffffffffffffffffffffffffffffffffffff841660048201526024016111e7565b73ffffffffffffffffffffffffffffffffffffffff838116600081815260038701602090815260408083209487168084529482529182902080547fffffffffffffffffffffffffffffffffffffffffffffffffffffffffffffff001686151590811790915591519182527f17307eab39ab6107e8899845ad3d59bd9653f200f220920489ca2b5937696c31910160405180910390a350505050565b6127dc878787878761161a565b73ffffffffffffffffffffffffffffffffffffffff84163b1561283c5761283c8686868686868080601f0160208091040260200160405190810160405280939291908181526020018383808284376000920191909152506136e492505050565b50505050505050565b6000818152602083905260408120547fdead00000000000000000000000000000000000000000000000000000000000014610b98565b60028301546040517ff724dad700000000000000000000000000000000000000000000000000000000815273ffffffffffffffffffffffffffffffffffffffff848116600483015260248201849052606092169063f724dad790604401600060405180830381865afa1580156128f5573d6000803e3d6000fd5b505050506040513d6000823e601f3d9081017fffffffffffffffffffffffffffffffffffffffffffffffffffffffffffffffe0168201604052611fd59190810190614145565b60008381526020858152604080832073ffffffffffffffffffffffffffffffffffffffff8616845290915290205460ff16156107b95760008381526020858152604080832073ffffffffffffffffffffffffffffffffffffffff8681168086529184529382902080547fffffffffffffffffffffffffffffffffffffffffffffffffffffffffffffff00169055815187815292830152918316918101919091527ff6391f5c32d9c69d2a47ea670b442974b53935d1edc7fd64eb21e047a839171b90606001611ac6565b6000612a12868587613505565b90508160005b818114612c51576000858583818110612a3357612a33614053565b602090810292909201356000818152928c90526040909220549192505073ffffffffffffffffffffffffffffffffffffffff8116612aa0576040517fdd560475000000000000000000000000000000000000000000000000000000008152600481018390526024016111e7565b73ffffffffffffffffffffffffffffffffffffffff88168173ffffffffffffffffffffffffffffffffffffffff1614612b24576040517f14dbb53600000000000000000000000000000000000000000000000000000000815273ffffffffffffffffffffffffffffffffffffffff89166004820152602481018390526044016111e7565b84612bd4577401000000000000000000000000000000000000000081161580612b765750600082815260028b01602052604090205473ffffffffffffffffffffffffffffffffffffffff8a8116911614155b15612bd4576040517fa4a3018b00000000000000000000000000000000000000000000000000000000815273ffffffffffffffffffffffffffffffffffffffff808b16600483015289166024820152604481018390526064016111e7565b600082815260208b905260408082207fdead00000000000000000000000000000000000000000000000000000000000090555183919073ffffffffffffffffffffffffffffffffffffffff8b16907fddf252ad1be2c89b69c2b068fc378daa952ba7f163c4a11628f55a4df523b3ef908390a45050600101612a18565b50801561283c5773ffffffffffffffffffffffffffffffffffffffff8516600090815260018801602052604090208054829003905550505050505050565b825473ffffffffffffffffffffffffffffffffffffffff9081169083168114612cfc576040517f2ef4875e00000000000000000000000000000000000000000000000000000000815273ffffffffffffffffffffffffffffffffffffffff841660048201526024016111e7565b8173ffffffffffffffffffffffffffffffffffffffff168173ffffffffffffffffffffffffffffffffffffffff16146107b95783547fffffffffffffffffffffffff00000000000000000000000000000000000000001673ffffffffffffffffffffffffffffffffffffffff8381169182178655604051908316907f8be0079c531659141344cd1fd0a4f28419497f9722a3daafe3b4186f6b6457e090600090a350505050565b73ffffffffffffffffffffffffffffffffffffffff8316612df0576040517f86c8706700000000000000000000000000000000000000000000000000000000815260040160405180910390fd5b6000612dfd878688613505565b90508160005b818114613020576000858583818110612e1e57612e1e614053565b602090810292909201356000818152928d90526040909220549192505073ffffffffffffffffffffffffffffffffffffffff8116612e8b576040517fdd560475000000000000000000000000000000000000000000000000000000008152600481018390526024016111e7565b73ffffffffffffffffffffffffffffffffffffffff89168173ffffffffffffffffffffffffffffffffffffffff1614612f0f576040517f14dbb53600000000000000000000000000000000000000000000000000000000815273ffffffffffffffffffffffffffffffffffffffff8a166004820152602481018390526044016111e7565b84612fbf577401000000000000000000000000000000000000000081161580612f615750600082815260028c01602052604090205473ffffffffffffffffffffffffffffffffffffffff8b8116911614155b15612fbf576040517fa4a3018b00000000000000000000000000000000000000000000000000000000815273ffffffffffffffffffffffffffffffffffffffff808c1660048301528a166024820152604481018390526064016111e7565b600082815260208c9052604080822073ffffffffffffffffffffffffffffffffffffffff808c16918290559151859391928d16917fddf252ad1be2c89b69c2b068fc378daa952ba7f163c4a11628f55a4df523b3ef91a45050600101612e03565b508473ffffffffffffffffffffffffffffffffffffffff168673ffffffffffffffffffffffffffffffffffffffff161415801561305c57508015155b15610a4c5773ffffffffffffffffffffffffffffffffffffffff808716600090815260018a016020526040808220805485900390559187168152208054820190555050505050505050565b80471015613111576040517f08c379a000000000000000000000000000000000000000000000000000000000815260206004820152601d60248201527f416464726573733a20696e73756666696369656e742062616c616e636500000060448201526064016111e7565b60008273ffffffffffffffffffffffffffffffffffffffff168260405160006040518083038185875af1925050503d806000811461316b576040519150601f19603f3d011682016040523d82523d6000602084013e613170565b606091505b5050905080610810576040517f08c379a000000000000000000000000000000000000000000000000000000000815260206004820152603a60248201527f416464726573733a20756e61626c6520746f2073656e642076616c75652c207260448201527f6563697069656e74206d6179206861766520726576657274656400000000000060648201526084016111e7565b606081600001805461321290614205565b80601f016020809104026020016040519081016040528092919081815260200182805461323e90614205565b801561328b5780601f106132605761010080835404028352916020019161328b565b820191906000526020600020905b81548152906001019060200180831161326e57829003601f168201915b50505050509050919050565b815473ffffffffffffffffffffffffffffffffffffffff1680158015906132d5575060008173ffffffffffffffffffffffffffffffffffffffff163b115b15610810576040517fc617113400000000000000000000000000000000000000000000000000000000815230600482015273ffffffffffffffffffffffffffffffffffffffff838116602483015282169063c617113490604401602060405180830381865afa15801561334c573d6000803e3d6000fd5b505050506040513d601f19601f820116820180604052508101906133709190614258565b610810576040517fede71dcc00000000000000000000000000000000000000000000000000000000815273ffffffffffffffffffffffffffffffffffffffff831660048201526024016111e7565b6000333214806133ce5750601836105b156133d857503390565b7fffffffffffffffffffffffffffffffffffffffffffffffffffffffffffffffec36013560601c7f000000000000000000000000000000000000000000000000000000000000000073ffffffffffffffffffffffffffffffffffffffff163314806134f457506040517f8929a8ca00000000000000000000000000000000000000000000000000000000815273ffffffffffffffffffffffffffffffffffffffff82811660048301523360248301527f00000000000000000000000000000000000000000000000000000000000000001690638929a8ca90604401602060405180830381865afa1580156134d0573d6000803e3d6000fd5b505050506040513d601f19601f820116820180604052508101906134f49190614258565b156134fe57919050565b3391505090565b60008173ffffffffffffffffffffffffffffffffffffffff168373ffffffffffffffffffffffffffffffffffffffff161480611fd557505073ffffffffffffffffffffffffffffffffffffffff9182166000908152600393909301602090815260408085209290931684525290205460ff1690565b3660003332148061358b5750601836105b156135995750600091369150565b3373ffffffffffffffffffffffffffffffffffffffff7f00000000000000000000000000000000000000000000000000000000000000001614806136ce575073ffffffffffffffffffffffffffffffffffffffff7f000000000000000000000000000000000000000000000000000000000000000016638929a8ca367fffffffffffffffffffffffffffffffffffffffffffffffffffffffffffffffec013560601c6040517fffffffff0000000000000000000000000000000000000000000000000000000060e084901b16815273ffffffffffffffffffffffffffffffffffffffff9091166004820152336024820152604401602060405180830381865afa1580156136aa573d6000803e3d6000fd5b505050506040513d601f19601f820116820180604052508101906136ce9190614258565b156136db57610820613919565b50600091369150565b6040517f150b7a02000000000000000000000000000000000000000000000000000000008082529073ffffffffffffffffffffffffffffffffffffffff85169063150b7a029061373e908990899088908890600401614275565b6020604051808303816000875af115801561375d573d6000803e3d6000fd5b505050506040513d601f19601f8201168201806040525081019061378191906142be565b7fffffffff000000000000000000000000000000000000000000000000000000001614610f87576040517fc215a7a100000000000000000000000000000000000000000000000000000000815273ffffffffffffffffffffffffffffffffffffffff84166004820152602481018390526044016111e7565b600061385b826040518060400160405280602081526020017f5361666545524332303a206c6f772d6c6576656c2063616c6c206661696c65648152508573ffffffffffffffffffffffffffffffffffffffff1661394a9092919063ffffffff16565b905080516000148061387c57508080602001905181019061387c9190614258565b610810576040517f08c379a000000000000000000000000000000000000000000000000000000000815260206004820152602a60248201527f5361666545524332303a204552433230206f7065726174696f6e20646964206e60448201527f6f7420737563636565640000000000000000000000000000000000000000000060648201526084016111e7565b606081600101805461321290614205565b3660006108207fffffffffffffffffffffffffffffffffffffffffffffffffffffffffffffffec83018284816142db565b6060611fd58484600085856000808673ffffffffffffffffffffffffffffffffffffffff16858760405161397e9190614305565b60006040518083038185875af1925050503d80600081146139bb576040519150601f19603f3d011682016040523d82523d6000602084013e6139c0565b606091505b50915091506139d1878383876139dc565b979650505050505050565b60608315613a72578251600003613a6b5773ffffffffffffffffffffffffffffffffffffffff85163b613a6b576040517f08c379a000000000000000000000000000000000000000000000000000000000815260206004820152601d60248201527f416464726573733a2063616c6c20746f206e6f6e2d636f6e747261637400000060448201526064016111e7565b5081611fd5565b611fd58383815115613a875781518083602001fd5b806040517f08c379a00000000000000000000000000000000000000000000000000000000081526004016111e79190613b74565b7fffffffff000000000000000000000000000000000000000000000000000000008116811461077e57600080fd5b600060208284031215613afb57600080fd5b8135610b9881613abb565b60005b83811015613b21578181015183820152602001613b09565b50506000910152565b60008151808452613b42816020860160208601613b06565b601f017fffffffffffffffffffffffffffffffffffffffffffffffffffffffffffffffe0169290920160200192915050565b602081526000610b986020830184613b2a565b600060208284031215613b9957600080fd5b5035919050565b73ffffffffffffffffffffffffffffffffffffffff8116811461077e57600080fd5b60008060408385031215613bd557600080fd5b8235613be081613ba0565b946020939093013593505050565b600060208284031215613c0057600080fd5b8135610b9881613ba0565b600080600060608486031215613c2057600080fd5b8335613c2b81613ba0565b92506020840135613c3b81613ba0565b929592945050506040919091013590565b60008060408385031215613c5f57600080fd5b50508035926020909101359150565b60008060408385031215613c8157600080fd5b823591506020830135613c9381613ba0565b809150509250929050565b60208152816020820152818360408301376000818301604090810191909152601f9092017fffffffffffffffffffffffffffffffffffffffffffffffffffffffffffffffe0160101919050565b60008083601f840112613cfd57600080fd5b50813567ffffffffffffffff811115613d1557600080fd5b6020830191508360208260051b85010111156107db57600080fd5b600080600060408486031215613d4557600080fd5b8335613d5081613ba0565b9250602084013567ffffffffffffffff811115613d6c57600080fd5b613d7886828701613ceb565b9497909650939450505050565b60008060008060008060608789031215613d9e57600080fd5b863567ffffffffffffffff80821115613db657600080fd5b613dc28a838b01613ceb565b90985096506020890135915080821115613ddb57600080fd5b613de78a838b01613ceb565b90965094506040890135915080821115613e0057600080fd5b50613e0d89828a01613ceb565b979a9699509497509295939492505050565b60008083601f840112613e3157600080fd5b50813567ffffffffffffffff811115613e4957600080fd5b6020830191508360208285010111156107db57600080fd5b60008060008060608587031215613e7757600080fd5b8435613e8281613ba0565b935060208501359250604085013567ffffffffffffffff811115613ea557600080fd5b613eb187828801613e1f565b95989497509550505050565b60008060008060408587031215613ed357600080fd5b843567ffffffffffffffff80821115613eeb57600080fd5b613ef788838901613ceb565b90965094506020870135915080821115613f1057600080fd5b50613eb187828801613ceb565b801515811461077e57600080fd5b60008060408385031215613f3e57600080fd5b8235613f4981613ba0565b91506020830135613c9381613f1d565b600080600080600060808688031215613f7157600080fd5b8535613f7c81613ba0565b94506020860135613f8c81613ba0565b935060408601359250606086013567ffffffffffffffff811115613faf57600080fd5b613fbb88828901613e1f565b969995985093965092949392505050565b60008060408385031215613fdf57600080fd5b8235613fea81613ba0565b91506020830135613c9381613ba0565b6000806000806060858703121561401057600080fd5b843561401b81613ba0565b9350602085013561402b81613ba0565b9250604085013567ffffffffffffffff81111561404757600080fd5b613eb187828801613ceb565b7f4e487b7100000000000000000000000000000000000000000000000000000000600052603260045260246000fd5b7f4e487b7100000000000000000000000000000000000000000000000000000000600052601160045260246000fd5b8181038181111561069e5761069e614082565b808202811582820484141761069e5761069e614082565b600082614111577f4e487b7100000000000000000000000000000000000000000000000000000000600052601260045260246000fd5b500490565b7f4e487b7100000000000000000000000000000000000000000000000000000000600052604160045260246000fd5b60006020828403121561415757600080fd5b815167ffffffffffffffff8082111561416f57600080fd5b818401915084601f83011261418357600080fd5b81518181111561419557614195614116565b604051601f82017fffffffffffffffffffffffffffffffffffffffffffffffffffffffffffffffe0908116603f011681019083821181831017156141db576141db614116565b816040528281528760208487010111156141f457600080fd5b6139d1836020830160208801613b06565b600181811c9082168061421957607f821691505b602082108103614252577f4e487b7100000000000000000000000000000000000000000000000000000000600052602260045260246000fd5b50919050565b60006020828403121561426a57600080fd5b8151610b9881613f1d565b600073ffffffffffffffffffffffffffffffffffffffff8087168352808616602084015250836040830152608060608301526142b46080830184613b2a565b9695505050505050565b6000602082840312156142d057600080fd5b8151610b9881613abb565b600080858511156142eb57600080fd5b838611156142f857600080fd5b5050820193919092039150565b60008251614317818460208701613b06565b919091019291505056fea264697066735822122012d338fdd07a061d7369e2416502b58f6372029f72110b0df2c6a5f47f0c69c464736f6c63430008150033",
  "linkReferences": {},
  "deployedLinkReferences": {}
}