{
  "_format": "hh-sol-artifact-1",
  "contractName": "ERC721FullMintOnceBurnMock",
  "sourceName": "contracts/mocks/token/ERC721/preset/ERC721FullMintOnceBurnMock.sol",
  "abi": [
    {
      "inputs": [
        {
          "internalType": "string",
          "name": "tokenName",
          "type": "string"
        },
        {
          "internalType": "string",
          "name": "tokenSymbol",
          "type": "string"
        },
        {
          "internalType": "contract ITokenMetadataResolver",
          "name": "metadataResolver",
          "type": "address"
        },
        {
          "internalType": "contract IForwarderRegistry",
          "name": "forwarderRegistry",
          "type": "address"
        }
      ],
      "stateMutability": "nonpayable",
      "type": "constructor"
    },
    {
      "inputs": [
        {
          "internalType": "uint256",
          "name": "percentage",
          "type": "uint256"
        }
      ],
      "name": "ERC2981IncorrectRoyaltyPercentage",
      "type": "error"
    },
    {
      "inputs": [],
      "name": "ERC2981IncorrectRoyaltyReceiver",
      "type": "error"
    },
    {
      "inputs": [],
      "name": "ERC721BalanceOfAddressZero",
      "type": "error"
    },
    {
      "inputs": [
        {
          "internalType": "uint256",
          "name": "tokenId",
          "type": "uint256"
        }
      ],
      "name": "ERC721BurntToken",
      "type": "error"
    },
    {
      "inputs": [
        {
          "internalType": "uint256",
          "name": "tokenId",
          "type": "uint256"
        }
      ],
      "name": "ERC721ExistingToken",
      "type": "error"
    },
    {
      "inputs": [],
      "name": "ERC721MintToAddressZero",
      "type": "error"
    },
    {
      "inputs": [
        {
          "internalType": "address",
          "name": "sender",
          "type": "address"
        },
        {
          "internalType": "address",
          "name": "owner",
          "type": "address"
        },
        {
          "internalType": "uint256",
          "name": "tokenId",
          "type": "uint256"
        }
      ],
      "name": "ERC721NonApprovedForApproval",
      "type": "error"
    },
    {
      "inputs": [
        {
          "internalType": "address",
          "name": "sender",
          "type": "address"
        },
        {
          "internalType": "address",
          "name": "owner",
          "type": "address"
        },
        {
          "internalType": "uint256",
          "name": "tokenId",
          "type": "uint256"
        }
      ],
      "name": "ERC721NonApprovedForTransfer",
      "type": "error"
    },
    {
      "inputs": [
        {
          "internalType": "uint256",
          "name": "tokenId",
          "type": "uint256"
        }
      ],
      "name": "ERC721NonExistingToken",
      "type": "error"
    },
    {
      "inputs": [
        {
          "internalType": "address",
          "name": "account",
          "type": "address"
        },
        {
          "internalType": "uint256",
          "name": "tokenId",
          "type": "uint256"
        }
      ],
      "name": "ERC721NonOwnedToken",
      "type": "error"
    },
    {
      "inputs": [
        {
          "internalType": "address",
          "name": "recipient",
          "type": "address"
        },
        {
          "internalType": "uint256",
          "name": "tokenId",
          "type": "uint256"
        }
      ],
      "name": "ERC721SafeTransferRejected",
      "type": "error"
    },
    {
      "inputs": [
        {
          "internalType": "address",
          "name": "account",
          "type": "address"
        }
      ],
      "name": "ERC721SelfApproval",
      "type": "error"
    },
    {
      "inputs": [
        {
          "internalType": "address",
          "name": "account",
          "type": "address"
        }
      ],
      "name": "ERC721SelfApprovalForAll",
      "type": "error"
    },
    {
      "inputs": [],
      "name": "ERC721TransferToAddressZero",
      "type": "error"
    },
    {
      "inputs": [],
      "name": "IllegalInterfaceId",
      "type": "error"
    },
    {
      "inputs": [],
      "name": "InconsistentArrayLengths",
      "type": "error"
    },
    {
      "inputs": [
        {
          "internalType": "address",
          "name": "tokenContract",
          "type": "address"
        }
      ],
      "name": "IncorrectTokenContractType",
      "type": "error"
    },
    {
      "inputs": [
        {
          "internalType": "address",
          "name": "account",
          "type": "address"
        }
      ],
      "name": "NotContractOwner",
      "type": "error"
    },
    {
      "inputs": [
        {
          "internalType": "bytes32",
          "name": "role",
          "type": "bytes32"
        },
        {
          "internalType": "address",
          "name": "account",
          "type": "address"
        }
      ],
      "name": "NotRoleHolder",
      "type": "error"
    },
    {
      "anonymous": false,
      "inputs": [
        {
          "indexed": true,
          "internalType": "address",
          "name": "owner",
          "type": "address"
        },
        {
          "indexed": true,
          "internalType": "address",
          "name": "approved",
          "type": "address"
        },
        {
          "indexed": true,
          "internalType": "uint256",
          "name": "tokenId",
          "type": "uint256"
        }
      ],
      "name": "Approval",
      "type": "event"
    },
    {
      "anonymous": false,
      "inputs": [
        {
          "indexed": true,
          "internalType": "address",
          "name": "owner",
          "type": "address"
        },
        {
          "indexed": true,
          "internalType": "address",
          "name": "operator",
          "type": "address"
        },
        {
          "indexed": false,
          "internalType": "bool",
          "name": "approved",
          "type": "bool"
        }
      ],
      "name": "ApprovalForAll",
      "type": "event"
    },
    {
      "anonymous": false,
      "inputs": [
        {
          "indexed": true,
          "internalType": "address",
          "name": "previousOwner",
          "type": "address"
        },
        {
          "indexed": true,
          "internalType": "address",
          "name": "newOwner",
          "type": "address"
        }
      ],
      "name": "OwnershipTransferred",
      "type": "event"
    },
    {
      "anonymous": false,
      "inputs": [
        {
          "indexed": false,
          "internalType": "bytes32",
          "name": "role",
          "type": "bytes32"
        },
        {
          "indexed": false,
          "internalType": "address",
          "name": "account",
          "type": "address"
        },
        {
          "indexed": false,
          "internalType": "address",
          "name": "operator",
          "type": "address"
        }
      ],
      "name": "RoleGranted",
      "type": "event"
    },
    {
      "anonymous": false,
      "inputs": [
        {
          "indexed": false,
          "internalType": "bytes32",
          "name": "role",
          "type": "bytes32"
        },
        {
          "indexed": false,
          "internalType": "address",
          "name": "account",
          "type": "address"
        },
        {
          "indexed": false,
          "internalType": "address",
          "name": "operator",
          "type": "address"
        }
      ],
      "name": "RoleRevoked",
      "type": "event"
    },
    {
      "anonymous": false,
      "inputs": [
        {
          "indexed": true,
          "internalType": "address",
          "name": "from",
          "type": "address"
        },
        {
          "indexed": true,
          "internalType": "address",
          "name": "to",
          "type": "address"
        },
        {
          "indexed": true,
          "internalType": "uint256",
          "name": "tokenId",
          "type": "uint256"
        }
      ],
      "name": "Transfer",
      "type": "event"
    },
    {
      "inputs": [],
      "name": "MINTER_ROLE",
      "outputs": [
        {
          "internalType": "bytes32",
          "name": "",
          "type": "bytes32"
        }
      ],
      "stateMutability": "view",
      "type": "function"
    },
    {
      "inputs": [],
      "name": "ROYALTY_FEE_DENOMINATOR",
      "outputs": [
        {
          "internalType": "uint256",
          "name": "",
          "type": "uint256"
        }
      ],
      "stateMutability": "view",
      "type": "function"
    },
    {
      "inputs": [],
      "name": "__msgData",
      "outputs": [
        {
          "internalType": "bytes",
          "name": "",
          "type": "bytes"
        }
      ],
      "stateMutability": "view",
      "type": "function"
    },
    {
      "inputs": [
        {
          "internalType": "address",
          "name": "to",
          "type": "address"
        },
        {
          "internalType": "uint256",
          "name": "tokenId",
          "type": "uint256"
        }
      ],
      "name": "approve",
      "outputs": [],
      "stateMutability": "nonpayable",
      "type": "function"
    },
    {
      "inputs": [
        {
          "internalType": "address",
          "name": "owner",
          "type": "address"
        }
      ],
      "name": "balanceOf",
      "outputs": [
        {
          "internalType": "uint256",
          "name": "balance",
          "type": "uint256"
        }
      ],
      "stateMutability": "view",
      "type": "function"
    },
    {
      "inputs": [
        {
          "internalType": "address",
          "name": "from",
          "type": "address"
        },
        {
          "internalType": "uint256[]",
          "name": "tokenIds",
          "type": "uint256[]"
        }
      ],
      "name": "batchBurnFrom",
      "outputs": [],
      "stateMutability": "nonpayable",
      "type": "function"
    },
    {
      "inputs": [
        {
          "internalType": "address",
          "name": "to",
          "type": "address"
        },
        {
          "internalType": "uint256[]",
          "name": "tokenIds",
          "type": "uint256[]"
        }
      ],
      "name": "batchMint",
      "outputs": [],
      "stateMutability": "nonpayable",
      "type": "function"
    },
    {
      "inputs": [
        {
          "internalType": "address",
          "name": "from",
          "type": "address"
        },
        {
          "internalType": "address",
          "name": "to",
          "type": "address"
        },
        {
          "internalType": "uint256[]",
          "name": "tokenIds",
          "type": "uint256[]"
        }
      ],
      "name": "batchTransferFrom",
      "outputs": [],
      "stateMutability": "nonpayable",
      "type": "function"
    },
    {
      "inputs": [
        {
          "internalType": "address",
          "name": "from",
          "type": "address"
        },
        {
          "internalType": "uint256",
          "name": "tokenId",
          "type": "uint256"
        }
      ],
      "name": "burnFrom",
      "outputs": [],
      "stateMutability": "nonpayable",
      "type": "function"
    },
    {
      "inputs": [
        {
          "internalType": "address[]",
          "name": "recipients",
          "type": "address[]"
        },
        {
          "internalType": "uint256[]",
          "name": "tokenIds",
          "type": "uint256[]"
        }
      ],
      "name": "deliver",
      "outputs": [],
      "stateMutability": "nonpayable",
      "type": "function"
    },
    {
      "inputs": [],
      "name": "forwarderRegistry",
      "outputs": [
        {
          "internalType": "contract IForwarderRegistry",
          "name": "",
          "type": "address"
        }
      ],
      "stateMutability": "view",
      "type": "function"
    },
    {
      "inputs": [
        {
          "internalType": "uint256",
          "name": "tokenId",
          "type": "uint256"
        }
      ],
      "name": "getApproved",
      "outputs": [
        {
          "internalType": "address",
          "name": "approved",
          "type": "address"
        }
      ],
      "stateMutability": "view",
      "type": "function"
    },
    {
      "inputs": [
        {
          "internalType": "bytes32",
          "name": "role",
          "type": "bytes32"
        },
        {
          "internalType": "address",
          "name": "account",
          "type": "address"
        }
      ],
      "name": "grantRole",
      "outputs": [],
      "stateMutability": "nonpayable",
      "type": "function"
    },
    {
      "inputs": [
        {
          "internalType": "bytes32",
          "name": "role",
          "type": "bytes32"
        },
        {
          "internalType": "address",
          "name": "account",
          "type": "address"
        }
      ],
      "name": "hasRole",
      "outputs": [
        {
          "internalType": "bool",
          "name": "hasRole_",
          "type": "bool"
        }
      ],
      "stateMutability": "view",
      "type": "function"
    },
    {
      "inputs": [
        {
          "internalType": "address",
          "name": "owner",
          "type": "address"
        },
        {
          "internalType": "address",
          "name": "operator",
          "type": "address"
        }
      ],
      "name": "isApprovedForAll",
      "outputs": [
        {
          "internalType": "bool",
          "name": "approvedForAll",
          "type": "bool"
        }
      ],
      "stateMutability": "view",
      "type": "function"
    },
    {
      "inputs": [
        {
          "internalType": "address",
          "name": "forwarder",
          "type": "address"
        }
      ],
      "name": "isTrustedForwarder",
      "outputs": [
        {
          "internalType": "bool",
          "name": "",
          "type": "bool"
        }
      ],
      "stateMutability": "view",
      "type": "function"
    },
    {
      "inputs": [],
      "name": "metadataResolver",
      "outputs": [
        {
          "internalType": "contract ITokenMetadataResolver",
          "name": "tokenMetadataResolver",
          "type": "address"
        }
      ],
      "stateMutability": "view",
      "type": "function"
    },
    {
      "inputs": [
        {
          "internalType": "address",
          "name": "to",
          "type": "address"
        },
        {
          "internalType": "uint256",
          "name": "tokenId",
          "type": "uint256"
        }
      ],
      "name": "mint",
      "outputs": [],
      "stateMutability": "nonpayable",
      "type": "function"
    },
    {
      "inputs": [],
      "name": "name",
      "outputs": [
        {
          "internalType": "string",
          "name": "tokenName",
          "type": "string"
        }
      ],
      "stateMutability": "view",
      "type": "function"
    },
    {
      "inputs": [],
      "name": "owner",
      "outputs": [
        {
          "internalType": "address",
          "name": "",
          "type": "address"
        }
      ],
      "stateMutability": "view",
      "type": "function"
    },
    {
      "inputs": [
        {
          "internalType": "uint256",
          "name": "tokenId",
          "type": "uint256"
        }
      ],
      "name": "ownerOf",
      "outputs": [
        {
          "internalType": "address",
          "name": "tokenOwner",
          "type": "address"
        }
      ],
      "stateMutability": "view",
      "type": "function"
    },
    {
      "inputs": [
        {
          "internalType": "address[]",
          "name": "accounts",
          "type": "address[]"
        },
        {
          "internalType": "contract IERC20[]",
          "name": "tokens",
          "type": "address[]"
        },
        {
          "internalType": "uint256[]",
          "name": "amounts",
          "type": "uint256[]"
        }
      ],
      "name": "recoverERC20s",
      "outputs": [],
      "stateMutability": "nonpayable",
      "type": "function"
    },
    {
      "inputs": [
        {
          "internalType": "address[]",
          "name": "accounts",
          "type": "address[]"
        },
        {
          "internalType": "contract IERC721[]",
          "name": "contracts",
          "type": "address[]"
        },
        {
          "internalType": "uint256[]",
          "name": "tokenIds",
          "type": "uint256[]"
        }
      ],
      "name": "recoverERC721s",
      "outputs": [],
      "stateMutability": "nonpayable",
      "type": "function"
    },
    {
      "inputs": [
        {
          "internalType": "address payable[]",
          "name": "accounts",
          "type": "address[]"
        },
        {
          "internalType": "uint256[]",
          "name": "amounts",
          "type": "uint256[]"
        }
      ],
      "name": "recoverETH",
      "outputs": [],
      "stateMutability": "nonpayable",
      "type": "function"
    },
    {
      "inputs": [
        {
          "internalType": "bytes32",
          "name": "role",
          "type": "bytes32"
        }
      ],
      "name": "renounceRole",
      "outputs": [],
      "stateMutability": "nonpayable",
      "type": "function"
    },
    {
      "inputs": [
        {
          "internalType": "bytes32",
          "name": "role",
          "type": "bytes32"
        },
        {
          "internalType": "address",
          "name": "account",
          "type": "address"
        }
      ],
      "name": "revokeRole",
      "outputs": [],
      "stateMutability": "nonpayable",
      "type": "function"
    },
    {
      "inputs": [
        {
          "internalType": "uint256",
          "name": "tokenId",
          "type": "uint256"
        },
        {
          "internalType": "uint256",
          "name": "salePrice",
          "type": "uint256"
        }
      ],
      "name": "royaltyInfo",
      "outputs": [
        {
          "internalType": "address",
          "name": "receiver",
          "type": "address"
        },
        {
          "internalType": "uint256",
          "name": "royaltyAmount",
          "type": "uint256"
        }
      ],
      "stateMutability": "view",
      "type": "function"
    },
    {
      "inputs": [
        {
          "internalType": "address",
          "name": "to",
          "type": "address"
        },
        {
          "internalType": "uint256",
          "name": "tokenId",
          "type": "uint256"
        },
        {
          "internalType": "bytes",
          "name": "data",
          "type": "bytes"
        }
      ],
      "name": "safeMint",
      "outputs": [],
      "stateMutability": "nonpayable",
      "type": "function"
    },
    {
      "inputs": [
        {
          "internalType": "address",
          "name": "from",
          "type": "address"
        },
        {
          "internalType": "address",
          "name": "to",
          "type": "address"
        },
        {
          "internalType": "uint256",
          "name": "tokenId",
          "type": "uint256"
        }
      ],
      "name": "safeTransferFrom",
      "outputs": [],
      "stateMutability": "nonpayable",
      "type": "function"
    },
    {
      "inputs": [
        {
          "internalType": "address",
          "name": "from",
          "type": "address"
        },
        {
          "internalType": "address",
          "name": "to",
          "type": "address"
        },
        {
          "internalType": "uint256",
          "name": "tokenId",
          "type": "uint256"
        },
        {
          "internalType": "bytes",
          "name": "data",
          "type": "bytes"
        }
      ],
      "name": "safeTransferFrom",
      "outputs": [],
      "stateMutability": "nonpayable",
      "type": "function"
    },
    {
      "inputs": [
        {
          "internalType": "address",
          "name": "operator",
          "type": "address"
        },
        {
          "internalType": "bool",
          "name": "approved",
          "type": "bool"
        }
      ],
      "name": "setApprovalForAll",
      "outputs": [],
      "stateMutability": "nonpayable",
      "type": "function"
    },
    {
      "inputs": [
        {
          "internalType": "uint256",
          "name": "percentage",
          "type": "uint256"
        }
      ],
      "name": "setRoyaltyPercentage",
      "outputs": [],
      "stateMutability": "nonpayable",
      "type": "function"
    },
    {
      "inputs": [
        {
          "internalType": "address",
          "name": "receiver",
          "type": "address"
        }
      ],
      "name": "setRoyaltyReceiver",
      "outputs": [],
      "stateMutability": "nonpayable",
      "type": "function"
    },
    {
      "inputs": [
        {
          "internalType": "bytes4",
          "name": "interfaceId",
          "type": "bytes4"
        }
      ],
      "name": "supportsInterface",
      "outputs": [
        {
          "internalType": "bool",
          "name": "",
          "type": "bool"
        }
      ],
      "stateMutability": "view",
      "type": "function"
    },
    {
      "inputs": [],
      "name": "symbol",
      "outputs": [
        {
          "internalType": "string",
          "name": "tokenSymbol",
          "type": "string"
        }
      ],
      "stateMutability": "view",
      "type": "function"
    },
    {
      "inputs": [
        {
          "internalType": "uint256",
          "name": "tokenId",
          "type": "uint256"
        }
      ],
      "name": "tokenURI",
      "outputs": [
        {
          "internalType": "string",
          "name": "uri",
          "type": "string"
        }
      ],
      "stateMutability": "view",
      "type": "function"
    },
    {
      "inputs": [
        {
          "internalType": "address",
          "name": "from",
          "type": "address"
        },
        {
          "internalType": "address",
          "name": "to",
          "type": "address"
        },
        {
          "internalType": "uint256",
          "name": "tokenId",
          "type": "uint256"
        }
      ],
      "name": "transferFrom",
      "outputs": [],
      "stateMutability": "nonpayable",
      "type": "function"
    },
    {
      "inputs": [
        {
          "internalType": "address",
          "name": "newOwner",
          "type": "address"
        }
      ],
      "name": "transferOwnership",
      "outputs": [],
      "stateMutability": "nonpayable",
      "type": "function"
    },
    {
      "inputs": [
        {
          "internalType": "uint256",
          "name": "tokenId",
          "type": "uint256"
        }
      ],
      "name": "wasBurnt",
      "outputs": [
        {
          "internalType": "bool",
          "name": "tokenWasBurnt",
          "type": "bool"
        }
      ],
      "stateMutability": "view",
      "type": "function"
    }
  ],
  "bytecode": "0x60a06040523480156200001157600080fd5b506040516200481b3803806200481b833981016040819052620000349162000415565b8383838380803386868662000048620000da565b62000052620000fc565b6200006c8383836200006362000114565b9291906200014a565b6200007662000191565b50505062000095816200008e620001a960201b60201c565b90620001d9565b50620000a06200024c565b620000aa62000264565b620000b46200027c565b620000be62000294565b6001600160a01b03166080525062000628975050505050505050565b620000fa6380ac58cd60e01b6001620000f2620002a7565b9190620002d7565b565b620000fa63f3993d1160e01b6001620000f2620002a7565b6000806200014460017f7ea68fd2dcf1c056b94db6a0a537aa80d26fa9ab1eacd85da1ba0b61b7e7a8a5620004a9565b92915050565b836200015784826200055c565b50600184016200016883826200055c565b5060029390930180546001600160a01b0319166001600160a01b03909416939093179092555050565b620000fa635b5e139f60e01b6001620000f2620002a7565b6000806200014460017fc9ed16f33ab3a66c84bfd83099ccb2a8845871e2e1c1928f63797152f0fd54cd620004a9565b6001600160a01b03811615620002305781546001600160a01b0319166001600160a01b03821690811783556040516000907f8be0079c531659141344cd1fd0a4f28419497f9722a3daafe3b4186f6b6457e0908290a35b620002486307f5828d60e41b6001620000f2620002a7565b5050565b620000fa638e773e1360e01b6001620000f2620002a7565b620000fa634ed2f41960e11b6001620000f2620002a7565b620000fa638b8b4ef560e01b6001620000f2620002a7565b620000fa63152a902d60e11b6001620000f25b6000806200014460017fca9d3e17f264b0f3984e2634e94adb37fa3e6a8103f06aeae6fa59e21c769f5e620004a9565b600160e01b6001600160e01b031983160162000306576040516372c683bb60e01b815260040160405180910390fd5b6001600160e01b03199190911660009081526020929092526040909120805460ff1916911515919091179055565b634e487b7160e01b600052604160045260246000fd5b600082601f8301126200035c57600080fd5b81516001600160401b038082111562000379576200037962000334565b604051601f8301601f19908116603f01168101908282118183101715620003a457620003a462000334565b8160405283815260209250866020858801011115620003c257600080fd5b600091505b83821015620003e65785820183015181830184015290820190620003c7565b6000602085830101528094505050505092915050565b6001600160a01b03811681146200041257600080fd5b50565b600080600080608085870312156200042c57600080fd5b84516001600160401b03808211156200044457600080fd5b62000452888389016200034a565b955060208701519150808211156200046957600080fd5b5062000478878288016200034a565b93505060408501516200048b81620003fc565b60608601519092506200049e81620003fc565b939692955090935050565b818103818111156200014457634e487b7160e01b600052601160045260246000fd5b600181811c90821680620004e057607f821691505b6020821081036200050157634e487b7160e01b600052602260045260246000fd5b50919050565b601f82111562000557576000816000526020600020601f850160051c81016020861015620005325750805b601f850160051c820191505b8181101562000553578281556001016200053e565b5050505b505050565b81516001600160401b0381111562000578576200057862000334565b6200059081620005898454620004cb565b8462000507565b602080601f831160018114620005c85760008415620005af5750858301515b600019600386901b1c1916600185901b17855562000553565b600085815260208120601f198616915b82811015620005f957888601518255948401946001909101908401620005d8565b5085821015620006185787850151600019600388901b60f8161c191681555b5050505050600190811b01905550565b6080516141b46200066760003960008181610390015281816104260152818161325e015281816132e60152818161340e015261344c01526141b46000f3fe608060405234801561001057600080fd5b50600436106102ad5760003560e01c80638bb9c5bf1161017b578063c77c6955116100d8578063e985e9c51161008c578063f2fde38b11610071578063f2fde38b14610610578063f3993d1114610623578063f7ba94bd1461063657600080fd5b8063e985e9c5146105ea578063f2472965146105fd57600080fd5b8063d5391393116100bd578063d5391393146105a6578063d547741f146105cd578063e1a8bf2c146105e057600080fd5b8063c77c695514610580578063c87b56dd1461059357600080fd5b80639da5e8321161012f578063a22cb46511610114578063a22cb46514610547578063b88d4fde1461055a578063c3666c361461056d57600080fd5b80639da5e8321461052c578063a0c76f621461053f57600080fd5b80638dc251e3116101605780638dc251e3146104fe57806391d148541461051157806395d89b411461052457600080fd5b80638bb9c5bf146104e35780638da5cb5b146104f657600080fd5b806340c10f19116102295780636352211e116101dd57806373c8a958116101c257806373c8a958146104aa57806379cc6790146104bd5780638832e6e3146104d057600080fd5b80636352211e1461047657806370a082311461048957600080fd5b80634684d7e91161020e5780634684d7e914610403578063572b6c051461041657806361ba27da1461046357600080fd5b806340c10f19146103dd57806342842e0e146103f057600080fd5b806323b872dd116102805780632b4c9f16116102655780632b4c9f161461038e5780632f2ff15d146103b457806331e66e1e146103c757600080fd5b806323b872dd1461033c5780632a55205a1461034f57600080fd5b806301ffc9a7146102b257806306fdde03146102da578063081812fc146102ef578063095ea7b314610327575b600080fd5b6102c56102c0366004613946565b610649565b60405190151581526020015b60405180910390f35b6102e2610663565b6040516102d191906139d1565b6103026102fd3660046139e4565b610672565b60405173ffffffffffffffffffffffffffffffffffffffff90911681526020016102d1565b61033a610335366004613a1f565b610686565b005b61033a61034a366004613a4b565b6106a7565b61036261035d366004613a8c565b6106cb565b6040805173ffffffffffffffffffffffffffffffffffffffff90931683526020830191909152016102d1565b7f0000000000000000000000000000000000000000000000000000000000000000610302565b61033a6103c2366004613aae565b6106ee565b6103cf610722565b6040516102d1929190613ade565b61033a6103eb366004613a1f565b610735565b61033a6103fe366004613a4b565b610784565b61033a610411366004613b70565b6107a3565b6102c5610424366004613bc5565b7f000000000000000000000000000000000000000000000000000000000000000073ffffffffffffffffffffffffffffffffffffffff90811691161490565b61033a6104713660046139e4565b610817565b6103026104843660046139e4565b61083f565b61049c610497366004613bc5565b610853565b6040519081526020016102d1565b61033a6104b8366004613be2565b610867565b61033a6104cb366004613a1f565b61095d565b61033a6104de366004613cbe565b61097a565b61033a6104f13660046139e4565b610a02565b610302610a1d565b61033a61050c366004613bc5565b610a44565b6102c561051f366004613aae565b610a61565b6102e2610aac565b61033a61053a366004613d1a565b610ab6565b610302610b5a565b61033a610555366004613d88565b610b84565b61033a610568366004613db6565b610ba1565b61033a61057b366004613be2565b610bcb565b6102c561058e3660046139e4565b610e71565b6102e26105a13660046139e4565b610e85565b61049c7f6d696e746572000000000000000000000000000000000000000000000000000081565b61033a6105db366004613aae565b610ea8565b61049c620186a081565b6102c56105f8366004613e29565b610ed6565b61033a61060b366004613b70565b610f24565b61033a61061e366004613bc5565b610f43565b61033a610631366004613e57565b610f5e565b61033a610644366004613d1a565b610f7f565b600061065d8261065761103e565b9061106c565b92915050565b606061066d611146565b905090565b600061065d82610680611158565b90611186565b6106a361069161123a565b838361069b611158565b929190611244565b5050565b6106c66106b261123a565b8484846106bd611158565b939291906114bf565b505050565b6000806106e284846106db61179d565b91906117cb565b915091505b9250929050565b60006106f861123a565b905061070c81610706611875565b906118a3565b6106c683838361071a61190e565b92919061193c565b36600061072d611a12565b915091509091565b6107707f6d696e746572000000000000000000000000000000000000000000000000000061076161123a565b61076961190e565b9190611a1d565b6106a3828261077d611158565b9190611aa3565b6106c661078f61123a565b84848461079a611158565b93929190611c1b565b6107cf7f6d696e746572000000000000000000000000000000000000000000000000000061076161123a565b6106c6838383808060200260200160405190810160405280939291908181526020018383602002808284376000920191909152506108109250611158915050565b9190611c61565b61082a61082261123a565b610706611875565b61083c8161083661179d565b90611e2d565b50565b600061065d8261084d611158565b90611eb3565b600061065d82610861611158565b90611f1c565b61087261082261123a565b8483811415806108825750808214155b156108b9576040517f6582533600000000000000000000000000000000000000000000000000000000815260040160405180910390fd5b60005b818110156109535761094b8888838181106108d9576108d9613eb0565b90506020020160208101906108ee9190613bc5565b85858481811061090057610900613eb0565b9050602002013588888581811061091957610919613eb0565b905060200201602081019061092e9190613bc5565b73ffffffffffffffffffffffffffffffffffffffff169190611f98565b6001016108bc565b5050505050505050565b6106a361096861123a565b8383610972611158565b929190612025565b6109a67f6d696e746572000000000000000000000000000000000000000000000000000061076161123a565b6109fc6109b161123a565b858585858080601f0160208091040260200160405190810160405280939291908181526020018383808284376000920191909152506109f39250611158915050565b9392919061226f565b50505050565b61083c610a0d61123a565b82610a1661190e565b91906122a5565b600061066d610a2a611875565b5473ffffffffffffffffffffffffffffffffffffffff1690565b610a4f61082261123a565b61083c81610a5b61179d565b90612349565b6000610aa58383610a7061190e565b60009283526020908152604080842073ffffffffffffffffffffffffffffffffffffffff909316845291905290205460ff1690565b9392505050565b606061066d6123d8565b610ae27f6d696e746572000000000000000000000000000000000000000000000000000061076161123a565b6109fc84848080602002602001604051908101604052809392919081815260200183836020028082843760009201919091525050604080516020808802828101820190935287825290935087925086918291850190849080828437600092019190915250610b539250611158915050565b91906123ea565b600061066d610b6761260b565b6002015473ffffffffffffffffffffffffffffffffffffffff1690565b6106a3610b8f61123a565b8383610b99611158565b929190612639565b610bc4610bac61123a565b8686868686610bb9611158565b959493929190612751565b5050505050565b610bd661082261123a565b848381141580610be65750808214155b15610c1d576040517f6582533600000000000000000000000000000000000000000000000000000000815260040160405180910390fd5b60005b81811015610953576000868683818110610c3c57610c3c613eb0565b9050602002016020810190610c519190613bc5565b6040517f01ffc9a70000000000000000000000000000000000000000000000000000000081527f80ac58cd00000000000000000000000000000000000000000000000000000000600482015290915073ffffffffffffffffffffffffffffffffffffffff8216906301ffc9a790602401602060405180830381865afa158015610cde573d6000803e3d6000fd5b505050506040513d601f19601f82011682018060405250810190610d029190613edf565b610d55576040517f986b9f1f00000000000000000000000000000000000000000000000000000000815273ffffffffffffffffffffffffffffffffffffffff821660048201526024015b60405180910390fd5b868683818110610d6757610d67613eb0565b9050602002016020810190610d7c9190613bc5565b73ffffffffffffffffffffffffffffffffffffffff166342842e0e308b8b86818110610daa57610daa613eb0565b9050602002016020810190610dbf9190613bc5565b888887818110610dd157610dd1613eb0565b6040517fffffffff0000000000000000000000000000000000000000000000000000000060e088901b16815273ffffffffffffffffffffffffffffffffffffffff958616600482015294909316602485015250602090910201356044820152606401600060405180830381600087803b158015610e4d57600080fd5b505af1158015610e61573d6000803e3d6000fd5b5050505050806001019050610c20565b600061065d82610e7f611158565b906127c7565b6060610e938261084d611158565b5061065d3083610ea161260b565b91906127fd565b6000610eb261123a565b9050610ec081610706611875565b6106c6838383610ece61190e565b9291906128bd565b6000610aa58383610ee5611158565b919073ffffffffffffffffffffffffffffffffffffffff9182166000908152600393909301602090815260408085209290931684525290205460ff1690565b6106c6610f2f61123a565b848484610f3a611158565b93929190612987565b61083c610f4e61123a565b82610f57611875565b9190612c12565b6109fc610f6961123a565b85858585610f75611158565b9493929190612d26565b610f8a61082261123a565b82818114610fc4576040517f6582533600000000000000000000000000000000000000000000000000000000815260040160405180910390fd5b60005b818110156110365761102e848483818110610fe457610fe4613eb0565b90506020020135878784818110610ffd57610ffd613eb0565b90506020020160208101906110129190613bc5565b73ffffffffffffffffffffffffffffffffffffffff169061302b565b600101610fc7565b505050505050565b60008061065d60017fca9d3e17f264b0f3984e2634e94adb37fa3e6a8103f06aeae6fa59e21c769f5e613f2b565b60007c01000000000000000000000000000000000000000000000000000000007fffffffff000000000000000000000000000000000000000000000000000000008316016110bc5750600061065d565b7ffe003659000000000000000000000000000000000000000000000000000000007fffffffff0000000000000000000000000000000000000000000000000000000083160161110d5750600161065d565b507fffffffff00000000000000000000000000000000000000000000000000000000166000908152602091909152604090205460ff1690565b606061066d61115361260b565b613185565b60008061065d60017fddf3ee18ae6d688373c219468f8be446e7ae82215f4779d821c7ea5e8c13c0c1613f2b565b60008181526020839052604081205473ffffffffffffffffffffffffffffffffffffffff81166111e5576040517fdd56047500000000000000000000000000000000000000000000000000000000815260048101849052602401610d4c565b74010000000000000000000000000000000000000000811615611230575050600081815260028301602052604090205473ffffffffffffffffffffffffffffffffffffffff1661065d565b600091505061065d565b600061066d61321b565b60008181526020859052604090205473ffffffffffffffffffffffffffffffffffffffff81166112a3576040517fdd56047500000000000000000000000000000000000000000000000000000000815260048101839052602401610d4c565b8073ffffffffffffffffffffffffffffffffffffffff8082169085160361130e576040517fb7fdc01000000000000000000000000000000000000000000000000000000000815273ffffffffffffffffffffffffffffffffffffffff82166004820152602401610d4c565b611319868287613362565b611376576040517fc7563a1800000000000000000000000000000000000000000000000000000000815273ffffffffffffffffffffffffffffffffffffffff80871660048301528216602482015260448101849052606401610d4c565b73ffffffffffffffffffffffffffffffffffffffff84166113db57740100000000000000000000000000000000000000008216156113d657600083815260208790526040902073ffffffffffffffffffffffffffffffffffffffff821690555b61145c565b74010000000000000000000000000000000000000000821780831461140c5760008481526020889052604090208190555b506000838152600287016020526040902080547fffffffffffffffffffffffff00000000000000000000000000000000000000001673ffffffffffffffffffffffffffffffffffffffff86161790555b828473ffffffffffffffffffffffffffffffffffffffff168273ffffffffffffffffffffffffffffffffffffffff167f8c5be1e5ebec7d5bd14f71427d1e84f3dd0314c0f7b2291e5b200ac8c7c3b92560405160405180910390a4505050505050565b73ffffffffffffffffffffffffffffffffffffffff821661150c576040517f86c8706700000000000000000000000000000000000000000000000000000000815260040160405180910390fd5b60008181526020869052604090205473ffffffffffffffffffffffffffffffffffffffff811661156b576040517fdd56047500000000000000000000000000000000000000000000000000000000815260048101839052602401610d4c565b73ffffffffffffffffffffffffffffffffffffffff84168173ffffffffffffffffffffffffffffffffffffffff16146115ef576040517f14dbb53600000000000000000000000000000000000000000000000000000000815273ffffffffffffffffffffffffffffffffffffffff8516600482015260248101839052604401610d4c565b6115fa868587613362565b6116a957740100000000000000000000000000000000000000008116158061164b5750600082815260028701602052604090205473ffffffffffffffffffffffffffffffffffffffff868116911614155b156116a9576040517fa4a3018b00000000000000000000000000000000000000000000000000000000815273ffffffffffffffffffffffffffffffffffffffff80871660048301528516602482015260448101839052606401610d4c565b600082815260208790526040902073ffffffffffffffffffffffffffffffffffffffff8085169182905585161461173a5773ffffffffffffffffffffffffffffffffffffffff80851660009081526001808901602052604080832080547fffffffffffffffffffffffffffffffffffffffffffffffffffffffffffffffff0190559286168252919020805490910190555b818373ffffffffffffffffffffffffffffffffffffffff168573ffffffffffffffffffffffffffffffffffffffff167fddf252ad1be2c89b69c2b068fc378daa952ba7f163c4a11628f55a4df523b3ef60405160405180910390a4505050505050565b60008061065d60017f2c0cf10337caabbd02dcf226f05f5fd19a0919a41a8df8958c39b80007826858613f2b565b825473ffffffffffffffffffffffffffffffffffffffff8116906000907401000000000000000000000000000000000000000090046bffffffffffffffffffffffff16831580611819575080155b15611827576000915061186c565b620186a084101561185157620186a06118408286613f3e565b61184a9190613f55565b915061186c565b8061185f620186a086613f55565b6118699190613f3e565b91505b50935093915050565b60008061065d60017fc9ed16f33ab3a66c84bfd83099ccb2a8845871e2e1c1928f63797152f0fd54cd613f2b565b815473ffffffffffffffffffffffffffffffffffffffff8281169116146106a3576040517f2ef4875e00000000000000000000000000000000000000000000000000000000815273ffffffffffffffffffffffffffffffffffffffff82166004820152602401610d4c565b60008061065d60017fc8827d3282af6f37b64c3e9e6f3ac9df286ab0bb0fccd6f8661bf19adb368b23613f2b565b60008381526020858152604080832073ffffffffffffffffffffffffffffffffffffffff8616845290915290205460ff166109fc5760008381526020858152604080832073ffffffffffffffffffffffffffffffffffffffff8681168086529184529382902080547fffffffffffffffffffffffffffffffffffffffffffffffffffffffffffffff00166001179055815187815292830152918316918101919091527f2f8788117e7eff1d82e926ec794901d17c78024a50270940304540a733656f0d906060015b60405180910390a150505050565b36600061072d6133d7565b60008281526020848152604080832073ffffffffffffffffffffffffffffffffffffffff8516845290915290205460ff166106c6576040517f7aa728820000000000000000000000000000000000000000000000000000000081526004810183905273ffffffffffffffffffffffffffffffffffffffff82166024820152604401610d4c565b73ffffffffffffffffffffffffffffffffffffffff8216611af0576040517f7851b9cd00000000000000000000000000000000000000000000000000000000815260040160405180910390fd5b60008181526020849052604090205473ffffffffffffffffffffffffffffffffffffffff811615611b50576040517f753eceac00000000000000000000000000000000000000000000000000000000815260048101839052602401610d4c565b7fdead0000000000000000000000000000000000000000000000000000000000008103611bac576040517f31e8d3d500000000000000000000000000000000000000000000000000000000815260048101839052602401610d4c565b60008281526020858152604080832073ffffffffffffffffffffffffffffffffffffffff87169081905580845260018089019093528184208054909301909255518492907fddf252ad1be2c89b69c2b068fc378daa952ba7f163c4a11628f55a4df523b3ef908290a450505050565b611c2885858585856114bf565b73ffffffffffffffffffffffffffffffffffffffff82163b15610bc457610bc48484848460405180602001604052806000815250613541565b73ffffffffffffffffffffffffffffffffffffffff8216611cae576040517f7851b9cd00000000000000000000000000000000000000000000000000000000815260040160405180910390fd5b805160005b81811015611df8576000838281518110611ccf57611ccf613eb0565b60209081029190910181015160008181529188905260409091205490915073ffffffffffffffffffffffffffffffffffffffff811615611d3e576040517f753eceac00000000000000000000000000000000000000000000000000000000815260048101839052602401610d4c565b7fdead0000000000000000000000000000000000000000000000000000000000008103611d9a576040517f31e8d3d500000000000000000000000000000000000000000000000000000000815260048101839052602401610d4c565b60008281526020889052604080822073ffffffffffffffffffffffffffffffffffffffff89169081905590518492907fddf252ad1be2c89b69c2b068fc378daa952ba7f163c4a11628f55a4df523b3ef908290a45050600101611cb3565b5073ffffffffffffffffffffffffffffffffffffffff9092166000908152600190930160205250604090912080549091019055565b620186a0811115611e6d576040517fac04040800000000000000000000000000000000000000000000000000000000815260048101829052602401610d4c565b81546bffffffffffffffffffffffff909116740100000000000000000000000000000000000000000273ffffffffffffffffffffffffffffffffffffffff909116179055565b60008181526020839052604081205473ffffffffffffffffffffffffffffffffffffffff8116611f12576040517fdd56047500000000000000000000000000000000000000000000000000000000815260048101849052602401610d4c565b805b949350505050565b600073ffffffffffffffffffffffffffffffffffffffff8216611f6b576040517faefbce4e00000000000000000000000000000000000000000000000000000000815260040160405180910390fd5b5073ffffffffffffffffffffffffffffffffffffffff166000908152600191909101602052604090205490565b6040805173ffffffffffffffffffffffffffffffffffffffff8416602482015260448082018490528251808303909101815260649091019091526020810180517bffffffffffffffffffffffffffffffffffffffffffffffffffffffff167fa9059cbb000000000000000000000000000000000000000000000000000000001790526106c6908490613656565b60008181526020859052604090205473ffffffffffffffffffffffffffffffffffffffff8116612084576040517fdd56047500000000000000000000000000000000000000000000000000000000815260048101839052602401610d4c565b73ffffffffffffffffffffffffffffffffffffffff83168173ffffffffffffffffffffffffffffffffffffffff1614612108576040517f14dbb53600000000000000000000000000000000000000000000000000000000815273ffffffffffffffffffffffffffffffffffffffff8416600482015260248101839052604401610d4c565b612113858486613362565b6121c25774010000000000000000000000000000000000000000811615806121645750600082815260028601602052604090205473ffffffffffffffffffffffffffffffffffffffff858116911614155b156121c2576040517fa4a3018b00000000000000000000000000000000000000000000000000000000815273ffffffffffffffffffffffffffffffffffffffff80861660048301528416602482015260448101839052606401610d4c565b6000828152602086815260408083207fdead000000000000000000000000000000000000000000000000000000000000905573ffffffffffffffffffffffffffffffffffffffff86168084526001890190925280832080547fffffffffffffffffffffffffffffffffffffffffffffffffffffffffffffffff01905551849291907fddf252ad1be2c89b69c2b068fc378daa952ba7f163c4a11628f55a4df523b3ef908390a45050505050565b61227a858484611aa3565b73ffffffffffffffffffffffffffffffffffffffff83163b15610bc457610bc4846000858585613541565b6122b0838284611a1d565b60008181526020848152604080832073ffffffffffffffffffffffffffffffffffffffff86168085529083529281902080547fffffffffffffffffffffffffffffffffffffffffffffffffffffffffffffff0016905580518481529182018390528101919091527ff6391f5c32d9c69d2a47ea670b442974b53935d1edc7fd64eb21e047a839171b9060600160405180910390a1505050565b73ffffffffffffffffffffffffffffffffffffffff8116612396576040517f16de0c8000000000000000000000000000000000000000000000000000000000815260040160405180910390fd5b81547fffffffffffffffffffffffff00000000000000000000000000000000000000001673ffffffffffffffffffffffffffffffffffffffff91909116179055565b606061066d6123e561260b565b613765565b815181518114612426576040517f6582533600000000000000000000000000000000000000000000000000000000815260040160405180910390fd5b60005b81811015610bc457600084828151811061244557612445613eb0565b60200260200101519050600073ffffffffffffffffffffffffffffffffffffffff168173ffffffffffffffffffffffffffffffffffffffff16036124b5576040517f7851b9cd00000000000000000000000000000000000000000000000000000000815260040160405180910390fd5b60008483815181106124c9576124c9613eb0565b60209081029190910181015160008181529189905260409091205490915073ffffffffffffffffffffffffffffffffffffffff811615612538576040517f753eceac00000000000000000000000000000000000000000000000000000000815260048101839052602401610d4c565b7fdead0000000000000000000000000000000000000000000000000000000000008103612594576040517f31e8d3d500000000000000000000000000000000000000000000000000000000815260048101839052602401610d4c565b60008281526020898152604080832073ffffffffffffffffffffffffffffffffffffffff8716908190558084526001808d019093528184208054909301909255518492907fddf252ad1be2c89b69c2b068fc378daa952ba7f163c4a11628f55a4df523b3ef908290a4505050806001019050612429565b60008061065d60017f7ea68fd2dcf1c056b94db6a0a537aa80d26fa9ab1eacd85da1ba0b61b7e7a8a5613f2b565b8273ffffffffffffffffffffffffffffffffffffffff168273ffffffffffffffffffffffffffffffffffffffff16036126b6576040517fe4215c6a00000000000000000000000000000000000000000000000000000000815273ffffffffffffffffffffffffffffffffffffffff84166004820152602401610d4c565b73ffffffffffffffffffffffffffffffffffffffff838116600081815260038701602090815260408083209487168084529482529182902080547fffffffffffffffffffffffffffffffffffffffffffffffffffffffffffffff001686151590811790915591519182527f17307eab39ab6107e8899845ad3d59bd9653f200f220920489ca2b5937696c31910160405180910390a350505050565b61275e87878787876114bf565b73ffffffffffffffffffffffffffffffffffffffff84163b156127be576127be8686868686868080601f01602080910402602001604051908101604052809392919081815260200183838082843760009201919091525061354192505050565b50505050505050565b6000818152602083905260408120547fdead00000000000000000000000000000000000000000000000000000000000014610aa5565b60028301546040517ff724dad700000000000000000000000000000000000000000000000000000000815273ffffffffffffffffffffffffffffffffffffffff848116600483015260248201849052606092169063f724dad790604401600060405180830381865afa158015612877573d6000803e3d6000fd5b505050506040513d6000823e601f3d9081017fffffffffffffffffffffffffffffffffffffffffffffffffffffffffffffffe0168201604052611f149190810190613fbf565b60008381526020858152604080832073ffffffffffffffffffffffffffffffffffffffff8616845290915290205460ff16156109fc5760008381526020858152604080832073ffffffffffffffffffffffffffffffffffffffff8681168086529184529382902080547fffffffffffffffffffffffffffffffffffffffffffffffffffffffffffffff00169055815187815292830152918316918101919091527ff6391f5c32d9c69d2a47ea670b442974b53935d1edc7fd64eb21e047a839171b90606001611a04565b6000612994868587613362565b90508160005b81811015612bd45760008585838181106129b6576129b6613eb0565b602090810292909201356000818152928c90526040909220549192505073ffffffffffffffffffffffffffffffffffffffff8116612a23576040517fdd56047500000000000000000000000000000000000000000000000000000000815260048101839052602401610d4c565b73ffffffffffffffffffffffffffffffffffffffff88168173ffffffffffffffffffffffffffffffffffffffff1614612aa7576040517f14dbb53600000000000000000000000000000000000000000000000000000000815273ffffffffffffffffffffffffffffffffffffffff8916600482015260248101839052604401610d4c565b84612b57577401000000000000000000000000000000000000000081161580612af95750600082815260028b01602052604090205473ffffffffffffffffffffffffffffffffffffffff8a8116911614155b15612b57576040517fa4a3018b00000000000000000000000000000000000000000000000000000000815273ffffffffffffffffffffffffffffffffffffffff808b1660048301528916602482015260448101839052606401610d4c565b600082815260208b905260408082207fdead00000000000000000000000000000000000000000000000000000000000090555183919073ffffffffffffffffffffffffffffffffffffffff8b16907fddf252ad1be2c89b69c2b068fc378daa952ba7f163c4a11628f55a4df523b3ef908390a4505060010161299a565b5080156127be5773ffffffffffffffffffffffffffffffffffffffff8516600090815260018801602052604090208054829003905550505050505050565b825473ffffffffffffffffffffffffffffffffffffffff9081169083168114612c7f576040517f2ef4875e00000000000000000000000000000000000000000000000000000000815273ffffffffffffffffffffffffffffffffffffffff84166004820152602401610d4c565b8173ffffffffffffffffffffffffffffffffffffffff168173ffffffffffffffffffffffffffffffffffffffff16146109fc5783547fffffffffffffffffffffffff00000000000000000000000000000000000000001673ffffffffffffffffffffffffffffffffffffffff8381169182178655604051908316907f8be0079c531659141344cd1fd0a4f28419497f9722a3daafe3b4186f6b6457e090600090a350505050565b73ffffffffffffffffffffffffffffffffffffffff8316612d73576040517f86c8706700000000000000000000000000000000000000000000000000000000815260040160405180910390fd5b6000612d80878688613362565b90508160005b81811015612fa4576000858583818110612da257612da2613eb0565b602090810292909201356000818152928d90526040909220549192505073ffffffffffffffffffffffffffffffffffffffff8116612e0f576040517fdd56047500000000000000000000000000000000000000000000000000000000815260048101839052602401610d4c565b73ffffffffffffffffffffffffffffffffffffffff89168173ffffffffffffffffffffffffffffffffffffffff1614612e93576040517f14dbb53600000000000000000000000000000000000000000000000000000000815273ffffffffffffffffffffffffffffffffffffffff8a16600482015260248101839052604401610d4c565b84612f43577401000000000000000000000000000000000000000081161580612ee55750600082815260028c01602052604090205473ffffffffffffffffffffffffffffffffffffffff8b8116911614155b15612f43576040517fa4a3018b00000000000000000000000000000000000000000000000000000000815273ffffffffffffffffffffffffffffffffffffffff808c1660048301528a16602482015260448101839052606401610d4c565b600082815260208c9052604080822073ffffffffffffffffffffffffffffffffffffffff808c16918290559151859391928d16917fddf252ad1be2c89b69c2b068fc378daa952ba7f163c4a11628f55a4df523b3ef91a45050600101612d86565b508473ffffffffffffffffffffffffffffffffffffffff168673ffffffffffffffffffffffffffffffffffffffff1614158015612fe057508015155b156109535773ffffffffffffffffffffffffffffffffffffffff808716600090815260018a016020526040808220805485900390559187168152208054820190555050505050505050565b80471015613095576040517f08c379a000000000000000000000000000000000000000000000000000000000815260206004820152601d60248201527f416464726573733a20696e73756666696369656e742062616c616e63650000006044820152606401610d4c565b60008273ffffffffffffffffffffffffffffffffffffffff168260405160006040518083038185875af1925050503d80600081146130ef576040519150601f19603f3d011682016040523d82523d6000602084013e6130f4565b606091505b50509050806106c6576040517f08c379a000000000000000000000000000000000000000000000000000000000815260206004820152603a60248201527f416464726573733a20756e61626c6520746f2073656e642076616c75652c207260448201527f6563697069656e74206d617920686176652072657665727465640000000000006064820152608401610d4c565b60608160000180546131969061407f565b80601f01602080910402602001604051908101604052809291908181526020018280546131c29061407f565b801561320f5780601f106131e45761010080835404028352916020019161320f565b820191906000526020600020905b8154815290600101906020018083116131f257829003601f168201915b50505050509050919050565b60003332148061322b5750601836105b1561323557503390565b7fffffffffffffffffffffffffffffffffffffffffffffffffffffffffffffffec36013560601c7f000000000000000000000000000000000000000000000000000000000000000073ffffffffffffffffffffffffffffffffffffffff1633148061335157506040517f8929a8ca00000000000000000000000000000000000000000000000000000000815273ffffffffffffffffffffffffffffffffffffffff82811660048301523360248301527f00000000000000000000000000000000000000000000000000000000000000001690638929a8ca90604401602060405180830381865afa15801561332d573d6000803e3d6000fd5b505050506040513d601f19601f820116820180604052508101906133519190613edf565b1561335b57919050565b3391505090565b60008173ffffffffffffffffffffffffffffffffffffffff168373ffffffffffffffffffffffffffffffffffffffff161480611f1457505073ffffffffffffffffffffffffffffffffffffffff9182166000908152600393909301602090815260408085209290931684525290205460ff1690565b366000333214806133e85750601836105b156133f65750600091369150565b3373ffffffffffffffffffffffffffffffffffffffff7f000000000000000000000000000000000000000000000000000000000000000016148061352b575073ffffffffffffffffffffffffffffffffffffffff7f000000000000000000000000000000000000000000000000000000000000000016638929a8ca367fffffffffffffffffffffffffffffffffffffffffffffffffffffffffffffffec013560601c6040517fffffffff0000000000000000000000000000000000000000000000000000000060e084901b16815273ffffffffffffffffffffffffffffffffffffffff9091166004820152336024820152604401602060405180830381865afa158015613507573d6000803e3d6000fd5b505050506040513d601f19601f8201168201806040525081019061352b9190613edf565b156135385761072d613776565b50600091369150565b6040517f150b7a02000000000000000000000000000000000000000000000000000000008082529073ffffffffffffffffffffffffffffffffffffffff85169063150b7a029061359b9089908990889088906004016140d2565b6020604051808303816000875af11580156135ba573d6000803e3d6000fd5b505050506040513d601f19601f820116820180604052508101906135de919061411b565b7fffffffff000000000000000000000000000000000000000000000000000000001614610bc4576040517fc215a7a100000000000000000000000000000000000000000000000000000000815273ffffffffffffffffffffffffffffffffffffffff8416600482015260248101839052604401610d4c565b60006136b8826040518060400160405280602081526020017f5361666545524332303a206c6f772d6c6576656c2063616c6c206661696c65648152508573ffffffffffffffffffffffffffffffffffffffff166137a79092919063ffffffff16565b90508051600014806136d95750808060200190518101906136d99190613edf565b6106c6576040517f08c379a000000000000000000000000000000000000000000000000000000000815260206004820152602a60248201527f5361666545524332303a204552433230206f7065726174696f6e20646964206e60448201527f6f742073756363656564000000000000000000000000000000000000000000006064820152608401610d4c565b60608160010180546131969061407f565b36600061072d7fffffffffffffffffffffffffffffffffffffffffffffffffffffffffffffffec8301828481614138565b6060611f148484600085856000808673ffffffffffffffffffffffffffffffffffffffff1685876040516137db9190614162565b60006040518083038185875af1925050503d8060008114613818576040519150601f19603f3d011682016040523d82523d6000602084013e61381d565b606091505b509150915061382e87838387613839565b979650505050505050565b606083156138cf5782516000036138c85773ffffffffffffffffffffffffffffffffffffffff85163b6138c8576040517f08c379a000000000000000000000000000000000000000000000000000000000815260206004820152601d60248201527f416464726573733a2063616c6c20746f206e6f6e2d636f6e74726163740000006044820152606401610d4c565b5081611f14565b611f1483838151156138e45781518083602001fd5b806040517f08c379a0000000000000000000000000000000000000000000000000000000008152600401610d4c91906139d1565b7fffffffff000000000000000000000000000000000000000000000000000000008116811461083c57600080fd5b60006020828403121561395857600080fd5b8135610aa581613918565b60005b8381101561397e578181015183820152602001613966565b50506000910152565b6000815180845261399f816020860160208601613963565b601f017fffffffffffffffffffffffffffffffffffffffffffffffffffffffffffffffe0169290920160200192915050565b602081526000610aa56020830184613987565b6000602082840312156139f657600080fd5b5035919050565b73ffffffffffffffffffffffffffffffffffffffff8116811461083c57600080fd5b60008060408385031215613a3257600080fd5b8235613a3d816139fd565b946020939093013593505050565b600080600060608486031215613a6057600080fd5b8335613a6b816139fd565b92506020840135613a7b816139fd565b929592945050506040919091013590565b60008060408385031215613a9f57600080fd5b50508035926020909101359150565b60008060408385031215613ac157600080fd5b823591506020830135613ad3816139fd565b809150509250929050565b60208152816020820152818360408301376000818301604090810191909152601f9092017fffffffffffffffffffffffffffffffffffffffffffffffffffffffffffffffe0160101919050565b60008083601f840112613b3d57600080fd5b50813567ffffffffffffffff811115613b5557600080fd5b6020830191508360208260051b85010111156106e757600080fd5b600080600060408486031215613b8557600080fd5b8335613b90816139fd565b9250602084013567ffffffffffffffff811115613bac57600080fd5b613bb886828701613b2b565b9497909650939450505050565b600060208284031215613bd757600080fd5b8135610aa5816139fd565b60008060008060008060608789031215613bfb57600080fd5b863567ffffffffffffffff80821115613c1357600080fd5b613c1f8a838b01613b2b565b90985096506020890135915080821115613c3857600080fd5b613c448a838b01613b2b565b90965094506040890135915080821115613c5d57600080fd5b50613c6a89828a01613b2b565b979a9699509497509295939492505050565b60008083601f840112613c8e57600080fd5b50813567ffffffffffffffff811115613ca657600080fd5b6020830191508360208285010111156106e757600080fd5b60008060008060608587031215613cd457600080fd5b8435613cdf816139fd565b935060208501359250604085013567ffffffffffffffff811115613d0257600080fd5b613d0e87828801613c7c565b95989497509550505050565b60008060008060408587031215613d3057600080fd5b843567ffffffffffffffff80821115613d4857600080fd5b613d5488838901613b2b565b90965094506020870135915080821115613d6d57600080fd5b50613d0e87828801613b2b565b801515811461083c57600080fd5b60008060408385031215613d9b57600080fd5b8235613da6816139fd565b91506020830135613ad381613d7a565b600080600080600060808688031215613dce57600080fd5b8535613dd9816139fd565b94506020860135613de9816139fd565b935060408601359250606086013567ffffffffffffffff811115613e0c57600080fd5b613e1888828901613c7c565b969995985093965092949392505050565b60008060408385031215613e3c57600080fd5b8235613e47816139fd565b91506020830135613ad3816139fd565b60008060008060608587031215613e6d57600080fd5b8435613e78816139fd565b93506020850135613e88816139fd565b9250604085013567ffffffffffffffff811115613ea457600080fd5b613d0e87828801613b2b565b7f4e487b7100000000000000000000000000000000000000000000000000000000600052603260045260246000fd5b600060208284031215613ef157600080fd5b8151610aa581613d7a565b7f4e487b7100000000000000000000000000000000000000000000000000000000600052601160045260246000fd5b8181038181111561065d5761065d613efc565b808202811582820484141761065d5761065d613efc565b600082613f8b577f4e487b7100000000000000000000000000000000000000000000000000000000600052601260045260246000fd5b500490565b7f4e487b7100000000000000000000000000000000000000000000000000000000600052604160045260246000fd5b600060208284031215613fd157600080fd5b815167ffffffffffffffff80821115613fe957600080fd5b818401915084601f830112613ffd57600080fd5b81518181111561400f5761400f613f90565b604051601f82017fffffffffffffffffffffffffffffffffffffffffffffffffffffffffffffffe0908116603f0116810190838211818310171561405557614055613f90565b8160405282815287602084870101111561406e57600080fd5b61382e836020830160208801613963565b600181811c9082168061409357607f821691505b6020821081036140cc577f4e487b7100000000000000000000000000000000000000000000000000000000600052602260045260246000fd5b50919050565b600073ffffffffffffffffffffffffffffffffffffffff8087168352808616602084015250836040830152608060608301526141116080830184613987565b9695505050505050565b60006020828403121561412d57600080fd5b8151610aa581613918565b6000808585111561414857600080fd5b8386111561415557600080fd5b5050820193919092039150565b60008251614174818460208701613963565b919091019291505056fea26469706673582212202d5bcce22bae7b4852f8ce435ea054f17291786caa46e5da5813fa06863eabee64736f6c63430008180033",
  "linkReferences": {},
  "deployedLinkReferences": {}
}