{
  "_format": "hh-sol-artifact-1",
  "contractName": "ERC721FullMintOnceBurnMock",
  "sourceName": "contracts/mocks/token/ERC721/preset/ERC721FullMintOnceBurnMock.sol",
  "abi": [
    {
      "inputs": [
        {
          "internalType": "string",
          "name": "tokenName",
          "type": "string"
        },
        {
          "internalType": "string",
          "name": "tokenSymbol",
          "type": "string"
        },
        {
          "internalType": "contract ITokenMetadataResolver",
          "name": "metadataResolver",
          "type": "address"
        },
        {
          "internalType": "contract IOperatorFilterRegistry",
          "name": "filterRegistry",
          "type": "address"
        },
        {
          "internalType": "contract IForwarderRegistry",
          "name": "forwarderRegistry",
          "type": "address"
        }
      ],
      "stateMutability": "nonpayable",
      "type": "constructor"
    },
    {
      "inputs": [
        {
          "internalType": "uint256",
          "name": "percentage",
          "type": "uint256"
        }
      ],
      "name": "IncorrectRoyaltyPercentage",
      "type": "error"
    },
    {
      "inputs": [],
      "name": "IncorrectRoyaltyReceiver",
      "type": "error"
    },
    {
      "inputs": [
        {
          "internalType": "address",
          "name": "operator",
          "type": "address"
        }
      ],
      "name": "OperatorNotAllowed",
      "type": "error"
    },
    {
      "anonymous": false,
      "inputs": [
        {
          "indexed": true,
          "internalType": "address",
          "name": "owner",
          "type": "address"
        },
        {
          "indexed": true,
          "internalType": "address",
          "name": "approved",
          "type": "address"
        },
        {
          "indexed": true,
          "internalType": "uint256",
          "name": "tokenId",
          "type": "uint256"
        }
      ],
      "name": "Approval",
      "type": "event"
    },
    {
      "anonymous": false,
      "inputs": [
        {
          "indexed": true,
          "internalType": "address",
          "name": "owner",
          "type": "address"
        },
        {
          "indexed": true,
          "internalType": "address",
          "name": "operator",
          "type": "address"
        },
        {
          "indexed": false,
          "internalType": "bool",
          "name": "approved",
          "type": "bool"
        }
      ],
      "name": "ApprovalForAll",
      "type": "event"
    },
    {
      "anonymous": false,
      "inputs": [
        {
          "indexed": true,
          "internalType": "address",
          "name": "previousOwner",
          "type": "address"
        },
        {
          "indexed": true,
          "internalType": "address",
          "name": "newOwner",
          "type": "address"
        }
      ],
      "name": "OwnershipTransferred",
      "type": "event"
    },
    {
      "anonymous": false,
      "inputs": [
        {
          "indexed": false,
          "internalType": "bytes32",
          "name": "role",
          "type": "bytes32"
        },
        {
          "indexed": false,
          "internalType": "address",
          "name": "account",
          "type": "address"
        },
        {
          "indexed": false,
          "internalType": "address",
          "name": "operator",
          "type": "address"
        }
      ],
      "name": "RoleGranted",
      "type": "event"
    },
    {
      "anonymous": false,
      "inputs": [
        {
          "indexed": false,
          "internalType": "bytes32",
          "name": "role",
          "type": "bytes32"
        },
        {
          "indexed": false,
          "internalType": "address",
          "name": "account",
          "type": "address"
        },
        {
          "indexed": false,
          "internalType": "address",
          "name": "operator",
          "type": "address"
        }
      ],
      "name": "RoleRevoked",
      "type": "event"
    },
    {
      "anonymous": false,
      "inputs": [
        {
          "indexed": true,
          "internalType": "address",
          "name": "from",
          "type": "address"
        },
        {
          "indexed": true,
          "internalType": "address",
          "name": "to",
          "type": "address"
        },
        {
          "indexed": true,
          "internalType": "uint256",
          "name": "tokenId",
          "type": "uint256"
        }
      ],
      "name": "Transfer",
      "type": "event"
    },
    {
      "inputs": [],
      "name": "MINTER_ROLE",
      "outputs": [
        {
          "internalType": "bytes32",
          "name": "",
          "type": "bytes32"
        }
      ],
      "stateMutability": "view",
      "type": "function"
    },
    {
      "inputs": [],
      "name": "ROYALTY_FEE_DENOMINATOR",
      "outputs": [
        {
          "internalType": "uint256",
          "name": "",
          "type": "uint256"
        }
      ],
      "stateMutability": "view",
      "type": "function"
    },
    {
      "inputs": [],
      "name": "__msgData",
      "outputs": [
        {
          "internalType": "bytes",
          "name": "",
          "type": "bytes"
        }
      ],
      "stateMutability": "view",
      "type": "function"
    },
    {
      "inputs": [
        {
          "internalType": "address",
          "name": "to",
          "type": "address"
        },
        {
          "internalType": "uint256",
          "name": "tokenId",
          "type": "uint256"
        }
      ],
      "name": "approve",
      "outputs": [],
      "stateMutability": "nonpayable",
      "type": "function"
    },
    {
      "inputs": [
        {
          "internalType": "address",
          "name": "owner",
          "type": "address"
        }
      ],
      "name": "balanceOf",
      "outputs": [
        {
          "internalType": "uint256",
          "name": "balance",
          "type": "uint256"
        }
      ],
      "stateMutability": "view",
      "type": "function"
    },
    {
      "inputs": [
        {
          "internalType": "address",
          "name": "from",
          "type": "address"
        },
        {
          "internalType": "uint256[]",
          "name": "tokenIds",
          "type": "uint256[]"
        }
      ],
      "name": "batchBurnFrom",
      "outputs": [],
      "stateMutability": "nonpayable",
      "type": "function"
    },
    {
      "inputs": [
        {
          "internalType": "address",
          "name": "to",
          "type": "address"
        },
        {
          "internalType": "uint256[]",
          "name": "tokenIds",
          "type": "uint256[]"
        }
      ],
      "name": "batchMint",
      "outputs": [],
      "stateMutability": "nonpayable",
      "type": "function"
    },
    {
      "inputs": [
        {
          "internalType": "address",
          "name": "from",
          "type": "address"
        },
        {
          "internalType": "address",
          "name": "to",
          "type": "address"
        },
        {
          "internalType": "uint256[]",
          "name": "tokenIds",
          "type": "uint256[]"
        }
      ],
      "name": "batchTransferFrom",
      "outputs": [],
      "stateMutability": "nonpayable",
      "type": "function"
    },
    {
      "inputs": [
        {
          "internalType": "address",
          "name": "from",
          "type": "address"
        },
        {
          "internalType": "uint256",
          "name": "tokenId",
          "type": "uint256"
        }
      ],
      "name": "burnFrom",
      "outputs": [],
      "stateMutability": "nonpayable",
      "type": "function"
    },
    {
      "inputs": [
        {
          "internalType": "address[]",
          "name": "recipients",
          "type": "address[]"
        },
        {
          "internalType": "uint256[]",
          "name": "tokenIds",
          "type": "uint256[]"
        }
      ],
      "name": "deliver",
      "outputs": [],
      "stateMutability": "nonpayable",
      "type": "function"
    },
    {
      "inputs": [],
      "name": "forwarderRegistry",
      "outputs": [
        {
          "internalType": "contract IForwarderRegistry",
          "name": "",
          "type": "address"
        }
      ],
      "stateMutability": "view",
      "type": "function"
    },
    {
      "inputs": [
        {
          "internalType": "uint256",
          "name": "tokenId",
          "type": "uint256"
        }
      ],
      "name": "getApproved",
      "outputs": [
        {
          "internalType": "address",
          "name": "approved",
          "type": "address"
        }
      ],
      "stateMutability": "view",
      "type": "function"
    },
    {
      "inputs": [
        {
          "internalType": "bytes32",
          "name": "role",
          "type": "bytes32"
        },
        {
          "internalType": "address",
          "name": "account",
          "type": "address"
        }
      ],
      "name": "grantRole",
      "outputs": [],
      "stateMutability": "nonpayable",
      "type": "function"
    },
    {
      "inputs": [
        {
          "internalType": "bytes32",
          "name": "role",
          "type": "bytes32"
        },
        {
          "internalType": "address",
          "name": "account",
          "type": "address"
        }
      ],
      "name": "hasRole",
      "outputs": [
        {
          "internalType": "bool",
          "name": "",
          "type": "bool"
        }
      ],
      "stateMutability": "view",
      "type": "function"
    },
    {
      "inputs": [
        {
          "internalType": "address",
          "name": "owner",
          "type": "address"
        },
        {
          "internalType": "address",
          "name": "operator",
          "type": "address"
        }
      ],
      "name": "isApprovedForAll",
      "outputs": [
        {
          "internalType": "bool",
          "name": "approvedForAll",
          "type": "bool"
        }
      ],
      "stateMutability": "view",
      "type": "function"
    },
    {
      "inputs": [
        {
          "internalType": "address",
          "name": "forwarder",
          "type": "address"
        }
      ],
      "name": "isTrustedForwarder",
      "outputs": [
        {
          "internalType": "bool",
          "name": "",
          "type": "bool"
        }
      ],
      "stateMutability": "view",
      "type": "function"
    },
    {
      "inputs": [],
      "name": "metadataResolver",
      "outputs": [
        {
          "internalType": "contract ITokenMetadataResolver",
          "name": "tokenMetadataResolver",
          "type": "address"
        }
      ],
      "stateMutability": "view",
      "type": "function"
    },
    {
      "inputs": [
        {
          "internalType": "address",
          "name": "to",
          "type": "address"
        },
        {
          "internalType": "uint256",
          "name": "tokenId",
          "type": "uint256"
        }
      ],
      "name": "mint",
      "outputs": [],
      "stateMutability": "nonpayable",
      "type": "function"
    },
    {
      "inputs": [],
      "name": "name",
      "outputs": [
        {
          "internalType": "string",
          "name": "tokenName",
          "type": "string"
        }
      ],
      "stateMutability": "view",
      "type": "function"
    },
    {
      "inputs": [],
      "name": "operatorFilterRegistry",
      "outputs": [
        {
          "internalType": "contract IOperatorFilterRegistry",
          "name": "",
          "type": "address"
        }
      ],
      "stateMutability": "view",
      "type": "function"
    },
    {
      "inputs": [],
      "name": "owner",
      "outputs": [
        {
          "internalType": "address",
          "name": "",
          "type": "address"
        }
      ],
      "stateMutability": "view",
      "type": "function"
    },
    {
      "inputs": [
        {
          "internalType": "uint256",
          "name": "tokenId",
          "type": "uint256"
        }
      ],
      "name": "ownerOf",
      "outputs": [
        {
          "internalType": "address",
          "name": "tokenOwner",
          "type": "address"
        }
      ],
      "stateMutability": "view",
      "type": "function"
    },
    {
      "inputs": [
        {
          "internalType": "address[]",
          "name": "accounts",
          "type": "address[]"
        },
        {
          "internalType": "contract IERC20[]",
          "name": "tokens",
          "type": "address[]"
        },
        {
          "internalType": "uint256[]",
          "name": "amounts",
          "type": "uint256[]"
        }
      ],
      "name": "recoverERC20s",
      "outputs": [],
      "stateMutability": "nonpayable",
      "type": "function"
    },
    {
      "inputs": [
        {
          "internalType": "address[]",
          "name": "accounts",
          "type": "address[]"
        },
        {
          "internalType": "contract IERC721[]",
          "name": "contracts",
          "type": "address[]"
        },
        {
          "internalType": "uint256[]",
          "name": "tokenIds",
          "type": "uint256[]"
        }
      ],
      "name": "recoverERC721s",
      "outputs": [],
      "stateMutability": "nonpayable",
      "type": "function"
    },
    {
      "inputs": [
        {
          "internalType": "address payable[]",
          "name": "accounts",
          "type": "address[]"
        },
        {
          "internalType": "uint256[]",
          "name": "amounts",
          "type": "uint256[]"
        }
      ],
      "name": "recoverETH",
      "outputs": [],
      "stateMutability": "nonpayable",
      "type": "function"
    },
    {
      "inputs": [
        {
          "internalType": "bytes32",
          "name": "role",
          "type": "bytes32"
        }
      ],
      "name": "renounceRole",
      "outputs": [],
      "stateMutability": "nonpayable",
      "type": "function"
    },
    {
      "inputs": [
        {
          "internalType": "bytes32",
          "name": "role",
          "type": "bytes32"
        },
        {
          "internalType": "address",
          "name": "account",
          "type": "address"
        }
      ],
      "name": "revokeRole",
      "outputs": [],
      "stateMutability": "nonpayable",
      "type": "function"
    },
    {
      "inputs": [
        {
          "internalType": "uint256",
          "name": "tokenId",
          "type": "uint256"
        },
        {
          "internalType": "uint256",
          "name": "salePrice",
          "type": "uint256"
        }
      ],
      "name": "royaltyInfo",
      "outputs": [
        {
          "internalType": "address",
          "name": "receiver",
          "type": "address"
        },
        {
          "internalType": "uint256",
          "name": "royaltyAmount",
          "type": "uint256"
        }
      ],
      "stateMutability": "view",
      "type": "function"
    },
    {
      "inputs": [
        {
          "internalType": "address",
          "name": "to",
          "type": "address"
        },
        {
          "internalType": "uint256",
          "name": "tokenId",
          "type": "uint256"
        },
        {
          "internalType": "bytes",
          "name": "data",
          "type": "bytes"
        }
      ],
      "name": "safeMint",
      "outputs": [],
      "stateMutability": "nonpayable",
      "type": "function"
    },
    {
      "inputs": [
        {
          "internalType": "address",
          "name": "from",
          "type": "address"
        },
        {
          "internalType": "address",
          "name": "to",
          "type": "address"
        },
        {
          "internalType": "uint256",
          "name": "tokenId",
          "type": "uint256"
        }
      ],
      "name": "safeTransferFrom",
      "outputs": [],
      "stateMutability": "nonpayable",
      "type": "function"
    },
    {
      "inputs": [
        {
          "internalType": "address",
          "name": "from",
          "type": "address"
        },
        {
          "internalType": "address",
          "name": "to",
          "type": "address"
        },
        {
          "internalType": "uint256",
          "name": "tokenId",
          "type": "uint256"
        },
        {
          "internalType": "bytes",
          "name": "data",
          "type": "bytes"
        }
      ],
      "name": "safeTransferFrom",
      "outputs": [],
      "stateMutability": "nonpayable",
      "type": "function"
    },
    {
      "inputs": [
        {
          "internalType": "address",
          "name": "operator",
          "type": "address"
        },
        {
          "internalType": "bool",
          "name": "approved",
          "type": "bool"
        }
      ],
      "name": "setApprovalForAll",
      "outputs": [],
      "stateMutability": "nonpayable",
      "type": "function"
    },
    {
      "inputs": [
        {
          "internalType": "uint256",
          "name": "percentage",
          "type": "uint256"
        }
      ],
      "name": "setRoyaltyPercentage",
      "outputs": [],
      "stateMutability": "nonpayable",
      "type": "function"
    },
    {
      "inputs": [
        {
          "internalType": "address",
          "name": "receiver",
          "type": "address"
        }
      ],
      "name": "setRoyaltyReceiver",
      "outputs": [],
      "stateMutability": "nonpayable",
      "type": "function"
    },
    {
      "inputs": [
        {
          "internalType": "bytes4",
          "name": "interfaceId",
          "type": "bytes4"
        }
      ],
      "name": "supportsInterface",
      "outputs": [
        {
          "internalType": "bool",
          "name": "",
          "type": "bool"
        }
      ],
      "stateMutability": "view",
      "type": "function"
    },
    {
      "inputs": [],
      "name": "symbol",
      "outputs": [
        {
          "internalType": "string",
          "name": "tokenSymbol",
          "type": "string"
        }
      ],
      "stateMutability": "view",
      "type": "function"
    },
    {
      "inputs": [
        {
          "internalType": "uint256",
          "name": "tokenId",
          "type": "uint256"
        }
      ],
      "name": "tokenURI",
      "outputs": [
        {
          "internalType": "string",
          "name": "uri",
          "type": "string"
        }
      ],
      "stateMutability": "view",
      "type": "function"
    },
    {
      "inputs": [
        {
          "internalType": "address",
          "name": "from",
          "type": "address"
        },
        {
          "internalType": "address",
          "name": "to",
          "type": "address"
        },
        {
          "internalType": "uint256",
          "name": "tokenId",
          "type": "uint256"
        }
      ],
      "name": "transferFrom",
      "outputs": [],
      "stateMutability": "nonpayable",
      "type": "function"
    },
    {
      "inputs": [
        {
          "internalType": "address",
          "name": "newOwner",
          "type": "address"
        }
      ],
      "name": "transferOwnership",
      "outputs": [],
      "stateMutability": "nonpayable",
      "type": "function"
    },
    {
      "inputs": [
        {
          "internalType": "contract IOperatorFilterRegistry",
          "name": "registry",
          "type": "address"
        }
      ],
      "name": "updateOperatorFilterRegistry",
      "outputs": [],
      "stateMutability": "nonpayable",
      "type": "function"
    },
    {
      "inputs": [
        {
          "internalType": "uint256",
          "name": "tokenId",
          "type": "uint256"
        }
      ],
      "name": "wasBurnt",
      "outputs": [
        {
          "internalType": "bool",
          "name": "tokenWasBurnt",
          "type": "bool"
        }
      ],
      "stateMutability": "view",
      "type": "function"
    }
  ],
  "bytecode": "0x60a06040523480156200001157600080fd5b5060405162005093380380620050938339810160408190526200003491620004a2565b84848484848080868686863362000056816200004f62000107565b906200013d565b5062000061620001b8565b6200008e8162000070620001d2565b9081546001600160a01b0319166001600160a01b0391909116179055565b506200009962000202565b620000b3838383620000aa6200021a565b9291906200024a565b620000bd62000291565b50620000cb915050620002a9565b620000d5620002c1565b620000df620002d9565b620000e9620002f1565b6001600160a01b031660805250620006cb9950505050505050505050565b6000806200013760017fc9ed16f33ab3a66c84bfd83099ccb2a8845871e2e1c1928f63797152f0fd54cd6200054e565b92915050565b6001600160a01b03811615620001945781546001600160a01b0319166001600160a01b03821690811783556040516000907f8be0079c531659141344cd1fd0a4f28419497f9722a3daafe3b4186f6b6457e0908290a35b620001b46307f5828d60e41b6001620001ac62000304565b919062000334565b5050565b620001d06380ac58cd60e01b6001620001ac62000304565b565b6000806200013760017f609b85bcafa81ecfaf3ff62cdde2c6c9082a68dbe4922f07399c706bdeb7cd316200054e565b620001d063f3993d1160e01b6001620001ac62000304565b6000806200013760017f7ea68fd2dcf1c056b94db6a0a537aa80d26fa9ab1eacd85da1ba0b61b7e7a8a56200054e565b83620002578482620005ff565b5060018401620002688382620005ff565b5060029390930180546001600160a01b0319166001600160a01b03909416939093179092555050565b620001d0635b5e139f60e01b6001620001ac62000304565b620001d0638e773e1360e01b6001620001ac62000304565b620001d0634ed2f41960e11b6001620001ac62000304565b620001d0638b8b4ef560e01b6001620001ac62000304565b620001d063152a902d60e11b6001620001ac5b6000806200013760017fca9d3e17f264b0f3984e2634e94adb37fa3e6a8103f06aeae6fa59e21c769f5e6200054e565b600160e01b6001600160e01b0319831601620003965760405162461bcd60e51b815260206004820152601f60248201527f496e74657266616365446574656374696f6e3a2077726f6e672076616c756500604482015260640160405180910390fd5b6001600160e01b03199190911660009081526020929092526040909120805460ff1916911515919091179055565b634e487b7160e01b600052604160045260246000fd5b600082601f830112620003ec57600080fd5b81516001600160401b0380821115620004095762000409620003c4565b604051601f8301601f19908116603f01168101908282118183101715620004345762000434620003c4565b816040528381526020925086838588010111156200045157600080fd5b600091505b8382101562000475578582018301518183018401529082019062000456565b600093810190920192909252949350505050565b6001600160a01b03811681146200049f57600080fd5b50565b600080600080600060a08688031215620004bb57600080fd5b85516001600160401b0380821115620004d357600080fd5b620004e189838a01620003da565b96506020880151915080821115620004f857600080fd5b506200050788828901620003da565b94505060408601516200051a8162000489565b60608701519093506200052d8162000489565b6080870151909250620005408162000489565b809150509295509295909350565b818103818111156200013757634e487b7160e01b600052601160045260246000fd5b600181811c908216806200058557607f821691505b602082108103620005a657634e487b7160e01b600052602260045260246000fd5b50919050565b601f821115620005fa57600081815260208120601f850160051c81016020861015620005d55750805b601f850160051c820191505b81811015620005f657828155600101620005e1565b5050505b505050565b81516001600160401b038111156200061b576200061b620003c4565b62000633816200062c845462000570565b84620005ac565b602080601f8311600181146200066b5760008415620006525750858301515b600019600386901b1c1916600185901b178555620005f6565b600085815260208120601f198616915b828110156200069c578886015182559484019460019091019084016200067b565b5085821015620006bb5787850151600019600388901b60f8161c191681555b5050505050600190811b01905550565b6080516149896200070a600039600081816103c90152818161045f01528181613824015281816138ac015281816139d40152613a1201526149896000f3fe608060405234801561001057600080fd5b50600436106102d35760003560e01c80638bb9c5bf11610186578063c3666c36116100e3578063e1a8bf2c11610097578063f2fde38b11610071578063f2fde38b14610651578063f3993d1114610664578063f7ba94bd1461067757600080fd5b8063e1a8bf2c14610621578063e985e9c51461062b578063f24729651461063e57600080fd5b8063c87b56dd116100c8578063c87b56dd146105d4578063d5391393146105e7578063d547741f1461060e57600080fd5b8063c3666c36146105ae578063c77c6955146105c157600080fd5b80639da5e8321161013a578063a22cb4651161011f578063a22cb46514610580578063b0ccc31e14610593578063b88d4fde1461059b57600080fd5b80639da5e83214610565578063a0c76f621461057857600080fd5b80638dc251e31161016b5780638dc251e31461053757806391d148541461054a57806395d89b411461055d57600080fd5b80638bb9c5bf1461051c5780638da5cb5b1461052f57600080fd5b806340c10f19116102345780636352211e116101e857806373c8a958116101cd57806373c8a958146104e357806379cc6790146104f65780638832e6e31461050957600080fd5b80636352211e146104af57806370a08231146104c257600080fd5b80634684d7e9116102195780634684d7e91461043c578063572b6c051461044f57806361ba27da1461049c57600080fd5b806340c10f191461041657806342842e0e1461042957600080fd5b806323b872dd1161028b5780632b4c9f16116102705780632b4c9f16146103c75780632f2ff15d146103ed57806331e66e1e1461040057600080fd5b806323b872dd146103755780632a55205a1461038857600080fd5b8063081812fc116102bc578063081812fc14610315578063095ea7b31461034d578063114ba8ee1461036257600080fd5b806301ffc9a7146102d857806306fdde0314610300575b600080fd5b6102eb6102e63660046140af565b61068a565b60405190151581526020015b60405180910390f35b6103086106a4565b6040516102f7919061413a565b61032861032336600461414d565b6106b3565b60405173ffffffffffffffffffffffffffffffffffffffff90911681526020016102f7565b61036061035b366004614188565b6106c7565b005b6103606103703660046141b4565b610716565b6103606103833660046141d1565b610781565b61039b610396366004614212565b6107bf565b6040805173ffffffffffffffffffffffffffffffffffffffff90931683526020830191909152016102f7565b7f0000000000000000000000000000000000000000000000000000000000000000610328565b6103606103fb366004614234565b6107e2565b610408610815565b6040516102f7929190614264565b610360610424366004614188565b610828565b6103606104373660046141d1565b610877565b61036061044a3660046142f6565b6108a8565b6102eb61045d3660046141b4565b7f000000000000000000000000000000000000000000000000000000000000000073ffffffffffffffffffffffffffffffffffffffff90811691161490565b6103606104aa36600461414d565b61091c565b6103286104bd36600461414d565b610939565b6104d56104d03660046141b4565b61094d565b6040519081526020016102f7565b6103606104f136600461434b565b610961565b610360610504366004614188565b610a89565b610360610517366004614427565b610aa6565b61036061052a36600461414d565b610b28565b610328610b43565b6103606105453660046141b4565b610b6a565b6102eb610558366004614234565b610b87565b610308610bd2565b610360610573366004614483565b610bdc565b610328610c80565b61036061058e3660046144f1565b610caa565b610328610cd9565b6103606105a936600461451f565b610ce6565b6103606105bc36600461434b565b610d23565b6102eb6105cf36600461414d565b610ec8565b6103086105e236600461414d565b610edc565b6104d57f6d696e746572000000000000000000000000000000000000000000000000000081565b61036061061c366004614234565b610eff565b6104d5620186a081565b6102eb610639366004614592565b610f2d565b61036061064c3660046142f6565b610f7b565b61036061065f3660046141b4565b610f9a565b6103606106723660046145c0565b610fb5565b610360610685366004614483565b610fef565b600061069e826106986110d5565b90611103565b92915050565b60606106ae6111dd565b905090565b600061069e826106c16111ef565b9061121d565b73ffffffffffffffffffffffffffffffffffffffff8216156106f5576106f5826106ef6112fe565b9061132c565b610712610700611336565b838361070a6111ef565b929190611340565b5050565b61072f610721611336565b610729611609565b90611637565b61077e8161073b6112fe565b9081547fffffffffffffffffffffffff00000000000000000000000000000000000000001673ffffffffffffffffffffffffffffffffffffffff91909116179055565b50565b600061078b611336565b90506107a1818561079a6112fe565b91906116fc565b6107b9818585856107b06111ef565b93929190611739565b50505050565b6000806107d684846107cf611a8e565b9190611abc565b915091505b9250929050565b60006107ec611336565b90506107fa81610729611609565b610810838383610808611b66565b929190611b94565b505050565b366000610820611c6a565b915091509091565b6108637f6d696e7465720000000000000000000000000000000000000000000000000000610854611336565b61085c611b66565b9190611c75565b61071282826108706111ef565b9190611d21565b6000610881611336565b9050610890818561079a6112fe565b6107b98185858561089f6111ef565b93929190611f23565b6108d47f6d696e7465720000000000000000000000000000000000000000000000000000610854611336565b6108108383838080602002602001604051908101604052809392919081815260200183836020028082843760009201919091525061091592506111ef915050565b9190611f69565b610927610721611336565b61077e81610933611a8e565b906121be565b600061069e826109476111ef565b90612244565b600061069e8261095b6111ef565b906122da565b61096c610721611336565b84838114801561097b57508082145b6109e6576040517f08c379a000000000000000000000000000000000000000000000000000000000815260206004820152601d60248201527f5265636f766572793a20696e636f6e73697374656e742061727261797300000060448201526064015b60405180910390fd5b60005b818114610a7f57610a77888883818110610a0557610a05614619565b9050602002016020810190610a1a91906141b4565b858584818110610a2c57610a2c614619565b90506020020135888885818110610a4557610a45614619565b9050602002016020810190610a5a91906141b4565b73ffffffffffffffffffffffffffffffffffffffff169190612386565b6001016109e9565b5050505050505050565b610712610a94611336565b8383610a9e6111ef565b929190612413565b610ad27f6d696e7465720000000000000000000000000000000000000000000000000000610854611336565b6107b9610add611336565b858585858080601f016020809104026020016040519081016040528093929190818152602001838380828437600092019190915250610b1f92506111ef915050565b93929190612627565b61077e610b33611336565b82610b3c611b66565b919061265d565b60006106ae610b50611609565b5473ffffffffffffffffffffffffffffffffffffffff1690565b610b75610721611336565b61077e81610b81611a8e565b90612701565b6000610bcb8383610b96611b66565b60009283526020908152604080842073ffffffffffffffffffffffffffffffffffffffff909316845291905290205460ff1690565b9392505050565b60606106ae61274e565b610c087f6d696e7465720000000000000000000000000000000000000000000000000000610854611336565b6107b984848080602002602001604051908101604052809392919081815260200183836020028082843760009201919091525050604080516020808802828101820190935287825290935087925086918291850190849080828437600092019190915250610c7992506111ef915050565b9190612760565b60006106ae610c8d612a3a565b6002015473ffffffffffffffffffffffffffffffffffffffff1690565b8015610cbc57610cbc826106ef6112fe565b610712610cc7611336565b8383610cd16111ef565b929190612a68565b60006106ae610b506112fe565b6000610cf0611336565b9050610cff818761079a6112fe565b610d1b818787878787610d106111ef565b959493929190612b98565b505050505050565b610d2e610721611336565b848381148015610d3d57508082145b610da3576040517f08c379a000000000000000000000000000000000000000000000000000000000815260206004820152601d60248201527f5265636f766572793a20696e636f6e73697374656e742061727261797300000060448201526064016109dd565b60005b818114610a7f57858582818110610dbf57610dbf614619565b9050602002016020810190610dd491906141b4565b73ffffffffffffffffffffffffffffffffffffffff166323b872dd308a8a85818110610e0257610e02614619565b9050602002016020810190610e1791906141b4565b878786818110610e2957610e29614619565b6040517fffffffff0000000000000000000000000000000000000000000000000000000060e088901b16815273ffffffffffffffffffffffffffffffffffffffff958616600482015294909316602485015250602090910201356044820152606401600060405180830381600087803b158015610ea557600080fd5b505af1158015610eb9573d6000803e3d6000fd5b50505050806001019050610da6565b600061069e82610ed66111ef565b90612c0e565b6060610eea826109476111ef565b5061069e3083610ef8612a3a565b9190612c44565b6000610f09611336565b9050610f1781610729611609565b610810838383610f25611b66565b929190612d04565b6000610bcb8383610f3c6111ef565b919073ffffffffffffffffffffffffffffffffffffffff9182166000908152600393909301602090815260408085209290931684525290205460ff1690565b610810610f86611336565b848484610f916111ef565b93929190612dce565b61077e610fa5611336565b82610fae611609565b9190613023565b6000610fbf611336565b9050610fce818661079a6112fe565b610fe88186868686610fde6111ef565b949392919061314f565b5050505050565b610ffa610721611336565b82818114611064576040517f08c379a000000000000000000000000000000000000000000000000000000000815260206004820152601d60248201527f5265636f766572793a20696e636f6e73697374656e742061727261797300000060448201526064016109dd565b60005b818114610d1b576110cd84848381811061108357611083614619565b9050602002013587878481811061109c5761109c614619565b90506020020160208101906110b191906141b4565b73ffffffffffffffffffffffffffffffffffffffff16906134ca565b600101611067565b60008061069e60017fca9d3e17f264b0f3984e2634e94adb37fa3e6a8103f06aeae6fa59e21c769f5e614677565b60007c01000000000000000000000000000000000000000000000000000000007fffffffff000000000000000000000000000000000000000000000000000000008316016111535750600061069e565b7ffe003659000000000000000000000000000000000000000000000000000000007fffffffff000000000000000000000000000000000000000000000000000000008316016111a45750600161069e565b507fffffffff00000000000000000000000000000000000000000000000000000000166000908152602091909152604090205460ff1690565b60606106ae6111ea612a3a565b613624565b60008061069e60017fddf3ee18ae6d688373c219468f8be446e7ae82215f4779d821c7ea5e8c13c0c1614677565b60008181526020839052604081205473ffffffffffffffffffffffffffffffffffffffff81166112a9576040517f08c379a000000000000000000000000000000000000000000000000000000000815260206004820152601a60248201527f4552433732313a206e6f6e2d6578697374696e6720746f6b656e00000000000060448201526064016109dd565b740100000000000000000000000000000000000000008116156112f4575050600081815260028301602052604090205473ffffffffffffffffffffffffffffffffffffffff1661069e565b600091505061069e565b60008061069e60017f609b85bcafa81ecfaf3ff62cdde2c6c9082a68dbe4922f07399c706bdeb7cd31614677565b61071282826136ba565b60006106ae6137e1565b60008181526020859052604090205473ffffffffffffffffffffffffffffffffffffffff81166113cc576040517f08c379a000000000000000000000000000000000000000000000000000000000815260206004820152601a60248201527f4552433732313a206e6f6e2d6578697374696e6720746f6b656e00000000000060448201526064016109dd565b8073ffffffffffffffffffffffffffffffffffffffff8082169085160361144f576040517f08c379a000000000000000000000000000000000000000000000000000000000815260206004820152601560248201527f4552433732313a2073656c662d617070726f76616c000000000000000000000060448201526064016109dd565b61145a868287613928565b6114c0576040517f08c379a000000000000000000000000000000000000000000000000000000000815260206004820152601b60248201527f4552433732313a206e6f6e2d617070726f7665642073656e646572000000000060448201526064016109dd565b73ffffffffffffffffffffffffffffffffffffffff8416611525577401000000000000000000000000000000000000000082161561152057600083815260208790526040902073ffffffffffffffffffffffffffffffffffffffff821690555b6115a6565b7401000000000000000000000000000000000000000082178083146115565760008481526020889052604090208190555b506000838152600287016020526040902080547fffffffffffffffffffffffff00000000000000000000000000000000000000001673ffffffffffffffffffffffffffffffffffffffff86161790555b828473ffffffffffffffffffffffffffffffffffffffff168273ffffffffffffffffffffffffffffffffffffffff167f8c5be1e5ebec7d5bd14f71427d1e84f3dd0314c0f7b2291e5b200ac8c7c3b92560405160405180910390a4505050505050565b60008061069e60017fc9ed16f33ab3a66c84bfd83099ccb2a8845871e2e1c1928f63797152f0fd54cd614677565b815473ffffffffffffffffffffffffffffffffffffffff828116911614610712576040517f08c379a000000000000000000000000000000000000000000000000000000000815260206004820152601860248201527f4f776e6572736869703a206e6f7420746865206f776e6572000000000000000060448201526064016109dd565b81547fffffffffffffffffffffffff00000000000000000000000000000000000000001673ffffffffffffffffffffffffffffffffffffffff91909116179055565b8073ffffffffffffffffffffffffffffffffffffffff168273ffffffffffffffffffffffffffffffffffffffff16146108105761081083836136ba565b73ffffffffffffffffffffffffffffffffffffffff82166117b6576040517f08c379a000000000000000000000000000000000000000000000000000000000815260206004820152601e60248201527f4552433732313a207472616e7366657220746f2061646472657373283029000060448201526064016109dd565b60008181526020869052604090205473ffffffffffffffffffffffffffffffffffffffff8116611842576040517f08c379a000000000000000000000000000000000000000000000000000000000815260206004820152601a60248201527f4552433732313a206e6f6e2d6578697374696e6720746f6b656e00000000000060448201526064016109dd565b73ffffffffffffffffffffffffffffffffffffffff84168173ffffffffffffffffffffffffffffffffffffffff16146118d7576040517f08c379a000000000000000000000000000000000000000000000000000000000815260206004820152601760248201527f4552433732313a206e6f6e2d6f776e656420746f6b656e00000000000000000060448201526064016109dd565b6118e2868587613928565b61199a57740100000000000000000000000000000000000000008116151580156119345750600082815260028701602052604090205473ffffffffffffffffffffffffffffffffffffffff8681169116145b61199a576040517f08c379a000000000000000000000000000000000000000000000000000000000815260206004820152601b60248201527f4552433732313a206e6f6e2d617070726f7665642073656e646572000000000060448201526064016109dd565b600082815260208790526040902073ffffffffffffffffffffffffffffffffffffffff80851691829055851614611a2b5773ffffffffffffffffffffffffffffffffffffffff80851660009081526001808901602052604080832080547fffffffffffffffffffffffffffffffffffffffffffffffffffffffffffffffff0190559286168252919020805490910190555b818373ffffffffffffffffffffffffffffffffffffffff168573ffffffffffffffffffffffffffffffffffffffff167fddf252ad1be2c89b69c2b068fc378daa952ba7f163c4a11628f55a4df523b3ef60405160405180910390a4505050505050565b60008061069e60017f2c0cf10337caabbd02dcf226f05f5fd19a0919a41a8df8958c39b80007826858614677565b825473ffffffffffffffffffffffffffffffffffffffff8116906000907401000000000000000000000000000000000000000090046bffffffffffffffffffffffff16831580611b0a575080155b15611b185760009150611b5d565b620186a0841015611b4257620186a0611b31828661468a565b611b3b91906146a1565b9150611b5d565b80611b50620186a0866146a1565b611b5a919061468a565b91505b50935093915050565b60008061069e60017fc8827d3282af6f37b64c3e9e6f3ac9df286ab0bb0fccd6f8661bf19adb368b23614677565b60008381526020858152604080832073ffffffffffffffffffffffffffffffffffffffff8616845290915290205460ff166107b95760008381526020858152604080832073ffffffffffffffffffffffffffffffffffffffff8681168086529184529382902080547fffffffffffffffffffffffffffffffffffffffffffffffffffffffffffffff00166001179055815187815292830152918316918101919091527f2f8788117e7eff1d82e926ec794901d17c78024a50270940304540a733656f0d906060015b60405180910390a150505050565b36600061082061399d565b60008281526020848152604080832073ffffffffffffffffffffffffffffffffffffffff8516845290915290205460ff1661081057611cb382613b07565b604051602001611cc391906146dc565b604080517fffffffffffffffffffffffffffffffffffffffffffffffffffffffffffffffe0818403018152908290527f08c379a00000000000000000000000000000000000000000000000000000000082526109dd9160040161413a565b73ffffffffffffffffffffffffffffffffffffffff8216611d9e576040517f08c379a000000000000000000000000000000000000000000000000000000000815260206004820152601a60248201527f4552433732313a206d696e7420746f206164647265737328302900000000000060448201526064016109dd565b60008181526020849052604090205473ffffffffffffffffffffffffffffffffffffffff811615611e2b576040517f08c379a000000000000000000000000000000000000000000000000000000000815260206004820152601660248201527f4552433732313a206578697374696e6720746f6b656e0000000000000000000060448201526064016109dd565b7fdead0000000000000000000000000000000000000000000000000000000000008103611eb4576040517f08c379a000000000000000000000000000000000000000000000000000000000815260206004820152601360248201527f4552433732313a206275726e7420746f6b656e0000000000000000000000000060448201526064016109dd565b60008281526020858152604080832073ffffffffffffffffffffffffffffffffffffffff87169081905580845260018089019093528184208054909301909255518492907fddf252ad1be2c89b69c2b068fc378daa952ba7f163c4a11628f55a4df523b3ef908290a450505050565b611f308585858585611739565b73ffffffffffffffffffffffffffffffffffffffff82163b15610fe857610fe88484848460405180602001604052806000815250613c99565b73ffffffffffffffffffffffffffffffffffffffff8216611fe6576040517f08c379a000000000000000000000000000000000000000000000000000000000815260206004820152601a60248201527f4552433732313a206d696e7420746f206164647265737328302900000000000060448201526064016109dd565b805160005b81811461218957600083828151811061200657612006614619565b60209081029190910181015160008181529188905260409091205490915073ffffffffffffffffffffffffffffffffffffffff8116156120a2576040517f08c379a000000000000000000000000000000000000000000000000000000000815260206004820152601660248201527f4552433732313a206578697374696e6720746f6b656e0000000000000000000060448201526064016109dd565b7fdead000000000000000000000000000000000000000000000000000000000000810361212b576040517f08c379a000000000000000000000000000000000000000000000000000000000815260206004820152601360248201527f4552433732313a206275726e7420746f6b656e0000000000000000000000000060448201526064016109dd565b60008281526020889052604080822073ffffffffffffffffffffffffffffffffffffffff89169081905590518492907fddf252ad1be2c89b69c2b068fc378daa952ba7f163c4a11628f55a4df523b3ef908290a45050600101611feb565b5073ffffffffffffffffffffffffffffffffffffffff9092166000908152600190930160205250604090912080549091019055565b620186a08111156121fe576040517f3affc6c4000000000000000000000000000000000000000000000000000000008152600481018290526024016109dd565b81546bffffffffffffffffffffffff909116740100000000000000000000000000000000000000000273ffffffffffffffffffffffffffffffffffffffff909116179055565b60008181526020839052604081205473ffffffffffffffffffffffffffffffffffffffff81166122d0576040517f08c379a000000000000000000000000000000000000000000000000000000000815260206004820152601a60248201527f4552433732313a206e6f6e2d6578697374696e6720746f6b656e00000000000060448201526064016109dd565b805b949350505050565b600073ffffffffffffffffffffffffffffffffffffffff8216612359576040517f08c379a000000000000000000000000000000000000000000000000000000000815260206004820152601d60248201527f4552433732313a2062616c616e6365206f66206164647265737328302900000060448201526064016109dd565b5073ffffffffffffffffffffffffffffffffffffffff166000908152600191909101602052604090205490565b6040805173ffffffffffffffffffffffffffffffffffffffff8416602482015260448082018490528251808303909101815260649091019091526020810180517bffffffffffffffffffffffffffffffffffffffffffffffffffffffff167fa9059cbb00000000000000000000000000000000000000000000000000000000179052610810908490613dbf565b6000818152602085905260409020548073ffffffffffffffffffffffffffffffffffffffff168373ffffffffffffffffffffffffffffffffffffffff16146124b7576040517f08c379a000000000000000000000000000000000000000000000000000000000815260206004820152601760248201527f4552433732313a206e6f6e2d6f776e656420746f6b656e00000000000000000060448201526064016109dd565b6124c2858486613928565b61257a57740100000000000000000000000000000000000000008116151580156125145750600082815260028601602052604090205473ffffffffffffffffffffffffffffffffffffffff8581169116145b61257a576040517f08c379a000000000000000000000000000000000000000000000000000000000815260206004820152601b60248201527f4552433732313a206e6f6e2d617070726f7665642073656e646572000000000060448201526064016109dd565b6000828152602086815260408083207fdead000000000000000000000000000000000000000000000000000000000000905573ffffffffffffffffffffffffffffffffffffffff86168084526001890190925280832080547fffffffffffffffffffffffffffffffffffffffffffffffffffffffffffffffff01905551849291907fddf252ad1be2c89b69c2b068fc378daa952ba7f163c4a11628f55a4df523b3ef908390a45050505050565b612632858484611d21565b73ffffffffffffffffffffffffffffffffffffffff83163b15610fe857610fe8846000858585613c99565b612668838284611c75565b60008181526020848152604080832073ffffffffffffffffffffffffffffffffffffffff86168085529083529281902080547fffffffffffffffffffffffffffffffffffffffffffffffffffffffffffffff0016905580518481529182018390528101919091527ff6391f5c32d9c69d2a47ea670b442974b53935d1edc7fd64eb21e047a839171b9060600160405180910390a1505050565b73ffffffffffffffffffffffffffffffffffffffff81166116ba576040517f6fe1b4c800000000000000000000000000000000000000000000000000000000815260040160405180910390fd5b60606106ae61275b612a3a565b613ece565b8151815181146127cc576040517f08c379a000000000000000000000000000000000000000000000000000000000815260206004820152601b60248201527f4552433732313a20696e636f6e73697374656e7420617272617973000000000060448201526064016109dd565b60005b818114610fe85760008482815181106127ea576127ea614619565b60200260200101519050600073ffffffffffffffffffffffffffffffffffffffff168173ffffffffffffffffffffffffffffffffffffffff160361288a576040517f08c379a000000000000000000000000000000000000000000000000000000000815260206004820152601a60248201527f4552433732313a206d696e7420746f206164647265737328302900000000000060448201526064016109dd565b600084838151811061289e5761289e614619565b60209081029190910181015160008181529189905260409091205490915073ffffffffffffffffffffffffffffffffffffffff81161561293a576040517f08c379a000000000000000000000000000000000000000000000000000000000815260206004820152601660248201527f4552433732313a206578697374696e6720746f6b656e0000000000000000000060448201526064016109dd565b7fdead00000000000000000000000000000000000000000000000000000000000081036129c3576040517f08c379a000000000000000000000000000000000000000000000000000000000815260206004820152601360248201527f4552433732313a206275726e7420746f6b656e0000000000000000000000000060448201526064016109dd565b60008281526020898152604080832073ffffffffffffffffffffffffffffffffffffffff8716908190558084526001808d019093528184208054909301909255518492907fddf252ad1be2c89b69c2b068fc378daa952ba7f163c4a11628f55a4df523b3ef908290a45050508060010190506127cf565b60008061069e60017f7ea68fd2dcf1c056b94db6a0a537aa80d26fa9ab1eacd85da1ba0b61b7e7a8a5614677565b8273ffffffffffffffffffffffffffffffffffffffff168273ffffffffffffffffffffffffffffffffffffffff1603612afd576040517f08c379a000000000000000000000000000000000000000000000000000000000815260206004820152601d60248201527f4552433732313a2073656c662d617070726f76616c20666f7220616c6c00000060448201526064016109dd565b73ffffffffffffffffffffffffffffffffffffffff838116600081815260038701602090815260408083209487168084529482529182902080547fffffffffffffffffffffffffffffffffffffffffffffffffffffffffffffff001686151590811790915591519182527f17307eab39ab6107e8899845ad3d59bd9653f200f220920489ca2b5937696c31910160405180910390a350505050565b612ba58787878787611739565b73ffffffffffffffffffffffffffffffffffffffff84163b15612c0557612c058686868686868080601f016020809104026020016040519081016040528093929190818152602001838380828437600092019190915250613c9992505050565b50505050505050565b6000818152602083905260408120547fdead00000000000000000000000000000000000000000000000000000000000014610bcb565b60028301546040517ff724dad700000000000000000000000000000000000000000000000000000000815273ffffffffffffffffffffffffffffffffffffffff848116600483015260248201849052606092169063f724dad790604401600060405180830381865afa158015612cbe573d6000803e3d6000fd5b505050506040513d6000823e601f3d9081017fffffffffffffffffffffffffffffffffffffffffffffffffffffffffffffffe01682016040526122d29190810190614777565b60008381526020858152604080832073ffffffffffffffffffffffffffffffffffffffff8616845290915290205460ff16156107b95760008381526020858152604080832073ffffffffffffffffffffffffffffffffffffffff8681168086529184529382902080547fffffffffffffffffffffffffffffffffffffffffffffffffffffffffffffff00169055815187815292830152918316918101919091527ff6391f5c32d9c69d2a47ea670b442974b53935d1edc7fd64eb21e047a839171b90606001611c5c565b6000612ddb868587613928565b90508160005b818114612fe5576000858583818110612dfc57612dfc614619565b602090810292909201356000818152928c905260409092205491925081905073ffffffffffffffffffffffffffffffffffffffff168873ffffffffffffffffffffffffffffffffffffffff1614612eaf576040517f08c379a000000000000000000000000000000000000000000000000000000000815260206004820152601760248201527f4552433732313a206e6f6e2d6f776e656420746f6b656e00000000000000000060448201526064016109dd565b84612f685774010000000000000000000000000000000000000000811615158015612f025750600082815260028b01602052604090205473ffffffffffffffffffffffffffffffffffffffff8a81169116145b612f68576040517f08c379a000000000000000000000000000000000000000000000000000000000815260206004820152601b60248201527f4552433732313a206e6f6e2d617070726f7665642073656e646572000000000060448201526064016109dd565b600082815260208b905260408082207fdead00000000000000000000000000000000000000000000000000000000000090555183919073ffffffffffffffffffffffffffffffffffffffff8b16907fddf252ad1be2c89b69c2b068fc378daa952ba7f163c4a11628f55a4df523b3ef908390a45050600101612de1565b508015612c055773ffffffffffffffffffffffffffffffffffffffff8516600090815260018801602052604090208054829003905550505050505050565b825473ffffffffffffffffffffffffffffffffffffffff90811690831681146130a8576040517f08c379a000000000000000000000000000000000000000000000000000000000815260206004820152601860248201527f4f776e6572736869703a206e6f7420746865206f776e6572000000000000000060448201526064016109dd565b8173ffffffffffffffffffffffffffffffffffffffff168173ffffffffffffffffffffffffffffffffffffffff16146107b95783547fffffffffffffffffffffffff00000000000000000000000000000000000000001673ffffffffffffffffffffffffffffffffffffffff8381169182178655604051908316907f8be0079c531659141344cd1fd0a4f28419497f9722a3daafe3b4186f6b6457e090600090a350505050565b73ffffffffffffffffffffffffffffffffffffffff83166131cc576040517f08c379a000000000000000000000000000000000000000000000000000000000815260206004820152601e60248201527f4552433732313a207472616e7366657220746f2061646472657373283029000060448201526064016109dd565b60006131d9878688613928565b90508160005b8181146134435760008585838181106131fa576131fa614619565b602090810292909201356000818152928d90526040909220549192505073ffffffffffffffffffffffffffffffffffffffff8116613294576040517f08c379a000000000000000000000000000000000000000000000000000000000815260206004820152601a60248201527f4552433732313a206e6f6e2d6578697374696e6720746f6b656e00000000000060448201526064016109dd565b73ffffffffffffffffffffffffffffffffffffffff89168173ffffffffffffffffffffffffffffffffffffffff1614613329576040517f08c379a000000000000000000000000000000000000000000000000000000000815260206004820152601760248201527f4552433732313a206e6f6e2d6f776e656420746f6b656e00000000000000000060448201526064016109dd565b846133e2577401000000000000000000000000000000000000000081161515801561337c5750600082815260028c01602052604090205473ffffffffffffffffffffffffffffffffffffffff8b81169116145b6133e2576040517f08c379a000000000000000000000000000000000000000000000000000000000815260206004820152601b60248201527f4552433732313a206e6f6e2d617070726f7665642073656e646572000000000060448201526064016109dd565b600082815260208c9052604080822073ffffffffffffffffffffffffffffffffffffffff808c16918290559151859391928d16917fddf252ad1be2c89b69c2b068fc378daa952ba7f163c4a11628f55a4df523b3ef91a450506001016131df565b508473ffffffffffffffffffffffffffffffffffffffff168673ffffffffffffffffffffffffffffffffffffffff161415801561347f57508015155b15610a7f5773ffffffffffffffffffffffffffffffffffffffff808716600090815260018a016020526040808220805485900390559187168152208054820190555050505050505050565b80471015613534576040517f08c379a000000000000000000000000000000000000000000000000000000000815260206004820152601d60248201527f416464726573733a20696e73756666696369656e742062616c616e636500000060448201526064016109dd565b60008273ffffffffffffffffffffffffffffffffffffffff168260405160006040518083038185875af1925050503d806000811461358e576040519150601f19603f3d011682016040523d82523d6000602084013e613593565b606091505b5050905080610810576040517f08c379a000000000000000000000000000000000000000000000000000000000815260206004820152603a60248201527f416464726573733a20756e61626c6520746f2073656e642076616c75652c207260448201527f6563697069656e74206d6179206861766520726576657274656400000000000060648201526084016109dd565b606081600001805461363590614837565b80601f016020809104026020016040519081016040528092919081815260200182805461366190614837565b80156136ae5780601f10613683576101008083540402835291602001916136ae565b820191906000526020600020905b81548152906001019060200180831161369157829003601f168201915b50505050509050919050565b815473ffffffffffffffffffffffffffffffffffffffff1680158015906136f8575060008173ffffffffffffffffffffffffffffffffffffffff163b115b15610810576040517fc617113400000000000000000000000000000000000000000000000000000000815230600482015273ffffffffffffffffffffffffffffffffffffffff838116602483015282169063c617113490604401602060405180830381865afa15801561376f573d6000803e3d6000fd5b505050506040513d601f19601f82011682018060405250810190613793919061488a565b610810576040517fede71dcc00000000000000000000000000000000000000000000000000000000815273ffffffffffffffffffffffffffffffffffffffff831660048201526024016109dd565b6000333214806137f15750601836105b156137fb57503390565b7fffffffffffffffffffffffffffffffffffffffffffffffffffffffffffffffec36013560601c7f000000000000000000000000000000000000000000000000000000000000000073ffffffffffffffffffffffffffffffffffffffff1633148061391757506040517f8929a8ca00000000000000000000000000000000000000000000000000000000815273ffffffffffffffffffffffffffffffffffffffff82811660048301523360248301527f00000000000000000000000000000000000000000000000000000000000000001690638929a8ca90604401602060405180830381865afa1580156138f3573d6000803e3d6000fd5b505050506040513d601f19601f82011682018060405250810190613917919061488a565b1561392157919050565b3391505090565b60008173ffffffffffffffffffffffffffffffffffffffff168373ffffffffffffffffffffffffffffffffffffffff1614806122d257505073ffffffffffffffffffffffffffffffffffffffff9182166000908152600393909301602090815260408085209290931684525290205460ff1690565b366000333214806139ae5750601836105b156139bc5750600091369150565b3373ffffffffffffffffffffffffffffffffffffffff7f0000000000000000000000000000000000000000000000000000000000000000161480613af1575073ffffffffffffffffffffffffffffffffffffffff7f000000000000000000000000000000000000000000000000000000000000000016638929a8ca367fffffffffffffffffffffffffffffffffffffffffffffffffffffffffffffffec013560601c6040517fffffffff0000000000000000000000000000000000000000000000000000000060e084901b16815273ffffffffffffffffffffffffffffffffffffffff9091166004820152336024820152604401602060405180830381865afa158015613acd573d6000803e3d6000fd5b505050506040513d601f19601f82011682018060405250810190613af1919061488a565b15613afe57610820613edf565b50600091369150565b60606000829003613b2657505060408051602081019091526000815290565b600082604051602001613b3b91815260200190565b604080517fffffffffffffffffffffffffffffffffffffffffffffffffffffffffffffffe08184030181529190529050601f5b818181518110613b8057613b80614619565b01602001517fff0000000000000000000000000000000000000000000000000000000000000016600003613bd5577fffffffffffffffffffffffffffffffffffffffffffffffffffffffffffffffff01613b6e565b60008160010167ffffffffffffffff811115613bf357613bf3614748565b6040519080825280601f01601f191660200182016040528015613c1d576020820181803683370190505b50905060005b828111613c9057838181518110613c3c57613c3c614619565b602001015160f81c60f81b828281518110613c5957613c59614619565b60200101907effffffffffffffffffffffffffffffffffffffffffffffffffffffffffffff1916908160001a905350600101613c23565b50949350505050565b6040517f150b7a02000000000000000000000000000000000000000000000000000000008082529073ffffffffffffffffffffffffffffffffffffffff85169063150b7a0290613cf39089908990889088906004016148a7565b6020604051808303816000875af1158015613d12573d6000803e3d6000fd5b505050506040513d601f19601f82011682018060405250810190613d3691906148f0565b7fffffffff000000000000000000000000000000000000000000000000000000001614610fe8576040517f08c379a000000000000000000000000000000000000000000000000000000000815260206004820152601e60248201527f4552433732313a2073616665207472616e736665722072656a6563746564000060448201526064016109dd565b6000613e21826040518060400160405280602081526020017f5361666545524332303a206c6f772d6c6576656c2063616c6c206661696c65648152508573ffffffffffffffffffffffffffffffffffffffff16613f109092919063ffffffff16565b9050805160001480613e42575080806020019051810190613e42919061488a565b610810576040517f08c379a000000000000000000000000000000000000000000000000000000000815260206004820152602a60248201527f5361666545524332303a204552433230206f7065726174696f6e20646964206e60448201527f6f7420737563636565640000000000000000000000000000000000000000000060648201526084016109dd565b606081600101805461363590614837565b3660006108207fffffffffffffffffffffffffffffffffffffffffffffffffffffffffffffffec830182848161490d565b60606122d28484600085856000808673ffffffffffffffffffffffffffffffffffffffff168587604051613f449190614937565b60006040518083038185875af1925050503d8060008114613f81576040519150601f19603f3d011682016040523d82523d6000602084013e613f86565b606091505b5091509150613f9787838387613fa2565b979650505050505050565b606083156140385782516000036140315773ffffffffffffffffffffffffffffffffffffffff85163b614031576040517f08c379a000000000000000000000000000000000000000000000000000000000815260206004820152601d60248201527f416464726573733a2063616c6c20746f206e6f6e2d636f6e747261637400000060448201526064016109dd565b50816122d2565b6122d2838381511561404d5781518083602001fd5b806040517f08c379a00000000000000000000000000000000000000000000000000000000081526004016109dd919061413a565b7fffffffff000000000000000000000000000000000000000000000000000000008116811461077e57600080fd5b6000602082840312156140c157600080fd5b8135610bcb81614081565b60005b838110156140e75781810151838201526020016140cf565b50506000910152565b600081518084526141088160208601602086016140cc565b601f017fffffffffffffffffffffffffffffffffffffffffffffffffffffffffffffffe0169290920160200192915050565b602081526000610bcb60208301846140f0565b60006020828403121561415f57600080fd5b5035919050565b73ffffffffffffffffffffffffffffffffffffffff8116811461077e57600080fd5b6000806040838503121561419b57600080fd5b82356141a681614166565b946020939093013593505050565b6000602082840312156141c657600080fd5b8135610bcb81614166565b6000806000606084860312156141e657600080fd5b83356141f181614166565b9250602084013561420181614166565b929592945050506040919091013590565b6000806040838503121561422557600080fd5b50508035926020909101359150565b6000806040838503121561424757600080fd5b82359150602083013561425981614166565b809150509250929050565b60208152816020820152818360408301376000818301604090810191909152601f9092017fffffffffffffffffffffffffffffffffffffffffffffffffffffffffffffffe0160101919050565b60008083601f8401126142c357600080fd5b50813567ffffffffffffffff8111156142db57600080fd5b6020830191508360208260051b85010111156107db57600080fd5b60008060006040848603121561430b57600080fd5b833561431681614166565b9250602084013567ffffffffffffffff81111561433257600080fd5b61433e868287016142b1565b9497909650939450505050565b6000806000806000806060878903121561436457600080fd5b863567ffffffffffffffff8082111561437c57600080fd5b6143888a838b016142b1565b909850965060208901359150808211156143a157600080fd5b6143ad8a838b016142b1565b909650945060408901359150808211156143c657600080fd5b506143d389828a016142b1565b979a9699509497509295939492505050565b60008083601f8401126143f757600080fd5b50813567ffffffffffffffff81111561440f57600080fd5b6020830191508360208285010111156107db57600080fd5b6000806000806060858703121561443d57600080fd5b843561444881614166565b935060208501359250604085013567ffffffffffffffff81111561446b57600080fd5b614477878288016143e5565b95989497509550505050565b6000806000806040858703121561449957600080fd5b843567ffffffffffffffff808211156144b157600080fd5b6144bd888389016142b1565b909650945060208701359150808211156144d657600080fd5b50614477878288016142b1565b801515811461077e57600080fd5b6000806040838503121561450457600080fd5b823561450f81614166565b91506020830135614259816144e3565b60008060008060006080868803121561453757600080fd5b853561454281614166565b9450602086013561455281614166565b935060408601359250606086013567ffffffffffffffff81111561457557600080fd5b614581888289016143e5565b969995985093965092949392505050565b600080604083850312156145a557600080fd5b82356145b081614166565b9150602083013561425981614166565b600080600080606085870312156145d657600080fd5b84356145e181614166565b935060208501356145f181614166565b9250604085013567ffffffffffffffff81111561460d57600080fd5b614477878288016142b1565b7f4e487b7100000000000000000000000000000000000000000000000000000000600052603260045260246000fd5b7f4e487b7100000000000000000000000000000000000000000000000000000000600052601160045260246000fd5b8181038181111561069e5761069e614648565b808202811582820484141761069e5761069e614648565b6000826146d7577f4e487b7100000000000000000000000000000000000000000000000000000000600052601260045260246000fd5b500490565b7f416363657373436f6e74726f6c3a206d697373696e67202700000000000000008152600082516147148160188501602087016140cc565b7f2720726f6c6500000000000000000000000000000000000000000000000000006018939091019283015250601e01919050565b7f4e487b7100000000000000000000000000000000000000000000000000000000600052604160045260246000fd5b60006020828403121561478957600080fd5b815167ffffffffffffffff808211156147a157600080fd5b818401915084601f8301126147b557600080fd5b8151818111156147c7576147c7614748565b604051601f82017fffffffffffffffffffffffffffffffffffffffffffffffffffffffffffffffe0908116603f0116810190838211818310171561480d5761480d614748565b8160405282815287602084870101111561482657600080fd5b613f978360208301602088016140cc565b600181811c9082168061484b57607f821691505b602082108103614884577f4e487b7100000000000000000000000000000000000000000000000000000000600052602260045260246000fd5b50919050565b60006020828403121561489c57600080fd5b8151610bcb816144e3565b600073ffffffffffffffffffffffffffffffffffffffff8087168352808616602084015250836040830152608060608301526148e660808301846140f0565b9695505050505050565b60006020828403121561490257600080fd5b8151610bcb81614081565b6000808585111561491d57600080fd5b8386111561492a57600080fd5b5050820193919092039150565b600082516149498184602087016140cc565b919091019291505056fea2646970667358221220e6a965754fc3b741ce3e1a095481c7095d9ab3290fda286a9cb8115e3d438c1b64736f6c63430008130033",
  "linkReferences": {},
  "deployedLinkReferences": {}
}