{
  "_format": "hh-sol-artifact-1",
  "contractName": "ERC1155DeliverableFacetMock",
  "sourceName": "contracts/mocks/token/ERC1155/facets/ERC1155DeliverableFacetMock.sol",
  "abi": [
    {
      "inputs": [
        {
          "internalType": "contract IForwarderRegistry",
          "name": "forwarderRegistry",
          "type": "address"
        }
      ],
      "stateMutability": "nonpayable",
      "type": "constructor"
    },
    {
      "inputs": [
        {
          "internalType": "address",
          "name": "recipient",
          "type": "address"
        },
        {
          "internalType": "uint256",
          "name": "id",
          "type": "uint256"
        },
        {
          "internalType": "uint256",
          "name": "balance",
          "type": "uint256"
        },
        {
          "internalType": "uint256",
          "name": "value",
          "type": "uint256"
        }
      ],
      "name": "ERC1155BalanceOverflow",
      "type": "error"
    },
    {
      "inputs": [],
      "name": "ERC1155MintToAddressZero",
      "type": "error"
    },
    {
      "inputs": [
        {
          "internalType": "address",
          "name": "recipient",
          "type": "address"
        },
        {
          "internalType": "uint256",
          "name": "id",
          "type": "uint256"
        },
        {
          "internalType": "uint256",
          "name": "value",
          "type": "uint256"
        }
      ],
      "name": "ERC1155SafeTransferRejected",
      "type": "error"
    },
    {
      "inputs": [],
      "name": "IllegalInterfaceId",
      "type": "error"
    },
    {
      "inputs": [],
      "name": "InconsistentArrayLengths",
      "type": "error"
    },
    {
      "inputs": [
        {
          "internalType": "address",
          "name": "account",
          "type": "address"
        }
      ],
      "name": "NotProxyAdmin",
      "type": "error"
    },
    {
      "inputs": [
        {
          "internalType": "bytes32",
          "name": "role",
          "type": "bytes32"
        },
        {
          "internalType": "address",
          "name": "account",
          "type": "address"
        }
      ],
      "name": "NotRoleHolder",
      "type": "error"
    },
    {
      "anonymous": false,
      "inputs": [
        {
          "indexed": true,
          "internalType": "address",
          "name": "owner",
          "type": "address"
        },
        {
          "indexed": true,
          "internalType": "address",
          "name": "operator",
          "type": "address"
        },
        {
          "indexed": false,
          "internalType": "bool",
          "name": "approved",
          "type": "bool"
        }
      ],
      "name": "ApprovalForAll",
      "type": "event"
    },
    {
      "anonymous": false,
      "inputs": [
        {
          "indexed": true,
          "internalType": "address",
          "name": "operator",
          "type": "address"
        },
        {
          "indexed": true,
          "internalType": "address",
          "name": "from",
          "type": "address"
        },
        {
          "indexed": true,
          "internalType": "address",
          "name": "to",
          "type": "address"
        },
        {
          "indexed": false,
          "internalType": "uint256[]",
          "name": "ids",
          "type": "uint256[]"
        },
        {
          "indexed": false,
          "internalType": "uint256[]",
          "name": "values",
          "type": "uint256[]"
        }
      ],
      "name": "TransferBatch",
      "type": "event"
    },
    {
      "anonymous": false,
      "inputs": [
        {
          "indexed": true,
          "internalType": "address",
          "name": "operator",
          "type": "address"
        },
        {
          "indexed": true,
          "internalType": "address",
          "name": "from",
          "type": "address"
        },
        {
          "indexed": true,
          "internalType": "address",
          "name": "to",
          "type": "address"
        },
        {
          "indexed": false,
          "internalType": "uint256",
          "name": "id",
          "type": "uint256"
        },
        {
          "indexed": false,
          "internalType": "uint256",
          "name": "value",
          "type": "uint256"
        }
      ],
      "name": "TransferSingle",
      "type": "event"
    },
    {
      "anonymous": false,
      "inputs": [
        {
          "indexed": false,
          "internalType": "string",
          "name": "value",
          "type": "string"
        },
        {
          "indexed": true,
          "internalType": "uint256",
          "name": "id",
          "type": "uint256"
        }
      ],
      "name": "URI",
      "type": "event"
    },
    {
      "inputs": [],
      "name": "__msgData",
      "outputs": [
        {
          "internalType": "bytes",
          "name": "",
          "type": "bytes"
        }
      ],
      "stateMutability": "view",
      "type": "function"
    },
    {
      "inputs": [],
      "name": "initERC1155DeliverableStorage",
      "outputs": [],
      "stateMutability": "nonpayable",
      "type": "function"
    },
    {
      "inputs": [
        {
          "internalType": "address[]",
          "name": "recipients",
          "type": "address[]"
        },
        {
          "internalType": "uint256[]",
          "name": "ids",
          "type": "uint256[]"
        },
        {
          "internalType": "uint256[]",
          "name": "values",
          "type": "uint256[]"
        },
        {
          "internalType": "bytes",
          "name": "data",
          "type": "bytes"
        }
      ],
      "name": "safeDeliver",
      "outputs": [],
      "stateMutability": "nonpayable",
      "type": "function"
    }
  ],
  "bytecode": "0x60a060405234801561000f575f80fd5b50604051610f09380380610f0983398101604081905261002e9161003f565b6001600160a01b031660805261006c565b5f6020828403121561004f575f80fd5b81516001600160a01b0381168114610065575f80fd5b9392505050565b608051610e706100995f395f81816104b3015281816104f10152818161062501526106ad0152610e705ff3fe608060405234801561000f575f80fd5b506004361061003f575f3560e01c806331e66e1e14610043578063ba92ca2a14610062578063e8ab9ccc1461006c575b5f80fd5b61004b61007f565b604051610059929190610b2f565b60405180910390f35b61006a610091565b005b61006a61007a366004610bc3565b6100b4565b365f6100896101db565b915091509091565b6100aa61009c6101e5565b6100a46101f3565b90610226565b6100b261029a565b565b5f6100bd6101e5565b90506100f37f6d696e7465720000000000000000000000000000000000000000000000000000826100ec6102cf565b91906102fc565b6101d0818a8a808060200260200160405190810160405280939291908181526020018383602002808284375f9201919091525050604080516020808e0282810182019093528d82529093508d92508c9182918501908490808284375f9201919091525050604080516020808d0282810182019093528c82529093508c92508b9182918501908490808284375f9201919091525050604080516020601f8c018190048102820181019092528a815292508a91508990819084018382808284375f920191909152506101c69250610386915050565b94939291906103b3565b505050505050505050565b365f61008961047e565b5f6101ee6105e3565b905090565b5f8061022060017fb53127684a568b3173ae13b9f8a6016e243e63b6e8ee1178d6a717850b5d6104610ca8565b92915050565b815473ffffffffffffffffffffffffffffffffffffffff828116911614610296576040517f673a31a100000000000000000000000000000000000000000000000000000000815273ffffffffffffffffffffffffffffffffffffffff821660048201526024015b60405180910390fd5b5050565b6100b27fe8ab9ccc0000000000000000000000000000000000000000000000000000000060016102c8610727565b9190610754565b5f8061022060017fc8827d3282af6f37b64c3e9e6f3ac9df286ab0bb0fccd6f8661bf19adb368b23610ca8565b5f8281526020848152604080832073ffffffffffffffffffffffffffffffffffffffff8516845290915290205460ff16610381576040517f7aa728820000000000000000000000000000000000000000000000000000000081526004810183905273ffffffffffffffffffffffffffffffffffffffff8216602482015260440161028d565b505050565b5f8061022060017f5ccf5846fa27a68fafc8e588671a68f5e67c2f9b56af4263806a4d71735e8613610ca8565b83518351811415806103c6575082518114155b156103fd576040517f6582533600000000000000000000000000000000000000000000000000000000815260040160405180910390fd5b5f5b8181146104745761046c8787838151811061041c5761041c610ce0565b602002602001015187848151811061043657610436610ce0565b602002602001015187858151811061045057610450610ce0565b6020026020010151878d61082f9095949392919063ffffffff16565b6001016103ff565b5050505050505050565b365f3332148061048e5750601836105b1561049b57505f91369150565b3373ffffffffffffffffffffffffffffffffffffffff7f00000000000000000000000000000000000000000000000000000000000000001614806105ce575073ffffffffffffffffffffffffffffffffffffffff7f000000000000000000000000000000000000000000000000000000000000000016638929a8ca367fffffffffffffffffffffffffffffffffffffffffffffffffffffffffffffffec013560601c6040517fffffffff0000000000000000000000000000000000000000000000000000000060e084901b16815273ffffffffffffffffffffffffffffffffffffffff9091166004820152336024820152604401602060405180830381865afa1580156105aa573d5f803e3d5ffd5b505050506040513d601f19601f820116820180604052508101906105ce9190610d0d565b156105db57610089610913565b505f91369150565b5f333214806105f25750601836105b156105fc57503390565b7fffffffffffffffffffffffffffffffffffffffffffffffffffffffffffffffec36013560601c7f000000000000000000000000000000000000000000000000000000000000000073ffffffffffffffffffffffffffffffffffffffff1633148061071657506040517f8929a8ca00000000000000000000000000000000000000000000000000000000815273ffffffffffffffffffffffffffffffffffffffff82811660048301523360248301527f00000000000000000000000000000000000000000000000000000000000000001690638929a8ca90604401602060405180830381865afa1580156106f2573d5f803e3d5ffd5b505050506040513d601f19601f820116820180604052508101906107169190610d0d565b1561072057919050565b3391505090565b5f8061022060017fca9d3e17f264b0f3984e2634e94adb37fa3e6a8103f06aeae6fa59e21c769f5e610ca8565b7c01000000000000000000000000000000000000000000000000000000007fffffffff000000000000000000000000000000000000000000000000000000008316016107cc576040517f72c683bb00000000000000000000000000000000000000000000000000000000815260040160405180910390fd5b7fffffffff00000000000000000000000000000000000000000000000000000000919091165f908152602092909252604090912080547fffffffffffffffffffffffffffffffffffffffffffffffffffffffffffffff0016911515919091179055565b73ffffffffffffffffffffffffffffffffffffffff841661087c576040517f021149bd00000000000000000000000000000000000000000000000000000000815260040160405180910390fd5b61088886858585610943565b604080518481526020810184905273ffffffffffffffffffffffffffffffffffffffff808716925f92918916917fc3d58168c5ae7397731d063d5bbf3d657854427343f4c083240f7aacaa2d0f62910160405180910390a473ffffffffffffffffffffffffffffffffffffffff84163b1561090b5761090b855f86868686610a14565b505050505050565b365f6100897fffffffffffffffffffffffffffffffffffffffffffffffffffffffffffffffec8301828481610d33565b8015610a0e575f8281526020858152604080832073ffffffffffffffffffffffffffffffffffffffff871684529091529020548181018181116109df576040517f42fb00bc00000000000000000000000000000000000000000000000000000000815273ffffffffffffffffffffffffffffffffffffffff8616600482015260248101859052604481018390526064810184905260840161028d565b5f8481526020878152604080832073ffffffffffffffffffffffffffffffffffffffff89168452909152902055505b50505050565b6040517ff23a6e61000000000000000000000000000000000000000000000000000000008082529073ffffffffffffffffffffffffffffffffffffffff86169063f23a6e6190610a70908a908a90899089908990600401610d5a565b6020604051808303815f875af1158015610a8c573d5f803e3d5ffd5b505050506040513d601f19601f82011682018060405250810190610ab09190610dfb565b7fffffffff00000000000000000000000000000000000000000000000000000000161461090b576040517f40f39d3800000000000000000000000000000000000000000000000000000000815273ffffffffffffffffffffffffffffffffffffffff85166004820152602481018490526044810183905260640161028d565b60208152816020820152818360408301375f818301604090810191909152601f9092017fffffffffffffffffffffffffffffffffffffffffffffffffffffffffffffffe0160101919050565b5f8083601f840112610b8b575f80fd5b50813567ffffffffffffffff811115610ba2575f80fd5b6020830191508360208260051b8501011115610bbc575f80fd5b9250929050565b5f805f805f805f806080898b031215610bda575f80fd5b883567ffffffffffffffff80821115610bf1575f80fd5b610bfd8c838d01610b7b565b909a50985060208b0135915080821115610c15575f80fd5b610c218c838d01610b7b565b909850965060408b0135915080821115610c39575f80fd5b610c458c838d01610b7b565b909650945060608b0135915080821115610c5d575f80fd5b818b0191508b601f830112610c70575f80fd5b813581811115610c7e575f80fd5b8c6020828501011115610c8f575f80fd5b6020830194508093505050509295985092959890939650565b81810381811115610220577f4e487b71000000000000000000000000000000000000000000000000000000005f52601160045260245ffd5b7f4e487b71000000000000000000000000000000000000000000000000000000005f52603260045260245ffd5b5f60208284031215610d1d575f80fd5b81518015158114610d2c575f80fd5b9392505050565b5f8085851115610d41575f80fd5b83861115610d4d575f80fd5b5050820193919092039150565b5f73ffffffffffffffffffffffffffffffffffffffff808816835260208188168185015286604085015285606085015260a06080850152845191508160a08501525f5b82811015610db95785810182015185820160c001528101610d9d565b50505f60c0828501015260c07fffffffffffffffffffffffffffffffffffffffffffffffffffffffffffffffe0601f8301168401019150509695505050505050565b5f60208284031215610e0b575f80fd5b81517fffffffff0000000000000000000000000000000000000000000000000000000081168114610d2c575f80fdfea264697066735822122048602a636c54caca379fca403595bb5cc0bf15b23d3dabceda2848df7381c18964736f6c63430008150033",
  "linkReferences": {},
  "deployedLinkReferences": {}
}