{
  "_format": "hh-sol-artifact-1",
  "contractName": "ERC1155DeliverableFacetMock",
  "sourceName": "contracts/mocks/token/ERC1155/facets/ERC1155DeliverableFacetMock.sol",
  "abi": [
    {
      "inputs": [
        {
          "internalType": "contract IForwarderRegistry",
          "name": "forwarderRegistry",
          "type": "address"
        }
      ],
      "stateMutability": "nonpayable",
      "type": "constructor"
    },
    {
      "inputs": [
        {
          "internalType": "address",
          "name": "recipient",
          "type": "address"
        },
        {
          "internalType": "uint256",
          "name": "id",
          "type": "uint256"
        },
        {
          "internalType": "uint256",
          "name": "balance",
          "type": "uint256"
        },
        {
          "internalType": "uint256",
          "name": "value",
          "type": "uint256"
        }
      ],
      "name": "ERC1155BalanceOverflow",
      "type": "error"
    },
    {
      "inputs": [],
      "name": "ERC1155MintToAddressZero",
      "type": "error"
    },
    {
      "inputs": [
        {
          "internalType": "address",
          "name": "recipient",
          "type": "address"
        },
        {
          "internalType": "uint256",
          "name": "id",
          "type": "uint256"
        },
        {
          "internalType": "uint256",
          "name": "value",
          "type": "uint256"
        }
      ],
      "name": "ERC1155SafeTransferRejected",
      "type": "error"
    },
    {
      "inputs": [],
      "name": "IllegalInterfaceId",
      "type": "error"
    },
    {
      "inputs": [],
      "name": "InconsistentArrayLengths",
      "type": "error"
    },
    {
      "inputs": [
        {
          "internalType": "address",
          "name": "account",
          "type": "address"
        }
      ],
      "name": "NotProxyAdmin",
      "type": "error"
    },
    {
      "inputs": [
        {
          "internalType": "bytes32",
          "name": "role",
          "type": "bytes32"
        },
        {
          "internalType": "address",
          "name": "account",
          "type": "address"
        }
      ],
      "name": "NotRoleHolder",
      "type": "error"
    },
    {
      "anonymous": false,
      "inputs": [
        {
          "indexed": true,
          "internalType": "address",
          "name": "operator",
          "type": "address"
        },
        {
          "indexed": true,
          "internalType": "address",
          "name": "from",
          "type": "address"
        },
        {
          "indexed": true,
          "internalType": "address",
          "name": "to",
          "type": "address"
        },
        {
          "indexed": false,
          "internalType": "uint256",
          "name": "id",
          "type": "uint256"
        },
        {
          "indexed": false,
          "internalType": "uint256",
          "name": "value",
          "type": "uint256"
        }
      ],
      "name": "TransferSingle",
      "type": "event"
    },
    {
      "inputs": [],
      "name": "__msgData",
      "outputs": [
        {
          "internalType": "bytes",
          "name": "",
          "type": "bytes"
        }
      ],
      "stateMutability": "view",
      "type": "function"
    },
    {
      "inputs": [],
      "name": "initERC1155DeliverableStorage",
      "outputs": [],
      "stateMutability": "nonpayable",
      "type": "function"
    },
    {
      "inputs": [
        {
          "internalType": "address[]",
          "name": "recipients",
          "type": "address[]"
        },
        {
          "internalType": "uint256[]",
          "name": "ids",
          "type": "uint256[]"
        },
        {
          "internalType": "uint256[]",
          "name": "values",
          "type": "uint256[]"
        },
        {
          "internalType": "bytes",
          "name": "data",
          "type": "bytes"
        }
      ],
      "name": "safeDeliver",
      "outputs": [],
      "stateMutability": "nonpayable",
      "type": "function"
    }
  ],
  "bytecode": "0x60a060405234801561001057600080fd5b50604051610f55380380610f5583398101604081905261002f91610040565b6001600160a01b0316608052610070565b60006020828403121561005257600080fd5b81516001600160a01b038116811461006957600080fd5b9392505050565b608051610eb56100a0600039600081816104c6015281816105040152818161063c01526106c40152610eb56000f3fe608060405234801561001057600080fd5b50600436106100415760003560e01c806331e66e1e14610046578063ba92ca2a14610065578063e8ab9ccc1461006f575b600080fd5b61004e610082565b60405161005c929190610b52565b60405180910390f35b61006d610095565b005b61006d61007d366004610beb565b6100b8565b36600061008d6101e4565b915091509091565b6100ae6100a06101ef565b6100a86101fe565b90610232565b6100b66102a6565b565b60006100c26101ef565b90506100f87f6d696e7465720000000000000000000000000000000000000000000000000000826100f16102db565b9190610309565b6101d9818a8a8080602002602001604051908101604052809392919081815260200183836020028082843760009201919091525050604080516020808e0282810182019093528d82529093508d92508c91829185019084908082843760009201919091525050604080516020808d0282810182019093528c82529093508c92508b91829185019084908082843760009201919091525050604080516020601f8c018190048102820181019092528a815292508a91508990819084018382808284376000920191909152506101cf9250610394915050565b94939291906103c2565b505050505050505050565b36600061008d61048f565b60006101f96105f9565b905090565b60008061022c60017fb53127684a568b3173ae13b9f8a6016e243e63b6e8ee1178d6a717850b5d6104610cdc565b92915050565b815473ffffffffffffffffffffffffffffffffffffffff8281169116146102a2576040517f673a31a100000000000000000000000000000000000000000000000000000000815273ffffffffffffffffffffffffffffffffffffffff821660048201526024015b60405180910390fd5b5050565b6100b67fe8ab9ccc0000000000000000000000000000000000000000000000000000000060016102d4610740565b919061076e565b60008061022c60017fc8827d3282af6f37b64c3e9e6f3ac9df286ab0bb0fccd6f8661bf19adb368b23610cdc565b60008281526020848152604080832073ffffffffffffffffffffffffffffffffffffffff8516845290915290205460ff1661038f576040517f7aa728820000000000000000000000000000000000000000000000000000000081526004810183905273ffffffffffffffffffffffffffffffffffffffff82166024820152604401610299565b505050565b60008061022c60017f5ccf5846fa27a68fafc8e588671a68f5e67c2f9b56af4263806a4d71735e8613610cdc565b83518351811415806103d5575082518114155b1561040c576040517f6582533600000000000000000000000000000000000000000000000000000000815260040160405180910390fd5b60005b818110156104855761047d8787838151811061042d5761042d610d16565b602002602001015187848151811061044757610447610d16565b602002602001015187858151811061046157610461610d16565b6020026020010151878d61084a9095949392919063ffffffff16565b60010161040f565b5050505050505050565b366000333214806104a05750601836105b156104ae5750600091369150565b3373ffffffffffffffffffffffffffffffffffffffff7f00000000000000000000000000000000000000000000000000000000000000001614806105e3575073ffffffffffffffffffffffffffffffffffffffff7f000000000000000000000000000000000000000000000000000000000000000016638929a8ca367fffffffffffffffffffffffffffffffffffffffffffffffffffffffffffffffec013560601c6040517fffffffff0000000000000000000000000000000000000000000000000000000060e084901b16815273ffffffffffffffffffffffffffffffffffffffff9091166004820152336024820152604401602060405180830381865afa1580156105bf573d6000803e3d6000fd5b505050506040513d601f19601f820116820180604052508101906105e39190610d45565b156105f05761008d610930565b50600091369150565b6000333214806106095750601836105b1561061357503390565b7fffffffffffffffffffffffffffffffffffffffffffffffffffffffffffffffec36013560601c7f000000000000000000000000000000000000000000000000000000000000000073ffffffffffffffffffffffffffffffffffffffff1633148061072f57506040517f8929a8ca00000000000000000000000000000000000000000000000000000000815273ffffffffffffffffffffffffffffffffffffffff82811660048301523360248301527f00000000000000000000000000000000000000000000000000000000000000001690638929a8ca90604401602060405180830381865afa15801561070b573d6000803e3d6000fd5b505050506040513d601f19601f8201168201806040525081019061072f9190610d45565b1561073957919050565b3391505090565b60008061022c60017fca9d3e17f264b0f3984e2634e94adb37fa3e6a8103f06aeae6fa59e21c769f5e610cdc565b7c01000000000000000000000000000000000000000000000000000000007fffffffff000000000000000000000000000000000000000000000000000000008316016107e6576040517f72c683bb00000000000000000000000000000000000000000000000000000000815260040160405180910390fd5b7fffffffff00000000000000000000000000000000000000000000000000000000919091166000908152602092909252604090912080547fffffffffffffffffffffffffffffffffffffffffffffffffffffffffffffff0016911515919091179055565b73ffffffffffffffffffffffffffffffffffffffff8416610897576040517f021149bd00000000000000000000000000000000000000000000000000000000815260040160405180910390fd5b6108a386858585610961565b604080518481526020810184905273ffffffffffffffffffffffffffffffffffffffff80871692600092918916917fc3d58168c5ae7397731d063d5bbf3d657854427343f4c083240f7aacaa2d0f62910160405180910390a473ffffffffffffffffffffffffffffffffffffffff84163b156109285761092885600086868686610a34565b505050505050565b36600061008d7fffffffffffffffffffffffffffffffffffffffffffffffffffffffffffffffec8301828481610d6e565b8015610a2e5760008281526020858152604080832073ffffffffffffffffffffffffffffffffffffffff871684529091529020548181018181116109fe576040517f42fb00bc00000000000000000000000000000000000000000000000000000000815273ffffffffffffffffffffffffffffffffffffffff86166004820152602481018590526044810183905260648101849052608401610299565b60008481526020878152604080832073ffffffffffffffffffffffffffffffffffffffff89168452909152902055505b50505050565b6040517ff23a6e61000000000000000000000000000000000000000000000000000000008082529073ffffffffffffffffffffffffffffffffffffffff86169063f23a6e6190610a90908a908a90899089908990600401610d98565b6020604051808303816000875af1158015610aaf573d6000803e3d6000fd5b505050506040513d601f19601f82011682018060405250810190610ad39190610e3d565b7fffffffff000000000000000000000000000000000000000000000000000000001614610928576040517f40f39d3800000000000000000000000000000000000000000000000000000000815273ffffffffffffffffffffffffffffffffffffffff851660048201526024810184905260448101839052606401610299565b60208152816020820152818360408301376000818301604090810191909152601f9092017fffffffffffffffffffffffffffffffffffffffffffffffffffffffffffffffe0160101919050565b60008083601f840112610bb157600080fd5b50813567ffffffffffffffff811115610bc957600080fd5b6020830191508360208260051b8501011115610be457600080fd5b9250929050565b6000806000806000806000806080898b031215610c0757600080fd5b883567ffffffffffffffff80821115610c1f57600080fd5b610c2b8c838d01610b9f565b909a50985060208b0135915080821115610c4457600080fd5b610c508c838d01610b9f565b909850965060408b0135915080821115610c6957600080fd5b610c758c838d01610b9f565b909650945060608b0135915080821115610c8e57600080fd5b818b0191508b601f830112610ca257600080fd5b813581811115610cb157600080fd5b8c6020828501011115610cc357600080fd5b6020830194508093505050509295985092959890939650565b8181038181111561022c577f4e487b7100000000000000000000000000000000000000000000000000000000600052601160045260246000fd5b7f4e487b7100000000000000000000000000000000000000000000000000000000600052603260045260246000fd5b600060208284031215610d5757600080fd5b81518015158114610d6757600080fd5b9392505050565b60008085851115610d7e57600080fd5b83861115610d8b57600080fd5b5050820193919092039150565b600073ffffffffffffffffffffffffffffffffffffffff80881683526020818816602085015286604085015285606085015260a06080850152845191508160a085015260005b82811015610dfa5785810182015185820160c001528101610dde565b5050600060c0828501015260c07fffffffffffffffffffffffffffffffffffffffffffffffffffffffffffffffe0601f8301168401019150509695505050505050565b600060208284031215610e4f57600080fd5b81517fffffffff0000000000000000000000000000000000000000000000000000000081168114610d6757600080fdfea264697066735822122026ed355b277a7781fabafad8732331ad53f57a73ba76e5c30e037e9c649122b064736f6c63430008160033",
  "linkReferences": {},
  "deployedLinkReferences": {}
}