{
  "_format": "hh-sol-artifact-1",
  "contractName": "ERC721MetadataWithBaseURIFacetMock",
  "sourceName": "contracts/mocks/token/ERC721/ERC721MetadataWithBaseURIFacetMock.sol",
  "abi": [
    {
      "inputs": [
        {
          "internalType": "contract IForwarderRegistry",
          "name": "forwarderRegistry",
          "type": "address"
        }
      ],
      "stateMutability": "nonpayable",
      "type": "constructor"
    },
    {
      "anonymous": false,
      "inputs": [
        {
          "indexed": false,
          "internalType": "string",
          "name": "baseMetadataURI",
          "type": "string"
        }
      ],
      "name": "BaseMetadataURISet",
      "type": "event"
    },
    {
      "inputs": [],
      "name": "__msgData",
      "outputs": [
        {
          "internalType": "bytes",
          "name": "",
          "type": "bytes"
        }
      ],
      "stateMutability": "view",
      "type": "function"
    },
    {
      "inputs": [],
      "name": "baseMetadataURI",
      "outputs": [
        {
          "internalType": "string",
          "name": "baseURI",
          "type": "string"
        }
      ],
      "stateMutability": "view",
      "type": "function"
    },
    {
      "inputs": [
        {
          "internalType": "string",
          "name": "tokenName",
          "type": "string"
        },
        {
          "internalType": "string",
          "name": "tokenSymbol",
          "type": "string"
        },
        {
          "internalType": "string",
          "name": "baseURI",
          "type": "string"
        }
      ],
      "name": "initERC721MetadataStorage",
      "outputs": [],
      "stateMutability": "nonpayable",
      "type": "function"
    },
    {
      "inputs": [],
      "name": "name",
      "outputs": [
        {
          "internalType": "string",
          "name": "",
          "type": "string"
        }
      ],
      "stateMutability": "view",
      "type": "function"
    },
    {
      "inputs": [
        {
          "internalType": "string",
          "name": "baseURI",
          "type": "string"
        }
      ],
      "name": "setBaseMetadataURI",
      "outputs": [],
      "stateMutability": "nonpayable",
      "type": "function"
    },
    {
      "inputs": [],
      "name": "symbol",
      "outputs": [
        {
          "internalType": "string",
          "name": "",
          "type": "string"
        }
      ],
      "stateMutability": "view",
      "type": "function"
    },
    {
      "inputs": [
        {
          "internalType": "uint256",
          "name": "tokenId",
          "type": "uint256"
        }
      ],
      "name": "tokenURI",
      "outputs": [
        {
          "internalType": "string",
          "name": "",
          "type": "string"
        }
      ],
      "stateMutability": "view",
      "type": "function"
    }
  ],
  "bytecode": "0x60a060405234801561001057600080fd5b5060405161137e38038061137e83398101604081905261002f91610040565b6001600160a01b0316608052610070565b60006020828403121561005257600080fd5b81516001600160a01b038116811461006957600080fd5b9392505050565b6080516112de6100a060003960008181610676015281816106e00152818161081e01526108be01526112de6000f3fe608060405234801561001057600080fd5b506004361061007d5760003560e01c80637e518ec81161005b5780637e518ec8146100be5780638ec5b59c146100d357806395d89b41146100e6578063c87b56dd146100ee57600080fd5b806306fdde031461008257806331e66e1e146100a05780635b2bd79e146100b6575b600080fd5b61008a610101565b6040516100979190610d68565b60405180910390f35b6100a8610118565b604051610097929190610db9565b61008a61012b565b6100d16100cc366004610e06565b610138565b005b6100d16100e1366004610f52565b61019e565b61008a6101e2565b61008a6100fc366004610fda565b6101f4565b606061011361010e610221565b61024f565b905090565b3660006101236102e5565b915091509091565b606061011361010e6102f0565b61015161014361031e565b61014b610328565b90610356565b61019a82828080601f01602080910402602001604051908101604052809392919081815260200183838082843760009201919091525061019492506102f0915050565b906103de565b5050565b6101b76101a961031e565b6101b161042c565b9061045a565b6101cb83836101c4610221565b91906104dd565b6101dd816101d76102f0565b9061051d565b505050565b60606101136101ef610221565b610555565b606061020882610202610566565b90610594565b5061021b826102156102f0565b9061062a565b92915050565b60008061021b60017f9c4269c0f9f430d98876ffe9767fbf3f3232ea91a549beb549e5329532520eb3611022565b606081600001805461026090611039565b80601f016020809104026020016040519081016040528092919081815260200182805461028c90611039565b80156102d95780601f106102ae576101008083540402835291602001916102d9565b820191906000526020600020905b8154815290600101906020018083116102bc57829003601f168201915b50505050509050919050565b36600061012361065e565b60008061021b60017fe94434e3c6b941c5d90218142fadcc69cb2e13723993540bfa1c131dd1d3475a611022565b60006101136107e2565b60008061021b60017fc9ed16f33ab3a66c84bfd83099ccb2a8845871e2e1c1928f63797152f0fd54cd611022565b815473ffffffffffffffffffffffffffffffffffffffff82811691161461019a576040517f08c379a000000000000000000000000000000000000000000000000000000000815260206004820152601860248201527f4f776e6572736869703a206e6f7420746865206f776e6572000000000000000060448201526064015b60405180910390fd5b80516103f09083906020840190610c9f565b507f04b1dc5c136a3ce9fded8db0ce3d3366c58764ec3a8e4c2b9e52e4ddfe5ebbf7816040516104209190610d68565b60405180910390a15050565b60008061021b60017fb53127684a568b3173ae13b9f8a6016e243e63b6e8ee1178d6a717850b5d6104611022565b815473ffffffffffffffffffffffffffffffffffffffff82811691161461019a576040517f08c379a000000000000000000000000000000000000000000000000000000000815260206004820152601960248201527f50726f787941646d696e3a206e6f74207468652061646d696e0000000000000060448201526064016103d5565b61051261050b60017f5c5aabce181f75938de01fc8f3ad085dae040f02ff51dda186020471d60f770d611022565b600161093a565b6101dd8383836109aa565b61054b61050b60017f4906b284a41a4863b44f418156dc67ff218ba42abca1a1c41f180669c98a302f611022565b61019a8282610a08565b606081600101805461026090611039565b60008061021b60017fddf3ee18ae6d688373c219468f8be446e7ae82215f4779d821c7ea5e8c13c0c1611022565b60008181526020839052604081205473ffffffffffffffffffffffffffffffffffffffff8116610620576040517f08c379a000000000000000000000000000000000000000000000000000000000815260206004820152601a60248201527f4552433732313a206e6f6e2d6578697374696e6720746f6b656e00000000000060448201526064016103d5565b805b949350505050565b60608261063683610a12565b6040516020016106479291906110a2565b604051602081830303815290604052905092915050565b3660003332810361067457506000923692509050565b7f000000000000000000000000000000000000000000000000000000000000000073ffffffffffffffffffffffffffffffffffffffff168173ffffffffffffffffffffffffffffffffffffffff1614806107c1575073ffffffffffffffffffffffffffffffffffffffff7f00000000000000000000000000000000000000000000000000000000000000001663e60125d6367fffffffffffffffffffffffffffffffffffffffffffffffffffffffffffffffec013560601c6040517fffffffff0000000000000000000000000000000000000000000000000000000060e084901b16815273ffffffffffffffffffffffffffffffffffffffff91821660048201529084166024820152604401602060405180830381865afa15801561079d573d6000803e3d6000fd5b505050506040513d601f19601f820116820180604052508101906107c1919061117f565b156107d7576107ce610b47565b92509250509091565b506000923692509050565b6000333281036107f157919050565b6000367fffffffffffffffffffffffffffffffffffffffffffffffffffffffffffffffec013560601c90507f000000000000000000000000000000000000000000000000000000000000000073ffffffffffffffffffffffffffffffffffffffff168273ffffffffffffffffffffffffffffffffffffffff16148061092957506040517fe60125d600000000000000000000000000000000000000000000000000000000815273ffffffffffffffffffffffffffffffffffffffff828116600483015283811660248301527f0000000000000000000000000000000000000000000000000000000000000000169063e60125d690604401602060405180830381865afa158015610905573d6000803e3d6000fd5b505050506040513d601f19601f82011682018060405250810190610929919061117f565b156109345792915050565b50919050565b8154829082116109a6576040517f08c379a000000000000000000000000000000000000000000000000000000000815260206004820152601660248201527f53746f726167653a20706861736520726561636865640000000000000000000060448201526064016103d5565b5550565b81516109bc9084906020850190610c9f565b5080516109d29060018501906020840190610c9f565b506101dd7f5b5e139f000000000000000000000000000000000000000000000000000000006001610a01610b65565b9190610b93565b61019a82826103de565b606081600003610a5557505060408051808201909152600181527f3000000000000000000000000000000000000000000000000000000000000000602082015290565b8160005b8115610a7f5780610a69816111a8565b9150610a789050600a8361120f565b9150610a59565b60008167ffffffffffffffff811115610a9a57610a9a610e78565b6040519080825280601f01601f191660200182016040528015610ac4576020820181803683370190505b5090505b841561062257610ad9600183611022565b9150610ae6600a86611223565b610af1906030611237565b60f81b818381518110610b0657610b0661124f565b60200101907effffffffffffffffffffffffffffffffffffffffffffffffffffffffffffff1916908160001a905350610b40600a8661120f565b9450610ac8565b366000808083610b58601482611022565b926101239392919061127e565b60008061021b60017fca9d3e17f264b0f3984e2634e94adb37fa3e6a8103f06aeae6fa59e21c769f5e611022565b7c01000000000000000000000000000000000000000000000000000000007fffffffff00000000000000000000000000000000000000000000000000000000831601610c3b576040517f08c379a000000000000000000000000000000000000000000000000000000000815260206004820152601f60248201527f496e74657266616365446574656374696f6e3a2077726f6e672076616c75650060448201526064016103d5565b7fffffffff00000000000000000000000000000000000000000000000000000000919091166000908152602092909252604090912080547fffffffffffffffffffffffffffffffffffffffffffffffffffffffffffffff0016911515919091179055565b828054610cab90611039565b90600052602060002090601f016020900481019282610ccd5760008555610d13565b82601f10610ce657805160ff1916838001178555610d13565b82800160010185558215610d13579182015b82811115610d13578251825591602001919060010190610cf8565b50610d1f929150610d23565b5090565b5b80821115610d1f5760008155600101610d24565b60005b83811015610d53578181015183820152602001610d3b565b83811115610d62576000848401525b50505050565b6020815260008251806020840152610d87816040850160208701610d38565b601f017fffffffffffffffffffffffffffffffffffffffffffffffffffffffffffffffe0169190910160400192915050565b60208152816020820152818360408301376000818301604090810191909152601f9092017fffffffffffffffffffffffffffffffffffffffffffffffffffffffffffffffe0160101919050565b60008060208385031215610e1957600080fd5b823567ffffffffffffffff80821115610e3157600080fd5b818501915085601f830112610e4557600080fd5b813581811115610e5457600080fd5b866020828501011115610e6657600080fd5b60209290920196919550909350505050565b7f4e487b7100000000000000000000000000000000000000000000000000000000600052604160045260246000fd5b600082601f830112610eb857600080fd5b813567ffffffffffffffff80821115610ed357610ed3610e78565b604051601f83017fffffffffffffffffffffffffffffffffffffffffffffffffffffffffffffffe0908116603f01168101908282118183101715610f1957610f19610e78565b81604052838152866020858801011115610f3257600080fd5b836020870160208301376000602085830101528094505050505092915050565b600080600060608486031215610f6757600080fd5b833567ffffffffffffffff80821115610f7f57600080fd5b610f8b87838801610ea7565b94506020860135915080821115610fa157600080fd5b610fad87838801610ea7565b93506040860135915080821115610fc357600080fd5b50610fd086828701610ea7565b9150509250925092565b600060208284031215610fec57600080fd5b5035919050565b7f4e487b7100000000000000000000000000000000000000000000000000000000600052601160045260246000fd5b60008282101561103457611034610ff3565b500390565b600181811c9082168061104d57607f821691505b602082108103610934577f4e487b7100000000000000000000000000000000000000000000000000000000600052602260045260246000fd5b60008151611098818560208601610d38565b9290920192915050565b600080845481600182811c9150808316806110be57607f831692505b602080841082036110f6577f4e487b710000000000000000000000000000000000000000000000000000000086526022600452602486fd5b81801561110a576001811461113957611166565b7fffffffffffffffffffffffffffffffffffffffffffffffffffffffffffffff00861689528489019650611166565b60008b81526020902060005b8681101561115e5781548b820152908501908301611145565b505084890196505b5050505050506111768185611086565b95945050505050565b60006020828403121561119157600080fd5b815180151581146111a157600080fd5b9392505050565b60007fffffffffffffffffffffffffffffffffffffffffffffffffffffffffffffffff82036111d9576111d9610ff3565b5060010190565b7f4e487b7100000000000000000000000000000000000000000000000000000000600052601260045260246000fd5b60008261121e5761121e6111e0565b500490565b600082611232576112326111e0565b500690565b6000821982111561124a5761124a610ff3565b500190565b7f4e487b7100000000000000000000000000000000000000000000000000000000600052603260045260246000fd5b6000808585111561128e57600080fd5b8386111561129b57600080fd5b505082019391909203915056fea2646970667358221220d94aeacc9a3d2b484cdcf40e2c545518ea0e09aa4d0757f2d31b211870bf7c0164736f6c634300080e0033",
  "linkReferences": {},
  "deployedLinkReferences": {}
}