{
  "_format": "hh-sol-artifact-1",
  "contractName": "ERC721MetadataFacetMock",
  "sourceName": "contracts/mocks/token/ERC721/facets/ERC721MetadataFacetMock.sol",
  "abi": [
    {
      "inputs": [
        {
          "internalType": "contract IForwarderRegistry",
          "name": "forwarderRegistry",
          "type": "address"
        }
      ],
      "stateMutability": "nonpayable",
      "type": "constructor"
    },
    {
      "inputs": [
        {
          "internalType": "uint256",
          "name": "tokenId",
          "type": "uint256"
        }
      ],
      "name": "ERC721NonExistingToken",
      "type": "error"
    },
    {
      "inputs": [],
      "name": "IllegalInterfaceId",
      "type": "error"
    },
    {
      "inputs": [
        {
          "internalType": "uint256",
          "name": "currentPhase",
          "type": "uint256"
        },
        {
          "internalType": "uint256",
          "name": "newPhase",
          "type": "uint256"
        }
      ],
      "name": "InitializationPhaseAlreadyReached",
      "type": "error"
    },
    {
      "inputs": [
        {
          "internalType": "address",
          "name": "account",
          "type": "address"
        }
      ],
      "name": "NotProxyAdmin",
      "type": "error"
    },
    {
      "inputs": [],
      "name": "__msgData",
      "outputs": [
        {
          "internalType": "bytes",
          "name": "",
          "type": "bytes"
        }
      ],
      "stateMutability": "view",
      "type": "function"
    },
    {
      "inputs": [
        {
          "internalType": "string",
          "name": "name",
          "type": "string"
        },
        {
          "internalType": "string",
          "name": "symbol",
          "type": "string"
        },
        {
          "internalType": "contract ITokenMetadataResolver",
          "name": "metadataResolver",
          "type": "address"
        }
      ],
      "name": "initERC721MetadataStorage",
      "outputs": [],
      "stateMutability": "nonpayable",
      "type": "function"
    },
    {
      "inputs": [],
      "name": "metadataResolver",
      "outputs": [
        {
          "internalType": "contract ITokenMetadataResolver",
          "name": "tokenMetadataResolver",
          "type": "address"
        }
      ],
      "stateMutability": "view",
      "type": "function"
    },
    {
      "inputs": [],
      "name": "name",
      "outputs": [
        {
          "internalType": "string",
          "name": "tokenName",
          "type": "string"
        }
      ],
      "stateMutability": "view",
      "type": "function"
    },
    {
      "inputs": [],
      "name": "symbol",
      "outputs": [
        {
          "internalType": "string",
          "name": "tokenSymbol",
          "type": "string"
        }
      ],
      "stateMutability": "view",
      "type": "function"
    },
    {
      "inputs": [
        {
          "internalType": "uint256",
          "name": "tokenId",
          "type": "uint256"
        }
      ],
      "name": "tokenURI",
      "outputs": [
        {
          "internalType": "string",
          "name": "uri",
          "type": "string"
        }
      ],
      "stateMutability": "view",
      "type": "function"
    }
  ],
  "bytecode": "0x60a0604052348015600f57600080fd5b50604051610fa5380380610fa5833981016040819052602c91603c565b6001600160a01b0316608052606a565b600060208284031215604d57600080fd5b81516001600160a01b0381168114606357600080fd5b9392505050565b608051610f0b61009a60003960008181610218015281816102560152818161052f01526105b70152610f0b6000f3fe608060405234801561001057600080fd5b50600436106100725760003560e01c8063a0c76f6211610050578063a0c76f62146100b3578063c87b56dd146100e0578063fa6d22ca146100f357600080fd5b806306fdde031461007757806331e66e1e1461009557806395d89b41146100ab575b600080fd5b61007f610108565b60405161008c91906109fa565b60405180910390f35b61009d610117565b60405161008c929190610a4b565b61007f61012a565b6100bb610134565b60405173ffffffffffffffffffffffffffffffffffffffff909116815260200161008c565b61007f6100ee366004610a98565b61015e565b610106610101366004610afa565b61018d565b005b60606101126101cf565b905090565b3660006101226101e1565b915091509091565b606061011261034b565b600061011261014161035d565b6002015473ffffffffffffffffffffffffffffffffffffffff1690565b60606101728261016c61038b565b906103b9565b50610187308361018061035d565b9190610424565b92915050565b6101a66101986104ec565b6101a0610633565b90610661565b6101c085858585856101b661035d565b94939291906106d0565b6101c8610771565b5050505050565b60606101126101dc61035d565b6107a8565b366000333214806101f25750601836105b156102005750600091369150565b3373ffffffffffffffffffffffffffffffffffffffff7f0000000000000000000000000000000000000000000000000000000000000000161480610335575073ffffffffffffffffffffffffffffffffffffffff7f000000000000000000000000000000000000000000000000000000000000000016638929a8ca367fffffffffffffffffffffffffffffffffffffffffffffffffffffffffffffffec013560601c6040517fffffffff0000000000000000000000000000000000000000000000000000000060e084901b16815273ffffffffffffffffffffffffffffffffffffffff9091166004820152336024820152604401602060405180830381865afa158015610311573d6000803e3d6000fd5b505050506040513d601f19601f820116820180604052508101906103359190610b97565b156103425761012261083e565b50600091369150565b606061011261035861035d565b61086f565b60008061018760017f7ea68fd2dcf1c056b94db6a0a537aa80d26fa9ab1eacd85da1ba0b61b7e7a8a5610bb9565b60008061018760017fddf3ee18ae6d688373c219468f8be446e7ae82215f4779d821c7ea5e8c13c0c1610bb9565b60008181526020839052604081205473ffffffffffffffffffffffffffffffffffffffff811661041d576040517fdd560475000000000000000000000000000000000000000000000000000000008152600481018490526024015b60405180910390fd5b9392505050565b60028301546040517ff724dad700000000000000000000000000000000000000000000000000000000815273ffffffffffffffffffffffffffffffffffffffff848116600483015260248201849052606092169063f724dad790604401600060405180830381865afa15801561049e573d6000803e3d6000fd5b505050506040513d6000823e601f3d9081017fffffffffffffffffffffffffffffffffffffffffffffffffffffffffffffffe01682016040526104e49190810190610c22565b949350505050565b6000333214806104fc5750601836105b1561050657503390565b7fffffffffffffffffffffffffffffffffffffffffffffffffffffffffffffffec36013560601c7f000000000000000000000000000000000000000000000000000000000000000073ffffffffffffffffffffffffffffffffffffffff1633148061062257506040517f8929a8ca00000000000000000000000000000000000000000000000000000000815273ffffffffffffffffffffffffffffffffffffffff82811660048301523360248301527f00000000000000000000000000000000000000000000000000000000000000001690638929a8ca90604401602060405180830381865afa1580156105fe573d6000803e3d6000fd5b505050506040513d601f19601f820116820180604052508101906106229190610b97565b1561062c57919050565b3391505090565b60008061018760017fb53127684a568b3173ae13b9f8a6016e243e63b6e8ee1178d6a717850b5d6104610bb9565b815473ffffffffffffffffffffffffffffffffffffffff8281169116146106cc576040517f673a31a100000000000000000000000000000000000000000000000000000000815273ffffffffffffffffffffffffffffffffffffffff82166004820152602401610414565b5050565b6107056106fe60017f92f72593ca50a0096f68ee94e7000db40ed086164b695855e2250750b8bfaf59610bb9565b6001610880565b85610711858783610d91565b5060018601610721838583610d91565b5060029590950180547fffffffffffffffffffffffff00000000000000000000000000000000000000001673ffffffffffffffffffffffffffffffffffffffff9096169590951790945550505050565b6107a67f5b5e139f00000000000000000000000000000000000000000000000000000000600161079f6108cc565b91906108fa565b565b60608160000180546107b990610ced565b80601f01602080910402602001604051908101604052809291908181526020018280546107e590610ced565b80156108325780601f1061080757610100808354040283529160200191610832565b820191906000526020600020905b81548152906001019060200180831161081557829003601f168201915b50505050509050919050565b3660006101227fffffffffffffffffffffffffffffffffffffffffffffffffffffffffffffffec8301828481610eab565b60608160010180546107b990610ced565b815482908281106108c7576040517fbf0c18ec0000000000000000000000000000000000000000000000000000000081526004810182905260248101849052604401610414565b505550565b60008061018760017fca9d3e17f264b0f3984e2634e94adb37fa3e6a8103f06aeae6fa59e21c769f5e610bb9565b7c01000000000000000000000000000000000000000000000000000000007fffffffff00000000000000000000000000000000000000000000000000000000831601610972576040517f72c683bb00000000000000000000000000000000000000000000000000000000815260040160405180910390fd5b7fffffffff00000000000000000000000000000000000000000000000000000000919091166000908152602092909252604090912080547fffffffffffffffffffffffffffffffffffffffffffffffffffffffffffffff0016911515919091179055565b60005b838110156109f15781810151838201526020016109d9565b50506000910152565b6020815260008251806020840152610a198160408501602087016109d6565b601f017fffffffffffffffffffffffffffffffffffffffffffffffffffffffffffffffe0169190910160400192915050565b60208152816020820152818360408301376000818301604090810191909152601f9092017fffffffffffffffffffffffffffffffffffffffffffffffffffffffffffffffe0160101919050565b600060208284031215610aaa57600080fd5b5035919050565b60008083601f840112610ac357600080fd5b50813567ffffffffffffffff811115610adb57600080fd5b602083019150836020828501011115610af357600080fd5b9250929050565b600080600080600060608688031215610b1257600080fd5b853567ffffffffffffffff80821115610b2a57600080fd5b610b3689838a01610ab1565b90975095506020880135915080821115610b4f57600080fd5b50610b5c88828901610ab1565b909450925050604086013573ffffffffffffffffffffffffffffffffffffffff81168114610b8957600080fd5b809150509295509295909350565b600060208284031215610ba957600080fd5b8151801515811461041d57600080fd5b81810381811115610187577f4e487b7100000000000000000000000000000000000000000000000000000000600052601160045260246000fd5b7f4e487b7100000000000000000000000000000000000000000000000000000000600052604160045260246000fd5b600060208284031215610c3457600080fd5b815167ffffffffffffffff80821115610c4c57600080fd5b818401915084601f830112610c6057600080fd5b815181811115610c7257610c72610bf3565b604051601f82017fffffffffffffffffffffffffffffffffffffffffffffffffffffffffffffffe0908116603f01168101908382118183101715610cb857610cb8610bf3565b81604052828152876020848701011115610cd157600080fd5b610ce28360208301602088016109d6565b979650505050505050565b600181811c90821680610d0157607f821691505b602082108103610d3a577f4e487b7100000000000000000000000000000000000000000000000000000000600052602260045260246000fd5b50919050565b601f821115610d8c576000816000526020600020601f850160051c81016020861015610d695750805b601f850160051c820191505b81811015610d8857828155600101610d75565b5050505b505050565b67ffffffffffffffff831115610da957610da9610bf3565b610dbd83610db78354610ced565b83610d40565b6000601f841160018114610e0f5760008515610dd95750838201355b7fffffffffffffffffffffffffffffffffffffffffffffffffffffffffffffffff600387901b1c1916600186901b1783556101c8565b6000838152602090207fffffffffffffffffffffffffffffffffffffffffffffffffffffffffffffffe0861690835b82811015610e5e5786850135825560209485019460019092019101610e3e565b5086821015610e99577fffffffffffffffffffffffffffffffffffffffffffffffffffffffffffffffff60f88860031b161c19848701351681555b505060018560011b0183555050505050565b60008085851115610ebb57600080fd5b83861115610ec857600080fd5b505082019391909203915056fea2646970667358221220561cfe64533d405213f863c8e0a5aca38ba0782fd76835cd426980def962326a64736f6c63430008190033",
  "linkReferences": {},
  "deployedLinkReferences": {}
}