{
  "_format": "hh-sol-artifact-1",
  "contractName": "ERC721MetadataFacetMock",
  "sourceName": "contracts/mocks/token/ERC721/facets/ERC721MetadataFacetMock.sol",
  "abi": [
    {
      "inputs": [
        {
          "internalType": "contract IForwarderRegistry",
          "name": "forwarderRegistry",
          "type": "address"
        }
      ],
      "stateMutability": "nonpayable",
      "type": "constructor"
    },
    {
      "inputs": [],
      "name": "__msgData",
      "outputs": [
        {
          "internalType": "bytes",
          "name": "",
          "type": "bytes"
        }
      ],
      "stateMutability": "view",
      "type": "function"
    },
    {
      "inputs": [
        {
          "internalType": "string",
          "name": "name",
          "type": "string"
        },
        {
          "internalType": "string",
          "name": "symbol",
          "type": "string"
        },
        {
          "internalType": "contract ITokenMetadataResolver",
          "name": "metadataResolver",
          "type": "address"
        }
      ],
      "name": "initERC721MetadataStorage",
      "outputs": [],
      "stateMutability": "nonpayable",
      "type": "function"
    },
    {
      "inputs": [],
      "name": "metadataResolver",
      "outputs": [
        {
          "internalType": "contract ITokenMetadataResolver",
          "name": "tokenMetadataResolver",
          "type": "address"
        }
      ],
      "stateMutability": "view",
      "type": "function"
    },
    {
      "inputs": [],
      "name": "name",
      "outputs": [
        {
          "internalType": "string",
          "name": "tokenName",
          "type": "string"
        }
      ],
      "stateMutability": "view",
      "type": "function"
    },
    {
      "inputs": [],
      "name": "symbol",
      "outputs": [
        {
          "internalType": "string",
          "name": "tokenSymbol",
          "type": "string"
        }
      ],
      "stateMutability": "view",
      "type": "function"
    },
    {
      "inputs": [
        {
          "internalType": "uint256",
          "name": "tokenId",
          "type": "uint256"
        }
      ],
      "name": "tokenURI",
      "outputs": [
        {
          "internalType": "string",
          "name": "uri",
          "type": "string"
        }
      ],
      "stateMutability": "view",
      "type": "function"
    }
  ],
  "bytecode": "0x60a060405234801561001057600080fd5b5060405161104238038061104283398101604081905261002f91610040565b6001600160a01b0316608052610070565b60006020828403121561005257600080fd5b81516001600160a01b038116811461006957600080fd5b9392505050565b608051610fa26100a060003960008181610218015281816102560152818161055c01526105e40152610fa26000f3fe608060405234801561001057600080fd5b50600436106100725760003560e01c8063a0c76f6211610050578063a0c76f62146100b3578063c87b56dd146100e0578063fa6d22ca146100f357600080fd5b806306fdde031461007757806331e66e1e1461009557806395d89b41146100ab575b600080fd5b61007f610108565b60405161008c9190610a93565b60405180910390f35b61009d610117565b60405161008c929190610ae4565b61007f61012a565b6100bb610134565b60405173ffffffffffffffffffffffffffffffffffffffff909116815260200161008c565b61007f6100ee366004610b31565b61015e565b610106610101366004610b93565b61018d565b005b60606101126101cf565b905090565b3660006101226101e1565b915091509091565b606061011261034b565b600061011261014161035d565b6002015473ffffffffffffffffffffffffffffffffffffffff1690565b60606101728261016c61038b565b906103b9565b50610187308361018061035d565b9190610451565b92915050565b6101a6610198610519565b6101a0610660565b9061068e565b6101c085858585856101b661035d565b9493929190610715565b6101c86107b6565b5050505050565b60606101126101dc61035d565b6107ed565b366000333214806101f25750601836105b156102005750600091369150565b3373ffffffffffffffffffffffffffffffffffffffff7f0000000000000000000000000000000000000000000000000000000000000000161480610335575073ffffffffffffffffffffffffffffffffffffffff7f000000000000000000000000000000000000000000000000000000000000000016638929a8ca367fffffffffffffffffffffffffffffffffffffffffffffffffffffffffffffffec013560601c6040517fffffffff0000000000000000000000000000000000000000000000000000000060e084901b16815273ffffffffffffffffffffffffffffffffffffffff9091166004820152336024820152604401602060405180830381865afa158015610311573d6000803e3d6000fd5b505050506040513d601f19601f820116820180604052508101906103359190610c30565b1561034257610122610883565b50600091369150565b606061011261035861035d565b6108b4565b60008061018760017f7ea68fd2dcf1c056b94db6a0a537aa80d26fa9ab1eacd85da1ba0b61b7e7a8a5610c52565b60008061018760017fddf3ee18ae6d688373c219468f8be446e7ae82215f4779d821c7ea5e8c13c0c1610c52565b60008181526020839052604081205473ffffffffffffffffffffffffffffffffffffffff811661044a576040517f08c379a000000000000000000000000000000000000000000000000000000000815260206004820152601a60248201527f4552433732313a206e6f6e2d6578697374696e6720746f6b656e00000000000060448201526064015b60405180910390fd5b9392505050565b60028301546040517ff724dad700000000000000000000000000000000000000000000000000000000815273ffffffffffffffffffffffffffffffffffffffff848116600483015260248201849052606092169063f724dad790604401600060405180830381865afa1580156104cb573d6000803e3d6000fd5b505050506040513d6000823e601f3d9081017fffffffffffffffffffffffffffffffffffffffffffffffffffffffffffffffe01682016040526105119190810190610cbb565b949350505050565b6000333214806105295750601836105b1561053357503390565b7fffffffffffffffffffffffffffffffffffffffffffffffffffffffffffffffec36013560601c7f000000000000000000000000000000000000000000000000000000000000000073ffffffffffffffffffffffffffffffffffffffff1633148061064f57506040517f8929a8ca00000000000000000000000000000000000000000000000000000000815273ffffffffffffffffffffffffffffffffffffffff82811660048301523360248301527f00000000000000000000000000000000000000000000000000000000000000001690638929a8ca90604401602060405180830381865afa15801561062b573d6000803e3d6000fd5b505050506040513d601f19601f8201168201806040525081019061064f9190610c30565b1561065957919050565b3391505090565b60008061018760017fb53127684a568b3173ae13b9f8a6016e243e63b6e8ee1178d6a717850b5d6104610c52565b815473ffffffffffffffffffffffffffffffffffffffff828116911614610711576040517f08c379a000000000000000000000000000000000000000000000000000000000815260206004820152601960248201527f50726f787941646d696e3a206e6f74207468652061646d696e000000000000006044820152606401610441565b5050565b61074a61074360017f92f72593ca50a0096f68ee94e7000db40ed086164b695855e2250750b8bfaf59610c52565b60016108c5565b85610756858783610e28565b5060018601610766838583610e28565b5060029590950180547fffffffffffffffffffffffff00000000000000000000000000000000000000001673ffffffffffffffffffffffffffffffffffffffff9096169590951790945550505050565b6107eb7f5b5e139f0000000000000000000000000000000000000000000000000000000060016107e4610935565b9190610963565b565b60608160000180546107fe90610d86565b80601f016020809104026020016040519081016040528092919081815260200182805461082a90610d86565b80156108775780601f1061084c57610100808354040283529160200191610877565b820191906000526020600020905b81548152906001019060200180831161085a57829003601f168201915b50505050509050919050565b3660006101227fffffffffffffffffffffffffffffffffffffffffffffffffffffffffffffffec8301828481610f42565b60608160010180546107fe90610d86565b815482908211610931576040517f08c379a000000000000000000000000000000000000000000000000000000000815260206004820152601660248201527f53746f726167653a2070686173652072656163686564000000000000000000006044820152606401610441565b5550565b60008061018760017fca9d3e17f264b0f3984e2634e94adb37fa3e6a8103f06aeae6fa59e21c769f5e610c52565b7c01000000000000000000000000000000000000000000000000000000007fffffffff00000000000000000000000000000000000000000000000000000000831601610a0b576040517f08c379a000000000000000000000000000000000000000000000000000000000815260206004820152601f60248201527f496e74657266616365446574656374696f6e3a2077726f6e672076616c7565006044820152606401610441565b7fffffffff00000000000000000000000000000000000000000000000000000000919091166000908152602092909252604090912080547fffffffffffffffffffffffffffffffffffffffffffffffffffffffffffffff0016911515919091179055565b60005b83811015610a8a578181015183820152602001610a72565b50506000910152565b6020815260008251806020840152610ab2816040850160208701610a6f565b601f017fffffffffffffffffffffffffffffffffffffffffffffffffffffffffffffffe0169190910160400192915050565b60208152816020820152818360408301376000818301604090810191909152601f9092017fffffffffffffffffffffffffffffffffffffffffffffffffffffffffffffffe0160101919050565b600060208284031215610b4357600080fd5b5035919050565b60008083601f840112610b5c57600080fd5b50813567ffffffffffffffff811115610b7457600080fd5b602083019150836020828501011115610b8c57600080fd5b9250929050565b600080600080600060608688031215610bab57600080fd5b853567ffffffffffffffff80821115610bc357600080fd5b610bcf89838a01610b4a565b90975095506020880135915080821115610be857600080fd5b50610bf588828901610b4a565b909450925050604086013573ffffffffffffffffffffffffffffffffffffffff81168114610c2257600080fd5b809150509295509295909350565b600060208284031215610c4257600080fd5b8151801515811461044a57600080fd5b81810381811115610187577f4e487b7100000000000000000000000000000000000000000000000000000000600052601160045260246000fd5b7f4e487b7100000000000000000000000000000000000000000000000000000000600052604160045260246000fd5b600060208284031215610ccd57600080fd5b815167ffffffffffffffff80821115610ce557600080fd5b818401915084601f830112610cf957600080fd5b815181811115610d0b57610d0b610c8c565b604051601f82017fffffffffffffffffffffffffffffffffffffffffffffffffffffffffffffffe0908116603f01168101908382118183101715610d5157610d51610c8c565b81604052828152876020848701011115610d6a57600080fd5b610d7b836020830160208801610a6f565b979650505050505050565b600181811c90821680610d9a57607f821691505b602082108103610dd3577f4e487b7100000000000000000000000000000000000000000000000000000000600052602260045260246000fd5b50919050565b601f821115610e2357600081815260208120601f850160051c81016020861015610e005750805b601f850160051c820191505b81811015610e1f57828155600101610e0c565b5050505b505050565b67ffffffffffffffff831115610e4057610e40610c8c565b610e5483610e4e8354610d86565b83610dd9565b6000601f841160018114610ea65760008515610e705750838201355b7fffffffffffffffffffffffffffffffffffffffffffffffffffffffffffffffff600387901b1c1916600186901b1783556101c8565b6000838152602090207fffffffffffffffffffffffffffffffffffffffffffffffffffffffffffffffe0861690835b82811015610ef55786850135825560209485019460019092019101610ed5565b5086821015610f30577fffffffffffffffffffffffffffffffffffffffffffffffffffffffffffffffff60f88860031b161c19848701351681555b505060018560011b0183555050505050565b60008085851115610f5257600080fd5b83861115610f5f57600080fd5b505082019391909203915056fea2646970667358221220e7c439ba3bea5d0642068c85681fd6e918ae4c8864bf705a51f7e3be6610fe7a64736f6c63430008130033",
  "linkReferences": {},
  "deployedLinkReferences": {}
}