{
  "_format": "hh-sol-artifact-1",
  "contractName": "ERC721",
  "sourceName": "contracts/token/ERC721/ERC721.sol",
  "abi": [
    {
      "inputs": [],
      "stateMutability": "nonpayable",
      "type": "constructor"
    },
    {
      "anonymous": false,
      "inputs": [
        {
          "indexed": true,
          "internalType": "address",
          "name": "owner",
          "type": "address"
        },
        {
          "indexed": true,
          "internalType": "address",
          "name": "approved",
          "type": "address"
        },
        {
          "indexed": true,
          "internalType": "uint256",
          "name": "tokenId",
          "type": "uint256"
        }
      ],
      "name": "Approval",
      "type": "event"
    },
    {
      "anonymous": false,
      "inputs": [
        {
          "indexed": true,
          "internalType": "address",
          "name": "owner",
          "type": "address"
        },
        {
          "indexed": true,
          "internalType": "address",
          "name": "operator",
          "type": "address"
        },
        {
          "indexed": false,
          "internalType": "bool",
          "name": "approved",
          "type": "bool"
        }
      ],
      "name": "ApprovalForAll",
      "type": "event"
    },
    {
      "anonymous": false,
      "inputs": [
        {
          "indexed": true,
          "internalType": "address",
          "name": "from",
          "type": "address"
        },
        {
          "indexed": true,
          "internalType": "address",
          "name": "to",
          "type": "address"
        },
        {
          "indexed": true,
          "internalType": "uint256",
          "name": "tokenId",
          "type": "uint256"
        }
      ],
      "name": "Transfer",
      "type": "event"
    },
    {
      "inputs": [
        {
          "internalType": "address",
          "name": "to",
          "type": "address"
        },
        {
          "internalType": "uint256",
          "name": "tokenId",
          "type": "uint256"
        }
      ],
      "name": "approve",
      "outputs": [],
      "stateMutability": "nonpayable",
      "type": "function"
    },
    {
      "inputs": [
        {
          "internalType": "address",
          "name": "owner",
          "type": "address"
        }
      ],
      "name": "balanceOf",
      "outputs": [
        {
          "internalType": "uint256",
          "name": "",
          "type": "uint256"
        }
      ],
      "stateMutability": "view",
      "type": "function"
    },
    {
      "inputs": [
        {
          "internalType": "uint256",
          "name": "tokenId",
          "type": "uint256"
        }
      ],
      "name": "getApproved",
      "outputs": [
        {
          "internalType": "address",
          "name": "operator",
          "type": "address"
        }
      ],
      "stateMutability": "view",
      "type": "function"
    },
    {
      "inputs": [
        {
          "internalType": "address",
          "name": "owner",
          "type": "address"
        },
        {
          "internalType": "address",
          "name": "operator",
          "type": "address"
        }
      ],
      "name": "isApprovedForAll",
      "outputs": [
        {
          "internalType": "bool",
          "name": "",
          "type": "bool"
        }
      ],
      "stateMutability": "view",
      "type": "function"
    },
    {
      "inputs": [
        {
          "internalType": "uint256",
          "name": "tokenId",
          "type": "uint256"
        }
      ],
      "name": "ownerOf",
      "outputs": [
        {
          "internalType": "address",
          "name": "",
          "type": "address"
        }
      ],
      "stateMutability": "view",
      "type": "function"
    },
    {
      "inputs": [
        {
          "internalType": "address",
          "name": "from",
          "type": "address"
        },
        {
          "internalType": "address",
          "name": "to",
          "type": "address"
        },
        {
          "internalType": "uint256",
          "name": "tokenId",
          "type": "uint256"
        }
      ],
      "name": "safeTransferFrom",
      "outputs": [],
      "stateMutability": "nonpayable",
      "type": "function"
    },
    {
      "inputs": [
        {
          "internalType": "address",
          "name": "from",
          "type": "address"
        },
        {
          "internalType": "address",
          "name": "to",
          "type": "address"
        },
        {
          "internalType": "uint256",
          "name": "tokenId",
          "type": "uint256"
        },
        {
          "internalType": "bytes",
          "name": "_data",
          "type": "bytes"
        }
      ],
      "name": "safeTransferFrom",
      "outputs": [],
      "stateMutability": "nonpayable",
      "type": "function"
    },
    {
      "inputs": [
        {
          "internalType": "address",
          "name": "operator",
          "type": "address"
        },
        {
          "internalType": "bool",
          "name": "_approved",
          "type": "bool"
        }
      ],
      "name": "setApprovalForAll",
      "outputs": [],
      "stateMutability": "nonpayable",
      "type": "function"
    },
    {
      "inputs": [
        {
          "internalType": "address",
          "name": "from",
          "type": "address"
        },
        {
          "internalType": "address",
          "name": "to",
          "type": "address"
        },
        {
          "internalType": "uint256",
          "name": "tokenId",
          "type": "uint256"
        }
      ],
      "name": "transferFrom",
      "outputs": [],
      "stateMutability": "nonpayable",
      "type": "function"
    }
  ],
  "bytecode": "0x60806040523480156200001157600080fd5b506200003c6200002b6200004260201b620003d71760201c565b6200007860201b620004051760201c565b62000254565b6000806200007260017fddf3ee18ae6d688373c219468f8be446e7ae82215f4779d821c7ea5e8c13c0c16200022e565b92915050565b620000bf620000a960017ffddcdbf8ca7eb362a678daf3643ce3cf98ebf69ac314d25d376d5aeabd2f53326200022e565b60001b6001620000fa60201b620004721760201c565b620000f76380ac58cd60e01b6001620000e26200017160201b620004e21760201c565b620001a160201b62000510179092919060201c565b50565b600062000112836200022b60201b620006001760201c565b9050818160000154106200016d5760405162461bcd60e51b815260206004820152601860248201527f53746f726167653a2076657273696f6e2072656163686564000000000000000060448201526064015b60405180910390fd5b5550565b6000806200007260017f7180ffa89c91cf90d6c56dacabfc69bc5e36f3099d7eed2f5cc12c5dba016fe06200022e565b6001600160e01b03198083169003620001fd5760405162461bcd60e51b815260206004820152601f60248201527f496e74657266616365446574656374696f6e3a2077726f6e672076616c756500604482015260640162000164565b6001600160e01b03199190911660009081526020929092526040909120805460ff1916911515919091179055565b90565b6000828210156200024f57634e487b7160e01b600052601160045260246000fd5b500390565b611a3180620002646000396000f3fe608060405234801561001057600080fd5b50600436106100a35760003560e01c80636352211e11610076578063a22cb4651161005b578063a22cb46514610154578063b88d4fde14610167578063e985e9c51461017a57600080fd5b80636352211e1461012057806370a082311461013357600080fd5b8063081812fc146100a8578063095ea7b3146100e557806323b872dd146100fa57806342842e0e1461010d575b600080fd5b6100bb6100b63660046114ec565b61019d565b60405173ffffffffffffffffffffffffffffffffffffffff90911681526020015b60405180910390f35b6100f86100f336600461152e565b6101b7565b005b6100f8610108366004611558565b6101d1565b6100f861011b366004611558565b6101ee565b6100bb61012e3660046114ec565b610206565b610146610141366004611594565b6102a8565b6040519081526020016100dc565b6100f86101623660046115b6565b61035e565b6100f8610175366004611621565b610374565b61018d61018836600461171b565b610394565b60405190151581526020016100dc565b60006101b1826101ab6103d7565b90610603565b92915050565b6101cd3383836101c56103d7565b9291906106e6565b5050565b6101e9338484846101e06103d7565b939291906109a2565b505050565b6101e9338484846101fd6103d7565b939291906109c8565b6000806102116103d7565b60008481526001919091016020526040902054905073ffffffffffffffffffffffffffffffffffffffff81166101b1576040517f08c379a000000000000000000000000000000000000000000000000000000000815260206004820152601860248201527f4552433732313a206e6f6e2d6578697374696e67204e4654000000000000000060448201526064015b60405180910390fd5b600073ffffffffffffffffffffffffffffffffffffffff8216610327576040517f08c379a000000000000000000000000000000000000000000000000000000000815260206004820152601460248201527f4552433732313a207a65726f2061646472657373000000000000000000000000604482015260640161029f565b61032f6103d7565b73ffffffffffffffffffffffffffffffffffffffff909216600090815260029290920160205250604090205490565b6101cd33838361036c6103d7565b9291906109e7565b61038e33858585856103846103d7565b9493929190610b13565b50505050565b600061039e6103d7565b73ffffffffffffffffffffffffffffffffffffffff93841660009081526020918252604080822094909516815292905250205460ff1690565b6000806101b160017fddf3ee18ae6d688373c219468f8be446e7ae82215f4779d821c7ea5e8c13c0c161177d565b61043a61043360017ffddcdbf8ca7eb362a678daf3643ce3cf98ebf69ac314d25d376d5aeabd2f533261177d565b6001610472565b61046f7f80ac58cd0000000000000000000000000000000000000000000000000000000060016104686104e2565b9190610510565b50565b8154829082116104de576040517f08c379a000000000000000000000000000000000000000000000000000000000815260206004820152601860248201527f53746f726167653a2076657273696f6e20726561636865640000000000000000604482015260640161029f565b5550565b6000806101b160017f7180ffa89c91cf90d6c56dacabfc69bc5e36f3099d7eed2f5cc12c5dba016fe061177d565b7fffffffff00000000000000000000000000000000000000000000000000000000808316900361059c576040517f08c379a000000000000000000000000000000000000000000000000000000000815260206004820152601f60248201527f496e74657266616365446574656374696f6e3a2077726f6e672076616c756500604482015260640161029f565b7fffffffff00000000000000000000000000000000000000000000000000000000919091166000908152602092909252604090912080547fffffffffffffffffffffffffffffffffffffffffffffffffffffffffffffff0016911515919091179055565b90565b600081815260018301602052604081205473ffffffffffffffffffffffffffffffffffffffff8116610691576040517f08c379a000000000000000000000000000000000000000000000000000000000815260206004820152601860248201527f4552433732313a206e6f6e2d6578697374696e67204e46540000000000000000604482015260640161029f565b740100000000000000000000000000000000000000008116156106dc575050600081815260038301602052604090205473ffffffffffffffffffffffffffffffffffffffff166101b1565b60009150506101b1565b600081815260018501602052604081205490819003610761576040517f08c379a000000000000000000000000000000000000000000000000000000000815260206004820152601860248201527f4552433732313a206e6f6e2d6578697374696e67204e46540000000000000000604482015260640161029f565b8073ffffffffffffffffffffffffffffffffffffffff808216908516036107e4576040517f08c379a000000000000000000000000000000000000000000000000000000000815260206004820152601560248201527f4552433732313a2073656c662d617070726f76616c0000000000000000000000604482015260640161029f565b6107ef868287610b2b565b610855576040517f08c379a000000000000000000000000000000000000000000000000000000000815260206004820152601b60248201527f4552433732313a206e6f6e2d617070726f7665642073656e6465720000000000604482015260640161029f565b73ffffffffffffffffffffffffffffffffffffffff84166108bc57740100000000000000000000000000000000000000008216156108b7576000838152600187016020526040902073ffffffffffffffffffffffffffffffffffffffff821690555b61093f565b7401000000000000000000000000000000000000000082178083146108ef57600084815260018801602052604090208190555b506000838152600387016020526040902080547fffffffffffffffffffffffff00000000000000000000000000000000000000001673ffffffffffffffffffffffffffffffffffffffff86161790555b828473ffffffffffffffffffffffffffffffffffffffff168273ffffffffffffffffffffffffffffffffffffffff167f8c5be1e5ebec7d5bd14f71427d1e84f3dd0314c0f7b2291e5b200ac8c7c3b92560405160405180910390a4505050505050565b6109c18585858585604051806020016040528060008152506000610b9f565b5050505050565b6109c18585858585604051806020016040528060008152506001610b9f565b8273ffffffffffffffffffffffffffffffffffffffff168273ffffffffffffffffffffffffffffffffffffffff1603610a7c576040517f08c379a000000000000000000000000000000000000000000000000000000000815260206004820152601560248201527f4552433732313a2073656c662d617070726f76616c0000000000000000000000604482015260640161029f565b73ffffffffffffffffffffffffffffffffffffffff8381166000818152602087815260408083209487168084529482529182902080547fffffffffffffffffffffffffffffffffffffffffffffffffffffffffffffff001686151590811790915591519182527f17307eab39ab6107e8899845ad3d59bd9653f200f220920489ca2b5937696c31910160405180910390a350505050565b610b238686868686866001610b9f565b505050505050565b60008173ffffffffffffffffffffffffffffffffffffffff168373ffffffffffffffffffffffffffffffffffffffff161480610b97575073ffffffffffffffffffffffffffffffffffffffff8084166000908152602086815260408083209386168352929052205460ff165b949350505050565b73ffffffffffffffffffffffffffffffffffffffff8416610c1c576040517f08c379a000000000000000000000000000000000000000000000000000000000815260206004820152601860248201527f4552433732313a207472616e7366657220746f207a65726f0000000000000000604482015260640161029f565b6000610c29888789610b2b565b9050610c3b8888888888866000610cd5565b838573ffffffffffffffffffffffffffffffffffffffff168773ffffffffffffffffffffffffffffffffffffffff167fddf252ad1be2c89b69c2b068fc378daa952ba7f163c4a11628f55a4df523b3ef60405160405180910390a4818015610cb9575073ffffffffffffffffffffffffffffffffffffffff85163b15155b15610ccb57610ccb8787878787611019565b5050505050505050565b600083815260018801602052604090205473ffffffffffffffffffffffffffffffffffffffff86811690821614610d68576040517f08c379a000000000000000000000000000000000000000000000000000000000815260206004820152601560248201527f4552433732313a206e6f6e2d6f776e6564204e46540000000000000000000000604482015260640161029f565b82610fde57610dac6040518060400160405280600e81526020017f484848206f706572617461626c650000000000000000000000000000000000008152508461113f565b610dec6040518060400160405280601281526020017f4848482066726f6d203d3d2073656e646572000000000000000000000000000081525087896111d0565b604080518082018252601d81527f48484820732e6f70657261746f72735b66726f6d5d5b73656e6465725d00000060208083019190915273ffffffffffffffffffffffffffffffffffffffff808a1660009081528c8352848120918c16815291529190912054610e5f919060ff1661113f565b610e9b6040518060600160405280603381526020016119c960339139827401000000000000000000000000000000000000000081161515611263565b610eec6040518060600160405280603d815260200161198c603d9139600086815260038b016020526040902054899073ffffffffffffffffffffffffffffffffffffffff90811690821681146112f6565b610f2a6040518060400160405280600781526020017f484848202d2d2d0000000000000000000000000000000000000000000000000081525061138b565b74010000000000000000000000000000000000000000811615801590610f785750600084815260038901602052604090205473ffffffffffffffffffffffffffffffffffffffff8881169116145b610fde576040517f08c379a000000000000000000000000000000000000000000000000000000000815260206004820152601b60248201527f4552433732313a206e6f6e2d617070726f7665642073656e6465720000000000604482015260640161029f565b6000848152600189016020526040902073ffffffffffffffffffffffffffffffffffffffff8616905581610ccb57610ccb888787600161141a565b6040517f150b7a02000000000000000000000000000000000000000000000000000000008082529073ffffffffffffffffffffffffffffffffffffffff85169063150b7a02906110739089908990889088906004016117ff565b6020604051808303816000875af1158015611092573d6000803e3d6000fd5b505050506040513d601f19601f820116820180604052508101906110b69190611848565b7fffffffff0000000000000000000000000000000000000000000000000000000016146109c1576040517f08c379a000000000000000000000000000000000000000000000000000000000815260206004820152601860248201527f4552433732313a207472616e7366657220726566757365640000000000000000604482015260640161029f565b6101cd828260405160240161115592919061188a565b604080517fffffffffffffffffffffffffffffffffffffffffffffffffffffffffffffffe08184030181529190526020810180517bffffffffffffffffffffffffffffffffffffffffffffffffffffffff167fc3b55635000000000000000000000000000000000000000000000000000000001790526114cb565b6101e98383836040516024016111e8939291906118ae565b604080517fffffffffffffffffffffffffffffffffffffffffffffffffffffffffffffffe08184030181529190526020810180517bffffffffffffffffffffffffffffffffffffffffffffffffffffffff167ffcec75e0000000000000000000000000000000000000000000000000000000001790526114cb565b6101e983838360405160240161127b939291906118ee565b604080517fffffffffffffffffffffffffffffffffffffffffffffffffffffffffffffffe08184030181529190526020810180517bffffffffffffffffffffffffffffffffffffffffffffffffffffffff167ff102ee05000000000000000000000000000000000000000000000000000000001790526114cb565b61038e848484846040516024016113109493929190611918565b604080517fffffffffffffffffffffffffffffffffffffffffffffffffffffffffffffffe08184030181529190526020810180517bffffffffffffffffffffffffffffffffffffffffffffffffffffffff167fb59dbd60000000000000000000000000000000000000000000000000000000001790526114cb565b61046f8160405160240161139f9190611960565b604080517fffffffffffffffffffffffffffffffffffffffffffffffffffffffffffffffe08184030181529190526020810180517bffffffffffffffffffffffffffffffffffffffffffffffffffffffff167f41304fac000000000000000000000000000000000000000000000000000000001790526114cb565b8173ffffffffffffffffffffffffffffffffffffffff168373ffffffffffffffffffffffffffffffffffffffff161461038e5773ffffffffffffffffffffffffffffffffffffffff831660009081526002850160205260408120805483929061148490849061177d565b909155505073ffffffffffffffffffffffffffffffffffffffff82166000908152600285016020526040812080548392906114c0908490611973565b909155505050505050565b80516a636f6e736f6c652e6c6f67602083016000808483855afa5050505050565b6000602082840312156114fe57600080fd5b5035919050565b803573ffffffffffffffffffffffffffffffffffffffff8116811461152957600080fd5b919050565b6000806040838503121561154157600080fd5b61154a83611505565b946020939093013593505050565b60008060006060848603121561156d57600080fd5b61157684611505565b925061158460208501611505565b9150604084013590509250925092565b6000602082840312156115a657600080fd5b6115af82611505565b9392505050565b600080604083850312156115c957600080fd5b6115d283611505565b9150602083013580151581146115e757600080fd5b809150509250929050565b7f4e487b7100000000000000000000000000000000000000000000000000000000600052604160045260246000fd5b6000806000806080858703121561163757600080fd5b61164085611505565b935061164e60208601611505565b925060408501359150606085013567ffffffffffffffff8082111561167257600080fd5b818701915087601f83011261168657600080fd5b813581811115611698576116986115f2565b604051601f82017fffffffffffffffffffffffffffffffffffffffffffffffffffffffffffffffe0908116603f011681019083821181831017156116de576116de6115f2565b816040528281528a60208487010111156116f757600080fd5b82602086016020830137600060208483010152809550505050505092959194509250565b6000806040838503121561172e57600080fd5b61173783611505565b915061174560208401611505565b90509250929050565b7f4e487b7100000000000000000000000000000000000000000000000000000000600052601160045260246000fd5b60008282101561178f5761178f61174e565b500390565b6000815180845260005b818110156117ba5760208185018101518683018201520161179e565b818111156117cc576000602083870101525b50601f017fffffffffffffffffffffffffffffffffffffffffffffffffffffffffffffffe0169290920160200192915050565b600073ffffffffffffffffffffffffffffffffffffffff80871683528086166020840152508360408301526080606083015261183e6080830184611794565b9695505050505050565b60006020828403121561185a57600080fd5b81517fffffffff00000000000000000000000000000000000000000000000000000000811681146115af57600080fd5b60408152600061189d6040830185611794565b905082151560208301529392505050565b6060815260006118c16060830186611794565b73ffffffffffffffffffffffffffffffffffffffff94851660208401529290931660409091015292915050565b6060815260006119016060830186611794565b602083019490945250901515604090910152919050565b60808152600061192b6080830187611794565b73ffffffffffffffffffffffffffffffffffffffff958616602084015293909416604082015290151560609091015292915050565b6020815260006115af6020830184611794565b600082198211156119865761198661174e565b50019056fe4848482c2073656e6465722c20732e6e6674417070726f76616c735b69645d2c2073656e646572203d3d20732e6e6674417070726f76616c735b69645d4848482c206f776e65722c206f776e65722026205f415050524f56414c5f4249545f544f4b454e5f4f574e45525f20213d2030a2646970667358221220010de8518c22e7dbd9d7ceaba2874015a56f4211412cf034d50f128b87acd07e64736f6c634300080d0033",
  "linkReferences": {},
  "deployedLinkReferences": {}
}