{
  "_format": "hh-sol-artifact-1",
  "contractName": "ERC721TokenMetadataStorage",
  "sourceName": "contracts/token/ERC721/libraries/ERC721TokenMetadataStorage.sol",
  "abi": [
    {
      "inputs": [],
      "name": "ERC721TOKENMETADATA_STORAGE_POSITION",
      "outputs": [
        {
          "internalType": "bytes32",
          "name": "",
          "type": "bytes32"
        }
      ],
      "stateMutability": "view",
      "type": "function"
    },
    {
      "inputs": [],
      "name": "ERC721TOKENMETADATA_VERSION_SLOT",
      "outputs": [
        {
          "internalType": "bytes32",
          "name": "",
          "type": "bytes32"
        }
      ],
      "stateMutability": "view",
      "type": "function"
    }
  ],
  "bytecode": "0x61012561003a600b82828239805160001a60731461002d57634e487b7160e01b600052600060045260246000fd5b30600052607381538281f3fe7300000000000000000000000000000000000000003014608060405260043610603d5760003560e01c80630605407f146042578063560f99b514605a575b600080fd5b60486060565b60405190815260200160405180910390f35b6048608c565b608960017f80a74eae8bcf9e8f55188cf9804011cada267c6180689727a6232a4e641e71cc60b2565b81565b608960017fcea153e5352e750a7f7d04182593def5961809dc6d3d38bc5f28032d416d02d85b60008282101560ea577f4e487b7100000000000000000000000000000000000000000000000000000000600052601160045260246000fd5b50039056fea264697066735822122084bdb86363003e36e2dc8cd8e012e8e9bc170f96fb3e3f663a27087e3a2d2fcf64736f6c634300080e0033",
  "linkReferences": {},
  "deployedLinkReferences": {}
}