{
  "_format": "hh-sol-artifact-1",
  "contractName": "ERC20WrapperMock",
  "sourceName": "contracts/mocks/token/ERC20/ERC20WrapperMock.sol",
  "abi": [
    {
      "inputs": [],
      "stateMutability": "nonpayable",
      "type": "constructor"
    },
    {
      "inputs": [
        {
          "internalType": "address",
          "name": "spender",
          "type": "address"
        },
        {
          "internalType": "uint256",
          "name": "value",
          "type": "uint256"
        }
      ],
      "name": "failingApprove",
      "outputs": [],
      "stateMutability": "nonpayable",
      "type": "function"
    },
    {
      "inputs": [],
      "name": "failingERC20",
      "outputs": [
        {
          "internalType": "contract IERC20",
          "name": "",
          "type": "address"
        }
      ],
      "stateMutability": "view",
      "type": "function"
    },
    {
      "inputs": [
        {
          "internalType": "address",
          "name": "to",
          "type": "address"
        },
        {
          "internalType": "uint256",
          "name": "value",
          "type": "uint256"
        }
      ],
      "name": "failingTransfer",
      "outputs": [],
      "stateMutability": "nonpayable",
      "type": "function"
    },
    {
      "inputs": [
        {
          "internalType": "address",
          "name": "from",
          "type": "address"
        },
        {
          "internalType": "address",
          "name": "to",
          "type": "address"
        },
        {
          "internalType": "uint256",
          "name": "value",
          "type": "uint256"
        }
      ],
      "name": "failingTransferFrom",
      "outputs": [],
      "stateMutability": "nonpayable",
      "type": "function"
    },
    {
      "inputs": [
        {
          "internalType": "address",
          "name": "spender",
          "type": "address"
        },
        {
          "internalType": "uint256",
          "name": "value",
          "type": "uint256"
        }
      ],
      "name": "nonContractApprove",
      "outputs": [],
      "stateMutability": "nonpayable",
      "type": "function"
    },
    {
      "inputs": [],
      "name": "nonContractERC20",
      "outputs": [
        {
          "internalType": "contract IERC20",
          "name": "",
          "type": "address"
        }
      ],
      "stateMutability": "view",
      "type": "function"
    },
    {
      "inputs": [
        {
          "internalType": "address",
          "name": "to",
          "type": "address"
        },
        {
          "internalType": "uint256",
          "name": "value",
          "type": "uint256"
        }
      ],
      "name": "nonContractTransfer",
      "outputs": [],
      "stateMutability": "nonpayable",
      "type": "function"
    },
    {
      "inputs": [
        {
          "internalType": "address",
          "name": "from",
          "type": "address"
        },
        {
          "internalType": "address",
          "name": "to",
          "type": "address"
        },
        {
          "internalType": "uint256",
          "name": "value",
          "type": "uint256"
        }
      ],
      "name": "nonContractTransferFrom",
      "outputs": [],
      "stateMutability": "nonpayable",
      "type": "function"
    },
    {
      "inputs": [
        {
          "internalType": "address",
          "name": "spender",
          "type": "address"
        },
        {
          "internalType": "uint256",
          "name": "value",
          "type": "uint256"
        }
      ],
      "name": "nonStandardApprove",
      "outputs": [],
      "stateMutability": "nonpayable",
      "type": "function"
    },
    {
      "inputs": [],
      "name": "nonStandardERC20",
      "outputs": [
        {
          "internalType": "contract IERC20",
          "name": "",
          "type": "address"
        }
      ],
      "stateMutability": "view",
      "type": "function"
    },
    {
      "inputs": [
        {
          "internalType": "address",
          "name": "to",
          "type": "address"
        },
        {
          "internalType": "uint256",
          "name": "value",
          "type": "uint256"
        }
      ],
      "name": "nonStandardTransfer",
      "outputs": [],
      "stateMutability": "nonpayable",
      "type": "function"
    },
    {
      "inputs": [
        {
          "internalType": "address",
          "name": "from",
          "type": "address"
        },
        {
          "internalType": "address",
          "name": "to",
          "type": "address"
        },
        {
          "internalType": "uint256",
          "name": "value",
          "type": "uint256"
        }
      ],
      "name": "nonStandardTransferFrom",
      "outputs": [],
      "stateMutability": "nonpayable",
      "type": "function"
    },
    {
      "inputs": [
        {
          "internalType": "address",
          "name": "spender",
          "type": "address"
        },
        {
          "internalType": "uint256",
          "name": "value",
          "type": "uint256"
        }
      ],
      "name": "revertingApprove",
      "outputs": [],
      "stateMutability": "nonpayable",
      "type": "function"
    },
    {
      "inputs": [],
      "name": "revertingERC20",
      "outputs": [
        {
          "internalType": "contract IERC20",
          "name": "",
          "type": "address"
        }
      ],
      "stateMutability": "view",
      "type": "function"
    },
    {
      "inputs": [
        {
          "internalType": "address",
          "name": "to",
          "type": "address"
        },
        {
          "internalType": "uint256",
          "name": "value",
          "type": "uint256"
        }
      ],
      "name": "revertingTransfer",
      "outputs": [],
      "stateMutability": "nonpayable",
      "type": "function"
    },
    {
      "inputs": [
        {
          "internalType": "address",
          "name": "from",
          "type": "address"
        },
        {
          "internalType": "address",
          "name": "to",
          "type": "address"
        },
        {
          "internalType": "uint256",
          "name": "value",
          "type": "uint256"
        }
      ],
      "name": "revertingTransferFrom",
      "outputs": [],
      "stateMutability": "nonpayable",
      "type": "function"
    },
    {
      "inputs": [
        {
          "internalType": "address",
          "name": "spender",
          "type": "address"
        },
        {
          "internalType": "uint256",
          "name": "value",
          "type": "uint256"
        }
      ],
      "name": "revertingWithMessageApprove",
      "outputs": [],
      "stateMutability": "nonpayable",
      "type": "function"
    },
    {
      "inputs": [],
      "name": "revertingWithMessageERC20",
      "outputs": [
        {
          "internalType": "contract IERC20",
          "name": "",
          "type": "address"
        }
      ],
      "stateMutability": "view",
      "type": "function"
    },
    {
      "inputs": [
        {
          "internalType": "address",
          "name": "to",
          "type": "address"
        },
        {
          "internalType": "uint256",
          "name": "value",
          "type": "uint256"
        }
      ],
      "name": "revertingWithMessageTransfer",
      "outputs": [],
      "stateMutability": "nonpayable",
      "type": "function"
    },
    {
      "inputs": [
        {
          "internalType": "address",
          "name": "from",
          "type": "address"
        },
        {
          "internalType": "address",
          "name": "to",
          "type": "address"
        },
        {
          "internalType": "uint256",
          "name": "value",
          "type": "uint256"
        }
      ],
      "name": "revertingWithMessageTransferFrom",
      "outputs": [],
      "stateMutability": "nonpayable",
      "type": "function"
    },
    {
      "inputs": [
        {
          "internalType": "address",
          "name": "spender",
          "type": "address"
        },
        {
          "internalType": "uint256",
          "name": "value",
          "type": "uint256"
        }
      ],
      "name": "standardApprove",
      "outputs": [],
      "stateMutability": "nonpayable",
      "type": "function"
    },
    {
      "inputs": [],
      "name": "standardERC20",
      "outputs": [
        {
          "internalType": "contract IERC20",
          "name": "",
          "type": "address"
        }
      ],
      "stateMutability": "view",
      "type": "function"
    },
    {
      "inputs": [
        {
          "internalType": "address",
          "name": "to",
          "type": "address"
        },
        {
          "internalType": "uint256",
          "name": "value",
          "type": "uint256"
        }
      ],
      "name": "standardTransfer",
      "outputs": [],
      "stateMutability": "nonpayable",
      "type": "function"
    },
    {
      "inputs": [
        {
          "internalType": "address",
          "name": "from",
          "type": "address"
        },
        {
          "internalType": "address",
          "name": "to",
          "type": "address"
        },
        {
          "internalType": "uint256",
          "name": "value",
          "type": "uint256"
        }
      ],
      "name": "standardTransferFrom",
      "outputs": [],
      "stateMutability": "nonpayable",
      "type": "function"
    }
  ],
  "bytecode": "0x60806040523480156200001157600080fd5b5060405162000020906200019e565b604051809103906000f0801580156200003d573d6000803e3d6000fd5b50600080546001600160a01b0319166001600160a01b03929092169190911790556040516200006c90620001ac565b604051809103906000f08015801562000089573d6000803e3d6000fd5b50600180546001600160a01b0319166001600160a01b0392909216919091179055604051620000b890620001ba565b604051809103906000f080158015620000d5573d6000803e3d6000fd5b50600280546001600160a01b0319166001600160a01b03929092169190911790556040516200010490620001c8565b604051809103906000f08015801562000121573d6000803e3d6000fd5b50600380546001600160a01b0319166001600160a01b03929092169190911790556040516200015090620001d6565b604051809103906000f0801580156200016d573d6000803e3d6000fd5b50600480546001600160a01b03929092166001600160a01b03199283161790556005805490911633179055620001e4565b6101728062000e6283390190565b6101468062000fd483390190565b610171806200111a83390190565b61016a806200128b83390190565b6101cb80620013f583390190565b610c6e80620001f46000396000f3fe608060405234801561001057600080fd5b50600436106101985760003560e01c80636948334d116100e3578063b7aff4dd1161008c578063d14ad7e511610066578063d14ad7e514610398578063d4bc469f146103ab578063f9e67b82146103cb57600080fd5b8063b7aff4dd1461035f578063b908777314610372578063bc445dca1461038557600080fd5b80639b40ef54116100bd5780639b40ef5414610319578063a11b88da1461032c578063ab9c496f1461034c57600080fd5b80636948334d146102e05780636e6d3258146102f35780638d4b06321461030657600080fd5b8063456b094a1161014557806349db4ace1161011f57806349db4ace1461029a5780634cbfb045146102ba5780636503fcf3146102cd57600080fd5b8063456b094a14610247578063478850dd1461026757806349b2d2271461028757600080fd5b8063233d484211610176578063233d48421461020e57806325f8877f14610221578063372be8631461023457600080fd5b80630c12fd9b1461019d57806313d89ce2146101e65780632158e0bc146101fb575b600080fd5b6005546101bd9073ffffffffffffffffffffffffffffffffffffffff1681565b60405173ffffffffffffffffffffffffffffffffffffffff909116815260200160405180910390f35b6101f96101f4366004610af4565b6103de565b005b6101f9610209366004610af4565b610406565b6101f961021c366004610b1e565b61042a565b6101f961022f366004610af4565b610454565b6101f9610242366004610af4565b610478565b6000546101bd9073ffffffffffffffffffffffffffffffffffffffff1681565b6002546101bd9073ffffffffffffffffffffffffffffffffffffffff1681565b6101f9610295366004610af4565b61049c565b6003546101bd9073ffffffffffffffffffffffffffffffffffffffff1681565b6101f96102c8366004610b1e565b6104c0565b6101f96102db366004610b1e565b6104e5565b6101f96102ee366004610af4565b61050a565b6101f9610301366004610af4565b61052e565b6101f9610314366004610af4565b610552565b6101f9610327366004610b1e565b610576565b6004546101bd9073ffffffffffffffffffffffffffffffffffffffff1681565b6101f961035a366004610af4565b61059b565b6101f961036d366004610b1e565b6105bf565b6101f9610380366004610af4565b6105e4565b6101f9610393366004610b1e565b610608565b6101f96103a6366004610af4565b61062d565b6001546101bd9073ffffffffffffffffffffffffffffffffffffffff1681565b6101f96103d9366004610af4565b610651565b6001546104029073ffffffffffffffffffffffffffffffffffffffff168383610675565b5050565b6000546104029073ffffffffffffffffffffffffffffffffffffffff168383610675565b60055461044f9073ffffffffffffffffffffffffffffffffffffffff16848484610749565b505050565b6005546104029073ffffffffffffffffffffffffffffffffffffffff1683836107ad565b6002546104029073ffffffffffffffffffffffffffffffffffffffff1683836107ad565b6005546104029073ffffffffffffffffffffffffffffffffffffffff168383610675565b60025461044f9073ffffffffffffffffffffffffffffffffffffffff16848484610749565b60045461044f9073ffffffffffffffffffffffffffffffffffffffff16848484610749565b6002546104029073ffffffffffffffffffffffffffffffffffffffff168383610675565b6003546104029073ffffffffffffffffffffffffffffffffffffffff1683836107ad565b6004546104029073ffffffffffffffffffffffffffffffffffffffff168383610675565b60035461044f9073ffffffffffffffffffffffffffffffffffffffff16848484610749565b6001546104029073ffffffffffffffffffffffffffffffffffffffff1683836107ad565b60015461044f9073ffffffffffffffffffffffffffffffffffffffff16848484610749565b6004546104029073ffffffffffffffffffffffffffffffffffffffff1683836107ad565b60005461044f9073ffffffffffffffffffffffffffffffffffffffff16848484610749565b6003546104029073ffffffffffffffffffffffffffffffffffffffff168383610675565b6000546104029073ffffffffffffffffffffffffffffffffffffffff1683836107ad565b60405173ffffffffffffffffffffffffffffffffffffffff831660248201526044810182905261044f9084907fa9059cbb00000000000000000000000000000000000000000000000000000000906064015b604080517fffffffffffffffffffffffffffffffffffffffffffffffffffffffffffffffe08184030181529190526020810180517bffffffffffffffffffffffffffffffffffffffffffffffffffffffff167fffffffff0000000000000000000000000000000000000000000000000000000090931692909217909152610803565b60405173ffffffffffffffffffffffffffffffffffffffff808516602483015283166044820152606481018290526107a79085907f23b872dd00000000000000000000000000000000000000000000000000000000906084016106c7565b50505050565b60405173ffffffffffffffffffffffffffffffffffffffff831660248201526044810182905261044f9084907f095ea7b300000000000000000000000000000000000000000000000000000000906064016106c7565b600061084082604051806060016040528060238152602001610c166023913973ffffffffffffffffffffffffffffffffffffffff861691906108c9565b80519091501561044f578080602001905181019061085e9190610b5a565b61044f576040517f08c379a000000000000000000000000000000000000000000000000000000000815260206004820152601e60248201527f4552433230577261707065723a206f7065726174696f6e206661696c6564000060448201526064015b60405180910390fd5b60606108d884846000856108e2565b90505b9392505050565b606082471015610974576040517f08c379a000000000000000000000000000000000000000000000000000000000815260206004820152602660248201527f416464726573733a20696e73756666696369656e742062616c616e636520666f60448201527f722063616c6c000000000000000000000000000000000000000000000000000060648201526084016108c0565b73ffffffffffffffffffffffffffffffffffffffff85163b6109f2576040517f08c379a000000000000000000000000000000000000000000000000000000000815260206004820152601d60248201527f416464726573733a2063616c6c20746f206e6f6e2d636f6e747261637400000060448201526064016108c0565b6000808673ffffffffffffffffffffffffffffffffffffffff168587604051610a1b9190610ba8565b60006040518083038185875af1925050503d8060008114610a58576040519150601f19603f3d011682016040523d82523d6000602084013e610a5d565b606091505b5091509150610a6d828286610a78565b979650505050505050565b60608315610a875750816108db565b825115610a975782518084602001fd5b816040517f08c379a00000000000000000000000000000000000000000000000000000000081526004016108c09190610bc4565b803573ffffffffffffffffffffffffffffffffffffffff81168114610aef57600080fd5b919050565b60008060408385031215610b0757600080fd5b610b1083610acb565b946020939093013593505050565b600080600060608486031215610b3357600080fd5b610b3c84610acb565b9250610b4a60208501610acb565b9150604084013590509250925092565b600060208284031215610b6c57600080fd5b815180151581146108db57600080fd5b60005b83811015610b97578181015183820152602001610b7f565b838111156107a75750506000910152565b60008251610bba818460208701610b7c565b9190910192915050565b6020815260008251806020840152610be3816040850160208701610b7c565b601f017fffffffffffffffffffffffffffffffffffffffffffffffffffffffffffffffe016919091016040019291505056fe4552433230577261707065723a206c6f772d6c6576656c2063616c6c206661696c6564a2646970667358221220897db6ca80639f9e78841d6ed89143f22012c96eb9de264172dda8d68eb198e664736f6c634300080e0033608060405234801561001057600080fd5b50610152806100206000396000f3fe608060405234801561001057600080fd5b50600436106100415760003560e01c8063095ea7b31461004657806323b872dd14610073578063a9059cbb14610046575b600080fd5b61005f6100543660046100b6565b505060008055600190565b604051901515815260200160405180910390f35b61005f6100813660046100e0565b50506000805550600190565b803573ffffffffffffffffffffffffffffffffffffffff811681146100b157600080fd5b919050565b600080604083850312156100c957600080fd5b6100d28361008d565b946020939093013593505050565b6000806000606084860312156100f557600080fd5b6100fe8461008d565b925061010c6020850161008d565b915060408401359050925092509256fea264697066735822122038ceea194a99f65d53a3ca4a7c90be7c123be89d1107aa4551dda14c5bf0260464736f6c634300080e0033608060405234801561001057600080fd5b50610126806100206000396000f3fe6080604052348015600f57600080fd5b5060043610603c5760003560e01c8063095ea7b314604157806323b872dd146056578063a9059cbb146041575b600080fd5b6054604c3660046092565b505060008055565b005b6054606136600460b9565b50506000805550565b803573ffffffffffffffffffffffffffffffffffffffff81168114608d57600080fd5b919050565b6000806040838503121560a457600080fd5b60ab83606a565b946020939093013593505050565b60008060006060848603121560cd57600080fd5b60d484606a565b925060e060208501606a565b915060408401359050925092509256fea2646970667358221220cf084171785bc9708328f5c9a6d44ef2b30314a18189ab181caa96d2b3be7ced64736f6c634300080e0033608060405234801561001057600080fd5b50610151806100206000396000f3fe608060405234801561001057600080fd5b50600436106100415760003560e01c8063095ea7b31461004657806323b872dd14610072578063a9059cbb14610046575b600080fd5b61005e6100543660046100b5565b5050600080805590565b604051901515815260200160405180910390f35b61005e6100803660046100df565b60008080559392505050565b803573ffffffffffffffffffffffffffffffffffffffff811681146100b057600080fd5b919050565b600080604083850312156100c857600080fd5b6100d18361008c565b946020939093013593505050565b6000806000606084860312156100f457600080fd5b6100fd8461008c565b925061010b6020850161008c565b915060408401359050925092509256fea26469706673582212209015ae6782e0a2ec34bb4e84d6104b2e006f0473f57b2d0bcc00a6a6cc11d4d064736f6c634300080e0033608060405234801561001057600080fd5b5061014a806100206000396000f3fe608060405234801561001057600080fd5b50600436106100415760003560e01c8063095ea7b31461004657806323b872dd1461006d578063a9059cbb14610046575b600080fd5b6100596100543660046100ae565b61007b565b604051901515815260200160405180910390f35b6100596100543660046100d8565b6000808055808080fd5b803573ffffffffffffffffffffffffffffffffffffffff811681146100a957600080fd5b919050565b600080604083850312156100c157600080fd5b6100ca83610085565b946020939093013593505050565b6000806000606084860312156100ed57600080fd5b6100f684610085565b925061010460208501610085565b915060408401359050925092509256fea2646970667358221220ccd67abee49ba7a170e1b0d9e460c4397be9c2bead7a50a7963f7690ee4db3a464736f6c634300080e0033608060405234801561001057600080fd5b506101ab806100206000396000f3fe608060405234801561001057600080fd5b50600436106100415760003560e01c8063095ea7b31461004657806323b872dd1461006d578063a9059cbb14610046575b600080fd5b61005961005436600461010f565b61007b565b604051901515815260200160405180910390f35b610059610054366004610139565b60008080556040517f08c379a000000000000000000000000000000000000000000000000000000000815260206004820152600860248201527f7265766572746564000000000000000000000000000000000000000000000000604482015260640160405180910390fd5b803573ffffffffffffffffffffffffffffffffffffffff8116811461010a57600080fd5b919050565b6000806040838503121561012257600080fd5b61012b836100e6565b946020939093013593505050565b60008060006060848603121561014e57600080fd5b610157846100e6565b9250610165602085016100e6565b915060408401359050925092509256fea264697066735822122045c964a855ca61948cae88ea80734ef8b8f03dcd9982ca7a12dd5753c7759f4a64736f6c634300080e0033",
  "linkReferences": {},
  "deployedLinkReferences": {}
}