{
  "_format": "hh-sol-artifact-1",
  "contractName": "NonStandardERC20",
  "sourceName": "contracts/mocks/token/ERC20/ERC20WrapperMock.sol",
  "abi": [
    {
      "inputs": [
        {
          "internalType": "address",
          "name": "",
          "type": "address"
        },
        {
          "internalType": "uint256",
          "name": "",
          "type": "uint256"
        }
      ],
      "name": "approve",
      "outputs": [],
      "stateMutability": "nonpayable",
      "type": "function"
    },
    {
      "inputs": [
        {
          "internalType": "address",
          "name": "",
          "type": "address"
        },
        {
          "internalType": "uint256",
          "name": "",
          "type": "uint256"
        }
      ],
      "name": "transfer",
      "outputs": [],
      "stateMutability": "nonpayable",
      "type": "function"
    },
    {
      "inputs": [
        {
          "internalType": "address",
          "name": "",
          "type": "address"
        },
        {
          "internalType": "address",
          "name": "",
          "type": "address"
        },
        {
          "internalType": "uint256",
          "name": "",
          "type": "uint256"
        }
      ],
      "name": "transferFrom",
      "outputs": [],
      "stateMutability": "nonpayable",
      "type": "function"
    }
  ],
  "bytecode": "0x608060405234801561001057600080fd5b506103ad806100206000396000f3fe608060405234801561001057600080fd5b50600436106100415760003560e01c8063095ea7b31461004657806323b872dd14610062578063a9059cbb1461007e575b600080fd5b610060600480360381019061005b91906102e4565b61009a565b005b61007c60048036038101906100779190610324565b610129565b005b610098600480360381019061009391906102e4565b6101b9565b005b6100c67fe09725a801bafe01d14657b9dc150f3de2299adfb4e8f3387615ff78c34b0fbf60001b610248565b6100f27f106f5f323fd7c204ab4fc72021b89683f6b25631bc040f8aae3f3960379485f660001b610248565b61011e7f8d813237be835bd140529245edcdb79c948ada1229bd6a0a81f988f92f07b82360001b610248565b600080819055505050565b6101557f56b6c4aed003f2da5ede6a1669cb23fd1e26d8c7b6f4f4a25b8c90fd3d0f947160001b610248565b6101817f2f2366a2b907ca687aefea4ff057d365a46ff5533e07a2f6345ca48b08ea4c7560001b610248565b6101ad7f78c1862100f826f64e7ca86a81a4c1610cee878c340f0e4dd22333bd67c7588260001b610248565b60008081905550505050565b6101e57f9356914cb0c1c3379f11f839ebb769964a37c3bbd46bdc811cea22441348932b60001b610248565b6102117f3941ce9fd6b5aafefefceafcd2e567d7c4cb0ccf18ea59732b44a0b0e6a72bfa60001b610248565b61023d7fa9c4f6f924f892dad6986407a044e4b228e8658972cffb296cfb9611eb39623860001b610248565b600080819055505050565b50565b600080fd5b600073ffffffffffffffffffffffffffffffffffffffff82169050919050565b600061027b82610250565b9050919050565b61028b81610270565b811461029657600080fd5b50565b6000813590506102a881610282565b92915050565b6000819050919050565b6102c1816102ae565b81146102cc57600080fd5b50565b6000813590506102de816102b8565b92915050565b600080604083850312156102fb576102fa61024b565b5b600061030985828601610299565b925050602061031a858286016102cf565b9150509250929050565b60008060006060848603121561033d5761033c61024b565b5b600061034b86828701610299565b935050602061035c86828701610299565b925050604061036d868287016102cf565b915050925092509256fea2646970667358221220b65e46002e65f1060bbeefdc7026b5d205ac86d7f126942ab77600696b01743964736f6c634300080d0033",
  "linkReferences": {},
  "deployedLinkReferences": {}
}