{
  "_format": "hh-sol-artifact-1",
  "contractName": "RevertingWithMessageERC20",
  "sourceName": "contracts/mocks/token/ERC20/ERC20WrapperMock.sol",
  "abi": [
    {
      "inputs": [
        {
          "internalType": "address",
          "name": "",
          "type": "address"
        },
        {
          "internalType": "uint256",
          "name": "",
          "type": "uint256"
        }
      ],
      "name": "approve",
      "outputs": [
        {
          "internalType": "bool",
          "name": "",
          "type": "bool"
        }
      ],
      "stateMutability": "nonpayable",
      "type": "function"
    },
    {
      "inputs": [
        {
          "internalType": "address",
          "name": "",
          "type": "address"
        },
        {
          "internalType": "uint256",
          "name": "",
          "type": "uint256"
        }
      ],
      "name": "transfer",
      "outputs": [
        {
          "internalType": "bool",
          "name": "",
          "type": "bool"
        }
      ],
      "stateMutability": "nonpayable",
      "type": "function"
    },
    {
      "inputs": [
        {
          "internalType": "address",
          "name": "",
          "type": "address"
        },
        {
          "internalType": "address",
          "name": "",
          "type": "address"
        },
        {
          "internalType": "uint256",
          "name": "",
          "type": "uint256"
        }
      ],
      "name": "transferFrom",
      "outputs": [
        {
          "internalType": "bool",
          "name": "",
          "type": "bool"
        }
      ],
      "stateMutability": "nonpayable",
      "type": "function"
    }
  ],
  "bytecode": "0x608060405234801561001057600080fd5b506101ab806100206000396000f3fe608060405234801561001057600080fd5b50600436106100415760003560e01c8063095ea7b31461004657806323b872dd1461006d578063a9059cbb14610046575b600080fd5b61005961005436600461010f565b61007b565b604051901515815260200160405180910390f35b610059610054366004610139565b60008080556040517f08c379a000000000000000000000000000000000000000000000000000000000815260206004820152600860248201527f7265766572746564000000000000000000000000000000000000000000000000604482015260640160405180910390fd5b803573ffffffffffffffffffffffffffffffffffffffff8116811461010a57600080fd5b919050565b6000806040838503121561012257600080fd5b61012b836100e6565b946020939093013593505050565b60008060006060848603121561014e57600080fd5b610157846100e6565b9250610165602085016100e6565b915060408401359050925092509256fea26469706673582212200cbb2425e75dbe4cfb039901d473c901cd6e42d395d2f8945a6d0d6bbeb9efc764736f6c634300080f0033",
  "linkReferences": {},
  "deployedLinkReferences": {}
}