{
  "_format": "hh-sol-artifact-1",
  "contractName": "ERC20SafeTransfersFacetMock",
  "sourceName": "contracts/mocks/token/ERC20/facets/ERC20SafeTransfersFacetMock.sol",
  "abi": [
    {
      "inputs": [
        {
          "internalType": "contract IForwarderRegistry",
          "name": "forwarderRegistry",
          "type": "address"
        }
      ],
      "stateMutability": "nonpayable",
      "type": "constructor"
    },
    {
      "inputs": [],
      "name": "__msgData",
      "outputs": [
        {
          "internalType": "bytes",
          "name": "",
          "type": "bytes"
        }
      ],
      "stateMutability": "view",
      "type": "function"
    },
    {
      "inputs": [],
      "name": "initERC20SafeTransfersStorage",
      "outputs": [],
      "stateMutability": "nonpayable",
      "type": "function"
    },
    {
      "inputs": [
        {
          "internalType": "address",
          "name": "to",
          "type": "address"
        },
        {
          "internalType": "uint256",
          "name": "value",
          "type": "uint256"
        },
        {
          "internalType": "bytes",
          "name": "data",
          "type": "bytes"
        }
      ],
      "name": "safeTransfer",
      "outputs": [
        {
          "internalType": "bool",
          "name": "",
          "type": "bool"
        }
      ],
      "stateMutability": "nonpayable",
      "type": "function"
    },
    {
      "inputs": [
        {
          "internalType": "address",
          "name": "from",
          "type": "address"
        },
        {
          "internalType": "address",
          "name": "to",
          "type": "address"
        },
        {
          "internalType": "uint256",
          "name": "value",
          "type": "uint256"
        },
        {
          "internalType": "bytes",
          "name": "data",
          "type": "bytes"
        }
      ],
      "name": "safeTransferFrom",
      "outputs": [
        {
          "internalType": "bool",
          "name": "",
          "type": "bool"
        }
      ],
      "stateMutability": "nonpayable",
      "type": "function"
    }
  ],
  "bytecode": "0x60a060405234801561001057600080fd5b506040516110d63803806110d683398101604081905261002f91610040565b6001600160a01b0316608052610070565b60006020828403121561005257600080fd5b81516001600160a01b038116811461006957600080fd5b9392505050565b6080516110366100a060003960008181610384015281816103ee0152818161052c01526105cc01526110366000f3fe608060405234801561001057600080fd5b506004361061004c5760003560e01c806331e66e1e14610051578063b88d4fde14610070578063d294f8eb14610093578063eb7955491461009d575b600080fd5b6100596100b0565b604051610067929190610d01565b60405180910390f35b61008361007e366004610dc0565b6100c3565b6040519015158152602001610067565b61009b6100f4565b005b6100836100ab366004610e2f565b610117565b3660006100bb610145565b915091509091565b60006100e86100d0610150565b87878787876100dd61015f565b959493929190610193565b50600195945050505050565b61010d6100ff610150565b610107610209565b90610237565b6101156102c3565b565b600061013a610124610150565b8686868661013061015f565b94939291906102f8565b506001949350505050565b3660006100bb61036c565b600061015a6104f0565b905090565b60008061018d60017f1da92899d3da68bf9787824388a37ea2bfa79780bcef91b9716c390eec8ecbef610e89565b92915050565b6101a08787878787610648565b73ffffffffffffffffffffffffffffffffffffffff84163b15610200576102008686868686868080601f01602080910402602001604051908101604052809392919081815260200183838082843760009201919091525061069a92505050565b50505050505050565b60008061018d60017fb53127684a568b3173ae13b9f8a6016e243e63b6e8ee1178d6a717850b5d6104610e89565b815473ffffffffffffffffffffffffffffffffffffffff8281169116146102bf576040517f08c379a000000000000000000000000000000000000000000000000000000000815260206004820152601960248201527f50726f787941646d696e3a206e6f74207468652061646d696e0000000000000060448201526064015b60405180910390fd5b5050565b6101157f53f41a970000000000000000000000000000000000000000000000000000000060016102f16107c0565b91906107ee565b610304868686866108fa565b73ffffffffffffffffffffffffffffffffffffffff84163b15610364576103648586868686868080601f01602080910402602001604051908101604052809392919081815260200183838082843760009201919091525061069a92505050565b505050505050565b3660003332810361038257506000923692509050565b7f000000000000000000000000000000000000000000000000000000000000000073ffffffffffffffffffffffffffffffffffffffff168173ffffffffffffffffffffffffffffffffffffffff1614806104cf575073ffffffffffffffffffffffffffffffffffffffff7f00000000000000000000000000000000000000000000000000000000000000001663e60125d6367fffffffffffffffffffffffffffffffffffffffffffffffffffffffffffffffec013560601c6040517fffffffff0000000000000000000000000000000000000000000000000000000060e084901b16815273ffffffffffffffffffffffffffffffffffffffff91821660048201529084166024820152604401602060405180830381865afa1580156104ab573d6000803e3d6000fd5b505050506040513d601f19601f820116820180604052508101906104cf9190610ec7565b156104e5576104dc610ae9565b92509250509091565b506000923692509050565b6000333281036104ff57919050565b6000367fffffffffffffffffffffffffffffffffffffffffffffffffffffffffffffffec013560601c90507f000000000000000000000000000000000000000000000000000000000000000073ffffffffffffffffffffffffffffffffffffffff168273ffffffffffffffffffffffffffffffffffffffff16148061063757506040517fe60125d600000000000000000000000000000000000000000000000000000000815273ffffffffffffffffffffffffffffffffffffffff828116600483015283811660248301527f0000000000000000000000000000000000000000000000000000000000000000169063e60125d690604401602060405180830381865afa158015610613573d6000803e3d6000fd5b505050506040513d601f19601f820116820180604052508101906106379190610ec7565b156106425792915050565b50919050565b8373ffffffffffffffffffffffffffffffffffffffff168373ffffffffffffffffffffffffffffffffffffffff16146106875761068785848684610b07565b610693858484846108fa565b5050505050565b6040517f4fc35859000000000000000000000000000000000000000000000000000000008082529073ffffffffffffffffffffffffffffffffffffffff851690634fc35859906106f4908990899088908890600401610ef0565b6020604051808303816000875af1158015610713573d6000803e3d6000fd5b505050506040513d601f19601f820116820180604052508101906107379190610f94565b7fffffffff000000000000000000000000000000000000000000000000000000001614610693576040517f08c379a000000000000000000000000000000000000000000000000000000000815260206004820152601d60248201527f45524332303a2073616665207472616e736665722072656a656374656400000060448201526064016102b6565b60008061018d60017fca9d3e17f264b0f3984e2634e94adb37fa3e6a8103f06aeae6fa59e21c769f5e610e89565b7c01000000000000000000000000000000000000000000000000000000007fffffffff00000000000000000000000000000000000000000000000000000000831601610896576040517f08c379a000000000000000000000000000000000000000000000000000000000815260206004820152601f60248201527f496e74657266616365446574656374696f6e3a2077726f6e672076616c75650060448201526064016102b6565b7fffffffff00000000000000000000000000000000000000000000000000000000919091166000908152602092909252604090912080547fffffffffffffffffffffffffffffffffffffffffffffffffffffffffffffff0016911515919091179055565b73ffffffffffffffffffffffffffffffffffffffff8216610977576040517f08c379a000000000000000000000000000000000000000000000000000000000815260206004820152601d60248201527f45524332303a207472616e7366657220746f206164647265737328302900000060448201526064016102b6565b8015610a7c5773ffffffffffffffffffffffffffffffffffffffff8316600090815260208590526040902054818103818110610a0f576040517f08c379a000000000000000000000000000000000000000000000000000000000815260206004820152601b60248201527f45524332303a20696e73756666696369656e742062616c616e6365000000000060448201526064016102b6565b8373ffffffffffffffffffffffffffffffffffffffff168573ffffffffffffffffffffffffffffffffffffffff1614610a795773ffffffffffffffffffffffffffffffffffffffff8086166000908152602088905260408082208490559186168152208054840190555b50505b8173ffffffffffffffffffffffffffffffffffffffff168373ffffffffffffffffffffffffffffffffffffffff167fddf252ad1be2c89b69c2b068fc378daa952ba7f163c4a11628f55a4df523b3ef83604051610adb91815260200190565b60405180910390a350505050565b366000808083610afa601482610e89565b926100bb93929190610fd6565b73ffffffffffffffffffffffffffffffffffffffff8216610b84576040517f08c379a000000000000000000000000000000000000000000000000000000000815260206004820152601d60248201527f45524332303a20617070726f76616c20746f206164647265737328302900000060448201526064016102b6565b73ffffffffffffffffffffffffffffffffffffffff80841660009081526001860160209081526040808320938616835292905220547fffffffffffffffffffffffffffffffffffffffffffffffffffffffffffffffff8114801590610be857508115155b15610c9357818103818110610c59576040517f08c379a000000000000000000000000000000000000000000000000000000000815260206004820152601d60248201527f45524332303a20696e73756666696369656e7420616c6c6f77616e636500000060448201526064016102b6565b73ffffffffffffffffffffffffffffffffffffffff8086166000908152600188016020908152604080832093881683529290522081905590505b8273ffffffffffffffffffffffffffffffffffffffff168473ffffffffffffffffffffffffffffffffffffffff167f8c5be1e5ebec7d5bd14f71427d1e84f3dd0314c0f7b2291e5b200ac8c7c3b92583604051610cf291815260200190565b60405180910390a35050505050565b60208152816020820152818360408301376000818301604090810191909152601f9092017fffffffffffffffffffffffffffffffffffffffffffffffffffffffffffffffe0160101919050565b803573ffffffffffffffffffffffffffffffffffffffff81168114610d7257600080fd5b919050565b60008083601f840112610d8957600080fd5b50813567ffffffffffffffff811115610da157600080fd5b602083019150836020828501011115610db957600080fd5b9250929050565b600080600080600060808688031215610dd857600080fd5b610de186610d4e565b9450610def60208701610d4e565b935060408601359250606086013567ffffffffffffffff811115610e1257600080fd5b610e1e88828901610d77565b969995985093965092949392505050565b60008060008060608587031215610e4557600080fd5b610e4e85610d4e565b935060208501359250604085013567ffffffffffffffff811115610e7157600080fd5b610e7d87828801610d77565b95989497509550505050565b600082821015610ec2577f4e487b7100000000000000000000000000000000000000000000000000000000600052601160045260246000fd5b500390565b600060208284031215610ed957600080fd5b81518015158114610ee957600080fd5b9392505050565b600073ffffffffffffffffffffffffffffffffffffffff8087168352602081871681850152856040850152608060608501528451915081608085015260005b82811015610f4b5785810182015185820160a001528101610f2f565b82811115610f5d57600060a084870101525b5050601f017fffffffffffffffffffffffffffffffffffffffffffffffffffffffffffffffe0169190910160a00195945050505050565b600060208284031215610fa657600080fd5b81517fffffffff0000000000000000000000000000000000000000000000000000000081168114610ee957600080fd5b60008085851115610fe657600080fd5b83861115610ff357600080fd5b505082019391909203915056fea264697066735822122010707c8136010cbe33c9c3820a1ac9439158993047eabc5320bc2d46a2f26d0f64736f6c634300080e0033",
  "linkReferences": {},
  "deployedLinkReferences": {}
}