{
  "_format": "hh-sol-artifact-1",
  "contractName": "ERC20SafeTransfersFacetMock",
  "sourceName": "contracts/mocks/token/ERC20/facets/ERC20SafeTransfersFacetMock.sol",
  "abi": [
    {
      "inputs": [
        {
          "internalType": "contract IForwarderRegistry",
          "name": "forwarderRegistry",
          "type": "address"
        }
      ],
      "stateMutability": "nonpayable",
      "type": "constructor"
    },
    {
      "anonymous": false,
      "inputs": [
        {
          "indexed": true,
          "internalType": "address",
          "name": "owner",
          "type": "address"
        },
        {
          "indexed": true,
          "internalType": "address",
          "name": "spender",
          "type": "address"
        },
        {
          "indexed": false,
          "internalType": "uint256",
          "name": "value",
          "type": "uint256"
        }
      ],
      "name": "Approval",
      "type": "event"
    },
    {
      "anonymous": false,
      "inputs": [
        {
          "indexed": true,
          "internalType": "address",
          "name": "from",
          "type": "address"
        },
        {
          "indexed": true,
          "internalType": "address",
          "name": "to",
          "type": "address"
        },
        {
          "indexed": false,
          "internalType": "uint256",
          "name": "value",
          "type": "uint256"
        }
      ],
      "name": "Transfer",
      "type": "event"
    },
    {
      "inputs": [],
      "name": "__msgData",
      "outputs": [
        {
          "internalType": "bytes",
          "name": "",
          "type": "bytes"
        }
      ],
      "stateMutability": "view",
      "type": "function"
    },
    {
      "inputs": [],
      "name": "initERC20SafeTransfersStorage",
      "outputs": [],
      "stateMutability": "nonpayable",
      "type": "function"
    },
    {
      "inputs": [
        {
          "internalType": "address",
          "name": "to",
          "type": "address"
        },
        {
          "internalType": "uint256",
          "name": "value",
          "type": "uint256"
        },
        {
          "internalType": "bytes",
          "name": "data",
          "type": "bytes"
        }
      ],
      "name": "safeTransfer",
      "outputs": [
        {
          "internalType": "bool",
          "name": "",
          "type": "bool"
        }
      ],
      "stateMutability": "nonpayable",
      "type": "function"
    },
    {
      "inputs": [
        {
          "internalType": "address",
          "name": "from",
          "type": "address"
        },
        {
          "internalType": "address",
          "name": "to",
          "type": "address"
        },
        {
          "internalType": "uint256",
          "name": "value",
          "type": "uint256"
        },
        {
          "internalType": "bytes",
          "name": "data",
          "type": "bytes"
        }
      ],
      "name": "safeTransferFrom",
      "outputs": [
        {
          "internalType": "bool",
          "name": "",
          "type": "bool"
        }
      ],
      "stateMutability": "nonpayable",
      "type": "function"
    }
  ],
  "bytecode": "0x60a060405234801561000f575f80fd5b5060405161107138038061107183398101604081905261002e9161003f565b6001600160a01b031660805261006c565b5f6020828403121561004f575f80fd5b81516001600160a01b0381168114610065575f80fd5b9392505050565b608051610fd86100995f395f8181610395015281816103d301528181610507015261058f0152610fd85ff3fe608060405234801561000f575f80fd5b506004361061004a575f3560e01c806331e66e1e1461004e578063b88d4fde1461006d578063d294f8eb14610090578063eb7955491461009a575b5f80fd5b6100566100ad565b604051610064929190610ccb565b60405180910390f35b61008061007b366004610d84565b6100bf565b6040519015158152602001610064565b6100986100ef565b005b6100806100a8366004610dee565b610112565b365f6100b761013f565b915091509091565b5f6100e36100cb610149565b87878787876100d8610157565b95949392919061018a565b50600195945050505050565b6101086100fa610149565b6101026101ff565b9061022c565b6101106102b8565b565b5f61013461011e610149565b8686868661012a610157565b94939291906102ed565b506001949350505050565b365f6100b7610360565b5f6101526104c5565b905090565b5f8061018460017f1da92899d3da68bf9787824388a37ea2bfa79780bcef91b9716c390eec8ecbef610e44565b92915050565b6101978787878787610609565b73ffffffffffffffffffffffffffffffffffffffff84163b156101f6576101f68686868686868080601f0160208091040260200160405190810160405280939291908181526020018383808284375f9201919091525061065b92505050565b50505050505050565b5f8061018460017fb53127684a568b3173ae13b9f8a6016e243e63b6e8ee1178d6a717850b5d6104610e44565b815473ffffffffffffffffffffffffffffffffffffffff8281169116146102b4576040517f08c379a000000000000000000000000000000000000000000000000000000000815260206004820152601960248201527f50726f787941646d696e3a206e6f74207468652061646d696e0000000000000060448201526064015b60405180910390fd5b5050565b6101107f53f41a970000000000000000000000000000000000000000000000000000000060016102e661077e565b91906107ab565b6102f9868686866108b6565b73ffffffffffffffffffffffffffffffffffffffff84163b15610358576103588586868686868080601f0160208091040260200160405190810160405280939291908181526020018383808284375f9201919091525061065b92505050565b505050505050565b365f333214806103705750601836105b1561037d57505f91369150565b3373ffffffffffffffffffffffffffffffffffffffff7f00000000000000000000000000000000000000000000000000000000000000001614806104b0575073ffffffffffffffffffffffffffffffffffffffff7f000000000000000000000000000000000000000000000000000000000000000016638929a8ca367fffffffffffffffffffffffffffffffffffffffffffffffffffffffffffffffec013560601c6040517fffffffff0000000000000000000000000000000000000000000000000000000060e084901b16815273ffffffffffffffffffffffffffffffffffffffff9091166004820152336024820152604401602060405180830381865afa15801561048c573d5f803e3d5ffd5b505050506040513d601f19601f820116820180604052508101906104b09190610e7c565b156104bd576100b7610aa3565b505f91369150565b5f333214806104d45750601836105b156104de57503390565b7fffffffffffffffffffffffffffffffffffffffffffffffffffffffffffffffec36013560601c7f000000000000000000000000000000000000000000000000000000000000000073ffffffffffffffffffffffffffffffffffffffff163314806105f857506040517f8929a8ca00000000000000000000000000000000000000000000000000000000815273ffffffffffffffffffffffffffffffffffffffff82811660048301523360248301527f00000000000000000000000000000000000000000000000000000000000000001690638929a8ca90604401602060405180830381865afa1580156105d4573d5f803e3d5ffd5b505050506040513d601f19601f820116820180604052508101906105f89190610e7c565b1561060257919050565b3391505090565b8373ffffffffffffffffffffffffffffffffffffffff168373ffffffffffffffffffffffffffffffffffffffff16146106485761064885848684610ad3565b610654858484846108b6565b5050505050565b6040517f4fc35859000000000000000000000000000000000000000000000000000000008082529073ffffffffffffffffffffffffffffffffffffffff851690634fc35859906106b5908990899088908890600401610ea2565b6020604051808303815f875af11580156106d1573d5f803e3d5ffd5b505050506040513d601f19601f820116820180604052508101906106f59190610f3c565b7fffffffff000000000000000000000000000000000000000000000000000000001614610654576040517f08c379a000000000000000000000000000000000000000000000000000000000815260206004820152601d60248201527f45524332303a2073616665207472616e736665722072656a656374656400000060448201526064016102ab565b5f8061018460017fca9d3e17f264b0f3984e2634e94adb37fa3e6a8103f06aeae6fa59e21c769f5e610e44565b7c01000000000000000000000000000000000000000000000000000000007fffffffff00000000000000000000000000000000000000000000000000000000831601610853576040517f08c379a000000000000000000000000000000000000000000000000000000000815260206004820152601f60248201527f496e74657266616365446574656374696f6e3a2077726f6e672076616c75650060448201526064016102ab565b7fffffffff00000000000000000000000000000000000000000000000000000000919091165f908152602092909252604090912080547fffffffffffffffffffffffffffffffffffffffffffffffffffffffffffffff0016911515919091179055565b73ffffffffffffffffffffffffffffffffffffffff8216610933576040517f08c379a000000000000000000000000000000000000000000000000000000000815260206004820152601d60248201527f45524332303a207472616e7366657220746f206164647265737328302900000060448201526064016102ab565b8015610a365773ffffffffffffffffffffffffffffffffffffffff83165f908152602085905260409020548181038181106109ca576040517f08c379a000000000000000000000000000000000000000000000000000000000815260206004820152601b60248201527f45524332303a20696e73756666696369656e742062616c616e6365000000000060448201526064016102ab565b8373ffffffffffffffffffffffffffffffffffffffff168573ffffffffffffffffffffffffffffffffffffffff1614610a335773ffffffffffffffffffffffffffffffffffffffff8086165f908152602088905260408082208490559186168152208054840190555b50505b8173ffffffffffffffffffffffffffffffffffffffff168373ffffffffffffffffffffffffffffffffffffffff167fddf252ad1be2c89b69c2b068fc378daa952ba7f163c4a11628f55a4df523b3ef83604051610a9591815260200190565b60405180910390a350505050565b365f6100b77fffffffffffffffffffffffffffffffffffffffffffffffffffffffffffffffec8301828481610f7b565b73ffffffffffffffffffffffffffffffffffffffff8216610b50576040517f08c379a000000000000000000000000000000000000000000000000000000000815260206004820152601d60248201527f45524332303a20617070726f76616c20746f206164647265737328302900000060448201526064016102ab565b73ffffffffffffffffffffffffffffffffffffffff8084165f9081526001860160209081526040808320938616835292905220547fffffffffffffffffffffffffffffffffffffffffffffffffffffffffffffffff8114801590610bb357508115155b15610c5d57818103818110610c24576040517f08c379a000000000000000000000000000000000000000000000000000000000815260206004820152601d60248201527f45524332303a20696e73756666696369656e7420616c6c6f77616e636500000060448201526064016102ab565b73ffffffffffffffffffffffffffffffffffffffff8086165f908152600188016020908152604080832093881683529290522081905590505b8273ffffffffffffffffffffffffffffffffffffffff168473ffffffffffffffffffffffffffffffffffffffff167f8c5be1e5ebec7d5bd14f71427d1e84f3dd0314c0f7b2291e5b200ac8c7c3b92583604051610cbc91815260200190565b60405180910390a35050505050565b60208152816020820152818360408301375f818301604090810191909152601f9092017fffffffffffffffffffffffffffffffffffffffffffffffffffffffffffffffe0160101919050565b803573ffffffffffffffffffffffffffffffffffffffff81168114610d3a575f80fd5b919050565b5f8083601f840112610d4f575f80fd5b50813567ffffffffffffffff811115610d66575f80fd5b602083019150836020828501011115610d7d575f80fd5b9250929050565b5f805f805f60808688031215610d98575f80fd5b610da186610d17565b9450610daf60208701610d17565b935060408601359250606086013567ffffffffffffffff811115610dd1575f80fd5b610ddd88828901610d3f565b969995985093965092949392505050565b5f805f8060608587031215610e01575f80fd5b610e0a85610d17565b935060208501359250604085013567ffffffffffffffff811115610e2c575f80fd5b610e3887828801610d3f565b95989497509550505050565b81810381811115610184577f4e487b71000000000000000000000000000000000000000000000000000000005f52601160045260245ffd5b5f60208284031215610e8c575f80fd5b81518015158114610e9b575f80fd5b9392505050565b5f73ffffffffffffffffffffffffffffffffffffffff808716835260208187168185015285604085015260806060850152845191508160808501525f5b82811015610efb5785810182015185820160a001528101610edf565b50505f60a0828501015260a07fffffffffffffffffffffffffffffffffffffffffffffffffffffffffffffffe0601f83011684010191505095945050505050565b5f60208284031215610f4c575f80fd5b81517fffffffff0000000000000000000000000000000000000000000000000000000081168114610e9b575f80fd5b5f8085851115610f89575f80fd5b83861115610f95575f80fd5b505082019391909203915056fea26469706673582212206dc2c1e23ee1f349759068d55067be51efb38d31e859758cf43993cbbe83dd8564736f6c63430008150033",
  "linkReferences": {},
  "deployedLinkReferences": {}
}