{
  "_format": "hh-sol-artifact-1",
  "contractName": "PauseStorage",
  "sourceName": "contracts/lifecycle/libraries/PauseStorage.sol",
  "abi": [
    {
      "anonymous": false,
      "inputs": [],
      "name": "Paused",
      "type": "event"
    },
    {
      "anonymous": false,
      "inputs": [],
      "name": "Unpaused",
      "type": "event"
    },
    {
      "inputs": [],
      "name": "PAUSE_STORAGE_POSITION",
      "outputs": [
        {
          "internalType": "bytes32",
          "name": "",
          "type": "bytes32"
        }
      ],
      "stateMutability": "view",
      "type": "function"
    },
    {
      "inputs": [],
      "name": "PAUSE_VERSION_SLOT",
      "outputs": [
        {
          "internalType": "bytes32",
          "name": "",
          "type": "bytes32"
        }
      ],
      "stateMutability": "view",
      "type": "function"
    }
  ],
  "bytecode": "0x61012561003a600b82828239805160001a60731461002d57634e487b7160e01b600052600060045260246000fd5b30600052607381538281f3fe7300000000000000000000000000000000000000003014608060405260043610603d5760003560e01c80630bf958a5146042578063da56b50014605a575b600080fd5b60486060565b60405190815260200160405180910390f35b6048608c565b608960017ffd6a7063f27337ade8f0157bddcda1459491d9175ccca22006adfec651d73f4960b2565b81565b608960017fe5fb6784a0a1056070a5e6f0674bfa852aad166e8d480f190f09f2cc31863ff35b60008282101560ea577f4e487b7100000000000000000000000000000000000000000000000000000000600052601160045260246000fd5b50039056fea26469706673582212207d94075ffefd7f74b8743844d7594aa70c3f64c207d8c9ac894d037086893c8864736f6c634300080e0033",
  "linkReferences": {},
  "deployedLinkReferences": {}
}