{
  "_format": "hh-sol-artifact-1",
  "contractName": "ERC721WithOperatorFiltererFacetMock",
  "sourceName": "contracts/mocks/token/ERC721/facets/ERC721WithOperatorFiltererFacetMock.sol",
  "abi": [
    {
      "inputs": [
        {
          "internalType": "contract IForwarderRegistry",
          "name": "forwarderRegistry",
          "type": "address"
        }
      ],
      "stateMutability": "nonpayable",
      "type": "constructor"
    },
    {
      "inputs": [],
      "name": "ERC721BalanceOfAddressZero",
      "type": "error"
    },
    {
      "inputs": [
        {
          "internalType": "address",
          "name": "sender",
          "type": "address"
        },
        {
          "internalType": "address",
          "name": "owner",
          "type": "address"
        },
        {
          "internalType": "uint256",
          "name": "tokenId",
          "type": "uint256"
        }
      ],
      "name": "ERC721NonApprovedForApproval",
      "type": "error"
    },
    {
      "inputs": [
        {
          "internalType": "address",
          "name": "sender",
          "type": "address"
        },
        {
          "internalType": "address",
          "name": "owner",
          "type": "address"
        },
        {
          "internalType": "uint256",
          "name": "tokenId",
          "type": "uint256"
        }
      ],
      "name": "ERC721NonApprovedForTransfer",
      "type": "error"
    },
    {
      "inputs": [
        {
          "internalType": "uint256",
          "name": "tokenId",
          "type": "uint256"
        }
      ],
      "name": "ERC721NonExistingToken",
      "type": "error"
    },
    {
      "inputs": [
        {
          "internalType": "address",
          "name": "account",
          "type": "address"
        },
        {
          "internalType": "uint256",
          "name": "tokenId",
          "type": "uint256"
        }
      ],
      "name": "ERC721NonOwnedToken",
      "type": "error"
    },
    {
      "inputs": [
        {
          "internalType": "address",
          "name": "recipient",
          "type": "address"
        },
        {
          "internalType": "uint256",
          "name": "tokenId",
          "type": "uint256"
        }
      ],
      "name": "ERC721SafeTransferRejected",
      "type": "error"
    },
    {
      "inputs": [
        {
          "internalType": "address",
          "name": "account",
          "type": "address"
        }
      ],
      "name": "ERC721SelfApproval",
      "type": "error"
    },
    {
      "inputs": [
        {
          "internalType": "address",
          "name": "account",
          "type": "address"
        }
      ],
      "name": "ERC721SelfApprovalForAll",
      "type": "error"
    },
    {
      "inputs": [],
      "name": "ERC721TransferToAddressZero",
      "type": "error"
    },
    {
      "inputs": [],
      "name": "IllegalInterfaceId",
      "type": "error"
    },
    {
      "inputs": [
        {
          "internalType": "address",
          "name": "account",
          "type": "address"
        }
      ],
      "name": "NotProxyAdmin",
      "type": "error"
    },
    {
      "inputs": [
        {
          "internalType": "address",
          "name": "operator",
          "type": "address"
        }
      ],
      "name": "OperatorNotAllowed",
      "type": "error"
    },
    {
      "anonymous": false,
      "inputs": [
        {
          "indexed": true,
          "internalType": "address",
          "name": "owner",
          "type": "address"
        },
        {
          "indexed": true,
          "internalType": "address",
          "name": "approved",
          "type": "address"
        },
        {
          "indexed": true,
          "internalType": "uint256",
          "name": "tokenId",
          "type": "uint256"
        }
      ],
      "name": "Approval",
      "type": "event"
    },
    {
      "anonymous": false,
      "inputs": [
        {
          "indexed": true,
          "internalType": "address",
          "name": "owner",
          "type": "address"
        },
        {
          "indexed": true,
          "internalType": "address",
          "name": "operator",
          "type": "address"
        },
        {
          "indexed": false,
          "internalType": "bool",
          "name": "approved",
          "type": "bool"
        }
      ],
      "name": "ApprovalForAll",
      "type": "event"
    },
    {
      "anonymous": false,
      "inputs": [
        {
          "indexed": true,
          "internalType": "address",
          "name": "from",
          "type": "address"
        },
        {
          "indexed": true,
          "internalType": "address",
          "name": "to",
          "type": "address"
        },
        {
          "indexed": true,
          "internalType": "uint256",
          "name": "tokenId",
          "type": "uint256"
        }
      ],
      "name": "Transfer",
      "type": "event"
    },
    {
      "inputs": [],
      "name": "__msgData",
      "outputs": [
        {
          "internalType": "bytes",
          "name": "",
          "type": "bytes"
        }
      ],
      "stateMutability": "view",
      "type": "function"
    },
    {
      "inputs": [
        {
          "internalType": "address",
          "name": "to",
          "type": "address"
        },
        {
          "internalType": "uint256",
          "name": "tokenId",
          "type": "uint256"
        }
      ],
      "name": "approve",
      "outputs": [],
      "stateMutability": "nonpayable",
      "type": "function"
    },
    {
      "inputs": [
        {
          "internalType": "address",
          "name": "owner",
          "type": "address"
        }
      ],
      "name": "balanceOf",
      "outputs": [
        {
          "internalType": "uint256",
          "name": "balance",
          "type": "uint256"
        }
      ],
      "stateMutability": "view",
      "type": "function"
    },
    {
      "inputs": [
        {
          "internalType": "uint256",
          "name": "tokenId",
          "type": "uint256"
        }
      ],
      "name": "getApproved",
      "outputs": [
        {
          "internalType": "address",
          "name": "approved",
          "type": "address"
        }
      ],
      "stateMutability": "view",
      "type": "function"
    },
    {
      "inputs": [],
      "name": "initERC721Storage",
      "outputs": [],
      "stateMutability": "nonpayable",
      "type": "function"
    },
    {
      "inputs": [
        {
          "internalType": "address",
          "name": "owner",
          "type": "address"
        },
        {
          "internalType": "address",
          "name": "operator",
          "type": "address"
        }
      ],
      "name": "isApprovedForAll",
      "outputs": [
        {
          "internalType": "bool",
          "name": "approvedForAll",
          "type": "bool"
        }
      ],
      "stateMutability": "view",
      "type": "function"
    },
    {
      "inputs": [
        {
          "internalType": "uint256",
          "name": "tokenId",
          "type": "uint256"
        }
      ],
      "name": "ownerOf",
      "outputs": [
        {
          "internalType": "address",
          "name": "tokenOwner",
          "type": "address"
        }
      ],
      "stateMutability": "view",
      "type": "function"
    },
    {
      "inputs": [
        {
          "internalType": "address",
          "name": "from",
          "type": "address"
        },
        {
          "internalType": "address",
          "name": "to",
          "type": "address"
        },
        {
          "internalType": "uint256",
          "name": "tokenId",
          "type": "uint256"
        }
      ],
      "name": "safeTransferFrom",
      "outputs": [],
      "stateMutability": "nonpayable",
      "type": "function"
    },
    {
      "inputs": [
        {
          "internalType": "address",
          "name": "from",
          "type": "address"
        },
        {
          "internalType": "address",
          "name": "to",
          "type": "address"
        },
        {
          "internalType": "uint256",
          "name": "tokenId",
          "type": "uint256"
        },
        {
          "internalType": "bytes",
          "name": "data",
          "type": "bytes"
        }
      ],
      "name": "safeTransferFrom",
      "outputs": [],
      "stateMutability": "nonpayable",
      "type": "function"
    },
    {
      "inputs": [
        {
          "internalType": "address",
          "name": "operator",
          "type": "address"
        },
        {
          "internalType": "bool",
          "name": "approved",
          "type": "bool"
        }
      ],
      "name": "setApprovalForAll",
      "outputs": [],
      "stateMutability": "nonpayable",
      "type": "function"
    },
    {
      "inputs": [
        {
          "internalType": "address",
          "name": "from",
          "type": "address"
        },
        {
          "internalType": "address",
          "name": "to",
          "type": "address"
        },
        {
          "internalType": "uint256",
          "name": "tokenId",
          "type": "uint256"
        }
      ],
      "name": "transferFrom",
      "outputs": [],
      "stateMutability": "nonpayable",
      "type": "function"
    }
  ],
  "bytecode": "0x60a060405234801561001057600080fd5b5060405161193338038061193383398101604081905261002f91610040565b6001600160a01b0316608052610070565b60006020828403121561005257600080fd5b81516001600160a01b038116811461006957600080fd5b9392505050565b6080516118936100a060003960008181610fa40152818161102c01528181611154015261119201526118936000f3fe608060405234801561001057600080fd5b50600436106100c95760003560e01c80636352211e11610081578063b1c7ee021161005b578063b1c7ee02146101a3578063b88d4fde146101ab578063e985e9c5146101be57600080fd5b80636352211e1461015c57806370a082311461016f578063a22cb4651461019057600080fd5b806323b872dd116100b257806323b872dd1461012057806331e66e1e1461013357806342842e0e1461014957600080fd5b8063081812fc146100ce578063095ea7b31461010b575b600080fd5b6100e16100dc3660046114d7565b6101e1565b60405173ffffffffffffffffffffffffffffffffffffffff90911681526020015b60405180910390f35b61011e610119366004611519565b6101fb565b005b61011e61012e366004611543565b61024a565b61013b610288565b60405161010292919061157f565b61011e610157366004611543565b61029b565b6100e161016a3660046114d7565b6102cc565b61018261017d3660046115cc565b6102e0565b604051908152602001610102565b61011e61019e3660046115f8565b6102f4565b61011e610323565b61011e6101b936600461162f565b610346565b6101d16101cc3660046116ca565b610383565b6040519015158152602001610102565b60006101f5826101ef6103d8565b90610406565b92915050565b73ffffffffffffffffffffffffffffffffffffffff82161561022957610229826102236104bf565b906104ed565b6102466102346104f7565b838361023e6103d8565b929190610506565b5050565b60006102546104f7565b905061026a81856102636104bf565b9190610781565b610282818585856102796103d8565b939291906107c3565b50505050565b366000610293610aa1565b915091509091565b60006102a56104f7565b90506102b481856102636104bf565b610282818585856102c36103d8565b93929190610aac565b60006101f5826102da6103d8565b90610af9565b60006101f5826102ee6103d8565b90610b62565b801561030657610306826102236104bf565b6102466103116104f7565b838361031b6103d8565b929190610bde565b61033c61032e6104f7565b610336610cf6565b90610d24565b610344610d8f565b565b60006103506104f7565b905061035f81876102636104bf565b61037b8187878787876103706103d8565b959493929190610dc4565b505050505050565b60006103d183836103926103d8565b919073ffffffffffffffffffffffffffffffffffffffff9182166000908152600393909301602090815260408085209290931684525290205460ff1690565b9392505050565b6000806101f560017fddf3ee18ae6d688373c219468f8be446e7ae82215f4779d821c7ea5e8c13c0c16116fd565b60008181526020839052604081205473ffffffffffffffffffffffffffffffffffffffff811661046a576040517fdd560475000000000000000000000000000000000000000000000000000000008152600481018490526024015b60405180910390fd5b740100000000000000000000000000000000000000008116156104b5575050600081815260028301602052604090205473ffffffffffffffffffffffffffffffffffffffff166101f5565b60009150506101f5565b6000806101f560017f609b85bcafa81ecfaf3ff62cdde2c6c9082a68dbe4922f07399c706bdeb7cd316116fd565b6102468282610e3a565b6000610501610f61565b905090565b60008181526020859052604090205473ffffffffffffffffffffffffffffffffffffffff8116610565576040517fdd56047500000000000000000000000000000000000000000000000000000000815260048101839052602401610461565b8073ffffffffffffffffffffffffffffffffffffffff808216908516036105d0576040517fb7fdc01000000000000000000000000000000000000000000000000000000000815273ffffffffffffffffffffffffffffffffffffffff82166004820152602401610461565b6105db8682876110a8565b610638576040517fc7563a1800000000000000000000000000000000000000000000000000000000815273ffffffffffffffffffffffffffffffffffffffff80871660048301528216602482015260448101849052606401610461565b73ffffffffffffffffffffffffffffffffffffffff841661069d577401000000000000000000000000000000000000000082161561069857600083815260208790526040902073ffffffffffffffffffffffffffffffffffffffff821690555b61071e565b7401000000000000000000000000000000000000000082178083146106ce5760008481526020889052604090208190555b506000838152600287016020526040902080547fffffffffffffffffffffffff00000000000000000000000000000000000000001673ffffffffffffffffffffffffffffffffffffffff86161790555b828473ffffffffffffffffffffffffffffffffffffffff168273ffffffffffffffffffffffffffffffffffffffff167f8c5be1e5ebec7d5bd14f71427d1e84f3dd0314c0f7b2291e5b200ac8c7c3b92560405160405180910390a4505050505050565b8073ffffffffffffffffffffffffffffffffffffffff168273ffffffffffffffffffffffffffffffffffffffff16146107be576107be8383610e3a565b505050565b73ffffffffffffffffffffffffffffffffffffffff8216610810576040517f86c8706700000000000000000000000000000000000000000000000000000000815260040160405180910390fd5b60008181526020869052604090205473ffffffffffffffffffffffffffffffffffffffff811661086f576040517fdd56047500000000000000000000000000000000000000000000000000000000815260048101839052602401610461565b73ffffffffffffffffffffffffffffffffffffffff84168173ffffffffffffffffffffffffffffffffffffffff16146108f3576040517f14dbb53600000000000000000000000000000000000000000000000000000000815273ffffffffffffffffffffffffffffffffffffffff8516600482015260248101839052604401610461565b6108fe8685876110a8565b6109ad57740100000000000000000000000000000000000000008116158061094f5750600082815260028701602052604090205473ffffffffffffffffffffffffffffffffffffffff868116911614155b156109ad576040517fa4a3018b00000000000000000000000000000000000000000000000000000000815273ffffffffffffffffffffffffffffffffffffffff80871660048301528516602482015260448101839052606401610461565b600082815260208790526040902073ffffffffffffffffffffffffffffffffffffffff80851691829055851614610a3e5773ffffffffffffffffffffffffffffffffffffffff80851660009081526001808901602052604080832080547fffffffffffffffffffffffffffffffffffffffffffffffffffffffffffffffff0190559286168252919020805490910190555b818373ffffffffffffffffffffffffffffffffffffffff168573ffffffffffffffffffffffffffffffffffffffff167fddf252ad1be2c89b69c2b068fc378daa952ba7f163c4a11628f55a4df523b3ef60405160405180910390a4505050505050565b36600061029361111d565b610ab985858585856107c3565b73ffffffffffffffffffffffffffffffffffffffff82163b15610af257610af28484848460405180602001604052806000815250611287565b5050505050565b60008181526020839052604081205473ffffffffffffffffffffffffffffffffffffffff8116610b58576040517fdd56047500000000000000000000000000000000000000000000000000000000815260048101849052602401610461565b805b949350505050565b600073ffffffffffffffffffffffffffffffffffffffff8216610bb1576040517faefbce4e00000000000000000000000000000000000000000000000000000000815260040160405180910390fd5b5073ffffffffffffffffffffffffffffffffffffffff166000908152600191909101602052604090205490565b8273ffffffffffffffffffffffffffffffffffffffff168273ffffffffffffffffffffffffffffffffffffffff1603610c5b576040517fe4215c6a00000000000000000000000000000000000000000000000000000000815273ffffffffffffffffffffffffffffffffffffffff84166004820152602401610461565b73ffffffffffffffffffffffffffffffffffffffff838116600081815260038701602090815260408083209487168084529482529182902080547fffffffffffffffffffffffffffffffffffffffffffffffffffffffffffffff001686151590811790915591519182527f17307eab39ab6107e8899845ad3d59bd9653f200f220920489ca2b5937696c31910160405180910390a350505050565b6000806101f560017fb53127684a568b3173ae13b9f8a6016e243e63b6e8ee1178d6a717850b5d61046116fd565b815473ffffffffffffffffffffffffffffffffffffffff828116911614610246576040517f673a31a100000000000000000000000000000000000000000000000000000000815273ffffffffffffffffffffffffffffffffffffffff82166004820152602401610461565b6103447f80ac58cd000000000000000000000000000000000000000000000000000000006001610dbd61139c565b91906113ca565b610dd187878787876107c3565b73ffffffffffffffffffffffffffffffffffffffff84163b15610e3157610e318686868686868080601f01602080910402602001604051908101604052809392919081815260200183838082843760009201919091525061128792505050565b50505050505050565b815473ffffffffffffffffffffffffffffffffffffffff168015801590610e78575060008173ffffffffffffffffffffffffffffffffffffffff163b115b156107be576040517fc617113400000000000000000000000000000000000000000000000000000000815230600482015273ffffffffffffffffffffffffffffffffffffffff838116602483015282169063c617113490604401602060405180830381865afa158015610eef573d6000803e3d6000fd5b505050506040513d601f19601f82011682018060405250810190610f139190611737565b6107be576040517fede71dcc00000000000000000000000000000000000000000000000000000000815273ffffffffffffffffffffffffffffffffffffffff83166004820152602401610461565b600033321480610f715750601836105b15610f7b57503390565b7fffffffffffffffffffffffffffffffffffffffffffffffffffffffffffffffec36013560601c7f000000000000000000000000000000000000000000000000000000000000000073ffffffffffffffffffffffffffffffffffffffff1633148061109757506040517f8929a8ca00000000000000000000000000000000000000000000000000000000815273ffffffffffffffffffffffffffffffffffffffff82811660048301523360248301527f00000000000000000000000000000000000000000000000000000000000000001690638929a8ca90604401602060405180830381865afa158015611073573d6000803e3d6000fd5b505050506040513d601f19601f820116820180604052508101906110979190611737565b156110a157919050565b3391505090565b60008173ffffffffffffffffffffffffffffffffffffffff168373ffffffffffffffffffffffffffffffffffffffff161480610b5a57505073ffffffffffffffffffffffffffffffffffffffff9182166000908152600393909301602090815260408085209290931684525290205460ff1690565b3660003332148061112e5750601836105b1561113c5750600091369150565b3373ffffffffffffffffffffffffffffffffffffffff7f0000000000000000000000000000000000000000000000000000000000000000161480611271575073ffffffffffffffffffffffffffffffffffffffff7f000000000000000000000000000000000000000000000000000000000000000016638929a8ca367fffffffffffffffffffffffffffffffffffffffffffffffffffffffffffffffec013560601c6040517fffffffff0000000000000000000000000000000000000000000000000000000060e084901b16815273ffffffffffffffffffffffffffffffffffffffff9091166004820152336024820152604401602060405180830381865afa15801561124d573d6000803e3d6000fd5b505050506040513d601f19601f820116820180604052508101906112719190611737565b1561127e576102936114a6565b50600091369150565b6040517f150b7a02000000000000000000000000000000000000000000000000000000008082529073ffffffffffffffffffffffffffffffffffffffff85169063150b7a02906112e1908990899088908890600401611754565b6020604051808303816000875af1158015611300573d6000803e3d6000fd5b505050506040513d601f19601f8201168201806040525081019061132491906117f1565b7fffffffff000000000000000000000000000000000000000000000000000000001614610af2576040517fc215a7a100000000000000000000000000000000000000000000000000000000815273ffffffffffffffffffffffffffffffffffffffff8416600482015260248101839052604401610461565b6000806101f560017fca9d3e17f264b0f3984e2634e94adb37fa3e6a8103f06aeae6fa59e21c769f5e6116fd565b7c01000000000000000000000000000000000000000000000000000000007fffffffff00000000000000000000000000000000000000000000000000000000831601611442576040517f72c683bb00000000000000000000000000000000000000000000000000000000815260040160405180910390fd5b7fffffffff00000000000000000000000000000000000000000000000000000000919091166000908152602092909252604090912080547fffffffffffffffffffffffffffffffffffffffffffffffffffffffffffffff0016911515919091179055565b3660006102937fffffffffffffffffffffffffffffffffffffffffffffffffffffffffffffffec8301828481611833565b6000602082840312156114e957600080fd5b5035919050565b803573ffffffffffffffffffffffffffffffffffffffff8116811461151457600080fd5b919050565b6000806040838503121561152c57600080fd5b611535836114f0565b946020939093013593505050565b60008060006060848603121561155857600080fd5b611561846114f0565b925061156f602085016114f0565b9150604084013590509250925092565b60208152816020820152818360408301376000818301604090810191909152601f9092017fffffffffffffffffffffffffffffffffffffffffffffffffffffffffffffffe0160101919050565b6000602082840312156115de57600080fd5b6103d1826114f0565b80151581146115f557600080fd5b50565b6000806040838503121561160b57600080fd5b611614836114f0565b91506020830135611624816115e7565b809150509250929050565b60008060008060006080868803121561164757600080fd5b611650866114f0565b945061165e602087016114f0565b935060408601359250606086013567ffffffffffffffff8082111561168257600080fd5b818801915088601f83011261169657600080fd5b8135818111156116a557600080fd5b8960208285010111156116b757600080fd5b9699959850939650602001949392505050565b600080604083850312156116dd57600080fd5b6116e6836114f0565b91506116f4602084016114f0565b90509250929050565b818103818111156101f5577f4e487b7100000000000000000000000000000000000000000000000000000000600052601160045260246000fd5b60006020828403121561174957600080fd5b81516103d1816115e7565b600073ffffffffffffffffffffffffffffffffffffffff8087168352602081871681850152856040850152608060608501528451915081608085015260005b828110156117af5785810182015185820160a001528101611793565b5050600060a0828501015260a07fffffffffffffffffffffffffffffffffffffffffffffffffffffffffffffffe0601f83011684010191505095945050505050565b60006020828403121561180357600080fd5b81517fffffffff00000000000000000000000000000000000000000000000000000000811681146103d157600080fd5b6000808585111561184357600080fd5b8386111561185057600080fd5b505082019391909203915056fea264697066735822122073de93a4a58748a90f8085ce90ce2d40495f6a476f5e048147cef19c37298ded64736f6c63430008150033",
  "linkReferences": {},
  "deployedLinkReferences": {}
}