{
  "_format": "hh-sol-artifact-1",
  "contractName": "ERC1155FullBurnMock",
  "sourceName": "contracts/mocks/token/ERC1155/preset/ERC1155FullBurnMock.sol",
  "abi": [
    {
      "inputs": [
        {
          "internalType": "string",
          "name": "tokenName",
          "type": "string"
        },
        {
          "internalType": "string",
          "name": "tokenSymbol",
          "type": "string"
        },
        {
          "internalType": "contract ITokenMetadataResolver",
          "name": "metadataResolver",
          "type": "address"
        },
        {
          "internalType": "contract IOperatorFilterRegistry",
          "name": "filterRegistry",
          "type": "address"
        },
        {
          "internalType": "contract IForwarderRegistry",
          "name": "forwarderRegistry",
          "type": "address"
        }
      ],
      "stateMutability": "nonpayable",
      "type": "constructor"
    },
    {
      "inputs": [],
      "name": "ERC1155BalanceOfAddressZero",
      "type": "error"
    },
    {
      "inputs": [
        {
          "internalType": "address",
          "name": "recipient",
          "type": "address"
        },
        {
          "internalType": "uint256",
          "name": "id",
          "type": "uint256"
        },
        {
          "internalType": "uint256",
          "name": "balance",
          "type": "uint256"
        },
        {
          "internalType": "uint256",
          "name": "value",
          "type": "uint256"
        }
      ],
      "name": "ERC1155BalanceOverflow",
      "type": "error"
    },
    {
      "inputs": [
        {
          "internalType": "address",
          "name": "owner",
          "type": "address"
        },
        {
          "internalType": "uint256",
          "name": "id",
          "type": "uint256"
        },
        {
          "internalType": "uint256",
          "name": "balance",
          "type": "uint256"
        },
        {
          "internalType": "uint256",
          "name": "value",
          "type": "uint256"
        }
      ],
      "name": "ERC1155InsufficientBalance",
      "type": "error"
    },
    {
      "inputs": [],
      "name": "ERC1155MintToAddressZero",
      "type": "error"
    },
    {
      "inputs": [
        {
          "internalType": "address",
          "name": "sender",
          "type": "address"
        },
        {
          "internalType": "address",
          "name": "owner",
          "type": "address"
        }
      ],
      "name": "ERC1155NonApproved",
      "type": "error"
    },
    {
      "inputs": [
        {
          "internalType": "address",
          "name": "recipient",
          "type": "address"
        },
        {
          "internalType": "uint256[]",
          "name": "ids",
          "type": "uint256[]"
        },
        {
          "internalType": "uint256[]",
          "name": "values",
          "type": "uint256[]"
        }
      ],
      "name": "ERC1155SafeBatchTransferRejected",
      "type": "error"
    },
    {
      "inputs": [
        {
          "internalType": "address",
          "name": "recipient",
          "type": "address"
        },
        {
          "internalType": "uint256",
          "name": "id",
          "type": "uint256"
        },
        {
          "internalType": "uint256",
          "name": "value",
          "type": "uint256"
        }
      ],
      "name": "ERC1155SafeTransferRejected",
      "type": "error"
    },
    {
      "inputs": [
        {
          "internalType": "address",
          "name": "account",
          "type": "address"
        }
      ],
      "name": "ERC1155SelfApprovalForAll",
      "type": "error"
    },
    {
      "inputs": [],
      "name": "ERC1155TransferToAddressZero",
      "type": "error"
    },
    {
      "inputs": [
        {
          "internalType": "uint256",
          "name": "percentage",
          "type": "uint256"
        }
      ],
      "name": "ERC2981IncorrectRoyaltyPercentage",
      "type": "error"
    },
    {
      "inputs": [],
      "name": "ERC2981IncorrectRoyaltyReceiver",
      "type": "error"
    },
    {
      "inputs": [],
      "name": "IllegalInterfaceId",
      "type": "error"
    },
    {
      "inputs": [],
      "name": "InconsistentArrayLengths",
      "type": "error"
    },
    {
      "inputs": [
        {
          "internalType": "address",
          "name": "account",
          "type": "address"
        }
      ],
      "name": "NotContractOwner",
      "type": "error"
    },
    {
      "inputs": [
        {
          "internalType": "bytes32",
          "name": "role",
          "type": "bytes32"
        },
        {
          "internalType": "address",
          "name": "account",
          "type": "address"
        }
      ],
      "name": "NotRoleHolder",
      "type": "error"
    },
    {
      "inputs": [
        {
          "internalType": "address",
          "name": "operator",
          "type": "address"
        }
      ],
      "name": "OperatorNotAllowed",
      "type": "error"
    },
    {
      "anonymous": false,
      "inputs": [
        {
          "indexed": true,
          "internalType": "address",
          "name": "owner",
          "type": "address"
        },
        {
          "indexed": true,
          "internalType": "address",
          "name": "operator",
          "type": "address"
        },
        {
          "indexed": false,
          "internalType": "bool",
          "name": "approved",
          "type": "bool"
        }
      ],
      "name": "ApprovalForAll",
      "type": "event"
    },
    {
      "anonymous": false,
      "inputs": [
        {
          "indexed": true,
          "internalType": "address",
          "name": "previousOwner",
          "type": "address"
        },
        {
          "indexed": true,
          "internalType": "address",
          "name": "newOwner",
          "type": "address"
        }
      ],
      "name": "OwnershipTransferred",
      "type": "event"
    },
    {
      "anonymous": false,
      "inputs": [
        {
          "indexed": false,
          "internalType": "bytes32",
          "name": "role",
          "type": "bytes32"
        },
        {
          "indexed": false,
          "internalType": "address",
          "name": "account",
          "type": "address"
        },
        {
          "indexed": false,
          "internalType": "address",
          "name": "operator",
          "type": "address"
        }
      ],
      "name": "RoleGranted",
      "type": "event"
    },
    {
      "anonymous": false,
      "inputs": [
        {
          "indexed": false,
          "internalType": "bytes32",
          "name": "role",
          "type": "bytes32"
        },
        {
          "indexed": false,
          "internalType": "address",
          "name": "account",
          "type": "address"
        },
        {
          "indexed": false,
          "internalType": "address",
          "name": "operator",
          "type": "address"
        }
      ],
      "name": "RoleRevoked",
      "type": "event"
    },
    {
      "anonymous": false,
      "inputs": [
        {
          "indexed": true,
          "internalType": "address",
          "name": "operator",
          "type": "address"
        },
        {
          "indexed": true,
          "internalType": "address",
          "name": "from",
          "type": "address"
        },
        {
          "indexed": true,
          "internalType": "address",
          "name": "to",
          "type": "address"
        },
        {
          "indexed": false,
          "internalType": "uint256[]",
          "name": "ids",
          "type": "uint256[]"
        },
        {
          "indexed": false,
          "internalType": "uint256[]",
          "name": "values",
          "type": "uint256[]"
        }
      ],
      "name": "TransferBatch",
      "type": "event"
    },
    {
      "anonymous": false,
      "inputs": [
        {
          "indexed": true,
          "internalType": "address",
          "name": "operator",
          "type": "address"
        },
        {
          "indexed": true,
          "internalType": "address",
          "name": "from",
          "type": "address"
        },
        {
          "indexed": true,
          "internalType": "address",
          "name": "to",
          "type": "address"
        },
        {
          "indexed": false,
          "internalType": "uint256",
          "name": "id",
          "type": "uint256"
        },
        {
          "indexed": false,
          "internalType": "uint256",
          "name": "value",
          "type": "uint256"
        }
      ],
      "name": "TransferSingle",
      "type": "event"
    },
    {
      "anonymous": false,
      "inputs": [
        {
          "indexed": false,
          "internalType": "string",
          "name": "value",
          "type": "string"
        },
        {
          "indexed": true,
          "internalType": "uint256",
          "name": "id",
          "type": "uint256"
        }
      ],
      "name": "URI",
      "type": "event"
    },
    {
      "inputs": [],
      "name": "MINTER_ROLE",
      "outputs": [
        {
          "internalType": "bytes32",
          "name": "",
          "type": "bytes32"
        }
      ],
      "stateMutability": "view",
      "type": "function"
    },
    {
      "inputs": [],
      "name": "ROYALTY_FEE_DENOMINATOR",
      "outputs": [
        {
          "internalType": "uint256",
          "name": "",
          "type": "uint256"
        }
      ],
      "stateMutability": "view",
      "type": "function"
    },
    {
      "inputs": [],
      "name": "__msgData",
      "outputs": [
        {
          "internalType": "bytes",
          "name": "",
          "type": "bytes"
        }
      ],
      "stateMutability": "view",
      "type": "function"
    },
    {
      "inputs": [
        {
          "internalType": "address",
          "name": "owner",
          "type": "address"
        },
        {
          "internalType": "uint256",
          "name": "id",
          "type": "uint256"
        }
      ],
      "name": "balanceOf",
      "outputs": [
        {
          "internalType": "uint256",
          "name": "balance",
          "type": "uint256"
        }
      ],
      "stateMutability": "view",
      "type": "function"
    },
    {
      "inputs": [
        {
          "internalType": "address[]",
          "name": "owners",
          "type": "address[]"
        },
        {
          "internalType": "uint256[]",
          "name": "ids",
          "type": "uint256[]"
        }
      ],
      "name": "balanceOfBatch",
      "outputs": [
        {
          "internalType": "uint256[]",
          "name": "balances",
          "type": "uint256[]"
        }
      ],
      "stateMutability": "view",
      "type": "function"
    },
    {
      "inputs": [
        {
          "internalType": "address",
          "name": "from",
          "type": "address"
        },
        {
          "internalType": "uint256[]",
          "name": "ids",
          "type": "uint256[]"
        },
        {
          "internalType": "uint256[]",
          "name": "values",
          "type": "uint256[]"
        }
      ],
      "name": "batchBurnFrom",
      "outputs": [],
      "stateMutability": "nonpayable",
      "type": "function"
    },
    {
      "inputs": [
        {
          "internalType": "address",
          "name": "from",
          "type": "address"
        },
        {
          "internalType": "uint256",
          "name": "id",
          "type": "uint256"
        },
        {
          "internalType": "uint256",
          "name": "value",
          "type": "uint256"
        }
      ],
      "name": "burnFrom",
      "outputs": [],
      "stateMutability": "nonpayable",
      "type": "function"
    },
    {
      "inputs": [],
      "name": "forwarderRegistry",
      "outputs": [
        {
          "internalType": "contract IForwarderRegistry",
          "name": "",
          "type": "address"
        }
      ],
      "stateMutability": "view",
      "type": "function"
    },
    {
      "inputs": [
        {
          "internalType": "bytes32",
          "name": "role",
          "type": "bytes32"
        },
        {
          "internalType": "address",
          "name": "account",
          "type": "address"
        }
      ],
      "name": "grantRole",
      "outputs": [],
      "stateMutability": "nonpayable",
      "type": "function"
    },
    {
      "inputs": [
        {
          "internalType": "bytes32",
          "name": "role",
          "type": "bytes32"
        },
        {
          "internalType": "address",
          "name": "account",
          "type": "address"
        }
      ],
      "name": "hasRole",
      "outputs": [
        {
          "internalType": "bool",
          "name": "hasRole_",
          "type": "bool"
        }
      ],
      "stateMutability": "view",
      "type": "function"
    },
    {
      "inputs": [
        {
          "internalType": "address",
          "name": "owner",
          "type": "address"
        },
        {
          "internalType": "address",
          "name": "operator",
          "type": "address"
        }
      ],
      "name": "isApprovedForAll",
      "outputs": [
        {
          "internalType": "bool",
          "name": "approvedForAll",
          "type": "bool"
        }
      ],
      "stateMutability": "view",
      "type": "function"
    },
    {
      "inputs": [
        {
          "internalType": "address",
          "name": "forwarder",
          "type": "address"
        }
      ],
      "name": "isTrustedForwarder",
      "outputs": [
        {
          "internalType": "bool",
          "name": "",
          "type": "bool"
        }
      ],
      "stateMutability": "view",
      "type": "function"
    },
    {
      "inputs": [],
      "name": "metadataResolver",
      "outputs": [
        {
          "internalType": "contract ITokenMetadataResolver",
          "name": "tokenMetadataResolver",
          "type": "address"
        }
      ],
      "stateMutability": "view",
      "type": "function"
    },
    {
      "inputs": [],
      "name": "name",
      "outputs": [
        {
          "internalType": "string",
          "name": "tokenName",
          "type": "string"
        }
      ],
      "stateMutability": "view",
      "type": "function"
    },
    {
      "inputs": [],
      "name": "operatorFilterRegistry",
      "outputs": [
        {
          "internalType": "contract IOperatorFilterRegistry",
          "name": "",
          "type": "address"
        }
      ],
      "stateMutability": "view",
      "type": "function"
    },
    {
      "inputs": [],
      "name": "owner",
      "outputs": [
        {
          "internalType": "address",
          "name": "",
          "type": "address"
        }
      ],
      "stateMutability": "view",
      "type": "function"
    },
    {
      "inputs": [
        {
          "internalType": "address[]",
          "name": "accounts",
          "type": "address[]"
        },
        {
          "internalType": "contract IERC20[]",
          "name": "tokens",
          "type": "address[]"
        },
        {
          "internalType": "uint256[]",
          "name": "amounts",
          "type": "uint256[]"
        }
      ],
      "name": "recoverERC20s",
      "outputs": [],
      "stateMutability": "nonpayable",
      "type": "function"
    },
    {
      "inputs": [
        {
          "internalType": "address[]",
          "name": "accounts",
          "type": "address[]"
        },
        {
          "internalType": "contract IERC721[]",
          "name": "contracts",
          "type": "address[]"
        },
        {
          "internalType": "uint256[]",
          "name": "tokenIds",
          "type": "uint256[]"
        }
      ],
      "name": "recoverERC721s",
      "outputs": [],
      "stateMutability": "nonpayable",
      "type": "function"
    },
    {
      "inputs": [
        {
          "internalType": "address payable[]",
          "name": "accounts",
          "type": "address[]"
        },
        {
          "internalType": "uint256[]",
          "name": "amounts",
          "type": "uint256[]"
        }
      ],
      "name": "recoverETH",
      "outputs": [],
      "stateMutability": "nonpayable",
      "type": "function"
    },
    {
      "inputs": [
        {
          "internalType": "bytes32",
          "name": "role",
          "type": "bytes32"
        }
      ],
      "name": "renounceRole",
      "outputs": [],
      "stateMutability": "nonpayable",
      "type": "function"
    },
    {
      "inputs": [
        {
          "internalType": "bytes32",
          "name": "role",
          "type": "bytes32"
        },
        {
          "internalType": "address",
          "name": "account",
          "type": "address"
        }
      ],
      "name": "revokeRole",
      "outputs": [],
      "stateMutability": "nonpayable",
      "type": "function"
    },
    {
      "inputs": [
        {
          "internalType": "uint256",
          "name": "tokenId",
          "type": "uint256"
        },
        {
          "internalType": "uint256",
          "name": "salePrice",
          "type": "uint256"
        }
      ],
      "name": "royaltyInfo",
      "outputs": [
        {
          "internalType": "address",
          "name": "receiver",
          "type": "address"
        },
        {
          "internalType": "uint256",
          "name": "royaltyAmount",
          "type": "uint256"
        }
      ],
      "stateMutability": "view",
      "type": "function"
    },
    {
      "inputs": [
        {
          "internalType": "address",
          "name": "to",
          "type": "address"
        },
        {
          "internalType": "uint256[]",
          "name": "ids",
          "type": "uint256[]"
        },
        {
          "internalType": "uint256[]",
          "name": "values",
          "type": "uint256[]"
        },
        {
          "internalType": "bytes",
          "name": "data",
          "type": "bytes"
        }
      ],
      "name": "safeBatchMint",
      "outputs": [],
      "stateMutability": "nonpayable",
      "type": "function"
    },
    {
      "inputs": [
        {
          "internalType": "address",
          "name": "from",
          "type": "address"
        },
        {
          "internalType": "address",
          "name": "to",
          "type": "address"
        },
        {
          "internalType": "uint256[]",
          "name": "ids",
          "type": "uint256[]"
        },
        {
          "internalType": "uint256[]",
          "name": "values",
          "type": "uint256[]"
        },
        {
          "internalType": "bytes",
          "name": "data",
          "type": "bytes"
        }
      ],
      "name": "safeBatchTransferFrom",
      "outputs": [],
      "stateMutability": "nonpayable",
      "type": "function"
    },
    {
      "inputs": [
        {
          "internalType": "address[]",
          "name": "recipients",
          "type": "address[]"
        },
        {
          "internalType": "uint256[]",
          "name": "ids",
          "type": "uint256[]"
        },
        {
          "internalType": "uint256[]",
          "name": "values",
          "type": "uint256[]"
        },
        {
          "internalType": "bytes",
          "name": "data",
          "type": "bytes"
        }
      ],
      "name": "safeDeliver",
      "outputs": [],
      "stateMutability": "nonpayable",
      "type": "function"
    },
    {
      "inputs": [
        {
          "internalType": "address",
          "name": "to",
          "type": "address"
        },
        {
          "internalType": "uint256",
          "name": "id",
          "type": "uint256"
        },
        {
          "internalType": "uint256",
          "name": "value",
          "type": "uint256"
        },
        {
          "internalType": "bytes",
          "name": "data",
          "type": "bytes"
        }
      ],
      "name": "safeMint",
      "outputs": [],
      "stateMutability": "nonpayable",
      "type": "function"
    },
    {
      "inputs": [
        {
          "internalType": "address",
          "name": "from",
          "type": "address"
        },
        {
          "internalType": "address",
          "name": "to",
          "type": "address"
        },
        {
          "internalType": "uint256",
          "name": "id",
          "type": "uint256"
        },
        {
          "internalType": "uint256",
          "name": "value",
          "type": "uint256"
        },
        {
          "internalType": "bytes",
          "name": "data",
          "type": "bytes"
        }
      ],
      "name": "safeTransferFrom",
      "outputs": [],
      "stateMutability": "nonpayable",
      "type": "function"
    },
    {
      "inputs": [
        {
          "internalType": "address",
          "name": "operator",
          "type": "address"
        },
        {
          "internalType": "bool",
          "name": "approved",
          "type": "bool"
        }
      ],
      "name": "setApprovalForAll",
      "outputs": [],
      "stateMutability": "nonpayable",
      "type": "function"
    },
    {
      "inputs": [
        {
          "internalType": "uint256",
          "name": "percentage",
          "type": "uint256"
        }
      ],
      "name": "setRoyaltyPercentage",
      "outputs": [],
      "stateMutability": "nonpayable",
      "type": "function"
    },
    {
      "inputs": [
        {
          "internalType": "address",
          "name": "receiver",
          "type": "address"
        }
      ],
      "name": "setRoyaltyReceiver",
      "outputs": [],
      "stateMutability": "nonpayable",
      "type": "function"
    },
    {
      "inputs": [
        {
          "internalType": "bytes4",
          "name": "interfaceId",
          "type": "bytes4"
        }
      ],
      "name": "supportsInterface",
      "outputs": [
        {
          "internalType": "bool",
          "name": "",
          "type": "bool"
        }
      ],
      "stateMutability": "view",
      "type": "function"
    },
    {
      "inputs": [],
      "name": "symbol",
      "outputs": [
        {
          "internalType": "string",
          "name": "tokenSymbol",
          "type": "string"
        }
      ],
      "stateMutability": "view",
      "type": "function"
    },
    {
      "inputs": [
        {
          "internalType": "address",
          "name": "newOwner",
          "type": "address"
        }
      ],
      "name": "transferOwnership",
      "outputs": [],
      "stateMutability": "nonpayable",
      "type": "function"
    },
    {
      "inputs": [
        {
          "internalType": "contract IOperatorFilterRegistry",
          "name": "registry",
          "type": "address"
        }
      ],
      "name": "updateOperatorFilterRegistry",
      "outputs": [],
      "stateMutability": "nonpayable",
      "type": "function"
    },
    {
      "inputs": [
        {
          "internalType": "uint256",
          "name": "tokenId",
          "type": "uint256"
        }
      ],
      "name": "uri",
      "outputs": [
        {
          "internalType": "string",
          "name": "metadataURI",
          "type": "string"
        }
      ],
      "stateMutability": "view",
      "type": "function"
    }
  ],
  "bytecode": "0x60a06040523480156200001157600080fd5b506040516200466c3803806200466c83398101604081905262000034916200044d565b84848484848080868686863362000056816200004f620000fd565b9062000133565b5062000061620001ae565b6200008e8162000070620001c8565b9081546001600160a01b0319166001600160a01b0391909116179055565b50620000a9838383620000a0620001f8565b92919062000228565b620000b36200026f565b50620000c191505062000287565b620000cb6200029f565b620000d5620002b7565b620000df620002cf565b6001600160a01b031660805250620006769950505050505050505050565b6000806200012d60017fc9ed16f33ab3a66c84bfd83099ccb2a8845871e2e1c1928f63797152f0fd54cd620004f9565b92915050565b6001600160a01b038116156200018a5781546001600160a01b0319166001600160a01b03821690811783556040516000907f8be0079c531659141344cd1fd0a4f28419497f9722a3daafe3b4186f6b6457e0908290a35b620001aa6307f5828d60e41b6001620001a2620002e2565b919062000312565b5050565b620001c6636cdb3d1360e11b6001620001a2620002e2565b565b6000806200012d60017f609b85bcafa81ecfaf3ff62cdde2c6c9082a68dbe4922f07399c706bdeb7cd31620004f9565b6000806200012d60017f7ea68fd2dcf1c056b94db6a0a537aa80d26fa9ab1eacd85da1ba0b61b7e7a8a5620004f9565b83620002358482620005aa565b5060018401620002468382620005aa565b5060029390930180546001600160a01b0319166001600160a01b03909416939093179092555050565b620001c66303a24d0760e21b6001620001a2620002e2565b620001c6631464324b60e21b6001620001a2620002e2565b620001c6633a2ae73360e21b6001620001a2620002e2565b620001c663921ed8d160e01b6001620001a2620002e2565b620001c663152a902d60e11b6001620001a25b6000806200012d60017fca9d3e17f264b0f3984e2634e94adb37fa3e6a8103f06aeae6fa59e21c769f5e620004f9565b600160e01b6001600160e01b031983160162000341576040516372c683bb60e01b815260040160405180910390fd5b6001600160e01b03199190911660009081526020929092526040909120805460ff1916911515919091179055565b634e487b7160e01b600052604160045260246000fd5b600082601f8301126200039757600080fd5b81516001600160401b0380821115620003b457620003b46200036f565b604051601f8301601f19908116603f01168101908282118183101715620003df57620003df6200036f565b81604052838152602092508683858801011115620003fc57600080fd5b600091505b8382101562000420578582018301518183018401529082019062000401565b600093810190920192909252949350505050565b6001600160a01b03811681146200044a57600080fd5b50565b600080600080600060a086880312156200046657600080fd5b85516001600160401b03808211156200047e57600080fd5b6200048c89838a0162000385565b96506020880151915080821115620004a357600080fd5b50620004b28882890162000385565b9450506040860151620004c58162000434565b6060870151909350620004d88162000434565b6080870151909250620004eb8162000434565b809150509295509295909350565b818103818111156200012d57634e487b7160e01b600052601160045260246000fd5b600181811c908216806200053057607f821691505b6020821081036200055157634e487b7160e01b600052602260045260246000fd5b50919050565b601f821115620005a557600081815260208120601f850160051c81016020861015620005805750805b601f850160051c820191505b81811015620005a1578281556001016200058c565b5050505b505050565b81516001600160401b03811115620005c657620005c66200036f565b620005de81620005d784546200051b565b8462000557565b602080601f831160018114620006165760008415620005fd5750858301515b600019600386901b1c1916600185901b178555620005a1565b600085815260208120601f198616915b82811015620006475788860151825594840194600190910190840162000626565b5085821015620006665787850151600019600388901b60f8161c191681555b5050505050600190811b01905550565b608051613fb7620006b560003960008181610332015281816103e3015281816127aa0152818161283201528181612e9a0152612ed80152613fb76000f3fe608060405234801561001057600080fd5b50600436106102405760003560e01c80638053493411610145578063c3666c36116100bd578063e8ab9ccc1161008c578063f242432a11610071578063f242432a14610555578063f2fde38b14610568578063f7ba94bd1461057b57600080fd5b8063e8ab9ccc1461052f578063e985e9c51461054257600080fd5b8063c3666c36146104d8578063d5391393146104eb578063d547741f14610512578063e1a8bf2c1461052557600080fd5b806391d1485411610114578063a0c76f62116100f9578063a0c76f62146104b5578063a22cb465146104bd578063b0ccc31e146104d057600080fd5b806391d148541461049a57806395d89b41146104ad57600080fd5b806380534934146104595780638bb9c5bf1461046c5780638da5cb5b1461047f5780638dc251e31461048757600080fd5b80632b4c9f16116101d85780634e1273f4116101a75780635cfa92971161018c5780635cfa92971461042057806361ba27da1461043357806373c8a9581461044657600080fd5b80634e1273f4146103b3578063572b6c05146103d357600080fd5b80632b4c9f16146103305780632eb2c2d6146103775780632f2ff15d1461038a57806331e66e1e1461039d57600080fd5b80630e89341c116102145780630e89341c146102b8578063114ba8ee146102cb578063124d91e5146102de5780632a55205a146102f157600080fd5b8062fdd58e1461024557806301ffc9a71461026b57806306fdde031461028e5780630d6a5bbb146102a3575b600080fd5b6102586102533660046133be565b61058e565b6040519081526020015b60405180910390f35b61027e610279366004613418565b6105ad565b6040519015158152602001610262565b6102966105c1565b60405161026291906134aa565b6102b66102b1366004613544565b6105d8565b005b6102966102c63660046135f1565b6106d3565b6102b66102d936600461360a565b6106e9565b6102b66102ec366004613627565b610754565b6103046102ff36600461365c565b610778565b6040805173ffffffffffffffffffffffffffffffffffffffff9093168352602083019190915201610262565b7f00000000000000000000000000000000000000000000000000000000000000005b60405173ffffffffffffffffffffffffffffffffffffffff9091168152602001610262565b6102b661038536600461367e565b61079b565b6102b661039836600461373d565b6107e8565b6103a5610816565b60405161026292919061376d565b6103c66103c13660046137ba565b610829565b6040516102629190613861565b61027e6103e136600461360a565b7f000000000000000000000000000000000000000000000000000000000000000073ffffffffffffffffffffffffffffffffffffffff90811691161490565b6102b661042e366004613874565b61084e565b6102b66104413660046135f1565b6108e0565b6102b66104543660046138de565b6108fd565b6102b6610467366004613978565b6109e8565b6102b661047a3660046135f1565b610a12565b610352610a2d565b6102b661049536600461360a565b610a54565b61027e6104a836600461373d565b610a71565b610296610ab5565b610352610ac7565b6102b66104cb3660046139f8565b610af1565b610352610b2a565b6102b66104e63660046138de565b610b37565b6102587f6d696e746572000000000000000000000000000000000000000000000000000081565b6102b661052036600461373d565b610cae565b610258620186a081565b6102b661053d366004613a26565b610cdc565b61027e610550366004613ac9565b610df6565b6102b6610563366004613af7565b610e44565b6102b661057636600461360a565b610e84565b6102b66105893660046137ba565b610e9f565b60006105a4838361059d610f55565b9190610f83565b90505b92915050565b60006105a7826105bb611007565b90611035565b60606105d36105ce61110f565b61113d565b905090565b60006105e26111d3565b90506106187f6d696e7465720000000000000000000000000000000000000000000000000000826106116111dd565b919061120b565b6106c9818989898080602002602001604051908101604052809392919081815260200183836020028082843760009201919091525050604080516020808d0282810182019093528c82529093508c92508b91829185019084908082843760009201919091525050604080516020601f8c018190048102820181019092528a815292508a91508990819084018382808284376000920191909152506106bf9250610f55915050565b9493929190611296565b5050505050505050565b60606105a730836106e261110f565b919061141b565b6107026106f46111d3565b6106fc6114db565b90611509565b6107518161070e611574565b9081547fffffffffffffffffffffffff00000000000000000000000000000000000000001673ffffffffffffffffffffffffffffffffffffffff91909116179055565b50565b61077361075f6111d3565b84848461076a610f55565b939291906115e4565b505050565b60008061078f84846107886116b1565b91906116df565b915091505b9250929050565b60006107a56111d3565b90506107bb818a6107b4611574565b9190611789565b6107dd818a8a8a8a8a8a8a8a6107cf610f55565b9897969594939291906117c6565b505050505050505050565b60006107f26111d3565b9050610800816106fc6114db565b61077383838361080e6111dd565b929190611a4e565b366000610821611b25565b915091509091565b60606108438585858561083a610f55565b93929190611b30565b90505b949350505050565b60006108586111d3565b90506108877f6d696e7465720000000000000000000000000000000000000000000000000000826106116111dd565b6108d88187878787878080601f0160208091040260200160405190810160405280939291908181526020018383808284376000920191909152506108ce9250610f55915050565b9493929190611c3e565b505050505050565b6108eb6106f46111d3565b610751816108f76116b1565b90611d1c565b6109086106f46111d3565b8483811415806109185750808214155b1561094f576040517f6582533600000000000000000000000000000000000000000000000000000000815260040160405180910390fd5b60005b8181146106c9576109e088888381811061096e5761096e613b61565b9050602002016020810190610983919061360a565b85858481811061099557610995613b61565b905060200201358888858181106109ae576109ae613b61565b90506020020160208101906109c3919061360a565b73ffffffffffffffffffffffffffffffffffffffff169190611da2565b600101610952565b610a0b6109f36111d3565b8686868686610a00610f55565b959493929190611e2f565b5050505050565b610751610a1d6111d3565b82610a266111dd565b9190611fa6565b60006105d3610a3a6114db565b5473ffffffffffffffffffffffffffffffffffffffff1690565b610a5f6106f46111d3565b61075181610a6b6116b1565b9061204a565b60006105a48383610a806111dd565b60009283526020908152604080842073ffffffffffffffffffffffffffffffffffffffff909316845291905290205460ff1690565b60606105d3610ac261110f565b612097565b60006105d3610ad461110f565b6002015473ffffffffffffffffffffffffffffffffffffffff1690565b8015610b0957610b0982610b03611574565b906120a8565b610b26610b146111d3565b8383610b1e610f55565b9291906120b2565b5050565b60006105d3610a3a611574565b610b426106f46111d3565b848381141580610b525750808214155b15610b89576040517f6582533600000000000000000000000000000000000000000000000000000000815260040160405180910390fd5b60005b8181146106c957858582818110610ba557610ba5613b61565b9050602002016020810190610bba919061360a565b73ffffffffffffffffffffffffffffffffffffffff166323b872dd308a8a85818110610be857610be8613b61565b9050602002016020810190610bfd919061360a565b878786818110610c0f57610c0f613b61565b6040517fffffffff0000000000000000000000000000000000000000000000000000000060e088901b16815273ffffffffffffffffffffffffffffffffffffffff958616600482015294909316602485015250602090910201356044820152606401600060405180830381600087803b158015610c8b57600080fd5b505af1158015610c9f573d6000803e3d6000fd5b50505050806001019050610b8c565b6000610cb86111d3565b9050610cc6816106fc6114db565b610773838383610cd46111dd565b9291906121ca565b6000610ce66111d3565b9050610d157f6d696e7465720000000000000000000000000000000000000000000000000000826106116111dd565b6107dd818a8a8080602002602001604051908101604052809392919081815260200183836020028082843760009201919091525050604080516020808e0282810182019093528d82529093508d92508c91829185019084908082843760009201919091525050604080516020808d0282810182019093528c82529093508c92508b91829185019084908082843760009201919091525050604080516020601f8c018190048102820181019092528a815292508a9150899081908401838280828437600092019190915250610dec9250610f55915050565b9493929190612294565b60006105a48383610e05610f55565b919073ffffffffffffffffffffffffffffffffffffffff9182166000908152600193909301602090815260408085209290931684525290205460ff1690565b6000610e4e6111d3565b9050610e5d81886107b4611574565b610e7b81888888888888610e6f610f55565b96959493929190612356565b50505050505050565b610751610e8f6111d3565b82610e986114db565b91906124f9565b610eaa6106f46111d3565b82818114610ee4576040517f6582533600000000000000000000000000000000000000000000000000000000815260040160405180910390fd5b60005b8181146108d857610f4d848483818110610f0357610f03613b61565b90506020020135878784818110610f1c57610f1c613b61565b9050602002016020810190610f31919061360a565b73ffffffffffffffffffffffffffffffffffffffff169061260d565b600101610ee7565b6000806105a760017f5ccf5846fa27a68fafc8e588671a68f5e67c2f9b56af4263806a4d71735e8613613bbf565b600073ffffffffffffffffffffffffffffffffffffffff8316610fd2576040517fca2434a500000000000000000000000000000000000000000000000000000000815260040160405180910390fd5b5060009081526020928352604080822073ffffffffffffffffffffffffffffffffffffffff9390931682529190925290205490565b6000806105a760017fca9d3e17f264b0f3984e2634e94adb37fa3e6a8103f06aeae6fa59e21c769f5e613bbf565b60007c01000000000000000000000000000000000000000000000000000000007fffffffff00000000000000000000000000000000000000000000000000000000831601611085575060006105a7565b7ffe003659000000000000000000000000000000000000000000000000000000007fffffffff000000000000000000000000000000000000000000000000000000008316016110d6575060016105a7565b507fffffffff00000000000000000000000000000000000000000000000000000000166000908152602091909152604090205460ff1690565b6000806105a760017f7ea68fd2dcf1c056b94db6a0a537aa80d26fa9ab1eacd85da1ba0b61b7e7a8a5613bbf565b606081600001805461114e90613bd2565b80601f016020809104026020016040519081016040528092919081815260200182805461117a90613bd2565b80156111c75780601f1061119c576101008083540402835291602001916111c7565b820191906000526020600020905b8154815290600101906020018083116111aa57829003601f168201915b50505050509050919050565b60006105d3612767565b6000806105a760017fc8827d3282af6f37b64c3e9e6f3ac9df286ab0bb0fccd6f8661bf19adb368b23613bbf565b60008281526020848152604080832073ffffffffffffffffffffffffffffffffffffffff8516845290915290205460ff16610773576040517f7aa728820000000000000000000000000000000000000000000000000000000081526004810183905273ffffffffffffffffffffffffffffffffffffffff821660248201526044015b60405180910390fd5b73ffffffffffffffffffffffffffffffffffffffff84166112e3576040517f021149bd00000000000000000000000000000000000000000000000000000000815260040160405180910390fd5b82518251811461131f576040517f6582533600000000000000000000000000000000000000000000000000000000815260040160405180910390fd5b60005b81811461136f57611367888787848151811061134057611340613b61565b602002602001015187858151811061135a5761135a613b61565b60200260200101516128ae565b600101611322565b508473ffffffffffffffffffffffffffffffffffffffff16600073ffffffffffffffffffffffffffffffffffffffff168773ffffffffffffffffffffffffffffffffffffffff167f4a39dc06d4c0dbc64b70af90fd698a233a518aa5d07e595d983b8c0526c8f7fb87876040516113e7929190613c25565b60405180910390a473ffffffffffffffffffffffffffffffffffffffff85163b15610e7b57610e7b8660008787878761297f565b60028301546040517ff724dad700000000000000000000000000000000000000000000000000000000815273ffffffffffffffffffffffffffffffffffffffff848116600483015260248201849052606092169063f724dad790604401600060405180830381865afa158015611495573d6000803e3d6000fd5b505050506040513d6000823e601f3d9081017fffffffffffffffffffffffffffffffffffffffffffffffffffffffffffffffe01682016040526108469190810190613c82565b6000806105a760017fc9ed16f33ab3a66c84bfd83099ccb2a8845871e2e1c1928f63797152f0fd54cd613bbf565b815473ffffffffffffffffffffffffffffffffffffffff828116911614610b26576040517f2ef4875e00000000000000000000000000000000000000000000000000000000815273ffffffffffffffffffffffffffffffffffffffff8216600482015260240161128d565b6000806105a760017f609b85bcafa81ecfaf3ff62cdde2c6c9082a68dbe4922f07399c706bdeb7cd31613bbf565b81547fffffffffffffffffffffffff00000000000000000000000000000000000000001673ffffffffffffffffffffffffffffffffffffffff91909116179055565b6115ef858486612a7d565b611645576040517f05bbb9c400000000000000000000000000000000000000000000000000000000815273ffffffffffffffffffffffffffffffffffffffff80861660048301528416602482015260440161128d565b61165185848484612af2565b604080518381526020810183905260009173ffffffffffffffffffffffffffffffffffffffff86811692908816917fc3d58168c5ae7397731d063d5bbf3d657854427343f4c083240f7aacaa2d0f62910160405180910390a45050505050565b6000806105a760017f2c0cf10337caabbd02dcf226f05f5fd19a0919a41a8df8958c39b80007826858613bbf565b825473ffffffffffffffffffffffffffffffffffffffff8116906000907401000000000000000000000000000000000000000090046bffffffffffffffffffffffff1683158061172d575080155b1561173b5760009150611780565b620186a084101561176557620186a06117548286613d42565b61175e9190613d59565b9150611780565b80611773620186a086613d59565b61177d9190613d42565b91505b50935093915050565b8073ffffffffffffffffffffffffffffffffffffffff168273ffffffffffffffffffffffffffffffffffffffff1614610773576107738383612b8f565b73ffffffffffffffffffffffffffffffffffffffff8716611813576040517fb5e8901500000000000000000000000000000000000000000000000000000000815260040160405180910390fd5b8483811461184d576040517f6582533600000000000000000000000000000000000000000000000000000000815260040160405180910390fd5b6118588b8a8c612a7d565b6118ae576040517f05bbb9c400000000000000000000000000000000000000000000000000000000815273ffffffffffffffffffffffffffffffffffffffff808c1660048301528a16602482015260440161128d565b60005b8181146118fd576118f58c8b8b8b8b868181106118d0576118d0613b61565b905060200201358a8a878181106118e9576118e9613b61565b90506020020135612cb6565b6001016118b1565b508773ffffffffffffffffffffffffffffffffffffffff168973ffffffffffffffffffffffffffffffffffffffff168b73ffffffffffffffffffffffffffffffffffffffff167f4a39dc06d4c0dbc64b70af90fd698a233a518aa5d07e595d983b8c0526c8f7fb8a8a8a8a6040516119789493929190613ddf565b60405180910390a473ffffffffffffffffffffffffffffffffffffffff88163b15611a4157611a418a8a8a8a8a8080602002602001604051908101604052809392919081815260200183836020028082843760009201919091525050604080516020808e0282810182019093528d82529093508d92508c91829185019084908082843760009201919091525050604080516020601f8d018190048102820181019092528b815292508b91508a908190840183828082843760009201919091525061297f92505050565b5050505050505050505050565b60008381526020858152604080832073ffffffffffffffffffffffffffffffffffffffff8616845290915290205460ff16611b1f5760008381526020858152604080832073ffffffffffffffffffffffffffffffffffffffff8681168086529184529382902080547fffffffffffffffffffffffffffffffffffffffffffffffffffffffffffffff00166001179055815187815292830152918316918101919091527f2f8788117e7eff1d82e926ec794901d17c78024a50270940304540a733656f0d906060015b60405180910390a15b50505050565b366000610821612e63565b606083828114611b6c576040517f6582533600000000000000000000000000000000000000000000000000000000815260040160405180910390fd5b8467ffffffffffffffff811115611b8557611b85613c53565b604051908082528060200260200182016040528015611bae578160200160208202803683370190505b50915060005b818114611c3357611c0e878783818110611bd057611bd0613b61565b9050602002016020810190611be5919061360a565b868684818110611bf757611bf7613b61565b905060200201358a610f839092919063ffffffff16565b838281518110611c2057611c20613b61565b6020908102919091010152600101611bb4565b505095945050505050565b73ffffffffffffffffffffffffffffffffffffffff8416611c8b576040517f021149bd00000000000000000000000000000000000000000000000000000000815260040160405180910390fd5b611c97868585856128ae565b604080518481526020810184905273ffffffffffffffffffffffffffffffffffffffff80871692600092918916917fc3d58168c5ae7397731d063d5bbf3d657854427343f4c083240f7aacaa2d0f62910160405180910390a473ffffffffffffffffffffffffffffffffffffffff84163b156108d8576108d885600086868686612fcd565b620186a0811115611d5c576040517fac0404080000000000000000000000000000000000000000000000000000000081526004810182905260240161128d565b81546bffffffffffffffffffffffff909116740100000000000000000000000000000000000000000273ffffffffffffffffffffffffffffffffffffffff909116179055565b6040805173ffffffffffffffffffffffffffffffffffffffff8416602482015260448082018490528251808303909101815260649091019091526020810180517bffffffffffffffffffffffffffffffffffffffffffffffffffffffff167fa9059cbb000000000000000000000000000000000000000000000000000000001790526107739084906130eb565b82818114611e69576040517f6582533600000000000000000000000000000000000000000000000000000000815260040160405180910390fd5b611e74888789612a7d565b611eca576040517f05bbb9c400000000000000000000000000000000000000000000000000000000815273ffffffffffffffffffffffffffffffffffffffff80891660048301528716602482015260440161128d565b60005b818114611f1857611f108988888885818110611eeb57611eeb613b61565b90506020020135878786818110611f0457611f04613b61565b90506020020135612af2565b600101611ecd565b50600073ffffffffffffffffffffffffffffffffffffffff168673ffffffffffffffffffffffffffffffffffffffff168873ffffffffffffffffffffffffffffffffffffffff167f4a39dc06d4c0dbc64b70af90fd698a233a518aa5d07e595d983b8c0526c8f7fb88888888604051611f949493929190613ddf565b60405180910390a45050505050505050565b611fb183828461120b565b60008181526020848152604080832073ffffffffffffffffffffffffffffffffffffffff86168085529083529281902080547fffffffffffffffffffffffffffffffffffffffffffffffffffffffffffffff0016905580518481529182018390528101919091527ff6391f5c32d9c69d2a47ea670b442974b53935d1edc7fd64eb21e047a839171b9060600160405180910390a1505050565b73ffffffffffffffffffffffffffffffffffffffff81166115a2576040517f16de0c8000000000000000000000000000000000000000000000000000000000815260040160405180910390fd5b606081600101805461114e90613bd2565b610b268282612b8f565b8273ffffffffffffffffffffffffffffffffffffffff168273ffffffffffffffffffffffffffffffffffffffff160361212f576040517ffb0fdf6100000000000000000000000000000000000000000000000000000000815273ffffffffffffffffffffffffffffffffffffffff8416600482015260240161128d565b73ffffffffffffffffffffffffffffffffffffffff838116600081815260018701602090815260408083209487168084529482529182902080547fffffffffffffffffffffffffffffffffffffffffffffffffffffffffffffff001686151590811790915591519182527f17307eab39ab6107e8899845ad3d59bd9653f200f220920489ca2b5937696c31910160405180910390a350505050565b60008381526020858152604080832073ffffffffffffffffffffffffffffffffffffffff8616845290915290205460ff1615611b1f5760008381526020858152604080832073ffffffffffffffffffffffffffffffffffffffff8681168086529184529382902080547fffffffffffffffffffffffffffffffffffffffffffffffffffffffffffffff00169055815187815292830152918316918101919091527ff6391f5c32d9c69d2a47ea670b442974b53935d1edc7fd64eb21e047a839171b90606001611b16565b83518351811415806122a7575082518114155b156122de576040517f6582533600000000000000000000000000000000000000000000000000000000815260040160405180910390fd5b60005b8181146106c95761234e878783815181106122fe576122fe613b61565b602002602001015187848151811061231857612318613b61565b602002602001015187858151811061233257612332613b61565b6020026020010151878d611c3e9095949392919063ffffffff16565b6001016122e1565b73ffffffffffffffffffffffffffffffffffffffff85166123a3576040517fb5e8901500000000000000000000000000000000000000000000000000000000815260040160405180910390fd5b6123ae888789612a7d565b612404576040517f05bbb9c400000000000000000000000000000000000000000000000000000000815273ffffffffffffffffffffffffffffffffffffffff80891660048301528716602482015260440161128d565b6124118887878787612cb6565b8473ffffffffffffffffffffffffffffffffffffffff168673ffffffffffffffffffffffffffffffffffffffff168873ffffffffffffffffffffffffffffffffffffffff167fc3d58168c5ae7397731d063d5bbf3d657854427343f4c083240f7aacaa2d0f628787604051612490929190918252602082015260400190565b60405180910390a473ffffffffffffffffffffffffffffffffffffffff85163b156106c9576106c9878787878787878080601f016020809104026020016040519081016040528093929190818152602001838380828437600092019190915250612fcd92505050565b825473ffffffffffffffffffffffffffffffffffffffff9081169083168114612566576040517f2ef4875e00000000000000000000000000000000000000000000000000000000815273ffffffffffffffffffffffffffffffffffffffff8416600482015260240161128d565b8173ffffffffffffffffffffffffffffffffffffffff168173ffffffffffffffffffffffffffffffffffffffff1614611b1f5783547fffffffffffffffffffffffff00000000000000000000000000000000000000001673ffffffffffffffffffffffffffffffffffffffff8381169182178655604051908316907f8be0079c531659141344cd1fd0a4f28419497f9722a3daafe3b4186f6b6457e090600090a350505050565b80471015612677576040517f08c379a000000000000000000000000000000000000000000000000000000000815260206004820152601d60248201527f416464726573733a20696e73756666696369656e742062616c616e6365000000604482015260640161128d565b60008273ffffffffffffffffffffffffffffffffffffffff168260405160006040518083038185875af1925050503d80600081146126d1576040519150601f19603f3d011682016040523d82523d6000602084013e6126d6565b606091505b5050905080610773576040517f08c379a000000000000000000000000000000000000000000000000000000000815260206004820152603a60248201527f416464726573733a20756e61626c6520746f2073656e642076616c75652c207260448201527f6563697069656e74206d61792068617665207265766572746564000000000000606482015260840161128d565b6000333214806127775750601836105b1561278157503390565b7fffffffffffffffffffffffffffffffffffffffffffffffffffffffffffffffec36013560601c7f000000000000000000000000000000000000000000000000000000000000000073ffffffffffffffffffffffffffffffffffffffff1633148061289d57506040517f8929a8ca00000000000000000000000000000000000000000000000000000000815273ffffffffffffffffffffffffffffffffffffffff82811660048301523360248301527f00000000000000000000000000000000000000000000000000000000000000001690638929a8ca90604401602060405180830381865afa158015612879573d6000803e3d6000fd5b505050506040513d601f19601f8201168201806040525081019061289d9190613e06565b156128a757919050565b3391505090565b8015611b1f5760008281526020858152604080832073ffffffffffffffffffffffffffffffffffffffff8716845290915290205481810181811161294b576040517f42fb00bc00000000000000000000000000000000000000000000000000000000815273ffffffffffffffffffffffffffffffffffffffff8616600482015260248101859052604481018390526064810184905260840161128d565b60009384526020958652604080852073ffffffffffffffffffffffffffffffffffffffff9690961685529490955250502055565b6040517fbc197c81000000000000000000000000000000000000000000000000000000008082529073ffffffffffffffffffffffffffffffffffffffff86169063bc197c81906129db908a908a90899089908990600401613e23565b6020604051808303816000875af11580156129fa573d6000803e3d6000fd5b505050506040513d601f19601f82011682018060405250810190612a1e9190613e8e565b7fffffffff0000000000000000000000000000000000000000000000000000000016146108d8578383836040517fc287817e00000000000000000000000000000000000000000000000000000000815260040161128d93929190613eab565b60008173ffffffffffffffffffffffffffffffffffffffff168373ffffffffffffffffffffffffffffffffffffffff16148061084657505073ffffffffffffffffffffffffffffffffffffffff9182166000908152600193909301602090815260408085209290931684525290205460ff1690565b8015611b1f5760008281526020858152604080832073ffffffffffffffffffffffffffffffffffffffff8716845290915290205481810381811061294b576040517f03dee4c500000000000000000000000000000000000000000000000000000000815273ffffffffffffffffffffffffffffffffffffffff8616600482015260248101859052604481018390526064810184905260840161128d565b815473ffffffffffffffffffffffffffffffffffffffff168015801590612bcd575060008173ffffffffffffffffffffffffffffffffffffffff163b115b15610773576040517fc617113400000000000000000000000000000000000000000000000000000000815230600482015273ffffffffffffffffffffffffffffffffffffffff838116602483015282169063c617113490604401602060405180830381865afa158015612c44573d6000803e3d6000fd5b505050506040513d601f19601f82011682018060405250810190612c689190613e06565b610773576040517fede71dcc00000000000000000000000000000000000000000000000000000000815273ffffffffffffffffffffffffffffffffffffffff8316600482015260240161128d565b8015610a0b5760008281526020868152604080832073ffffffffffffffffffffffffffffffffffffffff88168452909152902054818103818110612d53576040517f03dee4c500000000000000000000000000000000000000000000000000000000815273ffffffffffffffffffffffffffffffffffffffff8716600482015260248101859052604481018390526064810184905260840161128d565b8473ffffffffffffffffffffffffffffffffffffffff168673ffffffffffffffffffffffffffffffffffffffff1614610e7b5760008481526020888152604080832073ffffffffffffffffffffffffffffffffffffffff89168452909152902054838101818111612e1d576040517f42fb00bc00000000000000000000000000000000000000000000000000000000815273ffffffffffffffffffffffffffffffffffffffff8816600482015260248101879052604481018390526064810186905260840161128d565b600086815260208a8152604080832073ffffffffffffffffffffffffffffffffffffffff808d1685528184528285208890558b1684529091529020555050505050505050565b36600033321480612e745750601836105b15612e825750600091369150565b3373ffffffffffffffffffffffffffffffffffffffff7f0000000000000000000000000000000000000000000000000000000000000000161480612fb7575073ffffffffffffffffffffffffffffffffffffffff7f000000000000000000000000000000000000000000000000000000000000000016638929a8ca367fffffffffffffffffffffffffffffffffffffffffffffffffffffffffffffffec013560601c6040517fffffffff0000000000000000000000000000000000000000000000000000000060e084901b16815273ffffffffffffffffffffffffffffffffffffffff9091166004820152336024820152604401602060405180830381865afa158015612f93573d6000803e3d6000fd5b505050506040513d601f19601f82011682018060405250810190612fb79190613e06565b15612fc4576108216131fa565b50600091369150565b6040517ff23a6e61000000000000000000000000000000000000000000000000000000008082529073ffffffffffffffffffffffffffffffffffffffff86169063f23a6e6190613029908a908a90899089908990600401613ef6565b6020604051808303816000875af1158015613048573d6000803e3d6000fd5b505050506040513d601f19601f8201168201806040525081019061306c9190613e8e565b7fffffffff0000000000000000000000000000000000000000000000000000000016146108d8576040517f40f39d3800000000000000000000000000000000000000000000000000000000815273ffffffffffffffffffffffffffffffffffffffff85166004820152602481018490526044810183905260640161128d565b600061314d826040518060400160405280602081526020017f5361666545524332303a206c6f772d6c6576656c2063616c6c206661696c65648152508573ffffffffffffffffffffffffffffffffffffffff1661322b9092919063ffffffff16565b905080516000148061316e57508080602001905181019061316e9190613e06565b610773576040517f08c379a000000000000000000000000000000000000000000000000000000000815260206004820152602a60248201527f5361666545524332303a204552433230206f7065726174696f6e20646964206e60448201527f6f74207375636365656400000000000000000000000000000000000000000000606482015260840161128d565b3660006108217fffffffffffffffffffffffffffffffffffffffffffffffffffffffffffffffec8301828481613f3b565b60606108468484600085856000808673ffffffffffffffffffffffffffffffffffffffff16858760405161325f9190613f65565b60006040518083038185875af1925050503d806000811461329c576040519150601f19603f3d011682016040523d82523d6000602084013e6132a1565b606091505b50915091506132b2878383876132bd565b979650505050505050565b6060831561335357825160000361334c5773ffffffffffffffffffffffffffffffffffffffff85163b61334c576040517f08c379a000000000000000000000000000000000000000000000000000000000815260206004820152601d60248201527f416464726573733a2063616c6c20746f206e6f6e2d636f6e7472616374000000604482015260640161128d565b5081610846565b61084683838151156133685781518083602001fd5b806040517f08c379a000000000000000000000000000000000000000000000000000000000815260040161128d91906134aa565b73ffffffffffffffffffffffffffffffffffffffff8116811461075157600080fd5b600080604083850312156133d157600080fd5b82356133dc8161339c565b946020939093013593505050565b7fffffffff000000000000000000000000000000000000000000000000000000008116811461075157600080fd5b60006020828403121561342a57600080fd5b8135613435816133ea565b9392505050565b60005b8381101561345757818101518382015260200161343f565b50506000910152565b6000815180845261347881602086016020860161343c565b601f017fffffffffffffffffffffffffffffffffffffffffffffffffffffffffffffffe0169290920160200192915050565b6020815260006105a46020830184613460565b60008083601f8401126134cf57600080fd5b50813567ffffffffffffffff8111156134e757600080fd5b6020830191508360208260051b850101111561079457600080fd5b60008083601f84011261351457600080fd5b50813567ffffffffffffffff81111561352c57600080fd5b60208301915083602082850101111561079457600080fd5b60008060008060008060006080888a03121561355f57600080fd5b873561356a8161339c565b9650602088013567ffffffffffffffff8082111561358757600080fd5b6135938b838c016134bd565b909850965060408a01359150808211156135ac57600080fd5b6135b88b838c016134bd565b909650945060608a01359150808211156135d157600080fd5b506135de8a828b01613502565b989b979a50959850939692959293505050565b60006020828403121561360357600080fd5b5035919050565b60006020828403121561361c57600080fd5b81356134358161339c565b60008060006060848603121561363c57600080fd5b83356136478161339c565b95602085013595506040909401359392505050565b6000806040838503121561366f57600080fd5b50508035926020909101359150565b60008060008060008060008060a0898b03121561369a57600080fd5b88356136a58161339c565b975060208901356136b58161339c565b9650604089013567ffffffffffffffff808211156136d257600080fd5b6136de8c838d016134bd565b909850965060608b01359150808211156136f757600080fd5b6137038c838d016134bd565b909650945060808b013591508082111561371c57600080fd5b506137298b828c01613502565b999c989b5096995094979396929594505050565b6000806040838503121561375057600080fd5b8235915060208301356137628161339c565b809150509250929050565b60208152816020820152818360408301376000818301604090810191909152601f9092017fffffffffffffffffffffffffffffffffffffffffffffffffffffffffffffffe0160101919050565b600080600080604085870312156137d057600080fd5b843567ffffffffffffffff808211156137e857600080fd5b6137f4888389016134bd565b9096509450602087013591508082111561380d57600080fd5b5061381a878288016134bd565b95989497509550505050565b600081518084526020808501945080840160005b838110156138565781518752958201959082019060010161383a565b509495945050505050565b6020815260006105a46020830184613826565b60008060008060006080868803121561388c57600080fd5b85356138978161339c565b94506020860135935060408601359250606086013567ffffffffffffffff8111156138c157600080fd5b6138cd88828901613502565b969995985093965092949392505050565b600080600080600080606087890312156138f757600080fd5b863567ffffffffffffffff8082111561390f57600080fd5b61391b8a838b016134bd565b9098509650602089013591508082111561393457600080fd5b6139408a838b016134bd565b9096509450604089013591508082111561395957600080fd5b5061396689828a016134bd565b979a9699509497509295939492505050565b60008060008060006060868803121561399057600080fd5b853561399b8161339c565b9450602086013567ffffffffffffffff808211156139b857600080fd5b6139c489838a016134bd565b909650945060408801359150808211156139dd57600080fd5b506138cd888289016134bd565b801515811461075157600080fd5b60008060408385031215613a0b57600080fd5b8235613a168161339c565b91506020830135613762816139ea565b6000806000806000806000806080898b031215613a4257600080fd5b883567ffffffffffffffff80821115613a5a57600080fd5b613a668c838d016134bd565b909a50985060208b0135915080821115613a7f57600080fd5b613a8b8c838d016134bd565b909850965060408b0135915080821115613aa457600080fd5b613ab08c838d016134bd565b909650945060608b013591508082111561371c57600080fd5b60008060408385031215613adc57600080fd5b8235613ae78161339c565b915060208301356137628161339c565b60008060008060008060a08789031215613b1057600080fd5b8635613b1b8161339c565b95506020870135613b2b8161339c565b94506040870135935060608701359250608087013567ffffffffffffffff811115613b5557600080fd5b61396689828a01613502565b7f4e487b7100000000000000000000000000000000000000000000000000000000600052603260045260246000fd5b7f4e487b7100000000000000000000000000000000000000000000000000000000600052601160045260246000fd5b818103818111156105a7576105a7613b90565b600181811c90821680613be657607f821691505b602082108103613c1f577f4e487b7100000000000000000000000000000000000000000000000000000000600052602260045260246000fd5b50919050565b604081526000613c386040830185613826565b8281036020840152613c4a8185613826565b95945050505050565b7f4e487b7100000000000000000000000000000000000000000000000000000000600052604160045260246000fd5b600060208284031215613c9457600080fd5b815167ffffffffffffffff80821115613cac57600080fd5b818401915084601f830112613cc057600080fd5b815181811115613cd257613cd2613c53565b604051601f82017fffffffffffffffffffffffffffffffffffffffffffffffffffffffffffffffe0908116603f01168101908382118183101715613d1857613d18613c53565b81604052828152876020848701011115613d3157600080fd5b6132b283602083016020880161343c565b80820281158282048414176105a7576105a7613b90565b600082613d8f577f4e487b7100000000000000000000000000000000000000000000000000000000600052601260045260246000fd5b500490565b81835260007f07ffffffffffffffffffffffffffffffffffffffffffffffffffffffffffffff831115613dc657600080fd5b8260051b80836020870137939093016020019392505050565b604081526000613df3604083018688613d94565b82810360208401526132b2818587613d94565b600060208284031215613e1857600080fd5b8151613435816139ea565b600073ffffffffffffffffffffffffffffffffffffffff808816835280871660208401525060a06040830152613e5c60a0830186613826565b8281036060840152613e6e8186613826565b90508281036080840152613e828185613460565b98975050505050505050565b600060208284031215613ea057600080fd5b8151613435816133ea565b73ffffffffffffffffffffffffffffffffffffffff84168152606060208201526000613eda6060830185613826565b8281036040840152613eec8185613826565b9695505050505050565b600073ffffffffffffffffffffffffffffffffffffffff808816835280871660208401525084604083015283606083015260a060808301526132b260a0830184613460565b60008085851115613f4b57600080fd5b83861115613f5857600080fd5b5050820193919092039150565b60008251613f7781846020870161343c565b919091019291505056fea2646970667358221220de7429bef5e1fe76a7a42cf0b700e4b5a443932f58dcd7bb8f9e763275d54ce664736f6c63430008150033",
  "linkReferences": {},
  "deployedLinkReferences": {}
}