{
  "_format": "hh-sol-artifact-1",
  "contractName": "ERC1155FullBurnMock",
  "sourceName": "contracts/mocks/token/ERC1155/preset/ERC1155FullBurnMock.sol",
  "abi": [
    {
      "inputs": [
        {
          "internalType": "string",
          "name": "tokenName",
          "type": "string"
        },
        {
          "internalType": "string",
          "name": "tokenSymbol",
          "type": "string"
        },
        {
          "internalType": "contract ITokenMetadataResolver",
          "name": "metadataResolver",
          "type": "address"
        },
        {
          "internalType": "contract IOperatorFilterRegistry",
          "name": "filterRegistry",
          "type": "address"
        },
        {
          "internalType": "contract IForwarderRegistry",
          "name": "forwarderRegistry",
          "type": "address"
        }
      ],
      "stateMutability": "nonpayable",
      "type": "constructor"
    },
    {
      "inputs": [],
      "name": "ERC1155BalanceOfAddressZero",
      "type": "error"
    },
    {
      "inputs": [
        {
          "internalType": "address",
          "name": "recipient",
          "type": "address"
        },
        {
          "internalType": "uint256",
          "name": "id",
          "type": "uint256"
        },
        {
          "internalType": "uint256",
          "name": "balance",
          "type": "uint256"
        },
        {
          "internalType": "uint256",
          "name": "value",
          "type": "uint256"
        }
      ],
      "name": "ERC1155BalanceOverflow",
      "type": "error"
    },
    {
      "inputs": [
        {
          "internalType": "address",
          "name": "owner",
          "type": "address"
        },
        {
          "internalType": "uint256",
          "name": "id",
          "type": "uint256"
        },
        {
          "internalType": "uint256",
          "name": "balance",
          "type": "uint256"
        },
        {
          "internalType": "uint256",
          "name": "value",
          "type": "uint256"
        }
      ],
      "name": "ERC1155InsufficientBalance",
      "type": "error"
    },
    {
      "inputs": [],
      "name": "ERC1155MintToAddressZero",
      "type": "error"
    },
    {
      "inputs": [
        {
          "internalType": "address",
          "name": "sender",
          "type": "address"
        },
        {
          "internalType": "address",
          "name": "owner",
          "type": "address"
        }
      ],
      "name": "ERC1155NonApproved",
      "type": "error"
    },
    {
      "inputs": [
        {
          "internalType": "address",
          "name": "recipient",
          "type": "address"
        },
        {
          "internalType": "uint256[]",
          "name": "ids",
          "type": "uint256[]"
        },
        {
          "internalType": "uint256[]",
          "name": "values",
          "type": "uint256[]"
        }
      ],
      "name": "ERC1155SafeBatchTransferRejected",
      "type": "error"
    },
    {
      "inputs": [
        {
          "internalType": "address",
          "name": "recipient",
          "type": "address"
        },
        {
          "internalType": "uint256",
          "name": "id",
          "type": "uint256"
        },
        {
          "internalType": "uint256",
          "name": "value",
          "type": "uint256"
        }
      ],
      "name": "ERC1155SafeTransferRejected",
      "type": "error"
    },
    {
      "inputs": [
        {
          "internalType": "address",
          "name": "account",
          "type": "address"
        }
      ],
      "name": "ERC1155SelfApprovalForAll",
      "type": "error"
    },
    {
      "inputs": [],
      "name": "ERC1155TransferToAddressZero",
      "type": "error"
    },
    {
      "inputs": [
        {
          "internalType": "uint256",
          "name": "percentage",
          "type": "uint256"
        }
      ],
      "name": "ERC2981IncorrectRoyaltyPercentage",
      "type": "error"
    },
    {
      "inputs": [],
      "name": "ERC2981IncorrectRoyaltyReceiver",
      "type": "error"
    },
    {
      "inputs": [],
      "name": "IllegalInterfaceId",
      "type": "error"
    },
    {
      "inputs": [],
      "name": "InconsistentArrayLengths",
      "type": "error"
    },
    {
      "inputs": [
        {
          "internalType": "address",
          "name": "account",
          "type": "address"
        }
      ],
      "name": "NotContractOwner",
      "type": "error"
    },
    {
      "inputs": [
        {
          "internalType": "address",
          "name": "account",
          "type": "address"
        }
      ],
      "name": "NotMetadataResolver",
      "type": "error"
    },
    {
      "inputs": [
        {
          "internalType": "bytes32",
          "name": "role",
          "type": "bytes32"
        },
        {
          "internalType": "address",
          "name": "account",
          "type": "address"
        }
      ],
      "name": "NotRoleHolder",
      "type": "error"
    },
    {
      "inputs": [
        {
          "internalType": "address",
          "name": "operator",
          "type": "address"
        }
      ],
      "name": "OperatorNotAllowed",
      "type": "error"
    },
    {
      "anonymous": false,
      "inputs": [
        {
          "indexed": true,
          "internalType": "address",
          "name": "owner",
          "type": "address"
        },
        {
          "indexed": true,
          "internalType": "address",
          "name": "operator",
          "type": "address"
        },
        {
          "indexed": false,
          "internalType": "bool",
          "name": "approved",
          "type": "bool"
        }
      ],
      "name": "ApprovalForAll",
      "type": "event"
    },
    {
      "anonymous": false,
      "inputs": [
        {
          "indexed": true,
          "internalType": "address",
          "name": "previousOwner",
          "type": "address"
        },
        {
          "indexed": true,
          "internalType": "address",
          "name": "newOwner",
          "type": "address"
        }
      ],
      "name": "OwnershipTransferred",
      "type": "event"
    },
    {
      "anonymous": false,
      "inputs": [
        {
          "indexed": false,
          "internalType": "bytes32",
          "name": "role",
          "type": "bytes32"
        },
        {
          "indexed": false,
          "internalType": "address",
          "name": "account",
          "type": "address"
        },
        {
          "indexed": false,
          "internalType": "address",
          "name": "operator",
          "type": "address"
        }
      ],
      "name": "RoleGranted",
      "type": "event"
    },
    {
      "anonymous": false,
      "inputs": [
        {
          "indexed": false,
          "internalType": "bytes32",
          "name": "role",
          "type": "bytes32"
        },
        {
          "indexed": false,
          "internalType": "address",
          "name": "account",
          "type": "address"
        },
        {
          "indexed": false,
          "internalType": "address",
          "name": "operator",
          "type": "address"
        }
      ],
      "name": "RoleRevoked",
      "type": "event"
    },
    {
      "anonymous": false,
      "inputs": [
        {
          "indexed": true,
          "internalType": "address",
          "name": "operator",
          "type": "address"
        },
        {
          "indexed": true,
          "internalType": "address",
          "name": "from",
          "type": "address"
        },
        {
          "indexed": true,
          "internalType": "address",
          "name": "to",
          "type": "address"
        },
        {
          "indexed": false,
          "internalType": "uint256[]",
          "name": "ids",
          "type": "uint256[]"
        },
        {
          "indexed": false,
          "internalType": "uint256[]",
          "name": "values",
          "type": "uint256[]"
        }
      ],
      "name": "TransferBatch",
      "type": "event"
    },
    {
      "anonymous": false,
      "inputs": [
        {
          "indexed": true,
          "internalType": "address",
          "name": "operator",
          "type": "address"
        },
        {
          "indexed": true,
          "internalType": "address",
          "name": "from",
          "type": "address"
        },
        {
          "indexed": true,
          "internalType": "address",
          "name": "to",
          "type": "address"
        },
        {
          "indexed": false,
          "internalType": "uint256",
          "name": "id",
          "type": "uint256"
        },
        {
          "indexed": false,
          "internalType": "uint256",
          "name": "value",
          "type": "uint256"
        }
      ],
      "name": "TransferSingle",
      "type": "event"
    },
    {
      "anonymous": false,
      "inputs": [
        {
          "indexed": false,
          "internalType": "string",
          "name": "value",
          "type": "string"
        },
        {
          "indexed": true,
          "internalType": "uint256",
          "name": "id",
          "type": "uint256"
        }
      ],
      "name": "URI",
      "type": "event"
    },
    {
      "inputs": [],
      "name": "MINTER_ROLE",
      "outputs": [
        {
          "internalType": "bytes32",
          "name": "",
          "type": "bytes32"
        }
      ],
      "stateMutability": "view",
      "type": "function"
    },
    {
      "inputs": [],
      "name": "ROYALTY_FEE_DENOMINATOR",
      "outputs": [
        {
          "internalType": "uint256",
          "name": "",
          "type": "uint256"
        }
      ],
      "stateMutability": "view",
      "type": "function"
    },
    {
      "inputs": [],
      "name": "__msgData",
      "outputs": [
        {
          "internalType": "bytes",
          "name": "",
          "type": "bytes"
        }
      ],
      "stateMutability": "view",
      "type": "function"
    },
    {
      "inputs": [
        {
          "internalType": "address",
          "name": "owner",
          "type": "address"
        },
        {
          "internalType": "uint256",
          "name": "id",
          "type": "uint256"
        }
      ],
      "name": "balanceOf",
      "outputs": [
        {
          "internalType": "uint256",
          "name": "balance",
          "type": "uint256"
        }
      ],
      "stateMutability": "view",
      "type": "function"
    },
    {
      "inputs": [
        {
          "internalType": "address[]",
          "name": "owners",
          "type": "address[]"
        },
        {
          "internalType": "uint256[]",
          "name": "ids",
          "type": "uint256[]"
        }
      ],
      "name": "balanceOfBatch",
      "outputs": [
        {
          "internalType": "uint256[]",
          "name": "balances",
          "type": "uint256[]"
        }
      ],
      "stateMutability": "view",
      "type": "function"
    },
    {
      "inputs": [
        {
          "internalType": "address",
          "name": "from",
          "type": "address"
        },
        {
          "internalType": "uint256[]",
          "name": "ids",
          "type": "uint256[]"
        },
        {
          "internalType": "uint256[]",
          "name": "values",
          "type": "uint256[]"
        }
      ],
      "name": "batchBurnFrom",
      "outputs": [],
      "stateMutability": "nonpayable",
      "type": "function"
    },
    {
      "inputs": [
        {
          "internalType": "uint256[]",
          "name": "tokenIds",
          "type": "uint256[]"
        },
        {
          "internalType": "string[]",
          "name": "tokenURIs",
          "type": "string[]"
        }
      ],
      "name": "batchSetTokenURI",
      "outputs": [],
      "stateMutability": "nonpayable",
      "type": "function"
    },
    {
      "inputs": [
        {
          "internalType": "address",
          "name": "from",
          "type": "address"
        },
        {
          "internalType": "uint256",
          "name": "id",
          "type": "uint256"
        },
        {
          "internalType": "uint256",
          "name": "value",
          "type": "uint256"
        }
      ],
      "name": "burnFrom",
      "outputs": [],
      "stateMutability": "nonpayable",
      "type": "function"
    },
    {
      "inputs": [],
      "name": "forwarderRegistry",
      "outputs": [
        {
          "internalType": "contract IForwarderRegistry",
          "name": "",
          "type": "address"
        }
      ],
      "stateMutability": "view",
      "type": "function"
    },
    {
      "inputs": [
        {
          "internalType": "bytes32",
          "name": "role",
          "type": "bytes32"
        },
        {
          "internalType": "address",
          "name": "account",
          "type": "address"
        }
      ],
      "name": "grantRole",
      "outputs": [],
      "stateMutability": "nonpayable",
      "type": "function"
    },
    {
      "inputs": [
        {
          "internalType": "bytes32",
          "name": "role",
          "type": "bytes32"
        },
        {
          "internalType": "address",
          "name": "account",
          "type": "address"
        }
      ],
      "name": "hasRole",
      "outputs": [
        {
          "internalType": "bool",
          "name": "hasRole_",
          "type": "bool"
        }
      ],
      "stateMutability": "view",
      "type": "function"
    },
    {
      "inputs": [
        {
          "internalType": "address",
          "name": "owner",
          "type": "address"
        },
        {
          "internalType": "address",
          "name": "operator",
          "type": "address"
        }
      ],
      "name": "isApprovedForAll",
      "outputs": [
        {
          "internalType": "bool",
          "name": "approvedForAll",
          "type": "bool"
        }
      ],
      "stateMutability": "view",
      "type": "function"
    },
    {
      "inputs": [
        {
          "internalType": "address",
          "name": "forwarder",
          "type": "address"
        }
      ],
      "name": "isTrustedForwarder",
      "outputs": [
        {
          "internalType": "bool",
          "name": "",
          "type": "bool"
        }
      ],
      "stateMutability": "view",
      "type": "function"
    },
    {
      "inputs": [],
      "name": "metadataResolver",
      "outputs": [
        {
          "internalType": "contract ITokenMetadataResolver",
          "name": "tokenMetadataResolver",
          "type": "address"
        }
      ],
      "stateMutability": "view",
      "type": "function"
    },
    {
      "inputs": [],
      "name": "name",
      "outputs": [
        {
          "internalType": "string",
          "name": "tokenName",
          "type": "string"
        }
      ],
      "stateMutability": "view",
      "type": "function"
    },
    {
      "inputs": [],
      "name": "operatorFilterRegistry",
      "outputs": [
        {
          "internalType": "contract IOperatorFilterRegistry",
          "name": "",
          "type": "address"
        }
      ],
      "stateMutability": "view",
      "type": "function"
    },
    {
      "inputs": [],
      "name": "owner",
      "outputs": [
        {
          "internalType": "address",
          "name": "",
          "type": "address"
        }
      ],
      "stateMutability": "view",
      "type": "function"
    },
    {
      "inputs": [
        {
          "internalType": "address[]",
          "name": "accounts",
          "type": "address[]"
        },
        {
          "internalType": "contract IERC20[]",
          "name": "tokens",
          "type": "address[]"
        },
        {
          "internalType": "uint256[]",
          "name": "amounts",
          "type": "uint256[]"
        }
      ],
      "name": "recoverERC20s",
      "outputs": [],
      "stateMutability": "nonpayable",
      "type": "function"
    },
    {
      "inputs": [
        {
          "internalType": "address[]",
          "name": "accounts",
          "type": "address[]"
        },
        {
          "internalType": "contract IERC721[]",
          "name": "contracts",
          "type": "address[]"
        },
        {
          "internalType": "uint256[]",
          "name": "tokenIds",
          "type": "uint256[]"
        }
      ],
      "name": "recoverERC721s",
      "outputs": [],
      "stateMutability": "nonpayable",
      "type": "function"
    },
    {
      "inputs": [
        {
          "internalType": "address payable[]",
          "name": "accounts",
          "type": "address[]"
        },
        {
          "internalType": "uint256[]",
          "name": "amounts",
          "type": "uint256[]"
        }
      ],
      "name": "recoverETH",
      "outputs": [],
      "stateMutability": "nonpayable",
      "type": "function"
    },
    {
      "inputs": [
        {
          "internalType": "bytes32",
          "name": "role",
          "type": "bytes32"
        }
      ],
      "name": "renounceRole",
      "outputs": [],
      "stateMutability": "nonpayable",
      "type": "function"
    },
    {
      "inputs": [
        {
          "internalType": "bytes32",
          "name": "role",
          "type": "bytes32"
        },
        {
          "internalType": "address",
          "name": "account",
          "type": "address"
        }
      ],
      "name": "revokeRole",
      "outputs": [],
      "stateMutability": "nonpayable",
      "type": "function"
    },
    {
      "inputs": [
        {
          "internalType": "uint256",
          "name": "tokenId",
          "type": "uint256"
        },
        {
          "internalType": "uint256",
          "name": "salePrice",
          "type": "uint256"
        }
      ],
      "name": "royaltyInfo",
      "outputs": [
        {
          "internalType": "address",
          "name": "receiver",
          "type": "address"
        },
        {
          "internalType": "uint256",
          "name": "royaltyAmount",
          "type": "uint256"
        }
      ],
      "stateMutability": "view",
      "type": "function"
    },
    {
      "inputs": [
        {
          "internalType": "address",
          "name": "to",
          "type": "address"
        },
        {
          "internalType": "uint256[]",
          "name": "ids",
          "type": "uint256[]"
        },
        {
          "internalType": "uint256[]",
          "name": "values",
          "type": "uint256[]"
        },
        {
          "internalType": "bytes",
          "name": "data",
          "type": "bytes"
        }
      ],
      "name": "safeBatchMint",
      "outputs": [],
      "stateMutability": "nonpayable",
      "type": "function"
    },
    {
      "inputs": [
        {
          "internalType": "address",
          "name": "from",
          "type": "address"
        },
        {
          "internalType": "address",
          "name": "to",
          "type": "address"
        },
        {
          "internalType": "uint256[]",
          "name": "ids",
          "type": "uint256[]"
        },
        {
          "internalType": "uint256[]",
          "name": "values",
          "type": "uint256[]"
        },
        {
          "internalType": "bytes",
          "name": "data",
          "type": "bytes"
        }
      ],
      "name": "safeBatchTransferFrom",
      "outputs": [],
      "stateMutability": "nonpayable",
      "type": "function"
    },
    {
      "inputs": [
        {
          "internalType": "address[]",
          "name": "recipients",
          "type": "address[]"
        },
        {
          "internalType": "uint256[]",
          "name": "ids",
          "type": "uint256[]"
        },
        {
          "internalType": "uint256[]",
          "name": "values",
          "type": "uint256[]"
        },
        {
          "internalType": "bytes",
          "name": "data",
          "type": "bytes"
        }
      ],
      "name": "safeDeliver",
      "outputs": [],
      "stateMutability": "nonpayable",
      "type": "function"
    },
    {
      "inputs": [
        {
          "internalType": "address",
          "name": "to",
          "type": "address"
        },
        {
          "internalType": "uint256",
          "name": "id",
          "type": "uint256"
        },
        {
          "internalType": "uint256",
          "name": "value",
          "type": "uint256"
        },
        {
          "internalType": "bytes",
          "name": "data",
          "type": "bytes"
        }
      ],
      "name": "safeMint",
      "outputs": [],
      "stateMutability": "nonpayable",
      "type": "function"
    },
    {
      "inputs": [
        {
          "internalType": "address",
          "name": "from",
          "type": "address"
        },
        {
          "internalType": "address",
          "name": "to",
          "type": "address"
        },
        {
          "internalType": "uint256",
          "name": "id",
          "type": "uint256"
        },
        {
          "internalType": "uint256",
          "name": "value",
          "type": "uint256"
        },
        {
          "internalType": "bytes",
          "name": "data",
          "type": "bytes"
        }
      ],
      "name": "safeTransferFrom",
      "outputs": [],
      "stateMutability": "nonpayable",
      "type": "function"
    },
    {
      "inputs": [
        {
          "internalType": "address",
          "name": "operator",
          "type": "address"
        },
        {
          "internalType": "bool",
          "name": "approved",
          "type": "bool"
        }
      ],
      "name": "setApprovalForAll",
      "outputs": [],
      "stateMutability": "nonpayable",
      "type": "function"
    },
    {
      "inputs": [
        {
          "internalType": "uint256",
          "name": "percentage",
          "type": "uint256"
        }
      ],
      "name": "setRoyaltyPercentage",
      "outputs": [],
      "stateMutability": "nonpayable",
      "type": "function"
    },
    {
      "inputs": [
        {
          "internalType": "address",
          "name": "receiver",
          "type": "address"
        }
      ],
      "name": "setRoyaltyReceiver",
      "outputs": [],
      "stateMutability": "nonpayable",
      "type": "function"
    },
    {
      "inputs": [
        {
          "internalType": "uint256",
          "name": "tokenId",
          "type": "uint256"
        },
        {
          "internalType": "string",
          "name": "tokenURI",
          "type": "string"
        }
      ],
      "name": "setTokenURI",
      "outputs": [],
      "stateMutability": "nonpayable",
      "type": "function"
    },
    {
      "inputs": [
        {
          "internalType": "bytes4",
          "name": "interfaceId",
          "type": "bytes4"
        }
      ],
      "name": "supportsInterface",
      "outputs": [
        {
          "internalType": "bool",
          "name": "",
          "type": "bool"
        }
      ],
      "stateMutability": "view",
      "type": "function"
    },
    {
      "inputs": [],
      "name": "symbol",
      "outputs": [
        {
          "internalType": "string",
          "name": "tokenSymbol",
          "type": "string"
        }
      ],
      "stateMutability": "view",
      "type": "function"
    },
    {
      "inputs": [
        {
          "internalType": "address",
          "name": "newOwner",
          "type": "address"
        }
      ],
      "name": "transferOwnership",
      "outputs": [],
      "stateMutability": "nonpayable",
      "type": "function"
    },
    {
      "inputs": [
        {
          "internalType": "contract IOperatorFilterRegistry",
          "name": "registry",
          "type": "address"
        }
      ],
      "name": "updateOperatorFilterRegistry",
      "outputs": [],
      "stateMutability": "nonpayable",
      "type": "function"
    },
    {
      "inputs": [
        {
          "internalType": "uint256",
          "name": "tokenId",
          "type": "uint256"
        }
      ],
      "name": "uri",
      "outputs": [
        {
          "internalType": "string",
          "name": "metadataURI",
          "type": "string"
        }
      ],
      "stateMutability": "view",
      "type": "function"
    }
  ],
  "bytecode": "0x60a06040523480156200001157600080fd5b50604051620049693803806200496983398101604081905262000034916200044d565b84848484848080868686863362000056816200004f620000fd565b9062000133565b5062000061620001ae565b6200008e8162000070620001c8565b9081546001600160a01b0319166001600160a01b0391909116179055565b50620000a9838383620000a0620001f8565b92919062000228565b620000b36200026f565b50620000c191505062000287565b620000cb6200029f565b620000d5620002b7565b620000df620002cf565b6001600160a01b031660805250620006769950505050505050505050565b6000806200012d60017fc9ed16f33ab3a66c84bfd83099ccb2a8845871e2e1c1928f63797152f0fd54cd620004f9565b92915050565b6001600160a01b038116156200018a5781546001600160a01b0319166001600160a01b03821690811783556040516000907f8be0079c531659141344cd1fd0a4f28419497f9722a3daafe3b4186f6b6457e0908290a35b620001aa6307f5828d60e41b6001620001a2620002e2565b919062000312565b5050565b620001c6636cdb3d1360e11b6001620001a2620002e2565b565b6000806200012d60017f609b85bcafa81ecfaf3ff62cdde2c6c9082a68dbe4922f07399c706bdeb7cd31620004f9565b6000806200012d60017f7ea68fd2dcf1c056b94db6a0a537aa80d26fa9ab1eacd85da1ba0b61b7e7a8a5620004f9565b83620002358482620005aa565b5060018401620002468382620005aa565b5060029390930180546001600160a01b0319166001600160a01b03909416939093179092555050565b620001c66303a24d0760e21b6001620001a2620002e2565b620001c6631464324b60e21b6001620001a2620002e2565b620001c6633a2ae73360e21b6001620001a2620002e2565b620001c663921ed8d160e01b6001620001a2620002e2565b620001c663152a902d60e11b6001620001a25b6000806200012d60017fca9d3e17f264b0f3984e2634e94adb37fa3e6a8103f06aeae6fa59e21c769f5e620004f9565b600160e01b6001600160e01b031983160162000341576040516372c683bb60e01b815260040160405180910390fd5b6001600160e01b03199190911660009081526020929092526040909120805460ff1916911515919091179055565b634e487b7160e01b600052604160045260246000fd5b600082601f8301126200039757600080fd5b81516001600160401b0380821115620003b457620003b46200036f565b604051601f8301601f19908116603f01168101908282118183101715620003df57620003df6200036f565b81604052838152602092508683858801011115620003fc57600080fd5b600091505b8382101562000420578582018301518183018401529082019062000401565b600093810190920192909252949350505050565b6001600160a01b03811681146200044a57600080fd5b50565b600080600080600060a086880312156200046657600080fd5b85516001600160401b03808211156200047e57600080fd5b6200048c89838a0162000385565b96506020880151915080821115620004a357600080fd5b50620004b28882890162000385565b9450506040860151620004c58162000434565b6060870151909350620004d88162000434565b6080870151909250620004eb8162000434565b809150509295509295909350565b818103818111156200012d57634e487b7160e01b600052601160045260246000fd5b600181811c908216806200053057607f821691505b6020821081036200055157634e487b7160e01b600052602260045260246000fd5b50919050565b601f821115620005a557600081815260208120601f850160051c81016020861015620005805750805b601f850160051c820191505b81811015620005a1578281556001016200058c565b5050505b505050565b81516001600160401b03811115620005c657620005c66200036f565b620005de81620005d784546200051b565b8462000557565b602080601f831160018114620006165760008415620005fd5750858301515b600019600386901b1c1916600185901b178555620005a1565b600085815260208120601f198616915b82811015620006475788860151825594840194600190910190840162000626565b5085821015620006665787850151600019600388901b60f8161c191681555b5050505050600190811b01905550565b6080516142b4620006b56000396000818161037b0152818161042c015281816129e601528181612a6e015281816130d6015261311401526142b46000f3fe608060405234801561001057600080fd5b50600436106102765760003560e01c806373c8a95811610160578063b0ccc31e116100d8578063e8ab9ccc1161008c578063f242432a11610071578063f242432a146105b1578063f2fde38b146105c4578063f7ba94bd146105d757600080fd5b8063e8ab9ccc1461058b578063e985e9c51461059e57600080fd5b8063d5391393116100bd578063d539139314610547578063d547741f1461056e578063e1a8bf2c1461058157600080fd5b8063b0ccc31e1461052c578063c3666c361461053457600080fd5b80638dc251e31161012f57806395d89b411161011457806395d89b4114610509578063a0c76f6214610511578063a22cb4651461051957600080fd5b80638dc251e3146104e357806391d14854146104f657600080fd5b806373c8a958146104a257806380534934146104b55780638bb9c5bf146104c85780638da5cb5b146104db57600080fd5b80632b4c9f16116101f35780634e1273f4116101c25780635cfa9297116101a75780635cfa92971461046957806361ba27da1461047c5780636706467b1461048f57600080fd5b80634e1273f4146103fc578063572b6c051461041c57600080fd5b80632b4c9f16146103795780632eb2c2d6146103c05780632f2ff15d146103d357806331e66e1e146103e657600080fd5b80630e89341c1161024a578063124d91e51161022f578063124d91e514610314578063162094c4146103275780632a55205a1461033a57600080fd5b80630e89341c146102ee578063114ba8ee1461030157600080fd5b8062fdd58e1461027b57806301ffc9a7146102a157806306fdde03146102c45780630d6a5bbb146102d9575b600080fd5b61028e6102893660046135fa565b6105ea565b6040519081526020015b60405180910390f35b6102b46102af366004613654565b610609565b6040519015158152602001610298565b6102cc61061d565b60405161029891906136e6565b6102ec6102e7366004613780565b610634565b005b6102cc6102fc36600461382d565b61072f565b6102ec61030f366004613846565b610745565b6102ec610322366004613863565b6107b0565b6102ec610335366004613898565b6107d4565b61034d6103483660046138e4565b6108a6565b6040805173ffffffffffffffffffffffffffffffffffffffff9093168352602083019190915201610298565b7f00000000000000000000000000000000000000000000000000000000000000005b60405173ffffffffffffffffffffffffffffffffffffffff9091168152602001610298565b6102ec6103ce366004613906565b6108c9565b6102ec6103e13660046139c5565b610916565b6103ee610944565b604051610298929190613a3e565b61040f61040a366004613a52565b610957565b6040516102989190613af9565b6102b461042a366004613846565b7f000000000000000000000000000000000000000000000000000000000000000073ffffffffffffffffffffffffffffffffffffffff90811691161490565b6102ec610477366004613b0c565b61097c565b6102ec61048a36600461382d565b610a0e565b6102ec61049d366004613a52565b610a2b565b6102ec6104b0366004613b76565b610b62565b6102ec6104c3366004613c10565b610c4d565b6102ec6104d636600461382d565b610c70565b61039b610c8b565b6102ec6104f1366004613846565b610cb2565b6102b46105043660046139c5565b610ccf565b6102cc610d13565b61039b610d25565b6102ec610527366004613c90565b610d32565b61039b610d6b565b6102ec610542366004613b76565b610d78565b61028e7f6d696e746572000000000000000000000000000000000000000000000000000081565b6102ec61057c3660046139c5565b610eef565b61028e620186a081565b6102ec610599366004613cbe565b610f1d565b6102b46105ac366004613d61565b611037565b6102ec6105bf366004613d8f565b611085565b6102ec6105d2366004613846565b6110c5565b6102ec6105e5366004613a52565b6110e0565b600061060083836105f9611196565b91906111c4565b90505b92915050565b600061060382610617611248565b90611276565b606061062f61062a611350565b61137e565b905090565b600061063e611414565b90506106747f6d696e74657200000000000000000000000000000000000000000000000000008261066d61141e565b919061144c565b610725818989898080602002602001604051908101604052809392919081815260200183836020028082843760009201919091525050604080516020808d0282810182019093528c82529093508c92508b91829185019084908082843760009201919091525050604080516020601f8c018190048102820181019092528a815292508a915089908190840183828082843760009201919091525061071b9250611196915050565b94939291906114d2565b5050505050505050565b6060610603308361073e611350565b9190611657565b61075e610750611414565b610758611717565b90611745565b6107ad8161076a6117b0565b9081547fffffffffffffffffffffffff00000000000000000000000000000000000000001673ffffffffffffffffffffffffffffffffffffffff91909116179055565b50565b6107cf6107bb611414565b8484846107c6611196565b93929190611820565b505050565b6107fc6107df611350565b6002015473ffffffffffffffffffffffffffffffffffffffff1690565b73ffffffffffffffffffffffffffffffffffffffff163373ffffffffffffffffffffffffffffffffffffffff1614610867576040517f220606710000000000000000000000000000000000000000000000000000000081523360048201526024015b60405180910390fd5b827f6bb7ff708619ba0610cba295a58592e0451dee2622938c8755667688daf3529b8383604051610899929190613a3e565b60405180910390a2505050565b6000806108bd84846108b66118ed565b919061191b565b915091505b9250929050565b60006108d3611414565b90506108e9818a6108e26117b0565b91906119c5565b61090b818a8a8a8a8a8a8a8a6108fd611196565b989796959493929190611a02565b505050505050505050565b6000610920611414565b905061092e81610758611717565b6107cf83838361093c61141e565b929190611c8a565b36600061094f611d61565b915091509091565b606061097185858585610968611196565b93929190611d6c565b90505b949350505050565b6000610986611414565b90506109b57f6d696e74657200000000000000000000000000000000000000000000000000008261066d61141e565b610a068187878787878080601f0160208091040260200160405190810160405280939291908181526020018383808284376000920191909152506109fc9250611196915050565b9493929190611e7a565b505050505050565b610a19610750611414565b6107ad81610a256118ed565b90611f58565b828114610a64576040517f6582533600000000000000000000000000000000000000000000000000000000815260040160405180910390fd5b610a6f6107df611350565b73ffffffffffffffffffffffffffffffffffffffff163373ffffffffffffffffffffffffffffffffffffffff1614610ad5576040517f2206067100000000000000000000000000000000000000000000000000000000815233600482015260240161085e565b60005b808414610b5b57848482818110610af157610af1613df9565b905060200201357f6bb7ff708619ba0610cba295a58592e0451dee2622938c8755667688daf3529b848484818110610b2b57610b2b613df9565b9050602002810190610b3d9190613e28565b604051610b4b929190613a3e565b60405180910390a2600101610ad8565b5050505050565b610b6d610750611414565b848381141580610b7d5750808214155b15610bb4576040517f6582533600000000000000000000000000000000000000000000000000000000815260040160405180910390fd5b60005b81811461072557610c45888883818110610bd357610bd3613df9565b9050602002016020810190610be89190613846565b858584818110610bfa57610bfa613df9565b90506020020135888885818110610c1357610c13613df9565b9050602002016020810190610c289190613846565b73ffffffffffffffffffffffffffffffffffffffff169190611fde565b600101610bb7565b610b5b610c58611414565b8686868686610c65611196565b95949392919061206b565b6107ad610c7b611414565b82610c8461141e565b91906121e2565b600061062f610c98611717565b5473ffffffffffffffffffffffffffffffffffffffff1690565b610cbd610750611414565b6107ad81610cc96118ed565b90612286565b60006106008383610cde61141e565b60009283526020908152604080842073ffffffffffffffffffffffffffffffffffffffff909316845291905290205460ff1690565b606061062f610d20611350565b6122d3565b600061062f6107df611350565b8015610d4a57610d4a82610d446117b0565b906122e4565b610d67610d55611414565b8383610d5f611196565b9291906122ee565b5050565b600061062f610c986117b0565b610d83610750611414565b848381141580610d935750808214155b15610dca576040517f6582533600000000000000000000000000000000000000000000000000000000815260040160405180910390fd5b60005b81811461072557858582818110610de657610de6613df9565b9050602002016020810190610dfb9190613846565b73ffffffffffffffffffffffffffffffffffffffff166323b872dd308a8a85818110610e2957610e29613df9565b9050602002016020810190610e3e9190613846565b878786818110610e5057610e50613df9565b6040517fffffffff0000000000000000000000000000000000000000000000000000000060e088901b16815273ffffffffffffffffffffffffffffffffffffffff958616600482015294909316602485015250602090910201356044820152606401600060405180830381600087803b158015610ecc57600080fd5b505af1158015610ee0573d6000803e3d6000fd5b50505050806001019050610dcd565b6000610ef9611414565b9050610f0781610758611717565b6107cf838383610f1561141e565b929190612406565b6000610f27611414565b9050610f567f6d696e74657200000000000000000000000000000000000000000000000000008261066d61141e565b61090b818a8a8080602002602001604051908101604052809392919081815260200183836020028082843760009201919091525050604080516020808e0282810182019093528d82529093508d92508c91829185019084908082843760009201919091525050604080516020808d0282810182019093528c82529093508c92508b91829185019084908082843760009201919091525050604080516020601f8c018190048102820181019092528a815292508a915089908190840183828082843760009201919091525061102d9250611196915050565b94939291906124d0565b60006106008383611046611196565b919073ffffffffffffffffffffffffffffffffffffffff9182166000908152600193909301602090815260408085209290931684525290205460ff1690565b600061108f611414565b905061109e81886108e26117b0565b6110bc818888888888886110b0611196565b96959493929190612592565b50505050505050565b6107ad6110d0611414565b826110d9611717565b9190612735565b6110eb610750611414565b82818114611125576040517f6582533600000000000000000000000000000000000000000000000000000000815260040160405180910390fd5b60005b818114610a065761118e84848381811061114457611144613df9565b9050602002013587878481811061115d5761115d613df9565b90506020020160208101906111729190613846565b73ffffffffffffffffffffffffffffffffffffffff1690612849565b600101611128565b60008061060360017f5ccf5846fa27a68fafc8e588671a68f5e67c2f9b56af4263806a4d71735e8613613ebc565b600073ffffffffffffffffffffffffffffffffffffffff8316611213576040517fca2434a500000000000000000000000000000000000000000000000000000000815260040160405180910390fd5b5060009081526020928352604080822073ffffffffffffffffffffffffffffffffffffffff9390931682529190925290205490565b60008061060360017fca9d3e17f264b0f3984e2634e94adb37fa3e6a8103f06aeae6fa59e21c769f5e613ebc565b60007c01000000000000000000000000000000000000000000000000000000007fffffffff000000000000000000000000000000000000000000000000000000008316016112c657506000610603565b7ffe003659000000000000000000000000000000000000000000000000000000007fffffffff0000000000000000000000000000000000000000000000000000000083160161131757506001610603565b507fffffffff00000000000000000000000000000000000000000000000000000000166000908152602091909152604090205460ff1690565b60008061060360017f7ea68fd2dcf1c056b94db6a0a537aa80d26fa9ab1eacd85da1ba0b61b7e7a8a5613ebc565b606081600001805461138f90613ecf565b80601f01602080910402602001604051908101604052809291908181526020018280546113bb90613ecf565b80156114085780601f106113dd57610100808354040283529160200191611408565b820191906000526020600020905b8154815290600101906020018083116113eb57829003601f168201915b50505050509050919050565b600061062f6129a3565b60008061060360017fc8827d3282af6f37b64c3e9e6f3ac9df286ab0bb0fccd6f8661bf19adb368b23613ebc565b60008281526020848152604080832073ffffffffffffffffffffffffffffffffffffffff8516845290915290205460ff166107cf576040517f7aa728820000000000000000000000000000000000000000000000000000000081526004810183905273ffffffffffffffffffffffffffffffffffffffff8216602482015260440161085e565b73ffffffffffffffffffffffffffffffffffffffff841661151f576040517f021149bd00000000000000000000000000000000000000000000000000000000815260040160405180910390fd5b82518251811461155b576040517f6582533600000000000000000000000000000000000000000000000000000000815260040160405180910390fd5b60005b8181146115ab576115a3888787848151811061157c5761157c613df9565b602002602001015187858151811061159657611596613df9565b6020026020010151612aea565b60010161155e565b508473ffffffffffffffffffffffffffffffffffffffff16600073ffffffffffffffffffffffffffffffffffffffff168773ffffffffffffffffffffffffffffffffffffffff167f4a39dc06d4c0dbc64b70af90fd698a233a518aa5d07e595d983b8c0526c8f7fb8787604051611623929190613f22565b60405180910390a473ffffffffffffffffffffffffffffffffffffffff85163b156110bc576110bc86600087878787612bbb565b60028301546040517ff724dad700000000000000000000000000000000000000000000000000000000815273ffffffffffffffffffffffffffffffffffffffff848116600483015260248201849052606092169063f724dad790604401600060405180830381865afa1580156116d1573d6000803e3d6000fd5b505050506040513d6000823e601f3d9081017fffffffffffffffffffffffffffffffffffffffffffffffffffffffffffffffe01682016040526109749190810190613f7f565b60008061060360017fc9ed16f33ab3a66c84bfd83099ccb2a8845871e2e1c1928f63797152f0fd54cd613ebc565b815473ffffffffffffffffffffffffffffffffffffffff828116911614610d67576040517f2ef4875e00000000000000000000000000000000000000000000000000000000815273ffffffffffffffffffffffffffffffffffffffff8216600482015260240161085e565b60008061060360017f609b85bcafa81ecfaf3ff62cdde2c6c9082a68dbe4922f07399c706bdeb7cd31613ebc565b81547fffffffffffffffffffffffff00000000000000000000000000000000000000001673ffffffffffffffffffffffffffffffffffffffff91909116179055565b61182b858486612cb9565b611881576040517f05bbb9c400000000000000000000000000000000000000000000000000000000815273ffffffffffffffffffffffffffffffffffffffff80861660048301528416602482015260440161085e565b61188d85848484612d2e565b604080518381526020810183905260009173ffffffffffffffffffffffffffffffffffffffff86811692908816917fc3d58168c5ae7397731d063d5bbf3d657854427343f4c083240f7aacaa2d0f62910160405180910390a45050505050565b60008061060360017f2c0cf10337caabbd02dcf226f05f5fd19a0919a41a8df8958c39b80007826858613ebc565b825473ffffffffffffffffffffffffffffffffffffffff8116906000907401000000000000000000000000000000000000000090046bffffffffffffffffffffffff16831580611969575080155b1561197757600091506119bc565b620186a08410156119a157620186a0611990828661403f565b61199a9190614056565b91506119bc565b806119af620186a086614056565b6119b9919061403f565b91505b50935093915050565b8073ffffffffffffffffffffffffffffffffffffffff168273ffffffffffffffffffffffffffffffffffffffff16146107cf576107cf8383612dcb565b73ffffffffffffffffffffffffffffffffffffffff8716611a4f576040517fb5e8901500000000000000000000000000000000000000000000000000000000815260040160405180910390fd5b84838114611a89576040517f6582533600000000000000000000000000000000000000000000000000000000815260040160405180910390fd5b611a948b8a8c612cb9565b611aea576040517f05bbb9c400000000000000000000000000000000000000000000000000000000815273ffffffffffffffffffffffffffffffffffffffff808c1660048301528a16602482015260440161085e565b60005b818114611b3957611b318c8b8b8b8b86818110611b0c57611b0c613df9565b905060200201358a8a87818110611b2557611b25613df9565b90506020020135612ef2565b600101611aed565b508773ffffffffffffffffffffffffffffffffffffffff168973ffffffffffffffffffffffffffffffffffffffff168b73ffffffffffffffffffffffffffffffffffffffff167f4a39dc06d4c0dbc64b70af90fd698a233a518aa5d07e595d983b8c0526c8f7fb8a8a8a8a604051611bb494939291906140dc565b60405180910390a473ffffffffffffffffffffffffffffffffffffffff88163b15611c7d57611c7d8a8a8a8a8a8080602002602001604051908101604052809392919081815260200183836020028082843760009201919091525050604080516020808e0282810182019093528d82529093508d92508c91829185019084908082843760009201919091525050604080516020601f8d018190048102820181019092528b815292508b91508a9081908401838280828437600092019190915250612bbb92505050565b5050505050505050505050565b60008381526020858152604080832073ffffffffffffffffffffffffffffffffffffffff8616845290915290205460ff16611d5b5760008381526020858152604080832073ffffffffffffffffffffffffffffffffffffffff8681168086529184529382902080547fffffffffffffffffffffffffffffffffffffffffffffffffffffffffffffff00166001179055815187815292830152918316918101919091527f2f8788117e7eff1d82e926ec794901d17c78024a50270940304540a733656f0d906060015b60405180910390a15b50505050565b36600061094f61309f565b606083828114611da8576040517f6582533600000000000000000000000000000000000000000000000000000000815260040160405180910390fd5b8467ffffffffffffffff811115611dc157611dc1613f50565b604051908082528060200260200182016040528015611dea578160200160208202803683370190505b50915060005b818114611e6f57611e4a878783818110611e0c57611e0c613df9565b9050602002016020810190611e219190613846565b868684818110611e3357611e33613df9565b905060200201358a6111c49092919063ffffffff16565b838281518110611e5c57611e5c613df9565b6020908102919091010152600101611df0565b505095945050505050565b73ffffffffffffffffffffffffffffffffffffffff8416611ec7576040517f021149bd00000000000000000000000000000000000000000000000000000000815260040160405180910390fd5b611ed386858585612aea565b604080518481526020810184905273ffffffffffffffffffffffffffffffffffffffff80871692600092918916917fc3d58168c5ae7397731d063d5bbf3d657854427343f4c083240f7aacaa2d0f62910160405180910390a473ffffffffffffffffffffffffffffffffffffffff84163b15610a0657610a0685600086868686613209565b620186a0811115611f98576040517fac0404080000000000000000000000000000000000000000000000000000000081526004810182905260240161085e565b81546bffffffffffffffffffffffff909116740100000000000000000000000000000000000000000273ffffffffffffffffffffffffffffffffffffffff909116179055565b6040805173ffffffffffffffffffffffffffffffffffffffff8416602482015260448082018490528251808303909101815260649091019091526020810180517bffffffffffffffffffffffffffffffffffffffffffffffffffffffff167fa9059cbb000000000000000000000000000000000000000000000000000000001790526107cf908490613327565b828181146120a5576040517f6582533600000000000000000000000000000000000000000000000000000000815260040160405180910390fd5b6120b0888789612cb9565b612106576040517f05bbb9c400000000000000000000000000000000000000000000000000000000815273ffffffffffffffffffffffffffffffffffffffff80891660048301528716602482015260440161085e565b60005b8181146121545761214c898888888581811061212757612127613df9565b9050602002013587878681811061214057612140613df9565b90506020020135612d2e565b600101612109565b50600073ffffffffffffffffffffffffffffffffffffffff168673ffffffffffffffffffffffffffffffffffffffff168873ffffffffffffffffffffffffffffffffffffffff167f4a39dc06d4c0dbc64b70af90fd698a233a518aa5d07e595d983b8c0526c8f7fb888888886040516121d094939291906140dc565b60405180910390a45050505050505050565b6121ed83828461144c565b60008181526020848152604080832073ffffffffffffffffffffffffffffffffffffffff86168085529083529281902080547fffffffffffffffffffffffffffffffffffffffffffffffffffffffffffffff0016905580518481529182018390528101919091527ff6391f5c32d9c69d2a47ea670b442974b53935d1edc7fd64eb21e047a839171b9060600160405180910390a1505050565b73ffffffffffffffffffffffffffffffffffffffff81166117de576040517f16de0c8000000000000000000000000000000000000000000000000000000000815260040160405180910390fd5b606081600101805461138f90613ecf565b610d678282612dcb565b8273ffffffffffffffffffffffffffffffffffffffff168273ffffffffffffffffffffffffffffffffffffffff160361236b576040517ffb0fdf6100000000000000000000000000000000000000000000000000000000815273ffffffffffffffffffffffffffffffffffffffff8416600482015260240161085e565b73ffffffffffffffffffffffffffffffffffffffff838116600081815260018701602090815260408083209487168084529482529182902080547fffffffffffffffffffffffffffffffffffffffffffffffffffffffffffffff001686151590811790915591519182527f17307eab39ab6107e8899845ad3d59bd9653f200f220920489ca2b5937696c31910160405180910390a350505050565b60008381526020858152604080832073ffffffffffffffffffffffffffffffffffffffff8616845290915290205460ff1615611d5b5760008381526020858152604080832073ffffffffffffffffffffffffffffffffffffffff8681168086529184529382902080547fffffffffffffffffffffffffffffffffffffffffffffffffffffffffffffff00169055815187815292830152918316918101919091527ff6391f5c32d9c69d2a47ea670b442974b53935d1edc7fd64eb21e047a839171b90606001611d52565b83518351811415806124e3575082518114155b1561251a576040517f6582533600000000000000000000000000000000000000000000000000000000815260040160405180910390fd5b60005b8181146107255761258a8787838151811061253a5761253a613df9565b602002602001015187848151811061255457612554613df9565b602002602001015187858151811061256e5761256e613df9565b6020026020010151878d611e7a9095949392919063ffffffff16565b60010161251d565b73ffffffffffffffffffffffffffffffffffffffff85166125df576040517fb5e8901500000000000000000000000000000000000000000000000000000000815260040160405180910390fd5b6125ea888789612cb9565b612640576040517f05bbb9c400000000000000000000000000000000000000000000000000000000815273ffffffffffffffffffffffffffffffffffffffff80891660048301528716602482015260440161085e565b61264d8887878787612ef2565b8473ffffffffffffffffffffffffffffffffffffffff168673ffffffffffffffffffffffffffffffffffffffff168873ffffffffffffffffffffffffffffffffffffffff167fc3d58168c5ae7397731d063d5bbf3d657854427343f4c083240f7aacaa2d0f6287876040516126cc929190918252602082015260400190565b60405180910390a473ffffffffffffffffffffffffffffffffffffffff85163b1561072557610725878787878787878080601f01602080910402602001604051908101604052809392919081815260200183838082843760009201919091525061320992505050565b825473ffffffffffffffffffffffffffffffffffffffff90811690831681146127a2576040517f2ef4875e00000000000000000000000000000000000000000000000000000000815273ffffffffffffffffffffffffffffffffffffffff8416600482015260240161085e565b8173ffffffffffffffffffffffffffffffffffffffff168173ffffffffffffffffffffffffffffffffffffffff1614611d5b5783547fffffffffffffffffffffffff00000000000000000000000000000000000000001673ffffffffffffffffffffffffffffffffffffffff8381169182178655604051908316907f8be0079c531659141344cd1fd0a4f28419497f9722a3daafe3b4186f6b6457e090600090a350505050565b804710156128b3576040517f08c379a000000000000000000000000000000000000000000000000000000000815260206004820152601d60248201527f416464726573733a20696e73756666696369656e742062616c616e6365000000604482015260640161085e565b60008273ffffffffffffffffffffffffffffffffffffffff168260405160006040518083038185875af1925050503d806000811461290d576040519150601f19603f3d011682016040523d82523d6000602084013e612912565b606091505b50509050806107cf576040517f08c379a000000000000000000000000000000000000000000000000000000000815260206004820152603a60248201527f416464726573733a20756e61626c6520746f2073656e642076616c75652c207260448201527f6563697069656e74206d61792068617665207265766572746564000000000000606482015260840161085e565b6000333214806129b35750601836105b156129bd57503390565b7fffffffffffffffffffffffffffffffffffffffffffffffffffffffffffffffec36013560601c7f000000000000000000000000000000000000000000000000000000000000000073ffffffffffffffffffffffffffffffffffffffff16331480612ad957506040517f8929a8ca00000000000000000000000000000000000000000000000000000000815273ffffffffffffffffffffffffffffffffffffffff82811660048301523360248301527f00000000000000000000000000000000000000000000000000000000000000001690638929a8ca90604401602060405180830381865afa158015612ab5573d6000803e3d6000fd5b505050506040513d601f19601f82011682018060405250810190612ad99190614103565b15612ae357919050565b3391505090565b8015611d5b5760008281526020858152604080832073ffffffffffffffffffffffffffffffffffffffff87168452909152902054818101818111612b87576040517f42fb00bc00000000000000000000000000000000000000000000000000000000815273ffffffffffffffffffffffffffffffffffffffff8616600482015260248101859052604481018390526064810184905260840161085e565b60009384526020958652604080852073ffffffffffffffffffffffffffffffffffffffff9690961685529490955250502055565b6040517fbc197c81000000000000000000000000000000000000000000000000000000008082529073ffffffffffffffffffffffffffffffffffffffff86169063bc197c8190612c17908a908a90899089908990600401614120565b6020604051808303816000875af1158015612c36573d6000803e3d6000fd5b505050506040513d601f19601f82011682018060405250810190612c5a919061418b565b7fffffffff000000000000000000000000000000000000000000000000000000001614610a06578383836040517fc287817e00000000000000000000000000000000000000000000000000000000815260040161085e939291906141a8565b60008173ffffffffffffffffffffffffffffffffffffffff168373ffffffffffffffffffffffffffffffffffffffff16148061097457505073ffffffffffffffffffffffffffffffffffffffff9182166000908152600193909301602090815260408085209290931684525290205460ff1690565b8015611d5b5760008281526020858152604080832073ffffffffffffffffffffffffffffffffffffffff87168452909152902054818103818110612b87576040517f03dee4c500000000000000000000000000000000000000000000000000000000815273ffffffffffffffffffffffffffffffffffffffff8616600482015260248101859052604481018390526064810184905260840161085e565b815473ffffffffffffffffffffffffffffffffffffffff168015801590612e09575060008173ffffffffffffffffffffffffffffffffffffffff163b115b156107cf576040517fc617113400000000000000000000000000000000000000000000000000000000815230600482015273ffffffffffffffffffffffffffffffffffffffff838116602483015282169063c617113490604401602060405180830381865afa158015612e80573d6000803e3d6000fd5b505050506040513d601f19601f82011682018060405250810190612ea49190614103565b6107cf576040517fede71dcc00000000000000000000000000000000000000000000000000000000815273ffffffffffffffffffffffffffffffffffffffff8316600482015260240161085e565b8015610b5b5760008281526020868152604080832073ffffffffffffffffffffffffffffffffffffffff88168452909152902054818103818110612f8f576040517f03dee4c500000000000000000000000000000000000000000000000000000000815273ffffffffffffffffffffffffffffffffffffffff8716600482015260248101859052604481018390526064810184905260840161085e565b8473ffffffffffffffffffffffffffffffffffffffff168673ffffffffffffffffffffffffffffffffffffffff16146110bc5760008481526020888152604080832073ffffffffffffffffffffffffffffffffffffffff89168452909152902054838101818111613059576040517f42fb00bc00000000000000000000000000000000000000000000000000000000815273ffffffffffffffffffffffffffffffffffffffff8816600482015260248101879052604481018390526064810186905260840161085e565b600086815260208a8152604080832073ffffffffffffffffffffffffffffffffffffffff808d1685528184528285208890558b1684529091529020555050505050505050565b366000333214806130b05750601836105b156130be5750600091369150565b3373ffffffffffffffffffffffffffffffffffffffff7f00000000000000000000000000000000000000000000000000000000000000001614806131f3575073ffffffffffffffffffffffffffffffffffffffff7f000000000000000000000000000000000000000000000000000000000000000016638929a8ca367fffffffffffffffffffffffffffffffffffffffffffffffffffffffffffffffec013560601c6040517fffffffff0000000000000000000000000000000000000000000000000000000060e084901b16815273ffffffffffffffffffffffffffffffffffffffff9091166004820152336024820152604401602060405180830381865afa1580156131cf573d6000803e3d6000fd5b505050506040513d601f19601f820116820180604052508101906131f39190614103565b156132005761094f613436565b50600091369150565b6040517ff23a6e61000000000000000000000000000000000000000000000000000000008082529073ffffffffffffffffffffffffffffffffffffffff86169063f23a6e6190613265908a908a908990899089906004016141f3565b6020604051808303816000875af1158015613284573d6000803e3d6000fd5b505050506040513d601f19601f820116820180604052508101906132a8919061418b565b7fffffffff000000000000000000000000000000000000000000000000000000001614610a06576040517f40f39d3800000000000000000000000000000000000000000000000000000000815273ffffffffffffffffffffffffffffffffffffffff85166004820152602481018490526044810183905260640161085e565b6000613389826040518060400160405280602081526020017f5361666545524332303a206c6f772d6c6576656c2063616c6c206661696c65648152508573ffffffffffffffffffffffffffffffffffffffff166134679092919063ffffffff16565b90508051600014806133aa5750808060200190518101906133aa9190614103565b6107cf576040517f08c379a000000000000000000000000000000000000000000000000000000000815260206004820152602a60248201527f5361666545524332303a204552433230206f7065726174696f6e20646964206e60448201527f6f74207375636365656400000000000000000000000000000000000000000000606482015260840161085e565b36600061094f7fffffffffffffffffffffffffffffffffffffffffffffffffffffffffffffffec8301828481614238565b60606109748484600085856000808673ffffffffffffffffffffffffffffffffffffffff16858760405161349b9190614262565b60006040518083038185875af1925050503d80600081146134d8576040519150601f19603f3d011682016040523d82523d6000602084013e6134dd565b606091505b50915091506134ee878383876134f9565b979650505050505050565b6060831561358f5782516000036135885773ffffffffffffffffffffffffffffffffffffffff85163b613588576040517f08c379a000000000000000000000000000000000000000000000000000000000815260206004820152601d60248201527f416464726573733a2063616c6c20746f206e6f6e2d636f6e7472616374000000604482015260640161085e565b5081610974565b61097483838151156135a45781518083602001fd5b806040517f08c379a000000000000000000000000000000000000000000000000000000000815260040161085e91906136e6565b73ffffffffffffffffffffffffffffffffffffffff811681146107ad57600080fd5b6000806040838503121561360d57600080fd5b8235613618816135d8565b946020939093013593505050565b7fffffffff00000000000000000000000000000000000000000000000000000000811681146107ad57600080fd5b60006020828403121561366657600080fd5b813561367181613626565b9392505050565b60005b8381101561369357818101518382015260200161367b565b50506000910152565b600081518084526136b4816020860160208601613678565b601f017fffffffffffffffffffffffffffffffffffffffffffffffffffffffffffffffe0169290920160200192915050565b602081526000610600602083018461369c565b60008083601f84011261370b57600080fd5b50813567ffffffffffffffff81111561372357600080fd5b6020830191508360208260051b85010111156108c257600080fd5b60008083601f84011261375057600080fd5b50813567ffffffffffffffff81111561376857600080fd5b6020830191508360208285010111156108c257600080fd5b60008060008060008060006080888a03121561379b57600080fd5b87356137a6816135d8565b9650602088013567ffffffffffffffff808211156137c357600080fd5b6137cf8b838c016136f9565b909850965060408a01359150808211156137e857600080fd5b6137f48b838c016136f9565b909650945060608a013591508082111561380d57600080fd5b5061381a8a828b0161373e565b989b979a50959850939692959293505050565b60006020828403121561383f57600080fd5b5035919050565b60006020828403121561385857600080fd5b8135613671816135d8565b60008060006060848603121561387857600080fd5b8335613883816135d8565b95602085013595506040909401359392505050565b6000806000604084860312156138ad57600080fd5b83359250602084013567ffffffffffffffff8111156138cb57600080fd5b6138d78682870161373e565b9497909650939450505050565b600080604083850312156138f757600080fd5b50508035926020909101359150565b60008060008060008060008060a0898b03121561392257600080fd5b883561392d816135d8565b9750602089013561393d816135d8565b9650604089013567ffffffffffffffff8082111561395a57600080fd5b6139668c838d016136f9565b909850965060608b013591508082111561397f57600080fd5b61398b8c838d016136f9565b909650945060808b01359150808211156139a457600080fd5b506139b18b828c0161373e565b999c989b5096995094979396929594505050565b600080604083850312156139d857600080fd5b8235915060208301356139ea816135d8565b809150509250929050565b8183528181602085013750600060208284010152600060207fffffffffffffffffffffffffffffffffffffffffffffffffffffffffffffffe0601f840116840101905092915050565b6020815260006109746020830184866139f5565b60008060008060408587031215613a6857600080fd5b843567ffffffffffffffff80821115613a8057600080fd5b613a8c888389016136f9565b90965094506020870135915080821115613aa557600080fd5b50613ab2878288016136f9565b95989497509550505050565b600081518084526020808501945080840160005b83811015613aee57815187529582019590820190600101613ad2565b509495945050505050565b6020815260006106006020830184613abe565b600080600080600060808688031215613b2457600080fd5b8535613b2f816135d8565b94506020860135935060408601359250606086013567ffffffffffffffff811115613b5957600080fd5b613b658882890161373e565b969995985093965092949392505050565b60008060008060008060608789031215613b8f57600080fd5b863567ffffffffffffffff80821115613ba757600080fd5b613bb38a838b016136f9565b90985096506020890135915080821115613bcc57600080fd5b613bd88a838b016136f9565b90965094506040890135915080821115613bf157600080fd5b50613bfe89828a016136f9565b979a9699509497509295939492505050565b600080600080600060608688031215613c2857600080fd5b8535613c33816135d8565b9450602086013567ffffffffffffffff80821115613c5057600080fd5b613c5c89838a016136f9565b90965094506040880135915080821115613c7557600080fd5b50613b65888289016136f9565b80151581146107ad57600080fd5b60008060408385031215613ca357600080fd5b8235613cae816135d8565b915060208301356139ea81613c82565b6000806000806000806000806080898b031215613cda57600080fd5b883567ffffffffffffffff80821115613cf257600080fd5b613cfe8c838d016136f9565b909a50985060208b0135915080821115613d1757600080fd5b613d238c838d016136f9565b909850965060408b0135915080821115613d3c57600080fd5b613d488c838d016136f9565b909650945060608b01359150808211156139a457600080fd5b60008060408385031215613d7457600080fd5b8235613d7f816135d8565b915060208301356139ea816135d8565b60008060008060008060a08789031215613da857600080fd5b8635613db3816135d8565b95506020870135613dc3816135d8565b94506040870135935060608701359250608087013567ffffffffffffffff811115613ded57600080fd5b613bfe89828a0161373e565b7f4e487b7100000000000000000000000000000000000000000000000000000000600052603260045260246000fd5b60008083357fffffffffffffffffffffffffffffffffffffffffffffffffffffffffffffffe1843603018112613e5d57600080fd5b83018035915067ffffffffffffffff821115613e7857600080fd5b6020019150368190038213156108c257600080fd5b7f4e487b7100000000000000000000000000000000000000000000000000000000600052601160045260246000fd5b8181038181111561060357610603613e8d565b600181811c90821680613ee357607f821691505b602082108103613f1c577f4e487b7100000000000000000000000000000000000000000000000000000000600052602260045260246000fd5b50919050565b604081526000613f356040830185613abe565b8281036020840152613f478185613abe565b95945050505050565b7f4e487b7100000000000000000000000000000000000000000000000000000000600052604160045260246000fd5b600060208284031215613f9157600080fd5b815167ffffffffffffffff80821115613fa957600080fd5b818401915084601f830112613fbd57600080fd5b815181811115613fcf57613fcf613f50565b604051601f82017fffffffffffffffffffffffffffffffffffffffffffffffffffffffffffffffe0908116603f0116810190838211818310171561401557614015613f50565b8160405282815287602084870101111561402e57600080fd5b6134ee836020830160208801613678565b808202811582820484141761060357610603613e8d565b60008261408c577f4e487b7100000000000000000000000000000000000000000000000000000000600052601260045260246000fd5b500490565b81835260007f07ffffffffffffffffffffffffffffffffffffffffffffffffffffffffffffff8311156140c357600080fd5b8260051b80836020870137939093016020019392505050565b6040815260006140f0604083018688614091565b82810360208401526134ee818587614091565b60006020828403121561411557600080fd5b815161367181613c82565b600073ffffffffffffffffffffffffffffffffffffffff808816835280871660208401525060a0604083015261415960a0830186613abe565b828103606084015261416b8186613abe565b9050828103608084015261417f818561369c565b98975050505050505050565b60006020828403121561419d57600080fd5b815161367181613626565b73ffffffffffffffffffffffffffffffffffffffff841681526060602082015260006141d76060830185613abe565b82810360408401526141e98185613abe565b9695505050505050565b600073ffffffffffffffffffffffffffffffffffffffff808816835280871660208401525084604083015283606083015260a060808301526134ee60a083018461369c565b6000808585111561424857600080fd5b8386111561425557600080fd5b5050820193919092039150565b60008251614274818460208701613678565b919091019291505056fea26469706673582212208a3848ee6e02fd5621802f87b1586444798f715030fb26c066825d196d46e77764736f6c63430008150033",
  "linkReferences": {},
  "deployedLinkReferences": {}
}