{
  "_format": "hh-sol-artifact-1",
  "contractName": "ERC1155FullBurnMock",
  "sourceName": "contracts/mocks/token/ERC1155/preset/ERC1155FullBurnMock.sol",
  "abi": [
    {
      "inputs": [
        {
          "internalType": "string",
          "name": "tokenName",
          "type": "string"
        },
        {
          "internalType": "string",
          "name": "tokenSymbol",
          "type": "string"
        },
        {
          "internalType": "contract ITokenMetadataResolver",
          "name": "metadataResolver",
          "type": "address"
        },
        {
          "internalType": "contract IOperatorFilterRegistry",
          "name": "filterRegistry",
          "type": "address"
        },
        {
          "internalType": "contract IForwarderRegistry",
          "name": "forwarderRegistry",
          "type": "address"
        }
      ],
      "stateMutability": "nonpayable",
      "type": "constructor"
    },
    {
      "inputs": [],
      "name": "ERC1155BalanceOfAddressZero",
      "type": "error"
    },
    {
      "inputs": [
        {
          "internalType": "address",
          "name": "recipient",
          "type": "address"
        },
        {
          "internalType": "uint256",
          "name": "id",
          "type": "uint256"
        },
        {
          "internalType": "uint256",
          "name": "balance",
          "type": "uint256"
        },
        {
          "internalType": "uint256",
          "name": "value",
          "type": "uint256"
        }
      ],
      "name": "ERC1155BalanceOverflow",
      "type": "error"
    },
    {
      "inputs": [
        {
          "internalType": "address",
          "name": "owner",
          "type": "address"
        },
        {
          "internalType": "uint256",
          "name": "id",
          "type": "uint256"
        },
        {
          "internalType": "uint256",
          "name": "balance",
          "type": "uint256"
        },
        {
          "internalType": "uint256",
          "name": "value",
          "type": "uint256"
        }
      ],
      "name": "ERC1155InsufficientBalance",
      "type": "error"
    },
    {
      "inputs": [],
      "name": "ERC1155MintToAddressZero",
      "type": "error"
    },
    {
      "inputs": [
        {
          "internalType": "address",
          "name": "sender",
          "type": "address"
        },
        {
          "internalType": "address",
          "name": "owner",
          "type": "address"
        }
      ],
      "name": "ERC1155NonApproved",
      "type": "error"
    },
    {
      "inputs": [
        {
          "internalType": "address",
          "name": "recipient",
          "type": "address"
        },
        {
          "internalType": "uint256[]",
          "name": "ids",
          "type": "uint256[]"
        },
        {
          "internalType": "uint256[]",
          "name": "values",
          "type": "uint256[]"
        }
      ],
      "name": "ERC1155SafeBatchTransferRejected",
      "type": "error"
    },
    {
      "inputs": [
        {
          "internalType": "address",
          "name": "recipient",
          "type": "address"
        },
        {
          "internalType": "uint256",
          "name": "id",
          "type": "uint256"
        },
        {
          "internalType": "uint256",
          "name": "value",
          "type": "uint256"
        }
      ],
      "name": "ERC1155SafeTransferRejected",
      "type": "error"
    },
    {
      "inputs": [
        {
          "internalType": "address",
          "name": "account",
          "type": "address"
        }
      ],
      "name": "ERC1155SelfApprovalForAll",
      "type": "error"
    },
    {
      "inputs": [],
      "name": "ERC1155TransferToAddressZero",
      "type": "error"
    },
    {
      "inputs": [
        {
          "internalType": "uint256",
          "name": "percentage",
          "type": "uint256"
        }
      ],
      "name": "ERC2981IncorrectRoyaltyPercentage",
      "type": "error"
    },
    {
      "inputs": [],
      "name": "ERC2981IncorrectRoyaltyReceiver",
      "type": "error"
    },
    {
      "inputs": [],
      "name": "FailedCall",
      "type": "error"
    },
    {
      "inputs": [],
      "name": "IllegalInterfaceId",
      "type": "error"
    },
    {
      "inputs": [],
      "name": "InconsistentArrayLengths",
      "type": "error"
    },
    {
      "inputs": [
        {
          "internalType": "address",
          "name": "tokenContract",
          "type": "address"
        }
      ],
      "name": "IncorrectTokenContractType",
      "type": "error"
    },
    {
      "inputs": [
        {
          "internalType": "uint256",
          "name": "balance",
          "type": "uint256"
        },
        {
          "internalType": "uint256",
          "name": "needed",
          "type": "uint256"
        }
      ],
      "name": "InsufficientBalance",
      "type": "error"
    },
    {
      "inputs": [
        {
          "internalType": "address",
          "name": "account",
          "type": "address"
        }
      ],
      "name": "NotContractOwner",
      "type": "error"
    },
    {
      "inputs": [
        {
          "internalType": "address",
          "name": "account",
          "type": "address"
        }
      ],
      "name": "NotMetadataResolver",
      "type": "error"
    },
    {
      "inputs": [
        {
          "internalType": "bytes32",
          "name": "role",
          "type": "bytes32"
        },
        {
          "internalType": "address",
          "name": "account",
          "type": "address"
        }
      ],
      "name": "NotRoleHolder",
      "type": "error"
    },
    {
      "inputs": [
        {
          "internalType": "address",
          "name": "operator",
          "type": "address"
        }
      ],
      "name": "OperatorNotAllowed",
      "type": "error"
    },
    {
      "inputs": [
        {
          "internalType": "address",
          "name": "token",
          "type": "address"
        }
      ],
      "name": "SafeERC20FailedOperation",
      "type": "error"
    },
    {
      "anonymous": false,
      "inputs": [
        {
          "indexed": true,
          "internalType": "address",
          "name": "owner",
          "type": "address"
        },
        {
          "indexed": true,
          "internalType": "address",
          "name": "operator",
          "type": "address"
        },
        {
          "indexed": false,
          "internalType": "bool",
          "name": "approved",
          "type": "bool"
        }
      ],
      "name": "ApprovalForAll",
      "type": "event"
    },
    {
      "anonymous": false,
      "inputs": [
        {
          "indexed": true,
          "internalType": "address",
          "name": "previousOwner",
          "type": "address"
        },
        {
          "indexed": true,
          "internalType": "address",
          "name": "newOwner",
          "type": "address"
        }
      ],
      "name": "OwnershipTransferred",
      "type": "event"
    },
    {
      "anonymous": false,
      "inputs": [
        {
          "indexed": false,
          "internalType": "bytes32",
          "name": "role",
          "type": "bytes32"
        },
        {
          "indexed": false,
          "internalType": "address",
          "name": "account",
          "type": "address"
        },
        {
          "indexed": false,
          "internalType": "address",
          "name": "operator",
          "type": "address"
        }
      ],
      "name": "RoleGranted",
      "type": "event"
    },
    {
      "anonymous": false,
      "inputs": [
        {
          "indexed": false,
          "internalType": "bytes32",
          "name": "role",
          "type": "bytes32"
        },
        {
          "indexed": false,
          "internalType": "address",
          "name": "account",
          "type": "address"
        },
        {
          "indexed": false,
          "internalType": "address",
          "name": "operator",
          "type": "address"
        }
      ],
      "name": "RoleRevoked",
      "type": "event"
    },
    {
      "anonymous": false,
      "inputs": [
        {
          "indexed": true,
          "internalType": "address",
          "name": "operator",
          "type": "address"
        },
        {
          "indexed": true,
          "internalType": "address",
          "name": "from",
          "type": "address"
        },
        {
          "indexed": true,
          "internalType": "address",
          "name": "to",
          "type": "address"
        },
        {
          "indexed": false,
          "internalType": "uint256[]",
          "name": "ids",
          "type": "uint256[]"
        },
        {
          "indexed": false,
          "internalType": "uint256[]",
          "name": "values",
          "type": "uint256[]"
        }
      ],
      "name": "TransferBatch",
      "type": "event"
    },
    {
      "anonymous": false,
      "inputs": [
        {
          "indexed": true,
          "internalType": "address",
          "name": "operator",
          "type": "address"
        },
        {
          "indexed": true,
          "internalType": "address",
          "name": "from",
          "type": "address"
        },
        {
          "indexed": true,
          "internalType": "address",
          "name": "to",
          "type": "address"
        },
        {
          "indexed": false,
          "internalType": "uint256",
          "name": "id",
          "type": "uint256"
        },
        {
          "indexed": false,
          "internalType": "uint256",
          "name": "value",
          "type": "uint256"
        }
      ],
      "name": "TransferSingle",
      "type": "event"
    },
    {
      "anonymous": false,
      "inputs": [
        {
          "indexed": false,
          "internalType": "string",
          "name": "value",
          "type": "string"
        },
        {
          "indexed": true,
          "internalType": "uint256",
          "name": "id",
          "type": "uint256"
        }
      ],
      "name": "URI",
      "type": "event"
    },
    {
      "inputs": [],
      "name": "MINTER_ROLE",
      "outputs": [
        {
          "internalType": "bytes32",
          "name": "",
          "type": "bytes32"
        }
      ],
      "stateMutability": "view",
      "type": "function"
    },
    {
      "inputs": [],
      "name": "ROYALTY_FEE_DENOMINATOR",
      "outputs": [
        {
          "internalType": "uint256",
          "name": "",
          "type": "uint256"
        }
      ],
      "stateMutability": "view",
      "type": "function"
    },
    {
      "inputs": [],
      "name": "__msgData",
      "outputs": [
        {
          "internalType": "bytes",
          "name": "",
          "type": "bytes"
        }
      ],
      "stateMutability": "view",
      "type": "function"
    },
    {
      "inputs": [
        {
          "internalType": "address",
          "name": "owner",
          "type": "address"
        },
        {
          "internalType": "uint256",
          "name": "id",
          "type": "uint256"
        }
      ],
      "name": "balanceOf",
      "outputs": [
        {
          "internalType": "uint256",
          "name": "balance",
          "type": "uint256"
        }
      ],
      "stateMutability": "view",
      "type": "function"
    },
    {
      "inputs": [
        {
          "internalType": "address[]",
          "name": "owners",
          "type": "address[]"
        },
        {
          "internalType": "uint256[]",
          "name": "ids",
          "type": "uint256[]"
        }
      ],
      "name": "balanceOfBatch",
      "outputs": [
        {
          "internalType": "uint256[]",
          "name": "balances",
          "type": "uint256[]"
        }
      ],
      "stateMutability": "view",
      "type": "function"
    },
    {
      "inputs": [
        {
          "internalType": "address",
          "name": "from",
          "type": "address"
        },
        {
          "internalType": "uint256[]",
          "name": "ids",
          "type": "uint256[]"
        },
        {
          "internalType": "uint256[]",
          "name": "values",
          "type": "uint256[]"
        }
      ],
      "name": "batchBurnFrom",
      "outputs": [],
      "stateMutability": "nonpayable",
      "type": "function"
    },
    {
      "inputs": [
        {
          "internalType": "uint256[]",
          "name": "tokenIds",
          "type": "uint256[]"
        },
        {
          "internalType": "string[]",
          "name": "tokenURIs",
          "type": "string[]"
        }
      ],
      "name": "batchSetTokenURI",
      "outputs": [],
      "stateMutability": "nonpayable",
      "type": "function"
    },
    {
      "inputs": [
        {
          "internalType": "address",
          "name": "from",
          "type": "address"
        },
        {
          "internalType": "uint256",
          "name": "id",
          "type": "uint256"
        },
        {
          "internalType": "uint256",
          "name": "value",
          "type": "uint256"
        }
      ],
      "name": "burnFrom",
      "outputs": [],
      "stateMutability": "nonpayable",
      "type": "function"
    },
    {
      "inputs": [],
      "name": "forwarderRegistry",
      "outputs": [
        {
          "internalType": "contract IForwarderRegistry",
          "name": "",
          "type": "address"
        }
      ],
      "stateMutability": "view",
      "type": "function"
    },
    {
      "inputs": [
        {
          "internalType": "bytes32",
          "name": "role",
          "type": "bytes32"
        },
        {
          "internalType": "address",
          "name": "account",
          "type": "address"
        }
      ],
      "name": "grantRole",
      "outputs": [],
      "stateMutability": "nonpayable",
      "type": "function"
    },
    {
      "inputs": [
        {
          "internalType": "bytes32",
          "name": "role",
          "type": "bytes32"
        },
        {
          "internalType": "address",
          "name": "account",
          "type": "address"
        }
      ],
      "name": "hasRole",
      "outputs": [
        {
          "internalType": "bool",
          "name": "hasRole_",
          "type": "bool"
        }
      ],
      "stateMutability": "view",
      "type": "function"
    },
    {
      "inputs": [
        {
          "internalType": "address",
          "name": "owner",
          "type": "address"
        },
        {
          "internalType": "address",
          "name": "operator",
          "type": "address"
        }
      ],
      "name": "isApprovedForAll",
      "outputs": [
        {
          "internalType": "bool",
          "name": "approvedForAll",
          "type": "bool"
        }
      ],
      "stateMutability": "view",
      "type": "function"
    },
    {
      "inputs": [
        {
          "internalType": "address",
          "name": "forwarder",
          "type": "address"
        }
      ],
      "name": "isTrustedForwarder",
      "outputs": [
        {
          "internalType": "bool",
          "name": "",
          "type": "bool"
        }
      ],
      "stateMutability": "view",
      "type": "function"
    },
    {
      "inputs": [],
      "name": "metadataResolver",
      "outputs": [
        {
          "internalType": "contract ITokenMetadataResolver",
          "name": "tokenMetadataResolver",
          "type": "address"
        }
      ],
      "stateMutability": "view",
      "type": "function"
    },
    {
      "inputs": [],
      "name": "name",
      "outputs": [
        {
          "internalType": "string",
          "name": "tokenName",
          "type": "string"
        }
      ],
      "stateMutability": "view",
      "type": "function"
    },
    {
      "inputs": [],
      "name": "operatorFilterRegistry",
      "outputs": [
        {
          "internalType": "contract IOperatorFilterRegistry",
          "name": "",
          "type": "address"
        }
      ],
      "stateMutability": "view",
      "type": "function"
    },
    {
      "inputs": [],
      "name": "owner",
      "outputs": [
        {
          "internalType": "address",
          "name": "",
          "type": "address"
        }
      ],
      "stateMutability": "view",
      "type": "function"
    },
    {
      "inputs": [
        {
          "internalType": "address[]",
          "name": "accounts",
          "type": "address[]"
        },
        {
          "internalType": "contract IERC20[]",
          "name": "tokens",
          "type": "address[]"
        },
        {
          "internalType": "uint256[]",
          "name": "amounts",
          "type": "uint256[]"
        }
      ],
      "name": "recoverERC20s",
      "outputs": [],
      "stateMutability": "nonpayable",
      "type": "function"
    },
    {
      "inputs": [
        {
          "internalType": "address[]",
          "name": "accounts",
          "type": "address[]"
        },
        {
          "internalType": "contract IERC721[]",
          "name": "contracts",
          "type": "address[]"
        },
        {
          "internalType": "uint256[]",
          "name": "tokenIds",
          "type": "uint256[]"
        }
      ],
      "name": "recoverERC721s",
      "outputs": [],
      "stateMutability": "nonpayable",
      "type": "function"
    },
    {
      "inputs": [
        {
          "internalType": "address payable[]",
          "name": "accounts",
          "type": "address[]"
        },
        {
          "internalType": "uint256[]",
          "name": "amounts",
          "type": "uint256[]"
        }
      ],
      "name": "recoverETH",
      "outputs": [],
      "stateMutability": "nonpayable",
      "type": "function"
    },
    {
      "inputs": [
        {
          "internalType": "bytes32",
          "name": "role",
          "type": "bytes32"
        }
      ],
      "name": "renounceRole",
      "outputs": [],
      "stateMutability": "nonpayable",
      "type": "function"
    },
    {
      "inputs": [
        {
          "internalType": "bytes32",
          "name": "role",
          "type": "bytes32"
        },
        {
          "internalType": "address",
          "name": "account",
          "type": "address"
        }
      ],
      "name": "revokeRole",
      "outputs": [],
      "stateMutability": "nonpayable",
      "type": "function"
    },
    {
      "inputs": [
        {
          "internalType": "uint256",
          "name": "tokenId",
          "type": "uint256"
        },
        {
          "internalType": "uint256",
          "name": "salePrice",
          "type": "uint256"
        }
      ],
      "name": "royaltyInfo",
      "outputs": [
        {
          "internalType": "address",
          "name": "receiver",
          "type": "address"
        },
        {
          "internalType": "uint256",
          "name": "royaltyAmount",
          "type": "uint256"
        }
      ],
      "stateMutability": "view",
      "type": "function"
    },
    {
      "inputs": [
        {
          "internalType": "address",
          "name": "to",
          "type": "address"
        },
        {
          "internalType": "uint256[]",
          "name": "ids",
          "type": "uint256[]"
        },
        {
          "internalType": "uint256[]",
          "name": "values",
          "type": "uint256[]"
        },
        {
          "internalType": "bytes",
          "name": "data",
          "type": "bytes"
        }
      ],
      "name": "safeBatchMint",
      "outputs": [],
      "stateMutability": "nonpayable",
      "type": "function"
    },
    {
      "inputs": [
        {
          "internalType": "address",
          "name": "from",
          "type": "address"
        },
        {
          "internalType": "address",
          "name": "to",
          "type": "address"
        },
        {
          "internalType": "uint256[]",
          "name": "ids",
          "type": "uint256[]"
        },
        {
          "internalType": "uint256[]",
          "name": "values",
          "type": "uint256[]"
        },
        {
          "internalType": "bytes",
          "name": "data",
          "type": "bytes"
        }
      ],
      "name": "safeBatchTransferFrom",
      "outputs": [],
      "stateMutability": "nonpayable",
      "type": "function"
    },
    {
      "inputs": [
        {
          "internalType": "address[]",
          "name": "recipients",
          "type": "address[]"
        },
        {
          "internalType": "uint256[]",
          "name": "ids",
          "type": "uint256[]"
        },
        {
          "internalType": "uint256[]",
          "name": "values",
          "type": "uint256[]"
        },
        {
          "internalType": "bytes",
          "name": "data",
          "type": "bytes"
        }
      ],
      "name": "safeDeliver",
      "outputs": [],
      "stateMutability": "nonpayable",
      "type": "function"
    },
    {
      "inputs": [
        {
          "internalType": "address",
          "name": "to",
          "type": "address"
        },
        {
          "internalType": "uint256",
          "name": "id",
          "type": "uint256"
        },
        {
          "internalType": "uint256",
          "name": "value",
          "type": "uint256"
        },
        {
          "internalType": "bytes",
          "name": "data",
          "type": "bytes"
        }
      ],
      "name": "safeMint",
      "outputs": [],
      "stateMutability": "nonpayable",
      "type": "function"
    },
    {
      "inputs": [
        {
          "internalType": "address",
          "name": "from",
          "type": "address"
        },
        {
          "internalType": "address",
          "name": "to",
          "type": "address"
        },
        {
          "internalType": "uint256",
          "name": "id",
          "type": "uint256"
        },
        {
          "internalType": "uint256",
          "name": "value",
          "type": "uint256"
        },
        {
          "internalType": "bytes",
          "name": "data",
          "type": "bytes"
        }
      ],
      "name": "safeTransferFrom",
      "outputs": [],
      "stateMutability": "nonpayable",
      "type": "function"
    },
    {
      "inputs": [
        {
          "internalType": "address",
          "name": "operator",
          "type": "address"
        },
        {
          "internalType": "bool",
          "name": "approved",
          "type": "bool"
        }
      ],
      "name": "setApprovalForAll",
      "outputs": [],
      "stateMutability": "nonpayable",
      "type": "function"
    },
    {
      "inputs": [
        {
          "internalType": "uint256",
          "name": "percentage",
          "type": "uint256"
        }
      ],
      "name": "setRoyaltyPercentage",
      "outputs": [],
      "stateMutability": "nonpayable",
      "type": "function"
    },
    {
      "inputs": [
        {
          "internalType": "address",
          "name": "receiver",
          "type": "address"
        }
      ],
      "name": "setRoyaltyReceiver",
      "outputs": [],
      "stateMutability": "nonpayable",
      "type": "function"
    },
    {
      "inputs": [
        {
          "internalType": "uint256",
          "name": "tokenId",
          "type": "uint256"
        },
        {
          "internalType": "string",
          "name": "tokenURI",
          "type": "string"
        }
      ],
      "name": "setTokenURI",
      "outputs": [],
      "stateMutability": "nonpayable",
      "type": "function"
    },
    {
      "inputs": [
        {
          "internalType": "bytes4",
          "name": "interfaceId",
          "type": "bytes4"
        }
      ],
      "name": "supportsInterface",
      "outputs": [
        {
          "internalType": "bool",
          "name": "",
          "type": "bool"
        }
      ],
      "stateMutability": "view",
      "type": "function"
    },
    {
      "inputs": [],
      "name": "symbol",
      "outputs": [
        {
          "internalType": "string",
          "name": "tokenSymbol",
          "type": "string"
        }
      ],
      "stateMutability": "view",
      "type": "function"
    },
    {
      "inputs": [
        {
          "internalType": "address",
          "name": "newOwner",
          "type": "address"
        }
      ],
      "name": "transferOwnership",
      "outputs": [],
      "stateMutability": "nonpayable",
      "type": "function"
    },
    {
      "inputs": [
        {
          "internalType": "contract IOperatorFilterRegistry",
          "name": "registry",
          "type": "address"
        }
      ],
      "name": "updateOperatorFilterRegistry",
      "outputs": [],
      "stateMutability": "nonpayable",
      "type": "function"
    },
    {
      "inputs": [
        {
          "internalType": "uint256",
          "name": "tokenId",
          "type": "uint256"
        }
      ],
      "name": "uri",
      "outputs": [
        {
          "internalType": "string",
          "name": "metadataURI",
          "type": "string"
        }
      ],
      "stateMutability": "view",
      "type": "function"
    }
  ],
  "bytecode": "0x60a060405234801561001057600080fd5b506040516148a83803806148a883398101604081905261002f91610400565b84848484848080868686863361004d816100476100e0565b90610114565b5061005661018a565b610080816100626101a1565b9081546001600160a01b0319166001600160a01b0391909116179055565b5061009783838361008f6101cf565b9291906101fd565b61009f610240565b506100ab915050610255565b6100b361026a565b6100bb61027f565b6100c3610294565b6001600160a01b03166080525061060d9950505050505050505050565b60008061010e60017fc9ed16f33ab3a66c84bfd83099ccb2a8845871e2e1c1928f63797152f0fd54cd6104a5565b92915050565b6001600160a01b0381161561016a5781546001600160a01b0319166001600160a01b03821690811783556040516000907f8be0079c531659141344cd1fd0a4f28419497f9722a3daafe3b4186f6b6457e0908290a35b6101866307f5828d60e41b600161017f6102a5565b91906102d3565b5050565b61019f636cdb3d1360e11b600161017f6102a5565b565b60008061010e60017f609b85bcafa81ecfaf3ff62cdde2c6c9082a68dbe4922f07399c706bdeb7cd316104a5565b60008061010e60017f7ea68fd2dcf1c056b94db6a0a537aa80d26fa9ab1eacd85da1ba0b61b7e7a8a56104a5565b83610208848261054f565b5060018401610217838261054f565b5060029390930180546001600160a01b0319166001600160a01b03909416939093179092555050565b61019f6303a24d0760e21b600161017f6102a5565b61019f631464324b60e21b600161017f6102a5565b61019f633a2ae73360e21b600161017f6102a5565b61019f63921ed8d160e01b600161017f6102a5565b61019f63152a902d60e11b600161017f5b60008061010e60017fca9d3e17f264b0f3984e2634e94adb37fa3e6a8103f06aeae6fa59e21c769f5e6104a5565b600160e01b6001600160e01b0319831601610301576040516372c683bb60e01b815260040160405180910390fd5b6001600160e01b03199190911660009081526020929092526040909120805460ff1916911515919091179055565b634e487b7160e01b600052604160045260246000fd5b600082601f83011261035657600080fd5b81516001600160401b0381111561036f5761036f61032f565b604051601f8201601f19908116603f011681016001600160401b038111828210171561039d5761039d61032f565b6040528181528382016020018510156103b557600080fd5b60005b828110156103d4576020818601810151838301820152016103b8565b506000918101602001919091529392505050565b6001600160a01b03811681146103fd57600080fd5b50565b600080600080600060a0868803121561041857600080fd5b85516001600160401b0381111561042e57600080fd5b61043a88828901610345565b602088015190965090506001600160401b0381111561045857600080fd5b61046488828901610345565b9450506040860151610475816103e8565b6060870151909350610486816103e8565b6080870151909250610497816103e8565b809150509295509295909350565b8181038181111561010e57634e487b7160e01b600052601160045260246000fd5b600181811c908216806104da57607f821691505b6020821081036104fa57634e487b7160e01b600052602260045260246000fd5b50919050565b601f82111561054a57806000526020600020601f840160051c810160208510156105275750805b601f840160051c820191505b818110156105475760008155600101610533565b50505b505050565b81516001600160401b038111156105685761056861032f565b61057c8161057684546104c6565b84610500565b6020601f8211600181146105b057600083156105985750848201515b600019600385901b1c1916600184901b178455610547565b600084815260208120601f198516915b828110156105e057878501518255602094850194600190920191016105c0565b50848210156105fe5786840151600019600387901b60f8161c191681555b50505050600190811b01905550565b60805161425d61064b6000396000818161037b0152818161042c01528181612964015281816129f20152818161305a0152613098015261425d6000f3fe608060405234801561001057600080fd5b50600436106102765760003560e01c806373c8a95811610160578063b0ccc31e116100d8578063e8ab9ccc1161008c578063f242432a11610071578063f242432a146105b1578063f2fde38b146105c4578063f7ba94bd146105d757600080fd5b8063e8ab9ccc1461058b578063e985e9c51461059e57600080fd5b8063d5391393116100bd578063d539139314610547578063d547741f1461056e578063e1a8bf2c1461058157600080fd5b8063b0ccc31e1461052c578063c3666c361461053457600080fd5b80638dc251e31161012f57806395d89b411161011457806395d89b4114610509578063a0c76f6214610511578063a22cb4651461051957600080fd5b80638dc251e3146104e357806391d14854146104f657600080fd5b806373c8a958146104a257806380534934146104b55780638bb9c5bf146104c85780638da5cb5b146104db57600080fd5b80632b4c9f16116101f35780634e1273f4116101c25780635cfa9297116101a75780635cfa92971461046957806361ba27da1461047c5780636706467b1461048f57600080fd5b80634e1273f4146103fc578063572b6c051461041c57600080fd5b80632b4c9f16146103795780632eb2c2d6146103c05780632f2ff15d146103d357806331e66e1e146103e657600080fd5b80630e89341c1161024a578063124d91e51161022f578063124d91e514610314578063162094c4146103275780632a55205a1461033a57600080fd5b80630e89341c146102ee578063114ba8ee1461030157600080fd5b8062fdd58e1461027b57806301ffc9a7146102a157806306fdde03146102c45780630d6a5bbb146102d9575b600080fd5b61028e61028936600461352d565b6105ea565b6040519081526020015b60405180910390f35b6102b46102af366004613587565b610609565b6040519015158152602001610298565b6102cc61061d565b6040516102989190613619565b6102ec6102e73660046136b3565b610634565b005b6102cc6102fc36600461376c565b61072f565b6102ec61030f366004613785565b610745565b6102ec6103223660046137a2565b6107b0565b6102ec6103353660046137d7565b6107d4565b61034d610348366004613823565b6108a6565b6040805173ffffffffffffffffffffffffffffffffffffffff9093168352602083019190915201610298565b7f00000000000000000000000000000000000000000000000000000000000000005b60405173ffffffffffffffffffffffffffffffffffffffff9091168152602001610298565b6102ec6103ce366004613845565b6108c9565b6102ec6103e1366004613910565b610916565b6103ee610944565b604051610298929190613989565b61040f61040a36600461399d565b610957565b6040516102989190613a4a565b6102b461042a366004613785565b7f000000000000000000000000000000000000000000000000000000000000000073ffffffffffffffffffffffffffffffffffffffff90811691161490565b6102ec610477366004613a5d565b61097a565b6102ec61048a36600461376c565b610a0c565b6102ec61049d36600461399d565b610a29565b6102ec6104b0366004613ac7565b610b61565b6102ec6104c3366004613b6d565b610b7a565b6102ec6104d636600461376c565b610b9d565b61039b610bb8565b6102ec6104f1366004613785565b610bdf565b6102b4610504366004613910565b610bfc565b6102cc610c40565b61039b610c52565b6102ec610527366004613bf2565b610c5f565b61039b610c98565b6102ec610542366004613ac7565b610ca5565b61028e7f6d696e746572000000000000000000000000000000000000000000000000000081565b6102ec61057c366004613910565b610cbe565b61028e620186a081565b6102ec610599366004613c20565b610cec565b6102b46105ac366004613cd7565b610e06565b6102ec6105bf366004613d05565b610e54565b6102ec6105d2366004613785565b610e94565b6102ec6105e536600461399d565b610eaf565b600061060083836105f9610ecc565b9190610efa565b90505b92915050565b600061060382610617610f7e565b90610fac565b606061062f61062a611086565b6110b4565b905090565b600061063e61114a565b90506106747f6d696e74657200000000000000000000000000000000000000000000000000008261066d611154565b9190611182565b610725818989898080602002602001604051908101604052809392919081815260200183836020028082843760009201919091525050604080516020808d0282810182019093528c82529093508c92508b91829185019084908082843760009201919091525050604080516020601f8c018190048102820181019092528a815292508a915089908190840183828082843760009201919091525061071b9250610ecc915050565b9493929190611208565b5050505050505050565b6060610603308361073e611086565b919061138e565b61075e61075061114a565b610758611456565b90611484565b6107ad8161076a6114ef565b9081547fffffffffffffffffffffffff00000000000000000000000000000000000000001673ffffffffffffffffffffffffffffffffffffffff91909116179055565b50565b6107cf6107bb61114a565b8484846107c6610ecc565b9392919061155f565b505050565b6107fc6107df611086565b6002015473ffffffffffffffffffffffffffffffffffffffff1690565b73ffffffffffffffffffffffffffffffffffffffff163373ffffffffffffffffffffffffffffffffffffffff1614610867576040517f220606710000000000000000000000000000000000000000000000000000000081523360048201526024015b60405180910390fd5b827f6bb7ff708619ba0610cba295a58592e0451dee2622938c8755667688daf3529b8383604051610899929190613989565b60405180910390a2505050565b6000806108bd84846108b661162c565b919061165a565b915091505b9250929050565b60006108d361114a565b90506108e9818a6108e26114ef565b9190611704565b61090b818a8a8a8a8a8a8a8a6108fd610ecc565b989796959493929190611741565b505050505050505050565b600061092061114a565b905061092e81610758611456565b6107cf83838361093c611154565b9291906119ca565b36600061094f611aa0565b915091509091565b606061097185858585610968610ecc565b93929190611aab565b95945050505050565b600061098461114a565b90506109b37f6d696e74657200000000000000000000000000000000000000000000000000008261066d611154565b610a048187878787878080601f0160208091040260200160405190810160405280939291908181526020018383808284376000920191909152506109fa9250610ecc915050565b9493929190611bba565b505050505050565b610a1761075061114a565b6107ad81610a2361162c565b90611c98565b828114610a62576040517f6582533600000000000000000000000000000000000000000000000000000000815260040160405180910390fd5b610a6d6107df611086565b73ffffffffffffffffffffffffffffffffffffffff163373ffffffffffffffffffffffffffffffffffffffff1614610ad3576040517f2206067100000000000000000000000000000000000000000000000000000000815233600482015260240161085e565b60005b83811015610b5a57848482818110610af057610af0613d6f565b905060200201357f6bb7ff708619ba0610cba295a58592e0451dee2622938c8755667688daf3529b848484818110610b2a57610b2a613d6f565b9050602002810190610b3c9190613d9e565b604051610b4a929190613989565b60405180910390a2600101610ad6565b5050505050565b610b6c61075061114a565b610a04868686868686611d1e565b610b5a610b8561114a565b8686868686610b92610ecc565b959493929190611dff565b6107ad610ba861114a565b82610bb1611154565b9190611f77565b600061062f610bc5611456565b5473ffffffffffffffffffffffffffffffffffffffff1690565b610bea61075061114a565b6107ad81610bf661162c565b9061201b565b60006106008383610c0b611154565b60009283526020908152604080842073ffffffffffffffffffffffffffffffffffffffff909316845291905290205460ff1690565b606061062f610c4d611086565b612068565b600061062f6107df611086565b8015610c7757610c7782610c716114ef565b90612079565b610c94610c8261114a565b8383610c8c610ecc565b929190612083565b5050565b600061062f610bc56114ef565b610cb061075061114a565b610a0486868686868661219b565b6000610cc861114a565b9050610cd681610758611456565b6107cf838383610ce4611154565b929190612431565b6000610cf661114a565b9050610d257f6d696e74657200000000000000000000000000000000000000000000000000008261066d611154565b61090b818a8a8080602002602001604051908101604052809392919081815260200183836020028082843760009201919091525050604080516020808e0282810182019093528d82529093508d92508c91829185019084908082843760009201919091525050604080516020808d0282810182019093528c82529093508c92508b91829185019084908082843760009201919091525050604080516020601f8c018190048102820181019092528a815292508a9150899081908401838280828437600092019190915250610dfc9250610ecc915050565b94939291906124fb565b60006106008383610e15610ecc565b919073ffffffffffffffffffffffffffffffffffffffff9182166000908152600193909301602090815260408085209290931684525290205460ff1690565b6000610e5e61114a565b9050610e6d81886108e26114ef565b610e8b81888888888888610e7f610ecc565b969594939291906125be565b50505050505050565b6107ad610e9f61114a565b82610ea8611456565b9190612761565b610eba61075061114a565b610ec684848484612875565b50505050565b60008061060360017f5ccf5846fa27a68fafc8e588671a68f5e67c2f9b56af4263806a4d71735e8613613e32565b600073ffffffffffffffffffffffffffffffffffffffff8316610f49576040517fca2434a500000000000000000000000000000000000000000000000000000000815260040160405180910390fd5b5060009081526020928352604080822073ffffffffffffffffffffffffffffffffffffffff9390931682529190925290205490565b60008061060360017fca9d3e17f264b0f3984e2634e94adb37fa3e6a8103f06aeae6fa59e21c769f5e613e32565b60007c01000000000000000000000000000000000000000000000000000000007fffffffff00000000000000000000000000000000000000000000000000000000831601610ffc57506000610603565b7ffe003659000000000000000000000000000000000000000000000000000000007fffffffff0000000000000000000000000000000000000000000000000000000083160161104d57506001610603565b507fffffffff00000000000000000000000000000000000000000000000000000000166000908152602091909152604090205460ff1690565b60008061060360017f7ea68fd2dcf1c056b94db6a0a537aa80d26fa9ab1eacd85da1ba0b61b7e7a8a5613e32565b60608160000180546110c590613e45565b80601f01602080910402602001604051908101604052809291908181526020018280546110f190613e45565b801561113e5780601f106111135761010080835404028352916020019161113e565b820191906000526020600020905b81548152906001019060200180831161112157829003601f168201915b50505050509050919050565b600061062f612921565b60008061060360017fc8827d3282af6f37b64c3e9e6f3ac9df286ab0bb0fccd6f8661bf19adb368b23613e32565b60008281526020848152604080832073ffffffffffffffffffffffffffffffffffffffff8516845290915290205460ff166107cf576040517f7aa728820000000000000000000000000000000000000000000000000000000081526004810183905273ffffffffffffffffffffffffffffffffffffffff8216602482015260440161085e565b73ffffffffffffffffffffffffffffffffffffffff8416611255576040517f021149bd00000000000000000000000000000000000000000000000000000000815260040160405180910390fd5b825182518114611291576040517f6582533600000000000000000000000000000000000000000000000000000000815260040160405180910390fd5b60005b818110156112e2576112da88878784815181106112b3576112b3613d6f565b60200260200101518785815181106112cd576112cd613d6f565b6020026020010151612a6e565b600101611294565b508473ffffffffffffffffffffffffffffffffffffffff16600073ffffffffffffffffffffffffffffffffffffffff168773ffffffffffffffffffffffffffffffffffffffff167f4a39dc06d4c0dbc64b70af90fd698a233a518aa5d07e595d983b8c0526c8f7fb878760405161135a929190613e98565b60405180910390a473ffffffffffffffffffffffffffffffffffffffff85163b15610e8b57610e8b86600087878787612b3f565b60028301546040517ff724dad700000000000000000000000000000000000000000000000000000000815273ffffffffffffffffffffffffffffffffffffffff848116600483015260248201849052606092169063f724dad790604401600060405180830381865afa158015611408573d6000803e3d6000fd5b505050506040513d6000823e601f3d9081017fffffffffffffffffffffffffffffffffffffffffffffffffffffffffffffffe016820160405261144e9190810190613eec565b949350505050565b60008061060360017fc9ed16f33ab3a66c84bfd83099ccb2a8845871e2e1c1928f63797152f0fd54cd613e32565b815473ffffffffffffffffffffffffffffffffffffffff828116911614610c94576040517f2ef4875e00000000000000000000000000000000000000000000000000000000815273ffffffffffffffffffffffffffffffffffffffff8216600482015260240161085e565b60008061060360017f609b85bcafa81ecfaf3ff62cdde2c6c9082a68dbe4922f07399c706bdeb7cd31613e32565b81547fffffffffffffffffffffffff00000000000000000000000000000000000000001673ffffffffffffffffffffffffffffffffffffffff91909116179055565b61156a858486612c3d565b6115c0576040517f05bbb9c400000000000000000000000000000000000000000000000000000000815273ffffffffffffffffffffffffffffffffffffffff80861660048301528416602482015260440161085e565b6115cc85848484612cb2565b604080518381526020810183905260009173ffffffffffffffffffffffffffffffffffffffff86811692908816917fc3d58168c5ae7397731d063d5bbf3d657854427343f4c083240f7aacaa2d0f62910160405180910390a45050505050565b60008061060360017f2c0cf10337caabbd02dcf226f05f5fd19a0919a41a8df8958c39b80007826858613e32565b825473ffffffffffffffffffffffffffffffffffffffff8116906000907401000000000000000000000000000000000000000090046bffffffffffffffffffffffff168315806116a8575080155b156116b657600091506116fb565b620186a08410156116e057620186a06116cf8286613fd5565b6116d99190613fec565b91506116fb565b806116ee620186a086613fec565b6116f89190613fd5565b91505b50935093915050565b8073ffffffffffffffffffffffffffffffffffffffff168273ffffffffffffffffffffffffffffffffffffffff16146107cf576107cf8383612d4f565b73ffffffffffffffffffffffffffffffffffffffff871661178e576040517fb5e8901500000000000000000000000000000000000000000000000000000000815260040160405180910390fd5b848381146117c8576040517f6582533600000000000000000000000000000000000000000000000000000000815260040160405180910390fd5b6117d38b8a8c612c3d565b611829576040517f05bbb9c400000000000000000000000000000000000000000000000000000000815273ffffffffffffffffffffffffffffffffffffffff808c1660048301528a16602482015260440161085e565b60005b81811015611879576118718c8b8b8b8b8681811061184c5761184c613d6f565b905060200201358a8a8781811061186557611865613d6f565b90506020020135612e76565b60010161182c565b508773ffffffffffffffffffffffffffffffffffffffff168973ffffffffffffffffffffffffffffffffffffffff168b73ffffffffffffffffffffffffffffffffffffffff167f4a39dc06d4c0dbc64b70af90fd698a233a518aa5d07e595d983b8c0526c8f7fb8a8a8a8a6040516118f49493929190614072565b60405180910390a473ffffffffffffffffffffffffffffffffffffffff88163b156119bd576119bd8a8a8a8a8a8080602002602001604051908101604052809392919081815260200183836020028082843760009201919091525050604080516020808e0282810182019093528d82529093508d92508c91829185019084908082843760009201919091525050604080516020601f8d018190048102820181019092528b815292508b91508a9081908401838280828437600092019190915250612b3f92505050565b5050505050505050505050565b60008381526020858152604080832073ffffffffffffffffffffffffffffffffffffffff8616845290915290205460ff16610ec65760008381526020858152604080832073ffffffffffffffffffffffffffffffffffffffff8681168086529184529382902080547fffffffffffffffffffffffffffffffffffffffffffffffffffffffffffffff00166001179055815187815292830152918316918101919091527f2f8788117e7eff1d82e926ec794901d17c78024a50270940304540a733656f0d906060015b60405180910390a150505050565b36600061094f613023565b606083828114611ae7576040517f6582533600000000000000000000000000000000000000000000000000000000815260040160405180910390fd5b8467ffffffffffffffff811115611b0057611b00613ebd565b604051908082528060200260200182016040528015611b29578160200160208202803683370190505b50915060005b81811015611baf57611b8a878783818110611b4c57611b4c613d6f565b9050602002016020810190611b619190613785565b868684818110611b7357611b73613d6f565b905060200201358a610efa9092919063ffffffff16565b838281518110611b9c57611b9c613d6f565b6020908102919091010152600101611b2f565b505095945050505050565b73ffffffffffffffffffffffffffffffffffffffff8416611c07576040517f021149bd00000000000000000000000000000000000000000000000000000000815260040160405180910390fd5b611c1386858585612a6e565b604080518481526020810184905273ffffffffffffffffffffffffffffffffffffffff80871692600092918916917fc3d58168c5ae7397731d063d5bbf3d657854427343f4c083240f7aacaa2d0f62910160405180910390a473ffffffffffffffffffffffffffffffffffffffff84163b15610a0457610a0485600086868686613193565b620186a0811115611cd8576040517fac0404080000000000000000000000000000000000000000000000000000000081526004810182905260240161085e565b81546bffffffffffffffffffffffff909116740100000000000000000000000000000000000000000273ffffffffffffffffffffffffffffffffffffffff909116179055565b848381141580611d2e5750808214155b15611d65576040517f6582533600000000000000000000000000000000000000000000000000000000815260040160405180910390fd5b60005b8181101561072557611df7888883818110611d8557611d85613d6f565b9050602002016020810190611d9a9190613785565b858584818110611dac57611dac613d6f565b90506020020135888885818110611dc557611dc5613d6f565b9050602002016020810190611dda9190613785565b73ffffffffffffffffffffffffffffffffffffffff1691906132b1565b600101611d68565b82818114611e39576040517f6582533600000000000000000000000000000000000000000000000000000000815260040160405180910390fd5b611e44888789612c3d565b611e9a576040517f05bbb9c400000000000000000000000000000000000000000000000000000000815273ffffffffffffffffffffffffffffffffffffffff80891660048301528716602482015260440161085e565b60005b81811015611ee957611ee18988888885818110611ebc57611ebc613d6f565b90506020020135878786818110611ed557611ed5613d6f565b90506020020135612cb2565b600101611e9d565b50600073ffffffffffffffffffffffffffffffffffffffff168673ffffffffffffffffffffffffffffffffffffffff168873ffffffffffffffffffffffffffffffffffffffff167f4a39dc06d4c0dbc64b70af90fd698a233a518aa5d07e595d983b8c0526c8f7fb88888888604051611f659493929190614072565b60405180910390a45050505050505050565b611f82838284611182565b60008181526020848152604080832073ffffffffffffffffffffffffffffffffffffffff86168085529083529281902080547fffffffffffffffffffffffffffffffffffffffffffffffffffffffffffffff0016905580518481529182018390528101919091527ff6391f5c32d9c69d2a47ea670b442974b53935d1edc7fd64eb21e047a839171b9060600160405180910390a1505050565b73ffffffffffffffffffffffffffffffffffffffff811661151d576040517f16de0c8000000000000000000000000000000000000000000000000000000000815260040160405180910390fd5b60608160010180546110c590613e45565b610c948282612d4f565b8273ffffffffffffffffffffffffffffffffffffffff168273ffffffffffffffffffffffffffffffffffffffff1603612100576040517ffb0fdf6100000000000000000000000000000000000000000000000000000000815273ffffffffffffffffffffffffffffffffffffffff8416600482015260240161085e565b73ffffffffffffffffffffffffffffffffffffffff838116600081815260018701602090815260408083209487168084529482529182902080547fffffffffffffffffffffffffffffffffffffffffffffffffffffffffffffff001686151590811790915591519182527f17307eab39ab6107e8899845ad3d59bd9653f200f220920489ca2b5937696c31910160405180910390a350505050565b8483811415806121ab5750808214155b156121e2576040517f6582533600000000000000000000000000000000000000000000000000000000815260040160405180910390fd5b60005b8181101561072557600086868381811061220157612201613d6f565b90506020020160208101906122169190613785565b6040517f01ffc9a70000000000000000000000000000000000000000000000000000000081527f80ac58cd00000000000000000000000000000000000000000000000000000000600482015290915073ffffffffffffffffffffffffffffffffffffffff8216906301ffc9a790602401602060405180830381865afa1580156122a3573d6000803e3d6000fd5b505050506040513d601f19601f820116820180604052508101906122c791906140a4565b612315576040517f986b9f1f00000000000000000000000000000000000000000000000000000000815273ffffffffffffffffffffffffffffffffffffffff8216600482015260240161085e565b86868381811061232757612327613d6f565b905060200201602081019061233c9190613785565b73ffffffffffffffffffffffffffffffffffffffff166342842e0e308b8b8681811061236a5761236a613d6f565b905060200201602081019061237f9190613785565b88888781811061239157612391613d6f565b6040517fffffffff0000000000000000000000000000000000000000000000000000000060e088901b16815273ffffffffffffffffffffffffffffffffffffffff958616600482015294909316602485015250602090910201356044820152606401600060405180830381600087803b15801561240d57600080fd5b505af1158015612421573d6000803e3d6000fd5b50505050508060010190506121e5565b60008381526020858152604080832073ffffffffffffffffffffffffffffffffffffffff8616845290915290205460ff1615610ec65760008381526020858152604080832073ffffffffffffffffffffffffffffffffffffffff8681168086529184529382902080547fffffffffffffffffffffffffffffffffffffffffffffffffffffffffffffff00169055815187815292830152918316918101919091527ff6391f5c32d9c69d2a47ea670b442974b53935d1edc7fd64eb21e047a839171b90606001611a92565b835183518114158061250e575082518114155b15612545576040517f6582533600000000000000000000000000000000000000000000000000000000815260040160405180910390fd5b60005b81811015610725576125b68787838151811061256657612566613d6f565b602002602001015187848151811061258057612580613d6f565b602002602001015187858151811061259a5761259a613d6f565b6020026020010151878d611bba9095949392919063ffffffff16565b600101612548565b73ffffffffffffffffffffffffffffffffffffffff851661260b576040517fb5e8901500000000000000000000000000000000000000000000000000000000815260040160405180910390fd5b612616888789612c3d565b61266c576040517f05bbb9c400000000000000000000000000000000000000000000000000000000815273ffffffffffffffffffffffffffffffffffffffff80891660048301528716602482015260440161085e565b6126798887878787612e76565b8473ffffffffffffffffffffffffffffffffffffffff168673ffffffffffffffffffffffffffffffffffffffff168873ffffffffffffffffffffffffffffffffffffffff167fc3d58168c5ae7397731d063d5bbf3d657854427343f4c083240f7aacaa2d0f6287876040516126f8929190918252602082015260400190565b60405180910390a473ffffffffffffffffffffffffffffffffffffffff85163b1561072557610725878787878787878080601f01602080910402602001604051908101604052809392919081815260200183838082843760009201919091525061319392505050565b825473ffffffffffffffffffffffffffffffffffffffff90811690831681146127ce576040517f2ef4875e00000000000000000000000000000000000000000000000000000000815273ffffffffffffffffffffffffffffffffffffffff8416600482015260240161085e565b8173ffffffffffffffffffffffffffffffffffffffff168173ffffffffffffffffffffffffffffffffffffffff1614610ec65783547fffffffffffffffffffffffff00000000000000000000000000000000000000001673ffffffffffffffffffffffffffffffffffffffff8381169182178655604051908316907f8be0079c531659141344cd1fd0a4f28419497f9722a3daafe3b4186f6b6457e090600090a350505050565b828181146128af576040517f6582533600000000000000000000000000000000000000000000000000000000815260040160405180910390fd5b60005b81811015610a04576129198484838181106128cf576128cf613d6f565b905060200201358787848181106128e8576128e8613d6f565b90506020020160208101906128fd9190613785565b73ffffffffffffffffffffffffffffffffffffffff169061333e565b6001016128b2565b6000333214806129315750601836105b1561293b57503390565b7fffffffffffffffffffffffffffffffffffffffffffffffffffffffffffffffec36013560601c7f000000000000000000000000000000000000000000000000000000000000000073ffffffffffffffffffffffffffffffffffffffff16331480612a5d57506040517f019a202800000000000000000000000000000000000000000000000000000000815273ffffffffffffffffffffffffffffffffffffffff82811660048301523360248301523060448301527f0000000000000000000000000000000000000000000000000000000000000000169063019a202890606401602060405180830381865afa158015612a39573d6000803e3d6000fd5b505050506040513d601f19601f82011682018060405250810190612a5d91906140a4565b15612a6757919050565b3391505090565b8015610ec65760008281526020858152604080832073ffffffffffffffffffffffffffffffffffffffff87168452909152902054818101818111612b0b576040517f42fb00bc00000000000000000000000000000000000000000000000000000000815273ffffffffffffffffffffffffffffffffffffffff8616600482015260248101859052604481018390526064810184905260840161085e565b60009384526020958652604080852073ffffffffffffffffffffffffffffffffffffffff9690961685529490955250502055565b6040517fbc197c81000000000000000000000000000000000000000000000000000000008082529073ffffffffffffffffffffffffffffffffffffffff86169063bc197c8190612b9b908a908a908990899089906004016140c1565b6020604051808303816000875af1158015612bba573d6000803e3d6000fd5b505050506040513d601f19601f82011682018060405250810190612bde919061413e565b7fffffffff000000000000000000000000000000000000000000000000000000001614610a04578383836040517fc287817e00000000000000000000000000000000000000000000000000000000815260040161085e9392919061415b565b60008173ffffffffffffffffffffffffffffffffffffffff168373ffffffffffffffffffffffffffffffffffffffff16148061144e57505073ffffffffffffffffffffffffffffffffffffffff9182166000908152600193909301602090815260408085209290931684525290205460ff1690565b8015610ec65760008281526020858152604080832073ffffffffffffffffffffffffffffffffffffffff87168452909152902054818103818110612b0b576040517f03dee4c500000000000000000000000000000000000000000000000000000000815273ffffffffffffffffffffffffffffffffffffffff8616600482015260248101859052604481018390526064810184905260840161085e565b815473ffffffffffffffffffffffffffffffffffffffff168015801590612d8d575060008173ffffffffffffffffffffffffffffffffffffffff163b115b156107cf576040517fc617113400000000000000000000000000000000000000000000000000000000815230600482015273ffffffffffffffffffffffffffffffffffffffff838116602483015282169063c617113490604401602060405180830381865afa158015612e04573d6000803e3d6000fd5b505050506040513d601f19601f82011682018060405250810190612e2891906140a4565b6107cf576040517fede71dcc00000000000000000000000000000000000000000000000000000000815273ffffffffffffffffffffffffffffffffffffffff8316600482015260240161085e565b8015610b5a5760008281526020868152604080832073ffffffffffffffffffffffffffffffffffffffff88168452909152902054818103818110612f13576040517f03dee4c500000000000000000000000000000000000000000000000000000000815273ffffffffffffffffffffffffffffffffffffffff8716600482015260248101859052604481018390526064810184905260840161085e565b8473ffffffffffffffffffffffffffffffffffffffff168673ffffffffffffffffffffffffffffffffffffffff1614610e8b5760008481526020888152604080832073ffffffffffffffffffffffffffffffffffffffff89168452909152902054838101818111612fdd576040517f42fb00bc00000000000000000000000000000000000000000000000000000000815273ffffffffffffffffffffffffffffffffffffffff8816600482015260248101879052604481018390526064810186905260840161085e565b600086815260208a8152604080832073ffffffffffffffffffffffffffffffffffffffff808d1685528184528285208890558b1684529091529020555050505050505050565b366000333214806130345750601836105b156130425750600091369150565b3373ffffffffffffffffffffffffffffffffffffffff7f000000000000000000000000000000000000000000000000000000000000000016148061317d575073ffffffffffffffffffffffffffffffffffffffff7f00000000000000000000000000000000000000000000000000000000000000001663019a2028367fffffffffffffffffffffffffffffffffffffffffffffffffffffffffffffffec013560601c6040517fffffffff0000000000000000000000000000000000000000000000000000000060e084901b16815273ffffffffffffffffffffffffffffffffffffffff9091166004820152336024820152306044820152606401602060405180830381865afa158015613159573d6000803e3d6000fd5b505050506040513d601f19601f8201168201806040525081019061317d91906140a4565b1561318a5761094f6133f4565b50600091369150565b6040517ff23a6e61000000000000000000000000000000000000000000000000000000008082529073ffffffffffffffffffffffffffffffffffffffff86169063f23a6e61906131ef908a908a908990899089906004016141a6565b6020604051808303816000875af115801561320e573d6000803e3d6000fd5b505050506040513d601f19601f82011682018060405250810190613232919061413e565b7fffffffff000000000000000000000000000000000000000000000000000000001614610a04576040517f40f39d3800000000000000000000000000000000000000000000000000000000815273ffffffffffffffffffffffffffffffffffffffff85166004820152602481018490526044810183905260640161085e565b6040805173ffffffffffffffffffffffffffffffffffffffff8416602482015260448082018490528251808303909101815260649091019091526020810180517bffffffffffffffffffffffffffffffffffffffffffffffffffffffff167fa9059cbb000000000000000000000000000000000000000000000000000000001790526107cf908490613425565b80471015613381576040517fcf4791810000000000000000000000000000000000000000000000000000000081524760048201526024810182905260440161085e565b6000808373ffffffffffffffffffffffffffffffffffffffff168360405160006040518083038185875af1925050503d80600081146133dc576040519150601f19603f3d011682016040523d82523d6000602084013e6133e1565b606091505b509150915081610ec657610ec6816134c9565b36600061094f7fffffffffffffffffffffffffffffffffffffffffffffffffffffffffffffffec83018284816141fd565b600080602060008451602086016000885af180613448576040513d6000823e3d81fd5b50506000513d9150811561346057806001141561347a565b73ffffffffffffffffffffffffffffffffffffffff84163b155b15610ec6576040517f5274afe700000000000000000000000000000000000000000000000000000000815273ffffffffffffffffffffffffffffffffffffffff8516600482015260240161085e565b8051156134d95780518082602001fd5b6040517fd6bda27500000000000000000000000000000000000000000000000000000000815260040160405180910390fd5b73ffffffffffffffffffffffffffffffffffffffff811681146107ad57600080fd5b6000806040838503121561354057600080fd5b823561354b8161350b565b946020939093013593505050565b7fffffffff00000000000000000000000000000000000000000000000000000000811681146107ad57600080fd5b60006020828403121561359957600080fd5b81356135a481613559565b9392505050565b60005b838110156135c65781810151838201526020016135ae565b50506000910152565b600081518084526135e78160208601602086016135ab565b601f017fffffffffffffffffffffffffffffffffffffffffffffffffffffffffffffffe0169290920160200192915050565b60208152600061060060208301846135cf565b60008083601f84011261363e57600080fd5b50813567ffffffffffffffff81111561365657600080fd5b6020830191508360208260051b85010111156108c257600080fd5b60008083601f84011261368357600080fd5b50813567ffffffffffffffff81111561369b57600080fd5b6020830191508360208285010111156108c257600080fd5b60008060008060008060006080888a0312156136ce57600080fd5b87356136d98161350b565b9650602088013567ffffffffffffffff8111156136f557600080fd5b6137018a828b0161362c565b909750955050604088013567ffffffffffffffff81111561372157600080fd5b61372d8a828b0161362c565b909550935050606088013567ffffffffffffffff81111561374d57600080fd5b6137598a828b01613671565b989b979a50959850939692959293505050565b60006020828403121561377e57600080fd5b5035919050565b60006020828403121561379757600080fd5b81356135a48161350b565b6000806000606084860312156137b757600080fd5b83356137c28161350b565b95602085013595506040909401359392505050565b6000806000604084860312156137ec57600080fd5b83359250602084013567ffffffffffffffff81111561380a57600080fd5b61381686828701613671565b9497909650939450505050565b6000806040838503121561383657600080fd5b50508035926020909101359150565b60008060008060008060008060a0898b03121561386157600080fd5b883561386c8161350b565b9750602089013561387c8161350b565b9650604089013567ffffffffffffffff81111561389857600080fd5b6138a48b828c0161362c565b909750955050606089013567ffffffffffffffff8111156138c457600080fd5b6138d08b828c0161362c565b909550935050608089013567ffffffffffffffff8111156138f057600080fd5b6138fc8b828c01613671565b999c989b5096995094979396929594505050565b6000806040838503121561392357600080fd5b8235915060208301356139358161350b565b809150509250929050565b8183528181602085013750600060208284010152600060207fffffffffffffffffffffffffffffffffffffffffffffffffffffffffffffffe0601f840116840101905092915050565b60208152600061144e602083018486613940565b600080600080604085870312156139b357600080fd5b843567ffffffffffffffff8111156139ca57600080fd5b6139d68782880161362c565b909550935050602085013567ffffffffffffffff8111156139f657600080fd5b613a028782880161362c565b95989497509550505050565b600081518084526020840193506020830160005b82811015613a40578151865260209586019590910190600101613a22565b5093949350505050565b6020815260006106006020830184613a0e565b600080600080600060808688031215613a7557600080fd5b8535613a808161350b565b94506020860135935060408601359250606086013567ffffffffffffffff811115613aaa57600080fd5b613ab688828901613671565b969995985093965092949392505050565b60008060008060008060608789031215613ae057600080fd5b863567ffffffffffffffff811115613af757600080fd5b613b0389828a0161362c565b909750955050602087013567ffffffffffffffff811115613b2357600080fd5b613b2f89828a0161362c565b909550935050604087013567ffffffffffffffff811115613b4f57600080fd5b613b5b89828a0161362c565b979a9699509497509295939492505050565b600080600080600060608688031215613b8557600080fd5b8535613b908161350b565b9450602086013567ffffffffffffffff811115613bac57600080fd5b613bb88882890161362c565b909550935050604086013567ffffffffffffffff811115613bd857600080fd5b613ab68882890161362c565b80151581146107ad57600080fd5b60008060408385031215613c0557600080fd5b8235613c108161350b565b9150602083013561393581613be4565b6000806000806000806000806080898b031215613c3c57600080fd5b883567ffffffffffffffff811115613c5357600080fd5b613c5f8b828c0161362c565b909950975050602089013567ffffffffffffffff811115613c7f57600080fd5b613c8b8b828c0161362c565b909750955050604089013567ffffffffffffffff811115613cab57600080fd5b613cb78b828c0161362c565b909550935050606089013567ffffffffffffffff8111156138f057600080fd5b60008060408385031215613cea57600080fd5b8235613cf58161350b565b915060208301356139358161350b565b60008060008060008060a08789031215613d1e57600080fd5b8635613d298161350b565b95506020870135613d398161350b565b94506040870135935060608701359250608087013567ffffffffffffffff811115613d6357600080fd5b613b5b89828a01613671565b7f4e487b7100000000000000000000000000000000000000000000000000000000600052603260045260246000fd5b60008083357fffffffffffffffffffffffffffffffffffffffffffffffffffffffffffffffe1843603018112613dd357600080fd5b83018035915067ffffffffffffffff821115613dee57600080fd5b6020019150368190038213156108c257600080fd5b7f4e487b7100000000000000000000000000000000000000000000000000000000600052601160045260246000fd5b8181038181111561060357610603613e03565b600181811c90821680613e5957607f821691505b602082108103613e92577f4e487b7100000000000000000000000000000000000000000000000000000000600052602260045260246000fd5b50919050565b604081526000613eab6040830185613a0e565b82810360208401526109718185613a0e565b7f4e487b7100000000000000000000000000000000000000000000000000000000600052604160045260246000fd5b600060208284031215613efe57600080fd5b815167ffffffffffffffff811115613f1557600080fd5b8201601f81018413613f2657600080fd5b805167ffffffffffffffff811115613f4057613f40613ebd565b6040517fffffffffffffffffffffffffffffffffffffffffffffffffffffffffffffffe0603f7fffffffffffffffffffffffffffffffffffffffffffffffffffffffffffffffe0601f8501160116810181811067ffffffffffffffff82111715613fac57613fac613ebd565b604052818152828201602001861015613fc457600080fd5b6109718260208301602086016135ab565b808202811582820484141761060357610603613e03565b600082614022577f4e487b7100000000000000000000000000000000000000000000000000000000600052601260045260246000fd5b500490565b81835260007f07ffffffffffffffffffffffffffffffffffffffffffffffffffffffffffffff83111561405957600080fd5b8260051b80836020870137939093016020019392505050565b604081526000614086604083018688614027565b8281036020840152614099818587614027565b979650505050505050565b6000602082840312156140b657600080fd5b81516135a481613be4565b73ffffffffffffffffffffffffffffffffffffffff8616815273ffffffffffffffffffffffffffffffffffffffff8516602082015260a06040820152600061410c60a0830186613a0e565b828103606084015261411e8186613a0e565b9050828103608084015261413281856135cf565b98975050505050505050565b60006020828403121561415057600080fd5b81516135a481613559565b73ffffffffffffffffffffffffffffffffffffffff8416815260606020820152600061418a6060830185613a0e565b828103604084015261419c8185613a0e565b9695505050505050565b73ffffffffffffffffffffffffffffffffffffffff8616815273ffffffffffffffffffffffffffffffffffffffff8516602082015283604082015282606082015260a06080820152600061409960a08301846135cf565b6000808585111561420d57600080fd5b8386111561421a57600080fd5b505082019391909203915056fea26469706673582212208ea00986a831714393fe5979f34dd77f83a04f8129da29713c2f65006dcde84b64736f6c634300081c0033",
  "linkReferences": {},
  "deployedLinkReferences": {}
}