{
  "_format": "hh-sol-artifact-1",
  "contractName": "ERC1155FullBurnMock",
  "sourceName": "contracts/mocks/token/ERC1155/preset/ERC1155FullBurnMock.sol",
  "abi": [
    {
      "inputs": [
        {
          "internalType": "string",
          "name": "tokenName",
          "type": "string"
        },
        {
          "internalType": "string",
          "name": "tokenSymbol",
          "type": "string"
        },
        {
          "internalType": "contract ITokenMetadataResolver",
          "name": "metadataResolver",
          "type": "address"
        },
        {
          "internalType": "contract IOperatorFilterRegistry",
          "name": "filterRegistry",
          "type": "address"
        },
        {
          "internalType": "contract IForwarderRegistry",
          "name": "forwarderRegistry",
          "type": "address"
        }
      ],
      "stateMutability": "nonpayable",
      "type": "constructor"
    },
    {
      "inputs": [
        {
          "internalType": "uint256",
          "name": "percentage",
          "type": "uint256"
        }
      ],
      "name": "IncorrectRoyaltyPercentage",
      "type": "error"
    },
    {
      "inputs": [],
      "name": "IncorrectRoyaltyReceiver",
      "type": "error"
    },
    {
      "inputs": [
        {
          "internalType": "address",
          "name": "operator",
          "type": "address"
        }
      ],
      "name": "OperatorNotAllowed",
      "type": "error"
    },
    {
      "anonymous": false,
      "inputs": [
        {
          "indexed": true,
          "internalType": "address",
          "name": "owner",
          "type": "address"
        },
        {
          "indexed": true,
          "internalType": "address",
          "name": "operator",
          "type": "address"
        },
        {
          "indexed": false,
          "internalType": "bool",
          "name": "approved",
          "type": "bool"
        }
      ],
      "name": "ApprovalForAll",
      "type": "event"
    },
    {
      "anonymous": false,
      "inputs": [
        {
          "indexed": true,
          "internalType": "address",
          "name": "previousOwner",
          "type": "address"
        },
        {
          "indexed": true,
          "internalType": "address",
          "name": "newOwner",
          "type": "address"
        }
      ],
      "name": "OwnershipTransferred",
      "type": "event"
    },
    {
      "anonymous": false,
      "inputs": [
        {
          "indexed": false,
          "internalType": "bytes32",
          "name": "role",
          "type": "bytes32"
        },
        {
          "indexed": false,
          "internalType": "address",
          "name": "account",
          "type": "address"
        },
        {
          "indexed": false,
          "internalType": "address",
          "name": "operator",
          "type": "address"
        }
      ],
      "name": "RoleGranted",
      "type": "event"
    },
    {
      "anonymous": false,
      "inputs": [
        {
          "indexed": false,
          "internalType": "bytes32",
          "name": "role",
          "type": "bytes32"
        },
        {
          "indexed": false,
          "internalType": "address",
          "name": "account",
          "type": "address"
        },
        {
          "indexed": false,
          "internalType": "address",
          "name": "operator",
          "type": "address"
        }
      ],
      "name": "RoleRevoked",
      "type": "event"
    },
    {
      "anonymous": false,
      "inputs": [
        {
          "indexed": true,
          "internalType": "address",
          "name": "operator",
          "type": "address"
        },
        {
          "indexed": true,
          "internalType": "address",
          "name": "from",
          "type": "address"
        },
        {
          "indexed": true,
          "internalType": "address",
          "name": "to",
          "type": "address"
        },
        {
          "indexed": false,
          "internalType": "uint256[]",
          "name": "ids",
          "type": "uint256[]"
        },
        {
          "indexed": false,
          "internalType": "uint256[]",
          "name": "values",
          "type": "uint256[]"
        }
      ],
      "name": "TransferBatch",
      "type": "event"
    },
    {
      "anonymous": false,
      "inputs": [
        {
          "indexed": true,
          "internalType": "address",
          "name": "operator",
          "type": "address"
        },
        {
          "indexed": true,
          "internalType": "address",
          "name": "from",
          "type": "address"
        },
        {
          "indexed": true,
          "internalType": "address",
          "name": "to",
          "type": "address"
        },
        {
          "indexed": false,
          "internalType": "uint256",
          "name": "id",
          "type": "uint256"
        },
        {
          "indexed": false,
          "internalType": "uint256",
          "name": "value",
          "type": "uint256"
        }
      ],
      "name": "TransferSingle",
      "type": "event"
    },
    {
      "anonymous": false,
      "inputs": [
        {
          "indexed": false,
          "internalType": "string",
          "name": "value",
          "type": "string"
        },
        {
          "indexed": true,
          "internalType": "uint256",
          "name": "id",
          "type": "uint256"
        }
      ],
      "name": "URI",
      "type": "event"
    },
    {
      "inputs": [],
      "name": "MINTER_ROLE",
      "outputs": [
        {
          "internalType": "bytes32",
          "name": "",
          "type": "bytes32"
        }
      ],
      "stateMutability": "view",
      "type": "function"
    },
    {
      "inputs": [],
      "name": "ROYALTY_FEE_DENOMINATOR",
      "outputs": [
        {
          "internalType": "uint256",
          "name": "",
          "type": "uint256"
        }
      ],
      "stateMutability": "view",
      "type": "function"
    },
    {
      "inputs": [],
      "name": "__msgData",
      "outputs": [
        {
          "internalType": "bytes",
          "name": "",
          "type": "bytes"
        }
      ],
      "stateMutability": "view",
      "type": "function"
    },
    {
      "inputs": [
        {
          "internalType": "address",
          "name": "owner",
          "type": "address"
        },
        {
          "internalType": "uint256",
          "name": "id",
          "type": "uint256"
        }
      ],
      "name": "balanceOf",
      "outputs": [
        {
          "internalType": "uint256",
          "name": "balance",
          "type": "uint256"
        }
      ],
      "stateMutability": "view",
      "type": "function"
    },
    {
      "inputs": [
        {
          "internalType": "address[]",
          "name": "owners",
          "type": "address[]"
        },
        {
          "internalType": "uint256[]",
          "name": "ids",
          "type": "uint256[]"
        }
      ],
      "name": "balanceOfBatch",
      "outputs": [
        {
          "internalType": "uint256[]",
          "name": "balances",
          "type": "uint256[]"
        }
      ],
      "stateMutability": "view",
      "type": "function"
    },
    {
      "inputs": [
        {
          "internalType": "address",
          "name": "from",
          "type": "address"
        },
        {
          "internalType": "uint256[]",
          "name": "ids",
          "type": "uint256[]"
        },
        {
          "internalType": "uint256[]",
          "name": "values",
          "type": "uint256[]"
        }
      ],
      "name": "batchBurnFrom",
      "outputs": [],
      "stateMutability": "nonpayable",
      "type": "function"
    },
    {
      "inputs": [
        {
          "internalType": "address",
          "name": "from",
          "type": "address"
        },
        {
          "internalType": "uint256",
          "name": "id",
          "type": "uint256"
        },
        {
          "internalType": "uint256",
          "name": "value",
          "type": "uint256"
        }
      ],
      "name": "burnFrom",
      "outputs": [],
      "stateMutability": "nonpayable",
      "type": "function"
    },
    {
      "inputs": [],
      "name": "forwarderRegistry",
      "outputs": [
        {
          "internalType": "contract IForwarderRegistry",
          "name": "",
          "type": "address"
        }
      ],
      "stateMutability": "view",
      "type": "function"
    },
    {
      "inputs": [
        {
          "internalType": "bytes32",
          "name": "role",
          "type": "bytes32"
        },
        {
          "internalType": "address",
          "name": "account",
          "type": "address"
        }
      ],
      "name": "grantRole",
      "outputs": [],
      "stateMutability": "nonpayable",
      "type": "function"
    },
    {
      "inputs": [
        {
          "internalType": "bytes32",
          "name": "role",
          "type": "bytes32"
        },
        {
          "internalType": "address",
          "name": "account",
          "type": "address"
        }
      ],
      "name": "hasRole",
      "outputs": [
        {
          "internalType": "bool",
          "name": "",
          "type": "bool"
        }
      ],
      "stateMutability": "view",
      "type": "function"
    },
    {
      "inputs": [
        {
          "internalType": "address",
          "name": "owner",
          "type": "address"
        },
        {
          "internalType": "address",
          "name": "operator",
          "type": "address"
        }
      ],
      "name": "isApprovedForAll",
      "outputs": [
        {
          "internalType": "bool",
          "name": "approvedForAll",
          "type": "bool"
        }
      ],
      "stateMutability": "view",
      "type": "function"
    },
    {
      "inputs": [
        {
          "internalType": "address",
          "name": "forwarder",
          "type": "address"
        }
      ],
      "name": "isTrustedForwarder",
      "outputs": [
        {
          "internalType": "bool",
          "name": "",
          "type": "bool"
        }
      ],
      "stateMutability": "view",
      "type": "function"
    },
    {
      "inputs": [],
      "name": "metadataResolver",
      "outputs": [
        {
          "internalType": "contract ITokenMetadataResolver",
          "name": "tokenMetadataResolver",
          "type": "address"
        }
      ],
      "stateMutability": "view",
      "type": "function"
    },
    {
      "inputs": [],
      "name": "name",
      "outputs": [
        {
          "internalType": "string",
          "name": "tokenName",
          "type": "string"
        }
      ],
      "stateMutability": "view",
      "type": "function"
    },
    {
      "inputs": [],
      "name": "operatorFilterRegistry",
      "outputs": [
        {
          "internalType": "contract IOperatorFilterRegistry",
          "name": "",
          "type": "address"
        }
      ],
      "stateMutability": "view",
      "type": "function"
    },
    {
      "inputs": [],
      "name": "owner",
      "outputs": [
        {
          "internalType": "address",
          "name": "",
          "type": "address"
        }
      ],
      "stateMutability": "view",
      "type": "function"
    },
    {
      "inputs": [
        {
          "internalType": "address[]",
          "name": "accounts",
          "type": "address[]"
        },
        {
          "internalType": "contract IERC20[]",
          "name": "tokens",
          "type": "address[]"
        },
        {
          "internalType": "uint256[]",
          "name": "amounts",
          "type": "uint256[]"
        }
      ],
      "name": "recoverERC20s",
      "outputs": [],
      "stateMutability": "nonpayable",
      "type": "function"
    },
    {
      "inputs": [
        {
          "internalType": "address[]",
          "name": "accounts",
          "type": "address[]"
        },
        {
          "internalType": "contract IERC721[]",
          "name": "contracts",
          "type": "address[]"
        },
        {
          "internalType": "uint256[]",
          "name": "tokenIds",
          "type": "uint256[]"
        }
      ],
      "name": "recoverERC721s",
      "outputs": [],
      "stateMutability": "nonpayable",
      "type": "function"
    },
    {
      "inputs": [
        {
          "internalType": "address payable[]",
          "name": "accounts",
          "type": "address[]"
        },
        {
          "internalType": "uint256[]",
          "name": "amounts",
          "type": "uint256[]"
        }
      ],
      "name": "recoverETH",
      "outputs": [],
      "stateMutability": "nonpayable",
      "type": "function"
    },
    {
      "inputs": [
        {
          "internalType": "bytes32",
          "name": "role",
          "type": "bytes32"
        }
      ],
      "name": "renounceRole",
      "outputs": [],
      "stateMutability": "nonpayable",
      "type": "function"
    },
    {
      "inputs": [
        {
          "internalType": "bytes32",
          "name": "role",
          "type": "bytes32"
        },
        {
          "internalType": "address",
          "name": "account",
          "type": "address"
        }
      ],
      "name": "revokeRole",
      "outputs": [],
      "stateMutability": "nonpayable",
      "type": "function"
    },
    {
      "inputs": [
        {
          "internalType": "uint256",
          "name": "tokenId",
          "type": "uint256"
        },
        {
          "internalType": "uint256",
          "name": "salePrice",
          "type": "uint256"
        }
      ],
      "name": "royaltyInfo",
      "outputs": [
        {
          "internalType": "address",
          "name": "receiver",
          "type": "address"
        },
        {
          "internalType": "uint256",
          "name": "royaltyAmount",
          "type": "uint256"
        }
      ],
      "stateMutability": "view",
      "type": "function"
    },
    {
      "inputs": [
        {
          "internalType": "address",
          "name": "to",
          "type": "address"
        },
        {
          "internalType": "uint256[]",
          "name": "ids",
          "type": "uint256[]"
        },
        {
          "internalType": "uint256[]",
          "name": "values",
          "type": "uint256[]"
        },
        {
          "internalType": "bytes",
          "name": "data",
          "type": "bytes"
        }
      ],
      "name": "safeBatchMint",
      "outputs": [],
      "stateMutability": "nonpayable",
      "type": "function"
    },
    {
      "inputs": [
        {
          "internalType": "address",
          "name": "from",
          "type": "address"
        },
        {
          "internalType": "address",
          "name": "to",
          "type": "address"
        },
        {
          "internalType": "uint256[]",
          "name": "ids",
          "type": "uint256[]"
        },
        {
          "internalType": "uint256[]",
          "name": "values",
          "type": "uint256[]"
        },
        {
          "internalType": "bytes",
          "name": "data",
          "type": "bytes"
        }
      ],
      "name": "safeBatchTransferFrom",
      "outputs": [],
      "stateMutability": "nonpayable",
      "type": "function"
    },
    {
      "inputs": [
        {
          "internalType": "address[]",
          "name": "recipients",
          "type": "address[]"
        },
        {
          "internalType": "uint256[]",
          "name": "ids",
          "type": "uint256[]"
        },
        {
          "internalType": "uint256[]",
          "name": "values",
          "type": "uint256[]"
        },
        {
          "internalType": "bytes",
          "name": "data",
          "type": "bytes"
        }
      ],
      "name": "safeDeliver",
      "outputs": [],
      "stateMutability": "nonpayable",
      "type": "function"
    },
    {
      "inputs": [
        {
          "internalType": "address",
          "name": "to",
          "type": "address"
        },
        {
          "internalType": "uint256",
          "name": "id",
          "type": "uint256"
        },
        {
          "internalType": "uint256",
          "name": "value",
          "type": "uint256"
        },
        {
          "internalType": "bytes",
          "name": "data",
          "type": "bytes"
        }
      ],
      "name": "safeMint",
      "outputs": [],
      "stateMutability": "nonpayable",
      "type": "function"
    },
    {
      "inputs": [
        {
          "internalType": "address",
          "name": "from",
          "type": "address"
        },
        {
          "internalType": "address",
          "name": "to",
          "type": "address"
        },
        {
          "internalType": "uint256",
          "name": "id",
          "type": "uint256"
        },
        {
          "internalType": "uint256",
          "name": "value",
          "type": "uint256"
        },
        {
          "internalType": "bytes",
          "name": "data",
          "type": "bytes"
        }
      ],
      "name": "safeTransferFrom",
      "outputs": [],
      "stateMutability": "nonpayable",
      "type": "function"
    },
    {
      "inputs": [
        {
          "internalType": "address",
          "name": "operator",
          "type": "address"
        },
        {
          "internalType": "bool",
          "name": "approved",
          "type": "bool"
        }
      ],
      "name": "setApprovalForAll",
      "outputs": [],
      "stateMutability": "nonpayable",
      "type": "function"
    },
    {
      "inputs": [
        {
          "internalType": "uint256",
          "name": "percentage",
          "type": "uint256"
        }
      ],
      "name": "setRoyaltyPercentage",
      "outputs": [],
      "stateMutability": "nonpayable",
      "type": "function"
    },
    {
      "inputs": [
        {
          "internalType": "address",
          "name": "receiver",
          "type": "address"
        }
      ],
      "name": "setRoyaltyReceiver",
      "outputs": [],
      "stateMutability": "nonpayable",
      "type": "function"
    },
    {
      "inputs": [
        {
          "internalType": "bytes4",
          "name": "interfaceId",
          "type": "bytes4"
        }
      ],
      "name": "supportsInterface",
      "outputs": [
        {
          "internalType": "bool",
          "name": "",
          "type": "bool"
        }
      ],
      "stateMutability": "view",
      "type": "function"
    },
    {
      "inputs": [],
      "name": "symbol",
      "outputs": [
        {
          "internalType": "string",
          "name": "tokenSymbol",
          "type": "string"
        }
      ],
      "stateMutability": "view",
      "type": "function"
    },
    {
      "inputs": [
        {
          "internalType": "address",
          "name": "newOwner",
          "type": "address"
        }
      ],
      "name": "transferOwnership",
      "outputs": [],
      "stateMutability": "nonpayable",
      "type": "function"
    },
    {
      "inputs": [
        {
          "internalType": "contract IOperatorFilterRegistry",
          "name": "registry",
          "type": "address"
        }
      ],
      "name": "updateOperatorFilterRegistry",
      "outputs": [],
      "stateMutability": "nonpayable",
      "type": "function"
    },
    {
      "inputs": [
        {
          "internalType": "uint256",
          "name": "tokenId",
          "type": "uint256"
        }
      ],
      "name": "uri",
      "outputs": [
        {
          "internalType": "string",
          "name": "metadataURI",
          "type": "string"
        }
      ],
      "stateMutability": "view",
      "type": "function"
    }
  ],
  "bytecode": "0x60a06040523480156200001157600080fd5b5060405162004ade38038062004ade833981016040819052620000349162000480565b84848484848080868686863362000056816200004f620000fd565b9062000133565b5062000061620001ae565b6200008e8162000070620001c8565b9081546001600160a01b0319166001600160a01b0391909116179055565b50620000a9838383620000a0620001f8565b92919062000228565b620000b36200026f565b50620000c191505062000287565b620000cb6200029f565b620000d5620002b7565b620000df620002cf565b6001600160a01b031660805250620006a99950505050505050505050565b6000806200012d60017fc9ed16f33ab3a66c84bfd83099ccb2a8845871e2e1c1928f63797152f0fd54cd6200052c565b92915050565b6001600160a01b038116156200018a5781546001600160a01b0319166001600160a01b03821690811783556040516000907f8be0079c531659141344cd1fd0a4f28419497f9722a3daafe3b4186f6b6457e0908290a35b620001aa6307f5828d60e41b6001620001a2620002e2565b919062000312565b5050565b620001c6636cdb3d1360e11b6001620001a2620002e2565b565b6000806200012d60017f609b85bcafa81ecfaf3ff62cdde2c6c9082a68dbe4922f07399c706bdeb7cd316200052c565b6000806200012d60017f7ea68fd2dcf1c056b94db6a0a537aa80d26fa9ab1eacd85da1ba0b61b7e7a8a56200052c565b83620002358482620005dd565b5060018401620002468382620005dd565b5060029390930180546001600160a01b0319166001600160a01b03909416939093179092555050565b620001c66303a24d0760e21b6001620001a2620002e2565b620001c6631464324b60e21b6001620001a2620002e2565b620001c6633a2ae73360e21b6001620001a2620002e2565b620001c663921ed8d160e01b6001620001a2620002e2565b620001c663152a902d60e11b6001620001a25b6000806200012d60017fca9d3e17f264b0f3984e2634e94adb37fa3e6a8103f06aeae6fa59e21c769f5e6200052c565b600160e01b6001600160e01b0319831601620003745760405162461bcd60e51b815260206004820152601f60248201527f496e74657266616365446574656374696f6e3a2077726f6e672076616c756500604482015260640160405180910390fd5b6001600160e01b03199190911660009081526020929092526040909120805460ff1916911515919091179055565b634e487b7160e01b600052604160045260246000fd5b600082601f830112620003ca57600080fd5b81516001600160401b0380821115620003e757620003e7620003a2565b604051601f8301601f19908116603f01168101908282118183101715620004125762000412620003a2565b816040528381526020925086838588010111156200042f57600080fd5b600091505b8382101562000453578582018301518183018401529082019062000434565b600093810190920192909252949350505050565b6001600160a01b03811681146200047d57600080fd5b50565b600080600080600060a086880312156200049957600080fd5b85516001600160401b0380821115620004b157600080fd5b620004bf89838a01620003b8565b96506020880151915080821115620004d657600080fd5b50620004e588828901620003b8565b9450506040860151620004f88162000467565b60608701519093506200050b8162000467565b60808701519092506200051e8162000467565b809150509295509295909350565b818103818111156200012d57634e487b7160e01b600052601160045260246000fd5b600181811c908216806200056357607f821691505b6020821081036200058457634e487b7160e01b600052602260045260246000fd5b50919050565b601f821115620005d857600081815260208120601f850160051c81016020861015620005b35750805b601f850160051c820191505b81811015620005d457828155600101620005bf565b5050505b505050565b81516001600160401b03811115620005f957620005f9620003a2565b62000611816200060a84546200054e565b846200058a565b602080601f831160018114620006495760008415620006305750858301515b600019600386901b1c1916600185901b178555620005d4565b600085815260208120601f198616915b828110156200067a5788860151825594840194600190910190840162000659565b5085821015620006995787850151600019600388901b60f8161c191681555b5050505050600190811b01905550565b6080516143f6620006e860003960008181610332015281816103e301528181612ac201528181612b4a0152818161337a01526133b801526143f66000f3fe608060405234801561001057600080fd5b50600436106102405760003560e01c80638053493411610145578063c3666c36116100bd578063e8ab9ccc1161008c578063f242432a11610071578063f242432a14610555578063f2fde38b14610568578063f7ba94bd1461057b57600080fd5b8063e8ab9ccc1461052f578063e985e9c51461054257600080fd5b8063c3666c36146104d8578063d5391393146104eb578063d547741f14610512578063e1a8bf2c1461052557600080fd5b806391d1485411610114578063a0c76f62116100f9578063a0c76f62146104b5578063a22cb465146104bd578063b0ccc31e146104d057600080fd5b806391d148541461049a57806395d89b41146104ad57600080fd5b806380534934146104595780638bb9c5bf1461046c5780638da5cb5b1461047f5780638dc251e31461048757600080fd5b80632b4c9f16116101d85780634e1273f4116101a75780635cfa92971161018c5780635cfa92971461042057806361ba27da1461043357806373c8a9581461044657600080fd5b80634e1273f4146103b3578063572b6c05146103d357600080fd5b80632b4c9f16146103305780632eb2c2d6146103775780632f2ff15d1461038a57806331e66e1e1461039d57600080fd5b80630e89341c116102145780630e89341c146102b8578063114ba8ee146102cb578063124d91e5146102de5780632a55205a146102f157600080fd5b8062fdd58e1461024557806301ffc9a71461026b57806306fdde031461028e5780630d6a5bbb146102a3575b600080fd5b6102586102533660046137dc565b61058e565b6040519081526020015b60405180910390f35b61027e610279366004613836565b6105ad565b6040519015158152602001610262565b6102966105c1565b60405161026291906138c8565b6102b66102b1366004613962565b6105d8565b005b6102966102c6366004613a0f565b6106d3565b6102b66102d9366004613a28565b6106e9565b6102b66102ec366004613a45565b610754565b6103046102ff366004613a7a565b610778565b6040805173ffffffffffffffffffffffffffffffffffffffff9093168352602083019190915201610262565b7f00000000000000000000000000000000000000000000000000000000000000005b60405173ffffffffffffffffffffffffffffffffffffffff9091168152602001610262565b6102b6610385366004613a9c565b61079b565b6102b6610398366004613b5b565b6107e8565b6103a5610816565b604051610262929190613b8b565b6103c66103c1366004613bd8565b610829565b6040516102629190613c7f565b61027e6103e1366004613a28565b7f000000000000000000000000000000000000000000000000000000000000000073ffffffffffffffffffffffffffffffffffffffff90811691161490565b6102b661042e366004613c92565b61084e565b6102b6610441366004613a0f565b6108e0565b6102b6610454366004613cfc565b6108fd565b6102b6610467366004613d96565b610a1b565b6102b661047a366004613a0f565b610a45565b610352610a60565b6102b6610495366004613a28565b610a87565b61027e6104a8366004613b5b565b610aa4565b610296610ae8565b610352610afa565b6102b66104cb366004613e16565b610b24565b610352610b5d565b6102b66104e6366004613cfc565b610b6a565b6102587f6d696e746572000000000000000000000000000000000000000000000000000081565b6102b6610520366004613b5b565b610d0f565b610258620186a081565b6102b661053d366004613e44565b610d3d565b61027e610550366004613ee7565b610e57565b6102b6610563366004613f15565b610ea5565b6102b6610576366004613a28565b610ee5565b6102b6610589366004613bd8565b610f00565b60006105a4838361059d610fe6565b9190611014565b90505b92915050565b60006105a7826105bb6110c8565b906110f6565b60606105d36105ce6111d0565b6111fe565b905090565b60006105e2611294565b90506106187f6d696e74657200000000000000000000000000000000000000000000000000008261061161129e565b91906112cc565b6106c9818989898080602002602001604051908101604052809392919081815260200183836020028082843760009201919091525050604080516020808d0282810182019093528c82529093508c92508b91829185019084908082843760009201919091525050604080516020601f8c018190048102820181019092528a815292508a91508990819084018382808284376000920191909152506106bf9250610fe6915050565b9493929190611378565b5050505050505050565b60606105a730836106e26111d0565b919061155d565b6107026106f4611294565b6106fc61161d565b9061164b565b6107518161070e6116ce565b9081547fffffffffffffffffffffffff00000000000000000000000000000000000000001673ffffffffffffffffffffffffffffffffffffffff91909116179055565b50565b61077361075f611294565b84848461076a610fe6565b9392919061173e565b505050565b60008061078f848461078861181b565b9190611849565b915091505b9250929050565b60006107a5611294565b90506107bb818a6107b46116ce565b91906118f3565b6107dd818a8a8a8a8a8a8a8a6107cf610fe6565b989796959493929190611930565b505050505050505050565b60006107f2611294565b9050610800816106fc61161d565b61077383838361080e61129e565b929190611c28565b366000610821611cff565b915091509091565b60606108438585858561083a610fe6565b93929190611d0a565b90505b949350505050565b6000610858611294565b90506108877f6d696e74657200000000000000000000000000000000000000000000000000008261061161129e565b6108d88187878787878080601f0160208091040260200160405190810160405280939291908181526020018383808284376000920191909152506108ce9250610fe6915050565b9493929190611e48565b505050505050565b6108eb6106f4611294565b610751816108f761181b565b90611f56565b6109086106f4611294565b84838114801561091757508082145b610982576040517f08c379a000000000000000000000000000000000000000000000000000000000815260206004820152601d60248201527f5265636f766572793a20696e636f6e73697374656e742061727261797300000060448201526064015b60405180910390fd5b60005b8181146106c957610a138888838181106109a1576109a1613f7f565b90506020020160208101906109b69190613a28565b8585848181106109c8576109c8613f7f565b905060200201358888858181106109e1576109e1613f7f565b90506020020160208101906109f69190613a28565b73ffffffffffffffffffffffffffffffffffffffff169190611fdc565b600101610985565b610a3e610a26611294565b8686868686610a33610fe6565b959493929190612069565b5050505050565b610751610a50611294565b82610a5961129e565b9190612220565b60006105d3610a6d61161d565b5473ffffffffffffffffffffffffffffffffffffffff1690565b610a926106f4611294565b61075181610a9e61181b565b906122c4565b60006105a48383610ab361129e565b60009283526020908152604080842073ffffffffffffffffffffffffffffffffffffffff909316845291905290205460ff1690565b60606105d3610af56111d0565b612311565b60006105d3610b076111d0565b6002015473ffffffffffffffffffffffffffffffffffffffff1690565b8015610b3c57610b3c82610b366116ce565b90612322565b610b59610b47611294565b8383610b51610fe6565b92919061232c565b5050565b60006105d3610a6d6116ce565b610b756106f4611294565b848381148015610b8457508082145b610bea576040517f08c379a000000000000000000000000000000000000000000000000000000000815260206004820152601d60248201527f5265636f766572793a20696e636f6e73697374656e74206172726179730000006044820152606401610979565b60005b8181146106c957858582818110610c0657610c06613f7f565b9050602002016020810190610c1b9190613a28565b73ffffffffffffffffffffffffffffffffffffffff166323b872dd308a8a85818110610c4957610c49613f7f565b9050602002016020810190610c5e9190613a28565b878786818110610c7057610c70613f7f565b6040517fffffffff0000000000000000000000000000000000000000000000000000000060e088901b16815273ffffffffffffffffffffffffffffffffffffffff958616600482015294909316602485015250602090910201356044820152606401600060405180830381600087803b158015610cec57600080fd5b505af1158015610d00573d6000803e3d6000fd5b50505050806001019050610bed565b6000610d19611294565b9050610d27816106fc61161d565b610773838383610d3561129e565b92919061245c565b6000610d47611294565b9050610d767f6d696e74657200000000000000000000000000000000000000000000000000008261061161129e565b6107dd818a8a8080602002602001604051908101604052809392919081815260200183836020028082843760009201919091525050604080516020808e0282810182019093528d82529093508d92508c91829185019084908082843760009201919091525050604080516020808d0282810182019093528c82529093508c92508b91829185019084908082843760009201919091525050604080516020601f8c018190048102820181019092528a815292508a9150899081908401838280828437600092019190915250610e4d9250610fe6915050565b9493929190612526565b60006105a48383610e66610fe6565b919073ffffffffffffffffffffffffffffffffffffffff9182166000908152600193909301602090815260408085209290931684525290205460ff1690565b6000610eaf611294565b9050610ebe81886107b46116ce565b610edc81888888888888610ed0610fe6565b96959493929190612616565b50505050505050565b610751610ef0611294565b82610ef961161d565b91906127f9565b610f0b6106f4611294565b82818114610f75576040517f08c379a000000000000000000000000000000000000000000000000000000000815260206004820152601d60248201527f5265636f766572793a20696e636f6e73697374656e74206172726179730000006044820152606401610979565b60005b8181146108d857610fde848483818110610f9457610f94613f7f565b90506020020135878784818110610fad57610fad613f7f565b9050602002016020810190610fc29190613a28565b73ffffffffffffffffffffffffffffffffffffffff1690612925565b600101610f78565b6000806105a760017f5ccf5846fa27a68fafc8e588671a68f5e67c2f9b56af4263806a4d71735e8613613fdd565b600073ffffffffffffffffffffffffffffffffffffffff8316611093576040517f08c379a000000000000000000000000000000000000000000000000000000000815260206004820152601e60248201527f455243313135353a2062616c616e6365206f66206164647265737328302900006044820152606401610979565b5060009081526020928352604080822073ffffffffffffffffffffffffffffffffffffffff9390931682529190925290205490565b6000806105a760017fca9d3e17f264b0f3984e2634e94adb37fa3e6a8103f06aeae6fa59e21c769f5e613fdd565b60007c01000000000000000000000000000000000000000000000000000000007fffffffff00000000000000000000000000000000000000000000000000000000831601611146575060006105a7565b7ffe003659000000000000000000000000000000000000000000000000000000007fffffffff00000000000000000000000000000000000000000000000000000000831601611197575060016105a7565b507fffffffff00000000000000000000000000000000000000000000000000000000166000908152602091909152604090205460ff1690565b6000806105a760017f7ea68fd2dcf1c056b94db6a0a537aa80d26fa9ab1eacd85da1ba0b61b7e7a8a5613fdd565b606081600001805461120f90613ff0565b80601f016020809104026020016040519081016040528092919081815260200182805461123b90613ff0565b80156112885780601f1061125d57610100808354040283529160200191611288565b820191906000526020600020905b81548152906001019060200180831161126b57829003601f168201915b50505050509050919050565b60006105d3612a7f565b6000806105a760017fc8827d3282af6f37b64c3e9e6f3ac9df286ab0bb0fccd6f8661bf19adb368b23613fdd565b60008281526020848152604080832073ffffffffffffffffffffffffffffffffffffffff8516845290915290205460ff166107735761130a82612bc6565b60405160200161131a9190614043565b604080517fffffffffffffffffffffffffffffffffffffffffffffffffffffffffffffffe0818403018152908290527f08c379a0000000000000000000000000000000000000000000000000000000008252610979916004016138c8565b73ffffffffffffffffffffffffffffffffffffffff84166113f5576040517f08c379a000000000000000000000000000000000000000000000000000000000815260206004820152601b60248201527f455243313135353a206d696e7420746f206164647265737328302900000000006044820152606401610979565b825182518114611461576040517f08c379a000000000000000000000000000000000000000000000000000000000815260206004820152601c60248201527f455243313135353a20696e636f6e73697374656e7420617272617973000000006044820152606401610979565b60005b8181146114b1576114a9888787848151811061148257611482613f7f565b602002602001015187858151811061149c5761149c613f7f565b6020026020010151612d58565b600101611464565b508473ffffffffffffffffffffffffffffffffffffffff16600073ffffffffffffffffffffffffffffffffffffffff168773ffffffffffffffffffffffffffffffffffffffff167f4a39dc06d4c0dbc64b70af90fd698a233a518aa5d07e595d983b8c0526c8f7fb87876040516115299291906140af565b60405180910390a473ffffffffffffffffffffffffffffffffffffffff85163b15610edc57610edc86600087878787612e2c565b60028301546040517ff724dad700000000000000000000000000000000000000000000000000000000815273ffffffffffffffffffffffffffffffffffffffff848116600483015260248201849052606092169063f724dad790604401600060405180830381865afa1580156115d7573d6000803e3d6000fd5b505050506040513d6000823e601f3d9081017fffffffffffffffffffffffffffffffffffffffffffffffffffffffffffffffe0168201604052610846919081019061410c565b6000806105a760017fc9ed16f33ab3a66c84bfd83099ccb2a8845871e2e1c1928f63797152f0fd54cd613fdd565b815473ffffffffffffffffffffffffffffffffffffffff828116911614610b59576040517f08c379a000000000000000000000000000000000000000000000000000000000815260206004820152601860248201527f4f776e6572736869703a206e6f7420746865206f776e657200000000000000006044820152606401610979565b6000806105a760017f609b85bcafa81ecfaf3ff62cdde2c6c9082a68dbe4922f07399c706bdeb7cd31613fdd565b81547fffffffffffffffffffffffff00000000000000000000000000000000000000001673ffffffffffffffffffffffffffffffffffffffff91909116179055565b611749858486612f54565b6117af576040517f08c379a000000000000000000000000000000000000000000000000000000000815260206004820152601c60248201527f455243313135353a206e6f6e2d617070726f7665642073656e646572000000006044820152606401610979565b6117bb85848484612fc9565b604080518381526020810183905260009173ffffffffffffffffffffffffffffffffffffffff86811692908816917fc3d58168c5ae7397731d063d5bbf3d657854427343f4c083240f7aacaa2d0f62910160405180910390a45050505050565b6000806105a760017f2c0cf10337caabbd02dcf226f05f5fd19a0919a41a8df8958c39b80007826858613fdd565b825473ffffffffffffffffffffffffffffffffffffffff8116906000907401000000000000000000000000000000000000000090046bffffffffffffffffffffffff16831580611897575080155b156118a557600091506118ea565b620186a08410156118cf57620186a06118be82866141cc565b6118c891906141e3565b91506118ea565b806118dd620186a0866141e3565b6118e791906141cc565b91505b50935093915050565b8073ffffffffffffffffffffffffffffffffffffffff168273ffffffffffffffffffffffffffffffffffffffff1614610773576107738383613069565b73ffffffffffffffffffffffffffffffffffffffff87166119ad576040517f08c379a000000000000000000000000000000000000000000000000000000000815260206004820152601f60248201527f455243313135353a207472616e7366657220746f2061646472657373283029006044820152606401610979565b84838114611a17576040517f08c379a000000000000000000000000000000000000000000000000000000000815260206004820152601c60248201527f455243313135353a20696e636f6e73697374656e7420617272617973000000006044820152606401610979565b611a228b8a8c612f54565b611a88576040517f08c379a000000000000000000000000000000000000000000000000000000000815260206004820152601c60248201527f455243313135353a206e6f6e2d617070726f7665642073656e646572000000006044820152606401610979565b60005b818114611ad757611acf8c8b8b8b8b86818110611aaa57611aaa613f7f565b905060200201358a8a87818110611ac357611ac3613f7f565b90506020020135613190565b600101611a8b565b508773ffffffffffffffffffffffffffffffffffffffff168973ffffffffffffffffffffffffffffffffffffffff168b73ffffffffffffffffffffffffffffffffffffffff167f4a39dc06d4c0dbc64b70af90fd698a233a518aa5d07e595d983b8c0526c8f7fb8a8a8a8a604051611b529493929190614269565b60405180910390a473ffffffffffffffffffffffffffffffffffffffff88163b15611c1b57611c1b8a8a8a8a8a8080602002602001604051908101604052809392919081815260200183836020028082843760009201919091525050604080516020808e0282810182019093528d82529093508d92508c91829185019084908082843760009201919091525050604080516020601f8d018190048102820181019092528b815292508b91508a9081908401838280828437600092019190915250612e2c92505050565b5050505050505050505050565b60008381526020858152604080832073ffffffffffffffffffffffffffffffffffffffff8616845290915290205460ff16611cf95760008381526020858152604080832073ffffffffffffffffffffffffffffffffffffffff8681168086529184529382902080547fffffffffffffffffffffffffffffffffffffffffffffffffffffffffffffff00166001179055815187815292830152918316918101919091527f2f8788117e7eff1d82e926ec794901d17c78024a50270940304540a733656f0d906060015b60405180910390a15b50505050565b366000610821613343565b606083828114611d76576040517f08c379a000000000000000000000000000000000000000000000000000000000815260206004820152601c60248201527f455243313135353a20696e636f6e73697374656e7420617272617973000000006044820152606401610979565b8467ffffffffffffffff811115611d8f57611d8f6140dd565b604051908082528060200260200182016040528015611db8578160200160208202803683370190505b50915060005b818114611e3d57611e18878783818110611dda57611dda613f7f565b9050602002016020810190611def9190613a28565b868684818110611e0157611e01613f7f565b905060200201358a6110149092919063ffffffff16565b838281518110611e2a57611e2a613f7f565b6020908102919091010152600101611dbe565b505095945050505050565b73ffffffffffffffffffffffffffffffffffffffff8416611ec5576040517f08c379a000000000000000000000000000000000000000000000000000000000815260206004820152601b60248201527f455243313135353a206d696e7420746f206164647265737328302900000000006044820152606401610979565b611ed186858585612d58565b604080518481526020810184905273ffffffffffffffffffffffffffffffffffffffff80871692600092918916917fc3d58168c5ae7397731d063d5bbf3d657854427343f4c083240f7aacaa2d0f62910160405180910390a473ffffffffffffffffffffffffffffffffffffffff84163b156108d8576108d8856000868686866134ad565b620186a0811115611f96576040517f3affc6c400000000000000000000000000000000000000000000000000000000815260048101829052602401610979565b81546bffffffffffffffffffffffff909116740100000000000000000000000000000000000000000273ffffffffffffffffffffffffffffffffffffffff909116179055565b6040805173ffffffffffffffffffffffffffffffffffffffff8416602482015260448082018490528251808303909101815260649091019091526020810180517bffffffffffffffffffffffffffffffffffffffffffffffffffffffff167fa9059cbb00000000000000000000000000000000000000000000000000000000179052610773908490613509565b828181146120d3576040517f08c379a000000000000000000000000000000000000000000000000000000000815260206004820152601c60248201527f455243313135353a20696e636f6e73697374656e7420617272617973000000006044820152606401610979565b6120de888789612f54565b612144576040517f08c379a000000000000000000000000000000000000000000000000000000000815260206004820152601c60248201527f455243313135353a206e6f6e2d617070726f7665642073656e646572000000006044820152606401610979565b60005b8181146121925761218a898888888581811061216557612165613f7f565b9050602002013587878681811061217e5761217e613f7f565b90506020020135612fc9565b600101612147565b50600073ffffffffffffffffffffffffffffffffffffffff168673ffffffffffffffffffffffffffffffffffffffff168873ffffffffffffffffffffffffffffffffffffffff167f4a39dc06d4c0dbc64b70af90fd698a233a518aa5d07e595d983b8c0526c8f7fb8888888860405161220e9493929190614269565b60405180910390a45050505050505050565b61222b8382846112cc565b60008181526020848152604080832073ffffffffffffffffffffffffffffffffffffffff86168085529083529281902080547fffffffffffffffffffffffffffffffffffffffffffffffffffffffffffffff0016905580518481529182018390528101919091527ff6391f5c32d9c69d2a47ea670b442974b53935d1edc7fd64eb21e047a839171b9060600160405180910390a1505050565b73ffffffffffffffffffffffffffffffffffffffff81166116fc576040517f6fe1b4c800000000000000000000000000000000000000000000000000000000815260040160405180910390fd5b606081600101805461120f90613ff0565b610b598282613069565b8273ffffffffffffffffffffffffffffffffffffffff168273ffffffffffffffffffffffffffffffffffffffff16036123c1576040517f08c379a000000000000000000000000000000000000000000000000000000000815260206004820152601e60248201527f455243313135353a2073656c662d617070726f76616c20666f7220616c6c00006044820152606401610979565b73ffffffffffffffffffffffffffffffffffffffff838116600081815260018701602090815260408083209487168084529482529182902080547fffffffffffffffffffffffffffffffffffffffffffffffffffffffffffffff001686151590811790915591519182527f17307eab39ab6107e8899845ad3d59bd9653f200f220920489ca2b5937696c31910160405180910390a350505050565b60008381526020858152604080832073ffffffffffffffffffffffffffffffffffffffff8616845290915290205460ff1615611cf95760008381526020858152604080832073ffffffffffffffffffffffffffffffffffffffff8681168086529184529382902080547fffffffffffffffffffffffffffffffffffffffffffffffffffffffffffffff00169055815187815292830152918316918101919091527ff6391f5c32d9c69d2a47ea670b442974b53935d1edc7fd64eb21e047a839171b90606001611cf0565b83518351811480156125385750825181145b61259e576040517f08c379a000000000000000000000000000000000000000000000000000000000815260206004820152601c60248201527f455243313135353a20696e636f6e73697374656e7420617272617973000000006044820152606401610979565b60005b8181146106c95761260e878783815181106125be576125be613f7f565b60200260200101518784815181106125d8576125d8613f7f565b60200260200101518785815181106125f2576125f2613f7f565b6020026020010151878d611e489095949392919063ffffffff16565b6001016125a1565b73ffffffffffffffffffffffffffffffffffffffff8516612693576040517f08c379a000000000000000000000000000000000000000000000000000000000815260206004820152601f60248201527f455243313135353a207472616e7366657220746f2061646472657373283029006044820152606401610979565b61269e888789612f54565b612704576040517f08c379a000000000000000000000000000000000000000000000000000000000815260206004820152601c60248201527f455243313135353a206e6f6e2d617070726f7665642073656e646572000000006044820152606401610979565b6127118887878787613190565b8473ffffffffffffffffffffffffffffffffffffffff168673ffffffffffffffffffffffffffffffffffffffff168873ffffffffffffffffffffffffffffffffffffffff167fc3d58168c5ae7397731d063d5bbf3d657854427343f4c083240f7aacaa2d0f628787604051612790929190918252602082015260400190565b60405180910390a473ffffffffffffffffffffffffffffffffffffffff85163b156106c9576106c9878787878787878080601f0160208091040260200160405190810160405280939291908181526020018383808284376000920191909152506134ad92505050565b825473ffffffffffffffffffffffffffffffffffffffff908116908316811461287e576040517f08c379a000000000000000000000000000000000000000000000000000000000815260206004820152601860248201527f4f776e6572736869703a206e6f7420746865206f776e657200000000000000006044820152606401610979565b8173ffffffffffffffffffffffffffffffffffffffff168173ffffffffffffffffffffffffffffffffffffffff1614611cf95783547fffffffffffffffffffffffff00000000000000000000000000000000000000001673ffffffffffffffffffffffffffffffffffffffff8381169182178655604051908316907f8be0079c531659141344cd1fd0a4f28419497f9722a3daafe3b4186f6b6457e090600090a350505050565b8047101561298f576040517f08c379a000000000000000000000000000000000000000000000000000000000815260206004820152601d60248201527f416464726573733a20696e73756666696369656e742062616c616e63650000006044820152606401610979565b60008273ffffffffffffffffffffffffffffffffffffffff168260405160006040518083038185875af1925050503d80600081146129e9576040519150601f19603f3d011682016040523d82523d6000602084013e6129ee565b606091505b5050905080610773576040517f08c379a000000000000000000000000000000000000000000000000000000000815260206004820152603a60248201527f416464726573733a20756e61626c6520746f2073656e642076616c75652c207260448201527f6563697069656e74206d617920686176652072657665727465640000000000006064820152608401610979565b600033321480612a8f5750601836105b15612a9957503390565b7fffffffffffffffffffffffffffffffffffffffffffffffffffffffffffffffec36013560601c7f000000000000000000000000000000000000000000000000000000000000000073ffffffffffffffffffffffffffffffffffffffff16331480612bb557506040517f8929a8ca00000000000000000000000000000000000000000000000000000000815273ffffffffffffffffffffffffffffffffffffffff82811660048301523360248301527f00000000000000000000000000000000000000000000000000000000000000001690638929a8ca90604401602060405180830381865afa158015612b91573d6000803e3d6000fd5b505050506040513d601f19601f82011682018060405250810190612bb59190614290565b15612bbf57919050565b3391505090565b60606000829003612be557505060408051602081019091526000815290565b600082604051602001612bfa91815260200190565b604080517fffffffffffffffffffffffffffffffffffffffffffffffffffffffffffffffe08184030181529190529050601f5b818181518110612c3f57612c3f613f7f565b01602001517fff0000000000000000000000000000000000000000000000000000000000000016600003612c94577fffffffffffffffffffffffffffffffffffffffffffffffffffffffffffffffff01612c2d565b60008160010167ffffffffffffffff811115612cb257612cb26140dd565b6040519080825280601f01601f191660200182016040528015612cdc576020820181803683370190505b50905060005b828111612d4f57838181518110612cfb57612cfb613f7f565b602001015160f81c60f81b828281518110612d1857612d18613f7f565b60200101907effffffffffffffffffffffffffffffffffffffffffffffffffffffffffffff1916908160001a905350600101612ce2565b50949350505050565b8015611cf95760008281526020858152604080832073ffffffffffffffffffffffffffffffffffffffff87168452909152902054818101818111612df8576040517f08c379a000000000000000000000000000000000000000000000000000000000815260206004820152601960248201527f455243313135353a2062616c616e6365206f766572666c6f77000000000000006044820152606401610979565b60009384526020958652604080852073ffffffffffffffffffffffffffffffffffffffff9690961685529490955250502055565b6040517fbc197c81000000000000000000000000000000000000000000000000000000008082529073ffffffffffffffffffffffffffffffffffffffff86169063bc197c8190612e88908a908a908990899089906004016142ad565b6020604051808303816000875af1158015612ea7573d6000803e3d6000fd5b505050506040513d601f19601f82011682018060405250810190612ecb9190614318565b7fffffffff0000000000000000000000000000000000000000000000000000000016146108d8576040517f08c379a000000000000000000000000000000000000000000000000000000000815260206004820152601a60248201527f455243313135353a207472616e736665722072656a65637465640000000000006044820152606401610979565b60008173ffffffffffffffffffffffffffffffffffffffff168373ffffffffffffffffffffffffffffffffffffffff16148061084657505073ffffffffffffffffffffffffffffffffffffffff9182166000908152600193909301602090815260408085209290931684525290205460ff1690565b8015611cf95760008281526020858152604080832073ffffffffffffffffffffffffffffffffffffffff87168452909152902054818103818110612df8576040517f08c379a000000000000000000000000000000000000000000000000000000000815260206004820152601d60248201527f455243313135353a20696e73756666696369656e742062616c616e63650000006044820152606401610979565b815473ffffffffffffffffffffffffffffffffffffffff1680158015906130a7575060008173ffffffffffffffffffffffffffffffffffffffff163b115b15610773576040517fc617113400000000000000000000000000000000000000000000000000000000815230600482015273ffffffffffffffffffffffffffffffffffffffff838116602483015282169063c617113490604401602060405180830381865afa15801561311e573d6000803e3d6000fd5b505050506040513d601f19601f820116820180604052508101906131429190614290565b610773576040517fede71dcc00000000000000000000000000000000000000000000000000000000815273ffffffffffffffffffffffffffffffffffffffff83166004820152602401610979565b8015610a3e5760008281526020868152604080832073ffffffffffffffffffffffffffffffffffffffff88168452909152902054818103818110613230576040517f08c379a000000000000000000000000000000000000000000000000000000000815260206004820152601d60248201527f455243313135353a20696e73756666696369656e742062616c616e63650000006044820152606401610979565b8473ffffffffffffffffffffffffffffffffffffffff168673ffffffffffffffffffffffffffffffffffffffff1614610edc5760008481526020888152604080832073ffffffffffffffffffffffffffffffffffffffff891684529091529020548381018181116132fd576040517f08c379a000000000000000000000000000000000000000000000000000000000815260206004820152601960248201527f455243313135353a2062616c616e6365206f766572666c6f77000000000000006044820152606401610979565b600086815260208a8152604080832073ffffffffffffffffffffffffffffffffffffffff808d1685528184528285208890558b1684529091529020555050505050505050565b366000333214806133545750601836105b156133625750600091369150565b3373ffffffffffffffffffffffffffffffffffffffff7f0000000000000000000000000000000000000000000000000000000000000000161480613497575073ffffffffffffffffffffffffffffffffffffffff7f000000000000000000000000000000000000000000000000000000000000000016638929a8ca367fffffffffffffffffffffffffffffffffffffffffffffffffffffffffffffffec013560601c6040517fffffffff0000000000000000000000000000000000000000000000000000000060e084901b16815273ffffffffffffffffffffffffffffffffffffffff9091166004820152336024820152604401602060405180830381865afa158015613473573d6000803e3d6000fd5b505050506040513d601f19601f820116820180604052508101906134979190614290565b156134a457610821613618565b50600091369150565b6040517ff23a6e61000000000000000000000000000000000000000000000000000000008082529073ffffffffffffffffffffffffffffffffffffffff86169063f23a6e6190612e88908a908a90899089908990600401614335565b600061356b826040518060400160405280602081526020017f5361666545524332303a206c6f772d6c6576656c2063616c6c206661696c65648152508573ffffffffffffffffffffffffffffffffffffffff166136499092919063ffffffff16565b905080516000148061358c57508080602001905181019061358c9190614290565b610773576040517f08c379a000000000000000000000000000000000000000000000000000000000815260206004820152602a60248201527f5361666545524332303a204552433230206f7065726174696f6e20646964206e60448201527f6f742073756363656564000000000000000000000000000000000000000000006064820152608401610979565b3660006108217fffffffffffffffffffffffffffffffffffffffffffffffffffffffffffffffec830182848161437a565b60606108468484600085856000808673ffffffffffffffffffffffffffffffffffffffff16858760405161367d91906143a4565b60006040518083038185875af1925050503d80600081146136ba576040519150601f19603f3d011682016040523d82523d6000602084013e6136bf565b606091505b50915091506136d0878383876136db565b979650505050505050565b6060831561377157825160000361376a5773ffffffffffffffffffffffffffffffffffffffff85163b61376a576040517f08c379a000000000000000000000000000000000000000000000000000000000815260206004820152601d60248201527f416464726573733a2063616c6c20746f206e6f6e2d636f6e74726163740000006044820152606401610979565b5081610846565b61084683838151156137865781518083602001fd5b806040517f08c379a000000000000000000000000000000000000000000000000000000000815260040161097991906138c8565b73ffffffffffffffffffffffffffffffffffffffff8116811461075157600080fd5b600080604083850312156137ef57600080fd5b82356137fa816137ba565b946020939093013593505050565b7fffffffff000000000000000000000000000000000000000000000000000000008116811461075157600080fd5b60006020828403121561384857600080fd5b813561385381613808565b9392505050565b60005b8381101561387557818101518382015260200161385d565b50506000910152565b6000815180845261389681602086016020860161385a565b601f017fffffffffffffffffffffffffffffffffffffffffffffffffffffffffffffffe0169290920160200192915050565b6020815260006105a4602083018461387e565b60008083601f8401126138ed57600080fd5b50813567ffffffffffffffff81111561390557600080fd5b6020830191508360208260051b850101111561079457600080fd5b60008083601f84011261393257600080fd5b50813567ffffffffffffffff81111561394a57600080fd5b60208301915083602082850101111561079457600080fd5b60008060008060008060006080888a03121561397d57600080fd5b8735613988816137ba565b9650602088013567ffffffffffffffff808211156139a557600080fd5b6139b18b838c016138db565b909850965060408a01359150808211156139ca57600080fd5b6139d68b838c016138db565b909650945060608a01359150808211156139ef57600080fd5b506139fc8a828b01613920565b989b979a50959850939692959293505050565b600060208284031215613a2157600080fd5b5035919050565b600060208284031215613a3a57600080fd5b8135613853816137ba565b600080600060608486031215613a5a57600080fd5b8335613a65816137ba565b95602085013595506040909401359392505050565b60008060408385031215613a8d57600080fd5b50508035926020909101359150565b60008060008060008060008060a0898b031215613ab857600080fd5b8835613ac3816137ba565b97506020890135613ad3816137ba565b9650604089013567ffffffffffffffff80821115613af057600080fd5b613afc8c838d016138db565b909850965060608b0135915080821115613b1557600080fd5b613b218c838d016138db565b909650945060808b0135915080821115613b3a57600080fd5b50613b478b828c01613920565b999c989b5096995094979396929594505050565b60008060408385031215613b6e57600080fd5b823591506020830135613b80816137ba565b809150509250929050565b60208152816020820152818360408301376000818301604090810191909152601f9092017fffffffffffffffffffffffffffffffffffffffffffffffffffffffffffffffe0160101919050565b60008060008060408587031215613bee57600080fd5b843567ffffffffffffffff80821115613c0657600080fd5b613c12888389016138db565b90965094506020870135915080821115613c2b57600080fd5b50613c38878288016138db565b95989497509550505050565b600081518084526020808501945080840160005b83811015613c7457815187529582019590820190600101613c58565b509495945050505050565b6020815260006105a46020830184613c44565b600080600080600060808688031215613caa57600080fd5b8535613cb5816137ba565b94506020860135935060408601359250606086013567ffffffffffffffff811115613cdf57600080fd5b613ceb88828901613920565b969995985093965092949392505050565b60008060008060008060608789031215613d1557600080fd5b863567ffffffffffffffff80821115613d2d57600080fd5b613d398a838b016138db565b90985096506020890135915080821115613d5257600080fd5b613d5e8a838b016138db565b90965094506040890135915080821115613d7757600080fd5b50613d8489828a016138db565b979a9699509497509295939492505050565b600080600080600060608688031215613dae57600080fd5b8535613db9816137ba565b9450602086013567ffffffffffffffff80821115613dd657600080fd5b613de289838a016138db565b90965094506040880135915080821115613dfb57600080fd5b50613ceb888289016138db565b801515811461075157600080fd5b60008060408385031215613e2957600080fd5b8235613e34816137ba565b91506020830135613b8081613e08565b6000806000806000806000806080898b031215613e6057600080fd5b883567ffffffffffffffff80821115613e7857600080fd5b613e848c838d016138db565b909a50985060208b0135915080821115613e9d57600080fd5b613ea98c838d016138db565b909850965060408b0135915080821115613ec257600080fd5b613ece8c838d016138db565b909650945060608b0135915080821115613b3a57600080fd5b60008060408385031215613efa57600080fd5b8235613f05816137ba565b91506020830135613b80816137ba565b60008060008060008060a08789031215613f2e57600080fd5b8635613f39816137ba565b95506020870135613f49816137ba565b94506040870135935060608701359250608087013567ffffffffffffffff811115613f7357600080fd5b613d8489828a01613920565b7f4e487b7100000000000000000000000000000000000000000000000000000000600052603260045260246000fd5b7f4e487b7100000000000000000000000000000000000000000000000000000000600052601160045260246000fd5b818103818111156105a7576105a7613fae565b600181811c9082168061400457607f821691505b60208210810361403d577f4e487b7100000000000000000000000000000000000000000000000000000000600052602260045260246000fd5b50919050565b7f416363657373436f6e74726f6c3a206d697373696e672027000000000000000081526000825161407b81601885016020870161385a565b7f2720726f6c6500000000000000000000000000000000000000000000000000006018939091019283015250601e01919050565b6040815260006140c26040830185613c44565b82810360208401526140d48185613c44565b95945050505050565b7f4e487b7100000000000000000000000000000000000000000000000000000000600052604160045260246000fd5b60006020828403121561411e57600080fd5b815167ffffffffffffffff8082111561413657600080fd5b818401915084601f83011261414a57600080fd5b81518181111561415c5761415c6140dd565b604051601f82017fffffffffffffffffffffffffffffffffffffffffffffffffffffffffffffffe0908116603f011681019083821181831017156141a2576141a26140dd565b816040528281528760208487010111156141bb57600080fd5b6136d083602083016020880161385a565b80820281158282048414176105a7576105a7613fae565b600082614219577f4e487b7100000000000000000000000000000000000000000000000000000000600052601260045260246000fd5b500490565b81835260007f07ffffffffffffffffffffffffffffffffffffffffffffffffffffffffffffff83111561425057600080fd5b8260051b80836020870137939093016020019392505050565b60408152600061427d60408301868861421e565b82810360208401526136d081858761421e565b6000602082840312156142a257600080fd5b815161385381613e08565b600073ffffffffffffffffffffffffffffffffffffffff808816835280871660208401525060a060408301526142e660a0830186613c44565b82810360608401526142f88186613c44565b9050828103608084015261430c818561387e565b98975050505050505050565b60006020828403121561432a57600080fd5b815161385381613808565b600073ffffffffffffffffffffffffffffffffffffffff808816835280871660208401525084604083015283606083015260a060808301526136d060a083018461387e565b6000808585111561438a57600080fd5b8386111561439757600080fd5b5050820193919092039150565b600082516143b681846020870161385a565b919091019291505056fea264697066735822122050a966ef898d0883a77c7787013fa914adb59132174a1ec9a5a4919af0e34acf64736f6c63430008130033",
  "linkReferences": {},
  "deployedLinkReferences": {}
}