{
  "_format": "hh-sol-artifact-1",
  "contractName": "CheckpointsFacet",
  "sourceName": "contracts/lifecycle/facets/CheckpointsFacet.sol",
  "abi": [
    {
      "inputs": [
        {
          "internalType": "contract IForwarderRegistry",
          "name": "forwarderRegistry",
          "type": "address"
        }
      ],
      "stateMutability": "nonpayable",
      "type": "constructor"
    },
    {
      "anonymous": false,
      "inputs": [
        {
          "indexed": false,
          "internalType": "bytes32",
          "name": "checkpointId",
          "type": "bytes32"
        },
        {
          "indexed": false,
          "internalType": "uint256",
          "name": "timestamp",
          "type": "uint256"
        }
      ],
      "name": "CheckpointSet",
      "type": "event"
    },
    {
      "inputs": [
        {
          "internalType": "bytes32[]",
          "name": "checkpointIds",
          "type": "bytes32[]"
        },
        {
          "internalType": "uint256[]",
          "name": "timestamps",
          "type": "uint256[]"
        }
      ],
      "name": "batchSetCheckpoint",
      "outputs": [],
      "stateMutability": "nonpayable",
      "type": "function"
    },
    {
      "inputs": [
        {
          "internalType": "bytes32",
          "name": "checkpointId",
          "type": "bytes32"
        }
      ],
      "name": "checkpoint",
      "outputs": [
        {
          "internalType": "uint256",
          "name": "",
          "type": "uint256"
        }
      ],
      "stateMutability": "view",
      "type": "function"
    },
    {
      "inputs": [
        {
          "internalType": "bytes32",
          "name": "checkpointId",
          "type": "bytes32"
        }
      ],
      "name": "checkpointReached",
      "outputs": [
        {
          "internalType": "bool",
          "name": "",
          "type": "bool"
        }
      ],
      "stateMutability": "view",
      "type": "function"
    },
    {
      "inputs": [
        {
          "internalType": "bytes32",
          "name": "checkpointId",
          "type": "bytes32"
        },
        {
          "internalType": "uint256",
          "name": "timestamp",
          "type": "uint256"
        }
      ],
      "name": "setCheckpoint",
      "outputs": [],
      "stateMutability": "nonpayable",
      "type": "function"
    },
    {
      "inputs": [
        {
          "internalType": "bytes32",
          "name": "checkpointId",
          "type": "bytes32"
        }
      ],
      "name": "triggerCheckpoint",
      "outputs": [],
      "stateMutability": "nonpayable",
      "type": "function"
    }
  ],
  "bytecode": "0x60a060405234801561000f575f80fd5b50604051610b4b380380610b4b83398101604081905261002e9161003f565b6001600160a01b031660805261006c565b5f6020828403121561004f575f80fd5b81516001600160a01b0381168114610065575f80fd5b9392505050565b608051610ac061008b5f395f81816104ef01526105770152610ac05ff3fe608060405234801561000f575f80fd5b5060043610610064575f3560e01c80634f410a801161004d5780634f410a80146100a55780635b34eba0146100b8578063deb4d746146100d9575f80fd5b8063151bdba6146100685780633b14936914610090575b5f80fd5b61007b6100763660046107a4565b6100ec565b60405190151581526020015b60405180910390f35b6100a361009e366004610803565b610105565b005b6100a36100b336600461086a565b61013c565b6100cb6100c63660046107a4565b61015f565b604051908152602001610087565b6100a36100e73660046107a4565b61017b565b5f6100ff826100f961019b565b906101c8565b92915050565b61011e6101106101ed565b6101186101fb565b90610228565b6101368484848461012d61019b565b939291906102b0565b50505050565b6101476101106101ed565b61015b828261015461019b565b9190610379565b5050565b5f6100ff8261016c61019b565b5f918252602052604090205490565b6101866101106101ed565b6101988161019261019b565b90610457565b50565b5f806100ff60017f0def758eb96c12015155889b8e63d1cb5c0dbce5585bbdf9d99ea353f56c716c61088a565b5f8181526020839052604081205480158015906101e55750804210155b949350505050565b5f6101f66104ad565b905090565b5f806100ff60017fc9ed16f33ab3a66c84bfd83099ccb2a8845871e2e1c1928f63797152f0fd54cd61088a565b815473ffffffffffffffffffffffffffffffffffffffff82811691161461015b576040517f08c379a000000000000000000000000000000000000000000000000000000000815260206004820152601860248201527f4f776e6572736869703a206e6f7420746865206f776e6572000000000000000060448201526064015b60405180910390fd5b8281811461031a576040517f08c379a000000000000000000000000000000000000000000000000000000000815260206004820152601f60248201527f436865636b706f696e74733a2077726f6e67206172726179206c656e6774680060448201526064016102a7565b5f5b81811461037057610368868683818110610338576103386108c2565b90506020020135858584818110610351576103516108c2565b90506020020135896103799092919063ffffffff16565b60010161031c565b50505050505050565b5f828152602084905260409020541561040357610395826105f1565b6040516020016103a59190610911565b604080517fffffffffffffffffffffffffffffffffffffffffffffffffffffffffffffffe0818403018152908290527f08c379a00000000000000000000000000000000000000000000000000000000082526102a79160040161097c565b8015610452575f828152602084815260409182902083905581518481529081018390527f099ea97db121bdf4a102e67113e27b6bb74713015b32a5f0e1c3ea0d44fb2953910160405180910390a15b505050565b610461828261077c565b5f818152602083815260409182902042908190558251848152918201527f099ea97db121bdf4a102e67113e27b6bb74713015b32a5f0e1c3ea0d44fb2953910160405180910390a15050565b5f333214806104bc5750601836105b156104c657503390565b7fffffffffffffffffffffffffffffffffffffffffffffffffffffffffffffffec36013560601c7f000000000000000000000000000000000000000000000000000000000000000073ffffffffffffffffffffffffffffffffffffffff163314806105e057506040517f8929a8ca00000000000000000000000000000000000000000000000000000000815273ffffffffffffffffffffffffffffffffffffffff82811660048301523360248301527f00000000000000000000000000000000000000000000000000000000000000001690638929a8ca90604401602060405180830381865afa1580156105bc573d5f803e3d5ffd5b505050506040513d601f19601f820116820180604052508101906105e091906109cc565b156105ea57919050565b3391505090565b60605f82900361060e57505060408051602081019091525f815290565b5f8260405160200161062291815260200190565b604080517fffffffffffffffffffffffffffffffffffffffffffffffffffffffffffffffe08184030181529190529050601f5b818181518110610667576106676108c2565b01602001517fff00000000000000000000000000000000000000000000000000000000000000165f036106bb577fffffffffffffffffffffffffffffffffffffffffffffffffffffffffffffffff01610655565b5f8160010167ffffffffffffffff8111156106d8576106d86109f2565b6040519080825280601f01601f191660200182016040528015610702576020820181803683370190505b5090505f5b82811161077357838181518110610720576107206108c2565b602001015160f81c60f81b82828151811061073d5761073d6108c2565b60200101907effffffffffffffffffffffffffffffffffffffffffffffffffffffffffffff191690815f1a905350600101610707565b50949350505050565b61078682826101c8565b1561015b57610794816105f1565b6040516020016103a59190610a1f565b5f602082840312156107b4575f80fd5b5035919050565b5f8083601f8401126107cb575f80fd5b50813567ffffffffffffffff8111156107e2575f80fd5b6020830191508360208260051b85010111156107fc575f80fd5b9250929050565b5f805f8060408587031215610816575f80fd5b843567ffffffffffffffff8082111561082d575f80fd5b610839888389016107bb565b90965094506020870135915080821115610851575f80fd5b5061085e878288016107bb565b95989497509550505050565b5f806040838503121561087b575f80fd5b50508035926020909101359150565b818103818111156100ff577f4e487b71000000000000000000000000000000000000000000000000000000005f52601160045260245ffd5b7f4e487b71000000000000000000000000000000000000000000000000000000005f52603260045260245ffd5b5f5b838110156109095781810151838201526020016108f1565b50505f910152565b7f436865636b706f696e74733a20636865636b706f696e7420270000000000000081525f82516109488160198501602087016108ef565b7f2720616c726561647920736574000000000000000000000000000000000000006019939091019283015250602601919050565b602081525f825180602084015261099a8160408501602087016108ef565b601f017fffffffffffffffffffffffffffffffffffffffffffffffffffffffffffffffe0169190910160400192915050565b5f602082840312156109dc575f80fd5b815180151581146109eb575f80fd5b9392505050565b7f4e487b71000000000000000000000000000000000000000000000000000000005f52604160045260245ffd5b7f436865636b706f696e74733a20636865636b706f696e7420270000000000000081525f8251610a568160198501602087016108ef565b7f2720616c726561647920726561636865640000000000000000000000000000006019939091019283015250602a0191905056fea264697066735822122004e74fa3225864ab65504e8fed9cf9953da12df630032ded785934cc34d6282d64736f6c63430008150033",
  "linkReferences": {},
  "deployedLinkReferences": {}
}