{
  "_format": "hh-sol-artifact-1",
  "contractName": "CheckpointsFacet",
  "sourceName": "contracts/lifecycle/facets/CheckpointsFacet.sol",
  "abi": [
    {
      "inputs": [
        {
          "internalType": "contract IForwarderRegistry",
          "name": "forwarderRegistry",
          "type": "address"
        }
      ],
      "stateMutability": "nonpayable",
      "type": "constructor"
    },
    {
      "inputs": [
        {
          "internalType": "bytes32",
          "name": "checkpointId",
          "type": "bytes32"
        }
      ],
      "name": "CheckpointAlreadySet",
      "type": "error"
    },
    {
      "inputs": [
        {
          "internalType": "bytes32",
          "name": "checkpointId",
          "type": "bytes32"
        }
      ],
      "name": "CheckpointReached",
      "type": "error"
    },
    {
      "inputs": [],
      "name": "InconsistentArrayLengths",
      "type": "error"
    },
    {
      "inputs": [
        {
          "internalType": "address",
          "name": "account",
          "type": "address"
        }
      ],
      "name": "NotContractOwner",
      "type": "error"
    },
    {
      "anonymous": false,
      "inputs": [
        {
          "indexed": false,
          "internalType": "bytes32",
          "name": "checkpointId",
          "type": "bytes32"
        },
        {
          "indexed": false,
          "internalType": "uint256",
          "name": "timestamp",
          "type": "uint256"
        }
      ],
      "name": "CheckpointSet",
      "type": "event"
    },
    {
      "inputs": [
        {
          "internalType": "bytes32[]",
          "name": "checkpointIds",
          "type": "bytes32[]"
        },
        {
          "internalType": "uint256[]",
          "name": "timestamps",
          "type": "uint256[]"
        }
      ],
      "name": "batchSetCheckpoint",
      "outputs": [],
      "stateMutability": "nonpayable",
      "type": "function"
    },
    {
      "inputs": [
        {
          "internalType": "bytes32",
          "name": "checkpointId",
          "type": "bytes32"
        }
      ],
      "name": "checkpoint",
      "outputs": [
        {
          "internalType": "uint256",
          "name": "",
          "type": "uint256"
        }
      ],
      "stateMutability": "view",
      "type": "function"
    },
    {
      "inputs": [
        {
          "internalType": "bytes32",
          "name": "checkpointId",
          "type": "bytes32"
        }
      ],
      "name": "checkpointReached",
      "outputs": [
        {
          "internalType": "bool",
          "name": "",
          "type": "bool"
        }
      ],
      "stateMutability": "view",
      "type": "function"
    },
    {
      "inputs": [
        {
          "internalType": "bytes32",
          "name": "checkpointId",
          "type": "bytes32"
        },
        {
          "internalType": "uint256",
          "name": "timestamp",
          "type": "uint256"
        }
      ],
      "name": "setCheckpoint",
      "outputs": [],
      "stateMutability": "nonpayable",
      "type": "function"
    },
    {
      "inputs": [
        {
          "internalType": "bytes32",
          "name": "checkpointId",
          "type": "bytes32"
        }
      ],
      "name": "triggerCheckpoint",
      "outputs": [],
      "stateMutability": "nonpayable",
      "type": "function"
    }
  ],
  "bytecode": "0x60a0604052348015600f57600080fd5b50604051610805380380610805833981016040819052602c91603c565b6001600160a01b0316608052606a565b600060208284031215604d57600080fd5b81516001600160a01b0381168114606357600080fd5b9392505050565b60805161077961008c6000396000818161047601526104fe01526107796000f3fe608060405234801561001057600080fd5b50600436106100675760003560e01c80634f410a80116100505780634f410a80146100a95780635b34eba0146100bc578063deb4d746146100dd57600080fd5b8063151bdba61461006c5780633b14936914610094575b600080fd5b61007f61007a3660046105be565b6100f0565b60405190151581526020015b60405180910390f35b6100a76100a2366004610623565b61010a565b005b6100a76100b736600461068f565b610141565b6100cf6100ca3660046105be565b610164565b60405190815260200161008b565b6100a76100eb3660046105be565b610182565b6000610104826100fe6101a2565b906101d0565b92915050565b6101236101156101f6565b61011d610205565b90610233565b61013b848484846101326101a2565b939291906102a3565b50505050565b61014c6101156101f6565b61016082826101596101a2565b919061033e565b5050565b6000610104826101726101a2565b6000918252602052604090205490565b61018d6101156101f6565b61019f816101996101a2565b906103dc565b50565b60008061010460017f0def758eb96c12015155889b8e63d1cb5c0dbce5585bbdf9d99ea353f56c716c6106b1565b60008181526020839052604081205480158015906101ee5750804210155b949350505050565b6000610200610433565b905090565b60008061010460017fc9ed16f33ab3a66c84bfd83099ccb2a8845871e2e1c1928f63797152f0fd54cd6106b1565b815473ffffffffffffffffffffffffffffffffffffffff828116911614610160576040517f2ef4875e00000000000000000000000000000000000000000000000000000000815273ffffffffffffffffffffffffffffffffffffffff821660048201526024015b60405180910390fd5b828181146102dd576040517f6582533600000000000000000000000000000000000000000000000000000000815260040160405180910390fd5b60005b818110156103355761032d8686838181106102fd576102fd6106eb565b90506020020135858584818110610316576103166106eb565b905060200201358961033e9092919063ffffffff16565b6001016102e0565b50505050505050565b60008281526020849052604090205415610387576040517f33e962eb0000000000000000000000000000000000000000000000000000000081526004810183905260240161029a565b80156103d7576000828152602084815260409182902083905581518481529081018390527f099ea97db121bdf4a102e67113e27b6bb74713015b32a5f0e1c3ea0d44fb2953910160405180910390a15b505050565b6103e6828261057a565b6000818152602083815260409182902042908190558251848152918201527f099ea97db121bdf4a102e67113e27b6bb74713015b32a5f0e1c3ea0d44fb2953910160405180910390a15050565b6000333214806104435750601836105b1561044d57503390565b7fffffffffffffffffffffffffffffffffffffffffffffffffffffffffffffffec36013560601c7f000000000000000000000000000000000000000000000000000000000000000073ffffffffffffffffffffffffffffffffffffffff1633148061056957506040517f8929a8ca00000000000000000000000000000000000000000000000000000000815273ffffffffffffffffffffffffffffffffffffffff82811660048301523360248301527f00000000000000000000000000000000000000000000000000000000000000001690638929a8ca90604401602060405180830381865afa158015610545573d6000803e3d6000fd5b505050506040513d601f19601f82011682018060405250810190610569919061071a565b1561057357919050565b3391505090565b61058482826101d0565b15610160576040517f8e54d9090000000000000000000000000000000000000000000000000000000081526004810182905260240161029a565b6000602082840312156105d057600080fd5b5035919050565b60008083601f8401126105e957600080fd5b50813567ffffffffffffffff81111561060157600080fd5b6020830191508360208260051b850101111561061c57600080fd5b9250929050565b6000806000806040858703121561063957600080fd5b843567ffffffffffffffff8082111561065157600080fd5b61065d888389016105d7565b9096509450602087013591508082111561067657600080fd5b50610683878288016105d7565b95989497509550505050565b600080604083850312156106a257600080fd5b50508035926020909101359150565b81810381811115610104577f4e487b7100000000000000000000000000000000000000000000000000000000600052601160045260246000fd5b7f4e487b7100000000000000000000000000000000000000000000000000000000600052603260045260246000fd5b60006020828403121561072c57600080fd5b8151801515811461073c57600080fd5b939250505056fea26469706673582212203be4cf2fef5577825d67ab88dbef8dbe2670dc53892a5000e261393128a58ee364736f6c63430008190033",
  "linkReferences": {},
  "deployedLinkReferences": {}
}