{
  "_format": "hh-sol-artifact-1",
  "contractName": "CheckpointsFacet",
  "sourceName": "contracts/lifecycle/facets/CheckpointsFacet.sol",
  "abi": [
    {
      "inputs": [
        {
          "internalType": "contract IForwarderRegistry",
          "name": "forwarderRegistry",
          "type": "address"
        }
      ],
      "stateMutability": "nonpayable",
      "type": "constructor"
    },
    {
      "anonymous": false,
      "inputs": [
        {
          "indexed": false,
          "internalType": "bytes32",
          "name": "checkpointId",
          "type": "bytes32"
        },
        {
          "indexed": false,
          "internalType": "uint256",
          "name": "timestamp",
          "type": "uint256"
        }
      ],
      "name": "CheckpointSet",
      "type": "event"
    },
    {
      "inputs": [
        {
          "internalType": "bytes32",
          "name": "checkpointId",
          "type": "bytes32"
        }
      ],
      "name": "checkpoint",
      "outputs": [
        {
          "internalType": "uint256",
          "name": "",
          "type": "uint256"
        }
      ],
      "stateMutability": "view",
      "type": "function"
    },
    {
      "inputs": [
        {
          "internalType": "bytes32",
          "name": "checkpointId",
          "type": "bytes32"
        }
      ],
      "name": "checkpointReached",
      "outputs": [
        {
          "internalType": "bool",
          "name": "",
          "type": "bool"
        }
      ],
      "stateMutability": "view",
      "type": "function"
    },
    {
      "inputs": [
        {
          "internalType": "bytes32[]",
          "name": "checkpointIds",
          "type": "bytes32[]"
        },
        {
          "internalType": "uint256[]",
          "name": "timestamps",
          "type": "uint256[]"
        }
      ],
      "name": "initCheckpointsStorage",
      "outputs": [],
      "stateMutability": "nonpayable",
      "type": "function"
    },
    {
      "inputs": [
        {
          "internalType": "bytes32",
          "name": "checkpointId",
          "type": "bytes32"
        },
        {
          "internalType": "uint256",
          "name": "timestamp",
          "type": "uint256"
        }
      ],
      "name": "setCheckpoint",
      "outputs": [],
      "stateMutability": "nonpayable",
      "type": "function"
    },
    {
      "inputs": [
        {
          "internalType": "bytes32",
          "name": "checkpointId",
          "type": "bytes32"
        }
      ],
      "name": "triggerCheckpoint",
      "outputs": [],
      "stateMutability": "nonpayable",
      "type": "function"
    }
  ],
  "bytecode": "0x60a060405234801561001057600080fd5b50604051610da6380380610da683398101604081905261002f91610040565b6001600160a01b0316608052610070565b60006020828403121561005257600080fd5b81516001600160a01b038116811461006957600080fd5b9392505050565b608051610d1461009260003960008181610597015261061f0152610d146000f3fe608060405234801561001057600080fd5b50600436106100665760003560e01c80634f410a80116100505780634f410a80146100a85780635b34eba0146100bb578063deb4d746146100dc57600080fd5b8062cb171d1461006b578063151bdba614610080575b600080fd5b61007e610079366004610a29565b6100ef565b005b61009361008e366004610a95565b610186565b60405190151581526020015b60405180910390f35b61007e6100b6366004610aae565b6101a0565b6100ce6100c9366004610a95565b6101d1565b60405190815260200161009f565b61007e6100ea366004610a95565b6101ef565b6101086100fa61020f565b61010261021e565b9061024c565b6101808484808060200260200160405190810160405280939291908181526020018383602002808284376000920191909152505060408051602080880282810182019093528782529093508792508691829185019084908082843760009201919091525061017992506102d4915050565b9190610302565b50505050565b600061019a826101946102d4565b90610347565b92915050565b6101b96101ab61020f565b6101b361036d565b9061039b565b6101cd82826101c66102d4565b919061041e565b5050565b600061019a826101df6102d4565b6000918252602052604090205490565b6101fa6101ab61020f565b61020c816102066102d4565b906104fd565b50565b6000610219610554565b905090565b60008061019a60017fb53127684a568b3173ae13b9f8a6016e243e63b6e8ee1178d6a717850b5d6104610ad0565b815473ffffffffffffffffffffffffffffffffffffffff8281169116146101cd576040517f08c379a000000000000000000000000000000000000000000000000000000000815260206004820152601960248201527f50726f787941646d696e3a206e6f74207468652061646d696e0000000000000060448201526064015b60405180910390fd5b60008061019a60017f0def758eb96c12015155889b8e63d1cb5c0dbce5585bbdf9d99ea353f56c716c610ad0565b61033761033060017f196e5733a2e7d65819650a38085014d2c42b0e9cb19fece2fe9c43f2c650b898610ad0565b600161069b565b61034283838361070b565b505050565b60008181526020839052604081205480158015906103655750804210155b949350505050565b60008061019a60017fc9ed16f33ab3a66c84bfd83099ccb2a8845871e2e1c1928f63797152f0fd54cd610ad0565b815473ffffffffffffffffffffffffffffffffffffffff8281169116146101cd576040517f08c379a000000000000000000000000000000000000000000000000000000000815260206004820152601860248201527f4f776e6572736869703a206e6f7420746865206f776e6572000000000000000060448201526064016102cb565b600082815260208490526040902054156104a95761043b82610823565b60405160200161044b9190610b2e565b604080517fffffffffffffffffffffffffffffffffffffffffffffffffffffffffffffffe0818403018152908290527f08c379a00000000000000000000000000000000000000000000000000000000082526102cb91600401610b9a565b8015610342576000828152602084815260409182902083905581518481529081018390527f099ea97db121bdf4a102e67113e27b6bb74713015b32a5f0e1c3ea0d44fb2953910160405180910390a1505050565b61050782826109b5565b6000818152602083815260409182902042908190558251848152918201527f099ea97db121bdf4a102e67113e27b6bb74713015b32a5f0e1c3ea0d44fb2953910160405180910390a15050565b6000333214806105645750601836105b1561056e57503390565b7fffffffffffffffffffffffffffffffffffffffffffffffffffffffffffffffec36013560601c7f000000000000000000000000000000000000000000000000000000000000000073ffffffffffffffffffffffffffffffffffffffff1633148061068a57506040517f8929a8ca00000000000000000000000000000000000000000000000000000000815273ffffffffffffffffffffffffffffffffffffffff82811660048301523360248301527f00000000000000000000000000000000000000000000000000000000000000001690638929a8ca90604401602060405180830381865afa158015610666573d6000803e3d6000fd5b505050506040513d601f19601f8201168201806040525081019061068a9190610beb565b1561069457919050565b3391505090565b815482908211610707576040517f08c379a000000000000000000000000000000000000000000000000000000000815260206004820152601660248201527f53746f726167653a20706861736520726561636865640000000000000000000060448201526064016102cb565b5550565b815181518114610777576040517f08c379a000000000000000000000000000000000000000000000000000000000815260206004820152601f60248201527f436865636b706f696e74733a2077726f6e67206172726179206c656e6774680060448201526064016102cb565b60005b81811461081c57600083828151811061079557610795610c14565b60200260200101519050806000146108135760008583815181106107bb576107bb610c14565b602090810291909101810151600081815289835260409081902085905580518281529283018590529092507f099ea97db121bdf4a102e67113e27b6bb74713015b32a5f0e1c3ea0d44fb2953910160405180910390a1505b5060010161077a565b5050505050565b6060600082900361084257505060408051602081019091526000815290565b60008260405160200161085791815260200190565b604080517fffffffffffffffffffffffffffffffffffffffffffffffffffffffffffffffe08184030181529190529050601f5b81818151811061089c5761089c610c14565b01602001517fff00000000000000000000000000000000000000000000000000000000000000166000036108f1577fffffffffffffffffffffffffffffffffffffffffffffffffffffffffffffffff0161088a565b60008160010167ffffffffffffffff81111561090f5761090f610c43565b6040519080825280601f01601f191660200182016040528015610939576020820181803683370190505b50905060005b8281116109ac5783818151811061095857610958610c14565b602001015160f81c60f81b82828151811061097557610975610c14565b60200101907effffffffffffffffffffffffffffffffffffffffffffffffffffffffffffff1916908160001a90535060010161093f565b50949350505050565b6109bf8282610347565b156101cd576109cd81610823565b60405160200161044b9190610c72565b60008083601f8401126109ef57600080fd5b50813567ffffffffffffffff811115610a0757600080fd5b6020830191508360208260051b8501011115610a2257600080fd5b9250929050565b60008060008060408587031215610a3f57600080fd5b843567ffffffffffffffff80821115610a5757600080fd5b610a63888389016109dd565b90965094506020870135915080821115610a7c57600080fd5b50610a89878288016109dd565b95989497509550505050565b600060208284031215610aa757600080fd5b5035919050565b60008060408385031215610ac157600080fd5b50508035926020909101359150565b8181038181111561019a577f4e487b7100000000000000000000000000000000000000000000000000000000600052601160045260246000fd5b60005b83811015610b25578181015183820152602001610b0d565b50506000910152565b7f436865636b706f696e74733a20636865636b706f696e74202700000000000000815260008251610b66816019850160208701610b0a565b7f2720616c726561647920736574000000000000000000000000000000000000006019939091019283015250602601919050565b6020815260008251806020840152610bb9816040850160208701610b0a565b601f017fffffffffffffffffffffffffffffffffffffffffffffffffffffffffffffffe0169190910160400192915050565b600060208284031215610bfd57600080fd5b81518015158114610c0d57600080fd5b9392505050565b7f4e487b7100000000000000000000000000000000000000000000000000000000600052603260045260246000fd5b7f4e487b7100000000000000000000000000000000000000000000000000000000600052604160045260246000fd5b7f436865636b706f696e74733a20636865636b706f696e74202700000000000000815260008251610caa816019850160208701610b0a565b7f2720616c726561647920726561636865640000000000000000000000000000006019939091019283015250602a0191905056fea2646970667358221220e9bbec1bad86b145e1db2585de0796673cb63d8f8fc6d68c6bfddeb80ec4eddb64736f6c63430008110033",
  "linkReferences": {},
  "deployedLinkReferences": {}
}