{
  "_format": "hh-sol-artifact-1",
  "contractName": "TokenMetadataResolverTwoStepsReveal",
  "sourceName": "contracts/token/metadata/TokenMetadataResolverTwoStepsReveal.sol",
  "abi": [
    {
      "inputs": [
        {
          "internalType": "address",
          "name": "tokenContract",
          "type": "address"
        }
      ],
      "name": "BaseMetadataURIsAlreadySet",
      "type": "error"
    },
    {
      "inputs": [
        {
          "internalType": "address",
          "name": "tokenContract",
          "type": "address"
        }
      ],
      "name": "BaseMetadataURIsNotSet",
      "type": "error"
    },
    {
      "inputs": [
        {
          "internalType": "address",
          "name": "tokenContract",
          "type": "address"
        },
        {
          "internalType": "string",
          "name": "preRevealBaseMetadataURI",
          "type": "string"
        },
        {
          "internalType": "string",
          "name": "postRevealBaseMetadataURI",
          "type": "string"
        }
      ],
      "name": "EmptyBaseMetadataURIs",
      "type": "error"
    },
    {
      "inputs": [
        {
          "internalType": "address",
          "name": "targetContract",
          "type": "address"
        },
        {
          "internalType": "address",
          "name": "account",
          "type": "address"
        }
      ],
      "name": "NotTargetContractOwner",
      "type": "error"
    },
    {
      "inputs": [
        {
          "internalType": "address",
          "name": "tokenContract",
          "type": "address"
        }
      ],
      "name": "TokensAlreadyRevealed",
      "type": "error"
    },
    {
      "anonymous": false,
      "inputs": [
        {
          "indexed": false,
          "internalType": "address",
          "name": "tokenContract",
          "type": "address"
        },
        {
          "indexed": false,
          "internalType": "string",
          "name": "preRevealBaseMetadataURI",
          "type": "string"
        },
        {
          "indexed": false,
          "internalType": "string",
          "name": "postRevealBaseMetadataURI",
          "type": "string"
        }
      ],
      "name": "BaseMetadataURIsSet",
      "type": "event"
    },
    {
      "anonymous": false,
      "inputs": [
        {
          "indexed": false,
          "internalType": "address",
          "name": "tokenContract",
          "type": "address"
        }
      ],
      "name": "TokensRevealed",
      "type": "event"
    },
    {
      "inputs": [
        {
          "internalType": "address",
          "name": "",
          "type": "address"
        }
      ],
      "name": "isTokenRevealed",
      "outputs": [
        {
          "internalType": "bool",
          "name": "",
          "type": "bool"
        }
      ],
      "stateMutability": "view",
      "type": "function"
    },
    {
      "inputs": [
        {
          "internalType": "address",
          "name": "",
          "type": "address"
        }
      ],
      "name": "postRevealBaseMetadataURI",
      "outputs": [
        {
          "internalType": "string",
          "name": "",
          "type": "string"
        }
      ],
      "stateMutability": "view",
      "type": "function"
    },
    {
      "inputs": [
        {
          "internalType": "address",
          "name": "",
          "type": "address"
        }
      ],
      "name": "preRevealBaseMetadataURI",
      "outputs": [
        {
          "internalType": "string",
          "name": "",
          "type": "string"
        }
      ],
      "stateMutability": "view",
      "type": "function"
    },
    {
      "inputs": [
        {
          "internalType": "address",
          "name": "tokenContract",
          "type": "address"
        }
      ],
      "name": "revealTokens",
      "outputs": [],
      "stateMutability": "nonpayable",
      "type": "function"
    },
    {
      "inputs": [
        {
          "internalType": "address",
          "name": "tokenContract",
          "type": "address"
        },
        {
          "internalType": "string",
          "name": "preRevealBaseURI",
          "type": "string"
        },
        {
          "internalType": "string",
          "name": "postRevealBaseURI",
          "type": "string"
        }
      ],
      "name": "setBaseMetadataURIs",
      "outputs": [],
      "stateMutability": "nonpayable",
      "type": "function"
    },
    {
      "inputs": [
        {
          "internalType": "address",
          "name": "tokenContract",
          "type": "address"
        },
        {
          "internalType": "uint256",
          "name": "tokenId",
          "type": "uint256"
        }
      ],
      "name": "tokenMetadataURI",
      "outputs": [
        {
          "internalType": "string",
          "name": "tokenURI",
          "type": "string"
        }
      ],
      "stateMutability": "view",
      "type": "function"
    }
  ],
  "bytecode": "0x608060405234801561000f575f80fd5b50610d668061001d5f395ff3fe608060405234801561000f575f80fd5b506004361061006f575f3560e01c8063ebb446221161004d578063ebb44622146100c4578063f4f0ec48146100f6578063f724dad714610109575f80fd5b80636b0fce131461007357806378fa47e11461009c578063da0455dd146100af575b5f80fd5b61008661008136600461087b565b61011c565b60405161009391906108bf565b60405180910390f35b6100866100aa36600461087b565b6101b3565b6100c26100bd36600461087b565b6101cb565b005b6100e66100d236600461087b565b5f6020819052908152604090205460ff1681565b6040519015158152602001610093565b6100c2610104366004610954565b61036a565b6100866101173660046109d1565b6104fc565b60026020525f908152604090208054610134906109fb565b80601f0160208091040260200160405190810160405280929190818152602001828054610160906109fb565b80156101ab5780601f10610182576101008083540402835291602001916101ab565b820191905f5260205f20905b81548152906001019060200180831161018e57829003601f168201915b505050505081565b60016020525f908152604090208054610134906109fb565b6101eb73ffffffffffffffffffffffffffffffffffffffff8216336105b3565b73ffffffffffffffffffffffffffffffffffffffff81165f908152600160205260409020805461021a906109fb565b90505f03610271576040517f5351876700000000000000000000000000000000000000000000000000000000815273ffffffffffffffffffffffffffffffffffffffff821660048201526024015b60405180910390fd5b73ffffffffffffffffffffffffffffffffffffffff81165f9081526020819052604090205460ff16156102e8576040517fd2a6a91e00000000000000000000000000000000000000000000000000000000815273ffffffffffffffffffffffffffffffffffffffff82166004820152602401610268565b73ffffffffffffffffffffffffffffffffffffffff81165f818152602081815260409182902080547fffffffffffffffffffffffffffffffffffffffffffffffffffffffffffffff0016600117905590519182527fdc874c2d91eb868001590817e44167423d07b9ec4c38e67abdffd82668436275910160405180910390a150565b821580610375575080155b156103b65784848484846040517fdcacb1ae000000000000000000000000000000000000000000000000000000008152600401610268959493929190610a93565b6103d673ffffffffffffffffffffffffffffffffffffffff8616336105b3565b73ffffffffffffffffffffffffffffffffffffffff85165f9081526001602052604090208054610405906109fb565b159050610456576040517f4def256f00000000000000000000000000000000000000000000000000000000815273ffffffffffffffffffffffffffffffffffffffff86166004820152602401610268565b73ffffffffffffffffffffffffffffffffffffffff85165f908152600160205260409020610485848683610b5c565b5073ffffffffffffffffffffffffffffffffffffffff85165f9081526002602052604090206104b5828483610b5c565b507f489321785c6059b2a055d3a95981b8a5167c0e01c1a19ad023e0178f0e18000485858585856040516104ed959493929190610a93565b60405180910390a15050505050565b73ffffffffffffffffffffffffffffffffffffffff82165f9081526020819052604090205460609060ff16156105805773ffffffffffffffffffffffffffffffffffffffff83165f90815260026020526040902061055983610617565b60405160200161056a929190610c74565b60405160208183030381529060405290506105ad565b73ffffffffffffffffffffffffffffffffffffffff83165f90815260016020526040902061055983610617565b92915050565b6105bd82826106d3565b610613576040517f29b9b08b00000000000000000000000000000000000000000000000000000000815273ffffffffffffffffffffffffffffffffffffffff808416600483015282166024820152604401610268565b5050565b60605f61062383610776565b60010190505f8167ffffffffffffffff81111561064257610642610ae1565b6040519080825280601f01601f19166020018201604052801561066c576020820181803683370190505b5090508181016020015b7fffffffffffffffffffffffffffffffffffffffffffffffffffffffffffffffff017f3031323334353637383961626364656600000000000000000000000000000000600a86061a8153600a850494508461067657509392505050565b5f8173ffffffffffffffffffffffffffffffffffffffff168373ffffffffffffffffffffffffffffffffffffffff16638da5cb5b6040518163ffffffff1660e01b8152600401602060405180830381865afa158015610734573d5f803e3d5ffd5b505050506040513d601f19601f820116820180604052508101906107589190610d15565b73ffffffffffffffffffffffffffffffffffffffff16149392505050565b5f807a184f03e93ff9f4daa797ed6e38ed64bf6a1f01000000000000000083106107be577a184f03e93ff9f4daa797ed6e38ed64bf6a1f010000000000000000830492506040015b6d04ee2d6d415b85acef810000000083106107ea576d04ee2d6d415b85acef8100000000830492506020015b662386f26fc10000831061080857662386f26fc10000830492506010015b6305f5e1008310610820576305f5e100830492506008015b612710831061083457612710830492506004015b60648310610846576064830492506002015b600a83106105ad5760010192915050565b73ffffffffffffffffffffffffffffffffffffffff81168114610878575f80fd5b50565b5f6020828403121561088b575f80fd5b813561089681610857565b9392505050565b5f5b838110156108b757818101518382015260200161089f565b50505f910152565b602081525f82518060208401526108dd81604085016020870161089d565b601f017fffffffffffffffffffffffffffffffffffffffffffffffffffffffffffffffe0169190910160400192915050565b5f8083601f84011261091f575f80fd5b50813567ffffffffffffffff811115610936575f80fd5b60208301915083602082850101111561094d575f80fd5b9250929050565b5f805f805f60608688031215610968575f80fd5b853561097381610857565b9450602086013567ffffffffffffffff8082111561098f575f80fd5b61099b89838a0161090f565b909650945060408801359150808211156109b3575f80fd5b506109c08882890161090f565b969995985093965092949392505050565b5f80604083850312156109e2575f80fd5b82356109ed81610857565b946020939093013593505050565b600181811c90821680610a0f57607f821691505b602082108103610a46577f4e487b71000000000000000000000000000000000000000000000000000000005f52602260045260245ffd5b50919050565b81835281816020850137505f602082840101525f60207fffffffffffffffffffffffffffffffffffffffffffffffffffffffffffffffe0601f840116840101905092915050565b73ffffffffffffffffffffffffffffffffffffffff86168152606060208201525f610ac2606083018688610a4c565b8281036040840152610ad5818587610a4c565b98975050505050505050565b7f4e487b71000000000000000000000000000000000000000000000000000000005f52604160045260245ffd5b601f821115610b57575f81815260208120601f850160051c81016020861015610b345750805b601f850160051c820191505b81811015610b5357828155600101610b40565b5050505b505050565b67ffffffffffffffff831115610b7457610b74610ae1565b610b8883610b8283546109fb565b83610b0e565b5f601f841160018114610bd8575f8515610ba25750838201355b7fffffffffffffffffffffffffffffffffffffffffffffffffffffffffffffffff600387901b1c1916600186901b178355610c6d565b5f838152602090207fffffffffffffffffffffffffffffffffffffffffffffffffffffffffffffffe0861690835b82811015610c265786850135825560209485019460019092019101610c06565b5086821015610c61577fffffffffffffffffffffffffffffffffffffffffffffffffffffffffffffffff60f88860031b161c19848701351681555b505060018560011b0183555b5050505050565b5f808454610c81816109fb565b60018281168015610c995760018114610ccc57610cf8565b7fffffffffffffffffffffffffffffffffffffffffffffffffffffffffffffff0084168752821515830287019450610cf8565b885f526020805f205f5b85811015610cef5781548a820152908401908201610cd6565b50505082870194505b505050508351610d0c81836020880161089d565b01949350505050565b5f60208284031215610d25575f80fd5b81516108968161085756fea2646970667358221220c1b96c515c393092808ec977a91a7fba8ceb6158fb8d67629bf190ee3051de4564736f6c63430008150033",
  "linkReferences": {},
  "deployedLinkReferences": {}
}