{
  "_format": "hh-sol-artifact-1",
  "contractName": "SealedExecutor",
  "sourceName": "contracts/security/SealedExecutor.sol",
  "abi": [
    {
      "inputs": [
        {
          "internalType": "contract IForwarderRegistry",
          "name": "forwarderRegistry",
          "type": "address"
        }
      ],
      "stateMutability": "nonpayable",
      "type": "constructor"
    },
    {
      "inputs": [
        {
          "internalType": "uint256",
          "name": "sealId",
          "type": "uint256"
        }
      ],
      "name": "AlreadySealed",
      "type": "error"
    },
    {
      "inputs": [],
      "name": "IllegalInterfaceId",
      "type": "error"
    },
    {
      "inputs": [
        {
          "internalType": "address",
          "name": "account",
          "type": "address"
        }
      ],
      "name": "NotContractOwner",
      "type": "error"
    },
    {
      "inputs": [
        {
          "internalType": "bytes32",
          "name": "role",
          "type": "bytes32"
        },
        {
          "internalType": "address",
          "name": "account",
          "type": "address"
        }
      ],
      "name": "NotRoleHolder",
      "type": "error"
    },
    {
      "anonymous": false,
      "inputs": [
        {
          "indexed": true,
          "internalType": "address",
          "name": "previousOwner",
          "type": "address"
        },
        {
          "indexed": true,
          "internalType": "address",
          "name": "newOwner",
          "type": "address"
        }
      ],
      "name": "OwnershipTransferred",
      "type": "event"
    },
    {
      "anonymous": false,
      "inputs": [
        {
          "indexed": false,
          "internalType": "bytes32",
          "name": "role",
          "type": "bytes32"
        },
        {
          "indexed": false,
          "internalType": "address",
          "name": "account",
          "type": "address"
        },
        {
          "indexed": false,
          "internalType": "address",
          "name": "operator",
          "type": "address"
        }
      ],
      "name": "RoleGranted",
      "type": "event"
    },
    {
      "anonymous": false,
      "inputs": [
        {
          "indexed": false,
          "internalType": "bytes32",
          "name": "role",
          "type": "bytes32"
        },
        {
          "indexed": false,
          "internalType": "address",
          "name": "account",
          "type": "address"
        },
        {
          "indexed": false,
          "internalType": "address",
          "name": "operator",
          "type": "address"
        }
      ],
      "name": "RoleRevoked",
      "type": "event"
    },
    {
      "anonymous": false,
      "inputs": [
        {
          "indexed": false,
          "internalType": "uint256",
          "name": "sealId",
          "type": "uint256"
        },
        {
          "indexed": false,
          "internalType": "address",
          "name": "sealer",
          "type": "address"
        }
      ],
      "name": "Sealed",
      "type": "event"
    },
    {
      "inputs": [],
      "name": "SEALER_ROLE",
      "outputs": [
        {
          "internalType": "bytes32",
          "name": "",
          "type": "bytes32"
        }
      ],
      "stateMutability": "view",
      "type": "function"
    },
    {
      "inputs": [
        {
          "internalType": "bytes32",
          "name": "role",
          "type": "bytes32"
        },
        {
          "internalType": "address",
          "name": "account",
          "type": "address"
        }
      ],
      "name": "grantRole",
      "outputs": [],
      "stateMutability": "nonpayable",
      "type": "function"
    },
    {
      "inputs": [
        {
          "internalType": "bytes32",
          "name": "role",
          "type": "bytes32"
        },
        {
          "internalType": "address",
          "name": "account",
          "type": "address"
        }
      ],
      "name": "hasRole",
      "outputs": [
        {
          "internalType": "bool",
          "name": "hasRole_",
          "type": "bool"
        }
      ],
      "stateMutability": "view",
      "type": "function"
    },
    {
      "inputs": [
        {
          "internalType": "uint256",
          "name": "sealId",
          "type": "uint256"
        }
      ],
      "name": "isSealed",
      "outputs": [
        {
          "internalType": "bool",
          "name": "wasSealed",
          "type": "bool"
        }
      ],
      "stateMutability": "view",
      "type": "function"
    },
    {
      "inputs": [],
      "name": "owner",
      "outputs": [
        {
          "internalType": "address",
          "name": "",
          "type": "address"
        }
      ],
      "stateMutability": "view",
      "type": "function"
    },
    {
      "inputs": [
        {
          "internalType": "bytes32",
          "name": "role",
          "type": "bytes32"
        }
      ],
      "name": "renounceRole",
      "outputs": [],
      "stateMutability": "nonpayable",
      "type": "function"
    },
    {
      "inputs": [
        {
          "internalType": "bytes32",
          "name": "role",
          "type": "bytes32"
        },
        {
          "internalType": "address",
          "name": "account",
          "type": "address"
        }
      ],
      "name": "revokeRole",
      "outputs": [],
      "stateMutability": "nonpayable",
      "type": "function"
    },
    {
      "inputs": [
        {
          "internalType": "address",
          "name": "target",
          "type": "address"
        },
        {
          "internalType": "bytes",
          "name": "callData",
          "type": "bytes"
        },
        {
          "internalType": "uint256",
          "name": "sealId",
          "type": "uint256"
        }
      ],
      "name": "sealedCall",
      "outputs": [
        {
          "internalType": "bytes",
          "name": "returnData",
          "type": "bytes"
        }
      ],
      "stateMutability": "nonpayable",
      "type": "function"
    },
    {
      "inputs": [
        {
          "internalType": "bytes4",
          "name": "interfaceId",
          "type": "bytes4"
        }
      ],
      "name": "supportsInterface",
      "outputs": [
        {
          "internalType": "bool",
          "name": "",
          "type": "bool"
        }
      ],
      "stateMutability": "view",
      "type": "function"
    },
    {
      "inputs": [
        {
          "internalType": "address",
          "name": "newOwner",
          "type": "address"
        }
      ],
      "name": "transferOwnership",
      "outputs": [],
      "stateMutability": "nonpayable",
      "type": "function"
    }
  ],
  "bytecode": "0x60a06040523480156200001157600080fd5b50604051620012cf380380620012cf83398101604081905262000034916200019e565b80336200004c816200004562000060565b9062000096565b506001600160a01b031660805250620001f2565b6000806200009060017fc9ed16f33ab3a66c84bfd83099ccb2a8845871e2e1c1928f63797152f0fd54cd620001d0565b92915050565b6001600160a01b03811615620000ed5781546001600160a01b0319166001600160a01b03821690811783556040516000907f8be0079c531659141344cd1fd0a4f28419497f9722a3daafe3b4186f6b6457e0908290a35b6200010d6307f5828d60e41b60016200010562000111565b919062000141565b5050565b6000806200009060017fca9d3e17f264b0f3984e2634e94adb37fa3e6a8103f06aeae6fa59e21c769f5e620001d0565b600160e01b6001600160e01b031983160162000170576040516372c683bb60e01b815260040160405180910390fd5b6001600160e01b03199190911660009081526020929092526040909120805460ff1916911515919091179055565b600060208284031215620001b157600080fd5b81516001600160a01b0381168114620001c957600080fd5b9392505050565b818103818111156200009057634e487b7160e01b600052601160045260246000fd5b6080516110ba6200021560003960008181610b3b0152610bc301526110ba6000f3fe608060405234801561001057600080fd5b50600436106100be5760003560e01c80638bb9c5bf1161007657806391d148541161005b57806391d14854146101a8578063d547741f146101bb578063f2fde38b146101ce57600080fd5b80638bb9c5bf146101685780638da5cb5b1461017b57600080fd5b80632c1758c1116100a75780632c1758c11461010b5780632f2ff15d1461011e578063526c98111461013357600080fd5b806301ffc9a7146100c35780630b476f99146100eb575b600080fd5b6100d66100d1366004610e37565b6101e1565b60405190151581526020015b60405180910390f35b6100fe6100f9366004610ea2565b6101fb565b6040516100e29190610f99565b6100d6610119366004610fac565b6102b4565b61013161012c366004610fc5565b6102d5565b005b61015a7f7365616c6572000000000000000000000000000000000000000000000000000081565b6040519081526020016100e2565b610131610176366004610fac565b61030e565b61018361032c565b60405173ffffffffffffffffffffffffffffffffffffffff90911681526020016100e2565b6100d66101b6366004610fc5565b610358565b6101316101c9366004610fc5565b6103a3565b6101316101dc366004610ff1565b6103d1565b60006101f5826101ef6103ec565b9061041a565b92915050565b606060006102076104f4565b905061023d7f7365616c65720000000000000000000000000000000000000000000000000000826102366104fe565b919061052c565b610251818461024a6105b7565b91906105e5565b6102a885858080601f0160208091040260200160405190810160405280939291908181526020018383808284376000920191909152505073ffffffffffffffffffffffffffffffffffffffff8a16929150506106c6565b9150505b949350505050565b60006101f5826102c26105b7565b6000918252602052604090205460ff1690565b60006102df6104f4565b90506102f3816102ed61070a565b90610738565b6103098383836103016104fe565b9291906107a7565b505050565b6103296103196104f4565b826103226104fe565b919061087e565b50565b600061035361033961070a565b5473ffffffffffffffffffffffffffffffffffffffff1690565b905090565b600061039c83836103676104fe565b60009283526020908152604080842073ffffffffffffffffffffffffffffffffffffffff909316845291905290205460ff1690565b9392505050565b60006103ad6104f4565b90506103bb816102ed61070a565b6103098383836103c96104fe565b92919061091a565b6103296103dc6104f4565b826103e561070a565b91906109e4565b6000806101f560017fca9d3e17f264b0f3984e2634e94adb37fa3e6a8103f06aeae6fa59e21c769f5e61100c565b60007c01000000000000000000000000000000000000000000000000000000007fffffffff0000000000000000000000000000000000000000000000000000000083160161046a575060006101f5565b7ffe003659000000000000000000000000000000000000000000000000000000007fffffffff000000000000000000000000000000000000000000000000000000008316016104bb575060016101f5565b507fffffffff00000000000000000000000000000000000000000000000000000000166000908152602091909152604090205460ff1690565b6000610353610af8565b6000806101f560017fc8827d3282af6f37b64c3e9e6f3ac9df286ab0bb0fccd6f8661bf19adb368b2361100c565b60008281526020848152604080832073ffffffffffffffffffffffffffffffffffffffff8516845290915290205460ff16610309576040517f7aa728820000000000000000000000000000000000000000000000000000000081526004810183905273ffffffffffffffffffffffffffffffffffffffff821660248201526044015b60405180910390fd5b6000806101f560017f2a97c6c62f2f8616c552895c02acda791e96a0e77ad57580c7b74a08b219567c61100c565b60008181526020849052604090205460ff1615610631576040517f6e02cd6d000000000000000000000000000000000000000000000000000000008152600481018290526024016105ae565b6000818152602084905260409081902080547fffffffffffffffffffffffffffffffffffffffffffffffffffffffffffffff00166001179055517f4ede4a0b55ef0b366eeda846c0db70204e9f7205524b8c5f653085ca572b2577906106b9908390859091825273ffffffffffffffffffffffffffffffffffffffff16602082015260400190565b60405180910390a1505050565b606061039c838360006040518060400160405280601e81526020017f416464726573733a206c6f772d6c6576656c2063616c6c206661696c65640000815250610c3f565b6000806101f560017fc9ed16f33ab3a66c84bfd83099ccb2a8845871e2e1c1928f63797152f0fd54cd61100c565b815473ffffffffffffffffffffffffffffffffffffffff8281169116146107a3576040517f2ef4875e00000000000000000000000000000000000000000000000000000000815273ffffffffffffffffffffffffffffffffffffffff821660048201526024016105ae565b5050565b60008381526020858152604080832073ffffffffffffffffffffffffffffffffffffffff8616845290915290205460ff166108785760008381526020858152604080832073ffffffffffffffffffffffffffffffffffffffff8681168086529184529382902080547fffffffffffffffffffffffffffffffffffffffffffffffffffffffffffffff00166001179055815187815292830152918316918101919091527f2f8788117e7eff1d82e926ec794901d17c78024a50270940304540a733656f0d906060015b60405180910390a15b50505050565b61088983828461052c565b60008181526020848152604080832073ffffffffffffffffffffffffffffffffffffffff86168085529083529281902080547fffffffffffffffffffffffffffffffffffffffffffffffffffffffffffffff0016905580518481529182018390528101919091527ff6391f5c32d9c69d2a47ea670b442974b53935d1edc7fd64eb21e047a839171b906060016106b9565b60008381526020858152604080832073ffffffffffffffffffffffffffffffffffffffff8616845290915290205460ff16156108785760008381526020858152604080832073ffffffffffffffffffffffffffffffffffffffff8681168086529184529382902080547fffffffffffffffffffffffffffffffffffffffffffffffffffffffffffffff00169055815187815292830152918316918101919091527ff6391f5c32d9c69d2a47ea670b442974b53935d1edc7fd64eb21e047a839171b9060600161086f565b825473ffffffffffffffffffffffffffffffffffffffff9081169083168114610a51576040517f2ef4875e00000000000000000000000000000000000000000000000000000000815273ffffffffffffffffffffffffffffffffffffffff841660048201526024016105ae565b8173ffffffffffffffffffffffffffffffffffffffff168173ffffffffffffffffffffffffffffffffffffffff16146108785783547fffffffffffffffffffffffff00000000000000000000000000000000000000001673ffffffffffffffffffffffffffffffffffffffff8381169182178655604051908316907f8be0079c531659141344cd1fd0a4f28419497f9722a3daafe3b4186f6b6457e090600090a350505050565b600033321480610b085750601836105b15610b1257503390565b7fffffffffffffffffffffffffffffffffffffffffffffffffffffffffffffffec36013560601c7f000000000000000000000000000000000000000000000000000000000000000073ffffffffffffffffffffffffffffffffffffffff16331480610c2e57506040517f8929a8ca00000000000000000000000000000000000000000000000000000000815273ffffffffffffffffffffffffffffffffffffffff82811660048301523360248301527f00000000000000000000000000000000000000000000000000000000000000001690638929a8ca90604401602060405180830381865afa158015610c0a573d6000803e3d6000fd5b505050506040513d601f19601f82011682018060405250810190610c2e9190611046565b15610c3857919050565b3391505090565b606082471015610cd1576040517f08c379a000000000000000000000000000000000000000000000000000000000815260206004820152602660248201527f416464726573733a20696e73756666696369656e742062616c616e636520666f60448201527f722063616c6c000000000000000000000000000000000000000000000000000060648201526084016105ae565b6000808673ffffffffffffffffffffffffffffffffffffffff168587604051610cfa9190611068565b60006040518083038185875af1925050503d8060008114610d37576040519150601f19603f3d011682016040523d82523d6000602084013e610d3c565b606091505b5091509150610d4d87838387610d58565b979650505050505050565b60608315610dee578251600003610de75773ffffffffffffffffffffffffffffffffffffffff85163b610de7576040517f08c379a000000000000000000000000000000000000000000000000000000000815260206004820152601d60248201527f416464726573733a2063616c6c20746f206e6f6e2d636f6e747261637400000060448201526064016105ae565b50816102ac565b6102ac8383815115610e035781518083602001fd5b806040517f08c379a00000000000000000000000000000000000000000000000000000000081526004016105ae9190610f99565b600060208284031215610e4957600080fd5b81357fffffffff000000000000000000000000000000000000000000000000000000008116811461039c57600080fd5b803573ffffffffffffffffffffffffffffffffffffffff81168114610e9d57600080fd5b919050565b60008060008060608587031215610eb857600080fd5b610ec185610e79565b9350602085013567ffffffffffffffff80821115610ede57600080fd5b818701915087601f830112610ef257600080fd5b813581811115610f0157600080fd5b886020828501011115610f1357600080fd5b95986020929092019750949560400135945092505050565b60005b83811015610f46578181015183820152602001610f2e565b50506000910152565b60008151808452610f67816020860160208601610f2b565b601f017fffffffffffffffffffffffffffffffffffffffffffffffffffffffffffffffe0169290920160200192915050565b60208152600061039c6020830184610f4f565b600060208284031215610fbe57600080fd5b5035919050565b60008060408385031215610fd857600080fd5b82359150610fe860208401610e79565b90509250929050565b60006020828403121561100357600080fd5b61039c82610e79565b818103818111156101f5577f4e487b7100000000000000000000000000000000000000000000000000000000600052601160045260246000fd5b60006020828403121561105857600080fd5b8151801515811461039c57600080fd5b6000825161107a818460208701610f2b565b919091019291505056fea26469706673582212204e9c13f77386ff619afd0813c0aead4e5ce5b09a7e83174cbec17f0a05e0d7eb64736f6c63430008150033",
  "linkReferences": {},
  "deployedLinkReferences": {}
}