{
  "_format": "hh-sol-artifact-1",
  "contractName": "SealedExecutor",
  "sourceName": "contracts/security/SealedExecutor.sol",
  "abi": [
    {
      "inputs": [
        {
          "internalType": "contract IForwarderRegistry",
          "name": "forwarderRegistry",
          "type": "address"
        }
      ],
      "stateMutability": "nonpayable",
      "type": "constructor"
    },
    {
      "anonymous": false,
      "inputs": [
        {
          "indexed": true,
          "internalType": "address",
          "name": "previousOwner",
          "type": "address"
        },
        {
          "indexed": true,
          "internalType": "address",
          "name": "newOwner",
          "type": "address"
        }
      ],
      "name": "OwnershipTransferred",
      "type": "event"
    },
    {
      "anonymous": false,
      "inputs": [
        {
          "indexed": false,
          "internalType": "bytes32",
          "name": "role",
          "type": "bytes32"
        },
        {
          "indexed": false,
          "internalType": "address",
          "name": "account",
          "type": "address"
        },
        {
          "indexed": false,
          "internalType": "address",
          "name": "operator",
          "type": "address"
        }
      ],
      "name": "RoleGranted",
      "type": "event"
    },
    {
      "anonymous": false,
      "inputs": [
        {
          "indexed": false,
          "internalType": "bytes32",
          "name": "role",
          "type": "bytes32"
        },
        {
          "indexed": false,
          "internalType": "address",
          "name": "account",
          "type": "address"
        },
        {
          "indexed": false,
          "internalType": "address",
          "name": "operator",
          "type": "address"
        }
      ],
      "name": "RoleRevoked",
      "type": "event"
    },
    {
      "anonymous": false,
      "inputs": [
        {
          "indexed": false,
          "internalType": "uint256",
          "name": "sealId",
          "type": "uint256"
        },
        {
          "indexed": false,
          "internalType": "address",
          "name": "sealer",
          "type": "address"
        }
      ],
      "name": "Sealed",
      "type": "event"
    },
    {
      "inputs": [],
      "name": "SEALER_ROLE",
      "outputs": [
        {
          "internalType": "bytes32",
          "name": "",
          "type": "bytes32"
        }
      ],
      "stateMutability": "view",
      "type": "function"
    },
    {
      "inputs": [
        {
          "internalType": "bytes32",
          "name": "role",
          "type": "bytes32"
        },
        {
          "internalType": "address",
          "name": "account",
          "type": "address"
        }
      ],
      "name": "grantRole",
      "outputs": [],
      "stateMutability": "nonpayable",
      "type": "function"
    },
    {
      "inputs": [
        {
          "internalType": "bytes32",
          "name": "role",
          "type": "bytes32"
        },
        {
          "internalType": "address",
          "name": "account",
          "type": "address"
        }
      ],
      "name": "hasRole",
      "outputs": [
        {
          "internalType": "bool",
          "name": "",
          "type": "bool"
        }
      ],
      "stateMutability": "view",
      "type": "function"
    },
    {
      "inputs": [
        {
          "internalType": "uint256",
          "name": "sealId",
          "type": "uint256"
        }
      ],
      "name": "isSealed",
      "outputs": [
        {
          "internalType": "bool",
          "name": "wasSealed",
          "type": "bool"
        }
      ],
      "stateMutability": "view",
      "type": "function"
    },
    {
      "inputs": [],
      "name": "owner",
      "outputs": [
        {
          "internalType": "address",
          "name": "",
          "type": "address"
        }
      ],
      "stateMutability": "view",
      "type": "function"
    },
    {
      "inputs": [
        {
          "internalType": "bytes32",
          "name": "role",
          "type": "bytes32"
        }
      ],
      "name": "renounceRole",
      "outputs": [],
      "stateMutability": "nonpayable",
      "type": "function"
    },
    {
      "inputs": [
        {
          "internalType": "bytes32",
          "name": "role",
          "type": "bytes32"
        },
        {
          "internalType": "address",
          "name": "account",
          "type": "address"
        }
      ],
      "name": "revokeRole",
      "outputs": [],
      "stateMutability": "nonpayable",
      "type": "function"
    },
    {
      "inputs": [
        {
          "internalType": "address",
          "name": "target",
          "type": "address"
        },
        {
          "internalType": "bytes",
          "name": "callData",
          "type": "bytes"
        },
        {
          "internalType": "uint256",
          "name": "sealId",
          "type": "uint256"
        }
      ],
      "name": "sealedCall",
      "outputs": [
        {
          "internalType": "bytes",
          "name": "returnData",
          "type": "bytes"
        }
      ],
      "stateMutability": "nonpayable",
      "type": "function"
    },
    {
      "inputs": [
        {
          "internalType": "bytes4",
          "name": "interfaceId",
          "type": "bytes4"
        }
      ],
      "name": "supportsInterface",
      "outputs": [
        {
          "internalType": "bool",
          "name": "",
          "type": "bool"
        }
      ],
      "stateMutability": "view",
      "type": "function"
    },
    {
      "inputs": [
        {
          "internalType": "address",
          "name": "newOwner",
          "type": "address"
        }
      ],
      "name": "transferOwnership",
      "outputs": [],
      "stateMutability": "nonpayable",
      "type": "function"
    }
  ],
  "bytecode": "0x60a06040523480156200001157600080fd5b50604051620015e5380380620015e58339810160408190526200003491620001d1565b80336200004c816200004562000060565b9062000096565b506001600160a01b03166080525062000225565b6000806200009060017fc9ed16f33ab3a66c84bfd83099ccb2a8845871e2e1c1928f63797152f0fd54cd62000203565b92915050565b6001600160a01b03811615620000ed5781546001600160a01b0319166001600160a01b03821690811783556040516000907f8be0079c531659141344cd1fd0a4f28419497f9722a3daafe3b4186f6b6457e0908290a35b6200010d6307f5828d60e41b60016200010562000111565b919062000141565b5050565b6000806200009060017fca9d3e17f264b0f3984e2634e94adb37fa3e6a8103f06aeae6fa59e21c769f5e62000203565b600160e01b6001600160e01b0319831601620001a35760405162461bcd60e51b815260206004820152601f60248201527f496e74657266616365446574656374696f6e3a2077726f6e672076616c756500604482015260640160405180910390fd5b6001600160e01b03199190911660009081526020929092526040909120805460ff1916911515919091179055565b600060208284031215620001e457600080fd5b81516001600160a01b0381168114620001fc57600080fd5b9392505050565b818103818111156200009057634e487b7160e01b600052601160045260246000fd5b60805161139d6200024860003960008181610bc20152610c4a015261139d6000f3fe608060405234801561001057600080fd5b50600436106100be5760003560e01c80638bb9c5bf1161007657806391d148541161005b57806391d14854146101a8578063d547741f146101bb578063f2fde38b146101ce57600080fd5b80638bb9c5bf146101685780638da5cb5b1461017b57600080fd5b80632c1758c1116100a75780632c1758c11461010b5780632f2ff15d1461011e578063526c98111461013357600080fd5b806301ffc9a7146100c35780630b476f99146100eb575b600080fd5b6100d66100d1366004611050565b6101e1565b60405190151581526020015b60405180910390f35b6100fe6100f93660046110bb565b6101fb565b6040516100e291906111b2565b6100d66101193660046111c5565b6102b4565b61013161012c3660046111de565b6102d5565b005b61015a7f7365616c6572000000000000000000000000000000000000000000000000000081565b6040519081526020016100e2565b6101316101763660046111c5565b61030e565b61018361032c565b60405173ffffffffffffffffffffffffffffffffffffffff90911681526020016100e2565b6100d66101b63660046111de565b610358565b6101316101c93660046111de565b6103a3565b6101316101dc36600461120a565b6103d1565b60006101f5826101ef6103ec565b9061041a565b92915050565b606060006102076104f4565b905061023d7f7365616c65720000000000000000000000000000000000000000000000000000826102366104fe565b919061052c565b610251818461024a6105e1565b919061060f565b6102a885858080601f0160208091040260200160405190810160405280939291908181526020018383808284376000920191909152505073ffffffffffffffffffffffffffffffffffffffff8a169291505061071d565b9150505b949350505050565b60006101f5826102c26105e1565b6000918252602052604090205460ff1690565b60006102df6104f4565b90506102f3816102ed610761565b9061078f565b6103098383836103016104fe565b929190610816565b505050565b6103296103196104f4565b826103226104fe565b91906108ed565b50565b6000610353610339610761565b5473ffffffffffffffffffffffffffffffffffffffff1690565b905090565b600061039c83836103676104fe565b60009283526020908152604080842073ffffffffffffffffffffffffffffffffffffffff909316845291905290205460ff1690565b9392505050565b60006103ad6104f4565b90506103bb816102ed610761565b6103098383836103c96104fe565b929190610989565b6103296103dc6104f4565b826103e5610761565b9190610a53565b6000806101f560017fca9d3e17f264b0f3984e2634e94adb37fa3e6a8103f06aeae6fa59e21c769f5e611225565b60007c01000000000000000000000000000000000000000000000000000000007fffffffff0000000000000000000000000000000000000000000000000000000083160161046a575060006101f5565b7ffe003659000000000000000000000000000000000000000000000000000000007fffffffff000000000000000000000000000000000000000000000000000000008316016104bb575060016101f5565b507fffffffff00000000000000000000000000000000000000000000000000000000166000908152602091909152604090205460ff1690565b6000610353610b7f565b6000806101f560017fc8827d3282af6f37b64c3e9e6f3ac9df286ab0bb0fccd6f8661bf19adb368b23611225565b60008281526020848152604080832073ffffffffffffffffffffffffffffffffffffffff8516845290915290205460ff166103095761056a82610cc6565b60405160200161057a919061125f565b604080517fffffffffffffffffffffffffffffffffffffffffffffffffffffffffffffffe0818403018152908290527f08c379a00000000000000000000000000000000000000000000000000000000082526105d8916004016111b2565b60405180910390fd5b6000806101f560017f2a97c6c62f2f8616c552895c02acda791e96a0e77ad57580c7b74a08b219567c611225565b60008181526020849052604090205460ff1615610688576040517f08c379a000000000000000000000000000000000000000000000000000000000815260206004820152600d60248201527f5365616c733a207365616c65640000000000000000000000000000000000000060448201526064016105d8565b6000818152602084905260409081902080547fffffffffffffffffffffffffffffffffffffffffffffffffffffffffffffff00166001179055517f4ede4a0b55ef0b366eeda846c0db70204e9f7205524b8c5f653085ca572b257790610710908390859091825273ffffffffffffffffffffffffffffffffffffffff16602082015260400190565b60405180910390a1505050565b606061039c838360006040518060400160405280601e81526020017f416464726573733a206c6f772d6c6576656c2063616c6c206661696c65640000815250610e58565b6000806101f560017fc9ed16f33ab3a66c84bfd83099ccb2a8845871e2e1c1928f63797152f0fd54cd611225565b815473ffffffffffffffffffffffffffffffffffffffff828116911614610812576040517f08c379a000000000000000000000000000000000000000000000000000000000815260206004820152601860248201527f4f776e6572736869703a206e6f7420746865206f776e6572000000000000000060448201526064016105d8565b5050565b60008381526020858152604080832073ffffffffffffffffffffffffffffffffffffffff8616845290915290205460ff166108e75760008381526020858152604080832073ffffffffffffffffffffffffffffffffffffffff8681168086529184529382902080547fffffffffffffffffffffffffffffffffffffffffffffffffffffffffffffff00166001179055815187815292830152918316918101919091527f2f8788117e7eff1d82e926ec794901d17c78024a50270940304540a733656f0d906060015b60405180910390a15b50505050565b6108f883828461052c565b60008181526020848152604080832073ffffffffffffffffffffffffffffffffffffffff86168085529083529281902080547fffffffffffffffffffffffffffffffffffffffffffffffffffffffffffffff0016905580518481529182018390528101919091527ff6391f5c32d9c69d2a47ea670b442974b53935d1edc7fd64eb21e047a839171b90606001610710565b60008381526020858152604080832073ffffffffffffffffffffffffffffffffffffffff8616845290915290205460ff16156108e75760008381526020858152604080832073ffffffffffffffffffffffffffffffffffffffff8681168086529184529382902080547fffffffffffffffffffffffffffffffffffffffffffffffffffffffffffffff00169055815187815292830152918316918101919091527ff6391f5c32d9c69d2a47ea670b442974b53935d1edc7fd64eb21e047a839171b906060016108de565b825473ffffffffffffffffffffffffffffffffffffffff9081169083168114610ad8576040517f08c379a000000000000000000000000000000000000000000000000000000000815260206004820152601860248201527f4f776e6572736869703a206e6f7420746865206f776e6572000000000000000060448201526064016105d8565b8173ffffffffffffffffffffffffffffffffffffffff168173ffffffffffffffffffffffffffffffffffffffff16146108e75783547fffffffffffffffffffffffff00000000000000000000000000000000000000001673ffffffffffffffffffffffffffffffffffffffff8381169182178655604051908316907f8be0079c531659141344cd1fd0a4f28419497f9722a3daafe3b4186f6b6457e090600090a350505050565b600033321480610b8f5750601836105b15610b9957503390565b7fffffffffffffffffffffffffffffffffffffffffffffffffffffffffffffffec36013560601c7f000000000000000000000000000000000000000000000000000000000000000073ffffffffffffffffffffffffffffffffffffffff16331480610cb557506040517f8929a8ca00000000000000000000000000000000000000000000000000000000815273ffffffffffffffffffffffffffffffffffffffff82811660048301523360248301527f00000000000000000000000000000000000000000000000000000000000000001690638929a8ca90604401602060405180830381865afa158015610c91573d6000803e3d6000fd5b505050506040513d601f19601f82011682018060405250810190610cb591906112cb565b15610cbf57919050565b3391505090565b60606000829003610ce557505060408051602081019091526000815290565b600082604051602001610cfa91815260200190565b604080517fffffffffffffffffffffffffffffffffffffffffffffffffffffffffffffffe08184030181529190529050601f5b818181518110610d3f57610d3f6112ed565b01602001517fff0000000000000000000000000000000000000000000000000000000000000016600003610d94577fffffffffffffffffffffffffffffffffffffffffffffffffffffffffffffffff01610d2d565b60008160010167ffffffffffffffff811115610db257610db261131c565b6040519080825280601f01601f191660200182016040528015610ddc576020820181803683370190505b50905060005b828111610e4f57838181518110610dfb57610dfb6112ed565b602001015160f81c60f81b828281518110610e1857610e186112ed565b60200101907effffffffffffffffffffffffffffffffffffffffffffffffffffffffffffff1916908160001a905350600101610de2565b50949350505050565b606082471015610eea576040517f08c379a000000000000000000000000000000000000000000000000000000000815260206004820152602660248201527f416464726573733a20696e73756666696369656e742062616c616e636520666f60448201527f722063616c6c000000000000000000000000000000000000000000000000000060648201526084016105d8565b6000808673ffffffffffffffffffffffffffffffffffffffff168587604051610f13919061134b565b60006040518083038185875af1925050503d8060008114610f50576040519150601f19603f3d011682016040523d82523d6000602084013e610f55565b606091505b5091509150610f6687838387610f71565b979650505050505050565b606083156110075782516000036110005773ffffffffffffffffffffffffffffffffffffffff85163b611000576040517f08c379a000000000000000000000000000000000000000000000000000000000815260206004820152601d60248201527f416464726573733a2063616c6c20746f206e6f6e2d636f6e747261637400000060448201526064016105d8565b50816102ac565b6102ac838381511561101c5781518083602001fd5b806040517f08c379a00000000000000000000000000000000000000000000000000000000081526004016105d891906111b2565b60006020828403121561106257600080fd5b81357fffffffff000000000000000000000000000000000000000000000000000000008116811461039c57600080fd5b803573ffffffffffffffffffffffffffffffffffffffff811681146110b657600080fd5b919050565b600080600080606085870312156110d157600080fd5b6110da85611092565b9350602085013567ffffffffffffffff808211156110f757600080fd5b818701915087601f83011261110b57600080fd5b81358181111561111a57600080fd5b88602082850101111561112c57600080fd5b95986020929092019750949560400135945092505050565b60005b8381101561115f578181015183820152602001611147565b50506000910152565b60008151808452611180816020860160208601611144565b601f017fffffffffffffffffffffffffffffffffffffffffffffffffffffffffffffffe0169290920160200192915050565b60208152600061039c6020830184611168565b6000602082840312156111d757600080fd5b5035919050565b600080604083850312156111f157600080fd5b8235915061120160208401611092565b90509250929050565b60006020828403121561121c57600080fd5b61039c82611092565b818103818111156101f5577f4e487b7100000000000000000000000000000000000000000000000000000000600052601160045260246000fd5b7f416363657373436f6e74726f6c3a206d697373696e6720270000000000000000815260008251611297816018850160208701611144565b7f2720726f6c6500000000000000000000000000000000000000000000000000006018939091019283015250601e01919050565b6000602082840312156112dd57600080fd5b8151801515811461039c57600080fd5b7f4e487b7100000000000000000000000000000000000000000000000000000000600052603260045260246000fd5b7f4e487b7100000000000000000000000000000000000000000000000000000000600052604160045260246000fd5b6000825161135d818460208701611144565b919091019291505056fea2646970667358221220db06199ac44c0db16dc64eaa645d0280dfa1f8f2a902c6b373d1a5d2d13be10f64736f6c63430008130033",
  "linkReferences": {},
  "deployedLinkReferences": {}
}