{
  "_format": "hh-sol-artifact-1",
  "contractName": "ERC721TokenMetadataWithBaseURIFacet",
  "sourceName": "contracts/token/ERC721/ERC721TokenMetadataWithBaseURIFacet.sol",
  "abi": [
    {
      "inputs": [
        {
          "internalType": "contract IForwarderRegistry",
          "name": "forwarderRegistry",
          "type": "address"
        }
      ],
      "stateMutability": "nonpayable",
      "type": "constructor"
    },
    {
      "inputs": [
        {
          "internalType": "string",
          "name": "name",
          "type": "string"
        },
        {
          "internalType": "string",
          "name": "symbol",
          "type": "string"
        },
        {
          "internalType": "string",
          "name": "uri",
          "type": "string"
        }
      ],
      "name": "initERC721MetadataStorageWithBaseURIStorage",
      "outputs": [],
      "stateMutability": "nonpayable",
      "type": "function"
    },
    {
      "inputs": [],
      "name": "name",
      "outputs": [
        {
          "internalType": "string",
          "name": "",
          "type": "string"
        }
      ],
      "stateMutability": "view",
      "type": "function"
    },
    {
      "inputs": [],
      "name": "symbol",
      "outputs": [
        {
          "internalType": "string",
          "name": "",
          "type": "string"
        }
      ],
      "stateMutability": "view",
      "type": "function"
    },
    {
      "inputs": [
        {
          "internalType": "uint256",
          "name": "tokenId",
          "type": "uint256"
        }
      ],
      "name": "tokenURI",
      "outputs": [
        {
          "internalType": "string",
          "name": "",
          "type": "string"
        }
      ],
      "stateMutability": "view",
      "type": "function"
    }
  ],
  "bytecode": "0x60a060405234801561001057600080fd5b50604051610de6380380610de683398101604081905261002f91610040565b6001600160a01b0316608052610070565b60006020828403121561005257600080fd5b81516001600160a01b038116811461006957600080fd5b9392505050565b608051610d54610092600039600081816105d501526106750152610d546000f3fe608060405234801561001057600080fd5b506004361061004c5760003560e01c806306fdde03146100515780634f84ff911461006f57806395d89b4114610084578063c87b56dd1461008c575b600080fd5b61005961009f565b60405161006691906109c5565b60405180910390f35b61008261007d366004610af0565b6100b6565b005b6100596100ea565b61005961009a366004610b78565b6100fc565b60606100b16100ac6101d8565b61020c565b905090565b6100cf6100c16102a2565b6100c96102ac565b906102da565b6100e58383836100dd610361565b92919061038f565b505050565b60606100b16100f76101d8565b610426565b60606000610108610437565b6000848152600191909101602052604090205473ffffffffffffffffffffffffffffffffffffffff160361019d576040517f08c379a000000000000000000000000000000000000000000000000000000000815260206004820152601860248201527f4552433732313a206e6f6e2d6578697374696e67204e4654000000000000000060448201526064015b60405180910390fd5b6101a86100ac610361565b6101b183610465565b6040516020016101c2929190610b91565b6040516020818303038152906040529050919050565b60008061020660017f9c4269c0f9f430d98876ffe9767fbf3f3232ea91a549beb549e5329532520eb3610bef565b92915050565b606081600001805461021d90610c06565b80601f016020809104026020016040519081016040528092919081815260200182805461024990610c06565b80156102965780601f1061026b57610100808354040283529160200191610296565b820191906000526020600020905b81548152906001019060200180831161027957829003601f168201915b50505050509050919050565b60006100b1610599565b60008061020660017fb53127684a568b3173ae13b9f8a6016e243e63b6e8ee1178d6a717850b5d6104610bef565b815473ffffffffffffffffffffffffffffffffffffffff82811691161461035d576040517f08c379a000000000000000000000000000000000000000000000000000000000815260206004820152601960248201527f50726f787941646d696e3a206e6f74207468652061646d696e000000000000006044820152606401610194565b5050565b60008061020660017f5f5773833f4966721eb3773ed87c7208ea74d78f0d94de1d8074345cac67333f610bef565b6103c46103bd60017fdf2ee7965c9504dc84db8f7759fc283282800c5a2fa3704c9f07f446b3b40a3f610bef565b60016106f1565b6103d883836103d16101d8565b9190610761565b80516103ea9085906020840190610900565b506104207f5b5e139f0000000000000000000000000000000000000000000000000000000060016104196107e2565b9190610810565b50505050565b606081600101805461021d90610c06565b60008061020660017fddf3ee18ae6d688373c219468f8be446e7ae82215f4779d821c7ea5e8c13c0c1610bef565b6060816000036104a857505060408051808201909152600181527f3000000000000000000000000000000000000000000000000000000000000000602082015290565b8160005b81156104d257806104bc81610c53565b91506104cb9050600a83610c8b565b91506104ac565b60008167ffffffffffffffff8111156104ed576104ed610a16565b6040519080825280601f01601f191660200182016040528015610517576020820181803683370190505b5090506000610527600184610bef565b90508593505b831561059057600a840660300160f81b8282806001900393508151811061055657610556610cc6565b60200101907effffffffffffffffffffffffffffffffffffffffffffffffffffffffffffff1916908160001a905350600a8404935061052d565b50949350505050565b6000333281036105a857919050565b6000367fffffffffffffffffffffffffffffffffffffffffffffffffffffffffffffffec013560601c90507f000000000000000000000000000000000000000000000000000000000000000073ffffffffffffffffffffffffffffffffffffffff168273ffffffffffffffffffffffffffffffffffffffff1614806106e057506040517fe60125d600000000000000000000000000000000000000000000000000000000815273ffffffffffffffffffffffffffffffffffffffff828116600483015283811660248301527f0000000000000000000000000000000000000000000000000000000000000000169063e60125d690604401602060405180830381865afa1580156106bc573d6000803e3d6000fd5b505050506040513d601f19601f820116820180604052508101906106e09190610cf5565b156106eb5792915050565b50919050565b81548290821161075d576040517f08c379a000000000000000000000000000000000000000000000000000000000815260206004820152601860248201527f53746f726167653a2076657273696f6e207265616368656400000000000000006044820152606401610194565b5550565b61078f6103bd60017fa057eeb6560fae2987973d3bf40b89e6da66dd0b6aadac05dc6b5b0d7a8d4557610bef565b81516107a19084906020850190610900565b5080516107b79060018501906020840190610900565b506100e57f5b5e139f0000000000000000000000000000000000000000000000000000000060016104195b60008061020660017f7180ffa89c91cf90d6c56dacabfc69bc5e36f3099d7eed2f5cc12c5dba016fe0610bef565b7fffffffff00000000000000000000000000000000000000000000000000000000808316900361089c576040517f08c379a000000000000000000000000000000000000000000000000000000000815260206004820152601f60248201527f496e74657266616365446574656374696f6e3a2077726f6e672076616c7565006044820152606401610194565b7fffffffff00000000000000000000000000000000000000000000000000000000919091166000908152602092909252604090912080547fffffffffffffffffffffffffffffffffffffffffffffffffffffffffffffff0016911515919091179055565b82805461090c90610c06565b90600052602060002090601f01602090048101928261092e5760008555610974565b82601f1061094757805160ff1916838001178555610974565b82800160010185558215610974579182015b82811115610974578251825591602001919060010190610959565b50610980929150610984565b5090565b5b808211156109805760008155600101610985565b60005b838110156109b457818101518382015260200161099c565b838111156104205750506000910152565b60208152600082518060208401526109e4816040850160208701610999565b601f017fffffffffffffffffffffffffffffffffffffffffffffffffffffffffffffffe0169190910160400192915050565b7f4e487b7100000000000000000000000000000000000000000000000000000000600052604160045260246000fd5b600082601f830112610a5657600080fd5b813567ffffffffffffffff80821115610a7157610a71610a16565b604051601f83017fffffffffffffffffffffffffffffffffffffffffffffffffffffffffffffffe0908116603f01168101908282118183101715610ab757610ab7610a16565b81604052838152866020858801011115610ad057600080fd5b836020870160208301376000602085830101528094505050505092915050565b600080600060608486031215610b0557600080fd5b833567ffffffffffffffff80821115610b1d57600080fd5b610b2987838801610a45565b94506020860135915080821115610b3f57600080fd5b610b4b87838801610a45565b93506040860135915080821115610b6157600080fd5b50610b6e86828701610a45565b9150509250925092565b600060208284031215610b8a57600080fd5b5035919050565b60008351610ba3818460208801610999565b835190830190610bb7818360208801610999565b01949350505050565b7f4e487b7100000000000000000000000000000000000000000000000000000000600052601160045260246000fd5b600082821015610c0157610c01610bc0565b500390565b600181811c90821680610c1a57607f821691505b6020821081036106eb577f4e487b7100000000000000000000000000000000000000000000000000000000600052602260045260246000fd5b60007fffffffffffffffffffffffffffffffffffffffffffffffffffffffffffffffff8203610c8457610c84610bc0565b5060010190565b600082610cc1577f4e487b7100000000000000000000000000000000000000000000000000000000600052601260045260246000fd5b500490565b7f4e487b7100000000000000000000000000000000000000000000000000000000600052603260045260246000fd5b600060208284031215610d0757600080fd5b81518015158114610d1757600080fd5b939250505056fea26469706673582212205ebc4d78cba1885c6c86c09e949e48b4d1146bde78f2d090d68af720636782d164736f6c634300080d0033",
  "linkReferences": {},
  "deployedLinkReferences": {}
}