{
  "_format": "hh-sol-artifact-1",
  "contractName": "InterfaceDetectionStorage",
  "sourceName": "contracts/introspection/libraries/InterfaceDetectionStorage.sol",
  "abi": [
    {
      "inputs": [],
      "name": "INTERFACEDETECTION_STORAGE_POSITION",
      "outputs": [
        {
          "internalType": "bytes32",
          "name": "",
          "type": "bytes32"
        }
      ],
      "stateMutability": "view",
      "type": "function"
    },
    {
      "inputs": [],
      "name": "INTERFACEDETECTION_VERSION_SLOT",
      "outputs": [
        {
          "internalType": "bytes32",
          "name": "",
          "type": "bytes32"
        }
      ],
      "stateMutability": "view",
      "type": "function"
    }
  ],
  "bytecode": "0x61012561003a600b82828239805160001a60731461002d57634e487b7160e01b600052600060045260246000fd5b30600052607381538281f3fe7300000000000000000000000000000000000000003014608060405260043610603d5760003560e01c806317e0792214604257806323d91bf714605a575b600080fd5b60486060565b60405190815260200160405180910390f35b6048608c565b608960017f0d3428378c86c503fd28ad8ca6ada1714405b0214c2235cfa78ae4407ebdd41660b2565b81565b608960017fca9d3e17f264b0f3984e2634e94adb37fa3e6a8103f06aeae6fa59e21c769f5e5b60008282101560ea577f4e487b7100000000000000000000000000000000000000000000000000000000600052601160045260246000fd5b50039056fea26469706673582212201a33db793999104fc55b773f6a30bcd784ed578754e2908aeea880d051d9625d64736f6c634300080e0033",
  "linkReferences": {},
  "deployedLinkReferences": {}
}