{
  "_format": "hh-sol-artifact-1",
  "contractName": "InterfaceDetectionStorage",
  "sourceName": "contracts/introspection/libraries/InterfaceDetectionStorage.sol",
  "abi": [
    {
      "inputs": [],
      "name": "INTERFACEDETECTION_STORAGE_POSITION",
      "outputs": [
        {
          "internalType": "bytes32",
          "name": "",
          "type": "bytes32"
        }
      ],
      "stateMutability": "view",
      "type": "function"
    },
    {
      "inputs": [],
      "name": "INTERFACEDETECTION_VERSION_SLOT",
      "outputs": [
        {
          "internalType": "bytes32",
          "name": "",
          "type": "bytes32"
        }
      ],
      "stateMutability": "view",
      "type": "function"
    }
  ],
  "bytecode": "0x6101c4610053600b82828239805160001a607314610046577f4e487b7100000000000000000000000000000000000000000000000000000000600052600060045260246000fd5b30600052607381538281f3fe73000000000000000000000000000000000000000030146080604052600436106100405760003560e01c806317e079221461004557806323d91bf714610063575b600080fd5b61004d610081565b60405161005a9190610106565b60405180910390f35b61006b6100b7565b6040516100789190610106565b60405180910390f35b60017f947245cdabe12ef4c13574b38217b361de48f57dd2dc345f43703c79bac2873d60001c6100b1919061015a565b60001b81565b60017f7180ffa89c91cf90d6c56dacabfc69bc5e36f3099d7eed2f5cc12c5dba016fe060001c6100e7919061015a565b60001b81565b6000819050919050565b610100816100ed565b82525050565b600060208201905061011b60008301846100f7565b92915050565b6000819050919050565b7f4e487b7100000000000000000000000000000000000000000000000000000000600052601160045260246000fd5b600061016582610121565b915061017083610121565b9250828210156101835761018261012b565b5b82820390509291505056fea264697066735822122073685e8228b812199ffa794064b7ff06abec242fa24f63ccd48d91fcf0207c6164736f6c634300080d0033",
  "linkReferences": {},
  "deployedLinkReferences": {}
}