{
  "_format": "hh-sol-artifact-1",
  "contractName": "Bytes32Mock",
  "sourceName": "contracts/mocks/utils/Bytes32Mock.sol",
  "abi": [
    {
      "inputs": [
        {
          "internalType": "bytes32",
          "name": "value",
          "type": "bytes32"
        }
      ],
      "name": "toASCIIString",
      "outputs": [
        {
          "internalType": "string",
          "name": "",
          "type": "string"
        }
      ],
      "stateMutability": "pure",
      "type": "function"
    },
    {
      "inputs": [
        {
          "internalType": "bytes32",
          "name": "value",
          "type": "bytes32"
        }
      ],
      "name": "toBase32String",
      "outputs": [
        {
          "internalType": "string",
          "name": "",
          "type": "string"
        }
      ],
      "stateMutability": "pure",
      "type": "function"
    }
  ],
  "bytecode": "0x608060405234801561001057600080fd5b5061059f806100206000396000f3fe608060405234801561001057600080fd5b50600436106100365760003560e01c806384e7ad211461003b578063dea65fa114610064575b600080fd5b61004e610049366004610374565b610077565b60405161005b919061038d565b60405180910390f35b61004e610072366004610374565b610088565b606061008282610093565b92915050565b60606100828261021d565b606060008290036100b257505060408051602081019091526000815290565b6000826040516020016100c791815260200190565b604080517fffffffffffffffffffffffffffffffffffffffffffffffffffffffffffffffe08184030181529190529050601f5b81818151811061010c5761010c610400565b01602001517fff000000000000000000000000000000000000000000000000000000000000001660000361014a576101438161045e565b90506100fa565b6000610157826001610493565b67ffffffffffffffff81111561016f5761016f6104ab565b6040519080825280601f01601f191660200182016040528015610199576020820181803683370190505b50905060005b828111610214578381815181106101b8576101b8610400565b602001015160f81c60f81b8282815181106101d5576101d5610400565b60200101907effffffffffffffffffffffffffffffffffffffffffffffffffffffffffffff1916908160001a90535061020d816104da565b905061019f565b50949350505050565b60408051603480825260608281019093527f6162636465666768696a6b6c6d6e6f707172737475767778797a3233343536379184919060009082602082018180368337019050509050836002610274600886610541565b901b60ff166020811061028957610289610400565b1a60f81b816102978461045e565b935083815181106102aa576102aa610400565b60200101907effffffffffffffffffffffffffffffffffffffffffffffffffffffffffffff1916908160001a9053506102e4600884610555565b92505b811561036b57836102f9602085610541565b6020811061030957610309610400565b1a60f81b816103178461045e565b9350838151811061032a5761032a610400565b60200101907effffffffffffffffffffffffffffffffffffffffffffffffffffffffffffff1916908160001a905350610364602084610555565b92506102e7565b95945050505050565b60006020828403121561038657600080fd5b5035919050565b600060208083528351808285015260005b818110156103ba5785810183015185820160400152820161039e565b818111156103cc576000604083870101525b50601f017fffffffffffffffffffffffffffffffffffffffffffffffffffffffffffffffe016929092016040019392505050565b7f4e487b7100000000000000000000000000000000000000000000000000000000600052603260045260246000fd5b7f4e487b7100000000000000000000000000000000000000000000000000000000600052601160045260246000fd5b60008161046d5761046d61042f565b507fffffffffffffffffffffffffffffffffffffffffffffffffffffffffffffffff0190565b600082198211156104a6576104a661042f565b500190565b7f4e487b7100000000000000000000000000000000000000000000000000000000600052604160045260246000fd5b60007fffffffffffffffffffffffffffffffffffffffffffffffffffffffffffffffff820361050b5761050b61042f565b5060010190565b7f4e487b7100000000000000000000000000000000000000000000000000000000600052601260045260246000fd5b60008261055057610550610512565b500690565b60008261056457610564610512565b50049056fea26469706673582212209a190af148e0b84c94ff6ad547e3a0f2485b685d9a014a69cfe6c64a8c1f2b0664736f6c634300080e0033",
  "linkReferences": {},
  "deployedLinkReferences": {}
}