{
  "_format": "hh-sol-artifact-1",
  "contractName": "Bytes32Mock",
  "sourceName": "contracts/mocks/utils/Bytes32Mock.sol",
  "abi": [
    {
      "inputs": [
        {
          "internalType": "bytes32",
          "name": "value",
          "type": "bytes32"
        }
      ],
      "name": "toASCIIString",
      "outputs": [
        {
          "internalType": "string",
          "name": "",
          "type": "string"
        }
      ],
      "stateMutability": "pure",
      "type": "function"
    },
    {
      "inputs": [
        {
          "internalType": "bytes32",
          "name": "value",
          "type": "bytes32"
        }
      ],
      "name": "toBase32String",
      "outputs": [
        {
          "internalType": "string",
          "name": "",
          "type": "string"
        }
      ],
      "stateMutability": "pure",
      "type": "function"
    }
  ],
  "bytecode": "0x608060405234801561001057600080fd5b5061107e806100206000396000f3fe608060405234801561001057600080fd5b50600436106100365760003560e01c806384e7ad211461003b578063dea65fa11461006b575b600080fd5b61005560048036038101906100509190610d35565b61009b565b6040516100629190610dfb565b60405180910390f35b61008560048036038101906100809190610d35565b610131565b6040516100929190610dfb565b60405180910390f35b60606100c97fe5b7fba4c8aa35399ef868010f52cdad6891d2e049182571284eae988851c7e660001b6101c7565b6100f57f697063d8be3dc5b0a52ee611bc4b5f2b1745c6e860041bb8846a23ab7f8fb66760001b6101c7565b6101217fd415784c63ac4ea5343040c24066cf0cc1e340c4830df93023fb4eed1e11384260001b6101c7565b61012a826101ca565b9050919050565b606061015f7f923a3beafc372a62054d02a4ad798dd44ea7c6c6a2d7cdf82f739b0bb980c57660001b6101c7565b61018b7f76e440f31ac37cbc2d5fa4ebb86da0d503404da5a36105d9d2732069cd22149360001b6101c7565b6101b77f29f5104e18040414bf248208023c474603813b90ee0e25bafa1e3717c3145e8f60001b6101c7565b6101c0826107b0565b9050919050565b50565b60606101f87ff3e26c3bd85fdaa3d8f1259414605a7dd92cd33f6e0a5ea5aee2931a96d320aa60001b610cf7565b6102247f14846564a156e661f6474a94d4255a72cce0853ae6558cbf3e923deec39719ae60001b610cf7565b6102507f6c4f2a0e0bd15baa64804e395a91bd69578a6e2a90f55320b7b965282ed515d860001b610cf7565b6000801b82036102c9576102867f66382546bedd8a8744565683ec0549940fef9cc757873afd4aa5cbf1a1c3ddeb60001b610cf7565b6102b27f41f0fd3b61868a6d8df29e5b031aeec3a4ac9909f5a87803ff0e75a1215b2e1660001b610cf7565b6040518060200160405280600081525090506107ab565b6102f57fd7faff261f7667b6fdb79185d8e210684b89ebcf3c16989907a72e26c9a40bd360001b610cf7565b6103217fc963fd694ee00300e885d432326b79e852ff0d5d3d5e5b40d91d2cb7322e036860001b610cf7565b61034d7f03d940c9787d5829f10521169b1c7207e10ebc0c689f231920f48ae83e75d20760001b610cf7565b6000826040516020016103609190610e3e565b604051602081830303815290604052905061039d7f3be4e21e8f54c6c99bff282d009276b8870f6abdb6debfddfa3e2b6b2db00e7760001b610cf7565b6103c97f17306240d3cb74d3489a10c16165676d1e8bd6ae2ff4bb3eeac64cd88d80bb6a60001b610cf7565b6000601f90506103fb7f5c1c0f404ad5f798e57f5a143443445b34b8ef27d98839f5300c77b624967d3260001b610cf7565b6104277ffe20543a09d660584d1a6b1ece822ac581d7a02e435ff8d6e1467dc3c1fc750560001b610cf7565b5b60011561056b5761045b7fecafc833e80060b602eb7f1f24a245850dfa0e85b27437f061a032e48428c77a60001b610cf7565b6104877f522a216e93d0e4f6e6309facb75020a88b47b2d64392071866ad5395e68a4f3f60001b610cf7565b600060f81b82828151811061049f5761049e610e59565b5b602001015160f81c60f81b7effffffffffffffffffffffffffffffffffffffffffffffffffffffffffffff191614610502576104fd7fb60cfc2b2fdca331d300ee04d83eeaffc639b7f20ec67b5f0a2c76b38ceae2f660001b610cf7565b61056b565b61052e7fb64ec942692486251857b64186a51a5dcbb575bb273ab2a68476fefa6ba7e85f60001b610cf7565b61055a7febb09476ab2c43de302339c8bda76901de4deb1e22a5a915a6428269658244ea60001b610cf7565b8061056490610ec1565b9050610428565b6105977f6ef5bcf08ee5e813920ce44c7edcb5ccd95a074dd3355664e76ea5f90677c82160001b610cf7565b6105c37ff7f7c96094cd88ffccca7135e60d08b87b722cb510d705e1eebd625cc84a226060001b610cf7565b60006001826105d29190610eea565b67ffffffffffffffff8111156105eb576105ea610f40565b5b6040519080825280601f01601f19166020018201604052801561061d5781602001600182028036833780820191505090505b50905061064c7f70479c5da0c7bb0ac8f3ac4c0d6fabd84387ce5353aac9f89c3de6a3ab64de4860001b610cf7565b6106787fc19b5a8d1dea10c7016ae2e1347f69ddd08a429e857cf0d52301d9640eca840160001b610cf7565b60005b82811161074b576106ae7f14f2a6a46e72ed58802d03d80c3041c7ea0a3d7c5d23f2471fc6af1c024bfe2e60001b610cf7565b6106da7f538b385a5c613af0ebaf45feea1f5d29fec7f025d7383803dc0ff5cf1b259e9b60001b610cf7565b8381815181106106ed576106ec610e59565b5b602001015160f81c60f81b82828151811061070b5761070a610e59565b5b60200101907effffffffffffffffffffffffffffffffffffffffffffffffffffffffffffff1916908160001a9053508061074490610f6f565b905061067b565b506107787ff8dc96e11a0aa5b43175ddf7e5527a22d125faa318ae8ab4e16ce609a2fb746160001b610cf7565b6107a47f9e6bab069cd7b2424e0a07809819bfaa214e4a57f459aa03649e424b72e84af060001b610cf7565b8093505050505b919050565b60606107de7fc49fd1c435c87ebdf23037760aa55b02bd208921807670bb52264ff249d5f22160001b610cf7565b61080a7f400f5916db81a63105253e5100e4a7d628b6c9f3c1dfb204d9bb8733e6e1e97260001b610cf7565b6108367fdfa7465fef5a6752c258045b25f6fe612f501480130b2b1912aa6a20e5ea2e2660001b610cf7565b60007f6162636465666768696a6b6c6d6e6f707172737475767778797a32333435363760001b905061088a7f87d3827ecfc5426022832052e2ea381663d074d14c216e7f10276f5e063a20cd60001b610cf7565b6108b67fa6aca4c1c08f66978e5d7f8fb9a39316acfad9307cb4a8e39ae4b2a07dc90dfa60001b610cf7565b60008360001c90506108ea7f5372e33f643b684db268a48be95666c8c1a6c8c1ec930de32330da7bba3c508260001b610cf7565b6109167fb1563a3ba700fd464b50256f8880181f6a30a4f5b3d1120aa5b86b1f91c228c360001b610cf7565b6000603490506109487f3c04e12143c02672e8d0407fe9e6a864dfcc0e39f04f43387f2b4b4cf291610760001b610cf7565b6109747ffc75e4c4d3fd265bc06f8788ad40dcda8da26361446973edbaf19ed75bc90fc560001b610cf7565b60008167ffffffffffffffff8111156109905761098f610f40565b5b6040519080825280601f01601f1916602001820160405280156109c25781602001600182028036833780820191505090505b5090506109f17f11ec3d26548df12144cfb7e660ef65d85d176e1c30a8b36b75c60836987a4fb360001b610cf7565b610a1d7fffea19d5a7d848cab9a928ac0d6dfabd1266534db7dd52d0e77ec7f512bf4add60001b610cf7565b836002600885610a2d9190610fe6565b901b60ff1660208110610a4357610a42610e59565b5b1a60f81b8183610a5290610ec1565b93508381518110610a6657610a65610e59565b5b60200101907effffffffffffffffffffffffffffffffffffffffffffffffffffffffffffff1916908160001a905350610ac17fa568ad6ae9234134607f28fddfd6d5af6e9cd90cb67c2a457b9b2ed165221d5360001b610cf7565b610aed7f1b645b27361815a70bd7a77208cb033a9bdddc5882a604304cc4b9b31cc26a5760001b610cf7565b600883610afa9190611017565b9250610b287f038a5dfa1063783d7bfac15d87b8ba816c32d983c96754bd1e3d60a2451db60c60001b610cf7565b610b547f0b05bc806f2fc7977a6abc06ec9bd05d004c4d3e340fd359658d6802aad017ab60001b610cf7565b5b6000821115610c9357610b8a7f39060b39d686b0bb47f96fe639e01fb07b44b4ea2af8c72838638d6ff677aa1260001b610cf7565b610bb67feff6fe5c7dabe2461efedd0454e73b4e3a3ecb8df9838e29bfc76b031e4b685b60001b610cf7565b83602084610bc49190610fe6565b60208110610bd557610bd4610e59565b5b1a60f81b8183610be490610ec1565b93508381518110610bf857610bf7610e59565b5b60200101907effffffffffffffffffffffffffffffffffffffffffffffffffffffffffffff1916908160001a905350610c537f7b0bcd028672cbae80e8d86ed13fae7ebd0018bffc21ef2f4fdeabb6d3d92f4460001b610cf7565b610c7f7f6a369aae6e1c640cfcfe643dc8b95962e56128002276da885e4be38c2f026e8c60001b610cf7565b602083610c8c9190611017565b9250610b55565b610cbf7fadcc708edc5f1091125372b58df0e132e7c84cae02f35d47eb9958019f9243f260001b610cf7565b610ceb7f8cd71f5911356fec223c4180fd41c44c93bb45ebf669fb6d9e8b5447df0f9b7e60001b610cf7565b80945050505050919050565b50565b600080fd5b6000819050919050565b610d1281610cff565b8114610d1d57600080fd5b50565b600081359050610d2f81610d09565b92915050565b600060208284031215610d4b57610d4a610cfa565b5b6000610d5984828501610d20565b91505092915050565b600081519050919050565b600082825260208201905092915050565b60005b83811015610d9c578082015181840152602081019050610d81565b83811115610dab576000848401525b50505050565b6000601f19601f8301169050919050565b6000610dcd82610d62565b610dd78185610d6d565b9350610de7818560208601610d7e565b610df081610db1565b840191505092915050565b60006020820190508181036000830152610e158184610dc2565b905092915050565b6000819050919050565b610e38610e3382610cff565b610e1d565b82525050565b6000610e4a8284610e27565b60208201915081905092915050565b7f4e487b7100000000000000000000000000000000000000000000000000000000600052603260045260246000fd5b7f4e487b7100000000000000000000000000000000000000000000000000000000600052601160045260246000fd5b6000819050919050565b6000610ecc82610eb7565b915060008203610edf57610ede610e88565b5b600182039050919050565b6000610ef582610eb7565b9150610f0083610eb7565b9250827fffffffffffffffffffffffffffffffffffffffffffffffffffffffffffffffff03821115610f3557610f34610e88565b5b828201905092915050565b7f4e487b7100000000000000000000000000000000000000000000000000000000600052604160045260246000fd5b6000610f7a82610eb7565b91507fffffffffffffffffffffffffffffffffffffffffffffffffffffffffffffffff8203610fac57610fab610e88565b5b600182019050919050565b7f4e487b7100000000000000000000000000000000000000000000000000000000600052601260045260246000fd5b6000610ff182610eb7565b9150610ffc83610eb7565b92508261100c5761100b610fb7565b5b828206905092915050565b600061102282610eb7565b915061102d83610eb7565b92508261103d5761103c610fb7565b5b82820490509291505056fea26469706673582212208ede65d68170e60b4a68955e49d7c5e738160c2f62f08ba4fcc0498240b8913c64736f6c634300080d0033",
  "linkReferences": {},
  "deployedLinkReferences": {}
}