{
  "_format": "hh-sol-artifact-1",
  "contractName": "ERC1155FullBurnProxied",
  "sourceName": "contracts/token/ERC1155/preset/proxied/ERC1155FullBurnProxied.sol",
  "abi": [
    {
      "inputs": [
        {
          "internalType": "contract IForwarderRegistry",
          "name": "forwarderRegistry",
          "type": "address"
        }
      ],
      "stateMutability": "nonpayable",
      "type": "constructor"
    },
    {
      "inputs": [],
      "name": "ERC1155BalanceOfAddressZero",
      "type": "error"
    },
    {
      "inputs": [
        {
          "internalType": "address",
          "name": "recipient",
          "type": "address"
        },
        {
          "internalType": "uint256",
          "name": "id",
          "type": "uint256"
        },
        {
          "internalType": "uint256",
          "name": "balance",
          "type": "uint256"
        },
        {
          "internalType": "uint256",
          "name": "value",
          "type": "uint256"
        }
      ],
      "name": "ERC1155BalanceOverflow",
      "type": "error"
    },
    {
      "inputs": [
        {
          "internalType": "address",
          "name": "owner",
          "type": "address"
        },
        {
          "internalType": "uint256",
          "name": "id",
          "type": "uint256"
        },
        {
          "internalType": "uint256",
          "name": "balance",
          "type": "uint256"
        },
        {
          "internalType": "uint256",
          "name": "value",
          "type": "uint256"
        }
      ],
      "name": "ERC1155InsufficientBalance",
      "type": "error"
    },
    {
      "inputs": [],
      "name": "ERC1155MintToAddressZero",
      "type": "error"
    },
    {
      "inputs": [
        {
          "internalType": "address",
          "name": "sender",
          "type": "address"
        },
        {
          "internalType": "address",
          "name": "owner",
          "type": "address"
        }
      ],
      "name": "ERC1155NonApproved",
      "type": "error"
    },
    {
      "inputs": [
        {
          "internalType": "address",
          "name": "recipient",
          "type": "address"
        },
        {
          "internalType": "uint256[]",
          "name": "ids",
          "type": "uint256[]"
        },
        {
          "internalType": "uint256[]",
          "name": "values",
          "type": "uint256[]"
        }
      ],
      "name": "ERC1155SafeBatchTransferRejected",
      "type": "error"
    },
    {
      "inputs": [
        {
          "internalType": "address",
          "name": "recipient",
          "type": "address"
        },
        {
          "internalType": "uint256",
          "name": "id",
          "type": "uint256"
        },
        {
          "internalType": "uint256",
          "name": "value",
          "type": "uint256"
        }
      ],
      "name": "ERC1155SafeTransferRejected",
      "type": "error"
    },
    {
      "inputs": [
        {
          "internalType": "address",
          "name": "account",
          "type": "address"
        }
      ],
      "name": "ERC1155SelfApprovalForAll",
      "type": "error"
    },
    {
      "inputs": [],
      "name": "ERC1155TransferToAddressZero",
      "type": "error"
    },
    {
      "inputs": [
        {
          "internalType": "uint256",
          "name": "percentage",
          "type": "uint256"
        }
      ],
      "name": "ERC2981IncorrectRoyaltyPercentage",
      "type": "error"
    },
    {
      "inputs": [],
      "name": "ERC2981IncorrectRoyaltyReceiver",
      "type": "error"
    },
    {
      "inputs": [],
      "name": "IllegalInterfaceId",
      "type": "error"
    },
    {
      "inputs": [],
      "name": "InconsistentArrayLengths",
      "type": "error"
    },
    {
      "inputs": [
        {
          "internalType": "uint256",
          "name": "currentPhase",
          "type": "uint256"
        },
        {
          "internalType": "uint256",
          "name": "newPhase",
          "type": "uint256"
        }
      ],
      "name": "InitializationPhaseAlreadyReached",
      "type": "error"
    },
    {
      "inputs": [
        {
          "internalType": "address",
          "name": "account",
          "type": "address"
        }
      ],
      "name": "NotContractOwner",
      "type": "error"
    },
    {
      "inputs": [
        {
          "internalType": "bytes32",
          "name": "role",
          "type": "bytes32"
        },
        {
          "internalType": "address",
          "name": "account",
          "type": "address"
        }
      ],
      "name": "NotRoleHolder",
      "type": "error"
    },
    {
      "inputs": [
        {
          "internalType": "address",
          "name": "operator",
          "type": "address"
        }
      ],
      "name": "OperatorNotAllowed",
      "type": "error"
    },
    {
      "anonymous": false,
      "inputs": [
        {
          "indexed": true,
          "internalType": "address",
          "name": "owner",
          "type": "address"
        },
        {
          "indexed": true,
          "internalType": "address",
          "name": "operator",
          "type": "address"
        },
        {
          "indexed": false,
          "internalType": "bool",
          "name": "approved",
          "type": "bool"
        }
      ],
      "name": "ApprovalForAll",
      "type": "event"
    },
    {
      "anonymous": false,
      "inputs": [
        {
          "indexed": true,
          "internalType": "address",
          "name": "previousOwner",
          "type": "address"
        },
        {
          "indexed": true,
          "internalType": "address",
          "name": "newOwner",
          "type": "address"
        }
      ],
      "name": "OwnershipTransferred",
      "type": "event"
    },
    {
      "anonymous": false,
      "inputs": [
        {
          "indexed": false,
          "internalType": "bytes32",
          "name": "role",
          "type": "bytes32"
        },
        {
          "indexed": false,
          "internalType": "address",
          "name": "account",
          "type": "address"
        },
        {
          "indexed": false,
          "internalType": "address",
          "name": "operator",
          "type": "address"
        }
      ],
      "name": "RoleGranted",
      "type": "event"
    },
    {
      "anonymous": false,
      "inputs": [
        {
          "indexed": false,
          "internalType": "bytes32",
          "name": "role",
          "type": "bytes32"
        },
        {
          "indexed": false,
          "internalType": "address",
          "name": "account",
          "type": "address"
        },
        {
          "indexed": false,
          "internalType": "address",
          "name": "operator",
          "type": "address"
        }
      ],
      "name": "RoleRevoked",
      "type": "event"
    },
    {
      "anonymous": false,
      "inputs": [
        {
          "indexed": true,
          "internalType": "address",
          "name": "operator",
          "type": "address"
        },
        {
          "indexed": true,
          "internalType": "address",
          "name": "from",
          "type": "address"
        },
        {
          "indexed": true,
          "internalType": "address",
          "name": "to",
          "type": "address"
        },
        {
          "indexed": false,
          "internalType": "uint256[]",
          "name": "ids",
          "type": "uint256[]"
        },
        {
          "indexed": false,
          "internalType": "uint256[]",
          "name": "values",
          "type": "uint256[]"
        }
      ],
      "name": "TransferBatch",
      "type": "event"
    },
    {
      "anonymous": false,
      "inputs": [
        {
          "indexed": true,
          "internalType": "address",
          "name": "operator",
          "type": "address"
        },
        {
          "indexed": true,
          "internalType": "address",
          "name": "from",
          "type": "address"
        },
        {
          "indexed": true,
          "internalType": "address",
          "name": "to",
          "type": "address"
        },
        {
          "indexed": false,
          "internalType": "uint256",
          "name": "id",
          "type": "uint256"
        },
        {
          "indexed": false,
          "internalType": "uint256",
          "name": "value",
          "type": "uint256"
        }
      ],
      "name": "TransferSingle",
      "type": "event"
    },
    {
      "anonymous": false,
      "inputs": [
        {
          "indexed": false,
          "internalType": "string",
          "name": "value",
          "type": "string"
        },
        {
          "indexed": true,
          "internalType": "uint256",
          "name": "id",
          "type": "uint256"
        }
      ],
      "name": "URI",
      "type": "event"
    },
    {
      "inputs": [],
      "name": "MINTER_ROLE",
      "outputs": [
        {
          "internalType": "bytes32",
          "name": "",
          "type": "bytes32"
        }
      ],
      "stateMutability": "view",
      "type": "function"
    },
    {
      "inputs": [],
      "name": "ROYALTY_FEE_DENOMINATOR",
      "outputs": [
        {
          "internalType": "uint256",
          "name": "",
          "type": "uint256"
        }
      ],
      "stateMutability": "view",
      "type": "function"
    },
    {
      "inputs": [
        {
          "internalType": "address",
          "name": "owner",
          "type": "address"
        },
        {
          "internalType": "uint256",
          "name": "id",
          "type": "uint256"
        }
      ],
      "name": "balanceOf",
      "outputs": [
        {
          "internalType": "uint256",
          "name": "balance",
          "type": "uint256"
        }
      ],
      "stateMutability": "view",
      "type": "function"
    },
    {
      "inputs": [
        {
          "internalType": "address[]",
          "name": "owners",
          "type": "address[]"
        },
        {
          "internalType": "uint256[]",
          "name": "ids",
          "type": "uint256[]"
        }
      ],
      "name": "balanceOfBatch",
      "outputs": [
        {
          "internalType": "uint256[]",
          "name": "balances",
          "type": "uint256[]"
        }
      ],
      "stateMutability": "view",
      "type": "function"
    },
    {
      "inputs": [
        {
          "internalType": "address",
          "name": "from",
          "type": "address"
        },
        {
          "internalType": "uint256[]",
          "name": "ids",
          "type": "uint256[]"
        },
        {
          "internalType": "uint256[]",
          "name": "values",
          "type": "uint256[]"
        }
      ],
      "name": "batchBurnFrom",
      "outputs": [],
      "stateMutability": "nonpayable",
      "type": "function"
    },
    {
      "inputs": [
        {
          "internalType": "address",
          "name": "from",
          "type": "address"
        },
        {
          "internalType": "uint256",
          "name": "id",
          "type": "uint256"
        },
        {
          "internalType": "uint256",
          "name": "value",
          "type": "uint256"
        }
      ],
      "name": "burnFrom",
      "outputs": [],
      "stateMutability": "nonpayable",
      "type": "function"
    },
    {
      "inputs": [],
      "name": "forwarderRegistry",
      "outputs": [
        {
          "internalType": "contract IForwarderRegistry",
          "name": "",
          "type": "address"
        }
      ],
      "stateMutability": "view",
      "type": "function"
    },
    {
      "inputs": [
        {
          "internalType": "bytes32",
          "name": "role",
          "type": "bytes32"
        },
        {
          "internalType": "address",
          "name": "account",
          "type": "address"
        }
      ],
      "name": "grantRole",
      "outputs": [],
      "stateMutability": "nonpayable",
      "type": "function"
    },
    {
      "inputs": [
        {
          "internalType": "bytes32",
          "name": "role",
          "type": "bytes32"
        },
        {
          "internalType": "address",
          "name": "account",
          "type": "address"
        }
      ],
      "name": "hasRole",
      "outputs": [
        {
          "internalType": "bool",
          "name": "hasRole_",
          "type": "bool"
        }
      ],
      "stateMutability": "view",
      "type": "function"
    },
    {
      "inputs": [
        {
          "internalType": "string",
          "name": "tokenName",
          "type": "string"
        },
        {
          "internalType": "string",
          "name": "tokenSymbol",
          "type": "string"
        },
        {
          "internalType": "contract ITokenMetadataResolver",
          "name": "metadataResolver",
          "type": "address"
        },
        {
          "internalType": "contract IOperatorFilterRegistry",
          "name": "filterRegistry",
          "type": "address"
        }
      ],
      "name": "init",
      "outputs": [],
      "stateMutability": "nonpayable",
      "type": "function"
    },
    {
      "inputs": [
        {
          "internalType": "address",
          "name": "owner",
          "type": "address"
        },
        {
          "internalType": "address",
          "name": "operator",
          "type": "address"
        }
      ],
      "name": "isApprovedForAll",
      "outputs": [
        {
          "internalType": "bool",
          "name": "approvedForAll",
          "type": "bool"
        }
      ],
      "stateMutability": "view",
      "type": "function"
    },
    {
      "inputs": [
        {
          "internalType": "address",
          "name": "forwarder",
          "type": "address"
        }
      ],
      "name": "isTrustedForwarder",
      "outputs": [
        {
          "internalType": "bool",
          "name": "",
          "type": "bool"
        }
      ],
      "stateMutability": "view",
      "type": "function"
    },
    {
      "inputs": [],
      "name": "metadataResolver",
      "outputs": [
        {
          "internalType": "contract ITokenMetadataResolver",
          "name": "tokenMetadataResolver",
          "type": "address"
        }
      ],
      "stateMutability": "view",
      "type": "function"
    },
    {
      "inputs": [],
      "name": "name",
      "outputs": [
        {
          "internalType": "string",
          "name": "tokenName",
          "type": "string"
        }
      ],
      "stateMutability": "view",
      "type": "function"
    },
    {
      "inputs": [],
      "name": "operatorFilterRegistry",
      "outputs": [
        {
          "internalType": "contract IOperatorFilterRegistry",
          "name": "",
          "type": "address"
        }
      ],
      "stateMutability": "view",
      "type": "function"
    },
    {
      "inputs": [],
      "name": "owner",
      "outputs": [
        {
          "internalType": "address",
          "name": "",
          "type": "address"
        }
      ],
      "stateMutability": "view",
      "type": "function"
    },
    {
      "inputs": [
        {
          "internalType": "address[]",
          "name": "accounts",
          "type": "address[]"
        },
        {
          "internalType": "contract IERC20[]",
          "name": "tokens",
          "type": "address[]"
        },
        {
          "internalType": "uint256[]",
          "name": "amounts",
          "type": "uint256[]"
        }
      ],
      "name": "recoverERC20s",
      "outputs": [],
      "stateMutability": "nonpayable",
      "type": "function"
    },
    {
      "inputs": [
        {
          "internalType": "address[]",
          "name": "accounts",
          "type": "address[]"
        },
        {
          "internalType": "contract IERC721[]",
          "name": "contracts",
          "type": "address[]"
        },
        {
          "internalType": "uint256[]",
          "name": "tokenIds",
          "type": "uint256[]"
        }
      ],
      "name": "recoverERC721s",
      "outputs": [],
      "stateMutability": "nonpayable",
      "type": "function"
    },
    {
      "inputs": [
        {
          "internalType": "address payable[]",
          "name": "accounts",
          "type": "address[]"
        },
        {
          "internalType": "uint256[]",
          "name": "amounts",
          "type": "uint256[]"
        }
      ],
      "name": "recoverETH",
      "outputs": [],
      "stateMutability": "nonpayable",
      "type": "function"
    },
    {
      "inputs": [
        {
          "internalType": "bytes32",
          "name": "role",
          "type": "bytes32"
        }
      ],
      "name": "renounceRole",
      "outputs": [],
      "stateMutability": "nonpayable",
      "type": "function"
    },
    {
      "inputs": [
        {
          "internalType": "bytes32",
          "name": "role",
          "type": "bytes32"
        },
        {
          "internalType": "address",
          "name": "account",
          "type": "address"
        }
      ],
      "name": "revokeRole",
      "outputs": [],
      "stateMutability": "nonpayable",
      "type": "function"
    },
    {
      "inputs": [
        {
          "internalType": "uint256",
          "name": "tokenId",
          "type": "uint256"
        },
        {
          "internalType": "uint256",
          "name": "salePrice",
          "type": "uint256"
        }
      ],
      "name": "royaltyInfo",
      "outputs": [
        {
          "internalType": "address",
          "name": "receiver",
          "type": "address"
        },
        {
          "internalType": "uint256",
          "name": "royaltyAmount",
          "type": "uint256"
        }
      ],
      "stateMutability": "view",
      "type": "function"
    },
    {
      "inputs": [
        {
          "internalType": "address",
          "name": "to",
          "type": "address"
        },
        {
          "internalType": "uint256[]",
          "name": "ids",
          "type": "uint256[]"
        },
        {
          "internalType": "uint256[]",
          "name": "values",
          "type": "uint256[]"
        },
        {
          "internalType": "bytes",
          "name": "data",
          "type": "bytes"
        }
      ],
      "name": "safeBatchMint",
      "outputs": [],
      "stateMutability": "nonpayable",
      "type": "function"
    },
    {
      "inputs": [
        {
          "internalType": "address",
          "name": "from",
          "type": "address"
        },
        {
          "internalType": "address",
          "name": "to",
          "type": "address"
        },
        {
          "internalType": "uint256[]",
          "name": "ids",
          "type": "uint256[]"
        },
        {
          "internalType": "uint256[]",
          "name": "values",
          "type": "uint256[]"
        },
        {
          "internalType": "bytes",
          "name": "data",
          "type": "bytes"
        }
      ],
      "name": "safeBatchTransferFrom",
      "outputs": [],
      "stateMutability": "nonpayable",
      "type": "function"
    },
    {
      "inputs": [
        {
          "internalType": "address[]",
          "name": "recipients",
          "type": "address[]"
        },
        {
          "internalType": "uint256[]",
          "name": "ids",
          "type": "uint256[]"
        },
        {
          "internalType": "uint256[]",
          "name": "values",
          "type": "uint256[]"
        },
        {
          "internalType": "bytes",
          "name": "data",
          "type": "bytes"
        }
      ],
      "name": "safeDeliver",
      "outputs": [],
      "stateMutability": "nonpayable",
      "type": "function"
    },
    {
      "inputs": [
        {
          "internalType": "address",
          "name": "to",
          "type": "address"
        },
        {
          "internalType": "uint256",
          "name": "id",
          "type": "uint256"
        },
        {
          "internalType": "uint256",
          "name": "value",
          "type": "uint256"
        },
        {
          "internalType": "bytes",
          "name": "data",
          "type": "bytes"
        }
      ],
      "name": "safeMint",
      "outputs": [],
      "stateMutability": "nonpayable",
      "type": "function"
    },
    {
      "inputs": [
        {
          "internalType": "address",
          "name": "from",
          "type": "address"
        },
        {
          "internalType": "address",
          "name": "to",
          "type": "address"
        },
        {
          "internalType": "uint256",
          "name": "id",
          "type": "uint256"
        },
        {
          "internalType": "uint256",
          "name": "value",
          "type": "uint256"
        },
        {
          "internalType": "bytes",
          "name": "data",
          "type": "bytes"
        }
      ],
      "name": "safeTransferFrom",
      "outputs": [],
      "stateMutability": "nonpayable",
      "type": "function"
    },
    {
      "inputs": [
        {
          "internalType": "address",
          "name": "operator",
          "type": "address"
        },
        {
          "internalType": "bool",
          "name": "approved",
          "type": "bool"
        }
      ],
      "name": "setApprovalForAll",
      "outputs": [],
      "stateMutability": "nonpayable",
      "type": "function"
    },
    {
      "inputs": [
        {
          "internalType": "uint256",
          "name": "percentage",
          "type": "uint256"
        }
      ],
      "name": "setRoyaltyPercentage",
      "outputs": [],
      "stateMutability": "nonpayable",
      "type": "function"
    },
    {
      "inputs": [
        {
          "internalType": "address",
          "name": "receiver",
          "type": "address"
        }
      ],
      "name": "setRoyaltyReceiver",
      "outputs": [],
      "stateMutability": "nonpayable",
      "type": "function"
    },
    {
      "inputs": [
        {
          "internalType": "bytes4",
          "name": "interfaceId",
          "type": "bytes4"
        }
      ],
      "name": "supportsInterface",
      "outputs": [
        {
          "internalType": "bool",
          "name": "",
          "type": "bool"
        }
      ],
      "stateMutability": "view",
      "type": "function"
    },
    {
      "inputs": [],
      "name": "symbol",
      "outputs": [
        {
          "internalType": "string",
          "name": "tokenSymbol",
          "type": "string"
        }
      ],
      "stateMutability": "view",
      "type": "function"
    },
    {
      "inputs": [
        {
          "internalType": "address",
          "name": "newOwner",
          "type": "address"
        }
      ],
      "name": "transferOwnership",
      "outputs": [],
      "stateMutability": "nonpayable",
      "type": "function"
    },
    {
      "inputs": [
        {
          "internalType": "contract IOperatorFilterRegistry",
          "name": "registry",
          "type": "address"
        }
      ],
      "name": "updateOperatorFilterRegistry",
      "outputs": [],
      "stateMutability": "nonpayable",
      "type": "function"
    },
    {
      "inputs": [
        {
          "internalType": "uint256",
          "name": "tokenId",
          "type": "uint256"
        }
      ],
      "name": "uri",
      "outputs": [
        {
          "internalType": "string",
          "name": "metadataURI",
          "type": "string"
        }
      ],
      "stateMutability": "view",
      "type": "function"
    }
  ],
  "bytecode": "0x60a06040523480156200001157600080fd5b506040516200449938038062004499833981016040819052620000349162000046565b6001600160a01b031660805262000078565b6000602082840312156200005957600080fd5b81516001600160a01b03811681146200007157600080fd5b9392505050565b6080516143f0620000a960003960008181610345015281816103e001528181612a220152612aaa01526143f06000f3fe608060405234801561001057600080fd5b50600436106102405760003560e01c80638053493411610145578063c3666c36116100bd578063e8ab9ccc1161008c578063f242432a11610071578063f242432a14610552578063f2fde38b14610565578063f7ba94bd1461057857600080fd5b8063e8ab9ccc1461052c578063e985e9c51461053f57600080fd5b8063c3666c36146104d5578063d5391393146104e8578063d547741f1461050f578063e1a8bf2c1461052257600080fd5b806391d1485411610114578063a0c76f62116100f9578063a0c76f62146104b2578063a22cb465146104ba578063b0ccc31e146104cd57600080fd5b806391d148541461049757806395d89b41146104aa57600080fd5b806380534934146104565780638bb9c5bf146104695780638da5cb5b1461047c5780638dc251e31461048457600080fd5b80632a55205a116101d85780634e1273f4116101a75780635cfa92971161018c5780635cfa92971461041d57806361ba27da1461043057806373c8a9581461044357600080fd5b80634e1273f4146103b0578063572b6c05146103d057600080fd5b80632a55205a146103045780632b4c9f16146103435780632eb2c2d61461038a5780632f2ff15d1461039d57600080fd5b80630e07f854116102145780630e07f854146102b85780630e89341c146102cb578063114ba8ee146102de578063124d91e5146102f157600080fd5b8062fdd58e1461024557806301ffc9a71461026b57806306fdde031461028e5780630d6a5bbb146102a3575b600080fd5b610258610253366004613679565b61058b565b6040519081526020015b60405180910390f35b61027e6102793660046136d3565b6105aa565b6040519015158152602001610262565b6102966105be565b6040516102629190613765565b6102b66102b13660046137ff565b6105d5565b005b6102b66102c63660046138ac565b6106d0565b6102966102d9366004613941565b61074d565b6102b66102ec36600461395a565b610763565b6102b66102ff366004613977565b6107ce565b6103176103123660046139ac565b6107f2565b6040805173ffffffffffffffffffffffffffffffffffffffff9093168352602083019190915201610262565b7f00000000000000000000000000000000000000000000000000000000000000005b60405173ffffffffffffffffffffffffffffffffffffffff9091168152602001610262565b6102b66103983660046139ce565b610815565b6102b66103ab366004613a8d565b610862565b6103c36103be366004613abd565b610890565b6040516102629190613b64565b61027e6103de36600461395a565b7f000000000000000000000000000000000000000000000000000000000000000073ffffffffffffffffffffffffffffffffffffffff90811691161490565b6102b661042b366004613b77565b6108b5565b6102b661043e366004613941565b61093f565b6102b6610451366004613be1565b61095c565b6102b6610464366004613c7b565b610a47565b6102b6610477366004613941565b610a71565b610365610a8c565b6102b661049236600461395a565b610ab3565b61027e6104a5366004613a8d565b610ad0565b610296610b14565b610365610b26565b6102b66104c8366004613cfb565b610b50565b610365610b89565b6102b66104e3366004613be1565b610b96565b6102587f6d696e746572000000000000000000000000000000000000000000000000000081565b6102b661051d366004613a8d565b610d0d565b610258620186a081565b6102b661053a366004613d29565b610d3b565b61027e61054d366004613dcc565b610e55565b6102b6610560366004613dfa565b610ea3565b6102b661057336600461395a565b610ee3565b6102b6610586366004613abd565b610efe565b60006105a1838361059a610fb4565b9190610fe2565b90505b92915050565b60006105a4826105b8611066565b90611094565b60606105d06105cb61116e565b61119c565b905090565b60006105df611232565b90506106157f6d696e74657200000000000000000000000000000000000000000000000000008261060e61123c565b919061126a565b6106c6818989898080602002602001604051908101604052809392919081815260200183836020028082843760009201919091525050604080516020808d0282810182019093528c82529093508c92508b91829185019084908082843760009201919091525050604080516020601f8c018190048102820181019092528a815292508a91508990819084018382808284376000920191909152506106bc9250610fb4915050565b94939291906112f5565b5050505050505050565b6106e96106db611232565b6106e361147a565b906114a8565b6106f16114e7565b6106f961151e565b61070161154c565b61070961157a565b6107116115a8565b6107196115d6565b610733868686868661072961116e565b9493929190611604565b6107458161073f61169e565b906116cc565b505050505050565b60606105a4308361075c61116e565b919061173c565b61077c61076e611232565b61077661147a565b906117fc565b6107cb8161078861169e565b9081547fffffffffffffffffffffffff00000000000000000000000000000000000000001673ffffffffffffffffffffffffffffffffffffffff91909116179055565b50565b6107ed6107d9611232565b8484846107e4610fb4565b93929190611867565b505050565b6000806108098484610802611934565b9190611962565b915091505b9250929050565b600061081f611232565b9050610835818a61082e61169e565b9190611a0c565b610857818a8a8a8a8a8a8a8a610849610fb4565b989796959493929190611a49565b505050505050505050565b600061086c611232565b905061087a8161077661147a565b6107ed83838361088861123c565b929190611cd1565b60606108aa858585856108a1610fb4565b93929190611da8565b90505b949350505050565b60006108bf611232565b90506108ee7f6d696e74657200000000000000000000000000000000000000000000000000008261060e61123c565b6107458187878787878080601f0160208091040260200160405190810160405280939291908181526020018383808284376000920191909152506109359250610fb4915050565b9493929190611eb6565b61094a61076e611232565b6107cb81610956611934565b90611f94565b61096761076e611232565b8483811415806109775750808214155b156109ae576040517f6582533600000000000000000000000000000000000000000000000000000000815260040160405180910390fd5b60005b8181146106c657610a3f8888838181106109cd576109cd613e64565b90506020020160208101906109e2919061395a565b8585848181106109f4576109f4613e64565b90506020020135888885818110610a0d57610a0d613e64565b9050602002016020810190610a22919061395a565b73ffffffffffffffffffffffffffffffffffffffff16919061201a565b6001016109b1565b610a6a610a52611232565b8686868686610a5f610fb4565b9594939291906120a7565b5050505050565b6107cb610a7c611232565b82610a8561123c565b919061221e565b60006105d0610a9961147a565b5473ffffffffffffffffffffffffffffffffffffffff1690565b610abe61076e611232565b6107cb81610aca611934565b906122c2565b60006105a18383610adf61123c565b60009283526020908152604080842073ffffffffffffffffffffffffffffffffffffffff909316845291905290205460ff1690565b60606105d0610b2161116e565b61230f565b60006105d0610b3361116e565b6002015473ffffffffffffffffffffffffffffffffffffffff1690565b8015610b6857610b6882610b6261169e565b90612320565b610b85610b73611232565b8383610b7d610fb4565b92919061232a565b5050565b60006105d0610a9961169e565b610ba161076e611232565b848381141580610bb15750808214155b15610be8576040517f6582533600000000000000000000000000000000000000000000000000000000815260040160405180910390fd5b60005b8181146106c657858582818110610c0457610c04613e64565b9050602002016020810190610c19919061395a565b73ffffffffffffffffffffffffffffffffffffffff166323b872dd308a8a85818110610c4757610c47613e64565b9050602002016020810190610c5c919061395a565b878786818110610c6e57610c6e613e64565b6040517fffffffff0000000000000000000000000000000000000000000000000000000060e088901b16815273ffffffffffffffffffffffffffffffffffffffff958616600482015294909316602485015250602090910201356044820152606401600060405180830381600087803b158015610cea57600080fd5b505af1158015610cfe573d6000803e3d6000fd5b50505050806001019050610beb565b6000610d17611232565b9050610d258161077661147a565b6107ed838383610d3361123c565b929190612442565b6000610d45611232565b9050610d747f6d696e74657200000000000000000000000000000000000000000000000000008261060e61123c565b610857818a8a8080602002602001604051908101604052809392919081815260200183836020028082843760009201919091525050604080516020808e0282810182019093528d82529093508d92508c91829185019084908082843760009201919091525050604080516020808d0282810182019093528c82529093508c92508b91829185019084908082843760009201919091525050604080516020601f8c018190048102820181019092528a815292508a9150899081908401838280828437600092019190915250610e4b9250610fb4915050565b949392919061250c565b60006105a18383610e64610fb4565b919073ffffffffffffffffffffffffffffffffffffffff9182166000908152600193909301602090815260408085209290931684525290205460ff1690565b6000610ead611232565b9050610ebc818861082e61169e565b610eda81888888888888610ece610fb4565b969594939291906125ce565b50505050505050565b6107cb610eee611232565b82610ef761147a565b9190612771565b610f0961076e611232565b82818114610f43576040517f6582533600000000000000000000000000000000000000000000000000000000815260040160405180910390fd5b60005b81811461074557610fac848483818110610f6257610f62613e64565b90506020020135878784818110610f7b57610f7b613e64565b9050602002016020810190610f90919061395a565b73ffffffffffffffffffffffffffffffffffffffff1690612885565b600101610f46565b6000806105a460017f5ccf5846fa27a68fafc8e588671a68f5e67c2f9b56af4263806a4d71735e8613613ec2565b600073ffffffffffffffffffffffffffffffffffffffff8316611031576040517fca2434a500000000000000000000000000000000000000000000000000000000815260040160405180910390fd5b5060009081526020928352604080822073ffffffffffffffffffffffffffffffffffffffff9390931682529190925290205490565b6000806105a460017fca9d3e17f264b0f3984e2634e94adb37fa3e6a8103f06aeae6fa59e21c769f5e613ec2565b60007c01000000000000000000000000000000000000000000000000000000007fffffffff000000000000000000000000000000000000000000000000000000008316016110e4575060006105a4565b7ffe003659000000000000000000000000000000000000000000000000000000007fffffffff00000000000000000000000000000000000000000000000000000000831601611135575060016105a4565b507fffffffff00000000000000000000000000000000000000000000000000000000166000908152602091909152604090205460ff1690565b6000806105a460017f7ea68fd2dcf1c056b94db6a0a537aa80d26fa9ab1eacd85da1ba0b61b7e7a8a5613ec2565b60608160000180546111ad90613ed5565b80601f01602080910402602001604051908101604052809291908181526020018280546111d990613ed5565b80156112265780601f106111fb57610100808354040283529160200191611226565b820191906000526020600020905b81548152906001019060200180831161120957829003601f168201915b50505050509050919050565b60006105d06129df565b6000806105a460017fc8827d3282af6f37b64c3e9e6f3ac9df286ab0bb0fccd6f8661bf19adb368b23613ec2565b60008281526020848152604080832073ffffffffffffffffffffffffffffffffffffffff8516845290915290205460ff166107ed576040517f7aa728820000000000000000000000000000000000000000000000000000000081526004810183905273ffffffffffffffffffffffffffffffffffffffff821660248201526044015b60405180910390fd5b73ffffffffffffffffffffffffffffffffffffffff8416611342576040517f021149bd00000000000000000000000000000000000000000000000000000000815260040160405180910390fd5b82518251811461137e576040517f6582533600000000000000000000000000000000000000000000000000000000815260040160405180910390fd5b60005b8181146113ce576113c6888787848151811061139f5761139f613e64565b60200260200101518785815181106113b9576113b9613e64565b6020026020010151612b26565b600101611381565b508473ffffffffffffffffffffffffffffffffffffffff16600073ffffffffffffffffffffffffffffffffffffffff168773ffffffffffffffffffffffffffffffffffffffff167f4a39dc06d4c0dbc64b70af90fd698a233a518aa5d07e595d983b8c0526c8f7fb8787604051611446929190613f28565b60405180910390a473ffffffffffffffffffffffffffffffffffffffff85163b15610eda57610eda86600087878787612bf7565b6000806105a460017fc9ed16f33ab3a66c84bfd83099ccb2a8845871e2e1c1928f63797152f0fd54cd613ec2565b6114dd6114d660017f5b388d90dc1312ba799f321972f13311234fa1163bcabec7cf66101c4876eb84613ec2565b6001612cf5565b610b858282612d41565b61151c7fd9b67a26000000000000000000000000000000000000000000000000000000006001611515611066565b9190612df7565b565b61151c7f0e89341c000000000000000000000000000000000000000000000000000000006001611515611066565b61151c7f5190c92c000000000000000000000000000000000000000000000000000000006001611515611066565b61151c7fe8ab9ccc000000000000000000000000000000000000000000000000000000006001611515611066565b61151c7f921ed8d1000000000000000000000000000000000000000000000000000000006001611515611066565b61151c7f2a55205a000000000000000000000000000000000000000000000000000000006001611515611066565b6116326114d660017f92f72593ca50a0096f68ee94e7000db40ed086164b695855e2250750b8bfaf59613ec2565b8561163e858783613fcb565b506001860161164e838583613fcb565b5060029590950180547fffffffffffffffffffffffff00000000000000000000000000000000000000001673ffffffffffffffffffffffffffffffffffffffff9096169590951790945550505050565b6000806105a460017f609b85bcafa81ecfaf3ff62cdde2c6c9082a68dbe4922f07399c706bdeb7cd31613ec2565b6116fa6114d660017f2f02d396cb1be29636682c8684200b30a98554d3b74293aa4495cb5e1d252f6e613ec2565b81547fffffffffffffffffffffffff00000000000000000000000000000000000000001673ffffffffffffffffffffffffffffffffffffffff91909116179055565b60028301546040517ff724dad700000000000000000000000000000000000000000000000000000000815273ffffffffffffffffffffffffffffffffffffffff848116600483015260248201849052606092169063f724dad790604401600060405180830381865afa1580156117b6573d6000803e3d6000fd5b505050506040513d6000823e601f3d9081017fffffffffffffffffffffffffffffffffffffffffffffffffffffffffffffffe01682016040526108ad91908101906140e5565b815473ffffffffffffffffffffffffffffffffffffffff828116911614610b85576040517f2ef4875e00000000000000000000000000000000000000000000000000000000815273ffffffffffffffffffffffffffffffffffffffff821660048201526024016112ec565b611872858486612ed3565b6118c8576040517f05bbb9c400000000000000000000000000000000000000000000000000000000815273ffffffffffffffffffffffffffffffffffffffff8086166004830152841660248201526044016112ec565b6118d485848484612f48565b604080518381526020810183905260009173ffffffffffffffffffffffffffffffffffffffff86811692908816917fc3d58168c5ae7397731d063d5bbf3d657854427343f4c083240f7aacaa2d0f62910160405180910390a45050505050565b6000806105a460017f2c0cf10337caabbd02dcf226f05f5fd19a0919a41a8df8958c39b80007826858613ec2565b825473ffffffffffffffffffffffffffffffffffffffff8116906000907401000000000000000000000000000000000000000090046bffffffffffffffffffffffff168315806119b0575080155b156119be5760009150611a03565b620186a08410156119e857620186a06119d782866141a5565b6119e191906141bc565b9150611a03565b806119f6620186a0866141bc565b611a0091906141a5565b91505b50935093915050565b8073ffffffffffffffffffffffffffffffffffffffff168273ffffffffffffffffffffffffffffffffffffffff16146107ed576107ed8383612fe5565b73ffffffffffffffffffffffffffffffffffffffff8716611a96576040517fb5e8901500000000000000000000000000000000000000000000000000000000815260040160405180910390fd5b84838114611ad0576040517f6582533600000000000000000000000000000000000000000000000000000000815260040160405180910390fd5b611adb8b8a8c612ed3565b611b31576040517f05bbb9c400000000000000000000000000000000000000000000000000000000815273ffffffffffffffffffffffffffffffffffffffff808c1660048301528a1660248201526044016112ec565b60005b818114611b8057611b788c8b8b8b8b86818110611b5357611b53613e64565b905060200201358a8a87818110611b6c57611b6c613e64565b9050602002013561310c565b600101611b34565b508773ffffffffffffffffffffffffffffffffffffffff168973ffffffffffffffffffffffffffffffffffffffff168b73ffffffffffffffffffffffffffffffffffffffff167f4a39dc06d4c0dbc64b70af90fd698a233a518aa5d07e595d983b8c0526c8f7fb8a8a8a8a604051611bfb9493929190614242565b60405180910390a473ffffffffffffffffffffffffffffffffffffffff88163b15611cc457611cc48a8a8a8a8a8080602002602001604051908101604052809392919081815260200183836020028082843760009201919091525050604080516020808e0282810182019093528d82529093508d92508c91829185019084908082843760009201919091525050604080516020601f8d018190048102820181019092528b815292508b91508a9081908401838280828437600092019190915250612bf792505050565b5050505050505050505050565b60008381526020858152604080832073ffffffffffffffffffffffffffffffffffffffff8616845290915290205460ff16611da25760008381526020858152604080832073ffffffffffffffffffffffffffffffffffffffff8681168086529184529382902080547fffffffffffffffffffffffffffffffffffffffffffffffffffffffffffffff00166001179055815187815292830152918316918101919091527f2f8788117e7eff1d82e926ec794901d17c78024a50270940304540a733656f0d906060015b60405180910390a15b50505050565b606083828114611de4576040517f6582533600000000000000000000000000000000000000000000000000000000815260040160405180910390fd5b8467ffffffffffffffff811115611dfd57611dfd613f56565b604051908082528060200260200182016040528015611e26578160200160208202803683370190505b50915060005b818114611eab57611e86878783818110611e4857611e48613e64565b9050602002016020810190611e5d919061395a565b868684818110611e6f57611e6f613e64565b905060200201358a610fe29092919063ffffffff16565b838281518110611e9857611e98613e64565b6020908102919091010152600101611e2c565b505095945050505050565b73ffffffffffffffffffffffffffffffffffffffff8416611f03576040517f021149bd00000000000000000000000000000000000000000000000000000000815260040160405180910390fd5b611f0f86858585612b26565b604080518481526020810184905273ffffffffffffffffffffffffffffffffffffffff80871692600092918916917fc3d58168c5ae7397731d063d5bbf3d657854427343f4c083240f7aacaa2d0f62910160405180910390a473ffffffffffffffffffffffffffffffffffffffff84163b1561074557610745856000868686866132b9565b620186a0811115611fd4576040517fac040408000000000000000000000000000000000000000000000000000000008152600481018290526024016112ec565b81546bffffffffffffffffffffffff909116740100000000000000000000000000000000000000000273ffffffffffffffffffffffffffffffffffffffff909116179055565b6040805173ffffffffffffffffffffffffffffffffffffffff8416602482015260448082018490528251808303909101815260649091019091526020810180517bffffffffffffffffffffffffffffffffffffffffffffffffffffffff167fa9059cbb000000000000000000000000000000000000000000000000000000001790526107ed9084906133d7565b828181146120e1576040517f6582533600000000000000000000000000000000000000000000000000000000815260040160405180910390fd5b6120ec888789612ed3565b612142576040517f05bbb9c400000000000000000000000000000000000000000000000000000000815273ffffffffffffffffffffffffffffffffffffffff8089166004830152871660248201526044016112ec565b60005b81811461219057612188898888888581811061216357612163613e64565b9050602002013587878681811061217c5761217c613e64565b90506020020135612f48565b600101612145565b50600073ffffffffffffffffffffffffffffffffffffffff168673ffffffffffffffffffffffffffffffffffffffff168873ffffffffffffffffffffffffffffffffffffffff167f4a39dc06d4c0dbc64b70af90fd698a233a518aa5d07e595d983b8c0526c8f7fb8888888860405161220c9493929190614242565b60405180910390a45050505050505050565b61222983828461126a565b60008181526020848152604080832073ffffffffffffffffffffffffffffffffffffffff86168085529083529281902080547fffffffffffffffffffffffffffffffffffffffffffffffffffffffffffffff0016905580518481529182018390528101919091527ff6391f5c32d9c69d2a47ea670b442974b53935d1edc7fd64eb21e047a839171b9060600160405180910390a1505050565b73ffffffffffffffffffffffffffffffffffffffff81166116fa576040517f16de0c8000000000000000000000000000000000000000000000000000000000815260040160405180910390fd5b60608160010180546111ad90613ed5565b610b858282612fe5565b8273ffffffffffffffffffffffffffffffffffffffff168273ffffffffffffffffffffffffffffffffffffffff16036123a7576040517ffb0fdf6100000000000000000000000000000000000000000000000000000000815273ffffffffffffffffffffffffffffffffffffffff841660048201526024016112ec565b73ffffffffffffffffffffffffffffffffffffffff838116600081815260018701602090815260408083209487168084529482529182902080547fffffffffffffffffffffffffffffffffffffffffffffffffffffffffffffff001686151590811790915591519182527f17307eab39ab6107e8899845ad3d59bd9653f200f220920489ca2b5937696c31910160405180910390a350505050565b60008381526020858152604080832073ffffffffffffffffffffffffffffffffffffffff8616845290915290205460ff1615611da25760008381526020858152604080832073ffffffffffffffffffffffffffffffffffffffff8681168086529184529382902080547fffffffffffffffffffffffffffffffffffffffffffffffffffffffffffffff00169055815187815292830152918316918101919091527ff6391f5c32d9c69d2a47ea670b442974b53935d1edc7fd64eb21e047a839171b90606001611d99565b835183518114158061251f575082518114155b15612556576040517f6582533600000000000000000000000000000000000000000000000000000000815260040160405180910390fd5b60005b8181146106c6576125c68787838151811061257657612576613e64565b602002602001015187848151811061259057612590613e64565b60200260200101518785815181106125aa576125aa613e64565b6020026020010151878d611eb69095949392919063ffffffff16565b600101612559565b73ffffffffffffffffffffffffffffffffffffffff851661261b576040517fb5e8901500000000000000000000000000000000000000000000000000000000815260040160405180910390fd5b612626888789612ed3565b61267c576040517f05bbb9c400000000000000000000000000000000000000000000000000000000815273ffffffffffffffffffffffffffffffffffffffff8089166004830152871660248201526044016112ec565b612689888787878761310c565b8473ffffffffffffffffffffffffffffffffffffffff168673ffffffffffffffffffffffffffffffffffffffff168873ffffffffffffffffffffffffffffffffffffffff167fc3d58168c5ae7397731d063d5bbf3d657854427343f4c083240f7aacaa2d0f628787604051612708929190918252602082015260400190565b60405180910390a473ffffffffffffffffffffffffffffffffffffffff85163b156106c6576106c6878787878787878080601f0160208091040260200160405190810160405280939291908181526020018383808284376000920191909152506132b992505050565b825473ffffffffffffffffffffffffffffffffffffffff90811690831681146127de576040517f2ef4875e00000000000000000000000000000000000000000000000000000000815273ffffffffffffffffffffffffffffffffffffffff841660048201526024016112ec565b8173ffffffffffffffffffffffffffffffffffffffff168173ffffffffffffffffffffffffffffffffffffffff1614611da25783547fffffffffffffffffffffffff00000000000000000000000000000000000000001673ffffffffffffffffffffffffffffffffffffffff8381169182178655604051908316907f8be0079c531659141344cd1fd0a4f28419497f9722a3daafe3b4186f6b6457e090600090a350505050565b804710156128ef576040517f08c379a000000000000000000000000000000000000000000000000000000000815260206004820152601d60248201527f416464726573733a20696e73756666696369656e742062616c616e636500000060448201526064016112ec565b60008273ffffffffffffffffffffffffffffffffffffffff168260405160006040518083038185875af1925050503d8060008114612949576040519150601f19603f3d011682016040523d82523d6000602084013e61294e565b606091505b50509050806107ed576040517f08c379a000000000000000000000000000000000000000000000000000000000815260206004820152603a60248201527f416464726573733a20756e61626c6520746f2073656e642076616c75652c207260448201527f6563697069656e74206d6179206861766520726576657274656400000000000060648201526084016112ec565b6000333214806129ef5750601836105b156129f957503390565b7fffffffffffffffffffffffffffffffffffffffffffffffffffffffffffffffec36013560601c7f000000000000000000000000000000000000000000000000000000000000000073ffffffffffffffffffffffffffffffffffffffff16331480612b1557506040517f8929a8ca00000000000000000000000000000000000000000000000000000000815273ffffffffffffffffffffffffffffffffffffffff82811660048301523360248301527f00000000000000000000000000000000000000000000000000000000000000001690638929a8ca90604401602060405180830381865afa158015612af1573d6000803e3d6000fd5b505050506040513d601f19601f82011682018060405250810190612b159190614269565b15612b1f57919050565b3391505090565b8015611da25760008281526020858152604080832073ffffffffffffffffffffffffffffffffffffffff87168452909152902054818101818111612bc3576040517f42fb00bc00000000000000000000000000000000000000000000000000000000815273ffffffffffffffffffffffffffffffffffffffff861660048201526024810185905260448101839052606481018490526084016112ec565b60009384526020958652604080852073ffffffffffffffffffffffffffffffffffffffff9690961685529490955250502055565b6040517fbc197c81000000000000000000000000000000000000000000000000000000008082529073ffffffffffffffffffffffffffffffffffffffff86169063bc197c8190612c53908a908a90899089908990600401614286565b6020604051808303816000875af1158015612c72573d6000803e3d6000fd5b505050506040513d601f19601f82011682018060405250810190612c9691906142f1565b7fffffffff000000000000000000000000000000000000000000000000000000001614610745578383836040517fc287817e0000000000000000000000000000000000000000000000000000000081526004016112ec9392919061430e565b81548290828110612d3c576040517fbf0c18ec00000000000000000000000000000000000000000000000000000000815260048101829052602481018490526044016112ec565b505550565b73ffffffffffffffffffffffffffffffffffffffff811615612dc95781547fffffffffffffffffffffffff00000000000000000000000000000000000000001673ffffffffffffffffffffffffffffffffffffffff821690811783556040516000907f8be0079c531659141344cd1fd0a4f28419497f9722a3daafe3b4186f6b6457e0908290a35b610b857f7f5828d0000000000000000000000000000000000000000000000000000000006001611515611066565b7c01000000000000000000000000000000000000000000000000000000007fffffffff00000000000000000000000000000000000000000000000000000000831601612e6f576040517f72c683bb00000000000000000000000000000000000000000000000000000000815260040160405180910390fd5b7fffffffff00000000000000000000000000000000000000000000000000000000919091166000908152602092909252604090912080547fffffffffffffffffffffffffffffffffffffffffffffffffffffffffffffff0016911515919091179055565b60008173ffffffffffffffffffffffffffffffffffffffff168373ffffffffffffffffffffffffffffffffffffffff1614806108ad57505073ffffffffffffffffffffffffffffffffffffffff9182166000908152600193909301602090815260408085209290931684525290205460ff1690565b8015611da25760008281526020858152604080832073ffffffffffffffffffffffffffffffffffffffff87168452909152902054818103818110612bc3576040517f03dee4c500000000000000000000000000000000000000000000000000000000815273ffffffffffffffffffffffffffffffffffffffff861660048201526024810185905260448101839052606481018490526084016112ec565b815473ffffffffffffffffffffffffffffffffffffffff168015801590613023575060008173ffffffffffffffffffffffffffffffffffffffff163b115b156107ed576040517fc617113400000000000000000000000000000000000000000000000000000000815230600482015273ffffffffffffffffffffffffffffffffffffffff838116602483015282169063c617113490604401602060405180830381865afa15801561309a573d6000803e3d6000fd5b505050506040513d601f19601f820116820180604052508101906130be9190614269565b6107ed576040517fede71dcc00000000000000000000000000000000000000000000000000000000815273ffffffffffffffffffffffffffffffffffffffff831660048201526024016112ec565b8015610a6a5760008281526020868152604080832073ffffffffffffffffffffffffffffffffffffffff881684529091529020548181038181106131a9576040517f03dee4c500000000000000000000000000000000000000000000000000000000815273ffffffffffffffffffffffffffffffffffffffff871660048201526024810185905260448101839052606481018490526084016112ec565b8473ffffffffffffffffffffffffffffffffffffffff168673ffffffffffffffffffffffffffffffffffffffff1614610eda5760008481526020888152604080832073ffffffffffffffffffffffffffffffffffffffff89168452909152902054838101818111613273576040517f42fb00bc00000000000000000000000000000000000000000000000000000000815273ffffffffffffffffffffffffffffffffffffffff881660048201526024810187905260448101839052606481018690526084016112ec565b600086815260208a8152604080832073ffffffffffffffffffffffffffffffffffffffff808d1685528184528285208890558b1684529091529020555050505050505050565b6040517ff23a6e61000000000000000000000000000000000000000000000000000000008082529073ffffffffffffffffffffffffffffffffffffffff86169063f23a6e6190613315908a908a90899089908990600401614359565b6020604051808303816000875af1158015613334573d6000803e3d6000fd5b505050506040513d601f19601f8201168201806040525081019061335891906142f1565b7fffffffff000000000000000000000000000000000000000000000000000000001614610745576040517f40f39d3800000000000000000000000000000000000000000000000000000000815273ffffffffffffffffffffffffffffffffffffffff8516600482015260248101849052604481018390526064016112ec565b6000613439826040518060400160405280602081526020017f5361666545524332303a206c6f772d6c6576656c2063616c6c206661696c65648152508573ffffffffffffffffffffffffffffffffffffffff166134e69092919063ffffffff16565b905080516000148061345a57508080602001905181019061345a9190614269565b6107ed576040517f08c379a000000000000000000000000000000000000000000000000000000000815260206004820152602a60248201527f5361666545524332303a204552433230206f7065726174696f6e20646964206e60448201527f6f7420737563636565640000000000000000000000000000000000000000000060648201526084016112ec565b60606108ad8484600085856000808673ffffffffffffffffffffffffffffffffffffffff16858760405161351a919061439e565b60006040518083038185875af1925050503d8060008114613557576040519150601f19603f3d011682016040523d82523d6000602084013e61355c565b606091505b509150915061356d87838387613578565b979650505050505050565b6060831561360e5782516000036136075773ffffffffffffffffffffffffffffffffffffffff85163b613607576040517f08c379a000000000000000000000000000000000000000000000000000000000815260206004820152601d60248201527f416464726573733a2063616c6c20746f206e6f6e2d636f6e747261637400000060448201526064016112ec565b50816108ad565b6108ad83838151156136235781518083602001fd5b806040517f08c379a00000000000000000000000000000000000000000000000000000000081526004016112ec9190613765565b73ffffffffffffffffffffffffffffffffffffffff811681146107cb57600080fd5b6000806040838503121561368c57600080fd5b823561369781613657565b946020939093013593505050565b7fffffffff00000000000000000000000000000000000000000000000000000000811681146107cb57600080fd5b6000602082840312156136e557600080fd5b81356136f0816136a5565b9392505050565b60005b838110156137125781810151838201526020016136fa565b50506000910152565b600081518084526137338160208601602086016136f7565b601f017fffffffffffffffffffffffffffffffffffffffffffffffffffffffffffffffe0169290920160200192915050565b6020815260006105a1602083018461371b565b60008083601f84011261378a57600080fd5b50813567ffffffffffffffff8111156137a257600080fd5b6020830191508360208260051b850101111561080e57600080fd5b60008083601f8401126137cf57600080fd5b50813567ffffffffffffffff8111156137e757600080fd5b60208301915083602082850101111561080e57600080fd5b60008060008060008060006080888a03121561381a57600080fd5b873561382581613657565b9650602088013567ffffffffffffffff8082111561384257600080fd5b61384e8b838c01613778565b909850965060408a013591508082111561386757600080fd5b6138738b838c01613778565b909650945060608a013591508082111561388c57600080fd5b506138998a828b016137bd565b989b979a50959850939692959293505050565b600080600080600080608087890312156138c557600080fd5b863567ffffffffffffffff808211156138dd57600080fd5b6138e98a838b016137bd565b9098509650602089013591508082111561390257600080fd5b5061390f89828a016137bd565b909550935050604087013561392381613657565b9150606087013561393381613657565b809150509295509295509295565b60006020828403121561395357600080fd5b5035919050565b60006020828403121561396c57600080fd5b81356136f081613657565b60008060006060848603121561398c57600080fd5b833561399781613657565b95602085013595506040909401359392505050565b600080604083850312156139bf57600080fd5b50508035926020909101359150565b60008060008060008060008060a0898b0312156139ea57600080fd5b88356139f581613657565b97506020890135613a0581613657565b9650604089013567ffffffffffffffff80821115613a2257600080fd5b613a2e8c838d01613778565b909850965060608b0135915080821115613a4757600080fd5b613a538c838d01613778565b909650945060808b0135915080821115613a6c57600080fd5b50613a798b828c016137bd565b999c989b5096995094979396929594505050565b60008060408385031215613aa057600080fd5b823591506020830135613ab281613657565b809150509250929050565b60008060008060408587031215613ad357600080fd5b843567ffffffffffffffff80821115613aeb57600080fd5b613af788838901613778565b90965094506020870135915080821115613b1057600080fd5b50613b1d87828801613778565b95989497509550505050565b600081518084526020808501945080840160005b83811015613b5957815187529582019590820190600101613b3d565b509495945050505050565b6020815260006105a16020830184613b29565b600080600080600060808688031215613b8f57600080fd5b8535613b9a81613657565b94506020860135935060408601359250606086013567ffffffffffffffff811115613bc457600080fd5b613bd0888289016137bd565b969995985093965092949392505050565b60008060008060008060608789031215613bfa57600080fd5b863567ffffffffffffffff80821115613c1257600080fd5b613c1e8a838b01613778565b90985096506020890135915080821115613c3757600080fd5b613c438a838b01613778565b90965094506040890135915080821115613c5c57600080fd5b50613c6989828a01613778565b979a9699509497509295939492505050565b600080600080600060608688031215613c9357600080fd5b8535613c9e81613657565b9450602086013567ffffffffffffffff80821115613cbb57600080fd5b613cc789838a01613778565b90965094506040880135915080821115613ce057600080fd5b50613bd088828901613778565b80151581146107cb57600080fd5b60008060408385031215613d0e57600080fd5b8235613d1981613657565b91506020830135613ab281613ced565b6000806000806000806000806080898b031215613d4557600080fd5b883567ffffffffffffffff80821115613d5d57600080fd5b613d698c838d01613778565b909a50985060208b0135915080821115613d8257600080fd5b613d8e8c838d01613778565b909850965060408b0135915080821115613da757600080fd5b613db38c838d01613778565b909650945060608b0135915080821115613a6c57600080fd5b60008060408385031215613ddf57600080fd5b8235613dea81613657565b91506020830135613ab281613657565b60008060008060008060a08789031215613e1357600080fd5b8635613e1e81613657565b95506020870135613e2e81613657565b94506040870135935060608701359250608087013567ffffffffffffffff811115613e5857600080fd5b613c6989828a016137bd565b7f4e487b7100000000000000000000000000000000000000000000000000000000600052603260045260246000fd5b7f4e487b7100000000000000000000000000000000000000000000000000000000600052601160045260246000fd5b818103818111156105a4576105a4613e93565b600181811c90821680613ee957607f821691505b602082108103613f22577f4e487b7100000000000000000000000000000000000000000000000000000000600052602260045260246000fd5b50919050565b604081526000613f3b6040830185613b29565b8281036020840152613f4d8185613b29565b95945050505050565b7f4e487b7100000000000000000000000000000000000000000000000000000000600052604160045260246000fd5b601f8211156107ed57600081815260208120601f850160051c81016020861015613fac5750805b601f850160051c820191505b8181101561074557828155600101613fb8565b67ffffffffffffffff831115613fe357613fe3613f56565b613ff783613ff18354613ed5565b83613f85565b6000601f84116001811461404957600085156140135750838201355b7fffffffffffffffffffffffffffffffffffffffffffffffffffffffffffffffff600387901b1c1916600186901b178355610a6a565b6000838152602090207fffffffffffffffffffffffffffffffffffffffffffffffffffffffffffffffe0861690835b828110156140985786850135825560209485019460019092019101614078565b50868210156140d3577fffffffffffffffffffffffffffffffffffffffffffffffffffffffffffffffff60f88860031b161c19848701351681555b505060018560011b0183555050505050565b6000602082840312156140f757600080fd5b815167ffffffffffffffff8082111561410f57600080fd5b818401915084601f83011261412357600080fd5b81518181111561413557614135613f56565b604051601f82017fffffffffffffffffffffffffffffffffffffffffffffffffffffffffffffffe0908116603f0116810190838211818310171561417b5761417b613f56565b8160405282815287602084870101111561419457600080fd5b61356d8360208301602088016136f7565b80820281158282048414176105a4576105a4613e93565b6000826141f2577f4e487b7100000000000000000000000000000000000000000000000000000000600052601260045260246000fd5b500490565b81835260007f07ffffffffffffffffffffffffffffffffffffffffffffffffffffffffffffff83111561422957600080fd5b8260051b80836020870137939093016020019392505050565b6040815260006142566040830186886141f7565b828103602084015261356d8185876141f7565b60006020828403121561427b57600080fd5b81516136f081613ced565b600073ffffffffffffffffffffffffffffffffffffffff808816835280871660208401525060a060408301526142bf60a0830186613b29565b82810360608401526142d18186613b29565b905082810360808401526142e5818561371b565b98975050505050505050565b60006020828403121561430357600080fd5b81516136f0816136a5565b73ffffffffffffffffffffffffffffffffffffffff8416815260606020820152600061433d6060830185613b29565b828103604084015261434f8185613b29565b9695505050505050565b600073ffffffffffffffffffffffffffffffffffffffff808816835280871660208401525084604083015283606083015260a0608083015261356d60a083018461371b565b600082516143b08184602087016136f7565b919091019291505056fea2646970667358221220122dfcd8c50ef20ab014f517a9f59253532773db45cca6aeb7f6c031186ce44f64736f6c63430008150033",
  "linkReferences": {},
  "deployedLinkReferences": {}
}