{
  "_format": "hh-sol-artifact-1",
  "contractName": "ERC1155FullBurnProxied",
  "sourceName": "contracts/token/ERC1155/preset/proxied/ERC1155FullBurnProxied.sol",
  "abi": [
    {
      "inputs": [
        {
          "internalType": "contract IForwarderRegistry",
          "name": "forwarderRegistry",
          "type": "address"
        }
      ],
      "stateMutability": "nonpayable",
      "type": "constructor"
    },
    {
      "inputs": [],
      "name": "ERC1155BalanceOfAddressZero",
      "type": "error"
    },
    {
      "inputs": [
        {
          "internalType": "address",
          "name": "recipient",
          "type": "address"
        },
        {
          "internalType": "uint256",
          "name": "id",
          "type": "uint256"
        },
        {
          "internalType": "uint256",
          "name": "balance",
          "type": "uint256"
        },
        {
          "internalType": "uint256",
          "name": "value",
          "type": "uint256"
        }
      ],
      "name": "ERC1155BalanceOverflow",
      "type": "error"
    },
    {
      "inputs": [
        {
          "internalType": "address",
          "name": "owner",
          "type": "address"
        },
        {
          "internalType": "uint256",
          "name": "id",
          "type": "uint256"
        },
        {
          "internalType": "uint256",
          "name": "balance",
          "type": "uint256"
        },
        {
          "internalType": "uint256",
          "name": "value",
          "type": "uint256"
        }
      ],
      "name": "ERC1155InsufficientBalance",
      "type": "error"
    },
    {
      "inputs": [],
      "name": "ERC1155MintToAddressZero",
      "type": "error"
    },
    {
      "inputs": [
        {
          "internalType": "address",
          "name": "sender",
          "type": "address"
        },
        {
          "internalType": "address",
          "name": "owner",
          "type": "address"
        }
      ],
      "name": "ERC1155NonApproved",
      "type": "error"
    },
    {
      "inputs": [
        {
          "internalType": "address",
          "name": "recipient",
          "type": "address"
        },
        {
          "internalType": "uint256[]",
          "name": "ids",
          "type": "uint256[]"
        },
        {
          "internalType": "uint256[]",
          "name": "values",
          "type": "uint256[]"
        }
      ],
      "name": "ERC1155SafeBatchTransferRejected",
      "type": "error"
    },
    {
      "inputs": [
        {
          "internalType": "address",
          "name": "recipient",
          "type": "address"
        },
        {
          "internalType": "uint256",
          "name": "id",
          "type": "uint256"
        },
        {
          "internalType": "uint256",
          "name": "value",
          "type": "uint256"
        }
      ],
      "name": "ERC1155SafeTransferRejected",
      "type": "error"
    },
    {
      "inputs": [
        {
          "internalType": "address",
          "name": "account",
          "type": "address"
        }
      ],
      "name": "ERC1155SelfApprovalForAll",
      "type": "error"
    },
    {
      "inputs": [],
      "name": "ERC1155TransferToAddressZero",
      "type": "error"
    },
    {
      "inputs": [
        {
          "internalType": "uint256",
          "name": "percentage",
          "type": "uint256"
        }
      ],
      "name": "ERC2981IncorrectRoyaltyPercentage",
      "type": "error"
    },
    {
      "inputs": [],
      "name": "ERC2981IncorrectRoyaltyReceiver",
      "type": "error"
    },
    {
      "inputs": [],
      "name": "IllegalInterfaceId",
      "type": "error"
    },
    {
      "inputs": [],
      "name": "InconsistentArrayLengths",
      "type": "error"
    },
    {
      "inputs": [
        {
          "internalType": "address",
          "name": "tokenContract",
          "type": "address"
        }
      ],
      "name": "IncorrectTokenContractType",
      "type": "error"
    },
    {
      "inputs": [
        {
          "internalType": "uint256",
          "name": "currentPhase",
          "type": "uint256"
        },
        {
          "internalType": "uint256",
          "name": "newPhase",
          "type": "uint256"
        }
      ],
      "name": "InitializationPhaseAlreadyReached",
      "type": "error"
    },
    {
      "inputs": [
        {
          "internalType": "address",
          "name": "account",
          "type": "address"
        }
      ],
      "name": "NotContractOwner",
      "type": "error"
    },
    {
      "inputs": [
        {
          "internalType": "address",
          "name": "account",
          "type": "address"
        }
      ],
      "name": "NotMetadataResolver",
      "type": "error"
    },
    {
      "inputs": [
        {
          "internalType": "bytes32",
          "name": "role",
          "type": "bytes32"
        },
        {
          "internalType": "address",
          "name": "account",
          "type": "address"
        }
      ],
      "name": "NotRoleHolder",
      "type": "error"
    },
    {
      "inputs": [
        {
          "internalType": "address",
          "name": "operator",
          "type": "address"
        }
      ],
      "name": "OperatorNotAllowed",
      "type": "error"
    },
    {
      "anonymous": false,
      "inputs": [
        {
          "indexed": true,
          "internalType": "address",
          "name": "owner",
          "type": "address"
        },
        {
          "indexed": true,
          "internalType": "address",
          "name": "operator",
          "type": "address"
        },
        {
          "indexed": false,
          "internalType": "bool",
          "name": "approved",
          "type": "bool"
        }
      ],
      "name": "ApprovalForAll",
      "type": "event"
    },
    {
      "anonymous": false,
      "inputs": [
        {
          "indexed": true,
          "internalType": "address",
          "name": "previousOwner",
          "type": "address"
        },
        {
          "indexed": true,
          "internalType": "address",
          "name": "newOwner",
          "type": "address"
        }
      ],
      "name": "OwnershipTransferred",
      "type": "event"
    },
    {
      "anonymous": false,
      "inputs": [
        {
          "indexed": false,
          "internalType": "bytes32",
          "name": "role",
          "type": "bytes32"
        },
        {
          "indexed": false,
          "internalType": "address",
          "name": "account",
          "type": "address"
        },
        {
          "indexed": false,
          "internalType": "address",
          "name": "operator",
          "type": "address"
        }
      ],
      "name": "RoleGranted",
      "type": "event"
    },
    {
      "anonymous": false,
      "inputs": [
        {
          "indexed": false,
          "internalType": "bytes32",
          "name": "role",
          "type": "bytes32"
        },
        {
          "indexed": false,
          "internalType": "address",
          "name": "account",
          "type": "address"
        },
        {
          "indexed": false,
          "internalType": "address",
          "name": "operator",
          "type": "address"
        }
      ],
      "name": "RoleRevoked",
      "type": "event"
    },
    {
      "anonymous": false,
      "inputs": [
        {
          "indexed": true,
          "internalType": "address",
          "name": "operator",
          "type": "address"
        },
        {
          "indexed": true,
          "internalType": "address",
          "name": "from",
          "type": "address"
        },
        {
          "indexed": true,
          "internalType": "address",
          "name": "to",
          "type": "address"
        },
        {
          "indexed": false,
          "internalType": "uint256[]",
          "name": "ids",
          "type": "uint256[]"
        },
        {
          "indexed": false,
          "internalType": "uint256[]",
          "name": "values",
          "type": "uint256[]"
        }
      ],
      "name": "TransferBatch",
      "type": "event"
    },
    {
      "anonymous": false,
      "inputs": [
        {
          "indexed": true,
          "internalType": "address",
          "name": "operator",
          "type": "address"
        },
        {
          "indexed": true,
          "internalType": "address",
          "name": "from",
          "type": "address"
        },
        {
          "indexed": true,
          "internalType": "address",
          "name": "to",
          "type": "address"
        },
        {
          "indexed": false,
          "internalType": "uint256",
          "name": "id",
          "type": "uint256"
        },
        {
          "indexed": false,
          "internalType": "uint256",
          "name": "value",
          "type": "uint256"
        }
      ],
      "name": "TransferSingle",
      "type": "event"
    },
    {
      "anonymous": false,
      "inputs": [
        {
          "indexed": false,
          "internalType": "string",
          "name": "value",
          "type": "string"
        },
        {
          "indexed": true,
          "internalType": "uint256",
          "name": "id",
          "type": "uint256"
        }
      ],
      "name": "URI",
      "type": "event"
    },
    {
      "inputs": [],
      "name": "MINTER_ROLE",
      "outputs": [
        {
          "internalType": "bytes32",
          "name": "",
          "type": "bytes32"
        }
      ],
      "stateMutability": "view",
      "type": "function"
    },
    {
      "inputs": [],
      "name": "ROYALTY_FEE_DENOMINATOR",
      "outputs": [
        {
          "internalType": "uint256",
          "name": "",
          "type": "uint256"
        }
      ],
      "stateMutability": "view",
      "type": "function"
    },
    {
      "inputs": [
        {
          "internalType": "address",
          "name": "owner",
          "type": "address"
        },
        {
          "internalType": "uint256",
          "name": "id",
          "type": "uint256"
        }
      ],
      "name": "balanceOf",
      "outputs": [
        {
          "internalType": "uint256",
          "name": "balance",
          "type": "uint256"
        }
      ],
      "stateMutability": "view",
      "type": "function"
    },
    {
      "inputs": [
        {
          "internalType": "address[]",
          "name": "owners",
          "type": "address[]"
        },
        {
          "internalType": "uint256[]",
          "name": "ids",
          "type": "uint256[]"
        }
      ],
      "name": "balanceOfBatch",
      "outputs": [
        {
          "internalType": "uint256[]",
          "name": "balances",
          "type": "uint256[]"
        }
      ],
      "stateMutability": "view",
      "type": "function"
    },
    {
      "inputs": [
        {
          "internalType": "address",
          "name": "from",
          "type": "address"
        },
        {
          "internalType": "uint256[]",
          "name": "ids",
          "type": "uint256[]"
        },
        {
          "internalType": "uint256[]",
          "name": "values",
          "type": "uint256[]"
        }
      ],
      "name": "batchBurnFrom",
      "outputs": [],
      "stateMutability": "nonpayable",
      "type": "function"
    },
    {
      "inputs": [
        {
          "internalType": "uint256[]",
          "name": "tokenIds",
          "type": "uint256[]"
        },
        {
          "internalType": "string[]",
          "name": "tokenURIs",
          "type": "string[]"
        }
      ],
      "name": "batchSetTokenURI",
      "outputs": [],
      "stateMutability": "nonpayable",
      "type": "function"
    },
    {
      "inputs": [
        {
          "internalType": "address",
          "name": "from",
          "type": "address"
        },
        {
          "internalType": "uint256",
          "name": "id",
          "type": "uint256"
        },
        {
          "internalType": "uint256",
          "name": "value",
          "type": "uint256"
        }
      ],
      "name": "burnFrom",
      "outputs": [],
      "stateMutability": "nonpayable",
      "type": "function"
    },
    {
      "inputs": [],
      "name": "forwarderRegistry",
      "outputs": [
        {
          "internalType": "contract IForwarderRegistry",
          "name": "",
          "type": "address"
        }
      ],
      "stateMutability": "view",
      "type": "function"
    },
    {
      "inputs": [
        {
          "internalType": "bytes32",
          "name": "role",
          "type": "bytes32"
        },
        {
          "internalType": "address",
          "name": "account",
          "type": "address"
        }
      ],
      "name": "grantRole",
      "outputs": [],
      "stateMutability": "nonpayable",
      "type": "function"
    },
    {
      "inputs": [
        {
          "internalType": "bytes32",
          "name": "role",
          "type": "bytes32"
        },
        {
          "internalType": "address",
          "name": "account",
          "type": "address"
        }
      ],
      "name": "hasRole",
      "outputs": [
        {
          "internalType": "bool",
          "name": "hasRole_",
          "type": "bool"
        }
      ],
      "stateMutability": "view",
      "type": "function"
    },
    {
      "inputs": [
        {
          "internalType": "string",
          "name": "tokenName",
          "type": "string"
        },
        {
          "internalType": "string",
          "name": "tokenSymbol",
          "type": "string"
        },
        {
          "internalType": "contract ITokenMetadataResolver",
          "name": "metadataResolver",
          "type": "address"
        },
        {
          "internalType": "contract IOperatorFilterRegistry",
          "name": "filterRegistry",
          "type": "address"
        }
      ],
      "name": "init",
      "outputs": [],
      "stateMutability": "nonpayable",
      "type": "function"
    },
    {
      "inputs": [
        {
          "internalType": "address",
          "name": "owner",
          "type": "address"
        },
        {
          "internalType": "address",
          "name": "operator",
          "type": "address"
        }
      ],
      "name": "isApprovedForAll",
      "outputs": [
        {
          "internalType": "bool",
          "name": "approvedForAll",
          "type": "bool"
        }
      ],
      "stateMutability": "view",
      "type": "function"
    },
    {
      "inputs": [
        {
          "internalType": "address",
          "name": "forwarder",
          "type": "address"
        }
      ],
      "name": "isTrustedForwarder",
      "outputs": [
        {
          "internalType": "bool",
          "name": "",
          "type": "bool"
        }
      ],
      "stateMutability": "view",
      "type": "function"
    },
    {
      "inputs": [],
      "name": "metadataResolver",
      "outputs": [
        {
          "internalType": "contract ITokenMetadataResolver",
          "name": "tokenMetadataResolver",
          "type": "address"
        }
      ],
      "stateMutability": "view",
      "type": "function"
    },
    {
      "inputs": [],
      "name": "name",
      "outputs": [
        {
          "internalType": "string",
          "name": "tokenName",
          "type": "string"
        }
      ],
      "stateMutability": "view",
      "type": "function"
    },
    {
      "inputs": [],
      "name": "operatorFilterRegistry",
      "outputs": [
        {
          "internalType": "contract IOperatorFilterRegistry",
          "name": "",
          "type": "address"
        }
      ],
      "stateMutability": "view",
      "type": "function"
    },
    {
      "inputs": [],
      "name": "owner",
      "outputs": [
        {
          "internalType": "address",
          "name": "",
          "type": "address"
        }
      ],
      "stateMutability": "view",
      "type": "function"
    },
    {
      "inputs": [
        {
          "internalType": "address[]",
          "name": "accounts",
          "type": "address[]"
        },
        {
          "internalType": "contract IERC20[]",
          "name": "tokens",
          "type": "address[]"
        },
        {
          "internalType": "uint256[]",
          "name": "amounts",
          "type": "uint256[]"
        }
      ],
      "name": "recoverERC20s",
      "outputs": [],
      "stateMutability": "nonpayable",
      "type": "function"
    },
    {
      "inputs": [
        {
          "internalType": "address[]",
          "name": "accounts",
          "type": "address[]"
        },
        {
          "internalType": "contract IERC721[]",
          "name": "contracts",
          "type": "address[]"
        },
        {
          "internalType": "uint256[]",
          "name": "tokenIds",
          "type": "uint256[]"
        }
      ],
      "name": "recoverERC721s",
      "outputs": [],
      "stateMutability": "nonpayable",
      "type": "function"
    },
    {
      "inputs": [
        {
          "internalType": "address payable[]",
          "name": "accounts",
          "type": "address[]"
        },
        {
          "internalType": "uint256[]",
          "name": "amounts",
          "type": "uint256[]"
        }
      ],
      "name": "recoverETH",
      "outputs": [],
      "stateMutability": "nonpayable",
      "type": "function"
    },
    {
      "inputs": [
        {
          "internalType": "bytes32",
          "name": "role",
          "type": "bytes32"
        }
      ],
      "name": "renounceRole",
      "outputs": [],
      "stateMutability": "nonpayable",
      "type": "function"
    },
    {
      "inputs": [
        {
          "internalType": "bytes32",
          "name": "role",
          "type": "bytes32"
        },
        {
          "internalType": "address",
          "name": "account",
          "type": "address"
        }
      ],
      "name": "revokeRole",
      "outputs": [],
      "stateMutability": "nonpayable",
      "type": "function"
    },
    {
      "inputs": [
        {
          "internalType": "uint256",
          "name": "tokenId",
          "type": "uint256"
        },
        {
          "internalType": "uint256",
          "name": "salePrice",
          "type": "uint256"
        }
      ],
      "name": "royaltyInfo",
      "outputs": [
        {
          "internalType": "address",
          "name": "receiver",
          "type": "address"
        },
        {
          "internalType": "uint256",
          "name": "royaltyAmount",
          "type": "uint256"
        }
      ],
      "stateMutability": "view",
      "type": "function"
    },
    {
      "inputs": [
        {
          "internalType": "address",
          "name": "to",
          "type": "address"
        },
        {
          "internalType": "uint256[]",
          "name": "ids",
          "type": "uint256[]"
        },
        {
          "internalType": "uint256[]",
          "name": "values",
          "type": "uint256[]"
        },
        {
          "internalType": "bytes",
          "name": "data",
          "type": "bytes"
        }
      ],
      "name": "safeBatchMint",
      "outputs": [],
      "stateMutability": "nonpayable",
      "type": "function"
    },
    {
      "inputs": [
        {
          "internalType": "address",
          "name": "from",
          "type": "address"
        },
        {
          "internalType": "address",
          "name": "to",
          "type": "address"
        },
        {
          "internalType": "uint256[]",
          "name": "ids",
          "type": "uint256[]"
        },
        {
          "internalType": "uint256[]",
          "name": "values",
          "type": "uint256[]"
        },
        {
          "internalType": "bytes",
          "name": "data",
          "type": "bytes"
        }
      ],
      "name": "safeBatchTransferFrom",
      "outputs": [],
      "stateMutability": "nonpayable",
      "type": "function"
    },
    {
      "inputs": [
        {
          "internalType": "address[]",
          "name": "recipients",
          "type": "address[]"
        },
        {
          "internalType": "uint256[]",
          "name": "ids",
          "type": "uint256[]"
        },
        {
          "internalType": "uint256[]",
          "name": "values",
          "type": "uint256[]"
        },
        {
          "internalType": "bytes",
          "name": "data",
          "type": "bytes"
        }
      ],
      "name": "safeDeliver",
      "outputs": [],
      "stateMutability": "nonpayable",
      "type": "function"
    },
    {
      "inputs": [
        {
          "internalType": "address",
          "name": "to",
          "type": "address"
        },
        {
          "internalType": "uint256",
          "name": "id",
          "type": "uint256"
        },
        {
          "internalType": "uint256",
          "name": "value",
          "type": "uint256"
        },
        {
          "internalType": "bytes",
          "name": "data",
          "type": "bytes"
        }
      ],
      "name": "safeMint",
      "outputs": [],
      "stateMutability": "nonpayable",
      "type": "function"
    },
    {
      "inputs": [
        {
          "internalType": "address",
          "name": "from",
          "type": "address"
        },
        {
          "internalType": "address",
          "name": "to",
          "type": "address"
        },
        {
          "internalType": "uint256",
          "name": "id",
          "type": "uint256"
        },
        {
          "internalType": "uint256",
          "name": "value",
          "type": "uint256"
        },
        {
          "internalType": "bytes",
          "name": "data",
          "type": "bytes"
        }
      ],
      "name": "safeTransferFrom",
      "outputs": [],
      "stateMutability": "nonpayable",
      "type": "function"
    },
    {
      "inputs": [
        {
          "internalType": "address",
          "name": "operator",
          "type": "address"
        },
        {
          "internalType": "bool",
          "name": "approved",
          "type": "bool"
        }
      ],
      "name": "setApprovalForAll",
      "outputs": [],
      "stateMutability": "nonpayable",
      "type": "function"
    },
    {
      "inputs": [
        {
          "internalType": "uint256",
          "name": "percentage",
          "type": "uint256"
        }
      ],
      "name": "setRoyaltyPercentage",
      "outputs": [],
      "stateMutability": "nonpayable",
      "type": "function"
    },
    {
      "inputs": [
        {
          "internalType": "address",
          "name": "receiver",
          "type": "address"
        }
      ],
      "name": "setRoyaltyReceiver",
      "outputs": [],
      "stateMutability": "nonpayable",
      "type": "function"
    },
    {
      "inputs": [
        {
          "internalType": "uint256",
          "name": "tokenId",
          "type": "uint256"
        },
        {
          "internalType": "string",
          "name": "tokenURI",
          "type": "string"
        }
      ],
      "name": "setTokenURI",
      "outputs": [],
      "stateMutability": "nonpayable",
      "type": "function"
    },
    {
      "inputs": [
        {
          "internalType": "bytes4",
          "name": "interfaceId",
          "type": "bytes4"
        }
      ],
      "name": "supportsInterface",
      "outputs": [
        {
          "internalType": "bool",
          "name": "",
          "type": "bool"
        }
      ],
      "stateMutability": "view",
      "type": "function"
    },
    {
      "inputs": [],
      "name": "symbol",
      "outputs": [
        {
          "internalType": "string",
          "name": "tokenSymbol",
          "type": "string"
        }
      ],
      "stateMutability": "view",
      "type": "function"
    },
    {
      "inputs": [
        {
          "internalType": "address",
          "name": "newOwner",
          "type": "address"
        }
      ],
      "name": "transferOwnership",
      "outputs": [],
      "stateMutability": "nonpayable",
      "type": "function"
    },
    {
      "inputs": [
        {
          "internalType": "contract IOperatorFilterRegistry",
          "name": "registry",
          "type": "address"
        }
      ],
      "name": "updateOperatorFilterRegistry",
      "outputs": [],
      "stateMutability": "nonpayable",
      "type": "function"
    },
    {
      "inputs": [
        {
          "internalType": "uint256",
          "name": "tokenId",
          "type": "uint256"
        }
      ],
      "name": "uri",
      "outputs": [
        {
          "internalType": "string",
          "name": "metadataURI",
          "type": "string"
        }
      ],
      "stateMutability": "view",
      "type": "function"
    }
  ],
  "bytecode": "0x60a06040523480156200001157600080fd5b506040516200490838038062004908833981016040819052620000349162000046565b6001600160a01b031660805262000078565b6000602082840312156200005957600080fd5b81516001600160a01b03811681146200007157600080fd5b9392505050565b60805161485f620000a96000396000818161038e0152818161042901528181612d900152612e18015261485f6000f3fe608060405234801561001057600080fd5b50600436106102765760003560e01c806373c8a95811610160578063b0ccc31e116100d8578063e8ab9ccc1161008c578063f242432a11610071578063f242432a146105ae578063f2fde38b146105c1578063f7ba94bd146105d457600080fd5b8063e8ab9ccc14610588578063e985e9c51461059b57600080fd5b8063d5391393116100bd578063d539139314610544578063d547741f1461056b578063e1a8bf2c1461057e57600080fd5b8063b0ccc31e14610529578063c3666c361461053157600080fd5b80638dc251e31161012f57806395d89b411161011457806395d89b4114610506578063a0c76f621461050e578063a22cb4651461051657600080fd5b80638dc251e3146104e057806391d14854146104f357600080fd5b806373c8a9581461049f57806380534934146104b25780638bb9c5bf146104c55780638da5cb5b146104d857600080fd5b80632a55205a116101f35780634e1273f4116101c25780635cfa9297116101a75780635cfa92971461046657806361ba27da146104795780636706467b1461048c57600080fd5b80634e1273f4146103f9578063572b6c051461041957600080fd5b80632a55205a1461034d5780632b4c9f161461038c5780632eb2c2d6146103d35780632f2ff15d146103e657600080fd5b80630e07f8541161024a578063114ba8ee1161022f578063114ba8ee14610314578063124d91e514610327578063162094c41461033a57600080fd5b80630e07f854146102ee5780630e89341c1461030157600080fd5b8062fdd58e1461027b57806301ffc9a7146102a157806306fdde03146102c45780630d6a5bbb146102d9575b600080fd5b61028e6102893660046139e7565b6105e7565b6040519081526020015b60405180910390f35b6102b46102af366004613a41565b610606565b6040519015158152602001610298565b6102cc61061a565b6040516102989190613ad3565b6102ec6102e7366004613b6d565b610631565b005b6102ec6102fc366004613c1a565b61072c565b6102cc61030f366004613caf565b6107a9565b6102ec610322366004613cc8565b6107bf565b6102ec610335366004613ce5565b61082a565b6102ec610348366004613d1a565b61084e565b61036061035b366004613d66565b610920565b6040805173ffffffffffffffffffffffffffffffffffffffff9093168352602083019190915201610298565b7f00000000000000000000000000000000000000000000000000000000000000005b60405173ffffffffffffffffffffffffffffffffffffffff9091168152602001610298565b6102ec6103e1366004613d88565b610943565b6102ec6103f4366004613e47565b610990565b61040c610407366004613e77565b6109be565b6040516102989190613f1f565b6102b4610427366004613cc8565b7f000000000000000000000000000000000000000000000000000000000000000073ffffffffffffffffffffffffffffffffffffffff90811691161490565b6102ec610474366004613f32565b6109e3565b6102ec610487366004613caf565b610a6d565b6102ec61049a366004613e77565b610a8a565b6102ec6104ad366004613f9c565b610bc2565b6102ec6104c0366004614036565b610cae565b6102ec6104d3366004613caf565b610cd1565b6103ae610cec565b6102ec6104ee366004613cc8565b610d13565b6102b4610501366004613e47565b610d30565b6102cc610d74565b6103ae610d86565b6102ec6105243660046140b6565b610d93565b6103ae610dcc565b6102ec61053f366004613f9c565b610dd9565b61028e7f6d696e746572000000000000000000000000000000000000000000000000000081565b6102ec610579366004613e47565b61107a565b61028e620186a081565b6102ec6105963660046140e4565b6110a8565b6102b46105a9366004614187565b6111c2565b6102ec6105bc3660046141b5565b611210565b6102ec6105cf366004613cc8565b611250565b6102ec6105e2366004613e77565b61126b565b60006105fd83836105f6611322565b9190611350565b90505b92915050565b6000610600826106146113d4565b90611402565b606061062c6106276114dc565b61150a565b905090565b600061063b6115a0565b90506106717f6d696e74657200000000000000000000000000000000000000000000000000008261066a6115aa565b91906115d8565b610722818989898080602002602001604051908101604052809392919081815260200183836020028082843760009201919091525050604080516020808d0282810182019093528c82529093508c92508b91829185019084908082843760009201919091525050604080516020601f8c018190048102820181019092528a815292508a91508990819084018382808284376000920191909152506107189250611322915050565b949392919061165e565b5050505050505050565b6107456107376115a0565b61073f6117e4565b90611812565b61074d611851565b610755611888565b61075d6118b6565b6107656118e4565b61076d611912565b610775611940565b61078f86868686866107856114dc565b949392919061196e565b6107a18161079b611a08565b90611a36565b505050505050565b606061060030836107b86114dc565b9190611aa6565b6107d86107ca6115a0565b6107d26117e4565b90611b66565b610827816107e4611a08565b9081547fffffffffffffffffffffffff00000000000000000000000000000000000000001673ffffffffffffffffffffffffffffffffffffffff91909116179055565b50565b6108496108356115a0565b848484610840611322565b93929190611bd1565b505050565b6108766108596114dc565b6002015473ffffffffffffffffffffffffffffffffffffffff1690565b73ffffffffffffffffffffffffffffffffffffffff163373ffffffffffffffffffffffffffffffffffffffff16146108e1576040517f220606710000000000000000000000000000000000000000000000000000000081523360048201526024015b60405180910390fd5b827f6bb7ff708619ba0610cba295a58592e0451dee2622938c8755667688daf3529b838360405161091392919061421f565b60405180910390a2505050565b6000806109378484610930611c9e565b9190611ccc565b915091505b9250929050565b600061094d6115a0565b9050610963818a61095c611a08565b9190611d76565b610985818a8a8a8a8a8a8a8a610977611322565b989796959493929190611db3565b505050505050505050565b600061099a6115a0565b90506109a8816107d26117e4565b6108498383836109b66115aa565b92919061203c565b60606109d8858585856109cf611322565b93929190612113565b90505b949350505050565b60006109ed6115a0565b9050610a1c7f6d696e74657200000000000000000000000000000000000000000000000000008261066a6115aa565b6107a18187878787878080601f016020809104026020016040519081016040528093929190818152602001838380828437600092019190915250610a639250611322915050565b9493929190612222565b610a786107ca6115a0565b61082781610a84611c9e565b90612300565b828114610ac3576040517f6582533600000000000000000000000000000000000000000000000000000000815260040160405180910390fd5b610ace6108596114dc565b73ffffffffffffffffffffffffffffffffffffffff163373ffffffffffffffffffffffffffffffffffffffff1614610b34576040517f220606710000000000000000000000000000000000000000000000000000000081523360048201526024016108d8565b60005b83811015610bbb57848482818110610b5157610b5161426c565b905060200201357f6bb7ff708619ba0610cba295a58592e0451dee2622938c8755667688daf3529b848484818110610b8b57610b8b61426c565b9050602002810190610b9d919061429b565b604051610bab92919061421f565b60405180910390a2600101610b37565b5050505050565b610bcd6107ca6115a0565b848381141580610bdd5750808214155b15610c14576040517f6582533600000000000000000000000000000000000000000000000000000000815260040160405180910390fd5b60005b8181101561072257610ca6888883818110610c3457610c3461426c565b9050602002016020810190610c499190613cc8565b858584818110610c5b57610c5b61426c565b90506020020135888885818110610c7457610c7461426c565b9050602002016020810190610c899190613cc8565b73ffffffffffffffffffffffffffffffffffffffff169190612386565b600101610c17565b610bbb610cb96115a0565b8686868686610cc6611322565b959493929190612413565b610827610cdc6115a0565b82610ce56115aa565b919061258b565b600061062c610cf96117e4565b5473ffffffffffffffffffffffffffffffffffffffff1690565b610d1e6107ca6115a0565b61082781610d2a611c9e565b9061262f565b60006105fd8383610d3f6115aa565b60009283526020908152604080842073ffffffffffffffffffffffffffffffffffffffff909316845291905290205460ff1690565b606061062c610d816114dc565b61267c565b600061062c6108596114dc565b8015610dab57610dab82610da5611a08565b9061268d565b610dc8610db66115a0565b8383610dc0611322565b929190612697565b5050565b600061062c610cf9611a08565b610de46107ca6115a0565b848381141580610df45750808214155b15610e2b576040517f6582533600000000000000000000000000000000000000000000000000000000815260040160405180910390fd5b60005b81811015610722576000868683818110610e4a57610e4a61426c565b9050602002016020810190610e5f9190613cc8565b6040517f01ffc9a70000000000000000000000000000000000000000000000000000000081527f80ac58cd00000000000000000000000000000000000000000000000000000000600482015290915073ffffffffffffffffffffffffffffffffffffffff8216906301ffc9a790602401602060405180830381865afa158015610eec573d6000803e3d6000fd5b505050506040513d601f19601f82011682018060405250810190610f109190614300565b610f5e576040517f986b9f1f00000000000000000000000000000000000000000000000000000000815273ffffffffffffffffffffffffffffffffffffffff821660048201526024016108d8565b868683818110610f7057610f7061426c565b9050602002016020810190610f859190613cc8565b73ffffffffffffffffffffffffffffffffffffffff166342842e0e308b8b86818110610fb357610fb361426c565b9050602002016020810190610fc89190613cc8565b888887818110610fda57610fda61426c565b6040517fffffffff0000000000000000000000000000000000000000000000000000000060e088901b16815273ffffffffffffffffffffffffffffffffffffffff958616600482015294909316602485015250602090910201356044820152606401600060405180830381600087803b15801561105657600080fd5b505af115801561106a573d6000803e3d6000fd5b5050505050806001019050610e2e565b60006110846115a0565b9050611092816107d26117e4565b6108498383836110a06115aa565b9291906127af565b60006110b26115a0565b90506110e17f6d696e74657200000000000000000000000000000000000000000000000000008261066a6115aa565b610985818a8a8080602002602001604051908101604052809392919081815260200183836020028082843760009201919091525050604080516020808e0282810182019093528d82529093508d92508c91829185019084908082843760009201919091525050604080516020808d0282810182019093528c82529093508c92508b91829185019084908082843760009201919091525050604080516020601f8c018190048102820181019092528a815292508a91508990819084018382808284376000920191909152506111b89250611322915050565b9493929190612879565b60006105fd83836111d1611322565b919073ffffffffffffffffffffffffffffffffffffffff9182166000908152600193909301602090815260408085209290931684525290205460ff1690565b600061121a6115a0565b9050611229818861095c611a08565b6112478188888888888861123b611322565b9695949392919061293c565b50505050505050565b61082761125b6115a0565b826112646117e4565b9190612adf565b6112766107ca6115a0565b828181146112b0576040517f6582533600000000000000000000000000000000000000000000000000000000815260040160405180910390fd5b60005b818110156107a15761131a8484838181106112d0576112d061426c565b905060200201358787848181106112e9576112e961426c565b90506020020160208101906112fe9190613cc8565b73ffffffffffffffffffffffffffffffffffffffff1690612bf3565b6001016112b3565b60008061060060017f5ccf5846fa27a68fafc8e588671a68f5e67c2f9b56af4263806a4d71735e861361434c565b600073ffffffffffffffffffffffffffffffffffffffff831661139f576040517fca2434a500000000000000000000000000000000000000000000000000000000815260040160405180910390fd5b5060009081526020928352604080822073ffffffffffffffffffffffffffffffffffffffff9390931682529190925290205490565b60008061060060017fca9d3e17f264b0f3984e2634e94adb37fa3e6a8103f06aeae6fa59e21c769f5e61434c565b60007c01000000000000000000000000000000000000000000000000000000007fffffffff0000000000000000000000000000000000000000000000000000000083160161145257506000610600565b7ffe003659000000000000000000000000000000000000000000000000000000007fffffffff000000000000000000000000000000000000000000000000000000008316016114a357506001610600565b507fffffffff00000000000000000000000000000000000000000000000000000000166000908152602091909152604090205460ff1690565b60008061060060017f7ea68fd2dcf1c056b94db6a0a537aa80d26fa9ab1eacd85da1ba0b61b7e7a8a561434c565b606081600001805461151b9061435f565b80601f01602080910402602001604051908101604052809291908181526020018280546115479061435f565b80156115945780601f1061156957610100808354040283529160200191611594565b820191906000526020600020905b81548152906001019060200180831161157757829003601f168201915b50505050509050919050565b600061062c612d4d565b60008061060060017fc8827d3282af6f37b64c3e9e6f3ac9df286ab0bb0fccd6f8661bf19adb368b2361434c565b60008281526020848152604080832073ffffffffffffffffffffffffffffffffffffffff8516845290915290205460ff16610849576040517f7aa728820000000000000000000000000000000000000000000000000000000081526004810183905273ffffffffffffffffffffffffffffffffffffffff821660248201526044016108d8565b73ffffffffffffffffffffffffffffffffffffffff84166116ab576040517f021149bd00000000000000000000000000000000000000000000000000000000815260040160405180910390fd5b8251825181146116e7576040517f6582533600000000000000000000000000000000000000000000000000000000815260040160405180910390fd5b60005b818110156117385761173088878784815181106117095761170961426c565b60200260200101518785815181106117235761172361426c565b6020026020010151612e94565b6001016116ea565b508473ffffffffffffffffffffffffffffffffffffffff16600073ffffffffffffffffffffffffffffffffffffffff168773ffffffffffffffffffffffffffffffffffffffff167f4a39dc06d4c0dbc64b70af90fd698a233a518aa5d07e595d983b8c0526c8f7fb87876040516117b09291906143b2565b60405180910390a473ffffffffffffffffffffffffffffffffffffffff85163b156112475761124786600087878787612f65565b60008061060060017fc9ed16f33ab3a66c84bfd83099ccb2a8845871e2e1c1928f63797152f0fd54cd61434c565b61184761184060017f5b388d90dc1312ba799f321972f13311234fa1163bcabec7cf66101c4876eb8461434c565b6001613063565b610dc882826130af565b6118867fd9b67a2600000000000000000000000000000000000000000000000000000000600161187f6113d4565b9190613165565b565b6118867f0e89341c00000000000000000000000000000000000000000000000000000000600161187f6113d4565b6118867f5190c92c00000000000000000000000000000000000000000000000000000000600161187f6113d4565b6118867fe8ab9ccc00000000000000000000000000000000000000000000000000000000600161187f6113d4565b6118867f921ed8d100000000000000000000000000000000000000000000000000000000600161187f6113d4565b6118867f2a55205a00000000000000000000000000000000000000000000000000000000600161187f6113d4565b61199c61184060017f92f72593ca50a0096f68ee94e7000db40ed086164b695855e2250750b8bfaf5961434c565b856119a8858783614457565b50600186016119b8838583614457565b5060029590950180547fffffffffffffffffffffffff00000000000000000000000000000000000000001673ffffffffffffffffffffffffffffffffffffffff9096169590951790945550505050565b60008061060060017f609b85bcafa81ecfaf3ff62cdde2c6c9082a68dbe4922f07399c706bdeb7cd3161434c565b611a6461184060017f2f02d396cb1be29636682c8684200b30a98554d3b74293aa4495cb5e1d252f6e61434c565b81547fffffffffffffffffffffffff00000000000000000000000000000000000000001673ffffffffffffffffffffffffffffffffffffffff91909116179055565b60028301546040517ff724dad700000000000000000000000000000000000000000000000000000000815273ffffffffffffffffffffffffffffffffffffffff848116600483015260248201849052606092169063f724dad790604401600060405180830381865afa158015611b20573d6000803e3d6000fd5b505050506040513d6000823e601f3d9081017fffffffffffffffffffffffffffffffffffffffffffffffffffffffffffffffe01682016040526109db9190810190614571565b815473ffffffffffffffffffffffffffffffffffffffff828116911614610dc8576040517f2ef4875e00000000000000000000000000000000000000000000000000000000815273ffffffffffffffffffffffffffffffffffffffff821660048201526024016108d8565b611bdc858486613241565b611c32576040517f05bbb9c400000000000000000000000000000000000000000000000000000000815273ffffffffffffffffffffffffffffffffffffffff8086166004830152841660248201526044016108d8565b611c3e858484846132b6565b604080518381526020810183905260009173ffffffffffffffffffffffffffffffffffffffff86811692908816917fc3d58168c5ae7397731d063d5bbf3d657854427343f4c083240f7aacaa2d0f62910160405180910390a45050505050565b60008061060060017f2c0cf10337caabbd02dcf226f05f5fd19a0919a41a8df8958c39b8000782685861434c565b825473ffffffffffffffffffffffffffffffffffffffff8116906000907401000000000000000000000000000000000000000090046bffffffffffffffffffffffff16831580611d1a575080155b15611d285760009150611d6d565b620186a0841015611d5257620186a0611d418286614631565b611d4b9190614648565b9150611d6d565b80611d60620186a086614648565b611d6a9190614631565b91505b50935093915050565b8073ffffffffffffffffffffffffffffffffffffffff168273ffffffffffffffffffffffffffffffffffffffff1614610849576108498383613353565b73ffffffffffffffffffffffffffffffffffffffff8716611e00576040517fb5e8901500000000000000000000000000000000000000000000000000000000815260040160405180910390fd5b84838114611e3a576040517f6582533600000000000000000000000000000000000000000000000000000000815260040160405180910390fd5b611e458b8a8c613241565b611e9b576040517f05bbb9c400000000000000000000000000000000000000000000000000000000815273ffffffffffffffffffffffffffffffffffffffff808c1660048301528a1660248201526044016108d8565b60005b81811015611eeb57611ee38c8b8b8b8b86818110611ebe57611ebe61426c565b905060200201358a8a87818110611ed757611ed761426c565b9050602002013561347a565b600101611e9e565b508773ffffffffffffffffffffffffffffffffffffffff168973ffffffffffffffffffffffffffffffffffffffff168b73ffffffffffffffffffffffffffffffffffffffff167f4a39dc06d4c0dbc64b70af90fd698a233a518aa5d07e595d983b8c0526c8f7fb8a8a8a8a604051611f6694939291906146ce565b60405180910390a473ffffffffffffffffffffffffffffffffffffffff88163b1561202f5761202f8a8a8a8a8a8080602002602001604051908101604052809392919081815260200183836020028082843760009201919091525050604080516020808e0282810182019093528d82529093508d92508c91829185019084908082843760009201919091525050604080516020601f8d018190048102820181019092528b815292508b91508a9081908401838280828437600092019190915250612f6592505050565b5050505050505050505050565b60008381526020858152604080832073ffffffffffffffffffffffffffffffffffffffff8616845290915290205460ff1661210d5760008381526020858152604080832073ffffffffffffffffffffffffffffffffffffffff8681168086529184529382902080547fffffffffffffffffffffffffffffffffffffffffffffffffffffffffffffff00166001179055815187815292830152918316918101919091527f2f8788117e7eff1d82e926ec794901d17c78024a50270940304540a733656f0d906060015b60405180910390a15b50505050565b60608382811461214f576040517f6582533600000000000000000000000000000000000000000000000000000000815260040160405180910390fd5b8467ffffffffffffffff811115612168576121686143e0565b604051908082528060200260200182016040528015612191578160200160208202803683370190505b50915060005b81811015612217576121f28787838181106121b4576121b461426c565b90506020020160208101906121c99190613cc8565b8686848181106121db576121db61426c565b905060200201358a6113509092919063ffffffff16565b8382815181106122045761220461426c565b6020908102919091010152600101612197565b505095945050505050565b73ffffffffffffffffffffffffffffffffffffffff841661226f576040517f021149bd00000000000000000000000000000000000000000000000000000000815260040160405180910390fd5b61227b86858585612e94565b604080518481526020810184905273ffffffffffffffffffffffffffffffffffffffff80871692600092918916917fc3d58168c5ae7397731d063d5bbf3d657854427343f4c083240f7aacaa2d0f62910160405180910390a473ffffffffffffffffffffffffffffffffffffffff84163b156107a1576107a185600086868686613627565b620186a0811115612340576040517fac040408000000000000000000000000000000000000000000000000000000008152600481018290526024016108d8565b81546bffffffffffffffffffffffff909116740100000000000000000000000000000000000000000273ffffffffffffffffffffffffffffffffffffffff909116179055565b6040805173ffffffffffffffffffffffffffffffffffffffff8416602482015260448082018490528251808303909101815260649091019091526020810180517bffffffffffffffffffffffffffffffffffffffffffffffffffffffff167fa9059cbb00000000000000000000000000000000000000000000000000000000179052610849908490613745565b8281811461244d576040517f6582533600000000000000000000000000000000000000000000000000000000815260040160405180910390fd5b612458888789613241565b6124ae576040517f05bbb9c400000000000000000000000000000000000000000000000000000000815273ffffffffffffffffffffffffffffffffffffffff8089166004830152871660248201526044016108d8565b60005b818110156124fd576124f589888888858181106124d0576124d061426c565b905060200201358787868181106124e9576124e961426c565b905060200201356132b6565b6001016124b1565b50600073ffffffffffffffffffffffffffffffffffffffff168673ffffffffffffffffffffffffffffffffffffffff168873ffffffffffffffffffffffffffffffffffffffff167f4a39dc06d4c0dbc64b70af90fd698a233a518aa5d07e595d983b8c0526c8f7fb8888888860405161257994939291906146ce565b60405180910390a45050505050505050565b6125968382846115d8565b60008181526020848152604080832073ffffffffffffffffffffffffffffffffffffffff86168085529083529281902080547fffffffffffffffffffffffffffffffffffffffffffffffffffffffffffffff0016905580518481529182018390528101919091527ff6391f5c32d9c69d2a47ea670b442974b53935d1edc7fd64eb21e047a839171b9060600160405180910390a1505050565b73ffffffffffffffffffffffffffffffffffffffff8116611a64576040517f16de0c8000000000000000000000000000000000000000000000000000000000815260040160405180910390fd5b606081600101805461151b9061435f565b610dc88282613353565b8273ffffffffffffffffffffffffffffffffffffffff168273ffffffffffffffffffffffffffffffffffffffff1603612714576040517ffb0fdf6100000000000000000000000000000000000000000000000000000000815273ffffffffffffffffffffffffffffffffffffffff841660048201526024016108d8565b73ffffffffffffffffffffffffffffffffffffffff838116600081815260018701602090815260408083209487168084529482529182902080547fffffffffffffffffffffffffffffffffffffffffffffffffffffffffffffff001686151590811790915591519182527f17307eab39ab6107e8899845ad3d59bd9653f200f220920489ca2b5937696c31910160405180910390a350505050565b60008381526020858152604080832073ffffffffffffffffffffffffffffffffffffffff8616845290915290205460ff161561210d5760008381526020858152604080832073ffffffffffffffffffffffffffffffffffffffff8681168086529184529382902080547fffffffffffffffffffffffffffffffffffffffffffffffffffffffffffffff00169055815187815292830152918316918101919091527ff6391f5c32d9c69d2a47ea670b442974b53935d1edc7fd64eb21e047a839171b90606001612104565b835183518114158061288c575082518114155b156128c3576040517f6582533600000000000000000000000000000000000000000000000000000000815260040160405180910390fd5b60005b8181101561072257612934878783815181106128e4576128e461426c565b60200260200101518784815181106128fe576128fe61426c565b60200260200101518785815181106129185761291861426c565b6020026020010151878d6122229095949392919063ffffffff16565b6001016128c6565b73ffffffffffffffffffffffffffffffffffffffff8516612989576040517fb5e8901500000000000000000000000000000000000000000000000000000000815260040160405180910390fd5b612994888789613241565b6129ea576040517f05bbb9c400000000000000000000000000000000000000000000000000000000815273ffffffffffffffffffffffffffffffffffffffff8089166004830152871660248201526044016108d8565b6129f7888787878761347a565b8473ffffffffffffffffffffffffffffffffffffffff168673ffffffffffffffffffffffffffffffffffffffff168873ffffffffffffffffffffffffffffffffffffffff167fc3d58168c5ae7397731d063d5bbf3d657854427343f4c083240f7aacaa2d0f628787604051612a76929190918252602082015260400190565b60405180910390a473ffffffffffffffffffffffffffffffffffffffff85163b1561072257610722878787878787878080601f01602080910402602001604051908101604052809392919081815260200183838082843760009201919091525061362792505050565b825473ffffffffffffffffffffffffffffffffffffffff9081169083168114612b4c576040517f2ef4875e00000000000000000000000000000000000000000000000000000000815273ffffffffffffffffffffffffffffffffffffffff841660048201526024016108d8565b8173ffffffffffffffffffffffffffffffffffffffff168173ffffffffffffffffffffffffffffffffffffffff161461210d5783547fffffffffffffffffffffffff00000000000000000000000000000000000000001673ffffffffffffffffffffffffffffffffffffffff8381169182178655604051908316907f8be0079c531659141344cd1fd0a4f28419497f9722a3daafe3b4186f6b6457e090600090a350505050565b80471015612c5d576040517f08c379a000000000000000000000000000000000000000000000000000000000815260206004820152601d60248201527f416464726573733a20696e73756666696369656e742062616c616e636500000060448201526064016108d8565b60008273ffffffffffffffffffffffffffffffffffffffff168260405160006040518083038185875af1925050503d8060008114612cb7576040519150601f19603f3d011682016040523d82523d6000602084013e612cbc565b606091505b5050905080610849576040517f08c379a000000000000000000000000000000000000000000000000000000000815260206004820152603a60248201527f416464726573733a20756e61626c6520746f2073656e642076616c75652c207260448201527f6563697069656e74206d6179206861766520726576657274656400000000000060648201526084016108d8565b600033321480612d5d5750601836105b15612d6757503390565b7fffffffffffffffffffffffffffffffffffffffffffffffffffffffffffffffec36013560601c7f000000000000000000000000000000000000000000000000000000000000000073ffffffffffffffffffffffffffffffffffffffff16331480612e8357506040517f8929a8ca00000000000000000000000000000000000000000000000000000000815273ffffffffffffffffffffffffffffffffffffffff82811660048301523360248301527f00000000000000000000000000000000000000000000000000000000000000001690638929a8ca90604401602060405180830381865afa158015612e5f573d6000803e3d6000fd5b505050506040513d601f19601f82011682018060405250810190612e839190614300565b15612e8d57919050565b3391505090565b801561210d5760008281526020858152604080832073ffffffffffffffffffffffffffffffffffffffff87168452909152902054818101818111612f31576040517f42fb00bc00000000000000000000000000000000000000000000000000000000815273ffffffffffffffffffffffffffffffffffffffff861660048201526024810185905260448101839052606481018490526084016108d8565b60009384526020958652604080852073ffffffffffffffffffffffffffffffffffffffff9690961685529490955250502055565b6040517fbc197c81000000000000000000000000000000000000000000000000000000008082529073ffffffffffffffffffffffffffffffffffffffff86169063bc197c8190612fc1908a908a908990899089906004016146f5565b6020604051808303816000875af1158015612fe0573d6000803e3d6000fd5b505050506040513d601f19601f820116820180604052508101906130049190614760565b7fffffffff0000000000000000000000000000000000000000000000000000000016146107a1578383836040517fc287817e0000000000000000000000000000000000000000000000000000000081526004016108d89392919061477d565b815482908281106130aa576040517fbf0c18ec00000000000000000000000000000000000000000000000000000000815260048101829052602481018490526044016108d8565b505550565b73ffffffffffffffffffffffffffffffffffffffff8116156131375781547fffffffffffffffffffffffff00000000000000000000000000000000000000001673ffffffffffffffffffffffffffffffffffffffff821690811783556040516000907f8be0079c531659141344cd1fd0a4f28419497f9722a3daafe3b4186f6b6457e0908290a35b610dc87f7f5828d000000000000000000000000000000000000000000000000000000000600161187f6113d4565b7c01000000000000000000000000000000000000000000000000000000007fffffffff000000000000000000000000000000000000000000000000000000008316016131dd576040517f72c683bb00000000000000000000000000000000000000000000000000000000815260040160405180910390fd5b7fffffffff00000000000000000000000000000000000000000000000000000000919091166000908152602092909252604090912080547fffffffffffffffffffffffffffffffffffffffffffffffffffffffffffffff0016911515919091179055565b60008173ffffffffffffffffffffffffffffffffffffffff168373ffffffffffffffffffffffffffffffffffffffff1614806109db57505073ffffffffffffffffffffffffffffffffffffffff9182166000908152600193909301602090815260408085209290931684525290205460ff1690565b801561210d5760008281526020858152604080832073ffffffffffffffffffffffffffffffffffffffff87168452909152902054818103818110612f31576040517f03dee4c500000000000000000000000000000000000000000000000000000000815273ffffffffffffffffffffffffffffffffffffffff861660048201526024810185905260448101839052606481018490526084016108d8565b815473ffffffffffffffffffffffffffffffffffffffff168015801590613391575060008173ffffffffffffffffffffffffffffffffffffffff163b115b15610849576040517fc617113400000000000000000000000000000000000000000000000000000000815230600482015273ffffffffffffffffffffffffffffffffffffffff838116602483015282169063c617113490604401602060405180830381865afa158015613408573d6000803e3d6000fd5b505050506040513d601f19601f8201168201806040525081019061342c9190614300565b610849576040517fede71dcc00000000000000000000000000000000000000000000000000000000815273ffffffffffffffffffffffffffffffffffffffff831660048201526024016108d8565b8015610bbb5760008281526020868152604080832073ffffffffffffffffffffffffffffffffffffffff88168452909152902054818103818110613517576040517f03dee4c500000000000000000000000000000000000000000000000000000000815273ffffffffffffffffffffffffffffffffffffffff871660048201526024810185905260448101839052606481018490526084016108d8565b8473ffffffffffffffffffffffffffffffffffffffff168673ffffffffffffffffffffffffffffffffffffffff16146112475760008481526020888152604080832073ffffffffffffffffffffffffffffffffffffffff891684529091529020548381018181116135e1576040517f42fb00bc00000000000000000000000000000000000000000000000000000000815273ffffffffffffffffffffffffffffffffffffffff881660048201526024810187905260448101839052606481018690526084016108d8565b600086815260208a8152604080832073ffffffffffffffffffffffffffffffffffffffff808d1685528184528285208890558b1684529091529020555050505050505050565b6040517ff23a6e61000000000000000000000000000000000000000000000000000000008082529073ffffffffffffffffffffffffffffffffffffffff86169063f23a6e6190613683908a908a908990899089906004016147c8565b6020604051808303816000875af11580156136a2573d6000803e3d6000fd5b505050506040513d601f19601f820116820180604052508101906136c69190614760565b7fffffffff0000000000000000000000000000000000000000000000000000000016146107a1576040517f40f39d3800000000000000000000000000000000000000000000000000000000815273ffffffffffffffffffffffffffffffffffffffff8516600482015260248101849052604481018390526064016108d8565b60006137a7826040518060400160405280602081526020017f5361666545524332303a206c6f772d6c6576656c2063616c6c206661696c65648152508573ffffffffffffffffffffffffffffffffffffffff166138549092919063ffffffff16565b90508051600014806137c85750808060200190518101906137c89190614300565b610849576040517f08c379a000000000000000000000000000000000000000000000000000000000815260206004820152602a60248201527f5361666545524332303a204552433230206f7065726174696f6e20646964206e60448201527f6f7420737563636565640000000000000000000000000000000000000000000060648201526084016108d8565b60606109db8484600085856000808673ffffffffffffffffffffffffffffffffffffffff168587604051613888919061480d565b60006040518083038185875af1925050503d80600081146138c5576040519150601f19603f3d011682016040523d82523d6000602084013e6138ca565b606091505b50915091506138db878383876138e6565b979650505050505050565b6060831561397c5782516000036139755773ffffffffffffffffffffffffffffffffffffffff85163b613975576040517f08c379a000000000000000000000000000000000000000000000000000000000815260206004820152601d60248201527f416464726573733a2063616c6c20746f206e6f6e2d636f6e747261637400000060448201526064016108d8565b50816109db565b6109db83838151156139915781518083602001fd5b806040517f08c379a00000000000000000000000000000000000000000000000000000000081526004016108d89190613ad3565b73ffffffffffffffffffffffffffffffffffffffff8116811461082757600080fd5b600080604083850312156139fa57600080fd5b8235613a05816139c5565b946020939093013593505050565b7fffffffff000000000000000000000000000000000000000000000000000000008116811461082757600080fd5b600060208284031215613a5357600080fd5b8135613a5e81613a13565b9392505050565b60005b83811015613a80578181015183820152602001613a68565b50506000910152565b60008151808452613aa1816020860160208601613a65565b601f017fffffffffffffffffffffffffffffffffffffffffffffffffffffffffffffffe0169290920160200192915050565b6020815260006105fd6020830184613a89565b60008083601f840112613af857600080fd5b50813567ffffffffffffffff811115613b1057600080fd5b6020830191508360208260051b850101111561093c57600080fd5b60008083601f840112613b3d57600080fd5b50813567ffffffffffffffff811115613b5557600080fd5b60208301915083602082850101111561093c57600080fd5b60008060008060008060006080888a031215613b8857600080fd5b8735613b93816139c5565b9650602088013567ffffffffffffffff80821115613bb057600080fd5b613bbc8b838c01613ae6565b909850965060408a0135915080821115613bd557600080fd5b613be18b838c01613ae6565b909650945060608a0135915080821115613bfa57600080fd5b50613c078a828b01613b2b565b989b979a50959850939692959293505050565b60008060008060008060808789031215613c3357600080fd5b863567ffffffffffffffff80821115613c4b57600080fd5b613c578a838b01613b2b565b90985096506020890135915080821115613c7057600080fd5b50613c7d89828a01613b2b565b9095509350506040870135613c91816139c5565b91506060870135613ca1816139c5565b809150509295509295509295565b600060208284031215613cc157600080fd5b5035919050565b600060208284031215613cda57600080fd5b8135613a5e816139c5565b600080600060608486031215613cfa57600080fd5b8335613d05816139c5565b95602085013595506040909401359392505050565b600080600060408486031215613d2f57600080fd5b83359250602084013567ffffffffffffffff811115613d4d57600080fd5b613d5986828701613b2b565b9497909650939450505050565b60008060408385031215613d7957600080fd5b50508035926020909101359150565b60008060008060008060008060a0898b031215613da457600080fd5b8835613daf816139c5565b97506020890135613dbf816139c5565b9650604089013567ffffffffffffffff80821115613ddc57600080fd5b613de88c838d01613ae6565b909850965060608b0135915080821115613e0157600080fd5b613e0d8c838d01613ae6565b909650945060808b0135915080821115613e2657600080fd5b50613e338b828c01613b2b565b999c989b5096995094979396929594505050565b60008060408385031215613e5a57600080fd5b823591506020830135613e6c816139c5565b809150509250929050565b60008060008060408587031215613e8d57600080fd5b843567ffffffffffffffff80821115613ea557600080fd5b613eb188838901613ae6565b90965094506020870135915080821115613eca57600080fd5b50613ed787828801613ae6565b95989497509550505050565b60008151808452602080850194506020840160005b83811015613f1457815187529582019590820190600101613ef8565b509495945050505050565b6020815260006105fd6020830184613ee3565b600080600080600060808688031215613f4a57600080fd5b8535613f55816139c5565b94506020860135935060408601359250606086013567ffffffffffffffff811115613f7f57600080fd5b613f8b88828901613b2b565b969995985093965092949392505050565b60008060008060008060608789031215613fb557600080fd5b863567ffffffffffffffff80821115613fcd57600080fd5b613fd98a838b01613ae6565b90985096506020890135915080821115613ff257600080fd5b613ffe8a838b01613ae6565b9096509450604089013591508082111561401757600080fd5b5061402489828a01613ae6565b979a9699509497509295939492505050565b60008060008060006060868803121561404e57600080fd5b8535614059816139c5565b9450602086013567ffffffffffffffff8082111561407657600080fd5b61408289838a01613ae6565b9096509450604088013591508082111561409b57600080fd5b50613f8b88828901613ae6565b801515811461082757600080fd5b600080604083850312156140c957600080fd5b82356140d4816139c5565b91506020830135613e6c816140a8565b6000806000806000806000806080898b03121561410057600080fd5b883567ffffffffffffffff8082111561411857600080fd5b6141248c838d01613ae6565b909a50985060208b013591508082111561413d57600080fd5b6141498c838d01613ae6565b909850965060408b013591508082111561416257600080fd5b61416e8c838d01613ae6565b909650945060608b0135915080821115613e2657600080fd5b6000806040838503121561419a57600080fd5b82356141a5816139c5565b91506020830135613e6c816139c5565b60008060008060008060a087890312156141ce57600080fd5b86356141d9816139c5565b955060208701356141e9816139c5565b94506040870135935060608701359250608087013567ffffffffffffffff81111561421357600080fd5b61402489828a01613b2b565b60208152816020820152818360408301376000818301604090810191909152601f9092017fffffffffffffffffffffffffffffffffffffffffffffffffffffffffffffffe0160101919050565b7f4e487b7100000000000000000000000000000000000000000000000000000000600052603260045260246000fd5b60008083357fffffffffffffffffffffffffffffffffffffffffffffffffffffffffffffffe18436030181126142d057600080fd5b83018035915067ffffffffffffffff8211156142eb57600080fd5b60200191503681900382131561093c57600080fd5b60006020828403121561431257600080fd5b8151613a5e816140a8565b7f4e487b7100000000000000000000000000000000000000000000000000000000600052601160045260246000fd5b818103818111156106005761060061431d565b600181811c9082168061437357607f821691505b6020821081036143ac577f4e487b7100000000000000000000000000000000000000000000000000000000600052602260045260246000fd5b50919050565b6040815260006143c56040830185613ee3565b82810360208401526143d78185613ee3565b95945050505050565b7f4e487b7100000000000000000000000000000000000000000000000000000000600052604160045260246000fd5b601f821115610849576000816000526020600020601f850160051c810160208610156144385750805b601f850160051c820191505b818110156107a157828155600101614444565b67ffffffffffffffff83111561446f5761446f6143e0565b6144838361447d835461435f565b8361440f565b6000601f8411600181146144d5576000851561449f5750838201355b7fffffffffffffffffffffffffffffffffffffffffffffffffffffffffffffffff600387901b1c1916600186901b178355610bbb565b6000838152602090207fffffffffffffffffffffffffffffffffffffffffffffffffffffffffffffffe0861690835b828110156145245786850135825560209485019460019092019101614504565b508682101561455f577fffffffffffffffffffffffffffffffffffffffffffffffffffffffffffffffff60f88860031b161c19848701351681555b505060018560011b0183555050505050565b60006020828403121561458357600080fd5b815167ffffffffffffffff8082111561459b57600080fd5b818401915084601f8301126145af57600080fd5b8151818111156145c1576145c16143e0565b604051601f82017fffffffffffffffffffffffffffffffffffffffffffffffffffffffffffffffe0908116603f01168101908382118183101715614607576146076143e0565b8160405282815287602084870101111561462057600080fd5b6138db836020830160208801613a65565b80820281158282048414176106005761060061431d565b60008261467e577f4e487b7100000000000000000000000000000000000000000000000000000000600052601260045260246000fd5b500490565b81835260007f07ffffffffffffffffffffffffffffffffffffffffffffffffffffffffffffff8311156146b557600080fd5b8260051b80836020870137939093016020019392505050565b6040815260006146e2604083018688614683565b82810360208401526138db818587614683565b600073ffffffffffffffffffffffffffffffffffffffff808816835280871660208401525060a0604083015261472e60a0830186613ee3565b82810360608401526147408186613ee3565b905082810360808401526147548185613a89565b98975050505050505050565b60006020828403121561477257600080fd5b8151613a5e81613a13565b73ffffffffffffffffffffffffffffffffffffffff841681526060602082015260006147ac6060830185613ee3565b82810360408401526147be8185613ee3565b9695505050505050565b600073ffffffffffffffffffffffffffffffffffffffff808816835280871660208401525084604083015283606083015260a060808301526138db60a0830184613a89565b6000825161481f818460208701613a65565b919091019291505056fea26469706673582212204d0d2d4ec806ad8062ecdcad15620e8b79e57ed8719f370ac73fcee89d75343464736f6c63430008160033",
  "linkReferences": {},
  "deployedLinkReferences": {}
}