{
  "_format": "hh-sol-artifact-1",
  "contractName": "ERC1155FullBurnProxied",
  "sourceName": "contracts/token/ERC1155/preset/proxied/ERC1155FullBurnProxied.sol",
  "abi": [
    {
      "inputs": [
        {
          "internalType": "contract IForwarderRegistry",
          "name": "forwarderRegistry",
          "type": "address"
        }
      ],
      "stateMutability": "nonpayable",
      "type": "constructor"
    },
    {
      "inputs": [
        {
          "internalType": "uint256",
          "name": "percentage",
          "type": "uint256"
        }
      ],
      "name": "IncorrectRoyaltyPercentage",
      "type": "error"
    },
    {
      "inputs": [],
      "name": "IncorrectRoyaltyReceiver",
      "type": "error"
    },
    {
      "inputs": [
        {
          "internalType": "address",
          "name": "operator",
          "type": "address"
        }
      ],
      "name": "OperatorNotAllowed",
      "type": "error"
    },
    {
      "anonymous": false,
      "inputs": [
        {
          "indexed": true,
          "internalType": "address",
          "name": "owner",
          "type": "address"
        },
        {
          "indexed": true,
          "internalType": "address",
          "name": "operator",
          "type": "address"
        },
        {
          "indexed": false,
          "internalType": "bool",
          "name": "approved",
          "type": "bool"
        }
      ],
      "name": "ApprovalForAll",
      "type": "event"
    },
    {
      "anonymous": false,
      "inputs": [
        {
          "indexed": true,
          "internalType": "address",
          "name": "previousOwner",
          "type": "address"
        },
        {
          "indexed": true,
          "internalType": "address",
          "name": "newOwner",
          "type": "address"
        }
      ],
      "name": "OwnershipTransferred",
      "type": "event"
    },
    {
      "anonymous": false,
      "inputs": [
        {
          "indexed": false,
          "internalType": "bytes32",
          "name": "role",
          "type": "bytes32"
        },
        {
          "indexed": false,
          "internalType": "address",
          "name": "account",
          "type": "address"
        },
        {
          "indexed": false,
          "internalType": "address",
          "name": "operator",
          "type": "address"
        }
      ],
      "name": "RoleGranted",
      "type": "event"
    },
    {
      "anonymous": false,
      "inputs": [
        {
          "indexed": false,
          "internalType": "bytes32",
          "name": "role",
          "type": "bytes32"
        },
        {
          "indexed": false,
          "internalType": "address",
          "name": "account",
          "type": "address"
        },
        {
          "indexed": false,
          "internalType": "address",
          "name": "operator",
          "type": "address"
        }
      ],
      "name": "RoleRevoked",
      "type": "event"
    },
    {
      "anonymous": false,
      "inputs": [
        {
          "indexed": true,
          "internalType": "address",
          "name": "operator",
          "type": "address"
        },
        {
          "indexed": true,
          "internalType": "address",
          "name": "from",
          "type": "address"
        },
        {
          "indexed": true,
          "internalType": "address",
          "name": "to",
          "type": "address"
        },
        {
          "indexed": false,
          "internalType": "uint256[]",
          "name": "ids",
          "type": "uint256[]"
        },
        {
          "indexed": false,
          "internalType": "uint256[]",
          "name": "values",
          "type": "uint256[]"
        }
      ],
      "name": "TransferBatch",
      "type": "event"
    },
    {
      "anonymous": false,
      "inputs": [
        {
          "indexed": true,
          "internalType": "address",
          "name": "operator",
          "type": "address"
        },
        {
          "indexed": true,
          "internalType": "address",
          "name": "from",
          "type": "address"
        },
        {
          "indexed": true,
          "internalType": "address",
          "name": "to",
          "type": "address"
        },
        {
          "indexed": false,
          "internalType": "uint256",
          "name": "id",
          "type": "uint256"
        },
        {
          "indexed": false,
          "internalType": "uint256",
          "name": "value",
          "type": "uint256"
        }
      ],
      "name": "TransferSingle",
      "type": "event"
    },
    {
      "anonymous": false,
      "inputs": [
        {
          "indexed": false,
          "internalType": "string",
          "name": "value",
          "type": "string"
        },
        {
          "indexed": true,
          "internalType": "uint256",
          "name": "id",
          "type": "uint256"
        }
      ],
      "name": "URI",
      "type": "event"
    },
    {
      "inputs": [],
      "name": "MINTER_ROLE",
      "outputs": [
        {
          "internalType": "bytes32",
          "name": "",
          "type": "bytes32"
        }
      ],
      "stateMutability": "view",
      "type": "function"
    },
    {
      "inputs": [],
      "name": "ROYALTY_FEE_DENOMINATOR",
      "outputs": [
        {
          "internalType": "uint256",
          "name": "",
          "type": "uint256"
        }
      ],
      "stateMutability": "view",
      "type": "function"
    },
    {
      "inputs": [
        {
          "internalType": "address",
          "name": "owner",
          "type": "address"
        },
        {
          "internalType": "uint256",
          "name": "id",
          "type": "uint256"
        }
      ],
      "name": "balanceOf",
      "outputs": [
        {
          "internalType": "uint256",
          "name": "balance",
          "type": "uint256"
        }
      ],
      "stateMutability": "view",
      "type": "function"
    },
    {
      "inputs": [
        {
          "internalType": "address[]",
          "name": "owners",
          "type": "address[]"
        },
        {
          "internalType": "uint256[]",
          "name": "ids",
          "type": "uint256[]"
        }
      ],
      "name": "balanceOfBatch",
      "outputs": [
        {
          "internalType": "uint256[]",
          "name": "balances",
          "type": "uint256[]"
        }
      ],
      "stateMutability": "view",
      "type": "function"
    },
    {
      "inputs": [
        {
          "internalType": "address",
          "name": "from",
          "type": "address"
        },
        {
          "internalType": "uint256[]",
          "name": "ids",
          "type": "uint256[]"
        },
        {
          "internalType": "uint256[]",
          "name": "values",
          "type": "uint256[]"
        }
      ],
      "name": "batchBurnFrom",
      "outputs": [],
      "stateMutability": "nonpayable",
      "type": "function"
    },
    {
      "inputs": [
        {
          "internalType": "address",
          "name": "from",
          "type": "address"
        },
        {
          "internalType": "uint256",
          "name": "id",
          "type": "uint256"
        },
        {
          "internalType": "uint256",
          "name": "value",
          "type": "uint256"
        }
      ],
      "name": "burnFrom",
      "outputs": [],
      "stateMutability": "nonpayable",
      "type": "function"
    },
    {
      "inputs": [],
      "name": "forwarderRegistry",
      "outputs": [
        {
          "internalType": "contract IForwarderRegistry",
          "name": "",
          "type": "address"
        }
      ],
      "stateMutability": "view",
      "type": "function"
    },
    {
      "inputs": [
        {
          "internalType": "bytes32",
          "name": "role",
          "type": "bytes32"
        },
        {
          "internalType": "address",
          "name": "account",
          "type": "address"
        }
      ],
      "name": "grantRole",
      "outputs": [],
      "stateMutability": "nonpayable",
      "type": "function"
    },
    {
      "inputs": [
        {
          "internalType": "bytes32",
          "name": "role",
          "type": "bytes32"
        },
        {
          "internalType": "address",
          "name": "account",
          "type": "address"
        }
      ],
      "name": "hasRole",
      "outputs": [
        {
          "internalType": "bool",
          "name": "hasRole_",
          "type": "bool"
        }
      ],
      "stateMutability": "view",
      "type": "function"
    },
    {
      "inputs": [
        {
          "internalType": "string",
          "name": "tokenName",
          "type": "string"
        },
        {
          "internalType": "string",
          "name": "tokenSymbol",
          "type": "string"
        },
        {
          "internalType": "contract ITokenMetadataResolver",
          "name": "metadataResolver",
          "type": "address"
        },
        {
          "internalType": "contract IOperatorFilterRegistry",
          "name": "filterRegistry",
          "type": "address"
        }
      ],
      "name": "init",
      "outputs": [],
      "stateMutability": "nonpayable",
      "type": "function"
    },
    {
      "inputs": [
        {
          "internalType": "address",
          "name": "owner",
          "type": "address"
        },
        {
          "internalType": "address",
          "name": "operator",
          "type": "address"
        }
      ],
      "name": "isApprovedForAll",
      "outputs": [
        {
          "internalType": "bool",
          "name": "approvedForAll",
          "type": "bool"
        }
      ],
      "stateMutability": "view",
      "type": "function"
    },
    {
      "inputs": [
        {
          "internalType": "address",
          "name": "forwarder",
          "type": "address"
        }
      ],
      "name": "isTrustedForwarder",
      "outputs": [
        {
          "internalType": "bool",
          "name": "",
          "type": "bool"
        }
      ],
      "stateMutability": "view",
      "type": "function"
    },
    {
      "inputs": [],
      "name": "metadataResolver",
      "outputs": [
        {
          "internalType": "contract ITokenMetadataResolver",
          "name": "tokenMetadataResolver",
          "type": "address"
        }
      ],
      "stateMutability": "view",
      "type": "function"
    },
    {
      "inputs": [],
      "name": "name",
      "outputs": [
        {
          "internalType": "string",
          "name": "tokenName",
          "type": "string"
        }
      ],
      "stateMutability": "view",
      "type": "function"
    },
    {
      "inputs": [],
      "name": "operatorFilterRegistry",
      "outputs": [
        {
          "internalType": "contract IOperatorFilterRegistry",
          "name": "",
          "type": "address"
        }
      ],
      "stateMutability": "view",
      "type": "function"
    },
    {
      "inputs": [],
      "name": "owner",
      "outputs": [
        {
          "internalType": "address",
          "name": "",
          "type": "address"
        }
      ],
      "stateMutability": "view",
      "type": "function"
    },
    {
      "inputs": [
        {
          "internalType": "address[]",
          "name": "accounts",
          "type": "address[]"
        },
        {
          "internalType": "contract IERC20[]",
          "name": "tokens",
          "type": "address[]"
        },
        {
          "internalType": "uint256[]",
          "name": "amounts",
          "type": "uint256[]"
        }
      ],
      "name": "recoverERC20s",
      "outputs": [],
      "stateMutability": "nonpayable",
      "type": "function"
    },
    {
      "inputs": [
        {
          "internalType": "address[]",
          "name": "accounts",
          "type": "address[]"
        },
        {
          "internalType": "contract IERC721[]",
          "name": "contracts",
          "type": "address[]"
        },
        {
          "internalType": "uint256[]",
          "name": "tokenIds",
          "type": "uint256[]"
        }
      ],
      "name": "recoverERC721s",
      "outputs": [],
      "stateMutability": "nonpayable",
      "type": "function"
    },
    {
      "inputs": [
        {
          "internalType": "address payable[]",
          "name": "accounts",
          "type": "address[]"
        },
        {
          "internalType": "uint256[]",
          "name": "amounts",
          "type": "uint256[]"
        }
      ],
      "name": "recoverETH",
      "outputs": [],
      "stateMutability": "nonpayable",
      "type": "function"
    },
    {
      "inputs": [
        {
          "internalType": "bytes32",
          "name": "role",
          "type": "bytes32"
        }
      ],
      "name": "renounceRole",
      "outputs": [],
      "stateMutability": "nonpayable",
      "type": "function"
    },
    {
      "inputs": [
        {
          "internalType": "bytes32",
          "name": "role",
          "type": "bytes32"
        },
        {
          "internalType": "address",
          "name": "account",
          "type": "address"
        }
      ],
      "name": "revokeRole",
      "outputs": [],
      "stateMutability": "nonpayable",
      "type": "function"
    },
    {
      "inputs": [
        {
          "internalType": "uint256",
          "name": "tokenId",
          "type": "uint256"
        },
        {
          "internalType": "uint256",
          "name": "salePrice",
          "type": "uint256"
        }
      ],
      "name": "royaltyInfo",
      "outputs": [
        {
          "internalType": "address",
          "name": "receiver",
          "type": "address"
        },
        {
          "internalType": "uint256",
          "name": "royaltyAmount",
          "type": "uint256"
        }
      ],
      "stateMutability": "view",
      "type": "function"
    },
    {
      "inputs": [
        {
          "internalType": "address",
          "name": "to",
          "type": "address"
        },
        {
          "internalType": "uint256[]",
          "name": "ids",
          "type": "uint256[]"
        },
        {
          "internalType": "uint256[]",
          "name": "values",
          "type": "uint256[]"
        },
        {
          "internalType": "bytes",
          "name": "data",
          "type": "bytes"
        }
      ],
      "name": "safeBatchMint",
      "outputs": [],
      "stateMutability": "nonpayable",
      "type": "function"
    },
    {
      "inputs": [
        {
          "internalType": "address",
          "name": "from",
          "type": "address"
        },
        {
          "internalType": "address",
          "name": "to",
          "type": "address"
        },
        {
          "internalType": "uint256[]",
          "name": "ids",
          "type": "uint256[]"
        },
        {
          "internalType": "uint256[]",
          "name": "values",
          "type": "uint256[]"
        },
        {
          "internalType": "bytes",
          "name": "data",
          "type": "bytes"
        }
      ],
      "name": "safeBatchTransferFrom",
      "outputs": [],
      "stateMutability": "nonpayable",
      "type": "function"
    },
    {
      "inputs": [
        {
          "internalType": "address[]",
          "name": "recipients",
          "type": "address[]"
        },
        {
          "internalType": "uint256[]",
          "name": "ids",
          "type": "uint256[]"
        },
        {
          "internalType": "uint256[]",
          "name": "values",
          "type": "uint256[]"
        },
        {
          "internalType": "bytes",
          "name": "data",
          "type": "bytes"
        }
      ],
      "name": "safeDeliver",
      "outputs": [],
      "stateMutability": "nonpayable",
      "type": "function"
    },
    {
      "inputs": [
        {
          "internalType": "address",
          "name": "to",
          "type": "address"
        },
        {
          "internalType": "uint256",
          "name": "id",
          "type": "uint256"
        },
        {
          "internalType": "uint256",
          "name": "value",
          "type": "uint256"
        },
        {
          "internalType": "bytes",
          "name": "data",
          "type": "bytes"
        }
      ],
      "name": "safeMint",
      "outputs": [],
      "stateMutability": "nonpayable",
      "type": "function"
    },
    {
      "inputs": [
        {
          "internalType": "address",
          "name": "from",
          "type": "address"
        },
        {
          "internalType": "address",
          "name": "to",
          "type": "address"
        },
        {
          "internalType": "uint256",
          "name": "id",
          "type": "uint256"
        },
        {
          "internalType": "uint256",
          "name": "value",
          "type": "uint256"
        },
        {
          "internalType": "bytes",
          "name": "data",
          "type": "bytes"
        }
      ],
      "name": "safeTransferFrom",
      "outputs": [],
      "stateMutability": "nonpayable",
      "type": "function"
    },
    {
      "inputs": [
        {
          "internalType": "address",
          "name": "operator",
          "type": "address"
        },
        {
          "internalType": "bool",
          "name": "approved",
          "type": "bool"
        }
      ],
      "name": "setApprovalForAll",
      "outputs": [],
      "stateMutability": "nonpayable",
      "type": "function"
    },
    {
      "inputs": [
        {
          "internalType": "uint256",
          "name": "percentage",
          "type": "uint256"
        }
      ],
      "name": "setRoyaltyPercentage",
      "outputs": [],
      "stateMutability": "nonpayable",
      "type": "function"
    },
    {
      "inputs": [
        {
          "internalType": "address",
          "name": "receiver",
          "type": "address"
        }
      ],
      "name": "setRoyaltyReceiver",
      "outputs": [],
      "stateMutability": "nonpayable",
      "type": "function"
    },
    {
      "inputs": [
        {
          "internalType": "bytes4",
          "name": "interfaceId",
          "type": "bytes4"
        }
      ],
      "name": "supportsInterface",
      "outputs": [
        {
          "internalType": "bool",
          "name": "",
          "type": "bool"
        }
      ],
      "stateMutability": "view",
      "type": "function"
    },
    {
      "inputs": [],
      "name": "symbol",
      "outputs": [
        {
          "internalType": "string",
          "name": "tokenSymbol",
          "type": "string"
        }
      ],
      "stateMutability": "view",
      "type": "function"
    },
    {
      "inputs": [
        {
          "internalType": "address",
          "name": "newOwner",
          "type": "address"
        }
      ],
      "name": "transferOwnership",
      "outputs": [],
      "stateMutability": "nonpayable",
      "type": "function"
    },
    {
      "inputs": [
        {
          "internalType": "contract IOperatorFilterRegistry",
          "name": "registry",
          "type": "address"
        }
      ],
      "name": "updateOperatorFilterRegistry",
      "outputs": [],
      "stateMutability": "nonpayable",
      "type": "function"
    },
    {
      "inputs": [
        {
          "internalType": "uint256",
          "name": "tokenId",
          "type": "uint256"
        }
      ],
      "name": "uri",
      "outputs": [
        {
          "internalType": "string",
          "name": "metadataURI",
          "type": "string"
        }
      ],
      "stateMutability": "view",
      "type": "function"
    }
  ],
  "bytecode": "0x60a060405234801562000010575f80fd5b506040516200482438038062004824833981016040819052620000339162000045565b6001600160a01b031660805262000074565b5f6020828403121562000056575f80fd5b81516001600160a01b03811681146200006d575f80fd5b9392505050565b608051614782620000a25f395f8181610338015281816103d301528181612cda0152612d6201526147825ff3fe608060405234801561000f575f80fd5b5060043610610234575f3560e01c8063805349341161013d578063c3666c36116100b8578063e8ab9ccc11610088578063f242432a1161006e578063f242432a14610545578063f2fde38b14610558578063f7ba94bd1461056b575f80fd5b8063e8ab9ccc1461051f578063e985e9c514610532575f80fd5b8063c3666c36146104c8578063d5391393146104db578063d547741f14610502578063e1a8bf2c14610515575f80fd5b806391d148541161010d578063a0c76f62116100f3578063a0c76f62146104a5578063a22cb465146104ad578063b0ccc31e146104c0575f80fd5b806391d148541461048a57806395d89b411461049d575f80fd5b806380534934146104495780638bb9c5bf1461045c5780638da5cb5b1461046f5780638dc251e314610477575f80fd5b80632a55205a116101cd5780634e1273f41161019d5780635cfa9297116101835780635cfa92971461041057806361ba27da1461042357806373c8a95814610436575f80fd5b80634e1273f4146103a3578063572b6c05146103c3575f80fd5b80632a55205a146102f75780632b4c9f16146103365780632eb2c2d61461037d5780632f2ff15d14610390575f80fd5b80630e07f854116102085780630e07f854146102ab5780630e89341c146102be578063114ba8ee146102d1578063124d91e5146102e4575f80fd5b8062fdd58e1461023857806301ffc9a71461025e57806306fdde03146102815780630d6a5bbb14610296575b5f80fd5b61024b610246366004613a69565b61057e565b6040519081526020015b60405180910390f35b61027161026c366004613ac0565b61059c565b6040519015158152602001610255565b6102896105af565b6040516102559190613b4d565b6102a96102a4366004613bde565b6105c6565b005b6102a96102b9366004613c83565b6106bd565b6102896102cc366004613d12565b61073a565b6102a96102df366004613d29565b610750565b6102a96102f2366004613d44565b6107bb565b61030a610305366004613d76565b6107df565b6040805173ffffffffffffffffffffffffffffffffffffffff9093168352602083019190915201610255565b7f00000000000000000000000000000000000000000000000000000000000000005b60405173ffffffffffffffffffffffffffffffffffffffff9091168152602001610255565b6102a961038b366004613d96565b610801565b6102a961039e366004613e4d565b61084d565b6103b66103b1366004613e7b565b61087a565b6040516102559190613f1b565b6102716103d1366004613d29565b7f000000000000000000000000000000000000000000000000000000000000000073ffffffffffffffffffffffffffffffffffffffff90811691161490565b6102a961041e366004613f2d565b61089f565b6102a9610431366004613d12565b610927565b6102a9610444366004613f92565b610944565b6102a9610457366004614025565b610a61565b6102a961046a366004613d12565b610a8b565b610358610aa6565b6102a9610485366004613d29565b610acc565b610271610498366004613e4d565b610ae9565b610289610b2b565b610358610b3d565b6102a96104bb36600461409e565b610b66565b610358610b9f565b6102a96104d6366004613f92565b610bab565b61024b7f6d696e746572000000000000000000000000000000000000000000000000000081565b6102a9610510366004613e4d565b610d4a565b61024b620186a081565b6102a961052d3660046140ca565b610d77565b610271610540366004614164565b610e8c565b6102a9610553366004614190565b610ed8565b6102a9610566366004613d29565b610f17565b6102a9610579366004613e7b565b610f32565b5f610593838361058c611017565b9190611044565b90505b92915050565b5f610596826105a96110f6565b90611123565b60606105c16105bc6111fa565b611227565b905090565b5f6105cf6112ba565b90506106057f6d696e7465720000000000000000000000000000000000000000000000000000826105fe6112c3565b91906112f0565b6106b381898989808060200260200160405190810160405280939291908181526020018383602002808284375f9201919091525050604080516020808d0282810182019093528c82529093508c92508b9182918501908490808284375f9201919091525050604080516020601f8c018190048102820181019092528a815292508a91508990819084018382808284375f920191909152506106a99250611017915050565b949392919061139b565b5050505050505050565b6106d66106c86112ba565b6106d061157d565b906115aa565b6106de6115e9565b6106e6611620565b6106ee61164e565b6106f661167c565b6106fe6116aa565b6107066116d8565b61072086868686866107166111fa565b9493929190611706565b6107328161072c6117a0565b906117cd565b505050505050565b606061059630836107496111fa565b919061183d565b61076961075b6112ba565b61076361157d565b906118f9565b6107b8816107756117a0565b9081547fffffffffffffffffffffffff00000000000000000000000000000000000000001673ffffffffffffffffffffffffffffffffffffffff91909116179055565b50565b6107da6107c66112ba565b8484846107d1611017565b9392919061197c565b505050565b5f806107f584846107ee611a58565b9190611a85565b915091505b9250929050565b5f61080a6112ba565b9050610820818a6108196117a0565b9190611b2d565b610842818a8a8a8a8a8a8a8a610834611017565b989796959493929190611b6a565b505050505050505050565b5f6108566112ba565b90506108648161076361157d565b6107da8383836108726112c3565b929190611e5e565b60606108948585858561088b611017565b93929190611f33565b90505b949350505050565b5f6108a86112ba565b90506108d77f6d696e7465720000000000000000000000000000000000000000000000000000826105fe6112c3565b6107328187878787878080601f0160208091040260200160405190810160405280939291908181526020018383808284375f9201919091525061091d9250611017915050565b9493929190612070565b61093261075b6112ba565b6107b88161093e611a58565b9061217c565b61094f61075b6112ba565b84838114801561095e57508082145b6109c9576040517f08c379a000000000000000000000000000000000000000000000000000000000815260206004820152601d60248201527f5265636f766572793a20696e636f6e73697374656e742061727261797300000060448201526064015b60405180910390fd5b5f5b8181146106b357610a598888838181106109e7576109e76141f5565b90506020020160208101906109fc9190613d29565b858584818110610a0e57610a0e6141f5565b90506020020135888885818110610a2757610a276141f5565b9050602002016020810190610a3c9190613d29565b73ffffffffffffffffffffffffffffffffffffffff169190612202565b6001016109cb565b610a84610a6c6112ba565b8686868686610a79611017565b95949392919061228f565b5050505050565b6107b8610a966112ba565b82610a9f6112c3565b9190612444565b5f6105c1610ab261157d565b5473ffffffffffffffffffffffffffffffffffffffff1690565b610ad761075b6112ba565b6107b881610ae3611a58565b906124e7565b5f6105938383610af76112c3565b5f9283526020908152604080842073ffffffffffffffffffffffffffffffffffffffff909316845291905290205460ff1690565b60606105c1610b386111fa565b612534565b5f6105c1610b496111fa565b6002015473ffffffffffffffffffffffffffffffffffffffff1690565b8015610b7e57610b7e82610b786117a0565b90612545565b610b9b610b896112ba565b8383610b93611017565b92919061254f565b5050565b5f6105c1610ab26117a0565b610bb661075b6112ba565b848381148015610bc557508082145b610c2b576040517f08c379a000000000000000000000000000000000000000000000000000000000815260206004820152601d60248201527f5265636f766572793a20696e636f6e73697374656e742061727261797300000060448201526064016109c0565b5f5b8181146106b357858582818110610c4657610c466141f5565b9050602002016020810190610c5b9190613d29565b73ffffffffffffffffffffffffffffffffffffffff166323b872dd308a8a85818110610c8957610c896141f5565b9050602002016020810190610c9e9190613d29565b878786818110610cb057610cb06141f5565b6040517fffffffff0000000000000000000000000000000000000000000000000000000060e088901b16815273ffffffffffffffffffffffffffffffffffffffff9586166004820152949093166024850152506020909102013560448201526064015f604051808303815f87803b158015610d29575f80fd5b505af1158015610d3b573d5f803e3d5ffd5b50505050806001019050610c2d565b5f610d536112ba565b9050610d618161076361157d565b6107da838383610d6f6112c3565b92919061267e565b5f610d806112ba565b9050610daf7f6d696e7465720000000000000000000000000000000000000000000000000000826105fe6112c3565b610842818a8a808060200260200160405190810160405280939291908181526020018383602002808284375f9201919091525050604080516020808e0282810182019093528d82529093508d92508c9182918501908490808284375f9201919091525050604080516020808d0282810182019093528c82529093508c92508b9182918501908490808284375f9201919091525050604080516020601f8c018190048102820181019092528a815292508a91508990819084018382808284375f92019190915250610e829250611017915050565b9493929190612746565b5f6105938383610e9a611017565b919073ffffffffffffffffffffffffffffffffffffffff9182165f908152600193909301602090815260408085209290931684525290205460ff1690565b5f610ee16112ba565b9050610ef081886108196117a0565b610f0e81888888888888610f02611017565b96959493929190612835565b50505050505050565b6107b8610f226112ba565b82610f2b61157d565b9190612a17565b610f3d61075b6112ba565b82818114610fa7576040517f08c379a000000000000000000000000000000000000000000000000000000000815260206004820152601d60248201527f5265636f766572793a20696e636f6e73697374656e742061727261797300000060448201526064016109c0565b5f5b8181146107325761100f848483818110610fc557610fc56141f5565b90506020020135878784818110610fde57610fde6141f5565b9050602002016020810190610ff39190613d29565b73ffffffffffffffffffffffffffffffffffffffff1690612b42565b600101610fa9565b5f8061059660017f5ccf5846fa27a68fafc8e588671a68f5e67c2f9b56af4263806a4d71735e861361424f565b5f73ffffffffffffffffffffffffffffffffffffffff83166110c2576040517f08c379a000000000000000000000000000000000000000000000000000000000815260206004820152601e60248201527f455243313135353a2062616c616e6365206f662061646472657373283029000060448201526064016109c0565b505f9081526020928352604080822073ffffffffffffffffffffffffffffffffffffffff9390931682529190925290205490565b5f8061059660017fca9d3e17f264b0f3984e2634e94adb37fa3e6a8103f06aeae6fa59e21c769f5e61424f565b5f7c01000000000000000000000000000000000000000000000000000000007fffffffff0000000000000000000000000000000000000000000000000000000083160161117157505f610596565b7ffe003659000000000000000000000000000000000000000000000000000000007fffffffff000000000000000000000000000000000000000000000000000000008316016111c257506001610596565b507fffffffff00000000000000000000000000000000000000000000000000000000165f908152602091909152604090205460ff1690565b5f8061059660017f7ea68fd2dcf1c056b94db6a0a537aa80d26fa9ab1eacd85da1ba0b61b7e7a8a561424f565b6060815f01805461123790614262565b80601f016020809104026020016040519081016040528092919081815260200182805461126390614262565b80156112ae5780601f10611285576101008083540402835291602001916112ae565b820191905f5260205f20905b81548152906001019060200180831161129157829003601f168201915b50505050509050919050565b5f6105c1612c98565b5f8061059660017fc8827d3282af6f37b64c3e9e6f3ac9df286ab0bb0fccd6f8661bf19adb368b2361424f565b5f8281526020848152604080832073ffffffffffffffffffffffffffffffffffffffff8516845290915290205460ff166107da5761132d82612ddc565b60405160200161133d91906142b3565b604080517fffffffffffffffffffffffffffffffffffffffffffffffffffffffffffffffe0818403018152908290527f08c379a00000000000000000000000000000000000000000000000000000000082526109c091600401613b4d565b73ffffffffffffffffffffffffffffffffffffffff8416611418576040517f08c379a000000000000000000000000000000000000000000000000000000000815260206004820152601b60248201527f455243313135353a206d696e7420746f2061646472657373283029000000000060448201526064016109c0565b825182518114611484576040517f08c379a000000000000000000000000000000000000000000000000000000000815260206004820152601c60248201527f455243313135353a20696e636f6e73697374656e74206172726179730000000060448201526064016109c0565b5f5b8181146114d3576114cb88878784815181106114a4576114a46141f5565b60200260200101518785815181106114be576114be6141f5565b6020026020010151612f67565b600101611486565b508473ffffffffffffffffffffffffffffffffffffffff165f73ffffffffffffffffffffffffffffffffffffffff168773ffffffffffffffffffffffffffffffffffffffff167f4a39dc06d4c0dbc64b70af90fd698a233a518aa5d07e595d983b8c0526c8f7fb878760405161154a92919061431e565b60405180910390a473ffffffffffffffffffffffffffffffffffffffff85163b15610f0e57610f0e865f87878787613039565b5f8061059660017fc9ed16f33ab3a66c84bfd83099ccb2a8845871e2e1c1928f63797152f0fd54cd61424f565b6115df6115d860017f5b388d90dc1312ba799f321972f13311234fa1163bcabec7cf66101c4876eb8461424f565b600161315e565b610b9b82826131ce565b61161e7fd9b67a260000000000000000000000000000000000000000000000000000000060016116176110f6565b9190613283565b565b61161e7f0e89341c0000000000000000000000000000000000000000000000000000000060016116176110f6565b61161e7f5190c92c0000000000000000000000000000000000000000000000000000000060016116176110f6565b61161e7fe8ab9ccc0000000000000000000000000000000000000000000000000000000060016116176110f6565b61161e7f921ed8d10000000000000000000000000000000000000000000000000000000060016116176110f6565b61161e7f2a55205a0000000000000000000000000000000000000000000000000000000060016116176110f6565b6117346115d860017f92f72593ca50a0096f68ee94e7000db40ed086164b695855e2250750b8bfaf5961424f565b856117408587836143bd565b50600186016117508385836143bd565b5060029590950180547fffffffffffffffffffffffff00000000000000000000000000000000000000001673ffffffffffffffffffffffffffffffffffffffff9096169590951790945550505050565b5f8061059660017f609b85bcafa81ecfaf3ff62cdde2c6c9082a68dbe4922f07399c706bdeb7cd3161424f565b6117fb6115d860017f2f02d396cb1be29636682c8684200b30a98554d3b74293aa4495cb5e1d252f6e61424f565b81547fffffffffffffffffffffffff00000000000000000000000000000000000000001673ffffffffffffffffffffffffffffffffffffffff91909116179055565b60028301546040517ff724dad700000000000000000000000000000000000000000000000000000000815273ffffffffffffffffffffffffffffffffffffffff848116600483015260248201849052606092169063f724dad7906044015f60405180830381865afa1580156118b4573d5f803e3d5ffd5b505050506040513d5f823e601f3d9081017fffffffffffffffffffffffffffffffffffffffffffffffffffffffffffffffe016820160405261089791908101906144d4565b815473ffffffffffffffffffffffffffffffffffffffff828116911614610b9b576040517f08c379a000000000000000000000000000000000000000000000000000000000815260206004820152601860248201527f4f776e6572736869703a206e6f7420746865206f776e6572000000000000000060448201526064016109c0565b61198785848661338e565b6119ed576040517f08c379a000000000000000000000000000000000000000000000000000000000815260206004820152601c60248201527f455243313135353a206e6f6e2d617070726f7665642073656e6465720000000060448201526064016109c0565b6119f985848484613401565b60408051838152602081018390525f9173ffffffffffffffffffffffffffffffffffffffff86811692908816917fc3d58168c5ae7397731d063d5bbf3d657854427343f4c083240f7aacaa2d0f62910160405180910390a45050505050565b5f8061059660017f2c0cf10337caabbd02dcf226f05f5fd19a0919a41a8df8958c39b8000782685861424f565b825473ffffffffffffffffffffffffffffffffffffffff8116905f907401000000000000000000000000000000000000000090046bffffffffffffffffffffffff16831580611ad2575080155b15611adf575f9150611b24565b620186a0841015611b0957620186a0611af8828661458f565b611b0291906145a6565b9150611b24565b80611b17620186a0866145a6565b611b21919061458f565b91505b50935093915050565b8073ffffffffffffffffffffffffffffffffffffffff168273ffffffffffffffffffffffffffffffffffffffff16146107da576107da83836134a0565b73ffffffffffffffffffffffffffffffffffffffff8716611be7576040517f08c379a000000000000000000000000000000000000000000000000000000000815260206004820152601f60248201527f455243313135353a207472616e7366657220746f20616464726573732830290060448201526064016109c0565b84838114611c51576040517f08c379a000000000000000000000000000000000000000000000000000000000815260206004820152601c60248201527f455243313135353a20696e636f6e73697374656e74206172726179730000000060448201526064016109c0565b611c5c8b8a8c61338e565b611cc2576040517f08c379a000000000000000000000000000000000000000000000000000000000815260206004820152601c60248201527f455243313135353a206e6f6e2d617070726f7665642073656e6465720000000060448201526064016109c0565b5f5b818114611d1057611d088c8b8b8b8b86818110611ce357611ce36141f5565b905060200201358a8a87818110611cfc57611cfc6141f5565b905060200201356135c4565b600101611cc4565b508773ffffffffffffffffffffffffffffffffffffffff168973ffffffffffffffffffffffffffffffffffffffff168b73ffffffffffffffffffffffffffffffffffffffff167f4a39dc06d4c0dbc64b70af90fd698a233a518aa5d07e595d983b8c0526c8f7fb8a8a8a8a604051611d8b9493929190614627565b60405180910390a473ffffffffffffffffffffffffffffffffffffffff88163b15611e5157611e518a8a8a8a8a808060200260200160405190810160405280939291908181526020018383602002808284375f9201919091525050604080516020808e0282810182019093528d82529093508d92508c9182918501908490808284375f9201919091525050604080516020601f8d018190048102820181019092528b815292508b91508a90819084018382808284375f9201919091525061303992505050565b5050505050505050505050565b5f8381526020858152604080832073ffffffffffffffffffffffffffffffffffffffff8616845290915290205460ff16611f2d575f8381526020858152604080832073ffffffffffffffffffffffffffffffffffffffff8681168086529184529382902080547fffffffffffffffffffffffffffffffffffffffffffffffffffffffffffffff00166001179055815187815292830152918316918101919091527f2f8788117e7eff1d82e926ec794901d17c78024a50270940304540a733656f0d906060015b60405180910390a15b50505050565b606083828114611f9f576040517f08c379a000000000000000000000000000000000000000000000000000000000815260206004820152601c60248201527f455243313135353a20696e636f6e73697374656e74206172726179730000000060448201526064016109c0565b8467ffffffffffffffff811115611fb857611fb861434b565b604051908082528060200260200182016040528015611fe1578160200160208202803683370190505b5091505f5b81811461206557612040878783818110612002576120026141f5565b90506020020160208101906120179190613d29565b868684818110612029576120296141f5565b905060200201358a6110449092919063ffffffff16565b838281518110612052576120526141f5565b6020908102919091010152600101611fe6565b505095945050505050565b73ffffffffffffffffffffffffffffffffffffffff84166120ed576040517f08c379a000000000000000000000000000000000000000000000000000000000815260206004820152601b60248201527f455243313135353a206d696e7420746f2061646472657373283029000000000060448201526064016109c0565b6120f986858585612f67565b604080518481526020810184905273ffffffffffffffffffffffffffffffffffffffff808716925f92918916917fc3d58168c5ae7397731d063d5bbf3d657854427343f4c083240f7aacaa2d0f62910160405180910390a473ffffffffffffffffffffffffffffffffffffffff84163b1561073257610732855f86868686613774565b620186a08111156121bc576040517f3affc6c4000000000000000000000000000000000000000000000000000000008152600481018290526024016109c0565b81546bffffffffffffffffffffffff909116740100000000000000000000000000000000000000000273ffffffffffffffffffffffffffffffffffffffff909116179055565b6040805173ffffffffffffffffffffffffffffffffffffffff8416602482015260448082018490528251808303909101815260649091019091526020810180517bffffffffffffffffffffffffffffffffffffffffffffffffffffffff167fa9059cbb000000000000000000000000000000000000000000000000000000001790526107da9084906137d0565b828181146122f9576040517f08c379a000000000000000000000000000000000000000000000000000000000815260206004820152601c60248201527f455243313135353a20696e636f6e73697374656e74206172726179730000000060448201526064016109c0565b61230488878961338e565b61236a576040517f08c379a000000000000000000000000000000000000000000000000000000000815260206004820152601c60248201527f455243313135353a206e6f6e2d617070726f7665642073656e6465720000000060448201526064016109c0565b5f5b8181146123b7576123af898888888581811061238a5761238a6141f5565b905060200201358787868181106123a3576123a36141f5565b90506020020135613401565b60010161236c565b505f73ffffffffffffffffffffffffffffffffffffffff168673ffffffffffffffffffffffffffffffffffffffff168873ffffffffffffffffffffffffffffffffffffffff167f4a39dc06d4c0dbc64b70af90fd698a233a518aa5d07e595d983b8c0526c8f7fb888888886040516124329493929190614627565b60405180910390a45050505050505050565b61244f8382846112f0565b5f8181526020848152604080832073ffffffffffffffffffffffffffffffffffffffff86168085529083529281902080547fffffffffffffffffffffffffffffffffffffffffffffffffffffffffffffff0016905580518481529182018390528101919091527ff6391f5c32d9c69d2a47ea670b442974b53935d1edc7fd64eb21e047a839171b9060600160405180910390a1505050565b73ffffffffffffffffffffffffffffffffffffffff81166117fb576040517f6fe1b4c800000000000000000000000000000000000000000000000000000000815260040160405180910390fd5b606081600101805461123790614262565b610b9b82826134a0565b8273ffffffffffffffffffffffffffffffffffffffff168273ffffffffffffffffffffffffffffffffffffffff16036125e4576040517f08c379a000000000000000000000000000000000000000000000000000000000815260206004820152601e60248201527f455243313135353a2073656c662d617070726f76616c20666f7220616c6c000060448201526064016109c0565b73ffffffffffffffffffffffffffffffffffffffff8381165f81815260018701602090815260408083209487168084529482529182902080547fffffffffffffffffffffffffffffffffffffffffffffffffffffffffffffff001686151590811790915591519182527f17307eab39ab6107e8899845ad3d59bd9653f200f220920489ca2b5937696c31910160405180910390a350505050565b5f8381526020858152604080832073ffffffffffffffffffffffffffffffffffffffff8616845290915290205460ff1615611f2d575f8381526020858152604080832073ffffffffffffffffffffffffffffffffffffffff8681168086529184529382902080547fffffffffffffffffffffffffffffffffffffffffffffffffffffffffffffff00169055815187815292830152918316918101919091527ff6391f5c32d9c69d2a47ea670b442974b53935d1edc7fd64eb21e047a839171b90606001611f24565b83518351811480156127585750825181145b6127be576040517f08c379a000000000000000000000000000000000000000000000000000000000815260206004820152601c60248201527f455243313135353a20696e636f6e73697374656e74206172726179730000000060448201526064016109c0565b5f5b8181146106b35761282d878783815181106127dd576127dd6141f5565b60200260200101518784815181106127f7576127f76141f5565b6020026020010151878581518110612811576128116141f5565b6020026020010151878d6120709095949392919063ffffffff16565b6001016127c0565b73ffffffffffffffffffffffffffffffffffffffff85166128b2576040517f08c379a000000000000000000000000000000000000000000000000000000000815260206004820152601f60248201527f455243313135353a207472616e7366657220746f20616464726573732830290060448201526064016109c0565b6128bd88878961338e565b612923576040517f08c379a000000000000000000000000000000000000000000000000000000000815260206004820152601c60248201527f455243313135353a206e6f6e2d617070726f7665642073656e6465720000000060448201526064016109c0565b61293088878787876135c4565b8473ffffffffffffffffffffffffffffffffffffffff168673ffffffffffffffffffffffffffffffffffffffff168873ffffffffffffffffffffffffffffffffffffffff167fc3d58168c5ae7397731d063d5bbf3d657854427343f4c083240f7aacaa2d0f6287876040516129af929190918252602082015260400190565b60405180910390a473ffffffffffffffffffffffffffffffffffffffff85163b156106b3576106b3878787878787878080601f0160208091040260200160405190810160405280939291908181526020018383808284375f9201919091525061377492505050565b825473ffffffffffffffffffffffffffffffffffffffff9081169083168114612a9c576040517f08c379a000000000000000000000000000000000000000000000000000000000815260206004820152601860248201527f4f776e6572736869703a206e6f7420746865206f776e6572000000000000000060448201526064016109c0565b8173ffffffffffffffffffffffffffffffffffffffff168173ffffffffffffffffffffffffffffffffffffffff1614611f2d5783547fffffffffffffffffffffffff00000000000000000000000000000000000000001673ffffffffffffffffffffffffffffffffffffffff8381169182178655604051908316907f8be0079c531659141344cd1fd0a4f28419497f9722a3daafe3b4186f6b6457e0905f90a350505050565b80471015612bac576040517f08c379a000000000000000000000000000000000000000000000000000000000815260206004820152601d60248201527f416464726573733a20696e73756666696369656e742062616c616e636500000060448201526064016109c0565b5f8273ffffffffffffffffffffffffffffffffffffffff16826040515f6040518083038185875af1925050503d805f8114612c02576040519150601f19603f3d011682016040523d82523d5f602084013e612c07565b606091505b50509050806107da576040517f08c379a000000000000000000000000000000000000000000000000000000000815260206004820152603a60248201527f416464726573733a20756e61626c6520746f2073656e642076616c75652c207260448201527f6563697069656e74206d6179206861766520726576657274656400000000000060648201526084016109c0565b5f33321480612ca75750601836105b15612cb157503390565b7fffffffffffffffffffffffffffffffffffffffffffffffffffffffffffffffec36013560601c7f000000000000000000000000000000000000000000000000000000000000000073ffffffffffffffffffffffffffffffffffffffff16331480612dcb57506040517f8929a8ca00000000000000000000000000000000000000000000000000000000815273ffffffffffffffffffffffffffffffffffffffff82811660048301523360248301527f00000000000000000000000000000000000000000000000000000000000000001690638929a8ca90604401602060405180830381865afa158015612da7573d5f803e3d5ffd5b505050506040513d601f19601f82011682018060405250810190612dcb919061464d565b15612dd557919050565b3391505090565b60605f829003612df957505060408051602081019091525f815290565b5f82604051602001612e0d91815260200190565b604080517fffffffffffffffffffffffffffffffffffffffffffffffffffffffffffffffe08184030181529190529050601f5b818181518110612e5257612e526141f5565b01602001517fff00000000000000000000000000000000000000000000000000000000000000165f03612ea6577fffffffffffffffffffffffffffffffffffffffffffffffffffffffffffffffff01612e40565b5f8160010167ffffffffffffffff811115612ec357612ec361434b565b6040519080825280601f01601f191660200182016040528015612eed576020820181803683370190505b5090505f5b828111612f5e57838181518110612f0b57612f0b6141f5565b602001015160f81c60f81b828281518110612f2857612f286141f5565b60200101907effffffffffffffffffffffffffffffffffffffffffffffffffffffffffffff191690815f1a905350600101612ef2565b50949350505050565b8015611f2d575f8281526020858152604080832073ffffffffffffffffffffffffffffffffffffffff87168452909152902054818101818111613006576040517f08c379a000000000000000000000000000000000000000000000000000000000815260206004820152601960248201527f455243313135353a2062616c616e6365206f766572666c6f770000000000000060448201526064016109c0565b5f9384526020958652604080852073ffffffffffffffffffffffffffffffffffffffff9690961685529490955250502055565b6040517fbc197c81000000000000000000000000000000000000000000000000000000008082529073ffffffffffffffffffffffffffffffffffffffff86169063bc197c8190613095908a908a90899089908990600401614668565b6020604051808303815f875af11580156130b1573d5f803e3d5ffd5b505050506040513d601f19601f820116820180604052508101906130d591906146d2565b7fffffffff000000000000000000000000000000000000000000000000000000001614610732576040517f08c379a000000000000000000000000000000000000000000000000000000000815260206004820152601a60248201527f455243313135353a207472616e736665722072656a656374656400000000000060448201526064016109c0565b8154829082116131ca576040517f08c379a000000000000000000000000000000000000000000000000000000000815260206004820152601660248201527f53746f726167653a20706861736520726561636865640000000000000000000060448201526064016109c0565b5550565b73ffffffffffffffffffffffffffffffffffffffff8116156132555781547fffffffffffffffffffffffff00000000000000000000000000000000000000001673ffffffffffffffffffffffffffffffffffffffff821690811783556040515f907f8be0079c531659141344cd1fd0a4f28419497f9722a3daafe3b4186f6b6457e0908290a35b610b9b7f7f5828d00000000000000000000000000000000000000000000000000000000060016116176110f6565b7c01000000000000000000000000000000000000000000000000000000007fffffffff0000000000000000000000000000000000000000000000000000000083160161332b576040517f08c379a000000000000000000000000000000000000000000000000000000000815260206004820152601f60248201527f496e74657266616365446574656374696f6e3a2077726f6e672076616c75650060448201526064016109c0565b7fffffffff00000000000000000000000000000000000000000000000000000000919091165f908152602092909252604090912080547fffffffffffffffffffffffffffffffffffffffffffffffffffffffffffffff0016911515919091179055565b5f8173ffffffffffffffffffffffffffffffffffffffff168373ffffffffffffffffffffffffffffffffffffffff16148061089757505073ffffffffffffffffffffffffffffffffffffffff9182165f908152600193909301602090815260408085209290931684525290205460ff1690565b8015611f2d575f8281526020858152604080832073ffffffffffffffffffffffffffffffffffffffff87168452909152902054818103818110613006576040517f08c379a000000000000000000000000000000000000000000000000000000000815260206004820152601d60248201527f455243313135353a20696e73756666696369656e742062616c616e636500000060448201526064016109c0565b815473ffffffffffffffffffffffffffffffffffffffff1680158015906134dd57505f8173ffffffffffffffffffffffffffffffffffffffff163b115b156107da576040517fc617113400000000000000000000000000000000000000000000000000000000815230600482015273ffffffffffffffffffffffffffffffffffffffff838116602483015282169063c617113490604401602060405180830381865afa158015613552573d5f803e3d5ffd5b505050506040513d601f19601f82011682018060405250810190613576919061464d565b6107da576040517fede71dcc00000000000000000000000000000000000000000000000000000000815273ffffffffffffffffffffffffffffffffffffffff831660048201526024016109c0565b8015610a84575f8281526020868152604080832073ffffffffffffffffffffffffffffffffffffffff88168452909152902054818103818110613663576040517f08c379a000000000000000000000000000000000000000000000000000000000815260206004820152601d60248201527f455243313135353a20696e73756666696369656e742062616c616e636500000060448201526064016109c0565b8473ffffffffffffffffffffffffffffffffffffffff168673ffffffffffffffffffffffffffffffffffffffff1614610f0e575f8481526020888152604080832073ffffffffffffffffffffffffffffffffffffffff8916845290915290205483810181811161372f576040517f08c379a000000000000000000000000000000000000000000000000000000000815260206004820152601960248201527f455243313135353a2062616c616e6365206f766572666c6f770000000000000060448201526064016109c0565b5f86815260208a8152604080832073ffffffffffffffffffffffffffffffffffffffff808d1685528184528285208890558b1684529091529020555050505050505050565b6040517ff23a6e61000000000000000000000000000000000000000000000000000000008082529073ffffffffffffffffffffffffffffffffffffffff86169063f23a6e6190613095908a908a908990899089906004016146ed565b5f613831826040518060400160405280602081526020017f5361666545524332303a206c6f772d6c6576656c2063616c6c206661696c65648152508573ffffffffffffffffffffffffffffffffffffffff166138dd9092919063ffffffff16565b905080515f1480613851575080806020019051810190613851919061464d565b6107da576040517f08c379a000000000000000000000000000000000000000000000000000000000815260206004820152602a60248201527f5361666545524332303a204552433230206f7065726174696f6e20646964206e60448201527f6f7420737563636565640000000000000000000000000000000000000000000060648201526084016109c0565b606061089784845f85855f808673ffffffffffffffffffffffffffffffffffffffff16858760405161390f9190614731565b5f6040518083038185875af1925050503d805f8114613949576040519150601f19603f3d011682016040523d82523d5f602084013e61394e565b606091505b509150915061395f8783838761396a565b979650505050505050565b606083156139ff5782515f036139f85773ffffffffffffffffffffffffffffffffffffffff85163b6139f8576040517f08c379a000000000000000000000000000000000000000000000000000000000815260206004820152601d60248201527f416464726573733a2063616c6c20746f206e6f6e2d636f6e747261637400000060448201526064016109c0565b5081610897565b6108978383815115613a145781518083602001fd5b806040517f08c379a00000000000000000000000000000000000000000000000000000000081526004016109c09190613b4d565b73ffffffffffffffffffffffffffffffffffffffff811681146107b8575f80fd5b5f8060408385031215613a7a575f80fd5b8235613a8581613a48565b946020939093013593505050565b7fffffffff00000000000000000000000000000000000000000000000000000000811681146107b8575f80fd5b5f60208284031215613ad0575f80fd5b8135613adb81613a93565b9392505050565b5f5b83811015613afc578181015183820152602001613ae4565b50505f910152565b5f8151808452613b1b816020860160208601613ae2565b601f017fffffffffffffffffffffffffffffffffffffffffffffffffffffffffffffffe0169290920160200192915050565b602081525f6105936020830184613b04565b5f8083601f840112613b6f575f80fd5b50813567ffffffffffffffff811115613b86575f80fd5b6020830191508360208260051b85010111156107fa575f80fd5b5f8083601f840112613bb0575f80fd5b50813567ffffffffffffffff811115613bc7575f80fd5b6020830191508360208285010111156107fa575f80fd5b5f805f805f805f6080888a031215613bf4575f80fd5b8735613bff81613a48565b9650602088013567ffffffffffffffff80821115613c1b575f80fd5b613c278b838c01613b5f565b909850965060408a0135915080821115613c3f575f80fd5b613c4b8b838c01613b5f565b909650945060608a0135915080821115613c63575f80fd5b50613c708a828b01613ba0565b989b979a50959850939692959293505050565b5f805f805f8060808789031215613c98575f80fd5b863567ffffffffffffffff80821115613caf575f80fd5b613cbb8a838b01613ba0565b90985096506020890135915080821115613cd3575f80fd5b50613ce089828a01613ba0565b9095509350506040870135613cf481613a48565b91506060870135613d0481613a48565b809150509295509295509295565b5f60208284031215613d22575f80fd5b5035919050565b5f60208284031215613d39575f80fd5b8135613adb81613a48565b5f805f60608486031215613d56575f80fd5b8335613d6181613a48565b95602085013595506040909401359392505050565b5f8060408385031215613d87575f80fd5b50508035926020909101359150565b5f805f805f805f8060a0898b031215613dad575f80fd5b8835613db881613a48565b97506020890135613dc881613a48565b9650604089013567ffffffffffffffff80821115613de4575f80fd5b613df08c838d01613b5f565b909850965060608b0135915080821115613e08575f80fd5b613e148c838d01613b5f565b909650945060808b0135915080821115613e2c575f80fd5b50613e398b828c01613ba0565b999c989b5096995094979396929594505050565b5f8060408385031215613e5e575f80fd5b823591506020830135613e7081613a48565b809150509250929050565b5f805f8060408587031215613e8e575f80fd5b843567ffffffffffffffff80821115613ea5575f80fd5b613eb188838901613b5f565b90965094506020870135915080821115613ec9575f80fd5b50613ed687828801613b5f565b95989497509550505050565b5f8151808452602080850194508084015f5b83811015613f1057815187529582019590820190600101613ef4565b509495945050505050565b602081525f6105936020830184613ee2565b5f805f805f60808688031215613f41575f80fd5b8535613f4c81613a48565b94506020860135935060408601359250606086013567ffffffffffffffff811115613f75575f80fd5b613f8188828901613ba0565b969995985093965092949392505050565b5f805f805f8060608789031215613fa7575f80fd5b863567ffffffffffffffff80821115613fbe575f80fd5b613fca8a838b01613b5f565b90985096506020890135915080821115613fe2575f80fd5b613fee8a838b01613b5f565b90965094506040890135915080821115614006575f80fd5b5061401389828a01613b5f565b979a9699509497509295939492505050565b5f805f805f60608688031215614039575f80fd5b853561404481613a48565b9450602086013567ffffffffffffffff80821115614060575f80fd5b61406c89838a01613b5f565b90965094506040880135915080821115614084575f80fd5b50613f8188828901613b5f565b80151581146107b8575f80fd5b5f80604083850312156140af575f80fd5b82356140ba81613a48565b91506020830135613e7081614091565b5f805f805f805f806080898b0312156140e1575f80fd5b883567ffffffffffffffff808211156140f8575f80fd5b6141048c838d01613b5f565b909a50985060208b013591508082111561411c575f80fd5b6141288c838d01613b5f565b909850965060408b0135915080821115614140575f80fd5b61414c8c838d01613b5f565b909650945060608b0135915080821115613e2c575f80fd5b5f8060408385031215614175575f80fd5b823561418081613a48565b91506020830135613e7081613a48565b5f805f805f8060a087890312156141a5575f80fd5b86356141b081613a48565b955060208701356141c081613a48565b94506040870135935060608701359250608087013567ffffffffffffffff8111156141e9575f80fd5b61401389828a01613ba0565b7f4e487b71000000000000000000000000000000000000000000000000000000005f52603260045260245ffd5b7f4e487b71000000000000000000000000000000000000000000000000000000005f52601160045260245ffd5b8181038181111561059657610596614222565b600181811c9082168061427657607f821691505b6020821081036142ad577f4e487b71000000000000000000000000000000000000000000000000000000005f52602260045260245ffd5b50919050565b7f416363657373436f6e74726f6c3a206d697373696e672027000000000000000081525f82516142ea816018850160208701613ae2565b7f2720726f6c6500000000000000000000000000000000000000000000000000006018939091019283015250601e01919050565b604081525f6143306040830185613ee2565b82810360208401526143428185613ee2565b95945050505050565b7f4e487b71000000000000000000000000000000000000000000000000000000005f52604160045260245ffd5b601f8211156107da575f81815260208120601f850160051c8101602086101561439e5750805b601f850160051c820191505b81811015610732578281556001016143aa565b67ffffffffffffffff8311156143d5576143d561434b565b6143e9836143e38354614262565b83614378565b5f601f841160018114614439575f85156144035750838201355b7fffffffffffffffffffffffffffffffffffffffffffffffffffffffffffffffff600387901b1c1916600186901b178355610a84565b5f838152602090207fffffffffffffffffffffffffffffffffffffffffffffffffffffffffffffffe0861690835b828110156144875786850135825560209485019460019092019101614467565b50868210156144c2577fffffffffffffffffffffffffffffffffffffffffffffffffffffffffffffffff60f88860031b161c19848701351681555b505060018560011b0183555050505050565b5f602082840312156144e4575f80fd5b815167ffffffffffffffff808211156144fb575f80fd5b818401915084601f83011261450e575f80fd5b8151818111156145205761452061434b565b604051601f82017fffffffffffffffffffffffffffffffffffffffffffffffffffffffffffffffe0908116603f011681019083821181831017156145665761456661434b565b8160405282815287602084870101111561457e575f80fd5b61395f836020830160208801613ae2565b808202811582820484141761059657610596614222565b5f826145d9577f4e487b71000000000000000000000000000000000000000000000000000000005f52601260045260245ffd5b500490565b8183525f7f07ffffffffffffffffffffffffffffffffffffffffffffffffffffffffffffff83111561460e575f80fd5b8260051b80836020870137939093016020019392505050565b604081525f61463a6040830186886145de565b828103602084015261395f8185876145de565b5f6020828403121561465d575f80fd5b8151613adb81614091565b5f73ffffffffffffffffffffffffffffffffffffffff808816835280871660208401525060a060408301526146a060a0830186613ee2565b82810360608401526146b28186613ee2565b905082810360808401526146c68185613b04565b98975050505050505050565b5f602082840312156146e2575f80fd5b8151613adb81613a93565b5f73ffffffffffffffffffffffffffffffffffffffff808816835280871660208401525084604083015283606083015260a0608083015261395f60a0830184613b04565b5f8251614742818460208701613ae2565b919091019291505056fea2646970667358221220815c23d111de4f0280c310a34c1f4349db0eae7ec0f27420af60a6de1d37759664736f6c63430008150033",
  "linkReferences": {},
  "deployedLinkReferences": {}
}