{
  "_format": "hh-sol-artifact-1",
  "contractName": "ERC1155FullBurnProxied",
  "sourceName": "contracts/token/ERC1155/preset/proxied/ERC1155FullBurnProxied.sol",
  "abi": [
    {
      "inputs": [
        {
          "internalType": "contract IForwarderRegistry",
          "name": "forwarderRegistry",
          "type": "address"
        }
      ],
      "stateMutability": "nonpayable",
      "type": "constructor"
    },
    {
      "inputs": [],
      "name": "ERC1155BalanceOfAddressZero",
      "type": "error"
    },
    {
      "inputs": [
        {
          "internalType": "address",
          "name": "recipient",
          "type": "address"
        },
        {
          "internalType": "uint256",
          "name": "id",
          "type": "uint256"
        },
        {
          "internalType": "uint256",
          "name": "balance",
          "type": "uint256"
        },
        {
          "internalType": "uint256",
          "name": "value",
          "type": "uint256"
        }
      ],
      "name": "ERC1155BalanceOverflow",
      "type": "error"
    },
    {
      "inputs": [
        {
          "internalType": "address",
          "name": "owner",
          "type": "address"
        },
        {
          "internalType": "uint256",
          "name": "id",
          "type": "uint256"
        },
        {
          "internalType": "uint256",
          "name": "balance",
          "type": "uint256"
        },
        {
          "internalType": "uint256",
          "name": "value",
          "type": "uint256"
        }
      ],
      "name": "ERC1155InsufficientBalance",
      "type": "error"
    },
    {
      "inputs": [],
      "name": "ERC1155MintToAddressZero",
      "type": "error"
    },
    {
      "inputs": [
        {
          "internalType": "address",
          "name": "sender",
          "type": "address"
        },
        {
          "internalType": "address",
          "name": "owner",
          "type": "address"
        }
      ],
      "name": "ERC1155NonApproved",
      "type": "error"
    },
    {
      "inputs": [
        {
          "internalType": "address",
          "name": "recipient",
          "type": "address"
        },
        {
          "internalType": "uint256[]",
          "name": "ids",
          "type": "uint256[]"
        },
        {
          "internalType": "uint256[]",
          "name": "values",
          "type": "uint256[]"
        }
      ],
      "name": "ERC1155SafeBatchTransferRejected",
      "type": "error"
    },
    {
      "inputs": [
        {
          "internalType": "address",
          "name": "recipient",
          "type": "address"
        },
        {
          "internalType": "uint256",
          "name": "id",
          "type": "uint256"
        },
        {
          "internalType": "uint256",
          "name": "value",
          "type": "uint256"
        }
      ],
      "name": "ERC1155SafeTransferRejected",
      "type": "error"
    },
    {
      "inputs": [
        {
          "internalType": "address",
          "name": "account",
          "type": "address"
        }
      ],
      "name": "ERC1155SelfApprovalForAll",
      "type": "error"
    },
    {
      "inputs": [],
      "name": "ERC1155TransferToAddressZero",
      "type": "error"
    },
    {
      "inputs": [
        {
          "internalType": "uint256",
          "name": "percentage",
          "type": "uint256"
        }
      ],
      "name": "ERC2981IncorrectRoyaltyPercentage",
      "type": "error"
    },
    {
      "inputs": [],
      "name": "ERC2981IncorrectRoyaltyReceiver",
      "type": "error"
    },
    {
      "inputs": [],
      "name": "IllegalInterfaceId",
      "type": "error"
    },
    {
      "inputs": [],
      "name": "InconsistentArrayLengths",
      "type": "error"
    },
    {
      "inputs": [
        {
          "internalType": "uint256",
          "name": "currentPhase",
          "type": "uint256"
        },
        {
          "internalType": "uint256",
          "name": "newPhase",
          "type": "uint256"
        }
      ],
      "name": "InitializationPhaseAlreadyReached",
      "type": "error"
    },
    {
      "inputs": [
        {
          "internalType": "address",
          "name": "account",
          "type": "address"
        }
      ],
      "name": "NotContractOwner",
      "type": "error"
    },
    {
      "inputs": [
        {
          "internalType": "address",
          "name": "account",
          "type": "address"
        }
      ],
      "name": "NotMetadataResolver",
      "type": "error"
    },
    {
      "inputs": [
        {
          "internalType": "bytes32",
          "name": "role",
          "type": "bytes32"
        },
        {
          "internalType": "address",
          "name": "account",
          "type": "address"
        }
      ],
      "name": "NotRoleHolder",
      "type": "error"
    },
    {
      "inputs": [
        {
          "internalType": "address",
          "name": "operator",
          "type": "address"
        }
      ],
      "name": "OperatorNotAllowed",
      "type": "error"
    },
    {
      "anonymous": false,
      "inputs": [
        {
          "indexed": true,
          "internalType": "address",
          "name": "owner",
          "type": "address"
        },
        {
          "indexed": true,
          "internalType": "address",
          "name": "operator",
          "type": "address"
        },
        {
          "indexed": false,
          "internalType": "bool",
          "name": "approved",
          "type": "bool"
        }
      ],
      "name": "ApprovalForAll",
      "type": "event"
    },
    {
      "anonymous": false,
      "inputs": [
        {
          "indexed": true,
          "internalType": "address",
          "name": "previousOwner",
          "type": "address"
        },
        {
          "indexed": true,
          "internalType": "address",
          "name": "newOwner",
          "type": "address"
        }
      ],
      "name": "OwnershipTransferred",
      "type": "event"
    },
    {
      "anonymous": false,
      "inputs": [
        {
          "indexed": false,
          "internalType": "bytes32",
          "name": "role",
          "type": "bytes32"
        },
        {
          "indexed": false,
          "internalType": "address",
          "name": "account",
          "type": "address"
        },
        {
          "indexed": false,
          "internalType": "address",
          "name": "operator",
          "type": "address"
        }
      ],
      "name": "RoleGranted",
      "type": "event"
    },
    {
      "anonymous": false,
      "inputs": [
        {
          "indexed": false,
          "internalType": "bytes32",
          "name": "role",
          "type": "bytes32"
        },
        {
          "indexed": false,
          "internalType": "address",
          "name": "account",
          "type": "address"
        },
        {
          "indexed": false,
          "internalType": "address",
          "name": "operator",
          "type": "address"
        }
      ],
      "name": "RoleRevoked",
      "type": "event"
    },
    {
      "anonymous": false,
      "inputs": [
        {
          "indexed": true,
          "internalType": "address",
          "name": "operator",
          "type": "address"
        },
        {
          "indexed": true,
          "internalType": "address",
          "name": "from",
          "type": "address"
        },
        {
          "indexed": true,
          "internalType": "address",
          "name": "to",
          "type": "address"
        },
        {
          "indexed": false,
          "internalType": "uint256[]",
          "name": "ids",
          "type": "uint256[]"
        },
        {
          "indexed": false,
          "internalType": "uint256[]",
          "name": "values",
          "type": "uint256[]"
        }
      ],
      "name": "TransferBatch",
      "type": "event"
    },
    {
      "anonymous": false,
      "inputs": [
        {
          "indexed": true,
          "internalType": "address",
          "name": "operator",
          "type": "address"
        },
        {
          "indexed": true,
          "internalType": "address",
          "name": "from",
          "type": "address"
        },
        {
          "indexed": true,
          "internalType": "address",
          "name": "to",
          "type": "address"
        },
        {
          "indexed": false,
          "internalType": "uint256",
          "name": "id",
          "type": "uint256"
        },
        {
          "indexed": false,
          "internalType": "uint256",
          "name": "value",
          "type": "uint256"
        }
      ],
      "name": "TransferSingle",
      "type": "event"
    },
    {
      "anonymous": false,
      "inputs": [
        {
          "indexed": false,
          "internalType": "string",
          "name": "value",
          "type": "string"
        },
        {
          "indexed": true,
          "internalType": "uint256",
          "name": "id",
          "type": "uint256"
        }
      ],
      "name": "URI",
      "type": "event"
    },
    {
      "inputs": [],
      "name": "MINTER_ROLE",
      "outputs": [
        {
          "internalType": "bytes32",
          "name": "",
          "type": "bytes32"
        }
      ],
      "stateMutability": "view",
      "type": "function"
    },
    {
      "inputs": [],
      "name": "ROYALTY_FEE_DENOMINATOR",
      "outputs": [
        {
          "internalType": "uint256",
          "name": "",
          "type": "uint256"
        }
      ],
      "stateMutability": "view",
      "type": "function"
    },
    {
      "inputs": [
        {
          "internalType": "address",
          "name": "owner",
          "type": "address"
        },
        {
          "internalType": "uint256",
          "name": "id",
          "type": "uint256"
        }
      ],
      "name": "balanceOf",
      "outputs": [
        {
          "internalType": "uint256",
          "name": "balance",
          "type": "uint256"
        }
      ],
      "stateMutability": "view",
      "type": "function"
    },
    {
      "inputs": [
        {
          "internalType": "address[]",
          "name": "owners",
          "type": "address[]"
        },
        {
          "internalType": "uint256[]",
          "name": "ids",
          "type": "uint256[]"
        }
      ],
      "name": "balanceOfBatch",
      "outputs": [
        {
          "internalType": "uint256[]",
          "name": "balances",
          "type": "uint256[]"
        }
      ],
      "stateMutability": "view",
      "type": "function"
    },
    {
      "inputs": [
        {
          "internalType": "address",
          "name": "from",
          "type": "address"
        },
        {
          "internalType": "uint256[]",
          "name": "ids",
          "type": "uint256[]"
        },
        {
          "internalType": "uint256[]",
          "name": "values",
          "type": "uint256[]"
        }
      ],
      "name": "batchBurnFrom",
      "outputs": [],
      "stateMutability": "nonpayable",
      "type": "function"
    },
    {
      "inputs": [
        {
          "internalType": "uint256[]",
          "name": "tokenIds",
          "type": "uint256[]"
        },
        {
          "internalType": "string[]",
          "name": "tokenURIs",
          "type": "string[]"
        }
      ],
      "name": "batchSetTokenURI",
      "outputs": [],
      "stateMutability": "nonpayable",
      "type": "function"
    },
    {
      "inputs": [
        {
          "internalType": "address",
          "name": "from",
          "type": "address"
        },
        {
          "internalType": "uint256",
          "name": "id",
          "type": "uint256"
        },
        {
          "internalType": "uint256",
          "name": "value",
          "type": "uint256"
        }
      ],
      "name": "burnFrom",
      "outputs": [],
      "stateMutability": "nonpayable",
      "type": "function"
    },
    {
      "inputs": [],
      "name": "forwarderRegistry",
      "outputs": [
        {
          "internalType": "contract IForwarderRegistry",
          "name": "",
          "type": "address"
        }
      ],
      "stateMutability": "view",
      "type": "function"
    },
    {
      "inputs": [
        {
          "internalType": "bytes32",
          "name": "role",
          "type": "bytes32"
        },
        {
          "internalType": "address",
          "name": "account",
          "type": "address"
        }
      ],
      "name": "grantRole",
      "outputs": [],
      "stateMutability": "nonpayable",
      "type": "function"
    },
    {
      "inputs": [
        {
          "internalType": "bytes32",
          "name": "role",
          "type": "bytes32"
        },
        {
          "internalType": "address",
          "name": "account",
          "type": "address"
        }
      ],
      "name": "hasRole",
      "outputs": [
        {
          "internalType": "bool",
          "name": "hasRole_",
          "type": "bool"
        }
      ],
      "stateMutability": "view",
      "type": "function"
    },
    {
      "inputs": [
        {
          "internalType": "string",
          "name": "tokenName",
          "type": "string"
        },
        {
          "internalType": "string",
          "name": "tokenSymbol",
          "type": "string"
        },
        {
          "internalType": "contract ITokenMetadataResolver",
          "name": "metadataResolver",
          "type": "address"
        },
        {
          "internalType": "contract IOperatorFilterRegistry",
          "name": "filterRegistry",
          "type": "address"
        }
      ],
      "name": "init",
      "outputs": [],
      "stateMutability": "nonpayable",
      "type": "function"
    },
    {
      "inputs": [
        {
          "internalType": "address",
          "name": "owner",
          "type": "address"
        },
        {
          "internalType": "address",
          "name": "operator",
          "type": "address"
        }
      ],
      "name": "isApprovedForAll",
      "outputs": [
        {
          "internalType": "bool",
          "name": "approvedForAll",
          "type": "bool"
        }
      ],
      "stateMutability": "view",
      "type": "function"
    },
    {
      "inputs": [
        {
          "internalType": "address",
          "name": "forwarder",
          "type": "address"
        }
      ],
      "name": "isTrustedForwarder",
      "outputs": [
        {
          "internalType": "bool",
          "name": "",
          "type": "bool"
        }
      ],
      "stateMutability": "view",
      "type": "function"
    },
    {
      "inputs": [],
      "name": "metadataResolver",
      "outputs": [
        {
          "internalType": "contract ITokenMetadataResolver",
          "name": "tokenMetadataResolver",
          "type": "address"
        }
      ],
      "stateMutability": "view",
      "type": "function"
    },
    {
      "inputs": [],
      "name": "name",
      "outputs": [
        {
          "internalType": "string",
          "name": "tokenName",
          "type": "string"
        }
      ],
      "stateMutability": "view",
      "type": "function"
    },
    {
      "inputs": [],
      "name": "operatorFilterRegistry",
      "outputs": [
        {
          "internalType": "contract IOperatorFilterRegistry",
          "name": "",
          "type": "address"
        }
      ],
      "stateMutability": "view",
      "type": "function"
    },
    {
      "inputs": [],
      "name": "owner",
      "outputs": [
        {
          "internalType": "address",
          "name": "",
          "type": "address"
        }
      ],
      "stateMutability": "view",
      "type": "function"
    },
    {
      "inputs": [
        {
          "internalType": "address[]",
          "name": "accounts",
          "type": "address[]"
        },
        {
          "internalType": "contract IERC20[]",
          "name": "tokens",
          "type": "address[]"
        },
        {
          "internalType": "uint256[]",
          "name": "amounts",
          "type": "uint256[]"
        }
      ],
      "name": "recoverERC20s",
      "outputs": [],
      "stateMutability": "nonpayable",
      "type": "function"
    },
    {
      "inputs": [
        {
          "internalType": "address[]",
          "name": "accounts",
          "type": "address[]"
        },
        {
          "internalType": "contract IERC721[]",
          "name": "contracts",
          "type": "address[]"
        },
        {
          "internalType": "uint256[]",
          "name": "tokenIds",
          "type": "uint256[]"
        }
      ],
      "name": "recoverERC721s",
      "outputs": [],
      "stateMutability": "nonpayable",
      "type": "function"
    },
    {
      "inputs": [
        {
          "internalType": "address payable[]",
          "name": "accounts",
          "type": "address[]"
        },
        {
          "internalType": "uint256[]",
          "name": "amounts",
          "type": "uint256[]"
        }
      ],
      "name": "recoverETH",
      "outputs": [],
      "stateMutability": "nonpayable",
      "type": "function"
    },
    {
      "inputs": [
        {
          "internalType": "bytes32",
          "name": "role",
          "type": "bytes32"
        }
      ],
      "name": "renounceRole",
      "outputs": [],
      "stateMutability": "nonpayable",
      "type": "function"
    },
    {
      "inputs": [
        {
          "internalType": "bytes32",
          "name": "role",
          "type": "bytes32"
        },
        {
          "internalType": "address",
          "name": "account",
          "type": "address"
        }
      ],
      "name": "revokeRole",
      "outputs": [],
      "stateMutability": "nonpayable",
      "type": "function"
    },
    {
      "inputs": [
        {
          "internalType": "uint256",
          "name": "tokenId",
          "type": "uint256"
        },
        {
          "internalType": "uint256",
          "name": "salePrice",
          "type": "uint256"
        }
      ],
      "name": "royaltyInfo",
      "outputs": [
        {
          "internalType": "address",
          "name": "receiver",
          "type": "address"
        },
        {
          "internalType": "uint256",
          "name": "royaltyAmount",
          "type": "uint256"
        }
      ],
      "stateMutability": "view",
      "type": "function"
    },
    {
      "inputs": [
        {
          "internalType": "address",
          "name": "to",
          "type": "address"
        },
        {
          "internalType": "uint256[]",
          "name": "ids",
          "type": "uint256[]"
        },
        {
          "internalType": "uint256[]",
          "name": "values",
          "type": "uint256[]"
        },
        {
          "internalType": "bytes",
          "name": "data",
          "type": "bytes"
        }
      ],
      "name": "safeBatchMint",
      "outputs": [],
      "stateMutability": "nonpayable",
      "type": "function"
    },
    {
      "inputs": [
        {
          "internalType": "address",
          "name": "from",
          "type": "address"
        },
        {
          "internalType": "address",
          "name": "to",
          "type": "address"
        },
        {
          "internalType": "uint256[]",
          "name": "ids",
          "type": "uint256[]"
        },
        {
          "internalType": "uint256[]",
          "name": "values",
          "type": "uint256[]"
        },
        {
          "internalType": "bytes",
          "name": "data",
          "type": "bytes"
        }
      ],
      "name": "safeBatchTransferFrom",
      "outputs": [],
      "stateMutability": "nonpayable",
      "type": "function"
    },
    {
      "inputs": [
        {
          "internalType": "address[]",
          "name": "recipients",
          "type": "address[]"
        },
        {
          "internalType": "uint256[]",
          "name": "ids",
          "type": "uint256[]"
        },
        {
          "internalType": "uint256[]",
          "name": "values",
          "type": "uint256[]"
        },
        {
          "internalType": "bytes",
          "name": "data",
          "type": "bytes"
        }
      ],
      "name": "safeDeliver",
      "outputs": [],
      "stateMutability": "nonpayable",
      "type": "function"
    },
    {
      "inputs": [
        {
          "internalType": "address",
          "name": "to",
          "type": "address"
        },
        {
          "internalType": "uint256",
          "name": "id",
          "type": "uint256"
        },
        {
          "internalType": "uint256",
          "name": "value",
          "type": "uint256"
        },
        {
          "internalType": "bytes",
          "name": "data",
          "type": "bytes"
        }
      ],
      "name": "safeMint",
      "outputs": [],
      "stateMutability": "nonpayable",
      "type": "function"
    },
    {
      "inputs": [
        {
          "internalType": "address",
          "name": "from",
          "type": "address"
        },
        {
          "internalType": "address",
          "name": "to",
          "type": "address"
        },
        {
          "internalType": "uint256",
          "name": "id",
          "type": "uint256"
        },
        {
          "internalType": "uint256",
          "name": "value",
          "type": "uint256"
        },
        {
          "internalType": "bytes",
          "name": "data",
          "type": "bytes"
        }
      ],
      "name": "safeTransferFrom",
      "outputs": [],
      "stateMutability": "nonpayable",
      "type": "function"
    },
    {
      "inputs": [
        {
          "internalType": "address",
          "name": "operator",
          "type": "address"
        },
        {
          "internalType": "bool",
          "name": "approved",
          "type": "bool"
        }
      ],
      "name": "setApprovalForAll",
      "outputs": [],
      "stateMutability": "nonpayable",
      "type": "function"
    },
    {
      "inputs": [
        {
          "internalType": "uint256",
          "name": "percentage",
          "type": "uint256"
        }
      ],
      "name": "setRoyaltyPercentage",
      "outputs": [],
      "stateMutability": "nonpayable",
      "type": "function"
    },
    {
      "inputs": [
        {
          "internalType": "address",
          "name": "receiver",
          "type": "address"
        }
      ],
      "name": "setRoyaltyReceiver",
      "outputs": [],
      "stateMutability": "nonpayable",
      "type": "function"
    },
    {
      "inputs": [
        {
          "internalType": "uint256",
          "name": "tokenId",
          "type": "uint256"
        },
        {
          "internalType": "string",
          "name": "tokenURI",
          "type": "string"
        }
      ],
      "name": "setTokenURI",
      "outputs": [],
      "stateMutability": "nonpayable",
      "type": "function"
    },
    {
      "inputs": [
        {
          "internalType": "bytes4",
          "name": "interfaceId",
          "type": "bytes4"
        }
      ],
      "name": "supportsInterface",
      "outputs": [
        {
          "internalType": "bool",
          "name": "",
          "type": "bool"
        }
      ],
      "stateMutability": "view",
      "type": "function"
    },
    {
      "inputs": [],
      "name": "symbol",
      "outputs": [
        {
          "internalType": "string",
          "name": "tokenSymbol",
          "type": "string"
        }
      ],
      "stateMutability": "view",
      "type": "function"
    },
    {
      "inputs": [
        {
          "internalType": "address",
          "name": "newOwner",
          "type": "address"
        }
      ],
      "name": "transferOwnership",
      "outputs": [],
      "stateMutability": "nonpayable",
      "type": "function"
    },
    {
      "inputs": [
        {
          "internalType": "contract IOperatorFilterRegistry",
          "name": "registry",
          "type": "address"
        }
      ],
      "name": "updateOperatorFilterRegistry",
      "outputs": [],
      "stateMutability": "nonpayable",
      "type": "function"
    },
    {
      "inputs": [
        {
          "internalType": "uint256",
          "name": "tokenId",
          "type": "uint256"
        }
      ],
      "name": "uri",
      "outputs": [
        {
          "internalType": "string",
          "name": "metadataURI",
          "type": "string"
        }
      ],
      "stateMutability": "view",
      "type": "function"
    }
  ],
  "bytecode": "0x60a06040523480156200001157600080fd5b50604051620047df380380620047df833981016040819052620000349162000046565b6001600160a01b031660805262000078565b6000602082840312156200005957600080fd5b81516001600160a01b03811681146200007157600080fd5b9392505050565b608051614736620000a96000396000818161038e0152818161042901528181612c670152612cef01526147366000f3fe608060405234801561001057600080fd5b50600436106102765760003560e01c806373c8a95811610160578063b0ccc31e116100d8578063e8ab9ccc1161008c578063f242432a11610071578063f242432a146105ae578063f2fde38b146105c1578063f7ba94bd146105d457600080fd5b8063e8ab9ccc14610588578063e985e9c51461059b57600080fd5b8063d5391393116100bd578063d539139314610544578063d547741f1461056b578063e1a8bf2c1461057e57600080fd5b8063b0ccc31e14610529578063c3666c361461053157600080fd5b80638dc251e31161012f57806395d89b411161011457806395d89b4114610506578063a0c76f621461050e578063a22cb4651461051657600080fd5b80638dc251e3146104e057806391d14854146104f357600080fd5b806373c8a9581461049f57806380534934146104b25780638bb9c5bf146104c55780638da5cb5b146104d857600080fd5b80632a55205a116101f35780634e1273f4116101c25780635cfa9297116101a75780635cfa92971461046657806361ba27da146104795780636706467b1461048c57600080fd5b80634e1273f4146103f9578063572b6c051461041957600080fd5b80632a55205a1461034d5780632b4c9f161461038c5780632eb2c2d6146103d35780632f2ff15d146103e657600080fd5b80630e07f8541161024a578063114ba8ee1161022f578063114ba8ee14610314578063124d91e514610327578063162094c41461033a57600080fd5b80630e07f854146102ee5780630e89341c1461030157600080fd5b8062fdd58e1461027b57806301ffc9a7146102a157806306fdde03146102c45780630d6a5bbb146102d9575b600080fd5b61028e6102893660046138be565b6105e7565b6040519081526020015b60405180910390f35b6102b46102af366004613918565b610606565b6040519015158152602001610298565b6102cc61061a565b60405161029891906139aa565b6102ec6102e7366004613a44565b610631565b005b6102ec6102fc366004613af1565b61072c565b6102cc61030f366004613b86565b6107a9565b6102ec610322366004613b9f565b6107bf565b6102ec610335366004613bbc565b61082a565b6102ec610348366004613bf1565b61084e565b61036061035b366004613c3d565b610920565b6040805173ffffffffffffffffffffffffffffffffffffffff9093168352602083019190915201610298565b7f00000000000000000000000000000000000000000000000000000000000000005b60405173ffffffffffffffffffffffffffffffffffffffff9091168152602001610298565b6102ec6103e1366004613c5f565b610943565b6102ec6103f4366004613d1e565b610990565b61040c610407366004613d4e565b6109be565b6040516102989190613df6565b6102b4610427366004613b9f565b7f000000000000000000000000000000000000000000000000000000000000000073ffffffffffffffffffffffffffffffffffffffff90811691161490565b6102ec610474366004613e09565b6109e3565b6102ec610487366004613b86565b610a6d565b6102ec61049a366004613d4e565b610a8a565b6102ec6104ad366004613e73565b610bc2565b6102ec6104c0366004613f0d565b610cae565b6102ec6104d3366004613b86565b610cd1565b6103ae610cec565b6102ec6104ee366004613b9f565b610d13565b6102b4610501366004613d1e565b610d30565b6102cc610d74565b6103ae610d86565b6102ec610524366004613f8d565b610d93565b6103ae610dcc565b6102ec61053f366004613e73565b610dd9565b61028e7f6d696e746572000000000000000000000000000000000000000000000000000081565b6102ec610579366004613d1e565b610f51565b61028e620186a081565b6102ec610596366004613fbb565b610f7f565b6102b46105a936600461405e565b611099565b6102ec6105bc36600461408c565b6110e7565b6102ec6105cf366004613b9f565b611127565b6102ec6105e2366004613d4e565b611142565b60006105fd83836105f66111f9565b9190611227565b90505b92915050565b6000610600826106146112ab565b906112d9565b606061062c6106276113b3565b6113e1565b905090565b600061063b611477565b90506106717f6d696e74657200000000000000000000000000000000000000000000000000008261066a611481565b91906114af565b610722818989898080602002602001604051908101604052809392919081815260200183836020028082843760009201919091525050604080516020808d0282810182019093528c82529093508c92508b91829185019084908082843760009201919091525050604080516020601f8c018190048102820181019092528a815292508a915089908190840183828082843760009201919091525061071892506111f9915050565b9493929190611535565b5050505050505050565b610745610737611477565b61073f6116bb565b906116e9565b61074d611728565b61075561175f565b61075d61178d565b6107656117bb565b61076d6117e9565b610775611817565b61078f86868686866107856113b3565b9493929190611845565b6107a18161079b6118df565b9061190d565b505050505050565b606061060030836107b86113b3565b919061197d565b6107d86107ca611477565b6107d26116bb565b90611a3d565b610827816107e46118df565b9081547fffffffffffffffffffffffff00000000000000000000000000000000000000001673ffffffffffffffffffffffffffffffffffffffff91909116179055565b50565b610849610835611477565b8484846108406111f9565b93929190611aa8565b505050565b6108766108596113b3565b6002015473ffffffffffffffffffffffffffffffffffffffff1690565b73ffffffffffffffffffffffffffffffffffffffff163373ffffffffffffffffffffffffffffffffffffffff16146108e1576040517f220606710000000000000000000000000000000000000000000000000000000081523360048201526024015b60405180910390fd5b827f6bb7ff708619ba0610cba295a58592e0451dee2622938c8755667688daf3529b83836040516109139291906140f6565b60405180910390a2505050565b6000806109378484610930611b75565b9190611ba3565b915091505b9250929050565b600061094d611477565b9050610963818a61095c6118df565b9190611c4d565b610985818a8a8a8a8a8a8a8a6109776111f9565b989796959493929190611c8a565b505050505050505050565b600061099a611477565b90506109a8816107d26116bb565b6108498383836109b6611481565b929190611f13565b60606109d8858585856109cf6111f9565b93929190611fea565b90505b949350505050565b60006109ed611477565b9050610a1c7f6d696e74657200000000000000000000000000000000000000000000000000008261066a611481565b6107a18187878787878080601f016020809104026020016040519081016040528093929190818152602001838380828437600092019190915250610a6392506111f9915050565b94939291906120f9565b610a786107ca611477565b61082781610a84611b75565b906121d7565b828114610ac3576040517f6582533600000000000000000000000000000000000000000000000000000000815260040160405180910390fd5b610ace6108596113b3565b73ffffffffffffffffffffffffffffffffffffffff163373ffffffffffffffffffffffffffffffffffffffff1614610b34576040517f220606710000000000000000000000000000000000000000000000000000000081523360048201526024016108d8565b60005b83811015610bbb57848482818110610b5157610b51614143565b905060200201357f6bb7ff708619ba0610cba295a58592e0451dee2622938c8755667688daf3529b848484818110610b8b57610b8b614143565b9050602002810190610b9d9190614172565b604051610bab9291906140f6565b60405180910390a2600101610b37565b5050505050565b610bcd6107ca611477565b848381141580610bdd5750808214155b15610c14576040517f6582533600000000000000000000000000000000000000000000000000000000815260040160405180910390fd5b60005b8181101561072257610ca6888883818110610c3457610c34614143565b9050602002016020810190610c499190613b9f565b858584818110610c5b57610c5b614143565b90506020020135888885818110610c7457610c74614143565b9050602002016020810190610c899190613b9f565b73ffffffffffffffffffffffffffffffffffffffff16919061225d565b600101610c17565b610bbb610cb9611477565b8686868686610cc66111f9565b9594939291906122ea565b610827610cdc611477565b82610ce5611481565b9190612462565b600061062c610cf96116bb565b5473ffffffffffffffffffffffffffffffffffffffff1690565b610d1e6107ca611477565b61082781610d2a611b75565b90612506565b60006105fd8383610d3f611481565b60009283526020908152604080842073ffffffffffffffffffffffffffffffffffffffff909316845291905290205460ff1690565b606061062c610d816113b3565b612553565b600061062c6108596113b3565b8015610dab57610dab82610da56118df565b90612564565b610dc8610db6611477565b8383610dc06111f9565b92919061256e565b5050565b600061062c610cf96118df565b610de46107ca611477565b848381141580610df45750808214155b15610e2b576040517f6582533600000000000000000000000000000000000000000000000000000000815260040160405180910390fd5b60005b8181101561072257858582818110610e4857610e48614143565b9050602002016020810190610e5d9190613b9f565b73ffffffffffffffffffffffffffffffffffffffff166323b872dd308a8a85818110610e8b57610e8b614143565b9050602002016020810190610ea09190613b9f565b878786818110610eb257610eb2614143565b6040517fffffffff0000000000000000000000000000000000000000000000000000000060e088901b16815273ffffffffffffffffffffffffffffffffffffffff958616600482015294909316602485015250602090910201356044820152606401600060405180830381600087803b158015610f2e57600080fd5b505af1158015610f42573d6000803e3d6000fd5b50505050806001019050610e2e565b6000610f5b611477565b9050610f69816107d26116bb565b610849838383610f77611481565b929190612686565b6000610f89611477565b9050610fb87f6d696e74657200000000000000000000000000000000000000000000000000008261066a611481565b610985818a8a8080602002602001604051908101604052809392919081815260200183836020028082843760009201919091525050604080516020808e0282810182019093528d82529093508d92508c91829185019084908082843760009201919091525050604080516020808d0282810182019093528c82529093508c92508b91829185019084908082843760009201919091525050604080516020601f8c018190048102820181019092528a815292508a915089908190840183828082843760009201919091525061108f92506111f9915050565b9493929190612750565b60006105fd83836110a86111f9565b919073ffffffffffffffffffffffffffffffffffffffff9182166000908152600193909301602090815260408085209290931684525290205460ff1690565b60006110f1611477565b9050611100818861095c6118df565b61111e818888888888886111126111f9565b96959493929190612813565b50505050505050565b610827611132611477565b8261113b6116bb565b91906129b6565b61114d6107ca611477565b82818114611187576040517f6582533600000000000000000000000000000000000000000000000000000000815260040160405180910390fd5b60005b818110156107a1576111f18484838181106111a7576111a7614143565b905060200201358787848181106111c0576111c0614143565b90506020020160208101906111d59190613b9f565b73ffffffffffffffffffffffffffffffffffffffff1690612aca565b60010161118a565b60008061060060017f5ccf5846fa27a68fafc8e588671a68f5e67c2f9b56af4263806a4d71735e8613614206565b600073ffffffffffffffffffffffffffffffffffffffff8316611276576040517fca2434a500000000000000000000000000000000000000000000000000000000815260040160405180910390fd5b5060009081526020928352604080822073ffffffffffffffffffffffffffffffffffffffff9390931682529190925290205490565b60008061060060017fca9d3e17f264b0f3984e2634e94adb37fa3e6a8103f06aeae6fa59e21c769f5e614206565b60007c01000000000000000000000000000000000000000000000000000000007fffffffff0000000000000000000000000000000000000000000000000000000083160161132957506000610600565b7ffe003659000000000000000000000000000000000000000000000000000000007fffffffff0000000000000000000000000000000000000000000000000000000083160161137a57506001610600565b507fffffffff00000000000000000000000000000000000000000000000000000000166000908152602091909152604090205460ff1690565b60008061060060017f7ea68fd2dcf1c056b94db6a0a537aa80d26fa9ab1eacd85da1ba0b61b7e7a8a5614206565b60608160000180546113f290614219565b80601f016020809104026020016040519081016040528092919081815260200182805461141e90614219565b801561146b5780601f106114405761010080835404028352916020019161146b565b820191906000526020600020905b81548152906001019060200180831161144e57829003601f168201915b50505050509050919050565b600061062c612c24565b60008061060060017fc8827d3282af6f37b64c3e9e6f3ac9df286ab0bb0fccd6f8661bf19adb368b23614206565b60008281526020848152604080832073ffffffffffffffffffffffffffffffffffffffff8516845290915290205460ff16610849576040517f7aa728820000000000000000000000000000000000000000000000000000000081526004810183905273ffffffffffffffffffffffffffffffffffffffff821660248201526044016108d8565b73ffffffffffffffffffffffffffffffffffffffff8416611582576040517f021149bd00000000000000000000000000000000000000000000000000000000815260040160405180910390fd5b8251825181146115be576040517f6582533600000000000000000000000000000000000000000000000000000000815260040160405180910390fd5b60005b8181101561160f5761160788878784815181106115e0576115e0614143565b60200260200101518785815181106115fa576115fa614143565b6020026020010151612d6b565b6001016115c1565b508473ffffffffffffffffffffffffffffffffffffffff16600073ffffffffffffffffffffffffffffffffffffffff168773ffffffffffffffffffffffffffffffffffffffff167f4a39dc06d4c0dbc64b70af90fd698a233a518aa5d07e595d983b8c0526c8f7fb878760405161168792919061426c565b60405180910390a473ffffffffffffffffffffffffffffffffffffffff85163b1561111e5761111e86600087878787612e3c565b60008061060060017fc9ed16f33ab3a66c84bfd83099ccb2a8845871e2e1c1928f63797152f0fd54cd614206565b61171e61171760017f5b388d90dc1312ba799f321972f13311234fa1163bcabec7cf66101c4876eb84614206565b6001612f3a565b610dc88282612f86565b61175d7fd9b67a260000000000000000000000000000000000000000000000000000000060016117566112ab565b919061303c565b565b61175d7f0e89341c0000000000000000000000000000000000000000000000000000000060016117566112ab565b61175d7f5190c92c0000000000000000000000000000000000000000000000000000000060016117566112ab565b61175d7fe8ab9ccc0000000000000000000000000000000000000000000000000000000060016117566112ab565b61175d7f921ed8d10000000000000000000000000000000000000000000000000000000060016117566112ab565b61175d7f2a55205a0000000000000000000000000000000000000000000000000000000060016117566112ab565b61187361171760017f92f72593ca50a0096f68ee94e7000db40ed086164b695855e2250750b8bfaf59614206565b8561187f858783614311565b506001860161188f838583614311565b5060029590950180547fffffffffffffffffffffffff00000000000000000000000000000000000000001673ffffffffffffffffffffffffffffffffffffffff9096169590951790945550505050565b60008061060060017f609b85bcafa81ecfaf3ff62cdde2c6c9082a68dbe4922f07399c706bdeb7cd31614206565b61193b61171760017f2f02d396cb1be29636682c8684200b30a98554d3b74293aa4495cb5e1d252f6e614206565b81547fffffffffffffffffffffffff00000000000000000000000000000000000000001673ffffffffffffffffffffffffffffffffffffffff91909116179055565b60028301546040517ff724dad700000000000000000000000000000000000000000000000000000000815273ffffffffffffffffffffffffffffffffffffffff848116600483015260248201849052606092169063f724dad790604401600060405180830381865afa1580156119f7573d6000803e3d6000fd5b505050506040513d6000823e601f3d9081017fffffffffffffffffffffffffffffffffffffffffffffffffffffffffffffffe01682016040526109db919081019061442b565b815473ffffffffffffffffffffffffffffffffffffffff828116911614610dc8576040517f2ef4875e00000000000000000000000000000000000000000000000000000000815273ffffffffffffffffffffffffffffffffffffffff821660048201526024016108d8565b611ab3858486613118565b611b09576040517f05bbb9c400000000000000000000000000000000000000000000000000000000815273ffffffffffffffffffffffffffffffffffffffff8086166004830152841660248201526044016108d8565b611b158584848461318d565b604080518381526020810183905260009173ffffffffffffffffffffffffffffffffffffffff86811692908816917fc3d58168c5ae7397731d063d5bbf3d657854427343f4c083240f7aacaa2d0f62910160405180910390a45050505050565b60008061060060017f2c0cf10337caabbd02dcf226f05f5fd19a0919a41a8df8958c39b80007826858614206565b825473ffffffffffffffffffffffffffffffffffffffff8116906000907401000000000000000000000000000000000000000090046bffffffffffffffffffffffff16831580611bf1575080155b15611bff5760009150611c44565b620186a0841015611c2957620186a0611c1882866144eb565b611c229190614502565b9150611c44565b80611c37620186a086614502565b611c4191906144eb565b91505b50935093915050565b8073ffffffffffffffffffffffffffffffffffffffff168273ffffffffffffffffffffffffffffffffffffffff161461084957610849838361322a565b73ffffffffffffffffffffffffffffffffffffffff8716611cd7576040517fb5e8901500000000000000000000000000000000000000000000000000000000815260040160405180910390fd5b84838114611d11576040517f6582533600000000000000000000000000000000000000000000000000000000815260040160405180910390fd5b611d1c8b8a8c613118565b611d72576040517f05bbb9c400000000000000000000000000000000000000000000000000000000815273ffffffffffffffffffffffffffffffffffffffff808c1660048301528a1660248201526044016108d8565b60005b81811015611dc257611dba8c8b8b8b8b86818110611d9557611d95614143565b905060200201358a8a87818110611dae57611dae614143565b90506020020135613351565b600101611d75565b508773ffffffffffffffffffffffffffffffffffffffff168973ffffffffffffffffffffffffffffffffffffffff168b73ffffffffffffffffffffffffffffffffffffffff167f4a39dc06d4c0dbc64b70af90fd698a233a518aa5d07e595d983b8c0526c8f7fb8a8a8a8a604051611e3d9493929190614588565b60405180910390a473ffffffffffffffffffffffffffffffffffffffff88163b15611f0657611f068a8a8a8a8a8080602002602001604051908101604052809392919081815260200183836020028082843760009201919091525050604080516020808e0282810182019093528d82529093508d92508c91829185019084908082843760009201919091525050604080516020601f8d018190048102820181019092528b815292508b91508a9081908401838280828437600092019190915250612e3c92505050565b5050505050505050505050565b60008381526020858152604080832073ffffffffffffffffffffffffffffffffffffffff8616845290915290205460ff16611fe45760008381526020858152604080832073ffffffffffffffffffffffffffffffffffffffff8681168086529184529382902080547fffffffffffffffffffffffffffffffffffffffffffffffffffffffffffffff00166001179055815187815292830152918316918101919091527f2f8788117e7eff1d82e926ec794901d17c78024a50270940304540a733656f0d906060015b60405180910390a15b50505050565b606083828114612026576040517f6582533600000000000000000000000000000000000000000000000000000000815260040160405180910390fd5b8467ffffffffffffffff81111561203f5761203f61429a565b604051908082528060200260200182016040528015612068578160200160208202803683370190505b50915060005b818110156120ee576120c987878381811061208b5761208b614143565b90506020020160208101906120a09190613b9f565b8686848181106120b2576120b2614143565b905060200201358a6112279092919063ffffffff16565b8382815181106120db576120db614143565b602090810291909101015260010161206e565b505095945050505050565b73ffffffffffffffffffffffffffffffffffffffff8416612146576040517f021149bd00000000000000000000000000000000000000000000000000000000815260040160405180910390fd5b61215286858585612d6b565b604080518481526020810184905273ffffffffffffffffffffffffffffffffffffffff80871692600092918916917fc3d58168c5ae7397731d063d5bbf3d657854427343f4c083240f7aacaa2d0f62910160405180910390a473ffffffffffffffffffffffffffffffffffffffff84163b156107a1576107a1856000868686866134fe565b620186a0811115612217576040517fac040408000000000000000000000000000000000000000000000000000000008152600481018290526024016108d8565b81546bffffffffffffffffffffffff909116740100000000000000000000000000000000000000000273ffffffffffffffffffffffffffffffffffffffff909116179055565b6040805173ffffffffffffffffffffffffffffffffffffffff8416602482015260448082018490528251808303909101815260649091019091526020810180517bffffffffffffffffffffffffffffffffffffffffffffffffffffffff167fa9059cbb0000000000000000000000000000000000000000000000000000000017905261084990849061361c565b82818114612324576040517f6582533600000000000000000000000000000000000000000000000000000000815260040160405180910390fd5b61232f888789613118565b612385576040517f05bbb9c400000000000000000000000000000000000000000000000000000000815273ffffffffffffffffffffffffffffffffffffffff8089166004830152871660248201526044016108d8565b60005b818110156123d4576123cc89888888858181106123a7576123a7614143565b905060200201358787868181106123c0576123c0614143565b9050602002013561318d565b600101612388565b50600073ffffffffffffffffffffffffffffffffffffffff168673ffffffffffffffffffffffffffffffffffffffff168873ffffffffffffffffffffffffffffffffffffffff167f4a39dc06d4c0dbc64b70af90fd698a233a518aa5d07e595d983b8c0526c8f7fb888888886040516124509493929190614588565b60405180910390a45050505050505050565b61246d8382846114af565b60008181526020848152604080832073ffffffffffffffffffffffffffffffffffffffff86168085529083529281902080547fffffffffffffffffffffffffffffffffffffffffffffffffffffffffffffff0016905580518481529182018390528101919091527ff6391f5c32d9c69d2a47ea670b442974b53935d1edc7fd64eb21e047a839171b9060600160405180910390a1505050565b73ffffffffffffffffffffffffffffffffffffffff811661193b576040517f16de0c8000000000000000000000000000000000000000000000000000000000815260040160405180910390fd5b60608160010180546113f290614219565b610dc8828261322a565b8273ffffffffffffffffffffffffffffffffffffffff168273ffffffffffffffffffffffffffffffffffffffff16036125eb576040517ffb0fdf6100000000000000000000000000000000000000000000000000000000815273ffffffffffffffffffffffffffffffffffffffff841660048201526024016108d8565b73ffffffffffffffffffffffffffffffffffffffff838116600081815260018701602090815260408083209487168084529482529182902080547fffffffffffffffffffffffffffffffffffffffffffffffffffffffffffffff001686151590811790915591519182527f17307eab39ab6107e8899845ad3d59bd9653f200f220920489ca2b5937696c31910160405180910390a350505050565b60008381526020858152604080832073ffffffffffffffffffffffffffffffffffffffff8616845290915290205460ff1615611fe45760008381526020858152604080832073ffffffffffffffffffffffffffffffffffffffff8681168086529184529382902080547fffffffffffffffffffffffffffffffffffffffffffffffffffffffffffffff00169055815187815292830152918316918101919091527ff6391f5c32d9c69d2a47ea670b442974b53935d1edc7fd64eb21e047a839171b90606001611fdb565b8351835181141580612763575082518114155b1561279a576040517f6582533600000000000000000000000000000000000000000000000000000000815260040160405180910390fd5b60005b818110156107225761280b878783815181106127bb576127bb614143565b60200260200101518784815181106127d5576127d5614143565b60200260200101518785815181106127ef576127ef614143565b6020026020010151878d6120f99095949392919063ffffffff16565b60010161279d565b73ffffffffffffffffffffffffffffffffffffffff8516612860576040517fb5e8901500000000000000000000000000000000000000000000000000000000815260040160405180910390fd5b61286b888789613118565b6128c1576040517f05bbb9c400000000000000000000000000000000000000000000000000000000815273ffffffffffffffffffffffffffffffffffffffff8089166004830152871660248201526044016108d8565b6128ce8887878787613351565b8473ffffffffffffffffffffffffffffffffffffffff168673ffffffffffffffffffffffffffffffffffffffff168873ffffffffffffffffffffffffffffffffffffffff167fc3d58168c5ae7397731d063d5bbf3d657854427343f4c083240f7aacaa2d0f62878760405161294d929190918252602082015260400190565b60405180910390a473ffffffffffffffffffffffffffffffffffffffff85163b1561072257610722878787878787878080601f0160208091040260200160405190810160405280939291908181526020018383808284376000920191909152506134fe92505050565b825473ffffffffffffffffffffffffffffffffffffffff9081169083168114612a23576040517f2ef4875e00000000000000000000000000000000000000000000000000000000815273ffffffffffffffffffffffffffffffffffffffff841660048201526024016108d8565b8173ffffffffffffffffffffffffffffffffffffffff168173ffffffffffffffffffffffffffffffffffffffff1614611fe45783547fffffffffffffffffffffffff00000000000000000000000000000000000000001673ffffffffffffffffffffffffffffffffffffffff8381169182178655604051908316907f8be0079c531659141344cd1fd0a4f28419497f9722a3daafe3b4186f6b6457e090600090a350505050565b80471015612b34576040517f08c379a000000000000000000000000000000000000000000000000000000000815260206004820152601d60248201527f416464726573733a20696e73756666696369656e742062616c616e636500000060448201526064016108d8565b60008273ffffffffffffffffffffffffffffffffffffffff168260405160006040518083038185875af1925050503d8060008114612b8e576040519150601f19603f3d011682016040523d82523d6000602084013e612b93565b606091505b5050905080610849576040517f08c379a000000000000000000000000000000000000000000000000000000000815260206004820152603a60248201527f416464726573733a20756e61626c6520746f2073656e642076616c75652c207260448201527f6563697069656e74206d6179206861766520726576657274656400000000000060648201526084016108d8565b600033321480612c345750601836105b15612c3e57503390565b7fffffffffffffffffffffffffffffffffffffffffffffffffffffffffffffffec36013560601c7f000000000000000000000000000000000000000000000000000000000000000073ffffffffffffffffffffffffffffffffffffffff16331480612d5a57506040517f8929a8ca00000000000000000000000000000000000000000000000000000000815273ffffffffffffffffffffffffffffffffffffffff82811660048301523360248301527f00000000000000000000000000000000000000000000000000000000000000001690638929a8ca90604401602060405180830381865afa158015612d36573d6000803e3d6000fd5b505050506040513d601f19601f82011682018060405250810190612d5a91906145af565b15612d6457919050565b3391505090565b8015611fe45760008281526020858152604080832073ffffffffffffffffffffffffffffffffffffffff87168452909152902054818101818111612e08576040517f42fb00bc00000000000000000000000000000000000000000000000000000000815273ffffffffffffffffffffffffffffffffffffffff861660048201526024810185905260448101839052606481018490526084016108d8565b60009384526020958652604080852073ffffffffffffffffffffffffffffffffffffffff9690961685529490955250502055565b6040517fbc197c81000000000000000000000000000000000000000000000000000000008082529073ffffffffffffffffffffffffffffffffffffffff86169063bc197c8190612e98908a908a908990899089906004016145cc565b6020604051808303816000875af1158015612eb7573d6000803e3d6000fd5b505050506040513d601f19601f82011682018060405250810190612edb9190614637565b7fffffffff0000000000000000000000000000000000000000000000000000000016146107a1578383836040517fc287817e0000000000000000000000000000000000000000000000000000000081526004016108d893929190614654565b81548290828110612f81576040517fbf0c18ec00000000000000000000000000000000000000000000000000000000815260048101829052602481018490526044016108d8565b505550565b73ffffffffffffffffffffffffffffffffffffffff81161561300e5781547fffffffffffffffffffffffff00000000000000000000000000000000000000001673ffffffffffffffffffffffffffffffffffffffff821690811783556040516000907f8be0079c531659141344cd1fd0a4f28419497f9722a3daafe3b4186f6b6457e0908290a35b610dc87f7f5828d00000000000000000000000000000000000000000000000000000000060016117566112ab565b7c01000000000000000000000000000000000000000000000000000000007fffffffff000000000000000000000000000000000000000000000000000000008316016130b4576040517f72c683bb00000000000000000000000000000000000000000000000000000000815260040160405180910390fd5b7fffffffff00000000000000000000000000000000000000000000000000000000919091166000908152602092909252604090912080547fffffffffffffffffffffffffffffffffffffffffffffffffffffffffffffff0016911515919091179055565b60008173ffffffffffffffffffffffffffffffffffffffff168373ffffffffffffffffffffffffffffffffffffffff1614806109db57505073ffffffffffffffffffffffffffffffffffffffff9182166000908152600193909301602090815260408085209290931684525290205460ff1690565b8015611fe45760008281526020858152604080832073ffffffffffffffffffffffffffffffffffffffff87168452909152902054818103818110612e08576040517f03dee4c500000000000000000000000000000000000000000000000000000000815273ffffffffffffffffffffffffffffffffffffffff861660048201526024810185905260448101839052606481018490526084016108d8565b815473ffffffffffffffffffffffffffffffffffffffff168015801590613268575060008173ffffffffffffffffffffffffffffffffffffffff163b115b15610849576040517fc617113400000000000000000000000000000000000000000000000000000000815230600482015273ffffffffffffffffffffffffffffffffffffffff838116602483015282169063c617113490604401602060405180830381865afa1580156132df573d6000803e3d6000fd5b505050506040513d601f19601f8201168201806040525081019061330391906145af565b610849576040517fede71dcc00000000000000000000000000000000000000000000000000000000815273ffffffffffffffffffffffffffffffffffffffff831660048201526024016108d8565b8015610bbb5760008281526020868152604080832073ffffffffffffffffffffffffffffffffffffffff881684529091529020548181038181106133ee576040517f03dee4c500000000000000000000000000000000000000000000000000000000815273ffffffffffffffffffffffffffffffffffffffff871660048201526024810185905260448101839052606481018490526084016108d8565b8473ffffffffffffffffffffffffffffffffffffffff168673ffffffffffffffffffffffffffffffffffffffff161461111e5760008481526020888152604080832073ffffffffffffffffffffffffffffffffffffffff891684529091529020548381018181116134b8576040517f42fb00bc00000000000000000000000000000000000000000000000000000000815273ffffffffffffffffffffffffffffffffffffffff881660048201526024810187905260448101839052606481018690526084016108d8565b600086815260208a8152604080832073ffffffffffffffffffffffffffffffffffffffff808d1685528184528285208890558b1684529091529020555050505050505050565b6040517ff23a6e61000000000000000000000000000000000000000000000000000000008082529073ffffffffffffffffffffffffffffffffffffffff86169063f23a6e619061355a908a908a9089908990899060040161469f565b6020604051808303816000875af1158015613579573d6000803e3d6000fd5b505050506040513d601f19601f8201168201806040525081019061359d9190614637565b7fffffffff0000000000000000000000000000000000000000000000000000000016146107a1576040517f40f39d3800000000000000000000000000000000000000000000000000000000815273ffffffffffffffffffffffffffffffffffffffff8516600482015260248101849052604481018390526064016108d8565b600061367e826040518060400160405280602081526020017f5361666545524332303a206c6f772d6c6576656c2063616c6c206661696c65648152508573ffffffffffffffffffffffffffffffffffffffff1661372b9092919063ffffffff16565b905080516000148061369f57508080602001905181019061369f91906145af565b610849576040517f08c379a000000000000000000000000000000000000000000000000000000000815260206004820152602a60248201527f5361666545524332303a204552433230206f7065726174696f6e20646964206e60448201527f6f7420737563636565640000000000000000000000000000000000000000000060648201526084016108d8565b60606109db8484600085856000808673ffffffffffffffffffffffffffffffffffffffff16858760405161375f91906146e4565b60006040518083038185875af1925050503d806000811461379c576040519150601f19603f3d011682016040523d82523d6000602084013e6137a1565b606091505b50915091506137b2878383876137bd565b979650505050505050565b6060831561385357825160000361384c5773ffffffffffffffffffffffffffffffffffffffff85163b61384c576040517f08c379a000000000000000000000000000000000000000000000000000000000815260206004820152601d60248201527f416464726573733a2063616c6c20746f206e6f6e2d636f6e747261637400000060448201526064016108d8565b50816109db565b6109db83838151156138685781518083602001fd5b806040517f08c379a00000000000000000000000000000000000000000000000000000000081526004016108d891906139aa565b73ffffffffffffffffffffffffffffffffffffffff8116811461082757600080fd5b600080604083850312156138d157600080fd5b82356138dc8161389c565b946020939093013593505050565b7fffffffff000000000000000000000000000000000000000000000000000000008116811461082757600080fd5b60006020828403121561392a57600080fd5b8135613935816138ea565b9392505050565b60005b8381101561395757818101518382015260200161393f565b50506000910152565b6000815180845261397881602086016020860161393c565b601f017fffffffffffffffffffffffffffffffffffffffffffffffffffffffffffffffe0169290920160200192915050565b6020815260006105fd6020830184613960565b60008083601f8401126139cf57600080fd5b50813567ffffffffffffffff8111156139e757600080fd5b6020830191508360208260051b850101111561093c57600080fd5b60008083601f840112613a1457600080fd5b50813567ffffffffffffffff811115613a2c57600080fd5b60208301915083602082850101111561093c57600080fd5b60008060008060008060006080888a031215613a5f57600080fd5b8735613a6a8161389c565b9650602088013567ffffffffffffffff80821115613a8757600080fd5b613a938b838c016139bd565b909850965060408a0135915080821115613aac57600080fd5b613ab88b838c016139bd565b909650945060608a0135915080821115613ad157600080fd5b50613ade8a828b01613a02565b989b979a50959850939692959293505050565b60008060008060008060808789031215613b0a57600080fd5b863567ffffffffffffffff80821115613b2257600080fd5b613b2e8a838b01613a02565b90985096506020890135915080821115613b4757600080fd5b50613b5489828a01613a02565b9095509350506040870135613b688161389c565b91506060870135613b788161389c565b809150509295509295509295565b600060208284031215613b9857600080fd5b5035919050565b600060208284031215613bb157600080fd5b81356139358161389c565b600080600060608486031215613bd157600080fd5b8335613bdc8161389c565b95602085013595506040909401359392505050565b600080600060408486031215613c0657600080fd5b83359250602084013567ffffffffffffffff811115613c2457600080fd5b613c3086828701613a02565b9497909650939450505050565b60008060408385031215613c5057600080fd5b50508035926020909101359150565b60008060008060008060008060a0898b031215613c7b57600080fd5b8835613c868161389c565b97506020890135613c968161389c565b9650604089013567ffffffffffffffff80821115613cb357600080fd5b613cbf8c838d016139bd565b909850965060608b0135915080821115613cd857600080fd5b613ce48c838d016139bd565b909650945060808b0135915080821115613cfd57600080fd5b50613d0a8b828c01613a02565b999c989b5096995094979396929594505050565b60008060408385031215613d3157600080fd5b823591506020830135613d438161389c565b809150509250929050565b60008060008060408587031215613d6457600080fd5b843567ffffffffffffffff80821115613d7c57600080fd5b613d88888389016139bd565b90965094506020870135915080821115613da157600080fd5b50613dae878288016139bd565b95989497509550505050565b60008151808452602080850194506020840160005b83811015613deb57815187529582019590820190600101613dcf565b509495945050505050565b6020815260006105fd6020830184613dba565b600080600080600060808688031215613e2157600080fd5b8535613e2c8161389c565b94506020860135935060408601359250606086013567ffffffffffffffff811115613e5657600080fd5b613e6288828901613a02565b969995985093965092949392505050565b60008060008060008060608789031215613e8c57600080fd5b863567ffffffffffffffff80821115613ea457600080fd5b613eb08a838b016139bd565b90985096506020890135915080821115613ec957600080fd5b613ed58a838b016139bd565b90965094506040890135915080821115613eee57600080fd5b50613efb89828a016139bd565b979a9699509497509295939492505050565b600080600080600060608688031215613f2557600080fd5b8535613f308161389c565b9450602086013567ffffffffffffffff80821115613f4d57600080fd5b613f5989838a016139bd565b90965094506040880135915080821115613f7257600080fd5b50613e62888289016139bd565b801515811461082757600080fd5b60008060408385031215613fa057600080fd5b8235613fab8161389c565b91506020830135613d4381613f7f565b6000806000806000806000806080898b031215613fd757600080fd5b883567ffffffffffffffff80821115613fef57600080fd5b613ffb8c838d016139bd565b909a50985060208b013591508082111561401457600080fd5b6140208c838d016139bd565b909850965060408b013591508082111561403957600080fd5b6140458c838d016139bd565b909650945060608b0135915080821115613cfd57600080fd5b6000806040838503121561407157600080fd5b823561407c8161389c565b91506020830135613d438161389c565b60008060008060008060a087890312156140a557600080fd5b86356140b08161389c565b955060208701356140c08161389c565b94506040870135935060608701359250608087013567ffffffffffffffff8111156140ea57600080fd5b613efb89828a01613a02565b60208152816020820152818360408301376000818301604090810191909152601f9092017fffffffffffffffffffffffffffffffffffffffffffffffffffffffffffffffe0160101919050565b7f4e487b7100000000000000000000000000000000000000000000000000000000600052603260045260246000fd5b60008083357fffffffffffffffffffffffffffffffffffffffffffffffffffffffffffffffe18436030181126141a757600080fd5b83018035915067ffffffffffffffff8211156141c257600080fd5b60200191503681900382131561093c57600080fd5b7f4e487b7100000000000000000000000000000000000000000000000000000000600052601160045260246000fd5b81810381811115610600576106006141d7565b600181811c9082168061422d57607f821691505b602082108103614266577f4e487b7100000000000000000000000000000000000000000000000000000000600052602260045260246000fd5b50919050565b60408152600061427f6040830185613dba565b82810360208401526142918185613dba565b95945050505050565b7f4e487b7100000000000000000000000000000000000000000000000000000000600052604160045260246000fd5b601f821115610849576000816000526020600020601f850160051c810160208610156142f25750805b601f850160051c820191505b818110156107a1578281556001016142fe565b67ffffffffffffffff8311156143295761432961429a565b61433d836143378354614219565b836142c9565b6000601f84116001811461438f57600085156143595750838201355b7fffffffffffffffffffffffffffffffffffffffffffffffffffffffffffffffff600387901b1c1916600186901b178355610bbb565b6000838152602090207fffffffffffffffffffffffffffffffffffffffffffffffffffffffffffffffe0861690835b828110156143de57868501358255602094850194600190920191016143be565b5086821015614419577fffffffffffffffffffffffffffffffffffffffffffffffffffffffffffffffff60f88860031b161c19848701351681555b505060018560011b0183555050505050565b60006020828403121561443d57600080fd5b815167ffffffffffffffff8082111561445557600080fd5b818401915084601f83011261446957600080fd5b81518181111561447b5761447b61429a565b604051601f82017fffffffffffffffffffffffffffffffffffffffffffffffffffffffffffffffe0908116603f011681019083821181831017156144c1576144c161429a565b816040528281528760208487010111156144da57600080fd5b6137b283602083016020880161393c565b8082028115828204841417610600576106006141d7565b600082614538577f4e487b7100000000000000000000000000000000000000000000000000000000600052601260045260246000fd5b500490565b81835260007f07ffffffffffffffffffffffffffffffffffffffffffffffffffffffffffffff83111561456f57600080fd5b8260051b80836020870137939093016020019392505050565b60408152600061459c60408301868861453d565b82810360208401526137b281858761453d565b6000602082840312156145c157600080fd5b815161393581613f7f565b600073ffffffffffffffffffffffffffffffffffffffff808816835280871660208401525060a0604083015261460560a0830186613dba565b82810360608401526146178186613dba565b9050828103608084015261462b8185613960565b98975050505050505050565b60006020828403121561464957600080fd5b8151613935816138ea565b73ffffffffffffffffffffffffffffffffffffffff841681526060602082015260006146836060830185613dba565b82810360408401526146958185613dba565b9695505050505050565b600073ffffffffffffffffffffffffffffffffffffffff808816835280871660208401525084604083015283606083015260a060808301526137b260a0830184613960565b600082516146f681846020870161393c565b919091019291505056fea26469706673582212201a1ae1ec9a1bc05a765480cad40a5d042d9ceb9544df3b5505062b175d133f9064736f6c63430008160033",
  "linkReferences": {},
  "deployedLinkReferences": {}
}