{
  "_format": "hh-sol-artifact-1",
  "contractName": "ERC1155ProxiedMock",
  "sourceName": "contracts/mocks/token/ERC1155/proxied/ERC1155ProxiedMock.sol",
  "abi": [
    {
      "inputs": [
        {
          "internalType": "contract IForwarderRegistry",
          "name": "forwarderRegistry",
          "type": "address"
        }
      ],
      "stateMutability": "nonpayable",
      "type": "constructor"
    },
    {
      "anonymous": false,
      "inputs": [
        {
          "indexed": true,
          "internalType": "address",
          "name": "owner",
          "type": "address"
        },
        {
          "indexed": true,
          "internalType": "address",
          "name": "operator",
          "type": "address"
        },
        {
          "indexed": false,
          "internalType": "bool",
          "name": "approved",
          "type": "bool"
        }
      ],
      "name": "ApprovalForAll",
      "type": "event"
    },
    {
      "anonymous": false,
      "inputs": [
        {
          "indexed": false,
          "internalType": "string",
          "name": "baseMetadataURI",
          "type": "string"
        }
      ],
      "name": "BaseMetadataURISet",
      "type": "event"
    },
    {
      "anonymous": false,
      "inputs": [
        {
          "indexed": true,
          "internalType": "address",
          "name": "previousOwner",
          "type": "address"
        },
        {
          "indexed": true,
          "internalType": "address",
          "name": "newOwner",
          "type": "address"
        }
      ],
      "name": "OwnershipTransferred",
      "type": "event"
    },
    {
      "anonymous": false,
      "inputs": [
        {
          "indexed": false,
          "internalType": "bytes32",
          "name": "role",
          "type": "bytes32"
        },
        {
          "indexed": false,
          "internalType": "address",
          "name": "account",
          "type": "address"
        },
        {
          "indexed": false,
          "internalType": "address",
          "name": "operator",
          "type": "address"
        }
      ],
      "name": "RoleGranted",
      "type": "event"
    },
    {
      "anonymous": false,
      "inputs": [
        {
          "indexed": false,
          "internalType": "bytes32",
          "name": "role",
          "type": "bytes32"
        },
        {
          "indexed": false,
          "internalType": "address",
          "name": "account",
          "type": "address"
        },
        {
          "indexed": false,
          "internalType": "address",
          "name": "operator",
          "type": "address"
        }
      ],
      "name": "RoleRevoked",
      "type": "event"
    },
    {
      "anonymous": false,
      "inputs": [
        {
          "indexed": true,
          "internalType": "address",
          "name": "operator",
          "type": "address"
        },
        {
          "indexed": true,
          "internalType": "address",
          "name": "from",
          "type": "address"
        },
        {
          "indexed": true,
          "internalType": "address",
          "name": "to",
          "type": "address"
        },
        {
          "indexed": false,
          "internalType": "uint256[]",
          "name": "ids",
          "type": "uint256[]"
        },
        {
          "indexed": false,
          "internalType": "uint256[]",
          "name": "values",
          "type": "uint256[]"
        }
      ],
      "name": "TransferBatch",
      "type": "event"
    },
    {
      "anonymous": false,
      "inputs": [
        {
          "indexed": true,
          "internalType": "address",
          "name": "operator",
          "type": "address"
        },
        {
          "indexed": true,
          "internalType": "address",
          "name": "from",
          "type": "address"
        },
        {
          "indexed": true,
          "internalType": "address",
          "name": "to",
          "type": "address"
        },
        {
          "indexed": false,
          "internalType": "uint256",
          "name": "id",
          "type": "uint256"
        },
        {
          "indexed": false,
          "internalType": "uint256",
          "name": "value",
          "type": "uint256"
        }
      ],
      "name": "TransferSingle",
      "type": "event"
    },
    {
      "anonymous": false,
      "inputs": [
        {
          "indexed": false,
          "internalType": "string",
          "name": "value",
          "type": "string"
        },
        {
          "indexed": true,
          "internalType": "uint256",
          "name": "id",
          "type": "uint256"
        }
      ],
      "name": "URI",
      "type": "event"
    },
    {
      "inputs": [],
      "name": "MINTER_ROLE",
      "outputs": [
        {
          "internalType": "bytes32",
          "name": "",
          "type": "bytes32"
        }
      ],
      "stateMutability": "view",
      "type": "function"
    },
    {
      "inputs": [],
      "name": "__msgData",
      "outputs": [
        {
          "internalType": "bytes",
          "name": "",
          "type": "bytes"
        }
      ],
      "stateMutability": "view",
      "type": "function"
    },
    {
      "inputs": [
        {
          "internalType": "address",
          "name": "owner",
          "type": "address"
        },
        {
          "internalType": "uint256",
          "name": "id",
          "type": "uint256"
        }
      ],
      "name": "balanceOf",
      "outputs": [
        {
          "internalType": "uint256",
          "name": "balance",
          "type": "uint256"
        }
      ],
      "stateMutability": "view",
      "type": "function"
    },
    {
      "inputs": [
        {
          "internalType": "address[]",
          "name": "owners",
          "type": "address[]"
        },
        {
          "internalType": "uint256[]",
          "name": "ids",
          "type": "uint256[]"
        }
      ],
      "name": "balanceOfBatch",
      "outputs": [
        {
          "internalType": "uint256[]",
          "name": "balances",
          "type": "uint256[]"
        }
      ],
      "stateMutability": "view",
      "type": "function"
    },
    {
      "inputs": [],
      "name": "baseMetadataURI",
      "outputs": [
        {
          "internalType": "string",
          "name": "baseURI",
          "type": "string"
        }
      ],
      "stateMutability": "view",
      "type": "function"
    },
    {
      "inputs": [],
      "name": "forwarderRegistry",
      "outputs": [
        {
          "internalType": "contract IForwarderRegistry",
          "name": "",
          "type": "address"
        }
      ],
      "stateMutability": "view",
      "type": "function"
    },
    {
      "inputs": [
        {
          "internalType": "bytes32",
          "name": "role",
          "type": "bytes32"
        },
        {
          "internalType": "address",
          "name": "account",
          "type": "address"
        }
      ],
      "name": "grantRole",
      "outputs": [],
      "stateMutability": "nonpayable",
      "type": "function"
    },
    {
      "inputs": [
        {
          "internalType": "bytes32",
          "name": "role",
          "type": "bytes32"
        },
        {
          "internalType": "address",
          "name": "account",
          "type": "address"
        }
      ],
      "name": "hasRole",
      "outputs": [
        {
          "internalType": "bool",
          "name": "",
          "type": "bool"
        }
      ],
      "stateMutability": "view",
      "type": "function"
    },
    {
      "inputs": [],
      "name": "init",
      "outputs": [],
      "stateMutability": "nonpayable",
      "type": "function"
    },
    {
      "inputs": [
        {
          "internalType": "string",
          "name": "baseMetadataURI",
          "type": "string"
        }
      ],
      "name": "init",
      "outputs": [],
      "stateMutability": "nonpayable",
      "type": "function"
    },
    {
      "inputs": [
        {
          "internalType": "address",
          "name": "owner",
          "type": "address"
        },
        {
          "internalType": "address",
          "name": "operator",
          "type": "address"
        }
      ],
      "name": "isApprovedForAll",
      "outputs": [
        {
          "internalType": "bool",
          "name": "approvedForAll",
          "type": "bool"
        }
      ],
      "stateMutability": "view",
      "type": "function"
    },
    {
      "inputs": [
        {
          "internalType": "address",
          "name": "forwarder",
          "type": "address"
        }
      ],
      "name": "isTrustedForwarder",
      "outputs": [
        {
          "internalType": "bool",
          "name": "",
          "type": "bool"
        }
      ],
      "stateMutability": "view",
      "type": "function"
    },
    {
      "inputs": [],
      "name": "owner",
      "outputs": [
        {
          "internalType": "address",
          "name": "",
          "type": "address"
        }
      ],
      "stateMutability": "view",
      "type": "function"
    },
    {
      "inputs": [
        {
          "internalType": "bytes32",
          "name": "role",
          "type": "bytes32"
        }
      ],
      "name": "renounceRole",
      "outputs": [],
      "stateMutability": "nonpayable",
      "type": "function"
    },
    {
      "inputs": [
        {
          "internalType": "bytes32",
          "name": "role",
          "type": "bytes32"
        },
        {
          "internalType": "address",
          "name": "account",
          "type": "address"
        }
      ],
      "name": "revokeRole",
      "outputs": [],
      "stateMutability": "nonpayable",
      "type": "function"
    },
    {
      "inputs": [
        {
          "internalType": "address",
          "name": "to",
          "type": "address"
        },
        {
          "internalType": "uint256[]",
          "name": "ids",
          "type": "uint256[]"
        },
        {
          "internalType": "uint256[]",
          "name": "values",
          "type": "uint256[]"
        },
        {
          "internalType": "bytes",
          "name": "data",
          "type": "bytes"
        }
      ],
      "name": "safeBatchMint",
      "outputs": [],
      "stateMutability": "nonpayable",
      "type": "function"
    },
    {
      "inputs": [
        {
          "internalType": "address",
          "name": "from",
          "type": "address"
        },
        {
          "internalType": "address",
          "name": "to",
          "type": "address"
        },
        {
          "internalType": "uint256[]",
          "name": "ids",
          "type": "uint256[]"
        },
        {
          "internalType": "uint256[]",
          "name": "values",
          "type": "uint256[]"
        },
        {
          "internalType": "bytes",
          "name": "data",
          "type": "bytes"
        }
      ],
      "name": "safeBatchTransferFrom",
      "outputs": [],
      "stateMutability": "nonpayable",
      "type": "function"
    },
    {
      "inputs": [
        {
          "internalType": "address[]",
          "name": "recipients",
          "type": "address[]"
        },
        {
          "internalType": "uint256[]",
          "name": "ids",
          "type": "uint256[]"
        },
        {
          "internalType": "uint256[]",
          "name": "values",
          "type": "uint256[]"
        },
        {
          "internalType": "bytes",
          "name": "data",
          "type": "bytes"
        }
      ],
      "name": "safeDeliver",
      "outputs": [],
      "stateMutability": "nonpayable",
      "type": "function"
    },
    {
      "inputs": [
        {
          "internalType": "address",
          "name": "to",
          "type": "address"
        },
        {
          "internalType": "uint256",
          "name": "id",
          "type": "uint256"
        },
        {
          "internalType": "uint256",
          "name": "value",
          "type": "uint256"
        },
        {
          "internalType": "bytes",
          "name": "data",
          "type": "bytes"
        }
      ],
      "name": "safeMint",
      "outputs": [],
      "stateMutability": "nonpayable",
      "type": "function"
    },
    {
      "inputs": [
        {
          "internalType": "address",
          "name": "from",
          "type": "address"
        },
        {
          "internalType": "address",
          "name": "to",
          "type": "address"
        },
        {
          "internalType": "uint256",
          "name": "id",
          "type": "uint256"
        },
        {
          "internalType": "uint256",
          "name": "value",
          "type": "uint256"
        },
        {
          "internalType": "bytes",
          "name": "data",
          "type": "bytes"
        }
      ],
      "name": "safeTransferFrom",
      "outputs": [],
      "stateMutability": "nonpayable",
      "type": "function"
    },
    {
      "inputs": [
        {
          "internalType": "address",
          "name": "operator",
          "type": "address"
        },
        {
          "internalType": "bool",
          "name": "approved",
          "type": "bool"
        }
      ],
      "name": "setApprovalForAll",
      "outputs": [],
      "stateMutability": "nonpayable",
      "type": "function"
    },
    {
      "inputs": [
        {
          "internalType": "string",
          "name": "baseURI",
          "type": "string"
        }
      ],
      "name": "setBaseMetadataURI",
      "outputs": [],
      "stateMutability": "nonpayable",
      "type": "function"
    },
    {
      "inputs": [
        {
          "internalType": "bytes4",
          "name": "interfaceId",
          "type": "bytes4"
        }
      ],
      "name": "supportsInterface",
      "outputs": [
        {
          "internalType": "bool",
          "name": "",
          "type": "bool"
        }
      ],
      "stateMutability": "view",
      "type": "function"
    },
    {
      "inputs": [
        {
          "internalType": "address",
          "name": "newOwner",
          "type": "address"
        }
      ],
      "name": "transferOwnership",
      "outputs": [],
      "stateMutability": "nonpayable",
      "type": "function"
    },
    {
      "inputs": [
        {
          "internalType": "uint256",
          "name": "id",
          "type": "uint256"
        }
      ],
      "name": "uri",
      "outputs": [
        {
          "internalType": "string",
          "name": "metadataURI",
          "type": "string"
        }
      ],
      "stateMutability": "view",
      "type": "function"
    }
  ],
  "bytecode": "0x60a06040523480156200001157600080fd5b50604051620038fd380380620038fd833981016040819052620000349162000046565b6001600160a01b031660805262000078565b6000602082840312156200005957600080fd5b81516001600160a01b03811681146200007157600080fd5b9392505050565b608051613846620000b760003960008181610227015281816102d8015281816129000152818161298801528181612a3b0152612a7901526138466000f3fe608060405234801561001057600080fd5b50600436106101a25760003560e01c80637e518ec8116100ee578063d547741f11610097578063e985e9c511610071578063e985e9c5146103d9578063f242432a146103ec578063f2fde38b146103ff578063f9fbdb9e1461041257600080fd5b8063d547741f146103ab578063e1c7392a146103be578063e8ab9ccc146103c657600080fd5b806391d14854116100c857806391d148541461035e578063a22cb46514610371578063d53913931461038457600080fd5b80637e518ec8146103305780638bb9c5bf146103435780638da5cb5b1461035657600080fd5b80632f2ff15d11610150578063572b6c051161012a578063572b6c05146102c85780635b2bd79e146103155780635cfa92971461031d57600080fd5b80632f2ff15d1461027f57806331e66e1e146102925780634e1273f4146102a857600080fd5b80630e89341c116101815780630e89341c146102055780632b4c9f16146102255780632eb2c2d61461026c57600080fd5b8062fdd58e146101a757806301ffc9a7146101cd5780630d6a5bbb146101f0575b600080fd5b6101ba6101b5366004612bc8565b610425565b6040519081526020015b60405180910390f35b6101e06101db366004612c20565b610444565b60405190151581526020016101c4565b6102036101fe366004612cd2565b610458565b005b610218610213366004612d7d565b610553565b6040516101c49190612e04565b7f00000000000000000000000000000000000000000000000000000000000000005b60405173ffffffffffffffffffffffffffffffffffffffff90911681526020016101c4565b61020361027a366004612e17565b610567565b61020361028d366004612ed2565b610590565b61029a6105c9565b6040516101c4929190612efe565b6102bb6102b6366004612f4b565b6105dc565b6040516101c49190612ff2565b6101e06102d6366004613005565b7f000000000000000000000000000000000000000000000000000000000000000073ffffffffffffffffffffffffffffffffffffffff90811691161490565b61021861065f565b61020361032b366004613020565b610676565b61020361033e366004613088565b610708565b610203610351366004612d7d565b610768565b610247610786565b6101e061036c366004612ed2565b6107ad565b61020361037f3660046130d8565b6107f1565b6101ba7f6d696e746572000000000000000000000000000000000000000000000000000081565b6102036103b9366004612ed2565b61080e565b61020361083c565b6102036103d436600461310f565b610867565b6101e06103e73660046131b2565b61098c565b6102036103fa3660046131dc565b6109da565b61020361040d366004613005565b6109ff565b610203610420366004613088565b610a1a565b600061043b8383610434610a7b565b9190610aa9565b90505b92915050565b600061043e82610452610b62565b90610b90565b6000610462610c6a565b90506104987f6d696e746572000000000000000000000000000000000000000000000000000082610491610c74565b9190610ca2565b610549818989898080602002602001604051908101604052809392919081815260200183836020028082843760009201919091525050604080516020808d0282810182019093528c82529093508c92508b91829185019084908082843760009201919091525050604080516020601f8c018190048102820181019092528a815292508a915089908190840183828082843760009201919091525061053f9250610a7b915050565b9493929190610d4e565b5050505050505050565b606061043e82610561610f3c565b90610f6a565b610549610572610c6a565b8989898989898989610582610a7b565b989796959493929190610f9e565b600061059a610c6a565b90506105ae816105a8611296565b906112c4565b6105c48383836105bc610c74565b929190611347565b505050565b3660006105d461141e565b915091509091565b60606106568585808060200260200160405190810160405280939291908181526020018383602002808284376000920191909152505060408051602080890282810182019093528882529093508892508791829185019084908082843760009201919091525061064f9250610a7b915050565b9190611429565b95945050505050565b606061067161066c610f3c565b61155e565b905090565b6000610680610c6a565b90506106af7f6d696e746572000000000000000000000000000000000000000000000000000082610491610c74565b6107008187878787878080601f0160208091040260200160405190810160405280939291908181526020018383808284376000920191909152506106f69250610a7b915050565b94939291906115f4565b505050505050565b61071b610713610c6a565b6105a8611296565b61076482828080601f01602080910402602001604051908101604052809392919081815260200183838082843760009201919091525061075e9250610f3c915050565b90611702565b5050565b610783610773610c6a565b8261077c610c74565b9190611749565b50565b6000610671610793611296565b5473ffffffffffffffffffffffffffffffffffffffff1690565b600061043b83836107bc610c74565b60009283526020908152604080842073ffffffffffffffffffffffffffffffffffffffff909316845291905290205460ff1690565b6107646107fc610c6a565b8383610806610a7b565b9291906117ed565b6000610818610c6a565b9050610826816105a8611296565b6105c4838383610834610c74565b92919061191d565b610855610847610c6a565b61084f611296565b906119e7565b61085d611a26565b610865611a5b565b565b6000610871610c6a565b90506108a07f6d696e746572000000000000000000000000000000000000000000000000000082610491610c74565b610981818a8a8080602002602001604051908101604052809392919081815260200183836020028082843760009201919091525050604080516020808e0282810182019093528d82529093508d92508c91829185019084908082843760009201919091525050604080516020808d0282810182019093528c82529093508c92508b91829185019084908082843760009201919091525050604080516020601f8c018190048102820181019092528a815292508a91508990819084018382808284376000920191909152506109779250610a7b915050565b9493929190611a89565b505050505050505050565b600061043b838361099b610a7b565b919073ffffffffffffffffffffffffffffffffffffffff9182166000908152600193909301602090815260408085209290931684525290205460ff1690565b6107006109e5610c6a565b8787878787876109f3610a7b565b96959493929190611b79565b610783610a0a610c6a565b82610a13611296565b9190611d5c565b610a2261083c565b610a2a611e88565b610a32611eb6565b61076482828080601f016020809104026020016040519081016040528093929190818152602001838380828437600092019190915250610a759250610f3c915050565b90611ee4565b60008061043e60017f5ccf5846fa27a68fafc8e588671a68f5e67c2f9b56af4263806a4d71735e8613613283565b600073ffffffffffffffffffffffffffffffffffffffff8316610b2d576040517f08c379a000000000000000000000000000000000000000000000000000000000815260206004820152601e60248201527f455243313135353a2062616c616e6365206f662061646472657373283029000060448201526064015b60405180910390fd5b5060009081526020928352604080822073ffffffffffffffffffffffffffffffffffffffff9390931682529190925290205490565b60008061043e60017fca9d3e17f264b0f3984e2634e94adb37fa3e6a8103f06aeae6fa59e21c769f5e613283565b60007c01000000000000000000000000000000000000000000000000000000007fffffffff00000000000000000000000000000000000000000000000000000000831601610be05750600061043e565b7ffe003659000000000000000000000000000000000000000000000000000000007fffffffff00000000000000000000000000000000000000000000000000000000831601610c315750600161043e565b507fffffffff00000000000000000000000000000000000000000000000000000000166000908152602091909152604090205460ff1690565b6000610671611f1c565b60008061043e60017fc8827d3282af6f37b64c3e9e6f3ac9df286ab0bb0fccd6f8661bf19adb368b23613283565b60008281526020848152604080832073ffffffffffffffffffffffffffffffffffffffff8516845290915290205460ff166105c457610ce082611f26565b604051602001610cf09190613296565b604080517fffffffffffffffffffffffffffffffffffffffffffffffffffffffffffffffe0818403018152908290527f08c379a0000000000000000000000000000000000000000000000000000000008252610b2491600401612e04565b73ffffffffffffffffffffffffffffffffffffffff8416610dcb576040517f08c379a000000000000000000000000000000000000000000000000000000000815260206004820152601b60248201527f455243313135353a206d696e7420746f206164647265737328302900000000006044820152606401610b24565b825182518114610e37576040517f08c379a000000000000000000000000000000000000000000000000000000000815260206004820152601c60248201527f455243313135353a20696e636f6e73697374656e7420617272617973000000006044820152606401610b24565b60005b818114610e8757610e7f8887878481518110610e5857610e58613302565b6020026020010151878581518110610e7257610e72613302565b60200260200101516120b8565b600101610e3a565b508473ffffffffffffffffffffffffffffffffffffffff16600073ffffffffffffffffffffffffffffffffffffffff168773ffffffffffffffffffffffffffffffffffffffff167f4a39dc06d4c0dbc64b70af90fd698a233a518aa5d07e595d983b8c0526c8f7fb8787604051610eff929190613331565b60405180910390a473ffffffffffffffffffffffffffffffffffffffff85163b15610f3357610f338660008787878761218c565b50505050505050565b60008061043e60017fe94434e3c6b941c5d90218142fadcc69cb2e13723993540bfa1c131dd1d3475a613283565b606082610f76836122b4565b604051602001610f879291906133a9565b604051602081830303815290604052905092915050565b73ffffffffffffffffffffffffffffffffffffffff871661101b576040517f08c379a000000000000000000000000000000000000000000000000000000000815260206004820152601f60248201527f455243313135353a207472616e7366657220746f2061646472657373283029006044820152606401610b24565b84838114611085576040517f08c379a000000000000000000000000000000000000000000000000000000000815260206004820152601c60248201527f455243313135353a20696e636f6e73697374656e7420617272617973000000006044820152606401610b24565b6110908b8a8c6123f1565b6110f6576040517f08c379a000000000000000000000000000000000000000000000000000000000815260206004820152601c60248201527f455243313135353a206e6f6e2d617070726f7665642073656e646572000000006044820152606401610b24565b60005b8181146111455761113d8c8b8b8b8b8681811061111857611118613302565b905060200201358a8a8781811061113157611131613302565b90506020020135612466565b6001016110f9565b508773ffffffffffffffffffffffffffffffffffffffff168973ffffffffffffffffffffffffffffffffffffffff168b73ffffffffffffffffffffffffffffffffffffffff167f4a39dc06d4c0dbc64b70af90fd698a233a518aa5d07e595d983b8c0526c8f7fb8a8a8a8a6040516111c09493929190613499565b60405180910390a473ffffffffffffffffffffffffffffffffffffffff88163b15611289576112898a8a8a8a8a8080602002602001604051908101604052809392919081815260200183836020028082843760009201919091525050604080516020808e0282810182019093528d82529093508d92508c91829185019084908082843760009201919091525050604080516020601f8d018190048102820181019092528b815292508b91508a908190840183828082843760009201919091525061218c92505050565b5050505050505050505050565b60008061043e60017fc9ed16f33ab3a66c84bfd83099ccb2a8845871e2e1c1928f63797152f0fd54cd613283565b815473ffffffffffffffffffffffffffffffffffffffff828116911614610764576040517f08c379a000000000000000000000000000000000000000000000000000000000815260206004820152601860248201527f4f776e6572736869703a206e6f7420746865206f776e657200000000000000006044820152606401610b24565b60008381526020858152604080832073ffffffffffffffffffffffffffffffffffffffff8616845290915290205460ff166114185760008381526020858152604080832073ffffffffffffffffffffffffffffffffffffffff8681168086529184529382902080547fffffffffffffffffffffffffffffffffffffffffffffffffffffffffffffff00166001179055815187815292830152918316918101919091527f2f8788117e7eff1d82e926ec794901d17c78024a50270940304540a733656f0d906060015b60405180910390a15b50505050565b3660006105d461261a565b81518151606091908114611499576040517f08c379a000000000000000000000000000000000000000000000000000000000815260206004820152601c60248201527f455243313135353a20696e636f6e73697374656e7420617272617973000000006044820152606401610b24565b835167ffffffffffffffff8111156114b3576114b36134cb565b6040519080825280602002602001820160405280156114dc578160200160208202803683370190505b50915060005b818114611555576115308582815181106114fe576114fe613302565b602002602001015185838151811061151857611518613302565b602002602001015188610aa99092919063ffffffff16565b83828151811061154257611542613302565b60209081029190910101526001016114e2565b50509392505050565b606081600001805461156f90613356565b80601f016020809104026020016040519081016040528092919081815260200182805461159b90613356565b80156115e85780601f106115bd576101008083540402835291602001916115e8565b820191906000526020600020905b8154815290600101906020018083116115cb57829003601f168201915b50505050509050919050565b73ffffffffffffffffffffffffffffffffffffffff8416611671576040517f08c379a000000000000000000000000000000000000000000000000000000000815260206004820152601b60248201527f455243313135353a206d696e7420746f206164647265737328302900000000006044820152606401610b24565b61167d868585856120b8565b604080518481526020810184905273ffffffffffffffffffffffffffffffffffffffff80871692600092918916917fc3d58168c5ae7397731d063d5bbf3d657854427343f4c083240f7aacaa2d0f62910160405180910390a473ffffffffffffffffffffffffffffffffffffffff84163b156107005761070085600086868686612625565b8161170d8282613540565b507f04b1dc5c136a3ce9fded8db0ce3d3366c58764ec3a8e4c2b9e52e4ddfe5ebbf78160405161173d9190612e04565b60405180910390a15050565b611754838284610ca2565b60008181526020848152604080832073ffffffffffffffffffffffffffffffffffffffff86168085529083529281902080547fffffffffffffffffffffffffffffffffffffffffffffffffffffffffffffff0016905580518481529182018390528101919091527ff6391f5c32d9c69d2a47ea670b442974b53935d1edc7fd64eb21e047a839171b9060600160405180910390a1505050565b8273ffffffffffffffffffffffffffffffffffffffff168273ffffffffffffffffffffffffffffffffffffffff1603611882576040517f08c379a000000000000000000000000000000000000000000000000000000000815260206004820152601e60248201527f455243313135353a2073656c662d617070726f76616c20666f7220616c6c00006044820152606401610b24565b73ffffffffffffffffffffffffffffffffffffffff838116600081815260018701602090815260408083209487168084529482529182902080547fffffffffffffffffffffffffffffffffffffffffffffffffffffffffffffff001686151590811790915591519182527f17307eab39ab6107e8899845ad3d59bd9653f200f220920489ca2b5937696c31910160405180910390a350505050565b60008381526020858152604080832073ffffffffffffffffffffffffffffffffffffffff8616845290915290205460ff16156114185760008381526020858152604080832073ffffffffffffffffffffffffffffffffffffffff8681168086529184529382902080547fffffffffffffffffffffffffffffffffffffffffffffffffffffffffffffff00169055815187815292830152918316918101919091527ff6391f5c32d9c69d2a47ea670b442974b53935d1edc7fd64eb21e047a839171b9060600161140f565b611a1c611a1560017f5b388d90dc1312ba799f321972f13311234fa1163bcabec7cf66101c4876eb84613283565b6001612681565b61076482826126f1565b6108657fd9b67a26000000000000000000000000000000000000000000000000000000006001611a54610b62565b91906127a7565b6108657f5190c92c000000000000000000000000000000000000000000000000000000006001611a54610b62565b8351835181148015611a9b5750825181145b611b01576040517f08c379a000000000000000000000000000000000000000000000000000000000815260206004820152601c60248201527f455243313135353a20696e636f6e73697374656e7420617272617973000000006044820152606401610b24565b60005b81811461054957611b7187878381518110611b2157611b21613302565b6020026020010151878481518110611b3b57611b3b613302565b6020026020010151878581518110611b5557611b55613302565b6020026020010151878d6115f49095949392919063ffffffff16565b600101611b04565b73ffffffffffffffffffffffffffffffffffffffff8516611bf6576040517f08c379a000000000000000000000000000000000000000000000000000000000815260206004820152601f60248201527f455243313135353a207472616e7366657220746f2061646472657373283029006044820152606401610b24565b611c018887896123f1565b611c67576040517f08c379a000000000000000000000000000000000000000000000000000000000815260206004820152601c60248201527f455243313135353a206e6f6e2d617070726f7665642073656e646572000000006044820152606401610b24565b611c748887878787612466565b8473ffffffffffffffffffffffffffffffffffffffff168673ffffffffffffffffffffffffffffffffffffffff168873ffffffffffffffffffffffffffffffffffffffff167fc3d58168c5ae7397731d063d5bbf3d657854427343f4c083240f7aacaa2d0f628787604051611cf3929190918252602082015260400190565b60405180910390a473ffffffffffffffffffffffffffffffffffffffff85163b1561054957610549878787878787878080601f01602080910402602001604051908101604052809392919081815260200183838082843760009201919091525061262592505050565b825473ffffffffffffffffffffffffffffffffffffffff9081169083168114611de1576040517f08c379a000000000000000000000000000000000000000000000000000000000815260206004820152601860248201527f4f776e6572736869703a206e6f7420746865206f776e657200000000000000006044820152606401610b24565b8173ffffffffffffffffffffffffffffffffffffffff168173ffffffffffffffffffffffffffffffffffffffff16146114185783547fffffffffffffffffffffffff00000000000000000000000000000000000000001673ffffffffffffffffffffffffffffffffffffffff8381169182178655604051908316907f8be0079c531659141344cd1fd0a4f28419497f9722a3daafe3b4186f6b6457e090600090a350505050565b6108657fe8ab9ccc000000000000000000000000000000000000000000000000000000006001611a54610b62565b6108657f0e89341c000000000000000000000000000000000000000000000000000000006001611a54610b62565b611f12611a1560017f4906b284a41a4863b44f418156dc67ff218ba42abca1a1c41f180669c98a302f613283565b61076482826128b3565b60006106716128bd565b60606000829003611f4557505060408051602081019091526000815290565b600082604051602001611f5a91815260200190565b604080517fffffffffffffffffffffffffffffffffffffffffffffffffffffffffffffffe08184030181529190529050601f5b818181518110611f9f57611f9f613302565b01602001517fff0000000000000000000000000000000000000000000000000000000000000016600003611ff4577fffffffffffffffffffffffffffffffffffffffffffffffffffffffffffffffff01611f8d565b60008160010167ffffffffffffffff811115612012576120126134cb565b6040519080825280601f01601f19166020018201604052801561203c576020820181803683370190505b50905060005b8281116120af5783818151811061205b5761205b613302565b602001015160f81c60f81b82828151811061207857612078613302565b60200101907effffffffffffffffffffffffffffffffffffffffffffffffffffffffffffff1916908160001a905350600101612042565b50949350505050565b80156114185760008281526020858152604080832073ffffffffffffffffffffffffffffffffffffffff87168452909152902054818101818111612158576040517f08c379a000000000000000000000000000000000000000000000000000000000815260206004820152601960248201527f455243313135353a2062616c616e6365206f766572666c6f77000000000000006044820152606401610b24565b60009384526020958652604080852073ffffffffffffffffffffffffffffffffffffffff9690961685529490955250502055565b6040517fbc197c81000000000000000000000000000000000000000000000000000000008082529073ffffffffffffffffffffffffffffffffffffffff86169063bc197c81906121e8908a908a9089908990899060040161365a565b6020604051808303816000875af1158015612207573d6000803e3d6000fd5b505050506040513d601f19601f8201168201806040525081019061222b91906136c5565b7fffffffff000000000000000000000000000000000000000000000000000000001614610700576040517f08c379a000000000000000000000000000000000000000000000000000000000815260206004820152601a60248201527f455243313135353a207472616e736665722072656a65637465640000000000006044820152606401610b24565b6060816000036122f757505060408051808201909152600181527f3000000000000000000000000000000000000000000000000000000000000000602082015290565b8160005b8115612321578061230b816136e2565b915061231a9050600a83613749565b91506122fb565b60008167ffffffffffffffff81111561233c5761233c6134cb565b6040519080825280601f01601f191660200182016040528015612366576020820181803683370190505b5090505b84156123e95761237b600183613283565b9150612388600a8661375d565b612393906030613771565b60f81b8183815181106123a8576123a8613302565b60200101907effffffffffffffffffffffffffffffffffffffffffffffffffffffffffffff1916908160001a9053506123e2600a86613749565b945061236a565b949350505050565b60008173ffffffffffffffffffffffffffffffffffffffff168373ffffffffffffffffffffffffffffffffffffffff1614806123e957505073ffffffffffffffffffffffffffffffffffffffff9182166000908152600193909301602090815260408085209290931684525290205460ff1690565b80156126135760008281526020868152604080832073ffffffffffffffffffffffffffffffffffffffff88168452909152902054818103818110612506576040517f08c379a000000000000000000000000000000000000000000000000000000000815260206004820152601d60248201527f455243313135353a20696e73756666696369656e742062616c616e63650000006044820152606401610b24565b8473ffffffffffffffffffffffffffffffffffffffff168673ffffffffffffffffffffffffffffffffffffffff1614610f335760008481526020888152604080832073ffffffffffffffffffffffffffffffffffffffff891684529091529020548381018181116125d3576040517f08c379a000000000000000000000000000000000000000000000000000000000815260206004820152601960248201527f455243313135353a2062616c616e6365206f766572666c6f77000000000000006044820152606401610b24565b600086815260208a8152604080832073ffffffffffffffffffffffffffffffffffffffff808d1685528184528285208890558b1684529091529020555050505b5050505050565b3660006105d4612a04565b6040517ff23a6e61000000000000000000000000000000000000000000000000000000008082529073ffffffffffffffffffffffffffffffffffffffff86169063f23a6e61906121e8908a908a90899089908990600401613784565b8154829082116126ed576040517f08c379a000000000000000000000000000000000000000000000000000000000815260206004820152601660248201527f53746f726167653a2070686173652072656163686564000000000000000000006044820152606401610b24565b5550565b73ffffffffffffffffffffffffffffffffffffffff8116156127795781547fffffffffffffffffffffffff00000000000000000000000000000000000000001673ffffffffffffffffffffffffffffffffffffffff821690811783556040516000907f8be0079c531659141344cd1fd0a4f28419497f9722a3daafe3b4186f6b6457e0908290a35b6107647f7f5828d0000000000000000000000000000000000000000000000000000000006001611a54610b62565b7c01000000000000000000000000000000000000000000000000000000007fffffffff0000000000000000000000000000000000000000000000000000000083160161284f576040517f08c379a000000000000000000000000000000000000000000000000000000000815260206004820152601f60248201527f496e74657266616365446574656374696f6e3a2077726f6e672076616c7565006044820152606401610b24565b7fffffffff00000000000000000000000000000000000000000000000000000000919091166000908152602092909252604090912080547fffffffffffffffffffffffffffffffffffffffffffffffffffffffffffffff0016911515919091179055565b6107648282611702565b6000333214806128cd5750601836105b156128d757503390565b7fffffffffffffffffffffffffffffffffffffffffffffffffffffffffffffffec36013560601c7f000000000000000000000000000000000000000000000000000000000000000073ffffffffffffffffffffffffffffffffffffffff163314806129f357506040517f8929a8ca00000000000000000000000000000000000000000000000000000000815273ffffffffffffffffffffffffffffffffffffffff82811660048301523360248301527f00000000000000000000000000000000000000000000000000000000000000001690638929a8ca90604401602060405180830381865afa1580156129cf573d6000803e3d6000fd5b505050506040513d601f19601f820116820180604052508101906129f391906137c9565b156129fd57919050565b3391505090565b36600033321480612a155750601836105b15612a235750600091369150565b3373ffffffffffffffffffffffffffffffffffffffff7f0000000000000000000000000000000000000000000000000000000000000000161480612b58575073ffffffffffffffffffffffffffffffffffffffff7f000000000000000000000000000000000000000000000000000000000000000016638929a8ca367fffffffffffffffffffffffffffffffffffffffffffffffffffffffffffffffec013560601c6040517fffffffff0000000000000000000000000000000000000000000000000000000060e084901b16815273ffffffffffffffffffffffffffffffffffffffff9091166004820152336024820152604401602060405180830381865afa158015612b34573d6000803e3d6000fd5b505050506040513d601f19601f82011682018060405250810190612b5891906137c9565b15612b65576105d4612b6e565b50600091369150565b3660006105d47fffffffffffffffffffffffffffffffffffffffffffffffffffffffffffffffec83018284816137e6565b803573ffffffffffffffffffffffffffffffffffffffff81168114612bc357600080fd5b919050565b60008060408385031215612bdb57600080fd5b612be483612b9f565b946020939093013593505050565b7fffffffff000000000000000000000000000000000000000000000000000000008116811461078357600080fd5b600060208284031215612c3257600080fd5b8135612c3d81612bf2565b9392505050565b60008083601f840112612c5657600080fd5b50813567ffffffffffffffff811115612c6e57600080fd5b6020830191508360208260051b8501011115612c8957600080fd5b9250929050565b60008083601f840112612ca257600080fd5b50813567ffffffffffffffff811115612cba57600080fd5b602083019150836020828501011115612c8957600080fd5b60008060008060008060006080888a031215612ced57600080fd5b612cf688612b9f565b9650602088013567ffffffffffffffff80821115612d1357600080fd5b612d1f8b838c01612c44565b909850965060408a0135915080821115612d3857600080fd5b612d448b838c01612c44565b909650945060608a0135915080821115612d5d57600080fd5b50612d6a8a828b01612c90565b989b979a50959850939692959293505050565b600060208284031215612d8f57600080fd5b5035919050565b60005b83811015612db1578181015183820152602001612d99565b50506000910152565b60008151808452612dd2816020860160208601612d96565b601f017fffffffffffffffffffffffffffffffffffffffffffffffffffffffffffffffe0169290920160200192915050565b60208152600061043b6020830184612dba565b60008060008060008060008060a0898b031215612e3357600080fd5b612e3c89612b9f565b9750612e4a60208a01612b9f565b9650604089013567ffffffffffffffff80821115612e6757600080fd5b612e738c838d01612c44565b909850965060608b0135915080821115612e8c57600080fd5b612e988c838d01612c44565b909650945060808b0135915080821115612eb157600080fd5b50612ebe8b828c01612c90565b999c989b5096995094979396929594505050565b60008060408385031215612ee557600080fd5b82359150612ef560208401612b9f565b90509250929050565b60208152816020820152818360408301376000818301604090810191909152601f9092017fffffffffffffffffffffffffffffffffffffffffffffffffffffffffffffffe0160101919050565b60008060008060408587031215612f6157600080fd5b843567ffffffffffffffff80821115612f7957600080fd5b612f8588838901612c44565b90965094506020870135915080821115612f9e57600080fd5b50612fab87828801612c44565b95989497509550505050565b600081518084526020808501945080840160005b83811015612fe757815187529582019590820190600101612fcb565b509495945050505050565b60208152600061043b6020830184612fb7565b60006020828403121561301757600080fd5b61043b82612b9f565b60008060008060006080868803121561303857600080fd5b61304186612b9f565b94506020860135935060408601359250606086013567ffffffffffffffff81111561306b57600080fd5b61307788828901612c90565b969995985093965092949392505050565b6000806020838503121561309b57600080fd5b823567ffffffffffffffff8111156130b257600080fd5b6130be85828601612c90565b90969095509350505050565b801515811461078357600080fd5b600080604083850312156130eb57600080fd5b6130f483612b9f565b91506020830135613104816130ca565b809150509250929050565b6000806000806000806000806080898b03121561312b57600080fd5b883567ffffffffffffffff8082111561314357600080fd5b61314f8c838d01612c44565b909a50985060208b013591508082111561316857600080fd5b6131748c838d01612c44565b909850965060408b013591508082111561318d57600080fd5b6131998c838d01612c44565b909650945060608b0135915080821115612eb157600080fd5b600080604083850312156131c557600080fd5b6131ce83612b9f565b9150612ef560208401612b9f565b60008060008060008060a087890312156131f557600080fd5b6131fe87612b9f565b955061320c60208801612b9f565b94506040870135935060608701359250608087013567ffffffffffffffff81111561323657600080fd5b61324289828a01612c90565b979a9699509497509295939492505050565b7f4e487b7100000000000000000000000000000000000000000000000000000000600052601160045260246000fd5b8181038181111561043e5761043e613254565b7f416363657373436f6e74726f6c3a206d697373696e67202700000000000000008152600082516132ce816018850160208701612d96565b7f2720726f6c6500000000000000000000000000000000000000000000000000006018939091019283015250601e01919050565b7f4e487b7100000000000000000000000000000000000000000000000000000000600052603260045260246000fd5b6040815260006133446040830185612fb7565b82810360208401526106568185612fb7565b600181811c9082168061336a57607f821691505b6020821081036133a3577f4e487b7100000000000000000000000000000000000000000000000000000000600052602260045260246000fd5b50919050565b60008084546133b781613356565b600182811680156133cf576001811461340257613431565b7fffffffffffffffffffffffffffffffffffffffffffffffffffffffffffffff0084168752821515830287019450613431565b8860005260208060002060005b858110156134285781548a82015290840190820161340f565b50505082870194505b505050508351613445818360208801612d96565b01949350505050565b81835260007f07ffffffffffffffffffffffffffffffffffffffffffffffffffffffffffffff83111561348057600080fd5b8260051b80836020870137939093016020019392505050565b6040815260006134ad60408301868861344e565b82810360208401526134c081858761344e565b979650505050505050565b7f4e487b7100000000000000000000000000000000000000000000000000000000600052604160045260246000fd5b601f8211156105c457600081815260208120601f850160051c810160208610156135215750805b601f850160051c820191505b818110156107005782815560010161352d565b815167ffffffffffffffff81111561355a5761355a6134cb565b61356e816135688454613356565b846134fa565b602080601f8311600181146135c1576000841561358b5750858301515b7fffffffffffffffffffffffffffffffffffffffffffffffffffffffffffffffff600386901b1c1916600185901b178555610700565b6000858152602081207fffffffffffffffffffffffffffffffffffffffffffffffffffffffffffffffe08616915b8281101561360e578886015182559484019460019091019084016135ef565b508582101561364a57878501517fffffffffffffffffffffffffffffffffffffffffffffffffffffffffffffffff600388901b60f8161c191681555b5050505050600190811b01905550565b600073ffffffffffffffffffffffffffffffffffffffff808816835280871660208401525060a0604083015261369360a0830186612fb7565b82810360608401526136a58186612fb7565b905082810360808401526136b98185612dba565b98975050505050505050565b6000602082840312156136d757600080fd5b8151612c3d81612bf2565b60007fffffffffffffffffffffffffffffffffffffffffffffffffffffffffffffffff820361371357613713613254565b5060010190565b7f4e487b7100000000000000000000000000000000000000000000000000000000600052601260045260246000fd5b6000826137585761375861371a565b500490565b60008261376c5761376c61371a565b500690565b8082018082111561043e5761043e613254565b600073ffffffffffffffffffffffffffffffffffffffff808816835280871660208401525084604083015283606083015260a060808301526134c060a0830184612dba565b6000602082840312156137db57600080fd5b8151612c3d816130ca565b600080858511156137f657600080fd5b8386111561380357600080fd5b505082019391909203915056fea26469706673582212204b995787fd81dc8260871b5a78fc786d98cb1cc366cb4b0d8a722868c01d49ce64736f6c63430008110033",
  "linkReferences": {},
  "deployedLinkReferences": {}
}