{
  "_format": "hh-sol-artifact-1",
  "contractName": "ERC1155ProxiedMock",
  "sourceName": "contracts/mocks/token/ERC1155/proxied/ERC1155ProxiedMock.sol",
  "abi": [
    {
      "inputs": [
        {
          "internalType": "contract IForwarderRegistry",
          "name": "forwarderRegistry",
          "type": "address"
        }
      ],
      "stateMutability": "nonpayable",
      "type": "constructor"
    },
    {
      "anonymous": false,
      "inputs": [
        {
          "indexed": true,
          "internalType": "address",
          "name": "owner",
          "type": "address"
        },
        {
          "indexed": true,
          "internalType": "address",
          "name": "operator",
          "type": "address"
        },
        {
          "indexed": false,
          "internalType": "bool",
          "name": "approved",
          "type": "bool"
        }
      ],
      "name": "ApprovalForAll",
      "type": "event"
    },
    {
      "anonymous": false,
      "inputs": [
        {
          "indexed": false,
          "internalType": "string",
          "name": "baseMetadataURI",
          "type": "string"
        }
      ],
      "name": "BaseMetadataURISet",
      "type": "event"
    },
    {
      "anonymous": false,
      "inputs": [
        {
          "indexed": true,
          "internalType": "address",
          "name": "previousOwner",
          "type": "address"
        },
        {
          "indexed": true,
          "internalType": "address",
          "name": "newOwner",
          "type": "address"
        }
      ],
      "name": "OwnershipTransferred",
      "type": "event"
    },
    {
      "anonymous": false,
      "inputs": [
        {
          "indexed": false,
          "internalType": "bytes32",
          "name": "role",
          "type": "bytes32"
        },
        {
          "indexed": false,
          "internalType": "address",
          "name": "account",
          "type": "address"
        },
        {
          "indexed": false,
          "internalType": "address",
          "name": "operator",
          "type": "address"
        }
      ],
      "name": "RoleGranted",
      "type": "event"
    },
    {
      "anonymous": false,
      "inputs": [
        {
          "indexed": false,
          "internalType": "bytes32",
          "name": "role",
          "type": "bytes32"
        },
        {
          "indexed": false,
          "internalType": "address",
          "name": "account",
          "type": "address"
        },
        {
          "indexed": false,
          "internalType": "address",
          "name": "operator",
          "type": "address"
        }
      ],
      "name": "RoleRevoked",
      "type": "event"
    },
    {
      "anonymous": false,
      "inputs": [
        {
          "indexed": true,
          "internalType": "address",
          "name": "operator",
          "type": "address"
        },
        {
          "indexed": true,
          "internalType": "address",
          "name": "from",
          "type": "address"
        },
        {
          "indexed": true,
          "internalType": "address",
          "name": "to",
          "type": "address"
        },
        {
          "indexed": false,
          "internalType": "uint256[]",
          "name": "ids",
          "type": "uint256[]"
        },
        {
          "indexed": false,
          "internalType": "uint256[]",
          "name": "values",
          "type": "uint256[]"
        }
      ],
      "name": "TransferBatch",
      "type": "event"
    },
    {
      "anonymous": false,
      "inputs": [
        {
          "indexed": true,
          "internalType": "address",
          "name": "operator",
          "type": "address"
        },
        {
          "indexed": true,
          "internalType": "address",
          "name": "from",
          "type": "address"
        },
        {
          "indexed": true,
          "internalType": "address",
          "name": "to",
          "type": "address"
        },
        {
          "indexed": false,
          "internalType": "uint256",
          "name": "id",
          "type": "uint256"
        },
        {
          "indexed": false,
          "internalType": "uint256",
          "name": "value",
          "type": "uint256"
        }
      ],
      "name": "TransferSingle",
      "type": "event"
    },
    {
      "anonymous": false,
      "inputs": [
        {
          "indexed": false,
          "internalType": "string",
          "name": "value",
          "type": "string"
        },
        {
          "indexed": true,
          "internalType": "uint256",
          "name": "id",
          "type": "uint256"
        }
      ],
      "name": "URI",
      "type": "event"
    },
    {
      "inputs": [],
      "name": "MINTER_ROLE",
      "outputs": [
        {
          "internalType": "bytes32",
          "name": "",
          "type": "bytes32"
        }
      ],
      "stateMutability": "view",
      "type": "function"
    },
    {
      "inputs": [],
      "name": "__msgData",
      "outputs": [
        {
          "internalType": "bytes",
          "name": "",
          "type": "bytes"
        }
      ],
      "stateMutability": "view",
      "type": "function"
    },
    {
      "inputs": [
        {
          "internalType": "address",
          "name": "owner",
          "type": "address"
        },
        {
          "internalType": "uint256",
          "name": "id",
          "type": "uint256"
        }
      ],
      "name": "balanceOf",
      "outputs": [
        {
          "internalType": "uint256",
          "name": "balance",
          "type": "uint256"
        }
      ],
      "stateMutability": "view",
      "type": "function"
    },
    {
      "inputs": [
        {
          "internalType": "address[]",
          "name": "owners",
          "type": "address[]"
        },
        {
          "internalType": "uint256[]",
          "name": "ids",
          "type": "uint256[]"
        }
      ],
      "name": "balanceOfBatch",
      "outputs": [
        {
          "internalType": "uint256[]",
          "name": "balances",
          "type": "uint256[]"
        }
      ],
      "stateMutability": "view",
      "type": "function"
    },
    {
      "inputs": [],
      "name": "baseMetadataURI",
      "outputs": [
        {
          "internalType": "string",
          "name": "baseURI",
          "type": "string"
        }
      ],
      "stateMutability": "view",
      "type": "function"
    },
    {
      "inputs": [],
      "name": "forwarderRegistry",
      "outputs": [
        {
          "internalType": "contract IForwarderRegistry",
          "name": "",
          "type": "address"
        }
      ],
      "stateMutability": "view",
      "type": "function"
    },
    {
      "inputs": [
        {
          "internalType": "bytes32",
          "name": "role",
          "type": "bytes32"
        },
        {
          "internalType": "address",
          "name": "account",
          "type": "address"
        }
      ],
      "name": "grantRole",
      "outputs": [],
      "stateMutability": "nonpayable",
      "type": "function"
    },
    {
      "inputs": [
        {
          "internalType": "bytes32",
          "name": "role",
          "type": "bytes32"
        },
        {
          "internalType": "address",
          "name": "account",
          "type": "address"
        }
      ],
      "name": "hasRole",
      "outputs": [
        {
          "internalType": "bool",
          "name": "",
          "type": "bool"
        }
      ],
      "stateMutability": "view",
      "type": "function"
    },
    {
      "inputs": [],
      "name": "init",
      "outputs": [],
      "stateMutability": "nonpayable",
      "type": "function"
    },
    {
      "inputs": [
        {
          "internalType": "string",
          "name": "baseMetadataURI",
          "type": "string"
        }
      ],
      "name": "init",
      "outputs": [],
      "stateMutability": "nonpayable",
      "type": "function"
    },
    {
      "inputs": [
        {
          "internalType": "address",
          "name": "owner",
          "type": "address"
        },
        {
          "internalType": "address",
          "name": "operator",
          "type": "address"
        }
      ],
      "name": "isApprovedForAll",
      "outputs": [
        {
          "internalType": "bool",
          "name": "approvedForAll",
          "type": "bool"
        }
      ],
      "stateMutability": "view",
      "type": "function"
    },
    {
      "inputs": [
        {
          "internalType": "address",
          "name": "forwarder",
          "type": "address"
        }
      ],
      "name": "isTrustedForwarder",
      "outputs": [
        {
          "internalType": "bool",
          "name": "",
          "type": "bool"
        }
      ],
      "stateMutability": "view",
      "type": "function"
    },
    {
      "inputs": [],
      "name": "owner",
      "outputs": [
        {
          "internalType": "address",
          "name": "",
          "type": "address"
        }
      ],
      "stateMutability": "view",
      "type": "function"
    },
    {
      "inputs": [
        {
          "internalType": "bytes32",
          "name": "role",
          "type": "bytes32"
        }
      ],
      "name": "renounceRole",
      "outputs": [],
      "stateMutability": "nonpayable",
      "type": "function"
    },
    {
      "inputs": [
        {
          "internalType": "bytes32",
          "name": "role",
          "type": "bytes32"
        },
        {
          "internalType": "address",
          "name": "account",
          "type": "address"
        }
      ],
      "name": "revokeRole",
      "outputs": [],
      "stateMutability": "nonpayable",
      "type": "function"
    },
    {
      "inputs": [
        {
          "internalType": "address",
          "name": "to",
          "type": "address"
        },
        {
          "internalType": "uint256[]",
          "name": "ids",
          "type": "uint256[]"
        },
        {
          "internalType": "uint256[]",
          "name": "values",
          "type": "uint256[]"
        },
        {
          "internalType": "bytes",
          "name": "data",
          "type": "bytes"
        }
      ],
      "name": "safeBatchMint",
      "outputs": [],
      "stateMutability": "nonpayable",
      "type": "function"
    },
    {
      "inputs": [
        {
          "internalType": "address",
          "name": "from",
          "type": "address"
        },
        {
          "internalType": "address",
          "name": "to",
          "type": "address"
        },
        {
          "internalType": "uint256[]",
          "name": "ids",
          "type": "uint256[]"
        },
        {
          "internalType": "uint256[]",
          "name": "values",
          "type": "uint256[]"
        },
        {
          "internalType": "bytes",
          "name": "data",
          "type": "bytes"
        }
      ],
      "name": "safeBatchTransferFrom",
      "outputs": [],
      "stateMutability": "nonpayable",
      "type": "function"
    },
    {
      "inputs": [
        {
          "internalType": "address[]",
          "name": "recipients",
          "type": "address[]"
        },
        {
          "internalType": "uint256[]",
          "name": "ids",
          "type": "uint256[]"
        },
        {
          "internalType": "uint256[]",
          "name": "values",
          "type": "uint256[]"
        },
        {
          "internalType": "bytes",
          "name": "data",
          "type": "bytes"
        }
      ],
      "name": "safeDeliver",
      "outputs": [],
      "stateMutability": "nonpayable",
      "type": "function"
    },
    {
      "inputs": [
        {
          "internalType": "address",
          "name": "to",
          "type": "address"
        },
        {
          "internalType": "uint256",
          "name": "id",
          "type": "uint256"
        },
        {
          "internalType": "uint256",
          "name": "value",
          "type": "uint256"
        },
        {
          "internalType": "bytes",
          "name": "data",
          "type": "bytes"
        }
      ],
      "name": "safeMint",
      "outputs": [],
      "stateMutability": "nonpayable",
      "type": "function"
    },
    {
      "inputs": [
        {
          "internalType": "address",
          "name": "from",
          "type": "address"
        },
        {
          "internalType": "address",
          "name": "to",
          "type": "address"
        },
        {
          "internalType": "uint256",
          "name": "id",
          "type": "uint256"
        },
        {
          "internalType": "uint256",
          "name": "value",
          "type": "uint256"
        },
        {
          "internalType": "bytes",
          "name": "data",
          "type": "bytes"
        }
      ],
      "name": "safeTransferFrom",
      "outputs": [],
      "stateMutability": "nonpayable",
      "type": "function"
    },
    {
      "inputs": [
        {
          "internalType": "address",
          "name": "operator",
          "type": "address"
        },
        {
          "internalType": "bool",
          "name": "approved",
          "type": "bool"
        }
      ],
      "name": "setApprovalForAll",
      "outputs": [],
      "stateMutability": "nonpayable",
      "type": "function"
    },
    {
      "inputs": [
        {
          "internalType": "string",
          "name": "baseURI",
          "type": "string"
        }
      ],
      "name": "setBaseMetadataURI",
      "outputs": [],
      "stateMutability": "nonpayable",
      "type": "function"
    },
    {
      "inputs": [
        {
          "internalType": "bytes4",
          "name": "interfaceId",
          "type": "bytes4"
        }
      ],
      "name": "supportsInterface",
      "outputs": [
        {
          "internalType": "bool",
          "name": "",
          "type": "bool"
        }
      ],
      "stateMutability": "view",
      "type": "function"
    },
    {
      "inputs": [
        {
          "internalType": "address",
          "name": "newOwner",
          "type": "address"
        }
      ],
      "name": "transferOwnership",
      "outputs": [],
      "stateMutability": "nonpayable",
      "type": "function"
    },
    {
      "inputs": [
        {
          "internalType": "uint256",
          "name": "id",
          "type": "uint256"
        }
      ],
      "name": "uri",
      "outputs": [
        {
          "internalType": "string",
          "name": "metadataURI",
          "type": "string"
        }
      ],
      "stateMutability": "view",
      "type": "function"
    }
  ],
  "bytecode": "0x60a06040523480156200001157600080fd5b50604051620038a1380380620038a1833981016040819052620000349162000046565b6001600160a01b031660805262000078565b6000602082840312156200005957600080fd5b81516001600160a01b03811681146200007157600080fd5b9392505050565b6080516137ea620000b760003960008181610227015281816102d8015281816128ec0152818161298c01528181612a200152612a8a01526137ea6000f3fe608060405234801561001057600080fd5b50600436106101a25760003560e01c80637e518ec8116100ee578063d547741f11610097578063e985e9c511610071578063e985e9c5146103d9578063f242432a146103ec578063f2fde38b146103ff578063f9fbdb9e1461041257600080fd5b8063d547741f146103ab578063e1c7392a146103be578063e8ab9ccc146103c657600080fd5b806391d14854116100c857806391d148541461035e578063a22cb46514610371578063d53913931461038457600080fd5b80637e518ec8146103305780638bb9c5bf146103435780638da5cb5b1461035657600080fd5b80632f2ff15d11610150578063572b6c051161012a578063572b6c05146102c85780635b2bd79e146103155780635cfa92971461031d57600080fd5b80632f2ff15d1461027f57806331e66e1e146102925780634e1273f4146102a857600080fd5b80630e89341c116101815780630e89341c146102055780632b4c9f16146102255780632eb2c2d61461026c57600080fd5b8062fdd58e146101a757806301ffc9a7146101cd5780630d6a5bbb146101f0575b600080fd5b6101ba6101b5366004612bd3565b610425565b6040519081526020015b60405180910390f35b6101e06101db366004612c2b565b610444565b60405190151581526020016101c4565b6102036101fe366004612cdd565b610458565b005b610218610213366004612d88565b610553565b6040516101c49190612e17565b7f00000000000000000000000000000000000000000000000000000000000000005b60405173ffffffffffffffffffffffffffffffffffffffff90911681526020016101c4565b61020361027a366004612e2a565b610567565b61020361028d366004612ee5565b610621565b61029a61065a565b6040516101c4929190612f11565b6102bb6102b6366004612f5e565b61066d565b6040516101c49190613005565b6101e06102d6366004613018565b7f000000000000000000000000000000000000000000000000000000000000000073ffffffffffffffffffffffffffffffffffffffff90811691161490565b6102186106f0565b61020361032b366004613033565b610707565b61020361033e36600461309b565b610799565b610203610351366004612d88565b6107f9565b610247610817565b6101e061036c366004612ee5565b61083e565b61020361037f3660046130eb565b610882565b6101ba7f6d696e746572000000000000000000000000000000000000000000000000000081565b6102036103b9366004612ee5565b61089f565b6102036108cd565b6102036103d4366004613122565b6108f8565b6101e06103e73660046131c5565b610a1d565b6102036103fa3660046131ef565b610a6b565b61020361040d366004613018565b610ac5565b61020361042036600461309b565b610ae0565b600061043b8383610434610b41565b9190610b6f565b90505b92915050565b600061043e82610452610c28565b90610c56565b6000610462610d30565b90506104987f6d696e746572000000000000000000000000000000000000000000000000000082610491610d3a565b9190610d68565b610549818989898080602002602001604051908101604052809392919081815260200183836020028082843760009201919091525050604080516020808d0282810182019093528c82529093508c92508b91829185019084908082843760009201919091525050604080516020601f8c018190048102820181019092528a815292508a915089908190840183828082843760009201919091525061053f9250610b41915050565b9493929190610e14565b5050505050505050565b606061043e82610561611002565b90611030565b610549610572610d30565b898989898080602002602001604051908101604052809392919081815260200183836020028082843760009201919091525050604080516020808d0282810182019093528c82529093508c92508b91829185019084908082843760009201919091525050604080516020601f8c018190048102820181019092528a815292508a91508990819084018382808284376000920191909152506106169250610b41915050565b959493929190611064565b600061062b610d30565b905061063f816106396112b9565b906112e7565b61065583838361064d610d3a565b92919061136a565b505050565b366000610665611441565b915091509091565b60606106e7858580806020026020016040519081016040528093929190818152602001838360200280828437600092019190915250506040805160208089028281018201909352888252909350889250879182918501908490808284376000920191909152506106e09250610b41915050565b919061144c565b95945050505050565b60606107026106fd611002565b611581565b905090565b6000610711610d30565b90506107407f6d696e746572000000000000000000000000000000000000000000000000000082610491610d3a565b6107918187878787878080601f0160208091040260200160405190810160405280939291908181526020018383808284376000920191909152506107879250610b41915050565b9493929190611617565b505050505050565b6107ac6107a4610d30565b6106396112b9565b6107f582828080601f0160208091040260200160405190810160405280939291908181526020018383808284376000920191909152506107ef9250611002915050565b90611725565b5050565b610814610804610d30565b8261080d610d3a565b919061176c565b50565b60006107026108246112b9565b5473ffffffffffffffffffffffffffffffffffffffff1690565b600061043b838361084d610d3a565b60009283526020908152604080842073ffffffffffffffffffffffffffffffffffffffff909316845291905290205460ff1690565b6107f561088d610d30565b8383610897610b41565b929190611810565b60006108a9610d30565b90506108b7816106396112b9565b6106558383836108c5610d3a565b929190611940565b6108e66108d8610d30565b6108e06112b9565b90611a0a565b6108ee611a49565b6108f6611a7e565b565b6000610902610d30565b90506109317f6d696e746572000000000000000000000000000000000000000000000000000082610491610d3a565b610a12818a8a8080602002602001604051908101604052809392919081815260200183836020028082843760009201919091525050604080516020808e0282810182019093528d82529093508d92508c91829185019084908082843760009201919091525050604080516020808d0282810182019093528c82529093508c92508b91829185019084908082843760009201919091525050604080516020601f8c018190048102820181019092528a815292508a9150899081908401838280828437600092019190915250610a089250610b41915050565b9493929190611aac565b505050505050505050565b600061043b8383610a2c610b41565b919073ffffffffffffffffffffffffffffffffffffffff9182166000908152600193909301602090815260408085209290931684525290205460ff1690565b610791610a76610d30565b8787878787878080601f016020809104026020016040519081016040528093929190818152602001838380828437600092019190915250610aba9250610b41915050565b959493929190611b9c565b610814610ad0610d30565b82610ad96112b9565b9190611d49565b610ae86108cd565b610af0611e75565b610af8611ea3565b6107f582828080601f016020809104026020016040519081016040528093929190818152602001838380828437600092019190915250610b3b9250611002915050565b90611ed1565b60008061043e60017f5ccf5846fa27a68fafc8e588671a68f5e67c2f9b56af4263806a4d71735e8613613296565b600073ffffffffffffffffffffffffffffffffffffffff8316610bf3576040517f08c379a000000000000000000000000000000000000000000000000000000000815260206004820152601e60248201527f455243313135353a2062616c616e6365206f662061646472657373283029000060448201526064015b60405180910390fd5b5060009081526020928352604080822073ffffffffffffffffffffffffffffffffffffffff9390931682529190925290205490565b60008061043e60017fca9d3e17f264b0f3984e2634e94adb37fa3e6a8103f06aeae6fa59e21c769f5e613296565b60007c01000000000000000000000000000000000000000000000000000000007fffffffff00000000000000000000000000000000000000000000000000000000831601610ca65750600061043e565b7ffe003659000000000000000000000000000000000000000000000000000000007fffffffff00000000000000000000000000000000000000000000000000000000831601610cf75750600161043e565b507fffffffff00000000000000000000000000000000000000000000000000000000166000908152602091909152604090205460ff1690565b6000610702611f09565b60008061043e60017fc8827d3282af6f37b64c3e9e6f3ac9df286ab0bb0fccd6f8661bf19adb368b23613296565b60008281526020848152604080832073ffffffffffffffffffffffffffffffffffffffff8516845290915290205460ff1661065557610da682611f13565b604051602001610db691906132ad565b604080517fffffffffffffffffffffffffffffffffffffffffffffffffffffffffffffffe0818403018152908290527f08c379a0000000000000000000000000000000000000000000000000000000008252610bea91600401612e17565b73ffffffffffffffffffffffffffffffffffffffff8416610e91576040517f08c379a000000000000000000000000000000000000000000000000000000000815260206004820152601b60248201527f455243313135353a206d696e7420746f206164647265737328302900000000006044820152606401610bea565b825182518114610efd576040517f08c379a000000000000000000000000000000000000000000000000000000000815260206004820152601c60248201527f455243313135353a20696e636f6e73697374656e7420617272617973000000006044820152606401610bea565b60005b818114610f4d57610f458887878481518110610f1e57610f1e613319565b6020026020010151878581518110610f3857610f38613319565b60200260200101516120a5565b600101610f00565b508473ffffffffffffffffffffffffffffffffffffffff16600073ffffffffffffffffffffffffffffffffffffffff168773ffffffffffffffffffffffffffffffffffffffff167f4a39dc06d4c0dbc64b70af90fd698a233a518aa5d07e595d983b8c0526c8f7fb8787604051610fc5929190613348565b60405180910390a473ffffffffffffffffffffffffffffffffffffffff85163b15610ff957610ff986600087878787612179565b50505050505050565b60008061043e60017fe94434e3c6b941c5d90218142fadcc69cb2e13723993540bfa1c131dd1d3475a613296565b60608261103c836122a1565b60405160200161104d9291906133ba565b604051602081830303815290604052905092915050565b73ffffffffffffffffffffffffffffffffffffffff84166110e1576040517f08c379a000000000000000000000000000000000000000000000000000000000815260206004820152601f60248201527f455243313135353a207472616e7366657220746f2061646472657373283029006044820152606401610bea565b82518251811461114d576040517f08c379a000000000000000000000000000000000000000000000000000000000815260206004820152601c60248201527f455243313135353a20696e636f6e73697374656e7420617272617973000000006044820152606401610bea565b6111588887896123de565b6111be576040517f08c379a000000000000000000000000000000000000000000000000000000000815260206004820152601c60248201527f455243313135353a206e6f6e2d617070726f7665642073656e646572000000006044820152606401610bea565b60005b81811461120f576112078988888885815181106111e0576111e0613319565b60200260200101518886815181106111fa576111fa613319565b6020026020010151612453565b6001016111c1565b508473ffffffffffffffffffffffffffffffffffffffff168673ffffffffffffffffffffffffffffffffffffffff168873ffffffffffffffffffffffffffffffffffffffff167f4a39dc06d4c0dbc64b70af90fd698a233a518aa5d07e595d983b8c0526c8f7fb8787604051611286929190613348565b60405180910390a473ffffffffffffffffffffffffffffffffffffffff85163b1561054957610549878787878787612179565b60008061043e60017fc9ed16f33ab3a66c84bfd83099ccb2a8845871e2e1c1928f63797152f0fd54cd613296565b815473ffffffffffffffffffffffffffffffffffffffff8281169116146107f5576040517f08c379a000000000000000000000000000000000000000000000000000000000815260206004820152601860248201527f4f776e6572736869703a206e6f7420746865206f776e657200000000000000006044820152606401610bea565b60008381526020858152604080832073ffffffffffffffffffffffffffffffffffffffff8616845290915290205460ff1661143b5760008381526020858152604080832073ffffffffffffffffffffffffffffffffffffffff8681168086529184529382902080547fffffffffffffffffffffffffffffffffffffffffffffffffffffffffffffff00166001179055815187815292830152918316918101919091527f2f8788117e7eff1d82e926ec794901d17c78024a50270940304540a733656f0d906060015b60405180910390a15b50505050565b36600061066561260d565b815181516060919081146114bc576040517f08c379a000000000000000000000000000000000000000000000000000000000815260206004820152601c60248201527f455243313135353a20696e636f6e73697374656e7420617272617973000000006044820152606401610bea565b835167ffffffffffffffff8111156114d6576114d661345f565b6040519080825280602002602001820160405280156114ff578160200160208202803683370190505b50915060005b8181146115785761155385828151811061152157611521613319565b602002602001015185838151811061153b5761153b613319565b602002602001015188610b6f9092919063ffffffff16565b83828151811061156557611565613319565b6020908102919091010152600101611505565b50509392505050565b60608160000180546115929061336d565b80601f01602080910402602001604051908101604052809291908181526020018280546115be9061336d565b801561160b5780601f106115e05761010080835404028352916020019161160b565b820191906000526020600020905b8154815290600101906020018083116115ee57829003601f168201915b50505050509050919050565b73ffffffffffffffffffffffffffffffffffffffff8416611694576040517f08c379a000000000000000000000000000000000000000000000000000000000815260206004820152601b60248201527f455243313135353a206d696e7420746f206164647265737328302900000000006044820152606401610bea565b6116a0868585856120a5565b604080518481526020810184905273ffffffffffffffffffffffffffffffffffffffff80871692600092918916917fc3d58168c5ae7397731d063d5bbf3d657854427343f4c083240f7aacaa2d0f62910160405180910390a473ffffffffffffffffffffffffffffffffffffffff84163b156107915761079185600086868686612618565b8161173082826134d4565b507f04b1dc5c136a3ce9fded8db0ce3d3366c58764ec3a8e4c2b9e52e4ddfe5ebbf7816040516117609190612e17565b60405180910390a15050565b611777838284610d68565b60008181526020848152604080832073ffffffffffffffffffffffffffffffffffffffff86168085529083529281902080547fffffffffffffffffffffffffffffffffffffffffffffffffffffffffffffff0016905580518481529182018390528101919091527ff6391f5c32d9c69d2a47ea670b442974b53935d1edc7fd64eb21e047a839171b9060600160405180910390a1505050565b8273ffffffffffffffffffffffffffffffffffffffff168273ffffffffffffffffffffffffffffffffffffffff16036118a5576040517f08c379a000000000000000000000000000000000000000000000000000000000815260206004820152601e60248201527f455243313135353a2073656c662d617070726f76616c20666f7220616c6c00006044820152606401610bea565b73ffffffffffffffffffffffffffffffffffffffff838116600081815260018701602090815260408083209487168084529482529182902080547fffffffffffffffffffffffffffffffffffffffffffffffffffffffffffffff001686151590811790915591519182527f17307eab39ab6107e8899845ad3d59bd9653f200f220920489ca2b5937696c31910160405180910390a350505050565b60008381526020858152604080832073ffffffffffffffffffffffffffffffffffffffff8616845290915290205460ff161561143b5760008381526020858152604080832073ffffffffffffffffffffffffffffffffffffffff8681168086529184529382902080547fffffffffffffffffffffffffffffffffffffffffffffffffffffffffffffff00169055815187815292830152918316918101919091527ff6391f5c32d9c69d2a47ea670b442974b53935d1edc7fd64eb21e047a839171b90606001611432565b611a3f611a3860017f5b388d90dc1312ba799f321972f13311234fa1163bcabec7cf66101c4876eb84613296565b6001612674565b6107f582826126e4565b6108f67fd9b67a26000000000000000000000000000000000000000000000000000000006001611a77610c28565b919061279a565b6108f67f5190c92c000000000000000000000000000000000000000000000000000000006001611a77610c28565b8351835181148015611abe5750825181145b611b24576040517f08c379a000000000000000000000000000000000000000000000000000000000815260206004820152601c60248201527f455243313135353a20696e636f6e73697374656e7420617272617973000000006044820152606401610bea565b60005b81811461054957611b9487878381518110611b4457611b44613319565b6020026020010151878481518110611b5e57611b5e613319565b6020026020010151878581518110611b7857611b78613319565b6020026020010151878d6116179095949392919063ffffffff16565b600101611b27565b73ffffffffffffffffffffffffffffffffffffffff8416611c19576040517f08c379a000000000000000000000000000000000000000000000000000000000815260206004820152601f60248201527f455243313135353a207472616e7366657220746f2061646472657373283029006044820152606401610bea565b611c248786886123de565b611c8a576040517f08c379a000000000000000000000000000000000000000000000000000000000815260206004820152601c60248201527f455243313135353a206e6f6e2d617070726f7665642073656e646572000000006044820152606401610bea565b611c978786868686612453565b8373ffffffffffffffffffffffffffffffffffffffff168573ffffffffffffffffffffffffffffffffffffffff168773ffffffffffffffffffffffffffffffffffffffff167fc3d58168c5ae7397731d063d5bbf3d657854427343f4c083240f7aacaa2d0f628686604051611d16929190918252602082015260400190565b60405180910390a473ffffffffffffffffffffffffffffffffffffffff84163b15610ff957610ff9868686868686612618565b825473ffffffffffffffffffffffffffffffffffffffff9081169083168114611dce576040517f08c379a000000000000000000000000000000000000000000000000000000000815260206004820152601860248201527f4f776e6572736869703a206e6f7420746865206f776e657200000000000000006044820152606401610bea565b8173ffffffffffffffffffffffffffffffffffffffff168173ffffffffffffffffffffffffffffffffffffffff161461143b5783547fffffffffffffffffffffffff00000000000000000000000000000000000000001673ffffffffffffffffffffffffffffffffffffffff8381169182178655604051908316907f8be0079c531659141344cd1fd0a4f28419497f9722a3daafe3b4186f6b6457e090600090a350505050565b6108f67fe8ab9ccc000000000000000000000000000000000000000000000000000000006001611a77610c28565b6108f67f0e89341c000000000000000000000000000000000000000000000000000000006001611a77610c28565b611eff611a3860017f4906b284a41a4863b44f418156dc67ff218ba42abca1a1c41f180669c98a302f613296565b6107f582826128a6565b60006107026128b0565b60606000829003611f3257505060408051602081019091526000815290565b600082604051602001611f4791815260200190565b604080517fffffffffffffffffffffffffffffffffffffffffffffffffffffffffffffffe08184030181529190529050601f5b818181518110611f8c57611f8c613319565b01602001517fff0000000000000000000000000000000000000000000000000000000000000016600003611fe1577fffffffffffffffffffffffffffffffffffffffffffffffffffffffffffffffff01611f7a565b60008160010167ffffffffffffffff811115611fff57611fff61345f565b6040519080825280601f01601f191660200182016040528015612029576020820181803683370190505b50905060005b82811161209c5783818151811061204857612048613319565b602001015160f81c60f81b82828151811061206557612065613319565b60200101907effffffffffffffffffffffffffffffffffffffffffffffffffffffffffffff1916908160001a90535060010161202f565b50949350505050565b801561143b5760008281526020858152604080832073ffffffffffffffffffffffffffffffffffffffff87168452909152902054818101818111612145576040517f08c379a000000000000000000000000000000000000000000000000000000000815260206004820152601960248201527f455243313135353a2062616c616e6365206f766572666c6f77000000000000006044820152606401610bea565b60009384526020958652604080852073ffffffffffffffffffffffffffffffffffffffff9690961685529490955250502055565b6040517fbc197c81000000000000000000000000000000000000000000000000000000008082529073ffffffffffffffffffffffffffffffffffffffff86169063bc197c81906121d5908a908a908990899089906004016135ee565b6020604051808303816000875af11580156121f4573d6000803e3d6000fd5b505050506040513d601f19601f820116820180604052508101906122189190613659565b7fffffffff000000000000000000000000000000000000000000000000000000001614610791576040517f08c379a000000000000000000000000000000000000000000000000000000000815260206004820152601a60248201527f455243313135353a207472616e736665722072656a65637465640000000000006044820152606401610bea565b6060816000036122e457505060408051808201909152600181527f3000000000000000000000000000000000000000000000000000000000000000602082015290565b8160005b811561230e57806122f881613676565b91506123079050600a836136dd565b91506122e8565b60008167ffffffffffffffff8111156123295761232961345f565b6040519080825280601f01601f191660200182016040528015612353576020820181803683370190505b5090505b84156123d657612368600183613296565b9150612375600a866136f1565b612380906030613705565b60f81b81838151811061239557612395613319565b60200101907effffffffffffffffffffffffffffffffffffffffffffffffffffffffffffff1916908160001a9053506123cf600a866136dd565b9450612357565b949350505050565b60008173ffffffffffffffffffffffffffffffffffffffff168373ffffffffffffffffffffffffffffffffffffffff1614806123d657505073ffffffffffffffffffffffffffffffffffffffff9182166000908152600193909301602090815260408085209290931684525290205460ff1690565b80156126065760008281526020868152604080832073ffffffffffffffffffffffffffffffffffffffff881684529091529020548181038181106124f3576040517f08c379a000000000000000000000000000000000000000000000000000000000815260206004820152601d60248201527f455243313135353a20696e73756666696369656e742062616c616e63650000006044820152606401610bea565b8473ffffffffffffffffffffffffffffffffffffffff168673ffffffffffffffffffffffffffffffffffffffff1614610ff95760008481526020888152604080832073ffffffffffffffffffffffffffffffffffffffff891684529091529020548381018181116125c0576040517f08c379a000000000000000000000000000000000000000000000000000000000815260206004820152601960248201527f455243313135353a2062616c616e6365206f766572666c6f77000000000000006044820152606401610bea565b600086815260208a8152604080832073ffffffffffffffffffffffffffffffffffffffff808d1685528184528285208890558b1684529091529020805490910190555050505b5050505050565b366000610665612a08565b6040517ff23a6e61000000000000000000000000000000000000000000000000000000008082529073ffffffffffffffffffffffffffffffffffffffff86169063f23a6e61906121d5908a908a9089908990899060040161371d565b8154829082116126e0576040517f08c379a000000000000000000000000000000000000000000000000000000000815260206004820152601660248201527f53746f726167653a2070686173652072656163686564000000000000000000006044820152606401610bea565b5550565b73ffffffffffffffffffffffffffffffffffffffff81161561276c5781547fffffffffffffffffffffffff00000000000000000000000000000000000000001673ffffffffffffffffffffffffffffffffffffffff821690811783556040516000907f8be0079c531659141344cd1fd0a4f28419497f9722a3daafe3b4186f6b6457e0908290a35b6107f57f7f5828d0000000000000000000000000000000000000000000000000000000006001611a77610c28565b7c01000000000000000000000000000000000000000000000000000000007fffffffff00000000000000000000000000000000000000000000000000000000831601612842576040517f08c379a000000000000000000000000000000000000000000000000000000000815260206004820152601f60248201527f496e74657266616365446574656374696f6e3a2077726f6e672076616c7565006044820152606401610bea565b7fffffffff00000000000000000000000000000000000000000000000000000000919091166000908152602092909252604090912080547fffffffffffffffffffffffffffffffffffffffffffffffffffffffffffffff0016911515919091179055565b6107f58282611725565b6000333281036128bf57919050565b6000367fffffffffffffffffffffffffffffffffffffffffffffffffffffffffffffffec013560601c90507f000000000000000000000000000000000000000000000000000000000000000073ffffffffffffffffffffffffffffffffffffffff168273ffffffffffffffffffffffffffffffffffffffff1614806129f757506040517fe60125d600000000000000000000000000000000000000000000000000000000815273ffffffffffffffffffffffffffffffffffffffff828116600483015283811660248301527f0000000000000000000000000000000000000000000000000000000000000000169063e60125d690604401602060405180830381865afa1580156129d3573d6000803e3d6000fd5b505050506040513d601f19601f820116820180604052508101906129f7919061376d565b15612a025792915050565b50919050565b36600033328103612a1e57506000923692509050565b7f000000000000000000000000000000000000000000000000000000000000000073ffffffffffffffffffffffffffffffffffffffff168173ffffffffffffffffffffffffffffffffffffffff161480612b6b575073ffffffffffffffffffffffffffffffffffffffff7f00000000000000000000000000000000000000000000000000000000000000001663e60125d6367fffffffffffffffffffffffffffffffffffffffffffffffffffffffffffffffec013560601c6040517fffffffff0000000000000000000000000000000000000000000000000000000060e084901b16815273ffffffffffffffffffffffffffffffffffffffff91821660048201529084166024820152604401602060405180830381865afa158015612b47573d6000803e3d6000fd5b505050506040513d601f19601f82011682018060405250810190612b6b919061376d565b15612b8157612b78612b8c565b92509250509091565b506000923692509050565b366000808083612b9d601482613296565b926106659392919061378a565b803573ffffffffffffffffffffffffffffffffffffffff81168114612bce57600080fd5b919050565b60008060408385031215612be657600080fd5b612bef83612baa565b946020939093013593505050565b7fffffffff000000000000000000000000000000000000000000000000000000008116811461081457600080fd5b600060208284031215612c3d57600080fd5b8135612c4881612bfd565b9392505050565b60008083601f840112612c6157600080fd5b50813567ffffffffffffffff811115612c7957600080fd5b6020830191508360208260051b8501011115612c9457600080fd5b9250929050565b60008083601f840112612cad57600080fd5b50813567ffffffffffffffff811115612cc557600080fd5b602083019150836020828501011115612c9457600080fd5b60008060008060008060006080888a031215612cf857600080fd5b612d0188612baa565b9650602088013567ffffffffffffffff80821115612d1e57600080fd5b612d2a8b838c01612c4f565b909850965060408a0135915080821115612d4357600080fd5b612d4f8b838c01612c4f565b909650945060608a0135915080821115612d6857600080fd5b50612d758a828b01612c9b565b989b979a50959850939692959293505050565b600060208284031215612d9a57600080fd5b5035919050565b60005b83811015612dbc578181015183820152602001612da4565b8381111561143b5750506000910152565b60008151808452612de5816020860160208601612da1565b601f017fffffffffffffffffffffffffffffffffffffffffffffffffffffffffffffffe0169290920160200192915050565b60208152600061043b6020830184612dcd565b60008060008060008060008060a0898b031215612e4657600080fd5b612e4f89612baa565b9750612e5d60208a01612baa565b9650604089013567ffffffffffffffff80821115612e7a57600080fd5b612e868c838d01612c4f565b909850965060608b0135915080821115612e9f57600080fd5b612eab8c838d01612c4f565b909650945060808b0135915080821115612ec457600080fd5b50612ed18b828c01612c9b565b999c989b5096995094979396929594505050565b60008060408385031215612ef857600080fd5b82359150612f0860208401612baa565b90509250929050565b60208152816020820152818360408301376000818301604090810191909152601f9092017fffffffffffffffffffffffffffffffffffffffffffffffffffffffffffffffe0160101919050565b60008060008060408587031215612f7457600080fd5b843567ffffffffffffffff80821115612f8c57600080fd5b612f9888838901612c4f565b90965094506020870135915080821115612fb157600080fd5b50612fbe87828801612c4f565b95989497509550505050565b600081518084526020808501945080840160005b83811015612ffa57815187529582019590820190600101612fde565b509495945050505050565b60208152600061043b6020830184612fca565b60006020828403121561302a57600080fd5b61043b82612baa565b60008060008060006080868803121561304b57600080fd5b61305486612baa565b94506020860135935060408601359250606086013567ffffffffffffffff81111561307e57600080fd5b61308a88828901612c9b565b969995985093965092949392505050565b600080602083850312156130ae57600080fd5b823567ffffffffffffffff8111156130c557600080fd5b6130d185828601612c9b565b90969095509350505050565b801515811461081457600080fd5b600080604083850312156130fe57600080fd5b61310783612baa565b91506020830135613117816130dd565b809150509250929050565b6000806000806000806000806080898b03121561313e57600080fd5b883567ffffffffffffffff8082111561315657600080fd5b6131628c838d01612c4f565b909a50985060208b013591508082111561317b57600080fd5b6131878c838d01612c4f565b909850965060408b01359150808211156131a057600080fd5b6131ac8c838d01612c4f565b909650945060608b0135915080821115612ec457600080fd5b600080604083850312156131d857600080fd5b6131e183612baa565b9150612f0860208401612baa565b60008060008060008060a0878903121561320857600080fd5b61321187612baa565b955061321f60208801612baa565b94506040870135935060608701359250608087013567ffffffffffffffff81111561324957600080fd5b61325589828a01612c9b565b979a9699509497509295939492505050565b7f4e487b7100000000000000000000000000000000000000000000000000000000600052601160045260246000fd5b6000828210156132a8576132a8613267565b500390565b7f416363657373436f6e74726f6c3a206d697373696e67202700000000000000008152600082516132e5816018850160208701612da1565b7f2720726f6c6500000000000000000000000000000000000000000000000000006018939091019283015250601e01919050565b7f4e487b7100000000000000000000000000000000000000000000000000000000600052603260045260246000fd5b60408152600061335b6040830185612fca565b82810360208401526106e78185612fca565b600181811c9082168061338157607f821691505b602082108103612a02577f4e487b7100000000000000000000000000000000000000000000000000000000600052602260045260246000fd5b60008084546133c88161336d565b600182811680156133e0576001811461341357613442565b7fffffffffffffffffffffffffffffffffffffffffffffffffffffffffffffff0084168752821515830287019450613442565b8860005260208060002060005b858110156134395781548a820152908401908201613420565b50505082870194505b505050508351613456818360208801612da1565b01949350505050565b7f4e487b7100000000000000000000000000000000000000000000000000000000600052604160045260246000fd5b601f82111561065557600081815260208120601f850160051c810160208610156134b55750805b601f850160051c820191505b81811015610791578281556001016134c1565b815167ffffffffffffffff8111156134ee576134ee61345f565b613502816134fc845461336d565b8461348e565b602080601f831160018114613555576000841561351f5750858301515b7fffffffffffffffffffffffffffffffffffffffffffffffffffffffffffffffff600386901b1c1916600185901b178555610791565b6000858152602081207fffffffffffffffffffffffffffffffffffffffffffffffffffffffffffffffe08616915b828110156135a257888601518255948401946001909101908401613583565b50858210156135de57878501517fffffffffffffffffffffffffffffffffffffffffffffffffffffffffffffffff600388901b60f8161c191681555b5050505050600190811b01905550565b600073ffffffffffffffffffffffffffffffffffffffff808816835280871660208401525060a0604083015261362760a0830186612fca565b82810360608401526136398186612fca565b9050828103608084015261364d8185612dcd565b98975050505050505050565b60006020828403121561366b57600080fd5b8151612c4881612bfd565b60007fffffffffffffffffffffffffffffffffffffffffffffffffffffffffffffffff82036136a7576136a7613267565b5060010190565b7f4e487b7100000000000000000000000000000000000000000000000000000000600052601260045260246000fd5b6000826136ec576136ec6136ae565b500490565b600082613700576137006136ae565b500690565b6000821982111561371857613718613267565b500190565b600073ffffffffffffffffffffffffffffffffffffffff808816835280871660208401525084604083015283606083015260a0608083015261376260a0830184612dcd565b979650505050505050565b60006020828403121561377f57600080fd5b8151612c48816130dd565b6000808585111561379a57600080fd5b838611156137a757600080fd5b505082019391909203915056fea2646970667358221220eac63c488670d622748e6aa887e411729a5f6ba58f19b1ae769b6e79f890580664736f6c634300080f0033",
  "linkReferences": {},
  "deployedLinkReferences": {}
}