{
  "_format": "hh-sol-artifact-1",
  "contractName": "ERC20FixedSupplyProxiedMock",
  "sourceName": "contracts/mocks/token/ERC20/proxied/ERC20FixedSupplyProxiedMock.sol",
  "abi": [
    {
      "inputs": [
        {
          "internalType": "contract IForwarderRegistry",
          "name": "forwarderRegistry",
          "type": "address"
        }
      ],
      "stateMutability": "nonpayable",
      "type": "constructor"
    },
    {
      "anonymous": false,
      "inputs": [
        {
          "indexed": true,
          "internalType": "address",
          "name": "owner",
          "type": "address"
        },
        {
          "indexed": true,
          "internalType": "address",
          "name": "spender",
          "type": "address"
        },
        {
          "indexed": false,
          "internalType": "uint256",
          "name": "value",
          "type": "uint256"
        }
      ],
      "name": "Approval",
      "type": "event"
    },
    {
      "anonymous": false,
      "inputs": [
        {
          "indexed": true,
          "internalType": "address",
          "name": "from",
          "type": "address"
        },
        {
          "indexed": true,
          "internalType": "address",
          "name": "to",
          "type": "address"
        },
        {
          "indexed": false,
          "internalType": "uint256",
          "name": "value",
          "type": "uint256"
        }
      ],
      "name": "Transfer",
      "type": "event"
    },
    {
      "inputs": [],
      "name": "DOMAIN_SEPARATOR",
      "outputs": [
        {
          "internalType": "bytes32",
          "name": "",
          "type": "bytes32"
        }
      ],
      "stateMutability": "view",
      "type": "function"
    },
    {
      "inputs": [],
      "name": "__msgData",
      "outputs": [
        {
          "internalType": "bytes",
          "name": "",
          "type": "bytes"
        }
      ],
      "stateMutability": "view",
      "type": "function"
    },
    {
      "inputs": [
        {
          "internalType": "address",
          "name": "owner",
          "type": "address"
        },
        {
          "internalType": "address",
          "name": "spender",
          "type": "address"
        }
      ],
      "name": "allowance",
      "outputs": [
        {
          "internalType": "uint256",
          "name": "value",
          "type": "uint256"
        }
      ],
      "stateMutability": "view",
      "type": "function"
    },
    {
      "inputs": [
        {
          "internalType": "address",
          "name": "spender",
          "type": "address"
        },
        {
          "internalType": "uint256",
          "name": "value",
          "type": "uint256"
        }
      ],
      "name": "approve",
      "outputs": [
        {
          "internalType": "bool",
          "name": "result",
          "type": "bool"
        }
      ],
      "stateMutability": "nonpayable",
      "type": "function"
    },
    {
      "inputs": [
        {
          "internalType": "address",
          "name": "owner",
          "type": "address"
        }
      ],
      "name": "balanceOf",
      "outputs": [
        {
          "internalType": "uint256",
          "name": "balance",
          "type": "uint256"
        }
      ],
      "stateMutability": "view",
      "type": "function"
    },
    {
      "inputs": [
        {
          "internalType": "address[]",
          "name": "recipients",
          "type": "address[]"
        },
        {
          "internalType": "uint256[]",
          "name": "values",
          "type": "uint256[]"
        }
      ],
      "name": "batchTransfer",
      "outputs": [
        {
          "internalType": "bool",
          "name": "",
          "type": "bool"
        }
      ],
      "stateMutability": "nonpayable",
      "type": "function"
    },
    {
      "inputs": [
        {
          "internalType": "address",
          "name": "from",
          "type": "address"
        },
        {
          "internalType": "address[]",
          "name": "recipients",
          "type": "address[]"
        },
        {
          "internalType": "uint256[]",
          "name": "values",
          "type": "uint256[]"
        }
      ],
      "name": "batchTransferFrom",
      "outputs": [
        {
          "internalType": "bool",
          "name": "",
          "type": "bool"
        }
      ],
      "stateMutability": "nonpayable",
      "type": "function"
    },
    {
      "inputs": [],
      "name": "decimals",
      "outputs": [
        {
          "internalType": "uint8",
          "name": "",
          "type": "uint8"
        }
      ],
      "stateMutability": "view",
      "type": "function"
    },
    {
      "inputs": [
        {
          "internalType": "address",
          "name": "spender",
          "type": "address"
        },
        {
          "internalType": "uint256",
          "name": "subtractedValue",
          "type": "uint256"
        }
      ],
      "name": "decreaseAllowance",
      "outputs": [
        {
          "internalType": "bool",
          "name": "result",
          "type": "bool"
        }
      ],
      "stateMutability": "nonpayable",
      "type": "function"
    },
    {
      "inputs": [],
      "name": "forwarderRegistry",
      "outputs": [
        {
          "internalType": "contract IForwarderRegistry",
          "name": "",
          "type": "address"
        }
      ],
      "stateMutability": "view",
      "type": "function"
    },
    {
      "inputs": [
        {
          "internalType": "address",
          "name": "spender",
          "type": "address"
        },
        {
          "internalType": "uint256",
          "name": "addedValue",
          "type": "uint256"
        }
      ],
      "name": "increaseAllowance",
      "outputs": [
        {
          "internalType": "bool",
          "name": "result",
          "type": "bool"
        }
      ],
      "stateMutability": "nonpayable",
      "type": "function"
    },
    {
      "inputs": [
        {
          "internalType": "string",
          "name": "tokenName",
          "type": "string"
        },
        {
          "internalType": "string",
          "name": "tokenSymbol",
          "type": "string"
        },
        {
          "internalType": "uint8",
          "name": "tokenDecimals",
          "type": "uint8"
        },
        {
          "internalType": "address[]",
          "name": "holders",
          "type": "address[]"
        },
        {
          "internalType": "uint256[]",
          "name": "allocations",
          "type": "uint256[]"
        }
      ],
      "name": "init",
      "outputs": [],
      "stateMutability": "nonpayable",
      "type": "function"
    },
    {
      "inputs": [
        {
          "internalType": "address",
          "name": "forwarder",
          "type": "address"
        }
      ],
      "name": "isTrustedForwarder",
      "outputs": [
        {
          "internalType": "bool",
          "name": "",
          "type": "bool"
        }
      ],
      "stateMutability": "view",
      "type": "function"
    },
    {
      "inputs": [],
      "name": "name",
      "outputs": [
        {
          "internalType": "string",
          "name": "",
          "type": "string"
        }
      ],
      "stateMutability": "view",
      "type": "function"
    },
    {
      "inputs": [
        {
          "internalType": "address",
          "name": "owner",
          "type": "address"
        }
      ],
      "name": "nonces",
      "outputs": [
        {
          "internalType": "uint256",
          "name": "",
          "type": "uint256"
        }
      ],
      "stateMutability": "view",
      "type": "function"
    },
    {
      "inputs": [
        {
          "internalType": "address",
          "name": "owner",
          "type": "address"
        },
        {
          "internalType": "address",
          "name": "spender",
          "type": "address"
        },
        {
          "internalType": "uint256",
          "name": "value",
          "type": "uint256"
        },
        {
          "internalType": "uint256",
          "name": "deadline",
          "type": "uint256"
        },
        {
          "internalType": "uint8",
          "name": "v",
          "type": "uint8"
        },
        {
          "internalType": "bytes32",
          "name": "r",
          "type": "bytes32"
        },
        {
          "internalType": "bytes32",
          "name": "s",
          "type": "bytes32"
        }
      ],
      "name": "permit",
      "outputs": [],
      "stateMutability": "nonpayable",
      "type": "function"
    },
    {
      "inputs": [
        {
          "internalType": "address[]",
          "name": "accounts",
          "type": "address[]"
        },
        {
          "internalType": "contract IERC20[]",
          "name": "tokens",
          "type": "address[]"
        },
        {
          "internalType": "uint256[]",
          "name": "amounts",
          "type": "uint256[]"
        }
      ],
      "name": "recoverERC20s",
      "outputs": [],
      "stateMutability": "nonpayable",
      "type": "function"
    },
    {
      "inputs": [
        {
          "internalType": "address[]",
          "name": "accounts",
          "type": "address[]"
        },
        {
          "internalType": "contract IERC721[]",
          "name": "contracts",
          "type": "address[]"
        },
        {
          "internalType": "uint256[]",
          "name": "tokenIds",
          "type": "uint256[]"
        }
      ],
      "name": "recoverERC721s",
      "outputs": [],
      "stateMutability": "nonpayable",
      "type": "function"
    },
    {
      "inputs": [
        {
          "internalType": "address payable[]",
          "name": "accounts",
          "type": "address[]"
        },
        {
          "internalType": "uint256[]",
          "name": "amounts",
          "type": "uint256[]"
        }
      ],
      "name": "recoverETH",
      "outputs": [],
      "stateMutability": "nonpayable",
      "type": "function"
    },
    {
      "inputs": [
        {
          "internalType": "address",
          "name": "to",
          "type": "address"
        },
        {
          "internalType": "uint256",
          "name": "value",
          "type": "uint256"
        },
        {
          "internalType": "bytes",
          "name": "data",
          "type": "bytes"
        }
      ],
      "name": "safeTransfer",
      "outputs": [
        {
          "internalType": "bool",
          "name": "",
          "type": "bool"
        }
      ],
      "stateMutability": "nonpayable",
      "type": "function"
    },
    {
      "inputs": [
        {
          "internalType": "address",
          "name": "from",
          "type": "address"
        },
        {
          "internalType": "address",
          "name": "to",
          "type": "address"
        },
        {
          "internalType": "uint256",
          "name": "value",
          "type": "uint256"
        },
        {
          "internalType": "bytes",
          "name": "data",
          "type": "bytes"
        }
      ],
      "name": "safeTransferFrom",
      "outputs": [
        {
          "internalType": "bool",
          "name": "",
          "type": "bool"
        }
      ],
      "stateMutability": "nonpayable",
      "type": "function"
    },
    {
      "inputs": [
        {
          "internalType": "string",
          "name": "uri",
          "type": "string"
        }
      ],
      "name": "setTokenURI",
      "outputs": [],
      "stateMutability": "nonpayable",
      "type": "function"
    },
    {
      "inputs": [
        {
          "internalType": "bytes4",
          "name": "interfaceId",
          "type": "bytes4"
        }
      ],
      "name": "supportsInterface",
      "outputs": [
        {
          "internalType": "bool",
          "name": "",
          "type": "bool"
        }
      ],
      "stateMutability": "view",
      "type": "function"
    },
    {
      "inputs": [],
      "name": "symbol",
      "outputs": [
        {
          "internalType": "string",
          "name": "",
          "type": "string"
        }
      ],
      "stateMutability": "view",
      "type": "function"
    },
    {
      "inputs": [],
      "name": "tokenURI",
      "outputs": [
        {
          "internalType": "string",
          "name": "",
          "type": "string"
        }
      ],
      "stateMutability": "view",
      "type": "function"
    },
    {
      "inputs": [],
      "name": "totalSupply",
      "outputs": [
        {
          "internalType": "uint256",
          "name": "supply",
          "type": "uint256"
        }
      ],
      "stateMutability": "view",
      "type": "function"
    },
    {
      "inputs": [
        {
          "internalType": "address",
          "name": "to",
          "type": "address"
        },
        {
          "internalType": "uint256",
          "name": "value",
          "type": "uint256"
        }
      ],
      "name": "transfer",
      "outputs": [
        {
          "internalType": "bool",
          "name": "result",
          "type": "bool"
        }
      ],
      "stateMutability": "nonpayable",
      "type": "function"
    },
    {
      "inputs": [
        {
          "internalType": "address",
          "name": "from",
          "type": "address"
        },
        {
          "internalType": "address",
          "name": "to",
          "type": "address"
        },
        {
          "internalType": "uint256",
          "name": "value",
          "type": "uint256"
        }
      ],
      "name": "transferFrom",
      "outputs": [
        {
          "internalType": "bool",
          "name": "result",
          "type": "bool"
        }
      ],
      "stateMutability": "nonpayable",
      "type": "function"
    }
  ],
  "bytecode": "0x60a06040523480156200001157600080fd5b5060405162003bd238038062003bd2833981016040819052620000349162000046565b6001600160a01b031660805262000078565b6000602082840312156200005957600080fd5b81516001600160a01b03811681146200007157600080fd5b9392505050565b608051613b1b620000b76000396000818161025c015281816102fc015281816128f10152818161297901528181612a2c0152612a6a0152613b1b6000f3fe608060405234801561001057600080fd5b50600436106101c45760003560e01c806373c8a958116100f9578063b88d4fde11610097578063dd62ed3e11610071578063dd62ed3e14610401578063e0df5b6f14610414578063eb79554914610427578063f7ba94bd1461043a57600080fd5b8063b88d4fde146103c8578063c3666c36146103db578063d505accf146103ee57600080fd5b80638a6d57b6116100d35780638a6d57b61461038757806395d89b411461039a578063a457c2d7146103a2578063a9059cbb146103b557600080fd5b806373c8a9581461034c5780637ecebe001461036157806388d695b21461037457600080fd5b806331e66e1e116101665780633c130d90116101405780633c130d90146102d15780634885b254146102d9578063572b6c05146102ec57806370a082311461033957600080fd5b806331e66e1e146102a05780633644e515146102b657806339509351146102be57600080fd5b806318160ddd116101a257806318160ddd1461021957806323b872dd1461022f5780632b4c9f1614610242578063313ce5671461028657600080fd5b806301ffc9a7146101c957806306fdde03146101f1578063095ea7b314610206575b600080fd5b6101dc6101d7366004613193565b61044d565b60405190151581526020015b60405180910390f35b6101f9610467565b6040516101e8919061321e565b6101dc610214366004613253565b61047e565b6102216104a6565b6040519081526020016101e8565b6101dc61023d36600461327f565b6104ba565b60405173ffffffffffffffffffffffffffffffffffffffff7f00000000000000000000000000000000000000000000000000000000000000001681526020016101e8565b61028e6104e5565b60405160ff90911681526020016101e8565b6102a86104fc565b6040516101e89291906132c0565b61022161050f565b6101dc6102cc366004613253565b610519565b6101f9610538565b6101dc6102e7366004613359565b610545565b6101dc6102fa3660046133dc565b7f000000000000000000000000000000000000000000000000000000000000000073ffffffffffffffffffffffffffffffffffffffff90811691161490565b6102216103473660046133dc565b610576565b61035f61035a3660046133f9565b6105ae565b005b61022161036f3660046133dc565b6106e4565b6101dc610382366004613493565b6106f2565b61035f610395366004613557565b610721565b6101f96107ff565b6101dc6103b0366004613253565b610811565b6101dc6103c3366004613253565b610830565b6101dc6103d6366004613631565b61084f565b61035f6103e93660046133f9565b610874565b61035f6103fc366004613693565b610a19565b61022161040f366004613701565b610a40565b61035f61042236600461373a565b610a92565b6101dc61043536600461377c565b610ab5565b61035f610448366004613493565b610ad8565b60006104618261045b610bc6565b90610bf4565b92915050565b6060610479610474610cce565b610cfc565b905090565b600061049d61048b610d92565b8484610495610d9c565b929190610dca565b50600192915050565b60006104796104b3610d9c565b6002015490565b60006104db6104c7610d92565b8585856104d2610d9c565b93929190610eb9565b5060019392505050565b60006104796104f2610cce565b6002015460ff1690565b366000610507610f0b565b915091509091565b6000610479610f16565b600061049d610526610d92565b8484610530610d9c565b929190610fb1565b606061047961047461117d565b600061056a610552610d92565b878787878761055f610d9c565b9594939291906111ab565b50600195945050505050565b600061046182610584610d9c565b9073ffffffffffffffffffffffffffffffffffffffff166000908152602091909152604090205490565b6105c76105b9610d92565b6105c16115f1565b9061161f565b8483811480156105d657508082145b610641576040517f08c379a000000000000000000000000000000000000000000000000000000000815260206004820152601d60248201527f5265636f766572793a20696e636f6e73697374656e742061727261797300000060448201526064015b60405180910390fd5b60005b8181146106da576106d2888883818110610660576106606137cc565b905060200201602081019061067591906133dc565b858584818110610687576106876137cc565b905060200201358888858181106106a0576106a06137cc565b90506020020160208101906106b591906133dc565b73ffffffffffffffffffffffffffffffffffffffff1691906116a2565b600101610644565b5050505050505050565b600061046182610584611734565b60006107156106ff610d92565b8686868661070b610d9c565b9493929190611762565b5060015b949350505050565b61073a61072c610d92565b6107346115f1565b90611b44565b610742611b83565b61074a611bea565b610752611c21565b61076c8989898989610762610cce565b9493929190611c4f565b610774611cf7565b61077c611d25565b6107f4848480806020026020016040519081016040528093929190818152602001838360200280828437600092019190915250506040805160208088028281018201909352878252909350879250869182918501908490808284376000920191909152506107ed9250610d9c915050565b9190611d53565b505050505050505050565b606061047961080c610cce565b612029565b600061049d61081e610d92565b8484610828610d9c565b92919061203a565b600061049d61083d610d92565b8484610847610d9c565b92919061218c565b600061056a61085c610d92565b8787878787610869610d9c565b95949392919061236d565b61087f6105b9610d92565b84838114801561088e57508082145b6108f4576040517f08c379a000000000000000000000000000000000000000000000000000000000815260206004820152601d60248201527f5265636f766572793a20696e636f6e73697374656e74206172726179730000006044820152606401610638565b60005b8181146106da57858582818110610910576109106137cc565b905060200201602081019061092591906133dc565b73ffffffffffffffffffffffffffffffffffffffff166323b872dd308a8a85818110610953576109536137cc565b905060200201602081019061096891906133dc565b87878681811061097a5761097a6137cc565b6040517fffffffff0000000000000000000000000000000000000000000000000000000060e088901b16815273ffffffffffffffffffffffffffffffffffffffff958616600482015294909316602485015250602090910201356044820152606401600060405180830381600087803b1580156109f657600080fd5b505af1158015610a0a573d6000803e3d6000fd5b505050508060010190506108f7565b610a3787878787878787610a2b611734565b969594939291906123da565b50505050505050565b6000610a8b8383610a4f610d9c565b919073ffffffffffffffffffffffffffffffffffffffff9182166000908152600193909301602090815260408085209290931684525290205490565b9392505050565b610a9d6105b9610d92565b610ab18282610aaa61117d565b91906126d6565b5050565b6000610715610ac2610d92565b86868686610ace610d9c565b94939291906126e8565b610ae36105b9610d92565b82818114610b4d576040517f08c379a000000000000000000000000000000000000000000000000000000000815260206004820152601d60248201527f5265636f766572793a20696e636f6e73697374656e74206172726179730000006044820152606401610638565b60005b818114610bbe57610bb6848483818110610b6c57610b6c6137cc565b90506020020135878784818110610b8557610b856137cc565b9050602002016020810190610b9a91906133dc565b73ffffffffffffffffffffffffffffffffffffffff1690612754565b600101610b50565b505050505050565b60008061046160017fca9d3e17f264b0f3984e2634e94adb37fa3e6a8103f06aeae6fa59e21c769f5e6137fb565b60007c01000000000000000000000000000000000000000000000000000000007fffffffff00000000000000000000000000000000000000000000000000000000831601610c4457506000610461565b7ffe003659000000000000000000000000000000000000000000000000000000007fffffffff00000000000000000000000000000000000000000000000000000000831601610c9557506001610461565b507fffffffff00000000000000000000000000000000000000000000000000000000166000908152602091909152604090205460ff1690565b60008061046160017f335df4119bbb04f056b33eba33b826d3529129e458faf6daa9924b5a8f3b6a826137fb565b6060816000018054610d0d90613835565b80601f0160208091040260200160405190810160405280929190818152602001828054610d3990613835565b8015610d865780601f10610d5b57610100808354040283529160200191610d86565b820191906000526020600020905b815481529060010190602001808311610d6957829003601f168201915b50505050509050919050565b60006104796128ae565b60008061046160017f1da92899d3da68bf9787824388a37ea2bfa79780bcef91b9716c390eec8ecbef6137fb565b73ffffffffffffffffffffffffffffffffffffffff8216610e47576040517f08c379a000000000000000000000000000000000000000000000000000000000815260206004820152601d60248201527f45524332303a20617070726f76616c20746f20616464726573732830290000006044820152606401610638565b73ffffffffffffffffffffffffffffffffffffffff838116600081815260018701602090815260408083209487168084529482529182902085905590518481527f8c5be1e5ebec7d5bd14f71427d1e84f3dd0314c0f7b2291e5b200ac8c7c3b92591015b60405180910390a350505050565b8373ffffffffffffffffffffffffffffffffffffffff168373ffffffffffffffffffffffffffffffffffffffff1614610ef857610ef88584868461203a565b610f048584848461218c565b5050505050565b3660006105076129f5565b6000467f8b73c3c69bb8fe3d512ecc4cf759cc79239f7b179b0ffacaa9a75d522b39400f610f45610474610cce565b80516020918201206040805192830193909352918101919091527fc89efdaa54c0f20c7adf612882df0950f5a951637e0307cdcb4c672f298b8bc66060820152608081018290523060a082015260c0016040516020818303038152906040528051906020012091505090565b73ffffffffffffffffffffffffffffffffffffffff821661102e576040517f08c379a000000000000000000000000000000000000000000000000000000000815260206004820152601d60248201527f45524332303a20617070726f76616c20746f20616464726573732830290000006044820152606401610638565b73ffffffffffffffffffffffffffffffffffffffff8084166000908152600186016020908152604080832093861683529290522054811561110f578082018181116110d5576040517f08c379a000000000000000000000000000000000000000000000000000000000815260206004820152601960248201527f45524332303a20616c6c6f77616e6365206f766572666c6f77000000000000006044820152606401610638565b73ffffffffffffffffffffffffffffffffffffffff8086166000908152600188016020908152604080832093881683529290522081905590505b8273ffffffffffffffffffffffffffffffffffffffff168473ffffffffffffffffffffffffffffffffffffffff167f8c5be1e5ebec7d5bd14f71427d1e84f3dd0314c0f7b2291e5b200ac8c7c3b9258360405161116e91815260200190565b60405180910390a35050505050565b60008061046160017ff41bf6a5db26bffdfab174dcf66b31fbba8fdb7e3db040721ce1e62d61839ceb6137fb565b82818114611215576040517f08c379a000000000000000000000000000000000000000000000000000000000815260206004820152601a60248201527f45524332303a20696e636f6e73697374656e74206172726179730000000000006044820152606401610638565b806000036112235750610a37565b73ffffffffffffffffffffffffffffffffffffffff86166000908152602089905260408120549080805b8481146114f9576000898983818110611268576112686137cc565b905060200201602081019061127d91906133dc565b905073ffffffffffffffffffffffffffffffffffffffff81166112fc576040517f08c379a000000000000000000000000000000000000000000000000000000000815260206004820152601d60248201527f45524332303a207472616e7366657220746f20616464726573732830290000006044820152606401610638565b6000888884818110611310576113106137cc565b905060200201359050806000146114885784810185811161138d576040517f08c379a000000000000000000000000000000000000000000000000000000000815260206004820152601660248201527f45524332303a2076616c756573206f766572666c6f77000000000000000000006044820152606401610638565b8095508273ffffffffffffffffffffffffffffffffffffffff168d73ffffffffffffffffffffffffffffffffffffffff161461141757818f60000160008573ffffffffffffffffffffffffffffffffffffffff1673ffffffffffffffffffffffffffffffffffffffff16815260200190815260200160002060008282540192505081905550611486565b86821115611481576040517f08c379a000000000000000000000000000000000000000000000000000000000815260206004820152601b60248201527f45524332303a20696e73756666696369656e742062616c616e636500000000006044820152606401610638565b938101935b505b8173ffffffffffffffffffffffffffffffffffffffff168c73ffffffffffffffffffffffffffffffffffffffff167fddf252ad1be2c89b69c2b068fc378daa952ba7f163c4a11628f55a4df523b3ef836040516114e791815260200190565b60405180910390a3505060010161124d565b5081158015906115095750808214155b156115a55781830383811061157a576040517f08c379a000000000000000000000000000000000000000000000000000000000815260206004820152601b60248201527f45524332303a20696e73756666696369656e742062616c616e636500000000006044820152606401610638565b73ffffffffffffffffffffffffffffffffffffffff8a16600090815260208d90526040902090820190555b8973ffffffffffffffffffffffffffffffffffffffff168973ffffffffffffffffffffffffffffffffffffffff16146115e4576115e48b8a8c8561203a565b5050505050505050505050565b60008061046160017fc9ed16f33ab3a66c84bfd83099ccb2a8845871e2e1c1928f63797152f0fd54cd6137fb565b815473ffffffffffffffffffffffffffffffffffffffff828116911614610ab1576040517f08c379a000000000000000000000000000000000000000000000000000000000815260206004820152601860248201527f4f776e6572736869703a206e6f7420746865206f776e657200000000000000006044820152606401610638565b6040805173ffffffffffffffffffffffffffffffffffffffff8416602482015260448082018490528251808303909101815260649091019091526020810180517bffffffffffffffffffffffffffffffffffffffffffffffffffffffff167fa9059cbb0000000000000000000000000000000000000000000000000000000017905261172f908490612b5f565b505050565b60008061046160017f93fe0ff7226b064a4a8f0b09910762afb4bc2441835792c021ffd78cd513011e6137fb565b828181146117cc576040517f08c379a000000000000000000000000000000000000000000000000000000000815260206004820152601a60248201527f45524332303a20696e636f6e73697374656e74206172726179730000000000006044820152606401610638565b806000036117da5750610bbe565b73ffffffffffffffffffffffffffffffffffffffff86166000908152602088905260408120549080805b848114611a8c57600089898381811061181f5761181f6137cc565b905060200201602081019061183491906133dc565b905073ffffffffffffffffffffffffffffffffffffffff81166118b3576040517f08c379a000000000000000000000000000000000000000000000000000000000815260206004820152601d60248201527f45524332303a207472616e7366657220746f20616464726573732830290000006044820152606401610638565b60008888848181106118c7576118c76137cc565b90506020020135905080600014611a1b57848101858111611944576040517f08c379a000000000000000000000000000000000000000000000000000000000815260206004820152601660248201527f45524332303a2076616c756573206f766572666c6f77000000000000000000006044820152606401610638565b8095508273ffffffffffffffffffffffffffffffffffffffff168d73ffffffffffffffffffffffffffffffffffffffff16146119aa5773ffffffffffffffffffffffffffffffffffffffff8316600090815260208f905260409020805483019055611a19565b86821115611a14576040517f08c379a000000000000000000000000000000000000000000000000000000000815260206004820152601b60248201527f45524332303a20696e73756666696369656e742062616c616e636500000000006044820152606401610638565b938101935b505b8173ffffffffffffffffffffffffffffffffffffffff168c73ffffffffffffffffffffffffffffffffffffffff167fddf252ad1be2c89b69c2b068fc378daa952ba7f163c4a11628f55a4df523b3ef83604051611a7a91815260200190565b60405180910390a35050600101611804565b508115801590611a9c5750808214155b15611b3857818303838110611b0d576040517f08c379a000000000000000000000000000000000000000000000000000000000815260206004820152601b60248201527f45524332303a20696e73756666696369656e742062616c616e636500000000006044820152606401610638565b73ffffffffffffffffffffffffffffffffffffffff8a16600090815260208c90526040902090820190555b50505050505050505050565b611b79611b7260017f5b388d90dc1312ba799f321972f13311234fa1163bcabec7cf66101c4876eb846137fb565b6001612c6b565b610ab18282612cdb565b6000611b8d610bc6565b9050611bbb817f36372b07000000000000000000000000000000000000000000000000000000006001612d91565b611be7817f9d075186000000000000000000000000000000000000000000000000000000006001612d91565b50565b611c1f7fc05327e6000000000000000000000000000000000000000000000000000000006001611c18610bc6565b9190612d91565b565b611c1f7f53f41a97000000000000000000000000000000000000000000000000000000006001611c18610bc6565b611c7d611b7260017fd217496980d1cb14720b20a80af36676bbece8e5feeb5d8970a9681a2c76bb756137fb565b85611c898587836138fd565b5060018601611c998385836138fd565b506002860180547fffffffffffffffffffffffffffffffffffffffffffffffffffffffffffffff001660ff8316179055610bbe7fa219a025000000000000000000000000000000000000000000000000000000006001611c18610bc6565b611c1f7f3c130d90000000000000000000000000000000000000000000000000000000006001611c18610bc6565b611c1f7f9d8ff7da000000000000000000000000000000000000000000000000000000006001611c18610bc6565b815181518114611dbf576040517f08c379a000000000000000000000000000000000000000000000000000000000815260206004820152601a60248201527f45524332303a20696e636f6e73697374656e74206172726179730000000000006044820152606401610638565b80600003611dcd5750505050565b6000805b828114611fa4576000858281518110611dec57611dec6137cc565b60200260200101519050600073ffffffffffffffffffffffffffffffffffffffff168173ffffffffffffffffffffffffffffffffffffffff1603611e8c576040517f08c379a000000000000000000000000000000000000000000000000000000000815260206004820152601960248201527f45524332303a206d696e7420746f2061646472657373283029000000000000006044820152606401610638565b6000858381518110611ea057611ea06137cc565b6020026020010151905080600014611f4c57838101848111611f1e576040517f08c379a000000000000000000000000000000000000000000000000000000000815260206004820152601660248201527f45524332303a2076616c756573206f766572666c6f77000000000000000000006044820152606401610638565b73ffffffffffffffffffffffffffffffffffffffff8316600090815260208a90526040902080548301905593505b60405181815273ffffffffffffffffffffffffffffffffffffffff8316906000907fddf252ad1be2c89b69c2b068fc378daa952ba7f163c4a11628f55a4df523b3ef9060200160405180910390a35050600101611dd1565b508015610f0457600285015481810181811161201c576040517f08c379a000000000000000000000000000000000000000000000000000000000815260206004820152601660248201527f45524332303a20737570706c79206f766572666c6f77000000000000000000006044820152606401610638565b6002870155505050505050565b6060816001018054610d0d90613835565b73ffffffffffffffffffffffffffffffffffffffff82166120b7576040517f08c379a000000000000000000000000000000000000000000000000000000000815260206004820152601d60248201527f45524332303a20617070726f76616c20746f20616464726573732830290000006044820152606401610638565b73ffffffffffffffffffffffffffffffffffffffff80841660009081526001860160209081526040808320938616835292905220547fffffffffffffffffffffffffffffffffffffffffffffffffffffffffffffffff811480159061211b57508115155b1561110f578181038181106110d5576040517f08c379a000000000000000000000000000000000000000000000000000000000815260206004820152601d60248201527f45524332303a20696e73756666696369656e7420616c6c6f77616e63650000006044820152606401610638565b73ffffffffffffffffffffffffffffffffffffffff8216612209576040517f08c379a000000000000000000000000000000000000000000000000000000000815260206004820152601d60248201527f45524332303a207472616e7366657220746f20616464726573732830290000006044820152606401610638565b801561230e5773ffffffffffffffffffffffffffffffffffffffff83166000908152602085905260409020548181038181106122a1576040517f08c379a000000000000000000000000000000000000000000000000000000000815260206004820152601b60248201527f45524332303a20696e73756666696369656e742062616c616e636500000000006044820152606401610638565b8373ffffffffffffffffffffffffffffffffffffffff168573ffffffffffffffffffffffffffffffffffffffff161461230b5773ffffffffffffffffffffffffffffffffffffffff8086166000908152602088905260408082208490559186168152208054840190555b50505b8173ffffffffffffffffffffffffffffffffffffffff168373ffffffffffffffffffffffffffffffffffffffff167fddf252ad1be2c89b69c2b068fc378daa952ba7f163c4a11628f55a4df523b3ef83604051610eab91815260200190565b61237a8787878787610eb9565b73ffffffffffffffffffffffffffffffffffffffff84163b15610a3757610a378686868686868080601f016020809104026020016040519081016040528093929190818152602001838380828437600092019190915250612e9d92505050565b73ffffffffffffffffffffffffffffffffffffffff8716612457576040517f08c379a000000000000000000000000000000000000000000000000000000000815260206004820152601d60248201527f45524332303a207065726d69742066726f6d20616464726573732830290000006044820152606401610638565b834211156124c1576040517f08c379a000000000000000000000000000000000000000000000000000000000815260206004820152601560248201527f45524332303a2065787069726564207065726d697400000000000000000000006044820152606401610638565b73ffffffffffffffffffffffffffffffffffffffff878116600081815260208b8152604080832080546001810190915581517f6e71edae12b1b97f4d1f60370fef10105fa2faae0126114a169c64845d6126c98185015280830195909552948b166060850152608084018a905260a084019490945260c08084018990528451808503909101815260e09093019093528151919092012090612560610f16565b6040517f19010000000000000000000000000000000000000000000000000000000000006020820152602281019190915260428101839052606201604080517fffffffffffffffffffffffffffffffffffffffffffffffffffffffffffffffe08184030181528282528051602091820120600080855291840180845281905260ff89169284019290925260608301879052608083018690529092509060019060a0016020604051602081039080840390855afa158015612624573d6000803e3d6000fd5b5050506020604051035190508973ffffffffffffffffffffffffffffffffffffffff168173ffffffffffffffffffffffffffffffffffffffff16146126c5576040517f08c379a000000000000000000000000000000000000000000000000000000000815260206004820152601560248201527f45524332303a20696e76616c6964207065726d697400000000000000000000006044820152606401610638565b5050506106da878787610495610d9c565b826126e28284836138fd565b50505050565b6126f48686868661218c565b73ffffffffffffffffffffffffffffffffffffffff84163b15610bbe57610bbe8586868686868080601f016020809104026020016040519081016040528093929190818152602001838380828437600092019190915250612e9d92505050565b804710156127be576040517f08c379a000000000000000000000000000000000000000000000000000000000815260206004820152601d60248201527f416464726573733a20696e73756666696369656e742062616c616e63650000006044820152606401610638565b60008273ffffffffffffffffffffffffffffffffffffffff168260405160006040518083038185875af1925050503d8060008114612818576040519150601f19603f3d011682016040523d82523d6000602084013e61281d565b606091505b505090508061172f576040517f08c379a000000000000000000000000000000000000000000000000000000000815260206004820152603a60248201527f416464726573733a20756e61626c6520746f2073656e642076616c75652c207260448201527f6563697069656e74206d617920686176652072657665727465640000000000006064820152608401610638565b6000333214806128be5750601836105b156128c857503390565b7fffffffffffffffffffffffffffffffffffffffffffffffffffffffffffffffec36013560601c7f000000000000000000000000000000000000000000000000000000000000000073ffffffffffffffffffffffffffffffffffffffff163314806129e457506040517f8929a8ca00000000000000000000000000000000000000000000000000000000815273ffffffffffffffffffffffffffffffffffffffff82811660048301523360248301527f00000000000000000000000000000000000000000000000000000000000000001690638929a8ca90604401602060405180830381865afa1580156129c0573d6000803e3d6000fd5b505050506040513d601f19601f820116820180604052508101906129e49190613a17565b156129ee57919050565b3391505090565b36600033321480612a065750601836105b15612a145750600091369150565b3373ffffffffffffffffffffffffffffffffffffffff7f0000000000000000000000000000000000000000000000000000000000000000161480612b49575073ffffffffffffffffffffffffffffffffffffffff7f000000000000000000000000000000000000000000000000000000000000000016638929a8ca367fffffffffffffffffffffffffffffffffffffffffffffffffffffffffffffffec013560601c6040517fffffffff0000000000000000000000000000000000000000000000000000000060e084901b16815273ffffffffffffffffffffffffffffffffffffffff9091166004820152336024820152604401602060405180830381865afa158015612b25573d6000803e3d6000fd5b505050506040513d601f19601f82011682018060405250810190612b499190613a17565b15612b5657610507612fc3565b50600091369150565b6000612bc1826040518060400160405280602081526020017f5361666545524332303a206c6f772d6c6576656c2063616c6c206661696c65648152508573ffffffffffffffffffffffffffffffffffffffff16612ff49092919063ffffffff16565b80519091501561172f5780806020019051810190612bdf9190613a17565b61172f576040517f08c379a000000000000000000000000000000000000000000000000000000000815260206004820152602a60248201527f5361666545524332303a204552433230206f7065726174696f6e20646964206e60448201527f6f742073756363656564000000000000000000000000000000000000000000006064820152608401610638565b815482908211612cd7576040517f08c379a000000000000000000000000000000000000000000000000000000000815260206004820152601660248201527f53746f726167653a2070686173652072656163686564000000000000000000006044820152606401610638565b5550565b73ffffffffffffffffffffffffffffffffffffffff811615612d635781547fffffffffffffffffffffffff00000000000000000000000000000000000000001673ffffffffffffffffffffffffffffffffffffffff821690811783556040516000907f8be0079c531659141344cd1fd0a4f28419497f9722a3daafe3b4186f6b6457e0908290a35b610ab17f7f5828d0000000000000000000000000000000000000000000000000000000006001611c18610bc6565b7c01000000000000000000000000000000000000000000000000000000007fffffffff00000000000000000000000000000000000000000000000000000000831601612e39576040517f08c379a000000000000000000000000000000000000000000000000000000000815260206004820152601f60248201527f496e74657266616365446574656374696f6e3a2077726f6e672076616c7565006044820152606401610638565b7fffffffff00000000000000000000000000000000000000000000000000000000919091166000908152602092909252604090912080547fffffffffffffffffffffffffffffffffffffffffffffffffffffffffffffff0016911515919091179055565b6040517f4fc35859000000000000000000000000000000000000000000000000000000008082529073ffffffffffffffffffffffffffffffffffffffff851690634fc3585990612ef7908990899088908890600401613a39565b6020604051808303816000875af1158015612f16573d6000803e3d6000fd5b505050506040513d601f19601f82011682018060405250810190612f3a9190613a82565b7fffffffff000000000000000000000000000000000000000000000000000000001614610f04576040517f08c379a000000000000000000000000000000000000000000000000000000000815260206004820152601d60248201527f45524332303a2073616665207472616e736665722072656a65637465640000006044820152606401610638565b3660006105077fffffffffffffffffffffffffffffffffffffffffffffffffffffffffffffffec8301828481613a9f565b60606107198484600085856000808673ffffffffffffffffffffffffffffffffffffffff1685876040516130289190613ac9565b60006040518083038185875af1925050503d8060008114613065576040519150601f19603f3d011682016040523d82523d6000602084013e61306a565b606091505b509150915061307b87838387613086565b979650505050505050565b6060831561311c5782516000036131155773ffffffffffffffffffffffffffffffffffffffff85163b613115576040517f08c379a000000000000000000000000000000000000000000000000000000000815260206004820152601d60248201527f416464726573733a2063616c6c20746f206e6f6e2d636f6e74726163740000006044820152606401610638565b5081610719565b61071983838151156131315781518083602001fd5b806040517f08c379a0000000000000000000000000000000000000000000000000000000008152600401610638919061321e565b7fffffffff0000000000000000000000000000000000000000000000000000000081168114611be757600080fd5b6000602082840312156131a557600080fd5b8135610a8b81613165565b60005b838110156131cb5781810151838201526020016131b3565b50506000910152565b600081518084526131ec8160208601602086016131b0565b601f017fffffffffffffffffffffffffffffffffffffffffffffffffffffffffffffffe0169290920160200192915050565b602081526000610a8b60208301846131d4565b73ffffffffffffffffffffffffffffffffffffffff81168114611be757600080fd5b6000806040838503121561326657600080fd5b823561327181613231565b946020939093013593505050565b60008060006060848603121561329457600080fd5b833561329f81613231565b925060208401356132af81613231565b929592945050506040919091013590565b60208152816020820152818360408301376000818301604090810191909152601f9092017fffffffffffffffffffffffffffffffffffffffffffffffffffffffffffffffe0160101919050565b60008083601f84011261331f57600080fd5b50813567ffffffffffffffff81111561333757600080fd5b6020830191508360208260051b850101111561335257600080fd5b9250929050565b60008060008060006060868803121561337157600080fd5b853561337c81613231565b9450602086013567ffffffffffffffff8082111561339957600080fd5b6133a589838a0161330d565b909650945060408801359150808211156133be57600080fd5b506133cb8882890161330d565b969995985093965092949392505050565b6000602082840312156133ee57600080fd5b8135610a8b81613231565b6000806000806000806060878903121561341257600080fd5b863567ffffffffffffffff8082111561342a57600080fd5b6134368a838b0161330d565b9098509650602089013591508082111561344f57600080fd5b61345b8a838b0161330d565b9096509450604089013591508082111561347457600080fd5b5061348189828a0161330d565b979a9699509497509295939492505050565b600080600080604085870312156134a957600080fd5b843567ffffffffffffffff808211156134c157600080fd5b6134cd8883890161330d565b909650945060208701359150808211156134e657600080fd5b506134f38782880161330d565b95989497509550505050565b60008083601f84011261351157600080fd5b50813567ffffffffffffffff81111561352957600080fd5b60208301915083602082850101111561335257600080fd5b803560ff8116811461355257600080fd5b919050565b600080600080600080600080600060a08a8c03121561357557600080fd5b893567ffffffffffffffff8082111561358d57600080fd5b6135998d838e016134ff565b909b50995060208c01359150808211156135b257600080fd5b6135be8d838e016134ff565b90995097508791506135d260408d01613541565b965060608c01359150808211156135e857600080fd5b6135f48d838e0161330d565b909650945060808c013591508082111561360d57600080fd5b5061361a8c828d0161330d565b915080935050809150509295985092959850929598565b60008060008060006080868803121561364957600080fd5b853561365481613231565b9450602086013561366481613231565b935060408601359250606086013567ffffffffffffffff81111561368757600080fd5b6133cb888289016134ff565b600080600080600080600060e0888a0312156136ae57600080fd5b87356136b981613231565b965060208801356136c981613231565b955060408801359450606088013593506136e560808901613541565b925060a0880135915060c0880135905092959891949750929550565b6000806040838503121561371457600080fd5b823561371f81613231565b9150602083013561372f81613231565b809150509250929050565b6000806020838503121561374d57600080fd5b823567ffffffffffffffff81111561376457600080fd5b613770858286016134ff565b90969095509350505050565b6000806000806060858703121561379257600080fd5b843561379d81613231565b935060208501359250604085013567ffffffffffffffff8111156137c057600080fd5b6134f3878288016134ff565b7f4e487b7100000000000000000000000000000000000000000000000000000000600052603260045260246000fd5b81810381811115610461577f4e487b7100000000000000000000000000000000000000000000000000000000600052601160045260246000fd5b600181811c9082168061384957607f821691505b602082108103613882577f4e487b7100000000000000000000000000000000000000000000000000000000600052602260045260246000fd5b50919050565b7f4e487b7100000000000000000000000000000000000000000000000000000000600052604160045260246000fd5b601f82111561172f57600081815260208120601f850160051c810160208610156138de5750805b601f850160051c820191505b81811015610bbe578281556001016138ea565b67ffffffffffffffff83111561391557613915613888565b613929836139238354613835565b836138b7565b6000601f84116001811461397b57600085156139455750838201355b7fffffffffffffffffffffffffffffffffffffffffffffffffffffffffffffffff600387901b1c1916600186901b178355610f04565b6000838152602090207fffffffffffffffffffffffffffffffffffffffffffffffffffffffffffffffe0861690835b828110156139ca57868501358255602094850194600190920191016139aa565b5086821015613a05577fffffffffffffffffffffffffffffffffffffffffffffffffffffffffffffffff60f88860031b161c19848701351681555b505060018560011b0183555050505050565b600060208284031215613a2957600080fd5b81518015158114610a8b57600080fd5b600073ffffffffffffffffffffffffffffffffffffffff808716835280861660208401525083604083015260806060830152613a7860808301846131d4565b9695505050505050565b600060208284031215613a9457600080fd5b8151610a8b81613165565b60008085851115613aaf57600080fd5b83861115613abc57600080fd5b5050820193919092039150565b60008251613adb8184602087016131b0565b919091019291505056fea26469706673582212204cc91ddf24072aaedbd660a3624856e7a7ad552121e518ae457e5bea8c45d20b64736f6c63430008110033",
  "linkReferences": {},
  "deployedLinkReferences": {}
}