{
  "_format": "hh-sol-artifact-1",
  "contractName": "MultiStaticCall",
  "sourceName": "contracts/utils/MultiStaticCall.sol",
  "abi": [
    {
      "inputs": [
        {
          "internalType": "address",
          "name": "target",
          "type": "address"
        },
        {
          "internalType": "bytes",
          "name": "data",
          "type": "bytes"
        }
      ],
      "name": "StaticCallReverted",
      "type": "error"
    },
    {
      "inputs": [
        {
          "internalType": "bool",
          "name": "requireSuccess",
          "type": "bool"
        },
        {
          "components": [
            {
              "internalType": "address",
              "name": "target",
              "type": "address"
            },
            {
              "internalType": "bytes",
              "name": "callData",
              "type": "bytes"
            }
          ],
          "internalType": "struct MultiStaticCall.Call[]",
          "name": "calls",
          "type": "tuple[]"
        }
      ],
      "name": "tryAggregate",
      "outputs": [
        {
          "components": [
            {
              "internalType": "bool",
              "name": "success",
              "type": "bool"
            },
            {
              "internalType": "bytes",
              "name": "returnData",
              "type": "bytes"
            }
          ],
          "internalType": "struct MultiStaticCall.Result[]",
          "name": "returnData",
          "type": "tuple[]"
        }
      ],
      "stateMutability": "view",
      "type": "function"
    },
    {
      "inputs": [
        {
          "internalType": "bool",
          "name": "requireSuccess",
          "type": "bool"
        },
        {
          "components": [
            {
              "internalType": "address",
              "name": "target",
              "type": "address"
            },
            {
              "internalType": "bytes",
              "name": "callData",
              "type": "bytes"
            }
          ],
          "internalType": "struct MultiStaticCall.Call[]",
          "name": "calls",
          "type": "tuple[]"
        }
      ],
      "name": "tryBlockAndAggregate",
      "outputs": [
        {
          "internalType": "uint256",
          "name": "blockNumber",
          "type": "uint256"
        },
        {
          "components": [
            {
              "internalType": "bool",
              "name": "success",
              "type": "bool"
            },
            {
              "internalType": "bytes",
              "name": "returnData",
              "type": "bytes"
            }
          ],
          "internalType": "struct MultiStaticCall.Result[]",
          "name": "returnData",
          "type": "tuple[]"
        }
      ],
      "stateMutability": "view",
      "type": "function"
    }
  ],
  "bytecode": "0x608060405234801561001057600080fd5b50610611806100206000396000f3fe608060405234801561001057600080fd5b50600436106100365760003560e01c8063399542e91461003b578063bce38bd714610065575b600080fd5b61004e610049366004610297565b610085565b60405161005c9291906103e8565b60405180910390f35b610078610073366004610297565b61009d565b60405161005c9190610409565b43606061009385858561009d565b9050935093915050565b6060818067ffffffffffffffff8111156100b9576100b9610423565b6040519080825280602002602001820160405280156100ff57816020015b6040805180820190915260008152606060208201528152602001906001900390816100d75790505b50915060005b81811461028e57600085858381811061012057610120610452565b90506020028101906101329190610481565b6101409060208101906104bf565b905036600087878581811061015757610157610452565b90506020028101906101699190610481565b6101779060208101906104f5565b915091506000808473ffffffffffffffffffffffffffffffffffffffff1684846040516101a5929190610561565b600060405180830381855afa9150503d80600081146101e0576040519150601f19603f3d011682016040523d82523d6000602084013e6101e5565b606091505b50915091508a80156101f5575081155b1561024a5780518015610209578082602001fd5b8585856040517f1199c44200000000000000000000000000000000000000000000000000000000815260040161024193929190610571565b60405180910390fd5b604051806040016040528083151581526020018281525088878151811061027357610273610452565b60200260200101819052505050505050806001019050610105565b50509392505050565b6000806000604084860312156102ac57600080fd5b833580151581146102bc57600080fd5b9250602084013567ffffffffffffffff808211156102d957600080fd5b818601915086601f8301126102ed57600080fd5b8135818111156102fc57600080fd5b8760208260051b850101111561031157600080fd5b6020830194508093505050509250925092565b600082825180855260208086019550808260051b8401018186016000805b858110156103da577fffffffffffffffffffffffffffffffffffffffffffffffffffffffffffffffe087850381018b5283518051151586528601516040878701819052815190870181905284905b808210156103ae578282018901518883016060015290880190610390565b87810160609081018790529d89019d601f90910190931690960190910194505091840191600101610342565b509198975050505050505050565b8281526040602082015260006104016040830184610324565b949350505050565b60208152600061041c6020830184610324565b9392505050565b7f4e487b7100000000000000000000000000000000000000000000000000000000600052604160045260246000fd5b7f4e487b7100000000000000000000000000000000000000000000000000000000600052603260045260246000fd5b600082357fffffffffffffffffffffffffffffffffffffffffffffffffffffffffffffffc18336030181126104b557600080fd5b9190910192915050565b6000602082840312156104d157600080fd5b813573ffffffffffffffffffffffffffffffffffffffff8116811461041c57600080fd5b60008083357fffffffffffffffffffffffffffffffffffffffffffffffffffffffffffffffe184360301811261052a57600080fd5b83018035915067ffffffffffffffff82111561054557600080fd5b60200191503681900382131561055a57600080fd5b9250929050565b8183823760009101908152919050565b73ffffffffffffffffffffffffffffffffffffffff8416815260406020820152816040820152818360608301376000818301606090810191909152601f9092017fffffffffffffffffffffffffffffffffffffffffffffffffffffffffffffffe01601019291505056fea264697066735822122037009abeb835774d878d4f54fc67b7b030525ea49c836a0c69f4f9ff28aa024a64736f6c63430008150033",
  "linkReferences": {},
  "deployedLinkReferences": {}
}