{
  "_format": "hh-sol-artifact-1",
  "contractName": "ERC721TokenMetadataWithBaseURIFacetMock",
  "sourceName": "contracts/mocks/token/ERC721/ERC721TokenMetadataWithBaseURIFacetMock.sol",
  "abi": [
    {
      "inputs": [
        {
          "internalType": "contract IForwarderRegistry",
          "name": "forwarderRegistry",
          "type": "address"
        }
      ],
      "stateMutability": "nonpayable",
      "type": "constructor"
    },
    {
      "inputs": [],
      "name": "__msgData",
      "outputs": [
        {
          "internalType": "bytes",
          "name": "",
          "type": "bytes"
        }
      ],
      "stateMutability": "view",
      "type": "function"
    },
    {
      "inputs": [
        {
          "internalType": "string",
          "name": "name",
          "type": "string"
        },
        {
          "internalType": "string",
          "name": "symbol",
          "type": "string"
        },
        {
          "internalType": "string",
          "name": "uri",
          "type": "string"
        }
      ],
      "name": "initERC721MetadataStorageWithBaseURIStorage",
      "outputs": [],
      "stateMutability": "nonpayable",
      "type": "function"
    },
    {
      "inputs": [],
      "name": "name",
      "outputs": [
        {
          "internalType": "string",
          "name": "",
          "type": "string"
        }
      ],
      "stateMutability": "view",
      "type": "function"
    },
    {
      "inputs": [],
      "name": "symbol",
      "outputs": [
        {
          "internalType": "string",
          "name": "",
          "type": "string"
        }
      ],
      "stateMutability": "view",
      "type": "function"
    },
    {
      "inputs": [
        {
          "internalType": "uint256",
          "name": "tokenId",
          "type": "uint256"
        }
      ],
      "name": "tokenURI",
      "outputs": [
        {
          "internalType": "string",
          "name": "",
          "type": "string"
        }
      ],
      "stateMutability": "view",
      "type": "function"
    }
  ],
  "bytecode": "0x60a060405234801561001057600080fd5b5060405161105c38038061105c83398101604081905261002f91610040565b6001600160a01b0316608052610070565b60006020828403121561005257600080fd5b81516001600160a01b038116811461006957600080fd5b9392505050565b608051610fbc6100a0600039600081816106000152818161066a015281816107a801526108480152610fbc6000f3fe608060405234801561001057600080fd5b50600436106100675760003560e01c80634f84ff91116100505780634f84ff91146100a057806395d89b41146100b5578063c87b56dd146100bd57600080fd5b806306fdde031461006c57806331e66e1e1461008a575b600080fd5b6100746100d0565b6040516100819190610bb6565b60405180910390f35b6100926100e7565b604051610081929190610c07565b6100b36100ae366004610d2e565b6100fa565b005b61007461012e565b6100746100cb366004610db6565b610140565b60606100e26100dd61021c565b610250565b905090565b3660006100f26102e6565b915091509091565b6101136101056102f1565b61010d6102fb565b90610329565b6101298383836101216103b0565b9291906103de565b505050565b60606100e261013b61021c565b610475565b6060600061014c610486565b6000848152600191909101602052604090205473ffffffffffffffffffffffffffffffffffffffff16036101e1576040517f08c379a000000000000000000000000000000000000000000000000000000000815260206004820152601860248201527f4552433732313a206e6f6e2d6578697374696e67204e4654000000000000000060448201526064015b60405180910390fd5b6101ec6100dd6103b0565b6101f5836104b4565b604051602001610206929190610dcf565b6040516020818303038152906040529050919050565b60008061024a60017f9c4269c0f9f430d98876ffe9767fbf3f3232ea91a549beb549e5329532520eb3610e2d565b92915050565b606081600001805461026190610e44565b80601f016020809104026020016040519081016040528092919081815260200182805461028d90610e44565b80156102da5780601f106102af576101008083540402835291602001916102da565b820191906000526020600020905b8154815290600101906020018083116102bd57829003601f168201915b50505050509050919050565b3660006100f26105e8565b60006100e261076c565b60008061024a60017fb53127684a568b3173ae13b9f8a6016e243e63b6e8ee1178d6a717850b5d6104610e2d565b815473ffffffffffffffffffffffffffffffffffffffff8281169116146103ac576040517f08c379a000000000000000000000000000000000000000000000000000000000815260206004820152601960248201527f50726f787941646d696e3a206e6f74207468652061646d696e0000000000000060448201526064016101d8565b5050565b60008061024a60017f5f5773833f4966721eb3773ed87c7208ea74d78f0d94de1d8074345cac67333f610e2d565b61041361040c60017fdf2ee7965c9504dc84db8f7759fc283282800c5a2fa3704c9f07f446b3b40a3f610e2d565b60016108c4565b610427838361042061021c565b9190610934565b80516104399085906020840190610af1565b5061046f7f5b5e139f0000000000000000000000000000000000000000000000000000000060016104686109b5565b91906109e3565b50505050565b606081600101805461026190610e44565b60008061024a60017fddf3ee18ae6d688373c219468f8be446e7ae82215f4779d821c7ea5e8c13c0c1610e2d565b6060816000036104f757505060408051808201909152600181527f3000000000000000000000000000000000000000000000000000000000000000602082015290565b8160005b8115610521578061050b81610e91565b915061051a9050600a83610ec9565b91506104fb565b60008167ffffffffffffffff81111561053c5761053c610c54565b6040519080825280601f01601f191660200182016040528015610566576020820181803683370190505b5090506000610576600184610e2d565b90508593505b83156105df57600a840660300160f81b828280600190039350815181106105a5576105a5610f04565b60200101907effffffffffffffffffffffffffffffffffffffffffffffffffffffffffffff1916908160001a905350600a8404935061057c565b50949350505050565b366000333281036105fe57506000923692509050565b7f000000000000000000000000000000000000000000000000000000000000000073ffffffffffffffffffffffffffffffffffffffff168173ffffffffffffffffffffffffffffffffffffffff16148061074b575073ffffffffffffffffffffffffffffffffffffffff7f00000000000000000000000000000000000000000000000000000000000000001663e60125d6367fffffffffffffffffffffffffffffffffffffffffffffffffffffffffffffffec013560601c6040517fffffffff0000000000000000000000000000000000000000000000000000000060e084901b16815273ffffffffffffffffffffffffffffffffffffffff91821660048201529084166024820152604401602060405180830381865afa158015610727573d6000803e3d6000fd5b505050506040513d601f19601f8201168201806040525081019061074b9190610f33565b1561076157610758610ad3565b92509250509091565b506000923692509050565b60003332810361077b57919050565b6000367fffffffffffffffffffffffffffffffffffffffffffffffffffffffffffffffec013560601c90507f000000000000000000000000000000000000000000000000000000000000000073ffffffffffffffffffffffffffffffffffffffff168273ffffffffffffffffffffffffffffffffffffffff1614806108b357506040517fe60125d600000000000000000000000000000000000000000000000000000000815273ffffffffffffffffffffffffffffffffffffffff828116600483015283811660248301527f0000000000000000000000000000000000000000000000000000000000000000169063e60125d690604401602060405180830381865afa15801561088f573d6000803e3d6000fd5b505050506040513d601f19601f820116820180604052508101906108b39190610f33565b156108be5792915050565b50919050565b815482908211610930576040517f08c379a000000000000000000000000000000000000000000000000000000000815260206004820152601860248201527f53746f726167653a2076657273696f6e2072656163686564000000000000000060448201526064016101d8565b5550565b61096261040c60017fa057eeb6560fae2987973d3bf40b89e6da66dd0b6aadac05dc6b5b0d7a8d4557610e2d565b81516109749084906020850190610af1565b50805161098a9060018501906020840190610af1565b506101297f5b5e139f0000000000000000000000000000000000000000000000000000000060016104685b60008061024a60017fca9d3e17f264b0f3984e2634e94adb37fa3e6a8103f06aeae6fa59e21c769f5e610e2d565b7fffffffff000000000000000000000000000000000000000000000000000000008083169003610a6f576040517f08c379a000000000000000000000000000000000000000000000000000000000815260206004820152601f60248201527f496e74657266616365446574656374696f6e3a2077726f6e672076616c75650060448201526064016101d8565b7fffffffff00000000000000000000000000000000000000000000000000000000919091166000908152602092909252604090912080547fffffffffffffffffffffffffffffffffffffffffffffffffffffffffffffff0016911515919091179055565b366000808083610ae4601482610e2d565b926100f293929190610f5c565b828054610afd90610e44565b90600052602060002090601f016020900481019282610b1f5760008555610b65565b82601f10610b3857805160ff1916838001178555610b65565b82800160010185558215610b65579182015b82811115610b65578251825591602001919060010190610b4a565b50610b71929150610b75565b5090565b5b80821115610b715760008155600101610b76565b60005b83811015610ba5578181015183820152602001610b8d565b8381111561046f5750506000910152565b6020815260008251806020840152610bd5816040850160208701610b8a565b601f017fffffffffffffffffffffffffffffffffffffffffffffffffffffffffffffffe0169190910160400192915050565b60208152816020820152818360408301376000818301604090810191909152601f9092017fffffffffffffffffffffffffffffffffffffffffffffffffffffffffffffffe0160101919050565b7f4e487b7100000000000000000000000000000000000000000000000000000000600052604160045260246000fd5b600082601f830112610c9457600080fd5b813567ffffffffffffffff80821115610caf57610caf610c54565b604051601f83017fffffffffffffffffffffffffffffffffffffffffffffffffffffffffffffffe0908116603f01168101908282118183101715610cf557610cf5610c54565b81604052838152866020858801011115610d0e57600080fd5b836020870160208301376000602085830101528094505050505092915050565b600080600060608486031215610d4357600080fd5b833567ffffffffffffffff80821115610d5b57600080fd5b610d6787838801610c83565b94506020860135915080821115610d7d57600080fd5b610d8987838801610c83565b93506040860135915080821115610d9f57600080fd5b50610dac86828701610c83565b9150509250925092565b600060208284031215610dc857600080fd5b5035919050565b60008351610de1818460208801610b8a565b835190830190610df5818360208801610b8a565b01949350505050565b7f4e487b7100000000000000000000000000000000000000000000000000000000600052601160045260246000fd5b600082821015610e3f57610e3f610dfe565b500390565b600181811c90821680610e5857607f821691505b6020821081036108be577f4e487b7100000000000000000000000000000000000000000000000000000000600052602260045260246000fd5b60007fffffffffffffffffffffffffffffffffffffffffffffffffffffffffffffffff8203610ec257610ec2610dfe565b5060010190565b600082610eff577f4e487b7100000000000000000000000000000000000000000000000000000000600052601260045260246000fd5b500490565b7f4e487b7100000000000000000000000000000000000000000000000000000000600052603260045260246000fd5b600060208284031215610f4557600080fd5b81518015158114610f5557600080fd5b9392505050565b60008085851115610f6c57600080fd5b83861115610f7957600080fd5b505082019391909203915056fea2646970667358221220fd467e10e50285f0b805d12b501c88b6a672d4b1dd6f592766a0a0f07f0c0bd164736f6c634300080e0033",
  "linkReferences": {},
  "deployedLinkReferences": {}
}