{
  "_format": "hh-sol-artifact-1",
  "contractName": "ERC721TokenMetadataWithBaseURIFacetMock",
  "sourceName": "contracts/mocks/token/ERC721/ERC721TokenMetadataWithBaseURIFacetMock.sol",
  "abi": [
    {
      "inputs": [
        {
          "internalType": "contract IForwarderRegistry",
          "name": "forwarderRegistry",
          "type": "address"
        }
      ],
      "stateMutability": "nonpayable",
      "type": "constructor"
    },
    {
      "anonymous": false,
      "inputs": [
        {
          "indexed": true,
          "internalType": "string",
          "name": "baseMetadataURI",
          "type": "string"
        }
      ],
      "name": "BaseMetadataURISet",
      "type": "event"
    },
    {
      "inputs": [],
      "name": "__msgData",
      "outputs": [
        {
          "internalType": "bytes",
          "name": "",
          "type": "bytes"
        }
      ],
      "stateMutability": "view",
      "type": "function"
    },
    {
      "inputs": [],
      "name": "baseMetadataURI",
      "outputs": [
        {
          "internalType": "string",
          "name": "",
          "type": "string"
        }
      ],
      "stateMutability": "view",
      "type": "function"
    },
    {
      "inputs": [
        {
          "internalType": "string",
          "name": "name",
          "type": "string"
        },
        {
          "internalType": "string",
          "name": "symbol",
          "type": "string"
        },
        {
          "internalType": "string",
          "name": "uri",
          "type": "string"
        }
      ],
      "name": "initERC721MetadataWithBaseURIStorage",
      "outputs": [],
      "stateMutability": "nonpayable",
      "type": "function"
    },
    {
      "inputs": [],
      "name": "name",
      "outputs": [
        {
          "internalType": "string",
          "name": "",
          "type": "string"
        }
      ],
      "stateMutability": "view",
      "type": "function"
    },
    {
      "inputs": [
        {
          "internalType": "string",
          "name": "baseMetadataURI_",
          "type": "string"
        }
      ],
      "name": "setBaseMetadataURI",
      "outputs": [],
      "stateMutability": "nonpayable",
      "type": "function"
    },
    {
      "inputs": [],
      "name": "symbol",
      "outputs": [
        {
          "internalType": "string",
          "name": "",
          "type": "string"
        }
      ],
      "stateMutability": "view",
      "type": "function"
    },
    {
      "inputs": [
        {
          "internalType": "uint256",
          "name": "tokenId",
          "type": "uint256"
        }
      ],
      "name": "tokenURI",
      "outputs": [
        {
          "internalType": "string",
          "name": "",
          "type": "string"
        }
      ],
      "stateMutability": "view",
      "type": "function"
    }
  ],
  "bytecode": "0x60a060405234801561001057600080fd5b506040516113b93803806113b983398101604081905261002f91610040565b6001600160a01b0316608052610070565b60006020828403121561005257600080fd5b81516001600160a01b038116811461006957600080fd5b9392505050565b6080516113196100a06000396000818161061601528181610680015281816107be015261085e01526113196000f3fe608060405234801561001057600080fd5b506004361061007d5760003560e01c80636d4c554d1161005b5780636d4c554d146100be5780637e518ec8146100d357806395d89b41146100e6578063c87b56dd146100ee57600080fd5b806306fdde031461008257806331e66e1e146100a05780635b2bd79e146100b6575b600080fd5b61008a610101565b6040516100979190610dce565b60405180910390f35b6100a8610118565b604051610097929190610e1f565b61008a61012b565b6100d16100cc366004610f46565b610138565b005b6100d16100e1366004610fce565b61016c565b61008a61019d565b61008a6100fc366004611040565b6101af565b606061011361010e6101dc565b61020a565b905090565b3660006101236102a0565b915091509091565b606061011361010e6102ab565b6101516101436102d9565b61014b6102e3565b90610311565b61016783838361015f6102ab565b929190610399565b505050565b6101856101776102d9565b61017f6103f4565b90610422565b61019982826101926102ab565b91906104a5565b5050565b60606101136101aa6101dc565b6104f6565b60606101c3826101bd610507565b90610535565b506101d6826101d06102ab565b906105ca565b92915050565b6000806101d660017f9c4269c0f9f430d98876ffe9767fbf3f3232ea91a549beb549e5329532520eb3611088565b606081600001805461021b9061109f565b80601f01602080910402602001604051908101604052809291908181526020018280546102479061109f565b80156102945780601f1061026957610100808354040283529160200191610294565b820191906000526020600020905b81548152906001019060200180831161027757829003601f168201915b50505050509050919050565b3660006101236105fe565b6000806101d660017f5f5773833f4966721eb3773ed87c7208ea74d78f0d94de1d8074345cac67333f611088565b6000610113610782565b6000806101d660017fb53127684a568b3173ae13b9f8a6016e243e63b6e8ee1178d6a717850b5d6104611088565b815473ffffffffffffffffffffffffffffffffffffffff828116911614610199576040517f08c379a000000000000000000000000000000000000000000000000000000000815260206004820152601960248201527f50726f787941646d696e3a206e6f74207468652061646d696e0000000000000060448201526064015b60405180910390fd5b6103ce6103c760017fdf2ee7965c9504dc84db8f7759fc283282800c5a2fa3704c9f07f446b3b40a3f611088565b60016108da565b6103e283836103db6101dc565b919061094a565b6103ee84848484610983565b50505050565b6000806101d660017fc9ed16f33ab3a66c84bfd83099ccb2a8845871e2e1c1928f63797152f0fd54cd611088565b815473ffffffffffffffffffffffffffffffffffffffff828116911614610199576040517f08c379a000000000000000000000000000000000000000000000000000000000815260206004820152601860248201527f4f776e6572736869703a206e6f7420746865206f776e657200000000000000006044820152606401610390565b6104b0838383610c77565b5081816040516104c19291906110ec565b604051908190038120907f04b1dc5c136a3ce9fded8db0ce3d3366c58764ec3a8e4c2b9e52e4ddfe5ebbf790600090a2505050565b606081600101805461021b9061109f565b6000806101d660017fddf3ee18ae6d688373c219468f8be446e7ae82215f4779d821c7ea5e8c13c0c1611088565b600081815260018301602052604081205473ffffffffffffffffffffffffffffffffffffffff81166105c3576040517f08c379a000000000000000000000000000000000000000000000000000000000815260206004820152601860248201527f4552433732313a206e6f6e2d6578697374696e67204e465400000000000000006044820152606401610390565b9392505050565b6060826105d6836109df565b6040516020016105e7929190611118565b604051602081830303815290604052905092915050565b3660003332810361061457506000923692509050565b7f000000000000000000000000000000000000000000000000000000000000000073ffffffffffffffffffffffffffffffffffffffff168173ffffffffffffffffffffffffffffffffffffffff161480610761575073ffffffffffffffffffffffffffffffffffffffff7f00000000000000000000000000000000000000000000000000000000000000001663e60125d6367fffffffffffffffffffffffffffffffffffffffffffffffffffffffffffffffec013560601c6040517fffffffff0000000000000000000000000000000000000000000000000000000060e084901b16815273ffffffffffffffffffffffffffffffffffffffff91821660048201529084166024820152604401602060405180830381865afa15801561073d573d6000803e3d6000fd5b505050506040513d601f19601f8201168201806040525081019061076191906111f5565b156107775761076e610b13565b92509250509091565b506000923692509050565b60003332810361079157919050565b6000367fffffffffffffffffffffffffffffffffffffffffffffffffffffffffffffffec013560601c90507f000000000000000000000000000000000000000000000000000000000000000073ffffffffffffffffffffffffffffffffffffffff168273ffffffffffffffffffffffffffffffffffffffff1614806108c957506040517fe60125d600000000000000000000000000000000000000000000000000000000815273ffffffffffffffffffffffffffffffffffffffff828116600483015283811660248301527f0000000000000000000000000000000000000000000000000000000000000000169063e60125d690604401602060405180830381865afa1580156108a5573d6000803e3d6000fd5b505050506040513d601f19601f820116820180604052508101906108c991906111f5565b156108d45792915050565b50919050565b815482908211610946576040517f08c379a000000000000000000000000000000000000000000000000000000000815260206004820152601860248201527f53746f726167653a2076657273696f6e207265616368656400000000000000006044820152606401610390565b5550565b6109786103c760017fa057eeb6560fae2987973d3bf40b89e6da66dd0b6aadac05dc6b5b0d7a8d4557611088565b610167838383610b31565b61099783836109906101dc565b9190610b31565b80516109a99085906020840190610d19565b506103ee7f5b5e139f0000000000000000000000000000000000000000000000000000000060016109d8610b59565b9190610b87565b606081600003610a2257505060408051808201909152600181527f3000000000000000000000000000000000000000000000000000000000000000602082015290565b8160005b8115610a4c5780610a3681611217565b9150610a459050600a8361124f565b9150610a26565b60008167ffffffffffffffff811115610a6757610a67610e6c565b6040519080825280601f01601f191660200182016040528015610a91576020820181803683370190505b5090506000610aa1600184611088565b90508593505b8315610b0a57600a840660300160f81b82828060019003935081518110610ad057610ad061128a565b60200101907effffffffffffffffffffffffffffffffffffffffffffffffffffffffffffff1916908160001a905350600a84049350610aa7565b50949350505050565b366000808083610b24601482611088565b92610123939291906112b9565b8151610b439084906020850190610d19565b5080516103ee9060018501906020840190610d19565b6000806101d660017fca9d3e17f264b0f3984e2634e94adb37fa3e6a8103f06aeae6fa59e21c769f5e611088565b7fffffffff000000000000000000000000000000000000000000000000000000008083169003610c13576040517f08c379a000000000000000000000000000000000000000000000000000000000815260206004820152601f60248201527f496e74657266616365446574656374696f6e3a2077726f6e672076616c7565006044820152606401610390565b7fffffffff00000000000000000000000000000000000000000000000000000000919091166000908152602092909252604090912080547fffffffffffffffffffffffffffffffffffffffffffffffffffffffffffffff0016911515919091179055565b828054610c839061109f565b90600052602060002090601f016020900481019282610ca55760008555610d09565b82601f10610cdc578280017fffffffffffffffffffffffffffffffffffffffffffffffffffffffffffffff00823516178555610d09565b82800160010185558215610d09579182015b82811115610d09578235825591602001919060010190610cee565b50610d15929150610d8d565b5090565b828054610d259061109f565b90600052602060002090601f016020900481019282610d475760008555610d09565b82601f10610d6057805160ff1916838001178555610d09565b82800160010185558215610d09579182015b82811115610d09578251825591602001919060010190610d72565b5b80821115610d155760008155600101610d8e565b60005b83811015610dbd578181015183820152602001610da5565b838111156103ee5750506000910152565b6020815260008251806020840152610ded816040850160208701610da2565b601f017fffffffffffffffffffffffffffffffffffffffffffffffffffffffffffffffe0169190910160400192915050565b60208152816020820152818360408301376000818301604090810191909152601f9092017fffffffffffffffffffffffffffffffffffffffffffffffffffffffffffffffe0160101919050565b7f4e487b7100000000000000000000000000000000000000000000000000000000600052604160045260246000fd5b600082601f830112610eac57600080fd5b813567ffffffffffffffff80821115610ec757610ec7610e6c565b604051601f83017fffffffffffffffffffffffffffffffffffffffffffffffffffffffffffffffe0908116603f01168101908282118183101715610f0d57610f0d610e6c565b81604052838152866020858801011115610f2657600080fd5b836020870160208301376000602085830101528094505050505092915050565b600080600060608486031215610f5b57600080fd5b833567ffffffffffffffff80821115610f7357600080fd5b610f7f87838801610e9b565b94506020860135915080821115610f9557600080fd5b610fa187838801610e9b565b93506040860135915080821115610fb757600080fd5b50610fc486828701610e9b565b9150509250925092565b60008060208385031215610fe157600080fd5b823567ffffffffffffffff80821115610ff957600080fd5b818501915085601f83011261100d57600080fd5b81358181111561101c57600080fd5b86602082850101111561102e57600080fd5b60209290920196919550909350505050565b60006020828403121561105257600080fd5b5035919050565b7f4e487b7100000000000000000000000000000000000000000000000000000000600052601160045260246000fd5b60008282101561109a5761109a611059565b500390565b600181811c908216806110b357607f821691505b6020821081036108d4577f4e487b7100000000000000000000000000000000000000000000000000000000600052602260045260246000fd5b8183823760009101908152919050565b6000815161110e818560208601610da2565b9290920192915050565b600080845481600182811c91508083168061113457607f831692505b6020808410820361116c577f4e487b710000000000000000000000000000000000000000000000000000000086526022600452602486fd5b81801561118057600181146111af576111dc565b7fffffffffffffffffffffffffffffffffffffffffffffffffffffffffffffff008616895284890196506111dc565b60008b81526020902060005b868110156111d45781548b8201529085019083016111bb565b505084890196505b5050505050506111ec81856110fc565b95945050505050565b60006020828403121561120757600080fd5b815180151581146105c357600080fd5b60007fffffffffffffffffffffffffffffffffffffffffffffffffffffffffffffffff820361124857611248611059565b5060010190565b600082611285577f4e487b7100000000000000000000000000000000000000000000000000000000600052601260045260246000fd5b500490565b7f4e487b7100000000000000000000000000000000000000000000000000000000600052603260045260246000fd5b600080858511156112c957600080fd5b838611156112d657600080fd5b505082019391909203915056fea264697066735822122080029d9ad6c6b7a3d22084edd10fa2cd136750ee2779e25be955a36e8fc0b38f64736f6c634300080e0033",
  "linkReferences": {},
  "deployedLinkReferences": {}
}