{
  "_format": "hh-sol-artifact-1",
  "contractName": "ERC721TokenMetadataWithBaseURIFacetMock",
  "sourceName": "contracts/mocks/token/ERC721/ERC721TokenMetadataWithBaseURIFacetMock.sol",
  "abi": [
    {
      "inputs": [
        {
          "internalType": "contract IForwarderRegistry",
          "name": "forwarderRegistry",
          "type": "address"
        }
      ],
      "stateMutability": "nonpayable",
      "type": "constructor"
    },
    {
      "anonymous": false,
      "inputs": [
        {
          "indexed": true,
          "internalType": "string",
          "name": "baseMetadataURI",
          "type": "string"
        }
      ],
      "name": "BaseMetadataURISet",
      "type": "event"
    },
    {
      "inputs": [],
      "name": "__msgData",
      "outputs": [
        {
          "internalType": "bytes",
          "name": "",
          "type": "bytes"
        }
      ],
      "stateMutability": "view",
      "type": "function"
    },
    {
      "inputs": [],
      "name": "baseMetadataURI",
      "outputs": [
        {
          "internalType": "string",
          "name": "",
          "type": "string"
        }
      ],
      "stateMutability": "view",
      "type": "function"
    },
    {
      "inputs": [
        {
          "internalType": "string",
          "name": "name",
          "type": "string"
        },
        {
          "internalType": "string",
          "name": "symbol",
          "type": "string"
        },
        {
          "internalType": "string",
          "name": "uri",
          "type": "string"
        }
      ],
      "name": "initERC721MetadataWithBaseURIStorage",
      "outputs": [],
      "stateMutability": "nonpayable",
      "type": "function"
    },
    {
      "inputs": [],
      "name": "name",
      "outputs": [
        {
          "internalType": "string",
          "name": "",
          "type": "string"
        }
      ],
      "stateMutability": "view",
      "type": "function"
    },
    {
      "inputs": [
        {
          "internalType": "string",
          "name": "baseMetadataURI_",
          "type": "string"
        }
      ],
      "name": "setBaseMetadataURI",
      "outputs": [],
      "stateMutability": "nonpayable",
      "type": "function"
    },
    {
      "inputs": [],
      "name": "symbol",
      "outputs": [
        {
          "internalType": "string",
          "name": "",
          "type": "string"
        }
      ],
      "stateMutability": "view",
      "type": "function"
    },
    {
      "inputs": [
        {
          "internalType": "uint256",
          "name": "tokenId",
          "type": "uint256"
        }
      ],
      "name": "tokenURI",
      "outputs": [
        {
          "internalType": "string",
          "name": "",
          "type": "string"
        }
      ],
      "stateMutability": "view",
      "type": "function"
    }
  ],
  "bytecode": "0x60a060405234801561001057600080fd5b5060405161138e38038061138e83398101604081905261002f91610040565b6001600160a01b0316608052610070565b60006020828403121561005257600080fd5b81516001600160a01b038116811461006957600080fd5b9392505050565b6080516112ee6100a060003960008181610652015281816106bc015281816107fa015261089a01526112ee6000f3fe608060405234801561001057600080fd5b506004361061007d5760003560e01c80636d4c554d1161005b5780636d4c554d146100be5780637e518ec8146100d357806395d89b41146100e6578063c87b56dd146100ee57600080fd5b806306fdde031461008257806331e66e1e146100a05780635b2bd79e146100b6575b600080fd5b61008a610101565b6040516100979190610da3565b60405180910390f35b6100a8610118565b604051610097929190610df4565b61008a61012b565b6100d16100cc366004610f1b565b610138565b005b6100d16100e1366004610fa3565b61016c565b61008a61019d565b61008a6100fc366004611015565b6101af565b606061011361010e6101dc565b61020a565b905090565b3660006101236102a0565b915091509091565b606061011361010e6102ab565b6101516101436102d9565b61014b6102e3565b90610311565b61016783838361015f6102ab565b929190610399565b505050565b6101856101776102d9565b61017f610430565b9061045e565b61019982826101926102ab565b91906104e1565b5050565b60606101136101aa6101dc565b610532565b60606101c3826101bd610543565b90610571565b506101d6826101d06102ab565b90610606565b92915050565b6000806101d660017f9c4269c0f9f430d98876ffe9767fbf3f3232ea91a549beb549e5329532520eb361105d565b606081600001805461021b90611074565b80601f016020809104026020016040519081016040528092919081815260200182805461024790611074565b80156102945780601f1061026957610100808354040283529160200191610294565b820191906000526020600020905b81548152906001019060200180831161027757829003601f168201915b50505050509050919050565b36600061012361063a565b6000806101d660017f5f5773833f4966721eb3773ed87c7208ea74d78f0d94de1d8074345cac67333f61105d565b60006101136107be565b6000806101d660017fb53127684a568b3173ae13b9f8a6016e243e63b6e8ee1178d6a717850b5d610461105d565b815473ffffffffffffffffffffffffffffffffffffffff828116911614610199576040517f08c379a000000000000000000000000000000000000000000000000000000000815260206004820152601960248201527f50726f787941646d696e3a206e6f74207468652061646d696e0000000000000060448201526064015b60405180910390fd5b6103ce6103c760017fdf2ee7965c9504dc84db8f7759fc283282800c5a2fa3704c9f07f446b3b40a3f61105d565b6001610916565b6103e283836103db6101dc565b9190610986565b80516103f49085906020840190610c4c565b5061042a7f5b5e139f0000000000000000000000000000000000000000000000000000000060016104236109dc565b9190610a0a565b50505050565b6000806101d660017fc9ed16f33ab3a66c84bfd83099ccb2a8845871e2e1c1928f63797152f0fd54cd61105d565b815473ffffffffffffffffffffffffffffffffffffffff828116911614610199576040517f08c379a000000000000000000000000000000000000000000000000000000000815260206004820152601860248201527f4f776e6572736869703a206e6f7420746865206f776e657200000000000000006044820152606401610390565b6104ec838383610cd0565b5081816040516104fd9291906110c1565b604051908190038120907f04b1dc5c136a3ce9fded8db0ce3d3366c58764ec3a8e4c2b9e52e4ddfe5ebbf790600090a2505050565b606081600101805461021b90611074565b6000806101d660017fddf3ee18ae6d688373c219468f8be446e7ae82215f4779d821c7ea5e8c13c0c161105d565b600081815260018301602052604081205473ffffffffffffffffffffffffffffffffffffffff81166105ff576040517f08c379a000000000000000000000000000000000000000000000000000000000815260206004820152601860248201527f4552433732313a206e6f6e2d6578697374696e67204e465400000000000000006044820152606401610390565b9392505050565b60608261061283610afa565b6040516020016106239291906110ed565b604051602081830303815290604052905092915050565b3660003332810361065057506000923692509050565b7f000000000000000000000000000000000000000000000000000000000000000073ffffffffffffffffffffffffffffffffffffffff168173ffffffffffffffffffffffffffffffffffffffff16148061079d575073ffffffffffffffffffffffffffffffffffffffff7f00000000000000000000000000000000000000000000000000000000000000001663e60125d6367fffffffffffffffffffffffffffffffffffffffffffffffffffffffffffffffec013560601c6040517fffffffff0000000000000000000000000000000000000000000000000000000060e084901b16815273ffffffffffffffffffffffffffffffffffffffff91821660048201529084166024820152604401602060405180830381865afa158015610779573d6000803e3d6000fd5b505050506040513d601f19601f8201168201806040525081019061079d91906111ca565b156107b3576107aa610c2e565b92509250509091565b506000923692509050565b6000333281036107cd57919050565b6000367fffffffffffffffffffffffffffffffffffffffffffffffffffffffffffffffec013560601c90507f000000000000000000000000000000000000000000000000000000000000000073ffffffffffffffffffffffffffffffffffffffff168273ffffffffffffffffffffffffffffffffffffffff16148061090557506040517fe60125d600000000000000000000000000000000000000000000000000000000815273ffffffffffffffffffffffffffffffffffffffff828116600483015283811660248301527f0000000000000000000000000000000000000000000000000000000000000000169063e60125d690604401602060405180830381865afa1580156108e1573d6000803e3d6000fd5b505050506040513d601f19601f8201168201806040525081019061090591906111ca565b156109105792915050565b50919050565b815482908211610982576040517f08c379a000000000000000000000000000000000000000000000000000000000815260206004820152601860248201527f53746f726167653a2076657273696f6e207265616368656400000000000000006044820152606401610390565b5550565b6109b46103c760017fa057eeb6560fae2987973d3bf40b89e6da66dd0b6aadac05dc6b5b0d7a8d455761105d565b81516109c69084906020850190610c4c565b50805161042a9060018501906020840190610c4c565b6000806101d660017fca9d3e17f264b0f3984e2634e94adb37fa3e6a8103f06aeae6fa59e21c769f5e61105d565b7fffffffff000000000000000000000000000000000000000000000000000000008083169003610a96576040517f08c379a000000000000000000000000000000000000000000000000000000000815260206004820152601f60248201527f496e74657266616365446574656374696f6e3a2077726f6e672076616c7565006044820152606401610390565b7fffffffff00000000000000000000000000000000000000000000000000000000919091166000908152602092909252604090912080547fffffffffffffffffffffffffffffffffffffffffffffffffffffffffffffff0016911515919091179055565b606081600003610b3d57505060408051808201909152600181527f3000000000000000000000000000000000000000000000000000000000000000602082015290565b8160005b8115610b675780610b51816111ec565b9150610b609050600a83611224565b9150610b41565b60008167ffffffffffffffff811115610b8257610b82610e41565b6040519080825280601f01601f191660200182016040528015610bac576020820181803683370190505b5090506000610bbc60018461105d565b90508593505b8315610c2557600a840660300160f81b82828060019003935081518110610beb57610beb61125f565b60200101907effffffffffffffffffffffffffffffffffffffffffffffffffffffffffffff1916908160001a905350600a84049350610bc2565b50949350505050565b366000808083610c3f60148261105d565b926101239392919061128e565b828054610c5890611074565b90600052602060002090601f016020900481019282610c7a5760008555610cc0565b82601f10610c9357805160ff1916838001178555610cc0565b82800160010185558215610cc0579182015b82811115610cc0578251825591602001919060010190610ca5565b50610ccc929150610d62565b5090565b828054610cdc90611074565b90600052602060002090601f016020900481019282610cfe5760008555610cc0565b82601f10610d35578280017fffffffffffffffffffffffffffffffffffffffffffffffffffffffffffffff00823516178555610cc0565b82800160010185558215610cc0579182015b82811115610cc0578235825591602001919060010190610d47565b5b80821115610ccc5760008155600101610d63565b60005b83811015610d92578181015183820152602001610d7a565b8381111561042a5750506000910152565b6020815260008251806020840152610dc2816040850160208701610d77565b601f017fffffffffffffffffffffffffffffffffffffffffffffffffffffffffffffffe0169190910160400192915050565b60208152816020820152818360408301376000818301604090810191909152601f9092017fffffffffffffffffffffffffffffffffffffffffffffffffffffffffffffffe0160101919050565b7f4e487b7100000000000000000000000000000000000000000000000000000000600052604160045260246000fd5b600082601f830112610e8157600080fd5b813567ffffffffffffffff80821115610e9c57610e9c610e41565b604051601f83017fffffffffffffffffffffffffffffffffffffffffffffffffffffffffffffffe0908116603f01168101908282118183101715610ee257610ee2610e41565b81604052838152866020858801011115610efb57600080fd5b836020870160208301376000602085830101528094505050505092915050565b600080600060608486031215610f3057600080fd5b833567ffffffffffffffff80821115610f4857600080fd5b610f5487838801610e70565b94506020860135915080821115610f6a57600080fd5b610f7687838801610e70565b93506040860135915080821115610f8c57600080fd5b50610f9986828701610e70565b9150509250925092565b60008060208385031215610fb657600080fd5b823567ffffffffffffffff80821115610fce57600080fd5b818501915085601f830112610fe257600080fd5b813581811115610ff157600080fd5b86602082850101111561100357600080fd5b60209290920196919550909350505050565b60006020828403121561102757600080fd5b5035919050565b7f4e487b7100000000000000000000000000000000000000000000000000000000600052601160045260246000fd5b60008282101561106f5761106f61102e565b500390565b600181811c9082168061108857607f821691505b602082108103610910577f4e487b7100000000000000000000000000000000000000000000000000000000600052602260045260246000fd5b8183823760009101908152919050565b600081516110e3818560208601610d77565b9290920192915050565b600080845481600182811c91508083168061110957607f831692505b60208084108203611141577f4e487b710000000000000000000000000000000000000000000000000000000086526022600452602486fd5b8180156111555760018114611184576111b1565b7fffffffffffffffffffffffffffffffffffffffffffffffffffffffffffffff008616895284890196506111b1565b60008b81526020902060005b868110156111a95781548b820152908501908301611190565b505084890196505b5050505050506111c181856110d1565b95945050505050565b6000602082840312156111dc57600080fd5b815180151581146105ff57600080fd5b60007fffffffffffffffffffffffffffffffffffffffffffffffffffffffffffffffff820361121d5761121d61102e565b5060010190565b60008261125a577f4e487b7100000000000000000000000000000000000000000000000000000000600052601260045260246000fd5b500490565b7f4e487b7100000000000000000000000000000000000000000000000000000000600052603260045260246000fd5b6000808585111561129e57600080fd5b838611156112ab57600080fd5b505082019391909203915056fea2646970667358221220f44d9a7305b069b64b4a89dc4bb3eef254f2b5843e77aaca917592bd1471fabc64736f6c634300080e0033",
  "linkReferences": {},
  "deployedLinkReferences": {}
}