{
  "_format": "hh-sol-artifact-1",
  "contractName": "PayoutWalletFacetMock",
  "sourceName": "contracts/mocks/payment/facets/PayoutWalletFacetMock.sol",
  "abi": [
    {
      "inputs": [
        {
          "internalType": "contract IForwarderRegistry",
          "name": "forwarderRegistry",
          "type": "address"
        }
      ],
      "stateMutability": "nonpayable",
      "type": "constructor"
    },
    {
      "inputs": [
        {
          "internalType": "uint256",
          "name": "currentPhase",
          "type": "uint256"
        },
        {
          "internalType": "uint256",
          "name": "newPhase",
          "type": "uint256"
        }
      ],
      "name": "InitializationPhaseAlreadyReached",
      "type": "error"
    },
    {
      "inputs": [
        {
          "internalType": "address",
          "name": "account",
          "type": "address"
        }
      ],
      "name": "NotContractOwner",
      "type": "error"
    },
    {
      "inputs": [
        {
          "internalType": "address",
          "name": "account",
          "type": "address"
        }
      ],
      "name": "NotProxyAdmin",
      "type": "error"
    },
    {
      "inputs": [],
      "name": "ZeroAddressPayoutWallet",
      "type": "error"
    },
    {
      "anonymous": false,
      "inputs": [
        {
          "indexed": false,
          "internalType": "address",
          "name": "payoutWallet",
          "type": "address"
        }
      ],
      "name": "PayoutWalletSet",
      "type": "event"
    },
    {
      "inputs": [],
      "name": "__msgData",
      "outputs": [
        {
          "internalType": "bytes",
          "name": "",
          "type": "bytes"
        }
      ],
      "stateMutability": "view",
      "type": "function"
    },
    {
      "inputs": [
        {
          "internalType": "address payable",
          "name": "initialPayoutWallet",
          "type": "address"
        }
      ],
      "name": "initPayoutWalletStorage",
      "outputs": [],
      "stateMutability": "nonpayable",
      "type": "function"
    },
    {
      "inputs": [],
      "name": "payoutWallet",
      "outputs": [
        {
          "internalType": "address payable",
          "name": "wallet",
          "type": "address"
        }
      ],
      "stateMutability": "view",
      "type": "function"
    },
    {
      "inputs": [
        {
          "internalType": "address payable",
          "name": "newPayoutWallet",
          "type": "address"
        }
      ],
      "name": "setPayoutWallet",
      "outputs": [],
      "stateMutability": "nonpayable",
      "type": "function"
    }
  ],
  "bytecode": "0x60a060405234801561000f575f80fd5b506040516108d23803806108d283398101604081905261002e9161003f565b6001600160a01b031660805261006c565b5f6020828403121561004f575f80fd5b81516001600160a01b0381168114610065575f80fd5b9392505050565b6080516108396100995f395f818161040f0152818161044d01528181610581015261060901526108395ff3fe608060405234801561000f575f80fd5b506004361061004a575f3560e01c806331e66e1e1461004e5780636b8f9c431461006d5780638488bb4e14610082578063a556589a146100af575b5f80fd5b6100566100c2565b6040516100649291906106ff565b60405180910390f35b61008061007b36600461074b565b6100d4565b005b61008a610102565b60405173ffffffffffffffffffffffffffffffffffffffff9091168152602001610064565b6100806100bd36600461074b565b61012d565b365f6100cc610158565b915091509091565b6100ed6100df610162565b6100e761016b565b9061019e565b6100ff816100f9610212565b9061023f565b50565b5f61012861010e610212565b5473ffffffffffffffffffffffffffffffffffffffff1690565b905090565b610146610138610162565b610140610303565b90610330565b6100ff81610152610212565b9061039b565b365f6100cc6103da565b5f61012861053f565b5f8061019860017fc9ed16f33ab3a66c84bfd83099ccb2a8845871e2e1c1928f63797152f0fd54cd610785565b92915050565b815473ffffffffffffffffffffffffffffffffffffffff82811691161461020e576040517f2ef4875e00000000000000000000000000000000000000000000000000000000815273ffffffffffffffffffffffffffffffffffffffff821660048201526024015b60405180910390fd5b5050565b5f8061019860017f4fb5f8cdfbce77f22b0931a39e9f476a60a0f66524b2f379e96485471eb700ae610785565b73ffffffffffffffffffffffffffffffffffffffff811661028c576040517f40b539cf00000000000000000000000000000000000000000000000000000000815260040160405180910390fd5b81547fffffffffffffffffffffffff00000000000000000000000000000000000000001673ffffffffffffffffffffffffffffffffffffffff821690811783556040519081527fdd880d24a789958a6398c99c2e54ce31bc10a638cbc42f7dd34285479ae0f8559060200160405180910390a15050565b5f8061019860017fb53127684a568b3173ae13b9f8a6016e243e63b6e8ee1178d6a717850b5d6104610785565b815473ffffffffffffffffffffffffffffffffffffffff82811691161461020e576040517f673a31a100000000000000000000000000000000000000000000000000000000815273ffffffffffffffffffffffffffffffffffffffff82166004820152602401610205565b6103d06103c960017f03497821c97e7d2bd8e34992e1a723a2edcf97a05eef937ff657491b38cca19e610785565b6001610683565b61020e828261023f565b365f333214806103ea5750601836105b156103f757505f91369150565b3373ffffffffffffffffffffffffffffffffffffffff7f000000000000000000000000000000000000000000000000000000000000000016148061052a575073ffffffffffffffffffffffffffffffffffffffff7f000000000000000000000000000000000000000000000000000000000000000016638929a8ca367fffffffffffffffffffffffffffffffffffffffffffffffffffffffffffffffec013560601c6040517fffffffff0000000000000000000000000000000000000000000000000000000060e084901b16815273ffffffffffffffffffffffffffffffffffffffff9091166004820152336024820152604401602060405180830381865afa158015610506573d5f803e3d5ffd5b505050506040513d601f19601f8201168201806040525081019061052a91906107bd565b15610537576100cc6106cf565b505f91369150565b5f3332148061054e5750601836105b1561055857503390565b7fffffffffffffffffffffffffffffffffffffffffffffffffffffffffffffffec36013560601c7f000000000000000000000000000000000000000000000000000000000000000073ffffffffffffffffffffffffffffffffffffffff1633148061067257506040517f8929a8ca00000000000000000000000000000000000000000000000000000000815273ffffffffffffffffffffffffffffffffffffffff82811660048301523360248301527f00000000000000000000000000000000000000000000000000000000000000001690638929a8ca90604401602060405180830381865afa15801561064e573d5f803e3d5ffd5b505050506040513d601f19601f8201168201806040525081019061067291906107bd565b1561067c57919050565b3391505090565b815482908281106106ca576040517fbf0c18ec0000000000000000000000000000000000000000000000000000000081526004810182905260248101849052604401610205565b505550565b365f6100cc7fffffffffffffffffffffffffffffffffffffffffffffffffffffffffffffffec83018284816107dc565b60208152816020820152818360408301375f818301604090810191909152601f9092017fffffffffffffffffffffffffffffffffffffffffffffffffffffffffffffffe0160101919050565b5f6020828403121561075b575f80fd5b813573ffffffffffffffffffffffffffffffffffffffff8116811461077e575f80fd5b9392505050565b81810381811115610198577f4e487b71000000000000000000000000000000000000000000000000000000005f52601160045260245ffd5b5f602082840312156107cd575f80fd5b8151801515811461077e575f80fd5b5f80858511156107ea575f80fd5b838611156107f6575f80fd5b505082019391909203915056fea2646970667358221220d04a05cda8bede5607f7c5f1ec303d3df58706baae129b2cfa7a4d7c694f729464736f6c63430008150033",
  "linkReferences": {},
  "deployedLinkReferences": {}
}