{
  "_format": "hh-sol-artifact-1",
  "contractName": "PayoutWalletFacetMock",
  "sourceName": "contracts/mocks/payment/facets/PayoutWalletFacetMock.sol",
  "abi": [
    {
      "inputs": [
        {
          "internalType": "contract IForwarderRegistry",
          "name": "forwarderRegistry",
          "type": "address"
        }
      ],
      "stateMutability": "nonpayable",
      "type": "constructor"
    },
    {
      "anonymous": false,
      "inputs": [
        {
          "indexed": false,
          "internalType": "address",
          "name": "payoutWallet",
          "type": "address"
        }
      ],
      "name": "PayoutWalletSet",
      "type": "event"
    },
    {
      "inputs": [],
      "name": "__msgData",
      "outputs": [
        {
          "internalType": "bytes",
          "name": "",
          "type": "bytes"
        }
      ],
      "stateMutability": "view",
      "type": "function"
    },
    {
      "inputs": [
        {
          "internalType": "address payable",
          "name": "initialPayoutWallet",
          "type": "address"
        }
      ],
      "name": "initPayoutWalletStorage",
      "outputs": [],
      "stateMutability": "nonpayable",
      "type": "function"
    },
    {
      "inputs": [],
      "name": "payoutWallet",
      "outputs": [
        {
          "internalType": "address payable",
          "name": "wallet",
          "type": "address"
        }
      ],
      "stateMutability": "view",
      "type": "function"
    },
    {
      "inputs": [
        {
          "internalType": "address payable",
          "name": "newPayoutWallet",
          "type": "address"
        }
      ],
      "name": "setPayoutWallet",
      "outputs": [],
      "stateMutability": "nonpayable",
      "type": "function"
    }
  ],
  "bytecode": "0x60a060405234801561000f575f80fd5b5060405161095638038061095683398101604081905261002e9161003f565b6001600160a01b031660805261006c565b5f6020828403121561004f575f80fd5b81516001600160a01b0381168114610065575f80fd5b9392505050565b6080516108bd6100995f395f818161046f015281816104ad015281816105e1015261066901526108bd5ff3fe608060405234801561000f575f80fd5b506004361061004a575f3560e01c806331e66e1e1461004e5780636b8f9c431461006d5780638488bb4e14610082578063a556589a146100af575b5f80fd5b6100566100c2565b604051610064929190610783565b60405180910390f35b61008061007b3660046107cf565b6100d4565b005b61008a610102565b60405173ffffffffffffffffffffffffffffffffffffffff9091168152602001610064565b6100806100bd3660046107cf565b61012d565b365f6100cc610158565b915091509091565b6100ed6100df610162565b6100e761016b565b9061019e565b6100ff816100f961022a565b90610257565b50565b5f61012861010e61022a565b5473ffffffffffffffffffffffffffffffffffffffff1690565b905090565b610146610138610162565b61014061034b565b90610378565b6100ff8161015261022a565b906103fb565b365f6100cc61043a565b5f61012861059f565b5f8061019860017fc9ed16f33ab3a66c84bfd83099ccb2a8845871e2e1c1928f63797152f0fd54cd610809565b92915050565b815473ffffffffffffffffffffffffffffffffffffffff828116911614610226576040517f08c379a000000000000000000000000000000000000000000000000000000000815260206004820152601860248201527f4f776e6572736869703a206e6f7420746865206f776e6572000000000000000060448201526064015b60405180910390fd5b5050565b5f8061019860017f4fb5f8cdfbce77f22b0931a39e9f476a60a0f66524b2f379e96485471eb700ae610809565b73ffffffffffffffffffffffffffffffffffffffff81166102d4576040517f08c379a000000000000000000000000000000000000000000000000000000000815260206004820152601a60248201527f5061796f757457616c6c65743a207a65726f2061646472657373000000000000604482015260640161021d565b81547fffffffffffffffffffffffff00000000000000000000000000000000000000001673ffffffffffffffffffffffffffffffffffffffff821690811783556040519081527fdd880d24a789958a6398c99c2e54ce31bc10a638cbc42f7dd34285479ae0f8559060200160405180910390a15050565b5f8061019860017fb53127684a568b3173ae13b9f8a6016e243e63b6e8ee1178d6a717850b5d6104610809565b815473ffffffffffffffffffffffffffffffffffffffff828116911614610226576040517f08c379a000000000000000000000000000000000000000000000000000000000815260206004820152601960248201527f50726f787941646d696e3a206e6f74207468652061646d696e00000000000000604482015260640161021d565b61043061042960017f03497821c97e7d2bd8e34992e1a723a2edcf97a05eef937ff657491b38cca19e610809565b60016106e3565b6102268282610257565b365f3332148061044a5750601836105b1561045757505f91369150565b3373ffffffffffffffffffffffffffffffffffffffff7f000000000000000000000000000000000000000000000000000000000000000016148061058a575073ffffffffffffffffffffffffffffffffffffffff7f000000000000000000000000000000000000000000000000000000000000000016638929a8ca367fffffffffffffffffffffffffffffffffffffffffffffffffffffffffffffffec013560601c6040517fffffffff0000000000000000000000000000000000000000000000000000000060e084901b16815273ffffffffffffffffffffffffffffffffffffffff9091166004820152336024820152604401602060405180830381865afa158015610566573d5f803e3d5ffd5b505050506040513d601f19601f8201168201806040525081019061058a9190610841565b15610597576100cc610753565b505f91369150565b5f333214806105ae5750601836105b156105b857503390565b7fffffffffffffffffffffffffffffffffffffffffffffffffffffffffffffffec36013560601c7f000000000000000000000000000000000000000000000000000000000000000073ffffffffffffffffffffffffffffffffffffffff163314806106d257506040517f8929a8ca00000000000000000000000000000000000000000000000000000000815273ffffffffffffffffffffffffffffffffffffffff82811660048301523360248301527f00000000000000000000000000000000000000000000000000000000000000001690638929a8ca90604401602060405180830381865afa1580156106ae573d5f803e3d5ffd5b505050506040513d601f19601f820116820180604052508101906106d29190610841565b156106dc57919050565b3391505090565b81548290821161074f576040517f08c379a000000000000000000000000000000000000000000000000000000000815260206004820152601660248201527f53746f726167653a207068617365207265616368656400000000000000000000604482015260640161021d565b5550565b365f6100cc7fffffffffffffffffffffffffffffffffffffffffffffffffffffffffffffffec8301828481610860565b60208152816020820152818360408301375f818301604090810191909152601f9092017fffffffffffffffffffffffffffffffffffffffffffffffffffffffffffffffe0160101919050565b5f602082840312156107df575f80fd5b813573ffffffffffffffffffffffffffffffffffffffff81168114610802575f80fd5b9392505050565b81810381811115610198577f4e487b71000000000000000000000000000000000000000000000000000000005f52601160045260245ffd5b5f60208284031215610851575f80fd5b81518015158114610802575f80fd5b5f808585111561086e575f80fd5b8386111561087a575f80fd5b505082019391909203915056fea264697066735822122024659115e5405db53d131fe7274acd44b01f9421c7a1f4387f106e6114b19e0b64736f6c63430008150033",
  "linkReferences": {},
  "deployedLinkReferences": {}
}