{
  "_format": "hh-sol-artifact-1",
  "contractName": "VRFV2WrapperMock",
  "sourceName": "contracts/mocks/vrf/VRFV2WrapperMock.sol",
  "abi": [
    {
      "inputs": [
        {
          "internalType": "uint32",
          "name": "",
          "type": "uint32"
        }
      ],
      "name": "calculateRequestPrice",
      "outputs": [
        {
          "internalType": "uint256",
          "name": "",
          "type": "uint256"
        }
      ],
      "stateMutability": "pure",
      "type": "function"
    },
    {
      "inputs": [
        {
          "internalType": "uint256",
          "name": "",
          "type": "uint256"
        }
      ],
      "name": "consumers",
      "outputs": [
        {
          "internalType": "contract VRFConsumerBaseV2",
          "name": "",
          "type": "address"
        }
      ],
      "stateMutability": "view",
      "type": "function"
    },
    {
      "inputs": [
        {
          "internalType": "uint32",
          "name": "",
          "type": "uint32"
        },
        {
          "internalType": "uint256",
          "name": "",
          "type": "uint256"
        }
      ],
      "name": "estimateRequestPrice",
      "outputs": [
        {
          "internalType": "uint256",
          "name": "",
          "type": "uint256"
        }
      ],
      "stateMutability": "pure",
      "type": "function"
    },
    {
      "inputs": [
        {
          "internalType": "contract VRFConsumerBaseV2",
          "name": "consumer",
          "type": "address"
        },
        {
          "internalType": "uint256",
          "name": "requestId",
          "type": "uint256"
        },
        {
          "internalType": "uint256[]",
          "name": "randomWords",
          "type": "uint256[]"
        }
      ],
      "name": "fulfillRandomWords",
      "outputs": [],
      "stateMutability": "nonpayable",
      "type": "function"
    },
    {
      "inputs": [
        {
          "internalType": "uint256",
          "name": "requestId",
          "type": "uint256"
        }
      ],
      "name": "fulfillRandomnessRequest",
      "outputs": [],
      "stateMutability": "nonpayable",
      "type": "function"
    },
    {
      "inputs": [],
      "name": "lastRequestId",
      "outputs": [
        {
          "internalType": "uint256",
          "name": "",
          "type": "uint256"
        }
      ],
      "stateMutability": "view",
      "type": "function"
    },
    {
      "inputs": [
        {
          "internalType": "uint256",
          "name": "",
          "type": "uint256"
        }
      ],
      "name": "numWords",
      "outputs": [
        {
          "internalType": "uint32",
          "name": "",
          "type": "uint32"
        }
      ],
      "stateMutability": "view",
      "type": "function"
    },
    {
      "inputs": [
        {
          "internalType": "address",
          "name": "from",
          "type": "address"
        },
        {
          "internalType": "uint256",
          "name": "",
          "type": "uint256"
        },
        {
          "internalType": "bytes",
          "name": "data",
          "type": "bytes"
        }
      ],
      "name": "onTokenTransfer",
      "outputs": [
        {
          "internalType": "bool",
          "name": "",
          "type": "bool"
        }
      ],
      "stateMutability": "nonpayable",
      "type": "function"
    }
  ],
  "bytecode": "0x608060405234801561001057600080fd5b506107cf806100206000396000f3fe608060405234801561001057600080fd5b50600436106100885760003560e01c80637fb5d19d1161005b5780637fb5d19d1461015f578063a4c0ed3614610172578063e6689c5114610195578063fc2a88c3146101a857600080fd5b806317537c7e1461008d578063265fe575146100a25780634306d354146100e25780634651ed3d14610104575b600080fd5b6100a061009b366004610401565b6101b1565b005b6100c86100b0366004610401565b60026020526000908152604090205463ffffffff1681565b60405163ffffffff90911681526020015b60405180910390f35b6100f66100f0366004610433565b50606490565b6040519081526020016100d9565b61013a610112366004610401565b60016020526000908152604090205473ffffffffffffffffffffffffffffffffffffffff1681565b60405173ffffffffffffffffffffffffffffffffffffffff90911681526020016100d9565b6100f661016d366004610455565b6102e8565b6101856101803660046104a4565b6102f1565b60405190151581526020016100d9565b6100a06101a336600461055c565b6103ad565b6100f660005481565b60008181526002602052604081205463ffffffff16908167ffffffffffffffff8111156101e0576101e061052d565b604051908082528060200260200182016040528015610209578160200160208202803683370190505b50905060005b8263ffffffff16811461024b57607b82828151811061023057610230610656565b6020908102919091010152610244816106b4565b905061020f565b50600083815260016020526040908190205490517f1fe543e300000000000000000000000000000000000000000000000000000000815273ffffffffffffffffffffffffffffffffffffffff90911690631fe543e3906102b190869085906004016106ec565b600060405180830381600087803b1580156102cb57600080fd5b505af11580156102df573d6000803e3d6000fd5b50505050505050565b60645b92915050565b6000806103008385018561073a565b925050506000805460016103149190610786565b6000818152600160208181526040808420805473ffffffffffffffffffffffffffffffffffffffff8e167fffffffffffffffffffffffff000000000000000000000000000000000000000090911617905560029091528220805463ffffffff9096167fffffffffffffffffffffffffffffffffffffffffffffffffffffffff000000009096169590951790945555509050949350505050565b6040517f1fe543e300000000000000000000000000000000000000000000000000000000815273ffffffffffffffffffffffffffffffffffffffff841690631fe543e3906102b190859085906004016106ec565b60006020828403121561041357600080fd5b5035919050565b803563ffffffff8116811461042e57600080fd5b919050565b60006020828403121561044557600080fd5b61044e8261041a565b9392505050565b6000806040838503121561046857600080fd5b6104718361041a565b946020939093013593505050565b73ffffffffffffffffffffffffffffffffffffffff811681146104a157600080fd5b50565b600080600080606085870312156104ba57600080fd5b84356104c58161047f565b935060208501359250604085013567ffffffffffffffff808211156104e957600080fd5b818701915087601f8301126104fd57600080fd5b81358181111561050c57600080fd5b88602082850101111561051e57600080fd5b95989497505060200194505050565b7f4e487b7100000000000000000000000000000000000000000000000000000000600052604160045260246000fd5b60008060006060848603121561057157600080fd5b833561057c8161047f565b92506020848101359250604085013567ffffffffffffffff808211156105a157600080fd5b818701915087601f8301126105b557600080fd5b8135818111156105c7576105c761052d565b8060051b6040517fffffffffffffffffffffffffffffffffffffffffffffffffffffffffffffffe0603f8301168101818110858211171561060a5761060a61052d565b60405291825284820192508381018501918a83111561062857600080fd5b938501935b828510156106465784358452938501939285019261062d565b8096505050505050509250925092565b7f4e487b7100000000000000000000000000000000000000000000000000000000600052603260045260246000fd5b7f4e487b7100000000000000000000000000000000000000000000000000000000600052601160045260246000fd5b60007fffffffffffffffffffffffffffffffffffffffffffffffffffffffffffffffff82036106e5576106e5610685565b5060010190565b6000604082018483526020604081850152818551808452606086019150828701935060005b8181101561072d57845183529383019391830191600101610711565b5090979650505050505050565b60008060006060848603121561074f57600080fd5b6107588461041a565b9250602084013561ffff8116811461076f57600080fd5b915061077d6040850161041a565b90509250925092565b808201808211156102eb576102eb61068556fea26469706673582212201879a5419161792ff52deace60158f252fc513a439c21cbed1f7d93a906f973764736f6c63430008150033",
  "linkReferences": {},
  "deployedLinkReferences": {}
}