{
  "_format": "hh-sol-artifact-1",
  "contractName": "ERC20BurnableFacet",
  "sourceName": "contracts/token/ERC20/ERC20BurnableFacet.sol",
  "abi": [
    {
      "inputs": [
        {
          "internalType": "contract IForwarderRegistry",
          "name": "forwarderRegistry",
          "type": "address"
        }
      ],
      "stateMutability": "nonpayable",
      "type": "constructor"
    },
    {
      "inputs": [
        {
          "internalType": "address[]",
          "name": "owners",
          "type": "address[]"
        },
        {
          "internalType": "uint256[]",
          "name": "values",
          "type": "uint256[]"
        }
      ],
      "name": "batchBurnFrom",
      "outputs": [
        {
          "internalType": "bool",
          "name": "",
          "type": "bool"
        }
      ],
      "stateMutability": "nonpayable",
      "type": "function"
    },
    {
      "inputs": [
        {
          "internalType": "uint256",
          "name": "value",
          "type": "uint256"
        }
      ],
      "name": "burn",
      "outputs": [
        {
          "internalType": "bool",
          "name": "",
          "type": "bool"
        }
      ],
      "stateMutability": "nonpayable",
      "type": "function"
    },
    {
      "inputs": [
        {
          "internalType": "address",
          "name": "from",
          "type": "address"
        },
        {
          "internalType": "uint256",
          "name": "value",
          "type": "uint256"
        }
      ],
      "name": "burnFrom",
      "outputs": [
        {
          "internalType": "bool",
          "name": "",
          "type": "bool"
        }
      ],
      "stateMutability": "nonpayable",
      "type": "function"
    },
    {
      "inputs": [],
      "name": "initERC20BurnableStorage",
      "outputs": [],
      "stateMutability": "nonpayable",
      "type": "function"
    }
  ],
  "bytecode": "0x60a06040523480156200001157600080fd5b5060405162002ee638038062002ee68339818101604052810190620000379190620001c8565b806200006c7f6a83522c126b1f14401cda64886fc651a7060f385b5e2d289e620e1859fee4e760001b6200014460201b60201c565b620000a07ff6fd3c5688ac3ada9425e55f9cce326a85fd64fca9b1584401f3d2203aee560b60001b6200014460201b60201c565b620000d47fe7883c748f395270b53c914004a2b83ffb6acf3836fed33ec0a3c0eb061e618860001b6200014460201b60201c565b8073ffffffffffffffffffffffffffffffffffffffff1660808173ffffffffffffffffffffffffffffffffffffffff1681525050506200013d7f445fbd80975f6b51356902c6771ea9da2111c82200c685db49a39b184dbcc3d760001b6200014760201b60201c565b50620001fa565b50565b50565b600080fd5b600073ffffffffffffffffffffffffffffffffffffffff82169050919050565b60006200017c826200014f565b9050919050565b600062000190826200016f565b9050919050565b620001a28162000183565b8114620001ae57600080fd5b50565b600081519050620001c28162000197565b92915050565b600060208284031215620001e157620001e06200014a565b5b6000620001f184828501620001b1565b91505092915050565b608051612cc96200021d60003960008181611d2e0152611d830152612cc96000f3fe608060405234801561001057600080fd5b506004361061004c5760003560e01c80631b9a75291461005157806342966c6814610081578063751ec2d3146100b157806379cc6790146100bb575b600080fd5b61006b6004803603810190610066919061274a565b6100eb565b60405161007891906127dd565b60405180910390f35b61009b600480360381019061009691906127f8565b6101f8565b6040516100a891906127dd565b60405180910390f35b6100b9610302565b005b6100d560048036038101906100d09190612825565b61043e565b6040516100e291906127dd565b60405180910390f35b60006101197f0d8d35f92207975f615d36fda02007482ffe5c3bd6d70d08fc41020c691046c760001b61054b565b6101457f956dfcf262a56206a52bacb07704d3afe7f5e861082810075e634a8d581947b760001b61054b565b6101717faba07ea786feb38ea5ee1590460f8a3054a78de4fa61136966ed278a9880001d60001b61054b565b61019661017c61054e565b84846101866105e1565b6106d1909392919063ffffffff16565b6101c27fcda6797f383d521e70aa48bdc7687dc27eb81329007b773d0d433632b5108de460001b61054b565b6101ee7f0f59e3e6c9043f79d017060a89be9738d6ccfa46c4a5c5bc905d52fa52f4a39b60001b61054b565b6001905092915050565b60006102267f5e5ac9241df72dcb2f849ba5be07d120f4f393adc531f8673094f24fbabb0f1a60001b61054b565b6102527f07265bbc6cf75423917cd5345d8123c038b21681760d10976347bf3c17a4e2ab60001b61054b565b61027e7f6535cdf1a06a39b9f0a2d1e3d761b3557aa60e948701407e427b8fe7bfe5b37c60001b61054b565b6102a161028961054e565b836102926105e1565b61102f9092919063ffffffff16565b6102cd7f1a1d60b91fc6c38741103d8c156553296e04c66a8e40791b1f2a38e3ebcd4aaa60001b61054b565b6102f97f370f15bf24f15440001db57c5b14b6e06fbbf49fe88e156f868e31646ec7297d60001b61054b565b60019050919050565b61032e7f051441e8f14216ac24b397e69ea2957391b031a9f36f741e8b602d827c08b7a760001b611349565b61035a7f901682d34131b5106115dc5b749d9bd539598973202125db6497a0cd360dff9c60001b611349565b6103867f54d4048caf1254a59ca735e63356b0a601b2cca6869d41a9e5a25fa08f42789b60001b611349565b6103a761039161054e565b61039961134c565b61143c90919063ffffffff16565b6103d37f861e82acd764f3ee9c95e4ff16f25d9958ea39fb077462b8bdd9fc8a8d877b6760001b611349565b6103ff7f49c91ee1422fa0611d35ff7d11c0454ccdc18454444b530b0cc4fc235b43e3f960001b611349565b61043c7f20c07ed100000000000000000000000000000000000000000000000000000000600161042d6115ae565b61169e9092919063ffffffff16565b565b600061046c7f420ff4609b5c3ed694b2ece6f16846deeb28db41cc064a5c89448acaa684885760001b61054b565b6104987f7becc7b939be015d90609246e6561fefedfa41b243a8981f68f3e5688a6a50cf60001b61054b565b6104c47fac0b503faf79c349ab17fc2b104a930835fd15ca5cbd243986719ce0811febba60001b61054b565b6104e96104cf61054e565b84846104d96105e1565b6118aa909392919063ffffffff16565b6105157f9e933673df0fcf213607e382f298ccdc53300440a3160c5ee2789aa0d4480da060001b61054b565b6105417fa0868e926e822936fd87ef99ce3d0cc8c146a7122ef5125913d5a43cf79fdd7960001b61054b565b6001905092915050565b50565b600061057c7f62fa8626651cfc4862b88cecbeab9629c5135c352ea99417f3cb8a10677a85aa60001b611349565b6105a87fc806d445aef2cdf25dc9d1d950055a434099e8b8f3863af2d4ce0d8ad7ba21fe60001b611349565b6105d47fcd6dc5d82e4710816418768b09d0da1f8ca8ed9cc6595224cfa9d1d568c727b760001b611349565b6105dc611aa1565b905090565b600061060f7f51a9cf70038f30e7c9e892b8da145f23a1ffb6ef6b800794b2ace46a9422057860001b611f3e565b61063b7f39d6709454ef595be8dc4166f66a9d65b91a8f35311169ed9bb032b5b9840c7960001b611f3e565b6106677f0a4ee4daa68a1d84599609cdff7036856a765dc4b0df8908075192de28f8767e60001b611f3e565b600060017f9b108a3a4d1bf9fcaf11faf730c194adcf4de5409616cf7026e57018b2743c2660001c6106999190612894565b60001b90506106ca7f42ce42b3b8252f79f4e5fbdd78f7d81d68585f23fbd9ec716f730b101ae4ba2b60001b611f3e565b8091505090565b6106fd7fc3b3e5c93c3cddd19c79ec0f20ba2a5f15d25ca776f5a316c34e612ac0ef91c260001b611f3e565b6107297ff74756ee00aad994e7821cdc549f97b8d771c447019162abbd690639538699fd60001b611f3e565b6107557fe63d1de83e9328aa66e2de9c0db9a502ecf124f8b860f99bb5bce7be1fae894960001b611f3e565b6000825190506107877f0d6c4fefb76d728ee388f9f16f1283b84fd876683559c034b018408caf10b3ef60001b611f3e565b6107b37ffcea8729999167b10b7bfe463a7a5b6aff5a576465348d5d05f04aaea2d0e1a360001b611f3e565b6107df7f798106bdd22716f7bd741d0c1eaa4b0976301299d54caec88feea5a845e6136760001b611f3e565b81518114610822576040517f08c379a000000000000000000000000000000000000000000000000000000000815260040161081990612925565b60405180910390fd5b61084e7f6150c2c59ec7dfee31d808ed7c3fab518d0e8724e54438c97217785141d7996960001b611f3e565b61087a7ff3cc02d26ac76bae342946cc95ea70e62d033c10af0fdb555095ec1c2012fd6a60001b611f3e565b6108a67faea070860f949b3a9760a2f5a94f942060f9bee4e2e75ca370a6e52433b0948460001b611f3e565b6000810361090c576108da7fb8d2c00dc30e36c29a1b0bb0274ce19ad8dbee7f8f685f58ecbf4d397fd8b59360001b611f3e565b6109067f33226331dcb12c9b8ba7fcebdd45ca95158e804cd707896166812dbf49e12f0360001b611f3e565b50611029565b6109387fdb72daaf7dd38c48da4fafa4a5f73a3cd0f667a05de2367370827de23d7ef1bf60001b611f3e565b6109647f917660a4a7cdc7a137fdd422639d5ed7c9f7d6ac539cb259f578e64afd2c05a860001b611f3e565b6109907fcd3d98fec1914b9b481039db82413f225dff0c03a8d13784d0b3609acd5d3f6560001b611f3e565b60006109be7f81c6eb668acb49baa847cda1b39c0caa0fb78cd7b5a0d87438886af463683c0160001b611f3e565b6109ea7f37a5bec94a6392d605d2b511483bd88d7a3bb0ee590642215cf0f90c9258844760001b611f3e565b60005b828114610f2957610a207f7fdf4dbbae9fbdd17817c5bbe8dc1e223216914e02d953e8ad286530f986f8b260001b611f3e565b610a4c7f958f4615bbcc6625316f9fa7436e2e9c870a8865bf11ca5bc0fa495bcc19b23f60001b611f3e565b6000858281518110610a6157610a60612945565b5b60200260200101519050610a977f91fbed8326534f0687c0918720d37a785477baa9e6d3477ae6f6140ed1ba88fb60001b611f3e565b610ac37f259973564918b6c737756953598141360775ebe29be9021df05c85401baa319460001b611f3e565b6000858381518110610ad857610ad7612945565b5b60200260200101519050610b0e7f276b90acb9f44066776f810ba20dcac48619e203b28ab2c21879171c09c29fba60001b611f3e565b610b3a7ffb7085f5f13d1d46d85c22b831e80acaa0695db51f51c06ad9ac0455cbec3a1160001b611f3e565b8773ffffffffffffffffffffffffffffffffffffffff168273ffffffffffffffffffffffffffffffffffffffff1614610c0d57610b997f9661e6daf765bdf602bbdcb523e8795ff5fae249721644a0e2a55f826b05748060001b611f3e565b610bc57fbbd2c78ff04a692d67d664787887dd891672e258da898f83a5505bdb1d4b6e2d60001b611f3e565b610bf17f6718f482151fa2b01139a57543689e5249481864405bf1557c7d420817a6e42060001b611f3e565b610c088289838c611f41909392919063ffffffff16565b610c3a565b610c397fb45fe204c9879707bdb4c55e856a16d0cf82b91a0755e53c21b9f0bbdb5631f360001b611f3e565b5b610c667f9b1d15764584e0681fac24d5adad46efc46b7c414810da5b8a4af0e84dea90b760001b611f3e565b610c927f2a2efd05396ea84156b2767922d57f6ef6c49cbb3f2d559c40160ac4d040f7fb60001b611f3e565b60008114610e2b57610cc67fbb32422e8d9bc737814a85eef1ce4c77f69035063c0ac554a3cf20877e2ccb9760001b611f3e565b610cf27f491def45cb35087e1dea57aef999a43f59049e723f783466ddd51c6e1073878f60001b611f3e565b610d1e7f5ec82a6620d8db7edd2e6210a79379d519f503e7883b24f17237a330328f399f60001b611f3e565b60008960000160008473ffffffffffffffffffffffffffffffffffffffff1673ffffffffffffffffffffffffffffffffffffffff168152602001908152602001600020549050610d907f80d6f12c05b5d5a529bfc6cac230dc7e2399dbeaa235c29911d3254f74da215f60001b611f3e565b60008282039050818110610dd9576040517f08c379a0000000000000000000000000000000000000000000000000000000008152600401610dd0906129c0565b60405180910390fd5b808b60000160008673ffffffffffffffffffffffffffffffffffffffff1673ffffffffffffffffffffffffffffffffffffffff1681526020019081526020016000208190555082860195505050610e58565b610e577f7a960e2026bb8957021a9f2fb5ddbf5e573b3dac7147ede40d449ebbd3317c6260001b611f3e565b5b610e847f1fecce14fb71540bb5e8217c20c654f9032e894136e0c9d436e8e7911dbb489360001b611f3e565b610eb07f7356439ce4573ad20dd7e3debf375fc6793da886d64e6228cf6d4e3a64e46d0b60001b611f3e565b600073ffffffffffffffffffffffffffffffffffffffff168273ffffffffffffffffffffffffffffffffffffffff167fddf252ad1be2c89b69c2b068fc378daa952ba7f163c4a11628f55a4df523b3ef83604051610f0e91906129ef565b60405180910390a3505080610f2290612a0a565b90506109ed565b50610f567f85256823d73259af8b6662a5eff7a1e8d6d4147e453e99bcd95fdcb4aa71b74f60001b611f3e565b610f827fc6d244413d59ed73ced86e6e26647f7841e222812c743b9bd08ee77644fb0e9460001b611f3e565b60008114610ff957610fb67f6ec2809317b031a0b7d40c5af6f0364e450d2252a357cf2f8e66d4f33d208ada60001b611f3e565b610fe27f4886a5f2cc89e5d7422c363b6b8db76ea47d2e28be73cb5fca962ba7563905fb60001b611f3e565b808660020160008282540392505081905550611026565b6110257f56f77a0d174fc64404f769037fe1d3c858c4df05de0ce32e124aa15c763a188860001b611f3e565b5b50505b50505050565b61105b7f67339b59619af13457da254239aade09aa88d0fefab1cffa4e3eb1a6c08da37c60001b611f3e565b6110877ffe6a27139b65268c5a53d3dae95bc967c6ef85bdd5011179c3fbb9906bd5b80860001b611f3e565b6110b37f9ae52c4e16d6152f32fc728e5d1a410fa61f6777bd29084041b6c71de9f93ebe60001b611f3e565b60008114611259576110e77f045a31635288303a9899520b2964d6a9d134b33d868deb0c39a2f11585f322da60001b611f3e565b6111137f9512ccda4dce9d4e27d15e0bc75f041eb88f0dc0ba88d269c55b2a51e99dc48260001b611f3e565b61113f7f0933c6a2b21b9ea2ec9e8fe5a102ff83298c8de97c51ad53aaff53014c9719d660001b611f3e565b60008360000160008473ffffffffffffffffffffffffffffffffffffffff1673ffffffffffffffffffffffffffffffffffffffff1681526020019081526020016000205490506111b17f10eada29896e8c1fd720046791638b64acb52d1def731960c562d149f47a7e0160001b611f3e565b600082820390508181106111fa576040517f08c379a00000000000000000000000000000000000000000000000000000000081526004016111f1906129c0565b60405180910390fd5b808560000160008673ffffffffffffffffffffffffffffffffffffffff1673ffffffffffffffffffffffffffffffffffffffff168152602001908152602001600020819055508285600201600082825403925050819055505050611286565b6112857ff3eecead4891a259389eac1c918ad28048a2a7c4caf46115427a4bb8b8c1949f60001b611f3e565b5b6112b27f9c4a14fe6f012a1e571115b086792d572a63cb8c6257478d7a59956725c2446460001b611f3e565b6112de7f8a1554fa052eb2061fe588d692e778f155b6a97697f00902c0ce47f0c4d1bccd60001b611f3e565b600073ffffffffffffffffffffffffffffffffffffffff168273ffffffffffffffffffffffffffffffffffffffff167fddf252ad1be2c89b69c2b068fc378daa952ba7f163c4a11628f55a4df523b3ef8360405161133c91906129ef565b60405180910390a3505050565b50565b600061137a7f29f8332165901d83adc683db950bfa7095446b76821902b9cad5a516e9f9f82660001b612413565b6113a67f5c570bd87bb3a186c2c87ff3dd5f58d2c75a5776fe94e0a63fa851fe46a5fa6c60001b612413565b6113d27f405d85ac952971491b2260d550a90002555502250fb83d68df5efc35f77841ce60001b612413565b600060017fb53127684a568b3173ae13b9f8a6016e243e63b6e8ee1178d6a717850b5d610460001c6114049190612894565b60001b90506114357f1d9ce065e06330dbac07abf26a98b6d505daa95772ac105ad61ed7479f8c2b1260001b612413565b8091505090565b6114687fbc11fd154e3161de2183b89db4eb967bb1b4cbab0325086fa95095436c11e72b60001b612413565b6114947f1815b032362e96a6d2f880b8f118c97fe36f9016e4d7dde560dc18768369a66d60001b612413565b6114c07f25f11631eb07cc17d412b02bd63f72577eb8df190f4046eb3478c12a4bb8ae6860001b612413565b6114ec7ff4fb509d189314ad76c001fa3c672e032a121e16ca67380d998b64660c91044960001b612413565b8160000160009054906101000a900473ffffffffffffffffffffffffffffffffffffffff1673ffffffffffffffffffffffffffffffffffffffff168173ffffffffffffffffffffffffffffffffffffffff161461157e576040517f08c379a000000000000000000000000000000000000000000000000000000000815260040161157590612a9e565b60405180910390fd5b6115aa7f059066040512573aa34012041b24446b05cb97113084d9f5307dec4a489aeed260001b612413565b5050565b60006115dc7f33dac451eefd1a6808163eecf8d47d7cba5f56d00787de044ff0ddc2ee89447d60001b612416565b6116087f80b5daaa693fe30ccf9f1f19243499ce9fe4bada91264dd37e7099a713fc8c0360001b612416565b6116347f66e2273229caef60ac0be45d070cc66ba1aaceeca2776bdf1fc50206d54f0f2260001b612416565b600060017f7180ffa89c91cf90d6c56dacabfc69bc5e36f3099d7eed2f5cc12c5dba016fe060001c6116669190612894565b60001b90506116977f283bb7ffa148f4f77b397c4f3d35798bfd3f1214dd2b6c078e2824cd344247cc60001b612416565b8091505090565b6116ca7ffeeaaad6b1efab2833cc700d80f740603a4ac6746f8e38068c950d299cc199bf60001b612416565b6116f67f3ca2cb9a9b6e35728cedd7c19d4c121988341387931213a51eab1b4bbaf4113560001b612416565b6117227f1f9cdb98c65d0ad87aac43319c2670926bcb7c14904c7f9d4ade6235d82de71960001b612416565b61174e7f5dbdac164f3e02893e8f90adfbe776f3f50c85847d234ab6fb16b0a4846759d760001b612416565b63ffffffff60e01b827bffffffffffffffffffffffffffffffffffffffffffffffffffffffff1916036117b6576040517f08c379a00000000000000000000000000000000000000000000000000000000081526004016117ad90612b0a565b60405180910390fd5b6117e27fd6b36b8472d324009615e496388c108ffb1831ab3bd7bded72d29ac4baf2ad1e60001b612416565b61180e7f7b2218cefa5bbb0f0239126c55783358df88ffab00f11d9c8f8e38985d9a8c9860001b612416565b61183a7f2ad1063a0d34755f3bea24bcd3cfaff3dbbf63fbfa3f9b4c9c252fdffa66ed3360001b612416565b80836000016000847bffffffffffffffffffffffffffffffffffffffffffffffffffffffff19167bffffffffffffffffffffffffffffffffffffffffffffffffffffffff1916815260200190815260200160002060006101000a81548160ff021916908315150217905550505050565b6118d67fe400b5464fc68cb847089fee6401d26f840ed6a3aa904a53cf40c0e89d74dbfb60001b611f3e565b6119027fae8b74270ced98eead2616da64834926eaaaf96723203b008ad64e380806234060001b611f3e565b61192e7fac85d0f3ce97b0eafffe751ba33853587e281f13b1aaa83ec0e14fe270e8de1960001b611f3e565b8273ffffffffffffffffffffffffffffffffffffffff168273ffffffffffffffffffffffffffffffffffffffff1614611a015761198d7fd7e70631fd0e899623174efcd4ba696c8b45f77d2a432ff8a36113792c1b294960001b611f3e565b6119b97f5ebd93dfd5d2f1050b1dc7fdf3b5190a6f825fe6e04fb3b2774ec65fe945609f60001b611f3e565b6119e57f54bc61dc5453fede7aada7bb78274197da77f8d20a22be4757f9a6520be7e67360001b611f3e565b6119fc82848387611f41909392919063ffffffff16565b611a2e565b611a2d7febe21552d8082ad785e0ecb844a91acccdb292beda76218a8ff6d522a7034f6960001b611f3e565b5b611a5a7fe633c53011b832d76e17a3b2bfca91921405988af38b47bc096e0803c525e4db60001b611f3e565b611a867f725b26ef77538be8c083c086e73d8041a401b5f8d1198b8652ecc5ef1b3912e160001b611f3e565b611a9b82828661102f9092919063ffffffff16565b50505050565b6000611acf7f21f83b85e7dbc596177bc46cc6795c14520638d6db8281a9a46e4d6aa22fb1aa60001b612419565b611afb7f9fe8a1e1e7c5f38bddac874222fbac3da358d377b550af606038c28c918342a660001b612419565b611b277f4d776035fe014c48f9b8d211e07ad5f3e10a7407e640d6fd44f001ad72ec145460001b612419565b6000339050611b587f1470143c211ace273ad33be67e446aa27b56df8ff21c9e30df1c1ce1aab37faf60001b612419565b611b847f701a5aed6b7834b1cde40063ca2763d0cc2a2d369e96d6ffd63bd7f36d010be860001b612419565b3273ffffffffffffffffffffffffffffffffffffffff168173ffffffffffffffffffffffffffffffffffffffff1603611c4457611be37fde73d737f19da71f7e0a8be64041464998117e05c9bb9f65df2259a0779caaa960001b612419565b611c0f7f2e1b1201e86447778e6a37c8701809fecc19c6c17c8cdf9a32e27254363f132c60001b612419565b611c3b7f06438a6776a73eebdc69485314350483a51cfddc04e159b6f57dde5e4030039060001b612419565b80915050611f3b565b611c707f6b510e6cfe0d366d8eb68be09db038d2dbfc0ca71029993b650b184340fc438a60001b612419565b611c9c7fc81f2aa3e9c76ff8d9709ad059857726fb537b8fa6166dbedc9e3f598edddc4160001b612419565b611cc87fd5cec79665173c3237287beadc96f615eba8ff220376c7f0add1c603fa1dcb0260001b612419565b6000611cd261241c565b9050611d007f16b7bdd4d503ca2d391b420534e7b71ff847aea146e0c5e9b1d972d25ac95cf360001b612419565b611d2c7f8284349b0a2249652b224d12d5fd826a549839b4e0aab6630e88a99ebee0413860001b612419565b7f000000000000000000000000000000000000000000000000000000000000000073ffffffffffffffffffffffffffffffffffffffff168273ffffffffffffffffffffffffffffffffffffffff161480611e1e57507f000000000000000000000000000000000000000000000000000000000000000073ffffffffffffffffffffffffffffffffffffffff1663e60125d682846040518363ffffffff1660e01b8152600401611ddc929190612b39565b602060405180830381865afa158015611df9573d6000803e3d6000fd5b505050506040513d601f19601f82011682018060405250810190611e1d9190612b8e565b5b15611eb157611e4f7ff1748450d5c67d16e99d465b5f46314c0a03cb614c0a36c7a01d0d452a42d63760001b612419565b611e7b7ffcb9fb7b37e10dcd260ee2b6500d072708cde8b16110ac602ac219c4f0ac7a8860001b612419565b611ea77f0b8b6cb7f0d04c4b23441400a0a579a14ccf6e6d955d51d0d443ae3b764fbf1e60001b612419565b8092505050611f3b565b611edd7fc6338ea7b912cb871ae88b37af8abae50806bb4e29d453caf0758aea491b82ab60001b612419565b611f097fb1b2861ba78bbb686a91db34f76b76efe61d8e91016be1013861a8390b68a26860001b612419565b611f357f131b91089cbc4af49187f8d51fbbc23a25f13946f6ab1ab771005101548d429760001b612419565b81925050505b90565b50565b611f6d7f5854c814cfeea66d80276c8a8c5c40d99d4aae55134f5b8742c370c98a2b110f60001b611f3e565b611f997ffcbb00a7f25d7cfa62afa72cb1d8fa7218f697d3b5a7ff88ec46342e3f2f7c0860001b611f3e565b611fc57f8c0735416d362ff58f99da4b6aca2d876e82134aa6f0ed1af4763a61313d6db360001b611f3e565b611ff17ff2d79ce3f6351d21ec9ea7d4951e380ceba27d4a0b8118162f59be79dbd520d160001b611f3e565b600073ffffffffffffffffffffffffffffffffffffffff168273ffffffffffffffffffffffffffffffffffffffff1603612060576040517f08c379a000000000000000000000000000000000000000000000000000000000815260040161205790612c07565b60405180910390fd5b61208c7fa666d81d29654921b81bb9f863e153b7e3a187c9392ceb30641e94381dde9f9a60001b611f3e565b6120b87f87e5d1a39776d1d013cd3814ff4cbb195714fde16bca5333e4f46cdf17d2412860001b611f3e565b6120e47f051e5723e8261c8cdc38406c8b18598c76babd621d75bfe49a9128fba4edbe6d60001b611f3e565b60008460010160008573ffffffffffffffffffffffffffffffffffffffff1673ffffffffffffffffffffffffffffffffffffffff16815260200190815260200160002060008473ffffffffffffffffffffffffffffffffffffffff1673ffffffffffffffffffffffffffffffffffffffff1681526020019081526020016000205490506121937fa5d08d51320e666844ba53b4755cbf731933ffc2bc50c9a8d0faa520bf6ac0f760001b611f3e565b6121bf7f72540b1451684d882bbd6cc8203f2d772e8152a4e89fb462275674da8727692060001b611f3e565b7fffffffffffffffffffffffffffffffffffffffffffffffffffffffffffffffff81141580156121f0575060008214155b15612322576122217fa80a0fe431fb397c1eaf9578501bdc1e246237a667a7cb6de4ee15a3fa70fe1460001b611f3e565b61224d7f10f02bb08ba1cf50385255eed22e65c56e5bf7f9bbc0f5b5a3b92f9a591d3c8d60001b611f3e565b60008282039050818110612296576040517f08c379a000000000000000000000000000000000000000000000000000000000815260040161228d90612c73565b60405180910390fd5b808660010160008773ffffffffffffffffffffffffffffffffffffffff1673ffffffffffffffffffffffffffffffffffffffff16815260200190815260200160002060008673ffffffffffffffffffffffffffffffffffffffff1673ffffffffffffffffffffffffffffffffffffffff168152602001908152602001600020819055508091505061234f565b61234e7f4ed0f1b72f85190a3d1a76a6a3209a65d95327b7a5aea06eefb2752bee90a3ce60001b611f3e565b5b61237b7feb984e860ffc3b5be05847b1cc8d4d8a96948d7eb999ca348b298f386438b4a260001b611f3e565b6123a77f7c9f09d333f05f232a5ced30fb69fe8fa676bd12930e8d4746537c34dfd0169f60001b611f3e565b8273ffffffffffffffffffffffffffffffffffffffff168473ffffffffffffffffffffffffffffffffffffffff167f8c5be1e5ebec7d5bd14f71427d1e84f3dd0314c0f7b2291e5b200ac8c7c3b9258360405161240491906129ef565b60405180910390a35050505050565b50565b50565b50565b600061244a7fd2d14d566965719ee17c5b60ff32623f910e7a0e574f2eeae19a64856bd35c4c60001b612483565b6124767fa390d1eca31ebd819e35c63e13daa420bd40dcdd984217eef68768880371b01d60001b612483565b601436033560601c905090565b50565b6000604051905090565b600080fd5b600080fd5b600080fd5b6000601f19601f8301169050919050565b7f4e487b7100000000000000000000000000000000000000000000000000000000600052604160045260246000fd5b6124e88261249f565b810181811067ffffffffffffffff82111715612507576125066124b0565b5b80604052505050565b600061251a612486565b905061252682826124df565b919050565b600067ffffffffffffffff821115612546576125456124b0565b5b602082029050602081019050919050565b600080fd5b600073ffffffffffffffffffffffffffffffffffffffff82169050919050565b60006125878261255c565b9050919050565b6125978161257c565b81146125a257600080fd5b50565b6000813590506125b48161258e565b92915050565b60006125cd6125c88461252b565b612510565b905080838252602082019050602084028301858111156125f0576125ef612557565b5b835b81811015612619578061260588826125a5565b8452602084019350506020810190506125f2565b5050509392505050565b600082601f8301126126385761263761249a565b5b81356126488482602086016125ba565b91505092915050565b600067ffffffffffffffff82111561266c5761266b6124b0565b5b602082029050602081019050919050565b6000819050919050565b6126908161267d565b811461269b57600080fd5b50565b6000813590506126ad81612687565b92915050565b60006126c66126c184612651565b612510565b905080838252602082019050602084028301858111156126e9576126e8612557565b5b835b8181101561271257806126fe888261269e565b8452602084019350506020810190506126eb565b5050509392505050565b600082601f8301126127315761273061249a565b5b81356127418482602086016126b3565b91505092915050565b6000806040838503121561276157612760612490565b5b600083013567ffffffffffffffff81111561277f5761277e612495565b5b61278b85828601612623565b925050602083013567ffffffffffffffff8111156127ac576127ab612495565b5b6127b88582860161271c565b9150509250929050565b60008115159050919050565b6127d7816127c2565b82525050565b60006020820190506127f260008301846127ce565b92915050565b60006020828403121561280e5761280d612490565b5b600061281c8482850161269e565b91505092915050565b6000806040838503121561283c5761283b612490565b5b600061284a858286016125a5565b925050602061285b8582860161269e565b9150509250929050565b7f4e487b7100000000000000000000000000000000000000000000000000000000600052601160045260246000fd5b600061289f8261267d565b91506128aa8361267d565b9250828210156128bd576128bc612865565b5b828203905092915050565b600082825260208201905092915050565b7f45524332303a20696e636f6e73697374656e7420617272617973000000000000600082015250565b600061290f601a836128c8565b915061291a826128d9565b602082019050919050565b6000602082019050818103600083015261293e81612902565b9050919050565b7f4e487b7100000000000000000000000000000000000000000000000000000000600052603260045260246000fd5b7f45524332303a20696e73756666696369656e742062616c616e63650000000000600082015250565b60006129aa601b836128c8565b91506129b582612974565b602082019050919050565b600060208201905081810360008301526129d98161299d565b9050919050565b6129e98161267d565b82525050565b6000602082019050612a0460008301846129e0565b92915050565b6000612a158261267d565b91507fffffffffffffffffffffffffffffffffffffffffffffffffffffffffffffffff8203612a4757612a46612865565b5b600182019050919050565b7f50726f787941646d696e3a206e6f74207468652061646d696e00000000000000600082015250565b6000612a886019836128c8565b9150612a9382612a52565b602082019050919050565b60006020820190508181036000830152612ab781612a7b565b9050919050565b7f496e74657266616365446574656374696f6e3a2077726f6e672076616c756500600082015250565b6000612af4601f836128c8565b9150612aff82612abe565b602082019050919050565b60006020820190508181036000830152612b2381612ae7565b9050919050565b612b338161257c565b82525050565b6000604082019050612b4e6000830185612b2a565b612b5b6020830184612b2a565b9392505050565b612b6b816127c2565b8114612b7657600080fd5b50565b600081519050612b8881612b62565b92915050565b600060208284031215612ba457612ba3612490565b5b6000612bb284828501612b79565b91505092915050565b7f45524332303a207a65726f2061646472657373207370656e6465720000000000600082015250565b6000612bf1601b836128c8565b9150612bfc82612bbb565b602082019050919050565b60006020820190508181036000830152612c2081612be4565b9050919050565b7f45524332303a20696e73756666696369656e7420616c6c6f77616e6365000000600082015250565b6000612c5d601d836128c8565b9150612c6882612c27565b602082019050919050565b60006020820190508181036000830152612c8c81612c50565b905091905056fea2646970667358221220bd7026adff04c50a1628fe767a2bad3080533fe01cccf5d1098c25cc30305bb364736f6c634300080d0033",
  "linkReferences": {},
  "deployedLinkReferences": {}
}