{
  "_format": "hh-sol-artifact-1",
  "contractName": "ERC2981Facet",
  "sourceName": "contracts/token/royalty/facets/ERC2981Facet.sol",
  "abi": [
    {
      "inputs": [
        {
          "internalType": "contract IForwarderRegistry",
          "name": "forwarderRegistry",
          "type": "address"
        }
      ],
      "stateMutability": "nonpayable",
      "type": "constructor"
    },
    {
      "inputs": [
        {
          "internalType": "uint256",
          "name": "percentage",
          "type": "uint256"
        }
      ],
      "name": "IncorrectRoyaltyPercentage",
      "type": "error"
    },
    {
      "inputs": [],
      "name": "IncorrectRoyaltyReceiver",
      "type": "error"
    },
    {
      "inputs": [],
      "name": "ROYALTY_FEE_DENOMINATOR",
      "outputs": [
        {
          "internalType": "uint256",
          "name": "",
          "type": "uint256"
        }
      ],
      "stateMutability": "view",
      "type": "function"
    },
    {
      "inputs": [],
      "name": "init",
      "outputs": [],
      "stateMutability": "nonpayable",
      "type": "function"
    },
    {
      "inputs": [
        {
          "internalType": "uint256",
          "name": "tokenId",
          "type": "uint256"
        },
        {
          "internalType": "uint256",
          "name": "salePrice",
          "type": "uint256"
        }
      ],
      "name": "royaltyInfo",
      "outputs": [
        {
          "internalType": "address",
          "name": "receiver",
          "type": "address"
        },
        {
          "internalType": "uint256",
          "name": "royaltyAmount",
          "type": "uint256"
        }
      ],
      "stateMutability": "view",
      "type": "function"
    },
    {
      "inputs": [
        {
          "internalType": "uint256",
          "name": "percentage",
          "type": "uint256"
        }
      ],
      "name": "setRoyaltyPercentage",
      "outputs": [],
      "stateMutability": "nonpayable",
      "type": "function"
    },
    {
      "inputs": [
        {
          "internalType": "address",
          "name": "receiver",
          "type": "address"
        }
      ],
      "name": "setRoyaltyReceiver",
      "outputs": [],
      "stateMutability": "nonpayable",
      "type": "function"
    }
  ],
  "bytecode": "0x60a060405234801561001057600080fd5b506040516109a13803806109a183398101604081905261002f91610040565b6001600160a01b0316608052610070565b60006020828403121561005257600080fd5b81516001600160a01b038116811461006957600080fd5b9392505050565b60805161090f6100926000396000818161056d01526105f5015261090f6000f3fe608060405234801561001057600080fd5b50600436106100675760003560e01c80638dc251e3116100505780638dc251e3146100c5578063e1a8bf2c146100d8578063e1c7392a146100f057600080fd5b80632a55205a1461006c57806361ba27da146100b0575b600080fd5b61007f61007a3660046107ab565b6100f8565b6040805173ffffffffffffffffffffffffffffffffffffffff90931683526020830191909152015b60405180910390f35b6100c36100be3660046107cd565b61011a565b005b6100c36100d33660046107e6565b610148565b6100e2620186a081565b6040519081526020016100a7565b6100c3610165565b60008061010f8484610108610188565b91906101bc565b915091509250929050565b610133610125610266565b61012d610275565b906102a3565b6101458161013f610188565b9061032f565b50565b610153610125610266565b6101458161015f610188565b906103b5565b61017e610170610266565b610178610444565b90610472565b6101866104f5565b565b6000806101b660017f2c0cf10337caabbd02dcf226f05f5fd19a0919a41a8df8958c39b80007826858610852565b92915050565b825473ffffffffffffffffffffffffffffffffffffffff8116906000907401000000000000000000000000000000000000000090046bffffffffffffffffffffffff1683158061020a575080155b15610218576000915061025d565b620186a084101561024257620186a06102318286610865565b61023b919061087c565b915061025d565b80610250620186a08661087c565b61025a9190610865565b91505b50935093915050565b600061027061052a565b905090565b6000806101b660017fc9ed16f33ab3a66c84bfd83099ccb2a8845871e2e1c1928f63797152f0fd54cd610852565b815473ffffffffffffffffffffffffffffffffffffffff82811691161461032b576040517f08c379a000000000000000000000000000000000000000000000000000000000815260206004820152601860248201527f4f776e6572736869703a206e6f7420746865206f776e6572000000000000000060448201526064015b60405180910390fd5b5050565b620186a081111561036f576040517f3affc6c400000000000000000000000000000000000000000000000000000000815260048101829052602401610322565b81546bffffffffffffffffffffffff909116740100000000000000000000000000000000000000000273ffffffffffffffffffffffffffffffffffffffff909116179055565b73ffffffffffffffffffffffffffffffffffffffff8116610402576040517f6fe1b4c800000000000000000000000000000000000000000000000000000000815260040160405180910390fd5b81547fffffffffffffffffffffffff00000000000000000000000000000000000000001673ffffffffffffffffffffffffffffffffffffffff91909116179055565b6000806101b660017fb53127684a568b3173ae13b9f8a6016e243e63b6e8ee1178d6a717850b5d6104610852565b815473ffffffffffffffffffffffffffffffffffffffff82811691161461032b576040517f08c379a000000000000000000000000000000000000000000000000000000000815260206004820152601960248201527f50726f787941646d696e3a206e6f74207468652061646d696e000000000000006044820152606401610322565b6101867f2a55205a000000000000000000000000000000000000000000000000000000006001610523610671565b919061069f565b60003332148061053a5750601836105b1561054457503390565b7fffffffffffffffffffffffffffffffffffffffffffffffffffffffffffffffec36013560601c7f000000000000000000000000000000000000000000000000000000000000000073ffffffffffffffffffffffffffffffffffffffff1633148061066057506040517f8929a8ca00000000000000000000000000000000000000000000000000000000815273ffffffffffffffffffffffffffffffffffffffff82811660048301523360248301527f00000000000000000000000000000000000000000000000000000000000000001690638929a8ca90604401602060405180830381865afa15801561063c573d6000803e3d6000fd5b505050506040513d601f19601f8201168201806040525081019061066091906108b7565b1561066a57919050565b3391505090565b6000806101b660017fca9d3e17f264b0f3984e2634e94adb37fa3e6a8103f06aeae6fa59e21c769f5e610852565b7c01000000000000000000000000000000000000000000000000000000007fffffffff00000000000000000000000000000000000000000000000000000000831601610747576040517f08c379a000000000000000000000000000000000000000000000000000000000815260206004820152601f60248201527f496e74657266616365446574656374696f6e3a2077726f6e672076616c7565006044820152606401610322565b7fffffffff00000000000000000000000000000000000000000000000000000000919091166000908152602092909252604090912080547fffffffffffffffffffffffffffffffffffffffffffffffffffffffffffffff0016911515919091179055565b600080604083850312156107be57600080fd5b50508035926020909101359150565b6000602082840312156107df57600080fd5b5035919050565b6000602082840312156107f857600080fd5b813573ffffffffffffffffffffffffffffffffffffffff8116811461081c57600080fd5b9392505050565b7f4e487b7100000000000000000000000000000000000000000000000000000000600052601160045260246000fd5b818103818111156101b6576101b6610823565b80820281158282048414176101b6576101b6610823565b6000826108b2577f4e487b7100000000000000000000000000000000000000000000000000000000600052601260045260246000fd5b500490565b6000602082840312156108c957600080fd5b8151801515811461081c57600080fdfea2646970667358221220890d6721011bb012e130a356efa2524d599e68381e0d1ee92fdc8cb9e826661464736f6c63430008130033",
  "linkReferences": {},
  "deployedLinkReferences": {}
}