{
  "_format": "hh-sol-artifact-1",
  "contractName": "ERC2981Facet",
  "sourceName": "contracts/token/royalty/facets/ERC2981Facet.sol",
  "abi": [
    {
      "inputs": [
        {
          "internalType": "contract IForwarderRegistry",
          "name": "forwarderRegistry",
          "type": "address"
        }
      ],
      "stateMutability": "nonpayable",
      "type": "constructor"
    },
    {
      "inputs": [
        {
          "internalType": "uint256",
          "name": "percentage",
          "type": "uint256"
        }
      ],
      "name": "IncorrectRoyaltyPercentage",
      "type": "error"
    },
    {
      "inputs": [],
      "name": "IncorrectRoyaltyReceiver",
      "type": "error"
    },
    {
      "inputs": [],
      "name": "ROYALTY_FEE_DENOMINATOR",
      "outputs": [
        {
          "internalType": "uint256",
          "name": "",
          "type": "uint256"
        }
      ],
      "stateMutability": "view",
      "type": "function"
    },
    {
      "inputs": [],
      "name": "initERC2981",
      "outputs": [],
      "stateMutability": "nonpayable",
      "type": "function"
    },
    {
      "inputs": [
        {
          "internalType": "uint256",
          "name": "tokenId",
          "type": "uint256"
        },
        {
          "internalType": "uint256",
          "name": "salePrice",
          "type": "uint256"
        }
      ],
      "name": "royaltyInfo",
      "outputs": [
        {
          "internalType": "address",
          "name": "receiver",
          "type": "address"
        },
        {
          "internalType": "uint256",
          "name": "royaltyAmount",
          "type": "uint256"
        }
      ],
      "stateMutability": "view",
      "type": "function"
    },
    {
      "inputs": [
        {
          "internalType": "uint256",
          "name": "percentage",
          "type": "uint256"
        }
      ],
      "name": "setRoyaltyPercentage",
      "outputs": [],
      "stateMutability": "nonpayable",
      "type": "function"
    },
    {
      "inputs": [
        {
          "internalType": "address",
          "name": "receiver",
          "type": "address"
        }
      ],
      "name": "setRoyaltyReceiver",
      "outputs": [],
      "stateMutability": "nonpayable",
      "type": "function"
    }
  ],
  "bytecode": "0x60a060405234801561000f575f80fd5b5060405161097b38038061097b83398101604081905261002e9161003f565b6001600160a01b031660805261006c565b5f6020828403121561004f575f80fd5b81516001600160a01b0381168114610065575f80fd5b9392505050565b6080516108f061008b5f395f818161056101526105e901526108f05ff3fe608060405234801561000f575f80fd5b5060043610610064575f3560e01c80638dc251e31161004d5780638dc251e3146100c1578063d60da201146100d4578063e1a8bf2c146100dc575f80fd5b80632a55205a1461006857806361ba27da146100ac575b5f80fd5b61007b61007636600461079b565b6100f4565b6040805173ffffffffffffffffffffffffffffffffffffffff90931683526020830191909152015b60405180910390f35b6100bf6100ba3660046107bb565b610115565b005b6100bf6100cf3660046107d2565b610143565b6100bf610160565b6100e6620186a081565b6040519081526020016100a3565b5f8061010a8484610103610183565b91906101b6565b915091509250929050565b61012e61012061025e565b61012861026c565b90610299565b6101408161013a610183565b90610325565b50565b61014e61012061025e565b6101408161015a610183565b906103ab565b61017961016b61025e565b61017361043a565b90610467565b6101816104ea565b565b5f806101b060017f2c0cf10337caabbd02dcf226f05f5fd19a0919a41a8df8958c39b80007826858610839565b92915050565b825473ffffffffffffffffffffffffffffffffffffffff8116905f907401000000000000000000000000000000000000000090046bffffffffffffffffffffffff16831580610203575080155b15610210575f9150610255565b620186a084101561023a57620186a0610229828661084c565b6102339190610863565b9150610255565b80610248620186a086610863565b610252919061084c565b91505b50935093915050565b5f61026761051f565b905090565b5f806101b060017fc9ed16f33ab3a66c84bfd83099ccb2a8845871e2e1c1928f63797152f0fd54cd610839565b815473ffffffffffffffffffffffffffffffffffffffff828116911614610321576040517f08c379a000000000000000000000000000000000000000000000000000000000815260206004820152601860248201527f4f776e6572736869703a206e6f7420746865206f776e6572000000000000000060448201526064015b60405180910390fd5b5050565b620186a0811115610365576040517f3affc6c400000000000000000000000000000000000000000000000000000000815260048101829052602401610318565b81546bffffffffffffffffffffffff909116740100000000000000000000000000000000000000000273ffffffffffffffffffffffffffffffffffffffff909116179055565b73ffffffffffffffffffffffffffffffffffffffff81166103f8576040517f6fe1b4c800000000000000000000000000000000000000000000000000000000815260040160405180910390fd5b81547fffffffffffffffffffffffff00000000000000000000000000000000000000001673ffffffffffffffffffffffffffffffffffffffff91909116179055565b5f806101b060017fb53127684a568b3173ae13b9f8a6016e243e63b6e8ee1178d6a717850b5d6104610839565b815473ffffffffffffffffffffffffffffffffffffffff828116911614610321576040517f08c379a000000000000000000000000000000000000000000000000000000000815260206004820152601960248201527f50726f787941646d696e3a206e6f74207468652061646d696e000000000000006044820152606401610318565b6101817f2a55205a000000000000000000000000000000000000000000000000000000006001610518610663565b9190610690565b5f3332148061052e5750601836105b1561053857503390565b7fffffffffffffffffffffffffffffffffffffffffffffffffffffffffffffffec36013560601c7f000000000000000000000000000000000000000000000000000000000000000073ffffffffffffffffffffffffffffffffffffffff1633148061065257506040517f8929a8ca00000000000000000000000000000000000000000000000000000000815273ffffffffffffffffffffffffffffffffffffffff82811660048301523360248301527f00000000000000000000000000000000000000000000000000000000000000001690638929a8ca90604401602060405180830381865afa15801561062e573d5f803e3d5ffd5b505050506040513d601f19601f82011682018060405250810190610652919061089b565b1561065c57919050565b3391505090565b5f806101b060017fca9d3e17f264b0f3984e2634e94adb37fa3e6a8103f06aeae6fa59e21c769f5e610839565b7c01000000000000000000000000000000000000000000000000000000007fffffffff00000000000000000000000000000000000000000000000000000000831601610738576040517f08c379a000000000000000000000000000000000000000000000000000000000815260206004820152601f60248201527f496e74657266616365446574656374696f6e3a2077726f6e672076616c7565006044820152606401610318565b7fffffffff00000000000000000000000000000000000000000000000000000000919091165f908152602092909252604090912080547fffffffffffffffffffffffffffffffffffffffffffffffffffffffffffffff0016911515919091179055565b5f80604083850312156107ac575f80fd5b50508035926020909101359150565b5f602082840312156107cb575f80fd5b5035919050565b5f602082840312156107e2575f80fd5b813573ffffffffffffffffffffffffffffffffffffffff81168114610805575f80fd5b9392505050565b7f4e487b71000000000000000000000000000000000000000000000000000000005f52601160045260245ffd5b818103818111156101b0576101b061080c565b80820281158282048414176101b0576101b061080c565b5f82610896577f4e487b71000000000000000000000000000000000000000000000000000000005f52601260045260245ffd5b500490565b5f602082840312156108ab575f80fd5b81518015158114610805575f80fdfea26469706673582212208f551f9d5930f3dc8e3a0ae64f0a0f6125aee30b9f394e7185c5fdad6264cffe64736f6c63430008150033",
  "linkReferences": {},
  "deployedLinkReferences": {}
}