{
  "_format": "hh-sol-artifact-1",
  "contractName": "ForwarderRegistryReceiverMock",
  "sourceName": "contracts/mocks/metatx/ForwarderRegistryReceiverMock.sol",
  "abi": [
    {
      "inputs": [
        {
          "internalType": "contract IForwarderRegistry",
          "name": "forwarderRegistry",
          "type": "address"
        }
      ],
      "stateMutability": "nonpayable",
      "type": "constructor"
    },
    {
      "inputs": [],
      "name": "forwarderRegistry",
      "outputs": [
        {
          "internalType": "contract IForwarderRegistry",
          "name": "",
          "type": "address"
        }
      ],
      "stateMutability": "view",
      "type": "function"
    },
    {
      "inputs": [
        {
          "internalType": "address",
          "name": "who",
          "type": "address"
        }
      ],
      "name": "getData",
      "outputs": [
        {
          "internalType": "uint256",
          "name": "",
          "type": "uint256"
        }
      ],
      "stateMutability": "view",
      "type": "function"
    },
    {
      "inputs": [
        {
          "internalType": "address",
          "name": "forwarder",
          "type": "address"
        }
      ],
      "name": "isTrustedForwarder",
      "outputs": [
        {
          "internalType": "bool",
          "name": "",
          "type": "bool"
        }
      ],
      "stateMutability": "view",
      "type": "function"
    },
    {
      "inputs": [],
      "name": "smallDataTest",
      "outputs": [],
      "stateMutability": "nonpayable",
      "type": "function"
    },
    {
      "inputs": [
        {
          "internalType": "uint256",
          "name": "d",
          "type": "uint256"
        }
      ],
      "name": "test",
      "outputs": [],
      "stateMutability": "nonpayable",
      "type": "function"
    }
  ],
  "bytecode": "0x60a060405234801561001057600080fd5b506040516106ce3803806106ce83398101604081905261002f91610040565b6001600160a01b0316608052610070565b60006020828403121561005257600080fd5b81516001600160a01b038116811461006957600080fd5b9392505050565b6080516106216100ad60003960008181609b0152818161012601528181610243015281816102cb0152818161037e01526103bc01526106216000f3fe608060405234801561001057600080fd5b50600436106100675760003560e01c806338266b221161005057806338266b22146100ca57806347850b6b1461010e578063572b6c051461011657600080fd5b806329e99f071461006c5780632b4c9f1614610081575b600080fd5b61007f61007a3660046104ea565b610173565b005b60405173ffffffffffffffffffffffffffffffffffffffff7f00000000000000000000000000000000000000000000000000000000000000001681526020015b60405180910390f35b6101006100d8366004610503565b73ffffffffffffffffffffffffffffffffffffffff1660009081526020819052604090205490565b6040519081526020016100c1565b61007f6101b0565b610163610124366004610503565b7f000000000000000000000000000000000000000000000000000000000000000073ffffffffffffffffffffffffffffffffffffffff90811691161490565b60405190151581526020016100c1565b600061017d610200565b9050610187610347565b505073ffffffffffffffffffffffffffffffffffffffff16600090815260208190526040902055565b60006101ba610200565b90506101c4610347565b505073ffffffffffffffffffffffffffffffffffffffff8116600090815260208190526040812080549091906101f990610540565b9091555050565b6000333214806102105750601836105b1561021a57503390565b7fffffffffffffffffffffffffffffffffffffffffffffffffffffffffffffffec36013560601c7f000000000000000000000000000000000000000000000000000000000000000073ffffffffffffffffffffffffffffffffffffffff1633148061033657506040517f8929a8ca00000000000000000000000000000000000000000000000000000000815273ffffffffffffffffffffffffffffffffffffffff82811660048301523360248301527f00000000000000000000000000000000000000000000000000000000000000001690638929a8ca90604401602060405180830381865afa158015610312573d6000803e3d6000fd5b505050506040513d601f19601f82011682018060405250810190610336919061059f565b1561034057919050565b3391505090565b366000333214806103585750601836105b156103665750600091369150565b3373ffffffffffffffffffffffffffffffffffffffff7f000000000000000000000000000000000000000000000000000000000000000016148061049b575073ffffffffffffffffffffffffffffffffffffffff7f000000000000000000000000000000000000000000000000000000000000000016638929a8ca367fffffffffffffffffffffffffffffffffffffffffffffffffffffffffffffffec013560601c6040517fffffffff0000000000000000000000000000000000000000000000000000000060e084901b16815273ffffffffffffffffffffffffffffffffffffffff9091166004820152336024820152604401602060405180830381865afa158015610477573d6000803e3d6000fd5b505050506040513d601f19601f8201168201806040525081019061049b919061059f565b156104b0576104a86104b9565b915091509091565b50600091369150565b3660006104a87fffffffffffffffffffffffffffffffffffffffffffffffffffffffffffffffec83018284816105c1565b6000602082840312156104fc57600080fd5b5035919050565b60006020828403121561051557600080fd5b813573ffffffffffffffffffffffffffffffffffffffff8116811461053957600080fd5b9392505050565b60007fffffffffffffffffffffffffffffffffffffffffffffffffffffffffffffffff8203610598577f4e487b7100000000000000000000000000000000000000000000000000000000600052601160045260246000fd5b5060010190565b6000602082840312156105b157600080fd5b8151801515811461053957600080fd5b600080858511156105d157600080fd5b838611156105de57600080fd5b505082019391909203915056fea26469706673582212204338cd743b75bc85bc63bd20083c2f0b63abde4d277618faa4a78cd32a4bf30b64736f6c63430008100033",
  "linkReferences": {},
  "deployedLinkReferences": {}
}