{
  "_format": "hh-sol-artifact-1",
  "contractName": "ERC721PausableMock",
  "sourceName": "contracts/mocks/token/ERC721/ERC721PausableMock.sol",
  "abi": [
    {
      "inputs": [
        {
          "internalType": "string",
          "name": "name_",
          "type": "string"
        },
        {
          "internalType": "string",
          "name": "symbol_",
          "type": "string"
        },
        {
          "internalType": "string",
          "name": "tokenURI_",
          "type": "string"
        },
        {
          "internalType": "bool",
          "name": "isPaused",
          "type": "bool"
        }
      ],
      "stateMutability": "nonpayable",
      "type": "constructor"
    },
    {
      "anonymous": false,
      "inputs": [
        {
          "indexed": true,
          "internalType": "address",
          "name": "owner",
          "type": "address"
        },
        {
          "indexed": true,
          "internalType": "address",
          "name": "approved",
          "type": "address"
        },
        {
          "indexed": true,
          "internalType": "uint256",
          "name": "tokenId",
          "type": "uint256"
        }
      ],
      "name": "Approval",
      "type": "event"
    },
    {
      "anonymous": false,
      "inputs": [
        {
          "indexed": true,
          "internalType": "address",
          "name": "owner",
          "type": "address"
        },
        {
          "indexed": true,
          "internalType": "address",
          "name": "operator",
          "type": "address"
        },
        {
          "indexed": false,
          "internalType": "bool",
          "name": "approved",
          "type": "bool"
        }
      ],
      "name": "ApprovalForAll",
      "type": "event"
    },
    {
      "anonymous": false,
      "inputs": [
        {
          "indexed": true,
          "internalType": "address",
          "name": "previousOwner",
          "type": "address"
        },
        {
          "indexed": true,
          "internalType": "address",
          "name": "newOwner",
          "type": "address"
        }
      ],
      "name": "OwnershipTransferred",
      "type": "event"
    },
    {
      "anonymous": false,
      "inputs": [],
      "name": "Paused",
      "type": "event"
    },
    {
      "anonymous": false,
      "inputs": [
        {
          "indexed": false,
          "internalType": "bytes32",
          "name": "role",
          "type": "bytes32"
        },
        {
          "indexed": false,
          "internalType": "address",
          "name": "account",
          "type": "address"
        },
        {
          "indexed": false,
          "internalType": "address",
          "name": "operator",
          "type": "address"
        }
      ],
      "name": "RoleGranted",
      "type": "event"
    },
    {
      "anonymous": false,
      "inputs": [
        {
          "indexed": false,
          "internalType": "bytes32",
          "name": "role",
          "type": "bytes32"
        },
        {
          "indexed": false,
          "internalType": "address",
          "name": "account",
          "type": "address"
        },
        {
          "indexed": false,
          "internalType": "address",
          "name": "operator",
          "type": "address"
        }
      ],
      "name": "RoleRevoked",
      "type": "event"
    },
    {
      "anonymous": false,
      "inputs": [
        {
          "indexed": true,
          "internalType": "address",
          "name": "from",
          "type": "address"
        },
        {
          "indexed": true,
          "internalType": "address",
          "name": "to",
          "type": "address"
        },
        {
          "indexed": true,
          "internalType": "uint256",
          "name": "tokenId",
          "type": "uint256"
        }
      ],
      "name": "Transfer",
      "type": "event"
    },
    {
      "anonymous": false,
      "inputs": [],
      "name": "Unpaused",
      "type": "event"
    },
    {
      "inputs": [],
      "name": "MINTER_ROLE",
      "outputs": [
        {
          "internalType": "bytes32",
          "name": "",
          "type": "bytes32"
        }
      ],
      "stateMutability": "view",
      "type": "function"
    },
    {
      "inputs": [
        {
          "internalType": "address",
          "name": "to",
          "type": "address"
        },
        {
          "internalType": "uint256",
          "name": "tokenId",
          "type": "uint256"
        }
      ],
      "name": "approve",
      "outputs": [],
      "stateMutability": "nonpayable",
      "type": "function"
    },
    {
      "inputs": [
        {
          "internalType": "address",
          "name": "owner",
          "type": "address"
        }
      ],
      "name": "balanceOf",
      "outputs": [
        {
          "internalType": "uint256",
          "name": "",
          "type": "uint256"
        }
      ],
      "stateMutability": "view",
      "type": "function"
    },
    {
      "inputs": [
        {
          "internalType": "address",
          "name": "from",
          "type": "address"
        },
        {
          "internalType": "uint256[]",
          "name": "tokenIds",
          "type": "uint256[]"
        }
      ],
      "name": "batchBurnFrom",
      "outputs": [],
      "stateMutability": "nonpayable",
      "type": "function"
    },
    {
      "inputs": [
        {
          "internalType": "address",
          "name": "to",
          "type": "address"
        },
        {
          "internalType": "uint256[]",
          "name": "tokenIds",
          "type": "uint256[]"
        }
      ],
      "name": "batchMint",
      "outputs": [],
      "stateMutability": "nonpayable",
      "type": "function"
    },
    {
      "inputs": [
        {
          "internalType": "address",
          "name": "from",
          "type": "address"
        },
        {
          "internalType": "uint256",
          "name": "tokenId",
          "type": "uint256"
        }
      ],
      "name": "burnFrom",
      "outputs": [],
      "stateMutability": "nonpayable",
      "type": "function"
    },
    {
      "inputs": [
        {
          "internalType": "uint256",
          "name": "tokenId",
          "type": "uint256"
        }
      ],
      "name": "getApproved",
      "outputs": [
        {
          "internalType": "address",
          "name": "operator",
          "type": "address"
        }
      ],
      "stateMutability": "view",
      "type": "function"
    },
    {
      "inputs": [
        {
          "internalType": "bytes32",
          "name": "role",
          "type": "bytes32"
        },
        {
          "internalType": "address",
          "name": "account",
          "type": "address"
        }
      ],
      "name": "grantRole",
      "outputs": [],
      "stateMutability": "nonpayable",
      "type": "function"
    },
    {
      "inputs": [
        {
          "internalType": "bytes32",
          "name": "role",
          "type": "bytes32"
        },
        {
          "internalType": "address",
          "name": "account",
          "type": "address"
        }
      ],
      "name": "hasRole",
      "outputs": [
        {
          "internalType": "bool",
          "name": "",
          "type": "bool"
        }
      ],
      "stateMutability": "view",
      "type": "function"
    },
    {
      "inputs": [
        {
          "internalType": "address",
          "name": "owner",
          "type": "address"
        },
        {
          "internalType": "address",
          "name": "operator",
          "type": "address"
        }
      ],
      "name": "isApprovedForAll",
      "outputs": [
        {
          "internalType": "bool",
          "name": "",
          "type": "bool"
        }
      ],
      "stateMutability": "view",
      "type": "function"
    },
    {
      "inputs": [
        {
          "internalType": "address",
          "name": "to",
          "type": "address"
        },
        {
          "internalType": "uint256",
          "name": "tokenId",
          "type": "uint256"
        }
      ],
      "name": "mint",
      "outputs": [],
      "stateMutability": "nonpayable",
      "type": "function"
    },
    {
      "inputs": [],
      "name": "owner",
      "outputs": [
        {
          "internalType": "address",
          "name": "",
          "type": "address"
        }
      ],
      "stateMutability": "view",
      "type": "function"
    },
    {
      "inputs": [
        {
          "internalType": "uint256",
          "name": "tokenId",
          "type": "uint256"
        }
      ],
      "name": "ownerOf",
      "outputs": [
        {
          "internalType": "address",
          "name": "",
          "type": "address"
        }
      ],
      "stateMutability": "view",
      "type": "function"
    },
    {
      "inputs": [],
      "name": "pause",
      "outputs": [],
      "stateMutability": "nonpayable",
      "type": "function"
    },
    {
      "inputs": [],
      "name": "paused",
      "outputs": [
        {
          "internalType": "bool",
          "name": "",
          "type": "bool"
        }
      ],
      "stateMutability": "view",
      "type": "function"
    },
    {
      "inputs": [
        {
          "internalType": "bytes32",
          "name": "role",
          "type": "bytes32"
        }
      ],
      "name": "renounceRole",
      "outputs": [],
      "stateMutability": "nonpayable",
      "type": "function"
    },
    {
      "inputs": [
        {
          "internalType": "bytes32",
          "name": "role",
          "type": "bytes32"
        },
        {
          "internalType": "address",
          "name": "account",
          "type": "address"
        }
      ],
      "name": "revokeRole",
      "outputs": [],
      "stateMutability": "nonpayable",
      "type": "function"
    },
    {
      "inputs": [
        {
          "internalType": "address",
          "name": "to",
          "type": "address"
        },
        {
          "internalType": "uint256",
          "name": "tokenId",
          "type": "uint256"
        },
        {
          "internalType": "bytes",
          "name": "data",
          "type": "bytes"
        }
      ],
      "name": "safeMint",
      "outputs": [],
      "stateMutability": "nonpayable",
      "type": "function"
    },
    {
      "inputs": [
        {
          "internalType": "address",
          "name": "from",
          "type": "address"
        },
        {
          "internalType": "address",
          "name": "to",
          "type": "address"
        },
        {
          "internalType": "uint256",
          "name": "tokenId",
          "type": "uint256"
        }
      ],
      "name": "safeTransferFrom",
      "outputs": [],
      "stateMutability": "nonpayable",
      "type": "function"
    },
    {
      "inputs": [
        {
          "internalType": "address",
          "name": "from",
          "type": "address"
        },
        {
          "internalType": "address",
          "name": "to",
          "type": "address"
        },
        {
          "internalType": "uint256",
          "name": "tokenId",
          "type": "uint256"
        },
        {
          "internalType": "bytes",
          "name": "_data",
          "type": "bytes"
        }
      ],
      "name": "safeTransferFrom",
      "outputs": [],
      "stateMutability": "nonpayable",
      "type": "function"
    },
    {
      "inputs": [
        {
          "internalType": "address",
          "name": "operator",
          "type": "address"
        },
        {
          "internalType": "bool",
          "name": "_approved",
          "type": "bool"
        }
      ],
      "name": "setApprovalForAll",
      "outputs": [],
      "stateMutability": "nonpayable",
      "type": "function"
    },
    {
      "inputs": [
        {
          "internalType": "bytes4",
          "name": "interfaceId",
          "type": "bytes4"
        }
      ],
      "name": "supportsInterface",
      "outputs": [
        {
          "internalType": "bool",
          "name": "",
          "type": "bool"
        }
      ],
      "stateMutability": "view",
      "type": "function"
    },
    {
      "inputs": [
        {
          "internalType": "address",
          "name": "from",
          "type": "address"
        },
        {
          "internalType": "address",
          "name": "to",
          "type": "address"
        },
        {
          "internalType": "uint256",
          "name": "tokenId",
          "type": "uint256"
        }
      ],
      "name": "transferFrom",
      "outputs": [],
      "stateMutability": "nonpayable",
      "type": "function"
    },
    {
      "inputs": [
        {
          "internalType": "address",
          "name": "newOwner",
          "type": "address"
        }
      ],
      "name": "transferOwnership",
      "outputs": [],
      "stateMutability": "nonpayable",
      "type": "function"
    },
    {
      "inputs": [],
      "name": "unpause",
      "outputs": [],
      "stateMutability": "nonpayable",
      "type": "function"
    }
  ],
  "bytecode": "0x60806040523480156200001157600080fd5b5060405162003389380380620033898339810160408190526200003491620005a8565b808484843362000063620000526200013060201b620008e21760201c565b6200016660201b620009101760201c565b6200008d6200007c620001d360201b6200097a1760201c565b6200020360201b620009a81760201c565b620000bb81620000a76200025860201b62000a021760201c565b6200028860201b62000a301790919060201c565b50620000f463a745805d60e01b6001620000df620001d360201b6200097a1760201c565b6200033760201b62000b14179092919060201c565b505050620001258162000111620003c560201b62000c041760201c565b620003f560201b62000c321790919060201c565b505050505062000678565b6000806200016060017fddf3ee18ae6d688373c219468f8be446e7ae82215f4779d821c7ea5e8c13c0c162000652565b92915050565b620001ad6200019760017ffddcdbf8ca7eb362a678daf3643ce3cf98ebf69ac314d25d376d5aeabd2f533262000652565b60001b60016200046560201b62000cbc1760201c565b620001d06380ac58cd60e01b6001620000df620001d360201b6200097a1760201c565b50565b6000806200016060017f7180ffa89c91cf90d6c56dacabfc69bc5e36f3099d7eed2f5cc12c5dba016fe062000652565b620002346200019760017f947245cdabe12ef4c13574b38217b361de48f57dd2dc345f43703c79bac2873d62000652565b620001d06301ffc9a760e01b6001836200033760201b62000b14179092919060201c565b6000806200016060017f6a1da6973104ff7dedb9b4f5cab5830b3f4a0284ed754366cfc45568bd2d38df62000652565b620002b96200019760017ff1e2f4de496ffe5d046d751d8ec3c329ee011c6c6a229322971a7e02a207f97362000652565b6001600160a01b03811615620003105781546001600160a01b0319166001600160a01b03821690811783556040516000907f8be0079c531659141344cd1fd0a4f28419497f9722a3daafe3b4186f6b6457e0908290a35b620003336307f5828d60e41b6001620000df620001d360201b6200097a1760201c565b5050565b6001600160e01b03198083169003620003975760405162461bcd60e51b815260206004820152601f60248201527f496e74657266616365446574656374696f6e3a2077726f6e672076616c75650060448201526064015b60405180910390fd5b6001600160e01b03199190911660009081526020929092526040909120805460ff1916911515919091179055565b6000806200016060017ffd6a7063f27337ade8f0157bddcda1459491d9175ccca22006adfec651d73f4962000652565b620004266200019760017fe5fb6784a0a1056070a5e6f0674bfa852aad166e8d480f190f09f2cc31863ff362000652565b80156200033357815460ff191660011782556040517f9e87fac88ff661f02d44f95383c817fece4bce600a3dab7a54406878b965e75290600090a15050565b60006200047d83620004d860201b62000d2c1760201c565b905081816000015410620004d45760405162461bcd60e51b815260206004820152601860248201527f53746f726167653a2076657273696f6e2072656163686564000000000000000060448201526064016200038e565b5550565b90565b634e487b7160e01b600052604160045260246000fd5b600082601f8301126200050357600080fd5b81516001600160401b0380821115620005205762000520620004db565b604051601f8301601f19908116603f011681019082821181831017156200054b576200054b620004db565b816040528381526020925086838588010111156200056857600080fd5b600091505b838210156200058c57858201830151818301840152908201906200056d565b838211156200059e5760008385830101525b9695505050505050565b60008060008060808587031215620005bf57600080fd5b84516001600160401b0380821115620005d757600080fd5b620005e588838901620004f1565b95506020870151915080821115620005fc57600080fd5b6200060a88838901620004f1565b945060408701519150808211156200062157600080fd5b506200063087828801620004f1565b925050606085015180151581146200064757600080fd5b939692955090935050565b6000828210156200067357634e487b7160e01b600052601160045260246000fd5b500390565b612d0180620006886000396000f3fe608060405234801561001057600080fd5b50600436106101a35760003560e01c806379cc6790116100ee578063a22cb46511610097578063d547741f11610071578063d547741f14610369578063e985e9c51461037c578063f24729651461038f578063f2fde38b146103a257600080fd5b8063a22cb4651461031c578063b88d4fde1461032f578063d53913931461034257600080fd5b80638bb9c5bf116100c85780638bb9c5bf146102ee5780638da5cb5b1461030157806391d148541461030957600080fd5b806379cc6790146102c05780638456cb59146102d35780638832e6e3146102db57600080fd5b806340c10f19116101505780635c975abb1161012a5780635c975abb146102845780636352211e1461028c57806370a082311461029f57600080fd5b806340c10f191461024b57806342842e0e1461025e5780634684d7e91461027157600080fd5b806323b872dd1161018157806323b872dd1461021d5780632f2ff15d146102305780633f4ba83a1461024357600080fd5b806301ffc9a7146101a8578063081812fc146101d0578063095ea7b314610208575b600080fd5b6101bb6101b63660046125e2565b6103b5565b60405190151581526020015b60405180910390f35b6101e36101de3660046125ff565b610402565b60405173ffffffffffffffffffffffffffffffffffffffff90911681526020016101c7565b61021b610216366004612641565b610416565b005b61021b61022b36600461266b565b610430565b61021b61023e3660046126a7565b61044d565b61021b610476565b61021b610259366004612641565b610495565b61021b61026c36600461266b565b6104f4565b61021b61027f3660046126d3565b61050c565b6101bb61057e565b6101e361029a3660046125ff565b610597565b6102b26102ad366004612759565b610639565b6040519081526020016101c7565b61021b6102ce366004612641565b6106ef565b61021b610709565b61021b6102e9366004612774565b610722565b61021b6102fc3660046125ff565b61079b565b6101e36107b2565b6101bb6103173660046126a7565b6107d8565b61021b61032a3660046127fb565b610823565b61021b61033d3660046128b5565b610839565b6102b27f6d696e746572000000000000000000000000000000000000000000000000000081565b61021b6103773660046126a7565b610853565b6101bb61038a366004612993565b610876565b61021b61039d3660046129bd565b6108b9565b61021b6103b0366004612759565b6108ce565b60006103fc826103c361097a565b907fffffffff00000000000000000000000000000000000000000000000000000000166000908152602091909152604090205460ff1690565b92915050565b60006103fc826104106108e2565b90610d2f565b61042c3383836104246108e2565b929190610e12565b5050565b6104483384848461043f6108e2565b939291906110ce565b505050565b336104608161045a610a02565b906110f4565b61044883838361046e611177565b9291906111a5565b610483335b61045a610a02565b61049361048e610c04565b61127b565b565b6104ca7f6d696e7465720000000000000000000000000000000000000000000000000000335b6104c3611177565b91906112d6565b61042c3383836040518060200160405280600081525060006104ea6108e2565b9493929190611382565b610448338484846105036108e2565b9392919061148f565b6105367f6d696e7465720000000000000000000000000000000000000000000000000000336104bb565b6104488383838080602002602001604051908101604052809392919081815260200183836020028082843760009201919091525061057792506108e2915050565b91906114ae565b600061059261058b610c04565b5460ff1690565b905090565b6000806105a26108e2565b60008481526001919091016020526040902054905073ffffffffffffffffffffffffffffffffffffffff81166103fc576040517f08c379a000000000000000000000000000000000000000000000000000000000815260206004820152601860248201527f4552433732313a206e6f6e2d6578697374696e67204e4654000000000000000060448201526064015b60405180910390fd5b600073ffffffffffffffffffffffffffffffffffffffff82166106b8576040517f08c379a000000000000000000000000000000000000000000000000000000000815260206004820152601460248201527f4552433732313a207a65726f20616464726573730000000000000000000000006044820152606401610630565b6106c06108e2565b73ffffffffffffffffffffffffffffffffffffffff909216600090815260029290920160205250604090205490565b6106ff6106fa610c04565b6115fb565b61042c8282611667565b6107123361047b565b61049361071d610c04565b61167d565b61074c7f6d696e7465720000000000000000000000000000000000000000000000000000336104bb565b61079533858585858080601f016020809104026020016040519081016040528093929190818152602001838380828437600092019190915250600192506104ea91506108e29050565b50505050565b6107af33826107a8611177565b91906116db565b50565b60006107bc610a02565b5473ffffffffffffffffffffffffffffffffffffffff16919050565b600061081c83836107e7611177565b60009283526020908152604080842073ffffffffffffffffffffffffffffffffffffffff909316845291905290205460ff1690565b9392505050565b61042c3383836108316108e2565b92919061177f565b61079533858585856108496108e2565b94939291906118ab565b336108608161045a610a02565b61044883838361086e611177565b9291906118bb565b60006108806108e2565b73ffffffffffffffffffffffffffffffffffffffff93841660009081526020918252604080822094909516815292905250205460ff1690565b6108c46106fa610c04565b61042c8282611985565b6107af33826108db610a02565b919061199b565b6000806103fc60017fddf3ee18ae6d688373c219468f8be446e7ae82215f4779d821c7ea5e8c13c0c1612aa5565b61094561093e60017ffddcdbf8ca7eb362a678daf3643ce3cf98ebf69ac314d25d376d5aeabd2f5332612aa5565b6001610cbc565b6107af7f80ac58cd00000000000000000000000000000000000000000000000000000000600161097361097a565b9190610b14565b6000806103fc60017f7180ffa89c91cf90d6c56dacabfc69bc5e36f3099d7eed2f5cc12c5dba016fe0612aa5565b6109d661093e60017f947245cdabe12ef4c13574b38217b361de48f57dd2dc345f43703c79bac2873d612aa5565b6107af817f01ffc9a7000000000000000000000000000000000000000000000000000000006001610b14565b6000806103fc60017f6a1da6973104ff7dedb9b4f5cab5830b3f4a0284ed754366cfc45568bd2d38df612aa5565b610a5e61093e60017ff1e2f4de496ffe5d046d751d8ec3c329ee011c6c6a229322971a7e02a207f973612aa5565b73ffffffffffffffffffffffffffffffffffffffff811615610ae65781547fffffffffffffffffffffffff00000000000000000000000000000000000000001673ffffffffffffffffffffffffffffffffffffffff821690811783556040516000907f8be0079c531659141344cd1fd0a4f28419497f9722a3daafe3b4186f6b6457e0908290a35b61042c7f7f5828d000000000000000000000000000000000000000000000000000000000600161097361097a565b7fffffffff000000000000000000000000000000000000000000000000000000008083169003610ba0576040517f08c379a000000000000000000000000000000000000000000000000000000000815260206004820152601f60248201527f496e74657266616365446574656374696f6e3a2077726f6e672076616c7565006044820152606401610630565b7fffffffff00000000000000000000000000000000000000000000000000000000919091166000908152602092909252604090912080547fffffffffffffffffffffffffffffffffffffffffffffffffffffffffffffff0016911515919091179055565b6000806103fc60017ffd6a7063f27337ade8f0157bddcda1459491d9175ccca22006adfec651d73f49612aa5565b610c6061093e60017fe5fb6784a0a1056070a5e6f0674bfa852aad166e8d480f190f09f2cc31863ff3612aa5565b801561042c5781547fffffffffffffffffffffffffffffffffffffffffffffffffffffffffffffff001660011782556040517f9e87fac88ff661f02d44f95383c817fece4bce600a3dab7a54406878b965e75290600090a15050565b815482908211610d28576040517f08c379a000000000000000000000000000000000000000000000000000000000815260206004820152601860248201527f53746f726167653a2076657273696f6e207265616368656400000000000000006044820152606401610630565b5550565b90565b600081815260018301602052604081205473ffffffffffffffffffffffffffffffffffffffff8116610dbd576040517f08c379a000000000000000000000000000000000000000000000000000000000815260206004820152601860248201527f4552433732313a206e6f6e2d6578697374696e67204e465400000000000000006044820152606401610630565b74010000000000000000000000000000000000000000811615610e08575050600081815260038301602052604090205473ffffffffffffffffffffffffffffffffffffffff166103fc565b60009150506103fc565b600081815260018501602052604081205490819003610e8d576040517f08c379a000000000000000000000000000000000000000000000000000000000815260206004820152601860248201527f4552433732313a206e6f6e2d6578697374696e67204e465400000000000000006044820152606401610630565b8073ffffffffffffffffffffffffffffffffffffffff80821690851603610f10576040517f08c379a000000000000000000000000000000000000000000000000000000000815260206004820152601560248201527f4552433732313a2073656c662d617070726f76616c00000000000000000000006044820152606401610630565b610f1b868287611ac7565b610f81576040517f08c379a000000000000000000000000000000000000000000000000000000000815260206004820152601b60248201527f4552433732313a206e6f6e2d617070726f7665642073656e64657200000000006044820152606401610630565b73ffffffffffffffffffffffffffffffffffffffff8416610fe85774010000000000000000000000000000000000000000821615610fe3576000838152600187016020526040902073ffffffffffffffffffffffffffffffffffffffff821690555b61106b565b74010000000000000000000000000000000000000000821780831461101b57600084815260018801602052604090208190555b506000838152600387016020526040902080547fffffffffffffffffffffffff00000000000000000000000000000000000000001673ffffffffffffffffffffffffffffffffffffffff86161790555b828473ffffffffffffffffffffffffffffffffffffffff168273ffffffffffffffffffffffffffffffffffffffff167f8c5be1e5ebec7d5bd14f71427d1e84f3dd0314c0f7b2291e5b200ac8c7c3b92560405160405180910390a4505050505050565b6110ed8585858585604051806020016040528060008152506000611b3b565b5050505050565b815473ffffffffffffffffffffffffffffffffffffffff82811691161461042c576040517f08c379a000000000000000000000000000000000000000000000000000000000815260206004820152601860248201527f4f776e6572736869703a206e6f7420746865206f776e657200000000000000006044820152606401610630565b6000806103fc60017fc8a24fbf085abf1493c5f225802d03df3ece6cd19f18edff36c56d854cddac9e612aa5565b60008381526020858152604080832073ffffffffffffffffffffffffffffffffffffffff8616845290915290205460ff166107955760008381526020858152604080832073ffffffffffffffffffffffffffffffffffffffff8681168086529184529382902080547fffffffffffffffffffffffffffffffffffffffffffffffffffffffffffffff00166001179055815187815292830152918316918101919091527f2f8788117e7eff1d82e926ec794901d17c78024a50270940304540a733656f0d906060015b60405180910390a150505050565b61128481611c71565b80547fffffffffffffffffffffffffffffffffffffffffffffffffffffffffffffff001681556040517fa45f47fdea8a1efdd9029a5691c7f759c32b7c698632b563573e155625d1693390600090a150565b60008281526020848152604080832073ffffffffffffffffffffffffffffffffffffffff8516845290915290205460ff166104485761131482611cdc565b6040516020016113249190612ae8565b604080517fffffffffffffffffffffffffffffffffffffffffffffffffffffffffffffffe0818403018152908290527f08c379a000000000000000000000000000000000000000000000000000000000825261063091600401612b9e565b73ffffffffffffffffffffffffffffffffffffffff84166113ff576040517f08c379a000000000000000000000000000000000000000000000000000000000815260206004820152601460248201527f4552433732313a206d696e7420746f207a65726f0000000000000000000000006044820152606401610630565b61140c8685856000611e66565b604051839073ffffffffffffffffffffffffffffffffffffffff8616906000907fddf252ad1be2c89b69c2b068fc378daa952ba7f163c4a11628f55a4df523b3ef908290a4808015611474575073ffffffffffffffffffffffffffffffffffffffff84163b15155b1561148757611487856000868686611f4b565b505050505050565b6110ed8585858585604051806020016040528060008152506001611b3b565b73ffffffffffffffffffffffffffffffffffffffff821661152b576040517f08c379a000000000000000000000000000000000000000000000000000000000815260206004820152601460248201527f4552433732313a206d696e7420746f207a65726f0000000000000000000000006044820152606401610630565b805160005b8181146115b857600083828151811061154b5761154b612bb1565b602002602001015190506115628686836001611e66565b604051819073ffffffffffffffffffffffffffffffffffffffff8716906000907fddf252ad1be2c89b69c2b068fc378daa952ba7f163c4a11628f55a4df523b3ef908290a4506115b181612be0565b9050611530565b5073ffffffffffffffffffffffffffffffffffffffff83166000908152600285016020526040812080548392906115f0908490612c18565b909155505050505050565b805460ff16156107af576040517f08c379a000000000000000000000000000000000000000000000000000000000815260206004820152600d60248201527f50617573653a20706175736564000000000000000000000000000000000000006044820152606401610630565b61042c3383836116756108e2565b929190612071565b611686816115fb565b80547fffffffffffffffffffffffffffffffffffffffffffffffffffffffffffffff001660011781556040517f9e87fac88ff661f02d44f95383c817fece4bce600a3dab7a54406878b965e75290600090a150565b6116e68382846112d6565b60008181526020848152604080832073ffffffffffffffffffffffffffffffffffffffff86168085529083529281902080547fffffffffffffffffffffffffffffffffffffffffffffffffffffffffffffff0016905580518481529182018390528101919091527ff6391f5c32d9c69d2a47ea670b442974b53935d1edc7fd64eb21e047a839171b9060600160405180910390a1505050565b8273ffffffffffffffffffffffffffffffffffffffff168273ffffffffffffffffffffffffffffffffffffffff1603611814576040517f08c379a000000000000000000000000000000000000000000000000000000000815260206004820152601560248201527f4552433732313a2073656c662d617070726f76616c00000000000000000000006044820152606401610630565b73ffffffffffffffffffffffffffffffffffffffff8381166000818152602087815260408083209487168084529482529182902080547fffffffffffffffffffffffffffffffffffffffffffffffffffffffffffffff001686151590811790915591519182527f17307eab39ab6107e8899845ad3d59bd9653f200f220920489ca2b5937696c31910160405180910390a350505050565b6114878686868686866001611b3b565b60008381526020858152604080832073ffffffffffffffffffffffffffffffffffffffff8616845290915290205460ff16156107955760008381526020858152604080832073ffffffffffffffffffffffffffffffffffffffff8681168086529184529382902080547fffffffffffffffffffffffffffffffffffffffffffffffffffffffffffffff00169055815187815292830152918316918101919091527ff6391f5c32d9c69d2a47ea670b442974b53935d1edc7fd64eb21e047a839171b9060600161126d565b61042c3383836119936108e2565b9291906120db565b825473ffffffffffffffffffffffffffffffffffffffff9081169083168114611a20576040517f08c379a000000000000000000000000000000000000000000000000000000000815260206004820152601860248201527f4f776e6572736869703a206e6f7420746865206f776e657200000000000000006044820152606401610630565b8173ffffffffffffffffffffffffffffffffffffffff168173ffffffffffffffffffffffffffffffffffffffff16146107955783547fffffffffffffffffffffffff00000000000000000000000000000000000000001673ffffffffffffffffffffffffffffffffffffffff8381169182178655604051908316907f8be0079c531659141344cd1fd0a4f28419497f9722a3daafe3b4186f6b6457e090600090a350505050565b60008173ffffffffffffffffffffffffffffffffffffffff168373ffffffffffffffffffffffffffffffffffffffff161480611b33575073ffffffffffffffffffffffffffffffffffffffff8084166000908152602086815260408083209386168352929052205460ff165b949350505050565b73ffffffffffffffffffffffffffffffffffffffff8416611bb8576040517f08c379a000000000000000000000000000000000000000000000000000000000815260206004820152601860248201527f4552433732313a207472616e7366657220746f207a65726f00000000000000006044820152606401610630565b6000611bc5888789611ac7565b9050611bd788888888888660006121c5565b838573ffffffffffffffffffffffffffffffffffffffff168773ffffffffffffffffffffffffffffffffffffffff167fddf252ad1be2c89b69c2b068fc378daa952ba7f163c4a11628f55a4df523b3ef60405160405180910390a4818015611c55575073ffffffffffffffffffffffffffffffffffffffff85163b15155b15611c6757611c678787878787611f4b565b5050505050505050565b805460ff166107af576040517f08c379a000000000000000000000000000000000000000000000000000000000815260206004820152601160248201527f50617573653a206e6f74207061757365640000000000000000000000000000006044820152606401610630565b60606000829003611cfb57505060408051602081019091526000815290565b600082604051602001611d1091815260200190565b604080517fffffffffffffffffffffffffffffffffffffffffffffffffffffffffffffffe08184030181529190529050601f5b818181518110611d5557611d55612bb1565b01602001517fff0000000000000000000000000000000000000000000000000000000000000016600003611d9357611d8c81612c30565b9050611d43565b6000611da0826001612c18565b67ffffffffffffffff811115611db857611db8612837565b6040519080825280601f01601f191660200182016040528015611de2576020820181803683370190505b50905060005b828111611e5d57838181518110611e0157611e01612bb1565b602001015160f81c60f81b828281518110611e1e57611e1e612bb1565b60200101907effffffffffffffffffffffffffffffffffffffffffffffffffffffffffffff1916908160001a905350611e5681612be0565b9050611de8565b50949350505050565b600082815260018501602052604090205415611ede576040517f08c379a000000000000000000000000000000000000000000000000000000000815260206004820152601a60248201527f4552433732313a206578697374696e672f6275726e74204e46540000000000006044820152606401610630565b6000828152600185016020526040902073ffffffffffffffffffffffffffffffffffffffff84169055806107955773ffffffffffffffffffffffffffffffffffffffff8316600090815260028501602052604081208054909190611f4190612be0565b9091555050505050565b6040517f150b7a02000000000000000000000000000000000000000000000000000000008082529073ffffffffffffffffffffffffffffffffffffffff85169063150b7a0290611fa5908990899088908890600401612c65565b6020604051808303816000875af1158015611fc4573d6000803e3d6000fd5b505050506040513d601f19601f82011682018060405250810190611fe89190612cae565b7fffffffff0000000000000000000000000000000000000000000000000000000016146110ed576040517f08c379a000000000000000000000000000000000000000000000000000000000815260206004820152601860248201527f4552433732313a207472616e73666572207265667573656400000000000000006044820152606401610630565b600061207e858486611ac7565b905061208f8585858585600061234c565b604051829060009073ffffffffffffffffffffffffffffffffffffffff8616907fddf252ad1be2c89b69c2b068fc378daa952ba7f163c4a11628f55a4df523b3ef908390a45050505050565b60006120e8858486611ac7565b825190915060005b81811461217a57600084828151811061210b5761210b612bb1565b602002602001015190506121248888888488600161234c565b604051819060009073ffffffffffffffffffffffffffffffffffffffff8916907fddf252ad1be2c89b69c2b068fc378daa952ba7f163c4a11628f55a4df523b3ef908390a45061217381612be0565b90506120f0565b5080156114875773ffffffffffffffffffffffffffffffffffffffff84166000908152600287016020526040812080548392906121b8908490612aa5565b9091555050505050505050565b600083815260018801602052604090205473ffffffffffffffffffffffffffffffffffffffff86811690821614612258576040517f08c379a000000000000000000000000000000000000000000000000000000000815260206004820152601560248201527f4552433732313a206e6f6e2d6f776e6564204e465400000000000000000000006044820152606401610630565b8261231157740100000000000000000000000000000000000000008116158015906122ab5750600084815260038901602052604090205473ffffffffffffffffffffffffffffffffffffffff8881169116145b612311576040517f08c379a000000000000000000000000000000000000000000000000000000000815260206004820152601b60248201527f4552433732313a206e6f6e2d617070726f7665642073656e64657200000000006044820152606401610630565b6000848152600189016020526040902073ffffffffffffffffffffffffffffffffffffffff8616905581611c6757611c67888787600161250e565b600083815260018701602052604090205473ffffffffffffffffffffffffffffffffffffffff858116908216146123df576040517f08c379a000000000000000000000000000000000000000000000000000000000815260206004820152601560248201527f4552433732313a206e6f6e2d6f776e6564204e465400000000000000000000006044820152606401610630565b8261249857740100000000000000000000000000000000000000008116158015906124325750600084815260038801602052604090205473ffffffffffffffffffffffffffffffffffffffff8781169116145b612498576040517f08c379a000000000000000000000000000000000000000000000000000000000815260206004820152601b60248201527f4552433732313a206e6f6e2d617070726f7665642073656e64657200000000006044820152606401610630565b600084815260018801602052604090207fdead0000000000000000000000000000000000000000000000000000000000009055816125055773ffffffffffffffffffffffffffffffffffffffff85166000908152600288016020526040812080549091906121b890612c30565b50505050505050565b8173ffffffffffffffffffffffffffffffffffffffff168373ffffffffffffffffffffffffffffffffffffffff16146107955773ffffffffffffffffffffffffffffffffffffffff8316600090815260028501602052604081208054839290612578908490612aa5565b909155505073ffffffffffffffffffffffffffffffffffffffff82166000908152600285016020526040812080548392906115f0908490612c18565b7fffffffff00000000000000000000000000000000000000000000000000000000811681146107af57600080fd5b6000602082840312156125f457600080fd5b813561081c816125b4565b60006020828403121561261157600080fd5b5035919050565b803573ffffffffffffffffffffffffffffffffffffffff8116811461263c57600080fd5b919050565b6000806040838503121561265457600080fd5b61265d83612618565b946020939093013593505050565b60008060006060848603121561268057600080fd5b61268984612618565b925061269760208501612618565b9150604084013590509250925092565b600080604083850312156126ba57600080fd5b823591506126ca60208401612618565b90509250929050565b6000806000604084860312156126e857600080fd5b6126f184612618565b9250602084013567ffffffffffffffff8082111561270e57600080fd5b818601915086601f83011261272257600080fd5b81358181111561273157600080fd5b8760208260051b850101111561274657600080fd5b6020830194508093505050509250925092565b60006020828403121561276b57600080fd5b61081c82612618565b6000806000806060858703121561278a57600080fd5b61279385612618565b935060208501359250604085013567ffffffffffffffff808211156127b757600080fd5b818701915087601f8301126127cb57600080fd5b8135818111156127da57600080fd5b8860208285010111156127ec57600080fd5b95989497505060200194505050565b6000806040838503121561280e57600080fd5b61281783612618565b91506020830135801515811461282c57600080fd5b809150509250929050565b7f4e487b7100000000000000000000000000000000000000000000000000000000600052604160045260246000fd5b604051601f82017fffffffffffffffffffffffffffffffffffffffffffffffffffffffffffffffe016810167ffffffffffffffff811182821017156128ad576128ad612837565b604052919050565b600080600080608085870312156128cb57600080fd5b6128d485612618565b935060206128e3818701612618565b935060408601359250606086013567ffffffffffffffff8082111561290757600080fd5b818801915088601f83011261291b57600080fd5b81358181111561292d5761292d612837565b61295d847fffffffffffffffffffffffffffffffffffffffffffffffffffffffffffffffe0601f84011601612866565b9150808252898482850101111561297357600080fd5b808484018584013760008482840101525080935050505092959194509250565b600080604083850312156129a657600080fd5b6129af83612618565b91506126ca60208401612618565b600080604083850312156129d057600080fd5b6129d983612618565b915060208084013567ffffffffffffffff808211156129f757600080fd5b818601915086601f830112612a0b57600080fd5b813581811115612a1d57612a1d612837565b8060051b9150612a2e848301612866565b8181529183018401918481019089841115612a4857600080fd5b938501935b83851015612a6657843582529385019390850190612a4d565b8096505050505050509250929050565b7f4e487b7100000000000000000000000000000000000000000000000000000000600052601160045260246000fd5b600082821015612ab757612ab7612a76565b500390565b60005b83811015612ad7578181015183820152602001612abf565b838111156107955750506000910152565b7f416363657373436f6e74726f6c3a206d697373696e6720270000000000000000815260008251612b20816018850160208701612abc565b7f2720726f6c6500000000000000000000000000000000000000000000000000006018939091019283015250601e01919050565b60008151808452612b6c816020860160208601612abc565b601f017fffffffffffffffffffffffffffffffffffffffffffffffffffffffffffffffe0169290920160200192915050565b60208152600061081c6020830184612b54565b7f4e487b7100000000000000000000000000000000000000000000000000000000600052603260045260246000fd5b60007fffffffffffffffffffffffffffffffffffffffffffffffffffffffffffffffff8203612c1157612c11612a76565b5060010190565b60008219821115612c2b57612c2b612a76565b500190565b600081612c3f57612c3f612a76565b507fffffffffffffffffffffffffffffffffffffffffffffffffffffffffffffffff0190565b600073ffffffffffffffffffffffffffffffffffffffff808716835280861660208401525083604083015260806060830152612ca46080830184612b54565b9695505050505050565b600060208284031215612cc057600080fd5b815161081c816125b456fea264697066735822122083243e717e124f09e7397747ab4b4446d07328285c652c6bf80c973c585bb6ff64736f6c634300080d0033",
  "linkReferences": {},
  "deployedLinkReferences": {}
}