{
  "_format": "hh-sol-artifact-1",
  "contractName": "ERC20MintBurn",
  "sourceName": "contracts/token/ERC20/preset/ERC20MintBurn.sol",
  "abi": [
    {
      "inputs": [
        {
          "internalType": "string",
          "name": "tokenName",
          "type": "string"
        },
        {
          "internalType": "string",
          "name": "tokenSymbol",
          "type": "string"
        },
        {
          "internalType": "uint8",
          "name": "tokenDecimals",
          "type": "uint8"
        },
        {
          "internalType": "contract IForwarderRegistry",
          "name": "forwarderRegistry",
          "type": "address"
        }
      ],
      "stateMutability": "nonpayable",
      "type": "constructor"
    },
    {
      "inputs": [
        {
          "internalType": "address",
          "name": "owner",
          "type": "address"
        },
        {
          "internalType": "address",
          "name": "spender",
          "type": "address"
        },
        {
          "internalType": "uint256",
          "name": "allowance",
          "type": "uint256"
        },
        {
          "internalType": "uint256",
          "name": "increment",
          "type": "uint256"
        }
      ],
      "name": "ERC20AllowanceOverflow",
      "type": "error"
    },
    {
      "inputs": [
        {
          "internalType": "address",
          "name": "owner",
          "type": "address"
        }
      ],
      "name": "ERC20ApprovalToAddressZero",
      "type": "error"
    },
    {
      "inputs": [],
      "name": "ERC20BatchMintValuesOverflow",
      "type": "error"
    },
    {
      "inputs": [],
      "name": "ERC20BatchTransferValuesOverflow",
      "type": "error"
    },
    {
      "inputs": [
        {
          "internalType": "address",
          "name": "owner",
          "type": "address"
        },
        {
          "internalType": "address",
          "name": "spender",
          "type": "address"
        },
        {
          "internalType": "uint256",
          "name": "allowance",
          "type": "uint256"
        },
        {
          "internalType": "uint256",
          "name": "decrement",
          "type": "uint256"
        }
      ],
      "name": "ERC20InsufficientAllowance",
      "type": "error"
    },
    {
      "inputs": [
        {
          "internalType": "address",
          "name": "owner",
          "type": "address"
        },
        {
          "internalType": "uint256",
          "name": "balance",
          "type": "uint256"
        },
        {
          "internalType": "uint256",
          "name": "value",
          "type": "uint256"
        }
      ],
      "name": "ERC20InsufficientBalance",
      "type": "error"
    },
    {
      "inputs": [],
      "name": "ERC20MintToAddressZero",
      "type": "error"
    },
    {
      "inputs": [
        {
          "internalType": "uint256",
          "name": "deadline",
          "type": "uint256"
        }
      ],
      "name": "ERC20PermitExpired",
      "type": "error"
    },
    {
      "inputs": [],
      "name": "ERC20PermitFromAddressZero",
      "type": "error"
    },
    {
      "inputs": [],
      "name": "ERC20PermitInvalidSignature",
      "type": "error"
    },
    {
      "inputs": [
        {
          "internalType": "address",
          "name": "recipient",
          "type": "address"
        }
      ],
      "name": "ERC20SafeTransferRejected",
      "type": "error"
    },
    {
      "inputs": [
        {
          "internalType": "uint256",
          "name": "supply",
          "type": "uint256"
        },
        {
          "internalType": "uint256",
          "name": "value",
          "type": "uint256"
        }
      ],
      "name": "ERC20TotalSupplyOverflow",
      "type": "error"
    },
    {
      "inputs": [
        {
          "internalType": "address",
          "name": "owner",
          "type": "address"
        }
      ],
      "name": "ERC20TransferToAddressZero",
      "type": "error"
    },
    {
      "inputs": [],
      "name": "IllegalInterfaceId",
      "type": "error"
    },
    {
      "inputs": [],
      "name": "InconsistentArrayLengths",
      "type": "error"
    },
    {
      "inputs": [
        {
          "internalType": "address",
          "name": "account",
          "type": "address"
        }
      ],
      "name": "NotContractOwner",
      "type": "error"
    },
    {
      "inputs": [
        {
          "internalType": "bytes32",
          "name": "role",
          "type": "bytes32"
        },
        {
          "internalType": "address",
          "name": "account",
          "type": "address"
        }
      ],
      "name": "NotRoleHolder",
      "type": "error"
    },
    {
      "anonymous": false,
      "inputs": [
        {
          "indexed": true,
          "internalType": "address",
          "name": "owner",
          "type": "address"
        },
        {
          "indexed": true,
          "internalType": "address",
          "name": "spender",
          "type": "address"
        },
        {
          "indexed": false,
          "internalType": "uint256",
          "name": "value",
          "type": "uint256"
        }
      ],
      "name": "Approval",
      "type": "event"
    },
    {
      "anonymous": false,
      "inputs": [
        {
          "indexed": true,
          "internalType": "address",
          "name": "previousOwner",
          "type": "address"
        },
        {
          "indexed": true,
          "internalType": "address",
          "name": "newOwner",
          "type": "address"
        }
      ],
      "name": "OwnershipTransferred",
      "type": "event"
    },
    {
      "anonymous": false,
      "inputs": [
        {
          "indexed": false,
          "internalType": "bytes32",
          "name": "role",
          "type": "bytes32"
        },
        {
          "indexed": false,
          "internalType": "address",
          "name": "account",
          "type": "address"
        },
        {
          "indexed": false,
          "internalType": "address",
          "name": "operator",
          "type": "address"
        }
      ],
      "name": "RoleGranted",
      "type": "event"
    },
    {
      "anonymous": false,
      "inputs": [
        {
          "indexed": false,
          "internalType": "bytes32",
          "name": "role",
          "type": "bytes32"
        },
        {
          "indexed": false,
          "internalType": "address",
          "name": "account",
          "type": "address"
        },
        {
          "indexed": false,
          "internalType": "address",
          "name": "operator",
          "type": "address"
        }
      ],
      "name": "RoleRevoked",
      "type": "event"
    },
    {
      "anonymous": false,
      "inputs": [
        {
          "indexed": true,
          "internalType": "address",
          "name": "from",
          "type": "address"
        },
        {
          "indexed": true,
          "internalType": "address",
          "name": "to",
          "type": "address"
        },
        {
          "indexed": false,
          "internalType": "uint256",
          "name": "value",
          "type": "uint256"
        }
      ],
      "name": "Transfer",
      "type": "event"
    },
    {
      "inputs": [],
      "name": "DOMAIN_SEPARATOR",
      "outputs": [
        {
          "internalType": "bytes32",
          "name": "",
          "type": "bytes32"
        }
      ],
      "stateMutability": "view",
      "type": "function"
    },
    {
      "inputs": [],
      "name": "MINTER_ROLE",
      "outputs": [
        {
          "internalType": "bytes32",
          "name": "",
          "type": "bytes32"
        }
      ],
      "stateMutability": "view",
      "type": "function"
    },
    {
      "inputs": [
        {
          "internalType": "address",
          "name": "owner",
          "type": "address"
        },
        {
          "internalType": "address",
          "name": "spender",
          "type": "address"
        }
      ],
      "name": "allowance",
      "outputs": [
        {
          "internalType": "uint256",
          "name": "value",
          "type": "uint256"
        }
      ],
      "stateMutability": "view",
      "type": "function"
    },
    {
      "inputs": [
        {
          "internalType": "address",
          "name": "spender",
          "type": "address"
        },
        {
          "internalType": "uint256",
          "name": "value",
          "type": "uint256"
        }
      ],
      "name": "approve",
      "outputs": [
        {
          "internalType": "bool",
          "name": "result",
          "type": "bool"
        }
      ],
      "stateMutability": "nonpayable",
      "type": "function"
    },
    {
      "inputs": [
        {
          "internalType": "address",
          "name": "owner",
          "type": "address"
        }
      ],
      "name": "balanceOf",
      "outputs": [
        {
          "internalType": "uint256",
          "name": "balance",
          "type": "uint256"
        }
      ],
      "stateMutability": "view",
      "type": "function"
    },
    {
      "inputs": [
        {
          "internalType": "address[]",
          "name": "owners",
          "type": "address[]"
        },
        {
          "internalType": "uint256[]",
          "name": "values",
          "type": "uint256[]"
        }
      ],
      "name": "batchBurnFrom",
      "outputs": [
        {
          "internalType": "bool",
          "name": "",
          "type": "bool"
        }
      ],
      "stateMutability": "nonpayable",
      "type": "function"
    },
    {
      "inputs": [
        {
          "internalType": "address[]",
          "name": "recipients",
          "type": "address[]"
        },
        {
          "internalType": "uint256[]",
          "name": "values",
          "type": "uint256[]"
        }
      ],
      "name": "batchMint",
      "outputs": [],
      "stateMutability": "nonpayable",
      "type": "function"
    },
    {
      "inputs": [
        {
          "internalType": "address[]",
          "name": "recipients",
          "type": "address[]"
        },
        {
          "internalType": "uint256[]",
          "name": "values",
          "type": "uint256[]"
        }
      ],
      "name": "batchTransfer",
      "outputs": [
        {
          "internalType": "bool",
          "name": "",
          "type": "bool"
        }
      ],
      "stateMutability": "nonpayable",
      "type": "function"
    },
    {
      "inputs": [
        {
          "internalType": "address",
          "name": "from",
          "type": "address"
        },
        {
          "internalType": "address[]",
          "name": "recipients",
          "type": "address[]"
        },
        {
          "internalType": "uint256[]",
          "name": "values",
          "type": "uint256[]"
        }
      ],
      "name": "batchTransferFrom",
      "outputs": [
        {
          "internalType": "bool",
          "name": "",
          "type": "bool"
        }
      ],
      "stateMutability": "nonpayable",
      "type": "function"
    },
    {
      "inputs": [
        {
          "internalType": "uint256",
          "name": "value",
          "type": "uint256"
        }
      ],
      "name": "burn",
      "outputs": [
        {
          "internalType": "bool",
          "name": "",
          "type": "bool"
        }
      ],
      "stateMutability": "nonpayable",
      "type": "function"
    },
    {
      "inputs": [
        {
          "internalType": "address",
          "name": "from",
          "type": "address"
        },
        {
          "internalType": "uint256",
          "name": "value",
          "type": "uint256"
        }
      ],
      "name": "burnFrom",
      "outputs": [
        {
          "internalType": "bool",
          "name": "",
          "type": "bool"
        }
      ],
      "stateMutability": "nonpayable",
      "type": "function"
    },
    {
      "inputs": [],
      "name": "decimals",
      "outputs": [
        {
          "internalType": "uint8",
          "name": "",
          "type": "uint8"
        }
      ],
      "stateMutability": "view",
      "type": "function"
    },
    {
      "inputs": [
        {
          "internalType": "address",
          "name": "spender",
          "type": "address"
        },
        {
          "internalType": "uint256",
          "name": "subtractedValue",
          "type": "uint256"
        }
      ],
      "name": "decreaseAllowance",
      "outputs": [
        {
          "internalType": "bool",
          "name": "result",
          "type": "bool"
        }
      ],
      "stateMutability": "nonpayable",
      "type": "function"
    },
    {
      "inputs": [],
      "name": "forwarderRegistry",
      "outputs": [
        {
          "internalType": "contract IForwarderRegistry",
          "name": "",
          "type": "address"
        }
      ],
      "stateMutability": "view",
      "type": "function"
    },
    {
      "inputs": [
        {
          "internalType": "bytes32",
          "name": "role",
          "type": "bytes32"
        },
        {
          "internalType": "address",
          "name": "account",
          "type": "address"
        }
      ],
      "name": "grantRole",
      "outputs": [],
      "stateMutability": "nonpayable",
      "type": "function"
    },
    {
      "inputs": [
        {
          "internalType": "bytes32",
          "name": "role",
          "type": "bytes32"
        },
        {
          "internalType": "address",
          "name": "account",
          "type": "address"
        }
      ],
      "name": "hasRole",
      "outputs": [
        {
          "internalType": "bool",
          "name": "hasRole_",
          "type": "bool"
        }
      ],
      "stateMutability": "view",
      "type": "function"
    },
    {
      "inputs": [
        {
          "internalType": "address",
          "name": "spender",
          "type": "address"
        },
        {
          "internalType": "uint256",
          "name": "addedValue",
          "type": "uint256"
        }
      ],
      "name": "increaseAllowance",
      "outputs": [
        {
          "internalType": "bool",
          "name": "result",
          "type": "bool"
        }
      ],
      "stateMutability": "nonpayable",
      "type": "function"
    },
    {
      "inputs": [
        {
          "internalType": "address",
          "name": "forwarder",
          "type": "address"
        }
      ],
      "name": "isTrustedForwarder",
      "outputs": [
        {
          "internalType": "bool",
          "name": "",
          "type": "bool"
        }
      ],
      "stateMutability": "view",
      "type": "function"
    },
    {
      "inputs": [
        {
          "internalType": "address",
          "name": "to",
          "type": "address"
        },
        {
          "internalType": "uint256",
          "name": "value",
          "type": "uint256"
        }
      ],
      "name": "mint",
      "outputs": [],
      "stateMutability": "nonpayable",
      "type": "function"
    },
    {
      "inputs": [],
      "name": "name",
      "outputs": [
        {
          "internalType": "string",
          "name": "",
          "type": "string"
        }
      ],
      "stateMutability": "view",
      "type": "function"
    },
    {
      "inputs": [
        {
          "internalType": "address",
          "name": "owner",
          "type": "address"
        }
      ],
      "name": "nonces",
      "outputs": [
        {
          "internalType": "uint256",
          "name": "",
          "type": "uint256"
        }
      ],
      "stateMutability": "view",
      "type": "function"
    },
    {
      "inputs": [],
      "name": "owner",
      "outputs": [
        {
          "internalType": "address",
          "name": "",
          "type": "address"
        }
      ],
      "stateMutability": "view",
      "type": "function"
    },
    {
      "inputs": [
        {
          "internalType": "address",
          "name": "owner",
          "type": "address"
        },
        {
          "internalType": "address",
          "name": "spender",
          "type": "address"
        },
        {
          "internalType": "uint256",
          "name": "value",
          "type": "uint256"
        },
        {
          "internalType": "uint256",
          "name": "deadline",
          "type": "uint256"
        },
        {
          "internalType": "uint8",
          "name": "v",
          "type": "uint8"
        },
        {
          "internalType": "bytes32",
          "name": "r",
          "type": "bytes32"
        },
        {
          "internalType": "bytes32",
          "name": "s",
          "type": "bytes32"
        }
      ],
      "name": "permit",
      "outputs": [],
      "stateMutability": "nonpayable",
      "type": "function"
    },
    {
      "inputs": [
        {
          "internalType": "address[]",
          "name": "accounts",
          "type": "address[]"
        },
        {
          "internalType": "contract IERC20[]",
          "name": "tokens",
          "type": "address[]"
        },
        {
          "internalType": "uint256[]",
          "name": "amounts",
          "type": "uint256[]"
        }
      ],
      "name": "recoverERC20s",
      "outputs": [],
      "stateMutability": "nonpayable",
      "type": "function"
    },
    {
      "inputs": [
        {
          "internalType": "address[]",
          "name": "accounts",
          "type": "address[]"
        },
        {
          "internalType": "contract IERC721[]",
          "name": "contracts",
          "type": "address[]"
        },
        {
          "internalType": "uint256[]",
          "name": "tokenIds",
          "type": "uint256[]"
        }
      ],
      "name": "recoverERC721s",
      "outputs": [],
      "stateMutability": "nonpayable",
      "type": "function"
    },
    {
      "inputs": [
        {
          "internalType": "address payable[]",
          "name": "accounts",
          "type": "address[]"
        },
        {
          "internalType": "uint256[]",
          "name": "amounts",
          "type": "uint256[]"
        }
      ],
      "name": "recoverETH",
      "outputs": [],
      "stateMutability": "nonpayable",
      "type": "function"
    },
    {
      "inputs": [
        {
          "internalType": "bytes32",
          "name": "role",
          "type": "bytes32"
        }
      ],
      "name": "renounceRole",
      "outputs": [],
      "stateMutability": "nonpayable",
      "type": "function"
    },
    {
      "inputs": [
        {
          "internalType": "bytes32",
          "name": "role",
          "type": "bytes32"
        },
        {
          "internalType": "address",
          "name": "account",
          "type": "address"
        }
      ],
      "name": "revokeRole",
      "outputs": [],
      "stateMutability": "nonpayable",
      "type": "function"
    },
    {
      "inputs": [
        {
          "internalType": "address",
          "name": "to",
          "type": "address"
        },
        {
          "internalType": "uint256",
          "name": "value",
          "type": "uint256"
        },
        {
          "internalType": "bytes",
          "name": "data",
          "type": "bytes"
        }
      ],
      "name": "safeTransfer",
      "outputs": [
        {
          "internalType": "bool",
          "name": "",
          "type": "bool"
        }
      ],
      "stateMutability": "nonpayable",
      "type": "function"
    },
    {
      "inputs": [
        {
          "internalType": "address",
          "name": "from",
          "type": "address"
        },
        {
          "internalType": "address",
          "name": "to",
          "type": "address"
        },
        {
          "internalType": "uint256",
          "name": "value",
          "type": "uint256"
        },
        {
          "internalType": "bytes",
          "name": "data",
          "type": "bytes"
        }
      ],
      "name": "safeTransferFrom",
      "outputs": [
        {
          "internalType": "bool",
          "name": "",
          "type": "bool"
        }
      ],
      "stateMutability": "nonpayable",
      "type": "function"
    },
    {
      "inputs": [
        {
          "internalType": "string",
          "name": "uri",
          "type": "string"
        }
      ],
      "name": "setTokenURI",
      "outputs": [],
      "stateMutability": "nonpayable",
      "type": "function"
    },
    {
      "inputs": [
        {
          "internalType": "bytes4",
          "name": "interfaceId",
          "type": "bytes4"
        }
      ],
      "name": "supportsInterface",
      "outputs": [
        {
          "internalType": "bool",
          "name": "",
          "type": "bool"
        }
      ],
      "stateMutability": "view",
      "type": "function"
    },
    {
      "inputs": [],
      "name": "symbol",
      "outputs": [
        {
          "internalType": "string",
          "name": "",
          "type": "string"
        }
      ],
      "stateMutability": "view",
      "type": "function"
    },
    {
      "inputs": [],
      "name": "tokenURI",
      "outputs": [
        {
          "internalType": "string",
          "name": "",
          "type": "string"
        }
      ],
      "stateMutability": "view",
      "type": "function"
    },
    {
      "inputs": [],
      "name": "totalSupply",
      "outputs": [
        {
          "internalType": "uint256",
          "name": "supply",
          "type": "uint256"
        }
      ],
      "stateMutability": "view",
      "type": "function"
    },
    {
      "inputs": [
        {
          "internalType": "address",
          "name": "to",
          "type": "address"
        },
        {
          "internalType": "uint256",
          "name": "value",
          "type": "uint256"
        }
      ],
      "name": "transfer",
      "outputs": [
        {
          "internalType": "bool",
          "name": "result",
          "type": "bool"
        }
      ],
      "stateMutability": "nonpayable",
      "type": "function"
    },
    {
      "inputs": [
        {
          "internalType": "address",
          "name": "from",
          "type": "address"
        },
        {
          "internalType": "address",
          "name": "to",
          "type": "address"
        },
        {
          "internalType": "uint256",
          "name": "value",
          "type": "uint256"
        }
      ],
      "name": "transferFrom",
      "outputs": [
        {
          "internalType": "bool",
          "name": "result",
          "type": "bool"
        }
      ],
      "stateMutability": "nonpayable",
      "type": "function"
    },
    {
      "inputs": [
        {
          "internalType": "address",
          "name": "newOwner",
          "type": "address"
        }
      ],
      "name": "transferOwnership",
      "outputs": [],
      "stateMutability": "nonpayable",
      "type": "function"
    }
  ],
  "bytecode": "0x60a06040523480156200001157600080fd5b506040516200428b3803806200428b83398101604081905262000034916200041b565b80803386868662000044620000d2565b6200005e838383620000556200010d565b92919062000143565b5050506200007d81620000766200019960201b60201c565b90620001c9565b50620000886200023c565b6200009262000256565b6200009c6200026e565b620000a662000286565b620000b06200029e565b620000ba620002b6565b6001600160a01b0316608052506200063c9350505050565b6000620000de620002c9565b9050620000f5816336372b0760e01b6001620002f9565b6200010a81634e83a8c360e11b6001620002f9565b50565b6000806200013d60017f335df4119bbb04f056b33eba33b826d3529129e458faf6daa9924b5a8f3b6a82620004bf565b92915050565b8362000150848262000570565b506001840162000161838262000570565b5060028401805460ff191660ff83161790556200019363a219a02560e01b60016200018b620002c9565b9190620002f9565b50505050565b6000806200013d60017fc9ed16f33ab3a66c84bfd83099ccb2a8845871e2e1c1928f63797152f0fd54cd620004bf565b6001600160a01b03811615620002205781546001600160a01b0319166001600160a01b03821690811783556040516000907f8be0079c531659141344cd1fd0a4f28419497f9722a3daafe3b4186f6b6457e0908290a35b620002386307f5828d60e41b60016200018b620002c9565b5050565b620002546303c130d960e41b60016200018b620002c9565b565b62000254634ec7fbed60e11b60016200018b620002c9565b620002546353f41a9760e01b60016200018b620002c9565b6200025463602993f360e11b60016200018b620002c9565b6200025463144b1f0f60e11b60016200018b620002c9565b620002546320c07ed160e01b60016200018b5b6000806200013d60017fca9d3e17f264b0f3984e2634e94adb37fa3e6a8103f06aeae6fa59e21c769f5e620004bf565b600160e01b6001600160e01b031983160162000328576040516372c683bb60e01b815260040160405180910390fd5b6001600160e01b03199190911660009081526020929092526040909120805460ff1916911515919091179055565b634e487b7160e01b600052604160045260246000fd5b600082601f8301126200037e57600080fd5b81516001600160401b03808211156200039b576200039b62000356565b604051601f8301601f19908116603f01168101908282118183101715620003c657620003c662000356565b81604052838152602092508683858801011115620003e357600080fd5b600091505b83821015620004075785820183015181830184015290820190620003e8565b600093810190920192909252949350505050565b600080600080608085870312156200043257600080fd5b84516001600160401b03808211156200044a57600080fd5b62000458888389016200036c565b955060208701519150808211156200046f57600080fd5b506200047e878288016200036c565b935050604085015160ff811681146200049657600080fd5b60608601519092506001600160a01b0381168114620004b457600080fd5b939692955090935050565b818103818111156200013d57634e487b7160e01b600052601160045260246000fd5b600181811c90821680620004f657607f821691505b6020821081036200051757634e487b7160e01b600052602260045260246000fd5b50919050565b601f8211156200056b57600081815260208120601f850160051c81016020861015620005465750805b601f850160051c820191505b81811015620005675782815560010162000552565b5050505b505050565b81516001600160401b038111156200058c576200058c62000356565b620005a4816200059d8454620004e1565b846200051d565b602080601f831160018114620005dc5760008415620005c35750858301515b600019600386901b1c1916600185901b17855562000567565b600085815260208120601f198616915b828110156200060d57888601518255948401946001909101908401620005ec565b50858210156200062c5787850151600019600388901b60f8161c191681555b5050505050600190811b01905550565b608051613c1e6200066d600039600081816103250152818161040501528181612ef60152612f7e0152613c1e6000f3fe608060405234801561001057600080fd5b50600436106102925760003560e01c806379cc679011610160578063b88d4fde116100d8578063dd62ed3e1161008c578063eb79554911610071578063eb795549146105a9578063f2fde38b146105bc578063f7ba94bd146105cf57600080fd5b8063dd62ed3e14610583578063e0df5b6f1461059657600080fd5b8063d505accf116100bd578063d505accf14610536578063d539139314610549578063d547741f1461057057600080fd5b8063b88d4fde14610510578063c3666c361461052357600080fd5b80638da5cb5b1161012f57806395d89b411161011457806395d89b41146104e2578063a457c2d7146104ea578063a9059cbb146104fd57600080fd5b80638da5cb5b146104c757806391d14854146104cf57600080fd5b806379cc67901461047b5780637ecebe001461048e57806388d695b2146104a15780638bb9c5bf146104b457600080fd5b80633644e5151161020e5780634885b254116101c257806368573107116101a7578063685731071461044257806370a082311461045557806373c8a9581461046857600080fd5b80634885b254146103e2578063572b6c05146103f557600080fd5b80633c130d90116101f35780633c130d90146103b457806340c10f19146103bc57806342966c68146103cf57600080fd5b80633644e5151461039957806339509351146103a157600080fd5b80631b9a7529116102655780632b4c9f161161024a5780632b4c9f16146103235780632f2ff15d1461036a578063313ce5671461037f57600080fd5b80631b9a7529146102fd57806323b872dd1461031057600080fd5b806301ffc9a71461029757806306fdde03146102bf578063095ea7b3146102d457806318160ddd146102e7575b600080fd5b6102aa6102a53660046133b6565b6105e2565b60405190151581526020015b60405180910390f35b6102c76105fc565b6040516102b69190613441565b6102aa6102e2366004613476565b610613565b6102ef61063b565b6040519081526020016102b6565b6102aa61030b3660046134ee565b61064f565b6102aa61031e36600461355a565b61067e565b7f00000000000000000000000000000000000000000000000000000000000000005b60405173ffffffffffffffffffffffffffffffffffffffff90911681526020016102b6565b61037d61037836600461359b565b6106a9565b005b6103876106e2565b60405160ff90911681526020016102b6565b6102ef6106f9565b6102aa6103af366004613476565b610703565b6102c7610722565b61037d6103ca366004613476565b61072f565b6102aa6103dd3660046135cb565b610782565b6102aa6103f03660046135e4565b6107a7565b6102aa610403366004613667565b7f000000000000000000000000000000000000000000000000000000000000000073ffffffffffffffffffffffffffffffffffffffff90811691161490565b61037d6104503660046134ee565b6107d8565b6102ef610463366004613667565b610882565b61037d610476366004613684565b6108ba565b6102aa610489366004613476565b6109b7565b6102ef61049c366004613667565b6109d6565b6102aa6104af3660046134ee565b6109e4565b61037d6104c23660046135cb565b610a07565b610345610a25565b6102aa6104dd36600461359b565b610a4c565b6102c7610a97565b6102aa6104f8366004613476565b610aa9565b6102aa61050b366004613476565b610ac8565b6102aa61051e366004613760565b610ae7565b61037d610531366004613684565b610b0c565b61037d6105443660046137c2565b610c83565b6102ef7f6d696e746572000000000000000000000000000000000000000000000000000081565b61037d61057e36600461359b565b610caa565b6102ef610591366004613839565b610cd8565b61037d6105a4366004613867565b610d23565b6102aa6105b73660046138a9565b610d42565b61037d6105ca366004613667565b610d65565b61037d6105dd3660046134ee565b610d80565b60006105f6826105f0610e3e565b90610e6c565b92915050565b606061060e610609610f46565b610f74565b905090565b600061063261062061100a565b848461062a611014565b929190611042565b50600192915050565b600061060e610648611014565b6002015490565b600061067261065c61100a565b86868686610668611014565b949392919061111e565b5060015b949350505050565b600061069f61068b61100a565b858585610696611014565b93929190611326565b5060019392505050565b60006106b361100a565b90506106c7816106c1611378565b906113a6565b6106dd8383836106d5611411565b92919061143f565b505050565b600061060e6106ef610f46565b6002015460ff1690565b600061060e611515565b600061063261071061100a565b848461071a611014565b9291906115b0565b606061060e610609611762565b61076a7f6d696e746572000000000000000000000000000000000000000000000000000061075b61100a565b610763611411565b9190611790565b61077e8282610777611014565b9190611816565b5050565b600061079f61078f61100a565b83610798611014565b919061193a565b506001919050565b60006107cc6107b461100a565b87878787876107c1611014565b959493929190611a46565b50600195945050505050565b6108047f6d696e746572000000000000000000000000000000000000000000000000000061075b61100a565b61087c848480806020026020016040519081016040528093929190818152602001838360200280828437600092019190915250506040805160208088028281018201909352878252909350879250869182918501908490808284376000920191909152506108759250611014915050565b9190611e00565b50505050565b60006105f682610890611014565b9073ffffffffffffffffffffffffffffffffffffffff166000908152602091909152604090205490565b6108cd6108c561100a565b6106c1611378565b8483811415806108dd5750808214155b15610914576040517f6582533600000000000000000000000000000000000000000000000000000000815260040160405180910390fd5b60005b8181146109ad576109a5888883818110610933576109336138f9565b90506020020160208101906109489190613667565b85858481811061095a5761095a6138f9565b90506020020135888885818110610973576109736138f9565b90506020020160208101906109889190613667565b73ffffffffffffffffffffffffffffffffffffffff169190612020565b600101610917565b5050505050505050565b60006106326109c461100a565b84846109ce611014565b9291906120ad565b60006105f6826108906120f7565b60006106726109f161100a565b868686866109fd611014565b9493929190612125565b610a22610a1261100a565b82610a1b611411565b919061247b565b50565b600061060e610a32611378565b5473ffffffffffffffffffffffffffffffffffffffff1690565b6000610a908383610a5b611411565b60009283526020908152604080842073ffffffffffffffffffffffffffffffffffffffff909316845291905290205460ff1690565b9392505050565b606061060e610aa4610f46565b61251f565b6000610632610ab661100a565b8484610ac0611014565b929190612530565b6000610632610ad561100a565b8484610adf611014565b929190612668565b60006107cc610af461100a565b8787878787610b01611014565b959493929190612827565b610b176108c561100a565b848381141580610b275750808214155b15610b5e576040517f6582533600000000000000000000000000000000000000000000000000000000815260040160405180910390fd5b60005b8181146109ad57858582818110610b7a57610b7a6138f9565b9050602002016020810190610b8f9190613667565b73ffffffffffffffffffffffffffffffffffffffff166323b872dd308a8a85818110610bbd57610bbd6138f9565b9050602002016020810190610bd29190613667565b878786818110610be457610be46138f9565b6040517fffffffff0000000000000000000000000000000000000000000000000000000060e088901b16815273ffffffffffffffffffffffffffffffffffffffff958616600482015294909316602485015250602090910201356044820152606401600060405180830381600087803b158015610c6057600080fd5b505af1158015610c74573d6000803e3d6000fd5b50505050806001019050610b61565b610ca187878787878787610c956120f7565b96959493929190612894565b50505050505050565b6000610cb461100a565b9050610cc2816106c1611378565b6106dd838383610cd0611411565b929190612b03565b6000610a908383610ce7611014565b919073ffffffffffffffffffffffffffffffffffffffff9182166000908152600193909301602090815260408085209290931684525290205490565b610d2e6108c561100a565b61077e8282610d3b611762565b9190612bcd565b6000610672610d4f61100a565b86868686610d5b611014565b9493929190612bd9565b610a22610d7061100a565b82610d79611378565b9190612c45565b610d8b6108c561100a565b82818114610dc5576040517f6582533600000000000000000000000000000000000000000000000000000000815260040160405180910390fd5b60005b818114610e3657610e2e848483818110610de457610de46138f9565b90506020020135878784818110610dfd57610dfd6138f9565b9050602002016020810190610e129190613667565b73ffffffffffffffffffffffffffffffffffffffff1690612d59565b600101610dc8565b505050505050565b6000806105f660017fca9d3e17f264b0f3984e2634e94adb37fa3e6a8103f06aeae6fa59e21c769f5e613928565b60007c01000000000000000000000000000000000000000000000000000000007fffffffff00000000000000000000000000000000000000000000000000000000831601610ebc575060006105f6565b7ffe003659000000000000000000000000000000000000000000000000000000007fffffffff00000000000000000000000000000000000000000000000000000000831601610f0d575060016105f6565b507fffffffff00000000000000000000000000000000000000000000000000000000166000908152602091909152604090205460ff1690565b6000806105f660017f335df4119bbb04f056b33eba33b826d3529129e458faf6daa9924b5a8f3b6a82613928565b6060816000018054610f8590613962565b80601f0160208091040260200160405190810160405280929190818152602001828054610fb190613962565b8015610ffe5780601f10610fd357610100808354040283529160200191610ffe565b820191906000526020600020905b815481529060010190602001808311610fe157829003601f168201915b50505050509050919050565b600061060e612eb3565b6000806105f660017f1da92899d3da68bf9787824388a37ea2bfa79780bcef91b9716c390eec8ecbef613928565b73ffffffffffffffffffffffffffffffffffffffff82166110ac576040517ff7e1ac0f00000000000000000000000000000000000000000000000000000000815273ffffffffffffffffffffffffffffffffffffffff841660048201526024015b60405180910390fd5b73ffffffffffffffffffffffffffffffffffffffff838116600081815260018701602090815260408083209487168084529482529182902085905590518481527f8c5be1e5ebec7d5bd14f71427d1e84f3dd0314c0f7b2291e5b200ac8c7c3b92591015b60405180910390a350505050565b82818114611158576040517f6582533600000000000000000000000000000000000000000000000000000000815260040160405180910390fd5b806000036111665750610e36565b6000805b82811461130a576000878783818110611185576111856138f9565b905060200201602081019061119a9190613667565b905060008686848181106111b0576111b06138f9565b9050602002013590508973ffffffffffffffffffffffffffffffffffffffff168273ffffffffffffffffffffffffffffffffffffffff16146111f8576111f88b838c84612530565b80156112b25773ffffffffffffffffffffffffffffffffffffffff8216600090815260208c90526040902054818103818110611286576040517fe450d38c00000000000000000000000000000000000000000000000000000000815273ffffffffffffffffffffffffffffffffffffffff8516600482015260248101839052604481018490526064016110a3565b73ffffffffffffffffffffffffffffffffffffffff8416600090815260208e9052604090205550928301925b60405181815260009073ffffffffffffffffffffffffffffffffffffffff8416907fddf252ad1be2c89b69c2b068fc378daa952ba7f163c4a11628f55a4df523b3ef9060200160405180910390a3505060010161116a565b5080156109ad5760028801805482900390555050505050505050565b8373ffffffffffffffffffffffffffffffffffffffff168373ffffffffffffffffffffffffffffffffffffffff16146113655761136585848684612530565b61137185848484612668565b5050505050565b6000806105f660017fc9ed16f33ab3a66c84bfd83099ccb2a8845871e2e1c1928f63797152f0fd54cd613928565b815473ffffffffffffffffffffffffffffffffffffffff82811691161461077e576040517f2ef4875e00000000000000000000000000000000000000000000000000000000815273ffffffffffffffffffffffffffffffffffffffff821660048201526024016110a3565b6000806105f660017fc8827d3282af6f37b64c3e9e6f3ac9df286ab0bb0fccd6f8661bf19adb368b23613928565b60008381526020858152604080832073ffffffffffffffffffffffffffffffffffffffff8616845290915290205460ff1661087c5760008381526020858152604080832073ffffffffffffffffffffffffffffffffffffffff8681168086529184529382902080547fffffffffffffffffffffffffffffffffffffffffffffffffffffffffffffff00166001179055815187815292830152918316918101919091527f2f8788117e7eff1d82e926ec794901d17c78024a50270940304540a733656f0d906060015b60405180910390a150505050565b6000467f8b73c3c69bb8fe3d512ecc4cf759cc79239f7b179b0ffacaa9a75d522b39400f611544610609610f46565b80516020918201206040805192830193909352918101919091527fc89efdaa54c0f20c7adf612882df0950f5a951637e0307cdcb4c672f298b8bc66060820152608081018290523060a082015260c0016040516020818303038152906040528051906020012091505090565b73ffffffffffffffffffffffffffffffffffffffff8216611615576040517ff7e1ac0f00000000000000000000000000000000000000000000000000000000815273ffffffffffffffffffffffffffffffffffffffff841660048201526024016110a3565b73ffffffffffffffffffffffffffffffffffffffff808416600090815260018601602090815260408083209386168352929052205481156116f4578082018181116116ba576040517f93bc2ff100000000000000000000000000000000000000000000000000000000815273ffffffffffffffffffffffffffffffffffffffff80871660048301528516602482015260448101839052606481018490526084016110a3565b73ffffffffffffffffffffffffffffffffffffffff8086166000908152600188016020908152604080832093881683529290522081905590505b8273ffffffffffffffffffffffffffffffffffffffff168473ffffffffffffffffffffffffffffffffffffffff167f8c5be1e5ebec7d5bd14f71427d1e84f3dd0314c0f7b2291e5b200ac8c7c3b9258360405161175391815260200190565b60405180910390a35050505050565b6000806105f660017ff41bf6a5db26bffdfab174dcf66b31fbba8fdb7e3db040721ce1e62d61839ceb613928565b60008281526020848152604080832073ffffffffffffffffffffffffffffffffffffffff8516845290915290205460ff166106dd576040517f7aa728820000000000000000000000000000000000000000000000000000000081526004810183905273ffffffffffffffffffffffffffffffffffffffff821660248201526044016110a3565b73ffffffffffffffffffffffffffffffffffffffff8216611863576040517f92fd9c8f00000000000000000000000000000000000000000000000000000000815260040160405180910390fd5b80156118e65760028301548181018181116118b4576040517f0366a5f600000000000000000000000000000000000000000000000000000000815260048101839052602481018490526044016110a3565b60028501555073ffffffffffffffffffffffffffffffffffffffff821660009081526020849052604090208054820190555b60405181815273ffffffffffffffffffffffffffffffffffffffff8316906000907fddf252ad1be2c89b69c2b068fc378daa952ba7f163c4a11628f55a4df523b3ef906020015b60405180910390a3505050565b80156119fb5773ffffffffffffffffffffffffffffffffffffffff82166000908152602084905260409020548181038181106119c8576040517fe450d38c00000000000000000000000000000000000000000000000000000000815273ffffffffffffffffffffffffffffffffffffffff8516600482015260248101839052604481018490526064016110a3565b73ffffffffffffffffffffffffffffffffffffffff84166000908152602086905260409020555060028301805482900390555b60405181815260009073ffffffffffffffffffffffffffffffffffffffff8416907fddf252ad1be2c89b69c2b068fc378daa952ba7f163c4a11628f55a4df523b3ef9060200161192d565b82818114611a80576040517f6582533600000000000000000000000000000000000000000000000000000000815260040160405180910390fd5b80600003611a8e5750610ca1565b73ffffffffffffffffffffffffffffffffffffffff86166000908152602089905260408120549080805b848114611d12576000898983818110611ad357611ad36138f9565b9050602002016020810190611ae89190613667565b905073ffffffffffffffffffffffffffffffffffffffff8116611b4f576040517f754f425b00000000000000000000000000000000000000000000000000000000815273ffffffffffffffffffffffffffffffffffffffff8c1660048201526024016110a3565b6000888884818110611b6357611b636138f9565b90506020020135905080600014611ca157848101858111611bb0576040517fdedd834100000000000000000000000000000000000000000000000000000000815260040160405180910390fd5b8095508273ffffffffffffffffffffffffffffffffffffffff168d73ffffffffffffffffffffffffffffffffffffffff1614611c3a57818f60000160008573ffffffffffffffffffffffffffffffffffffffff1673ffffffffffffffffffffffffffffffffffffffff16815260200190815260200160002060008282540192505081905550611c9f565b86821115611c9a576040517fe450d38c00000000000000000000000000000000000000000000000000000000815273ffffffffffffffffffffffffffffffffffffffff8e16600482015260248101889052604481018390526064016110a3565b938101935b505b8173ffffffffffffffffffffffffffffffffffffffff168c73ffffffffffffffffffffffffffffffffffffffff167fddf252ad1be2c89b69c2b068fc378daa952ba7f163c4a11628f55a4df523b3ef83604051611d0091815260200190565b60405180910390a35050600101611ab8565b508115801590611d225750808214155b15611db457818303838110611d89576040517fe450d38c00000000000000000000000000000000000000000000000000000000815273ffffffffffffffffffffffffffffffffffffffff8b16600482015260248101859052604481018490526064016110a3565b73ffffffffffffffffffffffffffffffffffffffff8a16600090815260208d90526040902090820190555b8973ffffffffffffffffffffffffffffffffffffffff168973ffffffffffffffffffffffffffffffffffffffff1614611df357611df38b8a8c85612530565b5050505050505050505050565b815181518114611e3c576040517f6582533600000000000000000000000000000000000000000000000000000000815260040160405180910390fd5b80600003611e4a5750505050565b6000805b828114611fc1576000858281518110611e6957611e696138f9565b60200260200101519050600073ffffffffffffffffffffffffffffffffffffffff168173ffffffffffffffffffffffffffffffffffffffff1603611ed9576040517f92fd9c8f00000000000000000000000000000000000000000000000000000000815260040160405180910390fd5b6000858381518110611eed57611eed6138f9565b6020026020010151905080600014611f6957838101848111611f3b576040517f5542ae7c00000000000000000000000000000000000000000000000000000000815260040160405180910390fd5b73ffffffffffffffffffffffffffffffffffffffff8316600090815260208a90526040902080548301905593505b60405181815273ffffffffffffffffffffffffffffffffffffffff8316906000907fddf252ad1be2c89b69c2b068fc378daa952ba7f163c4a11628f55a4df523b3ef9060200160405180910390a35050600101611e4e565b508015611371576002850154818101818111612013576040517f0366a5f600000000000000000000000000000000000000000000000000000000815260048101839052602481018490526044016110a3565b6002870155505050505050565b6040805173ffffffffffffffffffffffffffffffffffffffff8416602482015260448082018490528251808303909101815260649091019091526020810180517bffffffffffffffffffffffffffffffffffffffffffffffffffffffff167fa9059cbb000000000000000000000000000000000000000000000000000000001790526106dd908490612ffa565b8273ffffffffffffffffffffffffffffffffffffffff168273ffffffffffffffffffffffffffffffffffffffff16146120ec576120ec84838584612530565b61087c84838361193a565b6000806105f660017f93fe0ff7226b064a4a8f0b09910762afb4bc2441835792c021ffd78cd513011e613928565b8281811461215f576040517f6582533600000000000000000000000000000000000000000000000000000000815260040160405180910390fd5b8060000361216d5750610e36565b73ffffffffffffffffffffffffffffffffffffffff86166000908152602088905260408120549080805b8481146123cd5760008989838181106121b2576121b26138f9565b90506020020160208101906121c79190613667565b905073ffffffffffffffffffffffffffffffffffffffff811661222e576040517f754f425b00000000000000000000000000000000000000000000000000000000815273ffffffffffffffffffffffffffffffffffffffff8c1660048201526024016110a3565b6000888884818110612242576122426138f9565b9050602002013590508060001461235c5784810185811161228f576040517fdedd834100000000000000000000000000000000000000000000000000000000815260040160405180910390fd5b8095508273ffffffffffffffffffffffffffffffffffffffff168d73ffffffffffffffffffffffffffffffffffffffff16146122f55773ffffffffffffffffffffffffffffffffffffffff8316600090815260208f90526040902080548301905561235a565b86821115612355576040517fe450d38c00000000000000000000000000000000000000000000000000000000815273ffffffffffffffffffffffffffffffffffffffff8e16600482015260248101889052604481018390526064016110a3565b938101935b505b8173ffffffffffffffffffffffffffffffffffffffff168c73ffffffffffffffffffffffffffffffffffffffff167fddf252ad1be2c89b69c2b068fc378daa952ba7f163c4a11628f55a4df523b3ef836040516123bb91815260200190565b60405180910390a35050600101612197565b5081158015906123dd5750808214155b1561246f57818303838110612444576040517fe450d38c00000000000000000000000000000000000000000000000000000000815273ffffffffffffffffffffffffffffffffffffffff8b16600482015260248101859052604481018490526064016110a3565b73ffffffffffffffffffffffffffffffffffffffff8a16600090815260208c90526040902090820190555b50505050505050505050565b612486838284611790565b60008181526020848152604080832073ffffffffffffffffffffffffffffffffffffffff86168085529083529281902080547fffffffffffffffffffffffffffffffffffffffffffffffffffffffffffffff0016905580518481529182018390528101919091527ff6391f5c32d9c69d2a47ea670b442974b53935d1edc7fd64eb21e047a839171b9060600160405180910390a1505050565b6060816001018054610f8590613962565b73ffffffffffffffffffffffffffffffffffffffff8216612595576040517ff7e1ac0f00000000000000000000000000000000000000000000000000000000815273ffffffffffffffffffffffffffffffffffffffff841660048201526024016110a3565b73ffffffffffffffffffffffffffffffffffffffff80841660009081526001860160209081526040808320938616835292905220547fffffffffffffffffffffffffffffffffffffffffffffffffffffffffffffffff81148015906125f957508115155b156116f4578181038181106116ba576040517f137ad6ab00000000000000000000000000000000000000000000000000000000815273ffffffffffffffffffffffffffffffffffffffff80871660048301528516602482015260448101839052606481018490526084016110a3565b73ffffffffffffffffffffffffffffffffffffffff82166126cd576040517f754f425b00000000000000000000000000000000000000000000000000000000815273ffffffffffffffffffffffffffffffffffffffff841660048201526024016110a3565b80156127c85773ffffffffffffffffffffffffffffffffffffffff831660009081526020859052604090205481810381811061275b576040517fe450d38c00000000000000000000000000000000000000000000000000000000815273ffffffffffffffffffffffffffffffffffffffff8616600482015260248101839052604481018490526064016110a3565b8373ffffffffffffffffffffffffffffffffffffffff168573ffffffffffffffffffffffffffffffffffffffff16146127c55773ffffffffffffffffffffffffffffffffffffffff8086166000908152602088905260408082208490559186168152208054840190555b50505b8173ffffffffffffffffffffffffffffffffffffffff168373ffffffffffffffffffffffffffffffffffffffff167fddf252ad1be2c89b69c2b068fc378daa952ba7f163c4a11628f55a4df523b3ef8360405161111091815260200190565b6128348787878787611326565b73ffffffffffffffffffffffffffffffffffffffff84163b15610ca157610ca18686868686868080601f01602080910402602001604051908101604052809392919081815260200183838082843760009201919091525061310992505050565b73ffffffffffffffffffffffffffffffffffffffff87166128e1576040517fa974697600000000000000000000000000000000000000000000000000000000815260040160405180910390fd5b8342111561291e576040517fea2b6f58000000000000000000000000000000000000000000000000000000008152600481018590526024016110a3565b73ffffffffffffffffffffffffffffffffffffffff878116600081815260208b8152604080832080546001810190915581517f6e71edae12b1b97f4d1f60370fef10105fa2faae0126114a169c64845d6126c98185015280830195909552948b166060850152608084018a905260a084019490945260c08084018990528451808503909101815260e090930190935281519190920120906129bd611515565b6040517f19010000000000000000000000000000000000000000000000000000000000006020820152602281019190915260428101839052606201604080517fffffffffffffffffffffffffffffffffffffffffffffffffffffffffffffffe08184030181528282528051602091820120600080855291840180845281905260ff89169284019290925260608301879052608083018690529092509060019060a0016020604051602081039080840390855afa158015612a81573d6000803e3d6000fd5b5050506020604051035190508973ffffffffffffffffffffffffffffffffffffffff168173ffffffffffffffffffffffffffffffffffffffff1614612af2576040517f822a64c800000000000000000000000000000000000000000000000000000000815260040160405180910390fd5b5050506109ad87878761062a611014565b60008381526020858152604080832073ffffffffffffffffffffffffffffffffffffffff8616845290915290205460ff161561087c5760008381526020858152604080832073ffffffffffffffffffffffffffffffffffffffff8681168086529184529382902080547fffffffffffffffffffffffffffffffffffffffffffffffffffffffffffffff00169055815187815292830152918316918101919091527ff6391f5c32d9c69d2a47ea670b442974b53935d1edc7fd64eb21e047a839171b90606001611507565b8261087c828483613a2a565b612be586868686612668565b73ffffffffffffffffffffffffffffffffffffffff84163b15610e3657610e368586868686868080601f01602080910402602001604051908101604052809392919081815260200183838082843760009201919091525061310992505050565b825473ffffffffffffffffffffffffffffffffffffffff9081169083168114612cb2576040517f2ef4875e00000000000000000000000000000000000000000000000000000000815273ffffffffffffffffffffffffffffffffffffffff841660048201526024016110a3565b8173ffffffffffffffffffffffffffffffffffffffff168173ffffffffffffffffffffffffffffffffffffffff161461087c5783547fffffffffffffffffffffffff00000000000000000000000000000000000000001673ffffffffffffffffffffffffffffffffffffffff8381169182178655604051908316907f8be0079c531659141344cd1fd0a4f28419497f9722a3daafe3b4186f6b6457e090600090a350505050565b80471015612dc3576040517f08c379a000000000000000000000000000000000000000000000000000000000815260206004820152601d60248201527f416464726573733a20696e73756666696369656e742062616c616e636500000060448201526064016110a3565b60008273ffffffffffffffffffffffffffffffffffffffff168260405160006040518083038185875af1925050503d8060008114612e1d576040519150601f19603f3d011682016040523d82523d6000602084013e612e22565b606091505b50509050806106dd576040517f08c379a000000000000000000000000000000000000000000000000000000000815260206004820152603a60248201527f416464726573733a20756e61626c6520746f2073656e642076616c75652c207260448201527f6563697069656e74206d6179206861766520726576657274656400000000000060648201526084016110a3565b600033321480612ec35750601836105b15612ecd57503390565b7fffffffffffffffffffffffffffffffffffffffffffffffffffffffffffffffec36013560601c7f000000000000000000000000000000000000000000000000000000000000000073ffffffffffffffffffffffffffffffffffffffff16331480612fe957506040517f8929a8ca00000000000000000000000000000000000000000000000000000000815273ffffffffffffffffffffffffffffffffffffffff82811660048301523360248301527f00000000000000000000000000000000000000000000000000000000000000001690638929a8ca90604401602060405180830381865afa158015612fc5573d6000803e3d6000fd5b505050506040513d601f19601f82011682018060405250810190612fe99190613b44565b15612ff357919050565b3391505090565b600061305c826040518060400160405280602081526020017f5361666545524332303a206c6f772d6c6576656c2063616c6c206661696c65648152508573ffffffffffffffffffffffffffffffffffffffff166132179092919063ffffffff16565b905080516000148061307d57508080602001905181019061307d9190613b44565b6106dd576040517f08c379a000000000000000000000000000000000000000000000000000000000815260206004820152602a60248201527f5361666545524332303a204552433230206f7065726174696f6e20646964206e60448201527f6f7420737563636565640000000000000000000000000000000000000000000060648201526084016110a3565b6040517f4fc35859000000000000000000000000000000000000000000000000000000008082529073ffffffffffffffffffffffffffffffffffffffff851690634fc3585990613163908990899088908890600401613b66565b6020604051808303816000875af1158015613182573d6000803e3d6000fd5b505050506040513d601f19601f820116820180604052508101906131a69190613baf565b7fffffffff000000000000000000000000000000000000000000000000000000001614611371576040517f6d44973600000000000000000000000000000000000000000000000000000000815273ffffffffffffffffffffffffffffffffffffffff841660048201526024016110a3565b60606106768484600085856000808673ffffffffffffffffffffffffffffffffffffffff16858760405161324b9190613bcc565b60006040518083038185875af1925050503d8060008114613288576040519150601f19603f3d011682016040523d82523d6000602084013e61328d565b606091505b509150915061329e878383876132a9565b979650505050505050565b6060831561333f5782516000036133385773ffffffffffffffffffffffffffffffffffffffff85163b613338576040517f08c379a000000000000000000000000000000000000000000000000000000000815260206004820152601d60248201527f416464726573733a2063616c6c20746f206e6f6e2d636f6e747261637400000060448201526064016110a3565b5081610676565b61067683838151156133545781518083602001fd5b806040517f08c379a00000000000000000000000000000000000000000000000000000000081526004016110a39190613441565b7fffffffff0000000000000000000000000000000000000000000000000000000081168114610a2257600080fd5b6000602082840312156133c857600080fd5b8135610a9081613388565b60005b838110156133ee5781810151838201526020016133d6565b50506000910152565b6000815180845261340f8160208601602086016133d3565b601f017fffffffffffffffffffffffffffffffffffffffffffffffffffffffffffffffe0169290920160200192915050565b602081526000610a9060208301846133f7565b73ffffffffffffffffffffffffffffffffffffffff81168114610a2257600080fd5b6000806040838503121561348957600080fd5b823561349481613454565b946020939093013593505050565b60008083601f8401126134b457600080fd5b50813567ffffffffffffffff8111156134cc57600080fd5b6020830191508360208260051b85010111156134e757600080fd5b9250929050565b6000806000806040858703121561350457600080fd5b843567ffffffffffffffff8082111561351c57600080fd5b613528888389016134a2565b9096509450602087013591508082111561354157600080fd5b5061354e878288016134a2565b95989497509550505050565b60008060006060848603121561356f57600080fd5b833561357a81613454565b9250602084013561358a81613454565b929592945050506040919091013590565b600080604083850312156135ae57600080fd5b8235915060208301356135c081613454565b809150509250929050565b6000602082840312156135dd57600080fd5b5035919050565b6000806000806000606086880312156135fc57600080fd5b853561360781613454565b9450602086013567ffffffffffffffff8082111561362457600080fd5b61363089838a016134a2565b9096509450604088013591508082111561364957600080fd5b50613656888289016134a2565b969995985093965092949392505050565b60006020828403121561367957600080fd5b8135610a9081613454565b6000806000806000806060878903121561369d57600080fd5b863567ffffffffffffffff808211156136b557600080fd5b6136c18a838b016134a2565b909850965060208901359150808211156136da57600080fd5b6136e68a838b016134a2565b909650945060408901359150808211156136ff57600080fd5b5061370c89828a016134a2565b979a9699509497509295939492505050565b60008083601f84011261373057600080fd5b50813567ffffffffffffffff81111561374857600080fd5b6020830191508360208285010111156134e757600080fd5b60008060008060006080868803121561377857600080fd5b853561378381613454565b9450602086013561379381613454565b935060408601359250606086013567ffffffffffffffff8111156137b657600080fd5b6136568882890161371e565b600080600080600080600060e0888a0312156137dd57600080fd5b87356137e881613454565b965060208801356137f881613454565b95506040880135945060608801359350608088013560ff8116811461381c57600080fd5b9699959850939692959460a0840135945060c09093013592915050565b6000806040838503121561384c57600080fd5b823561385781613454565b915060208301356135c081613454565b6000806020838503121561387a57600080fd5b823567ffffffffffffffff81111561389157600080fd5b61389d8582860161371e565b90969095509350505050565b600080600080606085870312156138bf57600080fd5b84356138ca81613454565b935060208501359250604085013567ffffffffffffffff8111156138ed57600080fd5b61354e8782880161371e565b7f4e487b7100000000000000000000000000000000000000000000000000000000600052603260045260246000fd5b818103818111156105f6577f4e487b7100000000000000000000000000000000000000000000000000000000600052601160045260246000fd5b600181811c9082168061397657607f821691505b6020821081036139af577f4e487b7100000000000000000000000000000000000000000000000000000000600052602260045260246000fd5b50919050565b7f4e487b7100000000000000000000000000000000000000000000000000000000600052604160045260246000fd5b601f8211156106dd57600081815260208120601f850160051c81016020861015613a0b5750805b601f850160051c820191505b81811015610e3657828155600101613a17565b67ffffffffffffffff831115613a4257613a426139b5565b613a5683613a508354613962565b836139e4565b6000601f841160018114613aa85760008515613a725750838201355b7fffffffffffffffffffffffffffffffffffffffffffffffffffffffffffffffff600387901b1c1916600186901b178355611371565b6000838152602090207fffffffffffffffffffffffffffffffffffffffffffffffffffffffffffffffe0861690835b82811015613af75786850135825560209485019460019092019101613ad7565b5086821015613b32577fffffffffffffffffffffffffffffffffffffffffffffffffffffffffffffffff60f88860031b161c19848701351681555b505060018560011b0183555050505050565b600060208284031215613b5657600080fd5b81518015158114610a9057600080fd5b600073ffffffffffffffffffffffffffffffffffffffff808716835280861660208401525083604083015260806060830152613ba560808301846133f7565b9695505050505050565b600060208284031215613bc157600080fd5b8151610a9081613388565b60008251613bde8184602087016133d3565b919091019291505056fea2646970667358221220c8064973785b171a97103f11a62913e951a05f2b7bb8e2ed3df28d69cf88eb5e64736f6c63430008150033",
  "linkReferences": {},
  "deployedLinkReferences": {}
}