{
  "_format": "hh-sol-artifact-1",
  "contractName": "ERC20MintBurn",
  "sourceName": "contracts/token/ERC20/preset/ERC20MintBurn.sol",
  "abi": [
    {
      "inputs": [
        {
          "internalType": "string",
          "name": "tokenName",
          "type": "string"
        },
        {
          "internalType": "string",
          "name": "tokenSymbol",
          "type": "string"
        },
        {
          "internalType": "uint8",
          "name": "tokenDecimals",
          "type": "uint8"
        },
        {
          "internalType": "contract IForwarderRegistry",
          "name": "forwarderRegistry",
          "type": "address"
        }
      ],
      "stateMutability": "nonpayable",
      "type": "constructor"
    },
    {
      "inputs": [
        {
          "internalType": "address",
          "name": "owner",
          "type": "address"
        },
        {
          "internalType": "address",
          "name": "spender",
          "type": "address"
        },
        {
          "internalType": "uint256",
          "name": "allowance",
          "type": "uint256"
        },
        {
          "internalType": "uint256",
          "name": "increment",
          "type": "uint256"
        }
      ],
      "name": "ERC20AllowanceOverflow",
      "type": "error"
    },
    {
      "inputs": [
        {
          "internalType": "address",
          "name": "owner",
          "type": "address"
        }
      ],
      "name": "ERC20ApprovalToAddressZero",
      "type": "error"
    },
    {
      "inputs": [],
      "name": "ERC20BatchMintValuesOverflow",
      "type": "error"
    },
    {
      "inputs": [],
      "name": "ERC20BatchTransferValuesOverflow",
      "type": "error"
    },
    {
      "inputs": [
        {
          "internalType": "address",
          "name": "owner",
          "type": "address"
        },
        {
          "internalType": "address",
          "name": "spender",
          "type": "address"
        },
        {
          "internalType": "uint256",
          "name": "allowance",
          "type": "uint256"
        },
        {
          "internalType": "uint256",
          "name": "decrement",
          "type": "uint256"
        }
      ],
      "name": "ERC20InsufficientAllowance",
      "type": "error"
    },
    {
      "inputs": [
        {
          "internalType": "address",
          "name": "owner",
          "type": "address"
        },
        {
          "internalType": "uint256",
          "name": "balance",
          "type": "uint256"
        },
        {
          "internalType": "uint256",
          "name": "value",
          "type": "uint256"
        }
      ],
      "name": "ERC20InsufficientBalance",
      "type": "error"
    },
    {
      "inputs": [],
      "name": "ERC20MintToAddressZero",
      "type": "error"
    },
    {
      "inputs": [
        {
          "internalType": "uint256",
          "name": "deadline",
          "type": "uint256"
        }
      ],
      "name": "ERC20PermitExpired",
      "type": "error"
    },
    {
      "inputs": [],
      "name": "ERC20PermitFromAddressZero",
      "type": "error"
    },
    {
      "inputs": [],
      "name": "ERC20PermitInvalidSignature",
      "type": "error"
    },
    {
      "inputs": [
        {
          "internalType": "address",
          "name": "recipient",
          "type": "address"
        }
      ],
      "name": "ERC20SafeTransferRejected",
      "type": "error"
    },
    {
      "inputs": [
        {
          "internalType": "uint256",
          "name": "supply",
          "type": "uint256"
        },
        {
          "internalType": "uint256",
          "name": "value",
          "type": "uint256"
        }
      ],
      "name": "ERC20TotalSupplyOverflow",
      "type": "error"
    },
    {
      "inputs": [
        {
          "internalType": "address",
          "name": "owner",
          "type": "address"
        }
      ],
      "name": "ERC20TransferToAddressZero",
      "type": "error"
    },
    {
      "inputs": [],
      "name": "FailedCall",
      "type": "error"
    },
    {
      "inputs": [],
      "name": "IllegalInterfaceId",
      "type": "error"
    },
    {
      "inputs": [],
      "name": "InconsistentArrayLengths",
      "type": "error"
    },
    {
      "inputs": [
        {
          "internalType": "address",
          "name": "tokenContract",
          "type": "address"
        }
      ],
      "name": "IncorrectTokenContractType",
      "type": "error"
    },
    {
      "inputs": [
        {
          "internalType": "uint256",
          "name": "balance",
          "type": "uint256"
        },
        {
          "internalType": "uint256",
          "name": "needed",
          "type": "uint256"
        }
      ],
      "name": "InsufficientBalance",
      "type": "error"
    },
    {
      "inputs": [
        {
          "internalType": "address",
          "name": "account",
          "type": "address"
        }
      ],
      "name": "NotContractOwner",
      "type": "error"
    },
    {
      "inputs": [
        {
          "internalType": "bytes32",
          "name": "role",
          "type": "bytes32"
        },
        {
          "internalType": "address",
          "name": "account",
          "type": "address"
        }
      ],
      "name": "NotRoleHolder",
      "type": "error"
    },
    {
      "inputs": [
        {
          "internalType": "address",
          "name": "token",
          "type": "address"
        }
      ],
      "name": "SafeERC20FailedOperation",
      "type": "error"
    },
    {
      "anonymous": false,
      "inputs": [
        {
          "indexed": true,
          "internalType": "address",
          "name": "owner",
          "type": "address"
        },
        {
          "indexed": true,
          "internalType": "address",
          "name": "spender",
          "type": "address"
        },
        {
          "indexed": false,
          "internalType": "uint256",
          "name": "value",
          "type": "uint256"
        }
      ],
      "name": "Approval",
      "type": "event"
    },
    {
      "anonymous": false,
      "inputs": [
        {
          "indexed": true,
          "internalType": "address",
          "name": "previousOwner",
          "type": "address"
        },
        {
          "indexed": true,
          "internalType": "address",
          "name": "newOwner",
          "type": "address"
        }
      ],
      "name": "OwnershipTransferred",
      "type": "event"
    },
    {
      "anonymous": false,
      "inputs": [
        {
          "indexed": false,
          "internalType": "bytes32",
          "name": "role",
          "type": "bytes32"
        },
        {
          "indexed": false,
          "internalType": "address",
          "name": "account",
          "type": "address"
        },
        {
          "indexed": false,
          "internalType": "address",
          "name": "operator",
          "type": "address"
        }
      ],
      "name": "RoleGranted",
      "type": "event"
    },
    {
      "anonymous": false,
      "inputs": [
        {
          "indexed": false,
          "internalType": "bytes32",
          "name": "role",
          "type": "bytes32"
        },
        {
          "indexed": false,
          "internalType": "address",
          "name": "account",
          "type": "address"
        },
        {
          "indexed": false,
          "internalType": "address",
          "name": "operator",
          "type": "address"
        }
      ],
      "name": "RoleRevoked",
      "type": "event"
    },
    {
      "anonymous": false,
      "inputs": [
        {
          "indexed": true,
          "internalType": "address",
          "name": "from",
          "type": "address"
        },
        {
          "indexed": true,
          "internalType": "address",
          "name": "to",
          "type": "address"
        },
        {
          "indexed": false,
          "internalType": "uint256",
          "name": "value",
          "type": "uint256"
        }
      ],
      "name": "Transfer",
      "type": "event"
    },
    {
      "inputs": [],
      "name": "DOMAIN_SEPARATOR",
      "outputs": [
        {
          "internalType": "bytes32",
          "name": "",
          "type": "bytes32"
        }
      ],
      "stateMutability": "view",
      "type": "function"
    },
    {
      "inputs": [],
      "name": "MINTER_ROLE",
      "outputs": [
        {
          "internalType": "bytes32",
          "name": "",
          "type": "bytes32"
        }
      ],
      "stateMutability": "view",
      "type": "function"
    },
    {
      "inputs": [
        {
          "internalType": "address",
          "name": "owner",
          "type": "address"
        },
        {
          "internalType": "address",
          "name": "spender",
          "type": "address"
        }
      ],
      "name": "allowance",
      "outputs": [
        {
          "internalType": "uint256",
          "name": "value",
          "type": "uint256"
        }
      ],
      "stateMutability": "view",
      "type": "function"
    },
    {
      "inputs": [
        {
          "internalType": "address",
          "name": "spender",
          "type": "address"
        },
        {
          "internalType": "uint256",
          "name": "value",
          "type": "uint256"
        }
      ],
      "name": "approve",
      "outputs": [
        {
          "internalType": "bool",
          "name": "result",
          "type": "bool"
        }
      ],
      "stateMutability": "nonpayable",
      "type": "function"
    },
    {
      "inputs": [
        {
          "internalType": "address",
          "name": "owner",
          "type": "address"
        }
      ],
      "name": "balanceOf",
      "outputs": [
        {
          "internalType": "uint256",
          "name": "balance",
          "type": "uint256"
        }
      ],
      "stateMutability": "view",
      "type": "function"
    },
    {
      "inputs": [
        {
          "internalType": "address[]",
          "name": "owners",
          "type": "address[]"
        },
        {
          "internalType": "uint256[]",
          "name": "values",
          "type": "uint256[]"
        }
      ],
      "name": "batchBurnFrom",
      "outputs": [
        {
          "internalType": "bool",
          "name": "",
          "type": "bool"
        }
      ],
      "stateMutability": "nonpayable",
      "type": "function"
    },
    {
      "inputs": [
        {
          "internalType": "address[]",
          "name": "recipients",
          "type": "address[]"
        },
        {
          "internalType": "uint256[]",
          "name": "values",
          "type": "uint256[]"
        }
      ],
      "name": "batchMint",
      "outputs": [],
      "stateMutability": "nonpayable",
      "type": "function"
    },
    {
      "inputs": [
        {
          "internalType": "address[]",
          "name": "recipients",
          "type": "address[]"
        },
        {
          "internalType": "uint256[]",
          "name": "values",
          "type": "uint256[]"
        }
      ],
      "name": "batchTransfer",
      "outputs": [
        {
          "internalType": "bool",
          "name": "",
          "type": "bool"
        }
      ],
      "stateMutability": "nonpayable",
      "type": "function"
    },
    {
      "inputs": [
        {
          "internalType": "address",
          "name": "from",
          "type": "address"
        },
        {
          "internalType": "address[]",
          "name": "recipients",
          "type": "address[]"
        },
        {
          "internalType": "uint256[]",
          "name": "values",
          "type": "uint256[]"
        }
      ],
      "name": "batchTransferFrom",
      "outputs": [
        {
          "internalType": "bool",
          "name": "",
          "type": "bool"
        }
      ],
      "stateMutability": "nonpayable",
      "type": "function"
    },
    {
      "inputs": [
        {
          "internalType": "uint256",
          "name": "value",
          "type": "uint256"
        }
      ],
      "name": "burn",
      "outputs": [
        {
          "internalType": "bool",
          "name": "",
          "type": "bool"
        }
      ],
      "stateMutability": "nonpayable",
      "type": "function"
    },
    {
      "inputs": [
        {
          "internalType": "address",
          "name": "from",
          "type": "address"
        },
        {
          "internalType": "uint256",
          "name": "value",
          "type": "uint256"
        }
      ],
      "name": "burnFrom",
      "outputs": [
        {
          "internalType": "bool",
          "name": "",
          "type": "bool"
        }
      ],
      "stateMutability": "nonpayable",
      "type": "function"
    },
    {
      "inputs": [],
      "name": "decimals",
      "outputs": [
        {
          "internalType": "uint8",
          "name": "",
          "type": "uint8"
        }
      ],
      "stateMutability": "view",
      "type": "function"
    },
    {
      "inputs": [
        {
          "internalType": "address",
          "name": "spender",
          "type": "address"
        },
        {
          "internalType": "uint256",
          "name": "subtractedValue",
          "type": "uint256"
        }
      ],
      "name": "decreaseAllowance",
      "outputs": [
        {
          "internalType": "bool",
          "name": "result",
          "type": "bool"
        }
      ],
      "stateMutability": "nonpayable",
      "type": "function"
    },
    {
      "inputs": [],
      "name": "forwarderRegistry",
      "outputs": [
        {
          "internalType": "contract IForwarderRegistry",
          "name": "",
          "type": "address"
        }
      ],
      "stateMutability": "view",
      "type": "function"
    },
    {
      "inputs": [
        {
          "internalType": "bytes32",
          "name": "role",
          "type": "bytes32"
        },
        {
          "internalType": "address",
          "name": "account",
          "type": "address"
        }
      ],
      "name": "grantRole",
      "outputs": [],
      "stateMutability": "nonpayable",
      "type": "function"
    },
    {
      "inputs": [
        {
          "internalType": "bytes32",
          "name": "role",
          "type": "bytes32"
        },
        {
          "internalType": "address",
          "name": "account",
          "type": "address"
        }
      ],
      "name": "hasRole",
      "outputs": [
        {
          "internalType": "bool",
          "name": "hasRole_",
          "type": "bool"
        }
      ],
      "stateMutability": "view",
      "type": "function"
    },
    {
      "inputs": [
        {
          "internalType": "address",
          "name": "spender",
          "type": "address"
        },
        {
          "internalType": "uint256",
          "name": "addedValue",
          "type": "uint256"
        }
      ],
      "name": "increaseAllowance",
      "outputs": [
        {
          "internalType": "bool",
          "name": "result",
          "type": "bool"
        }
      ],
      "stateMutability": "nonpayable",
      "type": "function"
    },
    {
      "inputs": [
        {
          "internalType": "address",
          "name": "forwarder",
          "type": "address"
        }
      ],
      "name": "isTrustedForwarder",
      "outputs": [
        {
          "internalType": "bool",
          "name": "",
          "type": "bool"
        }
      ],
      "stateMutability": "view",
      "type": "function"
    },
    {
      "inputs": [
        {
          "internalType": "address",
          "name": "to",
          "type": "address"
        },
        {
          "internalType": "uint256",
          "name": "value",
          "type": "uint256"
        }
      ],
      "name": "mint",
      "outputs": [],
      "stateMutability": "nonpayable",
      "type": "function"
    },
    {
      "inputs": [],
      "name": "name",
      "outputs": [
        {
          "internalType": "string",
          "name": "",
          "type": "string"
        }
      ],
      "stateMutability": "view",
      "type": "function"
    },
    {
      "inputs": [
        {
          "internalType": "address",
          "name": "owner",
          "type": "address"
        }
      ],
      "name": "nonces",
      "outputs": [
        {
          "internalType": "uint256",
          "name": "",
          "type": "uint256"
        }
      ],
      "stateMutability": "view",
      "type": "function"
    },
    {
      "inputs": [],
      "name": "owner",
      "outputs": [
        {
          "internalType": "address",
          "name": "",
          "type": "address"
        }
      ],
      "stateMutability": "view",
      "type": "function"
    },
    {
      "inputs": [
        {
          "internalType": "address",
          "name": "owner",
          "type": "address"
        },
        {
          "internalType": "address",
          "name": "spender",
          "type": "address"
        },
        {
          "internalType": "uint256",
          "name": "value",
          "type": "uint256"
        },
        {
          "internalType": "uint256",
          "name": "deadline",
          "type": "uint256"
        },
        {
          "internalType": "uint8",
          "name": "v",
          "type": "uint8"
        },
        {
          "internalType": "bytes32",
          "name": "r",
          "type": "bytes32"
        },
        {
          "internalType": "bytes32",
          "name": "s",
          "type": "bytes32"
        }
      ],
      "name": "permit",
      "outputs": [],
      "stateMutability": "nonpayable",
      "type": "function"
    },
    {
      "inputs": [
        {
          "internalType": "address[]",
          "name": "accounts",
          "type": "address[]"
        },
        {
          "internalType": "contract IERC20[]",
          "name": "tokens",
          "type": "address[]"
        },
        {
          "internalType": "uint256[]",
          "name": "amounts",
          "type": "uint256[]"
        }
      ],
      "name": "recoverERC20s",
      "outputs": [],
      "stateMutability": "nonpayable",
      "type": "function"
    },
    {
      "inputs": [
        {
          "internalType": "address[]",
          "name": "accounts",
          "type": "address[]"
        },
        {
          "internalType": "contract IERC721[]",
          "name": "contracts",
          "type": "address[]"
        },
        {
          "internalType": "uint256[]",
          "name": "tokenIds",
          "type": "uint256[]"
        }
      ],
      "name": "recoverERC721s",
      "outputs": [],
      "stateMutability": "nonpayable",
      "type": "function"
    },
    {
      "inputs": [
        {
          "internalType": "address payable[]",
          "name": "accounts",
          "type": "address[]"
        },
        {
          "internalType": "uint256[]",
          "name": "amounts",
          "type": "uint256[]"
        }
      ],
      "name": "recoverETH",
      "outputs": [],
      "stateMutability": "nonpayable",
      "type": "function"
    },
    {
      "inputs": [
        {
          "internalType": "bytes32",
          "name": "role",
          "type": "bytes32"
        }
      ],
      "name": "renounceRole",
      "outputs": [],
      "stateMutability": "nonpayable",
      "type": "function"
    },
    {
      "inputs": [
        {
          "internalType": "bytes32",
          "name": "role",
          "type": "bytes32"
        },
        {
          "internalType": "address",
          "name": "account",
          "type": "address"
        }
      ],
      "name": "revokeRole",
      "outputs": [],
      "stateMutability": "nonpayable",
      "type": "function"
    },
    {
      "inputs": [
        {
          "internalType": "address",
          "name": "to",
          "type": "address"
        },
        {
          "internalType": "uint256",
          "name": "value",
          "type": "uint256"
        },
        {
          "internalType": "bytes",
          "name": "data",
          "type": "bytes"
        }
      ],
      "name": "safeTransfer",
      "outputs": [
        {
          "internalType": "bool",
          "name": "",
          "type": "bool"
        }
      ],
      "stateMutability": "nonpayable",
      "type": "function"
    },
    {
      "inputs": [
        {
          "internalType": "address",
          "name": "from",
          "type": "address"
        },
        {
          "internalType": "address",
          "name": "to",
          "type": "address"
        },
        {
          "internalType": "uint256",
          "name": "value",
          "type": "uint256"
        },
        {
          "internalType": "bytes",
          "name": "data",
          "type": "bytes"
        }
      ],
      "name": "safeTransferFrom",
      "outputs": [
        {
          "internalType": "bool",
          "name": "",
          "type": "bool"
        }
      ],
      "stateMutability": "nonpayable",
      "type": "function"
    },
    {
      "inputs": [
        {
          "internalType": "string",
          "name": "uri",
          "type": "string"
        }
      ],
      "name": "setTokenURI",
      "outputs": [],
      "stateMutability": "nonpayable",
      "type": "function"
    },
    {
      "inputs": [
        {
          "internalType": "bytes4",
          "name": "interfaceId",
          "type": "bytes4"
        }
      ],
      "name": "supportsInterface",
      "outputs": [
        {
          "internalType": "bool",
          "name": "",
          "type": "bool"
        }
      ],
      "stateMutability": "view",
      "type": "function"
    },
    {
      "inputs": [],
      "name": "symbol",
      "outputs": [
        {
          "internalType": "string",
          "name": "",
          "type": "string"
        }
      ],
      "stateMutability": "view",
      "type": "function"
    },
    {
      "inputs": [],
      "name": "tokenURI",
      "outputs": [
        {
          "internalType": "string",
          "name": "",
          "type": "string"
        }
      ],
      "stateMutability": "view",
      "type": "function"
    },
    {
      "inputs": [],
      "name": "totalSupply",
      "outputs": [
        {
          "internalType": "uint256",
          "name": "supply",
          "type": "uint256"
        }
      ],
      "stateMutability": "view",
      "type": "function"
    },
    {
      "inputs": [
        {
          "internalType": "address",
          "name": "to",
          "type": "address"
        },
        {
          "internalType": "uint256",
          "name": "value",
          "type": "uint256"
        }
      ],
      "name": "transfer",
      "outputs": [
        {
          "internalType": "bool",
          "name": "result",
          "type": "bool"
        }
      ],
      "stateMutability": "nonpayable",
      "type": "function"
    },
    {
      "inputs": [
        {
          "internalType": "address",
          "name": "from",
          "type": "address"
        },
        {
          "internalType": "address",
          "name": "to",
          "type": "address"
        },
        {
          "internalType": "uint256",
          "name": "value",
          "type": "uint256"
        }
      ],
      "name": "transferFrom",
      "outputs": [
        {
          "internalType": "bool",
          "name": "result",
          "type": "bool"
        }
      ],
      "stateMutability": "nonpayable",
      "type": "function"
    },
    {
      "inputs": [
        {
          "internalType": "address",
          "name": "newOwner",
          "type": "address"
        }
      ],
      "name": "transferOwnership",
      "outputs": [],
      "stateMutability": "nonpayable",
      "type": "function"
    }
  ],
  "bytecode": "0x60a060405234801561001057600080fd5b5060405161415838038061415883398101604081905261002f916103c9565b80803386868661003d6100b6565b61005383838361004b6100eb565b92919061011f565b50505061006e8161006861016d60201b60201c565b9061019b565b5061007761020a565b61007f610221565b610087610236565b61008f61024b565b610097610260565b61009f610275565b6001600160a01b0316608052506105d29350505050565b60006100c0610286565b90506100d5816336372b0760e01b60016102b4565b6100e881634e83a8c360e11b60016102b4565b50565b60008061011960017f335df4119bbb04f056b33eba33b826d3529129e458faf6daa9924b5a8f3b6a8261046a565b92915050565b8361012a8482610514565b50600184016101398382610514565b5060028401805460ff191660ff831617905561016763a219a02560e01b6001610160610286565b91906102b4565b50505050565b60008061011960017fc9ed16f33ab3a66c84bfd83099ccb2a8845871e2e1c1928f63797152f0fd54cd61046a565b6001600160a01b038116156101f15781546001600160a01b0319166001600160a01b03821690811783556040516000907f8be0079c531659141344cd1fd0a4f28419497f9722a3daafe3b4186f6b6457e0908290a35b6102066307f5828d60e41b6001610160610286565b5050565b61021f6303c130d960e41b6001610160610286565b565b61021f634ec7fbed60e11b6001610160610286565b61021f6353f41a9760e01b6001610160610286565b61021f63602993f360e11b6001610160610286565b61021f63144b1f0f60e11b6001610160610286565b61021f6320c07ed160e01b60016101605b60008061011960017fca9d3e17f264b0f3984e2634e94adb37fa3e6a8103f06aeae6fa59e21c769f5e61046a565b600160e01b6001600160e01b03198316016102e2576040516372c683bb60e01b815260040160405180910390fd5b6001600160e01b03199190911660009081526020929092526040909120805460ff1916911515919091179055565b634e487b7160e01b600052604160045260246000fd5b600082601f83011261033757600080fd5b81516001600160401b0381111561035057610350610310565b604051601f8201601f19908116603f011681016001600160401b038111828210171561037e5761037e610310565b60405281815283820160200185101561039657600080fd5b60005b828110156103b557602081860181015183830182015201610399565b506000918101602001919091529392505050565b600080600080608085870312156103df57600080fd5b84516001600160401b038111156103f557600080fd5b61040187828801610326565b602087015190955090506001600160401b0381111561041f57600080fd5b61042b87828801610326565b935050604085015160ff8116811461044257600080fd5b60608601519092506001600160a01b038116811461045f57600080fd5b939692955090935050565b8181038181111561011957634e487b7160e01b600052601160045260246000fd5b600181811c9082168061049f57607f821691505b6020821081036104bf57634e487b7160e01b600052602260045260246000fd5b50919050565b601f82111561050f57806000526020600020601f840160051c810160208510156104ec5750805b601f840160051c820191505b8181101561050c57600081556001016104f8565b50505b505050565b81516001600160401b0381111561052d5761052d610310565b6105418161053b845461048b565b846104c5565b6020601f821160018114610575576000831561055d5750848201515b600019600385901b1c1916600184901b17845561050c565b600084815260208120601f198516915b828110156105a55787850151825560209485019460019092019101610585565b50848210156105c35786840151600019600387901b60f8161c191681555b50505050600190811b01905550565b608051613b56610602600039600081816103250152818161040501528181612e7c0152612f0a0152613b566000f3fe608060405234801561001057600080fd5b50600436106102925760003560e01c806379cc679011610160578063b88d4fde116100d8578063dd62ed3e1161008c578063eb79554911610071578063eb795549146105a9578063f2fde38b146105bc578063f7ba94bd146105cf57600080fd5b8063dd62ed3e14610583578063e0df5b6f1461059657600080fd5b8063d505accf116100bd578063d505accf14610536578063d539139314610549578063d547741f1461057057600080fd5b8063b88d4fde14610510578063c3666c361461052357600080fd5b80638da5cb5b1161012f57806395d89b411161011457806395d89b41146104e2578063a457c2d7146104ea578063a9059cbb146104fd57600080fd5b80638da5cb5b146104c757806391d14854146104cf57600080fd5b806379cc67901461047b5780637ecebe001461048e57806388d695b2146104a15780638bb9c5bf146104b457600080fd5b80633644e5151161020e5780634885b254116101c257806368573107116101a7578063685731071461044257806370a082311461045557806373c8a9581461046857600080fd5b80634885b254146103e2578063572b6c05146103f557600080fd5b80633c130d90116101f35780633c130d90146103b457806340c10f19146103bc57806342966c68146103cf57600080fd5b80633644e5151461039957806339509351146103a157600080fd5b80631b9a7529116102655780632b4c9f161161024a5780632b4c9f16146103235780632f2ff15d1461036a578063313ce5671461037f57600080fd5b80631b9a7529146102fd57806323b872dd1461031057600080fd5b806301ffc9a71461029757806306fdde03146102bf578063095ea7b3146102d457806318160ddd146102e7575b600080fd5b6102aa6102a53660046132eb565b6105e2565b60405190151581526020015b60405180910390f35b6102c76105fc565b6040516102b6919061336c565b6102aa6102e23660046133a1565b610613565b6102ef61063b565b6040519081526020016102b6565b6102aa61030b366004613419565b61064f565b6102aa61031e36600461348a565b61067d565b7f00000000000000000000000000000000000000000000000000000000000000005b60405173ffffffffffffffffffffffffffffffffffffffff90911681526020016102b6565b61037d6103783660046134cb565b6106a8565b005b6103876106e1565b60405160ff90911681526020016102b6565b6102ef6106f8565b6102aa6103af3660046133a1565b610702565b6102c7610721565b61037d6103ca3660046133a1565b61072e565b6102aa6103dd3660046134fb565b610781565b6102aa6103f0366004613514565b6107a6565b6102aa61040336600461359c565b7f000000000000000000000000000000000000000000000000000000000000000073ffffffffffffffffffffffffffffffffffffffff90811691161490565b61037d610450366004613419565b6107d7565b6102ef61046336600461359c565b610881565b61037d6104763660046135b9565b6108b9565b6102aa6104893660046133a1565b6108e2565b6102ef61049c36600461359c565b610901565b6102aa6104af366004613419565b61090f565b61037d6104c23660046134fb565b610932565b610345610950565b6102aa6104dd3660046134cb565b610977565b6102c76109c2565b6102aa6104f83660046133a1565b6109d4565b6102aa61050b3660046133a1565b6109f3565b6102aa61051e3660046136a1565b610a12565b61037d6105313660046135b9565b610a37565b61037d610544366004613703565b610a50565b6102ef7f6d696e746572000000000000000000000000000000000000000000000000000081565b61037d61057e3660046134cb565b610a77565b6102ef61059136600461377a565b610aa5565b61037d6105a43660046137a8565b610af0565b6102aa6105b73660046137ea565b610b0f565b61037d6105ca36600461359c565b610b32565b61037d6105dd366004613419565b610b4d565b60006105f6826105f0610b64565b90610b92565b92915050565b606061060e610609610c6c565b610c9a565b905090565b6000610632610620610d30565b848461062a610d3a565b929190610d68565b50600192915050565b600061060e610648610d3a565b6002015490565b600061067261065c610d30565b86868686610668610d3a565b9493929190610e44565b506001949350505050565b600061069e61068a610d30565b858585610695610d3a565b9392919061104e565b5060019392505050565b60006106b2610d30565b90506106c6816106c06110a0565b906110ce565b6106dc8383836106d4611139565b929190611167565b505050565b600061060e6106ee610c6c565b6002015460ff1690565b600061060e61123d565b600061063261070f610d30565b8484610719610d3a565b9291906112d8565b606061060e61060961148a565b6107697f6d696e746572000000000000000000000000000000000000000000000000000061075a610d30565b610762611139565b91906114b8565b61077d8282610776610d3a565b919061153e565b5050565b600061079e61078e610d30565b83610797610d3a565b9190611662565b506001919050565b60006107cb6107b3610d30565b87878787876107c0610d3a565b95949392919061176e565b50600195945050505050565b6108037f6d696e746572000000000000000000000000000000000000000000000000000061075a610d30565b61087b848480806020026020016040519081016040528093929190818152602001838360200280828437600092019190915250506040805160208088028281018201909352878252909350879250869182918501908490808284376000920191909152506108749250610d3a915050565b9190611b48565b50505050565b60006105f68261088f610d3a565b9073ffffffffffffffffffffffffffffffffffffffff166000908152602091909152604090205490565b6108cc6108c4610d30565b6106c06110a0565b6108da868686868686611d69565b505050505050565b60006106326108ef610d30565b84846108f9610d3a565b929190611e4a565b60006105f68261088f611e94565b600061067261091c610d30565b86868686610928610d3a565b9493929190611ec2565b61094d61093d610d30565b82610946611139565b9190612219565b50565b600061060e61095d6110a0565b5473ffffffffffffffffffffffffffffffffffffffff1690565b60006109bb8383610986611139565b60009283526020908152604080842073ffffffffffffffffffffffffffffffffffffffff909316845291905290205460ff1690565b9392505050565b606061060e6109cf610c6c565b6122bd565b60006106326109e1610d30565b84846109eb610d3a565b9291906122ce565b6000610632610a00610d30565b8484610a0a610d3a565b929190612406565b60006107cb610a1f610d30565b8787878787610a2c610d3a565b9594939291906125c5565b610a426108c4610d30565b6108da868686868686612632565b610a6e87878787878787610a62611e94565b969594939291906128c8565b50505050505050565b6000610a81610d30565b9050610a8f816106c06110a0565b6106dc838383610a9d611139565b929190612b37565b60006109bb8383610ab4610d3a565b919073ffffffffffffffffffffffffffffffffffffffff9182166000908152600193909301602090815260408085209290931684525290205490565b610afb6108c4610d30565b61077d8282610b0861148a565b9190612c01565b6000610672610b1c610d30565b86868686610b28610d3a565b9493929190612c0d565b61094d610b3d610d30565b82610b466110a0565b9190612c79565b610b586108c4610d30565b61087b84848484612d8d565b6000806105f660017fca9d3e17f264b0f3984e2634e94adb37fa3e6a8103f06aeae6fa59e21c769f5e61383a565b60007c01000000000000000000000000000000000000000000000000000000007fffffffff00000000000000000000000000000000000000000000000000000000831601610be2575060006105f6565b7ffe003659000000000000000000000000000000000000000000000000000000007fffffffff00000000000000000000000000000000000000000000000000000000831601610c33575060016105f6565b507fffffffff00000000000000000000000000000000000000000000000000000000166000908152602091909152604090205460ff1690565b6000806105f660017f335df4119bbb04f056b33eba33b826d3529129e458faf6daa9924b5a8f3b6a8261383a565b6060816000018054610cab90613874565b80601f0160208091040260200160405190810160405280929190818152602001828054610cd790613874565b8015610d245780601f10610cf957610100808354040283529160200191610d24565b820191906000526020600020905b815481529060010190602001808311610d0757829003601f168201915b50505050509050919050565b600061060e612e39565b6000806105f660017f1da92899d3da68bf9787824388a37ea2bfa79780bcef91b9716c390eec8ecbef61383a565b73ffffffffffffffffffffffffffffffffffffffff8216610dd2576040517ff7e1ac0f00000000000000000000000000000000000000000000000000000000815273ffffffffffffffffffffffffffffffffffffffff841660048201526024015b60405180910390fd5b73ffffffffffffffffffffffffffffffffffffffff838116600081815260018701602090815260408083209487168084529482529182902085905590518481527f8c5be1e5ebec7d5bd14f71427d1e84f3dd0314c0f7b2291e5b200ac8c7c3b92591015b60405180910390a350505050565b82818114610e7e576040517f6582533600000000000000000000000000000000000000000000000000000000815260040160405180910390fd5b80600003610e8c57506108da565b6000805b82811015611031576000878783818110610eac57610eac6138c7565b9050602002016020810190610ec1919061359c565b90506000868684818110610ed757610ed76138c7565b9050602002013590508973ffffffffffffffffffffffffffffffffffffffff168273ffffffffffffffffffffffffffffffffffffffff1614610f1f57610f1f8b838c846122ce565b8015610fd95773ffffffffffffffffffffffffffffffffffffffff8216600090815260208c90526040902054818103818110610fad576040517fe450d38c00000000000000000000000000000000000000000000000000000000815273ffffffffffffffffffffffffffffffffffffffff851660048201526024810183905260448101849052606401610dc9565b73ffffffffffffffffffffffffffffffffffffffff8416600090815260208e9052604090205550928301925b60405181815260009073ffffffffffffffffffffffffffffffffffffffff8416907fddf252ad1be2c89b69c2b068fc378daa952ba7f163c4a11628f55a4df523b3ef9060200160405180910390a35050600101610e90565b5080156110445760028801805482900390555b5050505050505050565b8373ffffffffffffffffffffffffffffffffffffffff168373ffffffffffffffffffffffffffffffffffffffff161461108d5761108d858486846122ce565b61109985848484612406565b5050505050565b6000806105f660017fc9ed16f33ab3a66c84bfd83099ccb2a8845871e2e1c1928f63797152f0fd54cd61383a565b815473ffffffffffffffffffffffffffffffffffffffff82811691161461077d576040517f2ef4875e00000000000000000000000000000000000000000000000000000000815273ffffffffffffffffffffffffffffffffffffffff82166004820152602401610dc9565b6000806105f660017fc8827d3282af6f37b64c3e9e6f3ac9df286ab0bb0fccd6f8661bf19adb368b2361383a565b60008381526020858152604080832073ffffffffffffffffffffffffffffffffffffffff8616845290915290205460ff1661087b5760008381526020858152604080832073ffffffffffffffffffffffffffffffffffffffff8681168086529184529382902080547fffffffffffffffffffffffffffffffffffffffffffffffffffffffffffffff00166001179055815187815292830152918316918101919091527f2f8788117e7eff1d82e926ec794901d17c78024a50270940304540a733656f0d906060015b60405180910390a150505050565b6000467f8b73c3c69bb8fe3d512ecc4cf759cc79239f7b179b0ffacaa9a75d522b39400f61126c610609610c6c565b80516020918201206040805192830193909352918101919091527fc89efdaa54c0f20c7adf612882df0950f5a951637e0307cdcb4c672f298b8bc66060820152608081018290523060a082015260c0016040516020818303038152906040528051906020012091505090565b73ffffffffffffffffffffffffffffffffffffffff821661133d576040517ff7e1ac0f00000000000000000000000000000000000000000000000000000000815273ffffffffffffffffffffffffffffffffffffffff84166004820152602401610dc9565b73ffffffffffffffffffffffffffffffffffffffff8084166000908152600186016020908152604080832093861683529290522054811561141c578082018181116113e2576040517f93bc2ff100000000000000000000000000000000000000000000000000000000815273ffffffffffffffffffffffffffffffffffffffff8087166004830152851660248201526044810183905260648101849052608401610dc9565b73ffffffffffffffffffffffffffffffffffffffff8086166000908152600188016020908152604080832093881683529290522081905590505b8273ffffffffffffffffffffffffffffffffffffffff168473ffffffffffffffffffffffffffffffffffffffff167f8c5be1e5ebec7d5bd14f71427d1e84f3dd0314c0f7b2291e5b200ac8c7c3b9258360405161147b91815260200190565b60405180910390a35050505050565b6000806105f660017ff41bf6a5db26bffdfab174dcf66b31fbba8fdb7e3db040721ce1e62d61839ceb61383a565b60008281526020848152604080832073ffffffffffffffffffffffffffffffffffffffff8516845290915290205460ff166106dc576040517f7aa728820000000000000000000000000000000000000000000000000000000081526004810183905273ffffffffffffffffffffffffffffffffffffffff82166024820152604401610dc9565b73ffffffffffffffffffffffffffffffffffffffff821661158b576040517f92fd9c8f00000000000000000000000000000000000000000000000000000000815260040160405180910390fd5b801561160e5760028301548181018181116115dc576040517f0366a5f60000000000000000000000000000000000000000000000000000000081526004810183905260248101849052604401610dc9565b60028501555073ffffffffffffffffffffffffffffffffffffffff821660009081526020849052604090208054820190555b60405181815273ffffffffffffffffffffffffffffffffffffffff8316906000907fddf252ad1be2c89b69c2b068fc378daa952ba7f163c4a11628f55a4df523b3ef906020015b60405180910390a3505050565b80156117235773ffffffffffffffffffffffffffffffffffffffff82166000908152602084905260409020548181038181106116f0576040517fe450d38c00000000000000000000000000000000000000000000000000000000815273ffffffffffffffffffffffffffffffffffffffff851660048201526024810183905260448101849052606401610dc9565b73ffffffffffffffffffffffffffffffffffffffff84166000908152602086905260409020555060028301805482900390555b60405181815260009073ffffffffffffffffffffffffffffffffffffffff8416907fddf252ad1be2c89b69c2b068fc378daa952ba7f163c4a11628f55a4df523b3ef90602001611655565b828181146117a8576040517f6582533600000000000000000000000000000000000000000000000000000000815260040160405180910390fd5b806000036117b65750610a6e565b73ffffffffffffffffffffffffffffffffffffffff86166000908152602089905260408120549080805b84811015611afb5760008989838181106117fc576117fc6138c7565b9050602002016020810190611811919061359c565b905073ffffffffffffffffffffffffffffffffffffffff8116611878576040517f754f425b00000000000000000000000000000000000000000000000000000000815273ffffffffffffffffffffffffffffffffffffffff8c166004820152602401610dc9565b600088888481811061188c5761188c6138c7565b905060200201359050806000146119ca578481018581116118d9576040517fdedd834100000000000000000000000000000000000000000000000000000000815260040160405180910390fd5b8095508273ffffffffffffffffffffffffffffffffffffffff168d73ffffffffffffffffffffffffffffffffffffffff161461196357818f60000160008573ffffffffffffffffffffffffffffffffffffffff1673ffffffffffffffffffffffffffffffffffffffff168152602001908152602001600020600082825401925050819055506119c8565b868211156119c3576040517fe450d38c00000000000000000000000000000000000000000000000000000000815273ffffffffffffffffffffffffffffffffffffffff8e1660048201526024810188905260448101839052606401610dc9565b938101935b505b8173ffffffffffffffffffffffffffffffffffffffff168c73ffffffffffffffffffffffffffffffffffffffff167fddf252ad1be2c89b69c2b068fc378daa952ba7f163c4a11628f55a4df523b3ef83604051611a2991815260200190565b60405180910390a38415801590611a405750838514155b15611af157848603868110611aa7576040517fe450d38c00000000000000000000000000000000000000000000000000000000815273ffffffffffffffffffffffffffffffffffffffff8e1660048201526024810188905260448101879052606401610dc9565b8481018f60000160008f73ffffffffffffffffffffffffffffffffffffffff1673ffffffffffffffffffffffffffffffffffffffff16815260200190815260200160002081905550505b50506001016117e0565b508973ffffffffffffffffffffffffffffffffffffffff168973ffffffffffffffffffffffffffffffffffffffff1614611b3b57611b3b8b8a8c856122ce565b5050505050505050505050565b815181518114611b84576040517f6582533600000000000000000000000000000000000000000000000000000000815260040160405180910390fd5b80600003611b925750505050565b6000805b82811015611d0a576000858281518110611bb257611bb26138c7565b60200260200101519050600073ffffffffffffffffffffffffffffffffffffffff168173ffffffffffffffffffffffffffffffffffffffff1603611c22576040517f92fd9c8f00000000000000000000000000000000000000000000000000000000815260040160405180910390fd5b6000858381518110611c3657611c366138c7565b6020026020010151905080600014611cb257838101848111611c84576040517f5542ae7c00000000000000000000000000000000000000000000000000000000815260040160405180910390fd5b73ffffffffffffffffffffffffffffffffffffffff8316600090815260208a90526040902080548301905593505b60405181815273ffffffffffffffffffffffffffffffffffffffff8316906000907fddf252ad1be2c89b69c2b068fc378daa952ba7f163c4a11628f55a4df523b3ef9060200160405180910390a35050600101611b96565b508015611099576002850154818101818111611d5c576040517f0366a5f60000000000000000000000000000000000000000000000000000000081526004810183905260248101849052604401610dc9565b6002870155505050505050565b848381141580611d795750808214155b15611db0576040517f6582533600000000000000000000000000000000000000000000000000000000815260040160405180910390fd5b60005b8181101561104457611e42888883818110611dd057611dd06138c7565b9050602002016020810190611de5919061359c565b858584818110611df757611df76138c7565b90506020020135888885818110611e1057611e106138c7565b9050602002016020810190611e25919061359c565b73ffffffffffffffffffffffffffffffffffffffff169190612f86565b600101611db3565b8273ffffffffffffffffffffffffffffffffffffffff168273ffffffffffffffffffffffffffffffffffffffff1614611e8957611e89848385846122ce565b61087b848383611662565b6000806105f660017f93fe0ff7226b064a4a8f0b09910762afb4bc2441835792c021ffd78cd513011e61383a565b82818114611efc576040517f6582533600000000000000000000000000000000000000000000000000000000815260040160405180910390fd5b80600003611f0a57506108da565b73ffffffffffffffffffffffffffffffffffffffff86166000908152602088905260408120549080805b8481101561216b576000898983818110611f5057611f506138c7565b9050602002016020810190611f65919061359c565b905073ffffffffffffffffffffffffffffffffffffffff8116611fcc576040517f754f425b00000000000000000000000000000000000000000000000000000000815273ffffffffffffffffffffffffffffffffffffffff8c166004820152602401610dc9565b6000888884818110611fe057611fe06138c7565b905060200201359050806000146120fa5784810185811161202d576040517fdedd834100000000000000000000000000000000000000000000000000000000815260040160405180910390fd5b8095508273ffffffffffffffffffffffffffffffffffffffff168d73ffffffffffffffffffffffffffffffffffffffff16146120935773ffffffffffffffffffffffffffffffffffffffff8316600090815260208f9052604090208054830190556120f8565b868211156120f3576040517fe450d38c00000000000000000000000000000000000000000000000000000000815273ffffffffffffffffffffffffffffffffffffffff8e1660048201526024810188905260448101839052606401610dc9565b938101935b505b8173ffffffffffffffffffffffffffffffffffffffff168c73ffffffffffffffffffffffffffffffffffffffff167fddf252ad1be2c89b69c2b068fc378daa952ba7f163c4a11628f55a4df523b3ef8360405161215991815260200190565b60405180910390a35050600101611f34565b50811580159061217b5750808214155b1561220d578183038381106121e2576040517fe450d38c00000000000000000000000000000000000000000000000000000000815273ffffffffffffffffffffffffffffffffffffffff8b1660048201526024810185905260448101849052606401610dc9565b73ffffffffffffffffffffffffffffffffffffffff8a16600090815260208c90526040902090820190555b50505050505050505050565b6122248382846114b8565b60008181526020848152604080832073ffffffffffffffffffffffffffffffffffffffff86168085529083529281902080547fffffffffffffffffffffffffffffffffffffffffffffffffffffffffffffff0016905580518481529182018390528101919091527ff6391f5c32d9c69d2a47ea670b442974b53935d1edc7fd64eb21e047a839171b9060600160405180910390a1505050565b6060816001018054610cab90613874565b73ffffffffffffffffffffffffffffffffffffffff8216612333576040517ff7e1ac0f00000000000000000000000000000000000000000000000000000000815273ffffffffffffffffffffffffffffffffffffffff84166004820152602401610dc9565b73ffffffffffffffffffffffffffffffffffffffff80841660009081526001860160209081526040808320938616835292905220547fffffffffffffffffffffffffffffffffffffffffffffffffffffffffffffffff811480159061239757508115155b1561141c578181038181106113e2576040517f137ad6ab00000000000000000000000000000000000000000000000000000000815273ffffffffffffffffffffffffffffffffffffffff8087166004830152851660248201526044810183905260648101849052608401610dc9565b73ffffffffffffffffffffffffffffffffffffffff821661246b576040517f754f425b00000000000000000000000000000000000000000000000000000000815273ffffffffffffffffffffffffffffffffffffffff84166004820152602401610dc9565b80156125665773ffffffffffffffffffffffffffffffffffffffff83166000908152602085905260409020548181038181106124f9576040517fe450d38c00000000000000000000000000000000000000000000000000000000815273ffffffffffffffffffffffffffffffffffffffff861660048201526024810183905260448101849052606401610dc9565b8373ffffffffffffffffffffffffffffffffffffffff168573ffffffffffffffffffffffffffffffffffffffff16146125635773ffffffffffffffffffffffffffffffffffffffff8086166000908152602088905260408082208490559186168152208054840190555b50505b8173ffffffffffffffffffffffffffffffffffffffff168373ffffffffffffffffffffffffffffffffffffffff167fddf252ad1be2c89b69c2b068fc378daa952ba7f163c4a11628f55a4df523b3ef83604051610e3691815260200190565b6125d2878787878761104e565b73ffffffffffffffffffffffffffffffffffffffff84163b15610a6e57610a6e8686868686868080601f01602080910402602001604051908101604052809392919081815260200183838082843760009201919091525061301392505050565b8483811415806126425750808214155b15612679576040517f6582533600000000000000000000000000000000000000000000000000000000815260040160405180910390fd5b60005b81811015611044576000868683818110612698576126986138c7565b90506020020160208101906126ad919061359c565b6040517f01ffc9a70000000000000000000000000000000000000000000000000000000081527f80ac58cd00000000000000000000000000000000000000000000000000000000600482015290915073ffffffffffffffffffffffffffffffffffffffff8216906301ffc9a790602401602060405180830381865afa15801561273a573d6000803e3d6000fd5b505050506040513d601f19601f8201168201806040525081019061275e91906138f6565b6127ac576040517f986b9f1f00000000000000000000000000000000000000000000000000000000815273ffffffffffffffffffffffffffffffffffffffff82166004820152602401610dc9565b8686838181106127be576127be6138c7565b90506020020160208101906127d3919061359c565b73ffffffffffffffffffffffffffffffffffffffff166342842e0e308b8b86818110612801576128016138c7565b9050602002016020810190612816919061359c565b888887818110612828576128286138c7565b6040517fffffffff0000000000000000000000000000000000000000000000000000000060e088901b16815273ffffffffffffffffffffffffffffffffffffffff958616600482015294909316602485015250602090910201356044820152606401600060405180830381600087803b1580156128a457600080fd5b505af11580156128b8573d6000803e3d6000fd5b505050505080600101905061267c565b73ffffffffffffffffffffffffffffffffffffffff8716612915576040517fa974697600000000000000000000000000000000000000000000000000000000815260040160405180910390fd5b83421115612952576040517fea2b6f5800000000000000000000000000000000000000000000000000000000815260048101859052602401610dc9565b73ffffffffffffffffffffffffffffffffffffffff878116600081815260208b8152604080832080546001810190915581517f6e71edae12b1b97f4d1f60370fef10105fa2faae0126114a169c64845d6126c98185015280830195909552948b166060850152608084018a905260a084019490945260c08084018990528451808503909101815260e090930190935281519190920120906129f161123d565b6040517f19010000000000000000000000000000000000000000000000000000000000006020820152602281019190915260428101839052606201604080517fffffffffffffffffffffffffffffffffffffffffffffffffffffffffffffffe08184030181528282528051602091820120600080855291840180845281905260ff89169284019290925260608301879052608083018690529092509060019060a0016020604051602081039080840390855afa158015612ab5573d6000803e3d6000fd5b5050506020604051035190508973ffffffffffffffffffffffffffffffffffffffff168173ffffffffffffffffffffffffffffffffffffffff1614612b26576040517f822a64c800000000000000000000000000000000000000000000000000000000815260040160405180910390fd5b50505061104487878761062a610d3a565b60008381526020858152604080832073ffffffffffffffffffffffffffffffffffffffff8616845290915290205460ff161561087b5760008381526020858152604080832073ffffffffffffffffffffffffffffffffffffffff8681168086529184529382902080547fffffffffffffffffffffffffffffffffffffffffffffffffffffffffffffff00169055815187815292830152918316918101919091527ff6391f5c32d9c69d2a47ea670b442974b53935d1edc7fd64eb21e047a839171b9060600161122f565b8261087b82848361398e565b612c1986868686612406565b73ffffffffffffffffffffffffffffffffffffffff84163b156108da576108da8586868686868080601f01602080910402602001604051908101604052809392919081815260200183838082843760009201919091525061301392505050565b825473ffffffffffffffffffffffffffffffffffffffff9081169083168114612ce6576040517f2ef4875e00000000000000000000000000000000000000000000000000000000815273ffffffffffffffffffffffffffffffffffffffff84166004820152602401610dc9565b8173ffffffffffffffffffffffffffffffffffffffff168173ffffffffffffffffffffffffffffffffffffffff161461087b5783547fffffffffffffffffffffffff00000000000000000000000000000000000000001673ffffffffffffffffffffffffffffffffffffffff8381169182178655604051908316907f8be0079c531659141344cd1fd0a4f28419497f9722a3daafe3b4186f6b6457e090600090a350505050565b82818114612dc7576040517f6582533600000000000000000000000000000000000000000000000000000000815260040160405180910390fd5b60005b818110156108da57612e31848483818110612de757612de76138c7565b90506020020135878784818110612e0057612e006138c7565b9050602002016020810190612e15919061359c565b73ffffffffffffffffffffffffffffffffffffffff1690613121565b600101612dca565b600033321480612e495750601836105b15612e5357503390565b7fffffffffffffffffffffffffffffffffffffffffffffffffffffffffffffffec36013560601c7f000000000000000000000000000000000000000000000000000000000000000073ffffffffffffffffffffffffffffffffffffffff16331480612f7557506040517f019a202800000000000000000000000000000000000000000000000000000000815273ffffffffffffffffffffffffffffffffffffffff82811660048301523360248301523060448301527f0000000000000000000000000000000000000000000000000000000000000000169063019a202890606401602060405180830381865afa158015612f51573d6000803e3d6000fd5b505050506040513d601f19601f82011682018060405250810190612f7591906138f6565b15612f7f57919050565b3391505090565b6040805173ffffffffffffffffffffffffffffffffffffffff8416602482015260448082018490528251808303909101815260649091019091526020810180517bffffffffffffffffffffffffffffffffffffffffffffffffffffffff167fa9059cbb000000000000000000000000000000000000000000000000000000001790526106dc9084906131d7565b6040517f4fc35859000000000000000000000000000000000000000000000000000000008082529073ffffffffffffffffffffffffffffffffffffffff851690634fc358599061306d908990899088908890600401613aa8565b6020604051808303816000875af115801561308c573d6000803e3d6000fd5b505050506040513d601f19601f820116820180604052508101906130b09190613b03565b7fffffffff000000000000000000000000000000000000000000000000000000001614611099576040517f6d44973600000000000000000000000000000000000000000000000000000000815273ffffffffffffffffffffffffffffffffffffffff84166004820152602401610dc9565b80471015613164576040517fcf47918100000000000000000000000000000000000000000000000000000000815247600482015260248101829052604401610dc9565b6000808373ffffffffffffffffffffffffffffffffffffffff168360405160006040518083038185875af1925050503d80600081146131bf576040519150601f19603f3d011682016040523d82523d6000602084013e6131c4565b606091505b50915091508161087b5761087b8161327b565b600080602060008451602086016000885af1806131fa576040513d6000823e3d81fd5b50506000513d9150811561321257806001141561322c565b73ffffffffffffffffffffffffffffffffffffffff84163b155b1561087b576040517f5274afe700000000000000000000000000000000000000000000000000000000815273ffffffffffffffffffffffffffffffffffffffff85166004820152602401610dc9565b80511561328b5780518082602001fd5b6040517fd6bda27500000000000000000000000000000000000000000000000000000000815260040160405180910390fd5b7fffffffff000000000000000000000000000000000000000000000000000000008116811461094d57600080fd5b6000602082840312156132fd57600080fd5b81356109bb816132bd565b6000815180845260005b8181101561332e57602081850181015186830182015201613312565b5060006020828601015260207fffffffffffffffffffffffffffffffffffffffffffffffffffffffffffffffe0601f83011685010191505092915050565b6020815260006109bb6020830184613308565b73ffffffffffffffffffffffffffffffffffffffff8116811461094d57600080fd5b600080604083850312156133b457600080fd5b82356133bf8161337f565b946020939093013593505050565b60008083601f8401126133df57600080fd5b50813567ffffffffffffffff8111156133f757600080fd5b6020830191508360208260051b850101111561341257600080fd5b9250929050565b6000806000806040858703121561342f57600080fd5b843567ffffffffffffffff81111561344657600080fd5b613452878288016133cd565b909550935050602085013567ffffffffffffffff81111561347257600080fd5b61347e878288016133cd565b95989497509550505050565b60008060006060848603121561349f57600080fd5b83356134aa8161337f565b925060208401356134ba8161337f565b929592945050506040919091013590565b600080604083850312156134de57600080fd5b8235915060208301356134f08161337f565b809150509250929050565b60006020828403121561350d57600080fd5b5035919050565b60008060008060006060868803121561352c57600080fd5b85356135378161337f565b9450602086013567ffffffffffffffff81111561355357600080fd5b61355f888289016133cd565b909550935050604086013567ffffffffffffffff81111561357f57600080fd5b61358b888289016133cd565b969995985093965092949392505050565b6000602082840312156135ae57600080fd5b81356109bb8161337f565b600080600080600080606087890312156135d257600080fd5b863567ffffffffffffffff8111156135e957600080fd5b6135f589828a016133cd565b909750955050602087013567ffffffffffffffff81111561361557600080fd5b61362189828a016133cd565b909550935050604087013567ffffffffffffffff81111561364157600080fd5b61364d89828a016133cd565b979a9699509497509295939492505050565b60008083601f84011261367157600080fd5b50813567ffffffffffffffff81111561368957600080fd5b60208301915083602082850101111561341257600080fd5b6000806000806000608086880312156136b957600080fd5b85356136c48161337f565b945060208601356136d48161337f565b935060408601359250606086013567ffffffffffffffff8111156136f757600080fd5b61358b8882890161365f565b600080600080600080600060e0888a03121561371e57600080fd5b87356137298161337f565b965060208801356137398161337f565b95506040880135945060608801359350608088013560ff8116811461375d57600080fd5b9699959850939692959460a0840135945060c09093013592915050565b6000806040838503121561378d57600080fd5b82356137988161337f565b915060208301356134f08161337f565b600080602083850312156137bb57600080fd5b823567ffffffffffffffff8111156137d257600080fd5b6137de8582860161365f565b90969095509350505050565b6000806000806060858703121561380057600080fd5b843561380b8161337f565b935060208501359250604085013567ffffffffffffffff81111561382e57600080fd5b61347e8782880161365f565b818103818111156105f6577f4e487b7100000000000000000000000000000000000000000000000000000000600052601160045260246000fd5b600181811c9082168061388857607f821691505b6020821081036138c1577f4e487b7100000000000000000000000000000000000000000000000000000000600052602260045260246000fd5b50919050565b7f4e487b7100000000000000000000000000000000000000000000000000000000600052603260045260246000fd5b60006020828403121561390857600080fd5b815180151581146109bb57600080fd5b7f4e487b7100000000000000000000000000000000000000000000000000000000600052604160045260246000fd5b601f8211156106dc57806000526020600020601f840160051c8101602085101561396e5750805b601f840160051c820191505b81811015611099576000815560010161397a565b67ffffffffffffffff8311156139a6576139a6613918565b6139ba836139b48354613874565b83613947565b6000601f841160018114613a0c57600085156139d65750838201355b7fffffffffffffffffffffffffffffffffffffffffffffffffffffffffffffffff600387901b1c1916600186901b178355611099565b6000838152602090207fffffffffffffffffffffffffffffffffffffffffffffffffffffffffffffffe0861690835b82811015613a5b5786850135825560209485019460019092019101613a3b565b5086821015613a96577fffffffffffffffffffffffffffffffffffffffffffffffffffffffffffffffff60f88860031b161c19848701351681555b505060018560011b0183555050505050565b73ffffffffffffffffffffffffffffffffffffffff8516815273ffffffffffffffffffffffffffffffffffffffff84166020820152826040820152608060608201526000613af96080830184613308565b9695505050505050565b600060208284031215613b1557600080fd5b81516109bb816132bd56fea264697066735822122091a8646580b9f05baabb2139bc7bfab47733986f6a0f21c58895083bb32b4deb64736f6c634300081c0033",
  "linkReferences": {},
  "deployedLinkReferences": {}
}