{
  "_format": "hh-sol-artifact-1",
  "contractName": "ERC721SimpleMock",
  "sourceName": "contracts/mocks/token/ERC721/ERC721SimpleMock.sol",
  "abi": [
    {
      "inputs": [
        {
          "internalType": "contract IForwarderRegistry",
          "name": "forwarderRegistry",
          "type": "address"
        }
      ],
      "stateMutability": "nonpayable",
      "type": "constructor"
    },
    {
      "anonymous": false,
      "inputs": [
        {
          "indexed": true,
          "internalType": "address",
          "name": "owner",
          "type": "address"
        },
        {
          "indexed": true,
          "internalType": "address",
          "name": "approved",
          "type": "address"
        },
        {
          "indexed": true,
          "internalType": "uint256",
          "name": "tokenId",
          "type": "uint256"
        }
      ],
      "name": "Approval",
      "type": "event"
    },
    {
      "anonymous": false,
      "inputs": [
        {
          "indexed": true,
          "internalType": "address",
          "name": "owner",
          "type": "address"
        },
        {
          "indexed": true,
          "internalType": "address",
          "name": "operator",
          "type": "address"
        },
        {
          "indexed": false,
          "internalType": "bool",
          "name": "approved",
          "type": "bool"
        }
      ],
      "name": "ApprovalForAll",
      "type": "event"
    },
    {
      "anonymous": false,
      "inputs": [
        {
          "indexed": true,
          "internalType": "address",
          "name": "previousOwner",
          "type": "address"
        },
        {
          "indexed": true,
          "internalType": "address",
          "name": "newOwner",
          "type": "address"
        }
      ],
      "name": "OwnershipTransferred",
      "type": "event"
    },
    {
      "anonymous": false,
      "inputs": [
        {
          "indexed": false,
          "internalType": "bytes32",
          "name": "role",
          "type": "bytes32"
        },
        {
          "indexed": false,
          "internalType": "address",
          "name": "account",
          "type": "address"
        },
        {
          "indexed": false,
          "internalType": "address",
          "name": "operator",
          "type": "address"
        }
      ],
      "name": "RoleGranted",
      "type": "event"
    },
    {
      "anonymous": false,
      "inputs": [
        {
          "indexed": false,
          "internalType": "bytes32",
          "name": "role",
          "type": "bytes32"
        },
        {
          "indexed": false,
          "internalType": "address",
          "name": "account",
          "type": "address"
        },
        {
          "indexed": false,
          "internalType": "address",
          "name": "operator",
          "type": "address"
        }
      ],
      "name": "RoleRevoked",
      "type": "event"
    },
    {
      "anonymous": false,
      "inputs": [
        {
          "indexed": true,
          "internalType": "address",
          "name": "from",
          "type": "address"
        },
        {
          "indexed": true,
          "internalType": "address",
          "name": "to",
          "type": "address"
        },
        {
          "indexed": true,
          "internalType": "uint256",
          "name": "tokenId",
          "type": "uint256"
        }
      ],
      "name": "Transfer",
      "type": "event"
    },
    {
      "inputs": [],
      "name": "MINTER_ROLE",
      "outputs": [
        {
          "internalType": "bytes32",
          "name": "",
          "type": "bytes32"
        }
      ],
      "stateMutability": "view",
      "type": "function"
    },
    {
      "inputs": [],
      "name": "__msgData",
      "outputs": [
        {
          "internalType": "bytes",
          "name": "",
          "type": "bytes"
        }
      ],
      "stateMutability": "view",
      "type": "function"
    },
    {
      "inputs": [
        {
          "internalType": "address",
          "name": "to",
          "type": "address"
        },
        {
          "internalType": "uint256",
          "name": "tokenId",
          "type": "uint256"
        }
      ],
      "name": "approve",
      "outputs": [],
      "stateMutability": "nonpayable",
      "type": "function"
    },
    {
      "inputs": [
        {
          "internalType": "address",
          "name": "owner",
          "type": "address"
        }
      ],
      "name": "balanceOf",
      "outputs": [
        {
          "internalType": "uint256",
          "name": "",
          "type": "uint256"
        }
      ],
      "stateMutability": "view",
      "type": "function"
    },
    {
      "inputs": [
        {
          "internalType": "address",
          "name": "to",
          "type": "address"
        },
        {
          "internalType": "uint256[]",
          "name": "tokenIds",
          "type": "uint256[]"
        }
      ],
      "name": "batchMint",
      "outputs": [],
      "stateMutability": "nonpayable",
      "type": "function"
    },
    {
      "inputs": [
        {
          "internalType": "uint256",
          "name": "tokenId",
          "type": "uint256"
        }
      ],
      "name": "getApproved",
      "outputs": [
        {
          "internalType": "address",
          "name": "operator",
          "type": "address"
        }
      ],
      "stateMutability": "view",
      "type": "function"
    },
    {
      "inputs": [
        {
          "internalType": "bytes32",
          "name": "role",
          "type": "bytes32"
        },
        {
          "internalType": "address",
          "name": "account",
          "type": "address"
        }
      ],
      "name": "grantRole",
      "outputs": [],
      "stateMutability": "nonpayable",
      "type": "function"
    },
    {
      "inputs": [
        {
          "internalType": "bytes32",
          "name": "role",
          "type": "bytes32"
        },
        {
          "internalType": "address",
          "name": "account",
          "type": "address"
        }
      ],
      "name": "hasRole",
      "outputs": [
        {
          "internalType": "bool",
          "name": "",
          "type": "bool"
        }
      ],
      "stateMutability": "view",
      "type": "function"
    },
    {
      "inputs": [
        {
          "internalType": "address",
          "name": "owner",
          "type": "address"
        },
        {
          "internalType": "address",
          "name": "operator",
          "type": "address"
        }
      ],
      "name": "isApprovedForAll",
      "outputs": [
        {
          "internalType": "bool",
          "name": "",
          "type": "bool"
        }
      ],
      "stateMutability": "view",
      "type": "function"
    },
    {
      "inputs": [
        {
          "internalType": "address",
          "name": "to",
          "type": "address"
        },
        {
          "internalType": "uint256",
          "name": "tokenId",
          "type": "uint256"
        }
      ],
      "name": "mint",
      "outputs": [],
      "stateMutability": "nonpayable",
      "type": "function"
    },
    {
      "inputs": [],
      "name": "owner",
      "outputs": [
        {
          "internalType": "address",
          "name": "",
          "type": "address"
        }
      ],
      "stateMutability": "view",
      "type": "function"
    },
    {
      "inputs": [
        {
          "internalType": "uint256",
          "name": "tokenId",
          "type": "uint256"
        }
      ],
      "name": "ownerOf",
      "outputs": [
        {
          "internalType": "address",
          "name": "",
          "type": "address"
        }
      ],
      "stateMutability": "view",
      "type": "function"
    },
    {
      "inputs": [
        {
          "internalType": "bytes32",
          "name": "role",
          "type": "bytes32"
        }
      ],
      "name": "renounceRole",
      "outputs": [],
      "stateMutability": "nonpayable",
      "type": "function"
    },
    {
      "inputs": [
        {
          "internalType": "bytes32",
          "name": "role",
          "type": "bytes32"
        },
        {
          "internalType": "address",
          "name": "account",
          "type": "address"
        }
      ],
      "name": "revokeRole",
      "outputs": [],
      "stateMutability": "nonpayable",
      "type": "function"
    },
    {
      "inputs": [
        {
          "internalType": "address",
          "name": "to",
          "type": "address"
        },
        {
          "internalType": "uint256",
          "name": "tokenId",
          "type": "uint256"
        },
        {
          "internalType": "bytes",
          "name": "data",
          "type": "bytes"
        }
      ],
      "name": "safeMint",
      "outputs": [],
      "stateMutability": "nonpayable",
      "type": "function"
    },
    {
      "inputs": [
        {
          "internalType": "address",
          "name": "from",
          "type": "address"
        },
        {
          "internalType": "address",
          "name": "to",
          "type": "address"
        },
        {
          "internalType": "uint256",
          "name": "tokenId",
          "type": "uint256"
        }
      ],
      "name": "safeTransferFrom",
      "outputs": [],
      "stateMutability": "nonpayable",
      "type": "function"
    },
    {
      "inputs": [
        {
          "internalType": "address",
          "name": "from",
          "type": "address"
        },
        {
          "internalType": "address",
          "name": "to",
          "type": "address"
        },
        {
          "internalType": "uint256",
          "name": "tokenId",
          "type": "uint256"
        },
        {
          "internalType": "bytes",
          "name": "_data",
          "type": "bytes"
        }
      ],
      "name": "safeTransferFrom",
      "outputs": [],
      "stateMutability": "nonpayable",
      "type": "function"
    },
    {
      "inputs": [
        {
          "internalType": "address",
          "name": "operator",
          "type": "address"
        },
        {
          "internalType": "bool",
          "name": "approved",
          "type": "bool"
        }
      ],
      "name": "setApprovalForAll",
      "outputs": [],
      "stateMutability": "nonpayable",
      "type": "function"
    },
    {
      "inputs": [
        {
          "internalType": "bytes4",
          "name": "interfaceId",
          "type": "bytes4"
        }
      ],
      "name": "supportsInterface",
      "outputs": [
        {
          "internalType": "bool",
          "name": "",
          "type": "bool"
        }
      ],
      "stateMutability": "view",
      "type": "function"
    },
    {
      "inputs": [
        {
          "internalType": "address",
          "name": "from",
          "type": "address"
        },
        {
          "internalType": "address",
          "name": "to",
          "type": "address"
        },
        {
          "internalType": "uint256",
          "name": "tokenId",
          "type": "uint256"
        }
      ],
      "name": "transferFrom",
      "outputs": [],
      "stateMutability": "nonpayable",
      "type": "function"
    },
    {
      "inputs": [
        {
          "internalType": "address",
          "name": "newOwner",
          "type": "address"
        }
      ],
      "name": "transferOwnership",
      "outputs": [],
      "stateMutability": "nonpayable",
      "type": "function"
    }
  ],
  "bytecode": "0x60a06040523480156200001157600080fd5b5060405162002c9738038062002c97833981016040819052620000349162000273565b80336200004b620000a260201b620007171760201c565b620000798162000065620000dc60201b6200074e1760201c565b6200011260201b6200077c1790919060201c565b506200008f6200019060201b620008321760201c565b6001600160a01b031660805250620002cb565b620000da6380ac58cd60e01b6001620000c5620001b360201b6200085c1760201c565b620001e360201b6200088a179092919060201c565b565b6000806200010c60017fc9ed16f33ab3a66c84bfd83099ccb2a8845871e2e1c1928f63797152f0fd54cd620002a5565b92915050565b6001600160a01b03811615620001695781546001600160a01b0319166001600160a01b03821690811783556040516000907f8be0079c531659141344cd1fd0a4f28419497f9722a3daafe3b4186f6b6457e0908290a35b6200018c6307f5828d60e41b6001620000c5620001b360201b6200085c1760201c565b5050565b620000da638e773e1360e01b6001620000c5620001b360201b6200085c1760201c565b6000806200010c60017fca9d3e17f264b0f3984e2634e94adb37fa3e6a8103f06aeae6fa59e21c769f5e620002a5565b600160e01b6001600160e01b0319831601620002455760405162461bcd60e51b815260206004820152601f60248201527f496e74657266616365446574656374696f6e3a2077726f6e672076616c756500604482015260640160405180910390fd5b6001600160e01b03199190911660009081526020929092526040909120805460ff1916911515919091179055565b6000602082840312156200028657600080fd5b81516001600160a01b03811681146200029e57600080fd5b9392505050565b600082821015620002c657634e487b7160e01b600052601160045260246000fd5b500390565b60805161299b620002fc60003960008181611d3f01528181611ddf01528181611ee80152611f52015261299b6000f3fe608060405234801561001057600080fd5b50600436106101775760003560e01c806370a08231116100d8578063a22cb4651161008c578063d547741f11610066578063d547741f14610328578063e985e9c51461033b578063f2fde38b1461034e57600080fd5b8063a22cb465146102db578063b88d4fde146102ee578063d53913931461030157600080fd5b80638bb9c5bf116100bd5780638bb9c5bf146102ad5780638da5cb5b146102c057806391d14854146102c857600080fd5b806370a08231146102795780638832e6e31461029a57600080fd5b806331e66e1e1161012f57806342842e0e1161011457806342842e0e146102405780634684d7e9146102535780636352211e1461026657600080fd5b806331e66e1e1461021757806340c10f191461022d57600080fd5b8063095ea7b311610160578063095ea7b3146101dc57806323b872dd146101f15780632f2ff15d1461020457600080fd5b806301ffc9a71461017c578063081812fc146101a4575b600080fd5b61018f61018a366004612358565b610361565b60405190151581526020015b60405180910390f35b6101b76101b2366004612375565b61037b565b60405173ffffffffffffffffffffffffffffffffffffffff909116815260200161019b565b6101ef6101ea3660046123b7565b61038f565b005b6101ef6101ff3660046123e1565b6103b0565b6101ef61021236600461241d565b6103d4565b61021f610408565b60405161019b929190612449565b6101ef61023b3660046123b7565b61041b565b6101ef61024e3660046123e1565b61046a565b6101ef610261366004612496565b610489565b6101b7610274366004612375565b6104fd565b61028c61028736600461251c565b610511565b60405190815260200161019b565b6101ef6102a8366004612537565b610525565b6101ef6102bb366004612375565b6105ad565b6101b76105cb565b61018f6102d636600461241d565b6105f7565b6101ef6102e93660046125cc565b610642565b6101ef6102fc366004612632565b61065f565b61028c7f6d696e746572000000000000000000000000000000000000000000000000000081565b6101ef61033636600461241d565b610680565b61018f61034936600461272c565b6106ae565b6101ef61035c36600461251c565b6106fc565b60006103758261036f61085c565b9061099b565b92915050565b600061037582610389610a75565b90610aa3565b6103ac61039a610b84565b83836103a4610a75565b929190610b8e565b5050565b6103cf6103bb610b84565b8484846103c6610a75565b93929190610e57565b505050565b60006103de610b84565b90506103f2816103ec61074e565b906111ac565b6103cf83838361040061122f565b92919061125d565b366000610413611333565b915091509091565b6104567f6d696e7465720000000000000000000000000000000000000000000000000000610447610b84565b61044f61122f565b919061133e565b6103ac8282610463610a75565b91906113ea565b6103cf610475610b84565b848484610480610a75565b93929190611561565b6104b57f6d696e7465720000000000000000000000000000000000000000000000000000610447610b84565b6103cf838383808060200260200160405190810160405280939291908181526020018383602002808284376000920191909152506104f69250610a75915050565b91906115ae565b60006103758261050b610a75565b90611782565b60006103758261051f610a75565b90611818565b6105517f6d696e7465720000000000000000000000000000000000000000000000000000610447610b84565b6105a761055c610b84565b858585858080601f01602080910402602001604051908101604052809392919081815260200183838082843760009201919091525061059e9250610a75915050565b939291906118c4565b50505050565b6105c86105b8610b84565b826105c161122f565b91906118fa565b50565b60006105f26105d861074e565b5473ffffffffffffffffffffffffffffffffffffffff1690565b905090565b600061063b838361060661122f565b60009283526020908152604080842073ffffffffffffffffffffffffffffffffffffffff909316845291905290205460ff1690565b9392505050565b6103ac61064d610b84565b8383610657610a75565b92919061199e565b6105a761066a610b84565b85858585610676610a75565b9493929190611ace565b600061068a610b84565b9050610698816103ec61074e565b6103cf8383836106a661122f565b929190611b0d565b600061063b83836106bd610a75565b919073ffffffffffffffffffffffffffffffffffffffff9182166000908152600393909301602090815260408085209290931684525290205460ff1690565b6105c8610707610b84565b8261071061074e565b9190611bd7565b61074c7f80ac58cd00000000000000000000000000000000000000000000000000000000600161074561085c565b919061088a565b565b60008061037560017fc9ed16f33ab3a66c84bfd83099ccb2a8845871e2e1c1928f63797152f0fd54cd612756565b73ffffffffffffffffffffffffffffffffffffffff8116156108045781547fffffffffffffffffffffffff00000000000000000000000000000000000000001673ffffffffffffffffffffffffffffffffffffffff821690811783556040516000907f8be0079c531659141344cd1fd0a4f28419497f9722a3daafe3b4186f6b6457e0908290a35b6103ac7f7f5828d000000000000000000000000000000000000000000000000000000000600161074561085c565b61074c7f8e773e130000000000000000000000000000000000000000000000000000000060016107455b60008061037560017fca9d3e17f264b0f3984e2634e94adb37fa3e6a8103f06aeae6fa59e21c769f5e612756565b7c01000000000000000000000000000000000000000000000000000000007fffffffff00000000000000000000000000000000000000000000000000000000831601610937576040517f08c379a000000000000000000000000000000000000000000000000000000000815260206004820152601f60248201527f496e74657266616365446574656374696f6e3a2077726f6e672076616c75650060448201526064015b60405180910390fd5b7fffffffff00000000000000000000000000000000000000000000000000000000919091166000908152602092909252604090912080547fffffffffffffffffffffffffffffffffffffffffffffffffffffffffffffff0016911515919091179055565b60007c01000000000000000000000000000000000000000000000000000000007fffffffff000000000000000000000000000000000000000000000000000000008316016109eb57506000610375565b7ffe003659000000000000000000000000000000000000000000000000000000007fffffffff00000000000000000000000000000000000000000000000000000000831601610a3c57506001610375565b507fffffffff00000000000000000000000000000000000000000000000000000000166000908152602091909152604090205460ff1690565b60008061037560017fddf3ee18ae6d688373c219468f8be446e7ae82215f4779d821c7ea5e8c13c0c1612756565b60008181526020839052604081205473ffffffffffffffffffffffffffffffffffffffff8116610b2f576040517f08c379a000000000000000000000000000000000000000000000000000000000815260206004820152601a60248201527f4552433732313a206e6f6e2d6578697374696e6720746f6b656e000000000000604482015260640161092e565b74010000000000000000000000000000000000000000811615610b7a575050600081815260028301602052604090205473ffffffffffffffffffffffffffffffffffffffff16610375565b6000915050610375565b60006105f2611d03565b60008181526020859052604090205473ffffffffffffffffffffffffffffffffffffffff8116610c1a576040517f08c379a000000000000000000000000000000000000000000000000000000000815260206004820152601a60248201527f4552433732313a206e6f6e2d6578697374696e6720746f6b656e000000000000604482015260640161092e565b8073ffffffffffffffffffffffffffffffffffffffff80821690851603610c9d576040517f08c379a000000000000000000000000000000000000000000000000000000000815260206004820152601560248201527f4552433732313a2073656c662d617070726f76616c0000000000000000000000604482015260640161092e565b610ca8868287611e5b565b610d0e576040517f08c379a000000000000000000000000000000000000000000000000000000000815260206004820152601b60248201527f4552433732313a206e6f6e2d617070726f7665642073656e6465720000000000604482015260640161092e565b73ffffffffffffffffffffffffffffffffffffffff8416610d735774010000000000000000000000000000000000000000821615610d6e57600083815260208790526040902073ffffffffffffffffffffffffffffffffffffffff821690555b610df4565b740100000000000000000000000000000000000000008217808314610da45760008481526020889052604090208190555b506000838152600287016020526040902080547fffffffffffffffffffffffff00000000000000000000000000000000000000001673ffffffffffffffffffffffffffffffffffffffff86161790555b828473ffffffffffffffffffffffffffffffffffffffff168273ffffffffffffffffffffffffffffffffffffffff167f8c5be1e5ebec7d5bd14f71427d1e84f3dd0314c0f7b2291e5b200ac8c7c3b92560405160405180910390a4505050505050565b73ffffffffffffffffffffffffffffffffffffffff8216610ed4576040517f08c379a000000000000000000000000000000000000000000000000000000000815260206004820152601e60248201527f4552433732313a207472616e7366657220746f20616464726573732830290000604482015260640161092e565b60008181526020869052604090205473ffffffffffffffffffffffffffffffffffffffff8116610f60576040517f08c379a000000000000000000000000000000000000000000000000000000000815260206004820152601a60248201527f4552433732313a206e6f6e2d6578697374696e6720746f6b656e000000000000604482015260640161092e565b73ffffffffffffffffffffffffffffffffffffffff84168173ffffffffffffffffffffffffffffffffffffffff1614610ff5576040517f08c379a000000000000000000000000000000000000000000000000000000000815260206004820152601760248201527f4552433732313a206e6f6e2d6f776e656420746f6b656e000000000000000000604482015260640161092e565b611000868587611e5b565b6110b857740100000000000000000000000000000000000000008116151580156110525750600082815260028701602052604090205473ffffffffffffffffffffffffffffffffffffffff8681169116145b6110b8576040517f08c379a000000000000000000000000000000000000000000000000000000000815260206004820152601b60248201527f4552433732313a206e6f6e2d617070726f7665642073656e6465720000000000604482015260640161092e565b600082815260208790526040902073ffffffffffffffffffffffffffffffffffffffff808516918290558516146111495773ffffffffffffffffffffffffffffffffffffffff80851660009081526001808901602052604080832080547fffffffffffffffffffffffffffffffffffffffffffffffffffffffffffffffff0190559286168252919020805490910190555b818373ffffffffffffffffffffffffffffffffffffffff168573ffffffffffffffffffffffffffffffffffffffff167fddf252ad1be2c89b69c2b068fc378daa952ba7f163c4a11628f55a4df523b3ef60405160405180910390a4505050505050565b815473ffffffffffffffffffffffffffffffffffffffff8281169116146103ac576040517f08c379a000000000000000000000000000000000000000000000000000000000815260206004820152601860248201527f4f776e6572736869703a206e6f7420746865206f776e65720000000000000000604482015260640161092e565b60008061037560017fc8827d3282af6f37b64c3e9e6f3ac9df286ab0bb0fccd6f8661bf19adb368b23612756565b60008381526020858152604080832073ffffffffffffffffffffffffffffffffffffffff8616845290915290205460ff166105a75760008381526020858152604080832073ffffffffffffffffffffffffffffffffffffffff8681168086529184529382902080547fffffffffffffffffffffffffffffffffffffffffffffffffffffffffffffff00166001179055815187815292830152918316918101919091527f2f8788117e7eff1d82e926ec794901d17c78024a50270940304540a733656f0d906060015b60405180910390a150505050565b366000610413611ed0565b60008281526020848152604080832073ffffffffffffffffffffffffffffffffffffffff8516845290915290205460ff166103cf5761137c82612054565b60405160200161138c91906127c0565b604080517fffffffffffffffffffffffffffffffffffffffffffffffffffffffffffffffe0818403018152908290527f08c379a000000000000000000000000000000000000000000000000000000000825261092e91600401612876565b73ffffffffffffffffffffffffffffffffffffffff8216611467576040517f08c379a000000000000000000000000000000000000000000000000000000000815260206004820152601a60248201527f4552433732313a206d696e7420746f2061646472657373283029000000000000604482015260640161092e565b60008181526020849052604090205473ffffffffffffffffffffffffffffffffffffffff16156114f3576040517f08c379a000000000000000000000000000000000000000000000000000000000815260206004820152601660248201527f4552433732313a206578697374696e6720746f6b656e00000000000000000000604482015260640161092e565b60008181526020848152604080832073ffffffffffffffffffffffffffffffffffffffff86169081905580845260018088019093528184208054909301909255518392907fddf252ad1be2c89b69c2b068fc378daa952ba7f163c4a11628f55a4df523b3ef908290a4505050565b61156e8585858585610e57565b73ffffffffffffffffffffffffffffffffffffffff82163b156115a7576115a784848484604051806020016040528060008152506121e6565b5050505050565b73ffffffffffffffffffffffffffffffffffffffff821661162b576040517f08c379a000000000000000000000000000000000000000000000000000000000815260206004820152601a60248201527f4552433732313a206d696e7420746f2061646472657373283029000000000000604482015260640161092e565b805160005b81811461174d57600083828151811061164b5761164b612889565b602002602001015190506116898660000160008381526020019081526020016000205473ffffffffffffffffffffffffffffffffffffffff16151590565b156116f0576040517f08c379a000000000000000000000000000000000000000000000000000000000815260206004820152601660248201527f4552433732313a206578697374696e6720746f6b656e00000000000000000000604482015260640161092e565b60008181526020879052604080822073ffffffffffffffffffffffffffffffffffffffff88169081905590518392907fddf252ad1be2c89b69c2b068fc378daa952ba7f163c4a11628f55a4df523b3ef908290a450600101611630565b5073ffffffffffffffffffffffffffffffffffffffff9092166000908152600190930160205250604090912080549091019055565b60008181526020839052604081205473ffffffffffffffffffffffffffffffffffffffff811661180e576040517f08c379a000000000000000000000000000000000000000000000000000000000815260206004820152601a60248201527f4552433732313a206e6f6e2d6578697374696e6720746f6b656e000000000000604482015260640161092e565b805b949350505050565b600073ffffffffffffffffffffffffffffffffffffffff8216611897576040517f08c379a000000000000000000000000000000000000000000000000000000000815260206004820152601d60248201527f4552433732313a2062616c616e6365206f662061646472657373283029000000604482015260640161092e565b5073ffffffffffffffffffffffffffffffffffffffff166000908152600191909101602052604090205490565b6118cf8584846113ea565b73ffffffffffffffffffffffffffffffffffffffff83163b156115a7576115a78460008585856121e6565b61190583828461133e565b60008181526020848152604080832073ffffffffffffffffffffffffffffffffffffffff86168085529083529281902080547fffffffffffffffffffffffffffffffffffffffffffffffffffffffffffffff0016905580518481529182018390528101919091527ff6391f5c32d9c69d2a47ea670b442974b53935d1edc7fd64eb21e047a839171b9060600160405180910390a1505050565b8273ffffffffffffffffffffffffffffffffffffffff168273ffffffffffffffffffffffffffffffffffffffff1603611a33576040517f08c379a000000000000000000000000000000000000000000000000000000000815260206004820152601d60248201527f4552433732313a2073656c662d617070726f76616c20666f7220616c6c000000604482015260640161092e565b73ffffffffffffffffffffffffffffffffffffffff838116600081815260038701602090815260408083209487168084529482529182902080547fffffffffffffffffffffffffffffffffffffffffffffffffffffffffffffff001686151590811790915591519182527f17307eab39ab6107e8899845ad3d59bd9653f200f220920489ca2b5937696c31910160405180910390a350505050565b611adb8686868686610e57565b73ffffffffffffffffffffffffffffffffffffffff83163b15611b0557611b0585858585856121e6565b505050505050565b60008381526020858152604080832073ffffffffffffffffffffffffffffffffffffffff8616845290915290205460ff16156105a75760008381526020858152604080832073ffffffffffffffffffffffffffffffffffffffff8681168086529184529382902080547fffffffffffffffffffffffffffffffffffffffffffffffffffffffffffffff00169055815187815292830152918316918101919091527ff6391f5c32d9c69d2a47ea670b442974b53935d1edc7fd64eb21e047a839171b90606001611325565b825473ffffffffffffffffffffffffffffffffffffffff9081169083168114611c5c576040517f08c379a000000000000000000000000000000000000000000000000000000000815260206004820152601860248201527f4f776e6572736869703a206e6f7420746865206f776e65720000000000000000604482015260640161092e565b8173ffffffffffffffffffffffffffffffffffffffff168173ffffffffffffffffffffffffffffffffffffffff16146105a75783547fffffffffffffffffffffffff00000000000000000000000000000000000000001673ffffffffffffffffffffffffffffffffffffffff8381169182178655604051908316907f8be0079c531659141344cd1fd0a4f28419497f9722a3daafe3b4186f6b6457e090600090a350505050565b600033328103611d1257919050565b6000367fffffffffffffffffffffffffffffffffffffffffffffffffffffffffffffffec013560601c90507f000000000000000000000000000000000000000000000000000000000000000073ffffffffffffffffffffffffffffffffffffffff168273ffffffffffffffffffffffffffffffffffffffff161480611e4a57506040517fe60125d600000000000000000000000000000000000000000000000000000000815273ffffffffffffffffffffffffffffffffffffffff828116600483015283811660248301527f0000000000000000000000000000000000000000000000000000000000000000169063e60125d690604401602060405180830381865afa158015611e26573d6000803e3d6000fd5b505050506040513d601f19601f82011682018060405250810190611e4a91906128b8565b15611e555792915050565b50919050565b60008173ffffffffffffffffffffffffffffffffffffffff168373ffffffffffffffffffffffffffffffffffffffff16148061181057505073ffffffffffffffffffffffffffffffffffffffff9182166000908152600393909301602090815260408085209290931684525290205460ff1690565b36600033328103611ee657506000923692509050565b7f000000000000000000000000000000000000000000000000000000000000000073ffffffffffffffffffffffffffffffffffffffff168173ffffffffffffffffffffffffffffffffffffffff161480612033575073ffffffffffffffffffffffffffffffffffffffff7f00000000000000000000000000000000000000000000000000000000000000001663e60125d6367fffffffffffffffffffffffffffffffffffffffffffffffffffffffffffffffec013560601c6040517fffffffff0000000000000000000000000000000000000000000000000000000060e084901b16815273ffffffffffffffffffffffffffffffffffffffff91821660048201529084166024820152604401602060405180830381865afa15801561200f573d6000803e3d6000fd5b505050506040513d601f19601f8201168201806040525081019061203391906128b8565b156120495761204061230c565b92509250509091565b506000923692509050565b6060600082900361207357505060408051602081019091526000815290565b60008260405160200161208891815260200190565b604080517fffffffffffffffffffffffffffffffffffffffffffffffffffffffffffffffe08184030181529190529050601f5b8181815181106120cd576120cd612889565b01602001517fff0000000000000000000000000000000000000000000000000000000000000016600003612122577fffffffffffffffffffffffffffffffffffffffffffffffffffffffffffffffff016120bb565b60008160010167ffffffffffffffff81111561214057612140612603565b6040519080825280601f01601f19166020018201604052801561216a576020820181803683370190505b50905060005b8281116121dd5783818151811061218957612189612889565b602001015160f81c60f81b8282815181106121a6576121a6612889565b60200101907effffffffffffffffffffffffffffffffffffffffffffffffffffffffffffff1916908160001a905350600101612170565b50949350505050565b6040517f150b7a02000000000000000000000000000000000000000000000000000000008082529073ffffffffffffffffffffffffffffffffffffffff85169063150b7a02906122409089908990889088906004016128d5565b6020604051808303816000875af115801561225f573d6000803e3d6000fd5b505050506040513d601f19601f82011682018060405250810190612283919061291e565b7fffffffff0000000000000000000000000000000000000000000000000000000016146115a7576040517f08c379a000000000000000000000000000000000000000000000000000000000815260206004820152601e60248201527f4552433732313a2073616665207472616e736665722072656a65637465640000604482015260640161092e565b36600080808361231d601482612756565b926104139392919061293b565b7fffffffff00000000000000000000000000000000000000000000000000000000811681146105c857600080fd5b60006020828403121561236a57600080fd5b813561063b8161232a565b60006020828403121561238757600080fd5b5035919050565b803573ffffffffffffffffffffffffffffffffffffffff811681146123b257600080fd5b919050565b600080604083850312156123ca57600080fd5b6123d38361238e565b946020939093013593505050565b6000806000606084860312156123f657600080fd5b6123ff8461238e565b925061240d6020850161238e565b9150604084013590509250925092565b6000806040838503121561243057600080fd5b823591506124406020840161238e565b90509250929050565b60208152816020820152818360408301376000818301604090810191909152601f9092017fffffffffffffffffffffffffffffffffffffffffffffffffffffffffffffffe0160101919050565b6000806000604084860312156124ab57600080fd5b6124b48461238e565b9250602084013567ffffffffffffffff808211156124d157600080fd5b818601915086601f8301126124e557600080fd5b8135818111156124f457600080fd5b8760208260051b850101111561250957600080fd5b6020830194508093505050509250925092565b60006020828403121561252e57600080fd5b61063b8261238e565b6000806000806060858703121561254d57600080fd5b6125568561238e565b935060208501359250604085013567ffffffffffffffff8082111561257a57600080fd5b818701915087601f83011261258e57600080fd5b81358181111561259d57600080fd5b8860208285010111156125af57600080fd5b95989497505060200194505050565b80151581146105c857600080fd5b600080604083850312156125df57600080fd5b6125e88361238e565b915060208301356125f8816125be565b809150509250929050565b7f4e487b7100000000000000000000000000000000000000000000000000000000600052604160045260246000fd5b6000806000806080858703121561264857600080fd5b6126518561238e565b935061265f6020860161238e565b925060408501359150606085013567ffffffffffffffff8082111561268357600080fd5b818701915087601f83011261269757600080fd5b8135818111156126a9576126a9612603565b604051601f82017fffffffffffffffffffffffffffffffffffffffffffffffffffffffffffffffe0908116603f011681019083821181831017156126ef576126ef612603565b816040528281528a602084870101111561270857600080fd5b82602086016020830137600060208483010152809550505050505092959194509250565b6000806040838503121561273f57600080fd5b6127488361238e565b91506124406020840161238e565b60008282101561278f577f4e487b7100000000000000000000000000000000000000000000000000000000600052601160045260246000fd5b500390565b60005b838110156127af578181015183820152602001612797565b838111156105a75750506000910152565b7f416363657373436f6e74726f6c3a206d697373696e67202700000000000000008152600082516127f8816018850160208701612794565b7f2720726f6c6500000000000000000000000000000000000000000000000000006018939091019283015250601e01919050565b60008151808452612844816020860160208601612794565b601f017fffffffffffffffffffffffffffffffffffffffffffffffffffffffffffffffe0169290920160200192915050565b60208152600061063b602083018461282c565b7f4e487b7100000000000000000000000000000000000000000000000000000000600052603260045260246000fd5b6000602082840312156128ca57600080fd5b815161063b816125be565b600073ffffffffffffffffffffffffffffffffffffffff808716835280861660208401525083604083015260806060830152612914608083018461282c565b9695505050505050565b60006020828403121561293057600080fd5b815161063b8161232a565b6000808585111561294b57600080fd5b8386111561295857600080fd5b505082019391909203915056fea26469706673582212209c6ce7d5a04cf503e385d0687f080288354dcf3730d4af97c567e0e22fa3272064736f6c634300080e0033",
  "linkReferences": {},
  "deployedLinkReferences": {}
}