{
  "_format": "hh-sol-artifact-1",
  "contractName": "ERC721SimpleMock",
  "sourceName": "contracts/mocks/token/ERC721/ERC721SimpleMock.sol",
  "abi": [
    {
      "anonymous": false,
      "inputs": [
        {
          "indexed": true,
          "internalType": "address",
          "name": "owner",
          "type": "address"
        },
        {
          "indexed": true,
          "internalType": "address",
          "name": "approved",
          "type": "address"
        },
        {
          "indexed": true,
          "internalType": "uint256",
          "name": "tokenId",
          "type": "uint256"
        }
      ],
      "name": "Approval",
      "type": "event"
    },
    {
      "anonymous": false,
      "inputs": [
        {
          "indexed": true,
          "internalType": "address",
          "name": "owner",
          "type": "address"
        },
        {
          "indexed": true,
          "internalType": "address",
          "name": "operator",
          "type": "address"
        },
        {
          "indexed": false,
          "internalType": "bool",
          "name": "approved",
          "type": "bool"
        }
      ],
      "name": "ApprovalForAll",
      "type": "event"
    },
    {
      "anonymous": false,
      "inputs": [
        {
          "indexed": true,
          "internalType": "address",
          "name": "from",
          "type": "address"
        },
        {
          "indexed": true,
          "internalType": "address",
          "name": "to",
          "type": "address"
        },
        {
          "indexed": true,
          "internalType": "uint256",
          "name": "tokenId",
          "type": "uint256"
        }
      ],
      "name": "Transfer",
      "type": "event"
    },
    {
      "inputs": [
        {
          "internalType": "address",
          "name": "to",
          "type": "address"
        },
        {
          "internalType": "uint256",
          "name": "tokenId",
          "type": "uint256"
        }
      ],
      "name": "approve",
      "outputs": [],
      "stateMutability": "nonpayable",
      "type": "function"
    },
    {
      "inputs": [
        {
          "internalType": "address",
          "name": "owner",
          "type": "address"
        }
      ],
      "name": "balanceOf",
      "outputs": [
        {
          "internalType": "uint256",
          "name": "",
          "type": "uint256"
        }
      ],
      "stateMutability": "view",
      "type": "function"
    },
    {
      "inputs": [
        {
          "internalType": "uint256",
          "name": "tokenId",
          "type": "uint256"
        }
      ],
      "name": "getApproved",
      "outputs": [
        {
          "internalType": "address",
          "name": "operator",
          "type": "address"
        }
      ],
      "stateMutability": "view",
      "type": "function"
    },
    {
      "inputs": [
        {
          "internalType": "address",
          "name": "owner",
          "type": "address"
        },
        {
          "internalType": "address",
          "name": "operator",
          "type": "address"
        }
      ],
      "name": "isApprovedForAll",
      "outputs": [
        {
          "internalType": "bool",
          "name": "",
          "type": "bool"
        }
      ],
      "stateMutability": "view",
      "type": "function"
    },
    {
      "inputs": [
        {
          "internalType": "uint256",
          "name": "tokenId",
          "type": "uint256"
        }
      ],
      "name": "ownerOf",
      "outputs": [
        {
          "internalType": "address",
          "name": "",
          "type": "address"
        }
      ],
      "stateMutability": "view",
      "type": "function"
    },
    {
      "inputs": [
        {
          "internalType": "address",
          "name": "from",
          "type": "address"
        },
        {
          "internalType": "address",
          "name": "to",
          "type": "address"
        },
        {
          "internalType": "uint256",
          "name": "tokenId",
          "type": "uint256"
        }
      ],
      "name": "safeTransferFrom",
      "outputs": [],
      "stateMutability": "nonpayable",
      "type": "function"
    },
    {
      "inputs": [
        {
          "internalType": "address",
          "name": "from",
          "type": "address"
        },
        {
          "internalType": "address",
          "name": "to",
          "type": "address"
        },
        {
          "internalType": "uint256",
          "name": "tokenId",
          "type": "uint256"
        },
        {
          "internalType": "bytes",
          "name": "_data",
          "type": "bytes"
        }
      ],
      "name": "safeTransferFrom",
      "outputs": [],
      "stateMutability": "nonpayable",
      "type": "function"
    },
    {
      "inputs": [
        {
          "internalType": "address",
          "name": "operator",
          "type": "address"
        },
        {
          "internalType": "bool",
          "name": "_approved",
          "type": "bool"
        }
      ],
      "name": "setApprovalForAll",
      "outputs": [],
      "stateMutability": "nonpayable",
      "type": "function"
    },
    {
      "inputs": [
        {
          "internalType": "address",
          "name": "from",
          "type": "address"
        },
        {
          "internalType": "address",
          "name": "to",
          "type": "address"
        },
        {
          "internalType": "uint256",
          "name": "tokenId",
          "type": "uint256"
        }
      ],
      "name": "transferFrom",
      "outputs": [],
      "stateMutability": "nonpayable",
      "type": "function"
    }
  ],
  "bytecode": "0x60806040523480156200001157600080fd5b506200003c6200002b6200004260201b620003591760201c565b6200007860201b620003871760201c565b62000358565b6000806200007260017fddf3ee18ae6d688373c219468f8be446e7ae82215f4779d821c7ea5e8c13c0c1620002da565b92915050565b620000b860405180604001604052806012815260200171115490cdcc8c54dd1bdc9859d9481a5b9a5d60721b8152506200013a60201b620004321760201c565b620000ff620000e960017ffddcdbf8ca7eb362a678daf3643ce3cf98ebf69ac314d25d376d5aeabd2f5332620002da565b60001b60016200018560201b620004c11760201c565b620001376380ac58cd60e01b600162000122620001fc60201b620005361760201c565b6200022c60201b62000564179092919060201c565b50565b620001378160405160240162000151919062000300565b60408051601f198184030181529190526020810180516001600160e01b0390811663104c13eb60e21b17909152620002b616565b60006200019d83620002d760201b620006541760201c565b905081816000015410620001f85760405162461bcd60e51b815260206004820152601860248201527f53746f726167653a2076657273696f6e2072656163686564000000000000000060448201526064015b60405180910390fd5b5550565b6000806200007260017f7180ffa89c91cf90d6c56dacabfc69bc5e36f3099d7eed2f5cc12c5dba016fe0620002da565b6001600160e01b03198083169003620002885760405162461bcd60e51b815260206004820152601f60248201527f496e74657266616365446574656374696f6e3a2077726f6e672076616c7565006044820152606401620001ef565b6001600160e01b03199190911660009081526020929092526040909120805460ff1916911515919091179055565b80516a636f6e736f6c652e6c6f67602083016000808483855afa5050505050565b90565b600082821015620002fb57634e487b7160e01b600052601160045260246000fd5b500390565b600060208083528351808285015260005b818110156200032f5785810183015185820160400152820162000311565b8181111562000342576000604083870101525b50601f01601f1916929092016040019392505050565b61157080620003686000396000f3fe608060405234801561001057600080fd5b50600436106100a35760003560e01c80636352211e11610076578063a22cb4651161005b578063a22cb46514610154578063b88d4fde14610167578063e985e9c51461017a57600080fd5b80636352211e1461012057806370a082311461013357600080fd5b8063081812fc146100a8578063095ea7b3146100e557806323b872dd146100fa57806342842e0e1461010d575b600080fd5b6100bb6100b6366004611139565b61019d565b60405173ffffffffffffffffffffffffffffffffffffffff90911681526020015b60405180910390f35b6100f86100f336600461117b565b6101b7565b005b6100f86101083660046111a5565b610254565b6100f861011b3660046111a5565b610271565b6100bb61012e366004611139565b610289565b6101466101413660046111e1565b6102a7565b6040519081526020016100dc565b6100f8610162366004611203565b6102e0565b6100f861017536600461126e565b6102f6565b61018d610188366004611368565b610316565b60405190151581526020016100dc565b60006101b1826101ab610359565b90610657565b92915050565b6101f56040518060400160405280601281526020017f4552433732314261736520617070726f76650000000000000000000000000000815250610432565b61023a6040518060400160405280600c81526020017f5f6d736753656e646572282900000000000000000000000000000000000000008152506102353390565b61073a565b610250338383610248610359565b9291906107cb565b5050565b61026c33848484610263610359565b93929190610a87565b505050565b61026c33848484610280610359565b93929190610aad565b6000610293610359565b600092835260010160205250604090205490565b60006102b1610359565b73ffffffffffffffffffffffffffffffffffffffff909216600090815260029290920160205250604090205490565b6102503383836102ee610359565b929190610acc565b6103103385858585610306610359565b9493929190610bf8565b50505050565b6000610320610359565b73ffffffffffffffffffffffffffffffffffffffff93841660009081526020918252604080822094909516815292905250205460ff1690565b6000806101b160017fddf3ee18ae6d688373c219468f8be446e7ae82215f4779d821c7ea5e8c13c0c16113ca565b6103c56040518060400160405280601281526020017f45524337323153746f7261676520696e69740000000000000000000000000000815250610432565b6103fa6103f360017ffddcdbf8ca7eb362a678daf3643ce3cf98ebf69ac314d25d376d5aeabd2f53326113ca565b60016104c1565b61042f7f80ac58cd000000000000000000000000000000000000000000000000000000006001610428610536565b9190610564565b50565b61042f81604051602401610446919061144c565b604080517fffffffffffffffffffffffffffffffffffffffffffffffffffffffffffffffe08184030181529190526020810180517bffffffffffffffffffffffffffffffffffffffffffffffffffffffff167f41304fac00000000000000000000000000000000000000000000000000000000179052610c10565b815482908211610532576040517f08c379a000000000000000000000000000000000000000000000000000000000815260206004820152601860248201527f53746f726167653a2076657273696f6e2072656163686564000000000000000060448201526064015b60405180910390fd5b5550565b6000806101b160017f7180ffa89c91cf90d6c56dacabfc69bc5e36f3099d7eed2f5cc12c5dba016fe06113ca565b7fffffffff0000000000000000000000000000000000000000000000000000000080831690036105f0576040517f08c379a000000000000000000000000000000000000000000000000000000000815260206004820152601f60248201527f496e74657266616365446574656374696f6e3a2077726f6e672076616c7565006044820152606401610529565b7fffffffff00000000000000000000000000000000000000000000000000000000919091166000908152602092909252604090912080547fffffffffffffffffffffffffffffffffffffffffffffffffffffffffffffff0016911515919091179055565b90565b600081815260018301602052604081205473ffffffffffffffffffffffffffffffffffffffff81166106e5576040517f08c379a000000000000000000000000000000000000000000000000000000000815260206004820152601860248201527f4552433732313a206e6f6e2d6578697374696e67204e465400000000000000006044820152606401610529565b74010000000000000000000000000000000000000000811615610730575050600081815260038301602052604090205473ffffffffffffffffffffffffffffffffffffffff166101b1565b60009150506101b1565b610250828260405160240161075092919061145f565b604080517fffffffffffffffffffffffffffffffffffffffffffffffffffffffffffffffe08184030181529190526020810180517bffffffffffffffffffffffffffffffffffffffffffffffffffffffff167f319af33300000000000000000000000000000000000000000000000000000000179052610c10565b600081815260018501602052604081205490819003610846576040517f08c379a000000000000000000000000000000000000000000000000000000000815260206004820152601860248201527f4552433732313a206e6f6e2d6578697374696e67204e465400000000000000006044820152606401610529565b8073ffffffffffffffffffffffffffffffffffffffff808216908516036108c9576040517f08c379a000000000000000000000000000000000000000000000000000000000815260206004820152601560248201527f4552433732313a2073656c662d617070726f76616c00000000000000000000006044820152606401610529565b6108d4868287610c31565b61093a576040517f08c379a000000000000000000000000000000000000000000000000000000000815260206004820152601b60248201527f4552433732313a206e6f6e2d617070726f7665642073656e64657200000000006044820152606401610529565b73ffffffffffffffffffffffffffffffffffffffff84166109a1577401000000000000000000000000000000000000000082161561099c576000838152600187016020526040902073ffffffffffffffffffffffffffffffffffffffff821690555b610a24565b7401000000000000000000000000000000000000000082178083146109d457600084815260018801602052604090208190555b506000838152600387016020526040902080547fffffffffffffffffffffffff00000000000000000000000000000000000000001673ffffffffffffffffffffffffffffffffffffffff86161790555b828473ffffffffffffffffffffffffffffffffffffffff168273ffffffffffffffffffffffffffffffffffffffff167f8c5be1e5ebec7d5bd14f71427d1e84f3dd0314c0f7b2291e5b200ac8c7c3b92560405160405180910390a4505050505050565b610aa68585858585604051806020016040528060008152506000610ca5565b5050505050565b610aa68585858585604051806020016040528060008152506001610ca5565b8273ffffffffffffffffffffffffffffffffffffffff168273ffffffffffffffffffffffffffffffffffffffff1603610b61576040517f08c379a000000000000000000000000000000000000000000000000000000000815260206004820152601560248201527f4552433732313a2073656c662d617070726f76616c00000000000000000000006044820152606401610529565b73ffffffffffffffffffffffffffffffffffffffff8381166000818152602087815260408083209487168084529482529182902080547fffffffffffffffffffffffffffffffffffffffffffffffffffffffffffffff001686151590811790915591519182527f17307eab39ab6107e8899845ad3d59bd9653f200f220920489ca2b5937696c31910160405180910390a350505050565b610c088686868686866001610ca5565b505050505050565b80516a636f6e736f6c652e6c6f67602083016000808483855afa5050505050565b60008173ffffffffffffffffffffffffffffffffffffffff168373ffffffffffffffffffffffffffffffffffffffff161480610c9d575073ffffffffffffffffffffffffffffffffffffffff8084166000908152602086815260408083209386168352929052205460ff165b949350505050565b73ffffffffffffffffffffffffffffffffffffffff8416610d22576040517f08c379a000000000000000000000000000000000000000000000000000000000815260206004820152601860248201527f4552433732313a207472616e7366657220746f207a65726f00000000000000006044820152606401610529565b6000610d2f888789610c31565b9050610d418888888888866000610ddb565b838573ffffffffffffffffffffffffffffffffffffffff168773ffffffffffffffffffffffffffffffffffffffff167fddf252ad1be2c89b69c2b068fc378daa952ba7f163c4a11628f55a4df523b3ef60405160405180910390a4818015610dbf575073ffffffffffffffffffffffffffffffffffffffff85163b15155b15610dd157610dd18787878787610f62565b5050505050505050565b600083815260018801602052604090205473ffffffffffffffffffffffffffffffffffffffff86811690821614610e6e576040517f08c379a000000000000000000000000000000000000000000000000000000000815260206004820152601560248201527f4552433732313a206e6f6e2d6f776e6564204e465400000000000000000000006044820152606401610529565b82610f275774010000000000000000000000000000000000000000811615801590610ec15750600084815260038901602052604090205473ffffffffffffffffffffffffffffffffffffffff8881169116145b610f27576040517f08c379a000000000000000000000000000000000000000000000000000000000815260206004820152601b60248201527f4552433732313a206e6f6e2d617070726f7665642073656e64657200000000006044820152606401610529565b6000848152600189016020526040902073ffffffffffffffffffffffffffffffffffffffff8616905581610dd157610dd18887876001611088565b6040517f150b7a02000000000000000000000000000000000000000000000000000000008082529073ffffffffffffffffffffffffffffffffffffffff85169063150b7a0290610fbc908990899088908890600401611497565b6020604051808303816000875af1158015610fdb573d6000803e3d6000fd5b505050506040513d601f19601f82011682018060405250810190610fff91906114e0565b7fffffffff000000000000000000000000000000000000000000000000000000001614610aa6576040517f08c379a000000000000000000000000000000000000000000000000000000000815260206004820152601860248201527f4552433732313a207472616e73666572207265667573656400000000000000006044820152606401610529565b8173ffffffffffffffffffffffffffffffffffffffff168373ffffffffffffffffffffffffffffffffffffffff16146103105773ffffffffffffffffffffffffffffffffffffffff83166000908152600285016020526040812080548392906110f29084906113ca565b909155505073ffffffffffffffffffffffffffffffffffffffff821660009081526002850160205260408120805483929061112e908490611522565b909155505050505050565b60006020828403121561114b57600080fd5b5035919050565b803573ffffffffffffffffffffffffffffffffffffffff8116811461117657600080fd5b919050565b6000806040838503121561118e57600080fd5b61119783611152565b946020939093013593505050565b6000806000606084860312156111ba57600080fd5b6111c384611152565b92506111d160208501611152565b9150604084013590509250925092565b6000602082840312156111f357600080fd5b6111fc82611152565b9392505050565b6000806040838503121561121657600080fd5b61121f83611152565b91506020830135801515811461123457600080fd5b809150509250929050565b7f4e487b7100000000000000000000000000000000000000000000000000000000600052604160045260246000fd5b6000806000806080858703121561128457600080fd5b61128d85611152565b935061129b60208601611152565b925060408501359150606085013567ffffffffffffffff808211156112bf57600080fd5b818701915087601f8301126112d357600080fd5b8135818111156112e5576112e561123f565b604051601f82017fffffffffffffffffffffffffffffffffffffffffffffffffffffffffffffffe0908116603f0116810190838211818310171561132b5761132b61123f565b816040528281528a602084870101111561134457600080fd5b82602086016020830137600060208483010152809550505050505092959194509250565b6000806040838503121561137b57600080fd5b61138483611152565b915061139260208401611152565b90509250929050565b7f4e487b7100000000000000000000000000000000000000000000000000000000600052601160045260246000fd5b6000828210156113dc576113dc61139b565b500390565b6000815180845260005b81811015611407576020818501810151868301820152016113eb565b81811115611419576000602083870101525b50601f017fffffffffffffffffffffffffffffffffffffffffffffffffffffffffffffffe0169290920160200192915050565b6020815260006111fc60208301846113e1565b60408152600061147260408301856113e1565b905073ffffffffffffffffffffffffffffffffffffffff831660208301529392505050565b600073ffffffffffffffffffffffffffffffffffffffff8087168352808616602084015250836040830152608060608301526114d660808301846113e1565b9695505050505050565b6000602082840312156114f257600080fd5b81517fffffffff00000000000000000000000000000000000000000000000000000000811681146111fc57600080fd5b600082198211156115355761153561139b565b50019056fea2646970667358221220c067d716dff0f5618887a0ddafa84c9670f5fd24ff066959a166f365ecd89fb864736f6c634300080d0033",
  "linkReferences": {},
  "deployedLinkReferences": {}
}