{
  "_format": "hh-sol-artifact-1",
  "contractName": "ERC721SimpleMock",
  "sourceName": "contracts/mocks/token/ERC721/ERC721SimpleMock.sol",
  "abi": [
    {
      "inputs": [
        {
          "internalType": "string",
          "name": "name_",
          "type": "string"
        },
        {
          "internalType": "string",
          "name": "symbol_",
          "type": "string"
        },
        {
          "internalType": "string",
          "name": "tokenURI_",
          "type": "string"
        }
      ],
      "stateMutability": "nonpayable",
      "type": "constructor"
    },
    {
      "anonymous": false,
      "inputs": [
        {
          "indexed": true,
          "internalType": "address",
          "name": "owner",
          "type": "address"
        },
        {
          "indexed": true,
          "internalType": "address",
          "name": "approved",
          "type": "address"
        },
        {
          "indexed": true,
          "internalType": "uint256",
          "name": "tokenId",
          "type": "uint256"
        }
      ],
      "name": "Approval",
      "type": "event"
    },
    {
      "anonymous": false,
      "inputs": [
        {
          "indexed": true,
          "internalType": "address",
          "name": "owner",
          "type": "address"
        },
        {
          "indexed": true,
          "internalType": "address",
          "name": "operator",
          "type": "address"
        },
        {
          "indexed": false,
          "internalType": "bool",
          "name": "approved",
          "type": "bool"
        }
      ],
      "name": "ApprovalForAll",
      "type": "event"
    },
    {
      "anonymous": false,
      "inputs": [
        {
          "indexed": true,
          "internalType": "address",
          "name": "from",
          "type": "address"
        },
        {
          "indexed": true,
          "internalType": "address",
          "name": "to",
          "type": "address"
        },
        {
          "indexed": true,
          "internalType": "uint256",
          "name": "tokenId",
          "type": "uint256"
        }
      ],
      "name": "Transfer",
      "type": "event"
    },
    {
      "inputs": [
        {
          "internalType": "address",
          "name": "to",
          "type": "address"
        },
        {
          "internalType": "uint256",
          "name": "tokenId",
          "type": "uint256"
        }
      ],
      "name": "approve",
      "outputs": [],
      "stateMutability": "nonpayable",
      "type": "function"
    },
    {
      "inputs": [
        {
          "internalType": "address",
          "name": "owner",
          "type": "address"
        }
      ],
      "name": "balanceOf",
      "outputs": [
        {
          "internalType": "uint256",
          "name": "",
          "type": "uint256"
        }
      ],
      "stateMutability": "view",
      "type": "function"
    },
    {
      "inputs": [
        {
          "internalType": "uint256",
          "name": "tokenId",
          "type": "uint256"
        }
      ],
      "name": "getApproved",
      "outputs": [
        {
          "internalType": "address",
          "name": "operator",
          "type": "address"
        }
      ],
      "stateMutability": "view",
      "type": "function"
    },
    {
      "inputs": [
        {
          "internalType": "address",
          "name": "owner",
          "type": "address"
        },
        {
          "internalType": "address",
          "name": "operator",
          "type": "address"
        }
      ],
      "name": "isApprovedForAll",
      "outputs": [
        {
          "internalType": "bool",
          "name": "",
          "type": "bool"
        }
      ],
      "stateMutability": "view",
      "type": "function"
    },
    {
      "inputs": [],
      "name": "name",
      "outputs": [
        {
          "internalType": "string",
          "name": "",
          "type": "string"
        }
      ],
      "stateMutability": "view",
      "type": "function"
    },
    {
      "inputs": [
        {
          "internalType": "uint256",
          "name": "tokenId",
          "type": "uint256"
        }
      ],
      "name": "ownerOf",
      "outputs": [
        {
          "internalType": "address",
          "name": "",
          "type": "address"
        }
      ],
      "stateMutability": "view",
      "type": "function"
    },
    {
      "inputs": [
        {
          "internalType": "address",
          "name": "from",
          "type": "address"
        },
        {
          "internalType": "address",
          "name": "to",
          "type": "address"
        },
        {
          "internalType": "uint256",
          "name": "tokenId",
          "type": "uint256"
        }
      ],
      "name": "safeTransferFrom",
      "outputs": [],
      "stateMutability": "nonpayable",
      "type": "function"
    },
    {
      "inputs": [
        {
          "internalType": "address",
          "name": "from",
          "type": "address"
        },
        {
          "internalType": "address",
          "name": "to",
          "type": "address"
        },
        {
          "internalType": "uint256",
          "name": "tokenId",
          "type": "uint256"
        },
        {
          "internalType": "bytes",
          "name": "_data",
          "type": "bytes"
        }
      ],
      "name": "safeTransferFrom",
      "outputs": [],
      "stateMutability": "nonpayable",
      "type": "function"
    },
    {
      "inputs": [
        {
          "internalType": "address",
          "name": "operator",
          "type": "address"
        },
        {
          "internalType": "bool",
          "name": "_approved",
          "type": "bool"
        }
      ],
      "name": "setApprovalForAll",
      "outputs": [],
      "stateMutability": "nonpayable",
      "type": "function"
    },
    {
      "inputs": [],
      "name": "symbol",
      "outputs": [
        {
          "internalType": "string",
          "name": "",
          "type": "string"
        }
      ],
      "stateMutability": "view",
      "type": "function"
    },
    {
      "inputs": [
        {
          "internalType": "uint256",
          "name": "tokenId",
          "type": "uint256"
        }
      ],
      "name": "tokenURI",
      "outputs": [
        {
          "internalType": "string",
          "name": "",
          "type": "string"
        }
      ],
      "stateMutability": "view",
      "type": "function"
    },
    {
      "inputs": [
        {
          "internalType": "address",
          "name": "from",
          "type": "address"
        },
        {
          "internalType": "address",
          "name": "to",
          "type": "address"
        },
        {
          "internalType": "uint256",
          "name": "tokenId",
          "type": "uint256"
        }
      ],
      "name": "transferFrom",
      "outputs": [],
      "stateMutability": "nonpayable",
      "type": "function"
    }
  ],
  "bytecode": "0x60806040523480156200001157600080fd5b50604051620020863803806200208683398101604081905262000034916200057d565b8282826200006162000050620000cb60201b620004251760201c565b6200010160201b620004531760201c565b6200009183836200007c6200018360201b620004c01760201c565b620001b360201b620004ee179092919060201c565b620000bf81620000ab6200023960201b620005731760201c565b6200026960201b620005a11790919060201c565b50505050505062000670565b600080620000fb60017fddf3ee18ae6d688373c219468f8be446e7ae82215f4779d821c7ea5e8c13c0c16200060e565b92915050565b620001486200013260017ffddcdbf8ca7eb362a678daf3643ce3cf98ebf69ac314d25d376d5aeabd2f53326200060e565b60001b6001620002d660201b620006101760201c565b620001806380ac58cd60e01b60016200016b6200034d60201b620006851760201c565b6200037d60201b620006b3179092919060201c565b50565b600080620000fb60017f9c4269c0f9f430d98876ffe9767fbf3f3232ea91a549beb549e5329532520eb36200060e565b620001e46200013260017fa057eeb6560fae2987973d3bf40b89e6da66dd0b6aadac05dc6b5b0d7a8d45576200060e565b8151620001f890849060208501906200040a565b5080516200021090600185019060208401906200040a565b5062000234635b5e139f60e01b60016200016b6200034d60201b620006851760201c565b505050565b600080620000fb60017f5f5773833f4966721eb3773ed87c7208ea74d78f0d94de1d8074345cac67333f6200060e565b6200029a6200013260017fdf2ee7965c9504dc84db8f7759fc283282800c5a2fa3704c9f07f446b3b40a3f6200060e565b8051620002ae90839060208401906200040a565b50620002d2635b5e139f60e01b60016200016b6200034d60201b620006851760201c565b5050565b6000620002ee836200040760201b620007a31760201c565b905081816000015410620003495760405162461bcd60e51b815260206004820152601860248201527f53746f726167653a2076657273696f6e2072656163686564000000000000000060448201526064015b60405180910390fd5b5550565b600080620000fb60017f7180ffa89c91cf90d6c56dacabfc69bc5e36f3099d7eed2f5cc12c5dba016fe06200060e565b6001600160e01b03198083169003620003d95760405162461bcd60e51b815260206004820152601f60248201527f496e74657266616365446574656374696f6e3a2077726f6e672076616c756500604482015260640162000340565b6001600160e01b03199190911660009081526020929092526040909120805460ff1916911515919091179055565b90565b828054620004189062000634565b90600052602060002090601f0160209004810192826200043c576000855562000487565b82601f106200045757805160ff191683800117855562000487565b8280016001018555821562000487579182015b82811115620004875782518255916020019190600101906200046a565b506200049592915062000499565b5090565b5b808211156200049557600081556001016200049a565b634e487b7160e01b600052604160045260246000fd5b600082601f830112620004d857600080fd5b81516001600160401b0380821115620004f557620004f5620004b0565b604051601f8301601f19908116603f01168101908282118183101715620005205762000520620004b0565b816040528381526020925086838588010111156200053d57600080fd5b600091505b8382101562000561578582018301518183018401529082019062000542565b83821115620005735760008385830101525b9695505050505050565b6000806000606084860312156200059357600080fd5b83516001600160401b0380821115620005ab57600080fd5b620005b987838801620004c6565b94506020860151915080821115620005d057600080fd5b620005de87838801620004c6565b93506040860151915080821115620005f557600080fd5b506200060486828701620004c6565b9150509250925092565b6000828210156200062f57634e487b7160e01b600052601160045260246000fd5b500390565b600181811c908216806200064957607f821691505b6020821081036200066a57634e487b7160e01b600052602260045260246000fd5b50919050565b611a0680620006806000396000f3fe608060405234801561001057600080fd5b50600436106100d45760003560e01c806370a0823111610081578063b88d4fde1161005b578063b88d4fde146101b9578063c87b56dd146101cc578063e985e9c5146101df57600080fd5b806370a082311461017d57806395d89b411461019e578063a22cb465146101a657600080fd5b806323b872dd116100b257806323b872dd1461014457806342842e0e146101575780636352211e1461016a57600080fd5b806306fdde03146100d9578063081812fc146100f7578063095ea7b31461012f575b600080fd5b6100e1610202565b6040516100ee9190611433565b60405180910390f35b61010a61010536600461144d565b61029a565b60405173ffffffffffffffffffffffffffffffffffffffff90911681526020016100ee565b61014261013d36600461148f565b6102b4565b005b6101426101523660046114b9565b6102ce565b6101426101653660046114b9565b6102eb565b61010a61017836600461144d565b610303565b61019061018b3660046114f5565b610321565b6040519081526020016100ee565b6100e161035a565b6101426101b4366004611510565b610372565b6101426101c736600461157b565b610388565b6100e16101da36600461144d565b6103a8565b6101f26101ed366004611675565b6103e2565b60405190151581526020016100ee565b606061020c6104c0565b8054610217906116a8565b80601f0160208091040260200160405190810160405280929190818152602001828054610243906116a8565b80156102905780601f1061026557610100808354040283529160200191610290565b820191906000526020600020905b81548152906001019060200180831161027357829003601f168201915b5050505050905090565b60006102ae826102a8610425565b906107a6565b92915050565b6102ca3383836102c2610425565b929190610889565b5050565b6102e6338484846102dd610425565b93929190610b45565b505050565b6102e6338484846102fa610425565b93929190610b6b565b600061030d610425565b600092835260010160205250604090205490565b600061032b610425565b73ffffffffffffffffffffffffffffffffffffffff909216600090815260029290920160205250604090205490565b60606103646104c0565b6001018054610217906116a8565b6102ca338383610380610425565b929190610b8a565b6103a23385858585610398610425565b9493929190610cb6565b50505050565b60606103b2610573565b6103bb83610cce565b6040516020016103cc929190611717565b6040516020818303038152906040529050919050565b60006103ec610425565b73ffffffffffffffffffffffffffffffffffffffff93841660009081526020918252604080822094909516815292905250205460ff1690565b6000806102ae60017fddf3ee18ae6d688373c219468f8be446e7ae82215f4779d821c7ea5e8c13c0c1611823565b61048861048160017ffddcdbf8ca7eb362a678daf3643ce3cf98ebf69ac314d25d376d5aeabd2f5332611823565b6001610610565b6104bd7f80ac58cd0000000000000000000000000000000000000000000000000000000060016104b6610685565b91906106b3565b50565b6000806102ae60017f9c4269c0f9f430d98876ffe9767fbf3f3232ea91a549beb549e5329532520eb3611823565b61051c61048160017fa057eeb6560fae2987973d3bf40b89e6da66dd0b6aadac05dc6b5b0d7a8d4557611823565b815161052e9084906020850190611324565b5080516105449060018501906020840190611324565b506102e67f5b5e139f0000000000000000000000000000000000000000000000000000000060016104b6610685565b6000806102ae60017f5f5773833f4966721eb3773ed87c7208ea74d78f0d94de1d8074345cac67333f611823565b6105cf61048160017fdf2ee7965c9504dc84db8f7759fc283282800c5a2fa3704c9f07f446b3b40a3f611823565b80516105e19083906020840190611324565b506102ca7f5b5e139f0000000000000000000000000000000000000000000000000000000060016104b6610685565b815482908211610681576040517f08c379a000000000000000000000000000000000000000000000000000000000815260206004820152601860248201527f53746f726167653a2076657273696f6e2072656163686564000000000000000060448201526064015b60405180910390fd5b5550565b6000806102ae60017f7180ffa89c91cf90d6c56dacabfc69bc5e36f3099d7eed2f5cc12c5dba016fe0611823565b7fffffffff00000000000000000000000000000000000000000000000000000000808316900361073f576040517f08c379a000000000000000000000000000000000000000000000000000000000815260206004820152601f60248201527f496e74657266616365446574656374696f6e3a2077726f6e672076616c7565006044820152606401610678565b7fffffffff00000000000000000000000000000000000000000000000000000000919091166000908152602092909252604090912080547fffffffffffffffffffffffffffffffffffffffffffffffffffffffffffffff0016911515919091179055565b90565b600081815260018301602052604081205473ffffffffffffffffffffffffffffffffffffffff8116610834576040517f08c379a000000000000000000000000000000000000000000000000000000000815260206004820152601860248201527f4552433732313a206e6f6e2d6578697374696e67204e465400000000000000006044820152606401610678565b7401000000000000000000000000000000000000000081161561087f575050600081815260038301602052604090205473ffffffffffffffffffffffffffffffffffffffff166102ae565b60009150506102ae565b600081815260018501602052604081205490819003610904576040517f08c379a000000000000000000000000000000000000000000000000000000000815260206004820152601860248201527f4552433732313a206e6f6e2d6578697374696e67204e465400000000000000006044820152606401610678565b8073ffffffffffffffffffffffffffffffffffffffff80821690851603610987576040517f08c379a000000000000000000000000000000000000000000000000000000000815260206004820152601560248201527f4552433732313a2073656c662d617070726f76616c00000000000000000000006044820152606401610678565b610992868287610e1c565b6109f8576040517f08c379a000000000000000000000000000000000000000000000000000000000815260206004820152601b60248201527f4552433732313a206e6f6e2d617070726f7665642073656e64657200000000006044820152606401610678565b73ffffffffffffffffffffffffffffffffffffffff8416610a5f5774010000000000000000000000000000000000000000821615610a5a576000838152600187016020526040902073ffffffffffffffffffffffffffffffffffffffff821690555b610ae2565b740100000000000000000000000000000000000000008217808314610a9257600084815260018801602052604090208190555b506000838152600387016020526040902080547fffffffffffffffffffffffff00000000000000000000000000000000000000001673ffffffffffffffffffffffffffffffffffffffff86161790555b828473ffffffffffffffffffffffffffffffffffffffff168273ffffffffffffffffffffffffffffffffffffffff167f8c5be1e5ebec7d5bd14f71427d1e84f3dd0314c0f7b2291e5b200ac8c7c3b92560405160405180910390a4505050505050565b610b648585858585604051806020016040528060008152506000610e90565b5050505050565b610b648585858585604051806020016040528060008152506001610e90565b8273ffffffffffffffffffffffffffffffffffffffff168273ffffffffffffffffffffffffffffffffffffffff1603610c1f576040517f08c379a000000000000000000000000000000000000000000000000000000000815260206004820152601560248201527f4552433732313a2073656c662d617070726f76616c00000000000000000000006044820152606401610678565b73ffffffffffffffffffffffffffffffffffffffff8381166000818152602087815260408083209487168084529482529182902080547fffffffffffffffffffffffffffffffffffffffffffffffffffffffffffffff001686151590811790915591519182527f17307eab39ab6107e8899845ad3d59bd9653f200f220920489ca2b5937696c31910160405180910390a350505050565b610cc68686868686866001610e90565b505050505050565b606081600003610d1157505060408051808201909152600181527f3000000000000000000000000000000000000000000000000000000000000000602082015290565b8160005b8115610d3b5780610d258161183a565b9150610d349050600a836118a1565b9150610d15565b60008167ffffffffffffffff811115610d5657610d5661154c565b6040519080825280601f01601f191660200182016040528015610d80576020820181803683370190505b5090506000610d90600184611823565b90508593505b8315610e1357610da7600a856118b5565b610db29060306118c9565b60f81b8282610dc0816118e1565b935081518110610dd257610dd2611916565b60200101907effffffffffffffffffffffffffffffffffffffffffffffffffffffffffffff1916908160001a905350610e0c600a856118a1565b9350610d96565b50949350505050565b60008173ffffffffffffffffffffffffffffffffffffffff168373ffffffffffffffffffffffffffffffffffffffff161480610e88575073ffffffffffffffffffffffffffffffffffffffff8084166000908152602086815260408083209386168352929052205460ff165b949350505050565b73ffffffffffffffffffffffffffffffffffffffff8416610f0d576040517f08c379a000000000000000000000000000000000000000000000000000000000815260206004820152601860248201527f4552433732313a207472616e7366657220746f207a65726f00000000000000006044820152606401610678565b6000610f1a888789610e1c565b9050610f2c8888888888866000610fc6565b838573ffffffffffffffffffffffffffffffffffffffff168773ffffffffffffffffffffffffffffffffffffffff167fddf252ad1be2c89b69c2b068fc378daa952ba7f163c4a11628f55a4df523b3ef60405160405180910390a4818015610faa575073ffffffffffffffffffffffffffffffffffffffff85163b15155b15610fbc57610fbc878787878761114d565b5050505050505050565b600083815260018801602052604090205473ffffffffffffffffffffffffffffffffffffffff86811690821614611059576040517f08c379a000000000000000000000000000000000000000000000000000000000815260206004820152601560248201527f4552433732313a206e6f6e2d6f776e6564204e465400000000000000000000006044820152606401610678565b8261111257740100000000000000000000000000000000000000008116158015906110ac5750600084815260038901602052604090205473ffffffffffffffffffffffffffffffffffffffff8881169116145b611112576040517f08c379a000000000000000000000000000000000000000000000000000000000815260206004820152601b60248201527f4552433732313a206e6f6e2d617070726f7665642073656e64657200000000006044820152606401610678565b6000848152600189016020526040902073ffffffffffffffffffffffffffffffffffffffff8616905581610fbc57610fbc8887876001611273565b6040517f150b7a02000000000000000000000000000000000000000000000000000000008082529073ffffffffffffffffffffffffffffffffffffffff85169063150b7a02906111a7908990899088908890600401611945565b6020604051808303816000875af11580156111c6573d6000803e3d6000fd5b505050506040513d601f19601f820116820180604052508101906111ea919061198e565b7fffffffff000000000000000000000000000000000000000000000000000000001614610b64576040517f08c379a000000000000000000000000000000000000000000000000000000000815260206004820152601860248201527f4552433732313a207472616e73666572207265667573656400000000000000006044820152606401610678565b8173ffffffffffffffffffffffffffffffffffffffff168373ffffffffffffffffffffffffffffffffffffffff16146103a25773ffffffffffffffffffffffffffffffffffffffff83166000908152600285016020526040812080548392906112dd908490611823565b909155505073ffffffffffffffffffffffffffffffffffffffff82166000908152600285016020526040812080548392906113199084906118c9565b909155505050505050565b828054611330906116a8565b90600052602060002090601f0160209004810192826113525760008555611398565b82601f1061136b57805160ff1916838001178555611398565b82800160010185558215611398579182015b8281111561139857825182559160200191906001019061137d565b506113a49291506113a8565b5090565b5b808211156113a457600081556001016113a9565b60005b838110156113d85781810151838201526020016113c0565b838111156103a25750506000910152565b600081518084526114018160208601602086016113bd565b601f017fffffffffffffffffffffffffffffffffffffffffffffffffffffffffffffffe0169290920160200192915050565b60208152600061144660208301846113e9565b9392505050565b60006020828403121561145f57600080fd5b5035919050565b803573ffffffffffffffffffffffffffffffffffffffff8116811461148a57600080fd5b919050565b600080604083850312156114a257600080fd5b6114ab83611466565b946020939093013593505050565b6000806000606084860312156114ce57600080fd5b6114d784611466565b92506114e560208501611466565b9150604084013590509250925092565b60006020828403121561150757600080fd5b61144682611466565b6000806040838503121561152357600080fd5b61152c83611466565b91506020830135801515811461154157600080fd5b809150509250929050565b7f4e487b7100000000000000000000000000000000000000000000000000000000600052604160045260246000fd5b6000806000806080858703121561159157600080fd5b61159a85611466565b93506115a860208601611466565b925060408501359150606085013567ffffffffffffffff808211156115cc57600080fd5b818701915087601f8301126115e057600080fd5b8135818111156115f2576115f261154c565b604051601f82017fffffffffffffffffffffffffffffffffffffffffffffffffffffffffffffffe0908116603f011681019083821181831017156116385761163861154c565b816040528281528a602084870101111561165157600080fd5b82602086016020830137600060208483010152809550505050505092959194509250565b6000806040838503121561168857600080fd5b61169183611466565b915061169f60208401611466565b90509250929050565b600181811c908216806116bc57607f821691505b6020821081036116f5577f4e487b7100000000000000000000000000000000000000000000000000000000600052602260045260246000fd5b50919050565b6000815161170d8185602086016113bd565b9290920192915050565b600080845481600182811c91508083168061173357607f831692505b6020808410820361176b577f4e487b710000000000000000000000000000000000000000000000000000000086526022600452602486fd5b81801561177f57600181146117ae576117db565b7fffffffffffffffffffffffffffffffffffffffffffffffffffffffffffffff008616895284890196506117db565b60008b81526020902060005b868110156117d35781548b8201529085019083016117ba565b505084890196505b5050505050506117eb81856116fb565b95945050505050565b7f4e487b7100000000000000000000000000000000000000000000000000000000600052601160045260246000fd5b600082821015611835576118356117f4565b500390565b60007fffffffffffffffffffffffffffffffffffffffffffffffffffffffffffffffff820361186b5761186b6117f4565b5060010190565b7f4e487b7100000000000000000000000000000000000000000000000000000000600052601260045260246000fd5b6000826118b0576118b0611872565b500490565b6000826118c4576118c4611872565b500690565b600082198211156118dc576118dc6117f4565b500190565b6000816118f0576118f06117f4565b507fffffffffffffffffffffffffffffffffffffffffffffffffffffffffffffffff0190565b7f4e487b7100000000000000000000000000000000000000000000000000000000600052603260045260246000fd5b600073ffffffffffffffffffffffffffffffffffffffff80871683528086166020840152508360408301526080606083015261198460808301846113e9565b9695505050505050565b6000602082840312156119a057600080fd5b81517fffffffff000000000000000000000000000000000000000000000000000000008116811461144657600080fdfea2646970667358221220f8315cf0e651fcdc379bcff0f911365dc2af628a2c4c9e47657981025392605264736f6c634300080d0033",
  "linkReferences": {},
  "deployedLinkReferences": {}
}