{
  "_format": "hh-sol-artifact-1",
  "contractName": "ERC721SimpleMock",
  "sourceName": "contracts/mocks/token/ERC721/ERC721SimpleMock.sol",
  "abi": [
    {
      "inputs": [
        {
          "internalType": "contract IForwarderRegistry",
          "name": "forwarderRegistry",
          "type": "address"
        }
      ],
      "stateMutability": "nonpayable",
      "type": "constructor"
    },
    {
      "anonymous": false,
      "inputs": [
        {
          "indexed": true,
          "internalType": "address",
          "name": "owner",
          "type": "address"
        },
        {
          "indexed": true,
          "internalType": "address",
          "name": "approved",
          "type": "address"
        },
        {
          "indexed": true,
          "internalType": "uint256",
          "name": "tokenId",
          "type": "uint256"
        }
      ],
      "name": "Approval",
      "type": "event"
    },
    {
      "anonymous": false,
      "inputs": [
        {
          "indexed": true,
          "internalType": "address",
          "name": "owner",
          "type": "address"
        },
        {
          "indexed": true,
          "internalType": "address",
          "name": "operator",
          "type": "address"
        },
        {
          "indexed": false,
          "internalType": "bool",
          "name": "approved",
          "type": "bool"
        }
      ],
      "name": "ApprovalForAll",
      "type": "event"
    },
    {
      "anonymous": false,
      "inputs": [
        {
          "indexed": true,
          "internalType": "address",
          "name": "previousOwner",
          "type": "address"
        },
        {
          "indexed": true,
          "internalType": "address",
          "name": "newOwner",
          "type": "address"
        }
      ],
      "name": "OwnershipTransferred",
      "type": "event"
    },
    {
      "anonymous": false,
      "inputs": [
        {
          "indexed": false,
          "internalType": "bytes32",
          "name": "role",
          "type": "bytes32"
        },
        {
          "indexed": false,
          "internalType": "address",
          "name": "account",
          "type": "address"
        },
        {
          "indexed": false,
          "internalType": "address",
          "name": "operator",
          "type": "address"
        }
      ],
      "name": "RoleGranted",
      "type": "event"
    },
    {
      "anonymous": false,
      "inputs": [
        {
          "indexed": false,
          "internalType": "bytes32",
          "name": "role",
          "type": "bytes32"
        },
        {
          "indexed": false,
          "internalType": "address",
          "name": "account",
          "type": "address"
        },
        {
          "indexed": false,
          "internalType": "address",
          "name": "operator",
          "type": "address"
        }
      ],
      "name": "RoleRevoked",
      "type": "event"
    },
    {
      "anonymous": false,
      "inputs": [
        {
          "indexed": true,
          "internalType": "address",
          "name": "from",
          "type": "address"
        },
        {
          "indexed": true,
          "internalType": "address",
          "name": "to",
          "type": "address"
        },
        {
          "indexed": true,
          "internalType": "uint256",
          "name": "tokenId",
          "type": "uint256"
        }
      ],
      "name": "Transfer",
      "type": "event"
    },
    {
      "inputs": [],
      "name": "MINTER_ROLE",
      "outputs": [
        {
          "internalType": "bytes32",
          "name": "",
          "type": "bytes32"
        }
      ],
      "stateMutability": "view",
      "type": "function"
    },
    {
      "inputs": [],
      "name": "__msgData",
      "outputs": [
        {
          "internalType": "bytes",
          "name": "",
          "type": "bytes"
        }
      ],
      "stateMutability": "view",
      "type": "function"
    },
    {
      "inputs": [
        {
          "internalType": "address",
          "name": "to",
          "type": "address"
        },
        {
          "internalType": "uint256",
          "name": "tokenId",
          "type": "uint256"
        }
      ],
      "name": "approve",
      "outputs": [],
      "stateMutability": "nonpayable",
      "type": "function"
    },
    {
      "inputs": [
        {
          "internalType": "address",
          "name": "owner",
          "type": "address"
        }
      ],
      "name": "balanceOf",
      "outputs": [
        {
          "internalType": "uint256",
          "name": "",
          "type": "uint256"
        }
      ],
      "stateMutability": "view",
      "type": "function"
    },
    {
      "inputs": [
        {
          "internalType": "address",
          "name": "to",
          "type": "address"
        },
        {
          "internalType": "uint256[]",
          "name": "tokenIds",
          "type": "uint256[]"
        }
      ],
      "name": "batchMint",
      "outputs": [],
      "stateMutability": "nonpayable",
      "type": "function"
    },
    {
      "inputs": [
        {
          "internalType": "uint256",
          "name": "tokenId",
          "type": "uint256"
        }
      ],
      "name": "getApproved",
      "outputs": [
        {
          "internalType": "address",
          "name": "operator",
          "type": "address"
        }
      ],
      "stateMutability": "view",
      "type": "function"
    },
    {
      "inputs": [
        {
          "internalType": "bytes32",
          "name": "role",
          "type": "bytes32"
        },
        {
          "internalType": "address",
          "name": "account",
          "type": "address"
        }
      ],
      "name": "grantRole",
      "outputs": [],
      "stateMutability": "nonpayable",
      "type": "function"
    },
    {
      "inputs": [
        {
          "internalType": "bytes32",
          "name": "role",
          "type": "bytes32"
        },
        {
          "internalType": "address",
          "name": "account",
          "type": "address"
        }
      ],
      "name": "hasRole",
      "outputs": [
        {
          "internalType": "bool",
          "name": "",
          "type": "bool"
        }
      ],
      "stateMutability": "view",
      "type": "function"
    },
    {
      "inputs": [
        {
          "internalType": "address",
          "name": "owner",
          "type": "address"
        },
        {
          "internalType": "address",
          "name": "operator",
          "type": "address"
        }
      ],
      "name": "isApprovedForAll",
      "outputs": [
        {
          "internalType": "bool",
          "name": "",
          "type": "bool"
        }
      ],
      "stateMutability": "view",
      "type": "function"
    },
    {
      "inputs": [
        {
          "internalType": "address",
          "name": "to",
          "type": "address"
        },
        {
          "internalType": "uint256",
          "name": "tokenId",
          "type": "uint256"
        }
      ],
      "name": "mint",
      "outputs": [],
      "stateMutability": "nonpayable",
      "type": "function"
    },
    {
      "inputs": [],
      "name": "owner",
      "outputs": [
        {
          "internalType": "address",
          "name": "",
          "type": "address"
        }
      ],
      "stateMutability": "view",
      "type": "function"
    },
    {
      "inputs": [
        {
          "internalType": "uint256",
          "name": "tokenId",
          "type": "uint256"
        }
      ],
      "name": "ownerOf",
      "outputs": [
        {
          "internalType": "address",
          "name": "",
          "type": "address"
        }
      ],
      "stateMutability": "view",
      "type": "function"
    },
    {
      "inputs": [
        {
          "internalType": "bytes32",
          "name": "role",
          "type": "bytes32"
        }
      ],
      "name": "renounceRole",
      "outputs": [],
      "stateMutability": "nonpayable",
      "type": "function"
    },
    {
      "inputs": [
        {
          "internalType": "bytes32",
          "name": "role",
          "type": "bytes32"
        },
        {
          "internalType": "address",
          "name": "account",
          "type": "address"
        }
      ],
      "name": "revokeRole",
      "outputs": [],
      "stateMutability": "nonpayable",
      "type": "function"
    },
    {
      "inputs": [
        {
          "internalType": "address",
          "name": "to",
          "type": "address"
        },
        {
          "internalType": "uint256",
          "name": "tokenId",
          "type": "uint256"
        },
        {
          "internalType": "bytes",
          "name": "data",
          "type": "bytes"
        }
      ],
      "name": "safeMint",
      "outputs": [],
      "stateMutability": "nonpayable",
      "type": "function"
    },
    {
      "inputs": [
        {
          "internalType": "address",
          "name": "from",
          "type": "address"
        },
        {
          "internalType": "address",
          "name": "to",
          "type": "address"
        },
        {
          "internalType": "uint256",
          "name": "tokenId",
          "type": "uint256"
        }
      ],
      "name": "safeTransferFrom",
      "outputs": [],
      "stateMutability": "nonpayable",
      "type": "function"
    },
    {
      "inputs": [
        {
          "internalType": "address",
          "name": "from",
          "type": "address"
        },
        {
          "internalType": "address",
          "name": "to",
          "type": "address"
        },
        {
          "internalType": "uint256",
          "name": "tokenId",
          "type": "uint256"
        },
        {
          "internalType": "bytes",
          "name": "_data",
          "type": "bytes"
        }
      ],
      "name": "safeTransferFrom",
      "outputs": [],
      "stateMutability": "nonpayable",
      "type": "function"
    },
    {
      "inputs": [
        {
          "internalType": "address",
          "name": "operator",
          "type": "address"
        },
        {
          "internalType": "bool",
          "name": "approved",
          "type": "bool"
        }
      ],
      "name": "setApprovalForAll",
      "outputs": [],
      "stateMutability": "nonpayable",
      "type": "function"
    },
    {
      "inputs": [
        {
          "internalType": "bytes4",
          "name": "interfaceId",
          "type": "bytes4"
        }
      ],
      "name": "supportsInterface",
      "outputs": [
        {
          "internalType": "bool",
          "name": "",
          "type": "bool"
        }
      ],
      "stateMutability": "view",
      "type": "function"
    },
    {
      "inputs": [
        {
          "internalType": "address",
          "name": "from",
          "type": "address"
        },
        {
          "internalType": "address",
          "name": "to",
          "type": "address"
        },
        {
          "internalType": "uint256",
          "name": "tokenId",
          "type": "uint256"
        }
      ],
      "name": "transferFrom",
      "outputs": [],
      "stateMutability": "nonpayable",
      "type": "function"
    },
    {
      "inputs": [
        {
          "internalType": "address",
          "name": "newOwner",
          "type": "address"
        }
      ],
      "name": "transferOwnership",
      "outputs": [],
      "stateMutability": "nonpayable",
      "type": "function"
    }
  ],
  "bytecode": "0x60a06040523480156200001157600080fd5b5060405162002be638038062002be683398101604081905262000034916200025b565b80336200004b620000c560201b620007271760201c565b620000798162000065620000ea60201b6200075e1760201c565b6200012060201b6200078c1790919060201c565b50620000b2638e773e1360e01b60016200009d6200019e60201b6200083e1760201c565b620001ce60201b6200086c179092919060201c565b6001600160a01b031660805250620002b3565b620000e86380ac58cd60e01b60016200009d6200019e60201b6200083e1760201c565b565b6000806200011a60017fc9ed16f33ab3a66c84bfd83099ccb2a8845871e2e1c1928f63797152f0fd54cd6200028d565b92915050565b6001600160a01b03811615620001775781546001600160a01b0319166001600160a01b03821690811783556040516000907f8be0079c531659141344cd1fd0a4f28419497f9722a3daafe3b4186f6b6457e0908290a35b6200019a6307f5828d60e41b60016200009d6200019e60201b6200083e1760201c565b5050565b6000806200011a60017fca9d3e17f264b0f3984e2634e94adb37fa3e6a8103f06aeae6fa59e21c769f5e6200028d565b6001600160e01b031980831690036200022d5760405162461bcd60e51b815260206004820152601f60248201527f496e74657266616365446574656374696f6e3a2077726f6e672076616c756500604482015260640160405180910390fd5b6001600160e01b03199190911660009081526020929092526040909120805460ff1916911515919091179055565b6000602082840312156200026e57600080fd5b81516001600160a01b03811681146200028657600080fd5b9392505050565b600082821015620002ae57634e487b7160e01b600052601160045260246000fd5b500390565b608051612902620002e460003960008181611817015281816118b701528181611af50152611b5f01526129026000f3fe608060405234801561001057600080fd5b50600436106101775760003560e01c806370a08231116100d8578063a22cb4651161008c578063d547741f11610066578063d547741f14610328578063e985e9c51461033b578063f2fde38b1461034e57600080fd5b8063a22cb465146102db578063b88d4fde146102ee578063d53913931461030157600080fd5b80638bb9c5bf116100bd5780638bb9c5bf146102ad5780638da5cb5b146102c057806391d14854146102c857600080fd5b806370a08231146102795780638832e6e31461029a57600080fd5b806331e66e1e1161012f57806342842e0e1161011457806342842e0e146102405780634684d7e9146102535780636352211e1461026657600080fd5b806331e66e1e1461021757806340c10f191461022d57600080fd5b8063095ea7b311610160578063095ea7b3146101dc57806323b872dd146101f15780632f2ff15d1461020457600080fd5b806301ffc9a71461017c578063081812fc146101a4575b600080fd5b61018f61018a366004612232565b610361565b60405190151581526020015b60405180910390f35b6101b76101b236600461224f565b61037b565b60405173ffffffffffffffffffffffffffffffffffffffff909116815260200161019b565b6101ef6101ea366004612291565b61038f565b005b6101ef6101ff3660046122bb565b6103b0565b6101ef6102123660046122f7565b6103d4565b61021f610408565b60405161019b929190612323565b6101ef61023b366004612291565b61041b565b6101ef61024e3660046122bb565b610487565b6101ef610261366004612370565b6104a6565b6101b761027436600461224f565b61051a565b61028c6102873660046123f6565b61052e565b60405190815260200161019b565b6101ef6102a8366004612411565b610542565b6101ef6102bb36600461224f565b6105c4565b6101b76105e2565b61018f6102d63660046122f7565b61060e565b6101ef6102e93660046124a6565b610659565b6101ef6102fc36600461250c565b610676565b61028c7f6d696e746572000000000000000000000000000000000000000000000000000081565b6101ef6103363660046122f7565b610697565b61018f610349366004612606565b6106c5565b6101ef61035c3660046123f6565b61070c565b60006103758261036f61083e565b90610961565b92915050565b600061037582610389610a1f565b90610a4d565b6103ac61039a610b30565b83836103a4610a1f565b929190610b3a565b5050565b6103cf6103bb610b30565b8484846103c6610a1f565b93929190610df6565b505050565b60006103de610b30565b90506103f2816103ec61075e565b90610e1c565b6103cf838383610400610e9f565b929190610ecd565b366000610413610fa3565b915091509091565b6104567f6d696e7465720000000000000000000000000000000000000000000000000000610447610b30565b61044f610e9f565b9190610fae565b6103ac610461610b30565b838360405180602001604052806000815250600061047d610a1f565b949392919061105a565b6103cf610492610b30565b84848461049d610a1f565b93929190611167565b6104d27f6d696e7465720000000000000000000000000000000000000000000000000000610447610b30565b6103cf838383808060200260200160405190810160405280939291908181526020018383602002808284376000920191909152506105139250610a1f915050565b9190611186565b600061037582610528610a1f565b906112cb565b60006103758261053c610a1f565b90611359565b61056e7f6d696e7465720000000000000000000000000000000000000000000000000000610447610b30565b6105be610579610b30565b858585858080601f0160208091040260200160405190810160405280939291908181526020018383808284376000920191909152506001925061047d9150610a1f9050565b50505050565b6105df6105cf610b30565b826105d8610e9f565b9190611405565b50565b60006106096105ef61075e565b5473ffffffffffffffffffffffffffffffffffffffff1690565b905090565b6000610652838361061d610e9f565b60009283526020908152604080842073ffffffffffffffffffffffffffffffffffffffff909316845291905290205460ff1690565b9392505050565b6103ac610664610b30565b838361066e610a1f565b9291906114a9565b6105be610681610b30565b8585858561068d610a1f565b94939291906115d5565b60006106a1610b30565b90506106af816103ec61075e565b6103cf8383836106bd610e9f565b9291906115e5565b600061065283836106d4610a1f565b73ffffffffffffffffffffffffffffffffffffffff928316600090815260209182526040808220939094168152919052205460ff1690565b6105df610717610b30565b8261072061075e565b91906116af565b61075c7f80ac58cd00000000000000000000000000000000000000000000000000000000600161075561083e565b919061086c565b565b60008061037560017fc9ed16f33ab3a66c84bfd83099ccb2a8845871e2e1c1928f63797152f0fd54cd61265f565b73ffffffffffffffffffffffffffffffffffffffff8116156108145781547fffffffffffffffffffffffff00000000000000000000000000000000000000001673ffffffffffffffffffffffffffffffffffffffff821690811783556040516000907f8be0079c531659141344cd1fd0a4f28419497f9722a3daafe3b4186f6b6457e0908290a35b6103ac7f7f5828d00000000000000000000000000000000000000000000000000000000060016107555b60008061037560017fca9d3e17f264b0f3984e2634e94adb37fa3e6a8103f06aeae6fa59e21c769f5e61265f565b7fffffffff0000000000000000000000000000000000000000000000000000000080831690036108fd576040517f08c379a000000000000000000000000000000000000000000000000000000000815260206004820152601f60248201527f496e74657266616365446574656374696f6e3a2077726f6e672076616c75650060448201526064015b60405180910390fd5b7fffffffff00000000000000000000000000000000000000000000000000000000919091166000908152602092909252604090912080547fffffffffffffffffffffffffffffffffffffffffffffffffffffffffffffff0016911515919091179055565b60007fffffffff00000000000000000000000000000000000000000000000000000000808316900361099557506000610375565b7ffe003659000000000000000000000000000000000000000000000000000000007fffffffff000000000000000000000000000000000000000000000000000000008316016109e657506001610375565b507fffffffff00000000000000000000000000000000000000000000000000000000166000908152602091909152604090205460ff1690565b60008061037560017fddf3ee18ae6d688373c219468f8be446e7ae82215f4779d821c7ea5e8c13c0c161265f565b600081815260018301602052604081205473ffffffffffffffffffffffffffffffffffffffff8116610adb576040517f08c379a000000000000000000000000000000000000000000000000000000000815260206004820152601860248201527f4552433732313a206e6f6e2d6578697374696e67204e4654000000000000000060448201526064016108f4565b74010000000000000000000000000000000000000000811615610b26575050600081815260038301602052604090205473ffffffffffffffffffffffffffffffffffffffff16610375565b6000915050610375565b60006106096117db565b600081815260018501602052604081205490819003610bb5576040517f08c379a000000000000000000000000000000000000000000000000000000000815260206004820152601860248201527f4552433732313a206e6f6e2d6578697374696e67204e4654000000000000000060448201526064016108f4565b8073ffffffffffffffffffffffffffffffffffffffff80821690851603610c38576040517f08c379a000000000000000000000000000000000000000000000000000000000815260206004820152601560248201527f4552433732313a2073656c662d617070726f76616c000000000000000000000060448201526064016108f4565b610c43868287611933565b610ca9576040517f08c379a000000000000000000000000000000000000000000000000000000000815260206004820152601b60248201527f4552433732313a206e6f6e2d617070726f7665642073656e646572000000000060448201526064016108f4565b73ffffffffffffffffffffffffffffffffffffffff8416610d105774010000000000000000000000000000000000000000821615610d0b576000838152600187016020526040902073ffffffffffffffffffffffffffffffffffffffff821690555b610d93565b740100000000000000000000000000000000000000008217808314610d4357600084815260018801602052604090208190555b506000838152600387016020526040902080547fffffffffffffffffffffffff00000000000000000000000000000000000000001673ffffffffffffffffffffffffffffffffffffffff86161790555b828473ffffffffffffffffffffffffffffffffffffffff168273ffffffffffffffffffffffffffffffffffffffff167f8c5be1e5ebec7d5bd14f71427d1e84f3dd0314c0f7b2291e5b200ac8c7c3b92560405160405180910390a4505050505050565b610e1585858585856040518060200160405280600081525060006119a7565b5050505050565b815473ffffffffffffffffffffffffffffffffffffffff8281169116146103ac576040517f08c379a000000000000000000000000000000000000000000000000000000000815260206004820152601860248201527f4f776e6572736869703a206e6f7420746865206f776e6572000000000000000060448201526064016108f4565b60008061037560017fc8827d3282af6f37b64c3e9e6f3ac9df286ab0bb0fccd6f8661bf19adb368b2361265f565b60008381526020858152604080832073ffffffffffffffffffffffffffffffffffffffff8616845290915290205460ff166105be5760008381526020858152604080832073ffffffffffffffffffffffffffffffffffffffff8681168086529184529382902080547fffffffffffffffffffffffffffffffffffffffffffffffffffffffffffffff00166001179055815187815292830152918316918101919091527f2f8788117e7eff1d82e926ec794901d17c78024a50270940304540a733656f0d906060015b60405180910390a150505050565b366000610413611add565b60008281526020848152604080832073ffffffffffffffffffffffffffffffffffffffff8516845290915290205460ff166103cf57610fec82611c61565b604051602001610ffc91906126a2565b604080517fffffffffffffffffffffffffffffffffffffffffffffffffffffffffffffffe0818403018152908290527f08c379a00000000000000000000000000000000000000000000000000000000082526108f491600401612758565b73ffffffffffffffffffffffffffffffffffffffff84166110d7576040517f08c379a000000000000000000000000000000000000000000000000000000000815260206004820152601460248201527f4552433732313a206d696e7420746f207a65726f00000000000000000000000060448201526064016108f4565b6110e48685856000611deb565b604051839073ffffffffffffffffffffffffffffffffffffffff8616906000907fddf252ad1be2c89b69c2b068fc378daa952ba7f163c4a11628f55a4df523b3ef908290a480801561114c575073ffffffffffffffffffffffffffffffffffffffff84163b15155b1561115f5761115f856000868686611ec4565b505050505050565b610e1585858585856040518060200160405280600081525060016119a7565b73ffffffffffffffffffffffffffffffffffffffff8216611203576040517f08c379a000000000000000000000000000000000000000000000000000000000815260206004820152601460248201527f4552433732313a206d696e7420746f207a65726f00000000000000000000000060448201526064016108f4565b805160005b8181146112885760008382815181106112235761122361276b565b6020026020010151905061123a8686836001611deb565b604051819073ffffffffffffffffffffffffffffffffffffffff8716906000907fddf252ad1be2c89b69c2b068fc378daa952ba7f163c4a11628f55a4df523b3ef908290a450600101611208565b5073ffffffffffffffffffffffffffffffffffffffff83166000908152600285016020526040812080548392906112c090849061279a565b909155505050505050565b600081815260018301602052604081205473ffffffffffffffffffffffffffffffffffffffff8116610652576040517f08c379a000000000000000000000000000000000000000000000000000000000815260206004820152601860248201527f4552433732313a206e6f6e2d6578697374696e67204e4654000000000000000060448201526064016108f4565b600073ffffffffffffffffffffffffffffffffffffffff82166113d8576040517f08c379a000000000000000000000000000000000000000000000000000000000815260206004820152601460248201527f4552433732313a207a65726f206164647265737300000000000000000000000060448201526064016108f4565b5073ffffffffffffffffffffffffffffffffffffffff166000908152600291909101602052604090205490565b611410838284610fae565b60008181526020848152604080832073ffffffffffffffffffffffffffffffffffffffff86168085529083529281902080547fffffffffffffffffffffffffffffffffffffffffffffffffffffffffffffff0016905580518481529182018390528101919091527ff6391f5c32d9c69d2a47ea670b442974b53935d1edc7fd64eb21e047a839171b9060600160405180910390a1505050565b8273ffffffffffffffffffffffffffffffffffffffff168273ffffffffffffffffffffffffffffffffffffffff160361153e576040517f08c379a000000000000000000000000000000000000000000000000000000000815260206004820152601560248201527f4552433732313a2073656c662d617070726f76616c000000000000000000000060448201526064016108f4565b73ffffffffffffffffffffffffffffffffffffffff8381166000818152602087815260408083209487168084529482529182902080547fffffffffffffffffffffffffffffffffffffffffffffffffffffffffffffff001686151590811790915591519182527f17307eab39ab6107e8899845ad3d59bd9653f200f220920489ca2b5937696c31910160405180910390a350505050565b61115f86868686868660016119a7565b60008381526020858152604080832073ffffffffffffffffffffffffffffffffffffffff8616845290915290205460ff16156105be5760008381526020858152604080832073ffffffffffffffffffffffffffffffffffffffff8681168086529184529382902080547fffffffffffffffffffffffffffffffffffffffffffffffffffffffffffffff00169055815187815292830152918316918101919091527ff6391f5c32d9c69d2a47ea670b442974b53935d1edc7fd64eb21e047a839171b90606001610f95565b825473ffffffffffffffffffffffffffffffffffffffff9081169083168114611734576040517f08c379a000000000000000000000000000000000000000000000000000000000815260206004820152601860248201527f4f776e6572736869703a206e6f7420746865206f776e6572000000000000000060448201526064016108f4565b8173ffffffffffffffffffffffffffffffffffffffff168173ffffffffffffffffffffffffffffffffffffffff16146105be5783547fffffffffffffffffffffffff00000000000000000000000000000000000000001673ffffffffffffffffffffffffffffffffffffffff8381169182178655604051908316907f8be0079c531659141344cd1fd0a4f28419497f9722a3daafe3b4186f6b6457e090600090a350505050565b6000333281036117ea57919050565b6000367fffffffffffffffffffffffffffffffffffffffffffffffffffffffffffffffec013560601c90507f000000000000000000000000000000000000000000000000000000000000000073ffffffffffffffffffffffffffffffffffffffff168273ffffffffffffffffffffffffffffffffffffffff16148061192257506040517fe60125d600000000000000000000000000000000000000000000000000000000815273ffffffffffffffffffffffffffffffffffffffff828116600483015283811660248301527f0000000000000000000000000000000000000000000000000000000000000000169063e60125d690604401602060405180830381865afa1580156118fe573d6000803e3d6000fd5b505050506040513d601f19601f8201168201806040525081019061192291906127b2565b1561192d5792915050565b50919050565b60008173ffffffffffffffffffffffffffffffffffffffff168373ffffffffffffffffffffffffffffffffffffffff16148061199f575073ffffffffffffffffffffffffffffffffffffffff8084166000908152602086815260408083209386168352929052205460ff165b949350505050565b73ffffffffffffffffffffffffffffffffffffffff8416611a24576040517f08c379a000000000000000000000000000000000000000000000000000000000815260206004820152601860248201527f4552433732313a207472616e7366657220746f207a65726f000000000000000060448201526064016108f4565b6000611a31888789611933565b9050611a438888888888866000611fea565b838573ffffffffffffffffffffffffffffffffffffffff168773ffffffffffffffffffffffffffffffffffffffff167fddf252ad1be2c89b69c2b068fc378daa952ba7f163c4a11628f55a4df523b3ef60405160405180910390a4818015611ac1575073ffffffffffffffffffffffffffffffffffffffff85163b15155b15611ad357611ad38787878787611ec4565b5050505050505050565b36600033328103611af357506000923692509050565b7f000000000000000000000000000000000000000000000000000000000000000073ffffffffffffffffffffffffffffffffffffffff168173ffffffffffffffffffffffffffffffffffffffff161480611c40575073ffffffffffffffffffffffffffffffffffffffff7f00000000000000000000000000000000000000000000000000000000000000001663e60125d6367fffffffffffffffffffffffffffffffffffffffffffffffffffffffffffffffec013560601c6040517fffffffff0000000000000000000000000000000000000000000000000000000060e084901b16815273ffffffffffffffffffffffffffffffffffffffff91821660048201529084166024820152604401602060405180830381865afa158015611c1c573d6000803e3d6000fd5b505050506040513d601f19601f82011682018060405250810190611c4091906127b2565b15611c5657611c4d612171565b92509250509091565b506000923692509050565b60606000829003611c8057505060408051602081019091526000815290565b600082604051602001611c9591815260200190565b604080517fffffffffffffffffffffffffffffffffffffffffffffffffffffffffffffffe08184030181529190529050601f5b818181518110611cda57611cda61276b565b01602001517fff0000000000000000000000000000000000000000000000000000000000000016600003611d1857611d11816127cf565b9050611cc8565b6000611d2582600161279a565b67ffffffffffffffff811115611d3d57611d3d6124dd565b6040519080825280601f01601f191660200182016040528015611d67576020820181803683370190505b50905060005b828111611de257838181518110611d8657611d8661276b565b602001015160f81c60f81b828281518110611da357611da361276b565b60200101907effffffffffffffffffffffffffffffffffffffffffffffffffffffffffffff1916908160001a905350611ddb81612804565b9050611d6d565b50949350505050565b600082815260018501602052604090205415611e63576040517f08c379a000000000000000000000000000000000000000000000000000000000815260206004820152601a60248201527f4552433732313a206578697374696e672f6275726e74204e465400000000000060448201526064016108f4565b6000828152600185016020526040902073ffffffffffffffffffffffffffffffffffffffff84169055806105be57505073ffffffffffffffffffffffffffffffffffffffff1660009081526002919091016020526040902080546001019055565b6040517f150b7a02000000000000000000000000000000000000000000000000000000008082529073ffffffffffffffffffffffffffffffffffffffff85169063150b7a0290611f1e90899089908890889060040161283c565b6020604051808303816000875af1158015611f3d573d6000803e3d6000fd5b505050506040513d601f19601f82011682018060405250810190611f619190612885565b7fffffffff000000000000000000000000000000000000000000000000000000001614610e15576040517f08c379a000000000000000000000000000000000000000000000000000000000815260206004820152601860248201527f4552433732313a207472616e736665722072656675736564000000000000000060448201526064016108f4565b600083815260018801602052604090205473ffffffffffffffffffffffffffffffffffffffff8681169082161461207d576040517f08c379a000000000000000000000000000000000000000000000000000000000815260206004820152601560248201527f4552433732313a206e6f6e2d6f776e6564204e4654000000000000000000000060448201526064016108f4565b8261213657740100000000000000000000000000000000000000008116158015906120d05750600084815260038901602052604090205473ffffffffffffffffffffffffffffffffffffffff8881169116145b612136576040517f08c379a000000000000000000000000000000000000000000000000000000000815260206004820152601b60248201527f4552433732313a206e6f6e2d617070726f7665642073656e646572000000000060448201526064016108f4565b6000848152600189016020526040902073ffffffffffffffffffffffffffffffffffffffff8616905581611ad357611ad3888787600161218f565b36600080808361218260148261265f565b92610413939291906128a2565b8173ffffffffffffffffffffffffffffffffffffffff168373ffffffffffffffffffffffffffffffffffffffff16146105be5773ffffffffffffffffffffffffffffffffffffffff80841660009081526002860160205260408082208054859003905591841681522080548201905550505050565b7fffffffff00000000000000000000000000000000000000000000000000000000811681146105df57600080fd5b60006020828403121561224457600080fd5b813561065281612204565b60006020828403121561226157600080fd5b5035919050565b803573ffffffffffffffffffffffffffffffffffffffff8116811461228c57600080fd5b919050565b600080604083850312156122a457600080fd5b6122ad83612268565b946020939093013593505050565b6000806000606084860312156122d057600080fd5b6122d984612268565b92506122e760208501612268565b9150604084013590509250925092565b6000806040838503121561230a57600080fd5b8235915061231a60208401612268565b90509250929050565b60208152816020820152818360408301376000818301604090810191909152601f9092017fffffffffffffffffffffffffffffffffffffffffffffffffffffffffffffffe0160101919050565b60008060006040848603121561238557600080fd5b61238e84612268565b9250602084013567ffffffffffffffff808211156123ab57600080fd5b818601915086601f8301126123bf57600080fd5b8135818111156123ce57600080fd5b8760208260051b85010111156123e357600080fd5b6020830194508093505050509250925092565b60006020828403121561240857600080fd5b61065282612268565b6000806000806060858703121561242757600080fd5b61243085612268565b935060208501359250604085013567ffffffffffffffff8082111561245457600080fd5b818701915087601f83011261246857600080fd5b81358181111561247757600080fd5b88602082850101111561248957600080fd5b95989497505060200194505050565b80151581146105df57600080fd5b600080604083850312156124b957600080fd5b6124c283612268565b915060208301356124d281612498565b809150509250929050565b7f4e487b7100000000000000000000000000000000000000000000000000000000600052604160045260246000fd5b6000806000806080858703121561252257600080fd5b61252b85612268565b935061253960208601612268565b925060408501359150606085013567ffffffffffffffff8082111561255d57600080fd5b818701915087601f83011261257157600080fd5b813581811115612583576125836124dd565b604051601f82017fffffffffffffffffffffffffffffffffffffffffffffffffffffffffffffffe0908116603f011681019083821181831017156125c9576125c96124dd565b816040528281528a60208487010111156125e257600080fd5b82602086016020830137600060208483010152809550505050505092959194509250565b6000806040838503121561261957600080fd5b61262283612268565b915061231a60208401612268565b7f4e487b7100000000000000000000000000000000000000000000000000000000600052601160045260246000fd5b60008282101561267157612671612630565b500390565b60005b83811015612691578181015183820152602001612679565b838111156105be5750506000910152565b7f416363657373436f6e74726f6c3a206d697373696e67202700000000000000008152600082516126da816018850160208701612676565b7f2720726f6c6500000000000000000000000000000000000000000000000000006018939091019283015250601e01919050565b60008151808452612726816020860160208601612676565b601f017fffffffffffffffffffffffffffffffffffffffffffffffffffffffffffffffe0169290920160200192915050565b602081526000610652602083018461270e565b7f4e487b7100000000000000000000000000000000000000000000000000000000600052603260045260246000fd5b600082198211156127ad576127ad612630565b500190565b6000602082840312156127c457600080fd5b815161065281612498565b6000816127de576127de612630565b507fffffffffffffffffffffffffffffffffffffffffffffffffffffffffffffffff0190565b60007fffffffffffffffffffffffffffffffffffffffffffffffffffffffffffffffff820361283557612835612630565b5060010190565b600073ffffffffffffffffffffffffffffffffffffffff80871683528086166020840152508360408301526080606083015261287b608083018461270e565b9695505050505050565b60006020828403121561289757600080fd5b815161065281612204565b600080858511156128b257600080fd5b838611156128bf57600080fd5b505082019391909203915056fea26469706673582212206a98767ca9dbf8d9c76d972bcb3c60f6999ae4e3db6ddf8704292a9039c6d98564736f6c634300080e0033",
  "linkReferences": {},
  "deployedLinkReferences": {}
}