{
  "_format": "hh-sol-artifact-1",
  "contractName": "RecoverableFacet",
  "sourceName": "contracts/security/RecoverableFacet.sol",
  "abi": [
    {
      "inputs": [
        {
          "internalType": "contract IForwarderRegistry",
          "name": "forwarderRegistry",
          "type": "address"
        }
      ],
      "stateMutability": "nonpayable",
      "type": "constructor"
    },
    {
      "inputs": [
        {
          "internalType": "address[]",
          "name": "accounts",
          "type": "address[]"
        },
        {
          "internalType": "address[]",
          "name": "tokens",
          "type": "address[]"
        },
        {
          "internalType": "uint256[]",
          "name": "amounts",
          "type": "uint256[]"
        }
      ],
      "name": "recoverERC20s",
      "outputs": [],
      "stateMutability": "nonpayable",
      "type": "function"
    },
    {
      "inputs": [
        {
          "internalType": "address[]",
          "name": "accounts",
          "type": "address[]"
        },
        {
          "internalType": "address[]",
          "name": "contracts",
          "type": "address[]"
        },
        {
          "internalType": "uint256[]",
          "name": "tokenIds",
          "type": "uint256[]"
        }
      ],
      "name": "recoverERC721s",
      "outputs": [],
      "stateMutability": "nonpayable",
      "type": "function"
    }
  ],
  "bytecode": "0x60a06040523480156200001157600080fd5b5060405162001eb838038062001eb88339818101604052810190620000379190620001c8565b806200006c7f6a83522c126b1f14401cda64886fc651a7060f385b5e2d289e620e1859fee4e760001b6200014460201b60201c565b620000a07ff6fd3c5688ac3ada9425e55f9cce326a85fd64fca9b1584401f3d2203aee560b60001b6200014460201b60201c565b620000d47fe7883c748f395270b53c914004a2b83ffb6acf3836fed33ec0a3c0eb061e618860001b6200014460201b60201c565b8073ffffffffffffffffffffffffffffffffffffffff1660808173ffffffffffffffffffffffffffffffffffffffff1681525050506200013d7fca76b9e3f3d40e8ee67ebfbb4eb3806221e05233e1595e4c2c3bdb6bdd59b63f60001b6200014760201b60201c565b50620001fa565b50565b50565b600080fd5b600073ffffffffffffffffffffffffffffffffffffffff82169050919050565b60006200017c826200014f565b9050919050565b600062000190826200016f565b9050919050565b620001a28162000183565b8114620001ae57600080fd5b50565b600081519050620001c28162000197565b92915050565b600060208284031215620001e157620001e06200014a565b5b6000620001f184828501620001b1565b91505092915050565b608051611c9b6200021d60003960008181610e270152610e7c0152611c9b6000f3fe608060405234801561001057600080fd5b50600436106100365760003560e01c806373c8a9581461003b578063c3666c3614610057575b600080fd5b610055600480360381019061005091906115b8565b610073565b005b610071600480360381019061006c91906115b8565b6103e2565b005b61009f7f016fce6fae9c05fb032028de0375a7095ea7c49766cd2b96927bf0fcae13249160001b610795565b6100cb7fe565a708704589c301be854d05fd2ee603e6349870d8d8cdfd226824e107273760001b610795565b6100f77f9d9dd67c4e7958a66840aa0100e2778faf4f97720c166367ad84899329e0c45160001b610795565b610118610102610798565b61010a61082b565b61091b90919063ffffffff16565b6101447f6caa8c98a4618cab749004b7ef7babab27d7d9d0bd2a869acd3ace7af17a443660001b610795565b6101707fb3316ad0e2a6e11bd261a37f35cd0c6382c4780a2fb053d39261a590d0cbd34160001b610795565b60008686905090506101a47fca517cd2f167cfd66dbae7ad44b94cf5d6f01a8dec589383b7f3380147fdfd9560001b610795565b6101d07f7c52757fbf9e52c38e3e8793de4d168071243d42dec5bce05577373d3636e09160001b610795565b6101fc7f090214adf27048c72bcbff825ce1ec8a1017d02d0c64a5f70a166c69b7b5cc4d60001b610795565b848490508114801561021057508282905081145b61024f576040517f08c379a0000000000000000000000000000000000000000000000000000000008152600401610246906116c9565b60405180910390fd5b61027b7fe86018585dd39c9cb677051dce8bdf6fba155e56a51ddb2a423a773d3622dcae60001b610795565b6102a77fafa9903618421a326c7eb385b3fd0b5f2cece01ab23f166e6a3d9101f559bfad60001b610795565b6102d37f471ffd85a5c25f9275a569d2a61613147e35bee60a44d4ad8cba61caaa5b9aba60001b610795565b60005b8181146103d8576103097f95e243928ed7fe15e3c55ceeac60769ed68d084c60620812b3249bb2dc81b69560001b610795565b6103357fdc7f9fda25f1c995706ea0aee8205c2b0e40305a1f1b910c67c8e9427521bd3760001b610795565b6103c788888381811061034b5761034a6116e9565b5b90506020020160208101906103609190611776565b858584818110610373576103726116e9565b5b9050602002013588888581811061038d5761038c6116e9565b5b90506020020160208101906103a29190611776565b73ffffffffffffffffffffffffffffffffffffffff16610a8d9092919063ffffffff16565b806103d1906117dc565b90506102d6565b5050505050505050565b61040e7f10afdde172b0464621b68c91e783b39a120adddbb67cb3eae5dd9f42a62d2e2060001b610795565b61043a7f328c9ec76ed8cfb2d5d74d3498a58b266ca5c61e137f56016841ac5b16cead3260001b610795565b6104667fba416e5689cddf64ccd5c7d2d45bc1707105854c677a676b0061ac9ebcda4ab560001b610795565b610487610471610798565b61047961082b565b61091b90919063ffffffff16565b6104b37f6108ceae36af3cd2fb1a9e07fe2fc8c70a7a619e4e5046ebff1bd94a17c7daee60001b610795565b6104df7f8c04b37b72e63cbb3976fa960443267916948463122a35e5f5a6ae7286b9600260001b610795565b60008686905090506105137fc2ef00d9d836af8694c9344b99c6a40104544fae1ae8c2935011c9403055ab2d60001b610795565b61053f7f9da1731e570ee7ee67a2341bb4a5f819ed6fced5ec22b3784ab4e51c0598918660001b610795565b61056b7fa8180ae7803a3cc8d2114518fa1ec8042328e1749a34f81ba02e2aa0f85921a960001b610795565b848490508114801561057f57508282905081145b6105be576040517f08c379a00000000000000000000000000000000000000000000000000000000081526004016105b5906116c9565b60405180910390fd5b6105ea7faf3a3cd703b860a8319c263dade75be093b9a29f0fa6cf8f82c3f4c028a5994660001b610795565b6106167f81cea93ecaeed0b69285ed83071cfe99b9cd4f612020a43305a754a28081647260001b610795565b6106427f4346a9f479606cd97428266b3f9a476b6d99957be2ee3fb68b3677f87b9e7b1060001b610795565b60005b81811461078b576106787f52edde16881c3ba6749ed5aae25cdf19b1a74bd4fbbb9080db835eeacc04470360001b610795565b6106a47f0a726d8767a7ce968fb5746cf12f74178890de4d56a0ed688f6ac32c4141107f60001b610795565b8585828181106106b7576106b66116e9565b5b90506020020160208101906106cc9190611776565b73ffffffffffffffffffffffffffffffffffffffff166323b872dd308a8a858181106106fb576106fa6116e9565b5b90506020020160208101906107109190611776565b878786818110610723576107226116e9565b5b905060200201356040518463ffffffff1660e01b815260040161074893929190611842565b600060405180830381600087803b15801561076257600080fd5b505af1158015610776573d6000803e3d6000fd5b5050505080610784906117dc565b9050610645565b5050505050505050565b50565b60006107c67f5e8bcd3851adcd17ab503cc5ac22073370731344b92a0876823f5aa67feff5db60001b610b97565b6107f27ff65b176573198d26fc954b754ea084f8641937c9f7a27ea99993b2f936fb7ee460001b610b97565b61081e7fee4b83d781f770aeca63fe7e3c54e2d4b0101c8dd6b14b4203222e99d746923060001b610b97565b610826610b9a565b905090565b60006108597f12b4db1a13ae954a255ef0fa37765d8ee1e39537e429053253a663eff808644d60001b611037565b6108857feebae444011023bb1eb9d991a8900c1fc6c9dc05e526ab9149645480ea211c3e60001b611037565b6108b17f7a85e8875e57667831d822c4c89a943f00106e2fdc910c0df83014dfd0d1477360001b611037565b600060017f6a1da6973104ff7dedb9b4f5cab5830b3f4a0284ed754366cfc45568bd2d38df60001c6108e39190611879565b60001b90506109147fcd65f8dce9f650605649809ea57b1b403b2167736801d4eb4d6da1b99327986060001b611037565b8091505090565b6109477f311cb72dc07750d6828e4b4e89b77f33fb16c70db0f74c9dbf7e01b75fe2538460001b611037565b6109737f5a948a147df45bdb71c8f98a865604b23d4880b5921ab247626470201792a9d460001b611037565b61099f7faa1ac481ace62e8856a31e42b6fa6ad7e8b29c10fa062b8775baa1bf5185f76360001b611037565b6109cb7fa565745ecf1d7ea43fd9e19c5a7b72dbef31f2d274ba98df9594459d1fdda02f60001b611037565b8160000160009054906101000a900473ffffffffffffffffffffffffffffffffffffffff1673ffffffffffffffffffffffffffffffffffffffff168173ffffffffffffffffffffffffffffffffffffffff1614610a5d576040517f08c379a0000000000000000000000000000000000000000000000000000000008152600401610a54906118f9565b60405180910390fd5b610a897f3cdf1cbcd193a5f563b48f16d650e4ae6a3f20aa956e2ea1fe221c3ff0241bd160001b611037565b5050565b610ab97fc7c3131599d9f26afbee94d80af0294a2bb061c91f5f9920010eb01f8522b71d60001b61103a565b610ae57f421c8bcf0b9a395628f35ad41f48108ff5938f79cc2b4ba717ec0a59f5f3fd3e60001b61103a565b610b117f7474b1fbd7f596e2f38d2bbcb68b70ef55ac4355a0e9fa5c2d5497218f29e74460001b61103a565b610b928363a9059cbb60e01b8484604051602401610b30929190611919565b604051602081830303815290604052907bffffffffffffffffffffffffffffffffffffffffffffffffffffffff19166020820180517bffffffffffffffffffffffffffffffffffffffffffffffffffffffff838183161783525050505061103d565b505050565b50565b6000610bc87f21f83b85e7dbc596177bc46cc6795c14520638d6db8281a9a46e4d6aa22fb1aa60001b6112d0565b610bf47f9fe8a1e1e7c5f38bddac874222fbac3da358d377b550af606038c28c918342a660001b6112d0565b610c207f4d776035fe014c48f9b8d211e07ad5f3e10a7407e640d6fd44f001ad72ec145460001b6112d0565b6000339050610c517f1470143c211ace273ad33be67e446aa27b56df8ff21c9e30df1c1ce1aab37faf60001b6112d0565b610c7d7f701a5aed6b7834b1cde40063ca2763d0cc2a2d369e96d6ffd63bd7f36d010be860001b6112d0565b3273ffffffffffffffffffffffffffffffffffffffff168173ffffffffffffffffffffffffffffffffffffffff1603610d3d57610cdc7fde73d737f19da71f7e0a8be64041464998117e05c9bb9f65df2259a0779caaa960001b6112d0565b610d087f2e1b1201e86447778e6a37c8701809fecc19c6c17c8cdf9a32e27254363f132c60001b6112d0565b610d347f06438a6776a73eebdc69485314350483a51cfddc04e159b6f57dde5e4030039060001b6112d0565b80915050611034565b610d697f6b510e6cfe0d366d8eb68be09db038d2dbfc0ca71029993b650b184340fc438a60001b6112d0565b610d957fc81f2aa3e9c76ff8d9709ad059857726fb537b8fa6166dbedc9e3f598edddc4160001b6112d0565b610dc17fd5cec79665173c3237287beadc96f615eba8ff220376c7f0add1c603fa1dcb0260001b6112d0565b6000610dcb6112d3565b9050610df97f16b7bdd4d503ca2d391b420534e7b71ff847aea146e0c5e9b1d972d25ac95cf360001b6112d0565b610e257f8284349b0a2249652b224d12d5fd826a549839b4e0aab6630e88a99ebee0413860001b6112d0565b7f000000000000000000000000000000000000000000000000000000000000000073ffffffffffffffffffffffffffffffffffffffff168273ffffffffffffffffffffffffffffffffffffffff161480610f1757507f000000000000000000000000000000000000000000000000000000000000000073ffffffffffffffffffffffffffffffffffffffff1663e60125d682846040518363ffffffff1660e01b8152600401610ed5929190611942565b602060405180830381865afa158015610ef2573d6000803e3d6000fd5b505050506040513d601f19601f82011682018060405250810190610f1691906119a3565b5b15610faa57610f487ff1748450d5c67d16e99d465b5f46314c0a03cb614c0a36c7a01d0d452a42d63760001b6112d0565b610f747ffcb9fb7b37e10dcd260ee2b6500d072708cde8b16110ac602ac219c4f0ac7a8860001b6112d0565b610fa07f0b8b6cb7f0d04c4b23441400a0a579a14ccf6e6d955d51d0d443ae3b764fbf1e60001b6112d0565b8092505050611034565b610fd67fc6338ea7b912cb871ae88b37af8abae50806bb4e29d453caf0758aea491b82ab60001b6112d0565b6110027fb1b2861ba78bbb686a91db34f76b76efe61d8e91016be1013861a8390b68a26860001b6112d0565b61102e7f131b91089cbc4af49187f8d51fbbc23a25f13946f6ab1ab771005101548d429760001b6112d0565b81925050505b90565b50565b50565b6110697fbcca4dd5897c58575dbc0e451d2cac591145c22d3018d3a411ce31fe8afa386960001b61103a565b6110957fc36c5e010e2b78abfaad2bf9ae6807ed3b445aaaab50035f09041e29aca99b3660001b61103a565b6110c17f568df6a0fa9093a1bedc24b9f65f25fad457c32f9b32f54f69625f70a2c8fccc60001b61103a565b600061110682604051806060016040528060238152602001611c43602391398573ffffffffffffffffffffffffffffffffffffffff1661133a9092919063ffffffff16565b90506111347fbf2924f9785d5cfb3221bd565e16b3303299afb08805dd515eb2557ae6677d2260001b61103a565b6111607ff105c57f5d3cc02b79c5d2b1759ccff23ddc459aeb197ee6e83d10ffb4b0208260001b61103a565b60008151111561129e576111967fbfc8b95c264dbffa9167eb77e9e6cf81f6687320a066fd176b26848a5e3a1a9460001b61103a565b6111c27fd6e1b935be119d89998b82333c3c4ea82cc201d3bfbcabe23604f4ee6c5c72a760001b61103a565b6111ee7f721cc9355cef7fea136dcc71629319ec754b0c4ff08de9351846bb65517b34e160001b61103a565b61121a7ffdd8974bae6d33f6c68239ccfa1beadd990bb8726a4ab0eb79643f5ced937d2360001b61103a565b8080602001905181019061122e91906119a3565b61126d576040517f08c379a000000000000000000000000000000000000000000000000000000000815260040161126490611a1c565b60405180910390fd5b6112997fd7af9135d7aa2224213d6c13ae01ea1bcd03fa61dd5338eb76ec09e9fd67712d60001b61103a565b6112cb565b6112ca7f311a89077f137f82af525b36549e6593b8c752428ebed797d5023780af33b09960001b61103a565b5b505050565b50565b60006113017fd2d14d566965719ee17c5b60ff32623f910e7a0e574f2eeae19a64856bd35c4c60001b611352565b61132d7fa390d1eca31ebd819e35c63e13daa420bd40dcdd984217eef68768880371b01d60001b611352565b601436033560601c905090565b60606113498484600085611355565b90509392505050565b50565b60608247101561139a576040517f08c379a000000000000000000000000000000000000000000000000000000000815260040161139190611aae565b60405180910390fd5b6113a385611469565b6113e2576040517f08c379a00000000000000000000000000000000000000000000000000000000081526004016113d990611b1a565b60405180910390fd5b6000808673ffffffffffffffffffffffffffffffffffffffff16858760405161140b9190611bb4565b60006040518083038185875af1925050503d8060008114611448576040519150601f19603f3d011682016040523d82523d6000602084013e61144d565b606091505b509150915061145d82828661148c565b92505050949350505050565b6000808273ffffffffffffffffffffffffffffffffffffffff163b119050919050565b6060831561149c578290506114ec565b6000835111156114af5782518084602001fd5b816040517f08c379a00000000000000000000000000000000000000000000000000000000081526004016114e39190611c20565b60405180910390fd5b9392505050565b600080fd5b600080fd5b600080fd5b600080fd5b600080fd5b60008083601f840112611522576115216114fd565b5b8235905067ffffffffffffffff81111561153f5761153e611502565b5b60208301915083602082028301111561155b5761155a611507565b5b9250929050565b60008083601f840112611578576115776114fd565b5b8235905067ffffffffffffffff81111561159557611594611502565b5b6020830191508360208202830111156115b1576115b0611507565b5b9250929050565b600080600080600080606087890312156115d5576115d46114f3565b5b600087013567ffffffffffffffff8111156115f3576115f26114f8565b5b6115ff89828a0161150c565b9650965050602087013567ffffffffffffffff811115611622576116216114f8565b5b61162e89828a0161150c565b9450945050604087013567ffffffffffffffff811115611651576116506114f8565b5b61165d89828a01611562565b92509250509295509295509295565b600082825260208201905092915050565b7f5265636f766572793a20696e636f6e73697374656e7420617272617973000000600082015250565b60006116b3601d8361166c565b91506116be8261167d565b602082019050919050565b600060208201905081810360008301526116e2816116a6565b9050919050565b7f4e487b7100000000000000000000000000000000000000000000000000000000600052603260045260246000fd5b600073ffffffffffffffffffffffffffffffffffffffff82169050919050565b600061174382611718565b9050919050565b61175381611738565b811461175e57600080fd5b50565b6000813590506117708161174a565b92915050565b60006020828403121561178c5761178b6114f3565b5b600061179a84828501611761565b91505092915050565b7f4e487b7100000000000000000000000000000000000000000000000000000000600052601160045260246000fd5b6000819050919050565b60006117e7826117d2565b91507fffffffffffffffffffffffffffffffffffffffffffffffffffffffffffffffff8203611819576118186117a3565b5b600182019050919050565b61182d81611738565b82525050565b61183c816117d2565b82525050565b60006060820190506118576000830186611824565b6118646020830185611824565b6118716040830184611833565b949350505050565b6000611884826117d2565b915061188f836117d2565b9250828210156118a2576118a16117a3565b5b828203905092915050565b7f4f776e6572736869703a206e6f7420746865206f776e65720000000000000000600082015250565b60006118e360188361166c565b91506118ee826118ad565b602082019050919050565b60006020820190508181036000830152611912816118d6565b9050919050565b600060408201905061192e6000830185611824565b61193b6020830184611833565b9392505050565b60006040820190506119576000830185611824565b6119646020830184611824565b9392505050565b60008115159050919050565b6119808161196b565b811461198b57600080fd5b50565b60008151905061199d81611977565b92915050565b6000602082840312156119b9576119b86114f3565b5b60006119c78482850161198e565b91505092915050565b7f4552433230577261707065723a206f7065726174696f6e206661696c65640000600082015250565b6000611a06601e8361166c565b9150611a11826119d0565b602082019050919050565b60006020820190508181036000830152611a35816119f9565b9050919050565b7f416464726573733a20696e73756666696369656e742062616c616e636520666f60008201527f722063616c6c0000000000000000000000000000000000000000000000000000602082015250565b6000611a9860268361166c565b9150611aa382611a3c565b604082019050919050565b60006020820190508181036000830152611ac781611a8b565b9050919050565b7f416464726573733a2063616c6c20746f206e6f6e2d636f6e7472616374000000600082015250565b6000611b04601d8361166c565b9150611b0f82611ace565b602082019050919050565b60006020820190508181036000830152611b3381611af7565b9050919050565b600081519050919050565b600081905092915050565b60005b83811015611b6e578082015181840152602081019050611b53565b83811115611b7d576000848401525b50505050565b6000611b8e82611b3a565b611b988185611b45565b9350611ba8818560208601611b50565b80840191505092915050565b6000611bc08284611b83565b915081905092915050565b600081519050919050565b6000601f19601f8301169050919050565b6000611bf282611bcb565b611bfc818561166c565b9350611c0c818560208601611b50565b611c1581611bd6565b840191505092915050565b60006020820190508181036000830152611c3a8184611be7565b90509291505056fe4552433230577261707065723a206c6f772d6c6576656c2063616c6c206661696c6564a264697066735822122013d01d164c0bfde87648553726d5a2e92ef8db2c4c90afe49039323f5eeea15364736f6c634300080d0033",
  "linkReferences": {},
  "deployedLinkReferences": {}
}