{
  "_format": "hh-sol-artifact-1",
  "contractName": "ERC20PermitFacetMock",
  "sourceName": "contracts/mocks/token/ERC20/ERC20PermitFacetMock.sol",
  "abi": [
    {
      "inputs": [
        {
          "internalType": "contract IForwarderRegistry",
          "name": "forwarderRegistry",
          "type": "address"
        }
      ],
      "stateMutability": "nonpayable",
      "type": "constructor"
    },
    {
      "inputs": [],
      "name": "DOMAIN_SEPARATOR",
      "outputs": [
        {
          "internalType": "bytes32",
          "name": "",
          "type": "bytes32"
        }
      ],
      "stateMutability": "view",
      "type": "function"
    },
    {
      "inputs": [],
      "name": "__msgData",
      "outputs": [
        {
          "internalType": "bytes",
          "name": "",
          "type": "bytes"
        }
      ],
      "stateMutability": "view",
      "type": "function"
    },
    {
      "inputs": [],
      "name": "initERC20PermitStorage",
      "outputs": [],
      "stateMutability": "nonpayable",
      "type": "function"
    },
    {
      "inputs": [
        {
          "internalType": "address",
          "name": "account",
          "type": "address"
        }
      ],
      "name": "nonces",
      "outputs": [
        {
          "internalType": "uint256",
          "name": "",
          "type": "uint256"
        }
      ],
      "stateMutability": "view",
      "type": "function"
    },
    {
      "inputs": [
        {
          "internalType": "address",
          "name": "owner",
          "type": "address"
        },
        {
          "internalType": "address",
          "name": "spender",
          "type": "address"
        },
        {
          "internalType": "uint256",
          "name": "value",
          "type": "uint256"
        },
        {
          "internalType": "uint256",
          "name": "deadline",
          "type": "uint256"
        },
        {
          "internalType": "uint8",
          "name": "v",
          "type": "uint8"
        },
        {
          "internalType": "bytes32",
          "name": "r",
          "type": "bytes32"
        },
        {
          "internalType": "bytes32",
          "name": "s",
          "type": "bytes32"
        }
      ],
      "name": "permit",
      "outputs": [],
      "stateMutability": "nonpayable",
      "type": "function"
    }
  ],
  "bytecode": "0x60a060405234801561001057600080fd5b5060405161102a38038061102a83398101604081905261002f91610040565b6001600160a01b0316608052610070565b60006020828403121561005257600080fd5b81516001600160a01b038116811461006957600080fd5b9392505050565b608051610f8a6100a0600039600081816106d101528181610771015281816108aa01526109140152610f8a6000f3fe608060405234801561001057600080fd5b50600436106100675760003560e01c80633644e515116100505780633644e515146100955780637ecebe00146100ab578063d505accf146100be57600080fd5b80631de5d8441461006c57806331e66e1e14610076575b600080fd5b6100746100d1565b005b61007e6100fc565b60405161008c929190610d32565b60405180910390f35b61009d61010f565b60405190815260200161008c565b61009d6100b9366004610da8565b61011e565b6100746100cc366004610dca565b61015c565b6100ea6100dc610183565b6100e461018d565b906101bb565b6100fa6100f5610247565b610275565b565b3660006101076102b6565b915091509091565b60006101196102c1565b905090565b60006101568261012c610247565b9073ffffffffffffffffffffffffffffffffffffffff166000908152602091909152604090205490565b92915050565b61017a8787878787878761016e610247565b96959493929190610361565b50505050505050565b6000610119610695565b60008061015660017fb53127684a568b3173ae13b9f8a6016e243e63b6e8ee1178d6a717850b5d6104610e6c565b815473ffffffffffffffffffffffffffffffffffffffff828116911614610243576040517f08c379a000000000000000000000000000000000000000000000000000000000815260206004820152601960248201527f50726f787941646d696e3a206e6f74207468652061646d696e0000000000000060448201526064015b60405180910390fd5b5050565b60008061015660017f93fe0ff7226b064a4a8f0b09910762afb4bc2441835792c021ffd78cd513011e610e6c565b6102aa6102a360017fe52e3378002774695d565c8e59c28de59fdd0964e5e3587a8892fdd680d08954610e6c565b60016107ed565b6102b38161085d565b50565b366000610107610892565b6000467f8b73c3c69bb8fe3d512ecc4cf759cc79239f7b179b0ffacaa9a75d522b39400f6102f56102f0610a16565b610a44565b80516020918201206040805192830193909352918101919091527fc89efdaa54c0f20c7adf612882df0950f5a951637e0307cdcb4c672f298b8bc66060820152608081018290523060a082015260c0016040516020818303038152906040528051906020012091505090565b73ffffffffffffffffffffffffffffffffffffffff87166103de576040517f08c379a000000000000000000000000000000000000000000000000000000000815260206004820152601960248201527f45524332303a207a65726f2061646472657373206f776e657200000000000000604482015260640161023a565b83421115610448576040517f08c379a000000000000000000000000000000000000000000000000000000000815260206004820152601560248201527f45524332303a2065787069726564207065726d69740000000000000000000000604482015260640161023a565b73ffffffffffffffffffffffffffffffffffffffff8716600090815260208990526040812080547f6e71edae12b1b97f4d1f60370fef10105fa2faae0126114a169c64845d6126c9918a918a918a9190866104a283610e83565b9091555060408051602081019690965273ffffffffffffffffffffffffffffffffffffffff94851690860152929091166060840152608083015260a082015260c0810186905260e001604051602081830303815290604052805190602001209050600061050d6102c1565b6040517f19010000000000000000000000000000000000000000000000000000000000006020820152602281019190915260428101839052606201604080517fffffffffffffffffffffffffffffffffffffffffffffffffffffffffffffffe08184030181528282528051602091820120600080855291840180845281905260ff89169284019290925260608301879052608083018690529092509060019060a0016020604051602081039080840390855afa1580156105d1573d6000803e3d6000fd5b5050506020604051035190508973ffffffffffffffffffffffffffffffffffffffff168173ffffffffffffffffffffffffffffffffffffffff1614610672576040517f08c379a000000000000000000000000000000000000000000000000000000000815260206004820152601560248201527f45524332303a20696e76616c6964207065726d69740000000000000000000000604482015260640161023a565b6106888a8a8a610680610ada565b929190610b08565b5050505050505050505050565b6000333281036106a457919050565b6000367fffffffffffffffffffffffffffffffffffffffffffffffffffffffffffffffec013560601c90507f000000000000000000000000000000000000000000000000000000000000000073ffffffffffffffffffffffffffffffffffffffff168273ffffffffffffffffffffffffffffffffffffffff1614806107dc57506040517fe60125d600000000000000000000000000000000000000000000000000000000815273ffffffffffffffffffffffffffffffffffffffff828116600483015283811660248301527f0000000000000000000000000000000000000000000000000000000000000000169063e60125d690604401602060405180830381865afa1580156107b8573d6000803e3d6000fd5b505050506040513d601f19601f820116820180604052508101906107dc9190610ebb565b156107e75792915050565b50919050565b815482908211610859576040517f08c379a000000000000000000000000000000000000000000000000000000000815260206004820152601660248201527f53746f726167653a207068617365207265616368656400000000000000000000604482015260640161023a565b5550565b6102b37f9d8ff7da00000000000000000000000000000000000000000000000000000000600161088b610bf6565b9190610c24565b366000333281036108a857506000923692509050565b7f000000000000000000000000000000000000000000000000000000000000000073ffffffffffffffffffffffffffffffffffffffff168173ffffffffffffffffffffffffffffffffffffffff1614806109f5575073ffffffffffffffffffffffffffffffffffffffff7f00000000000000000000000000000000000000000000000000000000000000001663e60125d6367fffffffffffffffffffffffffffffffffffffffffffffffffffffffffffffffec013560601c6040517fffffffff0000000000000000000000000000000000000000000000000000000060e084901b16815273ffffffffffffffffffffffffffffffffffffffff91821660048201529084166024820152604401602060405180830381865afa1580156109d1573d6000803e3d6000fd5b505050506040513d601f19601f820116820180604052508101906109f59190610ebb565b15610a0b57610a02610d14565b92509250509091565b506000923692509050565b60008061015660017f335df4119bbb04f056b33eba33b826d3529129e458faf6daa9924b5a8f3b6a82610e6c565b6060816000018054610a5590610edd565b80601f0160208091040260200160405190810160405280929190818152602001828054610a8190610edd565b8015610ace5780601f10610aa357610100808354040283529160200191610ace565b820191906000526020600020905b815481529060010190602001808311610ab157829003601f168201915b50505050509050919050565b60008061015660017f1da92899d3da68bf9787824388a37ea2bfa79780bcef91b9716c390eec8ecbef610e6c565b73ffffffffffffffffffffffffffffffffffffffff8216610b85576040517f08c379a000000000000000000000000000000000000000000000000000000000815260206004820152601b60248201527f45524332303a207a65726f2061646472657373207370656e6465720000000000604482015260640161023a565b73ffffffffffffffffffffffffffffffffffffffff838116600081815260018701602090815260408083209487168084529482529182902085905590518481527f8c5be1e5ebec7d5bd14f71427d1e84f3dd0314c0f7b2291e5b200ac8c7c3b925910160405180910390a350505050565b60008061015660017fca9d3e17f264b0f3984e2634e94adb37fa3e6a8103f06aeae6fa59e21c769f5e610e6c565b7fffffffff000000000000000000000000000000000000000000000000000000008083169003610cb0576040517f08c379a000000000000000000000000000000000000000000000000000000000815260206004820152601f60248201527f496e74657266616365446574656374696f6e3a2077726f6e672076616c756500604482015260640161023a565b7fffffffff00000000000000000000000000000000000000000000000000000000919091166000908152602092909252604090912080547fffffffffffffffffffffffffffffffffffffffffffffffffffffffffffffff0016911515919091179055565b366000808083610d25601482610e6c565b9261010793929190610f2a565b60208152816020820152818360408301376000818301604090810191909152601f9092017fffffffffffffffffffffffffffffffffffffffffffffffffffffffffffffffe0160101919050565b803573ffffffffffffffffffffffffffffffffffffffff81168114610da357600080fd5b919050565b600060208284031215610dba57600080fd5b610dc382610d7f565b9392505050565b600080600080600080600060e0888a031215610de557600080fd5b610dee88610d7f565b9650610dfc60208901610d7f565b95506040880135945060608801359350608088013560ff81168114610e2057600080fd5b9699959850939692959460a0840135945060c09093013592915050565b7f4e487b7100000000000000000000000000000000000000000000000000000000600052601160045260246000fd5b600082821015610e7e57610e7e610e3d565b500390565b60007fffffffffffffffffffffffffffffffffffffffffffffffffffffffffffffffff8203610eb457610eb4610e3d565b5060010190565b600060208284031215610ecd57600080fd5b81518015158114610dc357600080fd5b600181811c90821680610ef157607f821691505b6020821081036107e7577f4e487b7100000000000000000000000000000000000000000000000000000000600052602260045260246000fd5b60008085851115610f3a57600080fd5b83861115610f4757600080fd5b505082019391909203915056fea26469706673582212206488da19519abd064346bfa712700acee28c3167d8e3023810656fdf8ef9aabe64736f6c634300080e0033",
  "linkReferences": {},
  "deployedLinkReferences": {}
}