{
  "_format": "hh-sol-artifact-1",
  "contractName": "ERC1155MetadataURIPerTokenFacet",
  "sourceName": "contracts/token/ERC1155/facets/ERC1155MetadataURIPerTokenFacet.sol",
  "abi": [
    {
      "inputs": [
        {
          "internalType": "contract IForwarderRegistry",
          "name": "forwarderRegistry",
          "type": "address"
        }
      ],
      "stateMutability": "nonpayable",
      "type": "constructor"
    },
    {
      "inputs": [
        {
          "internalType": "uint256[]",
          "name": "ids",
          "type": "uint256[]"
        },
        {
          "internalType": "string[]",
          "name": "metadataURIs",
          "type": "string[]"
        }
      ],
      "name": "batchSetTokenURI",
      "outputs": [],
      "stateMutability": "nonpayable",
      "type": "function"
    },
    {
      "inputs": [],
      "name": "initERC1155MetadataURIStorage",
      "outputs": [],
      "stateMutability": "nonpayable",
      "type": "function"
    },
    {
      "inputs": [
        {
          "internalType": "uint256",
          "name": "id",
          "type": "uint256"
        },
        {
          "internalType": "string",
          "name": "metadataURI",
          "type": "string"
        }
      ],
      "name": "setTokenURI",
      "outputs": [],
      "stateMutability": "nonpayable",
      "type": "function"
    },
    {
      "inputs": [
        {
          "internalType": "uint256",
          "name": "id",
          "type": "uint256"
        }
      ],
      "name": "uri",
      "outputs": [
        {
          "internalType": "string",
          "name": "metadataURI",
          "type": "string"
        }
      ],
      "stateMutability": "view",
      "type": "function"
    }
  ],
  "bytecode": "0x60a060405234801561001057600080fd5b5060405161106738038061106783398101604081905261002f91610040565b6001600160a01b0316608052610070565b60006020828403121561005257600080fd5b81516001600160a01b038116811461006957600080fd5b9392505050565b608051610fd5610092600039600081816105a5015261062d0152610fd56000f3fe608060405234801561001057600080fd5b506004361061004c5760003560e01c80630e89341c14610051578063162094c41461007a5780636706467b1461008f578063f310ed79146100a2575b600080fd5b61006461005f366004610975565b6100aa565b60405161007191906109b2565b60405180910390f35b61008d610088366004610a03565b6100c4565b005b61008d61009d366004610acb565b61014f565b61008d610199565b60606100be826100b86101bc565b906101ea565b92915050565b6100ff7f6d696e74657200000000000000000000000000000000000000000000000000006100f061028d565b6100f861029c565b91906102ca565b61014a8383838080601f01602080910402602001604051908101604052809392919081815260200183838082843760009201919091525061014392506101bc915050565b919061037f565b505050565b61017b7f6d696e74657200000000000000000000000000000000000000000000000000006100f061028d565b6101938484848461018a6101bc565b93929190610397565b50505050565b6101b26101a461028d565b6101ac610478565b906104a6565b6101ba61052d565b565b6000806100be60017f10425d47eba0194223d0d18d437db44682fcfacfc9f759b1b8092cc8a56516aa610b37565b600081815260208390526040902080546060919061020790610b71565b80601f016020809104026020016040519081016040528092919081815260200182805461023390610b71565b80156102805780601f1061025557610100808354040283529160200191610280565b820191906000526020600020905b81548152906001019060200180831161026357829003601f168201915b5050505050905092915050565b6000610297610562565b905090565b6000806100be60017fc8827d3282af6f37b64c3e9e6f3ac9df286ab0bb0fccd6f8661bf19adb368b23610b37565b60008281526020848152604080832073ffffffffffffffffffffffffffffffffffffffff8516845290915290205460ff1661014a57610308826106a9565b6040516020016103189190610bc4565b604080517fffffffffffffffffffffffffffffffffffffffffffffffffffffffffffffffe0818403018152908290527f08c379a0000000000000000000000000000000000000000000000000000000008252610376916004016109b2565b60405180910390fd5b60008281526020849052604090206101938282610cad565b82818114610401576040517f08c379a000000000000000000000000000000000000000000000000000000000815260206004820152601d60248201527f4d657461646174613a20696e636f6e73697374656e74206172726179730000006044820152606401610376565b60005b81811461046f5783838281811061041d5761041d610dc7565b905060200281019061042f9190610df6565b88600089898681811061044457610444610dc7565b9050602002013581526020019081526020016000209182610466929190610e5b565b50600101610404565b50505050505050565b6000806100be60017fb53127684a568b3173ae13b9f8a6016e243e63b6e8ee1178d6a717850b5d6104610b37565b815473ffffffffffffffffffffffffffffffffffffffff828116911614610529576040517f08c379a000000000000000000000000000000000000000000000000000000000815260206004820152601960248201527f50726f787941646d696e3a206e6f74207468652061646d696e000000000000006044820152606401610376565b5050565b6101ba7f0e89341c00000000000000000000000000000000000000000000000000000000600161055b61083b565b9190610869565b6000333214806105725750601836105b1561057c57503390565b7fffffffffffffffffffffffffffffffffffffffffffffffffffffffffffffffec36013560601c7f000000000000000000000000000000000000000000000000000000000000000073ffffffffffffffffffffffffffffffffffffffff1633148061069857506040517f8929a8ca00000000000000000000000000000000000000000000000000000000815273ffffffffffffffffffffffffffffffffffffffff82811660048301523360248301527f00000000000000000000000000000000000000000000000000000000000000001690638929a8ca90604401602060405180830381865afa158015610674573d6000803e3d6000fd5b505050506040513d601f19601f820116820180604052508101906106989190610f76565b156106a257919050565b3391505090565b606060008290036106c857505060408051602081019091526000815290565b6000826040516020016106dd91815260200190565b604080517fffffffffffffffffffffffffffffffffffffffffffffffffffffffffffffffe08184030181529190529050601f5b81818151811061072257610722610dc7565b01602001517fff0000000000000000000000000000000000000000000000000000000000000016600003610777577fffffffffffffffffffffffffffffffffffffffffffffffffffffffffffffffff01610710565b60008160010167ffffffffffffffff81111561079557610795610c30565b6040519080825280601f01601f1916602001820160405280156107bf576020820181803683370190505b50905060005b828111610832578381815181106107de576107de610dc7565b602001015160f81c60f81b8282815181106107fb576107fb610dc7565b60200101907effffffffffffffffffffffffffffffffffffffffffffffffffffffffffffff1916908160001a9053506001016107c5565b50949350505050565b6000806100be60017fca9d3e17f264b0f3984e2634e94adb37fa3e6a8103f06aeae6fa59e21c769f5e610b37565b7c01000000000000000000000000000000000000000000000000000000007fffffffff00000000000000000000000000000000000000000000000000000000831601610911576040517f08c379a000000000000000000000000000000000000000000000000000000000815260206004820152601f60248201527f496e74657266616365446574656374696f6e3a2077726f6e672076616c7565006044820152606401610376565b7fffffffff00000000000000000000000000000000000000000000000000000000919091166000908152602092909252604090912080547fffffffffffffffffffffffffffffffffffffffffffffffffffffffffffffff0016911515919091179055565b60006020828403121561098757600080fd5b5035919050565b60005b838110156109a9578181015183820152602001610991565b50506000910152565b60208152600082518060208401526109d181604085016020870161098e565b601f017fffffffffffffffffffffffffffffffffffffffffffffffffffffffffffffffe0169190910160400192915050565b600080600060408486031215610a1857600080fd5b83359250602084013567ffffffffffffffff80821115610a3757600080fd5b818601915086601f830112610a4b57600080fd5b813581811115610a5a57600080fd5b876020828501011115610a6c57600080fd5b6020830194508093505050509250925092565b60008083601f840112610a9157600080fd5b50813567ffffffffffffffff811115610aa957600080fd5b6020830191508360208260051b8501011115610ac457600080fd5b9250929050565b60008060008060408587031215610ae157600080fd5b843567ffffffffffffffff80821115610af957600080fd5b610b0588838901610a7f565b90965094506020870135915080821115610b1e57600080fd5b50610b2b87828801610a7f565b95989497509550505050565b818103818111156100be577f4e487b7100000000000000000000000000000000000000000000000000000000600052601160045260246000fd5b600181811c90821680610b8557607f821691505b602082108103610bbe577f4e487b7100000000000000000000000000000000000000000000000000000000600052602260045260246000fd5b50919050565b7f416363657373436f6e74726f6c3a206d697373696e6720270000000000000000815260008251610bfc81601885016020870161098e565b7f2720726f6c6500000000000000000000000000000000000000000000000000006018939091019283015250601e01919050565b7f4e487b7100000000000000000000000000000000000000000000000000000000600052604160045260246000fd5b601f82111561014a57600081815260208120601f850160051c81016020861015610c865750805b601f850160051c820191505b81811015610ca557828155600101610c92565b505050505050565b815167ffffffffffffffff811115610cc757610cc7610c30565b610cdb81610cd58454610b71565b84610c5f565b602080601f831160018114610d2e5760008415610cf85750858301515b7fffffffffffffffffffffffffffffffffffffffffffffffffffffffffffffffff600386901b1c1916600185901b178555610ca5565b6000858152602081207fffffffffffffffffffffffffffffffffffffffffffffffffffffffffffffffe08616915b82811015610d7b57888601518255948401946001909101908401610d5c565b5085821015610db757878501517fffffffffffffffffffffffffffffffffffffffffffffffffffffffffffffffff600388901b60f8161c191681555b5050505050600190811b01905550565b7f4e487b7100000000000000000000000000000000000000000000000000000000600052603260045260246000fd5b60008083357fffffffffffffffffffffffffffffffffffffffffffffffffffffffffffffffe1843603018112610e2b57600080fd5b83018035915067ffffffffffffffff821115610e4657600080fd5b602001915036819003821315610ac457600080fd5b67ffffffffffffffff831115610e7357610e73610c30565b610e8783610e818354610b71565b83610c5f565b6000601f841160018114610ed95760008515610ea35750838201355b7fffffffffffffffffffffffffffffffffffffffffffffffffffffffffffffffff600387901b1c1916600186901b178355610f6f565b6000838152602090207fffffffffffffffffffffffffffffffffffffffffffffffffffffffffffffffe0861690835b82811015610f285786850135825560209485019460019092019101610f08565b5086821015610f63577fffffffffffffffffffffffffffffffffffffffffffffffffffffffffffffffff60f88860031b161c19848701351681555b505060018560011b0183555b5050505050565b600060208284031215610f8857600080fd5b81518015158114610f9857600080fd5b939250505056fea26469706673582212204cfcbac58299f4e59298307ea525388c1562301e7c88d9b0d25a116db00d42d564736f6c63430008110033",
  "linkReferences": {},
  "deployedLinkReferences": {}
}