{
  "_format": "hh-sol-artifact-1",
  "contractName": "ERC1155WithOperatorFiltererFacetMock",
  "sourceName": "contracts/mocks/token/ERC1155/facets/ERC1155WithOperatorFiltererFacetMock.sol",
  "abi": [
    {
      "inputs": [
        {
          "internalType": "contract IForwarderRegistry",
          "name": "forwarderRegistry",
          "type": "address"
        }
      ],
      "stateMutability": "nonpayable",
      "type": "constructor"
    },
    {
      "inputs": [],
      "name": "ERC1155BalanceOfAddressZero",
      "type": "error"
    },
    {
      "inputs": [
        {
          "internalType": "address",
          "name": "recipient",
          "type": "address"
        },
        {
          "internalType": "uint256",
          "name": "id",
          "type": "uint256"
        },
        {
          "internalType": "uint256",
          "name": "balance",
          "type": "uint256"
        },
        {
          "internalType": "uint256",
          "name": "value",
          "type": "uint256"
        }
      ],
      "name": "ERC1155BalanceOverflow",
      "type": "error"
    },
    {
      "inputs": [
        {
          "internalType": "address",
          "name": "owner",
          "type": "address"
        },
        {
          "internalType": "uint256",
          "name": "id",
          "type": "uint256"
        },
        {
          "internalType": "uint256",
          "name": "balance",
          "type": "uint256"
        },
        {
          "internalType": "uint256",
          "name": "value",
          "type": "uint256"
        }
      ],
      "name": "ERC1155InsufficientBalance",
      "type": "error"
    },
    {
      "inputs": [
        {
          "internalType": "address",
          "name": "sender",
          "type": "address"
        },
        {
          "internalType": "address",
          "name": "owner",
          "type": "address"
        }
      ],
      "name": "ERC1155NonApproved",
      "type": "error"
    },
    {
      "inputs": [
        {
          "internalType": "address",
          "name": "recipient",
          "type": "address"
        },
        {
          "internalType": "uint256[]",
          "name": "ids",
          "type": "uint256[]"
        },
        {
          "internalType": "uint256[]",
          "name": "values",
          "type": "uint256[]"
        }
      ],
      "name": "ERC1155SafeBatchTransferRejected",
      "type": "error"
    },
    {
      "inputs": [
        {
          "internalType": "address",
          "name": "recipient",
          "type": "address"
        },
        {
          "internalType": "uint256",
          "name": "id",
          "type": "uint256"
        },
        {
          "internalType": "uint256",
          "name": "value",
          "type": "uint256"
        }
      ],
      "name": "ERC1155SafeTransferRejected",
      "type": "error"
    },
    {
      "inputs": [
        {
          "internalType": "address",
          "name": "account",
          "type": "address"
        }
      ],
      "name": "ERC1155SelfApprovalForAll",
      "type": "error"
    },
    {
      "inputs": [],
      "name": "ERC1155TransferToAddressZero",
      "type": "error"
    },
    {
      "inputs": [],
      "name": "IllegalInterfaceId",
      "type": "error"
    },
    {
      "inputs": [],
      "name": "InconsistentArrayLengths",
      "type": "error"
    },
    {
      "inputs": [
        {
          "internalType": "address",
          "name": "account",
          "type": "address"
        }
      ],
      "name": "NotProxyAdmin",
      "type": "error"
    },
    {
      "inputs": [
        {
          "internalType": "address",
          "name": "operator",
          "type": "address"
        }
      ],
      "name": "OperatorNotAllowed",
      "type": "error"
    },
    {
      "anonymous": false,
      "inputs": [
        {
          "indexed": true,
          "internalType": "address",
          "name": "owner",
          "type": "address"
        },
        {
          "indexed": true,
          "internalType": "address",
          "name": "operator",
          "type": "address"
        },
        {
          "indexed": false,
          "internalType": "bool",
          "name": "approved",
          "type": "bool"
        }
      ],
      "name": "ApprovalForAll",
      "type": "event"
    },
    {
      "anonymous": false,
      "inputs": [
        {
          "indexed": true,
          "internalType": "address",
          "name": "operator",
          "type": "address"
        },
        {
          "indexed": true,
          "internalType": "address",
          "name": "from",
          "type": "address"
        },
        {
          "indexed": true,
          "internalType": "address",
          "name": "to",
          "type": "address"
        },
        {
          "indexed": false,
          "internalType": "uint256[]",
          "name": "ids",
          "type": "uint256[]"
        },
        {
          "indexed": false,
          "internalType": "uint256[]",
          "name": "values",
          "type": "uint256[]"
        }
      ],
      "name": "TransferBatch",
      "type": "event"
    },
    {
      "anonymous": false,
      "inputs": [
        {
          "indexed": true,
          "internalType": "address",
          "name": "operator",
          "type": "address"
        },
        {
          "indexed": true,
          "internalType": "address",
          "name": "from",
          "type": "address"
        },
        {
          "indexed": true,
          "internalType": "address",
          "name": "to",
          "type": "address"
        },
        {
          "indexed": false,
          "internalType": "uint256",
          "name": "id",
          "type": "uint256"
        },
        {
          "indexed": false,
          "internalType": "uint256",
          "name": "value",
          "type": "uint256"
        }
      ],
      "name": "TransferSingle",
      "type": "event"
    },
    {
      "anonymous": false,
      "inputs": [
        {
          "indexed": false,
          "internalType": "string",
          "name": "value",
          "type": "string"
        },
        {
          "indexed": true,
          "internalType": "uint256",
          "name": "id",
          "type": "uint256"
        }
      ],
      "name": "URI",
      "type": "event"
    },
    {
      "inputs": [],
      "name": "__msgData",
      "outputs": [
        {
          "internalType": "bytes",
          "name": "",
          "type": "bytes"
        }
      ],
      "stateMutability": "view",
      "type": "function"
    },
    {
      "inputs": [
        {
          "internalType": "address",
          "name": "owner",
          "type": "address"
        },
        {
          "internalType": "uint256",
          "name": "id",
          "type": "uint256"
        }
      ],
      "name": "balanceOf",
      "outputs": [
        {
          "internalType": "uint256",
          "name": "balance",
          "type": "uint256"
        }
      ],
      "stateMutability": "view",
      "type": "function"
    },
    {
      "inputs": [
        {
          "internalType": "address[]",
          "name": "owners",
          "type": "address[]"
        },
        {
          "internalType": "uint256[]",
          "name": "ids",
          "type": "uint256[]"
        }
      ],
      "name": "balanceOfBatch",
      "outputs": [
        {
          "internalType": "uint256[]",
          "name": "balances",
          "type": "uint256[]"
        }
      ],
      "stateMutability": "view",
      "type": "function"
    },
    {
      "inputs": [],
      "name": "initERC1155Storage",
      "outputs": [],
      "stateMutability": "nonpayable",
      "type": "function"
    },
    {
      "inputs": [
        {
          "internalType": "address",
          "name": "owner",
          "type": "address"
        },
        {
          "internalType": "address",
          "name": "operator",
          "type": "address"
        }
      ],
      "name": "isApprovedForAll",
      "outputs": [
        {
          "internalType": "bool",
          "name": "approvedForAll",
          "type": "bool"
        }
      ],
      "stateMutability": "view",
      "type": "function"
    },
    {
      "inputs": [
        {
          "internalType": "address",
          "name": "from",
          "type": "address"
        },
        {
          "internalType": "address",
          "name": "to",
          "type": "address"
        },
        {
          "internalType": "uint256[]",
          "name": "ids",
          "type": "uint256[]"
        },
        {
          "internalType": "uint256[]",
          "name": "values",
          "type": "uint256[]"
        },
        {
          "internalType": "bytes",
          "name": "data",
          "type": "bytes"
        }
      ],
      "name": "safeBatchTransferFrom",
      "outputs": [],
      "stateMutability": "nonpayable",
      "type": "function"
    },
    {
      "inputs": [
        {
          "internalType": "address",
          "name": "from",
          "type": "address"
        },
        {
          "internalType": "address",
          "name": "to",
          "type": "address"
        },
        {
          "internalType": "uint256",
          "name": "id",
          "type": "uint256"
        },
        {
          "internalType": "uint256",
          "name": "value",
          "type": "uint256"
        },
        {
          "internalType": "bytes",
          "name": "data",
          "type": "bytes"
        }
      ],
      "name": "safeTransferFrom",
      "outputs": [],
      "stateMutability": "nonpayable",
      "type": "function"
    },
    {
      "inputs": [
        {
          "internalType": "address",
          "name": "operator",
          "type": "address"
        },
        {
          "internalType": "bool",
          "name": "approved",
          "type": "bool"
        }
      ],
      "name": "setApprovalForAll",
      "outputs": [],
      "stateMutability": "nonpayable",
      "type": "function"
    }
  ],
  "bytecode": "0x60a060405234801561001057600080fd5b50604051611c36380380611c3683398101604081905261002f91610040565b6001600160a01b0316608052610070565b60006020828403121561005257600080fd5b81516001600160a01b038116811461006957600080fd5b9392505050565b608051611b966100a060003960008181610b9101528181610c190152818161111f015261115d0152611b966000f3fe608060405234801561001057600080fd5b50600436106100875760003560e01c8063a22cb4651161005b578063a22cb465146100fd578063c34106c814610110578063e985e9c514610118578063f242432a1461013b57600080fd5b8062fdd58e1461008c5780632eb2c2d6146100b257806331e66e1e146100c75780634e1273f4146100dd575b600080fd5b61009f61009a3660046114d4565b61014e565b6040519081526020015b60405180910390f35b6100c56100c036600461158c565b61016d565b005b6100cf6101ba565b6040516100a9929190611647565b6100f06100eb366004611694565b6101cd565b6040516100a9919061173b565b6100c561010b36600461175f565b6101f0565b6100c5610229565b61012b610126366004611796565b61024c565b60405190151581526020016100a9565b6100c56101493660046117c9565b61029a565b6000610164838361015d6102da565b9190610308565b90505b92915050565b600061017761038c565b905061018d818a61018661039b565b91906103c9565b6101af818a8a8a8a8a8a8a8a6101a16102da565b98979695949392919061040b565b505050505050505050565b3660006101c5610698565b915091509091565b60606101e7858585856101de6102da565b939291906106a3565b95945050505050565b8015610208576102088261020261039b565b906107b1565b61022561021361038c565b838361021d6102da565b9291906107bb565b5050565b61024261023461038c565b61023c6108d3565b90610901565b61024a61096c565b565b6000610164838361025b6102da565b919073ffffffffffffffffffffffffffffffffffffffff9182166000908152600193909301602090815260408085209290931684525290205460ff1690565b60006102a461038c565b90506102b3818861018661039b565b6102d1818888888888886102c56102da565b969594939291906109a1565b50505050505050565b60008061016760017f5ccf5846fa27a68fafc8e588671a68f5e67c2f9b56af4263806a4d71735e8613611841565b600073ffffffffffffffffffffffffffffffffffffffff8316610357576040517fca2434a500000000000000000000000000000000000000000000000000000000815260040160405180910390fd5b5060009081526020928352604080822073ffffffffffffffffffffffffffffffffffffffff9390931682529190925290205490565b6000610396610b4e565b905090565b60008061016760017f609b85bcafa81ecfaf3ff62cdde2c6c9082a68dbe4922f07399c706bdeb7cd31611841565b8073ffffffffffffffffffffffffffffffffffffffff168273ffffffffffffffffffffffffffffffffffffffff1614610406576104068383610c95565b505050565b73ffffffffffffffffffffffffffffffffffffffff8716610458576040517fb5e8901500000000000000000000000000000000000000000000000000000000815260040160405180910390fd5b84838114610492576040517f6582533600000000000000000000000000000000000000000000000000000000815260040160405180910390fd5b61049d8b8a8c610dbc565b6104f8576040517f05bbb9c400000000000000000000000000000000000000000000000000000000815273ffffffffffffffffffffffffffffffffffffffff808c1660048301528a1660248201526044015b60405180910390fd5b60005b8181146105475761053f8c8b8b8b8b8681811061051a5761051a61187b565b905060200201358a8a878181106105335761053361187b565b90506020020135610e34565b6001016104fb565b508773ffffffffffffffffffffffffffffffffffffffff168973ffffffffffffffffffffffffffffffffffffffff168b73ffffffffffffffffffffffffffffffffffffffff167f4a39dc06d4c0dbc64b70af90fd698a233a518aa5d07e595d983b8c0526c8f7fb8a8a8a8a6040516105c294939291906118f5565b60405180910390a473ffffffffffffffffffffffffffffffffffffffff88163b1561068b5761068b8a8a8a8a8a8080602002602001604051908101604052809392919081815260200183836020028082843760009201919091525050604080516020808e0282810182019093528d82529093508d92508c91829185019084908082843760009201919091525050604080516020601f8d018190048102820181019092528b815292508b91508a9081908401838280828437600092019190915250610fe292505050565b5050505050505050505050565b3660006101c56110e8565b6060838281146106df576040517f6582533600000000000000000000000000000000000000000000000000000000815260040160405180910390fd5b8467ffffffffffffffff8111156106f8576106f8611927565b604051908082528060200260200182016040528015610721578160200160208202803683370190505b50915060005b8181146107a6576107818787838181106107435761074361187b565b90506020020160208101906107589190611956565b86868481811061076a5761076a61187b565b905060200201358a6103089092919063ffffffff16565b8382815181106107935761079361187b565b6020908102919091010152600101610727565b505095945050505050565b6102258282610c95565b8273ffffffffffffffffffffffffffffffffffffffff168273ffffffffffffffffffffffffffffffffffffffff1603610838576040517ffb0fdf6100000000000000000000000000000000000000000000000000000000815273ffffffffffffffffffffffffffffffffffffffff841660048201526024016104ef565b73ffffffffffffffffffffffffffffffffffffffff838116600081815260018701602090815260408083209487168084529482529182902080547fffffffffffffffffffffffffffffffffffffffffffffffffffffffffffffff001686151590811790915591519182527f17307eab39ab6107e8899845ad3d59bd9653f200f220920489ca2b5937696c31910160405180910390a350505050565b60008061016760017fb53127684a568b3173ae13b9f8a6016e243e63b6e8ee1178d6a717850b5d6104611841565b815473ffffffffffffffffffffffffffffffffffffffff828116911614610225576040517f673a31a100000000000000000000000000000000000000000000000000000000815273ffffffffffffffffffffffffffffffffffffffff821660048201526024016104ef565b61024a7fd9b67a2600000000000000000000000000000000000000000000000000000000600161099a611252565b9190611280565b73ffffffffffffffffffffffffffffffffffffffff85166109ee576040517fb5e8901500000000000000000000000000000000000000000000000000000000815260040160405180910390fd5b6109f9888789610dbc565b610a4f576040517f05bbb9c400000000000000000000000000000000000000000000000000000000815273ffffffffffffffffffffffffffffffffffffffff8089166004830152871660248201526044016104ef565b610a5c8887878787610e34565b8473ffffffffffffffffffffffffffffffffffffffff168673ffffffffffffffffffffffffffffffffffffffff168873ffffffffffffffffffffffffffffffffffffffff167fc3d58168c5ae7397731d063d5bbf3d657854427343f4c083240f7aacaa2d0f628787604051610adb929190918252602082015260400190565b60405180910390a473ffffffffffffffffffffffffffffffffffffffff85163b15610b4457610b44878787878787878080601f01602080910402602001604051908101604052809392919081815260200183838082843760009201919091525061135c92505050565b5050505050505050565b600033321480610b5e5750601836105b15610b6857503390565b7fffffffffffffffffffffffffffffffffffffffffffffffffffffffffffffffec36013560601c7f000000000000000000000000000000000000000000000000000000000000000073ffffffffffffffffffffffffffffffffffffffff16331480610c8457506040517f8929a8ca00000000000000000000000000000000000000000000000000000000815273ffffffffffffffffffffffffffffffffffffffff82811660048301523360248301527f00000000000000000000000000000000000000000000000000000000000000001690638929a8ca90604401602060405180830381865afa158015610c60573d6000803e3d6000fd5b505050506040513d601f19601f82011682018060405250810190610c849190611971565b15610c8e57919050565b3391505090565b815473ffffffffffffffffffffffffffffffffffffffff168015801590610cd3575060008173ffffffffffffffffffffffffffffffffffffffff163b115b15610406576040517fc617113400000000000000000000000000000000000000000000000000000000815230600482015273ffffffffffffffffffffffffffffffffffffffff838116602483015282169063c617113490604401602060405180830381865afa158015610d4a573d6000803e3d6000fd5b505050506040513d601f19601f82011682018060405250810190610d6e9190611971565b610406576040517fede71dcc00000000000000000000000000000000000000000000000000000000815273ffffffffffffffffffffffffffffffffffffffff831660048201526024016104ef565b60008173ffffffffffffffffffffffffffffffffffffffff168373ffffffffffffffffffffffffffffffffffffffff161480610e2c575073ffffffffffffffffffffffffffffffffffffffff808416600090815260018601602090815260408083209386168352929052205460ff165b949350505050565b8015610fdb5760008281526020868152604080832073ffffffffffffffffffffffffffffffffffffffff88168452909152902054818103818110610ed1576040517f03dee4c500000000000000000000000000000000000000000000000000000000815273ffffffffffffffffffffffffffffffffffffffff871660048201526024810185905260448101839052606481018490526084016104ef565b8473ffffffffffffffffffffffffffffffffffffffff168673ffffffffffffffffffffffffffffffffffffffff16146102d15760008481526020888152604080832073ffffffffffffffffffffffffffffffffffffffff89168452909152902054838101818111610f9b576040517f42fb00bc00000000000000000000000000000000000000000000000000000000815273ffffffffffffffffffffffffffffffffffffffff881660048201526024810187905260448101839052606481018690526084016104ef565b600086815260208a8152604080832073ffffffffffffffffffffffffffffffffffffffff808d1685528184528285208890558b1684529091529020555050505b5050505050565b6040517fbc197c81000000000000000000000000000000000000000000000000000000008082529073ffffffffffffffffffffffffffffffffffffffff86169063bc197c819061103e908a908a908990899089906004016119f9565b6020604051808303816000875af115801561105d573d6000803e3d6000fd5b505050506040513d601f19601f820116820180604052508101906110819190611a64565b7fffffffff0000000000000000000000000000000000000000000000000000000016146110e0578383836040517fc287817e0000000000000000000000000000000000000000000000000000000081526004016104ef93929190611aa6565b505050505050565b366000333214806110f95750601836105b156111075750600091369150565b3373ffffffffffffffffffffffffffffffffffffffff7f000000000000000000000000000000000000000000000000000000000000000016148061123c575073ffffffffffffffffffffffffffffffffffffffff7f000000000000000000000000000000000000000000000000000000000000000016638929a8ca367fffffffffffffffffffffffffffffffffffffffffffffffffffffffffffffffec013560601c6040517fffffffff0000000000000000000000000000000000000000000000000000000060e084901b16815273ffffffffffffffffffffffffffffffffffffffff9091166004820152336024820152604401602060405180830381865afa158015611218573d6000803e3d6000fd5b505050506040513d601f19601f8201168201806040525081019061123c9190611971565b15611249576101c561147a565b50600091369150565b60008061016760017fca9d3e17f264b0f3984e2634e94adb37fa3e6a8103f06aeae6fa59e21c769f5e611841565b7c01000000000000000000000000000000000000000000000000000000007fffffffff000000000000000000000000000000000000000000000000000000008316016112f8576040517f72c683bb00000000000000000000000000000000000000000000000000000000815260040160405180910390fd5b7fffffffff00000000000000000000000000000000000000000000000000000000919091166000908152602092909252604090912080547fffffffffffffffffffffffffffffffffffffffffffffffffffffffffffffff0016911515919091179055565b6040517ff23a6e61000000000000000000000000000000000000000000000000000000008082529073ffffffffffffffffffffffffffffffffffffffff86169063f23a6e61906113b8908a908a90899089908990600401611af1565b6020604051808303816000875af11580156113d7573d6000803e3d6000fd5b505050506040513d601f19601f820116820180604052508101906113fb9190611a64565b7fffffffff0000000000000000000000000000000000000000000000000000000016146110e0576040517f40f39d3800000000000000000000000000000000000000000000000000000000815273ffffffffffffffffffffffffffffffffffffffff8516600482015260248101849052604481018390526064016104ef565b3660006101c57fffffffffffffffffffffffffffffffffffffffffffffffffffffffffffffffec8301828481611b36565b803573ffffffffffffffffffffffffffffffffffffffff811681146114cf57600080fd5b919050565b600080604083850312156114e757600080fd5b6114f0836114ab565b946020939093013593505050565b60008083601f84011261151057600080fd5b50813567ffffffffffffffff81111561152857600080fd5b6020830191508360208260051b850101111561154357600080fd5b9250929050565b60008083601f84011261155c57600080fd5b50813567ffffffffffffffff81111561157457600080fd5b60208301915083602082850101111561154357600080fd5b60008060008060008060008060a0898b0312156115a857600080fd5b6115b1896114ab565b97506115bf60208a016114ab565b9650604089013567ffffffffffffffff808211156115dc57600080fd5b6115e88c838d016114fe565b909850965060608b013591508082111561160157600080fd5b61160d8c838d016114fe565b909650945060808b013591508082111561162657600080fd5b506116338b828c0161154a565b999c989b5096995094979396929594505050565b60208152816020820152818360408301376000818301604090810191909152601f9092017fffffffffffffffffffffffffffffffffffffffffffffffffffffffffffffffe0160101919050565b600080600080604085870312156116aa57600080fd5b843567ffffffffffffffff808211156116c257600080fd5b6116ce888389016114fe565b909650945060208701359150808211156116e757600080fd5b506116f4878288016114fe565b95989497509550505050565b600081518084526020808501945080840160005b8381101561173057815187529582019590820190600101611714565b509495945050505050565b6020815260006101646020830184611700565b801515811461175c57600080fd5b50565b6000806040838503121561177257600080fd5b61177b836114ab565b9150602083013561178b8161174e565b809150509250929050565b600080604083850312156117a957600080fd5b6117b2836114ab565b91506117c0602084016114ab565b90509250929050565b60008060008060008060a087890312156117e257600080fd5b6117eb876114ab565b95506117f9602088016114ab565b94506040870135935060608701359250608087013567ffffffffffffffff81111561182357600080fd5b61182f89828a0161154a565b979a9699509497509295939492505050565b81810381811115610167577f4e487b7100000000000000000000000000000000000000000000000000000000600052601160045260246000fd5b7f4e487b7100000000000000000000000000000000000000000000000000000000600052603260045260246000fd5b81835260007f07ffffffffffffffffffffffffffffffffffffffffffffffffffffffffffffff8311156118dc57600080fd5b8260051b80836020870137939093016020019392505050565b6040815260006119096040830186886118aa565b828103602084015261191c8185876118aa565b979650505050505050565b7f4e487b7100000000000000000000000000000000000000000000000000000000600052604160045260246000fd5b60006020828403121561196857600080fd5b610164826114ab565b60006020828403121561198357600080fd5b815161198e8161174e565b9392505050565b6000815180845260005b818110156119bb5760208185018101518683018201520161199f565b5060006020828601015260207fffffffffffffffffffffffffffffffffffffffffffffffffffffffffffffffe0601f83011685010191505092915050565b600073ffffffffffffffffffffffffffffffffffffffff808816835280871660208401525060a06040830152611a3260a0830186611700565b8281036060840152611a448186611700565b90508281036080840152611a588185611995565b98975050505050505050565b600060208284031215611a7657600080fd5b81517fffffffff000000000000000000000000000000000000000000000000000000008116811461198e57600080fd5b73ffffffffffffffffffffffffffffffffffffffff84168152606060208201526000611ad56060830185611700565b8281036040840152611ae78185611700565b9695505050505050565b600073ffffffffffffffffffffffffffffffffffffffff808816835280871660208401525084604083015283606083015260a0608083015261191c60a0830184611995565b60008085851115611b4657600080fd5b83861115611b5357600080fd5b505082019391909203915056fea26469706673582212203527dd718e1e9b33d382f2817fa6a5affb245715ce76316486e0d8fba1036ea164736f6c63430008150033",
  "linkReferences": {},
  "deployedLinkReferences": {}
}