{
  "_format": "hh-sol-artifact-1",
  "contractName": "ERC1155WithOperatorFiltererFacetMock",
  "sourceName": "contracts/mocks/token/ERC1155/facets/ERC1155WithOperatorFiltererFacetMock.sol",
  "abi": [
    {
      "inputs": [
        {
          "internalType": "contract IForwarderRegistry",
          "name": "forwarderRegistry",
          "type": "address"
        }
      ],
      "stateMutability": "nonpayable",
      "type": "constructor"
    },
    {
      "inputs": [],
      "name": "ERC1155BalanceOfAddressZero",
      "type": "error"
    },
    {
      "inputs": [
        {
          "internalType": "address",
          "name": "recipient",
          "type": "address"
        },
        {
          "internalType": "uint256",
          "name": "id",
          "type": "uint256"
        },
        {
          "internalType": "uint256",
          "name": "balance",
          "type": "uint256"
        },
        {
          "internalType": "uint256",
          "name": "value",
          "type": "uint256"
        }
      ],
      "name": "ERC1155BalanceOverflow",
      "type": "error"
    },
    {
      "inputs": [
        {
          "internalType": "address",
          "name": "owner",
          "type": "address"
        },
        {
          "internalType": "uint256",
          "name": "id",
          "type": "uint256"
        },
        {
          "internalType": "uint256",
          "name": "balance",
          "type": "uint256"
        },
        {
          "internalType": "uint256",
          "name": "value",
          "type": "uint256"
        }
      ],
      "name": "ERC1155InsufficientBalance",
      "type": "error"
    },
    {
      "inputs": [
        {
          "internalType": "address",
          "name": "sender",
          "type": "address"
        },
        {
          "internalType": "address",
          "name": "owner",
          "type": "address"
        }
      ],
      "name": "ERC1155NonApproved",
      "type": "error"
    },
    {
      "inputs": [
        {
          "internalType": "address",
          "name": "recipient",
          "type": "address"
        },
        {
          "internalType": "uint256[]",
          "name": "ids",
          "type": "uint256[]"
        },
        {
          "internalType": "uint256[]",
          "name": "values",
          "type": "uint256[]"
        }
      ],
      "name": "ERC1155SafeBatchTransferRejected",
      "type": "error"
    },
    {
      "inputs": [
        {
          "internalType": "address",
          "name": "recipient",
          "type": "address"
        },
        {
          "internalType": "uint256",
          "name": "id",
          "type": "uint256"
        },
        {
          "internalType": "uint256",
          "name": "value",
          "type": "uint256"
        }
      ],
      "name": "ERC1155SafeTransferRejected",
      "type": "error"
    },
    {
      "inputs": [
        {
          "internalType": "address",
          "name": "account",
          "type": "address"
        }
      ],
      "name": "ERC1155SelfApprovalForAll",
      "type": "error"
    },
    {
      "inputs": [],
      "name": "ERC1155TransferToAddressZero",
      "type": "error"
    },
    {
      "inputs": [],
      "name": "IllegalInterfaceId",
      "type": "error"
    },
    {
      "inputs": [],
      "name": "InconsistentArrayLengths",
      "type": "error"
    },
    {
      "inputs": [
        {
          "internalType": "address",
          "name": "account",
          "type": "address"
        }
      ],
      "name": "NotProxyAdmin",
      "type": "error"
    },
    {
      "inputs": [
        {
          "internalType": "address",
          "name": "operator",
          "type": "address"
        }
      ],
      "name": "OperatorNotAllowed",
      "type": "error"
    },
    {
      "anonymous": false,
      "inputs": [
        {
          "indexed": true,
          "internalType": "address",
          "name": "owner",
          "type": "address"
        },
        {
          "indexed": true,
          "internalType": "address",
          "name": "operator",
          "type": "address"
        },
        {
          "indexed": false,
          "internalType": "bool",
          "name": "approved",
          "type": "bool"
        }
      ],
      "name": "ApprovalForAll",
      "type": "event"
    },
    {
      "anonymous": false,
      "inputs": [
        {
          "indexed": true,
          "internalType": "address",
          "name": "operator",
          "type": "address"
        },
        {
          "indexed": true,
          "internalType": "address",
          "name": "from",
          "type": "address"
        },
        {
          "indexed": true,
          "internalType": "address",
          "name": "to",
          "type": "address"
        },
        {
          "indexed": false,
          "internalType": "uint256[]",
          "name": "ids",
          "type": "uint256[]"
        },
        {
          "indexed": false,
          "internalType": "uint256[]",
          "name": "values",
          "type": "uint256[]"
        }
      ],
      "name": "TransferBatch",
      "type": "event"
    },
    {
      "anonymous": false,
      "inputs": [
        {
          "indexed": true,
          "internalType": "address",
          "name": "operator",
          "type": "address"
        },
        {
          "indexed": true,
          "internalType": "address",
          "name": "from",
          "type": "address"
        },
        {
          "indexed": true,
          "internalType": "address",
          "name": "to",
          "type": "address"
        },
        {
          "indexed": false,
          "internalType": "uint256",
          "name": "id",
          "type": "uint256"
        },
        {
          "indexed": false,
          "internalType": "uint256",
          "name": "value",
          "type": "uint256"
        }
      ],
      "name": "TransferSingle",
      "type": "event"
    },
    {
      "inputs": [],
      "name": "__msgData",
      "outputs": [
        {
          "internalType": "bytes",
          "name": "",
          "type": "bytes"
        }
      ],
      "stateMutability": "view",
      "type": "function"
    },
    {
      "inputs": [
        {
          "internalType": "address",
          "name": "owner",
          "type": "address"
        },
        {
          "internalType": "uint256",
          "name": "id",
          "type": "uint256"
        }
      ],
      "name": "balanceOf",
      "outputs": [
        {
          "internalType": "uint256",
          "name": "balance",
          "type": "uint256"
        }
      ],
      "stateMutability": "view",
      "type": "function"
    },
    {
      "inputs": [
        {
          "internalType": "address[]",
          "name": "owners",
          "type": "address[]"
        },
        {
          "internalType": "uint256[]",
          "name": "ids",
          "type": "uint256[]"
        }
      ],
      "name": "balanceOfBatch",
      "outputs": [
        {
          "internalType": "uint256[]",
          "name": "balances",
          "type": "uint256[]"
        }
      ],
      "stateMutability": "view",
      "type": "function"
    },
    {
      "inputs": [],
      "name": "initERC1155Storage",
      "outputs": [],
      "stateMutability": "nonpayable",
      "type": "function"
    },
    {
      "inputs": [
        {
          "internalType": "address",
          "name": "owner",
          "type": "address"
        },
        {
          "internalType": "address",
          "name": "operator",
          "type": "address"
        }
      ],
      "name": "isApprovedForAll",
      "outputs": [
        {
          "internalType": "bool",
          "name": "approvedForAll",
          "type": "bool"
        }
      ],
      "stateMutability": "view",
      "type": "function"
    },
    {
      "inputs": [
        {
          "internalType": "address",
          "name": "from",
          "type": "address"
        },
        {
          "internalType": "address",
          "name": "to",
          "type": "address"
        },
        {
          "internalType": "uint256[]",
          "name": "ids",
          "type": "uint256[]"
        },
        {
          "internalType": "uint256[]",
          "name": "values",
          "type": "uint256[]"
        },
        {
          "internalType": "bytes",
          "name": "data",
          "type": "bytes"
        }
      ],
      "name": "safeBatchTransferFrom",
      "outputs": [],
      "stateMutability": "nonpayable",
      "type": "function"
    },
    {
      "inputs": [
        {
          "internalType": "address",
          "name": "from",
          "type": "address"
        },
        {
          "internalType": "address",
          "name": "to",
          "type": "address"
        },
        {
          "internalType": "uint256",
          "name": "id",
          "type": "uint256"
        },
        {
          "internalType": "uint256",
          "name": "value",
          "type": "uint256"
        },
        {
          "internalType": "bytes",
          "name": "data",
          "type": "bytes"
        }
      ],
      "name": "safeTransferFrom",
      "outputs": [],
      "stateMutability": "nonpayable",
      "type": "function"
    },
    {
      "inputs": [
        {
          "internalType": "address",
          "name": "operator",
          "type": "address"
        },
        {
          "internalType": "bool",
          "name": "approved",
          "type": "bool"
        }
      ],
      "name": "setApprovalForAll",
      "outputs": [],
      "stateMutability": "nonpayable",
      "type": "function"
    }
  ],
  "bytecode": "0x60a060405234801561001057600080fd5b50604051611c39380380611c3983398101604081905261002f91610040565b6001600160a01b0316608052610070565b60006020828403121561005257600080fd5b81516001600160a01b038116811461006957600080fd5b9392505050565b608051611b996100a060003960008181610b9301528181610c1b01528181611121015261115f0152611b996000f3fe608060405234801561001057600080fd5b50600436106100875760003560e01c8063a22cb4651161005b578063a22cb465146100fd578063c34106c814610110578063e985e9c514610118578063f242432a1461013b57600080fd5b8062fdd58e1461008c5780632eb2c2d6146100b257806331e66e1e146100c75780634e1273f4146100dd575b600080fd5b61009f61009a3660046114d6565b61014e565b6040519081526020015b60405180910390f35b6100c56100c036600461158e565b61016d565b005b6100cf6101ba565b6040516100a9929190611649565b6100f06100eb366004611696565b6101cd565b6040516100a9919061173e565b6100c561010b366004611762565b6101f0565b6100c5610229565b61012b610126366004611799565b61024c565b60405190151581526020016100a9565b6100c56101493660046117cc565b61029a565b6000610164838361015d6102da565b9190610308565b90505b92915050565b600061017761038c565b905061018d818a61018661039b565b91906103c9565b6101af818a8a8a8a8a8a8a8a6101a16102da565b98979695949392919061040b565b505050505050505050565b3660006101c5610699565b915091509091565b60606101e7858585856101de6102da565b939291906106a4565b95945050505050565b8015610208576102088261020261039b565b906107b3565b61022561021361038c565b838361021d6102da565b9291906107bd565b5050565b61024261023461038c565b61023c6108d5565b90610903565b61024a61096e565b565b6000610164838361025b6102da565b919073ffffffffffffffffffffffffffffffffffffffff9182166000908152600193909301602090815260408085209290931684525290205460ff1690565b60006102a461038c565b90506102b3818861018661039b565b6102d1818888888888886102c56102da565b969594939291906109a3565b50505050505050565b60008061016760017f5ccf5846fa27a68fafc8e588671a68f5e67c2f9b56af4263806a4d71735e8613611844565b600073ffffffffffffffffffffffffffffffffffffffff8316610357576040517fca2434a500000000000000000000000000000000000000000000000000000000815260040160405180910390fd5b5060009081526020928352604080822073ffffffffffffffffffffffffffffffffffffffff9390931682529190925290205490565b6000610396610b50565b905090565b60008061016760017f609b85bcafa81ecfaf3ff62cdde2c6c9082a68dbe4922f07399c706bdeb7cd31611844565b8073ffffffffffffffffffffffffffffffffffffffff168273ffffffffffffffffffffffffffffffffffffffff1614610406576104068383610c97565b505050565b73ffffffffffffffffffffffffffffffffffffffff8716610458576040517fb5e8901500000000000000000000000000000000000000000000000000000000815260040160405180910390fd5b84838114610492576040517f6582533600000000000000000000000000000000000000000000000000000000815260040160405180910390fd5b61049d8b8a8c610dbe565b6104f8576040517f05bbb9c400000000000000000000000000000000000000000000000000000000815273ffffffffffffffffffffffffffffffffffffffff808c1660048301528a1660248201526044015b60405180910390fd5b60005b81811015610548576105408c8b8b8b8b8681811061051b5761051b61187e565b905060200201358a8a878181106105345761053461187e565b90506020020135610e36565b6001016104fb565b508773ffffffffffffffffffffffffffffffffffffffff168973ffffffffffffffffffffffffffffffffffffffff168b73ffffffffffffffffffffffffffffffffffffffff167f4a39dc06d4c0dbc64b70af90fd698a233a518aa5d07e595d983b8c0526c8f7fb8a8a8a8a6040516105c394939291906118f8565b60405180910390a473ffffffffffffffffffffffffffffffffffffffff88163b1561068c5761068c8a8a8a8a8a8080602002602001604051908101604052809392919081815260200183836020028082843760009201919091525050604080516020808e0282810182019093528d82529093508d92508c91829185019084908082843760009201919091525050604080516020601f8d018190048102820181019092528b815292508b91508a9081908401838280828437600092019190915250610fe492505050565b5050505050505050505050565b3660006101c56110ea565b6060838281146106e0576040517f6582533600000000000000000000000000000000000000000000000000000000815260040160405180910390fd5b8467ffffffffffffffff8111156106f9576106f961192a565b604051908082528060200260200182016040528015610722578160200160208202803683370190505b50915060005b818110156107a8576107838787838181106107455761074561187e565b905060200201602081019061075a9190611959565b86868481811061076c5761076c61187e565b905060200201358a6103089092919063ffffffff16565b8382815181106107955761079561187e565b6020908102919091010152600101610728565b505095945050505050565b6102258282610c97565b8273ffffffffffffffffffffffffffffffffffffffff168273ffffffffffffffffffffffffffffffffffffffff160361083a576040517ffb0fdf6100000000000000000000000000000000000000000000000000000000815273ffffffffffffffffffffffffffffffffffffffff841660048201526024016104ef565b73ffffffffffffffffffffffffffffffffffffffff838116600081815260018701602090815260408083209487168084529482529182902080547fffffffffffffffffffffffffffffffffffffffffffffffffffffffffffffff001686151590811790915591519182527f17307eab39ab6107e8899845ad3d59bd9653f200f220920489ca2b5937696c31910160405180910390a350505050565b60008061016760017fb53127684a568b3173ae13b9f8a6016e243e63b6e8ee1178d6a717850b5d6104611844565b815473ffffffffffffffffffffffffffffffffffffffff828116911614610225576040517f673a31a100000000000000000000000000000000000000000000000000000000815273ffffffffffffffffffffffffffffffffffffffff821660048201526024016104ef565b61024a7fd9b67a2600000000000000000000000000000000000000000000000000000000600161099c611254565b9190611282565b73ffffffffffffffffffffffffffffffffffffffff85166109f0576040517fb5e8901500000000000000000000000000000000000000000000000000000000815260040160405180910390fd5b6109fb888789610dbe565b610a51576040517f05bbb9c400000000000000000000000000000000000000000000000000000000815273ffffffffffffffffffffffffffffffffffffffff8089166004830152871660248201526044016104ef565b610a5e8887878787610e36565b8473ffffffffffffffffffffffffffffffffffffffff168673ffffffffffffffffffffffffffffffffffffffff168873ffffffffffffffffffffffffffffffffffffffff167fc3d58168c5ae7397731d063d5bbf3d657854427343f4c083240f7aacaa2d0f628787604051610add929190918252602082015260400190565b60405180910390a473ffffffffffffffffffffffffffffffffffffffff85163b15610b4657610b46878787878787878080601f01602080910402602001604051908101604052809392919081815260200183838082843760009201919091525061135e92505050565b5050505050505050565b600033321480610b605750601836105b15610b6a57503390565b7fffffffffffffffffffffffffffffffffffffffffffffffffffffffffffffffec36013560601c7f000000000000000000000000000000000000000000000000000000000000000073ffffffffffffffffffffffffffffffffffffffff16331480610c8657506040517f8929a8ca00000000000000000000000000000000000000000000000000000000815273ffffffffffffffffffffffffffffffffffffffff82811660048301523360248301527f00000000000000000000000000000000000000000000000000000000000000001690638929a8ca90604401602060405180830381865afa158015610c62573d6000803e3d6000fd5b505050506040513d601f19601f82011682018060405250810190610c869190611974565b15610c9057919050565b3391505090565b815473ffffffffffffffffffffffffffffffffffffffff168015801590610cd5575060008173ffffffffffffffffffffffffffffffffffffffff163b115b15610406576040517fc617113400000000000000000000000000000000000000000000000000000000815230600482015273ffffffffffffffffffffffffffffffffffffffff838116602483015282169063c617113490604401602060405180830381865afa158015610d4c573d6000803e3d6000fd5b505050506040513d601f19601f82011682018060405250810190610d709190611974565b610406576040517fede71dcc00000000000000000000000000000000000000000000000000000000815273ffffffffffffffffffffffffffffffffffffffff831660048201526024016104ef565b60008173ffffffffffffffffffffffffffffffffffffffff168373ffffffffffffffffffffffffffffffffffffffff161480610e2e575073ffffffffffffffffffffffffffffffffffffffff808416600090815260018601602090815260408083209386168352929052205460ff165b949350505050565b8015610fdd5760008281526020868152604080832073ffffffffffffffffffffffffffffffffffffffff88168452909152902054818103818110610ed3576040517f03dee4c500000000000000000000000000000000000000000000000000000000815273ffffffffffffffffffffffffffffffffffffffff871660048201526024810185905260448101839052606481018490526084016104ef565b8473ffffffffffffffffffffffffffffffffffffffff168673ffffffffffffffffffffffffffffffffffffffff16146102d15760008481526020888152604080832073ffffffffffffffffffffffffffffffffffffffff89168452909152902054838101818111610f9d576040517f42fb00bc00000000000000000000000000000000000000000000000000000000815273ffffffffffffffffffffffffffffffffffffffff881660048201526024810187905260448101839052606481018690526084016104ef565b600086815260208a8152604080832073ffffffffffffffffffffffffffffffffffffffff808d1685528184528285208890558b1684529091529020555050505b5050505050565b6040517fbc197c81000000000000000000000000000000000000000000000000000000008082529073ffffffffffffffffffffffffffffffffffffffff86169063bc197c8190611040908a908a908990899089906004016119fc565b6020604051808303816000875af115801561105f573d6000803e3d6000fd5b505050506040513d601f19601f820116820180604052508101906110839190611a67565b7fffffffff0000000000000000000000000000000000000000000000000000000016146110e2578383836040517fc287817e0000000000000000000000000000000000000000000000000000000081526004016104ef93929190611aa9565b505050505050565b366000333214806110fb5750601836105b156111095750600091369150565b3373ffffffffffffffffffffffffffffffffffffffff7f000000000000000000000000000000000000000000000000000000000000000016148061123e575073ffffffffffffffffffffffffffffffffffffffff7f000000000000000000000000000000000000000000000000000000000000000016638929a8ca367fffffffffffffffffffffffffffffffffffffffffffffffffffffffffffffffec013560601c6040517fffffffff0000000000000000000000000000000000000000000000000000000060e084901b16815273ffffffffffffffffffffffffffffffffffffffff9091166004820152336024820152604401602060405180830381865afa15801561121a573d6000803e3d6000fd5b505050506040513d601f19601f8201168201806040525081019061123e9190611974565b1561124b576101c561147c565b50600091369150565b60008061016760017fca9d3e17f264b0f3984e2634e94adb37fa3e6a8103f06aeae6fa59e21c769f5e611844565b7c01000000000000000000000000000000000000000000000000000000007fffffffff000000000000000000000000000000000000000000000000000000008316016112fa576040517f72c683bb00000000000000000000000000000000000000000000000000000000815260040160405180910390fd5b7fffffffff00000000000000000000000000000000000000000000000000000000919091166000908152602092909252604090912080547fffffffffffffffffffffffffffffffffffffffffffffffffffffffffffffff0016911515919091179055565b6040517ff23a6e61000000000000000000000000000000000000000000000000000000008082529073ffffffffffffffffffffffffffffffffffffffff86169063f23a6e61906113ba908a908a90899089908990600401611af4565b6020604051808303816000875af11580156113d9573d6000803e3d6000fd5b505050506040513d601f19601f820116820180604052508101906113fd9190611a67565b7fffffffff0000000000000000000000000000000000000000000000000000000016146110e2576040517f40f39d3800000000000000000000000000000000000000000000000000000000815273ffffffffffffffffffffffffffffffffffffffff8516600482015260248101849052604481018390526064016104ef565b3660006101c57fffffffffffffffffffffffffffffffffffffffffffffffffffffffffffffffec8301828481611b39565b803573ffffffffffffffffffffffffffffffffffffffff811681146114d157600080fd5b919050565b600080604083850312156114e957600080fd5b6114f2836114ad565b946020939093013593505050565b60008083601f84011261151257600080fd5b50813567ffffffffffffffff81111561152a57600080fd5b6020830191508360208260051b850101111561154557600080fd5b9250929050565b60008083601f84011261155e57600080fd5b50813567ffffffffffffffff81111561157657600080fd5b60208301915083602082850101111561154557600080fd5b60008060008060008060008060a0898b0312156115aa57600080fd5b6115b3896114ad565b97506115c160208a016114ad565b9650604089013567ffffffffffffffff808211156115de57600080fd5b6115ea8c838d01611500565b909850965060608b013591508082111561160357600080fd5b61160f8c838d01611500565b909650945060808b013591508082111561162857600080fd5b506116358b828c0161154c565b999c989b5096995094979396929594505050565b60208152816020820152818360408301376000818301604090810191909152601f9092017fffffffffffffffffffffffffffffffffffffffffffffffffffffffffffffffe0160101919050565b600080600080604085870312156116ac57600080fd5b843567ffffffffffffffff808211156116c457600080fd5b6116d088838901611500565b909650945060208701359150808211156116e957600080fd5b506116f687828801611500565b95989497509550505050565b60008151808452602080850194506020840160005b8381101561173357815187529582019590820190600101611717565b509495945050505050565b6020815260006101646020830184611702565b801515811461175f57600080fd5b50565b6000806040838503121561177557600080fd5b61177e836114ad565b9150602083013561178e81611751565b809150509250929050565b600080604083850312156117ac57600080fd5b6117b5836114ad565b91506117c3602084016114ad565b90509250929050565b60008060008060008060a087890312156117e557600080fd5b6117ee876114ad565b95506117fc602088016114ad565b94506040870135935060608701359250608087013567ffffffffffffffff81111561182657600080fd5b61183289828a0161154c565b979a9699509497509295939492505050565b81810381811115610167577f4e487b7100000000000000000000000000000000000000000000000000000000600052601160045260246000fd5b7f4e487b7100000000000000000000000000000000000000000000000000000000600052603260045260246000fd5b81835260007f07ffffffffffffffffffffffffffffffffffffffffffffffffffffffffffffff8311156118df57600080fd5b8260051b80836020870137939093016020019392505050565b60408152600061190c6040830186886118ad565b828103602084015261191f8185876118ad565b979650505050505050565b7f4e487b7100000000000000000000000000000000000000000000000000000000600052604160045260246000fd5b60006020828403121561196b57600080fd5b610164826114ad565b60006020828403121561198657600080fd5b815161199181611751565b9392505050565b6000815180845260005b818110156119be576020818501810151868301820152016119a2565b5060006020828601015260207fffffffffffffffffffffffffffffffffffffffffffffffffffffffffffffffe0601f83011685010191505092915050565b600073ffffffffffffffffffffffffffffffffffffffff808816835280871660208401525060a06040830152611a3560a0830186611702565b8281036060840152611a478186611702565b90508281036080840152611a5b8185611998565b98975050505050505050565b600060208284031215611a7957600080fd5b81517fffffffff000000000000000000000000000000000000000000000000000000008116811461199157600080fd5b73ffffffffffffffffffffffffffffffffffffffff84168152606060208201526000611ad86060830185611702565b8281036040840152611aea8185611702565b9695505050505050565b600073ffffffffffffffffffffffffffffffffffffffff808816835280871660208401525084604083015283606083015260a0608083015261191f60a0830184611998565b60008085851115611b4957600080fd5b83861115611b5657600080fd5b505082019391909203915056fea2646970667358221220d95d588c919bc3e6a1cbd0418d46942f80ff562536f61bf640a962dba570e0d364736f6c63430008180033",
  "linkReferences": {},
  "deployedLinkReferences": {}
}