{
  "_format": "hh-sol-artifact-1",
  "contractName": "ERC721MetadataFacet",
  "sourceName": "contracts/token/ERC721/facets/ERC721MetadataFacet.sol",
  "abi": [
    {
      "inputs": [
        {
          "internalType": "contract IForwarderRegistry",
          "name": "forwarderRegistry",
          "type": "address"
        }
      ],
      "stateMutability": "nonpayable",
      "type": "constructor"
    },
    {
      "inputs": [
        {
          "internalType": "string",
          "name": "name",
          "type": "string"
        },
        {
          "internalType": "string",
          "name": "symbol",
          "type": "string"
        },
        {
          "internalType": "contract ITokenMetadataResolver",
          "name": "metadataResolver",
          "type": "address"
        }
      ],
      "name": "initERC721MetadataStorage",
      "outputs": [],
      "stateMutability": "nonpayable",
      "type": "function"
    },
    {
      "inputs": [],
      "name": "metadataResolver",
      "outputs": [
        {
          "internalType": "contract ITokenMetadataResolver",
          "name": "tokenMetadataResolver",
          "type": "address"
        }
      ],
      "stateMutability": "view",
      "type": "function"
    },
    {
      "inputs": [],
      "name": "name",
      "outputs": [
        {
          "internalType": "string",
          "name": "tokenName",
          "type": "string"
        }
      ],
      "stateMutability": "view",
      "type": "function"
    },
    {
      "inputs": [],
      "name": "symbol",
      "outputs": [
        {
          "internalType": "string",
          "name": "tokenSymbol",
          "type": "string"
        }
      ],
      "stateMutability": "view",
      "type": "function"
    },
    {
      "inputs": [
        {
          "internalType": "uint256",
          "name": "tokenId",
          "type": "uint256"
        }
      ],
      "name": "tokenURI",
      "outputs": [
        {
          "internalType": "string",
          "name": "uri",
          "type": "string"
        }
      ],
      "stateMutability": "view",
      "type": "function"
    }
  ],
  "bytecode": "0x60a060405234801561001057600080fd5b50604051610dee380380610dee83398101604081905261002f91610040565b6001600160a01b0316608052610070565b60006020828403121561005257600080fd5b81516001600160a01b038116811461006957600080fd5b9392505050565b608051610d5c610092600039600081816103be01526104460152610d5c6000f3fe608060405234801561001057600080fd5b50600436106100675760003560e01c8063a0c76f6211610050578063a0c76f6214610092578063c87b56dd146100bf578063fa6d22ca146100d257600080fd5b806306fdde031461006c57806395d89b411461008a575b600080fd5b6100746100e7565b60405161008191906108c4565b60405180910390f35b6100746100f6565b61009a610100565b60405173ffffffffffffffffffffffffffffffffffffffff9091168152602001610081565b6100746100cd366004610915565b61012a565b6100e56100e0366004610977565b610159565b005b60606100f161019b565b905090565b60606100f16101ad565b60006100f161010d6101bf565b6002015473ffffffffffffffffffffffffffffffffffffffff1690565b606061013e826101386101ed565b9061021b565b50610153308361014c6101bf565b91906102b3565b92915050565b61017261016461037b565b61016c6104c2565b906104f0565b61018c85858585856101826101bf565b9493929190610577565b610194610618565b5050505050565b60606100f16101a86101bf565b61064f565b60606100f16101ba6101bf565b6106e5565b60008061015360017f7ea68fd2dcf1c056b94db6a0a537aa80d26fa9ab1eacd85da1ba0b61b7e7a8a5610a14565b60008061015360017fddf3ee18ae6d688373c219468f8be446e7ae82215f4779d821c7ea5e8c13c0c1610a14565b60008181526020839052604081205473ffffffffffffffffffffffffffffffffffffffff81166102ac576040517f08c379a000000000000000000000000000000000000000000000000000000000815260206004820152601a60248201527f4552433732313a206e6f6e2d6578697374696e6720746f6b656e00000000000060448201526064015b60405180910390fd5b9392505050565b60028301546040517ff724dad700000000000000000000000000000000000000000000000000000000815273ffffffffffffffffffffffffffffffffffffffff848116600483015260248201849052606092169063f724dad790604401600060405180830381865afa15801561032d573d6000803e3d6000fd5b505050506040513d6000823e601f3d9081017fffffffffffffffffffffffffffffffffffffffffffffffffffffffffffffffe01682016040526103739190810190610a7d565b949350505050565b60003332148061038b5750601836105b1561039557503390565b7fffffffffffffffffffffffffffffffffffffffffffffffffffffffffffffffec36013560601c7f000000000000000000000000000000000000000000000000000000000000000073ffffffffffffffffffffffffffffffffffffffff163314806104b157506040517f8929a8ca00000000000000000000000000000000000000000000000000000000815273ffffffffffffffffffffffffffffffffffffffff82811660048301523360248301527f00000000000000000000000000000000000000000000000000000000000000001690638929a8ca90604401602060405180830381865afa15801561048d573d6000803e3d6000fd5b505050506040513d601f19601f820116820180604052508101906104b19190610b48565b156104bb57919050565b3391505090565b60008061015360017fb53127684a568b3173ae13b9f8a6016e243e63b6e8ee1178d6a717850b5d6104610a14565b815473ffffffffffffffffffffffffffffffffffffffff828116911614610573576040517f08c379a000000000000000000000000000000000000000000000000000000000815260206004820152601960248201527f50726f787941646d696e3a206e6f74207468652061646d696e0000000000000060448201526064016102a3565b5050565b6105ac6105a560017f92f72593ca50a0096f68ee94e7000db40ed086164b695855e2250750b8bfaf59610a14565b60016106f6565b856105b8858783610c0c565b50600186016105c8838583610c0c565b5060029590950180547fffffffffffffffffffffffff00000000000000000000000000000000000000001673ffffffffffffffffffffffffffffffffffffffff9096169590951790945550505050565b61064d7f5b5e139f000000000000000000000000000000000000000000000000000000006001610646610766565b9190610794565b565b606081600001805461066090610b6a565b80601f016020809104026020016040519081016040528092919081815260200182805461068c90610b6a565b80156106d95780601f106106ae576101008083540402835291602001916106d9565b820191906000526020600020905b8154815290600101906020018083116106bc57829003601f168201915b50505050509050919050565b606081600101805461066090610b6a565b815482908211610762576040517f08c379a000000000000000000000000000000000000000000000000000000000815260206004820152601660248201527f53746f726167653a20706861736520726561636865640000000000000000000060448201526064016102a3565b5550565b60008061015360017fca9d3e17f264b0f3984e2634e94adb37fa3e6a8103f06aeae6fa59e21c769f5e610a14565b7c01000000000000000000000000000000000000000000000000000000007fffffffff0000000000000000000000000000000000000000000000000000000083160161083c576040517f08c379a000000000000000000000000000000000000000000000000000000000815260206004820152601f60248201527f496e74657266616365446574656374696f6e3a2077726f6e672076616c75650060448201526064016102a3565b7fffffffff00000000000000000000000000000000000000000000000000000000919091166000908152602092909252604090912080547fffffffffffffffffffffffffffffffffffffffffffffffffffffffffffffff0016911515919091179055565b60005b838110156108bb5781810151838201526020016108a3565b50506000910152565b60208152600082518060208401526108e38160408501602087016108a0565b601f017fffffffffffffffffffffffffffffffffffffffffffffffffffffffffffffffe0169190910160400192915050565b60006020828403121561092757600080fd5b5035919050565b60008083601f84011261094057600080fd5b50813567ffffffffffffffff81111561095857600080fd5b60208301915083602082850101111561097057600080fd5b9250929050565b60008060008060006060868803121561098f57600080fd5b853567ffffffffffffffff808211156109a757600080fd5b6109b389838a0161092e565b909750955060208801359150808211156109cc57600080fd5b506109d98882890161092e565b909450925050604086013573ffffffffffffffffffffffffffffffffffffffff81168114610a0657600080fd5b809150509295509295909350565b81810381811115610153577f4e487b7100000000000000000000000000000000000000000000000000000000600052601160045260246000fd5b7f4e487b7100000000000000000000000000000000000000000000000000000000600052604160045260246000fd5b600060208284031215610a8f57600080fd5b815167ffffffffffffffff80821115610aa757600080fd5b818401915084601f830112610abb57600080fd5b815181811115610acd57610acd610a4e565b604051601f82017fffffffffffffffffffffffffffffffffffffffffffffffffffffffffffffffe0908116603f01168101908382118183101715610b1357610b13610a4e565b81604052828152876020848701011115610b2c57600080fd5b610b3d8360208301602088016108a0565b979650505050505050565b600060208284031215610b5a57600080fd5b815180151581146102ac57600080fd5b600181811c90821680610b7e57607f821691505b602082108103610bb7577f4e487b7100000000000000000000000000000000000000000000000000000000600052602260045260246000fd5b50919050565b601f821115610c0757600081815260208120601f850160051c81016020861015610be45750805b601f850160051c820191505b81811015610c0357828155600101610bf0565b5050505b505050565b67ffffffffffffffff831115610c2457610c24610a4e565b610c3883610c328354610b6a565b83610bbd565b6000601f841160018114610c8a5760008515610c545750838201355b7fffffffffffffffffffffffffffffffffffffffffffffffffffffffffffffffff600387901b1c1916600186901b178355610194565b6000838152602090207fffffffffffffffffffffffffffffffffffffffffffffffffffffffffffffffe0861690835b82811015610cd95786850135825560209485019460019092019101610cb9565b5086821015610d14577fffffffffffffffffffffffffffffffffffffffffffffffffffffffffffffffff60f88860031b161c19848701351681555b505060018560011b018355505050505056fea2646970667358221220a40cd544534ad6ca22cf585620e28435f85d357cefe72495875dafe82f45041a64736f6c63430008130033",
  "linkReferences": {},
  "deployedLinkReferences": {}
}