{
  "_format": "hh-sol-artifact-1",
  "contractName": "ERC721MetadataFacet",
  "sourceName": "contracts/token/ERC721/facets/ERC721MetadataFacet.sol",
  "abi": [
    {
      "inputs": [
        {
          "internalType": "contract IForwarderRegistry",
          "name": "forwarderRegistry",
          "type": "address"
        }
      ],
      "stateMutability": "nonpayable",
      "type": "constructor"
    },
    {
      "inputs": [
        {
          "internalType": "string",
          "name": "name",
          "type": "string"
        },
        {
          "internalType": "string",
          "name": "symbol",
          "type": "string"
        },
        {
          "internalType": "contract ITokenMetadataResolver",
          "name": "metadataResolver",
          "type": "address"
        }
      ],
      "name": "initERC721MetadataStorage",
      "outputs": [],
      "stateMutability": "nonpayable",
      "type": "function"
    },
    {
      "inputs": [],
      "name": "metadataResolver",
      "outputs": [
        {
          "internalType": "contract ITokenMetadataResolver",
          "name": "tokenMetadataResolver",
          "type": "address"
        }
      ],
      "stateMutability": "view",
      "type": "function"
    },
    {
      "inputs": [],
      "name": "name",
      "outputs": [
        {
          "internalType": "string",
          "name": "tokenName",
          "type": "string"
        }
      ],
      "stateMutability": "view",
      "type": "function"
    },
    {
      "inputs": [],
      "name": "symbol",
      "outputs": [
        {
          "internalType": "string",
          "name": "tokenSymbol",
          "type": "string"
        }
      ],
      "stateMutability": "view",
      "type": "function"
    },
    {
      "inputs": [
        {
          "internalType": "uint256",
          "name": "tokenId",
          "type": "uint256"
        }
      ],
      "name": "tokenURI",
      "outputs": [
        {
          "internalType": "string",
          "name": "uri",
          "type": "string"
        }
      ],
      "stateMutability": "view",
      "type": "function"
    }
  ],
  "bytecode": "0x60a060405234801561000f575f80fd5b50604051610db0380380610db083398101604081905261002e9161003f565b6001600160a01b031660805261006c565b5f6020828403121561004f575f80fd5b81516001600160a01b0381168114610065575f80fd5b9392505050565b608051610d2561008b5f395f81816103b101526104390152610d255ff3fe608060405234801561000f575f80fd5b5060043610610064575f3560e01c8063a0c76f621161004d578063a0c76f621461008e578063c87b56dd146100bb578063fa6d22ca146100ce575f80fd5b806306fdde031461006857806395d89b4114610086575b5f80fd5b6100706100e3565b60405161007d91906108ad565b60405180910390f35b6100706100f2565b6100966100fc565b60405173ffffffffffffffffffffffffffffffffffffffff909116815260200161007d565b6100706100c93660046108fd565b610125565b6100e16100dc366004610959565b610154565b005b60606100ed610196565b905090565b60606100ed6101a8565b5f6100ed6101086101ba565b6002015473ffffffffffffffffffffffffffffffffffffffff1690565b6060610139826101336101e7565b90610214565b5061014e30836101476101ba565b91906102ab565b92915050565b61016d61015f61036f565b6101676104b3565b906104e0565b610187858585858561017d6101ba565b9493929190610567565b61018f610608565b5050505050565b60606100ed6101a36101ba565b61063f565b60606100ed6101b56101ba565b6106d2565b5f8061014e60017f7ea68fd2dcf1c056b94db6a0a537aa80d26fa9ab1eacd85da1ba0b61b7e7a8a56109ef565b5f8061014e60017fddf3ee18ae6d688373c219468f8be446e7ae82215f4779d821c7ea5e8c13c0c16109ef565b5f8181526020839052604081205473ffffffffffffffffffffffffffffffffffffffff81166102a4576040517f08c379a000000000000000000000000000000000000000000000000000000000815260206004820152601a60248201527f4552433732313a206e6f6e2d6578697374696e6720746f6b656e00000000000060448201526064015b60405180910390fd5b9392505050565b60028301546040517ff724dad700000000000000000000000000000000000000000000000000000000815273ffffffffffffffffffffffffffffffffffffffff848116600483015260248201849052606092169063f724dad7906044015f60405180830381865afa158015610322573d5f803e3d5ffd5b505050506040513d5f823e601f3d9081017fffffffffffffffffffffffffffffffffffffffffffffffffffffffffffffffe01682016040526103679190810190610a54565b949350505050565b5f3332148061037e5750601836105b1561038857503390565b7fffffffffffffffffffffffffffffffffffffffffffffffffffffffffffffffec36013560601c7f000000000000000000000000000000000000000000000000000000000000000073ffffffffffffffffffffffffffffffffffffffff163314806104a257506040517f8929a8ca00000000000000000000000000000000000000000000000000000000815273ffffffffffffffffffffffffffffffffffffffff82811660048301523360248301527f00000000000000000000000000000000000000000000000000000000000000001690638929a8ca90604401602060405180830381865afa15801561047e573d5f803e3d5ffd5b505050506040513d601f19601f820116820180604052508101906104a29190610b1a565b156104ac57919050565b3391505090565b5f8061014e60017fb53127684a568b3173ae13b9f8a6016e243e63b6e8ee1178d6a717850b5d61046109ef565b815473ffffffffffffffffffffffffffffffffffffffff828116911614610563576040517f08c379a000000000000000000000000000000000000000000000000000000000815260206004820152601960248201527f50726f787941646d696e3a206e6f74207468652061646d696e00000000000000604482015260640161029b565b5050565b61059c61059560017f92f72593ca50a0096f68ee94e7000db40ed086164b695855e2250750b8bfaf596109ef565b60016106e3565b856105a8858783610bd8565b50600186016105b8838583610bd8565b5060029590950180547fffffffffffffffffffffffff00000000000000000000000000000000000000001673ffffffffffffffffffffffffffffffffffffffff9096169590951790945550505050565b61063d7f5b5e139f000000000000000000000000000000000000000000000000000000006001610636610753565b9190610780565b565b6060815f01805461064f90610b39565b80601f016020809104026020016040519081016040528092919081815260200182805461067b90610b39565b80156106c65780601f1061069d576101008083540402835291602001916106c6565b820191905f5260205f20905b8154815290600101906020018083116106a957829003601f168201915b50505050509050919050565b606081600101805461064f90610b39565b81548290821161074f576040517f08c379a000000000000000000000000000000000000000000000000000000000815260206004820152601660248201527f53746f726167653a207068617365207265616368656400000000000000000000604482015260640161029b565b5550565b5f8061014e60017fca9d3e17f264b0f3984e2634e94adb37fa3e6a8103f06aeae6fa59e21c769f5e6109ef565b7c01000000000000000000000000000000000000000000000000000000007fffffffff00000000000000000000000000000000000000000000000000000000831601610828576040517f08c379a000000000000000000000000000000000000000000000000000000000815260206004820152601f60248201527f496e74657266616365446574656374696f6e3a2077726f6e672076616c756500604482015260640161029b565b7fffffffff00000000000000000000000000000000000000000000000000000000919091165f908152602092909252604090912080547fffffffffffffffffffffffffffffffffffffffffffffffffffffffffffffff0016911515919091179055565b5f5b838110156108a557818101518382015260200161088d565b50505f910152565b602081525f82518060208401526108cb81604085016020870161088b565b601f017fffffffffffffffffffffffffffffffffffffffffffffffffffffffffffffffe0169190910160400192915050565b5f6020828403121561090d575f80fd5b5035919050565b5f8083601f840112610924575f80fd5b50813567ffffffffffffffff81111561093b575f80fd5b602083019150836020828501011115610952575f80fd5b9250929050565b5f805f805f6060868803121561096d575f80fd5b853567ffffffffffffffff80821115610984575f80fd5b61099089838a01610914565b909750955060208801359150808211156109a8575f80fd5b506109b588828901610914565b909450925050604086013573ffffffffffffffffffffffffffffffffffffffff811681146109e1575f80fd5b809150509295509295909350565b8181038181111561014e577f4e487b71000000000000000000000000000000000000000000000000000000005f52601160045260245ffd5b7f4e487b71000000000000000000000000000000000000000000000000000000005f52604160045260245ffd5b5f60208284031215610a64575f80fd5b815167ffffffffffffffff80821115610a7b575f80fd5b818401915084601f830112610a8e575f80fd5b815181811115610aa057610aa0610a27565b604051601f82017fffffffffffffffffffffffffffffffffffffffffffffffffffffffffffffffe0908116603f01168101908382118183101715610ae657610ae6610a27565b81604052828152876020848701011115610afe575f80fd5b610b0f83602083016020880161088b565b979650505050505050565b5f60208284031215610b2a575f80fd5b815180151581146102a4575f80fd5b600181811c90821680610b4d57607f821691505b602082108103610b84577f4e487b71000000000000000000000000000000000000000000000000000000005f52602260045260245ffd5b50919050565b601f821115610bd3575f81815260208120601f850160051c81016020861015610bb05750805b601f850160051c820191505b81811015610bcf57828155600101610bbc565b5050505b505050565b67ffffffffffffffff831115610bf057610bf0610a27565b610c0483610bfe8354610b39565b83610b8a565b5f601f841160018114610c54575f8515610c1e5750838201355b7fffffffffffffffffffffffffffffffffffffffffffffffffffffffffffffffff600387901b1c1916600186901b17835561018f565b5f838152602090207fffffffffffffffffffffffffffffffffffffffffffffffffffffffffffffffe0861690835b82811015610ca25786850135825560209485019460019092019101610c82565b5086821015610cdd577fffffffffffffffffffffffffffffffffffffffffffffffffffffffffffffffff60f88860031b161c19848701351681555b505060018560011b018355505050505056fea26469706673582212201444958fdac59ad4d34aa8c43f2e0251d090bc562eb898cdf5c475fd370a865664736f6c63430008150033",
  "linkReferences": {},
  "deployedLinkReferences": {}
}