{
  "_format": "hh-sol-artifact-1",
  "contractName": "ERC20MintableFacetMock",
  "sourceName": "contracts/mocks/token/ERC20/facets/ERC20MintableFacetMock.sol",
  "abi": [
    {
      "inputs": [
        {
          "internalType": "contract IForwarderRegistry",
          "name": "forwarderRegistry",
          "type": "address"
        }
      ],
      "stateMutability": "nonpayable",
      "type": "constructor"
    },
    {
      "inputs": [],
      "name": "MINTER_ROLE",
      "outputs": [
        {
          "internalType": "bytes32",
          "name": "",
          "type": "bytes32"
        }
      ],
      "stateMutability": "view",
      "type": "function"
    },
    {
      "inputs": [],
      "name": "__msgData",
      "outputs": [
        {
          "internalType": "bytes",
          "name": "",
          "type": "bytes"
        }
      ],
      "stateMutability": "view",
      "type": "function"
    },
    {
      "inputs": [
        {
          "internalType": "address[]",
          "name": "recipients",
          "type": "address[]"
        },
        {
          "internalType": "uint256[]",
          "name": "values",
          "type": "uint256[]"
        }
      ],
      "name": "batchMint",
      "outputs": [],
      "stateMutability": "nonpayable",
      "type": "function"
    },
    {
      "inputs": [],
      "name": "initERC20MintableStorage",
      "outputs": [],
      "stateMutability": "nonpayable",
      "type": "function"
    },
    {
      "inputs": [
        {
          "internalType": "address",
          "name": "to",
          "type": "address"
        },
        {
          "internalType": "uint256",
          "name": "value",
          "type": "uint256"
        }
      ],
      "name": "mint",
      "outputs": [],
      "stateMutability": "nonpayable",
      "type": "function"
    }
  ],
  "bytecode": "0x60a060405234801561001057600080fd5b5060405161122538038061122583398101604081905261002f91610040565b6001600160a01b0316608052610070565b60006020828403121561005257600080fd5b81516001600160a01b038116811461006957600080fd5b9392505050565b6080516111856100a0600039600081816108ce0152818161095601528181610b430152610b8101526111856000f3fe608060405234801561001057600080fd5b50600436106100675760003560e01c806340c10f191161005057806340c10f191461009557806368573107146100a8578063d5391393146100bb57600080fd5b806311e60a3e1461006c57806331e66e1e14610076575b600080fd5b6100746100f0565b005b61007e610113565b60405161008c929190610e39565b60405180910390f35b6100746100a3366004610e86565b610126565b6100746100b6366004610f17565b610179565b6100e27f6d696e746572000000000000000000000000000000000000000000000000000081565b60405190815260200161008c565b6101096100fb610223565b610103610232565b90610266565b6101116102ee565b565b36600061011e610323565b915091509091565b6101617f6d696e7465720000000000000000000000000000000000000000000000000000610152610223565b61015a61032e565b919061035c565b610175828261016e61040d565b919061043b565b5050565b6101a57f6d696e7465720000000000000000000000000000000000000000000000000000610152610223565b61021d84848080602002602001604051908101604052809392919081815260200183836020028082843760009201919091525050604080516020808802828101820190935287825290935087925086918291850190849080828437600092019190915250610216925061040d915050565b91906105b4565b50505050565b600061022d61088b565b905090565b60008061026060017fb53127684a568b3173ae13b9f8a6016e243e63b6e8ee1178d6a717850b5d6104610f83565b92915050565b815473ffffffffffffffffffffffffffffffffffffffff828116911614610175576040517f08c379a000000000000000000000000000000000000000000000000000000000815260206004820152601960248201527f50726f787941646d696e3a206e6f74207468652061646d696e0000000000000060448201526064015b60405180910390fd5b6101117f28963e1e00000000000000000000000000000000000000000000000000000000600161031c6109d2565b9190610a00565b36600061011e610b0c565b60008061026060017fc8827d3282af6f37b64c3e9e6f3ac9df286ab0bb0fccd6f8661bf19adb368b23610f83565b60008281526020848152604080832073ffffffffffffffffffffffffffffffffffffffff8516845290915290205460ff166104085761039a82610c76565b6040516020016103aa9190610fe1565b604080517fffffffffffffffffffffffffffffffffffffffffffffffffffffffffffffffe0818403018152908290527f08c379a00000000000000000000000000000000000000000000000000000000082526102e59160040161104d565b505050565b60008061026060017f1da92899d3da68bf9787824388a37ea2bfa79780bcef91b9716c390eec8ecbef610f83565b73ffffffffffffffffffffffffffffffffffffffff82166104b8576040517f08c379a000000000000000000000000000000000000000000000000000000000815260206004820152601960248201527f45524332303a206d696e7420746f20616464726573732830290000000000000060448201526064016102e5565b801561056157600283015481810181811161052f576040517f08c379a000000000000000000000000000000000000000000000000000000000815260206004820152601660248201527f45524332303a20737570706c79206f766572666c6f770000000000000000000060448201526064016102e5565b60028501555073ffffffffffffffffffffffffffffffffffffffff821660009081526020849052604090208054820190555b60405181815273ffffffffffffffffffffffffffffffffffffffff8316906000907fddf252ad1be2c89b69c2b068fc378daa952ba7f163c4a11628f55a4df523b3ef9060200160405180910390a3505050565b815181518114610620576040517f08c379a000000000000000000000000000000000000000000000000000000000815260206004820152601a60248201527f45524332303a20696e636f6e73697374656e742061727261797300000000000060448201526064016102e5565b8060000361062e5750505050565b6000805b82811461080557600085828151811061064d5761064d61109e565b60200260200101519050600073ffffffffffffffffffffffffffffffffffffffff168173ffffffffffffffffffffffffffffffffffffffff16036106ed576040517f08c379a000000000000000000000000000000000000000000000000000000000815260206004820152601960248201527f45524332303a206d696e7420746f20616464726573732830290000000000000060448201526064016102e5565b60008583815181106107015761070161109e565b60200260200101519050806000146107ad5783810184811161077f576040517f08c379a000000000000000000000000000000000000000000000000000000000815260206004820152601660248201527f45524332303a2076616c756573206f766572666c6f770000000000000000000060448201526064016102e5565b73ffffffffffffffffffffffffffffffffffffffff8316600090815260208a90526040902080548301905593505b60405181815273ffffffffffffffffffffffffffffffffffffffff8316906000907fddf252ad1be2c89b69c2b068fc378daa952ba7f163c4a11628f55a4df523b3ef9060200160405180910390a35050600101610632565b50801561088457600285015481810181811161087d576040517f08c379a000000000000000000000000000000000000000000000000000000000815260206004820152601660248201527f45524332303a20737570706c79206f766572666c6f770000000000000000000060448201526064016102e5565b6002870155505b5050505050565b60003332148061089b5750601836105b156108a557503390565b7fffffffffffffffffffffffffffffffffffffffffffffffffffffffffffffffec36013560601c7f000000000000000000000000000000000000000000000000000000000000000073ffffffffffffffffffffffffffffffffffffffff163314806109c157506040517f8929a8ca00000000000000000000000000000000000000000000000000000000815273ffffffffffffffffffffffffffffffffffffffff82811660048301523360248301527f00000000000000000000000000000000000000000000000000000000000000001690638929a8ca90604401602060405180830381865afa15801561099d573d6000803e3d6000fd5b505050506040513d601f19601f820116820180604052508101906109c191906110cd565b156109cb57919050565b3391505090565b60008061026060017fca9d3e17f264b0f3984e2634e94adb37fa3e6a8103f06aeae6fa59e21c769f5e610f83565b7c01000000000000000000000000000000000000000000000000000000007fffffffff00000000000000000000000000000000000000000000000000000000831601610aa8576040517f08c379a000000000000000000000000000000000000000000000000000000000815260206004820152601f60248201527f496e74657266616365446574656374696f6e3a2077726f6e672076616c75650060448201526064016102e5565b7fffffffff00000000000000000000000000000000000000000000000000000000919091166000908152602092909252604090912080547fffffffffffffffffffffffffffffffffffffffffffffffffffffffffffffff0016911515919091179055565b36600033321480610b1d5750601836105b15610b2b5750600091369150565b3373ffffffffffffffffffffffffffffffffffffffff7f0000000000000000000000000000000000000000000000000000000000000000161480610c60575073ffffffffffffffffffffffffffffffffffffffff7f000000000000000000000000000000000000000000000000000000000000000016638929a8ca367fffffffffffffffffffffffffffffffffffffffffffffffffffffffffffffffec013560601c6040517fffffffff0000000000000000000000000000000000000000000000000000000060e084901b16815273ffffffffffffffffffffffffffffffffffffffff9091166004820152336024820152604401602060405180830381865afa158015610c3c573d6000803e3d6000fd5b505050506040513d601f19601f82011682018060405250810190610c6091906110cd565b15610c6d5761011e610e08565b50600091369150565b60606000829003610c9557505060408051602081019091526000815290565b600082604051602001610caa91815260200190565b604080517fffffffffffffffffffffffffffffffffffffffffffffffffffffffffffffffe08184030181529190529050601f5b818181518110610cef57610cef61109e565b01602001517fff0000000000000000000000000000000000000000000000000000000000000016600003610d44577fffffffffffffffffffffffffffffffffffffffffffffffffffffffffffffffff01610cdd565b60008160010167ffffffffffffffff811115610d6257610d626110f6565b6040519080825280601f01601f191660200182016040528015610d8c576020820181803683370190505b50905060005b828111610dff57838181518110610dab57610dab61109e565b602001015160f81c60f81b828281518110610dc857610dc861109e565b60200101907effffffffffffffffffffffffffffffffffffffffffffffffffffffffffffff1916908160001a905350600101610d92565b50949350505050565b36600061011e7fffffffffffffffffffffffffffffffffffffffffffffffffffffffffffffffec8301828481611125565b60208152816020820152818360408301376000818301604090810191909152601f9092017fffffffffffffffffffffffffffffffffffffffffffffffffffffffffffffffe0160101919050565b60008060408385031215610e9957600080fd5b823573ffffffffffffffffffffffffffffffffffffffff81168114610ebd57600080fd5b946020939093013593505050565b60008083601f840112610edd57600080fd5b50813567ffffffffffffffff811115610ef557600080fd5b6020830191508360208260051b8501011115610f1057600080fd5b9250929050565b60008060008060408587031215610f2d57600080fd5b843567ffffffffffffffff80821115610f4557600080fd5b610f5188838901610ecb565b90965094506020870135915080821115610f6a57600080fd5b50610f7787828801610ecb565b95989497509550505050565b81810381811115610260577f4e487b7100000000000000000000000000000000000000000000000000000000600052601160045260246000fd5b60005b83811015610fd8578181015183820152602001610fc0565b50506000910152565b7f416363657373436f6e74726f6c3a206d697373696e6720270000000000000000815260008251611019816018850160208701610fbd565b7f2720726f6c6500000000000000000000000000000000000000000000000000006018939091019283015250601e01919050565b602081526000825180602084015261106c816040850160208701610fbd565b601f017fffffffffffffffffffffffffffffffffffffffffffffffffffffffffffffffe0169190910160400192915050565b7f4e487b7100000000000000000000000000000000000000000000000000000000600052603260045260246000fd5b6000602082840312156110df57600080fd5b815180151581146110ef57600080fd5b9392505050565b7f4e487b7100000000000000000000000000000000000000000000000000000000600052604160045260246000fd5b6000808585111561113557600080fd5b8386111561114257600080fd5b505082019391909203915056fea26469706673582212208a17d2b030ce6fba06bb3aad315e0ff4716f60fdde6d31ab8d1a8ce15ca0314864736f6c63430008110033",
  "linkReferences": {},
  "deployedLinkReferences": {}
}