{
  "_format": "hh-sol-artifact-1",
  "contractName": "ERC1155FullBurnProxiedMock",
  "sourceName": "contracts/mocks/token/ERC1155/preset/proxied/ERC1155FullBurnProxiedMock.sol",
  "abi": [
    {
      "inputs": [
        {
          "internalType": "contract IForwarderRegistry",
          "name": "forwarderRegistry",
          "type": "address"
        }
      ],
      "stateMutability": "nonpayable",
      "type": "constructor"
    },
    {
      "inputs": [],
      "name": "ERC1155BalanceOfAddressZero",
      "type": "error"
    },
    {
      "inputs": [
        {
          "internalType": "address",
          "name": "recipient",
          "type": "address"
        },
        {
          "internalType": "uint256",
          "name": "id",
          "type": "uint256"
        },
        {
          "internalType": "uint256",
          "name": "balance",
          "type": "uint256"
        },
        {
          "internalType": "uint256",
          "name": "value",
          "type": "uint256"
        }
      ],
      "name": "ERC1155BalanceOverflow",
      "type": "error"
    },
    {
      "inputs": [
        {
          "internalType": "address",
          "name": "owner",
          "type": "address"
        },
        {
          "internalType": "uint256",
          "name": "id",
          "type": "uint256"
        },
        {
          "internalType": "uint256",
          "name": "balance",
          "type": "uint256"
        },
        {
          "internalType": "uint256",
          "name": "value",
          "type": "uint256"
        }
      ],
      "name": "ERC1155InsufficientBalance",
      "type": "error"
    },
    {
      "inputs": [],
      "name": "ERC1155MintToAddressZero",
      "type": "error"
    },
    {
      "inputs": [
        {
          "internalType": "address",
          "name": "sender",
          "type": "address"
        },
        {
          "internalType": "address",
          "name": "owner",
          "type": "address"
        }
      ],
      "name": "ERC1155NonApproved",
      "type": "error"
    },
    {
      "inputs": [
        {
          "internalType": "address",
          "name": "recipient",
          "type": "address"
        },
        {
          "internalType": "uint256[]",
          "name": "ids",
          "type": "uint256[]"
        },
        {
          "internalType": "uint256[]",
          "name": "values",
          "type": "uint256[]"
        }
      ],
      "name": "ERC1155SafeBatchTransferRejected",
      "type": "error"
    },
    {
      "inputs": [
        {
          "internalType": "address",
          "name": "recipient",
          "type": "address"
        },
        {
          "internalType": "uint256",
          "name": "id",
          "type": "uint256"
        },
        {
          "internalType": "uint256",
          "name": "value",
          "type": "uint256"
        }
      ],
      "name": "ERC1155SafeTransferRejected",
      "type": "error"
    },
    {
      "inputs": [
        {
          "internalType": "address",
          "name": "account",
          "type": "address"
        }
      ],
      "name": "ERC1155SelfApprovalForAll",
      "type": "error"
    },
    {
      "inputs": [],
      "name": "ERC1155TransferToAddressZero",
      "type": "error"
    },
    {
      "inputs": [
        {
          "internalType": "uint256",
          "name": "percentage",
          "type": "uint256"
        }
      ],
      "name": "ERC2981IncorrectRoyaltyPercentage",
      "type": "error"
    },
    {
      "inputs": [],
      "name": "ERC2981IncorrectRoyaltyReceiver",
      "type": "error"
    },
    {
      "inputs": [],
      "name": "FailedCall",
      "type": "error"
    },
    {
      "inputs": [],
      "name": "IllegalInterfaceId",
      "type": "error"
    },
    {
      "inputs": [],
      "name": "InconsistentArrayLengths",
      "type": "error"
    },
    {
      "inputs": [
        {
          "internalType": "address",
          "name": "tokenContract",
          "type": "address"
        }
      ],
      "name": "IncorrectTokenContractType",
      "type": "error"
    },
    {
      "inputs": [
        {
          "internalType": "uint256",
          "name": "currentPhase",
          "type": "uint256"
        },
        {
          "internalType": "uint256",
          "name": "newPhase",
          "type": "uint256"
        }
      ],
      "name": "InitializationPhaseAlreadyReached",
      "type": "error"
    },
    {
      "inputs": [
        {
          "internalType": "uint256",
          "name": "balance",
          "type": "uint256"
        },
        {
          "internalType": "uint256",
          "name": "needed",
          "type": "uint256"
        }
      ],
      "name": "InsufficientBalance",
      "type": "error"
    },
    {
      "inputs": [
        {
          "internalType": "address",
          "name": "account",
          "type": "address"
        }
      ],
      "name": "NotContractOwner",
      "type": "error"
    },
    {
      "inputs": [
        {
          "internalType": "address",
          "name": "account",
          "type": "address"
        }
      ],
      "name": "NotMetadataResolver",
      "type": "error"
    },
    {
      "inputs": [
        {
          "internalType": "bytes32",
          "name": "role",
          "type": "bytes32"
        },
        {
          "internalType": "address",
          "name": "account",
          "type": "address"
        }
      ],
      "name": "NotRoleHolder",
      "type": "error"
    },
    {
      "inputs": [
        {
          "internalType": "address",
          "name": "operator",
          "type": "address"
        }
      ],
      "name": "OperatorNotAllowed",
      "type": "error"
    },
    {
      "inputs": [
        {
          "internalType": "address",
          "name": "token",
          "type": "address"
        }
      ],
      "name": "SafeERC20FailedOperation",
      "type": "error"
    },
    {
      "anonymous": false,
      "inputs": [
        {
          "indexed": true,
          "internalType": "address",
          "name": "owner",
          "type": "address"
        },
        {
          "indexed": true,
          "internalType": "address",
          "name": "operator",
          "type": "address"
        },
        {
          "indexed": false,
          "internalType": "bool",
          "name": "approved",
          "type": "bool"
        }
      ],
      "name": "ApprovalForAll",
      "type": "event"
    },
    {
      "anonymous": false,
      "inputs": [
        {
          "indexed": true,
          "internalType": "address",
          "name": "previousOwner",
          "type": "address"
        },
        {
          "indexed": true,
          "internalType": "address",
          "name": "newOwner",
          "type": "address"
        }
      ],
      "name": "OwnershipTransferred",
      "type": "event"
    },
    {
      "anonymous": false,
      "inputs": [
        {
          "indexed": false,
          "internalType": "bytes32",
          "name": "role",
          "type": "bytes32"
        },
        {
          "indexed": false,
          "internalType": "address",
          "name": "account",
          "type": "address"
        },
        {
          "indexed": false,
          "internalType": "address",
          "name": "operator",
          "type": "address"
        }
      ],
      "name": "RoleGranted",
      "type": "event"
    },
    {
      "anonymous": false,
      "inputs": [
        {
          "indexed": false,
          "internalType": "bytes32",
          "name": "role",
          "type": "bytes32"
        },
        {
          "indexed": false,
          "internalType": "address",
          "name": "account",
          "type": "address"
        },
        {
          "indexed": false,
          "internalType": "address",
          "name": "operator",
          "type": "address"
        }
      ],
      "name": "RoleRevoked",
      "type": "event"
    },
    {
      "anonymous": false,
      "inputs": [
        {
          "indexed": true,
          "internalType": "address",
          "name": "operator",
          "type": "address"
        },
        {
          "indexed": true,
          "internalType": "address",
          "name": "from",
          "type": "address"
        },
        {
          "indexed": true,
          "internalType": "address",
          "name": "to",
          "type": "address"
        },
        {
          "indexed": false,
          "internalType": "uint256[]",
          "name": "ids",
          "type": "uint256[]"
        },
        {
          "indexed": false,
          "internalType": "uint256[]",
          "name": "values",
          "type": "uint256[]"
        }
      ],
      "name": "TransferBatch",
      "type": "event"
    },
    {
      "anonymous": false,
      "inputs": [
        {
          "indexed": true,
          "internalType": "address",
          "name": "operator",
          "type": "address"
        },
        {
          "indexed": true,
          "internalType": "address",
          "name": "from",
          "type": "address"
        },
        {
          "indexed": true,
          "internalType": "address",
          "name": "to",
          "type": "address"
        },
        {
          "indexed": false,
          "internalType": "uint256",
          "name": "id",
          "type": "uint256"
        },
        {
          "indexed": false,
          "internalType": "uint256",
          "name": "value",
          "type": "uint256"
        }
      ],
      "name": "TransferSingle",
      "type": "event"
    },
    {
      "anonymous": false,
      "inputs": [
        {
          "indexed": false,
          "internalType": "string",
          "name": "value",
          "type": "string"
        },
        {
          "indexed": true,
          "internalType": "uint256",
          "name": "id",
          "type": "uint256"
        }
      ],
      "name": "URI",
      "type": "event"
    },
    {
      "inputs": [],
      "name": "MINTER_ROLE",
      "outputs": [
        {
          "internalType": "bytes32",
          "name": "",
          "type": "bytes32"
        }
      ],
      "stateMutability": "view",
      "type": "function"
    },
    {
      "inputs": [],
      "name": "ROYALTY_FEE_DENOMINATOR",
      "outputs": [
        {
          "internalType": "uint256",
          "name": "",
          "type": "uint256"
        }
      ],
      "stateMutability": "view",
      "type": "function"
    },
    {
      "inputs": [],
      "name": "__msgData",
      "outputs": [
        {
          "internalType": "bytes",
          "name": "",
          "type": "bytes"
        }
      ],
      "stateMutability": "view",
      "type": "function"
    },
    {
      "inputs": [
        {
          "internalType": "address",
          "name": "owner",
          "type": "address"
        },
        {
          "internalType": "uint256",
          "name": "id",
          "type": "uint256"
        }
      ],
      "name": "balanceOf",
      "outputs": [
        {
          "internalType": "uint256",
          "name": "balance",
          "type": "uint256"
        }
      ],
      "stateMutability": "view",
      "type": "function"
    },
    {
      "inputs": [
        {
          "internalType": "address[]",
          "name": "owners",
          "type": "address[]"
        },
        {
          "internalType": "uint256[]",
          "name": "ids",
          "type": "uint256[]"
        }
      ],
      "name": "balanceOfBatch",
      "outputs": [
        {
          "internalType": "uint256[]",
          "name": "balances",
          "type": "uint256[]"
        }
      ],
      "stateMutability": "view",
      "type": "function"
    },
    {
      "inputs": [
        {
          "internalType": "address",
          "name": "from",
          "type": "address"
        },
        {
          "internalType": "uint256[]",
          "name": "ids",
          "type": "uint256[]"
        },
        {
          "internalType": "uint256[]",
          "name": "values",
          "type": "uint256[]"
        }
      ],
      "name": "batchBurnFrom",
      "outputs": [],
      "stateMutability": "nonpayable",
      "type": "function"
    },
    {
      "inputs": [
        {
          "internalType": "uint256[]",
          "name": "tokenIds",
          "type": "uint256[]"
        },
        {
          "internalType": "string[]",
          "name": "tokenURIs",
          "type": "string[]"
        }
      ],
      "name": "batchSetTokenURI",
      "outputs": [],
      "stateMutability": "nonpayable",
      "type": "function"
    },
    {
      "inputs": [
        {
          "internalType": "address",
          "name": "from",
          "type": "address"
        },
        {
          "internalType": "uint256",
          "name": "id",
          "type": "uint256"
        },
        {
          "internalType": "uint256",
          "name": "value",
          "type": "uint256"
        }
      ],
      "name": "burnFrom",
      "outputs": [],
      "stateMutability": "nonpayable",
      "type": "function"
    },
    {
      "inputs": [],
      "name": "forwarderRegistry",
      "outputs": [
        {
          "internalType": "contract IForwarderRegistry",
          "name": "",
          "type": "address"
        }
      ],
      "stateMutability": "view",
      "type": "function"
    },
    {
      "inputs": [
        {
          "internalType": "bytes32",
          "name": "role",
          "type": "bytes32"
        },
        {
          "internalType": "address",
          "name": "account",
          "type": "address"
        }
      ],
      "name": "grantRole",
      "outputs": [],
      "stateMutability": "nonpayable",
      "type": "function"
    },
    {
      "inputs": [
        {
          "internalType": "bytes32",
          "name": "role",
          "type": "bytes32"
        },
        {
          "internalType": "address",
          "name": "account",
          "type": "address"
        }
      ],
      "name": "hasRole",
      "outputs": [
        {
          "internalType": "bool",
          "name": "hasRole_",
          "type": "bool"
        }
      ],
      "stateMutability": "view",
      "type": "function"
    },
    {
      "inputs": [
        {
          "internalType": "string",
          "name": "tokenName",
          "type": "string"
        },
        {
          "internalType": "string",
          "name": "tokenSymbol",
          "type": "string"
        },
        {
          "internalType": "contract ITokenMetadataResolver",
          "name": "metadataResolver",
          "type": "address"
        },
        {
          "internalType": "contract IOperatorFilterRegistry",
          "name": "filterRegistry",
          "type": "address"
        }
      ],
      "name": "init",
      "outputs": [],
      "stateMutability": "nonpayable",
      "type": "function"
    },
    {
      "inputs": [
        {
          "internalType": "address",
          "name": "owner",
          "type": "address"
        },
        {
          "internalType": "address",
          "name": "operator",
          "type": "address"
        }
      ],
      "name": "isApprovedForAll",
      "outputs": [
        {
          "internalType": "bool",
          "name": "approvedForAll",
          "type": "bool"
        }
      ],
      "stateMutability": "view",
      "type": "function"
    },
    {
      "inputs": [
        {
          "internalType": "address",
          "name": "forwarder",
          "type": "address"
        }
      ],
      "name": "isTrustedForwarder",
      "outputs": [
        {
          "internalType": "bool",
          "name": "",
          "type": "bool"
        }
      ],
      "stateMutability": "view",
      "type": "function"
    },
    {
      "inputs": [],
      "name": "metadataResolver",
      "outputs": [
        {
          "internalType": "contract ITokenMetadataResolver",
          "name": "tokenMetadataResolver",
          "type": "address"
        }
      ],
      "stateMutability": "view",
      "type": "function"
    },
    {
      "inputs": [],
      "name": "name",
      "outputs": [
        {
          "internalType": "string",
          "name": "tokenName",
          "type": "string"
        }
      ],
      "stateMutability": "view",
      "type": "function"
    },
    {
      "inputs": [],
      "name": "operatorFilterRegistry",
      "outputs": [
        {
          "internalType": "contract IOperatorFilterRegistry",
          "name": "",
          "type": "address"
        }
      ],
      "stateMutability": "view",
      "type": "function"
    },
    {
      "inputs": [],
      "name": "owner",
      "outputs": [
        {
          "internalType": "address",
          "name": "",
          "type": "address"
        }
      ],
      "stateMutability": "view",
      "type": "function"
    },
    {
      "inputs": [
        {
          "internalType": "address[]",
          "name": "accounts",
          "type": "address[]"
        },
        {
          "internalType": "contract IERC20[]",
          "name": "tokens",
          "type": "address[]"
        },
        {
          "internalType": "uint256[]",
          "name": "amounts",
          "type": "uint256[]"
        }
      ],
      "name": "recoverERC20s",
      "outputs": [],
      "stateMutability": "nonpayable",
      "type": "function"
    },
    {
      "inputs": [
        {
          "internalType": "address[]",
          "name": "accounts",
          "type": "address[]"
        },
        {
          "internalType": "contract IERC721[]",
          "name": "contracts",
          "type": "address[]"
        },
        {
          "internalType": "uint256[]",
          "name": "tokenIds",
          "type": "uint256[]"
        }
      ],
      "name": "recoverERC721s",
      "outputs": [],
      "stateMutability": "nonpayable",
      "type": "function"
    },
    {
      "inputs": [
        {
          "internalType": "address payable[]",
          "name": "accounts",
          "type": "address[]"
        },
        {
          "internalType": "uint256[]",
          "name": "amounts",
          "type": "uint256[]"
        }
      ],
      "name": "recoverETH",
      "outputs": [],
      "stateMutability": "nonpayable",
      "type": "function"
    },
    {
      "inputs": [
        {
          "internalType": "bytes32",
          "name": "role",
          "type": "bytes32"
        }
      ],
      "name": "renounceRole",
      "outputs": [],
      "stateMutability": "nonpayable",
      "type": "function"
    },
    {
      "inputs": [
        {
          "internalType": "bytes32",
          "name": "role",
          "type": "bytes32"
        },
        {
          "internalType": "address",
          "name": "account",
          "type": "address"
        }
      ],
      "name": "revokeRole",
      "outputs": [],
      "stateMutability": "nonpayable",
      "type": "function"
    },
    {
      "inputs": [
        {
          "internalType": "uint256",
          "name": "tokenId",
          "type": "uint256"
        },
        {
          "internalType": "uint256",
          "name": "salePrice",
          "type": "uint256"
        }
      ],
      "name": "royaltyInfo",
      "outputs": [
        {
          "internalType": "address",
          "name": "receiver",
          "type": "address"
        },
        {
          "internalType": "uint256",
          "name": "royaltyAmount",
          "type": "uint256"
        }
      ],
      "stateMutability": "view",
      "type": "function"
    },
    {
      "inputs": [
        {
          "internalType": "address",
          "name": "to",
          "type": "address"
        },
        {
          "internalType": "uint256[]",
          "name": "ids",
          "type": "uint256[]"
        },
        {
          "internalType": "uint256[]",
          "name": "values",
          "type": "uint256[]"
        },
        {
          "internalType": "bytes",
          "name": "data",
          "type": "bytes"
        }
      ],
      "name": "safeBatchMint",
      "outputs": [],
      "stateMutability": "nonpayable",
      "type": "function"
    },
    {
      "inputs": [
        {
          "internalType": "address",
          "name": "from",
          "type": "address"
        },
        {
          "internalType": "address",
          "name": "to",
          "type": "address"
        },
        {
          "internalType": "uint256[]",
          "name": "ids",
          "type": "uint256[]"
        },
        {
          "internalType": "uint256[]",
          "name": "values",
          "type": "uint256[]"
        },
        {
          "internalType": "bytes",
          "name": "data",
          "type": "bytes"
        }
      ],
      "name": "safeBatchTransferFrom",
      "outputs": [],
      "stateMutability": "nonpayable",
      "type": "function"
    },
    {
      "inputs": [
        {
          "internalType": "address[]",
          "name": "recipients",
          "type": "address[]"
        },
        {
          "internalType": "uint256[]",
          "name": "ids",
          "type": "uint256[]"
        },
        {
          "internalType": "uint256[]",
          "name": "values",
          "type": "uint256[]"
        },
        {
          "internalType": "bytes",
          "name": "data",
          "type": "bytes"
        }
      ],
      "name": "safeDeliver",
      "outputs": [],
      "stateMutability": "nonpayable",
      "type": "function"
    },
    {
      "inputs": [
        {
          "internalType": "address",
          "name": "to",
          "type": "address"
        },
        {
          "internalType": "uint256",
          "name": "id",
          "type": "uint256"
        },
        {
          "internalType": "uint256",
          "name": "value",
          "type": "uint256"
        },
        {
          "internalType": "bytes",
          "name": "data",
          "type": "bytes"
        }
      ],
      "name": "safeMint",
      "outputs": [],
      "stateMutability": "nonpayable",
      "type": "function"
    },
    {
      "inputs": [
        {
          "internalType": "address",
          "name": "from",
          "type": "address"
        },
        {
          "internalType": "address",
          "name": "to",
          "type": "address"
        },
        {
          "internalType": "uint256",
          "name": "id",
          "type": "uint256"
        },
        {
          "internalType": "uint256",
          "name": "value",
          "type": "uint256"
        },
        {
          "internalType": "bytes",
          "name": "data",
          "type": "bytes"
        }
      ],
      "name": "safeTransferFrom",
      "outputs": [],
      "stateMutability": "nonpayable",
      "type": "function"
    },
    {
      "inputs": [
        {
          "internalType": "address",
          "name": "operator",
          "type": "address"
        },
        {
          "internalType": "bool",
          "name": "approved",
          "type": "bool"
        }
      ],
      "name": "setApprovalForAll",
      "outputs": [],
      "stateMutability": "nonpayable",
      "type": "function"
    },
    {
      "inputs": [
        {
          "internalType": "uint256",
          "name": "percentage",
          "type": "uint256"
        }
      ],
      "name": "setRoyaltyPercentage",
      "outputs": [],
      "stateMutability": "nonpayable",
      "type": "function"
    },
    {
      "inputs": [
        {
          "internalType": "address",
          "name": "receiver",
          "type": "address"
        }
      ],
      "name": "setRoyaltyReceiver",
      "outputs": [],
      "stateMutability": "nonpayable",
      "type": "function"
    },
    {
      "inputs": [
        {
          "internalType": "uint256",
          "name": "tokenId",
          "type": "uint256"
        },
        {
          "internalType": "string",
          "name": "tokenURI",
          "type": "string"
        }
      ],
      "name": "setTokenURI",
      "outputs": [],
      "stateMutability": "nonpayable",
      "type": "function"
    },
    {
      "inputs": [
        {
          "internalType": "bytes4",
          "name": "interfaceId",
          "type": "bytes4"
        }
      ],
      "name": "supportsInterface",
      "outputs": [
        {
          "internalType": "bool",
          "name": "",
          "type": "bool"
        }
      ],
      "stateMutability": "view",
      "type": "function"
    },
    {
      "inputs": [],
      "name": "symbol",
      "outputs": [
        {
          "internalType": "string",
          "name": "tokenSymbol",
          "type": "string"
        }
      ],
      "stateMutability": "view",
      "type": "function"
    },
    {
      "inputs": [
        {
          "internalType": "address",
          "name": "newOwner",
          "type": "address"
        }
      ],
      "name": "transferOwnership",
      "outputs": [],
      "stateMutability": "nonpayable",
      "type": "function"
    },
    {
      "inputs": [
        {
          "internalType": "contract IOperatorFilterRegistry",
          "name": "registry",
          "type": "address"
        }
      ],
      "name": "updateOperatorFilterRegistry",
      "outputs": [],
      "stateMutability": "nonpayable",
      "type": "function"
    },
    {
      "inputs": [
        {
          "internalType": "uint256",
          "name": "tokenId",
          "type": "uint256"
        }
      ],
      "name": "uri",
      "outputs": [
        {
          "internalType": "string",
          "name": "metadataURI",
          "type": "string"
        }
      ],
      "stateMutability": "view",
      "type": "function"
    }
  ],
  "bytecode": "0x60a060405234801561001057600080fd5b5060405161497e38038061497e83398101604081905261002f91610040565b6001600160a01b0316608052610070565b60006020828403121561005257600080fd5b81516001600160a01b038116811461006957600080fd5b9392505050565b6080516148d06100ae600039600081816103a90152818161045a01528181612d4101528181612dcf01528181613615015261365301526148d06000f3fe608060405234801561001057600080fd5b50600436106102915760003560e01c806373c8a95811610160578063b0ccc31e116100d8578063e8ab9ccc1161008c578063f242432a11610071578063f242432a146105df578063f2fde38b146105f2578063f7ba94bd1461060557600080fd5b8063e8ab9ccc146105b9578063e985e9c5146105cc57600080fd5b8063d5391393116100bd578063d539139314610575578063d547741f1461059c578063e1a8bf2c146105af57600080fd5b8063b0ccc31e1461055a578063c3666c361461056257600080fd5b80638dc251e31161012f57806395d89b411161011457806395d89b4114610537578063a0c76f621461053f578063a22cb4651461054757600080fd5b80638dc251e31461051157806391d148541461052457600080fd5b806373c8a958146104d057806380534934146104e35780638bb9c5bf146104f65780638da5cb5b1461050957600080fd5b80632a55205a1161020e5780634e1273f4116101c25780635cfa9297116101a75780635cfa92971461049757806361ba27da146104aa5780636706467b146104bd57600080fd5b80634e1273f41461042a578063572b6c051461044a57600080fd5b80632eb2c2d6116101f35780632eb2c2d6146103ee5780632f2ff15d1461040157806331e66e1e1461041457600080fd5b80632a55205a146103685780632b4c9f16146103a757600080fd5b80630e07f85411610265578063114ba8ee1161024a578063114ba8ee1461032f578063124d91e514610342578063162094c41461035557600080fd5b80630e07f854146103095780630e89341c1461031c57600080fd5b8062fdd58e1461029657806301ffc9a7146102bc57806306fdde03146102df5780630d6a5bbb146102f4575b600080fd5b6102a96102a43660046139a5565b610618565b6040519081526020015b60405180910390f35b6102cf6102ca3660046139ff565b610637565b60405190151581526020016102b3565b6102e761064b565b6040516102b39190613a91565b610307610302366004613b2b565b610662565b005b610307610317366004613be4565b61075d565b6102e761032a366004613c7e565b6107da565b61030761033d366004613c97565b6107f0565b610307610350366004613cb4565b61085b565b610307610363366004613ce9565b61087f565b61037b610376366004613d35565b610951565b6040805173ffffffffffffffffffffffffffffffffffffffff90931683526020830191909152016102b3565b7f00000000000000000000000000000000000000000000000000000000000000005b60405173ffffffffffffffffffffffffffffffffffffffff90911681526020016102b3565b6103076103fc366004613d57565b610974565b61030761040f366004613e22565b6109c1565b61041c6109ef565b6040516102b3929190613e9b565b61043d610438366004613eaf565b610a02565b6040516102b39190613f5c565b6102cf610458366004613c97565b7f000000000000000000000000000000000000000000000000000000000000000073ffffffffffffffffffffffffffffffffffffffff90811691161490565b6103076104a5366004613f6f565b610a25565b6103076104b8366004613c7e565b610aaf565b6103076104cb366004613eaf565b610acc565b6103076104de366004613fd9565b610c04565b6103076104f136600461407f565b610cf0565b610307610504366004613c7e565b610d13565b6103c9610d2e565b61030761051f366004613c97565b610d55565b6102cf610532366004613e22565b610d72565b6102e7610db6565b6103c9610dc8565b610307610555366004614104565b610dd5565b6103c9610e0e565b610307610570366004613fd9565b610e1b565b6102a97f6d696e746572000000000000000000000000000000000000000000000000000081565b6103076105aa366004613e22565b6110bc565b6102a9620186a081565b6103076105c7366004614132565b6110ea565b6102cf6105da3660046141e9565b611204565b6103076105ed366004614217565b611252565b610307610600366004613c97565b611292565b610307610613366004613eaf565b6112ad565b600061062e8383610627611364565b9190611392565b90505b92915050565b600061063182610645611416565b90611444565b606061065d61065861151e565b61154c565b905090565b600061066c6115e2565b90506106a27f6d696e74657200000000000000000000000000000000000000000000000000008261069b6115ec565b919061161a565b610753818989898080602002602001604051908101604052809392919081815260200183836020028082843760009201919091525050604080516020808d0282810182019093528c82529093508c92508b91829185019084908082843760009201919091525050604080516020601f8c018190048102820181019092528a815292508a91508990819084018382808284376000920191909152506107499250611364915050565b94939291906116a0565b5050505050505050565b6107766107686115e2565b610770611826565b90611854565b61077e611893565b6107866118ca565b61078e6118f8565b610796611926565b61079e611954565b6107a6611982565b6107c086868686866107b661151e565b94939291906119b0565b6107d2816107cc611a4a565b90611a78565b505050505050565b606061063130836107e961151e565b9190611ae8565b6108096107fb6115e2565b610803611826565b90611bb0565b61085881610815611a4a565b9081547fffffffffffffffffffffffff00000000000000000000000000000000000000001673ffffffffffffffffffffffffffffffffffffffff91909116179055565b50565b61087a6108666115e2565b848484610871611364565b93929190611c1b565b505050565b6108a761088a61151e565b6002015473ffffffffffffffffffffffffffffffffffffffff1690565b73ffffffffffffffffffffffffffffffffffffffff163373ffffffffffffffffffffffffffffffffffffffff1614610912576040517f220606710000000000000000000000000000000000000000000000000000000081523360048201526024015b60405180910390fd5b827f6bb7ff708619ba0610cba295a58592e0451dee2622938c8755667688daf3529b8383604051610944929190613e9b565b60405180910390a2505050565b6000806109688484610961611ce8565b9190611d16565b915091505b9250929050565b600061097e6115e2565b9050610994818a61098d611a4a565b9190611dc0565b6109b6818a8a8a8a8a8a8a8a6109a8611364565b989796959493929190611dfd565b505050505050505050565b60006109cb6115e2565b90506109d981610803611826565b61087a8383836109e76115ec565b929190612086565b3660006109fa61215d565b915091509091565b6060610a1c85858585610a13611364565b93929190612168565b95945050505050565b6000610a2f6115e2565b9050610a5e7f6d696e74657200000000000000000000000000000000000000000000000000008261069b6115ec565b6107d28187878787878080601f016020809104026020016040519081016040528093929190818152602001838380828437600092019190915250610aa59250611364915050565b9493929190612277565b610aba6107fb6115e2565b61085881610ac6611ce8565b90612355565b828114610b05576040517f6582533600000000000000000000000000000000000000000000000000000000815260040160405180910390fd5b610b1061088a61151e565b73ffffffffffffffffffffffffffffffffffffffff163373ffffffffffffffffffffffffffffffffffffffff1614610b76576040517f22060671000000000000000000000000000000000000000000000000000000008152336004820152602401610909565b60005b83811015610bfd57848482818110610b9357610b93614281565b905060200201357f6bb7ff708619ba0610cba295a58592e0451dee2622938c8755667688daf3529b848484818110610bcd57610bcd614281565b9050602002810190610bdf91906142b0565b604051610bed929190613e9b565b60405180910390a2600101610b79565b5050505050565b610c0f6107fb6115e2565b848381141580610c1f5750808214155b15610c56576040517f6582533600000000000000000000000000000000000000000000000000000000815260040160405180910390fd5b60005b8181101561075357610ce8888883818110610c7657610c76614281565b9050602002016020810190610c8b9190613c97565b858584818110610c9d57610c9d614281565b90506020020135888885818110610cb657610cb6614281565b9050602002016020810190610ccb9190613c97565b73ffffffffffffffffffffffffffffffffffffffff1691906123db565b600101610c59565b610bfd610cfb6115e2565b8686868686610d08611364565b959493929190612468565b610858610d1e6115e2565b82610d276115ec565b91906125e0565b600061065d610d3b611826565b5473ffffffffffffffffffffffffffffffffffffffff1690565b610d606107fb6115e2565b61085881610d6c611ce8565b90612684565b600061062e8383610d816115ec565b60009283526020908152604080842073ffffffffffffffffffffffffffffffffffffffff909316845291905290205460ff1690565b606061065d610dc361151e565b6126d1565b600061065d61088a61151e565b8015610ded57610ded82610de7611a4a565b906126e2565b610e0a610df86115e2565b8383610e02611364565b9291906126ec565b5050565b600061065d610d3b611a4a565b610e266107fb6115e2565b848381141580610e365750808214155b15610e6d576040517f6582533600000000000000000000000000000000000000000000000000000000815260040160405180910390fd5b60005b81811015610753576000868683818110610e8c57610e8c614281565b9050602002016020810190610ea19190613c97565b6040517f01ffc9a70000000000000000000000000000000000000000000000000000000081527f80ac58cd00000000000000000000000000000000000000000000000000000000600482015290915073ffffffffffffffffffffffffffffffffffffffff8216906301ffc9a790602401602060405180830381865afa158015610f2e573d6000803e3d6000fd5b505050506040513d601f19601f82011682018060405250810190610f529190614315565b610fa0576040517f986b9f1f00000000000000000000000000000000000000000000000000000000815273ffffffffffffffffffffffffffffffffffffffff82166004820152602401610909565b868683818110610fb257610fb2614281565b9050602002016020810190610fc79190613c97565b73ffffffffffffffffffffffffffffffffffffffff166342842e0e308b8b86818110610ff557610ff5614281565b905060200201602081019061100a9190613c97565b88888781811061101c5761101c614281565b6040517fffffffff0000000000000000000000000000000000000000000000000000000060e088901b16815273ffffffffffffffffffffffffffffffffffffffff958616600482015294909316602485015250602090910201356044820152606401600060405180830381600087803b15801561109857600080fd5b505af11580156110ac573d6000803e3d6000fd5b5050505050806001019050610e70565b60006110c66115e2565b90506110d481610803611826565b61087a8383836110e26115ec565b929190612804565b60006110f46115e2565b90506111237f6d696e74657200000000000000000000000000000000000000000000000000008261069b6115ec565b6109b6818a8a8080602002602001604051908101604052809392919081815260200183836020028082843760009201919091525050604080516020808e0282810182019093528d82529093508d92508c91829185019084908082843760009201919091525050604080516020808d0282810182019093528c82529093508c92508b91829185019084908082843760009201919091525050604080516020601f8c018190048102820181019092528a815292508a91508990819084018382808284376000920191909152506111fa9250611364915050565b94939291906128ce565b600061062e8383611213611364565b919073ffffffffffffffffffffffffffffffffffffffff9182166000908152600193909301602090815260408085209290931684525290205460ff1690565b600061125c6115e2565b905061126b818861098d611a4a565b6112898188888888888861127d611364565b96959493929190612991565b50505050505050565b61085861129d6115e2565b826112a6611826565b9190612b34565b6112b86107fb6115e2565b828181146112f2576040517f6582533600000000000000000000000000000000000000000000000000000000815260040160405180910390fd5b60005b818110156107d25761135c84848381811061131257611312614281565b9050602002013587878481811061132b5761132b614281565b90506020020160208101906113409190613c97565b73ffffffffffffffffffffffffffffffffffffffff1690612c48565b6001016112f5565b60008061063160017f5ccf5846fa27a68fafc8e588671a68f5e67c2f9b56af4263806a4d71735e8613614361565b600073ffffffffffffffffffffffffffffffffffffffff83166113e1576040517fca2434a500000000000000000000000000000000000000000000000000000000815260040160405180910390fd5b5060009081526020928352604080822073ffffffffffffffffffffffffffffffffffffffff9390931682529190925290205490565b60008061063160017fca9d3e17f264b0f3984e2634e94adb37fa3e6a8103f06aeae6fa59e21c769f5e614361565b60007c01000000000000000000000000000000000000000000000000000000007fffffffff0000000000000000000000000000000000000000000000000000000083160161149457506000610631565b7ffe003659000000000000000000000000000000000000000000000000000000007fffffffff000000000000000000000000000000000000000000000000000000008316016114e557506001610631565b507fffffffff00000000000000000000000000000000000000000000000000000000166000908152602091909152604090205460ff1690565b60008061063160017f7ea68fd2dcf1c056b94db6a0a537aa80d26fa9ab1eacd85da1ba0b61b7e7a8a5614361565b606081600001805461155d90614374565b80601f016020809104026020016040519081016040528092919081815260200182805461158990614374565b80156115d65780601f106115ab576101008083540402835291602001916115d6565b820191906000526020600020905b8154815290600101906020018083116115b957829003601f168201915b50505050509050919050565b600061065d612cfe565b60008061063160017fc8827d3282af6f37b64c3e9e6f3ac9df286ab0bb0fccd6f8661bf19adb368b23614361565b60008281526020848152604080832073ffffffffffffffffffffffffffffffffffffffff8516845290915290205460ff1661087a576040517f7aa728820000000000000000000000000000000000000000000000000000000081526004810183905273ffffffffffffffffffffffffffffffffffffffff82166024820152604401610909565b73ffffffffffffffffffffffffffffffffffffffff84166116ed576040517f021149bd00000000000000000000000000000000000000000000000000000000815260040160405180910390fd5b825182518114611729576040517f6582533600000000000000000000000000000000000000000000000000000000815260040160405180910390fd5b60005b8181101561177a57611772888787848151811061174b5761174b614281565b602002602001015187858151811061176557611765614281565b6020026020010151612e4b565b60010161172c565b508473ffffffffffffffffffffffffffffffffffffffff16600073ffffffffffffffffffffffffffffffffffffffff168773ffffffffffffffffffffffffffffffffffffffff167f4a39dc06d4c0dbc64b70af90fd698a233a518aa5d07e595d983b8c0526c8f7fb87876040516117f29291906143c7565b60405180910390a473ffffffffffffffffffffffffffffffffffffffff85163b156112895761128986600087878787612f1c565b60008061063160017fc9ed16f33ab3a66c84bfd83099ccb2a8845871e2e1c1928f63797152f0fd54cd614361565b61188961188260017f5b388d90dc1312ba799f321972f13311234fa1163bcabec7cf66101c4876eb84614361565b600161301a565b610e0a8282613066565b6118c87fd9b67a260000000000000000000000000000000000000000000000000000000060016118c1611416565b919061311c565b565b6118c87f0e89341c0000000000000000000000000000000000000000000000000000000060016118c1611416565b6118c87f5190c92c0000000000000000000000000000000000000000000000000000000060016118c1611416565b6118c87fe8ab9ccc0000000000000000000000000000000000000000000000000000000060016118c1611416565b6118c87f921ed8d10000000000000000000000000000000000000000000000000000000060016118c1611416565b6118c87f2a55205a0000000000000000000000000000000000000000000000000000000060016118c1611416565b6119de61188260017f92f72593ca50a0096f68ee94e7000db40ed086164b695855e2250750b8bfaf59614361565b856119ea858783614462565b50600186016119fa838583614462565b5060029590950180547fffffffffffffffffffffffff00000000000000000000000000000000000000001673ffffffffffffffffffffffffffffffffffffffff9096169590951790945550505050565b60008061063160017f609b85bcafa81ecfaf3ff62cdde2c6c9082a68dbe4922f07399c706bdeb7cd31614361565b611aa661188260017f2f02d396cb1be29636682c8684200b30a98554d3b74293aa4495cb5e1d252f6e614361565b81547fffffffffffffffffffffffff00000000000000000000000000000000000000001673ffffffffffffffffffffffffffffffffffffffff91909116179055565b60028301546040517ff724dad700000000000000000000000000000000000000000000000000000000815273ffffffffffffffffffffffffffffffffffffffff848116600483015260248201849052606092169063f724dad790604401600060405180830381865afa158015611b62573d6000803e3d6000fd5b505050506040513d6000823e601f3d9081017fffffffffffffffffffffffffffffffffffffffffffffffffffffffffffffffe0168201604052611ba8919081019061457c565b949350505050565b815473ffffffffffffffffffffffffffffffffffffffff828116911614610e0a576040517f2ef4875e00000000000000000000000000000000000000000000000000000000815273ffffffffffffffffffffffffffffffffffffffff82166004820152602401610909565b611c268584866131f8565b611c7c576040517f05bbb9c400000000000000000000000000000000000000000000000000000000815273ffffffffffffffffffffffffffffffffffffffff808616600483015284166024820152604401610909565b611c888584848461326d565b604080518381526020810183905260009173ffffffffffffffffffffffffffffffffffffffff86811692908816917fc3d58168c5ae7397731d063d5bbf3d657854427343f4c083240f7aacaa2d0f62910160405180910390a45050505050565b60008061063160017f2c0cf10337caabbd02dcf226f05f5fd19a0919a41a8df8958c39b80007826858614361565b825473ffffffffffffffffffffffffffffffffffffffff8116906000907401000000000000000000000000000000000000000090046bffffffffffffffffffffffff16831580611d64575080155b15611d725760009150611db7565b620186a0841015611d9c57620186a0611d8b8286614665565b611d95919061467c565b9150611db7565b80611daa620186a08661467c565b611db49190614665565b91505b50935093915050565b8073ffffffffffffffffffffffffffffffffffffffff168273ffffffffffffffffffffffffffffffffffffffff161461087a5761087a838361330a565b73ffffffffffffffffffffffffffffffffffffffff8716611e4a576040517fb5e8901500000000000000000000000000000000000000000000000000000000815260040160405180910390fd5b84838114611e84576040517f6582533600000000000000000000000000000000000000000000000000000000815260040160405180910390fd5b611e8f8b8a8c6131f8565b611ee5576040517f05bbb9c400000000000000000000000000000000000000000000000000000000815273ffffffffffffffffffffffffffffffffffffffff808c1660048301528a166024820152604401610909565b60005b81811015611f3557611f2d8c8b8b8b8b86818110611f0857611f08614281565b905060200201358a8a87818110611f2157611f21614281565b90506020020135613431565b600101611ee8565b508773ffffffffffffffffffffffffffffffffffffffff168973ffffffffffffffffffffffffffffffffffffffff168b73ffffffffffffffffffffffffffffffffffffffff167f4a39dc06d4c0dbc64b70af90fd698a233a518aa5d07e595d983b8c0526c8f7fb8a8a8a8a604051611fb09493929190614702565b60405180910390a473ffffffffffffffffffffffffffffffffffffffff88163b15612079576120798a8a8a8a8a8080602002602001604051908101604052809392919081815260200183836020028082843760009201919091525050604080516020808e0282810182019093528d82529093508d92508c91829185019084908082843760009201919091525050604080516020601f8d018190048102820181019092528b815292508b91508a9081908401838280828437600092019190915250612f1c92505050565b5050505050505050505050565b60008381526020858152604080832073ffffffffffffffffffffffffffffffffffffffff8616845290915290205460ff166121575760008381526020858152604080832073ffffffffffffffffffffffffffffffffffffffff8681168086529184529382902080547fffffffffffffffffffffffffffffffffffffffffffffffffffffffffffffff00166001179055815187815292830152918316918101919091527f2f8788117e7eff1d82e926ec794901d17c78024a50270940304540a733656f0d906060015b60405180910390a15b50505050565b3660006109fa6135de565b6060838281146121a4576040517f6582533600000000000000000000000000000000000000000000000000000000815260040160405180910390fd5b8467ffffffffffffffff8111156121bd576121bd6143ec565b6040519080825280602002602001820160405280156121e6578160200160208202803683370190505b50915060005b8181101561226c5761224787878381811061220957612209614281565b905060200201602081019061221e9190613c97565b86868481811061223057612230614281565b905060200201358a6113929092919063ffffffff16565b83828151811061225957612259614281565b60209081029190910101526001016121ec565b505095945050505050565b73ffffffffffffffffffffffffffffffffffffffff84166122c4576040517f021149bd00000000000000000000000000000000000000000000000000000000815260040160405180910390fd5b6122d086858585612e4b565b604080518481526020810184905273ffffffffffffffffffffffffffffffffffffffff80871692600092918916917fc3d58168c5ae7397731d063d5bbf3d657854427343f4c083240f7aacaa2d0f62910160405180910390a473ffffffffffffffffffffffffffffffffffffffff84163b156107d2576107d28560008686868661374e565b620186a0811115612395576040517fac04040800000000000000000000000000000000000000000000000000000000815260048101829052602401610909565b81546bffffffffffffffffffffffff909116740100000000000000000000000000000000000000000273ffffffffffffffffffffffffffffffffffffffff909116179055565b6040805173ffffffffffffffffffffffffffffffffffffffff8416602482015260448082018490528251808303909101815260649091019091526020810180517bffffffffffffffffffffffffffffffffffffffffffffffffffffffff167fa9059cbb0000000000000000000000000000000000000000000000000000000017905261087a90849061386c565b828181146124a2576040517f6582533600000000000000000000000000000000000000000000000000000000815260040160405180910390fd5b6124ad8887896131f8565b612503576040517f05bbb9c400000000000000000000000000000000000000000000000000000000815273ffffffffffffffffffffffffffffffffffffffff808916600483015287166024820152604401610909565b60005b818110156125525761254a898888888581811061252557612525614281565b9050602002013587878681811061253e5761253e614281565b9050602002013561326d565b600101612506565b50600073ffffffffffffffffffffffffffffffffffffffff168673ffffffffffffffffffffffffffffffffffffffff168873ffffffffffffffffffffffffffffffffffffffff167f4a39dc06d4c0dbc64b70af90fd698a233a518aa5d07e595d983b8c0526c8f7fb888888886040516125ce9493929190614702565b60405180910390a45050505050505050565b6125eb83828461161a565b60008181526020848152604080832073ffffffffffffffffffffffffffffffffffffffff86168085529083529281902080547fffffffffffffffffffffffffffffffffffffffffffffffffffffffffffffff0016905580518481529182018390528101919091527ff6391f5c32d9c69d2a47ea670b442974b53935d1edc7fd64eb21e047a839171b9060600160405180910390a1505050565b73ffffffffffffffffffffffffffffffffffffffff8116611aa6576040517f16de0c8000000000000000000000000000000000000000000000000000000000815260040160405180910390fd5b606081600101805461155d90614374565b610e0a828261330a565b8273ffffffffffffffffffffffffffffffffffffffff168273ffffffffffffffffffffffffffffffffffffffff1603612769576040517ffb0fdf6100000000000000000000000000000000000000000000000000000000815273ffffffffffffffffffffffffffffffffffffffff84166004820152602401610909565b73ffffffffffffffffffffffffffffffffffffffff838116600081815260018701602090815260408083209487168084529482529182902080547fffffffffffffffffffffffffffffffffffffffffffffffffffffffffffffff001686151590811790915591519182527f17307eab39ab6107e8899845ad3d59bd9653f200f220920489ca2b5937696c31910160405180910390a350505050565b60008381526020858152604080832073ffffffffffffffffffffffffffffffffffffffff8616845290915290205460ff16156121575760008381526020858152604080832073ffffffffffffffffffffffffffffffffffffffff8681168086529184529382902080547fffffffffffffffffffffffffffffffffffffffffffffffffffffffffffffff00169055815187815292830152918316918101919091527ff6391f5c32d9c69d2a47ea670b442974b53935d1edc7fd64eb21e047a839171b9060600161214e565b83518351811415806128e1575082518114155b15612918576040517f6582533600000000000000000000000000000000000000000000000000000000815260040160405180910390fd5b60005b81811015610753576129898787838151811061293957612939614281565b602002602001015187848151811061295357612953614281565b602002602001015187858151811061296d5761296d614281565b6020026020010151878d6122779095949392919063ffffffff16565b60010161291b565b73ffffffffffffffffffffffffffffffffffffffff85166129de576040517fb5e8901500000000000000000000000000000000000000000000000000000000815260040160405180910390fd5b6129e98887896131f8565b612a3f576040517f05bbb9c400000000000000000000000000000000000000000000000000000000815273ffffffffffffffffffffffffffffffffffffffff808916600483015287166024820152604401610909565b612a4c8887878787613431565b8473ffffffffffffffffffffffffffffffffffffffff168673ffffffffffffffffffffffffffffffffffffffff168873ffffffffffffffffffffffffffffffffffffffff167fc3d58168c5ae7397731d063d5bbf3d657854427343f4c083240f7aacaa2d0f628787604051612acb929190918252602082015260400190565b60405180910390a473ffffffffffffffffffffffffffffffffffffffff85163b1561075357610753878787878787878080601f01602080910402602001604051908101604052809392919081815260200183838082843760009201919091525061374e92505050565b825473ffffffffffffffffffffffffffffffffffffffff9081169083168114612ba1576040517f2ef4875e00000000000000000000000000000000000000000000000000000000815273ffffffffffffffffffffffffffffffffffffffff84166004820152602401610909565b8173ffffffffffffffffffffffffffffffffffffffff168173ffffffffffffffffffffffffffffffffffffffff16146121575783547fffffffffffffffffffffffff00000000000000000000000000000000000000001673ffffffffffffffffffffffffffffffffffffffff8381169182178655604051908316907f8be0079c531659141344cd1fd0a4f28419497f9722a3daafe3b4186f6b6457e090600090a350505050565b80471015612c8b576040517fcf47918100000000000000000000000000000000000000000000000000000000815247600482015260248101829052604401610909565b6000808373ffffffffffffffffffffffffffffffffffffffff168360405160006040518083038185875af1925050503d8060008114612ce6576040519150601f19603f3d011682016040523d82523d6000602084013e612ceb565b606091505b5091509150816121575761215781613910565b600033321480612d0e5750601836105b15612d1857503390565b7fffffffffffffffffffffffffffffffffffffffffffffffffffffffffffffffec36013560601c7f000000000000000000000000000000000000000000000000000000000000000073ffffffffffffffffffffffffffffffffffffffff16331480612e3a57506040517f019a202800000000000000000000000000000000000000000000000000000000815273ffffffffffffffffffffffffffffffffffffffff82811660048301523360248301523060448301527f0000000000000000000000000000000000000000000000000000000000000000169063019a202890606401602060405180830381865afa158015612e16573d6000803e3d6000fd5b505050506040513d601f19601f82011682018060405250810190612e3a9190614315565b15612e4457919050565b3391505090565b80156121575760008281526020858152604080832073ffffffffffffffffffffffffffffffffffffffff87168452909152902054818101818111612ee8576040517f42fb00bc00000000000000000000000000000000000000000000000000000000815273ffffffffffffffffffffffffffffffffffffffff86166004820152602481018590526044810183905260648101849052608401610909565b60009384526020958652604080852073ffffffffffffffffffffffffffffffffffffffff9690961685529490955250502055565b6040517fbc197c81000000000000000000000000000000000000000000000000000000008082529073ffffffffffffffffffffffffffffffffffffffff86169063bc197c8190612f78908a908a90899089908990600401614734565b6020604051808303816000875af1158015612f97573d6000803e3d6000fd5b505050506040513d601f19601f82011682018060405250810190612fbb91906147b1565b7fffffffff0000000000000000000000000000000000000000000000000000000016146107d2578383836040517fc287817e000000000000000000000000000000000000000000000000000000008152600401610909939291906147ce565b81548290828110613061576040517fbf0c18ec0000000000000000000000000000000000000000000000000000000081526004810182905260248101849052604401610909565b505550565b73ffffffffffffffffffffffffffffffffffffffff8116156130ee5781547fffffffffffffffffffffffff00000000000000000000000000000000000000001673ffffffffffffffffffffffffffffffffffffffff821690811783556040516000907f8be0079c531659141344cd1fd0a4f28419497f9722a3daafe3b4186f6b6457e0908290a35b610e0a7f7f5828d00000000000000000000000000000000000000000000000000000000060016118c1611416565b7c01000000000000000000000000000000000000000000000000000000007fffffffff00000000000000000000000000000000000000000000000000000000831601613194576040517f72c683bb00000000000000000000000000000000000000000000000000000000815260040160405180910390fd5b7fffffffff00000000000000000000000000000000000000000000000000000000919091166000908152602092909252604090912080547fffffffffffffffffffffffffffffffffffffffffffffffffffffffffffffff0016911515919091179055565b60008173ffffffffffffffffffffffffffffffffffffffff168373ffffffffffffffffffffffffffffffffffffffff161480611ba857505073ffffffffffffffffffffffffffffffffffffffff9182166000908152600193909301602090815260408085209290931684525290205460ff1690565b80156121575760008281526020858152604080832073ffffffffffffffffffffffffffffffffffffffff87168452909152902054818103818110612ee8576040517f03dee4c500000000000000000000000000000000000000000000000000000000815273ffffffffffffffffffffffffffffffffffffffff86166004820152602481018590526044810183905260648101849052608401610909565b815473ffffffffffffffffffffffffffffffffffffffff168015801590613348575060008173ffffffffffffffffffffffffffffffffffffffff163b115b1561087a576040517fc617113400000000000000000000000000000000000000000000000000000000815230600482015273ffffffffffffffffffffffffffffffffffffffff838116602483015282169063c617113490604401602060405180830381865afa1580156133bf573d6000803e3d6000fd5b505050506040513d601f19601f820116820180604052508101906133e39190614315565b61087a576040517fede71dcc00000000000000000000000000000000000000000000000000000000815273ffffffffffffffffffffffffffffffffffffffff83166004820152602401610909565b8015610bfd5760008281526020868152604080832073ffffffffffffffffffffffffffffffffffffffff881684529091529020548181038181106134ce576040517f03dee4c500000000000000000000000000000000000000000000000000000000815273ffffffffffffffffffffffffffffffffffffffff87166004820152602481018590526044810183905260648101849052608401610909565b8473ffffffffffffffffffffffffffffffffffffffff168673ffffffffffffffffffffffffffffffffffffffff16146112895760008481526020888152604080832073ffffffffffffffffffffffffffffffffffffffff89168452909152902054838101818111613598576040517f42fb00bc00000000000000000000000000000000000000000000000000000000815273ffffffffffffffffffffffffffffffffffffffff88166004820152602481018790526044810183905260648101869052608401610909565b600086815260208a8152604080832073ffffffffffffffffffffffffffffffffffffffff808d1685528184528285208890558b1684529091529020555050505050505050565b366000333214806135ef5750601836105b156135fd5750600091369150565b3373ffffffffffffffffffffffffffffffffffffffff7f0000000000000000000000000000000000000000000000000000000000000000161480613738575073ffffffffffffffffffffffffffffffffffffffff7f00000000000000000000000000000000000000000000000000000000000000001663019a2028367fffffffffffffffffffffffffffffffffffffffffffffffffffffffffffffffec013560601c6040517fffffffff0000000000000000000000000000000000000000000000000000000060e084901b16815273ffffffffffffffffffffffffffffffffffffffff9091166004820152336024820152306044820152606401602060405180830381865afa158015613714573d6000803e3d6000fd5b505050506040513d601f19601f820116820180604052508101906137389190614315565b15613745576109fa613952565b50600091369150565b6040517ff23a6e61000000000000000000000000000000000000000000000000000000008082529073ffffffffffffffffffffffffffffffffffffffff86169063f23a6e61906137aa908a908a90899089908990600401614819565b6020604051808303816000875af11580156137c9573d6000803e3d6000fd5b505050506040513d601f19601f820116820180604052508101906137ed91906147b1565b7fffffffff0000000000000000000000000000000000000000000000000000000016146107d2576040517f40f39d3800000000000000000000000000000000000000000000000000000000815273ffffffffffffffffffffffffffffffffffffffff851660048201526024810184905260448101839052606401610909565b600080602060008451602086016000885af18061388f576040513d6000823e3d81fd5b50506000513d915081156138a75780600114156138c1565b73ffffffffffffffffffffffffffffffffffffffff84163b155b15612157576040517f5274afe700000000000000000000000000000000000000000000000000000000815273ffffffffffffffffffffffffffffffffffffffff85166004820152602401610909565b8051156139205780518082602001fd5b6040517fd6bda27500000000000000000000000000000000000000000000000000000000815260040160405180910390fd5b3660006109fa7fffffffffffffffffffffffffffffffffffffffffffffffffffffffffffffffec8301828481614870565b73ffffffffffffffffffffffffffffffffffffffff8116811461085857600080fd5b600080604083850312156139b857600080fd5b82356139c381613983565b946020939093013593505050565b7fffffffff000000000000000000000000000000000000000000000000000000008116811461085857600080fd5b600060208284031215613a1157600080fd5b8135613a1c816139d1565b9392505050565b60005b83811015613a3e578181015183820152602001613a26565b50506000910152565b60008151808452613a5f816020860160208601613a23565b601f017fffffffffffffffffffffffffffffffffffffffffffffffffffffffffffffffe0169290920160200192915050565b60208152600061062e6020830184613a47565b60008083601f840112613ab657600080fd5b50813567ffffffffffffffff811115613ace57600080fd5b6020830191508360208260051b850101111561096d57600080fd5b60008083601f840112613afb57600080fd5b50813567ffffffffffffffff811115613b1357600080fd5b60208301915083602082850101111561096d57600080fd5b60008060008060008060006080888a031215613b4657600080fd5b8735613b5181613983565b9650602088013567ffffffffffffffff811115613b6d57600080fd5b613b798a828b01613aa4565b909750955050604088013567ffffffffffffffff811115613b9957600080fd5b613ba58a828b01613aa4565b909550935050606088013567ffffffffffffffff811115613bc557600080fd5b613bd18a828b01613ae9565b989b979a50959850939692959293505050565b60008060008060008060808789031215613bfd57600080fd5b863567ffffffffffffffff811115613c1457600080fd5b613c2089828a01613ae9565b909750955050602087013567ffffffffffffffff811115613c4057600080fd5b613c4c89828a01613ae9565b9095509350506040870135613c6081613983565b91506060870135613c7081613983565b809150509295509295509295565b600060208284031215613c9057600080fd5b5035919050565b600060208284031215613ca957600080fd5b8135613a1c81613983565b600080600060608486031215613cc957600080fd5b8335613cd481613983565b95602085013595506040909401359392505050565b600080600060408486031215613cfe57600080fd5b83359250602084013567ffffffffffffffff811115613d1c57600080fd5b613d2886828701613ae9565b9497909650939450505050565b60008060408385031215613d4857600080fd5b50508035926020909101359150565b60008060008060008060008060a0898b031215613d7357600080fd5b8835613d7e81613983565b97506020890135613d8e81613983565b9650604089013567ffffffffffffffff811115613daa57600080fd5b613db68b828c01613aa4565b909750955050606089013567ffffffffffffffff811115613dd657600080fd5b613de28b828c01613aa4565b909550935050608089013567ffffffffffffffff811115613e0257600080fd5b613e0e8b828c01613ae9565b999c989b5096995094979396929594505050565b60008060408385031215613e3557600080fd5b823591506020830135613e4781613983565b809150509250929050565b8183528181602085013750600060208284010152600060207fffffffffffffffffffffffffffffffffffffffffffffffffffffffffffffffe0601f840116840101905092915050565b602081526000611ba8602083018486613e52565b60008060008060408587031215613ec557600080fd5b843567ffffffffffffffff811115613edc57600080fd5b613ee887828801613aa4565b909550935050602085013567ffffffffffffffff811115613f0857600080fd5b613f1487828801613aa4565b95989497509550505050565b600081518084526020840193506020830160005b82811015613f52578151865260209586019590910190600101613f34565b5093949350505050565b60208152600061062e6020830184613f20565b600080600080600060808688031215613f8757600080fd5b8535613f9281613983565b94506020860135935060408601359250606086013567ffffffffffffffff811115613fbc57600080fd5b613fc888828901613ae9565b969995985093965092949392505050565b60008060008060008060608789031215613ff257600080fd5b863567ffffffffffffffff81111561400957600080fd5b61401589828a01613aa4565b909750955050602087013567ffffffffffffffff81111561403557600080fd5b61404189828a01613aa4565b909550935050604087013567ffffffffffffffff81111561406157600080fd5b61406d89828a01613aa4565b979a9699509497509295939492505050565b60008060008060006060868803121561409757600080fd5b85356140a281613983565b9450602086013567ffffffffffffffff8111156140be57600080fd5b6140ca88828901613aa4565b909550935050604086013567ffffffffffffffff8111156140ea57600080fd5b613fc888828901613aa4565b801515811461085857600080fd5b6000806040838503121561411757600080fd5b823561412281613983565b91506020830135613e47816140f6565b6000806000806000806000806080898b03121561414e57600080fd5b883567ffffffffffffffff81111561416557600080fd5b6141718b828c01613aa4565b909950975050602089013567ffffffffffffffff81111561419157600080fd5b61419d8b828c01613aa4565b909750955050604089013567ffffffffffffffff8111156141bd57600080fd5b6141c98b828c01613aa4565b909550935050606089013567ffffffffffffffff811115613e0257600080fd5b600080604083850312156141fc57600080fd5b823561420781613983565b91506020830135613e4781613983565b60008060008060008060a0878903121561423057600080fd5b863561423b81613983565b9550602087013561424b81613983565b94506040870135935060608701359250608087013567ffffffffffffffff81111561427557600080fd5b61406d89828a01613ae9565b7f4e487b7100000000000000000000000000000000000000000000000000000000600052603260045260246000fd5b60008083357fffffffffffffffffffffffffffffffffffffffffffffffffffffffffffffffe18436030181126142e557600080fd5b83018035915067ffffffffffffffff82111561430057600080fd5b60200191503681900382131561096d57600080fd5b60006020828403121561432757600080fd5b8151613a1c816140f6565b7f4e487b7100000000000000000000000000000000000000000000000000000000600052601160045260246000fd5b8181038181111561063157610631614332565b600181811c9082168061438857607f821691505b6020821081036143c1577f4e487b7100000000000000000000000000000000000000000000000000000000600052602260045260246000fd5b50919050565b6040815260006143da6040830185613f20565b8281036020840152610a1c8185613f20565b7f4e487b7100000000000000000000000000000000000000000000000000000000600052604160045260246000fd5b601f82111561087a57806000526020600020601f840160051c810160208510156144425750805b601f840160051c820191505b81811015610bfd576000815560010161444e565b67ffffffffffffffff83111561447a5761447a6143ec565b61448e836144888354614374565b8361441b565b6000601f8411600181146144e057600085156144aa5750838201355b7fffffffffffffffffffffffffffffffffffffffffffffffffffffffffffffffff600387901b1c1916600186901b178355610bfd565b6000838152602090207fffffffffffffffffffffffffffffffffffffffffffffffffffffffffffffffe0861690835b8281101561452f578685013582556020948501946001909201910161450f565b508682101561456a577fffffffffffffffffffffffffffffffffffffffffffffffffffffffffffffffff60f88860031b161c19848701351681555b505060018560011b0183555050505050565b60006020828403121561458e57600080fd5b815167ffffffffffffffff8111156145a557600080fd5b8201601f810184136145b657600080fd5b805167ffffffffffffffff8111156145d0576145d06143ec565b6040517fffffffffffffffffffffffffffffffffffffffffffffffffffffffffffffffe0603f7fffffffffffffffffffffffffffffffffffffffffffffffffffffffffffffffe0601f8501160116810181811067ffffffffffffffff8211171561463c5761463c6143ec565b60405281815282820160200186101561465457600080fd5b610a1c826020830160208601613a23565b808202811582820484141761063157610631614332565b6000826146b2577f4e487b7100000000000000000000000000000000000000000000000000000000600052601260045260246000fd5b500490565b81835260007f07ffffffffffffffffffffffffffffffffffffffffffffffffffffffffffffff8311156146e957600080fd5b8260051b80836020870137939093016020019392505050565b6040815260006147166040830186886146b7565b82810360208401526147298185876146b7565b979650505050505050565b73ffffffffffffffffffffffffffffffffffffffff8616815273ffffffffffffffffffffffffffffffffffffffff8516602082015260a06040820152600061477f60a0830186613f20565b82810360608401526147918186613f20565b905082810360808401526147a58185613a47565b98975050505050505050565b6000602082840312156147c357600080fd5b8151613a1c816139d1565b73ffffffffffffffffffffffffffffffffffffffff841681526060602082015260006147fd6060830185613f20565b828103604084015261480f8185613f20565b9695505050505050565b73ffffffffffffffffffffffffffffffffffffffff8616815273ffffffffffffffffffffffffffffffffffffffff8516602082015283604082015282606082015260a06080820152600061472960a0830184613a47565b6000808585111561488057600080fd5b8386111561488d57600080fd5b505082019391909203915056fea2646970667358221220261459d9b7258a315cc868b20167209749c73cc2e49687511f448625c337c35d64736f6c634300081c0033",
  "linkReferences": {},
  "deployedLinkReferences": {}
}