{
  "_format": "hh-sol-artifact-1",
  "contractName": "ERC1155FullBurnProxiedMock",
  "sourceName": "contracts/mocks/token/ERC1155/preset/proxied/ERC1155FullBurnProxiedMock.sol",
  "abi": [
    {
      "inputs": [
        {
          "internalType": "contract IForwarderRegistry",
          "name": "forwarderRegistry",
          "type": "address"
        }
      ],
      "stateMutability": "nonpayable",
      "type": "constructor"
    },
    {
      "inputs": [],
      "name": "ERC1155BalanceOfAddressZero",
      "type": "error"
    },
    {
      "inputs": [
        {
          "internalType": "address",
          "name": "recipient",
          "type": "address"
        },
        {
          "internalType": "uint256",
          "name": "id",
          "type": "uint256"
        },
        {
          "internalType": "uint256",
          "name": "balance",
          "type": "uint256"
        },
        {
          "internalType": "uint256",
          "name": "value",
          "type": "uint256"
        }
      ],
      "name": "ERC1155BalanceOverflow",
      "type": "error"
    },
    {
      "inputs": [
        {
          "internalType": "address",
          "name": "owner",
          "type": "address"
        },
        {
          "internalType": "uint256",
          "name": "id",
          "type": "uint256"
        },
        {
          "internalType": "uint256",
          "name": "balance",
          "type": "uint256"
        },
        {
          "internalType": "uint256",
          "name": "value",
          "type": "uint256"
        }
      ],
      "name": "ERC1155InsufficientBalance",
      "type": "error"
    },
    {
      "inputs": [],
      "name": "ERC1155MintToAddressZero",
      "type": "error"
    },
    {
      "inputs": [
        {
          "internalType": "address",
          "name": "sender",
          "type": "address"
        },
        {
          "internalType": "address",
          "name": "owner",
          "type": "address"
        }
      ],
      "name": "ERC1155NonApproved",
      "type": "error"
    },
    {
      "inputs": [
        {
          "internalType": "address",
          "name": "recipient",
          "type": "address"
        },
        {
          "internalType": "uint256[]",
          "name": "ids",
          "type": "uint256[]"
        },
        {
          "internalType": "uint256[]",
          "name": "values",
          "type": "uint256[]"
        }
      ],
      "name": "ERC1155SafeBatchTransferRejected",
      "type": "error"
    },
    {
      "inputs": [
        {
          "internalType": "address",
          "name": "recipient",
          "type": "address"
        },
        {
          "internalType": "uint256",
          "name": "id",
          "type": "uint256"
        },
        {
          "internalType": "uint256",
          "name": "value",
          "type": "uint256"
        }
      ],
      "name": "ERC1155SafeTransferRejected",
      "type": "error"
    },
    {
      "inputs": [
        {
          "internalType": "address",
          "name": "account",
          "type": "address"
        }
      ],
      "name": "ERC1155SelfApprovalForAll",
      "type": "error"
    },
    {
      "inputs": [],
      "name": "ERC1155TransferToAddressZero",
      "type": "error"
    },
    {
      "inputs": [
        {
          "internalType": "uint256",
          "name": "percentage",
          "type": "uint256"
        }
      ],
      "name": "ERC2981IncorrectRoyaltyPercentage",
      "type": "error"
    },
    {
      "inputs": [],
      "name": "ERC2981IncorrectRoyaltyReceiver",
      "type": "error"
    },
    {
      "inputs": [],
      "name": "IllegalInterfaceId",
      "type": "error"
    },
    {
      "inputs": [],
      "name": "InconsistentArrayLengths",
      "type": "error"
    },
    {
      "inputs": [
        {
          "internalType": "uint256",
          "name": "currentPhase",
          "type": "uint256"
        },
        {
          "internalType": "uint256",
          "name": "newPhase",
          "type": "uint256"
        }
      ],
      "name": "InitializationPhaseAlreadyReached",
      "type": "error"
    },
    {
      "inputs": [
        {
          "internalType": "address",
          "name": "account",
          "type": "address"
        }
      ],
      "name": "NotContractOwner",
      "type": "error"
    },
    {
      "inputs": [
        {
          "internalType": "address",
          "name": "account",
          "type": "address"
        }
      ],
      "name": "NotMetadataResolver",
      "type": "error"
    },
    {
      "inputs": [
        {
          "internalType": "bytes32",
          "name": "role",
          "type": "bytes32"
        },
        {
          "internalType": "address",
          "name": "account",
          "type": "address"
        }
      ],
      "name": "NotRoleHolder",
      "type": "error"
    },
    {
      "inputs": [
        {
          "internalType": "address",
          "name": "operator",
          "type": "address"
        }
      ],
      "name": "OperatorNotAllowed",
      "type": "error"
    },
    {
      "anonymous": false,
      "inputs": [
        {
          "indexed": true,
          "internalType": "address",
          "name": "owner",
          "type": "address"
        },
        {
          "indexed": true,
          "internalType": "address",
          "name": "operator",
          "type": "address"
        },
        {
          "indexed": false,
          "internalType": "bool",
          "name": "approved",
          "type": "bool"
        }
      ],
      "name": "ApprovalForAll",
      "type": "event"
    },
    {
      "anonymous": false,
      "inputs": [
        {
          "indexed": true,
          "internalType": "address",
          "name": "previousOwner",
          "type": "address"
        },
        {
          "indexed": true,
          "internalType": "address",
          "name": "newOwner",
          "type": "address"
        }
      ],
      "name": "OwnershipTransferred",
      "type": "event"
    },
    {
      "anonymous": false,
      "inputs": [
        {
          "indexed": false,
          "internalType": "bytes32",
          "name": "role",
          "type": "bytes32"
        },
        {
          "indexed": false,
          "internalType": "address",
          "name": "account",
          "type": "address"
        },
        {
          "indexed": false,
          "internalType": "address",
          "name": "operator",
          "type": "address"
        }
      ],
      "name": "RoleGranted",
      "type": "event"
    },
    {
      "anonymous": false,
      "inputs": [
        {
          "indexed": false,
          "internalType": "bytes32",
          "name": "role",
          "type": "bytes32"
        },
        {
          "indexed": false,
          "internalType": "address",
          "name": "account",
          "type": "address"
        },
        {
          "indexed": false,
          "internalType": "address",
          "name": "operator",
          "type": "address"
        }
      ],
      "name": "RoleRevoked",
      "type": "event"
    },
    {
      "anonymous": false,
      "inputs": [
        {
          "indexed": true,
          "internalType": "address",
          "name": "operator",
          "type": "address"
        },
        {
          "indexed": true,
          "internalType": "address",
          "name": "from",
          "type": "address"
        },
        {
          "indexed": true,
          "internalType": "address",
          "name": "to",
          "type": "address"
        },
        {
          "indexed": false,
          "internalType": "uint256[]",
          "name": "ids",
          "type": "uint256[]"
        },
        {
          "indexed": false,
          "internalType": "uint256[]",
          "name": "values",
          "type": "uint256[]"
        }
      ],
      "name": "TransferBatch",
      "type": "event"
    },
    {
      "anonymous": false,
      "inputs": [
        {
          "indexed": true,
          "internalType": "address",
          "name": "operator",
          "type": "address"
        },
        {
          "indexed": true,
          "internalType": "address",
          "name": "from",
          "type": "address"
        },
        {
          "indexed": true,
          "internalType": "address",
          "name": "to",
          "type": "address"
        },
        {
          "indexed": false,
          "internalType": "uint256",
          "name": "id",
          "type": "uint256"
        },
        {
          "indexed": false,
          "internalType": "uint256",
          "name": "value",
          "type": "uint256"
        }
      ],
      "name": "TransferSingle",
      "type": "event"
    },
    {
      "anonymous": false,
      "inputs": [
        {
          "indexed": false,
          "internalType": "string",
          "name": "value",
          "type": "string"
        },
        {
          "indexed": true,
          "internalType": "uint256",
          "name": "id",
          "type": "uint256"
        }
      ],
      "name": "URI",
      "type": "event"
    },
    {
      "inputs": [],
      "name": "MINTER_ROLE",
      "outputs": [
        {
          "internalType": "bytes32",
          "name": "",
          "type": "bytes32"
        }
      ],
      "stateMutability": "view",
      "type": "function"
    },
    {
      "inputs": [],
      "name": "ROYALTY_FEE_DENOMINATOR",
      "outputs": [
        {
          "internalType": "uint256",
          "name": "",
          "type": "uint256"
        }
      ],
      "stateMutability": "view",
      "type": "function"
    },
    {
      "inputs": [],
      "name": "__msgData",
      "outputs": [
        {
          "internalType": "bytes",
          "name": "",
          "type": "bytes"
        }
      ],
      "stateMutability": "view",
      "type": "function"
    },
    {
      "inputs": [
        {
          "internalType": "address",
          "name": "owner",
          "type": "address"
        },
        {
          "internalType": "uint256",
          "name": "id",
          "type": "uint256"
        }
      ],
      "name": "balanceOf",
      "outputs": [
        {
          "internalType": "uint256",
          "name": "balance",
          "type": "uint256"
        }
      ],
      "stateMutability": "view",
      "type": "function"
    },
    {
      "inputs": [
        {
          "internalType": "address[]",
          "name": "owners",
          "type": "address[]"
        },
        {
          "internalType": "uint256[]",
          "name": "ids",
          "type": "uint256[]"
        }
      ],
      "name": "balanceOfBatch",
      "outputs": [
        {
          "internalType": "uint256[]",
          "name": "balances",
          "type": "uint256[]"
        }
      ],
      "stateMutability": "view",
      "type": "function"
    },
    {
      "inputs": [
        {
          "internalType": "address",
          "name": "from",
          "type": "address"
        },
        {
          "internalType": "uint256[]",
          "name": "ids",
          "type": "uint256[]"
        },
        {
          "internalType": "uint256[]",
          "name": "values",
          "type": "uint256[]"
        }
      ],
      "name": "batchBurnFrom",
      "outputs": [],
      "stateMutability": "nonpayable",
      "type": "function"
    },
    {
      "inputs": [
        {
          "internalType": "uint256[]",
          "name": "tokenIds",
          "type": "uint256[]"
        },
        {
          "internalType": "string[]",
          "name": "tokenURIs",
          "type": "string[]"
        }
      ],
      "name": "batchSetTokenURI",
      "outputs": [],
      "stateMutability": "nonpayable",
      "type": "function"
    },
    {
      "inputs": [
        {
          "internalType": "address",
          "name": "from",
          "type": "address"
        },
        {
          "internalType": "uint256",
          "name": "id",
          "type": "uint256"
        },
        {
          "internalType": "uint256",
          "name": "value",
          "type": "uint256"
        }
      ],
      "name": "burnFrom",
      "outputs": [],
      "stateMutability": "nonpayable",
      "type": "function"
    },
    {
      "inputs": [],
      "name": "forwarderRegistry",
      "outputs": [
        {
          "internalType": "contract IForwarderRegistry",
          "name": "",
          "type": "address"
        }
      ],
      "stateMutability": "view",
      "type": "function"
    },
    {
      "inputs": [
        {
          "internalType": "bytes32",
          "name": "role",
          "type": "bytes32"
        },
        {
          "internalType": "address",
          "name": "account",
          "type": "address"
        }
      ],
      "name": "grantRole",
      "outputs": [],
      "stateMutability": "nonpayable",
      "type": "function"
    },
    {
      "inputs": [
        {
          "internalType": "bytes32",
          "name": "role",
          "type": "bytes32"
        },
        {
          "internalType": "address",
          "name": "account",
          "type": "address"
        }
      ],
      "name": "hasRole",
      "outputs": [
        {
          "internalType": "bool",
          "name": "hasRole_",
          "type": "bool"
        }
      ],
      "stateMutability": "view",
      "type": "function"
    },
    {
      "inputs": [
        {
          "internalType": "string",
          "name": "tokenName",
          "type": "string"
        },
        {
          "internalType": "string",
          "name": "tokenSymbol",
          "type": "string"
        },
        {
          "internalType": "contract ITokenMetadataResolver",
          "name": "metadataResolver",
          "type": "address"
        },
        {
          "internalType": "contract IOperatorFilterRegistry",
          "name": "filterRegistry",
          "type": "address"
        }
      ],
      "name": "init",
      "outputs": [],
      "stateMutability": "nonpayable",
      "type": "function"
    },
    {
      "inputs": [
        {
          "internalType": "address",
          "name": "owner",
          "type": "address"
        },
        {
          "internalType": "address",
          "name": "operator",
          "type": "address"
        }
      ],
      "name": "isApprovedForAll",
      "outputs": [
        {
          "internalType": "bool",
          "name": "approvedForAll",
          "type": "bool"
        }
      ],
      "stateMutability": "view",
      "type": "function"
    },
    {
      "inputs": [
        {
          "internalType": "address",
          "name": "forwarder",
          "type": "address"
        }
      ],
      "name": "isTrustedForwarder",
      "outputs": [
        {
          "internalType": "bool",
          "name": "",
          "type": "bool"
        }
      ],
      "stateMutability": "view",
      "type": "function"
    },
    {
      "inputs": [],
      "name": "metadataResolver",
      "outputs": [
        {
          "internalType": "contract ITokenMetadataResolver",
          "name": "tokenMetadataResolver",
          "type": "address"
        }
      ],
      "stateMutability": "view",
      "type": "function"
    },
    {
      "inputs": [],
      "name": "name",
      "outputs": [
        {
          "internalType": "string",
          "name": "tokenName",
          "type": "string"
        }
      ],
      "stateMutability": "view",
      "type": "function"
    },
    {
      "inputs": [],
      "name": "operatorFilterRegistry",
      "outputs": [
        {
          "internalType": "contract IOperatorFilterRegistry",
          "name": "",
          "type": "address"
        }
      ],
      "stateMutability": "view",
      "type": "function"
    },
    {
      "inputs": [],
      "name": "owner",
      "outputs": [
        {
          "internalType": "address",
          "name": "",
          "type": "address"
        }
      ],
      "stateMutability": "view",
      "type": "function"
    },
    {
      "inputs": [
        {
          "internalType": "address[]",
          "name": "accounts",
          "type": "address[]"
        },
        {
          "internalType": "contract IERC20[]",
          "name": "tokens",
          "type": "address[]"
        },
        {
          "internalType": "uint256[]",
          "name": "amounts",
          "type": "uint256[]"
        }
      ],
      "name": "recoverERC20s",
      "outputs": [],
      "stateMutability": "nonpayable",
      "type": "function"
    },
    {
      "inputs": [
        {
          "internalType": "address[]",
          "name": "accounts",
          "type": "address[]"
        },
        {
          "internalType": "contract IERC721[]",
          "name": "contracts",
          "type": "address[]"
        },
        {
          "internalType": "uint256[]",
          "name": "tokenIds",
          "type": "uint256[]"
        }
      ],
      "name": "recoverERC721s",
      "outputs": [],
      "stateMutability": "nonpayable",
      "type": "function"
    },
    {
      "inputs": [
        {
          "internalType": "address payable[]",
          "name": "accounts",
          "type": "address[]"
        },
        {
          "internalType": "uint256[]",
          "name": "amounts",
          "type": "uint256[]"
        }
      ],
      "name": "recoverETH",
      "outputs": [],
      "stateMutability": "nonpayable",
      "type": "function"
    },
    {
      "inputs": [
        {
          "internalType": "bytes32",
          "name": "role",
          "type": "bytes32"
        }
      ],
      "name": "renounceRole",
      "outputs": [],
      "stateMutability": "nonpayable",
      "type": "function"
    },
    {
      "inputs": [
        {
          "internalType": "bytes32",
          "name": "role",
          "type": "bytes32"
        },
        {
          "internalType": "address",
          "name": "account",
          "type": "address"
        }
      ],
      "name": "revokeRole",
      "outputs": [],
      "stateMutability": "nonpayable",
      "type": "function"
    },
    {
      "inputs": [
        {
          "internalType": "uint256",
          "name": "tokenId",
          "type": "uint256"
        },
        {
          "internalType": "uint256",
          "name": "salePrice",
          "type": "uint256"
        }
      ],
      "name": "royaltyInfo",
      "outputs": [
        {
          "internalType": "address",
          "name": "receiver",
          "type": "address"
        },
        {
          "internalType": "uint256",
          "name": "royaltyAmount",
          "type": "uint256"
        }
      ],
      "stateMutability": "view",
      "type": "function"
    },
    {
      "inputs": [
        {
          "internalType": "address",
          "name": "to",
          "type": "address"
        },
        {
          "internalType": "uint256[]",
          "name": "ids",
          "type": "uint256[]"
        },
        {
          "internalType": "uint256[]",
          "name": "values",
          "type": "uint256[]"
        },
        {
          "internalType": "bytes",
          "name": "data",
          "type": "bytes"
        }
      ],
      "name": "safeBatchMint",
      "outputs": [],
      "stateMutability": "nonpayable",
      "type": "function"
    },
    {
      "inputs": [
        {
          "internalType": "address",
          "name": "from",
          "type": "address"
        },
        {
          "internalType": "address",
          "name": "to",
          "type": "address"
        },
        {
          "internalType": "uint256[]",
          "name": "ids",
          "type": "uint256[]"
        },
        {
          "internalType": "uint256[]",
          "name": "values",
          "type": "uint256[]"
        },
        {
          "internalType": "bytes",
          "name": "data",
          "type": "bytes"
        }
      ],
      "name": "safeBatchTransferFrom",
      "outputs": [],
      "stateMutability": "nonpayable",
      "type": "function"
    },
    {
      "inputs": [
        {
          "internalType": "address[]",
          "name": "recipients",
          "type": "address[]"
        },
        {
          "internalType": "uint256[]",
          "name": "ids",
          "type": "uint256[]"
        },
        {
          "internalType": "uint256[]",
          "name": "values",
          "type": "uint256[]"
        },
        {
          "internalType": "bytes",
          "name": "data",
          "type": "bytes"
        }
      ],
      "name": "safeDeliver",
      "outputs": [],
      "stateMutability": "nonpayable",
      "type": "function"
    },
    {
      "inputs": [
        {
          "internalType": "address",
          "name": "to",
          "type": "address"
        },
        {
          "internalType": "uint256",
          "name": "id",
          "type": "uint256"
        },
        {
          "internalType": "uint256",
          "name": "value",
          "type": "uint256"
        },
        {
          "internalType": "bytes",
          "name": "data",
          "type": "bytes"
        }
      ],
      "name": "safeMint",
      "outputs": [],
      "stateMutability": "nonpayable",
      "type": "function"
    },
    {
      "inputs": [
        {
          "internalType": "address",
          "name": "from",
          "type": "address"
        },
        {
          "internalType": "address",
          "name": "to",
          "type": "address"
        },
        {
          "internalType": "uint256",
          "name": "id",
          "type": "uint256"
        },
        {
          "internalType": "uint256",
          "name": "value",
          "type": "uint256"
        },
        {
          "internalType": "bytes",
          "name": "data",
          "type": "bytes"
        }
      ],
      "name": "safeTransferFrom",
      "outputs": [],
      "stateMutability": "nonpayable",
      "type": "function"
    },
    {
      "inputs": [
        {
          "internalType": "address",
          "name": "operator",
          "type": "address"
        },
        {
          "internalType": "bool",
          "name": "approved",
          "type": "bool"
        }
      ],
      "name": "setApprovalForAll",
      "outputs": [],
      "stateMutability": "nonpayable",
      "type": "function"
    },
    {
      "inputs": [
        {
          "internalType": "uint256",
          "name": "percentage",
          "type": "uint256"
        }
      ],
      "name": "setRoyaltyPercentage",
      "outputs": [],
      "stateMutability": "nonpayable",
      "type": "function"
    },
    {
      "inputs": [
        {
          "internalType": "address",
          "name": "receiver",
          "type": "address"
        }
      ],
      "name": "setRoyaltyReceiver",
      "outputs": [],
      "stateMutability": "nonpayable",
      "type": "function"
    },
    {
      "inputs": [
        {
          "internalType": "uint256",
          "name": "tokenId",
          "type": "uint256"
        },
        {
          "internalType": "string",
          "name": "tokenURI",
          "type": "string"
        }
      ],
      "name": "setTokenURI",
      "outputs": [],
      "stateMutability": "nonpayable",
      "type": "function"
    },
    {
      "inputs": [
        {
          "internalType": "bytes4",
          "name": "interfaceId",
          "type": "bytes4"
        }
      ],
      "name": "supportsInterface",
      "outputs": [
        {
          "internalType": "bool",
          "name": "",
          "type": "bool"
        }
      ],
      "stateMutability": "view",
      "type": "function"
    },
    {
      "inputs": [],
      "name": "symbol",
      "outputs": [
        {
          "internalType": "string",
          "name": "tokenSymbol",
          "type": "string"
        }
      ],
      "stateMutability": "view",
      "type": "function"
    },
    {
      "inputs": [
        {
          "internalType": "address",
          "name": "newOwner",
          "type": "address"
        }
      ],
      "name": "transferOwnership",
      "outputs": [],
      "stateMutability": "nonpayable",
      "type": "function"
    },
    {
      "inputs": [
        {
          "internalType": "contract IOperatorFilterRegistry",
          "name": "registry",
          "type": "address"
        }
      ],
      "name": "updateOperatorFilterRegistry",
      "outputs": [],
      "stateMutability": "nonpayable",
      "type": "function"
    },
    {
      "inputs": [
        {
          "internalType": "uint256",
          "name": "tokenId",
          "type": "uint256"
        }
      ],
      "name": "uri",
      "outputs": [
        {
          "internalType": "string",
          "name": "metadataURI",
          "type": "string"
        }
      ],
      "stateMutability": "view",
      "type": "function"
    }
  ],
  "bytecode": "0x60a06040523480156200001157600080fd5b5060405162004a0538038062004a05833981016040819052620000349162000046565b6001600160a01b031660805262000078565b6000602082840312156200005957600080fd5b81516001600160a01b03811681146200007157600080fd5b9392505050565b60805161494e620000b7600039600081816103a90152818161045a01528181612cad01528181612d350152818161357b01526135b9015261494e6000f3fe608060405234801561001057600080fd5b50600436106102915760003560e01c806373c8a95811610160578063b0ccc31e116100d8578063e8ab9ccc1161008c578063f242432a11610071578063f242432a146105df578063f2fde38b146105f2578063f7ba94bd1461060557600080fd5b8063e8ab9ccc146105b9578063e985e9c5146105cc57600080fd5b8063d5391393116100bd578063d539139314610575578063d547741f1461059c578063e1a8bf2c146105af57600080fd5b8063b0ccc31e1461055a578063c3666c361461056257600080fd5b80638dc251e31161012f57806395d89b411161011457806395d89b4114610537578063a0c76f621461053f578063a22cb4651461054757600080fd5b80638dc251e31461051157806391d148541461052457600080fd5b806373c8a958146104d057806380534934146104e35780638bb9c5bf146104f65780638da5cb5b1461050957600080fd5b80632a55205a1161020e5780634e1273f4116101c25780635cfa9297116101a75780635cfa92971461049757806361ba27da146104aa5780636706467b146104bd57600080fd5b80634e1273f41461042a578063572b6c051461044a57600080fd5b80632eb2c2d6116101f35780632eb2c2d6146103ee5780632f2ff15d1461040157806331e66e1e1461041457600080fd5b80632a55205a146103685780632b4c9f16146103a757600080fd5b80630e07f85411610265578063114ba8ee1161024a578063114ba8ee1461032f578063124d91e514610342578063162094c41461035557600080fd5b80630e07f854146103095780630e89341c1461031c57600080fd5b8062fdd58e1461029657806301ffc9a7146102bc57806306fdde03146102df5780630d6a5bbb146102f4575b600080fd5b6102a96102a4366004613a9f565b610618565b6040519081526020015b60405180910390f35b6102cf6102ca366004613af9565b610637565b60405190151581526020016102b3565b6102e761064b565b6040516102b39190613b8b565b610307610302366004613c25565b610662565b005b610307610317366004613cd2565b61075d565b6102e761032a366004613d67565b6107da565b61030761033d366004613d80565b6107f0565b610307610350366004613d9d565b61085b565b610307610363366004613dd2565b61087f565b61037b610376366004613e1e565b610951565b6040805173ffffffffffffffffffffffffffffffffffffffff90931683526020830191909152016102b3565b7f00000000000000000000000000000000000000000000000000000000000000005b60405173ffffffffffffffffffffffffffffffffffffffff90911681526020016102b3565b6103076103fc366004613e40565b610974565b61030761040f366004613eff565b6109c1565b61041c6109ef565b6040516102b3929190613f78565b61043d610438366004613f8c565b610a02565b6040516102b39190614033565b6102cf610458366004613d80565b7f000000000000000000000000000000000000000000000000000000000000000073ffffffffffffffffffffffffffffffffffffffff90811691161490565b6103076104a5366004614046565b610a27565b6103076104b8366004613d67565b610ab1565b6103076104cb366004613f8c565b610ace565b6103076104de3660046140b0565b610c05565b6103076104f136600461414a565b610cf0565b610307610504366004613d67565b610d13565b6103c9610d2e565b61030761051f366004613d80565b610d55565b6102cf610532366004613eff565b610d72565b6102e7610db6565b6103c9610dc8565b6103076105553660046141ca565b610dd5565b6103c9610e0e565b6103076105703660046140b0565b610e1b565b6102a97f6d696e746572000000000000000000000000000000000000000000000000000081565b6103076105aa366004613eff565b610f92565b6102a9620186a081565b6103076105c73660046141f8565b610fc0565b6102cf6105da36600461429b565b6110da565b6103076105ed3660046142c9565b611128565b610307610600366004613d80565b611168565b610307610613366004613f8c565b611183565b600061062e8383610627611239565b9190611267565b90505b92915050565b6000610631826106456112eb565b90611319565b606061065d6106586113f3565b611421565b905090565b600061066c6114b7565b90506106a27f6d696e74657200000000000000000000000000000000000000000000000000008261069b6114c1565b91906114ef565b610753818989898080602002602001604051908101604052809392919081815260200183836020028082843760009201919091525050604080516020808d0282810182019093528c82529093508c92508b91829185019084908082843760009201919091525050604080516020601f8c018190048102820181019092528a815292508a91508990819084018382808284376000920191909152506107499250611239915050565b9493929190611575565b5050505050505050565b6107766107686114b7565b6107706116fa565b90611728565b61077e611767565b61078661179e565b61078e6117cc565b6107966117fa565b61079e611828565b6107a6611856565b6107c086868686866107b66113f3565b9493929190611884565b6107d2816107cc61191e565b9061194c565b505050505050565b606061063130836107e96113f3565b91906119bc565b6108096107fb6114b7565b6108036116fa565b90611a7c565b6108588161081561191e565b9081547fffffffffffffffffffffffff00000000000000000000000000000000000000001673ffffffffffffffffffffffffffffffffffffffff91909116179055565b50565b61087a6108666114b7565b848484610871611239565b93929190611ae7565b505050565b6108a761088a6113f3565b6002015473ffffffffffffffffffffffffffffffffffffffff1690565b73ffffffffffffffffffffffffffffffffffffffff163373ffffffffffffffffffffffffffffffffffffffff1614610912576040517f220606710000000000000000000000000000000000000000000000000000000081523360048201526024015b60405180910390fd5b827f6bb7ff708619ba0610cba295a58592e0451dee2622938c8755667688daf3529b8383604051610944929190613f78565b60405180910390a2505050565b6000806109688484610961611bb4565b9190611be2565b915091505b9250929050565b600061097e6114b7565b9050610994818a61098d61191e565b9190611c8c565b6109b6818a8a8a8a8a8a8a8a6109a8611239565b989796959493929190611cc9565b505050505050505050565b60006109cb6114b7565b90506109d9816108036116fa565b61087a8383836109e76114c1565b929190611f51565b3660006109fa612028565b915091509091565b6060610a1c85858585610a13611239565b93929190612033565b90505b949350505050565b6000610a316114b7565b9050610a607f6d696e74657200000000000000000000000000000000000000000000000000008261069b6114c1565b6107d28187878787878080601f016020809104026020016040519081016040528093929190818152602001838380828437600092019190915250610aa79250611239915050565b9493929190612141565b610abc6107fb6114b7565b61085881610ac8611bb4565b9061221f565b828114610b07576040517f6582533600000000000000000000000000000000000000000000000000000000815260040160405180910390fd5b610b1261088a6113f3565b73ffffffffffffffffffffffffffffffffffffffff163373ffffffffffffffffffffffffffffffffffffffff1614610b78576040517f22060671000000000000000000000000000000000000000000000000000000008152336004820152602401610909565b60005b808414610bfe57848482818110610b9457610b94614333565b905060200201357f6bb7ff708619ba0610cba295a58592e0451dee2622938c8755667688daf3529b848484818110610bce57610bce614333565b9050602002810190610be09190614362565b604051610bee929190613f78565b60405180910390a2600101610b7b565b5050505050565b610c106107fb6114b7565b848381141580610c205750808214155b15610c57576040517f6582533600000000000000000000000000000000000000000000000000000000815260040160405180910390fd5b60005b81811461075357610ce8888883818110610c7657610c76614333565b9050602002016020810190610c8b9190613d80565b858584818110610c9d57610c9d614333565b90506020020135888885818110610cb657610cb6614333565b9050602002016020810190610ccb9190613d80565b73ffffffffffffffffffffffffffffffffffffffff1691906122a5565b600101610c5a565b610bfe610cfb6114b7565b8686868686610d08611239565b959493929190612332565b610858610d1e6114b7565b82610d276114c1565b91906124a9565b600061065d610d3b6116fa565b5473ffffffffffffffffffffffffffffffffffffffff1690565b610d606107fb6114b7565b61085881610d6c611bb4565b9061254d565b600061062e8383610d816114c1565b60009283526020908152604080842073ffffffffffffffffffffffffffffffffffffffff909316845291905290205460ff1690565b606061065d610dc36113f3565b61259a565b600061065d61088a6113f3565b8015610ded57610ded82610de761191e565b906125ab565b610e0a610df86114b7565b8383610e02611239565b9291906125b5565b5050565b600061065d610d3b61191e565b610e266107fb6114b7565b848381141580610e365750808214155b15610e6d576040517f6582533600000000000000000000000000000000000000000000000000000000815260040160405180910390fd5b60005b81811461075357858582818110610e8957610e89614333565b9050602002016020810190610e9e9190613d80565b73ffffffffffffffffffffffffffffffffffffffff166323b872dd308a8a85818110610ecc57610ecc614333565b9050602002016020810190610ee19190613d80565b878786818110610ef357610ef3614333565b6040517fffffffff0000000000000000000000000000000000000000000000000000000060e088901b16815273ffffffffffffffffffffffffffffffffffffffff958616600482015294909316602485015250602090910201356044820152606401600060405180830381600087803b158015610f6f57600080fd5b505af1158015610f83573d6000803e3d6000fd5b50505050806001019050610e70565b6000610f9c6114b7565b9050610faa816108036116fa565b61087a838383610fb86114c1565b9291906126cd565b6000610fca6114b7565b9050610ff97f6d696e74657200000000000000000000000000000000000000000000000000008261069b6114c1565b6109b6818a8a8080602002602001604051908101604052809392919081815260200183836020028082843760009201919091525050604080516020808e0282810182019093528d82529093508d92508c91829185019084908082843760009201919091525050604080516020808d0282810182019093528c82529093508c92508b91829185019084908082843760009201919091525050604080516020601f8c018190048102820181019092528a815292508a91508990819084018382808284376000920191909152506110d09250611239915050565b9493929190612797565b600061062e83836110e9611239565b919073ffffffffffffffffffffffffffffffffffffffff9182166000908152600193909301602090815260408085209290931684525290205460ff1690565b60006111326114b7565b9050611141818861098d61191e565b61115f81888888888888611153611239565b96959493929190612859565b50505050505050565b6108586111736114b7565b8261117c6116fa565b91906129fc565b61118e6107fb6114b7565b828181146111c8576040517f6582533600000000000000000000000000000000000000000000000000000000815260040160405180910390fd5b60005b8181146107d2576112318484838181106111e7576111e7614333565b9050602002013587878481811061120057611200614333565b90506020020160208101906112159190613d80565b73ffffffffffffffffffffffffffffffffffffffff1690612b10565b6001016111cb565b60008061063160017f5ccf5846fa27a68fafc8e588671a68f5e67c2f9b56af4263806a4d71735e86136143f6565b600073ffffffffffffffffffffffffffffffffffffffff83166112b6576040517fca2434a500000000000000000000000000000000000000000000000000000000815260040160405180910390fd5b5060009081526020928352604080822073ffffffffffffffffffffffffffffffffffffffff9390931682529190925290205490565b60008061063160017fca9d3e17f264b0f3984e2634e94adb37fa3e6a8103f06aeae6fa59e21c769f5e6143f6565b60007c01000000000000000000000000000000000000000000000000000000007fffffffff0000000000000000000000000000000000000000000000000000000083160161136957506000610631565b7ffe003659000000000000000000000000000000000000000000000000000000007fffffffff000000000000000000000000000000000000000000000000000000008316016113ba57506001610631565b507fffffffff00000000000000000000000000000000000000000000000000000000166000908152602091909152604090205460ff1690565b60008061063160017f7ea68fd2dcf1c056b94db6a0a537aa80d26fa9ab1eacd85da1ba0b61b7e7a8a56143f6565b606081600001805461143290614409565b80601f016020809104026020016040519081016040528092919081815260200182805461145e90614409565b80156114ab5780601f10611480576101008083540402835291602001916114ab565b820191906000526020600020905b81548152906001019060200180831161148e57829003601f168201915b50505050509050919050565b600061065d612c6a565b60008061063160017fc8827d3282af6f37b64c3e9e6f3ac9df286ab0bb0fccd6f8661bf19adb368b236143f6565b60008281526020848152604080832073ffffffffffffffffffffffffffffffffffffffff8516845290915290205460ff1661087a576040517f7aa728820000000000000000000000000000000000000000000000000000000081526004810183905273ffffffffffffffffffffffffffffffffffffffff82166024820152604401610909565b73ffffffffffffffffffffffffffffffffffffffff84166115c2576040517f021149bd00000000000000000000000000000000000000000000000000000000815260040160405180910390fd5b8251825181146115fe576040517f6582533600000000000000000000000000000000000000000000000000000000815260040160405180910390fd5b60005b81811461164e57611646888787848151811061161f5761161f614333565b602002602001015187858151811061163957611639614333565b6020026020010151612db1565b600101611601565b508473ffffffffffffffffffffffffffffffffffffffff16600073ffffffffffffffffffffffffffffffffffffffff168773ffffffffffffffffffffffffffffffffffffffff167f4a39dc06d4c0dbc64b70af90fd698a233a518aa5d07e595d983b8c0526c8f7fb87876040516116c692919061445c565b60405180910390a473ffffffffffffffffffffffffffffffffffffffff85163b1561115f5761115f86600087878787612e82565b60008061063160017fc9ed16f33ab3a66c84bfd83099ccb2a8845871e2e1c1928f63797152f0fd54cd6143f6565b61175d61175660017f5b388d90dc1312ba799f321972f13311234fa1163bcabec7cf66101c4876eb846143f6565b6001612f80565b610e0a8282612fcc565b61179c7fd9b67a260000000000000000000000000000000000000000000000000000000060016117956112eb565b9190613082565b565b61179c7f0e89341c0000000000000000000000000000000000000000000000000000000060016117956112eb565b61179c7f5190c92c0000000000000000000000000000000000000000000000000000000060016117956112eb565b61179c7fe8ab9ccc0000000000000000000000000000000000000000000000000000000060016117956112eb565b61179c7f921ed8d10000000000000000000000000000000000000000000000000000000060016117956112eb565b61179c7f2a55205a0000000000000000000000000000000000000000000000000000000060016117956112eb565b6118b261175660017f92f72593ca50a0096f68ee94e7000db40ed086164b695855e2250750b8bfaf596143f6565b856118be8587836144ff565b50600186016118ce8385836144ff565b5060029590950180547fffffffffffffffffffffffff00000000000000000000000000000000000000001673ffffffffffffffffffffffffffffffffffffffff9096169590951790945550505050565b60008061063160017f609b85bcafa81ecfaf3ff62cdde2c6c9082a68dbe4922f07399c706bdeb7cd316143f6565b61197a61175660017f2f02d396cb1be29636682c8684200b30a98554d3b74293aa4495cb5e1d252f6e6143f6565b81547fffffffffffffffffffffffff00000000000000000000000000000000000000001673ffffffffffffffffffffffffffffffffffffffff91909116179055565b60028301546040517ff724dad700000000000000000000000000000000000000000000000000000000815273ffffffffffffffffffffffffffffffffffffffff848116600483015260248201849052606092169063f724dad790604401600060405180830381865afa158015611a36573d6000803e3d6000fd5b505050506040513d6000823e601f3d9081017fffffffffffffffffffffffffffffffffffffffffffffffffffffffffffffffe0168201604052610a1f9190810190614619565b815473ffffffffffffffffffffffffffffffffffffffff828116911614610e0a576040517f2ef4875e00000000000000000000000000000000000000000000000000000000815273ffffffffffffffffffffffffffffffffffffffff82166004820152602401610909565b611af285848661315e565b611b48576040517f05bbb9c400000000000000000000000000000000000000000000000000000000815273ffffffffffffffffffffffffffffffffffffffff808616600483015284166024820152604401610909565b611b54858484846131d3565b604080518381526020810183905260009173ffffffffffffffffffffffffffffffffffffffff86811692908816917fc3d58168c5ae7397731d063d5bbf3d657854427343f4c083240f7aacaa2d0f62910160405180910390a45050505050565b60008061063160017f2c0cf10337caabbd02dcf226f05f5fd19a0919a41a8df8958c39b800078268586143f6565b825473ffffffffffffffffffffffffffffffffffffffff8116906000907401000000000000000000000000000000000000000090046bffffffffffffffffffffffff16831580611c30575080155b15611c3e5760009150611c83565b620186a0841015611c6857620186a0611c5782866146d9565b611c6191906146f0565b9150611c83565b80611c76620186a0866146f0565b611c8091906146d9565b91505b50935093915050565b8073ffffffffffffffffffffffffffffffffffffffff168273ffffffffffffffffffffffffffffffffffffffff161461087a5761087a8383613270565b73ffffffffffffffffffffffffffffffffffffffff8716611d16576040517fb5e8901500000000000000000000000000000000000000000000000000000000815260040160405180910390fd5b84838114611d50576040517f6582533600000000000000000000000000000000000000000000000000000000815260040160405180910390fd5b611d5b8b8a8c61315e565b611db1576040517f05bbb9c400000000000000000000000000000000000000000000000000000000815273ffffffffffffffffffffffffffffffffffffffff808c1660048301528a166024820152604401610909565b60005b818114611e0057611df88c8b8b8b8b86818110611dd357611dd3614333565b905060200201358a8a87818110611dec57611dec614333565b90506020020135613397565b600101611db4565b508773ffffffffffffffffffffffffffffffffffffffff168973ffffffffffffffffffffffffffffffffffffffff168b73ffffffffffffffffffffffffffffffffffffffff167f4a39dc06d4c0dbc64b70af90fd698a233a518aa5d07e595d983b8c0526c8f7fb8a8a8a8a604051611e7b9493929190614776565b60405180910390a473ffffffffffffffffffffffffffffffffffffffff88163b15611f4457611f448a8a8a8a8a8080602002602001604051908101604052809392919081815260200183836020028082843760009201919091525050604080516020808e0282810182019093528d82529093508d92508c91829185019084908082843760009201919091525050604080516020601f8d018190048102820181019092528b815292508b91508a9081908401838280828437600092019190915250612e8292505050565b5050505050505050505050565b60008381526020858152604080832073ffffffffffffffffffffffffffffffffffffffff8616845290915290205460ff166120225760008381526020858152604080832073ffffffffffffffffffffffffffffffffffffffff8681168086529184529382902080547fffffffffffffffffffffffffffffffffffffffffffffffffffffffffffffff00166001179055815187815292830152918316918101919091527f2f8788117e7eff1d82e926ec794901d17c78024a50270940304540a733656f0d906060015b60405180910390a15b50505050565b3660006109fa613544565b60608382811461206f576040517f6582533600000000000000000000000000000000000000000000000000000000815260040160405180910390fd5b8467ffffffffffffffff8111156120885761208861448a565b6040519080825280602002602001820160405280156120b1578160200160208202803683370190505b50915060005b818114612136576121118787838181106120d3576120d3614333565b90506020020160208101906120e89190613d80565b8686848181106120fa576120fa614333565b905060200201358a6112679092919063ffffffff16565b83828151811061212357612123614333565b60209081029190910101526001016120b7565b505095945050505050565b73ffffffffffffffffffffffffffffffffffffffff841661218e576040517f021149bd00000000000000000000000000000000000000000000000000000000815260040160405180910390fd5b61219a86858585612db1565b604080518481526020810184905273ffffffffffffffffffffffffffffffffffffffff80871692600092918916917fc3d58168c5ae7397731d063d5bbf3d657854427343f4c083240f7aacaa2d0f62910160405180910390a473ffffffffffffffffffffffffffffffffffffffff84163b156107d2576107d2856000868686866136ae565b620186a081111561225f576040517fac04040800000000000000000000000000000000000000000000000000000000815260048101829052602401610909565b81546bffffffffffffffffffffffff909116740100000000000000000000000000000000000000000273ffffffffffffffffffffffffffffffffffffffff909116179055565b6040805173ffffffffffffffffffffffffffffffffffffffff8416602482015260448082018490528251808303909101815260649091019091526020810180517bffffffffffffffffffffffffffffffffffffffffffffffffffffffff167fa9059cbb0000000000000000000000000000000000000000000000000000000017905261087a9084906137cc565b8281811461236c576040517f6582533600000000000000000000000000000000000000000000000000000000815260040160405180910390fd5b61237788878961315e565b6123cd576040517f05bbb9c400000000000000000000000000000000000000000000000000000000815273ffffffffffffffffffffffffffffffffffffffff808916600483015287166024820152604401610909565b60005b81811461241b5761241389888888858181106123ee576123ee614333565b9050602002013587878681811061240757612407614333565b905060200201356131d3565b6001016123d0565b50600073ffffffffffffffffffffffffffffffffffffffff168673ffffffffffffffffffffffffffffffffffffffff168873ffffffffffffffffffffffffffffffffffffffff167f4a39dc06d4c0dbc64b70af90fd698a233a518aa5d07e595d983b8c0526c8f7fb888888886040516124979493929190614776565b60405180910390a45050505050505050565b6124b48382846114ef565b60008181526020848152604080832073ffffffffffffffffffffffffffffffffffffffff86168085529083529281902080547fffffffffffffffffffffffffffffffffffffffffffffffffffffffffffffff0016905580518481529182018390528101919091527ff6391f5c32d9c69d2a47ea670b442974b53935d1edc7fd64eb21e047a839171b9060600160405180910390a1505050565b73ffffffffffffffffffffffffffffffffffffffff811661197a576040517f16de0c8000000000000000000000000000000000000000000000000000000000815260040160405180910390fd5b606081600101805461143290614409565b610e0a8282613270565b8273ffffffffffffffffffffffffffffffffffffffff168273ffffffffffffffffffffffffffffffffffffffff1603612632576040517ffb0fdf6100000000000000000000000000000000000000000000000000000000815273ffffffffffffffffffffffffffffffffffffffff84166004820152602401610909565b73ffffffffffffffffffffffffffffffffffffffff838116600081815260018701602090815260408083209487168084529482529182902080547fffffffffffffffffffffffffffffffffffffffffffffffffffffffffffffff001686151590811790915591519182527f17307eab39ab6107e8899845ad3d59bd9653f200f220920489ca2b5937696c31910160405180910390a350505050565b60008381526020858152604080832073ffffffffffffffffffffffffffffffffffffffff8616845290915290205460ff16156120225760008381526020858152604080832073ffffffffffffffffffffffffffffffffffffffff8681168086529184529382902080547fffffffffffffffffffffffffffffffffffffffffffffffffffffffffffffff00169055815187815292830152918316918101919091527ff6391f5c32d9c69d2a47ea670b442974b53935d1edc7fd64eb21e047a839171b90606001612019565b83518351811415806127aa575082518114155b156127e1576040517f6582533600000000000000000000000000000000000000000000000000000000815260040160405180910390fd5b60005b818114610753576128518787838151811061280157612801614333565b602002602001015187848151811061281b5761281b614333565b602002602001015187858151811061283557612835614333565b6020026020010151878d6121419095949392919063ffffffff16565b6001016127e4565b73ffffffffffffffffffffffffffffffffffffffff85166128a6576040517fb5e8901500000000000000000000000000000000000000000000000000000000815260040160405180910390fd5b6128b188878961315e565b612907576040517f05bbb9c400000000000000000000000000000000000000000000000000000000815273ffffffffffffffffffffffffffffffffffffffff808916600483015287166024820152604401610909565b6129148887878787613397565b8473ffffffffffffffffffffffffffffffffffffffff168673ffffffffffffffffffffffffffffffffffffffff168873ffffffffffffffffffffffffffffffffffffffff167fc3d58168c5ae7397731d063d5bbf3d657854427343f4c083240f7aacaa2d0f628787604051612993929190918252602082015260400190565b60405180910390a473ffffffffffffffffffffffffffffffffffffffff85163b1561075357610753878787878787878080601f0160208091040260200160405190810160405280939291908181526020018383808284376000920191909152506136ae92505050565b825473ffffffffffffffffffffffffffffffffffffffff9081169083168114612a69576040517f2ef4875e00000000000000000000000000000000000000000000000000000000815273ffffffffffffffffffffffffffffffffffffffff84166004820152602401610909565b8173ffffffffffffffffffffffffffffffffffffffff168173ffffffffffffffffffffffffffffffffffffffff16146120225783547fffffffffffffffffffffffff00000000000000000000000000000000000000001673ffffffffffffffffffffffffffffffffffffffff8381169182178655604051908316907f8be0079c531659141344cd1fd0a4f28419497f9722a3daafe3b4186f6b6457e090600090a350505050565b80471015612b7a576040517f08c379a000000000000000000000000000000000000000000000000000000000815260206004820152601d60248201527f416464726573733a20696e73756666696369656e742062616c616e63650000006044820152606401610909565b60008273ffffffffffffffffffffffffffffffffffffffff168260405160006040518083038185875af1925050503d8060008114612bd4576040519150601f19603f3d011682016040523d82523d6000602084013e612bd9565b606091505b505090508061087a576040517f08c379a000000000000000000000000000000000000000000000000000000000815260206004820152603a60248201527f416464726573733a20756e61626c6520746f2073656e642076616c75652c207260448201527f6563697069656e74206d617920686176652072657665727465640000000000006064820152608401610909565b600033321480612c7a5750601836105b15612c8457503390565b7fffffffffffffffffffffffffffffffffffffffffffffffffffffffffffffffec36013560601c7f000000000000000000000000000000000000000000000000000000000000000073ffffffffffffffffffffffffffffffffffffffff16331480612da057506040517f8929a8ca00000000000000000000000000000000000000000000000000000000815273ffffffffffffffffffffffffffffffffffffffff82811660048301523360248301527f00000000000000000000000000000000000000000000000000000000000000001690638929a8ca90604401602060405180830381865afa158015612d7c573d6000803e3d6000fd5b505050506040513d601f19601f82011682018060405250810190612da0919061479d565b15612daa57919050565b3391505090565b80156120225760008281526020858152604080832073ffffffffffffffffffffffffffffffffffffffff87168452909152902054818101818111612e4e576040517f42fb00bc00000000000000000000000000000000000000000000000000000000815273ffffffffffffffffffffffffffffffffffffffff86166004820152602481018590526044810183905260648101849052608401610909565b60009384526020958652604080852073ffffffffffffffffffffffffffffffffffffffff9690961685529490955250502055565b6040517fbc197c81000000000000000000000000000000000000000000000000000000008082529073ffffffffffffffffffffffffffffffffffffffff86169063bc197c8190612ede908a908a908990899089906004016147ba565b6020604051808303816000875af1158015612efd573d6000803e3d6000fd5b505050506040513d601f19601f82011682018060405250810190612f219190614825565b7fffffffff0000000000000000000000000000000000000000000000000000000016146107d2578383836040517fc287817e00000000000000000000000000000000000000000000000000000000815260040161090993929190614842565b81548290828110612fc7576040517fbf0c18ec0000000000000000000000000000000000000000000000000000000081526004810182905260248101849052604401610909565b505550565b73ffffffffffffffffffffffffffffffffffffffff8116156130545781547fffffffffffffffffffffffff00000000000000000000000000000000000000001673ffffffffffffffffffffffffffffffffffffffff821690811783556040516000907f8be0079c531659141344cd1fd0a4f28419497f9722a3daafe3b4186f6b6457e0908290a35b610e0a7f7f5828d00000000000000000000000000000000000000000000000000000000060016117956112eb565b7c01000000000000000000000000000000000000000000000000000000007fffffffff000000000000000000000000000000000000000000000000000000008316016130fa576040517f72c683bb00000000000000000000000000000000000000000000000000000000815260040160405180910390fd5b7fffffffff00000000000000000000000000000000000000000000000000000000919091166000908152602092909252604090912080547fffffffffffffffffffffffffffffffffffffffffffffffffffffffffffffff0016911515919091179055565b60008173ffffffffffffffffffffffffffffffffffffffff168373ffffffffffffffffffffffffffffffffffffffff161480610a1f57505073ffffffffffffffffffffffffffffffffffffffff9182166000908152600193909301602090815260408085209290931684525290205460ff1690565b80156120225760008281526020858152604080832073ffffffffffffffffffffffffffffffffffffffff87168452909152902054818103818110612e4e576040517f03dee4c500000000000000000000000000000000000000000000000000000000815273ffffffffffffffffffffffffffffffffffffffff86166004820152602481018590526044810183905260648101849052608401610909565b815473ffffffffffffffffffffffffffffffffffffffff1680158015906132ae575060008173ffffffffffffffffffffffffffffffffffffffff163b115b1561087a576040517fc617113400000000000000000000000000000000000000000000000000000000815230600482015273ffffffffffffffffffffffffffffffffffffffff838116602483015282169063c617113490604401602060405180830381865afa158015613325573d6000803e3d6000fd5b505050506040513d601f19601f82011682018060405250810190613349919061479d565b61087a576040517fede71dcc00000000000000000000000000000000000000000000000000000000815273ffffffffffffffffffffffffffffffffffffffff83166004820152602401610909565b8015610bfe5760008281526020868152604080832073ffffffffffffffffffffffffffffffffffffffff88168452909152902054818103818110613434576040517f03dee4c500000000000000000000000000000000000000000000000000000000815273ffffffffffffffffffffffffffffffffffffffff87166004820152602481018590526044810183905260648101849052608401610909565b8473ffffffffffffffffffffffffffffffffffffffff168673ffffffffffffffffffffffffffffffffffffffff161461115f5760008481526020888152604080832073ffffffffffffffffffffffffffffffffffffffff891684529091529020548381018181116134fe576040517f42fb00bc00000000000000000000000000000000000000000000000000000000815273ffffffffffffffffffffffffffffffffffffffff88166004820152602481018790526044810183905260648101869052608401610909565b600086815260208a8152604080832073ffffffffffffffffffffffffffffffffffffffff808d1685528184528285208890558b1684529091529020555050505050505050565b366000333214806135555750601836105b156135635750600091369150565b3373ffffffffffffffffffffffffffffffffffffffff7f0000000000000000000000000000000000000000000000000000000000000000161480613698575073ffffffffffffffffffffffffffffffffffffffff7f000000000000000000000000000000000000000000000000000000000000000016638929a8ca367fffffffffffffffffffffffffffffffffffffffffffffffffffffffffffffffec013560601c6040517fffffffff0000000000000000000000000000000000000000000000000000000060e084901b16815273ffffffffffffffffffffffffffffffffffffffff9091166004820152336024820152604401602060405180830381865afa158015613674573d6000803e3d6000fd5b505050506040513d601f19601f82011682018060405250810190613698919061479d565b156136a5576109fa6138db565b50600091369150565b6040517ff23a6e61000000000000000000000000000000000000000000000000000000008082529073ffffffffffffffffffffffffffffffffffffffff86169063f23a6e619061370a908a908a9089908990899060040161488d565b6020604051808303816000875af1158015613729573d6000803e3d6000fd5b505050506040513d601f19601f8201168201806040525081019061374d9190614825565b7fffffffff0000000000000000000000000000000000000000000000000000000016146107d2576040517f40f39d3800000000000000000000000000000000000000000000000000000000815273ffffffffffffffffffffffffffffffffffffffff851660048201526024810184905260448101839052606401610909565b600061382e826040518060400160405280602081526020017f5361666545524332303a206c6f772d6c6576656c2063616c6c206661696c65648152508573ffffffffffffffffffffffffffffffffffffffff1661390c9092919063ffffffff16565b905080516000148061384f57508080602001905181019061384f919061479d565b61087a576040517f08c379a000000000000000000000000000000000000000000000000000000000815260206004820152602a60248201527f5361666545524332303a204552433230206f7065726174696f6e20646964206e60448201527f6f742073756363656564000000000000000000000000000000000000000000006064820152608401610909565b3660006109fa7fffffffffffffffffffffffffffffffffffffffffffffffffffffffffffffffec83018284816148d2565b6060610a1f8484600085856000808673ffffffffffffffffffffffffffffffffffffffff16858760405161394091906148fc565b60006040518083038185875af1925050503d806000811461397d576040519150601f19603f3d011682016040523d82523d6000602084013e613982565b606091505b50915091506139938783838761399e565b979650505050505050565b60608315613a34578251600003613a2d5773ffffffffffffffffffffffffffffffffffffffff85163b613a2d576040517f08c379a000000000000000000000000000000000000000000000000000000000815260206004820152601d60248201527f416464726573733a2063616c6c20746f206e6f6e2d636f6e74726163740000006044820152606401610909565b5081610a1f565b610a1f8383815115613a495781518083602001fd5b806040517f08c379a00000000000000000000000000000000000000000000000000000000081526004016109099190613b8b565b73ffffffffffffffffffffffffffffffffffffffff8116811461085857600080fd5b60008060408385031215613ab257600080fd5b8235613abd81613a7d565b946020939093013593505050565b7fffffffff000000000000000000000000000000000000000000000000000000008116811461085857600080fd5b600060208284031215613b0b57600080fd5b8135613b1681613acb565b9392505050565b60005b83811015613b38578181015183820152602001613b20565b50506000910152565b60008151808452613b59816020860160208601613b1d565b601f017fffffffffffffffffffffffffffffffffffffffffffffffffffffffffffffffe0169290920160200192915050565b60208152600061062e6020830184613b41565b60008083601f840112613bb057600080fd5b50813567ffffffffffffffff811115613bc857600080fd5b6020830191508360208260051b850101111561096d57600080fd5b60008083601f840112613bf557600080fd5b50813567ffffffffffffffff811115613c0d57600080fd5b60208301915083602082850101111561096d57600080fd5b60008060008060008060006080888a031215613c4057600080fd5b8735613c4b81613a7d565b9650602088013567ffffffffffffffff80821115613c6857600080fd5b613c748b838c01613b9e565b909850965060408a0135915080821115613c8d57600080fd5b613c998b838c01613b9e565b909650945060608a0135915080821115613cb257600080fd5b50613cbf8a828b01613be3565b989b979a50959850939692959293505050565b60008060008060008060808789031215613ceb57600080fd5b863567ffffffffffffffff80821115613d0357600080fd5b613d0f8a838b01613be3565b90985096506020890135915080821115613d2857600080fd5b50613d3589828a01613be3565b9095509350506040870135613d4981613a7d565b91506060870135613d5981613a7d565b809150509295509295509295565b600060208284031215613d7957600080fd5b5035919050565b600060208284031215613d9257600080fd5b8135613b1681613a7d565b600080600060608486031215613db257600080fd5b8335613dbd81613a7d565b95602085013595506040909401359392505050565b600080600060408486031215613de757600080fd5b83359250602084013567ffffffffffffffff811115613e0557600080fd5b613e1186828701613be3565b9497909650939450505050565b60008060408385031215613e3157600080fd5b50508035926020909101359150565b60008060008060008060008060a0898b031215613e5c57600080fd5b8835613e6781613a7d565b97506020890135613e7781613a7d565b9650604089013567ffffffffffffffff80821115613e9457600080fd5b613ea08c838d01613b9e565b909850965060608b0135915080821115613eb957600080fd5b613ec58c838d01613b9e565b909650945060808b0135915080821115613ede57600080fd5b50613eeb8b828c01613be3565b999c989b5096995094979396929594505050565b60008060408385031215613f1257600080fd5b823591506020830135613f2481613a7d565b809150509250929050565b8183528181602085013750600060208284010152600060207fffffffffffffffffffffffffffffffffffffffffffffffffffffffffffffffe0601f840116840101905092915050565b602081526000610a1f602083018486613f2f565b60008060008060408587031215613fa257600080fd5b843567ffffffffffffffff80821115613fba57600080fd5b613fc688838901613b9e565b90965094506020870135915080821115613fdf57600080fd5b50613fec87828801613b9e565b95989497509550505050565b600081518084526020808501945080840160005b838110156140285781518752958201959082019060010161400c565b509495945050505050565b60208152600061062e6020830184613ff8565b60008060008060006080868803121561405e57600080fd5b853561406981613a7d565b94506020860135935060408601359250606086013567ffffffffffffffff81111561409357600080fd5b61409f88828901613be3565b969995985093965092949392505050565b600080600080600080606087890312156140c957600080fd5b863567ffffffffffffffff808211156140e157600080fd5b6140ed8a838b01613b9e565b9098509650602089013591508082111561410657600080fd5b6141128a838b01613b9e565b9096509450604089013591508082111561412b57600080fd5b5061413889828a01613b9e565b979a9699509497509295939492505050565b60008060008060006060868803121561416257600080fd5b853561416d81613a7d565b9450602086013567ffffffffffffffff8082111561418a57600080fd5b61419689838a01613b9e565b909650945060408801359150808211156141af57600080fd5b5061409f88828901613b9e565b801515811461085857600080fd5b600080604083850312156141dd57600080fd5b82356141e881613a7d565b91506020830135613f24816141bc565b6000806000806000806000806080898b03121561421457600080fd5b883567ffffffffffffffff8082111561422c57600080fd5b6142388c838d01613b9e565b909a50985060208b013591508082111561425157600080fd5b61425d8c838d01613b9e565b909850965060408b013591508082111561427657600080fd5b6142828c838d01613b9e565b909650945060608b0135915080821115613ede57600080fd5b600080604083850312156142ae57600080fd5b82356142b981613a7d565b91506020830135613f2481613a7d565b60008060008060008060a087890312156142e257600080fd5b86356142ed81613a7d565b955060208701356142fd81613a7d565b94506040870135935060608701359250608087013567ffffffffffffffff81111561432757600080fd5b61413889828a01613be3565b7f4e487b7100000000000000000000000000000000000000000000000000000000600052603260045260246000fd5b60008083357fffffffffffffffffffffffffffffffffffffffffffffffffffffffffffffffe184360301811261439757600080fd5b83018035915067ffffffffffffffff8211156143b257600080fd5b60200191503681900382131561096d57600080fd5b7f4e487b7100000000000000000000000000000000000000000000000000000000600052601160045260246000fd5b81810381811115610631576106316143c7565b600181811c9082168061441d57607f821691505b602082108103614456577f4e487b7100000000000000000000000000000000000000000000000000000000600052602260045260246000fd5b50919050565b60408152600061446f6040830185613ff8565b82810360208401526144818185613ff8565b95945050505050565b7f4e487b7100000000000000000000000000000000000000000000000000000000600052604160045260246000fd5b601f82111561087a57600081815260208120601f850160051c810160208610156144e05750805b601f850160051c820191505b818110156107d2578281556001016144ec565b67ffffffffffffffff8311156145175761451761448a565b61452b836145258354614409565b836144b9565b6000601f84116001811461457d57600085156145475750838201355b7fffffffffffffffffffffffffffffffffffffffffffffffffffffffffffffffff600387901b1c1916600186901b178355610bfe565b6000838152602090207fffffffffffffffffffffffffffffffffffffffffffffffffffffffffffffffe0861690835b828110156145cc57868501358255602094850194600190920191016145ac565b5086821015614607577fffffffffffffffffffffffffffffffffffffffffffffffffffffffffffffffff60f88860031b161c19848701351681555b505060018560011b0183555050505050565b60006020828403121561462b57600080fd5b815167ffffffffffffffff8082111561464357600080fd5b818401915084601f83011261465757600080fd5b8151818111156146695761466961448a565b604051601f82017fffffffffffffffffffffffffffffffffffffffffffffffffffffffffffffffe0908116603f011681019083821181831017156146af576146af61448a565b816040528281528760208487010111156146c857600080fd5b613993836020830160208801613b1d565b8082028115828204841417610631576106316143c7565b600082614726577f4e487b7100000000000000000000000000000000000000000000000000000000600052601260045260246000fd5b500490565b81835260007f07ffffffffffffffffffffffffffffffffffffffffffffffffffffffffffffff83111561475d57600080fd5b8260051b80836020870137939093016020019392505050565b60408152600061478a60408301868861472b565b828103602084015261399381858761472b565b6000602082840312156147af57600080fd5b8151613b16816141bc565b600073ffffffffffffffffffffffffffffffffffffffff808816835280871660208401525060a060408301526147f360a0830186613ff8565b82810360608401526148058186613ff8565b905082810360808401526148198185613b41565b98975050505050505050565b60006020828403121561483757600080fd5b8151613b1681613acb565b73ffffffffffffffffffffffffffffffffffffffff841681526060602082015260006148716060830185613ff8565b82810360408401526148838185613ff8565b9695505050505050565b600073ffffffffffffffffffffffffffffffffffffffff808816835280871660208401525084604083015283606083015260a0608083015261399360a0830184613b41565b600080858511156148e257600080fd5b838611156148ef57600080fd5b5050820193919092039150565b6000825161490e818460208701613b1d565b919091019291505056fea26469706673582212205a8123264e9db5e3ac30eed0c1eb140137769a5633ffb3d00d5aae962757df1f64736f6c63430008150033",
  "linkReferences": {},
  "deployedLinkReferences": {}
}