{
  "_format": "hh-sol-artifact-1",
  "contractName": "ERC1155FullBurnProxiedMock",
  "sourceName": "contracts/mocks/token/ERC1155/preset/proxied/ERC1155FullBurnProxiedMock.sol",
  "abi": [
    {
      "inputs": [
        {
          "internalType": "contract IForwarderRegistry",
          "name": "forwarderRegistry",
          "type": "address"
        }
      ],
      "stateMutability": "nonpayable",
      "type": "constructor"
    },
    {
      "inputs": [],
      "name": "ERC1155BalanceOfAddressZero",
      "type": "error"
    },
    {
      "inputs": [
        {
          "internalType": "address",
          "name": "recipient",
          "type": "address"
        },
        {
          "internalType": "uint256",
          "name": "id",
          "type": "uint256"
        },
        {
          "internalType": "uint256",
          "name": "balance",
          "type": "uint256"
        },
        {
          "internalType": "uint256",
          "name": "value",
          "type": "uint256"
        }
      ],
      "name": "ERC1155BalanceOverflow",
      "type": "error"
    },
    {
      "inputs": [
        {
          "internalType": "address",
          "name": "owner",
          "type": "address"
        },
        {
          "internalType": "uint256",
          "name": "id",
          "type": "uint256"
        },
        {
          "internalType": "uint256",
          "name": "balance",
          "type": "uint256"
        },
        {
          "internalType": "uint256",
          "name": "value",
          "type": "uint256"
        }
      ],
      "name": "ERC1155InsufficientBalance",
      "type": "error"
    },
    {
      "inputs": [],
      "name": "ERC1155MintToAddressZero",
      "type": "error"
    },
    {
      "inputs": [
        {
          "internalType": "address",
          "name": "sender",
          "type": "address"
        },
        {
          "internalType": "address",
          "name": "owner",
          "type": "address"
        }
      ],
      "name": "ERC1155NonApproved",
      "type": "error"
    },
    {
      "inputs": [
        {
          "internalType": "address",
          "name": "recipient",
          "type": "address"
        },
        {
          "internalType": "uint256[]",
          "name": "ids",
          "type": "uint256[]"
        },
        {
          "internalType": "uint256[]",
          "name": "values",
          "type": "uint256[]"
        }
      ],
      "name": "ERC1155SafeBatchTransferRejected",
      "type": "error"
    },
    {
      "inputs": [
        {
          "internalType": "address",
          "name": "recipient",
          "type": "address"
        },
        {
          "internalType": "uint256",
          "name": "id",
          "type": "uint256"
        },
        {
          "internalType": "uint256",
          "name": "value",
          "type": "uint256"
        }
      ],
      "name": "ERC1155SafeTransferRejected",
      "type": "error"
    },
    {
      "inputs": [
        {
          "internalType": "address",
          "name": "account",
          "type": "address"
        }
      ],
      "name": "ERC1155SelfApprovalForAll",
      "type": "error"
    },
    {
      "inputs": [],
      "name": "ERC1155TransferToAddressZero",
      "type": "error"
    },
    {
      "inputs": [
        {
          "internalType": "uint256",
          "name": "percentage",
          "type": "uint256"
        }
      ],
      "name": "ERC2981IncorrectRoyaltyPercentage",
      "type": "error"
    },
    {
      "inputs": [],
      "name": "ERC2981IncorrectRoyaltyReceiver",
      "type": "error"
    },
    {
      "inputs": [],
      "name": "IllegalInterfaceId",
      "type": "error"
    },
    {
      "inputs": [],
      "name": "InconsistentArrayLengths",
      "type": "error"
    },
    {
      "inputs": [
        {
          "internalType": "address",
          "name": "tokenContract",
          "type": "address"
        }
      ],
      "name": "IncorrectTokenContractType",
      "type": "error"
    },
    {
      "inputs": [
        {
          "internalType": "uint256",
          "name": "currentPhase",
          "type": "uint256"
        },
        {
          "internalType": "uint256",
          "name": "newPhase",
          "type": "uint256"
        }
      ],
      "name": "InitializationPhaseAlreadyReached",
      "type": "error"
    },
    {
      "inputs": [
        {
          "internalType": "address",
          "name": "account",
          "type": "address"
        }
      ],
      "name": "NotContractOwner",
      "type": "error"
    },
    {
      "inputs": [
        {
          "internalType": "address",
          "name": "account",
          "type": "address"
        }
      ],
      "name": "NotMetadataResolver",
      "type": "error"
    },
    {
      "inputs": [
        {
          "internalType": "bytes32",
          "name": "role",
          "type": "bytes32"
        },
        {
          "internalType": "address",
          "name": "account",
          "type": "address"
        }
      ],
      "name": "NotRoleHolder",
      "type": "error"
    },
    {
      "anonymous": false,
      "inputs": [
        {
          "indexed": true,
          "internalType": "address",
          "name": "owner",
          "type": "address"
        },
        {
          "indexed": true,
          "internalType": "address",
          "name": "operator",
          "type": "address"
        },
        {
          "indexed": false,
          "internalType": "bool",
          "name": "approved",
          "type": "bool"
        }
      ],
      "name": "ApprovalForAll",
      "type": "event"
    },
    {
      "anonymous": false,
      "inputs": [
        {
          "indexed": true,
          "internalType": "address",
          "name": "previousOwner",
          "type": "address"
        },
        {
          "indexed": true,
          "internalType": "address",
          "name": "newOwner",
          "type": "address"
        }
      ],
      "name": "OwnershipTransferred",
      "type": "event"
    },
    {
      "anonymous": false,
      "inputs": [
        {
          "indexed": false,
          "internalType": "bytes32",
          "name": "role",
          "type": "bytes32"
        },
        {
          "indexed": false,
          "internalType": "address",
          "name": "account",
          "type": "address"
        },
        {
          "indexed": false,
          "internalType": "address",
          "name": "operator",
          "type": "address"
        }
      ],
      "name": "RoleGranted",
      "type": "event"
    },
    {
      "anonymous": false,
      "inputs": [
        {
          "indexed": false,
          "internalType": "bytes32",
          "name": "role",
          "type": "bytes32"
        },
        {
          "indexed": false,
          "internalType": "address",
          "name": "account",
          "type": "address"
        },
        {
          "indexed": false,
          "internalType": "address",
          "name": "operator",
          "type": "address"
        }
      ],
      "name": "RoleRevoked",
      "type": "event"
    },
    {
      "anonymous": false,
      "inputs": [
        {
          "indexed": true,
          "internalType": "address",
          "name": "operator",
          "type": "address"
        },
        {
          "indexed": true,
          "internalType": "address",
          "name": "from",
          "type": "address"
        },
        {
          "indexed": true,
          "internalType": "address",
          "name": "to",
          "type": "address"
        },
        {
          "indexed": false,
          "internalType": "uint256[]",
          "name": "ids",
          "type": "uint256[]"
        },
        {
          "indexed": false,
          "internalType": "uint256[]",
          "name": "values",
          "type": "uint256[]"
        }
      ],
      "name": "TransferBatch",
      "type": "event"
    },
    {
      "anonymous": false,
      "inputs": [
        {
          "indexed": true,
          "internalType": "address",
          "name": "operator",
          "type": "address"
        },
        {
          "indexed": true,
          "internalType": "address",
          "name": "from",
          "type": "address"
        },
        {
          "indexed": true,
          "internalType": "address",
          "name": "to",
          "type": "address"
        },
        {
          "indexed": false,
          "internalType": "uint256",
          "name": "id",
          "type": "uint256"
        },
        {
          "indexed": false,
          "internalType": "uint256",
          "name": "value",
          "type": "uint256"
        }
      ],
      "name": "TransferSingle",
      "type": "event"
    },
    {
      "anonymous": false,
      "inputs": [
        {
          "indexed": false,
          "internalType": "string",
          "name": "value",
          "type": "string"
        },
        {
          "indexed": true,
          "internalType": "uint256",
          "name": "id",
          "type": "uint256"
        }
      ],
      "name": "URI",
      "type": "event"
    },
    {
      "inputs": [],
      "name": "MINTER_ROLE",
      "outputs": [
        {
          "internalType": "bytes32",
          "name": "",
          "type": "bytes32"
        }
      ],
      "stateMutability": "view",
      "type": "function"
    },
    {
      "inputs": [],
      "name": "ROYALTY_FEE_DENOMINATOR",
      "outputs": [
        {
          "internalType": "uint256",
          "name": "",
          "type": "uint256"
        }
      ],
      "stateMutability": "view",
      "type": "function"
    },
    {
      "inputs": [],
      "name": "__msgData",
      "outputs": [
        {
          "internalType": "bytes",
          "name": "",
          "type": "bytes"
        }
      ],
      "stateMutability": "view",
      "type": "function"
    },
    {
      "inputs": [
        {
          "internalType": "address",
          "name": "owner",
          "type": "address"
        },
        {
          "internalType": "uint256",
          "name": "id",
          "type": "uint256"
        }
      ],
      "name": "balanceOf",
      "outputs": [
        {
          "internalType": "uint256",
          "name": "balance",
          "type": "uint256"
        }
      ],
      "stateMutability": "view",
      "type": "function"
    },
    {
      "inputs": [
        {
          "internalType": "address[]",
          "name": "owners",
          "type": "address[]"
        },
        {
          "internalType": "uint256[]",
          "name": "ids",
          "type": "uint256[]"
        }
      ],
      "name": "balanceOfBatch",
      "outputs": [
        {
          "internalType": "uint256[]",
          "name": "balances",
          "type": "uint256[]"
        }
      ],
      "stateMutability": "view",
      "type": "function"
    },
    {
      "inputs": [
        {
          "internalType": "address",
          "name": "from",
          "type": "address"
        },
        {
          "internalType": "uint256[]",
          "name": "ids",
          "type": "uint256[]"
        },
        {
          "internalType": "uint256[]",
          "name": "values",
          "type": "uint256[]"
        }
      ],
      "name": "batchBurnFrom",
      "outputs": [],
      "stateMutability": "nonpayable",
      "type": "function"
    },
    {
      "inputs": [
        {
          "internalType": "uint256[]",
          "name": "tokenIds",
          "type": "uint256[]"
        },
        {
          "internalType": "string[]",
          "name": "tokenURIs",
          "type": "string[]"
        }
      ],
      "name": "batchSetTokenURI",
      "outputs": [],
      "stateMutability": "nonpayable",
      "type": "function"
    },
    {
      "inputs": [
        {
          "internalType": "address",
          "name": "from",
          "type": "address"
        },
        {
          "internalType": "uint256",
          "name": "id",
          "type": "uint256"
        },
        {
          "internalType": "uint256",
          "name": "value",
          "type": "uint256"
        }
      ],
      "name": "burnFrom",
      "outputs": [],
      "stateMutability": "nonpayable",
      "type": "function"
    },
    {
      "inputs": [],
      "name": "forwarderRegistry",
      "outputs": [
        {
          "internalType": "contract IForwarderRegistry",
          "name": "",
          "type": "address"
        }
      ],
      "stateMutability": "view",
      "type": "function"
    },
    {
      "inputs": [
        {
          "internalType": "bytes32",
          "name": "role",
          "type": "bytes32"
        },
        {
          "internalType": "address",
          "name": "account",
          "type": "address"
        }
      ],
      "name": "grantRole",
      "outputs": [],
      "stateMutability": "nonpayable",
      "type": "function"
    },
    {
      "inputs": [
        {
          "internalType": "bytes32",
          "name": "role",
          "type": "bytes32"
        },
        {
          "internalType": "address",
          "name": "account",
          "type": "address"
        }
      ],
      "name": "hasRole",
      "outputs": [
        {
          "internalType": "bool",
          "name": "hasRole_",
          "type": "bool"
        }
      ],
      "stateMutability": "view",
      "type": "function"
    },
    {
      "inputs": [
        {
          "internalType": "string",
          "name": "tokenName",
          "type": "string"
        },
        {
          "internalType": "string",
          "name": "tokenSymbol",
          "type": "string"
        },
        {
          "internalType": "contract ITokenMetadataResolver",
          "name": "metadataResolver",
          "type": "address"
        }
      ],
      "name": "init",
      "outputs": [],
      "stateMutability": "nonpayable",
      "type": "function"
    },
    {
      "inputs": [
        {
          "internalType": "address",
          "name": "owner",
          "type": "address"
        },
        {
          "internalType": "address",
          "name": "operator",
          "type": "address"
        }
      ],
      "name": "isApprovedForAll",
      "outputs": [
        {
          "internalType": "bool",
          "name": "approvedForAll",
          "type": "bool"
        }
      ],
      "stateMutability": "view",
      "type": "function"
    },
    {
      "inputs": [
        {
          "internalType": "address",
          "name": "forwarder",
          "type": "address"
        }
      ],
      "name": "isTrustedForwarder",
      "outputs": [
        {
          "internalType": "bool",
          "name": "",
          "type": "bool"
        }
      ],
      "stateMutability": "view",
      "type": "function"
    },
    {
      "inputs": [],
      "name": "metadataResolver",
      "outputs": [
        {
          "internalType": "contract ITokenMetadataResolver",
          "name": "tokenMetadataResolver",
          "type": "address"
        }
      ],
      "stateMutability": "view",
      "type": "function"
    },
    {
      "inputs": [],
      "name": "name",
      "outputs": [
        {
          "internalType": "string",
          "name": "tokenName",
          "type": "string"
        }
      ],
      "stateMutability": "view",
      "type": "function"
    },
    {
      "inputs": [],
      "name": "owner",
      "outputs": [
        {
          "internalType": "address",
          "name": "",
          "type": "address"
        }
      ],
      "stateMutability": "view",
      "type": "function"
    },
    {
      "inputs": [
        {
          "internalType": "address[]",
          "name": "accounts",
          "type": "address[]"
        },
        {
          "internalType": "contract IERC20[]",
          "name": "tokens",
          "type": "address[]"
        },
        {
          "internalType": "uint256[]",
          "name": "amounts",
          "type": "uint256[]"
        }
      ],
      "name": "recoverERC20s",
      "outputs": [],
      "stateMutability": "nonpayable",
      "type": "function"
    },
    {
      "inputs": [
        {
          "internalType": "address[]",
          "name": "accounts",
          "type": "address[]"
        },
        {
          "internalType": "contract IERC721[]",
          "name": "contracts",
          "type": "address[]"
        },
        {
          "internalType": "uint256[]",
          "name": "tokenIds",
          "type": "uint256[]"
        }
      ],
      "name": "recoverERC721s",
      "outputs": [],
      "stateMutability": "nonpayable",
      "type": "function"
    },
    {
      "inputs": [
        {
          "internalType": "address payable[]",
          "name": "accounts",
          "type": "address[]"
        },
        {
          "internalType": "uint256[]",
          "name": "amounts",
          "type": "uint256[]"
        }
      ],
      "name": "recoverETH",
      "outputs": [],
      "stateMutability": "nonpayable",
      "type": "function"
    },
    {
      "inputs": [
        {
          "internalType": "bytes32",
          "name": "role",
          "type": "bytes32"
        }
      ],
      "name": "renounceRole",
      "outputs": [],
      "stateMutability": "nonpayable",
      "type": "function"
    },
    {
      "inputs": [
        {
          "internalType": "bytes32",
          "name": "role",
          "type": "bytes32"
        },
        {
          "internalType": "address",
          "name": "account",
          "type": "address"
        }
      ],
      "name": "revokeRole",
      "outputs": [],
      "stateMutability": "nonpayable",
      "type": "function"
    },
    {
      "inputs": [
        {
          "internalType": "uint256",
          "name": "tokenId",
          "type": "uint256"
        },
        {
          "internalType": "uint256",
          "name": "salePrice",
          "type": "uint256"
        }
      ],
      "name": "royaltyInfo",
      "outputs": [
        {
          "internalType": "address",
          "name": "receiver",
          "type": "address"
        },
        {
          "internalType": "uint256",
          "name": "royaltyAmount",
          "type": "uint256"
        }
      ],
      "stateMutability": "view",
      "type": "function"
    },
    {
      "inputs": [
        {
          "internalType": "address",
          "name": "to",
          "type": "address"
        },
        {
          "internalType": "uint256[]",
          "name": "ids",
          "type": "uint256[]"
        },
        {
          "internalType": "uint256[]",
          "name": "values",
          "type": "uint256[]"
        },
        {
          "internalType": "bytes",
          "name": "data",
          "type": "bytes"
        }
      ],
      "name": "safeBatchMint",
      "outputs": [],
      "stateMutability": "nonpayable",
      "type": "function"
    },
    {
      "inputs": [
        {
          "internalType": "address",
          "name": "from",
          "type": "address"
        },
        {
          "internalType": "address",
          "name": "to",
          "type": "address"
        },
        {
          "internalType": "uint256[]",
          "name": "ids",
          "type": "uint256[]"
        },
        {
          "internalType": "uint256[]",
          "name": "values",
          "type": "uint256[]"
        },
        {
          "internalType": "bytes",
          "name": "data",
          "type": "bytes"
        }
      ],
      "name": "safeBatchTransferFrom",
      "outputs": [],
      "stateMutability": "nonpayable",
      "type": "function"
    },
    {
      "inputs": [
        {
          "internalType": "address[]",
          "name": "recipients",
          "type": "address[]"
        },
        {
          "internalType": "uint256[]",
          "name": "ids",
          "type": "uint256[]"
        },
        {
          "internalType": "uint256[]",
          "name": "values",
          "type": "uint256[]"
        },
        {
          "internalType": "bytes",
          "name": "data",
          "type": "bytes"
        }
      ],
      "name": "safeDeliver",
      "outputs": [],
      "stateMutability": "nonpayable",
      "type": "function"
    },
    {
      "inputs": [
        {
          "internalType": "address",
          "name": "to",
          "type": "address"
        },
        {
          "internalType": "uint256",
          "name": "id",
          "type": "uint256"
        },
        {
          "internalType": "uint256",
          "name": "value",
          "type": "uint256"
        },
        {
          "internalType": "bytes",
          "name": "data",
          "type": "bytes"
        }
      ],
      "name": "safeMint",
      "outputs": [],
      "stateMutability": "nonpayable",
      "type": "function"
    },
    {
      "inputs": [
        {
          "internalType": "address",
          "name": "from",
          "type": "address"
        },
        {
          "internalType": "address",
          "name": "to",
          "type": "address"
        },
        {
          "internalType": "uint256",
          "name": "id",
          "type": "uint256"
        },
        {
          "internalType": "uint256",
          "name": "value",
          "type": "uint256"
        },
        {
          "internalType": "bytes",
          "name": "data",
          "type": "bytes"
        }
      ],
      "name": "safeTransferFrom",
      "outputs": [],
      "stateMutability": "nonpayable",
      "type": "function"
    },
    {
      "inputs": [
        {
          "internalType": "address",
          "name": "operator",
          "type": "address"
        },
        {
          "internalType": "bool",
          "name": "approved",
          "type": "bool"
        }
      ],
      "name": "setApprovalForAll",
      "outputs": [],
      "stateMutability": "nonpayable",
      "type": "function"
    },
    {
      "inputs": [
        {
          "internalType": "uint256",
          "name": "percentage",
          "type": "uint256"
        }
      ],
      "name": "setRoyaltyPercentage",
      "outputs": [],
      "stateMutability": "nonpayable",
      "type": "function"
    },
    {
      "inputs": [
        {
          "internalType": "address",
          "name": "receiver",
          "type": "address"
        }
      ],
      "name": "setRoyaltyReceiver",
      "outputs": [],
      "stateMutability": "nonpayable",
      "type": "function"
    },
    {
      "inputs": [
        {
          "internalType": "uint256",
          "name": "tokenId",
          "type": "uint256"
        },
        {
          "internalType": "string",
          "name": "tokenURI",
          "type": "string"
        }
      ],
      "name": "setTokenURI",
      "outputs": [],
      "stateMutability": "nonpayable",
      "type": "function"
    },
    {
      "inputs": [
        {
          "internalType": "bytes4",
          "name": "interfaceId",
          "type": "bytes4"
        }
      ],
      "name": "supportsInterface",
      "outputs": [
        {
          "internalType": "bool",
          "name": "",
          "type": "bool"
        }
      ],
      "stateMutability": "view",
      "type": "function"
    },
    {
      "inputs": [],
      "name": "symbol",
      "outputs": [
        {
          "internalType": "string",
          "name": "tokenSymbol",
          "type": "string"
        }
      ],
      "stateMutability": "view",
      "type": "function"
    },
    {
      "inputs": [
        {
          "internalType": "address",
          "name": "newOwner",
          "type": "address"
        }
      ],
      "name": "transferOwnership",
      "outputs": [],
      "stateMutability": "nonpayable",
      "type": "function"
    },
    {
      "inputs": [
        {
          "internalType": "uint256",
          "name": "tokenId",
          "type": "uint256"
        }
      ],
      "name": "uri",
      "outputs": [
        {
          "internalType": "string",
          "name": "metadataURI",
          "type": "string"
        }
      ],
      "stateMutability": "view",
      "type": "function"
    }
  ],
  "bytecode": "0x60a06040523480156200001157600080fd5b506040516200485238038062004852833981016040819052620000349162000046565b6001600160a01b031660805262000078565b6000602082840312156200005957600080fd5b81516001600160a01b03811681146200007157600080fd5b9392505050565b60805161479b620000b76000396000818161034d015281816103fe01528181612c2f01528181612cb7015281816131f80152613236015261479b6000f3fe608060405234801561001057600080fd5b506004361061025b5760003560e01c806373c8a95811610145578063c3666c36116100bd578063e8ab9ccc1161008c578063f242432a11610071578063f242432a1461058e578063f2fde38b146105a1578063f7ba94bd146105b457600080fd5b8063e8ab9ccc14610568578063e985e9c51461057b57600080fd5b8063c3666c3614610511578063d539139314610524578063d547741f1461054b578063e1a8bf2c1461055e57600080fd5b80638dc251e31161011457806395d89b41116100f957806395d89b41146104ee578063a0c76f62146104f6578063a22cb465146104fe57600080fd5b80638dc251e3146104c857806391d14854146104db57600080fd5b806373c8a95814610487578063805349341461049a5780638bb9c5bf146104ad5780638da5cb5b146104c057600080fd5b80632eb2c2d6116101d8578063572b6c05116101a757806361ba27da1161018c57806361ba27da1461044e5780636706467b146104615780636ee5741a1461047457600080fd5b8063572b6c05146103ee5780635cfa92971461043b57600080fd5b80632eb2c2d6146103925780632f2ff15d146103a557806331e66e1e146103b85780634e1273f4146103ce57600080fd5b80630e89341c1161022f578063162094c411610214578063162094c4146102f95780632a55205a1461030c5780632b4c9f161461034b57600080fd5b80630e89341c146102d3578063124d91e5146102e657600080fd5b8062fdd58e1461026057806301ffc9a71461028657806306fdde03146102a95780630d6a5bbb146102be575b600080fd5b61027361026e3660046138fa565b6105c7565b6040519081526020015b60405180910390f35b610299610294366004613954565b6105e6565b604051901515815260200161027d565b6102b16105fa565b60405161027d91906139e6565b6102d16102cc366004613a80565b610611565b005b6102b16102e1366004613b2d565b61070c565b6102d16102f4366004613b46565b610722565b6102d1610307366004613b7b565b610746565b61031f61031a366004613bc7565b610818565b6040805173ffffffffffffffffffffffffffffffffffffffff909316835260208301919091520161027d565b7f00000000000000000000000000000000000000000000000000000000000000005b60405173ffffffffffffffffffffffffffffffffffffffff909116815260200161027d565b6102d16103a0366004613be9565b61083b565b6102d16103b3366004613ca8565b610864565b6103c0610898565b60405161027d929190613d21565b6103e16103dc366004613d35565b6108ab565b60405161027d9190613ddd565b6102996103fc366004613df0565b7f000000000000000000000000000000000000000000000000000000000000000073ffffffffffffffffffffffffffffffffffffffff90811691161490565b6102d1610449366004613e0d565b6108d0565b6102d161045c366004613b2d565b610962565b6102d161046f366004613d35565b61098a565b6102d1610482366004613e77565b610ac2565b6102d1610495366004613efb565b610b25565b6102d16104a8366004613f95565b610c11565b6102d16104bb366004613b2d565b610c34565b61036d610c4f565b6102d16104d6366004613df0565b610c76565b6102996104e9366004613ca8565b610c93565b6102b1610cd7565b61036d610ce9565b6102d161050c366004614015565b610cf6565b6102d161051f366004613efb565b610d17565b6102737f6d696e746572000000000000000000000000000000000000000000000000000081565b6102d1610559366004613ca8565b610fb8565b610273620186a081565b6102d1610576366004614043565b610fe6565b6102996105893660046140e6565b61110b565b6102d161059c366004614114565b611159565b6102d16105af366004613df0565b61117e565b6102d16105c2366004613d35565b611199565b60006105dd83836105d6611250565b919061127e565b90505b92915050565b60006105e0826105f4611302565b90611330565b606061060c61060761140a565b611438565b905090565b600061061b6114ce565b90506106517f6d696e74657200000000000000000000000000000000000000000000000000008261064a6114d8565b9190611506565b610702818989898080602002602001604051908101604052809392919081815260200183836020028082843760009201919091525050604080516020808d0282810182019093528c82529093508c92508b91829185019084908082843760009201919091525050604080516020601f8c018190048102820181019092528a815292508a91508990819084018382808284376000920191909152506106f89250611250915050565b949392919061158c565b5050505050505050565b60606105e0308361071b61140a565b919061171b565b61074161072d6114ce565b848484610738611250565b939291906117db565b505050565b61076e61075161140a565b6002015473ffffffffffffffffffffffffffffffffffffffff1690565b73ffffffffffffffffffffffffffffffffffffffff163373ffffffffffffffffffffffffffffffffffffffff16146107d9576040517f220606710000000000000000000000000000000000000000000000000000000081523360048201526024015b60405180910390fd5b827f6bb7ff708619ba0610cba295a58592e0451dee2622938c8755667688daf3529b838360405161080b929190613d21565b60405180910390a2505050565b60008061082f84846108286118a8565b91906118d6565b915091505b9250929050565b6107026108466114ce565b8989898989898989610856611250565b989796959493929190611980565b600061086e6114ce565b90506108828161087c611c09565b90611c37565b6107418383836108906114d8565b929190611ca2565b3660006108a3611d79565b915091509091565b60606108c5858585856108bc611250565b93929190611d84565b90505b949350505050565b60006108da6114ce565b90506109097f6d696e74657200000000000000000000000000000000000000000000000000008261064a6114d8565b61095a8187878787878080601f0160208091040260200160405190810160405280939291908181526020018383808284376000920191909152506109509250611250915050565b9493929190611e93565b505050505050565b61097561096d6114ce565b61087c611c09565b610987816109816118a8565b90611f71565b50565b8281146109c3576040517f6582533600000000000000000000000000000000000000000000000000000000815260040160405180910390fd5b6109ce61075161140a565b73ffffffffffffffffffffffffffffffffffffffff163373ffffffffffffffffffffffffffffffffffffffff1614610a34576040517f220606710000000000000000000000000000000000000000000000000000000081523360048201526024016107d0565b60005b83811015610abb57848482818110610a5157610a5161417e565b905060200201357f6bb7ff708619ba0610cba295a58592e0451dee2622938c8755667688daf3529b848484818110610a8b57610a8b61417e565b9050602002810190610a9d91906141ad565b604051610aab929190613d21565b60405180910390a2600101610a37565b5050505050565b610adb610acd6114ce565b610ad5611c09565b90611ff7565b610ae3612036565b610aeb61206d565b610af361209b565b610afb6120c9565b610b036120f7565b610b0b612125565b610abb8585858585610b1b61140a565b9493929190612153565b610b3061096d6114ce565b848381141580610b405750808214155b15610b77576040517f6582533600000000000000000000000000000000000000000000000000000000815260040160405180910390fd5b60005b8181101561070257610c09888883818110610b9757610b9761417e565b9050602002016020810190610bac9190613df0565b858584818110610bbe57610bbe61417e565b90506020020135888885818110610bd757610bd761417e565b9050602002016020810190610bec9190613df0565b73ffffffffffffffffffffffffffffffffffffffff1691906121ed565b600101610b7a565b610abb610c1c6114ce565b8686868686610c29611250565b95949392919061227a565b610987610c3f6114ce565b82610c486114d8565b91906123f2565b600061060c610c5c611c09565b5473ffffffffffffffffffffffffffffffffffffffff1690565b610c8161096d6114ce565b61098781610c8d6118a8565b90612496565b60006105dd8383610ca26114d8565b60009283526020908152604080842073ffffffffffffffffffffffffffffffffffffffff909316845291905290205460ff1690565b606061060c610ce461140a565b612525565b600061060c61075161140a565b610d13610d016114ce565b8383610d0b611250565b929190612536565b5050565b610d2261096d6114ce565b848381141580610d325750808214155b15610d69576040517f6582533600000000000000000000000000000000000000000000000000000000815260040160405180910390fd5b60005b81811015610702576000868683818110610d8857610d8861417e565b9050602002016020810190610d9d9190613df0565b6040517f01ffc9a70000000000000000000000000000000000000000000000000000000081527f80ac58cd00000000000000000000000000000000000000000000000000000000600482015290915073ffffffffffffffffffffffffffffffffffffffff8216906301ffc9a790602401602060405180830381865afa158015610e2a573d6000803e3d6000fd5b505050506040513d601f19601f82011682018060405250810190610e4e9190614212565b610e9c576040517f986b9f1f00000000000000000000000000000000000000000000000000000000815273ffffffffffffffffffffffffffffffffffffffff821660048201526024016107d0565b868683818110610eae57610eae61417e565b9050602002016020810190610ec39190613df0565b73ffffffffffffffffffffffffffffffffffffffff166342842e0e308b8b86818110610ef157610ef161417e565b9050602002016020810190610f069190613df0565b888887818110610f1857610f1861417e565b6040517fffffffff0000000000000000000000000000000000000000000000000000000060e088901b16815273ffffffffffffffffffffffffffffffffffffffff958616600482015294909316602485015250602090910201356044820152606401600060405180830381600087803b158015610f9457600080fd5b505af1158015610fa8573d6000803e3d6000fd5b5050505050806001019050610d6c565b6000610fc26114ce565b9050610fd08161087c611c09565b610741838383610fde6114d8565b92919061264e565b6000610ff06114ce565b905061101f7f6d696e74657200000000000000000000000000000000000000000000000000008261064a6114d8565b611100818a8a8080602002602001604051908101604052809392919081815260200183836020028082843760009201919091525050604080516020808e0282810182019093528d82529093508d92508c91829185019084908082843760009201919091525050604080516020808d0282810182019093528c82529093508c92508b91829185019084908082843760009201919091525050604080516020601f8c018190048102820181019092528a815292508a91508990819084018382808284376000920191909152506110f69250611250915050565b9493929190612718565b505050505050505050565b60006105dd838361111a611250565b919073ffffffffffffffffffffffffffffffffffffffff9182166000908152600193909301602090815260408085209290931684525290205460ff1690565b61095a6111646114ce565b878787878787611172611250565b969594939291906127db565b6109876111896114ce565b82611192611c09565b919061297e565b6111a461096d6114ce565b828181146111de576040517f6582533600000000000000000000000000000000000000000000000000000000815260040160405180910390fd5b60005b8181101561095a576112488484838181106111fe576111fe61417e565b905060200201358787848181106112175761121761417e565b905060200201602081019061122c9190613df0565b73ffffffffffffffffffffffffffffffffffffffff1690612a92565b6001016111e1565b6000806105e060017f5ccf5846fa27a68fafc8e588671a68f5e67c2f9b56af4263806a4d71735e861361425e565b600073ffffffffffffffffffffffffffffffffffffffff83166112cd576040517fca2434a500000000000000000000000000000000000000000000000000000000815260040160405180910390fd5b5060009081526020928352604080822073ffffffffffffffffffffffffffffffffffffffff9390931682529190925290205490565b6000806105e060017fca9d3e17f264b0f3984e2634e94adb37fa3e6a8103f06aeae6fa59e21c769f5e61425e565b60007c01000000000000000000000000000000000000000000000000000000007fffffffff00000000000000000000000000000000000000000000000000000000831601611380575060006105e0565b7ffe003659000000000000000000000000000000000000000000000000000000007fffffffff000000000000000000000000000000000000000000000000000000008316016113d1575060016105e0565b507fffffffff00000000000000000000000000000000000000000000000000000000166000908152602091909152604090205460ff1690565b6000806105e060017f7ea68fd2dcf1c056b94db6a0a537aa80d26fa9ab1eacd85da1ba0b61b7e7a8a561425e565b606081600001805461144990614271565b80601f016020809104026020016040519081016040528092919081815260200182805461147590614271565b80156114c25780601f10611497576101008083540402835291602001916114c2565b820191906000526020600020905b8154815290600101906020018083116114a557829003601f168201915b50505050509050919050565b600061060c612bec565b6000806105e060017fc8827d3282af6f37b64c3e9e6f3ac9df286ab0bb0fccd6f8661bf19adb368b2361425e565b60008281526020848152604080832073ffffffffffffffffffffffffffffffffffffffff8516845290915290205460ff16610741576040517f7aa728820000000000000000000000000000000000000000000000000000000081526004810183905273ffffffffffffffffffffffffffffffffffffffff821660248201526044016107d0565b73ffffffffffffffffffffffffffffffffffffffff84166115d9576040517f021149bd00000000000000000000000000000000000000000000000000000000815260040160405180910390fd5b825182518114611615576040517f6582533600000000000000000000000000000000000000000000000000000000815260040160405180910390fd5b60005b818110156116665761165e88878784815181106116375761163761417e565b60200260200101518785815181106116515761165161417e565b6020026020010151612d33565b600101611618565b508473ffffffffffffffffffffffffffffffffffffffff16600073ffffffffffffffffffffffffffffffffffffffff168773ffffffffffffffffffffffffffffffffffffffff167f4a39dc06d4c0dbc64b70af90fd698a233a518aa5d07e595d983b8c0526c8f7fb87876040516116de9291906142c4565b60405180910390a473ffffffffffffffffffffffffffffffffffffffff85163b156117125761171286600087878787612e04565b50505050505050565b60028301546040517ff724dad700000000000000000000000000000000000000000000000000000000815273ffffffffffffffffffffffffffffffffffffffff848116600483015260248201849052606092169063f724dad790604401600060405180830381865afa158015611795573d6000803e3d6000fd5b505050506040513d6000823e601f3d9081017fffffffffffffffffffffffffffffffffffffffffffffffffffffffffffffffe01682016040526108c89190810190614321565b6117e6858486612f02565b61183c576040517f05bbb9c400000000000000000000000000000000000000000000000000000000815273ffffffffffffffffffffffffffffffffffffffff8086166004830152841660248201526044016107d0565b61184885848484612f77565b604080518381526020810183905260009173ffffffffffffffffffffffffffffffffffffffff86811692908816917fc3d58168c5ae7397731d063d5bbf3d657854427343f4c083240f7aacaa2d0f62910160405180910390a45050505050565b6000806105e060017f2c0cf10337caabbd02dcf226f05f5fd19a0919a41a8df8958c39b8000782685861425e565b825473ffffffffffffffffffffffffffffffffffffffff8116906000907401000000000000000000000000000000000000000090046bffffffffffffffffffffffff16831580611924575080155b156119325760009150611977565b620186a084101561195c57620186a061194b82866143e1565b61195591906143f8565b9150611977565b8061196a620186a0866143f8565b61197491906143e1565b91505b50935093915050565b73ffffffffffffffffffffffffffffffffffffffff87166119cd576040517fb5e8901500000000000000000000000000000000000000000000000000000000815260040160405180910390fd5b84838114611a07576040517f6582533600000000000000000000000000000000000000000000000000000000815260040160405180910390fd5b611a128b8a8c612f02565b611a68576040517f05bbb9c400000000000000000000000000000000000000000000000000000000815273ffffffffffffffffffffffffffffffffffffffff808c1660048301528a1660248201526044016107d0565b60005b81811015611ab857611ab08c8b8b8b8b86818110611a8b57611a8b61417e565b905060200201358a8a87818110611aa457611aa461417e565b90506020020135613014565b600101611a6b565b508773ffffffffffffffffffffffffffffffffffffffff168973ffffffffffffffffffffffffffffffffffffffff168b73ffffffffffffffffffffffffffffffffffffffff167f4a39dc06d4c0dbc64b70af90fd698a233a518aa5d07e595d983b8c0526c8f7fb8a8a8a8a604051611b33949392919061447e565b60405180910390a473ffffffffffffffffffffffffffffffffffffffff88163b15611bfc57611bfc8a8a8a8a8a8080602002602001604051908101604052809392919081815260200183836020028082843760009201919091525050604080516020808e0282810182019093528d82529093508d92508c91829185019084908082843760009201919091525050604080516020601f8d018190048102820181019092528b815292508b91508a9081908401838280828437600092019190915250612e0492505050565b5050505050505050505050565b6000806105e060017fc9ed16f33ab3a66c84bfd83099ccb2a8845871e2e1c1928f63797152f0fd54cd61425e565b815473ffffffffffffffffffffffffffffffffffffffff828116911614610d13576040517f2ef4875e00000000000000000000000000000000000000000000000000000000815273ffffffffffffffffffffffffffffffffffffffff821660048201526024016107d0565b60008381526020858152604080832073ffffffffffffffffffffffffffffffffffffffff8616845290915290205460ff16611d735760008381526020858152604080832073ffffffffffffffffffffffffffffffffffffffff8681168086529184529382902080547fffffffffffffffffffffffffffffffffffffffffffffffffffffffffffffff00166001179055815187815292830152918316918101919091527f2f8788117e7eff1d82e926ec794901d17c78024a50270940304540a733656f0d906060015b60405180910390a15b50505050565b3660006108a36131c1565b606083828114611dc0576040517f6582533600000000000000000000000000000000000000000000000000000000815260040160405180910390fd5b8467ffffffffffffffff811115611dd957611dd96142f2565b604051908082528060200260200182016040528015611e02578160200160208202803683370190505b50915060005b81811015611e8857611e63878783818110611e2557611e2561417e565b9050602002016020810190611e3a9190613df0565b868684818110611e4c57611e4c61417e565b905060200201358a61127e9092919063ffffffff16565b838281518110611e7557611e7561417e565b6020908102919091010152600101611e08565b505095945050505050565b73ffffffffffffffffffffffffffffffffffffffff8416611ee0576040517f021149bd00000000000000000000000000000000000000000000000000000000815260040160405180910390fd5b611eec86858585612d33565b604080518481526020810184905273ffffffffffffffffffffffffffffffffffffffff80871692600092918916917fc3d58168c5ae7397731d063d5bbf3d657854427343f4c083240f7aacaa2d0f62910160405180910390a473ffffffffffffffffffffffffffffffffffffffff84163b1561095a5761095a8560008686868661332b565b620186a0811115611fb1576040517fac040408000000000000000000000000000000000000000000000000000000008152600481018290526024016107d0565b81546bffffffffffffffffffffffff909116740100000000000000000000000000000000000000000273ffffffffffffffffffffffffffffffffffffffff909116179055565b61202c61202560017f5b388d90dc1312ba799f321972f13311234fa1163bcabec7cf66101c4876eb8461425e565b6001613449565b610d138282613495565b61206b7fd9b67a26000000000000000000000000000000000000000000000000000000006001612064611302565b919061354b565b565b61206b7f0e89341c000000000000000000000000000000000000000000000000000000006001612064611302565b61206b7f5190c92c000000000000000000000000000000000000000000000000000000006001612064611302565b61206b7fe8ab9ccc000000000000000000000000000000000000000000000000000000006001612064611302565b61206b7f921ed8d1000000000000000000000000000000000000000000000000000000006001612064611302565b61206b7f2a55205a000000000000000000000000000000000000000000000000000000006001612064611302565b61218161202560017f92f72593ca50a0096f68ee94e7000db40ed086164b695855e2250750b8bfaf5961425e565b8561218d8587836144ed565b506001860161219d8385836144ed565b5060029590950180547fffffffffffffffffffffffff00000000000000000000000000000000000000001673ffffffffffffffffffffffffffffffffffffffff9096169590951790945550505050565b6040805173ffffffffffffffffffffffffffffffffffffffff8416602482015260448082018490528251808303909101815260649091019091526020810180517bffffffffffffffffffffffffffffffffffffffffffffffffffffffff167fa9059cbb00000000000000000000000000000000000000000000000000000000179052610741908490613627565b828181146122b4576040517f6582533600000000000000000000000000000000000000000000000000000000815260040160405180910390fd5b6122bf888789612f02565b612315576040517f05bbb9c400000000000000000000000000000000000000000000000000000000815273ffffffffffffffffffffffffffffffffffffffff8089166004830152871660248201526044016107d0565b60005b818110156123645761235c89888888858181106123375761233761417e565b905060200201358787868181106123505761235061417e565b90506020020135612f77565b600101612318565b50600073ffffffffffffffffffffffffffffffffffffffff168673ffffffffffffffffffffffffffffffffffffffff168873ffffffffffffffffffffffffffffffffffffffff167f4a39dc06d4c0dbc64b70af90fd698a233a518aa5d07e595d983b8c0526c8f7fb888888886040516123e0949392919061447e565b60405180910390a45050505050505050565b6123fd838284611506565b60008181526020848152604080832073ffffffffffffffffffffffffffffffffffffffff86168085529083529281902080547fffffffffffffffffffffffffffffffffffffffffffffffffffffffffffffff0016905580518481529182018390528101919091527ff6391f5c32d9c69d2a47ea670b442974b53935d1edc7fd64eb21e047a839171b9060600160405180910390a1505050565b73ffffffffffffffffffffffffffffffffffffffff81166124e3576040517f16de0c8000000000000000000000000000000000000000000000000000000000815260040160405180910390fd5b81547fffffffffffffffffffffffff00000000000000000000000000000000000000001673ffffffffffffffffffffffffffffffffffffffff91909116179055565b606081600101805461144990614271565b8273ffffffffffffffffffffffffffffffffffffffff168273ffffffffffffffffffffffffffffffffffffffff16036125b3576040517ffb0fdf6100000000000000000000000000000000000000000000000000000000815273ffffffffffffffffffffffffffffffffffffffff841660048201526024016107d0565b73ffffffffffffffffffffffffffffffffffffffff838116600081815260018701602090815260408083209487168084529482529182902080547fffffffffffffffffffffffffffffffffffffffffffffffffffffffffffffff001686151590811790915591519182527f17307eab39ab6107e8899845ad3d59bd9653f200f220920489ca2b5937696c31910160405180910390a350505050565b60008381526020858152604080832073ffffffffffffffffffffffffffffffffffffffff8616845290915290205460ff1615611d735760008381526020858152604080832073ffffffffffffffffffffffffffffffffffffffff8681168086529184529382902080547fffffffffffffffffffffffffffffffffffffffffffffffffffffffffffffff00169055815187815292830152918316918101919091527ff6391f5c32d9c69d2a47ea670b442974b53935d1edc7fd64eb21e047a839171b90606001611d6a565b835183518114158061272b575082518114155b15612762576040517f6582533600000000000000000000000000000000000000000000000000000000815260040160405180910390fd5b60005b81811015610702576127d3878783815181106127835761278361417e565b602002602001015187848151811061279d5761279d61417e565b60200260200101518785815181106127b7576127b761417e565b6020026020010151878d611e939095949392919063ffffffff16565b600101612765565b73ffffffffffffffffffffffffffffffffffffffff8516612828576040517fb5e8901500000000000000000000000000000000000000000000000000000000815260040160405180910390fd5b612833888789612f02565b612889576040517f05bbb9c400000000000000000000000000000000000000000000000000000000815273ffffffffffffffffffffffffffffffffffffffff8089166004830152871660248201526044016107d0565b6128968887878787613014565b8473ffffffffffffffffffffffffffffffffffffffff168673ffffffffffffffffffffffffffffffffffffffff168873ffffffffffffffffffffffffffffffffffffffff167fc3d58168c5ae7397731d063d5bbf3d657854427343f4c083240f7aacaa2d0f628787604051612915929190918252602082015260400190565b60405180910390a473ffffffffffffffffffffffffffffffffffffffff85163b1561070257610702878787878787878080601f01602080910402602001604051908101604052809392919081815260200183838082843760009201919091525061332b92505050565b825473ffffffffffffffffffffffffffffffffffffffff90811690831681146129eb576040517f2ef4875e00000000000000000000000000000000000000000000000000000000815273ffffffffffffffffffffffffffffffffffffffff841660048201526024016107d0565b8173ffffffffffffffffffffffffffffffffffffffff168173ffffffffffffffffffffffffffffffffffffffff1614611d735783547fffffffffffffffffffffffff00000000000000000000000000000000000000001673ffffffffffffffffffffffffffffffffffffffff8381169182178655604051908316907f8be0079c531659141344cd1fd0a4f28419497f9722a3daafe3b4186f6b6457e090600090a350505050565b80471015612afc576040517f08c379a000000000000000000000000000000000000000000000000000000000815260206004820152601d60248201527f416464726573733a20696e73756666696369656e742062616c616e636500000060448201526064016107d0565b60008273ffffffffffffffffffffffffffffffffffffffff168260405160006040518083038185875af1925050503d8060008114612b56576040519150601f19603f3d011682016040523d82523d6000602084013e612b5b565b606091505b5050905080610741576040517f08c379a000000000000000000000000000000000000000000000000000000000815260206004820152603a60248201527f416464726573733a20756e61626c6520746f2073656e642076616c75652c207260448201527f6563697069656e74206d6179206861766520726576657274656400000000000060648201526084016107d0565b600033321480612bfc5750601836105b15612c0657503390565b7fffffffffffffffffffffffffffffffffffffffffffffffffffffffffffffffec36013560601c7f000000000000000000000000000000000000000000000000000000000000000073ffffffffffffffffffffffffffffffffffffffff16331480612d2257506040517f8929a8ca00000000000000000000000000000000000000000000000000000000815273ffffffffffffffffffffffffffffffffffffffff82811660048301523360248301527f00000000000000000000000000000000000000000000000000000000000000001690638929a8ca90604401602060405180830381865afa158015612cfe573d6000803e3d6000fd5b505050506040513d601f19601f82011682018060405250810190612d229190614212565b15612d2c57919050565b3391505090565b8015611d735760008281526020858152604080832073ffffffffffffffffffffffffffffffffffffffff87168452909152902054818101818111612dd0576040517f42fb00bc00000000000000000000000000000000000000000000000000000000815273ffffffffffffffffffffffffffffffffffffffff861660048201526024810185905260448101839052606481018490526084016107d0565b60009384526020958652604080852073ffffffffffffffffffffffffffffffffffffffff9690961685529490955250502055565b6040517fbc197c81000000000000000000000000000000000000000000000000000000008082529073ffffffffffffffffffffffffffffffffffffffff86169063bc197c8190612e60908a908a90899089908990600401614607565b6020604051808303816000875af1158015612e7f573d6000803e3d6000fd5b505050506040513d601f19601f82011682018060405250810190612ea39190614672565b7fffffffff00000000000000000000000000000000000000000000000000000000161461095a578383836040517fc287817e0000000000000000000000000000000000000000000000000000000081526004016107d09392919061468f565b60008173ffffffffffffffffffffffffffffffffffffffff168373ffffffffffffffffffffffffffffffffffffffff1614806108c857505073ffffffffffffffffffffffffffffffffffffffff9182166000908152600193909301602090815260408085209290931684525290205460ff1690565b8015611d735760008281526020858152604080832073ffffffffffffffffffffffffffffffffffffffff87168452909152902054818103818110612dd0576040517f03dee4c500000000000000000000000000000000000000000000000000000000815273ffffffffffffffffffffffffffffffffffffffff861660048201526024810185905260448101839052606481018490526084016107d0565b8015610abb5760008281526020868152604080832073ffffffffffffffffffffffffffffffffffffffff881684529091529020548181038181106130b1576040517f03dee4c500000000000000000000000000000000000000000000000000000000815273ffffffffffffffffffffffffffffffffffffffff871660048201526024810185905260448101839052606481018490526084016107d0565b8473ffffffffffffffffffffffffffffffffffffffff168673ffffffffffffffffffffffffffffffffffffffff16146117125760008481526020888152604080832073ffffffffffffffffffffffffffffffffffffffff8916845290915290205483810181811161317b576040517f42fb00bc00000000000000000000000000000000000000000000000000000000815273ffffffffffffffffffffffffffffffffffffffff881660048201526024810187905260448101839052606481018690526084016107d0565b600086815260208a8152604080832073ffffffffffffffffffffffffffffffffffffffff808d1685528184528285208890558b1684529091529020555050505050505050565b366000333214806131d25750601836105b156131e05750600091369150565b3373ffffffffffffffffffffffffffffffffffffffff7f0000000000000000000000000000000000000000000000000000000000000000161480613315575073ffffffffffffffffffffffffffffffffffffffff7f000000000000000000000000000000000000000000000000000000000000000016638929a8ca367fffffffffffffffffffffffffffffffffffffffffffffffffffffffffffffffec013560601c6040517fffffffff0000000000000000000000000000000000000000000000000000000060e084901b16815273ffffffffffffffffffffffffffffffffffffffff9091166004820152336024820152604401602060405180830381865afa1580156132f1573d6000803e3d6000fd5b505050506040513d601f19601f820116820180604052508101906133159190614212565b15613322576108a3613736565b50600091369150565b6040517ff23a6e61000000000000000000000000000000000000000000000000000000008082529073ffffffffffffffffffffffffffffffffffffffff86169063f23a6e6190613387908a908a908990899089906004016146da565b6020604051808303816000875af11580156133a6573d6000803e3d6000fd5b505050506040513d601f19601f820116820180604052508101906133ca9190614672565b7fffffffff00000000000000000000000000000000000000000000000000000000161461095a576040517f40f39d3800000000000000000000000000000000000000000000000000000000815273ffffffffffffffffffffffffffffffffffffffff8516600482015260248101849052604481018390526064016107d0565b81548290828110613490576040517fbf0c18ec00000000000000000000000000000000000000000000000000000000815260048101829052602481018490526044016107d0565b505550565b73ffffffffffffffffffffffffffffffffffffffff81161561351d5781547fffffffffffffffffffffffff00000000000000000000000000000000000000001673ffffffffffffffffffffffffffffffffffffffff821690811783556040516000907f8be0079c531659141344cd1fd0a4f28419497f9722a3daafe3b4186f6b6457e0908290a35b610d137f7f5828d0000000000000000000000000000000000000000000000000000000006001612064611302565b7c01000000000000000000000000000000000000000000000000000000007fffffffff000000000000000000000000000000000000000000000000000000008316016135c3576040517f72c683bb00000000000000000000000000000000000000000000000000000000815260040160405180910390fd5b7fffffffff00000000000000000000000000000000000000000000000000000000919091166000908152602092909252604090912080547fffffffffffffffffffffffffffffffffffffffffffffffffffffffffffffff0016911515919091179055565b6000613689826040518060400160405280602081526020017f5361666545524332303a206c6f772d6c6576656c2063616c6c206661696c65648152508573ffffffffffffffffffffffffffffffffffffffff166137679092919063ffffffff16565b90508051600014806136aa5750808060200190518101906136aa9190614212565b610741576040517f08c379a000000000000000000000000000000000000000000000000000000000815260206004820152602a60248201527f5361666545524332303a204552433230206f7065726174696f6e20646964206e60448201527f6f7420737563636565640000000000000000000000000000000000000000000060648201526084016107d0565b3660006108a37fffffffffffffffffffffffffffffffffffffffffffffffffffffffffffffffec830182848161471f565b60606108c88484600085856000808673ffffffffffffffffffffffffffffffffffffffff16858760405161379b9190614749565b60006040518083038185875af1925050503d80600081146137d8576040519150601f19603f3d011682016040523d82523d6000602084013e6137dd565b606091505b50915091506137ee878383876137f9565b979650505050505050565b6060831561388f5782516000036138885773ffffffffffffffffffffffffffffffffffffffff85163b613888576040517f08c379a000000000000000000000000000000000000000000000000000000000815260206004820152601d60248201527f416464726573733a2063616c6c20746f206e6f6e2d636f6e747261637400000060448201526064016107d0565b50816108c8565b6108c883838151156138a45781518083602001fd5b806040517f08c379a00000000000000000000000000000000000000000000000000000000081526004016107d091906139e6565b73ffffffffffffffffffffffffffffffffffffffff8116811461098757600080fd5b6000806040838503121561390d57600080fd5b8235613918816138d8565b946020939093013593505050565b7fffffffff000000000000000000000000000000000000000000000000000000008116811461098757600080fd5b60006020828403121561396657600080fd5b813561397181613926565b9392505050565b60005b8381101561399357818101518382015260200161397b565b50506000910152565b600081518084526139b4816020860160208601613978565b601f017fffffffffffffffffffffffffffffffffffffffffffffffffffffffffffffffe0169290920160200192915050565b6020815260006105dd602083018461399c565b60008083601f840112613a0b57600080fd5b50813567ffffffffffffffff811115613a2357600080fd5b6020830191508360208260051b850101111561083457600080fd5b60008083601f840112613a5057600080fd5b50813567ffffffffffffffff811115613a6857600080fd5b60208301915083602082850101111561083457600080fd5b60008060008060008060006080888a031215613a9b57600080fd5b8735613aa6816138d8565b9650602088013567ffffffffffffffff80821115613ac357600080fd5b613acf8b838c016139f9565b909850965060408a0135915080821115613ae857600080fd5b613af48b838c016139f9565b909650945060608a0135915080821115613b0d57600080fd5b50613b1a8a828b01613a3e565b989b979a50959850939692959293505050565b600060208284031215613b3f57600080fd5b5035919050565b600080600060608486031215613b5b57600080fd5b8335613b66816138d8565b95602085013595506040909401359392505050565b600080600060408486031215613b9057600080fd5b83359250602084013567ffffffffffffffff811115613bae57600080fd5b613bba86828701613a3e565b9497909650939450505050565b60008060408385031215613bda57600080fd5b50508035926020909101359150565b60008060008060008060008060a0898b031215613c0557600080fd5b8835613c10816138d8565b97506020890135613c20816138d8565b9650604089013567ffffffffffffffff80821115613c3d57600080fd5b613c498c838d016139f9565b909850965060608b0135915080821115613c6257600080fd5b613c6e8c838d016139f9565b909650945060808b0135915080821115613c8757600080fd5b50613c948b828c01613a3e565b999c989b5096995094979396929594505050565b60008060408385031215613cbb57600080fd5b823591506020830135613ccd816138d8565b809150509250929050565b8183528181602085013750600060208284010152600060207fffffffffffffffffffffffffffffffffffffffffffffffffffffffffffffffe0601f840116840101905092915050565b6020815260006108c8602083018486613cd8565b60008060008060408587031215613d4b57600080fd5b843567ffffffffffffffff80821115613d6357600080fd5b613d6f888389016139f9565b90965094506020870135915080821115613d8857600080fd5b50613d95878288016139f9565b95989497509550505050565b60008151808452602080850194506020840160005b83811015613dd257815187529582019590820190600101613db6565b509495945050505050565b6020815260006105dd6020830184613da1565b600060208284031215613e0257600080fd5b8135613971816138d8565b600080600080600060808688031215613e2557600080fd5b8535613e30816138d8565b94506020860135935060408601359250606086013567ffffffffffffffff811115613e5a57600080fd5b613e6688828901613a3e565b969995985093965092949392505050565b600080600080600060608688031215613e8f57600080fd5b853567ffffffffffffffff80821115613ea757600080fd5b613eb389838a01613a3e565b90975095506020880135915080821115613ecc57600080fd5b50613ed988828901613a3e565b9094509250506040860135613eed816138d8565b809150509295509295909350565b60008060008060008060608789031215613f1457600080fd5b863567ffffffffffffffff80821115613f2c57600080fd5b613f388a838b016139f9565b90985096506020890135915080821115613f5157600080fd5b613f5d8a838b016139f9565b90965094506040890135915080821115613f7657600080fd5b50613f8389828a016139f9565b979a9699509497509295939492505050565b600080600080600060608688031215613fad57600080fd5b8535613fb8816138d8565b9450602086013567ffffffffffffffff80821115613fd557600080fd5b613fe189838a016139f9565b90965094506040880135915080821115613ffa57600080fd5b50613e66888289016139f9565b801515811461098757600080fd5b6000806040838503121561402857600080fd5b8235614033816138d8565b91506020830135613ccd81614007565b6000806000806000806000806080898b03121561405f57600080fd5b883567ffffffffffffffff8082111561407757600080fd5b6140838c838d016139f9565b909a50985060208b013591508082111561409c57600080fd5b6140a88c838d016139f9565b909850965060408b01359150808211156140c157600080fd5b6140cd8c838d016139f9565b909650945060608b0135915080821115613c8757600080fd5b600080604083850312156140f957600080fd5b8235614104816138d8565b91506020830135613ccd816138d8565b60008060008060008060a0878903121561412d57600080fd5b8635614138816138d8565b95506020870135614148816138d8565b94506040870135935060608701359250608087013567ffffffffffffffff81111561417257600080fd5b613f8389828a01613a3e565b7f4e487b7100000000000000000000000000000000000000000000000000000000600052603260045260246000fd5b60008083357fffffffffffffffffffffffffffffffffffffffffffffffffffffffffffffffe18436030181126141e257600080fd5b83018035915067ffffffffffffffff8211156141fd57600080fd5b60200191503681900382131561083457600080fd5b60006020828403121561422457600080fd5b815161397181614007565b7f4e487b7100000000000000000000000000000000000000000000000000000000600052601160045260246000fd5b818103818111156105e0576105e061422f565b600181811c9082168061428557607f821691505b6020821081036142be577f4e487b7100000000000000000000000000000000000000000000000000000000600052602260045260246000fd5b50919050565b6040815260006142d76040830185613da1565b82810360208401526142e98185613da1565b95945050505050565b7f4e487b7100000000000000000000000000000000000000000000000000000000600052604160045260246000fd5b60006020828403121561433357600080fd5b815167ffffffffffffffff8082111561434b57600080fd5b818401915084601f83011261435f57600080fd5b815181811115614371576143716142f2565b604051601f82017fffffffffffffffffffffffffffffffffffffffffffffffffffffffffffffffe0908116603f011681019083821181831017156143b7576143b76142f2565b816040528281528760208487010111156143d057600080fd5b6137ee836020830160208801613978565b80820281158282048414176105e0576105e061422f565b60008261442e577f4e487b7100000000000000000000000000000000000000000000000000000000600052601260045260246000fd5b500490565b81835260007f07ffffffffffffffffffffffffffffffffffffffffffffffffffffffffffffff83111561446557600080fd5b8260051b80836020870137939093016020019392505050565b604081526000614492604083018688614433565b82810360208401526137ee818587614433565b601f821115610741576000816000526020600020601f850160051c810160208610156144ce5750805b601f850160051c820191505b8181101561095a578281556001016144da565b67ffffffffffffffff831115614505576145056142f2565b614519836145138354614271565b836144a5565b6000601f84116001811461456b57600085156145355750838201355b7fffffffffffffffffffffffffffffffffffffffffffffffffffffffffffffffff600387901b1c1916600186901b178355610abb565b6000838152602090207fffffffffffffffffffffffffffffffffffffffffffffffffffffffffffffffe0861690835b828110156145ba578685013582556020948501946001909201910161459a565b50868210156145f5577fffffffffffffffffffffffffffffffffffffffffffffffffffffffffffffffff60f88860031b161c19848701351681555b505060018560011b0183555050505050565b600073ffffffffffffffffffffffffffffffffffffffff808816835280871660208401525060a0604083015261464060a0830186613da1565b82810360608401526146528186613da1565b90508281036080840152614666818561399c565b98975050505050505050565b60006020828403121561468457600080fd5b815161397181613926565b73ffffffffffffffffffffffffffffffffffffffff841681526060602082015260006146be6060830185613da1565b82810360408401526146d08185613da1565b9695505050505050565b600073ffffffffffffffffffffffffffffffffffffffff808816835280871660208401525084604083015283606083015260a060808301526137ee60a083018461399c565b6000808585111561472f57600080fd5b8386111561473c57600080fd5b5050820193919092039150565b6000825161475b818460208701613978565b919091019291505056fea2646970667358221220517d0085070ec3edbe7df0ff6a51f44c640c5ec6c52bdb98fbfd79031f26dfca64736f6c63430008180033",
  "linkReferences": {},
  "deployedLinkReferences": {}
}