{
  "_format": "hh-sol-artifact-1",
  "contractName": "ERC1155FullBurnProxiedMock",
  "sourceName": "contracts/mocks/token/ERC1155/preset/proxied/ERC1155FullBurnProxiedMock.sol",
  "abi": [
    {
      "inputs": [
        {
          "internalType": "contract IForwarderRegistry",
          "name": "forwarderRegistry",
          "type": "address"
        }
      ],
      "stateMutability": "nonpayable",
      "type": "constructor"
    },
    {
      "inputs": [],
      "name": "ERC1155BalanceOfAddressZero",
      "type": "error"
    },
    {
      "inputs": [
        {
          "internalType": "address",
          "name": "recipient",
          "type": "address"
        },
        {
          "internalType": "uint256",
          "name": "id",
          "type": "uint256"
        },
        {
          "internalType": "uint256",
          "name": "balance",
          "type": "uint256"
        },
        {
          "internalType": "uint256",
          "name": "value",
          "type": "uint256"
        }
      ],
      "name": "ERC1155BalanceOverflow",
      "type": "error"
    },
    {
      "inputs": [
        {
          "internalType": "address",
          "name": "owner",
          "type": "address"
        },
        {
          "internalType": "uint256",
          "name": "id",
          "type": "uint256"
        },
        {
          "internalType": "uint256",
          "name": "balance",
          "type": "uint256"
        },
        {
          "internalType": "uint256",
          "name": "value",
          "type": "uint256"
        }
      ],
      "name": "ERC1155InsufficientBalance",
      "type": "error"
    },
    {
      "inputs": [],
      "name": "ERC1155MintToAddressZero",
      "type": "error"
    },
    {
      "inputs": [
        {
          "internalType": "address",
          "name": "sender",
          "type": "address"
        },
        {
          "internalType": "address",
          "name": "owner",
          "type": "address"
        }
      ],
      "name": "ERC1155NonApproved",
      "type": "error"
    },
    {
      "inputs": [
        {
          "internalType": "address",
          "name": "recipient",
          "type": "address"
        },
        {
          "internalType": "uint256[]",
          "name": "ids",
          "type": "uint256[]"
        },
        {
          "internalType": "uint256[]",
          "name": "values",
          "type": "uint256[]"
        }
      ],
      "name": "ERC1155SafeBatchTransferRejected",
      "type": "error"
    },
    {
      "inputs": [
        {
          "internalType": "address",
          "name": "recipient",
          "type": "address"
        },
        {
          "internalType": "uint256",
          "name": "id",
          "type": "uint256"
        },
        {
          "internalType": "uint256",
          "name": "value",
          "type": "uint256"
        }
      ],
      "name": "ERC1155SafeTransferRejected",
      "type": "error"
    },
    {
      "inputs": [
        {
          "internalType": "address",
          "name": "account",
          "type": "address"
        }
      ],
      "name": "ERC1155SelfApprovalForAll",
      "type": "error"
    },
    {
      "inputs": [],
      "name": "ERC1155TransferToAddressZero",
      "type": "error"
    },
    {
      "inputs": [
        {
          "internalType": "uint256",
          "name": "percentage",
          "type": "uint256"
        }
      ],
      "name": "ERC2981IncorrectRoyaltyPercentage",
      "type": "error"
    },
    {
      "inputs": [],
      "name": "ERC2981IncorrectRoyaltyReceiver",
      "type": "error"
    },
    {
      "inputs": [],
      "name": "IllegalInterfaceId",
      "type": "error"
    },
    {
      "inputs": [],
      "name": "InconsistentArrayLengths",
      "type": "error"
    },
    {
      "inputs": [
        {
          "internalType": "uint256",
          "name": "currentPhase",
          "type": "uint256"
        },
        {
          "internalType": "uint256",
          "name": "newPhase",
          "type": "uint256"
        }
      ],
      "name": "InitializationPhaseAlreadyReached",
      "type": "error"
    },
    {
      "inputs": [
        {
          "internalType": "address",
          "name": "account",
          "type": "address"
        }
      ],
      "name": "NotContractOwner",
      "type": "error"
    },
    {
      "inputs": [
        {
          "internalType": "bytes32",
          "name": "role",
          "type": "bytes32"
        },
        {
          "internalType": "address",
          "name": "account",
          "type": "address"
        }
      ],
      "name": "NotRoleHolder",
      "type": "error"
    },
    {
      "inputs": [
        {
          "internalType": "address",
          "name": "operator",
          "type": "address"
        }
      ],
      "name": "OperatorNotAllowed",
      "type": "error"
    },
    {
      "anonymous": false,
      "inputs": [
        {
          "indexed": true,
          "internalType": "address",
          "name": "owner",
          "type": "address"
        },
        {
          "indexed": true,
          "internalType": "address",
          "name": "operator",
          "type": "address"
        },
        {
          "indexed": false,
          "internalType": "bool",
          "name": "approved",
          "type": "bool"
        }
      ],
      "name": "ApprovalForAll",
      "type": "event"
    },
    {
      "anonymous": false,
      "inputs": [
        {
          "indexed": true,
          "internalType": "address",
          "name": "previousOwner",
          "type": "address"
        },
        {
          "indexed": true,
          "internalType": "address",
          "name": "newOwner",
          "type": "address"
        }
      ],
      "name": "OwnershipTransferred",
      "type": "event"
    },
    {
      "anonymous": false,
      "inputs": [
        {
          "indexed": false,
          "internalType": "bytes32",
          "name": "role",
          "type": "bytes32"
        },
        {
          "indexed": false,
          "internalType": "address",
          "name": "account",
          "type": "address"
        },
        {
          "indexed": false,
          "internalType": "address",
          "name": "operator",
          "type": "address"
        }
      ],
      "name": "RoleGranted",
      "type": "event"
    },
    {
      "anonymous": false,
      "inputs": [
        {
          "indexed": false,
          "internalType": "bytes32",
          "name": "role",
          "type": "bytes32"
        },
        {
          "indexed": false,
          "internalType": "address",
          "name": "account",
          "type": "address"
        },
        {
          "indexed": false,
          "internalType": "address",
          "name": "operator",
          "type": "address"
        }
      ],
      "name": "RoleRevoked",
      "type": "event"
    },
    {
      "anonymous": false,
      "inputs": [
        {
          "indexed": true,
          "internalType": "address",
          "name": "operator",
          "type": "address"
        },
        {
          "indexed": true,
          "internalType": "address",
          "name": "from",
          "type": "address"
        },
        {
          "indexed": true,
          "internalType": "address",
          "name": "to",
          "type": "address"
        },
        {
          "indexed": false,
          "internalType": "uint256[]",
          "name": "ids",
          "type": "uint256[]"
        },
        {
          "indexed": false,
          "internalType": "uint256[]",
          "name": "values",
          "type": "uint256[]"
        }
      ],
      "name": "TransferBatch",
      "type": "event"
    },
    {
      "anonymous": false,
      "inputs": [
        {
          "indexed": true,
          "internalType": "address",
          "name": "operator",
          "type": "address"
        },
        {
          "indexed": true,
          "internalType": "address",
          "name": "from",
          "type": "address"
        },
        {
          "indexed": true,
          "internalType": "address",
          "name": "to",
          "type": "address"
        },
        {
          "indexed": false,
          "internalType": "uint256",
          "name": "id",
          "type": "uint256"
        },
        {
          "indexed": false,
          "internalType": "uint256",
          "name": "value",
          "type": "uint256"
        }
      ],
      "name": "TransferSingle",
      "type": "event"
    },
    {
      "anonymous": false,
      "inputs": [
        {
          "indexed": false,
          "internalType": "string",
          "name": "value",
          "type": "string"
        },
        {
          "indexed": true,
          "internalType": "uint256",
          "name": "id",
          "type": "uint256"
        }
      ],
      "name": "URI",
      "type": "event"
    },
    {
      "inputs": [],
      "name": "MINTER_ROLE",
      "outputs": [
        {
          "internalType": "bytes32",
          "name": "",
          "type": "bytes32"
        }
      ],
      "stateMutability": "view",
      "type": "function"
    },
    {
      "inputs": [],
      "name": "ROYALTY_FEE_DENOMINATOR",
      "outputs": [
        {
          "internalType": "uint256",
          "name": "",
          "type": "uint256"
        }
      ],
      "stateMutability": "view",
      "type": "function"
    },
    {
      "inputs": [],
      "name": "__msgData",
      "outputs": [
        {
          "internalType": "bytes",
          "name": "",
          "type": "bytes"
        }
      ],
      "stateMutability": "view",
      "type": "function"
    },
    {
      "inputs": [
        {
          "internalType": "address",
          "name": "owner",
          "type": "address"
        },
        {
          "internalType": "uint256",
          "name": "id",
          "type": "uint256"
        }
      ],
      "name": "balanceOf",
      "outputs": [
        {
          "internalType": "uint256",
          "name": "balance",
          "type": "uint256"
        }
      ],
      "stateMutability": "view",
      "type": "function"
    },
    {
      "inputs": [
        {
          "internalType": "address[]",
          "name": "owners",
          "type": "address[]"
        },
        {
          "internalType": "uint256[]",
          "name": "ids",
          "type": "uint256[]"
        }
      ],
      "name": "balanceOfBatch",
      "outputs": [
        {
          "internalType": "uint256[]",
          "name": "balances",
          "type": "uint256[]"
        }
      ],
      "stateMutability": "view",
      "type": "function"
    },
    {
      "inputs": [
        {
          "internalType": "address",
          "name": "from",
          "type": "address"
        },
        {
          "internalType": "uint256[]",
          "name": "ids",
          "type": "uint256[]"
        },
        {
          "internalType": "uint256[]",
          "name": "values",
          "type": "uint256[]"
        }
      ],
      "name": "batchBurnFrom",
      "outputs": [],
      "stateMutability": "nonpayable",
      "type": "function"
    },
    {
      "inputs": [
        {
          "internalType": "address",
          "name": "from",
          "type": "address"
        },
        {
          "internalType": "uint256",
          "name": "id",
          "type": "uint256"
        },
        {
          "internalType": "uint256",
          "name": "value",
          "type": "uint256"
        }
      ],
      "name": "burnFrom",
      "outputs": [],
      "stateMutability": "nonpayable",
      "type": "function"
    },
    {
      "inputs": [],
      "name": "forwarderRegistry",
      "outputs": [
        {
          "internalType": "contract IForwarderRegistry",
          "name": "",
          "type": "address"
        }
      ],
      "stateMutability": "view",
      "type": "function"
    },
    {
      "inputs": [
        {
          "internalType": "bytes32",
          "name": "role",
          "type": "bytes32"
        },
        {
          "internalType": "address",
          "name": "account",
          "type": "address"
        }
      ],
      "name": "grantRole",
      "outputs": [],
      "stateMutability": "nonpayable",
      "type": "function"
    },
    {
      "inputs": [
        {
          "internalType": "bytes32",
          "name": "role",
          "type": "bytes32"
        },
        {
          "internalType": "address",
          "name": "account",
          "type": "address"
        }
      ],
      "name": "hasRole",
      "outputs": [
        {
          "internalType": "bool",
          "name": "hasRole_",
          "type": "bool"
        }
      ],
      "stateMutability": "view",
      "type": "function"
    },
    {
      "inputs": [
        {
          "internalType": "string",
          "name": "tokenName",
          "type": "string"
        },
        {
          "internalType": "string",
          "name": "tokenSymbol",
          "type": "string"
        },
        {
          "internalType": "contract ITokenMetadataResolver",
          "name": "metadataResolver",
          "type": "address"
        },
        {
          "internalType": "contract IOperatorFilterRegistry",
          "name": "filterRegistry",
          "type": "address"
        }
      ],
      "name": "init",
      "outputs": [],
      "stateMutability": "nonpayable",
      "type": "function"
    },
    {
      "inputs": [
        {
          "internalType": "address",
          "name": "owner",
          "type": "address"
        },
        {
          "internalType": "address",
          "name": "operator",
          "type": "address"
        }
      ],
      "name": "isApprovedForAll",
      "outputs": [
        {
          "internalType": "bool",
          "name": "approvedForAll",
          "type": "bool"
        }
      ],
      "stateMutability": "view",
      "type": "function"
    },
    {
      "inputs": [
        {
          "internalType": "address",
          "name": "forwarder",
          "type": "address"
        }
      ],
      "name": "isTrustedForwarder",
      "outputs": [
        {
          "internalType": "bool",
          "name": "",
          "type": "bool"
        }
      ],
      "stateMutability": "view",
      "type": "function"
    },
    {
      "inputs": [],
      "name": "metadataResolver",
      "outputs": [
        {
          "internalType": "contract ITokenMetadataResolver",
          "name": "tokenMetadataResolver",
          "type": "address"
        }
      ],
      "stateMutability": "view",
      "type": "function"
    },
    {
      "inputs": [],
      "name": "name",
      "outputs": [
        {
          "internalType": "string",
          "name": "tokenName",
          "type": "string"
        }
      ],
      "stateMutability": "view",
      "type": "function"
    },
    {
      "inputs": [],
      "name": "operatorFilterRegistry",
      "outputs": [
        {
          "internalType": "contract IOperatorFilterRegistry",
          "name": "",
          "type": "address"
        }
      ],
      "stateMutability": "view",
      "type": "function"
    },
    {
      "inputs": [],
      "name": "owner",
      "outputs": [
        {
          "internalType": "address",
          "name": "",
          "type": "address"
        }
      ],
      "stateMutability": "view",
      "type": "function"
    },
    {
      "inputs": [
        {
          "internalType": "address[]",
          "name": "accounts",
          "type": "address[]"
        },
        {
          "internalType": "contract IERC20[]",
          "name": "tokens",
          "type": "address[]"
        },
        {
          "internalType": "uint256[]",
          "name": "amounts",
          "type": "uint256[]"
        }
      ],
      "name": "recoverERC20s",
      "outputs": [],
      "stateMutability": "nonpayable",
      "type": "function"
    },
    {
      "inputs": [
        {
          "internalType": "address[]",
          "name": "accounts",
          "type": "address[]"
        },
        {
          "internalType": "contract IERC721[]",
          "name": "contracts",
          "type": "address[]"
        },
        {
          "internalType": "uint256[]",
          "name": "tokenIds",
          "type": "uint256[]"
        }
      ],
      "name": "recoverERC721s",
      "outputs": [],
      "stateMutability": "nonpayable",
      "type": "function"
    },
    {
      "inputs": [
        {
          "internalType": "address payable[]",
          "name": "accounts",
          "type": "address[]"
        },
        {
          "internalType": "uint256[]",
          "name": "amounts",
          "type": "uint256[]"
        }
      ],
      "name": "recoverETH",
      "outputs": [],
      "stateMutability": "nonpayable",
      "type": "function"
    },
    {
      "inputs": [
        {
          "internalType": "bytes32",
          "name": "role",
          "type": "bytes32"
        }
      ],
      "name": "renounceRole",
      "outputs": [],
      "stateMutability": "nonpayable",
      "type": "function"
    },
    {
      "inputs": [
        {
          "internalType": "bytes32",
          "name": "role",
          "type": "bytes32"
        },
        {
          "internalType": "address",
          "name": "account",
          "type": "address"
        }
      ],
      "name": "revokeRole",
      "outputs": [],
      "stateMutability": "nonpayable",
      "type": "function"
    },
    {
      "inputs": [
        {
          "internalType": "uint256",
          "name": "tokenId",
          "type": "uint256"
        },
        {
          "internalType": "uint256",
          "name": "salePrice",
          "type": "uint256"
        }
      ],
      "name": "royaltyInfo",
      "outputs": [
        {
          "internalType": "address",
          "name": "receiver",
          "type": "address"
        },
        {
          "internalType": "uint256",
          "name": "royaltyAmount",
          "type": "uint256"
        }
      ],
      "stateMutability": "view",
      "type": "function"
    },
    {
      "inputs": [
        {
          "internalType": "address",
          "name": "to",
          "type": "address"
        },
        {
          "internalType": "uint256[]",
          "name": "ids",
          "type": "uint256[]"
        },
        {
          "internalType": "uint256[]",
          "name": "values",
          "type": "uint256[]"
        },
        {
          "internalType": "bytes",
          "name": "data",
          "type": "bytes"
        }
      ],
      "name": "safeBatchMint",
      "outputs": [],
      "stateMutability": "nonpayable",
      "type": "function"
    },
    {
      "inputs": [
        {
          "internalType": "address",
          "name": "from",
          "type": "address"
        },
        {
          "internalType": "address",
          "name": "to",
          "type": "address"
        },
        {
          "internalType": "uint256[]",
          "name": "ids",
          "type": "uint256[]"
        },
        {
          "internalType": "uint256[]",
          "name": "values",
          "type": "uint256[]"
        },
        {
          "internalType": "bytes",
          "name": "data",
          "type": "bytes"
        }
      ],
      "name": "safeBatchTransferFrom",
      "outputs": [],
      "stateMutability": "nonpayable",
      "type": "function"
    },
    {
      "inputs": [
        {
          "internalType": "address[]",
          "name": "recipients",
          "type": "address[]"
        },
        {
          "internalType": "uint256[]",
          "name": "ids",
          "type": "uint256[]"
        },
        {
          "internalType": "uint256[]",
          "name": "values",
          "type": "uint256[]"
        },
        {
          "internalType": "bytes",
          "name": "data",
          "type": "bytes"
        }
      ],
      "name": "safeDeliver",
      "outputs": [],
      "stateMutability": "nonpayable",
      "type": "function"
    },
    {
      "inputs": [
        {
          "internalType": "address",
          "name": "to",
          "type": "address"
        },
        {
          "internalType": "uint256",
          "name": "id",
          "type": "uint256"
        },
        {
          "internalType": "uint256",
          "name": "value",
          "type": "uint256"
        },
        {
          "internalType": "bytes",
          "name": "data",
          "type": "bytes"
        }
      ],
      "name": "safeMint",
      "outputs": [],
      "stateMutability": "nonpayable",
      "type": "function"
    },
    {
      "inputs": [
        {
          "internalType": "address",
          "name": "from",
          "type": "address"
        },
        {
          "internalType": "address",
          "name": "to",
          "type": "address"
        },
        {
          "internalType": "uint256",
          "name": "id",
          "type": "uint256"
        },
        {
          "internalType": "uint256",
          "name": "value",
          "type": "uint256"
        },
        {
          "internalType": "bytes",
          "name": "data",
          "type": "bytes"
        }
      ],
      "name": "safeTransferFrom",
      "outputs": [],
      "stateMutability": "nonpayable",
      "type": "function"
    },
    {
      "inputs": [
        {
          "internalType": "address",
          "name": "operator",
          "type": "address"
        },
        {
          "internalType": "bool",
          "name": "approved",
          "type": "bool"
        }
      ],
      "name": "setApprovalForAll",
      "outputs": [],
      "stateMutability": "nonpayable",
      "type": "function"
    },
    {
      "inputs": [
        {
          "internalType": "uint256",
          "name": "percentage",
          "type": "uint256"
        }
      ],
      "name": "setRoyaltyPercentage",
      "outputs": [],
      "stateMutability": "nonpayable",
      "type": "function"
    },
    {
      "inputs": [
        {
          "internalType": "address",
          "name": "receiver",
          "type": "address"
        }
      ],
      "name": "setRoyaltyReceiver",
      "outputs": [],
      "stateMutability": "nonpayable",
      "type": "function"
    },
    {
      "inputs": [
        {
          "internalType": "bytes4",
          "name": "interfaceId",
          "type": "bytes4"
        }
      ],
      "name": "supportsInterface",
      "outputs": [
        {
          "internalType": "bool",
          "name": "",
          "type": "bool"
        }
      ],
      "stateMutability": "view",
      "type": "function"
    },
    {
      "inputs": [],
      "name": "symbol",
      "outputs": [
        {
          "internalType": "string",
          "name": "tokenSymbol",
          "type": "string"
        }
      ],
      "stateMutability": "view",
      "type": "function"
    },
    {
      "inputs": [
        {
          "internalType": "address",
          "name": "newOwner",
          "type": "address"
        }
      ],
      "name": "transferOwnership",
      "outputs": [],
      "stateMutability": "nonpayable",
      "type": "function"
    },
    {
      "inputs": [
        {
          "internalType": "contract IOperatorFilterRegistry",
          "name": "registry",
          "type": "address"
        }
      ],
      "name": "updateOperatorFilterRegistry",
      "outputs": [],
      "stateMutability": "nonpayable",
      "type": "function"
    },
    {
      "inputs": [
        {
          "internalType": "uint256",
          "name": "tokenId",
          "type": "uint256"
        }
      ],
      "name": "uri",
      "outputs": [
        {
          "internalType": "string",
          "name": "metadataURI",
          "type": "string"
        }
      ],
      "stateMutability": "view",
      "type": "function"
    }
  ],
  "bytecode": "0x60a06040523480156200001157600080fd5b506040516200470838038062004708833981016040819052620000349162000046565b6001600160a01b031660805262000078565b6000602082840312156200005957600080fd5b81516001600160a01b03811681146200007157600080fd5b9392505050565b608051614651620000b7600039600081816103600152818161041101528181612a7101528181612af90152818161333f015261337d01526146516000f3fe608060405234801561001057600080fd5b506004361061025b5760003560e01c80638053493411610145578063c3666c36116100bd578063e8ab9ccc1161008c578063f242432a11610071578063f242432a14610583578063f2fde38b14610596578063f7ba94bd146105a957600080fd5b8063e8ab9ccc1461055d578063e985e9c51461057057600080fd5b8063c3666c3614610506578063d539139314610519578063d547741f14610540578063e1a8bf2c1461055357600080fd5b806391d1485411610114578063a0c76f62116100f9578063a0c76f62146104e3578063a22cb465146104eb578063b0ccc31e146104fe57600080fd5b806391d14854146104c857806395d89b41146104db57600080fd5b806380534934146104875780638bb9c5bf1461049a5780638da5cb5b146104ad5780638dc251e3146104b557600080fd5b80632b4c9f16116101d85780634e1273f4116101a75780635cfa92971161018c5780635cfa92971461044e57806361ba27da1461046157806373c8a9581461047457600080fd5b80634e1273f4146103e1578063572b6c051461040157600080fd5b80632b4c9f161461035e5780632eb2c2d6146103a55780632f2ff15d146103b857806331e66e1e146103cb57600080fd5b80630e07f8541161022f578063114ba8ee11610214578063114ba8ee146102f9578063124d91e51461030c5780632a55205a1461031f57600080fd5b80630e07f854146102d35780630e89341c146102e657600080fd5b8062fdd58e1461026057806301ffc9a71461028657806306fdde03146102a95780630d6a5bbb146102be575b600080fd5b61027361026e366004613863565b6105bc565b6040519081526020015b60405180910390f35b6102996102943660046138bd565b6105db565b604051901515815260200161027d565b6102b16105ef565b60405161027d919061394f565b6102d16102cc3660046139e9565b610606565b005b6102d16102e1366004613a96565b610701565b6102b16102f4366004613b2b565b61077e565b6102d1610307366004613b44565b610794565b6102d161031a366004613b61565b6107ff565b61033261032d366004613b96565b610823565b6040805173ffffffffffffffffffffffffffffffffffffffff909316835260208301919091520161027d565b7f00000000000000000000000000000000000000000000000000000000000000005b60405173ffffffffffffffffffffffffffffffffffffffff909116815260200161027d565b6102d16103b3366004613bb8565b610846565b6102d16103c6366004613c77565b610893565b6103d36108c1565b60405161027d929190613ca7565b6103f46103ef366004613cf4565b6108d4565b60405161027d9190613d9b565b61029961040f366004613b44565b7f000000000000000000000000000000000000000000000000000000000000000073ffffffffffffffffffffffffffffffffffffffff90811691161490565b6102d161045c366004613dae565b6108f9565b6102d161046f366004613b2b565b610983565b6102d1610482366004613e18565b6109a0565b6102d1610495366004613eb2565b610a8b565b6102d16104a8366004613b2b565b610ab5565b610380610ad0565b6102d16104c3366004613b44565b610af7565b6102996104d6366004613c77565b610b14565b6102b1610b58565b610380610b6a565b6102d16104f9366004613f32565b610b94565b610380610bcd565b6102d1610514366004613e18565b610bda565b6102737f6d696e746572000000000000000000000000000000000000000000000000000081565b6102d161054e366004613c77565b610d51565b610273620186a081565b6102d161056b366004613f60565b610d7f565b61029961057e366004614003565b610e99565b6102d1610591366004614031565b610ee7565b6102d16105a4366004613b44565b610f27565b6102d16105b7366004613cf4565b610f42565b60006105d283836105cb610ff8565b9190611026565b90505b92915050565b60006105d5826105e96110aa565b906110d8565b60606106016105fc6111b2565b6111e0565b905090565b6000610610611276565b90506106467f6d696e74657200000000000000000000000000000000000000000000000000008261063f611280565b91906112ae565b6106f7818989898080602002602001604051908101604052809392919081815260200183836020028082843760009201919091525050604080516020808d0282810182019093528c82529093508c92508b91829185019084908082843760009201919091525050604080516020601f8c018190048102820181019092528a815292508a91508990819084018382808284376000920191909152506106ed9250610ff8915050565b9493929190611339565b5050505050505050565b61071a61070c611276565b6107146114be565b906114ec565b61072261152b565b61072a611562565b610732611590565b61073a6115be565b6107426115ec565b61074a61161a565b610764868686868661075a6111b2565b9493929190611648565b610776816107706116e2565b90611710565b505050505050565b60606105d5308361078d6111b2565b9190611780565b6107ad61079f611276565b6107a76114be565b90611840565b6107fc816107b96116e2565b9081547fffffffffffffffffffffffff00000000000000000000000000000000000000001673ffffffffffffffffffffffffffffffffffffffff91909116179055565b50565b61081e61080a611276565b848484610815610ff8565b939291906118ab565b505050565b60008061083a8484610833611978565b91906119a6565b915091505b9250929050565b6000610850611276565b9050610866818a61085f6116e2565b9190611a50565b610888818a8a8a8a8a8a8a8a61087a610ff8565b989796959493929190611a8d565b505050505050505050565b600061089d611276565b90506108ab816107a76114be565b61081e8383836108b9611280565b929190611d15565b3660006108cc611dec565b915091509091565b60606108ee858585856108e5610ff8565b93929190611df7565b90505b949350505050565b6000610903611276565b90506109327f6d696e74657200000000000000000000000000000000000000000000000000008261063f611280565b6107768187878787878080601f0160208091040260200160405190810160405280939291908181526020018383808284376000920191909152506109799250610ff8915050565b9493929190611f05565b61098e61079f611276565b6107fc8161099a611978565b90611fe3565b6109ab61079f611276565b8483811415806109bb5750808214155b156109f2576040517f6582533600000000000000000000000000000000000000000000000000000000815260040160405180910390fd5b60005b8181146106f757610a83888883818110610a1157610a1161409b565b9050602002016020810190610a269190613b44565b858584818110610a3857610a3861409b565b90506020020135888885818110610a5157610a5161409b565b9050602002016020810190610a669190613b44565b73ffffffffffffffffffffffffffffffffffffffff169190612069565b6001016109f5565b610aae610a96611276565b8686868686610aa3610ff8565b9594939291906120f6565b5050505050565b6107fc610ac0611276565b82610ac9611280565b919061226d565b6000610601610add6114be565b5473ffffffffffffffffffffffffffffffffffffffff1690565b610b0261079f611276565b6107fc81610b0e611978565b90612311565b60006105d28383610b23611280565b60009283526020908152604080842073ffffffffffffffffffffffffffffffffffffffff909316845291905290205460ff1690565b6060610601610b656111b2565b61235e565b6000610601610b776111b2565b6002015473ffffffffffffffffffffffffffffffffffffffff1690565b8015610bac57610bac82610ba66116e2565b9061236f565b610bc9610bb7611276565b8383610bc1610ff8565b929190612379565b5050565b6000610601610add6116e2565b610be561079f611276565b848381141580610bf55750808214155b15610c2c576040517f6582533600000000000000000000000000000000000000000000000000000000815260040160405180910390fd5b60005b8181146106f757858582818110610c4857610c4861409b565b9050602002016020810190610c5d9190613b44565b73ffffffffffffffffffffffffffffffffffffffff166323b872dd308a8a85818110610c8b57610c8b61409b565b9050602002016020810190610ca09190613b44565b878786818110610cb257610cb261409b565b6040517fffffffff0000000000000000000000000000000000000000000000000000000060e088901b16815273ffffffffffffffffffffffffffffffffffffffff958616600482015294909316602485015250602090910201356044820152606401600060405180830381600087803b158015610d2e57600080fd5b505af1158015610d42573d6000803e3d6000fd5b50505050806001019050610c2f565b6000610d5b611276565b9050610d69816107a76114be565b61081e838383610d77611280565b929190612491565b6000610d89611276565b9050610db87f6d696e74657200000000000000000000000000000000000000000000000000008261063f611280565b610888818a8a8080602002602001604051908101604052809392919081815260200183836020028082843760009201919091525050604080516020808e0282810182019093528d82529093508d92508c91829185019084908082843760009201919091525050604080516020808d0282810182019093528c82529093508c92508b91829185019084908082843760009201919091525050604080516020601f8c018190048102820181019092528a815292508a9150899081908401838280828437600092019190915250610e8f9250610ff8915050565b949392919061255b565b60006105d28383610ea8610ff8565b919073ffffffffffffffffffffffffffffffffffffffff9182166000908152600193909301602090815260408085209290931684525290205460ff1690565b6000610ef1611276565b9050610f00818861085f6116e2565b610f1e81888888888888610f12610ff8565b9695949392919061261d565b50505050505050565b6107fc610f32611276565b82610f3b6114be565b91906127c0565b610f4d61079f611276565b82818114610f87576040517f6582533600000000000000000000000000000000000000000000000000000000815260040160405180910390fd5b60005b81811461077657610ff0848483818110610fa657610fa661409b565b90506020020135878784818110610fbf57610fbf61409b565b9050602002016020810190610fd49190613b44565b73ffffffffffffffffffffffffffffffffffffffff16906128d4565b600101610f8a565b6000806105d560017f5ccf5846fa27a68fafc8e588671a68f5e67c2f9b56af4263806a4d71735e86136140f9565b600073ffffffffffffffffffffffffffffffffffffffff8316611075576040517fca2434a500000000000000000000000000000000000000000000000000000000815260040160405180910390fd5b5060009081526020928352604080822073ffffffffffffffffffffffffffffffffffffffff9390931682529190925290205490565b6000806105d560017fca9d3e17f264b0f3984e2634e94adb37fa3e6a8103f06aeae6fa59e21c769f5e6140f9565b60007c01000000000000000000000000000000000000000000000000000000007fffffffff00000000000000000000000000000000000000000000000000000000831601611128575060006105d5565b7ffe003659000000000000000000000000000000000000000000000000000000007fffffffff00000000000000000000000000000000000000000000000000000000831601611179575060016105d5565b507fffffffff00000000000000000000000000000000000000000000000000000000166000908152602091909152604090205460ff1690565b6000806105d560017f7ea68fd2dcf1c056b94db6a0a537aa80d26fa9ab1eacd85da1ba0b61b7e7a8a56140f9565b60608160000180546111f19061410c565b80601f016020809104026020016040519081016040528092919081815260200182805461121d9061410c565b801561126a5780601f1061123f5761010080835404028352916020019161126a565b820191906000526020600020905b81548152906001019060200180831161124d57829003601f168201915b50505050509050919050565b6000610601612a2e565b6000806105d560017fc8827d3282af6f37b64c3e9e6f3ac9df286ab0bb0fccd6f8661bf19adb368b236140f9565b60008281526020848152604080832073ffffffffffffffffffffffffffffffffffffffff8516845290915290205460ff1661081e576040517f7aa728820000000000000000000000000000000000000000000000000000000081526004810183905273ffffffffffffffffffffffffffffffffffffffff821660248201526044015b60405180910390fd5b73ffffffffffffffffffffffffffffffffffffffff8416611386576040517f021149bd00000000000000000000000000000000000000000000000000000000815260040160405180910390fd5b8251825181146113c2576040517f6582533600000000000000000000000000000000000000000000000000000000815260040160405180910390fd5b60005b8181146114125761140a88878784815181106113e3576113e361409b565b60200260200101518785815181106113fd576113fd61409b565b6020026020010151612b75565b6001016113c5565b508473ffffffffffffffffffffffffffffffffffffffff16600073ffffffffffffffffffffffffffffffffffffffff168773ffffffffffffffffffffffffffffffffffffffff167f4a39dc06d4c0dbc64b70af90fd698a233a518aa5d07e595d983b8c0526c8f7fb878760405161148a92919061415f565b60405180910390a473ffffffffffffffffffffffffffffffffffffffff85163b15610f1e57610f1e86600087878787612c46565b6000806105d560017fc9ed16f33ab3a66c84bfd83099ccb2a8845871e2e1c1928f63797152f0fd54cd6140f9565b61152161151a60017f5b388d90dc1312ba799f321972f13311234fa1163bcabec7cf66101c4876eb846140f9565b6001612d44565b610bc98282612d90565b6115607fd9b67a260000000000000000000000000000000000000000000000000000000060016115596110aa565b9190612e46565b565b6115607f0e89341c0000000000000000000000000000000000000000000000000000000060016115596110aa565b6115607f5190c92c0000000000000000000000000000000000000000000000000000000060016115596110aa565b6115607fe8ab9ccc0000000000000000000000000000000000000000000000000000000060016115596110aa565b6115607f921ed8d10000000000000000000000000000000000000000000000000000000060016115596110aa565b6115607f2a55205a0000000000000000000000000000000000000000000000000000000060016115596110aa565b61167661151a60017f92f72593ca50a0096f68ee94e7000db40ed086164b695855e2250750b8bfaf596140f9565b85611682858783614202565b5060018601611692838583614202565b5060029590950180547fffffffffffffffffffffffff00000000000000000000000000000000000000001673ffffffffffffffffffffffffffffffffffffffff9096169590951790945550505050565b6000806105d560017f609b85bcafa81ecfaf3ff62cdde2c6c9082a68dbe4922f07399c706bdeb7cd316140f9565b61173e61151a60017f2f02d396cb1be29636682c8684200b30a98554d3b74293aa4495cb5e1d252f6e6140f9565b81547fffffffffffffffffffffffff00000000000000000000000000000000000000001673ffffffffffffffffffffffffffffffffffffffff91909116179055565b60028301546040517ff724dad700000000000000000000000000000000000000000000000000000000815273ffffffffffffffffffffffffffffffffffffffff848116600483015260248201849052606092169063f724dad790604401600060405180830381865afa1580156117fa573d6000803e3d6000fd5b505050506040513d6000823e601f3d9081017fffffffffffffffffffffffffffffffffffffffffffffffffffffffffffffffe01682016040526108f1919081019061431c565b815473ffffffffffffffffffffffffffffffffffffffff828116911614610bc9576040517f2ef4875e00000000000000000000000000000000000000000000000000000000815273ffffffffffffffffffffffffffffffffffffffff82166004820152602401611330565b6118b6858486612f22565b61190c576040517f05bbb9c400000000000000000000000000000000000000000000000000000000815273ffffffffffffffffffffffffffffffffffffffff808616600483015284166024820152604401611330565b61191885848484612f97565b604080518381526020810183905260009173ffffffffffffffffffffffffffffffffffffffff86811692908816917fc3d58168c5ae7397731d063d5bbf3d657854427343f4c083240f7aacaa2d0f62910160405180910390a45050505050565b6000806105d560017f2c0cf10337caabbd02dcf226f05f5fd19a0919a41a8df8958c39b800078268586140f9565b825473ffffffffffffffffffffffffffffffffffffffff8116906000907401000000000000000000000000000000000000000090046bffffffffffffffffffffffff168315806119f4575080155b15611a025760009150611a47565b620186a0841015611a2c57620186a0611a1b82866143dc565b611a2591906143f3565b9150611a47565b80611a3a620186a0866143f3565b611a4491906143dc565b91505b50935093915050565b8073ffffffffffffffffffffffffffffffffffffffff168273ffffffffffffffffffffffffffffffffffffffff161461081e5761081e8383613034565b73ffffffffffffffffffffffffffffffffffffffff8716611ada576040517fb5e8901500000000000000000000000000000000000000000000000000000000815260040160405180910390fd5b84838114611b14576040517f6582533600000000000000000000000000000000000000000000000000000000815260040160405180910390fd5b611b1f8b8a8c612f22565b611b75576040517f05bbb9c400000000000000000000000000000000000000000000000000000000815273ffffffffffffffffffffffffffffffffffffffff808c1660048301528a166024820152604401611330565b60005b818114611bc457611bbc8c8b8b8b8b86818110611b9757611b9761409b565b905060200201358a8a87818110611bb057611bb061409b565b9050602002013561315b565b600101611b78565b508773ffffffffffffffffffffffffffffffffffffffff168973ffffffffffffffffffffffffffffffffffffffff168b73ffffffffffffffffffffffffffffffffffffffff167f4a39dc06d4c0dbc64b70af90fd698a233a518aa5d07e595d983b8c0526c8f7fb8a8a8a8a604051611c3f9493929190614479565b60405180910390a473ffffffffffffffffffffffffffffffffffffffff88163b15611d0857611d088a8a8a8a8a8080602002602001604051908101604052809392919081815260200183836020028082843760009201919091525050604080516020808e0282810182019093528d82529093508d92508c91829185019084908082843760009201919091525050604080516020601f8d018190048102820181019092528b815292508b91508a9081908401838280828437600092019190915250612c4692505050565b5050505050505050505050565b60008381526020858152604080832073ffffffffffffffffffffffffffffffffffffffff8616845290915290205460ff16611de65760008381526020858152604080832073ffffffffffffffffffffffffffffffffffffffff8681168086529184529382902080547fffffffffffffffffffffffffffffffffffffffffffffffffffffffffffffff00166001179055815187815292830152918316918101919091527f2f8788117e7eff1d82e926ec794901d17c78024a50270940304540a733656f0d906060015b60405180910390a15b50505050565b3660006108cc613308565b606083828114611e33576040517f6582533600000000000000000000000000000000000000000000000000000000815260040160405180910390fd5b8467ffffffffffffffff811115611e4c57611e4c61418d565b604051908082528060200260200182016040528015611e75578160200160208202803683370190505b50915060005b818114611efa57611ed5878783818110611e9757611e9761409b565b9050602002016020810190611eac9190613b44565b868684818110611ebe57611ebe61409b565b905060200201358a6110269092919063ffffffff16565b838281518110611ee757611ee761409b565b6020908102919091010152600101611e7b565b505095945050505050565b73ffffffffffffffffffffffffffffffffffffffff8416611f52576040517f021149bd00000000000000000000000000000000000000000000000000000000815260040160405180910390fd5b611f5e86858585612b75565b604080518481526020810184905273ffffffffffffffffffffffffffffffffffffffff80871692600092918916917fc3d58168c5ae7397731d063d5bbf3d657854427343f4c083240f7aacaa2d0f62910160405180910390a473ffffffffffffffffffffffffffffffffffffffff84163b156107765761077685600086868686613472565b620186a0811115612023576040517fac04040800000000000000000000000000000000000000000000000000000000815260048101829052602401611330565b81546bffffffffffffffffffffffff909116740100000000000000000000000000000000000000000273ffffffffffffffffffffffffffffffffffffffff909116179055565b6040805173ffffffffffffffffffffffffffffffffffffffff8416602482015260448082018490528251808303909101815260649091019091526020810180517bffffffffffffffffffffffffffffffffffffffffffffffffffffffff167fa9059cbb0000000000000000000000000000000000000000000000000000000017905261081e908490613590565b82818114612130576040517f6582533600000000000000000000000000000000000000000000000000000000815260040160405180910390fd5b61213b888789612f22565b612191576040517f05bbb9c400000000000000000000000000000000000000000000000000000000815273ffffffffffffffffffffffffffffffffffffffff808916600483015287166024820152604401611330565b60005b8181146121df576121d789888888858181106121b2576121b261409b565b905060200201358787868181106121cb576121cb61409b565b90506020020135612f97565b600101612194565b50600073ffffffffffffffffffffffffffffffffffffffff168673ffffffffffffffffffffffffffffffffffffffff168873ffffffffffffffffffffffffffffffffffffffff167f4a39dc06d4c0dbc64b70af90fd698a233a518aa5d07e595d983b8c0526c8f7fb8888888860405161225b9493929190614479565b60405180910390a45050505050505050565b6122788382846112ae565b60008181526020848152604080832073ffffffffffffffffffffffffffffffffffffffff86168085529083529281902080547fffffffffffffffffffffffffffffffffffffffffffffffffffffffffffffff0016905580518481529182018390528101919091527ff6391f5c32d9c69d2a47ea670b442974b53935d1edc7fd64eb21e047a839171b9060600160405180910390a1505050565b73ffffffffffffffffffffffffffffffffffffffff811661173e576040517f16de0c8000000000000000000000000000000000000000000000000000000000815260040160405180910390fd5b60608160010180546111f19061410c565b610bc98282613034565b8273ffffffffffffffffffffffffffffffffffffffff168273ffffffffffffffffffffffffffffffffffffffff16036123f6576040517ffb0fdf6100000000000000000000000000000000000000000000000000000000815273ffffffffffffffffffffffffffffffffffffffff84166004820152602401611330565b73ffffffffffffffffffffffffffffffffffffffff838116600081815260018701602090815260408083209487168084529482529182902080547fffffffffffffffffffffffffffffffffffffffffffffffffffffffffffffff001686151590811790915591519182527f17307eab39ab6107e8899845ad3d59bd9653f200f220920489ca2b5937696c31910160405180910390a350505050565b60008381526020858152604080832073ffffffffffffffffffffffffffffffffffffffff8616845290915290205460ff1615611de65760008381526020858152604080832073ffffffffffffffffffffffffffffffffffffffff8681168086529184529382902080547fffffffffffffffffffffffffffffffffffffffffffffffffffffffffffffff00169055815187815292830152918316918101919091527ff6391f5c32d9c69d2a47ea670b442974b53935d1edc7fd64eb21e047a839171b90606001611ddd565b835183518114158061256e575082518114155b156125a5576040517f6582533600000000000000000000000000000000000000000000000000000000815260040160405180910390fd5b60005b8181146106f757612615878783815181106125c5576125c561409b565b60200260200101518784815181106125df576125df61409b565b60200260200101518785815181106125f9576125f961409b565b6020026020010151878d611f059095949392919063ffffffff16565b6001016125a8565b73ffffffffffffffffffffffffffffffffffffffff851661266a576040517fb5e8901500000000000000000000000000000000000000000000000000000000815260040160405180910390fd5b612675888789612f22565b6126cb576040517f05bbb9c400000000000000000000000000000000000000000000000000000000815273ffffffffffffffffffffffffffffffffffffffff808916600483015287166024820152604401611330565b6126d8888787878761315b565b8473ffffffffffffffffffffffffffffffffffffffff168673ffffffffffffffffffffffffffffffffffffffff168873ffffffffffffffffffffffffffffffffffffffff167fc3d58168c5ae7397731d063d5bbf3d657854427343f4c083240f7aacaa2d0f628787604051612757929190918252602082015260400190565b60405180910390a473ffffffffffffffffffffffffffffffffffffffff85163b156106f7576106f7878787878787878080601f01602080910402602001604051908101604052809392919081815260200183838082843760009201919091525061347292505050565b825473ffffffffffffffffffffffffffffffffffffffff908116908316811461282d576040517f2ef4875e00000000000000000000000000000000000000000000000000000000815273ffffffffffffffffffffffffffffffffffffffff84166004820152602401611330565b8173ffffffffffffffffffffffffffffffffffffffff168173ffffffffffffffffffffffffffffffffffffffff1614611de65783547fffffffffffffffffffffffff00000000000000000000000000000000000000001673ffffffffffffffffffffffffffffffffffffffff8381169182178655604051908316907f8be0079c531659141344cd1fd0a4f28419497f9722a3daafe3b4186f6b6457e090600090a350505050565b8047101561293e576040517f08c379a000000000000000000000000000000000000000000000000000000000815260206004820152601d60248201527f416464726573733a20696e73756666696369656e742062616c616e63650000006044820152606401611330565b60008273ffffffffffffffffffffffffffffffffffffffff168260405160006040518083038185875af1925050503d8060008114612998576040519150601f19603f3d011682016040523d82523d6000602084013e61299d565b606091505b505090508061081e576040517f08c379a000000000000000000000000000000000000000000000000000000000815260206004820152603a60248201527f416464726573733a20756e61626c6520746f2073656e642076616c75652c207260448201527f6563697069656e74206d617920686176652072657665727465640000000000006064820152608401611330565b600033321480612a3e5750601836105b15612a4857503390565b7fffffffffffffffffffffffffffffffffffffffffffffffffffffffffffffffec36013560601c7f000000000000000000000000000000000000000000000000000000000000000073ffffffffffffffffffffffffffffffffffffffff16331480612b6457506040517f8929a8ca00000000000000000000000000000000000000000000000000000000815273ffffffffffffffffffffffffffffffffffffffff82811660048301523360248301527f00000000000000000000000000000000000000000000000000000000000000001690638929a8ca90604401602060405180830381865afa158015612b40573d6000803e3d6000fd5b505050506040513d601f19601f82011682018060405250810190612b6491906144a0565b15612b6e57919050565b3391505090565b8015611de65760008281526020858152604080832073ffffffffffffffffffffffffffffffffffffffff87168452909152902054818101818111612c12576040517f42fb00bc00000000000000000000000000000000000000000000000000000000815273ffffffffffffffffffffffffffffffffffffffff86166004820152602481018590526044810183905260648101849052608401611330565b60009384526020958652604080852073ffffffffffffffffffffffffffffffffffffffff9690961685529490955250502055565b6040517fbc197c81000000000000000000000000000000000000000000000000000000008082529073ffffffffffffffffffffffffffffffffffffffff86169063bc197c8190612ca2908a908a908990899089906004016144bd565b6020604051808303816000875af1158015612cc1573d6000803e3d6000fd5b505050506040513d601f19601f82011682018060405250810190612ce59190614528565b7fffffffff000000000000000000000000000000000000000000000000000000001614610776578383836040517fc287817e00000000000000000000000000000000000000000000000000000000815260040161133093929190614545565b81548290828110612d8b576040517fbf0c18ec0000000000000000000000000000000000000000000000000000000081526004810182905260248101849052604401611330565b505550565b73ffffffffffffffffffffffffffffffffffffffff811615612e185781547fffffffffffffffffffffffff00000000000000000000000000000000000000001673ffffffffffffffffffffffffffffffffffffffff821690811783556040516000907f8be0079c531659141344cd1fd0a4f28419497f9722a3daafe3b4186f6b6457e0908290a35b610bc97f7f5828d00000000000000000000000000000000000000000000000000000000060016115596110aa565b7c01000000000000000000000000000000000000000000000000000000007fffffffff00000000000000000000000000000000000000000000000000000000831601612ebe576040517f72c683bb00000000000000000000000000000000000000000000000000000000815260040160405180910390fd5b7fffffffff00000000000000000000000000000000000000000000000000000000919091166000908152602092909252604090912080547fffffffffffffffffffffffffffffffffffffffffffffffffffffffffffffff0016911515919091179055565b60008173ffffffffffffffffffffffffffffffffffffffff168373ffffffffffffffffffffffffffffffffffffffff1614806108f157505073ffffffffffffffffffffffffffffffffffffffff9182166000908152600193909301602090815260408085209290931684525290205460ff1690565b8015611de65760008281526020858152604080832073ffffffffffffffffffffffffffffffffffffffff87168452909152902054818103818110612c12576040517f03dee4c500000000000000000000000000000000000000000000000000000000815273ffffffffffffffffffffffffffffffffffffffff86166004820152602481018590526044810183905260648101849052608401611330565b815473ffffffffffffffffffffffffffffffffffffffff168015801590613072575060008173ffffffffffffffffffffffffffffffffffffffff163b115b1561081e576040517fc617113400000000000000000000000000000000000000000000000000000000815230600482015273ffffffffffffffffffffffffffffffffffffffff838116602483015282169063c617113490604401602060405180830381865afa1580156130e9573d6000803e3d6000fd5b505050506040513d601f19601f8201168201806040525081019061310d91906144a0565b61081e576040517fede71dcc00000000000000000000000000000000000000000000000000000000815273ffffffffffffffffffffffffffffffffffffffff83166004820152602401611330565b8015610aae5760008281526020868152604080832073ffffffffffffffffffffffffffffffffffffffff881684529091529020548181038181106131f8576040517f03dee4c500000000000000000000000000000000000000000000000000000000815273ffffffffffffffffffffffffffffffffffffffff87166004820152602481018590526044810183905260648101849052608401611330565b8473ffffffffffffffffffffffffffffffffffffffff168673ffffffffffffffffffffffffffffffffffffffff1614610f1e5760008481526020888152604080832073ffffffffffffffffffffffffffffffffffffffff891684529091529020548381018181116132c2576040517f42fb00bc00000000000000000000000000000000000000000000000000000000815273ffffffffffffffffffffffffffffffffffffffff88166004820152602481018790526044810183905260648101869052608401611330565b600086815260208a8152604080832073ffffffffffffffffffffffffffffffffffffffff808d1685528184528285208890558b1684529091529020555050505050505050565b366000333214806133195750601836105b156133275750600091369150565b3373ffffffffffffffffffffffffffffffffffffffff7f000000000000000000000000000000000000000000000000000000000000000016148061345c575073ffffffffffffffffffffffffffffffffffffffff7f000000000000000000000000000000000000000000000000000000000000000016638929a8ca367fffffffffffffffffffffffffffffffffffffffffffffffffffffffffffffffec013560601c6040517fffffffff0000000000000000000000000000000000000000000000000000000060e084901b16815273ffffffffffffffffffffffffffffffffffffffff9091166004820152336024820152604401602060405180830381865afa158015613438573d6000803e3d6000fd5b505050506040513d601f19601f8201168201806040525081019061345c91906144a0565b15613469576108cc61369f565b50600091369150565b6040517ff23a6e61000000000000000000000000000000000000000000000000000000008082529073ffffffffffffffffffffffffffffffffffffffff86169063f23a6e61906134ce908a908a90899089908990600401614590565b6020604051808303816000875af11580156134ed573d6000803e3d6000fd5b505050506040513d601f19601f820116820180604052508101906135119190614528565b7fffffffff000000000000000000000000000000000000000000000000000000001614610776576040517f40f39d3800000000000000000000000000000000000000000000000000000000815273ffffffffffffffffffffffffffffffffffffffff851660048201526024810184905260448101839052606401611330565b60006135f2826040518060400160405280602081526020017f5361666545524332303a206c6f772d6c6576656c2063616c6c206661696c65648152508573ffffffffffffffffffffffffffffffffffffffff166136d09092919063ffffffff16565b905080516000148061361357508080602001905181019061361391906144a0565b61081e576040517f08c379a000000000000000000000000000000000000000000000000000000000815260206004820152602a60248201527f5361666545524332303a204552433230206f7065726174696f6e20646964206e60448201527f6f742073756363656564000000000000000000000000000000000000000000006064820152608401611330565b3660006108cc7fffffffffffffffffffffffffffffffffffffffffffffffffffffffffffffffec83018284816145d5565b60606108f18484600085856000808673ffffffffffffffffffffffffffffffffffffffff16858760405161370491906145ff565b60006040518083038185875af1925050503d8060008114613741576040519150601f19603f3d011682016040523d82523d6000602084013e613746565b606091505b509150915061375787838387613762565b979650505050505050565b606083156137f85782516000036137f15773ffffffffffffffffffffffffffffffffffffffff85163b6137f1576040517f08c379a000000000000000000000000000000000000000000000000000000000815260206004820152601d60248201527f416464726573733a2063616c6c20746f206e6f6e2d636f6e74726163740000006044820152606401611330565b50816108f1565b6108f1838381511561380d5781518083602001fd5b806040517f08c379a0000000000000000000000000000000000000000000000000000000008152600401611330919061394f565b73ffffffffffffffffffffffffffffffffffffffff811681146107fc57600080fd5b6000806040838503121561387657600080fd5b823561388181613841565b946020939093013593505050565b7fffffffff00000000000000000000000000000000000000000000000000000000811681146107fc57600080fd5b6000602082840312156138cf57600080fd5b81356138da8161388f565b9392505050565b60005b838110156138fc5781810151838201526020016138e4565b50506000910152565b6000815180845261391d8160208601602086016138e1565b601f017fffffffffffffffffffffffffffffffffffffffffffffffffffffffffffffffe0169290920160200192915050565b6020815260006105d26020830184613905565b60008083601f84011261397457600080fd5b50813567ffffffffffffffff81111561398c57600080fd5b6020830191508360208260051b850101111561083f57600080fd5b60008083601f8401126139b957600080fd5b50813567ffffffffffffffff8111156139d157600080fd5b60208301915083602082850101111561083f57600080fd5b60008060008060008060006080888a031215613a0457600080fd5b8735613a0f81613841565b9650602088013567ffffffffffffffff80821115613a2c57600080fd5b613a388b838c01613962565b909850965060408a0135915080821115613a5157600080fd5b613a5d8b838c01613962565b909650945060608a0135915080821115613a7657600080fd5b50613a838a828b016139a7565b989b979a50959850939692959293505050565b60008060008060008060808789031215613aaf57600080fd5b863567ffffffffffffffff80821115613ac757600080fd5b613ad38a838b016139a7565b90985096506020890135915080821115613aec57600080fd5b50613af989828a016139a7565b9095509350506040870135613b0d81613841565b91506060870135613b1d81613841565b809150509295509295509295565b600060208284031215613b3d57600080fd5b5035919050565b600060208284031215613b5657600080fd5b81356138da81613841565b600080600060608486031215613b7657600080fd5b8335613b8181613841565b95602085013595506040909401359392505050565b60008060408385031215613ba957600080fd5b50508035926020909101359150565b60008060008060008060008060a0898b031215613bd457600080fd5b8835613bdf81613841565b97506020890135613bef81613841565b9650604089013567ffffffffffffffff80821115613c0c57600080fd5b613c188c838d01613962565b909850965060608b0135915080821115613c3157600080fd5b613c3d8c838d01613962565b909650945060808b0135915080821115613c5657600080fd5b50613c638b828c016139a7565b999c989b5096995094979396929594505050565b60008060408385031215613c8a57600080fd5b823591506020830135613c9c81613841565b809150509250929050565b60208152816020820152818360408301376000818301604090810191909152601f9092017fffffffffffffffffffffffffffffffffffffffffffffffffffffffffffffffe0160101919050565b60008060008060408587031215613d0a57600080fd5b843567ffffffffffffffff80821115613d2257600080fd5b613d2e88838901613962565b90965094506020870135915080821115613d4757600080fd5b50613d5487828801613962565b95989497509550505050565b600081518084526020808501945080840160005b83811015613d9057815187529582019590820190600101613d74565b509495945050505050565b6020815260006105d26020830184613d60565b600080600080600060808688031215613dc657600080fd5b8535613dd181613841565b94506020860135935060408601359250606086013567ffffffffffffffff811115613dfb57600080fd5b613e07888289016139a7565b969995985093965092949392505050565b60008060008060008060608789031215613e3157600080fd5b863567ffffffffffffffff80821115613e4957600080fd5b613e558a838b01613962565b90985096506020890135915080821115613e6e57600080fd5b613e7a8a838b01613962565b90965094506040890135915080821115613e9357600080fd5b50613ea089828a01613962565b979a9699509497509295939492505050565b600080600080600060608688031215613eca57600080fd5b8535613ed581613841565b9450602086013567ffffffffffffffff80821115613ef257600080fd5b613efe89838a01613962565b90965094506040880135915080821115613f1757600080fd5b50613e0788828901613962565b80151581146107fc57600080fd5b60008060408385031215613f4557600080fd5b8235613f5081613841565b91506020830135613c9c81613f24565b6000806000806000806000806080898b031215613f7c57600080fd5b883567ffffffffffffffff80821115613f9457600080fd5b613fa08c838d01613962565b909a50985060208b0135915080821115613fb957600080fd5b613fc58c838d01613962565b909850965060408b0135915080821115613fde57600080fd5b613fea8c838d01613962565b909650945060608b0135915080821115613c5657600080fd5b6000806040838503121561401657600080fd5b823561402181613841565b91506020830135613c9c81613841565b60008060008060008060a0878903121561404a57600080fd5b863561405581613841565b9550602087013561406581613841565b94506040870135935060608701359250608087013567ffffffffffffffff81111561408f57600080fd5b613ea089828a016139a7565b7f4e487b7100000000000000000000000000000000000000000000000000000000600052603260045260246000fd5b7f4e487b7100000000000000000000000000000000000000000000000000000000600052601160045260246000fd5b818103818111156105d5576105d56140ca565b600181811c9082168061412057607f821691505b602082108103614159577f4e487b7100000000000000000000000000000000000000000000000000000000600052602260045260246000fd5b50919050565b6040815260006141726040830185613d60565b82810360208401526141848185613d60565b95945050505050565b7f4e487b7100000000000000000000000000000000000000000000000000000000600052604160045260246000fd5b601f82111561081e57600081815260208120601f850160051c810160208610156141e35750805b601f850160051c820191505b81811015610776578281556001016141ef565b67ffffffffffffffff83111561421a5761421a61418d565b61422e83614228835461410c565b836141bc565b6000601f841160018114614280576000851561424a5750838201355b7fffffffffffffffffffffffffffffffffffffffffffffffffffffffffffffffff600387901b1c1916600186901b178355610aae565b6000838152602090207fffffffffffffffffffffffffffffffffffffffffffffffffffffffffffffffe0861690835b828110156142cf57868501358255602094850194600190920191016142af565b508682101561430a577fffffffffffffffffffffffffffffffffffffffffffffffffffffffffffffffff60f88860031b161c19848701351681555b505060018560011b0183555050505050565b60006020828403121561432e57600080fd5b815167ffffffffffffffff8082111561434657600080fd5b818401915084601f83011261435a57600080fd5b81518181111561436c5761436c61418d565b604051601f82017fffffffffffffffffffffffffffffffffffffffffffffffffffffffffffffffe0908116603f011681019083821181831017156143b2576143b261418d565b816040528281528760208487010111156143cb57600080fd5b6137578360208301602088016138e1565b80820281158282048414176105d5576105d56140ca565b600082614429577f4e487b7100000000000000000000000000000000000000000000000000000000600052601260045260246000fd5b500490565b81835260007f07ffffffffffffffffffffffffffffffffffffffffffffffffffffffffffffff83111561446057600080fd5b8260051b80836020870137939093016020019392505050565b60408152600061448d60408301868861442e565b828103602084015261375781858761442e565b6000602082840312156144b257600080fd5b81516138da81613f24565b600073ffffffffffffffffffffffffffffffffffffffff808816835280871660208401525060a060408301526144f660a0830186613d60565b82810360608401526145088186613d60565b9050828103608084015261451c8185613905565b98975050505050505050565b60006020828403121561453a57600080fd5b81516138da8161388f565b73ffffffffffffffffffffffffffffffffffffffff841681526060602082015260006145746060830185613d60565b82810360408401526145868185613d60565b9695505050505050565b600073ffffffffffffffffffffffffffffffffffffffff808816835280871660208401525084604083015283606083015260a0608083015261375760a0830184613905565b600080858511156145e557600080fd5b838611156145f257600080fd5b5050820193919092039150565b600082516146118184602087016138e1565b919091019291505056fea26469706673582212209fa5d92002ca8677643523f9c09af9d17bf3e27a9d64e688910f2a16427ec7f164736f6c63430008150033",
  "linkReferences": {},
  "deployedLinkReferences": {}
}