{
  "_format": "hh-sol-artifact-1",
  "contractName": "SealedCallFacet",
  "sourceName": "contracts/security/facets/SealedCallFacet.sol",
  "abi": [
    {
      "inputs": [
        {
          "internalType": "contract IForwarderRegistry",
          "name": "forwarderRegistry",
          "type": "address"
        }
      ],
      "stateMutability": "nonpayable",
      "type": "constructor"
    },
    {
      "anonymous": false,
      "inputs": [
        {
          "indexed": false,
          "internalType": "uint256",
          "name": "sealId",
          "type": "uint256"
        },
        {
          "indexed": false,
          "internalType": "address",
          "name": "sealer",
          "type": "address"
        }
      ],
      "name": "Sealed",
      "type": "event"
    },
    {
      "inputs": [],
      "name": "SEALER_ROLE",
      "outputs": [
        {
          "internalType": "bytes32",
          "name": "",
          "type": "bytes32"
        }
      ],
      "stateMutability": "view",
      "type": "function"
    },
    {
      "inputs": [
        {
          "internalType": "uint256",
          "name": "sealId",
          "type": "uint256"
        }
      ],
      "name": "isSealed",
      "outputs": [
        {
          "internalType": "bool",
          "name": "",
          "type": "bool"
        }
      ],
      "stateMutability": "view",
      "type": "function"
    },
    {
      "inputs": [
        {
          "internalType": "address",
          "name": "target",
          "type": "address"
        },
        {
          "internalType": "bytes",
          "name": "callData",
          "type": "bytes"
        },
        {
          "internalType": "uint256",
          "name": "sealId",
          "type": "uint256"
        }
      ],
      "name": "sealedCall",
      "outputs": [
        {
          "internalType": "bytes",
          "name": "returnData",
          "type": "bytes"
        }
      ],
      "stateMutability": "nonpayable",
      "type": "function"
    }
  ],
  "bytecode": "0x60a060405234801561001057600080fd5b50604051610c63380380610c6383398101604081905261002f91610040565b6001600160a01b0316608052610070565b60006020828403121561005257600080fd5b81516001600160a01b038116811461006957600080fd5b9392505050565b608051610bd16100926000396000818161045d01526104fd0152610bd16000f3fe608060405234801561001057600080fd5b50600436106100415760003560e01c80630b476f99146100465780632c1758c11461006f578063526c981114610092575b600080fd5b61005961005436600461090b565b6100c7565b6040516100669190610a29565b60405180910390f35b61008261007d366004610a3c565b61017e565b6040519015158152602001610066565b6100b97f7365616c6572000000000000000000000000000000000000000000000000000081565b604051908152602001610066565b606060006100d36101a5565b90506101097f7365616c65720000000000000000000000000000000000000000000000000000826101026101b4565b91906101e2565b61011d818461011661029c565b91906102ca565b61017485858080601f0160208091040260200160405190810160405280939291908181526020018383808284376000920191909152505073ffffffffffffffffffffffffffffffffffffffff8a16929150506103d8565b9695505050505050565b600061019f8261018c61029c565b6000918252602052604090205460ff1690565b92915050565b60006101af610421565b905090565b60008061019f60017fc8827d3282af6f37b64c3e9e6f3ac9df286ab0bb0fccd6f8661bf19adb368b23610a55565b60008281526020848152604080832073ffffffffffffffffffffffffffffffffffffffff8516845290915290205460ff166102975761022082610579565b6040516020016102309190610a93565b604080517fffffffffffffffffffffffffffffffffffffffffffffffffffffffffffffffe0818403018152908290527f08c379a000000000000000000000000000000000000000000000000000000000825261028e91600401610a29565b60405180910390fd5b505050565b60008061019f60017f2a97c6c62f2f8616c552895c02acda791e96a0e77ad57580c7b74a08b219567c610a55565b60008181526020849052604090205460ff1615610343576040517f08c379a000000000000000000000000000000000000000000000000000000000815260206004820152600d60248201527f5365616c733a207365616c656400000000000000000000000000000000000000604482015260640161028e565b6000818152602084905260409081902080547fffffffffffffffffffffffffffffffffffffffffffffffffffffffffffffff00166001179055517f4ede4a0b55ef0b366eeda846c0db70204e9f7205524b8c5f653085ca572b2577906103cb908390859091825273ffffffffffffffffffffffffffffffffffffffff16602082015260400190565b60405180910390a1505050565b606061041a83836040518060400160405280601e81526020017f416464726573733a206c6f772d6c6576656c2063616c6c206661696c6564000081525061070b565b9392505050565b60003332810361043057919050565b6000367fffffffffffffffffffffffffffffffffffffffffffffffffffffffffffffffec013560601c90507f000000000000000000000000000000000000000000000000000000000000000073ffffffffffffffffffffffffffffffffffffffff168273ffffffffffffffffffffffffffffffffffffffff16148061056857506040517fe60125d600000000000000000000000000000000000000000000000000000000815273ffffffffffffffffffffffffffffffffffffffff828116600483015283811660248301527f0000000000000000000000000000000000000000000000000000000000000000169063e60125d690604401602060405180830381865afa158015610544573d6000803e3d6000fd5b505050506040513d601f19601f820116820180604052508101906105689190610aff565b156105735792915050565b50919050565b6060600082900361059857505060408051602081019091526000815290565b6000826040516020016105ad91815260200190565b604080517fffffffffffffffffffffffffffffffffffffffffffffffffffffffffffffffe08184030181529190529050601f5b8181815181106105f2576105f2610b21565b01602001517fff0000000000000000000000000000000000000000000000000000000000000016600003610647577fffffffffffffffffffffffffffffffffffffffffffffffffffffffffffffffff016105e0565b60008160010167ffffffffffffffff81111561066557610665610b50565b6040519080825280601f01601f19166020018201604052801561068f576020820181803683370190505b50905060005b828111610702578381815181106106ae576106ae610b21565b602001015160f81c60f81b8282815181106106cb576106cb610b21565b60200101907effffffffffffffffffffffffffffffffffffffffffffffffffffffffffffff1916908160001a905350600101610695565b50949350505050565b606061071a8484600085610722565b949350505050565b6060824710156107b4576040517f08c379a000000000000000000000000000000000000000000000000000000000815260206004820152602660248201527f416464726573733a20696e73756666696369656e742062616c616e636520666f60448201527f722063616c6c0000000000000000000000000000000000000000000000000000606482015260840161028e565b73ffffffffffffffffffffffffffffffffffffffff85163b610832576040517f08c379a000000000000000000000000000000000000000000000000000000000815260206004820152601d60248201527f416464726573733a2063616c6c20746f206e6f6e2d636f6e7472616374000000604482015260640161028e565b6000808673ffffffffffffffffffffffffffffffffffffffff16858760405161085b9190610b7f565b60006040518083038185875af1925050503d8060008114610898576040519150601f19603f3d011682016040523d82523d6000602084013e61089d565b606091505b50915091506108ad8282866108b8565b979650505050505050565b606083156108c757508161041a565b8251156108d75782518084602001fd5b816040517f08c379a000000000000000000000000000000000000000000000000000000000815260040161028e9190610a29565b6000806000806060858703121561092157600080fd5b843573ffffffffffffffffffffffffffffffffffffffff8116811461094557600080fd5b9350602085013567ffffffffffffffff8082111561096257600080fd5b818701915087601f83011261097657600080fd5b81358181111561098557600080fd5b88602082850101111561099757600080fd5b95986020929092019750949560400135945092505050565b60005b838110156109ca5781810151838201526020016109b2565b838111156109d9576000848401525b50505050565b600081518084526109f78160208601602086016109af565b601f017fffffffffffffffffffffffffffffffffffffffffffffffffffffffffffffffe0169290920160200192915050565b60208152600061041a60208301846109df565b600060208284031215610a4e57600080fd5b5035919050565b600082821015610a8e577f4e487b7100000000000000000000000000000000000000000000000000000000600052601160045260246000fd5b500390565b7f416363657373436f6e74726f6c3a206d697373696e6720270000000000000000815260008251610acb8160188501602087016109af565b7f2720726f6c6500000000000000000000000000000000000000000000000000006018939091019283015250601e01919050565b600060208284031215610b1157600080fd5b8151801515811461041a57600080fd5b7f4e487b7100000000000000000000000000000000000000000000000000000000600052603260045260246000fd5b7f4e487b7100000000000000000000000000000000000000000000000000000000600052604160045260246000fd5b60008251610b918184602087016109af565b919091019291505056fea264697066735822122075780c2c678f46a131263ece4b9d5bbd6c1db4d18ab122288961ab4a08874de464736f6c634300080f0033",
  "linkReferences": {},
  "deployedLinkReferences": {}
}