{
  "_format": "hh-sol-artifact-1",
  "contractName": "PayoutWalletFacet",
  "sourceName": "contracts/payment/facets/PayoutWalletFacet.sol",
  "abi": [
    {
      "inputs": [
        {
          "internalType": "contract IForwarderRegistry",
          "name": "forwarderRegistry",
          "type": "address"
        }
      ],
      "stateMutability": "nonpayable",
      "type": "constructor"
    },
    {
      "anonymous": false,
      "inputs": [
        {
          "indexed": false,
          "internalType": "address",
          "name": "payoutWallet",
          "type": "address"
        }
      ],
      "name": "PayoutWalletSet",
      "type": "event"
    },
    {
      "inputs": [
        {
          "internalType": "address payable",
          "name": "initialPayoutWallet",
          "type": "address"
        }
      ],
      "name": "initPayoutWalletStorage",
      "outputs": [],
      "stateMutability": "nonpayable",
      "type": "function"
    },
    {
      "inputs": [],
      "name": "payoutWallet",
      "outputs": [
        {
          "internalType": "address payable",
          "name": "wallet",
          "type": "address"
        }
      ],
      "stateMutability": "view",
      "type": "function"
    },
    {
      "inputs": [
        {
          "internalType": "address payable",
          "name": "newPayoutWallet",
          "type": "address"
        }
      ],
      "name": "setPayoutWallet",
      "outputs": [],
      "stateMutability": "nonpayable",
      "type": "function"
    }
  ],
  "bytecode": "0x60a060405234801561001057600080fd5b5060405161072d38038061072d83398101604081905261002f91610040565b6001600160a01b0316608052610070565b60006020828403121561005257600080fd5b81516001600160a01b038116811461006957600080fd5b9392505050565b60805161069b6100926000396000818161043c01526104dc015261069b6000f3fe608060405234801561001057600080fd5b50600436106100415760003560e01c80636b8f9c43146100465780638488bb4e1461005b578063a556589a1461008c575b600080fd5b6100596100543660046105c8565b61009f565b005b6100636100cd565b60405173ffffffffffffffffffffffffffffffffffffffff909116815260200160405180910390f35b61005961009a3660046105c8565b6100f9565b6100b86100aa610124565b6100b261012e565b90610162565b6100ca816100c46101ee565b9061021c565b50565b60006100f46100da6101ee565b5473ffffffffffffffffffffffffffffffffffffffff1690565b905090565b610112610104610124565b61010c610310565b9061033e565b6100ca8161011e6101ee565b906103c1565b60006100f4610400565b60008061015c60017fc9ed16f33ab3a66c84bfd83099ccb2a8845871e2e1c1928f63797152f0fd54cd610605565b92915050565b815473ffffffffffffffffffffffffffffffffffffffff8281169116146101ea576040517f08c379a000000000000000000000000000000000000000000000000000000000815260206004820152601860248201527f4f776e6572736869703a206e6f7420746865206f776e6572000000000000000060448201526064015b60405180910390fd5b5050565b60008061015c60017f4fb5f8cdfbce77f22b0931a39e9f476a60a0f66524b2f379e96485471eb700ae610605565b73ffffffffffffffffffffffffffffffffffffffff8116610299576040517f08c379a000000000000000000000000000000000000000000000000000000000815260206004820152601a60248201527f5061796f757457616c6c65743a207a65726f206164647265737300000000000060448201526064016101e1565b81547fffffffffffffffffffffffff00000000000000000000000000000000000000001673ffffffffffffffffffffffffffffffffffffffff821690811783556040519081527fdd880d24a789958a6398c99c2e54ce31bc10a638cbc42f7dd34285479ae0f8559060200160405180910390a15050565b60008061015c60017fb53127684a568b3173ae13b9f8a6016e243e63b6e8ee1178d6a717850b5d6104610605565b815473ffffffffffffffffffffffffffffffffffffffff8281169116146101ea576040517f08c379a000000000000000000000000000000000000000000000000000000000815260206004820152601960248201527f50726f787941646d696e3a206e6f74207468652061646d696e0000000000000060448201526064016101e1565b6103f66103ef60017f03497821c97e7d2bd8e34992e1a723a2edcf97a05eef937ff657491b38cca19e610605565b6001610558565b6101ea828261021c565b60003332810361040f57919050565b6000367fffffffffffffffffffffffffffffffffffffffffffffffffffffffffffffffec013560601c90507f000000000000000000000000000000000000000000000000000000000000000073ffffffffffffffffffffffffffffffffffffffff168273ffffffffffffffffffffffffffffffffffffffff16148061054757506040517fe60125d600000000000000000000000000000000000000000000000000000000815273ffffffffffffffffffffffffffffffffffffffff828116600483015283811660248301527f0000000000000000000000000000000000000000000000000000000000000000169063e60125d690604401602060405180830381865afa158015610523573d6000803e3d6000fd5b505050506040513d601f19601f820116820180604052508101906105479190610643565b156105525792915050565b50919050565b8154829082116105c4576040517f08c379a000000000000000000000000000000000000000000000000000000000815260206004820152601660248201527f53746f726167653a20706861736520726561636865640000000000000000000060448201526064016101e1565b5550565b6000602082840312156105da57600080fd5b813573ffffffffffffffffffffffffffffffffffffffff811681146105fe57600080fd5b9392505050565b60008282101561063e577f4e487b7100000000000000000000000000000000000000000000000000000000600052601160045260246000fd5b500390565b60006020828403121561065557600080fd5b815180151581146105fe57600080fdfea264697066735822122050ccf7813dbe758cc73707423856dfa5a23e509992771fa1fc114019e79e226164736f6c634300080f0033",
  "linkReferences": {},
  "deployedLinkReferences": {}
}