{
  "_format": "hh-sol-artifact-1",
  "contractName": "ERC721WithoutOperatorFiltererProxiedMock",
  "sourceName": "contracts/mocks/token/ERC721/proxied/ERC721WithoutOperatorFiltererProxiedMock.sol",
  "abi": [
    {
      "inputs": [
        {
          "internalType": "contract IForwarderRegistry",
          "name": "forwarderRegistry",
          "type": "address"
        }
      ],
      "stateMutability": "nonpayable",
      "type": "constructor"
    },
    {
      "inputs": [],
      "name": "ERC721BalanceOfAddressZero",
      "type": "error"
    },
    {
      "inputs": [
        {
          "internalType": "uint256",
          "name": "tokenId",
          "type": "uint256"
        }
      ],
      "name": "ERC721ExistingToken",
      "type": "error"
    },
    {
      "inputs": [],
      "name": "ERC721MintToAddressZero",
      "type": "error"
    },
    {
      "inputs": [
        {
          "internalType": "address",
          "name": "sender",
          "type": "address"
        },
        {
          "internalType": "address",
          "name": "owner",
          "type": "address"
        },
        {
          "internalType": "uint256",
          "name": "tokenId",
          "type": "uint256"
        }
      ],
      "name": "ERC721NonApprovedForApproval",
      "type": "error"
    },
    {
      "inputs": [
        {
          "internalType": "address",
          "name": "sender",
          "type": "address"
        },
        {
          "internalType": "address",
          "name": "owner",
          "type": "address"
        },
        {
          "internalType": "uint256",
          "name": "tokenId",
          "type": "uint256"
        }
      ],
      "name": "ERC721NonApprovedForTransfer",
      "type": "error"
    },
    {
      "inputs": [
        {
          "internalType": "uint256",
          "name": "tokenId",
          "type": "uint256"
        }
      ],
      "name": "ERC721NonExistingToken",
      "type": "error"
    },
    {
      "inputs": [
        {
          "internalType": "address",
          "name": "account",
          "type": "address"
        },
        {
          "internalType": "uint256",
          "name": "tokenId",
          "type": "uint256"
        }
      ],
      "name": "ERC721NonOwnedToken",
      "type": "error"
    },
    {
      "inputs": [
        {
          "internalType": "address",
          "name": "recipient",
          "type": "address"
        },
        {
          "internalType": "uint256",
          "name": "tokenId",
          "type": "uint256"
        }
      ],
      "name": "ERC721SafeTransferRejected",
      "type": "error"
    },
    {
      "inputs": [
        {
          "internalType": "address",
          "name": "account",
          "type": "address"
        }
      ],
      "name": "ERC721SelfApproval",
      "type": "error"
    },
    {
      "inputs": [
        {
          "internalType": "address",
          "name": "account",
          "type": "address"
        }
      ],
      "name": "ERC721SelfApprovalForAll",
      "type": "error"
    },
    {
      "inputs": [],
      "name": "ERC721TransferToAddressZero",
      "type": "error"
    },
    {
      "inputs": [],
      "name": "IllegalInterfaceId",
      "type": "error"
    },
    {
      "inputs": [
        {
          "internalType": "uint256",
          "name": "currentPhase",
          "type": "uint256"
        },
        {
          "internalType": "uint256",
          "name": "newPhase",
          "type": "uint256"
        }
      ],
      "name": "InitializationPhaseAlreadyReached",
      "type": "error"
    },
    {
      "inputs": [
        {
          "internalType": "address",
          "name": "account",
          "type": "address"
        }
      ],
      "name": "NotContractOwner",
      "type": "error"
    },
    {
      "inputs": [
        {
          "internalType": "bytes32",
          "name": "role",
          "type": "bytes32"
        },
        {
          "internalType": "address",
          "name": "account",
          "type": "address"
        }
      ],
      "name": "NotRoleHolder",
      "type": "error"
    },
    {
      "anonymous": false,
      "inputs": [
        {
          "indexed": true,
          "internalType": "address",
          "name": "owner",
          "type": "address"
        },
        {
          "indexed": true,
          "internalType": "address",
          "name": "approved",
          "type": "address"
        },
        {
          "indexed": true,
          "internalType": "uint256",
          "name": "tokenId",
          "type": "uint256"
        }
      ],
      "name": "Approval",
      "type": "event"
    },
    {
      "anonymous": false,
      "inputs": [
        {
          "indexed": true,
          "internalType": "address",
          "name": "owner",
          "type": "address"
        },
        {
          "indexed": true,
          "internalType": "address",
          "name": "operator",
          "type": "address"
        },
        {
          "indexed": false,
          "internalType": "bool",
          "name": "approved",
          "type": "bool"
        }
      ],
      "name": "ApprovalForAll",
      "type": "event"
    },
    {
      "anonymous": false,
      "inputs": [
        {
          "indexed": true,
          "internalType": "address",
          "name": "previousOwner",
          "type": "address"
        },
        {
          "indexed": true,
          "internalType": "address",
          "name": "newOwner",
          "type": "address"
        }
      ],
      "name": "OwnershipTransferred",
      "type": "event"
    },
    {
      "anonymous": false,
      "inputs": [
        {
          "indexed": false,
          "internalType": "bytes32",
          "name": "role",
          "type": "bytes32"
        },
        {
          "indexed": false,
          "internalType": "address",
          "name": "account",
          "type": "address"
        },
        {
          "indexed": false,
          "internalType": "address",
          "name": "operator",
          "type": "address"
        }
      ],
      "name": "RoleGranted",
      "type": "event"
    },
    {
      "anonymous": false,
      "inputs": [
        {
          "indexed": false,
          "internalType": "bytes32",
          "name": "role",
          "type": "bytes32"
        },
        {
          "indexed": false,
          "internalType": "address",
          "name": "account",
          "type": "address"
        },
        {
          "indexed": false,
          "internalType": "address",
          "name": "operator",
          "type": "address"
        }
      ],
      "name": "RoleRevoked",
      "type": "event"
    },
    {
      "anonymous": false,
      "inputs": [
        {
          "indexed": true,
          "internalType": "address",
          "name": "from",
          "type": "address"
        },
        {
          "indexed": true,
          "internalType": "address",
          "name": "to",
          "type": "address"
        },
        {
          "indexed": true,
          "internalType": "uint256",
          "name": "tokenId",
          "type": "uint256"
        }
      ],
      "name": "Transfer",
      "type": "event"
    },
    {
      "inputs": [],
      "name": "MINTER_ROLE",
      "outputs": [
        {
          "internalType": "bytes32",
          "name": "",
          "type": "bytes32"
        }
      ],
      "stateMutability": "view",
      "type": "function"
    },
    {
      "inputs": [],
      "name": "__msgData",
      "outputs": [
        {
          "internalType": "bytes",
          "name": "",
          "type": "bytes"
        }
      ],
      "stateMutability": "view",
      "type": "function"
    },
    {
      "inputs": [
        {
          "internalType": "address",
          "name": "to",
          "type": "address"
        },
        {
          "internalType": "uint256",
          "name": "tokenId",
          "type": "uint256"
        }
      ],
      "name": "approve",
      "outputs": [],
      "stateMutability": "nonpayable",
      "type": "function"
    },
    {
      "inputs": [
        {
          "internalType": "address",
          "name": "owner",
          "type": "address"
        }
      ],
      "name": "balanceOf",
      "outputs": [
        {
          "internalType": "uint256",
          "name": "balance",
          "type": "uint256"
        }
      ],
      "stateMutability": "view",
      "type": "function"
    },
    {
      "inputs": [
        {
          "internalType": "address",
          "name": "to",
          "type": "address"
        },
        {
          "internalType": "uint256[]",
          "name": "tokenIds",
          "type": "uint256[]"
        }
      ],
      "name": "batchMint",
      "outputs": [],
      "stateMutability": "nonpayable",
      "type": "function"
    },
    {
      "inputs": [
        {
          "internalType": "address",
          "name": "from",
          "type": "address"
        },
        {
          "internalType": "address",
          "name": "to",
          "type": "address"
        },
        {
          "internalType": "uint256[]",
          "name": "tokenIds",
          "type": "uint256[]"
        }
      ],
      "name": "batchTransferFrom",
      "outputs": [],
      "stateMutability": "nonpayable",
      "type": "function"
    },
    {
      "inputs": [],
      "name": "forwarderRegistry",
      "outputs": [
        {
          "internalType": "contract IForwarderRegistry",
          "name": "",
          "type": "address"
        }
      ],
      "stateMutability": "view",
      "type": "function"
    },
    {
      "inputs": [
        {
          "internalType": "uint256",
          "name": "tokenId",
          "type": "uint256"
        }
      ],
      "name": "getApproved",
      "outputs": [
        {
          "internalType": "address",
          "name": "approved",
          "type": "address"
        }
      ],
      "stateMutability": "view",
      "type": "function"
    },
    {
      "inputs": [
        {
          "internalType": "bytes32",
          "name": "role",
          "type": "bytes32"
        },
        {
          "internalType": "address",
          "name": "account",
          "type": "address"
        }
      ],
      "name": "grantRole",
      "outputs": [],
      "stateMutability": "nonpayable",
      "type": "function"
    },
    {
      "inputs": [
        {
          "internalType": "bytes32",
          "name": "role",
          "type": "bytes32"
        },
        {
          "internalType": "address",
          "name": "account",
          "type": "address"
        }
      ],
      "name": "hasRole",
      "outputs": [
        {
          "internalType": "bool",
          "name": "hasRole_",
          "type": "bool"
        }
      ],
      "stateMutability": "view",
      "type": "function"
    },
    {
      "inputs": [],
      "name": "init",
      "outputs": [],
      "stateMutability": "nonpayable",
      "type": "function"
    },
    {
      "inputs": [
        {
          "internalType": "address",
          "name": "owner",
          "type": "address"
        },
        {
          "internalType": "address",
          "name": "operator",
          "type": "address"
        }
      ],
      "name": "isApprovedForAll",
      "outputs": [
        {
          "internalType": "bool",
          "name": "approvedForAll",
          "type": "bool"
        }
      ],
      "stateMutability": "view",
      "type": "function"
    },
    {
      "inputs": [
        {
          "internalType": "address",
          "name": "forwarder",
          "type": "address"
        }
      ],
      "name": "isTrustedForwarder",
      "outputs": [
        {
          "internalType": "bool",
          "name": "",
          "type": "bool"
        }
      ],
      "stateMutability": "view",
      "type": "function"
    },
    {
      "inputs": [
        {
          "internalType": "address",
          "name": "to",
          "type": "address"
        },
        {
          "internalType": "uint256",
          "name": "tokenId",
          "type": "uint256"
        }
      ],
      "name": "mint",
      "outputs": [],
      "stateMutability": "nonpayable",
      "type": "function"
    },
    {
      "inputs": [],
      "name": "owner",
      "outputs": [
        {
          "internalType": "address",
          "name": "",
          "type": "address"
        }
      ],
      "stateMutability": "view",
      "type": "function"
    },
    {
      "inputs": [
        {
          "internalType": "uint256",
          "name": "tokenId",
          "type": "uint256"
        }
      ],
      "name": "ownerOf",
      "outputs": [
        {
          "internalType": "address",
          "name": "tokenOwner",
          "type": "address"
        }
      ],
      "stateMutability": "view",
      "type": "function"
    },
    {
      "inputs": [
        {
          "internalType": "bytes32",
          "name": "role",
          "type": "bytes32"
        }
      ],
      "name": "renounceRole",
      "outputs": [],
      "stateMutability": "nonpayable",
      "type": "function"
    },
    {
      "inputs": [
        {
          "internalType": "bytes32",
          "name": "role",
          "type": "bytes32"
        },
        {
          "internalType": "address",
          "name": "account",
          "type": "address"
        }
      ],
      "name": "revokeRole",
      "outputs": [],
      "stateMutability": "nonpayable",
      "type": "function"
    },
    {
      "inputs": [
        {
          "internalType": "address",
          "name": "to",
          "type": "address"
        },
        {
          "internalType": "uint256",
          "name": "tokenId",
          "type": "uint256"
        },
        {
          "internalType": "bytes",
          "name": "data",
          "type": "bytes"
        }
      ],
      "name": "safeMint",
      "outputs": [],
      "stateMutability": "nonpayable",
      "type": "function"
    },
    {
      "inputs": [
        {
          "internalType": "address",
          "name": "from",
          "type": "address"
        },
        {
          "internalType": "address",
          "name": "to",
          "type": "address"
        },
        {
          "internalType": "uint256",
          "name": "tokenId",
          "type": "uint256"
        }
      ],
      "name": "safeTransferFrom",
      "outputs": [],
      "stateMutability": "nonpayable",
      "type": "function"
    },
    {
      "inputs": [
        {
          "internalType": "address",
          "name": "from",
          "type": "address"
        },
        {
          "internalType": "address",
          "name": "to",
          "type": "address"
        },
        {
          "internalType": "uint256",
          "name": "tokenId",
          "type": "uint256"
        },
        {
          "internalType": "bytes",
          "name": "data",
          "type": "bytes"
        }
      ],
      "name": "safeTransferFrom",
      "outputs": [],
      "stateMutability": "nonpayable",
      "type": "function"
    },
    {
      "inputs": [
        {
          "internalType": "address",
          "name": "operator",
          "type": "address"
        },
        {
          "internalType": "bool",
          "name": "approved",
          "type": "bool"
        }
      ],
      "name": "setApprovalForAll",
      "outputs": [],
      "stateMutability": "nonpayable",
      "type": "function"
    },
    {
      "inputs": [
        {
          "internalType": "bytes4",
          "name": "interfaceId",
          "type": "bytes4"
        }
      ],
      "name": "supportsInterface",
      "outputs": [
        {
          "internalType": "bool",
          "name": "",
          "type": "bool"
        }
      ],
      "stateMutability": "view",
      "type": "function"
    },
    {
      "inputs": [
        {
          "internalType": "address",
          "name": "from",
          "type": "address"
        },
        {
          "internalType": "address",
          "name": "to",
          "type": "address"
        },
        {
          "internalType": "uint256",
          "name": "tokenId",
          "type": "uint256"
        }
      ],
      "name": "transferFrom",
      "outputs": [],
      "stateMutability": "nonpayable",
      "type": "function"
    },
    {
      "inputs": [
        {
          "internalType": "address",
          "name": "newOwner",
          "type": "address"
        }
      ],
      "name": "transferOwnership",
      "outputs": [],
      "stateMutability": "nonpayable",
      "type": "function"
    }
  ],
  "bytecode": "0x60a0604052348015600f57600080fd5b50604051612a1b380380612a1b833981016040819052602c91603c565b6001600160a01b0316608052606a565b600060208284031215604d57600080fd5b81516001600160a01b0381168114606357600080fd5b9392505050565b6080516129736100a860003960008181610232015281816102c801528181611dca01528181611e5801528181611f800152611fbe01526129736000f3fe608060405234801561001057600080fd5b50600436106101a35760003560e01c806370a08231116100ee578063b88d4fde11610097578063e1c7392a11610071578063e1c7392a146103da578063e985e9c5146103e2578063f2fde38b146103f5578063f3993d111461040857600080fd5b8063b88d4fde1461038d578063d5391393146103a0578063d547741f146103c757600080fd5b80638da5cb5b116100c85780638da5cb5b1461035f57806391d1485414610367578063a22cb4651461037a57600080fd5b806370a08231146103185780638832e6e3146103395780638bb9c5bf1461034c57600080fd5b806331e66e1e116101505780634684d7e91161012a5780634684d7e9146102a5578063572b6c05146102b85780636352211e1461030557600080fd5b806331e66e1e1461026957806340c10f191461027f57806342842e0e1461029257600080fd5b806323b872dd1161018157806323b872dd1461021d5780632b4c9f16146102305780632f2ff15d1461025657600080fd5b806301ffc9a7146101a8578063081812fc146101d0578063095ea7b314610208575b600080fd5b6101bb6101b636600461240b565b61041b565b60405190151581526020015b60405180910390f35b6101e36101de366004612428565b610435565b60405173ffffffffffffffffffffffffffffffffffffffff90911681526020016101c7565b61021b61021636600461246a565b610449565b005b61021b61022b366004612494565b61046a565b7f00000000000000000000000000000000000000000000000000000000000000006101e3565b61021b6102643660046124d0565b61048e565b6102716104c2565b6040516101c79291906124fc565b61021b61028d36600461246a565b6104d5565b61021b6102a0366004612494565b610524565b61021b6102b3366004612595565b610543565b6101bb6102c63660046125e8565b7f000000000000000000000000000000000000000000000000000000000000000073ffffffffffffffffffffffffffffffffffffffff90811691161490565b6101e3610313366004612428565b6105b7565b61032b6103263660046125e8565b6105cb565b6040519081526020016101c7565b61021b610347366004612645565b6105df565b61021b61035a366004612428565b610667565b6101e3610685565b6101bb6103753660046124d0565b6106b1565b61021b6103883660046126ad565b6106fc565b61021b61039b3660046126e4565b610719565b61032b7f6d696e746572000000000000000000000000000000000000000000000000000081565b61021b6103d53660046124d0565b610743565b61021b610771565b6101bb6103f0366004612753565b6107a4565b61021b6104033660046125e8565b6107f2565b61021b61041636600461277d565b61080d565b600061042f8261042961082e565b9061085c565b92915050565b600061042f82610443610936565b90610964565b610466610454610a1d565b838361045e610936565b929190610a27565b5050565b610489610475610a1d565b848484610480610936565b93929190610ca2565b505050565b6000610498610a1d565b90506104ac816104a6610f80565b90610fae565b6104898383836104ba611019565b929190611047565b3660006104cd61111d565b915091509091565b6105107f6d696e7465720000000000000000000000000000000000000000000000000000610501610a1d565b610509611019565b9190611128565b610466828261051d610936565b91906111ae565b61048961052f610a1d565b84848461053a610936565b939291906112c8565b61056f7f6d696e7465720000000000000000000000000000000000000000000000000000610501610a1d565b610489838383808060200260200160405190810160405280939291908181526020018383602002808284376000920191909152506105b09250610936915050565b919061130e565b600061042f826105c5610936565b90611486565b600061042f826105d9610936565b906114ef565b61060b7f6d696e7465720000000000000000000000000000000000000000000000000000610501610a1d565b610661610616610a1d565b858585858080601f0160208091040260200160405190810160405280939291908181526020018383808284376000920191909152506106589250610936915050565b9392919061156b565b50505050565b610682610672610a1d565b8261067b611019565b91906115a1565b50565b60006106ac610692610f80565b5473ffffffffffffffffffffffffffffffffffffffff1690565b905090565b60006106f583836106c0611019565b60009283526020908152604080842073ffffffffffffffffffffffffffffffffffffffff909316845291905290205460ff1690565b9392505050565b610466610707610a1d565b8383610711610936565b929190611645565b61073c610724610a1d565b8686868686610731610936565b95949392919061175d565b5050505050565b600061074d610a1d565b905061075b816104a6610f80565b610489838383610769611019565b9291906117d3565b61078a61077c610a1d565b610784610f80565b9061189d565b6107926118dc565b61079a611911565b6107a261193f565b565b60006106f583836107b3610936565b919073ffffffffffffffffffffffffffffffffffffffff9182166000908152600393909301602090815260408085209290931684525290205460ff1690565b6106826107fd610a1d565b82610806610f80565b919061196d565b610661610818610a1d565b85858585610824610936565b9493929190611a81565b60008061042f60017fca9d3e17f264b0f3984e2634e94adb37fa3e6a8103f06aeae6fa59e21c769f5e6127d2565b60007c01000000000000000000000000000000000000000000000000000000007fffffffff000000000000000000000000000000000000000000000000000000008316016108ac5750600061042f565b7ffe003659000000000000000000000000000000000000000000000000000000007fffffffff000000000000000000000000000000000000000000000000000000008316016108fd5750600161042f565b507fffffffff00000000000000000000000000000000000000000000000000000000166000908152602091909152604090205460ff1690565b60008061042f60017fddf3ee18ae6d688373c219468f8be446e7ae82215f4779d821c7ea5e8c13c0c16127d2565b60008181526020839052604081205473ffffffffffffffffffffffffffffffffffffffff81166109c8576040517fdd560475000000000000000000000000000000000000000000000000000000008152600481018490526024015b60405180910390fd5b74010000000000000000000000000000000000000000811615610a13575050600081815260028301602052604090205473ffffffffffffffffffffffffffffffffffffffff1661042f565b600091505061042f565b60006106ac611d87565b60008181526020859052604090205473ffffffffffffffffffffffffffffffffffffffff8116610a86576040517fdd560475000000000000000000000000000000000000000000000000000000008152600481018390526024016109bf565b8073ffffffffffffffffffffffffffffffffffffffff80821690851603610af1576040517fb7fdc01000000000000000000000000000000000000000000000000000000000815273ffffffffffffffffffffffffffffffffffffffff821660048201526024016109bf565b610afc868287611ed4565b610b59576040517fc7563a1800000000000000000000000000000000000000000000000000000000815273ffffffffffffffffffffffffffffffffffffffff808716600483015282166024820152604481018490526064016109bf565b73ffffffffffffffffffffffffffffffffffffffff8416610bbe5774010000000000000000000000000000000000000000821615610bb957600083815260208790526040902073ffffffffffffffffffffffffffffffffffffffff821690555b610c3f565b740100000000000000000000000000000000000000008217808314610bef5760008481526020889052604090208190555b506000838152600287016020526040902080547fffffffffffffffffffffffff00000000000000000000000000000000000000001673ffffffffffffffffffffffffffffffffffffffff86161790555b828473ffffffffffffffffffffffffffffffffffffffff168273ffffffffffffffffffffffffffffffffffffffff167f8c5be1e5ebec7d5bd14f71427d1e84f3dd0314c0f7b2291e5b200ac8c7c3b92560405160405180910390a4505050505050565b73ffffffffffffffffffffffffffffffffffffffff8216610cef576040517f86c8706700000000000000000000000000000000000000000000000000000000815260040160405180910390fd5b60008181526020869052604090205473ffffffffffffffffffffffffffffffffffffffff8116610d4e576040517fdd560475000000000000000000000000000000000000000000000000000000008152600481018390526024016109bf565b73ffffffffffffffffffffffffffffffffffffffff84168173ffffffffffffffffffffffffffffffffffffffff1614610dd2576040517f14dbb53600000000000000000000000000000000000000000000000000000000815273ffffffffffffffffffffffffffffffffffffffff85166004820152602481018390526044016109bf565b610ddd868587611ed4565b610e8c577401000000000000000000000000000000000000000081161580610e2e5750600082815260028701602052604090205473ffffffffffffffffffffffffffffffffffffffff868116911614155b15610e8c576040517fa4a3018b00000000000000000000000000000000000000000000000000000000815273ffffffffffffffffffffffffffffffffffffffff808716600483015285166024820152604481018390526064016109bf565b600082815260208790526040902073ffffffffffffffffffffffffffffffffffffffff80851691829055851614610f1d5773ffffffffffffffffffffffffffffffffffffffff80851660009081526001808901602052604080832080547fffffffffffffffffffffffffffffffffffffffffffffffffffffffffffffffff0190559286168252919020805490910190555b818373ffffffffffffffffffffffffffffffffffffffff168573ffffffffffffffffffffffffffffffffffffffff167fddf252ad1be2c89b69c2b068fc378daa952ba7f163c4a11628f55a4df523b3ef60405160405180910390a4505050505050565b60008061042f60017fc9ed16f33ab3a66c84bfd83099ccb2a8845871e2e1c1928f63797152f0fd54cd6127d2565b815473ffffffffffffffffffffffffffffffffffffffff828116911614610466576040517f2ef4875e00000000000000000000000000000000000000000000000000000000815273ffffffffffffffffffffffffffffffffffffffff821660048201526024016109bf565b60008061042f60017fc8827d3282af6f37b64c3e9e6f3ac9df286ab0bb0fccd6f8661bf19adb368b236127d2565b60008381526020858152604080832073ffffffffffffffffffffffffffffffffffffffff8616845290915290205460ff166106615760008381526020858152604080832073ffffffffffffffffffffffffffffffffffffffff8681168086529184529382902080547fffffffffffffffffffffffffffffffffffffffffffffffffffffffffffffff00166001179055815187815292830152918316918101919091527f2f8788117e7eff1d82e926ec794901d17c78024a50270940304540a733656f0d906060015b60405180910390a150505050565b3660006104cd611f49565b60008281526020848152604080832073ffffffffffffffffffffffffffffffffffffffff8516845290915290205460ff16610489576040517f7aa728820000000000000000000000000000000000000000000000000000000081526004810183905273ffffffffffffffffffffffffffffffffffffffff821660248201526044016109bf565b73ffffffffffffffffffffffffffffffffffffffff82166111fb576040517f7851b9cd00000000000000000000000000000000000000000000000000000000815260040160405180910390fd5b60008181526020849052604090205473ffffffffffffffffffffffffffffffffffffffff161561125a576040517f753eceac000000000000000000000000000000000000000000000000000000008152600481018290526024016109bf565b60008181526020848152604080832073ffffffffffffffffffffffffffffffffffffffff86169081905580845260018088019093528184208054909301909255518392907fddf252ad1be2c89b69c2b068fc378daa952ba7f163c4a11628f55a4df523b3ef908290a4505050565b6112d58585858585610ca2565b73ffffffffffffffffffffffffffffffffffffffff82163b1561073c5761073c84848484604051806020016040528060008152506120b9565b73ffffffffffffffffffffffffffffffffffffffff821661135b576040517f7851b9cd00000000000000000000000000000000000000000000000000000000815260040160405180910390fd5b805160005b8181101561145157600083828151811061137c5761137c61280c565b602002602001015190506113ba8660000160008381526020019081526020016000205473ffffffffffffffffffffffffffffffffffffffff16151590565b156113f4576040517f753eceac000000000000000000000000000000000000000000000000000000008152600481018290526024016109bf565b60008181526020879052604080822073ffffffffffffffffffffffffffffffffffffffff88169081905590518392907fddf252ad1be2c89b69c2b068fc378daa952ba7f163c4a11628f55a4df523b3ef908290a450600101611360565b5073ffffffffffffffffffffffffffffffffffffffff9092166000908152600190930160205250604090912080549091019055565b60008181526020839052604081205473ffffffffffffffffffffffffffffffffffffffff81166114e5576040517fdd560475000000000000000000000000000000000000000000000000000000008152600481018490526024016109bf565b805b949350505050565b600073ffffffffffffffffffffffffffffffffffffffff821661153e576040517faefbce4e00000000000000000000000000000000000000000000000000000000815260040160405180910390fd5b5073ffffffffffffffffffffffffffffffffffffffff166000908152600191909101602052604090205490565b6115768584846111ae565b73ffffffffffffffffffffffffffffffffffffffff83163b1561073c5761073c8460008585856120b9565b6115ac838284611128565b60008181526020848152604080832073ffffffffffffffffffffffffffffffffffffffff86168085529083529281902080547fffffffffffffffffffffffffffffffffffffffffffffffffffffffffffffff0016905580518481529182018390528101919091527ff6391f5c32d9c69d2a47ea670b442974b53935d1edc7fd64eb21e047a839171b9060600160405180910390a1505050565b8273ffffffffffffffffffffffffffffffffffffffff168273ffffffffffffffffffffffffffffffffffffffff16036116c2576040517fe4215c6a00000000000000000000000000000000000000000000000000000000815273ffffffffffffffffffffffffffffffffffffffff841660048201526024016109bf565b73ffffffffffffffffffffffffffffffffffffffff838116600081815260038701602090815260408083209487168084529482529182902080547fffffffffffffffffffffffffffffffffffffffffffffffffffffffffffffff001686151590811790915591519182527f17307eab39ab6107e8899845ad3d59bd9653f200f220920489ca2b5937696c31910160405180910390a350505050565b61176a8787878787610ca2565b73ffffffffffffffffffffffffffffffffffffffff84163b156117ca576117ca8686868686868080601f0160208091040260200160405190810160405280939291908181526020018383808284376000920191909152506120b992505050565b50505050505050565b60008381526020858152604080832073ffffffffffffffffffffffffffffffffffffffff8616845290915290205460ff16156106615760008381526020858152604080832073ffffffffffffffffffffffffffffffffffffffff8681168086529184529382902080547fffffffffffffffffffffffffffffffffffffffffffffffffffffffffffffff00169055815187815292830152918316918101919091527ff6391f5c32d9c69d2a47ea670b442974b53935d1edc7fd64eb21e047a839171b9060600161110f565b6118d26118cb60017f5b388d90dc1312ba799f321972f13311234fa1163bcabec7cf66101c4876eb846127d2565b60016121ce565b610466828261221a565b6107a27f80ac58cd00000000000000000000000000000000000000000000000000000000600161190a61082e565b91906122d0565b6107a27ff3993d1100000000000000000000000000000000000000000000000000000000600161190a61082e565b6107a27f8e773e1300000000000000000000000000000000000000000000000000000000600161190a61082e565b825473ffffffffffffffffffffffffffffffffffffffff90811690831681146119da576040517f2ef4875e00000000000000000000000000000000000000000000000000000000815273ffffffffffffffffffffffffffffffffffffffff841660048201526024016109bf565b8173ffffffffffffffffffffffffffffffffffffffff168173ffffffffffffffffffffffffffffffffffffffff16146106615783547fffffffffffffffffffffffff00000000000000000000000000000000000000001673ffffffffffffffffffffffffffffffffffffffff8381169182178655604051908316907f8be0079c531659141344cd1fd0a4f28419497f9722a3daafe3b4186f6b6457e090600090a350505050565b73ffffffffffffffffffffffffffffffffffffffff8316611ace576040517f86c8706700000000000000000000000000000000000000000000000000000000815260040160405180910390fd5b6000611adb878688611ed4565b90508160005b81811015611cff576000858583818110611afd57611afd61280c565b602090810292909201356000818152928d90526040909220549192505073ffffffffffffffffffffffffffffffffffffffff8116611b6a576040517fdd560475000000000000000000000000000000000000000000000000000000008152600481018390526024016109bf565b73ffffffffffffffffffffffffffffffffffffffff89168173ffffffffffffffffffffffffffffffffffffffff1614611bee576040517f14dbb53600000000000000000000000000000000000000000000000000000000815273ffffffffffffffffffffffffffffffffffffffff8a166004820152602481018390526044016109bf565b84611c9e577401000000000000000000000000000000000000000081161580611c405750600082815260028c01602052604090205473ffffffffffffffffffffffffffffffffffffffff8b8116911614155b15611c9e576040517fa4a3018b00000000000000000000000000000000000000000000000000000000815273ffffffffffffffffffffffffffffffffffffffff808c1660048301528a166024820152604481018390526064016109bf565b600082815260208c9052604080822073ffffffffffffffffffffffffffffffffffffffff808c16918290559151859391928d16917fddf252ad1be2c89b69c2b068fc378daa952ba7f163c4a11628f55a4df523b3ef91a45050600101611ae1565b508473ffffffffffffffffffffffffffffffffffffffff168673ffffffffffffffffffffffffffffffffffffffff1614158015611d3b57508015155b15611d7d5773ffffffffffffffffffffffffffffffffffffffff808716600090815260018a016020526040808220805485900390559187168152208054820190555b5050505050505050565b600033321480611d975750601836105b15611da157503390565b7fffffffffffffffffffffffffffffffffffffffffffffffffffffffffffffffec36013560601c7f000000000000000000000000000000000000000000000000000000000000000073ffffffffffffffffffffffffffffffffffffffff16331480611ec357506040517f019a202800000000000000000000000000000000000000000000000000000000815273ffffffffffffffffffffffffffffffffffffffff82811660048301523360248301523060448301527f0000000000000000000000000000000000000000000000000000000000000000169063019a202890606401602060405180830381865afa158015611e9f573d6000803e3d6000fd5b505050506040513d601f19601f82011682018060405250810190611ec3919061283b565b15611ecd57919050565b3391505090565b60008173ffffffffffffffffffffffffffffffffffffffff168373ffffffffffffffffffffffffffffffffffffffff1614806114e757505073ffffffffffffffffffffffffffffffffffffffff9182166000908152600393909301602090815260408085209290931684525290205460ff1690565b36600033321480611f5a5750601836105b15611f685750600091369150565b3373ffffffffffffffffffffffffffffffffffffffff7f00000000000000000000000000000000000000000000000000000000000000001614806120a3575073ffffffffffffffffffffffffffffffffffffffff7f00000000000000000000000000000000000000000000000000000000000000001663019a2028367fffffffffffffffffffffffffffffffffffffffffffffffffffffffffffffffec013560601c6040517fffffffff0000000000000000000000000000000000000000000000000000000060e084901b16815273ffffffffffffffffffffffffffffffffffffffff9091166004820152336024820152306044820152606401602060405180830381865afa15801561207f573d6000803e3d6000fd5b505050506040513d601f19601f820116820180604052508101906120a3919061283b565b156120b0576104cd6123ac565b50600091369150565b6040517f150b7a02000000000000000000000000000000000000000000000000000000008082529073ffffffffffffffffffffffffffffffffffffffff85169063150b7a0290612113908990899088908890600401612858565b6020604051808303816000875af1158015612132573d6000803e3d6000fd5b505050506040513d601f19601f8201168201806040525081019061215691906128f6565b7fffffffff00000000000000000000000000000000000000000000000000000000161461073c576040517fc215a7a100000000000000000000000000000000000000000000000000000000815273ffffffffffffffffffffffffffffffffffffffff84166004820152602481018390526044016109bf565b81548290828110612215576040517fbf0c18ec00000000000000000000000000000000000000000000000000000000815260048101829052602481018490526044016109bf565b505550565b73ffffffffffffffffffffffffffffffffffffffff8116156122a25781547fffffffffffffffffffffffff00000000000000000000000000000000000000001673ffffffffffffffffffffffffffffffffffffffff821690811783556040516000907f8be0079c531659141344cd1fd0a4f28419497f9722a3daafe3b4186f6b6457e0908290a35b6104667f7f5828d000000000000000000000000000000000000000000000000000000000600161190a61082e565b7c01000000000000000000000000000000000000000000000000000000007fffffffff00000000000000000000000000000000000000000000000000000000831601612348576040517f72c683bb00000000000000000000000000000000000000000000000000000000815260040160405180910390fd5b7fffffffff00000000000000000000000000000000000000000000000000000000919091166000908152602092909252604090912080547fffffffffffffffffffffffffffffffffffffffffffffffffffffffffffffff0016911515919091179055565b3660006104cd7fffffffffffffffffffffffffffffffffffffffffffffffffffffffffffffffec8301828481612913565b7fffffffff000000000000000000000000000000000000000000000000000000008116811461068257600080fd5b60006020828403121561241d57600080fd5b81356106f5816123dd565b60006020828403121561243a57600080fd5b5035919050565b803573ffffffffffffffffffffffffffffffffffffffff8116811461246557600080fd5b919050565b6000806040838503121561247d57600080fd5b61248683612441565b946020939093013593505050565b6000806000606084860312156124a957600080fd5b6124b284612441565b92506124c060208501612441565b9150604084013590509250925092565b600080604083850312156124e357600080fd5b823591506124f360208401612441565b90509250929050565b60208152816020820152818360408301376000818301604090810191909152601f9092017fffffffffffffffffffffffffffffffffffffffffffffffffffffffffffffffe0160101919050565b60008083601f84011261255b57600080fd5b50813567ffffffffffffffff81111561257357600080fd5b6020830191508360208260051b850101111561258e57600080fd5b9250929050565b6000806000604084860312156125aa57600080fd5b6125b384612441565b9250602084013567ffffffffffffffff8111156125cf57600080fd5b6125db86828701612549565b9497909650939450505050565b6000602082840312156125fa57600080fd5b6106f582612441565b60008083601f84011261261557600080fd5b50813567ffffffffffffffff81111561262d57600080fd5b60208301915083602082850101111561258e57600080fd5b6000806000806060858703121561265b57600080fd5b61266485612441565b935060208501359250604085013567ffffffffffffffff81111561268757600080fd5b61269387828801612603565b95989497509550505050565b801515811461068257600080fd5b600080604083850312156126c057600080fd5b6126c983612441565b915060208301356126d98161269f565b809150509250929050565b6000806000806000608086880312156126fc57600080fd5b61270586612441565b945061271360208701612441565b935060408601359250606086013567ffffffffffffffff81111561273657600080fd5b61274288828901612603565b969995985093965092949392505050565b6000806040838503121561276657600080fd5b61276f83612441565b91506124f360208401612441565b6000806000806060858703121561279357600080fd5b61279c85612441565b93506127aa60208601612441565b9250604085013567ffffffffffffffff8111156127c657600080fd5b61269387828801612549565b8181038181111561042f577f4e487b7100000000000000000000000000000000000000000000000000000000600052601160045260246000fd5b7f4e487b7100000000000000000000000000000000000000000000000000000000600052603260045260246000fd5b60006020828403121561284d57600080fd5b81516106f58161269f565b600073ffffffffffffffffffffffffffffffffffffffff808716835260208187166020850152856040850152608060608501528451915081608085015260005b828110156128b45785810182015185820160a001528101612898565b5050600060a0828501015260a07fffffffffffffffffffffffffffffffffffffffffffffffffffffffffffffffe0601f83011684010191505095945050505050565b60006020828403121561290857600080fd5b81516106f5816123dd565b6000808585111561292357600080fd5b8386111561293057600080fd5b505082019391909203915056fea26469706673582212205acd079250afb881a3f15bfb75835939aba69e8e74e4aa527126714e73e1461464736f6c63430008190033",
  "linkReferences": {},
  "deployedLinkReferences": {}
}