{
  "_format": "hh-sol-artifact-1",
  "contractName": "ERC721WithoutOperatorFiltererProxiedMock",
  "sourceName": "contracts/mocks/token/ERC721/proxied/ERC721WithoutOperatorFiltererProxiedMock.sol",
  "abi": [
    {
      "inputs": [
        {
          "internalType": "contract IForwarderRegistry",
          "name": "forwarderRegistry",
          "type": "address"
        }
      ],
      "stateMutability": "nonpayable",
      "type": "constructor"
    },
    {
      "anonymous": false,
      "inputs": [
        {
          "indexed": true,
          "internalType": "address",
          "name": "owner",
          "type": "address"
        },
        {
          "indexed": true,
          "internalType": "address",
          "name": "approved",
          "type": "address"
        },
        {
          "indexed": true,
          "internalType": "uint256",
          "name": "tokenId",
          "type": "uint256"
        }
      ],
      "name": "Approval",
      "type": "event"
    },
    {
      "anonymous": false,
      "inputs": [
        {
          "indexed": true,
          "internalType": "address",
          "name": "owner",
          "type": "address"
        },
        {
          "indexed": true,
          "internalType": "address",
          "name": "operator",
          "type": "address"
        },
        {
          "indexed": false,
          "internalType": "bool",
          "name": "approved",
          "type": "bool"
        }
      ],
      "name": "ApprovalForAll",
      "type": "event"
    },
    {
      "anonymous": false,
      "inputs": [
        {
          "indexed": true,
          "internalType": "address",
          "name": "previousOwner",
          "type": "address"
        },
        {
          "indexed": true,
          "internalType": "address",
          "name": "newOwner",
          "type": "address"
        }
      ],
      "name": "OwnershipTransferred",
      "type": "event"
    },
    {
      "anonymous": false,
      "inputs": [
        {
          "indexed": false,
          "internalType": "bytes32",
          "name": "role",
          "type": "bytes32"
        },
        {
          "indexed": false,
          "internalType": "address",
          "name": "account",
          "type": "address"
        },
        {
          "indexed": false,
          "internalType": "address",
          "name": "operator",
          "type": "address"
        }
      ],
      "name": "RoleGranted",
      "type": "event"
    },
    {
      "anonymous": false,
      "inputs": [
        {
          "indexed": false,
          "internalType": "bytes32",
          "name": "role",
          "type": "bytes32"
        },
        {
          "indexed": false,
          "internalType": "address",
          "name": "account",
          "type": "address"
        },
        {
          "indexed": false,
          "internalType": "address",
          "name": "operator",
          "type": "address"
        }
      ],
      "name": "RoleRevoked",
      "type": "event"
    },
    {
      "anonymous": false,
      "inputs": [
        {
          "indexed": true,
          "internalType": "address",
          "name": "from",
          "type": "address"
        },
        {
          "indexed": true,
          "internalType": "address",
          "name": "to",
          "type": "address"
        },
        {
          "indexed": true,
          "internalType": "uint256",
          "name": "tokenId",
          "type": "uint256"
        }
      ],
      "name": "Transfer",
      "type": "event"
    },
    {
      "inputs": [],
      "name": "MINTER_ROLE",
      "outputs": [
        {
          "internalType": "bytes32",
          "name": "",
          "type": "bytes32"
        }
      ],
      "stateMutability": "view",
      "type": "function"
    },
    {
      "inputs": [],
      "name": "__msgData",
      "outputs": [
        {
          "internalType": "bytes",
          "name": "",
          "type": "bytes"
        }
      ],
      "stateMutability": "view",
      "type": "function"
    },
    {
      "inputs": [
        {
          "internalType": "address",
          "name": "to",
          "type": "address"
        },
        {
          "internalType": "uint256",
          "name": "tokenId",
          "type": "uint256"
        }
      ],
      "name": "approve",
      "outputs": [],
      "stateMutability": "nonpayable",
      "type": "function"
    },
    {
      "inputs": [
        {
          "internalType": "address",
          "name": "owner",
          "type": "address"
        }
      ],
      "name": "balanceOf",
      "outputs": [
        {
          "internalType": "uint256",
          "name": "balance",
          "type": "uint256"
        }
      ],
      "stateMutability": "view",
      "type": "function"
    },
    {
      "inputs": [
        {
          "internalType": "address",
          "name": "to",
          "type": "address"
        },
        {
          "internalType": "uint256[]",
          "name": "tokenIds",
          "type": "uint256[]"
        }
      ],
      "name": "batchMint",
      "outputs": [],
      "stateMutability": "nonpayable",
      "type": "function"
    },
    {
      "inputs": [
        {
          "internalType": "address",
          "name": "from",
          "type": "address"
        },
        {
          "internalType": "address",
          "name": "to",
          "type": "address"
        },
        {
          "internalType": "uint256[]",
          "name": "tokenIds",
          "type": "uint256[]"
        }
      ],
      "name": "batchTransferFrom",
      "outputs": [],
      "stateMutability": "nonpayable",
      "type": "function"
    },
    {
      "inputs": [],
      "name": "forwarderRegistry",
      "outputs": [
        {
          "internalType": "contract IForwarderRegistry",
          "name": "",
          "type": "address"
        }
      ],
      "stateMutability": "view",
      "type": "function"
    },
    {
      "inputs": [
        {
          "internalType": "uint256",
          "name": "tokenId",
          "type": "uint256"
        }
      ],
      "name": "getApproved",
      "outputs": [
        {
          "internalType": "address",
          "name": "approved",
          "type": "address"
        }
      ],
      "stateMutability": "view",
      "type": "function"
    },
    {
      "inputs": [
        {
          "internalType": "bytes32",
          "name": "role",
          "type": "bytes32"
        },
        {
          "internalType": "address",
          "name": "account",
          "type": "address"
        }
      ],
      "name": "grantRole",
      "outputs": [],
      "stateMutability": "nonpayable",
      "type": "function"
    },
    {
      "inputs": [
        {
          "internalType": "bytes32",
          "name": "role",
          "type": "bytes32"
        },
        {
          "internalType": "address",
          "name": "account",
          "type": "address"
        }
      ],
      "name": "hasRole",
      "outputs": [
        {
          "internalType": "bool",
          "name": "hasRole_",
          "type": "bool"
        }
      ],
      "stateMutability": "view",
      "type": "function"
    },
    {
      "inputs": [],
      "name": "init",
      "outputs": [],
      "stateMutability": "nonpayable",
      "type": "function"
    },
    {
      "inputs": [
        {
          "internalType": "address",
          "name": "owner",
          "type": "address"
        },
        {
          "internalType": "address",
          "name": "operator",
          "type": "address"
        }
      ],
      "name": "isApprovedForAll",
      "outputs": [
        {
          "internalType": "bool",
          "name": "approvedForAll",
          "type": "bool"
        }
      ],
      "stateMutability": "view",
      "type": "function"
    },
    {
      "inputs": [
        {
          "internalType": "address",
          "name": "forwarder",
          "type": "address"
        }
      ],
      "name": "isTrustedForwarder",
      "outputs": [
        {
          "internalType": "bool",
          "name": "",
          "type": "bool"
        }
      ],
      "stateMutability": "view",
      "type": "function"
    },
    {
      "inputs": [
        {
          "internalType": "address",
          "name": "to",
          "type": "address"
        },
        {
          "internalType": "uint256",
          "name": "tokenId",
          "type": "uint256"
        }
      ],
      "name": "mint",
      "outputs": [],
      "stateMutability": "nonpayable",
      "type": "function"
    },
    {
      "inputs": [],
      "name": "owner",
      "outputs": [
        {
          "internalType": "address",
          "name": "",
          "type": "address"
        }
      ],
      "stateMutability": "view",
      "type": "function"
    },
    {
      "inputs": [
        {
          "internalType": "uint256",
          "name": "tokenId",
          "type": "uint256"
        }
      ],
      "name": "ownerOf",
      "outputs": [
        {
          "internalType": "address",
          "name": "tokenOwner",
          "type": "address"
        }
      ],
      "stateMutability": "view",
      "type": "function"
    },
    {
      "inputs": [
        {
          "internalType": "bytes32",
          "name": "role",
          "type": "bytes32"
        }
      ],
      "name": "renounceRole",
      "outputs": [],
      "stateMutability": "nonpayable",
      "type": "function"
    },
    {
      "inputs": [
        {
          "internalType": "bytes32",
          "name": "role",
          "type": "bytes32"
        },
        {
          "internalType": "address",
          "name": "account",
          "type": "address"
        }
      ],
      "name": "revokeRole",
      "outputs": [],
      "stateMutability": "nonpayable",
      "type": "function"
    },
    {
      "inputs": [
        {
          "internalType": "address",
          "name": "to",
          "type": "address"
        },
        {
          "internalType": "uint256",
          "name": "tokenId",
          "type": "uint256"
        },
        {
          "internalType": "bytes",
          "name": "data",
          "type": "bytes"
        }
      ],
      "name": "safeMint",
      "outputs": [],
      "stateMutability": "nonpayable",
      "type": "function"
    },
    {
      "inputs": [
        {
          "internalType": "address",
          "name": "from",
          "type": "address"
        },
        {
          "internalType": "address",
          "name": "to",
          "type": "address"
        },
        {
          "internalType": "uint256",
          "name": "tokenId",
          "type": "uint256"
        }
      ],
      "name": "safeTransferFrom",
      "outputs": [],
      "stateMutability": "nonpayable",
      "type": "function"
    },
    {
      "inputs": [
        {
          "internalType": "address",
          "name": "from",
          "type": "address"
        },
        {
          "internalType": "address",
          "name": "to",
          "type": "address"
        },
        {
          "internalType": "uint256",
          "name": "tokenId",
          "type": "uint256"
        },
        {
          "internalType": "bytes",
          "name": "data",
          "type": "bytes"
        }
      ],
      "name": "safeTransferFrom",
      "outputs": [],
      "stateMutability": "nonpayable",
      "type": "function"
    },
    {
      "inputs": [
        {
          "internalType": "address",
          "name": "operator",
          "type": "address"
        },
        {
          "internalType": "bool",
          "name": "approved",
          "type": "bool"
        }
      ],
      "name": "setApprovalForAll",
      "outputs": [],
      "stateMutability": "nonpayable",
      "type": "function"
    },
    {
      "inputs": [
        {
          "internalType": "bytes4",
          "name": "interfaceId",
          "type": "bytes4"
        }
      ],
      "name": "supportsInterface",
      "outputs": [
        {
          "internalType": "bool",
          "name": "",
          "type": "bool"
        }
      ],
      "stateMutability": "view",
      "type": "function"
    },
    {
      "inputs": [
        {
          "internalType": "address",
          "name": "from",
          "type": "address"
        },
        {
          "internalType": "address",
          "name": "to",
          "type": "address"
        },
        {
          "internalType": "uint256",
          "name": "tokenId",
          "type": "uint256"
        }
      ],
      "name": "transferFrom",
      "outputs": [],
      "stateMutability": "nonpayable",
      "type": "function"
    },
    {
      "inputs": [
        {
          "internalType": "address",
          "name": "newOwner",
          "type": "address"
        }
      ],
      "name": "transferOwnership",
      "outputs": [],
      "stateMutability": "nonpayable",
      "type": "function"
    }
  ],
  "bytecode": "0x60a060405234801562000010575f80fd5b5060405162002f1f38038062002f1f833981016040819052620000339162000045565b6001600160a01b031660805262000074565b5f6020828403121562000056575f80fd5b81516001600160a01b03811681146200006d575f80fd5b9392505050565b608051612e6f620000b05f395f8181610228015281816102be0152818161206b015281816120f30152818161221501526122530152612e6f5ff3fe608060405234801561000f575f80fd5b506004361061019a575f3560e01c806370a08231116100e8578063b88d4fde11610093578063e1c7392a1161006e578063e1c7392a146103d0578063e985e9c5146103d8578063f2fde38b146103eb578063f3993d11146103fe575f80fd5b8063b88d4fde14610383578063d539139314610396578063d547741f146103bd575f80fd5b80638da5cb5b116100c35780638da5cb5b1461035557806391d148541461035d578063a22cb46514610370575f80fd5b806370a082311461030e5780638832e6e31461032f5780638bb9c5bf14610342575f80fd5b806331e66e1e116101485780634684d7e9116101235780634684d7e91461029b578063572b6c05146102ae5780636352211e146102fb575f80fd5b806331e66e1e1461025f57806340c10f191461027557806342842e0e14610288575f80fd5b806323b872dd1161017857806323b872dd146102135780632b4c9f16146102265780632f2ff15d1461024c575f80fd5b806301ffc9a71461019e578063081812fc146101c6578063095ea7b3146101fe575b5f80fd5b6101b16101ac366004612880565b610411565b60405190151581526020015b60405180910390f35b6101d96101d436600461289b565b61042a565b60405173ffffffffffffffffffffffffffffffffffffffff90911681526020016101bd565b61021161020c3660046128da565b61043d565b005b610211610221366004612902565b61045e565b7f00000000000000000000000000000000000000000000000000000000000000006101d9565b61021161025a36600461293b565b610482565b6102676104b5565b6040516101bd929190612965565b6102116102833660046128da565b6104c7565b610211610296366004612902565b610516565b6102116102a93660046129f9565b610535565b6101b16102bc366004612a48565b7f000000000000000000000000000000000000000000000000000000000000000073ffffffffffffffffffffffffffffffffffffffff90811691161490565b6101d961030936600461289b565b6105a8565b61032161031c366004612a48565b6105bb565b6040519081526020016101bd565b61021161033d366004612a9f565b6105ce565b61021161035036600461289b565b610655565b6101d9610673565b6101b161036b36600461293b565b61069e565b61021161037e366004612b02565b6106e7565b610211610391366004612b37565b610704565b6103217f6d696e746572000000000000000000000000000000000000000000000000000081565b6102116103cb36600461293b565b61072e565b61021161075b565b6101b16103e6366004612ba1565b61078e565b6102116103f9366004612a48565b6107da565b61021161040c366004612bc9565b6107f5565b5f6104248261041e610816565b90610843565b92915050565b5f6104248261043761091a565b90610947565b61045a610448610a2a565b838361045261091a565b929190610a33565b5050565b61047d610469610a2a565b84848461047461091a565b93929190610cf8565b505050565b5f61048b610a2a565b905061049f81610499611049565b90611076565b61047d8383836104ad6110f9565b929190611126565b365f6104bf6111fa565b915091509091565b6105027f6d696e74657200000000000000000000000000000000000000000000000000006104f3610a2a565b6104fb6110f9565b9190611204565b61045a828261050f61091a565b91906112af565b61047d610521610a2a565b84848461052c61091a565b93929190611424565b6105617f6d696e74657200000000000000000000000000000000000000000000000000006104f3610a2a565b61047d838383808060200260200160405190810160405280939291908181526020018383602002808284375f920191909152506105a1925061091a915050565b9190611469565b5f610424826105b561091a565b90611636565b5f610424826105c861091a565b906116cb565b6105fa7f6d696e74657200000000000000000000000000000000000000000000000000006104f3610a2a565b61064f610605610a2a565b858585858080601f0160208091040260200160405190810160405280939291908181526020018383808284375f92019190915250610646925061091a915050565b93929190611775565b50505050565b610670610660610a2a565b826106696110f9565b91906117aa565b50565b5f61069961067f611049565b5473ffffffffffffffffffffffffffffffffffffffff1690565b905090565b5f6106e083836106ac6110f9565b5f9283526020908152604080842073ffffffffffffffffffffffffffffffffffffffff909316845291905290205460ff1690565b9392505050565b61045a6106f2610a2a565b83836106fc61091a565b92919061184d565b61072761070f610a2a565b868686868661071c61091a565b95949392919061197c565b5050505050565b5f610737610a2a565b905061074581610499611049565b61047d8383836107536110f9565b9291906119f1565b610774610766610a2a565b61076e611049565b90611ab9565b61077c611af8565b610784611b2d565b61078c611b5b565b565b5f6106e0838361079c61091a565b919073ffffffffffffffffffffffffffffffffffffffff9182165f908152600393909301602090815260408085209290931684525290205460ff1690565b6106706107e5610a2a565b826107ee611049565b9190611b89565b61064f610800610a2a565b8585858561080c61091a565b9493929190611cb4565b5f8061042460017fca9d3e17f264b0f3984e2634e94adb37fa3e6a8103f06aeae6fa59e21c769f5e612c1a565b5f7c01000000000000000000000000000000000000000000000000000000007fffffffff0000000000000000000000000000000000000000000000000000000083160161089157505f610424565b7ffe003659000000000000000000000000000000000000000000000000000000007fffffffff000000000000000000000000000000000000000000000000000000008316016108e257506001610424565b507fffffffff00000000000000000000000000000000000000000000000000000000165f908152602091909152604090205460ff1690565b5f8061042460017fddf3ee18ae6d688373c219468f8be446e7ae82215f4779d821c7ea5e8c13c0c1612c1a565b5f8181526020839052604081205473ffffffffffffffffffffffffffffffffffffffff81166109d7576040517f08c379a000000000000000000000000000000000000000000000000000000000815260206004820152601a60248201527f4552433732313a206e6f6e2d6578697374696e6720746f6b656e00000000000060448201526064015b60405180910390fd5b74010000000000000000000000000000000000000000811615610a215750505f81815260028301602052604090205473ffffffffffffffffffffffffffffffffffffffff16610424565b5f915050610424565b5f610699612029565b5f8181526020859052604090205473ffffffffffffffffffffffffffffffffffffffff8116610abe576040517f08c379a000000000000000000000000000000000000000000000000000000000815260206004820152601a60248201527f4552433732313a206e6f6e2d6578697374696e6720746f6b656e00000000000060448201526064016109ce565b8073ffffffffffffffffffffffffffffffffffffffff80821690851603610b41576040517f08c379a000000000000000000000000000000000000000000000000000000000815260206004820152601560248201527f4552433732313a2073656c662d617070726f76616c000000000000000000000060448201526064016109ce565b610b4c86828761216d565b610bb2576040517f08c379a000000000000000000000000000000000000000000000000000000000815260206004820152601b60248201527f4552433732313a206e6f6e2d617070726f7665642073656e646572000000000060448201526064016109ce565b73ffffffffffffffffffffffffffffffffffffffff8416610c165774010000000000000000000000000000000000000000821615610c11575f83815260208790526040902073ffffffffffffffffffffffffffffffffffffffff821690555b610c95565b740100000000000000000000000000000000000000008217808314610c46575f8481526020889052604090208190555b505f838152600287016020526040902080547fffffffffffffffffffffffff00000000000000000000000000000000000000001673ffffffffffffffffffffffffffffffffffffffff86161790555b828473ffffffffffffffffffffffffffffffffffffffff168273ffffffffffffffffffffffffffffffffffffffff167f8c5be1e5ebec7d5bd14f71427d1e84f3dd0314c0f7b2291e5b200ac8c7c3b92560405160405180910390a4505050505050565b73ffffffffffffffffffffffffffffffffffffffff8216610d75576040517f08c379a000000000000000000000000000000000000000000000000000000000815260206004820152601e60248201527f4552433732313a207472616e7366657220746f2061646472657373283029000060448201526064016109ce565b5f8181526020869052604090205473ffffffffffffffffffffffffffffffffffffffff8116610e00576040517f08c379a000000000000000000000000000000000000000000000000000000000815260206004820152601a60248201527f4552433732313a206e6f6e2d6578697374696e6720746f6b656e00000000000060448201526064016109ce565b73ffffffffffffffffffffffffffffffffffffffff84168173ffffffffffffffffffffffffffffffffffffffff1614610e95576040517f08c379a000000000000000000000000000000000000000000000000000000000815260206004820152601760248201527f4552433732313a206e6f6e2d6f776e656420746f6b656e00000000000000000060448201526064016109ce565b610ea086858761216d565b610f575774010000000000000000000000000000000000000000811615158015610ef157505f82815260028701602052604090205473ffffffffffffffffffffffffffffffffffffffff8681169116145b610f57576040517f08c379a000000000000000000000000000000000000000000000000000000000815260206004820152601b60248201527f4552433732313a206e6f6e2d617070726f7665642073656e646572000000000060448201526064016109ce565b5f82815260208790526040902073ffffffffffffffffffffffffffffffffffffffff80851691829055851614610fe65773ffffffffffffffffffffffffffffffffffffffff8085165f9081526001808901602052604080832080547fffffffffffffffffffffffffffffffffffffffffffffffffffffffffffffffff0190559286168252919020805490910190555b818373ffffffffffffffffffffffffffffffffffffffff168573ffffffffffffffffffffffffffffffffffffffff167fddf252ad1be2c89b69c2b068fc378daa952ba7f163c4a11628f55a4df523b3ef60405160405180910390a4505050505050565b5f8061042460017fc9ed16f33ab3a66c84bfd83099ccb2a8845871e2e1c1928f63797152f0fd54cd612c1a565b815473ffffffffffffffffffffffffffffffffffffffff82811691161461045a576040517f08c379a000000000000000000000000000000000000000000000000000000000815260206004820152601860248201527f4f776e6572736869703a206e6f7420746865206f776e6572000000000000000060448201526064016109ce565b5f8061042460017fc8827d3282af6f37b64c3e9e6f3ac9df286ab0bb0fccd6f8661bf19adb368b23612c1a565b5f8381526020858152604080832073ffffffffffffffffffffffffffffffffffffffff8616845290915290205460ff1661064f575f8381526020858152604080832073ffffffffffffffffffffffffffffffffffffffff8681168086529184529382902080547fffffffffffffffffffffffffffffffffffffffffffffffffffffffffffffff00166001179055815187815292830152918316918101919091527f2f8788117e7eff1d82e926ec794901d17c78024a50270940304540a733656f0d906060015b60405180910390a150505050565b365f6104bf6121e0565b5f8281526020848152604080832073ffffffffffffffffffffffffffffffffffffffff8516845290915290205460ff1661047d5761124182612345565b6040516020016112519190612c74565b604080517fffffffffffffffffffffffffffffffffffffffffffffffffffffffffffffffe0818403018152908290527f08c379a00000000000000000000000000000000000000000000000000000000082526109ce91600401612d28565b73ffffffffffffffffffffffffffffffffffffffff821661132c576040517f08c379a000000000000000000000000000000000000000000000000000000000815260206004820152601a60248201527f4552433732313a206d696e7420746f206164647265737328302900000000000060448201526064016109ce565b5f8181526020849052604090205473ffffffffffffffffffffffffffffffffffffffff16156113b7576040517f08c379a000000000000000000000000000000000000000000000000000000000815260206004820152601660248201527f4552433732313a206578697374696e6720746f6b656e0000000000000000000060448201526064016109ce565b5f8181526020848152604080832073ffffffffffffffffffffffffffffffffffffffff86169081905580845260018088019093528184208054909301909255518392907fddf252ad1be2c89b69c2b068fc378daa952ba7f163c4a11628f55a4df523b3ef908290a4505050565b6114318585858585610cf8565b73ffffffffffffffffffffffffffffffffffffffff82163b15610727576107278484848460405180602001604052805f8152506124d0565b73ffffffffffffffffffffffffffffffffffffffff82166114e6576040517f08c379a000000000000000000000000000000000000000000000000000000000815260206004820152601a60248201527f4552433732313a206d696e7420746f206164647265737328302900000000000060448201526064016109ce565b80515f5b818114611602575f83828151811061150457611504612d3a565b6020026020010151905061153f865f015f8381526020019081526020015f205473ffffffffffffffffffffffffffffffffffffffff16151590565b156115a6576040517f08c379a000000000000000000000000000000000000000000000000000000000815260206004820152601660248201527f4552433732313a206578697374696e6720746f6b656e0000000000000000000060448201526064016109ce565b5f8181526020879052604080822073ffffffffffffffffffffffffffffffffffffffff88169081905590518392907fddf252ad1be2c89b69c2b068fc378daa952ba7f163c4a11628f55a4df523b3ef908290a4506001016114ea565b5073ffffffffffffffffffffffffffffffffffffffff9092165f908152600190930160205250604090912080549091019055565b5f8181526020839052604081205473ffffffffffffffffffffffffffffffffffffffff81166116c1576040517f08c379a000000000000000000000000000000000000000000000000000000000815260206004820152601a60248201527f4552433732313a206e6f6e2d6578697374696e6720746f6b656e00000000000060448201526064016109ce565b805b949350505050565b5f73ffffffffffffffffffffffffffffffffffffffff8216611749576040517f08c379a000000000000000000000000000000000000000000000000000000000815260206004820152601d60248201527f4552433732313a2062616c616e6365206f66206164647265737328302900000060448201526064016109ce565b5073ffffffffffffffffffffffffffffffffffffffff165f908152600191909101602052604090205490565b6117808584846112af565b73ffffffffffffffffffffffffffffffffffffffff83163b1561072757610727845f8585856124d0565b6117b5838284611204565b5f8181526020848152604080832073ffffffffffffffffffffffffffffffffffffffff86168085529083529281902080547fffffffffffffffffffffffffffffffffffffffffffffffffffffffffffffff0016905580518481529182018390528101919091527ff6391f5c32d9c69d2a47ea670b442974b53935d1edc7fd64eb21e047a839171b9060600160405180910390a1505050565b8273ffffffffffffffffffffffffffffffffffffffff168273ffffffffffffffffffffffffffffffffffffffff16036118e2576040517f08c379a000000000000000000000000000000000000000000000000000000000815260206004820152601d60248201527f4552433732313a2073656c662d617070726f76616c20666f7220616c6c00000060448201526064016109ce565b73ffffffffffffffffffffffffffffffffffffffff8381165f81815260038701602090815260408083209487168084529482529182902080547fffffffffffffffffffffffffffffffffffffffffffffffffffffffffffffff001686151590811790915591519182527f17307eab39ab6107e8899845ad3d59bd9653f200f220920489ca2b5937696c31910160405180910390a350505050565b6119898787878787610cf8565b73ffffffffffffffffffffffffffffffffffffffff84163b156119e8576119e88686868686868080601f0160208091040260200160405190810160405280939291908181526020018383808284375f920191909152506124d092505050565b50505050505050565b5f8381526020858152604080832073ffffffffffffffffffffffffffffffffffffffff8616845290915290205460ff161561064f575f8381526020858152604080832073ffffffffffffffffffffffffffffffffffffffff8681168086529184529382902080547fffffffffffffffffffffffffffffffffffffffffffffffffffffffffffffff00169055815187815292830152918316918101919091527ff6391f5c32d9c69d2a47ea670b442974b53935d1edc7fd64eb21e047a839171b906060016111ec565b611aee611ae760017f5b388d90dc1312ba799f321972f13311234fa1163bcabec7cf66101c4876eb84612c1a565b60016125f3565b61045a8282612663565b61078c7f80ac58cd000000000000000000000000000000000000000000000000000000006001611b26610816565b9190612718565b61078c7ff3993d11000000000000000000000000000000000000000000000000000000006001611b26610816565b61078c7f8e773e13000000000000000000000000000000000000000000000000000000006001611b26610816565b825473ffffffffffffffffffffffffffffffffffffffff9081169083168114611c0e576040517f08c379a000000000000000000000000000000000000000000000000000000000815260206004820152601860248201527f4f776e6572736869703a206e6f7420746865206f776e6572000000000000000060448201526064016109ce565b8173ffffffffffffffffffffffffffffffffffffffff168173ffffffffffffffffffffffffffffffffffffffff161461064f5783547fffffffffffffffffffffffff00000000000000000000000000000000000000001673ffffffffffffffffffffffffffffffffffffffff8381169182178655604051908316907f8be0079c531659141344cd1fd0a4f28419497f9722a3daafe3b4186f6b6457e0905f90a350505050565b73ffffffffffffffffffffffffffffffffffffffff8316611d31576040517f08c379a000000000000000000000000000000000000000000000000000000000815260206004820152601e60248201527f4552433732313a207472616e7366657220746f2061646472657373283029000060448201526064016109ce565b5f611d3d87868861216d565b9050815f5b818114611fa2575f858583818110611d5c57611d5c612d3a565b602090810292909201355f818152928d90526040909220549192505073ffffffffffffffffffffffffffffffffffffffff8116611df5576040517f08c379a000000000000000000000000000000000000000000000000000000000815260206004820152601a60248201527f4552433732313a206e6f6e2d6578697374696e6720746f6b656e00000000000060448201526064016109ce565b73ffffffffffffffffffffffffffffffffffffffff89168173ffffffffffffffffffffffffffffffffffffffff1614611e8a576040517f08c379a000000000000000000000000000000000000000000000000000000000815260206004820152601760248201527f4552433732313a206e6f6e2d6f776e656420746f6b656e00000000000000000060448201526064016109ce565b84611f425774010000000000000000000000000000000000000000811615158015611edc57505f82815260028c01602052604090205473ffffffffffffffffffffffffffffffffffffffff8b81169116145b611f42576040517f08c379a000000000000000000000000000000000000000000000000000000000815260206004820152601b60248201527f4552433732313a206e6f6e2d617070726f7665642073656e646572000000000060448201526064016109ce565b5f82815260208c9052604080822073ffffffffffffffffffffffffffffffffffffffff808c16918290559151859391928d16917fddf252ad1be2c89b69c2b068fc378daa952ba7f163c4a11628f55a4df523b3ef91a45050600101611d42565b508473ffffffffffffffffffffffffffffffffffffffff168673ffffffffffffffffffffffffffffffffffffffff1614158015611fde57508015155b1561201f5773ffffffffffffffffffffffffffffffffffffffff8087165f90815260018a016020526040808220805485900390559187168152208054820190555b5050505050505050565b5f333214806120385750601836105b1561204257503390565b7fffffffffffffffffffffffffffffffffffffffffffffffffffffffffffffffec36013560601c7f000000000000000000000000000000000000000000000000000000000000000073ffffffffffffffffffffffffffffffffffffffff1633148061215c57506040517f8929a8ca00000000000000000000000000000000000000000000000000000000815273ffffffffffffffffffffffffffffffffffffffff82811660048301523360248301527f00000000000000000000000000000000000000000000000000000000000000001690638929a8ca90604401602060405180830381865afa158015612138573d5f803e3d5ffd5b505050506040513d601f19601f8201168201806040525081019061215c9190612d67565b1561216657919050565b3391505090565b5f8173ffffffffffffffffffffffffffffffffffffffff168373ffffffffffffffffffffffffffffffffffffffff1614806116c357505073ffffffffffffffffffffffffffffffffffffffff9182165f908152600393909301602090815260408085209290931684525290205460ff1690565b365f333214806121f05750601836105b156121fd57505f91369150565b3373ffffffffffffffffffffffffffffffffffffffff7f0000000000000000000000000000000000000000000000000000000000000000161480612330575073ffffffffffffffffffffffffffffffffffffffff7f000000000000000000000000000000000000000000000000000000000000000016638929a8ca367fffffffffffffffffffffffffffffffffffffffffffffffffffffffffffffffec013560601c6040517fffffffff0000000000000000000000000000000000000000000000000000000060e084901b16815273ffffffffffffffffffffffffffffffffffffffff9091166004820152336024820152604401602060405180830381865afa15801561230c573d5f803e3d5ffd5b505050506040513d601f19601f820116820180604052508101906123309190612d67565b1561233d576104bf612823565b505f91369150565b60605f82900361236257505060408051602081019091525f815290565b5f8260405160200161237691815260200190565b604080517fffffffffffffffffffffffffffffffffffffffffffffffffffffffffffffffe08184030181529190529050601f5b8181815181106123bb576123bb612d3a565b01602001517fff00000000000000000000000000000000000000000000000000000000000000165f0361240f577fffffffffffffffffffffffffffffffffffffffffffffffffffffffffffffffff016123a9565b5f8160010167ffffffffffffffff81111561242c5761242c612d82565b6040519080825280601f01601f191660200182016040528015612456576020820181803683370190505b5090505f5b8281116124c75783818151811061247457612474612d3a565b602001015160f81c60f81b82828151811061249157612491612d3a565b60200101907effffffffffffffffffffffffffffffffffffffffffffffffffffffffffffff191690815f1a90535060010161245b565b50949350505050565b6040517f150b7a02000000000000000000000000000000000000000000000000000000008082529073ffffffffffffffffffffffffffffffffffffffff85169063150b7a029061252a908990899088908890600401612daf565b6020604051808303815f875af1158015612546573d5f803e3d5ffd5b505050506040513d601f19601f8201168201806040525081019061256a9190612df7565b7fffffffff000000000000000000000000000000000000000000000000000000001614610727576040517f08c379a000000000000000000000000000000000000000000000000000000000815260206004820152601e60248201527f4552433732313a2073616665207472616e736665722072656a6563746564000060448201526064016109ce565b81548290821161265f576040517f08c379a000000000000000000000000000000000000000000000000000000000815260206004820152601660248201527f53746f726167653a20706861736520726561636865640000000000000000000060448201526064016109ce565b5550565b73ffffffffffffffffffffffffffffffffffffffff8116156126ea5781547fffffffffffffffffffffffff00000000000000000000000000000000000000001673ffffffffffffffffffffffffffffffffffffffff821690811783556040515f907f8be0079c531659141344cd1fd0a4f28419497f9722a3daafe3b4186f6b6457e0908290a35b61045a7f7f5828d0000000000000000000000000000000000000000000000000000000006001611b26610816565b7c01000000000000000000000000000000000000000000000000000000007fffffffff000000000000000000000000000000000000000000000000000000008316016127c0576040517f08c379a000000000000000000000000000000000000000000000000000000000815260206004820152601f60248201527f496e74657266616365446574656374696f6e3a2077726f6e672076616c75650060448201526064016109ce565b7fffffffff00000000000000000000000000000000000000000000000000000000919091165f908152602092909252604090912080547fffffffffffffffffffffffffffffffffffffffffffffffffffffffffffffff0016911515919091179055565b365f6104bf7fffffffffffffffffffffffffffffffffffffffffffffffffffffffffffffffec8301828481612e12565b7fffffffff0000000000000000000000000000000000000000000000000000000081168114610670575f80fd5b5f60208284031215612890575f80fd5b81356106e081612853565b5f602082840312156128ab575f80fd5b5035919050565b803573ffffffffffffffffffffffffffffffffffffffff811681146128d5575f80fd5b919050565b5f80604083850312156128eb575f80fd5b6128f4836128b2565b946020939093013593505050565b5f805f60608486031215612914575f80fd5b61291d846128b2565b925061292b602085016128b2565b9150604084013590509250925092565b5f806040838503121561294c575f80fd5b8235915061295c602084016128b2565b90509250929050565b60208152816020820152818360408301375f818301604090810191909152601f9092017fffffffffffffffffffffffffffffffffffffffffffffffffffffffffffffffe0160101919050565b5f8083601f8401126129c1575f80fd5b50813567ffffffffffffffff8111156129d8575f80fd5b6020830191508360208260051b85010111156129f2575f80fd5b9250929050565b5f805f60408486031215612a0b575f80fd5b612a14846128b2565b9250602084013567ffffffffffffffff811115612a2f575f80fd5b612a3b868287016129b1565b9497909650939450505050565b5f60208284031215612a58575f80fd5b6106e0826128b2565b5f8083601f840112612a71575f80fd5b50813567ffffffffffffffff811115612a88575f80fd5b6020830191508360208285010111156129f2575f80fd5b5f805f8060608587031215612ab2575f80fd5b612abb856128b2565b935060208501359250604085013567ffffffffffffffff811115612add575f80fd5b612ae987828801612a61565b95989497509550505050565b8015158114610670575f80fd5b5f8060408385031215612b13575f80fd5b612b1c836128b2565b91506020830135612b2c81612af5565b809150509250929050565b5f805f805f60808688031215612b4b575f80fd5b612b54866128b2565b9450612b62602087016128b2565b935060408601359250606086013567ffffffffffffffff811115612b84575f80fd5b612b9088828901612a61565b969995985093965092949392505050565b5f8060408385031215612bb2575f80fd5b612bbb836128b2565b915061295c602084016128b2565b5f805f8060608587031215612bdc575f80fd5b612be5856128b2565b9350612bf3602086016128b2565b9250604085013567ffffffffffffffff811115612c0e575f80fd5b612ae9878288016129b1565b81810381811115610424577f4e487b71000000000000000000000000000000000000000000000000000000005f52601160045260245ffd5b5f5b83811015612c6c578181015183820152602001612c54565b50505f910152565b7f416363657373436f6e74726f6c3a206d697373696e672027000000000000000081525f8251612cab816018850160208701612c52565b7f2720726f6c6500000000000000000000000000000000000000000000000000006018939091019283015250601e01919050565b5f8151808452612cf6816020860160208601612c52565b601f017fffffffffffffffffffffffffffffffffffffffffffffffffffffffffffffffe0169290920160200192915050565b602081525f6106e06020830184612cdf565b7f4e487b71000000000000000000000000000000000000000000000000000000005f52603260045260245ffd5b5f60208284031215612d77575f80fd5b81516106e081612af5565b7f4e487b71000000000000000000000000000000000000000000000000000000005f52604160045260245ffd5b5f73ffffffffffffffffffffffffffffffffffffffff808716835280861660208401525083604083015260806060830152612ded6080830184612cdf565b9695505050505050565b5f60208284031215612e07575f80fd5b81516106e081612853565b5f8085851115612e20575f80fd5b83861115612e2c575f80fd5b505082019391909203915056fea2646970667358221220fabc81bf4c7cce5126fa51fa1d4b9739322cef8c593a4277a262a0ad4ae4957764736f6c63430008150033",
  "linkReferences": {},
  "deployedLinkReferences": {}
}