{
  "_format": "hh-sol-artifact-1",
  "contractName": "ERC721MetadataPerTokenFacetMock",
  "sourceName": "contracts/mocks/token/ERC721/facets/ERC721MetadataPerTokenFacetMock.sol",
  "abi": [
    {
      "inputs": [
        {
          "internalType": "contract IForwarderRegistry",
          "name": "forwarderRegistry",
          "type": "address"
        }
      ],
      "stateMutability": "nonpayable",
      "type": "constructor"
    },
    {
      "inputs": [],
      "name": "__msgData",
      "outputs": [
        {
          "internalType": "bytes",
          "name": "",
          "type": "bytes"
        }
      ],
      "stateMutability": "view",
      "type": "function"
    },
    {
      "inputs": [
        {
          "internalType": "uint256[]",
          "name": "tokenIds",
          "type": "uint256[]"
        },
        {
          "internalType": "string[]",
          "name": "uris",
          "type": "string[]"
        }
      ],
      "name": "batchSetTokenURI",
      "outputs": [],
      "stateMutability": "nonpayable",
      "type": "function"
    },
    {
      "inputs": [
        {
          "internalType": "string",
          "name": "tokenName",
          "type": "string"
        },
        {
          "internalType": "string",
          "name": "tokenSymbol",
          "type": "string"
        }
      ],
      "name": "initERC721MetadataStorage",
      "outputs": [],
      "stateMutability": "nonpayable",
      "type": "function"
    },
    {
      "inputs": [],
      "name": "name",
      "outputs": [
        {
          "internalType": "string",
          "name": "tokenName",
          "type": "string"
        }
      ],
      "stateMutability": "view",
      "type": "function"
    },
    {
      "inputs": [
        {
          "internalType": "uint256",
          "name": "tokenId",
          "type": "uint256"
        },
        {
          "internalType": "string",
          "name": "uri",
          "type": "string"
        }
      ],
      "name": "setTokenURI",
      "outputs": [],
      "stateMutability": "nonpayable",
      "type": "function"
    },
    {
      "inputs": [],
      "name": "symbol",
      "outputs": [
        {
          "internalType": "string",
          "name": "tokenSymbol",
          "type": "string"
        }
      ],
      "stateMutability": "view",
      "type": "function"
    },
    {
      "inputs": [
        {
          "internalType": "uint256",
          "name": "tokenId",
          "type": "uint256"
        }
      ],
      "name": "tokenURI",
      "outputs": [
        {
          "internalType": "string",
          "name": "uri",
          "type": "string"
        }
      ],
      "stateMutability": "view",
      "type": "function"
    }
  ],
  "bytecode": "0x60a060405234801561001057600080fd5b5060405161141a38038061141a83398101604081905261002f91610040565b6001600160a01b0316608052610070565b60006020828403121561005257600080fd5b81516001600160a01b038116811461006957600080fd5b9392505050565b60805161137a6100a0600039600081816107f8015281816108980152818161092c0152610996015261137a6000f3fe608060405234801561001057600080fd5b506004361061007d5760003560e01c80636706467b1161005b5780636706467b146100cb57806395d89b41146100de578063ab7e8850146100e6578063c87b56dd146100f957600080fd5b806306fdde0314610082578063162094c4146100a057806331e66e1e146100b5575b600080fd5b61008a61010c565b6040516100979190610cb0565b60405180910390f35b6100b36100ae366004610d6c565b610123565b005b6100bd61018c565b604051610097929190610db8565b6100b36100d9366004610e4a565b61019f565b61008a6101c8565b6100b36100f4366004610eb6565b6101da565b61008a610107366004610f16565b610271565b606061011e61011961029e565b6102cc565b905090565b61013c61012e610362565b61013661036c565b9061039a565b6101878383838080601f0160208091040260200160405190810160405280939291908181526020018383808284376000920191909152506101809250610426915050565b9190610454565b505050565b36600061019761046c565b915091509091565b6101aa61012e610362565b6101c2848484846101b9610426565b93929190610477565b50505050565b606061011e6101d561029e565b610556565b6101f36101e5610362565b6101ed610567565b90610595565b6101c284848080601f01602080910402602001604051908101604052809392919081815260200183838082843760009201919091525050604080516020601f8801819004810282018101909252868152925086915085908190840183828082843760009201919091525061026a925061029e915050565b9190610618565b60606102858261027f610658565b90610686565b5061029882610292610426565b90610719565b92915050565b60008061029860017f9c4269c0f9f430d98876ffe9767fbf3f3232ea91a549beb549e5329532520eb3610f2f565b60608160000180546102dd90610f6d565b80601f016020809104026020016040519081016040528092919081815260200182805461030990610f6d565b80156103565780601f1061032b57610100808354040283529160200191610356565b820191906000526020600020905b81548152906001019060200180831161033957829003601f168201915b50505050509050919050565b600061011e6107bc565b60008061029860017fc9ed16f33ab3a66c84bfd83099ccb2a8845871e2e1c1928f63797152f0fd54cd610f2f565b815473ffffffffffffffffffffffffffffffffffffffff828116911614610422576040517f08c379a000000000000000000000000000000000000000000000000000000000815260206004820152601860248201527f4f776e6572736869703a206e6f7420746865206f776e6572000000000000000060448201526064015b60405180910390fd5b5050565b60008061029860017f10425d47eba0194223d0d18d437db44682fcfacfc9f759b1b8092cc8a56516aa610f2f565b60008281526020849052604090206101c2828261102f565b366000610197610914565b8281146104e0576040517f08c379a000000000000000000000000000000000000000000000000000000000815260206004820152601d60248201527f4d657461646174613a20696e636f6e73697374656e74206172726179730000006044820152606401610419565b60005b80841461054e578282828181106104fc576104fc611149565b905060200281019061050e9190611178565b87600088888681811061052357610523611149565b90506020020135815260200190815260200160002091826105459291906111dd565b506001016104e3565b505050505050565b60608160010180546102dd90610f6d565b60008061029860017fb53127684a568b3173ae13b9f8a6016e243e63b6e8ee1178d6a717850b5d6104610f2f565b815473ffffffffffffffffffffffffffffffffffffffff828116911614610422576040517f08c379a000000000000000000000000000000000000000000000000000000000815260206004820152601960248201527f50726f787941646d696e3a206e6f74207468652061646d696e000000000000006044820152606401610419565b61064d61064660017f5c5aabce181f75938de01fc8f3ad085dae040f02ff51dda186020471d60f770d610f2f565b6001610a98565b610187838383610b08565b60008061029860017fddf3ee18ae6d688373c219468f8be446e7ae82215f4779d821c7ea5e8c13c0c1610f2f565b60008181526020839052604081205473ffffffffffffffffffffffffffffffffffffffff8116610712576040517f08c379a000000000000000000000000000000000000000000000000000000000815260206004820152601a60248201527f4552433732313a206e6f6e2d6578697374696e6720746f6b656e0000000000006044820152606401610419565b9392505050565b600081815260208390526040902080546060919061073690610f6d565b80601f016020809104026020016040519081016040528092919081815260200182805461076290610f6d565b80156107af5780601f10610784576101008083540402835291602001916107af565b820191906000526020600020905b81548152906001019060200180831161079257829003601f168201915b5050505050905092915050565b6000333281036107cb57919050565b6000367fffffffffffffffffffffffffffffffffffffffffffffffffffffffffffffffec013560601c90507f000000000000000000000000000000000000000000000000000000000000000073ffffffffffffffffffffffffffffffffffffffff168273ffffffffffffffffffffffffffffffffffffffff16148061090357506040517fe60125d600000000000000000000000000000000000000000000000000000000815273ffffffffffffffffffffffffffffffffffffffff828116600483015283811660248301527f0000000000000000000000000000000000000000000000000000000000000000169063e60125d690604401602060405180830381865afa1580156108df573d6000803e3d6000fd5b505050506040513d601f19601f8201168201806040525081019061090391906112f8565b1561090e5792915050565b50919050565b3660003332810361092a57506000923692509050565b7f000000000000000000000000000000000000000000000000000000000000000073ffffffffffffffffffffffffffffffffffffffff168173ffffffffffffffffffffffffffffffffffffffff161480610a77575073ffffffffffffffffffffffffffffffffffffffff7f00000000000000000000000000000000000000000000000000000000000000001663e60125d6367fffffffffffffffffffffffffffffffffffffffffffffffffffffffffffffffec013560601c6040517fffffffff0000000000000000000000000000000000000000000000000000000060e084901b16815273ffffffffffffffffffffffffffffffffffffffff91821660048201529084166024820152604401602060405180830381865afa158015610a53573d6000803e3d6000fd5b505050506040513d601f19601f82011682018060405250810190610a7791906112f8565b15610a8d57610a84610b58565b92509250509091565b506000923692509050565b815482908211610b04576040517f08c379a000000000000000000000000000000000000000000000000000000000815260206004820152601660248201527f53746f726167653a2070686173652072656163686564000000000000000000006044820152606401610419565b5550565b82610b13838261102f565b5060018301610b22828261102f565b506101877f5b5e139f000000000000000000000000000000000000000000000000000000006001610b51610b76565b9190610ba4565b366000808083610b69601482610f2f565b926101979392919061131a565b60008061029860017fca9d3e17f264b0f3984e2634e94adb37fa3e6a8103f06aeae6fa59e21c769f5e610f2f565b7c01000000000000000000000000000000000000000000000000000000007fffffffff00000000000000000000000000000000000000000000000000000000831601610c4c576040517f08c379a000000000000000000000000000000000000000000000000000000000815260206004820152601f60248201527f496e74657266616365446574656374696f6e3a2077726f6e672076616c7565006044820152606401610419565b7fffffffff00000000000000000000000000000000000000000000000000000000919091166000908152602092909252604090912080547fffffffffffffffffffffffffffffffffffffffffffffffffffffffffffffff0016911515919091179055565b600060208083528351808285015260005b81811015610cdd57858101830151858201604001528201610cc1565b81811115610cef576000604083870101525b50601f017fffffffffffffffffffffffffffffffffffffffffffffffffffffffffffffffe016929092016040019392505050565b60008083601f840112610d3557600080fd5b50813567ffffffffffffffff811115610d4d57600080fd5b602083019150836020828501011115610d6557600080fd5b9250929050565b600080600060408486031215610d8157600080fd5b83359250602084013567ffffffffffffffff811115610d9f57600080fd5b610dab86828701610d23565b9497909650939450505050565b60208152816020820152818360408301376000818301604090810191909152601f9092017fffffffffffffffffffffffffffffffffffffffffffffffffffffffffffffffe0160101919050565b60008083601f840112610e1757600080fd5b50813567ffffffffffffffff811115610e2f57600080fd5b6020830191508360208260051b8501011115610d6557600080fd5b60008060008060408587031215610e6057600080fd5b843567ffffffffffffffff80821115610e7857600080fd5b610e8488838901610e05565b90965094506020870135915080821115610e9d57600080fd5b50610eaa87828801610e05565b95989497509550505050565b60008060008060408587031215610ecc57600080fd5b843567ffffffffffffffff80821115610ee457600080fd5b610ef088838901610d23565b90965094506020870135915080821115610f0957600080fd5b50610eaa87828801610d23565b600060208284031215610f2857600080fd5b5035919050565b600082821015610f68577f4e487b7100000000000000000000000000000000000000000000000000000000600052601160045260246000fd5b500390565b600181811c90821680610f8157607f821691505b60208210810361090e577f4e487b7100000000000000000000000000000000000000000000000000000000600052602260045260246000fd5b7f4e487b7100000000000000000000000000000000000000000000000000000000600052604160045260246000fd5b601f82111561018757600081815260208120601f850160051c810160208610156110105750805b601f850160051c820191505b8181101561054e5782815560010161101c565b815167ffffffffffffffff81111561104957611049610fba565b61105d816110578454610f6d565b84610fe9565b602080601f8311600181146110b0576000841561107a5750858301515b7fffffffffffffffffffffffffffffffffffffffffffffffffffffffffffffffff600386901b1c1916600185901b17855561054e565b6000858152602081207fffffffffffffffffffffffffffffffffffffffffffffffffffffffffffffffe08616915b828110156110fd578886015182559484019460019091019084016110de565b508582101561113957878501517fffffffffffffffffffffffffffffffffffffffffffffffffffffffffffffffff600388901b60f8161c191681555b5050505050600190811b01905550565b7f4e487b7100000000000000000000000000000000000000000000000000000000600052603260045260246000fd5b60008083357fffffffffffffffffffffffffffffffffffffffffffffffffffffffffffffffe18436030181126111ad57600080fd5b83018035915067ffffffffffffffff8211156111c857600080fd5b602001915036819003821315610d6557600080fd5b67ffffffffffffffff8311156111f5576111f5610fba565b611209836112038354610f6d565b83610fe9565b6000601f84116001811461125b57600085156112255750838201355b7fffffffffffffffffffffffffffffffffffffffffffffffffffffffffffffffff600387901b1c1916600186901b1783556112f1565b6000838152602090207fffffffffffffffffffffffffffffffffffffffffffffffffffffffffffffffe0861690835b828110156112aa578685013582556020948501946001909201910161128a565b50868210156112e5577fffffffffffffffffffffffffffffffffffffffffffffffffffffffffffffffff60f88860031b161c19848701351681555b505060018560011b0183555b5050505050565b60006020828403121561130a57600080fd5b8151801515811461071257600080fd5b6000808585111561132a57600080fd5b8386111561133757600080fd5b505082019391909203915056fea2646970667358221220c835b97ebf2bba63c4dc9a8bc4b60dca434408b16c6fdeda1ff721d62a4296ac64736f6c634300080f0033",
  "linkReferences": {},
  "deployedLinkReferences": {}
}