{
  "_format": "hh-sol-artifact-1",
  "contractName": "ERC721MetadataPerTokenFacetMock",
  "sourceName": "contracts/mocks/token/ERC721/facets/ERC721MetadataPerTokenFacetMock.sol",
  "abi": [
    {
      "inputs": [
        {
          "internalType": "contract IForwarderRegistry",
          "name": "forwarderRegistry",
          "type": "address"
        }
      ],
      "stateMutability": "nonpayable",
      "type": "constructor"
    },
    {
      "inputs": [],
      "name": "__msgData",
      "outputs": [
        {
          "internalType": "bytes",
          "name": "",
          "type": "bytes"
        }
      ],
      "stateMutability": "view",
      "type": "function"
    },
    {
      "inputs": [
        {
          "internalType": "uint256[]",
          "name": "tokenIds",
          "type": "uint256[]"
        },
        {
          "internalType": "string[]",
          "name": "uris",
          "type": "string[]"
        }
      ],
      "name": "batchSetTokenURI",
      "outputs": [],
      "stateMutability": "nonpayable",
      "type": "function"
    },
    {
      "inputs": [
        {
          "internalType": "string",
          "name": "tokenName",
          "type": "string"
        },
        {
          "internalType": "string",
          "name": "tokenSymbol",
          "type": "string"
        }
      ],
      "name": "initERC721MetadataStorage",
      "outputs": [],
      "stateMutability": "nonpayable",
      "type": "function"
    },
    {
      "inputs": [],
      "name": "name",
      "outputs": [
        {
          "internalType": "string",
          "name": "tokenName",
          "type": "string"
        }
      ],
      "stateMutability": "view",
      "type": "function"
    },
    {
      "inputs": [
        {
          "internalType": "uint256",
          "name": "tokenId",
          "type": "uint256"
        },
        {
          "internalType": "string",
          "name": "uri",
          "type": "string"
        }
      ],
      "name": "setTokenURI",
      "outputs": [],
      "stateMutability": "nonpayable",
      "type": "function"
    },
    {
      "inputs": [],
      "name": "symbol",
      "outputs": [
        {
          "internalType": "string",
          "name": "tokenSymbol",
          "type": "string"
        }
      ],
      "stateMutability": "view",
      "type": "function"
    },
    {
      "inputs": [
        {
          "internalType": "uint256",
          "name": "tokenId",
          "type": "uint256"
        }
      ],
      "name": "tokenURI",
      "outputs": [
        {
          "internalType": "string",
          "name": "uri",
          "type": "string"
        }
      ],
      "stateMutability": "view",
      "type": "function"
    }
  ],
  "bytecode": "0x60a060405234801561001057600080fd5b506040516112ae3803806112ae83398101604081905261002f91610040565b6001600160a01b0316608052610070565b60006020828403121561005257600080fd5b81516001600160a01b038116811461006957600080fd5b9392505050565b60805161120e6100a0600039600081816107fd0152818161089d01528181610931015261099b015261120e6000f3fe608060405234801561001057600080fd5b506004361061007d5760003560e01c80636706467b1161005b5780636706467b146100cb57806395d89b41146100de578063ab7e8850146100e6578063c87b56dd146100f957600080fd5b806306fdde0314610082578063162094c4146100a057806331e66e1e146100b5575b600080fd5b61008a61010c565b6040516100979190610dee565b60405180910390f35b6100b36100ae366004610eaa565b610123565b005b6100bd61018c565b604051610097929190610ef6565b6100b36100d9366004610f88565b61019f565b61008a6101c8565b6100b36100f4366004610ff4565b6101da565b61008a610107366004611054565b610271565b606061011e61011961029e565b6102cc565b905090565b61013c61012e610362565b61013661036c565b9061039a565b6101878383838080601f0160208091040260200160405190810160405280939291908181526020018383808284376000920191909152506101809250610426915050565b9190610454565b505050565b366000610197610471565b915091509091565b6101aa61012e610362565b6101c2848484846101b9610426565b9392919061047c565b50505050565b606061011e6101d561029e565b61055b565b6101f36101e5610362565b6101ed61056c565b9061059a565b6101c284848080601f01602080910402602001604051908101604052809392919081815260200183838082843760009201919091525050604080516020601f8801819004810282018101909252868152925086915085908190840183828082843760009201919091525061026a925061029e915050565b919061061d565b60606102858261027f61065d565b9061068b565b5061029882610292610426565b9061071e565b92915050565b60008061029860017f9c4269c0f9f430d98876ffe9767fbf3f3232ea91a549beb549e5329532520eb361106d565b60608160000180546102dd906110ab565b80601f0160208091040260200160405190810160405280929190818152602001828054610309906110ab565b80156103565780601f1061032b57610100808354040283529160200191610356565b820191906000526020600020905b81548152906001019060200180831161033957829003601f168201915b50505050509050919050565b600061011e6107c1565b60008061029860017fc9ed16f33ab3a66c84bfd83099ccb2a8845871e2e1c1928f63797152f0fd54cd61106d565b815473ffffffffffffffffffffffffffffffffffffffff828116911614610422576040517f08c379a000000000000000000000000000000000000000000000000000000000815260206004820152601860248201527f4f776e6572736869703a206e6f7420746865206f776e6572000000000000000060448201526064015b60405180910390fd5b5050565b60008061029860017f10425d47eba0194223d0d18d437db44682fcfacfc9f759b1b8092cc8a56516aa61106d565b60008281526020848152604090912082516101c292840190610cc3565b366000610197610919565b8281146104e5576040517f08c379a000000000000000000000000000000000000000000000000000000000815260206004820152601d60248201527f4d657461646174613a20696e636f6e73697374656e74206172726179730000006044820152606401610419565b60005b80841461055357828282818110610501576105016110f8565b90506020028101906105139190611127565b876000888886818110610528576105286110f8565b905060200201358152602001908152602001600020919061054a929190610d47565b506001016104e8565b505050505050565b60608160010180546102dd906110ab565b60008061029860017fb53127684a568b3173ae13b9f8a6016e243e63b6e8ee1178d6a717850b5d610461106d565b815473ffffffffffffffffffffffffffffffffffffffff828116911614610422576040517f08c379a000000000000000000000000000000000000000000000000000000000815260206004820152601960248201527f50726f787941646d696e3a206e6f74207468652061646d696e000000000000006044820152606401610419565b61065261064b60017f5c5aabce181f75938de01fc8f3ad085dae040f02ff51dda186020471d60f770d61106d565b6001610a9d565b610187838383610b0d565b60008061029860017fddf3ee18ae6d688373c219468f8be446e7ae82215f4779d821c7ea5e8c13c0c161106d565b60008181526020839052604081205473ffffffffffffffffffffffffffffffffffffffff8116610717576040517f08c379a000000000000000000000000000000000000000000000000000000000815260206004820152601a60248201527f4552433732313a206e6f6e2d6578697374696e6720746f6b656e0000000000006044820152606401610419565b9392505050565b600081815260208390526040902080546060919061073b906110ab565b80601f0160208091040260200160405190810160405280929190818152602001828054610767906110ab565b80156107b45780601f10610789576101008083540402835291602001916107b4565b820191906000526020600020905b81548152906001019060200180831161079757829003601f168201915b5050505050905092915050565b6000333281036107d057919050565b6000367fffffffffffffffffffffffffffffffffffffffffffffffffffffffffffffffec013560601c90507f000000000000000000000000000000000000000000000000000000000000000073ffffffffffffffffffffffffffffffffffffffff168273ffffffffffffffffffffffffffffffffffffffff16148061090857506040517fe60125d600000000000000000000000000000000000000000000000000000000815273ffffffffffffffffffffffffffffffffffffffff828116600483015283811660248301527f0000000000000000000000000000000000000000000000000000000000000000169063e60125d690604401602060405180830381865afa1580156108e4573d6000803e3d6000fd5b505050506040513d601f19601f82011682018060405250810190610908919061118c565b156109135792915050565b50919050565b3660003332810361092f57506000923692509050565b7f000000000000000000000000000000000000000000000000000000000000000073ffffffffffffffffffffffffffffffffffffffff168173ffffffffffffffffffffffffffffffffffffffff161480610a7c575073ffffffffffffffffffffffffffffffffffffffff7f00000000000000000000000000000000000000000000000000000000000000001663e60125d6367fffffffffffffffffffffffffffffffffffffffffffffffffffffffffffffffec013560601c6040517fffffffff0000000000000000000000000000000000000000000000000000000060e084901b16815273ffffffffffffffffffffffffffffffffffffffff91821660048201529084166024820152604401602060405180830381865afa158015610a58573d6000803e3d6000fd5b505050506040513d601f19601f82011682018060405250810190610a7c919061118c565b15610a9257610a89610b6b565b92509250509091565b506000923692509050565b815482908211610b09576040517f08c379a000000000000000000000000000000000000000000000000000000000815260206004820152601660248201527f53746f726167653a2070686173652072656163686564000000000000000000006044820152606401610419565b5550565b8151610b1f9084906020850190610cc3565b508051610b359060018501906020840190610cc3565b506101877f5b5e139f000000000000000000000000000000000000000000000000000000006001610b64610b89565b9190610bb7565b366000808083610b7c60148261106d565b92610197939291906111ae565b60008061029860017fca9d3e17f264b0f3984e2634e94adb37fa3e6a8103f06aeae6fa59e21c769f5e61106d565b7c01000000000000000000000000000000000000000000000000000000007fffffffff00000000000000000000000000000000000000000000000000000000831601610c5f576040517f08c379a000000000000000000000000000000000000000000000000000000000815260206004820152601f60248201527f496e74657266616365446574656374696f6e3a2077726f6e672076616c7565006044820152606401610419565b7fffffffff00000000000000000000000000000000000000000000000000000000919091166000908152602092909252604090912080547fffffffffffffffffffffffffffffffffffffffffffffffffffffffffffffff0016911515919091179055565b828054610ccf906110ab565b90600052602060002090601f016020900481019282610cf15760008555610d37565b82601f10610d0a57805160ff1916838001178555610d37565b82800160010185558215610d37579182015b82811115610d37578251825591602001919060010190610d1c565b50610d43929150610dd9565b5090565b828054610d53906110ab565b90600052602060002090601f016020900481019282610d755760008555610d37565b82601f10610dac578280017fffffffffffffffffffffffffffffffffffffffffffffffffffffffffffffff00823516178555610d37565b82800160010185558215610d37579182015b82811115610d37578235825591602001919060010190610dbe565b5b80821115610d435760008155600101610dda565b600060208083528351808285015260005b81811015610e1b57858101830151858201604001528201610dff565b81811115610e2d576000604083870101525b50601f017fffffffffffffffffffffffffffffffffffffffffffffffffffffffffffffffe016929092016040019392505050565b60008083601f840112610e7357600080fd5b50813567ffffffffffffffff811115610e8b57600080fd5b602083019150836020828501011115610ea357600080fd5b9250929050565b600080600060408486031215610ebf57600080fd5b83359250602084013567ffffffffffffffff811115610edd57600080fd5b610ee986828701610e61565b9497909650939450505050565b60208152816020820152818360408301376000818301604090810191909152601f9092017fffffffffffffffffffffffffffffffffffffffffffffffffffffffffffffffe0160101919050565b60008083601f840112610f5557600080fd5b50813567ffffffffffffffff811115610f6d57600080fd5b6020830191508360208260051b8501011115610ea357600080fd5b60008060008060408587031215610f9e57600080fd5b843567ffffffffffffffff80821115610fb657600080fd5b610fc288838901610f43565b90965094506020870135915080821115610fdb57600080fd5b50610fe887828801610f43565b95989497509550505050565b6000806000806040858703121561100a57600080fd5b843567ffffffffffffffff8082111561102257600080fd5b61102e88838901610e61565b9096509450602087013591508082111561104757600080fd5b50610fe887828801610e61565b60006020828403121561106657600080fd5b5035919050565b6000828210156110a6577f4e487b7100000000000000000000000000000000000000000000000000000000600052601160045260246000fd5b500390565b600181811c908216806110bf57607f821691505b602082108103610913577f4e487b7100000000000000000000000000000000000000000000000000000000600052602260045260246000fd5b7f4e487b7100000000000000000000000000000000000000000000000000000000600052603260045260246000fd5b60008083357fffffffffffffffffffffffffffffffffffffffffffffffffffffffffffffffe184360301811261115c57600080fd5b83018035915067ffffffffffffffff82111561117757600080fd5b602001915036819003821315610ea357600080fd5b60006020828403121561119e57600080fd5b8151801515811461071757600080fd5b600080858511156111be57600080fd5b838611156111cb57600080fd5b505082019391909203915056fea264697066735822122073d41e6f56dddbfee5515c333ba324141cc0bcd209e676077c7b1a01143b9b0a64736f6c634300080e0033",
  "linkReferences": {},
  "deployedLinkReferences": {}
}