{
  "_format": "hh-sol-artifact-1",
  "contractName": "ERC20ReceiverMock",
  "sourceName": "contracts/mocks/token/ERC20/ERC20ReceiverMock.sol",
  "abi": [
    {
      "inputs": [
        {
          "internalType": "bool",
          "name": "accept",
          "type": "bool"
        },
        {
          "internalType": "address",
          "name": "tokenAddress",
          "type": "address"
        }
      ],
      "stateMutability": "nonpayable",
      "type": "constructor"
    },
    {
      "anonymous": false,
      "inputs": [
        {
          "indexed": false,
          "internalType": "address",
          "name": "sender",
          "type": "address"
        },
        {
          "indexed": false,
          "internalType": "address",
          "name": "from",
          "type": "address"
        },
        {
          "indexed": false,
          "internalType": "uint256",
          "name": "value",
          "type": "uint256"
        },
        {
          "indexed": false,
          "internalType": "bytes",
          "name": "data",
          "type": "bytes"
        }
      ],
      "name": "ERC20Received",
      "type": "event"
    },
    {
      "inputs": [
        {
          "internalType": "address",
          "name": "sender",
          "type": "address"
        },
        {
          "internalType": "address",
          "name": "from",
          "type": "address"
        },
        {
          "internalType": "uint256",
          "name": "value",
          "type": "uint256"
        },
        {
          "internalType": "bytes",
          "name": "data",
          "type": "bytes"
        }
      ],
      "name": "onERC20Received",
      "outputs": [
        {
          "internalType": "bytes4",
          "name": "",
          "type": "bytes4"
        }
      ],
      "stateMutability": "nonpayable",
      "type": "function"
    },
    {
      "inputs": [
        {
          "internalType": "bytes4",
          "name": "interfaceId",
          "type": "bytes4"
        }
      ],
      "name": "supportsInterface",
      "outputs": [
        {
          "internalType": "bool",
          "name": "",
          "type": "bool"
        }
      ],
      "stateMutability": "view",
      "type": "function"
    }
  ],
  "bytecode": "0x60c060405234801561001057600080fd5b506040516109a53803806109a583398101604081905261002f91610238565b6100536100446100a060201b6102301760201c565b6100d460201b61025e1760201c565b8115156080526001600160a01b03811660a052610099634fc3585960e01b60016100866100a0602090811b61023017901c565b61013a60201b6102c2179092919060201c565b50506102a8565b6000806100ce60017f7180ffa89c91cf90d6c56dacabfc69bc5e36f3099d7eed2f5cc12c5dba016fe0610283565b92915050565b61011661010260017f947245cdabe12ef4c13574b38217b361de48f57dd2dc345f43703c79bac2873d610283565b60001b60016101c760201b6103b21760201c565b6101376301ffc9a760e01b60018361013a60201b6102c2179092919060201c565b50565b6001600160e01b031980831690036101995760405162461bcd60e51b815260206004820152601f60248201527f496e74657266616365446574656374696f6e3a2077726f6e672076616c75650060448201526064015b60405180910390fd5b6001600160e01b03199190911660009081526020929092526040909120805460ff1916911515919091179055565b60006101dc8361023560201b6104221760201c565b9050818160000154106102315760405162461bcd60e51b815260206004820152601860248201527f53746f726167653a2076657273696f6e207265616368656400000000000000006044820152606401610190565b5550565b90565b6000806040838503121561024b57600080fd5b8251801515811461025b57600080fd5b60208401519092506001600160a01b038116811461027857600080fd5b809150509250929050565b6000828210156102a357634e487b7160e01b600052601160045260246000fd5b500390565b60805160a0516106d86102cd600039600061010e0152600061019c01526106d86000f3fe608060405234801561001057600080fd5b50600436106100365760003560e01c806301ffc9a71461003b5780634fc3585914610063575b600080fd5b61004e610049366004610425565b6100a7565b60405190151581526020015b60405180910390f35b6100766100713660046104c6565b6100f4565b6040517fffffffff00000000000000000000000000000000000000000000000000000000909116815260200161005a565b60006100ee826100b5610230565b907fffffffff00000000000000000000000000000000000000000000000000000000166000908152602091909152604090205460ff1690565b92915050565b60003373ffffffffffffffffffffffffffffffffffffffff7f0000000000000000000000000000000000000000000000000000000000000000161461019a576040517f08c379a000000000000000000000000000000000000000000000000000000000815260206004820152601a60248201527f455243323052656365697665723a2077726f6e6720746f6b656e00000000000060448201526064015b60405180910390fd5b7f000000000000000000000000000000000000000000000000000000000000000015610224577faf27e222a631278dbe6529e0dbf9fca686cfc255d167f9f68192a8e30ba6fa62858585856040516101f594939291906105c0565b60405180910390a1507f4fc3585900000000000000000000000000000000000000000000000000000000610228565b5060005b949350505050565b6000806100ee60017f7180ffa89c91cf90d6c56dacabfc69bc5e36f3099d7eed2f5cc12c5dba016fe0610664565b61029361028c60017f947245cdabe12ef4c13574b38217b361de48f57dd2dc345f43703c79bac2873d610664565b60016103b2565b6102bf817f01ffc9a70000000000000000000000000000000000000000000000000000000060016102c2565b50565b7fffffffff00000000000000000000000000000000000000000000000000000000808316900361034e576040517f08c379a000000000000000000000000000000000000000000000000000000000815260206004820152601f60248201527f496e74657266616365446574656374696f6e3a2077726f6e672076616c7565006044820152606401610191565b7fffffffff00000000000000000000000000000000000000000000000000000000919091166000908152602092909252604090912080547fffffffffffffffffffffffffffffffffffffffffffffffffffffffffffffff0016911515919091179055565b81548290821161041e576040517f08c379a000000000000000000000000000000000000000000000000000000000815260206004820152601860248201527f53746f726167653a2076657273696f6e207265616368656400000000000000006044820152606401610191565b5550565b90565b60006020828403121561043757600080fd5b81357fffffffff000000000000000000000000000000000000000000000000000000008116811461046757600080fd5b9392505050565b803573ffffffffffffffffffffffffffffffffffffffff8116811461049257600080fd5b919050565b7f4e487b7100000000000000000000000000000000000000000000000000000000600052604160045260246000fd5b600080600080608085870312156104dc57600080fd5b6104e58561046e565b93506104f36020860161046e565b925060408501359150606085013567ffffffffffffffff8082111561051757600080fd5b818701915087601f83011261052b57600080fd5b81358181111561053d5761053d610497565b604051601f82017fffffffffffffffffffffffffffffffffffffffffffffffffffffffffffffffe0908116603f0116810190838211818310171561058357610583610497565b816040528281528a602084870101111561059c57600080fd5b82602086016020830137600060208483010152809550505050505092959194509250565b600073ffffffffffffffffffffffffffffffffffffffff8087168352602081871681850152856040850152608060608501528451915081608085015260005b8281101561061b5785810182015185820160a0015281016105ff565b8281111561062d57600060a084870101525b5050601f017fffffffffffffffffffffffffffffffffffffffffffffffffffffffffffffffe0169190910160a00195945050505050565b60008282101561069d577f4e487b7100000000000000000000000000000000000000000000000000000000600052601160045260246000fd5b50039056fea264697066735822122001de2a5ce0a049a519dfbb8352b29e0d86a997f6357ece787a613131e0da34fd64736f6c634300080d0033",
  "linkReferences": {},
  "deployedLinkReferences": {}
}