{
  "_format": "hh-sol-artifact-1",
  "contractName": "ERC20ReceiverMock",
  "sourceName": "contracts/mocks/token/ERC20/ERC20ReceiverMock.sol",
  "abi": [
    {
      "inputs": [
        {
          "internalType": "bool",
          "name": "accept",
          "type": "bool"
        },
        {
          "internalType": "address",
          "name": "tokenAddress",
          "type": "address"
        }
      ],
      "stateMutability": "nonpayable",
      "type": "constructor"
    },
    {
      "anonymous": false,
      "inputs": [
        {
          "indexed": false,
          "internalType": "address",
          "name": "sender",
          "type": "address"
        },
        {
          "indexed": false,
          "internalType": "address",
          "name": "from",
          "type": "address"
        },
        {
          "indexed": false,
          "internalType": "uint256",
          "name": "value",
          "type": "uint256"
        },
        {
          "indexed": false,
          "internalType": "bytes",
          "name": "data",
          "type": "bytes"
        }
      ],
      "name": "ERC20Received",
      "type": "event"
    },
    {
      "inputs": [
        {
          "internalType": "address",
          "name": "sender",
          "type": "address"
        },
        {
          "internalType": "address",
          "name": "from",
          "type": "address"
        },
        {
          "internalType": "uint256",
          "name": "value",
          "type": "uint256"
        },
        {
          "internalType": "bytes",
          "name": "data",
          "type": "bytes"
        }
      ],
      "name": "onERC20Received",
      "outputs": [
        {
          "internalType": "bytes4",
          "name": "",
          "type": "bytes4"
        }
      ],
      "stateMutability": "nonpayable",
      "type": "function"
    },
    {
      "inputs": [
        {
          "internalType": "bytes4",
          "name": "interfaceId",
          "type": "bytes4"
        }
      ],
      "name": "supportsInterface",
      "outputs": [
        {
          "internalType": "bool",
          "name": "",
          "type": "bool"
        }
      ],
      "stateMutability": "view",
      "type": "function"
    }
  ],
  "bytecode": "0x60c060405234801561001057600080fd5b5060405161085838038061085883398101604081905261002f91610138565b610061634fc3585960e01b600161004e61007860201b6101fd1760201c565b6100ac60201b61022b179092919060201c565b9015156080526001600160a01b031660a0526101a8565b6000806100a660017fca9d3e17f264b0f3984e2634e94adb37fa3e6a8103f06aeae6fa59e21c769f5e610183565b92915050565b6001600160e01b0319808316900361010a5760405162461bcd60e51b815260206004820152601f60248201527f496e74657266616365446574656374696f6e3a2077726f6e672076616c756500604482015260640160405180910390fd5b6001600160e01b03199190911660009081526020929092526040909120805460ff1916911515919091179055565b6000806040838503121561014b57600080fd5b8251801515811461015b57600080fd5b60208401519092506001600160a01b038116811461017857600080fd5b809150509250929050565b6000828210156101a357634e487b7160e01b600052601160045260246000fd5b500390565b60805160a05161068c6101cc600039600060db01526000610169015261068c6000f3fe608060405234801561001057600080fd5b50600436106100365760003560e01c806301ffc9a71461003b5780634fc3585914610063575b600080fd5b61004e6100493660046103d9565b6100a7565b60405190151581526020015b60405180910390f35b61007661007136600461047a565b6100c1565b6040517fffffffff00000000000000000000000000000000000000000000000000000000909116815260200161005a565b60006100bb826100b56101fd565b9061031b565b92915050565b60003373ffffffffffffffffffffffffffffffffffffffff7f00000000000000000000000000000000000000000000000000000000000000001614610167576040517f08c379a000000000000000000000000000000000000000000000000000000000815260206004820152601a60248201527f455243323052656365697665723a2077726f6e6720746f6b656e00000000000060448201526064015b60405180910390fd5b7f0000000000000000000000000000000000000000000000000000000000000000156101f1577faf27e222a631278dbe6529e0dbf9fca686cfc255d167f9f68192a8e30ba6fa62858585856040516101c29493929190610574565b60405180910390a1507f4fc35859000000000000000000000000000000000000000000000000000000006101f5565b5060005b949350505050565b6000806100bb60017fca9d3e17f264b0f3984e2634e94adb37fa3e6a8103f06aeae6fa59e21c769f5e610618565b7fffffffff0000000000000000000000000000000000000000000000000000000080831690036102b7576040517f08c379a000000000000000000000000000000000000000000000000000000000815260206004820152601f60248201527f496e74657266616365446574656374696f6e3a2077726f6e672076616c756500604482015260640161015e565b7fffffffff00000000000000000000000000000000000000000000000000000000919091166000908152602092909252604090912080547fffffffffffffffffffffffffffffffffffffffffffffffffffffffffffffff0016911515919091179055565b60007fffffffff00000000000000000000000000000000000000000000000000000000808316900361034f575060006100bb565b7ffe003659000000000000000000000000000000000000000000000000000000007fffffffff000000000000000000000000000000000000000000000000000000008316016103a0575060016100bb565b507fffffffff00000000000000000000000000000000000000000000000000000000166000908152602091909152604090205460ff1690565b6000602082840312156103eb57600080fd5b81357fffffffff000000000000000000000000000000000000000000000000000000008116811461041b57600080fd5b9392505050565b803573ffffffffffffffffffffffffffffffffffffffff8116811461044657600080fd5b919050565b7f4e487b7100000000000000000000000000000000000000000000000000000000600052604160045260246000fd5b6000806000806080858703121561049057600080fd5b61049985610422565b93506104a760208601610422565b925060408501359150606085013567ffffffffffffffff808211156104cb57600080fd5b818701915087601f8301126104df57600080fd5b8135818111156104f1576104f161044b565b604051601f82017fffffffffffffffffffffffffffffffffffffffffffffffffffffffffffffffe0908116603f011681019083821181831017156105375761053761044b565b816040528281528a602084870101111561055057600080fd5b82602086016020830137600060208483010152809550505050505092959194509250565b600073ffffffffffffffffffffffffffffffffffffffff8087168352602081871681850152856040850152608060608501528451915081608085015260005b828110156105cf5785810182015185820160a0015281016105b3565b828111156105e157600060a084870101525b5050601f017fffffffffffffffffffffffffffffffffffffffffffffffffffffffffffffffe0169190910160a00195945050505050565b600082821015610651577f4e487b7100000000000000000000000000000000000000000000000000000000600052601160045260246000fd5b50039056fea264697066735822122012d8cd9acd9489866cdbba828a74a23903a42c5d8c447d2d4963cbb65a8f40f664736f6c634300080e0033",
  "linkReferences": {},
  "deployedLinkReferences": {}
}