{
  "_format": "hh-sol-artifact-1",
  "contractName": "ERC721MintableFacetMock",
  "sourceName": "contracts/mocks/token/ERC721/ERC721MintableFacetMock.sol",
  "abi": [
    {
      "inputs": [
        {
          "internalType": "contract IForwarderRegistry",
          "name": "forwarderRegistry",
          "type": "address"
        }
      ],
      "stateMutability": "nonpayable",
      "type": "constructor"
    },
    {
      "inputs": [],
      "name": "MINTER_ROLE",
      "outputs": [
        {
          "internalType": "bytes32",
          "name": "",
          "type": "bytes32"
        }
      ],
      "stateMutability": "view",
      "type": "function"
    },
    {
      "inputs": [],
      "name": "__msgData",
      "outputs": [
        {
          "internalType": "bytes",
          "name": "",
          "type": "bytes"
        }
      ],
      "stateMutability": "view",
      "type": "function"
    },
    {
      "inputs": [
        {
          "internalType": "address",
          "name": "to",
          "type": "address"
        },
        {
          "internalType": "uint256[]",
          "name": "tokenIds",
          "type": "uint256[]"
        }
      ],
      "name": "batchMint",
      "outputs": [],
      "stateMutability": "nonpayable",
      "type": "function"
    },
    {
      "inputs": [],
      "name": "initERC721MintableStorage",
      "outputs": [],
      "stateMutability": "nonpayable",
      "type": "function"
    },
    {
      "inputs": [
        {
          "internalType": "address",
          "name": "to",
          "type": "address"
        },
        {
          "internalType": "uint256",
          "name": "tokenId",
          "type": "uint256"
        }
      ],
      "name": "mint",
      "outputs": [],
      "stateMutability": "nonpayable",
      "type": "function"
    },
    {
      "inputs": [
        {
          "internalType": "address",
          "name": "to",
          "type": "address"
        },
        {
          "internalType": "uint256",
          "name": "tokenId",
          "type": "uint256"
        },
        {
          "internalType": "bytes",
          "name": "data",
          "type": "bytes"
        }
      ],
      "name": "safeMint",
      "outputs": [],
      "stateMutability": "nonpayable",
      "type": "function"
    }
  ],
  "bytecode": "0x60a060405234801561001057600080fd5b5060405161144b38038061144b83398101604081905261002f91610040565b6001600160a01b0316608052610070565b60006020828403121561005257600080fd5b81516001600160a01b038116811461006957600080fd5b9392505050565b6080516113ab6100a06000396000818161084e015281816108b8015281816109f60152610a9601526113ab6000f3fe608060405234801561001057600080fd5b50600436106100725760003560e01c80638832e6e3116100505780638832e6e3146100be578063a920466f146100d1578063d5391393146100d957600080fd5b806331e66e1e1461007757806340c10f19146100965780634684d7e9146100ab575b600080fd5b61007f61010e565b60405161008d929190610ecc565b60405180910390f35b6100a96100a4366004610f42565b610121565b005b6100a96100b9366004610f6c565b610191565b6100a96100cc366004610ff2565b61020a565b6100a961028c565b6101007f6d696e746572000000000000000000000000000000000000000000000000000081565b60405190815260200161008d565b3660006101196102dc565b915091509091565b61015c7f6d696e746572000000000000000000000000000000000000000000000000000061014d6102e7565b6101556102f6565b919061032a565b61018d6101676102e7565b83836040518060200160405280600081525060006101836103df565b949392919061040d565b5050565b6101bd7f6d696e746572000000000000000000000000000000000000000000000000000061014d6102e7565b610205838383808060200260200160405190810160405280939291908181526020018383602002808284376000920191909152506101fe92506103df915050565b919061051a565b505050565b6102367f6d696e746572000000000000000000000000000000000000000000000000000061014d6102e7565b6102866102416102e7565b858585858080601f0160208091040260200160405190810160405280939291908181526020018383808284376000920191909152506001925061018391506103df9050565b50505050565b6102a56102976102e7565b61029f610667565b90610695565b6102da7f8e773e130000000000000000000000000000000000000000000000000000000060016102d3610718565b9190610746565b565b366000610119610836565b60006102f16109ba565b905090565b60008061032460017fc8a24fbf085abf1493c5f225802d03df3ece6cd19f18edff36c56d854cddac9e6110a8565b92915050565b60008281526020848152604080832073ffffffffffffffffffffffffffffffffffffffff8516845290915290205460ff166102055761036882610b12565b60405160200161037891906110eb565b604080517fffffffffffffffffffffffffffffffffffffffffffffffffffffffffffffffe0818403018152908290527f08c379a00000000000000000000000000000000000000000000000000000000082526103d6916004016111a1565b60405180910390fd5b60008061032460017fddf3ee18ae6d688373c219468f8be446e7ae82215f4779d821c7ea5e8c13c0c16110a8565b73ffffffffffffffffffffffffffffffffffffffff841661048a576040517f08c379a000000000000000000000000000000000000000000000000000000000815260206004820152601460248201527f4552433732313a206d696e7420746f207a65726f00000000000000000000000060448201526064016103d6565b6104978685856000610c9c565b604051839073ffffffffffffffffffffffffffffffffffffffff8616906000907fddf252ad1be2c89b69c2b068fc378daa952ba7f163c4a11628f55a4df523b3ef908290a48080156104ff575073ffffffffffffffffffffffffffffffffffffffff84163b15155b1561051257610512856000868686610d81565b505050505050565b73ffffffffffffffffffffffffffffffffffffffff8216610597576040517f08c379a000000000000000000000000000000000000000000000000000000000815260206004820152601460248201527f4552433732313a206d696e7420746f207a65726f00000000000000000000000060448201526064016103d6565b805160005b8181146106245760008382815181106105b7576105b76111bb565b602002602001015190506105ce8686836001610c9c565b604051819073ffffffffffffffffffffffffffffffffffffffff8716906000907fddf252ad1be2c89b69c2b068fc378daa952ba7f163c4a11628f55a4df523b3ef908290a45061061d816111ea565b905061059c565b5073ffffffffffffffffffffffffffffffffffffffff831660009081526002850160205260408120805483929061065c908490611222565b909155505050505050565b60008061032460017fb53127684a568b3173ae13b9f8a6016e243e63b6e8ee1178d6a717850b5d61046110a8565b815473ffffffffffffffffffffffffffffffffffffffff82811691161461018d576040517f08c379a000000000000000000000000000000000000000000000000000000000815260206004820152601960248201527f50726f787941646d696e3a206e6f74207468652061646d696e0000000000000060448201526064016103d6565b60008061032460017f7180ffa89c91cf90d6c56dacabfc69bc5e36f3099d7eed2f5cc12c5dba016fe06110a8565b7fffffffff0000000000000000000000000000000000000000000000000000000080831690036107d2576040517f08c379a000000000000000000000000000000000000000000000000000000000815260206004820152601f60248201527f496e74657266616365446574656374696f6e3a2077726f6e672076616c75650060448201526064016103d6565b7fffffffff00000000000000000000000000000000000000000000000000000000919091166000908152602092909252604090912080547fffffffffffffffffffffffffffffffffffffffffffffffffffffffffffffff0016911515919091179055565b3660003332810361084c57506000923692509050565b7f000000000000000000000000000000000000000000000000000000000000000073ffffffffffffffffffffffffffffffffffffffff168173ffffffffffffffffffffffffffffffffffffffff161480610999575073ffffffffffffffffffffffffffffffffffffffff7f00000000000000000000000000000000000000000000000000000000000000001663e60125d6367fffffffffffffffffffffffffffffffffffffffffffffffffffffffffffffffec013560601c6040517fffffffff0000000000000000000000000000000000000000000000000000000060e084901b16815273ffffffffffffffffffffffffffffffffffffffff91821660048201529084166024820152604401602060405180830381865afa158015610975573d6000803e3d6000fd5b505050506040513d601f19601f82011682018060405250810190610999919061123a565b156109af576109a6610eae565b92509250509091565b506000923692509050565b6000333281036109c957919050565b6000367fffffffffffffffffffffffffffffffffffffffffffffffffffffffffffffffec013560601c90507f000000000000000000000000000000000000000000000000000000000000000073ffffffffffffffffffffffffffffffffffffffff168273ffffffffffffffffffffffffffffffffffffffff161480610b0157506040517fe60125d600000000000000000000000000000000000000000000000000000000815273ffffffffffffffffffffffffffffffffffffffff828116600483015283811660248301527f0000000000000000000000000000000000000000000000000000000000000000169063e60125d690604401602060405180830381865afa158015610add573d6000803e3d6000fd5b505050506040513d601f19601f82011682018060405250810190610b01919061123a565b15610b0c5792915050565b50919050565b60606000829003610b3157505060408051602081019091526000815290565b600082604051602001610b4691815260200190565b604080517fffffffffffffffffffffffffffffffffffffffffffffffffffffffffffffffe08184030181529190529050601f5b818181518110610b8b57610b8b6111bb565b01602001517fff0000000000000000000000000000000000000000000000000000000000000016600003610bc957610bc28161125c565b9050610b79565b6000610bd6826001611222565b67ffffffffffffffff811115610bee57610bee611291565b6040519080825280601f01601f191660200182016040528015610c18576020820181803683370190505b50905060005b828111610c9357838181518110610c3757610c376111bb565b602001015160f81c60f81b828281518110610c5457610c546111bb565b60200101907effffffffffffffffffffffffffffffffffffffffffffffffffffffffffffff1916908160001a905350610c8c816111ea565b9050610c1e565b50949350505050565b600082815260018501602052604090205415610d14576040517f08c379a000000000000000000000000000000000000000000000000000000000815260206004820152601a60248201527f4552433732313a206578697374696e672f6275726e74204e465400000000000060448201526064016103d6565b6000828152600185016020526040902073ffffffffffffffffffffffffffffffffffffffff84169055806102865773ffffffffffffffffffffffffffffffffffffffff8316600090815260028501602052604081208054909190610d77906111ea565b9091555050505050565b6040517f150b7a02000000000000000000000000000000000000000000000000000000008082529073ffffffffffffffffffffffffffffffffffffffff85169063150b7a0290610ddb9089908990889088906004016112c0565b6020604051808303816000875af1158015610dfa573d6000803e3d6000fd5b505050506040513d601f19601f82011682018060405250810190610e1e9190611309565b7fffffffff000000000000000000000000000000000000000000000000000000001614610ea7576040517f08c379a000000000000000000000000000000000000000000000000000000000815260206004820152601860248201527f4552433732313a207472616e736665722072656675736564000000000000000060448201526064016103d6565b5050505050565b366000808083610ebf6014826110a8565b926101199392919061134b565b60208152816020820152818360408301376000818301604090810191909152601f9092017fffffffffffffffffffffffffffffffffffffffffffffffffffffffffffffffe0160101919050565b803573ffffffffffffffffffffffffffffffffffffffff81168114610f3d57600080fd5b919050565b60008060408385031215610f5557600080fd5b610f5e83610f19565b946020939093013593505050565b600080600060408486031215610f8157600080fd5b610f8a84610f19565b9250602084013567ffffffffffffffff80821115610fa757600080fd5b818601915086601f830112610fbb57600080fd5b813581811115610fca57600080fd5b8760208260051b8501011115610fdf57600080fd5b6020830194508093505050509250925092565b6000806000806060858703121561100857600080fd5b61101185610f19565b935060208501359250604085013567ffffffffffffffff8082111561103557600080fd5b818701915087601f83011261104957600080fd5b81358181111561105857600080fd5b88602082850101111561106a57600080fd5b95989497505060200194505050565b7f4e487b7100000000000000000000000000000000000000000000000000000000600052601160045260246000fd5b6000828210156110ba576110ba611079565b500390565b60005b838110156110da5781810151838201526020016110c2565b838111156102865750506000910152565b7f416363657373436f6e74726f6c3a206d697373696e67202700000000000000008152600082516111238160188501602087016110bf565b7f2720726f6c6500000000000000000000000000000000000000000000000000006018939091019283015250601e01919050565b6000815180845261116f8160208601602086016110bf565b601f017fffffffffffffffffffffffffffffffffffffffffffffffffffffffffffffffe0169290920160200192915050565b6020815260006111b46020830184611157565b9392505050565b7f4e487b7100000000000000000000000000000000000000000000000000000000600052603260045260246000fd5b60007fffffffffffffffffffffffffffffffffffffffffffffffffffffffffffffffff820361121b5761121b611079565b5060010190565b6000821982111561123557611235611079565b500190565b60006020828403121561124c57600080fd5b815180151581146111b457600080fd5b60008161126b5761126b611079565b507fffffffffffffffffffffffffffffffffffffffffffffffffffffffffffffffff0190565b7f4e487b7100000000000000000000000000000000000000000000000000000000600052604160045260246000fd5b600073ffffffffffffffffffffffffffffffffffffffff8087168352808616602084015250836040830152608060608301526112ff6080830184611157565b9695505050505050565b60006020828403121561131b57600080fd5b81517fffffffff00000000000000000000000000000000000000000000000000000000811681146111b457600080fd5b6000808585111561135b57600080fd5b8386111561136857600080fd5b505082019391909203915056fea264697066735822122075bb6c1ed3134d2bcb148269f1b9af25a5c53543f1df813087b31bc422ebded764736f6c634300080d0033",
  "linkReferences": {},
  "deployedLinkReferences": {}
}