{
  "_format": "hh-sol-artifact-1",
  "contractName": "ERC20MintBurnProxied",
  "sourceName": "contracts/token/ERC20/preset/proxied/ERC20MintBurnProxied.sol",
  "abi": [
    {
      "inputs": [
        {
          "internalType": "contract IForwarderRegistry",
          "name": "forwarderRegistry",
          "type": "address"
        }
      ],
      "stateMutability": "nonpayable",
      "type": "constructor"
    },
    {
      "inputs": [
        {
          "internalType": "address",
          "name": "owner",
          "type": "address"
        },
        {
          "internalType": "address",
          "name": "spender",
          "type": "address"
        },
        {
          "internalType": "uint256",
          "name": "allowance",
          "type": "uint256"
        },
        {
          "internalType": "uint256",
          "name": "increment",
          "type": "uint256"
        }
      ],
      "name": "ERC20AllowanceOverflow",
      "type": "error"
    },
    {
      "inputs": [
        {
          "internalType": "address",
          "name": "owner",
          "type": "address"
        }
      ],
      "name": "ERC20ApprovalToAddressZero",
      "type": "error"
    },
    {
      "inputs": [],
      "name": "ERC20BatchMintValuesOverflow",
      "type": "error"
    },
    {
      "inputs": [],
      "name": "ERC20BatchTransferValuesOverflow",
      "type": "error"
    },
    {
      "inputs": [
        {
          "internalType": "address",
          "name": "owner",
          "type": "address"
        },
        {
          "internalType": "address",
          "name": "spender",
          "type": "address"
        },
        {
          "internalType": "uint256",
          "name": "allowance",
          "type": "uint256"
        },
        {
          "internalType": "uint256",
          "name": "decrement",
          "type": "uint256"
        }
      ],
      "name": "ERC20InsufficientAllowance",
      "type": "error"
    },
    {
      "inputs": [
        {
          "internalType": "address",
          "name": "owner",
          "type": "address"
        },
        {
          "internalType": "uint256",
          "name": "balance",
          "type": "uint256"
        },
        {
          "internalType": "uint256",
          "name": "value",
          "type": "uint256"
        }
      ],
      "name": "ERC20InsufficientBalance",
      "type": "error"
    },
    {
      "inputs": [],
      "name": "ERC20MintToAddressZero",
      "type": "error"
    },
    {
      "inputs": [
        {
          "internalType": "uint256",
          "name": "deadline",
          "type": "uint256"
        }
      ],
      "name": "ERC20PermitExpired",
      "type": "error"
    },
    {
      "inputs": [],
      "name": "ERC20PermitFromAddressZero",
      "type": "error"
    },
    {
      "inputs": [],
      "name": "ERC20PermitInvalidSignature",
      "type": "error"
    },
    {
      "inputs": [
        {
          "internalType": "address",
          "name": "recipient",
          "type": "address"
        }
      ],
      "name": "ERC20SafeTransferRejected",
      "type": "error"
    },
    {
      "inputs": [
        {
          "internalType": "uint256",
          "name": "supply",
          "type": "uint256"
        },
        {
          "internalType": "uint256",
          "name": "value",
          "type": "uint256"
        }
      ],
      "name": "ERC20TotalSupplyOverflow",
      "type": "error"
    },
    {
      "inputs": [
        {
          "internalType": "address",
          "name": "owner",
          "type": "address"
        }
      ],
      "name": "ERC20TransferToAddressZero",
      "type": "error"
    },
    {
      "inputs": [],
      "name": "IllegalInterfaceId",
      "type": "error"
    },
    {
      "inputs": [],
      "name": "InconsistentArrayLengths",
      "type": "error"
    },
    {
      "inputs": [
        {
          "internalType": "uint256",
          "name": "currentPhase",
          "type": "uint256"
        },
        {
          "internalType": "uint256",
          "name": "newPhase",
          "type": "uint256"
        }
      ],
      "name": "InitializationPhaseAlreadyReached",
      "type": "error"
    },
    {
      "inputs": [
        {
          "internalType": "address",
          "name": "account",
          "type": "address"
        }
      ],
      "name": "NotContractOwner",
      "type": "error"
    },
    {
      "inputs": [
        {
          "internalType": "bytes32",
          "name": "role",
          "type": "bytes32"
        },
        {
          "internalType": "address",
          "name": "account",
          "type": "address"
        }
      ],
      "name": "NotRoleHolder",
      "type": "error"
    },
    {
      "anonymous": false,
      "inputs": [
        {
          "indexed": true,
          "internalType": "address",
          "name": "owner",
          "type": "address"
        },
        {
          "indexed": true,
          "internalType": "address",
          "name": "spender",
          "type": "address"
        },
        {
          "indexed": false,
          "internalType": "uint256",
          "name": "value",
          "type": "uint256"
        }
      ],
      "name": "Approval",
      "type": "event"
    },
    {
      "anonymous": false,
      "inputs": [
        {
          "indexed": true,
          "internalType": "address",
          "name": "previousOwner",
          "type": "address"
        },
        {
          "indexed": true,
          "internalType": "address",
          "name": "newOwner",
          "type": "address"
        }
      ],
      "name": "OwnershipTransferred",
      "type": "event"
    },
    {
      "anonymous": false,
      "inputs": [
        {
          "indexed": false,
          "internalType": "bytes32",
          "name": "role",
          "type": "bytes32"
        },
        {
          "indexed": false,
          "internalType": "address",
          "name": "account",
          "type": "address"
        },
        {
          "indexed": false,
          "internalType": "address",
          "name": "operator",
          "type": "address"
        }
      ],
      "name": "RoleGranted",
      "type": "event"
    },
    {
      "anonymous": false,
      "inputs": [
        {
          "indexed": false,
          "internalType": "bytes32",
          "name": "role",
          "type": "bytes32"
        },
        {
          "indexed": false,
          "internalType": "address",
          "name": "account",
          "type": "address"
        },
        {
          "indexed": false,
          "internalType": "address",
          "name": "operator",
          "type": "address"
        }
      ],
      "name": "RoleRevoked",
      "type": "event"
    },
    {
      "anonymous": false,
      "inputs": [
        {
          "indexed": true,
          "internalType": "address",
          "name": "from",
          "type": "address"
        },
        {
          "indexed": true,
          "internalType": "address",
          "name": "to",
          "type": "address"
        },
        {
          "indexed": false,
          "internalType": "uint256",
          "name": "value",
          "type": "uint256"
        }
      ],
      "name": "Transfer",
      "type": "event"
    },
    {
      "inputs": [],
      "name": "DOMAIN_SEPARATOR",
      "outputs": [
        {
          "internalType": "bytes32",
          "name": "",
          "type": "bytes32"
        }
      ],
      "stateMutability": "view",
      "type": "function"
    },
    {
      "inputs": [],
      "name": "MINTER_ROLE",
      "outputs": [
        {
          "internalType": "bytes32",
          "name": "",
          "type": "bytes32"
        }
      ],
      "stateMutability": "view",
      "type": "function"
    },
    {
      "inputs": [
        {
          "internalType": "address",
          "name": "owner",
          "type": "address"
        },
        {
          "internalType": "address",
          "name": "spender",
          "type": "address"
        }
      ],
      "name": "allowance",
      "outputs": [
        {
          "internalType": "uint256",
          "name": "value",
          "type": "uint256"
        }
      ],
      "stateMutability": "view",
      "type": "function"
    },
    {
      "inputs": [
        {
          "internalType": "address",
          "name": "spender",
          "type": "address"
        },
        {
          "internalType": "uint256",
          "name": "value",
          "type": "uint256"
        }
      ],
      "name": "approve",
      "outputs": [
        {
          "internalType": "bool",
          "name": "result",
          "type": "bool"
        }
      ],
      "stateMutability": "nonpayable",
      "type": "function"
    },
    {
      "inputs": [
        {
          "internalType": "address",
          "name": "owner",
          "type": "address"
        }
      ],
      "name": "balanceOf",
      "outputs": [
        {
          "internalType": "uint256",
          "name": "balance",
          "type": "uint256"
        }
      ],
      "stateMutability": "view",
      "type": "function"
    },
    {
      "inputs": [
        {
          "internalType": "address[]",
          "name": "owners",
          "type": "address[]"
        },
        {
          "internalType": "uint256[]",
          "name": "values",
          "type": "uint256[]"
        }
      ],
      "name": "batchBurnFrom",
      "outputs": [
        {
          "internalType": "bool",
          "name": "",
          "type": "bool"
        }
      ],
      "stateMutability": "nonpayable",
      "type": "function"
    },
    {
      "inputs": [
        {
          "internalType": "address[]",
          "name": "recipients",
          "type": "address[]"
        },
        {
          "internalType": "uint256[]",
          "name": "values",
          "type": "uint256[]"
        }
      ],
      "name": "batchMint",
      "outputs": [],
      "stateMutability": "nonpayable",
      "type": "function"
    },
    {
      "inputs": [
        {
          "internalType": "address[]",
          "name": "recipients",
          "type": "address[]"
        },
        {
          "internalType": "uint256[]",
          "name": "values",
          "type": "uint256[]"
        }
      ],
      "name": "batchTransfer",
      "outputs": [
        {
          "internalType": "bool",
          "name": "",
          "type": "bool"
        }
      ],
      "stateMutability": "nonpayable",
      "type": "function"
    },
    {
      "inputs": [
        {
          "internalType": "address",
          "name": "from",
          "type": "address"
        },
        {
          "internalType": "address[]",
          "name": "recipients",
          "type": "address[]"
        },
        {
          "internalType": "uint256[]",
          "name": "values",
          "type": "uint256[]"
        }
      ],
      "name": "batchTransferFrom",
      "outputs": [
        {
          "internalType": "bool",
          "name": "",
          "type": "bool"
        }
      ],
      "stateMutability": "nonpayable",
      "type": "function"
    },
    {
      "inputs": [
        {
          "internalType": "uint256",
          "name": "value",
          "type": "uint256"
        }
      ],
      "name": "burn",
      "outputs": [
        {
          "internalType": "bool",
          "name": "",
          "type": "bool"
        }
      ],
      "stateMutability": "nonpayable",
      "type": "function"
    },
    {
      "inputs": [
        {
          "internalType": "address",
          "name": "from",
          "type": "address"
        },
        {
          "internalType": "uint256",
          "name": "value",
          "type": "uint256"
        }
      ],
      "name": "burnFrom",
      "outputs": [
        {
          "internalType": "bool",
          "name": "",
          "type": "bool"
        }
      ],
      "stateMutability": "nonpayable",
      "type": "function"
    },
    {
      "inputs": [],
      "name": "decimals",
      "outputs": [
        {
          "internalType": "uint8",
          "name": "",
          "type": "uint8"
        }
      ],
      "stateMutability": "view",
      "type": "function"
    },
    {
      "inputs": [
        {
          "internalType": "address",
          "name": "spender",
          "type": "address"
        },
        {
          "internalType": "uint256",
          "name": "subtractedValue",
          "type": "uint256"
        }
      ],
      "name": "decreaseAllowance",
      "outputs": [
        {
          "internalType": "bool",
          "name": "result",
          "type": "bool"
        }
      ],
      "stateMutability": "nonpayable",
      "type": "function"
    },
    {
      "inputs": [],
      "name": "forwarderRegistry",
      "outputs": [
        {
          "internalType": "contract IForwarderRegistry",
          "name": "",
          "type": "address"
        }
      ],
      "stateMutability": "view",
      "type": "function"
    },
    {
      "inputs": [
        {
          "internalType": "bytes32",
          "name": "role",
          "type": "bytes32"
        },
        {
          "internalType": "address",
          "name": "account",
          "type": "address"
        }
      ],
      "name": "grantRole",
      "outputs": [],
      "stateMutability": "nonpayable",
      "type": "function"
    },
    {
      "inputs": [
        {
          "internalType": "bytes32",
          "name": "role",
          "type": "bytes32"
        },
        {
          "internalType": "address",
          "name": "account",
          "type": "address"
        }
      ],
      "name": "hasRole",
      "outputs": [
        {
          "internalType": "bool",
          "name": "hasRole_",
          "type": "bool"
        }
      ],
      "stateMutability": "view",
      "type": "function"
    },
    {
      "inputs": [
        {
          "internalType": "address",
          "name": "spender",
          "type": "address"
        },
        {
          "internalType": "uint256",
          "name": "addedValue",
          "type": "uint256"
        }
      ],
      "name": "increaseAllowance",
      "outputs": [
        {
          "internalType": "bool",
          "name": "result",
          "type": "bool"
        }
      ],
      "stateMutability": "nonpayable",
      "type": "function"
    },
    {
      "inputs": [
        {
          "internalType": "string",
          "name": "tokenName",
          "type": "string"
        },
        {
          "internalType": "string",
          "name": "tokenSymbol",
          "type": "string"
        },
        {
          "internalType": "uint8",
          "name": "tokenDecimals",
          "type": "uint8"
        }
      ],
      "name": "init",
      "outputs": [],
      "stateMutability": "nonpayable",
      "type": "function"
    },
    {
      "inputs": [
        {
          "internalType": "address",
          "name": "forwarder",
          "type": "address"
        }
      ],
      "name": "isTrustedForwarder",
      "outputs": [
        {
          "internalType": "bool",
          "name": "",
          "type": "bool"
        }
      ],
      "stateMutability": "view",
      "type": "function"
    },
    {
      "inputs": [
        {
          "internalType": "address",
          "name": "to",
          "type": "address"
        },
        {
          "internalType": "uint256",
          "name": "value",
          "type": "uint256"
        }
      ],
      "name": "mint",
      "outputs": [],
      "stateMutability": "nonpayable",
      "type": "function"
    },
    {
      "inputs": [],
      "name": "name",
      "outputs": [
        {
          "internalType": "string",
          "name": "",
          "type": "string"
        }
      ],
      "stateMutability": "view",
      "type": "function"
    },
    {
      "inputs": [
        {
          "internalType": "address",
          "name": "owner",
          "type": "address"
        }
      ],
      "name": "nonces",
      "outputs": [
        {
          "internalType": "uint256",
          "name": "",
          "type": "uint256"
        }
      ],
      "stateMutability": "view",
      "type": "function"
    },
    {
      "inputs": [],
      "name": "owner",
      "outputs": [
        {
          "internalType": "address",
          "name": "",
          "type": "address"
        }
      ],
      "stateMutability": "view",
      "type": "function"
    },
    {
      "inputs": [
        {
          "internalType": "address",
          "name": "owner",
          "type": "address"
        },
        {
          "internalType": "address",
          "name": "spender",
          "type": "address"
        },
        {
          "internalType": "uint256",
          "name": "value",
          "type": "uint256"
        },
        {
          "internalType": "uint256",
          "name": "deadline",
          "type": "uint256"
        },
        {
          "internalType": "uint8",
          "name": "v",
          "type": "uint8"
        },
        {
          "internalType": "bytes32",
          "name": "r",
          "type": "bytes32"
        },
        {
          "internalType": "bytes32",
          "name": "s",
          "type": "bytes32"
        }
      ],
      "name": "permit",
      "outputs": [],
      "stateMutability": "nonpayable",
      "type": "function"
    },
    {
      "inputs": [
        {
          "internalType": "address[]",
          "name": "accounts",
          "type": "address[]"
        },
        {
          "internalType": "contract IERC20[]",
          "name": "tokens",
          "type": "address[]"
        },
        {
          "internalType": "uint256[]",
          "name": "amounts",
          "type": "uint256[]"
        }
      ],
      "name": "recoverERC20s",
      "outputs": [],
      "stateMutability": "nonpayable",
      "type": "function"
    },
    {
      "inputs": [
        {
          "internalType": "address[]",
          "name": "accounts",
          "type": "address[]"
        },
        {
          "internalType": "contract IERC721[]",
          "name": "contracts",
          "type": "address[]"
        },
        {
          "internalType": "uint256[]",
          "name": "tokenIds",
          "type": "uint256[]"
        }
      ],
      "name": "recoverERC721s",
      "outputs": [],
      "stateMutability": "nonpayable",
      "type": "function"
    },
    {
      "inputs": [
        {
          "internalType": "address payable[]",
          "name": "accounts",
          "type": "address[]"
        },
        {
          "internalType": "uint256[]",
          "name": "amounts",
          "type": "uint256[]"
        }
      ],
      "name": "recoverETH",
      "outputs": [],
      "stateMutability": "nonpayable",
      "type": "function"
    },
    {
      "inputs": [
        {
          "internalType": "bytes32",
          "name": "role",
          "type": "bytes32"
        }
      ],
      "name": "renounceRole",
      "outputs": [],
      "stateMutability": "nonpayable",
      "type": "function"
    },
    {
      "inputs": [
        {
          "internalType": "bytes32",
          "name": "role",
          "type": "bytes32"
        },
        {
          "internalType": "address",
          "name": "account",
          "type": "address"
        }
      ],
      "name": "revokeRole",
      "outputs": [],
      "stateMutability": "nonpayable",
      "type": "function"
    },
    {
      "inputs": [
        {
          "internalType": "address",
          "name": "to",
          "type": "address"
        },
        {
          "internalType": "uint256",
          "name": "value",
          "type": "uint256"
        },
        {
          "internalType": "bytes",
          "name": "data",
          "type": "bytes"
        }
      ],
      "name": "safeTransfer",
      "outputs": [
        {
          "internalType": "bool",
          "name": "",
          "type": "bool"
        }
      ],
      "stateMutability": "nonpayable",
      "type": "function"
    },
    {
      "inputs": [
        {
          "internalType": "address",
          "name": "from",
          "type": "address"
        },
        {
          "internalType": "address",
          "name": "to",
          "type": "address"
        },
        {
          "internalType": "uint256",
          "name": "value",
          "type": "uint256"
        },
        {
          "internalType": "bytes",
          "name": "data",
          "type": "bytes"
        }
      ],
      "name": "safeTransferFrom",
      "outputs": [
        {
          "internalType": "bool",
          "name": "",
          "type": "bool"
        }
      ],
      "stateMutability": "nonpayable",
      "type": "function"
    },
    {
      "inputs": [
        {
          "internalType": "string",
          "name": "uri",
          "type": "string"
        }
      ],
      "name": "setTokenURI",
      "outputs": [],
      "stateMutability": "nonpayable",
      "type": "function"
    },
    {
      "inputs": [
        {
          "internalType": "bytes4",
          "name": "interfaceId",
          "type": "bytes4"
        }
      ],
      "name": "supportsInterface",
      "outputs": [
        {
          "internalType": "bool",
          "name": "",
          "type": "bool"
        }
      ],
      "stateMutability": "view",
      "type": "function"
    },
    {
      "inputs": [],
      "name": "symbol",
      "outputs": [
        {
          "internalType": "string",
          "name": "",
          "type": "string"
        }
      ],
      "stateMutability": "view",
      "type": "function"
    },
    {
      "inputs": [],
      "name": "tokenURI",
      "outputs": [
        {
          "internalType": "string",
          "name": "",
          "type": "string"
        }
      ],
      "stateMutability": "view",
      "type": "function"
    },
    {
      "inputs": [],
      "name": "totalSupply",
      "outputs": [
        {
          "internalType": "uint256",
          "name": "supply",
          "type": "uint256"
        }
      ],
      "stateMutability": "view",
      "type": "function"
    },
    {
      "inputs": [
        {
          "internalType": "address",
          "name": "to",
          "type": "address"
        },
        {
          "internalType": "uint256",
          "name": "value",
          "type": "uint256"
        }
      ],
      "name": "transfer",
      "outputs": [
        {
          "internalType": "bool",
          "name": "result",
          "type": "bool"
        }
      ],
      "stateMutability": "nonpayable",
      "type": "function"
    },
    {
      "inputs": [
        {
          "internalType": "address",
          "name": "from",
          "type": "address"
        },
        {
          "internalType": "address",
          "name": "to",
          "type": "address"
        },
        {
          "internalType": "uint256",
          "name": "value",
          "type": "uint256"
        }
      ],
      "name": "transferFrom",
      "outputs": [
        {
          "internalType": "bool",
          "name": "result",
          "type": "bool"
        }
      ],
      "stateMutability": "nonpayable",
      "type": "function"
    },
    {
      "inputs": [
        {
          "internalType": "address",
          "name": "newOwner",
          "type": "address"
        }
      ],
      "name": "transferOwnership",
      "outputs": [],
      "stateMutability": "nonpayable",
      "type": "function"
    }
  ],
  "bytecode": "0x60a060405234801562000010575f80fd5b506040516200414238038062004142833981016040819052620000339162000045565b6001600160a01b031660805262000074565b5f6020828403121562000056575f80fd5b81516001600160a01b03811681146200006d575f80fd5b9392505050565b6080516140a0620000a25f395f818161032f0152818161040f0152818161317501526131fd01526140a05ff3fe608060405234801561000f575f80fd5b506004361061029d575f3560e01c806379cc679011610171578063c3666c36116100d2578063e0df5b6f11610088578063f2fde38b1161006e578063f2fde38b146105c6578063f57b0182146105d9578063f7ba94bd146105ec575f80fd5b8063e0df5b6f146105a0578063eb795549146105b3575f80fd5b8063d5391393116100b8578063d539139314610553578063d547741f1461057a578063dd62ed3e1461058d575f80fd5b8063c3666c361461052d578063d505accf14610540575f80fd5b806391d1485411610127578063a457c2d71161010d578063a457c2d7146104f4578063a9059cbb14610507578063b88d4fde1461051a575f80fd5b806391d14854146104d957806395d89b41146104ec575f80fd5b806388d695b21161015757806388d695b2146104ab5780638bb9c5bf146104be5780638da5cb5b146104d1575f80fd5b806379cc6790146104855780637ecebe0014610498575f80fd5b80633644e5151161021b5780634885b254116101d157806368573107116101b7578063685731071461044c57806370a082311461045f57806373c8a95814610472575f80fd5b80634885b254146103ec578063572b6c05146103ff575f80fd5b80633c130d90116102015780633c130d90146103be57806340c10f19146103c657806342966c68146103d9575f80fd5b80633644e515146103a357806339509351146103ab575f80fd5b80631b9a7529116102705780632b4c9f16116102565780632b4c9f161461032d5780632f2ff15d14610374578063313ce56714610389575f80fd5b80631b9a75291461030757806323b872dd1461031a575f80fd5b806301ffc9a7146102a157806306fdde03146102c9578063095ea7b3146102de57806318160ddd146102f1575b5f80fd5b6102b46102af366004613803565b6105ff565b60405190151581526020015b60405180910390f35b6102d1610618565b6040516102c09190613889565b6102b46102ec3660046138bc565b61062f565b6102f9610656565b6040519081526020016102c0565b6102b461031536600461392e565b610669565b6102b4610328366004613995565b610697565b7f00000000000000000000000000000000000000000000000000000000000000005b60405173ffffffffffffffffffffffffffffffffffffffff90911681526020016102c0565b6103876103823660046139d3565b6106c1565b005b6103916106f9565b60405160ff90911681526020016102c0565b6102f961070f565b6102b46103b93660046138bc565b610718565b6102d1610736565b6103876103d43660046138bc565b610743565b6102b46103e7366004613a01565b610796565b6102b46103fa366004613a18565b6107ba565b6102b461040d366004613a95565b7f000000000000000000000000000000000000000000000000000000000000000073ffffffffffffffffffffffffffffffffffffffff90811691161490565b61038761045a36600461392e565b6107ea565b6102f961046d366004613a95565b610892565b610387610480366004613ab0565b6108c8565b6102b46104933660046138bc565b6109c4565b6102f96104a6366004613a95565b6109e2565b6102b46104b936600461392e565b6109ef565b6103876104cc366004613a01565b610a11565b61034f610a2f565b6102b46104e73660046139d3565b610a55565b6102d1610a9e565b6102b46105023660046138bc565b610ab0565b6102b46105153660046138bc565b610ace565b6102b4610528366004613b81565b610aec565b61038761053b366004613ab0565b610b10565b61038761054e366004613bf3565b610c81565b6102f97f6d696e746572000000000000000000000000000000000000000000000000000081565b6103876105883660046139d3565b610ca8565b6102f961059b366004613c5c565b610cd5565b6103876105ae366004613c88565b610d1e565b6102b46105c1366004613cc7565b610d3d565b6103876105d4366004613a95565b610d5f565b6103876105e7366004613d13565b610d7a565b6103876105fa36600461392e565b610dec565b5f6106128261060c610ea9565b90610ed6565b92915050565b606061062a610625610fad565b610fda565b905090565b5f61064d61063b61106d565b8484610645611076565b9291906110a3565b50600192915050565b5f61062a610662611076565b6002015490565b5f61068b61067561106d565b86868686610681611076565b949392919061117e565b5060015b949350505050565b5f6106b76106a361106d565b8585856106ae611076565b9392919061137f565b5060019392505050565b5f6106ca61106d565b90506106de816106d86113ca565b906113f7565b6106f48383836106ec611462565b92919061148f565b505050565b5f61062a610705610fad565b6002015460ff1690565b5f61062a611563565b5f61064d61072461106d565b848461072e611076565b9291906115fd565b606061062a6106256117ad565b61077e7f6d696e746572000000000000000000000000000000000000000000000000000061076f61106d565b610777611462565b91906117da565b610792828261078b611076565b919061185f565b5050565b5f6107b26107a261106d565b836107ab611076565b9190611981565b506001919050565b5f6107de6107c661106d565b87878787876107d3611076565b959493929190611a8a565b50600195945050505050565b6108167f6d696e746572000000000000000000000000000000000000000000000000000061076f61106d565b61088c8484808060200260200160405190810160405280939291908181526020018383602002808284375f92019190915250506040805160208088028281018201909352878252909350879250869182918501908490808284375f920191909152506108859250611076915050565b9190611e3a565b50505050565b5f6106128261089f611076565b9073ffffffffffffffffffffffffffffffffffffffff165f908152602091909152604090205490565b6108db6108d361106d565b6106d86113ca565b8483811415806108eb5750808214155b15610922576040517f6582533600000000000000000000000000000000000000000000000000000000815260040160405180910390fd5b5f5b8181146109ba576109b288888381811061094057610940613d8e565b90506020020160208101906109559190613a95565b85858481811061096757610967613d8e565b9050602002013588888581811061098057610980613d8e565b90506020020160208101906109959190613a95565b73ffffffffffffffffffffffffffffffffffffffff169190612052565b600101610924565b5050505050505050565b5f61064d6109d061106d565b84846109da611076565b9291906120df565b5f6106128261089f612129565b5f61068b6109fb61106d565b86868686610a07611076565b9493929190612156565b610a2c610a1c61106d565b82610a25611462565b91906124a5565b50565b5f61062a610a3b6113ca565b5473ffffffffffffffffffffffffffffffffffffffff1690565b5f610a978383610a63611462565b5f9283526020908152604080842073ffffffffffffffffffffffffffffffffffffffff909316845291905290205460ff1690565b9392505050565b606061062a610aab610fad565b612548565b5f61064d610abc61106d565b8484610ac6611076565b929190612559565b5f61064d610ada61106d565b8484610ae4611076565b929190612690565b5f6107de610af861106d565b8787878787610b05611076565b95949392919061284d565b610b1b6108d361106d565b848381141580610b2b5750808214155b15610b62576040517f6582533600000000000000000000000000000000000000000000000000000000815260040160405180910390fd5b5f5b8181146109ba57858582818110610b7d57610b7d613d8e565b9050602002016020810190610b929190613a95565b73ffffffffffffffffffffffffffffffffffffffff166323b872dd308a8a85818110610bc057610bc0613d8e565b9050602002016020810190610bd59190613a95565b878786818110610be757610be7613d8e565b6040517fffffffff0000000000000000000000000000000000000000000000000000000060e088901b16815273ffffffffffffffffffffffffffffffffffffffff9586166004820152949093166024850152506020909102013560448201526064015f604051808303815f87803b158015610c60575f80fd5b505af1158015610c72573d5f803e3d5ffd5b50505050806001019050610b64565b610c9f87878787878787610c93612129565b969594939291906128b9565b50505050505050565b5f610cb161106d565b9050610cbf816106d86113ca565b6106f4838383610ccd611462565b929190612b24565b5f610a978383610ce3611076565b919073ffffffffffffffffffffffffffffffffffffffff9182165f908152600193909301602090815260408085209290931684525290205490565b610d296108d361106d565b6107928282610d366117ad565b9190612bec565b5f61068b610d4961106d565b86868686610d55611076565b9493929190612bf8565b610a2c610d6a61106d565b82610d736113ca565b9190612c63565b610d93610d8561106d565b610d8d6113ca565b90612d76565b610d9b612db5565b610da3612e18565b610dab612e4f565b610db3612e7d565b610dbb612eab565b610dd58585858585610dcb610fad565b9493929190612ed9565b610ddd612f81565b610de5612faf565b5050505050565b610df76108d361106d565b82818114610e31576040517f6582533600000000000000000000000000000000000000000000000000000000815260040160405180910390fd5b5f5b818114610ea157610e99848483818110610e4f57610e4f613d8e565b90506020020135878784818110610e6857610e68613d8e565b9050602002016020810190610e7d9190613a95565b73ffffffffffffffffffffffffffffffffffffffff1690612fdd565b600101610e33565b505050505050565b5f8061061260017fca9d3e17f264b0f3984e2634e94adb37fa3e6a8103f06aeae6fa59e21c769f5e613dbb565b5f7c01000000000000000000000000000000000000000000000000000000007fffffffff00000000000000000000000000000000000000000000000000000000831601610f2457505f610612565b7ffe003659000000000000000000000000000000000000000000000000000000007fffffffff00000000000000000000000000000000000000000000000000000000831601610f7557506001610612565b507fffffffff00000000000000000000000000000000000000000000000000000000165f908152602091909152604090205460ff1690565b5f8061061260017f335df4119bbb04f056b33eba33b826d3529129e458faf6daa9924b5a8f3b6a82613dbb565b6060815f018054610fea90613df3565b80601f016020809104026020016040519081016040528092919081815260200182805461101690613df3565b80156110615780601f1061103857610100808354040283529160200191611061565b820191905f5260205f20905b81548152906001019060200180831161104457829003601f168201915b50505050509050919050565b5f61062a613133565b5f8061061260017f1da92899d3da68bf9787824388a37ea2bfa79780bcef91b9716c390eec8ecbef613dbb565b73ffffffffffffffffffffffffffffffffffffffff821661110d576040517ff7e1ac0f00000000000000000000000000000000000000000000000000000000815273ffffffffffffffffffffffffffffffffffffffff841660048201526024015b60405180910390fd5b73ffffffffffffffffffffffffffffffffffffffff8381165f81815260018701602090815260408083209487168084529482529182902085905590518481527f8c5be1e5ebec7d5bd14f71427d1e84f3dd0314c0f7b2291e5b200ac8c7c3b92591015b60405180910390a350505050565b828181146111b8576040517f6582533600000000000000000000000000000000000000000000000000000000815260040160405180910390fd5b805f036111c55750610ea1565b5f805b828114611363575f8787838181106111e2576111e2613d8e565b90506020020160208101906111f79190613a95565b90505f86868481811061120c5761120c613d8e565b9050602002013590508973ffffffffffffffffffffffffffffffffffffffff168273ffffffffffffffffffffffffffffffffffffffff1614611254576112548b838c84612559565b801561130c5773ffffffffffffffffffffffffffffffffffffffff82165f90815260208c905260409020548181038181106112e1576040517fe450d38c00000000000000000000000000000000000000000000000000000000815273ffffffffffffffffffffffffffffffffffffffff851660048201526024810183905260448101849052606401611104565b73ffffffffffffffffffffffffffffffffffffffff84165f90815260208e9052604090205550928301925b6040518181525f9073ffffffffffffffffffffffffffffffffffffffff8416907fddf252ad1be2c89b69c2b068fc378daa952ba7f163c4a11628f55a4df523b3ef9060200160405180910390a350506001016111c8565b5080156109ba5760028801805482900390555050505050505050565b8373ffffffffffffffffffffffffffffffffffffffff168373ffffffffffffffffffffffffffffffffffffffff16146113be576113be85848684612559565b610de585848484612690565b5f8061061260017fc9ed16f33ab3a66c84bfd83099ccb2a8845871e2e1c1928f63797152f0fd54cd613dbb565b815473ffffffffffffffffffffffffffffffffffffffff828116911614610792576040517f2ef4875e00000000000000000000000000000000000000000000000000000000815273ffffffffffffffffffffffffffffffffffffffff82166004820152602401611104565b5f8061061260017fc8827d3282af6f37b64c3e9e6f3ac9df286ab0bb0fccd6f8661bf19adb368b23613dbb565b5f8381526020858152604080832073ffffffffffffffffffffffffffffffffffffffff8616845290915290205460ff1661088c575f8381526020858152604080832073ffffffffffffffffffffffffffffffffffffffff8681168086529184529382902080547fffffffffffffffffffffffffffffffffffffffffffffffffffffffffffffff00166001179055815187815292830152918316918101919091527f2f8788117e7eff1d82e926ec794901d17c78024a50270940304540a733656f0d906060015b60405180910390a150505050565b5f467f8b73c3c69bb8fe3d512ecc4cf759cc79239f7b179b0ffacaa9a75d522b39400f611591610625610fad565b80516020918201206040805192830193909352918101919091527fc89efdaa54c0f20c7adf612882df0950f5a951637e0307cdcb4c672f298b8bc66060820152608081018290523060a082015260c0016040516020818303038152906040528051906020012091505090565b73ffffffffffffffffffffffffffffffffffffffff8216611662576040517ff7e1ac0f00000000000000000000000000000000000000000000000000000000815273ffffffffffffffffffffffffffffffffffffffff84166004820152602401611104565b73ffffffffffffffffffffffffffffffffffffffff8084165f908152600186016020908152604080832093861683529290522054811561173f57808201818111611706576040517f93bc2ff100000000000000000000000000000000000000000000000000000000815273ffffffffffffffffffffffffffffffffffffffff8087166004830152851660248201526044810183905260648101849052608401611104565b73ffffffffffffffffffffffffffffffffffffffff8086165f908152600188016020908152604080832093881683529290522081905590505b8273ffffffffffffffffffffffffffffffffffffffff168473ffffffffffffffffffffffffffffffffffffffff167f8c5be1e5ebec7d5bd14f71427d1e84f3dd0314c0f7b2291e5b200ac8c7c3b9258360405161179e91815260200190565b60405180910390a35050505050565b5f8061061260017ff41bf6a5db26bffdfab174dcf66b31fbba8fdb7e3db040721ce1e62d61839ceb613dbb565b5f8281526020848152604080832073ffffffffffffffffffffffffffffffffffffffff8516845290915290205460ff166106f4576040517f7aa728820000000000000000000000000000000000000000000000000000000081526004810183905273ffffffffffffffffffffffffffffffffffffffff82166024820152604401611104565b73ffffffffffffffffffffffffffffffffffffffff82166118ac576040517f92fd9c8f00000000000000000000000000000000000000000000000000000000815260040160405180910390fd5b801561192e5760028301548181018181116118fd576040517f0366a5f60000000000000000000000000000000000000000000000000000000081526004810183905260248101849052604401611104565b60028501555073ffffffffffffffffffffffffffffffffffffffff82165f9081526020849052604090208054820190555b60405181815273ffffffffffffffffffffffffffffffffffffffff8316905f907fddf252ad1be2c89b69c2b068fc378daa952ba7f163c4a11628f55a4df523b3ef906020015b60405180910390a3505050565b8015611a405773ffffffffffffffffffffffffffffffffffffffff82165f90815260208490526040902054818103818110611a0e576040517fe450d38c00000000000000000000000000000000000000000000000000000000815273ffffffffffffffffffffffffffffffffffffffff851660048201526024810183905260448101849052606401611104565b73ffffffffffffffffffffffffffffffffffffffff84165f908152602086905260409020555060028301805482900390555b6040518181525f9073ffffffffffffffffffffffffffffffffffffffff8416907fddf252ad1be2c89b69c2b068fc378daa952ba7f163c4a11628f55a4df523b3ef90602001611974565b82818114611ac4576040517f6582533600000000000000000000000000000000000000000000000000000000815260040160405180910390fd5b805f03611ad15750610c9f565b73ffffffffffffffffffffffffffffffffffffffff86165f908152602089905260408120549080805b848114611d4d575f898983818110611b1457611b14613d8e565b9050602002016020810190611b299190613a95565b905073ffffffffffffffffffffffffffffffffffffffff8116611b90576040517f754f425b00000000000000000000000000000000000000000000000000000000815273ffffffffffffffffffffffffffffffffffffffff8c166004820152602401611104565b5f888884818110611ba357611ba3613d8e565b905060200201359050805f14611cdc57848101858111611bef576040517fdedd834100000000000000000000000000000000000000000000000000000000815260040160405180910390fd5b8095508273ffffffffffffffffffffffffffffffffffffffff168d73ffffffffffffffffffffffffffffffffffffffff1614611c7557818f5f015f8573ffffffffffffffffffffffffffffffffffffffff1673ffffffffffffffffffffffffffffffffffffffff1681526020019081526020015f205f8282540192505081905550611cda565b86821115611cd5576040517fe450d38c00000000000000000000000000000000000000000000000000000000815273ffffffffffffffffffffffffffffffffffffffff8e1660048201526024810188905260448101839052606401611104565b938101935b505b8173ffffffffffffffffffffffffffffffffffffffff168c73ffffffffffffffffffffffffffffffffffffffff167fddf252ad1be2c89b69c2b068fc378daa952ba7f163c4a11628f55a4df523b3ef83604051611d3b91815260200190565b60405180910390a35050600101611afa565b508115801590611d5d5750808214155b15611dee57818303838110611dc4576040517fe450d38c00000000000000000000000000000000000000000000000000000000815273ffffffffffffffffffffffffffffffffffffffff8b1660048201526024810185905260448101849052606401611104565b73ffffffffffffffffffffffffffffffffffffffff8a165f90815260208d90526040902090820190555b8973ffffffffffffffffffffffffffffffffffffffff168973ffffffffffffffffffffffffffffffffffffffff1614611e2d57611e2d8b8a8c85612559565b5050505050505050505050565b815181518114611e76576040517f6582533600000000000000000000000000000000000000000000000000000000815260040160405180910390fd5b805f03611e835750505050565b5f805b828114611ff3575f858281518110611ea057611ea0613d8e565b602002602001015190505f73ffffffffffffffffffffffffffffffffffffffff168173ffffffffffffffffffffffffffffffffffffffff1603611f0f576040517f92fd9c8f00000000000000000000000000000000000000000000000000000000815260040160405180910390fd5b5f858381518110611f2257611f22613d8e565b60200260200101519050805f14611f9c57838101848111611f6f576040517f5542ae7c00000000000000000000000000000000000000000000000000000000815260040160405180910390fd5b73ffffffffffffffffffffffffffffffffffffffff83165f90815260208a90526040902080548301905593505b60405181815273ffffffffffffffffffffffffffffffffffffffff8316905f907fddf252ad1be2c89b69c2b068fc378daa952ba7f163c4a11628f55a4df523b3ef9060200160405180910390a35050600101611e86565b508015610de5576002850154818101818111612045576040517f0366a5f60000000000000000000000000000000000000000000000000000000081526004810183905260248101849052604401611104565b6002870155505050505050565b6040805173ffffffffffffffffffffffffffffffffffffffff8416602482015260448082018490528251808303909101815260649091019091526020810180517bffffffffffffffffffffffffffffffffffffffffffffffffffffffff167fa9059cbb000000000000000000000000000000000000000000000000000000001790526106f4908490613277565b8273ffffffffffffffffffffffffffffffffffffffff168273ffffffffffffffffffffffffffffffffffffffff161461211e5761211e84838584612559565b61088c848383611981565b5f8061061260017f93fe0ff7226b064a4a8f0b09910762afb4bc2441835792c021ffd78cd513011e613dbb565b82818114612190576040517f6582533600000000000000000000000000000000000000000000000000000000815260040160405180910390fd5b805f0361219d5750610ea1565b73ffffffffffffffffffffffffffffffffffffffff86165f908152602088905260408120549080805b8481146123f8575f8989838181106121e0576121e0613d8e565b90506020020160208101906121f59190613a95565b905073ffffffffffffffffffffffffffffffffffffffff811661225c576040517f754f425b00000000000000000000000000000000000000000000000000000000815273ffffffffffffffffffffffffffffffffffffffff8c166004820152602401611104565b5f88888481811061226f5761226f613d8e565b905060200201359050805f14612387578481018581116122bb576040517fdedd834100000000000000000000000000000000000000000000000000000000815260040160405180910390fd5b8095508273ffffffffffffffffffffffffffffffffffffffff168d73ffffffffffffffffffffffffffffffffffffffff16146123205773ffffffffffffffffffffffffffffffffffffffff83165f90815260208f905260409020805483019055612385565b86821115612380576040517fe450d38c00000000000000000000000000000000000000000000000000000000815273ffffffffffffffffffffffffffffffffffffffff8e1660048201526024810188905260448101839052606401611104565b938101935b505b8173ffffffffffffffffffffffffffffffffffffffff168c73ffffffffffffffffffffffffffffffffffffffff167fddf252ad1be2c89b69c2b068fc378daa952ba7f163c4a11628f55a4df523b3ef836040516123e691815260200190565b60405180910390a350506001016121c6565b5081158015906124085750808214155b156124995781830383811061246f576040517fe450d38c00000000000000000000000000000000000000000000000000000000815273ffffffffffffffffffffffffffffffffffffffff8b1660048201526024810185905260448101849052606401611104565b73ffffffffffffffffffffffffffffffffffffffff8a165f90815260208c90526040902090820190555b50505050505050505050565b6124b08382846117da565b5f8181526020848152604080832073ffffffffffffffffffffffffffffffffffffffff86168085529083529281902080547fffffffffffffffffffffffffffffffffffffffffffffffffffffffffffffff0016905580518481529182018390528101919091527ff6391f5c32d9c69d2a47ea670b442974b53935d1edc7fd64eb21e047a839171b9060600160405180910390a1505050565b6060816001018054610fea90613df3565b73ffffffffffffffffffffffffffffffffffffffff82166125be576040517ff7e1ac0f00000000000000000000000000000000000000000000000000000000815273ffffffffffffffffffffffffffffffffffffffff84166004820152602401611104565b73ffffffffffffffffffffffffffffffffffffffff8084165f9081526001860160209081526040808320938616835292905220547fffffffffffffffffffffffffffffffffffffffffffffffffffffffffffffffff811480159061262157508115155b1561173f57818103818110611706576040517f137ad6ab00000000000000000000000000000000000000000000000000000000815273ffffffffffffffffffffffffffffffffffffffff8087166004830152851660248201526044810183905260648101849052608401611104565b73ffffffffffffffffffffffffffffffffffffffff82166126f5576040517f754f425b00000000000000000000000000000000000000000000000000000000815273ffffffffffffffffffffffffffffffffffffffff84166004820152602401611104565b80156127ee5773ffffffffffffffffffffffffffffffffffffffff83165f90815260208590526040902054818103818110612782576040517fe450d38c00000000000000000000000000000000000000000000000000000000815273ffffffffffffffffffffffffffffffffffffffff861660048201526024810183905260448101849052606401611104565b8373ffffffffffffffffffffffffffffffffffffffff168573ffffffffffffffffffffffffffffffffffffffff16146127eb5773ffffffffffffffffffffffffffffffffffffffff8086165f908152602088905260408082208490559186168152208054840190555b50505b8173ffffffffffffffffffffffffffffffffffffffff168373ffffffffffffffffffffffffffffffffffffffff167fddf252ad1be2c89b69c2b068fc378daa952ba7f163c4a11628f55a4df523b3ef8360405161117091815260200190565b61285a878787878761137f565b73ffffffffffffffffffffffffffffffffffffffff84163b15610c9f57610c9f8686868686868080601f0160208091040260200160405190810160405280939291908181526020018383808284375f9201919091525061338492505050565b73ffffffffffffffffffffffffffffffffffffffff8716612906576040517fa974697600000000000000000000000000000000000000000000000000000000815260040160405180910390fd5b83421115612943576040517fea2b6f5800000000000000000000000000000000000000000000000000000000815260048101859052602401611104565b73ffffffffffffffffffffffffffffffffffffffff8781165f81815260208b8152604080832080546001810190915581517f6e71edae12b1b97f4d1f60370fef10105fa2faae0126114a169c64845d6126c98185015280830195909552948b166060850152608084018a905260a084019490945260c08084018990528451808503909101815260e090930190935281519190920120906129e1611563565b6040517f19010000000000000000000000000000000000000000000000000000000000006020820152602281019190915260428101839052606201604080517fffffffffffffffffffffffffffffffffffffffffffffffffffffffffffffffe081840301815282825280516020918201205f80855291840180845281905260ff89169284019290925260608301879052608083018690529092509060019060a0016020604051602081039080840390855afa158015612aa2573d5f803e3d5ffd5b5050506020604051035190508973ffffffffffffffffffffffffffffffffffffffff168173ffffffffffffffffffffffffffffffffffffffff1614612b13576040517f822a64c800000000000000000000000000000000000000000000000000000000815260040160405180910390fd5b5050506109ba878787610645611076565b5f8381526020858152604080832073ffffffffffffffffffffffffffffffffffffffff8616845290915290205460ff161561088c575f8381526020858152604080832073ffffffffffffffffffffffffffffffffffffffff8681168086529184529382902080547fffffffffffffffffffffffffffffffffffffffffffffffffffffffffffffff00169055815187815292830152918316918101919091527ff6391f5c32d9c69d2a47ea670b442974b53935d1edc7fd64eb21e047a839171b90606001611555565b8261088c828483613eb6565b612c0486868686612690565b73ffffffffffffffffffffffffffffffffffffffff84163b15610ea157610ea18586868686868080601f0160208091040260200160405190810160405280939291908181526020018383808284375f9201919091525061338492505050565b825473ffffffffffffffffffffffffffffffffffffffff9081169083168114612cd0576040517f2ef4875e00000000000000000000000000000000000000000000000000000000815273ffffffffffffffffffffffffffffffffffffffff84166004820152602401611104565b8173ffffffffffffffffffffffffffffffffffffffff168173ffffffffffffffffffffffffffffffffffffffff161461088c5783547fffffffffffffffffffffffff00000000000000000000000000000000000000001673ffffffffffffffffffffffffffffffffffffffff8381169182178655604051908316907f8be0079c531659141344cd1fd0a4f28419497f9722a3daafe3b4186f6b6457e0905f90a350505050565b612dab612da460017f5b388d90dc1312ba799f321972f13311234fa1163bcabec7cf66101c4876eb84613dbb565b600161348f565b61079282826134db565b5f612dbe610ea9565b9050612dec817f36372b07000000000000000000000000000000000000000000000000000000006001613590565b610a2c817f9d075186000000000000000000000000000000000000000000000000000000006001613590565b612e4d7fc05327e6000000000000000000000000000000000000000000000000000000006001612e46610ea9565b9190613590565b565b612e4d7f53f41a97000000000000000000000000000000000000000000000000000000006001612e46610ea9565b612e4d7f28963e1e000000000000000000000000000000000000000000000000000000006001612e46610ea9565b612e4d7f20c07ed1000000000000000000000000000000000000000000000000000000006001612e46610ea9565b612f07612da460017fd217496980d1cb14720b20a80af36676bbece8e5feeb5d8970a9681a2c76bb75613dbb565b85612f13858783613eb6565b5060018601612f23838583613eb6565b506002860180547fffffffffffffffffffffffffffffffffffffffffffffffffffffffffffffff001660ff8316179055610ea17fa219a025000000000000000000000000000000000000000000000000000000006001612e46610ea9565b612e4d7f3c130d90000000000000000000000000000000000000000000000000000000006001612e46610ea9565b612e4d7f9d8ff7da000000000000000000000000000000000000000000000000000000006001612e46610ea9565b80471015613047576040517f08c379a000000000000000000000000000000000000000000000000000000000815260206004820152601d60248201527f416464726573733a20696e73756666696369656e742062616c616e63650000006044820152606401611104565b5f8273ffffffffffffffffffffffffffffffffffffffff16826040515f6040518083038185875af1925050503d805f811461309d576040519150601f19603f3d011682016040523d82523d5f602084013e6130a2565b606091505b50509050806106f4576040517f08c379a000000000000000000000000000000000000000000000000000000000815260206004820152603a60248201527f416464726573733a20756e61626c6520746f2073656e642076616c75652c207260448201527f6563697069656e74206d617920686176652072657665727465640000000000006064820152608401611104565b5f333214806131425750601836105b1561314c57503390565b7fffffffffffffffffffffffffffffffffffffffffffffffffffffffffffffffec36013560601c7f000000000000000000000000000000000000000000000000000000000000000073ffffffffffffffffffffffffffffffffffffffff1633148061326657506040517f8929a8ca00000000000000000000000000000000000000000000000000000000815273ffffffffffffffffffffffffffffffffffffffff82811660048301523360248301527f00000000000000000000000000000000000000000000000000000000000000001690638929a8ca90604401602060405180830381865afa158015613242573d5f803e3d5ffd5b505050506040513d601f19601f820116820180604052508101906132669190613fcd565b1561327057919050565b3391505090565b5f6132d8826040518060400160405280602081526020017f5361666545524332303a206c6f772d6c6576656c2063616c6c206661696c65648152508573ffffffffffffffffffffffffffffffffffffffff1661366b9092919063ffffffff16565b905080515f14806132f85750808060200190518101906132f89190613fcd565b6106f4576040517f08c379a000000000000000000000000000000000000000000000000000000000815260206004820152602a60248201527f5361666545524332303a204552433230206f7065726174696f6e20646964206e60448201527f6f742073756363656564000000000000000000000000000000000000000000006064820152608401611104565b6040517f4fc35859000000000000000000000000000000000000000000000000000000008082529073ffffffffffffffffffffffffffffffffffffffff851690634fc35859906133de908990899088908890600401613fec565b6020604051808303815f875af11580156133fa573d5f803e3d5ffd5b505050506040513d601f19601f8201168201806040525081019061341e9190614034565b7fffffffff000000000000000000000000000000000000000000000000000000001614610de5576040517f6d44973600000000000000000000000000000000000000000000000000000000815273ffffffffffffffffffffffffffffffffffffffff84166004820152602401611104565b815482908281106134d6576040517fbf0c18ec0000000000000000000000000000000000000000000000000000000081526004810182905260248101849052604401611104565b505550565b73ffffffffffffffffffffffffffffffffffffffff8116156135625781547fffffffffffffffffffffffff00000000000000000000000000000000000000001673ffffffffffffffffffffffffffffffffffffffff821690811783556040515f907f8be0079c531659141344cd1fd0a4f28419497f9722a3daafe3b4186f6b6457e0908290a35b6107927f7f5828d0000000000000000000000000000000000000000000000000000000006001612e46610ea9565b7c01000000000000000000000000000000000000000000000000000000007fffffffff00000000000000000000000000000000000000000000000000000000831601613608576040517f72c683bb00000000000000000000000000000000000000000000000000000000815260040160405180910390fd5b7fffffffff00000000000000000000000000000000000000000000000000000000919091165f908152602092909252604090912080547fffffffffffffffffffffffffffffffffffffffffffffffffffffffffffffff0016911515919091179055565b606061068f84845f85855f808673ffffffffffffffffffffffffffffffffffffffff16858760405161369d919061404f565b5f6040518083038185875af1925050503d805f81146136d7576040519150601f19603f3d011682016040523d82523d5f602084013e6136dc565b606091505b50915091506136ed878383876136f8565b979650505050505050565b6060831561378d5782515f036137865773ffffffffffffffffffffffffffffffffffffffff85163b613786576040517f08c379a000000000000000000000000000000000000000000000000000000000815260206004820152601d60248201527f416464726573733a2063616c6c20746f206e6f6e2d636f6e74726163740000006044820152606401611104565b508161068f565b61068f83838151156137a25781518083602001fd5b806040517f08c379a00000000000000000000000000000000000000000000000000000000081526004016111049190613889565b7fffffffff0000000000000000000000000000000000000000000000000000000081168114610a2c575f80fd5b5f60208284031215613813575f80fd5b8135610a97816137d6565b5f5b83811015613838578181015183820152602001613820565b50505f910152565b5f815180845261385781602086016020860161381e565b601f017fffffffffffffffffffffffffffffffffffffffffffffffffffffffffffffffe0169290920160200192915050565b602081525f610a976020830184613840565b73ffffffffffffffffffffffffffffffffffffffff81168114610a2c575f80fd5b5f80604083850312156138cd575f80fd5b82356138d88161389b565b946020939093013593505050565b5f8083601f8401126138f6575f80fd5b50813567ffffffffffffffff81111561390d575f80fd5b6020830191508360208260051b8501011115613927575f80fd5b9250929050565b5f805f8060408587031215613941575f80fd5b843567ffffffffffffffff80821115613958575f80fd5b613964888389016138e6565b9096509450602087013591508082111561397c575f80fd5b50613989878288016138e6565b95989497509550505050565b5f805f606084860312156139a7575f80fd5b83356139b28161389b565b925060208401356139c28161389b565b929592945050506040919091013590565b5f80604083850312156139e4575f80fd5b8235915060208301356139f68161389b565b809150509250929050565b5f60208284031215613a11575f80fd5b5035919050565b5f805f805f60608688031215613a2c575f80fd5b8535613a378161389b565b9450602086013567ffffffffffffffff80821115613a53575f80fd5b613a5f89838a016138e6565b90965094506040880135915080821115613a77575f80fd5b50613a84888289016138e6565b969995985093965092949392505050565b5f60208284031215613aa5575f80fd5b8135610a978161389b565b5f805f805f8060608789031215613ac5575f80fd5b863567ffffffffffffffff80821115613adc575f80fd5b613ae88a838b016138e6565b90985096506020890135915080821115613b00575f80fd5b613b0c8a838b016138e6565b90965094506040890135915080821115613b24575f80fd5b50613b3189828a016138e6565b979a9699509497509295939492505050565b5f8083601f840112613b53575f80fd5b50813567ffffffffffffffff811115613b6a575f80fd5b602083019150836020828501011115613927575f80fd5b5f805f805f60808688031215613b95575f80fd5b8535613ba08161389b565b94506020860135613bb08161389b565b935060408601359250606086013567ffffffffffffffff811115613bd2575f80fd5b613a8488828901613b43565b803560ff81168114613bee575f80fd5b919050565b5f805f805f805f60e0888a031215613c09575f80fd5b8735613c148161389b565b96506020880135613c248161389b565b95506040880135945060608801359350613c4060808901613bde565b925060a0880135915060c0880135905092959891949750929550565b5f8060408385031215613c6d575f80fd5b8235613c788161389b565b915060208301356139f68161389b565b5f8060208385031215613c99575f80fd5b823567ffffffffffffffff811115613caf575f80fd5b613cbb85828601613b43565b90969095509350505050565b5f805f8060608587031215613cda575f80fd5b8435613ce58161389b565b935060208501359250604085013567ffffffffffffffff811115613d07575f80fd5b61398987828801613b43565b5f805f805f60608688031215613d27575f80fd5b853567ffffffffffffffff80821115613d3e575f80fd5b613d4a89838a01613b43565b90975095506020880135915080821115613d62575f80fd5b50613d6f88828901613b43565b9094509250613d82905060408701613bde565b90509295509295909350565b7f4e487b71000000000000000000000000000000000000000000000000000000005f52603260045260245ffd5b81810381811115610612577f4e487b71000000000000000000000000000000000000000000000000000000005f52601160045260245ffd5b600181811c90821680613e0757607f821691505b602082108103613e3e577f4e487b71000000000000000000000000000000000000000000000000000000005f52602260045260245ffd5b50919050565b7f4e487b71000000000000000000000000000000000000000000000000000000005f52604160045260245ffd5b601f8211156106f4575f81815260208120601f850160051c81016020861015613e975750805b601f850160051c820191505b81811015610ea157828155600101613ea3565b67ffffffffffffffff831115613ece57613ece613e44565b613ee283613edc8354613df3565b83613e71565b5f601f841160018114613f32575f8515613efc5750838201355b7fffffffffffffffffffffffffffffffffffffffffffffffffffffffffffffffff600387901b1c1916600186901b178355610de5565b5f838152602090207fffffffffffffffffffffffffffffffffffffffffffffffffffffffffffffffe0861690835b82811015613f805786850135825560209485019460019092019101613f60565b5086821015613fbb577fffffffffffffffffffffffffffffffffffffffffffffffffffffffffffffffff60f88860031b161c19848701351681555b505060018560011b0183555050505050565b5f60208284031215613fdd575f80fd5b81518015158114610a97575f80fd5b5f73ffffffffffffffffffffffffffffffffffffffff80871683528086166020840152508360408301526080606083015261402a6080830184613840565b9695505050505050565b5f60208284031215614044575f80fd5b8151610a97816137d6565b5f825161406081846020870161381e565b919091019291505056fea2646970667358221220538c7116954860a610fceab5cfa8b633d00252a416664221762598760b59534364736f6c63430008150033",
  "linkReferences": {},
  "deployedLinkReferences": {}
}