{
  "_format": "hh-sol-artifact-1",
  "contractName": "ERC20MintBurnProxied",
  "sourceName": "contracts/token/ERC20/preset/proxied/ERC20MintBurnProxied.sol",
  "abi": [
    {
      "inputs": [
        {
          "internalType": "contract IForwarderRegistry",
          "name": "forwarderRegistry",
          "type": "address"
        }
      ],
      "stateMutability": "nonpayable",
      "type": "constructor"
    },
    {
      "inputs": [
        {
          "internalType": "address",
          "name": "owner",
          "type": "address"
        },
        {
          "internalType": "address",
          "name": "spender",
          "type": "address"
        },
        {
          "internalType": "uint256",
          "name": "allowance",
          "type": "uint256"
        },
        {
          "internalType": "uint256",
          "name": "increment",
          "type": "uint256"
        }
      ],
      "name": "ERC20AllowanceOverflow",
      "type": "error"
    },
    {
      "inputs": [
        {
          "internalType": "address",
          "name": "owner",
          "type": "address"
        }
      ],
      "name": "ERC20ApprovalToAddressZero",
      "type": "error"
    },
    {
      "inputs": [],
      "name": "ERC20BatchMintValuesOverflow",
      "type": "error"
    },
    {
      "inputs": [],
      "name": "ERC20BatchTransferValuesOverflow",
      "type": "error"
    },
    {
      "inputs": [
        {
          "internalType": "address",
          "name": "owner",
          "type": "address"
        },
        {
          "internalType": "address",
          "name": "spender",
          "type": "address"
        },
        {
          "internalType": "uint256",
          "name": "allowance",
          "type": "uint256"
        },
        {
          "internalType": "uint256",
          "name": "decrement",
          "type": "uint256"
        }
      ],
      "name": "ERC20InsufficientAllowance",
      "type": "error"
    },
    {
      "inputs": [
        {
          "internalType": "address",
          "name": "owner",
          "type": "address"
        },
        {
          "internalType": "uint256",
          "name": "balance",
          "type": "uint256"
        },
        {
          "internalType": "uint256",
          "name": "value",
          "type": "uint256"
        }
      ],
      "name": "ERC20InsufficientBalance",
      "type": "error"
    },
    {
      "inputs": [],
      "name": "ERC20MintToAddressZero",
      "type": "error"
    },
    {
      "inputs": [
        {
          "internalType": "uint256",
          "name": "deadline",
          "type": "uint256"
        }
      ],
      "name": "ERC20PermitExpired",
      "type": "error"
    },
    {
      "inputs": [],
      "name": "ERC20PermitFromAddressZero",
      "type": "error"
    },
    {
      "inputs": [],
      "name": "ERC20PermitInvalidSignature",
      "type": "error"
    },
    {
      "inputs": [
        {
          "internalType": "address",
          "name": "recipient",
          "type": "address"
        }
      ],
      "name": "ERC20SafeTransferRejected",
      "type": "error"
    },
    {
      "inputs": [
        {
          "internalType": "uint256",
          "name": "supply",
          "type": "uint256"
        },
        {
          "internalType": "uint256",
          "name": "value",
          "type": "uint256"
        }
      ],
      "name": "ERC20TotalSupplyOverflow",
      "type": "error"
    },
    {
      "inputs": [
        {
          "internalType": "address",
          "name": "owner",
          "type": "address"
        }
      ],
      "name": "ERC20TransferToAddressZero",
      "type": "error"
    },
    {
      "inputs": [],
      "name": "FailedCall",
      "type": "error"
    },
    {
      "inputs": [],
      "name": "IllegalInterfaceId",
      "type": "error"
    },
    {
      "inputs": [],
      "name": "InconsistentArrayLengths",
      "type": "error"
    },
    {
      "inputs": [
        {
          "internalType": "address",
          "name": "tokenContract",
          "type": "address"
        }
      ],
      "name": "IncorrectTokenContractType",
      "type": "error"
    },
    {
      "inputs": [
        {
          "internalType": "uint256",
          "name": "currentPhase",
          "type": "uint256"
        },
        {
          "internalType": "uint256",
          "name": "newPhase",
          "type": "uint256"
        }
      ],
      "name": "InitializationPhaseAlreadyReached",
      "type": "error"
    },
    {
      "inputs": [
        {
          "internalType": "uint256",
          "name": "balance",
          "type": "uint256"
        },
        {
          "internalType": "uint256",
          "name": "needed",
          "type": "uint256"
        }
      ],
      "name": "InsufficientBalance",
      "type": "error"
    },
    {
      "inputs": [
        {
          "internalType": "address",
          "name": "account",
          "type": "address"
        }
      ],
      "name": "NotContractOwner",
      "type": "error"
    },
    {
      "inputs": [
        {
          "internalType": "bytes32",
          "name": "role",
          "type": "bytes32"
        },
        {
          "internalType": "address",
          "name": "account",
          "type": "address"
        }
      ],
      "name": "NotRoleHolder",
      "type": "error"
    },
    {
      "inputs": [
        {
          "internalType": "address",
          "name": "token",
          "type": "address"
        }
      ],
      "name": "SafeERC20FailedOperation",
      "type": "error"
    },
    {
      "anonymous": false,
      "inputs": [
        {
          "indexed": true,
          "internalType": "address",
          "name": "owner",
          "type": "address"
        },
        {
          "indexed": true,
          "internalType": "address",
          "name": "spender",
          "type": "address"
        },
        {
          "indexed": false,
          "internalType": "uint256",
          "name": "value",
          "type": "uint256"
        }
      ],
      "name": "Approval",
      "type": "event"
    },
    {
      "anonymous": false,
      "inputs": [
        {
          "indexed": true,
          "internalType": "address",
          "name": "previousOwner",
          "type": "address"
        },
        {
          "indexed": true,
          "internalType": "address",
          "name": "newOwner",
          "type": "address"
        }
      ],
      "name": "OwnershipTransferred",
      "type": "event"
    },
    {
      "anonymous": false,
      "inputs": [
        {
          "indexed": false,
          "internalType": "bytes32",
          "name": "role",
          "type": "bytes32"
        },
        {
          "indexed": false,
          "internalType": "address",
          "name": "account",
          "type": "address"
        },
        {
          "indexed": false,
          "internalType": "address",
          "name": "operator",
          "type": "address"
        }
      ],
      "name": "RoleGranted",
      "type": "event"
    },
    {
      "anonymous": false,
      "inputs": [
        {
          "indexed": false,
          "internalType": "bytes32",
          "name": "role",
          "type": "bytes32"
        },
        {
          "indexed": false,
          "internalType": "address",
          "name": "account",
          "type": "address"
        },
        {
          "indexed": false,
          "internalType": "address",
          "name": "operator",
          "type": "address"
        }
      ],
      "name": "RoleRevoked",
      "type": "event"
    },
    {
      "anonymous": false,
      "inputs": [
        {
          "indexed": true,
          "internalType": "address",
          "name": "from",
          "type": "address"
        },
        {
          "indexed": true,
          "internalType": "address",
          "name": "to",
          "type": "address"
        },
        {
          "indexed": false,
          "internalType": "uint256",
          "name": "value",
          "type": "uint256"
        }
      ],
      "name": "Transfer",
      "type": "event"
    },
    {
      "inputs": [],
      "name": "DOMAIN_SEPARATOR",
      "outputs": [
        {
          "internalType": "bytes32",
          "name": "",
          "type": "bytes32"
        }
      ],
      "stateMutability": "view",
      "type": "function"
    },
    {
      "inputs": [],
      "name": "MINTER_ROLE",
      "outputs": [
        {
          "internalType": "bytes32",
          "name": "",
          "type": "bytes32"
        }
      ],
      "stateMutability": "view",
      "type": "function"
    },
    {
      "inputs": [
        {
          "internalType": "address",
          "name": "owner",
          "type": "address"
        },
        {
          "internalType": "address",
          "name": "spender",
          "type": "address"
        }
      ],
      "name": "allowance",
      "outputs": [
        {
          "internalType": "uint256",
          "name": "value",
          "type": "uint256"
        }
      ],
      "stateMutability": "view",
      "type": "function"
    },
    {
      "inputs": [
        {
          "internalType": "address",
          "name": "spender",
          "type": "address"
        },
        {
          "internalType": "uint256",
          "name": "value",
          "type": "uint256"
        }
      ],
      "name": "approve",
      "outputs": [
        {
          "internalType": "bool",
          "name": "result",
          "type": "bool"
        }
      ],
      "stateMutability": "nonpayable",
      "type": "function"
    },
    {
      "inputs": [
        {
          "internalType": "address",
          "name": "owner",
          "type": "address"
        }
      ],
      "name": "balanceOf",
      "outputs": [
        {
          "internalType": "uint256",
          "name": "balance",
          "type": "uint256"
        }
      ],
      "stateMutability": "view",
      "type": "function"
    },
    {
      "inputs": [
        {
          "internalType": "address[]",
          "name": "owners",
          "type": "address[]"
        },
        {
          "internalType": "uint256[]",
          "name": "values",
          "type": "uint256[]"
        }
      ],
      "name": "batchBurnFrom",
      "outputs": [
        {
          "internalType": "bool",
          "name": "",
          "type": "bool"
        }
      ],
      "stateMutability": "nonpayable",
      "type": "function"
    },
    {
      "inputs": [
        {
          "internalType": "address[]",
          "name": "recipients",
          "type": "address[]"
        },
        {
          "internalType": "uint256[]",
          "name": "values",
          "type": "uint256[]"
        }
      ],
      "name": "batchMint",
      "outputs": [],
      "stateMutability": "nonpayable",
      "type": "function"
    },
    {
      "inputs": [
        {
          "internalType": "address[]",
          "name": "recipients",
          "type": "address[]"
        },
        {
          "internalType": "uint256[]",
          "name": "values",
          "type": "uint256[]"
        }
      ],
      "name": "batchTransfer",
      "outputs": [
        {
          "internalType": "bool",
          "name": "",
          "type": "bool"
        }
      ],
      "stateMutability": "nonpayable",
      "type": "function"
    },
    {
      "inputs": [
        {
          "internalType": "address",
          "name": "from",
          "type": "address"
        },
        {
          "internalType": "address[]",
          "name": "recipients",
          "type": "address[]"
        },
        {
          "internalType": "uint256[]",
          "name": "values",
          "type": "uint256[]"
        }
      ],
      "name": "batchTransferFrom",
      "outputs": [
        {
          "internalType": "bool",
          "name": "",
          "type": "bool"
        }
      ],
      "stateMutability": "nonpayable",
      "type": "function"
    },
    {
      "inputs": [
        {
          "internalType": "uint256",
          "name": "value",
          "type": "uint256"
        }
      ],
      "name": "burn",
      "outputs": [
        {
          "internalType": "bool",
          "name": "",
          "type": "bool"
        }
      ],
      "stateMutability": "nonpayable",
      "type": "function"
    },
    {
      "inputs": [
        {
          "internalType": "address",
          "name": "from",
          "type": "address"
        },
        {
          "internalType": "uint256",
          "name": "value",
          "type": "uint256"
        }
      ],
      "name": "burnFrom",
      "outputs": [
        {
          "internalType": "bool",
          "name": "",
          "type": "bool"
        }
      ],
      "stateMutability": "nonpayable",
      "type": "function"
    },
    {
      "inputs": [],
      "name": "decimals",
      "outputs": [
        {
          "internalType": "uint8",
          "name": "",
          "type": "uint8"
        }
      ],
      "stateMutability": "view",
      "type": "function"
    },
    {
      "inputs": [
        {
          "internalType": "address",
          "name": "spender",
          "type": "address"
        },
        {
          "internalType": "uint256",
          "name": "subtractedValue",
          "type": "uint256"
        }
      ],
      "name": "decreaseAllowance",
      "outputs": [
        {
          "internalType": "bool",
          "name": "result",
          "type": "bool"
        }
      ],
      "stateMutability": "nonpayable",
      "type": "function"
    },
    {
      "inputs": [],
      "name": "forwarderRegistry",
      "outputs": [
        {
          "internalType": "contract IForwarderRegistry",
          "name": "",
          "type": "address"
        }
      ],
      "stateMutability": "view",
      "type": "function"
    },
    {
      "inputs": [
        {
          "internalType": "bytes32",
          "name": "role",
          "type": "bytes32"
        },
        {
          "internalType": "address",
          "name": "account",
          "type": "address"
        }
      ],
      "name": "grantRole",
      "outputs": [],
      "stateMutability": "nonpayable",
      "type": "function"
    },
    {
      "inputs": [
        {
          "internalType": "bytes32",
          "name": "role",
          "type": "bytes32"
        },
        {
          "internalType": "address",
          "name": "account",
          "type": "address"
        }
      ],
      "name": "hasRole",
      "outputs": [
        {
          "internalType": "bool",
          "name": "hasRole_",
          "type": "bool"
        }
      ],
      "stateMutability": "view",
      "type": "function"
    },
    {
      "inputs": [
        {
          "internalType": "address",
          "name": "spender",
          "type": "address"
        },
        {
          "internalType": "uint256",
          "name": "addedValue",
          "type": "uint256"
        }
      ],
      "name": "increaseAllowance",
      "outputs": [
        {
          "internalType": "bool",
          "name": "result",
          "type": "bool"
        }
      ],
      "stateMutability": "nonpayable",
      "type": "function"
    },
    {
      "inputs": [
        {
          "internalType": "string",
          "name": "tokenName",
          "type": "string"
        },
        {
          "internalType": "string",
          "name": "tokenSymbol",
          "type": "string"
        },
        {
          "internalType": "uint8",
          "name": "tokenDecimals",
          "type": "uint8"
        }
      ],
      "name": "init",
      "outputs": [],
      "stateMutability": "nonpayable",
      "type": "function"
    },
    {
      "inputs": [
        {
          "internalType": "address",
          "name": "forwarder",
          "type": "address"
        }
      ],
      "name": "isTrustedForwarder",
      "outputs": [
        {
          "internalType": "bool",
          "name": "",
          "type": "bool"
        }
      ],
      "stateMutability": "view",
      "type": "function"
    },
    {
      "inputs": [
        {
          "internalType": "address",
          "name": "to",
          "type": "address"
        },
        {
          "internalType": "uint256",
          "name": "value",
          "type": "uint256"
        }
      ],
      "name": "mint",
      "outputs": [],
      "stateMutability": "nonpayable",
      "type": "function"
    },
    {
      "inputs": [],
      "name": "name",
      "outputs": [
        {
          "internalType": "string",
          "name": "",
          "type": "string"
        }
      ],
      "stateMutability": "view",
      "type": "function"
    },
    {
      "inputs": [
        {
          "internalType": "address",
          "name": "owner",
          "type": "address"
        }
      ],
      "name": "nonces",
      "outputs": [
        {
          "internalType": "uint256",
          "name": "",
          "type": "uint256"
        }
      ],
      "stateMutability": "view",
      "type": "function"
    },
    {
      "inputs": [],
      "name": "owner",
      "outputs": [
        {
          "internalType": "address",
          "name": "",
          "type": "address"
        }
      ],
      "stateMutability": "view",
      "type": "function"
    },
    {
      "inputs": [
        {
          "internalType": "address",
          "name": "owner",
          "type": "address"
        },
        {
          "internalType": "address",
          "name": "spender",
          "type": "address"
        },
        {
          "internalType": "uint256",
          "name": "value",
          "type": "uint256"
        },
        {
          "internalType": "uint256",
          "name": "deadline",
          "type": "uint256"
        },
        {
          "internalType": "uint8",
          "name": "v",
          "type": "uint8"
        },
        {
          "internalType": "bytes32",
          "name": "r",
          "type": "bytes32"
        },
        {
          "internalType": "bytes32",
          "name": "s",
          "type": "bytes32"
        }
      ],
      "name": "permit",
      "outputs": [],
      "stateMutability": "nonpayable",
      "type": "function"
    },
    {
      "inputs": [
        {
          "internalType": "address[]",
          "name": "accounts",
          "type": "address[]"
        },
        {
          "internalType": "contract IERC20[]",
          "name": "tokens",
          "type": "address[]"
        },
        {
          "internalType": "uint256[]",
          "name": "amounts",
          "type": "uint256[]"
        }
      ],
      "name": "recoverERC20s",
      "outputs": [],
      "stateMutability": "nonpayable",
      "type": "function"
    },
    {
      "inputs": [
        {
          "internalType": "address[]",
          "name": "accounts",
          "type": "address[]"
        },
        {
          "internalType": "contract IERC721[]",
          "name": "contracts",
          "type": "address[]"
        },
        {
          "internalType": "uint256[]",
          "name": "tokenIds",
          "type": "uint256[]"
        }
      ],
      "name": "recoverERC721s",
      "outputs": [],
      "stateMutability": "nonpayable",
      "type": "function"
    },
    {
      "inputs": [
        {
          "internalType": "address payable[]",
          "name": "accounts",
          "type": "address[]"
        },
        {
          "internalType": "uint256[]",
          "name": "amounts",
          "type": "uint256[]"
        }
      ],
      "name": "recoverETH",
      "outputs": [],
      "stateMutability": "nonpayable",
      "type": "function"
    },
    {
      "inputs": [
        {
          "internalType": "bytes32",
          "name": "role",
          "type": "bytes32"
        }
      ],
      "name": "renounceRole",
      "outputs": [],
      "stateMutability": "nonpayable",
      "type": "function"
    },
    {
      "inputs": [
        {
          "internalType": "bytes32",
          "name": "role",
          "type": "bytes32"
        },
        {
          "internalType": "address",
          "name": "account",
          "type": "address"
        }
      ],
      "name": "revokeRole",
      "outputs": [],
      "stateMutability": "nonpayable",
      "type": "function"
    },
    {
      "inputs": [
        {
          "internalType": "address",
          "name": "to",
          "type": "address"
        },
        {
          "internalType": "uint256",
          "name": "value",
          "type": "uint256"
        },
        {
          "internalType": "bytes",
          "name": "data",
          "type": "bytes"
        }
      ],
      "name": "safeTransfer",
      "outputs": [
        {
          "internalType": "bool",
          "name": "",
          "type": "bool"
        }
      ],
      "stateMutability": "nonpayable",
      "type": "function"
    },
    {
      "inputs": [
        {
          "internalType": "address",
          "name": "from",
          "type": "address"
        },
        {
          "internalType": "address",
          "name": "to",
          "type": "address"
        },
        {
          "internalType": "uint256",
          "name": "value",
          "type": "uint256"
        },
        {
          "internalType": "bytes",
          "name": "data",
          "type": "bytes"
        }
      ],
      "name": "safeTransferFrom",
      "outputs": [
        {
          "internalType": "bool",
          "name": "",
          "type": "bool"
        }
      ],
      "stateMutability": "nonpayable",
      "type": "function"
    },
    {
      "inputs": [
        {
          "internalType": "string",
          "name": "uri",
          "type": "string"
        }
      ],
      "name": "setTokenURI",
      "outputs": [],
      "stateMutability": "nonpayable",
      "type": "function"
    },
    {
      "inputs": [
        {
          "internalType": "bytes4",
          "name": "interfaceId",
          "type": "bytes4"
        }
      ],
      "name": "supportsInterface",
      "outputs": [
        {
          "internalType": "bool",
          "name": "",
          "type": "bool"
        }
      ],
      "stateMutability": "view",
      "type": "function"
    },
    {
      "inputs": [],
      "name": "symbol",
      "outputs": [
        {
          "internalType": "string",
          "name": "",
          "type": "string"
        }
      ],
      "stateMutability": "view",
      "type": "function"
    },
    {
      "inputs": [],
      "name": "tokenURI",
      "outputs": [
        {
          "internalType": "string",
          "name": "",
          "type": "string"
        }
      ],
      "stateMutability": "view",
      "type": "function"
    },
    {
      "inputs": [],
      "name": "totalSupply",
      "outputs": [
        {
          "internalType": "uint256",
          "name": "supply",
          "type": "uint256"
        }
      ],
      "stateMutability": "view",
      "type": "function"
    },
    {
      "inputs": [
        {
          "internalType": "address",
          "name": "to",
          "type": "address"
        },
        {
          "internalType": "uint256",
          "name": "value",
          "type": "uint256"
        }
      ],
      "name": "transfer",
      "outputs": [
        {
          "internalType": "bool",
          "name": "result",
          "type": "bool"
        }
      ],
      "stateMutability": "nonpayable",
      "type": "function"
    },
    {
      "inputs": [
        {
          "internalType": "address",
          "name": "from",
          "type": "address"
        },
        {
          "internalType": "address",
          "name": "to",
          "type": "address"
        },
        {
          "internalType": "uint256",
          "name": "value",
          "type": "uint256"
        }
      ],
      "name": "transferFrom",
      "outputs": [
        {
          "internalType": "bool",
          "name": "result",
          "type": "bool"
        }
      ],
      "stateMutability": "nonpayable",
      "type": "function"
    },
    {
      "inputs": [
        {
          "internalType": "address",
          "name": "newOwner",
          "type": "address"
        }
      ],
      "name": "transferOwnership",
      "outputs": [],
      "stateMutability": "nonpayable",
      "type": "function"
    }
  ],
  "bytecode": "0x60a0604052348015600f57600080fd5b50604051614117380380614117833981016040819052602c91603c565b6001600160a01b0316608052606a565b600060208284031215604d57600080fd5b81516001600160a01b0381168114606357600080fd5b9392505050565b60805161407d61009a6000396000818161034001528181610420015281816132a1015261332f015261407d6000f3fe608060405234801561001057600080fd5b50600436106102ad5760003560e01c806379cc67901161017b578063c3666c36116100d8578063e0df5b6f1161008c578063f2fde38b11610071578063f2fde38b146105d7578063f57b0182146105ea578063f7ba94bd146105fd57600080fd5b8063e0df5b6f146105b1578063eb795549146105c457600080fd5b8063d5391393116100bd578063d539139314610564578063d547741f1461058b578063dd62ed3e1461059e57600080fd5b8063c3666c361461053e578063d505accf1461055157600080fd5b806391d148541161012f578063a457c2d711610114578063a457c2d714610505578063a9059cbb14610518578063b88d4fde1461052b57600080fd5b806391d14854146104ea57806395d89b41146104fd57600080fd5b806388d695b21161016057806388d695b2146104bc5780638bb9c5bf146104cf5780638da5cb5b146104e257600080fd5b806379cc6790146104965780637ecebe00146104a957600080fd5b80633644e515116102295780634885b254116101dd57806368573107116101c2578063685731071461045d57806370a082311461047057806373c8a9581461048357600080fd5b80634885b254146103fd578063572b6c051461041057600080fd5b80633c130d901161020e5780633c130d90146103cf57806340c10f19146103d757806342966c68146103ea57600080fd5b80633644e515146103b457806339509351146103bc57600080fd5b80631b9a7529116102805780632b4c9f16116102655780632b4c9f161461033e5780632f2ff15d14610385578063313ce5671461039a57600080fd5b80631b9a75291461031857806323b872dd1461032b57600080fd5b806301ffc9a7146102b257806306fdde03146102da578063095ea7b3146102ef57806318160ddd14610302575b600080fd5b6102c56102c03660046137ab565b610610565b60405190151581526020015b60405180910390f35b6102e261062a565b6040516102d1919061382c565b6102c56102fd366004613861565b610641565b61030a610669565b6040519081526020016102d1565b6102c56103263660046138d9565b61067d565b6102c5610339366004613945565b6106ab565b7f00000000000000000000000000000000000000000000000000000000000000005b60405173ffffffffffffffffffffffffffffffffffffffff90911681526020016102d1565b610398610393366004613986565b6106d6565b005b6103a261070f565b60405160ff90911681526020016102d1565b61030a610726565b6102c56103ca366004613861565b610730565b6102e261074f565b6103986103e5366004613861565b61075c565b6102c56103f83660046139b6565b6107af565b6102c561040b3660046139cf565b6107d4565b6102c561041e366004613a52565b7f000000000000000000000000000000000000000000000000000000000000000073ffffffffffffffffffffffffffffffffffffffff90811691161490565b61039861046b3660046138d9565b610805565b61030a61047e366004613a52565b6108af565b610398610491366004613a6f565b6108e7565b6102c56104a4366004613861565b6109e5565b61030a6104b7366004613a52565b610a04565b6102c56104ca3660046138d9565b610a12565b6103986104dd3660046139b6565b610a35565b610360610a53565b6102c56104f8366004613986565b610a7a565b6102e2610ac5565b6102c5610513366004613861565b610ad7565b6102c5610526366004613861565b610af6565b6102c5610539366004613b4b565b610b15565b61039861054c366004613a6f565b610b3a565b61039861055f366004613bc3565b610de0565b61030a7f6d696e746572000000000000000000000000000000000000000000000000000081565b610398610599366004613986565b610e07565b61030a6105ac366004613c31565b610e35565b6103986105bf366004613c5f565b610e80565b6102c56105d2366004613ca1565b610e9f565b6103986105e5366004613a52565b610ec2565b6103986105f8366004613cf1565b610edd565b61039861060b3660046138d9565b610f4f565b60006106248261061e61100e565b9061103c565b92915050565b606061063c610637611116565b611144565b905090565b600061066061064e6111da565b84846106586111e4565b929190611212565b50600192915050565b600061063c6106766111e4565b6002015490565b60006106a061068a6111da565b868686866106966111e4565b94939291906112e9565b506001949350505050565b60006106cc6106b86111da565b8585856106c36111e4565b939291906114f2565b5060019392505050565b60006106e06111da565b90506106f4816106ee61153d565b9061156b565b61070a8383836107026115d6565b929190611604565b505050565b600061063c61071c611116565b6002015460ff1690565b600061063c6116da565b600061066061073d6111da565b84846107476111e4565b929190611775565b606061063c610637611927565b6107977f6d696e74657200000000000000000000000000000000000000000000000000006107886111da565b6107906115d6565b9190611955565b6107ab82826107a46111e4565b91906119db565b5050565b60006107cc6107bc6111da565b836107c56111e4565b9190611aff565b506001919050565b60006107f96107e16111da565b87878787876107ee6111e4565b959493929190611c0b565b50600195945050505050565b6108317f6d696e74657200000000000000000000000000000000000000000000000000006107886111da565b6108a9848480806020026020016040519081016040528093929190818152602001838360200280828437600092019190915250506040805160208088028281018201909352878252909350879250869182918501908490808284376000920191909152506108a292506111e4915050565b9190611fe5565b50505050565b6000610624826108bd6111e4565b9073ffffffffffffffffffffffffffffffffffffffff166000908152602091909152604090205490565b6108fa6108f26111da565b6106ee61153d565b84838114158061090a5750808214155b15610941576040517f6582533600000000000000000000000000000000000000000000000000000000815260040160405180910390fd5b60005b818110156109db576109d388888381811061096157610961613d72565b90506020020160208101906109769190613a52565b85858481811061098857610988613d72565b905060200201358888858181106109a1576109a1613d72565b90506020020160208101906109b69190613a52565b73ffffffffffffffffffffffffffffffffffffffff169190612206565b600101610944565b5050505050505050565b60006106606109f26111da565b84846109fc6111e4565b929190612293565b6000610624826108bd6122dd565b60006106a0610a1f6111da565b86868686610a2b6111e4565b949392919061230b565b610a50610a406111da565b82610a496115d6565b9190612662565b50565b600061063c610a6061153d565b5473ffffffffffffffffffffffffffffffffffffffff1690565b6000610abe8383610a896115d6565b60009283526020908152604080842073ffffffffffffffffffffffffffffffffffffffff909316845291905290205460ff1690565b9392505050565b606061063c610ad2611116565b612706565b6000610660610ae46111da565b8484610aee6111e4565b929190612717565b6000610660610b036111da565b8484610b0d6111e4565b92919061284f565b60006107f9610b226111da565b8787878787610b2f6111e4565b959493929190612a0e565b610b456108f26111da565b848381141580610b555750808214155b15610b8c576040517f6582533600000000000000000000000000000000000000000000000000000000815260040160405180910390fd5b60005b818110156109db576000868683818110610bab57610bab613d72565b9050602002016020810190610bc09190613a52565b6040517f01ffc9a70000000000000000000000000000000000000000000000000000000081527f80ac58cd00000000000000000000000000000000000000000000000000000000600482015290915073ffffffffffffffffffffffffffffffffffffffff8216906301ffc9a790602401602060405180830381865afa158015610c4d573d6000803e3d6000fd5b505050506040513d601f19601f82011682018060405250810190610c719190613da1565b610cc4576040517f986b9f1f00000000000000000000000000000000000000000000000000000000815273ffffffffffffffffffffffffffffffffffffffff821660048201526024015b60405180910390fd5b868683818110610cd657610cd6613d72565b9050602002016020810190610ceb9190613a52565b73ffffffffffffffffffffffffffffffffffffffff166342842e0e308b8b86818110610d1957610d19613d72565b9050602002016020810190610d2e9190613a52565b888887818110610d4057610d40613d72565b6040517fffffffff0000000000000000000000000000000000000000000000000000000060e088901b16815273ffffffffffffffffffffffffffffffffffffffff958616600482015294909316602485015250602090910201356044820152606401600060405180830381600087803b158015610dbc57600080fd5b505af1158015610dd0573d6000803e3d6000fd5b5050505050806001019050610b8f565b610dfe87878787878787610df26122dd565b96959493929190612a7b565b50505050505050565b6000610e116111da565b9050610e1f816106ee61153d565b61070a838383610e2d6115d6565b929190612cea565b6000610abe8383610e446111e4565b919073ffffffffffffffffffffffffffffffffffffffff9182166000908152600193909301602090815260408085209290931684525290205490565b610e8b6108f26111da565b6107ab8282610e98611927565b9190612db4565b60006106a0610eac6111da565b86868686610eb86111e4565b9493929190612dc0565b610a50610ecd6111da565b82610ed661153d565b9190612e2c565b610ef6610ee86111da565b610ef061153d565b90612f40565b610efe612f7f565b610f06612fe3565b610f0e61301a565b610f16613048565b610f1e613076565b610f388585858585610f2e611116565b94939291906130a4565b610f4061314c565b610f4861317a565b5050505050565b610f5a6108f26111da565b82818114610f94576040517f6582533600000000000000000000000000000000000000000000000000000000815260040160405180910390fd5b60005b8181101561100657610ffe848483818110610fb457610fb4613d72565b90506020020135878784818110610fcd57610fcd613d72565b9050602002016020810190610fe29190613a52565b73ffffffffffffffffffffffffffffffffffffffff16906131a8565b600101610f97565b505050505050565b60008061062460017fca9d3e17f264b0f3984e2634e94adb37fa3e6a8103f06aeae6fa59e21c769f5e613dc3565b60007c01000000000000000000000000000000000000000000000000000000007fffffffff0000000000000000000000000000000000000000000000000000000083160161108c57506000610624565b7ffe003659000000000000000000000000000000000000000000000000000000007fffffffff000000000000000000000000000000000000000000000000000000008316016110dd57506001610624565b507fffffffff00000000000000000000000000000000000000000000000000000000166000908152602091909152604090205460ff1690565b60008061062460017f335df4119bbb04f056b33eba33b826d3529129e458faf6daa9924b5a8f3b6a82613dc3565b606081600001805461115590613dfd565b80601f016020809104026020016040519081016040528092919081815260200182805461118190613dfd565b80156111ce5780601f106111a3576101008083540402835291602001916111ce565b820191906000526020600020905b8154815290600101906020018083116111b157829003601f168201915b50505050509050919050565b600061063c61325e565b60008061062460017f1da92899d3da68bf9787824388a37ea2bfa79780bcef91b9716c390eec8ecbef613dc3565b73ffffffffffffffffffffffffffffffffffffffff8216611277576040517ff7e1ac0f00000000000000000000000000000000000000000000000000000000815273ffffffffffffffffffffffffffffffffffffffff84166004820152602401610cbb565b73ffffffffffffffffffffffffffffffffffffffff838116600081815260018701602090815260408083209487168084529482529182902085905590518481527f8c5be1e5ebec7d5bd14f71427d1e84f3dd0314c0f7b2291e5b200ac8c7c3b92591015b60405180910390a350505050565b82818114611323576040517f6582533600000000000000000000000000000000000000000000000000000000815260040160405180910390fd5b806000036113315750611006565b6000805b828110156114d657600087878381811061135157611351613d72565b90506020020160208101906113669190613a52565b9050600086868481811061137c5761137c613d72565b9050602002013590508973ffffffffffffffffffffffffffffffffffffffff168273ffffffffffffffffffffffffffffffffffffffff16146113c4576113c48b838c84612717565b801561147e5773ffffffffffffffffffffffffffffffffffffffff8216600090815260208c90526040902054818103818110611452576040517fe450d38c00000000000000000000000000000000000000000000000000000000815273ffffffffffffffffffffffffffffffffffffffff851660048201526024810183905260448101849052606401610cbb565b73ffffffffffffffffffffffffffffffffffffffff8416600090815260208e9052604090205550928301925b60405181815260009073ffffffffffffffffffffffffffffffffffffffff8416907fddf252ad1be2c89b69c2b068fc378daa952ba7f163c4a11628f55a4df523b3ef9060200160405180910390a35050600101611335565b5080156109db5760028801805482900390555050505050505050565b8373ffffffffffffffffffffffffffffffffffffffff168373ffffffffffffffffffffffffffffffffffffffff16146115315761153185848684612717565b610f488584848461284f565b60008061062460017fc9ed16f33ab3a66c84bfd83099ccb2a8845871e2e1c1928f63797152f0fd54cd613dc3565b815473ffffffffffffffffffffffffffffffffffffffff8281169116146107ab576040517f2ef4875e00000000000000000000000000000000000000000000000000000000815273ffffffffffffffffffffffffffffffffffffffff82166004820152602401610cbb565b60008061062460017fc8827d3282af6f37b64c3e9e6f3ac9df286ab0bb0fccd6f8661bf19adb368b23613dc3565b60008381526020858152604080832073ffffffffffffffffffffffffffffffffffffffff8616845290915290205460ff166108a95760008381526020858152604080832073ffffffffffffffffffffffffffffffffffffffff8681168086529184529382902080547fffffffffffffffffffffffffffffffffffffffffffffffffffffffffffffff00166001179055815187815292830152918316918101919091527f2f8788117e7eff1d82e926ec794901d17c78024a50270940304540a733656f0d906060015b60405180910390a150505050565b6000467f8b73c3c69bb8fe3d512ecc4cf759cc79239f7b179b0ffacaa9a75d522b39400f611709610637611116565b80516020918201206040805192830193909352918101919091527fc89efdaa54c0f20c7adf612882df0950f5a951637e0307cdcb4c672f298b8bc66060820152608081018290523060a082015260c0016040516020818303038152906040528051906020012091505090565b73ffffffffffffffffffffffffffffffffffffffff82166117da576040517ff7e1ac0f00000000000000000000000000000000000000000000000000000000815273ffffffffffffffffffffffffffffffffffffffff84166004820152602401610cbb565b73ffffffffffffffffffffffffffffffffffffffff808416600090815260018601602090815260408083209386168352929052205481156118b95780820181811161187f576040517f93bc2ff100000000000000000000000000000000000000000000000000000000815273ffffffffffffffffffffffffffffffffffffffff8087166004830152851660248201526044810183905260648101849052608401610cbb565b73ffffffffffffffffffffffffffffffffffffffff8086166000908152600188016020908152604080832093881683529290522081905590505b8273ffffffffffffffffffffffffffffffffffffffff168473ffffffffffffffffffffffffffffffffffffffff167f8c5be1e5ebec7d5bd14f71427d1e84f3dd0314c0f7b2291e5b200ac8c7c3b9258360405161191891815260200190565b60405180910390a35050505050565b60008061062460017ff41bf6a5db26bffdfab174dcf66b31fbba8fdb7e3db040721ce1e62d61839ceb613dc3565b60008281526020848152604080832073ffffffffffffffffffffffffffffffffffffffff8516845290915290205460ff1661070a576040517f7aa728820000000000000000000000000000000000000000000000000000000081526004810183905273ffffffffffffffffffffffffffffffffffffffff82166024820152604401610cbb565b73ffffffffffffffffffffffffffffffffffffffff8216611a28576040517f92fd9c8f00000000000000000000000000000000000000000000000000000000815260040160405180910390fd5b8015611aab576002830154818101818111611a79576040517f0366a5f60000000000000000000000000000000000000000000000000000000081526004810183905260248101849052604401610cbb565b60028501555073ffffffffffffffffffffffffffffffffffffffff821660009081526020849052604090208054820190555b60405181815273ffffffffffffffffffffffffffffffffffffffff8316906000907fddf252ad1be2c89b69c2b068fc378daa952ba7f163c4a11628f55a4df523b3ef906020015b60405180910390a3505050565b8015611bc05773ffffffffffffffffffffffffffffffffffffffff8216600090815260208490526040902054818103818110611b8d576040517fe450d38c00000000000000000000000000000000000000000000000000000000815273ffffffffffffffffffffffffffffffffffffffff851660048201526024810183905260448101849052606401610cbb565b73ffffffffffffffffffffffffffffffffffffffff84166000908152602086905260409020555060028301805482900390555b60405181815260009073ffffffffffffffffffffffffffffffffffffffff8416907fddf252ad1be2c89b69c2b068fc378daa952ba7f163c4a11628f55a4df523b3ef90602001611af2565b82818114611c45576040517f6582533600000000000000000000000000000000000000000000000000000000815260040160405180910390fd5b80600003611c535750610dfe565b73ffffffffffffffffffffffffffffffffffffffff86166000908152602089905260408120549080805b84811015611f98576000898983818110611c9957611c99613d72565b9050602002016020810190611cae9190613a52565b905073ffffffffffffffffffffffffffffffffffffffff8116611d15576040517f754f425b00000000000000000000000000000000000000000000000000000000815273ffffffffffffffffffffffffffffffffffffffff8c166004820152602401610cbb565b6000888884818110611d2957611d29613d72565b90506020020135905080600014611e6757848101858111611d76576040517fdedd834100000000000000000000000000000000000000000000000000000000815260040160405180910390fd5b8095508273ffffffffffffffffffffffffffffffffffffffff168d73ffffffffffffffffffffffffffffffffffffffff1614611e0057818f60000160008573ffffffffffffffffffffffffffffffffffffffff1673ffffffffffffffffffffffffffffffffffffffff16815260200190815260200160002060008282540192505081905550611e65565b86821115611e60576040517fe450d38c00000000000000000000000000000000000000000000000000000000815273ffffffffffffffffffffffffffffffffffffffff8e1660048201526024810188905260448101839052606401610cbb565b938101935b505b8173ffffffffffffffffffffffffffffffffffffffff168c73ffffffffffffffffffffffffffffffffffffffff167fddf252ad1be2c89b69c2b068fc378daa952ba7f163c4a11628f55a4df523b3ef83604051611ec691815260200190565b60405180910390a38415801590611edd5750838514155b15611f8e57848603868110611f44576040517fe450d38c00000000000000000000000000000000000000000000000000000000815273ffffffffffffffffffffffffffffffffffffffff8e1660048201526024810188905260448101879052606401610cbb565b8481018f60000160008f73ffffffffffffffffffffffffffffffffffffffff1673ffffffffffffffffffffffffffffffffffffffff16815260200190815260200160002081905550505b5050600101611c7d565b508973ffffffffffffffffffffffffffffffffffffffff168973ffffffffffffffffffffffffffffffffffffffff1614611fd857611fd88b8a8c85612717565b5050505050505050505050565b815181518114612021576040517f6582533600000000000000000000000000000000000000000000000000000000815260040160405180910390fd5b8060000361202f5750505050565b6000805b828110156121a757600085828151811061204f5761204f613d72565b60200260200101519050600073ffffffffffffffffffffffffffffffffffffffff168173ffffffffffffffffffffffffffffffffffffffff16036120bf576040517f92fd9c8f00000000000000000000000000000000000000000000000000000000815260040160405180910390fd5b60008583815181106120d3576120d3613d72565b602002602001015190508060001461214f57838101848111612121576040517f5542ae7c00000000000000000000000000000000000000000000000000000000815260040160405180910390fd5b73ffffffffffffffffffffffffffffffffffffffff8316600090815260208a90526040902080548301905593505b60405181815273ffffffffffffffffffffffffffffffffffffffff8316906000907fddf252ad1be2c89b69c2b068fc378daa952ba7f163c4a11628f55a4df523b3ef9060200160405180910390a35050600101612033565b508015610f485760028501548181018181116121f9576040517f0366a5f60000000000000000000000000000000000000000000000000000000081526004810183905260248101849052604401610cbb565b6002870155505050505050565b6040805173ffffffffffffffffffffffffffffffffffffffff8416602482015260448082018490528251808303909101815260649091019091526020810180517bffffffffffffffffffffffffffffffffffffffffffffffffffffffff167fa9059cbb0000000000000000000000000000000000000000000000000000000017905261070a9084906133ab565b8273ffffffffffffffffffffffffffffffffffffffff168273ffffffffffffffffffffffffffffffffffffffff16146122d2576122d284838584612717565b6108a9848383611aff565b60008061062460017f93fe0ff7226b064a4a8f0b09910762afb4bc2441835792c021ffd78cd513011e613dc3565b82818114612345576040517f6582533600000000000000000000000000000000000000000000000000000000815260040160405180910390fd5b806000036123535750611006565b73ffffffffffffffffffffffffffffffffffffffff86166000908152602088905260408120549080805b848110156125b457600089898381811061239957612399613d72565b90506020020160208101906123ae9190613a52565b905073ffffffffffffffffffffffffffffffffffffffff8116612415576040517f754f425b00000000000000000000000000000000000000000000000000000000815273ffffffffffffffffffffffffffffffffffffffff8c166004820152602401610cbb565b600088888481811061242957612429613d72565b9050602002013590508060001461254357848101858111612476576040517fdedd834100000000000000000000000000000000000000000000000000000000815260040160405180910390fd5b8095508273ffffffffffffffffffffffffffffffffffffffff168d73ffffffffffffffffffffffffffffffffffffffff16146124dc5773ffffffffffffffffffffffffffffffffffffffff8316600090815260208f905260409020805483019055612541565b8682111561253c576040517fe450d38c00000000000000000000000000000000000000000000000000000000815273ffffffffffffffffffffffffffffffffffffffff8e1660048201526024810188905260448101839052606401610cbb565b938101935b505b8173ffffffffffffffffffffffffffffffffffffffff168c73ffffffffffffffffffffffffffffffffffffffff167fddf252ad1be2c89b69c2b068fc378daa952ba7f163c4a11628f55a4df523b3ef836040516125a291815260200190565b60405180910390a3505060010161237d565b5081158015906125c45750808214155b156126565781830383811061262b576040517fe450d38c00000000000000000000000000000000000000000000000000000000815273ffffffffffffffffffffffffffffffffffffffff8b1660048201526024810185905260448101849052606401610cbb565b73ffffffffffffffffffffffffffffffffffffffff8a16600090815260208c90526040902090820190555b50505050505050505050565b61266d838284611955565b60008181526020848152604080832073ffffffffffffffffffffffffffffffffffffffff86168085529083529281902080547fffffffffffffffffffffffffffffffffffffffffffffffffffffffffffffff0016905580518481529182018390528101919091527ff6391f5c32d9c69d2a47ea670b442974b53935d1edc7fd64eb21e047a839171b9060600160405180910390a1505050565b606081600101805461115590613dfd565b73ffffffffffffffffffffffffffffffffffffffff821661277c576040517ff7e1ac0f00000000000000000000000000000000000000000000000000000000815273ffffffffffffffffffffffffffffffffffffffff84166004820152602401610cbb565b73ffffffffffffffffffffffffffffffffffffffff80841660009081526001860160209081526040808320938616835292905220547fffffffffffffffffffffffffffffffffffffffffffffffffffffffffffffffff81148015906127e057508115155b156118b95781810381811061187f576040517f137ad6ab00000000000000000000000000000000000000000000000000000000815273ffffffffffffffffffffffffffffffffffffffff8087166004830152851660248201526044810183905260648101849052608401610cbb565b73ffffffffffffffffffffffffffffffffffffffff82166128b4576040517f754f425b00000000000000000000000000000000000000000000000000000000815273ffffffffffffffffffffffffffffffffffffffff84166004820152602401610cbb565b80156129af5773ffffffffffffffffffffffffffffffffffffffff8316600090815260208590526040902054818103818110612942576040517fe450d38c00000000000000000000000000000000000000000000000000000000815273ffffffffffffffffffffffffffffffffffffffff861660048201526024810183905260448101849052606401610cbb565b8373ffffffffffffffffffffffffffffffffffffffff168573ffffffffffffffffffffffffffffffffffffffff16146129ac5773ffffffffffffffffffffffffffffffffffffffff8086166000908152602088905260408082208490559186168152208054840190555b50505b8173ffffffffffffffffffffffffffffffffffffffff168373ffffffffffffffffffffffffffffffffffffffff167fddf252ad1be2c89b69c2b068fc378daa952ba7f163c4a11628f55a4df523b3ef836040516112db91815260200190565b612a1b87878787876114f2565b73ffffffffffffffffffffffffffffffffffffffff84163b15610dfe57610dfe8686868686868080601f01602080910402602001604051908101604052809392919081815260200183838082843760009201919091525061344f92505050565b73ffffffffffffffffffffffffffffffffffffffff8716612ac8576040517fa974697600000000000000000000000000000000000000000000000000000000815260040160405180910390fd5b83421115612b05576040517fea2b6f5800000000000000000000000000000000000000000000000000000000815260048101859052602401610cbb565b73ffffffffffffffffffffffffffffffffffffffff878116600081815260208b8152604080832080546001810190915581517f6e71edae12b1b97f4d1f60370fef10105fa2faae0126114a169c64845d6126c98185015280830195909552948b166060850152608084018a905260a084019490945260c08084018990528451808503909101815260e09093019093528151919092012090612ba46116da565b6040517f19010000000000000000000000000000000000000000000000000000000000006020820152602281019190915260428101839052606201604080517fffffffffffffffffffffffffffffffffffffffffffffffffffffffffffffffe08184030181528282528051602091820120600080855291840180845281905260ff89169284019290925260608301879052608083018690529092509060019060a0016020604051602081039080840390855afa158015612c68573d6000803e3d6000fd5b5050506020604051035190508973ffffffffffffffffffffffffffffffffffffffff168173ffffffffffffffffffffffffffffffffffffffff1614612cd9576040517f822a64c800000000000000000000000000000000000000000000000000000000815260040160405180910390fd5b5050506109db8787876106586111e4565b60008381526020858152604080832073ffffffffffffffffffffffffffffffffffffffff8616845290915290205460ff16156108a95760008381526020858152604080832073ffffffffffffffffffffffffffffffffffffffff8681168086529184529382902080547fffffffffffffffffffffffffffffffffffffffffffffffffffffffffffffff00169055815187815292830152918316918101919091527ff6391f5c32d9c69d2a47ea670b442974b53935d1edc7fd64eb21e047a839171b906060016116cc565b826108a9828483613ec7565b612dcc8686868661284f565b73ffffffffffffffffffffffffffffffffffffffff84163b15611006576110068586868686868080601f01602080910402602001604051908101604052809392919081815260200183838082843760009201919091525061344f92505050565b825473ffffffffffffffffffffffffffffffffffffffff9081169083168114612e99576040517f2ef4875e00000000000000000000000000000000000000000000000000000000815273ffffffffffffffffffffffffffffffffffffffff84166004820152602401610cbb565b8173ffffffffffffffffffffffffffffffffffffffff168173ffffffffffffffffffffffffffffffffffffffff16146108a95783547fffffffffffffffffffffffff00000000000000000000000000000000000000001673ffffffffffffffffffffffffffffffffffffffff8381169182178655604051908316907f8be0079c531659141344cd1fd0a4f28419497f9722a3daafe3b4186f6b6457e090600090a350505050565b612f75612f6e60017f5b388d90dc1312ba799f321972f13311234fa1163bcabec7cf66101c4876eb84613dc3565b600161355d565b6107ab82826135a9565b6000612f8961100e565b9050612fb7817f36372b0700000000000000000000000000000000000000000000000000000000600161365f565b610a50817f9d07518600000000000000000000000000000000000000000000000000000000600161365f565b6130187fc05327e600000000000000000000000000000000000000000000000000000000600161301161100e565b919061365f565b565b6130187f53f41a9700000000000000000000000000000000000000000000000000000000600161301161100e565b6130187f28963e1e00000000000000000000000000000000000000000000000000000000600161301161100e565b6130187f20c07ed100000000000000000000000000000000000000000000000000000000600161301161100e565b6130d2612f6e60017fd217496980d1cb14720b20a80af36676bbece8e5feeb5d8970a9681a2c76bb75613dc3565b856130de858783613ec7565b50600186016130ee838583613ec7565b506002860180547fffffffffffffffffffffffffffffffffffffffffffffffffffffffffffffff001660ff83161790556110067fa219a02500000000000000000000000000000000000000000000000000000000600161301161100e565b6130187f3c130d9000000000000000000000000000000000000000000000000000000000600161301161100e565b6130187f9d8ff7da00000000000000000000000000000000000000000000000000000000600161301161100e565b804710156131eb576040517fcf47918100000000000000000000000000000000000000000000000000000000815247600482015260248101829052604401610cbb565b6000808373ffffffffffffffffffffffffffffffffffffffff168360405160006040518083038185875af1925050503d8060008114613246576040519150601f19603f3d011682016040523d82523d6000602084013e61324b565b606091505b5091509150816108a9576108a98161373b565b60003332148061326e5750601836105b1561327857503390565b7fffffffffffffffffffffffffffffffffffffffffffffffffffffffffffffffec36013560601c7f000000000000000000000000000000000000000000000000000000000000000073ffffffffffffffffffffffffffffffffffffffff1633148061339a57506040517f019a202800000000000000000000000000000000000000000000000000000000815273ffffffffffffffffffffffffffffffffffffffff82811660048301523360248301523060448301527f0000000000000000000000000000000000000000000000000000000000000000169063019a202890606401602060405180830381865afa158015613376573d6000803e3d6000fd5b505050506040513d601f19601f8201168201806040525081019061339a9190613da1565b156133a457919050565b3391505090565b600080602060008451602086016000885af1806133ce576040513d6000823e3d81fd5b50506000513d915081156133e6578060011415613400565b73ffffffffffffffffffffffffffffffffffffffff84163b155b156108a9576040517f5274afe700000000000000000000000000000000000000000000000000000000815273ffffffffffffffffffffffffffffffffffffffff85166004820152602401610cbb565b6040517f4fc35859000000000000000000000000000000000000000000000000000000008082529073ffffffffffffffffffffffffffffffffffffffff851690634fc35859906134a9908990899088908890600401613fe1565b6020604051808303816000875af11580156134c8573d6000803e3d6000fd5b505050506040513d601f19601f820116820180604052508101906134ec919061402a565b7fffffffff000000000000000000000000000000000000000000000000000000001614610f48576040517f6d44973600000000000000000000000000000000000000000000000000000000815273ffffffffffffffffffffffffffffffffffffffff84166004820152602401610cbb565b815482908281106135a4576040517fbf0c18ec0000000000000000000000000000000000000000000000000000000081526004810182905260248101849052604401610cbb565b505550565b73ffffffffffffffffffffffffffffffffffffffff8116156136315781547fffffffffffffffffffffffff00000000000000000000000000000000000000001673ffffffffffffffffffffffffffffffffffffffff821690811783556040516000907f8be0079c531659141344cd1fd0a4f28419497f9722a3daafe3b4186f6b6457e0908290a35b6107ab7f7f5828d000000000000000000000000000000000000000000000000000000000600161301161100e565b7c01000000000000000000000000000000000000000000000000000000007fffffffff000000000000000000000000000000000000000000000000000000008316016136d7576040517f72c683bb00000000000000000000000000000000000000000000000000000000815260040160405180910390fd5b7fffffffff00000000000000000000000000000000000000000000000000000000919091166000908152602092909252604090912080547fffffffffffffffffffffffffffffffffffffffffffffffffffffffffffffff0016911515919091179055565b80511561374b5780518082602001fd5b6040517fd6bda27500000000000000000000000000000000000000000000000000000000815260040160405180910390fd5b7fffffffff0000000000000000000000000000000000000000000000000000000081168114610a5057600080fd5b6000602082840312156137bd57600080fd5b8135610abe8161377d565b6000815180845260005b818110156137ee576020818501810151868301820152016137d2565b5060006020828601015260207fffffffffffffffffffffffffffffffffffffffffffffffffffffffffffffffe0601f83011685010191505092915050565b602081526000610abe60208301846137c8565b73ffffffffffffffffffffffffffffffffffffffff81168114610a5057600080fd5b6000806040838503121561387457600080fd5b823561387f8161383f565b946020939093013593505050565b60008083601f84011261389f57600080fd5b50813567ffffffffffffffff8111156138b757600080fd5b6020830191508360208260051b85010111156138d257600080fd5b9250929050565b600080600080604085870312156138ef57600080fd5b843567ffffffffffffffff8082111561390757600080fd5b6139138883890161388d565b9096509450602087013591508082111561392c57600080fd5b506139398782880161388d565b95989497509550505050565b60008060006060848603121561395a57600080fd5b83356139658161383f565b925060208401356139758161383f565b929592945050506040919091013590565b6000806040838503121561399957600080fd5b8235915060208301356139ab8161383f565b809150509250929050565b6000602082840312156139c857600080fd5b5035919050565b6000806000806000606086880312156139e757600080fd5b85356139f28161383f565b9450602086013567ffffffffffffffff80821115613a0f57600080fd5b613a1b89838a0161388d565b90965094506040880135915080821115613a3457600080fd5b50613a418882890161388d565b969995985093965092949392505050565b600060208284031215613a6457600080fd5b8135610abe8161383f565b60008060008060008060608789031215613a8857600080fd5b863567ffffffffffffffff80821115613aa057600080fd5b613aac8a838b0161388d565b90985096506020890135915080821115613ac557600080fd5b613ad18a838b0161388d565b90965094506040890135915080821115613aea57600080fd5b50613af789828a0161388d565b979a9699509497509295939492505050565b60008083601f840112613b1b57600080fd5b50813567ffffffffffffffff811115613b3357600080fd5b6020830191508360208285010111156138d257600080fd5b600080600080600060808688031215613b6357600080fd5b8535613b6e8161383f565b94506020860135613b7e8161383f565b935060408601359250606086013567ffffffffffffffff811115613ba157600080fd5b613a4188828901613b09565b803560ff81168114613bbe57600080fd5b919050565b600080600080600080600060e0888a031215613bde57600080fd5b8735613be98161383f565b96506020880135613bf98161383f565b95506040880135945060608801359350613c1560808901613bad565b925060a0880135915060c0880135905092959891949750929550565b60008060408385031215613c4457600080fd5b8235613c4f8161383f565b915060208301356139ab8161383f565b60008060208385031215613c7257600080fd5b823567ffffffffffffffff811115613c8957600080fd5b613c9585828601613b09565b90969095509350505050565b60008060008060608587031215613cb757600080fd5b8435613cc28161383f565b935060208501359250604085013567ffffffffffffffff811115613ce557600080fd5b61393987828801613b09565b600080600080600060608688031215613d0957600080fd5b853567ffffffffffffffff80821115613d2157600080fd5b613d2d89838a01613b09565b90975095506020880135915080821115613d4657600080fd5b50613d5388828901613b09565b9094509250613d66905060408701613bad565b90509295509295909350565b7f4e487b7100000000000000000000000000000000000000000000000000000000600052603260045260246000fd5b600060208284031215613db357600080fd5b81518015158114610abe57600080fd5b81810381811115610624577f4e487b7100000000000000000000000000000000000000000000000000000000600052601160045260246000fd5b600181811c90821680613e1157607f821691505b602082108103613e4a577f4e487b7100000000000000000000000000000000000000000000000000000000600052602260045260246000fd5b50919050565b7f4e487b7100000000000000000000000000000000000000000000000000000000600052604160045260246000fd5b601f82111561070a576000816000526020600020601f850160051c81016020861015613ea85750805b601f850160051c820191505b8181101561100657828155600101613eb4565b67ffffffffffffffff831115613edf57613edf613e50565b613ef383613eed8354613dfd565b83613e7f565b6000601f841160018114613f455760008515613f0f5750838201355b7fffffffffffffffffffffffffffffffffffffffffffffffffffffffffffffffff600387901b1c1916600186901b178355610f48565b6000838152602090207fffffffffffffffffffffffffffffffffffffffffffffffffffffffffffffffe0861690835b82811015613f945786850135825560209485019460019092019101613f74565b5086821015613fcf577fffffffffffffffffffffffffffffffffffffffffffffffffffffffffffffffff60f88860031b161c19848701351681555b505060018560011b0183555050505050565b600073ffffffffffffffffffffffffffffffffffffffff80871683528086166020840152508360408301526080606083015261402060808301846137c8565b9695505050505050565b60006020828403121561403c57600080fd5b8151610abe8161377d56fea26469706673582212205b889ecaca93bde01d8b0163de59a68fe9cd353c411238c908b02dd01c7e66a964736f6c63430008190033",
  "linkReferences": {},
  "deployedLinkReferences": {}
}