{
  "_format": "hh-sol-artifact-1",
  "contractName": "RecoverableBase",
  "sourceName": "contracts/security/RecoverableBase.sol",
  "abi": [
    {
      "inputs": [
        {
          "internalType": "address[]",
          "name": "accounts",
          "type": "address[]"
        },
        {
          "internalType": "address[]",
          "name": "tokens",
          "type": "address[]"
        },
        {
          "internalType": "uint256[]",
          "name": "amounts",
          "type": "uint256[]"
        }
      ],
      "name": "recoverERC20s",
      "outputs": [],
      "stateMutability": "nonpayable",
      "type": "function"
    },
    {
      "inputs": [
        {
          "internalType": "address[]",
          "name": "accounts",
          "type": "address[]"
        },
        {
          "internalType": "address[]",
          "name": "contracts",
          "type": "address[]"
        },
        {
          "internalType": "uint256[]",
          "name": "tokenIds",
          "type": "uint256[]"
        }
      ],
      "name": "recoverERC721s",
      "outputs": [],
      "stateMutability": "nonpayable",
      "type": "function"
    }
  ],
  "bytecode": "0x608060405234801561001057600080fd5b50610a35806100206000396000f3fe608060405234801561001057600080fd5b50600436106100365760003560e01c806373c8a9581461003b578063c3666c3614610050575b600080fd5b61004e6100493660046107a0565b610063565b005b61004e61005e3660046107a0565b61019b565b610076335b610070610344565b90610378565b84838114801561008557508082145b6100f0576040517f08c379a000000000000000000000000000000000000000000000000000000000815260206004820152601d60248201527f5265636f766572793a20696e636f6e73697374656e742061727261797300000060448201526064015b60405180910390fd5b60005b8181146101915761018188888381811061010f5761010f61083a565b90506020020160208101906101249190610869565b8585848181106101365761013661083a565b9050602002013588888581811061014f5761014f61083a565b90506020020160208101906101649190610869565b73ffffffffffffffffffffffffffffffffffffffff1691906103ff565b61018a816108ce565b90506100f3565b5050505050505050565b6101a433610068565b8483811480156101b357508082145b610219576040517f08c379a000000000000000000000000000000000000000000000000000000000815260206004820152601d60248201527f5265636f766572793a20696e636f6e73697374656e742061727261797300000060448201526064016100e7565b60005b818114610191578585828181106102355761023561083a565b905060200201602081019061024a9190610869565b73ffffffffffffffffffffffffffffffffffffffff166323b872dd308a8a858181106102785761027861083a565b905060200201602081019061028d9190610869565b87878681811061029f5761029f61083a565b6040517fffffffff0000000000000000000000000000000000000000000000000000000060e088901b16815273ffffffffffffffffffffffffffffffffffffffff958616600482015294909316602485015250602090910201356044820152606401600060405180830381600087803b15801561031b57600080fd5b505af115801561032f573d6000803e3d6000fd5b505050508061033d906108ce565b905061021c565b60008061037260017f6a1da6973104ff7dedb9b4f5cab5830b3f4a0284ed754366cfc45568bd2d38df610906565b92915050565b815473ffffffffffffffffffffffffffffffffffffffff8281169116146103fb576040517f08c379a000000000000000000000000000000000000000000000000000000000815260206004820152601860248201527f4f776e6572736869703a206e6f7420746865206f776e6572000000000000000060448201526064016100e7565b5050565b6040805173ffffffffffffffffffffffffffffffffffffffff8416602482015260448082018490528251808303909101815260649091019091526020810180517bffffffffffffffffffffffffffffffffffffffffffffffffffffffff167fa9059cbb0000000000000000000000000000000000000000000000000000000017905261048c908490610491565b505050565b60006104ce826040518060600160405280602381526020016109dd6023913973ffffffffffffffffffffffffffffffffffffffff86169190610552565b80519091501561048c57808060200190518101906104ec919061091d565b61048c576040517f08c379a000000000000000000000000000000000000000000000000000000000815260206004820152601e60248201527f4552433230577261707065723a206f7065726174696f6e206661696c6564000060448201526064016100e7565b6060610561848460008561056b565b90505b9392505050565b6060824710156105fd576040517f08c379a000000000000000000000000000000000000000000000000000000000815260206004820152602660248201527f416464726573733a20696e73756666696369656e742062616c616e636520666f60448201527f722063616c6c000000000000000000000000000000000000000000000000000060648201526084016100e7565b73ffffffffffffffffffffffffffffffffffffffff85163b61067b576040517f08c379a000000000000000000000000000000000000000000000000000000000815260206004820152601d60248201527f416464726573733a2063616c6c20746f206e6f6e2d636f6e747261637400000060448201526064016100e7565b6000808673ffffffffffffffffffffffffffffffffffffffff1685876040516106a4919061096f565b60006040518083038185875af1925050503d80600081146106e1576040519150601f19603f3d011682016040523d82523d6000602084013e6106e6565b606091505b50915091506106f6828286610701565b979650505050505050565b60608315610710575081610564565b8251156107205782518084602001fd5b816040517f08c379a00000000000000000000000000000000000000000000000000000000081526004016100e7919061098b565b60008083601f84011261076657600080fd5b50813567ffffffffffffffff81111561077e57600080fd5b6020830191508360208260051b850101111561079957600080fd5b9250929050565b600080600080600080606087890312156107b957600080fd5b863567ffffffffffffffff808211156107d157600080fd5b6107dd8a838b01610754565b909850965060208901359150808211156107f657600080fd5b6108028a838b01610754565b9096509450604089013591508082111561081b57600080fd5b5061082889828a01610754565b979a9699509497509295939492505050565b7f4e487b7100000000000000000000000000000000000000000000000000000000600052603260045260246000fd5b60006020828403121561087b57600080fd5b813573ffffffffffffffffffffffffffffffffffffffff8116811461056457600080fd5b7f4e487b7100000000000000000000000000000000000000000000000000000000600052601160045260246000fd5b60007fffffffffffffffffffffffffffffffffffffffffffffffffffffffffffffffff82036108ff576108ff61089f565b5060010190565b6000828210156109185761091861089f565b500390565b60006020828403121561092f57600080fd5b8151801515811461056457600080fd5b60005b8381101561095a578181015183820152602001610942565b83811115610969576000848401525b50505050565b6000825161098181846020870161093f565b9190910192915050565b60208152600082518060208401526109aa81604085016020870161093f565b601f017fffffffffffffffffffffffffffffffffffffffffffffffffffffffffffffffe016919091016040019291505056fe4552433230577261707065723a206c6f772d6c6576656c2063616c6c206661696c6564a2646970667358221220bd9cbee37e94db0639c27897c261e2c2c660a9cc79293488976d4ee1cb49076564736f6c634300080d0033",
  "linkReferences": {},
  "deployedLinkReferences": {}
}