{
  "_format": "hh-sol-artifact-1",
  "contractName": "ERC721FullProxied",
  "sourceName": "contracts/token/ERC721/preset/proxied/ERC721FullProxied.sol",
  "abi": [
    {
      "inputs": [
        {
          "internalType": "contract IForwarderRegistry",
          "name": "forwarderRegistry",
          "type": "address"
        }
      ],
      "stateMutability": "nonpayable",
      "type": "constructor"
    },
    {
      "inputs": [
        {
          "internalType": "uint256",
          "name": "percentage",
          "type": "uint256"
        }
      ],
      "name": "ERC2981IncorrectRoyaltyPercentage",
      "type": "error"
    },
    {
      "inputs": [],
      "name": "ERC2981IncorrectRoyaltyReceiver",
      "type": "error"
    },
    {
      "inputs": [],
      "name": "ERC721BalanceOfAddressZero",
      "type": "error"
    },
    {
      "inputs": [
        {
          "internalType": "uint256",
          "name": "tokenId",
          "type": "uint256"
        }
      ],
      "name": "ERC721ExistingToken",
      "type": "error"
    },
    {
      "inputs": [],
      "name": "ERC721MintToAddressZero",
      "type": "error"
    },
    {
      "inputs": [
        {
          "internalType": "address",
          "name": "sender",
          "type": "address"
        },
        {
          "internalType": "address",
          "name": "owner",
          "type": "address"
        },
        {
          "internalType": "uint256",
          "name": "tokenId",
          "type": "uint256"
        }
      ],
      "name": "ERC721NonApprovedForApproval",
      "type": "error"
    },
    {
      "inputs": [
        {
          "internalType": "address",
          "name": "sender",
          "type": "address"
        },
        {
          "internalType": "address",
          "name": "owner",
          "type": "address"
        },
        {
          "internalType": "uint256",
          "name": "tokenId",
          "type": "uint256"
        }
      ],
      "name": "ERC721NonApprovedForTransfer",
      "type": "error"
    },
    {
      "inputs": [
        {
          "internalType": "uint256",
          "name": "tokenId",
          "type": "uint256"
        }
      ],
      "name": "ERC721NonExistingToken",
      "type": "error"
    },
    {
      "inputs": [
        {
          "internalType": "address",
          "name": "account",
          "type": "address"
        },
        {
          "internalType": "uint256",
          "name": "tokenId",
          "type": "uint256"
        }
      ],
      "name": "ERC721NonOwnedToken",
      "type": "error"
    },
    {
      "inputs": [
        {
          "internalType": "address",
          "name": "recipient",
          "type": "address"
        },
        {
          "internalType": "uint256",
          "name": "tokenId",
          "type": "uint256"
        }
      ],
      "name": "ERC721SafeTransferRejected",
      "type": "error"
    },
    {
      "inputs": [
        {
          "internalType": "address",
          "name": "account",
          "type": "address"
        }
      ],
      "name": "ERC721SelfApproval",
      "type": "error"
    },
    {
      "inputs": [
        {
          "internalType": "address",
          "name": "account",
          "type": "address"
        }
      ],
      "name": "ERC721SelfApprovalForAll",
      "type": "error"
    },
    {
      "inputs": [],
      "name": "ERC721TransferToAddressZero",
      "type": "error"
    },
    {
      "inputs": [],
      "name": "IllegalInterfaceId",
      "type": "error"
    },
    {
      "inputs": [],
      "name": "InconsistentArrayLengths",
      "type": "error"
    },
    {
      "inputs": [
        {
          "internalType": "address",
          "name": "tokenContract",
          "type": "address"
        }
      ],
      "name": "IncorrectTokenContractType",
      "type": "error"
    },
    {
      "inputs": [
        {
          "internalType": "uint256",
          "name": "currentPhase",
          "type": "uint256"
        },
        {
          "internalType": "uint256",
          "name": "newPhase",
          "type": "uint256"
        }
      ],
      "name": "InitializationPhaseAlreadyReached",
      "type": "error"
    },
    {
      "inputs": [
        {
          "internalType": "address",
          "name": "account",
          "type": "address"
        }
      ],
      "name": "NotContractOwner",
      "type": "error"
    },
    {
      "inputs": [
        {
          "internalType": "bytes32",
          "name": "role",
          "type": "bytes32"
        },
        {
          "internalType": "address",
          "name": "account",
          "type": "address"
        }
      ],
      "name": "NotRoleHolder",
      "type": "error"
    },
    {
      "anonymous": false,
      "inputs": [
        {
          "indexed": true,
          "internalType": "address",
          "name": "owner",
          "type": "address"
        },
        {
          "indexed": true,
          "internalType": "address",
          "name": "approved",
          "type": "address"
        },
        {
          "indexed": true,
          "internalType": "uint256",
          "name": "tokenId",
          "type": "uint256"
        }
      ],
      "name": "Approval",
      "type": "event"
    },
    {
      "anonymous": false,
      "inputs": [
        {
          "indexed": true,
          "internalType": "address",
          "name": "owner",
          "type": "address"
        },
        {
          "indexed": true,
          "internalType": "address",
          "name": "operator",
          "type": "address"
        },
        {
          "indexed": false,
          "internalType": "bool",
          "name": "approved",
          "type": "bool"
        }
      ],
      "name": "ApprovalForAll",
      "type": "event"
    },
    {
      "anonymous": false,
      "inputs": [
        {
          "indexed": true,
          "internalType": "address",
          "name": "previousOwner",
          "type": "address"
        },
        {
          "indexed": true,
          "internalType": "address",
          "name": "newOwner",
          "type": "address"
        }
      ],
      "name": "OwnershipTransferred",
      "type": "event"
    },
    {
      "anonymous": false,
      "inputs": [
        {
          "indexed": false,
          "internalType": "bytes32",
          "name": "role",
          "type": "bytes32"
        },
        {
          "indexed": false,
          "internalType": "address",
          "name": "account",
          "type": "address"
        },
        {
          "indexed": false,
          "internalType": "address",
          "name": "operator",
          "type": "address"
        }
      ],
      "name": "RoleGranted",
      "type": "event"
    },
    {
      "anonymous": false,
      "inputs": [
        {
          "indexed": false,
          "internalType": "bytes32",
          "name": "role",
          "type": "bytes32"
        },
        {
          "indexed": false,
          "internalType": "address",
          "name": "account",
          "type": "address"
        },
        {
          "indexed": false,
          "internalType": "address",
          "name": "operator",
          "type": "address"
        }
      ],
      "name": "RoleRevoked",
      "type": "event"
    },
    {
      "anonymous": false,
      "inputs": [
        {
          "indexed": true,
          "internalType": "address",
          "name": "from",
          "type": "address"
        },
        {
          "indexed": true,
          "internalType": "address",
          "name": "to",
          "type": "address"
        },
        {
          "indexed": true,
          "internalType": "uint256",
          "name": "tokenId",
          "type": "uint256"
        }
      ],
      "name": "Transfer",
      "type": "event"
    },
    {
      "inputs": [],
      "name": "MINTER_ROLE",
      "outputs": [
        {
          "internalType": "bytes32",
          "name": "",
          "type": "bytes32"
        }
      ],
      "stateMutability": "view",
      "type": "function"
    },
    {
      "inputs": [],
      "name": "ROYALTY_FEE_DENOMINATOR",
      "outputs": [
        {
          "internalType": "uint256",
          "name": "",
          "type": "uint256"
        }
      ],
      "stateMutability": "view",
      "type": "function"
    },
    {
      "inputs": [
        {
          "internalType": "address",
          "name": "to",
          "type": "address"
        },
        {
          "internalType": "uint256",
          "name": "tokenId",
          "type": "uint256"
        }
      ],
      "name": "approve",
      "outputs": [],
      "stateMutability": "nonpayable",
      "type": "function"
    },
    {
      "inputs": [
        {
          "internalType": "address",
          "name": "owner",
          "type": "address"
        }
      ],
      "name": "balanceOf",
      "outputs": [
        {
          "internalType": "uint256",
          "name": "balance",
          "type": "uint256"
        }
      ],
      "stateMutability": "view",
      "type": "function"
    },
    {
      "inputs": [
        {
          "internalType": "address",
          "name": "to",
          "type": "address"
        },
        {
          "internalType": "uint256[]",
          "name": "tokenIds",
          "type": "uint256[]"
        }
      ],
      "name": "batchMint",
      "outputs": [],
      "stateMutability": "nonpayable",
      "type": "function"
    },
    {
      "inputs": [
        {
          "internalType": "address",
          "name": "from",
          "type": "address"
        },
        {
          "internalType": "address",
          "name": "to",
          "type": "address"
        },
        {
          "internalType": "uint256[]",
          "name": "tokenIds",
          "type": "uint256[]"
        }
      ],
      "name": "batchTransferFrom",
      "outputs": [],
      "stateMutability": "nonpayable",
      "type": "function"
    },
    {
      "inputs": [
        {
          "internalType": "address[]",
          "name": "recipients",
          "type": "address[]"
        },
        {
          "internalType": "uint256[]",
          "name": "tokenIds",
          "type": "uint256[]"
        }
      ],
      "name": "deliver",
      "outputs": [],
      "stateMutability": "nonpayable",
      "type": "function"
    },
    {
      "inputs": [],
      "name": "forwarderRegistry",
      "outputs": [
        {
          "internalType": "contract IForwarderRegistry",
          "name": "",
          "type": "address"
        }
      ],
      "stateMutability": "view",
      "type": "function"
    },
    {
      "inputs": [
        {
          "internalType": "uint256",
          "name": "tokenId",
          "type": "uint256"
        }
      ],
      "name": "getApproved",
      "outputs": [
        {
          "internalType": "address",
          "name": "approved",
          "type": "address"
        }
      ],
      "stateMutability": "view",
      "type": "function"
    },
    {
      "inputs": [
        {
          "internalType": "bytes32",
          "name": "role",
          "type": "bytes32"
        },
        {
          "internalType": "address",
          "name": "account",
          "type": "address"
        }
      ],
      "name": "grantRole",
      "outputs": [],
      "stateMutability": "nonpayable",
      "type": "function"
    },
    {
      "inputs": [
        {
          "internalType": "bytes32",
          "name": "role",
          "type": "bytes32"
        },
        {
          "internalType": "address",
          "name": "account",
          "type": "address"
        }
      ],
      "name": "hasRole",
      "outputs": [
        {
          "internalType": "bool",
          "name": "hasRole_",
          "type": "bool"
        }
      ],
      "stateMutability": "view",
      "type": "function"
    },
    {
      "inputs": [
        {
          "internalType": "string",
          "name": "tokenName",
          "type": "string"
        },
        {
          "internalType": "string",
          "name": "tokenSymbol",
          "type": "string"
        },
        {
          "internalType": "contract ITokenMetadataResolver",
          "name": "metadataResolver",
          "type": "address"
        }
      ],
      "name": "init",
      "outputs": [],
      "stateMutability": "nonpayable",
      "type": "function"
    },
    {
      "inputs": [
        {
          "internalType": "address",
          "name": "owner",
          "type": "address"
        },
        {
          "internalType": "address",
          "name": "operator",
          "type": "address"
        }
      ],
      "name": "isApprovedForAll",
      "outputs": [
        {
          "internalType": "bool",
          "name": "approvedForAll",
          "type": "bool"
        }
      ],
      "stateMutability": "view",
      "type": "function"
    },
    {
      "inputs": [
        {
          "internalType": "address",
          "name": "forwarder",
          "type": "address"
        }
      ],
      "name": "isTrustedForwarder",
      "outputs": [
        {
          "internalType": "bool",
          "name": "",
          "type": "bool"
        }
      ],
      "stateMutability": "view",
      "type": "function"
    },
    {
      "inputs": [],
      "name": "metadataResolver",
      "outputs": [
        {
          "internalType": "contract ITokenMetadataResolver",
          "name": "tokenMetadataResolver",
          "type": "address"
        }
      ],
      "stateMutability": "view",
      "type": "function"
    },
    {
      "inputs": [
        {
          "internalType": "address",
          "name": "to",
          "type": "address"
        },
        {
          "internalType": "uint256",
          "name": "tokenId",
          "type": "uint256"
        }
      ],
      "name": "mint",
      "outputs": [],
      "stateMutability": "nonpayable",
      "type": "function"
    },
    {
      "inputs": [],
      "name": "name",
      "outputs": [
        {
          "internalType": "string",
          "name": "tokenName",
          "type": "string"
        }
      ],
      "stateMutability": "view",
      "type": "function"
    },
    {
      "inputs": [],
      "name": "owner",
      "outputs": [
        {
          "internalType": "address",
          "name": "",
          "type": "address"
        }
      ],
      "stateMutability": "view",
      "type": "function"
    },
    {
      "inputs": [
        {
          "internalType": "uint256",
          "name": "tokenId",
          "type": "uint256"
        }
      ],
      "name": "ownerOf",
      "outputs": [
        {
          "internalType": "address",
          "name": "tokenOwner",
          "type": "address"
        }
      ],
      "stateMutability": "view",
      "type": "function"
    },
    {
      "inputs": [
        {
          "internalType": "address[]",
          "name": "accounts",
          "type": "address[]"
        },
        {
          "internalType": "contract IERC20[]",
          "name": "tokens",
          "type": "address[]"
        },
        {
          "internalType": "uint256[]",
          "name": "amounts",
          "type": "uint256[]"
        }
      ],
      "name": "recoverERC20s",
      "outputs": [],
      "stateMutability": "nonpayable",
      "type": "function"
    },
    {
      "inputs": [
        {
          "internalType": "address[]",
          "name": "accounts",
          "type": "address[]"
        },
        {
          "internalType": "contract IERC721[]",
          "name": "contracts",
          "type": "address[]"
        },
        {
          "internalType": "uint256[]",
          "name": "tokenIds",
          "type": "uint256[]"
        }
      ],
      "name": "recoverERC721s",
      "outputs": [],
      "stateMutability": "nonpayable",
      "type": "function"
    },
    {
      "inputs": [
        {
          "internalType": "address payable[]",
          "name": "accounts",
          "type": "address[]"
        },
        {
          "internalType": "uint256[]",
          "name": "amounts",
          "type": "uint256[]"
        }
      ],
      "name": "recoverETH",
      "outputs": [],
      "stateMutability": "nonpayable",
      "type": "function"
    },
    {
      "inputs": [
        {
          "internalType": "bytes32",
          "name": "role",
          "type": "bytes32"
        }
      ],
      "name": "renounceRole",
      "outputs": [],
      "stateMutability": "nonpayable",
      "type": "function"
    },
    {
      "inputs": [
        {
          "internalType": "bytes32",
          "name": "role",
          "type": "bytes32"
        },
        {
          "internalType": "address",
          "name": "account",
          "type": "address"
        }
      ],
      "name": "revokeRole",
      "outputs": [],
      "stateMutability": "nonpayable",
      "type": "function"
    },
    {
      "inputs": [
        {
          "internalType": "uint256",
          "name": "tokenId",
          "type": "uint256"
        },
        {
          "internalType": "uint256",
          "name": "salePrice",
          "type": "uint256"
        }
      ],
      "name": "royaltyInfo",
      "outputs": [
        {
          "internalType": "address",
          "name": "receiver",
          "type": "address"
        },
        {
          "internalType": "uint256",
          "name": "royaltyAmount",
          "type": "uint256"
        }
      ],
      "stateMutability": "view",
      "type": "function"
    },
    {
      "inputs": [
        {
          "internalType": "address",
          "name": "to",
          "type": "address"
        },
        {
          "internalType": "uint256",
          "name": "tokenId",
          "type": "uint256"
        },
        {
          "internalType": "bytes",
          "name": "data",
          "type": "bytes"
        }
      ],
      "name": "safeMint",
      "outputs": [],
      "stateMutability": "nonpayable",
      "type": "function"
    },
    {
      "inputs": [
        {
          "internalType": "address",
          "name": "from",
          "type": "address"
        },
        {
          "internalType": "address",
          "name": "to",
          "type": "address"
        },
        {
          "internalType": "uint256",
          "name": "tokenId",
          "type": "uint256"
        }
      ],
      "name": "safeTransferFrom",
      "outputs": [],
      "stateMutability": "nonpayable",
      "type": "function"
    },
    {
      "inputs": [
        {
          "internalType": "address",
          "name": "from",
          "type": "address"
        },
        {
          "internalType": "address",
          "name": "to",
          "type": "address"
        },
        {
          "internalType": "uint256",
          "name": "tokenId",
          "type": "uint256"
        },
        {
          "internalType": "bytes",
          "name": "data",
          "type": "bytes"
        }
      ],
      "name": "safeTransferFrom",
      "outputs": [],
      "stateMutability": "nonpayable",
      "type": "function"
    },
    {
      "inputs": [
        {
          "internalType": "address",
          "name": "operator",
          "type": "address"
        },
        {
          "internalType": "bool",
          "name": "approved",
          "type": "bool"
        }
      ],
      "name": "setApprovalForAll",
      "outputs": [],
      "stateMutability": "nonpayable",
      "type": "function"
    },
    {
      "inputs": [
        {
          "internalType": "uint256",
          "name": "percentage",
          "type": "uint256"
        }
      ],
      "name": "setRoyaltyPercentage",
      "outputs": [],
      "stateMutability": "nonpayable",
      "type": "function"
    },
    {
      "inputs": [
        {
          "internalType": "address",
          "name": "receiver",
          "type": "address"
        }
      ],
      "name": "setRoyaltyReceiver",
      "outputs": [],
      "stateMutability": "nonpayable",
      "type": "function"
    },
    {
      "inputs": [
        {
          "internalType": "bytes4",
          "name": "interfaceId",
          "type": "bytes4"
        }
      ],
      "name": "supportsInterface",
      "outputs": [
        {
          "internalType": "bool",
          "name": "",
          "type": "bool"
        }
      ],
      "stateMutability": "view",
      "type": "function"
    },
    {
      "inputs": [],
      "name": "symbol",
      "outputs": [
        {
          "internalType": "string",
          "name": "tokenSymbol",
          "type": "string"
        }
      ],
      "stateMutability": "view",
      "type": "function"
    },
    {
      "inputs": [
        {
          "internalType": "uint256",
          "name": "tokenId",
          "type": "uint256"
        }
      ],
      "name": "tokenURI",
      "outputs": [
        {
          "internalType": "string",
          "name": "uri",
          "type": "string"
        }
      ],
      "stateMutability": "view",
      "type": "function"
    },
    {
      "inputs": [
        {
          "internalType": "address",
          "name": "from",
          "type": "address"
        },
        {
          "internalType": "address",
          "name": "to",
          "type": "address"
        },
        {
          "internalType": "uint256",
          "name": "tokenId",
          "type": "uint256"
        }
      ],
      "name": "transferFrom",
      "outputs": [],
      "stateMutability": "nonpayable",
      "type": "function"
    },
    {
      "inputs": [
        {
          "internalType": "address",
          "name": "newOwner",
          "type": "address"
        }
      ],
      "name": "transferOwnership",
      "outputs": [],
      "stateMutability": "nonpayable",
      "type": "function"
    }
  ],
  "bytecode": "0x60a06040523480156200001157600080fd5b5060405162003e2538038062003e25833981016040819052620000349162000046565b6001600160a01b031660805262000078565b6000602082840312156200005957600080fd5b81516001600160a01b03811681146200007157600080fd5b9392505050565b608051613d7c620000a96000396000818161033f015281816103bf01528181612c740152612cfc0152613d7c6000f3fe608060405234801561001057600080fd5b506004361061025c5760003560e01c80638bb9c5bf11610145578063c3666c36116100bd578063e1a8bf2c1161008c578063f2fde38b11610071578063f2fde38b14610583578063f3993d1114610596578063f7ba94bd146105a957600080fd5b8063e1a8bf2c14610566578063e985e9c51461057057600080fd5b8063c3666c3614610506578063c87b56dd14610519578063d53913931461052c578063d547741f1461055357600080fd5b806395d89b4111610114578063a0c76f62116100f9578063a0c76f62146104d8578063a22cb465146104e0578063b88d4fde146104f357600080fd5b806395d89b41146104bd5780639da5e832146104c557600080fd5b80638bb9c5bf1461047c5780638da5cb5b1461048f5780638dc251e31461049757806391d14854146104aa57600080fd5b806342842e0e116101d85780636352211e116101a757806370a082311161018c57806370a082311461043557806373c8a958146104565780638832e6e31461046957600080fd5b80636352211e1461040f5780636ee5741a1461042257600080fd5b806342842e0e146103895780634684d7e91461039c578063572b6c05146103af57806361ba27da146103fc57600080fd5b806323b872dd1161022f5780632b4c9f16116102145780632b4c9f161461033d5780632f2ff15d1461036357806340c10f191461037657600080fd5b806323b872dd146102eb5780632a55205a146102fe57600080fd5b806301ffc9a71461026157806306fdde0314610289578063081812fc1461029e578063095ea7b3146102d6575b600080fd5b61027461026f36600461339f565b6105bc565b60405190151581526020015b60405180910390f35b6102916105d6565b604051610280919061342a565b6102b16102ac36600461343d565b6105e5565b60405173ffffffffffffffffffffffffffffffffffffffff9091168152602001610280565b6102e96102e4366004613478565b6105f9565b005b6102e96102f93660046134a4565b61061a565b61031161030c3660046134e5565b61063e565b6040805173ffffffffffffffffffffffffffffffffffffffff9093168352602083019190915201610280565b7f00000000000000000000000000000000000000000000000000000000000000006102b1565b6102e9610371366004613507565b610661565b6102e9610384366004613478565b610695565b6102e96103973660046134a4565b6106e4565b6102e96103aa36600461357c565b610703565b6102746103bd3660046135d1565b7f000000000000000000000000000000000000000000000000000000000000000073ffffffffffffffffffffffffffffffffffffffff90811691161490565b6102e961040a36600461343d565b610777565b6102b161041d36600461343d565b61079f565b6102e9610430366004613630565b6107b3565b6104486104433660046135d1565b61081d565b604051908152602001610280565b6102e96104643660046136b4565b610831565b6102e961047736600461374e565b610927565b6102e961048a36600461343d565b6109af565b6102b16109ca565b6102e96104a53660046135d1565b6109f1565b6102746104b8366004613507565b610a0e565b610291610a59565b6102e96104d33660046137aa565b610a63565b6102b1610b07565b6102e96104ee366004613818565b610b31565b6102e9610501366004613846565b610b4e565b6102e96105143660046136b4565b610b71565b61029161052736600461343d565b610e17565b6104487f6d696e746572000000000000000000000000000000000000000000000000000081565b6102e9610561366004613507565b610e3a565b610448620186a081565b61027461057e3660046138b9565b610e68565b6102e96105913660046135d1565b610eb6565b6102e96105a43660046138e7565b610ed1565b6102e96105b73660046137aa565b610ef2565b60006105d0826105ca610fb1565b90610fdf565b92915050565b60606105e06110b9565b905090565b60006105d0826105f36110cb565b906110f9565b6106166106046111ad565b838361060e6110cb565b9291906111b7565b5050565b6106396106256111ad565b8484846106306110cb565b93929190611432565b505050565b600080610655848461064e611710565b919061173e565b915091505b9250929050565b600061066b6111ad565b905061067f816106796117e8565b90611816565b61063983838361068d611881565b9291906118af565b6106d07f6d696e74657200000000000000000000000000000000000000000000000000006106c16111ad565b6106c9611881565b9190611985565b61061682826106dd6110cb565b9190611a0b565b6106396106ef6111ad565b8484846106fa6110cb565b93929190611b25565b61072f7f6d696e74657200000000000000000000000000000000000000000000000000006106c16111ad565b6106398383838080602002602001604051908101604052809392919081815260200183836020028082843760009201919091525061077092506110cb915050565b9190611b6b565b61078a6107826111ad565b6106796117e8565b61079c81610796611710565b90611ce3565b50565b60006105d0826107ad6110cb565b90611d69565b6107cc6107be6111ad565b6107c66117e8565b90611dd2565b6107d4611e11565b6107dc611e48565b6107e4611e76565b6107ec611ea4565b6107f4611ed2565b6107fc611f00565b610816858585858561080c611f2e565b9493929190611f5c565b5050505050565b60006105d08261082b6110cb565b90611ff6565b61083c6107826111ad565b84838114158061084c5750808214155b15610883576040517f6582533600000000000000000000000000000000000000000000000000000000815260040160405180910390fd5b60005b8181101561091d576109158888838181106108a3576108a3613940565b90506020020160208101906108b891906135d1565b8585848181106108ca576108ca613940565b905060200201358888858181106108e3576108e3613940565b90506020020160208101906108f891906135d1565b73ffffffffffffffffffffffffffffffffffffffff169190612072565b600101610886565b5050505050505050565b6109537f6d696e74657200000000000000000000000000000000000000000000000000006106c16111ad565b6109a961095e6111ad565b858585858080601f0160208091040260200160405190810160405280939291908181526020018383808284376000920191909152506109a092506110cb915050565b939291906120ff565b50505050565b61079c6109ba6111ad565b826109c3611881565b9190612135565b60006105e06109d76117e8565b5473ffffffffffffffffffffffffffffffffffffffff1690565b6109fc6107826111ad565b61079c81610a08611710565b906121d9565b6000610a528383610a1d611881565b60009283526020908152604080842073ffffffffffffffffffffffffffffffffffffffff909316845291905290205460ff1690565b9392505050565b60606105e0612268565b610a8f7f6d696e74657200000000000000000000000000000000000000000000000000006106c16111ad565b6109a984848080602002602001604051908101604052809392919081815260200183836020028082843760009201919091525050604080516020808802828101820190935287825290935087925086918291850190849080828437600092019190915250610b0092506110cb915050565b919061227a565b60006105e0610b14611f2e565b6002015473ffffffffffffffffffffffffffffffffffffffff1690565b610616610b3c6111ad565b8383610b466110cb565b929190612310565b610816610b596111ad565b8686868686610b666110cb565b959493929190612428565b610b7c6107826111ad565b848381141580610b8c5750808214155b15610bc3576040517f6582533600000000000000000000000000000000000000000000000000000000815260040160405180910390fd5b60005b8181101561091d576000868683818110610be257610be2613940565b9050602002016020810190610bf791906135d1565b6040517f01ffc9a70000000000000000000000000000000000000000000000000000000081527f80ac58cd00000000000000000000000000000000000000000000000000000000600482015290915073ffffffffffffffffffffffffffffffffffffffff8216906301ffc9a790602401602060405180830381865afa158015610c84573d6000803e3d6000fd5b505050506040513d601f19601f82011682018060405250810190610ca8919061396f565b610cfb576040517f986b9f1f00000000000000000000000000000000000000000000000000000000815273ffffffffffffffffffffffffffffffffffffffff821660048201526024015b60405180910390fd5b868683818110610d0d57610d0d613940565b9050602002016020810190610d2291906135d1565b73ffffffffffffffffffffffffffffffffffffffff166342842e0e308b8b86818110610d5057610d50613940565b9050602002016020810190610d6591906135d1565b888887818110610d7757610d77613940565b6040517fffffffff0000000000000000000000000000000000000000000000000000000060e088901b16815273ffffffffffffffffffffffffffffffffffffffff958616600482015294909316602485015250602090910201356044820152606401600060405180830381600087803b158015610df357600080fd5b505af1158015610e07573d6000803e3d6000fd5b5050505050806001019050610bc6565b6060610e25826107ad6110cb565b506105d03083610e33611f2e565b919061249e565b6000610e446111ad565b9050610e52816106796117e8565b610639838383610e60611881565b92919061255e565b6000610a528383610e776110cb565b919073ffffffffffffffffffffffffffffffffffffffff9182166000908152600393909301602090815260408085209290931684525290205460ff1690565b61079c610ec16111ad565b82610eca6117e8565b9190612628565b6109a9610edc6111ad565b85858585610ee86110cb565b949392919061273c565b610efd6107826111ad565b82818114610f37576040517f6582533600000000000000000000000000000000000000000000000000000000815260040160405180910390fd5b60005b81811015610fa957610fa1848483818110610f5757610f57613940565b90506020020135878784818110610f7057610f70613940565b9050602002016020810190610f8591906135d1565b73ffffffffffffffffffffffffffffffffffffffff1690612a41565b600101610f3a565b505050505050565b6000806105d060017fca9d3e17f264b0f3984e2634e94adb37fa3e6a8103f06aeae6fa59e21c769f5e6139bb565b60007c01000000000000000000000000000000000000000000000000000000007fffffffff0000000000000000000000000000000000000000000000000000000083160161102f575060006105d0565b7ffe003659000000000000000000000000000000000000000000000000000000007fffffffff00000000000000000000000000000000000000000000000000000000831601611080575060016105d0565b507fffffffff00000000000000000000000000000000000000000000000000000000166000908152602091909152604090205460ff1690565b60606105e06110c6611f2e565b612b9b565b6000806105d060017fddf3ee18ae6d688373c219468f8be446e7ae82215f4779d821c7ea5e8c13c0c16139bb565b60008181526020839052604081205473ffffffffffffffffffffffffffffffffffffffff8116611158576040517fdd56047500000000000000000000000000000000000000000000000000000000815260048101849052602401610cf2565b740100000000000000000000000000000000000000008116156111a3575050600081815260028301602052604090205473ffffffffffffffffffffffffffffffffffffffff166105d0565b60009150506105d0565b60006105e0612c31565b60008181526020859052604090205473ffffffffffffffffffffffffffffffffffffffff8116611216576040517fdd56047500000000000000000000000000000000000000000000000000000000815260048101839052602401610cf2565b8073ffffffffffffffffffffffffffffffffffffffff80821690851603611281576040517fb7fdc01000000000000000000000000000000000000000000000000000000000815273ffffffffffffffffffffffffffffffffffffffff82166004820152602401610cf2565b61128c868287612d78565b6112e9576040517fc7563a1800000000000000000000000000000000000000000000000000000000815273ffffffffffffffffffffffffffffffffffffffff80871660048301528216602482015260448101849052606401610cf2565b73ffffffffffffffffffffffffffffffffffffffff841661134e577401000000000000000000000000000000000000000082161561134957600083815260208790526040902073ffffffffffffffffffffffffffffffffffffffff821690555b6113cf565b74010000000000000000000000000000000000000000821780831461137f5760008481526020889052604090208190555b506000838152600287016020526040902080547fffffffffffffffffffffffff00000000000000000000000000000000000000001673ffffffffffffffffffffffffffffffffffffffff86161790555b828473ffffffffffffffffffffffffffffffffffffffff168273ffffffffffffffffffffffffffffffffffffffff167f8c5be1e5ebec7d5bd14f71427d1e84f3dd0314c0f7b2291e5b200ac8c7c3b92560405160405180910390a4505050505050565b73ffffffffffffffffffffffffffffffffffffffff821661147f576040517f86c8706700000000000000000000000000000000000000000000000000000000815260040160405180910390fd5b60008181526020869052604090205473ffffffffffffffffffffffffffffffffffffffff81166114de576040517fdd56047500000000000000000000000000000000000000000000000000000000815260048101839052602401610cf2565b73ffffffffffffffffffffffffffffffffffffffff84168173ffffffffffffffffffffffffffffffffffffffff1614611562576040517f14dbb53600000000000000000000000000000000000000000000000000000000815273ffffffffffffffffffffffffffffffffffffffff8516600482015260248101839052604401610cf2565b61156d868587612d78565b61161c5774010000000000000000000000000000000000000000811615806115be5750600082815260028701602052604090205473ffffffffffffffffffffffffffffffffffffffff868116911614155b1561161c576040517fa4a3018b00000000000000000000000000000000000000000000000000000000815273ffffffffffffffffffffffffffffffffffffffff80871660048301528516602482015260448101839052606401610cf2565b600082815260208790526040902073ffffffffffffffffffffffffffffffffffffffff808516918290558516146116ad5773ffffffffffffffffffffffffffffffffffffffff80851660009081526001808901602052604080832080547fffffffffffffffffffffffffffffffffffffffffffffffffffffffffffffffff0190559286168252919020805490910190555b818373ffffffffffffffffffffffffffffffffffffffff168573ffffffffffffffffffffffffffffffffffffffff167fddf252ad1be2c89b69c2b068fc378daa952ba7f163c4a11628f55a4df523b3ef60405160405180910390a4505050505050565b6000806105d060017f2c0cf10337caabbd02dcf226f05f5fd19a0919a41a8df8958c39b800078268586139bb565b825473ffffffffffffffffffffffffffffffffffffffff8116906000907401000000000000000000000000000000000000000090046bffffffffffffffffffffffff1683158061178c575080155b1561179a57600091506117df565b620186a08410156117c457620186a06117b382866139ce565b6117bd91906139e5565b91506117df565b806117d2620186a0866139e5565b6117dc91906139ce565b91505b50935093915050565b6000806105d060017fc9ed16f33ab3a66c84bfd83099ccb2a8845871e2e1c1928f63797152f0fd54cd6139bb565b815473ffffffffffffffffffffffffffffffffffffffff828116911614610616576040517f2ef4875e00000000000000000000000000000000000000000000000000000000815273ffffffffffffffffffffffffffffffffffffffff82166004820152602401610cf2565b6000806105d060017fc8827d3282af6f37b64c3e9e6f3ac9df286ab0bb0fccd6f8661bf19adb368b236139bb565b60008381526020858152604080832073ffffffffffffffffffffffffffffffffffffffff8616845290915290205460ff166109a95760008381526020858152604080832073ffffffffffffffffffffffffffffffffffffffff8681168086529184529382902080547fffffffffffffffffffffffffffffffffffffffffffffffffffffffffffffff00166001179055815187815292830152918316918101919091527f2f8788117e7eff1d82e926ec794901d17c78024a50270940304540a733656f0d906060015b60405180910390a150505050565b60008281526020848152604080832073ffffffffffffffffffffffffffffffffffffffff8516845290915290205460ff16610639576040517f7aa728820000000000000000000000000000000000000000000000000000000081526004810183905273ffffffffffffffffffffffffffffffffffffffff82166024820152604401610cf2565b73ffffffffffffffffffffffffffffffffffffffff8216611a58576040517f7851b9cd00000000000000000000000000000000000000000000000000000000815260040160405180910390fd5b60008181526020849052604090205473ffffffffffffffffffffffffffffffffffffffff1615611ab7576040517f753eceac00000000000000000000000000000000000000000000000000000000815260048101829052602401610cf2565b60008181526020848152604080832073ffffffffffffffffffffffffffffffffffffffff86169081905580845260018088019093528184208054909301909255518392907fddf252ad1be2c89b69c2b068fc378daa952ba7f163c4a11628f55a4df523b3ef908290a4505050565b611b328585858585611432565b73ffffffffffffffffffffffffffffffffffffffff82163b15610816576108168484848460405180602001604052806000815250612ded565b73ffffffffffffffffffffffffffffffffffffffff8216611bb8576040517f7851b9cd00000000000000000000000000000000000000000000000000000000815260040160405180910390fd5b805160005b81811015611cae576000838281518110611bd957611bd9613940565b60200260200101519050611c178660000160008381526020019081526020016000205473ffffffffffffffffffffffffffffffffffffffff16151590565b15611c51576040517f753eceac00000000000000000000000000000000000000000000000000000000815260048101829052602401610cf2565b60008181526020879052604080822073ffffffffffffffffffffffffffffffffffffffff88169081905590518392907fddf252ad1be2c89b69c2b068fc378daa952ba7f163c4a11628f55a4df523b3ef908290a450600101611bbd565b5073ffffffffffffffffffffffffffffffffffffffff9092166000908152600190930160205250604090912080549091019055565b620186a0811115611d23576040517fac04040800000000000000000000000000000000000000000000000000000000815260048101829052602401610cf2565b81546bffffffffffffffffffffffff909116740100000000000000000000000000000000000000000273ffffffffffffffffffffffffffffffffffffffff909116179055565b60008181526020839052604081205473ffffffffffffffffffffffffffffffffffffffff8116611dc8576040517fdd56047500000000000000000000000000000000000000000000000000000000815260048101849052602401610cf2565b805b949350505050565b611e07611e0060017f5b388d90dc1312ba799f321972f13311234fa1163bcabec7cf66101c4876eb846139bb565b6001612f02565b6106168282612f4e565b611e467f80ac58cd000000000000000000000000000000000000000000000000000000006001611e3f610fb1565b9190613004565b565b611e467ff3993d11000000000000000000000000000000000000000000000000000000006001611e3f610fb1565b611e467f5b5e139f000000000000000000000000000000000000000000000000000000006001611e3f610fb1565b611e467f8e773e13000000000000000000000000000000000000000000000000000000006001611e3f610fb1565b611e467f9da5e832000000000000000000000000000000000000000000000000000000006001611e3f610fb1565b611e467f2a55205a000000000000000000000000000000000000000000000000000000006001611e3f610fb1565b6000806105d060017f7ea68fd2dcf1c056b94db6a0a537aa80d26fa9ab1eacd85da1ba0b61b7e7a8a56139bb565b611f8a611e0060017f92f72593ca50a0096f68ee94e7000db40ed086164b695855e2250750b8bfaf596139bb565b85611f96858783613aea565b5060018601611fa6838583613aea565b5060029590950180547fffffffffffffffffffffffff00000000000000000000000000000000000000001673ffffffffffffffffffffffffffffffffffffffff9096169590951790945550505050565b600073ffffffffffffffffffffffffffffffffffffffff8216612045576040517faefbce4e00000000000000000000000000000000000000000000000000000000815260040160405180910390fd5b5073ffffffffffffffffffffffffffffffffffffffff166000908152600191909101602052604090205490565b6040805173ffffffffffffffffffffffffffffffffffffffff8416602482015260448082018490528251808303909101815260649091019091526020810180517bffffffffffffffffffffffffffffffffffffffffffffffffffffffff167fa9059cbb000000000000000000000000000000000000000000000000000000001790526106399084906130e0565b61210a858484611a0b565b73ffffffffffffffffffffffffffffffffffffffff83163b1561081657610816846000858585612ded565b612140838284611985565b60008181526020848152604080832073ffffffffffffffffffffffffffffffffffffffff86168085529083529281902080547fffffffffffffffffffffffffffffffffffffffffffffffffffffffffffffff0016905580518481529182018390528101919091527ff6391f5c32d9c69d2a47ea670b442974b53935d1edc7fd64eb21e047a839171b9060600160405180910390a1505050565b73ffffffffffffffffffffffffffffffffffffffff8116612226576040517f16de0c8000000000000000000000000000000000000000000000000000000000815260040160405180910390fd5b81547fffffffffffffffffffffffff00000000000000000000000000000000000000001673ffffffffffffffffffffffffffffffffffffffff91909116179055565b60606105e0612275611f2e565b6131ef565b8151815181146122b6576040517f6582533600000000000000000000000000000000000000000000000000000000815260040160405180910390fd5b60005b81811015610816576123088482815181106122d6576122d6613940565b60200260200101518483815181106122f0576122f0613940565b602002602001015187611a0b9092919063ffffffff16565b6001016122b9565b8273ffffffffffffffffffffffffffffffffffffffff168273ffffffffffffffffffffffffffffffffffffffff160361238d576040517fe4215c6a00000000000000000000000000000000000000000000000000000000815273ffffffffffffffffffffffffffffffffffffffff84166004820152602401610cf2565b73ffffffffffffffffffffffffffffffffffffffff838116600081815260038701602090815260408083209487168084529482529182902080547fffffffffffffffffffffffffffffffffffffffffffffffffffffffffffffff001686151590811790915591519182527f17307eab39ab6107e8899845ad3d59bd9653f200f220920489ca2b5937696c31910160405180910390a350505050565b6124358787878787611432565b73ffffffffffffffffffffffffffffffffffffffff84163b15612495576124958686868686868080601f016020809104026020016040519081016040528093929190818152602001838380828437600092019190915250612ded92505050565b50505050505050565b60028301546040517ff724dad700000000000000000000000000000000000000000000000000000000815273ffffffffffffffffffffffffffffffffffffffff848116600483015260248201849052606092169063f724dad790604401600060405180830381865afa158015612518573d6000803e3d6000fd5b505050506040513d6000823e601f3d9081017fffffffffffffffffffffffffffffffffffffffffffffffffffffffffffffffe0168201604052611dca9190810190613c04565b60008381526020858152604080832073ffffffffffffffffffffffffffffffffffffffff8616845290915290205460ff16156109a95760008381526020858152604080832073ffffffffffffffffffffffffffffffffffffffff8681168086529184529382902080547fffffffffffffffffffffffffffffffffffffffffffffffffffffffffffffff00169055815187815292830152918316918101919091527ff6391f5c32d9c69d2a47ea670b442974b53935d1edc7fd64eb21e047a839171b90606001611977565b825473ffffffffffffffffffffffffffffffffffffffff9081169083168114612695576040517f2ef4875e00000000000000000000000000000000000000000000000000000000815273ffffffffffffffffffffffffffffffffffffffff84166004820152602401610cf2565b8173ffffffffffffffffffffffffffffffffffffffff168173ffffffffffffffffffffffffffffffffffffffff16146109a95783547fffffffffffffffffffffffff00000000000000000000000000000000000000001673ffffffffffffffffffffffffffffffffffffffff8381169182178655604051908316907f8be0079c531659141344cd1fd0a4f28419497f9722a3daafe3b4186f6b6457e090600090a350505050565b73ffffffffffffffffffffffffffffffffffffffff8316612789576040517f86c8706700000000000000000000000000000000000000000000000000000000815260040160405180910390fd5b6000612796878688612d78565b90508160005b818110156129ba5760008585838181106127b8576127b8613940565b602090810292909201356000818152928d90526040909220549192505073ffffffffffffffffffffffffffffffffffffffff8116612825576040517fdd56047500000000000000000000000000000000000000000000000000000000815260048101839052602401610cf2565b73ffffffffffffffffffffffffffffffffffffffff89168173ffffffffffffffffffffffffffffffffffffffff16146128a9576040517f14dbb53600000000000000000000000000000000000000000000000000000000815273ffffffffffffffffffffffffffffffffffffffff8a16600482015260248101839052604401610cf2565b846129595774010000000000000000000000000000000000000000811615806128fb5750600082815260028c01602052604090205473ffffffffffffffffffffffffffffffffffffffff8b8116911614155b15612959576040517fa4a3018b00000000000000000000000000000000000000000000000000000000815273ffffffffffffffffffffffffffffffffffffffff808c1660048301528a16602482015260448101839052606401610cf2565b600082815260208c9052604080822073ffffffffffffffffffffffffffffffffffffffff808c16918290559151859391928d16917fddf252ad1be2c89b69c2b068fc378daa952ba7f163c4a11628f55a4df523b3ef91a4505060010161279c565b508473ffffffffffffffffffffffffffffffffffffffff168673ffffffffffffffffffffffffffffffffffffffff16141580156129f657508015155b1561091d5773ffffffffffffffffffffffffffffffffffffffff808716600090815260018a016020526040808220805485900390559187168152208054820190555050505050505050565b80471015612aab576040517f08c379a000000000000000000000000000000000000000000000000000000000815260206004820152601d60248201527f416464726573733a20696e73756666696369656e742062616c616e63650000006044820152606401610cf2565b60008273ffffffffffffffffffffffffffffffffffffffff168260405160006040518083038185875af1925050503d8060008114612b05576040519150601f19603f3d011682016040523d82523d6000602084013e612b0a565b606091505b5050905080610639576040517f08c379a000000000000000000000000000000000000000000000000000000000815260206004820152603a60248201527f416464726573733a20756e61626c6520746f2073656e642076616c75652c207260448201527f6563697069656e74206d617920686176652072657665727465640000000000006064820152608401610cf2565b6060816000018054612bac90613a4f565b80601f0160208091040260200160405190810160405280929190818152602001828054612bd890613a4f565b8015612c255780601f10612bfa57610100808354040283529160200191612c25565b820191906000526020600020905b815481529060010190602001808311612c0857829003601f168201915b50505050509050919050565b600033321480612c415750601836105b15612c4b57503390565b7fffffffffffffffffffffffffffffffffffffffffffffffffffffffffffffffec36013560601c7f000000000000000000000000000000000000000000000000000000000000000073ffffffffffffffffffffffffffffffffffffffff16331480612d6757506040517f8929a8ca00000000000000000000000000000000000000000000000000000000815273ffffffffffffffffffffffffffffffffffffffff82811660048301523360248301527f00000000000000000000000000000000000000000000000000000000000000001690638929a8ca90604401602060405180830381865afa158015612d43573d6000803e3d6000fd5b505050506040513d601f19601f82011682018060405250810190612d67919061396f565b15612d7157919050565b3391505090565b60008173ffffffffffffffffffffffffffffffffffffffff168373ffffffffffffffffffffffffffffffffffffffff161480611dca57505073ffffffffffffffffffffffffffffffffffffffff9182166000908152600393909301602090815260408085209290931684525290205460ff1690565b6040517f150b7a02000000000000000000000000000000000000000000000000000000008082529073ffffffffffffffffffffffffffffffffffffffff85169063150b7a0290612e47908990899088908890600401613cc4565b6020604051808303816000875af1158015612e66573d6000803e3d6000fd5b505050506040513d601f19601f82011682018060405250810190612e8a9190613d0d565b7fffffffff000000000000000000000000000000000000000000000000000000001614610816576040517fc215a7a100000000000000000000000000000000000000000000000000000000815273ffffffffffffffffffffffffffffffffffffffff8416600482015260248101839052604401610cf2565b81548290828110612f49576040517fbf0c18ec0000000000000000000000000000000000000000000000000000000081526004810182905260248101849052604401610cf2565b505550565b73ffffffffffffffffffffffffffffffffffffffff811615612fd65781547fffffffffffffffffffffffff00000000000000000000000000000000000000001673ffffffffffffffffffffffffffffffffffffffff821690811783556040516000907f8be0079c531659141344cd1fd0a4f28419497f9722a3daafe3b4186f6b6457e0908290a35b6106167f7f5828d0000000000000000000000000000000000000000000000000000000006001611e3f610fb1565b7c01000000000000000000000000000000000000000000000000000000007fffffffff0000000000000000000000000000000000000000000000000000000083160161307c576040517f72c683bb00000000000000000000000000000000000000000000000000000000815260040160405180910390fd5b7fffffffff00000000000000000000000000000000000000000000000000000000919091166000908152602092909252604090912080547fffffffffffffffffffffffffffffffffffffffffffffffffffffffffffffff0016911515919091179055565b6000613142826040518060400160405280602081526020017f5361666545524332303a206c6f772d6c6576656c2063616c6c206661696c65648152508573ffffffffffffffffffffffffffffffffffffffff166132009092919063ffffffff16565b9050805160001480613163575080806020019051810190613163919061396f565b610639576040517f08c379a000000000000000000000000000000000000000000000000000000000815260206004820152602a60248201527f5361666545524332303a204552433230206f7065726174696f6e20646964206e60448201527f6f742073756363656564000000000000000000000000000000000000000000006064820152608401610cf2565b6060816001018054612bac90613a4f565b6060611dca8484600085856000808673ffffffffffffffffffffffffffffffffffffffff1685876040516132349190613d2a565b60006040518083038185875af1925050503d8060008114613271576040519150601f19603f3d011682016040523d82523d6000602084013e613276565b606091505b509150915061328787838387613292565b979650505050505050565b606083156133285782516000036133215773ffffffffffffffffffffffffffffffffffffffff85163b613321576040517f08c379a000000000000000000000000000000000000000000000000000000000815260206004820152601d60248201527f416464726573733a2063616c6c20746f206e6f6e2d636f6e74726163740000006044820152606401610cf2565b5081611dca565b611dca838381511561333d5781518083602001fd5b806040517f08c379a0000000000000000000000000000000000000000000000000000000008152600401610cf2919061342a565b7fffffffff000000000000000000000000000000000000000000000000000000008116811461079c57600080fd5b6000602082840312156133b157600080fd5b8135610a5281613371565b60005b838110156133d75781810151838201526020016133bf565b50506000910152565b600081518084526133f88160208601602086016133bc565b601f017fffffffffffffffffffffffffffffffffffffffffffffffffffffffffffffffe0169290920160200192915050565b602081526000610a5260208301846133e0565b60006020828403121561344f57600080fd5b5035919050565b73ffffffffffffffffffffffffffffffffffffffff8116811461079c57600080fd5b6000806040838503121561348b57600080fd5b823561349681613456565b946020939093013593505050565b6000806000606084860312156134b957600080fd5b83356134c481613456565b925060208401356134d481613456565b929592945050506040919091013590565b600080604083850312156134f857600080fd5b50508035926020909101359150565b6000806040838503121561351a57600080fd5b82359150602083013561352c81613456565b809150509250929050565b60008083601f84011261354957600080fd5b50813567ffffffffffffffff81111561356157600080fd5b6020830191508360208260051b850101111561065a57600080fd5b60008060006040848603121561359157600080fd5b833561359c81613456565b9250602084013567ffffffffffffffff8111156135b857600080fd5b6135c486828701613537565b9497909650939450505050565b6000602082840312156135e357600080fd5b8135610a5281613456565b60008083601f84011261360057600080fd5b50813567ffffffffffffffff81111561361857600080fd5b60208301915083602082850101111561065a57600080fd5b60008060008060006060868803121561364857600080fd5b853567ffffffffffffffff8082111561366057600080fd5b61366c89838a016135ee565b9097509550602088013591508082111561368557600080fd5b50613692888289016135ee565b90945092505060408601356136a681613456565b809150509295509295909350565b600080600080600080606087890312156136cd57600080fd5b863567ffffffffffffffff808211156136e557600080fd5b6136f18a838b01613537565b9098509650602089013591508082111561370a57600080fd5b6137168a838b01613537565b9096509450604089013591508082111561372f57600080fd5b5061373c89828a01613537565b979a9699509497509295939492505050565b6000806000806060858703121561376457600080fd5b843561376f81613456565b935060208501359250604085013567ffffffffffffffff81111561379257600080fd5b61379e878288016135ee565b95989497509550505050565b600080600080604085870312156137c057600080fd5b843567ffffffffffffffff808211156137d857600080fd5b6137e488838901613537565b909650945060208701359150808211156137fd57600080fd5b5061379e87828801613537565b801515811461079c57600080fd5b6000806040838503121561382b57600080fd5b823561383681613456565b9150602083013561352c8161380a565b60008060008060006080868803121561385e57600080fd5b853561386981613456565b9450602086013561387981613456565b935060408601359250606086013567ffffffffffffffff81111561389c57600080fd5b6138a8888289016135ee565b969995985093965092949392505050565b600080604083850312156138cc57600080fd5b82356138d781613456565b9150602083013561352c81613456565b600080600080606085870312156138fd57600080fd5b843561390881613456565b9350602085013561391881613456565b9250604085013567ffffffffffffffff81111561393457600080fd5b61379e87828801613537565b7f4e487b7100000000000000000000000000000000000000000000000000000000600052603260045260246000fd5b60006020828403121561398157600080fd5b8151610a528161380a565b7f4e487b7100000000000000000000000000000000000000000000000000000000600052601160045260246000fd5b818103818111156105d0576105d061398c565b80820281158282048414176105d0576105d061398c565b600082613a1b577f4e487b7100000000000000000000000000000000000000000000000000000000600052601260045260246000fd5b500490565b7f4e487b7100000000000000000000000000000000000000000000000000000000600052604160045260246000fd5b600181811c90821680613a6357607f821691505b602082108103613a9c577f4e487b7100000000000000000000000000000000000000000000000000000000600052602260045260246000fd5b50919050565b601f821115610639576000816000526020600020601f850160051c81016020861015613acb5750805b601f850160051c820191505b81811015610fa957828155600101613ad7565b67ffffffffffffffff831115613b0257613b02613a20565b613b1683613b108354613a4f565b83613aa2565b6000601f841160018114613b685760008515613b325750838201355b7fffffffffffffffffffffffffffffffffffffffffffffffffffffffffffffffff600387901b1c1916600186901b178355610816565b6000838152602090207fffffffffffffffffffffffffffffffffffffffffffffffffffffffffffffffe0861690835b82811015613bb75786850135825560209485019460019092019101613b97565b5086821015613bf2577fffffffffffffffffffffffffffffffffffffffffffffffffffffffffffffffff60f88860031b161c19848701351681555b505060018560011b0183555050505050565b600060208284031215613c1657600080fd5b815167ffffffffffffffff80821115613c2e57600080fd5b818401915084601f830112613c4257600080fd5b815181811115613c5457613c54613a20565b604051601f82017fffffffffffffffffffffffffffffffffffffffffffffffffffffffffffffffe0908116603f01168101908382118183101715613c9a57613c9a613a20565b81604052828152876020848701011115613cb357600080fd5b6132878360208301602088016133bc565b600073ffffffffffffffffffffffffffffffffffffffff808716835280861660208401525083604083015260806060830152613d0360808301846133e0565b9695505050505050565b600060208284031215613d1f57600080fd5b8151610a5281613371565b60008251613d3c8184602087016133bc565b919091019291505056fea2646970667358221220f7f17d03137774995c6f7a9e51ccc85c294eb03f751e2e67b02a98f9622c98ee64736f6c63430008180033",
  "linkReferences": {},
  "deployedLinkReferences": {}
}