{
  "_format": "hh-sol-artifact-1",
  "contractName": "ERC721FullProxied",
  "sourceName": "contracts/token/ERC721/preset/proxied/ERC721FullProxied.sol",
  "abi": [
    {
      "inputs": [
        {
          "internalType": "contract IForwarderRegistry",
          "name": "forwarderRegistry",
          "type": "address"
        }
      ],
      "stateMutability": "nonpayable",
      "type": "constructor"
    },
    {
      "inputs": [
        {
          "internalType": "uint256",
          "name": "percentage",
          "type": "uint256"
        }
      ],
      "name": "ERC2981IncorrectRoyaltyPercentage",
      "type": "error"
    },
    {
      "inputs": [],
      "name": "ERC2981IncorrectRoyaltyReceiver",
      "type": "error"
    },
    {
      "inputs": [],
      "name": "ERC721BalanceOfAddressZero",
      "type": "error"
    },
    {
      "inputs": [
        {
          "internalType": "uint256",
          "name": "tokenId",
          "type": "uint256"
        }
      ],
      "name": "ERC721ExistingToken",
      "type": "error"
    },
    {
      "inputs": [],
      "name": "ERC721MintToAddressZero",
      "type": "error"
    },
    {
      "inputs": [
        {
          "internalType": "address",
          "name": "sender",
          "type": "address"
        },
        {
          "internalType": "address",
          "name": "owner",
          "type": "address"
        },
        {
          "internalType": "uint256",
          "name": "tokenId",
          "type": "uint256"
        }
      ],
      "name": "ERC721NonApprovedForApproval",
      "type": "error"
    },
    {
      "inputs": [
        {
          "internalType": "address",
          "name": "sender",
          "type": "address"
        },
        {
          "internalType": "address",
          "name": "owner",
          "type": "address"
        },
        {
          "internalType": "uint256",
          "name": "tokenId",
          "type": "uint256"
        }
      ],
      "name": "ERC721NonApprovedForTransfer",
      "type": "error"
    },
    {
      "inputs": [
        {
          "internalType": "uint256",
          "name": "tokenId",
          "type": "uint256"
        }
      ],
      "name": "ERC721NonExistingToken",
      "type": "error"
    },
    {
      "inputs": [
        {
          "internalType": "address",
          "name": "account",
          "type": "address"
        },
        {
          "internalType": "uint256",
          "name": "tokenId",
          "type": "uint256"
        }
      ],
      "name": "ERC721NonOwnedToken",
      "type": "error"
    },
    {
      "inputs": [
        {
          "internalType": "address",
          "name": "recipient",
          "type": "address"
        },
        {
          "internalType": "uint256",
          "name": "tokenId",
          "type": "uint256"
        }
      ],
      "name": "ERC721SafeTransferRejected",
      "type": "error"
    },
    {
      "inputs": [
        {
          "internalType": "address",
          "name": "account",
          "type": "address"
        }
      ],
      "name": "ERC721SelfApproval",
      "type": "error"
    },
    {
      "inputs": [
        {
          "internalType": "address",
          "name": "account",
          "type": "address"
        }
      ],
      "name": "ERC721SelfApprovalForAll",
      "type": "error"
    },
    {
      "inputs": [],
      "name": "ERC721TransferToAddressZero",
      "type": "error"
    },
    {
      "inputs": [],
      "name": "IllegalInterfaceId",
      "type": "error"
    },
    {
      "inputs": [],
      "name": "InconsistentArrayLengths",
      "type": "error"
    },
    {
      "inputs": [
        {
          "internalType": "uint256",
          "name": "currentPhase",
          "type": "uint256"
        },
        {
          "internalType": "uint256",
          "name": "newPhase",
          "type": "uint256"
        }
      ],
      "name": "InitializationPhaseAlreadyReached",
      "type": "error"
    },
    {
      "inputs": [
        {
          "internalType": "address",
          "name": "account",
          "type": "address"
        }
      ],
      "name": "NotContractOwner",
      "type": "error"
    },
    {
      "inputs": [
        {
          "internalType": "bytes32",
          "name": "role",
          "type": "bytes32"
        },
        {
          "internalType": "address",
          "name": "account",
          "type": "address"
        }
      ],
      "name": "NotRoleHolder",
      "type": "error"
    },
    {
      "inputs": [
        {
          "internalType": "address",
          "name": "operator",
          "type": "address"
        }
      ],
      "name": "OperatorNotAllowed",
      "type": "error"
    },
    {
      "anonymous": false,
      "inputs": [
        {
          "indexed": true,
          "internalType": "address",
          "name": "owner",
          "type": "address"
        },
        {
          "indexed": true,
          "internalType": "address",
          "name": "approved",
          "type": "address"
        },
        {
          "indexed": true,
          "internalType": "uint256",
          "name": "tokenId",
          "type": "uint256"
        }
      ],
      "name": "Approval",
      "type": "event"
    },
    {
      "anonymous": false,
      "inputs": [
        {
          "indexed": true,
          "internalType": "address",
          "name": "owner",
          "type": "address"
        },
        {
          "indexed": true,
          "internalType": "address",
          "name": "operator",
          "type": "address"
        },
        {
          "indexed": false,
          "internalType": "bool",
          "name": "approved",
          "type": "bool"
        }
      ],
      "name": "ApprovalForAll",
      "type": "event"
    },
    {
      "anonymous": false,
      "inputs": [
        {
          "indexed": true,
          "internalType": "address",
          "name": "previousOwner",
          "type": "address"
        },
        {
          "indexed": true,
          "internalType": "address",
          "name": "newOwner",
          "type": "address"
        }
      ],
      "name": "OwnershipTransferred",
      "type": "event"
    },
    {
      "anonymous": false,
      "inputs": [
        {
          "indexed": false,
          "internalType": "bytes32",
          "name": "role",
          "type": "bytes32"
        },
        {
          "indexed": false,
          "internalType": "address",
          "name": "account",
          "type": "address"
        },
        {
          "indexed": false,
          "internalType": "address",
          "name": "operator",
          "type": "address"
        }
      ],
      "name": "RoleGranted",
      "type": "event"
    },
    {
      "anonymous": false,
      "inputs": [
        {
          "indexed": false,
          "internalType": "bytes32",
          "name": "role",
          "type": "bytes32"
        },
        {
          "indexed": false,
          "internalType": "address",
          "name": "account",
          "type": "address"
        },
        {
          "indexed": false,
          "internalType": "address",
          "name": "operator",
          "type": "address"
        }
      ],
      "name": "RoleRevoked",
      "type": "event"
    },
    {
      "anonymous": false,
      "inputs": [
        {
          "indexed": true,
          "internalType": "address",
          "name": "from",
          "type": "address"
        },
        {
          "indexed": true,
          "internalType": "address",
          "name": "to",
          "type": "address"
        },
        {
          "indexed": true,
          "internalType": "uint256",
          "name": "tokenId",
          "type": "uint256"
        }
      ],
      "name": "Transfer",
      "type": "event"
    },
    {
      "inputs": [],
      "name": "MINTER_ROLE",
      "outputs": [
        {
          "internalType": "bytes32",
          "name": "",
          "type": "bytes32"
        }
      ],
      "stateMutability": "view",
      "type": "function"
    },
    {
      "inputs": [],
      "name": "ROYALTY_FEE_DENOMINATOR",
      "outputs": [
        {
          "internalType": "uint256",
          "name": "",
          "type": "uint256"
        }
      ],
      "stateMutability": "view",
      "type": "function"
    },
    {
      "inputs": [
        {
          "internalType": "address",
          "name": "to",
          "type": "address"
        },
        {
          "internalType": "uint256",
          "name": "tokenId",
          "type": "uint256"
        }
      ],
      "name": "approve",
      "outputs": [],
      "stateMutability": "nonpayable",
      "type": "function"
    },
    {
      "inputs": [
        {
          "internalType": "address",
          "name": "owner",
          "type": "address"
        }
      ],
      "name": "balanceOf",
      "outputs": [
        {
          "internalType": "uint256",
          "name": "balance",
          "type": "uint256"
        }
      ],
      "stateMutability": "view",
      "type": "function"
    },
    {
      "inputs": [
        {
          "internalType": "address",
          "name": "to",
          "type": "address"
        },
        {
          "internalType": "uint256[]",
          "name": "tokenIds",
          "type": "uint256[]"
        }
      ],
      "name": "batchMint",
      "outputs": [],
      "stateMutability": "nonpayable",
      "type": "function"
    },
    {
      "inputs": [
        {
          "internalType": "address",
          "name": "from",
          "type": "address"
        },
        {
          "internalType": "address",
          "name": "to",
          "type": "address"
        },
        {
          "internalType": "uint256[]",
          "name": "tokenIds",
          "type": "uint256[]"
        }
      ],
      "name": "batchTransferFrom",
      "outputs": [],
      "stateMutability": "nonpayable",
      "type": "function"
    },
    {
      "inputs": [
        {
          "internalType": "address[]",
          "name": "recipients",
          "type": "address[]"
        },
        {
          "internalType": "uint256[]",
          "name": "tokenIds",
          "type": "uint256[]"
        }
      ],
      "name": "deliver",
      "outputs": [],
      "stateMutability": "nonpayable",
      "type": "function"
    },
    {
      "inputs": [],
      "name": "forwarderRegistry",
      "outputs": [
        {
          "internalType": "contract IForwarderRegistry",
          "name": "",
          "type": "address"
        }
      ],
      "stateMutability": "view",
      "type": "function"
    },
    {
      "inputs": [
        {
          "internalType": "uint256",
          "name": "tokenId",
          "type": "uint256"
        }
      ],
      "name": "getApproved",
      "outputs": [
        {
          "internalType": "address",
          "name": "approved",
          "type": "address"
        }
      ],
      "stateMutability": "view",
      "type": "function"
    },
    {
      "inputs": [
        {
          "internalType": "bytes32",
          "name": "role",
          "type": "bytes32"
        },
        {
          "internalType": "address",
          "name": "account",
          "type": "address"
        }
      ],
      "name": "grantRole",
      "outputs": [],
      "stateMutability": "nonpayable",
      "type": "function"
    },
    {
      "inputs": [
        {
          "internalType": "bytes32",
          "name": "role",
          "type": "bytes32"
        },
        {
          "internalType": "address",
          "name": "account",
          "type": "address"
        }
      ],
      "name": "hasRole",
      "outputs": [
        {
          "internalType": "bool",
          "name": "hasRole_",
          "type": "bool"
        }
      ],
      "stateMutability": "view",
      "type": "function"
    },
    {
      "inputs": [
        {
          "internalType": "string",
          "name": "tokenName",
          "type": "string"
        },
        {
          "internalType": "string",
          "name": "tokenSymbol",
          "type": "string"
        },
        {
          "internalType": "contract ITokenMetadataResolver",
          "name": "metadataResolver",
          "type": "address"
        },
        {
          "internalType": "contract IOperatorFilterRegistry",
          "name": "filterRegistry",
          "type": "address"
        }
      ],
      "name": "init",
      "outputs": [],
      "stateMutability": "nonpayable",
      "type": "function"
    },
    {
      "inputs": [
        {
          "internalType": "address",
          "name": "owner",
          "type": "address"
        },
        {
          "internalType": "address",
          "name": "operator",
          "type": "address"
        }
      ],
      "name": "isApprovedForAll",
      "outputs": [
        {
          "internalType": "bool",
          "name": "approvedForAll",
          "type": "bool"
        }
      ],
      "stateMutability": "view",
      "type": "function"
    },
    {
      "inputs": [
        {
          "internalType": "address",
          "name": "forwarder",
          "type": "address"
        }
      ],
      "name": "isTrustedForwarder",
      "outputs": [
        {
          "internalType": "bool",
          "name": "",
          "type": "bool"
        }
      ],
      "stateMutability": "view",
      "type": "function"
    },
    {
      "inputs": [],
      "name": "metadataResolver",
      "outputs": [
        {
          "internalType": "contract ITokenMetadataResolver",
          "name": "tokenMetadataResolver",
          "type": "address"
        }
      ],
      "stateMutability": "view",
      "type": "function"
    },
    {
      "inputs": [
        {
          "internalType": "address",
          "name": "to",
          "type": "address"
        },
        {
          "internalType": "uint256",
          "name": "tokenId",
          "type": "uint256"
        }
      ],
      "name": "mint",
      "outputs": [],
      "stateMutability": "nonpayable",
      "type": "function"
    },
    {
      "inputs": [],
      "name": "name",
      "outputs": [
        {
          "internalType": "string",
          "name": "tokenName",
          "type": "string"
        }
      ],
      "stateMutability": "view",
      "type": "function"
    },
    {
      "inputs": [],
      "name": "operatorFilterRegistry",
      "outputs": [
        {
          "internalType": "contract IOperatorFilterRegistry",
          "name": "",
          "type": "address"
        }
      ],
      "stateMutability": "view",
      "type": "function"
    },
    {
      "inputs": [],
      "name": "owner",
      "outputs": [
        {
          "internalType": "address",
          "name": "",
          "type": "address"
        }
      ],
      "stateMutability": "view",
      "type": "function"
    },
    {
      "inputs": [
        {
          "internalType": "uint256",
          "name": "tokenId",
          "type": "uint256"
        }
      ],
      "name": "ownerOf",
      "outputs": [
        {
          "internalType": "address",
          "name": "tokenOwner",
          "type": "address"
        }
      ],
      "stateMutability": "view",
      "type": "function"
    },
    {
      "inputs": [
        {
          "internalType": "address[]",
          "name": "accounts",
          "type": "address[]"
        },
        {
          "internalType": "contract IERC20[]",
          "name": "tokens",
          "type": "address[]"
        },
        {
          "internalType": "uint256[]",
          "name": "amounts",
          "type": "uint256[]"
        }
      ],
      "name": "recoverERC20s",
      "outputs": [],
      "stateMutability": "nonpayable",
      "type": "function"
    },
    {
      "inputs": [
        {
          "internalType": "address[]",
          "name": "accounts",
          "type": "address[]"
        },
        {
          "internalType": "contract IERC721[]",
          "name": "contracts",
          "type": "address[]"
        },
        {
          "internalType": "uint256[]",
          "name": "tokenIds",
          "type": "uint256[]"
        }
      ],
      "name": "recoverERC721s",
      "outputs": [],
      "stateMutability": "nonpayable",
      "type": "function"
    },
    {
      "inputs": [
        {
          "internalType": "address payable[]",
          "name": "accounts",
          "type": "address[]"
        },
        {
          "internalType": "uint256[]",
          "name": "amounts",
          "type": "uint256[]"
        }
      ],
      "name": "recoverETH",
      "outputs": [],
      "stateMutability": "nonpayable",
      "type": "function"
    },
    {
      "inputs": [
        {
          "internalType": "bytes32",
          "name": "role",
          "type": "bytes32"
        }
      ],
      "name": "renounceRole",
      "outputs": [],
      "stateMutability": "nonpayable",
      "type": "function"
    },
    {
      "inputs": [
        {
          "internalType": "bytes32",
          "name": "role",
          "type": "bytes32"
        },
        {
          "internalType": "address",
          "name": "account",
          "type": "address"
        }
      ],
      "name": "revokeRole",
      "outputs": [],
      "stateMutability": "nonpayable",
      "type": "function"
    },
    {
      "inputs": [
        {
          "internalType": "uint256",
          "name": "tokenId",
          "type": "uint256"
        },
        {
          "internalType": "uint256",
          "name": "salePrice",
          "type": "uint256"
        }
      ],
      "name": "royaltyInfo",
      "outputs": [
        {
          "internalType": "address",
          "name": "receiver",
          "type": "address"
        },
        {
          "internalType": "uint256",
          "name": "royaltyAmount",
          "type": "uint256"
        }
      ],
      "stateMutability": "view",
      "type": "function"
    },
    {
      "inputs": [
        {
          "internalType": "address",
          "name": "to",
          "type": "address"
        },
        {
          "internalType": "uint256",
          "name": "tokenId",
          "type": "uint256"
        },
        {
          "internalType": "bytes",
          "name": "data",
          "type": "bytes"
        }
      ],
      "name": "safeMint",
      "outputs": [],
      "stateMutability": "nonpayable",
      "type": "function"
    },
    {
      "inputs": [
        {
          "internalType": "address",
          "name": "from",
          "type": "address"
        },
        {
          "internalType": "address",
          "name": "to",
          "type": "address"
        },
        {
          "internalType": "uint256",
          "name": "tokenId",
          "type": "uint256"
        }
      ],
      "name": "safeTransferFrom",
      "outputs": [],
      "stateMutability": "nonpayable",
      "type": "function"
    },
    {
      "inputs": [
        {
          "internalType": "address",
          "name": "from",
          "type": "address"
        },
        {
          "internalType": "address",
          "name": "to",
          "type": "address"
        },
        {
          "internalType": "uint256",
          "name": "tokenId",
          "type": "uint256"
        },
        {
          "internalType": "bytes",
          "name": "data",
          "type": "bytes"
        }
      ],
      "name": "safeTransferFrom",
      "outputs": [],
      "stateMutability": "nonpayable",
      "type": "function"
    },
    {
      "inputs": [
        {
          "internalType": "address",
          "name": "operator",
          "type": "address"
        },
        {
          "internalType": "bool",
          "name": "approved",
          "type": "bool"
        }
      ],
      "name": "setApprovalForAll",
      "outputs": [],
      "stateMutability": "nonpayable",
      "type": "function"
    },
    {
      "inputs": [
        {
          "internalType": "uint256",
          "name": "percentage",
          "type": "uint256"
        }
      ],
      "name": "setRoyaltyPercentage",
      "outputs": [],
      "stateMutability": "nonpayable",
      "type": "function"
    },
    {
      "inputs": [
        {
          "internalType": "address",
          "name": "receiver",
          "type": "address"
        }
      ],
      "name": "setRoyaltyReceiver",
      "outputs": [],
      "stateMutability": "nonpayable",
      "type": "function"
    },
    {
      "inputs": [
        {
          "internalType": "bytes4",
          "name": "interfaceId",
          "type": "bytes4"
        }
      ],
      "name": "supportsInterface",
      "outputs": [
        {
          "internalType": "bool",
          "name": "",
          "type": "bool"
        }
      ],
      "stateMutability": "view",
      "type": "function"
    },
    {
      "inputs": [],
      "name": "symbol",
      "outputs": [
        {
          "internalType": "string",
          "name": "tokenSymbol",
          "type": "string"
        }
      ],
      "stateMutability": "view",
      "type": "function"
    },
    {
      "inputs": [
        {
          "internalType": "uint256",
          "name": "tokenId",
          "type": "uint256"
        }
      ],
      "name": "tokenURI",
      "outputs": [
        {
          "internalType": "string",
          "name": "uri",
          "type": "string"
        }
      ],
      "stateMutability": "view",
      "type": "function"
    },
    {
      "inputs": [
        {
          "internalType": "address",
          "name": "from",
          "type": "address"
        },
        {
          "internalType": "address",
          "name": "to",
          "type": "address"
        },
        {
          "internalType": "uint256",
          "name": "tokenId",
          "type": "uint256"
        }
      ],
      "name": "transferFrom",
      "outputs": [],
      "stateMutability": "nonpayable",
      "type": "function"
    },
    {
      "inputs": [
        {
          "internalType": "address",
          "name": "newOwner",
          "type": "address"
        }
      ],
      "name": "transferOwnership",
      "outputs": [],
      "stateMutability": "nonpayable",
      "type": "function"
    },
    {
      "inputs": [
        {
          "internalType": "contract IOperatorFilterRegistry",
          "name": "registry",
          "type": "address"
        }
      ],
      "name": "updateOperatorFilterRegistry",
      "outputs": [],
      "stateMutability": "nonpayable",
      "type": "function"
    }
  ],
  "bytecode": "0x60a060405234801562000010575f80fd5b5060405162003f3d38038062003f3d833981016040819052620000339162000045565b6001600160a01b031660805262000074565b5f6020828403121562000056575f80fd5b81516001600160a01b03811681146200006d575f80fd5b9392505050565b608051613e9b620000a25f395f818161038b0152818161040b01528181612df40152612e7c0152613e9b5ff3fe608060405234801561000f575f80fd5b5060043610610283575f3560e01c80638bb9c5bf11610157578063b88d4fde116100d2578063e1a8bf2c11610088578063f2fde38b1161006e578063f2fde38b146105c4578063f3993d11146105d7578063f7ba94bd146105ea575f80fd5b8063e1a8bf2c146105a7578063e985e9c5146105b1575f80fd5b8063c87b56dd116100b8578063c87b56dd1461055a578063d53913931461056d578063d547741f14610594575f80fd5b8063b88d4fde14610534578063c3666c3614610547575f80fd5b806395d89b4111610127578063a0c76f621161010d578063a0c76f6214610511578063a22cb46514610519578063b0ccc31e1461052c575f80fd5b806395d89b41146104f65780639da5e832146104fe575f80fd5b80638bb9c5bf146104b55780638da5cb5b146104c85780638dc251e3146104d057806391d14854146104e3575f80fd5b80632f2ff15d1161020157806361ba27da116101b757806370a082311161019d57806370a082311461046e57806373c8a9581461048f5780638832e6e3146104a2575f80fd5b806361ba27da146104485780636352211e1461045b575f80fd5b806342842e0e116101e757806342842e0e146103d55780634684d7e9146103e8578063572b6c05146103fb575f80fd5b80632f2ff15d146103af57806340c10f19146103c2575f80fd5b80630e07f8541161025657806323b872dd1161023c57806323b872dd146103375780632a55205a1461034a5780632b4c9f1614610389575f80fd5b80630e07f85414610311578063114ba8ee14610324575f80fd5b806301ffc9a71461028757806306fdde03146102af578063081812fc146102c4578063095ea7b3146102fc575b5f80fd5b61029a61029536600461350d565b6105fd565b60405190151581526020015b60405180910390f35b6102b7610616565b6040516102a69190613593565b6102d76102d23660046135a5565b610625565b60405173ffffffffffffffffffffffffffffffffffffffff90911681526020016102a6565b61030f61030a3660046135dd565b610638565b005b61030f61031f366004613645565b610687565b61030f6103323660046136d4565b610704565b61030f6103453660046136ef565b61076f565b61035d61035836600461372d565b6107ac565b6040805173ffffffffffffffffffffffffffffffffffffffff90931683526020830191909152016102a6565b7f00000000000000000000000000000000000000000000000000000000000000006102d7565b61030f6103bd36600461374d565b6107ce565b61030f6103d03660046135dd565b610800565b61030f6103e33660046136ef565b61084f565b61030f6103f63660046137bc565b61087f565b61029a6104093660046136d4565b7f000000000000000000000000000000000000000000000000000000000000000073ffffffffffffffffffffffffffffffffffffffff90811691161490565b61030f6104563660046135a5565b6108f2565b6102d76104693660046135a5565b61090f565b61048161047c3660046136d4565b610922565b6040519081526020016102a6565b61030f61049d36600461380d565b610935565b61030f6104b03660046138a0565b610a29565b61030f6104c33660046135a5565b610aaa565b6102d7610ac5565b61030f6104de3660046136d4565b610aeb565b61029a6104f136600461374d565b610b08565b6102b7610b51565b61030f61050c3660046138f8565b610b5b565b6102d7610bfd565b61030f610527366004613960565b610c26565b6102d7610c55565b61030f61054236600461398c565b610c61565b61030f61055536600461380d565b610c95565b6102b76105683660046135a5565b610e06565b6104817f6d696e746572000000000000000000000000000000000000000000000000000081565b61030f6105a236600461374d565b610e29565b610481620186a081565b61029a6105bf3660046139fa565b610e56565b61030f6105d23660046136d4565b610ea2565b61030f6105e5366004613a26565b610ebd565b61030f6105f83660046138f8565b610ef6565b5f6106108261060a610fab565b90610fd8565b92915050565b60606106206110af565b905090565b5f610610826106326110c1565b906110ee565b73ffffffffffffffffffffffffffffffffffffffff82161561066657610666826106606111a4565b906111d1565b6106836106716111db565b838361067b6110c1565b9291906111e4565b5050565b6106a06106926111db565b61069a61145b565b90611488565b6106a86114c7565b6106b06114fe565b6106b861152c565b6106c061155a565b6106c8611588565b6106d06115b6565b6106ea86868686866106e06115e4565b9493929190611611565b6106fc816106f66111a4565b906116ab565b505050505050565b61071d61070f6111db565b61071761145b565b9061171b565b61076c816107296111a4565b9081547fffffffffffffffffffffffff00000000000000000000000000000000000000001673ffffffffffffffffffffffffffffffffffffffff91909116179055565b50565b5f6107786111db565b905061078e81856107876111a4565b9190611786565b6107a68185858561079d6110c1565b939291906117c3565b50505050565b5f806107c284846107bb611a9d565b9190611aca565b915091505b9250929050565b5f6107d76111db565b90506107e58161071761145b565b6107fb8383836107f3611b72565b929190611b9f565b505050565b61083b7f6d696e746572000000000000000000000000000000000000000000000000000061082c6111db565b610834611b72565b9190611c73565b61068382826108486110c1565b9190611cf8565b5f6108586111db565b905061086781856107876111a4565b6107a6818585856108766110c1565b93929190611e10565b6108ab7f6d696e746572000000000000000000000000000000000000000000000000000061082c6111db565b6107fb838383808060200260200160405190810160405280939291908181526020018383602002808284375f920191909152506108eb92506110c1915050565b9190611e55565b6108fd61070f6111db565b61076c81610909611a9d565b90611fc5565b5f6106108261091c6110c1565b9061204b565b5f6106108261092f6110c1565b906120b3565b61094061070f6111db565b8483811415806109505750808214155b15610987576040517f6582533600000000000000000000000000000000000000000000000000000000815260040160405180910390fd5b5f5b818114610a1f57610a178888838181106109a5576109a5613a7b565b90506020020160208101906109ba91906136d4565b8585848181106109cc576109cc613a7b565b905060200201358888858181106109e5576109e5613a7b565b90506020020160208101906109fa91906136d4565b73ffffffffffffffffffffffffffffffffffffffff16919061212d565b600101610989565b5050505050505050565b610a557f6d696e746572000000000000000000000000000000000000000000000000000061082c6111db565b6107a6610a606111db565b858585858080601f0160208091040260200160405190810160405280939291908181526020018383808284375f92019190915250610aa192506110c1915050565b939291906121ba565b61076c610ab56111db565b82610abe611b72565b91906121ef565b5f610620610ad161145b565b5473ffffffffffffffffffffffffffffffffffffffff1690565b610af661070f6111db565b61076c81610b02611a9d565b90612292565b5f610b4a8383610b16611b72565b5f9283526020908152604080842073ffffffffffffffffffffffffffffffffffffffff909316845291905290205460ff1690565b9392505050565b60606106206122df565b610b877f6d696e746572000000000000000000000000000000000000000000000000000061082c6111db565b6107a68484808060200260200160405190810160405280939291908181526020018383602002808284375f92019190915250506040805160208088028281018201909352878252909350879250869182918501908490808284375f92019190915250610bf692506110c1915050565b91906122f1565b5f610620610c096115e4565b6002015473ffffffffffffffffffffffffffffffffffffffff1690565b8015610c3857610c38826106606111a4565b610683610c436111db565b8383610c4d6110c1565b929190612385565b5f610620610ad16111a4565b5f610c6a6111db565b9050610c7981876107876111a4565b6106fc818787878787610c8a6110c1565b95949392919061249c565b610ca061070f6111db565b848381141580610cb05750808214155b15610ce7576040517f6582533600000000000000000000000000000000000000000000000000000000815260040160405180910390fd5b5f5b818114610a1f57858582818110610d0257610d02613a7b565b9050602002016020810190610d1791906136d4565b73ffffffffffffffffffffffffffffffffffffffff166323b872dd308a8a85818110610d4557610d45613a7b565b9050602002016020810190610d5a91906136d4565b878786818110610d6c57610d6c613a7b565b6040517fffffffff0000000000000000000000000000000000000000000000000000000060e088901b16815273ffffffffffffffffffffffffffffffffffffffff9586166004820152949093166024850152506020909102013560448201526064015f604051808303815f87803b158015610de5575f80fd5b505af1158015610df7573d5f803e3d5ffd5b50505050806001019050610ce9565b6060610e148261091c6110c1565b506106103083610e226115e4565b9190612511565b5f610e326111db565b9050610e408161071761145b565b6107fb838383610e4e611b72565b9291906125cd565b5f610b4a8383610e646110c1565b919073ffffffffffffffffffffffffffffffffffffffff9182165f908152600393909301602090815260408085209290931684525290205460ff1690565b61076c610ead6111db565b82610eb661145b565b9190612695565b5f610ec66111db565b9050610ed581866107876111a4565b610eef8186868686610ee56110c1565b94939291906127a8565b5050505050565b610f0161070f6111db565b82818114610f3b576040517f6582533600000000000000000000000000000000000000000000000000000000815260040160405180910390fd5b5f5b8181146106fc57610fa3848483818110610f5957610f59613a7b565b90506020020135878784818110610f7257610f72613a7b565b9050602002016020810190610f8791906136d4565b73ffffffffffffffffffffffffffffffffffffffff1690612aa5565b600101610f3d565b5f8061061060017fca9d3e17f264b0f3984e2634e94adb37fa3e6a8103f06aeae6fa59e21c769f5e613ad5565b5f7c01000000000000000000000000000000000000000000000000000000007fffffffff0000000000000000000000000000000000000000000000000000000083160161102657505f610610565b7ffe003659000000000000000000000000000000000000000000000000000000007fffffffff0000000000000000000000000000000000000000000000000000000083160161107757506001610610565b507fffffffff00000000000000000000000000000000000000000000000000000000165f908152602091909152604090205460ff1690565b60606106206110bc6115e4565b612bfb565b5f8061061060017fddf3ee18ae6d688373c219468f8be446e7ae82215f4779d821c7ea5e8c13c0c1613ad5565b5f8181526020839052604081205473ffffffffffffffffffffffffffffffffffffffff8116611151576040517fdd560475000000000000000000000000000000000000000000000000000000008152600481018490526024015b60405180910390fd5b7401000000000000000000000000000000000000000081161561119b5750505f81815260028301602052604090205473ffffffffffffffffffffffffffffffffffffffff16610610565b5f915050610610565b5f8061061060017f609b85bcafa81ecfaf3ff62cdde2c6c9082a68dbe4922f07399c706bdeb7cd31613ad5565b6106838282612c8e565b5f610620612db2565b5f8181526020859052604090205473ffffffffffffffffffffffffffffffffffffffff8116611242576040517fdd56047500000000000000000000000000000000000000000000000000000000815260048101839052602401611148565b8073ffffffffffffffffffffffffffffffffffffffff808216908516036112ad576040517fb7fdc01000000000000000000000000000000000000000000000000000000000815273ffffffffffffffffffffffffffffffffffffffff82166004820152602401611148565b6112b8868287612ef6565b611315576040517fc7563a1800000000000000000000000000000000000000000000000000000000815273ffffffffffffffffffffffffffffffffffffffff80871660048301528216602482015260448101849052606401611148565b73ffffffffffffffffffffffffffffffffffffffff84166113795774010000000000000000000000000000000000000000821615611374575f83815260208790526040902073ffffffffffffffffffffffffffffffffffffffff821690555b6113f8565b7401000000000000000000000000000000000000000082178083146113a9575f8481526020889052604090208190555b505f838152600287016020526040902080547fffffffffffffffffffffffff00000000000000000000000000000000000000001673ffffffffffffffffffffffffffffffffffffffff86161790555b828473ffffffffffffffffffffffffffffffffffffffff168273ffffffffffffffffffffffffffffffffffffffff167f8c5be1e5ebec7d5bd14f71427d1e84f3dd0314c0f7b2291e5b200ac8c7c3b92560405160405180910390a4505050505050565b5f8061061060017fc9ed16f33ab3a66c84bfd83099ccb2a8845871e2e1c1928f63797152f0fd54cd613ad5565b6114bd6114b660017f5b388d90dc1312ba799f321972f13311234fa1163bcabec7cf66101c4876eb84613ad5565b6001612f69565b6106838282612fb5565b6114fc7f80ac58cd0000000000000000000000000000000000000000000000000000000060016114f5610fab565b919061306a565b565b6114fc7ff3993d110000000000000000000000000000000000000000000000000000000060016114f5610fab565b6114fc7f5b5e139f0000000000000000000000000000000000000000000000000000000060016114f5610fab565b6114fc7f8e773e130000000000000000000000000000000000000000000000000000000060016114f5610fab565b6114fc7f9da5e8320000000000000000000000000000000000000000000000000000000060016114f5610fab565b6114fc7f2a55205a0000000000000000000000000000000000000000000000000000000060016114f5610fab565b5f8061061060017f7ea68fd2dcf1c056b94db6a0a537aa80d26fa9ab1eacd85da1ba0b61b7e7a8a5613ad5565b61163f6114b660017f92f72593ca50a0096f68ee94e7000db40ed086164b695855e2250750b8bfaf59613ad5565b8561164b858783613bab565b506001860161165b838583613bab565b5060029590950180547fffffffffffffffffffffffff00000000000000000000000000000000000000001673ffffffffffffffffffffffffffffffffffffffff9096169590951790945550505050565b6116d96114b660017f2f02d396cb1be29636682c8684200b30a98554d3b74293aa4495cb5e1d252f6e613ad5565b81547fffffffffffffffffffffffff00000000000000000000000000000000000000001673ffffffffffffffffffffffffffffffffffffffff91909116179055565b815473ffffffffffffffffffffffffffffffffffffffff828116911614610683576040517f2ef4875e00000000000000000000000000000000000000000000000000000000815273ffffffffffffffffffffffffffffffffffffffff82166004820152602401611148565b8073ffffffffffffffffffffffffffffffffffffffff168273ffffffffffffffffffffffffffffffffffffffff16146107fb576107fb8383612c8e565b73ffffffffffffffffffffffffffffffffffffffff8216611810576040517f86c8706700000000000000000000000000000000000000000000000000000000815260040160405180910390fd5b5f8181526020869052604090205473ffffffffffffffffffffffffffffffffffffffff811661186e576040517fdd56047500000000000000000000000000000000000000000000000000000000815260048101839052602401611148565b73ffffffffffffffffffffffffffffffffffffffff84168173ffffffffffffffffffffffffffffffffffffffff16146118f2576040517f14dbb53600000000000000000000000000000000000000000000000000000000815273ffffffffffffffffffffffffffffffffffffffff8516600482015260248101839052604401611148565b6118fd868587612ef6565b6119ab57740100000000000000000000000000000000000000008116158061194d57505f82815260028701602052604090205473ffffffffffffffffffffffffffffffffffffffff868116911614155b156119ab576040517fa4a3018b00000000000000000000000000000000000000000000000000000000815273ffffffffffffffffffffffffffffffffffffffff80871660048301528516602482015260448101839052606401611148565b5f82815260208790526040902073ffffffffffffffffffffffffffffffffffffffff80851691829055851614611a3a5773ffffffffffffffffffffffffffffffffffffffff8085165f9081526001808901602052604080832080547fffffffffffffffffffffffffffffffffffffffffffffffffffffffffffffffff0190559286168252919020805490910190555b818373ffffffffffffffffffffffffffffffffffffffff168573ffffffffffffffffffffffffffffffffffffffff167fddf252ad1be2c89b69c2b068fc378daa952ba7f163c4a11628f55a4df523b3ef60405160405180910390a4505050505050565b5f8061061060017f2c0cf10337caabbd02dcf226f05f5fd19a0919a41a8df8958c39b80007826858613ad5565b825473ffffffffffffffffffffffffffffffffffffffff8116905f907401000000000000000000000000000000000000000090046bffffffffffffffffffffffff16831580611b17575080155b15611b24575f9150611b69565b620186a0841015611b4e57620186a0611b3d8286613cc2565b611b479190613cd9565b9150611b69565b80611b5c620186a086613cd9565b611b669190613cc2565b91505b50935093915050565b5f8061061060017fc8827d3282af6f37b64c3e9e6f3ac9df286ab0bb0fccd6f8661bf19adb368b23613ad5565b5f8381526020858152604080832073ffffffffffffffffffffffffffffffffffffffff8616845290915290205460ff166107a6575f8381526020858152604080832073ffffffffffffffffffffffffffffffffffffffff8681168086529184529382902080547fffffffffffffffffffffffffffffffffffffffffffffffffffffffffffffff00166001179055815187815292830152918316918101919091527f2f8788117e7eff1d82e926ec794901d17c78024a50270940304540a733656f0d906060015b60405180910390a150505050565b5f8281526020848152604080832073ffffffffffffffffffffffffffffffffffffffff8516845290915290205460ff166107fb576040517f7aa728820000000000000000000000000000000000000000000000000000000081526004810183905273ffffffffffffffffffffffffffffffffffffffff82166024820152604401611148565b73ffffffffffffffffffffffffffffffffffffffff8216611d45576040517f7851b9cd00000000000000000000000000000000000000000000000000000000815260040160405180910390fd5b5f8181526020849052604090205473ffffffffffffffffffffffffffffffffffffffff1615611da3576040517f753eceac00000000000000000000000000000000000000000000000000000000815260048101829052602401611148565b5f8181526020848152604080832073ffffffffffffffffffffffffffffffffffffffff86169081905580845260018088019093528184208054909301909255518392907fddf252ad1be2c89b69c2b068fc378daa952ba7f163c4a11628f55a4df523b3ef908290a4505050565b611e1d85858585856117c3565b73ffffffffffffffffffffffffffffffffffffffff82163b15610eef57610eef8484848460405180602001604052805f815250613145565b73ffffffffffffffffffffffffffffffffffffffff8216611ea2576040517f7851b9cd00000000000000000000000000000000000000000000000000000000815260040160405180910390fd5b80515f5b818114611f91575f838281518110611ec057611ec0613a7b565b60200260200101519050611efb865f015f8381526020019081526020015f205473ffffffffffffffffffffffffffffffffffffffff16151590565b15611f35576040517f753eceac00000000000000000000000000000000000000000000000000000000815260048101829052602401611148565b5f8181526020879052604080822073ffffffffffffffffffffffffffffffffffffffff88169081905590518392907fddf252ad1be2c89b69c2b068fc378daa952ba7f163c4a11628f55a4df523b3ef908290a450600101611ea6565b5073ffffffffffffffffffffffffffffffffffffffff9092165f908152600190930160205250604090912080549091019055565b620186a0811115612005576040517fac04040800000000000000000000000000000000000000000000000000000000815260048101829052602401611148565b81546bffffffffffffffffffffffff909116740100000000000000000000000000000000000000000273ffffffffffffffffffffffffffffffffffffffff909116179055565b5f8181526020839052604081205473ffffffffffffffffffffffffffffffffffffffff81166120a9576040517fdd56047500000000000000000000000000000000000000000000000000000000815260048101849052602401611148565b805b949350505050565b5f73ffffffffffffffffffffffffffffffffffffffff8216612101576040517faefbce4e00000000000000000000000000000000000000000000000000000000815260040160405180910390fd5b5073ffffffffffffffffffffffffffffffffffffffff165f908152600191909101602052604090205490565b6040805173ffffffffffffffffffffffffffffffffffffffff8416602482015260448082018490528251808303909101815260649091019091526020810180517bffffffffffffffffffffffffffffffffffffffffffffffffffffffff167fa9059cbb000000000000000000000000000000000000000000000000000000001790526107fb908490613257565b6121c5858484611cf8565b73ffffffffffffffffffffffffffffffffffffffff83163b15610eef57610eef845f858585613145565b6121fa838284611c73565b5f8181526020848152604080832073ffffffffffffffffffffffffffffffffffffffff86168085529083529281902080547fffffffffffffffffffffffffffffffffffffffffffffffffffffffffffffff0016905580518481529182018390528101919091527ff6391f5c32d9c69d2a47ea670b442974b53935d1edc7fd64eb21e047a839171b9060600160405180910390a1505050565b73ffffffffffffffffffffffffffffffffffffffff81166116d9576040517f16de0c8000000000000000000000000000000000000000000000000000000000815260040160405180910390fd5b60606106206122ec6115e4565b613364565b81518151811461232d576040517f6582533600000000000000000000000000000000000000000000000000000000815260040160405180910390fd5b5f5b818114610eef5761237d84828151811061234b5761234b613a7b565b602002602001015184838151811061236557612365613a7b565b602002602001015187611cf89092919063ffffffff16565b60010161232f565b8273ffffffffffffffffffffffffffffffffffffffff168273ffffffffffffffffffffffffffffffffffffffff1603612402576040517fe4215c6a00000000000000000000000000000000000000000000000000000000815273ffffffffffffffffffffffffffffffffffffffff84166004820152602401611148565b73ffffffffffffffffffffffffffffffffffffffff8381165f81815260038701602090815260408083209487168084529482529182902080547fffffffffffffffffffffffffffffffffffffffffffffffffffffffffffffff001686151590811790915591519182527f17307eab39ab6107e8899845ad3d59bd9653f200f220920489ca2b5937696c31910160405180910390a350505050565b6124a987878787876117c3565b73ffffffffffffffffffffffffffffffffffffffff84163b15612508576125088686868686868080601f0160208091040260200160405190810160405280939291908181526020018383808284375f9201919091525061314592505050565b50505050505050565b60028301546040517ff724dad700000000000000000000000000000000000000000000000000000000815273ffffffffffffffffffffffffffffffffffffffff848116600483015260248201849052606092169063f724dad7906044015f60405180830381865afa158015612588573d5f803e3d5ffd5b505050506040513d5f823e601f3d9081017fffffffffffffffffffffffffffffffffffffffffffffffffffffffffffffffe01682016040526120ab9190810190613d11565b5f8381526020858152604080832073ffffffffffffffffffffffffffffffffffffffff8616845290915290205460ff16156107a6575f8381526020858152604080832073ffffffffffffffffffffffffffffffffffffffff8681168086529184529382902080547fffffffffffffffffffffffffffffffffffffffffffffffffffffffffffffff00169055815187815292830152918316918101919091527ff6391f5c32d9c69d2a47ea670b442974b53935d1edc7fd64eb21e047a839171b90606001611c65565b825473ffffffffffffffffffffffffffffffffffffffff9081169083168114612702576040517f2ef4875e00000000000000000000000000000000000000000000000000000000815273ffffffffffffffffffffffffffffffffffffffff84166004820152602401611148565b8173ffffffffffffffffffffffffffffffffffffffff168173ffffffffffffffffffffffffffffffffffffffff16146107a65783547fffffffffffffffffffffffff00000000000000000000000000000000000000001673ffffffffffffffffffffffffffffffffffffffff8381169182178655604051908316907f8be0079c531659141344cd1fd0a4f28419497f9722a3daafe3b4186f6b6457e0905f90a350505050565b73ffffffffffffffffffffffffffffffffffffffff83166127f5576040517f86c8706700000000000000000000000000000000000000000000000000000000815260040160405180910390fd5b5f612801878688612ef6565b9050815f5b818114612a1f575f85858381811061282057612820613a7b565b602090810292909201355f818152928d90526040909220549192505073ffffffffffffffffffffffffffffffffffffffff811661288c576040517fdd56047500000000000000000000000000000000000000000000000000000000815260048101839052602401611148565b73ffffffffffffffffffffffffffffffffffffffff89168173ffffffffffffffffffffffffffffffffffffffff1614612910576040517f14dbb53600000000000000000000000000000000000000000000000000000000815273ffffffffffffffffffffffffffffffffffffffff8a16600482015260248101839052604401611148565b846129bf57740100000000000000000000000000000000000000008116158061296157505f82815260028c01602052604090205473ffffffffffffffffffffffffffffffffffffffff8b8116911614155b156129bf576040517fa4a3018b00000000000000000000000000000000000000000000000000000000815273ffffffffffffffffffffffffffffffffffffffff808c1660048301528a16602482015260448101839052606401611148565b5f82815260208c9052604080822073ffffffffffffffffffffffffffffffffffffffff808c16918290559151859391928d16917fddf252ad1be2c89b69c2b068fc378daa952ba7f163c4a11628f55a4df523b3ef91a45050600101612806565b508473ffffffffffffffffffffffffffffffffffffffff168673ffffffffffffffffffffffffffffffffffffffff1614158015612a5b57508015155b15610a1f5773ffffffffffffffffffffffffffffffffffffffff8087165f90815260018a016020526040808220805485900390559187168152208054820190555050505050505050565b80471015612b0f576040517f08c379a000000000000000000000000000000000000000000000000000000000815260206004820152601d60248201527f416464726573733a20696e73756666696369656e742062616c616e63650000006044820152606401611148565b5f8273ffffffffffffffffffffffffffffffffffffffff16826040515f6040518083038185875af1925050503d805f8114612b65576040519150601f19603f3d011682016040523d82523d5f602084013e612b6a565b606091505b50509050806107fb576040517f08c379a000000000000000000000000000000000000000000000000000000000815260206004820152603a60248201527f416464726573733a20756e61626c6520746f2073656e642076616c75652c207260448201527f6563697069656e74206d617920686176652072657665727465640000000000006064820152608401611148565b6060815f018054612c0b90613b15565b80601f0160208091040260200160405190810160405280929190818152602001828054612c3790613b15565b8015612c825780601f10612c5957610100808354040283529160200191612c82565b820191905f5260205f20905b815481529060010190602001808311612c6557829003601f168201915b50505050509050919050565b815473ffffffffffffffffffffffffffffffffffffffff168015801590612ccb57505f8173ffffffffffffffffffffffffffffffffffffffff163b115b156107fb576040517fc617113400000000000000000000000000000000000000000000000000000000815230600482015273ffffffffffffffffffffffffffffffffffffffff838116602483015282169063c617113490604401602060405180830381865afa158015612d40573d5f803e3d5ffd5b505050506040513d601f19601f82011682018060405250810190612d649190613dcc565b6107fb576040517fede71dcc00000000000000000000000000000000000000000000000000000000815273ffffffffffffffffffffffffffffffffffffffff83166004820152602401611148565b5f33321480612dc15750601836105b15612dcb57503390565b7fffffffffffffffffffffffffffffffffffffffffffffffffffffffffffffffec36013560601c7f000000000000000000000000000000000000000000000000000000000000000073ffffffffffffffffffffffffffffffffffffffff16331480612ee557506040517f8929a8ca00000000000000000000000000000000000000000000000000000000815273ffffffffffffffffffffffffffffffffffffffff82811660048301523360248301527f00000000000000000000000000000000000000000000000000000000000000001690638929a8ca90604401602060405180830381865afa158015612ec1573d5f803e3d5ffd5b505050506040513d601f19601f82011682018060405250810190612ee59190613dcc565b15612eef57919050565b3391505090565b5f8173ffffffffffffffffffffffffffffffffffffffff168373ffffffffffffffffffffffffffffffffffffffff1614806120ab57505073ffffffffffffffffffffffffffffffffffffffff9182165f908152600393909301602090815260408085209290931684525290205460ff1690565b81548290828110612fb0576040517fbf0c18ec0000000000000000000000000000000000000000000000000000000081526004810182905260248101849052604401611148565b505550565b73ffffffffffffffffffffffffffffffffffffffff81161561303c5781547fffffffffffffffffffffffff00000000000000000000000000000000000000001673ffffffffffffffffffffffffffffffffffffffff821690811783556040515f907f8be0079c531659141344cd1fd0a4f28419497f9722a3daafe3b4186f6b6457e0908290a35b6106837f7f5828d00000000000000000000000000000000000000000000000000000000060016114f5610fab565b7c01000000000000000000000000000000000000000000000000000000007fffffffff000000000000000000000000000000000000000000000000000000008316016130e2576040517f72c683bb00000000000000000000000000000000000000000000000000000000815260040160405180910390fd5b7fffffffff00000000000000000000000000000000000000000000000000000000919091165f908152602092909252604090912080547fffffffffffffffffffffffffffffffffffffffffffffffffffffffffffffff0016911515919091179055565b6040517f150b7a02000000000000000000000000000000000000000000000000000000008082529073ffffffffffffffffffffffffffffffffffffffff85169063150b7a029061319f908990899088908890600401613de7565b6020604051808303815f875af11580156131bb573d5f803e3d5ffd5b505050506040513d601f19601f820116820180604052508101906131df9190613e2f565b7fffffffff000000000000000000000000000000000000000000000000000000001614610eef576040517fc215a7a100000000000000000000000000000000000000000000000000000000815273ffffffffffffffffffffffffffffffffffffffff8416600482015260248101839052604401611148565b5f6132b8826040518060400160405280602081526020017f5361666545524332303a206c6f772d6c6576656c2063616c6c206661696c65648152508573ffffffffffffffffffffffffffffffffffffffff166133759092919063ffffffff16565b905080515f14806132d85750808060200190518101906132d89190613dcc565b6107fb576040517f08c379a000000000000000000000000000000000000000000000000000000000815260206004820152602a60248201527f5361666545524332303a204552433230206f7065726174696f6e20646964206e60448201527f6f742073756363656564000000000000000000000000000000000000000000006064820152608401611148565b6060816001018054612c0b90613b15565b60606120ab84845f85855f808673ffffffffffffffffffffffffffffffffffffffff1685876040516133a79190613e4a565b5f6040518083038185875af1925050503d805f81146133e1576040519150601f19603f3d011682016040523d82523d5f602084013e6133e6565b606091505b50915091506133f787838387613402565b979650505050505050565b606083156134975782515f036134905773ffffffffffffffffffffffffffffffffffffffff85163b613490576040517f08c379a000000000000000000000000000000000000000000000000000000000815260206004820152601d60248201527f416464726573733a2063616c6c20746f206e6f6e2d636f6e74726163740000006044820152606401611148565b50816120ab565b6120ab83838151156134ac5781518083602001fd5b806040517f08c379a00000000000000000000000000000000000000000000000000000000081526004016111489190613593565b7fffffffff000000000000000000000000000000000000000000000000000000008116811461076c575f80fd5b5f6020828403121561351d575f80fd5b8135610b4a816134e0565b5f5b8381101561354257818101518382015260200161352a565b50505f910152565b5f8151808452613561816020860160208601613528565b601f017fffffffffffffffffffffffffffffffffffffffffffffffffffffffffffffffe0169290920160200192915050565b602081525f610b4a602083018461354a565b5f602082840312156135b5575f80fd5b5035919050565b73ffffffffffffffffffffffffffffffffffffffff8116811461076c575f80fd5b5f80604083850312156135ee575f80fd5b82356135f9816135bc565b946020939093013593505050565b5f8083601f840112613617575f80fd5b50813567ffffffffffffffff81111561362e575f80fd5b6020830191508360208285010111156107c7575f80fd5b5f805f805f806080878903121561365a575f80fd5b863567ffffffffffffffff80821115613671575f80fd5b61367d8a838b01613607565b90985096506020890135915080821115613695575f80fd5b506136a289828a01613607565b90955093505060408701356136b6816135bc565b915060608701356136c6816135bc565b809150509295509295509295565b5f602082840312156136e4575f80fd5b8135610b4a816135bc565b5f805f60608486031215613701575f80fd5b833561370c816135bc565b9250602084013561371c816135bc565b929592945050506040919091013590565b5f806040838503121561373e575f80fd5b50508035926020909101359150565b5f806040838503121561375e575f80fd5b823591506020830135613770816135bc565b809150509250929050565b5f8083601f84011261378b575f80fd5b50813567ffffffffffffffff8111156137a2575f80fd5b6020830191508360208260051b85010111156107c7575f80fd5b5f805f604084860312156137ce575f80fd5b83356137d9816135bc565b9250602084013567ffffffffffffffff8111156137f4575f80fd5b6138008682870161377b565b9497909650939450505050565b5f805f805f8060608789031215613822575f80fd5b863567ffffffffffffffff80821115613839575f80fd5b6138458a838b0161377b565b9098509650602089013591508082111561385d575f80fd5b6138698a838b0161377b565b90965094506040890135915080821115613881575f80fd5b5061388e89828a0161377b565b979a9699509497509295939492505050565b5f805f80606085870312156138b3575f80fd5b84356138be816135bc565b935060208501359250604085013567ffffffffffffffff8111156138e0575f80fd5b6138ec87828801613607565b95989497509550505050565b5f805f806040858703121561390b575f80fd5b843567ffffffffffffffff80821115613922575f80fd5b61392e8883890161377b565b90965094506020870135915080821115613946575f80fd5b506138ec8782880161377b565b801515811461076c575f80fd5b5f8060408385031215613971575f80fd5b823561397c816135bc565b9150602083013561377081613953565b5f805f805f608086880312156139a0575f80fd5b85356139ab816135bc565b945060208601356139bb816135bc565b935060408601359250606086013567ffffffffffffffff8111156139dd575f80fd5b6139e988828901613607565b969995985093965092949392505050565b5f8060408385031215613a0b575f80fd5b8235613a16816135bc565b91506020830135613770816135bc565b5f805f8060608587031215613a39575f80fd5b8435613a44816135bc565b93506020850135613a54816135bc565b9250604085013567ffffffffffffffff811115613a6f575f80fd5b6138ec8782880161377b565b7f4e487b71000000000000000000000000000000000000000000000000000000005f52603260045260245ffd5b7f4e487b71000000000000000000000000000000000000000000000000000000005f52601160045260245ffd5b8181038181111561061057610610613aa8565b7f4e487b71000000000000000000000000000000000000000000000000000000005f52604160045260245ffd5b600181811c90821680613b2957607f821691505b602082108103613b60577f4e487b71000000000000000000000000000000000000000000000000000000005f52602260045260245ffd5b50919050565b601f8211156107fb575f81815260208120601f850160051c81016020861015613b8c5750805b601f850160051c820191505b818110156106fc57828155600101613b98565b67ffffffffffffffff831115613bc357613bc3613ae8565b613bd783613bd18354613b15565b83613b66565b5f601f841160018114613c27575f8515613bf15750838201355b7fffffffffffffffffffffffffffffffffffffffffffffffffffffffffffffffff600387901b1c1916600186901b178355610eef565b5f838152602090207fffffffffffffffffffffffffffffffffffffffffffffffffffffffffffffffe0861690835b82811015613c755786850135825560209485019460019092019101613c55565b5086821015613cb0577fffffffffffffffffffffffffffffffffffffffffffffffffffffffffffffffff60f88860031b161c19848701351681555b505060018560011b0183555050505050565b808202811582820484141761061057610610613aa8565b5f82613d0c577f4e487b71000000000000000000000000000000000000000000000000000000005f52601260045260245ffd5b500490565b5f60208284031215613d21575f80fd5b815167ffffffffffffffff80821115613d38575f80fd5b818401915084601f830112613d4b575f80fd5b815181811115613d5d57613d5d613ae8565b604051601f82017fffffffffffffffffffffffffffffffffffffffffffffffffffffffffffffffe0908116603f01168101908382118183101715613da357613da3613ae8565b81604052828152876020848701011115613dbb575f80fd5b6133f7836020830160208801613528565b5f60208284031215613ddc575f80fd5b8151610b4a81613953565b5f73ffffffffffffffffffffffffffffffffffffffff808716835280861660208401525083604083015260806060830152613e25608083018461354a565b9695505050505050565b5f60208284031215613e3f575f80fd5b8151610b4a816134e0565b5f8251613e5b818460208701613528565b919091019291505056fea26469706673582212204b762b9e4ddd36a08e27de1952d631783db686d220fbdfcd0e22c83dcbaafe9764736f6c63430008150033",
  "linkReferences": {},
  "deployedLinkReferences": {}
}