{
  "_format": "hh-sol-artifact-1",
  "contractName": "ERC721MintableOnceFacetMock",
  "sourceName": "contracts/mocks/token/ERC721/facets/ERC721MintableOnceFacetMock.sol",
  "abi": [
    {
      "inputs": [
        {
          "internalType": "contract IForwarderRegistry",
          "name": "forwarderRegistry",
          "type": "address"
        }
      ],
      "stateMutability": "nonpayable",
      "type": "constructor"
    },
    {
      "anonymous": false,
      "inputs": [
        {
          "indexed": true,
          "internalType": "address",
          "name": "owner",
          "type": "address"
        },
        {
          "indexed": true,
          "internalType": "address",
          "name": "approved",
          "type": "address"
        },
        {
          "indexed": true,
          "internalType": "uint256",
          "name": "tokenId",
          "type": "uint256"
        }
      ],
      "name": "Approval",
      "type": "event"
    },
    {
      "anonymous": false,
      "inputs": [
        {
          "indexed": true,
          "internalType": "address",
          "name": "owner",
          "type": "address"
        },
        {
          "indexed": true,
          "internalType": "address",
          "name": "operator",
          "type": "address"
        },
        {
          "indexed": false,
          "internalType": "bool",
          "name": "approved",
          "type": "bool"
        }
      ],
      "name": "ApprovalForAll",
      "type": "event"
    },
    {
      "anonymous": false,
      "inputs": [
        {
          "indexed": true,
          "internalType": "address",
          "name": "from",
          "type": "address"
        },
        {
          "indexed": true,
          "internalType": "address",
          "name": "to",
          "type": "address"
        },
        {
          "indexed": true,
          "internalType": "uint256",
          "name": "tokenId",
          "type": "uint256"
        }
      ],
      "name": "Transfer",
      "type": "event"
    },
    {
      "inputs": [],
      "name": "MINTER_ROLE",
      "outputs": [
        {
          "internalType": "bytes32",
          "name": "",
          "type": "bytes32"
        }
      ],
      "stateMutability": "view",
      "type": "function"
    },
    {
      "inputs": [],
      "name": "__msgData",
      "outputs": [
        {
          "internalType": "bytes",
          "name": "",
          "type": "bytes"
        }
      ],
      "stateMutability": "view",
      "type": "function"
    },
    {
      "inputs": [
        {
          "internalType": "address",
          "name": "to",
          "type": "address"
        },
        {
          "internalType": "uint256[]",
          "name": "tokenIds",
          "type": "uint256[]"
        }
      ],
      "name": "batchMint",
      "outputs": [],
      "stateMutability": "nonpayable",
      "type": "function"
    },
    {
      "inputs": [],
      "name": "initERC721MintableOnceStorage",
      "outputs": [],
      "stateMutability": "nonpayable",
      "type": "function"
    },
    {
      "inputs": [
        {
          "internalType": "address",
          "name": "to",
          "type": "address"
        },
        {
          "internalType": "uint256",
          "name": "tokenId",
          "type": "uint256"
        }
      ],
      "name": "mint",
      "outputs": [],
      "stateMutability": "nonpayable",
      "type": "function"
    },
    {
      "inputs": [
        {
          "internalType": "address",
          "name": "to",
          "type": "address"
        },
        {
          "internalType": "uint256",
          "name": "tokenId",
          "type": "uint256"
        },
        {
          "internalType": "bytes",
          "name": "data",
          "type": "bytes"
        }
      ],
      "name": "safeMint",
      "outputs": [],
      "stateMutability": "nonpayable",
      "type": "function"
    },
    {
      "inputs": [
        {
          "internalType": "uint256",
          "name": "tokenId",
          "type": "uint256"
        }
      ],
      "name": "wasBurnt",
      "outputs": [
        {
          "internalType": "bool",
          "name": "tokenWasBurnt",
          "type": "bool"
        }
      ],
      "stateMutability": "view",
      "type": "function"
    }
  ],
  "bytecode": "0x60a060405234801561000f575f80fd5b5060405161152e38038061152e83398101604081905261002e9161003f565b6001600160a01b031660805261006c565b5f6020828403121561004f575f80fd5b81516001600160a01b0381168114610065575f80fd5b9392505050565b6080516114956100995f395f81816109dc01528181610a1a01528181610b4e0152610bd601526114955ff3fe608060405234801561000f575f80fd5b506004361061007a575f3560e01c806383b0b7401161005857806383b0b740146100c55780638832e6e3146100cd578063c77c6955146100e0578063d539139314610103575f80fd5b806331e66e1e1461007e57806340c10f191461009d5780634684d7e9146100b2575b5f80fd5b610086610138565b604051610094929190611066565b60405180910390f35b6100b06100ab3660046110da565b61014a565b005b6100b06100c0366004611102565b61019d565b6100b0610215565b6100b06100db366004611181565b610238565b6100f36100ee366004611201565b6102bf565b6040519015158152602001610094565b61012a7f6d696e746572000000000000000000000000000000000000000000000000000081565b604051908152602001610094565b365f6101426102d8565b915091509091565b6101857f6d696e74657200000000000000000000000000000000000000000000000000006101766102e2565b61017e6102f0565b919061031d565b61019982826101926103d1565b91906103fe565b5050565b6101c97f6d696e74657200000000000000000000000000000000000000000000000000006101766102e2565b610210838383808060200260200160405190810160405280939291908181526020018383602002808284375f9201919091525061020992506103d1915050565b91906105fe565b505050565b61022e6102206102e2565b61022861084e565b9061087b565b6102366108fe565b565b6102647f6d696e74657200000000000000000000000000000000000000000000000000006101766102e2565b6102b961026f6102e2565b858585858080601f0160208091040260200160405190810160405280939291908181526020018383808284375f920191909152506102b092506103d1915050565b93929190610933565b50505050565b5f6102d2826102cc6103d1565b9061096f565b92915050565b365f6101426109a7565b5f6102eb610b0c565b905090565b5f806102d260017fc8827d3282af6f37b64c3e9e6f3ac9df286ab0bb0fccd6f8661bf19adb368b23611218565b5f8281526020848152604080832073ffffffffffffffffffffffffffffffffffffffff8516845290915290205460ff166102105761035a82610c50565b60405160200161036a9190611272565b604080517fffffffffffffffffffffffffffffffffffffffffffffffffffffffffffffffe0818403018152908290527f08c379a00000000000000000000000000000000000000000000000000000000082526103c891600401611326565b60405180910390fd5b5f806102d260017fddf3ee18ae6d688373c219468f8be446e7ae82215f4779d821c7ea5e8c13c0c1611218565b73ffffffffffffffffffffffffffffffffffffffff821661047b576040517f08c379a000000000000000000000000000000000000000000000000000000000815260206004820152601a60248201527f4552433732313a206d696e7420746f206164647265737328302900000000000060448201526064016103c8565b5f8181526020849052604090205473ffffffffffffffffffffffffffffffffffffffff811615610507576040517f08c379a000000000000000000000000000000000000000000000000000000000815260206004820152601660248201527f4552433732313a206578697374696e6720746f6b656e0000000000000000000060448201526064016103c8565b7fdead0000000000000000000000000000000000000000000000000000000000008103610590576040517f08c379a000000000000000000000000000000000000000000000000000000000815260206004820152601360248201527f4552433732313a206275726e7420746f6b656e0000000000000000000000000060448201526064016103c8565b5f8281526020858152604080832073ffffffffffffffffffffffffffffffffffffffff87169081905580845260018089019093528184208054909301909255518492907fddf252ad1be2c89b69c2b068fc378daa952ba7f163c4a11628f55a4df523b3ef908290a450505050565b73ffffffffffffffffffffffffffffffffffffffff821661067b576040517f08c379a000000000000000000000000000000000000000000000000000000000815260206004820152601a60248201527f4552433732313a206d696e7420746f206164647265737328302900000000000060448201526064016103c8565b80515f5b81811461081a575f83828151811061069957610699611338565b6020908102919091018101515f8181529188905260409091205490915073ffffffffffffffffffffffffffffffffffffffff811615610734576040517f08c379a000000000000000000000000000000000000000000000000000000000815260206004820152601660248201527f4552433732313a206578697374696e6720746f6b656e0000000000000000000060448201526064016103c8565b7fdead00000000000000000000000000000000000000000000000000000000000081036107bd576040517f08c379a000000000000000000000000000000000000000000000000000000000815260206004820152601360248201527f4552433732313a206275726e7420746f6b656e0000000000000000000000000060448201526064016103c8565b5f8281526020889052604080822073ffffffffffffffffffffffffffffffffffffffff89169081905590518492907fddf252ad1be2c89b69c2b068fc378daa952ba7f163c4a11628f55a4df523b3ef908290a4505060010161067f565b5073ffffffffffffffffffffffffffffffffffffffff9092165f908152600190930160205250604090912080549091019055565b5f806102d260017fb53127684a568b3173ae13b9f8a6016e243e63b6e8ee1178d6a717850b5d6104611218565b815473ffffffffffffffffffffffffffffffffffffffff828116911614610199576040517f08c379a000000000000000000000000000000000000000000000000000000000815260206004820152601960248201527f50726f787941646d696e3a206e6f74207468652061646d696e0000000000000060448201526064016103c8565b6102367f8e773e1300000000000000000000000000000000000000000000000000000000600161092c610ddb565b9190610e08565b61093e8584846103fe565b73ffffffffffffffffffffffffffffffffffffffff83163b1561096857610968845f858585610f13565b5050505050565b5f818152602083905260408120547fdead000000000000000000000000000000000000000000000000000000000000145b9392505050565b365f333214806109b75750601836105b156109c457505f91369150565b3373ffffffffffffffffffffffffffffffffffffffff7f0000000000000000000000000000000000000000000000000000000000000000161480610af7575073ffffffffffffffffffffffffffffffffffffffff7f000000000000000000000000000000000000000000000000000000000000000016638929a8ca367fffffffffffffffffffffffffffffffffffffffffffffffffffffffffffffffec013560601c6040517fffffffff0000000000000000000000000000000000000000000000000000000060e084901b16815273ffffffffffffffffffffffffffffffffffffffff9091166004820152336024820152604401602060405180830381865afa158015610ad3573d5f803e3d5ffd5b505050506040513d601f19601f82011682018060405250810190610af79190611365565b15610b0457610142611036565b505f91369150565b5f33321480610b1b5750601836105b15610b2557503390565b7fffffffffffffffffffffffffffffffffffffffffffffffffffffffffffffffec36013560601c7f000000000000000000000000000000000000000000000000000000000000000073ffffffffffffffffffffffffffffffffffffffff16331480610c3f57506040517f8929a8ca00000000000000000000000000000000000000000000000000000000815273ffffffffffffffffffffffffffffffffffffffff82811660048301523360248301527f00000000000000000000000000000000000000000000000000000000000000001690638929a8ca90604401602060405180830381865afa158015610c1b573d5f803e3d5ffd5b505050506040513d601f19601f82011682018060405250810190610c3f9190611365565b15610c4957919050565b3391505090565b60605f829003610c6d57505060408051602081019091525f815290565b5f82604051602001610c8191815260200190565b604080517fffffffffffffffffffffffffffffffffffffffffffffffffffffffffffffffe08184030181529190529050601f5b818181518110610cc657610cc6611338565b01602001517fff00000000000000000000000000000000000000000000000000000000000000165f03610d1a577fffffffffffffffffffffffffffffffffffffffffffffffffffffffffffffffff01610cb4565b5f8160010167ffffffffffffffff811115610d3757610d37611384565b6040519080825280601f01601f191660200182016040528015610d61576020820181803683370190505b5090505f5b828111610dd257838181518110610d7f57610d7f611338565b602001015160f81c60f81b828281518110610d9c57610d9c611338565b60200101907effffffffffffffffffffffffffffffffffffffffffffffffffffffffffffff191690815f1a905350600101610d66565b50949350505050565b5f806102d260017fca9d3e17f264b0f3984e2634e94adb37fa3e6a8103f06aeae6fa59e21c769f5e611218565b7c01000000000000000000000000000000000000000000000000000000007fffffffff00000000000000000000000000000000000000000000000000000000831601610eb0576040517f08c379a000000000000000000000000000000000000000000000000000000000815260206004820152601f60248201527f496e74657266616365446574656374696f6e3a2077726f6e672076616c75650060448201526064016103c8565b7fffffffff00000000000000000000000000000000000000000000000000000000919091165f908152602092909252604090912080547fffffffffffffffffffffffffffffffffffffffffffffffffffffffffffffff0016911515919091179055565b6040517f150b7a02000000000000000000000000000000000000000000000000000000008082529073ffffffffffffffffffffffffffffffffffffffff85169063150b7a0290610f6d9089908990889088906004016113b1565b6020604051808303815f875af1158015610f89573d5f803e3d5ffd5b505050506040513d601f19601f82011682018060405250810190610fad91906113f9565b7fffffffff000000000000000000000000000000000000000000000000000000001614610968576040517f08c379a000000000000000000000000000000000000000000000000000000000815260206004820152601e60248201527f4552433732313a2073616665207472616e736665722072656a6563746564000060448201526064016103c8565b365f6101427fffffffffffffffffffffffffffffffffffffffffffffffffffffffffffffffec8301828481611438565b60208152816020820152818360408301375f818301604090810191909152601f9092017fffffffffffffffffffffffffffffffffffffffffffffffffffffffffffffffe0160101919050565b803573ffffffffffffffffffffffffffffffffffffffff811681146110d5575f80fd5b919050565b5f80604083850312156110eb575f80fd5b6110f4836110b2565b946020939093013593505050565b5f805f60408486031215611114575f80fd5b61111d846110b2565b9250602084013567ffffffffffffffff80821115611139575f80fd5b818601915086601f83011261114c575f80fd5b81358181111561115a575f80fd5b8760208260051b850101111561116e575f80fd5b6020830194508093505050509250925092565b5f805f8060608587031215611194575f80fd5b61119d856110b2565b935060208501359250604085013567ffffffffffffffff808211156111c0575f80fd5b818701915087601f8301126111d3575f80fd5b8135818111156111e1575f80fd5b8860208285010111156111f2575f80fd5b95989497505060200194505050565b5f60208284031215611211575f80fd5b5035919050565b818103818111156102d2577f4e487b71000000000000000000000000000000000000000000000000000000005f52601160045260245ffd5b5f5b8381101561126a578181015183820152602001611252565b50505f910152565b7f416363657373436f6e74726f6c3a206d697373696e672027000000000000000081525f82516112a9816018850160208701611250565b7f2720726f6c6500000000000000000000000000000000000000000000000000006018939091019283015250601e01919050565b5f81518084526112f4816020860160208601611250565b601f017fffffffffffffffffffffffffffffffffffffffffffffffffffffffffffffffe0169290920160200192915050565b602081525f6109a060208301846112dd565b7f4e487b71000000000000000000000000000000000000000000000000000000005f52603260045260245ffd5b5f60208284031215611375575f80fd5b815180151581146109a0575f80fd5b7f4e487b71000000000000000000000000000000000000000000000000000000005f52604160045260245ffd5b5f73ffffffffffffffffffffffffffffffffffffffff8087168352808616602084015250836040830152608060608301526113ef60808301846112dd565b9695505050505050565b5f60208284031215611409575f80fd5b81517fffffffff00000000000000000000000000000000000000000000000000000000811681146109a0575f80fd5b5f8085851115611446575f80fd5b83861115611452575f80fd5b505082019391909203915056fea264697066735822122098e8979f636f2c0536286b40fc7e67d95a68b3fb37e9dc6309267d7dbc29856664736f6c63430008150033",
  "linkReferences": {},
  "deployedLinkReferences": {}
}