{
  "_format": "hh-sol-artifact-1",
  "contractName": "ERC20FacetMock",
  "sourceName": "contracts/mocks/token/ERC20/facets/ERC20FacetMock.sol",
  "abi": [
    {
      "inputs": [
        {
          "internalType": "contract IForwarderRegistry",
          "name": "forwarderRegistry",
          "type": "address"
        }
      ],
      "stateMutability": "nonpayable",
      "type": "constructor"
    },
    {
      "inputs": [
        {
          "internalType": "address",
          "name": "owner",
          "type": "address"
        },
        {
          "internalType": "address",
          "name": "spender",
          "type": "address"
        },
        {
          "internalType": "uint256",
          "name": "allowance",
          "type": "uint256"
        },
        {
          "internalType": "uint256",
          "name": "increment",
          "type": "uint256"
        }
      ],
      "name": "ERC20AllowanceOverflow",
      "type": "error"
    },
    {
      "inputs": [
        {
          "internalType": "address",
          "name": "owner",
          "type": "address"
        }
      ],
      "name": "ERC20ApprovalToAddressZero",
      "type": "error"
    },
    {
      "inputs": [],
      "name": "ERC20BatchMintValuesOverflow",
      "type": "error"
    },
    {
      "inputs": [
        {
          "internalType": "address",
          "name": "owner",
          "type": "address"
        },
        {
          "internalType": "address",
          "name": "spender",
          "type": "address"
        },
        {
          "internalType": "uint256",
          "name": "allowance",
          "type": "uint256"
        },
        {
          "internalType": "uint256",
          "name": "decrement",
          "type": "uint256"
        }
      ],
      "name": "ERC20InsufficientAllowance",
      "type": "error"
    },
    {
      "inputs": [
        {
          "internalType": "address",
          "name": "owner",
          "type": "address"
        },
        {
          "internalType": "uint256",
          "name": "balance",
          "type": "uint256"
        },
        {
          "internalType": "uint256",
          "name": "value",
          "type": "uint256"
        }
      ],
      "name": "ERC20InsufficientBalance",
      "type": "error"
    },
    {
      "inputs": [],
      "name": "ERC20MintToAddressZero",
      "type": "error"
    },
    {
      "inputs": [
        {
          "internalType": "uint256",
          "name": "supply",
          "type": "uint256"
        },
        {
          "internalType": "uint256",
          "name": "value",
          "type": "uint256"
        }
      ],
      "name": "ERC20TotalSupplyOverflow",
      "type": "error"
    },
    {
      "inputs": [
        {
          "internalType": "address",
          "name": "owner",
          "type": "address"
        }
      ],
      "name": "ERC20TransferToAddressZero",
      "type": "error"
    },
    {
      "inputs": [],
      "name": "IllegalInterfaceId",
      "type": "error"
    },
    {
      "inputs": [],
      "name": "InconsistentArrayLengths",
      "type": "error"
    },
    {
      "inputs": [
        {
          "internalType": "uint256",
          "name": "currentPhase",
          "type": "uint256"
        },
        {
          "internalType": "uint256",
          "name": "newPhase",
          "type": "uint256"
        }
      ],
      "name": "InitializationPhaseAlreadyReached",
      "type": "error"
    },
    {
      "inputs": [
        {
          "internalType": "address",
          "name": "account",
          "type": "address"
        }
      ],
      "name": "NotProxyAdmin",
      "type": "error"
    },
    {
      "anonymous": false,
      "inputs": [
        {
          "indexed": true,
          "internalType": "address",
          "name": "owner",
          "type": "address"
        },
        {
          "indexed": true,
          "internalType": "address",
          "name": "spender",
          "type": "address"
        },
        {
          "indexed": false,
          "internalType": "uint256",
          "name": "value",
          "type": "uint256"
        }
      ],
      "name": "Approval",
      "type": "event"
    },
    {
      "anonymous": false,
      "inputs": [
        {
          "indexed": true,
          "internalType": "address",
          "name": "from",
          "type": "address"
        },
        {
          "indexed": true,
          "internalType": "address",
          "name": "to",
          "type": "address"
        },
        {
          "indexed": false,
          "internalType": "uint256",
          "name": "value",
          "type": "uint256"
        }
      ],
      "name": "Transfer",
      "type": "event"
    },
    {
      "inputs": [],
      "name": "__msgData",
      "outputs": [
        {
          "internalType": "bytes",
          "name": "",
          "type": "bytes"
        }
      ],
      "stateMutability": "view",
      "type": "function"
    },
    {
      "inputs": [
        {
          "internalType": "address",
          "name": "owner",
          "type": "address"
        },
        {
          "internalType": "address",
          "name": "spender",
          "type": "address"
        }
      ],
      "name": "allowance",
      "outputs": [
        {
          "internalType": "uint256",
          "name": "value",
          "type": "uint256"
        }
      ],
      "stateMutability": "view",
      "type": "function"
    },
    {
      "inputs": [
        {
          "internalType": "address",
          "name": "spender",
          "type": "address"
        },
        {
          "internalType": "uint256",
          "name": "value",
          "type": "uint256"
        }
      ],
      "name": "approve",
      "outputs": [
        {
          "internalType": "bool",
          "name": "result",
          "type": "bool"
        }
      ],
      "stateMutability": "nonpayable",
      "type": "function"
    },
    {
      "inputs": [
        {
          "internalType": "address",
          "name": "owner",
          "type": "address"
        }
      ],
      "name": "balanceOf",
      "outputs": [
        {
          "internalType": "uint256",
          "name": "balance",
          "type": "uint256"
        }
      ],
      "stateMutability": "view",
      "type": "function"
    },
    {
      "inputs": [
        {
          "internalType": "address",
          "name": "spender",
          "type": "address"
        },
        {
          "internalType": "uint256",
          "name": "subtractedValue",
          "type": "uint256"
        }
      ],
      "name": "decreaseAllowance",
      "outputs": [
        {
          "internalType": "bool",
          "name": "result",
          "type": "bool"
        }
      ],
      "stateMutability": "nonpayable",
      "type": "function"
    },
    {
      "inputs": [
        {
          "internalType": "address",
          "name": "spender",
          "type": "address"
        },
        {
          "internalType": "uint256",
          "name": "addedValue",
          "type": "uint256"
        }
      ],
      "name": "increaseAllowance",
      "outputs": [
        {
          "internalType": "bool",
          "name": "result",
          "type": "bool"
        }
      ],
      "stateMutability": "nonpayable",
      "type": "function"
    },
    {
      "inputs": [],
      "name": "initERC20Storage",
      "outputs": [],
      "stateMutability": "nonpayable",
      "type": "function"
    },
    {
      "inputs": [
        {
          "internalType": "address[]",
          "name": "initialHolders",
          "type": "address[]"
        },
        {
          "internalType": "uint256[]",
          "name": "initialAllocations",
          "type": "uint256[]"
        }
      ],
      "name": "initERC20StorageWithAllocations",
      "outputs": [],
      "stateMutability": "nonpayable",
      "type": "function"
    },
    {
      "inputs": [],
      "name": "totalSupply",
      "outputs": [
        {
          "internalType": "uint256",
          "name": "supply",
          "type": "uint256"
        }
      ],
      "stateMutability": "view",
      "type": "function"
    },
    {
      "inputs": [
        {
          "internalType": "address",
          "name": "to",
          "type": "address"
        },
        {
          "internalType": "uint256",
          "name": "value",
          "type": "uint256"
        }
      ],
      "name": "transfer",
      "outputs": [
        {
          "internalType": "bool",
          "name": "result",
          "type": "bool"
        }
      ],
      "stateMutability": "nonpayable",
      "type": "function"
    },
    {
      "inputs": [
        {
          "internalType": "address",
          "name": "from",
          "type": "address"
        },
        {
          "internalType": "address",
          "name": "to",
          "type": "address"
        },
        {
          "internalType": "uint256",
          "name": "value",
          "type": "uint256"
        }
      ],
      "name": "transferFrom",
      "outputs": [
        {
          "internalType": "bool",
          "name": "result",
          "type": "bool"
        }
      ],
      "stateMutability": "nonpayable",
      "type": "function"
    }
  ],
  "bytecode": "0x60a0604052348015600f57600080fd5b506040516114f43803806114f4833981016040819052602c91603c565b6001600160a01b0316608052606a565b600060208284031215604d57600080fd5b81516001600160a01b0381168114606357600080fd5b9392505050565b60805161145a61009a60003960008181610b6b01528181610bf901528181610cac0152610cea015261145a6000f3fe608060405234801561001057600080fd5b50600436106100c95760003560e01c806370a0823111610081578063c8342b1d1161005b578063c8342b1d14610181578063dd62ed3e14610196578063fb33f608146101a957600080fd5b806370a0823114610148578063a457c2d71461015b578063a9059cbb1461016e57600080fd5b806323b872dd116100b257806323b872dd1461010c57806331e66e1e1461011f578063395093511461013557600080fd5b8063095ea7b3146100ce57806318160ddd146100f6575b600080fd5b6100e16100dc3660046111b6565b6101b1565b60405190151581526020015b60405180910390f35b6100fe6101da565b6040519081526020016100ed565b6100e161011a3660046111e0565b6101f3565b61012761021e565b6040516100ed92919061121c565b6100e16101433660046111b6565b610231565b6100fe610156366004611269565b610250565b6100e16101693660046111b6565b610288565b6100e161017c3660046111b6565b6102a7565b61019461018f3660046112d0565b6102c6565b005b6100fe6101a436600461133c565b610352565b6101946103a4565b60006101d06101be6103b9565b84846101c86103c3565b9291906103f1565b5060015b92915050565b60006101ee6101e76103c3565b6002015490565b905090565b60006102146102006103b9565b85858561020b6103c3565b939291906104cd565b5060019392505050565b36600061022961051f565b915091509091565b60006101d061023e6103b9565b84846102486103c3565b92919061052a565b60006101d48261025e6103c3565b9073ffffffffffffffffffffffffffffffffffffffff166000908152602091909152604090205490565b60006101d06102956103b9565b848461029f6103c3565b9291906106dc565b60006101d06102b46103b9565b84846102be6103c3565b929190610814565b6102df6102d16103b9565b6102d96109d3565b90610a01565b61034c84848080602002602001604051908101604052809392919081815260200183836020028082843760009201919091525050604080516020808802828101820190935287825290935087925086918291850190849080828437600092019190915250610a7092505050565b50505050565b600061039d83836103616103c3565b919073ffffffffffffffffffffffffffffffffffffffff9182166000908152600193909301602090815260408085209290931684525290205490565b9392505050565b6103af6102d16103b9565b6103b7610ac1565b565b60006101ee610b28565b6000806101d460017f1da92899d3da68bf9787824388a37ea2bfa79780bcef91b9716c390eec8ecbef61136f565b73ffffffffffffffffffffffffffffffffffffffff821661045b576040517ff7e1ac0f00000000000000000000000000000000000000000000000000000000815273ffffffffffffffffffffffffffffffffffffffff841660048201526024015b60405180910390fd5b73ffffffffffffffffffffffffffffffffffffffff838116600081815260018701602090815260408083209487168084529482529182902085905590518481527f8c5be1e5ebec7d5bd14f71427d1e84f3dd0314c0f7b2291e5b200ac8c7c3b92591015b60405180910390a350505050565b8373ffffffffffffffffffffffffffffffffffffffff168373ffffffffffffffffffffffffffffffffffffffff161461050c5761050c858486846106dc565b61051885848484610814565b5050505050565b366000610229610c75565b73ffffffffffffffffffffffffffffffffffffffff821661058f576040517ff7e1ac0f00000000000000000000000000000000000000000000000000000000815273ffffffffffffffffffffffffffffffffffffffff84166004820152602401610452565b73ffffffffffffffffffffffffffffffffffffffff8084166000908152600186016020908152604080832093861683529290522054811561066e57808201818111610634576040517f93bc2ff100000000000000000000000000000000000000000000000000000000815273ffffffffffffffffffffffffffffffffffffffff8087166004830152851660248201526044810183905260648101849052608401610452565b73ffffffffffffffffffffffffffffffffffffffff8086166000908152600188016020908152604080832093881683529290522081905590505b8273ffffffffffffffffffffffffffffffffffffffff168473ffffffffffffffffffffffffffffffffffffffff167f8c5be1e5ebec7d5bd14f71427d1e84f3dd0314c0f7b2291e5b200ac8c7c3b925836040516106cd91815260200190565b60405180910390a35050505050565b73ffffffffffffffffffffffffffffffffffffffff8216610741576040517ff7e1ac0f00000000000000000000000000000000000000000000000000000000815273ffffffffffffffffffffffffffffffffffffffff84166004820152602401610452565b73ffffffffffffffffffffffffffffffffffffffff80841660009081526001860160209081526040808320938616835292905220547fffffffffffffffffffffffffffffffffffffffffffffffffffffffffffffffff81148015906107a557508115155b1561066e57818103818110610634576040517f137ad6ab00000000000000000000000000000000000000000000000000000000815273ffffffffffffffffffffffffffffffffffffffff8087166004830152851660248201526044810183905260648101849052608401610452565b73ffffffffffffffffffffffffffffffffffffffff8216610879576040517f754f425b00000000000000000000000000000000000000000000000000000000815273ffffffffffffffffffffffffffffffffffffffff84166004820152602401610452565b80156109745773ffffffffffffffffffffffffffffffffffffffff8316600090815260208590526040902054818103818110610907576040517fe450d38c00000000000000000000000000000000000000000000000000000000815273ffffffffffffffffffffffffffffffffffffffff861660048201526024810183905260448101849052606401610452565b8373ffffffffffffffffffffffffffffffffffffffff168573ffffffffffffffffffffffffffffffffffffffff16146109715773ffffffffffffffffffffffffffffffffffffffff8086166000908152602088905260408082208490559186168152208054840190555b50505b8173ffffffffffffffffffffffffffffffffffffffff168373ffffffffffffffffffffffffffffffffffffffff167fddf252ad1be2c89b69c2b068fc378daa952ba7f163c4a11628f55a4df523b3ef836040516104bf91815260200190565b6000806101d460017fb53127684a568b3173ae13b9f8a6016e243e63b6e8ee1178d6a717850b5d610461136f565b815473ffffffffffffffffffffffffffffffffffffffff828116911614610a6c576040517f673a31a100000000000000000000000000000000000000000000000000000000815273ffffffffffffffffffffffffffffffffffffffff82166004820152602401610452565b5050565b610aa5610a9e60017f53d309e32e4ca7be7e99298a42b755b0cd82d1ad9411e9a18f57394d1227499161136f565b6001610de5565b610aad610ac1565b610a6c8282610aba6103c3565b9190610e31565b6000610acb611052565b9050610af9817f36372b07000000000000000000000000000000000000000000000000000000006001611080565b610b25817f9d075186000000000000000000000000000000000000000000000000000000006001611080565b50565b600033321480610b385750601836105b15610b4257503390565b7fffffffffffffffffffffffffffffffffffffffffffffffffffffffffffffffec36013560601c7f000000000000000000000000000000000000000000000000000000000000000073ffffffffffffffffffffffffffffffffffffffff16331480610c6457506040517f019a202800000000000000000000000000000000000000000000000000000000815273ffffffffffffffffffffffffffffffffffffffff82811660048301523360248301523060448301527f0000000000000000000000000000000000000000000000000000000000000000169063019a202890606401602060405180830381865afa158015610c40573d6000803e3d6000fd5b505050506040513d601f19601f82011682018060405250810190610c6491906113a9565b15610c6e57919050565b3391505090565b36600033321480610c865750601836105b15610c945750600091369150565b3373ffffffffffffffffffffffffffffffffffffffff7f0000000000000000000000000000000000000000000000000000000000000000161480610dcf575073ffffffffffffffffffffffffffffffffffffffff7f00000000000000000000000000000000000000000000000000000000000000001663019a2028367fffffffffffffffffffffffffffffffffffffffffffffffffffffffffffffffec013560601c6040517fffffffff0000000000000000000000000000000000000000000000000000000060e084901b16815273ffffffffffffffffffffffffffffffffffffffff9091166004820152336024820152306044820152606401602060405180830381865afa158015610dab573d6000803e3d6000fd5b505050506040513d601f19601f82011682018060405250810190610dcf91906113a9565b15610ddc5761022961115c565b50600091369150565b81548290828110610e2c576040517fbf0c18ec0000000000000000000000000000000000000000000000000000000081526004810182905260248101849052604401610452565b505550565b815181518114610e6d576040517f6582533600000000000000000000000000000000000000000000000000000000815260040160405180910390fd5b80600003610e7b5750505050565b6000805b82811015610ff3576000858281518110610e9b57610e9b6113cb565b60200260200101519050600073ffffffffffffffffffffffffffffffffffffffff168173ffffffffffffffffffffffffffffffffffffffff1603610f0b576040517f92fd9c8f00000000000000000000000000000000000000000000000000000000815260040160405180910390fd5b6000858381518110610f1f57610f1f6113cb565b6020026020010151905080600014610f9b57838101848111610f6d576040517f5542ae7c00000000000000000000000000000000000000000000000000000000815260040160405180910390fd5b73ffffffffffffffffffffffffffffffffffffffff8316600090815260208a90526040902080548301905593505b60405181815273ffffffffffffffffffffffffffffffffffffffff8316906000907fddf252ad1be2c89b69c2b068fc378daa952ba7f163c4a11628f55a4df523b3ef9060200160405180910390a35050600101610e7f565b508015610518576002850154818101818111611045576040517f0366a5f60000000000000000000000000000000000000000000000000000000081526004810183905260248101849052604401610452565b6002870155505050505050565b6000806101d460017fca9d3e17f264b0f3984e2634e94adb37fa3e6a8103f06aeae6fa59e21c769f5e61136f565b7c01000000000000000000000000000000000000000000000000000000007fffffffff000000000000000000000000000000000000000000000000000000008316016110f8576040517f72c683bb00000000000000000000000000000000000000000000000000000000815260040160405180910390fd5b7fffffffff00000000000000000000000000000000000000000000000000000000919091166000908152602092909252604090912080547fffffffffffffffffffffffffffffffffffffffffffffffffffffffffffffff0016911515919091179055565b3660006102297fffffffffffffffffffffffffffffffffffffffffffffffffffffffffffffffec83018284816113fa565b803573ffffffffffffffffffffffffffffffffffffffff811681146111b157600080fd5b919050565b600080604083850312156111c957600080fd5b6111d28361118d565b946020939093013593505050565b6000806000606084860312156111f557600080fd5b6111fe8461118d565b925061120c6020850161118d565b9150604084013590509250925092565b60208152816020820152818360408301376000818301604090810191909152601f9092017fffffffffffffffffffffffffffffffffffffffffffffffffffffffffffffffe0160101919050565b60006020828403121561127b57600080fd5b61039d8261118d565b60008083601f84011261129657600080fd5b50813567ffffffffffffffff8111156112ae57600080fd5b6020830191508360208260051b85010111156112c957600080fd5b9250929050565b600080600080604085870312156112e657600080fd5b843567ffffffffffffffff808211156112fe57600080fd5b61130a88838901611284565b9096509450602087013591508082111561132357600080fd5b5061133087828801611284565b95989497509550505050565b6000806040838503121561134f57600080fd5b6113588361118d565b91506113666020840161118d565b90509250929050565b818103818111156101d4577f4e487b7100000000000000000000000000000000000000000000000000000000600052601160045260246000fd5b6000602082840312156113bb57600080fd5b8151801515811461039d57600080fd5b7f4e487b7100000000000000000000000000000000000000000000000000000000600052603260045260246000fd5b6000808585111561140a57600080fd5b8386111561141757600080fd5b505082019391909203915056fea2646970667358221220f8307adf16baade829761996d6fc813aa9269624dc8b0910b68e49e957ffdd1b64736f6c63430008190033",
  "linkReferences": {},
  "deployedLinkReferences": {}
}