{
  "_format": "hh-sol-artifact-1",
  "contractName": "ERC20FacetMock",
  "sourceName": "contracts/mocks/token/ERC20/facets/ERC20FacetMock.sol",
  "abi": [
    {
      "inputs": [
        {
          "internalType": "contract IForwarderRegistry",
          "name": "forwarderRegistry",
          "type": "address"
        }
      ],
      "stateMutability": "nonpayable",
      "type": "constructor"
    },
    {
      "anonymous": false,
      "inputs": [
        {
          "indexed": true,
          "internalType": "address",
          "name": "owner",
          "type": "address"
        },
        {
          "indexed": true,
          "internalType": "address",
          "name": "spender",
          "type": "address"
        },
        {
          "indexed": false,
          "internalType": "uint256",
          "name": "value",
          "type": "uint256"
        }
      ],
      "name": "Approval",
      "type": "event"
    },
    {
      "anonymous": false,
      "inputs": [
        {
          "indexed": true,
          "internalType": "address",
          "name": "from",
          "type": "address"
        },
        {
          "indexed": true,
          "internalType": "address",
          "name": "to",
          "type": "address"
        },
        {
          "indexed": false,
          "internalType": "uint256",
          "name": "value",
          "type": "uint256"
        }
      ],
      "name": "Transfer",
      "type": "event"
    },
    {
      "inputs": [],
      "name": "__msgData",
      "outputs": [
        {
          "internalType": "bytes",
          "name": "",
          "type": "bytes"
        }
      ],
      "stateMutability": "view",
      "type": "function"
    },
    {
      "inputs": [
        {
          "internalType": "address",
          "name": "owner",
          "type": "address"
        },
        {
          "internalType": "address",
          "name": "spender",
          "type": "address"
        }
      ],
      "name": "allowance",
      "outputs": [
        {
          "internalType": "uint256",
          "name": "value",
          "type": "uint256"
        }
      ],
      "stateMutability": "view",
      "type": "function"
    },
    {
      "inputs": [
        {
          "internalType": "address",
          "name": "spender",
          "type": "address"
        },
        {
          "internalType": "uint256",
          "name": "value",
          "type": "uint256"
        }
      ],
      "name": "approve",
      "outputs": [
        {
          "internalType": "bool",
          "name": "result",
          "type": "bool"
        }
      ],
      "stateMutability": "nonpayable",
      "type": "function"
    },
    {
      "inputs": [
        {
          "internalType": "address",
          "name": "owner",
          "type": "address"
        }
      ],
      "name": "balanceOf",
      "outputs": [
        {
          "internalType": "uint256",
          "name": "balance",
          "type": "uint256"
        }
      ],
      "stateMutability": "view",
      "type": "function"
    },
    {
      "inputs": [
        {
          "internalType": "address",
          "name": "spender",
          "type": "address"
        },
        {
          "internalType": "uint256",
          "name": "subtractedValue",
          "type": "uint256"
        }
      ],
      "name": "decreaseAllowance",
      "outputs": [
        {
          "internalType": "bool",
          "name": "result",
          "type": "bool"
        }
      ],
      "stateMutability": "nonpayable",
      "type": "function"
    },
    {
      "inputs": [
        {
          "internalType": "address",
          "name": "spender",
          "type": "address"
        },
        {
          "internalType": "uint256",
          "name": "addedValue",
          "type": "uint256"
        }
      ],
      "name": "increaseAllowance",
      "outputs": [
        {
          "internalType": "bool",
          "name": "result",
          "type": "bool"
        }
      ],
      "stateMutability": "nonpayable",
      "type": "function"
    },
    {
      "inputs": [],
      "name": "initERC20Storage",
      "outputs": [],
      "stateMutability": "nonpayable",
      "type": "function"
    },
    {
      "inputs": [
        {
          "internalType": "address[]",
          "name": "initialHolders",
          "type": "address[]"
        },
        {
          "internalType": "uint256[]",
          "name": "initialAllocations",
          "type": "uint256[]"
        }
      ],
      "name": "initERC20StorageWithAllocations",
      "outputs": [],
      "stateMutability": "nonpayable",
      "type": "function"
    },
    {
      "inputs": [],
      "name": "totalSupply",
      "outputs": [
        {
          "internalType": "uint256",
          "name": "supply",
          "type": "uint256"
        }
      ],
      "stateMutability": "view",
      "type": "function"
    },
    {
      "inputs": [
        {
          "internalType": "address",
          "name": "to",
          "type": "address"
        },
        {
          "internalType": "uint256",
          "name": "value",
          "type": "uint256"
        }
      ],
      "name": "transfer",
      "outputs": [
        {
          "internalType": "bool",
          "name": "result",
          "type": "bool"
        }
      ],
      "stateMutability": "nonpayable",
      "type": "function"
    },
    {
      "inputs": [
        {
          "internalType": "address",
          "name": "from",
          "type": "address"
        },
        {
          "internalType": "address",
          "name": "to",
          "type": "address"
        },
        {
          "internalType": "uint256",
          "name": "value",
          "type": "uint256"
        }
      ],
      "name": "transferFrom",
      "outputs": [
        {
          "internalType": "bool",
          "name": "result",
          "type": "bool"
        }
      ],
      "stateMutability": "nonpayable",
      "type": "function"
    }
  ],
  "bytecode": "0x60a060405234801561000f575f80fd5b5060405161162738038061162783398101604081905261002e9161003f565b6001600160a01b031660805261006c565b5f6020828403121561004f575f80fd5b81516001600160a01b0381168114610065575f80fd5b9392505050565b60805161158e6100995f395f8181610bd201528181610c5a01528181610d090152610d47015261158e5ff3fe608060405234801561000f575f80fd5b50600436106100c4575f3560e01c806370a082311161007d578063c8342b1d11610058578063c8342b1d1461017b578063dd62ed3e14610190578063fb33f608146101a3575f80fd5b806370a0823114610142578063a457c2d714610155578063a9059cbb14610168575f80fd5b806323b872dd116100ad57806323b872dd1461010657806331e66e1e14610119578063395093511461012f575f80fd5b8063095ea7b3146100c857806318160ddd146100f0575b5f80fd5b6100db6100d6366004611307565b6101ab565b60405190151581526020015b60405180910390f35b6100f86101d3565b6040519081526020016100e7565b6100db61011436600461132f565b6101eb565b610121610215565b6040516100e7929190611368565b6100db61013d366004611307565b610227565b6100f86101503660046113b4565b610245565b6100db610163366004611307565b61027b565b6100db610176366004611307565b610299565b61018e610189366004611415565b6102b7565b005b6100f861019e36600461147c565b610341565b61018e610391565b5f6101c96101b76103a6565b84846101c16103af565b9291906103dc565b5060015b92915050565b5f6101e66101df6103af565b6002015490565b905090565b5f61020b6101f76103a6565b8585856102026103af565b939291906104cf565b5060019392505050565b365f61021f610521565b915091509091565b5f6101c96102336103a6565b848461023d6103af565b92919061052b565b5f6101cd826102526103af565b9073ffffffffffffffffffffffffffffffffffffffff165f908152602091909152604090205490565b5f6101c96102876103a6565b84846102916103af565b9291906106f5565b5f6101c96102a56103a6565b84846102af6103af565b929190610846565b6102d06102c26103a6565b6102ca610a25565b90610a52565b61033b8484808060200260200160405190810160405280939291908181526020018383602002808284375f92019190915250506040805160208088028281018201909352878252909350879250869182918501908490808284375f92019190915250610ad992505050565b50505050565b5f61038a838361034f6103af565b919073ffffffffffffffffffffffffffffffffffffffff9182165f908152600193909301602090815260408085209290931684525290205490565b9392505050565b61039c6102c26103a6565b6103a4610b2a565b565b5f6101e6610b90565b5f806101cd60017f1da92899d3da68bf9787824388a37ea2bfa79780bcef91b9716c390eec8ecbef6114ad565b73ffffffffffffffffffffffffffffffffffffffff821661045e576040517f08c379a000000000000000000000000000000000000000000000000000000000815260206004820152601d60248201527f45524332303a20617070726f76616c20746f206164647265737328302900000060448201526064015b60405180910390fd5b73ffffffffffffffffffffffffffffffffffffffff8381165f81815260018701602090815260408083209487168084529482529182902085905590518481527f8c5be1e5ebec7d5bd14f71427d1e84f3dd0314c0f7b2291e5b200ac8c7c3b92591015b60405180910390a350505050565b8373ffffffffffffffffffffffffffffffffffffffff168373ffffffffffffffffffffffffffffffffffffffff161461050e5761050e858486846106f5565b61051a85848484610846565b5050505050565b365f61021f610cd4565b73ffffffffffffffffffffffffffffffffffffffff82166105a8576040517f08c379a000000000000000000000000000000000000000000000000000000000815260206004820152601d60248201527f45524332303a20617070726f76616c20746f20616464726573732830290000006044820152606401610455565b73ffffffffffffffffffffffffffffffffffffffff8084165f90815260018601602090815260408083209386168352929052205481156106875780820181811161064e576040517f08c379a000000000000000000000000000000000000000000000000000000000815260206004820152601960248201527f45524332303a20616c6c6f77616e6365206f766572666c6f77000000000000006044820152606401610455565b73ffffffffffffffffffffffffffffffffffffffff8086165f908152600188016020908152604080832093881683529290522081905590505b8273ffffffffffffffffffffffffffffffffffffffff168473ffffffffffffffffffffffffffffffffffffffff167f8c5be1e5ebec7d5bd14f71427d1e84f3dd0314c0f7b2291e5b200ac8c7c3b925836040516106e691815260200190565b60405180910390a35050505050565b73ffffffffffffffffffffffffffffffffffffffff8216610772576040517f08c379a000000000000000000000000000000000000000000000000000000000815260206004820152601d60248201527f45524332303a20617070726f76616c20746f20616464726573732830290000006044820152606401610455565b73ffffffffffffffffffffffffffffffffffffffff8084165f9081526001860160209081526040808320938616835292905220547fffffffffffffffffffffffffffffffffffffffffffffffffffffffffffffffff81148015906107d557508115155b156106875781810381811061064e576040517f08c379a000000000000000000000000000000000000000000000000000000000815260206004820152601d60248201527f45524332303a20696e73756666696369656e7420616c6c6f77616e63650000006044820152606401610455565b73ffffffffffffffffffffffffffffffffffffffff82166108c3576040517f08c379a000000000000000000000000000000000000000000000000000000000815260206004820152601d60248201527f45524332303a207472616e7366657220746f20616464726573732830290000006044820152606401610455565b80156109c65773ffffffffffffffffffffffffffffffffffffffff83165f9081526020859052604090205481810381811061095a576040517f08c379a000000000000000000000000000000000000000000000000000000000815260206004820152601b60248201527f45524332303a20696e73756666696369656e742062616c616e636500000000006044820152606401610455565b8373ffffffffffffffffffffffffffffffffffffffff168573ffffffffffffffffffffffffffffffffffffffff16146109c35773ffffffffffffffffffffffffffffffffffffffff8086165f908152602088905260408082208490559186168152208054840190555b50505b8173ffffffffffffffffffffffffffffffffffffffff168373ffffffffffffffffffffffffffffffffffffffff167fddf252ad1be2c89b69c2b068fc378daa952ba7f163c4a11628f55a4df523b3ef836040516104c191815260200190565b5f806101cd60017fb53127684a568b3173ae13b9f8a6016e243e63b6e8ee1178d6a717850b5d61046114ad565b815473ffffffffffffffffffffffffffffffffffffffff828116911614610ad5576040517f08c379a000000000000000000000000000000000000000000000000000000000815260206004820152601960248201527f50726f787941646d696e3a206e6f74207468652061646d696e000000000000006044820152606401610455565b5050565b610b0e610b0760017f53d309e32e4ca7be7e99298a42b755b0cd82d1ad9411e9a18f57394d122749916114ad565b6001610e39565b610b16610b2a565b610ad58282610b236103af565b9190610ea9565b5f610b33611177565b9050610b61817f36372b070000000000000000000000000000000000000000000000000000000060016111a4565b610b8d817f9d0751860000000000000000000000000000000000000000000000000000000060016111a4565b50565b5f33321480610b9f5750601836105b15610ba957503390565b7fffffffffffffffffffffffffffffffffffffffffffffffffffffffffffffffec36013560601c7f000000000000000000000000000000000000000000000000000000000000000073ffffffffffffffffffffffffffffffffffffffff16331480610cc357506040517f8929a8ca00000000000000000000000000000000000000000000000000000000815273ffffffffffffffffffffffffffffffffffffffff82811660048301523360248301527f00000000000000000000000000000000000000000000000000000000000000001690638929a8ca90604401602060405180830381865afa158015610c9f573d5f803e3d5ffd5b505050506040513d601f19601f82011682018060405250810190610cc391906114e5565b15610ccd57919050565b3391505090565b365f33321480610ce45750601836105b15610cf157505f91369150565b3373ffffffffffffffffffffffffffffffffffffffff7f0000000000000000000000000000000000000000000000000000000000000000161480610e24575073ffffffffffffffffffffffffffffffffffffffff7f000000000000000000000000000000000000000000000000000000000000000016638929a8ca367fffffffffffffffffffffffffffffffffffffffffffffffffffffffffffffffec013560601c6040517fffffffff0000000000000000000000000000000000000000000000000000000060e084901b16815273ffffffffffffffffffffffffffffffffffffffff9091166004820152336024820152604401602060405180830381865afa158015610e00573d5f803e3d5ffd5b505050506040513d601f19601f82011682018060405250810190610e2491906114e5565b15610e315761021f6112af565b505f91369150565b815482908211610ea5576040517f08c379a000000000000000000000000000000000000000000000000000000000815260206004820152601660248201527f53746f726167653a2070686173652072656163686564000000000000000000006044820152606401610455565b5550565b815181518114610f15576040517f08c379a000000000000000000000000000000000000000000000000000000000815260206004820152601a60248201527f45524332303a20696e636f6e73697374656e74206172726179730000000000006044820152606401610455565b805f03610f225750505050565b5f805b8281146110f2575f858281518110610f3f57610f3f611504565b602002602001015190505f73ffffffffffffffffffffffffffffffffffffffff168173ffffffffffffffffffffffffffffffffffffffff1603610fde576040517f08c379a000000000000000000000000000000000000000000000000000000000815260206004820152601960248201527f45524332303a206d696e7420746f2061646472657373283029000000000000006044820152606401610455565b5f858381518110610ff157610ff1611504565b60200260200101519050805f1461109b5783810184811161106e576040517f08c379a000000000000000000000000000000000000000000000000000000000815260206004820152601660248201527f45524332303a2076616c756573206f766572666c6f77000000000000000000006044820152606401610455565b73ffffffffffffffffffffffffffffffffffffffff83165f90815260208a90526040902080548301905593505b60405181815273ffffffffffffffffffffffffffffffffffffffff8316905f907fddf252ad1be2c89b69c2b068fc378daa952ba7f163c4a11628f55a4df523b3ef9060200160405180910390a35050600101610f25565b50801561051a57600285015481810181811161116a576040517f08c379a000000000000000000000000000000000000000000000000000000000815260206004820152601660248201527f45524332303a20737570706c79206f766572666c6f77000000000000000000006044820152606401610455565b6002870155505050505050565b5f806101cd60017fca9d3e17f264b0f3984e2634e94adb37fa3e6a8103f06aeae6fa59e21c769f5e6114ad565b7c01000000000000000000000000000000000000000000000000000000007fffffffff0000000000000000000000000000000000000000000000000000000083160161124c576040517f08c379a000000000000000000000000000000000000000000000000000000000815260206004820152601f60248201527f496e74657266616365446574656374696f6e3a2077726f6e672076616c7565006044820152606401610455565b7fffffffff00000000000000000000000000000000000000000000000000000000919091165f908152602092909252604090912080547fffffffffffffffffffffffffffffffffffffffffffffffffffffffffffffff0016911515919091179055565b365f61021f7fffffffffffffffffffffffffffffffffffffffffffffffffffffffffffffffec8301828481611531565b803573ffffffffffffffffffffffffffffffffffffffff81168114611302575f80fd5b919050565b5f8060408385031215611318575f80fd5b611321836112df565b946020939093013593505050565b5f805f60608486031215611341575f80fd5b61134a846112df565b9250611358602085016112df565b9150604084013590509250925092565b60208152816020820152818360408301375f818301604090810191909152601f9092017fffffffffffffffffffffffffffffffffffffffffffffffffffffffffffffffe0160101919050565b5f602082840312156113c4575f80fd5b61038a826112df565b5f8083601f8401126113dd575f80fd5b50813567ffffffffffffffff8111156113f4575f80fd5b6020830191508360208260051b850101111561140e575f80fd5b9250929050565b5f805f8060408587031215611428575f80fd5b843567ffffffffffffffff8082111561143f575f80fd5b61144b888389016113cd565b90965094506020870135915080821115611463575f80fd5b50611470878288016113cd565b95989497509550505050565b5f806040838503121561148d575f80fd5b611496836112df565b91506114a4602084016112df565b90509250929050565b818103818111156101cd577f4e487b71000000000000000000000000000000000000000000000000000000005f52601160045260245ffd5b5f602082840312156114f5575f80fd5b8151801515811461038a575f80fd5b7f4e487b71000000000000000000000000000000000000000000000000000000005f52603260045260245ffd5b5f808585111561153f575f80fd5b8386111561154b575f80fd5b505082019391909203915056fea2646970667358221220a243e50846d4bfa17f215e3bb8bf6fb5351eb2e71a615ea2f104309ecc35059564736f6c63430008150033",
  "linkReferences": {},
  "deployedLinkReferences": {}
}