{
  "_format": "hh-sol-artifact-1",
  "contractName": "OwnableFacetMock",
  "sourceName": "contracts/mocks/access/OwnableFacetMock.sol",
  "abi": [
    {
      "inputs": [
        {
          "internalType": "contract IForwarderRegistry",
          "name": "forwarderRegistry",
          "type": "address"
        }
      ],
      "stateMutability": "nonpayable",
      "type": "constructor"
    },
    {
      "anonymous": false,
      "inputs": [
        {
          "indexed": true,
          "internalType": "address",
          "name": "previousOwner",
          "type": "address"
        },
        {
          "indexed": true,
          "internalType": "address",
          "name": "newOwner",
          "type": "address"
        }
      ],
      "name": "OwnershipTransferred",
      "type": "event"
    },
    {
      "inputs": [],
      "name": "__msgData",
      "outputs": [
        {
          "internalType": "bytes",
          "name": "",
          "type": "bytes"
        }
      ],
      "stateMutability": "view",
      "type": "function"
    },
    {
      "inputs": [
        {
          "internalType": "address",
          "name": "account",
          "type": "address"
        }
      ],
      "name": "enforceIsContractOwner",
      "outputs": [],
      "stateMutability": "view",
      "type": "function"
    },
    {
      "inputs": [
        {
          "internalType": "address",
          "name": "initialOwner",
          "type": "address"
        }
      ],
      "name": "initOwnershipStorage",
      "outputs": [],
      "stateMutability": "nonpayable",
      "type": "function"
    },
    {
      "inputs": [],
      "name": "owner",
      "outputs": [
        {
          "internalType": "address",
          "name": "",
          "type": "address"
        }
      ],
      "stateMutability": "view",
      "type": "function"
    },
    {
      "inputs": [
        {
          "internalType": "address",
          "name": "newOwner",
          "type": "address"
        }
      ],
      "name": "transferOwnership",
      "outputs": [],
      "stateMutability": "nonpayable",
      "type": "function"
    }
  ],
  "bytecode": "0x60a06040523480156200001157600080fd5b506040516200282338038062002823833981810160405281019062000037919062000201565b80806200006d7f6a83522c126b1f14401cda64886fc651a7060f385b5e2d289e620e1859fee4e760001b6200017a60201b60201c565b620000a17ff6fd3c5688ac3ada9425e55f9cce326a85fd64fca9b1584401f3d2203aee560b60001b6200017a60201b60201c565b620000d57fe7883c748f395270b53c914004a2b83ffb6acf3836fed33ec0a3c0eb061e618860001b6200017a60201b60201c565b8073ffffffffffffffffffffffffffffffffffffffff1660808173ffffffffffffffffffffffffffffffffffffffff1681525050506200013e7fbfdbf0a71bf2ff5ca853e7a48d5aca3c56a11e5b04e04e2422e2cfebab77a10960001b6200017d60201b60201c565b50620001737f6ec5d8f59f80d306b9eab316993aa4c76413aa8d231e7bcec9d679722ee802ba60001b6200018060201b60201c565b5062000233565b50565b50565b50565b600080fd5b600073ffffffffffffffffffffffffffffffffffffffff82169050919050565b6000620001b58262000188565b9050919050565b6000620001c982620001a8565b9050919050565b620001db81620001bc565b8114620001e757600080fd5b50565b600081519050620001fb81620001d0565b92915050565b6000602082840312156200021a576200021962000183565b5b60006200022a84828501620001ea565b91505092915050565b6080516125bf620002646000396000818161146d015281816114c201528181611920015261197501526125bf6000f3fe608060405234801561001057600080fd5b50600436106100675760003560e01c806397883ae21161005057806397883ae2146100a9578063a86e1614146100c5578063f2fde38b146100e157610067565b806331e66e1e1461006c5780638da5cb5b1461008b575b600080fd5b6100746100fd565b6040516100829291906121aa565b60405180910390f35b610093610194565b6040516100a0919061220f565b60405180910390f35b6100c360048036038101906100be919061225b565b61024b565b005b6100df60048036038101906100da919061225b565b6102ec565b005b6100fb60048036038101906100f6919061225b565b610406565b005b36600061012c7f9035bb75fbb23d1d9f5bdb4f4510a0ccd79f0e7fa16823aad3ad7bbc85ba83e360001b6104b0565b6101587fc51259e48d9cd405d8fd486018ffd3fa5bc97c6534318e6d375c9a96add591bc60001b6104b0565b6101847fc86be0d294f0ad2e0dc5f1f3bf3a2f429b22c6afe5912bd5f9fae192f9b148ce60001b6104b0565b61018c6104b3565b915091509091565b60006101c27f843413c3a80603a10b0aa10bd5f1f82cff0a1d8ec6b12e0fc267ea5481ebe15260001b610549565b6101ee7f599f920b3cf0c2c31e8b9ef15872f4edba7b3d935eac1ce98786a62fe4c50c8360001b610549565b61021a7f2048414aa8fb1906a4a6033772a4078e3d4a3cda2661b375c19db4083725225c60001b610549565b61022261054c565b60000160009054906101000a900473ffffffffffffffffffffffffffffffffffffffff16905090565b6102777f6a153974a56ff6d269df6059406a25ea5a06a9b437cffa6cdb26f7a56dcc8a1f60001b6104b0565b6102a37f58013c7e0b8d6b121971646d6db37f831635563be1d4ae9f00cbc76f47c45bce60001b6104b0565b6102cf7fcd1673731d57246168e32268957d649f22b09bde31398b8ef12492e4a673932c60001b6104b0565b6102e9816102db61054c565b61063c90919063ffffffff16565b50565b6103187fc7746aa6302d8d9aba59255a09bf4b8cad3f6c079a39b5f4d12455569c788be360001b6107ae565b6103447f8080d23a1e6d78b33a1ddcd94156bacb06f117059f329efc70538e74b2988f8360001b6107ae565b6103707fdbef6b32af1186bfab6205e4e0f0d7b098b832504a481b90db5bb75aa8bc709460001b6107ae565b61039161037b6107b1565b610383610844565b61093490919063ffffffff16565b6103bd7fde95c7d92fc6b9e35490a4dc4261fd4af23d5b42952450ecd3e96054a9afd7b660001b6107ae565b6103e97f1f2fae02f1e5ee33df1c4bccec9b78e2e9cd0a809cfa17352dae0f0d2c378f5e60001b6107ae565b610403816103f561054c565b610aa690919063ffffffff16565b50565b6104327f5f13e2beb87a5bcbc201caa1ec970b16378cebed0eb297e1a40ddc137a86a63960001b610549565b61045e7f0298e1e039854de28e6fbf14e758e182d6ea7790f1874626c850541e13251cc660001b610549565b61048a7f86bf5d1cdbf7d3de856cb7a4aed493fe35fba57e8b307d0e58407beffd995f7460001b610549565b6104ad6104956107b1565b8261049e61054c565b610e389092919063ffffffff16565b50565b50565b3660006104e27f7768c43b3ab56ae31f5d7cc69a49bfba279ee3645fefac57cb5b33ad684e35b860001b6107ae565b61050d7e20742cb6b8d772d45898270d44e019e7f61c85428a6e8e17569e5c329bf2f060001b6107ae565b6105397f4258ba2b43910e94cf90168db16c107b46809f4c8e43eb099537a1ee9fea6e8660001b6107ae565b61054161123f565b915091509091565b50565b600061057a7f12b4db1a13ae954a255ef0fa37765d8ee1e39537e429053253a663eff808644d60001b611690565b6105a67feebae444011023bb1eb9d991a8900c1fc6c9dc05e526ab9149645480ea211c3e60001b611690565b6105d27f7a85e8875e57667831d822c4c89a943f00106e2fdc910c0df83014dfd0d1477360001b611690565b600060017f6a1da6973104ff7dedb9b4f5cab5830b3f4a0284ed754366cfc45568bd2d38df60001c61060491906122c1565b60001b90506106357fcd65f8dce9f650605649809ea57b1b403b2167736801d4eb4d6da1b99327986060001b611690565b8091505090565b6106687f311cb72dc07750d6828e4b4e89b77f33fb16c70db0f74c9dbf7e01b75fe2538460001b611690565b6106947f5a948a147df45bdb71c8f98a865604b23d4880b5921ab247626470201792a9d460001b611690565b6106c07faa1ac481ace62e8856a31e42b6fa6ad7e8b29c10fa062b8775baa1bf5185f76360001b611690565b6106ec7fa565745ecf1d7ea43fd9e19c5a7b72dbef31f2d274ba98df9594459d1fdda02f60001b611690565b8160000160009054906101000a900473ffffffffffffffffffffffffffffffffffffffff1673ffffffffffffffffffffffffffffffffffffffff168173ffffffffffffffffffffffffffffffffffffffff161461077e576040517f08c379a000000000000000000000000000000000000000000000000000000000815260040161077590612352565b60405180910390fd5b6107aa7f3cdf1cbcd193a5f563b48f16d650e4ae6a3f20aa956e2ea1fe221c3ff0241bd160001b611690565b5050565b50565b60006107df7fb3a3a1880acf113b3144e729b75c4a6f98df4fdf9fdf8c993c56d2f4431ffa1f60001b6107ae565b61080b7f5def9a77dacb8506d5a6c60734d6ad93460b27369498e12be87a8a839c03153d60001b6107ae565b6108377f02f3d4463d8b3bdadf145a959da741cad7edc61498f53a0e0736def3b2e7b82960001b6107ae565b61083f611693565b905090565b60006108727f29f8332165901d83adc683db950bfa7095446b76821902b9cad5a516e9f9f82660001b611b30565b61089e7f5c570bd87bb3a186c2c87ff3dd5f58d2c75a5776fe94e0a63fa851fe46a5fa6c60001b611b30565b6108ca7f405d85ac952971491b2260d550a90002555502250fb83d68df5efc35f77841ce60001b611b30565b600060017fb53127684a568b3173ae13b9f8a6016e243e63b6e8ee1178d6a717850b5d610460001c6108fc91906122c1565b60001b905061092d7f1d9ce065e06330dbac07abf26a98b6d505daa95772ac105ad61ed7479f8c2b1260001b611b30565b8091505090565b6109607fbc11fd154e3161de2183b89db4eb967bb1b4cbab0325086fa95095436c11e72b60001b611b30565b61098c7f1815b032362e96a6d2f880b8f118c97fe36f9016e4d7dde560dc18768369a66d60001b611b30565b6109b87f25f11631eb07cc17d412b02bd63f72577eb8df190f4046eb3478c12a4bb8ae6860001b611b30565b6109e47ff4fb509d189314ad76c001fa3c672e032a121e16ca67380d998b64660c91044960001b611b30565b8160000160009054906101000a900473ffffffffffffffffffffffffffffffffffffffff1673ffffffffffffffffffffffffffffffffffffffff168173ffffffffffffffffffffffffffffffffffffffff1614610a76576040517f08c379a0000000000000000000000000000000000000000000000000000000008152600401610a6d906123be565b60405180910390fd5b610aa27f059066040512573aa34012041b24446b05cb97113084d9f5307dec4a489aeed260001b611b30565b5050565b610ad27f7ade047f1b18d3d9e4cf2dbfa4799e6897d1938ea0071c35770980d99be7675260001b611690565b610afe7fc0dd688ff28228f194ec76f495cc7b3de785a006ebf0721800218186e051433c60001b611690565b610b2a7f61c3ae71c4d526f3dfc13684ed672ca191550d63636ab205f7bffd9b572c6aef60001b611690565b610b6760017ff1e2f4de496ffe5d046d751d8ec3c329ee011c6c6a229322971a7e02a207f97360001c610b5d91906122c1565b60001b6001611b33565b610b937fd348f5ca66daae8709ef102811c105c3e31fe6f6cc1edc224d2702ff3009e1f360001b611690565b610bbf7f2fc46fc72a173dcc9c44e150d62890a4da759120e0f0d8e0bc33685ddd0f71be60001b611690565b600073ffffffffffffffffffffffffffffffffffffffff168173ffffffffffffffffffffffffffffffffffffffff1614610d7257610c1f7f848a7b68acd8a245034bcc598f7508c96da067c4bf9df5962896ab6e4cbacbdc60001b611690565b610c4b7ffdef29fccd1fc52788b15fca93499f63fa408221ea0a7069b8da1a7aaf65e10660001b611690565b610c777f793ccf870c20f1e89df7f66b11ec23db8c2400e3975173b0217a0164a2d8add360001b611690565b808260000160006101000a81548173ffffffffffffffffffffffffffffffffffffffff021916908373ffffffffffffffffffffffffffffffffffffffff160217905550610ce67fb8e5ea9fbb88bedd793f2345d140e5dd30fa2d6b312ff0e0f840f21e44632d1560001b611690565b610d127ffd7dc9b3efa62dab8d13f6b0e28c02f666353f25b3e027756a44e148e82691da60001b611690565b8073ffffffffffffffffffffffffffffffffffffffff16600073ffffffffffffffffffffffffffffffffffffffff167f8be0079c531659141344cd1fd0a4f28419497f9722a3daafe3b4186f6b6457e060405160405180910390a3610d9f565b610d9e7fa8ee02fcfeaac392aadc593dfe7e0afeeae4022baf9fc709470ae9e2d5ce63c460001b611690565b5b610dcb7f1da89fa828fcf0c756100601da9c9cead2f05c62afa4c1d26d316f4bd430b13960001b611690565b610df77f69b196e3069d1309b23672c2540a03d602ef55a0acb3cc82b52b164fa69b37bb60001b611690565b610e347f7f5828d0000000000000000000000000000000000000000000000000000000006001610e25611d20565b611e109092919063ffffffff16565b5050565b610e647fdf59544792feea399434a4930be72a28dcd387f84c2a5fe280a21a2da3cc04d660001b611690565b610e907f0e764948267560c4d66737a797428b691c6b7aab5c40985a77f33a37ab527c4b60001b611690565b610ebc7f3331bc4470b962efb54bc393cde17bc0b2a105748f5f9e0432e40398096ecfad60001b611690565b60008360000160009054906101000a900473ffffffffffffffffffffffffffffffffffffffff169050610f117f5c027b9c47dca10d5a9351c5839dfe289d1764bfdf2caabeb825431d723a22bf60001b611690565b610f3d7f230ea7519ca83615ab759ab061070b00f84308731b014082e940b2d3fa61847260001b611690565b610f697f77bbade0c2cdbbf2f8a4624ab384529d8194416749b49fd6047fe47f7cd4cf1160001b611690565b8073ffffffffffffffffffffffffffffffffffffffff168373ffffffffffffffffffffffffffffffffffffffff1614610fd7576040517f08c379a0000000000000000000000000000000000000000000000000000000008152600401610fce90612352565b60405180910390fd5b6110037fed5f4915a9a3c36dd9176824b7053dca79a55dfedcb55697386f813091b980b860001b611690565b61102f7f1d9c58456e9dafcf49ace88031963e549d56f7729344a4ab5ea5b4e3b4f6ae5160001b611690565b61105b7f7f6e5d89f70a00c4e073528fd8d9b4b8a56beb221caa3630871384ccdf1196eb60001b611690565b8173ffffffffffffffffffffffffffffffffffffffff168173ffffffffffffffffffffffffffffffffffffffff161461120c576110ba7f75344049457f04ccd6a4a70b6a90f0df5ef28524a10cc64f98d0d0c2bd92839260001b611690565b6110e67f848bee61996961633e02a17f0a9124d5735958ffa875ccdb1672acefc826797560001b611690565b6111127fd22fd39463f994f0dda77f27f8df1de6fe9579e23d1f177e6584b5a6d6598c3b60001b611690565b818460000160006101000a81548173ffffffffffffffffffffffffffffffffffffffff021916908373ffffffffffffffffffffffffffffffffffffffff1602179055506111817f93e7178407b10f5b416a8a4e9ae10426316afabe6f8cfeae01c20778706815b760001b611690565b6111ad7feaae940865dcfff7289e799138b181a7fb86d5d3bd4c617bfc2362ccb7fc73bc60001b611690565b8173ffffffffffffffffffffffffffffffffffffffff168173ffffffffffffffffffffffffffffffffffffffff167f8be0079c531659141344cd1fd0a4f28419497f9722a3daafe3b4186f6b6457e060405160405180910390a3611239565b6112387f5269352f2b943550775f3b3039303ce1ead1abfb3ebd4cda535c7cbff25914b060001b611690565b5b50505050565b36600061126e7ff74f168f3cfe88b8c75939ced6593b63b3a80d84384ea84798e06eb70c27e8b560001b61201c565b61129a7f0c30881a465ce740e34b44da3f5682b69b261b3b3d916bf3cb638422722c466360001b61201c565b6112c67f7d034622f0cfa82b1eafef58ff96909800ff5cbda4aec1c658399402313d1e4760001b61201c565b60003390506112f77f3e7b906c7c24b8d911bba8092ce84f23b5c1596b35038fef4ace71fcce1f3a0e60001b61201c565b6113237f76d316808c9e8931ac3d89e37ff8d9a597f8e50813fa0a88766b36313e96041060001b61201c565b3273ffffffffffffffffffffffffffffffffffffffff168173ffffffffffffffffffffffffffffffffffffffff16036113e7576113827fa811c091d51641b1118f1402cc0638dc69041cba2f323377090e0a55500a152460001b61201c565b6113ae7ff673674fd259625637c155f7345382b871e4581df73bc53013494d30dd1dc16460001b61201c565b6113da7f108112c7eebc35534afdbeeca8c2ad7449209fe78eeb1f9fdd0c5f6fb3111cce60001b61201c565b600036925092505061168c565b6114137f8e23e3f35cdceddd8b15b45bf787b8d6ae38e04c5870f4020c01d683a2f10fc560001b61201c565b61143f7fb4f48de4e10f2751022dce70d5876a74afb41b756eb77cdf4fe88835769afb1a60001b61201c565b61146b7f2afe9b0d9d36347d263d9c298082ea9eea1c1879c9904d44b9316a451e41b92f60001b61201c565b7f000000000000000000000000000000000000000000000000000000000000000073ffffffffffffffffffffffffffffffffffffffff168173ffffffffffffffffffffffffffffffffffffffff16148061156457507f000000000000000000000000000000000000000000000000000000000000000073ffffffffffffffffffffffffffffffffffffffff1663e60125d661150461201f565b836040518363ffffffff1660e01b81526004016115229291906123de565b602060405180830381865afa15801561153f573d6000803e3d6000fd5b505050506040513d601f19601f82011682018060405250810190611563919061243f565b5b156115ff576115957f2191333a031dc1f79f931a9c32f8cc636186c8d1941bf6ad2d0e09669ccdb2fd60001b61201c565b6115c17f625d923af8cba91f74f7ad122740e01bcd36ee0be52b9596ca85f7881a963db360001b61201c565b6115ed7f09e6b704caf4fc80a51357d4ff43f8bab75f1133b8a694db1fb7ac8851fe64b160001b61201c565b6115f5612086565b925092505061168c565b61162b7fcfd0711298438e2e01b8a5c4d5745b4b2a1fa1742e9ef04643fd654ff78cfca960001b61201c565b6116577faec17026272a3ca53764ba29e047c1b72c1edbf88732d32ffae6b5c0d7fcf39960001b61201c565b6116837f7518e0f5afdd21984f9ce13318f9370b2d82da30fc4ffdbb78362126da32d52960001b61201c565b60003692509250505b9091565b50565b60006116c17f21f83b85e7dbc596177bc46cc6795c14520638d6db8281a9a46e4d6aa22fb1aa60001b61201c565b6116ed7f9fe8a1e1e7c5f38bddac874222fbac3da358d377b550af606038c28c918342a660001b61201c565b6117197f4d776035fe014c48f9b8d211e07ad5f3e10a7407e640d6fd44f001ad72ec145460001b61201c565b600033905061174a7f1470143c211ace273ad33be67e446aa27b56df8ff21c9e30df1c1ce1aab37faf60001b61201c565b6117767f701a5aed6b7834b1cde40063ca2763d0cc2a2d369e96d6ffd63bd7f36d010be860001b61201c565b3273ffffffffffffffffffffffffffffffffffffffff168173ffffffffffffffffffffffffffffffffffffffff1603611836576117d57fde73d737f19da71f7e0a8be64041464998117e05c9bb9f65df2259a0779caaa960001b61201c565b6118017f2e1b1201e86447778e6a37c8701809fecc19c6c17c8cdf9a32e27254363f132c60001b61201c565b61182d7f06438a6776a73eebdc69485314350483a51cfddc04e159b6f57dde5e4030039060001b61201c565b80915050611b2d565b6118627f6b510e6cfe0d366d8eb68be09db038d2dbfc0ca71029993b650b184340fc438a60001b61201c565b61188e7fc81f2aa3e9c76ff8d9709ad059857726fb537b8fa6166dbedc9e3f598edddc4160001b61201c565b6118ba7fd5cec79665173c3237287beadc96f615eba8ff220376c7f0add1c603fa1dcb0260001b61201c565b60006118c461201f565b90506118f27f16b7bdd4d503ca2d391b420534e7b71ff847aea146e0c5e9b1d972d25ac95cf360001b61201c565b61191e7f8284349b0a2249652b224d12d5fd826a549839b4e0aab6630e88a99ebee0413860001b61201c565b7f000000000000000000000000000000000000000000000000000000000000000073ffffffffffffffffffffffffffffffffffffffff168273ffffffffffffffffffffffffffffffffffffffff161480611a1057507f000000000000000000000000000000000000000000000000000000000000000073ffffffffffffffffffffffffffffffffffffffff1663e60125d682846040518363ffffffff1660e01b81526004016119ce9291906123de565b602060405180830381865afa1580156119eb573d6000803e3d6000fd5b505050506040513d601f19601f82011682018060405250810190611a0f919061243f565b5b15611aa357611a417ff1748450d5c67d16e99d465b5f46314c0a03cb614c0a36c7a01d0d452a42d63760001b61201c565b611a6d7ffcb9fb7b37e10dcd260ee2b6500d072708cde8b16110ac602ac219c4f0ac7a8860001b61201c565b611a997f0b8b6cb7f0d04c4b23441400a0a579a14ccf6e6d955d51d0d443ae3b764fbf1e60001b61201c565b8092505050611b2d565b611acf7fc6338ea7b912cb871ae88b37af8abae50806bb4e29d453caf0758aea491b82ab60001b61201c565b611afb7fb1b2861ba78bbb686a91db34f76b76efe61d8e91016be1013861a8390b68a26860001b61201c565b611b277f131b91089cbc4af49187f8d51fbbc23a25f13946f6ab1ab771005101548d429760001b61201c565b81925050505b90565b50565b611b5f7f523c5c55fa27c1465eb0ba13f6927ac81ca2e843dca5743a6ceafc60fd44a7a260001b612139565b611b8b7f04772ea788fd843b127a602e9cfb0c6a91dd658dfc8c6564fb399afa5c8187c060001b612139565b611bb77fcb69cb3c0f8a75e2c548a59a9a6f16480c220dc9611455e2f2a5ff64c19012f660001b612139565b6000611bc28361213c565b9050611bf07f05454e9c8dc486b9dafcaafcc4a6b37e8e4a0bd10c5a957d6788a08d4705e74a60001b612139565b611c1c7f545be28ad664a45fbd66a4b1cf9af17e7b7fa1c0858756e55615423b09c10cf960001b612139565b611c487f7b74d3cbf19e745235b98e2e533402f6fea14c7950d83932d7459f8c0776ae7560001b612139565b81816000015410611c8e576040517f08c379a0000000000000000000000000000000000000000000000000000000008152600401611c85906124b8565b60405180910390fd5b611cba7fb77e179c39cd483a2fb9d49c9d6baaf337e679c6fc0b0193351b78700052fb6060001b612139565b611ce67f73251853a52f4546290b9dbdb4820ad06a75d361304d051af620ac9db846f98760001b612139565b611d127f8670f345bbc08bb652aae01676abdbb142983e1527aecdd350c544d4ac9aa25360001b612139565b818160000181905550505050565b6000611d4e7f33dac451eefd1a6808163eecf8d47d7cba5f56d00787de044ff0ddc2ee89447d60001b612146565b611d7a7f80b5daaa693fe30ccf9f1f19243499ce9fe4bada91264dd37e7099a713fc8c0360001b612146565b611da67f66e2273229caef60ac0be45d070cc66ba1aaceeca2776bdf1fc50206d54f0f2260001b612146565b600060017f7180ffa89c91cf90d6c56dacabfc69bc5e36f3099d7eed2f5cc12c5dba016fe060001c611dd891906122c1565b60001b9050611e097f283bb7ffa148f4f77b397c4f3d35798bfd3f1214dd2b6c078e2824cd344247cc60001b612146565b8091505090565b611e3c7ffeeaaad6b1efab2833cc700d80f740603a4ac6746f8e38068c950d299cc199bf60001b612146565b611e687f3ca2cb9a9b6e35728cedd7c19d4c121988341387931213a51eab1b4bbaf4113560001b612146565b611e947f1f9cdb98c65d0ad87aac43319c2670926bcb7c14904c7f9d4ade6235d82de71960001b612146565b611ec07f5dbdac164f3e02893e8f90adfbe776f3f50c85847d234ab6fb16b0a4846759d760001b612146565b63ffffffff60e01b827bffffffffffffffffffffffffffffffffffffffffffffffffffffffff191603611f28576040517f08c379a0000000000000000000000000000000000000000000000000000000008152600401611f1f90612524565b60405180910390fd5b611f547fd6b36b8472d324009615e496388c108ffb1831ab3bd7bded72d29ac4baf2ad1e60001b612146565b611f807f7b2218cefa5bbb0f0239126c55783358df88ffab00f11d9c8f8e38985d9a8c9860001b612146565b611fac7f2ad1063a0d34755f3bea24bcd3cfaff3dbbf63fbfa3f9b4c9c252fdffa66ed3360001b612146565b80836000016000847bffffffffffffffffffffffffffffffffffffffffffffffffffffffff19167bffffffffffffffffffffffffffffffffffffffffffffffffffffffff1916815260200190815260200160002060006101000a81548160ff021916908315150217905550505050565b50565b600061204d7fd2d14d566965719ee17c5b60ff32623f910e7a0e574f2eeae19a64856bd35c4c60001b612149565b6120797fa390d1eca31ebd819e35c63e13daa420bd40dcdd984217eef68768880371b01d60001b612149565b601436033560601c905090565b3660006120b57f7a9fde0e4d93131667b711f92dc641fa832990e5bb6a3b4626ffa6b5d4f3fdae60001b612149565b6120e17fc610f11635537ce6a03686b10e383cf783da248254319abfbb04eeb973e3acd760001b612149565b61210d7f17531d10ccf76e2a802938b28b374efcd761ac66995a64071083ebf2a16e732060001b612149565b6000366000906014600036905061212491906122c1565b926121319392919061254e565b915091509091565b50565b6000819050919050565b50565b50565b600082825260208201905092915050565b82818337600083830152505050565b6000601f19601f8301169050919050565b6000612189838561214c565b935061219683858461215d565b61219f8361216c565b840190509392505050565b600060208201905081810360008301526121c581848661217d565b90509392505050565b600073ffffffffffffffffffffffffffffffffffffffff82169050919050565b60006121f9826121ce565b9050919050565b612209816121ee565b82525050565b60006020820190506122246000830184612200565b92915050565b600080fd5b612238816121ee565b811461224357600080fd5b50565b6000813590506122558161222f565b92915050565b6000602082840312156122715761227061222a565b5b600061227f84828501612246565b91505092915050565b6000819050919050565b7f4e487b7100000000000000000000000000000000000000000000000000000000600052601160045260246000fd5b60006122cc82612288565b91506122d783612288565b9250828210156122ea576122e9612292565b5b828203905092915050565b600082825260208201905092915050565b7f4f776e6572736869703a206e6f7420746865206f776e65720000000000000000600082015250565b600061233c6018836122f5565b915061234782612306565b602082019050919050565b6000602082019050818103600083015261236b8161232f565b9050919050565b7f50726f787941646d696e3a206e6f74207468652061646d696e00000000000000600082015250565b60006123a86019836122f5565b91506123b382612372565b602082019050919050565b600060208201905081810360008301526123d78161239b565b9050919050565b60006040820190506123f36000830185612200565b6124006020830184612200565b9392505050565b60008115159050919050565b61241c81612407565b811461242757600080fd5b50565b60008151905061243981612413565b92915050565b6000602082840312156124555761245461222a565b5b60006124638482850161242a565b91505092915050565b7f53746f726167653a2076657273696f6e20726561636865640000000000000000600082015250565b60006124a26018836122f5565b91506124ad8261246c565b602082019050919050565b600060208201905081810360008301526124d181612495565b9050919050565b7f496e74657266616365446574656374696f6e3a2077726f6e672076616c756500600082015250565b600061250e601f836122f5565b9150612519826124d8565b602082019050919050565b6000602082019050818103600083015261253d81612501565b9050919050565b600080fd5b600080fd5b6000808585111561256257612561612544565b5b8386111561257357612572612549565b5b600185028301915084860390509450949250505056fea264697066735822122023657b73506c93894bfd37a30051798b858aa96363cbc7945a03644826e2992564736f6c634300080d0033",
  "linkReferences": {},
  "deployedLinkReferences": {}
}