{
  "_format": "hh-sol-artifact-1",
  "contractName": "ERC721Mock",
  "sourceName": "contracts/mocks/token/ERC721/ERC721Mock.sol",
  "abi": [
    {
      "inputs": [
        {
          "internalType": "string",
          "name": "name_",
          "type": "string"
        },
        {
          "internalType": "string",
          "name": "symbol_",
          "type": "string"
        },
        {
          "internalType": "string",
          "name": "tokenURI_",
          "type": "string"
        },
        {
          "internalType": "contract IForwarderRegistry",
          "name": "forwarderRegistry",
          "type": "address"
        }
      ],
      "stateMutability": "nonpayable",
      "type": "constructor"
    },
    {
      "anonymous": false,
      "inputs": [
        {
          "indexed": true,
          "internalType": "address",
          "name": "owner",
          "type": "address"
        },
        {
          "indexed": true,
          "internalType": "address",
          "name": "approved",
          "type": "address"
        },
        {
          "indexed": true,
          "internalType": "uint256",
          "name": "tokenId",
          "type": "uint256"
        }
      ],
      "name": "Approval",
      "type": "event"
    },
    {
      "anonymous": false,
      "inputs": [
        {
          "indexed": true,
          "internalType": "address",
          "name": "owner",
          "type": "address"
        },
        {
          "indexed": true,
          "internalType": "address",
          "name": "operator",
          "type": "address"
        },
        {
          "indexed": false,
          "internalType": "bool",
          "name": "approved",
          "type": "bool"
        }
      ],
      "name": "ApprovalForAll",
      "type": "event"
    },
    {
      "anonymous": false,
      "inputs": [
        {
          "indexed": true,
          "internalType": "address",
          "name": "previousOwner",
          "type": "address"
        },
        {
          "indexed": true,
          "internalType": "address",
          "name": "newOwner",
          "type": "address"
        }
      ],
      "name": "OwnershipTransferred",
      "type": "event"
    },
    {
      "anonymous": false,
      "inputs": [
        {
          "indexed": false,
          "internalType": "bytes32",
          "name": "role",
          "type": "bytes32"
        },
        {
          "indexed": false,
          "internalType": "address",
          "name": "account",
          "type": "address"
        },
        {
          "indexed": false,
          "internalType": "address",
          "name": "operator",
          "type": "address"
        }
      ],
      "name": "RoleGranted",
      "type": "event"
    },
    {
      "anonymous": false,
      "inputs": [
        {
          "indexed": false,
          "internalType": "bytes32",
          "name": "role",
          "type": "bytes32"
        },
        {
          "indexed": false,
          "internalType": "address",
          "name": "account",
          "type": "address"
        },
        {
          "indexed": false,
          "internalType": "address",
          "name": "operator",
          "type": "address"
        }
      ],
      "name": "RoleRevoked",
      "type": "event"
    },
    {
      "anonymous": false,
      "inputs": [
        {
          "indexed": true,
          "internalType": "address",
          "name": "from",
          "type": "address"
        },
        {
          "indexed": true,
          "internalType": "address",
          "name": "to",
          "type": "address"
        },
        {
          "indexed": true,
          "internalType": "uint256",
          "name": "tokenId",
          "type": "uint256"
        }
      ],
      "name": "Transfer",
      "type": "event"
    },
    {
      "inputs": [],
      "name": "MINTER_ROLE",
      "outputs": [
        {
          "internalType": "bytes32",
          "name": "",
          "type": "bytes32"
        }
      ],
      "stateMutability": "view",
      "type": "function"
    },
    {
      "inputs": [],
      "name": "__msgData",
      "outputs": [
        {
          "internalType": "bytes",
          "name": "",
          "type": "bytes"
        }
      ],
      "stateMutability": "view",
      "type": "function"
    },
    {
      "inputs": [
        {
          "internalType": "address",
          "name": "to",
          "type": "address"
        },
        {
          "internalType": "uint256",
          "name": "tokenId",
          "type": "uint256"
        }
      ],
      "name": "approve",
      "outputs": [],
      "stateMutability": "nonpayable",
      "type": "function"
    },
    {
      "inputs": [
        {
          "internalType": "address",
          "name": "owner",
          "type": "address"
        }
      ],
      "name": "balanceOf",
      "outputs": [
        {
          "internalType": "uint256",
          "name": "",
          "type": "uint256"
        }
      ],
      "stateMutability": "view",
      "type": "function"
    },
    {
      "inputs": [
        {
          "internalType": "address",
          "name": "from",
          "type": "address"
        },
        {
          "internalType": "uint256[]",
          "name": "tokenIds",
          "type": "uint256[]"
        }
      ],
      "name": "batchBurnFrom",
      "outputs": [],
      "stateMutability": "nonpayable",
      "type": "function"
    },
    {
      "inputs": [
        {
          "internalType": "address",
          "name": "to",
          "type": "address"
        },
        {
          "internalType": "uint256[]",
          "name": "tokenIds",
          "type": "uint256[]"
        }
      ],
      "name": "batchMint",
      "outputs": [],
      "stateMutability": "nonpayable",
      "type": "function"
    },
    {
      "inputs": [
        {
          "internalType": "address",
          "name": "from",
          "type": "address"
        },
        {
          "internalType": "address",
          "name": "to",
          "type": "address"
        },
        {
          "internalType": "uint256[]",
          "name": "tokenIds",
          "type": "uint256[]"
        }
      ],
      "name": "batchTransferFrom",
      "outputs": [],
      "stateMutability": "nonpayable",
      "type": "function"
    },
    {
      "inputs": [
        {
          "internalType": "address",
          "name": "from",
          "type": "address"
        },
        {
          "internalType": "uint256",
          "name": "tokenId",
          "type": "uint256"
        }
      ],
      "name": "burnFrom",
      "outputs": [],
      "stateMutability": "nonpayable",
      "type": "function"
    },
    {
      "inputs": [
        {
          "internalType": "uint256",
          "name": "tokenId",
          "type": "uint256"
        }
      ],
      "name": "getApproved",
      "outputs": [
        {
          "internalType": "address",
          "name": "operator",
          "type": "address"
        }
      ],
      "stateMutability": "view",
      "type": "function"
    },
    {
      "inputs": [
        {
          "internalType": "bytes32",
          "name": "role",
          "type": "bytes32"
        },
        {
          "internalType": "address",
          "name": "account",
          "type": "address"
        }
      ],
      "name": "grantRole",
      "outputs": [],
      "stateMutability": "nonpayable",
      "type": "function"
    },
    {
      "inputs": [
        {
          "internalType": "bytes32",
          "name": "role",
          "type": "bytes32"
        },
        {
          "internalType": "address",
          "name": "account",
          "type": "address"
        }
      ],
      "name": "hasRole",
      "outputs": [
        {
          "internalType": "bool",
          "name": "",
          "type": "bool"
        }
      ],
      "stateMutability": "view",
      "type": "function"
    },
    {
      "inputs": [
        {
          "internalType": "address",
          "name": "owner",
          "type": "address"
        },
        {
          "internalType": "address",
          "name": "operator",
          "type": "address"
        }
      ],
      "name": "isApprovedForAll",
      "outputs": [
        {
          "internalType": "bool",
          "name": "",
          "type": "bool"
        }
      ],
      "stateMutability": "view",
      "type": "function"
    },
    {
      "inputs": [
        {
          "internalType": "address",
          "name": "to",
          "type": "address"
        },
        {
          "internalType": "uint256",
          "name": "tokenId",
          "type": "uint256"
        }
      ],
      "name": "mint",
      "outputs": [],
      "stateMutability": "nonpayable",
      "type": "function"
    },
    {
      "inputs": [],
      "name": "name",
      "outputs": [
        {
          "internalType": "string",
          "name": "",
          "type": "string"
        }
      ],
      "stateMutability": "view",
      "type": "function"
    },
    {
      "inputs": [],
      "name": "owner",
      "outputs": [
        {
          "internalType": "address",
          "name": "",
          "type": "address"
        }
      ],
      "stateMutability": "view",
      "type": "function"
    },
    {
      "inputs": [
        {
          "internalType": "uint256",
          "name": "tokenId",
          "type": "uint256"
        }
      ],
      "name": "ownerOf",
      "outputs": [
        {
          "internalType": "address",
          "name": "",
          "type": "address"
        }
      ],
      "stateMutability": "view",
      "type": "function"
    },
    {
      "inputs": [
        {
          "internalType": "bytes32",
          "name": "role",
          "type": "bytes32"
        }
      ],
      "name": "renounceRole",
      "outputs": [],
      "stateMutability": "nonpayable",
      "type": "function"
    },
    {
      "inputs": [
        {
          "internalType": "bytes32",
          "name": "role",
          "type": "bytes32"
        },
        {
          "internalType": "address",
          "name": "account",
          "type": "address"
        }
      ],
      "name": "revokeRole",
      "outputs": [],
      "stateMutability": "nonpayable",
      "type": "function"
    },
    {
      "inputs": [
        {
          "internalType": "address",
          "name": "to",
          "type": "address"
        },
        {
          "internalType": "uint256",
          "name": "tokenId",
          "type": "uint256"
        },
        {
          "internalType": "bytes",
          "name": "data",
          "type": "bytes"
        }
      ],
      "name": "safeMint",
      "outputs": [],
      "stateMutability": "nonpayable",
      "type": "function"
    },
    {
      "inputs": [
        {
          "internalType": "address",
          "name": "from",
          "type": "address"
        },
        {
          "internalType": "address",
          "name": "to",
          "type": "address"
        },
        {
          "internalType": "uint256",
          "name": "tokenId",
          "type": "uint256"
        }
      ],
      "name": "safeTransferFrom",
      "outputs": [],
      "stateMutability": "nonpayable",
      "type": "function"
    },
    {
      "inputs": [
        {
          "internalType": "address",
          "name": "from",
          "type": "address"
        },
        {
          "internalType": "address",
          "name": "to",
          "type": "address"
        },
        {
          "internalType": "uint256",
          "name": "tokenId",
          "type": "uint256"
        },
        {
          "internalType": "bytes",
          "name": "_data",
          "type": "bytes"
        }
      ],
      "name": "safeTransferFrom",
      "outputs": [],
      "stateMutability": "nonpayable",
      "type": "function"
    },
    {
      "inputs": [
        {
          "internalType": "address",
          "name": "operator",
          "type": "address"
        },
        {
          "internalType": "bool",
          "name": "_approved",
          "type": "bool"
        }
      ],
      "name": "setApprovalForAll",
      "outputs": [],
      "stateMutability": "nonpayable",
      "type": "function"
    },
    {
      "inputs": [
        {
          "internalType": "bytes4",
          "name": "interfaceId",
          "type": "bytes4"
        }
      ],
      "name": "supportsInterface",
      "outputs": [
        {
          "internalType": "bool",
          "name": "",
          "type": "bool"
        }
      ],
      "stateMutability": "view",
      "type": "function"
    },
    {
      "inputs": [],
      "name": "symbol",
      "outputs": [
        {
          "internalType": "string",
          "name": "",
          "type": "string"
        }
      ],
      "stateMutability": "view",
      "type": "function"
    },
    {
      "inputs": [
        {
          "internalType": "uint256",
          "name": "tokenId",
          "type": "uint256"
        }
      ],
      "name": "tokenURI",
      "outputs": [
        {
          "internalType": "string",
          "name": "",
          "type": "string"
        }
      ],
      "stateMutability": "view",
      "type": "function"
    },
    {
      "inputs": [
        {
          "internalType": "address",
          "name": "from",
          "type": "address"
        },
        {
          "internalType": "address",
          "name": "to",
          "type": "address"
        },
        {
          "internalType": "uint256",
          "name": "tokenId",
          "type": "uint256"
        }
      ],
      "name": "transferFrom",
      "outputs": [],
      "stateMutability": "nonpayable",
      "type": "function"
    },
    {
      "inputs": [
        {
          "internalType": "address",
          "name": "newOwner",
          "type": "address"
        }
      ],
      "name": "transferOwnership",
      "outputs": [],
      "stateMutability": "nonpayable",
      "type": "function"
    }
  ],
  "bytecode": "0x60a06040523480156200001157600080fd5b5060405162003f9c38038062003f9c8339810160408190526200003491620007ae565b8383838380336200006462000053620001ab60201b62000b3c1760201c565b620001e160201b62000b6a1760201c565b6200008e6200007d6200024e60201b62000bd41760201c565b6200027e60201b62000c021760201c565b620000bc81620000a8620002d360201b62000c5c1760201c565b6200030360201b62000c8a1790919060201c565b50620000f5638e773e1360e01b6001620000e06200024e60201b62000bd41760201c565b620003b260201b62000d6e179092919060201c565b6001600160a01b03166080525062000126638b8b4ef560e01b6001620000e06200024e602090811b62000bd417901c565b6200014963f3993d1160e01b6001620000e06200024e60201b62000bd41760201c565b6200017b838383620001656200044060201b62000e5e1760201c565b6200047060201b62000e8c17909392919060201c565b6200019e635b5e139f60e01b6001620000e06200024e60201b62000bd41760201c565b50505050505050620008c3565b600080620001db60017fddf3ee18ae6d688373c219468f8be446e7ae82215f4779d821c7ea5e8c13c0c162000861565b92915050565b620002286200021260017ffddcdbf8ca7eb362a678daf3643ce3cf98ebf69ac314d25d376d5aeabd2f533262000861565b60001b60016200050f60201b62000f0f1760201c565b6200024b6380ac58cd60e01b6001620000e06200024e60201b62000bd41760201c565b50565b600080620001db60017f7180ffa89c91cf90d6c56dacabfc69bc5e36f3099d7eed2f5cc12c5dba016fe062000861565b620002af6200021260017f947245cdabe12ef4c13574b38217b361de48f57dd2dc345f43703c79bac2873d62000861565b6200024b6301ffc9a760e01b600183620003b260201b62000d6e179092919060201c565b600080620001db60017f6a1da6973104ff7dedb9b4f5cab5830b3f4a0284ed754366cfc45568bd2d38df62000861565b620003346200021260017ff1e2f4de496ffe5d046d751d8ec3c329ee011c6c6a229322971a7e02a207f97362000861565b6001600160a01b038116156200038b5781546001600160a01b0319166001600160a01b03821690811783556040516000907f8be0079c531659141344cd1fd0a4f28419497f9722a3daafe3b4186f6b6457e0908290a35b620003ae6307f5828d60e41b6001620000e06200024e60201b62000bd41760201c565b5050565b6001600160e01b03198083169003620004125760405162461bcd60e51b815260206004820152601f60248201527f496e74657266616365446574656374696f6e3a2077726f6e672076616c75650060448201526064015b60405180910390fd5b6001600160e01b03199190911660009081526020929092526040909120805460ff1916911515919091179055565b600080620001db60017f5f5773833f4966721eb3773ed87c7208ea74d78f0d94de1d8074345cac67333f62000861565b620004a16200021260017fdf2ee7965c9504dc84db8f7759fc283282800c5a2fa3704c9f07f446b3b40a3f62000861565b620004d18383620004bc6200058260201b62000f7f1760201c565b620005b260201b62000fad179092919060201c565b8051620004e590859060208401906200063b565b5062000509635b5e139f60e01b6001620000e06200024e60201b62000bd41760201c565b50505050565b600062000527836200063860201b620010321760201c565b9050818160000154106200057e5760405162461bcd60e51b815260206004820152601860248201527f53746f726167653a2076657273696f6e20726561636865640000000000000000604482015260640162000409565b5550565b600080620001db60017f9c4269c0f9f430d98876ffe9767fbf3f3232ea91a549beb549e5329532520eb362000861565b620005e36200021260017fa057eeb6560fae2987973d3bf40b89e6da66dd0b6aadac05dc6b5b0d7a8d455762000861565b8151620005f790849060208501906200063b565b5080516200060f90600185019060208401906200063b565b5062000633635b5e139f60e01b6001620000e06200024e60201b62000bd41760201c565b505050565b90565b828054620006499062000887565b90600052602060002090601f0160209004810192826200066d5760008555620006b8565b82601f106200068857805160ff1916838001178555620006b8565b82800160010185558215620006b8579182015b82811115620006b85782518255916020019190600101906200069b565b50620006c6929150620006ca565b5090565b5b80821115620006c65760008155600101620006cb565b634e487b7160e01b600052604160045260246000fd5b600082601f8301126200070957600080fd5b81516001600160401b0380821115620007265762000726620006e1565b604051601f8301601f19908116603f01168101908282118183101715620007515762000751620006e1565b816040528381526020925086838588010111156200076e57600080fd5b600091505b8382101562000792578582018301518183018401529082019062000773565b83821115620007a45760008385830101525b9695505050505050565b60008060008060808587031215620007c557600080fd5b84516001600160401b0380821115620007dd57600080fd5b620007eb88838901620006f7565b955060208701519150808211156200080257600080fd5b6200081088838901620006f7565b945060408701519150808211156200082757600080fd5b506200083687828801620006f7565b606087015190935090506001600160a01b03811681146200085657600080fd5b939692955090935050565b6000828210156200088257634e487b7160e01b600052601160045260246000fd5b500390565b600181811c908216806200089c57607f821691505b602082108103620008bd57634e487b7160e01b600052602260045260246000fd5b50919050565b6080516136a8620008f4600039600081816129d601528181612a7601528181612b0a0152612b7401526136a86000f3fe608060405234801561001057600080fd5b50600436106101b95760003560e01c80638832e6e3116100f9578063c87b56dd11610097578063e985e9c511610071578063e985e9c5146103c0578063f2472965146103d3578063f2fde38b146103e6578063f3993d11146103f957600080fd5b8063c87b56dd14610373578063d539139314610386578063d547741f146103ad57600080fd5b806391d14854116100d357806391d148541461033257806395d89b4114610345578063a22cb4651461034d578063b88d4fde1461036057600080fd5b80638832e6e3146103045780638bb9c5bf146103175780638da5cb5b1461032a57600080fd5b806331e66e1e116101665780634684d7e9116101405780634684d7e9146102aa5780636352211e146102bd57806370a08231146102d057806379cc6790146102f157600080fd5b806331e66e1e1461026e57806340c10f191461028457806342842e0e1461029757600080fd5b8063095ea7b311610197578063095ea7b31461023357806323b872dd146102485780632f2ff15d1461025b57600080fd5b806301ffc9a7146101be57806306fdde03146101e6578063081812fc146101fb575b600080fd5b6101d16101cc366004612d5b565b61040c565b60405190151581526020015b60405180910390f35b6101ee610459565b6040516101dd9190612dee565b61020e610209366004612e01565b6104f1565b60405173ffffffffffffffffffffffffffffffffffffffff90911681526020016101dd565b610246610241366004612e43565b610505565b005b610246610256366004612e6d565b610526565b610246610269366004612ea9565b61054a565b61027661057e565b6040516101dd929190612ed5565b610246610292366004612e43565b610591565b6102466102a5366004612e6d565b6105fd565b6102466102b8366004612f22565b61061c565b61020e6102cb366004612e01565b610690565b6102e36102de366004612fa8565b610732565b6040519081526020016101dd565b6102466102ff366004612e43565b6107e8565b610246610312366004612fc3565b610805565b610246610325366004612e01565b610887565b61020e6108a5565b6101d1610340366004612ea9565b6108cb565b6101ee610916565b61024661035b366004613058565b61092e565b61024661036e36600461310d565b61094b565b6101ee610381366004612e01565b61096c565b6102e37f6d696e746572000000000000000000000000000000000000000000000000000081565b6102466103bb366004612ea9565b610a40565b6101d16103ce3660046131eb565b610a6e565b6102466103e1366004612f22565b610ab1565b6102466103f4366004612fa8565b610b02565b610246610407366004613215565b610b1d565b60006104538261041a610bd4565b907fffffffff00000000000000000000000000000000000000000000000000000000166000908152602091909152604090205460ff1690565b92915050565b6060610463610f7f565b805461046e906132de565b80601f016020809104026020016040519081016040528092919081815260200182805461049a906132de565b80156104e75780601f106104bc576101008083540402835291602001916104e7565b820191906000526020600020905b8154815290600101906020018083116104ca57829003601f168201915b5050505050905090565b6000610453826104ff610b3c565b90611035565b610522610510611118565b838361051a610b3c565b929190611127565b5050565b610545610531611118565b84848461053c610b3c565b939291906113e3565b505050565b6000610554611118565b905061056881610562610c5c565b90611409565b61054583838361057661148c565b9291906114ba565b366000610589611590565b915091509091565b6105cc7f6d696e74657200000000000000000000000000000000000000000000000000006105bd611118565b6105c561148c565b919061159b565b6105226105d7611118565b83836040518060200160405280600081525060006105f3610b3c565b9493929190611647565b610545610608611118565b848484610613610b3c565b93929190611754565b6106487f6d696e74657200000000000000000000000000000000000000000000000000006105bd611118565b610545838383808060200260200160405190810160405280939291908181526020018383602002808284376000920191909152506106899250610b3c915050565b9190611773565b60008061069b610b3c565b60008481526001919091016020526040902054905073ffffffffffffffffffffffffffffffffffffffff8116610453576040517f08c379a000000000000000000000000000000000000000000000000000000000815260206004820152601860248201527f4552433732313a206e6f6e2d6578697374696e67204e4654000000000000000060448201526064015b60405180910390fd5b600073ffffffffffffffffffffffffffffffffffffffff82166107b1576040517f08c379a000000000000000000000000000000000000000000000000000000000815260206004820152601460248201527f4552433732313a207a65726f20616464726573730000000000000000000000006044820152606401610729565b6107b9610b3c565b73ffffffffffffffffffffffffffffffffffffffff909216600090815260029290920160205250604090205490565b6105226107f3611118565b83836107fd610b3c565b9291906118c0565b6108317f6d696e74657200000000000000000000000000000000000000000000000000006105bd611118565b61088161083c611118565b858585858080601f016020809104026020016040519081016040528093929190818152602001838380828437600092019190915250600192506105f39150610b3c9050565b50505050565b6108a2610892611118565b8261089b61148c565b919061192a565b50565b60006108af610c5c565b5473ffffffffffffffffffffffffffffffffffffffff16919050565b600061090f83836108da61148c565b60009283526020908152604080842073ffffffffffffffffffffffffffffffffffffffff909316845291905290205460ff1690565b9392505050565b6060610920610f7f565b600101805461046e906132de565b610522610939611118565b8383610943610b3c565b9291906119ce565b610881610956611118565b85858585610962610b3c565b9493929190611afa565b60606000610978610b3c565b6000848152600191909101602052604090205473ffffffffffffffffffffffffffffffffffffffff1603610a08576040517f08c379a000000000000000000000000000000000000000000000000000000000815260206004820152601860248201527f4552433732313a206e6f6e2d6578697374696e67204e465400000000000000006044820152606401610729565b610a10610e5e565b610a1983611b0a565b604051602001610a2a929190613347565b6040516020818303038152906040529050919050565b6000610a4a611118565b9050610a5881610562610c5c565b610545838383610a6661148c565b929190611c3e565b6000610a78610b3c565b73ffffffffffffffffffffffffffffffffffffffff93841660009081526020918252604080822094909516815292905250205460ff1690565b610545610abc611118565b84848480806020026020016040519081016040528093929190818152602001838360200280828437600092019190915250610afa9250610b3c915050565b929190611d08565b6108a2610b0d611118565b82610b16610c5c565b9190611df2565b610545610b28611118565b848484610b33610b3c565b93929190611f1e565b60008061045360017fddf3ee18ae6d688373c219468f8be446e7ae82215f4779d821c7ea5e8c13c0c1613453565b610b9f610b9860017ffddcdbf8ca7eb362a678daf3643ce3cf98ebf69ac314d25d376d5aeabd2f5332613453565b6001610f0f565b6108a27f80ac58cd000000000000000000000000000000000000000000000000000000006001610bcd610bd4565b9190610d6e565b60008061045360017f7180ffa89c91cf90d6c56dacabfc69bc5e36f3099d7eed2f5cc12c5dba016fe0613453565b610c30610b9860017f947245cdabe12ef4c13574b38217b361de48f57dd2dc345f43703c79bac2873d613453565b6108a2817f01ffc9a7000000000000000000000000000000000000000000000000000000006001610d6e565b60008061045360017f6a1da6973104ff7dedb9b4f5cab5830b3f4a0284ed754366cfc45568bd2d38df613453565b610cb8610b9860017ff1e2f4de496ffe5d046d751d8ec3c329ee011c6c6a229322971a7e02a207f973613453565b73ffffffffffffffffffffffffffffffffffffffff811615610d405781547fffffffffffffffffffffffff00000000000000000000000000000000000000001673ffffffffffffffffffffffffffffffffffffffff821690811783556040516000907f8be0079c531659141344cd1fd0a4f28419497f9722a3daafe3b4186f6b6457e0908290a35b6105227f7f5828d0000000000000000000000000000000000000000000000000000000006001610bcd610bd4565b7fffffffff000000000000000000000000000000000000000000000000000000008083169003610dfa576040517f08c379a000000000000000000000000000000000000000000000000000000000815260206004820152601f60248201527f496e74657266616365446574656374696f6e3a2077726f6e672076616c7565006044820152606401610729565b7fffffffff00000000000000000000000000000000000000000000000000000000919091166000908152602092909252604090912080547fffffffffffffffffffffffffffffffffffffffffffffffffffffffffffffff0016911515919091179055565b60008061045360017f5f5773833f4966721eb3773ed87c7208ea74d78f0d94de1d8074345cac67333f613453565b610eba610b9860017fdf2ee7965c9504dc84db8f7759fc283282800c5a2fa3704c9f07f446b3b40a3f613453565b610ece8383610ec7610f7f565b9190610fad565b8051610ee09085906020840190612c94565b506108817f5b5e139f000000000000000000000000000000000000000000000000000000006001610bcd610bd4565b815482908211610f7b576040517f08c379a000000000000000000000000000000000000000000000000000000000815260206004820152601860248201527f53746f726167653a2076657273696f6e207265616368656400000000000000006044820152606401610729565b5550565b60008061045360017f9c4269c0f9f430d98876ffe9767fbf3f3232ea91a549beb549e5329532520eb3613453565b610fdb610b9860017fa057eeb6560fae2987973d3bf40b89e6da66dd0b6aadac05dc6b5b0d7a8d4557613453565b8151610fed9084906020850190612c94565b5080516110039060018501906020840190612c94565b506105457f5b5e139f000000000000000000000000000000000000000000000000000000006001610bcd610bd4565b90565b600081815260018301602052604081205473ffffffffffffffffffffffffffffffffffffffff81166110c3576040517f08c379a000000000000000000000000000000000000000000000000000000000815260206004820152601860248201527f4552433732313a206e6f6e2d6578697374696e67204e465400000000000000006044820152606401610729565b7401000000000000000000000000000000000000000081161561110e575050600081815260038301602052604090205473ffffffffffffffffffffffffffffffffffffffff16610453565b6000915050610453565b600061112261206d565b905090565b6000818152600185016020526040812054908190036111a2576040517f08c379a000000000000000000000000000000000000000000000000000000000815260206004820152601860248201527f4552433732313a206e6f6e2d6578697374696e67204e465400000000000000006044820152606401610729565b8073ffffffffffffffffffffffffffffffffffffffff80821690851603611225576040517f08c379a000000000000000000000000000000000000000000000000000000000815260206004820152601560248201527f4552433732313a2073656c662d617070726f76616c00000000000000000000006044820152606401610729565b611230868287612077565b611296576040517f08c379a000000000000000000000000000000000000000000000000000000000815260206004820152601b60248201527f4552433732313a206e6f6e2d617070726f7665642073656e64657200000000006044820152606401610729565b73ffffffffffffffffffffffffffffffffffffffff84166112fd57740100000000000000000000000000000000000000008216156112f8576000838152600187016020526040902073ffffffffffffffffffffffffffffffffffffffff821690555b611380565b74010000000000000000000000000000000000000000821780831461133057600084815260018801602052604090208190555b506000838152600387016020526040902080547fffffffffffffffffffffffff00000000000000000000000000000000000000001673ffffffffffffffffffffffffffffffffffffffff86161790555b828473ffffffffffffffffffffffffffffffffffffffff168273ffffffffffffffffffffffffffffffffffffffff167f8c5be1e5ebec7d5bd14f71427d1e84f3dd0314c0f7b2291e5b200ac8c7c3b92560405160405180910390a4505050505050565b61140285858585856040518060200160405280600081525060006120eb565b5050505050565b815473ffffffffffffffffffffffffffffffffffffffff828116911614610522576040517f08c379a000000000000000000000000000000000000000000000000000000000815260206004820152601860248201527f4f776e6572736869703a206e6f7420746865206f776e657200000000000000006044820152606401610729565b60008061045360017fc8a24fbf085abf1493c5f225802d03df3ece6cd19f18edff36c56d854cddac9e613453565b60008381526020858152604080832073ffffffffffffffffffffffffffffffffffffffff8616845290915290205460ff166108815760008381526020858152604080832073ffffffffffffffffffffffffffffffffffffffff8681168086529184529382902080547fffffffffffffffffffffffffffffffffffffffffffffffffffffffffffffff00166001179055815187815292830152918316918101919091527f2f8788117e7eff1d82e926ec794901d17c78024a50270940304540a733656f0d906060015b60405180910390a150505050565b366000610589612221565b60008281526020848152604080832073ffffffffffffffffffffffffffffffffffffffff8516845290915290205460ff16610545576115d98261222c565b6040516020016115e9919061346a565b604080517fffffffffffffffffffffffffffffffffffffffffffffffffffffffffffffffe0818403018152908290527f08c379a000000000000000000000000000000000000000000000000000000000825261072991600401612dee565b73ffffffffffffffffffffffffffffffffffffffff84166116c4576040517f08c379a000000000000000000000000000000000000000000000000000000000815260206004820152601460248201527f4552433732313a206d696e7420746f207a65726f0000000000000000000000006044820152606401610729565b6116d186858560006123ad565b604051839073ffffffffffffffffffffffffffffffffffffffff8616906000907fddf252ad1be2c89b69c2b068fc378daa952ba7f163c4a11628f55a4df523b3ef908290a4808015611739575073ffffffffffffffffffffffffffffffffffffffff84163b15155b1561174c5761174c856000868686612492565b505050505050565b61140285858585856040518060200160405280600081525060016120eb565b73ffffffffffffffffffffffffffffffffffffffff82166117f0576040517f08c379a000000000000000000000000000000000000000000000000000000000815260206004820152601460248201527f4552433732313a206d696e7420746f207a65726f0000000000000000000000006044820152606401610729565b805160005b81811461187d576000838281518110611810576118106134d6565b6020026020010151905061182786868360016123ad565b604051819073ffffffffffffffffffffffffffffffffffffffff8716906000907fddf252ad1be2c89b69c2b068fc378daa952ba7f163c4a11628f55a4df523b3ef908290a45061187681613505565b90506117f5565b5073ffffffffffffffffffffffffffffffffffffffff83166000908152600285016020526040812080548392906118b590849061353d565b909155505050505050565b60006118cd858486612077565b90506118de858585858560006125b8565b604051829060009073ffffffffffffffffffffffffffffffffffffffff8616907fddf252ad1be2c89b69c2b068fc378daa952ba7f163c4a11628f55a4df523b3ef908390a45050505050565b61193583828461159b565b60008181526020848152604080832073ffffffffffffffffffffffffffffffffffffffff86168085529083529281902080547fffffffffffffffffffffffffffffffffffffffffffffffffffffffffffffff0016905580518481529182018390528101919091527ff6391f5c32d9c69d2a47ea670b442974b53935d1edc7fd64eb21e047a839171b9060600160405180910390a1505050565b8273ffffffffffffffffffffffffffffffffffffffff168273ffffffffffffffffffffffffffffffffffffffff1603611a63576040517f08c379a000000000000000000000000000000000000000000000000000000000815260206004820152601560248201527f4552433732313a2073656c662d617070726f76616c00000000000000000000006044820152606401610729565b73ffffffffffffffffffffffffffffffffffffffff8381166000818152602087815260408083209487168084529482529182902080547fffffffffffffffffffffffffffffffffffffffffffffffffffffffffffffff001686151590811790915591519182527f17307eab39ab6107e8899845ad3d59bd9653f200f220920489ca2b5937696c31910160405180910390a350505050565b61174c86868686868660016120eb565b606081600003611b4d57505060408051808201909152600181527f3000000000000000000000000000000000000000000000000000000000000000602082015290565b8160005b8115611b775780611b6181613505565b9150611b709050600a83613555565b9150611b51565b60008167ffffffffffffffff811115611b9257611b9261308f565b6040519080825280601f01601f191660200182016040528015611bbc576020820181803683370190505b5090506000611bcc600184613453565b90508593505b8315611c3557600a840660300160f81b82828060019003935081518110611bfb57611bfb6134d6565b60200101907effffffffffffffffffffffffffffffffffffffffffffffffffffffffffffff1916908160001a905350600a84049350611bd2565b50949350505050565b60008381526020858152604080832073ffffffffffffffffffffffffffffffffffffffff8616845290915290205460ff16156108815760008381526020858152604080832073ffffffffffffffffffffffffffffffffffffffff8681168086529184529382902080547fffffffffffffffffffffffffffffffffffffffffffffffffffffffffffffff00169055815187815292830152918316918101919091527ff6391f5c32d9c69d2a47ea670b442974b53935d1edc7fd64eb21e047a839171b90606001611582565b6000611d15858486612077565b825190915060005b818114611da7576000848281518110611d3857611d386134d6565b60200260200101519050611d51888888848860016125b8565b604051819060009073ffffffffffffffffffffffffffffffffffffffff8916907fddf252ad1be2c89b69c2b068fc378daa952ba7f163c4a11628f55a4df523b3ef908390a450611da081613505565b9050611d1d565b50801561174c5773ffffffffffffffffffffffffffffffffffffffff8416600090815260028701602052604081208054839290611de5908490613453565b9091555050505050505050565b825473ffffffffffffffffffffffffffffffffffffffff9081169083168114611e77576040517f08c379a000000000000000000000000000000000000000000000000000000000815260206004820152601860248201527f4f776e6572736869703a206e6f7420746865206f776e657200000000000000006044820152606401610729565b8173ffffffffffffffffffffffffffffffffffffffff168173ffffffffffffffffffffffffffffffffffffffff16146108815783547fffffffffffffffffffffffff00000000000000000000000000000000000000001673ffffffffffffffffffffffffffffffffffffffff8381169182178655604051908316907f8be0079c531659141344cd1fd0a4f28419497f9722a3daafe3b4186f6b6457e090600090a350505050565b73ffffffffffffffffffffffffffffffffffffffff8216611f9b576040517f08c379a000000000000000000000000000000000000000000000000000000000815260206004820152601860248201527f4552433732313a207472616e7366657220746f207a65726f00000000000000006044820152606401610729565b6000611fa8868587612077565b825190915060005b818114612051576000848281518110611fcb57611fcb6134d6565b60200260200101519050611fe58989898985896001612771565b808673ffffffffffffffffffffffffffffffffffffffff168873ffffffffffffffffffffffffffffffffffffffff167fddf252ad1be2c89b69c2b068fc378daa952ba7f163c4a11628f55a4df523b3ef60405160405180910390a45061204a81613505565b9050611fb0565b50801561206457612064878686846128f4565b50505050505050565b600061112261299a565b60008173ffffffffffffffffffffffffffffffffffffffff168373ffffffffffffffffffffffffffffffffffffffff1614806120e3575073ffffffffffffffffffffffffffffffffffffffff8084166000908152602086815260408083209386168352929052205460ff165b949350505050565b73ffffffffffffffffffffffffffffffffffffffff8416612168576040517f08c379a000000000000000000000000000000000000000000000000000000000815260206004820152601860248201527f4552433732313a207472616e7366657220746f207a65726f00000000000000006044820152606401610729565b6000612175888789612077565b90506121878888888888866000612771565b838573ffffffffffffffffffffffffffffffffffffffff168773ffffffffffffffffffffffffffffffffffffffff167fddf252ad1be2c89b69c2b068fc378daa952ba7f163c4a11628f55a4df523b3ef60405160405180910390a4818015612205575073ffffffffffffffffffffffffffffffffffffffff85163b15155b15612217576122178787878787612492565b5050505050505050565b366000610589612af2565b6060600082900361224b57505060408051602081019091526000815290565b60008260405160200161226091815260200190565b604080517fffffffffffffffffffffffffffffffffffffffffffffffffffffffffffffffe08184030181529190529050601f5b8181815181106122a5576122a56134d6565b01602001517fff00000000000000000000000000000000000000000000000000000000000000166000036122e3576122dc81613590565b9050612293565b60006122f082600161353d565b67ffffffffffffffff8111156123085761230861308f565b6040519080825280601f01601f191660200182016040528015612332576020820181803683370190505b50905060005b828111611c3557838181518110612351576123516134d6565b602001015160f81c60f81b82828151811061236e5761236e6134d6565b60200101907effffffffffffffffffffffffffffffffffffffffffffffffffffffffffffff1916908160001a9053506123a681613505565b9050612338565b600082815260018501602052604090205415612425576040517f08c379a000000000000000000000000000000000000000000000000000000000815260206004820152601a60248201527f4552433732313a206578697374696e672f6275726e74204e46540000000000006044820152606401610729565b6000828152600185016020526040902073ffffffffffffffffffffffffffffffffffffffff84169055806108815773ffffffffffffffffffffffffffffffffffffffff831660009081526002850160205260408120805490919061248890613505565b9091555050505050565b6040517f150b7a02000000000000000000000000000000000000000000000000000000008082529073ffffffffffffffffffffffffffffffffffffffff85169063150b7a02906124ec9089908990889088906004016135c5565b6020604051808303816000875af115801561250b573d6000803e3d6000fd5b505050506040513d601f19601f8201168201806040525081019061252f919061360e565b7fffffffff000000000000000000000000000000000000000000000000000000001614611402576040517f08c379a000000000000000000000000000000000000000000000000000000000815260206004820152601860248201527f4552433732313a207472616e73666572207265667573656400000000000000006044820152606401610729565b600083815260018701602052604090205473ffffffffffffffffffffffffffffffffffffffff8581169082161461264b576040517f08c379a000000000000000000000000000000000000000000000000000000000815260206004820152601560248201527f4552433732313a206e6f6e2d6f776e6564204e465400000000000000000000006044820152606401610729565b82612704577401000000000000000000000000000000000000000081161580159061269e5750600084815260038801602052604090205473ffffffffffffffffffffffffffffffffffffffff8781169116145b612704576040517f08c379a000000000000000000000000000000000000000000000000000000000815260206004820152601b60248201527f4552433732313a206e6f6e2d617070726f7665642073656e64657200000000006044820152606401610729565b600084815260018801602052604090207fdead0000000000000000000000000000000000000000000000000000000000009055816120645773ffffffffffffffffffffffffffffffffffffffff8516600090815260028801602052604081208054909190611de590613590565b600083815260018801602052604090205473ffffffffffffffffffffffffffffffffffffffff86811690821614612804576040517f08c379a000000000000000000000000000000000000000000000000000000000815260206004820152601560248201527f4552433732313a206e6f6e2d6f776e6564204e465400000000000000000000006044820152606401610729565b826128bd57740100000000000000000000000000000000000000008116158015906128575750600084815260038901602052604090205473ffffffffffffffffffffffffffffffffffffffff8881169116145b6128bd576040517f08c379a000000000000000000000000000000000000000000000000000000000815260206004820152601b60248201527f4552433732313a206e6f6e2d617070726f7665642073656e64657200000000006044820152606401610729565b6000848152600189016020526040902073ffffffffffffffffffffffffffffffffffffffff86169055816122175761221788878760015b8173ffffffffffffffffffffffffffffffffffffffff168373ffffffffffffffffffffffffffffffffffffffff16146108815773ffffffffffffffffffffffffffffffffffffffff831660009081526002850160205260408120805483929061295e908490613453565b909155505073ffffffffffffffffffffffffffffffffffffffff82166000908152600285016020526040812080548392906118b590849061353d565b6000333281036129a957919050565b6000367fffffffffffffffffffffffffffffffffffffffffffffffffffffffffffffffec013560601c90507f000000000000000000000000000000000000000000000000000000000000000073ffffffffffffffffffffffffffffffffffffffff168273ffffffffffffffffffffffffffffffffffffffff161480612ae157506040517fe60125d600000000000000000000000000000000000000000000000000000000815273ffffffffffffffffffffffffffffffffffffffff828116600483015283811660248301527f0000000000000000000000000000000000000000000000000000000000000000169063e60125d690604401602060405180830381865afa158015612abd573d6000803e3d6000fd5b505050506040513d601f19601f82011682018060405250810190612ae1919061362b565b15612aec5792915050565b50919050565b36600033328103612b0857506000923692509050565b7f000000000000000000000000000000000000000000000000000000000000000073ffffffffffffffffffffffffffffffffffffffff168173ffffffffffffffffffffffffffffffffffffffff161480612c55575073ffffffffffffffffffffffffffffffffffffffff7f00000000000000000000000000000000000000000000000000000000000000001663e60125d6367fffffffffffffffffffffffffffffffffffffffffffffffffffffffffffffffec013560601c6040517fffffffff0000000000000000000000000000000000000000000000000000000060e084901b16815273ffffffffffffffffffffffffffffffffffffffff91821660048201529084166024820152604401602060405180830381865afa158015612c31573d6000803e3d6000fd5b505050506040513d601f19601f82011682018060405250810190612c55919061362b565b15612c6b57612c62612c76565b92509250509091565b506000923692509050565b366000808083612c87601482613453565b9261058993929190613648565b828054612ca0906132de565b90600052602060002090601f016020900481019282612cc25760008555612d08565b82601f10612cdb57805160ff1916838001178555612d08565b82800160010185558215612d08579182015b82811115612d08578251825591602001919060010190612ced565b50612d14929150612d18565b5090565b5b80821115612d145760008155600101612d19565b7fffffffff00000000000000000000000000000000000000000000000000000000811681146108a257600080fd5b600060208284031215612d6d57600080fd5b813561090f81612d2d565b60005b83811015612d93578181015183820152602001612d7b565b838111156108815750506000910152565b60008151808452612dbc816020860160208601612d78565b601f017fffffffffffffffffffffffffffffffffffffffffffffffffffffffffffffffe0169290920160200192915050565b60208152600061090f6020830184612da4565b600060208284031215612e1357600080fd5b5035919050565b803573ffffffffffffffffffffffffffffffffffffffff81168114612e3e57600080fd5b919050565b60008060408385031215612e5657600080fd5b612e5f83612e1a565b946020939093013593505050565b600080600060608486031215612e8257600080fd5b612e8b84612e1a565b9250612e9960208501612e1a565b9150604084013590509250925092565b60008060408385031215612ebc57600080fd5b82359150612ecc60208401612e1a565b90509250929050565b60208152816020820152818360408301376000818301604090810191909152601f9092017fffffffffffffffffffffffffffffffffffffffffffffffffffffffffffffffe0160101919050565b600080600060408486031215612f3757600080fd5b612f4084612e1a565b9250602084013567ffffffffffffffff80821115612f5d57600080fd5b818601915086601f830112612f7157600080fd5b813581811115612f8057600080fd5b8760208260051b8501011115612f9557600080fd5b6020830194508093505050509250925092565b600060208284031215612fba57600080fd5b61090f82612e1a565b60008060008060608587031215612fd957600080fd5b612fe285612e1a565b935060208501359250604085013567ffffffffffffffff8082111561300657600080fd5b818701915087601f83011261301a57600080fd5b81358181111561302957600080fd5b88602082850101111561303b57600080fd5b95989497505060200194505050565b80151581146108a257600080fd5b6000806040838503121561306b57600080fd5b61307483612e1a565b915060208301356130848161304a565b809150509250929050565b7f4e487b7100000000000000000000000000000000000000000000000000000000600052604160045260246000fd5b604051601f82017fffffffffffffffffffffffffffffffffffffffffffffffffffffffffffffffe016810167ffffffffffffffff811182821017156131055761310561308f565b604052919050565b6000806000806080858703121561312357600080fd5b61312c85612e1a565b9350602061313b818701612e1a565b935060408601359250606086013567ffffffffffffffff8082111561315f57600080fd5b818801915088601f83011261317357600080fd5b8135818111156131855761318561308f565b6131b5847fffffffffffffffffffffffffffffffffffffffffffffffffffffffffffffffe0601f840116016130be565b915080825289848285010111156131cb57600080fd5b808484018584013760008482840101525080935050505092959194509250565b600080604083850312156131fe57600080fd5b61320783612e1a565b9150612ecc60208401612e1a565b60008060006060848603121561322a57600080fd5b61323384612e1a565b92506020613242818601612e1a565b9250604085013567ffffffffffffffff8082111561325f57600080fd5b818701915087601f83011261327357600080fd5b8135818111156132855761328561308f565b8060051b91506132968483016130be565b818152918301840191848101908a8411156132b057600080fd5b938501935b838510156132ce578435825293850193908501906132b5565b8096505050505050509250925092565b600181811c908216806132f257607f821691505b602082108103612aec577f4e487b7100000000000000000000000000000000000000000000000000000000600052602260045260246000fd5b6000815161333d818560208601612d78565b9290920192915050565b600080845481600182811c91508083168061336357607f831692505b6020808410820361339b577f4e487b710000000000000000000000000000000000000000000000000000000086526022600452602486fd5b8180156133af57600181146133de5761340b565b7fffffffffffffffffffffffffffffffffffffffffffffffffffffffffffffff0086168952848901965061340b565b60008b81526020902060005b868110156134035781548b8201529085019083016133ea565b505084890196505b50505050505061341b818561332b565b95945050505050565b7f4e487b7100000000000000000000000000000000000000000000000000000000600052601160045260246000fd5b60008282101561346557613465613424565b500390565b7f416363657373436f6e74726f6c3a206d697373696e67202700000000000000008152600082516134a2816018850160208701612d78565b7f2720726f6c6500000000000000000000000000000000000000000000000000006018939091019283015250601e01919050565b7f4e487b7100000000000000000000000000000000000000000000000000000000600052603260045260246000fd5b60007fffffffffffffffffffffffffffffffffffffffffffffffffffffffffffffffff820361353657613536613424565b5060010190565b6000821982111561355057613550613424565b500190565b60008261358b577f4e487b7100000000000000000000000000000000000000000000000000000000600052601260045260246000fd5b500490565b60008161359f5761359f613424565b507fffffffffffffffffffffffffffffffffffffffffffffffffffffffffffffffff0190565b600073ffffffffffffffffffffffffffffffffffffffff8087168352808616602084015250836040830152608060608301526136046080830184612da4565b9695505050505050565b60006020828403121561362057600080fd5b815161090f81612d2d565b60006020828403121561363d57600080fd5b815161090f8161304a565b6000808585111561365857600080fd5b8386111561366557600080fd5b505082019391909203915056fea2646970667358221220aa6dc131d4b79a7c0bfdeb8e0da6c373621e87113627d4b14e9cc1a80b6932ca64736f6c634300080d0033",
  "linkReferences": {},
  "deployedLinkReferences": {}
}