{
  "_format": "hh-sol-artifact-1",
  "contractName": "ERC721Mock",
  "sourceName": "contracts/mocks/token/ERC721/ERC721Mock.sol",
  "abi": [
    {
      "inputs": [
        {
          "internalType": "string",
          "name": "name_",
          "type": "string"
        },
        {
          "internalType": "string",
          "name": "symbol_",
          "type": "string"
        },
        {
          "internalType": "string",
          "name": "tokenURI_",
          "type": "string"
        },
        {
          "internalType": "contract IForwarderRegistry",
          "name": "forwarderRegistry",
          "type": "address"
        }
      ],
      "stateMutability": "nonpayable",
      "type": "constructor"
    },
    {
      "anonymous": false,
      "inputs": [
        {
          "indexed": true,
          "internalType": "address",
          "name": "owner",
          "type": "address"
        },
        {
          "indexed": true,
          "internalType": "address",
          "name": "approved",
          "type": "address"
        },
        {
          "indexed": true,
          "internalType": "uint256",
          "name": "tokenId",
          "type": "uint256"
        }
      ],
      "name": "Approval",
      "type": "event"
    },
    {
      "anonymous": false,
      "inputs": [
        {
          "indexed": true,
          "internalType": "address",
          "name": "owner",
          "type": "address"
        },
        {
          "indexed": true,
          "internalType": "address",
          "name": "operator",
          "type": "address"
        },
        {
          "indexed": false,
          "internalType": "bool",
          "name": "approved",
          "type": "bool"
        }
      ],
      "name": "ApprovalForAll",
      "type": "event"
    },
    {
      "anonymous": false,
      "inputs": [
        {
          "indexed": true,
          "internalType": "address",
          "name": "previousOwner",
          "type": "address"
        },
        {
          "indexed": true,
          "internalType": "address",
          "name": "newOwner",
          "type": "address"
        }
      ],
      "name": "OwnershipTransferred",
      "type": "event"
    },
    {
      "anonymous": false,
      "inputs": [
        {
          "indexed": false,
          "internalType": "bytes32",
          "name": "role",
          "type": "bytes32"
        },
        {
          "indexed": false,
          "internalType": "address",
          "name": "account",
          "type": "address"
        },
        {
          "indexed": false,
          "internalType": "address",
          "name": "operator",
          "type": "address"
        }
      ],
      "name": "RoleGranted",
      "type": "event"
    },
    {
      "anonymous": false,
      "inputs": [
        {
          "indexed": false,
          "internalType": "bytes32",
          "name": "role",
          "type": "bytes32"
        },
        {
          "indexed": false,
          "internalType": "address",
          "name": "account",
          "type": "address"
        },
        {
          "indexed": false,
          "internalType": "address",
          "name": "operator",
          "type": "address"
        }
      ],
      "name": "RoleRevoked",
      "type": "event"
    },
    {
      "anonymous": false,
      "inputs": [
        {
          "indexed": true,
          "internalType": "address",
          "name": "from",
          "type": "address"
        },
        {
          "indexed": true,
          "internalType": "address",
          "name": "to",
          "type": "address"
        },
        {
          "indexed": true,
          "internalType": "uint256",
          "name": "tokenId",
          "type": "uint256"
        }
      ],
      "name": "Transfer",
      "type": "event"
    },
    {
      "inputs": [],
      "name": "MINTER_ROLE",
      "outputs": [
        {
          "internalType": "bytes32",
          "name": "",
          "type": "bytes32"
        }
      ],
      "stateMutability": "view",
      "type": "function"
    },
    {
      "inputs": [],
      "name": "__msgData",
      "outputs": [
        {
          "internalType": "bytes",
          "name": "",
          "type": "bytes"
        }
      ],
      "stateMutability": "view",
      "type": "function"
    },
    {
      "inputs": [
        {
          "internalType": "address",
          "name": "to",
          "type": "address"
        },
        {
          "internalType": "uint256",
          "name": "tokenId",
          "type": "uint256"
        }
      ],
      "name": "approve",
      "outputs": [],
      "stateMutability": "nonpayable",
      "type": "function"
    },
    {
      "inputs": [
        {
          "internalType": "address",
          "name": "owner",
          "type": "address"
        }
      ],
      "name": "balanceOf",
      "outputs": [
        {
          "internalType": "uint256",
          "name": "",
          "type": "uint256"
        }
      ],
      "stateMutability": "view",
      "type": "function"
    },
    {
      "inputs": [
        {
          "internalType": "address",
          "name": "from",
          "type": "address"
        },
        {
          "internalType": "uint256[]",
          "name": "tokenIds",
          "type": "uint256[]"
        }
      ],
      "name": "batchBurnFrom",
      "outputs": [],
      "stateMutability": "nonpayable",
      "type": "function"
    },
    {
      "inputs": [
        {
          "internalType": "address",
          "name": "to",
          "type": "address"
        },
        {
          "internalType": "uint256[]",
          "name": "tokenIds",
          "type": "uint256[]"
        }
      ],
      "name": "batchMint",
      "outputs": [],
      "stateMutability": "nonpayable",
      "type": "function"
    },
    {
      "inputs": [
        {
          "internalType": "address",
          "name": "from",
          "type": "address"
        },
        {
          "internalType": "address",
          "name": "to",
          "type": "address"
        },
        {
          "internalType": "uint256[]",
          "name": "tokenIds",
          "type": "uint256[]"
        }
      ],
      "name": "batchTransferFrom",
      "outputs": [],
      "stateMutability": "nonpayable",
      "type": "function"
    },
    {
      "inputs": [
        {
          "internalType": "address",
          "name": "from",
          "type": "address"
        },
        {
          "internalType": "uint256",
          "name": "tokenId",
          "type": "uint256"
        }
      ],
      "name": "burnFrom",
      "outputs": [],
      "stateMutability": "nonpayable",
      "type": "function"
    },
    {
      "inputs": [
        {
          "internalType": "uint256",
          "name": "tokenId",
          "type": "uint256"
        }
      ],
      "name": "getApproved",
      "outputs": [
        {
          "internalType": "address",
          "name": "operator",
          "type": "address"
        }
      ],
      "stateMutability": "view",
      "type": "function"
    },
    {
      "inputs": [
        {
          "internalType": "bytes32",
          "name": "role",
          "type": "bytes32"
        },
        {
          "internalType": "address",
          "name": "account",
          "type": "address"
        }
      ],
      "name": "grantRole",
      "outputs": [],
      "stateMutability": "nonpayable",
      "type": "function"
    },
    {
      "inputs": [
        {
          "internalType": "bytes32",
          "name": "role",
          "type": "bytes32"
        },
        {
          "internalType": "address",
          "name": "account",
          "type": "address"
        }
      ],
      "name": "hasRole",
      "outputs": [
        {
          "internalType": "bool",
          "name": "",
          "type": "bool"
        }
      ],
      "stateMutability": "view",
      "type": "function"
    },
    {
      "inputs": [
        {
          "internalType": "address",
          "name": "owner",
          "type": "address"
        },
        {
          "internalType": "address",
          "name": "operator",
          "type": "address"
        }
      ],
      "name": "isApprovedForAll",
      "outputs": [
        {
          "internalType": "bool",
          "name": "",
          "type": "bool"
        }
      ],
      "stateMutability": "view",
      "type": "function"
    },
    {
      "inputs": [
        {
          "internalType": "address",
          "name": "to",
          "type": "address"
        },
        {
          "internalType": "uint256",
          "name": "tokenId",
          "type": "uint256"
        }
      ],
      "name": "mint",
      "outputs": [],
      "stateMutability": "nonpayable",
      "type": "function"
    },
    {
      "inputs": [],
      "name": "name",
      "outputs": [
        {
          "internalType": "string",
          "name": "",
          "type": "string"
        }
      ],
      "stateMutability": "view",
      "type": "function"
    },
    {
      "inputs": [],
      "name": "owner",
      "outputs": [
        {
          "internalType": "address",
          "name": "",
          "type": "address"
        }
      ],
      "stateMutability": "view",
      "type": "function"
    },
    {
      "inputs": [
        {
          "internalType": "uint256",
          "name": "tokenId",
          "type": "uint256"
        }
      ],
      "name": "ownerOf",
      "outputs": [
        {
          "internalType": "address",
          "name": "",
          "type": "address"
        }
      ],
      "stateMutability": "view",
      "type": "function"
    },
    {
      "inputs": [
        {
          "internalType": "bytes32",
          "name": "role",
          "type": "bytes32"
        }
      ],
      "name": "renounceRole",
      "outputs": [],
      "stateMutability": "nonpayable",
      "type": "function"
    },
    {
      "inputs": [
        {
          "internalType": "bytes32",
          "name": "role",
          "type": "bytes32"
        },
        {
          "internalType": "address",
          "name": "account",
          "type": "address"
        }
      ],
      "name": "revokeRole",
      "outputs": [],
      "stateMutability": "nonpayable",
      "type": "function"
    },
    {
      "inputs": [
        {
          "internalType": "address",
          "name": "to",
          "type": "address"
        },
        {
          "internalType": "uint256",
          "name": "tokenId",
          "type": "uint256"
        },
        {
          "internalType": "bytes",
          "name": "data",
          "type": "bytes"
        }
      ],
      "name": "safeMint",
      "outputs": [],
      "stateMutability": "nonpayable",
      "type": "function"
    },
    {
      "inputs": [
        {
          "internalType": "address",
          "name": "from",
          "type": "address"
        },
        {
          "internalType": "address",
          "name": "to",
          "type": "address"
        },
        {
          "internalType": "uint256",
          "name": "tokenId",
          "type": "uint256"
        }
      ],
      "name": "safeTransferFrom",
      "outputs": [],
      "stateMutability": "nonpayable",
      "type": "function"
    },
    {
      "inputs": [
        {
          "internalType": "address",
          "name": "from",
          "type": "address"
        },
        {
          "internalType": "address",
          "name": "to",
          "type": "address"
        },
        {
          "internalType": "uint256",
          "name": "tokenId",
          "type": "uint256"
        },
        {
          "internalType": "bytes",
          "name": "_data",
          "type": "bytes"
        }
      ],
      "name": "safeTransferFrom",
      "outputs": [],
      "stateMutability": "nonpayable",
      "type": "function"
    },
    {
      "inputs": [
        {
          "internalType": "address",
          "name": "operator",
          "type": "address"
        },
        {
          "internalType": "bool",
          "name": "_approved",
          "type": "bool"
        }
      ],
      "name": "setApprovalForAll",
      "outputs": [],
      "stateMutability": "nonpayable",
      "type": "function"
    },
    {
      "inputs": [
        {
          "internalType": "bytes4",
          "name": "interfaceId",
          "type": "bytes4"
        }
      ],
      "name": "supportsInterface",
      "outputs": [
        {
          "internalType": "bool",
          "name": "",
          "type": "bool"
        }
      ],
      "stateMutability": "view",
      "type": "function"
    },
    {
      "inputs": [],
      "name": "symbol",
      "outputs": [
        {
          "internalType": "string",
          "name": "",
          "type": "string"
        }
      ],
      "stateMutability": "view",
      "type": "function"
    },
    {
      "inputs": [
        {
          "internalType": "uint256",
          "name": "tokenId",
          "type": "uint256"
        }
      ],
      "name": "tokenURI",
      "outputs": [
        {
          "internalType": "string",
          "name": "",
          "type": "string"
        }
      ],
      "stateMutability": "view",
      "type": "function"
    },
    {
      "inputs": [
        {
          "internalType": "address",
          "name": "from",
          "type": "address"
        },
        {
          "internalType": "address",
          "name": "to",
          "type": "address"
        },
        {
          "internalType": "uint256",
          "name": "tokenId",
          "type": "uint256"
        }
      ],
      "name": "transferFrom",
      "outputs": [],
      "stateMutability": "nonpayable",
      "type": "function"
    },
    {
      "inputs": [
        {
          "internalType": "address",
          "name": "newOwner",
          "type": "address"
        }
      ],
      "name": "transferOwnership",
      "outputs": [],
      "stateMutability": "nonpayable",
      "type": "function"
    }
  ],
  "bytecode": "0x60a06040523480156200001157600080fd5b5060405162003faf38038062003faf8339810160408190526200003491620007ae565b8383838380336200006462000053620001ab60201b62000a151760201c565b620001e160201b62000a431760201c565b6200008e6200007d6200024e60201b62000aad1760201c565b6200027e60201b62000adb1760201c565b620000bc81620000a8620002d360201b62000b351760201c565b6200030360201b62000b631790919060201c565b50620000f5638e773e1360e01b6001620000e06200024e60201b62000aad1760201c565b620003b260201b62000c47179092919060201c565b6001600160a01b03166080525062000126638b8b4ef560e01b6001620000e06200024e602090811b62000aad17901c565b6200014963f3993d1160e01b6001620000e06200024e60201b62000aad1760201c565b6200017b838383620001656200044060201b62000d371760201c565b6200047060201b62000d6517909392919060201c565b6200019e635b5e139f60e01b6001620000e06200024e60201b62000aad1760201c565b50505050505050620008c3565b600080620001db60017fddf3ee18ae6d688373c219468f8be446e7ae82215f4779d821c7ea5e8c13c0c162000861565b92915050565b620002286200021260017ffddcdbf8ca7eb362a678daf3643ce3cf98ebf69ac314d25d376d5aeabd2f533262000861565b60001b60016200050f60201b62000de81760201c565b6200024b6380ac58cd60e01b6001620000e06200024e60201b62000aad1760201c565b50565b600080620001db60017f7180ffa89c91cf90d6c56dacabfc69bc5e36f3099d7eed2f5cc12c5dba016fe062000861565b620002af6200021260017f947245cdabe12ef4c13574b38217b361de48f57dd2dc345f43703c79bac2873d62000861565b6200024b6301ffc9a760e01b600183620003b260201b62000c47179092919060201c565b600080620001db60017f6a1da6973104ff7dedb9b4f5cab5830b3f4a0284ed754366cfc45568bd2d38df62000861565b620003346200021260017ff1e2f4de496ffe5d046d751d8ec3c329ee011c6c6a229322971a7e02a207f97362000861565b6001600160a01b038116156200038b5781546001600160a01b0319166001600160a01b03821690811783556040516000907f8be0079c531659141344cd1fd0a4f28419497f9722a3daafe3b4186f6b6457e0908290a35b620003ae6307f5828d60e41b6001620000e06200024e60201b62000aad1760201c565b5050565b6001600160e01b03198083169003620004125760405162461bcd60e51b815260206004820152601f60248201527f496e74657266616365446574656374696f6e3a2077726f6e672076616c75650060448201526064015b60405180910390fd5b6001600160e01b03199190911660009081526020929092526040909120805460ff1916911515919091179055565b600080620001db60017f5f5773833f4966721eb3773ed87c7208ea74d78f0d94de1d8074345cac67333f62000861565b620004a16200021260017fdf2ee7965c9504dc84db8f7759fc283282800c5a2fa3704c9f07f446b3b40a3f62000861565b620004d18383620004bc6200058260201b62000e581760201c565b620005b260201b62000e86179092919060201c565b8051620004e590859060208401906200063b565b5062000509635b5e139f60e01b6001620000e06200024e60201b62000aad1760201c565b50505050565b600062000527836200063860201b62000f0b1760201c565b9050818160000154106200057e5760405162461bcd60e51b815260206004820152601860248201527f53746f726167653a2076657273696f6e20726561636865640000000000000000604482015260640162000409565b5550565b600080620001db60017f9c4269c0f9f430d98876ffe9767fbf3f3232ea91a549beb549e5329532520eb362000861565b620005e36200021260017fa057eeb6560fae2987973d3bf40b89e6da66dd0b6aadac05dc6b5b0d7a8d455762000861565b8151620005f790849060208501906200063b565b5080516200060f90600185019060208401906200063b565b5062000633635b5e139f60e01b6001620000e06200024e60201b62000aad1760201c565b505050565b90565b828054620006499062000887565b90600052602060002090601f0160209004810192826200066d5760008555620006b8565b82601f106200068857805160ff1916838001178555620006b8565b82800160010185558215620006b8579182015b82811115620006b85782518255916020019190600101906200069b565b50620006c6929150620006ca565b5090565b5b80821115620006c65760008155600101620006cb565b634e487b7160e01b600052604160045260246000fd5b600082601f8301126200070957600080fd5b81516001600160401b0380821115620007265762000726620006e1565b604051601f8301601f19908116603f01168101908282118183101715620007515762000751620006e1565b816040528381526020925086838588010111156200076e57600080fd5b600091505b8382101562000792578582018301518183018401529082019062000773565b83821115620007a45760008385830101525b9695505050505050565b60008060008060808587031215620007c557600080fd5b84516001600160401b0380821115620007dd57600080fd5b620007eb88838901620006f7565b955060208701519150808211156200080257600080fd5b6200081088838901620006f7565b945060408701519150808211156200082757600080fd5b506200083687828801620006f7565b606087015190935090506001600160a01b03811681146200085657600080fd5b939692955090935050565b6000828210156200088257634e487b7160e01b600052601160045260246000fd5b500390565b600181811c908216806200089c57607f821691505b602082108103620008bd57634e487b7160e01b600052602260045260246000fd5b50919050565b6080516136bb620008f4600039600081816129e901528181612a8901528181612b1d0152612b8701526136bb6000f3fe608060405234801561001057600080fd5b50600436106101b95760003560e01c80638832e6e3116100f9578063c87b56dd11610097578063e985e9c511610071578063e985e9c5146103c0578063f2472965146103d3578063f2fde38b146103e6578063f3993d11146103f957600080fd5b8063c87b56dd14610373578063d539139314610386578063d547741f146103ad57600080fd5b806391d14854116100d357806391d148541461033257806395d89b4114610345578063a22cb4651461034d578063b88d4fde1461036057600080fd5b80638832e6e3146103045780638bb9c5bf146103175780638da5cb5b1461032a57600080fd5b806331e66e1e116101665780634684d7e9116101405780634684d7e9146102aa5780636352211e146102bd57806370a08231146102d057806379cc6790146102f157600080fd5b806331e66e1e1461026e57806340c10f191461028457806342842e0e1461029757600080fd5b8063095ea7b311610197578063095ea7b31461023357806323b872dd146102485780632f2ff15d1461025b57600080fd5b806301ffc9a7146101be57806306fdde03146101e6578063081812fc146101fb575b600080fd5b6101d16101cc366004612d6e565b61040c565b60405190151581526020015b60405180910390f35b6101ee610459565b6040516101dd9190612e01565b61020e610209366004612e14565b6104f1565b60405173ffffffffffffffffffffffffffffffffffffffff90911681526020016101dd565b610246610241366004612e56565b610505565b005b610246610256366004612e80565b610526565b610246610269366004612ebc565b61054a565b61027661057e565b6040516101dd929190612ee8565b610246610292366004612e56565b610591565b6102466102a5366004612e80565b6105fd565b6102466102b8366004612f35565b61061c565b61020e6102cb366004612e14565b610690565b6102e36102de366004612fbb565b6106a4565b6040519081526020016101dd565b6102466102ff366004612e56565b6106b8565b610246610312366004612fd6565b6106d5565b610246610325366004612e14565b610757565b61020e610775565b6101d1610340366004612ebc565b61079b565b6101ee6107e6565b61024661035b36600461306b565b6107fe565b61024661036e366004613120565b61081b565b6101ee610381366004612e14565b61083c565b6102e37f6d696e746572000000000000000000000000000000000000000000000000000081565b6102466103bb366004612ebc565b610915565b6101d16103ce3660046131fe565b610943565b6102466103e1366004612f35565b61098a565b6102466103f4366004612fbb565b6109db565b610246610407366004613228565b6109f6565b60006104538261041a610aad565b907fffffffff00000000000000000000000000000000000000000000000000000000166000908152602091909152604090205460ff1690565b92915050565b6060610463610e58565b805461046e906132f1565b80601f016020809104026020016040519081016040528092919081815260200182805461049a906132f1565b80156104e75780601f106104bc576101008083540402835291602001916104e7565b820191906000526020600020905b8154815290600101906020018083116104ca57829003601f168201915b5050505050905090565b6000610453826104ff610a15565b90610f0e565b610522610510610ff1565b838361051a610a15565b929190611000565b5050565b610545610531610ff1565b84848461053c610a15565b939291906112bc565b505050565b6000610554610ff1565b905061056881610562610b35565b906112e2565b610545838383610576611365565b929190611393565b366000610589611469565b915091509091565b6105cc7f6d696e74657200000000000000000000000000000000000000000000000000006105bd610ff1565b6105c5611365565b9190611474565b6105226105d7610ff1565b83836040518060200160405280600081525060006105f3610a15565b9493929190611520565b610545610608610ff1565b848484610613610a15565b9392919061162d565b6106487f6d696e74657200000000000000000000000000000000000000000000000000006105bd610ff1565b610545838383808060200260200160405190810160405280939291908181526020018383602002808284376000920191909152506106899250610a15915050565b919061164c565b60006104538261069e610a15565b90611799565b6000610453826106b2610a15565b90611827565b6105226106c3610ff1565b83836106cd610a15565b9291906118d3565b6107017f6d696e74657200000000000000000000000000000000000000000000000000006105bd610ff1565b61075161070c610ff1565b858585858080601f016020809104026020016040519081016040528093929190818152602001838380828437600092019190915250600192506105f39150610a159050565b50505050565b610772610762610ff1565b8261076b611365565b919061193d565b50565b600061077f610b35565b5473ffffffffffffffffffffffffffffffffffffffff16919050565b60006107df83836107aa611365565b60009283526020908152604080842073ffffffffffffffffffffffffffffffffffffffff909316845291905290205460ff1690565b9392505050565b60606107f0610e58565b600101805461046e906132f1565b610522610809610ff1565b8383610813610a15565b9291906119e1565b610751610826610ff1565b85858585610832610a15565b9493929190611b0d565b60606000610848610a15565b6000848152600191909101602052604090205473ffffffffffffffffffffffffffffffffffffffff16036108dd576040517f08c379a000000000000000000000000000000000000000000000000000000000815260206004820152601860248201527f4552433732313a206e6f6e2d6578697374696e67204e4654000000000000000060448201526064015b60405180910390fd5b6108e5610d37565b6108ee83611b1d565b6040516020016108ff92919061335a565b6040516020818303038152906040529050919050565b600061091f610ff1565b905061092d81610562610b35565b61054583838361093b611365565b929190611c51565b60006107df8383610952610a15565b73ffffffffffffffffffffffffffffffffffffffff928316600090815260209182526040808220939094168152919052205460ff1690565b610545610995610ff1565b848484808060200260200160405190810160405280939291908181526020018383602002808284376000920191909152506109d39250610a15915050565b929190611d1b565b6107726109e6610ff1565b826109ef610b35565b9190611e05565b610545610a01610ff1565b848484610a0c610a15565b93929190611f31565b60008061045360017fddf3ee18ae6d688373c219468f8be446e7ae82215f4779d821c7ea5e8c13c0c1613466565b610a78610a7160017ffddcdbf8ca7eb362a678daf3643ce3cf98ebf69ac314d25d376d5aeabd2f5332613466565b6001610de8565b6107727f80ac58cd000000000000000000000000000000000000000000000000000000006001610aa6610aad565b9190610c47565b60008061045360017f7180ffa89c91cf90d6c56dacabfc69bc5e36f3099d7eed2f5cc12c5dba016fe0613466565b610b09610a7160017f947245cdabe12ef4c13574b38217b361de48f57dd2dc345f43703c79bac2873d613466565b610772817f01ffc9a7000000000000000000000000000000000000000000000000000000006001610c47565b60008061045360017f6a1da6973104ff7dedb9b4f5cab5830b3f4a0284ed754366cfc45568bd2d38df613466565b610b91610a7160017ff1e2f4de496ffe5d046d751d8ec3c329ee011c6c6a229322971a7e02a207f973613466565b73ffffffffffffffffffffffffffffffffffffffff811615610c195781547fffffffffffffffffffffffff00000000000000000000000000000000000000001673ffffffffffffffffffffffffffffffffffffffff821690811783556040516000907f8be0079c531659141344cd1fd0a4f28419497f9722a3daafe3b4186f6b6457e0908290a35b6105227f7f5828d0000000000000000000000000000000000000000000000000000000006001610aa6610aad565b7fffffffff000000000000000000000000000000000000000000000000000000008083169003610cd3576040517f08c379a000000000000000000000000000000000000000000000000000000000815260206004820152601f60248201527f496e74657266616365446574656374696f6e3a2077726f6e672076616c75650060448201526064016108d4565b7fffffffff00000000000000000000000000000000000000000000000000000000919091166000908152602092909252604090912080547fffffffffffffffffffffffffffffffffffffffffffffffffffffffffffffff0016911515919091179055565b60008061045360017f5f5773833f4966721eb3773ed87c7208ea74d78f0d94de1d8074345cac67333f613466565b610d93610a7160017fdf2ee7965c9504dc84db8f7759fc283282800c5a2fa3704c9f07f446b3b40a3f613466565b610da78383610da0610e58565b9190610e86565b8051610db99085906020840190612ca7565b506107517f5b5e139f000000000000000000000000000000000000000000000000000000006001610aa6610aad565b815482908211610e54576040517f08c379a000000000000000000000000000000000000000000000000000000000815260206004820152601860248201527f53746f726167653a2076657273696f6e2072656163686564000000000000000060448201526064016108d4565b5550565b60008061045360017f9c4269c0f9f430d98876ffe9767fbf3f3232ea91a549beb549e5329532520eb3613466565b610eb4610a7160017fa057eeb6560fae2987973d3bf40b89e6da66dd0b6aadac05dc6b5b0d7a8d4557613466565b8151610ec69084906020850190612ca7565b508051610edc9060018501906020840190612ca7565b506105457f5b5e139f000000000000000000000000000000000000000000000000000000006001610aa6610aad565b90565b600081815260018301602052604081205473ffffffffffffffffffffffffffffffffffffffff8116610f9c576040517f08c379a000000000000000000000000000000000000000000000000000000000815260206004820152601860248201527f4552433732313a206e6f6e2d6578697374696e67204e4654000000000000000060448201526064016108d4565b74010000000000000000000000000000000000000000811615610fe7575050600081815260038301602052604090205473ffffffffffffffffffffffffffffffffffffffff16610453565b6000915050610453565b6000610ffb612080565b905090565b60008181526001850160205260408120549081900361107b576040517f08c379a000000000000000000000000000000000000000000000000000000000815260206004820152601860248201527f4552433732313a206e6f6e2d6578697374696e67204e4654000000000000000060448201526064016108d4565b8073ffffffffffffffffffffffffffffffffffffffff808216908516036110fe576040517f08c379a000000000000000000000000000000000000000000000000000000000815260206004820152601560248201527f4552433732313a2073656c662d617070726f76616c000000000000000000000060448201526064016108d4565b61110986828761208a565b61116f576040517f08c379a000000000000000000000000000000000000000000000000000000000815260206004820152601b60248201527f4552433732313a206e6f6e2d617070726f7665642073656e646572000000000060448201526064016108d4565b73ffffffffffffffffffffffffffffffffffffffff84166111d657740100000000000000000000000000000000000000008216156111d1576000838152600187016020526040902073ffffffffffffffffffffffffffffffffffffffff821690555b611259565b74010000000000000000000000000000000000000000821780831461120957600084815260018801602052604090208190555b506000838152600387016020526040902080547fffffffffffffffffffffffff00000000000000000000000000000000000000001673ffffffffffffffffffffffffffffffffffffffff86161790555b828473ffffffffffffffffffffffffffffffffffffffff168273ffffffffffffffffffffffffffffffffffffffff167f8c5be1e5ebec7d5bd14f71427d1e84f3dd0314c0f7b2291e5b200ac8c7c3b92560405160405180910390a4505050505050565b6112db85858585856040518060200160405280600081525060006120fe565b5050505050565b815473ffffffffffffffffffffffffffffffffffffffff828116911614610522576040517f08c379a000000000000000000000000000000000000000000000000000000000815260206004820152601860248201527f4f776e6572736869703a206e6f7420746865206f776e6572000000000000000060448201526064016108d4565b60008061045360017fc8a24fbf085abf1493c5f225802d03df3ece6cd19f18edff36c56d854cddac9e613466565b60008381526020858152604080832073ffffffffffffffffffffffffffffffffffffffff8616845290915290205460ff166107515760008381526020858152604080832073ffffffffffffffffffffffffffffffffffffffff8681168086529184529382902080547fffffffffffffffffffffffffffffffffffffffffffffffffffffffffffffff00166001179055815187815292830152918316918101919091527f2f8788117e7eff1d82e926ec794901d17c78024a50270940304540a733656f0d906060015b60405180910390a150505050565b366000610589612234565b60008281526020848152604080832073ffffffffffffffffffffffffffffffffffffffff8516845290915290205460ff16610545576114b28261223f565b6040516020016114c2919061347d565b604080517fffffffffffffffffffffffffffffffffffffffffffffffffffffffffffffffe0818403018152908290527f08c379a00000000000000000000000000000000000000000000000000000000082526108d491600401612e01565b73ffffffffffffffffffffffffffffffffffffffff841661159d576040517f08c379a000000000000000000000000000000000000000000000000000000000815260206004820152601460248201527f4552433732313a206d696e7420746f207a65726f00000000000000000000000060448201526064016108d4565b6115aa86858560006123c0565b604051839073ffffffffffffffffffffffffffffffffffffffff8616906000907fddf252ad1be2c89b69c2b068fc378daa952ba7f163c4a11628f55a4df523b3ef908290a4808015611612575073ffffffffffffffffffffffffffffffffffffffff84163b15155b15611625576116258560008686866124a5565b505050505050565b6112db85858585856040518060200160405280600081525060016120fe565b73ffffffffffffffffffffffffffffffffffffffff82166116c9576040517f08c379a000000000000000000000000000000000000000000000000000000000815260206004820152601460248201527f4552433732313a206d696e7420746f207a65726f00000000000000000000000060448201526064016108d4565b805160005b8181146117565760008382815181106116e9576116e96134e9565b6020026020010151905061170086868360016123c0565b604051819073ffffffffffffffffffffffffffffffffffffffff8716906000907fddf252ad1be2c89b69c2b068fc378daa952ba7f163c4a11628f55a4df523b3ef908290a45061174f81613518565b90506116ce565b5073ffffffffffffffffffffffffffffffffffffffff831660009081526002850160205260408120805483929061178e908490613550565b909155505050505050565b600081815260018301602052604081205473ffffffffffffffffffffffffffffffffffffffff81166107df576040517f08c379a000000000000000000000000000000000000000000000000000000000815260206004820152601860248201527f4552433732313a206e6f6e2d6578697374696e67204e4654000000000000000060448201526064016108d4565b600073ffffffffffffffffffffffffffffffffffffffff82166118a6576040517f08c379a000000000000000000000000000000000000000000000000000000000815260206004820152601460248201527f4552433732313a207a65726f206164647265737300000000000000000000000060448201526064016108d4565b5073ffffffffffffffffffffffffffffffffffffffff166000908152600291909101602052604090205490565b60006118e085848661208a565b90506118f1858585858560006125cb565b604051829060009073ffffffffffffffffffffffffffffffffffffffff8616907fddf252ad1be2c89b69c2b068fc378daa952ba7f163c4a11628f55a4df523b3ef908390a45050505050565b611948838284611474565b60008181526020848152604080832073ffffffffffffffffffffffffffffffffffffffff86168085529083529281902080547fffffffffffffffffffffffffffffffffffffffffffffffffffffffffffffff0016905580518481529182018390528101919091527ff6391f5c32d9c69d2a47ea670b442974b53935d1edc7fd64eb21e047a839171b9060600160405180910390a1505050565b8273ffffffffffffffffffffffffffffffffffffffff168273ffffffffffffffffffffffffffffffffffffffff1603611a76576040517f08c379a000000000000000000000000000000000000000000000000000000000815260206004820152601560248201527f4552433732313a2073656c662d617070726f76616c000000000000000000000060448201526064016108d4565b73ffffffffffffffffffffffffffffffffffffffff8381166000818152602087815260408083209487168084529482529182902080547fffffffffffffffffffffffffffffffffffffffffffffffffffffffffffffff001686151590811790915591519182527f17307eab39ab6107e8899845ad3d59bd9653f200f220920489ca2b5937696c31910160405180910390a350505050565b61162586868686868660016120fe565b606081600003611b6057505060408051808201909152600181527f3000000000000000000000000000000000000000000000000000000000000000602082015290565b8160005b8115611b8a5780611b7481613518565b9150611b839050600a83613568565b9150611b64565b60008167ffffffffffffffff811115611ba557611ba56130a2565b6040519080825280601f01601f191660200182016040528015611bcf576020820181803683370190505b5090506000611bdf600184613466565b90508593505b8315611c4857600a840660300160f81b82828060019003935081518110611c0e57611c0e6134e9565b60200101907effffffffffffffffffffffffffffffffffffffffffffffffffffffffffffff1916908160001a905350600a84049350611be5565b50949350505050565b60008381526020858152604080832073ffffffffffffffffffffffffffffffffffffffff8616845290915290205460ff16156107515760008381526020858152604080832073ffffffffffffffffffffffffffffffffffffffff8681168086529184529382902080547fffffffffffffffffffffffffffffffffffffffffffffffffffffffffffffff00169055815187815292830152918316918101919091527ff6391f5c32d9c69d2a47ea670b442974b53935d1edc7fd64eb21e047a839171b9060600161145b565b6000611d2885848661208a565b825190915060005b818114611dba576000848281518110611d4b57611d4b6134e9565b60200260200101519050611d64888888848860016125cb565b604051819060009073ffffffffffffffffffffffffffffffffffffffff8916907fddf252ad1be2c89b69c2b068fc378daa952ba7f163c4a11628f55a4df523b3ef908390a450611db381613518565b9050611d30565b5080156116255773ffffffffffffffffffffffffffffffffffffffff8416600090815260028701602052604081208054839290611df8908490613466565b9091555050505050505050565b825473ffffffffffffffffffffffffffffffffffffffff9081169083168114611e8a576040517f08c379a000000000000000000000000000000000000000000000000000000000815260206004820152601860248201527f4f776e6572736869703a206e6f7420746865206f776e6572000000000000000060448201526064016108d4565b8173ffffffffffffffffffffffffffffffffffffffff168173ffffffffffffffffffffffffffffffffffffffff16146107515783547fffffffffffffffffffffffff00000000000000000000000000000000000000001673ffffffffffffffffffffffffffffffffffffffff8381169182178655604051908316907f8be0079c531659141344cd1fd0a4f28419497f9722a3daafe3b4186f6b6457e090600090a350505050565b73ffffffffffffffffffffffffffffffffffffffff8216611fae576040517f08c379a000000000000000000000000000000000000000000000000000000000815260206004820152601860248201527f4552433732313a207472616e7366657220746f207a65726f000000000000000060448201526064016108d4565b6000611fbb86858761208a565b825190915060005b818114612064576000848281518110611fde57611fde6134e9565b60200260200101519050611ff88989898985896001612784565b808673ffffffffffffffffffffffffffffffffffffffff168873ffffffffffffffffffffffffffffffffffffffff167fddf252ad1be2c89b69c2b068fc378daa952ba7f163c4a11628f55a4df523b3ef60405160405180910390a45061205d81613518565b9050611fc3565b5080156120775761207787868684612907565b50505050505050565b6000610ffb6129ad565b60008173ffffffffffffffffffffffffffffffffffffffff168373ffffffffffffffffffffffffffffffffffffffff1614806120f6575073ffffffffffffffffffffffffffffffffffffffff8084166000908152602086815260408083209386168352929052205460ff165b949350505050565b73ffffffffffffffffffffffffffffffffffffffff841661217b576040517f08c379a000000000000000000000000000000000000000000000000000000000815260206004820152601860248201527f4552433732313a207472616e7366657220746f207a65726f000000000000000060448201526064016108d4565b600061218888878961208a565b905061219a8888888888866000612784565b838573ffffffffffffffffffffffffffffffffffffffff168773ffffffffffffffffffffffffffffffffffffffff167fddf252ad1be2c89b69c2b068fc378daa952ba7f163c4a11628f55a4df523b3ef60405160405180910390a4818015612218575073ffffffffffffffffffffffffffffffffffffffff85163b15155b1561222a5761222a87878787876124a5565b5050505050505050565b366000610589612b05565b6060600082900361225e57505060408051602081019091526000815290565b60008260405160200161227391815260200190565b604080517fffffffffffffffffffffffffffffffffffffffffffffffffffffffffffffffe08184030181529190529050601f5b8181815181106122b8576122b86134e9565b01602001517fff00000000000000000000000000000000000000000000000000000000000000166000036122f6576122ef816135a3565b90506122a6565b6000612303826001613550565b67ffffffffffffffff81111561231b5761231b6130a2565b6040519080825280601f01601f191660200182016040528015612345576020820181803683370190505b50905060005b828111611c4857838181518110612364576123646134e9565b602001015160f81c60f81b828281518110612381576123816134e9565b60200101907effffffffffffffffffffffffffffffffffffffffffffffffffffffffffffff1916908160001a9053506123b981613518565b905061234b565b600082815260018501602052604090205415612438576040517f08c379a000000000000000000000000000000000000000000000000000000000815260206004820152601a60248201527f4552433732313a206578697374696e672f6275726e74204e465400000000000060448201526064016108d4565b6000828152600185016020526040902073ffffffffffffffffffffffffffffffffffffffff84169055806107515773ffffffffffffffffffffffffffffffffffffffff831660009081526002850160205260408120805490919061249b90613518565b9091555050505050565b6040517f150b7a02000000000000000000000000000000000000000000000000000000008082529073ffffffffffffffffffffffffffffffffffffffff85169063150b7a02906124ff9089908990889088906004016135d8565b6020604051808303816000875af115801561251e573d6000803e3d6000fd5b505050506040513d601f19601f820116820180604052508101906125429190613621565b7fffffffff0000000000000000000000000000000000000000000000000000000016146112db576040517f08c379a000000000000000000000000000000000000000000000000000000000815260206004820152601860248201527f4552433732313a207472616e736665722072656675736564000000000000000060448201526064016108d4565b600083815260018701602052604090205473ffffffffffffffffffffffffffffffffffffffff8581169082161461265e576040517f08c379a000000000000000000000000000000000000000000000000000000000815260206004820152601560248201527f4552433732313a206e6f6e2d6f776e6564204e4654000000000000000000000060448201526064016108d4565b8261271757740100000000000000000000000000000000000000008116158015906126b15750600084815260038801602052604090205473ffffffffffffffffffffffffffffffffffffffff8781169116145b612717576040517f08c379a000000000000000000000000000000000000000000000000000000000815260206004820152601b60248201527f4552433732313a206e6f6e2d617070726f7665642073656e646572000000000060448201526064016108d4565b600084815260018801602052604090207fdead0000000000000000000000000000000000000000000000000000000000009055816120775773ffffffffffffffffffffffffffffffffffffffff8516600090815260028801602052604081208054909190611df8906135a3565b600083815260018801602052604090205473ffffffffffffffffffffffffffffffffffffffff86811690821614612817576040517f08c379a000000000000000000000000000000000000000000000000000000000815260206004820152601560248201527f4552433732313a206e6f6e2d6f776e6564204e4654000000000000000000000060448201526064016108d4565b826128d0577401000000000000000000000000000000000000000081161580159061286a5750600084815260038901602052604090205473ffffffffffffffffffffffffffffffffffffffff8881169116145b6128d0576040517f08c379a000000000000000000000000000000000000000000000000000000000815260206004820152601b60248201527f4552433732313a206e6f6e2d617070726f7665642073656e646572000000000060448201526064016108d4565b6000848152600189016020526040902073ffffffffffffffffffffffffffffffffffffffff861690558161222a5761222a88878760015b8173ffffffffffffffffffffffffffffffffffffffff168373ffffffffffffffffffffffffffffffffffffffff16146107515773ffffffffffffffffffffffffffffffffffffffff8316600090815260028501602052604081208054839290612971908490613466565b909155505073ffffffffffffffffffffffffffffffffffffffff821660009081526002850160205260408120805483929061178e908490613550565b6000333281036129bc57919050565b6000367fffffffffffffffffffffffffffffffffffffffffffffffffffffffffffffffec013560601c90507f000000000000000000000000000000000000000000000000000000000000000073ffffffffffffffffffffffffffffffffffffffff168273ffffffffffffffffffffffffffffffffffffffff161480612af457506040517fe60125d600000000000000000000000000000000000000000000000000000000815273ffffffffffffffffffffffffffffffffffffffff828116600483015283811660248301527f0000000000000000000000000000000000000000000000000000000000000000169063e60125d690604401602060405180830381865afa158015612ad0573d6000803e3d6000fd5b505050506040513d601f19601f82011682018060405250810190612af4919061363e565b15612aff5792915050565b50919050565b36600033328103612b1b57506000923692509050565b7f000000000000000000000000000000000000000000000000000000000000000073ffffffffffffffffffffffffffffffffffffffff168173ffffffffffffffffffffffffffffffffffffffff161480612c68575073ffffffffffffffffffffffffffffffffffffffff7f00000000000000000000000000000000000000000000000000000000000000001663e60125d6367fffffffffffffffffffffffffffffffffffffffffffffffffffffffffffffffec013560601c6040517fffffffff0000000000000000000000000000000000000000000000000000000060e084901b16815273ffffffffffffffffffffffffffffffffffffffff91821660048201529084166024820152604401602060405180830381865afa158015612c44573d6000803e3d6000fd5b505050506040513d601f19601f82011682018060405250810190612c68919061363e565b15612c7e57612c75612c89565b92509250509091565b506000923692509050565b366000808083612c9a601482613466565b926105899392919061365b565b828054612cb3906132f1565b90600052602060002090601f016020900481019282612cd55760008555612d1b565b82601f10612cee57805160ff1916838001178555612d1b565b82800160010185558215612d1b579182015b82811115612d1b578251825591602001919060010190612d00565b50612d27929150612d2b565b5090565b5b80821115612d275760008155600101612d2c565b7fffffffff000000000000000000000000000000000000000000000000000000008116811461077257600080fd5b600060208284031215612d8057600080fd5b81356107df81612d40565b60005b83811015612da6578181015183820152602001612d8e565b838111156107515750506000910152565b60008151808452612dcf816020860160208601612d8b565b601f017fffffffffffffffffffffffffffffffffffffffffffffffffffffffffffffffe0169290920160200192915050565b6020815260006107df6020830184612db7565b600060208284031215612e2657600080fd5b5035919050565b803573ffffffffffffffffffffffffffffffffffffffff81168114612e5157600080fd5b919050565b60008060408385031215612e6957600080fd5b612e7283612e2d565b946020939093013593505050565b600080600060608486031215612e9557600080fd5b612e9e84612e2d565b9250612eac60208501612e2d565b9150604084013590509250925092565b60008060408385031215612ecf57600080fd5b82359150612edf60208401612e2d565b90509250929050565b60208152816020820152818360408301376000818301604090810191909152601f9092017fffffffffffffffffffffffffffffffffffffffffffffffffffffffffffffffe0160101919050565b600080600060408486031215612f4a57600080fd5b612f5384612e2d565b9250602084013567ffffffffffffffff80821115612f7057600080fd5b818601915086601f830112612f8457600080fd5b813581811115612f9357600080fd5b8760208260051b8501011115612fa857600080fd5b6020830194508093505050509250925092565b600060208284031215612fcd57600080fd5b6107df82612e2d565b60008060008060608587031215612fec57600080fd5b612ff585612e2d565b935060208501359250604085013567ffffffffffffffff8082111561301957600080fd5b818701915087601f83011261302d57600080fd5b81358181111561303c57600080fd5b88602082850101111561304e57600080fd5b95989497505060200194505050565b801515811461077257600080fd5b6000806040838503121561307e57600080fd5b61308783612e2d565b915060208301356130978161305d565b809150509250929050565b7f4e487b7100000000000000000000000000000000000000000000000000000000600052604160045260246000fd5b604051601f82017fffffffffffffffffffffffffffffffffffffffffffffffffffffffffffffffe016810167ffffffffffffffff81118282101715613118576131186130a2565b604052919050565b6000806000806080858703121561313657600080fd5b61313f85612e2d565b9350602061314e818701612e2d565b935060408601359250606086013567ffffffffffffffff8082111561317257600080fd5b818801915088601f83011261318657600080fd5b813581811115613198576131986130a2565b6131c8847fffffffffffffffffffffffffffffffffffffffffffffffffffffffffffffffe0601f840116016130d1565b915080825289848285010111156131de57600080fd5b808484018584013760008482840101525080935050505092959194509250565b6000806040838503121561321157600080fd5b61321a83612e2d565b9150612edf60208401612e2d565b60008060006060848603121561323d57600080fd5b61324684612e2d565b92506020613255818601612e2d565b9250604085013567ffffffffffffffff8082111561327257600080fd5b818701915087601f83011261328657600080fd5b813581811115613298576132986130a2565b8060051b91506132a98483016130d1565b818152918301840191848101908a8411156132c357600080fd5b938501935b838510156132e1578435825293850193908501906132c8565b8096505050505050509250925092565b600181811c9082168061330557607f821691505b602082108103612aff577f4e487b7100000000000000000000000000000000000000000000000000000000600052602260045260246000fd5b60008151613350818560208601612d8b565b9290920192915050565b600080845481600182811c91508083168061337657607f831692505b602080841082036133ae577f4e487b710000000000000000000000000000000000000000000000000000000086526022600452602486fd5b8180156133c257600181146133f15761341e565b7fffffffffffffffffffffffffffffffffffffffffffffffffffffffffffffff0086168952848901965061341e565b60008b81526020902060005b868110156134165781548b8201529085019083016133fd565b505084890196505b50505050505061342e818561333e565b95945050505050565b7f4e487b7100000000000000000000000000000000000000000000000000000000600052601160045260246000fd5b60008282101561347857613478613437565b500390565b7f416363657373436f6e74726f6c3a206d697373696e67202700000000000000008152600082516134b5816018850160208701612d8b565b7f2720726f6c6500000000000000000000000000000000000000000000000000006018939091019283015250601e01919050565b7f4e487b7100000000000000000000000000000000000000000000000000000000600052603260045260246000fd5b60007fffffffffffffffffffffffffffffffffffffffffffffffffffffffffffffffff820361354957613549613437565b5060010190565b6000821982111561356357613563613437565b500190565b60008261359e577f4e487b7100000000000000000000000000000000000000000000000000000000600052601260045260246000fd5b500490565b6000816135b2576135b2613437565b507fffffffffffffffffffffffffffffffffffffffffffffffffffffffffffffffff0190565b600073ffffffffffffffffffffffffffffffffffffffff8087168352808616602084015250836040830152608060608301526136176080830184612db7565b9695505050505050565b60006020828403121561363357600080fd5b81516107df81612d40565b60006020828403121561365057600080fd5b81516107df8161305d565b6000808585111561366b57600080fd5b8386111561367857600080fd5b505082019391909203915056fea2646970667358221220a0a3b31987734c6fa8d58ba2fb30d0ab874ff29b67ce55ff30b079ad0430a48c64736f6c634300080d0033",
  "linkReferences": {},
  "deployedLinkReferences": {}
}