{
  "_format": "hh-sol-artifact-1",
  "contractName": "ERC721Mock",
  "sourceName": "contracts/mocks/token/ERC721/ERC721Mock.sol",
  "abi": [
    {
      "inputs": [
        {
          "internalType": "string",
          "name": "name_",
          "type": "string"
        },
        {
          "internalType": "string",
          "name": "symbol_",
          "type": "string"
        },
        {
          "internalType": "string",
          "name": "tokenURI_",
          "type": "string"
        }
      ],
      "stateMutability": "nonpayable",
      "type": "constructor"
    },
    {
      "anonymous": false,
      "inputs": [
        {
          "indexed": true,
          "internalType": "address",
          "name": "owner",
          "type": "address"
        },
        {
          "indexed": true,
          "internalType": "address",
          "name": "approved",
          "type": "address"
        },
        {
          "indexed": true,
          "internalType": "uint256",
          "name": "tokenId",
          "type": "uint256"
        }
      ],
      "name": "Approval",
      "type": "event"
    },
    {
      "anonymous": false,
      "inputs": [
        {
          "indexed": true,
          "internalType": "address",
          "name": "owner",
          "type": "address"
        },
        {
          "indexed": true,
          "internalType": "address",
          "name": "operator",
          "type": "address"
        },
        {
          "indexed": false,
          "internalType": "bool",
          "name": "approved",
          "type": "bool"
        }
      ],
      "name": "ApprovalForAll",
      "type": "event"
    },
    {
      "anonymous": false,
      "inputs": [
        {
          "indexed": true,
          "internalType": "address",
          "name": "previousOwner",
          "type": "address"
        },
        {
          "indexed": true,
          "internalType": "address",
          "name": "newOwner",
          "type": "address"
        }
      ],
      "name": "OwnershipTransferred",
      "type": "event"
    },
    {
      "anonymous": false,
      "inputs": [
        {
          "indexed": false,
          "internalType": "bytes32",
          "name": "role",
          "type": "bytes32"
        },
        {
          "indexed": false,
          "internalType": "address",
          "name": "account",
          "type": "address"
        },
        {
          "indexed": false,
          "internalType": "address",
          "name": "operator",
          "type": "address"
        }
      ],
      "name": "RoleGranted",
      "type": "event"
    },
    {
      "anonymous": false,
      "inputs": [
        {
          "indexed": false,
          "internalType": "bytes32",
          "name": "role",
          "type": "bytes32"
        },
        {
          "indexed": false,
          "internalType": "address",
          "name": "account",
          "type": "address"
        },
        {
          "indexed": false,
          "internalType": "address",
          "name": "operator",
          "type": "address"
        }
      ],
      "name": "RoleRevoked",
      "type": "event"
    },
    {
      "anonymous": false,
      "inputs": [
        {
          "indexed": true,
          "internalType": "address",
          "name": "from",
          "type": "address"
        },
        {
          "indexed": true,
          "internalType": "address",
          "name": "to",
          "type": "address"
        },
        {
          "indexed": true,
          "internalType": "uint256",
          "name": "tokenId",
          "type": "uint256"
        }
      ],
      "name": "Transfer",
      "type": "event"
    },
    {
      "inputs": [],
      "name": "MINTER_ROLE",
      "outputs": [
        {
          "internalType": "bytes32",
          "name": "",
          "type": "bytes32"
        }
      ],
      "stateMutability": "view",
      "type": "function"
    },
    {
      "inputs": [
        {
          "internalType": "address",
          "name": "to",
          "type": "address"
        },
        {
          "internalType": "uint256",
          "name": "tokenId",
          "type": "uint256"
        }
      ],
      "name": "approve",
      "outputs": [],
      "stateMutability": "nonpayable",
      "type": "function"
    },
    {
      "inputs": [
        {
          "internalType": "address",
          "name": "owner",
          "type": "address"
        }
      ],
      "name": "balanceOf",
      "outputs": [
        {
          "internalType": "uint256",
          "name": "",
          "type": "uint256"
        }
      ],
      "stateMutability": "view",
      "type": "function"
    },
    {
      "inputs": [
        {
          "internalType": "address",
          "name": "from",
          "type": "address"
        },
        {
          "internalType": "uint256[]",
          "name": "tokenIds",
          "type": "uint256[]"
        }
      ],
      "name": "batchBurnFrom",
      "outputs": [],
      "stateMutability": "nonpayable",
      "type": "function"
    },
    {
      "inputs": [
        {
          "internalType": "address",
          "name": "to",
          "type": "address"
        },
        {
          "internalType": "uint256[]",
          "name": "tokenIds",
          "type": "uint256[]"
        }
      ],
      "name": "batchMint",
      "outputs": [],
      "stateMutability": "nonpayable",
      "type": "function"
    },
    {
      "inputs": [
        {
          "internalType": "address",
          "name": "from",
          "type": "address"
        },
        {
          "internalType": "address",
          "name": "to",
          "type": "address"
        },
        {
          "internalType": "uint256[]",
          "name": "tokenIds",
          "type": "uint256[]"
        }
      ],
      "name": "batchTransferFrom",
      "outputs": [],
      "stateMutability": "nonpayable",
      "type": "function"
    },
    {
      "inputs": [
        {
          "internalType": "address",
          "name": "from",
          "type": "address"
        },
        {
          "internalType": "uint256",
          "name": "tokenId",
          "type": "uint256"
        }
      ],
      "name": "burnFrom",
      "outputs": [],
      "stateMutability": "nonpayable",
      "type": "function"
    },
    {
      "inputs": [
        {
          "internalType": "uint256",
          "name": "tokenId",
          "type": "uint256"
        }
      ],
      "name": "getApproved",
      "outputs": [
        {
          "internalType": "address",
          "name": "operator",
          "type": "address"
        }
      ],
      "stateMutability": "view",
      "type": "function"
    },
    {
      "inputs": [
        {
          "internalType": "bytes32",
          "name": "role",
          "type": "bytes32"
        },
        {
          "internalType": "address",
          "name": "account",
          "type": "address"
        }
      ],
      "name": "grantRole",
      "outputs": [],
      "stateMutability": "nonpayable",
      "type": "function"
    },
    {
      "inputs": [
        {
          "internalType": "bytes32",
          "name": "role",
          "type": "bytes32"
        },
        {
          "internalType": "address",
          "name": "account",
          "type": "address"
        }
      ],
      "name": "hasRole",
      "outputs": [
        {
          "internalType": "bool",
          "name": "",
          "type": "bool"
        }
      ],
      "stateMutability": "view",
      "type": "function"
    },
    {
      "inputs": [
        {
          "internalType": "address",
          "name": "owner",
          "type": "address"
        },
        {
          "internalType": "address",
          "name": "operator",
          "type": "address"
        }
      ],
      "name": "isApprovedForAll",
      "outputs": [
        {
          "internalType": "bool",
          "name": "",
          "type": "bool"
        }
      ],
      "stateMutability": "view",
      "type": "function"
    },
    {
      "inputs": [
        {
          "internalType": "address",
          "name": "to",
          "type": "address"
        },
        {
          "internalType": "uint256",
          "name": "tokenId",
          "type": "uint256"
        }
      ],
      "name": "mint",
      "outputs": [],
      "stateMutability": "nonpayable",
      "type": "function"
    },
    {
      "inputs": [],
      "name": "name",
      "outputs": [
        {
          "internalType": "string",
          "name": "",
          "type": "string"
        }
      ],
      "stateMutability": "view",
      "type": "function"
    },
    {
      "inputs": [],
      "name": "owner",
      "outputs": [
        {
          "internalType": "address",
          "name": "",
          "type": "address"
        }
      ],
      "stateMutability": "view",
      "type": "function"
    },
    {
      "inputs": [
        {
          "internalType": "uint256",
          "name": "tokenId",
          "type": "uint256"
        }
      ],
      "name": "ownerOf",
      "outputs": [
        {
          "internalType": "address",
          "name": "",
          "type": "address"
        }
      ],
      "stateMutability": "view",
      "type": "function"
    },
    {
      "inputs": [
        {
          "internalType": "bytes32",
          "name": "role",
          "type": "bytes32"
        }
      ],
      "name": "renounceRole",
      "outputs": [],
      "stateMutability": "nonpayable",
      "type": "function"
    },
    {
      "inputs": [
        {
          "internalType": "bytes32",
          "name": "role",
          "type": "bytes32"
        },
        {
          "internalType": "address",
          "name": "account",
          "type": "address"
        }
      ],
      "name": "revokeRole",
      "outputs": [],
      "stateMutability": "nonpayable",
      "type": "function"
    },
    {
      "inputs": [
        {
          "internalType": "address",
          "name": "to",
          "type": "address"
        },
        {
          "internalType": "uint256",
          "name": "tokenId",
          "type": "uint256"
        },
        {
          "internalType": "bytes",
          "name": "data",
          "type": "bytes"
        }
      ],
      "name": "safeMint",
      "outputs": [],
      "stateMutability": "nonpayable",
      "type": "function"
    },
    {
      "inputs": [
        {
          "internalType": "address",
          "name": "from",
          "type": "address"
        },
        {
          "internalType": "address",
          "name": "to",
          "type": "address"
        },
        {
          "internalType": "uint256",
          "name": "tokenId",
          "type": "uint256"
        }
      ],
      "name": "safeTransferFrom",
      "outputs": [],
      "stateMutability": "nonpayable",
      "type": "function"
    },
    {
      "inputs": [
        {
          "internalType": "address",
          "name": "from",
          "type": "address"
        },
        {
          "internalType": "address",
          "name": "to",
          "type": "address"
        },
        {
          "internalType": "uint256",
          "name": "tokenId",
          "type": "uint256"
        },
        {
          "internalType": "bytes",
          "name": "_data",
          "type": "bytes"
        }
      ],
      "name": "safeTransferFrom",
      "outputs": [],
      "stateMutability": "nonpayable",
      "type": "function"
    },
    {
      "inputs": [
        {
          "internalType": "address",
          "name": "operator",
          "type": "address"
        },
        {
          "internalType": "bool",
          "name": "_approved",
          "type": "bool"
        }
      ],
      "name": "setApprovalForAll",
      "outputs": [],
      "stateMutability": "nonpayable",
      "type": "function"
    },
    {
      "inputs": [
        {
          "internalType": "bytes4",
          "name": "interfaceId",
          "type": "bytes4"
        }
      ],
      "name": "supportsInterface",
      "outputs": [
        {
          "internalType": "bool",
          "name": "",
          "type": "bool"
        }
      ],
      "stateMutability": "view",
      "type": "function"
    },
    {
      "inputs": [],
      "name": "symbol",
      "outputs": [
        {
          "internalType": "string",
          "name": "",
          "type": "string"
        }
      ],
      "stateMutability": "view",
      "type": "function"
    },
    {
      "inputs": [
        {
          "internalType": "uint256",
          "name": "tokenId",
          "type": "uint256"
        }
      ],
      "name": "tokenURI",
      "outputs": [
        {
          "internalType": "string",
          "name": "",
          "type": "string"
        }
      ],
      "stateMutability": "view",
      "type": "function"
    },
    {
      "inputs": [
        {
          "internalType": "address",
          "name": "from",
          "type": "address"
        },
        {
          "internalType": "address",
          "name": "to",
          "type": "address"
        },
        {
          "internalType": "uint256",
          "name": "tokenId",
          "type": "uint256"
        }
      ],
      "name": "transferFrom",
      "outputs": [],
      "stateMutability": "nonpayable",
      "type": "function"
    },
    {
      "inputs": [
        {
          "internalType": "address",
          "name": "newOwner",
          "type": "address"
        }
      ],
      "name": "transferOwnership",
      "outputs": [],
      "stateMutability": "nonpayable",
      "type": "function"
    }
  ],
  "bytecode": "0x60806040523480156200001157600080fd5b5060405162003a4c38038062003a4c833981016040819052620000349162000757565b8282823362000062620000516200015460201b62000ac81760201c565b6200018a60201b62000af61760201c565b6200008c6200007b620001f760201b62000b601760201c565b6200022760201b62000b8e1760201c565b620000ba81620000a66200027c60201b62000be81760201c565b620002ac60201b62000c161790919060201c565b50620000f363a745805d60e01b6001620000de620001f760201b62000b601760201c565b6200035b60201b62000cfa179092919060201c565b620001258383836200010f620003e960201b62000dea1760201c565b6200041960201b62000e1817909392919060201c565b62000148635b5e139f60e01b6001620000de620001f760201b62000b601760201c565b5050505050506200084a565b6000806200018460017fddf3ee18ae6d688373c219468f8be446e7ae82215f4779d821c7ea5e8c13c0c1620007e8565b92915050565b620001d1620001bb60017ffddcdbf8ca7eb362a678daf3643ce3cf98ebf69ac314d25d376d5aeabd2f5332620007e8565b60001b6001620004b860201b62000e9b1760201c565b620001f46380ac58cd60e01b6001620000de620001f760201b62000b601760201c565b50565b6000806200018460017f7180ffa89c91cf90d6c56dacabfc69bc5e36f3099d7eed2f5cc12c5dba016fe0620007e8565b62000258620001bb60017f947245cdabe12ef4c13574b38217b361de48f57dd2dc345f43703c79bac2873d620007e8565b620001f46301ffc9a760e01b6001836200035b60201b62000cfa179092919060201c565b6000806200018460017f6a1da6973104ff7dedb9b4f5cab5830b3f4a0284ed754366cfc45568bd2d38df620007e8565b620002dd620001bb60017ff1e2f4de496ffe5d046d751d8ec3c329ee011c6c6a229322971a7e02a207f973620007e8565b6001600160a01b03811615620003345781546001600160a01b0319166001600160a01b03821690811783556040516000907f8be0079c531659141344cd1fd0a4f28419497f9722a3daafe3b4186f6b6457e0908290a35b620003576307f5828d60e41b6001620000de620001f760201b62000b601760201c565b5050565b6001600160e01b03198083169003620003bb5760405162461bcd60e51b815260206004820152601f60248201527f496e74657266616365446574656374696f6e3a2077726f6e672076616c75650060448201526064015b60405180910390fd5b6001600160e01b03199190911660009081526020929092526040909120805460ff1916911515919091179055565b6000806200018460017f5f5773833f4966721eb3773ed87c7208ea74d78f0d94de1d8074345cac67333f620007e8565b6200044a620001bb60017fdf2ee7965c9504dc84db8f7759fc283282800c5a2fa3704c9f07f446b3b40a3f620007e8565b6200047a8383620004656200052b60201b62000f0b1760201c565b6200055b60201b62000f39179092919060201c565b80516200048e9085906020840190620005e4565b50620004b2635b5e139f60e01b6001620000de620001f760201b62000b601760201c565b50505050565b6000620004d083620005e160201b62000fbe1760201c565b905081816000015410620005275760405162461bcd60e51b815260206004820152601860248201527f53746f726167653a2076657273696f6e207265616368656400000000000000006044820152606401620003b2565b5550565b6000806200018460017f9c4269c0f9f430d98876ffe9767fbf3f3232ea91a549beb549e5329532520eb3620007e8565b6200058c620001bb60017fa057eeb6560fae2987973d3bf40b89e6da66dd0b6aadac05dc6b5b0d7a8d4557620007e8565b8151620005a09084906020850190620005e4565b508051620005b89060018501906020840190620005e4565b50620005dc635b5e139f60e01b6001620000de620001f760201b62000b601760201c565b505050565b90565b828054620005f2906200080e565b90600052602060002090601f01602090048101928262000616576000855562000661565b82601f106200063157805160ff191683800117855562000661565b8280016001018555821562000661579182015b828111156200066157825182559160200191906001019062000644565b506200066f92915062000673565b5090565b5b808211156200066f576000815560010162000674565b634e487b7160e01b600052604160045260246000fd5b600082601f830112620006b257600080fd5b81516001600160401b0380821115620006cf57620006cf6200068a565b604051601f8301601f19908116603f01168101908282118183101715620006fa57620006fa6200068a565b816040528381526020925086838588010111156200071757600080fd5b600091505b838210156200073b57858201830151818301840152908201906200071c565b838211156200074d5760008385830101525b9695505050505050565b6000806000606084860312156200076d57600080fd5b83516001600160401b03808211156200078557600080fd5b6200079387838801620006a0565b94506020860151915080821115620007aa57600080fd5b620007b887838801620006a0565b93506040860151915080821115620007cf57600080fd5b50620007de86828701620006a0565b9150509250925092565b6000828210156200080957634e487b7160e01b600052601160045260246000fd5b500390565b600181811c908216806200082357607f821691505b6020821081036200084457634e487b7160e01b600052602260045260246000fd5b50919050565b6131f2806200085a6000396000f3fe608060405234801561001057600080fd5b50600436106101ae5760003560e01c80638bb9c5bf116100ee578063c87b56dd11610097578063e985e9c511610071578063e985e9c51461039f578063f2472965146103b2578063f2fde38b146103c5578063f3993d11146103d857600080fd5b8063c87b56dd14610352578063d539139314610365578063d547741f1461038c57600080fd5b806395d89b41116100c857806395d89b4114610324578063a22cb4651461032c578063b88d4fde1461033f57600080fd5b80638bb9c5bf146102f65780638da5cb5b1461030957806391d148541461031157600080fd5b806340c10f191161015b5780636352211e116101355780636352211e1461029c57806370a08231146102af57806379cc6790146102d05780638832e6e3146102e357600080fd5b806340c10f191461026357806342842e0e146102765780634684d7e91461028957600080fd5b8063095ea7b31161018c578063095ea7b31461022857806323b872dd1461023d5780632f2ff15d1461025057600080fd5b806301ffc9a7146101b357806306fdde03146101db578063081812fc146101f0575b600080fd5b6101c66101c13660046129be565b6103eb565b60405190151581526020015b60405180910390f35b6101e3610438565b6040516101d29190612a51565b6102036101fe366004612a64565b6104d0565b60405173ffffffffffffffffffffffffffffffffffffffff90911681526020016101d2565b61023b610236366004612aa6565b6104e4565b005b61023b61024b366004612ad0565b6104fe565b61023b61025e366004612b0c565b61051b565b61023b610271366004612aa6565b610544565b61023b610284366004612ad0565b6105a3565b61023b610297366004612b84565b6105bb565b6102036102aa366004612a64565b61062d565b6102c26102bd366004612bd7565b6106cf565b6040519081526020016101d2565b61023b6102de366004612aa6565b610785565b61023b6102f1366004612bf2565b61079b565b61023b610304366004612a64565b610814565b61020361082b565b6101c661031f366004612b0c565b610851565b6101e361089c565b61023b61033a366004612c79565b6108b4565b61023b61034d366004612ce4565b6108ca565b6101e3610360366004612a64565b6108e4565b6102c27f6d696e746572000000000000000000000000000000000000000000000000000081565b61023b61039a366004612b0c565b6109b8565b6101c66103ad366004612dde565b6109db565b61023b6103c0366004612b84565b610a1e565b61023b6103d3366004612bd7565b610a68565b61023b6103e6366004612e08565b610a7c565b6000610432826103f9610b60565b907fffffffff00000000000000000000000000000000000000000000000000000000166000908152602091909152604090205460ff1690565b92915050565b6060610442610f0b565b805461044d90612e69565b80601f016020809104026020016040519081016040528092919081815260200182805461047990612e69565b80156104c65780601f1061049b576101008083540402835291602001916104c6565b820191906000526020600020905b8154815290600101906020018083116104a957829003601f168201915b5050505050905090565b6000610432826104de610ac8565b90610fc1565b6104fa3383836104f2610ac8565b9291906110a4565b5050565b6105163384848461050d610ac8565b93929190611360565b505050565b3361052e81610528610be8565b90611386565b61051683838361053c611409565b929190611437565b6105797f6d696e7465720000000000000000000000000000000000000000000000000000335b610572611409565b919061150d565b6104fa338383604051806020016040528060008152506000610599610ac8565b94939291906115b9565b610516338484846105b2610ac8565b939291906116c6565b6105e57f6d696e74657200000000000000000000000000000000000000000000000000003361056a565b610516838383808060200260200160405190810160405280939291908181526020018383602002808284376000920191909152506106269250610ac8915050565b91906116e5565b600080610638610ac8565b60008481526001919091016020526040902054905073ffffffffffffffffffffffffffffffffffffffff8116610432576040517f08c379a000000000000000000000000000000000000000000000000000000000815260206004820152601860248201527f4552433732313a206e6f6e2d6578697374696e67204e4654000000000000000060448201526064015b60405180910390fd5b600073ffffffffffffffffffffffffffffffffffffffff821661074e576040517f08c379a000000000000000000000000000000000000000000000000000000000815260206004820152601460248201527f4552433732313a207a65726f206164647265737300000000000000000000000060448201526064016106c6565b610756610ac8565b73ffffffffffffffffffffffffffffffffffffffff909216600090815260029290920160205250604090205490565b6104fa338383610793610ac8565b929190611832565b6107c57f6d696e74657200000000000000000000000000000000000000000000000000003361056a565b61080e33858585858080601f016020809104026020016040519081016040528093929190818152602001838380828437600092019190915250600192506105999150610ac89050565b50505050565b6108283382610821611409565b919061189c565b50565b6000610835610be8565b5473ffffffffffffffffffffffffffffffffffffffff16919050565b60006108958383610860611409565b60009283526020908152604080842073ffffffffffffffffffffffffffffffffffffffff909316845291905290205460ff1690565b9392505050565b60606108a6610f0b565b600101805461044d90612e69565b6104fa3383836108c2610ac8565b929190611940565b61080e33858585856108da610ac8565b9493929190611a6c565b606060006108f0610ac8565b6000848152600191909101602052604090205473ffffffffffffffffffffffffffffffffffffffff1603610980576040517f08c379a000000000000000000000000000000000000000000000000000000000815260206004820152601860248201527f4552433732313a206e6f6e2d6578697374696e67204e4654000000000000000060448201526064016106c6565b610988610dea565b61099183611a7c565b6040516020016109a2929190612ed8565b6040516020818303038152906040529050919050565b336109c581610528610be8565b6105168383836109d3611409565b929190611bb0565b60006109e5610ac8565b73ffffffffffffffffffffffffffffffffffffffff93841660009081526020918252604080822094909516815292905250205460ff1690565b6105163384848480806020026020016040519081016040528093929190818152602001838360200280828437600092019190915250610a609250610ac8915050565b929190611c7a565b6108283382610a75610be8565b9190611d64565b61080e338585858580806020026020016040519081016040528093929190818152602001838360200280828437600092019190915250610abf9250610ac8915050565b93929190611e90565b60008061043260017fddf3ee18ae6d688373c219468f8be446e7ae82215f4779d821c7ea5e8c13c0c1612fe4565b610b2b610b2460017ffddcdbf8ca7eb362a678daf3643ce3cf98ebf69ac314d25d376d5aeabd2f5332612fe4565b6001610e9b565b6108287f80ac58cd000000000000000000000000000000000000000000000000000000006001610b59610b60565b9190610cfa565b60008061043260017f7180ffa89c91cf90d6c56dacabfc69bc5e36f3099d7eed2f5cc12c5dba016fe0612fe4565b610bbc610b2460017f947245cdabe12ef4c13574b38217b361de48f57dd2dc345f43703c79bac2873d612fe4565b610828817f01ffc9a7000000000000000000000000000000000000000000000000000000006001610cfa565b60008061043260017f6a1da6973104ff7dedb9b4f5cab5830b3f4a0284ed754366cfc45568bd2d38df612fe4565b610c44610b2460017ff1e2f4de496ffe5d046d751d8ec3c329ee011c6c6a229322971a7e02a207f973612fe4565b73ffffffffffffffffffffffffffffffffffffffff811615610ccc5781547fffffffffffffffffffffffff00000000000000000000000000000000000000001673ffffffffffffffffffffffffffffffffffffffff821690811783556040516000907f8be0079c531659141344cd1fd0a4f28419497f9722a3daafe3b4186f6b6457e0908290a35b6104fa7f7f5828d0000000000000000000000000000000000000000000000000000000006001610b59610b60565b7fffffffff000000000000000000000000000000000000000000000000000000008083169003610d86576040517f08c379a000000000000000000000000000000000000000000000000000000000815260206004820152601f60248201527f496e74657266616365446574656374696f6e3a2077726f6e672076616c75650060448201526064016106c6565b7fffffffff00000000000000000000000000000000000000000000000000000000919091166000908152602092909252604090912080547fffffffffffffffffffffffffffffffffffffffffffffffffffffffffffffff0016911515919091179055565b60008061043260017f5f5773833f4966721eb3773ed87c7208ea74d78f0d94de1d8074345cac67333f612fe4565b610e46610b2460017fdf2ee7965c9504dc84db8f7759fc283282800c5a2fa3704c9f07f446b3b40a3f612fe4565b610e5a8383610e53610f0b565b9190610f39565b8051610e6c90859060208401906128f7565b5061080e7f5b5e139f000000000000000000000000000000000000000000000000000000006001610b59610b60565b815482908211610f07576040517f08c379a000000000000000000000000000000000000000000000000000000000815260206004820152601860248201527f53746f726167653a2076657273696f6e2072656163686564000000000000000060448201526064016106c6565b5550565b60008061043260017f9c4269c0f9f430d98876ffe9767fbf3f3232ea91a549beb549e5329532520eb3612fe4565b610f67610b2460017fa057eeb6560fae2987973d3bf40b89e6da66dd0b6aadac05dc6b5b0d7a8d4557612fe4565b8151610f7990849060208501906128f7565b508051610f8f90600185019060208401906128f7565b506105167f5b5e139f000000000000000000000000000000000000000000000000000000006001610b59610b60565b90565b600081815260018301602052604081205473ffffffffffffffffffffffffffffffffffffffff811661104f576040517f08c379a000000000000000000000000000000000000000000000000000000000815260206004820152601860248201527f4552433732313a206e6f6e2d6578697374696e67204e4654000000000000000060448201526064016106c6565b7401000000000000000000000000000000000000000081161561109a575050600081815260038301602052604090205473ffffffffffffffffffffffffffffffffffffffff16610432565b6000915050610432565b60008181526001850160205260408120549081900361111f576040517f08c379a000000000000000000000000000000000000000000000000000000000815260206004820152601860248201527f4552433732313a206e6f6e2d6578697374696e67204e4654000000000000000060448201526064016106c6565b8073ffffffffffffffffffffffffffffffffffffffff808216908516036111a2576040517f08c379a000000000000000000000000000000000000000000000000000000000815260206004820152601560248201527f4552433732313a2073656c662d617070726f76616c000000000000000000000060448201526064016106c6565b6111ad868287611fdf565b611213576040517f08c379a000000000000000000000000000000000000000000000000000000000815260206004820152601b60248201527f4552433732313a206e6f6e2d617070726f7665642073656e646572000000000060448201526064016106c6565b73ffffffffffffffffffffffffffffffffffffffff841661127a5774010000000000000000000000000000000000000000821615611275576000838152600187016020526040902073ffffffffffffffffffffffffffffffffffffffff821690555b6112fd565b7401000000000000000000000000000000000000000082178083146112ad57600084815260018801602052604090208190555b506000838152600387016020526040902080547fffffffffffffffffffffffff00000000000000000000000000000000000000001673ffffffffffffffffffffffffffffffffffffffff86161790555b828473ffffffffffffffffffffffffffffffffffffffff168273ffffffffffffffffffffffffffffffffffffffff167f8c5be1e5ebec7d5bd14f71427d1e84f3dd0314c0f7b2291e5b200ac8c7c3b92560405160405180910390a4505050505050565b61137f8585858585604051806020016040528060008152506000612053565b5050505050565b815473ffffffffffffffffffffffffffffffffffffffff8281169116146104fa576040517f08c379a000000000000000000000000000000000000000000000000000000000815260206004820152601860248201527f4f776e6572736869703a206e6f7420746865206f776e6572000000000000000060448201526064016106c6565b60008061043260017fc8a24fbf085abf1493c5f225802d03df3ece6cd19f18edff36c56d854cddac9e612fe4565b60008381526020858152604080832073ffffffffffffffffffffffffffffffffffffffff8616845290915290205460ff1661080e5760008381526020858152604080832073ffffffffffffffffffffffffffffffffffffffff8681168086529184529382902080547fffffffffffffffffffffffffffffffffffffffffffffffffffffffffffffff00166001179055815187815292830152918316918101919091527f2f8788117e7eff1d82e926ec794901d17c78024a50270940304540a733656f0d906060015b60405180910390a150505050565b60008281526020848152604080832073ffffffffffffffffffffffffffffffffffffffff8516845290915290205460ff166105165761154b82612189565b60405160200161155b9190612ffb565b604080517fffffffffffffffffffffffffffffffffffffffffffffffffffffffffffffffe0818403018152908290527f08c379a00000000000000000000000000000000000000000000000000000000082526106c691600401612a51565b73ffffffffffffffffffffffffffffffffffffffff8416611636576040517f08c379a000000000000000000000000000000000000000000000000000000000815260206004820152601460248201527f4552433732313a206d696e7420746f207a65726f00000000000000000000000060448201526064016106c6565b611643868585600061230a565b604051839073ffffffffffffffffffffffffffffffffffffffff8616906000907fddf252ad1be2c89b69c2b068fc378daa952ba7f163c4a11628f55a4df523b3ef908290a48080156116ab575073ffffffffffffffffffffffffffffffffffffffff84163b15155b156116be576116be8560008686866123ef565b505050505050565b61137f8585858585604051806020016040528060008152506001612053565b73ffffffffffffffffffffffffffffffffffffffff8216611762576040517f08c379a000000000000000000000000000000000000000000000000000000000815260206004820152601460248201527f4552433732313a206d696e7420746f207a65726f00000000000000000000000060448201526064016106c6565b805160005b8181146117ef57600083828151811061178257611782613067565b60200260200101519050611799868683600161230a565b604051819073ffffffffffffffffffffffffffffffffffffffff8716906000907fddf252ad1be2c89b69c2b068fc378daa952ba7f163c4a11628f55a4df523b3ef908290a4506117e881613096565b9050611767565b5073ffffffffffffffffffffffffffffffffffffffff83166000908152600285016020526040812080548392906118279084906130ce565b909155505050505050565b600061183f858486611fdf565b905061185085858585856000612515565b604051829060009073ffffffffffffffffffffffffffffffffffffffff8616907fddf252ad1be2c89b69c2b068fc378daa952ba7f163c4a11628f55a4df523b3ef908390a45050505050565b6118a783828461150d565b60008181526020848152604080832073ffffffffffffffffffffffffffffffffffffffff86168085529083529281902080547fffffffffffffffffffffffffffffffffffffffffffffffffffffffffffffff0016905580518481529182018390528101919091527ff6391f5c32d9c69d2a47ea670b442974b53935d1edc7fd64eb21e047a839171b9060600160405180910390a1505050565b8273ffffffffffffffffffffffffffffffffffffffff168273ffffffffffffffffffffffffffffffffffffffff16036119d5576040517f08c379a000000000000000000000000000000000000000000000000000000000815260206004820152601560248201527f4552433732313a2073656c662d617070726f76616c000000000000000000000060448201526064016106c6565b73ffffffffffffffffffffffffffffffffffffffff8381166000818152602087815260408083209487168084529482529182902080547fffffffffffffffffffffffffffffffffffffffffffffffffffffffffffffff001686151590811790915591519182527f17307eab39ab6107e8899845ad3d59bd9653f200f220920489ca2b5937696c31910160405180910390a350505050565b6116be8686868686866001612053565b606081600003611abf57505060408051808201909152600181527f3000000000000000000000000000000000000000000000000000000000000000602082015290565b8160005b8115611ae95780611ad381613096565b9150611ae29050600a836130e6565b9150611ac3565b60008167ffffffffffffffff811115611b0457611b04612cb5565b6040519080825280601f01601f191660200182016040528015611b2e576020820181803683370190505b5090506000611b3e600184612fe4565b90508593505b8315611ba757600a840660300160f81b82828060019003935081518110611b6d57611b6d613067565b60200101907effffffffffffffffffffffffffffffffffffffffffffffffffffffffffffff1916908160001a905350600a84049350611b44565b50949350505050565b60008381526020858152604080832073ffffffffffffffffffffffffffffffffffffffff8616845290915290205460ff161561080e5760008381526020858152604080832073ffffffffffffffffffffffffffffffffffffffff8681168086529184529382902080547fffffffffffffffffffffffffffffffffffffffffffffffffffffffffffffff00169055815187815292830152918316918101919091527ff6391f5c32d9c69d2a47ea670b442974b53935d1edc7fd64eb21e047a839171b906060016114ff565b6000611c87858486611fdf565b825190915060005b818114611d19576000848281518110611caa57611caa613067565b60200260200101519050611cc388888884886001612515565b604051819060009073ffffffffffffffffffffffffffffffffffffffff8916907fddf252ad1be2c89b69c2b068fc378daa952ba7f163c4a11628f55a4df523b3ef908390a450611d1281613096565b9050611c8f565b5080156116be5773ffffffffffffffffffffffffffffffffffffffff8416600090815260028701602052604081208054839290611d57908490612fe4565b9091555050505050505050565b825473ffffffffffffffffffffffffffffffffffffffff9081169083168114611de9576040517f08c379a000000000000000000000000000000000000000000000000000000000815260206004820152601860248201527f4f776e6572736869703a206e6f7420746865206f776e6572000000000000000060448201526064016106c6565b8173ffffffffffffffffffffffffffffffffffffffff168173ffffffffffffffffffffffffffffffffffffffff161461080e5783547fffffffffffffffffffffffff00000000000000000000000000000000000000001673ffffffffffffffffffffffffffffffffffffffff8381169182178655604051908316907f8be0079c531659141344cd1fd0a4f28419497f9722a3daafe3b4186f6b6457e090600090a350505050565b73ffffffffffffffffffffffffffffffffffffffff8216611f0d576040517f08c379a000000000000000000000000000000000000000000000000000000000815260206004820152601860248201527f4552433732313a207472616e7366657220746f207a65726f000000000000000060448201526064016106c6565b6000611f1a868587611fdf565b825190915060005b818114611fc3576000848281518110611f3d57611f3d613067565b60200260200101519050611f5789898989858960016126ce565b808673ffffffffffffffffffffffffffffffffffffffff168873ffffffffffffffffffffffffffffffffffffffff167fddf252ad1be2c89b69c2b068fc378daa952ba7f163c4a11628f55a4df523b3ef60405160405180910390a450611fbc81613096565b9050611f22565b508015611fd657611fd687868684612851565b50505050505050565b60008173ffffffffffffffffffffffffffffffffffffffff168373ffffffffffffffffffffffffffffffffffffffff16148061204b575073ffffffffffffffffffffffffffffffffffffffff8084166000908152602086815260408083209386168352929052205460ff165b949350505050565b73ffffffffffffffffffffffffffffffffffffffff84166120d0576040517f08c379a000000000000000000000000000000000000000000000000000000000815260206004820152601860248201527f4552433732313a207472616e7366657220746f207a65726f000000000000000060448201526064016106c6565b60006120dd888789611fdf565b90506120ef88888888888660006126ce565b838573ffffffffffffffffffffffffffffffffffffffff168773ffffffffffffffffffffffffffffffffffffffff167fddf252ad1be2c89b69c2b068fc378daa952ba7f163c4a11628f55a4df523b3ef60405160405180910390a481801561216d575073ffffffffffffffffffffffffffffffffffffffff85163b15155b1561217f5761217f87878787876123ef565b5050505050505050565b606060008290036121a857505060408051602081019091526000815290565b6000826040516020016121bd91815260200190565b604080517fffffffffffffffffffffffffffffffffffffffffffffffffffffffffffffffe08184030181529190529050601f5b81818151811061220257612202613067565b01602001517fff00000000000000000000000000000000000000000000000000000000000000166000036122405761223981613121565b90506121f0565b600061224d8260016130ce565b67ffffffffffffffff81111561226557612265612cb5565b6040519080825280601f01601f19166020018201604052801561228f576020820181803683370190505b50905060005b828111611ba7578381815181106122ae576122ae613067565b602001015160f81c60f81b8282815181106122cb576122cb613067565b60200101907effffffffffffffffffffffffffffffffffffffffffffffffffffffffffffff1916908160001a90535061230381613096565b9050612295565b600082815260018501602052604090205415612382576040517f08c379a000000000000000000000000000000000000000000000000000000000815260206004820152601a60248201527f4552433732313a206578697374696e672f6275726e74204e465400000000000060448201526064016106c6565b6000828152600185016020526040902073ffffffffffffffffffffffffffffffffffffffff841690558061080e5773ffffffffffffffffffffffffffffffffffffffff83166000908152600285016020526040812080549091906123e590613096565b9091555050505050565b6040517f150b7a02000000000000000000000000000000000000000000000000000000008082529073ffffffffffffffffffffffffffffffffffffffff85169063150b7a0290612449908990899088908890600401613156565b6020604051808303816000875af1158015612468573d6000803e3d6000fd5b505050506040513d601f19601f8201168201806040525081019061248c919061319f565b7fffffffff00000000000000000000000000000000000000000000000000000000161461137f576040517f08c379a000000000000000000000000000000000000000000000000000000000815260206004820152601860248201527f4552433732313a207472616e736665722072656675736564000000000000000060448201526064016106c6565b600083815260018701602052604090205473ffffffffffffffffffffffffffffffffffffffff858116908216146125a8576040517f08c379a000000000000000000000000000000000000000000000000000000000815260206004820152601560248201527f4552433732313a206e6f6e2d6f776e6564204e4654000000000000000000000060448201526064016106c6565b8261266157740100000000000000000000000000000000000000008116158015906125fb5750600084815260038801602052604090205473ffffffffffffffffffffffffffffffffffffffff8781169116145b612661576040517f08c379a000000000000000000000000000000000000000000000000000000000815260206004820152601b60248201527f4552433732313a206e6f6e2d617070726f7665642073656e646572000000000060448201526064016106c6565b600084815260018801602052604090207fdead000000000000000000000000000000000000000000000000000000000000905581611fd65773ffffffffffffffffffffffffffffffffffffffff8516600090815260028801602052604081208054909190611d5790613121565b600083815260018801602052604090205473ffffffffffffffffffffffffffffffffffffffff86811690821614612761576040517f08c379a000000000000000000000000000000000000000000000000000000000815260206004820152601560248201527f4552433732313a206e6f6e2d6f776e6564204e4654000000000000000000000060448201526064016106c6565b8261281a57740100000000000000000000000000000000000000008116158015906127b45750600084815260038901602052604090205473ffffffffffffffffffffffffffffffffffffffff8881169116145b61281a576040517f08c379a000000000000000000000000000000000000000000000000000000000815260206004820152601b60248201527f4552433732313a206e6f6e2d617070726f7665642073656e646572000000000060448201526064016106c6565b6000848152600189016020526040902073ffffffffffffffffffffffffffffffffffffffff861690558161217f5761217f88878760015b8173ffffffffffffffffffffffffffffffffffffffff168373ffffffffffffffffffffffffffffffffffffffff161461080e5773ffffffffffffffffffffffffffffffffffffffff83166000908152600285016020526040812080548392906128bb908490612fe4565b909155505073ffffffffffffffffffffffffffffffffffffffff82166000908152600285016020526040812080548392906118279084906130ce565b82805461290390612e69565b90600052602060002090601f016020900481019282612925576000855561296b565b82601f1061293e57805160ff191683800117855561296b565b8280016001018555821561296b579182015b8281111561296b578251825591602001919060010190612950565b5061297792915061297b565b5090565b5b80821115612977576000815560010161297c565b7fffffffff000000000000000000000000000000000000000000000000000000008116811461082857600080fd5b6000602082840312156129d057600080fd5b813561089581612990565b60005b838110156129f65781810151838201526020016129de565b8381111561080e5750506000910152565b60008151808452612a1f8160208601602086016129db565b601f017fffffffffffffffffffffffffffffffffffffffffffffffffffffffffffffffe0169290920160200192915050565b6020815260006108956020830184612a07565b600060208284031215612a7657600080fd5b5035919050565b803573ffffffffffffffffffffffffffffffffffffffff81168114612aa157600080fd5b919050565b60008060408385031215612ab957600080fd5b612ac283612a7d565b946020939093013593505050565b600080600060608486031215612ae557600080fd5b612aee84612a7d565b9250612afc60208501612a7d565b9150604084013590509250925092565b60008060408385031215612b1f57600080fd5b82359150612b2f60208401612a7d565b90509250929050565b60008083601f840112612b4a57600080fd5b50813567ffffffffffffffff811115612b6257600080fd5b6020830191508360208260051b8501011115612b7d57600080fd5b9250929050565b600080600060408486031215612b9957600080fd5b612ba284612a7d565b9250602084013567ffffffffffffffff811115612bbe57600080fd5b612bca86828701612b38565b9497909650939450505050565b600060208284031215612be957600080fd5b61089582612a7d565b60008060008060608587031215612c0857600080fd5b612c1185612a7d565b935060208501359250604085013567ffffffffffffffff80821115612c3557600080fd5b818701915087601f830112612c4957600080fd5b813581811115612c5857600080fd5b886020828501011115612c6a57600080fd5b95989497505060200194505050565b60008060408385031215612c8c57600080fd5b612c9583612a7d565b915060208301358015158114612caa57600080fd5b809150509250929050565b7f4e487b7100000000000000000000000000000000000000000000000000000000600052604160045260246000fd5b60008060008060808587031215612cfa57600080fd5b612d0385612a7d565b9350612d1160208601612a7d565b925060408501359150606085013567ffffffffffffffff80821115612d3557600080fd5b818701915087601f830112612d4957600080fd5b813581811115612d5b57612d5b612cb5565b604051601f82017fffffffffffffffffffffffffffffffffffffffffffffffffffffffffffffffe0908116603f01168101908382118183101715612da157612da1612cb5565b816040528281528a6020848701011115612dba57600080fd5b82602086016020830137600060208483010152809550505050505092959194509250565b60008060408385031215612df157600080fd5b612dfa83612a7d565b9150612b2f60208401612a7d565b60008060008060608587031215612e1e57600080fd5b612e2785612a7d565b9350612e3560208601612a7d565b9250604085013567ffffffffffffffff811115612e5157600080fd5b612e5d87828801612b38565b95989497509550505050565b600181811c90821680612e7d57607f821691505b602082108103612eb6577f4e487b7100000000000000000000000000000000000000000000000000000000600052602260045260246000fd5b50919050565b60008151612ece8185602086016129db565b9290920192915050565b600080845481600182811c915080831680612ef457607f831692505b60208084108203612f2c577f4e487b710000000000000000000000000000000000000000000000000000000086526022600452602486fd5b818015612f405760018114612f6f57612f9c565b7fffffffffffffffffffffffffffffffffffffffffffffffffffffffffffffff00861689528489019650612f9c565b60008b81526020902060005b86811015612f945781548b820152908501908301612f7b565b505084890196505b505050505050612fac8185612ebc565b95945050505050565b7f4e487b7100000000000000000000000000000000000000000000000000000000600052601160045260246000fd5b600082821015612ff657612ff6612fb5565b500390565b7f416363657373436f6e74726f6c3a206d697373696e67202700000000000000008152600082516130338160188501602087016129db565b7f2720726f6c6500000000000000000000000000000000000000000000000000006018939091019283015250601e01919050565b7f4e487b7100000000000000000000000000000000000000000000000000000000600052603260045260246000fd5b60007fffffffffffffffffffffffffffffffffffffffffffffffffffffffffffffffff82036130c7576130c7612fb5565b5060010190565b600082198211156130e1576130e1612fb5565b500190565b60008261311c577f4e487b7100000000000000000000000000000000000000000000000000000000600052601260045260246000fd5b500490565b60008161313057613130612fb5565b507fffffffffffffffffffffffffffffffffffffffffffffffffffffffffffffffff0190565b600073ffffffffffffffffffffffffffffffffffffffff8087168352808616602084015250836040830152608060608301526131956080830184612a07565b9695505050505050565b6000602082840312156131b157600080fd5b81516108958161299056fea264697066735822122083485b4d49649df84b416ee4c046a5dadb1511de78cebe5cc470433935f82b0164736f6c634300080d0033",
  "linkReferences": {},
  "deployedLinkReferences": {}
}