{
  "_format": "hh-sol-artifact-1",
  "contractName": "ERC721Mock",
  "sourceName": "contracts/mocks/token/ERC721/ERC721Mock.sol",
  "abi": [
    {
      "inputs": [
        {
          "internalType": "string",
          "name": "tokenName",
          "type": "string"
        },
        {
          "internalType": "string",
          "name": "tokenSymbol",
          "type": "string"
        },
        {
          "internalType": "contract IForwarderRegistry",
          "name": "forwarderRegistry",
          "type": "address"
        }
      ],
      "stateMutability": "nonpayable",
      "type": "constructor"
    },
    {
      "anonymous": false,
      "inputs": [
        {
          "indexed": true,
          "internalType": "address",
          "name": "owner",
          "type": "address"
        },
        {
          "indexed": true,
          "internalType": "address",
          "name": "approved",
          "type": "address"
        },
        {
          "indexed": true,
          "internalType": "uint256",
          "name": "tokenId",
          "type": "uint256"
        }
      ],
      "name": "Approval",
      "type": "event"
    },
    {
      "anonymous": false,
      "inputs": [
        {
          "indexed": true,
          "internalType": "address",
          "name": "owner",
          "type": "address"
        },
        {
          "indexed": true,
          "internalType": "address",
          "name": "operator",
          "type": "address"
        },
        {
          "indexed": false,
          "internalType": "bool",
          "name": "approved",
          "type": "bool"
        }
      ],
      "name": "ApprovalForAll",
      "type": "event"
    },
    {
      "anonymous": false,
      "inputs": [
        {
          "indexed": false,
          "internalType": "string",
          "name": "baseMetadataURI",
          "type": "string"
        }
      ],
      "name": "BaseMetadataURISet",
      "type": "event"
    },
    {
      "anonymous": false,
      "inputs": [
        {
          "indexed": true,
          "internalType": "address",
          "name": "previousOwner",
          "type": "address"
        },
        {
          "indexed": true,
          "internalType": "address",
          "name": "newOwner",
          "type": "address"
        }
      ],
      "name": "OwnershipTransferred",
      "type": "event"
    },
    {
      "anonymous": false,
      "inputs": [
        {
          "indexed": false,
          "internalType": "bytes32",
          "name": "role",
          "type": "bytes32"
        },
        {
          "indexed": false,
          "internalType": "address",
          "name": "account",
          "type": "address"
        },
        {
          "indexed": false,
          "internalType": "address",
          "name": "operator",
          "type": "address"
        }
      ],
      "name": "RoleGranted",
      "type": "event"
    },
    {
      "anonymous": false,
      "inputs": [
        {
          "indexed": false,
          "internalType": "bytes32",
          "name": "role",
          "type": "bytes32"
        },
        {
          "indexed": false,
          "internalType": "address",
          "name": "account",
          "type": "address"
        },
        {
          "indexed": false,
          "internalType": "address",
          "name": "operator",
          "type": "address"
        }
      ],
      "name": "RoleRevoked",
      "type": "event"
    },
    {
      "anonymous": false,
      "inputs": [
        {
          "indexed": true,
          "internalType": "address",
          "name": "from",
          "type": "address"
        },
        {
          "indexed": true,
          "internalType": "address",
          "name": "to",
          "type": "address"
        },
        {
          "indexed": true,
          "internalType": "uint256",
          "name": "tokenId",
          "type": "uint256"
        }
      ],
      "name": "Transfer",
      "type": "event"
    },
    {
      "inputs": [],
      "name": "MINTER_ROLE",
      "outputs": [
        {
          "internalType": "bytes32",
          "name": "",
          "type": "bytes32"
        }
      ],
      "stateMutability": "view",
      "type": "function"
    },
    {
      "inputs": [],
      "name": "__msgData",
      "outputs": [
        {
          "internalType": "bytes",
          "name": "",
          "type": "bytes"
        }
      ],
      "stateMutability": "view",
      "type": "function"
    },
    {
      "inputs": [
        {
          "internalType": "address",
          "name": "to",
          "type": "address"
        },
        {
          "internalType": "uint256",
          "name": "tokenId",
          "type": "uint256"
        }
      ],
      "name": "approve",
      "outputs": [],
      "stateMutability": "nonpayable",
      "type": "function"
    },
    {
      "inputs": [
        {
          "internalType": "address",
          "name": "owner",
          "type": "address"
        }
      ],
      "name": "balanceOf",
      "outputs": [
        {
          "internalType": "uint256",
          "name": "balance",
          "type": "uint256"
        }
      ],
      "stateMutability": "view",
      "type": "function"
    },
    {
      "inputs": [],
      "name": "baseMetadataURI",
      "outputs": [
        {
          "internalType": "string",
          "name": "baseURI",
          "type": "string"
        }
      ],
      "stateMutability": "view",
      "type": "function"
    },
    {
      "inputs": [
        {
          "internalType": "address",
          "name": "to",
          "type": "address"
        },
        {
          "internalType": "uint256[]",
          "name": "tokenIds",
          "type": "uint256[]"
        }
      ],
      "name": "batchMint",
      "outputs": [],
      "stateMutability": "nonpayable",
      "type": "function"
    },
    {
      "inputs": [
        {
          "internalType": "address",
          "name": "from",
          "type": "address"
        },
        {
          "internalType": "address",
          "name": "to",
          "type": "address"
        },
        {
          "internalType": "uint256[]",
          "name": "tokenIds",
          "type": "uint256[]"
        }
      ],
      "name": "batchTransferFrom",
      "outputs": [],
      "stateMutability": "nonpayable",
      "type": "function"
    },
    {
      "inputs": [
        {
          "internalType": "address[]",
          "name": "recipients",
          "type": "address[]"
        },
        {
          "internalType": "uint256[]",
          "name": "tokenIds",
          "type": "uint256[]"
        }
      ],
      "name": "deliver",
      "outputs": [],
      "stateMutability": "nonpayable",
      "type": "function"
    },
    {
      "inputs": [],
      "name": "forwarderRegistry",
      "outputs": [
        {
          "internalType": "contract IForwarderRegistry",
          "name": "",
          "type": "address"
        }
      ],
      "stateMutability": "view",
      "type": "function"
    },
    {
      "inputs": [
        {
          "internalType": "uint256",
          "name": "tokenId",
          "type": "uint256"
        }
      ],
      "name": "getApproved",
      "outputs": [
        {
          "internalType": "address",
          "name": "approved",
          "type": "address"
        }
      ],
      "stateMutability": "view",
      "type": "function"
    },
    {
      "inputs": [
        {
          "internalType": "bytes32",
          "name": "role",
          "type": "bytes32"
        },
        {
          "internalType": "address",
          "name": "account",
          "type": "address"
        }
      ],
      "name": "grantRole",
      "outputs": [],
      "stateMutability": "nonpayable",
      "type": "function"
    },
    {
      "inputs": [
        {
          "internalType": "bytes32",
          "name": "role",
          "type": "bytes32"
        },
        {
          "internalType": "address",
          "name": "account",
          "type": "address"
        }
      ],
      "name": "hasRole",
      "outputs": [
        {
          "internalType": "bool",
          "name": "",
          "type": "bool"
        }
      ],
      "stateMutability": "view",
      "type": "function"
    },
    {
      "inputs": [
        {
          "internalType": "address",
          "name": "owner",
          "type": "address"
        },
        {
          "internalType": "address",
          "name": "operator",
          "type": "address"
        }
      ],
      "name": "isApprovedForAll",
      "outputs": [
        {
          "internalType": "bool",
          "name": "approvedForAll",
          "type": "bool"
        }
      ],
      "stateMutability": "view",
      "type": "function"
    },
    {
      "inputs": [
        {
          "internalType": "address",
          "name": "forwarder",
          "type": "address"
        }
      ],
      "name": "isTrustedForwarder",
      "outputs": [
        {
          "internalType": "bool",
          "name": "",
          "type": "bool"
        }
      ],
      "stateMutability": "view",
      "type": "function"
    },
    {
      "inputs": [
        {
          "internalType": "address",
          "name": "to",
          "type": "address"
        },
        {
          "internalType": "uint256",
          "name": "tokenId",
          "type": "uint256"
        }
      ],
      "name": "mint",
      "outputs": [],
      "stateMutability": "nonpayable",
      "type": "function"
    },
    {
      "inputs": [],
      "name": "name",
      "outputs": [
        {
          "internalType": "string",
          "name": "tokenName",
          "type": "string"
        }
      ],
      "stateMutability": "view",
      "type": "function"
    },
    {
      "inputs": [],
      "name": "owner",
      "outputs": [
        {
          "internalType": "address",
          "name": "",
          "type": "address"
        }
      ],
      "stateMutability": "view",
      "type": "function"
    },
    {
      "inputs": [
        {
          "internalType": "uint256",
          "name": "tokenId",
          "type": "uint256"
        }
      ],
      "name": "ownerOf",
      "outputs": [
        {
          "internalType": "address",
          "name": "tokenOwner",
          "type": "address"
        }
      ],
      "stateMutability": "view",
      "type": "function"
    },
    {
      "inputs": [
        {
          "internalType": "bytes32",
          "name": "role",
          "type": "bytes32"
        }
      ],
      "name": "renounceRole",
      "outputs": [],
      "stateMutability": "nonpayable",
      "type": "function"
    },
    {
      "inputs": [
        {
          "internalType": "bytes32",
          "name": "role",
          "type": "bytes32"
        },
        {
          "internalType": "address",
          "name": "account",
          "type": "address"
        }
      ],
      "name": "revokeRole",
      "outputs": [],
      "stateMutability": "nonpayable",
      "type": "function"
    },
    {
      "inputs": [
        {
          "internalType": "address",
          "name": "to",
          "type": "address"
        },
        {
          "internalType": "uint256",
          "name": "tokenId",
          "type": "uint256"
        },
        {
          "internalType": "bytes",
          "name": "data",
          "type": "bytes"
        }
      ],
      "name": "safeMint",
      "outputs": [],
      "stateMutability": "nonpayable",
      "type": "function"
    },
    {
      "inputs": [
        {
          "internalType": "address",
          "name": "from",
          "type": "address"
        },
        {
          "internalType": "address",
          "name": "to",
          "type": "address"
        },
        {
          "internalType": "uint256",
          "name": "tokenId",
          "type": "uint256"
        }
      ],
      "name": "safeTransferFrom",
      "outputs": [],
      "stateMutability": "nonpayable",
      "type": "function"
    },
    {
      "inputs": [
        {
          "internalType": "address",
          "name": "from",
          "type": "address"
        },
        {
          "internalType": "address",
          "name": "to",
          "type": "address"
        },
        {
          "internalType": "uint256",
          "name": "tokenId",
          "type": "uint256"
        },
        {
          "internalType": "bytes",
          "name": "data",
          "type": "bytes"
        }
      ],
      "name": "safeTransferFrom",
      "outputs": [],
      "stateMutability": "nonpayable",
      "type": "function"
    },
    {
      "inputs": [
        {
          "internalType": "address",
          "name": "operator",
          "type": "address"
        },
        {
          "internalType": "bool",
          "name": "approved",
          "type": "bool"
        }
      ],
      "name": "setApprovalForAll",
      "outputs": [],
      "stateMutability": "nonpayable",
      "type": "function"
    },
    {
      "inputs": [
        {
          "internalType": "string",
          "name": "baseURI",
          "type": "string"
        }
      ],
      "name": "setBaseMetadataURI",
      "outputs": [],
      "stateMutability": "nonpayable",
      "type": "function"
    },
    {
      "inputs": [
        {
          "internalType": "bytes4",
          "name": "interfaceId",
          "type": "bytes4"
        }
      ],
      "name": "supportsInterface",
      "outputs": [
        {
          "internalType": "bool",
          "name": "",
          "type": "bool"
        }
      ],
      "stateMutability": "view",
      "type": "function"
    },
    {
      "inputs": [],
      "name": "symbol",
      "outputs": [
        {
          "internalType": "string",
          "name": "tokenSymbol",
          "type": "string"
        }
      ],
      "stateMutability": "view",
      "type": "function"
    },
    {
      "inputs": [
        {
          "internalType": "uint256",
          "name": "tokenId",
          "type": "uint256"
        }
      ],
      "name": "tokenURI",
      "outputs": [
        {
          "internalType": "string",
          "name": "uri",
          "type": "string"
        }
      ],
      "stateMutability": "view",
      "type": "function"
    },
    {
      "inputs": [
        {
          "internalType": "address",
          "name": "from",
          "type": "address"
        },
        {
          "internalType": "address",
          "name": "to",
          "type": "address"
        },
        {
          "internalType": "uint256",
          "name": "tokenId",
          "type": "uint256"
        }
      ],
      "name": "transferFrom",
      "outputs": [],
      "stateMutability": "nonpayable",
      "type": "function"
    },
    {
      "inputs": [
        {
          "internalType": "address",
          "name": "newOwner",
          "type": "address"
        }
      ],
      "name": "transferOwnership",
      "outputs": [],
      "stateMutability": "nonpayable",
      "type": "function"
    }
  ],
  "bytecode": "0x60a06040523480156200001157600080fd5b5060405162003f1138038062003f1183398101604081905262000034916200045b565b8282828080336200004f6200010860201b620009a51760201c565b6200007d81620000696200014260201b620009dc1760201c565b6200017860201b62000a0a1790919060201c565b5062000093620001f660201b62000ac01760201c565b6001600160a01b031660805250620000b8905062000219602090811b62000aee17901c565b620000cd6200023c60201b62000b1c1760201c565b620000fd8282620000e86200025f60201b62000b4a1760201c565b6200028f60201b62000b78179092919060201c565b505050505062000664565b620001406380ac58cd60e01b60016200012b620002d660201b62000bbd1760201c565b6200030660201b62000beb179092919060201c565b565b6000806200017260017fc9ed16f33ab3a66c84bfd83099ccb2a8845871e2e1c1928f63797152f0fd54cd620004e8565b92915050565b6001600160a01b03811615620001cf5781546001600160a01b0319166001600160a01b03821690811783556040516000907f8be0079c531659141344cd1fd0a4f28419497f9722a3daafe3b4186f6b6457e0908290a35b620001f26307f5828d60e41b60016200012b620002d660201b62000bbd1760201c565b5050565b62000140638e773e1360e01b60016200012b620002d660201b62000bbd1760201c565b62000140634ed2f41960e11b60016200012b620002d660201b62000bbd1760201c565b6200014063f3993d1160e01b60016200012b620002d660201b62000bbd1760201c565b6000806200017260017f9c4269c0f9f430d98876ffe9767fbf3f3232ea91a549beb549e5329532520eb3620004e8565b826200029c838262000598565b5060018301620002ad828262000598565b50620002d1635b5e139f60e01b60016200012b620002d660201b62000bbd1760201c565b505050565b6000806200017260017fca9d3e17f264b0f3984e2634e94adb37fa3e6a8103f06aeae6fa59e21c769f5e620004e8565b600160e01b6001600160e01b0319831601620003685760405162461bcd60e51b815260206004820152601f60248201527f496e74657266616365446574656374696f6e3a2077726f6e672076616c756500604482015260640160405180910390fd5b6001600160e01b03199190911660009081526020929092526040909120805460ff1916911515919091179055565b634e487b7160e01b600052604160045260246000fd5b600082601f830112620003be57600080fd5b81516001600160401b0380821115620003db57620003db62000396565b604051601f8301601f19908116603f0116810190828211818310171562000406576200040662000396565b816040528381526020925086838588010111156200042357600080fd5b600091505b8382101562000447578582018301518183018401529082019062000428565b600093810190920192909252949350505050565b6000806000606084860312156200047157600080fd5b83516001600160401b03808211156200048957600080fd5b6200049787838801620003ac565b94506020860151915080821115620004ae57600080fd5b50620004bd86828701620003ac565b604086015190935090506001600160a01b0381168114620004dd57600080fd5b809150509250925092565b818103818111156200017257634e487b7160e01b600052601160045260246000fd5b600181811c908216806200051f57607f821691505b6020821081036200054057634e487b7160e01b600052602260045260246000fd5b50919050565b601f821115620002d157600081815260208120601f850160051c810160208610156200056f5750805b601f850160051c820191505b8181101562000590578281556001016200057b565b505050505050565b81516001600160401b03811115620005b457620005b462000396565b620005cc81620005c584546200050a565b8462000546565b602080601f831160018114620006045760008415620005eb5750858301515b600019600386901b1c1916600185901b17855562000590565b600085815260208120601f198616915b82811015620006355788860151825594840194600190910190840162000614565b5085821015620006545787850151600019600388901b60f8161c191681555b5050505050600190811b01905550565b60805161386e620006a36000396000818161027e0152818161031401528181612a6401528181612aec01528181612b9f0152612bdd015261386e6000f3fe608060405234801561001057600080fd5b50600436106101da5760003560e01c80637e518ec811610104578063a22cb465116100a2578063d547741f11610071578063d547741f1461045c578063e985e9c51461046f578063f2fde38b14610482578063f3993d111461049557600080fd5b8063a22cb465146103fc578063b88d4fde1461040f578063c87b56dd14610422578063d53913931461043557600080fd5b80638da5cb5b116100de5780638da5cb5b146103c657806391d14854146103ce57806395d89b41146103e15780639da5e832146103e957600080fd5b80637e518ec81461038d5780638832e6e3146103a05780638bb9c5bf146103b357600080fd5b806331e66e1e1161017c578063572b6c051161014b578063572b6c05146103045780635b2bd79e146103515780636352211e1461035957806370a082311461036c57600080fd5b806331e66e1e146102b557806340c10f19146102cb57806342842e0e146102de5780634684d7e9146102f157600080fd5b8063095ea7b3116101b8578063095ea7b31461025457806323b872dd146102695780632b4c9f161461027c5780632f2ff15d146102a257600080fd5b806301ffc9a7146101df57806306fdde0314610207578063081812fc1461021c575b600080fd5b6101f26101ed366004612e13565b6104a8565b60405190151581526020015b60405180910390f35b61020f6104c2565b6040516101fe9190612e9e565b61022f61022a366004612eb1565b6104d9565b60405173ffffffffffffffffffffffffffffffffffffffff90911681526020016101fe565b610267610262366004612ef3565b6104ed565b005b610267610277366004612f1d565b61050e565b7f000000000000000000000000000000000000000000000000000000000000000061022f565b6102676102b0366004612f59565b610532565b6102bd610566565b6040516101fe929190612fce565b6102676102d9366004612ef3565b610579565b6102676102ec366004612f1d565b6105c8565b6102676102ff36600461302e565b6105e7565b6101f2610312366004613081565b7f000000000000000000000000000000000000000000000000000000000000000073ffffffffffffffffffffffffffffffffffffffff90811691161490565b61020f61065b565b61022f610367366004612eb1565b610668565b61037f61037a366004613081565b61067c565b6040519081526020016101fe565b61026761039b3660046130de565b610690565b6102676103ae366004613120565b6106b7565b6102676103c1366004612eb1565b61073f565b61022f61075d565b6101f26103dc366004612f59565b610784565b61020f6107cf565b6102676103f736600461317a565b6107e1565b61026761040a3660046131e8565b610885565b61026761041d36600461321f565b6108a2565b61020f610430366004612eb1565b6108cc565b61037f7f6d696e746572000000000000000000000000000000000000000000000000000081565b61026761046a366004612f59565b6108ed565b6101f261047d36600461328e565b61091b565b610267610490366004613081565b610969565b6102676104a33660046132b8565b610984565b60006104bc826104b6610bbd565b90610cfc565b92915050565b60606104d46104cf610b4a565b610dd6565b905090565b60006104bc826104e7610e6c565b90610e9a565b61050a6104f8610f7b565b8383610502610e6c565b929190610f85565b5050565b61052d610519610f7b565b848484610524610e6c565b9392919061124e565b505050565b600061053c610f7b565b90506105508161054a6109dc565b906115a3565b61052d83838361055e611626565b929190611654565b36600061057161172a565b915091509091565b6105b47f6d696e74657200000000000000000000000000000000000000000000000000006105a5610f7b565b6105ad611626565b9190611735565b61050a82826105c1610e6c565b91906117e1565b61052d6105d3610f7b565b8484846105de610e6c565b93929190611958565b6106137f6d696e74657200000000000000000000000000000000000000000000000000006105a5610f7b565b61052d838383808060200260200160405190810160405280939291908181526020018383602002808284376000920191909152506106549250610e6c915050565b919061199e565b60606104d46104cf611b72565b60006104bc82610676610e6c565b90611ba0565b60006104bc8261068a610e6c565b90611c36565b6106a361069b610f7b565b61054a6109dc565b61050a82826106b0611b72565b9190611ce2565b6106e37f6d696e74657200000000000000000000000000000000000000000000000000006105a5610f7b565b6107396106ee610f7b565b858585858080601f0160208091040260200160405190810160405280939291908181526020018383808284376000920191909152506107309250610e6c915050565b93929190611d2d565b50505050565b61075a61074a610f7b565b82610753611626565b9190611d63565b50565b60006104d461076a6109dc565b5473ffffffffffffffffffffffffffffffffffffffff1690565b60006107c88383610793611626565b60009283526020908152604080842073ffffffffffffffffffffffffffffffffffffffff909316845291905290205460ff1690565b9392505050565b60606104d46107dc610b4a565b611dff565b61080d7f6d696e74657200000000000000000000000000000000000000000000000000006105a5610f7b565b6107398484808060200260200160405190810160405280939291908181526020018383602002808284376000920191909152505060408051602080880282810182019093528782529093508792508691829185019084908082843760009201919091525061087e9250610e6c915050565b9190611e10565b61050a610890610f7b565b838361089a610e6c565b929190611ed5565b6108c56108ad610f7b565b86868686866108ba610e6c565b959493929190612005565b5050505050565b60606108da82610676610e6c565b506104bc826108e7611b72565b9061207b565b60006108f7610f7b565b90506109058161054a6109dc565b61052d838383610913611626565b9291906120af565b60006107c8838361092a610e6c565b919073ffffffffffffffffffffffffffffffffffffffff9182166000908152600393909301602090815260408085209290931684525290205460ff1690565b61075a610974610f7b565b8261097d6109dc565b9190612179565b61073961098f610f7b565b8585858561099b610e6c565b94939291906122a5565b6109da7f80ac58cd0000000000000000000000000000000000000000000000000000000060016109d3610bbd565b9190610beb565b565b6000806104bc60017fc9ed16f33ab3a66c84bfd83099ccb2a8845871e2e1c1928f63797152f0fd54cd61330d565b73ffffffffffffffffffffffffffffffffffffffff811615610a925781547fffffffffffffffffffffffff00000000000000000000000000000000000000001673ffffffffffffffffffffffffffffffffffffffff821690811783556040516000907f8be0079c531659141344cd1fd0a4f28419497f9722a3daafe3b4186f6b6457e0908290a35b61050a7f7f5828d00000000000000000000000000000000000000000000000000000000060016109d3610bbd565b6109da7f8e773e130000000000000000000000000000000000000000000000000000000060016109d3610bbd565b6109da7f9da5e8320000000000000000000000000000000000000000000000000000000060016109d3610bbd565b6109da7ff3993d110000000000000000000000000000000000000000000000000000000060016109d3610bbd565b6000806104bc60017f9c4269c0f9f430d98876ffe9767fbf3f3232ea91a549beb549e5329532520eb361330d565b82610b838382613417565b5060018301610b928282613417565b5061052d7f5b5e139f0000000000000000000000000000000000000000000000000000000060016109d35b6000806104bc60017fca9d3e17f264b0f3984e2634e94adb37fa3e6a8103f06aeae6fa59e21c769f5e61330d565b7c01000000000000000000000000000000000000000000000000000000007fffffffff00000000000000000000000000000000000000000000000000000000831601610c98576040517f08c379a000000000000000000000000000000000000000000000000000000000815260206004820152601f60248201527f496e74657266616365446574656374696f6e3a2077726f6e672076616c75650060448201526064015b60405180910390fd5b7fffffffff00000000000000000000000000000000000000000000000000000000919091166000908152602092909252604090912080547fffffffffffffffffffffffffffffffffffffffffffffffffffffffffffffff0016911515919091179055565b60007c01000000000000000000000000000000000000000000000000000000007fffffffff00000000000000000000000000000000000000000000000000000000831601610d4c575060006104bc565b7ffe003659000000000000000000000000000000000000000000000000000000007fffffffff00000000000000000000000000000000000000000000000000000000831601610d9d575060016104bc565b507fffffffff00000000000000000000000000000000000000000000000000000000166000908152602091909152604090205460ff1690565b6060816000018054610de790613376565b80601f0160208091040260200160405190810160405280929190818152602001828054610e1390613376565b8015610e605780601f10610e3557610100808354040283529160200191610e60565b820191906000526020600020905b815481529060010190602001808311610e4357829003601f168201915b50505050509050919050565b6000806104bc60017fddf3ee18ae6d688373c219468f8be446e7ae82215f4779d821c7ea5e8c13c0c161330d565b60008181526020839052604081205473ffffffffffffffffffffffffffffffffffffffff8116610f26576040517f08c379a000000000000000000000000000000000000000000000000000000000815260206004820152601a60248201527f4552433732313a206e6f6e2d6578697374696e6720746f6b656e0000000000006044820152606401610c8f565b74010000000000000000000000000000000000000000811615610f71575050600081815260028301602052604090205473ffffffffffffffffffffffffffffffffffffffff166104bc565b60009150506104bc565b60006104d4612621565b60008181526020859052604090205473ffffffffffffffffffffffffffffffffffffffff8116611011576040517f08c379a000000000000000000000000000000000000000000000000000000000815260206004820152601a60248201527f4552433732313a206e6f6e2d6578697374696e6720746f6b656e0000000000006044820152606401610c8f565b8073ffffffffffffffffffffffffffffffffffffffff80821690851603611094576040517f08c379a000000000000000000000000000000000000000000000000000000000815260206004820152601560248201527f4552433732313a2073656c662d617070726f76616c00000000000000000000006044820152606401610c8f565b61109f86828761262b565b611105576040517f08c379a000000000000000000000000000000000000000000000000000000000815260206004820152601b60248201527f4552433732313a206e6f6e2d617070726f7665642073656e64657200000000006044820152606401610c8f565b73ffffffffffffffffffffffffffffffffffffffff841661116a577401000000000000000000000000000000000000000082161561116557600083815260208790526040902073ffffffffffffffffffffffffffffffffffffffff821690555b6111eb565b74010000000000000000000000000000000000000000821780831461119b5760008481526020889052604090208190555b506000838152600287016020526040902080547fffffffffffffffffffffffff00000000000000000000000000000000000000001673ffffffffffffffffffffffffffffffffffffffff86161790555b828473ffffffffffffffffffffffffffffffffffffffff168273ffffffffffffffffffffffffffffffffffffffff167f8c5be1e5ebec7d5bd14f71427d1e84f3dd0314c0f7b2291e5b200ac8c7c3b92560405160405180910390a4505050505050565b73ffffffffffffffffffffffffffffffffffffffff82166112cb576040517f08c379a000000000000000000000000000000000000000000000000000000000815260206004820152601e60248201527f4552433732313a207472616e7366657220746f206164647265737328302900006044820152606401610c8f565b60008181526020869052604090205473ffffffffffffffffffffffffffffffffffffffff8116611357576040517f08c379a000000000000000000000000000000000000000000000000000000000815260206004820152601a60248201527f4552433732313a206e6f6e2d6578697374696e6720746f6b656e0000000000006044820152606401610c8f565b73ffffffffffffffffffffffffffffffffffffffff84168173ffffffffffffffffffffffffffffffffffffffff16146113ec576040517f08c379a000000000000000000000000000000000000000000000000000000000815260206004820152601760248201527f4552433732313a206e6f6e2d6f776e656420746f6b656e0000000000000000006044820152606401610c8f565b6113f786858761262b565b6114af57740100000000000000000000000000000000000000008116151580156114495750600082815260028701602052604090205473ffffffffffffffffffffffffffffffffffffffff8681169116145b6114af576040517f08c379a000000000000000000000000000000000000000000000000000000000815260206004820152601b60248201527f4552433732313a206e6f6e2d617070726f7665642073656e64657200000000006044820152606401610c8f565b600082815260208790526040902073ffffffffffffffffffffffffffffffffffffffff808516918290558516146115405773ffffffffffffffffffffffffffffffffffffffff80851660009081526001808901602052604080832080547fffffffffffffffffffffffffffffffffffffffffffffffffffffffffffffffff0190559286168252919020805490910190555b818373ffffffffffffffffffffffffffffffffffffffff168573ffffffffffffffffffffffffffffffffffffffff167fddf252ad1be2c89b69c2b068fc378daa952ba7f163c4a11628f55a4df523b3ef60405160405180910390a4505050505050565b815473ffffffffffffffffffffffffffffffffffffffff82811691161461050a576040517f08c379a000000000000000000000000000000000000000000000000000000000815260206004820152601860248201527f4f776e6572736869703a206e6f7420746865206f776e657200000000000000006044820152606401610c8f565b6000806104bc60017fc8827d3282af6f37b64c3e9e6f3ac9df286ab0bb0fccd6f8661bf19adb368b2361330d565b60008381526020858152604080832073ffffffffffffffffffffffffffffffffffffffff8616845290915290205460ff166107395760008381526020858152604080832073ffffffffffffffffffffffffffffffffffffffff8681168086529184529382902080547fffffffffffffffffffffffffffffffffffffffffffffffffffffffffffffff00166001179055815187815292830152918316918101919091527f2f8788117e7eff1d82e926ec794901d17c78024a50270940304540a733656f0d906060015b60405180910390a150505050565b3660006105716126a0565b60008281526020848152604080832073ffffffffffffffffffffffffffffffffffffffff8516845290915290205460ff1661052d57611773826126ab565b6040516020016117839190613531565b604080517fffffffffffffffffffffffffffffffffffffffffffffffffffffffffffffffe0818403018152908290527f08c379a0000000000000000000000000000000000000000000000000000000008252610c8f91600401612e9e565b73ffffffffffffffffffffffffffffffffffffffff821661185e576040517f08c379a000000000000000000000000000000000000000000000000000000000815260206004820152601a60248201527f4552433732313a206d696e7420746f20616464726573732830290000000000006044820152606401610c8f565b60008181526020849052604090205473ffffffffffffffffffffffffffffffffffffffff16156118ea576040517f08c379a000000000000000000000000000000000000000000000000000000000815260206004820152601660248201527f4552433732313a206578697374696e6720746f6b656e000000000000000000006044820152606401610c8f565b60008181526020848152604080832073ffffffffffffffffffffffffffffffffffffffff86169081905580845260018088019093528184208054909301909255518392907fddf252ad1be2c89b69c2b068fc378daa952ba7f163c4a11628f55a4df523b3ef908290a4505050565b611965858585858561124e565b73ffffffffffffffffffffffffffffffffffffffff82163b156108c5576108c5848484846040518060200160405280600081525061283d565b73ffffffffffffffffffffffffffffffffffffffff8216611a1b576040517f08c379a000000000000000000000000000000000000000000000000000000000815260206004820152601a60248201527f4552433732313a206d696e7420746f20616464726573732830290000000000006044820152606401610c8f565b805160005b818114611b3d576000838281518110611a3b57611a3b61359d565b60200260200101519050611a798660000160008381526020019081526020016000205473ffffffffffffffffffffffffffffffffffffffff16151590565b15611ae0576040517f08c379a000000000000000000000000000000000000000000000000000000000815260206004820152601660248201527f4552433732313a206578697374696e6720746f6b656e000000000000000000006044820152606401610c8f565b60008181526020879052604080822073ffffffffffffffffffffffffffffffffffffffff88169081905590518392907fddf252ad1be2c89b69c2b068fc378daa952ba7f163c4a11628f55a4df523b3ef908290a450600101611a20565b5073ffffffffffffffffffffffffffffffffffffffff9092166000908152600190930160205250604090912080549091019055565b6000806104bc60017fe94434e3c6b941c5d90218142fadcc69cb2e13723993540bfa1c131dd1d3475a61330d565b60008181526020839052604081205473ffffffffffffffffffffffffffffffffffffffff8116611c2c576040517f08c379a000000000000000000000000000000000000000000000000000000000815260206004820152601a60248201527f4552433732313a206e6f6e2d6578697374696e6720746f6b656e0000000000006044820152606401610c8f565b805b949350505050565b600073ffffffffffffffffffffffffffffffffffffffff8216611cb5576040517f08c379a000000000000000000000000000000000000000000000000000000000815260206004820152601d60248201527f4552433732313a2062616c616e6365206f6620616464726573732830290000006044820152606401610c8f565b5073ffffffffffffffffffffffffffffffffffffffff166000908152600191909101602052604090205490565b82611cee8284836135cc565b507f04b1dc5c136a3ce9fded8db0ce3d3366c58764ec3a8e4c2b9e52e4ddfe5ebbf78282604051611d20929190612fce565b60405180910390a1505050565b611d388584846117e1565b73ffffffffffffffffffffffffffffffffffffffff83163b156108c5576108c584600085858561283d565b611d6e838284611735565b60008181526020848152604080832073ffffffffffffffffffffffffffffffffffffffff86168085529083529281902080547fffffffffffffffffffffffffffffffffffffffffffffffffffffffffffffff0016905580518481529182018390528101919091527ff6391f5c32d9c69d2a47ea670b442974b53935d1edc7fd64eb21e047a839171b90606001611d20565b6060816001018054610de790613376565b815181518114611e7c576040517f08c379a000000000000000000000000000000000000000000000000000000000815260206004820152601b60248201527f4552433732313a20696e636f6e73697374656e742061727261797300000000006044820152606401610c8f565b60005b8181146108c557611ecd848281518110611e9b57611e9b61359d565b6020026020010151848381518110611eb557611eb561359d565b6020026020010151876117e19092919063ffffffff16565b600101611e7f565b8273ffffffffffffffffffffffffffffffffffffffff168273ffffffffffffffffffffffffffffffffffffffff1603611f6a576040517f08c379a000000000000000000000000000000000000000000000000000000000815260206004820152601d60248201527f4552433732313a2073656c662d617070726f76616c20666f7220616c6c0000006044820152606401610c8f565b73ffffffffffffffffffffffffffffffffffffffff838116600081815260038701602090815260408083209487168084529482529182902080547fffffffffffffffffffffffffffffffffffffffffffffffffffffffffffffff001686151590811790915591519182527f17307eab39ab6107e8899845ad3d59bd9653f200f220920489ca2b5937696c31910160405180910390a350505050565b612012878787878761124e565b73ffffffffffffffffffffffffffffffffffffffff84163b15612072576120728686868686868080601f01602080910402602001604051908101604052809392919081815260200183838082843760009201919091525061283d92505050565b50505050505050565b60608261208783612963565b6040516020016120989291906136e6565b604051602081830303815290604052905092915050565b60008381526020858152604080832073ffffffffffffffffffffffffffffffffffffffff8616845290915290205460ff16156107395760008381526020858152604080832073ffffffffffffffffffffffffffffffffffffffff8681168086529184529382902080547fffffffffffffffffffffffffffffffffffffffffffffffffffffffffffffff00169055815187815292830152918316918101919091527ff6391f5c32d9c69d2a47ea670b442974b53935d1edc7fd64eb21e047a839171b9060600161171c565b825473ffffffffffffffffffffffffffffffffffffffff90811690831681146121fe576040517f08c379a000000000000000000000000000000000000000000000000000000000815260206004820152601860248201527f4f776e6572736869703a206e6f7420746865206f776e657200000000000000006044820152606401610c8f565b8173ffffffffffffffffffffffffffffffffffffffff168173ffffffffffffffffffffffffffffffffffffffff16146107395783547fffffffffffffffffffffffff00000000000000000000000000000000000000001673ffffffffffffffffffffffffffffffffffffffff8381169182178655604051908316907f8be0079c531659141344cd1fd0a4f28419497f9722a3daafe3b4186f6b6457e090600090a350505050565b73ffffffffffffffffffffffffffffffffffffffff8316612322576040517f08c379a000000000000000000000000000000000000000000000000000000000815260206004820152601e60248201527f4552433732313a207472616e7366657220746f206164647265737328302900006044820152606401610c8f565b600061232f87868861262b565b90508160005b8181146125995760008585838181106123505761235061359d565b602090810292909201356000818152928d90526040909220549192505073ffffffffffffffffffffffffffffffffffffffff81166123ea576040517f08c379a000000000000000000000000000000000000000000000000000000000815260206004820152601a60248201527f4552433732313a206e6f6e2d6578697374696e6720746f6b656e0000000000006044820152606401610c8f565b73ffffffffffffffffffffffffffffffffffffffff89168173ffffffffffffffffffffffffffffffffffffffff161461247f576040517f08c379a000000000000000000000000000000000000000000000000000000000815260206004820152601760248201527f4552433732313a206e6f6e2d6f776e656420746f6b656e0000000000000000006044820152606401610c8f565b8461253857740100000000000000000000000000000000000000008116151580156124d25750600082815260028c01602052604090205473ffffffffffffffffffffffffffffffffffffffff8b81169116145b612538576040517f08c379a000000000000000000000000000000000000000000000000000000000815260206004820152601b60248201527f4552433732313a206e6f6e2d617070726f7665642073656e64657200000000006044820152606401610c8f565b600082815260208c9052604080822073ffffffffffffffffffffffffffffffffffffffff808c16918290559151859391928d16917fddf252ad1be2c89b69c2b068fc378daa952ba7f163c4a11628f55a4df523b3ef91a45050600101612335565b508473ffffffffffffffffffffffffffffffffffffffff168673ffffffffffffffffffffffffffffffffffffffff16141580156125d557508015155b156126175773ffffffffffffffffffffffffffffffffffffffff808716600090815260018a016020526040808220805485900390559187168152208054820190555b5050505050505050565b60006104d4612a21565b60008173ffffffffffffffffffffffffffffffffffffffff168373ffffffffffffffffffffffffffffffffffffffff161480611c2e57505073ffffffffffffffffffffffffffffffffffffffff9182166000908152600393909301602090815260408085209290931684525290205460ff1690565b366000610571612b68565b606060008290036126ca57505060408051602081019091526000815290565b6000826040516020016126df91815260200190565b604080517fffffffffffffffffffffffffffffffffffffffffffffffffffffffffffffffe08184030181529190529050601f5b8181815181106127245761272461359d565b01602001517fff0000000000000000000000000000000000000000000000000000000000000016600003612779577fffffffffffffffffffffffffffffffffffffffffffffffffffffffffffffffff01612712565b60008160010167ffffffffffffffff81111561279757612797613347565b6040519080825280601f01601f1916602001820160405280156127c1576020820181803683370190505b50905060005b828111612834578381815181106127e0576127e061359d565b602001015160f81c60f81b8282815181106127fd576127fd61359d565b60200101907effffffffffffffffffffffffffffffffffffffffffffffffffffffffffffff1916908160001a9053506001016127c7565b50949350505050565b6040517f150b7a02000000000000000000000000000000000000000000000000000000008082529073ffffffffffffffffffffffffffffffffffffffff85169063150b7a029061289790899089908890889060040161378b565b6020604051808303816000875af11580156128b6573d6000803e3d6000fd5b505050506040513d601f19601f820116820180604052508101906128da91906137d4565b7fffffffff0000000000000000000000000000000000000000000000000000000016146108c5576040517f08c379a000000000000000000000000000000000000000000000000000000000815260206004820152601e60248201527f4552433732313a2073616665207472616e736665722072656a656374656400006044820152606401610c8f565b6060600061297083612cd2565b600101905060008167ffffffffffffffff81111561299057612990613347565b6040519080825280601f01601f1916602001820160405280156129ba576020820181803683370190505b5090508181016020015b7fffffffffffffffffffffffffffffffffffffffffffffffffffffffffffffffff017f3031323334353637383961626364656600000000000000000000000000000000600a86061a8153600a85049450846129c457509392505050565b600033321480612a315750601836105b15612a3b57503390565b7fffffffffffffffffffffffffffffffffffffffffffffffffffffffffffffffec36013560601c7f000000000000000000000000000000000000000000000000000000000000000073ffffffffffffffffffffffffffffffffffffffff16331480612b5757506040517f8929a8ca00000000000000000000000000000000000000000000000000000000815273ffffffffffffffffffffffffffffffffffffffff82811660048301523360248301527f00000000000000000000000000000000000000000000000000000000000000001690638929a8ca90604401602060405180830381865afa158015612b33573d6000803e3d6000fd5b505050506040513d601f19601f82011682018060405250810190612b5791906137f1565b15612b6157919050565b3391505090565b36600033321480612b795750601836105b15612b875750600091369150565b3373ffffffffffffffffffffffffffffffffffffffff7f0000000000000000000000000000000000000000000000000000000000000000161480612cbc575073ffffffffffffffffffffffffffffffffffffffff7f000000000000000000000000000000000000000000000000000000000000000016638929a8ca367fffffffffffffffffffffffffffffffffffffffffffffffffffffffffffffffec013560601c6040517fffffffff0000000000000000000000000000000000000000000000000000000060e084901b16815273ffffffffffffffffffffffffffffffffffffffff9091166004820152336024820152604401602060405180830381865afa158015612c98573d6000803e3d6000fd5b505050506040513d601f19601f82011682018060405250810190612cbc91906137f1565b15612cc957610571612db4565b50600091369150565b6000807a184f03e93ff9f4daa797ed6e38ed64bf6a1f0100000000000000008310612d1b577a184f03e93ff9f4daa797ed6e38ed64bf6a1f010000000000000000830492506040015b6d04ee2d6d415b85acef81000000008310612d47576d04ee2d6d415b85acef8100000000830492506020015b662386f26fc100008310612d6557662386f26fc10000830492506010015b6305f5e1008310612d7d576305f5e100830492506008015b6127108310612d9157612710830492506004015b60648310612da3576064830492506002015b600a83106104bc5760010192915050565b3660006105717fffffffffffffffffffffffffffffffffffffffffffffffffffffffffffffffec830182848161380e565b7fffffffff000000000000000000000000000000000000000000000000000000008116811461075a57600080fd5b600060208284031215612e2557600080fd5b81356107c881612de5565b60005b83811015612e4b578181015183820152602001612e33565b50506000910152565b60008151808452612e6c816020860160208601612e30565b601f017fffffffffffffffffffffffffffffffffffffffffffffffffffffffffffffffe0169290920160200192915050565b6020815260006107c86020830184612e54565b600060208284031215612ec357600080fd5b5035919050565b803573ffffffffffffffffffffffffffffffffffffffff81168114612eee57600080fd5b919050565b60008060408385031215612f0657600080fd5b612f0f83612eca565b946020939093013593505050565b600080600060608486031215612f3257600080fd5b612f3b84612eca565b9250612f4960208501612eca565b9150604084013590509250925092565b60008060408385031215612f6c57600080fd5b82359150612f7c60208401612eca565b90509250929050565b8183528181602085013750600060208284010152600060207fffffffffffffffffffffffffffffffffffffffffffffffffffffffffffffffe0601f840116840101905092915050565b602081526000611c2e602083018486612f85565b60008083601f840112612ff457600080fd5b50813567ffffffffffffffff81111561300c57600080fd5b6020830191508360208260051b850101111561302757600080fd5b9250929050565b60008060006040848603121561304357600080fd5b61304c84612eca565b9250602084013567ffffffffffffffff81111561306857600080fd5b61307486828701612fe2565b9497909650939450505050565b60006020828403121561309357600080fd5b6107c882612eca565b60008083601f8401126130ae57600080fd5b50813567ffffffffffffffff8111156130c657600080fd5b60208301915083602082850101111561302757600080fd5b600080602083850312156130f157600080fd5b823567ffffffffffffffff81111561310857600080fd5b6131148582860161309c565b90969095509350505050565b6000806000806060858703121561313657600080fd5b61313f85612eca565b935060208501359250604085013567ffffffffffffffff81111561316257600080fd5b61316e8782880161309c565b95989497509550505050565b6000806000806040858703121561319057600080fd5b843567ffffffffffffffff808211156131a857600080fd5b6131b488838901612fe2565b909650945060208701359150808211156131cd57600080fd5b5061316e87828801612fe2565b801515811461075a57600080fd5b600080604083850312156131fb57600080fd5b61320483612eca565b91506020830135613214816131da565b809150509250929050565b60008060008060006080868803121561323757600080fd5b61324086612eca565b945061324e60208701612eca565b935060408601359250606086013567ffffffffffffffff81111561327157600080fd5b61327d8882890161309c565b969995985093965092949392505050565b600080604083850312156132a157600080fd5b6132aa83612eca565b9150612f7c60208401612eca565b600080600080606085870312156132ce57600080fd5b6132d785612eca565b93506132e560208601612eca565b9250604085013567ffffffffffffffff81111561330157600080fd5b61316e87828801612fe2565b818103818111156104bc577f4e487b7100000000000000000000000000000000000000000000000000000000600052601160045260246000fd5b7f4e487b7100000000000000000000000000000000000000000000000000000000600052604160045260246000fd5b600181811c9082168061338a57607f821691505b6020821081036133c3577f4e487b7100000000000000000000000000000000000000000000000000000000600052602260045260246000fd5b50919050565b601f82111561052d57600081815260208120601f850160051c810160208610156133f05750805b601f850160051c820191505b8181101561340f578281556001016133fc565b505050505050565b815167ffffffffffffffff81111561343157613431613347565b6134458161343f8454613376565b846133c9565b602080601f83116001811461349857600084156134625750858301515b7fffffffffffffffffffffffffffffffffffffffffffffffffffffffffffffffff600386901b1c1916600185901b17855561340f565b6000858152602081207fffffffffffffffffffffffffffffffffffffffffffffffffffffffffffffffe08616915b828110156134e5578886015182559484019460019091019084016134c6565b508582101561352157878501517fffffffffffffffffffffffffffffffffffffffffffffffffffffffffffffffff600388901b60f8161c191681555b5050505050600190811b01905550565b7f416363657373436f6e74726f6c3a206d697373696e6720270000000000000000815260008251613569816018850160208701612e30565b7f2720726f6c6500000000000000000000000000000000000000000000000000006018939091019283015250601e01919050565b7f4e487b7100000000000000000000000000000000000000000000000000000000600052603260045260246000fd5b67ffffffffffffffff8311156135e4576135e4613347565b6135f8836135f28354613376565b836133c9565b6000601f84116001811461364a57600085156136145750838201355b7fffffffffffffffffffffffffffffffffffffffffffffffffffffffffffffffff600387901b1c1916600186901b1783556108c5565b6000838152602090207fffffffffffffffffffffffffffffffffffffffffffffffffffffffffffffffe0861690835b828110156136995786850135825560209485019460019092019101613679565b50868210156136d4577fffffffffffffffffffffffffffffffffffffffffffffffffffffffffffffffff60f88860031b161c19848701351681555b505060018560011b0183555050505050565b60008084546136f481613376565b6001828116801561370c576001811461373f5761376e565b7fffffffffffffffffffffffffffffffffffffffffffffffffffffffffffffff008416875282151583028701945061376e565b8860005260208060002060005b858110156137655781548a82015290840190820161374c565b50505082870194505b505050508351613782818360208801612e30565b01949350505050565b600073ffffffffffffffffffffffffffffffffffffffff8087168352808616602084015250836040830152608060608301526137ca6080830184612e54565b9695505050505050565b6000602082840312156137e657600080fd5b81516107c881612de5565b60006020828403121561380357600080fd5b81516107c8816131da565b6000808585111561381e57600080fd5b8386111561382b57600080fd5b505082019391909203915056fea26469706673582212203839d17f65194604691cdf139a1c340aff46fa354d7c126cd4a5dffb824eccd064736f6c63430008110033",
  "linkReferences": {},
  "deployedLinkReferences": {}
}