{
  "_format": "hh-sol-artifact-1",
  "contractName": "ERC721Mock",
  "sourceName": "contracts/mocks/token/ERC721/ERC721Mock.sol",
  "abi": [
    {
      "inputs": [
        {
          "internalType": "string",
          "name": "name_",
          "type": "string"
        },
        {
          "internalType": "string",
          "name": "symbol_",
          "type": "string"
        },
        {
          "internalType": "string",
          "name": "tokenURI_",
          "type": "string"
        },
        {
          "internalType": "contract IForwarderRegistry",
          "name": "forwarderRegistry",
          "type": "address"
        }
      ],
      "stateMutability": "nonpayable",
      "type": "constructor"
    },
    {
      "anonymous": false,
      "inputs": [
        {
          "indexed": true,
          "internalType": "address",
          "name": "owner",
          "type": "address"
        },
        {
          "indexed": true,
          "internalType": "address",
          "name": "approved",
          "type": "address"
        },
        {
          "indexed": true,
          "internalType": "uint256",
          "name": "tokenId",
          "type": "uint256"
        }
      ],
      "name": "Approval",
      "type": "event"
    },
    {
      "anonymous": false,
      "inputs": [
        {
          "indexed": true,
          "internalType": "address",
          "name": "owner",
          "type": "address"
        },
        {
          "indexed": true,
          "internalType": "address",
          "name": "operator",
          "type": "address"
        },
        {
          "indexed": false,
          "internalType": "bool",
          "name": "approved",
          "type": "bool"
        }
      ],
      "name": "ApprovalForAll",
      "type": "event"
    },
    {
      "anonymous": false,
      "inputs": [
        {
          "indexed": false,
          "internalType": "string",
          "name": "baseMetadataURI",
          "type": "string"
        }
      ],
      "name": "BaseMetadataURISet",
      "type": "event"
    },
    {
      "anonymous": false,
      "inputs": [
        {
          "indexed": true,
          "internalType": "address",
          "name": "previousOwner",
          "type": "address"
        },
        {
          "indexed": true,
          "internalType": "address",
          "name": "newOwner",
          "type": "address"
        }
      ],
      "name": "OwnershipTransferred",
      "type": "event"
    },
    {
      "anonymous": false,
      "inputs": [
        {
          "indexed": false,
          "internalType": "bytes32",
          "name": "role",
          "type": "bytes32"
        },
        {
          "indexed": false,
          "internalType": "address",
          "name": "account",
          "type": "address"
        },
        {
          "indexed": false,
          "internalType": "address",
          "name": "operator",
          "type": "address"
        }
      ],
      "name": "RoleGranted",
      "type": "event"
    },
    {
      "anonymous": false,
      "inputs": [
        {
          "indexed": false,
          "internalType": "bytes32",
          "name": "role",
          "type": "bytes32"
        },
        {
          "indexed": false,
          "internalType": "address",
          "name": "account",
          "type": "address"
        },
        {
          "indexed": false,
          "internalType": "address",
          "name": "operator",
          "type": "address"
        }
      ],
      "name": "RoleRevoked",
      "type": "event"
    },
    {
      "anonymous": false,
      "inputs": [
        {
          "indexed": true,
          "internalType": "address",
          "name": "from",
          "type": "address"
        },
        {
          "indexed": true,
          "internalType": "address",
          "name": "to",
          "type": "address"
        },
        {
          "indexed": true,
          "internalType": "uint256",
          "name": "tokenId",
          "type": "uint256"
        }
      ],
      "name": "Transfer",
      "type": "event"
    },
    {
      "inputs": [],
      "name": "MINTER_ROLE",
      "outputs": [
        {
          "internalType": "bytes32",
          "name": "",
          "type": "bytes32"
        }
      ],
      "stateMutability": "view",
      "type": "function"
    },
    {
      "inputs": [],
      "name": "__msgData",
      "outputs": [
        {
          "internalType": "bytes",
          "name": "",
          "type": "bytes"
        }
      ],
      "stateMutability": "view",
      "type": "function"
    },
    {
      "inputs": [
        {
          "internalType": "address",
          "name": "to",
          "type": "address"
        },
        {
          "internalType": "uint256",
          "name": "tokenId",
          "type": "uint256"
        }
      ],
      "name": "approve",
      "outputs": [],
      "stateMutability": "nonpayable",
      "type": "function"
    },
    {
      "inputs": [
        {
          "internalType": "address",
          "name": "owner",
          "type": "address"
        }
      ],
      "name": "balanceOf",
      "outputs": [
        {
          "internalType": "uint256",
          "name": "",
          "type": "uint256"
        }
      ],
      "stateMutability": "view",
      "type": "function"
    },
    {
      "inputs": [],
      "name": "baseMetadataURI",
      "outputs": [
        {
          "internalType": "string",
          "name": "",
          "type": "string"
        }
      ],
      "stateMutability": "view",
      "type": "function"
    },
    {
      "inputs": [
        {
          "internalType": "address",
          "name": "to",
          "type": "address"
        },
        {
          "internalType": "uint256[]",
          "name": "tokenIds",
          "type": "uint256[]"
        }
      ],
      "name": "batchMint",
      "outputs": [],
      "stateMutability": "nonpayable",
      "type": "function"
    },
    {
      "inputs": [
        {
          "internalType": "address",
          "name": "from",
          "type": "address"
        },
        {
          "internalType": "address",
          "name": "to",
          "type": "address"
        },
        {
          "internalType": "uint256[]",
          "name": "tokenIds",
          "type": "uint256[]"
        }
      ],
      "name": "batchTransferFrom",
      "outputs": [],
      "stateMutability": "nonpayable",
      "type": "function"
    },
    {
      "inputs": [
        {
          "internalType": "uint256",
          "name": "tokenId",
          "type": "uint256"
        }
      ],
      "name": "getApproved",
      "outputs": [
        {
          "internalType": "address",
          "name": "operator",
          "type": "address"
        }
      ],
      "stateMutability": "view",
      "type": "function"
    },
    {
      "inputs": [
        {
          "internalType": "bytes32",
          "name": "role",
          "type": "bytes32"
        },
        {
          "internalType": "address",
          "name": "account",
          "type": "address"
        }
      ],
      "name": "grantRole",
      "outputs": [],
      "stateMutability": "nonpayable",
      "type": "function"
    },
    {
      "inputs": [
        {
          "internalType": "bytes32",
          "name": "role",
          "type": "bytes32"
        },
        {
          "internalType": "address",
          "name": "account",
          "type": "address"
        }
      ],
      "name": "hasRole",
      "outputs": [
        {
          "internalType": "bool",
          "name": "",
          "type": "bool"
        }
      ],
      "stateMutability": "view",
      "type": "function"
    },
    {
      "inputs": [
        {
          "internalType": "address",
          "name": "owner",
          "type": "address"
        },
        {
          "internalType": "address",
          "name": "operator",
          "type": "address"
        }
      ],
      "name": "isApprovedForAll",
      "outputs": [
        {
          "internalType": "bool",
          "name": "",
          "type": "bool"
        }
      ],
      "stateMutability": "view",
      "type": "function"
    },
    {
      "inputs": [
        {
          "internalType": "address",
          "name": "to",
          "type": "address"
        },
        {
          "internalType": "uint256",
          "name": "tokenId",
          "type": "uint256"
        }
      ],
      "name": "mint",
      "outputs": [],
      "stateMutability": "nonpayable",
      "type": "function"
    },
    {
      "inputs": [],
      "name": "name",
      "outputs": [
        {
          "internalType": "string",
          "name": "",
          "type": "string"
        }
      ],
      "stateMutability": "view",
      "type": "function"
    },
    {
      "inputs": [],
      "name": "owner",
      "outputs": [
        {
          "internalType": "address",
          "name": "",
          "type": "address"
        }
      ],
      "stateMutability": "view",
      "type": "function"
    },
    {
      "inputs": [
        {
          "internalType": "uint256",
          "name": "tokenId",
          "type": "uint256"
        }
      ],
      "name": "ownerOf",
      "outputs": [
        {
          "internalType": "address",
          "name": "",
          "type": "address"
        }
      ],
      "stateMutability": "view",
      "type": "function"
    },
    {
      "inputs": [
        {
          "internalType": "bytes32",
          "name": "role",
          "type": "bytes32"
        }
      ],
      "name": "renounceRole",
      "outputs": [],
      "stateMutability": "nonpayable",
      "type": "function"
    },
    {
      "inputs": [
        {
          "internalType": "bytes32",
          "name": "role",
          "type": "bytes32"
        },
        {
          "internalType": "address",
          "name": "account",
          "type": "address"
        }
      ],
      "name": "revokeRole",
      "outputs": [],
      "stateMutability": "nonpayable",
      "type": "function"
    },
    {
      "inputs": [
        {
          "internalType": "address",
          "name": "to",
          "type": "address"
        },
        {
          "internalType": "uint256",
          "name": "tokenId",
          "type": "uint256"
        },
        {
          "internalType": "bytes",
          "name": "data",
          "type": "bytes"
        }
      ],
      "name": "safeMint",
      "outputs": [],
      "stateMutability": "nonpayable",
      "type": "function"
    },
    {
      "inputs": [
        {
          "internalType": "address",
          "name": "from",
          "type": "address"
        },
        {
          "internalType": "address",
          "name": "to",
          "type": "address"
        },
        {
          "internalType": "uint256",
          "name": "tokenId",
          "type": "uint256"
        }
      ],
      "name": "safeTransferFrom",
      "outputs": [],
      "stateMutability": "nonpayable",
      "type": "function"
    },
    {
      "inputs": [
        {
          "internalType": "address",
          "name": "from",
          "type": "address"
        },
        {
          "internalType": "address",
          "name": "to",
          "type": "address"
        },
        {
          "internalType": "uint256",
          "name": "tokenId",
          "type": "uint256"
        },
        {
          "internalType": "bytes",
          "name": "_data",
          "type": "bytes"
        }
      ],
      "name": "safeTransferFrom",
      "outputs": [],
      "stateMutability": "nonpayable",
      "type": "function"
    },
    {
      "inputs": [
        {
          "internalType": "address",
          "name": "operator",
          "type": "address"
        },
        {
          "internalType": "bool",
          "name": "approved",
          "type": "bool"
        }
      ],
      "name": "setApprovalForAll",
      "outputs": [],
      "stateMutability": "nonpayable",
      "type": "function"
    },
    {
      "inputs": [
        {
          "internalType": "string",
          "name": "baseMetadataURI_",
          "type": "string"
        }
      ],
      "name": "setBaseMetadataURI",
      "outputs": [],
      "stateMutability": "nonpayable",
      "type": "function"
    },
    {
      "inputs": [
        {
          "internalType": "bytes4",
          "name": "interfaceId",
          "type": "bytes4"
        }
      ],
      "name": "supportsInterface",
      "outputs": [
        {
          "internalType": "bool",
          "name": "",
          "type": "bool"
        }
      ],
      "stateMutability": "view",
      "type": "function"
    },
    {
      "inputs": [],
      "name": "symbol",
      "outputs": [
        {
          "internalType": "string",
          "name": "",
          "type": "string"
        }
      ],
      "stateMutability": "view",
      "type": "function"
    },
    {
      "inputs": [
        {
          "internalType": "uint256",
          "name": "tokenId",
          "type": "uint256"
        }
      ],
      "name": "tokenURI",
      "outputs": [
        {
          "internalType": "string",
          "name": "",
          "type": "string"
        }
      ],
      "stateMutability": "view",
      "type": "function"
    },
    {
      "inputs": [
        {
          "internalType": "address",
          "name": "from",
          "type": "address"
        },
        {
          "internalType": "address",
          "name": "to",
          "type": "address"
        },
        {
          "internalType": "uint256",
          "name": "tokenId",
          "type": "uint256"
        }
      ],
      "name": "transferFrom",
      "outputs": [],
      "stateMutability": "nonpayable",
      "type": "function"
    },
    {
      "inputs": [
        {
          "internalType": "address",
          "name": "newOwner",
          "type": "address"
        }
      ],
      "name": "transferOwnership",
      "outputs": [],
      "stateMutability": "nonpayable",
      "type": "function"
    }
  ],
  "bytecode": "0x60a06040523480156200001157600080fd5b50604051620039e8380380620039e8833981016040819052620000349162000571565b8383838380336200004f6200012660201b6200085f1760201c565b6200007d81620000696200014b60201b620008961760201c565b6200018160201b620008c41790919060201c565b50620000b6638e773e1360e01b6001620000a1620001ff60201b620009761760201c565b6200022f60201b620009a4179092919060201c565b6001600160a01b031660805250620000e763f3993d1160e01b6001620000a1620001ff602090811b6200097617901c565b6200011983838362000103620002bc60201b62000a991760201c565b620002ec60201b62000ac717909392919060201c565b50505050505050620006bb565b620001496380ac58cd60e01b6001620000a1620001ff60201b620009761760201c565b565b6000806200017b60017fc9ed16f33ab3a66c84bfd83099ccb2a8845871e2e1c1928f63797152f0fd54cd62000624565b92915050565b6001600160a01b03811615620001d85781546001600160a01b0319166001600160a01b03821690811783556040516000907f8be0079c531659141344cd1fd0a4f28419497f9722a3daafe3b4186f6b6457e0908290a35b620001fb6307f5828d60e41b6001620000a1620001ff60201b620009761760201c565b5050565b6000806200017b60017fca9d3e17f264b0f3984e2634e94adb37fa3e6a8103f06aeae6fa59e21c769f5e62000624565b6001600160e01b031980831690036200028e5760405162461bcd60e51b815260206004820152601f60248201527f496e74657266616365446574656374696f6e3a2077726f6e672076616c756500604482015260640160405180910390fd5b6001600160e01b03199190911660009081526020929092526040909120805460ff1916911515919091179055565b6000806200017b60017f5f5773833f4966721eb3773ed87c7208ea74d78f0d94de1d8074345cac67333f62000624565b6200031c8383620003076200039360201b62000b591760201c565b620003c360201b62000b87179092919060201c565b8051620003309085906020840190620003f5565b5062000354635b5e139f60e01b6001620000a1620001ff60201b620009761760201c565b7f04b1dc5c136a3ce9fded8db0ce3d3366c58764ec3a8e4c2b9e52e4ddfe5ebbf7816040516200038591906200064a565b60405180910390a150505050565b6000806200017b60017f9c4269c0f9f430d98876ffe9767fbf3f3232ea91a549beb549e5329532520eb362000624565b8151620003d79084906020850190620003f5565b508051620003ef9060018501906020840190620003f5565b50505050565b82805462000403906200067f565b90600052602060002090601f01602090048101928262000427576000855562000472565b82601f106200044257805160ff191683800117855562000472565b8280016001018555821562000472579182015b828111156200047257825182559160200191906001019062000455565b506200048092915062000484565b5090565b5b8082111562000480576000815560010162000485565b634e487b7160e01b600052604160045260246000fd5b60005b83811015620004ce578181015183820152602001620004b4565b83811115620003ef5750506000910152565b600082601f830112620004f257600080fd5b81516001600160401b03808211156200050f576200050f6200049b565b604051601f8301601f19908116603f011681019082821181831017156200053a576200053a6200049b565b816040528381528660208588010111156200055457600080fd5b62000567846020830160208901620004b1565b9695505050505050565b600080600080608085870312156200058857600080fd5b84516001600160401b0380821115620005a057600080fd5b620005ae88838901620004e0565b95506020870151915080821115620005c557600080fd5b620005d388838901620004e0565b94506040870151915080821115620005ea57600080fd5b50620005f987828801620004e0565b606087015190935090506001600160a01b03811681146200061957600080fd5b939692955090935050565b6000828210156200064557634e487b7160e01b600052601160045260246000fd5b500390565b60208152600082518060208401526200066b816040850160208701620004b1565b601f01601f19169190910160400192915050565b600181811c908216806200069457607f821691505b602082108103620006b557634e487b7160e01b600052602260045260246000fd5b50919050565b6080516132fc620006ec6000396000818161252a015281816125ca0152818161265e01526126c801526132fc6000f3fe608060405234801561001057600080fd5b50600436106101b95760003560e01c80637e518ec8116100f9578063b88d4fde11610097578063d547741f11610071578063d547741f146103b5578063e985e9c5146103c8578063f2fde38b146103db578063f3993d11146103ee57600080fd5b8063b88d4fde14610368578063c87b56dd1461037b578063d53913931461038e57600080fd5b80638da5cb5b116100d35780638da5cb5b1461033257806391d148541461033a57806395d89b411461034d578063a22cb4651461035557600080fd5b80637e518ec8146102f95780638832e6e31461030c5780638bb9c5bf1461031f57600080fd5b806331e66e1e116101665780634684d7e9116101405780634684d7e9146102aa5780635b2bd79e146102bd5780636352211e146102c557806370a08231146102d857600080fd5b806331e66e1e1461026e57806340c10f191461028457806342842e0e1461029757600080fd5b8063095ea7b311610197578063095ea7b31461023357806323b872dd146102485780632f2ff15d1461025b57600080fd5b806301ffc9a7146101be57806306fdde03146101e6578063081812fc146101fb575b600080fd5b6101d16101cc366004612941565b610401565b60405190151581526020015b60405180910390f35b6101ee61041b565b6040516101dd91906129d4565b61020e6102093660046129e7565b610432565b60405173ffffffffffffffffffffffffffffffffffffffff90911681526020016101dd565b610246610241366004612a29565b610446565b005b610246610256366004612a53565b610467565b610246610269366004612a8f565b61048b565b6102766104bf565b6040516101dd929190612b04565b610246610292366004612a29565b6104d2565b6102466102a5366004612a53565b61053e565b6102466102b8366004612b18565b61055d565b6101ee6105d1565b61020e6102d33660046129e7565b6105de565b6102eb6102e6366004612b9e565b6105f2565b6040519081526020016101dd565b610246610307366004612c02565b610606565b61024661031a366004612c44565b61062d565b61024661032d3660046129e7565b6106af565b61020e6106cd565b6101d1610348366004612a8f565b6106f4565b6101ee61073f565b610246610363366004612cac565b610751565b610246610376366004612d61565b61076e565b6101ee6103893660046129e7565b61078f565b6102eb7f6d696e746572000000000000000000000000000000000000000000000000000081565b6102466103c3366004612a8f565b6107b0565b6101d16103d6366004612e3f565b6107de565b6102466103e9366004612b9e565b610825565b6102466103fc366004612e69565b610840565b60006104158261040f610976565b90610baf565b92915050565b606061042d610428610b59565b610c6d565b905090565b600061041582610440610d03565b90610d31565b610463610451610e14565b838361045b610d03565b929190610e1e565b5050565b610486610472610e14565b84848461047d610d03565b939291906110da565b505050565b6000610495610e14565b90506104a9816104a3610896565b90611100565b6104868383836104b7611183565b9291906111b1565b3660006104ca61127d565b915091509091565b61050d7f6d696e74657200000000000000000000000000000000000000000000000000006104fe610e14565b610506611183565b9190611288565b610463610518610e14565b8383604051806020016040528060008152506000610534610d03565b9493929190611334565b610486610549610e14565b848484610554610d03565b93929190611441565b6105897f6d696e74657200000000000000000000000000000000000000000000000000006104fe610e14565b610486838383808060200260200160405190810160405280939291908181526020018383602002808284376000920191909152506105ca9250610d03915050565b9190611460565b606061042d610428610a99565b6000610415826105ec610d03565b906115a5565b600061041582610600610d03565b90611633565b610619610611610e14565b6104a3610896565b6104638282610626610a99565b91906116df565b6106597f6d696e74657200000000000000000000000000000000000000000000000000006104fe610e14565b6106a9610664610e14565b858585858080601f016020809104026020016040519081016040528093929190818152602001838380828437600092019190915250600192506105349150610d039050565b50505050565b6106ca6106ba610e14565b826106c3611183565b9190611729565b50565b600061042d6106da610896565b5473ffffffffffffffffffffffffffffffffffffffff1690565b60006107388383610703611183565b60009283526020908152604080842073ffffffffffffffffffffffffffffffffffffffff909316845291905290205460ff1690565b9392505050565b606061042d61074c610b59565b6117c5565b61046361075c610e14565b8383610766610d03565b9291906117d6565b6106a9610779610e14565b85858585610785610d03565b9493929190611902565b606061079d826105ec610d03565b50610415826107aa610a99565b90611912565b60006107ba610e14565b90506107c8816104a3610896565b6104868383836107d6611183565b929190611946565b600061073883836107ed610d03565b73ffffffffffffffffffffffffffffffffffffffff928316600090815260209182526040808220939094168152919052205460ff1690565b6106ca610830610e14565b82610839610896565b9190611a10565b61048661084b610e14565b848484610856610d03565b93929190611b3c565b6108947f80ac58cd00000000000000000000000000000000000000000000000000000000600161088d610976565b91906109a4565b565b60008061041560017fc9ed16f33ab3a66c84bfd83099ccb2a8845871e2e1c1928f63797152f0fd54cd612f61565b73ffffffffffffffffffffffffffffffffffffffff81161561094c5781547fffffffffffffffffffffffff00000000000000000000000000000000000000001673ffffffffffffffffffffffffffffffffffffffff821690811783556040516000907f8be0079c531659141344cd1fd0a4f28419497f9722a3daafe3b4186f6b6457e0908290a35b6104637f7f5828d000000000000000000000000000000000000000000000000000000000600161088d5b60008061041560017fca9d3e17f264b0f3984e2634e94adb37fa3e6a8103f06aeae6fa59e21c769f5e612f61565b7fffffffff000000000000000000000000000000000000000000000000000000008083169003610a35576040517f08c379a000000000000000000000000000000000000000000000000000000000815260206004820152601f60248201527f496e74657266616365446574656374696f6e3a2077726f6e672076616c75650060448201526064015b60405180910390fd5b7fffffffff00000000000000000000000000000000000000000000000000000000919091166000908152602092909252604090912080547fffffffffffffffffffffffffffffffffffffffffffffffffffffffffffffff0016911515919091179055565b60008061041560017f5f5773833f4966721eb3773ed87c7208ea74d78f0d94de1d8074345cac67333f612f61565b610adb8383610ad4610b59565b9190610b87565b8051610aed90859060208401906127e8565b50610b1c7f5b5e139f00000000000000000000000000000000000000000000000000000000600161088d610976565b7f04b1dc5c136a3ce9fded8db0ce3d3366c58764ec3a8e4c2b9e52e4ddfe5ebbf781604051610b4b91906129d4565b60405180910390a150505050565b60008061041560017f9c4269c0f9f430d98876ffe9767fbf3f3232ea91a549beb549e5329532520eb3612f61565b8151610b9990849060208501906127e8565b5080516106a990600185019060208401906127e8565b60007fffffffff000000000000000000000000000000000000000000000000000000008083169003610be357506000610415565b7ffe003659000000000000000000000000000000000000000000000000000000007fffffffff00000000000000000000000000000000000000000000000000000000831601610c3457506001610415565b507fffffffff00000000000000000000000000000000000000000000000000000000166000908152602091909152604090205460ff1690565b6060816000018054610c7e90612f78565b80601f0160208091040260200160405190810160405280929190818152602001828054610caa90612f78565b8015610cf75780601f10610ccc57610100808354040283529160200191610cf7565b820191906000526020600020905b815481529060010190602001808311610cda57829003601f168201915b50505050509050919050565b60008061041560017fddf3ee18ae6d688373c219468f8be446e7ae82215f4779d821c7ea5e8c13c0c1612f61565b600081815260018301602052604081205473ffffffffffffffffffffffffffffffffffffffff8116610dbf576040517f08c379a000000000000000000000000000000000000000000000000000000000815260206004820152601860248201527f4552433732313a206e6f6e2d6578697374696e67204e465400000000000000006044820152606401610a2c565b74010000000000000000000000000000000000000000811615610e0a575050600081815260038301602052604090205473ffffffffffffffffffffffffffffffffffffffff16610415565b6000915050610415565b600061042d611c83565b600081815260018501602052604081205490819003610e99576040517f08c379a000000000000000000000000000000000000000000000000000000000815260206004820152601860248201527f4552433732313a206e6f6e2d6578697374696e67204e465400000000000000006044820152606401610a2c565b8073ffffffffffffffffffffffffffffffffffffffff80821690851603610f1c576040517f08c379a000000000000000000000000000000000000000000000000000000000815260206004820152601560248201527f4552433732313a2073656c662d617070726f76616c00000000000000000000006044820152606401610a2c565b610f27868287611c8d565b610f8d576040517f08c379a000000000000000000000000000000000000000000000000000000000815260206004820152601b60248201527f4552433732313a206e6f6e2d617070726f7665642073656e64657200000000006044820152606401610a2c565b73ffffffffffffffffffffffffffffffffffffffff8416610ff45774010000000000000000000000000000000000000000821615610fef576000838152600187016020526040902073ffffffffffffffffffffffffffffffffffffffff821690555b611077565b74010000000000000000000000000000000000000000821780831461102757600084815260018801602052604090208190555b506000838152600387016020526040902080547fffffffffffffffffffffffff00000000000000000000000000000000000000001673ffffffffffffffffffffffffffffffffffffffff86161790555b828473ffffffffffffffffffffffffffffffffffffffff168273ffffffffffffffffffffffffffffffffffffffff167f8c5be1e5ebec7d5bd14f71427d1e84f3dd0314c0f7b2291e5b200ac8c7c3b92560405160405180910390a4505050505050565b6110f98585858585604051806020016040528060008152506000611d01565b5050505050565b815473ffffffffffffffffffffffffffffffffffffffff828116911614610463576040517f08c379a000000000000000000000000000000000000000000000000000000000815260206004820152601860248201527f4f776e6572736869703a206e6f7420746865206f776e657200000000000000006044820152606401610a2c565b60008061041560017fc8827d3282af6f37b64c3e9e6f3ac9df286ab0bb0fccd6f8661bf19adb368b23612f61565b60008381526020858152604080832073ffffffffffffffffffffffffffffffffffffffff8616845290915290205460ff166106a95760008381526020858152604080832073ffffffffffffffffffffffffffffffffffffffff8681168086529184529382902080547fffffffffffffffffffffffffffffffffffffffffffffffffffffffffffffff00166001179055815187815292830152918316918101919091527f2f8788117e7eff1d82e926ec794901d17c78024a50270940304540a733656f0d90606001610b4b565b3660006104ca611e37565b60008281526020848152604080832073ffffffffffffffffffffffffffffffffffffffff8516845290915290205460ff16610486576112c682611e42565b6040516020016112d69190612fe1565b604080517fffffffffffffffffffffffffffffffffffffffffffffffffffffffffffffffe0818403018152908290527f08c379a0000000000000000000000000000000000000000000000000000000008252610a2c916004016129d4565b73ffffffffffffffffffffffffffffffffffffffff84166113b1576040517f08c379a000000000000000000000000000000000000000000000000000000000815260206004820152601460248201527f4552433732313a206d696e7420746f207a65726f0000000000000000000000006044820152606401610a2c565b6113be8685856000611fcc565b604051839073ffffffffffffffffffffffffffffffffffffffff8616906000907fddf252ad1be2c89b69c2b068fc378daa952ba7f163c4a11628f55a4df523b3ef908290a4808015611426575073ffffffffffffffffffffffffffffffffffffffff84163b15155b15611439576114398560008686866120a5565b505050505050565b6110f98585858585604051806020016040528060008152506001611d01565b73ffffffffffffffffffffffffffffffffffffffff82166114dd576040517f08c379a000000000000000000000000000000000000000000000000000000000815260206004820152601460248201527f4552433732313a206d696e7420746f207a65726f0000000000000000000000006044820152606401610a2c565b805160005b8181146115625760008382815181106114fd576114fd61304d565b602002602001015190506115148686836001611fcc565b604051819073ffffffffffffffffffffffffffffffffffffffff8716906000907fddf252ad1be2c89b69c2b068fc378daa952ba7f163c4a11628f55a4df523b3ef908290a4506001016114e2565b5073ffffffffffffffffffffffffffffffffffffffff831660009081526002850160205260408120805483929061159a90849061307c565b909155505050505050565b600081815260018301602052604081205473ffffffffffffffffffffffffffffffffffffffff8116610738576040517f08c379a000000000000000000000000000000000000000000000000000000000815260206004820152601860248201527f4552433732313a206e6f6e2d6578697374696e67204e465400000000000000006044820152606401610a2c565b600073ffffffffffffffffffffffffffffffffffffffff82166116b2576040517f08c379a000000000000000000000000000000000000000000000000000000000815260206004820152601460248201527f4552433732313a207a65726f20616464726573730000000000000000000000006044820152606401610a2c565b5073ffffffffffffffffffffffffffffffffffffffff166000908152600291909101602052604090205490565b6116ea83838361286c565b507f04b1dc5c136a3ce9fded8db0ce3d3366c58764ec3a8e4c2b9e52e4ddfe5ebbf7828260405161171c929190612b04565b60405180910390a1505050565b611734838284611288565b60008181526020848152604080832073ffffffffffffffffffffffffffffffffffffffff86168085529083529281902080547fffffffffffffffffffffffffffffffffffffffffffffffffffffffffffffff0016905580518481529182018390528101919091527ff6391f5c32d9c69d2a47ea670b442974b53935d1edc7fd64eb21e047a839171b9060600161171c565b6060816001018054610c7e90612f78565b8273ffffffffffffffffffffffffffffffffffffffff168273ffffffffffffffffffffffffffffffffffffffff160361186b576040517f08c379a000000000000000000000000000000000000000000000000000000000815260206004820152601560248201527f4552433732313a2073656c662d617070726f76616c00000000000000000000006044820152606401610a2c565b73ffffffffffffffffffffffffffffffffffffffff8381166000818152602087815260408083209487168084529482529182902080547fffffffffffffffffffffffffffffffffffffffffffffffffffffffffffffff001686151590811790915591519182527f17307eab39ab6107e8899845ad3d59bd9653f200f220920489ca2b5937696c31910160405180910390a350505050565b6114398686868686866001611d01565b60608261191e836121cb565b60405160200161192f929190613094565b604051602081830303815290604052905092915050565b60008381526020858152604080832073ffffffffffffffffffffffffffffffffffffffff8616845290915290205460ff16156106a95760008381526020858152604080832073ffffffffffffffffffffffffffffffffffffffff8681168086529184529382902080547fffffffffffffffffffffffffffffffffffffffffffffffffffffffffffffff00169055815187815292830152918316918101919091527ff6391f5c32d9c69d2a47ea670b442974b53935d1edc7fd64eb21e047a839171b90606001610b4b565b825473ffffffffffffffffffffffffffffffffffffffff9081169083168114611a95576040517f08c379a000000000000000000000000000000000000000000000000000000000815260206004820152601860248201527f4f776e6572736869703a206e6f7420746865206f776e657200000000000000006044820152606401610a2c565b8173ffffffffffffffffffffffffffffffffffffffff168173ffffffffffffffffffffffffffffffffffffffff16146106a95783547fffffffffffffffffffffffff00000000000000000000000000000000000000001673ffffffffffffffffffffffffffffffffffffffff8381169182178655604051908316907f8be0079c531659141344cd1fd0a4f28419497f9722a3daafe3b4186f6b6457e090600090a350505050565b73ffffffffffffffffffffffffffffffffffffffff8216611bb9576040517f08c379a000000000000000000000000000000000000000000000000000000000815260206004820152601860248201527f4552433732313a207472616e7366657220746f207a65726f00000000000000006044820152606401610a2c565b6000611bc6868587611c8d565b825190915060005b818114611c67576000848281518110611be957611be961304d565b60200260200101519050611c0389898989858960016122f6565b808673ffffffffffffffffffffffffffffffffffffffff168873ffffffffffffffffffffffffffffffffffffffff167fddf252ad1be2c89b69c2b068fc378daa952ba7f163c4a11628f55a4df523b3ef60405160405180910390a450600101611bce565b508015611c7a57611c7a87868684612479565b50505050505050565b600061042d6124ee565b60008173ffffffffffffffffffffffffffffffffffffffff168373ffffffffffffffffffffffffffffffffffffffff161480611cf9575073ffffffffffffffffffffffffffffffffffffffff8084166000908152602086815260408083209386168352929052205460ff165b949350505050565b73ffffffffffffffffffffffffffffffffffffffff8416611d7e576040517f08c379a000000000000000000000000000000000000000000000000000000000815260206004820152601860248201527f4552433732313a207472616e7366657220746f207a65726f00000000000000006044820152606401610a2c565b6000611d8b888789611c8d565b9050611d9d88888888888660006122f6565b838573ffffffffffffffffffffffffffffffffffffffff168773ffffffffffffffffffffffffffffffffffffffff167fddf252ad1be2c89b69c2b068fc378daa952ba7f163c4a11628f55a4df523b3ef60405160405180910390a4818015611e1b575073ffffffffffffffffffffffffffffffffffffffff85163b15155b15611e2d57611e2d87878787876120a5565b5050505050505050565b3660006104ca612646565b60606000829003611e6157505060408051602081019091526000815290565b600082604051602001611e7691815260200190565b604080517fffffffffffffffffffffffffffffffffffffffffffffffffffffffffffffffe08184030181529190529050601f5b818181518110611ebb57611ebb61304d565b01602001517fff0000000000000000000000000000000000000000000000000000000000000016600003611ef957611ef281613171565b9050611ea9565b6000611f0682600161307c565b67ffffffffffffffff811115611f1e57611f1e612ce3565b6040519080825280601f01601f191660200182016040528015611f48576020820181803683370190505b50905060005b828111611fc357838181518110611f6757611f6761304d565b602001015160f81c60f81b828281518110611f8457611f8461304d565b60200101907effffffffffffffffffffffffffffffffffffffffffffffffffffffffffffff1916908160001a905350611fbc816131a6565b9050611f4e565b50949350505050565b600082815260018501602052604090205415612044576040517f08c379a000000000000000000000000000000000000000000000000000000000815260206004820152601a60248201527f4552433732313a206578697374696e672f6275726e74204e46540000000000006044820152606401610a2c565b6000828152600185016020526040902073ffffffffffffffffffffffffffffffffffffffff84169055806106a957505073ffffffffffffffffffffffffffffffffffffffff1660009081526002919091016020526040902080546001019055565b6040517f150b7a02000000000000000000000000000000000000000000000000000000008082529073ffffffffffffffffffffffffffffffffffffffff85169063150b7a02906120ff9089908990889088906004016131de565b6020604051808303816000875af115801561211e573d6000803e3d6000fd5b505050506040513d601f19601f820116820180604052508101906121429190613227565b7fffffffff0000000000000000000000000000000000000000000000000000000016146110f9576040517f08c379a000000000000000000000000000000000000000000000000000000000815260206004820152601860248201527f4552433732313a207472616e73666572207265667573656400000000000000006044820152606401610a2c565b60608160000361220e57505060408051808201909152600181527f3000000000000000000000000000000000000000000000000000000000000000602082015290565b8160005b81156122385780612222816131a6565b91506122319050600a83613244565b9150612212565b60008167ffffffffffffffff81111561225357612253612ce3565b6040519080825280601f01601f19166020018201604052801561227d576020820181803683370190505b509050600061228d600184612f61565b90508593505b8315611fc357600a840660300160f81b828280600190039350815181106122bc576122bc61304d565b60200101907effffffffffffffffffffffffffffffffffffffffffffffffffffffffffffff1916908160001a905350600a84049350612293565b600083815260018801602052604090205473ffffffffffffffffffffffffffffffffffffffff86811690821614612389576040517f08c379a000000000000000000000000000000000000000000000000000000000815260206004820152601560248201527f4552433732313a206e6f6e2d6f776e6564204e465400000000000000000000006044820152606401610a2c565b8261244257740100000000000000000000000000000000000000008116158015906123dc5750600084815260038901602052604090205473ffffffffffffffffffffffffffffffffffffffff8881169116145b612442576040517f08c379a000000000000000000000000000000000000000000000000000000000815260206004820152601b60248201527f4552433732313a206e6f6e2d617070726f7665642073656e64657200000000006044820152606401610a2c565b6000848152600189016020526040902073ffffffffffffffffffffffffffffffffffffffff8616905581611e2d57611e2d88878760015b8173ffffffffffffffffffffffffffffffffffffffff168373ffffffffffffffffffffffffffffffffffffffff16146106a95773ffffffffffffffffffffffffffffffffffffffff80841660009081526002860160205260408082208054859003905591841681522080548201905550505050565b6000333281036124fd57919050565b6000367fffffffffffffffffffffffffffffffffffffffffffffffffffffffffffffffec013560601c90507f000000000000000000000000000000000000000000000000000000000000000073ffffffffffffffffffffffffffffffffffffffff168273ffffffffffffffffffffffffffffffffffffffff16148061263557506040517fe60125d600000000000000000000000000000000000000000000000000000000815273ffffffffffffffffffffffffffffffffffffffff828116600483015283811660248301527f0000000000000000000000000000000000000000000000000000000000000000169063e60125d690604401602060405180830381865afa158015612611573d6000803e3d6000fd5b505050506040513d601f19601f82011682018060405250810190612635919061327f565b156126405792915050565b50919050565b3660003332810361265c57506000923692509050565b7f000000000000000000000000000000000000000000000000000000000000000073ffffffffffffffffffffffffffffffffffffffff168173ffffffffffffffffffffffffffffffffffffffff1614806127a9575073ffffffffffffffffffffffffffffffffffffffff7f00000000000000000000000000000000000000000000000000000000000000001663e60125d6367fffffffffffffffffffffffffffffffffffffffffffffffffffffffffffffffec013560601c6040517fffffffff0000000000000000000000000000000000000000000000000000000060e084901b16815273ffffffffffffffffffffffffffffffffffffffff91821660048201529084166024820152604401602060405180830381865afa158015612785573d6000803e3d6000fd5b505050506040513d601f19601f820116820180604052508101906127a9919061327f565b156127bf576127b66127ca565b92509250509091565b506000923692509050565b3660008080836127db601482612f61565b926104ca9392919061329c565b8280546127f490612f78565b90600052602060002090601f016020900481019282612816576000855561285c565b82601f1061282f57805160ff191683800117855561285c565b8280016001018555821561285c579182015b8281111561285c578251825591602001919060010190612841565b506128689291506128fe565b5090565b82805461287890612f78565b90600052602060002090601f01602090048101928261289a576000855561285c565b82601f106128d1578280017fffffffffffffffffffffffffffffffffffffffffffffffffffffffffffffff0082351617855561285c565b8280016001018555821561285c579182015b8281111561285c5782358255916020019190600101906128e3565b5b8082111561286857600081556001016128ff565b7fffffffff00000000000000000000000000000000000000000000000000000000811681146106ca57600080fd5b60006020828403121561295357600080fd5b813561073881612913565b60005b83811015612979578181015183820152602001612961565b838111156106a95750506000910152565b600081518084526129a281602086016020860161295e565b601f017fffffffffffffffffffffffffffffffffffffffffffffffffffffffffffffffe0169290920160200192915050565b602081526000610738602083018461298a565b6000602082840312156129f957600080fd5b5035919050565b803573ffffffffffffffffffffffffffffffffffffffff81168114612a2457600080fd5b919050565b60008060408385031215612a3c57600080fd5b612a4583612a00565b946020939093013593505050565b600080600060608486031215612a6857600080fd5b612a7184612a00565b9250612a7f60208501612a00565b9150604084013590509250925092565b60008060408385031215612aa257600080fd5b82359150612ab260208401612a00565b90509250929050565b8183528181602085013750600060208284010152600060207fffffffffffffffffffffffffffffffffffffffffffffffffffffffffffffffe0601f840116840101905092915050565b602081526000611cf9602083018486612abb565b600080600060408486031215612b2d57600080fd5b612b3684612a00565b9250602084013567ffffffffffffffff80821115612b5357600080fd5b818601915086601f830112612b6757600080fd5b813581811115612b7657600080fd5b8760208260051b8501011115612b8b57600080fd5b6020830194508093505050509250925092565b600060208284031215612bb057600080fd5b61073882612a00565b60008083601f840112612bcb57600080fd5b50813567ffffffffffffffff811115612be357600080fd5b602083019150836020828501011115612bfb57600080fd5b9250929050565b60008060208385031215612c1557600080fd5b823567ffffffffffffffff811115612c2c57600080fd5b612c3885828601612bb9565b90969095509350505050565b60008060008060608587031215612c5a57600080fd5b612c6385612a00565b935060208501359250604085013567ffffffffffffffff811115612c8657600080fd5b612c9287828801612bb9565b95989497509550505050565b80151581146106ca57600080fd5b60008060408385031215612cbf57600080fd5b612cc883612a00565b91506020830135612cd881612c9e565b809150509250929050565b7f4e487b7100000000000000000000000000000000000000000000000000000000600052604160045260246000fd5b604051601f82017fffffffffffffffffffffffffffffffffffffffffffffffffffffffffffffffe016810167ffffffffffffffff81118282101715612d5957612d59612ce3565b604052919050565b60008060008060808587031215612d7757600080fd5b612d8085612a00565b93506020612d8f818701612a00565b935060408601359250606086013567ffffffffffffffff80821115612db357600080fd5b818801915088601f830112612dc757600080fd5b813581811115612dd957612dd9612ce3565b612e09847fffffffffffffffffffffffffffffffffffffffffffffffffffffffffffffffe0601f84011601612d12565b91508082528984828501011115612e1f57600080fd5b808484018584013760008482840101525080935050505092959194509250565b60008060408385031215612e5257600080fd5b612e5b83612a00565b9150612ab260208401612a00565b600080600060608486031215612e7e57600080fd5b612e8784612a00565b92506020612e96818601612a00565b9250604085013567ffffffffffffffff80821115612eb357600080fd5b818701915087601f830112612ec757600080fd5b813581811115612ed957612ed9612ce3565b8060051b9150612eea848301612d12565b818152918301840191848101908a841115612f0457600080fd5b938501935b83851015612f2257843582529385019390850190612f09565b8096505050505050509250925092565b7f4e487b7100000000000000000000000000000000000000000000000000000000600052601160045260246000fd5b600082821015612f7357612f73612f32565b500390565b600181811c90821680612f8c57607f821691505b602082108103612640577f4e487b7100000000000000000000000000000000000000000000000000000000600052602260045260246000fd5b60008151612fd781856020860161295e565b9290920192915050565b7f416363657373436f6e74726f6c3a206d697373696e672027000000000000000081526000825161301981601885016020870161295e565b7f2720726f6c6500000000000000000000000000000000000000000000000000006018939091019283015250601e01919050565b7f4e487b7100000000000000000000000000000000000000000000000000000000600052603260045260246000fd5b6000821982111561308f5761308f612f32565b500190565b600080845481600182811c9150808316806130b057607f831692505b602080841082036130e8577f4e487b710000000000000000000000000000000000000000000000000000000086526022600452602486fd5b8180156130fc576001811461312b57613158565b7fffffffffffffffffffffffffffffffffffffffffffffffffffffffffffffff00861689528489019650613158565b60008b81526020902060005b868110156131505781548b820152908501908301613137565b505084890196505b5050505050506131688185612fc5565b95945050505050565b60008161318057613180612f32565b507fffffffffffffffffffffffffffffffffffffffffffffffffffffffffffffffff0190565b60007fffffffffffffffffffffffffffffffffffffffffffffffffffffffffffffffff82036131d7576131d7612f32565b5060010190565b600073ffffffffffffffffffffffffffffffffffffffff80871683528086166020840152508360408301526080606083015261321d608083018461298a565b9695505050505050565b60006020828403121561323957600080fd5b815161073881612913565b60008261327a577f4e487b7100000000000000000000000000000000000000000000000000000000600052601260045260246000fd5b500490565b60006020828403121561329157600080fd5b815161073881612c9e565b600080858511156132ac57600080fd5b838611156132b957600080fd5b505082019391909203915056fea2646970667358221220c7993a1230f89b836fef102ff9210bbab339ce3638bf82b1aaf5fcea187b9a9664736f6c634300080e0033",
  "linkReferences": {},
  "deployedLinkReferences": {}
}