{
  "_format": "hh-sol-artifact-1",
  "contractName": "ERC721Mock",
  "sourceName": "contracts/mocks/token/ERC721/ERC721Mock.sol",
  "abi": [
    {
      "inputs": [
        {
          "internalType": "string",
          "name": "name_",
          "type": "string"
        },
        {
          "internalType": "string",
          "name": "symbol_",
          "type": "string"
        },
        {
          "internalType": "string",
          "name": "tokenURI_",
          "type": "string"
        }
      ],
      "stateMutability": "nonpayable",
      "type": "constructor"
    },
    {
      "anonymous": false,
      "inputs": [
        {
          "indexed": true,
          "internalType": "address",
          "name": "owner",
          "type": "address"
        },
        {
          "indexed": true,
          "internalType": "address",
          "name": "approved",
          "type": "address"
        },
        {
          "indexed": true,
          "internalType": "uint256",
          "name": "tokenId",
          "type": "uint256"
        }
      ],
      "name": "Approval",
      "type": "event"
    },
    {
      "anonymous": false,
      "inputs": [
        {
          "indexed": true,
          "internalType": "address",
          "name": "owner",
          "type": "address"
        },
        {
          "indexed": true,
          "internalType": "address",
          "name": "operator",
          "type": "address"
        },
        {
          "indexed": false,
          "internalType": "bool",
          "name": "approved",
          "type": "bool"
        }
      ],
      "name": "ApprovalForAll",
      "type": "event"
    },
    {
      "anonymous": false,
      "inputs": [
        {
          "indexed": true,
          "internalType": "address",
          "name": "from",
          "type": "address"
        },
        {
          "indexed": true,
          "internalType": "address",
          "name": "to",
          "type": "address"
        },
        {
          "indexed": true,
          "internalType": "uint256",
          "name": "tokenId",
          "type": "uint256"
        }
      ],
      "name": "Transfer",
      "type": "event"
    },
    {
      "inputs": [
        {
          "internalType": "address",
          "name": "to",
          "type": "address"
        },
        {
          "internalType": "uint256",
          "name": "tokenId",
          "type": "uint256"
        }
      ],
      "name": "approve",
      "outputs": [],
      "stateMutability": "nonpayable",
      "type": "function"
    },
    {
      "inputs": [
        {
          "internalType": "address",
          "name": "owner",
          "type": "address"
        }
      ],
      "name": "balanceOf",
      "outputs": [
        {
          "internalType": "uint256",
          "name": "",
          "type": "uint256"
        }
      ],
      "stateMutability": "view",
      "type": "function"
    },
    {
      "inputs": [
        {
          "internalType": "address",
          "name": "to",
          "type": "address"
        },
        {
          "internalType": "uint256[]",
          "name": "tokenIds",
          "type": "uint256[]"
        }
      ],
      "name": "batchMint",
      "outputs": [],
      "stateMutability": "nonpayable",
      "type": "function"
    },
    {
      "inputs": [
        {
          "internalType": "uint256",
          "name": "tokenId",
          "type": "uint256"
        }
      ],
      "name": "getApproved",
      "outputs": [
        {
          "internalType": "address",
          "name": "operator",
          "type": "address"
        }
      ],
      "stateMutability": "view",
      "type": "function"
    },
    {
      "inputs": [
        {
          "internalType": "address",
          "name": "owner",
          "type": "address"
        },
        {
          "internalType": "address",
          "name": "operator",
          "type": "address"
        }
      ],
      "name": "isApprovedForAll",
      "outputs": [
        {
          "internalType": "bool",
          "name": "",
          "type": "bool"
        }
      ],
      "stateMutability": "view",
      "type": "function"
    },
    {
      "inputs": [
        {
          "internalType": "address",
          "name": "to",
          "type": "address"
        },
        {
          "internalType": "uint256",
          "name": "tokenId",
          "type": "uint256"
        }
      ],
      "name": "mint",
      "outputs": [],
      "stateMutability": "nonpayable",
      "type": "function"
    },
    {
      "inputs": [],
      "name": "name",
      "outputs": [
        {
          "internalType": "string",
          "name": "",
          "type": "string"
        }
      ],
      "stateMutability": "view",
      "type": "function"
    },
    {
      "inputs": [
        {
          "internalType": "uint256",
          "name": "tokenId",
          "type": "uint256"
        }
      ],
      "name": "ownerOf",
      "outputs": [
        {
          "internalType": "address",
          "name": "",
          "type": "address"
        }
      ],
      "stateMutability": "view",
      "type": "function"
    },
    {
      "inputs": [
        {
          "internalType": "address",
          "name": "to",
          "type": "address"
        },
        {
          "internalType": "uint256",
          "name": "tokenId",
          "type": "uint256"
        },
        {
          "internalType": "bytes",
          "name": "data",
          "type": "bytes"
        }
      ],
      "name": "safeMint",
      "outputs": [],
      "stateMutability": "nonpayable",
      "type": "function"
    },
    {
      "inputs": [
        {
          "internalType": "address",
          "name": "from",
          "type": "address"
        },
        {
          "internalType": "address",
          "name": "to",
          "type": "address"
        },
        {
          "internalType": "uint256",
          "name": "tokenId",
          "type": "uint256"
        }
      ],
      "name": "safeTransferFrom",
      "outputs": [],
      "stateMutability": "nonpayable",
      "type": "function"
    },
    {
      "inputs": [
        {
          "internalType": "address",
          "name": "from",
          "type": "address"
        },
        {
          "internalType": "address",
          "name": "to",
          "type": "address"
        },
        {
          "internalType": "uint256",
          "name": "tokenId",
          "type": "uint256"
        },
        {
          "internalType": "bytes",
          "name": "_data",
          "type": "bytes"
        }
      ],
      "name": "safeTransferFrom",
      "outputs": [],
      "stateMutability": "nonpayable",
      "type": "function"
    },
    {
      "inputs": [
        {
          "internalType": "address",
          "name": "operator",
          "type": "address"
        },
        {
          "internalType": "bool",
          "name": "_approved",
          "type": "bool"
        }
      ],
      "name": "setApprovalForAll",
      "outputs": [],
      "stateMutability": "nonpayable",
      "type": "function"
    },
    {
      "inputs": [],
      "name": "symbol",
      "outputs": [
        {
          "internalType": "string",
          "name": "",
          "type": "string"
        }
      ],
      "stateMutability": "view",
      "type": "function"
    },
    {
      "inputs": [
        {
          "internalType": "uint256",
          "name": "tokenId",
          "type": "uint256"
        }
      ],
      "name": "tokenURI",
      "outputs": [
        {
          "internalType": "string",
          "name": "",
          "type": "string"
        }
      ],
      "stateMutability": "view",
      "type": "function"
    },
    {
      "inputs": [
        {
          "internalType": "address",
          "name": "from",
          "type": "address"
        },
        {
          "internalType": "address",
          "name": "to",
          "type": "address"
        },
        {
          "internalType": "uint256",
          "name": "tokenId",
          "type": "uint256"
        }
      ],
      "name": "transferFrom",
      "outputs": [],
      "stateMutability": "nonpayable",
      "type": "function"
    }
  ],
  "bytecode": "0x60806040523480156200001157600080fd5b506040516200294738038062002947833981016040819052620000349162000672565b620000746040518060400160405280601281526020017122a9219b99189031b7b739ba393ab1ba37b960711b815250620000d960201b620005bd1760201c565b6200009e6200008d6200012760201b6200064f1760201c565b6200015d60201b6200067d1760201c565b620000d0838383620000ba6200021c60201b620007251760201c565b6200024c60201b6200075317909392919060201c565b5050506200079a565b6200012481604051602401620000f0919062000703565b60408051601f198184030181529190526020810180516001600160e01b0390811663104c13eb60e21b17909152620002eb16565b50565b6000806200015760017fddf3ee18ae6d688373c219468f8be446e7ae82215f4779d821c7ea5e8c13c0c162000738565b92915050565b6200019d60405180604001604052806012815260200171115490cdcc8c54dd1bdc9859d9481a5b9a5d60721b815250620000d960201b620005bd1760201c565b620001e4620001ce60017ffddcdbf8ca7eb362a678daf3643ce3cf98ebf69ac314d25d376d5aeabd2f533262000738565b60001b60016200030c60201b620007d61760201c565b620001246380ac58cd60e01b6001620002076200038360201b6200084b1760201c565b620003b360201b62000879179092919060201c565b6000806200015760017f5f5773833f4966721eb3773ed87c7208ea74d78f0d94de1d8074345cac67333f62000738565b6200027d620001ce60017fdf2ee7965c9504dc84db8f7759fc283282800c5a2fa3704c9f07f446b3b40a3f62000738565b620002ad8383620002986200043d60201b620009691760201c565b6200046d60201b62000997179092919060201c565b8051620002c19085906020840190620004f6565b50620002e5635b5e139f60e01b6001620002076200038360201b6200084b1760201c565b50505050565b80516a636f6e736f6c652e6c6f67602083016000808483855afa5050505050565b60006200032483620004f360201b62000a1c1760201c565b9050818160000154106200037f5760405162461bcd60e51b815260206004820152601860248201527f53746f726167653a2076657273696f6e2072656163686564000000000000000060448201526064015b60405180910390fd5b5550565b6000806200015760017f7180ffa89c91cf90d6c56dacabfc69bc5e36f3099d7eed2f5cc12c5dba016fe062000738565b6001600160e01b031980831690036200040f5760405162461bcd60e51b815260206004820152601f60248201527f496e74657266616365446574656374696f6e3a2077726f6e672076616c756500604482015260640162000376565b6001600160e01b03199190911660009081526020929092526040909120805460ff1916911515919091179055565b6000806200015760017f9c4269c0f9f430d98876ffe9767fbf3f3232ea91a549beb549e5329532520eb362000738565b6200049e620001ce60017fa057eeb6560fae2987973d3bf40b89e6da66dd0b6aadac05dc6b5b0d7a8d455762000738565b8151620004b29084906020850190620004f6565b508051620004ca9060018501906020840190620004f6565b50620004ee635b5e139f60e01b6001620002076200038360201b6200084b1760201c565b505050565b90565b82805462000504906200075e565b90600052602060002090601f01602090048101928262000528576000855562000573565b82601f106200054357805160ff191683800117855562000573565b8280016001018555821562000573579182015b828111156200057357825182559160200191906001019062000556565b506200058192915062000585565b5090565b5b8082111562000581576000815560010162000586565b634e487b7160e01b600052604160045260246000fd5b60005b83811015620005cf578181015183820152602001620005b5565b83811115620002e55750506000910152565b600082601f830112620005f357600080fd5b81516001600160401b03808211156200061057620006106200059c565b604051601f8301601f19908116603f011681019082821181831017156200063b576200063b6200059c565b816040528381528660208588010111156200065557600080fd5b62000668846020830160208901620005b2565b9695505050505050565b6000806000606084860312156200068857600080fd5b83516001600160401b0380821115620006a057600080fd5b620006ae87838801620005e1565b94506020860151915080821115620006c557600080fd5b620006d387838801620005e1565b93506040860151915080821115620006ea57600080fd5b50620006f986828701620005e1565b9150509250925092565b602081526000825180602084015262000724816040850160208701620005b2565b601f01601f19169190910160400192915050565b6000828210156200075957634e487b7160e01b600052601160045260246000fd5b500390565b600181811c908216806200077357607f821691505b6020821081036200079457634e487b7160e01b600052602260045260246000fd5b50919050565b61219d80620007aa6000396000f3fe608060405234801561001057600080fd5b50600436106100f55760003560e01c80636352211e11610097578063a22cb46511610066578063a22cb46514610200578063b88d4fde14610213578063c87b56dd14610226578063e985e9c51461023957600080fd5b80636352211e146101b157806370a08231146101c45780638832e6e3146101e557806395d89b41146101f857600080fd5b806323b872dd116100d357806323b872dd1461016557806340c10f191461017857806342842e0e1461018b5780634684d7e91461019e57600080fd5b806306fdde03146100fa578063081812fc14610118578063095ea7b314610150575b600080fd5b61010261025c565b60405161010f9190611a85565b60405180910390f35b61012b610126366004611a9f565b6102f4565b60405173ffffffffffffffffffffffffffffffffffffffff909116815260200161010f565b61016361015e366004611ae1565b61030e565b005b610163610173366004611b0b565b6103ab565b610163610186366004611ae1565b6103c8565b610163610199366004611b0b565b6103f2565b6101636101ac366004611b47565b61040a565b61012b6101bf366004611a9f565b610452565b6101d76101d2366004611bcd565b610470565b60405190815260200161010f565b6101636101f3366004611be8565b6104a9565b6101026104f8565b61016361020e366004611c6f565b610510565b610163610221366004611cda565b610526565b610102610234366004611a9f565b610540565b61024c610247366004611dd4565b61057a565b604051901515815260200161010f565b6060610266610969565b805461027190611e07565b80601f016020809104026020016040519081016040528092919081815260200182805461029d90611e07565b80156102ea5780601f106102bf576101008083540402835291602001916102ea565b820191906000526020600020905b8154815290600101906020018083116102cd57829003601f168201915b5050505050905090565b60006103088261030261064f565b90610a1f565b92915050565b61034c6040518060400160405280601281526020017f4552433732314261736520617070726f766500000000000000000000000000008152506105bd565b6103916040518060400160405280600c81526020017f5f6d736753656e6465722829000000000000000000000000000000000000000081525061038c3390565b610b02565b6103a733838361039f61064f565b929190610b93565b5050565b6103c3338484846103ba61064f565b93929190610e4f565b505050565b6103a73383836040518060200160405280600081525060006103e861064f565b9493929190610e75565b6103c33384848461040161064f565b93929190610f82565b6103c38383838080602002602001604051908101604052809392919081815260200183836020028082843760009201919091525061044b925061064f915050565b9190610fa1565b600061045c61064f565b600092835260010160205250604090205490565b600061047a61064f565b73ffffffffffffffffffffffffffffffffffffffff909216600090815260029290920160205250604090205490565b6104f233858585858080601f016020809104026020016040519081016040528093929190818152602001838380828437600092019190915250600192506103e8915061064f9050565b50505050565b6060610502610969565b600101805461027190611e07565b6103a733838361051e61064f565b9291906110ee565b6104f2338585858561053661064f565b949392919061121a565b606061054a610725565b6105538361122a565b604051602001610564929190611e76565b6040516020818303038152906040529050919050565b600061058461064f565b73ffffffffffffffffffffffffffffffffffffffff93841660009081526020918252604080822094909516815292905250205460ff1690565b61064c816040516024016105d19190611a85565b604080517fffffffffffffffffffffffffffffffffffffffffffffffffffffffffffffffe08184030181529190526020810180517bffffffffffffffffffffffffffffffffffffffffffffffffffffffff167f41304fac00000000000000000000000000000000000000000000000000000000179052611378565b50565b60008061030860017fddf3ee18ae6d688373c219468f8be446e7ae82215f4779d821c7ea5e8c13c0c1611f82565b6106bb6040518060400160405280601281526020017f45524337323153746f7261676520696e697400000000000000000000000000008152506105bd565b6106f06106e960017ffddcdbf8ca7eb362a678daf3643ce3cf98ebf69ac314d25d376d5aeabd2f5332611f82565b60016107d6565b61064c7f80ac58cd00000000000000000000000000000000000000000000000000000000600161071e61084b565b9190610879565b60008061030860017f5f5773833f4966721eb3773ed87c7208ea74d78f0d94de1d8074345cac67333f611f82565b6107816106e960017fdf2ee7965c9504dc84db8f7759fc283282800c5a2fa3704c9f07f446b3b40a3f611f82565b610795838361078e610969565b9190610997565b80516107a79085906020840190611976565b506104f27f5b5e139f00000000000000000000000000000000000000000000000000000000600161071e61084b565b815482908211610847576040517f08c379a000000000000000000000000000000000000000000000000000000000815260206004820152601860248201527f53746f726167653a2076657273696f6e2072656163686564000000000000000060448201526064015b60405180910390fd5b5550565b60008061030860017f7180ffa89c91cf90d6c56dacabfc69bc5e36f3099d7eed2f5cc12c5dba016fe0611f82565b7fffffffff000000000000000000000000000000000000000000000000000000008083169003610905576040517f08c379a000000000000000000000000000000000000000000000000000000000815260206004820152601f60248201527f496e74657266616365446574656374696f6e3a2077726f6e672076616c756500604482015260640161083e565b7fffffffff00000000000000000000000000000000000000000000000000000000919091166000908152602092909252604090912080547fffffffffffffffffffffffffffffffffffffffffffffffffffffffffffffff0016911515919091179055565b60008061030860017f9c4269c0f9f430d98876ffe9767fbf3f3232ea91a549beb549e5329532520eb3611f82565b6109c56106e960017fa057eeb6560fae2987973d3bf40b89e6da66dd0b6aadac05dc6b5b0d7a8d4557611f82565b81516109d79084906020850190611976565b5080516109ed9060018501906020840190611976565b506103c37f5b5e139f00000000000000000000000000000000000000000000000000000000600161071e61084b565b90565b600081815260018301602052604081205473ffffffffffffffffffffffffffffffffffffffff8116610aad576040517f08c379a000000000000000000000000000000000000000000000000000000000815260206004820152601860248201527f4552433732313a206e6f6e2d6578697374696e67204e46540000000000000000604482015260640161083e565b74010000000000000000000000000000000000000000811615610af8575050600081815260038301602052604090205473ffffffffffffffffffffffffffffffffffffffff16610308565b6000915050610308565b6103a78282604051602401610b18929190611f99565b604080517fffffffffffffffffffffffffffffffffffffffffffffffffffffffffffffffe08184030181529190526020810180517bffffffffffffffffffffffffffffffffffffffffffffffffffffffff167f319af33300000000000000000000000000000000000000000000000000000000179052611378565b600081815260018501602052604081205490819003610c0e576040517f08c379a000000000000000000000000000000000000000000000000000000000815260206004820152601860248201527f4552433732313a206e6f6e2d6578697374696e67204e46540000000000000000604482015260640161083e565b8073ffffffffffffffffffffffffffffffffffffffff80821690851603610c91576040517f08c379a000000000000000000000000000000000000000000000000000000000815260206004820152601560248201527f4552433732313a2073656c662d617070726f76616c0000000000000000000000604482015260640161083e565b610c9c868287611399565b610d02576040517f08c379a000000000000000000000000000000000000000000000000000000000815260206004820152601b60248201527f4552433732313a206e6f6e2d617070726f7665642073656e6465720000000000604482015260640161083e565b73ffffffffffffffffffffffffffffffffffffffff8416610d695774010000000000000000000000000000000000000000821615610d64576000838152600187016020526040902073ffffffffffffffffffffffffffffffffffffffff821690555b610dec565b740100000000000000000000000000000000000000008217808314610d9c57600084815260018801602052604090208190555b506000838152600387016020526040902080547fffffffffffffffffffffffff00000000000000000000000000000000000000001673ffffffffffffffffffffffffffffffffffffffff86161790555b828473ffffffffffffffffffffffffffffffffffffffff168273ffffffffffffffffffffffffffffffffffffffff167f8c5be1e5ebec7d5bd14f71427d1e84f3dd0314c0f7b2291e5b200ac8c7c3b92560405160405180910390a4505050505050565b610e6e858585858560405180602001604052806000815250600061140d565b5050505050565b73ffffffffffffffffffffffffffffffffffffffff8416610ef2576040517f08c379a000000000000000000000000000000000000000000000000000000000815260206004820152601460248201527f4552433732313a206d696e7420746f207a65726f000000000000000000000000604482015260640161083e565b610eff8685856000611543565b604051839073ffffffffffffffffffffffffffffffffffffffff8616906000907fddf252ad1be2c89b69c2b068fc378daa952ba7f163c4a11628f55a4df523b3ef908290a4808015610f67575073ffffffffffffffffffffffffffffffffffffffff84163b15155b15610f7a57610f7a856000868686611628565b505050505050565b610e6e858585858560405180602001604052806000815250600161140d565b73ffffffffffffffffffffffffffffffffffffffff821661101e576040517f08c379a000000000000000000000000000000000000000000000000000000000815260206004820152601460248201527f4552433732313a206d696e7420746f207a65726f000000000000000000000000604482015260640161083e565b805160005b8181146110ab57600083828151811061103e5761103e611fd1565b602002602001015190506110558686836001611543565b604051819073ffffffffffffffffffffffffffffffffffffffff8716906000907fddf252ad1be2c89b69c2b068fc378daa952ba7f163c4a11628f55a4df523b3ef908290a4506110a481612000565b9050611023565b5073ffffffffffffffffffffffffffffffffffffffff83166000908152600285016020526040812080548392906110e3908490612038565b909155505050505050565b8273ffffffffffffffffffffffffffffffffffffffff168273ffffffffffffffffffffffffffffffffffffffff1603611183576040517f08c379a000000000000000000000000000000000000000000000000000000000815260206004820152601560248201527f4552433732313a2073656c662d617070726f76616c0000000000000000000000604482015260640161083e565b73ffffffffffffffffffffffffffffffffffffffff8381166000818152602087815260408083209487168084529482529182902080547fffffffffffffffffffffffffffffffffffffffffffffffffffffffffffffff001686151590811790915591519182527f17307eab39ab6107e8899845ad3d59bd9653f200f220920489ca2b5937696c31910160405180910390a350505050565b610f7a868686868686600161140d565b60608160000361126d57505060408051808201909152600181527f3000000000000000000000000000000000000000000000000000000000000000602082015290565b8160005b8115611297578061128181612000565b91506112909050600a8361207f565b9150611271565b60008167ffffffffffffffff8111156112b2576112b2611cab565b6040519080825280601f01601f1916602001820160405280156112dc576020820181803683370190505b50905060006112ec600184611f82565b90508593505b831561136f57611303600a85612093565b61130e906030612038565b60f81b828261131c816120a7565b93508151811061132e5761132e611fd1565b60200101907effffffffffffffffffffffffffffffffffffffffffffffffffffffffffffff1916908160001a905350611368600a8561207f565b93506112f2565b50949350505050565b80516a636f6e736f6c652e6c6f67602083016000808483855afa5050505050565b60008173ffffffffffffffffffffffffffffffffffffffff168373ffffffffffffffffffffffffffffffffffffffff161480611405575073ffffffffffffffffffffffffffffffffffffffff8084166000908152602086815260408083209386168352929052205460ff165b949350505050565b73ffffffffffffffffffffffffffffffffffffffff841661148a576040517f08c379a000000000000000000000000000000000000000000000000000000000815260206004820152601860248201527f4552433732313a207472616e7366657220746f207a65726f0000000000000000604482015260640161083e565b6000611497888789611399565b90506114a9888888888886600061174e565b838573ffffffffffffffffffffffffffffffffffffffff168773ffffffffffffffffffffffffffffffffffffffff167fddf252ad1be2c89b69c2b068fc378daa952ba7f163c4a11628f55a4df523b3ef60405160405180910390a4818015611527575073ffffffffffffffffffffffffffffffffffffffff85163b15155b15611539576115398787878787611628565b5050505050505050565b6000828152600185016020526040902054156115bb576040517f08c379a000000000000000000000000000000000000000000000000000000000815260206004820152601a60248201527f4552433732313a206578697374696e672f6275726e74204e4654000000000000604482015260640161083e565b6000828152600185016020526040902073ffffffffffffffffffffffffffffffffffffffff84169055806104f25773ffffffffffffffffffffffffffffffffffffffff831660009081526002850160205260408120805490919061161e90612000565b9091555050505050565b6040517f150b7a02000000000000000000000000000000000000000000000000000000008082529073ffffffffffffffffffffffffffffffffffffffff85169063150b7a02906116829089908990889088906004016120dc565b6020604051808303816000875af11580156116a1573d6000803e3d6000fd5b505050506040513d601f19601f820116820180604052508101906116c59190612125565b7fffffffff000000000000000000000000000000000000000000000000000000001614610e6e576040517f08c379a000000000000000000000000000000000000000000000000000000000815260206004820152601860248201527f4552433732313a207472616e7366657220726566757365640000000000000000604482015260640161083e565b600083815260018801602052604090205473ffffffffffffffffffffffffffffffffffffffff868116908216146117e1576040517f08c379a000000000000000000000000000000000000000000000000000000000815260206004820152601560248201527f4552433732313a206e6f6e2d6f776e6564204e46540000000000000000000000604482015260640161083e565b8261189a57740100000000000000000000000000000000000000008116158015906118345750600084815260038901602052604090205473ffffffffffffffffffffffffffffffffffffffff8881169116145b61189a576040517f08c379a000000000000000000000000000000000000000000000000000000000815260206004820152601b60248201527f4552433732313a206e6f6e2d617070726f7665642073656e6465720000000000604482015260640161083e565b6000848152600189016020526040902073ffffffffffffffffffffffffffffffffffffffff86169055816115395761153988878760018173ffffffffffffffffffffffffffffffffffffffff168373ffffffffffffffffffffffffffffffffffffffff16146104f25773ffffffffffffffffffffffffffffffffffffffff831660009081526002850160205260408120805483929061193a908490611f82565b909155505073ffffffffffffffffffffffffffffffffffffffff82166000908152600285016020526040812080548392906110e3908490612038565b82805461198290611e07565b90600052602060002090601f0160209004810192826119a457600085556119ea565b82601f106119bd57805160ff19168380011785556119ea565b828001600101855582156119ea579182015b828111156119ea5782518255916020019190600101906119cf565b506119f69291506119fa565b5090565b5b808211156119f657600081556001016119fb565b60005b83811015611a2a578181015183820152602001611a12565b838111156104f25750506000910152565b60008151808452611a53816020860160208601611a0f565b601f017fffffffffffffffffffffffffffffffffffffffffffffffffffffffffffffffe0169290920160200192915050565b602081526000611a986020830184611a3b565b9392505050565b600060208284031215611ab157600080fd5b5035919050565b803573ffffffffffffffffffffffffffffffffffffffff81168114611adc57600080fd5b919050565b60008060408385031215611af457600080fd5b611afd83611ab8565b946020939093013593505050565b600080600060608486031215611b2057600080fd5b611b2984611ab8565b9250611b3760208501611ab8565b9150604084013590509250925092565b600080600060408486031215611b5c57600080fd5b611b6584611ab8565b9250602084013567ffffffffffffffff80821115611b8257600080fd5b818601915086601f830112611b9657600080fd5b813581811115611ba557600080fd5b8760208260051b8501011115611bba57600080fd5b6020830194508093505050509250925092565b600060208284031215611bdf57600080fd5b611a9882611ab8565b60008060008060608587031215611bfe57600080fd5b611c0785611ab8565b935060208501359250604085013567ffffffffffffffff80821115611c2b57600080fd5b818701915087601f830112611c3f57600080fd5b813581811115611c4e57600080fd5b886020828501011115611c6057600080fd5b95989497505060200194505050565b60008060408385031215611c8257600080fd5b611c8b83611ab8565b915060208301358015158114611ca057600080fd5b809150509250929050565b7f4e487b7100000000000000000000000000000000000000000000000000000000600052604160045260246000fd5b60008060008060808587031215611cf057600080fd5b611cf985611ab8565b9350611d0760208601611ab8565b925060408501359150606085013567ffffffffffffffff80821115611d2b57600080fd5b818701915087601f830112611d3f57600080fd5b813581811115611d5157611d51611cab565b604051601f82017fffffffffffffffffffffffffffffffffffffffffffffffffffffffffffffffe0908116603f01168101908382118183101715611d9757611d97611cab565b816040528281528a6020848701011115611db057600080fd5b82602086016020830137600060208483010152809550505050505092959194509250565b60008060408385031215611de757600080fd5b611df083611ab8565b9150611dfe60208401611ab8565b90509250929050565b600181811c90821680611e1b57607f821691505b602082108103611e54577f4e487b7100000000000000000000000000000000000000000000000000000000600052602260045260246000fd5b50919050565b60008151611e6c818560208601611a0f565b9290920192915050565b600080845481600182811c915080831680611e9257607f831692505b60208084108203611eca577f4e487b710000000000000000000000000000000000000000000000000000000086526022600452602486fd5b818015611ede5760018114611f0d57611f3a565b7fffffffffffffffffffffffffffffffffffffffffffffffffffffffffffffff00861689528489019650611f3a565b60008b81526020902060005b86811015611f325781548b820152908501908301611f19565b505084890196505b505050505050611f4a8185611e5a565b95945050505050565b7f4e487b7100000000000000000000000000000000000000000000000000000000600052601160045260246000fd5b600082821015611f9457611f94611f53565b500390565b604081526000611fac6040830185611a3b565b905073ffffffffffffffffffffffffffffffffffffffff831660208301529392505050565b7f4e487b7100000000000000000000000000000000000000000000000000000000600052603260045260246000fd5b60007fffffffffffffffffffffffffffffffffffffffffffffffffffffffffffffffff820361203157612031611f53565b5060010190565b6000821982111561204b5761204b611f53565b500190565b7f4e487b7100000000000000000000000000000000000000000000000000000000600052601260045260246000fd5b60008261208e5761208e612050565b500490565b6000826120a2576120a2612050565b500690565b6000816120b6576120b6611f53565b507fffffffffffffffffffffffffffffffffffffffffffffffffffffffffffffffff0190565b600073ffffffffffffffffffffffffffffffffffffffff80871683528086166020840152508360408301526080606083015261211b6080830184611a3b565b9695505050505050565b60006020828403121561213757600080fd5b81517fffffffff0000000000000000000000000000000000000000000000000000000081168114611a9857600080fdfea26469706673582212205880a60208c2fd411fc9ed3706229a98a259a8c9d99f02b33de3ebd4e45d5c6464736f6c634300080d0033",
  "linkReferences": {},
  "deployedLinkReferences": {}
}