{
  "_format": "hh-sol-artifact-1",
  "contractName": "ERC721Mock",
  "sourceName": "contracts/mocks/token/ERC721/ERC721Mock.sol",
  "abi": [
    {
      "inputs": [
        {
          "internalType": "string",
          "name": "name_",
          "type": "string"
        },
        {
          "internalType": "string",
          "name": "symbol_",
          "type": "string"
        },
        {
          "internalType": "string",
          "name": "tokenURI_",
          "type": "string"
        }
      ],
      "stateMutability": "nonpayable",
      "type": "constructor"
    },
    {
      "anonymous": false,
      "inputs": [
        {
          "indexed": true,
          "internalType": "address",
          "name": "owner",
          "type": "address"
        },
        {
          "indexed": true,
          "internalType": "address",
          "name": "approved",
          "type": "address"
        },
        {
          "indexed": true,
          "internalType": "uint256",
          "name": "tokenId",
          "type": "uint256"
        }
      ],
      "name": "Approval",
      "type": "event"
    },
    {
      "anonymous": false,
      "inputs": [
        {
          "indexed": true,
          "internalType": "address",
          "name": "owner",
          "type": "address"
        },
        {
          "indexed": true,
          "internalType": "address",
          "name": "operator",
          "type": "address"
        },
        {
          "indexed": false,
          "internalType": "bool",
          "name": "approved",
          "type": "bool"
        }
      ],
      "name": "ApprovalForAll",
      "type": "event"
    },
    {
      "anonymous": false,
      "inputs": [
        {
          "indexed": true,
          "internalType": "address",
          "name": "from",
          "type": "address"
        },
        {
          "indexed": true,
          "internalType": "address",
          "name": "to",
          "type": "address"
        },
        {
          "indexed": true,
          "internalType": "uint256",
          "name": "tokenId",
          "type": "uint256"
        }
      ],
      "name": "Transfer",
      "type": "event"
    },
    {
      "inputs": [
        {
          "internalType": "address",
          "name": "to",
          "type": "address"
        },
        {
          "internalType": "uint256",
          "name": "tokenId",
          "type": "uint256"
        }
      ],
      "name": "approve",
      "outputs": [],
      "stateMutability": "nonpayable",
      "type": "function"
    },
    {
      "inputs": [
        {
          "internalType": "address",
          "name": "owner",
          "type": "address"
        }
      ],
      "name": "balanceOf",
      "outputs": [
        {
          "internalType": "uint256",
          "name": "",
          "type": "uint256"
        }
      ],
      "stateMutability": "view",
      "type": "function"
    },
    {
      "inputs": [
        {
          "internalType": "address",
          "name": "from",
          "type": "address"
        },
        {
          "internalType": "uint256[]",
          "name": "tokenIds",
          "type": "uint256[]"
        }
      ],
      "name": "batchBurnFrom",
      "outputs": [],
      "stateMutability": "nonpayable",
      "type": "function"
    },
    {
      "inputs": [
        {
          "internalType": "address",
          "name": "to",
          "type": "address"
        },
        {
          "internalType": "uint256[]",
          "name": "tokenIds",
          "type": "uint256[]"
        }
      ],
      "name": "batchMint",
      "outputs": [],
      "stateMutability": "nonpayable",
      "type": "function"
    },
    {
      "inputs": [
        {
          "internalType": "address",
          "name": "from",
          "type": "address"
        },
        {
          "internalType": "address",
          "name": "to",
          "type": "address"
        },
        {
          "internalType": "uint256[]",
          "name": "tokenIds",
          "type": "uint256[]"
        }
      ],
      "name": "batchTransferFrom",
      "outputs": [],
      "stateMutability": "nonpayable",
      "type": "function"
    },
    {
      "inputs": [
        {
          "internalType": "address",
          "name": "from",
          "type": "address"
        },
        {
          "internalType": "uint256",
          "name": "tokenId",
          "type": "uint256"
        }
      ],
      "name": "burnFrom",
      "outputs": [],
      "stateMutability": "nonpayable",
      "type": "function"
    },
    {
      "inputs": [
        {
          "internalType": "uint256",
          "name": "tokenId",
          "type": "uint256"
        }
      ],
      "name": "getApproved",
      "outputs": [
        {
          "internalType": "address",
          "name": "operator",
          "type": "address"
        }
      ],
      "stateMutability": "view",
      "type": "function"
    },
    {
      "inputs": [
        {
          "internalType": "address",
          "name": "owner",
          "type": "address"
        },
        {
          "internalType": "address",
          "name": "operator",
          "type": "address"
        }
      ],
      "name": "isApprovedForAll",
      "outputs": [
        {
          "internalType": "bool",
          "name": "",
          "type": "bool"
        }
      ],
      "stateMutability": "view",
      "type": "function"
    },
    {
      "inputs": [
        {
          "internalType": "address",
          "name": "to",
          "type": "address"
        },
        {
          "internalType": "uint256",
          "name": "tokenId",
          "type": "uint256"
        }
      ],
      "name": "mint",
      "outputs": [],
      "stateMutability": "nonpayable",
      "type": "function"
    },
    {
      "inputs": [],
      "name": "name",
      "outputs": [
        {
          "internalType": "string",
          "name": "",
          "type": "string"
        }
      ],
      "stateMutability": "view",
      "type": "function"
    },
    {
      "inputs": [
        {
          "internalType": "uint256",
          "name": "tokenId",
          "type": "uint256"
        }
      ],
      "name": "ownerOf",
      "outputs": [
        {
          "internalType": "address",
          "name": "",
          "type": "address"
        }
      ],
      "stateMutability": "view",
      "type": "function"
    },
    {
      "inputs": [
        {
          "internalType": "address",
          "name": "to",
          "type": "address"
        },
        {
          "internalType": "uint256",
          "name": "tokenId",
          "type": "uint256"
        },
        {
          "internalType": "bytes",
          "name": "data",
          "type": "bytes"
        }
      ],
      "name": "safeMint",
      "outputs": [],
      "stateMutability": "nonpayable",
      "type": "function"
    },
    {
      "inputs": [
        {
          "internalType": "address",
          "name": "from",
          "type": "address"
        },
        {
          "internalType": "address",
          "name": "to",
          "type": "address"
        },
        {
          "internalType": "uint256",
          "name": "tokenId",
          "type": "uint256"
        }
      ],
      "name": "safeTransferFrom",
      "outputs": [],
      "stateMutability": "nonpayable",
      "type": "function"
    },
    {
      "inputs": [
        {
          "internalType": "address",
          "name": "from",
          "type": "address"
        },
        {
          "internalType": "address",
          "name": "to",
          "type": "address"
        },
        {
          "internalType": "uint256",
          "name": "tokenId",
          "type": "uint256"
        },
        {
          "internalType": "bytes",
          "name": "_data",
          "type": "bytes"
        }
      ],
      "name": "safeTransferFrom",
      "outputs": [],
      "stateMutability": "nonpayable",
      "type": "function"
    },
    {
      "inputs": [
        {
          "internalType": "address",
          "name": "operator",
          "type": "address"
        },
        {
          "internalType": "bool",
          "name": "_approved",
          "type": "bool"
        }
      ],
      "name": "setApprovalForAll",
      "outputs": [],
      "stateMutability": "nonpayable",
      "type": "function"
    },
    {
      "inputs": [],
      "name": "symbol",
      "outputs": [
        {
          "internalType": "string",
          "name": "",
          "type": "string"
        }
      ],
      "stateMutability": "view",
      "type": "function"
    },
    {
      "inputs": [
        {
          "internalType": "uint256",
          "name": "tokenId",
          "type": "uint256"
        }
      ],
      "name": "tokenURI",
      "outputs": [
        {
          "internalType": "string",
          "name": "",
          "type": "string"
        }
      ],
      "stateMutability": "view",
      "type": "function"
    },
    {
      "inputs": [
        {
          "internalType": "address",
          "name": "from",
          "type": "address"
        },
        {
          "internalType": "address",
          "name": "to",
          "type": "address"
        },
        {
          "internalType": "uint256",
          "name": "tokenId",
          "type": "uint256"
        }
      ],
      "name": "transferFrom",
      "outputs": [],
      "stateMutability": "nonpayable",
      "type": "function"
    }
  ],
  "bytecode": "0x60806040523480156200001157600080fd5b5060405162002e5938038062002e5983398101604081905262000034916200057d565b6200005e6200004d6200009960201b620007651760201c565b620000cf60201b620007931760201c565b620000908383836200007a6200015160201b620008001760201c565b6200018160201b6200082e17909392919060201c565b50505062000670565b600080620000c960017fddf3ee18ae6d688373c219468f8be446e7ae82215f4779d821c7ea5e8c13c0c16200060e565b92915050565b620001166200010060017ffddcdbf8ca7eb362a678daf3643ce3cf98ebf69ac314d25d376d5aeabd2f53326200060e565b60001b60016200022060201b620008b11760201c565b6200014e6380ac58cd60e01b6001620001396200029760201b620009211760201c565b620002c760201b6200094f179092919060201c565b50565b600080620000c960017f5f5773833f4966721eb3773ed87c7208ea74d78f0d94de1d8074345cac67333f6200060e565b620001b26200010060017fdf2ee7965c9504dc84db8f7759fc283282800c5a2fa3704c9f07f446b3b40a3f6200060e565b620001e28383620001cd6200035160201b62000a3f1760201c565b6200038160201b62000a6d179092919060201c565b8051620001f690859060208401906200040a565b506200021a635b5e139f60e01b6001620001396200029760201b620009211760201c565b50505050565b600062000238836200040760201b62000af21760201c565b905081816000015410620002935760405162461bcd60e51b815260206004820152601860248201527f53746f726167653a2076657273696f6e2072656163686564000000000000000060448201526064015b60405180910390fd5b5550565b600080620000c960017f7180ffa89c91cf90d6c56dacabfc69bc5e36f3099d7eed2f5cc12c5dba016fe06200060e565b6001600160e01b03198083169003620003235760405162461bcd60e51b815260206004820152601f60248201527f496e74657266616365446574656374696f6e3a2077726f6e672076616c75650060448201526064016200028a565b6001600160e01b03199190911660009081526020929092526040909120805460ff1916911515919091179055565b600080620000c960017f9c4269c0f9f430d98876ffe9767fbf3f3232ea91a549beb549e5329532520eb36200060e565b620003b26200010060017fa057eeb6560fae2987973d3bf40b89e6da66dd0b6aadac05dc6b5b0d7a8d45576200060e565b8151620003c690849060208501906200040a565b508051620003de90600185019060208401906200040a565b5062000402635b5e139f60e01b6001620001396200029760201b620009211760201c565b505050565b90565b828054620004189062000634565b90600052602060002090601f0160209004810192826200043c576000855562000487565b82601f106200045757805160ff191683800117855562000487565b8280016001018555821562000487579182015b82811115620004875782518255916020019190600101906200046a565b506200049592915062000499565b5090565b5b808211156200049557600081556001016200049a565b634e487b7160e01b600052604160045260246000fd5b600082601f830112620004d857600080fd5b81516001600160401b0380821115620004f557620004f5620004b0565b604051601f8301601f19908116603f01168101908282118183101715620005205762000520620004b0565b816040528381526020925086838588010111156200053d57600080fd5b600091505b8382101562000561578582018301518183018401529082019062000542565b83821115620005735760008385830101525b9695505050505050565b6000806000606084860312156200059357600080fd5b83516001600160401b0380821115620005ab57600080fd5b620005b987838801620004c6565b94506020860151915080821115620005d057600080fd5b620005de87838801620004c6565b93506040860151915080821115620005f557600080fd5b506200060486828701620004c6565b9150509250925092565b6000828210156200062f57634e487b7160e01b600052601160045260246000fd5b500390565b600181811c908216806200064957607f821691505b6020821081036200066a57634e487b7160e01b600052602260045260246000fd5b50919050565b6127d980620006806000396000f3fe608060405234801561001057600080fd5b50600436106101365760003560e01c806379cc6790116100b2578063b88d4fde11610081578063e985e9c511610066578063e985e9c51461028d578063f2472965146102b0578063f3993d11146102c357600080fd5b8063b88d4fde14610267578063c87b56dd1461027a57600080fd5b806379cc6790146102265780638832e6e31461023957806395d89b411461024c578063a22cb4651461025457600080fd5b806340c10f19116101095780634684d7e9116100ee5780634684d7e9146101df5780636352211e146101f257806370a082311461020557600080fd5b806340c10f19146101b957806342842e0e146101cc57600080fd5b806306fdde031461013b578063081812fc14610159578063095ea7b31461019157806323b872dd146101a6575b600080fd5b6101436102d6565b6040516101509190612047565b60405180910390f35b61016c610167366004612061565b61036e565b60405173ffffffffffffffffffffffffffffffffffffffff9091168152602001610150565b6101a461019f3660046120a3565b610388565b005b6101a46101b43660046120cd565b610425565b6101a46101c73660046120a3565b610442565b6101a46101da3660046120cd565b61046c565b6101a46101ed366004612155565b610484565b61016c610200366004612061565b6104cc565b6102186102133660046121a8565b6104ea565b604051908152602001610150565b6101a46102343660046120a3565b6105a5565b6101a46102473660046121c3565b6105bb565b61014361060a565b6101a461026236600461224a565b610622565b6101a46102753660046122b5565b610638565b610143610288366004612061565b610652565b6102a061029b3660046123af565b61068c565b6040519015158152602001610150565b6101a46102be366004612155565b6106cf565b6101a46102d13660046123e2565b610719565b60606102e0610a3f565b80546102eb90612443565b80601f016020809104026020016040519081016040528092919081815260200182805461031790612443565b80156103645780601f1061033957610100808354040283529160200191610364565b820191906000526020600020905b81548152906001019060200180831161034757829003601f168201915b5050505050905090565b60006103828261037c610765565b90610af5565b92915050565b6103c66040518060400160405280601281526020017f4552433732314261736520617070726f76650000000000000000000000000000815250610bd8565b61040b6040518060400160405280600c81526020017f5f6d736753656e646572282900000000000000000000000000000000000000008152506104063390565b610c67565b610421338383610419610765565b929190610cf8565b5050565b61043d33848484610434610765565b93929190610fb4565b505050565b610421338383604051806020016040528060008152506000610462610765565b9493929190610fda565b61043d3384848461047b610765565b939291906110e7565b61043d838383808060200260200160405190810160405280939291908181526020018383602002808284376000920191909152506104c59250610765915050565b9190611106565b60006104d6610765565b600092835260010160205250604090205490565b600073ffffffffffffffffffffffffffffffffffffffff821661056e576040517f08c379a000000000000000000000000000000000000000000000000000000000815260206004820152601460248201527f4552433732313a207a65726f206164647265737300000000000000000000000060448201526064015b60405180910390fd5b610576610765565b73ffffffffffffffffffffffffffffffffffffffff909216600090815260029290920160205250604090205490565b6104213383836105b3610765565b929190611253565b61060433858585858080601f0160208091040260200160405190810160405280939291908181526020018383808284376000920191909152506001925061046291506107659050565b50505050565b6060610614610a3f565b60010180546102eb90612443565b610421338383610630610765565b9291906112bd565b6106043385858585610648610765565b94939291906113e9565b606061065c610800565b610665836113f9565b6040516020016106769291906124b2565b6040516020818303038152906040529050919050565b6000610696610765565b73ffffffffffffffffffffffffffffffffffffffff93841660009081526020918252604080822094909516815292905250205460ff1690565b61043d33848484808060200260200160405190810160405280939291908181526020018383602002808284376000920191909152506107119250610765915050565b929190611547565b61060433858585858080602002602001604051908101604052809392919081815260200183836020028082843760009201919091525061075c9250610765915050565b93929190611631565b60008061038260017fddf3ee18ae6d688373c219468f8be446e7ae82215f4779d821c7ea5e8c13c0c16125be565b6107c86107c160017ffddcdbf8ca7eb362a678daf3643ce3cf98ebf69ac314d25d376d5aeabd2f53326125be565b60016108b1565b6107fd7f80ac58cd0000000000000000000000000000000000000000000000000000000060016107f6610921565b919061094f565b50565b60008061038260017f5f5773833f4966721eb3773ed87c7208ea74d78f0d94de1d8074345cac67333f6125be565b61085c6107c160017fdf2ee7965c9504dc84db8f7759fc283282800c5a2fa3704c9f07f446b3b40a3f6125be565b6108708383610869610a3f565b9190610a6d565b80516108829085906020840190611f38565b506106047f5b5e139f0000000000000000000000000000000000000000000000000000000060016107f6610921565b81548290821161091d576040517f08c379a000000000000000000000000000000000000000000000000000000000815260206004820152601860248201527f53746f726167653a2076657273696f6e207265616368656400000000000000006044820152606401610565565b5550565b60008061038260017f7180ffa89c91cf90d6c56dacabfc69bc5e36f3099d7eed2f5cc12c5dba016fe06125be565b7fffffffff0000000000000000000000000000000000000000000000000000000080831690036109db576040517f08c379a000000000000000000000000000000000000000000000000000000000815260206004820152601f60248201527f496e74657266616365446574656374696f6e3a2077726f6e672076616c7565006044820152606401610565565b7fffffffff00000000000000000000000000000000000000000000000000000000919091166000908152602092909252604090912080547fffffffffffffffffffffffffffffffffffffffffffffffffffffffffffffff0016911515919091179055565b60008061038260017f9c4269c0f9f430d98876ffe9767fbf3f3232ea91a549beb549e5329532520eb36125be565b610a9b6107c160017fa057eeb6560fae2987973d3bf40b89e6da66dd0b6aadac05dc6b5b0d7a8d45576125be565b8151610aad9084906020850190611f38565b508051610ac39060018501906020840190611f38565b5061043d7f5b5e139f0000000000000000000000000000000000000000000000000000000060016107f6610921565b90565b600081815260018301602052604081205473ffffffffffffffffffffffffffffffffffffffff8116610b83576040517f08c379a000000000000000000000000000000000000000000000000000000000815260206004820152601860248201527f4552433732313a206e6f6e2d6578697374696e67204e465400000000000000006044820152606401610565565b74010000000000000000000000000000000000000000811615610bce575050600081815260038301602052604090205473ffffffffffffffffffffffffffffffffffffffff16610382565b6000915050610382565b6107fd81604051602401610bec9190612047565b604080517fffffffffffffffffffffffffffffffffffffffffffffffffffffffffffffffe08184030181529190526020810180517bffffffffffffffffffffffffffffffffffffffffffffffffffffffff167f41304fac00000000000000000000000000000000000000000000000000000000179052611780565b6104218282604051602401610c7d9291906125d5565b604080517fffffffffffffffffffffffffffffffffffffffffffffffffffffffffffffffe08184030181529190526020810180517bffffffffffffffffffffffffffffffffffffffffffffffffffffffff167f319af33300000000000000000000000000000000000000000000000000000000179052611780565b600081815260018501602052604081205490819003610d73576040517f08c379a000000000000000000000000000000000000000000000000000000000815260206004820152601860248201527f4552433732313a206e6f6e2d6578697374696e67204e465400000000000000006044820152606401610565565b8073ffffffffffffffffffffffffffffffffffffffff80821690851603610df6576040517f08c379a000000000000000000000000000000000000000000000000000000000815260206004820152601560248201527f4552433732313a2073656c662d617070726f76616c00000000000000000000006044820152606401610565565b610e018682876117a1565b610e67576040517f08c379a000000000000000000000000000000000000000000000000000000000815260206004820152601b60248201527f4552433732313a206e6f6e2d617070726f7665642073656e64657200000000006044820152606401610565565b73ffffffffffffffffffffffffffffffffffffffff8416610ece5774010000000000000000000000000000000000000000821615610ec9576000838152600187016020526040902073ffffffffffffffffffffffffffffffffffffffff821690555b610f51565b740100000000000000000000000000000000000000008217808314610f0157600084815260018801602052604090208190555b506000838152600387016020526040902080547fffffffffffffffffffffffff00000000000000000000000000000000000000001673ffffffffffffffffffffffffffffffffffffffff86161790555b828473ffffffffffffffffffffffffffffffffffffffff168273ffffffffffffffffffffffffffffffffffffffff167f8c5be1e5ebec7d5bd14f71427d1e84f3dd0314c0f7b2291e5b200ac8c7c3b92560405160405180910390a4505050505050565b610fd38585858585604051806020016040528060008152506000611815565b5050505050565b73ffffffffffffffffffffffffffffffffffffffff8416611057576040517f08c379a000000000000000000000000000000000000000000000000000000000815260206004820152601460248201527f4552433732313a206d696e7420746f207a65726f0000000000000000000000006044820152606401610565565b611064868585600061194b565b604051839073ffffffffffffffffffffffffffffffffffffffff8616906000907fddf252ad1be2c89b69c2b068fc378daa952ba7f163c4a11628f55a4df523b3ef908290a48080156110cc575073ffffffffffffffffffffffffffffffffffffffff84163b15155b156110df576110df856000868686611a30565b505050505050565b610fd38585858585604051806020016040528060008152506001611815565b73ffffffffffffffffffffffffffffffffffffffff8216611183576040517f08c379a000000000000000000000000000000000000000000000000000000000815260206004820152601460248201527f4552433732313a206d696e7420746f207a65726f0000000000000000000000006044820152606401610565565b805160005b8181146112105760008382815181106111a3576111a361260d565b602002602001015190506111ba868683600161194b565b604051819073ffffffffffffffffffffffffffffffffffffffff8716906000907fddf252ad1be2c89b69c2b068fc378daa952ba7f163c4a11628f55a4df523b3ef908290a4506112098161263c565b9050611188565b5073ffffffffffffffffffffffffffffffffffffffff8316600090815260028501602052604081208054839290611248908490612674565b909155505050505050565b60006112608584866117a1565b905061127185858585856000611b56565b604051829060009073ffffffffffffffffffffffffffffffffffffffff8616907fddf252ad1be2c89b69c2b068fc378daa952ba7f163c4a11628f55a4df523b3ef908390a45050505050565b8273ffffffffffffffffffffffffffffffffffffffff168273ffffffffffffffffffffffffffffffffffffffff1603611352576040517f08c379a000000000000000000000000000000000000000000000000000000000815260206004820152601560248201527f4552433732313a2073656c662d617070726f76616c00000000000000000000006044820152606401610565565b73ffffffffffffffffffffffffffffffffffffffff8381166000818152602087815260408083209487168084529482529182902080547fffffffffffffffffffffffffffffffffffffffffffffffffffffffffffffff001686151590811790915591519182527f17307eab39ab6107e8899845ad3d59bd9653f200f220920489ca2b5937696c31910160405180910390a350505050565b6110df8686868686866001611815565b60608160000361143c57505060408051808201909152600181527f3000000000000000000000000000000000000000000000000000000000000000602082015290565b8160005b811561146657806114508161263c565b915061145f9050600a836126bb565b9150611440565b60008167ffffffffffffffff81111561148157611481612286565b6040519080825280601f01601f1916602001820160405280156114ab576020820181803683370190505b50905060006114bb6001846125be565b90508593505b831561153e576114d2600a856126cf565b6114dd906030612674565b60f81b82826114eb816126e3565b9350815181106114fd576114fd61260d565b60200101907effffffffffffffffffffffffffffffffffffffffffffffffffffffffffffff1916908160001a905350611537600a856126bb565b93506114c1565b50949350505050565b60006115548584866117a1565b825190915060005b8181146115e65760008482815181106115775761157761260d565b6020026020010151905061159088888884886001611b56565b604051819060009073ffffffffffffffffffffffffffffffffffffffff8916907fddf252ad1be2c89b69c2b068fc378daa952ba7f163c4a11628f55a4df523b3ef908390a4506115df8161263c565b905061155c565b5080156110df5773ffffffffffffffffffffffffffffffffffffffff84166000908152600287016020526040812080548392906116249084906125be565b9091555050505050505050565b73ffffffffffffffffffffffffffffffffffffffff82166116ae576040517f08c379a000000000000000000000000000000000000000000000000000000000815260206004820152601860248201527f4552433732313a207472616e7366657220746f207a65726f00000000000000006044820152606401610565565b60006116bb8685876117a1565b825190915060005b8181146117645760008482815181106116de576116de61260d565b602002602001015190506116f88989898985896001611d0f565b808673ffffffffffffffffffffffffffffffffffffffff168873ffffffffffffffffffffffffffffffffffffffff167fddf252ad1be2c89b69c2b068fc378daa952ba7f163c4a11628f55a4df523b3ef60405160405180910390a45061175d8161263c565b90506116c3565b5080156117775761177787868684611e92565b50505050505050565b80516a636f6e736f6c652e6c6f67602083016000808483855afa5050505050565b60008173ffffffffffffffffffffffffffffffffffffffff168373ffffffffffffffffffffffffffffffffffffffff16148061180d575073ffffffffffffffffffffffffffffffffffffffff8084166000908152602086815260408083209386168352929052205460ff165b949350505050565b73ffffffffffffffffffffffffffffffffffffffff8416611892576040517f08c379a000000000000000000000000000000000000000000000000000000000815260206004820152601860248201527f4552433732313a207472616e7366657220746f207a65726f00000000000000006044820152606401610565565b600061189f8887896117a1565b90506118b18888888888866000611d0f565b838573ffffffffffffffffffffffffffffffffffffffff168773ffffffffffffffffffffffffffffffffffffffff167fddf252ad1be2c89b69c2b068fc378daa952ba7f163c4a11628f55a4df523b3ef60405160405180910390a481801561192f575073ffffffffffffffffffffffffffffffffffffffff85163b15155b15611941576119418787878787611a30565b5050505050505050565b6000828152600185016020526040902054156119c3576040517f08c379a000000000000000000000000000000000000000000000000000000000815260206004820152601a60248201527f4552433732313a206578697374696e672f6275726e74204e46540000000000006044820152606401610565565b6000828152600185016020526040902073ffffffffffffffffffffffffffffffffffffffff84169055806106045773ffffffffffffffffffffffffffffffffffffffff8316600090815260028501602052604081208054909190611a269061263c565b9091555050505050565b6040517f150b7a02000000000000000000000000000000000000000000000000000000008082529073ffffffffffffffffffffffffffffffffffffffff85169063150b7a0290611a8a908990899088908890600401612718565b6020604051808303816000875af1158015611aa9573d6000803e3d6000fd5b505050506040513d601f19601f82011682018060405250810190611acd9190612761565b7fffffffff000000000000000000000000000000000000000000000000000000001614610fd3576040517f08c379a000000000000000000000000000000000000000000000000000000000815260206004820152601860248201527f4552433732313a207472616e73666572207265667573656400000000000000006044820152606401610565565b600083815260018701602052604090205473ffffffffffffffffffffffffffffffffffffffff85811690821614611be9576040517f08c379a000000000000000000000000000000000000000000000000000000000815260206004820152601560248201527f4552433732313a206e6f6e2d6f776e6564204e465400000000000000000000006044820152606401610565565b82611ca25774010000000000000000000000000000000000000000811615801590611c3c5750600084815260038801602052604090205473ffffffffffffffffffffffffffffffffffffffff8781169116145b611ca2576040517f08c379a000000000000000000000000000000000000000000000000000000000815260206004820152601b60248201527f4552433732313a206e6f6e2d617070726f7665642073656e64657200000000006044820152606401610565565b600084815260018801602052604090207fdead0000000000000000000000000000000000000000000000000000000000009055816117775773ffffffffffffffffffffffffffffffffffffffff8516600090815260028801602052604081208054909190611624906126e3565b600083815260018801602052604090205473ffffffffffffffffffffffffffffffffffffffff86811690821614611da2576040517f08c379a000000000000000000000000000000000000000000000000000000000815260206004820152601560248201527f4552433732313a206e6f6e2d6f776e6564204e465400000000000000000000006044820152606401610565565b82611e5b5774010000000000000000000000000000000000000000811615801590611df55750600084815260038901602052604090205473ffffffffffffffffffffffffffffffffffffffff8881169116145b611e5b576040517f08c379a000000000000000000000000000000000000000000000000000000000815260206004820152601b60248201527f4552433732313a206e6f6e2d617070726f7665642073656e64657200000000006044820152606401610565565b6000848152600189016020526040902073ffffffffffffffffffffffffffffffffffffffff86169055816119415761194188878760015b8173ffffffffffffffffffffffffffffffffffffffff168373ffffffffffffffffffffffffffffffffffffffff16146106045773ffffffffffffffffffffffffffffffffffffffff8316600090815260028501602052604081208054839290611efc9084906125be565b909155505073ffffffffffffffffffffffffffffffffffffffff8216600090815260028501602052604081208054839290611248908490612674565b828054611f4490612443565b90600052602060002090601f016020900481019282611f665760008555611fac565b82601f10611f7f57805160ff1916838001178555611fac565b82800160010185558215611fac579182015b82811115611fac578251825591602001919060010190611f91565b50611fb8929150611fbc565b5090565b5b80821115611fb85760008155600101611fbd565b60005b83811015611fec578181015183820152602001611fd4565b838111156106045750506000910152565b60008151808452612015816020860160208601611fd1565b601f017fffffffffffffffffffffffffffffffffffffffffffffffffffffffffffffffe0169290920160200192915050565b60208152600061205a6020830184611ffd565b9392505050565b60006020828403121561207357600080fd5b5035919050565b803573ffffffffffffffffffffffffffffffffffffffff8116811461209e57600080fd5b919050565b600080604083850312156120b657600080fd5b6120bf8361207a565b946020939093013593505050565b6000806000606084860312156120e257600080fd5b6120eb8461207a565b92506120f96020850161207a565b9150604084013590509250925092565b60008083601f84011261211b57600080fd5b50813567ffffffffffffffff81111561213357600080fd5b6020830191508360208260051b850101111561214e57600080fd5b9250929050565b60008060006040848603121561216a57600080fd5b6121738461207a565b9250602084013567ffffffffffffffff81111561218f57600080fd5b61219b86828701612109565b9497909650939450505050565b6000602082840312156121ba57600080fd5b61205a8261207a565b600080600080606085870312156121d957600080fd5b6121e28561207a565b935060208501359250604085013567ffffffffffffffff8082111561220657600080fd5b818701915087601f83011261221a57600080fd5b81358181111561222957600080fd5b88602082850101111561223b57600080fd5b95989497505060200194505050565b6000806040838503121561225d57600080fd5b6122668361207a565b91506020830135801515811461227b57600080fd5b809150509250929050565b7f4e487b7100000000000000000000000000000000000000000000000000000000600052604160045260246000fd5b600080600080608085870312156122cb57600080fd5b6122d48561207a565b93506122e26020860161207a565b925060408501359150606085013567ffffffffffffffff8082111561230657600080fd5b818701915087601f83011261231a57600080fd5b81358181111561232c5761232c612286565b604051601f82017fffffffffffffffffffffffffffffffffffffffffffffffffffffffffffffffe0908116603f0116810190838211818310171561237257612372612286565b816040528281528a602084870101111561238b57600080fd5b82602086016020830137600060208483010152809550505050505092959194509250565b600080604083850312156123c257600080fd5b6123cb8361207a565b91506123d96020840161207a565b90509250929050565b600080600080606085870312156123f857600080fd5b6124018561207a565b935061240f6020860161207a565b9250604085013567ffffffffffffffff81111561242b57600080fd5b61243787828801612109565b95989497509550505050565b600181811c9082168061245757607f821691505b602082108103612490577f4e487b7100000000000000000000000000000000000000000000000000000000600052602260045260246000fd5b50919050565b600081516124a8818560208601611fd1565b9290920192915050565b600080845481600182811c9150808316806124ce57607f831692505b60208084108203612506577f4e487b710000000000000000000000000000000000000000000000000000000086526022600452602486fd5b81801561251a576001811461254957612576565b7fffffffffffffffffffffffffffffffffffffffffffffffffffffffffffffff00861689528489019650612576565b60008b81526020902060005b8681101561256e5781548b820152908501908301612555565b505084890196505b5050505050506125868185612496565b95945050505050565b7f4e487b7100000000000000000000000000000000000000000000000000000000600052601160045260246000fd5b6000828210156125d0576125d061258f565b500390565b6040815260006125e86040830185611ffd565b905073ffffffffffffffffffffffffffffffffffffffff831660208301529392505050565b7f4e487b7100000000000000000000000000000000000000000000000000000000600052603260045260246000fd5b60007fffffffffffffffffffffffffffffffffffffffffffffffffffffffffffffffff820361266d5761266d61258f565b5060010190565b600082198211156126875761268761258f565b500190565b7f4e487b7100000000000000000000000000000000000000000000000000000000600052601260045260246000fd5b6000826126ca576126ca61268c565b500490565b6000826126de576126de61268c565b500690565b6000816126f2576126f261258f565b507fffffffffffffffffffffffffffffffffffffffffffffffffffffffffffffffff0190565b600073ffffffffffffffffffffffffffffffffffffffff8087168352808616602084015250836040830152608060608301526127576080830184611ffd565b9695505050505050565b60006020828403121561277357600080fd5b81517fffffffff000000000000000000000000000000000000000000000000000000008116811461205a57600080fdfea26469706673582212202612f81a3b6234c9c7824ad64b892d029a1759dfa52c03393cec05ad32dea80e64736f6c634300080d0033",
  "linkReferences": {},
  "deployedLinkReferences": {}
}