{
  "_format": "hh-sol-artifact-1",
  "contractName": "ERC721Mock",
  "sourceName": "contracts/mocks/token/ERC721/ERC721Mock.sol",
  "abi": [
    {
      "inputs": [
        {
          "internalType": "string",
          "name": "name_",
          "type": "string"
        },
        {
          "internalType": "string",
          "name": "symbol_",
          "type": "string"
        },
        {
          "internalType": "string",
          "name": "tokenURI_",
          "type": "string"
        }
      ],
      "stateMutability": "nonpayable",
      "type": "constructor"
    },
    {
      "anonymous": false,
      "inputs": [
        {
          "indexed": true,
          "internalType": "address",
          "name": "owner",
          "type": "address"
        },
        {
          "indexed": true,
          "internalType": "address",
          "name": "approved",
          "type": "address"
        },
        {
          "indexed": true,
          "internalType": "uint256",
          "name": "tokenId",
          "type": "uint256"
        }
      ],
      "name": "Approval",
      "type": "event"
    },
    {
      "anonymous": false,
      "inputs": [
        {
          "indexed": true,
          "internalType": "address",
          "name": "owner",
          "type": "address"
        },
        {
          "indexed": true,
          "internalType": "address",
          "name": "operator",
          "type": "address"
        },
        {
          "indexed": false,
          "internalType": "bool",
          "name": "approved",
          "type": "bool"
        }
      ],
      "name": "ApprovalForAll",
      "type": "event"
    },
    {
      "anonymous": false,
      "inputs": [
        {
          "indexed": true,
          "internalType": "address",
          "name": "from",
          "type": "address"
        },
        {
          "indexed": true,
          "internalType": "address",
          "name": "to",
          "type": "address"
        },
        {
          "indexed": true,
          "internalType": "uint256",
          "name": "tokenId",
          "type": "uint256"
        }
      ],
      "name": "Transfer",
      "type": "event"
    },
    {
      "inputs": [
        {
          "internalType": "address",
          "name": "to",
          "type": "address"
        },
        {
          "internalType": "uint256",
          "name": "tokenId",
          "type": "uint256"
        }
      ],
      "name": "approve",
      "outputs": [],
      "stateMutability": "nonpayable",
      "type": "function"
    },
    {
      "inputs": [
        {
          "internalType": "address",
          "name": "owner",
          "type": "address"
        }
      ],
      "name": "balanceOf",
      "outputs": [
        {
          "internalType": "uint256",
          "name": "",
          "type": "uint256"
        }
      ],
      "stateMutability": "view",
      "type": "function"
    },
    {
      "inputs": [
        {
          "internalType": "address",
          "name": "from",
          "type": "address"
        },
        {
          "internalType": "uint256[]",
          "name": "tokenIds",
          "type": "uint256[]"
        }
      ],
      "name": "batchBurnFrom",
      "outputs": [],
      "stateMutability": "nonpayable",
      "type": "function"
    },
    {
      "inputs": [
        {
          "internalType": "address",
          "name": "to",
          "type": "address"
        },
        {
          "internalType": "uint256[]",
          "name": "tokenIds",
          "type": "uint256[]"
        }
      ],
      "name": "batchMint",
      "outputs": [],
      "stateMutability": "nonpayable",
      "type": "function"
    },
    {
      "inputs": [
        {
          "internalType": "address",
          "name": "from",
          "type": "address"
        },
        {
          "internalType": "address",
          "name": "to",
          "type": "address"
        },
        {
          "internalType": "uint256[]",
          "name": "tokenIds",
          "type": "uint256[]"
        }
      ],
      "name": "batchTransferFrom",
      "outputs": [],
      "stateMutability": "nonpayable",
      "type": "function"
    },
    {
      "inputs": [
        {
          "internalType": "address",
          "name": "from",
          "type": "address"
        },
        {
          "internalType": "uint256",
          "name": "tokenId",
          "type": "uint256"
        }
      ],
      "name": "burnFrom",
      "outputs": [],
      "stateMutability": "nonpayable",
      "type": "function"
    },
    {
      "inputs": [
        {
          "internalType": "uint256",
          "name": "tokenId",
          "type": "uint256"
        }
      ],
      "name": "getApproved",
      "outputs": [
        {
          "internalType": "address",
          "name": "operator",
          "type": "address"
        }
      ],
      "stateMutability": "view",
      "type": "function"
    },
    {
      "inputs": [
        {
          "internalType": "address",
          "name": "owner",
          "type": "address"
        },
        {
          "internalType": "address",
          "name": "operator",
          "type": "address"
        }
      ],
      "name": "isApprovedForAll",
      "outputs": [
        {
          "internalType": "bool",
          "name": "",
          "type": "bool"
        }
      ],
      "stateMutability": "view",
      "type": "function"
    },
    {
      "inputs": [
        {
          "internalType": "address",
          "name": "to",
          "type": "address"
        },
        {
          "internalType": "uint256",
          "name": "tokenId",
          "type": "uint256"
        }
      ],
      "name": "mint",
      "outputs": [],
      "stateMutability": "nonpayable",
      "type": "function"
    },
    {
      "inputs": [],
      "name": "name",
      "outputs": [
        {
          "internalType": "string",
          "name": "",
          "type": "string"
        }
      ],
      "stateMutability": "view",
      "type": "function"
    },
    {
      "inputs": [
        {
          "internalType": "uint256",
          "name": "tokenId",
          "type": "uint256"
        }
      ],
      "name": "ownerOf",
      "outputs": [
        {
          "internalType": "address",
          "name": "",
          "type": "address"
        }
      ],
      "stateMutability": "view",
      "type": "function"
    },
    {
      "inputs": [
        {
          "internalType": "address",
          "name": "to",
          "type": "address"
        },
        {
          "internalType": "uint256",
          "name": "tokenId",
          "type": "uint256"
        },
        {
          "internalType": "bytes",
          "name": "data",
          "type": "bytes"
        }
      ],
      "name": "safeMint",
      "outputs": [],
      "stateMutability": "nonpayable",
      "type": "function"
    },
    {
      "inputs": [
        {
          "internalType": "address",
          "name": "from",
          "type": "address"
        },
        {
          "internalType": "address",
          "name": "to",
          "type": "address"
        },
        {
          "internalType": "uint256",
          "name": "tokenId",
          "type": "uint256"
        }
      ],
      "name": "safeTransferFrom",
      "outputs": [],
      "stateMutability": "nonpayable",
      "type": "function"
    },
    {
      "inputs": [
        {
          "internalType": "address",
          "name": "from",
          "type": "address"
        },
        {
          "internalType": "address",
          "name": "to",
          "type": "address"
        },
        {
          "internalType": "uint256",
          "name": "tokenId",
          "type": "uint256"
        },
        {
          "internalType": "bytes",
          "name": "_data",
          "type": "bytes"
        }
      ],
      "name": "safeTransferFrom",
      "outputs": [],
      "stateMutability": "nonpayable",
      "type": "function"
    },
    {
      "inputs": [
        {
          "internalType": "address",
          "name": "operator",
          "type": "address"
        },
        {
          "internalType": "bool",
          "name": "_approved",
          "type": "bool"
        }
      ],
      "name": "setApprovalForAll",
      "outputs": [],
      "stateMutability": "nonpayable",
      "type": "function"
    },
    {
      "inputs": [],
      "name": "symbol",
      "outputs": [
        {
          "internalType": "string",
          "name": "",
          "type": "string"
        }
      ],
      "stateMutability": "view",
      "type": "function"
    },
    {
      "inputs": [
        {
          "internalType": "uint256",
          "name": "tokenId",
          "type": "uint256"
        }
      ],
      "name": "tokenURI",
      "outputs": [
        {
          "internalType": "string",
          "name": "",
          "type": "string"
        }
      ],
      "stateMutability": "view",
      "type": "function"
    },
    {
      "inputs": [
        {
          "internalType": "address",
          "name": "from",
          "type": "address"
        },
        {
          "internalType": "address",
          "name": "to",
          "type": "address"
        },
        {
          "internalType": "uint256",
          "name": "tokenId",
          "type": "uint256"
        }
      ],
      "name": "transferFrom",
      "outputs": [],
      "stateMutability": "nonpayable",
      "type": "function"
    }
  ],
  "bytecode": "0x60806040523480156200001157600080fd5b5060405162002f4438038062002f44833981016040819052620000349162000672565b620000746040518060400160405280601281526020017122a9219b99189031b7b739ba393ab1ba37b960711b815250620000d960201b620006e31760201c565b6200009e6200008d6200012760201b620007751760201c565b6200015d60201b620007a31760201c565b620000d0838383620000ba6200021c60201b6200084b1760201c565b6200024c60201b6200087917909392919060201c565b5050506200079a565b6200012481604051602401620000f0919062000703565b60408051601f198184030181529190526020810180516001600160e01b0390811663104c13eb60e21b17909152620002eb16565b50565b6000806200015760017fddf3ee18ae6d688373c219468f8be446e7ae82215f4779d821c7ea5e8c13c0c162000738565b92915050565b6200019d60405180604001604052806012815260200171115490cdcc8c54dd1bdc9859d9481a5b9a5d60721b815250620000d960201b620006e31760201c565b620001e4620001ce60017ffddcdbf8ca7eb362a678daf3643ce3cf98ebf69ac314d25d376d5aeabd2f533262000738565b60001b60016200030c60201b620008fc1760201c565b620001246380ac58cd60e01b6001620002076200038360201b620009711760201c565b620003b360201b6200099f179092919060201c565b6000806200015760017f5f5773833f4966721eb3773ed87c7208ea74d78f0d94de1d8074345cac67333f62000738565b6200027d620001ce60017fdf2ee7965c9504dc84db8f7759fc283282800c5a2fa3704c9f07f446b3b40a3f62000738565b620002ad8383620002986200043d60201b62000a8f1760201c565b6200046d60201b62000abd179092919060201c565b8051620002c19085906020840190620004f6565b50620002e5635b5e139f60e01b6001620002076200038360201b620009711760201c565b50505050565b80516a636f6e736f6c652e6c6f67602083016000808483855afa5050505050565b60006200032483620004f360201b62000b421760201c565b9050818160000154106200037f5760405162461bcd60e51b815260206004820152601860248201527f53746f726167653a2076657273696f6e2072656163686564000000000000000060448201526064015b60405180910390fd5b5550565b6000806200015760017f7180ffa89c91cf90d6c56dacabfc69bc5e36f3099d7eed2f5cc12c5dba016fe062000738565b6001600160e01b031980831690036200040f5760405162461bcd60e51b815260206004820152601f60248201527f496e74657266616365446574656374696f6e3a2077726f6e672076616c756500604482015260640162000376565b6001600160e01b03199190911660009081526020929092526040909120805460ff1916911515919091179055565b6000806200015760017f9c4269c0f9f430d98876ffe9767fbf3f3232ea91a549beb549e5329532520eb362000738565b6200049e620001ce60017fa057eeb6560fae2987973d3bf40b89e6da66dd0b6aadac05dc6b5b0d7a8d455762000738565b8151620004b29084906020850190620004f6565b508051620004ca9060018501906020840190620004f6565b50620004ee635b5e139f60e01b6001620002076200038360201b620009711760201c565b505050565b90565b82805462000504906200075e565b90600052602060002090601f01602090048101928262000528576000855562000573565b82601f106200054357805160ff191683800117855562000573565b8280016001018555821562000573579182015b828111156200057357825182559160200191906001019062000556565b506200058192915062000585565b5090565b5b8082111562000581576000815560010162000586565b634e487b7160e01b600052604160045260246000fd5b60005b83811015620005cf578181015183820152602001620005b5565b83811115620002e55750506000910152565b600082601f830112620005f357600080fd5b81516001600160401b03808211156200061057620006106200059c565b604051601f8301601f19908116603f011681019082821181831017156200063b576200063b6200059c565b816040528381528660208588010111156200065557600080fd5b62000668846020830160208901620005b2565b9695505050505050565b6000806000606084860312156200068857600080fd5b83516001600160401b0380821115620006a057600080fd5b620006ae87838801620005e1565b94506020860151915080821115620006c557600080fd5b620006d387838801620005e1565b93506040860151915080821115620006ea57600080fd5b50620006f986828701620005e1565b9150509250925092565b602081526000825180602084015262000724816040850160208701620005b2565b601f01601f19169190910160400192915050565b6000828210156200075957634e487b7160e01b600052601160045260246000fd5b500390565b600181811c908216806200077357607f821691505b6020821081036200079457634e487b7160e01b600052602260045260246000fd5b50919050565b61279a80620007aa6000396000f3fe608060405234801561001057600080fd5b50600436106101365760003560e01c806379cc6790116100b2578063b88d4fde11610081578063e985e9c511610066578063e985e9c51461028d578063f2472965146102b0578063f3993d11146102c357600080fd5b8063b88d4fde14610267578063c87b56dd1461027a57600080fd5b806379cc6790146102265780638832e6e31461023957806395d89b411461024c578063a22cb4651461025457600080fd5b806340c10f19116101095780634684d7e9116100ee5780634684d7e9146101df5780636352211e146101f257806370a082311461020557600080fd5b806340c10f19146101b957806342842e0e146101cc57600080fd5b806306fdde031461013b578063081812fc14610159578063095ea7b31461019157806323b872dd146101a6575b600080fd5b6101436102d6565b6040516101509190612008565b60405180910390f35b61016c610167366004612022565b61036e565b60405173ffffffffffffffffffffffffffffffffffffffff9091168152602001610150565b6101a461019f366004612064565b610388565b005b6101a46101b436600461208e565b610425565b6101a46101c7366004612064565b610442565b6101a46101da36600461208e565b61046c565b6101a46101ed366004612116565b610484565b61016c610200366004612022565b6104cc565b610218610213366004612169565b6104ea565b604051908152602001610150565b6101a4610234366004612064565b610523565b6101a4610247366004612184565b610539565b610143610588565b6101a461026236600461220b565b6105a0565b6101a4610275366004612276565b6105b6565b610143610288366004612022565b6105d0565b6102a061029b366004612370565b61060a565b6040519015158152602001610150565b6101a46102be366004612116565b61064d565b6101a46102d13660046123a3565b610697565b60606102e0610a8f565b80546102eb90612404565b80601f016020809104026020016040519081016040528092919081815260200182805461031790612404565b80156103645780601f1061033957610100808354040283529160200191610364565b820191906000526020600020905b81548152906001019060200180831161034757829003601f168201915b5050505050905090565b60006103828261037c610775565b90610b45565b92915050565b6103c66040518060400160405280601281526020017f4552433732314261736520617070726f766500000000000000000000000000008152506106e3565b61040b6040518060400160405280600c81526020017f5f6d736753656e646572282900000000000000000000000000000000000000008152506104063390565b610c28565b610421338383610419610775565b929190610cb9565b5050565b61043d33848484610434610775565b93929190610f75565b505050565b610421338383604051806020016040528060008152506000610462610775565b9493929190610f9b565b61043d3384848461047b610775565b939291906110a8565b61043d838383808060200260200160405190810160405280939291908181526020018383602002808284376000920191909152506104c59250610775915050565b91906110c7565b60006104d6610775565b600092835260010160205250604090205490565b60006104f4610775565b73ffffffffffffffffffffffffffffffffffffffff909216600090815260029290920160205250604090205490565b610421338383610531610775565b929190611214565b61058233858585858080601f0160208091040260200160405190810160405280939291908181526020018383808284376000920191909152506001925061046291506107759050565b50505050565b6060610592610a8f565b60010180546102eb90612404565b6104213383836105ae610775565b92919061127e565b61058233858585856105c6610775565b94939291906113aa565b60606105da61084b565b6105e3836113ba565b6040516020016105f4929190612473565b6040516020818303038152906040529050919050565b6000610614610775565b73ffffffffffffffffffffffffffffffffffffffff93841660009081526020918252604080822094909516815292905250205460ff1690565b61043d338484848080602002602001604051908101604052809392919081815260200183836020028082843760009201919091525061068f9250610775915050565b929190611508565b6105823385858585808060200260200160405190810160405280939291908181526020018383602002808284376000920191909152506106da9250610775915050565b939291906115f2565b610772816040516024016106f79190612008565b604080517fffffffffffffffffffffffffffffffffffffffffffffffffffffffffffffffe08184030181529190526020810180517bffffffffffffffffffffffffffffffffffffffffffffffffffffffff167f41304fac00000000000000000000000000000000000000000000000000000000179052611741565b50565b60008061038260017fddf3ee18ae6d688373c219468f8be446e7ae82215f4779d821c7ea5e8c13c0c161257f565b6107e16040518060400160405280601281526020017f45524337323153746f7261676520696e697400000000000000000000000000008152506106e3565b61081661080f60017ffddcdbf8ca7eb362a678daf3643ce3cf98ebf69ac314d25d376d5aeabd2f533261257f565b60016108fc565b6107727f80ac58cd000000000000000000000000000000000000000000000000000000006001610844610971565b919061099f565b60008061038260017f5f5773833f4966721eb3773ed87c7208ea74d78f0d94de1d8074345cac67333f61257f565b6108a761080f60017fdf2ee7965c9504dc84db8f7759fc283282800c5a2fa3704c9f07f446b3b40a3f61257f565b6108bb83836108b4610a8f565b9190610abd565b80516108cd9085906020840190611ef9565b506105827f5b5e139f000000000000000000000000000000000000000000000000000000006001610844610971565b81548290821161096d576040517f08c379a000000000000000000000000000000000000000000000000000000000815260206004820152601860248201527f53746f726167653a2076657273696f6e2072656163686564000000000000000060448201526064015b60405180910390fd5b5550565b60008061038260017f7180ffa89c91cf90d6c56dacabfc69bc5e36f3099d7eed2f5cc12c5dba016fe061257f565b7fffffffff000000000000000000000000000000000000000000000000000000008083169003610a2b576040517f08c379a000000000000000000000000000000000000000000000000000000000815260206004820152601f60248201527f496e74657266616365446574656374696f6e3a2077726f6e672076616c7565006044820152606401610964565b7fffffffff00000000000000000000000000000000000000000000000000000000919091166000908152602092909252604090912080547fffffffffffffffffffffffffffffffffffffffffffffffffffffffffffffff0016911515919091179055565b60008061038260017f9c4269c0f9f430d98876ffe9767fbf3f3232ea91a549beb549e5329532520eb361257f565b610aeb61080f60017fa057eeb6560fae2987973d3bf40b89e6da66dd0b6aadac05dc6b5b0d7a8d455761257f565b8151610afd9084906020850190611ef9565b508051610b139060018501906020840190611ef9565b5061043d7f5b5e139f000000000000000000000000000000000000000000000000000000006001610844610971565b90565b600081815260018301602052604081205473ffffffffffffffffffffffffffffffffffffffff8116610bd3576040517f08c379a000000000000000000000000000000000000000000000000000000000815260206004820152601860248201527f4552433732313a206e6f6e2d6578697374696e67204e465400000000000000006044820152606401610964565b74010000000000000000000000000000000000000000811615610c1e575050600081815260038301602052604090205473ffffffffffffffffffffffffffffffffffffffff16610382565b6000915050610382565b6104218282604051602401610c3e929190612596565b604080517fffffffffffffffffffffffffffffffffffffffffffffffffffffffffffffffe08184030181529190526020810180517bffffffffffffffffffffffffffffffffffffffffffffffffffffffff167f319af33300000000000000000000000000000000000000000000000000000000179052611741565b600081815260018501602052604081205490819003610d34576040517f08c379a000000000000000000000000000000000000000000000000000000000815260206004820152601860248201527f4552433732313a206e6f6e2d6578697374696e67204e465400000000000000006044820152606401610964565b8073ffffffffffffffffffffffffffffffffffffffff80821690851603610db7576040517f08c379a000000000000000000000000000000000000000000000000000000000815260206004820152601560248201527f4552433732313a2073656c662d617070726f76616c00000000000000000000006044820152606401610964565b610dc2868287611762565b610e28576040517f08c379a000000000000000000000000000000000000000000000000000000000815260206004820152601b60248201527f4552433732313a206e6f6e2d617070726f7665642073656e64657200000000006044820152606401610964565b73ffffffffffffffffffffffffffffffffffffffff8416610e8f5774010000000000000000000000000000000000000000821615610e8a576000838152600187016020526040902073ffffffffffffffffffffffffffffffffffffffff821690555b610f12565b740100000000000000000000000000000000000000008217808314610ec257600084815260018801602052604090208190555b506000838152600387016020526040902080547fffffffffffffffffffffffff00000000000000000000000000000000000000001673ffffffffffffffffffffffffffffffffffffffff86161790555b828473ffffffffffffffffffffffffffffffffffffffff168273ffffffffffffffffffffffffffffffffffffffff167f8c5be1e5ebec7d5bd14f71427d1e84f3dd0314c0f7b2291e5b200ac8c7c3b92560405160405180910390a4505050505050565b610f9485858585856040518060200160405280600081525060006117d6565b5050505050565b73ffffffffffffffffffffffffffffffffffffffff8416611018576040517f08c379a000000000000000000000000000000000000000000000000000000000815260206004820152601460248201527f4552433732313a206d696e7420746f207a65726f0000000000000000000000006044820152606401610964565b611025868585600061190c565b604051839073ffffffffffffffffffffffffffffffffffffffff8616906000907fddf252ad1be2c89b69c2b068fc378daa952ba7f163c4a11628f55a4df523b3ef908290a480801561108d575073ffffffffffffffffffffffffffffffffffffffff84163b15155b156110a0576110a08560008686866119f1565b505050505050565b610f9485858585856040518060200160405280600081525060016117d6565b73ffffffffffffffffffffffffffffffffffffffff8216611144576040517f08c379a000000000000000000000000000000000000000000000000000000000815260206004820152601460248201527f4552433732313a206d696e7420746f207a65726f0000000000000000000000006044820152606401610964565b805160005b8181146111d1576000838281518110611164576111646125ce565b6020026020010151905061117b868683600161190c565b604051819073ffffffffffffffffffffffffffffffffffffffff8716906000907fddf252ad1be2c89b69c2b068fc378daa952ba7f163c4a11628f55a4df523b3ef908290a4506111ca816125fd565b9050611149565b5073ffffffffffffffffffffffffffffffffffffffff8316600090815260028501602052604081208054839290611209908490612635565b909155505050505050565b6000611221858486611762565b905061123285858585856000611b17565b604051829060009073ffffffffffffffffffffffffffffffffffffffff8616907fddf252ad1be2c89b69c2b068fc378daa952ba7f163c4a11628f55a4df523b3ef908390a45050505050565b8273ffffffffffffffffffffffffffffffffffffffff168273ffffffffffffffffffffffffffffffffffffffff1603611313576040517f08c379a000000000000000000000000000000000000000000000000000000000815260206004820152601560248201527f4552433732313a2073656c662d617070726f76616c00000000000000000000006044820152606401610964565b73ffffffffffffffffffffffffffffffffffffffff8381166000818152602087815260408083209487168084529482529182902080547fffffffffffffffffffffffffffffffffffffffffffffffffffffffffffffff001686151590811790915591519182527f17307eab39ab6107e8899845ad3d59bd9653f200f220920489ca2b5937696c31910160405180910390a350505050565b6110a086868686868660016117d6565b6060816000036113fd57505060408051808201909152600181527f3000000000000000000000000000000000000000000000000000000000000000602082015290565b8160005b81156114275780611411816125fd565b91506114209050600a8361267c565b9150611401565b60008167ffffffffffffffff81111561144257611442612247565b6040519080825280601f01601f19166020018201604052801561146c576020820181803683370190505b509050600061147c60018461257f565b90508593505b83156114ff57611493600a85612690565b61149e906030612635565b60f81b82826114ac816126a4565b9350815181106114be576114be6125ce565b60200101907effffffffffffffffffffffffffffffffffffffffffffffffffffffffffffff1916908160001a9053506114f8600a8561267c565b9350611482565b50949350505050565b6000611515858486611762565b825190915060005b8181146115a7576000848281518110611538576115386125ce565b6020026020010151905061155188888884886001611b17565b604051819060009073ffffffffffffffffffffffffffffffffffffffff8916907fddf252ad1be2c89b69c2b068fc378daa952ba7f163c4a11628f55a4df523b3ef908390a4506115a0816125fd565b905061151d565b5080156110a05773ffffffffffffffffffffffffffffffffffffffff84166000908152600287016020526040812080548392906115e590849061257f565b9091555050505050505050565b73ffffffffffffffffffffffffffffffffffffffff821661166f576040517f08c379a000000000000000000000000000000000000000000000000000000000815260206004820152601860248201527f4552433732313a207472616e7366657220746f207a65726f00000000000000006044820152606401610964565b600061167c868587611762565b825190915060005b81811461172557600084828151811061169f5761169f6125ce565b602002602001015190506116b98989898985896001611cd0565b808673ffffffffffffffffffffffffffffffffffffffff168873ffffffffffffffffffffffffffffffffffffffff167fddf252ad1be2c89b69c2b068fc378daa952ba7f163c4a11628f55a4df523b3ef60405160405180910390a45061171e816125fd565b9050611684565b5080156117385761173887868684611e53565b50505050505050565b80516a636f6e736f6c652e6c6f67602083016000808483855afa5050505050565b60008173ffffffffffffffffffffffffffffffffffffffff168373ffffffffffffffffffffffffffffffffffffffff1614806117ce575073ffffffffffffffffffffffffffffffffffffffff8084166000908152602086815260408083209386168352929052205460ff165b949350505050565b73ffffffffffffffffffffffffffffffffffffffff8416611853576040517f08c379a000000000000000000000000000000000000000000000000000000000815260206004820152601860248201527f4552433732313a207472616e7366657220746f207a65726f00000000000000006044820152606401610964565b6000611860888789611762565b90506118728888888888866000611cd0565b838573ffffffffffffffffffffffffffffffffffffffff168773ffffffffffffffffffffffffffffffffffffffff167fddf252ad1be2c89b69c2b068fc378daa952ba7f163c4a11628f55a4df523b3ef60405160405180910390a48180156118f0575073ffffffffffffffffffffffffffffffffffffffff85163b15155b156119025761190287878787876119f1565b5050505050505050565b600082815260018501602052604090205415611984576040517f08c379a000000000000000000000000000000000000000000000000000000000815260206004820152601a60248201527f4552433732313a206578697374696e672f6275726e74204e46540000000000006044820152606401610964565b6000828152600185016020526040902073ffffffffffffffffffffffffffffffffffffffff84169055806105825773ffffffffffffffffffffffffffffffffffffffff83166000908152600285016020526040812080549091906119e7906125fd565b9091555050505050565b6040517f150b7a02000000000000000000000000000000000000000000000000000000008082529073ffffffffffffffffffffffffffffffffffffffff85169063150b7a0290611a4b9089908990889088906004016126d9565b6020604051808303816000875af1158015611a6a573d6000803e3d6000fd5b505050506040513d601f19601f82011682018060405250810190611a8e9190612722565b7fffffffff000000000000000000000000000000000000000000000000000000001614610f94576040517f08c379a000000000000000000000000000000000000000000000000000000000815260206004820152601860248201527f4552433732313a207472616e73666572207265667573656400000000000000006044820152606401610964565b600083815260018701602052604090205473ffffffffffffffffffffffffffffffffffffffff85811690821614611baa576040517f08c379a000000000000000000000000000000000000000000000000000000000815260206004820152601560248201527f4552433732313a206e6f6e2d6f776e6564204e465400000000000000000000006044820152606401610964565b82611c635774010000000000000000000000000000000000000000811615801590611bfd5750600084815260038801602052604090205473ffffffffffffffffffffffffffffffffffffffff8781169116145b611c63576040517f08c379a000000000000000000000000000000000000000000000000000000000815260206004820152601b60248201527f4552433732313a206e6f6e2d617070726f7665642073656e64657200000000006044820152606401610964565b600084815260018801602052604090207fdead0000000000000000000000000000000000000000000000000000000000009055816117385773ffffffffffffffffffffffffffffffffffffffff85166000908152600288016020526040812080549091906115e5906126a4565b600083815260018801602052604090205473ffffffffffffffffffffffffffffffffffffffff86811690821614611d63576040517f08c379a000000000000000000000000000000000000000000000000000000000815260206004820152601560248201527f4552433732313a206e6f6e2d6f776e6564204e465400000000000000000000006044820152606401610964565b82611e1c5774010000000000000000000000000000000000000000811615801590611db65750600084815260038901602052604090205473ffffffffffffffffffffffffffffffffffffffff8881169116145b611e1c576040517f08c379a000000000000000000000000000000000000000000000000000000000815260206004820152601b60248201527f4552433732313a206e6f6e2d617070726f7665642073656e64657200000000006044820152606401610964565b6000848152600189016020526040902073ffffffffffffffffffffffffffffffffffffffff86169055816119025761190288878760015b8173ffffffffffffffffffffffffffffffffffffffff168373ffffffffffffffffffffffffffffffffffffffff16146105825773ffffffffffffffffffffffffffffffffffffffff8316600090815260028501602052604081208054839290611ebd90849061257f565b909155505073ffffffffffffffffffffffffffffffffffffffff8216600090815260028501602052604081208054839290611209908490612635565b828054611f0590612404565b90600052602060002090601f016020900481019282611f275760008555611f6d565b82601f10611f4057805160ff1916838001178555611f6d565b82800160010185558215611f6d579182015b82811115611f6d578251825591602001919060010190611f52565b50611f79929150611f7d565b5090565b5b80821115611f795760008155600101611f7e565b60005b83811015611fad578181015183820152602001611f95565b838111156105825750506000910152565b60008151808452611fd6816020860160208601611f92565b601f017fffffffffffffffffffffffffffffffffffffffffffffffffffffffffffffffe0169290920160200192915050565b60208152600061201b6020830184611fbe565b9392505050565b60006020828403121561203457600080fd5b5035919050565b803573ffffffffffffffffffffffffffffffffffffffff8116811461205f57600080fd5b919050565b6000806040838503121561207757600080fd5b6120808361203b565b946020939093013593505050565b6000806000606084860312156120a357600080fd5b6120ac8461203b565b92506120ba6020850161203b565b9150604084013590509250925092565b60008083601f8401126120dc57600080fd5b50813567ffffffffffffffff8111156120f457600080fd5b6020830191508360208260051b850101111561210f57600080fd5b9250929050565b60008060006040848603121561212b57600080fd5b6121348461203b565b9250602084013567ffffffffffffffff81111561215057600080fd5b61215c868287016120ca565b9497909650939450505050565b60006020828403121561217b57600080fd5b61201b8261203b565b6000806000806060858703121561219a57600080fd5b6121a38561203b565b935060208501359250604085013567ffffffffffffffff808211156121c757600080fd5b818701915087601f8301126121db57600080fd5b8135818111156121ea57600080fd5b8860208285010111156121fc57600080fd5b95989497505060200194505050565b6000806040838503121561221e57600080fd5b6122278361203b565b91506020830135801515811461223c57600080fd5b809150509250929050565b7f4e487b7100000000000000000000000000000000000000000000000000000000600052604160045260246000fd5b6000806000806080858703121561228c57600080fd5b6122958561203b565b93506122a36020860161203b565b925060408501359150606085013567ffffffffffffffff808211156122c757600080fd5b818701915087601f8301126122db57600080fd5b8135818111156122ed576122ed612247565b604051601f82017fffffffffffffffffffffffffffffffffffffffffffffffffffffffffffffffe0908116603f0116810190838211818310171561233357612333612247565b816040528281528a602084870101111561234c57600080fd5b82602086016020830137600060208483010152809550505050505092959194509250565b6000806040838503121561238357600080fd5b61238c8361203b565b915061239a6020840161203b565b90509250929050565b600080600080606085870312156123b957600080fd5b6123c28561203b565b93506123d06020860161203b565b9250604085013567ffffffffffffffff8111156123ec57600080fd5b6123f8878288016120ca565b95989497509550505050565b600181811c9082168061241857607f821691505b602082108103612451577f4e487b7100000000000000000000000000000000000000000000000000000000600052602260045260246000fd5b50919050565b60008151612469818560208601611f92565b9290920192915050565b600080845481600182811c91508083168061248f57607f831692505b602080841082036124c7577f4e487b710000000000000000000000000000000000000000000000000000000086526022600452602486fd5b8180156124db576001811461250a57612537565b7fffffffffffffffffffffffffffffffffffffffffffffffffffffffffffffff00861689528489019650612537565b60008b81526020902060005b8681101561252f5781548b820152908501908301612516565b505084890196505b5050505050506125478185612457565b95945050505050565b7f4e487b7100000000000000000000000000000000000000000000000000000000600052601160045260246000fd5b60008282101561259157612591612550565b500390565b6040815260006125a96040830185611fbe565b905073ffffffffffffffffffffffffffffffffffffffff831660208301529392505050565b7f4e487b7100000000000000000000000000000000000000000000000000000000600052603260045260246000fd5b60007fffffffffffffffffffffffffffffffffffffffffffffffffffffffffffffffff820361262e5761262e612550565b5060010190565b6000821982111561264857612648612550565b500190565b7f4e487b7100000000000000000000000000000000000000000000000000000000600052601260045260246000fd5b60008261268b5761268b61264d565b500490565b60008261269f5761269f61264d565b500690565b6000816126b3576126b3612550565b507fffffffffffffffffffffffffffffffffffffffffffffffffffffffffffffffff0190565b600073ffffffffffffffffffffffffffffffffffffffff8087168352808616602084015250836040830152608060608301526127186080830184611fbe565b9695505050505050565b60006020828403121561273457600080fd5b81517fffffffff000000000000000000000000000000000000000000000000000000008116811461201b57600080fdfea2646970667358221220635a5c415d651f6264a219a3be5fdfd9b2fc860a09c63c54bb8e7178b4f3635a64736f6c634300080d0033",
  "linkReferences": {},
  "deployedLinkReferences": {}
}