{
  "_format": "hh-sol-artifact-1",
  "contractName": "ERC721Mock",
  "sourceName": "contracts/mocks/token/ERC721/ERC721Mock.sol",
  "abi": [
    {
      "inputs": [
        {
          "internalType": "string",
          "name": "name_",
          "type": "string"
        },
        {
          "internalType": "string",
          "name": "symbol_",
          "type": "string"
        },
        {
          "internalType": "string",
          "name": "tokenURI_",
          "type": "string"
        }
      ],
      "stateMutability": "nonpayable",
      "type": "constructor"
    },
    {
      "anonymous": false,
      "inputs": [
        {
          "indexed": true,
          "internalType": "address",
          "name": "owner",
          "type": "address"
        },
        {
          "indexed": true,
          "internalType": "address",
          "name": "approved",
          "type": "address"
        },
        {
          "indexed": true,
          "internalType": "uint256",
          "name": "tokenId",
          "type": "uint256"
        }
      ],
      "name": "Approval",
      "type": "event"
    },
    {
      "anonymous": false,
      "inputs": [
        {
          "indexed": true,
          "internalType": "address",
          "name": "owner",
          "type": "address"
        },
        {
          "indexed": true,
          "internalType": "address",
          "name": "operator",
          "type": "address"
        },
        {
          "indexed": false,
          "internalType": "bool",
          "name": "approved",
          "type": "bool"
        }
      ],
      "name": "ApprovalForAll",
      "type": "event"
    },
    {
      "anonymous": false,
      "inputs": [
        {
          "indexed": true,
          "internalType": "address",
          "name": "previousOwner",
          "type": "address"
        },
        {
          "indexed": true,
          "internalType": "address",
          "name": "newOwner",
          "type": "address"
        }
      ],
      "name": "OwnershipTransferred",
      "type": "event"
    },
    {
      "anonymous": false,
      "inputs": [
        {
          "indexed": false,
          "internalType": "bytes32",
          "name": "role",
          "type": "bytes32"
        },
        {
          "indexed": false,
          "internalType": "address",
          "name": "account",
          "type": "address"
        },
        {
          "indexed": false,
          "internalType": "address",
          "name": "operator",
          "type": "address"
        }
      ],
      "name": "RoleGranted",
      "type": "event"
    },
    {
      "anonymous": false,
      "inputs": [
        {
          "indexed": false,
          "internalType": "bytes32",
          "name": "role",
          "type": "bytes32"
        },
        {
          "indexed": false,
          "internalType": "address",
          "name": "account",
          "type": "address"
        },
        {
          "indexed": false,
          "internalType": "address",
          "name": "operator",
          "type": "address"
        }
      ],
      "name": "RoleRevoked",
      "type": "event"
    },
    {
      "anonymous": false,
      "inputs": [
        {
          "indexed": true,
          "internalType": "address",
          "name": "from",
          "type": "address"
        },
        {
          "indexed": true,
          "internalType": "address",
          "name": "to",
          "type": "address"
        },
        {
          "indexed": true,
          "internalType": "uint256",
          "name": "tokenId",
          "type": "uint256"
        }
      ],
      "name": "Transfer",
      "type": "event"
    },
    {
      "inputs": [],
      "name": "MINTER_ROLE",
      "outputs": [
        {
          "internalType": "bytes32",
          "name": "",
          "type": "bytes32"
        }
      ],
      "stateMutability": "view",
      "type": "function"
    },
    {
      "inputs": [
        {
          "internalType": "address",
          "name": "to",
          "type": "address"
        },
        {
          "internalType": "uint256",
          "name": "tokenId",
          "type": "uint256"
        }
      ],
      "name": "approve",
      "outputs": [],
      "stateMutability": "nonpayable",
      "type": "function"
    },
    {
      "inputs": [
        {
          "internalType": "address",
          "name": "owner",
          "type": "address"
        }
      ],
      "name": "balanceOf",
      "outputs": [
        {
          "internalType": "uint256",
          "name": "",
          "type": "uint256"
        }
      ],
      "stateMutability": "view",
      "type": "function"
    },
    {
      "inputs": [
        {
          "internalType": "address",
          "name": "from",
          "type": "address"
        },
        {
          "internalType": "uint256[]",
          "name": "tokenIds",
          "type": "uint256[]"
        }
      ],
      "name": "batchBurnFrom",
      "outputs": [],
      "stateMutability": "nonpayable",
      "type": "function"
    },
    {
      "inputs": [
        {
          "internalType": "address",
          "name": "to",
          "type": "address"
        },
        {
          "internalType": "uint256[]",
          "name": "tokenIds",
          "type": "uint256[]"
        }
      ],
      "name": "batchMintOnce",
      "outputs": [],
      "stateMutability": "nonpayable",
      "type": "function"
    },
    {
      "inputs": [
        {
          "internalType": "address",
          "name": "from",
          "type": "address"
        },
        {
          "internalType": "address",
          "name": "to",
          "type": "address"
        },
        {
          "internalType": "uint256[]",
          "name": "tokenIds",
          "type": "uint256[]"
        }
      ],
      "name": "batchTransferFrom",
      "outputs": [],
      "stateMutability": "nonpayable",
      "type": "function"
    },
    {
      "inputs": [
        {
          "internalType": "address",
          "name": "from",
          "type": "address"
        },
        {
          "internalType": "uint256",
          "name": "tokenId",
          "type": "uint256"
        }
      ],
      "name": "burnFrom",
      "outputs": [],
      "stateMutability": "nonpayable",
      "type": "function"
    },
    {
      "inputs": [
        {
          "internalType": "uint256",
          "name": "tokenId",
          "type": "uint256"
        }
      ],
      "name": "getApproved",
      "outputs": [
        {
          "internalType": "address",
          "name": "operator",
          "type": "address"
        }
      ],
      "stateMutability": "view",
      "type": "function"
    },
    {
      "inputs": [
        {
          "internalType": "bytes32",
          "name": "role",
          "type": "bytes32"
        },
        {
          "internalType": "address",
          "name": "account",
          "type": "address"
        }
      ],
      "name": "grantRole",
      "outputs": [],
      "stateMutability": "nonpayable",
      "type": "function"
    },
    {
      "inputs": [
        {
          "internalType": "bytes32",
          "name": "role",
          "type": "bytes32"
        },
        {
          "internalType": "address",
          "name": "account",
          "type": "address"
        }
      ],
      "name": "hasRole",
      "outputs": [
        {
          "internalType": "bool",
          "name": "",
          "type": "bool"
        }
      ],
      "stateMutability": "view",
      "type": "function"
    },
    {
      "inputs": [
        {
          "internalType": "address",
          "name": "owner",
          "type": "address"
        },
        {
          "internalType": "address",
          "name": "operator",
          "type": "address"
        }
      ],
      "name": "isApprovedForAll",
      "outputs": [
        {
          "internalType": "bool",
          "name": "",
          "type": "bool"
        }
      ],
      "stateMutability": "view",
      "type": "function"
    },
    {
      "inputs": [
        {
          "internalType": "address",
          "name": "to",
          "type": "address"
        },
        {
          "internalType": "uint256",
          "name": "tokenId",
          "type": "uint256"
        }
      ],
      "name": "mintOnce",
      "outputs": [],
      "stateMutability": "nonpayable",
      "type": "function"
    },
    {
      "inputs": [],
      "name": "name",
      "outputs": [
        {
          "internalType": "string",
          "name": "",
          "type": "string"
        }
      ],
      "stateMutability": "view",
      "type": "function"
    },
    {
      "inputs": [],
      "name": "owner",
      "outputs": [
        {
          "internalType": "address",
          "name": "",
          "type": "address"
        }
      ],
      "stateMutability": "view",
      "type": "function"
    },
    {
      "inputs": [
        {
          "internalType": "uint256",
          "name": "tokenId",
          "type": "uint256"
        }
      ],
      "name": "ownerOf",
      "outputs": [
        {
          "internalType": "address",
          "name": "",
          "type": "address"
        }
      ],
      "stateMutability": "view",
      "type": "function"
    },
    {
      "inputs": [
        {
          "internalType": "bytes32",
          "name": "role",
          "type": "bytes32"
        }
      ],
      "name": "renounceRole",
      "outputs": [],
      "stateMutability": "nonpayable",
      "type": "function"
    },
    {
      "inputs": [
        {
          "internalType": "bytes32",
          "name": "role",
          "type": "bytes32"
        },
        {
          "internalType": "address",
          "name": "account",
          "type": "address"
        }
      ],
      "name": "revokeRole",
      "outputs": [],
      "stateMutability": "nonpayable",
      "type": "function"
    },
    {
      "inputs": [
        {
          "internalType": "address",
          "name": "to",
          "type": "address"
        },
        {
          "internalType": "uint256",
          "name": "tokenId",
          "type": "uint256"
        },
        {
          "internalType": "bytes",
          "name": "data",
          "type": "bytes"
        }
      ],
      "name": "safeMintOnce",
      "outputs": [],
      "stateMutability": "nonpayable",
      "type": "function"
    },
    {
      "inputs": [
        {
          "internalType": "address",
          "name": "from",
          "type": "address"
        },
        {
          "internalType": "address",
          "name": "to",
          "type": "address"
        },
        {
          "internalType": "uint256",
          "name": "tokenId",
          "type": "uint256"
        }
      ],
      "name": "safeTransferFrom",
      "outputs": [],
      "stateMutability": "nonpayable",
      "type": "function"
    },
    {
      "inputs": [
        {
          "internalType": "address",
          "name": "from",
          "type": "address"
        },
        {
          "internalType": "address",
          "name": "to",
          "type": "address"
        },
        {
          "internalType": "uint256",
          "name": "tokenId",
          "type": "uint256"
        },
        {
          "internalType": "bytes",
          "name": "_data",
          "type": "bytes"
        }
      ],
      "name": "safeTransferFrom",
      "outputs": [],
      "stateMutability": "nonpayable",
      "type": "function"
    },
    {
      "inputs": [
        {
          "internalType": "address",
          "name": "operator",
          "type": "address"
        },
        {
          "internalType": "bool",
          "name": "_approved",
          "type": "bool"
        }
      ],
      "name": "setApprovalForAll",
      "outputs": [],
      "stateMutability": "nonpayable",
      "type": "function"
    },
    {
      "inputs": [
        {
          "internalType": "bytes4",
          "name": "interfaceId",
          "type": "bytes4"
        }
      ],
      "name": "supportsInterface",
      "outputs": [
        {
          "internalType": "bool",
          "name": "",
          "type": "bool"
        }
      ],
      "stateMutability": "view",
      "type": "function"
    },
    {
      "inputs": [],
      "name": "symbol",
      "outputs": [
        {
          "internalType": "string",
          "name": "",
          "type": "string"
        }
      ],
      "stateMutability": "view",
      "type": "function"
    },
    {
      "inputs": [
        {
          "internalType": "uint256",
          "name": "tokenId",
          "type": "uint256"
        }
      ],
      "name": "tokenURI",
      "outputs": [
        {
          "internalType": "string",
          "name": "",
          "type": "string"
        }
      ],
      "stateMutability": "view",
      "type": "function"
    },
    {
      "inputs": [
        {
          "internalType": "address",
          "name": "from",
          "type": "address"
        },
        {
          "internalType": "address",
          "name": "to",
          "type": "address"
        },
        {
          "internalType": "uint256",
          "name": "tokenId",
          "type": "uint256"
        }
      ],
      "name": "transferFrom",
      "outputs": [],
      "stateMutability": "nonpayable",
      "type": "function"
    },
    {
      "inputs": [
        {
          "internalType": "address",
          "name": "newOwner",
          "type": "address"
        }
      ],
      "name": "transferOwnership",
      "outputs": [],
      "stateMutability": "nonpayable",
      "type": "function"
    }
  ],
  "bytecode": "0x60806040523480156200001157600080fd5b5060405162003ae038038062003ae083398101604081905262000034916200072e565b336200005f6200004e6200012b60201b620009af1760201c565b6200016160201b620009dd1760201c565b6200008962000078620001ce60201b62000a471760201c565b620001fe60201b62000a751760201c565b620000b781620000a36200025360201b62000acf1760201c565b6200028360201b62000afd1790919060201c565b50620000f063a745805d60e01b6001620000db620001ce60201b62000a471760201c565b6200033260201b62000be1179092919060201c565b620001228383836200010c620003c060201b62000cd11760201c565b620003f060201b62000cff17909392919060201c565b50505062000821565b6000806200015b60017fddf3ee18ae6d688373c219468f8be446e7ae82215f4779d821c7ea5e8c13c0c1620007bf565b92915050565b620001a86200019260017ffddcdbf8ca7eb362a678daf3643ce3cf98ebf69ac314d25d376d5aeabd2f5332620007bf565b60001b60016200048f60201b62000d821760201c565b620001cb6380ac58cd60e01b6001620000db620001ce60201b62000a471760201c565b50565b6000806200015b60017f7180ffa89c91cf90d6c56dacabfc69bc5e36f3099d7eed2f5cc12c5dba016fe0620007bf565b6200022f6200019260017f947245cdabe12ef4c13574b38217b361de48f57dd2dc345f43703c79bac2873d620007bf565b620001cb6301ffc9a760e01b6001836200033260201b62000be1179092919060201c565b6000806200015b60017f6a1da6973104ff7dedb9b4f5cab5830b3f4a0284ed754366cfc45568bd2d38df620007bf565b620002b46200019260017ff1e2f4de496ffe5d046d751d8ec3c329ee011c6c6a229322971a7e02a207f973620007bf565b6001600160a01b038116156200030b5781546001600160a01b0319166001600160a01b03821690811783556040516000907f8be0079c531659141344cd1fd0a4f28419497f9722a3daafe3b4186f6b6457e0908290a35b6200032e6307f5828d60e41b6001620000db620001ce60201b62000a471760201c565b5050565b6001600160e01b03198083169003620003925760405162461bcd60e51b815260206004820152601f60248201527f496e74657266616365446574656374696f6e3a2077726f6e672076616c75650060448201526064015b60405180910390fd5b6001600160e01b03199190911660009081526020929092526040909120805460ff1916911515919091179055565b6000806200015b60017f5f5773833f4966721eb3773ed87c7208ea74d78f0d94de1d8074345cac67333f620007bf565b620004216200019260017fdf2ee7965c9504dc84db8f7759fc283282800c5a2fa3704c9f07f446b3b40a3f620007bf565b6200045183836200043c6200050260201b62000df21760201c565b6200053260201b62000e20179092919060201c565b8051620004659085906020840190620005bb565b5062000489635b5e139f60e01b6001620000db620001ce60201b62000a471760201c565b50505050565b6000620004a783620005b860201b62000ea51760201c565b905081816000015410620004fe5760405162461bcd60e51b815260206004820152601860248201527f53746f726167653a2076657273696f6e20726561636865640000000000000000604482015260640162000389565b5550565b6000806200015b60017f9c4269c0f9f430d98876ffe9767fbf3f3232ea91a549beb549e5329532520eb3620007bf565b620005636200019260017fa057eeb6560fae2987973d3bf40b89e6da66dd0b6aadac05dc6b5b0d7a8d4557620007bf565b8151620005779084906020850190620005bb565b5080516200058f9060018501906020840190620005bb565b50620005b3635b5e139f60e01b6001620000db620001ce60201b62000a471760201c565b505050565b90565b828054620005c990620007e5565b90600052602060002090601f016020900481019282620005ed576000855562000638565b82601f106200060857805160ff191683800117855562000638565b8280016001018555821562000638579182015b82811115620006385782518255916020019190600101906200061b565b50620006469291506200064a565b5090565b5b808211156200064657600081556001016200064b565b634e487b7160e01b600052604160045260246000fd5b600082601f8301126200068957600080fd5b81516001600160401b0380821115620006a657620006a662000661565b604051601f8301601f19908116603f01168101908282118183101715620006d157620006d162000661565b81604052838152602092508683858801011115620006ee57600080fd5b600091505b83821015620007125785820183015181830184015290820190620006f3565b83821115620007245760008385830101525b9695505050505050565b6000806000606084860312156200074457600080fd5b83516001600160401b03808211156200075c57600080fd5b6200076a8783880162000677565b945060208601519150808211156200078157600080fd5b6200078f8783880162000677565b93506040860151915080821115620007a657600080fd5b50620007b58682870162000677565b9150509250925092565b600082821015620007e057634e487b7160e01b600052601160045260246000fd5b500390565b600181811c90821680620007fa57607f821691505b6020821081036200081b57634e487b7160e01b600052602260045260246000fd5b50919050565b6132af80620008316000396000f3fe608060405234801561001057600080fd5b50600436106101ae5760003560e01c806395d89b41116100ee578063d547741f11610097578063f247296511610071578063f24729651461039f578063f2fde38b146103b2578063f3993d11146103c5578063f598136a146103d857600080fd5b8063d547741f14610366578063e2366d3b14610379578063e985e9c51461038c57600080fd5b8063b88d4fde116100c8578063b88d4fde14610319578063c87b56dd1461032c578063d53913931461033f57600080fd5b806395d89b41146102eb578063a22cb465146102f3578063b0ebfe0c1461030657600080fd5b806342842e0e1161015b57806379cc67901161013557806379cc6790146102aa5780638bb9c5bf146102bd5780638da5cb5b146102d057806391d14854146102d857600080fd5b806342842e0e146102635780636352211e1461027657806370a082311461028957600080fd5b8063095ea7b31161018c578063095ea7b31461022857806323b872dd1461023d5780632f2ff15d1461025057600080fd5b806301ffc9a7146101b357806306fdde03146101db578063081812fc146101f0575b600080fd5b6101c66101c1366004612a5f565b6103eb565b60405190151581526020015b60405180910390f35b6101e3610438565b6040516101d29190612af2565b6102036101fe366004612b05565b6104d0565b60405173ffffffffffffffffffffffffffffffffffffffff90911681526020016101d2565b61023b610236366004612b47565b6104e4565b005b61023b61024b366004612b71565b6104fe565b61023b61025e366004612bad565b61051b565b61023b610271366004612b71565b610544565b610203610284366004612b05565b61055c565b61029c610297366004612bd9565b6105fe565b6040519081526020016101d2565b61023b6102b8366004612b47565b6106b4565b61023b6102cb366004612b05565b6106ca565b6102036106e1565b6101c66102e6366004612bad565b610707565b6101e3610752565b61023b610301366004612bf4565b61076a565b61023b610314366004612c30565b610780565b61023b610327366004612ce6565b6107d9565b6101e361033a366004612b05565b6107f3565b61029c7f6d696e746572000000000000000000000000000000000000000000000000000081565b61023b610374366004612bad565b61082d565b61023b610387366004612e2c565b610850565b6101c661039a366004612e7f565b610898565b61023b6103ad366004612e2c565b6108db565b61023b6103c0366004612bd9565b610925565b61023b6103d3366004612ea9565b610939565b61023b6103e6366004612b47565b610985565b6000610432826103f9610a47565b907fffffffff00000000000000000000000000000000000000000000000000000000166000908152602091909152604090205460ff1690565b92915050565b6060610442610df2565b805461044d90612f0a565b80601f016020809104026020016040519081016040528092919081815260200182805461047990612f0a565b80156104c65780601f1061049b576101008083540402835291602001916104c6565b820191906000526020600020905b8154815290600101906020018083116104a957829003601f168201915b5050505050905090565b6000610432826104de6109af565b90610ea8565b6104fa3383836104f26109af565b929190610f8b565b5050565b6105163384848461050d6109af565b93929190611247565b505050565b3361052e81610528610acf565b9061126d565b61051683838361053c6112f0565b92919061131e565b610516338484846105536109af565b939291906113f4565b6000806105676109af565b60008481526001919091016020526040902054905073ffffffffffffffffffffffffffffffffffffffff8116610432576040517f08c379a000000000000000000000000000000000000000000000000000000000815260206004820152601860248201527f4552433732313a206e6f6e2d6578697374696e67204e4654000000000000000060448201526064015b60405180910390fd5b600073ffffffffffffffffffffffffffffffffffffffff821661067d576040517f08c379a000000000000000000000000000000000000000000000000000000000815260206004820152601460248201527f4552433732313a207a65726f206164647265737300000000000000000000000060448201526064016105f5565b6106856109af565b73ffffffffffffffffffffffffffffffffffffffff909216600090815260029290920160205250604090205490565b6104fa3383836106c26109af565b929190611413565b6106de33826106d76112f0565b919061147d565b50565b60006106eb610acf565b5473ffffffffffffffffffffffffffffffffffffffff16919050565b600061074b83836107166112f0565b60009283526020908152604080842073ffffffffffffffffffffffffffffffffffffffff909316845291905290205460ff1690565b9392505050565b606061075c610df2565b600101805461044d90612f0a565b6104fa3383836107786109af565b929190611521565b6107d333858585858080601f016020809104026020016040519081016040528093929190818152602001838380828437600092019190915250600192506107c991506109af9050565b949392919061164d565b50505050565b6107d333858585856107e96109af565b94939291906117f6565b60606107fd610cd1565b6108068361180e565b604051602001610817929190612f79565b6040516020818303038152906040529050919050565b3361083a81610528610acf565b6105168383836108486112f0565b92919061195c565b6105168383838080602002602001604051908101604052809392919081815260200183836020028082843760009201919091525061089192506109af915050565b9190611a26565b60006108a26109af565b73ffffffffffffffffffffffffffffffffffffffff93841660009081526020918252604080822094909516815292905250205460ff1690565b610516338484848080602002602001604051908101604052809392919081815260200183836020028082843760009201919091525061091d92506109af915050565b929190611b73565b6106de3382610932610acf565b9190611c5d565b6107d333858585858080602002602001604051908101604052809392919081815260200183836020028082843760009201919091525061097c92506109af915050565b93929190611d89565b6104fa3383836040518060200160405280600081525060006109a56109af565b9493929190611ecf565b60008061043260017fddf3ee18ae6d688373c219468f8be446e7ae82215f4779d821c7ea5e8c13c0c1613085565b610a12610a0b60017ffddcdbf8ca7eb362a678daf3643ce3cf98ebf69ac314d25d376d5aeabd2f5332613085565b6001610d82565b6106de7f80ac58cd000000000000000000000000000000000000000000000000000000006001610a40610a47565b9190610be1565b60008061043260017f7180ffa89c91cf90d6c56dacabfc69bc5e36f3099d7eed2f5cc12c5dba016fe0613085565b610aa3610a0b60017f947245cdabe12ef4c13574b38217b361de48f57dd2dc345f43703c79bac2873d613085565b6106de817f01ffc9a7000000000000000000000000000000000000000000000000000000006001610be1565b60008061043260017f6a1da6973104ff7dedb9b4f5cab5830b3f4a0284ed754366cfc45568bd2d38df613085565b610b2b610a0b60017ff1e2f4de496ffe5d046d751d8ec3c329ee011c6c6a229322971a7e02a207f973613085565b73ffffffffffffffffffffffffffffffffffffffff811615610bb35781547fffffffffffffffffffffffff00000000000000000000000000000000000000001673ffffffffffffffffffffffffffffffffffffffff821690811783556040516000907f8be0079c531659141344cd1fd0a4f28419497f9722a3daafe3b4186f6b6457e0908290a35b6104fa7f7f5828d0000000000000000000000000000000000000000000000000000000006001610a40610a47565b7fffffffff000000000000000000000000000000000000000000000000000000008083169003610c6d576040517f08c379a000000000000000000000000000000000000000000000000000000000815260206004820152601f60248201527f496e74657266616365446574656374696f6e3a2077726f6e672076616c75650060448201526064016105f5565b7fffffffff00000000000000000000000000000000000000000000000000000000919091166000908152602092909252604090912080547fffffffffffffffffffffffffffffffffffffffffffffffffffffffffffffff0016911515919091179055565b60008061043260017f5f5773833f4966721eb3773ed87c7208ea74d78f0d94de1d8074345cac67333f613085565b610d2d610a0b60017fdf2ee7965c9504dc84db8f7759fc283282800c5a2fa3704c9f07f446b3b40a3f613085565b610d418383610d3a610df2565b9190610e20565b8051610d539085906020840190612998565b506107d37f5b5e139f000000000000000000000000000000000000000000000000000000006001610a40610a47565b815482908211610dee576040517f08c379a000000000000000000000000000000000000000000000000000000000815260206004820152601860248201527f53746f726167653a2076657273696f6e2072656163686564000000000000000060448201526064016105f5565b5550565b60008061043260017f9c4269c0f9f430d98876ffe9767fbf3f3232ea91a549beb549e5329532520eb3613085565b610e4e610a0b60017fa057eeb6560fae2987973d3bf40b89e6da66dd0b6aadac05dc6b5b0d7a8d4557613085565b8151610e609084906020850190612998565b508051610e769060018501906020840190612998565b506105167f5b5e139f000000000000000000000000000000000000000000000000000000006001610a40610a47565b90565b600081815260018301602052604081205473ffffffffffffffffffffffffffffffffffffffff8116610f36576040517f08c379a000000000000000000000000000000000000000000000000000000000815260206004820152601860248201527f4552433732313a206e6f6e2d6578697374696e67204e4654000000000000000060448201526064016105f5565b74010000000000000000000000000000000000000000811615610f81575050600081815260038301602052604090205473ffffffffffffffffffffffffffffffffffffffff16610432565b6000915050610432565b600081815260018501602052604081205490819003611006576040517f08c379a000000000000000000000000000000000000000000000000000000000815260206004820152601860248201527f4552433732313a206e6f6e2d6578697374696e67204e4654000000000000000060448201526064016105f5565b8073ffffffffffffffffffffffffffffffffffffffff80821690851603611089576040517f08c379a000000000000000000000000000000000000000000000000000000000815260206004820152601560248201527f4552433732313a2073656c662d617070726f76616c000000000000000000000060448201526064016105f5565b611094868287611fd4565b6110fa576040517f08c379a000000000000000000000000000000000000000000000000000000000815260206004820152601b60248201527f4552433732313a206e6f6e2d617070726f7665642073656e646572000000000060448201526064016105f5565b73ffffffffffffffffffffffffffffffffffffffff8416611161577401000000000000000000000000000000000000000082161561115c576000838152600187016020526040902073ffffffffffffffffffffffffffffffffffffffff821690555b6111e4565b74010000000000000000000000000000000000000000821780831461119457600084815260018801602052604090208190555b506000838152600387016020526040902080547fffffffffffffffffffffffff00000000000000000000000000000000000000001673ffffffffffffffffffffffffffffffffffffffff86161790555b828473ffffffffffffffffffffffffffffffffffffffff168273ffffffffffffffffffffffffffffffffffffffff167f8c5be1e5ebec7d5bd14f71427d1e84f3dd0314c0f7b2291e5b200ac8c7c3b92560405160405180910390a4505050505050565b6112668585858585604051806020016040528060008152506000612048565b5050505050565b815473ffffffffffffffffffffffffffffffffffffffff8281169116146104fa576040517f08c379a000000000000000000000000000000000000000000000000000000000815260206004820152601860248201527f4f776e6572736869703a206e6f7420746865206f776e6572000000000000000060448201526064016105f5565b60008061043260017fc8a24fbf085abf1493c5f225802d03df3ece6cd19f18edff36c56d854cddac9e613085565b60008381526020858152604080832073ffffffffffffffffffffffffffffffffffffffff8616845290915290205460ff166107d35760008381526020858152604080832073ffffffffffffffffffffffffffffffffffffffff8681168086529184529382902080547fffffffffffffffffffffffffffffffffffffffffffffffffffffffffffffff00166001179055815187815292830152918316918101919091527f2f8788117e7eff1d82e926ec794901d17c78024a50270940304540a733656f0d906060015b60405180910390a150505050565b6112668585858585604051806020016040528060008152506001612048565b6000611420858486611fd4565b90506114318585858585600061217e565b604051829060009073ffffffffffffffffffffffffffffffffffffffff8616907fddf252ad1be2c89b69c2b068fc378daa952ba7f163c4a11628f55a4df523b3ef908390a45050505050565b611488838284612337565b60008181526020848152604080832073ffffffffffffffffffffffffffffffffffffffff86168085529083529281902080547fffffffffffffffffffffffffffffffffffffffffffffffffffffffffffffff0016905580518481529182018390528101919091527ff6391f5c32d9c69d2a47ea670b442974b53935d1edc7fd64eb21e047a839171b9060600160405180910390a1505050565b8273ffffffffffffffffffffffffffffffffffffffff168273ffffffffffffffffffffffffffffffffffffffff16036115b6576040517f08c379a000000000000000000000000000000000000000000000000000000000815260206004820152601560248201527f4552433732313a2073656c662d617070726f76616c000000000000000000000060448201526064016105f5565b73ffffffffffffffffffffffffffffffffffffffff8381166000818152602087815260408083209487168084529482529182902080547fffffffffffffffffffffffffffffffffffffffffffffffffffffffffffffff001686151590811790915591519182527f17307eab39ab6107e8899845ad3d59bd9653f200f220920489ca2b5937696c31910160405180910390a350505050565b600083815260018701602052604090205473ffffffffffffffffffffffffffffffffffffffff8116156116dc576040517f08c379a000000000000000000000000000000000000000000000000000000000815260206004820152601460248201527f4552433732313a206578697374696e67204e465400000000000000000000000060448201526064016105f5565b7fdead0000000000000000000000000000000000000000000000000000000000008103611765576040517f08c379a000000000000000000000000000000000000000000000000000000000815260206004820152601160248201527f4552433732313a206275726e74204e465400000000000000000000000000000060448201526064016105f5565b61177287868660006123e3565b604051849073ffffffffffffffffffffffffffffffffffffffff8716906000907fddf252ad1be2c89b69c2b068fc378daa952ba7f163c4a11628f55a4df523b3ef908290a48180156117da575073ffffffffffffffffffffffffffffffffffffffff85163b15155b156117ed576117ed8660008787876124c8565b50505050505050565b6118068686868686866001612048565b505050505050565b60608160000361185157505060408051808201909152600181527f3000000000000000000000000000000000000000000000000000000000000000602082015290565b8160005b811561187b57806118658161309c565b91506118749050600a83613103565b9150611855565b60008167ffffffffffffffff81111561189657611896612cb7565b6040519080825280601f01601f1916602001820160405280156118c0576020820181803683370190505b50905060006118d0600184613085565b90508593505b8315611953576118e7600a85613117565b6118f290603061312b565b60f81b828261190081613143565b93508151811061191257611912613178565b60200101907effffffffffffffffffffffffffffffffffffffffffffffffffffffffffffff1916908160001a90535061194c600a85613103565b93506118d6565b50949350505050565b60008381526020858152604080832073ffffffffffffffffffffffffffffffffffffffff8616845290915290205460ff16156107d35760008381526020858152604080832073ffffffffffffffffffffffffffffffffffffffff8681168086529184529382902080547fffffffffffffffffffffffffffffffffffffffffffffffffffffffffffffff00169055815187815292830152918316918101919091527ff6391f5c32d9c69d2a47ea670b442974b53935d1edc7fd64eb21e047a839171b906060016113e6565b73ffffffffffffffffffffffffffffffffffffffff8216611aa3576040517f08c379a000000000000000000000000000000000000000000000000000000000815260206004820152601460248201527f4552433732313a206d696e7420746f207a65726f00000000000000000000000060448201526064016105f5565b805160005b818114611b30576000838281518110611ac357611ac3613178565b60200260200101519050611ada86868360016123e3565b604051819073ffffffffffffffffffffffffffffffffffffffff8716906000907fddf252ad1be2c89b69c2b068fc378daa952ba7f163c4a11628f55a4df523b3ef908290a450611b298161309c565b9050611aa8565b5073ffffffffffffffffffffffffffffffffffffffff8316600090815260028501602052604081208054839290611b6890849061312b565b909155505050505050565b6000611b80858486611fd4565b825190915060005b818114611c12576000848281518110611ba357611ba3613178565b60200260200101519050611bbc8888888488600161217e565b604051819060009073ffffffffffffffffffffffffffffffffffffffff8916907fddf252ad1be2c89b69c2b068fc378daa952ba7f163c4a11628f55a4df523b3ef908390a450611c0b8161309c565b9050611b88565b5080156118065773ffffffffffffffffffffffffffffffffffffffff8416600090815260028701602052604081208054839290611c50908490613085565b9091555050505050505050565b825473ffffffffffffffffffffffffffffffffffffffff9081169083168114611ce2576040517f08c379a000000000000000000000000000000000000000000000000000000000815260206004820152601860248201527f4f776e6572736869703a206e6f7420746865206f776e6572000000000000000060448201526064016105f5565b8173ffffffffffffffffffffffffffffffffffffffff168173ffffffffffffffffffffffffffffffffffffffff16146107d35783547fffffffffffffffffffffffff00000000000000000000000000000000000000001673ffffffffffffffffffffffffffffffffffffffff8381169182178655604051908316907f8be0079c531659141344cd1fd0a4f28419497f9722a3daafe3b4186f6b6457e090600090a350505050565b73ffffffffffffffffffffffffffffffffffffffff8216611e06576040517f08c379a000000000000000000000000000000000000000000000000000000000815260206004820152601860248201527f4552433732313a207472616e7366657220746f207a65726f000000000000000060448201526064016105f5565b6000611e13868587611fd4565b825190915060005b818114611ebc576000848281518110611e3657611e36613178565b60200260200101519050611e5089898989858960016125ee565b808673ffffffffffffffffffffffffffffffffffffffff168873ffffffffffffffffffffffffffffffffffffffff167fddf252ad1be2c89b69c2b068fc378daa952ba7f163c4a11628f55a4df523b3ef60405160405180910390a450611eb58161309c565b9050611e1b565b5080156117ed576117ed87868684612771565b73ffffffffffffffffffffffffffffffffffffffff8416611f4c576040517f08c379a000000000000000000000000000000000000000000000000000000000815260206004820152601460248201527f4552433732313a206d696e7420746f207a65726f00000000000000000000000060448201526064016105f5565b611f5986858560006123e3565b604051839073ffffffffffffffffffffffffffffffffffffffff8616906000907fddf252ad1be2c89b69c2b068fc378daa952ba7f163c4a11628f55a4df523b3ef908290a4808015611fc1575073ffffffffffffffffffffffffffffffffffffffff84163b15155b15611806576118068560008686866124c8565b60008173ffffffffffffffffffffffffffffffffffffffff168373ffffffffffffffffffffffffffffffffffffffff161480612040575073ffffffffffffffffffffffffffffffffffffffff8084166000908152602086815260408083209386168352929052205460ff165b949350505050565b73ffffffffffffffffffffffffffffffffffffffff84166120c5576040517f08c379a000000000000000000000000000000000000000000000000000000000815260206004820152601860248201527f4552433732313a207472616e7366657220746f207a65726f000000000000000060448201526064016105f5565b60006120d2888789611fd4565b90506120e488888888888660006125ee565b838573ffffffffffffffffffffffffffffffffffffffff168773ffffffffffffffffffffffffffffffffffffffff167fddf252ad1be2c89b69c2b068fc378daa952ba7f163c4a11628f55a4df523b3ef60405160405180910390a4818015612162575073ffffffffffffffffffffffffffffffffffffffff85163b15155b156121745761217487878787876124c8565b5050505050505050565b600083815260018701602052604090205473ffffffffffffffffffffffffffffffffffffffff85811690821614612211576040517f08c379a000000000000000000000000000000000000000000000000000000000815260206004820152601560248201527f4552433732313a206e6f6e2d6f776e6564204e4654000000000000000000000060448201526064016105f5565b826122ca57740100000000000000000000000000000000000000008116158015906122645750600084815260038801602052604090205473ffffffffffffffffffffffffffffffffffffffff8781169116145b6122ca576040517f08c379a000000000000000000000000000000000000000000000000000000000815260206004820152601b60248201527f4552433732313a206e6f6e2d617070726f7665642073656e646572000000000060448201526064016105f5565b600084815260018801602052604090207fdead0000000000000000000000000000000000000000000000000000000000009055816117ed5773ffffffffffffffffffffffffffffffffffffffff8516600090815260028801602052604081208054909190611c5090613143565b60008281526020848152604080832073ffffffffffffffffffffffffffffffffffffffff8516845290915290205460ff166105165761237582612817565b60405160200161238591906131a7565b604080517fffffffffffffffffffffffffffffffffffffffffffffffffffffffffffffffe0818403018152908290527f08c379a00000000000000000000000000000000000000000000000000000000082526105f591600401612af2565b60008281526001850160205260409020541561245b576040517f08c379a000000000000000000000000000000000000000000000000000000000815260206004820152601a60248201527f4552433732313a206578697374696e672f6275726e74204e465400000000000060448201526064016105f5565b6000828152600185016020526040902073ffffffffffffffffffffffffffffffffffffffff84169055806107d35773ffffffffffffffffffffffffffffffffffffffff83166000908152600285016020526040812080549091906124be9061309c565b9091555050505050565b6040517f150b7a02000000000000000000000000000000000000000000000000000000008082529073ffffffffffffffffffffffffffffffffffffffff85169063150b7a0290612522908990899088908890600401613213565b6020604051808303816000875af1158015612541573d6000803e3d6000fd5b505050506040513d601f19601f82011682018060405250810190612565919061325c565b7fffffffff000000000000000000000000000000000000000000000000000000001614611266576040517f08c379a000000000000000000000000000000000000000000000000000000000815260206004820152601860248201527f4552433732313a207472616e736665722072656675736564000000000000000060448201526064016105f5565b600083815260018801602052604090205473ffffffffffffffffffffffffffffffffffffffff86811690821614612681576040517f08c379a000000000000000000000000000000000000000000000000000000000815260206004820152601560248201527f4552433732313a206e6f6e2d6f776e6564204e4654000000000000000000000060448201526064016105f5565b8261273a57740100000000000000000000000000000000000000008116158015906126d45750600084815260038901602052604090205473ffffffffffffffffffffffffffffffffffffffff8881169116145b61273a576040517f08c379a000000000000000000000000000000000000000000000000000000000815260206004820152601b60248201527f4552433732313a206e6f6e2d617070726f7665642073656e646572000000000060448201526064016105f5565b6000848152600189016020526040902073ffffffffffffffffffffffffffffffffffffffff86169055816121745761217488878760015b8173ffffffffffffffffffffffffffffffffffffffff168373ffffffffffffffffffffffffffffffffffffffff16146107d35773ffffffffffffffffffffffffffffffffffffffff83166000908152600285016020526040812080548392906127db908490613085565b909155505073ffffffffffffffffffffffffffffffffffffffff8216600090815260028501602052604081208054839290611b6890849061312b565b6060600082900361283657505060408051602081019091526000815290565b60008260405160200161284b91815260200190565b604080517fffffffffffffffffffffffffffffffffffffffffffffffffffffffffffffffe08184030181529190529050601f5b81818151811061289057612890613178565b01602001517fff00000000000000000000000000000000000000000000000000000000000000166000036128ce576128c781613143565b905061287e565b60006128db82600161312b565b67ffffffffffffffff8111156128f3576128f3612cb7565b6040519080825280601f01601f19166020018201604052801561291d576020820181803683370190505b50905060005b8281116119535783818151811061293c5761293c613178565b602001015160f81c60f81b82828151811061295957612959613178565b60200101907effffffffffffffffffffffffffffffffffffffffffffffffffffffffffffff1916908160001a9053506129918161309c565b9050612923565b8280546129a490612f0a565b90600052602060002090601f0160209004810192826129c65760008555612a0c565b82601f106129df57805160ff1916838001178555612a0c565b82800160010185558215612a0c579182015b82811115612a0c5782518255916020019190600101906129f1565b50612a18929150612a1c565b5090565b5b80821115612a185760008155600101612a1d565b7fffffffff00000000000000000000000000000000000000000000000000000000811681146106de57600080fd5b600060208284031215612a7157600080fd5b813561074b81612a31565b60005b83811015612a97578181015183820152602001612a7f565b838111156107d35750506000910152565b60008151808452612ac0816020860160208601612a7c565b601f017fffffffffffffffffffffffffffffffffffffffffffffffffffffffffffffffe0169290920160200192915050565b60208152600061074b6020830184612aa8565b600060208284031215612b1757600080fd5b5035919050565b803573ffffffffffffffffffffffffffffffffffffffff81168114612b4257600080fd5b919050565b60008060408385031215612b5a57600080fd5b612b6383612b1e565b946020939093013593505050565b600080600060608486031215612b8657600080fd5b612b8f84612b1e565b9250612b9d60208501612b1e565b9150604084013590509250925092565b60008060408385031215612bc057600080fd5b82359150612bd060208401612b1e565b90509250929050565b600060208284031215612beb57600080fd5b61074b82612b1e565b60008060408385031215612c0757600080fd5b612c1083612b1e565b915060208301358015158114612c2557600080fd5b809150509250929050565b60008060008060608587031215612c4657600080fd5b612c4f85612b1e565b935060208501359250604085013567ffffffffffffffff80821115612c7357600080fd5b818701915087601f830112612c8757600080fd5b813581811115612c9657600080fd5b886020828501011115612ca857600080fd5b95989497505060200194505050565b7f4e487b7100000000000000000000000000000000000000000000000000000000600052604160045260246000fd5b60008060008060808587031215612cfc57600080fd5b612d0585612b1e565b9350612d1360208601612b1e565b925060408501359150606085013567ffffffffffffffff80821115612d3757600080fd5b818701915087601f830112612d4b57600080fd5b813581811115612d5d57612d5d612cb7565b604051601f82017fffffffffffffffffffffffffffffffffffffffffffffffffffffffffffffffe0908116603f01168101908382118183101715612da357612da3612cb7565b816040528281528a6020848701011115612dbc57600080fd5b82602086016020830137600060208483010152809550505050505092959194509250565b60008083601f840112612df257600080fd5b50813567ffffffffffffffff811115612e0a57600080fd5b6020830191508360208260051b8501011115612e2557600080fd5b9250929050565b600080600060408486031215612e4157600080fd5b612e4a84612b1e565b9250602084013567ffffffffffffffff811115612e6657600080fd5b612e7286828701612de0565b9497909650939450505050565b60008060408385031215612e9257600080fd5b612e9b83612b1e565b9150612bd060208401612b1e565b60008060008060608587031215612ebf57600080fd5b612ec885612b1e565b9350612ed660208601612b1e565b9250604085013567ffffffffffffffff811115612ef257600080fd5b612efe87828801612de0565b95989497509550505050565b600181811c90821680612f1e57607f821691505b602082108103612f57577f4e487b7100000000000000000000000000000000000000000000000000000000600052602260045260246000fd5b50919050565b60008151612f6f818560208601612a7c565b9290920192915050565b600080845481600182811c915080831680612f9557607f831692505b60208084108203612fcd577f4e487b710000000000000000000000000000000000000000000000000000000086526022600452602486fd5b818015612fe157600181146130105761303d565b7fffffffffffffffffffffffffffffffffffffffffffffffffffffffffffffff0086168952848901965061303d565b60008b81526020902060005b868110156130355781548b82015290850190830161301c565b505084890196505b50505050505061304d8185612f5d565b95945050505050565b7f4e487b7100000000000000000000000000000000000000000000000000000000600052601160045260246000fd5b60008282101561309757613097613056565b500390565b60007fffffffffffffffffffffffffffffffffffffffffffffffffffffffffffffffff82036130cd576130cd613056565b5060010190565b7f4e487b7100000000000000000000000000000000000000000000000000000000600052601260045260246000fd5b600082613112576131126130d4565b500490565b600082613126576131266130d4565b500690565b6000821982111561313e5761313e613056565b500190565b60008161315257613152613056565b507fffffffffffffffffffffffffffffffffffffffffffffffffffffffffffffffff0190565b7f4e487b7100000000000000000000000000000000000000000000000000000000600052603260045260246000fd5b7f416363657373436f6e74726f6c3a206d697373696e67202700000000000000008152600082516131df816018850160208701612a7c565b7f2720726f6c6500000000000000000000000000000000000000000000000000006018939091019283015250601e01919050565b600073ffffffffffffffffffffffffffffffffffffffff8087168352808616602084015250836040830152608060608301526132526080830184612aa8565b9695505050505050565b60006020828403121561326e57600080fd5b815161074b81612a3156fea26469706673582212209e4522e6c74618300cb70622f660f57cce8621e45272fc93659b507e8cc45d2e64736f6c634300080d0033",
  "linkReferences": {},
  "deployedLinkReferences": {}
}