{
  "_format": "hh-sol-artifact-1",
  "contractName": "ERC721Mock",
  "sourceName": "contracts/mocks/token/ERC721/ERC721Mock.sol",
  "abi": [
    {
      "inputs": [
        {
          "internalType": "string",
          "name": "name_",
          "type": "string"
        },
        {
          "internalType": "string",
          "name": "symbol_",
          "type": "string"
        },
        {
          "internalType": "string",
          "name": "tokenURI_",
          "type": "string"
        },
        {
          "internalType": "contract IForwarderRegistry",
          "name": "forwarderRegistry",
          "type": "address"
        }
      ],
      "stateMutability": "nonpayable",
      "type": "constructor"
    },
    {
      "anonymous": false,
      "inputs": [
        {
          "indexed": true,
          "internalType": "address",
          "name": "owner",
          "type": "address"
        },
        {
          "indexed": true,
          "internalType": "address",
          "name": "approved",
          "type": "address"
        },
        {
          "indexed": true,
          "internalType": "uint256",
          "name": "tokenId",
          "type": "uint256"
        }
      ],
      "name": "Approval",
      "type": "event"
    },
    {
      "anonymous": false,
      "inputs": [
        {
          "indexed": true,
          "internalType": "address",
          "name": "owner",
          "type": "address"
        },
        {
          "indexed": true,
          "internalType": "address",
          "name": "operator",
          "type": "address"
        },
        {
          "indexed": false,
          "internalType": "bool",
          "name": "approved",
          "type": "bool"
        }
      ],
      "name": "ApprovalForAll",
      "type": "event"
    },
    {
      "anonymous": false,
      "inputs": [
        {
          "indexed": false,
          "internalType": "string",
          "name": "baseMetadataURI",
          "type": "string"
        }
      ],
      "name": "BaseMetadataURISet",
      "type": "event"
    },
    {
      "anonymous": false,
      "inputs": [
        {
          "indexed": true,
          "internalType": "address",
          "name": "previousOwner",
          "type": "address"
        },
        {
          "indexed": true,
          "internalType": "address",
          "name": "newOwner",
          "type": "address"
        }
      ],
      "name": "OwnershipTransferred",
      "type": "event"
    },
    {
      "anonymous": false,
      "inputs": [
        {
          "indexed": false,
          "internalType": "bytes32",
          "name": "role",
          "type": "bytes32"
        },
        {
          "indexed": false,
          "internalType": "address",
          "name": "account",
          "type": "address"
        },
        {
          "indexed": false,
          "internalType": "address",
          "name": "operator",
          "type": "address"
        }
      ],
      "name": "RoleGranted",
      "type": "event"
    },
    {
      "anonymous": false,
      "inputs": [
        {
          "indexed": false,
          "internalType": "bytes32",
          "name": "role",
          "type": "bytes32"
        },
        {
          "indexed": false,
          "internalType": "address",
          "name": "account",
          "type": "address"
        },
        {
          "indexed": false,
          "internalType": "address",
          "name": "operator",
          "type": "address"
        }
      ],
      "name": "RoleRevoked",
      "type": "event"
    },
    {
      "anonymous": false,
      "inputs": [
        {
          "indexed": true,
          "internalType": "address",
          "name": "from",
          "type": "address"
        },
        {
          "indexed": true,
          "internalType": "address",
          "name": "to",
          "type": "address"
        },
        {
          "indexed": true,
          "internalType": "uint256",
          "name": "tokenId",
          "type": "uint256"
        }
      ],
      "name": "Transfer",
      "type": "event"
    },
    {
      "inputs": [],
      "name": "MINTER_ROLE",
      "outputs": [
        {
          "internalType": "bytes32",
          "name": "",
          "type": "bytes32"
        }
      ],
      "stateMutability": "view",
      "type": "function"
    },
    {
      "inputs": [],
      "name": "__msgData",
      "outputs": [
        {
          "internalType": "bytes",
          "name": "",
          "type": "bytes"
        }
      ],
      "stateMutability": "view",
      "type": "function"
    },
    {
      "inputs": [
        {
          "internalType": "address",
          "name": "to",
          "type": "address"
        },
        {
          "internalType": "uint256",
          "name": "tokenId",
          "type": "uint256"
        }
      ],
      "name": "approve",
      "outputs": [],
      "stateMutability": "nonpayable",
      "type": "function"
    },
    {
      "inputs": [
        {
          "internalType": "address",
          "name": "owner",
          "type": "address"
        }
      ],
      "name": "balanceOf",
      "outputs": [
        {
          "internalType": "uint256",
          "name": "",
          "type": "uint256"
        }
      ],
      "stateMutability": "view",
      "type": "function"
    },
    {
      "inputs": [],
      "name": "baseMetadataURI",
      "outputs": [
        {
          "internalType": "string",
          "name": "",
          "type": "string"
        }
      ],
      "stateMutability": "view",
      "type": "function"
    },
    {
      "inputs": [
        {
          "internalType": "address",
          "name": "to",
          "type": "address"
        },
        {
          "internalType": "uint256[]",
          "name": "tokenIds",
          "type": "uint256[]"
        }
      ],
      "name": "batchMint",
      "outputs": [],
      "stateMutability": "nonpayable",
      "type": "function"
    },
    {
      "inputs": [
        {
          "internalType": "address",
          "name": "from",
          "type": "address"
        },
        {
          "internalType": "address",
          "name": "to",
          "type": "address"
        },
        {
          "internalType": "uint256[]",
          "name": "tokenIds",
          "type": "uint256[]"
        }
      ],
      "name": "batchTransferFrom",
      "outputs": [],
      "stateMutability": "nonpayable",
      "type": "function"
    },
    {
      "inputs": [
        {
          "internalType": "uint256",
          "name": "tokenId",
          "type": "uint256"
        }
      ],
      "name": "getApproved",
      "outputs": [
        {
          "internalType": "address",
          "name": "operator",
          "type": "address"
        }
      ],
      "stateMutability": "view",
      "type": "function"
    },
    {
      "inputs": [
        {
          "internalType": "bytes32",
          "name": "role",
          "type": "bytes32"
        },
        {
          "internalType": "address",
          "name": "account",
          "type": "address"
        }
      ],
      "name": "grantRole",
      "outputs": [],
      "stateMutability": "nonpayable",
      "type": "function"
    },
    {
      "inputs": [
        {
          "internalType": "bytes32",
          "name": "role",
          "type": "bytes32"
        },
        {
          "internalType": "address",
          "name": "account",
          "type": "address"
        }
      ],
      "name": "hasRole",
      "outputs": [
        {
          "internalType": "bool",
          "name": "",
          "type": "bool"
        }
      ],
      "stateMutability": "view",
      "type": "function"
    },
    {
      "inputs": [
        {
          "internalType": "address",
          "name": "owner",
          "type": "address"
        },
        {
          "internalType": "address",
          "name": "operator",
          "type": "address"
        }
      ],
      "name": "isApprovedForAll",
      "outputs": [
        {
          "internalType": "bool",
          "name": "",
          "type": "bool"
        }
      ],
      "stateMutability": "view",
      "type": "function"
    },
    {
      "inputs": [
        {
          "internalType": "address",
          "name": "to",
          "type": "address"
        },
        {
          "internalType": "uint256",
          "name": "tokenId",
          "type": "uint256"
        }
      ],
      "name": "mint",
      "outputs": [],
      "stateMutability": "nonpayable",
      "type": "function"
    },
    {
      "inputs": [],
      "name": "name",
      "outputs": [
        {
          "internalType": "string",
          "name": "",
          "type": "string"
        }
      ],
      "stateMutability": "view",
      "type": "function"
    },
    {
      "inputs": [],
      "name": "owner",
      "outputs": [
        {
          "internalType": "address",
          "name": "",
          "type": "address"
        }
      ],
      "stateMutability": "view",
      "type": "function"
    },
    {
      "inputs": [
        {
          "internalType": "uint256",
          "name": "tokenId",
          "type": "uint256"
        }
      ],
      "name": "ownerOf",
      "outputs": [
        {
          "internalType": "address",
          "name": "",
          "type": "address"
        }
      ],
      "stateMutability": "view",
      "type": "function"
    },
    {
      "inputs": [
        {
          "internalType": "bytes32",
          "name": "role",
          "type": "bytes32"
        }
      ],
      "name": "renounceRole",
      "outputs": [],
      "stateMutability": "nonpayable",
      "type": "function"
    },
    {
      "inputs": [
        {
          "internalType": "bytes32",
          "name": "role",
          "type": "bytes32"
        },
        {
          "internalType": "address",
          "name": "account",
          "type": "address"
        }
      ],
      "name": "revokeRole",
      "outputs": [],
      "stateMutability": "nonpayable",
      "type": "function"
    },
    {
      "inputs": [
        {
          "internalType": "address",
          "name": "to",
          "type": "address"
        },
        {
          "internalType": "uint256",
          "name": "tokenId",
          "type": "uint256"
        },
        {
          "internalType": "bytes",
          "name": "data",
          "type": "bytes"
        }
      ],
      "name": "safeMint",
      "outputs": [],
      "stateMutability": "nonpayable",
      "type": "function"
    },
    {
      "inputs": [
        {
          "internalType": "address",
          "name": "from",
          "type": "address"
        },
        {
          "internalType": "address",
          "name": "to",
          "type": "address"
        },
        {
          "internalType": "uint256",
          "name": "tokenId",
          "type": "uint256"
        }
      ],
      "name": "safeTransferFrom",
      "outputs": [],
      "stateMutability": "nonpayable",
      "type": "function"
    },
    {
      "inputs": [
        {
          "internalType": "address",
          "name": "from",
          "type": "address"
        },
        {
          "internalType": "address",
          "name": "to",
          "type": "address"
        },
        {
          "internalType": "uint256",
          "name": "tokenId",
          "type": "uint256"
        },
        {
          "internalType": "bytes",
          "name": "_data",
          "type": "bytes"
        }
      ],
      "name": "safeTransferFrom",
      "outputs": [],
      "stateMutability": "nonpayable",
      "type": "function"
    },
    {
      "inputs": [
        {
          "internalType": "address",
          "name": "operator",
          "type": "address"
        },
        {
          "internalType": "bool",
          "name": "_approved",
          "type": "bool"
        }
      ],
      "name": "setApprovalForAll",
      "outputs": [],
      "stateMutability": "nonpayable",
      "type": "function"
    },
    {
      "inputs": [
        {
          "internalType": "string",
          "name": "baseMetadataURI_",
          "type": "string"
        }
      ],
      "name": "setBaseMetadataURI",
      "outputs": [],
      "stateMutability": "nonpayable",
      "type": "function"
    },
    {
      "inputs": [
        {
          "internalType": "bytes4",
          "name": "interfaceId",
          "type": "bytes4"
        }
      ],
      "name": "supportsInterface",
      "outputs": [
        {
          "internalType": "bool",
          "name": "",
          "type": "bool"
        }
      ],
      "stateMutability": "view",
      "type": "function"
    },
    {
      "inputs": [],
      "name": "symbol",
      "outputs": [
        {
          "internalType": "string",
          "name": "",
          "type": "string"
        }
      ],
      "stateMutability": "view",
      "type": "function"
    },
    {
      "inputs": [
        {
          "internalType": "uint256",
          "name": "tokenId",
          "type": "uint256"
        }
      ],
      "name": "tokenURI",
      "outputs": [
        {
          "internalType": "string",
          "name": "",
          "type": "string"
        }
      ],
      "stateMutability": "view",
      "type": "function"
    },
    {
      "inputs": [
        {
          "internalType": "address",
          "name": "from",
          "type": "address"
        },
        {
          "internalType": "address",
          "name": "to",
          "type": "address"
        },
        {
          "internalType": "uint256",
          "name": "tokenId",
          "type": "uint256"
        }
      ],
      "name": "transferFrom",
      "outputs": [],
      "stateMutability": "nonpayable",
      "type": "function"
    },
    {
      "inputs": [
        {
          "internalType": "address",
          "name": "newOwner",
          "type": "address"
        }
      ],
      "name": "transferOwnership",
      "outputs": [],
      "stateMutability": "nonpayable",
      "type": "function"
    }
  ],
  "bytecode": "0x60a06040523480156200001157600080fd5b50604051620039f7380380620039f78339810160408190526200003491620005bb565b83838383803362000064620000536200015e60201b6200085f1760201c565b6200019460201b6200088d1760201c565b62000092816200007e620001ba60201b620008c21760201c565b620001ea60201b620008f01790919060201c565b50620000cb638e773e1360e01b6001620000b66200026860201b620009a21760201c565b6200029860201b620009d0179092919060201c565b6001600160a01b031660805250620000fc63f3993d1160e01b6001620000b662000268602090811b620009a217901c565b6200012e838383620001186200032560201b62000ac51760201c565b6200035560201b62000af317909392919060201c565b62000151635b5e139f60e01b6001620000b66200026860201b620009a21760201c565b50505050505050620006d0565b6000806200018e60017fddf3ee18ae6d688373c219468f8be446e7ae82215f4779d821c7ea5e8c13c0c16200066e565b92915050565b620001b76380ac58cd60e01b6001620000b66200026860201b620009a21760201c565b50565b6000806200018e60017fc9ed16f33ab3a66c84bfd83099ccb2a8845871e2e1c1928f63797152f0fd54cd6200066e565b6001600160a01b03811615620002415781546001600160a01b0319166001600160a01b03821690811783556040516000907f8be0079c531659141344cd1fd0a4f28419497f9722a3daafe3b4186f6b6457e0908290a35b620002646307f5828d60e41b6001620000b66200026860201b620009a21760201c565b5050565b6000806200018e60017fca9d3e17f264b0f3984e2634e94adb37fa3e6a8103f06aeae6fa59e21c769f5e6200066e565b6001600160e01b03198083169003620002f75760405162461bcd60e51b815260206004820152601f60248201527f496e74657266616365446574656374696f6e3a2077726f6e672076616c756500604482015260640160405180910390fd5b6001600160e01b03199190911660009081526020929092526040909120805460ff1916911515919091179055565b6000806200018e60017f5f5773833f4966721eb3773ed87c7208ea74d78f0d94de1d8074345cac67333f6200066e565b62000385838362000370620003c360201b62000b481760201c565b620003f360201b62000b76179092919060201c565b805162000399908590602084019062000448565b50620003bd635b5e139f60e01b6001620000b66200026860201b620009a21760201c565b50505050565b6000806200018e60017f9c4269c0f9f430d98876ffe9767fbf3f3232ea91a549beb549e5329532520eb36200066e565b815162000407908490602085019062000448565b5080516200041f906001850190602084019062000448565b5062000443635b5e139f60e01b6001620000b66200026860201b620009a21760201c565b505050565b828054620004569062000694565b90600052602060002090601f0160209004810192826200047a5760008555620004c5565b82601f106200049557805160ff1916838001178555620004c5565b82800160010185558215620004c5579182015b82811115620004c5578251825591602001919060010190620004a8565b50620004d3929150620004d7565b5090565b5b80821115620004d35760008155600101620004d8565b634e487b7160e01b600052604160045260246000fd5b600082601f8301126200051657600080fd5b81516001600160401b0380821115620005335762000533620004ee565b604051601f8301601f19908116603f011681019082821181831017156200055e576200055e620004ee565b816040528381526020925086838588010111156200057b57600080fd5b600091505b838210156200059f578582018301518183018401529082019062000580565b83821115620005b15760008385830101525b9695505050505050565b60008060008060808587031215620005d257600080fd5b84516001600160401b0380821115620005ea57600080fd5b620005f88883890162000504565b955060208701519150808211156200060f57600080fd5b6200061d8883890162000504565b945060408701519150808211156200063457600080fd5b50620006438782880162000504565b606087015190935090506001600160a01b03811681146200066357600080fd5b939692955090935050565b6000828210156200068f57634e487b7160e01b600052601160045260246000fd5b500390565b600181811c90821680620006a957607f821691505b602082108103620006ca57634e487b7160e01b600052602260045260246000fd5b50919050565b6080516132f66200070160003960008181612524015281816125c40152818161265801526126c201526132f66000f3fe608060405234801561001057600080fd5b50600436106101b95760003560e01c80637e518ec8116100f9578063b88d4fde11610097578063d547741f11610071578063d547741f146103b5578063e985e9c5146103c8578063f2fde38b146103db578063f3993d11146103ee57600080fd5b8063b88d4fde14610368578063c87b56dd1461037b578063d53913931461038e57600080fd5b80638da5cb5b116100d35780638da5cb5b1461033257806391d148541461033a57806395d89b411461034d578063a22cb4651461035557600080fd5b80637e518ec8146102f95780638832e6e31461030c5780638bb9c5bf1461031f57600080fd5b806331e66e1e116101665780634684d7e9116101405780634684d7e9146102aa5780635b2bd79e146102bd5780636352211e146102c557806370a08231146102d857600080fd5b806331e66e1e1461026e57806340c10f191461028457806342842e0e1461029757600080fd5b8063095ea7b311610197578063095ea7b31461023357806323b872dd146102485780632f2ff15d1461025b57600080fd5b806301ffc9a7146101be57806306fdde03146101e6578063081812fc146101fb575b600080fd5b6101d16101cc36600461293b565b610401565b60405190151581526020015b60405180910390f35b6101ee61041b565b6040516101dd91906129ce565b61020e6102093660046129e1565b610432565b60405173ffffffffffffffffffffffffffffffffffffffff90911681526020016101dd565b610246610241366004612a23565b610446565b005b610246610256366004612a4d565b610467565b610246610269366004612a89565b61048b565b6102766104bf565b6040516101dd929190612afe565b610246610292366004612a23565b6104d2565b6102466102a5366004612a4d565b61053e565b6102466102b8366004612b12565b61055d565b6101ee6105d1565b61020e6102d33660046129e1565b6105de565b6102eb6102e6366004612b98565b6105f2565b6040519081526020016101dd565b610246610307366004612bfc565b610606565b61024661031a366004612c3e565b61062d565b61024661032d3660046129e1565b6106af565b61020e6106cd565b6101d1610348366004612a89565b6106f4565b6101ee61073f565b610246610363366004612ca6565b610751565b610246610376366004612d5b565b61076e565b6101ee6103893660046129e1565b61078f565b6102eb7f6d696e746572000000000000000000000000000000000000000000000000000081565b6102466103c3366004612a89565b6107b0565b6101d16103d6366004612e39565b6107de565b6102466103e9366004612b98565b610825565b6102466103fc366004612e63565b610840565b60006104158261040f6109a2565b90610bcd565b92915050565b606061042d610428610b48565b610c8b565b905090565b60006104158261044061085f565b90610d21565b610463610451610e04565b838361045b61085f565b929190610e0e565b5050565b610486610472610e04565b84848461047d61085f565b939291906110ca565b505050565b6000610495610e04565b90506104a9816104a36108c2565b906110f0565b6104868383836104b7611173565b9291906111a1565b3660006104ca611277565b915091509091565b61050d7f6d696e74657200000000000000000000000000000000000000000000000000006104fe610e04565b610506611173565b9190611282565b610463610518610e04565b838360405180602001604052806000815250600061053461085f565b949392919061132e565b610486610549610e04565b84848461055461085f565b9392919061143b565b6105897f6d696e74657200000000000000000000000000000000000000000000000000006104fe610e04565b610486838383808060200260200160405190810160405280939291908181526020018383602002808284376000920191909152506105ca925061085f915050565b919061145a565b606061042d610428610ac5565b6000610415826105ec61085f565b9061159f565b60006104158261060061085f565b9061162d565b610619610611610e04565b6104a36108c2565b6104638282610626610ac5565b91906116d9565b6106597f6d696e74657200000000000000000000000000000000000000000000000000006104fe610e04565b6106a9610664610e04565b858585858080601f01602080910402602001604051908101604052809392919081815260200183838082843760009201919091525060019250610534915061085f9050565b50505050565b6106ca6106ba610e04565b826106c3611173565b9190611723565b50565b600061042d6106da6108c2565b5473ffffffffffffffffffffffffffffffffffffffff1690565b60006107388383610703611173565b60009283526020908152604080842073ffffffffffffffffffffffffffffffffffffffff909316845291905290205460ff1690565b9392505050565b606061042d61074c610b48565b6117bf565b61046361075c610e04565b838361076661085f565b9291906117d0565b6106a9610779610e04565b8585858561078561085f565b94939291906118fc565b606061079d826105ec61085f565b50610415826107aa610ac5565b9061190c565b60006107ba610e04565b90506107c8816104a36108c2565b6104868383836107d6611173565b929190611940565b600061073883836107ed61085f565b73ffffffffffffffffffffffffffffffffffffffff928316600090815260209182526040808220939094168152919052205460ff1690565b6106ca610830610e04565b826108396108c2565b9190611a0a565b61048661084b610e04565b84848461085661085f565b93929190611b36565b60008061041560017fddf3ee18ae6d688373c219468f8be446e7ae82215f4779d821c7ea5e8c13c0c1612f5b565b6106ca7f80ac58cd0000000000000000000000000000000000000000000000000000000060016108bb6109a2565b91906109d0565b60008061041560017fc9ed16f33ab3a66c84bfd83099ccb2a8845871e2e1c1928f63797152f0fd54cd612f5b565b73ffffffffffffffffffffffffffffffffffffffff8116156109785781547fffffffffffffffffffffffff00000000000000000000000000000000000000001673ffffffffffffffffffffffffffffffffffffffff821690811783556040516000907f8be0079c531659141344cd1fd0a4f28419497f9722a3daafe3b4186f6b6457e0908290a35b6104637f7f5828d00000000000000000000000000000000000000000000000000000000060016108bb5b60008061041560017fca9d3e17f264b0f3984e2634e94adb37fa3e6a8103f06aeae6fa59e21c769f5e612f5b565b7fffffffff000000000000000000000000000000000000000000000000000000008083169003610a61576040517f08c379a000000000000000000000000000000000000000000000000000000000815260206004820152601f60248201527f496e74657266616365446574656374696f6e3a2077726f6e672076616c75650060448201526064015b60405180910390fd5b7fffffffff00000000000000000000000000000000000000000000000000000000919091166000908152602092909252604090912080547fffffffffffffffffffffffffffffffffffffffffffffffffffffffffffffff0016911515919091179055565b60008061041560017f5f5773833f4966721eb3773ed87c7208ea74d78f0d94de1d8074345cac67333f612f5b565b610b078383610b00610b48565b9190610b76565b8051610b1990859060208401906127e2565b506106a97f5b5e139f0000000000000000000000000000000000000000000000000000000060016108bb6109a2565b60008061041560017f9c4269c0f9f430d98876ffe9767fbf3f3232ea91a549beb549e5329532520eb3612f5b565b8151610b8890849060208501906127e2565b508051610b9e90600185019060208401906127e2565b506104867f5b5e139f0000000000000000000000000000000000000000000000000000000060016108bb6109a2565b60007fffffffff000000000000000000000000000000000000000000000000000000008083169003610c0157506000610415565b7ffe003659000000000000000000000000000000000000000000000000000000007fffffffff00000000000000000000000000000000000000000000000000000000831601610c5257506001610415565b507fffffffff00000000000000000000000000000000000000000000000000000000166000908152602091909152604090205460ff1690565b6060816000018054610c9c90612f72565b80601f0160208091040260200160405190810160405280929190818152602001828054610cc890612f72565b8015610d155780601f10610cea57610100808354040283529160200191610d15565b820191906000526020600020905b815481529060010190602001808311610cf857829003601f168201915b50505050509050919050565b600081815260018301602052604081205473ffffffffffffffffffffffffffffffffffffffff8116610daf576040517f08c379a000000000000000000000000000000000000000000000000000000000815260206004820152601860248201527f4552433732313a206e6f6e2d6578697374696e67204e465400000000000000006044820152606401610a58565b74010000000000000000000000000000000000000000811615610dfa575050600081815260038301602052604090205473ffffffffffffffffffffffffffffffffffffffff16610415565b6000915050610415565b600061042d611c7d565b600081815260018501602052604081205490819003610e89576040517f08c379a000000000000000000000000000000000000000000000000000000000815260206004820152601860248201527f4552433732313a206e6f6e2d6578697374696e67204e465400000000000000006044820152606401610a58565b8073ffffffffffffffffffffffffffffffffffffffff80821690851603610f0c576040517f08c379a000000000000000000000000000000000000000000000000000000000815260206004820152601560248201527f4552433732313a2073656c662d617070726f76616c00000000000000000000006044820152606401610a58565b610f17868287611c87565b610f7d576040517f08c379a000000000000000000000000000000000000000000000000000000000815260206004820152601b60248201527f4552433732313a206e6f6e2d617070726f7665642073656e64657200000000006044820152606401610a58565b73ffffffffffffffffffffffffffffffffffffffff8416610fe45774010000000000000000000000000000000000000000821615610fdf576000838152600187016020526040902073ffffffffffffffffffffffffffffffffffffffff821690555b611067565b74010000000000000000000000000000000000000000821780831461101757600084815260018801602052604090208190555b506000838152600387016020526040902080547fffffffffffffffffffffffff00000000000000000000000000000000000000001673ffffffffffffffffffffffffffffffffffffffff86161790555b828473ffffffffffffffffffffffffffffffffffffffff168273ffffffffffffffffffffffffffffffffffffffff167f8c5be1e5ebec7d5bd14f71427d1e84f3dd0314c0f7b2291e5b200ac8c7c3b92560405160405180910390a4505050505050565b6110e98585858585604051806020016040528060008152506000611cfb565b5050505050565b815473ffffffffffffffffffffffffffffffffffffffff828116911614610463576040517f08c379a000000000000000000000000000000000000000000000000000000000815260206004820152601860248201527f4f776e6572736869703a206e6f7420746865206f776e657200000000000000006044820152606401610a58565b60008061041560017fc8827d3282af6f37b64c3e9e6f3ac9df286ab0bb0fccd6f8661bf19adb368b23612f5b565b60008381526020858152604080832073ffffffffffffffffffffffffffffffffffffffff8616845290915290205460ff166106a95760008381526020858152604080832073ffffffffffffffffffffffffffffffffffffffff8681168086529184529382902080547fffffffffffffffffffffffffffffffffffffffffffffffffffffffffffffff00166001179055815187815292830152918316918101919091527f2f8788117e7eff1d82e926ec794901d17c78024a50270940304540a733656f0d906060015b60405180910390a150505050565b3660006104ca611e31565b60008281526020848152604080832073ffffffffffffffffffffffffffffffffffffffff8516845290915290205460ff16610486576112c082611e3c565b6040516020016112d09190612fdb565b604080517fffffffffffffffffffffffffffffffffffffffffffffffffffffffffffffffe0818403018152908290527f08c379a0000000000000000000000000000000000000000000000000000000008252610a58916004016129ce565b73ffffffffffffffffffffffffffffffffffffffff84166113ab576040517f08c379a000000000000000000000000000000000000000000000000000000000815260206004820152601460248201527f4552433732313a206d696e7420746f207a65726f0000000000000000000000006044820152606401610a58565b6113b88685856000611fc6565b604051839073ffffffffffffffffffffffffffffffffffffffff8616906000907fddf252ad1be2c89b69c2b068fc378daa952ba7f163c4a11628f55a4df523b3ef908290a4808015611420575073ffffffffffffffffffffffffffffffffffffffff84163b15155b156114335761143385600086868661209f565b505050505050565b6110e98585858585604051806020016040528060008152506001611cfb565b73ffffffffffffffffffffffffffffffffffffffff82166114d7576040517f08c379a000000000000000000000000000000000000000000000000000000000815260206004820152601460248201527f4552433732313a206d696e7420746f207a65726f0000000000000000000000006044820152606401610a58565b805160005b81811461155c5760008382815181106114f7576114f7613047565b6020026020010151905061150e8686836001611fc6565b604051819073ffffffffffffffffffffffffffffffffffffffff8716906000907fddf252ad1be2c89b69c2b068fc378daa952ba7f163c4a11628f55a4df523b3ef908290a4506001016114dc565b5073ffffffffffffffffffffffffffffffffffffffff8316600090815260028501602052604081208054839290611594908490613076565b909155505050505050565b600081815260018301602052604081205473ffffffffffffffffffffffffffffffffffffffff8116610738576040517f08c379a000000000000000000000000000000000000000000000000000000000815260206004820152601860248201527f4552433732313a206e6f6e2d6578697374696e67204e465400000000000000006044820152606401610a58565b600073ffffffffffffffffffffffffffffffffffffffff82166116ac576040517f08c379a000000000000000000000000000000000000000000000000000000000815260206004820152601460248201527f4552433732313a207a65726f20616464726573730000000000000000000000006044820152606401610a58565b5073ffffffffffffffffffffffffffffffffffffffff166000908152600291909101602052604090205490565b6116e4838383612866565b507f04b1dc5c136a3ce9fded8db0ce3d3366c58764ec3a8e4c2b9e52e4ddfe5ebbf78282604051611716929190612afe565b60405180910390a1505050565b61172e838284611282565b60008181526020848152604080832073ffffffffffffffffffffffffffffffffffffffff86168085529083529281902080547fffffffffffffffffffffffffffffffffffffffffffffffffffffffffffffff0016905580518481529182018390528101919091527ff6391f5c32d9c69d2a47ea670b442974b53935d1edc7fd64eb21e047a839171b90606001611716565b6060816001018054610c9c90612f72565b8273ffffffffffffffffffffffffffffffffffffffff168273ffffffffffffffffffffffffffffffffffffffff1603611865576040517f08c379a000000000000000000000000000000000000000000000000000000000815260206004820152601560248201527f4552433732313a2073656c662d617070726f76616c00000000000000000000006044820152606401610a58565b73ffffffffffffffffffffffffffffffffffffffff8381166000818152602087815260408083209487168084529482529182902080547fffffffffffffffffffffffffffffffffffffffffffffffffffffffffffffff001686151590811790915591519182527f17307eab39ab6107e8899845ad3d59bd9653f200f220920489ca2b5937696c31910160405180910390a350505050565b6114338686868686866001611cfb565b606082611918836121c5565b60405160200161192992919061308e565b604051602081830303815290604052905092915050565b60008381526020858152604080832073ffffffffffffffffffffffffffffffffffffffff8616845290915290205460ff16156106a95760008381526020858152604080832073ffffffffffffffffffffffffffffffffffffffff8681168086529184529382902080547fffffffffffffffffffffffffffffffffffffffffffffffffffffffffffffff00169055815187815292830152918316918101919091527ff6391f5c32d9c69d2a47ea670b442974b53935d1edc7fd64eb21e047a839171b90606001611269565b825473ffffffffffffffffffffffffffffffffffffffff9081169083168114611a8f576040517f08c379a000000000000000000000000000000000000000000000000000000000815260206004820152601860248201527f4f776e6572736869703a206e6f7420746865206f776e657200000000000000006044820152606401610a58565b8173ffffffffffffffffffffffffffffffffffffffff168173ffffffffffffffffffffffffffffffffffffffff16146106a95783547fffffffffffffffffffffffff00000000000000000000000000000000000000001673ffffffffffffffffffffffffffffffffffffffff8381169182178655604051908316907f8be0079c531659141344cd1fd0a4f28419497f9722a3daafe3b4186f6b6457e090600090a350505050565b73ffffffffffffffffffffffffffffffffffffffff8216611bb3576040517f08c379a000000000000000000000000000000000000000000000000000000000815260206004820152601860248201527f4552433732313a207472616e7366657220746f207a65726f00000000000000006044820152606401610a58565b6000611bc0868587611c87565b825190915060005b818114611c61576000848281518110611be357611be3613047565b60200260200101519050611bfd89898989858960016122f0565b808673ffffffffffffffffffffffffffffffffffffffff168873ffffffffffffffffffffffffffffffffffffffff167fddf252ad1be2c89b69c2b068fc378daa952ba7f163c4a11628f55a4df523b3ef60405160405180910390a450600101611bc8565b508015611c7457611c7487868684612473565b50505050505050565b600061042d6124e8565b60008173ffffffffffffffffffffffffffffffffffffffff168373ffffffffffffffffffffffffffffffffffffffff161480611cf3575073ffffffffffffffffffffffffffffffffffffffff8084166000908152602086815260408083209386168352929052205460ff165b949350505050565b73ffffffffffffffffffffffffffffffffffffffff8416611d78576040517f08c379a000000000000000000000000000000000000000000000000000000000815260206004820152601860248201527f4552433732313a207472616e7366657220746f207a65726f00000000000000006044820152606401610a58565b6000611d85888789611c87565b9050611d9788888888888660006122f0565b838573ffffffffffffffffffffffffffffffffffffffff168773ffffffffffffffffffffffffffffffffffffffff167fddf252ad1be2c89b69c2b068fc378daa952ba7f163c4a11628f55a4df523b3ef60405160405180910390a4818015611e15575073ffffffffffffffffffffffffffffffffffffffff85163b15155b15611e2757611e27878787878761209f565b5050505050505050565b3660006104ca612640565b60606000829003611e5b57505060408051602081019091526000815290565b600082604051602001611e7091815260200190565b604080517fffffffffffffffffffffffffffffffffffffffffffffffffffffffffffffffe08184030181529190529050601f5b818181518110611eb557611eb5613047565b01602001517fff0000000000000000000000000000000000000000000000000000000000000016600003611ef357611eec8161316b565b9050611ea3565b6000611f00826001613076565b67ffffffffffffffff811115611f1857611f18612cdd565b6040519080825280601f01601f191660200182016040528015611f42576020820181803683370190505b50905060005b828111611fbd57838181518110611f6157611f61613047565b602001015160f81c60f81b828281518110611f7e57611f7e613047565b60200101907effffffffffffffffffffffffffffffffffffffffffffffffffffffffffffff1916908160001a905350611fb6816131a0565b9050611f48565b50949350505050565b60008281526001850160205260409020541561203e576040517f08c379a000000000000000000000000000000000000000000000000000000000815260206004820152601a60248201527f4552433732313a206578697374696e672f6275726e74204e46540000000000006044820152606401610a58565b6000828152600185016020526040902073ffffffffffffffffffffffffffffffffffffffff84169055806106a957505073ffffffffffffffffffffffffffffffffffffffff1660009081526002919091016020526040902080546001019055565b6040517f150b7a02000000000000000000000000000000000000000000000000000000008082529073ffffffffffffffffffffffffffffffffffffffff85169063150b7a02906120f99089908990889088906004016131d8565b6020604051808303816000875af1158015612118573d6000803e3d6000fd5b505050506040513d601f19601f8201168201806040525081019061213c9190613221565b7fffffffff0000000000000000000000000000000000000000000000000000000016146110e9576040517f08c379a000000000000000000000000000000000000000000000000000000000815260206004820152601860248201527f4552433732313a207472616e73666572207265667573656400000000000000006044820152606401610a58565b60608160000361220857505060408051808201909152600181527f3000000000000000000000000000000000000000000000000000000000000000602082015290565b8160005b8115612232578061221c816131a0565b915061222b9050600a8361323e565b915061220c565b60008167ffffffffffffffff81111561224d5761224d612cdd565b6040519080825280601f01601f191660200182016040528015612277576020820181803683370190505b5090506000612287600184612f5b565b90508593505b8315611fbd57600a840660300160f81b828280600190039350815181106122b6576122b6613047565b60200101907effffffffffffffffffffffffffffffffffffffffffffffffffffffffffffff1916908160001a905350600a8404935061228d565b600083815260018801602052604090205473ffffffffffffffffffffffffffffffffffffffff86811690821614612383576040517f08c379a000000000000000000000000000000000000000000000000000000000815260206004820152601560248201527f4552433732313a206e6f6e2d6f776e6564204e465400000000000000000000006044820152606401610a58565b8261243c57740100000000000000000000000000000000000000008116158015906123d65750600084815260038901602052604090205473ffffffffffffffffffffffffffffffffffffffff8881169116145b61243c576040517f08c379a000000000000000000000000000000000000000000000000000000000815260206004820152601b60248201527f4552433732313a206e6f6e2d617070726f7665642073656e64657200000000006044820152606401610a58565b6000848152600189016020526040902073ffffffffffffffffffffffffffffffffffffffff8616905581611e2757611e2788878760015b8173ffffffffffffffffffffffffffffffffffffffff168373ffffffffffffffffffffffffffffffffffffffff16146106a95773ffffffffffffffffffffffffffffffffffffffff80841660009081526002860160205260408082208054859003905591841681522080548201905550505050565b6000333281036124f757919050565b6000367fffffffffffffffffffffffffffffffffffffffffffffffffffffffffffffffec013560601c90507f000000000000000000000000000000000000000000000000000000000000000073ffffffffffffffffffffffffffffffffffffffff168273ffffffffffffffffffffffffffffffffffffffff16148061262f57506040517fe60125d600000000000000000000000000000000000000000000000000000000815273ffffffffffffffffffffffffffffffffffffffff828116600483015283811660248301527f0000000000000000000000000000000000000000000000000000000000000000169063e60125d690604401602060405180830381865afa15801561260b573d6000803e3d6000fd5b505050506040513d601f19601f8201168201806040525081019061262f9190613279565b1561263a5792915050565b50919050565b3660003332810361265657506000923692509050565b7f000000000000000000000000000000000000000000000000000000000000000073ffffffffffffffffffffffffffffffffffffffff168173ffffffffffffffffffffffffffffffffffffffff1614806127a3575073ffffffffffffffffffffffffffffffffffffffff7f00000000000000000000000000000000000000000000000000000000000000001663e60125d6367fffffffffffffffffffffffffffffffffffffffffffffffffffffffffffffffec013560601c6040517fffffffff0000000000000000000000000000000000000000000000000000000060e084901b16815273ffffffffffffffffffffffffffffffffffffffff91821660048201529084166024820152604401602060405180830381865afa15801561277f573d6000803e3d6000fd5b505050506040513d601f19601f820116820180604052508101906127a39190613279565b156127b9576127b06127c4565b92509250509091565b506000923692509050565b3660008080836127d5601482612f5b565b926104ca93929190613296565b8280546127ee90612f72565b90600052602060002090601f0160209004810192826128105760008555612856565b82601f1061282957805160ff1916838001178555612856565b82800160010185558215612856579182015b8281111561285657825182559160200191906001019061283b565b506128629291506128f8565b5090565b82805461287290612f72565b90600052602060002090601f0160209004810192826128945760008555612856565b82601f106128cb578280017fffffffffffffffffffffffffffffffffffffffffffffffffffffffffffffff00823516178555612856565b82800160010185558215612856579182015b828111156128565782358255916020019190600101906128dd565b5b8082111561286257600081556001016128f9565b7fffffffff00000000000000000000000000000000000000000000000000000000811681146106ca57600080fd5b60006020828403121561294d57600080fd5b81356107388161290d565b60005b8381101561297357818101518382015260200161295b565b838111156106a95750506000910152565b6000815180845261299c816020860160208601612958565b601f017fffffffffffffffffffffffffffffffffffffffffffffffffffffffffffffffe0169290920160200192915050565b6020815260006107386020830184612984565b6000602082840312156129f357600080fd5b5035919050565b803573ffffffffffffffffffffffffffffffffffffffff81168114612a1e57600080fd5b919050565b60008060408385031215612a3657600080fd5b612a3f836129fa565b946020939093013593505050565b600080600060608486031215612a6257600080fd5b612a6b846129fa565b9250612a79602085016129fa565b9150604084013590509250925092565b60008060408385031215612a9c57600080fd5b82359150612aac602084016129fa565b90509250929050565b8183528181602085013750600060208284010152600060207fffffffffffffffffffffffffffffffffffffffffffffffffffffffffffffffe0601f840116840101905092915050565b602081526000611cf3602083018486612ab5565b600080600060408486031215612b2757600080fd5b612b30846129fa565b9250602084013567ffffffffffffffff80821115612b4d57600080fd5b818601915086601f830112612b6157600080fd5b813581811115612b7057600080fd5b8760208260051b8501011115612b8557600080fd5b6020830194508093505050509250925092565b600060208284031215612baa57600080fd5b610738826129fa565b60008083601f840112612bc557600080fd5b50813567ffffffffffffffff811115612bdd57600080fd5b602083019150836020828501011115612bf557600080fd5b9250929050565b60008060208385031215612c0f57600080fd5b823567ffffffffffffffff811115612c2657600080fd5b612c3285828601612bb3565b90969095509350505050565b60008060008060608587031215612c5457600080fd5b612c5d856129fa565b935060208501359250604085013567ffffffffffffffff811115612c8057600080fd5b612c8c87828801612bb3565b95989497509550505050565b80151581146106ca57600080fd5b60008060408385031215612cb957600080fd5b612cc2836129fa565b91506020830135612cd281612c98565b809150509250929050565b7f4e487b7100000000000000000000000000000000000000000000000000000000600052604160045260246000fd5b604051601f82017fffffffffffffffffffffffffffffffffffffffffffffffffffffffffffffffe016810167ffffffffffffffff81118282101715612d5357612d53612cdd565b604052919050565b60008060008060808587031215612d7157600080fd5b612d7a856129fa565b93506020612d898187016129fa565b935060408601359250606086013567ffffffffffffffff80821115612dad57600080fd5b818801915088601f830112612dc157600080fd5b813581811115612dd357612dd3612cdd565b612e03847fffffffffffffffffffffffffffffffffffffffffffffffffffffffffffffffe0601f84011601612d0c565b91508082528984828501011115612e1957600080fd5b808484018584013760008482840101525080935050505092959194509250565b60008060408385031215612e4c57600080fd5b612e55836129fa565b9150612aac602084016129fa565b600080600060608486031215612e7857600080fd5b612e81846129fa565b92506020612e908186016129fa565b9250604085013567ffffffffffffffff80821115612ead57600080fd5b818701915087601f830112612ec157600080fd5b813581811115612ed357612ed3612cdd565b8060051b9150612ee4848301612d0c565b818152918301840191848101908a841115612efe57600080fd5b938501935b83851015612f1c57843582529385019390850190612f03565b8096505050505050509250925092565b7f4e487b7100000000000000000000000000000000000000000000000000000000600052601160045260246000fd5b600082821015612f6d57612f6d612f2c565b500390565b600181811c90821680612f8657607f821691505b60208210810361263a577f4e487b7100000000000000000000000000000000000000000000000000000000600052602260045260246000fd5b60008151612fd1818560208601612958565b9290920192915050565b7f416363657373436f6e74726f6c3a206d697373696e6720270000000000000000815260008251613013816018850160208701612958565b7f2720726f6c6500000000000000000000000000000000000000000000000000006018939091019283015250601e01919050565b7f4e487b7100000000000000000000000000000000000000000000000000000000600052603260045260246000fd5b6000821982111561308957613089612f2c565b500190565b600080845481600182811c9150808316806130aa57607f831692505b602080841082036130e2577f4e487b710000000000000000000000000000000000000000000000000000000086526022600452602486fd5b8180156130f6576001811461312557613152565b7fffffffffffffffffffffffffffffffffffffffffffffffffffffffffffffff00861689528489019650613152565b60008b81526020902060005b8681101561314a5781548b820152908501908301613131565b505084890196505b5050505050506131628185612fbf565b95945050505050565b60008161317a5761317a612f2c565b507fffffffffffffffffffffffffffffffffffffffffffffffffffffffffffffffff0190565b60007fffffffffffffffffffffffffffffffffffffffffffffffffffffffffffffffff82036131d1576131d1612f2c565b5060010190565b600073ffffffffffffffffffffffffffffffffffffffff8087168352808616602084015250836040830152608060608301526132176080830184612984565b9695505050505050565b60006020828403121561323357600080fd5b81516107388161290d565b600082613274577f4e487b7100000000000000000000000000000000000000000000000000000000600052601260045260246000fd5b500490565b60006020828403121561328b57600080fd5b815161073881612c98565b600080858511156132a657600080fd5b838611156132b357600080fd5b505082019391909203915056fea26469706673582212203c98b35e243d02ab768d6cf9938cc0808b82f1155692398cdaab8256ebb7e4c164736f6c634300080e0033",
  "linkReferences": {},
  "deployedLinkReferences": {}
}