{
  "_format": "hh-sol-artifact-1",
  "contractName": "ERC721Mock",
  "sourceName": "contracts/mocks/token/ERC721/ERC721Mock.sol",
  "abi": [
    {
      "inputs": [
        {
          "internalType": "string",
          "name": "name_",
          "type": "string"
        },
        {
          "internalType": "string",
          "name": "symbol_",
          "type": "string"
        },
        {
          "internalType": "string",
          "name": "tokenURI_",
          "type": "string"
        },
        {
          "internalType": "contract IForwarderRegistry",
          "name": "forwarderRegistry",
          "type": "address"
        }
      ],
      "stateMutability": "nonpayable",
      "type": "constructor"
    },
    {
      "anonymous": false,
      "inputs": [
        {
          "indexed": true,
          "internalType": "address",
          "name": "owner",
          "type": "address"
        },
        {
          "indexed": true,
          "internalType": "address",
          "name": "approved",
          "type": "address"
        },
        {
          "indexed": true,
          "internalType": "uint256",
          "name": "tokenId",
          "type": "uint256"
        }
      ],
      "name": "Approval",
      "type": "event"
    },
    {
      "anonymous": false,
      "inputs": [
        {
          "indexed": true,
          "internalType": "address",
          "name": "owner",
          "type": "address"
        },
        {
          "indexed": true,
          "internalType": "address",
          "name": "operator",
          "type": "address"
        },
        {
          "indexed": false,
          "internalType": "bool",
          "name": "approved",
          "type": "bool"
        }
      ],
      "name": "ApprovalForAll",
      "type": "event"
    },
    {
      "anonymous": false,
      "inputs": [
        {
          "indexed": true,
          "internalType": "address",
          "name": "previousOwner",
          "type": "address"
        },
        {
          "indexed": true,
          "internalType": "address",
          "name": "newOwner",
          "type": "address"
        }
      ],
      "name": "OwnershipTransferred",
      "type": "event"
    },
    {
      "anonymous": false,
      "inputs": [
        {
          "indexed": false,
          "internalType": "bytes32",
          "name": "role",
          "type": "bytes32"
        },
        {
          "indexed": false,
          "internalType": "address",
          "name": "account",
          "type": "address"
        },
        {
          "indexed": false,
          "internalType": "address",
          "name": "operator",
          "type": "address"
        }
      ],
      "name": "RoleGranted",
      "type": "event"
    },
    {
      "anonymous": false,
      "inputs": [
        {
          "indexed": false,
          "internalType": "bytes32",
          "name": "role",
          "type": "bytes32"
        },
        {
          "indexed": false,
          "internalType": "address",
          "name": "account",
          "type": "address"
        },
        {
          "indexed": false,
          "internalType": "address",
          "name": "operator",
          "type": "address"
        }
      ],
      "name": "RoleRevoked",
      "type": "event"
    },
    {
      "anonymous": false,
      "inputs": [
        {
          "indexed": true,
          "internalType": "address",
          "name": "from",
          "type": "address"
        },
        {
          "indexed": true,
          "internalType": "address",
          "name": "to",
          "type": "address"
        },
        {
          "indexed": true,
          "internalType": "uint256",
          "name": "tokenId",
          "type": "uint256"
        }
      ],
      "name": "Transfer",
      "type": "event"
    },
    {
      "inputs": [],
      "name": "MINTER_ROLE",
      "outputs": [
        {
          "internalType": "bytes32",
          "name": "",
          "type": "bytes32"
        }
      ],
      "stateMutability": "view",
      "type": "function"
    },
    {
      "inputs": [],
      "name": "__msgData",
      "outputs": [
        {
          "internalType": "bytes",
          "name": "",
          "type": "bytes"
        }
      ],
      "stateMutability": "view",
      "type": "function"
    },
    {
      "inputs": [
        {
          "internalType": "address",
          "name": "to",
          "type": "address"
        },
        {
          "internalType": "uint256",
          "name": "tokenId",
          "type": "uint256"
        }
      ],
      "name": "approve",
      "outputs": [],
      "stateMutability": "nonpayable",
      "type": "function"
    },
    {
      "inputs": [
        {
          "internalType": "address",
          "name": "owner",
          "type": "address"
        }
      ],
      "name": "balanceOf",
      "outputs": [
        {
          "internalType": "uint256",
          "name": "",
          "type": "uint256"
        }
      ],
      "stateMutability": "view",
      "type": "function"
    },
    {
      "inputs": [
        {
          "internalType": "address",
          "name": "to",
          "type": "address"
        },
        {
          "internalType": "uint256[]",
          "name": "tokenIds",
          "type": "uint256[]"
        }
      ],
      "name": "batchMint",
      "outputs": [],
      "stateMutability": "nonpayable",
      "type": "function"
    },
    {
      "inputs": [
        {
          "internalType": "address",
          "name": "from",
          "type": "address"
        },
        {
          "internalType": "address",
          "name": "to",
          "type": "address"
        },
        {
          "internalType": "uint256[]",
          "name": "tokenIds",
          "type": "uint256[]"
        }
      ],
      "name": "batchTransferFrom",
      "outputs": [],
      "stateMutability": "nonpayable",
      "type": "function"
    },
    {
      "inputs": [
        {
          "internalType": "uint256",
          "name": "tokenId",
          "type": "uint256"
        }
      ],
      "name": "getApproved",
      "outputs": [
        {
          "internalType": "address",
          "name": "operator",
          "type": "address"
        }
      ],
      "stateMutability": "view",
      "type": "function"
    },
    {
      "inputs": [
        {
          "internalType": "bytes32",
          "name": "role",
          "type": "bytes32"
        },
        {
          "internalType": "address",
          "name": "account",
          "type": "address"
        }
      ],
      "name": "grantRole",
      "outputs": [],
      "stateMutability": "nonpayable",
      "type": "function"
    },
    {
      "inputs": [
        {
          "internalType": "bytes32",
          "name": "role",
          "type": "bytes32"
        },
        {
          "internalType": "address",
          "name": "account",
          "type": "address"
        }
      ],
      "name": "hasRole",
      "outputs": [
        {
          "internalType": "bool",
          "name": "",
          "type": "bool"
        }
      ],
      "stateMutability": "view",
      "type": "function"
    },
    {
      "inputs": [
        {
          "internalType": "address",
          "name": "owner",
          "type": "address"
        },
        {
          "internalType": "address",
          "name": "operator",
          "type": "address"
        }
      ],
      "name": "isApprovedForAll",
      "outputs": [
        {
          "internalType": "bool",
          "name": "",
          "type": "bool"
        }
      ],
      "stateMutability": "view",
      "type": "function"
    },
    {
      "inputs": [
        {
          "internalType": "address",
          "name": "to",
          "type": "address"
        },
        {
          "internalType": "uint256",
          "name": "tokenId",
          "type": "uint256"
        }
      ],
      "name": "mint",
      "outputs": [],
      "stateMutability": "nonpayable",
      "type": "function"
    },
    {
      "inputs": [],
      "name": "name",
      "outputs": [
        {
          "internalType": "string",
          "name": "",
          "type": "string"
        }
      ],
      "stateMutability": "view",
      "type": "function"
    },
    {
      "inputs": [],
      "name": "owner",
      "outputs": [
        {
          "internalType": "address",
          "name": "",
          "type": "address"
        }
      ],
      "stateMutability": "view",
      "type": "function"
    },
    {
      "inputs": [
        {
          "internalType": "uint256",
          "name": "tokenId",
          "type": "uint256"
        }
      ],
      "name": "ownerOf",
      "outputs": [
        {
          "internalType": "address",
          "name": "",
          "type": "address"
        }
      ],
      "stateMutability": "view",
      "type": "function"
    },
    {
      "inputs": [
        {
          "internalType": "bytes32",
          "name": "role",
          "type": "bytes32"
        }
      ],
      "name": "renounceRole",
      "outputs": [],
      "stateMutability": "nonpayable",
      "type": "function"
    },
    {
      "inputs": [
        {
          "internalType": "bytes32",
          "name": "role",
          "type": "bytes32"
        },
        {
          "internalType": "address",
          "name": "account",
          "type": "address"
        }
      ],
      "name": "revokeRole",
      "outputs": [],
      "stateMutability": "nonpayable",
      "type": "function"
    },
    {
      "inputs": [
        {
          "internalType": "address",
          "name": "to",
          "type": "address"
        },
        {
          "internalType": "uint256",
          "name": "tokenId",
          "type": "uint256"
        },
        {
          "internalType": "bytes",
          "name": "data",
          "type": "bytes"
        }
      ],
      "name": "safeMint",
      "outputs": [],
      "stateMutability": "nonpayable",
      "type": "function"
    },
    {
      "inputs": [
        {
          "internalType": "address",
          "name": "from",
          "type": "address"
        },
        {
          "internalType": "address",
          "name": "to",
          "type": "address"
        },
        {
          "internalType": "uint256",
          "name": "tokenId",
          "type": "uint256"
        }
      ],
      "name": "safeTransferFrom",
      "outputs": [],
      "stateMutability": "nonpayable",
      "type": "function"
    },
    {
      "inputs": [
        {
          "internalType": "address",
          "name": "from",
          "type": "address"
        },
        {
          "internalType": "address",
          "name": "to",
          "type": "address"
        },
        {
          "internalType": "uint256",
          "name": "tokenId",
          "type": "uint256"
        },
        {
          "internalType": "bytes",
          "name": "_data",
          "type": "bytes"
        }
      ],
      "name": "safeTransferFrom",
      "outputs": [],
      "stateMutability": "nonpayable",
      "type": "function"
    },
    {
      "inputs": [
        {
          "internalType": "address",
          "name": "operator",
          "type": "address"
        },
        {
          "internalType": "bool",
          "name": "_approved",
          "type": "bool"
        }
      ],
      "name": "setApprovalForAll",
      "outputs": [],
      "stateMutability": "nonpayable",
      "type": "function"
    },
    {
      "inputs": [
        {
          "internalType": "bytes4",
          "name": "interfaceId",
          "type": "bytes4"
        }
      ],
      "name": "supportsInterface",
      "outputs": [
        {
          "internalType": "bool",
          "name": "",
          "type": "bool"
        }
      ],
      "stateMutability": "view",
      "type": "function"
    },
    {
      "inputs": [],
      "name": "symbol",
      "outputs": [
        {
          "internalType": "string",
          "name": "",
          "type": "string"
        }
      ],
      "stateMutability": "view",
      "type": "function"
    },
    {
      "inputs": [
        {
          "internalType": "uint256",
          "name": "tokenId",
          "type": "uint256"
        }
      ],
      "name": "tokenURI",
      "outputs": [
        {
          "internalType": "string",
          "name": "",
          "type": "string"
        }
      ],
      "stateMutability": "view",
      "type": "function"
    },
    {
      "inputs": [
        {
          "internalType": "address",
          "name": "from",
          "type": "address"
        },
        {
          "internalType": "address",
          "name": "to",
          "type": "address"
        },
        {
          "internalType": "uint256",
          "name": "tokenId",
          "type": "uint256"
        }
      ],
      "name": "transferFrom",
      "outputs": [],
      "stateMutability": "nonpayable",
      "type": "function"
    },
    {
      "inputs": [
        {
          "internalType": "address",
          "name": "newOwner",
          "type": "address"
        }
      ],
      "name": "transferOwnership",
      "outputs": [],
      "stateMutability": "nonpayable",
      "type": "function"
    }
  ],
  "bytecode": "0x60a06040523480156200001157600080fd5b5060405162003a1c38038062003a1c8339810160408190526200003491620006b2565b83838383803362000064620000536200015e60201b620007fa1760201c565b6200019460201b620008281760201c565b62000092816200007e6200020160201b620008921760201c565b6200023160201b620008c01790919060201c565b50620000cb638e773e1360e01b6001620000b6620002af60201b620009721760201c565b620002df60201b620009a0179092919060201c565b6001600160a01b031660805250620000fc63f3993d1160e01b6001620000b6620002af602090811b6200097217901c565b6200012e838383620001186200036d60201b62000a951760201c565b6200039d60201b62000ac317909392919060201c565b62000151635b5e139f60e01b6001620000b6620002af60201b620009721760201c565b50505050505050620007c7565b6000806200018e60017fddf3ee18ae6d688373c219468f8be446e7ae82215f4779d821c7ea5e8c13c0c162000765565b92915050565b620001db620001c560017ffddcdbf8ca7eb362a678daf3643ce3cf98ebf69ac314d25d376d5aeabd2f533262000765565b60001b60016200043c60201b62000b461760201c565b620001fe6380ac58cd60e01b6001620000b6620002af60201b620009721760201c565b50565b6000806200018e60017fc9ed16f33ab3a66c84bfd83099ccb2a8845871e2e1c1928f63797152f0fd54cd62000765565b6001600160a01b03811615620002885781546001600160a01b0319166001600160a01b03821690811783556040516000907f8be0079c531659141344cd1fd0a4f28419497f9722a3daafe3b4186f6b6457e0908290a35b620002ab6307f5828d60e41b6001620000b6620002af60201b620009721760201c565b5050565b6000806200018e60017fca9d3e17f264b0f3984e2634e94adb37fa3e6a8103f06aeae6fa59e21c769f5e62000765565b6001600160e01b031980831690036200033f5760405162461bcd60e51b815260206004820152601f60248201527f496e74657266616365446574656374696f6e3a2077726f6e672076616c75650060448201526064015b60405180910390fd5b6001600160e01b03199190911660009081526020929092526040909120805460ff1916911515919091179055565b6000806200018e60017f5f5773833f4966721eb3773ed87c7208ea74d78f0d94de1d8074345cac67333f62000765565b620003ce620001c560017fdf2ee7965c9504dc84db8f7759fc283282800c5a2fa3704c9f07f446b3b40a3f62000765565b620003fe8383620003e9620004af60201b62000bb61760201c565b620004df60201b62000be4179092919060201c565b80516200041290859060208401906200053f565b5062000436635b5e139f60e01b6001620000b6620002af60201b620009721760201c565b50505050565b600062000454836200053c60201b62000c3a1760201c565b905081816000015410620004ab5760405162461bcd60e51b815260206004820152601860248201527f53746f726167653a2076657273696f6e20726561636865640000000000000000604482015260640162000336565b5550565b6000806200018e60017f9c4269c0f9f430d98876ffe9767fbf3f3232ea91a549beb549e5329532520eb362000765565b62000510620001c560017fa057eeb6560fae2987973d3bf40b89e6da66dd0b6aadac05dc6b5b0d7a8d455762000765565b81516200052490849060208501906200053f565b5080516200043690600185019060208401906200053f565b90565b8280546200054d906200078b565b90600052602060002090601f016020900481019282620005715760008555620005bc565b82601f106200058c57805160ff1916838001178555620005bc565b82800160010185558215620005bc579182015b82811115620005bc5782518255916020019190600101906200059f565b50620005ca929150620005ce565b5090565b5b80821115620005ca5760008155600101620005cf565b634e487b7160e01b600052604160045260246000fd5b600082601f8301126200060d57600080fd5b81516001600160401b03808211156200062a576200062a620005e5565b604051601f8301601f19908116603f01168101908282118183101715620006555762000655620005e5565b816040528381526020925086838588010111156200067257600080fd5b600091505b8382101562000696578582018301518183018401529082019062000677565b83821115620006a85760008385830101525b9695505050505050565b60008060008060808587031215620006c957600080fd5b84516001600160401b0380821115620006e157600080fd5b620006ef88838901620005fb565b955060208701519150808211156200070657600080fd5b6200071488838901620005fb565b945060408701519150808211156200072b57600080fd5b506200073a87828801620005fb565b606087015190935090506001600160a01b03811681146200075a57600080fd5b939692955090935050565b6000828210156200078657634e487b7160e01b600052601160045260246000fd5b500390565b600181811c90821680620007a057607f821691505b602082108103620007c157634e487b7160e01b600052602260045260246000fd5b50919050565b608051613224620007f860003960008181612552015281816125f20152818161268601526126f001526132246000f3fe608060405234801561001057600080fd5b50600436106101a35760003560e01c80638832e6e3116100ee578063b88d4fde11610097578063d547741f11610071578063d547741f14610384578063e985e9c514610397578063f2fde38b146103aa578063f3993d11146103bd57600080fd5b8063b88d4fde14610337578063c87b56dd1461034a578063d53913931461035d57600080fd5b806391d14854116100c857806391d148541461030957806395d89b411461031c578063a22cb4651461032457600080fd5b80638832e6e3146102db5780638bb9c5bf146102ee5780638da5cb5b1461030157600080fd5b806331e66e1e116101505780634684d7e91161012a5780634684d7e9146102945780636352211e146102a757806370a08231146102ba57600080fd5b806331e66e1e1461025857806340c10f191461026e57806342842e0e1461028157600080fd5b8063095ea7b311610181578063095ea7b31461021d57806323b872dd146102325780632f2ff15d1461024557600080fd5b806301ffc9a7146101a857806306fdde03146101d0578063081812fc146101e5575b600080fd5b6101bb6101b63660046128d7565b6103d0565b60405190151581526020015b60405180910390f35b6101d86103ea565b6040516101c7919061296a565b6101f86101f336600461297d565b610401565b60405173ffffffffffffffffffffffffffffffffffffffff90911681526020016101c7565b61023061022b3660046129bf565b610415565b005b6102306102403660046129e9565b610436565b610230610253366004612a25565b61045a565b61026061048e565b6040516101c7929190612a51565b61023061027c3660046129bf565b6104a1565b61023061028f3660046129e9565b61050d565b6102306102a2366004612a9e565b61052c565b6101f86102b536600461297d565b6105a0565b6102cd6102c8366004612b24565b6105b4565b6040519081526020016101c7565b6102306102e9366004612b3f565b6105c8565b6102306102fc36600461297d565b61064a565b6101f8610668565b6101bb610317366004612a25565b61068f565b6101d86106da565b610230610332366004612bd4565b6106ec565b610230610345366004612c89565b610709565b6101d861035836600461297d565b61072a565b6102cd7f6d696e746572000000000000000000000000000000000000000000000000000081565b610230610392366004612a25565b61074b565b6101bb6103a5366004612d67565b610779565b6102306103b8366004612b24565b6107c0565b6102306103cb366004612d91565b6107db565b60006103e4826103de610972565b90610c3d565b92915050565b60606103fc6103f7610bb6565b610cfb565b905090565b60006103e48261040f6107fa565b90610d91565b610432610420610e74565b838361042a6107fa565b929190610e7e565b5050565b610455610441610e74565b84848461044c6107fa565b9392919061113a565b505050565b6000610464610e74565b905061047881610472610892565b90611160565b6104558383836104866111e3565b929190611211565b3660006104996112e7565b915091509091565b6104dc7f6d696e74657200000000000000000000000000000000000000000000000000006104cd610e74565b6104d56111e3565b91906112f2565b6104326104e7610e74565b83836040518060200160405280600081525060006105036107fa565b949392919061139e565b610455610518610e74565b8484846105236107fa565b939291906114ab565b6105587f6d696e74657200000000000000000000000000000000000000000000000000006104cd610e74565b6104558383838080602002602001604051908101604052809392919081815260200183836020028082843760009201919091525061059992506107fa915050565b91906114ca565b60006103e4826105ae6107fa565b9061160f565b60006103e4826105c26107fa565b9061169d565b6105f47f6d696e74657200000000000000000000000000000000000000000000000000006104cd610e74565b6106446105ff610e74565b858585858080601f0160208091040260200160405190810160405280939291908181526020018383808284376000920191909152506001925061050391506107fa9050565b50505050565b610665610655610e74565b8261065e6111e3565b9190611749565b50565b60006103fc610675610892565b5473ffffffffffffffffffffffffffffffffffffffff1690565b60006106d3838361069e6111e3565b60009283526020908152604080842073ffffffffffffffffffffffffffffffffffffffff909316845291905290205460ff1690565b9392505050565b60606103fc6106e7610bb6565b6117ed565b6104326106f7610e74565b83836107016107fa565b9291906117fe565b610644610714610e74565b858585856107206107fa565b949392919061192a565b6060610738826105ae6107fa565b506103e482610745610a95565b9061193a565b6000610755610e74565b905061076381610472610892565b6104558383836107716111e3565b92919061196e565b60006106d383836107886107fa565b73ffffffffffffffffffffffffffffffffffffffff928316600090815260209182526040808220939094168152919052205460ff1690565b6106656107cb610e74565b826107d4610892565b9190611a38565b6104556107e6610e74565b8484846107f16107fa565b93929190611b64565b6000806103e460017fddf3ee18ae6d688373c219468f8be446e7ae82215f4779d821c7ea5e8c13c0c1612e89565b61085d61085660017ffddcdbf8ca7eb362a678daf3643ce3cf98ebf69ac314d25d376d5aeabd2f5332612e89565b6001610b46565b6106657f80ac58cd00000000000000000000000000000000000000000000000000000000600161088b610972565b91906109a0565b6000806103e460017fc9ed16f33ab3a66c84bfd83099ccb2a8845871e2e1c1928f63797152f0fd54cd612e89565b73ffffffffffffffffffffffffffffffffffffffff8116156109485781547fffffffffffffffffffffffff00000000000000000000000000000000000000001673ffffffffffffffffffffffffffffffffffffffff821690811783556040516000907f8be0079c531659141344cd1fd0a4f28419497f9722a3daafe3b4186f6b6457e0908290a35b6104327f7f5828d000000000000000000000000000000000000000000000000000000000600161088b5b6000806103e460017fca9d3e17f264b0f3984e2634e94adb37fa3e6a8103f06aeae6fa59e21c769f5e612e89565b7fffffffff000000000000000000000000000000000000000000000000000000008083169003610a31576040517f08c379a000000000000000000000000000000000000000000000000000000000815260206004820152601f60248201527f496e74657266616365446574656374696f6e3a2077726f6e672076616c75650060448201526064015b60405180910390fd5b7fffffffff00000000000000000000000000000000000000000000000000000000919091166000908152602092909252604090912080547fffffffffffffffffffffffffffffffffffffffffffffffffffffffffffffff0016911515919091179055565b6000806103e460017f5f5773833f4966721eb3773ed87c7208ea74d78f0d94de1d8074345cac67333f612e89565b610af161085660017fdf2ee7965c9504dc84db8f7759fc283282800c5a2fa3704c9f07f446b3b40a3f612e89565b610b058383610afe610bb6565b9190610be4565b8051610b179085906020840190612810565b506106447f5b5e139f00000000000000000000000000000000000000000000000000000000600161088b610972565b815482908211610bb2576040517f08c379a000000000000000000000000000000000000000000000000000000000815260206004820152601860248201527f53746f726167653a2076657273696f6e207265616368656400000000000000006044820152606401610a28565b5550565b6000806103e460017f9c4269c0f9f430d98876ffe9767fbf3f3232ea91a549beb549e5329532520eb3612e89565b610c1261085660017fa057eeb6560fae2987973d3bf40b89e6da66dd0b6aadac05dc6b5b0d7a8d4557612e89565b8151610c249084906020850190612810565b5080516106449060018501906020840190612810565b90565b60007fffffffff000000000000000000000000000000000000000000000000000000008083169003610c71575060006103e4565b7ffe003659000000000000000000000000000000000000000000000000000000007fffffffff00000000000000000000000000000000000000000000000000000000831601610cc2575060016103e4565b507fffffffff00000000000000000000000000000000000000000000000000000000166000908152602091909152604090205460ff1690565b6060816000018054610d0c90612ea0565b80601f0160208091040260200160405190810160405280929190818152602001828054610d3890612ea0565b8015610d855780601f10610d5a57610100808354040283529160200191610d85565b820191906000526020600020905b815481529060010190602001808311610d6857829003601f168201915b50505050509050919050565b600081815260018301602052604081205473ffffffffffffffffffffffffffffffffffffffff8116610e1f576040517f08c379a000000000000000000000000000000000000000000000000000000000815260206004820152601860248201527f4552433732313a206e6f6e2d6578697374696e67204e465400000000000000006044820152606401610a28565b74010000000000000000000000000000000000000000811615610e6a575050600081815260038301602052604090205473ffffffffffffffffffffffffffffffffffffffff166103e4565b60009150506103e4565b60006103fc611cab565b600081815260018501602052604081205490819003610ef9576040517f08c379a000000000000000000000000000000000000000000000000000000000815260206004820152601860248201527f4552433732313a206e6f6e2d6578697374696e67204e465400000000000000006044820152606401610a28565b8073ffffffffffffffffffffffffffffffffffffffff80821690851603610f7c576040517f08c379a000000000000000000000000000000000000000000000000000000000815260206004820152601560248201527f4552433732313a2073656c662d617070726f76616c00000000000000000000006044820152606401610a28565b610f87868287611cb5565b610fed576040517f08c379a000000000000000000000000000000000000000000000000000000000815260206004820152601b60248201527f4552433732313a206e6f6e2d617070726f7665642073656e64657200000000006044820152606401610a28565b73ffffffffffffffffffffffffffffffffffffffff8416611054577401000000000000000000000000000000000000000082161561104f576000838152600187016020526040902073ffffffffffffffffffffffffffffffffffffffff821690555b6110d7565b74010000000000000000000000000000000000000000821780831461108757600084815260018801602052604090208190555b506000838152600387016020526040902080547fffffffffffffffffffffffff00000000000000000000000000000000000000001673ffffffffffffffffffffffffffffffffffffffff86161790555b828473ffffffffffffffffffffffffffffffffffffffff168273ffffffffffffffffffffffffffffffffffffffff167f8c5be1e5ebec7d5bd14f71427d1e84f3dd0314c0f7b2291e5b200ac8c7c3b92560405160405180910390a4505050505050565b6111598585858585604051806020016040528060008152506000611d29565b5050505050565b815473ffffffffffffffffffffffffffffffffffffffff828116911614610432576040517f08c379a000000000000000000000000000000000000000000000000000000000815260206004820152601860248201527f4f776e6572736869703a206e6f7420746865206f776e657200000000000000006044820152606401610a28565b6000806103e460017fc8827d3282af6f37b64c3e9e6f3ac9df286ab0bb0fccd6f8661bf19adb368b23612e89565b60008381526020858152604080832073ffffffffffffffffffffffffffffffffffffffff8616845290915290205460ff166106445760008381526020858152604080832073ffffffffffffffffffffffffffffffffffffffff8681168086529184529382902080547fffffffffffffffffffffffffffffffffffffffffffffffffffffffffffffff00166001179055815187815292830152918316918101919091527f2f8788117e7eff1d82e926ec794901d17c78024a50270940304540a733656f0d906060015b60405180910390a150505050565b366000610499611e5f565b60008281526020848152604080832073ffffffffffffffffffffffffffffffffffffffff8516845290915290205460ff166104555761133082611e6a565b6040516020016113409190612f09565b604080517fffffffffffffffffffffffffffffffffffffffffffffffffffffffffffffffe0818403018152908290527f08c379a0000000000000000000000000000000000000000000000000000000008252610a289160040161296a565b73ffffffffffffffffffffffffffffffffffffffff841661141b576040517f08c379a000000000000000000000000000000000000000000000000000000000815260206004820152601460248201527f4552433732313a206d696e7420746f207a65726f0000000000000000000000006044820152606401610a28565b6114288685856000611ff4565b604051839073ffffffffffffffffffffffffffffffffffffffff8616906000907fddf252ad1be2c89b69c2b068fc378daa952ba7f163c4a11628f55a4df523b3ef908290a4808015611490575073ffffffffffffffffffffffffffffffffffffffff84163b15155b156114a3576114a38560008686866120cd565b505050505050565b6111598585858585604051806020016040528060008152506001611d29565b73ffffffffffffffffffffffffffffffffffffffff8216611547576040517f08c379a000000000000000000000000000000000000000000000000000000000815260206004820152601460248201527f4552433732313a206d696e7420746f207a65726f0000000000000000000000006044820152606401610a28565b805160005b8181146115cc57600083828151811061156757611567612f75565b6020026020010151905061157e8686836001611ff4565b604051819073ffffffffffffffffffffffffffffffffffffffff8716906000907fddf252ad1be2c89b69c2b068fc378daa952ba7f163c4a11628f55a4df523b3ef908290a45060010161154c565b5073ffffffffffffffffffffffffffffffffffffffff8316600090815260028501602052604081208054839290611604908490612fa4565b909155505050505050565b600081815260018301602052604081205473ffffffffffffffffffffffffffffffffffffffff81166106d3576040517f08c379a000000000000000000000000000000000000000000000000000000000815260206004820152601860248201527f4552433732313a206e6f6e2d6578697374696e67204e465400000000000000006044820152606401610a28565b600073ffffffffffffffffffffffffffffffffffffffff821661171c576040517f08c379a000000000000000000000000000000000000000000000000000000000815260206004820152601460248201527f4552433732313a207a65726f20616464726573730000000000000000000000006044820152606401610a28565b5073ffffffffffffffffffffffffffffffffffffffff166000908152600291909101602052604090205490565b6117548382846112f2565b60008181526020848152604080832073ffffffffffffffffffffffffffffffffffffffff86168085529083529281902080547fffffffffffffffffffffffffffffffffffffffffffffffffffffffffffffff0016905580518481529182018390528101919091527ff6391f5c32d9c69d2a47ea670b442974b53935d1edc7fd64eb21e047a839171b9060600160405180910390a1505050565b6060816001018054610d0c90612ea0565b8273ffffffffffffffffffffffffffffffffffffffff168273ffffffffffffffffffffffffffffffffffffffff1603611893576040517f08c379a000000000000000000000000000000000000000000000000000000000815260206004820152601560248201527f4552433732313a2073656c662d617070726f76616c00000000000000000000006044820152606401610a28565b73ffffffffffffffffffffffffffffffffffffffff8381166000818152602087815260408083209487168084529482529182902080547fffffffffffffffffffffffffffffffffffffffffffffffffffffffffffffff001686151590811790915591519182527f17307eab39ab6107e8899845ad3d59bd9653f200f220920489ca2b5937696c31910160405180910390a350505050565b6114a38686868686866001611d29565b606082611946836121f3565b604051602001611957929190612fbc565b604051602081830303815290604052905092915050565b60008381526020858152604080832073ffffffffffffffffffffffffffffffffffffffff8616845290915290205460ff16156106445760008381526020858152604080832073ffffffffffffffffffffffffffffffffffffffff8681168086529184529382902080547fffffffffffffffffffffffffffffffffffffffffffffffffffffffffffffff00169055815187815292830152918316918101919091527ff6391f5c32d9c69d2a47ea670b442974b53935d1edc7fd64eb21e047a839171b906060016112d9565b825473ffffffffffffffffffffffffffffffffffffffff9081169083168114611abd576040517f08c379a000000000000000000000000000000000000000000000000000000000815260206004820152601860248201527f4f776e6572736869703a206e6f7420746865206f776e657200000000000000006044820152606401610a28565b8173ffffffffffffffffffffffffffffffffffffffff168173ffffffffffffffffffffffffffffffffffffffff16146106445783547fffffffffffffffffffffffff00000000000000000000000000000000000000001673ffffffffffffffffffffffffffffffffffffffff8381169182178655604051908316907f8be0079c531659141344cd1fd0a4f28419497f9722a3daafe3b4186f6b6457e090600090a350505050565b73ffffffffffffffffffffffffffffffffffffffff8216611be1576040517f08c379a000000000000000000000000000000000000000000000000000000000815260206004820152601860248201527f4552433732313a207472616e7366657220746f207a65726f00000000000000006044820152606401610a28565b6000611bee868587611cb5565b825190915060005b818114611c8f576000848281518110611c1157611c11612f75565b60200260200101519050611c2b898989898589600161231e565b808673ffffffffffffffffffffffffffffffffffffffff168873ffffffffffffffffffffffffffffffffffffffff167fddf252ad1be2c89b69c2b068fc378daa952ba7f163c4a11628f55a4df523b3ef60405160405180910390a450600101611bf6565b508015611ca257611ca2878686846124a1565b50505050505050565b60006103fc612516565b60008173ffffffffffffffffffffffffffffffffffffffff168373ffffffffffffffffffffffffffffffffffffffff161480611d21575073ffffffffffffffffffffffffffffffffffffffff8084166000908152602086815260408083209386168352929052205460ff165b949350505050565b73ffffffffffffffffffffffffffffffffffffffff8416611da6576040517f08c379a000000000000000000000000000000000000000000000000000000000815260206004820152601860248201527f4552433732313a207472616e7366657220746f207a65726f00000000000000006044820152606401610a28565b6000611db3888789611cb5565b9050611dc5888888888886600061231e565b838573ffffffffffffffffffffffffffffffffffffffff168773ffffffffffffffffffffffffffffffffffffffff167fddf252ad1be2c89b69c2b068fc378daa952ba7f163c4a11628f55a4df523b3ef60405160405180910390a4818015611e43575073ffffffffffffffffffffffffffffffffffffffff85163b15155b15611e5557611e5587878787876120cd565b5050505050505050565b36600061049961266e565b60606000829003611e8957505060408051602081019091526000815290565b600082604051602001611e9e91815260200190565b604080517fffffffffffffffffffffffffffffffffffffffffffffffffffffffffffffffe08184030181529190529050601f5b818181518110611ee357611ee3612f75565b01602001517fff0000000000000000000000000000000000000000000000000000000000000016600003611f2157611f1a81613099565b9050611ed1565b6000611f2e826001612fa4565b67ffffffffffffffff811115611f4657611f46612c0b565b6040519080825280601f01601f191660200182016040528015611f70576020820181803683370190505b50905060005b828111611feb57838181518110611f8f57611f8f612f75565b602001015160f81c60f81b828281518110611fac57611fac612f75565b60200101907effffffffffffffffffffffffffffffffffffffffffffffffffffffffffffff1916908160001a905350611fe4816130ce565b9050611f76565b50949350505050565b60008281526001850160205260409020541561206c576040517f08c379a000000000000000000000000000000000000000000000000000000000815260206004820152601a60248201527f4552433732313a206578697374696e672f6275726e74204e46540000000000006044820152606401610a28565b6000828152600185016020526040902073ffffffffffffffffffffffffffffffffffffffff841690558061064457505073ffffffffffffffffffffffffffffffffffffffff1660009081526002919091016020526040902080546001019055565b6040517f150b7a02000000000000000000000000000000000000000000000000000000008082529073ffffffffffffffffffffffffffffffffffffffff85169063150b7a0290612127908990899088908890600401613106565b6020604051808303816000875af1158015612146573d6000803e3d6000fd5b505050506040513d601f19601f8201168201806040525081019061216a919061314f565b7fffffffff000000000000000000000000000000000000000000000000000000001614611159576040517f08c379a000000000000000000000000000000000000000000000000000000000815260206004820152601860248201527f4552433732313a207472616e73666572207265667573656400000000000000006044820152606401610a28565b60608160000361223657505060408051808201909152600181527f3000000000000000000000000000000000000000000000000000000000000000602082015290565b8160005b8115612260578061224a816130ce565b91506122599050600a8361316c565b915061223a565b60008167ffffffffffffffff81111561227b5761227b612c0b565b6040519080825280601f01601f1916602001820160405280156122a5576020820181803683370190505b50905060006122b5600184612e89565b90508593505b8315611feb57600a840660300160f81b828280600190039350815181106122e4576122e4612f75565b60200101907effffffffffffffffffffffffffffffffffffffffffffffffffffffffffffff1916908160001a905350600a840493506122bb565b600083815260018801602052604090205473ffffffffffffffffffffffffffffffffffffffff868116908216146123b1576040517f08c379a000000000000000000000000000000000000000000000000000000000815260206004820152601560248201527f4552433732313a206e6f6e2d6f776e6564204e465400000000000000000000006044820152606401610a28565b8261246a57740100000000000000000000000000000000000000008116158015906124045750600084815260038901602052604090205473ffffffffffffffffffffffffffffffffffffffff8881169116145b61246a576040517f08c379a000000000000000000000000000000000000000000000000000000000815260206004820152601b60248201527f4552433732313a206e6f6e2d617070726f7665642073656e64657200000000006044820152606401610a28565b6000848152600189016020526040902073ffffffffffffffffffffffffffffffffffffffff8616905581611e5557611e5588878760015b8173ffffffffffffffffffffffffffffffffffffffff168373ffffffffffffffffffffffffffffffffffffffff16146106445773ffffffffffffffffffffffffffffffffffffffff80841660009081526002860160205260408082208054859003905591841681522080548201905550505050565b60003332810361252557919050565b6000367fffffffffffffffffffffffffffffffffffffffffffffffffffffffffffffffec013560601c90507f000000000000000000000000000000000000000000000000000000000000000073ffffffffffffffffffffffffffffffffffffffff168273ffffffffffffffffffffffffffffffffffffffff16148061265d57506040517fe60125d600000000000000000000000000000000000000000000000000000000815273ffffffffffffffffffffffffffffffffffffffff828116600483015283811660248301527f0000000000000000000000000000000000000000000000000000000000000000169063e60125d690604401602060405180830381865afa158015612639573d6000803e3d6000fd5b505050506040513d601f19601f8201168201806040525081019061265d91906131a7565b156126685792915050565b50919050565b3660003332810361268457506000923692509050565b7f000000000000000000000000000000000000000000000000000000000000000073ffffffffffffffffffffffffffffffffffffffff168173ffffffffffffffffffffffffffffffffffffffff1614806127d1575073ffffffffffffffffffffffffffffffffffffffff7f00000000000000000000000000000000000000000000000000000000000000001663e60125d6367fffffffffffffffffffffffffffffffffffffffffffffffffffffffffffffffec013560601c6040517fffffffff0000000000000000000000000000000000000000000000000000000060e084901b16815273ffffffffffffffffffffffffffffffffffffffff91821660048201529084166024820152604401602060405180830381865afa1580156127ad573d6000803e3d6000fd5b505050506040513d601f19601f820116820180604052508101906127d191906131a7565b156127e7576127de6127f2565b92509250509091565b506000923692509050565b366000808083612803601482612e89565b92610499939291906131c4565b82805461281c90612ea0565b90600052602060002090601f01602090048101928261283e5760008555612884565b82601f1061285757805160ff1916838001178555612884565b82800160010185558215612884579182015b82811115612884578251825591602001919060010190612869565b50612890929150612894565b5090565b5b808211156128905760008155600101612895565b7fffffffff000000000000000000000000000000000000000000000000000000008116811461066557600080fd5b6000602082840312156128e957600080fd5b81356106d3816128a9565b60005b8381101561290f5781810151838201526020016128f7565b838111156106445750506000910152565b600081518084526129388160208601602086016128f4565b601f017fffffffffffffffffffffffffffffffffffffffffffffffffffffffffffffffe0169290920160200192915050565b6020815260006106d36020830184612920565b60006020828403121561298f57600080fd5b5035919050565b803573ffffffffffffffffffffffffffffffffffffffff811681146129ba57600080fd5b919050565b600080604083850312156129d257600080fd5b6129db83612996565b946020939093013593505050565b6000806000606084860312156129fe57600080fd5b612a0784612996565b9250612a1560208501612996565b9150604084013590509250925092565b60008060408385031215612a3857600080fd5b82359150612a4860208401612996565b90509250929050565b60208152816020820152818360408301376000818301604090810191909152601f9092017fffffffffffffffffffffffffffffffffffffffffffffffffffffffffffffffe0160101919050565b600080600060408486031215612ab357600080fd5b612abc84612996565b9250602084013567ffffffffffffffff80821115612ad957600080fd5b818601915086601f830112612aed57600080fd5b813581811115612afc57600080fd5b8760208260051b8501011115612b1157600080fd5b6020830194508093505050509250925092565b600060208284031215612b3657600080fd5b6106d382612996565b60008060008060608587031215612b5557600080fd5b612b5e85612996565b935060208501359250604085013567ffffffffffffffff80821115612b8257600080fd5b818701915087601f830112612b9657600080fd5b813581811115612ba557600080fd5b886020828501011115612bb757600080fd5b95989497505060200194505050565b801515811461066557600080fd5b60008060408385031215612be757600080fd5b612bf083612996565b91506020830135612c0081612bc6565b809150509250929050565b7f4e487b7100000000000000000000000000000000000000000000000000000000600052604160045260246000fd5b604051601f82017fffffffffffffffffffffffffffffffffffffffffffffffffffffffffffffffe016810167ffffffffffffffff81118282101715612c8157612c81612c0b565b604052919050565b60008060008060808587031215612c9f57600080fd5b612ca885612996565b93506020612cb7818701612996565b935060408601359250606086013567ffffffffffffffff80821115612cdb57600080fd5b818801915088601f830112612cef57600080fd5b813581811115612d0157612d01612c0b565b612d31847fffffffffffffffffffffffffffffffffffffffffffffffffffffffffffffffe0601f84011601612c3a565b91508082528984828501011115612d4757600080fd5b808484018584013760008482840101525080935050505092959194509250565b60008060408385031215612d7a57600080fd5b612d8383612996565b9150612a4860208401612996565b600080600060608486031215612da657600080fd5b612daf84612996565b92506020612dbe818601612996565b9250604085013567ffffffffffffffff80821115612ddb57600080fd5b818701915087601f830112612def57600080fd5b813581811115612e0157612e01612c0b565b8060051b9150612e12848301612c3a565b818152918301840191848101908a841115612e2c57600080fd5b938501935b83851015612e4a57843582529385019390850190612e31565b8096505050505050509250925092565b7f4e487b7100000000000000000000000000000000000000000000000000000000600052601160045260246000fd5b600082821015612e9b57612e9b612e5a565b500390565b600181811c90821680612eb457607f821691505b602082108103612668577f4e487b7100000000000000000000000000000000000000000000000000000000600052602260045260246000fd5b60008151612eff8185602086016128f4565b9290920192915050565b7f416363657373436f6e74726f6c3a206d697373696e6720270000000000000000815260008251612f418160188501602087016128f4565b7f2720726f6c6500000000000000000000000000000000000000000000000000006018939091019283015250601e01919050565b7f4e487b7100000000000000000000000000000000000000000000000000000000600052603260045260246000fd5b60008219821115612fb757612fb7612e5a565b500190565b600080845481600182811c915080831680612fd857607f831692505b60208084108203613010577f4e487b710000000000000000000000000000000000000000000000000000000086526022600452602486fd5b818015613024576001811461305357613080565b7fffffffffffffffffffffffffffffffffffffffffffffffffffffffffffffff00861689528489019650613080565b60008b81526020902060005b868110156130785781548b82015290850190830161305f565b505084890196505b5050505050506130908185612eed565b95945050505050565b6000816130a8576130a8612e5a565b507fffffffffffffffffffffffffffffffffffffffffffffffffffffffffffffffff0190565b60007fffffffffffffffffffffffffffffffffffffffffffffffffffffffffffffffff82036130ff576130ff612e5a565b5060010190565b600073ffffffffffffffffffffffffffffffffffffffff8087168352808616602084015250836040830152608060608301526131456080830184612920565b9695505050505050565b60006020828403121561316157600080fd5b81516106d3816128a9565b6000826131a2577f4e487b7100000000000000000000000000000000000000000000000000000000600052601260045260246000fd5b500490565b6000602082840312156131b957600080fd5b81516106d381612bc6565b600080858511156131d457600080fd5b838611156131e157600080fd5b505082019391909203915056fea2646970667358221220d4e12cce0f56e26182e1f6ae885178dc67ad759d13bc48186d1c34bbc5cc6b7d64736f6c634300080e0033",
  "linkReferences": {},
  "deployedLinkReferences": {}
}