{
  "_format": "hh-sol-artifact-1",
  "contractName": "ERC721BurnableMock",
  "sourceName": "contracts/mocks/token/ERC721/ERC721BurnableMock.sol",
  "abi": [
    {
      "inputs": [
        {
          "internalType": "string",
          "name": "name_",
          "type": "string"
        },
        {
          "internalType": "string",
          "name": "symbol_",
          "type": "string"
        },
        {
          "internalType": "string",
          "name": "tokenURI_",
          "type": "string"
        }
      ],
      "stateMutability": "nonpayable",
      "type": "constructor"
    },
    {
      "anonymous": false,
      "inputs": [
        {
          "indexed": true,
          "internalType": "address",
          "name": "owner",
          "type": "address"
        },
        {
          "indexed": true,
          "internalType": "address",
          "name": "approved",
          "type": "address"
        },
        {
          "indexed": true,
          "internalType": "uint256",
          "name": "tokenId",
          "type": "uint256"
        }
      ],
      "name": "Approval",
      "type": "event"
    },
    {
      "anonymous": false,
      "inputs": [
        {
          "indexed": true,
          "internalType": "address",
          "name": "owner",
          "type": "address"
        },
        {
          "indexed": true,
          "internalType": "address",
          "name": "operator",
          "type": "address"
        },
        {
          "indexed": false,
          "internalType": "bool",
          "name": "approved",
          "type": "bool"
        }
      ],
      "name": "ApprovalForAll",
      "type": "event"
    },
    {
      "anonymous": false,
      "inputs": [
        {
          "indexed": true,
          "internalType": "address",
          "name": "from",
          "type": "address"
        },
        {
          "indexed": true,
          "internalType": "address",
          "name": "to",
          "type": "address"
        },
        {
          "indexed": true,
          "internalType": "uint256",
          "name": "tokenId",
          "type": "uint256"
        }
      ],
      "name": "Transfer",
      "type": "event"
    },
    {
      "inputs": [
        {
          "internalType": "address",
          "name": "to",
          "type": "address"
        },
        {
          "internalType": "uint256",
          "name": "tokenId",
          "type": "uint256"
        }
      ],
      "name": "approve",
      "outputs": [],
      "stateMutability": "nonpayable",
      "type": "function"
    },
    {
      "inputs": [
        {
          "internalType": "address",
          "name": "owner",
          "type": "address"
        }
      ],
      "name": "balanceOf",
      "outputs": [
        {
          "internalType": "uint256",
          "name": "",
          "type": "uint256"
        }
      ],
      "stateMutability": "view",
      "type": "function"
    },
    {
      "inputs": [
        {
          "internalType": "address",
          "name": "from",
          "type": "address"
        },
        {
          "internalType": "uint256[]",
          "name": "tokenIds",
          "type": "uint256[]"
        }
      ],
      "name": "batchBurnFrom",
      "outputs": [],
      "stateMutability": "nonpayable",
      "type": "function"
    },
    {
      "inputs": [
        {
          "internalType": "address",
          "name": "to",
          "type": "address"
        },
        {
          "internalType": "uint256[]",
          "name": "tokenIds",
          "type": "uint256[]"
        }
      ],
      "name": "batchMint",
      "outputs": [],
      "stateMutability": "nonpayable",
      "type": "function"
    },
    {
      "inputs": [
        {
          "internalType": "address",
          "name": "from",
          "type": "address"
        },
        {
          "internalType": "uint256",
          "name": "tokenId",
          "type": "uint256"
        }
      ],
      "name": "burnFrom",
      "outputs": [],
      "stateMutability": "nonpayable",
      "type": "function"
    },
    {
      "inputs": [
        {
          "internalType": "uint256",
          "name": "tokenId",
          "type": "uint256"
        }
      ],
      "name": "getApproved",
      "outputs": [
        {
          "internalType": "address",
          "name": "operator",
          "type": "address"
        }
      ],
      "stateMutability": "view",
      "type": "function"
    },
    {
      "inputs": [
        {
          "internalType": "address",
          "name": "owner",
          "type": "address"
        },
        {
          "internalType": "address",
          "name": "operator",
          "type": "address"
        }
      ],
      "name": "isApprovedForAll",
      "outputs": [
        {
          "internalType": "bool",
          "name": "",
          "type": "bool"
        }
      ],
      "stateMutability": "view",
      "type": "function"
    },
    {
      "inputs": [
        {
          "internalType": "address",
          "name": "to",
          "type": "address"
        },
        {
          "internalType": "uint256",
          "name": "tokenId",
          "type": "uint256"
        }
      ],
      "name": "mint",
      "outputs": [],
      "stateMutability": "nonpayable",
      "type": "function"
    },
    {
      "inputs": [
        {
          "internalType": "uint256",
          "name": "tokenId",
          "type": "uint256"
        }
      ],
      "name": "ownerOf",
      "outputs": [
        {
          "internalType": "address",
          "name": "",
          "type": "address"
        }
      ],
      "stateMutability": "view",
      "type": "function"
    },
    {
      "inputs": [
        {
          "internalType": "address",
          "name": "to",
          "type": "address"
        },
        {
          "internalType": "uint256",
          "name": "tokenId",
          "type": "uint256"
        },
        {
          "internalType": "bytes",
          "name": "data",
          "type": "bytes"
        }
      ],
      "name": "safeMint",
      "outputs": [],
      "stateMutability": "nonpayable",
      "type": "function"
    },
    {
      "inputs": [
        {
          "internalType": "address",
          "name": "from",
          "type": "address"
        },
        {
          "internalType": "address",
          "name": "to",
          "type": "address"
        },
        {
          "internalType": "uint256",
          "name": "tokenId",
          "type": "uint256"
        }
      ],
      "name": "safeTransferFrom",
      "outputs": [],
      "stateMutability": "nonpayable",
      "type": "function"
    },
    {
      "inputs": [
        {
          "internalType": "address",
          "name": "from",
          "type": "address"
        },
        {
          "internalType": "address",
          "name": "to",
          "type": "address"
        },
        {
          "internalType": "uint256",
          "name": "tokenId",
          "type": "uint256"
        },
        {
          "internalType": "bytes",
          "name": "_data",
          "type": "bytes"
        }
      ],
      "name": "safeTransferFrom",
      "outputs": [],
      "stateMutability": "nonpayable",
      "type": "function"
    },
    {
      "inputs": [
        {
          "internalType": "address",
          "name": "operator",
          "type": "address"
        },
        {
          "internalType": "bool",
          "name": "_approved",
          "type": "bool"
        }
      ],
      "name": "setApprovalForAll",
      "outputs": [],
      "stateMutability": "nonpayable",
      "type": "function"
    },
    {
      "inputs": [
        {
          "internalType": "address",
          "name": "from",
          "type": "address"
        },
        {
          "internalType": "address",
          "name": "to",
          "type": "address"
        },
        {
          "internalType": "uint256",
          "name": "tokenId",
          "type": "uint256"
        }
      ],
      "name": "transferFrom",
      "outputs": [],
      "stateMutability": "nonpayable",
      "type": "function"
    }
  ],
  "bytecode": "0x60806040523480156200001157600080fd5b506040516200219d3803806200219d833981016040819052620000349162000320565b6200005e6200004d6200006760201b620005981760201c565b6200009d60201b620005c61760201c565b505050620003d7565b6000806200009760017fddf3ee18ae6d688373c219468f8be446e7ae82215f4779d821c7ea5e8c13c0c1620003b1565b92915050565b620000e4620000ce60017ffddcdbf8ca7eb362a678daf3643ce3cf98ebf69ac314d25d376d5aeabd2f5332620003b1565b60001b60016200011f60201b620006331760201c565b6200011c6380ac58cd60e01b6001620001076200019660201b620006a31760201c565b620001c660201b620006d1179092919060201c565b50565b600062000137836200025060201b620007c11760201c565b905081816000015410620001925760405162461bcd60e51b815260206004820152601860248201527f53746f726167653a2076657273696f6e2072656163686564000000000000000060448201526064015b60405180910390fd5b5550565b6000806200009760017f7180ffa89c91cf90d6c56dacabfc69bc5e36f3099d7eed2f5cc12c5dba016fe0620003b1565b6001600160e01b03198083169003620002225760405162461bcd60e51b815260206004820152601f60248201527f496e74657266616365446574656374696f6e3a2077726f6e672076616c756500604482015260640162000189565b6001600160e01b03199190911660009081526020929092526040909120805460ff1916911515919091179055565b90565b634e487b7160e01b600052604160045260246000fd5b600082601f8301126200027b57600080fd5b81516001600160401b038082111562000298576200029862000253565b604051601f8301601f19908116603f01168101908282118183101715620002c357620002c362000253565b81604052838152602092508683858801011115620002e057600080fd5b600091505b83821015620003045785820183015181830184015290820190620002e5565b83821115620003165760008385830101525b9695505050505050565b6000806000606084860312156200033657600080fd5b83516001600160401b03808211156200034e57600080fd5b6200035c8783880162000269565b945060208601519150808211156200037357600080fd5b620003818783880162000269565b935060408601519150808211156200039857600080fd5b50620003a78682870162000269565b9150509250925092565b600082821015620003d257634e487b7160e01b600052601160045260246000fd5b500390565b611db680620003e76000396000f3fe608060405234801561001057600080fd5b50600436106100ea5760003560e01c806370a082311161008c578063a22cb46511610066578063a22cb465146101e7578063b88d4fde146101fa578063e985e9c51461020d578063f24729651461023057600080fd5b806370a08231146101a057806379cc6790146101c15780638832e6e3146101d457600080fd5b806340c10f19116100c857806340c10f191461015457806342842e0e146101675780634684d7e91461017a5780636352211e1461018d57600080fd5b8063081812fc146100ef578063095ea7b31461012c57806323b872dd14610141575b600080fd5b6101026100fd366004611831565b610243565b60405173ffffffffffffffffffffffffffffffffffffffff90911681526020015b60405180910390f35b61013f61013a366004611873565b61025d565b005b61013f61014f36600461189d565b610277565b61013f610162366004611873565b610294565b61013f61017536600461189d565b6102be565b61013f6101883660046118d9565b6102d6565b61010261019b366004611831565b61031e565b6101b36101ae36600461195f565b6103c0565b604051908152602001610123565b61013f6101cf366004611873565b610476565b61013f6101e2366004611981565b61048c565b61013f6101f5366004611a08565b6104db565b61013f610208366004611a73565b6104f1565b61022061021b366004611b6d565b61050b565b6040519015158152602001610123565b61013f61023e3660046118d9565b61054e565b600061025782610251610598565b906107c4565b92915050565b61027333838361026b610598565b9291906108a7565b5050565b61028f33848484610286610598565b93929190610b63565b505050565b6102733383836040518060200160405280600081525060006102b4610598565b9493929190610b89565b61028f338484846102cd610598565b93929190610c96565b61028f838383808060200260200160405190810160405280939291908181526020018383602002808284376000920191909152506103179250610598915050565b9190610cb5565b600080610329610598565b60008481526001919091016020526040902054905073ffffffffffffffffffffffffffffffffffffffff8116610257576040517f08c379a000000000000000000000000000000000000000000000000000000000815260206004820152601860248201527f4552433732313a206e6f6e2d6578697374696e67204e4654000000000000000060448201526064015b60405180910390fd5b600073ffffffffffffffffffffffffffffffffffffffff821661043f576040517f08c379a000000000000000000000000000000000000000000000000000000000815260206004820152601460248201527f4552433732313a207a65726f206164647265737300000000000000000000000060448201526064016103b7565b610447610598565b73ffffffffffffffffffffffffffffffffffffffff909216600090815260029290920160205250604090205490565b610273338383610484610598565b929190610e02565b6104d533858585858080601f016020809104026020016040519081016040528093929190818152602001838380828437600092019190915250600192506102b491506105989050565b50505050565b6102733383836104e9610598565b929190610e6c565b6104d53385858585610501610598565b9493929190610f98565b6000610515610598565b73ffffffffffffffffffffffffffffffffffffffff93841660009081526020918252604080822094909516815292905250205460ff1690565b61028f33848484808060200260200160405190810160405280939291908181526020018383602002808284376000920191909152506105909250610598915050565b929190610fa8565b60008061025760017fddf3ee18ae6d688373c219468f8be446e7ae82215f4779d821c7ea5e8c13c0c1611bcf565b6105fb6105f460017ffddcdbf8ca7eb362a678daf3643ce3cf98ebf69ac314d25d376d5aeabd2f5332611bcf565b6001610633565b6106307f80ac58cd0000000000000000000000000000000000000000000000000000000060016106296106a3565b91906106d1565b50565b81548290821161069f576040517f08c379a000000000000000000000000000000000000000000000000000000000815260206004820152601860248201527f53746f726167653a2076657273696f6e2072656163686564000000000000000060448201526064016103b7565b5550565b60008061025760017f7180ffa89c91cf90d6c56dacabfc69bc5e36f3099d7eed2f5cc12c5dba016fe0611bcf565b7fffffffff00000000000000000000000000000000000000000000000000000000808316900361075d576040517f08c379a000000000000000000000000000000000000000000000000000000000815260206004820152601f60248201527f496e74657266616365446574656374696f6e3a2077726f6e672076616c75650060448201526064016103b7565b7fffffffff00000000000000000000000000000000000000000000000000000000919091166000908152602092909252604090912080547fffffffffffffffffffffffffffffffffffffffffffffffffffffffffffffff0016911515919091179055565b90565b600081815260018301602052604081205473ffffffffffffffffffffffffffffffffffffffff8116610852576040517f08c379a000000000000000000000000000000000000000000000000000000000815260206004820152601860248201527f4552433732313a206e6f6e2d6578697374696e67204e4654000000000000000060448201526064016103b7565b7401000000000000000000000000000000000000000081161561089d575050600081815260038301602052604090205473ffffffffffffffffffffffffffffffffffffffff16610257565b6000915050610257565b600081815260018501602052604081205490819003610922576040517f08c379a000000000000000000000000000000000000000000000000000000000815260206004820152601860248201527f4552433732313a206e6f6e2d6578697374696e67204e4654000000000000000060448201526064016103b7565b8073ffffffffffffffffffffffffffffffffffffffff808216908516036109a5576040517f08c379a000000000000000000000000000000000000000000000000000000000815260206004820152601560248201527f4552433732313a2073656c662d617070726f76616c000000000000000000000060448201526064016103b7565b6109b0868287611092565b610a16576040517f08c379a000000000000000000000000000000000000000000000000000000000815260206004820152601b60248201527f4552433732313a206e6f6e2d617070726f7665642073656e646572000000000060448201526064016103b7565b73ffffffffffffffffffffffffffffffffffffffff8416610a7d5774010000000000000000000000000000000000000000821615610a78576000838152600187016020526040902073ffffffffffffffffffffffffffffffffffffffff821690555b610b00565b740100000000000000000000000000000000000000008217808314610ab057600084815260018801602052604090208190555b506000838152600387016020526040902080547fffffffffffffffffffffffff00000000000000000000000000000000000000001673ffffffffffffffffffffffffffffffffffffffff86161790555b828473ffffffffffffffffffffffffffffffffffffffff168273ffffffffffffffffffffffffffffffffffffffff167f8c5be1e5ebec7d5bd14f71427d1e84f3dd0314c0f7b2291e5b200ac8c7c3b92560405160405180910390a4505050505050565b610b828585858585604051806020016040528060008152506000611106565b5050505050565b73ffffffffffffffffffffffffffffffffffffffff8416610c06576040517f08c379a000000000000000000000000000000000000000000000000000000000815260206004820152601460248201527f4552433732313a206d696e7420746f207a65726f00000000000000000000000060448201526064016103b7565b610c13868585600061123c565b604051839073ffffffffffffffffffffffffffffffffffffffff8616906000907fddf252ad1be2c89b69c2b068fc378daa952ba7f163c4a11628f55a4df523b3ef908290a4808015610c7b575073ffffffffffffffffffffffffffffffffffffffff84163b15155b15610c8e57610c8e856000868686611321565b505050505050565b610b828585858585604051806020016040528060008152506001611106565b73ffffffffffffffffffffffffffffffffffffffff8216610d32576040517f08c379a000000000000000000000000000000000000000000000000000000000815260206004820152601460248201527f4552433732313a206d696e7420746f207a65726f00000000000000000000000060448201526064016103b7565b805160005b818114610dbf576000838281518110610d5257610d52611be6565b60200260200101519050610d69868683600161123c565b604051819073ffffffffffffffffffffffffffffffffffffffff8716906000907fddf252ad1be2c89b69c2b068fc378daa952ba7f163c4a11628f55a4df523b3ef908290a450610db881611c15565b9050610d37565b5073ffffffffffffffffffffffffffffffffffffffff8316600090815260028501602052604081208054839290610df7908490611c4d565b909155505050505050565b6000610e0f858486611092565b9050610e2085858585856000611447565b604051829060009073ffffffffffffffffffffffffffffffffffffffff8616907fddf252ad1be2c89b69c2b068fc378daa952ba7f163c4a11628f55a4df523b3ef908390a45050505050565b8273ffffffffffffffffffffffffffffffffffffffff168273ffffffffffffffffffffffffffffffffffffffff1603610f01576040517f08c379a000000000000000000000000000000000000000000000000000000000815260206004820152601560248201527f4552433732313a2073656c662d617070726f76616c000000000000000000000060448201526064016103b7565b73ffffffffffffffffffffffffffffffffffffffff8381166000818152602087815260408083209487168084529482529182902080547fffffffffffffffffffffffffffffffffffffffffffffffffffffffffffffff001686151590811790915591519182527f17307eab39ab6107e8899845ad3d59bd9653f200f220920489ca2b5937696c31910160405180910390a350505050565b610c8e8686868686866001611106565b6000610fb5858486611092565b825190915060005b818114611047576000848281518110610fd857610fd8611be6565b60200260200101519050610ff188888884886001611447565b604051819060009073ffffffffffffffffffffffffffffffffffffffff8916907fddf252ad1be2c89b69c2b068fc378daa952ba7f163c4a11628f55a4df523b3ef908390a45061104081611c15565b9050610fbd565b508015610c8e5773ffffffffffffffffffffffffffffffffffffffff8416600090815260028701602052604081208054839290611085908490611bcf565b9091555050505050505050565b60008173ffffffffffffffffffffffffffffffffffffffff168373ffffffffffffffffffffffffffffffffffffffff1614806110fe575073ffffffffffffffffffffffffffffffffffffffff8084166000908152602086815260408083209386168352929052205460ff165b949350505050565b73ffffffffffffffffffffffffffffffffffffffff8416611183576040517f08c379a000000000000000000000000000000000000000000000000000000000815260206004820152601860248201527f4552433732313a207472616e7366657220746f207a65726f000000000000000060448201526064016103b7565b6000611190888789611092565b90506111a28888888888866000611609565b838573ffffffffffffffffffffffffffffffffffffffff168773ffffffffffffffffffffffffffffffffffffffff167fddf252ad1be2c89b69c2b068fc378daa952ba7f163c4a11628f55a4df523b3ef60405160405180910390a4818015611220575073ffffffffffffffffffffffffffffffffffffffff85163b15155b15611232576112328787878787611321565b5050505050505050565b6000828152600185016020526040902054156112b4576040517f08c379a000000000000000000000000000000000000000000000000000000000815260206004820152601a60248201527f4552433732313a206578697374696e672f6275726e74204e465400000000000060448201526064016103b7565b6000828152600185016020526040902073ffffffffffffffffffffffffffffffffffffffff84169055806104d55773ffffffffffffffffffffffffffffffffffffffff831660009081526002850160205260408120805490919061131790611c15565b9091555050505050565b6040517f150b7a02000000000000000000000000000000000000000000000000000000008082529073ffffffffffffffffffffffffffffffffffffffff85169063150b7a029061137b908990899088908890600401611c65565b6020604051808303816000875af115801561139a573d6000803e3d6000fd5b505050506040513d601f19601f820116820180604052508101906113be9190611d09565b7fffffffff000000000000000000000000000000000000000000000000000000001614610b82576040517f08c379a000000000000000000000000000000000000000000000000000000000815260206004820152601860248201527f4552433732313a207472616e736665722072656675736564000000000000000060448201526064016103b7565b600083815260018701602052604090205473ffffffffffffffffffffffffffffffffffffffff858116908216146114da576040517f08c379a000000000000000000000000000000000000000000000000000000000815260206004820152601560248201527f4552433732313a206e6f6e2d6f776e6564204e4654000000000000000000000060448201526064016103b7565b82611593577401000000000000000000000000000000000000000081161580159061152d5750600084815260038801602052604090205473ffffffffffffffffffffffffffffffffffffffff8781169116145b611593576040517f08c379a000000000000000000000000000000000000000000000000000000000815260206004820152601b60248201527f4552433732313a206e6f6e2d617070726f7665642073656e646572000000000060448201526064016103b7565b600084815260018801602052604090207fdead0000000000000000000000000000000000000000000000000000000000009055816116005773ffffffffffffffffffffffffffffffffffffffff851660009081526002880160205260408120805490919061108590611d4b565b50505050505050565b600083815260018801602052604090205473ffffffffffffffffffffffffffffffffffffffff8681169082161461169c576040517f08c379a000000000000000000000000000000000000000000000000000000000815260206004820152601560248201527f4552433732313a206e6f6e2d6f776e6564204e4654000000000000000000000060448201526064016103b7565b8261175557740100000000000000000000000000000000000000008116158015906116ef5750600084815260038901602052604090205473ffffffffffffffffffffffffffffffffffffffff8881169116145b611755576040517f08c379a000000000000000000000000000000000000000000000000000000000815260206004820152601b60248201527f4552433732313a206e6f6e2d617070726f7665642073656e646572000000000060448201526064016103b7565b6000848152600189016020526040902073ffffffffffffffffffffffffffffffffffffffff86169055816112325761123288878760018173ffffffffffffffffffffffffffffffffffffffff168373ffffffffffffffffffffffffffffffffffffffff16146104d55773ffffffffffffffffffffffffffffffffffffffff83166000908152600285016020526040812080548392906117f5908490611bcf565b909155505073ffffffffffffffffffffffffffffffffffffffff8216600090815260028501602052604081208054839290610df7908490611c4d565b60006020828403121561184357600080fd5b5035919050565b803573ffffffffffffffffffffffffffffffffffffffff8116811461186e57600080fd5b919050565b6000806040838503121561188657600080fd5b61188f8361184a565b946020939093013593505050565b6000806000606084860312156118b257600080fd5b6118bb8461184a565b92506118c96020850161184a565b9150604084013590509250925092565b6000806000604084860312156118ee57600080fd5b6118f78461184a565b9250602084013567ffffffffffffffff8082111561191457600080fd5b818601915086601f83011261192857600080fd5b81358181111561193757600080fd5b8760208260051b850101111561194c57600080fd5b6020830194508093505050509250925092565b60006020828403121561197157600080fd5b61197a8261184a565b9392505050565b6000806000806060858703121561199757600080fd5b6119a08561184a565b935060208501359250604085013567ffffffffffffffff808211156119c457600080fd5b818701915087601f8301126119d857600080fd5b8135818111156119e757600080fd5b8860208285010111156119f957600080fd5b95989497505060200194505050565b60008060408385031215611a1b57600080fd5b611a248361184a565b915060208301358015158114611a3957600080fd5b809150509250929050565b7f4e487b7100000000000000000000000000000000000000000000000000000000600052604160045260246000fd5b60008060008060808587031215611a8957600080fd5b611a928561184a565b9350611aa06020860161184a565b925060408501359150606085013567ffffffffffffffff80821115611ac457600080fd5b818701915087601f830112611ad857600080fd5b813581811115611aea57611aea611a44565b604051601f82017fffffffffffffffffffffffffffffffffffffffffffffffffffffffffffffffe0908116603f01168101908382118183101715611b3057611b30611a44565b816040528281528a6020848701011115611b4957600080fd5b82602086016020830137600060208483010152809550505050505092959194509250565b60008060408385031215611b8057600080fd5b611b898361184a565b9150611b976020840161184a565b90509250929050565b7f4e487b7100000000000000000000000000000000000000000000000000000000600052601160045260246000fd5b600082821015611be157611be1611ba0565b500390565b7f4e487b7100000000000000000000000000000000000000000000000000000000600052603260045260246000fd5b60007fffffffffffffffffffffffffffffffffffffffffffffffffffffffffffffffff8203611c4657611c46611ba0565b5060010190565b60008219821115611c6057611c60611ba0565b500190565b600073ffffffffffffffffffffffffffffffffffffffff8087168352602081871681850152856040850152608060608501528451915081608085015260005b82811015611cc05785810182015185820160a001528101611ca4565b82811115611cd257600060a084870101525b5050601f017fffffffffffffffffffffffffffffffffffffffffffffffffffffffffffffffe0169190910160a00195945050505050565b600060208284031215611d1b57600080fd5b81517fffffffff000000000000000000000000000000000000000000000000000000008116811461197a57600080fd5b600081611d5a57611d5a611ba0565b507fffffffffffffffffffffffffffffffffffffffffffffffffffffffffffffffff019056fea264697066735822122098b75f89e3e64d29ce6dc9a56615d848e68ed67a0453e04a71ab8126d332b30964736f6c634300080d0033",
  "linkReferences": {},
  "deployedLinkReferences": {}
}