{
  "_format": "hh-sol-artifact-1",
  "contractName": "ERC721BurnableMock",
  "sourceName": "contracts/mocks/token/ERC721/ERC721BurnableMock.sol",
  "abi": [
    {
      "inputs": [
        {
          "internalType": "string",
          "name": "name_",
          "type": "string"
        },
        {
          "internalType": "string",
          "name": "symbol_",
          "type": "string"
        },
        {
          "internalType": "string",
          "name": "tokenURI_",
          "type": "string"
        }
      ],
      "stateMutability": "nonpayable",
      "type": "constructor"
    },
    {
      "anonymous": false,
      "inputs": [
        {
          "indexed": true,
          "internalType": "address",
          "name": "owner",
          "type": "address"
        },
        {
          "indexed": true,
          "internalType": "address",
          "name": "approved",
          "type": "address"
        },
        {
          "indexed": true,
          "internalType": "uint256",
          "name": "tokenId",
          "type": "uint256"
        }
      ],
      "name": "Approval",
      "type": "event"
    },
    {
      "anonymous": false,
      "inputs": [
        {
          "indexed": true,
          "internalType": "address",
          "name": "owner",
          "type": "address"
        },
        {
          "indexed": true,
          "internalType": "address",
          "name": "operator",
          "type": "address"
        },
        {
          "indexed": false,
          "internalType": "bool",
          "name": "approved",
          "type": "bool"
        }
      ],
      "name": "ApprovalForAll",
      "type": "event"
    },
    {
      "anonymous": false,
      "inputs": [
        {
          "indexed": true,
          "internalType": "address",
          "name": "from",
          "type": "address"
        },
        {
          "indexed": true,
          "internalType": "address",
          "name": "to",
          "type": "address"
        },
        {
          "indexed": true,
          "internalType": "uint256",
          "name": "tokenId",
          "type": "uint256"
        }
      ],
      "name": "Transfer",
      "type": "event"
    },
    {
      "inputs": [
        {
          "internalType": "address",
          "name": "to",
          "type": "address"
        },
        {
          "internalType": "uint256",
          "name": "tokenId",
          "type": "uint256"
        }
      ],
      "name": "approve",
      "outputs": [],
      "stateMutability": "nonpayable",
      "type": "function"
    },
    {
      "inputs": [
        {
          "internalType": "address",
          "name": "owner",
          "type": "address"
        }
      ],
      "name": "balanceOf",
      "outputs": [
        {
          "internalType": "uint256",
          "name": "",
          "type": "uint256"
        }
      ],
      "stateMutability": "view",
      "type": "function"
    },
    {
      "inputs": [
        {
          "internalType": "address",
          "name": "from",
          "type": "address"
        },
        {
          "internalType": "uint256[]",
          "name": "tokenIds",
          "type": "uint256[]"
        }
      ],
      "name": "batchBurnFrom",
      "outputs": [],
      "stateMutability": "nonpayable",
      "type": "function"
    },
    {
      "inputs": [
        {
          "internalType": "address",
          "name": "to",
          "type": "address"
        },
        {
          "internalType": "uint256[]",
          "name": "tokenIds",
          "type": "uint256[]"
        }
      ],
      "name": "batchMint",
      "outputs": [],
      "stateMutability": "nonpayable",
      "type": "function"
    },
    {
      "inputs": [
        {
          "internalType": "address",
          "name": "from",
          "type": "address"
        },
        {
          "internalType": "uint256",
          "name": "tokenId",
          "type": "uint256"
        }
      ],
      "name": "burnFrom",
      "outputs": [],
      "stateMutability": "nonpayable",
      "type": "function"
    },
    {
      "inputs": [
        {
          "internalType": "uint256",
          "name": "tokenId",
          "type": "uint256"
        }
      ],
      "name": "getApproved",
      "outputs": [
        {
          "internalType": "address",
          "name": "operator",
          "type": "address"
        }
      ],
      "stateMutability": "view",
      "type": "function"
    },
    {
      "inputs": [
        {
          "internalType": "address",
          "name": "owner",
          "type": "address"
        },
        {
          "internalType": "address",
          "name": "operator",
          "type": "address"
        }
      ],
      "name": "isApprovedForAll",
      "outputs": [
        {
          "internalType": "bool",
          "name": "",
          "type": "bool"
        }
      ],
      "stateMutability": "view",
      "type": "function"
    },
    {
      "inputs": [
        {
          "internalType": "address",
          "name": "to",
          "type": "address"
        },
        {
          "internalType": "uint256",
          "name": "tokenId",
          "type": "uint256"
        }
      ],
      "name": "mint",
      "outputs": [],
      "stateMutability": "nonpayable",
      "type": "function"
    },
    {
      "inputs": [
        {
          "internalType": "uint256",
          "name": "tokenId",
          "type": "uint256"
        }
      ],
      "name": "ownerOf",
      "outputs": [
        {
          "internalType": "address",
          "name": "",
          "type": "address"
        }
      ],
      "stateMutability": "view",
      "type": "function"
    },
    {
      "inputs": [
        {
          "internalType": "address",
          "name": "to",
          "type": "address"
        },
        {
          "internalType": "uint256",
          "name": "tokenId",
          "type": "uint256"
        },
        {
          "internalType": "bytes",
          "name": "data",
          "type": "bytes"
        }
      ],
      "name": "safeMint",
      "outputs": [],
      "stateMutability": "nonpayable",
      "type": "function"
    },
    {
      "inputs": [
        {
          "internalType": "address",
          "name": "from",
          "type": "address"
        },
        {
          "internalType": "address",
          "name": "to",
          "type": "address"
        },
        {
          "internalType": "uint256",
          "name": "tokenId",
          "type": "uint256"
        }
      ],
      "name": "safeTransferFrom",
      "outputs": [],
      "stateMutability": "nonpayable",
      "type": "function"
    },
    {
      "inputs": [
        {
          "internalType": "address",
          "name": "from",
          "type": "address"
        },
        {
          "internalType": "address",
          "name": "to",
          "type": "address"
        },
        {
          "internalType": "uint256",
          "name": "tokenId",
          "type": "uint256"
        },
        {
          "internalType": "bytes",
          "name": "_data",
          "type": "bytes"
        }
      ],
      "name": "safeTransferFrom",
      "outputs": [],
      "stateMutability": "nonpayable",
      "type": "function"
    },
    {
      "inputs": [
        {
          "internalType": "address",
          "name": "operator",
          "type": "address"
        },
        {
          "internalType": "bool",
          "name": "_approved",
          "type": "bool"
        }
      ],
      "name": "setApprovalForAll",
      "outputs": [],
      "stateMutability": "nonpayable",
      "type": "function"
    },
    {
      "inputs": [
        {
          "internalType": "address",
          "name": "from",
          "type": "address"
        },
        {
          "internalType": "address",
          "name": "to",
          "type": "address"
        },
        {
          "internalType": "uint256",
          "name": "tokenId",
          "type": "uint256"
        }
      ],
      "name": "transferFrom",
      "outputs": [],
      "stateMutability": "nonpayable",
      "type": "function"
    }
  ],
  "bytecode": "0x60806040523480156200001157600080fd5b50604051620022c0380380620022c0833981016040819052620000349162000320565b6200005e6200004d6200006760201b6200051a1760201c565b6200009d60201b620005481760201c565b505050620003d7565b6000806200009760017fddf3ee18ae6d688373c219468f8be446e7ae82215f4779d821c7ea5e8c13c0c1620003b1565b92915050565b620000e4620000ce60017ffddcdbf8ca7eb362a678daf3643ce3cf98ebf69ac314d25d376d5aeabd2f5332620003b1565b60001b60016200011f60201b620005b51760201c565b6200011c6380ac58cd60e01b6001620001076200019660201b6200062a1760201c565b620001c660201b62000658179092919060201c565b50565b600062000137836200025060201b620007481760201c565b905081816000015410620001925760405162461bcd60e51b815260206004820152601860248201527f53746f726167653a2076657273696f6e2072656163686564000000000000000060448201526064015b60405180910390fd5b5550565b6000806200009760017f7180ffa89c91cf90d6c56dacabfc69bc5e36f3099d7eed2f5cc12c5dba016fe0620003b1565b6001600160e01b03198083169003620002225760405162461bcd60e51b815260206004820152601f60248201527f496e74657266616365446574656374696f6e3a2077726f6e672076616c756500604482015260640162000189565b6001600160e01b03199190911660009081526020929092526040909120805460ff1916911515919091179055565b90565b634e487b7160e01b600052604160045260246000fd5b600082601f8301126200027b57600080fd5b81516001600160401b038082111562000298576200029862000253565b604051601f8301601f19908116603f01168101908282118183101715620002c357620002c362000253565b81604052838152602092508683858801011115620002e057600080fd5b600091505b83821015620003045785820183015181830184015290820190620002e5565b83821115620003165760008385830101525b9695505050505050565b6000806000606084860312156200033657600080fd5b83516001600160401b03808211156200034e57600080fd5b6200035c8783880162000269565b945060208601519150808211156200037357600080fd5b620003818783880162000269565b935060408601519150808211156200039857600080fd5b50620003a78682870162000269565b9150509250925092565b600082821015620003d257634e487b7160e01b600052601160045260246000fd5b500390565b611ed980620003e76000396000f3fe608060405234801561001057600080fd5b50600436106100ea5760003560e01c806370a082311161008c578063a22cb46511610066578063a22cb465146101e7578063b88d4fde146101fa578063e985e9c51461020d578063f24729651461023057600080fd5b806370a08231146101a057806379cc6790146101c15780638832e6e3146101d457600080fd5b806340c10f19116100c857806340c10f191461015457806342842e0e146101675780634684d7e91461017a5780636352211e1461018d57600080fd5b8063081812fc146100ef578063095ea7b31461012c57806323b872dd14610141575b600080fd5b6101026100fd3660046118f9565b610243565b60405173ffffffffffffffffffffffffffffffffffffffff90911681526020015b60405180910390f35b61013f61013a36600461193b565b61025d565b005b61013f61014f366004611965565b6102fa565b61013f61016236600461193b565b610317565b61013f610175366004611965565b610341565b61013f6101883660046119a1565b610359565b61010261019b3660046118f9565b6103a1565b6101b36101ae366004611a27565b6103bf565b604051908152602001610123565b61013f6101cf36600461193b565b6103f8565b61013f6101e2366004611a49565b61040e565b61013f6101f5366004611ad0565b61045d565b61013f610208366004611b3b565b610473565b61022061021b366004611c35565b61048d565b6040519015158152602001610123565b61013f61023e3660046119a1565b6104d0565b60006102578261025161051a565b9061074b565b92915050565b61029b6040518060400160405280601281526020017f4552433732314261736520617070726f7665000000000000000000000000000081525061082e565b6102e06040518060400160405280600c81526020017f5f6d736753656e646572282900000000000000000000000000000000000000008152506102db3390565b6108bd565b6102f63383836102ee61051a565b92919061094e565b5050565b6103123384848461030961051a565b93929190610c0a565b505050565b6102f633838360405180602001604052806000815250600061033761051a565b9493929190610c30565b6103123384848461035061051a565b93929190610d3d565b6103128383838080602002602001604051908101604052809392919081815260200183836020028082843760009201919091525061039a925061051a915050565b9190610d5c565b60006103ab61051a565b600092835260010160205250604090205490565b60006103c961051a565b73ffffffffffffffffffffffffffffffffffffffff909216600090815260029290920160205250604090205490565b6102f633838361040661051a565b929190610ea9565b61045733858585858080601f01602080910402602001604051908101604052809392919081815260200183838082843760009201919091525060019250610337915061051a9050565b50505050565b6102f633838361046b61051a565b929190610f13565b610457338585858561048361051a565b949392919061103f565b600061049761051a565b73ffffffffffffffffffffffffffffffffffffffff93841660009081526020918252604080822094909516815292905250205460ff1690565b6103123384848480806020026020016040519081016040528093929190818152602001838360200280828437600092019190915250610512925061051a915050565b92919061104f565b60008061025760017fddf3ee18ae6d688373c219468f8be446e7ae82215f4779d821c7ea5e8c13c0c1611c97565b61057d61057660017ffddcdbf8ca7eb362a678daf3643ce3cf98ebf69ac314d25d376d5aeabd2f5332611c97565b60016105b5565b6105b27f80ac58cd0000000000000000000000000000000000000000000000000000000060016105ab61062a565b9190610658565b50565b815482908211610626576040517f08c379a000000000000000000000000000000000000000000000000000000000815260206004820152601860248201527f53746f726167653a2076657273696f6e2072656163686564000000000000000060448201526064015b60405180910390fd5b5550565b60008061025760017f7180ffa89c91cf90d6c56dacabfc69bc5e36f3099d7eed2f5cc12c5dba016fe0611c97565b7fffffffff0000000000000000000000000000000000000000000000000000000080831690036106e4576040517f08c379a000000000000000000000000000000000000000000000000000000000815260206004820152601f60248201527f496e74657266616365446574656374696f6e3a2077726f6e672076616c756500604482015260640161061d565b7fffffffff00000000000000000000000000000000000000000000000000000000919091166000908152602092909252604090912080547fffffffffffffffffffffffffffffffffffffffffffffffffffffffffffffff0016911515919091179055565b90565b600081815260018301602052604081205473ffffffffffffffffffffffffffffffffffffffff81166107d9576040517f08c379a000000000000000000000000000000000000000000000000000000000815260206004820152601860248201527f4552433732313a206e6f6e2d6578697374696e67204e46540000000000000000604482015260640161061d565b74010000000000000000000000000000000000000000811615610824575050600081815260038301602052604090205473ffffffffffffffffffffffffffffffffffffffff16610257565b6000915050610257565b6105b2816040516024016108429190611d19565b604080517fffffffffffffffffffffffffffffffffffffffffffffffffffffffffffffffe08184030181529190526020810180517bffffffffffffffffffffffffffffffffffffffffffffffffffffffff167f41304fac00000000000000000000000000000000000000000000000000000000179052611139565b6102f682826040516024016108d3929190611d2c565b604080517fffffffffffffffffffffffffffffffffffffffffffffffffffffffffffffffe08184030181529190526020810180517bffffffffffffffffffffffffffffffffffffffffffffffffffffffff167f319af33300000000000000000000000000000000000000000000000000000000179052611139565b6000818152600185016020526040812054908190036109c9576040517f08c379a000000000000000000000000000000000000000000000000000000000815260206004820152601860248201527f4552433732313a206e6f6e2d6578697374696e67204e46540000000000000000604482015260640161061d565b8073ffffffffffffffffffffffffffffffffffffffff80821690851603610a4c576040517f08c379a000000000000000000000000000000000000000000000000000000000815260206004820152601560248201527f4552433732313a2073656c662d617070726f76616c0000000000000000000000604482015260640161061d565b610a5786828761115a565b610abd576040517f08c379a000000000000000000000000000000000000000000000000000000000815260206004820152601b60248201527f4552433732313a206e6f6e2d617070726f7665642073656e6465720000000000604482015260640161061d565b73ffffffffffffffffffffffffffffffffffffffff8416610b245774010000000000000000000000000000000000000000821615610b1f576000838152600187016020526040902073ffffffffffffffffffffffffffffffffffffffff821690555b610ba7565b740100000000000000000000000000000000000000008217808314610b5757600084815260018801602052604090208190555b506000838152600387016020526040902080547fffffffffffffffffffffffff00000000000000000000000000000000000000001673ffffffffffffffffffffffffffffffffffffffff86161790555b828473ffffffffffffffffffffffffffffffffffffffff168273ffffffffffffffffffffffffffffffffffffffff167f8c5be1e5ebec7d5bd14f71427d1e84f3dd0314c0f7b2291e5b200ac8c7c3b92560405160405180910390a4505050505050565b610c2985858585856040518060200160405280600081525060006111ce565b5050505050565b73ffffffffffffffffffffffffffffffffffffffff8416610cad576040517f08c379a000000000000000000000000000000000000000000000000000000000815260206004820152601460248201527f4552433732313a206d696e7420746f207a65726f000000000000000000000000604482015260640161061d565b610cba8685856000611304565b604051839073ffffffffffffffffffffffffffffffffffffffff8616906000907fddf252ad1be2c89b69c2b068fc378daa952ba7f163c4a11628f55a4df523b3ef908290a4808015610d22575073ffffffffffffffffffffffffffffffffffffffff84163b15155b15610d3557610d358560008686866113e9565b505050505050565b610c2985858585856040518060200160405280600081525060016111ce565b73ffffffffffffffffffffffffffffffffffffffff8216610dd9576040517f08c379a000000000000000000000000000000000000000000000000000000000815260206004820152601460248201527f4552433732313a206d696e7420746f207a65726f000000000000000000000000604482015260640161061d565b805160005b818114610e66576000838281518110610df957610df9611d64565b60200260200101519050610e108686836001611304565b604051819073ffffffffffffffffffffffffffffffffffffffff8716906000907fddf252ad1be2c89b69c2b068fc378daa952ba7f163c4a11628f55a4df523b3ef908290a450610e5f81611d93565b9050610dde565b5073ffffffffffffffffffffffffffffffffffffffff8316600090815260028501602052604081208054839290610e9e908490611dcb565b909155505050505050565b6000610eb685848661115a565b9050610ec78585858585600061150f565b604051829060009073ffffffffffffffffffffffffffffffffffffffff8616907fddf252ad1be2c89b69c2b068fc378daa952ba7f163c4a11628f55a4df523b3ef908390a45050505050565b8273ffffffffffffffffffffffffffffffffffffffff168273ffffffffffffffffffffffffffffffffffffffff1603610fa8576040517f08c379a000000000000000000000000000000000000000000000000000000000815260206004820152601560248201527f4552433732313a2073656c662d617070726f76616c0000000000000000000000604482015260640161061d565b73ffffffffffffffffffffffffffffffffffffffff8381166000818152602087815260408083209487168084529482529182902080547fffffffffffffffffffffffffffffffffffffffffffffffffffffffffffffff001686151590811790915591519182527f17307eab39ab6107e8899845ad3d59bd9653f200f220920489ca2b5937696c31910160405180910390a350505050565b610d3586868686868660016111ce565b600061105c85848661115a565b825190915060005b8181146110ee57600084828151811061107f5761107f611d64565b602002602001015190506110988888888488600161150f565b604051819060009073ffffffffffffffffffffffffffffffffffffffff8916907fddf252ad1be2c89b69c2b068fc378daa952ba7f163c4a11628f55a4df523b3ef908390a4506110e781611d93565b9050611064565b508015610d355773ffffffffffffffffffffffffffffffffffffffff841660009081526002870160205260408120805483929061112c908490611c97565b9091555050505050505050565b80516a636f6e736f6c652e6c6f67602083016000808483855afa5050505050565b60008173ffffffffffffffffffffffffffffffffffffffff168373ffffffffffffffffffffffffffffffffffffffff1614806111c6575073ffffffffffffffffffffffffffffffffffffffff8084166000908152602086815260408083209386168352929052205460ff165b949350505050565b73ffffffffffffffffffffffffffffffffffffffff841661124b576040517f08c379a000000000000000000000000000000000000000000000000000000000815260206004820152601860248201527f4552433732313a207472616e7366657220746f207a65726f0000000000000000604482015260640161061d565b600061125888878961115a565b905061126a88888888888660006116d1565b838573ffffffffffffffffffffffffffffffffffffffff168773ffffffffffffffffffffffffffffffffffffffff167fddf252ad1be2c89b69c2b068fc378daa952ba7f163c4a11628f55a4df523b3ef60405160405180910390a48180156112e8575073ffffffffffffffffffffffffffffffffffffffff85163b15155b156112fa576112fa87878787876113e9565b5050505050505050565b60008281526001850160205260409020541561137c576040517f08c379a000000000000000000000000000000000000000000000000000000000815260206004820152601a60248201527f4552433732313a206578697374696e672f6275726e74204e4654000000000000604482015260640161061d565b6000828152600185016020526040902073ffffffffffffffffffffffffffffffffffffffff84169055806104575773ffffffffffffffffffffffffffffffffffffffff83166000908152600285016020526040812080549091906113df90611d93565b9091555050505050565b6040517f150b7a02000000000000000000000000000000000000000000000000000000008082529073ffffffffffffffffffffffffffffffffffffffff85169063150b7a0290611443908990899088908890600401611de3565b6020604051808303816000875af1158015611462573d6000803e3d6000fd5b505050506040513d601f19601f820116820180604052508101906114869190611e2c565b7fffffffff000000000000000000000000000000000000000000000000000000001614610c29576040517f08c379a000000000000000000000000000000000000000000000000000000000815260206004820152601860248201527f4552433732313a207472616e7366657220726566757365640000000000000000604482015260640161061d565b600083815260018701602052604090205473ffffffffffffffffffffffffffffffffffffffff858116908216146115a2576040517f08c379a000000000000000000000000000000000000000000000000000000000815260206004820152601560248201527f4552433732313a206e6f6e2d6f776e6564204e46540000000000000000000000604482015260640161061d565b8261165b57740100000000000000000000000000000000000000008116158015906115f55750600084815260038801602052604090205473ffffffffffffffffffffffffffffffffffffffff8781169116145b61165b576040517f08c379a000000000000000000000000000000000000000000000000000000000815260206004820152601b60248201527f4552433732313a206e6f6e2d617070726f7665642073656e6465720000000000604482015260640161061d565b600084815260018801602052604090207fdead0000000000000000000000000000000000000000000000000000000000009055816116c85773ffffffffffffffffffffffffffffffffffffffff851660009081526002880160205260408120805490919061112c90611e6e565b50505050505050565b600083815260018801602052604090205473ffffffffffffffffffffffffffffffffffffffff86811690821614611764576040517f08c379a000000000000000000000000000000000000000000000000000000000815260206004820152601560248201527f4552433732313a206e6f6e2d6f776e6564204e46540000000000000000000000604482015260640161061d565b8261181d57740100000000000000000000000000000000000000008116158015906117b75750600084815260038901602052604090205473ffffffffffffffffffffffffffffffffffffffff8881169116145b61181d576040517f08c379a000000000000000000000000000000000000000000000000000000000815260206004820152601b60248201527f4552433732313a206e6f6e2d617070726f7665642073656e6465720000000000604482015260640161061d565b6000848152600189016020526040902073ffffffffffffffffffffffffffffffffffffffff86169055816112fa576112fa88878760018173ffffffffffffffffffffffffffffffffffffffff168373ffffffffffffffffffffffffffffffffffffffff16146104575773ffffffffffffffffffffffffffffffffffffffff83166000908152600285016020526040812080548392906118bd908490611c97565b909155505073ffffffffffffffffffffffffffffffffffffffff8216600090815260028501602052604081208054839290610e9e908490611dcb565b60006020828403121561190b57600080fd5b5035919050565b803573ffffffffffffffffffffffffffffffffffffffff8116811461193657600080fd5b919050565b6000806040838503121561194e57600080fd5b61195783611912565b946020939093013593505050565b60008060006060848603121561197a57600080fd5b61198384611912565b925061199160208501611912565b9150604084013590509250925092565b6000806000604084860312156119b657600080fd5b6119bf84611912565b9250602084013567ffffffffffffffff808211156119dc57600080fd5b818601915086601f8301126119f057600080fd5b8135818111156119ff57600080fd5b8760208260051b8501011115611a1457600080fd5b6020830194508093505050509250925092565b600060208284031215611a3957600080fd5b611a4282611912565b9392505050565b60008060008060608587031215611a5f57600080fd5b611a6885611912565b935060208501359250604085013567ffffffffffffffff80821115611a8c57600080fd5b818701915087601f830112611aa057600080fd5b813581811115611aaf57600080fd5b886020828501011115611ac157600080fd5b95989497505060200194505050565b60008060408385031215611ae357600080fd5b611aec83611912565b915060208301358015158114611b0157600080fd5b809150509250929050565b7f4e487b7100000000000000000000000000000000000000000000000000000000600052604160045260246000fd5b60008060008060808587031215611b5157600080fd5b611b5a85611912565b9350611b6860208601611912565b925060408501359150606085013567ffffffffffffffff80821115611b8c57600080fd5b818701915087601f830112611ba057600080fd5b813581811115611bb257611bb2611b0c565b604051601f82017fffffffffffffffffffffffffffffffffffffffffffffffffffffffffffffffe0908116603f01168101908382118183101715611bf857611bf8611b0c565b816040528281528a6020848701011115611c1157600080fd5b82602086016020830137600060208483010152809550505050505092959194509250565b60008060408385031215611c4857600080fd5b611c5183611912565b9150611c5f60208401611912565b90509250929050565b7f4e487b7100000000000000000000000000000000000000000000000000000000600052601160045260246000fd5b600082821015611ca957611ca9611c68565b500390565b6000815180845260005b81811015611cd457602081850181015186830182015201611cb8565b81811115611ce6576000602083870101525b50601f017fffffffffffffffffffffffffffffffffffffffffffffffffffffffffffffffe0169290920160200192915050565b602081526000611a426020830184611cae565b604081526000611d3f6040830185611cae565b905073ffffffffffffffffffffffffffffffffffffffff831660208301529392505050565b7f4e487b7100000000000000000000000000000000000000000000000000000000600052603260045260246000fd5b60007fffffffffffffffffffffffffffffffffffffffffffffffffffffffffffffffff8203611dc457611dc4611c68565b5060010190565b60008219821115611dde57611dde611c68565b500190565b600073ffffffffffffffffffffffffffffffffffffffff808716835280861660208401525083604083015260806060830152611e226080830184611cae565b9695505050505050565b600060208284031215611e3e57600080fd5b81517fffffffff0000000000000000000000000000000000000000000000000000000081168114611a4257600080fd5b600081611e7d57611e7d611c68565b507fffffffffffffffffffffffffffffffffffffffffffffffffffffffffffffffff019056fea264697066735822122054ac9bb530907ae3ef912d9f3cc6d5c9df1c8661ccd6d50b8910c7308838b4e064736f6c634300080d0033",
  "linkReferences": {},
  "deployedLinkReferences": {}
}