{
  "_format": "hh-sol-artifact-1",
  "contractName": "ERC721BurnableMock",
  "sourceName": "contracts/mocks/token/ERC721/ERC721BurnableMock.sol",
  "abi": [
    {
      "inputs": [
        {
          "internalType": "string",
          "name": "name_",
          "type": "string"
        },
        {
          "internalType": "string",
          "name": "symbol_",
          "type": "string"
        },
        {
          "internalType": "string",
          "name": "tokenURI_",
          "type": "string"
        },
        {
          "internalType": "contract IForwarderRegistry",
          "name": "forwarderRegistry",
          "type": "address"
        }
      ],
      "stateMutability": "nonpayable",
      "type": "constructor"
    },
    {
      "anonymous": false,
      "inputs": [
        {
          "indexed": true,
          "internalType": "address",
          "name": "owner",
          "type": "address"
        },
        {
          "indexed": true,
          "internalType": "address",
          "name": "approved",
          "type": "address"
        },
        {
          "indexed": true,
          "internalType": "uint256",
          "name": "tokenId",
          "type": "uint256"
        }
      ],
      "name": "Approval",
      "type": "event"
    },
    {
      "anonymous": false,
      "inputs": [
        {
          "indexed": true,
          "internalType": "address",
          "name": "owner",
          "type": "address"
        },
        {
          "indexed": true,
          "internalType": "address",
          "name": "operator",
          "type": "address"
        },
        {
          "indexed": false,
          "internalType": "bool",
          "name": "approved",
          "type": "bool"
        }
      ],
      "name": "ApprovalForAll",
      "type": "event"
    },
    {
      "anonymous": false,
      "inputs": [
        {
          "indexed": false,
          "internalType": "string",
          "name": "baseMetadataURI",
          "type": "string"
        }
      ],
      "name": "BaseMetadataURISet",
      "type": "event"
    },
    {
      "anonymous": false,
      "inputs": [
        {
          "indexed": true,
          "internalType": "address",
          "name": "previousOwner",
          "type": "address"
        },
        {
          "indexed": true,
          "internalType": "address",
          "name": "newOwner",
          "type": "address"
        }
      ],
      "name": "OwnershipTransferred",
      "type": "event"
    },
    {
      "anonymous": false,
      "inputs": [
        {
          "indexed": false,
          "internalType": "bytes32",
          "name": "role",
          "type": "bytes32"
        },
        {
          "indexed": false,
          "internalType": "address",
          "name": "account",
          "type": "address"
        },
        {
          "indexed": false,
          "internalType": "address",
          "name": "operator",
          "type": "address"
        }
      ],
      "name": "RoleGranted",
      "type": "event"
    },
    {
      "anonymous": false,
      "inputs": [
        {
          "indexed": false,
          "internalType": "bytes32",
          "name": "role",
          "type": "bytes32"
        },
        {
          "indexed": false,
          "internalType": "address",
          "name": "account",
          "type": "address"
        },
        {
          "indexed": false,
          "internalType": "address",
          "name": "operator",
          "type": "address"
        }
      ],
      "name": "RoleRevoked",
      "type": "event"
    },
    {
      "anonymous": false,
      "inputs": [
        {
          "indexed": true,
          "internalType": "address",
          "name": "from",
          "type": "address"
        },
        {
          "indexed": true,
          "internalType": "address",
          "name": "to",
          "type": "address"
        },
        {
          "indexed": true,
          "internalType": "uint256",
          "name": "tokenId",
          "type": "uint256"
        }
      ],
      "name": "Transfer",
      "type": "event"
    },
    {
      "inputs": [],
      "name": "MINTER_ROLE",
      "outputs": [
        {
          "internalType": "bytes32",
          "name": "",
          "type": "bytes32"
        }
      ],
      "stateMutability": "view",
      "type": "function"
    },
    {
      "inputs": [],
      "name": "__msgData",
      "outputs": [
        {
          "internalType": "bytes",
          "name": "",
          "type": "bytes"
        }
      ],
      "stateMutability": "view",
      "type": "function"
    },
    {
      "inputs": [
        {
          "internalType": "address",
          "name": "to",
          "type": "address"
        },
        {
          "internalType": "uint256",
          "name": "tokenId",
          "type": "uint256"
        }
      ],
      "name": "approve",
      "outputs": [],
      "stateMutability": "nonpayable",
      "type": "function"
    },
    {
      "inputs": [
        {
          "internalType": "address",
          "name": "owner",
          "type": "address"
        }
      ],
      "name": "balanceOf",
      "outputs": [
        {
          "internalType": "uint256",
          "name": "balance",
          "type": "uint256"
        }
      ],
      "stateMutability": "view",
      "type": "function"
    },
    {
      "inputs": [],
      "name": "baseMetadataURI",
      "outputs": [
        {
          "internalType": "string",
          "name": "baseURI",
          "type": "string"
        }
      ],
      "stateMutability": "view",
      "type": "function"
    },
    {
      "inputs": [
        {
          "internalType": "address",
          "name": "from",
          "type": "address"
        },
        {
          "internalType": "uint256[]",
          "name": "tokenIds",
          "type": "uint256[]"
        }
      ],
      "name": "batchBurnFrom",
      "outputs": [],
      "stateMutability": "nonpayable",
      "type": "function"
    },
    {
      "inputs": [
        {
          "internalType": "address",
          "name": "to",
          "type": "address"
        },
        {
          "internalType": "uint256[]",
          "name": "tokenIds",
          "type": "uint256[]"
        }
      ],
      "name": "batchMint",
      "outputs": [],
      "stateMutability": "nonpayable",
      "type": "function"
    },
    {
      "inputs": [
        {
          "internalType": "address",
          "name": "from",
          "type": "address"
        },
        {
          "internalType": "address",
          "name": "to",
          "type": "address"
        },
        {
          "internalType": "uint256[]",
          "name": "tokenIds",
          "type": "uint256[]"
        }
      ],
      "name": "batchTransferFrom",
      "outputs": [],
      "stateMutability": "nonpayable",
      "type": "function"
    },
    {
      "inputs": [
        {
          "internalType": "address",
          "name": "from",
          "type": "address"
        },
        {
          "internalType": "uint256",
          "name": "tokenId",
          "type": "uint256"
        }
      ],
      "name": "burnFrom",
      "outputs": [],
      "stateMutability": "nonpayable",
      "type": "function"
    },
    {
      "inputs": [
        {
          "internalType": "address[]",
          "name": "recipients",
          "type": "address[]"
        },
        {
          "internalType": "uint256[]",
          "name": "tokenIds",
          "type": "uint256[]"
        }
      ],
      "name": "deliver",
      "outputs": [],
      "stateMutability": "nonpayable",
      "type": "function"
    },
    {
      "inputs": [],
      "name": "forwarderRegistry",
      "outputs": [
        {
          "internalType": "contract IForwarderRegistry",
          "name": "",
          "type": "address"
        }
      ],
      "stateMutability": "view",
      "type": "function"
    },
    {
      "inputs": [
        {
          "internalType": "uint256",
          "name": "tokenId",
          "type": "uint256"
        }
      ],
      "name": "getApproved",
      "outputs": [
        {
          "internalType": "address",
          "name": "approved",
          "type": "address"
        }
      ],
      "stateMutability": "view",
      "type": "function"
    },
    {
      "inputs": [
        {
          "internalType": "bytes32",
          "name": "role",
          "type": "bytes32"
        },
        {
          "internalType": "address",
          "name": "account",
          "type": "address"
        }
      ],
      "name": "grantRole",
      "outputs": [],
      "stateMutability": "nonpayable",
      "type": "function"
    },
    {
      "inputs": [
        {
          "internalType": "bytes32",
          "name": "role",
          "type": "bytes32"
        },
        {
          "internalType": "address",
          "name": "account",
          "type": "address"
        }
      ],
      "name": "hasRole",
      "outputs": [
        {
          "internalType": "bool",
          "name": "",
          "type": "bool"
        }
      ],
      "stateMutability": "view",
      "type": "function"
    },
    {
      "inputs": [
        {
          "internalType": "address",
          "name": "owner",
          "type": "address"
        },
        {
          "internalType": "address",
          "name": "operator",
          "type": "address"
        }
      ],
      "name": "isApprovedForAll",
      "outputs": [
        {
          "internalType": "bool",
          "name": "approvedForAll",
          "type": "bool"
        }
      ],
      "stateMutability": "view",
      "type": "function"
    },
    {
      "inputs": [
        {
          "internalType": "address",
          "name": "forwarder",
          "type": "address"
        }
      ],
      "name": "isTrustedForwarder",
      "outputs": [
        {
          "internalType": "bool",
          "name": "",
          "type": "bool"
        }
      ],
      "stateMutability": "view",
      "type": "function"
    },
    {
      "inputs": [
        {
          "internalType": "address",
          "name": "to",
          "type": "address"
        },
        {
          "internalType": "uint256",
          "name": "tokenId",
          "type": "uint256"
        }
      ],
      "name": "mint",
      "outputs": [],
      "stateMutability": "nonpayable",
      "type": "function"
    },
    {
      "inputs": [],
      "name": "name",
      "outputs": [
        {
          "internalType": "string",
          "name": "tokenName",
          "type": "string"
        }
      ],
      "stateMutability": "view",
      "type": "function"
    },
    {
      "inputs": [],
      "name": "owner",
      "outputs": [
        {
          "internalType": "address",
          "name": "",
          "type": "address"
        }
      ],
      "stateMutability": "view",
      "type": "function"
    },
    {
      "inputs": [
        {
          "internalType": "uint256",
          "name": "tokenId",
          "type": "uint256"
        }
      ],
      "name": "ownerOf",
      "outputs": [
        {
          "internalType": "address",
          "name": "tokenOwner",
          "type": "address"
        }
      ],
      "stateMutability": "view",
      "type": "function"
    },
    {
      "inputs": [
        {
          "internalType": "bytes32",
          "name": "role",
          "type": "bytes32"
        }
      ],
      "name": "renounceRole",
      "outputs": [],
      "stateMutability": "nonpayable",
      "type": "function"
    },
    {
      "inputs": [
        {
          "internalType": "bytes32",
          "name": "role",
          "type": "bytes32"
        },
        {
          "internalType": "address",
          "name": "account",
          "type": "address"
        }
      ],
      "name": "revokeRole",
      "outputs": [],
      "stateMutability": "nonpayable",
      "type": "function"
    },
    {
      "inputs": [
        {
          "internalType": "address",
          "name": "to",
          "type": "address"
        },
        {
          "internalType": "uint256",
          "name": "tokenId",
          "type": "uint256"
        },
        {
          "internalType": "bytes",
          "name": "data",
          "type": "bytes"
        }
      ],
      "name": "safeMint",
      "outputs": [],
      "stateMutability": "nonpayable",
      "type": "function"
    },
    {
      "inputs": [
        {
          "internalType": "address",
          "name": "from",
          "type": "address"
        },
        {
          "internalType": "address",
          "name": "to",
          "type": "address"
        },
        {
          "internalType": "uint256",
          "name": "tokenId",
          "type": "uint256"
        }
      ],
      "name": "safeTransferFrom",
      "outputs": [],
      "stateMutability": "nonpayable",
      "type": "function"
    },
    {
      "inputs": [
        {
          "internalType": "address",
          "name": "from",
          "type": "address"
        },
        {
          "internalType": "address",
          "name": "to",
          "type": "address"
        },
        {
          "internalType": "uint256",
          "name": "tokenId",
          "type": "uint256"
        },
        {
          "internalType": "bytes",
          "name": "data",
          "type": "bytes"
        }
      ],
      "name": "safeTransferFrom",
      "outputs": [],
      "stateMutability": "nonpayable",
      "type": "function"
    },
    {
      "inputs": [
        {
          "internalType": "address",
          "name": "operator",
          "type": "address"
        },
        {
          "internalType": "bool",
          "name": "approved",
          "type": "bool"
        }
      ],
      "name": "setApprovalForAll",
      "outputs": [],
      "stateMutability": "nonpayable",
      "type": "function"
    },
    {
      "inputs": [
        {
          "internalType": "string",
          "name": "baseURI",
          "type": "string"
        }
      ],
      "name": "setBaseMetadataURI",
      "outputs": [],
      "stateMutability": "nonpayable",
      "type": "function"
    },
    {
      "inputs": [
        {
          "internalType": "bytes4",
          "name": "interfaceId",
          "type": "bytes4"
        }
      ],
      "name": "supportsInterface",
      "outputs": [
        {
          "internalType": "bool",
          "name": "",
          "type": "bool"
        }
      ],
      "stateMutability": "view",
      "type": "function"
    },
    {
      "inputs": [],
      "name": "symbol",
      "outputs": [
        {
          "internalType": "string",
          "name": "tokenSymbol",
          "type": "string"
        }
      ],
      "stateMutability": "view",
      "type": "function"
    },
    {
      "inputs": [
        {
          "internalType": "uint256",
          "name": "tokenId",
          "type": "uint256"
        }
      ],
      "name": "tokenURI",
      "outputs": [
        {
          "internalType": "string",
          "name": "uri",
          "type": "string"
        }
      ],
      "stateMutability": "view",
      "type": "function"
    },
    {
      "inputs": [
        {
          "internalType": "address",
          "name": "from",
          "type": "address"
        },
        {
          "internalType": "address",
          "name": "to",
          "type": "address"
        },
        {
          "internalType": "uint256",
          "name": "tokenId",
          "type": "uint256"
        }
      ],
      "name": "transferFrom",
      "outputs": [],
      "stateMutability": "nonpayable",
      "type": "function"
    },
    {
      "inputs": [
        {
          "internalType": "address",
          "name": "newOwner",
          "type": "address"
        }
      ],
      "name": "transferOwnership",
      "outputs": [],
      "stateMutability": "nonpayable",
      "type": "function"
    }
  ],
  "bytecode": "0x60a06040523480156200001157600080fd5b506040516200471838038062004718833981016040819052620000349162000576565b8383838383838383808033620000546200015660201b62000aeb1760201c565b62000082816200006e6200019060201b62000b221760201c565b620001c660201b62000b501790919060201c565b50620000986200024460201b62000c061760201c565b6001600160a01b031660805250620000bd905062000267602090811b62000c3417901c565b620000d26200028a60201b62000c621760201c565b620001028383620000ed620002ad60201b62000c901760201c565b620002dd60201b62000cbe179092919060201c565b62000130816200011c6200032460201b62000d071760201c565b6200035460201b62000d351790919060201c565b505050505050506200014c6200036e60201b62000d3f1760201c565b50505050620007de565b6200018e6380ac58cd60e01b6001620001796200039160201b62000d691760201c565b620003c160201b62000d97179092919060201c565b565b600080620001c060017fc9ed16f33ab3a66c84bfd83099ccb2a8845871e2e1c1928f63797152f0fd54cd62000629565b92915050565b6001600160a01b038116156200021d5781546001600160a01b0319166001600160a01b03821690811783556040516000907f8be0079c531659141344cd1fd0a4f28419497f9722a3daafe3b4186f6b6457e0908290a35b620002406307f5828d60e41b6001620001796200039160201b62000d691760201c565b5050565b6200018e638e773e1360e01b6001620001796200039160201b62000d691760201c565b6200018e634ed2f41960e11b6001620001796200039160201b62000d691760201c565b6200018e63f3993d1160e01b6001620001796200039160201b62000d691760201c565b600080620001c060017f9c4269c0f9f430d98876ffe9767fbf3f3232ea91a549beb549e5329532520eb362000629565b82620002ea8382620006dd565b5060018301620002fb8282620006dd565b506200031f635b5e139f60e01b6001620001796200039160201b62000d691760201c565b505050565b600080620001c060017fe94434e3c6b941c5d90218142fadcc69cb2e13723993540bfa1c131dd1d3475a62000629565b6200024081836200045160201b62000ea81790919060201c565b6200018e638b8b4ef560e01b6001620001796200039160201b62000d691760201c565b600080620001c060017fca9d3e17f264b0f3984e2634e94adb37fa3e6a8103f06aeae6fa59e21c769f5e62000629565b600160e01b6001600160e01b0319831601620004235760405162461bcd60e51b815260206004820152601f60248201527f496e74657266616365446574656374696f6e3a2077726f6e672076616c756500604482015260640160405180910390fd5b6001600160e01b03199190911660009081526020929092526040909120805460ff1916911515919091179055565b816200045e8282620006dd565b507f04b1dc5c136a3ce9fded8db0ce3d3366c58764ec3a8e4c2b9e52e4ddfe5ebbf781604051620004909190620007a9565b60405180910390a15050565b634e487b7160e01b600052604160045260246000fd5b60005b83811015620004cf578181015183820152602001620004b5565b83811115620004df576000848401525b50505050565b600082601f830112620004f757600080fd5b81516001600160401b03808211156200051457620005146200049c565b604051601f8301601f19908116603f011681019082821181831017156200053f576200053f6200049c565b816040528381528660208588010111156200055957600080fd5b6200056c846020830160208901620004b2565b9695505050505050565b600080600080608085870312156200058d57600080fd5b84516001600160401b0380821115620005a557600080fd5b620005b388838901620004e5565b95506020870151915080821115620005ca57600080fd5b620005d888838901620004e5565b94506040870151915080821115620005ef57600080fd5b50620005fe87828801620004e5565b606087015190935090506001600160a01b03811681146200061e57600080fd5b939692955090935050565b6000828210156200064a57634e487b7160e01b600052601160045260246000fd5b500390565b600181811c908216806200066457607f821691505b6020821081036200068557634e487b7160e01b600052602260045260246000fd5b50919050565b601f8211156200031f57600081815260208120601f850160051c81016020861015620006b45750805b601f850160051c820191505b81811015620006d557828155600101620006c0565b505050505050565b81516001600160401b03811115620006f957620006f96200049c565b62000711816200070a84546200064f565b846200068b565b602080601f831160018114620007495760008415620007305750858301515b600019600386901b1c1916600185901b178555620006d5565b600085815260208120601f198616915b828110156200077a5788860151825594840194600190910190840162000759565b5085821015620007995787850151600019600388901b60f8161c191681555b5050505050600190811b01905550565b6020815260008251806020840152620007ca816040850160208701620004b2565b601f01601f19169190910160400192915050565b608051613efb6200081d600039600081816102940152818161032a01528181613231015281816132d10152818161336501526133cf0152613efb6000f3fe608060405234801561001057600080fd5b50600436106101f05760003560e01c80637e518ec81161010f578063b88d4fde116100a2578063e985e9c511610071578063e985e9c514610498578063f2472965146104ab578063f2fde38b146104be578063f3993d11146104d157600080fd5b8063b88d4fde14610438578063c87b56dd1461044b578063d53913931461045e578063d547741f1461048557600080fd5b806391d14854116100de57806391d14854146103f757806395d89b411461040a5780639da5e83214610412578063a22cb4651461042557600080fd5b80637e518ec8146103b65780638832e6e3146103c95780638bb9c5bf146103dc5780638da5cb5b146103ef57600080fd5b806340c10f19116101875780635b2bd79e116101565780635b2bd79e146103675780636352211e1461036f57806370a082311461038257806379cc6790146103a357600080fd5b806340c10f19146102e157806342842e0e146102f45780634684d7e914610307578063572b6c051461031a57600080fd5b806323b872dd116101c357806323b872dd1461027f5780632b4c9f16146102925780632f2ff15d146102b857806331e66e1e146102cb57600080fd5b806301ffc9a7146101f557806306fdde031461021d578063081812fc14610232578063095ea7b31461026a575b600080fd5b61020861020336600461351d565b6104e4565b60405190151581526020015b60405180910390f35b6102256104fe565b60405161021491906135b0565b6102456102403660046135c3565b610515565b60405173ffffffffffffffffffffffffffffffffffffffff9091168152602001610214565b61027d610278366004613605565b610529565b005b61027d61028d36600461362f565b61054a565b7f0000000000000000000000000000000000000000000000000000000000000000610245565b61027d6102c636600461366b565b61056e565b6102d36105a2565b604051610214929190613697565b61027d6102ef366004613605565b6105b5565b61027d61030236600461362f565b610604565b61027d610315366004613730565b610623565b610208610328366004613783565b7f000000000000000000000000000000000000000000000000000000000000000073ffffffffffffffffffffffffffffffffffffffff90811691161490565b610225610697565b61024561037d3660046135c3565b6106a4565b610395610390366004613783565b6106b8565b604051908152602001610214565b61027d6103b1366004613605565b6106cc565b61027d6103c43660046137e0565b6106e9565b61027d6103d7366004613822565b610745565b61027d6103ea3660046135c3565b6107cd565b6102456107eb565b61020861040536600461366b565b610812565b61022561085d565b61027d61042036600461387c565b61086f565b61027d6104333660046138ea565b610913565b61027d610446366004613921565b610930565b6102256104593660046135c3565b61098f565b6103957f6d696e746572000000000000000000000000000000000000000000000000000081565b61027d61049336600461366b565b6109b0565b6102086104a6366004613990565b6109de565b61027d6104b9366004613730565b610a2c565b61027d6104cc366004613783565b610a7d565b61027d6104df3660046139ba565b610a98565b60006104f8826104f2610d69565b90610eef565b92915050565b606061051061050b610c90565b610fc9565b905090565b60006104f88261052361105f565b9061108d565b61054661053461116e565b838361053e61105f565b929190611178565b5050565b61056961055561116e565b84848461056061105f565b93929190611441565b505050565b600061057861116e565b905061058c81610586610b22565b90611796565b61056983838361059a611819565b929190611847565b3660006105ad61191d565b915091509091565b6105f07f6d696e74657200000000000000000000000000000000000000000000000000006105e161116e565b6105e9611819565b9190611928565b61054682826105fd61105f565b91906119d4565b61056961060f61116e565b84848461061a61105f565b93929190611b4b565b61064f7f6d696e74657200000000000000000000000000000000000000000000000000006105e161116e565b61056983838380806020026020016040519081016040528093929190818152602001838360200280828437600092019190915250610690925061105f915050565b9190611b91565b606061051061050b610d07565b60006104f8826106b261105f565b90611d65565b60006104f8826106c661105f565b90611dfb565b6105466106d761116e565b83836106e161105f565b929190611ea7565b6106fc6106f461116e565b610586610b22565b61054682828080601f01602080910402602001604051908101604052809392919081815260200183838082843760009201919091525061073f9250610d07915050565b90610ea8565b6107717f6d696e74657200000000000000000000000000000000000000000000000000006105e161116e565b6107c761077c61116e565b858585858080601f0160208091040260200160405190810160405280939291908181526020018383808284376000920191909152506107be925061105f915050565b939291906120bb565b50505050565b6107e86107d861116e565b826107e1611819565b91906120f1565b50565b60006105106107f8610b22565b5473ffffffffffffffffffffffffffffffffffffffff1690565b60006108568383610821611819565b60009283526020908152604080842073ffffffffffffffffffffffffffffffffffffffff909316845291905290205460ff1690565b9392505050565b606061051061086a610c90565b612195565b61089b7f6d696e74657200000000000000000000000000000000000000000000000000006105e161116e565b6107c78484808060200260200160405190810160405280939291908181526020018383602002808284376000920191909152505060408051602080880282810182019093528782529093508792508691829185019084908082843760009201919091525061090c925061105f915050565b91906121a6565b61054661091e61116e565b838361092861105f565b9291906123fc565b61098861093b61116e565b86868686868080601f01602080910402602001604051908101604052809392919081815260200183838082843760009201919091525061097e925061105f915050565b949392919061252c565b5050505050565b606061099d826106b261105f565b506104f8826109aa610d07565b9061256b565b60006109ba61116e565b90506109c881610586610b22565b6105698383836109d6611819565b92919061259f565b600061085683836109ed61105f565b919073ffffffffffffffffffffffffffffffffffffffff9182166000908152600393909301602090815260408085209290931684525290205460ff1690565b610569610a3761116e565b84848480806020026020016040519081016040528093929190818152602001838360200280828437600092019190915250610a75925061105f915050565b929190612669565b6107e8610a8861116e565b82610a91610b22565b91906128bf565b6107c7610aa361116e565b8585858580806020026020016040519081016040528093929190818152602001838360200280828437600092019190915250610ae2925061105f915050565b939291906129eb565b610b207f80ac58cd000000000000000000000000000000000000000000000000000000006001610b19610d69565b9190610d97565b565b6000806104f860017fc9ed16f33ab3a66c84bfd83099ccb2a8845871e2e1c1928f63797152f0fd54cd613a3e565b73ffffffffffffffffffffffffffffffffffffffff811615610bd85781547fffffffffffffffffffffffff00000000000000000000000000000000000000001673ffffffffffffffffffffffffffffffffffffffff821690811783556040516000907f8be0079c531659141344cd1fd0a4f28419497f9722a3daafe3b4186f6b6457e0908290a35b6105467f7f5828d0000000000000000000000000000000000000000000000000000000006001610b19610d69565b610b207f8e773e13000000000000000000000000000000000000000000000000000000006001610b19610d69565b610b207f9da5e832000000000000000000000000000000000000000000000000000000006001610b19610d69565b610b207ff3993d11000000000000000000000000000000000000000000000000000000006001610b19610d69565b6000806104f860017f9c4269c0f9f430d98876ffe9767fbf3f3232ea91a549beb549e5329532520eb3613a3e565b82610cc98382613b17565b5060018301610cd88282613b17565b506105697f5b5e139f000000000000000000000000000000000000000000000000000000006001610b19610d69565b6000806104f860017fe94434e3c6b941c5d90218142fadcc69cb2e13723993540bfa1c131dd1d3475a613a3e565b6105468282610ea8565b610b207f8b8b4ef5000000000000000000000000000000000000000000000000000000006001610b195b6000806104f860017fca9d3e17f264b0f3984e2634e94adb37fa3e6a8103f06aeae6fa59e21c769f5e613a3e565b7c01000000000000000000000000000000000000000000000000000000007fffffffff00000000000000000000000000000000000000000000000000000000831601610e44576040517f08c379a000000000000000000000000000000000000000000000000000000000815260206004820152601f60248201527f496e74657266616365446574656374696f6e3a2077726f6e672076616c75650060448201526064015b60405180910390fd5b7fffffffff00000000000000000000000000000000000000000000000000000000919091166000908152602092909252604090912080547fffffffffffffffffffffffffffffffffffffffffffffffffffffffffffffff0016911515919091179055565b81610eb38282613b17565b507f04b1dc5c136a3ce9fded8db0ce3d3366c58764ec3a8e4c2b9e52e4ddfe5ebbf781604051610ee391906135b0565b60405180910390a15050565b60007c01000000000000000000000000000000000000000000000000000000007fffffffff00000000000000000000000000000000000000000000000000000000831601610f3f575060006104f8565b7ffe003659000000000000000000000000000000000000000000000000000000007fffffffff00000000000000000000000000000000000000000000000000000000831601610f90575060016104f8565b507fffffffff00000000000000000000000000000000000000000000000000000000166000908152602091909152604090205460ff1690565b6060816000018054610fda90613a84565b80601f016020809104026020016040519081016040528092919081815260200182805461100690613a84565b80156110535780601f1061102857610100808354040283529160200191611053565b820191906000526020600020905b81548152906001019060200180831161103657829003601f168201915b50505050509050919050565b6000806104f860017fddf3ee18ae6d688373c219468f8be446e7ae82215f4779d821c7ea5e8c13c0c1613a3e565b60008181526020839052604081205473ffffffffffffffffffffffffffffffffffffffff8116611119576040517f08c379a000000000000000000000000000000000000000000000000000000000815260206004820152601a60248201527f4552433732313a206e6f6e2d6578697374696e6720746f6b656e0000000000006044820152606401610e3b565b74010000000000000000000000000000000000000000811615611164575050600081815260028301602052604090205473ffffffffffffffffffffffffffffffffffffffff166104f8565b60009150506104f8565b6000610510612d69565b60008181526020859052604090205473ffffffffffffffffffffffffffffffffffffffff8116611204576040517f08c379a000000000000000000000000000000000000000000000000000000000815260206004820152601a60248201527f4552433732313a206e6f6e2d6578697374696e6720746f6b656e0000000000006044820152606401610e3b565b8073ffffffffffffffffffffffffffffffffffffffff80821690851603611287576040517f08c379a000000000000000000000000000000000000000000000000000000000815260206004820152601560248201527f4552433732313a2073656c662d617070726f76616c00000000000000000000006044820152606401610e3b565b611292868287612d73565b6112f8576040517f08c379a000000000000000000000000000000000000000000000000000000000815260206004820152601b60248201527f4552433732313a206e6f6e2d617070726f7665642073656e64657200000000006044820152606401610e3b565b73ffffffffffffffffffffffffffffffffffffffff841661135d577401000000000000000000000000000000000000000082161561135857600083815260208790526040902073ffffffffffffffffffffffffffffffffffffffff821690555b6113de565b74010000000000000000000000000000000000000000821780831461138e5760008481526020889052604090208190555b506000838152600287016020526040902080547fffffffffffffffffffffffff00000000000000000000000000000000000000001673ffffffffffffffffffffffffffffffffffffffff86161790555b828473ffffffffffffffffffffffffffffffffffffffff168273ffffffffffffffffffffffffffffffffffffffff167f8c5be1e5ebec7d5bd14f71427d1e84f3dd0314c0f7b2291e5b200ac8c7c3b92560405160405180910390a4505050505050565b73ffffffffffffffffffffffffffffffffffffffff82166114be576040517f08c379a000000000000000000000000000000000000000000000000000000000815260206004820152601e60248201527f4552433732313a207472616e7366657220746f206164647265737328302900006044820152606401610e3b565b60008181526020869052604090205473ffffffffffffffffffffffffffffffffffffffff811661154a576040517f08c379a000000000000000000000000000000000000000000000000000000000815260206004820152601a60248201527f4552433732313a206e6f6e2d6578697374696e6720746f6b656e0000000000006044820152606401610e3b565b73ffffffffffffffffffffffffffffffffffffffff84168173ffffffffffffffffffffffffffffffffffffffff16146115df576040517f08c379a000000000000000000000000000000000000000000000000000000000815260206004820152601760248201527f4552433732313a206e6f6e2d6f776e656420746f6b656e0000000000000000006044820152606401610e3b565b6115ea868587612d73565b6116a2577401000000000000000000000000000000000000000081161515801561163c5750600082815260028701602052604090205473ffffffffffffffffffffffffffffffffffffffff8681169116145b6116a2576040517f08c379a000000000000000000000000000000000000000000000000000000000815260206004820152601b60248201527f4552433732313a206e6f6e2d617070726f7665642073656e64657200000000006044820152606401610e3b565b600082815260208790526040902073ffffffffffffffffffffffffffffffffffffffff808516918290558516146117335773ffffffffffffffffffffffffffffffffffffffff80851660009081526001808901602052604080832080547fffffffffffffffffffffffffffffffffffffffffffffffffffffffffffffffff0190559286168252919020805490910190555b818373ffffffffffffffffffffffffffffffffffffffff168573ffffffffffffffffffffffffffffffffffffffff167fddf252ad1be2c89b69c2b068fc378daa952ba7f163c4a11628f55a4df523b3ef60405160405180910390a4505050505050565b815473ffffffffffffffffffffffffffffffffffffffff828116911614610546576040517f08c379a000000000000000000000000000000000000000000000000000000000815260206004820152601860248201527f4f776e6572736869703a206e6f7420746865206f776e657200000000000000006044820152606401610e3b565b6000806104f860017fc8827d3282af6f37b64c3e9e6f3ac9df286ab0bb0fccd6f8661bf19adb368b23613a3e565b60008381526020858152604080832073ffffffffffffffffffffffffffffffffffffffff8616845290915290205460ff166107c75760008381526020858152604080832073ffffffffffffffffffffffffffffffffffffffff8681168086529184529382902080547fffffffffffffffffffffffffffffffffffffffffffffffffffffffffffffff00166001179055815187815292830152918316918101919091527f2f8788117e7eff1d82e926ec794901d17c78024a50270940304540a733656f0d906060015b60405180910390a150505050565b3660006105ad612de8565b60008281526020848152604080832073ffffffffffffffffffffffffffffffffffffffff8516845290915290205460ff166105695761196682612df3565b6040516020016119769190613c31565b604080517fffffffffffffffffffffffffffffffffffffffffffffffffffffffffffffffe0818403018152908290527f08c379a0000000000000000000000000000000000000000000000000000000008252610e3b916004016135b0565b73ffffffffffffffffffffffffffffffffffffffff8216611a51576040517f08c379a000000000000000000000000000000000000000000000000000000000815260206004820152601a60248201527f4552433732313a206d696e7420746f20616464726573732830290000000000006044820152606401610e3b565b60008181526020849052604090205473ffffffffffffffffffffffffffffffffffffffff1615611add576040517f08c379a000000000000000000000000000000000000000000000000000000000815260206004820152601660248201527f4552433732313a206578697374696e6720746f6b656e000000000000000000006044820152606401610e3b565b60008181526020848152604080832073ffffffffffffffffffffffffffffffffffffffff86169081905580845260018088019093528184208054909301909255518392907fddf252ad1be2c89b69c2b068fc378daa952ba7f163c4a11628f55a4df523b3ef908290a4505050565b611b588585858585611441565b73ffffffffffffffffffffffffffffffffffffffff82163b15610988576109888484848460405180602001604052806000815250612f85565b73ffffffffffffffffffffffffffffffffffffffff8216611c0e576040517f08c379a000000000000000000000000000000000000000000000000000000000815260206004820152601a60248201527f4552433732313a206d696e7420746f20616464726573732830290000000000006044820152606401610e3b565b805160005b818114611d30576000838281518110611c2e57611c2e613c9d565b60200260200101519050611c6c8660000160008381526020019081526020016000205473ffffffffffffffffffffffffffffffffffffffff16151590565b15611cd3576040517f08c379a000000000000000000000000000000000000000000000000000000000815260206004820152601660248201527f4552433732313a206578697374696e6720746f6b656e000000000000000000006044820152606401610e3b565b60008181526020879052604080822073ffffffffffffffffffffffffffffffffffffffff88169081905590518392907fddf252ad1be2c89b69c2b068fc378daa952ba7f163c4a11628f55a4df523b3ef908290a450600101611c13565b5073ffffffffffffffffffffffffffffffffffffffff9092166000908152600190930160205250604090912080549091019055565b60008181526020839052604081205473ffffffffffffffffffffffffffffffffffffffff8116611df1576040517f08c379a000000000000000000000000000000000000000000000000000000000815260206004820152601a60248201527f4552433732313a206e6f6e2d6578697374696e6720746f6b656e0000000000006044820152606401610e3b565b805b949350505050565b600073ffffffffffffffffffffffffffffffffffffffff8216611e7a576040517f08c379a000000000000000000000000000000000000000000000000000000000815260206004820152601d60248201527f4552433732313a2062616c616e6365206f6620616464726573732830290000006044820152606401610e3b565b5073ffffffffffffffffffffffffffffffffffffffff166000908152600191909101602052604090205490565b6000818152602085905260409020548073ffffffffffffffffffffffffffffffffffffffff168373ffffffffffffffffffffffffffffffffffffffff1614611f4b576040517f08c379a000000000000000000000000000000000000000000000000000000000815260206004820152601760248201527f4552433732313a206e6f6e2d6f776e656420746f6b656e0000000000000000006044820152606401610e3b565b611f56858486612d73565b61200e5774010000000000000000000000000000000000000000811615158015611fa85750600082815260028601602052604090205473ffffffffffffffffffffffffffffffffffffffff8581169116145b61200e576040517f08c379a000000000000000000000000000000000000000000000000000000000815260206004820152601b60248201527f4552433732313a206e6f6e2d617070726f7665642073656e64657200000000006044820152606401610e3b565b6000828152602086815260408083207fdead000000000000000000000000000000000000000000000000000000000000905573ffffffffffffffffffffffffffffffffffffffff86168084526001890190925280832080547fffffffffffffffffffffffffffffffffffffffffffffffffffffffffffffffff01905551849291907fddf252ad1be2c89b69c2b068fc378daa952ba7f163c4a11628f55a4df523b3ef908390a45050505050565b6120c68584846119d4565b73ffffffffffffffffffffffffffffffffffffffff83163b1561098857610988846000858585612f85565b6120fc838284611928565b60008181526020848152604080832073ffffffffffffffffffffffffffffffffffffffff86168085529083529281902080547fffffffffffffffffffffffffffffffffffffffffffffffffffffffffffffff0016905580518481529182018390528101919091527ff6391f5c32d9c69d2a47ea670b442974b53935d1edc7fd64eb21e047a839171b9060600160405180910390a1505050565b6060816001018054610fda90613a84565b815181518114612212576040517f08c379a000000000000000000000000000000000000000000000000000000000815260206004820152601b60248201527f4552433732313a20696e636f6e73697374656e742061727261797300000000006044820152606401610e3b565b60005b81811461098857600084828151811061223057612230613c9d565b60200260200101519050600073ffffffffffffffffffffffffffffffffffffffff168173ffffffffffffffffffffffffffffffffffffffff16036122d0576040517f08c379a000000000000000000000000000000000000000000000000000000000815260206004820152601a60248201527f4552433732313a206d696e7420746f20616464726573732830290000000000006044820152606401610e3b565b60008483815181106122e4576122e4613c9d565b602002602001015190506123228760000160008381526020019081526020016000205473ffffffffffffffffffffffffffffffffffffffff16151590565b15612389576040517f08c379a000000000000000000000000000000000000000000000000000000000815260206004820152601660248201527f4552433732313a206578697374696e6720746f6b656e000000000000000000006044820152606401610e3b565b60008181526020888152604080832073ffffffffffffffffffffffffffffffffffffffff8616908190558084526001808c019093528184208054909301909255518392907fddf252ad1be2c89b69c2b068fc378daa952ba7f163c4a11628f55a4df523b3ef908290a45050600101612215565b8273ffffffffffffffffffffffffffffffffffffffff168273ffffffffffffffffffffffffffffffffffffffff1603612491576040517f08c379a000000000000000000000000000000000000000000000000000000000815260206004820152601d60248201527f4552433732313a2073656c662d617070726f76616c20666f7220616c6c0000006044820152606401610e3b565b73ffffffffffffffffffffffffffffffffffffffff838116600081815260038701602090815260408083209487168084529482529182902080547fffffffffffffffffffffffffffffffffffffffffffffffffffffffffffffff001686151590811790915591519182527f17307eab39ab6107e8899845ad3d59bd9653f200f220920489ca2b5937696c31910160405180910390a350505050565b6125398686868686611441565b73ffffffffffffffffffffffffffffffffffffffff83163b15612563576125638585858585612f85565b505050505050565b606082612577836130ab565b604051602001612588929190613ccc565b604051602081830303815290604052905092915050565b60008381526020858152604080832073ffffffffffffffffffffffffffffffffffffffff8616845290915290205460ff16156107c75760008381526020858152604080832073ffffffffffffffffffffffffffffffffffffffff8681168086529184529382902080547fffffffffffffffffffffffffffffffffffffffffffffffffffffffffffffff00169055815187815292830152918316918101919091527ff6391f5c32d9c69d2a47ea670b442974b53935d1edc7fd64eb21e047a839171b9060600161190f565b6000612676858486612d73565b825190915060005b81811461288257600084828151811061269957612699613c9d565b6020908102919091018101516000818152918a90526040909120549091508073ffffffffffffffffffffffffffffffffffffffff168773ffffffffffffffffffffffffffffffffffffffff161461274c576040517f08c379a000000000000000000000000000000000000000000000000000000000815260206004820152601760248201527f4552433732313a206e6f6e2d6f776e656420746f6b656e0000000000000000006044820152606401610e3b565b84612805577401000000000000000000000000000000000000000081161515801561279f5750600082815260028a01602052604090205473ffffffffffffffffffffffffffffffffffffffff8981169116145b612805576040517f08c379a000000000000000000000000000000000000000000000000000000000815260206004820152601b60248201527f4552433732313a206e6f6e2d617070726f7665642073656e64657200000000006044820152606401610e3b565b600082815260208a905260408082207fdead00000000000000000000000000000000000000000000000000000000000090555183919073ffffffffffffffffffffffffffffffffffffffff8a16907fddf252ad1be2c89b69c2b068fc378daa952ba7f163c4a11628f55a4df523b3ef908390a4505060010161267e565b5080156125635773ffffffffffffffffffffffffffffffffffffffff84166000908152600187016020526040902080548290039055505050505050565b825473ffffffffffffffffffffffffffffffffffffffff9081169083168114612944576040517f08c379a000000000000000000000000000000000000000000000000000000000815260206004820152601860248201527f4f776e6572736869703a206e6f7420746865206f776e657200000000000000006044820152606401610e3b565b8173ffffffffffffffffffffffffffffffffffffffff168173ffffffffffffffffffffffffffffffffffffffff16146107c75783547fffffffffffffffffffffffff00000000000000000000000000000000000000001673ffffffffffffffffffffffffffffffffffffffff8381169182178655604051908316907f8be0079c531659141344cd1fd0a4f28419497f9722a3daafe3b4186f6b6457e090600090a350505050565b73ffffffffffffffffffffffffffffffffffffffff8216612a68576040517f08c379a000000000000000000000000000000000000000000000000000000000815260206004820152601e60248201527f4552433732313a207472616e7366657220746f206164647265737328302900006044820152606401610e3b565b6000612a75868587612d73565b825190915060005b818114612ce2576000848281518110612a9857612a98613c9d565b6020908102919091018101516000818152918b905260409091205490915073ffffffffffffffffffffffffffffffffffffffff8116612b33576040517f08c379a000000000000000000000000000000000000000000000000000000000815260206004820152601a60248201527f4552433732313a206e6f6e2d6578697374696e6720746f6b656e0000000000006044820152606401610e3b565b73ffffffffffffffffffffffffffffffffffffffff88168173ffffffffffffffffffffffffffffffffffffffff1614612bc8576040517f08c379a000000000000000000000000000000000000000000000000000000000815260206004820152601760248201527f4552433732313a206e6f6e2d6f776e656420746f6b656e0000000000000000006044820152606401610e3b565b84612c815774010000000000000000000000000000000000000000811615158015612c1b5750600082815260028b01602052604090205473ffffffffffffffffffffffffffffffffffffffff8a81169116145b612c81576040517f08c379a000000000000000000000000000000000000000000000000000000000815260206004820152601b60248201527f4552433732313a206e6f6e2d617070726f7665642073656e64657200000000006044820152606401610e3b565b600082815260208b9052604080822073ffffffffffffffffffffffffffffffffffffffff808b16918290559151859391928c16917fddf252ad1be2c89b69c2b068fc378daa952ba7f163c4a11628f55a4df523b3ef91a45050600101612a7d565b508373ffffffffffffffffffffffffffffffffffffffff168573ffffffffffffffffffffffffffffffffffffffff1614158015612d1e57508015155b15612d605773ffffffffffffffffffffffffffffffffffffffff8086166000908152600189016020526040808220805485900390559186168152208054820190555b50505050505050565b60006105106131e0565b60008173ffffffffffffffffffffffffffffffffffffffff168373ffffffffffffffffffffffffffffffffffffffff161480611df357505073ffffffffffffffffffffffffffffffffffffffff9182166000908152600393909301602090815260408085209290931684525290205460ff1690565b3660006105ad6131ea565b60606000829003612e1257505060408051602081019091526000815290565b600082604051602001612e2791815260200190565b604080517fffffffffffffffffffffffffffffffffffffffffffffffffffffffffffffffe08184030181529190529050601f5b818181518110612e6c57612e6c613c9d565b01602001517fff0000000000000000000000000000000000000000000000000000000000000016600003612ec1577fffffffffffffffffffffffffffffffffffffffffffffffffffffffffffffffff01612e5a565b60008160010167ffffffffffffffff811115612edf57612edf613a55565b6040519080825280601f01601f191660200182016040528015612f09576020820181803683370190505b50905060005b828111612f7c57838181518110612f2857612f28613c9d565b602001015160f81c60f81b828281518110612f4557612f45613c9d565b60200101907effffffffffffffffffffffffffffffffffffffffffffffffffffffffffffff1916908160001a905350600101612f0f565b50949350505050565b6040517f150b7a02000000000000000000000000000000000000000000000000000000008082529073ffffffffffffffffffffffffffffffffffffffff85169063150b7a0290612fdf908990899088908890600401613d71565b6020604051808303816000875af1158015612ffe573d6000803e3d6000fd5b505050506040513d601f19601f820116820180604052508101906130229190613dba565b7fffffffff000000000000000000000000000000000000000000000000000000001614610988576040517f08c379a000000000000000000000000000000000000000000000000000000000815260206004820152601e60248201527f4552433732313a2073616665207472616e736665722072656a656374656400006044820152606401610e3b565b6060816000036130ee57505060408051808201909152600181527f3000000000000000000000000000000000000000000000000000000000000000602082015290565b8160005b8115613118578061310281613dd7565b91506131119050600a83613e3e565b91506130f2565b60008167ffffffffffffffff81111561313357613133613a55565b6040519080825280601f01601f19166020018201604052801561315d576020820181803683370190505b5090505b8415611df357613172600183613a3e565b915061317f600a86613e52565b61318a906030613e66565b60f81b81838151811061319f5761319f613c9d565b60200101907effffffffffffffffffffffffffffffffffffffffffffffffffffffffffffff1916908160001a9053506131d9600a86613e3e565b9450613161565b60006105106131f5565b3660006105ad61334d565b60003332810361320457919050565b6000367fffffffffffffffffffffffffffffffffffffffffffffffffffffffffffffffec013560601c90507f000000000000000000000000000000000000000000000000000000000000000073ffffffffffffffffffffffffffffffffffffffff168273ffffffffffffffffffffffffffffffffffffffff16148061333c57506040517fe60125d600000000000000000000000000000000000000000000000000000000815273ffffffffffffffffffffffffffffffffffffffff828116600483015283811660248301527f0000000000000000000000000000000000000000000000000000000000000000169063e60125d690604401602060405180830381865afa158015613318573d6000803e3d6000fd5b505050506040513d601f19601f8201168201806040525081019061333c9190613e7e565b156133475792915050565b50919050565b3660003332810361336357506000923692509050565b7f000000000000000000000000000000000000000000000000000000000000000073ffffffffffffffffffffffffffffffffffffffff168173ffffffffffffffffffffffffffffffffffffffff1614806134b0575073ffffffffffffffffffffffffffffffffffffffff7f00000000000000000000000000000000000000000000000000000000000000001663e60125d6367fffffffffffffffffffffffffffffffffffffffffffffffffffffffffffffffec013560601c6040517fffffffff0000000000000000000000000000000000000000000000000000000060e084901b16815273ffffffffffffffffffffffffffffffffffffffff91821660048201529084166024820152604401602060405180830381865afa15801561348c573d6000803e3d6000fd5b505050506040513d601f19601f820116820180604052508101906134b09190613e7e565b156134c6576134bd6134d1565b92509250509091565b506000923692509050565b3660008080836134e2601482613a3e565b926105ad93929190613e9b565b7fffffffff00000000000000000000000000000000000000000000000000000000811681146107e857600080fd5b60006020828403121561352f57600080fd5b8135610856816134ef565b60005b8381101561355557818101518382015260200161353d565b838111156107c75750506000910152565b6000815180845261357e81602086016020860161353a565b601f017fffffffffffffffffffffffffffffffffffffffffffffffffffffffffffffffe0169290920160200192915050565b6020815260006108566020830184613566565b6000602082840312156135d557600080fd5b5035919050565b803573ffffffffffffffffffffffffffffffffffffffff8116811461360057600080fd5b919050565b6000806040838503121561361857600080fd5b613621836135dc565b946020939093013593505050565b60008060006060848603121561364457600080fd5b61364d846135dc565b925061365b602085016135dc565b9150604084013590509250925092565b6000806040838503121561367e57600080fd5b8235915061368e602084016135dc565b90509250929050565b60208152816020820152818360408301376000818301604090810191909152601f9092017fffffffffffffffffffffffffffffffffffffffffffffffffffffffffffffffe0160101919050565b60008083601f8401126136f657600080fd5b50813567ffffffffffffffff81111561370e57600080fd5b6020830191508360208260051b850101111561372957600080fd5b9250929050565b60008060006040848603121561374557600080fd5b61374e846135dc565b9250602084013567ffffffffffffffff81111561376a57600080fd5b613776868287016136e4565b9497909650939450505050565b60006020828403121561379557600080fd5b610856826135dc565b60008083601f8401126137b057600080fd5b50813567ffffffffffffffff8111156137c857600080fd5b60208301915083602082850101111561372957600080fd5b600080602083850312156137f357600080fd5b823567ffffffffffffffff81111561380a57600080fd5b6138168582860161379e565b90969095509350505050565b6000806000806060858703121561383857600080fd5b613841856135dc565b935060208501359250604085013567ffffffffffffffff81111561386457600080fd5b6138708782880161379e565b95989497509550505050565b6000806000806040858703121561389257600080fd5b843567ffffffffffffffff808211156138aa57600080fd5b6138b6888389016136e4565b909650945060208701359150808211156138cf57600080fd5b50613870878288016136e4565b80151581146107e857600080fd5b600080604083850312156138fd57600080fd5b613906836135dc565b91506020830135613916816138dc565b809150509250929050565b60008060008060006080868803121561393957600080fd5b613942866135dc565b9450613950602087016135dc565b935060408601359250606086013567ffffffffffffffff81111561397357600080fd5b61397f8882890161379e565b969995985093965092949392505050565b600080604083850312156139a357600080fd5b6139ac836135dc565b915061368e602084016135dc565b600080600080606085870312156139d057600080fd5b6139d9856135dc565b93506139e7602086016135dc565b9250604085013567ffffffffffffffff811115613a0357600080fd5b613870878288016136e4565b7f4e487b7100000000000000000000000000000000000000000000000000000000600052601160045260246000fd5b600082821015613a5057613a50613a0f565b500390565b7f4e487b7100000000000000000000000000000000000000000000000000000000600052604160045260246000fd5b600181811c90821680613a9857607f821691505b602082108103613347577f4e487b7100000000000000000000000000000000000000000000000000000000600052602260045260246000fd5b601f82111561056957600081815260208120601f850160051c81016020861015613af85750805b601f850160051c820191505b8181101561256357828155600101613b04565b815167ffffffffffffffff811115613b3157613b31613a55565b613b4581613b3f8454613a84565b84613ad1565b602080601f831160018114613b985760008415613b625750858301515b7fffffffffffffffffffffffffffffffffffffffffffffffffffffffffffffffff600386901b1c1916600185901b178555612563565b6000858152602081207fffffffffffffffffffffffffffffffffffffffffffffffffffffffffffffffe08616915b82811015613be557888601518255948401946001909101908401613bc6565b5085821015613c2157878501517fffffffffffffffffffffffffffffffffffffffffffffffffffffffffffffffff600388901b60f8161c191681555b5050505050600190811b01905550565b7f416363657373436f6e74726f6c3a206d697373696e6720270000000000000000815260008251613c6981601885016020870161353a565b7f2720726f6c6500000000000000000000000000000000000000000000000000006018939091019283015250601e01919050565b7f4e487b7100000000000000000000000000000000000000000000000000000000600052603260045260246000fd5b6000808454613cda81613a84565b60018281168015613cf25760018114613d2557613d54565b7fffffffffffffffffffffffffffffffffffffffffffffffffffffffffffffff0084168752821515830287019450613d54565b8860005260208060002060005b85811015613d4b5781548a820152908401908201613d32565b50505082870194505b505050508351613d6881836020880161353a565b01949350505050565b600073ffffffffffffffffffffffffffffffffffffffff808716835280861660208401525083604083015260806060830152613db06080830184613566565b9695505050505050565b600060208284031215613dcc57600080fd5b8151610856816134ef565b60007fffffffffffffffffffffffffffffffffffffffffffffffffffffffffffffffff8203613e0857613e08613a0f565b5060010190565b7f4e487b7100000000000000000000000000000000000000000000000000000000600052601260045260246000fd5b600082613e4d57613e4d613e0f565b500490565b600082613e6157613e61613e0f565b500690565b60008219821115613e7957613e79613a0f565b500190565b600060208284031215613e9057600080fd5b8151610856816138dc565b60008085851115613eab57600080fd5b83861115613eb857600080fd5b505082019391909203915056fea2646970667358221220218e22bf0750a55a097688d95954850c80ad3a13a7f3a755dc0df15380404c9164736f6c634300080f0033",
  "linkReferences": {},
  "deployedLinkReferences": {}
}