{
  "_format": "hh-sol-artifact-1",
  "contractName": "ERC721BurnableMock",
  "sourceName": "contracts/mocks/token/ERC721/ERC721BurnableMock.sol",
  "abi": [
    {
      "inputs": [
        {
          "internalType": "string",
          "name": "name_",
          "type": "string"
        },
        {
          "internalType": "string",
          "name": "symbol_",
          "type": "string"
        },
        {
          "internalType": "string",
          "name": "tokenURI_",
          "type": "string"
        },
        {
          "internalType": "contract IForwarderRegistry",
          "name": "forwarderRegistry",
          "type": "address"
        }
      ],
      "stateMutability": "nonpayable",
      "type": "constructor"
    },
    {
      "anonymous": false,
      "inputs": [
        {
          "indexed": true,
          "internalType": "address",
          "name": "owner",
          "type": "address"
        },
        {
          "indexed": true,
          "internalType": "address",
          "name": "approved",
          "type": "address"
        },
        {
          "indexed": true,
          "internalType": "uint256",
          "name": "tokenId",
          "type": "uint256"
        }
      ],
      "name": "Approval",
      "type": "event"
    },
    {
      "anonymous": false,
      "inputs": [
        {
          "indexed": true,
          "internalType": "address",
          "name": "owner",
          "type": "address"
        },
        {
          "indexed": true,
          "internalType": "address",
          "name": "operator",
          "type": "address"
        },
        {
          "indexed": false,
          "internalType": "bool",
          "name": "approved",
          "type": "bool"
        }
      ],
      "name": "ApprovalForAll",
      "type": "event"
    },
    {
      "anonymous": false,
      "inputs": [
        {
          "indexed": false,
          "internalType": "string",
          "name": "baseMetadataURI",
          "type": "string"
        }
      ],
      "name": "BaseMetadataURISet",
      "type": "event"
    },
    {
      "anonymous": false,
      "inputs": [
        {
          "indexed": true,
          "internalType": "address",
          "name": "previousOwner",
          "type": "address"
        },
        {
          "indexed": true,
          "internalType": "address",
          "name": "newOwner",
          "type": "address"
        }
      ],
      "name": "OwnershipTransferred",
      "type": "event"
    },
    {
      "anonymous": false,
      "inputs": [
        {
          "indexed": false,
          "internalType": "bytes32",
          "name": "role",
          "type": "bytes32"
        },
        {
          "indexed": false,
          "internalType": "address",
          "name": "account",
          "type": "address"
        },
        {
          "indexed": false,
          "internalType": "address",
          "name": "operator",
          "type": "address"
        }
      ],
      "name": "RoleGranted",
      "type": "event"
    },
    {
      "anonymous": false,
      "inputs": [
        {
          "indexed": false,
          "internalType": "bytes32",
          "name": "role",
          "type": "bytes32"
        },
        {
          "indexed": false,
          "internalType": "address",
          "name": "account",
          "type": "address"
        },
        {
          "indexed": false,
          "internalType": "address",
          "name": "operator",
          "type": "address"
        }
      ],
      "name": "RoleRevoked",
      "type": "event"
    },
    {
      "anonymous": false,
      "inputs": [
        {
          "indexed": true,
          "internalType": "address",
          "name": "from",
          "type": "address"
        },
        {
          "indexed": true,
          "internalType": "address",
          "name": "to",
          "type": "address"
        },
        {
          "indexed": true,
          "internalType": "uint256",
          "name": "tokenId",
          "type": "uint256"
        }
      ],
      "name": "Transfer",
      "type": "event"
    },
    {
      "inputs": [],
      "name": "MINTER_ROLE",
      "outputs": [
        {
          "internalType": "bytes32",
          "name": "",
          "type": "bytes32"
        }
      ],
      "stateMutability": "view",
      "type": "function"
    },
    {
      "inputs": [],
      "name": "__msgData",
      "outputs": [
        {
          "internalType": "bytes",
          "name": "",
          "type": "bytes"
        }
      ],
      "stateMutability": "view",
      "type": "function"
    },
    {
      "inputs": [
        {
          "internalType": "address",
          "name": "to",
          "type": "address"
        },
        {
          "internalType": "uint256",
          "name": "tokenId",
          "type": "uint256"
        }
      ],
      "name": "approve",
      "outputs": [],
      "stateMutability": "nonpayable",
      "type": "function"
    },
    {
      "inputs": [
        {
          "internalType": "address",
          "name": "owner",
          "type": "address"
        }
      ],
      "name": "balanceOf",
      "outputs": [
        {
          "internalType": "uint256",
          "name": "",
          "type": "uint256"
        }
      ],
      "stateMutability": "view",
      "type": "function"
    },
    {
      "inputs": [],
      "name": "baseMetadataURI",
      "outputs": [
        {
          "internalType": "string",
          "name": "baseURI",
          "type": "string"
        }
      ],
      "stateMutability": "view",
      "type": "function"
    },
    {
      "inputs": [
        {
          "internalType": "address",
          "name": "from",
          "type": "address"
        },
        {
          "internalType": "uint256[]",
          "name": "tokenIds",
          "type": "uint256[]"
        }
      ],
      "name": "batchBurnFrom",
      "outputs": [],
      "stateMutability": "nonpayable",
      "type": "function"
    },
    {
      "inputs": [
        {
          "internalType": "address",
          "name": "to",
          "type": "address"
        },
        {
          "internalType": "uint256[]",
          "name": "tokenIds",
          "type": "uint256[]"
        }
      ],
      "name": "batchMint",
      "outputs": [],
      "stateMutability": "nonpayable",
      "type": "function"
    },
    {
      "inputs": [
        {
          "internalType": "address",
          "name": "from",
          "type": "address"
        },
        {
          "internalType": "address",
          "name": "to",
          "type": "address"
        },
        {
          "internalType": "uint256[]",
          "name": "tokenIds",
          "type": "uint256[]"
        }
      ],
      "name": "batchTransferFrom",
      "outputs": [],
      "stateMutability": "nonpayable",
      "type": "function"
    },
    {
      "inputs": [
        {
          "internalType": "address",
          "name": "from",
          "type": "address"
        },
        {
          "internalType": "uint256",
          "name": "tokenId",
          "type": "uint256"
        }
      ],
      "name": "burnFrom",
      "outputs": [],
      "stateMutability": "nonpayable",
      "type": "function"
    },
    {
      "inputs": [
        {
          "internalType": "address[]",
          "name": "recipients",
          "type": "address[]"
        },
        {
          "internalType": "uint256[]",
          "name": "tokenIds",
          "type": "uint256[]"
        }
      ],
      "name": "deliver",
      "outputs": [],
      "stateMutability": "nonpayable",
      "type": "function"
    },
    {
      "inputs": [
        {
          "internalType": "uint256",
          "name": "tokenId",
          "type": "uint256"
        }
      ],
      "name": "getApproved",
      "outputs": [
        {
          "internalType": "address",
          "name": "operator",
          "type": "address"
        }
      ],
      "stateMutability": "view",
      "type": "function"
    },
    {
      "inputs": [
        {
          "internalType": "bytes32",
          "name": "role",
          "type": "bytes32"
        },
        {
          "internalType": "address",
          "name": "account",
          "type": "address"
        }
      ],
      "name": "grantRole",
      "outputs": [],
      "stateMutability": "nonpayable",
      "type": "function"
    },
    {
      "inputs": [
        {
          "internalType": "bytes32",
          "name": "role",
          "type": "bytes32"
        },
        {
          "internalType": "address",
          "name": "account",
          "type": "address"
        }
      ],
      "name": "hasRole",
      "outputs": [
        {
          "internalType": "bool",
          "name": "",
          "type": "bool"
        }
      ],
      "stateMutability": "view",
      "type": "function"
    },
    {
      "inputs": [
        {
          "internalType": "address",
          "name": "owner",
          "type": "address"
        },
        {
          "internalType": "address",
          "name": "operator",
          "type": "address"
        }
      ],
      "name": "isApprovedForAll",
      "outputs": [
        {
          "internalType": "bool",
          "name": "",
          "type": "bool"
        }
      ],
      "stateMutability": "view",
      "type": "function"
    },
    {
      "inputs": [
        {
          "internalType": "address",
          "name": "to",
          "type": "address"
        },
        {
          "internalType": "uint256",
          "name": "tokenId",
          "type": "uint256"
        }
      ],
      "name": "mint",
      "outputs": [],
      "stateMutability": "nonpayable",
      "type": "function"
    },
    {
      "inputs": [],
      "name": "name",
      "outputs": [
        {
          "internalType": "string",
          "name": "",
          "type": "string"
        }
      ],
      "stateMutability": "view",
      "type": "function"
    },
    {
      "inputs": [],
      "name": "owner",
      "outputs": [
        {
          "internalType": "address",
          "name": "",
          "type": "address"
        }
      ],
      "stateMutability": "view",
      "type": "function"
    },
    {
      "inputs": [
        {
          "internalType": "uint256",
          "name": "tokenId",
          "type": "uint256"
        }
      ],
      "name": "ownerOf",
      "outputs": [
        {
          "internalType": "address",
          "name": "",
          "type": "address"
        }
      ],
      "stateMutability": "view",
      "type": "function"
    },
    {
      "inputs": [
        {
          "internalType": "bytes32",
          "name": "role",
          "type": "bytes32"
        }
      ],
      "name": "renounceRole",
      "outputs": [],
      "stateMutability": "nonpayable",
      "type": "function"
    },
    {
      "inputs": [
        {
          "internalType": "bytes32",
          "name": "role",
          "type": "bytes32"
        },
        {
          "internalType": "address",
          "name": "account",
          "type": "address"
        }
      ],
      "name": "revokeRole",
      "outputs": [],
      "stateMutability": "nonpayable",
      "type": "function"
    },
    {
      "inputs": [
        {
          "internalType": "address",
          "name": "to",
          "type": "address"
        },
        {
          "internalType": "uint256",
          "name": "tokenId",
          "type": "uint256"
        },
        {
          "internalType": "bytes",
          "name": "data",
          "type": "bytes"
        }
      ],
      "name": "safeMint",
      "outputs": [],
      "stateMutability": "nonpayable",
      "type": "function"
    },
    {
      "inputs": [
        {
          "internalType": "address",
          "name": "from",
          "type": "address"
        },
        {
          "internalType": "address",
          "name": "to",
          "type": "address"
        },
        {
          "internalType": "uint256",
          "name": "tokenId",
          "type": "uint256"
        }
      ],
      "name": "safeTransferFrom",
      "outputs": [],
      "stateMutability": "nonpayable",
      "type": "function"
    },
    {
      "inputs": [
        {
          "internalType": "address",
          "name": "from",
          "type": "address"
        },
        {
          "internalType": "address",
          "name": "to",
          "type": "address"
        },
        {
          "internalType": "uint256",
          "name": "tokenId",
          "type": "uint256"
        },
        {
          "internalType": "bytes",
          "name": "_data",
          "type": "bytes"
        }
      ],
      "name": "safeTransferFrom",
      "outputs": [],
      "stateMutability": "nonpayable",
      "type": "function"
    },
    {
      "inputs": [
        {
          "internalType": "address",
          "name": "operator",
          "type": "address"
        },
        {
          "internalType": "bool",
          "name": "approved",
          "type": "bool"
        }
      ],
      "name": "setApprovalForAll",
      "outputs": [],
      "stateMutability": "nonpayable",
      "type": "function"
    },
    {
      "inputs": [
        {
          "internalType": "string",
          "name": "baseURI",
          "type": "string"
        }
      ],
      "name": "setBaseMetadataURI",
      "outputs": [],
      "stateMutability": "nonpayable",
      "type": "function"
    },
    {
      "inputs": [
        {
          "internalType": "bytes4",
          "name": "interfaceId",
          "type": "bytes4"
        }
      ],
      "name": "supportsInterface",
      "outputs": [
        {
          "internalType": "bool",
          "name": "",
          "type": "bool"
        }
      ],
      "stateMutability": "view",
      "type": "function"
    },
    {
      "inputs": [],
      "name": "symbol",
      "outputs": [
        {
          "internalType": "string",
          "name": "",
          "type": "string"
        }
      ],
      "stateMutability": "view",
      "type": "function"
    },
    {
      "inputs": [
        {
          "internalType": "uint256",
          "name": "tokenId",
          "type": "uint256"
        }
      ],
      "name": "tokenURI",
      "outputs": [
        {
          "internalType": "string",
          "name": "",
          "type": "string"
        }
      ],
      "stateMutability": "view",
      "type": "function"
    },
    {
      "inputs": [
        {
          "internalType": "address",
          "name": "from",
          "type": "address"
        },
        {
          "internalType": "address",
          "name": "to",
          "type": "address"
        },
        {
          "internalType": "uint256",
          "name": "tokenId",
          "type": "uint256"
        }
      ],
      "name": "transferFrom",
      "outputs": [],
      "stateMutability": "nonpayable",
      "type": "function"
    },
    {
      "inputs": [
        {
          "internalType": "address",
          "name": "newOwner",
          "type": "address"
        }
      ],
      "name": "transferOwnership",
      "outputs": [],
      "stateMutability": "nonpayable",
      "type": "function"
    }
  ],
  "bytecode": "0x60a06040523480156200001157600080fd5b50604051620046843803806200468483398101604081905262000034916200062e565b83838383838383838033620000536200015360201b620009f01760201c565b62000081816200006d6200018d60201b62000a271760201c565b620001c360201b62000a551790919060201c565b50620000976200024160201b62000b0b1760201c565b6001600160a01b031660805250620000ba62000264602090811b62000b3917901c565b620000cf6200028760201b62000b671760201c565b620000ff8383620000ea620002aa60201b62000b951760201c565b620002da60201b62000bc3179092919060201c565b6200012d81620001196200032f60201b62000c1a1760201c565b6200035f60201b62000c481790919060201c565b50505050505050620001496200037960201b62000c521760201c565b5050505062000778565b6200018b6380ac58cd60e01b6001620001766200039c60201b62000c7c1760201c565b620003cc60201b62000caa179092919060201c565b565b600080620001bd60017fc9ed16f33ab3a66c84bfd83099ccb2a8845871e2e1c1928f63797152f0fd54cd620006e1565b92915050565b6001600160a01b038116156200021a5781546001600160a01b0319166001600160a01b03821690811783556040516000907f8be0079c531659141344cd1fd0a4f28419497f9722a3daafe3b4186f6b6457e0908290a35b6200023d6307f5828d60e41b6001620001766200039c60201b62000c7c1760201c565b5050565b6200018b638e773e1360e01b6001620001766200039c60201b62000c7c1760201c565b6200018b634ed2f41960e11b6001620001766200039c60201b62000c7c1760201c565b6200018b63f3993d1160e01b6001620001766200039c60201b62000c7c1760201c565b600080620001bd60017f9c4269c0f9f430d98876ffe9767fbf3f3232ea91a549beb549e5329532520eb3620006e1565b8151620002ee9084906020850190620004ae565b508051620003069060018501906020840190620004ae565b506200032a635b5e139f60e01b6001620001766200039c60201b62000c7c1760201c565b505050565b600080620001bd60017fe94434e3c6b941c5d90218142fadcc69cb2e13723993540bfa1c131dd1d3475a620006e1565b6200023d81836200045c60201b62000dbb1790919060201c565b6200018b638b8b4ef560e01b6001620001766200039c60201b62000c7c1760201c565b600080620001bd60017fca9d3e17f264b0f3984e2634e94adb37fa3e6a8103f06aeae6fa59e21c769f5e620006e1565b600160e01b6001600160e01b03198316016200042e5760405162461bcd60e51b815260206004820152601f60248201527f496e74657266616365446574656374696f6e3a2077726f6e672076616c756500604482015260640160405180910390fd5b6001600160e01b03199190911660009081526020929092526040909120805460ff1916911515919091179055565b8051620004709083906020840190620004ae565b507f04b1dc5c136a3ce9fded8db0ce3d3366c58764ec3a8e4c2b9e52e4ddfe5ebbf781604051620004a2919062000707565b60405180910390a15050565b828054620004bc906200073c565b90600052602060002090601f016020900481019282620004e057600085556200052b565b82601f10620004fb57805160ff19168380011785556200052b565b828001600101855582156200052b579182015b828111156200052b5782518255916020019190600101906200050e565b50620005399291506200053d565b5090565b5b808211156200053957600081556001016200053e565b634e487b7160e01b600052604160045260246000fd5b60005b83811015620005875781810151838201526020016200056d565b8381111562000597576000848401525b50505050565b600082601f830112620005af57600080fd5b81516001600160401b0380821115620005cc57620005cc62000554565b604051601f8301601f19908116603f01168101908282118183101715620005f757620005f762000554565b816040528381528660208588010111156200061157600080fd5b620006248460208301602089016200056a565b9695505050505050565b600080600080608085870312156200064557600080fd5b84516001600160401b03808211156200065d57600080fd5b6200066b888389016200059d565b955060208701519150808211156200068257600080fd5b62000690888389016200059d565b94506040870151915080821115620006a757600080fd5b50620006b6878288016200059d565b606087015190935090506001600160a01b0381168114620006d657600080fd5b939692955090935050565b6000828210156200070257634e487b7160e01b600052601160045260246000fd5b500390565b6020815260008251806020840152620007288160408501602087016200056a565b601f01601f19169190910160400192915050565b600181811c908216806200075157607f821691505b6020821081036200077257634e487b7160e01b600052602260045260246000fd5b50919050565b608051613edb620007a960003960008181613152015281816131f20152818161328601526132f00152613edb6000f3fe608060405234801561001057600080fd5b50600436106101da5760003560e01c80638832e6e311610104578063b88d4fde116100a2578063e985e9c511610071578063e985e9c51461040f578063f247296514610422578063f2fde38b14610435578063f3993d111461044857600080fd5b8063b88d4fde146103af578063c87b56dd146103c2578063d5391393146103d5578063d547741f146103fc57600080fd5b806391d14854116100de57806391d148541461036e57806395d89b41146103815780639da5e83214610389578063a22cb4651461039c57600080fd5b80638832e6e3146103405780638bb9c5bf146103535780638da5cb5b1461036657600080fd5b806340c10f191161017c5780636352211e1161014b5780636352211e146102e657806370a08231146102f957806379cc67901461031a5780637e518ec81461032d57600080fd5b806340c10f19146102a557806342842e0e146102b85780634684d7e9146102cb5780635b2bd79e146102de57600080fd5b8063095ea7b3116101b8578063095ea7b31461025457806323b872dd146102695780632f2ff15d1461027c57806331e66e1e1461028f57600080fd5b806301ffc9a7146101df57806306fdde0314610207578063081812fc1461021c575b600080fd5b6101f26101ed3660046134d7565b61045b565b60405190151581526020015b60405180910390f35b61020f610475565b6040516101fe919061356a565b61022f61022a36600461357d565b61048c565b60405173ffffffffffffffffffffffffffffffffffffffff90911681526020016101fe565b6102676102623660046135bf565b6104a0565b005b6102676102773660046135e9565b6104c1565b61026761028a366004613625565b6104e5565b610297610519565b6040516101fe929190613651565b6102676102b33660046135bf565b61052c565b6102676102c63660046135e9565b61057b565b6102676102d93660046136ea565b61059a565b61020f61060e565b61022f6102f436600461357d565b61061b565b61030c61030736600461373d565b61062f565b6040519081526020016101fe565b6102676103283660046135bf565b610643565b61026761033b36600461379a565b610660565b61026761034e3660046137dc565b6106bc565b61026761036136600461357d565b610744565b61022f610762565b6101f261037c366004613625565b610789565b61020f6107d4565b610267610397366004613836565b6107e6565b6102676103aa3660046138a4565b61088a565b6102676103bd366004613959565b6108a7565b61020f6103d036600461357d565b6108c8565b61030c7f6d696e746572000000000000000000000000000000000000000000000000000081565b61026761040a366004613625565b6108e9565b6101f261041d366004613a37565b610917565b6102676104303660046136ea565b610965565b61026761044336600461373d565b6109b6565b610267610456366004613a61565b6109d1565b600061046f82610469610c7c565b90610e09565b92915050565b6060610487610482610b95565b610ee3565b905090565b600061046f8261049a610f79565b90610fa7565b6104bd6104ab611088565b83836104b5610f79565b929190611092565b5050565b6104e06104cc611088565b8484846104d7610f79565b9392919061135b565b505050565b60006104ef611088565b9050610503816104fd610a27565b906116b0565b6104e0838383610511611733565b929190611761565b366000610524611837565b915091509091565b6105677f6d696e7465720000000000000000000000000000000000000000000000000000610558611088565b610560611733565b9190611842565b6104bd8282610574610f79565b91906118ee565b6104e0610586611088565b848484610591610f79565b93929190611a65565b6105c67f6d696e7465720000000000000000000000000000000000000000000000000000610558611088565b6104e0838383808060200260200160405190810160405280939291908181526020018383602002808284376000920191909152506106079250610f79915050565b9190611ab2565b6060610487610482610c1a565b600061046f82610629610f79565b90611c86565b600061046f8261063d610f79565b90611d1c565b6104bd61064e611088565b8383610658610f79565b929190611dc8565b61067361066b611088565b6104fd610a27565b6104bd82828080601f0160208091040260200160405190810160405280939291908181526020018383808284376000920191909152506106b69250610c1a915050565b90610dbb565b6106e87f6d696e7465720000000000000000000000000000000000000000000000000000610558611088565b61073e6106f3611088565b858585858080601f0160208091040260200160405190810160405280939291908181526020018383808284376000920191909152506107359250610f79915050565b93929190611fdc565b50505050565b61075f61074f611088565b82610758611733565b9190612012565b50565b600061048761076f610a27565b5473ffffffffffffffffffffffffffffffffffffffff1690565b60006107cd8383610798611733565b60009283526020908152604080842073ffffffffffffffffffffffffffffffffffffffff909316845291905290205460ff1690565b9392505050565b60606104876107e1610b95565b6120b6565b6108127f6d696e7465720000000000000000000000000000000000000000000000000000610558611088565b61073e848480806020026020016040519081016040528093929190818152602001838360200280828437600092019190915250506040805160208088028281018201909352878252909350879250869182918501908490808284376000920191909152506108839250610f79915050565b91906120c7565b6104bd610895611088565b838361089f610f79565b92919061231d565b61073e6108b2611088565b858585856108be610f79565b949392919061244d565b60606108d682610629610f79565b5061046f826108e3610c1a565b9061248c565b60006108f3611088565b9050610901816104fd610a27565b6104e083838361090f611733565b9291906124c0565b60006107cd8383610926610f79565b919073ffffffffffffffffffffffffffffffffffffffff9182166000908152600393909301602090815260408085209290931684525290205460ff1690565b6104e0610970611088565b848484808060200260200160405190810160405280939291908181526020018383602002808284376000920191909152506109ae9250610f79915050565b92919061258a565b61075f6109c1611088565b826109ca610a27565b91906127e0565b6104e06109dc611088565b8484846109e7610f79565b9392919061290c565b610a257f80ac58cd000000000000000000000000000000000000000000000000000000006001610a1e610c7c565b9190610caa565b565b60008061046f60017fc9ed16f33ab3a66c84bfd83099ccb2a8845871e2e1c1928f63797152f0fd54cd613b59565b73ffffffffffffffffffffffffffffffffffffffff811615610add5781547fffffffffffffffffffffffff00000000000000000000000000000000000000001673ffffffffffffffffffffffffffffffffffffffff821690811783556040516000907f8be0079c531659141344cd1fd0a4f28419497f9722a3daafe3b4186f6b6457e0908290a35b6104bd7f7f5828d0000000000000000000000000000000000000000000000000000000006001610a1e610c7c565b610a257f8e773e13000000000000000000000000000000000000000000000000000000006001610a1e610c7c565b610a257f9da5e832000000000000000000000000000000000000000000000000000000006001610a1e610c7c565b610a257ff3993d11000000000000000000000000000000000000000000000000000000006001610a1e610c7c565b60008061046f60017f9c4269c0f9f430d98876ffe9767fbf3f3232ea91a549beb549e5329532520eb3613b59565b8151610bd59084906020850190613410565b508051610beb9060018501906020840190613410565b506104e07f5b5e139f000000000000000000000000000000000000000000000000000000006001610a1e610c7c565b60008061046f60017fe94434e3c6b941c5d90218142fadcc69cb2e13723993540bfa1c131dd1d3475a613b59565b6104bd8282610dbb565b610a257f8b8b4ef5000000000000000000000000000000000000000000000000000000006001610a1e5b60008061046f60017fca9d3e17f264b0f3984e2634e94adb37fa3e6a8103f06aeae6fa59e21c769f5e613b59565b7c01000000000000000000000000000000000000000000000000000000007fffffffff00000000000000000000000000000000000000000000000000000000831601610d57576040517f08c379a000000000000000000000000000000000000000000000000000000000815260206004820152601f60248201527f496e74657266616365446574656374696f6e3a2077726f6e672076616c75650060448201526064015b60405180910390fd5b7fffffffff00000000000000000000000000000000000000000000000000000000919091166000908152602092909252604090912080547fffffffffffffffffffffffffffffffffffffffffffffffffffffffffffffff0016911515919091179055565b8051610dcd9083906020840190613410565b507f04b1dc5c136a3ce9fded8db0ce3d3366c58764ec3a8e4c2b9e52e4ddfe5ebbf781604051610dfd919061356a565b60405180910390a15050565b60007c01000000000000000000000000000000000000000000000000000000007fffffffff00000000000000000000000000000000000000000000000000000000831601610e595750600061046f565b7ffe003659000000000000000000000000000000000000000000000000000000007fffffffff00000000000000000000000000000000000000000000000000000000831601610eaa5750600161046f565b507fffffffff00000000000000000000000000000000000000000000000000000000166000908152602091909152604090205460ff1690565b6060816000018054610ef490613b70565b80601f0160208091040260200160405190810160405280929190818152602001828054610f2090613b70565b8015610f6d5780601f10610f4257610100808354040283529160200191610f6d565b820191906000526020600020905b815481529060010190602001808311610f5057829003601f168201915b50505050509050919050565b60008061046f60017fddf3ee18ae6d688373c219468f8be446e7ae82215f4779d821c7ea5e8c13c0c1613b59565b60008181526020839052604081205473ffffffffffffffffffffffffffffffffffffffff8116611033576040517f08c379a000000000000000000000000000000000000000000000000000000000815260206004820152601a60248201527f4552433732313a206e6f6e2d6578697374696e6720746f6b656e0000000000006044820152606401610d4e565b7401000000000000000000000000000000000000000081161561107e575050600081815260028301602052604090205473ffffffffffffffffffffffffffffffffffffffff1661046f565b600091505061046f565b6000610487612c8a565b60008181526020859052604090205473ffffffffffffffffffffffffffffffffffffffff811661111e576040517f08c379a000000000000000000000000000000000000000000000000000000000815260206004820152601a60248201527f4552433732313a206e6f6e2d6578697374696e6720746f6b656e0000000000006044820152606401610d4e565b8073ffffffffffffffffffffffffffffffffffffffff808216908516036111a1576040517f08c379a000000000000000000000000000000000000000000000000000000000815260206004820152601560248201527f4552433732313a2073656c662d617070726f76616c00000000000000000000006044820152606401610d4e565b6111ac868287612c94565b611212576040517f08c379a000000000000000000000000000000000000000000000000000000000815260206004820152601b60248201527f4552433732313a206e6f6e2d617070726f7665642073656e64657200000000006044820152606401610d4e565b73ffffffffffffffffffffffffffffffffffffffff8416611277577401000000000000000000000000000000000000000082161561127257600083815260208790526040902073ffffffffffffffffffffffffffffffffffffffff821690555b6112f8565b7401000000000000000000000000000000000000000082178083146112a85760008481526020889052604090208190555b506000838152600287016020526040902080547fffffffffffffffffffffffff00000000000000000000000000000000000000001673ffffffffffffffffffffffffffffffffffffffff86161790555b828473ffffffffffffffffffffffffffffffffffffffff168273ffffffffffffffffffffffffffffffffffffffff167f8c5be1e5ebec7d5bd14f71427d1e84f3dd0314c0f7b2291e5b200ac8c7c3b92560405160405180910390a4505050505050565b73ffffffffffffffffffffffffffffffffffffffff82166113d8576040517f08c379a000000000000000000000000000000000000000000000000000000000815260206004820152601e60248201527f4552433732313a207472616e7366657220746f206164647265737328302900006044820152606401610d4e565b60008181526020869052604090205473ffffffffffffffffffffffffffffffffffffffff8116611464576040517f08c379a000000000000000000000000000000000000000000000000000000000815260206004820152601a60248201527f4552433732313a206e6f6e2d6578697374696e6720746f6b656e0000000000006044820152606401610d4e565b73ffffffffffffffffffffffffffffffffffffffff84168173ffffffffffffffffffffffffffffffffffffffff16146114f9576040517f08c379a000000000000000000000000000000000000000000000000000000000815260206004820152601760248201527f4552433732313a206e6f6e2d6f776e656420746f6b656e0000000000000000006044820152606401610d4e565b611504868587612c94565b6115bc57740100000000000000000000000000000000000000008116151580156115565750600082815260028701602052604090205473ffffffffffffffffffffffffffffffffffffffff8681169116145b6115bc576040517f08c379a000000000000000000000000000000000000000000000000000000000815260206004820152601b60248201527f4552433732313a206e6f6e2d617070726f7665642073656e64657200000000006044820152606401610d4e565b600082815260208790526040902073ffffffffffffffffffffffffffffffffffffffff8085169182905585161461164d5773ffffffffffffffffffffffffffffffffffffffff80851660009081526001808901602052604080832080547fffffffffffffffffffffffffffffffffffffffffffffffffffffffffffffffff0190559286168252919020805490910190555b818373ffffffffffffffffffffffffffffffffffffffff168573ffffffffffffffffffffffffffffffffffffffff167fddf252ad1be2c89b69c2b068fc378daa952ba7f163c4a11628f55a4df523b3ef60405160405180910390a4505050505050565b815473ffffffffffffffffffffffffffffffffffffffff8281169116146104bd576040517f08c379a000000000000000000000000000000000000000000000000000000000815260206004820152601860248201527f4f776e6572736869703a206e6f7420746865206f776e657200000000000000006044820152606401610d4e565b60008061046f60017fc8827d3282af6f37b64c3e9e6f3ac9df286ab0bb0fccd6f8661bf19adb368b23613b59565b60008381526020858152604080832073ffffffffffffffffffffffffffffffffffffffff8616845290915290205460ff1661073e5760008381526020858152604080832073ffffffffffffffffffffffffffffffffffffffff8681168086529184529382902080547fffffffffffffffffffffffffffffffffffffffffffffffffffffffffffffff00166001179055815187815292830152918316918101919091527f2f8788117e7eff1d82e926ec794901d17c78024a50270940304540a733656f0d906060015b60405180910390a150505050565b366000610524612d09565b60008281526020848152604080832073ffffffffffffffffffffffffffffffffffffffff8516845290915290205460ff166104e05761188082612d14565b6040516020016118909190613bd9565b604080517fffffffffffffffffffffffffffffffffffffffffffffffffffffffffffffffe0818403018152908290527f08c379a0000000000000000000000000000000000000000000000000000000008252610d4e9160040161356a565b73ffffffffffffffffffffffffffffffffffffffff821661196b576040517f08c379a000000000000000000000000000000000000000000000000000000000815260206004820152601a60248201527f4552433732313a206d696e7420746f20616464726573732830290000000000006044820152606401610d4e565b60008181526020849052604090205473ffffffffffffffffffffffffffffffffffffffff16156119f7576040517f08c379a000000000000000000000000000000000000000000000000000000000815260206004820152601660248201527f4552433732313a206578697374696e6720746f6b656e000000000000000000006044820152606401610d4e565b60008181526020848152604080832073ffffffffffffffffffffffffffffffffffffffff86169081905580845260018088019093528184208054909301909255518392907fddf252ad1be2c89b69c2b068fc378daa952ba7f163c4a11628f55a4df523b3ef908290a4505050565b611a72858585858561135b565b73ffffffffffffffffffffffffffffffffffffffff82163b15611aab57611aab8484848460405180602001604052806000815250612ea6565b5050505050565b73ffffffffffffffffffffffffffffffffffffffff8216611b2f576040517f08c379a000000000000000000000000000000000000000000000000000000000815260206004820152601a60248201527f4552433732313a206d696e7420746f20616464726573732830290000000000006044820152606401610d4e565b805160005b818114611c51576000838281518110611b4f57611b4f613c45565b60200260200101519050611b8d8660000160008381526020019081526020016000205473ffffffffffffffffffffffffffffffffffffffff16151590565b15611bf4576040517f08c379a000000000000000000000000000000000000000000000000000000000815260206004820152601660248201527f4552433732313a206578697374696e6720746f6b656e000000000000000000006044820152606401610d4e565b60008181526020879052604080822073ffffffffffffffffffffffffffffffffffffffff88169081905590518392907fddf252ad1be2c89b69c2b068fc378daa952ba7f163c4a11628f55a4df523b3ef908290a450600101611b34565b5073ffffffffffffffffffffffffffffffffffffffff9092166000908152600190930160205250604090912080549091019055565b60008181526020839052604081205473ffffffffffffffffffffffffffffffffffffffff8116611d12576040517f08c379a000000000000000000000000000000000000000000000000000000000815260206004820152601a60248201527f4552433732313a206e6f6e2d6578697374696e6720746f6b656e0000000000006044820152606401610d4e565b805b949350505050565b600073ffffffffffffffffffffffffffffffffffffffff8216611d9b576040517f08c379a000000000000000000000000000000000000000000000000000000000815260206004820152601d60248201527f4552433732313a2062616c616e6365206f6620616464726573732830290000006044820152606401610d4e565b5073ffffffffffffffffffffffffffffffffffffffff166000908152600191909101602052604090205490565b6000818152602085905260409020548073ffffffffffffffffffffffffffffffffffffffff168373ffffffffffffffffffffffffffffffffffffffff1614611e6c576040517f08c379a000000000000000000000000000000000000000000000000000000000815260206004820152601760248201527f4552433732313a206e6f6e2d6f776e656420746f6b656e0000000000000000006044820152606401610d4e565b611e77858486612c94565b611f2f5774010000000000000000000000000000000000000000811615158015611ec95750600082815260028601602052604090205473ffffffffffffffffffffffffffffffffffffffff8581169116145b611f2f576040517f08c379a000000000000000000000000000000000000000000000000000000000815260206004820152601b60248201527f4552433732313a206e6f6e2d617070726f7665642073656e64657200000000006044820152606401610d4e565b6000828152602086815260408083207fdead000000000000000000000000000000000000000000000000000000000000905573ffffffffffffffffffffffffffffffffffffffff86168084526001890190925280832080547fffffffffffffffffffffffffffffffffffffffffffffffffffffffffffffffff01905551849291907fddf252ad1be2c89b69c2b068fc378daa952ba7f163c4a11628f55a4df523b3ef908390a45050505050565b611fe78584846118ee565b73ffffffffffffffffffffffffffffffffffffffff83163b15611aab57611aab846000858585612ea6565b61201d838284611842565b60008181526020848152604080832073ffffffffffffffffffffffffffffffffffffffff86168085529083529281902080547fffffffffffffffffffffffffffffffffffffffffffffffffffffffffffffff0016905580518481529182018390528101919091527ff6391f5c32d9c69d2a47ea670b442974b53935d1edc7fd64eb21e047a839171b9060600160405180910390a1505050565b6060816001018054610ef490613b70565b815181518114612133576040517f08c379a000000000000000000000000000000000000000000000000000000000815260206004820152601b60248201527f4552433732313a20696e636f6e73697374656e742061727261797300000000006044820152606401610d4e565b60005b818114611aab57600084828151811061215157612151613c45565b60200260200101519050600073ffffffffffffffffffffffffffffffffffffffff168173ffffffffffffffffffffffffffffffffffffffff16036121f1576040517f08c379a000000000000000000000000000000000000000000000000000000000815260206004820152601a60248201527f4552433732313a206d696e7420746f20616464726573732830290000000000006044820152606401610d4e565b600084838151811061220557612205613c45565b602002602001015190506122438760000160008381526020019081526020016000205473ffffffffffffffffffffffffffffffffffffffff16151590565b156122aa576040517f08c379a000000000000000000000000000000000000000000000000000000000815260206004820152601660248201527f4552433732313a206578697374696e6720746f6b656e000000000000000000006044820152606401610d4e565b60008181526020888152604080832073ffffffffffffffffffffffffffffffffffffffff8616908190558084526001808c019093528184208054909301909255518392907fddf252ad1be2c89b69c2b068fc378daa952ba7f163c4a11628f55a4df523b3ef908290a45050600101612136565b8273ffffffffffffffffffffffffffffffffffffffff168273ffffffffffffffffffffffffffffffffffffffff16036123b2576040517f08c379a000000000000000000000000000000000000000000000000000000000815260206004820152601d60248201527f4552433732313a2073656c662d617070726f76616c20666f7220616c6c0000006044820152606401610d4e565b73ffffffffffffffffffffffffffffffffffffffff838116600081815260038701602090815260408083209487168084529482529182902080547fffffffffffffffffffffffffffffffffffffffffffffffffffffffffffffff001686151590811790915591519182527f17307eab39ab6107e8899845ad3d59bd9653f200f220920489ca2b5937696c31910160405180910390a350505050565b61245a868686868661135b565b73ffffffffffffffffffffffffffffffffffffffff83163b15612484576124848585858585612ea6565b505050505050565b60608261249883612fcc565b6040516020016124a9929190613c74565b604051602081830303815290604052905092915050565b60008381526020858152604080832073ffffffffffffffffffffffffffffffffffffffff8616845290915290205460ff161561073e5760008381526020858152604080832073ffffffffffffffffffffffffffffffffffffffff8681168086529184529382902080547fffffffffffffffffffffffffffffffffffffffffffffffffffffffffffffff00169055815187815292830152918316918101919091527ff6391f5c32d9c69d2a47ea670b442974b53935d1edc7fd64eb21e047a839171b90606001611829565b6000612597858486612c94565b825190915060005b8181146127a35760008482815181106125ba576125ba613c45565b6020908102919091018101516000818152918a90526040909120549091508073ffffffffffffffffffffffffffffffffffffffff168773ffffffffffffffffffffffffffffffffffffffff161461266d576040517f08c379a000000000000000000000000000000000000000000000000000000000815260206004820152601760248201527f4552433732313a206e6f6e2d6f776e656420746f6b656e0000000000000000006044820152606401610d4e565b8461272657740100000000000000000000000000000000000000008116151580156126c05750600082815260028a01602052604090205473ffffffffffffffffffffffffffffffffffffffff8981169116145b612726576040517f08c379a000000000000000000000000000000000000000000000000000000000815260206004820152601b60248201527f4552433732313a206e6f6e2d617070726f7665642073656e64657200000000006044820152606401610d4e565b600082815260208a905260408082207fdead00000000000000000000000000000000000000000000000000000000000090555183919073ffffffffffffffffffffffffffffffffffffffff8a16907fddf252ad1be2c89b69c2b068fc378daa952ba7f163c4a11628f55a4df523b3ef908390a4505060010161259f565b5080156124845773ffffffffffffffffffffffffffffffffffffffff84166000908152600187016020526040902080548290039055505050505050565b825473ffffffffffffffffffffffffffffffffffffffff9081169083168114612865576040517f08c379a000000000000000000000000000000000000000000000000000000000815260206004820152601860248201527f4f776e6572736869703a206e6f7420746865206f776e657200000000000000006044820152606401610d4e565b8173ffffffffffffffffffffffffffffffffffffffff168173ffffffffffffffffffffffffffffffffffffffff161461073e5783547fffffffffffffffffffffffff00000000000000000000000000000000000000001673ffffffffffffffffffffffffffffffffffffffff8381169182178655604051908316907f8be0079c531659141344cd1fd0a4f28419497f9722a3daafe3b4186f6b6457e090600090a350505050565b73ffffffffffffffffffffffffffffffffffffffff8216612989576040517f08c379a000000000000000000000000000000000000000000000000000000000815260206004820152601e60248201527f4552433732313a207472616e7366657220746f206164647265737328302900006044820152606401610d4e565b6000612996868587612c94565b825190915060005b818114612c035760008482815181106129b9576129b9613c45565b6020908102919091018101516000818152918b905260409091205490915073ffffffffffffffffffffffffffffffffffffffff8116612a54576040517f08c379a000000000000000000000000000000000000000000000000000000000815260206004820152601a60248201527f4552433732313a206e6f6e2d6578697374696e6720746f6b656e0000000000006044820152606401610d4e565b73ffffffffffffffffffffffffffffffffffffffff88168173ffffffffffffffffffffffffffffffffffffffff1614612ae9576040517f08c379a000000000000000000000000000000000000000000000000000000000815260206004820152601760248201527f4552433732313a206e6f6e2d6f776e656420746f6b656e0000000000000000006044820152606401610d4e565b84612ba25774010000000000000000000000000000000000000000811615158015612b3c5750600082815260028b01602052604090205473ffffffffffffffffffffffffffffffffffffffff8a81169116145b612ba2576040517f08c379a000000000000000000000000000000000000000000000000000000000815260206004820152601b60248201527f4552433732313a206e6f6e2d617070726f7665642073656e64657200000000006044820152606401610d4e565b600082815260208b9052604080822073ffffffffffffffffffffffffffffffffffffffff808b16918290559151859391928c16917fddf252ad1be2c89b69c2b068fc378daa952ba7f163c4a11628f55a4df523b3ef91a4505060010161299e565b508373ffffffffffffffffffffffffffffffffffffffff168573ffffffffffffffffffffffffffffffffffffffff1614158015612c3f57508015155b15612c815773ffffffffffffffffffffffffffffffffffffffff8086166000908152600189016020526040808220805485900390559186168152208054820190555b50505050505050565b6000610487613101565b60008173ffffffffffffffffffffffffffffffffffffffff168373ffffffffffffffffffffffffffffffffffffffff161480611d1457505073ffffffffffffffffffffffffffffffffffffffff9182166000908152600393909301602090815260408085209290931684525290205460ff1690565b36600061052461310b565b60606000829003612d3357505060408051602081019091526000815290565b600082604051602001612d4891815260200190565b604080517fffffffffffffffffffffffffffffffffffffffffffffffffffffffffffffffe08184030181529190529050601f5b818181518110612d8d57612d8d613c45565b01602001517fff0000000000000000000000000000000000000000000000000000000000000016600003612de2577fffffffffffffffffffffffffffffffffffffffffffffffffffffffffffffffff01612d7b565b60008160010167ffffffffffffffff811115612e0057612e006138db565b6040519080825280601f01601f191660200182016040528015612e2a576020820181803683370190505b50905060005b828111612e9d57838181518110612e4957612e49613c45565b602001015160f81c60f81b828281518110612e6657612e66613c45565b60200101907effffffffffffffffffffffffffffffffffffffffffffffffffffffffffffff1916908160001a905350600101612e30565b50949350505050565b6040517f150b7a02000000000000000000000000000000000000000000000000000000008082529073ffffffffffffffffffffffffffffffffffffffff85169063150b7a0290612f00908990899088908890600401613d51565b6020604051808303816000875af1158015612f1f573d6000803e3d6000fd5b505050506040513d601f19601f82011682018060405250810190612f439190613d9a565b7fffffffff000000000000000000000000000000000000000000000000000000001614611aab576040517f08c379a000000000000000000000000000000000000000000000000000000000815260206004820152601e60248201527f4552433732313a2073616665207472616e736665722072656a656374656400006044820152606401610d4e565b60608160000361300f57505060408051808201909152600181527f3000000000000000000000000000000000000000000000000000000000000000602082015290565b8160005b8115613039578061302381613db7565b91506130329050600a83613e1e565b9150613013565b60008167ffffffffffffffff811115613054576130546138db565b6040519080825280601f01601f19166020018201604052801561307e576020820181803683370190505b5090505b8415611d1457613093600183613b59565b91506130a0600a86613e32565b6130ab906030613e46565b60f81b8183815181106130c0576130c0613c45565b60200101907effffffffffffffffffffffffffffffffffffffffffffffffffffffffffffff1916908160001a9053506130fa600a86613e1e565b9450613082565b6000610487613116565b36600061052461326e565b60003332810361312557919050565b6000367fffffffffffffffffffffffffffffffffffffffffffffffffffffffffffffffec013560601c90507f000000000000000000000000000000000000000000000000000000000000000073ffffffffffffffffffffffffffffffffffffffff168273ffffffffffffffffffffffffffffffffffffffff16148061325d57506040517fe60125d600000000000000000000000000000000000000000000000000000000815273ffffffffffffffffffffffffffffffffffffffff828116600483015283811660248301527f0000000000000000000000000000000000000000000000000000000000000000169063e60125d690604401602060405180830381865afa158015613239573d6000803e3d6000fd5b505050506040513d601f19601f8201168201806040525081019061325d9190613e5e565b156132685792915050565b50919050565b3660003332810361328457506000923692509050565b7f000000000000000000000000000000000000000000000000000000000000000073ffffffffffffffffffffffffffffffffffffffff168173ffffffffffffffffffffffffffffffffffffffff1614806133d1575073ffffffffffffffffffffffffffffffffffffffff7f00000000000000000000000000000000000000000000000000000000000000001663e60125d6367fffffffffffffffffffffffffffffffffffffffffffffffffffffffffffffffec013560601c6040517fffffffff0000000000000000000000000000000000000000000000000000000060e084901b16815273ffffffffffffffffffffffffffffffffffffffff91821660048201529084166024820152604401602060405180830381865afa1580156133ad573d6000803e3d6000fd5b505050506040513d601f19601f820116820180604052508101906133d19190613e5e565b156133e7576133de6133f2565b92509250509091565b506000923692509050565b366000808083613403601482613b59565b9261052493929190613e7b565b82805461341c90613b70565b90600052602060002090601f01602090048101928261343e5760008555613484565b82601f1061345757805160ff1916838001178555613484565b82800160010185558215613484579182015b82811115613484578251825591602001919060010190613469565b50613490929150613494565b5090565b5b808211156134905760008155600101613495565b7fffffffff000000000000000000000000000000000000000000000000000000008116811461075f57600080fd5b6000602082840312156134e957600080fd5b81356107cd816134a9565b60005b8381101561350f5781810151838201526020016134f7565b8381111561073e5750506000910152565b600081518084526135388160208601602086016134f4565b601f017fffffffffffffffffffffffffffffffffffffffffffffffffffffffffffffffe0169290920160200192915050565b6020815260006107cd6020830184613520565b60006020828403121561358f57600080fd5b5035919050565b803573ffffffffffffffffffffffffffffffffffffffff811681146135ba57600080fd5b919050565b600080604083850312156135d257600080fd5b6135db83613596565b946020939093013593505050565b6000806000606084860312156135fe57600080fd5b61360784613596565b925061361560208501613596565b9150604084013590509250925092565b6000806040838503121561363857600080fd5b8235915061364860208401613596565b90509250929050565b60208152816020820152818360408301376000818301604090810191909152601f9092017fffffffffffffffffffffffffffffffffffffffffffffffffffffffffffffffe0160101919050565b60008083601f8401126136b057600080fd5b50813567ffffffffffffffff8111156136c857600080fd5b6020830191508360208260051b85010111156136e357600080fd5b9250929050565b6000806000604084860312156136ff57600080fd5b61370884613596565b9250602084013567ffffffffffffffff81111561372457600080fd5b6137308682870161369e565b9497909650939450505050565b60006020828403121561374f57600080fd5b6107cd82613596565b60008083601f84011261376a57600080fd5b50813567ffffffffffffffff81111561378257600080fd5b6020830191508360208285010111156136e357600080fd5b600080602083850312156137ad57600080fd5b823567ffffffffffffffff8111156137c457600080fd5b6137d085828601613758565b90969095509350505050565b600080600080606085870312156137f257600080fd5b6137fb85613596565b935060208501359250604085013567ffffffffffffffff81111561381e57600080fd5b61382a87828801613758565b95989497509550505050565b6000806000806040858703121561384c57600080fd5b843567ffffffffffffffff8082111561386457600080fd5b6138708883890161369e565b9096509450602087013591508082111561388957600080fd5b5061382a8782880161369e565b801515811461075f57600080fd5b600080604083850312156138b757600080fd5b6138c083613596565b915060208301356138d081613896565b809150509250929050565b7f4e487b7100000000000000000000000000000000000000000000000000000000600052604160045260246000fd5b604051601f82017fffffffffffffffffffffffffffffffffffffffffffffffffffffffffffffffe016810167ffffffffffffffff81118282101715613951576139516138db565b604052919050565b6000806000806080858703121561396f57600080fd5b61397885613596565b93506020613987818701613596565b935060408601359250606086013567ffffffffffffffff808211156139ab57600080fd5b818801915088601f8301126139bf57600080fd5b8135818111156139d1576139d16138db565b613a01847fffffffffffffffffffffffffffffffffffffffffffffffffffffffffffffffe0601f8401160161390a565b91508082528984828501011115613a1757600080fd5b808484018584013760008482840101525080935050505092959194509250565b60008060408385031215613a4a57600080fd5b613a5383613596565b915061364860208401613596565b600080600060608486031215613a7657600080fd5b613a7f84613596565b92506020613a8e818601613596565b9250604085013567ffffffffffffffff80821115613aab57600080fd5b818701915087601f830112613abf57600080fd5b813581811115613ad157613ad16138db565b8060051b9150613ae284830161390a565b818152918301840191848101908a841115613afc57600080fd5b938501935b83851015613b1a57843582529385019390850190613b01565b8096505050505050509250925092565b7f4e487b7100000000000000000000000000000000000000000000000000000000600052601160045260246000fd5b600082821015613b6b57613b6b613b2a565b500390565b600181811c90821680613b8457607f821691505b602082108103613268577f4e487b7100000000000000000000000000000000000000000000000000000000600052602260045260246000fd5b60008151613bcf8185602086016134f4565b9290920192915050565b7f416363657373436f6e74726f6c3a206d697373696e6720270000000000000000815260008251613c118160188501602087016134f4565b7f2720726f6c6500000000000000000000000000000000000000000000000000006018939091019283015250601e01919050565b7f4e487b7100000000000000000000000000000000000000000000000000000000600052603260045260246000fd5b600080845481600182811c915080831680613c9057607f831692505b60208084108203613cc8577f4e487b710000000000000000000000000000000000000000000000000000000086526022600452602486fd5b818015613cdc5760018114613d0b57613d38565b7fffffffffffffffffffffffffffffffffffffffffffffffffffffffffffffff00861689528489019650613d38565b60008b81526020902060005b86811015613d305781548b820152908501908301613d17565b505084890196505b505050505050613d488185613bbd565b95945050505050565b600073ffffffffffffffffffffffffffffffffffffffff808716835280861660208401525083604083015260806060830152613d906080830184613520565b9695505050505050565b600060208284031215613dac57600080fd5b81516107cd816134a9565b60007fffffffffffffffffffffffffffffffffffffffffffffffffffffffffffffffff8203613de857613de8613b2a565b5060010190565b7f4e487b7100000000000000000000000000000000000000000000000000000000600052601260045260246000fd5b600082613e2d57613e2d613def565b500490565b600082613e4157613e41613def565b500690565b60008219821115613e5957613e59613b2a565b500190565b600060208284031215613e7057600080fd5b81516107cd81613896565b60008085851115613e8b57600080fd5b83861115613e9857600080fd5b505082019391909203915056fea2646970667358221220382d8fcf06c7823f813e90a654cb12e1d5170f0e1f09e4fb34a75085285a23de64736f6c634300080e0033",
  "linkReferences": {},
  "deployedLinkReferences": {}
}