{
  "_format": "hh-sol-artifact-1",
  "contractName": "ERC721BurnableMock",
  "sourceName": "contracts/mocks/token/ERC721/ERC721BurnableMock.sol",
  "abi": [
    {
      "inputs": [
        {
          "internalType": "string",
          "name": "name_",
          "type": "string"
        },
        {
          "internalType": "string",
          "name": "symbol_",
          "type": "string"
        },
        {
          "internalType": "string",
          "name": "tokenURI_",
          "type": "string"
        },
        {
          "internalType": "contract IForwarderRegistry",
          "name": "forwarderRegistry",
          "type": "address"
        }
      ],
      "stateMutability": "nonpayable",
      "type": "constructor"
    },
    {
      "anonymous": false,
      "inputs": [
        {
          "indexed": true,
          "internalType": "address",
          "name": "owner",
          "type": "address"
        },
        {
          "indexed": true,
          "internalType": "address",
          "name": "approved",
          "type": "address"
        },
        {
          "indexed": true,
          "internalType": "uint256",
          "name": "tokenId",
          "type": "uint256"
        }
      ],
      "name": "Approval",
      "type": "event"
    },
    {
      "anonymous": false,
      "inputs": [
        {
          "indexed": true,
          "internalType": "address",
          "name": "owner",
          "type": "address"
        },
        {
          "indexed": true,
          "internalType": "address",
          "name": "operator",
          "type": "address"
        },
        {
          "indexed": false,
          "internalType": "bool",
          "name": "approved",
          "type": "bool"
        }
      ],
      "name": "ApprovalForAll",
      "type": "event"
    },
    {
      "anonymous": false,
      "inputs": [
        {
          "indexed": false,
          "internalType": "string",
          "name": "baseMetadataURI",
          "type": "string"
        }
      ],
      "name": "BaseMetadataURISet",
      "type": "event"
    },
    {
      "anonymous": false,
      "inputs": [
        {
          "indexed": true,
          "internalType": "address",
          "name": "previousOwner",
          "type": "address"
        },
        {
          "indexed": true,
          "internalType": "address",
          "name": "newOwner",
          "type": "address"
        }
      ],
      "name": "OwnershipTransferred",
      "type": "event"
    },
    {
      "anonymous": false,
      "inputs": [
        {
          "indexed": false,
          "internalType": "bytes32",
          "name": "role",
          "type": "bytes32"
        },
        {
          "indexed": false,
          "internalType": "address",
          "name": "account",
          "type": "address"
        },
        {
          "indexed": false,
          "internalType": "address",
          "name": "operator",
          "type": "address"
        }
      ],
      "name": "RoleGranted",
      "type": "event"
    },
    {
      "anonymous": false,
      "inputs": [
        {
          "indexed": false,
          "internalType": "bytes32",
          "name": "role",
          "type": "bytes32"
        },
        {
          "indexed": false,
          "internalType": "address",
          "name": "account",
          "type": "address"
        },
        {
          "indexed": false,
          "internalType": "address",
          "name": "operator",
          "type": "address"
        }
      ],
      "name": "RoleRevoked",
      "type": "event"
    },
    {
      "anonymous": false,
      "inputs": [
        {
          "indexed": true,
          "internalType": "address",
          "name": "from",
          "type": "address"
        },
        {
          "indexed": true,
          "internalType": "address",
          "name": "to",
          "type": "address"
        },
        {
          "indexed": true,
          "internalType": "uint256",
          "name": "tokenId",
          "type": "uint256"
        }
      ],
      "name": "Transfer",
      "type": "event"
    },
    {
      "inputs": [],
      "name": "MINTER_ROLE",
      "outputs": [
        {
          "internalType": "bytes32",
          "name": "",
          "type": "bytes32"
        }
      ],
      "stateMutability": "view",
      "type": "function"
    },
    {
      "inputs": [],
      "name": "__msgData",
      "outputs": [
        {
          "internalType": "bytes",
          "name": "",
          "type": "bytes"
        }
      ],
      "stateMutability": "view",
      "type": "function"
    },
    {
      "inputs": [
        {
          "internalType": "address",
          "name": "to",
          "type": "address"
        },
        {
          "internalType": "uint256",
          "name": "tokenId",
          "type": "uint256"
        }
      ],
      "name": "approve",
      "outputs": [],
      "stateMutability": "nonpayable",
      "type": "function"
    },
    {
      "inputs": [
        {
          "internalType": "address",
          "name": "owner",
          "type": "address"
        }
      ],
      "name": "balanceOf",
      "outputs": [
        {
          "internalType": "uint256",
          "name": "",
          "type": "uint256"
        }
      ],
      "stateMutability": "view",
      "type": "function"
    },
    {
      "inputs": [],
      "name": "baseMetadataURI",
      "outputs": [
        {
          "internalType": "string",
          "name": "",
          "type": "string"
        }
      ],
      "stateMutability": "view",
      "type": "function"
    },
    {
      "inputs": [
        {
          "internalType": "address",
          "name": "from",
          "type": "address"
        },
        {
          "internalType": "uint256[]",
          "name": "tokenIds",
          "type": "uint256[]"
        }
      ],
      "name": "batchBurnFrom",
      "outputs": [],
      "stateMutability": "nonpayable",
      "type": "function"
    },
    {
      "inputs": [
        {
          "internalType": "address",
          "name": "to",
          "type": "address"
        },
        {
          "internalType": "uint256[]",
          "name": "tokenIds",
          "type": "uint256[]"
        }
      ],
      "name": "batchMint",
      "outputs": [],
      "stateMutability": "nonpayable",
      "type": "function"
    },
    {
      "inputs": [
        {
          "internalType": "address",
          "name": "from",
          "type": "address"
        },
        {
          "internalType": "address",
          "name": "to",
          "type": "address"
        },
        {
          "internalType": "uint256[]",
          "name": "tokenIds",
          "type": "uint256[]"
        }
      ],
      "name": "batchTransferFrom",
      "outputs": [],
      "stateMutability": "nonpayable",
      "type": "function"
    },
    {
      "inputs": [
        {
          "internalType": "address",
          "name": "from",
          "type": "address"
        },
        {
          "internalType": "uint256",
          "name": "tokenId",
          "type": "uint256"
        }
      ],
      "name": "burnFrom",
      "outputs": [],
      "stateMutability": "nonpayable",
      "type": "function"
    },
    {
      "inputs": [
        {
          "internalType": "uint256",
          "name": "tokenId",
          "type": "uint256"
        }
      ],
      "name": "getApproved",
      "outputs": [
        {
          "internalType": "address",
          "name": "operator",
          "type": "address"
        }
      ],
      "stateMutability": "view",
      "type": "function"
    },
    {
      "inputs": [
        {
          "internalType": "bytes32",
          "name": "role",
          "type": "bytes32"
        },
        {
          "internalType": "address",
          "name": "account",
          "type": "address"
        }
      ],
      "name": "grantRole",
      "outputs": [],
      "stateMutability": "nonpayable",
      "type": "function"
    },
    {
      "inputs": [
        {
          "internalType": "bytes32",
          "name": "role",
          "type": "bytes32"
        },
        {
          "internalType": "address",
          "name": "account",
          "type": "address"
        }
      ],
      "name": "hasRole",
      "outputs": [
        {
          "internalType": "bool",
          "name": "",
          "type": "bool"
        }
      ],
      "stateMutability": "view",
      "type": "function"
    },
    {
      "inputs": [
        {
          "internalType": "address",
          "name": "owner",
          "type": "address"
        },
        {
          "internalType": "address",
          "name": "operator",
          "type": "address"
        }
      ],
      "name": "isApprovedForAll",
      "outputs": [
        {
          "internalType": "bool",
          "name": "",
          "type": "bool"
        }
      ],
      "stateMutability": "view",
      "type": "function"
    },
    {
      "inputs": [
        {
          "internalType": "address",
          "name": "to",
          "type": "address"
        },
        {
          "internalType": "uint256",
          "name": "tokenId",
          "type": "uint256"
        }
      ],
      "name": "mint",
      "outputs": [],
      "stateMutability": "nonpayable",
      "type": "function"
    },
    {
      "inputs": [],
      "name": "name",
      "outputs": [
        {
          "internalType": "string",
          "name": "",
          "type": "string"
        }
      ],
      "stateMutability": "view",
      "type": "function"
    },
    {
      "inputs": [],
      "name": "owner",
      "outputs": [
        {
          "internalType": "address",
          "name": "",
          "type": "address"
        }
      ],
      "stateMutability": "view",
      "type": "function"
    },
    {
      "inputs": [
        {
          "internalType": "uint256",
          "name": "tokenId",
          "type": "uint256"
        }
      ],
      "name": "ownerOf",
      "outputs": [
        {
          "internalType": "address",
          "name": "",
          "type": "address"
        }
      ],
      "stateMutability": "view",
      "type": "function"
    },
    {
      "inputs": [
        {
          "internalType": "bytes32",
          "name": "role",
          "type": "bytes32"
        }
      ],
      "name": "renounceRole",
      "outputs": [],
      "stateMutability": "nonpayable",
      "type": "function"
    },
    {
      "inputs": [
        {
          "internalType": "bytes32",
          "name": "role",
          "type": "bytes32"
        },
        {
          "internalType": "address",
          "name": "account",
          "type": "address"
        }
      ],
      "name": "revokeRole",
      "outputs": [],
      "stateMutability": "nonpayable",
      "type": "function"
    },
    {
      "inputs": [
        {
          "internalType": "address",
          "name": "to",
          "type": "address"
        },
        {
          "internalType": "uint256",
          "name": "tokenId",
          "type": "uint256"
        },
        {
          "internalType": "bytes",
          "name": "data",
          "type": "bytes"
        }
      ],
      "name": "safeMint",
      "outputs": [],
      "stateMutability": "nonpayable",
      "type": "function"
    },
    {
      "inputs": [
        {
          "internalType": "address",
          "name": "from",
          "type": "address"
        },
        {
          "internalType": "address",
          "name": "to",
          "type": "address"
        },
        {
          "internalType": "uint256",
          "name": "tokenId",
          "type": "uint256"
        }
      ],
      "name": "safeTransferFrom",
      "outputs": [],
      "stateMutability": "nonpayable",
      "type": "function"
    },
    {
      "inputs": [
        {
          "internalType": "address",
          "name": "from",
          "type": "address"
        },
        {
          "internalType": "address",
          "name": "to",
          "type": "address"
        },
        {
          "internalType": "uint256",
          "name": "tokenId",
          "type": "uint256"
        },
        {
          "internalType": "bytes",
          "name": "_data",
          "type": "bytes"
        }
      ],
      "name": "safeTransferFrom",
      "outputs": [],
      "stateMutability": "nonpayable",
      "type": "function"
    },
    {
      "inputs": [
        {
          "internalType": "address",
          "name": "operator",
          "type": "address"
        },
        {
          "internalType": "bool",
          "name": "_approved",
          "type": "bool"
        }
      ],
      "name": "setApprovalForAll",
      "outputs": [],
      "stateMutability": "nonpayable",
      "type": "function"
    },
    {
      "inputs": [
        {
          "internalType": "string",
          "name": "baseMetadataURI_",
          "type": "string"
        }
      ],
      "name": "setBaseMetadataURI",
      "outputs": [],
      "stateMutability": "nonpayable",
      "type": "function"
    },
    {
      "inputs": [
        {
          "internalType": "bytes4",
          "name": "interfaceId",
          "type": "bytes4"
        }
      ],
      "name": "supportsInterface",
      "outputs": [
        {
          "internalType": "bool",
          "name": "",
          "type": "bool"
        }
      ],
      "stateMutability": "view",
      "type": "function"
    },
    {
      "inputs": [],
      "name": "symbol",
      "outputs": [
        {
          "internalType": "string",
          "name": "",
          "type": "string"
        }
      ],
      "stateMutability": "view",
      "type": "function"
    },
    {
      "inputs": [
        {
          "internalType": "uint256",
          "name": "tokenId",
          "type": "uint256"
        }
      ],
      "name": "tokenURI",
      "outputs": [
        {
          "internalType": "string",
          "name": "",
          "type": "string"
        }
      ],
      "stateMutability": "view",
      "type": "function"
    },
    {
      "inputs": [
        {
          "internalType": "address",
          "name": "from",
          "type": "address"
        },
        {
          "internalType": "address",
          "name": "to",
          "type": "address"
        },
        {
          "internalType": "uint256",
          "name": "tokenId",
          "type": "uint256"
        }
      ],
      "name": "transferFrom",
      "outputs": [],
      "stateMutability": "nonpayable",
      "type": "function"
    },
    {
      "inputs": [
        {
          "internalType": "address",
          "name": "newOwner",
          "type": "address"
        }
      ],
      "name": "transferOwnership",
      "outputs": [],
      "stateMutability": "nonpayable",
      "type": "function"
    }
  ],
  "bytecode": "0x60a06040523480156200001157600080fd5b5060405162003eb438038062003eb483398101604081905262000034916200062c565b8383838383838383803362000068620000576200018960201b620009091760201c565b620001bf60201b620009371760201c565b620000968162000082620001e560201b6200096c1760201c565b6200021560201b6200099a1790919060201c565b50620000cf638e773e1360e01b6001620000ba6200029360201b62000a4c1760201c565b620002c360201b62000a7a179092919060201c565b6001600160a01b0316608052506200010063f3993d1160e01b6001620000ba62000293602090811b62000a4c17901c565b620001328383836200011c6200035060201b62000b6f1760201c565b6200038060201b62000b9d17909392919060201c565b62000155635b5e139f60e01b6001620000ba6200029360201b62000a4c1760201c565b505050505050506200017f638b8b4ef560e01b6001620000ba6200029360201b62000a4c1760201c565b5050505062000776565b600080620001b960017fddf3ee18ae6d688373c219468f8be446e7ae82215f4779d821c7ea5e8c13c0c1620006df565b92915050565b620001e26380ac58cd60e01b6001620000ba6200029360201b62000a4c1760201c565b50565b600080620001b960017fc9ed16f33ab3a66c84bfd83099ccb2a8845871e2e1c1928f63797152f0fd54cd620006df565b6001600160a01b038116156200026c5781546001600160a01b0319166001600160a01b03821690811783556040516000907f8be0079c531659141344cd1fd0a4f28419497f9722a3daafe3b4186f6b6457e0908290a35b6200028f6307f5828d60e41b6001620000ba6200029360201b62000a4c1760201c565b5050565b600080620001b960017fca9d3e17f264b0f3984e2634e94adb37fa3e6a8103f06aeae6fa59e21c769f5e620006df565b6001600160e01b03198083169003620003225760405162461bcd60e51b815260206004820152601f60248201527f496e74657266616365446574656374696f6e3a2077726f6e672076616c756500604482015260640160405180910390fd5b6001600160e01b03199190911660009081526020929092526040909120805460ff1916911515919091179055565b600080620001b960017f5f5773833f4966721eb3773ed87c7208ea74d78f0d94de1d8074345cac67333f620006df565b620003b083836200039b6200042760201b62000c2f1760201c565b6200045760201b62000c5d179092919060201c565b8051620003c49085906020840190620004ac565b50620003e8635b5e139f60e01b6001620000ba6200029360201b62000a4c1760201c565b7f04b1dc5c136a3ce9fded8db0ce3d3366c58764ec3a8e4c2b9e52e4ddfe5ebbf78160405162000419919062000705565b60405180910390a150505050565b600080620001b960017f9c4269c0f9f430d98876ffe9767fbf3f3232ea91a549beb549e5329532520eb3620006df565b81516200046b9084906020850190620004ac565b508051620004839060018501906020840190620004ac565b50620004a7635b5e139f60e01b6001620000ba6200029360201b62000a4c1760201c565b505050565b828054620004ba906200073a565b90600052602060002090601f016020900481019282620004de576000855562000529565b82601f10620004f957805160ff191683800117855562000529565b8280016001018555821562000529579182015b82811115620005295782518255916020019190600101906200050c565b50620005379291506200053b565b5090565b5b808211156200053757600081556001016200053c565b634e487b7160e01b600052604160045260246000fd5b60005b83811015620005855781810151838201526020016200056b565b8381111562000595576000848401525b50505050565b600082601f830112620005ad57600080fd5b81516001600160401b0380821115620005ca57620005ca62000552565b604051601f8301601f19908116603f01168101908282118183101715620005f557620005f562000552565b816040528381528660208588010111156200060f57600080fd5b6200062284602083016020890162000568565b9695505050505050565b600080600080608085870312156200064357600080fd5b84516001600160401b03808211156200065b57600080fd5b62000669888389016200059b565b955060208701519150808211156200068057600080fd5b6200068e888389016200059b565b94506040870151915080821115620006a557600080fd5b50620006b4878288016200059b565b606087015190935090506001600160a01b0381168114620006d457600080fd5b939692955090935050565b6000828210156200070057634e487b7160e01b600052601160045260246000fd5b500390565b60208152600082518060208401526200072681604085016020870162000568565b601f01601f19169190910160400192915050565b600181811c908216806200074f57607f821691505b6020821081036200077057634e487b7160e01b600052602260045260246000fd5b50919050565b60805161370d620007a76000396000818161293b015281816129db01528181612a6f0152612ad9015261370d6000f3fe608060405234801561001057600080fd5b50600436106101cf5760003560e01c80637e518ec811610104578063b88d4fde116100a2578063e985e9c511610071578063e985e9c5146103f1578063f247296514610404578063f2fde38b14610417578063f3993d111461042a57600080fd5b8063b88d4fde14610391578063c87b56dd146103a4578063d5391393146103b7578063d547741f146103de57600080fd5b80638da5cb5b116100de5780638da5cb5b1461035b57806391d148541461036357806395d89b4114610376578063a22cb4651461037e57600080fd5b80637e518ec8146103225780638832e6e3146103355780638bb9c5bf1461034857600080fd5b806340c10f19116101715780635b2bd79e1161014b5780635b2bd79e146102d35780636352211e146102db57806370a08231146102ee57806379cc67901461030f57600080fd5b806340c10f191461029a57806342842e0e146102ad5780634684d7e9146102c057600080fd5b8063095ea7b3116101ad578063095ea7b31461024957806323b872dd1461025e5780632f2ff15d1461027157806331e66e1e1461028457600080fd5b806301ffc9a7146101d457806306fdde03146101fc578063081812fc14610211575b600080fd5b6101e76101e2366004612d52565b61043d565b60405190151581526020015b60405180910390f35b610204610457565b6040516101f39190612de5565b61022461021f366004612df8565b61046e565b60405173ffffffffffffffffffffffffffffffffffffffff90911681526020016101f3565b61025c610257366004612e3a565b610482565b005b61025c61026c366004612e64565b6104a3565b61025c61027f366004612ea0565b6104c7565b61028c6104fb565b6040516101f3929190612f15565b61025c6102a8366004612e3a565b61050e565b61025c6102bb366004612e64565b61057a565b61025c6102ce366004612f29565b610599565b61020461060d565b6102246102e9366004612df8565b61061a565b6103016102fc366004612faf565b61062e565b6040519081526020016101f3565b61025c61031d366004612e3a565b610642565b61025c610330366004613013565b61065f565b61025c610343366004613055565b610686565b61025c610356366004612df8565b610708565b610224610726565b6101e7610371366004612ea0565b61074d565b610204610798565b61025c61038c3660046130bd565b6107aa565b61025c61039f366004613172565b6107c7565b6102046103b2366004612df8565b6107e8565b6103017f6d696e746572000000000000000000000000000000000000000000000000000081565b61025c6103ec366004612ea0565b610809565b6101e76103ff366004613250565b610837565b61025c610412366004612f29565b61087e565b61025c610425366004612faf565b6108cf565b61025c61043836600461327a565b6108ea565b60006104518261044b610a4c565b90610cb4565b92915050565b6060610469610464610c2f565b610d72565b905090565b60006104518261047c610909565b90610e08565b61049f61048d610eeb565b8383610497610909565b929190610ef5565b5050565b6104c26104ae610eeb565b8484846104b9610909565b939291906111b1565b505050565b60006104d1610eeb565b90506104e5816104df61096c565b906111d7565b6104c28383836104f361125a565b929190611288565b366000610506611354565b915091509091565b6105497f6d696e746572000000000000000000000000000000000000000000000000000061053a610eeb565b61054261125a565b919061135f565b61049f610554610eeb565b8383604051806020016040528060008152506000610570610909565b949392919061140b565b6104c2610585610eeb565b848484610590610909565b93929190611518565b6105c57f6d696e746572000000000000000000000000000000000000000000000000000061053a610eeb565b6104c2838383808060200260200160405190810160405280939291908181526020018383602002808284376000920191909152506106069250610909915050565b9190611537565b6060610469610464610b6f565b600061045182610628610909565b9061167c565b60006104518261063c610909565b9061170a565b61049f61064d610eeb565b8383610657610909565b9291906117b6565b61067261066a610eeb565b6104df61096c565b61049f828261067f610b6f565b9190611820565b6106b27f6d696e746572000000000000000000000000000000000000000000000000000061053a610eeb565b6107026106bd610eeb565b858585858080601f0160208091040260200160405190810160405280939291908181526020018383808284376000920191909152506001925061057091506109099050565b50505050565b610723610713610eeb565b8261071c61125a565b919061186a565b50565b600061046961073361096c565b5473ffffffffffffffffffffffffffffffffffffffff1690565b6000610791838361075c61125a565b60009283526020908152604080842073ffffffffffffffffffffffffffffffffffffffff909316845291905290205460ff1690565b9392505050565b60606104696107a5610c2f565b611906565b61049f6107b5610eeb565b83836107bf610909565b929190611917565b6107026107d2610eeb565b858585856107de610909565b9493929190611a43565b60606107f682610628610909565b5061045182610803610b6f565b90611a53565b6000610813610eeb565b9050610821816104df61096c565b6104c283838361082f61125a565b929190611a87565b60006107918383610846610909565b73ffffffffffffffffffffffffffffffffffffffff928316600090815260209182526040808220939094168152919052205460ff1690565b6104c2610889610eeb565b848484808060200260200160405190810160405280939291908181526020018383602002808284376000920191909152506108c79250610909915050565b929190611b51565b6107236108da610eeb565b826108e361096c565b9190611c33565b6104c26108f5610eeb565b848484610900610909565b93929190611d5f565b60008061045160017fddf3ee18ae6d688373c219468f8be446e7ae82215f4779d821c7ea5e8c13c0c1613372565b6107237f80ac58cd000000000000000000000000000000000000000000000000000000006001610965610a4c565b9190610a7a565b60008061045160017fc9ed16f33ab3a66c84bfd83099ccb2a8845871e2e1c1928f63797152f0fd54cd613372565b73ffffffffffffffffffffffffffffffffffffffff811615610a225781547fffffffffffffffffffffffff00000000000000000000000000000000000000001673ffffffffffffffffffffffffffffffffffffffff821690811783556040516000907f8be0079c531659141344cd1fd0a4f28419497f9722a3daafe3b4186f6b6457e0908290a35b61049f7f7f5828d00000000000000000000000000000000000000000000000000000000060016109655b60008061045160017fca9d3e17f264b0f3984e2634e94adb37fa3e6a8103f06aeae6fa59e21c769f5e613372565b7fffffffff000000000000000000000000000000000000000000000000000000008083169003610b0b576040517f08c379a000000000000000000000000000000000000000000000000000000000815260206004820152601f60248201527f496e74657266616365446574656374696f6e3a2077726f6e672076616c75650060448201526064015b60405180910390fd5b7fffffffff00000000000000000000000000000000000000000000000000000000919091166000908152602092909252604090912080547fffffffffffffffffffffffffffffffffffffffffffffffffffffffffffffff0016911515919091179055565b60008061045160017f5f5773833f4966721eb3773ed87c7208ea74d78f0d94de1d8074345cac67333f613372565b610bb18383610baa610c2f565b9190610c5d565b8051610bc39085906020840190612bf9565b50610bf27f5b5e139f000000000000000000000000000000000000000000000000000000006001610965610a4c565b7f04b1dc5c136a3ce9fded8db0ce3d3366c58764ec3a8e4c2b9e52e4ddfe5ebbf781604051610c219190612de5565b60405180910390a150505050565b60008061045160017f9c4269c0f9f430d98876ffe9767fbf3f3232ea91a549beb549e5329532520eb3613372565b8151610c6f9084906020850190612bf9565b508051610c859060018501906020840190612bf9565b506104c27f5b5e139f000000000000000000000000000000000000000000000000000000006001610965610a4c565b60007fffffffff000000000000000000000000000000000000000000000000000000008083169003610ce857506000610451565b7ffe003659000000000000000000000000000000000000000000000000000000007fffffffff00000000000000000000000000000000000000000000000000000000831601610d3957506001610451565b507fffffffff00000000000000000000000000000000000000000000000000000000166000908152602091909152604090205460ff1690565b6060816000018054610d8390613389565b80601f0160208091040260200160405190810160405280929190818152602001828054610daf90613389565b8015610dfc5780601f10610dd157610100808354040283529160200191610dfc565b820191906000526020600020905b815481529060010190602001808311610ddf57829003601f168201915b50505050509050919050565b600081815260018301602052604081205473ffffffffffffffffffffffffffffffffffffffff8116610e96576040517f08c379a000000000000000000000000000000000000000000000000000000000815260206004820152601860248201527f4552433732313a206e6f6e2d6578697374696e67204e465400000000000000006044820152606401610b02565b74010000000000000000000000000000000000000000811615610ee1575050600081815260038301602052604090205473ffffffffffffffffffffffffffffffffffffffff16610451565b6000915050610451565b6000610469611ea6565b600081815260018501602052604081205490819003610f70576040517f08c379a000000000000000000000000000000000000000000000000000000000815260206004820152601860248201527f4552433732313a206e6f6e2d6578697374696e67204e465400000000000000006044820152606401610b02565b8073ffffffffffffffffffffffffffffffffffffffff80821690851603610ff3576040517f08c379a000000000000000000000000000000000000000000000000000000000815260206004820152601560248201527f4552433732313a2073656c662d617070726f76616c00000000000000000000006044820152606401610b02565b610ffe868287611eb0565b611064576040517f08c379a000000000000000000000000000000000000000000000000000000000815260206004820152601b60248201527f4552433732313a206e6f6e2d617070726f7665642073656e64657200000000006044820152606401610b02565b73ffffffffffffffffffffffffffffffffffffffff84166110cb57740100000000000000000000000000000000000000008216156110c6576000838152600187016020526040902073ffffffffffffffffffffffffffffffffffffffff821690555b61114e565b7401000000000000000000000000000000000000000082178083146110fe57600084815260018801602052604090208190555b506000838152600387016020526040902080547fffffffffffffffffffffffff00000000000000000000000000000000000000001673ffffffffffffffffffffffffffffffffffffffff86161790555b828473ffffffffffffffffffffffffffffffffffffffff168273ffffffffffffffffffffffffffffffffffffffff167f8c5be1e5ebec7d5bd14f71427d1e84f3dd0314c0f7b2291e5b200ac8c7c3b92560405160405180910390a4505050505050565b6111d08585858585604051806020016040528060008152506000611f24565b5050505050565b815473ffffffffffffffffffffffffffffffffffffffff82811691161461049f576040517f08c379a000000000000000000000000000000000000000000000000000000000815260206004820152601860248201527f4f776e6572736869703a206e6f7420746865206f776e657200000000000000006044820152606401610b02565b60008061045160017fc8827d3282af6f37b64c3e9e6f3ac9df286ab0bb0fccd6f8661bf19adb368b23613372565b60008381526020858152604080832073ffffffffffffffffffffffffffffffffffffffff8616845290915290205460ff166107025760008381526020858152604080832073ffffffffffffffffffffffffffffffffffffffff8681168086529184529382902080547fffffffffffffffffffffffffffffffffffffffffffffffffffffffffffffff00166001179055815187815292830152918316918101919091527f2f8788117e7eff1d82e926ec794901d17c78024a50270940304540a733656f0d90606001610c21565b36600061050661205a565b60008281526020848152604080832073ffffffffffffffffffffffffffffffffffffffff8516845290915290205460ff166104c25761139d82612065565b6040516020016113ad91906133f2565b604080517fffffffffffffffffffffffffffffffffffffffffffffffffffffffffffffffe0818403018152908290527f08c379a0000000000000000000000000000000000000000000000000000000008252610b0291600401612de5565b73ffffffffffffffffffffffffffffffffffffffff8416611488576040517f08c379a000000000000000000000000000000000000000000000000000000000815260206004820152601460248201527f4552433732313a206d696e7420746f207a65726f0000000000000000000000006044820152606401610b02565b61149586858560006121ef565b604051839073ffffffffffffffffffffffffffffffffffffffff8616906000907fddf252ad1be2c89b69c2b068fc378daa952ba7f163c4a11628f55a4df523b3ef908290a48080156114fd575073ffffffffffffffffffffffffffffffffffffffff84163b15155b15611510576115108560008686866122c8565b505050505050565b6111d08585858585604051806020016040528060008152506001611f24565b73ffffffffffffffffffffffffffffffffffffffff82166115b4576040517f08c379a000000000000000000000000000000000000000000000000000000000815260206004820152601460248201527f4552433732313a206d696e7420746f207a65726f0000000000000000000000006044820152606401610b02565b805160005b8181146116395760008382815181106115d4576115d461345e565b602002602001015190506115eb86868360016121ef565b604051819073ffffffffffffffffffffffffffffffffffffffff8716906000907fddf252ad1be2c89b69c2b068fc378daa952ba7f163c4a11628f55a4df523b3ef908290a4506001016115b9565b5073ffffffffffffffffffffffffffffffffffffffff831660009081526002850160205260408120805483929061167190849061348d565b909155505050505050565b600081815260018301602052604081205473ffffffffffffffffffffffffffffffffffffffff8116610791576040517f08c379a000000000000000000000000000000000000000000000000000000000815260206004820152601860248201527f4552433732313a206e6f6e2d6578697374696e67204e465400000000000000006044820152606401610b02565b600073ffffffffffffffffffffffffffffffffffffffff8216611789576040517f08c379a000000000000000000000000000000000000000000000000000000000815260206004820152601460248201527f4552433732313a207a65726f20616464726573730000000000000000000000006044820152606401610b02565b5073ffffffffffffffffffffffffffffffffffffffff166000908152600291909101602052604090205490565b60006117c3858486611eb0565b90506117d4858585858560006123ee565b604051829060009073ffffffffffffffffffffffffffffffffffffffff8616907fddf252ad1be2c89b69c2b068fc378daa952ba7f163c4a11628f55a4df523b3ef908390a45050505050565b61182b838383612c7d565b507f04b1dc5c136a3ce9fded8db0ce3d3366c58764ec3a8e4c2b9e52e4ddfe5ebbf7828260405161185d929190612f15565b60405180910390a1505050565b61187583828461135f565b60008181526020848152604080832073ffffffffffffffffffffffffffffffffffffffff86168085529083529281902080547fffffffffffffffffffffffffffffffffffffffffffffffffffffffffffffff0016905580518481529182018390528101919091527ff6391f5c32d9c69d2a47ea670b442974b53935d1edc7fd64eb21e047a839171b9060600161185d565b6060816001018054610d8390613389565b8273ffffffffffffffffffffffffffffffffffffffff168273ffffffffffffffffffffffffffffffffffffffff16036119ac576040517f08c379a000000000000000000000000000000000000000000000000000000000815260206004820152601560248201527f4552433732313a2073656c662d617070726f76616c00000000000000000000006044820152606401610b02565b73ffffffffffffffffffffffffffffffffffffffff8381166000818152602087815260408083209487168084529482529182902080547fffffffffffffffffffffffffffffffffffffffffffffffffffffffffffffff001686151590811790915591519182527f17307eab39ab6107e8899845ad3d59bd9653f200f220920489ca2b5937696c31910160405180910390a350505050565b6115108686868686866001611f24565b606082611a5f836125c7565b604051602001611a709291906134a5565b604051602081830303815290604052905092915050565b60008381526020858152604080832073ffffffffffffffffffffffffffffffffffffffff8616845290915290205460ff16156107025760008381526020858152604080832073ffffffffffffffffffffffffffffffffffffffff8681168086529184529382902080547fffffffffffffffffffffffffffffffffffffffffffffffffffffffffffffff00169055815187815292830152918316918101919091527ff6391f5c32d9c69d2a47ea670b442974b53935d1edc7fd64eb21e047a839171b90606001610c21565b6000611b5e858486611eb0565b825190915060005b818114611be8576000848281518110611b8157611b8161345e565b60200260200101519050611b9a888888848860016123ee565b604051819060009073ffffffffffffffffffffffffffffffffffffffff8916907fddf252ad1be2c89b69c2b068fc378daa952ba7f163c4a11628f55a4df523b3ef908390a450600101611b66565b5080156115105773ffffffffffffffffffffffffffffffffffffffff8416600090815260028701602052604081208054839290611c26908490613372565b9091555050505050505050565b825473ffffffffffffffffffffffffffffffffffffffff9081169083168114611cb8576040517f08c379a000000000000000000000000000000000000000000000000000000000815260206004820152601860248201527f4f776e6572736869703a206e6f7420746865206f776e657200000000000000006044820152606401610b02565b8173ffffffffffffffffffffffffffffffffffffffff168173ffffffffffffffffffffffffffffffffffffffff16146107025783547fffffffffffffffffffffffff00000000000000000000000000000000000000001673ffffffffffffffffffffffffffffffffffffffff8381169182178655604051908316907f8be0079c531659141344cd1fd0a4f28419497f9722a3daafe3b4186f6b6457e090600090a350505050565b73ffffffffffffffffffffffffffffffffffffffff8216611ddc576040517f08c379a000000000000000000000000000000000000000000000000000000000815260206004820152601860248201527f4552433732313a207472616e7366657220746f207a65726f00000000000000006044820152606401610b02565b6000611de9868587611eb0565b825190915060005b818114611e8a576000848281518110611e0c57611e0c61345e565b60200260200101519050611e2689898989858960016126f2565b808673ffffffffffffffffffffffffffffffffffffffff168873ffffffffffffffffffffffffffffffffffffffff167fddf252ad1be2c89b69c2b068fc378daa952ba7f163c4a11628f55a4df523b3ef60405160405180910390a450600101611df1565b508015611e9d57611e9d87868684612875565b50505050505050565b60006104696128ea565b60008173ffffffffffffffffffffffffffffffffffffffff168373ffffffffffffffffffffffffffffffffffffffff161480611f1c575073ffffffffffffffffffffffffffffffffffffffff8084166000908152602086815260408083209386168352929052205460ff165b949350505050565b73ffffffffffffffffffffffffffffffffffffffff8416611fa1576040517f08c379a000000000000000000000000000000000000000000000000000000000815260206004820152601860248201527f4552433732313a207472616e7366657220746f207a65726f00000000000000006044820152606401610b02565b6000611fae888789611eb0565b9050611fc088888888888660006126f2565b838573ffffffffffffffffffffffffffffffffffffffff168773ffffffffffffffffffffffffffffffffffffffff167fddf252ad1be2c89b69c2b068fc378daa952ba7f163c4a11628f55a4df523b3ef60405160405180910390a481801561203e575073ffffffffffffffffffffffffffffffffffffffff85163b15155b156120505761205087878787876122c8565b5050505050505050565b3660006105066128f4565b6060600082900361208457505060408051602081019091526000815290565b60008260405160200161209991815260200190565b604080517fffffffffffffffffffffffffffffffffffffffffffffffffffffffffffffffe08184030181529190529050601f5b8181815181106120de576120de61345e565b01602001517fff000000000000000000000000000000000000000000000000000000000000001660000361211c5761211581613582565b90506120cc565b600061212982600161348d565b67ffffffffffffffff811115612141576121416130f4565b6040519080825280601f01601f19166020018201604052801561216b576020820181803683370190505b50905060005b8281116121e65783818151811061218a5761218a61345e565b602001015160f81c60f81b8282815181106121a7576121a761345e565b60200101907effffffffffffffffffffffffffffffffffffffffffffffffffffffffffffff1916908160001a9053506121df816135b7565b9050612171565b50949350505050565b600082815260018501602052604090205415612267576040517f08c379a000000000000000000000000000000000000000000000000000000000815260206004820152601a60248201527f4552433732313a206578697374696e672f6275726e74204e46540000000000006044820152606401610b02565b6000828152600185016020526040902073ffffffffffffffffffffffffffffffffffffffff841690558061070257505073ffffffffffffffffffffffffffffffffffffffff1660009081526002919091016020526040902080546001019055565b6040517f150b7a02000000000000000000000000000000000000000000000000000000008082529073ffffffffffffffffffffffffffffffffffffffff85169063150b7a02906123229089908990889088906004016135ef565b6020604051808303816000875af1158015612341573d6000803e3d6000fd5b505050506040513d601f19601f820116820180604052508101906123659190613638565b7fffffffff0000000000000000000000000000000000000000000000000000000016146111d0576040517f08c379a000000000000000000000000000000000000000000000000000000000815260206004820152601860248201527f4552433732313a207472616e73666572207265667573656400000000000000006044820152606401610b02565b600083815260018701602052604090205473ffffffffffffffffffffffffffffffffffffffff85811690821614612481576040517f08c379a000000000000000000000000000000000000000000000000000000000815260206004820152601560248201527f4552433732313a206e6f6e2d6f776e6564204e465400000000000000000000006044820152606401610b02565b8261253a57740100000000000000000000000000000000000000008116158015906124d45750600084815260038801602052604090205473ffffffffffffffffffffffffffffffffffffffff8781169116145b61253a576040517f08c379a000000000000000000000000000000000000000000000000000000000815260206004820152601b60248201527f4552433732313a206e6f6e2d617070726f7665642073656e64657200000000006044820152606401610b02565b600084815260018801602052604090207fdead000000000000000000000000000000000000000000000000000000000000905581611e9d575050505073ffffffffffffffffffffffffffffffffffffffff166000908152600292909201602052506040902080547fffffffffffffffffffffffffffffffffffffffffffffffffffffffffffffffff019055565b60608160000361260a57505060408051808201909152600181527f3000000000000000000000000000000000000000000000000000000000000000602082015290565b8160005b8115612634578061261e816135b7565b915061262d9050600a83613655565b915061260e565b60008167ffffffffffffffff81111561264f5761264f6130f4565b6040519080825280601f01601f191660200182016040528015612679576020820181803683370190505b5090506000612689600184613372565b90508593505b83156121e657600a840660300160f81b828280600190039350815181106126b8576126b861345e565b60200101907effffffffffffffffffffffffffffffffffffffffffffffffffffffffffffff1916908160001a905350600a8404935061268f565b600083815260018801602052604090205473ffffffffffffffffffffffffffffffffffffffff86811690821614612785576040517f08c379a000000000000000000000000000000000000000000000000000000000815260206004820152601560248201527f4552433732313a206e6f6e2d6f776e6564204e465400000000000000000000006044820152606401610b02565b8261283e57740100000000000000000000000000000000000000008116158015906127d85750600084815260038901602052604090205473ffffffffffffffffffffffffffffffffffffffff8881169116145b61283e576040517f08c379a000000000000000000000000000000000000000000000000000000000815260206004820152601b60248201527f4552433732313a206e6f6e2d617070726f7665642073656e64657200000000006044820152606401610b02565b6000848152600189016020526040902073ffffffffffffffffffffffffffffffffffffffff86169055816120505761205088878760015b8173ffffffffffffffffffffffffffffffffffffffff168373ffffffffffffffffffffffffffffffffffffffff16146107025773ffffffffffffffffffffffffffffffffffffffff80841660009081526002860160205260408082208054859003905591841681522080548201905550505050565b60006104696128ff565b366000610506612a57565b60003332810361290e57919050565b6000367fffffffffffffffffffffffffffffffffffffffffffffffffffffffffffffffec013560601c90507f000000000000000000000000000000000000000000000000000000000000000073ffffffffffffffffffffffffffffffffffffffff168273ffffffffffffffffffffffffffffffffffffffff161480612a4657506040517fe60125d600000000000000000000000000000000000000000000000000000000815273ffffffffffffffffffffffffffffffffffffffff828116600483015283811660248301527f0000000000000000000000000000000000000000000000000000000000000000169063e60125d690604401602060405180830381865afa158015612a22573d6000803e3d6000fd5b505050506040513d601f19601f82011682018060405250810190612a469190613690565b15612a515792915050565b50919050565b36600033328103612a6d57506000923692509050565b7f000000000000000000000000000000000000000000000000000000000000000073ffffffffffffffffffffffffffffffffffffffff168173ffffffffffffffffffffffffffffffffffffffff161480612bba575073ffffffffffffffffffffffffffffffffffffffff7f00000000000000000000000000000000000000000000000000000000000000001663e60125d6367fffffffffffffffffffffffffffffffffffffffffffffffffffffffffffffffec013560601c6040517fffffffff0000000000000000000000000000000000000000000000000000000060e084901b16815273ffffffffffffffffffffffffffffffffffffffff91821660048201529084166024820152604401602060405180830381865afa158015612b96573d6000803e3d6000fd5b505050506040513d601f19601f82011682018060405250810190612bba9190613690565b15612bd057612bc7612bdb565b92509250509091565b506000923692509050565b366000808083612bec601482613372565b92610506939291906136ad565b828054612c0590613389565b90600052602060002090601f016020900481019282612c275760008555612c6d565b82601f10612c4057805160ff1916838001178555612c6d565b82800160010185558215612c6d579182015b82811115612c6d578251825591602001919060010190612c52565b50612c79929150612d0f565b5090565b828054612c8990613389565b90600052602060002090601f016020900481019282612cab5760008555612c6d565b82601f10612ce2578280017fffffffffffffffffffffffffffffffffffffffffffffffffffffffffffffff00823516178555612c6d565b82800160010185558215612c6d579182015b82811115612c6d578235825591602001919060010190612cf4565b5b80821115612c795760008155600101612d10565b7fffffffff000000000000000000000000000000000000000000000000000000008116811461072357600080fd5b600060208284031215612d6457600080fd5b813561079181612d24565b60005b83811015612d8a578181015183820152602001612d72565b838111156107025750506000910152565b60008151808452612db3816020860160208601612d6f565b601f017fffffffffffffffffffffffffffffffffffffffffffffffffffffffffffffffe0169290920160200192915050565b6020815260006107916020830184612d9b565b600060208284031215612e0a57600080fd5b5035919050565b803573ffffffffffffffffffffffffffffffffffffffff81168114612e3557600080fd5b919050565b60008060408385031215612e4d57600080fd5b612e5683612e11565b946020939093013593505050565b600080600060608486031215612e7957600080fd5b612e8284612e11565b9250612e9060208501612e11565b9150604084013590509250925092565b60008060408385031215612eb357600080fd5b82359150612ec360208401612e11565b90509250929050565b8183528181602085013750600060208284010152600060207fffffffffffffffffffffffffffffffffffffffffffffffffffffffffffffffe0601f840116840101905092915050565b602081526000611f1c602083018486612ecc565b600080600060408486031215612f3e57600080fd5b612f4784612e11565b9250602084013567ffffffffffffffff80821115612f6457600080fd5b818601915086601f830112612f7857600080fd5b813581811115612f8757600080fd5b8760208260051b8501011115612f9c57600080fd5b6020830194508093505050509250925092565b600060208284031215612fc157600080fd5b61079182612e11565b60008083601f840112612fdc57600080fd5b50813567ffffffffffffffff811115612ff457600080fd5b60208301915083602082850101111561300c57600080fd5b9250929050565b6000806020838503121561302657600080fd5b823567ffffffffffffffff81111561303d57600080fd5b61304985828601612fca565b90969095509350505050565b6000806000806060858703121561306b57600080fd5b61307485612e11565b935060208501359250604085013567ffffffffffffffff81111561309757600080fd5b6130a387828801612fca565b95989497509550505050565b801515811461072357600080fd5b600080604083850312156130d057600080fd5b6130d983612e11565b915060208301356130e9816130af565b809150509250929050565b7f4e487b7100000000000000000000000000000000000000000000000000000000600052604160045260246000fd5b604051601f82017fffffffffffffffffffffffffffffffffffffffffffffffffffffffffffffffe016810167ffffffffffffffff8111828210171561316a5761316a6130f4565b604052919050565b6000806000806080858703121561318857600080fd5b61319185612e11565b935060206131a0818701612e11565b935060408601359250606086013567ffffffffffffffff808211156131c457600080fd5b818801915088601f8301126131d857600080fd5b8135818111156131ea576131ea6130f4565b61321a847fffffffffffffffffffffffffffffffffffffffffffffffffffffffffffffffe0601f84011601613123565b9150808252898482850101111561323057600080fd5b808484018584013760008482840101525080935050505092959194509250565b6000806040838503121561326357600080fd5b61326c83612e11565b9150612ec360208401612e11565b60008060006060848603121561328f57600080fd5b61329884612e11565b925060206132a7818601612e11565b9250604085013567ffffffffffffffff808211156132c457600080fd5b818701915087601f8301126132d857600080fd5b8135818111156132ea576132ea6130f4565b8060051b91506132fb848301613123565b818152918301840191848101908a84111561331557600080fd5b938501935b838510156133335784358252938501939085019061331a565b8096505050505050509250925092565b7f4e487b7100000000000000000000000000000000000000000000000000000000600052601160045260246000fd5b60008282101561338457613384613343565b500390565b600181811c9082168061339d57607f821691505b602082108103612a51577f4e487b7100000000000000000000000000000000000000000000000000000000600052602260045260246000fd5b600081516133e8818560208601612d6f565b9290920192915050565b7f416363657373436f6e74726f6c3a206d697373696e672027000000000000000081526000825161342a816018850160208701612d6f565b7f2720726f6c6500000000000000000000000000000000000000000000000000006018939091019283015250601e01919050565b7f4e487b7100000000000000000000000000000000000000000000000000000000600052603260045260246000fd5b600082198211156134a0576134a0613343565b500190565b600080845481600182811c9150808316806134c157607f831692505b602080841082036134f9577f4e487b710000000000000000000000000000000000000000000000000000000086526022600452602486fd5b81801561350d576001811461353c57613569565b7fffffffffffffffffffffffffffffffffffffffffffffffffffffffffffffff00861689528489019650613569565b60008b81526020902060005b868110156135615781548b820152908501908301613548565b505084890196505b50505050505061357981856133d6565b95945050505050565b60008161359157613591613343565b507fffffffffffffffffffffffffffffffffffffffffffffffffffffffffffffffff0190565b60007fffffffffffffffffffffffffffffffffffffffffffffffffffffffffffffffff82036135e8576135e8613343565b5060010190565b600073ffffffffffffffffffffffffffffffffffffffff80871683528086166020840152508360408301526080606083015261362e6080830184612d9b565b9695505050505050565b60006020828403121561364a57600080fd5b815161079181612d24565b60008261368b577f4e487b7100000000000000000000000000000000000000000000000000000000600052601260045260246000fd5b500490565b6000602082840312156136a257600080fd5b8151610791816130af565b600080858511156136bd57600080fd5b838611156136ca57600080fd5b505082019391909203915056fea2646970667358221220ed45134f5230165fc39d2603829da6c7f0eba7eb7be084855bcc7993af9db90364736f6c634300080e0033",
  "linkReferences": {},
  "deployedLinkReferences": {}
}