{
  "_format": "hh-sol-artifact-1",
  "contractName": "ERC721BurnableMock",
  "sourceName": "contracts/mocks/token/ERC721/ERC721BurnableMock.sol",
  "abi": [
    {
      "inputs": [
        {
          "internalType": "string",
          "name": "name_",
          "type": "string"
        },
        {
          "internalType": "string",
          "name": "symbol_",
          "type": "string"
        },
        {
          "internalType": "string",
          "name": "tokenURI_",
          "type": "string"
        },
        {
          "internalType": "contract IForwarderRegistry",
          "name": "forwarderRegistry",
          "type": "address"
        }
      ],
      "stateMutability": "nonpayable",
      "type": "constructor"
    },
    {
      "anonymous": false,
      "inputs": [
        {
          "indexed": true,
          "internalType": "address",
          "name": "owner",
          "type": "address"
        },
        {
          "indexed": true,
          "internalType": "address",
          "name": "approved",
          "type": "address"
        },
        {
          "indexed": true,
          "internalType": "uint256",
          "name": "tokenId",
          "type": "uint256"
        }
      ],
      "name": "Approval",
      "type": "event"
    },
    {
      "anonymous": false,
      "inputs": [
        {
          "indexed": true,
          "internalType": "address",
          "name": "owner",
          "type": "address"
        },
        {
          "indexed": true,
          "internalType": "address",
          "name": "operator",
          "type": "address"
        },
        {
          "indexed": false,
          "internalType": "bool",
          "name": "approved",
          "type": "bool"
        }
      ],
      "name": "ApprovalForAll",
      "type": "event"
    },
    {
      "anonymous": false,
      "inputs": [
        {
          "indexed": true,
          "internalType": "string",
          "name": "baseMetadataURI",
          "type": "string"
        }
      ],
      "name": "BaseMetadataURISet",
      "type": "event"
    },
    {
      "anonymous": false,
      "inputs": [
        {
          "indexed": true,
          "internalType": "address",
          "name": "previousOwner",
          "type": "address"
        },
        {
          "indexed": true,
          "internalType": "address",
          "name": "newOwner",
          "type": "address"
        }
      ],
      "name": "OwnershipTransferred",
      "type": "event"
    },
    {
      "anonymous": false,
      "inputs": [
        {
          "indexed": false,
          "internalType": "bytes32",
          "name": "role",
          "type": "bytes32"
        },
        {
          "indexed": false,
          "internalType": "address",
          "name": "account",
          "type": "address"
        },
        {
          "indexed": false,
          "internalType": "address",
          "name": "operator",
          "type": "address"
        }
      ],
      "name": "RoleGranted",
      "type": "event"
    },
    {
      "anonymous": false,
      "inputs": [
        {
          "indexed": false,
          "internalType": "bytes32",
          "name": "role",
          "type": "bytes32"
        },
        {
          "indexed": false,
          "internalType": "address",
          "name": "account",
          "type": "address"
        },
        {
          "indexed": false,
          "internalType": "address",
          "name": "operator",
          "type": "address"
        }
      ],
      "name": "RoleRevoked",
      "type": "event"
    },
    {
      "anonymous": false,
      "inputs": [
        {
          "indexed": true,
          "internalType": "address",
          "name": "from",
          "type": "address"
        },
        {
          "indexed": true,
          "internalType": "address",
          "name": "to",
          "type": "address"
        },
        {
          "indexed": true,
          "internalType": "uint256",
          "name": "tokenId",
          "type": "uint256"
        }
      ],
      "name": "Transfer",
      "type": "event"
    },
    {
      "inputs": [],
      "name": "MINTER_ROLE",
      "outputs": [
        {
          "internalType": "bytes32",
          "name": "",
          "type": "bytes32"
        }
      ],
      "stateMutability": "view",
      "type": "function"
    },
    {
      "inputs": [],
      "name": "__msgData",
      "outputs": [
        {
          "internalType": "bytes",
          "name": "",
          "type": "bytes"
        }
      ],
      "stateMutability": "view",
      "type": "function"
    },
    {
      "inputs": [
        {
          "internalType": "address",
          "name": "to",
          "type": "address"
        },
        {
          "internalType": "uint256",
          "name": "tokenId",
          "type": "uint256"
        }
      ],
      "name": "approve",
      "outputs": [],
      "stateMutability": "nonpayable",
      "type": "function"
    },
    {
      "inputs": [
        {
          "internalType": "address",
          "name": "owner",
          "type": "address"
        }
      ],
      "name": "balanceOf",
      "outputs": [
        {
          "internalType": "uint256",
          "name": "",
          "type": "uint256"
        }
      ],
      "stateMutability": "view",
      "type": "function"
    },
    {
      "inputs": [],
      "name": "baseMetadataURI",
      "outputs": [
        {
          "internalType": "string",
          "name": "",
          "type": "string"
        }
      ],
      "stateMutability": "view",
      "type": "function"
    },
    {
      "inputs": [
        {
          "internalType": "address",
          "name": "from",
          "type": "address"
        },
        {
          "internalType": "uint256[]",
          "name": "tokenIds",
          "type": "uint256[]"
        }
      ],
      "name": "batchBurnFrom",
      "outputs": [],
      "stateMutability": "nonpayable",
      "type": "function"
    },
    {
      "inputs": [
        {
          "internalType": "address",
          "name": "to",
          "type": "address"
        },
        {
          "internalType": "uint256[]",
          "name": "tokenIds",
          "type": "uint256[]"
        }
      ],
      "name": "batchMint",
      "outputs": [],
      "stateMutability": "nonpayable",
      "type": "function"
    },
    {
      "inputs": [
        {
          "internalType": "address",
          "name": "from",
          "type": "address"
        },
        {
          "internalType": "address",
          "name": "to",
          "type": "address"
        },
        {
          "internalType": "uint256[]",
          "name": "tokenIds",
          "type": "uint256[]"
        }
      ],
      "name": "batchTransferFrom",
      "outputs": [],
      "stateMutability": "nonpayable",
      "type": "function"
    },
    {
      "inputs": [
        {
          "internalType": "address",
          "name": "from",
          "type": "address"
        },
        {
          "internalType": "uint256",
          "name": "tokenId",
          "type": "uint256"
        }
      ],
      "name": "burnFrom",
      "outputs": [],
      "stateMutability": "nonpayable",
      "type": "function"
    },
    {
      "inputs": [
        {
          "internalType": "uint256",
          "name": "tokenId",
          "type": "uint256"
        }
      ],
      "name": "getApproved",
      "outputs": [
        {
          "internalType": "address",
          "name": "operator",
          "type": "address"
        }
      ],
      "stateMutability": "view",
      "type": "function"
    },
    {
      "inputs": [
        {
          "internalType": "bytes32",
          "name": "role",
          "type": "bytes32"
        },
        {
          "internalType": "address",
          "name": "account",
          "type": "address"
        }
      ],
      "name": "grantRole",
      "outputs": [],
      "stateMutability": "nonpayable",
      "type": "function"
    },
    {
      "inputs": [
        {
          "internalType": "bytes32",
          "name": "role",
          "type": "bytes32"
        },
        {
          "internalType": "address",
          "name": "account",
          "type": "address"
        }
      ],
      "name": "hasRole",
      "outputs": [
        {
          "internalType": "bool",
          "name": "",
          "type": "bool"
        }
      ],
      "stateMutability": "view",
      "type": "function"
    },
    {
      "inputs": [
        {
          "internalType": "address",
          "name": "owner",
          "type": "address"
        },
        {
          "internalType": "address",
          "name": "operator",
          "type": "address"
        }
      ],
      "name": "isApprovedForAll",
      "outputs": [
        {
          "internalType": "bool",
          "name": "",
          "type": "bool"
        }
      ],
      "stateMutability": "view",
      "type": "function"
    },
    {
      "inputs": [
        {
          "internalType": "address",
          "name": "to",
          "type": "address"
        },
        {
          "internalType": "uint256",
          "name": "tokenId",
          "type": "uint256"
        }
      ],
      "name": "mint",
      "outputs": [],
      "stateMutability": "nonpayable",
      "type": "function"
    },
    {
      "inputs": [],
      "name": "name",
      "outputs": [
        {
          "internalType": "string",
          "name": "",
          "type": "string"
        }
      ],
      "stateMutability": "view",
      "type": "function"
    },
    {
      "inputs": [],
      "name": "owner",
      "outputs": [
        {
          "internalType": "address",
          "name": "",
          "type": "address"
        }
      ],
      "stateMutability": "view",
      "type": "function"
    },
    {
      "inputs": [
        {
          "internalType": "uint256",
          "name": "tokenId",
          "type": "uint256"
        }
      ],
      "name": "ownerOf",
      "outputs": [
        {
          "internalType": "address",
          "name": "",
          "type": "address"
        }
      ],
      "stateMutability": "view",
      "type": "function"
    },
    {
      "inputs": [
        {
          "internalType": "bytes32",
          "name": "role",
          "type": "bytes32"
        }
      ],
      "name": "renounceRole",
      "outputs": [],
      "stateMutability": "nonpayable",
      "type": "function"
    },
    {
      "inputs": [
        {
          "internalType": "bytes32",
          "name": "role",
          "type": "bytes32"
        },
        {
          "internalType": "address",
          "name": "account",
          "type": "address"
        }
      ],
      "name": "revokeRole",
      "outputs": [],
      "stateMutability": "nonpayable",
      "type": "function"
    },
    {
      "inputs": [
        {
          "internalType": "address",
          "name": "to",
          "type": "address"
        },
        {
          "internalType": "uint256",
          "name": "tokenId",
          "type": "uint256"
        },
        {
          "internalType": "bytes",
          "name": "data",
          "type": "bytes"
        }
      ],
      "name": "safeMint",
      "outputs": [],
      "stateMutability": "nonpayable",
      "type": "function"
    },
    {
      "inputs": [
        {
          "internalType": "address",
          "name": "from",
          "type": "address"
        },
        {
          "internalType": "address",
          "name": "to",
          "type": "address"
        },
        {
          "internalType": "uint256",
          "name": "tokenId",
          "type": "uint256"
        }
      ],
      "name": "safeTransferFrom",
      "outputs": [],
      "stateMutability": "nonpayable",
      "type": "function"
    },
    {
      "inputs": [
        {
          "internalType": "address",
          "name": "from",
          "type": "address"
        },
        {
          "internalType": "address",
          "name": "to",
          "type": "address"
        },
        {
          "internalType": "uint256",
          "name": "tokenId",
          "type": "uint256"
        },
        {
          "internalType": "bytes",
          "name": "_data",
          "type": "bytes"
        }
      ],
      "name": "safeTransferFrom",
      "outputs": [],
      "stateMutability": "nonpayable",
      "type": "function"
    },
    {
      "inputs": [
        {
          "internalType": "address",
          "name": "operator",
          "type": "address"
        },
        {
          "internalType": "bool",
          "name": "_approved",
          "type": "bool"
        }
      ],
      "name": "setApprovalForAll",
      "outputs": [],
      "stateMutability": "nonpayable",
      "type": "function"
    },
    {
      "inputs": [
        {
          "internalType": "string",
          "name": "baseMetadataURI_",
          "type": "string"
        }
      ],
      "name": "setBaseMetadataURI",
      "outputs": [],
      "stateMutability": "nonpayable",
      "type": "function"
    },
    {
      "inputs": [
        {
          "internalType": "bytes4",
          "name": "interfaceId",
          "type": "bytes4"
        }
      ],
      "name": "supportsInterface",
      "outputs": [
        {
          "internalType": "bool",
          "name": "",
          "type": "bool"
        }
      ],
      "stateMutability": "view",
      "type": "function"
    },
    {
      "inputs": [],
      "name": "symbol",
      "outputs": [
        {
          "internalType": "string",
          "name": "",
          "type": "string"
        }
      ],
      "stateMutability": "view",
      "type": "function"
    },
    {
      "inputs": [
        {
          "internalType": "uint256",
          "name": "tokenId",
          "type": "uint256"
        }
      ],
      "name": "tokenURI",
      "outputs": [
        {
          "internalType": "string",
          "name": "",
          "type": "string"
        }
      ],
      "stateMutability": "view",
      "type": "function"
    },
    {
      "inputs": [
        {
          "internalType": "address",
          "name": "from",
          "type": "address"
        },
        {
          "internalType": "address",
          "name": "to",
          "type": "address"
        },
        {
          "internalType": "uint256",
          "name": "tokenId",
          "type": "uint256"
        }
      ],
      "name": "transferFrom",
      "outputs": [],
      "stateMutability": "nonpayable",
      "type": "function"
    },
    {
      "inputs": [
        {
          "internalType": "address",
          "name": "newOwner",
          "type": "address"
        }
      ],
      "name": "transferOwnership",
      "outputs": [],
      "stateMutability": "nonpayable",
      "type": "function"
    }
  ],
  "bytecode": "0x60a06040523480156200001157600080fd5b5060405162003f8238038062003f828339810160408190526200003491620006ac565b8383838383838383803362000068620000576200018960201b620009091760201c565b620001bf60201b620009371760201c565b620000968162000082620001e560201b6200096c1760201c565b6200021560201b6200099a1790919060201c565b50620000cf638e773e1360e01b6001620000ba6200029360201b62000a4c1760201c565b620002c360201b62000a7a179092919060201c565b6001600160a01b0316608052506200010063f3993d1160e01b6001620000ba62000293602090811b62000a4c17901c565b620001328383836200011c6200035160201b62000b6f1760201c565b6200038160201b62000b9d17909392919060201c565b62000155635b5e139f60e01b6001620000ba6200029360201b62000a4c1760201c565b505050505050506200017f638b8b4ef560e01b6001620000ba6200029360201b62000a4c1760201c565b50505050620007c1565b600080620001b960017fddf3ee18ae6d688373c219468f8be446e7ae82215f4779d821c7ea5e8c13c0c16200075f565b92915050565b620001e26380ac58cd60e01b6001620000ba6200029360201b62000a4c1760201c565b50565b600080620001b960017fc9ed16f33ab3a66c84bfd83099ccb2a8845871e2e1c1928f63797152f0fd54cd6200075f565b6001600160a01b038116156200026c5781546001600160a01b0319166001600160a01b03821690811783556040516000907f8be0079c531659141344cd1fd0a4f28419497f9722a3daafe3b4186f6b6457e0908290a35b6200028f6307f5828d60e41b6001620000ba6200029360201b62000a4c1760201c565b5050565b600080620001b960017fca9d3e17f264b0f3984e2634e94adb37fa3e6a8103f06aeae6fa59e21c769f5e6200075f565b6001600160e01b03198083169003620003235760405162461bcd60e51b815260206004820152601f60248201527f496e74657266616365446574656374696f6e3a2077726f6e672076616c75650060448201526064015b60405180910390fd5b6001600160e01b03199190911660009081526020929092526040909120805460ff1916911515919091179055565b600080620001b960017f5f5773833f4966721eb3773ed87c7208ea74d78f0d94de1d8074345cac67333f6200075f565b620003c8620003b260017fdf2ee7965c9504dc84db8f7759fc283282800c5a2fa3704c9f07f446b3b40a3f6200075f565b60001b60016200043660201b62000c271760201c565b620003f88383620003e3620004a960201b62000c971760201c565b620004d960201b62000cc5179092919060201c565b80516200040c908590602084019062000539565b5062000430635b5e139f60e01b6001620000ba6200029360201b62000a4c1760201c565b50505050565b60006200044e836200053660201b62000d1b1760201c565b905081816000015410620004a55760405162461bcd60e51b815260206004820152601860248201527f53746f726167653a2076657273696f6e2072656163686564000000000000000060448201526064016200031a565b5550565b600080620001b960017f9c4269c0f9f430d98876ffe9767fbf3f3232ea91a549beb549e5329532520eb36200075f565b6200050a620003b260017fa057eeb6560fae2987973d3bf40b89e6da66dd0b6aadac05dc6b5b0d7a8d45576200075f565b81516200051e908490602085019062000539565b50805162000430906001850190602084019062000539565b90565b828054620005479062000785565b90600052602060002090601f0160209004810192826200056b5760008555620005b6565b82601f106200058657805160ff1916838001178555620005b6565b82800160010185558215620005b6579182015b82811115620005b657825182559160200191906001019062000599565b50620005c4929150620005c8565b5090565b5b80821115620005c45760008155600101620005c9565b634e487b7160e01b600052604160045260246000fd5b600082601f8301126200060757600080fd5b81516001600160401b0380821115620006245762000624620005df565b604051601f8301601f19908116603f011681019082821181831017156200064f576200064f620005df565b816040528381526020925086838588010111156200066c57600080fd5b600091505b8382101562000690578582018301518183018401529082019062000671565b83821115620006a25760008385830101525b9695505050505050565b60008060008060808587031215620006c357600080fd5b84516001600160401b0380821115620006db57600080fd5b620006e988838901620005f5565b955060208701519150808211156200070057600080fd5b6200070e88838901620005f5565b945060408701519150808211156200072557600080fd5b506200073487828801620005f5565b606087015190935090506001600160a01b03811681146200075457600080fd5b939692955090935050565b6000828210156200078057634e487b7160e01b600052601160045260246000fd5b500390565b600181811c908216806200079a57607f821691505b602082108103620007bb57634e487b7160e01b600052602260045260246000fd5b50919050565b608051613790620007f2600039600081816129be01528181612a5e01528181612af20152612b5c01526137906000f3fe608060405234801561001057600080fd5b50600436106101cf5760003560e01c80637e518ec811610104578063b88d4fde116100a2578063e985e9c511610071578063e985e9c5146103f1578063f247296514610404578063f2fde38b14610417578063f3993d111461042a57600080fd5b8063b88d4fde14610391578063c87b56dd146103a4578063d5391393146103b7578063d547741f146103de57600080fd5b80638da5cb5b116100de5780638da5cb5b1461035b57806391d148541461036357806395d89b4114610376578063a22cb4651461037e57600080fd5b80637e518ec8146103225780638832e6e3146103355780638bb9c5bf1461034857600080fd5b806340c10f19116101715780635b2bd79e1161014b5780635b2bd79e146102d35780636352211e146102db57806370a08231146102ee57806379cc67901461030f57600080fd5b806340c10f191461029a57806342842e0e146102ad5780634684d7e9146102c057600080fd5b8063095ea7b3116101ad578063095ea7b31461024957806323b872dd1461025e5780632f2ff15d1461027157806331e66e1e1461028457600080fd5b806301ffc9a7146101d457806306fdde03146101fc578063081812fc14610211575b600080fd5b6101e76101e2366004612dd5565b61043d565b60405190151581526020015b60405180910390f35b610204610457565b6040516101f39190612e68565b61022461021f366004612e7b565b61046e565b60405173ffffffffffffffffffffffffffffffffffffffff90911681526020016101f3565b61025c610257366004612ebd565b610482565b005b61025c61026c366004612ee7565b6104a3565b61025c61027f366004612f23565b6104c7565b61028c6104fb565b6040516101f3929190612f4f565b61025c6102a8366004612ebd565b61050e565b61025c6102bb366004612ee7565b61057a565b61025c6102ce366004612f9c565b610599565b61020461060d565b6102246102e9366004612e7b565b61061a565b6103016102fc366004613022565b61062e565b6040519081526020016101f3565b61025c61031d366004612ebd565b610642565b61025c610330366004613086565b61065f565b61025c6103433660046130c8565b610686565b61025c610356366004612e7b565b610708565b610224610726565b6101e7610371366004612f23565b61074d565b610204610798565b61025c61038c366004613130565b6107aa565b61025c61039f3660046131e5565b6107c7565b6102046103b2366004612e7b565b6107e8565b6103017f6d696e746572000000000000000000000000000000000000000000000000000081565b61025c6103ec366004612f23565b610809565b6101e76103ff3660046132c3565b610837565b61025c610412366004612f9c565b61087e565b61025c610425366004613022565b6108cf565b61025c6104383660046132ed565b6108ea565b60006104518261044b610a4c565b90610d1e565b92915050565b6060610469610464610c97565b610ddc565b905090565b60006104518261047c610909565b90610e72565b61049f61048d610f55565b8383610497610909565b929190610f5f565b5050565b6104c26104ae610f55565b8484846104b9610909565b9392919061121b565b505050565b60006104d1610f55565b90506104e5816104df61096c565b90611241565b6104c28383836104f36112c4565b9291906112f2565b3660006105066113c8565b915091509091565b6105497f6d696e746572000000000000000000000000000000000000000000000000000061053a610f55565b6105426112c4565b91906113d3565b61049f610554610f55565b8383604051806020016040528060008152506000610570610909565b949392919061147f565b6104c2610585610f55565b848484610590610909565b9392919061158c565b6105c57f6d696e746572000000000000000000000000000000000000000000000000000061053a610f55565b6104c2838383808060200260200160405190810160405280939291908181526020018383602002808284376000920191909152506106069250610909915050565b91906115ab565b6060610469610464610b6f565b600061045182610628610909565b906116f0565b60006104518261063c610909565b9061177e565b61049f61064d610f55565b8383610657610909565b92919061182a565b61067261066a610f55565b6104df61096c565b61049f828261067f610b6f565b9190611894565b6106b27f6d696e746572000000000000000000000000000000000000000000000000000061053a610f55565b6107026106bd610f55565b858585858080601f0160208091040260200160405190810160405280939291908181526020018383808284376000920191909152506001925061057091506109099050565b50505050565b610723610713610f55565b8261071c6112c4565b91906118e5565b50565b600061046961073361096c565b5473ffffffffffffffffffffffffffffffffffffffff1690565b6000610791838361075c6112c4565b60009283526020908152604080842073ffffffffffffffffffffffffffffffffffffffff909316845291905290205460ff1690565b9392505050565b60606104696107a5610c97565b611989565b61049f6107b5610f55565b83836107bf610909565b92919061199a565b6107026107d2610f55565b858585856107de610909565b9493929190611ac6565b60606107f682610628610909565b5061045182610803610b6f565b90611ad6565b6000610813610f55565b9050610821816104df61096c565b6104c283838361082f6112c4565b929190611b0a565b60006107918383610846610909565b73ffffffffffffffffffffffffffffffffffffffff928316600090815260209182526040808220939094168152919052205460ff1690565b6104c2610889610f55565b848484808060200260200160405190810160405280939291908181526020018383602002808284376000920191909152506108c79250610909915050565b929190611bd4565b6107236108da610f55565b826108e361096c565b9190611cb6565b6104c26108f5610f55565b848484610900610909565b93929190611de2565b60008061045160017fddf3ee18ae6d688373c219468f8be446e7ae82215f4779d821c7ea5e8c13c0c16133e5565b6107237f80ac58cd000000000000000000000000000000000000000000000000000000006001610965610a4c565b9190610a7a565b60008061045160017fc9ed16f33ab3a66c84bfd83099ccb2a8845871e2e1c1928f63797152f0fd54cd6133e5565b73ffffffffffffffffffffffffffffffffffffffff811615610a225781547fffffffffffffffffffffffff00000000000000000000000000000000000000001673ffffffffffffffffffffffffffffffffffffffff821690811783556040516000907f8be0079c531659141344cd1fd0a4f28419497f9722a3daafe3b4186f6b6457e0908290a35b61049f7f7f5828d00000000000000000000000000000000000000000000000000000000060016109655b60008061045160017fca9d3e17f264b0f3984e2634e94adb37fa3e6a8103f06aeae6fa59e21c769f5e6133e5565b7fffffffff000000000000000000000000000000000000000000000000000000008083169003610b0b576040517f08c379a000000000000000000000000000000000000000000000000000000000815260206004820152601f60248201527f496e74657266616365446574656374696f6e3a2077726f6e672076616c75650060448201526064015b60405180910390fd5b7fffffffff00000000000000000000000000000000000000000000000000000000919091166000908152602092909252604090912080547fffffffffffffffffffffffffffffffffffffffffffffffffffffffffffffff0016911515919091179055565b60008061045160017f5f5773833f4966721eb3773ed87c7208ea74d78f0d94de1d8074345cac67333f6133e5565b610bd2610bcb60017fdf2ee7965c9504dc84db8f7759fc283282800c5a2fa3704c9f07f446b3b40a3f6133e5565b6001610c27565b610be68383610bdf610c97565b9190610cc5565b8051610bf89085906020840190612c7c565b506107027f5b5e139f000000000000000000000000000000000000000000000000000000006001610965610a4c565b815482908211610c93576040517f08c379a000000000000000000000000000000000000000000000000000000000815260206004820152601860248201527f53746f726167653a2076657273696f6e207265616368656400000000000000006044820152606401610b02565b5550565b60008061045160017f9c4269c0f9f430d98876ffe9767fbf3f3232ea91a549beb549e5329532520eb36133e5565b610cf3610bcb60017fa057eeb6560fae2987973d3bf40b89e6da66dd0b6aadac05dc6b5b0d7a8d45576133e5565b8151610d059084906020850190612c7c565b5080516107029060018501906020840190612c7c565b90565b60007fffffffff000000000000000000000000000000000000000000000000000000008083169003610d5257506000610451565b7ffe003659000000000000000000000000000000000000000000000000000000007fffffffff00000000000000000000000000000000000000000000000000000000831601610da357506001610451565b507fffffffff00000000000000000000000000000000000000000000000000000000166000908152602091909152604090205460ff1690565b6060816000018054610ded906133fc565b80601f0160208091040260200160405190810160405280929190818152602001828054610e19906133fc565b8015610e665780601f10610e3b57610100808354040283529160200191610e66565b820191906000526020600020905b815481529060010190602001808311610e4957829003601f168201915b50505050509050919050565b600081815260018301602052604081205473ffffffffffffffffffffffffffffffffffffffff8116610f00576040517f08c379a000000000000000000000000000000000000000000000000000000000815260206004820152601860248201527f4552433732313a206e6f6e2d6578697374696e67204e465400000000000000006044820152606401610b02565b74010000000000000000000000000000000000000000811615610f4b575050600081815260038301602052604090205473ffffffffffffffffffffffffffffffffffffffff16610451565b6000915050610451565b6000610469611f29565b600081815260018501602052604081205490819003610fda576040517f08c379a000000000000000000000000000000000000000000000000000000000815260206004820152601860248201527f4552433732313a206e6f6e2d6578697374696e67204e465400000000000000006044820152606401610b02565b8073ffffffffffffffffffffffffffffffffffffffff8082169085160361105d576040517f08c379a000000000000000000000000000000000000000000000000000000000815260206004820152601560248201527f4552433732313a2073656c662d617070726f76616c00000000000000000000006044820152606401610b02565b611068868287611f33565b6110ce576040517f08c379a000000000000000000000000000000000000000000000000000000000815260206004820152601b60248201527f4552433732313a206e6f6e2d617070726f7665642073656e64657200000000006044820152606401610b02565b73ffffffffffffffffffffffffffffffffffffffff84166111355774010000000000000000000000000000000000000000821615611130576000838152600187016020526040902073ffffffffffffffffffffffffffffffffffffffff821690555b6111b8565b74010000000000000000000000000000000000000000821780831461116857600084815260018801602052604090208190555b506000838152600387016020526040902080547fffffffffffffffffffffffff00000000000000000000000000000000000000001673ffffffffffffffffffffffffffffffffffffffff86161790555b828473ffffffffffffffffffffffffffffffffffffffff168273ffffffffffffffffffffffffffffffffffffffff167f8c5be1e5ebec7d5bd14f71427d1e84f3dd0314c0f7b2291e5b200ac8c7c3b92560405160405180910390a4505050505050565b61123a8585858585604051806020016040528060008152506000611fa7565b5050505050565b815473ffffffffffffffffffffffffffffffffffffffff82811691161461049f576040517f08c379a000000000000000000000000000000000000000000000000000000000815260206004820152601860248201527f4f776e6572736869703a206e6f7420746865206f776e657200000000000000006044820152606401610b02565b60008061045160017fc8827d3282af6f37b64c3e9e6f3ac9df286ab0bb0fccd6f8661bf19adb368b236133e5565b60008381526020858152604080832073ffffffffffffffffffffffffffffffffffffffff8616845290915290205460ff166107025760008381526020858152604080832073ffffffffffffffffffffffffffffffffffffffff8681168086529184529382902080547fffffffffffffffffffffffffffffffffffffffffffffffffffffffffffffff00166001179055815187815292830152918316918101919091527f2f8788117e7eff1d82e926ec794901d17c78024a50270940304540a733656f0d906060015b60405180910390a150505050565b3660006105066120dd565b60008281526020848152604080832073ffffffffffffffffffffffffffffffffffffffff8516845290915290205460ff166104c257611411826120e8565b6040516020016114219190613465565b604080517fffffffffffffffffffffffffffffffffffffffffffffffffffffffffffffffe0818403018152908290527f08c379a0000000000000000000000000000000000000000000000000000000008252610b0291600401612e68565b73ffffffffffffffffffffffffffffffffffffffff84166114fc576040517f08c379a000000000000000000000000000000000000000000000000000000000815260206004820152601460248201527f4552433732313a206d696e7420746f207a65726f0000000000000000000000006044820152606401610b02565b6115098685856000612272565b604051839073ffffffffffffffffffffffffffffffffffffffff8616906000907fddf252ad1be2c89b69c2b068fc378daa952ba7f163c4a11628f55a4df523b3ef908290a4808015611571575073ffffffffffffffffffffffffffffffffffffffff84163b15155b156115845761158485600086868661234b565b505050505050565b61123a8585858585604051806020016040528060008152506001611fa7565b73ffffffffffffffffffffffffffffffffffffffff8216611628576040517f08c379a000000000000000000000000000000000000000000000000000000000815260206004820152601460248201527f4552433732313a206d696e7420746f207a65726f0000000000000000000000006044820152606401610b02565b805160005b8181146116ad576000838281518110611648576116486134d1565b6020026020010151905061165f8686836001612272565b604051819073ffffffffffffffffffffffffffffffffffffffff8716906000907fddf252ad1be2c89b69c2b068fc378daa952ba7f163c4a11628f55a4df523b3ef908290a45060010161162d565b5073ffffffffffffffffffffffffffffffffffffffff83166000908152600285016020526040812080548392906116e5908490613500565b909155505050505050565b600081815260018301602052604081205473ffffffffffffffffffffffffffffffffffffffff8116610791576040517f08c379a000000000000000000000000000000000000000000000000000000000815260206004820152601860248201527f4552433732313a206e6f6e2d6578697374696e67204e465400000000000000006044820152606401610b02565b600073ffffffffffffffffffffffffffffffffffffffff82166117fd576040517f08c379a000000000000000000000000000000000000000000000000000000000815260206004820152601460248201527f4552433732313a207a65726f20616464726573730000000000000000000000006044820152606401610b02565b5073ffffffffffffffffffffffffffffffffffffffff166000908152600291909101602052604090205490565b6000611837858486611f33565b905061184885858585856000612471565b604051829060009073ffffffffffffffffffffffffffffffffffffffff8616907fddf252ad1be2c89b69c2b068fc378daa952ba7f163c4a11628f55a4df523b3ef908390a45050505050565b61189f838383612d00565b5081816040516118b0929190613518565b604051908190038120907f04b1dc5c136a3ce9fded8db0ce3d3366c58764ec3a8e4c2b9e52e4ddfe5ebbf790600090a2505050565b6118f08382846113d3565b60008181526020848152604080832073ffffffffffffffffffffffffffffffffffffffff86168085529083529281902080547fffffffffffffffffffffffffffffffffffffffffffffffffffffffffffffff0016905580518481529182018390528101919091527ff6391f5c32d9c69d2a47ea670b442974b53935d1edc7fd64eb21e047a839171b9060600160405180910390a1505050565b6060816001018054610ded906133fc565b8273ffffffffffffffffffffffffffffffffffffffff168273ffffffffffffffffffffffffffffffffffffffff1603611a2f576040517f08c379a000000000000000000000000000000000000000000000000000000000815260206004820152601560248201527f4552433732313a2073656c662d617070726f76616c00000000000000000000006044820152606401610b02565b73ffffffffffffffffffffffffffffffffffffffff8381166000818152602087815260408083209487168084529482529182902080547fffffffffffffffffffffffffffffffffffffffffffffffffffffffffffffff001686151590811790915591519182527f17307eab39ab6107e8899845ad3d59bd9653f200f220920489ca2b5937696c31910160405180910390a350505050565b6115848686868686866001611fa7565b606082611ae28361264a565b604051602001611af3929190613528565b604051602081830303815290604052905092915050565b60008381526020858152604080832073ffffffffffffffffffffffffffffffffffffffff8616845290915290205460ff16156107025760008381526020858152604080832073ffffffffffffffffffffffffffffffffffffffff8681168086529184529382902080547fffffffffffffffffffffffffffffffffffffffffffffffffffffffffffffff00169055815187815292830152918316918101919091527ff6391f5c32d9c69d2a47ea670b442974b53935d1edc7fd64eb21e047a839171b906060016113ba565b6000611be1858486611f33565b825190915060005b818114611c6b576000848281518110611c0457611c046134d1565b60200260200101519050611c1d88888884886001612471565b604051819060009073ffffffffffffffffffffffffffffffffffffffff8916907fddf252ad1be2c89b69c2b068fc378daa952ba7f163c4a11628f55a4df523b3ef908390a450600101611be9565b5080156115845773ffffffffffffffffffffffffffffffffffffffff8416600090815260028701602052604081208054839290611ca99084906133e5565b9091555050505050505050565b825473ffffffffffffffffffffffffffffffffffffffff9081169083168114611d3b576040517f08c379a000000000000000000000000000000000000000000000000000000000815260206004820152601860248201527f4f776e6572736869703a206e6f7420746865206f776e657200000000000000006044820152606401610b02565b8173ffffffffffffffffffffffffffffffffffffffff168173ffffffffffffffffffffffffffffffffffffffff16146107025783547fffffffffffffffffffffffff00000000000000000000000000000000000000001673ffffffffffffffffffffffffffffffffffffffff8381169182178655604051908316907f8be0079c531659141344cd1fd0a4f28419497f9722a3daafe3b4186f6b6457e090600090a350505050565b73ffffffffffffffffffffffffffffffffffffffff8216611e5f576040517f08c379a000000000000000000000000000000000000000000000000000000000815260206004820152601860248201527f4552433732313a207472616e7366657220746f207a65726f00000000000000006044820152606401610b02565b6000611e6c868587611f33565b825190915060005b818114611f0d576000848281518110611e8f57611e8f6134d1565b60200260200101519050611ea98989898985896001612775565b808673ffffffffffffffffffffffffffffffffffffffff168873ffffffffffffffffffffffffffffffffffffffff167fddf252ad1be2c89b69c2b068fc378daa952ba7f163c4a11628f55a4df523b3ef60405160405180910390a450600101611e74565b508015611f2057611f20878686846128f8565b50505050505050565b600061046961296d565b60008173ffffffffffffffffffffffffffffffffffffffff168373ffffffffffffffffffffffffffffffffffffffff161480611f9f575073ffffffffffffffffffffffffffffffffffffffff8084166000908152602086815260408083209386168352929052205460ff165b949350505050565b73ffffffffffffffffffffffffffffffffffffffff8416612024576040517f08c379a000000000000000000000000000000000000000000000000000000000815260206004820152601860248201527f4552433732313a207472616e7366657220746f207a65726f00000000000000006044820152606401610b02565b6000612031888789611f33565b90506120438888888888866000612775565b838573ffffffffffffffffffffffffffffffffffffffff168773ffffffffffffffffffffffffffffffffffffffff167fddf252ad1be2c89b69c2b068fc378daa952ba7f163c4a11628f55a4df523b3ef60405160405180910390a48180156120c1575073ffffffffffffffffffffffffffffffffffffffff85163b15155b156120d3576120d3878787878761234b565b5050505050505050565b366000610506612977565b6060600082900361210757505060408051602081019091526000815290565b60008260405160200161211c91815260200190565b604080517fffffffffffffffffffffffffffffffffffffffffffffffffffffffffffffffe08184030181529190529050601f5b818181518110612161576121616134d1565b01602001517fff000000000000000000000000000000000000000000000000000000000000001660000361219f5761219881613605565b905061214f565b60006121ac826001613500565b67ffffffffffffffff8111156121c4576121c4613167565b6040519080825280601f01601f1916602001820160405280156121ee576020820181803683370190505b50905060005b8281116122695783818151811061220d5761220d6134d1565b602001015160f81c60f81b82828151811061222a5761222a6134d1565b60200101907effffffffffffffffffffffffffffffffffffffffffffffffffffffffffffff1916908160001a9053506122628161363a565b90506121f4565b50949350505050565b6000828152600185016020526040902054156122ea576040517f08c379a000000000000000000000000000000000000000000000000000000000815260206004820152601a60248201527f4552433732313a206578697374696e672f6275726e74204e46540000000000006044820152606401610b02565b6000828152600185016020526040902073ffffffffffffffffffffffffffffffffffffffff841690558061070257505073ffffffffffffffffffffffffffffffffffffffff1660009081526002919091016020526040902080546001019055565b6040517f150b7a02000000000000000000000000000000000000000000000000000000008082529073ffffffffffffffffffffffffffffffffffffffff85169063150b7a02906123a5908990899088908890600401613672565b6020604051808303816000875af11580156123c4573d6000803e3d6000fd5b505050506040513d601f19601f820116820180604052508101906123e891906136bb565b7fffffffff00000000000000000000000000000000000000000000000000000000161461123a576040517f08c379a000000000000000000000000000000000000000000000000000000000815260206004820152601860248201527f4552433732313a207472616e73666572207265667573656400000000000000006044820152606401610b02565b600083815260018701602052604090205473ffffffffffffffffffffffffffffffffffffffff85811690821614612504576040517f08c379a000000000000000000000000000000000000000000000000000000000815260206004820152601560248201527f4552433732313a206e6f6e2d6f776e6564204e465400000000000000000000006044820152606401610b02565b826125bd57740100000000000000000000000000000000000000008116158015906125575750600084815260038801602052604090205473ffffffffffffffffffffffffffffffffffffffff8781169116145b6125bd576040517f08c379a000000000000000000000000000000000000000000000000000000000815260206004820152601b60248201527f4552433732313a206e6f6e2d617070726f7665642073656e64657200000000006044820152606401610b02565b600084815260018801602052604090207fdead000000000000000000000000000000000000000000000000000000000000905581611f20575050505073ffffffffffffffffffffffffffffffffffffffff166000908152600292909201602052506040902080547fffffffffffffffffffffffffffffffffffffffffffffffffffffffffffffffff019055565b60608160000361268d57505060408051808201909152600181527f3000000000000000000000000000000000000000000000000000000000000000602082015290565b8160005b81156126b757806126a18161363a565b91506126b09050600a836136d8565b9150612691565b60008167ffffffffffffffff8111156126d2576126d2613167565b6040519080825280601f01601f1916602001820160405280156126fc576020820181803683370190505b509050600061270c6001846133e5565b90508593505b831561226957600a840660300160f81b8282806001900393508151811061273b5761273b6134d1565b60200101907effffffffffffffffffffffffffffffffffffffffffffffffffffffffffffff1916908160001a905350600a84049350612712565b600083815260018801602052604090205473ffffffffffffffffffffffffffffffffffffffff86811690821614612808576040517f08c379a000000000000000000000000000000000000000000000000000000000815260206004820152601560248201527f4552433732313a206e6f6e2d6f776e6564204e465400000000000000000000006044820152606401610b02565b826128c1577401000000000000000000000000000000000000000081161580159061285b5750600084815260038901602052604090205473ffffffffffffffffffffffffffffffffffffffff8881169116145b6128c1576040517f08c379a000000000000000000000000000000000000000000000000000000000815260206004820152601b60248201527f4552433732313a206e6f6e2d617070726f7665642073656e64657200000000006044820152606401610b02565b6000848152600189016020526040902073ffffffffffffffffffffffffffffffffffffffff86169055816120d3576120d388878760015b8173ffffffffffffffffffffffffffffffffffffffff168373ffffffffffffffffffffffffffffffffffffffff16146107025773ffffffffffffffffffffffffffffffffffffffff80841660009081526002860160205260408082208054859003905591841681522080548201905550505050565b6000610469612982565b366000610506612ada565b60003332810361299157919050565b6000367fffffffffffffffffffffffffffffffffffffffffffffffffffffffffffffffec013560601c90507f000000000000000000000000000000000000000000000000000000000000000073ffffffffffffffffffffffffffffffffffffffff168273ffffffffffffffffffffffffffffffffffffffff161480612ac957506040517fe60125d600000000000000000000000000000000000000000000000000000000815273ffffffffffffffffffffffffffffffffffffffff828116600483015283811660248301527f0000000000000000000000000000000000000000000000000000000000000000169063e60125d690604401602060405180830381865afa158015612aa5573d6000803e3d6000fd5b505050506040513d601f19601f82011682018060405250810190612ac99190613713565b15612ad45792915050565b50919050565b36600033328103612af057506000923692509050565b7f000000000000000000000000000000000000000000000000000000000000000073ffffffffffffffffffffffffffffffffffffffff168173ffffffffffffffffffffffffffffffffffffffff161480612c3d575073ffffffffffffffffffffffffffffffffffffffff7f00000000000000000000000000000000000000000000000000000000000000001663e60125d6367fffffffffffffffffffffffffffffffffffffffffffffffffffffffffffffffec013560601c6040517fffffffff0000000000000000000000000000000000000000000000000000000060e084901b16815273ffffffffffffffffffffffffffffffffffffffff91821660048201529084166024820152604401602060405180830381865afa158015612c19573d6000803e3d6000fd5b505050506040513d601f19601f82011682018060405250810190612c3d9190613713565b15612c5357612c4a612c5e565b92509250509091565b506000923692509050565b366000808083612c6f6014826133e5565b9261050693929190613730565b828054612c88906133fc565b90600052602060002090601f016020900481019282612caa5760008555612cf0565b82601f10612cc357805160ff1916838001178555612cf0565b82800160010185558215612cf0579182015b82811115612cf0578251825591602001919060010190612cd5565b50612cfc929150612d92565b5090565b828054612d0c906133fc565b90600052602060002090601f016020900481019282612d2e5760008555612cf0565b82601f10612d65578280017fffffffffffffffffffffffffffffffffffffffffffffffffffffffffffffff00823516178555612cf0565b82800160010185558215612cf0579182015b82811115612cf0578235825591602001919060010190612d77565b5b80821115612cfc5760008155600101612d93565b7fffffffff000000000000000000000000000000000000000000000000000000008116811461072357600080fd5b600060208284031215612de757600080fd5b813561079181612da7565b60005b83811015612e0d578181015183820152602001612df5565b838111156107025750506000910152565b60008151808452612e36816020860160208601612df2565b601f017fffffffffffffffffffffffffffffffffffffffffffffffffffffffffffffffe0169290920160200192915050565b6020815260006107916020830184612e1e565b600060208284031215612e8d57600080fd5b5035919050565b803573ffffffffffffffffffffffffffffffffffffffff81168114612eb857600080fd5b919050565b60008060408385031215612ed057600080fd5b612ed983612e94565b946020939093013593505050565b600080600060608486031215612efc57600080fd5b612f0584612e94565b9250612f1360208501612e94565b9150604084013590509250925092565b60008060408385031215612f3657600080fd5b82359150612f4660208401612e94565b90509250929050565b60208152816020820152818360408301376000818301604090810191909152601f9092017fffffffffffffffffffffffffffffffffffffffffffffffffffffffffffffffe0160101919050565b600080600060408486031215612fb157600080fd5b612fba84612e94565b9250602084013567ffffffffffffffff80821115612fd757600080fd5b818601915086601f830112612feb57600080fd5b813581811115612ffa57600080fd5b8760208260051b850101111561300f57600080fd5b6020830194508093505050509250925092565b60006020828403121561303457600080fd5b61079182612e94565b60008083601f84011261304f57600080fd5b50813567ffffffffffffffff81111561306757600080fd5b60208301915083602082850101111561307f57600080fd5b9250929050565b6000806020838503121561309957600080fd5b823567ffffffffffffffff8111156130b057600080fd5b6130bc8582860161303d565b90969095509350505050565b600080600080606085870312156130de57600080fd5b6130e785612e94565b935060208501359250604085013567ffffffffffffffff81111561310a57600080fd5b6131168782880161303d565b95989497509550505050565b801515811461072357600080fd5b6000806040838503121561314357600080fd5b61314c83612e94565b9150602083013561315c81613122565b809150509250929050565b7f4e487b7100000000000000000000000000000000000000000000000000000000600052604160045260246000fd5b604051601f82017fffffffffffffffffffffffffffffffffffffffffffffffffffffffffffffffe016810167ffffffffffffffff811182821017156131dd576131dd613167565b604052919050565b600080600080608085870312156131fb57600080fd5b61320485612e94565b93506020613213818701612e94565b935060408601359250606086013567ffffffffffffffff8082111561323757600080fd5b818801915088601f83011261324b57600080fd5b81358181111561325d5761325d613167565b61328d847fffffffffffffffffffffffffffffffffffffffffffffffffffffffffffffffe0601f84011601613196565b915080825289848285010111156132a357600080fd5b808484018584013760008482840101525080935050505092959194509250565b600080604083850312156132d657600080fd5b6132df83612e94565b9150612f4660208401612e94565b60008060006060848603121561330257600080fd5b61330b84612e94565b9250602061331a818601612e94565b9250604085013567ffffffffffffffff8082111561333757600080fd5b818701915087601f83011261334b57600080fd5b81358181111561335d5761335d613167565b8060051b915061336e848301613196565b818152918301840191848101908a84111561338857600080fd5b938501935b838510156133a65784358252938501939085019061338d565b8096505050505050509250925092565b7f4e487b7100000000000000000000000000000000000000000000000000000000600052601160045260246000fd5b6000828210156133f7576133f76133b6565b500390565b600181811c9082168061341057607f821691505b602082108103612ad4577f4e487b7100000000000000000000000000000000000000000000000000000000600052602260045260246000fd5b6000815161345b818560208601612df2565b9290920192915050565b7f416363657373436f6e74726f6c3a206d697373696e672027000000000000000081526000825161349d816018850160208701612df2565b7f2720726f6c6500000000000000000000000000000000000000000000000000006018939091019283015250601e01919050565b7f4e487b7100000000000000000000000000000000000000000000000000000000600052603260045260246000fd5b60008219821115613513576135136133b6565b500190565b8183823760009101908152919050565b600080845481600182811c91508083168061354457607f831692505b6020808410820361357c577f4e487b710000000000000000000000000000000000000000000000000000000086526022600452602486fd5b81801561359057600181146135bf576135ec565b7fffffffffffffffffffffffffffffffffffffffffffffffffffffffffffffff008616895284890196506135ec565b60008b81526020902060005b868110156135e45781548b8201529085019083016135cb565b505084890196505b5050505050506135fc8185613449565b95945050505050565b600081613614576136146133b6565b507fffffffffffffffffffffffffffffffffffffffffffffffffffffffffffffffff0190565b60007fffffffffffffffffffffffffffffffffffffffffffffffffffffffffffffffff820361366b5761366b6133b6565b5060010190565b600073ffffffffffffffffffffffffffffffffffffffff8087168352808616602084015250836040830152608060608301526136b16080830184612e1e565b9695505050505050565b6000602082840312156136cd57600080fd5b815161079181612da7565b60008261370e577f4e487b7100000000000000000000000000000000000000000000000000000000600052601260045260246000fd5b500490565b60006020828403121561372557600080fd5b815161079181613122565b6000808585111561374057600080fd5b8386111561374d57600080fd5b505082019391909203915056fea2646970667358221220b8268d2702139331df7214d1954f13b0c0a36fa3ebcc15c8b23d819e1bfc5ad164736f6c634300080e0033",
  "linkReferences": {},
  "deployedLinkReferences": {}
}