{
  "_format": "hh-sol-artifact-1",
  "contractName": "ERC721BurnableMock",
  "sourceName": "contracts/mocks/token/ERC721/ERC721BurnableMock.sol",
  "abi": [
    {
      "inputs": [
        {
          "internalType": "string",
          "name": "name_",
          "type": "string"
        },
        {
          "internalType": "string",
          "name": "symbol_",
          "type": "string"
        },
        {
          "internalType": "string",
          "name": "tokenURI_",
          "type": "string"
        },
        {
          "internalType": "contract IForwarderRegistry",
          "name": "forwarderRegistry",
          "type": "address"
        }
      ],
      "stateMutability": "nonpayable",
      "type": "constructor"
    },
    {
      "anonymous": false,
      "inputs": [
        {
          "indexed": true,
          "internalType": "address",
          "name": "owner",
          "type": "address"
        },
        {
          "indexed": true,
          "internalType": "address",
          "name": "approved",
          "type": "address"
        },
        {
          "indexed": true,
          "internalType": "uint256",
          "name": "tokenId",
          "type": "uint256"
        }
      ],
      "name": "Approval",
      "type": "event"
    },
    {
      "anonymous": false,
      "inputs": [
        {
          "indexed": true,
          "internalType": "address",
          "name": "owner",
          "type": "address"
        },
        {
          "indexed": true,
          "internalType": "address",
          "name": "operator",
          "type": "address"
        },
        {
          "indexed": false,
          "internalType": "bool",
          "name": "approved",
          "type": "bool"
        }
      ],
      "name": "ApprovalForAll",
      "type": "event"
    },
    {
      "anonymous": false,
      "inputs": [
        {
          "indexed": false,
          "internalType": "string",
          "name": "baseMetadataURI",
          "type": "string"
        }
      ],
      "name": "BaseMetadataURISet",
      "type": "event"
    },
    {
      "anonymous": false,
      "inputs": [
        {
          "indexed": true,
          "internalType": "address",
          "name": "previousOwner",
          "type": "address"
        },
        {
          "indexed": true,
          "internalType": "address",
          "name": "newOwner",
          "type": "address"
        }
      ],
      "name": "OwnershipTransferred",
      "type": "event"
    },
    {
      "anonymous": false,
      "inputs": [
        {
          "indexed": false,
          "internalType": "bytes32",
          "name": "role",
          "type": "bytes32"
        },
        {
          "indexed": false,
          "internalType": "address",
          "name": "account",
          "type": "address"
        },
        {
          "indexed": false,
          "internalType": "address",
          "name": "operator",
          "type": "address"
        }
      ],
      "name": "RoleGranted",
      "type": "event"
    },
    {
      "anonymous": false,
      "inputs": [
        {
          "indexed": false,
          "internalType": "bytes32",
          "name": "role",
          "type": "bytes32"
        },
        {
          "indexed": false,
          "internalType": "address",
          "name": "account",
          "type": "address"
        },
        {
          "indexed": false,
          "internalType": "address",
          "name": "operator",
          "type": "address"
        }
      ],
      "name": "RoleRevoked",
      "type": "event"
    },
    {
      "anonymous": false,
      "inputs": [
        {
          "indexed": true,
          "internalType": "address",
          "name": "from",
          "type": "address"
        },
        {
          "indexed": true,
          "internalType": "address",
          "name": "to",
          "type": "address"
        },
        {
          "indexed": true,
          "internalType": "uint256",
          "name": "tokenId",
          "type": "uint256"
        }
      ],
      "name": "Transfer",
      "type": "event"
    },
    {
      "inputs": [],
      "name": "MINTER_ROLE",
      "outputs": [
        {
          "internalType": "bytes32",
          "name": "",
          "type": "bytes32"
        }
      ],
      "stateMutability": "view",
      "type": "function"
    },
    {
      "inputs": [],
      "name": "__msgData",
      "outputs": [
        {
          "internalType": "bytes",
          "name": "",
          "type": "bytes"
        }
      ],
      "stateMutability": "view",
      "type": "function"
    },
    {
      "inputs": [
        {
          "internalType": "address",
          "name": "to",
          "type": "address"
        },
        {
          "internalType": "uint256",
          "name": "tokenId",
          "type": "uint256"
        }
      ],
      "name": "approve",
      "outputs": [],
      "stateMutability": "nonpayable",
      "type": "function"
    },
    {
      "inputs": [
        {
          "internalType": "address",
          "name": "owner",
          "type": "address"
        }
      ],
      "name": "balanceOf",
      "outputs": [
        {
          "internalType": "uint256",
          "name": "balance",
          "type": "uint256"
        }
      ],
      "stateMutability": "view",
      "type": "function"
    },
    {
      "inputs": [],
      "name": "baseMetadataURI",
      "outputs": [
        {
          "internalType": "string",
          "name": "baseURI",
          "type": "string"
        }
      ],
      "stateMutability": "view",
      "type": "function"
    },
    {
      "inputs": [
        {
          "internalType": "address",
          "name": "from",
          "type": "address"
        },
        {
          "internalType": "uint256[]",
          "name": "tokenIds",
          "type": "uint256[]"
        }
      ],
      "name": "batchBurnFrom",
      "outputs": [],
      "stateMutability": "nonpayable",
      "type": "function"
    },
    {
      "inputs": [
        {
          "internalType": "address",
          "name": "to",
          "type": "address"
        },
        {
          "internalType": "uint256[]",
          "name": "tokenIds",
          "type": "uint256[]"
        }
      ],
      "name": "batchMint",
      "outputs": [],
      "stateMutability": "nonpayable",
      "type": "function"
    },
    {
      "inputs": [
        {
          "internalType": "address",
          "name": "from",
          "type": "address"
        },
        {
          "internalType": "address",
          "name": "to",
          "type": "address"
        },
        {
          "internalType": "uint256[]",
          "name": "tokenIds",
          "type": "uint256[]"
        }
      ],
      "name": "batchTransferFrom",
      "outputs": [],
      "stateMutability": "nonpayable",
      "type": "function"
    },
    {
      "inputs": [
        {
          "internalType": "address",
          "name": "from",
          "type": "address"
        },
        {
          "internalType": "uint256",
          "name": "tokenId",
          "type": "uint256"
        }
      ],
      "name": "burnFrom",
      "outputs": [],
      "stateMutability": "nonpayable",
      "type": "function"
    },
    {
      "inputs": [
        {
          "internalType": "address[]",
          "name": "recipients",
          "type": "address[]"
        },
        {
          "internalType": "uint256[]",
          "name": "tokenIds",
          "type": "uint256[]"
        }
      ],
      "name": "deliver",
      "outputs": [],
      "stateMutability": "nonpayable",
      "type": "function"
    },
    {
      "inputs": [],
      "name": "forwarderRegistry",
      "outputs": [
        {
          "internalType": "contract IForwarderRegistry",
          "name": "",
          "type": "address"
        }
      ],
      "stateMutability": "view",
      "type": "function"
    },
    {
      "inputs": [
        {
          "internalType": "uint256",
          "name": "tokenId",
          "type": "uint256"
        }
      ],
      "name": "getApproved",
      "outputs": [
        {
          "internalType": "address",
          "name": "approved",
          "type": "address"
        }
      ],
      "stateMutability": "view",
      "type": "function"
    },
    {
      "inputs": [
        {
          "internalType": "bytes32",
          "name": "role",
          "type": "bytes32"
        },
        {
          "internalType": "address",
          "name": "account",
          "type": "address"
        }
      ],
      "name": "grantRole",
      "outputs": [],
      "stateMutability": "nonpayable",
      "type": "function"
    },
    {
      "inputs": [
        {
          "internalType": "bytes32",
          "name": "role",
          "type": "bytes32"
        },
        {
          "internalType": "address",
          "name": "account",
          "type": "address"
        }
      ],
      "name": "hasRole",
      "outputs": [
        {
          "internalType": "bool",
          "name": "",
          "type": "bool"
        }
      ],
      "stateMutability": "view",
      "type": "function"
    },
    {
      "inputs": [
        {
          "internalType": "address",
          "name": "owner",
          "type": "address"
        },
        {
          "internalType": "address",
          "name": "operator",
          "type": "address"
        }
      ],
      "name": "isApprovedForAll",
      "outputs": [
        {
          "internalType": "bool",
          "name": "approvedForAll",
          "type": "bool"
        }
      ],
      "stateMutability": "view",
      "type": "function"
    },
    {
      "inputs": [
        {
          "internalType": "address",
          "name": "forwarder",
          "type": "address"
        }
      ],
      "name": "isTrustedForwarder",
      "outputs": [
        {
          "internalType": "bool",
          "name": "",
          "type": "bool"
        }
      ],
      "stateMutability": "view",
      "type": "function"
    },
    {
      "inputs": [
        {
          "internalType": "address",
          "name": "to",
          "type": "address"
        },
        {
          "internalType": "uint256",
          "name": "tokenId",
          "type": "uint256"
        }
      ],
      "name": "mint",
      "outputs": [],
      "stateMutability": "nonpayable",
      "type": "function"
    },
    {
      "inputs": [],
      "name": "name",
      "outputs": [
        {
          "internalType": "string",
          "name": "tokenName",
          "type": "string"
        }
      ],
      "stateMutability": "view",
      "type": "function"
    },
    {
      "inputs": [],
      "name": "owner",
      "outputs": [
        {
          "internalType": "address",
          "name": "",
          "type": "address"
        }
      ],
      "stateMutability": "view",
      "type": "function"
    },
    {
      "inputs": [
        {
          "internalType": "uint256",
          "name": "tokenId",
          "type": "uint256"
        }
      ],
      "name": "ownerOf",
      "outputs": [
        {
          "internalType": "address",
          "name": "tokenOwner",
          "type": "address"
        }
      ],
      "stateMutability": "view",
      "type": "function"
    },
    {
      "inputs": [
        {
          "internalType": "bytes32",
          "name": "role",
          "type": "bytes32"
        }
      ],
      "name": "renounceRole",
      "outputs": [],
      "stateMutability": "nonpayable",
      "type": "function"
    },
    {
      "inputs": [
        {
          "internalType": "bytes32",
          "name": "role",
          "type": "bytes32"
        },
        {
          "internalType": "address",
          "name": "account",
          "type": "address"
        }
      ],
      "name": "revokeRole",
      "outputs": [],
      "stateMutability": "nonpayable",
      "type": "function"
    },
    {
      "inputs": [
        {
          "internalType": "address",
          "name": "to",
          "type": "address"
        },
        {
          "internalType": "uint256",
          "name": "tokenId",
          "type": "uint256"
        },
        {
          "internalType": "bytes",
          "name": "data",
          "type": "bytes"
        }
      ],
      "name": "safeMint",
      "outputs": [],
      "stateMutability": "nonpayable",
      "type": "function"
    },
    {
      "inputs": [
        {
          "internalType": "address",
          "name": "from",
          "type": "address"
        },
        {
          "internalType": "address",
          "name": "to",
          "type": "address"
        },
        {
          "internalType": "uint256",
          "name": "tokenId",
          "type": "uint256"
        }
      ],
      "name": "safeTransferFrom",
      "outputs": [],
      "stateMutability": "nonpayable",
      "type": "function"
    },
    {
      "inputs": [
        {
          "internalType": "address",
          "name": "from",
          "type": "address"
        },
        {
          "internalType": "address",
          "name": "to",
          "type": "address"
        },
        {
          "internalType": "uint256",
          "name": "tokenId",
          "type": "uint256"
        },
        {
          "internalType": "bytes",
          "name": "data",
          "type": "bytes"
        }
      ],
      "name": "safeTransferFrom",
      "outputs": [],
      "stateMutability": "nonpayable",
      "type": "function"
    },
    {
      "inputs": [
        {
          "internalType": "address",
          "name": "operator",
          "type": "address"
        },
        {
          "internalType": "bool",
          "name": "approved",
          "type": "bool"
        }
      ],
      "name": "setApprovalForAll",
      "outputs": [],
      "stateMutability": "nonpayable",
      "type": "function"
    },
    {
      "inputs": [
        {
          "internalType": "string",
          "name": "baseURI",
          "type": "string"
        }
      ],
      "name": "setBaseMetadataURI",
      "outputs": [],
      "stateMutability": "nonpayable",
      "type": "function"
    },
    {
      "inputs": [
        {
          "internalType": "bytes4",
          "name": "interfaceId",
          "type": "bytes4"
        }
      ],
      "name": "supportsInterface",
      "outputs": [
        {
          "internalType": "bool",
          "name": "",
          "type": "bool"
        }
      ],
      "stateMutability": "view",
      "type": "function"
    },
    {
      "inputs": [],
      "name": "symbol",
      "outputs": [
        {
          "internalType": "string",
          "name": "tokenSymbol",
          "type": "string"
        }
      ],
      "stateMutability": "view",
      "type": "function"
    },
    {
      "inputs": [
        {
          "internalType": "uint256",
          "name": "tokenId",
          "type": "uint256"
        }
      ],
      "name": "tokenURI",
      "outputs": [
        {
          "internalType": "string",
          "name": "uri",
          "type": "string"
        }
      ],
      "stateMutability": "view",
      "type": "function"
    },
    {
      "inputs": [
        {
          "internalType": "address",
          "name": "from",
          "type": "address"
        },
        {
          "internalType": "address",
          "name": "to",
          "type": "address"
        },
        {
          "internalType": "uint256",
          "name": "tokenId",
          "type": "uint256"
        }
      ],
      "name": "transferFrom",
      "outputs": [],
      "stateMutability": "nonpayable",
      "type": "function"
    },
    {
      "inputs": [
        {
          "internalType": "address",
          "name": "newOwner",
          "type": "address"
        }
      ],
      "name": "transferOwnership",
      "outputs": [],
      "stateMutability": "nonpayable",
      "type": "function"
    }
  ],
  "bytecode": "0x60a06040523480156200001157600080fd5b506040516200465738038062004657833981016040819052620000349162000631565b8383838383838383808033620000546200015660201b62000aeb1760201c565b62000082816200006e6200019060201b62000b221760201c565b620001c660201b62000b501790919060201c565b50620000986200024460201b62000c061760201c565b6001600160a01b031660805250620000bd905062000267602090811b62000c3417901c565b620000d26200028a60201b62000c621760201c565b620001028383620000ed620002ad60201b62000c901760201c565b620002dd60201b62000cbe179092919060201c565b62000130816200011c6200033260201b62000d151760201c565b6200036260201b62000d431790919060201c565b505050505050506200014c6200037c60201b62000d4d1760201c565b505050506200077b565b6200018e6380ac58cd60e01b6001620001796200039f60201b62000d771760201c565b620003cf60201b62000da5179092919060201c565b565b600080620001c060017fc9ed16f33ab3a66c84bfd83099ccb2a8845871e2e1c1928f63797152f0fd54cd620006e4565b92915050565b6001600160a01b038116156200021d5781546001600160a01b0319166001600160a01b03821690811783556040516000907f8be0079c531659141344cd1fd0a4f28419497f9722a3daafe3b4186f6b6457e0908290a35b620002406307f5828d60e41b6001620001796200039f60201b62000d771760201c565b5050565b6200018e638e773e1360e01b6001620001796200039f60201b62000d771760201c565b6200018e634ed2f41960e11b6001620001796200039f60201b62000d771760201c565b6200018e63f3993d1160e01b6001620001796200039f60201b62000d771760201c565b600080620001c060017f9c4269c0f9f430d98876ffe9767fbf3f3232ea91a549beb549e5329532520eb3620006e4565b8151620002f19084906020850190620004b1565b508051620003099060018501906020840190620004b1565b506200032d635b5e139f60e01b6001620001796200039f60201b62000d771760201c565b505050565b600080620001c060017fe94434e3c6b941c5d90218142fadcc69cb2e13723993540bfa1c131dd1d3475a620006e4565b6200024081836200045f60201b62000eb61790919060201c565b6200018e638b8b4ef560e01b6001620001796200039f60201b62000d771760201c565b600080620001c060017fca9d3e17f264b0f3984e2634e94adb37fa3e6a8103f06aeae6fa59e21c769f5e620006e4565b600160e01b6001600160e01b0319831601620004315760405162461bcd60e51b815260206004820152601f60248201527f496e74657266616365446574656374696f6e3a2077726f6e672076616c756500604482015260640160405180910390fd5b6001600160e01b03199190911660009081526020929092526040909120805460ff1916911515919091179055565b8051620004739083906020840190620004b1565b507f04b1dc5c136a3ce9fded8db0ce3d3366c58764ec3a8e4c2b9e52e4ddfe5ebbf781604051620004a591906200070a565b60405180910390a15050565b828054620004bf906200073f565b90600052602060002090601f016020900481019282620004e357600085556200052e565b82601f10620004fe57805160ff19168380011785556200052e565b828001600101855582156200052e579182015b828111156200052e57825182559160200191906001019062000511565b506200053c92915062000540565b5090565b5b808211156200053c576000815560010162000541565b634e487b7160e01b600052604160045260246000fd5b60005b838110156200058a57818101518382015260200162000570565b838111156200059a576000848401525b50505050565b600082601f830112620005b257600080fd5b81516001600160401b0380821115620005cf57620005cf62000557565b604051601f8301601f19908116603f01168101908282118183101715620005fa57620005fa62000557565b816040528381528660208588010111156200061457600080fd5b620006278460208301602089016200056d565b9695505050505050565b600080600080608085870312156200064857600080fd5b84516001600160401b03808211156200066057600080fd5b6200066e88838901620005a0565b955060208701519150808211156200068557600080fd5b6200069388838901620005a0565b94506040870151915080821115620006aa57600080fd5b50620006b987828801620005a0565b606087015190935090506001600160a01b0381168114620006d957600080fd5b939692955090935050565b6000828210156200070557634e487b7160e01b600052601160045260246000fd5b500390565b60208152600082518060208401526200072b8160408501602087016200056d565b601f01601f19169190910160400192915050565b600181811c908216806200075457607f821691505b6020821081036200077557634e487b7160e01b600052602260045260246000fd5b50919050565b608051613e9d620007ba600039600081816102940152818161032a01528181613246015281816132e60152818161337a01526133e40152613e9d6000f3fe608060405234801561001057600080fd5b50600436106101f05760003560e01c80637e518ec81161010f578063b88d4fde116100a2578063e985e9c511610071578063e985e9c514610498578063f2472965146104ab578063f2fde38b146104be578063f3993d11146104d157600080fd5b8063b88d4fde14610438578063c87b56dd1461044b578063d53913931461045e578063d547741f1461048557600080fd5b806391d14854116100de57806391d14854146103f757806395d89b411461040a5780639da5e83214610412578063a22cb4651461042557600080fd5b80637e518ec8146103b65780638832e6e3146103c95780638bb9c5bf146103dc5780638da5cb5b146103ef57600080fd5b806340c10f19116101875780635b2bd79e116101565780635b2bd79e146103675780636352211e1461036f57806370a082311461038257806379cc6790146103a357600080fd5b806340c10f19146102e157806342842e0e146102f45780634684d7e914610307578063572b6c051461031a57600080fd5b806323b872dd116101c357806323b872dd1461027f5780632b4c9f16146102925780632f2ff15d146102b857806331e66e1e146102cb57600080fd5b806301ffc9a7146101f557806306fdde031461021d578063081812fc14610232578063095ea7b31461026a575b600080fd5b6102086102033660046135cb565b6104e4565b60405190151581526020015b60405180910390f35b6102256104fe565b604051610214919061365e565b610245610240366004613671565b610515565b60405173ffffffffffffffffffffffffffffffffffffffff9091168152602001610214565b61027d6102783660046136b3565b610529565b005b61027d61028d3660046136dd565b61054a565b7f0000000000000000000000000000000000000000000000000000000000000000610245565b61027d6102c6366004613719565b61056e565b6102d36105a2565b604051610214929190613745565b61027d6102ef3660046136b3565b6105b5565b61027d6103023660046136dd565b610604565b61027d6103153660046137de565b610623565b610208610328366004613831565b7f000000000000000000000000000000000000000000000000000000000000000073ffffffffffffffffffffffffffffffffffffffff90811691161490565b610225610697565b61024561037d366004613671565b6106a4565b610395610390366004613831565b6106b8565b604051908152602001610214565b61027d6103b13660046136b3565b6106cc565b61027d6103c436600461388e565b6106e9565b61027d6103d73660046138d0565b610745565b61027d6103ea366004613671565b6107cd565b6102456107eb565b610208610405366004613719565b610812565b61022561085d565b61027d61042036600461392a565b61086f565b61027d610433366004613998565b610913565b61027d6104463660046139cf565b610930565b610225610459366004613671565b61098f565b6103957f6d696e746572000000000000000000000000000000000000000000000000000081565b61027d610493366004613719565b6109b0565b6102086104a6366004613a3e565b6109de565b61027d6104b93660046137de565b610a2c565b61027d6104cc366004613831565b610a7d565b61027d6104df366004613a68565b610a98565b60006104f8826104f2610d77565b90610f04565b92915050565b606061051061050b610c90565b610fde565b905090565b60006104f882610523611074565b906110a2565b610546610534611183565b838361053e611074565b92919061118d565b5050565b610569610555611183565b848484610560611074565b93929190611456565b505050565b6000610578611183565b905061058c81610586610b22565b906117ab565b61056983838361059a61182e565b92919061185c565b3660006105ad611932565b915091509091565b6105f07f6d696e74657200000000000000000000000000000000000000000000000000006105e1611183565b6105e961182e565b919061193d565b61054682826105fd611074565b91906119e9565b61056961060f611183565b84848461061a611074565b93929190611b60565b61064f7f6d696e74657200000000000000000000000000000000000000000000000000006105e1611183565b610569838383808060200260200160405190810160405280939291908181526020018383602002808284376000920191909152506106909250611074915050565b9190611ba6565b606061051061050b610d15565b60006104f8826106b2611074565b90611d7a565b60006104f8826106c6611074565b90611e10565b6105466106d7611183565b83836106e1611074565b929190611ebc565b6106fc6106f4611183565b610586610b22565b61054682828080601f01602080910402602001604051908101604052809392919081815260200183838082843760009201919091525061073f9250610d15915050565b90610eb6565b6107717f6d696e74657200000000000000000000000000000000000000000000000000006105e1611183565b6107c761077c611183565b858585858080601f0160208091040260200160405190810160405280939291908181526020018383808284376000920191909152506107be9250611074915050565b939291906120d0565b50505050565b6107e86107d8611183565b826107e161182e565b9190612106565b50565b60006105106107f8610b22565b5473ffffffffffffffffffffffffffffffffffffffff1690565b6000610856838361082161182e565b60009283526020908152604080842073ffffffffffffffffffffffffffffffffffffffff909316845291905290205460ff1690565b9392505050565b606061051061086a610c90565b6121aa565b61089b7f6d696e74657200000000000000000000000000000000000000000000000000006105e1611183565b6107c78484808060200260200160405190810160405280939291908181526020018383602002808284376000920191909152505060408051602080880282810182019093528782529093508792508691829185019084908082843760009201919091525061090c9250611074915050565b91906121bb565b61054661091e611183565b8383610928611074565b929190612411565b61098861093b611183565b86868686868080601f01602080910402602001604051908101604052809392919081815260200183838082843760009201919091525061097e9250611074915050565b9493929190612541565b5050505050565b606061099d826106b2611074565b506104f8826109aa610d15565b90612580565b60006109ba611183565b90506109c881610586610b22565b6105698383836109d661182e565b9291906125b4565b600061085683836109ed611074565b919073ffffffffffffffffffffffffffffffffffffffff9182166000908152600393909301602090815260408085209290931684525290205460ff1690565b610569610a37611183565b84848480806020026020016040519081016040528093929190818152602001838360200280828437600092019190915250610a759250611074915050565b92919061267e565b6107e8610a88611183565b82610a91610b22565b91906128d4565b6107c7610aa3611183565b8585858580806020026020016040519081016040528093929190818152602001838360200280828437600092019190915250610ae29250611074915050565b93929190612a00565b610b207f80ac58cd000000000000000000000000000000000000000000000000000000006001610b19610d77565b9190610da5565b565b6000806104f860017fc9ed16f33ab3a66c84bfd83099ccb2a8845871e2e1c1928f63797152f0fd54cd613aec565b73ffffffffffffffffffffffffffffffffffffffff811615610bd85781547fffffffffffffffffffffffff00000000000000000000000000000000000000001673ffffffffffffffffffffffffffffffffffffffff821690811783556040516000907f8be0079c531659141344cd1fd0a4f28419497f9722a3daafe3b4186f6b6457e0908290a35b6105467f7f5828d0000000000000000000000000000000000000000000000000000000006001610b19610d77565b610b207f8e773e13000000000000000000000000000000000000000000000000000000006001610b19610d77565b610b207f9da5e832000000000000000000000000000000000000000000000000000000006001610b19610d77565b610b207ff3993d11000000000000000000000000000000000000000000000000000000006001610b19610d77565b6000806104f860017f9c4269c0f9f430d98876ffe9767fbf3f3232ea91a549beb549e5329532520eb3613aec565b8151610cd09084906020850190613504565b508051610ce69060018501906020840190613504565b506105697f5b5e139f000000000000000000000000000000000000000000000000000000006001610b19610d77565b6000806104f860017fe94434e3c6b941c5d90218142fadcc69cb2e13723993540bfa1c131dd1d3475a613aec565b6105468282610eb6565b610b207f8b8b4ef5000000000000000000000000000000000000000000000000000000006001610b195b6000806104f860017fca9d3e17f264b0f3984e2634e94adb37fa3e6a8103f06aeae6fa59e21c769f5e613aec565b7c01000000000000000000000000000000000000000000000000000000007fffffffff00000000000000000000000000000000000000000000000000000000831601610e52576040517f08c379a000000000000000000000000000000000000000000000000000000000815260206004820152601f60248201527f496e74657266616365446574656374696f6e3a2077726f6e672076616c75650060448201526064015b60405180910390fd5b7fffffffff00000000000000000000000000000000000000000000000000000000919091166000908152602092909252604090912080547fffffffffffffffffffffffffffffffffffffffffffffffffffffffffffffff0016911515919091179055565b8051610ec89083906020840190613504565b507f04b1dc5c136a3ce9fded8db0ce3d3366c58764ec3a8e4c2b9e52e4ddfe5ebbf781604051610ef8919061365e565b60405180910390a15050565b60007c01000000000000000000000000000000000000000000000000000000007fffffffff00000000000000000000000000000000000000000000000000000000831601610f54575060006104f8565b7ffe003659000000000000000000000000000000000000000000000000000000007fffffffff00000000000000000000000000000000000000000000000000000000831601610fa5575060016104f8565b507fffffffff00000000000000000000000000000000000000000000000000000000166000908152602091909152604090205460ff1690565b6060816000018054610fef90613b03565b80601f016020809104026020016040519081016040528092919081815260200182805461101b90613b03565b80156110685780601f1061103d57610100808354040283529160200191611068565b820191906000526020600020905b81548152906001019060200180831161104b57829003601f168201915b50505050509050919050565b6000806104f860017fddf3ee18ae6d688373c219468f8be446e7ae82215f4779d821c7ea5e8c13c0c1613aec565b60008181526020839052604081205473ffffffffffffffffffffffffffffffffffffffff811661112e576040517f08c379a000000000000000000000000000000000000000000000000000000000815260206004820152601a60248201527f4552433732313a206e6f6e2d6578697374696e6720746f6b656e0000000000006044820152606401610e49565b74010000000000000000000000000000000000000000811615611179575050600081815260028301602052604090205473ffffffffffffffffffffffffffffffffffffffff166104f8565b60009150506104f8565b6000610510612d7e565b60008181526020859052604090205473ffffffffffffffffffffffffffffffffffffffff8116611219576040517f08c379a000000000000000000000000000000000000000000000000000000000815260206004820152601a60248201527f4552433732313a206e6f6e2d6578697374696e6720746f6b656e0000000000006044820152606401610e49565b8073ffffffffffffffffffffffffffffffffffffffff8082169085160361129c576040517f08c379a000000000000000000000000000000000000000000000000000000000815260206004820152601560248201527f4552433732313a2073656c662d617070726f76616c00000000000000000000006044820152606401610e49565b6112a7868287612d88565b61130d576040517f08c379a000000000000000000000000000000000000000000000000000000000815260206004820152601b60248201527f4552433732313a206e6f6e2d617070726f7665642073656e64657200000000006044820152606401610e49565b73ffffffffffffffffffffffffffffffffffffffff8416611372577401000000000000000000000000000000000000000082161561136d57600083815260208790526040902073ffffffffffffffffffffffffffffffffffffffff821690555b6113f3565b7401000000000000000000000000000000000000000082178083146113a35760008481526020889052604090208190555b506000838152600287016020526040902080547fffffffffffffffffffffffff00000000000000000000000000000000000000001673ffffffffffffffffffffffffffffffffffffffff86161790555b828473ffffffffffffffffffffffffffffffffffffffff168273ffffffffffffffffffffffffffffffffffffffff167f8c5be1e5ebec7d5bd14f71427d1e84f3dd0314c0f7b2291e5b200ac8c7c3b92560405160405180910390a4505050505050565b73ffffffffffffffffffffffffffffffffffffffff82166114d3576040517f08c379a000000000000000000000000000000000000000000000000000000000815260206004820152601e60248201527f4552433732313a207472616e7366657220746f206164647265737328302900006044820152606401610e49565b60008181526020869052604090205473ffffffffffffffffffffffffffffffffffffffff811661155f576040517f08c379a000000000000000000000000000000000000000000000000000000000815260206004820152601a60248201527f4552433732313a206e6f6e2d6578697374696e6720746f6b656e0000000000006044820152606401610e49565b73ffffffffffffffffffffffffffffffffffffffff84168173ffffffffffffffffffffffffffffffffffffffff16146115f4576040517f08c379a000000000000000000000000000000000000000000000000000000000815260206004820152601760248201527f4552433732313a206e6f6e2d6f776e656420746f6b656e0000000000000000006044820152606401610e49565b6115ff868587612d88565b6116b757740100000000000000000000000000000000000000008116151580156116515750600082815260028701602052604090205473ffffffffffffffffffffffffffffffffffffffff8681169116145b6116b7576040517f08c379a000000000000000000000000000000000000000000000000000000000815260206004820152601b60248201527f4552433732313a206e6f6e2d617070726f7665642073656e64657200000000006044820152606401610e49565b600082815260208790526040902073ffffffffffffffffffffffffffffffffffffffff808516918290558516146117485773ffffffffffffffffffffffffffffffffffffffff80851660009081526001808901602052604080832080547fffffffffffffffffffffffffffffffffffffffffffffffffffffffffffffffff0190559286168252919020805490910190555b818373ffffffffffffffffffffffffffffffffffffffff168573ffffffffffffffffffffffffffffffffffffffff167fddf252ad1be2c89b69c2b068fc378daa952ba7f163c4a11628f55a4df523b3ef60405160405180910390a4505050505050565b815473ffffffffffffffffffffffffffffffffffffffff828116911614610546576040517f08c379a000000000000000000000000000000000000000000000000000000000815260206004820152601860248201527f4f776e6572736869703a206e6f7420746865206f776e657200000000000000006044820152606401610e49565b6000806104f860017fc8827d3282af6f37b64c3e9e6f3ac9df286ab0bb0fccd6f8661bf19adb368b23613aec565b60008381526020858152604080832073ffffffffffffffffffffffffffffffffffffffff8616845290915290205460ff166107c75760008381526020858152604080832073ffffffffffffffffffffffffffffffffffffffff8681168086529184529382902080547fffffffffffffffffffffffffffffffffffffffffffffffffffffffffffffff00166001179055815187815292830152918316918101919091527f2f8788117e7eff1d82e926ec794901d17c78024a50270940304540a733656f0d906060015b60405180910390a150505050565b3660006105ad612dfd565b60008281526020848152604080832073ffffffffffffffffffffffffffffffffffffffff8516845290915290205460ff166105695761197b82612e08565b60405160200161198b9190613b6c565b604080517fffffffffffffffffffffffffffffffffffffffffffffffffffffffffffffffe0818403018152908290527f08c379a0000000000000000000000000000000000000000000000000000000008252610e499160040161365e565b73ffffffffffffffffffffffffffffffffffffffff8216611a66576040517f08c379a000000000000000000000000000000000000000000000000000000000815260206004820152601a60248201527f4552433732313a206d696e7420746f20616464726573732830290000000000006044820152606401610e49565b60008181526020849052604090205473ffffffffffffffffffffffffffffffffffffffff1615611af2576040517f08c379a000000000000000000000000000000000000000000000000000000000815260206004820152601660248201527f4552433732313a206578697374696e6720746f6b656e000000000000000000006044820152606401610e49565b60008181526020848152604080832073ffffffffffffffffffffffffffffffffffffffff86169081905580845260018088019093528184208054909301909255518392907fddf252ad1be2c89b69c2b068fc378daa952ba7f163c4a11628f55a4df523b3ef908290a4505050565b611b6d8585858585611456565b73ffffffffffffffffffffffffffffffffffffffff82163b15610988576109888484848460405180602001604052806000815250612f9a565b73ffffffffffffffffffffffffffffffffffffffff8216611c23576040517f08c379a000000000000000000000000000000000000000000000000000000000815260206004820152601a60248201527f4552433732313a206d696e7420746f20616464726573732830290000000000006044820152606401610e49565b805160005b818114611d45576000838281518110611c4357611c43613bd8565b60200260200101519050611c818660000160008381526020019081526020016000205473ffffffffffffffffffffffffffffffffffffffff16151590565b15611ce8576040517f08c379a000000000000000000000000000000000000000000000000000000000815260206004820152601660248201527f4552433732313a206578697374696e6720746f6b656e000000000000000000006044820152606401610e49565b60008181526020879052604080822073ffffffffffffffffffffffffffffffffffffffff88169081905590518392907fddf252ad1be2c89b69c2b068fc378daa952ba7f163c4a11628f55a4df523b3ef908290a450600101611c28565b5073ffffffffffffffffffffffffffffffffffffffff9092166000908152600190930160205250604090912080549091019055565b60008181526020839052604081205473ffffffffffffffffffffffffffffffffffffffff8116611e06576040517f08c379a000000000000000000000000000000000000000000000000000000000815260206004820152601a60248201527f4552433732313a206e6f6e2d6578697374696e6720746f6b656e0000000000006044820152606401610e49565b805b949350505050565b600073ffffffffffffffffffffffffffffffffffffffff8216611e8f576040517f08c379a000000000000000000000000000000000000000000000000000000000815260206004820152601d60248201527f4552433732313a2062616c616e6365206f6620616464726573732830290000006044820152606401610e49565b5073ffffffffffffffffffffffffffffffffffffffff166000908152600191909101602052604090205490565b6000818152602085905260409020548073ffffffffffffffffffffffffffffffffffffffff168373ffffffffffffffffffffffffffffffffffffffff1614611f60576040517f08c379a000000000000000000000000000000000000000000000000000000000815260206004820152601760248201527f4552433732313a206e6f6e2d6f776e656420746f6b656e0000000000000000006044820152606401610e49565b611f6b858486612d88565b6120235774010000000000000000000000000000000000000000811615158015611fbd5750600082815260028601602052604090205473ffffffffffffffffffffffffffffffffffffffff8581169116145b612023576040517f08c379a000000000000000000000000000000000000000000000000000000000815260206004820152601b60248201527f4552433732313a206e6f6e2d617070726f7665642073656e64657200000000006044820152606401610e49565b6000828152602086815260408083207fdead000000000000000000000000000000000000000000000000000000000000905573ffffffffffffffffffffffffffffffffffffffff86168084526001890190925280832080547fffffffffffffffffffffffffffffffffffffffffffffffffffffffffffffffff01905551849291907fddf252ad1be2c89b69c2b068fc378daa952ba7f163c4a11628f55a4df523b3ef908390a45050505050565b6120db8584846119e9565b73ffffffffffffffffffffffffffffffffffffffff83163b1561098857610988846000858585612f9a565b61211183828461193d565b60008181526020848152604080832073ffffffffffffffffffffffffffffffffffffffff86168085529083529281902080547fffffffffffffffffffffffffffffffffffffffffffffffffffffffffffffff0016905580518481529182018390528101919091527ff6391f5c32d9c69d2a47ea670b442974b53935d1edc7fd64eb21e047a839171b9060600160405180910390a1505050565b6060816001018054610fef90613b03565b815181518114612227576040517f08c379a000000000000000000000000000000000000000000000000000000000815260206004820152601b60248201527f4552433732313a20696e636f6e73697374656e742061727261797300000000006044820152606401610e49565b60005b81811461098857600084828151811061224557612245613bd8565b60200260200101519050600073ffffffffffffffffffffffffffffffffffffffff168173ffffffffffffffffffffffffffffffffffffffff16036122e5576040517f08c379a000000000000000000000000000000000000000000000000000000000815260206004820152601a60248201527f4552433732313a206d696e7420746f20616464726573732830290000000000006044820152606401610e49565b60008483815181106122f9576122f9613bd8565b602002602001015190506123378760000160008381526020019081526020016000205473ffffffffffffffffffffffffffffffffffffffff16151590565b1561239e576040517f08c379a000000000000000000000000000000000000000000000000000000000815260206004820152601660248201527f4552433732313a206578697374696e6720746f6b656e000000000000000000006044820152606401610e49565b60008181526020888152604080832073ffffffffffffffffffffffffffffffffffffffff8616908190558084526001808c019093528184208054909301909255518392907fddf252ad1be2c89b69c2b068fc378daa952ba7f163c4a11628f55a4df523b3ef908290a4505060010161222a565b8273ffffffffffffffffffffffffffffffffffffffff168273ffffffffffffffffffffffffffffffffffffffff16036124a6576040517f08c379a000000000000000000000000000000000000000000000000000000000815260206004820152601d60248201527f4552433732313a2073656c662d617070726f76616c20666f7220616c6c0000006044820152606401610e49565b73ffffffffffffffffffffffffffffffffffffffff838116600081815260038701602090815260408083209487168084529482529182902080547fffffffffffffffffffffffffffffffffffffffffffffffffffffffffffffff001686151590811790915591519182527f17307eab39ab6107e8899845ad3d59bd9653f200f220920489ca2b5937696c31910160405180910390a350505050565b61254e8686868686611456565b73ffffffffffffffffffffffffffffffffffffffff83163b15612578576125788585858585612f9a565b505050505050565b60608261258c836130c0565b60405160200161259d929190613c07565b604051602081830303815290604052905092915050565b60008381526020858152604080832073ffffffffffffffffffffffffffffffffffffffff8616845290915290205460ff16156107c75760008381526020858152604080832073ffffffffffffffffffffffffffffffffffffffff8681168086529184529382902080547fffffffffffffffffffffffffffffffffffffffffffffffffffffffffffffff00169055815187815292830152918316918101919091527ff6391f5c32d9c69d2a47ea670b442974b53935d1edc7fd64eb21e047a839171b90606001611924565b600061268b858486612d88565b825190915060005b8181146128975760008482815181106126ae576126ae613bd8565b6020908102919091018101516000818152918a90526040909120549091508073ffffffffffffffffffffffffffffffffffffffff168773ffffffffffffffffffffffffffffffffffffffff1614612761576040517f08c379a000000000000000000000000000000000000000000000000000000000815260206004820152601760248201527f4552433732313a206e6f6e2d6f776e656420746f6b656e0000000000000000006044820152606401610e49565b8461281a57740100000000000000000000000000000000000000008116151580156127b45750600082815260028a01602052604090205473ffffffffffffffffffffffffffffffffffffffff8981169116145b61281a576040517f08c379a000000000000000000000000000000000000000000000000000000000815260206004820152601b60248201527f4552433732313a206e6f6e2d617070726f7665642073656e64657200000000006044820152606401610e49565b600082815260208a905260408082207fdead00000000000000000000000000000000000000000000000000000000000090555183919073ffffffffffffffffffffffffffffffffffffffff8a16907fddf252ad1be2c89b69c2b068fc378daa952ba7f163c4a11628f55a4df523b3ef908390a45050600101612693565b5080156125785773ffffffffffffffffffffffffffffffffffffffff84166000908152600187016020526040902080548290039055505050505050565b825473ffffffffffffffffffffffffffffffffffffffff9081169083168114612959576040517f08c379a000000000000000000000000000000000000000000000000000000000815260206004820152601860248201527f4f776e6572736869703a206e6f7420746865206f776e657200000000000000006044820152606401610e49565b8173ffffffffffffffffffffffffffffffffffffffff168173ffffffffffffffffffffffffffffffffffffffff16146107c75783547fffffffffffffffffffffffff00000000000000000000000000000000000000001673ffffffffffffffffffffffffffffffffffffffff8381169182178655604051908316907f8be0079c531659141344cd1fd0a4f28419497f9722a3daafe3b4186f6b6457e090600090a350505050565b73ffffffffffffffffffffffffffffffffffffffff8216612a7d576040517f08c379a000000000000000000000000000000000000000000000000000000000815260206004820152601e60248201527f4552433732313a207472616e7366657220746f206164647265737328302900006044820152606401610e49565b6000612a8a868587612d88565b825190915060005b818114612cf7576000848281518110612aad57612aad613bd8565b6020908102919091018101516000818152918b905260409091205490915073ffffffffffffffffffffffffffffffffffffffff8116612b48576040517f08c379a000000000000000000000000000000000000000000000000000000000815260206004820152601a60248201527f4552433732313a206e6f6e2d6578697374696e6720746f6b656e0000000000006044820152606401610e49565b73ffffffffffffffffffffffffffffffffffffffff88168173ffffffffffffffffffffffffffffffffffffffff1614612bdd576040517f08c379a000000000000000000000000000000000000000000000000000000000815260206004820152601760248201527f4552433732313a206e6f6e2d6f776e656420746f6b656e0000000000000000006044820152606401610e49565b84612c965774010000000000000000000000000000000000000000811615158015612c305750600082815260028b01602052604090205473ffffffffffffffffffffffffffffffffffffffff8a81169116145b612c96576040517f08c379a000000000000000000000000000000000000000000000000000000000815260206004820152601b60248201527f4552433732313a206e6f6e2d617070726f7665642073656e64657200000000006044820152606401610e49565b600082815260208b9052604080822073ffffffffffffffffffffffffffffffffffffffff808b16918290559151859391928c16917fddf252ad1be2c89b69c2b068fc378daa952ba7f163c4a11628f55a4df523b3ef91a45050600101612a92565b508373ffffffffffffffffffffffffffffffffffffffff168573ffffffffffffffffffffffffffffffffffffffff1614158015612d3357508015155b15612d755773ffffffffffffffffffffffffffffffffffffffff8086166000908152600189016020526040808220805485900390559186168152208054820190555b50505050505050565b60006105106131f5565b60008173ffffffffffffffffffffffffffffffffffffffff168373ffffffffffffffffffffffffffffffffffffffff161480611e0857505073ffffffffffffffffffffffffffffffffffffffff9182166000908152600393909301602090815260408085209290931684525290205460ff1690565b3660006105ad6131ff565b60606000829003612e2757505060408051602081019091526000815290565b600082604051602001612e3c91815260200190565b604080517fffffffffffffffffffffffffffffffffffffffffffffffffffffffffffffffe08184030181529190529050601f5b818181518110612e8157612e81613bd8565b01602001517fff0000000000000000000000000000000000000000000000000000000000000016600003612ed6577fffffffffffffffffffffffffffffffffffffffffffffffffffffffffffffffff01612e6f565b60008160010167ffffffffffffffff811115612ef457612ef4613ce4565b6040519080825280601f01601f191660200182016040528015612f1e576020820181803683370190505b50905060005b828111612f9157838181518110612f3d57612f3d613bd8565b602001015160f81c60f81b828281518110612f5a57612f5a613bd8565b60200101907effffffffffffffffffffffffffffffffffffffffffffffffffffffffffffff1916908160001a905350600101612f24565b50949350505050565b6040517f150b7a02000000000000000000000000000000000000000000000000000000008082529073ffffffffffffffffffffffffffffffffffffffff85169063150b7a0290612ff4908990899088908890600401613d13565b6020604051808303816000875af1158015613013573d6000803e3d6000fd5b505050506040513d601f19601f820116820180604052508101906130379190613d5c565b7fffffffff000000000000000000000000000000000000000000000000000000001614610988576040517f08c379a000000000000000000000000000000000000000000000000000000000815260206004820152601e60248201527f4552433732313a2073616665207472616e736665722072656a656374656400006044820152606401610e49565b60608160000361310357505060408051808201909152600181527f3000000000000000000000000000000000000000000000000000000000000000602082015290565b8160005b811561312d578061311781613d79565b91506131269050600a83613de0565b9150613107565b60008167ffffffffffffffff81111561314857613148613ce4565b6040519080825280601f01601f191660200182016040528015613172576020820181803683370190505b5090505b8415611e0857613187600183613aec565b9150613194600a86613df4565b61319f906030613e08565b60f81b8183815181106131b4576131b4613bd8565b60200101907effffffffffffffffffffffffffffffffffffffffffffffffffffffffffffff1916908160001a9053506131ee600a86613de0565b9450613176565b600061051061320a565b3660006105ad613362565b60003332810361321957919050565b6000367fffffffffffffffffffffffffffffffffffffffffffffffffffffffffffffffec013560601c90507f000000000000000000000000000000000000000000000000000000000000000073ffffffffffffffffffffffffffffffffffffffff168273ffffffffffffffffffffffffffffffffffffffff16148061335157506040517fe60125d600000000000000000000000000000000000000000000000000000000815273ffffffffffffffffffffffffffffffffffffffff828116600483015283811660248301527f0000000000000000000000000000000000000000000000000000000000000000169063e60125d690604401602060405180830381865afa15801561332d573d6000803e3d6000fd5b505050506040513d601f19601f820116820180604052508101906133519190613e20565b1561335c5792915050565b50919050565b3660003332810361337857506000923692509050565b7f000000000000000000000000000000000000000000000000000000000000000073ffffffffffffffffffffffffffffffffffffffff168173ffffffffffffffffffffffffffffffffffffffff1614806134c5575073ffffffffffffffffffffffffffffffffffffffff7f00000000000000000000000000000000000000000000000000000000000000001663e60125d6367fffffffffffffffffffffffffffffffffffffffffffffffffffffffffffffffec013560601c6040517fffffffff0000000000000000000000000000000000000000000000000000000060e084901b16815273ffffffffffffffffffffffffffffffffffffffff91821660048201529084166024820152604401602060405180830381865afa1580156134a1573d6000803e3d6000fd5b505050506040513d601f19601f820116820180604052508101906134c59190613e20565b156134db576134d26134e6565b92509250509091565b506000923692509050565b3660008080836134f7601482613aec565b926105ad93929190613e3d565b82805461351090613b03565b90600052602060002090601f0160209004810192826135325760008555613578565b82601f1061354b57805160ff1916838001178555613578565b82800160010185558215613578579182015b8281111561357857825182559160200191906001019061355d565b50613584929150613588565b5090565b5b808211156135845760008155600101613589565b7fffffffff00000000000000000000000000000000000000000000000000000000811681146107e857600080fd5b6000602082840312156135dd57600080fd5b81356108568161359d565b60005b838110156136035781810151838201526020016135eb565b838111156107c75750506000910152565b6000815180845261362c8160208601602086016135e8565b601f017fffffffffffffffffffffffffffffffffffffffffffffffffffffffffffffffe0169290920160200192915050565b6020815260006108566020830184613614565b60006020828403121561368357600080fd5b5035919050565b803573ffffffffffffffffffffffffffffffffffffffff811681146136ae57600080fd5b919050565b600080604083850312156136c657600080fd5b6136cf8361368a565b946020939093013593505050565b6000806000606084860312156136f257600080fd5b6136fb8461368a565b92506137096020850161368a565b9150604084013590509250925092565b6000806040838503121561372c57600080fd5b8235915061373c6020840161368a565b90509250929050565b60208152816020820152818360408301376000818301604090810191909152601f9092017fffffffffffffffffffffffffffffffffffffffffffffffffffffffffffffffe0160101919050565b60008083601f8401126137a457600080fd5b50813567ffffffffffffffff8111156137bc57600080fd5b6020830191508360208260051b85010111156137d757600080fd5b9250929050565b6000806000604084860312156137f357600080fd5b6137fc8461368a565b9250602084013567ffffffffffffffff81111561381857600080fd5b61382486828701613792565b9497909650939450505050565b60006020828403121561384357600080fd5b6108568261368a565b60008083601f84011261385e57600080fd5b50813567ffffffffffffffff81111561387657600080fd5b6020830191508360208285010111156137d757600080fd5b600080602083850312156138a157600080fd5b823567ffffffffffffffff8111156138b857600080fd5b6138c48582860161384c565b90969095509350505050565b600080600080606085870312156138e657600080fd5b6138ef8561368a565b935060208501359250604085013567ffffffffffffffff81111561391257600080fd5b61391e8782880161384c565b95989497509550505050565b6000806000806040858703121561394057600080fd5b843567ffffffffffffffff8082111561395857600080fd5b61396488838901613792565b9096509450602087013591508082111561397d57600080fd5b5061391e87828801613792565b80151581146107e857600080fd5b600080604083850312156139ab57600080fd5b6139b48361368a565b915060208301356139c48161398a565b809150509250929050565b6000806000806000608086880312156139e757600080fd5b6139f08661368a565b94506139fe6020870161368a565b935060408601359250606086013567ffffffffffffffff811115613a2157600080fd5b613a2d8882890161384c565b969995985093965092949392505050565b60008060408385031215613a5157600080fd5b613a5a8361368a565b915061373c6020840161368a565b60008060008060608587031215613a7e57600080fd5b613a878561368a565b9350613a956020860161368a565b9250604085013567ffffffffffffffff811115613ab157600080fd5b61391e87828801613792565b7f4e487b7100000000000000000000000000000000000000000000000000000000600052601160045260246000fd5b600082821015613afe57613afe613abd565b500390565b600181811c90821680613b1757607f821691505b60208210810361335c577f4e487b7100000000000000000000000000000000000000000000000000000000600052602260045260246000fd5b60008151613b628185602086016135e8565b9290920192915050565b7f416363657373436f6e74726f6c3a206d697373696e6720270000000000000000815260008251613ba48160188501602087016135e8565b7f2720726f6c6500000000000000000000000000000000000000000000000000006018939091019283015250601e01919050565b7f4e487b7100000000000000000000000000000000000000000000000000000000600052603260045260246000fd5b600080845481600182811c915080831680613c2357607f831692505b60208084108203613c5b577f4e487b710000000000000000000000000000000000000000000000000000000086526022600452602486fd5b818015613c6f5760018114613c9e57613ccb565b7fffffffffffffffffffffffffffffffffffffffffffffffffffffffffffffff00861689528489019650613ccb565b60008b81526020902060005b86811015613cc35781548b820152908501908301613caa565b505084890196505b505050505050613cdb8185613b50565b95945050505050565b7f4e487b7100000000000000000000000000000000000000000000000000000000600052604160045260246000fd5b600073ffffffffffffffffffffffffffffffffffffffff808716835280861660208401525083604083015260806060830152613d526080830184613614565b9695505050505050565b600060208284031215613d6e57600080fd5b81516108568161359d565b60007fffffffffffffffffffffffffffffffffffffffffffffffffffffffffffffffff8203613daa57613daa613abd565b5060010190565b7f4e487b7100000000000000000000000000000000000000000000000000000000600052601260045260246000fd5b600082613def57613def613db1565b500490565b600082613e0357613e03613db1565b500690565b60008219821115613e1b57613e1b613abd565b500190565b600060208284031215613e3257600080fd5b81516108568161398a565b60008085851115613e4d57600080fd5b83861115613e5a57600080fd5b505082019391909203915056fea2646970667358221220270e734a42a2a62c925e74fe924409446b9f50498ea6695543e556d75f1d022f64736f6c634300080e0033",
  "linkReferences": {},
  "deployedLinkReferences": {}
}