{
  "_format": "hh-sol-artifact-1",
  "contractName": "ERC721BurnableMock",
  "sourceName": "contracts/mocks/token/ERC721/ERC721BurnableMock.sol",
  "abi": [
    {
      "inputs": [
        {
          "internalType": "string",
          "name": "name_",
          "type": "string"
        },
        {
          "internalType": "string",
          "name": "symbol_",
          "type": "string"
        },
        {
          "internalType": "string",
          "name": "tokenURI_",
          "type": "string"
        }
      ],
      "stateMutability": "nonpayable",
      "type": "constructor"
    },
    {
      "anonymous": false,
      "inputs": [
        {
          "indexed": true,
          "internalType": "address",
          "name": "owner",
          "type": "address"
        },
        {
          "indexed": true,
          "internalType": "address",
          "name": "approved",
          "type": "address"
        },
        {
          "indexed": true,
          "internalType": "uint256",
          "name": "tokenId",
          "type": "uint256"
        }
      ],
      "name": "Approval",
      "type": "event"
    },
    {
      "anonymous": false,
      "inputs": [
        {
          "indexed": true,
          "internalType": "address",
          "name": "owner",
          "type": "address"
        },
        {
          "indexed": true,
          "internalType": "address",
          "name": "operator",
          "type": "address"
        },
        {
          "indexed": false,
          "internalType": "bool",
          "name": "approved",
          "type": "bool"
        }
      ],
      "name": "ApprovalForAll",
      "type": "event"
    },
    {
      "anonymous": false,
      "inputs": [
        {
          "indexed": true,
          "internalType": "address",
          "name": "previousOwner",
          "type": "address"
        },
        {
          "indexed": true,
          "internalType": "address",
          "name": "newOwner",
          "type": "address"
        }
      ],
      "name": "OwnershipTransferred",
      "type": "event"
    },
    {
      "anonymous": false,
      "inputs": [
        {
          "indexed": false,
          "internalType": "bytes32",
          "name": "role",
          "type": "bytes32"
        },
        {
          "indexed": false,
          "internalType": "address",
          "name": "account",
          "type": "address"
        },
        {
          "indexed": false,
          "internalType": "address",
          "name": "operator",
          "type": "address"
        }
      ],
      "name": "RoleGranted",
      "type": "event"
    },
    {
      "anonymous": false,
      "inputs": [
        {
          "indexed": false,
          "internalType": "bytes32",
          "name": "role",
          "type": "bytes32"
        },
        {
          "indexed": false,
          "internalType": "address",
          "name": "account",
          "type": "address"
        },
        {
          "indexed": false,
          "internalType": "address",
          "name": "operator",
          "type": "address"
        }
      ],
      "name": "RoleRevoked",
      "type": "event"
    },
    {
      "anonymous": false,
      "inputs": [
        {
          "indexed": true,
          "internalType": "address",
          "name": "from",
          "type": "address"
        },
        {
          "indexed": true,
          "internalType": "address",
          "name": "to",
          "type": "address"
        },
        {
          "indexed": true,
          "internalType": "uint256",
          "name": "tokenId",
          "type": "uint256"
        }
      ],
      "name": "Transfer",
      "type": "event"
    },
    {
      "inputs": [],
      "name": "MINTER_ROLE",
      "outputs": [
        {
          "internalType": "bytes32",
          "name": "",
          "type": "bytes32"
        }
      ],
      "stateMutability": "view",
      "type": "function"
    },
    {
      "inputs": [
        {
          "internalType": "address",
          "name": "to",
          "type": "address"
        },
        {
          "internalType": "uint256",
          "name": "tokenId",
          "type": "uint256"
        }
      ],
      "name": "approve",
      "outputs": [],
      "stateMutability": "nonpayable",
      "type": "function"
    },
    {
      "inputs": [
        {
          "internalType": "address",
          "name": "owner",
          "type": "address"
        }
      ],
      "name": "balanceOf",
      "outputs": [
        {
          "internalType": "uint256",
          "name": "",
          "type": "uint256"
        }
      ],
      "stateMutability": "view",
      "type": "function"
    },
    {
      "inputs": [
        {
          "internalType": "address",
          "name": "from",
          "type": "address"
        },
        {
          "internalType": "uint256[]",
          "name": "tokenIds",
          "type": "uint256[]"
        }
      ],
      "name": "batchBurnFrom",
      "outputs": [],
      "stateMutability": "nonpayable",
      "type": "function"
    },
    {
      "inputs": [
        {
          "internalType": "address",
          "name": "to",
          "type": "address"
        },
        {
          "internalType": "uint256[]",
          "name": "tokenIds",
          "type": "uint256[]"
        }
      ],
      "name": "batchMint",
      "outputs": [],
      "stateMutability": "nonpayable",
      "type": "function"
    },
    {
      "inputs": [
        {
          "internalType": "address",
          "name": "from",
          "type": "address"
        },
        {
          "internalType": "uint256",
          "name": "tokenId",
          "type": "uint256"
        }
      ],
      "name": "burnFrom",
      "outputs": [],
      "stateMutability": "nonpayable",
      "type": "function"
    },
    {
      "inputs": [
        {
          "internalType": "uint256",
          "name": "tokenId",
          "type": "uint256"
        }
      ],
      "name": "getApproved",
      "outputs": [
        {
          "internalType": "address",
          "name": "operator",
          "type": "address"
        }
      ],
      "stateMutability": "view",
      "type": "function"
    },
    {
      "inputs": [
        {
          "internalType": "bytes32",
          "name": "role",
          "type": "bytes32"
        },
        {
          "internalType": "address",
          "name": "account",
          "type": "address"
        }
      ],
      "name": "grantRole",
      "outputs": [],
      "stateMutability": "nonpayable",
      "type": "function"
    },
    {
      "inputs": [
        {
          "internalType": "bytes32",
          "name": "role",
          "type": "bytes32"
        },
        {
          "internalType": "address",
          "name": "account",
          "type": "address"
        }
      ],
      "name": "hasRole",
      "outputs": [
        {
          "internalType": "bool",
          "name": "",
          "type": "bool"
        }
      ],
      "stateMutability": "view",
      "type": "function"
    },
    {
      "inputs": [
        {
          "internalType": "address",
          "name": "owner",
          "type": "address"
        },
        {
          "internalType": "address",
          "name": "operator",
          "type": "address"
        }
      ],
      "name": "isApprovedForAll",
      "outputs": [
        {
          "internalType": "bool",
          "name": "",
          "type": "bool"
        }
      ],
      "stateMutability": "view",
      "type": "function"
    },
    {
      "inputs": [
        {
          "internalType": "address",
          "name": "to",
          "type": "address"
        },
        {
          "internalType": "uint256",
          "name": "tokenId",
          "type": "uint256"
        }
      ],
      "name": "mint",
      "outputs": [],
      "stateMutability": "nonpayable",
      "type": "function"
    },
    {
      "inputs": [],
      "name": "owner",
      "outputs": [
        {
          "internalType": "address",
          "name": "",
          "type": "address"
        }
      ],
      "stateMutability": "view",
      "type": "function"
    },
    {
      "inputs": [
        {
          "internalType": "uint256",
          "name": "tokenId",
          "type": "uint256"
        }
      ],
      "name": "ownerOf",
      "outputs": [
        {
          "internalType": "address",
          "name": "",
          "type": "address"
        }
      ],
      "stateMutability": "view",
      "type": "function"
    },
    {
      "inputs": [
        {
          "internalType": "bytes32",
          "name": "role",
          "type": "bytes32"
        }
      ],
      "name": "renounceRole",
      "outputs": [],
      "stateMutability": "nonpayable",
      "type": "function"
    },
    {
      "inputs": [
        {
          "internalType": "bytes32",
          "name": "role",
          "type": "bytes32"
        },
        {
          "internalType": "address",
          "name": "account",
          "type": "address"
        }
      ],
      "name": "revokeRole",
      "outputs": [],
      "stateMutability": "nonpayable",
      "type": "function"
    },
    {
      "inputs": [
        {
          "internalType": "address",
          "name": "to",
          "type": "address"
        },
        {
          "internalType": "uint256",
          "name": "tokenId",
          "type": "uint256"
        },
        {
          "internalType": "bytes",
          "name": "data",
          "type": "bytes"
        }
      ],
      "name": "safeMint",
      "outputs": [],
      "stateMutability": "nonpayable",
      "type": "function"
    },
    {
      "inputs": [
        {
          "internalType": "address",
          "name": "from",
          "type": "address"
        },
        {
          "internalType": "address",
          "name": "to",
          "type": "address"
        },
        {
          "internalType": "uint256",
          "name": "tokenId",
          "type": "uint256"
        }
      ],
      "name": "safeTransferFrom",
      "outputs": [],
      "stateMutability": "nonpayable",
      "type": "function"
    },
    {
      "inputs": [
        {
          "internalType": "address",
          "name": "from",
          "type": "address"
        },
        {
          "internalType": "address",
          "name": "to",
          "type": "address"
        },
        {
          "internalType": "uint256",
          "name": "tokenId",
          "type": "uint256"
        },
        {
          "internalType": "bytes",
          "name": "_data",
          "type": "bytes"
        }
      ],
      "name": "safeTransferFrom",
      "outputs": [],
      "stateMutability": "nonpayable",
      "type": "function"
    },
    {
      "inputs": [
        {
          "internalType": "address",
          "name": "operator",
          "type": "address"
        },
        {
          "internalType": "bool",
          "name": "_approved",
          "type": "bool"
        }
      ],
      "name": "setApprovalForAll",
      "outputs": [],
      "stateMutability": "nonpayable",
      "type": "function"
    },
    {
      "inputs": [
        {
          "internalType": "bytes4",
          "name": "interfaceId",
          "type": "bytes4"
        }
      ],
      "name": "supportsInterface",
      "outputs": [
        {
          "internalType": "bool",
          "name": "",
          "type": "bool"
        }
      ],
      "stateMutability": "view",
      "type": "function"
    },
    {
      "inputs": [
        {
          "internalType": "address",
          "name": "from",
          "type": "address"
        },
        {
          "internalType": "address",
          "name": "to",
          "type": "address"
        },
        {
          "internalType": "uint256",
          "name": "tokenId",
          "type": "uint256"
        }
      ],
      "name": "transferFrom",
      "outputs": [],
      "stateMutability": "nonpayable",
      "type": "function"
    },
    {
      "inputs": [
        {
          "internalType": "address",
          "name": "newOwner",
          "type": "address"
        }
      ],
      "name": "transferOwnership",
      "outputs": [],
      "stateMutability": "nonpayable",
      "type": "function"
    }
  ],
  "bytecode": "0x60806040523480156200001157600080fd5b5060405162002f9338038062002f938339810160408190526200003491620004d1565b336200005f6200004e620000f960201b620008551760201c565b6200012f60201b620008831760201c565b62000089620000786200019c60201b620008ed1760201c565b620001cc60201b6200091b1760201c565b620000b781620000a36200022160201b620009751760201c565b6200025160201b620009a31790919060201c565b50620000f063a745805d60e01b6001620000db6200019c60201b620008ed1760201c565b6200030060201b62000a87179092919060201c565b50505062000588565b6000806200012960017fddf3ee18ae6d688373c219468f8be446e7ae82215f4779d821c7ea5e8c13c0c162000562565b92915050565b620001766200016060017ffddcdbf8ca7eb362a678daf3643ce3cf98ebf69ac314d25d376d5aeabd2f533262000562565b60001b60016200038e60201b62000b771760201c565b620001996380ac58cd60e01b6001620000db6200019c60201b620008ed1760201c565b50565b6000806200012960017f7180ffa89c91cf90d6c56dacabfc69bc5e36f3099d7eed2f5cc12c5dba016fe062000562565b620001fd6200016060017f947245cdabe12ef4c13574b38217b361de48f57dd2dc345f43703c79bac2873d62000562565b620001996301ffc9a760e01b6001836200030060201b62000a87179092919060201c565b6000806200012960017f6a1da6973104ff7dedb9b4f5cab5830b3f4a0284ed754366cfc45568bd2d38df62000562565b620002826200016060017ff1e2f4de496ffe5d046d751d8ec3c329ee011c6c6a229322971a7e02a207f97362000562565b6001600160a01b03811615620002d95781546001600160a01b0319166001600160a01b03821690811783556040516000907f8be0079c531659141344cd1fd0a4f28419497f9722a3daafe3b4186f6b6457e0908290a35b620002fc6307f5828d60e41b6001620000db6200019c60201b620008ed1760201c565b5050565b6001600160e01b03198083169003620003605760405162461bcd60e51b815260206004820152601f60248201527f496e74657266616365446574656374696f6e3a2077726f6e672076616c75650060448201526064015b60405180910390fd5b6001600160e01b03199190911660009081526020929092526040909120805460ff1916911515919091179055565b6000620003a6836200040160201b62000be71760201c565b905081816000015410620003fd5760405162461bcd60e51b815260206004820152601860248201527f53746f726167653a2076657273696f6e20726561636865640000000000000000604482015260640162000357565b5550565b90565b634e487b7160e01b600052604160045260246000fd5b600082601f8301126200042c57600080fd5b81516001600160401b038082111562000449576200044962000404565b604051601f8301601f19908116603f0116810190828211818310171562000474576200047462000404565b816040528381526020925086838588010111156200049157600080fd5b600091505b83821015620004b5578582018301518183018401529082019062000496565b83821115620004c75760008385830101525b9695505050505050565b600080600060608486031215620004e757600080fd5b83516001600160401b0380821115620004ff57600080fd5b6200050d878388016200041a565b945060208601519150808211156200052457600080fd5b62000532878388016200041a565b935060408601519150808211156200054957600080fd5b5062000558868287016200041a565b9150509250925092565b6000828210156200058357634e487b7160e01b600052601160045260246000fd5b500390565b6129fb80620005986000396000f3fe608060405234801561001057600080fd5b50600436106101825760003560e01c80638832e6e3116100d8578063b88d4fde1161008c578063e985e9c511610066578063e985e9c514610343578063f247296514610356578063f2fde38b1461036957600080fd5b8063b88d4fde146102f6578063d539139314610309578063d547741f1461033057600080fd5b80638da5cb5b116100bd5780638da5cb5b146102c857806391d14854146102d0578063a22cb465146102e357600080fd5b80638832e6e3146102a25780638bb9c5bf146102b557600080fd5b806340c10f191161013a5780636352211e116101145780636352211e1461025b57806370a082311461026e57806379cc67901461028f57600080fd5b806340c10f191461022257806342842e0e146102355780634684d7e91461024857600080fd5b8063095ea7b31161016b578063095ea7b3146101e757806323b872dd146101fc5780632f2ff15d1461020f57600080fd5b806301ffc9a714610187578063081812fc146101af575b600080fd5b61019a6101953660046122dc565b61037c565b60405190151581526020015b60405180910390f35b6101c26101bd3660046122f9565b6103c9565b60405173ffffffffffffffffffffffffffffffffffffffff90911681526020016101a6565b6101fa6101f536600461233b565b6103dd565b005b6101fa61020a366004612365565b6103f7565b6101fa61021d3660046123a1565b610414565b6101fa61023036600461233b565b61043d565b6101fa610243366004612365565b61049c565b6101fa6102563660046123cd565b6104b4565b6101c26102693660046122f9565b610526565b61028161027c366004612453565b6105c8565b6040519081526020016101a6565b6101fa61029d36600461233b565b61067e565b6101fa6102b036600461246e565b610694565b6101fa6102c33660046122f9565b61070d565b6101c2610724565b61019a6102de3660046123a1565b61074a565b6101fa6102f13660046124f5565b610795565b6101fa6103043660046125af565b6107ab565b6102817f6d696e746572000000000000000000000000000000000000000000000000000081565b6101fa61033e3660046123a1565b6107c5565b61019a61035136600461268d565b6107e8565b6101fa6103643660046126b7565b61082b565b6101fa610377366004612453565b610841565b60006103c38261038a6108ed565b907fffffffff00000000000000000000000000000000000000000000000000000000166000908152602091909152604090205460ff1690565b92915050565b60006103c3826103d7610855565b90610bea565b6103f33383836103eb610855565b929190610ccd565b5050565b61040f33848484610406610855565b93929190610f89565b505050565b3361042781610421610975565b90610faf565b61040f838383610435611032565b929190611060565b6104727f6d696e7465720000000000000000000000000000000000000000000000000000335b61046b611032565b9190611136565b6103f3338383604051806020016040528060008152506000610492610855565b94939291906111e2565b61040f338484846104ab610855565b939291906112ef565b6104de7f6d696e746572000000000000000000000000000000000000000000000000000033610463565b61040f8383838080602002602001604051908101604052809392919081815260200183836020028082843760009201919091525061051f9250610855915050565b919061130e565b600080610531610855565b60008481526001919091016020526040902054905073ffffffffffffffffffffffffffffffffffffffff81166103c3576040517f08c379a000000000000000000000000000000000000000000000000000000000815260206004820152601860248201527f4552433732313a206e6f6e2d6578697374696e67204e4654000000000000000060448201526064015b60405180910390fd5b600073ffffffffffffffffffffffffffffffffffffffff8216610647576040517f08c379a000000000000000000000000000000000000000000000000000000000815260206004820152601460248201527f4552433732313a207a65726f206164647265737300000000000000000000000060448201526064016105bf565b61064f610855565b73ffffffffffffffffffffffffffffffffffffffff909216600090815260029290920160205250604090205490565b6103f333838361068c610855565b92919061145b565b6106be7f6d696e746572000000000000000000000000000000000000000000000000000033610463565b61070733858585858080601f0160208091040260200160405190810160405280939291908181526020018383808284376000920191909152506001925061049291506108559050565b50505050565b610721338261071a611032565b91906114c5565b50565b600061072e610975565b5473ffffffffffffffffffffffffffffffffffffffff16919050565b600061078e8383610759611032565b60009283526020908152604080842073ffffffffffffffffffffffffffffffffffffffff909316845291905290205460ff1690565b9392505050565b6103f33383836107a3610855565b929190611569565b61070733858585856107bb610855565b9493929190611695565b336107d281610421610975565b61040f8383836107e0611032565b9291906116a5565b60006107f2610855565b73ffffffffffffffffffffffffffffffffffffffff93841660009081526020918252604080822094909516815292905250205460ff1690565b6103f3338383610839610855565b92919061176f565b610721338261084e610975565b9190611859565b6000806103c360017fddf3ee18ae6d688373c219468f8be446e7ae82215f4779d821c7ea5e8c13c0c161279f565b6108b86108b160017ffddcdbf8ca7eb362a678daf3643ce3cf98ebf69ac314d25d376d5aeabd2f533261279f565b6001610b77565b6107217f80ac58cd0000000000000000000000000000000000000000000000000000000060016108e66108ed565b9190610a87565b6000806103c360017f7180ffa89c91cf90d6c56dacabfc69bc5e36f3099d7eed2f5cc12c5dba016fe061279f565b6109496108b160017f947245cdabe12ef4c13574b38217b361de48f57dd2dc345f43703c79bac2873d61279f565b610721817f01ffc9a7000000000000000000000000000000000000000000000000000000006001610a87565b6000806103c360017f6a1da6973104ff7dedb9b4f5cab5830b3f4a0284ed754366cfc45568bd2d38df61279f565b6109d16108b160017ff1e2f4de496ffe5d046d751d8ec3c329ee011c6c6a229322971a7e02a207f97361279f565b73ffffffffffffffffffffffffffffffffffffffff811615610a595781547fffffffffffffffffffffffff00000000000000000000000000000000000000001673ffffffffffffffffffffffffffffffffffffffff821690811783556040516000907f8be0079c531659141344cd1fd0a4f28419497f9722a3daafe3b4186f6b6457e0908290a35b6103f37f7f5828d00000000000000000000000000000000000000000000000000000000060016108e66108ed565b7fffffffff000000000000000000000000000000000000000000000000000000008083169003610b13576040517f08c379a000000000000000000000000000000000000000000000000000000000815260206004820152601f60248201527f496e74657266616365446574656374696f6e3a2077726f6e672076616c75650060448201526064016105bf565b7fffffffff00000000000000000000000000000000000000000000000000000000919091166000908152602092909252604090912080547fffffffffffffffffffffffffffffffffffffffffffffffffffffffffffffff0016911515919091179055565b815482908211610be3576040517f08c379a000000000000000000000000000000000000000000000000000000000815260206004820152601860248201527f53746f726167653a2076657273696f6e2072656163686564000000000000000060448201526064016105bf565b5550565b90565b600081815260018301602052604081205473ffffffffffffffffffffffffffffffffffffffff8116610c78576040517f08c379a000000000000000000000000000000000000000000000000000000000815260206004820152601860248201527f4552433732313a206e6f6e2d6578697374696e67204e4654000000000000000060448201526064016105bf565b74010000000000000000000000000000000000000000811615610cc3575050600081815260038301602052604090205473ffffffffffffffffffffffffffffffffffffffff166103c3565b60009150506103c3565b600081815260018501602052604081205490819003610d48576040517f08c379a000000000000000000000000000000000000000000000000000000000815260206004820152601860248201527f4552433732313a206e6f6e2d6578697374696e67204e4654000000000000000060448201526064016105bf565b8073ffffffffffffffffffffffffffffffffffffffff80821690851603610dcb576040517f08c379a000000000000000000000000000000000000000000000000000000000815260206004820152601560248201527f4552433732313a2073656c662d617070726f76616c000000000000000000000060448201526064016105bf565b610dd6868287611985565b610e3c576040517f08c379a000000000000000000000000000000000000000000000000000000000815260206004820152601b60248201527f4552433732313a206e6f6e2d617070726f7665642073656e646572000000000060448201526064016105bf565b73ffffffffffffffffffffffffffffffffffffffff8416610ea35774010000000000000000000000000000000000000000821615610e9e576000838152600187016020526040902073ffffffffffffffffffffffffffffffffffffffff821690555b610f26565b740100000000000000000000000000000000000000008217808314610ed657600084815260018801602052604090208190555b506000838152600387016020526040902080547fffffffffffffffffffffffff00000000000000000000000000000000000000001673ffffffffffffffffffffffffffffffffffffffff86161790555b828473ffffffffffffffffffffffffffffffffffffffff168273ffffffffffffffffffffffffffffffffffffffff167f8c5be1e5ebec7d5bd14f71427d1e84f3dd0314c0f7b2291e5b200ac8c7c3b92560405160405180910390a4505050505050565b610fa885858585856040518060200160405280600081525060006119f9565b5050505050565b815473ffffffffffffffffffffffffffffffffffffffff8281169116146103f3576040517f08c379a000000000000000000000000000000000000000000000000000000000815260206004820152601860248201527f4f776e6572736869703a206e6f7420746865206f776e6572000000000000000060448201526064016105bf565b6000806103c360017fc8a24fbf085abf1493c5f225802d03df3ece6cd19f18edff36c56d854cddac9e61279f565b60008381526020858152604080832073ffffffffffffffffffffffffffffffffffffffff8616845290915290205460ff166107075760008381526020858152604080832073ffffffffffffffffffffffffffffffffffffffff8681168086529184529382902080547fffffffffffffffffffffffffffffffffffffffffffffffffffffffffffffff00166001179055815187815292830152918316918101919091527f2f8788117e7eff1d82e926ec794901d17c78024a50270940304540a733656f0d906060015b60405180910390a150505050565b60008281526020848152604080832073ffffffffffffffffffffffffffffffffffffffff8516845290915290205460ff1661040f5761117482611b2f565b60405160200161118491906127e2565b604080517fffffffffffffffffffffffffffffffffffffffffffffffffffffffffffffffe0818403018152908290527f08c379a00000000000000000000000000000000000000000000000000000000082526105bf91600401612898565b73ffffffffffffffffffffffffffffffffffffffff841661125f576040517f08c379a000000000000000000000000000000000000000000000000000000000815260206004820152601460248201527f4552433732313a206d696e7420746f207a65726f00000000000000000000000060448201526064016105bf565b61126c8685856000611cb9565b604051839073ffffffffffffffffffffffffffffffffffffffff8616906000907fddf252ad1be2c89b69c2b068fc378daa952ba7f163c4a11628f55a4df523b3ef908290a48080156112d4575073ffffffffffffffffffffffffffffffffffffffff84163b15155b156112e7576112e7856000868686611d9e565b505050505050565b610fa885858585856040518060200160405280600081525060016119f9565b73ffffffffffffffffffffffffffffffffffffffff821661138b576040517f08c379a000000000000000000000000000000000000000000000000000000000815260206004820152601460248201527f4552433732313a206d696e7420746f207a65726f00000000000000000000000060448201526064016105bf565b805160005b8181146114185760008382815181106113ab576113ab6128ab565b602002602001015190506113c28686836001611cb9565b604051819073ffffffffffffffffffffffffffffffffffffffff8716906000907fddf252ad1be2c89b69c2b068fc378daa952ba7f163c4a11628f55a4df523b3ef908290a450611411816128da565b9050611390565b5073ffffffffffffffffffffffffffffffffffffffff8316600090815260028501602052604081208054839290611450908490612912565b909155505050505050565b6000611468858486611985565b905061147985858585856000611ec4565b604051829060009073ffffffffffffffffffffffffffffffffffffffff8616907fddf252ad1be2c89b69c2b068fc378daa952ba7f163c4a11628f55a4df523b3ef908390a45050505050565b6114d0838284611136565b60008181526020848152604080832073ffffffffffffffffffffffffffffffffffffffff86168085529083529281902080547fffffffffffffffffffffffffffffffffffffffffffffffffffffffffffffff0016905580518481529182018390528101919091527ff6391f5c32d9c69d2a47ea670b442974b53935d1edc7fd64eb21e047a839171b9060600160405180910390a1505050565b8273ffffffffffffffffffffffffffffffffffffffff168273ffffffffffffffffffffffffffffffffffffffff16036115fe576040517f08c379a000000000000000000000000000000000000000000000000000000000815260206004820152601560248201527f4552433732313a2073656c662d617070726f76616c000000000000000000000060448201526064016105bf565b73ffffffffffffffffffffffffffffffffffffffff8381166000818152602087815260408083209487168084529482529182902080547fffffffffffffffffffffffffffffffffffffffffffffffffffffffffffffff001686151590811790915591519182527f17307eab39ab6107e8899845ad3d59bd9653f200f220920489ca2b5937696c31910160405180910390a350505050565b6112e786868686868660016119f9565b60008381526020858152604080832073ffffffffffffffffffffffffffffffffffffffff8616845290915290205460ff16156107075760008381526020858152604080832073ffffffffffffffffffffffffffffffffffffffff8681168086529184529382902080547fffffffffffffffffffffffffffffffffffffffffffffffffffffffffffffff00169055815187815292830152918316918101919091527ff6391f5c32d9c69d2a47ea670b442974b53935d1edc7fd64eb21e047a839171b90606001611128565b600061177c858486611985565b825190915060005b81811461180e57600084828151811061179f5761179f6128ab565b602002602001015190506117b888888884886001611ec4565b604051819060009073ffffffffffffffffffffffffffffffffffffffff8916907fddf252ad1be2c89b69c2b068fc378daa952ba7f163c4a11628f55a4df523b3ef908390a450611807816128da565b9050611784565b5080156112e75773ffffffffffffffffffffffffffffffffffffffff841660009081526002870160205260408120805483929061184c90849061279f565b9091555050505050505050565b825473ffffffffffffffffffffffffffffffffffffffff90811690831681146118de576040517f08c379a000000000000000000000000000000000000000000000000000000000815260206004820152601860248201527f4f776e6572736869703a206e6f7420746865206f776e6572000000000000000060448201526064016105bf565b8173ffffffffffffffffffffffffffffffffffffffff168173ffffffffffffffffffffffffffffffffffffffff16146107075783547fffffffffffffffffffffffff00000000000000000000000000000000000000001673ffffffffffffffffffffffffffffffffffffffff8381169182178655604051908316907f8be0079c531659141344cd1fd0a4f28419497f9722a3daafe3b4186f6b6457e090600090a350505050565b60008173ffffffffffffffffffffffffffffffffffffffff168373ffffffffffffffffffffffffffffffffffffffff1614806119f1575073ffffffffffffffffffffffffffffffffffffffff8084166000908152602086815260408083209386168352929052205460ff165b949350505050565b73ffffffffffffffffffffffffffffffffffffffff8416611a76576040517f08c379a000000000000000000000000000000000000000000000000000000000815260206004820152601860248201527f4552433732313a207472616e7366657220746f207a65726f000000000000000060448201526064016105bf565b6000611a83888789611985565b9050611a958888888888866000612086565b838573ffffffffffffffffffffffffffffffffffffffff168773ffffffffffffffffffffffffffffffffffffffff167fddf252ad1be2c89b69c2b068fc378daa952ba7f163c4a11628f55a4df523b3ef60405160405180910390a4818015611b13575073ffffffffffffffffffffffffffffffffffffffff85163b15155b15611b2557611b258787878787611d9e565b5050505050505050565b60606000829003611b4e57505060408051602081019091526000815290565b600082604051602001611b6391815260200190565b604080517fffffffffffffffffffffffffffffffffffffffffffffffffffffffffffffffe08184030181529190529050601f5b818181518110611ba857611ba86128ab565b01602001517fff0000000000000000000000000000000000000000000000000000000000000016600003611be657611bdf8161292a565b9050611b96565b6000611bf3826001612912565b67ffffffffffffffff811115611c0b57611c0b612531565b6040519080825280601f01601f191660200182016040528015611c35576020820181803683370190505b50905060005b828111611cb057838181518110611c5457611c546128ab565b602001015160f81c60f81b828281518110611c7157611c716128ab565b60200101907effffffffffffffffffffffffffffffffffffffffffffffffffffffffffffff1916908160001a905350611ca9816128da565b9050611c3b565b50949350505050565b600082815260018501602052604090205415611d31576040517f08c379a000000000000000000000000000000000000000000000000000000000815260206004820152601a60248201527f4552433732313a206578697374696e672f6275726e74204e465400000000000060448201526064016105bf565b6000828152600185016020526040902073ffffffffffffffffffffffffffffffffffffffff84169055806107075773ffffffffffffffffffffffffffffffffffffffff8316600090815260028501602052604081208054909190611d94906128da565b9091555050505050565b6040517f150b7a02000000000000000000000000000000000000000000000000000000008082529073ffffffffffffffffffffffffffffffffffffffff85169063150b7a0290611df890899089908890889060040161295f565b6020604051808303816000875af1158015611e17573d6000803e3d6000fd5b505050506040513d601f19601f82011682018060405250810190611e3b91906129a8565b7fffffffff000000000000000000000000000000000000000000000000000000001614610fa8576040517f08c379a000000000000000000000000000000000000000000000000000000000815260206004820152601860248201527f4552433732313a207472616e736665722072656675736564000000000000000060448201526064016105bf565b600083815260018701602052604090205473ffffffffffffffffffffffffffffffffffffffff85811690821614611f57576040517f08c379a000000000000000000000000000000000000000000000000000000000815260206004820152601560248201527f4552433732313a206e6f6e2d6f776e6564204e4654000000000000000000000060448201526064016105bf565b826120105774010000000000000000000000000000000000000000811615801590611faa5750600084815260038801602052604090205473ffffffffffffffffffffffffffffffffffffffff8781169116145b612010576040517f08c379a000000000000000000000000000000000000000000000000000000000815260206004820152601b60248201527f4552433732313a206e6f6e2d617070726f7665642073656e646572000000000060448201526064016105bf565b600084815260018801602052604090207fdead00000000000000000000000000000000000000000000000000000000000090558161207d5773ffffffffffffffffffffffffffffffffffffffff851660009081526002880160205260408120805490919061184c9061292a565b50505050505050565b600083815260018801602052604090205473ffffffffffffffffffffffffffffffffffffffff86811690821614612119576040517f08c379a000000000000000000000000000000000000000000000000000000000815260206004820152601560248201527f4552433732313a206e6f6e2d6f776e6564204e4654000000000000000000000060448201526064016105bf565b826121d2577401000000000000000000000000000000000000000081161580159061216c5750600084815260038901602052604090205473ffffffffffffffffffffffffffffffffffffffff8881169116145b6121d2576040517f08c379a000000000000000000000000000000000000000000000000000000000815260206004820152601b60248201527f4552433732313a206e6f6e2d617070726f7665642073656e646572000000000060448201526064016105bf565b6000848152600189016020526040902073ffffffffffffffffffffffffffffffffffffffff8616905581611b2557611b2588878760018173ffffffffffffffffffffffffffffffffffffffff168373ffffffffffffffffffffffffffffffffffffffff16146107075773ffffffffffffffffffffffffffffffffffffffff831660009081526002850160205260408120805483929061227290849061279f565b909155505073ffffffffffffffffffffffffffffffffffffffff8216600090815260028501602052604081208054839290611450908490612912565b7fffffffff000000000000000000000000000000000000000000000000000000008116811461072157600080fd5b6000602082840312156122ee57600080fd5b813561078e816122ae565b60006020828403121561230b57600080fd5b5035919050565b803573ffffffffffffffffffffffffffffffffffffffff8116811461233657600080fd5b919050565b6000806040838503121561234e57600080fd5b61235783612312565b946020939093013593505050565b60008060006060848603121561237a57600080fd5b61238384612312565b925061239160208501612312565b9150604084013590509250925092565b600080604083850312156123b457600080fd5b823591506123c460208401612312565b90509250929050565b6000806000604084860312156123e257600080fd5b6123eb84612312565b9250602084013567ffffffffffffffff8082111561240857600080fd5b818601915086601f83011261241c57600080fd5b81358181111561242b57600080fd5b8760208260051b850101111561244057600080fd5b6020830194508093505050509250925092565b60006020828403121561246557600080fd5b61078e82612312565b6000806000806060858703121561248457600080fd5b61248d85612312565b935060208501359250604085013567ffffffffffffffff808211156124b157600080fd5b818701915087601f8301126124c557600080fd5b8135818111156124d457600080fd5b8860208285010111156124e657600080fd5b95989497505060200194505050565b6000806040838503121561250857600080fd5b61251183612312565b91506020830135801515811461252657600080fd5b809150509250929050565b7f4e487b7100000000000000000000000000000000000000000000000000000000600052604160045260246000fd5b604051601f82017fffffffffffffffffffffffffffffffffffffffffffffffffffffffffffffffe016810167ffffffffffffffff811182821017156125a7576125a7612531565b604052919050565b600080600080608085870312156125c557600080fd5b6125ce85612312565b935060206125dd818701612312565b935060408601359250606086013567ffffffffffffffff8082111561260157600080fd5b818801915088601f83011261261557600080fd5b81358181111561262757612627612531565b612657847fffffffffffffffffffffffffffffffffffffffffffffffffffffffffffffffe0601f84011601612560565b9150808252898482850101111561266d57600080fd5b808484018584013760008482840101525080935050505092959194509250565b600080604083850312156126a057600080fd5b6126a983612312565b91506123c460208401612312565b600080604083850312156126ca57600080fd5b6126d383612312565b915060208084013567ffffffffffffffff808211156126f157600080fd5b818601915086601f83011261270557600080fd5b81358181111561271757612717612531565b8060051b9150612728848301612560565b818152918301840191848101908984111561274257600080fd5b938501935b8385101561276057843582529385019390850190612747565b8096505050505050509250929050565b7f4e487b7100000000000000000000000000000000000000000000000000000000600052601160045260246000fd5b6000828210156127b1576127b1612770565b500390565b60005b838110156127d15781810151838201526020016127b9565b838111156107075750506000910152565b7f416363657373436f6e74726f6c3a206d697373696e672027000000000000000081526000825161281a8160188501602087016127b6565b7f2720726f6c6500000000000000000000000000000000000000000000000000006018939091019283015250601e01919050565b600081518084526128668160208601602086016127b6565b601f017fffffffffffffffffffffffffffffffffffffffffffffffffffffffffffffffe0169290920160200192915050565b60208152600061078e602083018461284e565b7f4e487b7100000000000000000000000000000000000000000000000000000000600052603260045260246000fd5b60007fffffffffffffffffffffffffffffffffffffffffffffffffffffffffffffffff820361290b5761290b612770565b5060010190565b6000821982111561292557612925612770565b500190565b60008161293957612939612770565b507fffffffffffffffffffffffffffffffffffffffffffffffffffffffffffffffff0190565b600073ffffffffffffffffffffffffffffffffffffffff80871683528086166020840152508360408301526080606083015261299e608083018461284e565b9695505050505050565b6000602082840312156129ba57600080fd5b815161078e816122ae56fea264697066735822122048dec3ff652481a5bc12749cab64b445baf1d8f4b92ab98b446abc05819903bc64736f6c634300080d0033",
  "linkReferences": {},
  "deployedLinkReferences": {}
}