{
  "_format": "hh-sol-artifact-1",
  "contractName": "ERC1155Facet",
  "sourceName": "contracts/token/ERC1155/facets/ERC1155Facet.sol",
  "abi": [
    {
      "inputs": [
        {
          "internalType": "contract IForwarderRegistry",
          "name": "forwarderRegistry",
          "type": "address"
        }
      ],
      "stateMutability": "nonpayable",
      "type": "constructor"
    },
    {
      "anonymous": false,
      "inputs": [
        {
          "indexed": true,
          "internalType": "address",
          "name": "owner",
          "type": "address"
        },
        {
          "indexed": true,
          "internalType": "address",
          "name": "operator",
          "type": "address"
        },
        {
          "indexed": false,
          "internalType": "bool",
          "name": "approved",
          "type": "bool"
        }
      ],
      "name": "ApprovalForAll",
      "type": "event"
    },
    {
      "anonymous": false,
      "inputs": [
        {
          "indexed": true,
          "internalType": "address",
          "name": "operator",
          "type": "address"
        },
        {
          "indexed": true,
          "internalType": "address",
          "name": "from",
          "type": "address"
        },
        {
          "indexed": true,
          "internalType": "address",
          "name": "to",
          "type": "address"
        },
        {
          "indexed": false,
          "internalType": "uint256[]",
          "name": "ids",
          "type": "uint256[]"
        },
        {
          "indexed": false,
          "internalType": "uint256[]",
          "name": "values",
          "type": "uint256[]"
        }
      ],
      "name": "TransferBatch",
      "type": "event"
    },
    {
      "anonymous": false,
      "inputs": [
        {
          "indexed": true,
          "internalType": "address",
          "name": "operator",
          "type": "address"
        },
        {
          "indexed": true,
          "internalType": "address",
          "name": "from",
          "type": "address"
        },
        {
          "indexed": true,
          "internalType": "address",
          "name": "to",
          "type": "address"
        },
        {
          "indexed": false,
          "internalType": "uint256",
          "name": "id",
          "type": "uint256"
        },
        {
          "indexed": false,
          "internalType": "uint256",
          "name": "value",
          "type": "uint256"
        }
      ],
      "name": "TransferSingle",
      "type": "event"
    },
    {
      "anonymous": false,
      "inputs": [
        {
          "indexed": false,
          "internalType": "string",
          "name": "value",
          "type": "string"
        },
        {
          "indexed": true,
          "internalType": "uint256",
          "name": "id",
          "type": "uint256"
        }
      ],
      "name": "URI",
      "type": "event"
    },
    {
      "inputs": [
        {
          "internalType": "address",
          "name": "owner",
          "type": "address"
        },
        {
          "internalType": "uint256",
          "name": "id",
          "type": "uint256"
        }
      ],
      "name": "balanceOf",
      "outputs": [
        {
          "internalType": "uint256",
          "name": "balance",
          "type": "uint256"
        }
      ],
      "stateMutability": "view",
      "type": "function"
    },
    {
      "inputs": [
        {
          "internalType": "address[]",
          "name": "owners",
          "type": "address[]"
        },
        {
          "internalType": "uint256[]",
          "name": "ids",
          "type": "uint256[]"
        }
      ],
      "name": "balanceOfBatch",
      "outputs": [
        {
          "internalType": "uint256[]",
          "name": "balances",
          "type": "uint256[]"
        }
      ],
      "stateMutability": "view",
      "type": "function"
    },
    {
      "inputs": [],
      "name": "initERC1155Storage",
      "outputs": [],
      "stateMutability": "nonpayable",
      "type": "function"
    },
    {
      "inputs": [
        {
          "internalType": "address",
          "name": "owner",
          "type": "address"
        },
        {
          "internalType": "address",
          "name": "operator",
          "type": "address"
        }
      ],
      "name": "isApprovedForAll",
      "outputs": [
        {
          "internalType": "bool",
          "name": "approvedForAll",
          "type": "bool"
        }
      ],
      "stateMutability": "view",
      "type": "function"
    },
    {
      "inputs": [
        {
          "internalType": "address",
          "name": "from",
          "type": "address"
        },
        {
          "internalType": "address",
          "name": "to",
          "type": "address"
        },
        {
          "internalType": "uint256[]",
          "name": "ids",
          "type": "uint256[]"
        },
        {
          "internalType": "uint256[]",
          "name": "values",
          "type": "uint256[]"
        },
        {
          "internalType": "bytes",
          "name": "data",
          "type": "bytes"
        }
      ],
      "name": "safeBatchTransferFrom",
      "outputs": [],
      "stateMutability": "nonpayable",
      "type": "function"
    },
    {
      "inputs": [
        {
          "internalType": "address",
          "name": "from",
          "type": "address"
        },
        {
          "internalType": "address",
          "name": "to",
          "type": "address"
        },
        {
          "internalType": "uint256",
          "name": "id",
          "type": "uint256"
        },
        {
          "internalType": "uint256",
          "name": "value",
          "type": "uint256"
        },
        {
          "internalType": "bytes",
          "name": "data",
          "type": "bytes"
        }
      ],
      "name": "safeTransferFrom",
      "outputs": [],
      "stateMutability": "nonpayable",
      "type": "function"
    },
    {
      "inputs": [
        {
          "internalType": "address",
          "name": "operator",
          "type": "address"
        },
        {
          "internalType": "bool",
          "name": "approved",
          "type": "bool"
        }
      ],
      "name": "setApprovalForAll",
      "outputs": [],
      "stateMutability": "nonpayable",
      "type": "function"
    }
  ],
  "bytecode": "0x60a060405234801561001057600080fd5b506040516118ac3803806118ac83398101604081905261002f91610040565b6001600160a01b0316608052610070565b60006020828403121561005257600080fd5b81516001600160a01b038116811461006957600080fd5b9392505050565b60805161181a61009260003960008181610c200152610ca8015261181a6000f3fe608060405234801561001057600080fd5b506004361061007c5760003560e01c8063a22cb4651161005b578063a22cb465146100dc578063c34106c8146100ef578063e985e9c5146100f7578063f242432a1461011a57600080fd5b8062fdd58e146100815780632eb2c2d6146100a75780634e1273f4146100bc575b600080fd5b61009461008f366004611235565b61012d565b6040519081526020015b60405180910390f35b6100ba6100b53660046112ed565b61014c565b005b6100cf6100ca3660046113a8565b61017f565b60405161009e919061144f565b6100ba6100ea366004611473565b610202565b6100ba610223565b61010a6101053660046114aa565b610246565b604051901515815260200161009e565b6100ba6101283660046114dd565b610294565b6000610143838361013c6102c1565b91906102ef565b90505b92915050565b6101756101576103a8565b89898989898989896101676102c1565b9897969594939291906103b7565b5050505050505050565b60606101f9858580806020026020016040519081016040528093929190818152602001838360200280828437600092019190915250506040805160208089028281018201909352888252909350889250879182918501908490808284376000920191909152506101f292506102c1915050565b91906106af565b95945050505050565b61021f61020d6103a8565b83836102176102c1565b9291906107e4565b5050565b61023c61022e6103a8565b610236610914565b90610942565b6102446109c5565b565b600061014383836102556102c1565b919073ffffffffffffffffffffffffffffffffffffffff9182166000908152600193909301602090815260408085209290931684525290205460ff1690565b6102b961029f6103a8565b8787878787876102ad6102c1565b969594939291906109fa565b505050505050565b60008061014660017f5ccf5846fa27a68fafc8e588671a68f5e67c2f9b56af4263806a4d71735e8613611555565b600073ffffffffffffffffffffffffffffffffffffffff8316610373576040517f08c379a000000000000000000000000000000000000000000000000000000000815260206004820152601e60248201527f455243313135353a2062616c616e6365206f662061646472657373283029000060448201526064015b60405180910390fd5b5060009081526020928352604080822073ffffffffffffffffffffffffffffffffffffffff9390931682529190925290205490565b60006103b2610bdd565b905090565b73ffffffffffffffffffffffffffffffffffffffff8716610434576040517f08c379a000000000000000000000000000000000000000000000000000000000815260206004820152601f60248201527f455243313135353a207472616e7366657220746f206164647265737328302900604482015260640161036a565b8483811461049e576040517f08c379a000000000000000000000000000000000000000000000000000000000815260206004820152601c60248201527f455243313135353a20696e636f6e73697374656e742061727261797300000000604482015260640161036a565b6104a98b8a8c610d24565b61050f576040517f08c379a000000000000000000000000000000000000000000000000000000000815260206004820152601c60248201527f455243313135353a206e6f6e2d617070726f7665642073656e64657200000000604482015260640161036a565b60005b81811461055e576105568c8b8b8b8b868181106105315761053161158f565b905060200201358a8a8781811061054a5761054a61158f565b90506020020135610d9c565b600101610512565b508773ffffffffffffffffffffffffffffffffffffffff168973ffffffffffffffffffffffffffffffffffffffff168b73ffffffffffffffffffffffffffffffffffffffff167f4a39dc06d4c0dbc64b70af90fd698a233a518aa5d07e595d983b8c0526c8f7fb8a8a8a8a6040516105d99493929190611609565b60405180910390a473ffffffffffffffffffffffffffffffffffffffff88163b156106a2576106a28a8a8a8a8a8080602002602001604051908101604052809392919081815260200183836020028082843760009201919091525050604080516020808e0282810182019093528d82529093508d92508c91829185019084908082843760009201919091525050604080516020601f8d018190048102820181019092528b815292508b91508a9081908401838280828437600092019190915250610f4e92505050565b5050505050505050505050565b8151815160609190811461071f576040517f08c379a000000000000000000000000000000000000000000000000000000000815260206004820152601c60248201527f455243313135353a20696e636f6e73697374656e742061727261797300000000604482015260640161036a565b835167ffffffffffffffff8111156107395761073961163b565b604051908082528060200260200182016040528015610762578160200160208202803683370190505b50915060005b8181146107db576107b68582815181106107845761078461158f565b602002602001015185838151811061079e5761079e61158f565b6020026020010151886102ef9092919063ffffffff16565b8382815181106107c8576107c861158f565b6020908102919091010152600101610768565b50509392505050565b8273ffffffffffffffffffffffffffffffffffffffff168273ffffffffffffffffffffffffffffffffffffffff1603610879576040517f08c379a000000000000000000000000000000000000000000000000000000000815260206004820152601e60248201527f455243313135353a2073656c662d617070726f76616c20666f7220616c6c0000604482015260640161036a565b73ffffffffffffffffffffffffffffffffffffffff838116600081815260018701602090815260408083209487168084529482529182902080547fffffffffffffffffffffffffffffffffffffffffffffffffffffffffffffff001686151590811790915591519182527f17307eab39ab6107e8899845ad3d59bd9653f200f220920489ca2b5937696c31910160405180910390a350505050565b60008061014660017fb53127684a568b3173ae13b9f8a6016e243e63b6e8ee1178d6a717850b5d6104611555565b815473ffffffffffffffffffffffffffffffffffffffff82811691161461021f576040517f08c379a000000000000000000000000000000000000000000000000000000000815260206004820152601960248201527f50726f787941646d696e3a206e6f74207468652061646d696e00000000000000604482015260640161036a565b6102447fd9b67a260000000000000000000000000000000000000000000000000000000060016109f3611076565b91906110a4565b73ffffffffffffffffffffffffffffffffffffffff8516610a77576040517f08c379a000000000000000000000000000000000000000000000000000000000815260206004820152601f60248201527f455243313135353a207472616e7366657220746f206164647265737328302900604482015260640161036a565b610a82888789610d24565b610ae8576040517f08c379a000000000000000000000000000000000000000000000000000000000815260206004820152601c60248201527f455243313135353a206e6f6e2d617070726f7665642073656e64657200000000604482015260640161036a565b610af58887878787610d9c565b8473ffffffffffffffffffffffffffffffffffffffff168673ffffffffffffffffffffffffffffffffffffffff168873ffffffffffffffffffffffffffffffffffffffff167fc3d58168c5ae7397731d063d5bbf3d657854427343f4c083240f7aacaa2d0f628787604051610b74929190918252602082015260400190565b60405180910390a473ffffffffffffffffffffffffffffffffffffffff85163b1561017557610175878787878787878080601f0160208091040260200160405190810160405280939291908181526020018383808284376000920191909152506111b092505050565b600033321480610bed5750601836105b15610bf757503390565b7fffffffffffffffffffffffffffffffffffffffffffffffffffffffffffffffec36013560601c7f000000000000000000000000000000000000000000000000000000000000000073ffffffffffffffffffffffffffffffffffffffff16331480610d1357506040517f8929a8ca00000000000000000000000000000000000000000000000000000000815273ffffffffffffffffffffffffffffffffffffffff82811660048301523360248301527f00000000000000000000000000000000000000000000000000000000000000001690638929a8ca90604401602060405180830381865afa158015610cef573d6000803e3d6000fd5b505050506040513d601f19601f82011682018060405250810190610d13919061166a565b15610d1d57919050565b3391505090565b60008173ffffffffffffffffffffffffffffffffffffffff168373ffffffffffffffffffffffffffffffffffffffff161480610d94575073ffffffffffffffffffffffffffffffffffffffff808416600090815260018601602090815260408083209386168352929052205460ff165b949350505050565b8015610f475760008281526020868152604080832073ffffffffffffffffffffffffffffffffffffffff88168452909152902054818103818110610e3c576040517f08c379a000000000000000000000000000000000000000000000000000000000815260206004820152601d60248201527f455243313135353a20696e73756666696369656e742062616c616e6365000000604482015260640161036a565b8473ffffffffffffffffffffffffffffffffffffffff168673ffffffffffffffffffffffffffffffffffffffff1614610f445760008481526020888152604080832073ffffffffffffffffffffffffffffffffffffffff89168452909152902054838101818111610f09576040517f08c379a000000000000000000000000000000000000000000000000000000000815260206004820152601960248201527f455243313135353a2062616c616e6365206f766572666c6f7700000000000000604482015260640161036a565b600086815260208a8152604080832073ffffffffffffffffffffffffffffffffffffffff8c8116855292528083208690559089168252902055505b50505b5050505050565b6040517fbc197c81000000000000000000000000000000000000000000000000000000008082529073ffffffffffffffffffffffffffffffffffffffff86169063bc197c8190610faa908a908a908990899089906004016116f2565b6020604051808303816000875af1158015610fc9573d6000803e3d6000fd5b505050506040513d601f19601f82011682018060405250810190610fed919061175d565b7fffffffff0000000000000000000000000000000000000000000000000000000016146102b9576040517f08c379a000000000000000000000000000000000000000000000000000000000815260206004820152601a60248201527f455243313135353a207472616e736665722072656a6563746564000000000000604482015260640161036a565b60008061014660017fca9d3e17f264b0f3984e2634e94adb37fa3e6a8103f06aeae6fa59e21c769f5e611555565b7c01000000000000000000000000000000000000000000000000000000007fffffffff0000000000000000000000000000000000000000000000000000000083160161114c576040517f08c379a000000000000000000000000000000000000000000000000000000000815260206004820152601f60248201527f496e74657266616365446574656374696f6e3a2077726f6e672076616c756500604482015260640161036a565b7fffffffff00000000000000000000000000000000000000000000000000000000919091166000908152602092909252604090912080547fffffffffffffffffffffffffffffffffffffffffffffffffffffffffffffff0016911515919091179055565b6040517ff23a6e61000000000000000000000000000000000000000000000000000000008082529073ffffffffffffffffffffffffffffffffffffffff86169063f23a6e6190610faa908a908a9089908990899060040161179f565b803573ffffffffffffffffffffffffffffffffffffffff8116811461123057600080fd5b919050565b6000806040838503121561124857600080fd5b6112518361120c565b946020939093013593505050565b60008083601f84011261127157600080fd5b50813567ffffffffffffffff81111561128957600080fd5b6020830191508360208260051b85010111156112a457600080fd5b9250929050565b60008083601f8401126112bd57600080fd5b50813567ffffffffffffffff8111156112d557600080fd5b6020830191508360208285010111156112a457600080fd5b60008060008060008060008060a0898b03121561130957600080fd5b6113128961120c565b975061132060208a0161120c565b9650604089013567ffffffffffffffff8082111561133d57600080fd5b6113498c838d0161125f565b909850965060608b013591508082111561136257600080fd5b61136e8c838d0161125f565b909650945060808b013591508082111561138757600080fd5b506113948b828c016112ab565b999c989b5096995094979396929594505050565b600080600080604085870312156113be57600080fd5b843567ffffffffffffffff808211156113d657600080fd5b6113e28883890161125f565b909650945060208701359150808211156113fb57600080fd5b506114088782880161125f565b95989497509550505050565b600081518084526020808501945080840160005b8381101561144457815187529582019590820190600101611428565b509495945050505050565b6020815260006101436020830184611414565b801515811461147057600080fd5b50565b6000806040838503121561148657600080fd5b61148f8361120c565b9150602083013561149f81611462565b809150509250929050565b600080604083850312156114bd57600080fd5b6114c68361120c565b91506114d46020840161120c565b90509250929050565b60008060008060008060a087890312156114f657600080fd5b6114ff8761120c565b955061150d6020880161120c565b94506040870135935060608701359250608087013567ffffffffffffffff81111561153757600080fd5b61154389828a016112ab565b979a9699509497509295939492505050565b81810381811115610146577f4e487b7100000000000000000000000000000000000000000000000000000000600052601160045260246000fd5b7f4e487b7100000000000000000000000000000000000000000000000000000000600052603260045260246000fd5b81835260007f07ffffffffffffffffffffffffffffffffffffffffffffffffffffffffffffff8311156115f057600080fd5b8260051b80836020870137939093016020019392505050565b60408152600061161d6040830186886115be565b82810360208401526116308185876115be565b979650505050505050565b7f4e487b7100000000000000000000000000000000000000000000000000000000600052604160045260246000fd5b60006020828403121561167c57600080fd5b815161168781611462565b9392505050565b6000815180845260005b818110156116b457602081850181015186830182015201611698565b5060006020828601015260207fffffffffffffffffffffffffffffffffffffffffffffffffffffffffffffffe0601f83011685010191505092915050565b600073ffffffffffffffffffffffffffffffffffffffff808816835280871660208401525060a0604083015261172b60a0830186611414565b828103606084015261173d8186611414565b90508281036080840152611751818561168e565b98975050505050505050565b60006020828403121561176f57600080fd5b81517fffffffff000000000000000000000000000000000000000000000000000000008116811461168757600080fd5b600073ffffffffffffffffffffffffffffffffffffffff808816835280871660208401525084604083015283606083015260a0608083015261163060a083018461168e56fea2646970667358221220669fc944fda994387373ae38826e2530bdfd814527c6ca4924b485878184189b64736f6c63430008110033",
  "linkReferences": {},
  "deployedLinkReferences": {}
}