{
  "_format": "hh-sol-artifact-1",
  "contractName": "ERC1155Facet",
  "sourceName": "contracts/token/ERC1155/facets/ERC1155Facet.sol",
  "abi": [
    {
      "inputs": [
        {
          "internalType": "contract IForwarderRegistry",
          "name": "forwarderRegistry",
          "type": "address"
        }
      ],
      "stateMutability": "nonpayable",
      "type": "constructor"
    },
    {
      "anonymous": false,
      "inputs": [
        {
          "indexed": true,
          "internalType": "address",
          "name": "owner",
          "type": "address"
        },
        {
          "indexed": true,
          "internalType": "address",
          "name": "operator",
          "type": "address"
        },
        {
          "indexed": false,
          "internalType": "bool",
          "name": "approved",
          "type": "bool"
        }
      ],
      "name": "ApprovalForAll",
      "type": "event"
    },
    {
      "anonymous": false,
      "inputs": [
        {
          "indexed": true,
          "internalType": "address",
          "name": "operator",
          "type": "address"
        },
        {
          "indexed": true,
          "internalType": "address",
          "name": "from",
          "type": "address"
        },
        {
          "indexed": true,
          "internalType": "address",
          "name": "to",
          "type": "address"
        },
        {
          "indexed": false,
          "internalType": "uint256[]",
          "name": "ids",
          "type": "uint256[]"
        },
        {
          "indexed": false,
          "internalType": "uint256[]",
          "name": "values",
          "type": "uint256[]"
        }
      ],
      "name": "TransferBatch",
      "type": "event"
    },
    {
      "anonymous": false,
      "inputs": [
        {
          "indexed": true,
          "internalType": "address",
          "name": "operator",
          "type": "address"
        },
        {
          "indexed": true,
          "internalType": "address",
          "name": "from",
          "type": "address"
        },
        {
          "indexed": true,
          "internalType": "address",
          "name": "to",
          "type": "address"
        },
        {
          "indexed": false,
          "internalType": "uint256",
          "name": "id",
          "type": "uint256"
        },
        {
          "indexed": false,
          "internalType": "uint256",
          "name": "value",
          "type": "uint256"
        }
      ],
      "name": "TransferSingle",
      "type": "event"
    },
    {
      "anonymous": false,
      "inputs": [
        {
          "indexed": false,
          "internalType": "string",
          "name": "value",
          "type": "string"
        },
        {
          "indexed": true,
          "internalType": "uint256",
          "name": "id",
          "type": "uint256"
        }
      ],
      "name": "URI",
      "type": "event"
    },
    {
      "inputs": [
        {
          "internalType": "address",
          "name": "owner",
          "type": "address"
        },
        {
          "internalType": "uint256",
          "name": "id",
          "type": "uint256"
        }
      ],
      "name": "balanceOf",
      "outputs": [
        {
          "internalType": "uint256",
          "name": "balance",
          "type": "uint256"
        }
      ],
      "stateMutability": "view",
      "type": "function"
    },
    {
      "inputs": [
        {
          "internalType": "address[]",
          "name": "owners",
          "type": "address[]"
        },
        {
          "internalType": "uint256[]",
          "name": "ids",
          "type": "uint256[]"
        }
      ],
      "name": "balanceOfBatch",
      "outputs": [
        {
          "internalType": "uint256[]",
          "name": "balances",
          "type": "uint256[]"
        }
      ],
      "stateMutability": "view",
      "type": "function"
    },
    {
      "inputs": [],
      "name": "initERC1155Storage",
      "outputs": [],
      "stateMutability": "nonpayable",
      "type": "function"
    },
    {
      "inputs": [
        {
          "internalType": "address",
          "name": "owner",
          "type": "address"
        },
        {
          "internalType": "address",
          "name": "operator",
          "type": "address"
        }
      ],
      "name": "isApprovedForAll",
      "outputs": [
        {
          "internalType": "bool",
          "name": "approvedForAll",
          "type": "bool"
        }
      ],
      "stateMutability": "view",
      "type": "function"
    },
    {
      "inputs": [
        {
          "internalType": "address",
          "name": "from",
          "type": "address"
        },
        {
          "internalType": "address",
          "name": "to",
          "type": "address"
        },
        {
          "internalType": "uint256[]",
          "name": "ids",
          "type": "uint256[]"
        },
        {
          "internalType": "uint256[]",
          "name": "values",
          "type": "uint256[]"
        },
        {
          "internalType": "bytes",
          "name": "data",
          "type": "bytes"
        }
      ],
      "name": "safeBatchTransferFrom",
      "outputs": [],
      "stateMutability": "nonpayable",
      "type": "function"
    },
    {
      "inputs": [
        {
          "internalType": "address",
          "name": "from",
          "type": "address"
        },
        {
          "internalType": "address",
          "name": "to",
          "type": "address"
        },
        {
          "internalType": "uint256",
          "name": "id",
          "type": "uint256"
        },
        {
          "internalType": "uint256",
          "name": "value",
          "type": "uint256"
        },
        {
          "internalType": "bytes",
          "name": "data",
          "type": "bytes"
        }
      ],
      "name": "safeTransferFrom",
      "outputs": [],
      "stateMutability": "nonpayable",
      "type": "function"
    },
    {
      "inputs": [
        {
          "internalType": "address",
          "name": "operator",
          "type": "address"
        },
        {
          "internalType": "bool",
          "name": "approved",
          "type": "bool"
        }
      ],
      "name": "setApprovalForAll",
      "outputs": [],
      "stateMutability": "nonpayable",
      "type": "function"
    }
  ],
  "bytecode": "0x60a060405234801561001057600080fd5b5060405161195e38038061195e83398101604081905261002f91610040565b6001600160a01b0316608052610070565b60006020828403121561005257600080fd5b81516001600160a01b038116811461006957600080fd5b9392505050565b6080516118cc61009260003960008181610c200152610cc001526118cc6000f3fe608060405234801561001057600080fd5b506004361061007c5760003560e01c8063a22cb4651161005b578063a22cb465146100dc578063c34106c8146100ef578063e985e9c5146100f7578063f242432a1461011a57600080fd5b8062fdd58e146100815780632eb2c2d6146100a75780634e1273f4146100bc575b600080fd5b61009461008f3660046112d8565b61012d565b6040519081526020015b60405180910390f35b6100ba6100b5366004611390565b61014a565b005b6100cf6100ca36600461144b565b61020e565b60405161009e91906114f2565b6100ba6100ea366004611516565b610291565b6100ba6102b2565b61010a61010536600461154d565b6102d5565b604051901515815260200161009e565b6100ba610128366004611580565b610323565b6000610143838361013c610385565b91906103b9565b9392505050565b610204610155610472565b898989898080602002602001604051908101604052809392919081815260200183836020028082843760009201919091525050604080516020808d0282810182019093528c82529093508c92508b91829185019084908082843760009201919091525050604080516020601f8c018190048102820181019092528a815292508a91508990819084018382808284376000920191909152506101f99250610385915050565b959493929190610481565b5050505050505050565b6060610288858580806020026020016040519081016040528093929190818152602001838360200280828437600092019190915250506040805160208089028281018201909352888252909350889250879182918501908490808284376000920191909152506102819250610385915050565b91906106e7565b95945050505050565b6102ae61029c610472565b83836102a6610385565b929190610821565b5050565b6102cb6102bd610472565b6102c5610951565b9061097f565b6102d3610a02565b565b600061014383836102e4610385565b919073ffffffffffffffffffffffffffffffffffffffff9182166000908152600193909301602090815260408085209290931684525290205460ff1690565b61037d61032e610472565b8787878787878080601f0160208091040260200160405190810160405280939291908181526020018383808284376000920191909152506103729250610385915050565b959493929190610a37565b505050505050565b6000806103b360017f5ccf5846fa27a68fafc8e588671a68f5e67c2f9b56af4263806a4d71735e8613611627565b92915050565b600073ffffffffffffffffffffffffffffffffffffffff831661043d576040517f08c379a000000000000000000000000000000000000000000000000000000000815260206004820152601560248201527f455243313135353a207a65726f2061646472657373000000000000000000000060448201526064015b60405180910390fd5b5060009081526020928352604080822073ffffffffffffffffffffffffffffffffffffffff9390931682529190925290205490565b600061047c610be4565b905090565b73ffffffffffffffffffffffffffffffffffffffff84166104fe576040517f08c379a000000000000000000000000000000000000000000000000000000000815260206004820152601960248201527f455243313135353a207472616e7366657220746f207a65726f000000000000006044820152606401610434565b8151835114610569576040517f08c379a000000000000000000000000000000000000000000000000000000000815260206004820152601c60248201527f455243313135353a20696e636f6e73697374656e7420617272617973000000006044820152606401610434565b610574878688610d3c565b6105da576040517f08c379a000000000000000000000000000000000000000000000000000000000815260206004820152601c60248201527f455243313135353a206e6f6e2d617070726f7665642073656e646572000000006044820152606401610434565b60005b83518114610634576106248887878785815181106105fd576105fd61163e565b60200260200101518786815181106106175761061761163e565b6020026020010151610db4565b61062d8161166d565b90506105dd565b508373ffffffffffffffffffffffffffffffffffffffff168573ffffffffffffffffffffffffffffffffffffffff168773ffffffffffffffffffffffffffffffffffffffff167f4a39dc06d4c0dbc64b70af90fd698a233a518aa5d07e595d983b8c0526c8f7fb86866040516106ab9291906116a5565b60405180910390a473ffffffffffffffffffffffffffffffffffffffff84163b156106de576106de868686868686610ff1565b50505050505050565b60608151835114610754576040517f08c379a000000000000000000000000000000000000000000000000000000000815260206004820152601c60248201527f455243313135353a20696e636f6e73697374656e7420617272617973000000006044820152606401610434565b825167ffffffffffffffff81111561076e5761076e6116ca565b604051908082528060200260200182016040528015610797578160200160208202803683370190505b50905060005b83518114610819576107ec8482815181106107ba576107ba61163e565b60200260200101518483815181106107d4576107d461163e565b6020026020010151876103b99092919063ffffffff16565b8282815181106107fe576107fe61163e565b60209081029190910101526108128161166d565b905061079d565b509392505050565b8273ffffffffffffffffffffffffffffffffffffffff168273ffffffffffffffffffffffffffffffffffffffff16036108b6576040517f08c379a000000000000000000000000000000000000000000000000000000000815260206004820152601660248201527f455243313135353a2073656c662d617070726f76616c000000000000000000006044820152606401610434565b73ffffffffffffffffffffffffffffffffffffffff838116600081815260018701602090815260408083209487168084529482529182902080547fffffffffffffffffffffffffffffffffffffffffffffffffffffffffffffff001686151590811790915591519182527f17307eab39ab6107e8899845ad3d59bd9653f200f220920489ca2b5937696c31910160405180910390a350505050565b6000806103b360017fb53127684a568b3173ae13b9f8a6016e243e63b6e8ee1178d6a717850b5d6104611627565b815473ffffffffffffffffffffffffffffffffffffffff8281169116146102ae576040517f08c379a000000000000000000000000000000000000000000000000000000000815260206004820152601960248201527f50726f787941646d696e3a206e6f74207468652061646d696e000000000000006044820152606401610434565b6102d37fd9b67a26000000000000000000000000000000000000000000000000000000006001610a30611119565b9190611147565b73ffffffffffffffffffffffffffffffffffffffff8416610ab4576040517f08c379a000000000000000000000000000000000000000000000000000000000815260206004820152601960248201527f455243313135353a207472616e7366657220746f207a65726f000000000000006044820152606401610434565b610abf878688610d3c565b610b25576040517f08c379a000000000000000000000000000000000000000000000000000000000815260206004820152601c60248201527f455243313135353a206e6f6e2d617070726f7665642073656e646572000000006044820152606401610434565b610b328786868686610db4565b8373ffffffffffffffffffffffffffffffffffffffff168573ffffffffffffffffffffffffffffffffffffffff168773ffffffffffffffffffffffffffffffffffffffff167fc3d58168c5ae7397731d063d5bbf3d657854427343f4c083240f7aacaa2d0f628686604051610bb1929190918252602082015260400190565b60405180910390a473ffffffffffffffffffffffffffffffffffffffff84163b156106de576106de868686868686611253565b600033328103610bf357919050565b6000367fffffffffffffffffffffffffffffffffffffffffffffffffffffffffffffffec013560601c90507f000000000000000000000000000000000000000000000000000000000000000073ffffffffffffffffffffffffffffffffffffffff168273ffffffffffffffffffffffffffffffffffffffff161480610d2b57506040517fe60125d600000000000000000000000000000000000000000000000000000000815273ffffffffffffffffffffffffffffffffffffffff828116600483015283811660248301527f0000000000000000000000000000000000000000000000000000000000000000169063e60125d690604401602060405180830381865afa158015610d07573d6000803e3d6000fd5b505050506040513d601f19601f82011682018060405250810190610d2b91906116f9565b15610d365792915050565b50919050565b60008173ffffffffffffffffffffffffffffffffffffffff168373ffffffffffffffffffffffffffffffffffffffff161480610dac575073ffffffffffffffffffffffffffffffffffffffff808416600090815260018601602090815260408083209386168352929052205460ff165b949350505050565b80600003610e1e576040517f08c379a000000000000000000000000000000000000000000000000000000000815260206004820152601360248201527f455243313135353a207a65726f2076616c7565000000000000000000000000006044820152606401610434565b60008281526020868152604080832073ffffffffffffffffffffffffffffffffffffffff8816845290915281205490610e578383611627565b9050818110610ec2576040517f08c379a000000000000000000000000000000000000000000000000000000000815260206004820152601b60248201527f455243313135353a206e6f7420656e6f7567682062616c616e636500000000006044820152606401610434565b8473ffffffffffffffffffffffffffffffffffffffff168673ffffffffffffffffffffffffffffffffffffffff16146106de5760008481526020888152604080832073ffffffffffffffffffffffffffffffffffffffff8916845290915281205490610f2e8583611716565b9050818111610f99576040517f08c379a000000000000000000000000000000000000000000000000000000000815260206004820152601960248201527f455243313135353a2062616c616e6365206f766572666c6f77000000000000006044820152606401610434565b600086815260208a8152604080832073ffffffffffffffffffffffffffffffffffffffff8c811685529252808320869055908916825281208054839290610fe1908490611716565b9091555050505050505050505050565b6040517fbc197c81000000000000000000000000000000000000000000000000000000008082529073ffffffffffffffffffffffffffffffffffffffff86169063bc197c819061104d908a908a90899089908990600401611799565b6020604051808303816000875af115801561106c573d6000803e3d6000fd5b505050506040513d601f19601f820116820180604052508101906110909190611804565b7fffffffff00000000000000000000000000000000000000000000000000000000161461037d576040517f08c379a000000000000000000000000000000000000000000000000000000000815260206004820152601a60248201527f455243313135353a207472616e736665722072656a65637465640000000000006044820152606401610434565b6000806103b360017fca9d3e17f264b0f3984e2634e94adb37fa3e6a8103f06aeae6fa59e21c769f5e611627565b7c01000000000000000000000000000000000000000000000000000000007fffffffff000000000000000000000000000000000000000000000000000000008316016111ef576040517f08c379a000000000000000000000000000000000000000000000000000000000815260206004820152601f60248201527f496e74657266616365446574656374696f6e3a2077726f6e672076616c7565006044820152606401610434565b7fffffffff00000000000000000000000000000000000000000000000000000000919091166000908152602092909252604090912080547fffffffffffffffffffffffffffffffffffffffffffffffffffffffffffffff0016911515919091179055565b6040517ff23a6e61000000000000000000000000000000000000000000000000000000008082529073ffffffffffffffffffffffffffffffffffffffff86169063f23a6e619061104d908a908a90899089908990600401611846565b803573ffffffffffffffffffffffffffffffffffffffff811681146112d357600080fd5b919050565b600080604083850312156112eb57600080fd5b6112f4836112af565b946020939093013593505050565b60008083601f84011261131457600080fd5b50813567ffffffffffffffff81111561132c57600080fd5b6020830191508360208260051b850101111561134757600080fd5b9250929050565b60008083601f84011261136057600080fd5b50813567ffffffffffffffff81111561137857600080fd5b60208301915083602082850101111561134757600080fd5b60008060008060008060008060a0898b0312156113ac57600080fd5b6113b5896112af565b97506113c360208a016112af565b9650604089013567ffffffffffffffff808211156113e057600080fd5b6113ec8c838d01611302565b909850965060608b013591508082111561140557600080fd5b6114118c838d01611302565b909650945060808b013591508082111561142a57600080fd5b506114378b828c0161134e565b999c989b5096995094979396929594505050565b6000806000806040858703121561146157600080fd5b843567ffffffffffffffff8082111561147957600080fd5b61148588838901611302565b9096509450602087013591508082111561149e57600080fd5b506114ab87828801611302565b95989497509550505050565b600081518084526020808501945080840160005b838110156114e7578151875295820195908201906001016114cb565b509495945050505050565b60208152600061014360208301846114b7565b801515811461151357600080fd5b50565b6000806040838503121561152957600080fd5b611532836112af565b9150602083013561154281611505565b809150509250929050565b6000806040838503121561156057600080fd5b611569836112af565b9150611577602084016112af565b90509250929050565b60008060008060008060a0878903121561159957600080fd5b6115a2876112af565b95506115b0602088016112af565b94506040870135935060608701359250608087013567ffffffffffffffff8111156115da57600080fd5b6115e689828a0161134e565b979a9699509497509295939492505050565b7f4e487b7100000000000000000000000000000000000000000000000000000000600052601160045260246000fd5b600082821015611639576116396115f8565b500390565b7f4e487b7100000000000000000000000000000000000000000000000000000000600052603260045260246000fd5b60007fffffffffffffffffffffffffffffffffffffffffffffffffffffffffffffffff820361169e5761169e6115f8565b5060010190565b6040815260006116b860408301856114b7565b828103602084015261028881856114b7565b7f4e487b7100000000000000000000000000000000000000000000000000000000600052604160045260246000fd5b60006020828403121561170b57600080fd5b815161014381611505565b60008219821115611729576117296115f8565b500190565b6000815180845260005b8181101561175457602081850181015186830182015201611738565b81811115611766576000602083870101525b50601f017fffffffffffffffffffffffffffffffffffffffffffffffffffffffffffffffe0169290920160200192915050565b600073ffffffffffffffffffffffffffffffffffffffff808816835280871660208401525060a060408301526117d260a08301866114b7565b82810360608401526117e481866114b7565b905082810360808401526117f8818561172e565b98975050505050505050565b60006020828403121561181657600080fd5b81517fffffffff000000000000000000000000000000000000000000000000000000008116811461014357600080fd5b600073ffffffffffffffffffffffffffffffffffffffff808816835280871660208401525084604083015283606083015260a0608083015261188b60a083018461172e565b97965050505050505056fea2646970667358221220c1ca6e8ee0d5d4027c3b5c742387f01e633a342ee8da2448dfc58ef8f584650164736f6c634300080f0033",
  "linkReferences": {},
  "deployedLinkReferences": {}
}