{
  "_format": "hh-sol-artifact-1",
  "contractName": "AccessControlFacet",
  "sourceName": "contracts/access/facets/AccessControlFacet.sol",
  "abi": [
    {
      "inputs": [
        {
          "internalType": "contract IForwarderRegistry",
          "name": "forwarderRegistry",
          "type": "address"
        }
      ],
      "stateMutability": "nonpayable",
      "type": "constructor"
    },
    {
      "anonymous": false,
      "inputs": [
        {
          "indexed": false,
          "internalType": "bytes32",
          "name": "role",
          "type": "bytes32"
        },
        {
          "indexed": false,
          "internalType": "address",
          "name": "account",
          "type": "address"
        },
        {
          "indexed": false,
          "internalType": "address",
          "name": "operator",
          "type": "address"
        }
      ],
      "name": "RoleGranted",
      "type": "event"
    },
    {
      "anonymous": false,
      "inputs": [
        {
          "indexed": false,
          "internalType": "bytes32",
          "name": "role",
          "type": "bytes32"
        },
        {
          "indexed": false,
          "internalType": "address",
          "name": "account",
          "type": "address"
        },
        {
          "indexed": false,
          "internalType": "address",
          "name": "operator",
          "type": "address"
        }
      ],
      "name": "RoleRevoked",
      "type": "event"
    },
    {
      "inputs": [
        {
          "internalType": "bytes32",
          "name": "role",
          "type": "bytes32"
        },
        {
          "internalType": "address",
          "name": "account",
          "type": "address"
        }
      ],
      "name": "grantRole",
      "outputs": [],
      "stateMutability": "nonpayable",
      "type": "function"
    },
    {
      "inputs": [
        {
          "internalType": "bytes32",
          "name": "role",
          "type": "bytes32"
        },
        {
          "internalType": "address",
          "name": "account",
          "type": "address"
        }
      ],
      "name": "hasRole",
      "outputs": [
        {
          "internalType": "bool",
          "name": "",
          "type": "bool"
        }
      ],
      "stateMutability": "view",
      "type": "function"
    },
    {
      "inputs": [
        {
          "internalType": "bytes32",
          "name": "role",
          "type": "bytes32"
        }
      ],
      "name": "renounceRole",
      "outputs": [],
      "stateMutability": "nonpayable",
      "type": "function"
    },
    {
      "inputs": [
        {
          "internalType": "bytes32",
          "name": "role",
          "type": "bytes32"
        },
        {
          "internalType": "address",
          "name": "account",
          "type": "address"
        }
      ],
      "name": "revokeRole",
      "outputs": [],
      "stateMutability": "nonpayable",
      "type": "function"
    }
  ],
  "bytecode": "0x60a060405234801561001057600080fd5b50604051610b12380380610b1283398101604081905261002f91610040565b6001600160a01b0316608052610070565b60006020828403121561005257600080fd5b81516001600160a01b038116811461006957600080fd5b9392505050565b608051610a8061009260003960008181610504015261058c0152610a806000f3fe608060405234801561001057600080fd5b506004361061004c5760003560e01c80632f2ff15d146100515780638bb9c5bf1461006657806391d1485414610079578063d547741f146100a0575b600080fd5b61006461005f366004610846565b6100b3565b005b61006461007436600461088f565b6100ec565b61008c610087366004610846565b61010a565b604051901515815260200160405180910390f35b6100646100ae366004610846565b610157565b60006100bd610185565b90506100d1816100cb610194565b906101c2565b6100e78383836100df61024e565b92919061027c565b505050565b6101076100f7610185565b8261010061024e565b9190610353565b50565b600061014e838361011961024e565b60009283526020908152604080842073ffffffffffffffffffffffffffffffffffffffff909316845291905290205460ff1690565b90505b92915050565b6000610161610185565b905061016f816100cb610194565b6100e783838361017d61024e565b9291906103f7565b600061018f6104c1565b905090565b60008061015160017fc9ed16f33ab3a66c84bfd83099ccb2a8845871e2e1c1928f63797152f0fd54cd6108a8565b815473ffffffffffffffffffffffffffffffffffffffff82811691161461024a576040517f08c379a000000000000000000000000000000000000000000000000000000000815260206004820152601860248201527f4f776e6572736869703a206e6f7420746865206f776e6572000000000000000060448201526064015b60405180910390fd5b5050565b60008061015160017fc8827d3282af6f37b64c3e9e6f3ac9df286ab0bb0fccd6f8661bf19adb368b236108a8565b60008381526020858152604080832073ffffffffffffffffffffffffffffffffffffffff8616845290915290205460ff1661034d5760008381526020858152604080832073ffffffffffffffffffffffffffffffffffffffff8681168086529184529382902080547fffffffffffffffffffffffffffffffffffffffffffffffffffffffffffffff00166001179055815187815292830152918316918101919091527f2f8788117e7eff1d82e926ec794901d17c78024a50270940304540a733656f0d906060015b60405180910390a15b50505050565b61035e838284610608565b60008181526020848152604080832073ffffffffffffffffffffffffffffffffffffffff86168085529083529281902080547fffffffffffffffffffffffffffffffffffffffffffffffffffffffffffffff0016905580518481529182018390528101919091527ff6391f5c32d9c69d2a47ea670b442974b53935d1edc7fd64eb21e047a839171b9060600160405180910390a1505050565b60008381526020858152604080832073ffffffffffffffffffffffffffffffffffffffff8616845290915290205460ff161561034d5760008381526020858152604080832073ffffffffffffffffffffffffffffffffffffffff8681168086529184529382902080547fffffffffffffffffffffffffffffffffffffffffffffffffffffffffffffff00169055815187815292830152918316918101919091527ff6391f5c32d9c69d2a47ea670b442974b53935d1edc7fd64eb21e047a839171b90606001610344565b6000333214806104d15750601836105b156104db57503390565b7fffffffffffffffffffffffffffffffffffffffffffffffffffffffffffffffec36013560601c7f000000000000000000000000000000000000000000000000000000000000000073ffffffffffffffffffffffffffffffffffffffff163314806105f757506040517f8929a8ca00000000000000000000000000000000000000000000000000000000815273ffffffffffffffffffffffffffffffffffffffff82811660048301523360248301527f00000000000000000000000000000000000000000000000000000000000000001690638929a8ca90604401602060405180830381865afa1580156105d3573d6000803e3d6000fd5b505050506040513d601f19601f820116820180604052508101906105f791906108e2565b1561060157919050565b3391505090565b60008281526020848152604080832073ffffffffffffffffffffffffffffffffffffffff8516845290915290205460ff166100e757610646826106b4565b604051602001610656919061092f565b604080517fffffffffffffffffffffffffffffffffffffffffffffffffffffffffffffffe0818403018152908290527f08c379a00000000000000000000000000000000000000000000000000000000082526102419160040161099b565b606060008290036106d357505060408051602081019091526000815290565b6000826040516020016106e891815260200190565b604080517fffffffffffffffffffffffffffffffffffffffffffffffffffffffffffffffe08184030181529190529050601f5b81818151811061072d5761072d6109ec565b01602001517fff0000000000000000000000000000000000000000000000000000000000000016600003610782577fffffffffffffffffffffffffffffffffffffffffffffffffffffffffffffffff0161071b565b60008160010167ffffffffffffffff8111156107a0576107a0610a1b565b6040519080825280601f01601f1916602001820160405280156107ca576020820181803683370190505b50905060005b82811161083d578381815181106107e9576107e96109ec565b602001015160f81c60f81b828281518110610806576108066109ec565b60200101907effffffffffffffffffffffffffffffffffffffffffffffffffffffffffffff1916908160001a9053506001016107d0565b50949350505050565b6000806040838503121561085957600080fd5b82359150602083013573ffffffffffffffffffffffffffffffffffffffff8116811461088457600080fd5b809150509250929050565b6000602082840312156108a157600080fd5b5035919050565b81810381811115610151577f4e487b7100000000000000000000000000000000000000000000000000000000600052601160045260246000fd5b6000602082840312156108f457600080fd5b8151801515811461090457600080fd5b9392505050565b60005b8381101561092657818101518382015260200161090e565b50506000910152565b7f416363657373436f6e74726f6c3a206d697373696e672027000000000000000081526000825161096781601885016020870161090b565b7f2720726f6c6500000000000000000000000000000000000000000000000000006018939091019283015250601e01919050565b60208152600082518060208401526109ba81604085016020870161090b565b601f017fffffffffffffffffffffffffffffffffffffffffffffffffffffffffffffffe0169190910160400192915050565b7f4e487b7100000000000000000000000000000000000000000000000000000000600052603260045260246000fd5b7f4e487b7100000000000000000000000000000000000000000000000000000000600052604160045260246000fdfea2646970667358221220b13edb27acb68965ff318eac687e5c2486e473dcaa18b9104138ad9b29435ceb64736f6c63430008130033",
  "linkReferences": {},
  "deployedLinkReferences": {}
}