{
  "_format": "hh-sol-artifact-1",
  "contractName": "ERC1155MintableFacetMock",
  "sourceName": "contracts/mocks/token/ERC1155/facets/ERC1155MintableFacetMock.sol",
  "abi": [
    {
      "inputs": [
        {
          "internalType": "contract IForwarderRegistry",
          "name": "forwarderRegistry",
          "type": "address"
        }
      ],
      "stateMutability": "nonpayable",
      "type": "constructor"
    },
    {
      "inputs": [
        {
          "internalType": "address",
          "name": "recipient",
          "type": "address"
        },
        {
          "internalType": "uint256",
          "name": "id",
          "type": "uint256"
        },
        {
          "internalType": "uint256",
          "name": "balance",
          "type": "uint256"
        },
        {
          "internalType": "uint256",
          "name": "value",
          "type": "uint256"
        }
      ],
      "name": "ERC1155BalanceOverflow",
      "type": "error"
    },
    {
      "inputs": [],
      "name": "ERC1155MintToAddressZero",
      "type": "error"
    },
    {
      "inputs": [
        {
          "internalType": "address",
          "name": "recipient",
          "type": "address"
        },
        {
          "internalType": "uint256[]",
          "name": "ids",
          "type": "uint256[]"
        },
        {
          "internalType": "uint256[]",
          "name": "values",
          "type": "uint256[]"
        }
      ],
      "name": "ERC1155SafeBatchTransferRejected",
      "type": "error"
    },
    {
      "inputs": [
        {
          "internalType": "address",
          "name": "recipient",
          "type": "address"
        },
        {
          "internalType": "uint256",
          "name": "id",
          "type": "uint256"
        },
        {
          "internalType": "uint256",
          "name": "value",
          "type": "uint256"
        }
      ],
      "name": "ERC1155SafeTransferRejected",
      "type": "error"
    },
    {
      "inputs": [],
      "name": "IllegalInterfaceId",
      "type": "error"
    },
    {
      "inputs": [],
      "name": "InconsistentArrayLengths",
      "type": "error"
    },
    {
      "inputs": [
        {
          "internalType": "address",
          "name": "account",
          "type": "address"
        }
      ],
      "name": "NotProxyAdmin",
      "type": "error"
    },
    {
      "inputs": [
        {
          "internalType": "bytes32",
          "name": "role",
          "type": "bytes32"
        },
        {
          "internalType": "address",
          "name": "account",
          "type": "address"
        }
      ],
      "name": "NotRoleHolder",
      "type": "error"
    },
    {
      "anonymous": false,
      "inputs": [
        {
          "indexed": true,
          "internalType": "address",
          "name": "operator",
          "type": "address"
        },
        {
          "indexed": true,
          "internalType": "address",
          "name": "from",
          "type": "address"
        },
        {
          "indexed": true,
          "internalType": "address",
          "name": "to",
          "type": "address"
        },
        {
          "indexed": false,
          "internalType": "uint256[]",
          "name": "ids",
          "type": "uint256[]"
        },
        {
          "indexed": false,
          "internalType": "uint256[]",
          "name": "values",
          "type": "uint256[]"
        }
      ],
      "name": "TransferBatch",
      "type": "event"
    },
    {
      "anonymous": false,
      "inputs": [
        {
          "indexed": true,
          "internalType": "address",
          "name": "operator",
          "type": "address"
        },
        {
          "indexed": true,
          "internalType": "address",
          "name": "from",
          "type": "address"
        },
        {
          "indexed": true,
          "internalType": "address",
          "name": "to",
          "type": "address"
        },
        {
          "indexed": false,
          "internalType": "uint256",
          "name": "id",
          "type": "uint256"
        },
        {
          "indexed": false,
          "internalType": "uint256",
          "name": "value",
          "type": "uint256"
        }
      ],
      "name": "TransferSingle",
      "type": "event"
    },
    {
      "inputs": [],
      "name": "MINTER_ROLE",
      "outputs": [
        {
          "internalType": "bytes32",
          "name": "",
          "type": "bytes32"
        }
      ],
      "stateMutability": "view",
      "type": "function"
    },
    {
      "inputs": [],
      "name": "__msgData",
      "outputs": [
        {
          "internalType": "bytes",
          "name": "",
          "type": "bytes"
        }
      ],
      "stateMutability": "view",
      "type": "function"
    },
    {
      "inputs": [],
      "name": "initERC1155MintableStorage",
      "outputs": [],
      "stateMutability": "nonpayable",
      "type": "function"
    },
    {
      "inputs": [
        {
          "internalType": "address",
          "name": "to",
          "type": "address"
        },
        {
          "internalType": "uint256[]",
          "name": "ids",
          "type": "uint256[]"
        },
        {
          "internalType": "uint256[]",
          "name": "values",
          "type": "uint256[]"
        },
        {
          "internalType": "bytes",
          "name": "data",
          "type": "bytes"
        }
      ],
      "name": "safeBatchMint",
      "outputs": [],
      "stateMutability": "nonpayable",
      "type": "function"
    },
    {
      "inputs": [
        {
          "internalType": "address",
          "name": "to",
          "type": "address"
        },
        {
          "internalType": "uint256",
          "name": "id",
          "type": "uint256"
        },
        {
          "internalType": "uint256",
          "name": "value",
          "type": "uint256"
        },
        {
          "internalType": "bytes",
          "name": "data",
          "type": "bytes"
        }
      ],
      "name": "safeMint",
      "outputs": [],
      "stateMutability": "nonpayable",
      "type": "function"
    }
  ],
  "bytecode": "0x60a0604052348015600f57600080fd5b5060405161139e38038061139e833981016040819052602c91603c565b6001600160a01b0316608052606a565b600060208284031215604d57600080fd5b81516001600160a01b0381168114606357600080fd5b9392505050565b60805161130461009a60003960008181610741015281816107cf01528181610a530152610a9101526113046000f3fe608060405234801561001057600080fd5b50600436106100675760003560e01c80635cfa9297116100505780635cfa9297146100a057806389511ecd146100b3578063d5391393146100bb57600080fd5b80630d6a5bbb1461006c57806331e66e1e14610081575b600080fd5b61007f61007a366004610e9c565b6100f0565b005b6100896101eb565b604051610097929190610f47565b60405180910390f35b61007f6100ae366004610f94565b6101fe565b61007f610290565b6100e27f6d696e746572000000000000000000000000000000000000000000000000000081565b604051908152602001610097565b60006100fa6102b3565b90506101307f6d696e7465720000000000000000000000000000000000000000000000000000826101296102c2565b91906102f6565b6101e1818989898080602002602001604051908101604052809392919081815260200183836020028082843760009201919091525050604080516020808d0282810182019093528c82529093508c92508b91829185019084908082843760009201919091525050604080516020601f8c018190048102820181019092528a815292508a91508990819084018382808284376000920191909152506101d79250610386915050565b94939291906103b4565b5050505050505050565b3660006101f6610543565b915091509091565b60006102086102b3565b90506102377f6d696e7465720000000000000000000000000000000000000000000000000000826101296102c2565b6102888187878787878080601f01602080910402602001604051908101604052809392919081815260200183838082843760009201919091525061027e9250610386915050565b949392919061054e565b505050505050565b6102a961029b6102b3565b6102a361062c565b9061065a565b6102b16106c9565b565b60006102bd6106fe565b905090565b6000806102f060017fc8827d3282af6f37b64c3e9e6f3ac9df286ab0bb0fccd6f8661bf19adb368b23610ffc565b92915050565b60008281526020848152604080832073ffffffffffffffffffffffffffffffffffffffff8516845290915290205460ff16610381576040517f7aa728820000000000000000000000000000000000000000000000000000000081526004810183905273ffffffffffffffffffffffffffffffffffffffff821660248201526044015b60405180910390fd5b505050565b6000806102f060017f5ccf5846fa27a68fafc8e588671a68f5e67c2f9b56af4263806a4d71735e8613610ffc565b73ffffffffffffffffffffffffffffffffffffffff8416610401576040517f021149bd00000000000000000000000000000000000000000000000000000000815260040160405180910390fd5b82518251811461043d576040517f6582533600000000000000000000000000000000000000000000000000000000815260040160405180910390fd5b60005b8181101561048e57610486888787848151811061045f5761045f611036565b602002602001015187858151811061047957610479611036565b602002602001015161084b565b600101610440565b508473ffffffffffffffffffffffffffffffffffffffff16600073ffffffffffffffffffffffffffffffffffffffff168773ffffffffffffffffffffffffffffffffffffffff167f4a39dc06d4c0dbc64b70af90fd698a233a518aa5d07e595d983b8c0526c8f7fb87876040516105069291906110a1565b60405180910390a473ffffffffffffffffffffffffffffffffffffffff85163b1561053a5761053a8660008787878761091e565b50505050505050565b3660006101f6610a1c565b73ffffffffffffffffffffffffffffffffffffffff841661059b576040517f021149bd00000000000000000000000000000000000000000000000000000000815260040160405180910390fd5b6105a78685858561084b565b604080518481526020810184905273ffffffffffffffffffffffffffffffffffffffff80871692600092918916917fc3d58168c5ae7397731d063d5bbf3d657854427343f4c083240f7aacaa2d0f62910160405180910390a473ffffffffffffffffffffffffffffffffffffffff84163b156102885761028885600086868686610b8c565b6000806102f060017fb53127684a568b3173ae13b9f8a6016e243e63b6e8ee1178d6a717850b5d6104610ffc565b815473ffffffffffffffffffffffffffffffffffffffff8281169116146106c5576040517f673a31a100000000000000000000000000000000000000000000000000000000815273ffffffffffffffffffffffffffffffffffffffff82166004820152602401610378565b5050565b6102b17f5190c92c0000000000000000000000000000000000000000000000000000000060016106f7610caa565b9190610cd8565b60003332148061070e5750601836105b1561071857503390565b7fffffffffffffffffffffffffffffffffffffffffffffffffffffffffffffffec36013560601c7f000000000000000000000000000000000000000000000000000000000000000073ffffffffffffffffffffffffffffffffffffffff1633148061083a57506040517f019a202800000000000000000000000000000000000000000000000000000000815273ffffffffffffffffffffffffffffffffffffffff82811660048301523360248301523060448301527f0000000000000000000000000000000000000000000000000000000000000000169063019a202890606401602060405180830381865afa158015610816573d6000803e3d6000fd5b505050506040513d601f19601f8201168201806040525081019061083a91906110cf565b1561084457919050565b3391505090565b80156109185760008281526020858152604080832073ffffffffffffffffffffffffffffffffffffffff871684529091529020548181018181116108e8576040517f42fb00bc00000000000000000000000000000000000000000000000000000000815273ffffffffffffffffffffffffffffffffffffffff86166004820152602481018590526044810183905260648101849052608401610378565b60008481526020878152604080832073ffffffffffffffffffffffffffffffffffffffff89168452909152902055505b50505050565b6040517fbc197c81000000000000000000000000000000000000000000000000000000008082529073ffffffffffffffffffffffffffffffffffffffff86169063bc197c819061097a908a908a9089908990899060040161115c565b6020604051808303816000875af1158015610999573d6000803e3d6000fd5b505050506040513d601f19601f820116820180604052508101906109bd91906111c7565b7fffffffff000000000000000000000000000000000000000000000000000000001614610288578383836040517fc287817e00000000000000000000000000000000000000000000000000000000815260040161037893929190611209565b36600033321480610a2d5750601836105b15610a3b5750600091369150565b3373ffffffffffffffffffffffffffffffffffffffff7f0000000000000000000000000000000000000000000000000000000000000000161480610b76575073ffffffffffffffffffffffffffffffffffffffff7f00000000000000000000000000000000000000000000000000000000000000001663019a2028367fffffffffffffffffffffffffffffffffffffffffffffffffffffffffffffffec013560601c6040517fffffffff0000000000000000000000000000000000000000000000000000000060e084901b16815273ffffffffffffffffffffffffffffffffffffffff9091166004820152336024820152306044820152606401602060405180830381865afa158015610b52573d6000803e3d6000fd5b505050506040513d601f19601f82011682018060405250810190610b7691906110cf565b15610b83576101f6610db4565b50600091369150565b6040517ff23a6e61000000000000000000000000000000000000000000000000000000008082529073ffffffffffffffffffffffffffffffffffffffff86169063f23a6e6190610be8908a908a90899089908990600401611254565b6020604051808303816000875af1158015610c07573d6000803e3d6000fd5b505050506040513d601f19601f82011682018060405250810190610c2b91906111c7565b7fffffffff000000000000000000000000000000000000000000000000000000001614610288576040517f40f39d3800000000000000000000000000000000000000000000000000000000815273ffffffffffffffffffffffffffffffffffffffff851660048201526024810184905260448101839052606401610378565b6000806102f060017fca9d3e17f264b0f3984e2634e94adb37fa3e6a8103f06aeae6fa59e21c769f5e610ffc565b7c01000000000000000000000000000000000000000000000000000000007fffffffff00000000000000000000000000000000000000000000000000000000831601610d50576040517f72c683bb00000000000000000000000000000000000000000000000000000000815260040160405180910390fd5b7fffffffff00000000000000000000000000000000000000000000000000000000919091166000908152602092909252604090912080547fffffffffffffffffffffffffffffffffffffffffffffffffffffffffffffff0016911515919091179055565b3660006101f67fffffffffffffffffffffffffffffffffffffffffffffffffffffffffffffffec83018284816112a4565b803573ffffffffffffffffffffffffffffffffffffffff81168114610e0957600080fd5b919050565b60008083601f840112610e2057600080fd5b50813567ffffffffffffffff811115610e3857600080fd5b6020830191508360208260051b8501011115610e5357600080fd5b9250929050565b60008083601f840112610e6c57600080fd5b50813567ffffffffffffffff811115610e8457600080fd5b602083019150836020828501011115610e5357600080fd5b60008060008060008060006080888a031215610eb757600080fd5b610ec088610de5565b9650602088013567ffffffffffffffff80821115610edd57600080fd5b610ee98b838c01610e0e565b909850965060408a0135915080821115610f0257600080fd5b610f0e8b838c01610e0e565b909650945060608a0135915080821115610f2757600080fd5b50610f348a828b01610e5a565b989b979a50959850939692959293505050565b60208152816020820152818360408301376000818301604090810191909152601f9092017fffffffffffffffffffffffffffffffffffffffffffffffffffffffffffffffe0160101919050565b600080600080600060808688031215610fac57600080fd5b610fb586610de5565b94506020860135935060408601359250606086013567ffffffffffffffff811115610fdf57600080fd5b610feb88828901610e5a565b969995985093965092949392505050565b818103818111156102f0577f4e487b7100000000000000000000000000000000000000000000000000000000600052601160045260246000fd5b7f4e487b7100000000000000000000000000000000000000000000000000000000600052603260045260246000fd5b60008151808452602080850194506020840160005b838110156110965781518752958201959082019060010161107a565b509495945050505050565b6040815260006110b46040830185611065565b82810360208401526110c68185611065565b95945050505050565b6000602082840312156110e157600080fd5b815180151581146110f157600080fd5b9392505050565b6000815180845260005b8181101561111e57602081850181015186830182015201611102565b5060006020828601015260207fffffffffffffffffffffffffffffffffffffffffffffffffffffffffffffffe0601f83011685010191505092915050565b600073ffffffffffffffffffffffffffffffffffffffff808816835280871660208401525060a0604083015261119560a0830186611065565b82810360608401526111a78186611065565b905082810360808401526111bb81856110f8565b98975050505050505050565b6000602082840312156111d957600080fd5b81517fffffffff00000000000000000000000000000000000000000000000000000000811681146110f157600080fd5b73ffffffffffffffffffffffffffffffffffffffff841681526060602082015260006112386060830185611065565b828103604084015261124a8185611065565b9695505050505050565b600073ffffffffffffffffffffffffffffffffffffffff808816835280871660208401525084604083015283606083015260a0608083015261129960a08301846110f8565b979650505050505050565b600080858511156112b457600080fd5b838611156112c157600080fd5b505082019391909203915056fea264697066735822122014be826aae65fe04d2bbbb8766454e64a842ab13a62714b859a51ba97774812564736f6c63430008190033",
  "linkReferences": {},
  "deployedLinkReferences": {}
}