{
  "_format": "hh-sol-artifact-1",
  "contractName": "ERC1155MintableFacetMock",
  "sourceName": "contracts/mocks/token/ERC1155/facets/ERC1155MintableFacetMock.sol",
  "abi": [
    {
      "inputs": [
        {
          "internalType": "contract IForwarderRegistry",
          "name": "forwarderRegistry",
          "type": "address"
        }
      ],
      "stateMutability": "nonpayable",
      "type": "constructor"
    },
    {
      "inputs": [],
      "name": "MINTER_ROLE",
      "outputs": [
        {
          "internalType": "bytes32",
          "name": "",
          "type": "bytes32"
        }
      ],
      "stateMutability": "view",
      "type": "function"
    },
    {
      "inputs": [],
      "name": "__msgData",
      "outputs": [
        {
          "internalType": "bytes",
          "name": "",
          "type": "bytes"
        }
      ],
      "stateMutability": "view",
      "type": "function"
    },
    {
      "inputs": [],
      "name": "initERC1155MintableStorage",
      "outputs": [],
      "stateMutability": "nonpayable",
      "type": "function"
    },
    {
      "inputs": [
        {
          "internalType": "address",
          "name": "to",
          "type": "address"
        },
        {
          "internalType": "uint256[]",
          "name": "ids",
          "type": "uint256[]"
        },
        {
          "internalType": "uint256[]",
          "name": "values",
          "type": "uint256[]"
        },
        {
          "internalType": "bytes",
          "name": "data",
          "type": "bytes"
        }
      ],
      "name": "safeBatchMint",
      "outputs": [],
      "stateMutability": "nonpayable",
      "type": "function"
    },
    {
      "inputs": [
        {
          "internalType": "address",
          "name": "to",
          "type": "address"
        },
        {
          "internalType": "uint256",
          "name": "id",
          "type": "uint256"
        },
        {
          "internalType": "uint256",
          "name": "value",
          "type": "uint256"
        },
        {
          "internalType": "bytes",
          "name": "data",
          "type": "bytes"
        }
      ],
      "name": "safeMint",
      "outputs": [],
      "stateMutability": "nonpayable",
      "type": "function"
    }
  ],
  "bytecode": "0x60a060405234801561001057600080fd5b506040516116ec3803806116ec83398101604081905261002f91610040565b6001600160a01b0316608052610070565b60006020828403121561005257600080fd5b81516001600160a01b038116811461006957600080fd5b9392505050565b60805161164c6100a06000396000818161080a015281816108aa01528181610d390152610da3015261164c6000f3fe608060405234801561001057600080fd5b50600436106100675760003560e01c80635cfa9297116100505780635cfa9297146100a057806389511ecd146100b3578063d5391393146100bb57600080fd5b80630d6a5bbb1461006c57806331e66e1e14610081575b600080fd5b61007f61007a366004611110565b6100f0565b005b6100896101eb565b6040516100979291906111bb565b60405180910390f35b61007f6100ae366004611208565b6101fe565b61007f610290565b6100e27f6d696e746572000000000000000000000000000000000000000000000000000081565b604051908152602001610097565b60006100fa6102b3565b90506101307f6d696e7465720000000000000000000000000000000000000000000000000000826101296102c2565b91906102f6565b6101e1818989898080602002602001604051908101604052809392919081815260200183836020028082843760009201919091525050604080516020808d0282810182019093528c82529093508c92508b91829185019084908082843760009201919091525050604080516020601f8c018190048102820181019092528a815292508a91508990819084018382808284376000920191909152506101d792506103b0915050565b94939291906103de565b5050505050505050565b3660006101f66105cb565b915091509091565b60006102086102b3565b90506102377f6d696e7465720000000000000000000000000000000000000000000000000000826101296102c2565b6102888187878787878080601f01602080910402602001604051908101604052809392919081815260200183838082843760009201919091525061027e92506103b0915050565b94939291906105d6565b505050505050565b6102a961029b6102b3565b6102a36106e4565b90610712565b6102b1610799565b565b60006102bd6107ce565b905090565b6000806102f060017fc8827d3282af6f37b64c3e9e6f3ac9df286ab0bb0fccd6f8661bf19adb368b2361129f565b92915050565b60008281526020848152604080832073ffffffffffffffffffffffffffffffffffffffff8516845290915290205460ff166103ab5761033482610926565b60405160200161034491906112e6565b604080517fffffffffffffffffffffffffffffffffffffffffffffffffffffffffffffffe0818403018152908290527f08c379a00000000000000000000000000000000000000000000000000000000082526103a29160040161139c565b60405180910390fd5b505050565b6000806102f060017f5ccf5846fa27a68fafc8e588671a68f5e67c2f9b56af4263806a4d71735e861361129f565b73ffffffffffffffffffffffffffffffffffffffff841661045b576040517f08c379a000000000000000000000000000000000000000000000000000000000815260206004820152601560248201527f455243313135353a206d696e7420746f207a65726f000000000000000000000060448201526064016103a2565b81518351146104c6576040517f08c379a000000000000000000000000000000000000000000000000000000000815260206004820152601c60248201527f455243313135353a20696e636f6e73697374656e74206172726179730000000060448201526064016103a2565b60005b8351811461051f5761050f87868684815181106104e8576104e86113b6565b6020026020010151868581518110610502576105026113b6565b6020026020010151610ab8565b610518816113e5565b90506104c9565b508373ffffffffffffffffffffffffffffffffffffffff16600073ffffffffffffffffffffffffffffffffffffffff168673ffffffffffffffffffffffffffffffffffffffff167f4a39dc06d4c0dbc64b70af90fd698a233a518aa5d07e595d983b8c0526c8f7fb8686604051610597929190611458565b60405180910390a473ffffffffffffffffffffffffffffffffffffffff84163b156102885761028885600086868686610bf9565b3660006101f6610d21565b73ffffffffffffffffffffffffffffffffffffffff8416610653576040517f08c379a000000000000000000000000000000000000000000000000000000000815260206004820152601560248201527f455243313135353a206d696e7420746f207a65726f000000000000000000000060448201526064016103a2565b61065f86858585610ab8565b604080518481526020810184905273ffffffffffffffffffffffffffffffffffffffff80871692600092918916917fc3d58168c5ae7397731d063d5bbf3d657854427343f4c083240f7aacaa2d0f62910160405180910390a473ffffffffffffffffffffffffffffffffffffffff84163b156102885761028885600086868686610ea5565b6000806102f060017fb53127684a568b3173ae13b9f8a6016e243e63b6e8ee1178d6a717850b5d610461129f565b815473ffffffffffffffffffffffffffffffffffffffff828116911614610795576040517f08c379a000000000000000000000000000000000000000000000000000000000815260206004820152601960248201527f50726f787941646d696e3a206e6f74207468652061646d696e0000000000000060448201526064016103a2565b5050565b6102b17f5190c92c0000000000000000000000000000000000000000000000000000000060016107c7610f01565b9190610f2f565b6000333281036107dd57919050565b6000367fffffffffffffffffffffffffffffffffffffffffffffffffffffffffffffffec013560601c90507f000000000000000000000000000000000000000000000000000000000000000073ffffffffffffffffffffffffffffffffffffffff168273ffffffffffffffffffffffffffffffffffffffff16148061091557506040517fe60125d600000000000000000000000000000000000000000000000000000000815273ffffffffffffffffffffffffffffffffffffffff828116600483015283811660248301527f0000000000000000000000000000000000000000000000000000000000000000169063e60125d690604401602060405180830381865afa1580156108f1573d6000803e3d6000fd5b505050506040513d601f19601f820116820180604052508101906109159190611486565b156109205792915050565b50919050565b6060600082900361094557505060408051602081019091526000815290565b60008260405160200161095a91815260200190565b604080517fffffffffffffffffffffffffffffffffffffffffffffffffffffffffffffffe08184030181529190529050601f5b81818151811061099f5761099f6113b6565b01602001517fff00000000000000000000000000000000000000000000000000000000000000166000036109f4577fffffffffffffffffffffffffffffffffffffffffffffffffffffffffffffffff0161098d565b60008160010167ffffffffffffffff811115610a1257610a126114a8565b6040519080825280601f01601f191660200182016040528015610a3c576020820181803683370190505b50905060005b828111610aaf57838181518110610a5b57610a5b6113b6565b602001015160f81c60f81b828281518110610a7857610a786113b6565b60200101907effffffffffffffffffffffffffffffffffffffffffffffffffffffffffffff1916908160001a905350600101610a42565b50949350505050565b80600003610b22576040517f08c379a000000000000000000000000000000000000000000000000000000000815260206004820152601360248201527f455243313135353a207a65726f2076616c75650000000000000000000000000060448201526064016103a2565b60008281526020858152604080832073ffffffffffffffffffffffffffffffffffffffff8716845290915281205490610b5b83836114d7565b9050818111610bc6576040517f08c379a000000000000000000000000000000000000000000000000000000000815260206004820152601960248201527f455243313135353a2062616c616e6365206f766572666c6f770000000000000060448201526064016103a2565b60009384526020958652604080852073ffffffffffffffffffffffffffffffffffffffff90961685529490955250502055565b6040517fbc197c81000000000000000000000000000000000000000000000000000000008082529073ffffffffffffffffffffffffffffffffffffffff86169063bc197c8190610c55908a908a908990899089906004016114ef565b6020604051808303816000875af1158015610c74573d6000803e3d6000fd5b505050506040513d601f19601f82011682018060405250810190610c98919061155a565b7fffffffff000000000000000000000000000000000000000000000000000000001614610288576040517f08c379a000000000000000000000000000000000000000000000000000000000815260206004820152601a60248201527f455243313135353a207472616e736665722072656a656374656400000000000060448201526064016103a2565b36600033328103610d3757506000923692509050565b7f000000000000000000000000000000000000000000000000000000000000000073ffffffffffffffffffffffffffffffffffffffff168173ffffffffffffffffffffffffffffffffffffffff161480610e84575073ffffffffffffffffffffffffffffffffffffffff7f00000000000000000000000000000000000000000000000000000000000000001663e60125d6367fffffffffffffffffffffffffffffffffffffffffffffffffffffffffffffffec013560601c6040517fffffffff0000000000000000000000000000000000000000000000000000000060e084901b16815273ffffffffffffffffffffffffffffffffffffffff91821660048201529084166024820152604401602060405180830381865afa158015610e60573d6000803e3d6000fd5b505050506040513d601f19601f82011682018060405250810190610e849190611486565b15610e9a57610e9161103b565b92509250509091565b506000923692509050565b6040517ff23a6e61000000000000000000000000000000000000000000000000000000008082529073ffffffffffffffffffffffffffffffffffffffff86169063f23a6e6190610c55908a908a9089908990899060040161159c565b6000806102f060017fca9d3e17f264b0f3984e2634e94adb37fa3e6a8103f06aeae6fa59e21c769f5e61129f565b7c01000000000000000000000000000000000000000000000000000000007fffffffff00000000000000000000000000000000000000000000000000000000831601610fd7576040517f08c379a000000000000000000000000000000000000000000000000000000000815260206004820152601f60248201527f496e74657266616365446574656374696f6e3a2077726f6e672076616c75650060448201526064016103a2565b7fffffffff00000000000000000000000000000000000000000000000000000000919091166000908152602092909252604090912080547fffffffffffffffffffffffffffffffffffffffffffffffffffffffffffffff0016911515919091179055565b36600080808361104c60148261129f565b926101f6939291906115ec565b803573ffffffffffffffffffffffffffffffffffffffff8116811461107d57600080fd5b919050565b60008083601f84011261109457600080fd5b50813567ffffffffffffffff8111156110ac57600080fd5b6020830191508360208260051b85010111156110c757600080fd5b9250929050565b60008083601f8401126110e057600080fd5b50813567ffffffffffffffff8111156110f857600080fd5b6020830191508360208285010111156110c757600080fd5b60008060008060008060006080888a03121561112b57600080fd5b61113488611059565b9650602088013567ffffffffffffffff8082111561115157600080fd5b61115d8b838c01611082565b909850965060408a013591508082111561117657600080fd5b6111828b838c01611082565b909650945060608a013591508082111561119b57600080fd5b506111a88a828b016110ce565b989b979a50959850939692959293505050565b60208152816020820152818360408301376000818301604090810191909152601f9092017fffffffffffffffffffffffffffffffffffffffffffffffffffffffffffffffe0160101919050565b60008060008060006080868803121561122057600080fd5b61122986611059565b94506020860135935060408601359250606086013567ffffffffffffffff81111561125357600080fd5b61125f888289016110ce565b969995985093965092949392505050565b7f4e487b7100000000000000000000000000000000000000000000000000000000600052601160045260246000fd5b6000828210156112b1576112b1611270565b500390565b60005b838110156112d15781810151838201526020016112b9565b838111156112e0576000848401525b50505050565b7f416363657373436f6e74726f6c3a206d697373696e672027000000000000000081526000825161131e8160188501602087016112b6565b7f2720726f6c6500000000000000000000000000000000000000000000000000006018939091019283015250601e01919050565b6000815180845261136a8160208601602086016112b6565b601f017fffffffffffffffffffffffffffffffffffffffffffffffffffffffffffffffe0169290920160200192915050565b6020815260006113af6020830184611352565b9392505050565b7f4e487b7100000000000000000000000000000000000000000000000000000000600052603260045260246000fd5b60007fffffffffffffffffffffffffffffffffffffffffffffffffffffffffffffffff820361141657611416611270565b5060010190565b600081518084526020808501945080840160005b8381101561144d57815187529582019590820190600101611431565b509495945050505050565b60408152600061146b604083018561141d565b828103602084015261147d818561141d565b95945050505050565b60006020828403121561149857600080fd5b815180151581146113af57600080fd5b7f4e487b7100000000000000000000000000000000000000000000000000000000600052604160045260246000fd5b600082198211156114ea576114ea611270565b500190565b600073ffffffffffffffffffffffffffffffffffffffff808816835280871660208401525060a0604083015261152860a083018661141d565b828103606084015261153a818661141d565b9050828103608084015261154e8185611352565b98975050505050505050565b60006020828403121561156c57600080fd5b81517fffffffff00000000000000000000000000000000000000000000000000000000811681146113af57600080fd5b600073ffffffffffffffffffffffffffffffffffffffff808816835280871660208401525084604083015283606083015260a060808301526115e160a0830184611352565b979650505050505050565b600080858511156115fc57600080fd5b8386111561160957600080fd5b505082019391909203915056fea26469706673582212203dd1223512054bc3eee96cf0fcffc5cf0adc1eb41273047345f84f8a0786ad0564736f6c634300080f0033",
  "linkReferences": {},
  "deployedLinkReferences": {}
}