{
  "_format": "hh-sol-artifact-1",
  "contractName": "ERC20MintableFacet",
  "sourceName": "contracts/token/ERC20/facets/ERC20MintableFacet.sol",
  "abi": [
    {
      "inputs": [
        {
          "internalType": "contract IForwarderRegistry",
          "name": "forwarderRegistry",
          "type": "address"
        }
      ],
      "stateMutability": "nonpayable",
      "type": "constructor"
    },
    {
      "anonymous": false,
      "inputs": [
        {
          "indexed": true,
          "internalType": "address",
          "name": "owner",
          "type": "address"
        },
        {
          "indexed": true,
          "internalType": "address",
          "name": "spender",
          "type": "address"
        },
        {
          "indexed": false,
          "internalType": "uint256",
          "name": "value",
          "type": "uint256"
        }
      ],
      "name": "Approval",
      "type": "event"
    },
    {
      "anonymous": false,
      "inputs": [
        {
          "indexed": true,
          "internalType": "address",
          "name": "from",
          "type": "address"
        },
        {
          "indexed": true,
          "internalType": "address",
          "name": "to",
          "type": "address"
        },
        {
          "indexed": false,
          "internalType": "uint256",
          "name": "value",
          "type": "uint256"
        }
      ],
      "name": "Transfer",
      "type": "event"
    },
    {
      "inputs": [],
      "name": "MINTER_ROLE",
      "outputs": [
        {
          "internalType": "bytes32",
          "name": "",
          "type": "bytes32"
        }
      ],
      "stateMutability": "view",
      "type": "function"
    },
    {
      "inputs": [
        {
          "internalType": "address[]",
          "name": "recipients",
          "type": "address[]"
        },
        {
          "internalType": "uint256[]",
          "name": "values",
          "type": "uint256[]"
        }
      ],
      "name": "batchMint",
      "outputs": [],
      "stateMutability": "nonpayable",
      "type": "function"
    },
    {
      "inputs": [],
      "name": "initERC20MintableStorage",
      "outputs": [],
      "stateMutability": "nonpayable",
      "type": "function"
    },
    {
      "inputs": [
        {
          "internalType": "address",
          "name": "to",
          "type": "address"
        },
        {
          "internalType": "uint256",
          "name": "value",
          "type": "uint256"
        }
      ],
      "name": "mint",
      "outputs": [],
      "stateMutability": "nonpayable",
      "type": "function"
    }
  ],
  "bytecode": "0x60a060405234801561000f575f80fd5b50604051610f71380380610f7183398101604081905261002e9161003f565b6001600160a01b031660805261006c565b5f6020828403121561004f575f80fd5b81516001600160a01b0381168114610065575f80fd5b9392505050565b608051610ee661008b5f395f818161086501526108ed0152610ee65ff3fe608060405234801561000f575f80fd5b506004361061004a575f3560e01c806311e60a3e1461004e57806340c10f1914610058578063685731071461006b578063d53913931461007e575b5f80fd5b6100566100b7565b005b610056610066366004610c2a565b6100da565b610056610079366004610cb4565b61012d565b6100a57f6d696e746572000000000000000000000000000000000000000000000000000081565b60405190815260200160405180910390f35b6100d06100c26101d5565b6100ca6101e3565b90610216565b6100d861029e565b565b6101157f6d696e74657200000000000000000000000000000000000000000000000000006101066101d5565b61010e6102d3565b9190610300565b61012982826101226103b0565b91906103dd565b5050565b6101597f6d696e74657200000000000000000000000000000000000000000000000000006101066101d5565b6101cf8484808060200260200160405190810160405280939291908181526020018383602002808284375f92019190915250506040805160208088028281018201909352878252909350879250869182918501908490808284375f920191909152506101c892506103b0915050565b9190610554565b50505050565b5f6101de610823565b905090565b5f8061021060017fb53127684a568b3173ae13b9f8a6016e243e63b6e8ee1178d6a717850b5d6104610d1b565b92915050565b815473ffffffffffffffffffffffffffffffffffffffff828116911614610129576040517f08c379a000000000000000000000000000000000000000000000000000000000815260206004820152601960248201527f50726f787941646d696e3a206e6f74207468652061646d696e0000000000000060448201526064015b60405180910390fd5b6100d87f28963e1e0000000000000000000000000000000000000000000000000000000060016102cc610967565b9190610994565b5f8061021060017fc8827d3282af6f37b64c3e9e6f3ac9df286ab0bb0fccd6f8661bf19adb368b23610d1b565b5f8281526020848152604080832073ffffffffffffffffffffffffffffffffffffffff8516845290915290205460ff166103ab5761033d82610a9f565b60405160200161034d9190610d75565b604080517fffffffffffffffffffffffffffffffffffffffffffffffffffffffffffffffe0818403018152908290527f08c379a000000000000000000000000000000000000000000000000000000000825261029591600401610de0565b505050565b5f8061021060017f1da92899d3da68bf9787824388a37ea2bfa79780bcef91b9716c390eec8ecbef610d1b565b73ffffffffffffffffffffffffffffffffffffffff821661045a576040517f08c379a000000000000000000000000000000000000000000000000000000000815260206004820152601960248201527f45524332303a206d696e7420746f2061646472657373283029000000000000006044820152606401610295565b80156105025760028301548181018181116104d1576040517f08c379a000000000000000000000000000000000000000000000000000000000815260206004820152601660248201527f45524332303a20737570706c79206f766572666c6f77000000000000000000006044820152606401610295565b60028501555073ffffffffffffffffffffffffffffffffffffffff82165f9081526020849052604090208054820190555b60405181815273ffffffffffffffffffffffffffffffffffffffff8316905f907fddf252ad1be2c89b69c2b068fc378daa952ba7f163c4a11628f55a4df523b3ef9060200160405180910390a3505050565b8151815181146105c0576040517f08c379a000000000000000000000000000000000000000000000000000000000815260206004820152601a60248201527f45524332303a20696e636f6e73697374656e74206172726179730000000000006044820152606401610295565b805f036105cd5750505050565b5f805b82811461079d575f8582815181106105ea576105ea610e30565b602002602001015190505f73ffffffffffffffffffffffffffffffffffffffff168173ffffffffffffffffffffffffffffffffffffffff1603610689576040517f08c379a000000000000000000000000000000000000000000000000000000000815260206004820152601960248201527f45524332303a206d696e7420746f2061646472657373283029000000000000006044820152606401610295565b5f85838151811061069c5761069c610e30565b60200260200101519050805f1461074657838101848111610719576040517f08c379a000000000000000000000000000000000000000000000000000000000815260206004820152601660248201527f45524332303a2076616c756573206f766572666c6f77000000000000000000006044820152606401610295565b73ffffffffffffffffffffffffffffffffffffffff83165f90815260208a90526040902080548301905593505b60405181815273ffffffffffffffffffffffffffffffffffffffff8316905f907fddf252ad1be2c89b69c2b068fc378daa952ba7f163c4a11628f55a4df523b3ef9060200160405180910390a350506001016105d0565b50801561081c576002850154818101818111610815576040517f08c379a000000000000000000000000000000000000000000000000000000000815260206004820152601660248201527f45524332303a20737570706c79206f766572666c6f77000000000000000000006044820152606401610295565b6002870155505b5050505050565b5f333214806108325750601836105b1561083c57503390565b7fffffffffffffffffffffffffffffffffffffffffffffffffffffffffffffffec36013560601c7f000000000000000000000000000000000000000000000000000000000000000073ffffffffffffffffffffffffffffffffffffffff1633148061095657506040517f8929a8ca00000000000000000000000000000000000000000000000000000000815273ffffffffffffffffffffffffffffffffffffffff82811660048301523360248301527f00000000000000000000000000000000000000000000000000000000000000001690638929a8ca90604401602060405180830381865afa158015610932573d5f803e3d5ffd5b505050506040513d601f19601f820116820180604052508101906109569190610e5d565b1561096057919050565b3391505090565b5f8061021060017fca9d3e17f264b0f3984e2634e94adb37fa3e6a8103f06aeae6fa59e21c769f5e610d1b565b7c01000000000000000000000000000000000000000000000000000000007fffffffff00000000000000000000000000000000000000000000000000000000831601610a3c576040517f08c379a000000000000000000000000000000000000000000000000000000000815260206004820152601f60248201527f496e74657266616365446574656374696f6e3a2077726f6e672076616c7565006044820152606401610295565b7fffffffff00000000000000000000000000000000000000000000000000000000919091165f908152602092909252604090912080547fffffffffffffffffffffffffffffffffffffffffffffffffffffffffffffff0016911515919091179055565b60605f829003610abc57505060408051602081019091525f815290565b5f82604051602001610ad091815260200190565b604080517fffffffffffffffffffffffffffffffffffffffffffffffffffffffffffffffe08184030181529190529050601f5b818181518110610b1557610b15610e30565b01602001517fff00000000000000000000000000000000000000000000000000000000000000165f03610b69577fffffffffffffffffffffffffffffffffffffffffffffffffffffffffffffffff01610b03565b5f8160010167ffffffffffffffff811115610b8657610b86610e83565b6040519080825280601f01601f191660200182016040528015610bb0576020820181803683370190505b5090505f5b828111610c2157838181518110610bce57610bce610e30565b602001015160f81c60f81b828281518110610beb57610beb610e30565b60200101907effffffffffffffffffffffffffffffffffffffffffffffffffffffffffffff191690815f1a905350600101610bb5565b50949350505050565b5f8060408385031215610c3b575f80fd5b823573ffffffffffffffffffffffffffffffffffffffff81168114610c5e575f80fd5b946020939093013593505050565b5f8083601f840112610c7c575f80fd5b50813567ffffffffffffffff811115610c93575f80fd5b6020830191508360208260051b8501011115610cad575f80fd5b9250929050565b5f805f8060408587031215610cc7575f80fd5b843567ffffffffffffffff80821115610cde575f80fd5b610cea88838901610c6c565b90965094506020870135915080821115610d02575f80fd5b50610d0f87828801610c6c565b95989497509550505050565b81810381811115610210577f4e487b71000000000000000000000000000000000000000000000000000000005f52601160045260245ffd5b5f5b83811015610d6d578181015183820152602001610d55565b50505f910152565b7f416363657373436f6e74726f6c3a206d697373696e672027000000000000000081525f8251610dac816018850160208701610d53565b7f2720726f6c6500000000000000000000000000000000000000000000000000006018939091019283015250601e01919050565b602081525f8251806020840152610dfe816040850160208701610d53565b601f017fffffffffffffffffffffffffffffffffffffffffffffffffffffffffffffffe0169190910160400192915050565b7f4e487b71000000000000000000000000000000000000000000000000000000005f52603260045260245ffd5b5f60208284031215610e6d575f80fd5b81518015158114610e7c575f80fd5b9392505050565b7f4e487b71000000000000000000000000000000000000000000000000000000005f52604160045260245ffdfea2646970667358221220ce0d9ad964602a8b32e17c862a2d6ae47ed7e91f9b8ea8070fa651e628daaa8664736f6c63430008150033",
  "linkReferences": {},
  "deployedLinkReferences": {}
}