{
  "_format": "hh-sol-artifact-1",
  "contractName": "ERC721StakingERC20RewardsLinearPoolMock",
  "sourceName": "contracts/mocks/staking/linear/ERC721StakingERC20RewardsLinearPoolMock.sol",
  "abi": [
    {
      "inputs": [
        {
          "internalType": "contract IERC721",
          "name": "stakingToken",
          "type": "address"
        },
        {
          "internalType": "contract IERC20",
          "name": "rewardToken",
          "type": "address"
        },
        {
          "internalType": "address",
          "name": "rewardHolder",
          "type": "address"
        },
        {
          "internalType": "contract IForwarderRegistry",
          "name": "forwarderRegistry",
          "type": "address"
        }
      ],
      "stateMutability": "nonpayable",
      "type": "constructor"
    },
    {
      "inputs": [],
      "name": "IllegalInterfaceId",
      "type": "error"
    },
    {
      "inputs": [],
      "name": "InvalidDuration",
      "type": "error"
    },
    {
      "inputs": [],
      "name": "InvalidRewardAmount",
      "type": "error"
    },
    {
      "inputs": [],
      "name": "InvalidStakeAmount",
      "type": "error"
    },
    {
      "inputs": [],
      "name": "InvalidToken",
      "type": "error"
    },
    {
      "inputs": [],
      "name": "InvalidWithdrawAmount",
      "type": "error"
    },
    {
      "inputs": [
        {
          "internalType": "address",
          "name": "account",
          "type": "address"
        }
      ],
      "name": "NotContractOwner",
      "type": "error"
    },
    {
      "inputs": [
        {
          "internalType": "address",
          "name": "staker",
          "type": "address"
        },
        {
          "internalType": "uint256",
          "name": "stake",
          "type": "uint256"
        },
        {
          "internalType": "uint256",
          "name": "withdraw",
          "type": "uint256"
        }
      ],
      "name": "NotEnoughStake",
      "type": "error"
    },
    {
      "inputs": [
        {
          "internalType": "bytes32",
          "name": "role",
          "type": "bytes32"
        },
        {
          "internalType": "address",
          "name": "account",
          "type": "address"
        }
      ],
      "name": "NotRoleHolder",
      "type": "error"
    },
    {
      "inputs": [
        {
          "internalType": "address",
          "name": "staker",
          "type": "address"
        },
        {
          "internalType": "uint256",
          "name": "tokenId",
          "type": "uint256"
        },
        {
          "internalType": "address",
          "name": "owner",
          "type": "address"
        }
      ],
      "name": "NotTheTokenOwner",
      "type": "error"
    },
    {
      "inputs": [],
      "name": "ReentrancyGuardReentrantCall",
      "type": "error"
    },
    {
      "inputs": [
        {
          "internalType": "uint256",
          "name": "reward",
          "type": "uint256"
        },
        {
          "internalType": "uint256",
          "name": "duration",
          "type": "uint256"
        }
      ],
      "name": "RewardTooSmallForDuration",
      "type": "error"
    },
    {
      "inputs": [
        {
          "internalType": "address",
          "name": "token",
          "type": "address"
        }
      ],
      "name": "SafeERC20FailedOperation",
      "type": "error"
    },
    {
      "anonymous": false,
      "inputs": [
        {
          "indexed": true,
          "internalType": "address",
          "name": "staker",
          "type": "address"
        },
        {
          "indexed": false,
          "internalType": "bytes",
          "name": "claimData",
          "type": "bytes"
        },
        {
          "indexed": false,
          "internalType": "uint256",
          "name": "reward",
          "type": "uint256"
        }
      ],
      "name": "Claimed",
      "type": "event"
    },
    {
      "anonymous": false,
      "inputs": [
        {
          "indexed": true,
          "internalType": "address",
          "name": "previousOwner",
          "type": "address"
        },
        {
          "indexed": true,
          "internalType": "address",
          "name": "newOwner",
          "type": "address"
        }
      ],
      "name": "OwnershipTransferred",
      "type": "event"
    },
    {
      "anonymous": false,
      "inputs": [
        {
          "indexed": true,
          "internalType": "address",
          "name": "rewarder",
          "type": "address"
        },
        {
          "indexed": false,
          "internalType": "uint256",
          "name": "reward",
          "type": "uint256"
        },
        {
          "indexed": false,
          "internalType": "uint256",
          "name": "duration",
          "type": "uint256"
        },
        {
          "indexed": false,
          "internalType": "uint256",
          "name": "dust",
          "type": "uint256"
        }
      ],
      "name": "RewardAdded",
      "type": "event"
    },
    {
      "anonymous": false,
      "inputs": [
        {
          "indexed": true,
          "internalType": "address",
          "name": "rewardHolder",
          "type": "address"
        }
      ],
      "name": "RewardHolderSet",
      "type": "event"
    },
    {
      "anonymous": false,
      "inputs": [
        {
          "indexed": false,
          "internalType": "bytes32",
          "name": "role",
          "type": "bytes32"
        },
        {
          "indexed": false,
          "internalType": "address",
          "name": "account",
          "type": "address"
        },
        {
          "indexed": false,
          "internalType": "address",
          "name": "operator",
          "type": "address"
        }
      ],
      "name": "RoleGranted",
      "type": "event"
    },
    {
      "anonymous": false,
      "inputs": [
        {
          "indexed": false,
          "internalType": "bytes32",
          "name": "role",
          "type": "bytes32"
        },
        {
          "indexed": false,
          "internalType": "address",
          "name": "account",
          "type": "address"
        },
        {
          "indexed": false,
          "internalType": "address",
          "name": "operator",
          "type": "address"
        }
      ],
      "name": "RoleRevoked",
      "type": "event"
    },
    {
      "anonymous": false,
      "inputs": [
        {
          "indexed": true,
          "internalType": "address",
          "name": "staker",
          "type": "address"
        },
        {
          "indexed": false,
          "internalType": "bytes",
          "name": "stakeData",
          "type": "bytes"
        },
        {
          "indexed": false,
          "internalType": "uint256",
          "name": "stakePoints",
          "type": "uint256"
        }
      ],
      "name": "Staked",
      "type": "event"
    },
    {
      "anonymous": false,
      "inputs": [
        {
          "indexed": true,
          "internalType": "address",
          "name": "staker",
          "type": "address"
        },
        {
          "indexed": false,
          "internalType": "bytes",
          "name": "withdrawData",
          "type": "bytes"
        },
        {
          "indexed": false,
          "internalType": "uint256",
          "name": "stakePoints",
          "type": "uint256"
        }
      ],
      "name": "Withdrawn",
      "type": "event"
    },
    {
      "inputs": [],
      "name": "REWARDER_ROLE",
      "outputs": [
        {
          "internalType": "bytes32",
          "name": "",
          "type": "bytes32"
        }
      ],
      "stateMutability": "view",
      "type": "function"
    },
    {
      "inputs": [],
      "name": "REWARD_TOKEN",
      "outputs": [
        {
          "internalType": "contract IERC20",
          "name": "",
          "type": "address"
        }
      ],
      "stateMutability": "view",
      "type": "function"
    },
    {
      "inputs": [],
      "name": "SCALING_FACTOR",
      "outputs": [
        {
          "internalType": "uint256",
          "name": "",
          "type": "uint256"
        }
      ],
      "stateMutability": "view",
      "type": "function"
    },
    {
      "inputs": [],
      "name": "STAKING_TOKEN",
      "outputs": [
        {
          "internalType": "contract IERC721",
          "name": "",
          "type": "address"
        }
      ],
      "stateMutability": "view",
      "type": "function"
    },
    {
      "inputs": [],
      "name": "__msgData",
      "outputs": [
        {
          "internalType": "bytes",
          "name": "",
          "type": "bytes"
        }
      ],
      "stateMutability": "view",
      "type": "function"
    },
    {
      "inputs": [
        {
          "internalType": "uint256",
          "name": "reward",
          "type": "uint256"
        },
        {
          "internalType": "uint256",
          "name": "duration",
          "type": "uint256"
        }
      ],
      "name": "addReward",
      "outputs": [],
      "stateMutability": "payable",
      "type": "function"
    },
    {
      "inputs": [],
      "name": "claim",
      "outputs": [],
      "stateMutability": "nonpayable",
      "type": "function"
    },
    {
      "inputs": [],
      "name": "distributionEnd",
      "outputs": [
        {
          "internalType": "uint256",
          "name": "",
          "type": "uint256"
        }
      ],
      "stateMutability": "view",
      "type": "function"
    },
    {
      "inputs": [
        {
          "internalType": "address",
          "name": "account",
          "type": "address"
        }
      ],
      "name": "earned",
      "outputs": [
        {
          "internalType": "uint256",
          "name": "",
          "type": "uint256"
        }
      ],
      "stateMutability": "view",
      "type": "function"
    },
    {
      "inputs": [],
      "name": "forwarderRegistry",
      "outputs": [
        {
          "internalType": "contract IForwarderRegistry",
          "name": "",
          "type": "address"
        }
      ],
      "stateMutability": "view",
      "type": "function"
    },
    {
      "inputs": [
        {
          "internalType": "bytes32",
          "name": "role",
          "type": "bytes32"
        },
        {
          "internalType": "address",
          "name": "account",
          "type": "address"
        }
      ],
      "name": "grantRole",
      "outputs": [],
      "stateMutability": "nonpayable",
      "type": "function"
    },
    {
      "inputs": [
        {
          "internalType": "bytes32",
          "name": "role",
          "type": "bytes32"
        },
        {
          "internalType": "address",
          "name": "account",
          "type": "address"
        }
      ],
      "name": "hasRole",
      "outputs": [
        {
          "internalType": "bool",
          "name": "hasRole_",
          "type": "bool"
        }
      ],
      "stateMutability": "view",
      "type": "function"
    },
    {
      "inputs": [
        {
          "internalType": "address",
          "name": "forwarder",
          "type": "address"
        }
      ],
      "name": "isTrustedForwarder",
      "outputs": [
        {
          "internalType": "bool",
          "name": "",
          "type": "bool"
        }
      ],
      "stateMutability": "view",
      "type": "function"
    },
    {
      "inputs": [],
      "name": "lastTimeRewardApplicable",
      "outputs": [
        {
          "internalType": "uint256",
          "name": "",
          "type": "uint256"
        }
      ],
      "stateMutability": "view",
      "type": "function"
    },
    {
      "inputs": [],
      "name": "lastUpdated",
      "outputs": [
        {
          "internalType": "uint256",
          "name": "",
          "type": "uint256"
        }
      ],
      "stateMutability": "view",
      "type": "function"
    },
    {
      "inputs": [
        {
          "internalType": "address",
          "name": "",
          "type": "address"
        },
        {
          "internalType": "address",
          "name": "from",
          "type": "address"
        },
        {
          "internalType": "uint256",
          "name": "tokenId",
          "type": "uint256"
        },
        {
          "internalType": "bytes",
          "name": "",
          "type": "bytes"
        }
      ],
      "name": "onERC721Received",
      "outputs": [
        {
          "internalType": "bytes4",
          "name": "",
          "type": "bytes4"
        }
      ],
      "stateMutability": "nonpayable",
      "type": "function"
    },
    {
      "inputs": [],
      "name": "owner",
      "outputs": [
        {
          "internalType": "address",
          "name": "",
          "type": "address"
        }
      ],
      "stateMutability": "view",
      "type": "function"
    },
    {
      "inputs": [
        {
          "internalType": "bytes32",
          "name": "role",
          "type": "bytes32"
        }
      ],
      "name": "renounceRole",
      "outputs": [],
      "stateMutability": "nonpayable",
      "type": "function"
    },
    {
      "inputs": [
        {
          "internalType": "bytes32",
          "name": "role",
          "type": "bytes32"
        },
        {
          "internalType": "address",
          "name": "account",
          "type": "address"
        }
      ],
      "name": "revokeRole",
      "outputs": [],
      "stateMutability": "nonpayable",
      "type": "function"
    },
    {
      "inputs": [],
      "name": "rewardHolder",
      "outputs": [
        {
          "internalType": "address",
          "name": "",
          "type": "address"
        }
      ],
      "stateMutability": "view",
      "type": "function"
    },
    {
      "inputs": [],
      "name": "rewardPerStakePoint",
      "outputs": [
        {
          "internalType": "uint256",
          "name": "",
          "type": "uint256"
        }
      ],
      "stateMutability": "view",
      "type": "function"
    },
    {
      "inputs": [
        {
          "internalType": "address",
          "name": "staker",
          "type": "address"
        }
      ],
      "name": "rewardPerStakePointPaid",
      "outputs": [
        {
          "internalType": "uint256",
          "name": "paid",
          "type": "uint256"
        }
      ],
      "stateMutability": "view",
      "type": "function"
    },
    {
      "inputs": [],
      "name": "rewardPerStakePointStored",
      "outputs": [
        {
          "internalType": "uint256",
          "name": "",
          "type": "uint256"
        }
      ],
      "stateMutability": "view",
      "type": "function"
    },
    {
      "inputs": [],
      "name": "rewardRate",
      "outputs": [
        {
          "internalType": "uint256",
          "name": "",
          "type": "uint256"
        }
      ],
      "stateMutability": "view",
      "type": "function"
    },
    {
      "inputs": [
        {
          "internalType": "address",
          "name": "staker",
          "type": "address"
        }
      ],
      "name": "rewards",
      "outputs": [
        {
          "internalType": "uint256",
          "name": "reward",
          "type": "uint256"
        }
      ],
      "stateMutability": "view",
      "type": "function"
    },
    {
      "inputs": [
        {
          "internalType": "address",
          "name": "rewardHolder_",
          "type": "address"
        }
      ],
      "name": "setRewardHolder",
      "outputs": [],
      "stateMutability": "nonpayable",
      "type": "function"
    },
    {
      "inputs": [
        {
          "internalType": "bytes",
          "name": "stakeData",
          "type": "bytes"
        }
      ],
      "name": "stake",
      "outputs": [],
      "stateMutability": "payable",
      "type": "function"
    },
    {
      "inputs": [
        {
          "internalType": "address",
          "name": "staker",
          "type": "address"
        }
      ],
      "name": "staked",
      "outputs": [
        {
          "internalType": "uint256",
          "name": "stakePoints",
          "type": "uint256"
        }
      ],
      "stateMutability": "view",
      "type": "function"
    },
    {
      "inputs": [
        {
          "internalType": "bytes4",
          "name": "interfaceId",
          "type": "bytes4"
        }
      ],
      "name": "supportsInterface",
      "outputs": [
        {
          "internalType": "bool",
          "name": "",
          "type": "bool"
        }
      ],
      "stateMutability": "view",
      "type": "function"
    },
    {
      "inputs": [
        {
          "internalType": "uint256",
          "name": "tokenId",
          "type": "uint256"
        }
      ],
      "name": "tokenOwners",
      "outputs": [
        {
          "internalType": "address",
          "name": "owner",
          "type": "address"
        }
      ],
      "stateMutability": "view",
      "type": "function"
    },
    {
      "inputs": [],
      "name": "totalStaked",
      "outputs": [
        {
          "internalType": "uint256",
          "name": "",
          "type": "uint256"
        }
      ],
      "stateMutability": "view",
      "type": "function"
    },
    {
      "inputs": [
        {
          "internalType": "address",
          "name": "newOwner",
          "type": "address"
        }
      ],
      "name": "transferOwnership",
      "outputs": [],
      "stateMutability": "nonpayable",
      "type": "function"
    },
    {
      "inputs": [
        {
          "internalType": "bytes",
          "name": "withdrawData",
          "type": "bytes"
        }
      ],
      "name": "withdraw",
      "outputs": [],
      "stateMutability": "nonpayable",
      "type": "function"
    }
  ],
  "bytecode": "0x60e060405234801561001057600080fd5b50604051612d63380380612d6383398101604081905261002f91610221565b8282858380808033610049816100436100dc565b90610110565b50600160008190556001600160a01b0390911660805261007d9250630a85bd0160e11b915061007661017f565b91906101ad565b506001600160a01b0390811660a05282811660c052600a80546001600160a01b03191691831691821790556040517f92c047df6e363693ec05d0bd21ac0dbc9951c94b023c16966a58dd78f0e27d2990600090a25050505050506102a1565b60008061010a60017fc9ed16f33ab3a66c84bfd83099ccb2a8845871e2e1c1928f63797152f0fd54cd610280565b92915050565b6001600160a01b038116156101665781546001600160a01b0319166001600160a01b03821690811783556040516000907f8be0079c531659141344cd1fd0a4f28419497f9722a3daafe3b4186f6b6457e0908290a35b61017b6307f5828d60e41b600161007661017f565b5050565b60008061010a60017fca9d3e17f264b0f3984e2634e94adb37fa3e6a8103f06aeae6fa59e21c769f5e610280565b600160e01b6001600160e01b03198316016101db576040516372c683bb60e01b815260040160405180910390fd5b6001600160e01b03199190911660009081526020929092526040909120805460ff1916911515919091179055565b6001600160a01b038116811461021e57600080fd5b50565b6000806000806080858703121561023757600080fd5b845161024281610209565b602086015190945061025381610209565b604086015190935061026481610209565b606086015190925061027581610209565b939692955090935050565b8181038181111561010a57634e487b7160e01b600052601160045260246000fd5b60805160a05160c051612a4661031d600039600081816105d40152611eef015260008181610277015281816108260152818161199201528181611b4401528181611cde0152611e1801526000818161036d0152818161045b01528181611f5c01528181611fea0152818161209d01526120db0152612a466000f3fe6080604052600436106101fd5760003560e01c80637b0a47ee1161011d57806399248ea7116100b0578063d547741f1161007f578063efa90b5411610064578063efa90b541461068b578063f2fde38b146106a1578063f8a14f46146106c157600080fd5b8063d547741f1461064f578063ef4cadc51461066f57600080fd5b806399248ea7146105c25780639d696e36146105f6578063c5c8f7701461060c578063d0b06f5d1461063957600080fd5b80638bb9c5bf116100ec5780638bb9c5bf146105405780638da5cb5b1461056057806391d148541461057557806398807d841461059557600080fd5b80637b0a47ee146104cb57806380faa57d146104e1578063817b1cd2146104f65780638580cf761461050c57600080fd5b80632d1e0c0211610195578063569c93d211610164578063569c93d214610411578063572b6c051461043e5780636806cc931461049857806375c93bb9146104b857600080fd5b80632d1e0c02146103a65780632f2ff15d146103b957806331e66e1e146103d95780634e71d92d146103fc57600080fd5b80630968f264116101d15780630968f264146102eb578063150b7a021461030d5780632b4c9f161461035e5780632c9d0b801461039157600080fd5b80628cc2621461020257806301ffc9a7146102355780630479d644146102655780630700037d146102be575b600080fd5b34801561020e57600080fd5b5061022261021d366004612369565b610704565b6040519081526020015b60405180910390f35b34801561024157600080fd5b50610255610250366004612384565b61079b565b604051901515815260200161022c565b34801561027157600080fd5b506102997f000000000000000000000000000000000000000000000000000000000000000081565b60405173ffffffffffffffffffffffffffffffffffffffff909116815260200161022c565b3480156102ca57600080fd5b506102226102d9366004612369565b60076020526000908152604090205481565b3480156102f757600080fd5b5061030b61030636600461240f565b6107af565b005b34801561031957600080fd5b5061032d610328366004612451565b61080c565b6040517fffffffff00000000000000000000000000000000000000000000000000000000909116815260200161022c565b34801561036a57600080fd5b507f0000000000000000000000000000000000000000000000000000000000000000610299565b34801561039d57600080fd5b50610222610920565b61030b6103b436600461240f565b610988565b3480156103c557600080fd5b5061030b6103d43660046124c0565b6109af565b3480156103e557600080fd5b506103ee6109e3565b60405161022c929190612535565b34801561040857600080fd5b5061030b6109f6565b34801561041d57600080fd5b50600a546102999073ffffffffffffffffffffffffffffffffffffffff1681565b34801561044a57600080fd5b50610255610459366004612369565b7f000000000000000000000000000000000000000000000000000000000000000073ffffffffffffffffffffffffffffffffffffffff90811691161490565b3480156104a457600080fd5b5061030b6104b3366004612369565b610aa7565b61030b6104c6366004612551565b610b4c565b3480156104d757600080fd5b5061022260035481565b3480156104ed57600080fd5b50610222610e26565b34801561050257600080fd5b5061022260015481565b34801561051857600080fd5b506102227f726577617264657200000000000000000000000000000000000000000000000081565b34801561054c57600080fd5b5061030b61055b366004612573565b610e40565b34801561056c57600080fd5b50610299610e5b565b34801561058157600080fd5b506102556105903660046124c0565b610e87565b3480156105a157600080fd5b506102226105b0366004612369565b60066020526000908152604090205481565b3480156105ce57600080fd5b506102997f000000000000000000000000000000000000000000000000000000000000000081565b34801561060257600080fd5b5061022260045481565b34801561061857600080fd5b50610222610627366004612369565b60086020526000908152604090205481565b34801561064557600080fd5b5061022260025481565b34801561065b57600080fd5b5061030b61066a3660046124c0565b610ed2565b34801561067b57600080fd5b50610222670de0b6b3a764000081565b34801561069757600080fd5b5061022260055481565b3480156106ad57600080fd5b5061030b6106bc366004612369565b610f00565b3480156106cd57600080fd5b506102996106dc366004612573565b60096020526000908152604090205473ffffffffffffffffffffffffffffffffffffffff1681565b73ffffffffffffffffffffffffffffffffffffffff81166000908152600760209081526040808320546008909252822054670de0b6b3a764000090610747610920565b61075191906125bb565b73ffffffffffffffffffffffffffffffffffffffff851660009081526006602052604090205461078191906125ce565b61078b9190612614565b6107959190612628565b92915050565b6000610795826107a9610f1b565b90610f49565b6107b7611023565b6107fe6107c2611066565b83838080601f01602080910402602001604051908101604052809392919081815260200183838082843760009201919091525061107092505050565b6108086001600055565b5050565b60003373ffffffffffffffffffffffffffffffffffffffff7f0000000000000000000000000000000000000000000000000000000000000000161461087d576040517fc1ab6dc100000000000000000000000000000000000000000000000000000000815260040160405180910390fd5b6000806108f3878383896040516020016108a39291909115158252602082015260400190565b604080517fffffffffffffffffffffffffffffffffffffffffffffffffffffffffffffffe0818403018152908290526108df92916020016126a9565b6040516020818303038152906040526111bf565b507f150b7a0200000000000000000000000000000000000000000000000000000000979650505050505050565b60015460009080820361093557505060045490565b80670de0b6b3a764000060035460025461094d610e26565b61095791906125bb565b61096191906125ce565b61096b91906125ce565b6109759190612614565b6004546109829190612628565b91505090565b60016109aa610995611066565b8285856040516020016108df939291906126c4565b505050565b60006109b9611066565b90506109cd816109c76112ab565b906112d9565b6109aa8383836109db611344565b929190611372565b3660006109ee611449565b915091509091565b6000610a00611066565b9050610a0b81611454565b6000610a1682610704565b905080156108085773ffffffffffffffffffffffffffffffffffffffff82166000908152600760205260408120819055610a5083836114e2565b90508273ffffffffffffffffffffffffffffffffffffffff167f4196decb55b5644a278b6ded1c42a27acb5182aa099b1fd48974bcc0cf263fd58284604051610a9a9291906126e9565b60405180910390a2505050565b610aba610ab2611066565b6109c76112ab565b600a5473ffffffffffffffffffffffffffffffffffffffff828116911614610b4957600a80547fffffffffffffffffffffffff00000000000000000000000000000000000000001673ffffffffffffffffffffffffffffffffffffffff83169081179091556040517f92c047df6e363693ec05d0bd21ac0dbc9951c94b023c16966a58dd78f0e27d2990600090a25b50565b6000610b56611066565b9050610b8c7f726577617264657200000000000000000000000000000000000000000000000082610b85611344565b91906114ee565b82600003610bc6576040517f3853986500000000000000000000000000000000000000000000000000000000815260040160405180910390fd5b81600003610c00576040517f7616640100000000000000000000000000000000000000000000000000000000815260040160405180910390fd5b610c0a6000611454565b60055460009081610c1b8542612628565b9050814210610c98576000610c308688612614565b9050868682610c79576040517f99e66a49000000000000000000000000000000000000000000000000000000008152600481019290925260248201526044015b60405180910390fd5b50506003819055610c8a868861270b565b60058390559350610dc19050565b818111610d2757610ca942836125bb565b94506000610cb78688612614565b9050868682610cfb576040517f99e66a4900000000000000000000000000000000000000000000000000000000815260048101929092526024820152604401610c70565b50508060036000828254610d0f9190612628565b90915550610d1f9050868861270b565b935050610dc1565b610d318587612614565b86908690610d74576040517f99e66a4900000000000000000000000000000000000000000000000000000000815260048101929092526024820152604401610c70565b5060009050610d8342846125bb565b600354610d9091906125ce565b90506000610d9e8883612628565b9050610daa8782612614565b600355610db7878261270b565b6005849055945050505b42600255604080518781526020810187905290810184905273ffffffffffffffffffffffffffffffffffffffff8516907f0727302becd070529b3293f4ec8f553d9f6ae1773f638598db1205fbf89080839060600160405180910390a2505050505050565b600554600090428111610e395780610982565b4291505090565b610b49610e4b611066565b82610e54611344565b9190611574565b6000610e82610e686112ab565b5473ffffffffffffffffffffffffffffffffffffffff1690565b905090565b6000610ecb8383610e96611344565b60009283526020908152604080842073ffffffffffffffffffffffffffffffffffffffff909316845291905290205460ff1690565b9392505050565b6000610edc611066565b9050610eea816109c76112ab565b6109aa838383610ef8611344565b929190611618565b610b49610f0b611066565b82610f146112ab565b91906116e2565b60008061079560017fca9d3e17f264b0f3984e2634e94adb37fa3e6a8103f06aeae6fa59e21c769f5e6125bb565b60007c01000000000000000000000000000000000000000000000000000000007fffffffff00000000000000000000000000000000000000000000000000000000831601610f9957506000610795565b7ffe003659000000000000000000000000000000000000000000000000000000007fffffffff00000000000000000000000000000000000000000000000000000000831601610fea57506001610795565b507fffffffff00000000000000000000000000000000000000000000000000000000166000908152602091909152604090205460ff1690565b60026000540361105f576040517f3ee5aeb500000000000000000000000000000000000000000000000000000000815260040160405180910390fd5b6002600055565b6000610e826117f6565b61107982611454565b60006110858383611800565b9050806000036110c1576040517fdb73cdf000000000000000000000000000000000000000000000000000000000815260040160405180910390fd5b73ffffffffffffffffffffffffffffffffffffffff83166000908152600660205260409020548381838082101561114a576040517f2b6a775800000000000000000000000000000000000000000000000000000000815273ffffffffffffffffffffffffffffffffffffffff909316600484015260248301919091526044820152606401610c70565b50505073ffffffffffffffffffffffffffffffffffffffff84166000818152600660205260409081902080548590039055838303600155517faae638dec0d864ccb08558c28981bcfaee41330f57c4911cbe2d8432d0fb729e906111b190869086906126e9565b60405180910390a250505050565b6111c882611454565b60006111d48383611bac565b905080600003611210576040517f040ef8ec00000000000000000000000000000000000000000000000000000000815260040160405180910390fd5b80600160008282546112229190612628565b909155505073ffffffffffffffffffffffffffffffffffffffff83166000908152600660205260408120805483929061125c908490612628565b925050819055508273ffffffffffffffffffffffffffffffffffffffff167ff4679d394f1f97f1a3df1d73e193866ec5a813168ad5fa6958f9be21b10a594e8383604051610a9a9291906126e9565b60008061079560017fc9ed16f33ab3a66c84bfd83099ccb2a8845871e2e1c1928f63797152f0fd54cd6125bb565b815473ffffffffffffffffffffffffffffffffffffffff828116911614610808576040517f2ef4875e00000000000000000000000000000000000000000000000000000000815273ffffffffffffffffffffffffffffffffffffffff82166004820152602401610c70565b60008061079560017fc8827d3282af6f37b64c3e9e6f3ac9df286ab0bb0fccd6f8661bf19adb368b236125bb565b60008381526020858152604080832073ffffffffffffffffffffffffffffffffffffffff8616845290915290205460ff166114435760008381526020858152604080832073ffffffffffffffffffffffffffffffffffffffff8681168086529184529382902080547fffffffffffffffffffffffffffffffffffffffffffffffffffffffffffffff00166001179055815187815292830152918316918101919091527f2f8788117e7eff1d82e926ec794901d17c78024a50270940304540a733656f0d906060015b60405180910390a15b50505050565b3660006109ee611e80565b61145c610920565b60045560055442101580611471575060015415155b156114825761147e610e26565b6002555b73ffffffffffffffffffffffffffffffffffffffff811615610b49576114a781610704565b73ffffffffffffffffffffffffffffffffffffffff821660009081526007602090815260408083209390935560045460089091529190205550565b6060610ecb8383611e8b565b60008281526020848152604080832073ffffffffffffffffffffffffffffffffffffffff8516845290915290205460ff166109aa576040517f7aa728820000000000000000000000000000000000000000000000000000000081526004810183905273ffffffffffffffffffffffffffffffffffffffff82166024820152604401610c70565b61157f8382846114ee565b60008181526020848152604080832073ffffffffffffffffffffffffffffffffffffffff86168085529083529281902080547fffffffffffffffffffffffffffffffffffffffffffffffffffffffffffffff0016905580518481529182018390528101919091527ff6391f5c32d9c69d2a47ea670b442974b53935d1edc7fd64eb21e047a839171b9060600160405180910390a1505050565b60008381526020858152604080832073ffffffffffffffffffffffffffffffffffffffff8616845290915290205460ff16156114435760008381526020858152604080832073ffffffffffffffffffffffffffffffffffffffff8681168086529184529382902080547fffffffffffffffffffffffffffffffffffffffffffffffffffffffffffffff00169055815187815292830152918316918101919091527ff6391f5c32d9c69d2a47ea670b442974b53935d1edc7fd64eb21e047a839171b9060600161143a565b825473ffffffffffffffffffffffffffffffffffffffff908116908316811461174f576040517f2ef4875e00000000000000000000000000000000000000000000000000000000815273ffffffffffffffffffffffffffffffffffffffff84166004820152602401610c70565b8173ffffffffffffffffffffffffffffffffffffffff168173ffffffffffffffffffffffffffffffffffffffff16146114435783547fffffffffffffffffffffffff00000000000000000000000000000000000000001673ffffffffffffffffffffffffffffffffffffffff8381169182178655604051908316907f8be0079c531659141344cd1fd0a4f28419497f9722a3daafe3b4186f6b6457e090600090a350505050565b6000610e82611f19565b60008082806020019051810190611817919061272f565b90508015611a0b5760008380602001905181019061183591906127c8565b8051909250905060005b818114611a0357600083828151811061185a5761185a61288c565b6020908102919091018101516000818152600990925260409091205490915073ffffffffffffffffffffffffffffffffffffffff90811690899083908390831681146118fb576040517f964ebadd00000000000000000000000000000000000000000000000000000000815273ffffffffffffffffffffffffffffffffffffffff938416600482015260248101929092529091166044820152606401610c70565b505050600082815260096020526040902080547fffffffffffffffffffffffff000000000000000000000000000000000000000016905561193d600188612628565b6040517f23b872dd00000000000000000000000000000000000000000000000000000000815230600482015273ffffffffffffffffffffffffffffffffffffffff8b81166024830152604482018590529198507f0000000000000000000000000000000000000000000000000000000000000000909116906323b872dd90606401600060405180830381600087803b1580156119d857600080fd5b505af11580156119ec573d6000803e3d6000fd5b505050505050806119fc906128bb565b905061183f565b505050611ba5565b600083806020019051810190611a2191906128f3565b60008181526009602052604090205490925073ffffffffffffffffffffffffffffffffffffffff908116915086908390839083168114611ab6576040517f964ebadd00000000000000000000000000000000000000000000000000000000815273ffffffffffffffffffffffffffffffffffffffff938416600482015260248101929092529091166044820152606401610c70565b505050600082815260096020526040902080547fffffffffffffffffffffffff000000000000000000000000000000000000000016905560016040517f23b872dd00000000000000000000000000000000000000000000000000000000815230600482015273ffffffffffffffffffffffffffffffffffffffff8881166024830152604482018590529195507f0000000000000000000000000000000000000000000000000000000000000000909116906323b872dd90606401600060405180830381600087803b158015611b8a57600080fd5b505af1158015611b9e573d6000803e3d6000fd5b5050505050505b5092915050565b600080600083806020019051810190611bc5919061291f565b91509150600081806020019051810190611bdf919061272f565b90508015611d5657600082806020019051810190611bfd91906127c8565b8051909250905060005b818114611d4e576000838281518110611c2257611c2261288c565b60209081029190910181015160008181526009909252604090912080547fffffffffffffffffffffffff00000000000000000000000000000000000000001673ffffffffffffffffffffffffffffffffffffffff8d1617905590506001611c899089612628565b6040517f23b872dd00000000000000000000000000000000000000000000000000000000815273ffffffffffffffffffffffffffffffffffffffff8c81166004830152306024830152604482018490529199507f0000000000000000000000000000000000000000000000000000000000000000909116906323b872dd90606401600060405180830381600087803b158015611d2457600080fd5b505af1158015611d38573d6000803e3d6000fd5b505050505080611d47906128bb565b9050611c07565b505050611e77565b600082806020019051810190611d6c91906128f3565b600081815260096020526040902080547fffffffffffffffffffffffff00000000000000000000000000000000000000001673ffffffffffffffffffffffffffffffffffffffff8b1617905591506001905094508315611e75576040517f23b872dd00000000000000000000000000000000000000000000000000000000815273ffffffffffffffffffffffffffffffffffffffff8881166004830152306024830152604482018390527f000000000000000000000000000000000000000000000000000000000000000016906323b872dd90606401600060405180830381600087803b158015611e5c57600080fd5b505af1158015611e70573d6000803e3d6000fd5b505050505b505b50505092915050565b3660006109ee612066565b606081604051602001611ea091815260200190565b604080518083037fffffffffffffffffffffffffffffffffffffffffffffffffffffffffffffffe0018152919052600a549091506107959073ffffffffffffffffffffffffffffffffffffffff7f00000000000000000000000000000000000000000000000000000000000000008116911685856121d6565b600033321480611f295750601836105b15611f3357503390565b7fffffffffffffffffffffffffffffffffffffffffffffffffffffffffffffffec36013560601c7f000000000000000000000000000000000000000000000000000000000000000073ffffffffffffffffffffffffffffffffffffffff1633148061205557506040517f019a202800000000000000000000000000000000000000000000000000000000815273ffffffffffffffffffffffffffffffffffffffff82811660048301523360248301523060448301527f0000000000000000000000000000000000000000000000000000000000000000169063019a202890606401602060405180830381865afa158015612031573d6000803e3d6000fd5b505050506040513d601f19601f82011682018060405250810190612055919061272f565b1561205f57919050565b3391505090565b366000333214806120775750601836105b156120855750600091369150565b3373ffffffffffffffffffffffffffffffffffffffff7f00000000000000000000000000000000000000000000000000000000000000001614806121c0575073ffffffffffffffffffffffffffffffffffffffff7f00000000000000000000000000000000000000000000000000000000000000001663019a2028367fffffffffffffffffffffffffffffffffffffffffffffffffffffffffffffffec013560601c6040517fffffffff0000000000000000000000000000000000000000000000000000000060e084901b16815273ffffffffffffffffffffffffffffffffffffffff9091166004820152336024820152306044820152606401602060405180830381865afa15801561219c573d6000803e3d6000fd5b505050506040513d601f19601f820116820180604052508101906121c0919061272f565b156121cd576109ee61226b565b50600091369150565b6040805173ffffffffffffffffffffffffffffffffffffffff85811660248301528416604482015260648082018490528251808303909101815260849091019091526020810180517bffffffffffffffffffffffffffffffffffffffffffffffffffffffff167f23b872dd0000000000000000000000000000000000000000000000000000000017905261144390859061229c565b3660006109ee7fffffffffffffffffffffffffffffffffffffffffffffffffffffffffffffffec83018284816129e6565b600080602060008451602086016000885af1806122bf576040513d6000823e3d81fd5b50506000513d915081156122d75780600114156122f1565b73ffffffffffffffffffffffffffffffffffffffff84163b155b15611443576040517f5274afe700000000000000000000000000000000000000000000000000000000815273ffffffffffffffffffffffffffffffffffffffff85166004820152602401610c70565b803573ffffffffffffffffffffffffffffffffffffffff8116811461236457600080fd5b919050565b60006020828403121561237b57600080fd5b610ecb82612340565b60006020828403121561239657600080fd5b81357fffffffff0000000000000000000000000000000000000000000000000000000081168114610ecb57600080fd5b60008083601f8401126123d857600080fd5b50813567ffffffffffffffff8111156123f057600080fd5b60208301915083602082850101111561240857600080fd5b9250929050565b6000806020838503121561242257600080fd5b823567ffffffffffffffff81111561243957600080fd5b612445858286016123c6565b90969095509350505050565b60008060008060006080868803121561246957600080fd5b61247286612340565b945061248060208701612340565b935060408601359250606086013567ffffffffffffffff8111156124a357600080fd5b6124af888289016123c6565b969995985093965092949392505050565b600080604083850312156124d357600080fd5b823591506124e360208401612340565b90509250929050565b8183528181602085013750600060208284010152600060207fffffffffffffffffffffffffffffffffffffffffffffffffffffffffffffffe0601f840116840101905092915050565b6020815260006125496020830184866124ec565b949350505050565b6000806040838503121561256457600080fd5b50508035926020909101359150565b60006020828403121561258557600080fd5b5035919050565b7f4e487b7100000000000000000000000000000000000000000000000000000000600052601160045260246000fd5b818103818111156107955761079561258c565b80820281158282048414176107955761079561258c565b7f4e487b7100000000000000000000000000000000000000000000000000000000600052601260045260246000fd5b600082612623576126236125e5565b500490565b808201808211156107955761079561258c565b60005b8381101561265657818101518382015260200161263e565b50506000910152565b6000815180845261267781602086016020860161263b565b601f017fffffffffffffffffffffffffffffffffffffffffffffffffffffffffffffffe0169290920160200192915050565b8215158152604060208201526000612549604083018461265f565b83151581526040602082015260006126e06040830184866124ec565b95945050505050565b6040815260006126fc604083018561265f565b90508260208301529392505050565b60008261271a5761271a6125e5565b500690565b8051801515811461236457600080fd5b60006020828403121561274157600080fd5b610ecb8261271f565b7f4e487b7100000000000000000000000000000000000000000000000000000000600052604160045260246000fd5b604051601f82017fffffffffffffffffffffffffffffffffffffffffffffffffffffffffffffffe016810167ffffffffffffffff811182821017156127c0576127c061274a565b604052919050565b600080604083850312156127db57600080fd5b6127e48361271f565b9150602083015167ffffffffffffffff81111561280057600080fd5b8301601f8101851361281157600080fd5b805167ffffffffffffffff81111561282b5761282b61274a565b8060051b61283b60208201612779565b9182526020818401810192908101908884111561285757600080fd5b6020850194505b8385101561287d5784518083526020958601959093509091019061285e565b80955050505050509250929050565b7f4e487b7100000000000000000000000000000000000000000000000000000000600052603260045260246000fd5b60007fffffffffffffffffffffffffffffffffffffffffffffffffffffffffffffffff82036128ec576128ec61258c565b5060010190565b6000806040838503121561290657600080fd5b61290f8361271f565b6020939093015192949293505050565b6000806040838503121561293257600080fd5b61293b8361271f565b9150602083015167ffffffffffffffff81111561295757600080fd5b8301601f8101851361296857600080fd5b805167ffffffffffffffff8111156129825761298261274a565b6129b360207fffffffffffffffffffffffffffffffffffffffffffffffffffffffffffffffe0601f84011601612779565b8181528660208385010111156129c857600080fd5b6129d982602083016020860161263b565b8093505050509250929050565b600080858511156129f657600080fd5b83861115612a0357600080fd5b505082019391909203915056fea26469706673582212209cdcf75e40f3b1fd54f64bf4af6c2c7e3f4527b8e2bb76e8312918927506d3b764736f6c634300081c0033",
  "linkReferences": {},
  "deployedLinkReferences": {}
}