{
  "_format": "hh-sol-artifact-1",
  "contractName": "ERC721StakingERC20RewardsLinearPoolMock",
  "sourceName": "contracts/mocks/staking/linear/ERC721StakingERC20RewardsLinearPoolMock.sol",
  "abi": [
    {
      "inputs": [
        {
          "internalType": "contract IERC721",
          "name": "stakingToken",
          "type": "address"
        },
        {
          "internalType": "contract IERC20",
          "name": "rewardToken",
          "type": "address"
        },
        {
          "internalType": "address",
          "name": "rewardHolder",
          "type": "address"
        },
        {
          "internalType": "contract IForwarderRegistry",
          "name": "forwarderRegistry",
          "type": "address"
        }
      ],
      "stateMutability": "nonpayable",
      "type": "constructor"
    },
    {
      "inputs": [],
      "name": "FailedCall",
      "type": "error"
    },
    {
      "inputs": [],
      "name": "IllegalInterfaceId",
      "type": "error"
    },
    {
      "inputs": [],
      "name": "InconsistentArrayLengths",
      "type": "error"
    },
    {
      "inputs": [
        {
          "internalType": "address",
          "name": "tokenContract",
          "type": "address"
        }
      ],
      "name": "IncorrectTokenContractType",
      "type": "error"
    },
    {
      "inputs": [
        {
          "internalType": "uint256",
          "name": "balance",
          "type": "uint256"
        },
        {
          "internalType": "uint256",
          "name": "needed",
          "type": "uint256"
        }
      ],
      "name": "InsufficientBalance",
      "type": "error"
    },
    {
      "inputs": [],
      "name": "InvalidDuration",
      "type": "error"
    },
    {
      "inputs": [
        {
          "internalType": "uint256",
          "name": "tokenId",
          "type": "uint256"
        }
      ],
      "name": "InvalidRecoveryToken",
      "type": "error"
    },
    {
      "inputs": [],
      "name": "InvalidRewardAmount",
      "type": "error"
    },
    {
      "inputs": [],
      "name": "InvalidStakeAmount",
      "type": "error"
    },
    {
      "inputs": [],
      "name": "InvalidToken",
      "type": "error"
    },
    {
      "inputs": [],
      "name": "InvalidWithdrawAmount",
      "type": "error"
    },
    {
      "inputs": [
        {
          "internalType": "address",
          "name": "account",
          "type": "address"
        }
      ],
      "name": "NotContractOwner",
      "type": "error"
    },
    {
      "inputs": [
        {
          "internalType": "address",
          "name": "staker",
          "type": "address"
        },
        {
          "internalType": "uint256",
          "name": "stake",
          "type": "uint256"
        },
        {
          "internalType": "uint256",
          "name": "withdraw",
          "type": "uint256"
        }
      ],
      "name": "NotEnoughStake",
      "type": "error"
    },
    {
      "inputs": [
        {
          "internalType": "bytes32",
          "name": "role",
          "type": "bytes32"
        },
        {
          "internalType": "address",
          "name": "account",
          "type": "address"
        }
      ],
      "name": "NotRoleHolder",
      "type": "error"
    },
    {
      "inputs": [
        {
          "internalType": "address",
          "name": "staker",
          "type": "address"
        },
        {
          "internalType": "uint256",
          "name": "tokenId",
          "type": "uint256"
        },
        {
          "internalType": "address",
          "name": "owner",
          "type": "address"
        }
      ],
      "name": "NotTheTokenOwner",
      "type": "error"
    },
    {
      "inputs": [],
      "name": "ReentrancyGuardReentrantCall",
      "type": "error"
    },
    {
      "inputs": [
        {
          "internalType": "uint256",
          "name": "reward",
          "type": "uint256"
        },
        {
          "internalType": "uint256",
          "name": "duration",
          "type": "uint256"
        }
      ],
      "name": "RewardTooSmallForDuration",
      "type": "error"
    },
    {
      "inputs": [
        {
          "internalType": "address",
          "name": "token",
          "type": "address"
        }
      ],
      "name": "SafeERC20FailedOperation",
      "type": "error"
    },
    {
      "anonymous": false,
      "inputs": [
        {
          "indexed": true,
          "internalType": "address",
          "name": "staker",
          "type": "address"
        },
        {
          "indexed": false,
          "internalType": "bytes",
          "name": "claimData",
          "type": "bytes"
        },
        {
          "indexed": false,
          "internalType": "uint256",
          "name": "reward",
          "type": "uint256"
        }
      ],
      "name": "Claimed",
      "type": "event"
    },
    {
      "anonymous": false,
      "inputs": [
        {
          "indexed": true,
          "internalType": "address",
          "name": "previousOwner",
          "type": "address"
        },
        {
          "indexed": true,
          "internalType": "address",
          "name": "newOwner",
          "type": "address"
        }
      ],
      "name": "OwnershipTransferred",
      "type": "event"
    },
    {
      "anonymous": false,
      "inputs": [
        {
          "indexed": true,
          "internalType": "address",
          "name": "rewarder",
          "type": "address"
        },
        {
          "indexed": false,
          "internalType": "uint256",
          "name": "reward",
          "type": "uint256"
        },
        {
          "indexed": false,
          "internalType": "uint256",
          "name": "duration",
          "type": "uint256"
        },
        {
          "indexed": false,
          "internalType": "uint256",
          "name": "dust",
          "type": "uint256"
        }
      ],
      "name": "RewardAdded",
      "type": "event"
    },
    {
      "anonymous": false,
      "inputs": [
        {
          "indexed": true,
          "internalType": "address",
          "name": "rewardHolder",
          "type": "address"
        }
      ],
      "name": "RewardHolderSet",
      "type": "event"
    },
    {
      "anonymous": false,
      "inputs": [
        {
          "indexed": false,
          "internalType": "bytes32",
          "name": "role",
          "type": "bytes32"
        },
        {
          "indexed": false,
          "internalType": "address",
          "name": "account",
          "type": "address"
        },
        {
          "indexed": false,
          "internalType": "address",
          "name": "operator",
          "type": "address"
        }
      ],
      "name": "RoleGranted",
      "type": "event"
    },
    {
      "anonymous": false,
      "inputs": [
        {
          "indexed": false,
          "internalType": "bytes32",
          "name": "role",
          "type": "bytes32"
        },
        {
          "indexed": false,
          "internalType": "address",
          "name": "account",
          "type": "address"
        },
        {
          "indexed": false,
          "internalType": "address",
          "name": "operator",
          "type": "address"
        }
      ],
      "name": "RoleRevoked",
      "type": "event"
    },
    {
      "anonymous": false,
      "inputs": [
        {
          "indexed": true,
          "internalType": "address",
          "name": "staker",
          "type": "address"
        },
        {
          "indexed": false,
          "internalType": "bytes",
          "name": "stakeData",
          "type": "bytes"
        },
        {
          "indexed": false,
          "internalType": "uint256",
          "name": "stakePoints",
          "type": "uint256"
        }
      ],
      "name": "Staked",
      "type": "event"
    },
    {
      "anonymous": false,
      "inputs": [
        {
          "indexed": true,
          "internalType": "address",
          "name": "staker",
          "type": "address"
        },
        {
          "indexed": false,
          "internalType": "bytes",
          "name": "withdrawData",
          "type": "bytes"
        },
        {
          "indexed": false,
          "internalType": "uint256",
          "name": "stakePoints",
          "type": "uint256"
        }
      ],
      "name": "Withdrawn",
      "type": "event"
    },
    {
      "inputs": [],
      "name": "REWARDER_ROLE",
      "outputs": [
        {
          "internalType": "bytes32",
          "name": "",
          "type": "bytes32"
        }
      ],
      "stateMutability": "view",
      "type": "function"
    },
    {
      "inputs": [],
      "name": "REWARD_TOKEN",
      "outputs": [
        {
          "internalType": "contract IERC20",
          "name": "",
          "type": "address"
        }
      ],
      "stateMutability": "view",
      "type": "function"
    },
    {
      "inputs": [],
      "name": "SCALING_FACTOR",
      "outputs": [
        {
          "internalType": "uint256",
          "name": "",
          "type": "uint256"
        }
      ],
      "stateMutability": "view",
      "type": "function"
    },
    {
      "inputs": [],
      "name": "STAKING_TOKEN",
      "outputs": [
        {
          "internalType": "contract IERC721",
          "name": "",
          "type": "address"
        }
      ],
      "stateMutability": "view",
      "type": "function"
    },
    {
      "inputs": [],
      "name": "__msgData",
      "outputs": [
        {
          "internalType": "bytes",
          "name": "",
          "type": "bytes"
        }
      ],
      "stateMutability": "view",
      "type": "function"
    },
    {
      "inputs": [
        {
          "internalType": "uint256",
          "name": "reward",
          "type": "uint256"
        },
        {
          "internalType": "uint256",
          "name": "duration",
          "type": "uint256"
        }
      ],
      "name": "addReward",
      "outputs": [],
      "stateMutability": "payable",
      "type": "function"
    },
    {
      "inputs": [],
      "name": "claim",
      "outputs": [],
      "stateMutability": "nonpayable",
      "type": "function"
    },
    {
      "inputs": [],
      "name": "distributionEnd",
      "outputs": [
        {
          "internalType": "uint256",
          "name": "",
          "type": "uint256"
        }
      ],
      "stateMutability": "view",
      "type": "function"
    },
    {
      "inputs": [
        {
          "internalType": "address",
          "name": "account",
          "type": "address"
        }
      ],
      "name": "earned",
      "outputs": [
        {
          "internalType": "uint256",
          "name": "",
          "type": "uint256"
        }
      ],
      "stateMutability": "view",
      "type": "function"
    },
    {
      "inputs": [],
      "name": "forwarderRegistry",
      "outputs": [
        {
          "internalType": "contract IForwarderRegistry",
          "name": "",
          "type": "address"
        }
      ],
      "stateMutability": "view",
      "type": "function"
    },
    {
      "inputs": [
        {
          "internalType": "bytes32",
          "name": "role",
          "type": "bytes32"
        },
        {
          "internalType": "address",
          "name": "account",
          "type": "address"
        }
      ],
      "name": "grantRole",
      "outputs": [],
      "stateMutability": "nonpayable",
      "type": "function"
    },
    {
      "inputs": [
        {
          "internalType": "bytes32",
          "name": "role",
          "type": "bytes32"
        },
        {
          "internalType": "address",
          "name": "account",
          "type": "address"
        }
      ],
      "name": "hasRole",
      "outputs": [
        {
          "internalType": "bool",
          "name": "hasRole_",
          "type": "bool"
        }
      ],
      "stateMutability": "view",
      "type": "function"
    },
    {
      "inputs": [
        {
          "internalType": "address",
          "name": "forwarder",
          "type": "address"
        }
      ],
      "name": "isTrustedForwarder",
      "outputs": [
        {
          "internalType": "bool",
          "name": "",
          "type": "bool"
        }
      ],
      "stateMutability": "view",
      "type": "function"
    },
    {
      "inputs": [],
      "name": "lastTimeRewardApplicable",
      "outputs": [
        {
          "internalType": "uint256",
          "name": "",
          "type": "uint256"
        }
      ],
      "stateMutability": "view",
      "type": "function"
    },
    {
      "inputs": [],
      "name": "lastUpdated",
      "outputs": [
        {
          "internalType": "uint256",
          "name": "",
          "type": "uint256"
        }
      ],
      "stateMutability": "view",
      "type": "function"
    },
    {
      "inputs": [
        {
          "internalType": "address",
          "name": "",
          "type": "address"
        },
        {
          "internalType": "address",
          "name": "from",
          "type": "address"
        },
        {
          "internalType": "uint256",
          "name": "tokenId",
          "type": "uint256"
        },
        {
          "internalType": "bytes",
          "name": "",
          "type": "bytes"
        }
      ],
      "name": "onERC721Received",
      "outputs": [
        {
          "internalType": "bytes4",
          "name": "",
          "type": "bytes4"
        }
      ],
      "stateMutability": "nonpayable",
      "type": "function"
    },
    {
      "inputs": [],
      "name": "owner",
      "outputs": [
        {
          "internalType": "address",
          "name": "",
          "type": "address"
        }
      ],
      "stateMutability": "view",
      "type": "function"
    },
    {
      "inputs": [
        {
          "internalType": "address[]",
          "name": "accounts",
          "type": "address[]"
        },
        {
          "internalType": "contract IERC20[]",
          "name": "tokens",
          "type": "address[]"
        },
        {
          "internalType": "uint256[]",
          "name": "amounts",
          "type": "uint256[]"
        }
      ],
      "name": "recoverERC20s",
      "outputs": [],
      "stateMutability": "nonpayable",
      "type": "function"
    },
    {
      "inputs": [
        {
          "internalType": "address[]",
          "name": "accounts",
          "type": "address[]"
        },
        {
          "internalType": "contract IERC721[]",
          "name": "contracts",
          "type": "address[]"
        },
        {
          "internalType": "uint256[]",
          "name": "tokenIds",
          "type": "uint256[]"
        }
      ],
      "name": "recoverERC721s",
      "outputs": [],
      "stateMutability": "nonpayable",
      "type": "function"
    },
    {
      "inputs": [
        {
          "internalType": "address payable[]",
          "name": "accounts",
          "type": "address[]"
        },
        {
          "internalType": "uint256[]",
          "name": "amounts",
          "type": "uint256[]"
        }
      ],
      "name": "recoverETH",
      "outputs": [],
      "stateMutability": "nonpayable",
      "type": "function"
    },
    {
      "inputs": [
        {
          "internalType": "bytes32",
          "name": "role",
          "type": "bytes32"
        }
      ],
      "name": "renounceRole",
      "outputs": [],
      "stateMutability": "nonpayable",
      "type": "function"
    },
    {
      "inputs": [
        {
          "internalType": "bytes32",
          "name": "role",
          "type": "bytes32"
        },
        {
          "internalType": "address",
          "name": "account",
          "type": "address"
        }
      ],
      "name": "revokeRole",
      "outputs": [],
      "stateMutability": "nonpayable",
      "type": "function"
    },
    {
      "inputs": [],
      "name": "rewardHolder",
      "outputs": [
        {
          "internalType": "address",
          "name": "",
          "type": "address"
        }
      ],
      "stateMutability": "view",
      "type": "function"
    },
    {
      "inputs": [],
      "name": "rewardPerStakePoint",
      "outputs": [
        {
          "internalType": "uint256",
          "name": "",
          "type": "uint256"
        }
      ],
      "stateMutability": "view",
      "type": "function"
    },
    {
      "inputs": [
        {
          "internalType": "address",
          "name": "staker",
          "type": "address"
        }
      ],
      "name": "rewardPerStakePointPaid",
      "outputs": [
        {
          "internalType": "uint256",
          "name": "paid",
          "type": "uint256"
        }
      ],
      "stateMutability": "view",
      "type": "function"
    },
    {
      "inputs": [],
      "name": "rewardPerStakePointStored",
      "outputs": [
        {
          "internalType": "uint256",
          "name": "",
          "type": "uint256"
        }
      ],
      "stateMutability": "view",
      "type": "function"
    },
    {
      "inputs": [],
      "name": "rewardRate",
      "outputs": [
        {
          "internalType": "uint256",
          "name": "",
          "type": "uint256"
        }
      ],
      "stateMutability": "view",
      "type": "function"
    },
    {
      "inputs": [
        {
          "internalType": "address",
          "name": "staker",
          "type": "address"
        }
      ],
      "name": "rewards",
      "outputs": [
        {
          "internalType": "uint256",
          "name": "reward",
          "type": "uint256"
        }
      ],
      "stateMutability": "view",
      "type": "function"
    },
    {
      "inputs": [
        {
          "internalType": "address",
          "name": "rewardHolder_",
          "type": "address"
        }
      ],
      "name": "setRewardHolder",
      "outputs": [],
      "stateMutability": "nonpayable",
      "type": "function"
    },
    {
      "inputs": [
        {
          "internalType": "bytes",
          "name": "stakeData",
          "type": "bytes"
        }
      ],
      "name": "stake",
      "outputs": [],
      "stateMutability": "payable",
      "type": "function"
    },
    {
      "inputs": [
        {
          "internalType": "address",
          "name": "staker",
          "type": "address"
        }
      ],
      "name": "staked",
      "outputs": [
        {
          "internalType": "uint256",
          "name": "stakePoints",
          "type": "uint256"
        }
      ],
      "stateMutability": "view",
      "type": "function"
    },
    {
      "inputs": [
        {
          "internalType": "bytes4",
          "name": "interfaceId",
          "type": "bytes4"
        }
      ],
      "name": "supportsInterface",
      "outputs": [
        {
          "internalType": "bool",
          "name": "",
          "type": "bool"
        }
      ],
      "stateMutability": "view",
      "type": "function"
    },
    {
      "inputs": [
        {
          "internalType": "uint256",
          "name": "tokenId",
          "type": "uint256"
        }
      ],
      "name": "tokenOwners",
      "outputs": [
        {
          "internalType": "address",
          "name": "owner",
          "type": "address"
        }
      ],
      "stateMutability": "view",
      "type": "function"
    },
    {
      "inputs": [],
      "name": "totalStaked",
      "outputs": [
        {
          "internalType": "uint256",
          "name": "",
          "type": "uint256"
        }
      ],
      "stateMutability": "view",
      "type": "function"
    },
    {
      "inputs": [
        {
          "internalType": "address",
          "name": "newOwner",
          "type": "address"
        }
      ],
      "name": "transferOwnership",
      "outputs": [],
      "stateMutability": "nonpayable",
      "type": "function"
    },
    {
      "inputs": [
        {
          "internalType": "bytes",
          "name": "withdrawData",
          "type": "bytes"
        }
      ],
      "name": "withdraw",
      "outputs": [],
      "stateMutability": "nonpayable",
      "type": "function"
    }
  ],
  "bytecode": "0x60e060405234801561001057600080fd5b5060405161365738038061365783398101604081905261002f91610221565b8282858380808033610049816100436100dc565b90610110565b50600160008190556001600160a01b0390911660805261007d9250630a85bd0160e11b915061007661017f565b91906101ad565b506001600160a01b0390811660a05282811660c052600a80546001600160a01b03191691831691821790556040517f92c047df6e363693ec05d0bd21ac0dbc9951c94b023c16966a58dd78f0e27d2990600090a25050505050506102a1565b60008061010a60017fc9ed16f33ab3a66c84bfd83099ccb2a8845871e2e1c1928f63797152f0fd54cd610280565b92915050565b6001600160a01b038116156101665781546001600160a01b0319166001600160a01b03821690811783556040516000907f8be0079c531659141344cd1fd0a4f28419497f9722a3daafe3b4186f6b6457e0908290a35b61017b6307f5828d60e41b600161007661017f565b5050565b60008061010a60017fca9d3e17f264b0f3984e2634e94adb37fa3e6a8103f06aeae6fa59e21c769f5e610280565b600160e01b6001600160e01b03198316016101db576040516372c683bb60e01b815260040160405180910390fd5b6001600160e01b03199190911660009081526020929092526040909120805460ff1916911515919091179055565b6001600160a01b038116811461021e57600080fd5b50565b6000806000806080858703121561023757600080fd5b845161024281610209565b602086015190945061025381610209565b604086015190935061026481610209565b606086015190925061027581610209565b939692955090935050565b8181038181111561010a57634e487b7160e01b600052601160045260246000fd5b60805160a05160c0516133336103246000396000818161064501526122b80152600081816102c8015281816108d701528181610fb001528181611d5b01528181611f0d015281816120a701526121e10152600081816103be015281816104ac015281816126f20152818161278001528181612833015261287101526133336000f3fe60806040526004361061024e5760003560e01c806380faa57d11610138578063c3666c36116100b0578063ef4cadc51161007f578063f2fde38b11610064578063f2fde38b14610732578063f7ba94bd14610752578063f8a14f461461077257600080fd5b8063ef4cadc514610700578063efa90b541461071c57600080fd5b8063c3666c361461067d578063c5c8f7701461069d578063d0b06f5d146106ca578063d547741f146106e057600080fd5b80638da5cb5b1161010757806398807d84116100ec57806398807d841461060657806399248ea7146106335780639d696e361461066757600080fd5b80638da5cb5b146105d157806391d14854146105e657600080fd5b806380faa57d14610552578063817b1cd2146105675780638580cf761461057d5780638bb9c5bf146105b157600080fd5b80632f2ff15d116101cb578063572b6c051161019a57806373c8a9581161017f57806373c8a9581461050957806375c93bb9146105295780637b0a47ee1461053c57600080fd5b8063572b6c051461048f5780636806cc93146104e957600080fd5b80632f2ff15d1461040a57806331e66e1e1461042a5780634e71d92d1461044d578063569c93d21461046257600080fd5b80630968f264116102225780632b4c9f16116102075780632b4c9f16146103af5780632c9d0b80146103e25780632d1e0c02146103f757600080fd5b80630968f2641461033c578063150b7a021461035e57600080fd5b80628cc2621461025357806301ffc9a7146102865780630479d644146102b65780630700037d1461030f575b600080fd5b34801561025f57600080fd5b5061027361026e366004612aeb565b6107b5565b6040519081526020015b60405180910390f35b34801561029257600080fd5b506102a66102a1366004612b08565b61084c565b604051901515815260200161027d565b3480156102c257600080fd5b506102ea7f000000000000000000000000000000000000000000000000000000000000000081565b60405173ffffffffffffffffffffffffffffffffffffffff909116815260200161027d565b34801561031b57600080fd5b5061027361032a366004612aeb565b60076020526000908152604090205481565b34801561034857600080fd5b5061035c610357366004612b93565b610860565b005b34801561036a57600080fd5b5061037e610379366004612bd5565b6108bd565b6040517fffffffff00000000000000000000000000000000000000000000000000000000909116815260200161027d565b3480156103bb57600080fd5b507f00000000000000000000000000000000000000000000000000000000000000006102ea565b3480156103ee57600080fd5b506102736109d1565b61035c610405366004612b93565b610a39565b34801561041657600080fd5b5061035c610425366004612c48565b610a60565b34801561043657600080fd5b5061043f610a94565b60405161027d929190612cc1565b34801561045957600080fd5b5061035c610aa7565b34801561046e57600080fd5b50600a546102ea9073ffffffffffffffffffffffffffffffffffffffff1681565b34801561049b57600080fd5b506102a66104aa366004612aeb565b7f000000000000000000000000000000000000000000000000000000000000000073ffffffffffffffffffffffffffffffffffffffff90811691161490565b3480156104f557600080fd5b5061035c610504366004612aeb565b610b58565b34801561051557600080fd5b5061035c610524366004612d22565b610bfd565b61035c610537366004612dc8565b610c1e565b34801561054857600080fd5b5061027360035481565b34801561055e57600080fd5b50610273610ef8565b34801561057357600080fd5b5061027360015481565b34801561058957600080fd5b506102737f726577617264657200000000000000000000000000000000000000000000000081565b3480156105bd57600080fd5b5061035c6105cc366004612dea565b610f12565b3480156105dd57600080fd5b506102ea610f2d565b3480156105f257600080fd5b506102a6610601366004612c48565b610f59565b34801561061257600080fd5b50610273610621366004612aeb565b60066020526000908152604090205481565b34801561063f57600080fd5b506102ea7f000000000000000000000000000000000000000000000000000000000000000081565b34801561067357600080fd5b5061027360045481565b34801561068957600080fd5b5061035c610698366004612d22565b610fa4565b3480156106a957600080fd5b506102736106b8366004612aeb565b60086020526000908152604090205481565b3480156106d657600080fd5b5061027360025481565b3480156106ec57600080fd5b5061035c6106fb366004612c48565b6110ce565b34801561070c57600080fd5b50610273670de0b6b3a764000081565b34801561072857600080fd5b5061027360055481565b34801561073e57600080fd5b5061035c61074d366004612aeb565b6110fc565b34801561075e57600080fd5b5061035c61076d366004612e03565b611117565b34801561077e57600080fd5b506102ea61078d366004612dea565b60096020526000908152604090205473ffffffffffffffffffffffffffffffffffffffff1681565b73ffffffffffffffffffffffffffffffffffffffff81166000908152600760209081526040808320546008909252822054670de0b6b3a7640000906107f86109d1565b6108029190612ea3565b73ffffffffffffffffffffffffffffffffffffffff85166000908152600660205260409020546108329190612eb6565b61083c9190612efc565b6108469190612f10565b92915050565b60006108468261085a611134565b90611162565b61086861123c565b6108af61087361127f565b83838080601f01602080910402602001604051908101604052809392919081815260200183838082843760009201919091525061128992505050565b6108b96001600055565b5050565b60003373ffffffffffffffffffffffffffffffffffffffff7f0000000000000000000000000000000000000000000000000000000000000000161461092e576040517fc1ab6dc100000000000000000000000000000000000000000000000000000000815260040160405180910390fd5b6000806109a4878383896040516020016109549291909115158252602082015260400190565b604080517fffffffffffffffffffffffffffffffffffffffffffffffffffffffffffffffe0818403018152908290526109909291602001612f91565b6040516020818303038152906040526113d9565b507f150b7a0200000000000000000000000000000000000000000000000000000000979650505050505050565b6001546000908082036109e657505060045490565b80670de0b6b3a76400006003546002546109fe610ef8565b610a089190612ea3565b610a129190612eb6565b610a1c9190612eb6565b610a269190612efc565b600454610a339190612f10565b91505090565b6001610a5b610a4661127f565b82858560405160200161099093929190612fac565b505050565b6000610a6a61127f565b9050610a7e81610a786114c5565b906114f3565b610a5b838383610a8c61155e565b92919061158c565b366000610a9f611662565b915091509091565b6000610ab161127f565b9050610abc8161166d565b6000610ac7826107b5565b905080156108b95773ffffffffffffffffffffffffffffffffffffffff82166000908152600760205260408120819055610b0183836116fb565b90508273ffffffffffffffffffffffffffffffffffffffff167f4196decb55b5644a278b6ded1c42a27acb5182aa099b1fd48974bcc0cf263fd58284604051610b4b929190612fd1565b60405180910390a2505050565b610b6b610b6361127f565b610a786114c5565b600a5473ffffffffffffffffffffffffffffffffffffffff828116911614610bfa57600a80547fffffffffffffffffffffffff00000000000000000000000000000000000000001673ffffffffffffffffffffffffffffffffffffffff83169081179091556040517f92c047df6e363693ec05d0bd21ac0dbc9951c94b023c16966a58dd78f0e27d2990600090a25b50565b610c08610b6361127f565b610c16868686868686611707565b505050505050565b6000610c2861127f565b9050610c5e7f726577617264657200000000000000000000000000000000000000000000000082610c5761155e565b91906117f2565b82600003610c98576040517f3853986500000000000000000000000000000000000000000000000000000000815260040160405180910390fd5b81600003610cd2576040517f7616640100000000000000000000000000000000000000000000000000000000815260040160405180910390fd5b610cdc600061166d565b60055460009081610ced8542612f10565b9050814210610d6a576000610d028688612efc565b9050868682610d4b576040517f99e66a49000000000000000000000000000000000000000000000000000000008152600481019290925260248201526044015b60405180910390fd5b50506003819055610d5c8688612ff3565b60058390559350610e939050565b818111610df957610d7b4283612ea3565b94506000610d898688612efc565b9050868682610dcd576040517f99e66a4900000000000000000000000000000000000000000000000000000000815260048101929092526024820152604401610d42565b50508060036000828254610de19190612f10565b90915550610df190508688612ff3565b935050610e93565b610e038587612efc565b86908690610e46576040517f99e66a4900000000000000000000000000000000000000000000000000000000815260048101929092526024820152604401610d42565b5060009050610e554284612ea3565b600354610e629190612eb6565b90506000610e708883612f10565b9050610e7c8782612efc565b600355610e898782612ff3565b6005849055945050505b42600255604080518781526020810187905290810184905273ffffffffffffffffffffffffffffffffffffffff8516907f0727302becd070529b3293f4ec8f553d9f6ae1773f638598db1205fbf89080839060600160405180910390a2505050505050565b600554600090428111610f0b5780610a33565b4291505090565b610bfa610f1d61127f565b82610f2661155e565b9190611878565b6000610f54610f3a6114c5565b5473ffffffffffffffffffffffffffffffffffffffff1690565b905090565b6000610f9d8383610f6861155e565b60009283526020908152604080842073ffffffffffffffffffffffffffffffffffffffff909316845291905290205460ff1690565b9392505050565b60005b8084146110bf577f000000000000000000000000000000000000000000000000000000000000000073ffffffffffffffffffffffffffffffffffffffff16858583818110610ff757610ff7613007565b905060200201602081019061100c9190612aeb565b73ffffffffffffffffffffffffffffffffffffffff16036110af57600083838381811061103b5761103b613007565b6020908102929092013560008181526009909352604090922054919250829173ffffffffffffffffffffffffffffffffffffffff161590506110ac576040517f38c4e116000000000000000000000000000000000000000000000000000000008152600401610d4291815260200190565b50505b6110b881613036565b9050610fa7565b50610c1686868686868661191c565b60006110d861127f565b90506110e681610a786114c5565b610a5b8383836110f461155e565b929190611935565b610bfa61110761127f565b826111106114c5565b91906119ff565b611122610b6361127f565b61112e84848484611b13565b50505050565b60008061084660017fca9d3e17f264b0f3984e2634e94adb37fa3e6a8103f06aeae6fa59e21c769f5e612ea3565b60007c01000000000000000000000000000000000000000000000000000000007fffffffff000000000000000000000000000000000000000000000000000000008316016111b257506000610846565b7ffe003659000000000000000000000000000000000000000000000000000000007fffffffff0000000000000000000000000000000000000000000000000000000083160161120357506001610846565b507fffffffff00000000000000000000000000000000000000000000000000000000166000908152602091909152604090205460ff1690565b600260005403611278576040517f3ee5aeb500000000000000000000000000000000000000000000000000000000815260040160405180910390fd5b6002600055565b6000610f54611bbf565b6112928261166d565b600061129e8383611bc9565b9050806000036112da576040517fdb73cdf000000000000000000000000000000000000000000000000000000000815260040160405180910390fd5b73ffffffffffffffffffffffffffffffffffffffff831660009081526006602052604090205483818380821015611363576040517f2b6a775800000000000000000000000000000000000000000000000000000000815273ffffffffffffffffffffffffffffffffffffffff909316600484015260248301919091526044820152606401610d42565b50505073ffffffffffffffffffffffffffffffffffffffff8416600081815260066020526040908190208484039055600180548590039055517faae638dec0d864ccb08558c28981bcfaee41330f57c4911cbe2d8432d0fb729e906113cb9086908690612fd1565b60405180910390a250505050565b6113e28261166d565b60006113ee8383611f75565b90508060000361142a576040517f040ef8ec00000000000000000000000000000000000000000000000000000000815260040160405180910390fd5b806001600082825461143c9190612f10565b909155505073ffffffffffffffffffffffffffffffffffffffff831660009081526006602052604081208054839290611476908490612f10565b925050819055508273ffffffffffffffffffffffffffffffffffffffff167ff4679d394f1f97f1a3df1d73e193866ec5a813168ad5fa6958f9be21b10a594e8383604051610b4b929190612fd1565b60008061084660017fc9ed16f33ab3a66c84bfd83099ccb2a8845871e2e1c1928f63797152f0fd54cd612ea3565b815473ffffffffffffffffffffffffffffffffffffffff8281169116146108b9576040517f2ef4875e00000000000000000000000000000000000000000000000000000000815273ffffffffffffffffffffffffffffffffffffffff82166004820152602401610d42565b60008061084660017fc8827d3282af6f37b64c3e9e6f3ac9df286ab0bb0fccd6f8661bf19adb368b23612ea3565b60008381526020858152604080832073ffffffffffffffffffffffffffffffffffffffff8616845290915290205460ff1661112e5760008381526020858152604080832073ffffffffffffffffffffffffffffffffffffffff8681168086529184529382902080547fffffffffffffffffffffffffffffffffffffffffffffffffffffffffffffff00166001179055815187815292830152918316918101919091527f2f8788117e7eff1d82e926ec794901d17c78024a50270940304540a733656f0d906060015b60405180910390a150505050565b366000610a9f612249565b6116756109d1565b6004556005544210158061168a575060015415155b1561169b57611697610ef8565b6002555b73ffffffffffffffffffffffffffffffffffffffff811615610bfa576116c0816107b5565b73ffffffffffffffffffffffffffffffffffffffff821660009081526007602090815260408083209390935560045460089091529190205550565b6060610f9d8383612254565b8483811415806117175750808214155b1561174e576040517f6582533600000000000000000000000000000000000000000000000000000000815260040160405180910390fd5b60005b818110156117e8576117e088888381811061176e5761176e613007565b90506020020160208101906117839190612aeb565b85858481811061179557611795613007565b905060200201358888858181106117ae576117ae613007565b90506020020160208101906117c39190612aeb565b73ffffffffffffffffffffffffffffffffffffffff1691906122e2565b600101611751565b5050505050505050565b60008281526020848152604080832073ffffffffffffffffffffffffffffffffffffffff8516845290915290205460ff16610a5b576040517f7aa728820000000000000000000000000000000000000000000000000000000081526004810183905273ffffffffffffffffffffffffffffffffffffffff82166024820152604401610d42565b6118838382846117f2565b60008181526020848152604080832073ffffffffffffffffffffffffffffffffffffffff86168085529083529281902080547fffffffffffffffffffffffffffffffffffffffffffffffffffffffffffffff0016905580518481529182018390528101919091527ff6391f5c32d9c69d2a47ea670b442974b53935d1edc7fd64eb21e047a839171b9060600160405180910390a1505050565b611927610b6361127f565b610c16868686868686612363565b60008381526020858152604080832073ffffffffffffffffffffffffffffffffffffffff8616845290915290205460ff161561112e5760008381526020858152604080832073ffffffffffffffffffffffffffffffffffffffff8681168086529184529382902080547fffffffffffffffffffffffffffffffffffffffffffffffffffffffffffffff00169055815187815292830152918316918101919091527ff6391f5c32d9c69d2a47ea670b442974b53935d1edc7fd64eb21e047a839171b90606001611654565b825473ffffffffffffffffffffffffffffffffffffffff9081169083168114611a6c576040517f2ef4875e00000000000000000000000000000000000000000000000000000000815273ffffffffffffffffffffffffffffffffffffffff84166004820152602401610d42565b8173ffffffffffffffffffffffffffffffffffffffff168173ffffffffffffffffffffffffffffffffffffffff161461112e5783547fffffffffffffffffffffffff00000000000000000000000000000000000000001673ffffffffffffffffffffffffffffffffffffffff8381169182178655604051908316907f8be0079c531659141344cd1fd0a4f28419497f9722a3daafe3b4186f6b6457e090600090a350505050565b82818114611b4d576040517f6582533600000000000000000000000000000000000000000000000000000000815260040160405180910390fd5b60005b81811015610c1657611bb7848483818110611b6d57611b6d613007565b90506020020135878784818110611b8657611b86613007565b9050602002016020810190611b9b9190612aeb565b73ffffffffffffffffffffffffffffffffffffffff16906125f9565b600101611b50565b6000610f546126af565b60008082806020019051810190611be09190613083565b90508015611dd457600083806020019051810190611bfe919061311c565b8051909250905060005b818114611dcc576000838281518110611c2357611c23613007565b6020908102919091018101516000818152600990925260409091205490915073ffffffffffffffffffffffffffffffffffffffff9081169089908390839083168114611cc4576040517f964ebadd00000000000000000000000000000000000000000000000000000000815273ffffffffffffffffffffffffffffffffffffffff938416600482015260248101929092529091166044820152606401610d42565b505050600082815260096020526040902080547fffffffffffffffffffffffff0000000000000000000000000000000000000000169055611d06600188612f10565b6040517f23b872dd00000000000000000000000000000000000000000000000000000000815230600482015273ffffffffffffffffffffffffffffffffffffffff8b81166024830152604482018590529198507f0000000000000000000000000000000000000000000000000000000000000000909116906323b872dd90606401600060405180830381600087803b158015611da157600080fd5b505af1158015611db5573d6000803e3d6000fd5b50505050505080611dc590613036565b9050611c08565b505050611f6e565b600083806020019051810190611dea91906131e0565b60008181526009602052604090205490925073ffffffffffffffffffffffffffffffffffffffff908116915086908390839083168114611e7f576040517f964ebadd00000000000000000000000000000000000000000000000000000000815273ffffffffffffffffffffffffffffffffffffffff938416600482015260248101929092529091166044820152606401610d42565b505050600082815260096020526040902080547fffffffffffffffffffffffff000000000000000000000000000000000000000016905560016040517f23b872dd00000000000000000000000000000000000000000000000000000000815230600482015273ffffffffffffffffffffffffffffffffffffffff8881166024830152604482018590529195507f0000000000000000000000000000000000000000000000000000000000000000909116906323b872dd90606401600060405180830381600087803b158015611f5357600080fd5b505af1158015611f67573d6000803e3d6000fd5b5050505050505b5092915050565b600080600083806020019051810190611f8e919061320c565b91509150600081806020019051810190611fa89190613083565b9050801561211f57600082806020019051810190611fc6919061311c565b8051909250905060005b818114612117576000838281518110611feb57611feb613007565b60209081029190910181015160008181526009909252604090912080547fffffffffffffffffffffffff00000000000000000000000000000000000000001673ffffffffffffffffffffffffffffffffffffffff8d16179055905060016120529089612f10565b6040517f23b872dd00000000000000000000000000000000000000000000000000000000815273ffffffffffffffffffffffffffffffffffffffff8c81166004830152306024830152604482018490529199507f0000000000000000000000000000000000000000000000000000000000000000909116906323b872dd90606401600060405180830381600087803b1580156120ed57600080fd5b505af1158015612101573d6000803e3d6000fd5b50505050508061211090613036565b9050611fd0565b505050612240565b60008280602001905181019061213591906131e0565b600081815260096020526040902080547fffffffffffffffffffffffff00000000000000000000000000000000000000001673ffffffffffffffffffffffffffffffffffffffff8b161790559150600190509450831561223e576040517f23b872dd00000000000000000000000000000000000000000000000000000000815273ffffffffffffffffffffffffffffffffffffffff8881166004830152306024830152604482018390527f000000000000000000000000000000000000000000000000000000000000000016906323b872dd90606401600060405180830381600087803b15801561222557600080fd5b505af1158015612239573d6000803e3d6000fd5b505050505b505b50505092915050565b366000610a9f6127fc565b60608160405160200161226991815260200190565b604080518083037fffffffffffffffffffffffffffffffffffffffffffffffffffffffffffffffe0018152919052600a549091506108469073ffffffffffffffffffffffffffffffffffffffff7f000000000000000000000000000000000000000000000000000000000000000081169116858561296c565b60405173ffffffffffffffffffffffffffffffffffffffff838116602483015260448201839052610a5b91859182169063a9059cbb906064015b604051602081830303815290604052915060e01b6020820180517bffffffffffffffffffffffffffffffffffffffffffffffffffffffff83818316178352505050506129b2565b8483811415806123735750808214155b156123aa576040517f6582533600000000000000000000000000000000000000000000000000000000815260040160405180910390fd5b60005b818110156117e85760008686838181106123c9576123c9613007565b90506020020160208101906123de9190612aeb565b6040517f01ffc9a70000000000000000000000000000000000000000000000000000000081527f80ac58cd00000000000000000000000000000000000000000000000000000000600482015290915073ffffffffffffffffffffffffffffffffffffffff8216906301ffc9a790602401602060405180830381865afa15801561246b573d6000803e3d6000fd5b505050506040513d601f19601f8201168201806040525081019061248f9190613083565b6124dd576040517f986b9f1f00000000000000000000000000000000000000000000000000000000815273ffffffffffffffffffffffffffffffffffffffff82166004820152602401610d42565b8686838181106124ef576124ef613007565b90506020020160208101906125049190612aeb565b73ffffffffffffffffffffffffffffffffffffffff166342842e0e308b8b8681811061253257612532613007565b90506020020160208101906125479190612aeb565b88888781811061255957612559613007565b6040517fffffffff0000000000000000000000000000000000000000000000000000000060e088901b16815273ffffffffffffffffffffffffffffffffffffffff958616600482015294909316602485015250602090910201356044820152606401600060405180830381600087803b1580156125d557600080fd5b505af11580156125e9573d6000803e3d6000fd5b50505050508060010190506123ad565b8047101561263c576040517fcf47918100000000000000000000000000000000000000000000000000000000815247600482015260248101829052604401610d42565b6000808373ffffffffffffffffffffffffffffffffffffffff168360405160006040518083038185875af1925050503d8060008114612697576040519150601f19603f3d011682016040523d82523d6000602084013e61269c565b606091505b50915091508161112e5761112e81612a56565b6000333214806126bf5750601836105b156126c957503390565b7fffffffffffffffffffffffffffffffffffffffffffffffffffffffffffffffec36013560601c7f000000000000000000000000000000000000000000000000000000000000000073ffffffffffffffffffffffffffffffffffffffff163314806127eb57506040517f019a202800000000000000000000000000000000000000000000000000000000815273ffffffffffffffffffffffffffffffffffffffff82811660048301523360248301523060448301527f0000000000000000000000000000000000000000000000000000000000000000169063019a202890606401602060405180830381865afa1580156127c7573d6000803e3d6000fd5b505050506040513d601f19601f820116820180604052508101906127eb9190613083565b156127f557919050565b3391505090565b3660003332148061280d5750601836105b1561281b5750600091369150565b3373ffffffffffffffffffffffffffffffffffffffff7f0000000000000000000000000000000000000000000000000000000000000000161480612956575073ffffffffffffffffffffffffffffffffffffffff7f00000000000000000000000000000000000000000000000000000000000000001663019a2028367fffffffffffffffffffffffffffffffffffffffffffffffffffffffffffffffec013560601c6040517fffffffff0000000000000000000000000000000000000000000000000000000060e084901b16815273ffffffffffffffffffffffffffffffffffffffff9091166004820152336024820152306044820152606401602060405180830381865afa158015612932573d6000803e3d6000fd5b505050506040513d601f19601f820116820180604052508101906129569190613083565b1561296357610a9f612a98565b50600091369150565b60405173ffffffffffffffffffffffffffffffffffffffff848116602483015283811660448301526064820183905261112e9186918216906323b872dd9060840161231c565b600080602060008451602086016000885af1806129d5576040513d6000823e3d81fd5b50506000513d915081156129ed578060011415612a07565b73ffffffffffffffffffffffffffffffffffffffff84163b155b1561112e576040517f5274afe700000000000000000000000000000000000000000000000000000000815273ffffffffffffffffffffffffffffffffffffffff85166004820152602401610d42565b805115612a665780518082602001fd5b6040517fd6bda27500000000000000000000000000000000000000000000000000000000815260040160405180910390fd5b366000610a9f7fffffffffffffffffffffffffffffffffffffffffffffffffffffffffffffffec83018284816132d3565b73ffffffffffffffffffffffffffffffffffffffff81168114610bfa57600080fd5b600060208284031215612afd57600080fd5b8135610f9d81612ac9565b600060208284031215612b1a57600080fd5b81357fffffffff0000000000000000000000000000000000000000000000000000000081168114610f9d57600080fd5b60008083601f840112612b5c57600080fd5b50813567ffffffffffffffff811115612b7457600080fd5b602083019150836020828501011115612b8c57600080fd5b9250929050565b60008060208385031215612ba657600080fd5b823567ffffffffffffffff811115612bbd57600080fd5b612bc985828601612b4a565b90969095509350505050565b600080600080600060808688031215612bed57600080fd5b8535612bf881612ac9565b94506020860135612c0881612ac9565b935060408601359250606086013567ffffffffffffffff811115612c2b57600080fd5b612c3788828901612b4a565b969995985093965092949392505050565b60008060408385031215612c5b57600080fd5b823591506020830135612c6d81612ac9565b809150509250929050565b8183528181602085013750600060208284010152600060207fffffffffffffffffffffffffffffffffffffffffffffffffffffffffffffffe0601f840116840101905092915050565b602081526000612cd5602083018486612c78565b949350505050565b60008083601f840112612cef57600080fd5b50813567ffffffffffffffff811115612d0757600080fd5b6020830191508360208260051b8501011115612b8c57600080fd5b60008060008060008060608789031215612d3b57600080fd5b863567ffffffffffffffff811115612d5257600080fd5b612d5e89828a01612cdd565b909750955050602087013567ffffffffffffffff811115612d7e57600080fd5b612d8a89828a01612cdd565b909550935050604087013567ffffffffffffffff811115612daa57600080fd5b612db689828a01612cdd565b979a9699509497509295939492505050565b60008060408385031215612ddb57600080fd5b50508035926020909101359150565b600060208284031215612dfc57600080fd5b5035919050565b60008060008060408587031215612e1957600080fd5b843567ffffffffffffffff811115612e3057600080fd5b612e3c87828801612cdd565b909550935050602085013567ffffffffffffffff811115612e5c57600080fd5b612e6887828801612cdd565b95989497509550505050565b7f4e487b7100000000000000000000000000000000000000000000000000000000600052601160045260246000fd5b8181038181111561084657610846612e74565b808202811582820484141761084657610846612e74565b7f4e487b7100000000000000000000000000000000000000000000000000000000600052601260045260246000fd5b600082612f0b57612f0b612ecd565b500490565b8082018082111561084657610846612e74565b60005b83811015612f3e578181015183820152602001612f26565b50506000910152565b60008151808452612f5f816020860160208601612f23565b601f017fffffffffffffffffffffffffffffffffffffffffffffffffffffffffffffffe0169290920160200192915050565b8215158152604060208201526000612cd56040830184612f47565b8315158152604060208201526000612fc8604083018486612c78565b95945050505050565b604081526000612fe46040830185612f47565b90508260208301529392505050565b60008261300257613002612ecd565b500690565b7f4e487b7100000000000000000000000000000000000000000000000000000000600052603260045260246000fd5b60007fffffffffffffffffffffffffffffffffffffffffffffffffffffffffffffffff820361306757613067612e74565b5060010190565b8051801515811461307e57600080fd5b919050565b60006020828403121561309557600080fd5b610f9d8261306e565b7f4e487b7100000000000000000000000000000000000000000000000000000000600052604160045260246000fd5b604051601f82017fffffffffffffffffffffffffffffffffffffffffffffffffffffffffffffffe016810167ffffffffffffffff811182821017156131145761311461309e565b604052919050565b6000806040838503121561312f57600080fd5b6131388361306e565b9150602083015167ffffffffffffffff81111561315457600080fd5b8301601f8101851361316557600080fd5b805167ffffffffffffffff81111561317f5761317f61309e565b8060051b61318f602082016130cd565b918252602081840181019290810190888411156131ab57600080fd5b6020850194505b838510156131d1578451808352602095860195909350909101906131b2565b80955050505050509250929050565b600080604083850312156131f357600080fd5b6131fc8361306e565b6020939093015192949293505050565b6000806040838503121561321f57600080fd5b6132288361306e565b9150602083015167ffffffffffffffff81111561324457600080fd5b8301601f8101851361325557600080fd5b805167ffffffffffffffff81111561326f5761326f61309e565b6132a060207fffffffffffffffffffffffffffffffffffffffffffffffffffffffffffffffe0601f840116016130cd565b8181528660208385010111156132b557600080fd5b6132c6826020830160208601612f23565b8093505050509250929050565b600080858511156132e357600080fd5b838611156132f057600080fd5b505082019391909203915056fea2646970667358221220f5bdcd406431789c036ad5011138e8a3b6e0414778ae636587ef617ebfe7da6a64736f6c634300081c0033",
  "linkReferences": {},
  "deployedLinkReferences": {}
}