{
  "_format": "hh-sol-artifact-1",
  "contractName": "CheckpointsMock",
  "sourceName": "contracts/mocks/lifecycle/CheckpointsMock.sol",
  "abi": [
    {
      "inputs": [
        {
          "internalType": "contract IForwarderRegistry",
          "name": "forwarderRegistry",
          "type": "address"
        }
      ],
      "stateMutability": "nonpayable",
      "type": "constructor"
    },
    {
      "inputs": [
        {
          "internalType": "bytes32",
          "name": "checkpointId",
          "type": "bytes32"
        }
      ],
      "name": "CheckpointAlreadySet",
      "type": "error"
    },
    {
      "inputs": [
        {
          "internalType": "bytes32",
          "name": "checkpointId",
          "type": "bytes32"
        }
      ],
      "name": "CheckpointNotReached",
      "type": "error"
    },
    {
      "inputs": [
        {
          "internalType": "bytes32",
          "name": "checkpointId",
          "type": "bytes32"
        }
      ],
      "name": "CheckpointReached",
      "type": "error"
    },
    {
      "inputs": [],
      "name": "IllegalInterfaceId",
      "type": "error"
    },
    {
      "inputs": [],
      "name": "InconsistentArrayLengths",
      "type": "error"
    },
    {
      "inputs": [
        {
          "internalType": "address",
          "name": "account",
          "type": "address"
        }
      ],
      "name": "NotContractOwner",
      "type": "error"
    },
    {
      "anonymous": false,
      "inputs": [
        {
          "indexed": false,
          "internalType": "bytes32",
          "name": "checkpointId",
          "type": "bytes32"
        },
        {
          "indexed": false,
          "internalType": "uint256",
          "name": "timestamp",
          "type": "uint256"
        }
      ],
      "name": "CheckpointSet",
      "type": "event"
    },
    {
      "anonymous": false,
      "inputs": [
        {
          "indexed": true,
          "internalType": "address",
          "name": "previousOwner",
          "type": "address"
        },
        {
          "indexed": true,
          "internalType": "address",
          "name": "newOwner",
          "type": "address"
        }
      ],
      "name": "OwnershipTransferred",
      "type": "event"
    },
    {
      "inputs": [],
      "name": "START_CHECKPOINTID",
      "outputs": [
        {
          "internalType": "bytes32",
          "name": "",
          "type": "bytes32"
        }
      ],
      "stateMutability": "view",
      "type": "function"
    },
    {
      "inputs": [],
      "name": "__msgData",
      "outputs": [
        {
          "internalType": "bytes",
          "name": "",
          "type": "bytes"
        }
      ],
      "stateMutability": "view",
      "type": "function"
    },
    {
      "inputs": [
        {
          "internalType": "bytes32[]",
          "name": "checkpointIds",
          "type": "bytes32[]"
        },
        {
          "internalType": "uint256[]",
          "name": "timestamps",
          "type": "uint256[]"
        }
      ],
      "name": "batchSetCheckpoint",
      "outputs": [],
      "stateMutability": "nonpayable",
      "type": "function"
    },
    {
      "inputs": [
        {
          "internalType": "bytes32",
          "name": "checkpointId",
          "type": "bytes32"
        }
      ],
      "name": "checkpoint",
      "outputs": [
        {
          "internalType": "uint256",
          "name": "",
          "type": "uint256"
        }
      ],
      "stateMutability": "view",
      "type": "function"
    },
    {
      "inputs": [
        {
          "internalType": "bytes32",
          "name": "checkpointId",
          "type": "bytes32"
        }
      ],
      "name": "checkpointReached",
      "outputs": [
        {
          "internalType": "bool",
          "name": "",
          "type": "bool"
        }
      ],
      "stateMutability": "view",
      "type": "function"
    },
    {
      "inputs": [
        {
          "internalType": "bytes32",
          "name": "checkpointId",
          "type": "bytes32"
        }
      ],
      "name": "enforceCheckpointNotReached",
      "outputs": [],
      "stateMutability": "view",
      "type": "function"
    },
    {
      "inputs": [
        {
          "internalType": "bytes32",
          "name": "checkpointId",
          "type": "bytes32"
        }
      ],
      "name": "enforceCheckpointReached",
      "outputs": [],
      "stateMutability": "view",
      "type": "function"
    },
    {
      "inputs": [],
      "name": "forwarderRegistry",
      "outputs": [
        {
          "internalType": "contract IForwarderRegistry",
          "name": "",
          "type": "address"
        }
      ],
      "stateMutability": "view",
      "type": "function"
    },
    {
      "inputs": [
        {
          "internalType": "address",
          "name": "forwarder",
          "type": "address"
        }
      ],
      "name": "isTrustedForwarder",
      "outputs": [
        {
          "internalType": "bool",
          "name": "",
          "type": "bool"
        }
      ],
      "stateMutability": "view",
      "type": "function"
    },
    {
      "inputs": [],
      "name": "owner",
      "outputs": [
        {
          "internalType": "address",
          "name": "",
          "type": "address"
        }
      ],
      "stateMutability": "view",
      "type": "function"
    },
    {
      "inputs": [
        {
          "internalType": "bytes32",
          "name": "checkpointId",
          "type": "bytes32"
        },
        {
          "internalType": "uint256",
          "name": "timestamp",
          "type": "uint256"
        }
      ],
      "name": "setCheckpoint",
      "outputs": [],
      "stateMutability": "nonpayable",
      "type": "function"
    },
    {
      "inputs": [
        {
          "internalType": "bytes4",
          "name": "interfaceId",
          "type": "bytes4"
        }
      ],
      "name": "supportsInterface",
      "outputs": [
        {
          "internalType": "bool",
          "name": "",
          "type": "bool"
        }
      ],
      "stateMutability": "view",
      "type": "function"
    },
    {
      "inputs": [
        {
          "internalType": "address",
          "name": "newOwner",
          "type": "address"
        }
      ],
      "name": "transferOwnership",
      "outputs": [],
      "stateMutability": "nonpayable",
      "type": "function"
    },
    {
      "inputs": [
        {
          "internalType": "bytes32",
          "name": "checkpointId",
          "type": "bytes32"
        }
      ],
      "name": "triggerCheckpoint",
      "outputs": [],
      "stateMutability": "nonpayable",
      "type": "function"
    }
  ],
  "bytecode": "0x60a060405234801561001057600080fd5b506040516110cf3803806110cf83398101604081905261002f9161018d565b8080336100448161003e610059565b9061008d565b506001600160a01b0316608052506101de9050565b60008061008760017fc9ed16f33ab3a66c84bfd83099ccb2a8845871e2e1c1928f63797152f0fd54cd6101bd565b92915050565b6001600160a01b038116156100e35781546001600160a01b0319166001600160a01b03821690811783556040516000907f8be0079c531659141344cd1fd0a4f28419497f9722a3daafe3b4186f6b6457e0908290a35b6100ff6307f5828d60e41b60016100f8610103565b9190610131565b5050565b60008061008760017fca9d3e17f264b0f3984e2634e94adb37fa3e6a8103f06aeae6fa59e21c769f5e6101bd565b600160e01b6001600160e01b031983160161015f576040516372c683bb60e01b815260040160405180910390fd5b6001600160e01b03199190911660009081526020929092526040909120805460ff1916911515919091179055565b60006020828403121561019f57600080fd5b81516001600160a01b03811681146101b657600080fd5b9392505050565b8181038181111561008757634e487b7160e01b600052601160045260246000fd5b608051610eb361021c60003960008181610141015281816101e50152818161094d0152818161098b01528181610ac90152610b570152610eb36000f3fe608060405234801561001057600080fd5b50600436106100ea5760003560e01c80634f410a801161008c5780638da5cb5b116100665780638da5cb5b14610243578063b4c6cf761461024b578063deb4d74614610272578063f2fde38b1461028557600080fd5b80634f410a80146101c2578063572b6c05146101d55780635b34eba01461022257600080fd5b80632b4c9f16116100c85780632b4c9f161461013f57806331e66e1e146101865780633b1493691461019c5780634bddd15c146101af57600080fd5b806301ffc9a7146100ef578063151bdba614610117578063244c00be1461012a575b600080fd5b6101026100fd366004610c04565b610298565b60405190151581526020015b60405180910390f35b610102610125366004610c4d565b6102b2565b61013d610138366004610c4d565b6102c6565b005b7f00000000000000000000000000000000000000000000000000000000000000005b60405173ffffffffffffffffffffffffffffffffffffffff909116815260200161010e565b61018e6102db565b60405161010e929190610c66565b61013d6101aa366004610cff565b6102ee565b61013d6101bd366004610c4d565b610325565b61013d6101d0366004610d70565b610337565b6101026101e3366004610d92565b7f000000000000000000000000000000000000000000000000000000000000000073ffffffffffffffffffffffffffffffffffffffff90811691161490565b610235610230366004610c4d565b61035a565b60405190815260200161010e565b610161610378565b6102357f535441525400000000000000000000000000000000000000000000000000000081565b61013d610280366004610c4d565b6103a4565b61013d610293366004610d92565b6103c1565b60006102ac826102a66103dc565b9061040a565b92915050565b60006102ac826102c06104e4565b90610512565b6102d8816102d26104e4565b90610538565b50565b3660006102e6610580565b915091509091565b6103076102f961058b565b610301610595565b906105c3565b61031f848484846103166104e4565b9392919061062e565b50505050565b6102d8816103316104e4565b906106c9565b6103426102f961058b565b610356828261034f6104e4565b919061070d565b5050565b60006102ac826103686104e4565b6000918252602052604090205490565b600061039f610385610595565b5473ffffffffffffffffffffffffffffffffffffffff1690565b905090565b6103af6102f961058b565b6102d8816103bb6104e4565b906107ab565b6102d86103cc61058b565b826103d5610595565b9190610802565b6000806102ac60017fca9d3e17f264b0f3984e2634e94adb37fa3e6a8103f06aeae6fa59e21c769f5e610dc8565b60007c01000000000000000000000000000000000000000000000000000000007fffffffff0000000000000000000000000000000000000000000000000000000083160161045a575060006102ac565b7ffe003659000000000000000000000000000000000000000000000000000000007fffffffff000000000000000000000000000000000000000000000000000000008316016104ab575060016102ac565b507fffffffff00000000000000000000000000000000000000000000000000000000166000908152602091909152604090205460ff1690565b6000806102ac60017f0def758eb96c12015155889b8e63d1cb5c0dbce5585bbdf9d99ea353f56c716c610dc8565b60008181526020839052604081205480158015906105305750804210155b949350505050565b6105428282610512565b610356576040517fa7afbc52000000000000000000000000000000000000000000000000000000008152600481018290526024015b60405180910390fd5b3660006102e6610916565b600061039f610a86565b6000806102ac60017fc9ed16f33ab3a66c84bfd83099ccb2a8845871e2e1c1928f63797152f0fd54cd610dc8565b815473ffffffffffffffffffffffffffffffffffffffff828116911614610356576040517f2ef4875e00000000000000000000000000000000000000000000000000000000815273ffffffffffffffffffffffffffffffffffffffff82166004820152602401610577565b82818114610668576040517f6582533600000000000000000000000000000000000000000000000000000000815260040160405180910390fd5b60005b818110156106c0576106b886868381811061068857610688610e02565b905060200201358585848181106106a1576106a1610e02565b905060200201358961070d9092919063ffffffff16565b60010161066b565b50505050505050565b6106d38282610512565b15610356576040517f8e54d90900000000000000000000000000000000000000000000000000000000815260048101829052602401610577565b60008281526020849052604090205415610756576040517f33e962eb00000000000000000000000000000000000000000000000000000000815260048101839052602401610577565b80156107a6576000828152602084815260409182902083905581518481529081018390527f099ea97db121bdf4a102e67113e27b6bb74713015b32a5f0e1c3ea0d44fb2953910160405180910390a15b505050565b6107b582826106c9565b6000818152602083815260409182902042908190558251848152918201527f099ea97db121bdf4a102e67113e27b6bb74713015b32a5f0e1c3ea0d44fb2953910160405180910390a15050565b825473ffffffffffffffffffffffffffffffffffffffff908116908316811461086f576040517f2ef4875e00000000000000000000000000000000000000000000000000000000815273ffffffffffffffffffffffffffffffffffffffff84166004820152602401610577565b8173ffffffffffffffffffffffffffffffffffffffff168173ffffffffffffffffffffffffffffffffffffffff161461031f5783547fffffffffffffffffffffffff00000000000000000000000000000000000000001673ffffffffffffffffffffffffffffffffffffffff8381169182178655604051908316907f8be0079c531659141344cd1fd0a4f28419497f9722a3daafe3b4186f6b6457e090600090a350505050565b366000333214806109275750601836105b156109355750600091369150565b3373ffffffffffffffffffffffffffffffffffffffff7f0000000000000000000000000000000000000000000000000000000000000000161480610a70575073ffffffffffffffffffffffffffffffffffffffff7f00000000000000000000000000000000000000000000000000000000000000001663019a2028367fffffffffffffffffffffffffffffffffffffffffffffffffffffffffffffffec013560601c6040517fffffffff0000000000000000000000000000000000000000000000000000000060e084901b16815273ffffffffffffffffffffffffffffffffffffffff9091166004820152336024820152306044820152606401602060405180830381865afa158015610a4c573d6000803e3d6000fd5b505050506040513d601f19601f82011682018060405250810190610a709190610e31565b15610a7d576102e6610bd3565b50600091369150565b600033321480610a965750601836105b15610aa057503390565b7fffffffffffffffffffffffffffffffffffffffffffffffffffffffffffffffec36013560601c7f000000000000000000000000000000000000000000000000000000000000000073ffffffffffffffffffffffffffffffffffffffff16331480610bc257506040517f019a202800000000000000000000000000000000000000000000000000000000815273ffffffffffffffffffffffffffffffffffffffff82811660048301523360248301523060448301527f0000000000000000000000000000000000000000000000000000000000000000169063019a202890606401602060405180830381865afa158015610b9e573d6000803e3d6000fd5b505050506040513d601f19601f82011682018060405250810190610bc29190610e31565b15610bcc57919050565b3391505090565b3660006102e67fffffffffffffffffffffffffffffffffffffffffffffffffffffffffffffffec8301828481610e53565b600060208284031215610c1657600080fd5b81357fffffffff0000000000000000000000000000000000000000000000000000000081168114610c4657600080fd5b9392505050565b600060208284031215610c5f57600080fd5b5035919050565b60208152816020820152818360408301376000818301604090810191909152601f9092017fffffffffffffffffffffffffffffffffffffffffffffffffffffffffffffffe0160101919050565b60008083601f840112610cc557600080fd5b50813567ffffffffffffffff811115610cdd57600080fd5b6020830191508360208260051b8501011115610cf857600080fd5b9250929050565b60008060008060408587031215610d1557600080fd5b843567ffffffffffffffff811115610d2c57600080fd5b610d3887828801610cb3565b909550935050602085013567ffffffffffffffff811115610d5857600080fd5b610d6487828801610cb3565b95989497509550505050565b60008060408385031215610d8357600080fd5b50508035926020909101359150565b600060208284031215610da457600080fd5b813573ffffffffffffffffffffffffffffffffffffffff81168114610c4657600080fd5b818103818111156102ac577f4e487b7100000000000000000000000000000000000000000000000000000000600052601160045260246000fd5b7f4e487b7100000000000000000000000000000000000000000000000000000000600052603260045260246000fd5b600060208284031215610e4357600080fd5b81518015158114610c4657600080fd5b60008085851115610e6357600080fd5b83861115610e7057600080fd5b505082019391909203915056fea2646970667358221220a6c772817614bd0e8d613659ce80f606e791a724d1f8286af2eac37facb9136664736f6c634300081c0033",
  "linkReferences": {},
  "deployedLinkReferences": {}
}