{
  "_format": "hh-sol-artifact-1",
  "contractName": "CheckpointsMock",
  "sourceName": "contracts/mocks/lifecycle/CheckpointsMock.sol",
  "abi": [
    {
      "inputs": [
        {
          "internalType": "bytes32[]",
          "name": "checkpointIds",
          "type": "bytes32[]"
        },
        {
          "internalType": "uint256[]",
          "name": "timestamps",
          "type": "uint256[]"
        },
        {
          "internalType": "contract IForwarderRegistry",
          "name": "forwarderRegistry",
          "type": "address"
        }
      ],
      "stateMutability": "nonpayable",
      "type": "constructor"
    },
    {
      "anonymous": false,
      "inputs": [
        {
          "indexed": false,
          "internalType": "bytes32",
          "name": "checkpointId",
          "type": "bytes32"
        },
        {
          "indexed": false,
          "internalType": "uint256",
          "name": "timestamp",
          "type": "uint256"
        }
      ],
      "name": "CheckpointSet",
      "type": "event"
    },
    {
      "anonymous": false,
      "inputs": [
        {
          "indexed": true,
          "internalType": "address",
          "name": "previousOwner",
          "type": "address"
        },
        {
          "indexed": true,
          "internalType": "address",
          "name": "newOwner",
          "type": "address"
        }
      ],
      "name": "OwnershipTransferred",
      "type": "event"
    },
    {
      "inputs": [],
      "name": "START_CHECKPOINTID",
      "outputs": [
        {
          "internalType": "bytes32",
          "name": "",
          "type": "bytes32"
        }
      ],
      "stateMutability": "view",
      "type": "function"
    },
    {
      "inputs": [],
      "name": "__msgData",
      "outputs": [
        {
          "internalType": "bytes",
          "name": "",
          "type": "bytes"
        }
      ],
      "stateMutability": "view",
      "type": "function"
    },
    {
      "inputs": [
        {
          "internalType": "bytes32",
          "name": "checkpointId",
          "type": "bytes32"
        }
      ],
      "name": "checkpoint",
      "outputs": [
        {
          "internalType": "uint256",
          "name": "",
          "type": "uint256"
        }
      ],
      "stateMutability": "view",
      "type": "function"
    },
    {
      "inputs": [
        {
          "internalType": "bytes32",
          "name": "checkpointId",
          "type": "bytes32"
        }
      ],
      "name": "checkpointReached",
      "outputs": [
        {
          "internalType": "bool",
          "name": "",
          "type": "bool"
        }
      ],
      "stateMutability": "view",
      "type": "function"
    },
    {
      "inputs": [
        {
          "internalType": "bytes32",
          "name": "checkpointId",
          "type": "bytes32"
        }
      ],
      "name": "enforceCheckpointNotReached",
      "outputs": [],
      "stateMutability": "view",
      "type": "function"
    },
    {
      "inputs": [
        {
          "internalType": "bytes32",
          "name": "checkpointId",
          "type": "bytes32"
        }
      ],
      "name": "enforceCheckpointReached",
      "outputs": [],
      "stateMutability": "view",
      "type": "function"
    },
    {
      "inputs": [],
      "name": "owner",
      "outputs": [
        {
          "internalType": "address",
          "name": "",
          "type": "address"
        }
      ],
      "stateMutability": "view",
      "type": "function"
    },
    {
      "inputs": [
        {
          "internalType": "bytes32",
          "name": "checkpointId",
          "type": "bytes32"
        },
        {
          "internalType": "uint256",
          "name": "timestamp",
          "type": "uint256"
        }
      ],
      "name": "setCheckpoint",
      "outputs": [],
      "stateMutability": "nonpayable",
      "type": "function"
    },
    {
      "inputs": [
        {
          "internalType": "bytes4",
          "name": "interfaceId",
          "type": "bytes4"
        }
      ],
      "name": "supportsInterface",
      "outputs": [
        {
          "internalType": "bool",
          "name": "",
          "type": "bool"
        }
      ],
      "stateMutability": "view",
      "type": "function"
    },
    {
      "inputs": [
        {
          "internalType": "address",
          "name": "newOwner",
          "type": "address"
        }
      ],
      "name": "transferOwnership",
      "outputs": [],
      "stateMutability": "nonpayable",
      "type": "function"
    },
    {
      "inputs": [
        {
          "internalType": "bytes32",
          "name": "checkpointId",
          "type": "bytes32"
        }
      ],
      "name": "triggerCheckpoint",
      "outputs": [],
      "stateMutability": "nonpayable",
      "type": "function"
    }
  ],
  "bytecode": "0x60a06040523480156200001157600080fd5b506040516200194338038062001943833981016040819052620000349162000478565b80838333620000668162000052620000af60201b620003101760201c565b620000e560201b6200033e1790919060201c565b50620000978282620000826200017860201b620003fb1760201c565b620001a860201b62000429179092919060201c565b50506001600160a01b031660805250620005b3915050565b600080620000df60017fc9ed16f33ab3a66c84bfd83099ccb2a8845871e2e1c1928f63797152f0fd54cd62000567565b92915050565b6001600160a01b038116156200013c5781546001600160a01b0319166001600160a01b03821690811783556040516000907f8be0079c531659141344cd1fd0a4f28419497f9722a3daafe3b4186f6b6457e0908290a35b620001746307f5828d60e41b60016200015f620002bf60201b6200054e1760201c565b620002ef60201b6200057c179092919060201c565b5050565b600080620000df60017f0def758eb96c12015155889b8e63d1cb5c0dbce5585bbdf9d99ea353f56c716c62000567565b8051825114620001ff5760405162461bcd60e51b815260206004820152601f60248201527f436865636b706f696e74733a2077726f6e67206172726179206c656e6774680060448201526064015b60405180910390fd5b60005b8251811015620002b957600082828151811062000223576200022362000581565b6020026020010151905080600014620002a55760008483815181106200024d576200024d62000581565b602090810291909101810151600081815288835260409081902085905580518281529283018590529092507f099ea97db121bdf4a102e67113e27b6bb74713015b32a5f0e1c3ea0d44fb2953910160405180910390a1505b50620002b18162000597565b905062000202565b50505050565b600080620000df60017fca9d3e17f264b0f3984e2634e94adb37fa3e6a8103f06aeae6fa59e21c769f5e62000567565b6001600160e01b031980831690036200034b5760405162461bcd60e51b815260206004820152601f60248201527f496e74657266616365446574656374696f6e3a2077726f6e672076616c7565006044820152606401620001f6565b6001600160e01b03199190911660009081526020929092526040909120805460ff1916911515919091179055565b634e487b7160e01b600052604160045260246000fd5b604051601f8201601f191681016001600160401b0381118282101715620003ba57620003ba62000379565b604052919050565b60006001600160401b03821115620003de57620003de62000379565b5060051b60200190565b600082601f830112620003fa57600080fd5b81516020620004136200040d83620003c2565b6200038f565b82815260059290921b840181019181810190868411156200043357600080fd5b8286015b8481101562000450578051835291830191830162000437565b509695505050505050565b80516001600160a01b03811681146200047357600080fd5b919050565b6000806000606084860312156200048e57600080fd5b83516001600160401b0380821115620004a657600080fd5b818601915086601f830112620004bb57600080fd5b81516020620004ce6200040d83620003c2565b82815260059290921b8401810191818101908a841115620004ee57600080fd5b948201945b838610156200050e57855182529482019490820190620004f3565b918901519197509093505050808211156200052857600080fd5b506200053786828701620003e8565b92505062000548604085016200045b565b90509250925092565b634e487b7160e01b600052601160045260246000fd5b6000828210156200057c576200057c62000551565b500390565b634e487b7160e01b600052603260045260246000fd5b600060018201620005ac57620005ac62000551565b5060010190565b60805161135f620005e460003960008181610c0a01528181610c7401528181610db20152610e52015261135f6000f3fe608060405234801561001057600080fd5b50600436106100c95760003560e01c80634f410a8011610081578063b4c6cf761161005b578063b4c6cf76146101a8578063deb4d746146101cf578063f2fde38b146101e257600080fd5b80634f410a80146101475780635b34eba01461015a5780638da5cb5b1461017b57600080fd5b8063244c00be116100b2578063244c00be1461010957806331e66e1e1461011e5780634bddd15c1461013457600080fd5b806301ffc9a7146100ce578063151bdba6146100f6575b600080fd5b6100e16100dc366004610eec565b6101f5565b60405190151581526020015b60405180910390f35b6100e1610104366004610f35565b61020f565b61011c610117366004610f35565b610223565b005b610126610238565b6040516100ed929190610f4e565b61011c610142366004610f35565b61024b565b61011c610155366004610f9b565b61025d565b61016d610168366004610f35565b61028e565b6040519081526020016100ed565b6101836102ac565b60405173ffffffffffffffffffffffffffffffffffffffff90911681526020016100ed565b61016d7f535441525400000000000000000000000000000000000000000000000000000081565b61011c6101dd366004610f35565b6102d8565b61011c6101f0366004610fbd565b6102f5565b60006102098261020361054e565b9061066c565b92915050565b60006102098261021d6103fb565b906106f8565b6102358161022f6103fb565b9061071e565b50565b3660006102436107a3565b915091509091565b610235816102576103fb565b906107ae565b6102766102686107d6565b610270610310565b906107e0565b61028a82826102836103fb565b9190610863565b5050565b60006102098261029c6103fb565b6000918252602052604090205490565b60006102d36102b9610310565b5473ffffffffffffffffffffffffffffffffffffffff1690565b905090565b6102e36102686107d6565b610235816102ef6103fb565b906108e5565b6102356103006107d6565b82610309610310565b919061093c565b60008061020960017fc9ed16f33ab3a66c84bfd83099ccb2a8845871e2e1c1928f63797152f0fd54cd611022565b73ffffffffffffffffffffffffffffffffffffffff8116156103c65781547fffffffffffffffffffffffff00000000000000000000000000000000000000001673ffffffffffffffffffffffffffffffffffffffff821690811783556040516000907f8be0079c531659141344cd1fd0a4f28419497f9722a3daafe3b4186f6b6457e0908290a35b61028a7f7f5828d00000000000000000000000000000000000000000000000000000000060016103f461054e565b919061057c565b60008061020960017f0def758eb96c12015155889b8e63d1cb5c0dbce5585bbdf9d99ea353f56c716c611022565b8051825114610499576040517f08c379a000000000000000000000000000000000000000000000000000000000815260206004820152601f60248201527f436865636b706f696e74733a2077726f6e67206172726179206c656e6774680060448201526064015b60405180910390fd5b60005b82518110156105485760008282815181106104b9576104b9611039565b60200260200101519050806000146105375760008483815181106104df576104df611039565b602090810291909101810151600081815288835260409081902085905580518281529283018590529092507f099ea97db121bdf4a102e67113e27b6bb74713015b32a5f0e1c3ea0d44fb2953910160405180910390a1505b5061054181611068565b905061049c565b50505050565b60008061020960017fca9d3e17f264b0f3984e2634e94adb37fa3e6a8103f06aeae6fa59e21c769f5e611022565b7fffffffff000000000000000000000000000000000000000000000000000000008083169003610608576040517f08c379a000000000000000000000000000000000000000000000000000000000815260206004820152601f60248201527f496e74657266616365446574656374696f6e3a2077726f6e672076616c7565006044820152606401610490565b7fffffffff00000000000000000000000000000000000000000000000000000000919091166000908152602092909252604090912080547fffffffffffffffffffffffffffffffffffffffffffffffffffffffffffffff0016911515919091179055565b60007ffe003659000000000000000000000000000000000000000000000000000000007fffffffff000000000000000000000000000000000000000000000000000000008316016106bf57506001610209565b507fffffffff00000000000000000000000000000000000000000000000000000000166000908152602091909152604090205460ff1690565b60008181526020839052604081205480158015906107165750804210155b949350505050565b61072882826106f8565b61028a5761073581610a68565b60405160200161074591906110cc565b604080517fffffffffffffffffffffffffffffffffffffffffffffffffffffffffffffffe0818403018152908290527f08c379a000000000000000000000000000000000000000000000000000000000825261049091600401611138565b366000610243610bf2565b6107b882826106f8565b1561028a576107c681610a68565b6040516020016107459190611189565b60006102d3610d76565b815473ffffffffffffffffffffffffffffffffffffffff82811691161461028a576040517f08c379a000000000000000000000000000000000000000000000000000000000815260206004820152601860248201527f4f776e6572736869703a206e6f7420746865206f776e657200000000000000006044820152606401610490565b600082815260208490526040902054156108905761088082610a68565b60405160200161074591906111f5565b80156108e0576000828152602084815260409182902083905581518481529081018390527f099ea97db121bdf4a102e67113e27b6bb74713015b32a5f0e1c3ea0d44fb2953910160405180910390a15b505050565b6108ef82826107ae565b6000818152602083815260409182902042908190558251848152918201527f099ea97db121bdf4a102e67113e27b6bb74713015b32a5f0e1c3ea0d44fb2953910160405180910390a15050565b825473ffffffffffffffffffffffffffffffffffffffff90811690831681146109c1576040517f08c379a000000000000000000000000000000000000000000000000000000000815260206004820152601860248201527f4f776e6572736869703a206e6f7420746865206f776e657200000000000000006044820152606401610490565b8173ffffffffffffffffffffffffffffffffffffffff168173ffffffffffffffffffffffffffffffffffffffff16146105485783547fffffffffffffffffffffffff00000000000000000000000000000000000000001673ffffffffffffffffffffffffffffffffffffffff8381169182178655604051908316907f8be0079c531659141344cd1fd0a4f28419497f9722a3daafe3b4186f6b6457e090600090a350505050565b60606000829003610a8757505060408051602081019091526000815290565b600082604051602001610a9c91815260200190565b604080517fffffffffffffffffffffffffffffffffffffffffffffffffffffffffffffffe08184030181529190529050601f5b818181518110610ae157610ae1611039565b01602001517fff0000000000000000000000000000000000000000000000000000000000000016600003610b1f57610b1881611261565b9050610acf565b6000610b2c826001611296565b67ffffffffffffffff811115610b4457610b446112ae565b6040519080825280601f01601f191660200182016040528015610b6e576020820181803683370190505b50905060005b828111610be957838181518110610b8d57610b8d611039565b602001015160f81c60f81b828281518110610baa57610baa611039565b60200101907effffffffffffffffffffffffffffffffffffffffffffffffffffffffffffff1916908160001a905350610be281611068565b9050610b74565b50949350505050565b36600033328103610c0857506000923692509050565b7f000000000000000000000000000000000000000000000000000000000000000073ffffffffffffffffffffffffffffffffffffffff168173ffffffffffffffffffffffffffffffffffffffff161480610d55575073ffffffffffffffffffffffffffffffffffffffff7f00000000000000000000000000000000000000000000000000000000000000001663e60125d6367fffffffffffffffffffffffffffffffffffffffffffffffffffffffffffffffec013560601c6040517fffffffff0000000000000000000000000000000000000000000000000000000060e084901b16815273ffffffffffffffffffffffffffffffffffffffff91821660048201529084166024820152604401602060405180830381865afa158015610d31573d6000803e3d6000fd5b505050506040513d601f19601f82011682018060405250810190610d5591906112dd565b15610d6b57610d62610ece565b92509250509091565b506000923692509050565b600033328103610d8557919050565b6000367fffffffffffffffffffffffffffffffffffffffffffffffffffffffffffffffec013560601c90507f000000000000000000000000000000000000000000000000000000000000000073ffffffffffffffffffffffffffffffffffffffff168273ffffffffffffffffffffffffffffffffffffffff161480610ebd57506040517fe60125d600000000000000000000000000000000000000000000000000000000815273ffffffffffffffffffffffffffffffffffffffff828116600483015283811660248301527f0000000000000000000000000000000000000000000000000000000000000000169063e60125d690604401602060405180830381865afa158015610e99573d6000803e3d6000fd5b505050506040513d601f19601f82011682018060405250810190610ebd91906112dd565b15610ec85792915050565b50919050565b366000808083610edf601482611022565b92610243939291906112ff565b600060208284031215610efe57600080fd5b81357fffffffff0000000000000000000000000000000000000000000000000000000081168114610f2e57600080fd5b9392505050565b600060208284031215610f4757600080fd5b5035919050565b60208152816020820152818360408301376000818301604090810191909152601f9092017fffffffffffffffffffffffffffffffffffffffffffffffffffffffffffffffe0160101919050565b60008060408385031215610fae57600080fd5b50508035926020909101359150565b600060208284031215610fcf57600080fd5b813573ffffffffffffffffffffffffffffffffffffffff81168114610f2e57600080fd5b7f4e487b7100000000000000000000000000000000000000000000000000000000600052601160045260246000fd5b60008282101561103457611034610ff3565b500390565b7f4e487b7100000000000000000000000000000000000000000000000000000000600052603260045260246000fd5b60007fffffffffffffffffffffffffffffffffffffffffffffffffffffffffffffffff820361109957611099610ff3565b5060010190565b60005b838110156110bb5781810151838201526020016110a3565b838111156105485750506000910152565b7f436865636b706f696e74733a20636865636b706f696e742027000000000000008152600082516111048160198501602087016110a0565b7f27206e6f742072656163686564207965740000000000000000000000000000006019939091019283015250602a01919050565b60208152600082518060208401526111578160408501602087016110a0565b601f017fffffffffffffffffffffffffffffffffffffffffffffffffffffffffffffffe0169190910160400192915050565b7f436865636b706f696e74733a20636865636b706f696e742027000000000000008152600082516111c18160198501602087016110a0565b7f2720616c726561647920726561636865640000000000000000000000000000006019939091019283015250602a01919050565b7f436865636b706f696e74733a20636865636b706f696e7420270000000000000081526000825161122d8160198501602087016110a0565b7f2720616c726561647920736574000000000000000000000000000000000000006019939091019283015250602601919050565b60008161127057611270610ff3565b507fffffffffffffffffffffffffffffffffffffffffffffffffffffffffffffffff0190565b600082198211156112a9576112a9610ff3565b500190565b7f4e487b7100000000000000000000000000000000000000000000000000000000600052604160045260246000fd5b6000602082840312156112ef57600080fd5b81518015158114610f2e57600080fd5b6000808585111561130f57600080fd5b8386111561131c57600080fd5b505082019391909203915056fea2646970667358221220388de707d4b816406b9cde59628af582b7e7df757aa18b90dd513844e153186064736f6c634300080e0033",
  "linkReferences": {},
  "deployedLinkReferences": {}
}