{
  "_format": "hh-sol-artifact-1",
  "contractName": "CheckpointsMock",
  "sourceName": "contracts/mocks/lifecycle/CheckpointsMock.sol",
  "abi": [
    {
      "inputs": [
        {
          "internalType": "contract IForwarderRegistry",
          "name": "forwarderRegistry",
          "type": "address"
        }
      ],
      "stateMutability": "nonpayable",
      "type": "constructor"
    },
    {
      "anonymous": false,
      "inputs": [
        {
          "indexed": false,
          "internalType": "bytes32",
          "name": "checkpointId",
          "type": "bytes32"
        },
        {
          "indexed": false,
          "internalType": "uint256",
          "name": "timestamp",
          "type": "uint256"
        }
      ],
      "name": "CheckpointSet",
      "type": "event"
    },
    {
      "anonymous": false,
      "inputs": [
        {
          "indexed": true,
          "internalType": "address",
          "name": "previousOwner",
          "type": "address"
        },
        {
          "indexed": true,
          "internalType": "address",
          "name": "newOwner",
          "type": "address"
        }
      ],
      "name": "OwnershipTransferred",
      "type": "event"
    },
    {
      "inputs": [],
      "name": "START_CHECKPOINTID",
      "outputs": [
        {
          "internalType": "bytes32",
          "name": "",
          "type": "bytes32"
        }
      ],
      "stateMutability": "view",
      "type": "function"
    },
    {
      "inputs": [],
      "name": "__msgData",
      "outputs": [
        {
          "internalType": "bytes",
          "name": "",
          "type": "bytes"
        }
      ],
      "stateMutability": "view",
      "type": "function"
    },
    {
      "inputs": [
        {
          "internalType": "bytes32[]",
          "name": "checkpointIds",
          "type": "bytes32[]"
        },
        {
          "internalType": "uint256[]",
          "name": "timestamps",
          "type": "uint256[]"
        }
      ],
      "name": "batchSetCheckpoint",
      "outputs": [],
      "stateMutability": "nonpayable",
      "type": "function"
    },
    {
      "inputs": [
        {
          "internalType": "bytes32",
          "name": "checkpointId",
          "type": "bytes32"
        }
      ],
      "name": "checkpoint",
      "outputs": [
        {
          "internalType": "uint256",
          "name": "",
          "type": "uint256"
        }
      ],
      "stateMutability": "view",
      "type": "function"
    },
    {
      "inputs": [
        {
          "internalType": "bytes32",
          "name": "checkpointId",
          "type": "bytes32"
        }
      ],
      "name": "checkpointReached",
      "outputs": [
        {
          "internalType": "bool",
          "name": "",
          "type": "bool"
        }
      ],
      "stateMutability": "view",
      "type": "function"
    },
    {
      "inputs": [
        {
          "internalType": "bytes32",
          "name": "checkpointId",
          "type": "bytes32"
        }
      ],
      "name": "enforceCheckpointNotReached",
      "outputs": [],
      "stateMutability": "view",
      "type": "function"
    },
    {
      "inputs": [
        {
          "internalType": "bytes32",
          "name": "checkpointId",
          "type": "bytes32"
        }
      ],
      "name": "enforceCheckpointReached",
      "outputs": [],
      "stateMutability": "view",
      "type": "function"
    },
    {
      "inputs": [],
      "name": "forwarderRegistry",
      "outputs": [
        {
          "internalType": "contract IForwarderRegistry",
          "name": "",
          "type": "address"
        }
      ],
      "stateMutability": "view",
      "type": "function"
    },
    {
      "inputs": [
        {
          "internalType": "address",
          "name": "forwarder",
          "type": "address"
        }
      ],
      "name": "isTrustedForwarder",
      "outputs": [
        {
          "internalType": "bool",
          "name": "",
          "type": "bool"
        }
      ],
      "stateMutability": "view",
      "type": "function"
    },
    {
      "inputs": [],
      "name": "owner",
      "outputs": [
        {
          "internalType": "address",
          "name": "",
          "type": "address"
        }
      ],
      "stateMutability": "view",
      "type": "function"
    },
    {
      "inputs": [
        {
          "internalType": "bytes32",
          "name": "checkpointId",
          "type": "bytes32"
        },
        {
          "internalType": "uint256",
          "name": "timestamp",
          "type": "uint256"
        }
      ],
      "name": "setCheckpoint",
      "outputs": [],
      "stateMutability": "nonpayable",
      "type": "function"
    },
    {
      "inputs": [
        {
          "internalType": "bytes4",
          "name": "interfaceId",
          "type": "bytes4"
        }
      ],
      "name": "supportsInterface",
      "outputs": [
        {
          "internalType": "bool",
          "name": "",
          "type": "bool"
        }
      ],
      "stateMutability": "view",
      "type": "function"
    },
    {
      "inputs": [
        {
          "internalType": "address",
          "name": "newOwner",
          "type": "address"
        }
      ],
      "name": "transferOwnership",
      "outputs": [],
      "stateMutability": "nonpayable",
      "type": "function"
    },
    {
      "inputs": [
        {
          "internalType": "bytes32",
          "name": "checkpointId",
          "type": "bytes32"
        }
      ],
      "name": "triggerCheckpoint",
      "outputs": [],
      "stateMutability": "nonpayable",
      "type": "function"
    }
  ],
  "bytecode": "0x60a06040523480156200001157600080fd5b50604051620016e5380380620016e5833981016040819052620000349162000204565b8080336200006581620000516200007b60201b620003dc1760201c565b620000b160201b6200040a1790919060201c565b506001600160a01b031660805250620002589050565b600080620000ab60017fc9ed16f33ab3a66c84bfd83099ccb2a8845871e2e1c1928f63797152f0fd54cd62000236565b92915050565b6001600160a01b03811615620001085781546001600160a01b0319166001600160a01b03821690811783556040516000907f8be0079c531659141344cd1fd0a4f28419497f9722a3daafe3b4186f6b6457e0908290a35b620001406307f5828d60e41b60016200012b6200014460201b620004c71760201c565b6200017460201b620004f5179092919060201c565b5050565b600080620000ab60017fca9d3e17f264b0f3984e2634e94adb37fa3e6a8103f06aeae6fa59e21c769f5e62000236565b600160e01b6001600160e01b0319831601620001d65760405162461bcd60e51b815260206004820152601f60248201527f496e74657266616365446574656374696f6e3a2077726f6e672076616c756500604482015260640160405180910390fd5b6001600160e01b03199190911660009081526020929092526040909120805460ff1916911515919091179055565b6000602082840312156200021757600080fd5b81516001600160a01b03811681146200022f57600080fd5b9392505050565b81810381811115620000ab57634e487b7160e01b600052601160045260246000fd5b60805161144e6200029760003960008181610141015281816101e501528181610d1101528181610d4f01528181610e870152610f0f015261144e6000f3fe608060405234801561001057600080fd5b50600436106100ea5760003560e01c80634f410a801161008c5780638da5cb5b116100665780638da5cb5b14610243578063b4c6cf761461024b578063deb4d74614610272578063f2fde38b1461028557600080fd5b80634f410a80146101c2578063572b6c05146101d55780635b34eba01461022257600080fd5b80632b4c9f16116100c85780632b4c9f161461013f57806331e66e1e146101865780633b1493691461019c5780634bddd15c146101af57600080fd5b806301ffc9a7146100ef578063151bdba614610117578063244c00be1461012a575b600080fd5b6101026100fd366004610fbc565b610298565b60405190151581526020015b60405180910390f35b610102610125366004611005565b6102b2565b61013d610138366004611005565b6102c6565b005b7f00000000000000000000000000000000000000000000000000000000000000005b60405173ffffffffffffffffffffffffffffffffffffffff909116815260200161010e565b61018e6102db565b60405161010e92919061101e565b61013d6101aa3660046110b7565b6102ee565b61013d6101bd366004611005565b610325565b61013d6101d0366004611123565b610337565b6101026101e3366004611145565b7f000000000000000000000000000000000000000000000000000000000000000073ffffffffffffffffffffffffffffffffffffffff90811691161490565b610235610230366004611005565b61035a565b60405190815260200161010e565b610161610378565b6102357f535441525400000000000000000000000000000000000000000000000000000081565b61013d610280366004611005565b6103a4565b61013d610293366004611145565b6103c1565b60006102ac826102a66104c7565b90610606565b92915050565b60006102ac826102c06106e0565b9061070e565b6102d8816102d26106e0565b90610734565b50565b3660006102e66107b9565b915091509091565b6103076102f96107c4565b6103016103dc565b906107ce565b61031f848484846103166106e0565b93929190610851565b50505050565b6102d8816103316106e0565b9061091b565b6103426102f96107c4565b610356828261034f6106e0565b9190610943565b5050565b60006102ac826103686106e0565b6000918252602052604090205490565b600061039f6103856103dc565b5473ffffffffffffffffffffffffffffffffffffffff1690565b905090565b6103af6102f96107c4565b6102d8816103bb6106e0565b906109c5565b6102d86103cc6107c4565b826103d56103dc565b9190610a1c565b6000806102ac60017fc9ed16f33ab3a66c84bfd83099ccb2a8845871e2e1c1928f63797152f0fd54cd61117b565b73ffffffffffffffffffffffffffffffffffffffff8116156104925781547fffffffffffffffffffffffff00000000000000000000000000000000000000001673ffffffffffffffffffffffffffffffffffffffff821690811783556040516000907f8be0079c531659141344cd1fd0a4f28419497f9722a3daafe3b4186f6b6457e0908290a35b6103567f7f5828d00000000000000000000000000000000000000000000000000000000060016104c06104c7565b91906104f5565b6000806102ac60017fca9d3e17f264b0f3984e2634e94adb37fa3e6a8103f06aeae6fa59e21c769f5e61117b565b7c01000000000000000000000000000000000000000000000000000000007fffffffff000000000000000000000000000000000000000000000000000000008316016105a2576040517f08c379a000000000000000000000000000000000000000000000000000000000815260206004820152601f60248201527f496e74657266616365446574656374696f6e3a2077726f6e672076616c75650060448201526064015b60405180910390fd5b7fffffffff00000000000000000000000000000000000000000000000000000000919091166000908152602092909252604090912080547fffffffffffffffffffffffffffffffffffffffffffffffffffffffffffffff0016911515919091179055565b60007c01000000000000000000000000000000000000000000000000000000007fffffffff00000000000000000000000000000000000000000000000000000000831601610656575060006102ac565b7ffe003659000000000000000000000000000000000000000000000000000000007fffffffff000000000000000000000000000000000000000000000000000000008316016106a7575060016102ac565b507fffffffff00000000000000000000000000000000000000000000000000000000166000908152602091909152604090205460ff1690565b6000806102ac60017f0def758eb96c12015155889b8e63d1cb5c0dbce5585bbdf9d99ea353f56c716c61117b565b600081815260208390526040812054801580159061072c5750804210155b949350505050565b61073e828261070e565b6103565761074b81610b48565b60405160200161075b91906111d9565b604080517fffffffffffffffffffffffffffffffffffffffffffffffffffffffffffffffe0818403018152908290527f08c379a000000000000000000000000000000000000000000000000000000000825261059991600401611245565b3660006102e6610cda565b600061039f610e44565b815473ffffffffffffffffffffffffffffffffffffffff828116911614610356576040517f08c379a000000000000000000000000000000000000000000000000000000000815260206004820152601860248201527f4f776e6572736869703a206e6f7420746865206f776e657200000000000000006044820152606401610599565b828181146108bb576040517f08c379a000000000000000000000000000000000000000000000000000000000815260206004820152601f60248201527f436865636b706f696e74733a2077726f6e67206172726179206c656e677468006044820152606401610599565b60005b8181146109125761090a8686838181106108da576108da611296565b905060200201358585848181106108f3576108f3611296565b90506020020135896109439092919063ffffffff16565b6001016108be565b50505050505050565b610925828261070e565b156103565761093381610b48565b60405160200161075b91906112c5565b600082815260208490526040902054156109705761096082610b48565b60405160200161075b9190611331565b80156109c0576000828152602084815260409182902083905581518481529081018390527f099ea97db121bdf4a102e67113e27b6bb74713015b32a5f0e1c3ea0d44fb2953910160405180910390a15b505050565b6109cf828261091b565b6000818152602083815260409182902042908190558251848152918201527f099ea97db121bdf4a102e67113e27b6bb74713015b32a5f0e1c3ea0d44fb2953910160405180910390a15050565b825473ffffffffffffffffffffffffffffffffffffffff9081169083168114610aa1576040517f08c379a000000000000000000000000000000000000000000000000000000000815260206004820152601860248201527f4f776e6572736869703a206e6f7420746865206f776e657200000000000000006044820152606401610599565b8173ffffffffffffffffffffffffffffffffffffffff168173ffffffffffffffffffffffffffffffffffffffff161461031f5783547fffffffffffffffffffffffff00000000000000000000000000000000000000001673ffffffffffffffffffffffffffffffffffffffff8381169182178655604051908316907f8be0079c531659141344cd1fd0a4f28419497f9722a3daafe3b4186f6b6457e090600090a350505050565b60606000829003610b6757505060408051602081019091526000815290565b600082604051602001610b7c91815260200190565b604080517fffffffffffffffffffffffffffffffffffffffffffffffffffffffffffffffe08184030181529190529050601f5b818181518110610bc157610bc1611296565b01602001517fff0000000000000000000000000000000000000000000000000000000000000016600003610c16577fffffffffffffffffffffffffffffffffffffffffffffffffffffffffffffffff01610baf565b60008160010167ffffffffffffffff811115610c3457610c3461139d565b6040519080825280601f01601f191660200182016040528015610c5e576020820181803683370190505b50905060005b828111610cd157838181518110610c7d57610c7d611296565b602001015160f81c60f81b828281518110610c9a57610c9a611296565b60200101907effffffffffffffffffffffffffffffffffffffffffffffffffffffffffffff1916908160001a905350600101610c64565b50949350505050565b36600033321480610ceb5750601836105b15610cf95750600091369150565b3373ffffffffffffffffffffffffffffffffffffffff7f0000000000000000000000000000000000000000000000000000000000000000161480610e2e575073ffffffffffffffffffffffffffffffffffffffff7f000000000000000000000000000000000000000000000000000000000000000016638929a8ca367fffffffffffffffffffffffffffffffffffffffffffffffffffffffffffffffec013560601c6040517fffffffff0000000000000000000000000000000000000000000000000000000060e084901b16815273ffffffffffffffffffffffffffffffffffffffff9091166004820152336024820152604401602060405180830381865afa158015610e0a573d6000803e3d6000fd5b505050506040513d601f19601f82011682018060405250810190610e2e91906113cc565b15610e3b576102e6610f8b565b50600091369150565b600033321480610e545750601836105b15610e5e57503390565b7fffffffffffffffffffffffffffffffffffffffffffffffffffffffffffffffec36013560601c7f000000000000000000000000000000000000000000000000000000000000000073ffffffffffffffffffffffffffffffffffffffff16331480610f7a57506040517f8929a8ca00000000000000000000000000000000000000000000000000000000815273ffffffffffffffffffffffffffffffffffffffff82811660048301523360248301527f00000000000000000000000000000000000000000000000000000000000000001690638929a8ca90604401602060405180830381865afa158015610f56573d6000803e3d6000fd5b505050506040513d601f19601f82011682018060405250810190610f7a91906113cc565b15610f8457919050565b3391505090565b3660006102e67fffffffffffffffffffffffffffffffffffffffffffffffffffffffffffffffec83018284816113ee565b600060208284031215610fce57600080fd5b81357fffffffff0000000000000000000000000000000000000000000000000000000081168114610ffe57600080fd5b9392505050565b60006020828403121561101757600080fd5b5035919050565b60208152816020820152818360408301376000818301604090810191909152601f9092017fffffffffffffffffffffffffffffffffffffffffffffffffffffffffffffffe0160101919050565b60008083601f84011261107d57600080fd5b50813567ffffffffffffffff81111561109557600080fd5b6020830191508360208260051b85010111156110b057600080fd5b9250929050565b600080600080604085870312156110cd57600080fd5b843567ffffffffffffffff808211156110e557600080fd5b6110f18883890161106b565b9096509450602087013591508082111561110a57600080fd5b506111178782880161106b565b95989497509550505050565b6000806040838503121561113657600080fd5b50508035926020909101359150565b60006020828403121561115757600080fd5b813573ffffffffffffffffffffffffffffffffffffffff81168114610ffe57600080fd5b818103818111156102ac577f4e487b7100000000000000000000000000000000000000000000000000000000600052601160045260246000fd5b60005b838110156111d05781810151838201526020016111b8565b50506000910152565b7f436865636b706f696e74733a20636865636b706f696e742027000000000000008152600082516112118160198501602087016111b5565b7f27206e6f742072656163686564207965740000000000000000000000000000006019939091019283015250602a01919050565b60208152600082518060208401526112648160408501602087016111b5565b601f017fffffffffffffffffffffffffffffffffffffffffffffffffffffffffffffffe0169190910160400192915050565b7f4e487b7100000000000000000000000000000000000000000000000000000000600052603260045260246000fd5b7f436865636b706f696e74733a20636865636b706f696e742027000000000000008152600082516112fd8160198501602087016111b5565b7f2720616c726561647920726561636865640000000000000000000000000000006019939091019283015250602a01919050565b7f436865636b706f696e74733a20636865636b706f696e742027000000000000008152600082516113698160198501602087016111b5565b7f2720616c726561647920736574000000000000000000000000000000000000006019939091019283015250602601919050565b7f4e487b7100000000000000000000000000000000000000000000000000000000600052604160045260246000fd5b6000602082840312156113de57600080fd5b81518015158114610ffe57600080fd5b600080858511156113fe57600080fd5b8386111561140b57600080fd5b505082019391909203915056fea2646970667358221220e466a2bf987183809b3422673b31a7494f2da0519836e5924a8423a6259e09d464736f6c63430008110033",
  "linkReferences": {},
  "deployedLinkReferences": {}
}