{
  "_format": "hh-sol-artifact-1",
  "contractName": "CheckpointsMock",
  "sourceName": "contracts/mocks/lifecycle/CheckpointsMock.sol",
  "abi": [
    {
      "inputs": [
        {
          "internalType": "bytes32[]",
          "name": "checkpointIds",
          "type": "bytes32[]"
        },
        {
          "internalType": "uint256[]",
          "name": "timestamps",
          "type": "uint256[]"
        },
        {
          "internalType": "contract IForwarderRegistry",
          "name": "forwarderRegistry",
          "type": "address"
        }
      ],
      "stateMutability": "nonpayable",
      "type": "constructor"
    },
    {
      "anonymous": false,
      "inputs": [
        {
          "indexed": false,
          "internalType": "bytes32",
          "name": "checkpointId",
          "type": "bytes32"
        },
        {
          "indexed": false,
          "internalType": "uint256",
          "name": "timestamp",
          "type": "uint256"
        }
      ],
      "name": "CheckpointSet",
      "type": "event"
    },
    {
      "anonymous": false,
      "inputs": [
        {
          "indexed": true,
          "internalType": "address",
          "name": "previousOwner",
          "type": "address"
        },
        {
          "indexed": true,
          "internalType": "address",
          "name": "newOwner",
          "type": "address"
        }
      ],
      "name": "OwnershipTransferred",
      "type": "event"
    },
    {
      "inputs": [],
      "name": "START_CHECKPOINTID",
      "outputs": [
        {
          "internalType": "bytes32",
          "name": "",
          "type": "bytes32"
        }
      ],
      "stateMutability": "view",
      "type": "function"
    },
    {
      "inputs": [],
      "name": "__msgData",
      "outputs": [
        {
          "internalType": "bytes",
          "name": "",
          "type": "bytes"
        }
      ],
      "stateMutability": "view",
      "type": "function"
    },
    {
      "inputs": [
        {
          "internalType": "bytes32",
          "name": "checkpointId",
          "type": "bytes32"
        }
      ],
      "name": "checkpoint",
      "outputs": [
        {
          "internalType": "uint256",
          "name": "",
          "type": "uint256"
        }
      ],
      "stateMutability": "view",
      "type": "function"
    },
    {
      "inputs": [
        {
          "internalType": "bytes32",
          "name": "checkpointId",
          "type": "bytes32"
        }
      ],
      "name": "checkpointReached",
      "outputs": [
        {
          "internalType": "bool",
          "name": "",
          "type": "bool"
        }
      ],
      "stateMutability": "view",
      "type": "function"
    },
    {
      "inputs": [
        {
          "internalType": "bytes32",
          "name": "checkpointId",
          "type": "bytes32"
        }
      ],
      "name": "enforceCheckpointNotReached",
      "outputs": [],
      "stateMutability": "view",
      "type": "function"
    },
    {
      "inputs": [
        {
          "internalType": "bytes32",
          "name": "checkpointId",
          "type": "bytes32"
        }
      ],
      "name": "enforceCheckpointReached",
      "outputs": [],
      "stateMutability": "view",
      "type": "function"
    },
    {
      "inputs": [],
      "name": "owner",
      "outputs": [
        {
          "internalType": "address",
          "name": "",
          "type": "address"
        }
      ],
      "stateMutability": "view",
      "type": "function"
    },
    {
      "inputs": [
        {
          "internalType": "bytes32",
          "name": "checkpointId",
          "type": "bytes32"
        },
        {
          "internalType": "uint256",
          "name": "timestamp",
          "type": "uint256"
        }
      ],
      "name": "setCheckpoint",
      "outputs": [],
      "stateMutability": "nonpayable",
      "type": "function"
    },
    {
      "inputs": [
        {
          "internalType": "bytes4",
          "name": "interfaceId",
          "type": "bytes4"
        }
      ],
      "name": "supportsInterface",
      "outputs": [
        {
          "internalType": "bool",
          "name": "",
          "type": "bool"
        }
      ],
      "stateMutability": "view",
      "type": "function"
    },
    {
      "inputs": [
        {
          "internalType": "address",
          "name": "newOwner",
          "type": "address"
        }
      ],
      "name": "transferOwnership",
      "outputs": [],
      "stateMutability": "nonpayable",
      "type": "function"
    },
    {
      "inputs": [
        {
          "internalType": "bytes32",
          "name": "checkpointId",
          "type": "bytes32"
        }
      ],
      "name": "triggerCheckpoint",
      "outputs": [],
      "stateMutability": "nonpayable",
      "type": "function"
    }
  ],
  "bytecode": "0x60a06040523480156200001157600080fd5b50604051620018f1380380620018f1833981016040819052620000349162000470565b80838333620000668162000052620000af60201b620003101760201c565b620000e560201b6200033e1790919060201c565b50620000978282620000826200017860201b620003fb1760201c565b620001a860201b62000429179092919060201c565b50506001600160a01b03166080525062000585915050565b600080620000df60017fc9ed16f33ab3a66c84bfd83099ccb2a8845871e2e1c1928f63797152f0fd54cd62000549565b92915050565b6001600160a01b038116156200013c5781546001600160a01b0319166001600160a01b03821690811783556040516000907f8be0079c531659141344cd1fd0a4f28419497f9722a3daafe3b4186f6b6457e0908290a35b620001746307f5828d60e41b60016200015f620002b460201b620005451760201c565b620002e460201b62000573179092919060201c565b5050565b600080620000df60017f0def758eb96c12015155889b8e63d1cb5c0dbce5585bbdf9d99ea353f56c716c62000549565b8051825114620001ff5760405162461bcd60e51b815260206004820152601f60248201527f436865636b706f696e74733a2077726f6e67206172726179206c656e6774680060448201526064015b60405180910390fd5b60005b82518114620002ae5760008282815181106200022257620002226200056f565b6020026020010151905080600014620002a45760008483815181106200024c576200024c6200056f565b602090810291909101810151600081815288835260409081902085905580518281529283018590529092507f099ea97db121bdf4a102e67113e27b6bb74713015b32a5f0e1c3ea0d44fb2953910160405180910390a1505b5060010162000202565b50505050565b600080620000df60017fca9d3e17f264b0f3984e2634e94adb37fa3e6a8103f06aeae6fa59e21c769f5e62000549565b600160e01b6001600160e01b0319831601620003435760405162461bcd60e51b815260206004820152601f60248201527f496e74657266616365446574656374696f6e3a2077726f6e672076616c7565006044820152606401620001f6565b6001600160e01b03199190911660009081526020929092526040909120805460ff1916911515919091179055565b634e487b7160e01b600052604160045260246000fd5b604051601f8201601f191681016001600160401b0381118282101715620003b257620003b262000371565b604052919050565b60006001600160401b03821115620003d657620003d662000371565b5060051b60200190565b600082601f830112620003f257600080fd5b815160206200040b6200040583620003ba565b62000387565b82815260059290921b840181019181810190868411156200042b57600080fd5b8286015b848110156200044857805183529183019183016200042f565b509695505050505050565b80516001600160a01b03811681146200046b57600080fd5b919050565b6000806000606084860312156200048657600080fd5b83516001600160401b03808211156200049e57600080fd5b818601915086601f830112620004b357600080fd5b81516020620004c66200040583620003ba565b82815260059290921b8401810191818101908a841115620004e657600080fd5b948201945b838610156200050657855182529482019490820190620004eb565b918901519197509093505050808211156200052057600080fd5b506200052f86828701620003e0565b925050620005406040850162000453565b90509250925092565b6000828210156200056a57634e487b7160e01b600052601160045260246000fd5b500390565b634e487b7160e01b600052603260045260246000fd5b60805161133b620005b660003960008181610c7301528181610cdd01528181610e1b0152610ebb015261133b6000f3fe608060405234801561001057600080fd5b50600436106100c95760003560e01c80634f410a8011610081578063b4c6cf761161005b578063b4c6cf76146101a8578063deb4d746146101cf578063f2fde38b146101e257600080fd5b80634f410a80146101475780635b34eba01461015a5780638da5cb5b1461017b57600080fd5b8063244c00be116100b2578063244c00be1461010957806331e66e1e1461011e5780634bddd15c1461013457600080fd5b806301ffc9a7146100ce578063151bdba6146100f6575b600080fd5b6100e16100dc366004610f55565b6101f5565b60405190151581526020015b60405180910390f35b6100e1610104366004610f9e565b61020f565b61011c610117366004610f9e565b610223565b005b610126610238565b6040516100ed929190610fb7565b61011c610142366004610f9e565b61024b565b61011c610155366004611004565b61025d565b61016d610168366004610f9e565b61028e565b6040519081526020016100ed565b6101836102ac565b60405173ffffffffffffffffffffffffffffffffffffffff90911681526020016100ed565b61016d7f535441525400000000000000000000000000000000000000000000000000000081565b61011c6101dd366004610f9e565b6102d8565b61011c6101f0366004611026565b6102f5565b600061020982610203610545565b9061067f565b92915050565b60006102098261021d6103fb565b90610759565b6102358161022f6103fb565b9061077f565b50565b366000610243610804565b915091509091565b610235816102576103fb565b9061080f565b610276610268610837565b610270610310565b90610841565b61028a82826102836103fb565b91906108c4565b5050565b60006102098261029c6103fb565b6000918252602052604090205490565b60006102d36102b9610310565b5473ffffffffffffffffffffffffffffffffffffffff1690565b905090565b6102e3610268610837565b610235816102ef6103fb565b90610946565b610235610300610837565b82610309610310565b919061099d565b60008061020960017fc9ed16f33ab3a66c84bfd83099ccb2a8845871e2e1c1928f63797152f0fd54cd61105c565b73ffffffffffffffffffffffffffffffffffffffff8116156103c65781547fffffffffffffffffffffffff00000000000000000000000000000000000000001673ffffffffffffffffffffffffffffffffffffffff821690811783556040516000907f8be0079c531659141344cd1fd0a4f28419497f9722a3daafe3b4186f6b6457e0908290a35b61028a7f7f5828d00000000000000000000000000000000000000000000000000000000060016103f4610545565b9190610573565b60008061020960017f0def758eb96c12015155889b8e63d1cb5c0dbce5585bbdf9d99ea353f56c716c61105c565b8051825114610499576040517f08c379a000000000000000000000000000000000000000000000000000000000815260206004820152601f60248201527f436865636b706f696e74733a2077726f6e67206172726179206c656e6774680060448201526064015b60405180910390fd5b60005b8251811461053f5760008282815181106104b8576104b861109a565b60200260200101519050806000146105365760008483815181106104de576104de61109a565b602090810291909101810151600081815288835260409081902085905580518281529283018590529092507f099ea97db121bdf4a102e67113e27b6bb74713015b32a5f0e1c3ea0d44fb2953910160405180910390a1505b5060010161049c565b50505050565b60008061020960017fca9d3e17f264b0f3984e2634e94adb37fa3e6a8103f06aeae6fa59e21c769f5e61105c565b7c01000000000000000000000000000000000000000000000000000000007fffffffff0000000000000000000000000000000000000000000000000000000083160161061b576040517f08c379a000000000000000000000000000000000000000000000000000000000815260206004820152601f60248201527f496e74657266616365446574656374696f6e3a2077726f6e672076616c7565006044820152606401610490565b7fffffffff00000000000000000000000000000000000000000000000000000000919091166000908152602092909252604090912080547fffffffffffffffffffffffffffffffffffffffffffffffffffffffffffffff0016911515919091179055565b60007c01000000000000000000000000000000000000000000000000000000007fffffffff000000000000000000000000000000000000000000000000000000008316016106cf57506000610209565b7ffe003659000000000000000000000000000000000000000000000000000000007fffffffff0000000000000000000000000000000000000000000000000000000083160161072057506001610209565b507fffffffff00000000000000000000000000000000000000000000000000000000166000908152602091909152604090205460ff1690565b60008181526020839052604081205480158015906107775750804210155b949350505050565b6107898282610759565b61028a5761079681610ac9565b6040516020016107a691906110f5565b604080517fffffffffffffffffffffffffffffffffffffffffffffffffffffffffffffffe0818403018152908290527f08c379a000000000000000000000000000000000000000000000000000000000825261049091600401611161565b366000610243610c5b565b6108198282610759565b1561028a5761082781610ac9565b6040516020016107a691906111b2565b60006102d3610ddf565b815473ffffffffffffffffffffffffffffffffffffffff82811691161461028a576040517f08c379a000000000000000000000000000000000000000000000000000000000815260206004820152601860248201527f4f776e6572736869703a206e6f7420746865206f776e657200000000000000006044820152606401610490565b600082815260208490526040902054156108f1576108e182610ac9565b6040516020016107a6919061121e565b8015610941576000828152602084815260409182902083905581518481529081018390527f099ea97db121bdf4a102e67113e27b6bb74713015b32a5f0e1c3ea0d44fb2953910160405180910390a15b505050565b610950828261080f565b6000818152602083815260409182902042908190558251848152918201527f099ea97db121bdf4a102e67113e27b6bb74713015b32a5f0e1c3ea0d44fb2953910160405180910390a15050565b825473ffffffffffffffffffffffffffffffffffffffff9081169083168114610a22576040517f08c379a000000000000000000000000000000000000000000000000000000000815260206004820152601860248201527f4f776e6572736869703a206e6f7420746865206f776e657200000000000000006044820152606401610490565b8173ffffffffffffffffffffffffffffffffffffffff168173ffffffffffffffffffffffffffffffffffffffff161461053f5783547fffffffffffffffffffffffff00000000000000000000000000000000000000001673ffffffffffffffffffffffffffffffffffffffff8381169182178655604051908316907f8be0079c531659141344cd1fd0a4f28419497f9722a3daafe3b4186f6b6457e090600090a350505050565b60606000829003610ae857505060408051602081019091526000815290565b600082604051602001610afd91815260200190565b604080517fffffffffffffffffffffffffffffffffffffffffffffffffffffffffffffffe08184030181529190529050601f5b818181518110610b4257610b4261109a565b01602001517fff0000000000000000000000000000000000000000000000000000000000000016600003610b97577fffffffffffffffffffffffffffffffffffffffffffffffffffffffffffffffff01610b30565b60008160010167ffffffffffffffff811115610bb557610bb561128a565b6040519080825280601f01601f191660200182016040528015610bdf576020820181803683370190505b50905060005b828111610c5257838181518110610bfe57610bfe61109a565b602001015160f81c60f81b828281518110610c1b57610c1b61109a565b60200101907effffffffffffffffffffffffffffffffffffffffffffffffffffffffffffff1916908160001a905350600101610be5565b50949350505050565b36600033328103610c7157506000923692509050565b7f000000000000000000000000000000000000000000000000000000000000000073ffffffffffffffffffffffffffffffffffffffff168173ffffffffffffffffffffffffffffffffffffffff161480610dbe575073ffffffffffffffffffffffffffffffffffffffff7f00000000000000000000000000000000000000000000000000000000000000001663e60125d6367fffffffffffffffffffffffffffffffffffffffffffffffffffffffffffffffec013560601c6040517fffffffff0000000000000000000000000000000000000000000000000000000060e084901b16815273ffffffffffffffffffffffffffffffffffffffff91821660048201529084166024820152604401602060405180830381865afa158015610d9a573d6000803e3d6000fd5b505050506040513d601f19601f82011682018060405250810190610dbe91906112b9565b15610dd457610dcb610f37565b92509250509091565b506000923692509050565b600033328103610dee57919050565b6000367fffffffffffffffffffffffffffffffffffffffffffffffffffffffffffffffec013560601c90507f000000000000000000000000000000000000000000000000000000000000000073ffffffffffffffffffffffffffffffffffffffff168273ffffffffffffffffffffffffffffffffffffffff161480610f2657506040517fe60125d600000000000000000000000000000000000000000000000000000000815273ffffffffffffffffffffffffffffffffffffffff828116600483015283811660248301527f0000000000000000000000000000000000000000000000000000000000000000169063e60125d690604401602060405180830381865afa158015610f02573d6000803e3d6000fd5b505050506040513d601f19601f82011682018060405250810190610f2691906112b9565b15610f315792915050565b50919050565b366000808083610f4860148261105c565b92610243939291906112db565b600060208284031215610f6757600080fd5b81357fffffffff0000000000000000000000000000000000000000000000000000000081168114610f9757600080fd5b9392505050565b600060208284031215610fb057600080fd5b5035919050565b60208152816020820152818360408301376000818301604090810191909152601f9092017fffffffffffffffffffffffffffffffffffffffffffffffffffffffffffffffe0160101919050565b6000806040838503121561101757600080fd5b50508035926020909101359150565b60006020828403121561103857600080fd5b813573ffffffffffffffffffffffffffffffffffffffff81168114610f9757600080fd5b600082821015611095577f4e487b7100000000000000000000000000000000000000000000000000000000600052601160045260246000fd5b500390565b7f4e487b7100000000000000000000000000000000000000000000000000000000600052603260045260246000fd5b60005b838110156110e45781810151838201526020016110cc565b8381111561053f5750506000910152565b7f436865636b706f696e74733a20636865636b706f696e7420270000000000000081526000825161112d8160198501602087016110c9565b7f27206e6f742072656163686564207965740000000000000000000000000000006019939091019283015250602a01919050565b60208152600082518060208401526111808160408501602087016110c9565b601f017fffffffffffffffffffffffffffffffffffffffffffffffffffffffffffffffe0169190910160400192915050565b7f436865636b706f696e74733a20636865636b706f696e742027000000000000008152600082516111ea8160198501602087016110c9565b7f2720616c726561647920726561636865640000000000000000000000000000006019939091019283015250602a01919050565b7f436865636b706f696e74733a20636865636b706f696e742027000000000000008152600082516112568160198501602087016110c9565b7f2720616c726561647920736574000000000000000000000000000000000000006019939091019283015250602601919050565b7f4e487b7100000000000000000000000000000000000000000000000000000000600052604160045260246000fd5b6000602082840312156112cb57600080fd5b81518015158114610f9757600080fd5b600080858511156112eb57600080fd5b838611156112f857600080fd5b505082019391909203915056fea264697066735822122086a8c2c815edaa08ef2a2bea5dda92856c7ee9466874fe71de25d552cba22e9664736f6c634300080e0033",
  "linkReferences": {},
  "deployedLinkReferences": {}
}