{
  "_format": "hh-sol-artifact-1",
  "contractName": "CheckpointsMock",
  "sourceName": "contracts/mocks/lifecycle/CheckpointsMock.sol",
  "abi": [
    {
      "inputs": [
        {
          "internalType": "bytes32[]",
          "name": "checkpointIds",
          "type": "bytes32[]"
        },
        {
          "internalType": "uint256[]",
          "name": "timestamps",
          "type": "uint256[]"
        },
        {
          "internalType": "contract IForwarderRegistry",
          "name": "forwarderRegistry",
          "type": "address"
        }
      ],
      "stateMutability": "nonpayable",
      "type": "constructor"
    },
    {
      "anonymous": false,
      "inputs": [
        {
          "indexed": false,
          "internalType": "bytes32",
          "name": "checkpointId",
          "type": "bytes32"
        },
        {
          "indexed": false,
          "internalType": "uint256",
          "name": "timestamp",
          "type": "uint256"
        }
      ],
      "name": "CheckpointSet",
      "type": "event"
    },
    {
      "anonymous": false,
      "inputs": [
        {
          "indexed": true,
          "internalType": "address",
          "name": "previousOwner",
          "type": "address"
        },
        {
          "indexed": true,
          "internalType": "address",
          "name": "newOwner",
          "type": "address"
        }
      ],
      "name": "OwnershipTransferred",
      "type": "event"
    },
    {
      "inputs": [],
      "name": "START_CHECKPOINTID",
      "outputs": [
        {
          "internalType": "bytes32",
          "name": "",
          "type": "bytes32"
        }
      ],
      "stateMutability": "view",
      "type": "function"
    },
    {
      "inputs": [],
      "name": "__msgData",
      "outputs": [
        {
          "internalType": "bytes",
          "name": "",
          "type": "bytes"
        }
      ],
      "stateMutability": "view",
      "type": "function"
    },
    {
      "inputs": [
        {
          "internalType": "bytes32",
          "name": "checkpointId",
          "type": "bytes32"
        }
      ],
      "name": "checkpoint",
      "outputs": [
        {
          "internalType": "uint256",
          "name": "",
          "type": "uint256"
        }
      ],
      "stateMutability": "view",
      "type": "function"
    },
    {
      "inputs": [
        {
          "internalType": "bytes32",
          "name": "checkpointId",
          "type": "bytes32"
        }
      ],
      "name": "checkpointReached",
      "outputs": [
        {
          "internalType": "bool",
          "name": "",
          "type": "bool"
        }
      ],
      "stateMutability": "view",
      "type": "function"
    },
    {
      "inputs": [
        {
          "internalType": "bytes32",
          "name": "checkpointId",
          "type": "bytes32"
        }
      ],
      "name": "enforceCheckpointNotReached",
      "outputs": [],
      "stateMutability": "view",
      "type": "function"
    },
    {
      "inputs": [
        {
          "internalType": "bytes32",
          "name": "checkpointId",
          "type": "bytes32"
        }
      ],
      "name": "enforceCheckpointReached",
      "outputs": [],
      "stateMutability": "view",
      "type": "function"
    },
    {
      "inputs": [],
      "name": "forwarderRegistry",
      "outputs": [
        {
          "internalType": "contract IForwarderRegistry",
          "name": "",
          "type": "address"
        }
      ],
      "stateMutability": "view",
      "type": "function"
    },
    {
      "inputs": [
        {
          "internalType": "address",
          "name": "forwarder",
          "type": "address"
        }
      ],
      "name": "isTrustedForwarder",
      "outputs": [
        {
          "internalType": "bool",
          "name": "",
          "type": "bool"
        }
      ],
      "stateMutability": "view",
      "type": "function"
    },
    {
      "inputs": [],
      "name": "owner",
      "outputs": [
        {
          "internalType": "address",
          "name": "",
          "type": "address"
        }
      ],
      "stateMutability": "view",
      "type": "function"
    },
    {
      "inputs": [
        {
          "internalType": "bytes32",
          "name": "checkpointId",
          "type": "bytes32"
        },
        {
          "internalType": "uint256",
          "name": "timestamp",
          "type": "uint256"
        }
      ],
      "name": "setCheckpoint",
      "outputs": [],
      "stateMutability": "nonpayable",
      "type": "function"
    },
    {
      "inputs": [
        {
          "internalType": "bytes4",
          "name": "interfaceId",
          "type": "bytes4"
        }
      ],
      "name": "supportsInterface",
      "outputs": [
        {
          "internalType": "bool",
          "name": "",
          "type": "bool"
        }
      ],
      "stateMutability": "view",
      "type": "function"
    },
    {
      "inputs": [
        {
          "internalType": "address",
          "name": "newOwner",
          "type": "address"
        }
      ],
      "name": "transferOwnership",
      "outputs": [],
      "stateMutability": "nonpayable",
      "type": "function"
    },
    {
      "inputs": [
        {
          "internalType": "bytes32",
          "name": "checkpointId",
          "type": "bytes32"
        }
      ],
      "name": "triggerCheckpoint",
      "outputs": [],
      "stateMutability": "nonpayable",
      "type": "function"
    }
  ],
  "bytecode": "0x60a06040523480156200001157600080fd5b506040516200196138038062001961833981016040819052620000349162000473565b8080848433620000678162000053620000b160201b620003951760201c565b620000e760201b620003c31790919060201c565b50620000988282620000836200017a60201b620004801760201c565b620001aa60201b620004ae179092919060201c565b50506001600160a01b0316608052506200058492505050565b600080620000e160017fc9ed16f33ab3a66c84bfd83099ccb2a8845871e2e1c1928f63797152f0fd54cd6200054c565b92915050565b6001600160a01b038116156200013e5781546001600160a01b0319166001600160a01b03821690811783556040516000907f8be0079c531659141344cd1fd0a4f28419497f9722a3daafe3b4186f6b6457e0908290a35b620001766307f5828d60e41b600162000161620002b760201b620005cb1760201c565b620002e760201b620005f9179092919060201c565b5050565b600080620000e160017f0def758eb96c12015155889b8e63d1cb5c0dbce5585bbdf9d99ea353f56c716c6200054c565b815181518114620002025760405162461bcd60e51b815260206004820152601f60248201527f436865636b706f696e74733a2077726f6e67206172726179206c656e6774680060448201526064015b60405180910390fd5b60005b818114620002b05760008382815181106200022457620002246200056e565b6020026020010151905080600014620002a65760008583815181106200024e576200024e6200056e565b602090810291909101810151600081815289835260409081902085905580518281529283018590529092507f099ea97db121bdf4a102e67113e27b6bb74713015b32a5f0e1c3ea0d44fb2953910160405180910390a1505b5060010162000205565b5050505050565b600080620000e160017fca9d3e17f264b0f3984e2634e94adb37fa3e6a8103f06aeae6fa59e21c769f5e6200054c565b600160e01b6001600160e01b0319831601620003465760405162461bcd60e51b815260206004820152601f60248201527f496e74657266616365446574656374696f6e3a2077726f6e672076616c7565006044820152606401620001f9565b6001600160e01b03199190911660009081526020929092526040909120805460ff1916911515919091179055565b634e487b7160e01b600052604160045260246000fd5b604051601f8201601f191681016001600160401b0381118282101715620003b557620003b562000374565b604052919050565b60006001600160401b03821115620003d957620003d962000374565b5060051b60200190565b600082601f830112620003f557600080fd5b815160206200040e6200040883620003bd565b6200038a565b82815260059290921b840181019181810190868411156200042e57600080fd5b8286015b848110156200044b578051835291830191830162000432565b509695505050505050565b80516001600160a01b03811681146200046e57600080fd5b919050565b6000806000606084860312156200048957600080fd5b83516001600160401b0380821115620004a157600080fd5b818601915086601f830112620004b657600080fd5b81516020620004c96200040883620003bd565b82815260059290921b8401810191818101908a841115620004e957600080fd5b948201945b838610156200050957855182529482019490820190620004ee565b918901519197509093505050808211156200052357600080fd5b506200053286828701620003e3565b925050620005436040850162000456565b90509250925092565b81810381811115620000e157634e487b7160e01b600052601160045260246000fd5b634e487b7160e01b600052603260045260246000fd5b60805161139e620005c360003960008181610136015281816101c701528181610d1901528181610d5701528181610e8f0152610f17015261139e6000f3fe608060405234801561001057600080fd5b50600436106100df5760003560e01c80634f410a801161008c5780638da5cb5b116100665780638da5cb5b14610225578063b4c6cf761461022d578063deb4d74614610254578063f2fde38b1461026757600080fd5b80634f410a80146101a4578063572b6c05146101b75780635b34eba01461020457600080fd5b80632b4c9f16116100bd5780632b4c9f161461013457806331e66e1e1461017b5780634bddd15c1461019157600080fd5b806301ffc9a7146100e4578063151bdba61461010c578063244c00be1461011f575b600080fd5b6100f76100f2366004610fc4565b61027a565b60405190151581526020015b60405180910390f35b6100f761011a36600461100d565b610294565b61013261012d36600461100d565b6102a8565b005b7f00000000000000000000000000000000000000000000000000000000000000005b60405173ffffffffffffffffffffffffffffffffffffffff9091168152602001610103565b6101836102bd565b604051610103929190611026565b61013261019f36600461100d565b6102d0565b6101326101b2366004611073565b6102e2565b6100f76101c5366004611095565b7f000000000000000000000000000000000000000000000000000000000000000073ffffffffffffffffffffffffffffffffffffffff90811691161490565b61021761021236600461100d565b610313565b604051908152602001610103565b610156610331565b6102177f535441525400000000000000000000000000000000000000000000000000000081565b61013261026236600461100d565b61035d565b610132610275366004611095565b61037a565b600061028e826102886105cb565b90610705565b92915050565b600061028e826102a2610480565b906107df565b6102ba816102b4610480565b90610805565b50565b3660006102c861088a565b915091509091565b6102ba816102dc610480565b90610895565b6102fb6102ed6108bd565b6102f5610395565b906108c7565b61030f8282610308610480565b919061094a565b5050565b600061028e82610321610480565b6000918252602052604090205490565b600061035861033e610395565b5473ffffffffffffffffffffffffffffffffffffffff1690565b905090565b6103686102ed6108bd565b6102ba81610374610480565b906109cc565b6102ba6103856108bd565b8261038e610395565b9190610a23565b60008061028e60017fc9ed16f33ab3a66c84bfd83099ccb2a8845871e2e1c1928f63797152f0fd54cd6110cb565b73ffffffffffffffffffffffffffffffffffffffff81161561044b5781547fffffffffffffffffffffffff00000000000000000000000000000000000000001673ffffffffffffffffffffffffffffffffffffffff821690811783556040516000907f8be0079c531659141344cd1fd0a4f28419497f9722a3daafe3b4186f6b6457e0908290a35b61030f7f7f5828d00000000000000000000000000000000000000000000000000000000060016104796105cb565b91906105f9565b60008061028e60017f0def758eb96c12015155889b8e63d1cb5c0dbce5585bbdf9d99ea353f56c716c6110cb565b81518151811461051f576040517f08c379a000000000000000000000000000000000000000000000000000000000815260206004820152601f60248201527f436865636b706f696e74733a2077726f6e67206172726179206c656e6774680060448201526064015b60405180910390fd5b60005b8181146105c457600083828151811061053d5761053d611105565b60200260200101519050806000146105bb57600085838151811061056357610563611105565b602090810291909101810151600081815289835260409081902085905580518281529283018590529092507f099ea97db121bdf4a102e67113e27b6bb74713015b32a5f0e1c3ea0d44fb2953910160405180910390a1505b50600101610522565b5050505050565b60008061028e60017fca9d3e17f264b0f3984e2634e94adb37fa3e6a8103f06aeae6fa59e21c769f5e6110cb565b7c01000000000000000000000000000000000000000000000000000000007fffffffff000000000000000000000000000000000000000000000000000000008316016106a1576040517f08c379a000000000000000000000000000000000000000000000000000000000815260206004820152601f60248201527f496e74657266616365446574656374696f6e3a2077726f6e672076616c7565006044820152606401610516565b7fffffffff00000000000000000000000000000000000000000000000000000000919091166000908152602092909252604090912080547fffffffffffffffffffffffffffffffffffffffffffffffffffffffffffffff0016911515919091179055565b60007c01000000000000000000000000000000000000000000000000000000007fffffffff000000000000000000000000000000000000000000000000000000008316016107555750600061028e565b7ffe003659000000000000000000000000000000000000000000000000000000007fffffffff000000000000000000000000000000000000000000000000000000008316016107a65750600161028e565b507fffffffff00000000000000000000000000000000000000000000000000000000166000908152602091909152604090205460ff1690565b60008181526020839052604081205480158015906107fd5750804210155b949350505050565b61080f82826107df565b61030f5761081c81610b50565b60405160200161082c9190611158565b604080517fffffffffffffffffffffffffffffffffffffffffffffffffffffffffffffffe0818403018152908290527f08c379a0000000000000000000000000000000000000000000000000000000008252610516916004016111c4565b3660006102c8610ce2565b61089f82826107df565b1561030f576108ad81610b50565b60405160200161082c9190611215565b6000610358610e4c565b815473ffffffffffffffffffffffffffffffffffffffff82811691161461030f576040517f08c379a000000000000000000000000000000000000000000000000000000000815260206004820152601860248201527f4f776e6572736869703a206e6f7420746865206f776e657200000000000000006044820152606401610516565b600082815260208490526040902054156109775761096782610b50565b60405160200161082c9190611281565b80156109c7576000828152602084815260409182902083905581518481529081018390527f099ea97db121bdf4a102e67113e27b6bb74713015b32a5f0e1c3ea0d44fb2953910160405180910390a15b505050565b6109d68282610895565b6000818152602083815260409182902042908190558251848152918201527f099ea97db121bdf4a102e67113e27b6bb74713015b32a5f0e1c3ea0d44fb2953910160405180910390a15050565b825473ffffffffffffffffffffffffffffffffffffffff9081169083168114610aa8576040517f08c379a000000000000000000000000000000000000000000000000000000000815260206004820152601860248201527f4f776e6572736869703a206e6f7420746865206f776e657200000000000000006044820152606401610516565b8173ffffffffffffffffffffffffffffffffffffffff168173ffffffffffffffffffffffffffffffffffffffff1614610b4a5783547fffffffffffffffffffffffff00000000000000000000000000000000000000001673ffffffffffffffffffffffffffffffffffffffff8381169182178655604051908316907f8be0079c531659141344cd1fd0a4f28419497f9722a3daafe3b4186f6b6457e090600090a35b50505050565b60606000829003610b6f57505060408051602081019091526000815290565b600082604051602001610b8491815260200190565b604080517fffffffffffffffffffffffffffffffffffffffffffffffffffffffffffffffe08184030181529190529050601f5b818181518110610bc957610bc9611105565b01602001517fff0000000000000000000000000000000000000000000000000000000000000016600003610c1e577fffffffffffffffffffffffffffffffffffffffffffffffffffffffffffffffff01610bb7565b60008160010167ffffffffffffffff811115610c3c57610c3c6112ed565b6040519080825280601f01601f191660200182016040528015610c66576020820181803683370190505b50905060005b828111610cd957838181518110610c8557610c85611105565b602001015160f81c60f81b828281518110610ca257610ca2611105565b60200101907effffffffffffffffffffffffffffffffffffffffffffffffffffffffffffff1916908160001a905350600101610c6c565b50949350505050565b36600033321480610cf35750601836105b15610d015750600091369150565b3373ffffffffffffffffffffffffffffffffffffffff7f0000000000000000000000000000000000000000000000000000000000000000161480610e36575073ffffffffffffffffffffffffffffffffffffffff7f000000000000000000000000000000000000000000000000000000000000000016638929a8ca367fffffffffffffffffffffffffffffffffffffffffffffffffffffffffffffffec013560601c6040517fffffffff0000000000000000000000000000000000000000000000000000000060e084901b16815273ffffffffffffffffffffffffffffffffffffffff9091166004820152336024820152604401602060405180830381865afa158015610e12573d6000803e3d6000fd5b505050506040513d601f19601f82011682018060405250810190610e36919061131c565b15610e43576102c8610f93565b50600091369150565b600033321480610e5c5750601836105b15610e6657503390565b7fffffffffffffffffffffffffffffffffffffffffffffffffffffffffffffffec36013560601c7f000000000000000000000000000000000000000000000000000000000000000073ffffffffffffffffffffffffffffffffffffffff16331480610f8257506040517f8929a8ca00000000000000000000000000000000000000000000000000000000815273ffffffffffffffffffffffffffffffffffffffff82811660048301523360248301527f00000000000000000000000000000000000000000000000000000000000000001690638929a8ca90604401602060405180830381865afa158015610f5e573d6000803e3d6000fd5b505050506040513d601f19601f82011682018060405250810190610f82919061131c565b15610f8c57919050565b3391505090565b3660006102c87fffffffffffffffffffffffffffffffffffffffffffffffffffffffffffffffec830182848161133e565b600060208284031215610fd657600080fd5b81357fffffffff000000000000000000000000000000000000000000000000000000008116811461100657600080fd5b9392505050565b60006020828403121561101f57600080fd5b5035919050565b60208152816020820152818360408301376000818301604090810191909152601f9092017fffffffffffffffffffffffffffffffffffffffffffffffffffffffffffffffe0160101919050565b6000806040838503121561108657600080fd5b50508035926020909101359150565b6000602082840312156110a757600080fd5b813573ffffffffffffffffffffffffffffffffffffffff8116811461100657600080fd5b8181038181111561028e577f4e487b7100000000000000000000000000000000000000000000000000000000600052601160045260246000fd5b7f4e487b7100000000000000000000000000000000000000000000000000000000600052603260045260246000fd5b60005b8381101561114f578181015183820152602001611137565b50506000910152565b7f436865636b706f696e74733a20636865636b706f696e74202700000000000000815260008251611190816019850160208701611134565b7f27206e6f742072656163686564207965740000000000000000000000000000006019939091019283015250602a01919050565b60208152600082518060208401526111e3816040850160208701611134565b601f017fffffffffffffffffffffffffffffffffffffffffffffffffffffffffffffffe0169190910160400192915050565b7f436865636b706f696e74733a20636865636b706f696e7420270000000000000081526000825161124d816019850160208701611134565b7f2720616c726561647920726561636865640000000000000000000000000000006019939091019283015250602a01919050565b7f436865636b706f696e74733a20636865636b706f696e742027000000000000008152600082516112b9816019850160208701611134565b7f2720616c726561647920736574000000000000000000000000000000000000006019939091019283015250602601919050565b7f4e487b7100000000000000000000000000000000000000000000000000000000600052604160045260246000fd5b60006020828403121561132e57600080fd5b8151801515811461100657600080fd5b6000808585111561134e57600080fd5b8386111561135b57600080fd5b505082019391909203915056fea2646970667358221220f5fa76eb7a0e6efd58154ed150497ed934da366c4a6e8e85079a15c1e67f755364736f6c63430008100033",
  "linkReferences": {},
  "deployedLinkReferences": {}
}