{
  "_format": "hh-sol-artifact-1",
  "contractName": "ERC1155FullMock",
  "sourceName": "contracts/mocks/token/ERC1155/preset/ERC1155FullMock.sol",
  "abi": [
    {
      "inputs": [
        {
          "internalType": "string",
          "name": "tokenName",
          "type": "string"
        },
        {
          "internalType": "string",
          "name": "tokenSymbol",
          "type": "string"
        },
        {
          "internalType": "contract ITokenMetadataResolver",
          "name": "metadataResolver",
          "type": "address"
        },
        {
          "internalType": "contract IOperatorFilterRegistry",
          "name": "filterRegistry",
          "type": "address"
        },
        {
          "internalType": "contract IForwarderRegistry",
          "name": "forwarderRegistry",
          "type": "address"
        }
      ],
      "stateMutability": "nonpayable",
      "type": "constructor"
    },
    {
      "inputs": [],
      "name": "ERC1155BalanceOfAddressZero",
      "type": "error"
    },
    {
      "inputs": [
        {
          "internalType": "address",
          "name": "recipient",
          "type": "address"
        },
        {
          "internalType": "uint256",
          "name": "id",
          "type": "uint256"
        },
        {
          "internalType": "uint256",
          "name": "balance",
          "type": "uint256"
        },
        {
          "internalType": "uint256",
          "name": "value",
          "type": "uint256"
        }
      ],
      "name": "ERC1155BalanceOverflow",
      "type": "error"
    },
    {
      "inputs": [
        {
          "internalType": "address",
          "name": "owner",
          "type": "address"
        },
        {
          "internalType": "uint256",
          "name": "id",
          "type": "uint256"
        },
        {
          "internalType": "uint256",
          "name": "balance",
          "type": "uint256"
        },
        {
          "internalType": "uint256",
          "name": "value",
          "type": "uint256"
        }
      ],
      "name": "ERC1155InsufficientBalance",
      "type": "error"
    },
    {
      "inputs": [],
      "name": "ERC1155MintToAddressZero",
      "type": "error"
    },
    {
      "inputs": [
        {
          "internalType": "address",
          "name": "sender",
          "type": "address"
        },
        {
          "internalType": "address",
          "name": "owner",
          "type": "address"
        }
      ],
      "name": "ERC1155NonApproved",
      "type": "error"
    },
    {
      "inputs": [
        {
          "internalType": "address",
          "name": "recipient",
          "type": "address"
        },
        {
          "internalType": "uint256[]",
          "name": "ids",
          "type": "uint256[]"
        },
        {
          "internalType": "uint256[]",
          "name": "values",
          "type": "uint256[]"
        }
      ],
      "name": "ERC1155SafeBatchTransferRejected",
      "type": "error"
    },
    {
      "inputs": [
        {
          "internalType": "address",
          "name": "recipient",
          "type": "address"
        },
        {
          "internalType": "uint256",
          "name": "id",
          "type": "uint256"
        },
        {
          "internalType": "uint256",
          "name": "value",
          "type": "uint256"
        }
      ],
      "name": "ERC1155SafeTransferRejected",
      "type": "error"
    },
    {
      "inputs": [
        {
          "internalType": "address",
          "name": "account",
          "type": "address"
        }
      ],
      "name": "ERC1155SelfApprovalForAll",
      "type": "error"
    },
    {
      "inputs": [],
      "name": "ERC1155TransferToAddressZero",
      "type": "error"
    },
    {
      "inputs": [
        {
          "internalType": "uint256",
          "name": "percentage",
          "type": "uint256"
        }
      ],
      "name": "ERC2981IncorrectRoyaltyPercentage",
      "type": "error"
    },
    {
      "inputs": [],
      "name": "ERC2981IncorrectRoyaltyReceiver",
      "type": "error"
    },
    {
      "inputs": [],
      "name": "IllegalInterfaceId",
      "type": "error"
    },
    {
      "inputs": [],
      "name": "InconsistentArrayLengths",
      "type": "error"
    },
    {
      "inputs": [
        {
          "internalType": "address",
          "name": "tokenContract",
          "type": "address"
        }
      ],
      "name": "IncorrectTokenContractType",
      "type": "error"
    },
    {
      "inputs": [
        {
          "internalType": "address",
          "name": "account",
          "type": "address"
        }
      ],
      "name": "NotContractOwner",
      "type": "error"
    },
    {
      "inputs": [
        {
          "internalType": "address",
          "name": "account",
          "type": "address"
        }
      ],
      "name": "NotMetadataResolver",
      "type": "error"
    },
    {
      "inputs": [
        {
          "internalType": "bytes32",
          "name": "role",
          "type": "bytes32"
        },
        {
          "internalType": "address",
          "name": "account",
          "type": "address"
        }
      ],
      "name": "NotRoleHolder",
      "type": "error"
    },
    {
      "inputs": [
        {
          "internalType": "address",
          "name": "operator",
          "type": "address"
        }
      ],
      "name": "OperatorNotAllowed",
      "type": "error"
    },
    {
      "anonymous": false,
      "inputs": [
        {
          "indexed": true,
          "internalType": "address",
          "name": "owner",
          "type": "address"
        },
        {
          "indexed": true,
          "internalType": "address",
          "name": "operator",
          "type": "address"
        },
        {
          "indexed": false,
          "internalType": "bool",
          "name": "approved",
          "type": "bool"
        }
      ],
      "name": "ApprovalForAll",
      "type": "event"
    },
    {
      "anonymous": false,
      "inputs": [
        {
          "indexed": true,
          "internalType": "address",
          "name": "previousOwner",
          "type": "address"
        },
        {
          "indexed": true,
          "internalType": "address",
          "name": "newOwner",
          "type": "address"
        }
      ],
      "name": "OwnershipTransferred",
      "type": "event"
    },
    {
      "anonymous": false,
      "inputs": [
        {
          "indexed": false,
          "internalType": "bytes32",
          "name": "role",
          "type": "bytes32"
        },
        {
          "indexed": false,
          "internalType": "address",
          "name": "account",
          "type": "address"
        },
        {
          "indexed": false,
          "internalType": "address",
          "name": "operator",
          "type": "address"
        }
      ],
      "name": "RoleGranted",
      "type": "event"
    },
    {
      "anonymous": false,
      "inputs": [
        {
          "indexed": false,
          "internalType": "bytes32",
          "name": "role",
          "type": "bytes32"
        },
        {
          "indexed": false,
          "internalType": "address",
          "name": "account",
          "type": "address"
        },
        {
          "indexed": false,
          "internalType": "address",
          "name": "operator",
          "type": "address"
        }
      ],
      "name": "RoleRevoked",
      "type": "event"
    },
    {
      "anonymous": false,
      "inputs": [
        {
          "indexed": true,
          "internalType": "address",
          "name": "operator",
          "type": "address"
        },
        {
          "indexed": true,
          "internalType": "address",
          "name": "from",
          "type": "address"
        },
        {
          "indexed": true,
          "internalType": "address",
          "name": "to",
          "type": "address"
        },
        {
          "indexed": false,
          "internalType": "uint256[]",
          "name": "ids",
          "type": "uint256[]"
        },
        {
          "indexed": false,
          "internalType": "uint256[]",
          "name": "values",
          "type": "uint256[]"
        }
      ],
      "name": "TransferBatch",
      "type": "event"
    },
    {
      "anonymous": false,
      "inputs": [
        {
          "indexed": true,
          "internalType": "address",
          "name": "operator",
          "type": "address"
        },
        {
          "indexed": true,
          "internalType": "address",
          "name": "from",
          "type": "address"
        },
        {
          "indexed": true,
          "internalType": "address",
          "name": "to",
          "type": "address"
        },
        {
          "indexed": false,
          "internalType": "uint256",
          "name": "id",
          "type": "uint256"
        },
        {
          "indexed": false,
          "internalType": "uint256",
          "name": "value",
          "type": "uint256"
        }
      ],
      "name": "TransferSingle",
      "type": "event"
    },
    {
      "anonymous": false,
      "inputs": [
        {
          "indexed": false,
          "internalType": "string",
          "name": "value",
          "type": "string"
        },
        {
          "indexed": true,
          "internalType": "uint256",
          "name": "id",
          "type": "uint256"
        }
      ],
      "name": "URI",
      "type": "event"
    },
    {
      "inputs": [],
      "name": "MINTER_ROLE",
      "outputs": [
        {
          "internalType": "bytes32",
          "name": "",
          "type": "bytes32"
        }
      ],
      "stateMutability": "view",
      "type": "function"
    },
    {
      "inputs": [],
      "name": "ROYALTY_FEE_DENOMINATOR",
      "outputs": [
        {
          "internalType": "uint256",
          "name": "",
          "type": "uint256"
        }
      ],
      "stateMutability": "view",
      "type": "function"
    },
    {
      "inputs": [],
      "name": "__msgData",
      "outputs": [
        {
          "internalType": "bytes",
          "name": "",
          "type": "bytes"
        }
      ],
      "stateMutability": "view",
      "type": "function"
    },
    {
      "inputs": [
        {
          "internalType": "address",
          "name": "owner",
          "type": "address"
        },
        {
          "internalType": "uint256",
          "name": "id",
          "type": "uint256"
        }
      ],
      "name": "balanceOf",
      "outputs": [
        {
          "internalType": "uint256",
          "name": "balance",
          "type": "uint256"
        }
      ],
      "stateMutability": "view",
      "type": "function"
    },
    {
      "inputs": [
        {
          "internalType": "address[]",
          "name": "owners",
          "type": "address[]"
        },
        {
          "internalType": "uint256[]",
          "name": "ids",
          "type": "uint256[]"
        }
      ],
      "name": "balanceOfBatch",
      "outputs": [
        {
          "internalType": "uint256[]",
          "name": "balances",
          "type": "uint256[]"
        }
      ],
      "stateMutability": "view",
      "type": "function"
    },
    {
      "inputs": [
        {
          "internalType": "uint256[]",
          "name": "tokenIds",
          "type": "uint256[]"
        },
        {
          "internalType": "string[]",
          "name": "tokenURIs",
          "type": "string[]"
        }
      ],
      "name": "batchSetTokenURI",
      "outputs": [],
      "stateMutability": "nonpayable",
      "type": "function"
    },
    {
      "inputs": [],
      "name": "forwarderRegistry",
      "outputs": [
        {
          "internalType": "contract IForwarderRegistry",
          "name": "",
          "type": "address"
        }
      ],
      "stateMutability": "view",
      "type": "function"
    },
    {
      "inputs": [
        {
          "internalType": "bytes32",
          "name": "role",
          "type": "bytes32"
        },
        {
          "internalType": "address",
          "name": "account",
          "type": "address"
        }
      ],
      "name": "grantRole",
      "outputs": [],
      "stateMutability": "nonpayable",
      "type": "function"
    },
    {
      "inputs": [
        {
          "internalType": "bytes32",
          "name": "role",
          "type": "bytes32"
        },
        {
          "internalType": "address",
          "name": "account",
          "type": "address"
        }
      ],
      "name": "hasRole",
      "outputs": [
        {
          "internalType": "bool",
          "name": "hasRole_",
          "type": "bool"
        }
      ],
      "stateMutability": "view",
      "type": "function"
    },
    {
      "inputs": [
        {
          "internalType": "address",
          "name": "owner",
          "type": "address"
        },
        {
          "internalType": "address",
          "name": "operator",
          "type": "address"
        }
      ],
      "name": "isApprovedForAll",
      "outputs": [
        {
          "internalType": "bool",
          "name": "approvedForAll",
          "type": "bool"
        }
      ],
      "stateMutability": "view",
      "type": "function"
    },
    {
      "inputs": [
        {
          "internalType": "address",
          "name": "forwarder",
          "type": "address"
        }
      ],
      "name": "isTrustedForwarder",
      "outputs": [
        {
          "internalType": "bool",
          "name": "",
          "type": "bool"
        }
      ],
      "stateMutability": "view",
      "type": "function"
    },
    {
      "inputs": [],
      "name": "metadataResolver",
      "outputs": [
        {
          "internalType": "contract ITokenMetadataResolver",
          "name": "tokenMetadataResolver",
          "type": "address"
        }
      ],
      "stateMutability": "view",
      "type": "function"
    },
    {
      "inputs": [],
      "name": "name",
      "outputs": [
        {
          "internalType": "string",
          "name": "tokenName",
          "type": "string"
        }
      ],
      "stateMutability": "view",
      "type": "function"
    },
    {
      "inputs": [],
      "name": "operatorFilterRegistry",
      "outputs": [
        {
          "internalType": "contract IOperatorFilterRegistry",
          "name": "",
          "type": "address"
        }
      ],
      "stateMutability": "view",
      "type": "function"
    },
    {
      "inputs": [],
      "name": "owner",
      "outputs": [
        {
          "internalType": "address",
          "name": "",
          "type": "address"
        }
      ],
      "stateMutability": "view",
      "type": "function"
    },
    {
      "inputs": [
        {
          "internalType": "address[]",
          "name": "accounts",
          "type": "address[]"
        },
        {
          "internalType": "contract IERC20[]",
          "name": "tokens",
          "type": "address[]"
        },
        {
          "internalType": "uint256[]",
          "name": "amounts",
          "type": "uint256[]"
        }
      ],
      "name": "recoverERC20s",
      "outputs": [],
      "stateMutability": "nonpayable",
      "type": "function"
    },
    {
      "inputs": [
        {
          "internalType": "address[]",
          "name": "accounts",
          "type": "address[]"
        },
        {
          "internalType": "contract IERC721[]",
          "name": "contracts",
          "type": "address[]"
        },
        {
          "internalType": "uint256[]",
          "name": "tokenIds",
          "type": "uint256[]"
        }
      ],
      "name": "recoverERC721s",
      "outputs": [],
      "stateMutability": "nonpayable",
      "type": "function"
    },
    {
      "inputs": [
        {
          "internalType": "address payable[]",
          "name": "accounts",
          "type": "address[]"
        },
        {
          "internalType": "uint256[]",
          "name": "amounts",
          "type": "uint256[]"
        }
      ],
      "name": "recoverETH",
      "outputs": [],
      "stateMutability": "nonpayable",
      "type": "function"
    },
    {
      "inputs": [
        {
          "internalType": "bytes32",
          "name": "role",
          "type": "bytes32"
        }
      ],
      "name": "renounceRole",
      "outputs": [],
      "stateMutability": "nonpayable",
      "type": "function"
    },
    {
      "inputs": [
        {
          "internalType": "bytes32",
          "name": "role",
          "type": "bytes32"
        },
        {
          "internalType": "address",
          "name": "account",
          "type": "address"
        }
      ],
      "name": "revokeRole",
      "outputs": [],
      "stateMutability": "nonpayable",
      "type": "function"
    },
    {
      "inputs": [
        {
          "internalType": "uint256",
          "name": "tokenId",
          "type": "uint256"
        },
        {
          "internalType": "uint256",
          "name": "salePrice",
          "type": "uint256"
        }
      ],
      "name": "royaltyInfo",
      "outputs": [
        {
          "internalType": "address",
          "name": "receiver",
          "type": "address"
        },
        {
          "internalType": "uint256",
          "name": "royaltyAmount",
          "type": "uint256"
        }
      ],
      "stateMutability": "view",
      "type": "function"
    },
    {
      "inputs": [
        {
          "internalType": "address",
          "name": "to",
          "type": "address"
        },
        {
          "internalType": "uint256[]",
          "name": "ids",
          "type": "uint256[]"
        },
        {
          "internalType": "uint256[]",
          "name": "values",
          "type": "uint256[]"
        },
        {
          "internalType": "bytes",
          "name": "data",
          "type": "bytes"
        }
      ],
      "name": "safeBatchMint",
      "outputs": [],
      "stateMutability": "nonpayable",
      "type": "function"
    },
    {
      "inputs": [
        {
          "internalType": "address",
          "name": "from",
          "type": "address"
        },
        {
          "internalType": "address",
          "name": "to",
          "type": "address"
        },
        {
          "internalType": "uint256[]",
          "name": "ids",
          "type": "uint256[]"
        },
        {
          "internalType": "uint256[]",
          "name": "values",
          "type": "uint256[]"
        },
        {
          "internalType": "bytes",
          "name": "data",
          "type": "bytes"
        }
      ],
      "name": "safeBatchTransferFrom",
      "outputs": [],
      "stateMutability": "nonpayable",
      "type": "function"
    },
    {
      "inputs": [
        {
          "internalType": "address[]",
          "name": "recipients",
          "type": "address[]"
        },
        {
          "internalType": "uint256[]",
          "name": "ids",
          "type": "uint256[]"
        },
        {
          "internalType": "uint256[]",
          "name": "values",
          "type": "uint256[]"
        },
        {
          "internalType": "bytes",
          "name": "data",
          "type": "bytes"
        }
      ],
      "name": "safeDeliver",
      "outputs": [],
      "stateMutability": "nonpayable",
      "type": "function"
    },
    {
      "inputs": [
        {
          "internalType": "address",
          "name": "to",
          "type": "address"
        },
        {
          "internalType": "uint256",
          "name": "id",
          "type": "uint256"
        },
        {
          "internalType": "uint256",
          "name": "value",
          "type": "uint256"
        },
        {
          "internalType": "bytes",
          "name": "data",
          "type": "bytes"
        }
      ],
      "name": "safeMint",
      "outputs": [],
      "stateMutability": "nonpayable",
      "type": "function"
    },
    {
      "inputs": [
        {
          "internalType": "address",
          "name": "from",
          "type": "address"
        },
        {
          "internalType": "address",
          "name": "to",
          "type": "address"
        },
        {
          "internalType": "uint256",
          "name": "id",
          "type": "uint256"
        },
        {
          "internalType": "uint256",
          "name": "value",
          "type": "uint256"
        },
        {
          "internalType": "bytes",
          "name": "data",
          "type": "bytes"
        }
      ],
      "name": "safeTransferFrom",
      "outputs": [],
      "stateMutability": "nonpayable",
      "type": "function"
    },
    {
      "inputs": [
        {
          "internalType": "address",
          "name": "operator",
          "type": "address"
        },
        {
          "internalType": "bool",
          "name": "approved",
          "type": "bool"
        }
      ],
      "name": "setApprovalForAll",
      "outputs": [],
      "stateMutability": "nonpayable",
      "type": "function"
    },
    {
      "inputs": [
        {
          "internalType": "uint256",
          "name": "percentage",
          "type": "uint256"
        }
      ],
      "name": "setRoyaltyPercentage",
      "outputs": [],
      "stateMutability": "nonpayable",
      "type": "function"
    },
    {
      "inputs": [
        {
          "internalType": "address",
          "name": "receiver",
          "type": "address"
        }
      ],
      "name": "setRoyaltyReceiver",
      "outputs": [],
      "stateMutability": "nonpayable",
      "type": "function"
    },
    {
      "inputs": [
        {
          "internalType": "uint256",
          "name": "tokenId",
          "type": "uint256"
        },
        {
          "internalType": "string",
          "name": "tokenURI",
          "type": "string"
        }
      ],
      "name": "setTokenURI",
      "outputs": [],
      "stateMutability": "nonpayable",
      "type": "function"
    },
    {
      "inputs": [
        {
          "internalType": "bytes4",
          "name": "interfaceId",
          "type": "bytes4"
        }
      ],
      "name": "supportsInterface",
      "outputs": [
        {
          "internalType": "bool",
          "name": "",
          "type": "bool"
        }
      ],
      "stateMutability": "view",
      "type": "function"
    },
    {
      "inputs": [],
      "name": "symbol",
      "outputs": [
        {
          "internalType": "string",
          "name": "tokenSymbol",
          "type": "string"
        }
      ],
      "stateMutability": "view",
      "type": "function"
    },
    {
      "inputs": [
        {
          "internalType": "address",
          "name": "newOwner",
          "type": "address"
        }
      ],
      "name": "transferOwnership",
      "outputs": [],
      "stateMutability": "nonpayable",
      "type": "function"
    },
    {
      "inputs": [
        {
          "internalType": "contract IOperatorFilterRegistry",
          "name": "registry",
          "type": "address"
        }
      ],
      "name": "updateOperatorFilterRegistry",
      "outputs": [],
      "stateMutability": "nonpayable",
      "type": "function"
    },
    {
      "inputs": [
        {
          "internalType": "uint256",
          "name": "tokenId",
          "type": "uint256"
        }
      ],
      "name": "uri",
      "outputs": [
        {
          "internalType": "string",
          "name": "metadataURI",
          "type": "string"
        }
      ],
      "stateMutability": "view",
      "type": "function"
    }
  ],
  "bytecode": "0x60a060405234801561001057600080fd5b506040516145fc3803806145fc83398101604081905261002f916103e8565b84848484848080868686863361004d816100476100d8565b9061010c565b50610056610182565b61008081610062610199565b9081546001600160a01b0319166001600160a01b0391909116179055565b5061009783838361008f6101c7565b9291906101f5565b61009f610238565b506100ab91505061024d565b6100b3610262565b6100bb610277565b6001600160a01b0316608052506105f29950505050505050505050565b60008061010660017fc9ed16f33ab3a66c84bfd83099ccb2a8845871e2e1c1928f63797152f0fd54cd610487565b92915050565b6001600160a01b038116156101625781546001600160a01b0319166001600160a01b03821690811783556040516000907f8be0079c531659141344cd1fd0a4f28419497f9722a3daafe3b4186f6b6457e0908290a35b61017e6307f5828d60e41b6001610177610288565b91906102b6565b5050565b610197636cdb3d1360e11b6001610177610288565b565b60008061010660017f609b85bcafa81ecfaf3ff62cdde2c6c9082a68dbe4922f07399c706bdeb7cd31610487565b60008061010660017f7ea68fd2dcf1c056b94db6a0a537aa80d26fa9ab1eacd85da1ba0b61b7e7a8a5610487565b836102008482610533565b506001840161020f8382610533565b5060029390930180546001600160a01b0319166001600160a01b03909416939093179092555050565b6101976303a24d0760e21b6001610177610288565b610197631464324b60e21b6001610177610288565b610197633a2ae73360e21b6001610177610288565b61019763152a902d60e11b60016101775b60008061010660017fca9d3e17f264b0f3984e2634e94adb37fa3e6a8103f06aeae6fa59e21c769f5e610487565b600160e01b6001600160e01b03198316016102e4576040516372c683bb60e01b815260040160405180910390fd5b6001600160e01b03199190911660009081526020929092526040909120805460ff1916911515919091179055565b634e487b7160e01b600052604160045260246000fd5b600082601f83011261033957600080fd5b81516001600160401b038082111561035357610353610312565b604051601f8301601f19908116603f0116810190828211818310171561037b5761037b610312565b816040528381526020925086602085880101111561039857600080fd5b600091505b838210156103ba578582018301518183018401529082019061039d565b6000602085830101528094505050505092915050565b6001600160a01b03811681146103e557600080fd5b50565b600080600080600060a0868803121561040057600080fd5b85516001600160401b038082111561041757600080fd5b61042389838a01610328565b9650602088015191508082111561043957600080fd5b5061044688828901610328565b9450506040860151610457816103d0565b6060870151909350610468816103d0565b6080870151909250610479816103d0565b809150509295509295909350565b8181038181111561010657634e487b7160e01b600052601160045260246000fd5b600181811c908216806104bc57607f821691505b6020821081036104dc57634e487b7160e01b600052602260045260246000fd5b50919050565b601f82111561052e576000816000526020600020601f850160051c8101602086101561050b5750805b601f850160051c820191505b8181101561052a57828155600101610517565b5050505b505050565b81516001600160401b0381111561054c5761054c610312565b6105608161055a84546104a8565b846104e2565b602080601f831160018114610595576000841561057d5750858301515b600019600386901b1c1916600185901b17855561052a565b600085815260208120601f198616915b828110156105c4578886015182559484019460019091019084016105a5565b50858210156105e25787850151600019600388901b60f8161c191681555b5050505050600190811b01905550565b608051613fcc61063060003960008181610332015281816103e301528181612835015281816128c301528181612e8e0152612ecc0152613fcc6000f3fe608060405234801561001057600080fd5b50600436106102405760003560e01c806373c8a95811610145578063c3666c36116100bd578063e8ab9ccc1161008c578063f242432a11610071578063f242432a14610555578063f2fde38b14610568578063f7ba94bd1461057b57600080fd5b8063e8ab9ccc1461052f578063e985e9c51461054257600080fd5b8063c3666c36146104d8578063d5391393146104eb578063d547741f14610512578063e1a8bf2c1461052557600080fd5b806391d1485411610114578063a0c76f62116100f9578063a0c76f62146104b5578063a22cb465146104bd578063b0ccc31e146104d057600080fd5b806391d148541461049a57806395d89b41146104ad57600080fd5b806373c8a958146104595780638bb9c5bf1461046c5780638da5cb5b1461047f5780638dc251e31461048757600080fd5b80632b4c9f16116101d85780634e1273f4116101a75780635cfa92971161018c5780635cfa92971461042057806361ba27da146104335780636706467b1461044657600080fd5b80634e1273f4146103b3578063572b6c05146103d357600080fd5b80632b4c9f16146103305780632eb2c2d6146103775780632f2ff15d1461038a57806331e66e1e1461039d57600080fd5b80630e89341c116102145780630e89341c146102b8578063114ba8ee146102cb578063162094c4146102de5780632a55205a146102f157600080fd5b8062fdd58e1461024557806301ffc9a71461026b57806306fdde031461028e5780630d6a5bbb146102a3575b600080fd5b6102586102533660046133b8565b61058e565b6040519081526020015b60405180910390f35b61027e610279366004613412565b6105ad565b6040519015158152602001610262565b6102966105c1565b60405161026291906134a4565b6102b66102b136600461353e565b6105d8565b005b6102966102c63660046135eb565b6106d3565b6102b66102d9366004613604565b6106e9565b6102b66102ec366004613621565b610754565b6103046102ff36600461366d565b610826565b6040805173ffffffffffffffffffffffffffffffffffffffff9093168352602083019190915201610262565b7f00000000000000000000000000000000000000000000000000000000000000005b60405173ffffffffffffffffffffffffffffffffffffffff9091168152602001610262565b6102b661038536600461368f565b610849565b6102b661039836600461374e565b610896565b6103a56108c9565b6040516102629291906137c7565b6103c66103c13660046137db565b6108dc565b6040516102629190613883565b61027e6103e1366004613604565b7f000000000000000000000000000000000000000000000000000000000000000073ffffffffffffffffffffffffffffffffffffffff90811691161490565b6102b661042e366004613896565b610901565b6102b66104413660046135eb565b610993565b6102b66104543660046137db565b6109b0565b6102b6610467366004613900565b610ae8565b6102b661047a3660046135eb565b610bd4565b610352610bef565b6102b6610495366004613604565b610c16565b61027e6104a836600461374e565b610c33565b610296610c77565b610352610c89565b6102b66104cb3660046139a8565b610c96565b610352610ccf565b6102b66104e6366004613900565b610cdc565b6102587f6d696e746572000000000000000000000000000000000000000000000000000081565b6102b661052036600461374e565b610f7d565b610258620186a081565b6102b661053d3660046139d6565b610fab565b61027e610550366004613a79565b6110c5565b6102b6610563366004613aa7565b611113565b6102b6610576366004613604565b611153565b6102b66105893660046137db565b61116e565b60006105a4838361059d611225565b9190611253565b90505b92915050565b60006105a7826105bb6112d7565b90611305565b60606105d36105ce6113df565b61140d565b905090565b60006105e26114a3565b90506106187f6d696e7465720000000000000000000000000000000000000000000000000000826106116114ad565b91906114db565b6106c9818989898080602002602001604051908101604052809392919081815260200183836020028082843760009201919091525050604080516020808d0282810182019093528c82529093508c92508b91829185019084908082843760009201919091525050604080516020601f8c018190048102820181019092528a815292508a91508990819084018382808284376000920191909152506106bf9250611225915050565b9493929190611561565b5050505050505050565b60606105a730836106e26113df565b91906116e7565b6107026106f46114a3565b6106fc6117a7565b906117d5565b6107518161070e611840565b9081547fffffffffffffffffffffffff00000000000000000000000000000000000000001673ffffffffffffffffffffffffffffffffffffffff91909116179055565b50565b61077c61075f6113df565b6002015473ffffffffffffffffffffffffffffffffffffffff1690565b73ffffffffffffffffffffffffffffffffffffffff163373ffffffffffffffffffffffffffffffffffffffff16146107e7576040517f220606710000000000000000000000000000000000000000000000000000000081523360048201526024015b60405180910390fd5b827f6bb7ff708619ba0610cba295a58592e0451dee2622938c8755667688daf3529b83836040516108199291906137c7565b60405180910390a2505050565b60008061083d84846108366118b0565b91906118de565b915091505b9250929050565b60006108536114a3565b9050610869818a610862611840565b9190611988565b61088b818a8a8a8a8a8a8a8a61087d611225565b9897969594939291906119c5565b505050505050505050565b60006108a06114a3565b90506108ae816106fc6117a7565b6108c48383836108bc6114ad565b929190611c4e565b505050565b3660006108d4611d25565b915091509091565b60606108f6858585856108ed611225565b93929190611d30565b90505b949350505050565b600061090b6114a3565b905061093a7f6d696e7465720000000000000000000000000000000000000000000000000000826106116114ad565b61098b8187878787878080601f0160208091040260200160405190810160405280939291908181526020018383808284376000920191909152506109819250611225915050565b9493929190611e3f565b505050505050565b61099e6106f46114a3565b610751816109aa6118b0565b90611f1d565b8281146109e9576040517f6582533600000000000000000000000000000000000000000000000000000000815260040160405180910390fd5b6109f461075f6113df565b73ffffffffffffffffffffffffffffffffffffffff163373ffffffffffffffffffffffffffffffffffffffff1614610a5a576040517f220606710000000000000000000000000000000000000000000000000000000081523360048201526024016107de565b60005b83811015610ae157848482818110610a7757610a77613b11565b905060200201357f6bb7ff708619ba0610cba295a58592e0451dee2622938c8755667688daf3529b848484818110610ab157610ab1613b11565b9050602002810190610ac39190613b40565b604051610ad19291906137c7565b60405180910390a2600101610a5d565b5050505050565b610af36106f46114a3565b848381141580610b035750808214155b15610b3a576040517f6582533600000000000000000000000000000000000000000000000000000000815260040160405180910390fd5b60005b818110156106c957610bcc888883818110610b5a57610b5a613b11565b9050602002016020810190610b6f9190613604565b858584818110610b8157610b81613b11565b90506020020135888885818110610b9a57610b9a613b11565b9050602002016020810190610baf9190613604565b73ffffffffffffffffffffffffffffffffffffffff169190611fa3565b600101610b3d565b610751610bdf6114a3565b82610be86114ad565b9190612030565b60006105d3610bfc6117a7565b5473ffffffffffffffffffffffffffffffffffffffff1690565b610c216106f46114a3565b61075181610c2d6118b0565b906120d4565b60006105a48383610c426114ad565b60009283526020908152604080842073ffffffffffffffffffffffffffffffffffffffff909316845291905290205460ff1690565b60606105d3610c846113df565b612121565b60006105d361075f6113df565b8015610cae57610cae82610ca8611840565b90612132565b610ccb610cb96114a3565b8383610cc3611225565b92919061213c565b5050565b60006105d3610bfc611840565b610ce76106f46114a3565b848381141580610cf75750808214155b15610d2e576040517f6582533600000000000000000000000000000000000000000000000000000000815260040160405180910390fd5b60005b818110156106c9576000868683818110610d4d57610d4d613b11565b9050602002016020810190610d629190613604565b6040517f01ffc9a70000000000000000000000000000000000000000000000000000000081527f80ac58cd00000000000000000000000000000000000000000000000000000000600482015290915073ffffffffffffffffffffffffffffffffffffffff8216906301ffc9a790602401602060405180830381865afa158015610def573d6000803e3d6000fd5b505050506040513d601f19601f82011682018060405250810190610e139190613ba5565b610e61576040517f986b9f1f00000000000000000000000000000000000000000000000000000000815273ffffffffffffffffffffffffffffffffffffffff821660048201526024016107de565b868683818110610e7357610e73613b11565b9050602002016020810190610e889190613604565b73ffffffffffffffffffffffffffffffffffffffff166342842e0e308b8b86818110610eb657610eb6613b11565b9050602002016020810190610ecb9190613604565b888887818110610edd57610edd613b11565b6040517fffffffff0000000000000000000000000000000000000000000000000000000060e088901b16815273ffffffffffffffffffffffffffffffffffffffff958616600482015294909316602485015250602090910201356044820152606401600060405180830381600087803b158015610f5957600080fd5b505af1158015610f6d573d6000803e3d6000fd5b5050505050806001019050610d31565b6000610f876114a3565b9050610f95816106fc6117a7565b6108c4838383610fa36114ad565b929190612254565b6000610fb56114a3565b9050610fe47f6d696e7465720000000000000000000000000000000000000000000000000000826106116114ad565b61088b818a8a8080602002602001604051908101604052809392919081815260200183836020028082843760009201919091525050604080516020808e0282810182019093528d82529093508d92508c91829185019084908082843760009201919091525050604080516020808d0282810182019093528c82529093508c92508b91829185019084908082843760009201919091525050604080516020601f8c018190048102820181019092528a815292508a91508990819084018382808284376000920191909152506110bb9250611225915050565b949392919061231e565b60006105a483836110d4611225565b919073ffffffffffffffffffffffffffffffffffffffff9182166000908152600193909301602090815260408085209290931684525290205460ff1690565b600061111d6114a3565b905061112c8188610862611840565b61114a8188888888888861113e611225565b969594939291906123e1565b50505050505050565b61075161115e6114a3565b826111676117a7565b9190612584565b6111796106f46114a3565b828181146111b3576040517f6582533600000000000000000000000000000000000000000000000000000000815260040160405180910390fd5b60005b8181101561098b5761121d8484838181106111d3576111d3613b11565b905060200201358787848181106111ec576111ec613b11565b90506020020160208101906112019190613604565b73ffffffffffffffffffffffffffffffffffffffff1690612698565b6001016111b6565b6000806105a760017f5ccf5846fa27a68fafc8e588671a68f5e67c2f9b56af4263806a4d71735e8613613bf1565b600073ffffffffffffffffffffffffffffffffffffffff83166112a2576040517fca2434a500000000000000000000000000000000000000000000000000000000815260040160405180910390fd5b5060009081526020928352604080822073ffffffffffffffffffffffffffffffffffffffff9390931682529190925290205490565b6000806105a760017fca9d3e17f264b0f3984e2634e94adb37fa3e6a8103f06aeae6fa59e21c769f5e613bf1565b60007c01000000000000000000000000000000000000000000000000000000007fffffffff00000000000000000000000000000000000000000000000000000000831601611355575060006105a7565b7ffe003659000000000000000000000000000000000000000000000000000000007fffffffff000000000000000000000000000000000000000000000000000000008316016113a6575060016105a7565b507fffffffff00000000000000000000000000000000000000000000000000000000166000908152602091909152604090205460ff1690565b6000806105a760017f7ea68fd2dcf1c056b94db6a0a537aa80d26fa9ab1eacd85da1ba0b61b7e7a8a5613bf1565b606081600001805461141e90613c04565b80601f016020809104026020016040519081016040528092919081815260200182805461144a90613c04565b80156114975780601f1061146c57610100808354040283529160200191611497565b820191906000526020600020905b81548152906001019060200180831161147a57829003601f168201915b50505050509050919050565b60006105d36127f2565b6000806105a760017fc8827d3282af6f37b64c3e9e6f3ac9df286ab0bb0fccd6f8661bf19adb368b23613bf1565b60008281526020848152604080832073ffffffffffffffffffffffffffffffffffffffff8516845290915290205460ff166108c4576040517f7aa728820000000000000000000000000000000000000000000000000000000081526004810183905273ffffffffffffffffffffffffffffffffffffffff821660248201526044016107de565b73ffffffffffffffffffffffffffffffffffffffff84166115ae576040517f021149bd00000000000000000000000000000000000000000000000000000000815260040160405180910390fd5b8251825181146115ea576040517f6582533600000000000000000000000000000000000000000000000000000000815260040160405180910390fd5b60005b8181101561163b57611633888787848151811061160c5761160c613b11565b602002602001015187858151811061162657611626613b11565b602002602001015161293f565b6001016115ed565b508473ffffffffffffffffffffffffffffffffffffffff16600073ffffffffffffffffffffffffffffffffffffffff168773ffffffffffffffffffffffffffffffffffffffff167f4a39dc06d4c0dbc64b70af90fd698a233a518aa5d07e595d983b8c0526c8f7fb87876040516116b3929190613c57565b60405180910390a473ffffffffffffffffffffffffffffffffffffffff85163b1561114a5761114a86600087878787612a10565b60028301546040517ff724dad700000000000000000000000000000000000000000000000000000000815273ffffffffffffffffffffffffffffffffffffffff848116600483015260248201849052606092169063f724dad790604401600060405180830381865afa158015611761573d6000803e3d6000fd5b505050506040513d6000823e601f3d9081017fffffffffffffffffffffffffffffffffffffffffffffffffffffffffffffffe01682016040526108f99190810190613cb4565b6000806105a760017fc9ed16f33ab3a66c84bfd83099ccb2a8845871e2e1c1928f63797152f0fd54cd613bf1565b815473ffffffffffffffffffffffffffffffffffffffff828116911614610ccb576040517f2ef4875e00000000000000000000000000000000000000000000000000000000815273ffffffffffffffffffffffffffffffffffffffff821660048201526024016107de565b6000806105a760017f609b85bcafa81ecfaf3ff62cdde2c6c9082a68dbe4922f07399c706bdeb7cd31613bf1565b81547fffffffffffffffffffffffff00000000000000000000000000000000000000001673ffffffffffffffffffffffffffffffffffffffff91909116179055565b6000806105a760017f2c0cf10337caabbd02dcf226f05f5fd19a0919a41a8df8958c39b80007826858613bf1565b825473ffffffffffffffffffffffffffffffffffffffff8116906000907401000000000000000000000000000000000000000090046bffffffffffffffffffffffff1683158061192c575080155b1561193a576000915061197f565b620186a084101561196457620186a06119538286613d74565b61195d9190613d8b565b915061197f565b80611972620186a086613d8b565b61197c9190613d74565b91505b50935093915050565b8073ffffffffffffffffffffffffffffffffffffffff168273ffffffffffffffffffffffffffffffffffffffff16146108c4576108c48383612b0e565b73ffffffffffffffffffffffffffffffffffffffff8716611a12576040517fb5e8901500000000000000000000000000000000000000000000000000000000815260040160405180910390fd5b84838114611a4c576040517f6582533600000000000000000000000000000000000000000000000000000000815260040160405180910390fd5b611a578b8a8c612c35565b611aad576040517f05bbb9c400000000000000000000000000000000000000000000000000000000815273ffffffffffffffffffffffffffffffffffffffff808c1660048301528a1660248201526044016107de565b60005b81811015611afd57611af58c8b8b8b8b86818110611ad057611ad0613b11565b905060200201358a8a87818110611ae957611ae9613b11565b90506020020135612caa565b600101611ab0565b508773ffffffffffffffffffffffffffffffffffffffff168973ffffffffffffffffffffffffffffffffffffffff168b73ffffffffffffffffffffffffffffffffffffffff167f4a39dc06d4c0dbc64b70af90fd698a233a518aa5d07e595d983b8c0526c8f7fb8a8a8a8a604051611b789493929190613e11565b60405180910390a473ffffffffffffffffffffffffffffffffffffffff88163b15611c4157611c418a8a8a8a8a8080602002602001604051908101604052809392919081815260200183836020028082843760009201919091525050604080516020808e0282810182019093528d82529093508d92508c91829185019084908082843760009201919091525050604080516020601f8d018190048102820181019092528b815292508b91508a9081908401838280828437600092019190915250612a1092505050565b5050505050505050505050565b60008381526020858152604080832073ffffffffffffffffffffffffffffffffffffffff8616845290915290205460ff16611d1f5760008381526020858152604080832073ffffffffffffffffffffffffffffffffffffffff8681168086529184529382902080547fffffffffffffffffffffffffffffffffffffffffffffffffffffffffffffff00166001179055815187815292830152918316918101919091527f2f8788117e7eff1d82e926ec794901d17c78024a50270940304540a733656f0d906060015b60405180910390a15b50505050565b3660006108d4612e57565b606083828114611d6c576040517f6582533600000000000000000000000000000000000000000000000000000000815260040160405180910390fd5b8467ffffffffffffffff811115611d8557611d85613c85565b604051908082528060200260200182016040528015611dae578160200160208202803683370190505b50915060005b81811015611e3457611e0f878783818110611dd157611dd1613b11565b9050602002016020810190611de69190613604565b868684818110611df857611df8613b11565b905060200201358a6112539092919063ffffffff16565b838281518110611e2157611e21613b11565b6020908102919091010152600101611db4565b505095945050505050565b73ffffffffffffffffffffffffffffffffffffffff8416611e8c576040517f021149bd00000000000000000000000000000000000000000000000000000000815260040160405180910390fd5b611e988685858561293f565b604080518481526020810184905273ffffffffffffffffffffffffffffffffffffffff80871692600092918916917fc3d58168c5ae7397731d063d5bbf3d657854427343f4c083240f7aacaa2d0f62910160405180910390a473ffffffffffffffffffffffffffffffffffffffff84163b1561098b5761098b85600086868686612fc7565b620186a0811115611f5d576040517fac040408000000000000000000000000000000000000000000000000000000008152600481018290526024016107de565b81546bffffffffffffffffffffffff909116740100000000000000000000000000000000000000000273ffffffffffffffffffffffffffffffffffffffff909116179055565b6040805173ffffffffffffffffffffffffffffffffffffffff8416602482015260448082018490528251808303909101815260649091019091526020810180517bffffffffffffffffffffffffffffffffffffffffffffffffffffffff167fa9059cbb000000000000000000000000000000000000000000000000000000001790526108c49084906130e5565b61203b8382846114db565b60008181526020848152604080832073ffffffffffffffffffffffffffffffffffffffff86168085529083529281902080547fffffffffffffffffffffffffffffffffffffffffffffffffffffffffffffff0016905580518481529182018390528101919091527ff6391f5c32d9c69d2a47ea670b442974b53935d1edc7fd64eb21e047a839171b9060600160405180910390a1505050565b73ffffffffffffffffffffffffffffffffffffffff811661186e576040517f16de0c8000000000000000000000000000000000000000000000000000000000815260040160405180910390fd5b606081600101805461141e90613c04565b610ccb8282612b0e565b8273ffffffffffffffffffffffffffffffffffffffff168273ffffffffffffffffffffffffffffffffffffffff16036121b9576040517ffb0fdf6100000000000000000000000000000000000000000000000000000000815273ffffffffffffffffffffffffffffffffffffffff841660048201526024016107de565b73ffffffffffffffffffffffffffffffffffffffff838116600081815260018701602090815260408083209487168084529482529182902080547fffffffffffffffffffffffffffffffffffffffffffffffffffffffffffffff001686151590811790915591519182527f17307eab39ab6107e8899845ad3d59bd9653f200f220920489ca2b5937696c31910160405180910390a350505050565b60008381526020858152604080832073ffffffffffffffffffffffffffffffffffffffff8616845290915290205460ff1615611d1f5760008381526020858152604080832073ffffffffffffffffffffffffffffffffffffffff8681168086529184529382902080547fffffffffffffffffffffffffffffffffffffffffffffffffffffffffffffff00169055815187815292830152918316918101919091527ff6391f5c32d9c69d2a47ea670b442974b53935d1edc7fd64eb21e047a839171b90606001611d16565b8351835181141580612331575082518114155b15612368576040517f6582533600000000000000000000000000000000000000000000000000000000815260040160405180910390fd5b60005b818110156106c9576123d98787838151811061238957612389613b11565b60200260200101518784815181106123a3576123a3613b11565b60200260200101518785815181106123bd576123bd613b11565b6020026020010151878d611e3f9095949392919063ffffffff16565b60010161236b565b73ffffffffffffffffffffffffffffffffffffffff851661242e576040517fb5e8901500000000000000000000000000000000000000000000000000000000815260040160405180910390fd5b612439888789612c35565b61248f576040517f05bbb9c400000000000000000000000000000000000000000000000000000000815273ffffffffffffffffffffffffffffffffffffffff8089166004830152871660248201526044016107de565b61249c8887878787612caa565b8473ffffffffffffffffffffffffffffffffffffffff168673ffffffffffffffffffffffffffffffffffffffff168873ffffffffffffffffffffffffffffffffffffffff167fc3d58168c5ae7397731d063d5bbf3d657854427343f4c083240f7aacaa2d0f62878760405161251b929190918252602082015260400190565b60405180910390a473ffffffffffffffffffffffffffffffffffffffff85163b156106c9576106c9878787878787878080601f016020809104026020016040519081016040528093929190818152602001838380828437600092019190915250612fc792505050565b825473ffffffffffffffffffffffffffffffffffffffff90811690831681146125f1576040517f2ef4875e00000000000000000000000000000000000000000000000000000000815273ffffffffffffffffffffffffffffffffffffffff841660048201526024016107de565b8173ffffffffffffffffffffffffffffffffffffffff168173ffffffffffffffffffffffffffffffffffffffff1614611d1f5783547fffffffffffffffffffffffff00000000000000000000000000000000000000001673ffffffffffffffffffffffffffffffffffffffff8381169182178655604051908316907f8be0079c531659141344cd1fd0a4f28419497f9722a3daafe3b4186f6b6457e090600090a350505050565b80471015612702576040517f08c379a000000000000000000000000000000000000000000000000000000000815260206004820152601d60248201527f416464726573733a20696e73756666696369656e742062616c616e636500000060448201526064016107de565b60008273ffffffffffffffffffffffffffffffffffffffff168260405160006040518083038185875af1925050503d806000811461275c576040519150601f19603f3d011682016040523d82523d6000602084013e612761565b606091505b50509050806108c4576040517f08c379a000000000000000000000000000000000000000000000000000000000815260206004820152603a60248201527f416464726573733a20756e61626c6520746f2073656e642076616c75652c207260448201527f6563697069656e74206d6179206861766520726576657274656400000000000060648201526084016107de565b6000333214806128025750601836105b1561280c57503390565b7fffffffffffffffffffffffffffffffffffffffffffffffffffffffffffffffec36013560601c7f000000000000000000000000000000000000000000000000000000000000000073ffffffffffffffffffffffffffffffffffffffff1633148061292e57506040517f019a202800000000000000000000000000000000000000000000000000000000815273ffffffffffffffffffffffffffffffffffffffff82811660048301523360248301523060448301527f0000000000000000000000000000000000000000000000000000000000000000169063019a202890606401602060405180830381865afa15801561290a573d6000803e3d6000fd5b505050506040513d601f19601f8201168201806040525081019061292e9190613ba5565b1561293857919050565b3391505090565b8015611d1f5760008281526020858152604080832073ffffffffffffffffffffffffffffffffffffffff871684529091529020548181018181116129dc576040517f42fb00bc00000000000000000000000000000000000000000000000000000000815273ffffffffffffffffffffffffffffffffffffffff861660048201526024810185905260448101839052606481018490526084016107de565b60009384526020958652604080852073ffffffffffffffffffffffffffffffffffffffff9690961685529490955250502055565b6040517fbc197c81000000000000000000000000000000000000000000000000000000008082529073ffffffffffffffffffffffffffffffffffffffff86169063bc197c8190612a6c908a908a90899089908990600401613e38565b6020604051808303816000875af1158015612a8b573d6000803e3d6000fd5b505050506040513d601f19601f82011682018060405250810190612aaf9190613ea3565b7fffffffff00000000000000000000000000000000000000000000000000000000161461098b578383836040517fc287817e0000000000000000000000000000000000000000000000000000000081526004016107de93929190613ec0565b815473ffffffffffffffffffffffffffffffffffffffff168015801590612b4c575060008173ffffffffffffffffffffffffffffffffffffffff163b115b156108c4576040517fc617113400000000000000000000000000000000000000000000000000000000815230600482015273ffffffffffffffffffffffffffffffffffffffff838116602483015282169063c617113490604401602060405180830381865afa158015612bc3573d6000803e3d6000fd5b505050506040513d601f19601f82011682018060405250810190612be79190613ba5565b6108c4576040517fede71dcc00000000000000000000000000000000000000000000000000000000815273ffffffffffffffffffffffffffffffffffffffff831660048201526024016107de565b60008173ffffffffffffffffffffffffffffffffffffffff168373ffffffffffffffffffffffffffffffffffffffff1614806108f957505073ffffffffffffffffffffffffffffffffffffffff9182166000908152600193909301602090815260408085209290931684525290205460ff1690565b8015610ae15760008281526020868152604080832073ffffffffffffffffffffffffffffffffffffffff88168452909152902054818103818110612d47576040517f03dee4c500000000000000000000000000000000000000000000000000000000815273ffffffffffffffffffffffffffffffffffffffff871660048201526024810185905260448101839052606481018490526084016107de565b8473ffffffffffffffffffffffffffffffffffffffff168673ffffffffffffffffffffffffffffffffffffffff161461114a5760008481526020888152604080832073ffffffffffffffffffffffffffffffffffffffff89168452909152902054838101818111612e11576040517f42fb00bc00000000000000000000000000000000000000000000000000000000815273ffffffffffffffffffffffffffffffffffffffff881660048201526024810187905260448101839052606481018690526084016107de565b600086815260208a8152604080832073ffffffffffffffffffffffffffffffffffffffff808d1685528184528285208890558b1684529091529020555050505050505050565b36600033321480612e685750601836105b15612e765750600091369150565b3373ffffffffffffffffffffffffffffffffffffffff7f0000000000000000000000000000000000000000000000000000000000000000161480612fb1575073ffffffffffffffffffffffffffffffffffffffff7f00000000000000000000000000000000000000000000000000000000000000001663019a2028367fffffffffffffffffffffffffffffffffffffffffffffffffffffffffffffffec013560601c6040517fffffffff0000000000000000000000000000000000000000000000000000000060e084901b16815273ffffffffffffffffffffffffffffffffffffffff9091166004820152336024820152306044820152606401602060405180830381865afa158015612f8d573d6000803e3d6000fd5b505050506040513d601f19601f82011682018060405250810190612fb19190613ba5565b15612fbe576108d46131f4565b50600091369150565b6040517ff23a6e61000000000000000000000000000000000000000000000000000000008082529073ffffffffffffffffffffffffffffffffffffffff86169063f23a6e6190613023908a908a90899089908990600401613f0b565b6020604051808303816000875af1158015613042573d6000803e3d6000fd5b505050506040513d601f19601f820116820180604052508101906130669190613ea3565b7fffffffff00000000000000000000000000000000000000000000000000000000161461098b576040517f40f39d3800000000000000000000000000000000000000000000000000000000815273ffffffffffffffffffffffffffffffffffffffff8516600482015260248101849052604481018390526064016107de565b6000613147826040518060400160405280602081526020017f5361666545524332303a206c6f772d6c6576656c2063616c6c206661696c65648152508573ffffffffffffffffffffffffffffffffffffffff166132259092919063ffffffff16565b90508051600014806131685750808060200190518101906131689190613ba5565b6108c4576040517f08c379a000000000000000000000000000000000000000000000000000000000815260206004820152602a60248201527f5361666545524332303a204552433230206f7065726174696f6e20646964206e60448201527f6f7420737563636565640000000000000000000000000000000000000000000060648201526084016107de565b3660006108d47fffffffffffffffffffffffffffffffffffffffffffffffffffffffffffffffec8301828481613f50565b60606108f98484600085856000808673ffffffffffffffffffffffffffffffffffffffff1685876040516132599190613f7a565b60006040518083038185875af1925050503d8060008114613296576040519150601f19603f3d011682016040523d82523d6000602084013e61329b565b606091505b50915091506132ac878383876132b7565b979650505050505050565b6060831561334d5782516000036133465773ffffffffffffffffffffffffffffffffffffffff85163b613346576040517f08c379a000000000000000000000000000000000000000000000000000000000815260206004820152601d60248201527f416464726573733a2063616c6c20746f206e6f6e2d636f6e747261637400000060448201526064016107de565b50816108f9565b6108f983838151156133625781518083602001fd5b806040517f08c379a00000000000000000000000000000000000000000000000000000000081526004016107de91906134a4565b73ffffffffffffffffffffffffffffffffffffffff8116811461075157600080fd5b600080604083850312156133cb57600080fd5b82356133d681613396565b946020939093013593505050565b7fffffffff000000000000000000000000000000000000000000000000000000008116811461075157600080fd5b60006020828403121561342457600080fd5b813561342f816133e4565b9392505050565b60005b83811015613451578181015183820152602001613439565b50506000910152565b60008151808452613472816020860160208601613436565b601f017fffffffffffffffffffffffffffffffffffffffffffffffffffffffffffffffe0169290920160200192915050565b6020815260006105a4602083018461345a565b60008083601f8401126134c957600080fd5b50813567ffffffffffffffff8111156134e157600080fd5b6020830191508360208260051b850101111561084257600080fd5b60008083601f84011261350e57600080fd5b50813567ffffffffffffffff81111561352657600080fd5b60208301915083602082850101111561084257600080fd5b60008060008060008060006080888a03121561355957600080fd5b873561356481613396565b9650602088013567ffffffffffffffff8082111561358157600080fd5b61358d8b838c016134b7565b909850965060408a01359150808211156135a657600080fd5b6135b28b838c016134b7565b909650945060608a01359150808211156135cb57600080fd5b506135d88a828b016134fc565b989b979a50959850939692959293505050565b6000602082840312156135fd57600080fd5b5035919050565b60006020828403121561361657600080fd5b813561342f81613396565b60008060006040848603121561363657600080fd5b83359250602084013567ffffffffffffffff81111561365457600080fd5b613660868287016134fc565b9497909650939450505050565b6000806040838503121561368057600080fd5b50508035926020909101359150565b60008060008060008060008060a0898b0312156136ab57600080fd5b88356136b681613396565b975060208901356136c681613396565b9650604089013567ffffffffffffffff808211156136e357600080fd5b6136ef8c838d016134b7565b909850965060608b013591508082111561370857600080fd5b6137148c838d016134b7565b909650945060808b013591508082111561372d57600080fd5b5061373a8b828c016134fc565b999c989b5096995094979396929594505050565b6000806040838503121561376157600080fd5b82359150602083013561377381613396565b809150509250929050565b8183528181602085013750600060208284010152600060207fffffffffffffffffffffffffffffffffffffffffffffffffffffffffffffffe0601f840116840101905092915050565b6020815260006108f960208301848661377e565b600080600080604085870312156137f157600080fd5b843567ffffffffffffffff8082111561380957600080fd5b613815888389016134b7565b9096509450602087013591508082111561382e57600080fd5b5061383b878288016134b7565b95989497509550505050565b60008151808452602080850194506020840160005b838110156138785781518752958201959082019060010161385c565b509495945050505050565b6020815260006105a46020830184613847565b6000806000806000608086880312156138ae57600080fd5b85356138b981613396565b94506020860135935060408601359250606086013567ffffffffffffffff8111156138e357600080fd5b6138ef888289016134fc565b969995985093965092949392505050565b6000806000806000806060878903121561391957600080fd5b863567ffffffffffffffff8082111561393157600080fd5b61393d8a838b016134b7565b9098509650602089013591508082111561395657600080fd5b6139628a838b016134b7565b9096509450604089013591508082111561397b57600080fd5b5061398889828a016134b7565b979a9699509497509295939492505050565b801515811461075157600080fd5b600080604083850312156139bb57600080fd5b82356139c681613396565b915060208301356137738161399a565b6000806000806000806000806080898b0312156139f257600080fd5b883567ffffffffffffffff80821115613a0a57600080fd5b613a168c838d016134b7565b909a50985060208b0135915080821115613a2f57600080fd5b613a3b8c838d016134b7565b909850965060408b0135915080821115613a5457600080fd5b613a608c838d016134b7565b909650945060608b013591508082111561372d57600080fd5b60008060408385031215613a8c57600080fd5b8235613a9781613396565b9150602083013561377381613396565b60008060008060008060a08789031215613ac057600080fd5b8635613acb81613396565b95506020870135613adb81613396565b94506040870135935060608701359250608087013567ffffffffffffffff811115613b0557600080fd5b61398889828a016134fc565b7f4e487b7100000000000000000000000000000000000000000000000000000000600052603260045260246000fd5b60008083357fffffffffffffffffffffffffffffffffffffffffffffffffffffffffffffffe1843603018112613b7557600080fd5b83018035915067ffffffffffffffff821115613b9057600080fd5b60200191503681900382131561084257600080fd5b600060208284031215613bb757600080fd5b815161342f8161399a565b7f4e487b7100000000000000000000000000000000000000000000000000000000600052601160045260246000fd5b818103818111156105a7576105a7613bc2565b600181811c90821680613c1857607f821691505b602082108103613c51577f4e487b7100000000000000000000000000000000000000000000000000000000600052602260045260246000fd5b50919050565b604081526000613c6a6040830185613847565b8281036020840152613c7c8185613847565b95945050505050565b7f4e487b7100000000000000000000000000000000000000000000000000000000600052604160045260246000fd5b600060208284031215613cc657600080fd5b815167ffffffffffffffff80821115613cde57600080fd5b818401915084601f830112613cf257600080fd5b815181811115613d0457613d04613c85565b604051601f82017fffffffffffffffffffffffffffffffffffffffffffffffffffffffffffffffe0908116603f01168101908382118183101715613d4a57613d4a613c85565b81604052828152876020848701011115613d6357600080fd5b6132ac836020830160208801613436565b80820281158282048414176105a7576105a7613bc2565b600082613dc1577f4e487b7100000000000000000000000000000000000000000000000000000000600052601260045260246000fd5b500490565b81835260007f07ffffffffffffffffffffffffffffffffffffffffffffffffffffffffffffff831115613df857600080fd5b8260051b80836020870137939093016020019392505050565b604081526000613e25604083018688613dc6565b82810360208401526132ac818587613dc6565b600073ffffffffffffffffffffffffffffffffffffffff808816835280871660208401525060a06040830152613e7160a0830186613847565b8281036060840152613e838186613847565b90508281036080840152613e97818561345a565b98975050505050505050565b600060208284031215613eb557600080fd5b815161342f816133e4565b73ffffffffffffffffffffffffffffffffffffffff84168152606060208201526000613eef6060830185613847565b8281036040840152613f018185613847565b9695505050505050565b600073ffffffffffffffffffffffffffffffffffffffff808816835280871660208401525084604083015283606083015260a060808301526132ac60a083018461345a565b60008085851115613f6057600080fd5b83861115613f6d57600080fd5b5050820193919092039150565b60008251613f8c818460208701613436565b919091019291505056fea264697066735822122061a4aac20676a6bb3403a20eff760d8b7897c80b5511b549411a29304a19608064736f6c63430008190033",
  "linkReferences": {},
  "deployedLinkReferences": {}
}