{
  "_format": "hh-sol-artifact-1",
  "contractName": "ERC1155FullMock",
  "sourceName": "contracts/mocks/token/ERC1155/preset/ERC1155FullMock.sol",
  "abi": [
    {
      "inputs": [
        {
          "internalType": "string",
          "name": "tokenName",
          "type": "string"
        },
        {
          "internalType": "string",
          "name": "tokenSymbol",
          "type": "string"
        },
        {
          "internalType": "contract ITokenMetadataResolver",
          "name": "metadataResolver",
          "type": "address"
        },
        {
          "internalType": "contract IForwarderRegistry",
          "name": "forwarderRegistry",
          "type": "address"
        }
      ],
      "stateMutability": "nonpayable",
      "type": "constructor"
    },
    {
      "inputs": [],
      "name": "ERC1155BalanceOfAddressZero",
      "type": "error"
    },
    {
      "inputs": [
        {
          "internalType": "address",
          "name": "recipient",
          "type": "address"
        },
        {
          "internalType": "uint256",
          "name": "id",
          "type": "uint256"
        },
        {
          "internalType": "uint256",
          "name": "balance",
          "type": "uint256"
        },
        {
          "internalType": "uint256",
          "name": "value",
          "type": "uint256"
        }
      ],
      "name": "ERC1155BalanceOverflow",
      "type": "error"
    },
    {
      "inputs": [
        {
          "internalType": "address",
          "name": "owner",
          "type": "address"
        },
        {
          "internalType": "uint256",
          "name": "id",
          "type": "uint256"
        },
        {
          "internalType": "uint256",
          "name": "balance",
          "type": "uint256"
        },
        {
          "internalType": "uint256",
          "name": "value",
          "type": "uint256"
        }
      ],
      "name": "ERC1155InsufficientBalance",
      "type": "error"
    },
    {
      "inputs": [],
      "name": "ERC1155MintToAddressZero",
      "type": "error"
    },
    {
      "inputs": [
        {
          "internalType": "address",
          "name": "sender",
          "type": "address"
        },
        {
          "internalType": "address",
          "name": "owner",
          "type": "address"
        }
      ],
      "name": "ERC1155NonApproved",
      "type": "error"
    },
    {
      "inputs": [
        {
          "internalType": "address",
          "name": "recipient",
          "type": "address"
        },
        {
          "internalType": "uint256[]",
          "name": "ids",
          "type": "uint256[]"
        },
        {
          "internalType": "uint256[]",
          "name": "values",
          "type": "uint256[]"
        }
      ],
      "name": "ERC1155SafeBatchTransferRejected",
      "type": "error"
    },
    {
      "inputs": [
        {
          "internalType": "address",
          "name": "recipient",
          "type": "address"
        },
        {
          "internalType": "uint256",
          "name": "id",
          "type": "uint256"
        },
        {
          "internalType": "uint256",
          "name": "value",
          "type": "uint256"
        }
      ],
      "name": "ERC1155SafeTransferRejected",
      "type": "error"
    },
    {
      "inputs": [
        {
          "internalType": "address",
          "name": "account",
          "type": "address"
        }
      ],
      "name": "ERC1155SelfApprovalForAll",
      "type": "error"
    },
    {
      "inputs": [],
      "name": "ERC1155TransferToAddressZero",
      "type": "error"
    },
    {
      "inputs": [
        {
          "internalType": "uint256",
          "name": "percentage",
          "type": "uint256"
        }
      ],
      "name": "ERC2981IncorrectRoyaltyPercentage",
      "type": "error"
    },
    {
      "inputs": [],
      "name": "ERC2981IncorrectRoyaltyReceiver",
      "type": "error"
    },
    {
      "inputs": [],
      "name": "IllegalInterfaceId",
      "type": "error"
    },
    {
      "inputs": [],
      "name": "InconsistentArrayLengths",
      "type": "error"
    },
    {
      "inputs": [
        {
          "internalType": "address",
          "name": "tokenContract",
          "type": "address"
        }
      ],
      "name": "IncorrectTokenContractType",
      "type": "error"
    },
    {
      "inputs": [
        {
          "internalType": "address",
          "name": "account",
          "type": "address"
        }
      ],
      "name": "NotContractOwner",
      "type": "error"
    },
    {
      "inputs": [
        {
          "internalType": "address",
          "name": "account",
          "type": "address"
        }
      ],
      "name": "NotMetadataResolver",
      "type": "error"
    },
    {
      "inputs": [
        {
          "internalType": "bytes32",
          "name": "role",
          "type": "bytes32"
        },
        {
          "internalType": "address",
          "name": "account",
          "type": "address"
        }
      ],
      "name": "NotRoleHolder",
      "type": "error"
    },
    {
      "anonymous": false,
      "inputs": [
        {
          "indexed": true,
          "internalType": "address",
          "name": "owner",
          "type": "address"
        },
        {
          "indexed": true,
          "internalType": "address",
          "name": "operator",
          "type": "address"
        },
        {
          "indexed": false,
          "internalType": "bool",
          "name": "approved",
          "type": "bool"
        }
      ],
      "name": "ApprovalForAll",
      "type": "event"
    },
    {
      "anonymous": false,
      "inputs": [
        {
          "indexed": true,
          "internalType": "address",
          "name": "previousOwner",
          "type": "address"
        },
        {
          "indexed": true,
          "internalType": "address",
          "name": "newOwner",
          "type": "address"
        }
      ],
      "name": "OwnershipTransferred",
      "type": "event"
    },
    {
      "anonymous": false,
      "inputs": [
        {
          "indexed": false,
          "internalType": "bytes32",
          "name": "role",
          "type": "bytes32"
        },
        {
          "indexed": false,
          "internalType": "address",
          "name": "account",
          "type": "address"
        },
        {
          "indexed": false,
          "internalType": "address",
          "name": "operator",
          "type": "address"
        }
      ],
      "name": "RoleGranted",
      "type": "event"
    },
    {
      "anonymous": false,
      "inputs": [
        {
          "indexed": false,
          "internalType": "bytes32",
          "name": "role",
          "type": "bytes32"
        },
        {
          "indexed": false,
          "internalType": "address",
          "name": "account",
          "type": "address"
        },
        {
          "indexed": false,
          "internalType": "address",
          "name": "operator",
          "type": "address"
        }
      ],
      "name": "RoleRevoked",
      "type": "event"
    },
    {
      "anonymous": false,
      "inputs": [
        {
          "indexed": true,
          "internalType": "address",
          "name": "operator",
          "type": "address"
        },
        {
          "indexed": true,
          "internalType": "address",
          "name": "from",
          "type": "address"
        },
        {
          "indexed": true,
          "internalType": "address",
          "name": "to",
          "type": "address"
        },
        {
          "indexed": false,
          "internalType": "uint256[]",
          "name": "ids",
          "type": "uint256[]"
        },
        {
          "indexed": false,
          "internalType": "uint256[]",
          "name": "values",
          "type": "uint256[]"
        }
      ],
      "name": "TransferBatch",
      "type": "event"
    },
    {
      "anonymous": false,
      "inputs": [
        {
          "indexed": true,
          "internalType": "address",
          "name": "operator",
          "type": "address"
        },
        {
          "indexed": true,
          "internalType": "address",
          "name": "from",
          "type": "address"
        },
        {
          "indexed": true,
          "internalType": "address",
          "name": "to",
          "type": "address"
        },
        {
          "indexed": false,
          "internalType": "uint256",
          "name": "id",
          "type": "uint256"
        },
        {
          "indexed": false,
          "internalType": "uint256",
          "name": "value",
          "type": "uint256"
        }
      ],
      "name": "TransferSingle",
      "type": "event"
    },
    {
      "anonymous": false,
      "inputs": [
        {
          "indexed": false,
          "internalType": "string",
          "name": "value",
          "type": "string"
        },
        {
          "indexed": true,
          "internalType": "uint256",
          "name": "id",
          "type": "uint256"
        }
      ],
      "name": "URI",
      "type": "event"
    },
    {
      "inputs": [],
      "name": "MINTER_ROLE",
      "outputs": [
        {
          "internalType": "bytes32",
          "name": "",
          "type": "bytes32"
        }
      ],
      "stateMutability": "view",
      "type": "function"
    },
    {
      "inputs": [],
      "name": "ROYALTY_FEE_DENOMINATOR",
      "outputs": [
        {
          "internalType": "uint256",
          "name": "",
          "type": "uint256"
        }
      ],
      "stateMutability": "view",
      "type": "function"
    },
    {
      "inputs": [],
      "name": "__msgData",
      "outputs": [
        {
          "internalType": "bytes",
          "name": "",
          "type": "bytes"
        }
      ],
      "stateMutability": "view",
      "type": "function"
    },
    {
      "inputs": [
        {
          "internalType": "address",
          "name": "owner",
          "type": "address"
        },
        {
          "internalType": "uint256",
          "name": "id",
          "type": "uint256"
        }
      ],
      "name": "balanceOf",
      "outputs": [
        {
          "internalType": "uint256",
          "name": "balance",
          "type": "uint256"
        }
      ],
      "stateMutability": "view",
      "type": "function"
    },
    {
      "inputs": [
        {
          "internalType": "address[]",
          "name": "owners",
          "type": "address[]"
        },
        {
          "internalType": "uint256[]",
          "name": "ids",
          "type": "uint256[]"
        }
      ],
      "name": "balanceOfBatch",
      "outputs": [
        {
          "internalType": "uint256[]",
          "name": "balances",
          "type": "uint256[]"
        }
      ],
      "stateMutability": "view",
      "type": "function"
    },
    {
      "inputs": [
        {
          "internalType": "uint256[]",
          "name": "tokenIds",
          "type": "uint256[]"
        },
        {
          "internalType": "string[]",
          "name": "tokenURIs",
          "type": "string[]"
        }
      ],
      "name": "batchSetTokenURI",
      "outputs": [],
      "stateMutability": "nonpayable",
      "type": "function"
    },
    {
      "inputs": [],
      "name": "forwarderRegistry",
      "outputs": [
        {
          "internalType": "contract IForwarderRegistry",
          "name": "",
          "type": "address"
        }
      ],
      "stateMutability": "view",
      "type": "function"
    },
    {
      "inputs": [
        {
          "internalType": "bytes32",
          "name": "role",
          "type": "bytes32"
        },
        {
          "internalType": "address",
          "name": "account",
          "type": "address"
        }
      ],
      "name": "grantRole",
      "outputs": [],
      "stateMutability": "nonpayable",
      "type": "function"
    },
    {
      "inputs": [
        {
          "internalType": "bytes32",
          "name": "role",
          "type": "bytes32"
        },
        {
          "internalType": "address",
          "name": "account",
          "type": "address"
        }
      ],
      "name": "hasRole",
      "outputs": [
        {
          "internalType": "bool",
          "name": "hasRole_",
          "type": "bool"
        }
      ],
      "stateMutability": "view",
      "type": "function"
    },
    {
      "inputs": [
        {
          "internalType": "address",
          "name": "owner",
          "type": "address"
        },
        {
          "internalType": "address",
          "name": "operator",
          "type": "address"
        }
      ],
      "name": "isApprovedForAll",
      "outputs": [
        {
          "internalType": "bool",
          "name": "approvedForAll",
          "type": "bool"
        }
      ],
      "stateMutability": "view",
      "type": "function"
    },
    {
      "inputs": [
        {
          "internalType": "address",
          "name": "forwarder",
          "type": "address"
        }
      ],
      "name": "isTrustedForwarder",
      "outputs": [
        {
          "internalType": "bool",
          "name": "",
          "type": "bool"
        }
      ],
      "stateMutability": "view",
      "type": "function"
    },
    {
      "inputs": [],
      "name": "metadataResolver",
      "outputs": [
        {
          "internalType": "contract ITokenMetadataResolver",
          "name": "tokenMetadataResolver",
          "type": "address"
        }
      ],
      "stateMutability": "view",
      "type": "function"
    },
    {
      "inputs": [],
      "name": "name",
      "outputs": [
        {
          "internalType": "string",
          "name": "tokenName",
          "type": "string"
        }
      ],
      "stateMutability": "view",
      "type": "function"
    },
    {
      "inputs": [],
      "name": "owner",
      "outputs": [
        {
          "internalType": "address",
          "name": "",
          "type": "address"
        }
      ],
      "stateMutability": "view",
      "type": "function"
    },
    {
      "inputs": [
        {
          "internalType": "address[]",
          "name": "accounts",
          "type": "address[]"
        },
        {
          "internalType": "contract IERC20[]",
          "name": "tokens",
          "type": "address[]"
        },
        {
          "internalType": "uint256[]",
          "name": "amounts",
          "type": "uint256[]"
        }
      ],
      "name": "recoverERC20s",
      "outputs": [],
      "stateMutability": "nonpayable",
      "type": "function"
    },
    {
      "inputs": [
        {
          "internalType": "address[]",
          "name": "accounts",
          "type": "address[]"
        },
        {
          "internalType": "contract IERC721[]",
          "name": "contracts",
          "type": "address[]"
        },
        {
          "internalType": "uint256[]",
          "name": "tokenIds",
          "type": "uint256[]"
        }
      ],
      "name": "recoverERC721s",
      "outputs": [],
      "stateMutability": "nonpayable",
      "type": "function"
    },
    {
      "inputs": [
        {
          "internalType": "address payable[]",
          "name": "accounts",
          "type": "address[]"
        },
        {
          "internalType": "uint256[]",
          "name": "amounts",
          "type": "uint256[]"
        }
      ],
      "name": "recoverETH",
      "outputs": [],
      "stateMutability": "nonpayable",
      "type": "function"
    },
    {
      "inputs": [
        {
          "internalType": "bytes32",
          "name": "role",
          "type": "bytes32"
        }
      ],
      "name": "renounceRole",
      "outputs": [],
      "stateMutability": "nonpayable",
      "type": "function"
    },
    {
      "inputs": [
        {
          "internalType": "bytes32",
          "name": "role",
          "type": "bytes32"
        },
        {
          "internalType": "address",
          "name": "account",
          "type": "address"
        }
      ],
      "name": "revokeRole",
      "outputs": [],
      "stateMutability": "nonpayable",
      "type": "function"
    },
    {
      "inputs": [
        {
          "internalType": "uint256",
          "name": "tokenId",
          "type": "uint256"
        },
        {
          "internalType": "uint256",
          "name": "salePrice",
          "type": "uint256"
        }
      ],
      "name": "royaltyInfo",
      "outputs": [
        {
          "internalType": "address",
          "name": "receiver",
          "type": "address"
        },
        {
          "internalType": "uint256",
          "name": "royaltyAmount",
          "type": "uint256"
        }
      ],
      "stateMutability": "view",
      "type": "function"
    },
    {
      "inputs": [
        {
          "internalType": "address",
          "name": "to",
          "type": "address"
        },
        {
          "internalType": "uint256[]",
          "name": "ids",
          "type": "uint256[]"
        },
        {
          "internalType": "uint256[]",
          "name": "values",
          "type": "uint256[]"
        },
        {
          "internalType": "bytes",
          "name": "data",
          "type": "bytes"
        }
      ],
      "name": "safeBatchMint",
      "outputs": [],
      "stateMutability": "nonpayable",
      "type": "function"
    },
    {
      "inputs": [
        {
          "internalType": "address",
          "name": "from",
          "type": "address"
        },
        {
          "internalType": "address",
          "name": "to",
          "type": "address"
        },
        {
          "internalType": "uint256[]",
          "name": "ids",
          "type": "uint256[]"
        },
        {
          "internalType": "uint256[]",
          "name": "values",
          "type": "uint256[]"
        },
        {
          "internalType": "bytes",
          "name": "data",
          "type": "bytes"
        }
      ],
      "name": "safeBatchTransferFrom",
      "outputs": [],
      "stateMutability": "nonpayable",
      "type": "function"
    },
    {
      "inputs": [
        {
          "internalType": "address[]",
          "name": "recipients",
          "type": "address[]"
        },
        {
          "internalType": "uint256[]",
          "name": "ids",
          "type": "uint256[]"
        },
        {
          "internalType": "uint256[]",
          "name": "values",
          "type": "uint256[]"
        },
        {
          "internalType": "bytes",
          "name": "data",
          "type": "bytes"
        }
      ],
      "name": "safeDeliver",
      "outputs": [],
      "stateMutability": "nonpayable",
      "type": "function"
    },
    {
      "inputs": [
        {
          "internalType": "address",
          "name": "to",
          "type": "address"
        },
        {
          "internalType": "uint256",
          "name": "id",
          "type": "uint256"
        },
        {
          "internalType": "uint256",
          "name": "value",
          "type": "uint256"
        },
        {
          "internalType": "bytes",
          "name": "data",
          "type": "bytes"
        }
      ],
      "name": "safeMint",
      "outputs": [],
      "stateMutability": "nonpayable",
      "type": "function"
    },
    {
      "inputs": [
        {
          "internalType": "address",
          "name": "from",
          "type": "address"
        },
        {
          "internalType": "address",
          "name": "to",
          "type": "address"
        },
        {
          "internalType": "uint256",
          "name": "id",
          "type": "uint256"
        },
        {
          "internalType": "uint256",
          "name": "value",
          "type": "uint256"
        },
        {
          "internalType": "bytes",
          "name": "data",
          "type": "bytes"
        }
      ],
      "name": "safeTransferFrom",
      "outputs": [],
      "stateMutability": "nonpayable",
      "type": "function"
    },
    {
      "inputs": [
        {
          "internalType": "address",
          "name": "operator",
          "type": "address"
        },
        {
          "internalType": "bool",
          "name": "approved",
          "type": "bool"
        }
      ],
      "name": "setApprovalForAll",
      "outputs": [],
      "stateMutability": "nonpayable",
      "type": "function"
    },
    {
      "inputs": [
        {
          "internalType": "uint256",
          "name": "percentage",
          "type": "uint256"
        }
      ],
      "name": "setRoyaltyPercentage",
      "outputs": [],
      "stateMutability": "nonpayable",
      "type": "function"
    },
    {
      "inputs": [
        {
          "internalType": "address",
          "name": "receiver",
          "type": "address"
        }
      ],
      "name": "setRoyaltyReceiver",
      "outputs": [],
      "stateMutability": "nonpayable",
      "type": "function"
    },
    {
      "inputs": [
        {
          "internalType": "uint256",
          "name": "tokenId",
          "type": "uint256"
        },
        {
          "internalType": "string",
          "name": "tokenURI",
          "type": "string"
        }
      ],
      "name": "setTokenURI",
      "outputs": [],
      "stateMutability": "nonpayable",
      "type": "function"
    },
    {
      "inputs": [
        {
          "internalType": "bytes4",
          "name": "interfaceId",
          "type": "bytes4"
        }
      ],
      "name": "supportsInterface",
      "outputs": [
        {
          "internalType": "bool",
          "name": "",
          "type": "bool"
        }
      ],
      "stateMutability": "view",
      "type": "function"
    },
    {
      "inputs": [],
      "name": "symbol",
      "outputs": [
        {
          "internalType": "string",
          "name": "tokenSymbol",
          "type": "string"
        }
      ],
      "stateMutability": "view",
      "type": "function"
    },
    {
      "inputs": [
        {
          "internalType": "address",
          "name": "newOwner",
          "type": "address"
        }
      ],
      "name": "transferOwnership",
      "outputs": [],
      "stateMutability": "nonpayable",
      "type": "function"
    },
    {
      "inputs": [
        {
          "internalType": "uint256",
          "name": "tokenId",
          "type": "uint256"
        }
      ],
      "name": "uri",
      "outputs": [
        {
          "internalType": "string",
          "name": "metadataURI",
          "type": "string"
        }
      ],
      "stateMutability": "view",
      "type": "function"
    }
  ],
  "bytecode": "0x60a06040523480156200001157600080fd5b506040516200434c3803806200434c8339810160408190526200003491620003d1565b8383838380803386868662000048620000c6565b6200006283838362000059620000e8565b9291906200011e565b6200006c62000165565b5050506200008b81620000846200017d60201b60201c565b90620001ad565b506200009662000220565b620000a062000238565b620000aa62000250565b6001600160a01b031660805250620005e4975050505050505050565b620000e6636cdb3d1360e11b6001620000de62000263565b919062000293565b565b6000806200011860017f7ea68fd2dcf1c056b94db6a0a537aa80d26fa9ab1eacd85da1ba0b61b7e7a8a562000465565b92915050565b836200012b848262000518565b50600184016200013c838262000518565b5060029390930180546001600160a01b0319166001600160a01b03909416939093179092555050565b620000e66303a24d0760e21b6001620000de62000263565b6000806200011860017fc9ed16f33ab3a66c84bfd83099ccb2a8845871e2e1c1928f63797152f0fd54cd62000465565b6001600160a01b03811615620002045781546001600160a01b0319166001600160a01b03821690811783556040516000907f8be0079c531659141344cd1fd0a4f28419497f9722a3daafe3b4186f6b6457e0908290a35b6200021c6307f5828d60e41b6001620000de62000263565b5050565b620000e6631464324b60e21b6001620000de62000263565b620000e6633a2ae73360e21b6001620000de62000263565b620000e663152a902d60e11b6001620000de5b6000806200011860017fca9d3e17f264b0f3984e2634e94adb37fa3e6a8103f06aeae6fa59e21c769f5e62000465565b600160e01b6001600160e01b0319831601620002c2576040516372c683bb60e01b815260040160405180910390fd5b6001600160e01b03199190911660009081526020929092526040909120805460ff1916911515919091179055565b634e487b7160e01b600052604160045260246000fd5b600082601f8301126200031857600080fd5b81516001600160401b0380821115620003355762000335620002f0565b604051601f8301601f19908116603f01168101908282118183101715620003605762000360620002f0565b81604052838152602092508660208588010111156200037e57600080fd5b600091505b83821015620003a2578582018301518183018401529082019062000383565b6000602085830101528094505050505092915050565b6001600160a01b0381168114620003ce57600080fd5b50565b60008060008060808587031215620003e857600080fd5b84516001600160401b03808211156200040057600080fd5b6200040e8883890162000306565b955060208701519150808211156200042557600080fd5b50620004348782880162000306565b93505060408501516200044781620003b8565b60608601519092506200045a81620003b8565b939692955090935050565b818103818111156200011857634e487b7160e01b600052601160045260246000fd5b600181811c908216806200049c57607f821691505b602082108103620004bd57634e487b7160e01b600052602260045260246000fd5b50919050565b601f82111562000513576000816000526020600020601f850160051c81016020861015620004ee5750805b601f850160051c820191505b818110156200050f57828155600101620004fa565b5050505b505050565b81516001600160401b03811115620005345762000534620002f0565b6200054c8162000545845462000487565b84620004c3565b602080601f8311600181146200058457600084156200056b5750858301515b600019600386901b1c1916600185901b1785556200050f565b600085815260208120601f198616915b82811015620005b55788860151825594840194600190910190840162000594565b5085821015620005d45787850151600019600388901b60f8161c191681555b5050505050600190811b01905550565b608051613d2962000623600039600081816102e90152818161039a015281816126c50152818161274d01528181612bf10152612c2f0152613d296000f3fe608060405234801561001057600080fd5b506004361061020a5760003560e01c806373c8a9581161012a578063c3666c36116100bd578063e8ab9ccc1161008c578063f242432a11610071578063f242432a14610504578063f2fde38b14610517578063f7ba94bd1461052a57600080fd5b8063e8ab9ccc146104de578063e985e9c5146104f157600080fd5b8063c3666c3614610487578063d53913931461049a578063d547741f146104c1578063e1a8bf2c146104d457600080fd5b806391d14854116100f957806391d148541461045157806395d89b4114610464578063a0c76f621461046c578063a22cb4651461047457600080fd5b806373c8a958146104105780638bb9c5bf146104235780638da5cb5b146104365780638dc251e31461043e57600080fd5b80632eb2c2d6116101a2578063572b6c0511610171578063572b6c051461038a5780635cfa9297146103d757806361ba27da146103ea5780636706467b146103fd57600080fd5b80632eb2c2d61461032e5780632f2ff15d1461034157806331e66e1e146103545780634e1273f41461036a57600080fd5b80630e89341c116101de5780630e89341c14610282578063162094c4146102955780632a55205a146102a85780632b4c9f16146102e757600080fd5b8062fdd58e1461020f57806301ffc9a71461023557806306fdde03146102585780630d6a5bbb1461026d575b600080fd5b61022261021d366004613115565b61053d565b6040519081526020015b60405180910390f35b61024861024336600461316f565b61055c565b604051901515815260200161022c565b610260610570565b60405161022c9190613201565b61028061027b36600461329b565b610587565b005b610260610290366004613348565b610682565b6102806102a3366004613361565b610698565b6102bb6102b63660046133ad565b61076a565b6040805173ffffffffffffffffffffffffffffffffffffffff909316835260208301919091520161022c565b7f00000000000000000000000000000000000000000000000000000000000000005b60405173ffffffffffffffffffffffffffffffffffffffff909116815260200161022c565b61028061033c3660046133cf565b61078d565b61028061034f36600461348e565b6107b6565b61035c6107ef565b60405161022c929190613507565b61037d61037836600461351b565b610802565b60405161022c91906135c3565b6102486103983660046135d6565b7f000000000000000000000000000000000000000000000000000000000000000073ffffffffffffffffffffffffffffffffffffffff90811691161490565b6102806103e53660046135f3565b610827565b6102806103f8366004613348565b6108b9565b61028061040b36600461351b565b6108e1565b61028061041e36600461365d565b610a19565b610280610431366004613348565b610b05565b610309610b20565b61028061044c3660046135d6565b610b47565b61024861045f36600461348e565b610b64565b610260610ba8565b610309610bba565b610280610482366004613705565b610bc7565b61028061049536600461365d565b610be8565b6102227f6d696e746572000000000000000000000000000000000000000000000000000081565b6102806104cf36600461348e565b610e89565b610222620186a081565b6102806104ec366004613733565b610eb7565b6102486104ff3660046137d6565b610fdc565b610280610512366004613804565b61102a565b6102806105253660046135d6565b61104f565b61028061053836600461351b565b61106a565b6000610553838361054c611121565b919061114f565b90505b92915050565b60006105568261056a6111d3565b90611201565b606061058261057d6112db565b611309565b905090565b600061059161139f565b90506105c77f6d696e7465720000000000000000000000000000000000000000000000000000826105c06113a9565b91906113d7565b610678818989898080602002602001604051908101604052809392919081815260200183836020028082843760009201919091525050604080516020808d0282810182019093528c82529093508c92508b91829185019084908082843760009201919091525050604080516020601f8c018190048102820181019092528a815292508a915089908190840183828082843760009201919091525061066e9250611121915050565b949392919061145d565b5050505050505050565b606061055630836106916112db565b91906115ec565b6106c06106a36112db565b6002015473ffffffffffffffffffffffffffffffffffffffff1690565b73ffffffffffffffffffffffffffffffffffffffff163373ffffffffffffffffffffffffffffffffffffffff161461072b576040517f220606710000000000000000000000000000000000000000000000000000000081523360048201526024015b60405180910390fd5b827f6bb7ff708619ba0610cba295a58592e0451dee2622938c8755667688daf3529b838360405161075d929190613507565b60405180910390a2505050565b600080610781848461077a6116ac565b91906116da565b915091505b9250929050565b61067861079861139f565b89898989898989896107a8611121565b989796959493929190611784565b60006107c061139f565b90506107d4816107ce611a0d565b90611a3b565b6107ea8383836107e26113a9565b929190611aa6565b505050565b3660006107fa611b7d565b915091509091565b606061081c85858585610813611121565b93929190611b88565b90505b949350505050565b600061083161139f565b90506108607f6d696e7465720000000000000000000000000000000000000000000000000000826105c06113a9565b6108b18187878787878080601f0160208091040260200160405190810160405280939291908181526020018383808284376000920191909152506108a79250611121915050565b9493929190611c97565b505050505050565b6108cc6108c461139f565b6107ce611a0d565b6108de816108d86116ac565b90611d75565b50565b82811461091a576040517f6582533600000000000000000000000000000000000000000000000000000000815260040160405180910390fd5b6109256106a36112db565b73ffffffffffffffffffffffffffffffffffffffff163373ffffffffffffffffffffffffffffffffffffffff161461098b576040517f22060671000000000000000000000000000000000000000000000000000000008152336004820152602401610722565b60005b83811015610a12578484828181106109a8576109a861386e565b905060200201357f6bb7ff708619ba0610cba295a58592e0451dee2622938c8755667688daf3529b8484848181106109e2576109e261386e565b90506020028101906109f4919061389d565b604051610a02929190613507565b60405180910390a260010161098e565b5050505050565b610a246108c461139f565b848381141580610a345750808214155b15610a6b576040517f6582533600000000000000000000000000000000000000000000000000000000815260040160405180910390fd5b60005b8181101561067857610afd888883818110610a8b57610a8b61386e565b9050602002016020810190610aa091906135d6565b858584818110610ab257610ab261386e565b90506020020135888885818110610acb57610acb61386e565b9050602002016020810190610ae091906135d6565b73ffffffffffffffffffffffffffffffffffffffff169190611dfb565b600101610a6e565b6108de610b1061139f565b82610b196113a9565b9190611e88565b6000610582610b2d611a0d565b5473ffffffffffffffffffffffffffffffffffffffff1690565b610b526108c461139f565b6108de81610b5e6116ac565b90611f2c565b60006105538383610b736113a9565b60009283526020908152604080842073ffffffffffffffffffffffffffffffffffffffff909316845291905290205460ff1690565b6060610582610bb56112db565b611fbb565b60006105826106a36112db565b610be4610bd261139f565b8383610bdc611121565b929190611fcc565b5050565b610bf36108c461139f565b848381141580610c035750808214155b15610c3a576040517f6582533600000000000000000000000000000000000000000000000000000000815260040160405180910390fd5b60005b81811015610678576000868683818110610c5957610c5961386e565b9050602002016020810190610c6e91906135d6565b6040517f01ffc9a70000000000000000000000000000000000000000000000000000000081527f80ac58cd00000000000000000000000000000000000000000000000000000000600482015290915073ffffffffffffffffffffffffffffffffffffffff8216906301ffc9a790602401602060405180830381865afa158015610cfb573d6000803e3d6000fd5b505050506040513d601f19601f82011682018060405250810190610d1f9190613902565b610d6d576040517f986b9f1f00000000000000000000000000000000000000000000000000000000815273ffffffffffffffffffffffffffffffffffffffff82166004820152602401610722565b868683818110610d7f57610d7f61386e565b9050602002016020810190610d9491906135d6565b73ffffffffffffffffffffffffffffffffffffffff166342842e0e308b8b86818110610dc257610dc261386e565b9050602002016020810190610dd791906135d6565b888887818110610de957610de961386e565b6040517fffffffff0000000000000000000000000000000000000000000000000000000060e088901b16815273ffffffffffffffffffffffffffffffffffffffff958616600482015294909316602485015250602090910201356044820152606401600060405180830381600087803b158015610e6557600080fd5b505af1158015610e79573d6000803e3d6000fd5b5050505050806001019050610c3d565b6000610e9361139f565b9050610ea1816107ce611a0d565b6107ea838383610eaf6113a9565b9291906120e4565b6000610ec161139f565b9050610ef07f6d696e7465720000000000000000000000000000000000000000000000000000826105c06113a9565b610fd1818a8a8080602002602001604051908101604052809392919081815260200183836020028082843760009201919091525050604080516020808e0282810182019093528d82529093508d92508c91829185019084908082843760009201919091525050604080516020808d0282810182019093528c82529093508c92508b91829185019084908082843760009201919091525050604080516020601f8c018190048102820181019092528a815292508a9150899081908401838280828437600092019190915250610fc79250611121915050565b94939291906121ae565b505050505050505050565b60006105538383610feb611121565b919073ffffffffffffffffffffffffffffffffffffffff9182166000908152600193909301602090815260408085209290931684525290205460ff1690565b6108b161103561139f565b878787878787611043611121565b96959493929190612271565b6108de61105a61139f565b82611063611a0d565b9190612414565b6110756108c461139f565b828181146110af576040517f6582533600000000000000000000000000000000000000000000000000000000815260040160405180910390fd5b60005b818110156108b1576111198484838181106110cf576110cf61386e565b905060200201358787848181106110e8576110e861386e565b90506020020160208101906110fd91906135d6565b73ffffffffffffffffffffffffffffffffffffffff1690612528565b6001016110b2565b60008061055660017f5ccf5846fa27a68fafc8e588671a68f5e67c2f9b56af4263806a4d71735e861361394e565b600073ffffffffffffffffffffffffffffffffffffffff831661119e576040517fca2434a500000000000000000000000000000000000000000000000000000000815260040160405180910390fd5b5060009081526020928352604080822073ffffffffffffffffffffffffffffffffffffffff9390931682529190925290205490565b60008061055660017fca9d3e17f264b0f3984e2634e94adb37fa3e6a8103f06aeae6fa59e21c769f5e61394e565b60007c01000000000000000000000000000000000000000000000000000000007fffffffff0000000000000000000000000000000000000000000000000000000083160161125157506000610556565b7ffe003659000000000000000000000000000000000000000000000000000000007fffffffff000000000000000000000000000000000000000000000000000000008316016112a257506001610556565b507fffffffff00000000000000000000000000000000000000000000000000000000166000908152602091909152604090205460ff1690565b60008061055660017f7ea68fd2dcf1c056b94db6a0a537aa80d26fa9ab1eacd85da1ba0b61b7e7a8a561394e565b606081600001805461131a90613961565b80601f016020809104026020016040519081016040528092919081815260200182805461134690613961565b80156113935780601f1061136857610100808354040283529160200191611393565b820191906000526020600020905b81548152906001019060200180831161137657829003601f168201915b50505050509050919050565b6000610582612682565b60008061055660017fc8827d3282af6f37b64c3e9e6f3ac9df286ab0bb0fccd6f8661bf19adb368b2361394e565b60008281526020848152604080832073ffffffffffffffffffffffffffffffffffffffff8516845290915290205460ff166107ea576040517f7aa728820000000000000000000000000000000000000000000000000000000081526004810183905273ffffffffffffffffffffffffffffffffffffffff82166024820152604401610722565b73ffffffffffffffffffffffffffffffffffffffff84166114aa576040517f021149bd00000000000000000000000000000000000000000000000000000000815260040160405180910390fd5b8251825181146114e6576040517f6582533600000000000000000000000000000000000000000000000000000000815260040160405180910390fd5b60005b818110156115375761152f88878784815181106115085761150861386e565b60200260200101518785815181106115225761152261386e565b60200260200101516127c9565b6001016114e9565b508473ffffffffffffffffffffffffffffffffffffffff16600073ffffffffffffffffffffffffffffffffffffffff168773ffffffffffffffffffffffffffffffffffffffff167f4a39dc06d4c0dbc64b70af90fd698a233a518aa5d07e595d983b8c0526c8f7fb87876040516115af9291906139b4565b60405180910390a473ffffffffffffffffffffffffffffffffffffffff85163b156115e3576115e38660008787878761289a565b50505050505050565b60028301546040517ff724dad700000000000000000000000000000000000000000000000000000000815273ffffffffffffffffffffffffffffffffffffffff848116600483015260248201849052606092169063f724dad790604401600060405180830381865afa158015611666573d6000803e3d6000fd5b505050506040513d6000823e601f3d9081017fffffffffffffffffffffffffffffffffffffffffffffffffffffffffffffffe016820160405261081f9190810190613a11565b60008061055660017f2c0cf10337caabbd02dcf226f05f5fd19a0919a41a8df8958c39b8000782685861394e565b825473ffffffffffffffffffffffffffffffffffffffff8116906000907401000000000000000000000000000000000000000090046bffffffffffffffffffffffff16831580611728575080155b15611736576000915061177b565b620186a084101561176057620186a061174f8286613ad1565b6117599190613ae8565b915061177b565b8061176e620186a086613ae8565b6117789190613ad1565b91505b50935093915050565b73ffffffffffffffffffffffffffffffffffffffff87166117d1576040517fb5e8901500000000000000000000000000000000000000000000000000000000815260040160405180910390fd5b8483811461180b576040517f6582533600000000000000000000000000000000000000000000000000000000815260040160405180910390fd5b6118168b8a8c612998565b61186c576040517f05bbb9c400000000000000000000000000000000000000000000000000000000815273ffffffffffffffffffffffffffffffffffffffff808c1660048301528a166024820152604401610722565b60005b818110156118bc576118b48c8b8b8b8b8681811061188f5761188f61386e565b905060200201358a8a878181106118a8576118a861386e565b90506020020135612a0d565b60010161186f565b508773ffffffffffffffffffffffffffffffffffffffff168973ffffffffffffffffffffffffffffffffffffffff168b73ffffffffffffffffffffffffffffffffffffffff167f4a39dc06d4c0dbc64b70af90fd698a233a518aa5d07e595d983b8c0526c8f7fb8a8a8a8a6040516119379493929190613b6e565b60405180910390a473ffffffffffffffffffffffffffffffffffffffff88163b15611a0057611a008a8a8a8a8a8080602002602001604051908101604052809392919081815260200183836020028082843760009201919091525050604080516020808e0282810182019093528d82529093508d92508c91829185019084908082843760009201919091525050604080516020601f8d018190048102820181019092528b815292508b91508a908190840183828082843760009201919091525061289a92505050565b5050505050505050505050565b60008061055660017fc9ed16f33ab3a66c84bfd83099ccb2a8845871e2e1c1928f63797152f0fd54cd61394e565b815473ffffffffffffffffffffffffffffffffffffffff828116911614610be4576040517f2ef4875e00000000000000000000000000000000000000000000000000000000815273ffffffffffffffffffffffffffffffffffffffff82166004820152602401610722565b60008381526020858152604080832073ffffffffffffffffffffffffffffffffffffffff8616845290915290205460ff16611b775760008381526020858152604080832073ffffffffffffffffffffffffffffffffffffffff8681168086529184529382902080547fffffffffffffffffffffffffffffffffffffffffffffffffffffffffffffff00166001179055815187815292830152918316918101919091527f2f8788117e7eff1d82e926ec794901d17c78024a50270940304540a733656f0d906060015b60405180910390a15b50505050565b3660006107fa612bba565b606083828114611bc4576040517f6582533600000000000000000000000000000000000000000000000000000000815260040160405180910390fd5b8467ffffffffffffffff811115611bdd57611bdd6139e2565b604051908082528060200260200182016040528015611c06578160200160208202803683370190505b50915060005b81811015611c8c57611c67878783818110611c2957611c2961386e565b9050602002016020810190611c3e91906135d6565b868684818110611c5057611c5061386e565b905060200201358a61114f9092919063ffffffff16565b838281518110611c7957611c7961386e565b6020908102919091010152600101611c0c565b505095945050505050565b73ffffffffffffffffffffffffffffffffffffffff8416611ce4576040517f021149bd00000000000000000000000000000000000000000000000000000000815260040160405180910390fd5b611cf0868585856127c9565b604080518481526020810184905273ffffffffffffffffffffffffffffffffffffffff80871692600092918916917fc3d58168c5ae7397731d063d5bbf3d657854427343f4c083240f7aacaa2d0f62910160405180910390a473ffffffffffffffffffffffffffffffffffffffff84163b156108b1576108b185600086868686612d24565b620186a0811115611db5576040517fac04040800000000000000000000000000000000000000000000000000000000815260048101829052602401610722565b81546bffffffffffffffffffffffff909116740100000000000000000000000000000000000000000273ffffffffffffffffffffffffffffffffffffffff909116179055565b6040805173ffffffffffffffffffffffffffffffffffffffff8416602482015260448082018490528251808303909101815260649091019091526020810180517bffffffffffffffffffffffffffffffffffffffffffffffffffffffff167fa9059cbb000000000000000000000000000000000000000000000000000000001790526107ea908490612e42565b611e938382846113d7565b60008181526020848152604080832073ffffffffffffffffffffffffffffffffffffffff86168085529083529281902080547fffffffffffffffffffffffffffffffffffffffffffffffffffffffffffffff0016905580518481529182018390528101919091527ff6391f5c32d9c69d2a47ea670b442974b53935d1edc7fd64eb21e047a839171b9060600160405180910390a1505050565b73ffffffffffffffffffffffffffffffffffffffff8116611f79576040517f16de0c8000000000000000000000000000000000000000000000000000000000815260040160405180910390fd5b81547fffffffffffffffffffffffff00000000000000000000000000000000000000001673ffffffffffffffffffffffffffffffffffffffff91909116179055565b606081600101805461131a90613961565b8273ffffffffffffffffffffffffffffffffffffffff168273ffffffffffffffffffffffffffffffffffffffff1603612049576040517ffb0fdf6100000000000000000000000000000000000000000000000000000000815273ffffffffffffffffffffffffffffffffffffffff84166004820152602401610722565b73ffffffffffffffffffffffffffffffffffffffff838116600081815260018701602090815260408083209487168084529482529182902080547fffffffffffffffffffffffffffffffffffffffffffffffffffffffffffffff001686151590811790915591519182527f17307eab39ab6107e8899845ad3d59bd9653f200f220920489ca2b5937696c31910160405180910390a350505050565b60008381526020858152604080832073ffffffffffffffffffffffffffffffffffffffff8616845290915290205460ff1615611b775760008381526020858152604080832073ffffffffffffffffffffffffffffffffffffffff8681168086529184529382902080547fffffffffffffffffffffffffffffffffffffffffffffffffffffffffffffff00169055815187815292830152918316918101919091527ff6391f5c32d9c69d2a47ea670b442974b53935d1edc7fd64eb21e047a839171b90606001611b6e565b83518351811415806121c1575082518114155b156121f8576040517f6582533600000000000000000000000000000000000000000000000000000000815260040160405180910390fd5b60005b8181101561067857612269878783815181106122195761221961386e565b60200260200101518784815181106122335761223361386e565b602002602001015187858151811061224d5761224d61386e565b6020026020010151878d611c979095949392919063ffffffff16565b6001016121fb565b73ffffffffffffffffffffffffffffffffffffffff85166122be576040517fb5e8901500000000000000000000000000000000000000000000000000000000815260040160405180910390fd5b6122c9888789612998565b61231f576040517f05bbb9c400000000000000000000000000000000000000000000000000000000815273ffffffffffffffffffffffffffffffffffffffff808916600483015287166024820152604401610722565b61232c8887878787612a0d565b8473ffffffffffffffffffffffffffffffffffffffff168673ffffffffffffffffffffffffffffffffffffffff168873ffffffffffffffffffffffffffffffffffffffff167fc3d58168c5ae7397731d063d5bbf3d657854427343f4c083240f7aacaa2d0f6287876040516123ab929190918252602082015260400190565b60405180910390a473ffffffffffffffffffffffffffffffffffffffff85163b1561067857610678878787878787878080601f016020809104026020016040519081016040528093929190818152602001838380828437600092019190915250612d2492505050565b825473ffffffffffffffffffffffffffffffffffffffff9081169083168114612481576040517f2ef4875e00000000000000000000000000000000000000000000000000000000815273ffffffffffffffffffffffffffffffffffffffff84166004820152602401610722565b8173ffffffffffffffffffffffffffffffffffffffff168173ffffffffffffffffffffffffffffffffffffffff1614611b775783547fffffffffffffffffffffffff00000000000000000000000000000000000000001673ffffffffffffffffffffffffffffffffffffffff8381169182178655604051908316907f8be0079c531659141344cd1fd0a4f28419497f9722a3daafe3b4186f6b6457e090600090a350505050565b80471015612592576040517f08c379a000000000000000000000000000000000000000000000000000000000815260206004820152601d60248201527f416464726573733a20696e73756666696369656e742062616c616e63650000006044820152606401610722565b60008273ffffffffffffffffffffffffffffffffffffffff168260405160006040518083038185875af1925050503d80600081146125ec576040519150601f19603f3d011682016040523d82523d6000602084013e6125f1565b606091505b50509050806107ea576040517f08c379a000000000000000000000000000000000000000000000000000000000815260206004820152603a60248201527f416464726573733a20756e61626c6520746f2073656e642076616c75652c207260448201527f6563697069656e74206d617920686176652072657665727465640000000000006064820152608401610722565b6000333214806126925750601836105b1561269c57503390565b7fffffffffffffffffffffffffffffffffffffffffffffffffffffffffffffffec36013560601c7f000000000000000000000000000000000000000000000000000000000000000073ffffffffffffffffffffffffffffffffffffffff163314806127b857506040517f8929a8ca00000000000000000000000000000000000000000000000000000000815273ffffffffffffffffffffffffffffffffffffffff82811660048301523360248301527f00000000000000000000000000000000000000000000000000000000000000001690638929a8ca90604401602060405180830381865afa158015612794573d6000803e3d6000fd5b505050506040513d601f19601f820116820180604052508101906127b89190613902565b156127c257919050565b3391505090565b8015611b775760008281526020858152604080832073ffffffffffffffffffffffffffffffffffffffff87168452909152902054818101818111612866576040517f42fb00bc00000000000000000000000000000000000000000000000000000000815273ffffffffffffffffffffffffffffffffffffffff86166004820152602481018590526044810183905260648101849052608401610722565b60009384526020958652604080852073ffffffffffffffffffffffffffffffffffffffff9690961685529490955250502055565b6040517fbc197c81000000000000000000000000000000000000000000000000000000008082529073ffffffffffffffffffffffffffffffffffffffff86169063bc197c81906128f6908a908a90899089908990600401613b95565b6020604051808303816000875af1158015612915573d6000803e3d6000fd5b505050506040513d601f19601f820116820180604052508101906129399190613c00565b7fffffffff0000000000000000000000000000000000000000000000000000000016146108b1578383836040517fc287817e00000000000000000000000000000000000000000000000000000000815260040161072293929190613c1d565b60008173ffffffffffffffffffffffffffffffffffffffff168373ffffffffffffffffffffffffffffffffffffffff16148061081f57505073ffffffffffffffffffffffffffffffffffffffff9182166000908152600193909301602090815260408085209290931684525290205460ff1690565b8015610a125760008281526020868152604080832073ffffffffffffffffffffffffffffffffffffffff88168452909152902054818103818110612aaa576040517f03dee4c500000000000000000000000000000000000000000000000000000000815273ffffffffffffffffffffffffffffffffffffffff87166004820152602481018590526044810183905260648101849052608401610722565b8473ffffffffffffffffffffffffffffffffffffffff168673ffffffffffffffffffffffffffffffffffffffff16146115e35760008481526020888152604080832073ffffffffffffffffffffffffffffffffffffffff89168452909152902054838101818111612b74576040517f42fb00bc00000000000000000000000000000000000000000000000000000000815273ffffffffffffffffffffffffffffffffffffffff88166004820152602481018790526044810183905260648101869052608401610722565b600086815260208a8152604080832073ffffffffffffffffffffffffffffffffffffffff808d1685528184528285208890558b1684529091529020555050505050505050565b36600033321480612bcb5750601836105b15612bd95750600091369150565b3373ffffffffffffffffffffffffffffffffffffffff7f0000000000000000000000000000000000000000000000000000000000000000161480612d0e575073ffffffffffffffffffffffffffffffffffffffff7f000000000000000000000000000000000000000000000000000000000000000016638929a8ca367fffffffffffffffffffffffffffffffffffffffffffffffffffffffffffffffec013560601c6040517fffffffff0000000000000000000000000000000000000000000000000000000060e084901b16815273ffffffffffffffffffffffffffffffffffffffff9091166004820152336024820152604401602060405180830381865afa158015612cea573d6000803e3d6000fd5b505050506040513d601f19601f82011682018060405250810190612d0e9190613902565b15612d1b576107fa612f51565b50600091369150565b6040517ff23a6e61000000000000000000000000000000000000000000000000000000008082529073ffffffffffffffffffffffffffffffffffffffff86169063f23a6e6190612d80908a908a90899089908990600401613c68565b6020604051808303816000875af1158015612d9f573d6000803e3d6000fd5b505050506040513d601f19601f82011682018060405250810190612dc39190613c00565b7fffffffff0000000000000000000000000000000000000000000000000000000016146108b1576040517f40f39d3800000000000000000000000000000000000000000000000000000000815273ffffffffffffffffffffffffffffffffffffffff851660048201526024810184905260448101839052606401610722565b6000612ea4826040518060400160405280602081526020017f5361666545524332303a206c6f772d6c6576656c2063616c6c206661696c65648152508573ffffffffffffffffffffffffffffffffffffffff16612f829092919063ffffffff16565b9050805160001480612ec5575080806020019051810190612ec59190613902565b6107ea576040517f08c379a000000000000000000000000000000000000000000000000000000000815260206004820152602a60248201527f5361666545524332303a204552433230206f7065726174696f6e20646964206e60448201527f6f742073756363656564000000000000000000000000000000000000000000006064820152608401610722565b3660006107fa7fffffffffffffffffffffffffffffffffffffffffffffffffffffffffffffffec8301828481613cad565b606061081f8484600085856000808673ffffffffffffffffffffffffffffffffffffffff168587604051612fb69190613cd7565b60006040518083038185875af1925050503d8060008114612ff3576040519150601f19603f3d011682016040523d82523d6000602084013e612ff8565b606091505b509150915061300987838387613014565b979650505050505050565b606083156130aa5782516000036130a35773ffffffffffffffffffffffffffffffffffffffff85163b6130a3576040517f08c379a000000000000000000000000000000000000000000000000000000000815260206004820152601d60248201527f416464726573733a2063616c6c20746f206e6f6e2d636f6e74726163740000006044820152606401610722565b508161081f565b61081f83838151156130bf5781518083602001fd5b806040517f08c379a00000000000000000000000000000000000000000000000000000000081526004016107229190613201565b73ffffffffffffffffffffffffffffffffffffffff811681146108de57600080fd5b6000806040838503121561312857600080fd5b8235613133816130f3565b946020939093013593505050565b7fffffffff00000000000000000000000000000000000000000000000000000000811681146108de57600080fd5b60006020828403121561318157600080fd5b813561318c81613141565b9392505050565b60005b838110156131ae578181015183820152602001613196565b50506000910152565b600081518084526131cf816020860160208601613193565b601f017fffffffffffffffffffffffffffffffffffffffffffffffffffffffffffffffe0169290920160200192915050565b60208152600061055360208301846131b7565b60008083601f84011261322657600080fd5b50813567ffffffffffffffff81111561323e57600080fd5b6020830191508360208260051b850101111561078657600080fd5b60008083601f84011261326b57600080fd5b50813567ffffffffffffffff81111561328357600080fd5b60208301915083602082850101111561078657600080fd5b60008060008060008060006080888a0312156132b657600080fd5b87356132c1816130f3565b9650602088013567ffffffffffffffff808211156132de57600080fd5b6132ea8b838c01613214565b909850965060408a013591508082111561330357600080fd5b61330f8b838c01613214565b909650945060608a013591508082111561332857600080fd5b506133358a828b01613259565b989b979a50959850939692959293505050565b60006020828403121561335a57600080fd5b5035919050565b60008060006040848603121561337657600080fd5b83359250602084013567ffffffffffffffff81111561339457600080fd5b6133a086828701613259565b9497909650939450505050565b600080604083850312156133c057600080fd5b50508035926020909101359150565b60008060008060008060008060a0898b0312156133eb57600080fd5b88356133f6816130f3565b97506020890135613406816130f3565b9650604089013567ffffffffffffffff8082111561342357600080fd5b61342f8c838d01613214565b909850965060608b013591508082111561344857600080fd5b6134548c838d01613214565b909650945060808b013591508082111561346d57600080fd5b5061347a8b828c01613259565b999c989b5096995094979396929594505050565b600080604083850312156134a157600080fd5b8235915060208301356134b3816130f3565b809150509250929050565b8183528181602085013750600060208284010152600060207fffffffffffffffffffffffffffffffffffffffffffffffffffffffffffffffe0601f840116840101905092915050565b60208152600061081f6020830184866134be565b6000806000806040858703121561353157600080fd5b843567ffffffffffffffff8082111561354957600080fd5b61355588838901613214565b9096509450602087013591508082111561356e57600080fd5b5061357b87828801613214565b95989497509550505050565b60008151808452602080850194506020840160005b838110156135b85781518752958201959082019060010161359c565b509495945050505050565b6020815260006105536020830184613587565b6000602082840312156135e857600080fd5b813561318c816130f3565b60008060008060006080868803121561360b57600080fd5b8535613616816130f3565b94506020860135935060408601359250606086013567ffffffffffffffff81111561364057600080fd5b61364c88828901613259565b969995985093965092949392505050565b6000806000806000806060878903121561367657600080fd5b863567ffffffffffffffff8082111561368e57600080fd5b61369a8a838b01613214565b909850965060208901359150808211156136b357600080fd5b6136bf8a838b01613214565b909650945060408901359150808211156136d857600080fd5b506136e589828a01613214565b979a9699509497509295939492505050565b80151581146108de57600080fd5b6000806040838503121561371857600080fd5b8235613723816130f3565b915060208301356134b3816136f7565b6000806000806000806000806080898b03121561374f57600080fd5b883567ffffffffffffffff8082111561376757600080fd5b6137738c838d01613214565b909a50985060208b013591508082111561378c57600080fd5b6137988c838d01613214565b909850965060408b01359150808211156137b157600080fd5b6137bd8c838d01613214565b909650945060608b013591508082111561346d57600080fd5b600080604083850312156137e957600080fd5b82356137f4816130f3565b915060208301356134b3816130f3565b60008060008060008060a0878903121561381d57600080fd5b8635613828816130f3565b95506020870135613838816130f3565b94506040870135935060608701359250608087013567ffffffffffffffff81111561386257600080fd5b6136e589828a01613259565b7f4e487b7100000000000000000000000000000000000000000000000000000000600052603260045260246000fd5b60008083357fffffffffffffffffffffffffffffffffffffffffffffffffffffffffffffffe18436030181126138d257600080fd5b83018035915067ffffffffffffffff8211156138ed57600080fd5b60200191503681900382131561078657600080fd5b60006020828403121561391457600080fd5b815161318c816136f7565b7f4e487b7100000000000000000000000000000000000000000000000000000000600052601160045260246000fd5b818103818111156105565761055661391f565b600181811c9082168061397557607f821691505b6020821081036139ae577f4e487b7100000000000000000000000000000000000000000000000000000000600052602260045260246000fd5b50919050565b6040815260006139c76040830185613587565b82810360208401526139d98185613587565b95945050505050565b7f4e487b7100000000000000000000000000000000000000000000000000000000600052604160045260246000fd5b600060208284031215613a2357600080fd5b815167ffffffffffffffff80821115613a3b57600080fd5b818401915084601f830112613a4f57600080fd5b815181811115613a6157613a616139e2565b604051601f82017fffffffffffffffffffffffffffffffffffffffffffffffffffffffffffffffe0908116603f01168101908382118183101715613aa757613aa76139e2565b81604052828152876020848701011115613ac057600080fd5b613009836020830160208801613193565b80820281158282048414176105565761055661391f565b600082613b1e577f4e487b7100000000000000000000000000000000000000000000000000000000600052601260045260246000fd5b500490565b81835260007f07ffffffffffffffffffffffffffffffffffffffffffffffffffffffffffffff831115613b5557600080fd5b8260051b80836020870137939093016020019392505050565b604081526000613b82604083018688613b23565b8281036020840152613009818587613b23565b600073ffffffffffffffffffffffffffffffffffffffff808816835280871660208401525060a06040830152613bce60a0830186613587565b8281036060840152613be08186613587565b90508281036080840152613bf481856131b7565b98975050505050505050565b600060208284031215613c1257600080fd5b815161318c81613141565b73ffffffffffffffffffffffffffffffffffffffff84168152606060208201526000613c4c6060830185613587565b8281036040840152613c5e8185613587565b9695505050505050565b600073ffffffffffffffffffffffffffffffffffffffff808816835280871660208401525084604083015283606083015260a0608083015261300960a08301846131b7565b60008085851115613cbd57600080fd5b83861115613cca57600080fd5b5050820193919092039150565b60008251613ce9818460208701613193565b919091019291505056fea2646970667358221220987a07f3c9dc4434687946545cd23ff07e9f5a71e7bb66462e1586cbd4de65af64736f6c63430008180033",
  "linkReferences": {},
  "deployedLinkReferences": {}
}