{
  "_format": "hh-sol-artifact-1",
  "contractName": "ERC1155FullMock",
  "sourceName": "contracts/mocks/token/ERC1155/preset/ERC1155FullMock.sol",
  "abi": [
    {
      "inputs": [
        {
          "internalType": "string",
          "name": "tokenName",
          "type": "string"
        },
        {
          "internalType": "string",
          "name": "tokenSymbol",
          "type": "string"
        },
        {
          "internalType": "contract ITokenMetadataResolver",
          "name": "metadataResolver",
          "type": "address"
        },
        {
          "internalType": "contract IOperatorFilterRegistry",
          "name": "filterRegistry",
          "type": "address"
        },
        {
          "internalType": "contract IForwarderRegistry",
          "name": "forwarderRegistry",
          "type": "address"
        }
      ],
      "stateMutability": "nonpayable",
      "type": "constructor"
    },
    {
      "inputs": [],
      "name": "ERC1155BalanceOfAddressZero",
      "type": "error"
    },
    {
      "inputs": [
        {
          "internalType": "address",
          "name": "recipient",
          "type": "address"
        },
        {
          "internalType": "uint256",
          "name": "id",
          "type": "uint256"
        },
        {
          "internalType": "uint256",
          "name": "balance",
          "type": "uint256"
        },
        {
          "internalType": "uint256",
          "name": "value",
          "type": "uint256"
        }
      ],
      "name": "ERC1155BalanceOverflow",
      "type": "error"
    },
    {
      "inputs": [
        {
          "internalType": "address",
          "name": "owner",
          "type": "address"
        },
        {
          "internalType": "uint256",
          "name": "id",
          "type": "uint256"
        },
        {
          "internalType": "uint256",
          "name": "balance",
          "type": "uint256"
        },
        {
          "internalType": "uint256",
          "name": "value",
          "type": "uint256"
        }
      ],
      "name": "ERC1155InsufficientBalance",
      "type": "error"
    },
    {
      "inputs": [],
      "name": "ERC1155MintToAddressZero",
      "type": "error"
    },
    {
      "inputs": [
        {
          "internalType": "address",
          "name": "sender",
          "type": "address"
        },
        {
          "internalType": "address",
          "name": "owner",
          "type": "address"
        }
      ],
      "name": "ERC1155NonApproved",
      "type": "error"
    },
    {
      "inputs": [
        {
          "internalType": "address",
          "name": "recipient",
          "type": "address"
        },
        {
          "internalType": "uint256[]",
          "name": "ids",
          "type": "uint256[]"
        },
        {
          "internalType": "uint256[]",
          "name": "values",
          "type": "uint256[]"
        }
      ],
      "name": "ERC1155SafeBatchTransferRejected",
      "type": "error"
    },
    {
      "inputs": [
        {
          "internalType": "address",
          "name": "recipient",
          "type": "address"
        },
        {
          "internalType": "uint256",
          "name": "id",
          "type": "uint256"
        },
        {
          "internalType": "uint256",
          "name": "value",
          "type": "uint256"
        }
      ],
      "name": "ERC1155SafeTransferRejected",
      "type": "error"
    },
    {
      "inputs": [
        {
          "internalType": "address",
          "name": "account",
          "type": "address"
        }
      ],
      "name": "ERC1155SelfApprovalForAll",
      "type": "error"
    },
    {
      "inputs": [],
      "name": "ERC1155TransferToAddressZero",
      "type": "error"
    },
    {
      "inputs": [
        {
          "internalType": "uint256",
          "name": "percentage",
          "type": "uint256"
        }
      ],
      "name": "ERC2981IncorrectRoyaltyPercentage",
      "type": "error"
    },
    {
      "inputs": [],
      "name": "ERC2981IncorrectRoyaltyReceiver",
      "type": "error"
    },
    {
      "inputs": [],
      "name": "IllegalInterfaceId",
      "type": "error"
    },
    {
      "inputs": [],
      "name": "InconsistentArrayLengths",
      "type": "error"
    },
    {
      "inputs": [
        {
          "internalType": "address",
          "name": "account",
          "type": "address"
        }
      ],
      "name": "NotContractOwner",
      "type": "error"
    },
    {
      "inputs": [
        {
          "internalType": "address",
          "name": "account",
          "type": "address"
        }
      ],
      "name": "NotMetadataResolver",
      "type": "error"
    },
    {
      "inputs": [
        {
          "internalType": "bytes32",
          "name": "role",
          "type": "bytes32"
        },
        {
          "internalType": "address",
          "name": "account",
          "type": "address"
        }
      ],
      "name": "NotRoleHolder",
      "type": "error"
    },
    {
      "inputs": [
        {
          "internalType": "address",
          "name": "operator",
          "type": "address"
        }
      ],
      "name": "OperatorNotAllowed",
      "type": "error"
    },
    {
      "anonymous": false,
      "inputs": [
        {
          "indexed": true,
          "internalType": "address",
          "name": "owner",
          "type": "address"
        },
        {
          "indexed": true,
          "internalType": "address",
          "name": "operator",
          "type": "address"
        },
        {
          "indexed": false,
          "internalType": "bool",
          "name": "approved",
          "type": "bool"
        }
      ],
      "name": "ApprovalForAll",
      "type": "event"
    },
    {
      "anonymous": false,
      "inputs": [
        {
          "indexed": true,
          "internalType": "address",
          "name": "previousOwner",
          "type": "address"
        },
        {
          "indexed": true,
          "internalType": "address",
          "name": "newOwner",
          "type": "address"
        }
      ],
      "name": "OwnershipTransferred",
      "type": "event"
    },
    {
      "anonymous": false,
      "inputs": [
        {
          "indexed": false,
          "internalType": "bytes32",
          "name": "role",
          "type": "bytes32"
        },
        {
          "indexed": false,
          "internalType": "address",
          "name": "account",
          "type": "address"
        },
        {
          "indexed": false,
          "internalType": "address",
          "name": "operator",
          "type": "address"
        }
      ],
      "name": "RoleGranted",
      "type": "event"
    },
    {
      "anonymous": false,
      "inputs": [
        {
          "indexed": false,
          "internalType": "bytes32",
          "name": "role",
          "type": "bytes32"
        },
        {
          "indexed": false,
          "internalType": "address",
          "name": "account",
          "type": "address"
        },
        {
          "indexed": false,
          "internalType": "address",
          "name": "operator",
          "type": "address"
        }
      ],
      "name": "RoleRevoked",
      "type": "event"
    },
    {
      "anonymous": false,
      "inputs": [
        {
          "indexed": true,
          "internalType": "address",
          "name": "operator",
          "type": "address"
        },
        {
          "indexed": true,
          "internalType": "address",
          "name": "from",
          "type": "address"
        },
        {
          "indexed": true,
          "internalType": "address",
          "name": "to",
          "type": "address"
        },
        {
          "indexed": false,
          "internalType": "uint256[]",
          "name": "ids",
          "type": "uint256[]"
        },
        {
          "indexed": false,
          "internalType": "uint256[]",
          "name": "values",
          "type": "uint256[]"
        }
      ],
      "name": "TransferBatch",
      "type": "event"
    },
    {
      "anonymous": false,
      "inputs": [
        {
          "indexed": true,
          "internalType": "address",
          "name": "operator",
          "type": "address"
        },
        {
          "indexed": true,
          "internalType": "address",
          "name": "from",
          "type": "address"
        },
        {
          "indexed": true,
          "internalType": "address",
          "name": "to",
          "type": "address"
        },
        {
          "indexed": false,
          "internalType": "uint256",
          "name": "id",
          "type": "uint256"
        },
        {
          "indexed": false,
          "internalType": "uint256",
          "name": "value",
          "type": "uint256"
        }
      ],
      "name": "TransferSingle",
      "type": "event"
    },
    {
      "anonymous": false,
      "inputs": [
        {
          "indexed": false,
          "internalType": "string",
          "name": "value",
          "type": "string"
        },
        {
          "indexed": true,
          "internalType": "uint256",
          "name": "id",
          "type": "uint256"
        }
      ],
      "name": "URI",
      "type": "event"
    },
    {
      "inputs": [],
      "name": "MINTER_ROLE",
      "outputs": [
        {
          "internalType": "bytes32",
          "name": "",
          "type": "bytes32"
        }
      ],
      "stateMutability": "view",
      "type": "function"
    },
    {
      "inputs": [],
      "name": "ROYALTY_FEE_DENOMINATOR",
      "outputs": [
        {
          "internalType": "uint256",
          "name": "",
          "type": "uint256"
        }
      ],
      "stateMutability": "view",
      "type": "function"
    },
    {
      "inputs": [],
      "name": "__msgData",
      "outputs": [
        {
          "internalType": "bytes",
          "name": "",
          "type": "bytes"
        }
      ],
      "stateMutability": "view",
      "type": "function"
    },
    {
      "inputs": [
        {
          "internalType": "address",
          "name": "owner",
          "type": "address"
        },
        {
          "internalType": "uint256",
          "name": "id",
          "type": "uint256"
        }
      ],
      "name": "balanceOf",
      "outputs": [
        {
          "internalType": "uint256",
          "name": "balance",
          "type": "uint256"
        }
      ],
      "stateMutability": "view",
      "type": "function"
    },
    {
      "inputs": [
        {
          "internalType": "address[]",
          "name": "owners",
          "type": "address[]"
        },
        {
          "internalType": "uint256[]",
          "name": "ids",
          "type": "uint256[]"
        }
      ],
      "name": "balanceOfBatch",
      "outputs": [
        {
          "internalType": "uint256[]",
          "name": "balances",
          "type": "uint256[]"
        }
      ],
      "stateMutability": "view",
      "type": "function"
    },
    {
      "inputs": [
        {
          "internalType": "uint256[]",
          "name": "tokenIds",
          "type": "uint256[]"
        },
        {
          "internalType": "string[]",
          "name": "tokenURIs",
          "type": "string[]"
        }
      ],
      "name": "batchSetTokenURI",
      "outputs": [],
      "stateMutability": "nonpayable",
      "type": "function"
    },
    {
      "inputs": [],
      "name": "forwarderRegistry",
      "outputs": [
        {
          "internalType": "contract IForwarderRegistry",
          "name": "",
          "type": "address"
        }
      ],
      "stateMutability": "view",
      "type": "function"
    },
    {
      "inputs": [
        {
          "internalType": "bytes32",
          "name": "role",
          "type": "bytes32"
        },
        {
          "internalType": "address",
          "name": "account",
          "type": "address"
        }
      ],
      "name": "grantRole",
      "outputs": [],
      "stateMutability": "nonpayable",
      "type": "function"
    },
    {
      "inputs": [
        {
          "internalType": "bytes32",
          "name": "role",
          "type": "bytes32"
        },
        {
          "internalType": "address",
          "name": "account",
          "type": "address"
        }
      ],
      "name": "hasRole",
      "outputs": [
        {
          "internalType": "bool",
          "name": "hasRole_",
          "type": "bool"
        }
      ],
      "stateMutability": "view",
      "type": "function"
    },
    {
      "inputs": [
        {
          "internalType": "address",
          "name": "owner",
          "type": "address"
        },
        {
          "internalType": "address",
          "name": "operator",
          "type": "address"
        }
      ],
      "name": "isApprovedForAll",
      "outputs": [
        {
          "internalType": "bool",
          "name": "approvedForAll",
          "type": "bool"
        }
      ],
      "stateMutability": "view",
      "type": "function"
    },
    {
      "inputs": [
        {
          "internalType": "address",
          "name": "forwarder",
          "type": "address"
        }
      ],
      "name": "isTrustedForwarder",
      "outputs": [
        {
          "internalType": "bool",
          "name": "",
          "type": "bool"
        }
      ],
      "stateMutability": "view",
      "type": "function"
    },
    {
      "inputs": [],
      "name": "metadataResolver",
      "outputs": [
        {
          "internalType": "contract ITokenMetadataResolver",
          "name": "tokenMetadataResolver",
          "type": "address"
        }
      ],
      "stateMutability": "view",
      "type": "function"
    },
    {
      "inputs": [],
      "name": "name",
      "outputs": [
        {
          "internalType": "string",
          "name": "tokenName",
          "type": "string"
        }
      ],
      "stateMutability": "view",
      "type": "function"
    },
    {
      "inputs": [],
      "name": "operatorFilterRegistry",
      "outputs": [
        {
          "internalType": "contract IOperatorFilterRegistry",
          "name": "",
          "type": "address"
        }
      ],
      "stateMutability": "view",
      "type": "function"
    },
    {
      "inputs": [],
      "name": "owner",
      "outputs": [
        {
          "internalType": "address",
          "name": "",
          "type": "address"
        }
      ],
      "stateMutability": "view",
      "type": "function"
    },
    {
      "inputs": [
        {
          "internalType": "address[]",
          "name": "accounts",
          "type": "address[]"
        },
        {
          "internalType": "contract IERC20[]",
          "name": "tokens",
          "type": "address[]"
        },
        {
          "internalType": "uint256[]",
          "name": "amounts",
          "type": "uint256[]"
        }
      ],
      "name": "recoverERC20s",
      "outputs": [],
      "stateMutability": "nonpayable",
      "type": "function"
    },
    {
      "inputs": [
        {
          "internalType": "address[]",
          "name": "accounts",
          "type": "address[]"
        },
        {
          "internalType": "contract IERC721[]",
          "name": "contracts",
          "type": "address[]"
        },
        {
          "internalType": "uint256[]",
          "name": "tokenIds",
          "type": "uint256[]"
        }
      ],
      "name": "recoverERC721s",
      "outputs": [],
      "stateMutability": "nonpayable",
      "type": "function"
    },
    {
      "inputs": [
        {
          "internalType": "address payable[]",
          "name": "accounts",
          "type": "address[]"
        },
        {
          "internalType": "uint256[]",
          "name": "amounts",
          "type": "uint256[]"
        }
      ],
      "name": "recoverETH",
      "outputs": [],
      "stateMutability": "nonpayable",
      "type": "function"
    },
    {
      "inputs": [
        {
          "internalType": "bytes32",
          "name": "role",
          "type": "bytes32"
        }
      ],
      "name": "renounceRole",
      "outputs": [],
      "stateMutability": "nonpayable",
      "type": "function"
    },
    {
      "inputs": [
        {
          "internalType": "bytes32",
          "name": "role",
          "type": "bytes32"
        },
        {
          "internalType": "address",
          "name": "account",
          "type": "address"
        }
      ],
      "name": "revokeRole",
      "outputs": [],
      "stateMutability": "nonpayable",
      "type": "function"
    },
    {
      "inputs": [
        {
          "internalType": "uint256",
          "name": "tokenId",
          "type": "uint256"
        },
        {
          "internalType": "uint256",
          "name": "salePrice",
          "type": "uint256"
        }
      ],
      "name": "royaltyInfo",
      "outputs": [
        {
          "internalType": "address",
          "name": "receiver",
          "type": "address"
        },
        {
          "internalType": "uint256",
          "name": "royaltyAmount",
          "type": "uint256"
        }
      ],
      "stateMutability": "view",
      "type": "function"
    },
    {
      "inputs": [
        {
          "internalType": "address",
          "name": "to",
          "type": "address"
        },
        {
          "internalType": "uint256[]",
          "name": "ids",
          "type": "uint256[]"
        },
        {
          "internalType": "uint256[]",
          "name": "values",
          "type": "uint256[]"
        },
        {
          "internalType": "bytes",
          "name": "data",
          "type": "bytes"
        }
      ],
      "name": "safeBatchMint",
      "outputs": [],
      "stateMutability": "nonpayable",
      "type": "function"
    },
    {
      "inputs": [
        {
          "internalType": "address",
          "name": "from",
          "type": "address"
        },
        {
          "internalType": "address",
          "name": "to",
          "type": "address"
        },
        {
          "internalType": "uint256[]",
          "name": "ids",
          "type": "uint256[]"
        },
        {
          "internalType": "uint256[]",
          "name": "values",
          "type": "uint256[]"
        },
        {
          "internalType": "bytes",
          "name": "data",
          "type": "bytes"
        }
      ],
      "name": "safeBatchTransferFrom",
      "outputs": [],
      "stateMutability": "nonpayable",
      "type": "function"
    },
    {
      "inputs": [
        {
          "internalType": "address[]",
          "name": "recipients",
          "type": "address[]"
        },
        {
          "internalType": "uint256[]",
          "name": "ids",
          "type": "uint256[]"
        },
        {
          "internalType": "uint256[]",
          "name": "values",
          "type": "uint256[]"
        },
        {
          "internalType": "bytes",
          "name": "data",
          "type": "bytes"
        }
      ],
      "name": "safeDeliver",
      "outputs": [],
      "stateMutability": "nonpayable",
      "type": "function"
    },
    {
      "inputs": [
        {
          "internalType": "address",
          "name": "to",
          "type": "address"
        },
        {
          "internalType": "uint256",
          "name": "id",
          "type": "uint256"
        },
        {
          "internalType": "uint256",
          "name": "value",
          "type": "uint256"
        },
        {
          "internalType": "bytes",
          "name": "data",
          "type": "bytes"
        }
      ],
      "name": "safeMint",
      "outputs": [],
      "stateMutability": "nonpayable",
      "type": "function"
    },
    {
      "inputs": [
        {
          "internalType": "address",
          "name": "from",
          "type": "address"
        },
        {
          "internalType": "address",
          "name": "to",
          "type": "address"
        },
        {
          "internalType": "uint256",
          "name": "id",
          "type": "uint256"
        },
        {
          "internalType": "uint256",
          "name": "value",
          "type": "uint256"
        },
        {
          "internalType": "bytes",
          "name": "data",
          "type": "bytes"
        }
      ],
      "name": "safeTransferFrom",
      "outputs": [],
      "stateMutability": "nonpayable",
      "type": "function"
    },
    {
      "inputs": [
        {
          "internalType": "address",
          "name": "operator",
          "type": "address"
        },
        {
          "internalType": "bool",
          "name": "approved",
          "type": "bool"
        }
      ],
      "name": "setApprovalForAll",
      "outputs": [],
      "stateMutability": "nonpayable",
      "type": "function"
    },
    {
      "inputs": [
        {
          "internalType": "uint256",
          "name": "percentage",
          "type": "uint256"
        }
      ],
      "name": "setRoyaltyPercentage",
      "outputs": [],
      "stateMutability": "nonpayable",
      "type": "function"
    },
    {
      "inputs": [
        {
          "internalType": "address",
          "name": "receiver",
          "type": "address"
        }
      ],
      "name": "setRoyaltyReceiver",
      "outputs": [],
      "stateMutability": "nonpayable",
      "type": "function"
    },
    {
      "inputs": [
        {
          "internalType": "uint256",
          "name": "tokenId",
          "type": "uint256"
        },
        {
          "internalType": "string",
          "name": "tokenURI",
          "type": "string"
        }
      ],
      "name": "setTokenURI",
      "outputs": [],
      "stateMutability": "nonpayable",
      "type": "function"
    },
    {
      "inputs": [
        {
          "internalType": "bytes4",
          "name": "interfaceId",
          "type": "bytes4"
        }
      ],
      "name": "supportsInterface",
      "outputs": [
        {
          "internalType": "bool",
          "name": "",
          "type": "bool"
        }
      ],
      "stateMutability": "view",
      "type": "function"
    },
    {
      "inputs": [],
      "name": "symbol",
      "outputs": [
        {
          "internalType": "string",
          "name": "tokenSymbol",
          "type": "string"
        }
      ],
      "stateMutability": "view",
      "type": "function"
    },
    {
      "inputs": [
        {
          "internalType": "address",
          "name": "newOwner",
          "type": "address"
        }
      ],
      "name": "transferOwnership",
      "outputs": [],
      "stateMutability": "nonpayable",
      "type": "function"
    },
    {
      "inputs": [
        {
          "internalType": "contract IOperatorFilterRegistry",
          "name": "registry",
          "type": "address"
        }
      ],
      "name": "updateOperatorFilterRegistry",
      "outputs": [],
      "stateMutability": "nonpayable",
      "type": "function"
    },
    {
      "inputs": [
        {
          "internalType": "uint256",
          "name": "tokenId",
          "type": "uint256"
        }
      ],
      "name": "uri",
      "outputs": [
        {
          "internalType": "string",
          "name": "metadataURI",
          "type": "string"
        }
      ],
      "stateMutability": "view",
      "type": "function"
    }
  ],
  "bytecode": "0x60a06040523480156200001157600080fd5b50604051620045213803806200452183398101604081905262000034916200042b565b84848484848080868686863362000056816200004f620000f3565b9062000129565b5062000061620001a4565b6200008e8162000070620001be565b9081546001600160a01b0319166001600160a01b0391909116179055565b50620000a9838383620000a0620001ee565b9291906200021e565b620000b362000265565b50620000c19150506200027d565b620000cb62000295565b620000d5620002ad565b6001600160a01b031660805250620006549950505050505050505050565b6000806200012360017fc9ed16f33ab3a66c84bfd83099ccb2a8845871e2e1c1928f63797152f0fd54cd620004d7565b92915050565b6001600160a01b03811615620001805781546001600160a01b0319166001600160a01b03821690811783556040516000907f8be0079c531659141344cd1fd0a4f28419497f9722a3daafe3b4186f6b6457e0908290a35b620001a06307f5828d60e41b600162000198620002c0565b9190620002f0565b5050565b620001bc636cdb3d1360e11b600162000198620002c0565b565b6000806200012360017f609b85bcafa81ecfaf3ff62cdde2c6c9082a68dbe4922f07399c706bdeb7cd31620004d7565b6000806200012360017f7ea68fd2dcf1c056b94db6a0a537aa80d26fa9ab1eacd85da1ba0b61b7e7a8a5620004d7565b836200022b848262000588565b50600184016200023c838262000588565b5060029390930180546001600160a01b0319166001600160a01b03909416939093179092555050565b620001bc6303a24d0760e21b600162000198620002c0565b620001bc631464324b60e21b600162000198620002c0565b620001bc633a2ae73360e21b600162000198620002c0565b620001bc63152a902d60e11b6001620001985b6000806200012360017fca9d3e17f264b0f3984e2634e94adb37fa3e6a8103f06aeae6fa59e21c769f5e620004d7565b600160e01b6001600160e01b03198316016200031f576040516372c683bb60e01b815260040160405180910390fd5b6001600160e01b03199190911660009081526020929092526040909120805460ff1916911515919091179055565b634e487b7160e01b600052604160045260246000fd5b600082601f8301126200037557600080fd5b81516001600160401b03808211156200039257620003926200034d565b604051601f8301601f19908116603f01168101908282118183101715620003bd57620003bd6200034d565b81604052838152602092508683858801011115620003da57600080fd5b600091505b83821015620003fe5785820183015181830184015290820190620003df565b600093810190920192909252949350505050565b6001600160a01b03811681146200042857600080fd5b50565b600080600080600060a086880312156200044457600080fd5b85516001600160401b03808211156200045c57600080fd5b6200046a89838a0162000363565b965060208801519150808211156200048157600080fd5b50620004908882890162000363565b9450506040860151620004a38162000412565b6060870151909350620004b68162000412565b6080870151909250620004c98162000412565b809150509295509295909350565b818103818111156200012357634e487b7160e01b600052601160045260246000fd5b600181811c908216806200050e57607f821691505b6020821081036200052f57634e487b7160e01b600052602260045260246000fd5b50919050565b601f8211156200058357600081815260208120601f850160051c810160208610156200055e5750805b601f850160051c820191505b818110156200057f578281556001016200056a565b5050505b505050565b81516001600160401b03811115620005a457620005a46200034d565b620005bc81620005b58454620004f9565b8462000535565b602080601f831160018114620005f45760008415620005db5750858301515b600019600386901b1c1916600185901b1785556200057f565b600085815260208120601f198616915b82811015620006255788860151825594840194600190910190840162000604565b5085821015620006445787850151600019600388901b60f8161c191681555b5050505050600190811b01905550565b608051613e8e6200069360003960008181610332015281816103e3015281816127040152818161278c01528181612d570152612d950152613e8e6000f3fe608060405234801561001057600080fd5b50600436106102405760003560e01c806373c8a95811610145578063c3666c36116100bd578063e8ab9ccc1161008c578063f242432a11610071578063f242432a14610555578063f2fde38b14610568578063f7ba94bd1461057b57600080fd5b8063e8ab9ccc1461052f578063e985e9c51461054257600080fd5b8063c3666c36146104d8578063d5391393146104eb578063d547741f14610512578063e1a8bf2c1461052557600080fd5b806391d1485411610114578063a0c76f62116100f9578063a0c76f62146104b5578063a22cb465146104bd578063b0ccc31e146104d057600080fd5b806391d148541461049a57806395d89b41146104ad57600080fd5b806373c8a958146104595780638bb9c5bf1461046c5780638da5cb5b1461047f5780638dc251e31461048757600080fd5b80632b4c9f16116101d85780634e1273f4116101a75780635cfa92971161018c5780635cfa92971461042057806361ba27da146104335780636706467b1461044657600080fd5b80634e1273f4146103b3578063572b6c05146103d357600080fd5b80632b4c9f16146103305780632eb2c2d6146103775780632f2ff15d1461038a57806331e66e1e1461039d57600080fd5b80630e89341c116102145780630e89341c146102b8578063114ba8ee146102cb578063162094c4146102de5780632a55205a146102f157600080fd5b8062fdd58e1461024557806301ffc9a71461026b57806306fdde031461028e5780630d6a5bbb146102a3575b600080fd5b61025861025336600461327b565b61058e565b6040519081526020015b60405180910390f35b61027e6102793660046132d5565b6105ad565b6040519015158152602001610262565b6102966105c1565b6040516102629190613367565b6102b66102b1366004613401565b6105d8565b005b6102966102c63660046134ae565b6106d3565b6102b66102d93660046134c7565b6106e9565b6102b66102ec3660046134e4565b610754565b6103046102ff366004613530565b610826565b6040805173ffffffffffffffffffffffffffffffffffffffff9093168352602083019190915201610262565b7f00000000000000000000000000000000000000000000000000000000000000005b60405173ffffffffffffffffffffffffffffffffffffffff9091168152602001610262565b6102b6610385366004613552565b610849565b6102b6610398366004613611565b610896565b6103a56108c9565b60405161026292919061368a565b6103c66103c136600461369e565b6108dc565b6040516102629190613745565b61027e6103e13660046134c7565b7f000000000000000000000000000000000000000000000000000000000000000073ffffffffffffffffffffffffffffffffffffffff90811691161490565b6102b661042e366004613758565b610901565b6102b66104413660046134ae565b610993565b6102b661045436600461369e565b6109b0565b6102b66104673660046137c2565b610ae7565b6102b661047a3660046134ae565b610bd2565b610352610bed565b6102b66104953660046134c7565b610c14565b61027e6104a8366004613611565b610c31565b610296610c75565b610352610c87565b6102b66104cb36600461386a565b610c94565b610352610ccd565b6102b66104e63660046137c2565b610cda565b6102587f6d696e746572000000000000000000000000000000000000000000000000000081565b6102b6610520366004613611565b610e51565b610258620186a081565b6102b661053d366004613898565b610e7f565b61027e61055036600461393b565b610f99565b6102b6610563366004613969565b610fe7565b6102b66105763660046134c7565b611027565b6102b661058936600461369e565b611042565b60006105a4838361059d6110f8565b9190611126565b90505b92915050565b60006105a7826105bb6111aa565b906111d8565b60606105d36105ce6112b2565b6112e0565b905090565b60006105e2611376565b90506106187f6d696e746572000000000000000000000000000000000000000000000000000082610611611380565b91906113ae565b6106c9818989898080602002602001604051908101604052809392919081815260200183836020028082843760009201919091525050604080516020808d0282810182019093528c82529093508c92508b91829185019084908082843760009201919091525050604080516020601f8c018190048102820181019092528a815292508a91508990819084018382808284376000920191909152506106bf92506110f8915050565b9493929190611434565b5050505050505050565b60606105a730836106e26112b2565b91906115b9565b6107026106f4611376565b6106fc611679565b906116a7565b6107518161070e611712565b9081547fffffffffffffffffffffffff00000000000000000000000000000000000000001673ffffffffffffffffffffffffffffffffffffffff91909116179055565b50565b61077c61075f6112b2565b6002015473ffffffffffffffffffffffffffffffffffffffff1690565b73ffffffffffffffffffffffffffffffffffffffff163373ffffffffffffffffffffffffffffffffffffffff16146107e7576040517f220606710000000000000000000000000000000000000000000000000000000081523360048201526024015b60405180910390fd5b827f6bb7ff708619ba0610cba295a58592e0451dee2622938c8755667688daf3529b838360405161081992919061368a565b60405180910390a2505050565b60008061083d8484610836611782565b91906117b0565b915091505b9250929050565b6000610853611376565b9050610869818a610862611712565b919061185a565b61088b818a8a8a8a8a8a8a8a61087d6110f8565b989796959493929190611897565b505050505050505050565b60006108a0611376565b90506108ae816106fc611679565b6108c48383836108bc611380565b929190611b1f565b505050565b3660006108d4611bf6565b915091509091565b60606108f6858585856108ed6110f8565b93929190611c01565b90505b949350505050565b600061090b611376565b905061093a7f6d696e746572000000000000000000000000000000000000000000000000000082610611611380565b61098b8187878787878080601f01602080910402602001604051908101604052809392919081815260200183838082843760009201919091525061098192506110f8915050565b9493929190611d0f565b505050505050565b61099e6106f4611376565b610751816109aa611782565b90611ded565b8281146109e9576040517f6582533600000000000000000000000000000000000000000000000000000000815260040160405180910390fd5b6109f461075f6112b2565b73ffffffffffffffffffffffffffffffffffffffff163373ffffffffffffffffffffffffffffffffffffffff1614610a5a576040517f220606710000000000000000000000000000000000000000000000000000000081523360048201526024016107de565b60005b808414610ae057848482818110610a7657610a766139d3565b905060200201357f6bb7ff708619ba0610cba295a58592e0451dee2622938c8755667688daf3529b848484818110610ab057610ab06139d3565b9050602002810190610ac29190613a02565b604051610ad092919061368a565b60405180910390a2600101610a5d565b5050505050565b610af26106f4611376565b848381141580610b025750808214155b15610b39576040517f6582533600000000000000000000000000000000000000000000000000000000815260040160405180910390fd5b60005b8181146106c957610bca888883818110610b5857610b586139d3565b9050602002016020810190610b6d91906134c7565b858584818110610b7f57610b7f6139d3565b90506020020135888885818110610b9857610b986139d3565b9050602002016020810190610bad91906134c7565b73ffffffffffffffffffffffffffffffffffffffff169190611e73565b600101610b3c565b610751610bdd611376565b82610be6611380565b9190611f00565b60006105d3610bfa611679565b5473ffffffffffffffffffffffffffffffffffffffff1690565b610c1f6106f4611376565b61075181610c2b611782565b90611fa4565b60006105a48383610c40611380565b60009283526020908152604080842073ffffffffffffffffffffffffffffffffffffffff909316845291905290205460ff1690565b60606105d3610c826112b2565b611ff1565b60006105d361075f6112b2565b8015610cac57610cac82610ca6611712565b90612002565b610cc9610cb7611376565b8383610cc16110f8565b92919061200c565b5050565b60006105d3610bfa611712565b610ce56106f4611376565b848381141580610cf55750808214155b15610d2c576040517f6582533600000000000000000000000000000000000000000000000000000000815260040160405180910390fd5b60005b8181146106c957858582818110610d4857610d486139d3565b9050602002016020810190610d5d91906134c7565b73ffffffffffffffffffffffffffffffffffffffff166323b872dd308a8a85818110610d8b57610d8b6139d3565b9050602002016020810190610da091906134c7565b878786818110610db257610db26139d3565b6040517fffffffff0000000000000000000000000000000000000000000000000000000060e088901b16815273ffffffffffffffffffffffffffffffffffffffff958616600482015294909316602485015250602090910201356044820152606401600060405180830381600087803b158015610e2e57600080fd5b505af1158015610e42573d6000803e3d6000fd5b50505050806001019050610d2f565b6000610e5b611376565b9050610e69816106fc611679565b6108c4838383610e77611380565b929190612124565b6000610e89611376565b9050610eb87f6d696e746572000000000000000000000000000000000000000000000000000082610611611380565b61088b818a8a8080602002602001604051908101604052809392919081815260200183836020028082843760009201919091525050604080516020808e0282810182019093528d82529093508d92508c91829185019084908082843760009201919091525050604080516020808d0282810182019093528c82529093508c92508b91829185019084908082843760009201919091525050604080516020601f8c018190048102820181019092528a815292508a9150899081908401838280828437600092019190915250610f8f92506110f8915050565b94939291906121ee565b60006105a48383610fa86110f8565b919073ffffffffffffffffffffffffffffffffffffffff9182166000908152600193909301602090815260408085209290931684525290205460ff1690565b6000610ff1611376565b90506110008188610862611712565b61101e818888888888886110126110f8565b969594939291906122b0565b50505050505050565b610751611032611376565b8261103b611679565b9190612453565b61104d6106f4611376565b82818114611087576040517f6582533600000000000000000000000000000000000000000000000000000000815260040160405180910390fd5b60005b81811461098b576110f08484838181106110a6576110a66139d3565b905060200201358787848181106110bf576110bf6139d3565b90506020020160208101906110d491906134c7565b73ffffffffffffffffffffffffffffffffffffffff1690612567565b60010161108a565b6000806105a760017f5ccf5846fa27a68fafc8e588671a68f5e67c2f9b56af4263806a4d71735e8613613a96565b600073ffffffffffffffffffffffffffffffffffffffff8316611175576040517fca2434a500000000000000000000000000000000000000000000000000000000815260040160405180910390fd5b5060009081526020928352604080822073ffffffffffffffffffffffffffffffffffffffff9390931682529190925290205490565b6000806105a760017fca9d3e17f264b0f3984e2634e94adb37fa3e6a8103f06aeae6fa59e21c769f5e613a96565b60007c01000000000000000000000000000000000000000000000000000000007fffffffff00000000000000000000000000000000000000000000000000000000831601611228575060006105a7565b7ffe003659000000000000000000000000000000000000000000000000000000007fffffffff00000000000000000000000000000000000000000000000000000000831601611279575060016105a7565b507fffffffff00000000000000000000000000000000000000000000000000000000166000908152602091909152604090205460ff1690565b6000806105a760017f7ea68fd2dcf1c056b94db6a0a537aa80d26fa9ab1eacd85da1ba0b61b7e7a8a5613a96565b60608160000180546112f190613aa9565b80601f016020809104026020016040519081016040528092919081815260200182805461131d90613aa9565b801561136a5780601f1061133f5761010080835404028352916020019161136a565b820191906000526020600020905b81548152906001019060200180831161134d57829003601f168201915b50505050509050919050565b60006105d36126c1565b6000806105a760017fc8827d3282af6f37b64c3e9e6f3ac9df286ab0bb0fccd6f8661bf19adb368b23613a96565b60008281526020848152604080832073ffffffffffffffffffffffffffffffffffffffff8516845290915290205460ff166108c4576040517f7aa728820000000000000000000000000000000000000000000000000000000081526004810183905273ffffffffffffffffffffffffffffffffffffffff821660248201526044016107de565b73ffffffffffffffffffffffffffffffffffffffff8416611481576040517f021149bd00000000000000000000000000000000000000000000000000000000815260040160405180910390fd5b8251825181146114bd576040517f6582533600000000000000000000000000000000000000000000000000000000815260040160405180910390fd5b60005b81811461150d5761150588878784815181106114de576114de6139d3565b60200260200101518785815181106114f8576114f86139d3565b6020026020010151612808565b6001016114c0565b508473ffffffffffffffffffffffffffffffffffffffff16600073ffffffffffffffffffffffffffffffffffffffff168773ffffffffffffffffffffffffffffffffffffffff167f4a39dc06d4c0dbc64b70af90fd698a233a518aa5d07e595d983b8c0526c8f7fb8787604051611585929190613afc565b60405180910390a473ffffffffffffffffffffffffffffffffffffffff85163b1561101e5761101e866000878787876128d9565b60028301546040517ff724dad700000000000000000000000000000000000000000000000000000000815273ffffffffffffffffffffffffffffffffffffffff848116600483015260248201849052606092169063f724dad790604401600060405180830381865afa158015611633573d6000803e3d6000fd5b505050506040513d6000823e601f3d9081017fffffffffffffffffffffffffffffffffffffffffffffffffffffffffffffffe01682016040526108f99190810190613b59565b6000806105a760017fc9ed16f33ab3a66c84bfd83099ccb2a8845871e2e1c1928f63797152f0fd54cd613a96565b815473ffffffffffffffffffffffffffffffffffffffff828116911614610cc9576040517f2ef4875e00000000000000000000000000000000000000000000000000000000815273ffffffffffffffffffffffffffffffffffffffff821660048201526024016107de565b6000806105a760017f609b85bcafa81ecfaf3ff62cdde2c6c9082a68dbe4922f07399c706bdeb7cd31613a96565b81547fffffffffffffffffffffffff00000000000000000000000000000000000000001673ffffffffffffffffffffffffffffffffffffffff91909116179055565b6000806105a760017f2c0cf10337caabbd02dcf226f05f5fd19a0919a41a8df8958c39b80007826858613a96565b825473ffffffffffffffffffffffffffffffffffffffff8116906000907401000000000000000000000000000000000000000090046bffffffffffffffffffffffff168315806117fe575080155b1561180c5760009150611851565b620186a084101561183657620186a06118258286613c19565b61182f9190613c30565b9150611851565b80611844620186a086613c30565b61184e9190613c19565b91505b50935093915050565b8073ffffffffffffffffffffffffffffffffffffffff168273ffffffffffffffffffffffffffffffffffffffff16146108c4576108c483836129d7565b73ffffffffffffffffffffffffffffffffffffffff87166118e4576040517fb5e8901500000000000000000000000000000000000000000000000000000000815260040160405180910390fd5b8483811461191e576040517f6582533600000000000000000000000000000000000000000000000000000000815260040160405180910390fd5b6119298b8a8c612afe565b61197f576040517f05bbb9c400000000000000000000000000000000000000000000000000000000815273ffffffffffffffffffffffffffffffffffffffff808c1660048301528a1660248201526044016107de565b60005b8181146119ce576119c68c8b8b8b8b868181106119a1576119a16139d3565b905060200201358a8a878181106119ba576119ba6139d3565b90506020020135612b73565b600101611982565b508773ffffffffffffffffffffffffffffffffffffffff168973ffffffffffffffffffffffffffffffffffffffff168b73ffffffffffffffffffffffffffffffffffffffff167f4a39dc06d4c0dbc64b70af90fd698a233a518aa5d07e595d983b8c0526c8f7fb8a8a8a8a604051611a499493929190613cb6565b60405180910390a473ffffffffffffffffffffffffffffffffffffffff88163b15611b1257611b128a8a8a8a8a8080602002602001604051908101604052809392919081815260200183836020028082843760009201919091525050604080516020808e0282810182019093528d82529093508d92508c91829185019084908082843760009201919091525050604080516020601f8d018190048102820181019092528b815292508b91508a90819084018382808284376000920191909152506128d992505050565b5050505050505050505050565b60008381526020858152604080832073ffffffffffffffffffffffffffffffffffffffff8616845290915290205460ff16611bf05760008381526020858152604080832073ffffffffffffffffffffffffffffffffffffffff8681168086529184529382902080547fffffffffffffffffffffffffffffffffffffffffffffffffffffffffffffff00166001179055815187815292830152918316918101919091527f2f8788117e7eff1d82e926ec794901d17c78024a50270940304540a733656f0d906060015b60405180910390a15b50505050565b3660006108d4612d20565b606083828114611c3d576040517f6582533600000000000000000000000000000000000000000000000000000000815260040160405180910390fd5b8467ffffffffffffffff811115611c5657611c56613b2a565b604051908082528060200260200182016040528015611c7f578160200160208202803683370190505b50915060005b818114611d0457611cdf878783818110611ca157611ca16139d3565b9050602002016020810190611cb691906134c7565b868684818110611cc857611cc86139d3565b905060200201358a6111269092919063ffffffff16565b838281518110611cf157611cf16139d3565b6020908102919091010152600101611c85565b505095945050505050565b73ffffffffffffffffffffffffffffffffffffffff8416611d5c576040517f021149bd00000000000000000000000000000000000000000000000000000000815260040160405180910390fd5b611d6886858585612808565b604080518481526020810184905273ffffffffffffffffffffffffffffffffffffffff80871692600092918916917fc3d58168c5ae7397731d063d5bbf3d657854427343f4c083240f7aacaa2d0f62910160405180910390a473ffffffffffffffffffffffffffffffffffffffff84163b1561098b5761098b85600086868686612e8a565b620186a0811115611e2d576040517fac040408000000000000000000000000000000000000000000000000000000008152600481018290526024016107de565b81546bffffffffffffffffffffffff909116740100000000000000000000000000000000000000000273ffffffffffffffffffffffffffffffffffffffff909116179055565b6040805173ffffffffffffffffffffffffffffffffffffffff8416602482015260448082018490528251808303909101815260649091019091526020810180517bffffffffffffffffffffffffffffffffffffffffffffffffffffffff167fa9059cbb000000000000000000000000000000000000000000000000000000001790526108c4908490612fa8565b611f0b8382846113ae565b60008181526020848152604080832073ffffffffffffffffffffffffffffffffffffffff86168085529083529281902080547fffffffffffffffffffffffffffffffffffffffffffffffffffffffffffffff0016905580518481529182018390528101919091527ff6391f5c32d9c69d2a47ea670b442974b53935d1edc7fd64eb21e047a839171b9060600160405180910390a1505050565b73ffffffffffffffffffffffffffffffffffffffff8116611740576040517f16de0c8000000000000000000000000000000000000000000000000000000000815260040160405180910390fd5b60608160010180546112f190613aa9565b610cc982826129d7565b8273ffffffffffffffffffffffffffffffffffffffff168273ffffffffffffffffffffffffffffffffffffffff1603612089576040517ffb0fdf6100000000000000000000000000000000000000000000000000000000815273ffffffffffffffffffffffffffffffffffffffff841660048201526024016107de565b73ffffffffffffffffffffffffffffffffffffffff838116600081815260018701602090815260408083209487168084529482529182902080547fffffffffffffffffffffffffffffffffffffffffffffffffffffffffffffff001686151590811790915591519182527f17307eab39ab6107e8899845ad3d59bd9653f200f220920489ca2b5937696c31910160405180910390a350505050565b60008381526020858152604080832073ffffffffffffffffffffffffffffffffffffffff8616845290915290205460ff1615611bf05760008381526020858152604080832073ffffffffffffffffffffffffffffffffffffffff8681168086529184529382902080547fffffffffffffffffffffffffffffffffffffffffffffffffffffffffffffff00169055815187815292830152918316918101919091527ff6391f5c32d9c69d2a47ea670b442974b53935d1edc7fd64eb21e047a839171b90606001611be7565b8351835181141580612201575082518114155b15612238576040517f6582533600000000000000000000000000000000000000000000000000000000815260040160405180910390fd5b60005b8181146106c9576122a887878381518110612258576122586139d3565b6020026020010151878481518110612272576122726139d3565b602002602001015187858151811061228c5761228c6139d3565b6020026020010151878d611d0f9095949392919063ffffffff16565b60010161223b565b73ffffffffffffffffffffffffffffffffffffffff85166122fd576040517fb5e8901500000000000000000000000000000000000000000000000000000000815260040160405180910390fd5b612308888789612afe565b61235e576040517f05bbb9c400000000000000000000000000000000000000000000000000000000815273ffffffffffffffffffffffffffffffffffffffff8089166004830152871660248201526044016107de565b61236b8887878787612b73565b8473ffffffffffffffffffffffffffffffffffffffff168673ffffffffffffffffffffffffffffffffffffffff168873ffffffffffffffffffffffffffffffffffffffff167fc3d58168c5ae7397731d063d5bbf3d657854427343f4c083240f7aacaa2d0f6287876040516123ea929190918252602082015260400190565b60405180910390a473ffffffffffffffffffffffffffffffffffffffff85163b156106c9576106c9878787878787878080601f016020809104026020016040519081016040528093929190818152602001838380828437600092019190915250612e8a92505050565b825473ffffffffffffffffffffffffffffffffffffffff90811690831681146124c0576040517f2ef4875e00000000000000000000000000000000000000000000000000000000815273ffffffffffffffffffffffffffffffffffffffff841660048201526024016107de565b8173ffffffffffffffffffffffffffffffffffffffff168173ffffffffffffffffffffffffffffffffffffffff1614611bf05783547fffffffffffffffffffffffff00000000000000000000000000000000000000001673ffffffffffffffffffffffffffffffffffffffff8381169182178655604051908316907f8be0079c531659141344cd1fd0a4f28419497f9722a3daafe3b4186f6b6457e090600090a350505050565b804710156125d1576040517f08c379a000000000000000000000000000000000000000000000000000000000815260206004820152601d60248201527f416464726573733a20696e73756666696369656e742062616c616e636500000060448201526064016107de565b60008273ffffffffffffffffffffffffffffffffffffffff168260405160006040518083038185875af1925050503d806000811461262b576040519150601f19603f3d011682016040523d82523d6000602084013e612630565b606091505b50509050806108c4576040517f08c379a000000000000000000000000000000000000000000000000000000000815260206004820152603a60248201527f416464726573733a20756e61626c6520746f2073656e642076616c75652c207260448201527f6563697069656e74206d6179206861766520726576657274656400000000000060648201526084016107de565b6000333214806126d15750601836105b156126db57503390565b7fffffffffffffffffffffffffffffffffffffffffffffffffffffffffffffffec36013560601c7f000000000000000000000000000000000000000000000000000000000000000073ffffffffffffffffffffffffffffffffffffffff163314806127f757506040517f8929a8ca00000000000000000000000000000000000000000000000000000000815273ffffffffffffffffffffffffffffffffffffffff82811660048301523360248301527f00000000000000000000000000000000000000000000000000000000000000001690638929a8ca90604401602060405180830381865afa1580156127d3573d6000803e3d6000fd5b505050506040513d601f19601f820116820180604052508101906127f79190613cdd565b1561280157919050565b3391505090565b8015611bf05760008281526020858152604080832073ffffffffffffffffffffffffffffffffffffffff871684529091529020548181018181116128a5576040517f42fb00bc00000000000000000000000000000000000000000000000000000000815273ffffffffffffffffffffffffffffffffffffffff861660048201526024810185905260448101839052606481018490526084016107de565b60009384526020958652604080852073ffffffffffffffffffffffffffffffffffffffff9690961685529490955250502055565b6040517fbc197c81000000000000000000000000000000000000000000000000000000008082529073ffffffffffffffffffffffffffffffffffffffff86169063bc197c8190612935908a908a90899089908990600401613cfa565b6020604051808303816000875af1158015612954573d6000803e3d6000fd5b505050506040513d601f19601f820116820180604052508101906129789190613d65565b7fffffffff00000000000000000000000000000000000000000000000000000000161461098b578383836040517fc287817e0000000000000000000000000000000000000000000000000000000081526004016107de93929190613d82565b815473ffffffffffffffffffffffffffffffffffffffff168015801590612a15575060008173ffffffffffffffffffffffffffffffffffffffff163b115b156108c4576040517fc617113400000000000000000000000000000000000000000000000000000000815230600482015273ffffffffffffffffffffffffffffffffffffffff838116602483015282169063c617113490604401602060405180830381865afa158015612a8c573d6000803e3d6000fd5b505050506040513d601f19601f82011682018060405250810190612ab09190613cdd565b6108c4576040517fede71dcc00000000000000000000000000000000000000000000000000000000815273ffffffffffffffffffffffffffffffffffffffff831660048201526024016107de565b60008173ffffffffffffffffffffffffffffffffffffffff168373ffffffffffffffffffffffffffffffffffffffff1614806108f957505073ffffffffffffffffffffffffffffffffffffffff9182166000908152600193909301602090815260408085209290931684525290205460ff1690565b8015610ae05760008281526020868152604080832073ffffffffffffffffffffffffffffffffffffffff88168452909152902054818103818110612c10576040517f03dee4c500000000000000000000000000000000000000000000000000000000815273ffffffffffffffffffffffffffffffffffffffff871660048201526024810185905260448101839052606481018490526084016107de565b8473ffffffffffffffffffffffffffffffffffffffff168673ffffffffffffffffffffffffffffffffffffffff161461101e5760008481526020888152604080832073ffffffffffffffffffffffffffffffffffffffff89168452909152902054838101818111612cda576040517f42fb00bc00000000000000000000000000000000000000000000000000000000815273ffffffffffffffffffffffffffffffffffffffff881660048201526024810187905260448101839052606481018690526084016107de565b600086815260208a8152604080832073ffffffffffffffffffffffffffffffffffffffff808d1685528184528285208890558b1684529091529020555050505050505050565b36600033321480612d315750601836105b15612d3f5750600091369150565b3373ffffffffffffffffffffffffffffffffffffffff7f0000000000000000000000000000000000000000000000000000000000000000161480612e74575073ffffffffffffffffffffffffffffffffffffffff7f000000000000000000000000000000000000000000000000000000000000000016638929a8ca367fffffffffffffffffffffffffffffffffffffffffffffffffffffffffffffffec013560601c6040517fffffffff0000000000000000000000000000000000000000000000000000000060e084901b16815273ffffffffffffffffffffffffffffffffffffffff9091166004820152336024820152604401602060405180830381865afa158015612e50573d6000803e3d6000fd5b505050506040513d601f19601f82011682018060405250810190612e749190613cdd565b15612e81576108d46130b7565b50600091369150565b6040517ff23a6e61000000000000000000000000000000000000000000000000000000008082529073ffffffffffffffffffffffffffffffffffffffff86169063f23a6e6190612ee6908a908a90899089908990600401613dcd565b6020604051808303816000875af1158015612f05573d6000803e3d6000fd5b505050506040513d601f19601f82011682018060405250810190612f299190613d65565b7fffffffff00000000000000000000000000000000000000000000000000000000161461098b576040517f40f39d3800000000000000000000000000000000000000000000000000000000815273ffffffffffffffffffffffffffffffffffffffff8516600482015260248101849052604481018390526064016107de565b600061300a826040518060400160405280602081526020017f5361666545524332303a206c6f772d6c6576656c2063616c6c206661696c65648152508573ffffffffffffffffffffffffffffffffffffffff166130e89092919063ffffffff16565b905080516000148061302b57508080602001905181019061302b9190613cdd565b6108c4576040517f08c379a000000000000000000000000000000000000000000000000000000000815260206004820152602a60248201527f5361666545524332303a204552433230206f7065726174696f6e20646964206e60448201527f6f7420737563636565640000000000000000000000000000000000000000000060648201526084016107de565b3660006108d47fffffffffffffffffffffffffffffffffffffffffffffffffffffffffffffffec8301828481613e12565b60606108f98484600085856000808673ffffffffffffffffffffffffffffffffffffffff16858760405161311c9190613e3c565b60006040518083038185875af1925050503d8060008114613159576040519150601f19603f3d011682016040523d82523d6000602084013e61315e565b606091505b509150915061316f8783838761317a565b979650505050505050565b606083156132105782516000036132095773ffffffffffffffffffffffffffffffffffffffff85163b613209576040517f08c379a000000000000000000000000000000000000000000000000000000000815260206004820152601d60248201527f416464726573733a2063616c6c20746f206e6f6e2d636f6e747261637400000060448201526064016107de565b50816108f9565b6108f983838151156132255781518083602001fd5b806040517f08c379a00000000000000000000000000000000000000000000000000000000081526004016107de9190613367565b73ffffffffffffffffffffffffffffffffffffffff8116811461075157600080fd5b6000806040838503121561328e57600080fd5b823561329981613259565b946020939093013593505050565b7fffffffff000000000000000000000000000000000000000000000000000000008116811461075157600080fd5b6000602082840312156132e757600080fd5b81356132f2816132a7565b9392505050565b60005b838110156133145781810151838201526020016132fc565b50506000910152565b600081518084526133358160208601602086016132f9565b601f017fffffffffffffffffffffffffffffffffffffffffffffffffffffffffffffffe0169290920160200192915050565b6020815260006105a4602083018461331d565b60008083601f84011261338c57600080fd5b50813567ffffffffffffffff8111156133a457600080fd5b6020830191508360208260051b850101111561084257600080fd5b60008083601f8401126133d157600080fd5b50813567ffffffffffffffff8111156133e957600080fd5b60208301915083602082850101111561084257600080fd5b60008060008060008060006080888a03121561341c57600080fd5b873561342781613259565b9650602088013567ffffffffffffffff8082111561344457600080fd5b6134508b838c0161337a565b909850965060408a013591508082111561346957600080fd5b6134758b838c0161337a565b909650945060608a013591508082111561348e57600080fd5b5061349b8a828b016133bf565b989b979a50959850939692959293505050565b6000602082840312156134c057600080fd5b5035919050565b6000602082840312156134d957600080fd5b81356132f281613259565b6000806000604084860312156134f957600080fd5b83359250602084013567ffffffffffffffff81111561351757600080fd5b613523868287016133bf565b9497909650939450505050565b6000806040838503121561354357600080fd5b50508035926020909101359150565b60008060008060008060008060a0898b03121561356e57600080fd5b883561357981613259565b9750602089013561358981613259565b9650604089013567ffffffffffffffff808211156135a657600080fd5b6135b28c838d0161337a565b909850965060608b01359150808211156135cb57600080fd5b6135d78c838d0161337a565b909650945060808b01359150808211156135f057600080fd5b506135fd8b828c016133bf565b999c989b5096995094979396929594505050565b6000806040838503121561362457600080fd5b82359150602083013561363681613259565b809150509250929050565b8183528181602085013750600060208284010152600060207fffffffffffffffffffffffffffffffffffffffffffffffffffffffffffffffe0601f840116840101905092915050565b6020815260006108f9602083018486613641565b600080600080604085870312156136b457600080fd5b843567ffffffffffffffff808211156136cc57600080fd5b6136d88883890161337a565b909650945060208701359150808211156136f157600080fd5b506136fe8782880161337a565b95989497509550505050565b600081518084526020808501945080840160005b8381101561373a5781518752958201959082019060010161371e565b509495945050505050565b6020815260006105a4602083018461370a565b60008060008060006080868803121561377057600080fd5b853561377b81613259565b94506020860135935060408601359250606086013567ffffffffffffffff8111156137a557600080fd5b6137b1888289016133bf565b969995985093965092949392505050565b600080600080600080606087890312156137db57600080fd5b863567ffffffffffffffff808211156137f357600080fd5b6137ff8a838b0161337a565b9098509650602089013591508082111561381857600080fd5b6138248a838b0161337a565b9096509450604089013591508082111561383d57600080fd5b5061384a89828a0161337a565b979a9699509497509295939492505050565b801515811461075157600080fd5b6000806040838503121561387d57600080fd5b823561388881613259565b915060208301356136368161385c565b6000806000806000806000806080898b0312156138b457600080fd5b883567ffffffffffffffff808211156138cc57600080fd5b6138d88c838d0161337a565b909a50985060208b01359150808211156138f157600080fd5b6138fd8c838d0161337a565b909850965060408b013591508082111561391657600080fd5b6139228c838d0161337a565b909650945060608b01359150808211156135f057600080fd5b6000806040838503121561394e57600080fd5b823561395981613259565b9150602083013561363681613259565b60008060008060008060a0878903121561398257600080fd5b863561398d81613259565b9550602087013561399d81613259565b94506040870135935060608701359250608087013567ffffffffffffffff8111156139c757600080fd5b61384a89828a016133bf565b7f4e487b7100000000000000000000000000000000000000000000000000000000600052603260045260246000fd5b60008083357fffffffffffffffffffffffffffffffffffffffffffffffffffffffffffffffe1843603018112613a3757600080fd5b83018035915067ffffffffffffffff821115613a5257600080fd5b60200191503681900382131561084257600080fd5b7f4e487b7100000000000000000000000000000000000000000000000000000000600052601160045260246000fd5b818103818111156105a7576105a7613a67565b600181811c90821680613abd57607f821691505b602082108103613af6577f4e487b7100000000000000000000000000000000000000000000000000000000600052602260045260246000fd5b50919050565b604081526000613b0f604083018561370a565b8281036020840152613b21818561370a565b95945050505050565b7f4e487b7100000000000000000000000000000000000000000000000000000000600052604160045260246000fd5b600060208284031215613b6b57600080fd5b815167ffffffffffffffff80821115613b8357600080fd5b818401915084601f830112613b9757600080fd5b815181811115613ba957613ba9613b2a565b604051601f82017fffffffffffffffffffffffffffffffffffffffffffffffffffffffffffffffe0908116603f01168101908382118183101715613bef57613bef613b2a565b81604052828152876020848701011115613c0857600080fd5b61316f8360208301602088016132f9565b80820281158282048414176105a7576105a7613a67565b600082613c66577f4e487b7100000000000000000000000000000000000000000000000000000000600052601260045260246000fd5b500490565b81835260007f07ffffffffffffffffffffffffffffffffffffffffffffffffffffffffffffff831115613c9d57600080fd5b8260051b80836020870137939093016020019392505050565b604081526000613cca604083018688613c6b565b828103602084015261316f818587613c6b565b600060208284031215613cef57600080fd5b81516132f28161385c565b600073ffffffffffffffffffffffffffffffffffffffff808816835280871660208401525060a06040830152613d3360a083018661370a565b8281036060840152613d45818661370a565b90508281036080840152613d59818561331d565b98975050505050505050565b600060208284031215613d7757600080fd5b81516132f2816132a7565b73ffffffffffffffffffffffffffffffffffffffff84168152606060208201526000613db1606083018561370a565b8281036040840152613dc3818561370a565b9695505050505050565b600073ffffffffffffffffffffffffffffffffffffffff808816835280871660208401525084604083015283606083015260a0608083015261316f60a083018461331d565b60008085851115613e2257600080fd5b83861115613e2f57600080fd5b5050820193919092039150565b60008251613e4e8184602087016132f9565b919091019291505056fea26469706673582212207af8aa0cfdeea1715f03282758cc4ee494b04098a12d7192aae09858a65c97e764736f6c63430008150033",
  "linkReferences": {},
  "deployedLinkReferences": {}
}