{
  "_format": "hh-sol-artifact-1",
  "contractName": "ERC1155FullMock",
  "sourceName": "contracts/mocks/token/ERC1155/preset/ERC1155FullMock.sol",
  "abi": [
    {
      "inputs": [
        {
          "internalType": "string",
          "name": "tokenName",
          "type": "string"
        },
        {
          "internalType": "string",
          "name": "tokenSymbol",
          "type": "string"
        },
        {
          "internalType": "contract ITokenMetadataResolver",
          "name": "metadataResolver",
          "type": "address"
        },
        {
          "internalType": "contract IOperatorFilterRegistry",
          "name": "filterRegistry",
          "type": "address"
        },
        {
          "internalType": "contract IForwarderRegistry",
          "name": "forwarderRegistry",
          "type": "address"
        }
      ],
      "stateMutability": "nonpayable",
      "type": "constructor"
    },
    {
      "inputs": [
        {
          "internalType": "uint256",
          "name": "percentage",
          "type": "uint256"
        }
      ],
      "name": "IncorrectRoyaltyPercentage",
      "type": "error"
    },
    {
      "inputs": [],
      "name": "IncorrectRoyaltyReceiver",
      "type": "error"
    },
    {
      "inputs": [
        {
          "internalType": "address",
          "name": "operator",
          "type": "address"
        }
      ],
      "name": "OperatorNotAllowed",
      "type": "error"
    },
    {
      "anonymous": false,
      "inputs": [
        {
          "indexed": true,
          "internalType": "address",
          "name": "owner",
          "type": "address"
        },
        {
          "indexed": true,
          "internalType": "address",
          "name": "operator",
          "type": "address"
        },
        {
          "indexed": false,
          "internalType": "bool",
          "name": "approved",
          "type": "bool"
        }
      ],
      "name": "ApprovalForAll",
      "type": "event"
    },
    {
      "anonymous": false,
      "inputs": [
        {
          "indexed": true,
          "internalType": "address",
          "name": "previousOwner",
          "type": "address"
        },
        {
          "indexed": true,
          "internalType": "address",
          "name": "newOwner",
          "type": "address"
        }
      ],
      "name": "OwnershipTransferred",
      "type": "event"
    },
    {
      "anonymous": false,
      "inputs": [
        {
          "indexed": false,
          "internalType": "bytes32",
          "name": "role",
          "type": "bytes32"
        },
        {
          "indexed": false,
          "internalType": "address",
          "name": "account",
          "type": "address"
        },
        {
          "indexed": false,
          "internalType": "address",
          "name": "operator",
          "type": "address"
        }
      ],
      "name": "RoleGranted",
      "type": "event"
    },
    {
      "anonymous": false,
      "inputs": [
        {
          "indexed": false,
          "internalType": "bytes32",
          "name": "role",
          "type": "bytes32"
        },
        {
          "indexed": false,
          "internalType": "address",
          "name": "account",
          "type": "address"
        },
        {
          "indexed": false,
          "internalType": "address",
          "name": "operator",
          "type": "address"
        }
      ],
      "name": "RoleRevoked",
      "type": "event"
    },
    {
      "anonymous": false,
      "inputs": [
        {
          "indexed": true,
          "internalType": "address",
          "name": "operator",
          "type": "address"
        },
        {
          "indexed": true,
          "internalType": "address",
          "name": "from",
          "type": "address"
        },
        {
          "indexed": true,
          "internalType": "address",
          "name": "to",
          "type": "address"
        },
        {
          "indexed": false,
          "internalType": "uint256[]",
          "name": "ids",
          "type": "uint256[]"
        },
        {
          "indexed": false,
          "internalType": "uint256[]",
          "name": "values",
          "type": "uint256[]"
        }
      ],
      "name": "TransferBatch",
      "type": "event"
    },
    {
      "anonymous": false,
      "inputs": [
        {
          "indexed": true,
          "internalType": "address",
          "name": "operator",
          "type": "address"
        },
        {
          "indexed": true,
          "internalType": "address",
          "name": "from",
          "type": "address"
        },
        {
          "indexed": true,
          "internalType": "address",
          "name": "to",
          "type": "address"
        },
        {
          "indexed": false,
          "internalType": "uint256",
          "name": "id",
          "type": "uint256"
        },
        {
          "indexed": false,
          "internalType": "uint256",
          "name": "value",
          "type": "uint256"
        }
      ],
      "name": "TransferSingle",
      "type": "event"
    },
    {
      "anonymous": false,
      "inputs": [
        {
          "indexed": false,
          "internalType": "string",
          "name": "value",
          "type": "string"
        },
        {
          "indexed": true,
          "internalType": "uint256",
          "name": "id",
          "type": "uint256"
        }
      ],
      "name": "URI",
      "type": "event"
    },
    {
      "inputs": [],
      "name": "MINTER_ROLE",
      "outputs": [
        {
          "internalType": "bytes32",
          "name": "",
          "type": "bytes32"
        }
      ],
      "stateMutability": "view",
      "type": "function"
    },
    {
      "inputs": [],
      "name": "ROYALTY_FEE_DENOMINATOR",
      "outputs": [
        {
          "internalType": "uint256",
          "name": "",
          "type": "uint256"
        }
      ],
      "stateMutability": "view",
      "type": "function"
    },
    {
      "inputs": [],
      "name": "__msgData",
      "outputs": [
        {
          "internalType": "bytes",
          "name": "",
          "type": "bytes"
        }
      ],
      "stateMutability": "view",
      "type": "function"
    },
    {
      "inputs": [
        {
          "internalType": "address",
          "name": "owner",
          "type": "address"
        },
        {
          "internalType": "uint256",
          "name": "id",
          "type": "uint256"
        }
      ],
      "name": "balanceOf",
      "outputs": [
        {
          "internalType": "uint256",
          "name": "balance",
          "type": "uint256"
        }
      ],
      "stateMutability": "view",
      "type": "function"
    },
    {
      "inputs": [
        {
          "internalType": "address[]",
          "name": "owners",
          "type": "address[]"
        },
        {
          "internalType": "uint256[]",
          "name": "ids",
          "type": "uint256[]"
        }
      ],
      "name": "balanceOfBatch",
      "outputs": [
        {
          "internalType": "uint256[]",
          "name": "balances",
          "type": "uint256[]"
        }
      ],
      "stateMutability": "view",
      "type": "function"
    },
    {
      "inputs": [],
      "name": "forwarderRegistry",
      "outputs": [
        {
          "internalType": "contract IForwarderRegistry",
          "name": "",
          "type": "address"
        }
      ],
      "stateMutability": "view",
      "type": "function"
    },
    {
      "inputs": [
        {
          "internalType": "bytes32",
          "name": "role",
          "type": "bytes32"
        },
        {
          "internalType": "address",
          "name": "account",
          "type": "address"
        }
      ],
      "name": "grantRole",
      "outputs": [],
      "stateMutability": "nonpayable",
      "type": "function"
    },
    {
      "inputs": [
        {
          "internalType": "bytes32",
          "name": "role",
          "type": "bytes32"
        },
        {
          "internalType": "address",
          "name": "account",
          "type": "address"
        }
      ],
      "name": "hasRole",
      "outputs": [
        {
          "internalType": "bool",
          "name": "hasRole_",
          "type": "bool"
        }
      ],
      "stateMutability": "view",
      "type": "function"
    },
    {
      "inputs": [
        {
          "internalType": "address",
          "name": "owner",
          "type": "address"
        },
        {
          "internalType": "address",
          "name": "operator",
          "type": "address"
        }
      ],
      "name": "isApprovedForAll",
      "outputs": [
        {
          "internalType": "bool",
          "name": "approvedForAll",
          "type": "bool"
        }
      ],
      "stateMutability": "view",
      "type": "function"
    },
    {
      "inputs": [
        {
          "internalType": "address",
          "name": "forwarder",
          "type": "address"
        }
      ],
      "name": "isTrustedForwarder",
      "outputs": [
        {
          "internalType": "bool",
          "name": "",
          "type": "bool"
        }
      ],
      "stateMutability": "view",
      "type": "function"
    },
    {
      "inputs": [],
      "name": "metadataResolver",
      "outputs": [
        {
          "internalType": "contract ITokenMetadataResolver",
          "name": "tokenMetadataResolver",
          "type": "address"
        }
      ],
      "stateMutability": "view",
      "type": "function"
    },
    {
      "inputs": [],
      "name": "name",
      "outputs": [
        {
          "internalType": "string",
          "name": "tokenName",
          "type": "string"
        }
      ],
      "stateMutability": "view",
      "type": "function"
    },
    {
      "inputs": [],
      "name": "operatorFilterRegistry",
      "outputs": [
        {
          "internalType": "contract IOperatorFilterRegistry",
          "name": "",
          "type": "address"
        }
      ],
      "stateMutability": "view",
      "type": "function"
    },
    {
      "inputs": [],
      "name": "owner",
      "outputs": [
        {
          "internalType": "address",
          "name": "",
          "type": "address"
        }
      ],
      "stateMutability": "view",
      "type": "function"
    },
    {
      "inputs": [
        {
          "internalType": "address[]",
          "name": "accounts",
          "type": "address[]"
        },
        {
          "internalType": "contract IERC20[]",
          "name": "tokens",
          "type": "address[]"
        },
        {
          "internalType": "uint256[]",
          "name": "amounts",
          "type": "uint256[]"
        }
      ],
      "name": "recoverERC20s",
      "outputs": [],
      "stateMutability": "nonpayable",
      "type": "function"
    },
    {
      "inputs": [
        {
          "internalType": "address[]",
          "name": "accounts",
          "type": "address[]"
        },
        {
          "internalType": "contract IERC721[]",
          "name": "contracts",
          "type": "address[]"
        },
        {
          "internalType": "uint256[]",
          "name": "tokenIds",
          "type": "uint256[]"
        }
      ],
      "name": "recoverERC721s",
      "outputs": [],
      "stateMutability": "nonpayable",
      "type": "function"
    },
    {
      "inputs": [
        {
          "internalType": "address payable[]",
          "name": "accounts",
          "type": "address[]"
        },
        {
          "internalType": "uint256[]",
          "name": "amounts",
          "type": "uint256[]"
        }
      ],
      "name": "recoverETH",
      "outputs": [],
      "stateMutability": "nonpayable",
      "type": "function"
    },
    {
      "inputs": [
        {
          "internalType": "bytes32",
          "name": "role",
          "type": "bytes32"
        }
      ],
      "name": "renounceRole",
      "outputs": [],
      "stateMutability": "nonpayable",
      "type": "function"
    },
    {
      "inputs": [
        {
          "internalType": "bytes32",
          "name": "role",
          "type": "bytes32"
        },
        {
          "internalType": "address",
          "name": "account",
          "type": "address"
        }
      ],
      "name": "revokeRole",
      "outputs": [],
      "stateMutability": "nonpayable",
      "type": "function"
    },
    {
      "inputs": [
        {
          "internalType": "uint256",
          "name": "tokenId",
          "type": "uint256"
        },
        {
          "internalType": "uint256",
          "name": "salePrice",
          "type": "uint256"
        }
      ],
      "name": "royaltyInfo",
      "outputs": [
        {
          "internalType": "address",
          "name": "receiver",
          "type": "address"
        },
        {
          "internalType": "uint256",
          "name": "royaltyAmount",
          "type": "uint256"
        }
      ],
      "stateMutability": "view",
      "type": "function"
    },
    {
      "inputs": [
        {
          "internalType": "address",
          "name": "to",
          "type": "address"
        },
        {
          "internalType": "uint256[]",
          "name": "ids",
          "type": "uint256[]"
        },
        {
          "internalType": "uint256[]",
          "name": "values",
          "type": "uint256[]"
        },
        {
          "internalType": "bytes",
          "name": "data",
          "type": "bytes"
        }
      ],
      "name": "safeBatchMint",
      "outputs": [],
      "stateMutability": "nonpayable",
      "type": "function"
    },
    {
      "inputs": [
        {
          "internalType": "address",
          "name": "from",
          "type": "address"
        },
        {
          "internalType": "address",
          "name": "to",
          "type": "address"
        },
        {
          "internalType": "uint256[]",
          "name": "ids",
          "type": "uint256[]"
        },
        {
          "internalType": "uint256[]",
          "name": "values",
          "type": "uint256[]"
        },
        {
          "internalType": "bytes",
          "name": "data",
          "type": "bytes"
        }
      ],
      "name": "safeBatchTransferFrom",
      "outputs": [],
      "stateMutability": "nonpayable",
      "type": "function"
    },
    {
      "inputs": [
        {
          "internalType": "address[]",
          "name": "recipients",
          "type": "address[]"
        },
        {
          "internalType": "uint256[]",
          "name": "ids",
          "type": "uint256[]"
        },
        {
          "internalType": "uint256[]",
          "name": "values",
          "type": "uint256[]"
        },
        {
          "internalType": "bytes",
          "name": "data",
          "type": "bytes"
        }
      ],
      "name": "safeDeliver",
      "outputs": [],
      "stateMutability": "nonpayable",
      "type": "function"
    },
    {
      "inputs": [
        {
          "internalType": "address",
          "name": "to",
          "type": "address"
        },
        {
          "internalType": "uint256",
          "name": "id",
          "type": "uint256"
        },
        {
          "internalType": "uint256",
          "name": "value",
          "type": "uint256"
        },
        {
          "internalType": "bytes",
          "name": "data",
          "type": "bytes"
        }
      ],
      "name": "safeMint",
      "outputs": [],
      "stateMutability": "nonpayable",
      "type": "function"
    },
    {
      "inputs": [
        {
          "internalType": "address",
          "name": "from",
          "type": "address"
        },
        {
          "internalType": "address",
          "name": "to",
          "type": "address"
        },
        {
          "internalType": "uint256",
          "name": "id",
          "type": "uint256"
        },
        {
          "internalType": "uint256",
          "name": "value",
          "type": "uint256"
        },
        {
          "internalType": "bytes",
          "name": "data",
          "type": "bytes"
        }
      ],
      "name": "safeTransferFrom",
      "outputs": [],
      "stateMutability": "nonpayable",
      "type": "function"
    },
    {
      "inputs": [
        {
          "internalType": "address",
          "name": "operator",
          "type": "address"
        },
        {
          "internalType": "bool",
          "name": "approved",
          "type": "bool"
        }
      ],
      "name": "setApprovalForAll",
      "outputs": [],
      "stateMutability": "nonpayable",
      "type": "function"
    },
    {
      "inputs": [
        {
          "internalType": "uint256",
          "name": "percentage",
          "type": "uint256"
        }
      ],
      "name": "setRoyaltyPercentage",
      "outputs": [],
      "stateMutability": "nonpayable",
      "type": "function"
    },
    {
      "inputs": [
        {
          "internalType": "address",
          "name": "receiver",
          "type": "address"
        }
      ],
      "name": "setRoyaltyReceiver",
      "outputs": [],
      "stateMutability": "nonpayable",
      "type": "function"
    },
    {
      "inputs": [
        {
          "internalType": "bytes4",
          "name": "interfaceId",
          "type": "bytes4"
        }
      ],
      "name": "supportsInterface",
      "outputs": [
        {
          "internalType": "bool",
          "name": "",
          "type": "bool"
        }
      ],
      "stateMutability": "view",
      "type": "function"
    },
    {
      "inputs": [],
      "name": "symbol",
      "outputs": [
        {
          "internalType": "string",
          "name": "tokenSymbol",
          "type": "string"
        }
      ],
      "stateMutability": "view",
      "type": "function"
    },
    {
      "inputs": [
        {
          "internalType": "address",
          "name": "newOwner",
          "type": "address"
        }
      ],
      "name": "transferOwnership",
      "outputs": [],
      "stateMutability": "nonpayable",
      "type": "function"
    },
    {
      "inputs": [
        {
          "internalType": "contract IOperatorFilterRegistry",
          "name": "registry",
          "type": "address"
        }
      ],
      "name": "updateOperatorFilterRegistry",
      "outputs": [],
      "stateMutability": "nonpayable",
      "type": "function"
    },
    {
      "inputs": [
        {
          "internalType": "uint256",
          "name": "tokenId",
          "type": "uint256"
        }
      ],
      "name": "uri",
      "outputs": [
        {
          "internalType": "string",
          "name": "metadataURI",
          "type": "string"
        }
      ],
      "stateMutability": "view",
      "type": "function"
    }
  ],
  "bytecode": "0x60a060405234801562000010575f80fd5b506040516200452a3803806200452a83398101604081905262000033916200044f565b84848484848080868686863362000055816200004e620000f2565b9062000127565b5062000060620001a1565b6200008d816200006f620001bb565b9081546001600160a01b0319166001600160a01b0391909116179055565b50620000a88383836200009f620001ea565b92919062000219565b620000b262000260565b50620000c091505062000278565b620000ca62000290565b620000d4620002a8565b6001600160a01b031660805250620006699950505050505050505050565b5f806200012160017fc9ed16f33ab3a66c84bfd83099ccb2a8845871e2e1c1928f63797152f0fd54cd620004f5565b92915050565b6001600160a01b038116156200017d5781546001600160a01b0319166001600160a01b03821690811783556040515f907f8be0079c531659141344cd1fd0a4f28419497f9722a3daafe3b4186f6b6457e0908290a35b6200019d6307f5828d60e41b600162000195620002bb565b9190620002ea565b5050565b620001b9636cdb3d1360e11b600162000195620002bb565b565b5f806200012160017f609b85bcafa81ecfaf3ff62cdde2c6c9082a68dbe4922f07399c706bdeb7cd31620004f5565b5f806200012160017f7ea68fd2dcf1c056b94db6a0a537aa80d26fa9ab1eacd85da1ba0b61b7e7a8a5620004f5565b83620002268482620005a1565b5060018401620002378382620005a1565b5060029390930180546001600160a01b0319166001600160a01b03909416939093179092555050565b620001b96303a24d0760e21b600162000195620002bb565b620001b9631464324b60e21b600162000195620002bb565b620001b9633a2ae73360e21b600162000195620002bb565b620001b963152a902d60e11b6001620001955b5f806200012160017fca9d3e17f264b0f3984e2634e94adb37fa3e6a8103f06aeae6fa59e21c769f5e620004f5565b600160e01b6001600160e01b03198316016200034c5760405162461bcd60e51b815260206004820152601f60248201527f496e74657266616365446574656374696f6e3a2077726f6e672076616c756500604482015260640160405180910390fd5b6001600160e01b0319919091165f9081526020929092526040909120805460ff1916911515919091179055565b634e487b7160e01b5f52604160045260245ffd5b5f82601f8301126200039d575f80fd5b81516001600160401b0380821115620003ba57620003ba62000379565b604051601f8301601f19908116603f01168101908282118183101715620003e557620003e562000379565b8160405283815260209250868385880101111562000401575f80fd5b5f91505b8382101562000424578582018301518183018401529082019062000405565b5f93810190920192909252949350505050565b6001600160a01b03811681146200044c575f80fd5b50565b5f805f805f60a0868803121562000464575f80fd5b85516001600160401b03808211156200047b575f80fd5b6200048989838a016200038d565b965060208801519150808211156200049f575f80fd5b50620004ae888289016200038d565b9450506040860151620004c18162000437565b6060870151909350620004d48162000437565b6080870151909250620004e78162000437565b809150509295509295909350565b818103818111156200012157634e487b7160e01b5f52601160045260245ffd5b600181811c908216806200052a57607f821691505b6020821081036200054957634e487b7160e01b5f52602260045260245ffd5b50919050565b601f8211156200059c575f81815260208120601f850160051c81016020861015620005775750805b601f850160051c820191505b81811015620005985782815560010162000583565b5050505b505050565b81516001600160401b03811115620005bd57620005bd62000379565b620005d581620005ce845462000515565b846200054f565b602080601f8311600181146200060b575f8415620005f35750858301515b5f19600386901b1c1916600185901b17855562000598565b5f85815260208120601f198616915b828110156200063b578886015182559484019460019091019084016200061a565b50858210156200065957878501515f19600388901b60f8161c191681555b5050505050600190811b01905550565b608051613e85620006a55f395f81816102de0152818161038f0152818161272c015281816127b401528181612f2d0152612f6b0152613e855ff3fe608060405234801561000f575f80fd5b5060043610610200575f3560e01c80638bb9c5bf11610123578063c3666c36116100b8578063e8ab9ccc11610088578063f242432a1161006e578063f242432a146104ee578063f2fde38b14610501578063f7ba94bd14610514575f80fd5b8063e8ab9ccc146104c8578063e985e9c5146104db575f80fd5b8063c3666c3614610471578063d539139314610484578063d547741f146104ab578063e1a8bf2c146104be575f80fd5b806395d89b41116100f357806395d89b4114610446578063a0c76f621461044e578063a22cb46514610456578063b0ccc31e14610469575f80fd5b80638bb9c5bf146104055780638da5cb5b146104185780638dc251e31461042057806391d1485414610433575f80fd5b80632eb2c2d611610199578063572b6c0511610169578063572b6c051461037f5780635cfa9297146103cc57806361ba27da146103df57806373c8a958146103f2575f80fd5b80632eb2c2d6146103235780632f2ff15d1461033657806331e66e1e146103495780634e1273f41461035f575f80fd5b80630e89341c116101d45780630e89341c14610277578063114ba8ee1461028a5780632a55205a1461029d5780632b4c9f16146102dc575f80fd5b8062fdd58e1461020457806301ffc9a71461022a57806306fdde031461024d5780630d6a5bbb14610262575b5f80fd5b610217610212366004613382565b610527565b6040519081526020015b60405180910390f35b61023d6102383660046133d9565b610545565b6040519015158152602001610221565b610255610558565b6040516102219190613466565b6102756102703660046134f7565b61056f565b005b61025561028536600461359c565b610666565b6102756102983660046135b3565b61067c565b6102b06102ab3660046135ce565b6106e7565b6040805173ffffffffffffffffffffffffffffffffffffffff9093168352602083019190915201610221565b7f00000000000000000000000000000000000000000000000000000000000000005b60405173ffffffffffffffffffffffffffffffffffffffff9091168152602001610221565b6102756103313660046135ee565b610709565b6102756103443660046136a5565b610755565b610351610787565b6040516102219291906136d3565b61037261036d36600461371f565b610799565b60405161022191906137bf565b61023d61038d3660046135b3565b7f000000000000000000000000000000000000000000000000000000000000000073ffffffffffffffffffffffffffffffffffffffff90811691161490565b6102756103da3660046137d1565b6107be565b6102756103ed36600461359c565b61084e565b610275610400366004613836565b61086b565b61027561041336600461359c565b610988565b6102fe6109a3565b61027561042e3660046135b3565b6109c9565b61023d6104413660046136a5565b6109e6565b610255610a28565b6102fe610a3a565b6102756104643660046138d6565b610a63565b6102fe610a9c565b61027561047f366004613836565b610aa8565b6102177f6d696e746572000000000000000000000000000000000000000000000000000081565b6102756104b93660046136a5565b610c47565b610217620186a081565b6102756104d6366004613902565b610c74565b61023d6104e936600461399c565b610d89565b6102756104fc3660046139c8565b610dd5565b61027561050f3660046135b3565b610e14565b61027561052236600461371f565b610e2f565b5f61053c8383610535610f14565b9190610f41565b90505b92915050565b5f61053f82610552610ff3565b90611020565b606061056a6105656110f7565b611124565b905090565b5f6105786111b7565b90506105ae7f6d696e7465720000000000000000000000000000000000000000000000000000826105a76111c0565b91906111ed565b61065c81898989808060200260200160405190810160405280939291908181526020018383602002808284375f9201919091525050604080516020808d0282810182019093528c82529093508c92508b9182918501908490808284375f9201919091525050604080516020601f8c018190048102820181019092528a815292508a91508990819084018382808284375f920191909152506106529250610f14915050565b9493929190611298565b5050505050505050565b606061053f30836106756110f7565b919061147a565b6106956106876111b7565b61068f611536565b90611563565b6106e4816106a16115e6565b9081547fffffffffffffffffffffffff00000000000000000000000000000000000000001673ffffffffffffffffffffffffffffffffffffffff91909116179055565b50565b5f806106fd84846106f6611655565b9190611682565b915091505b9250929050565b5f6107126111b7565b9050610728818a6107216115e6565b919061172a565b61074a818a8a8a8a8a8a8a8a61073c610f14565b989796959493929190611767565b505050505050505050565b5f61075e6111b7565b905061076c8161068f611536565b61078283838361077a6111c0565b929190611a5b565b505050565b365f610791611b30565b915091509091565b60606107b3858585856107aa610f14565b93929190611b3a565b90505b949350505050565b5f6107c76111b7565b90506107f67f6d696e7465720000000000000000000000000000000000000000000000000000826105a76111c0565b6108468187878787878080601f0160208091040260200160405190810160405280939291908181526020018383808284375f9201919091525061083c9250610f14915050565b9493929190611c77565b505050505050565b6108596106876111b7565b6106e481610865611655565b90611d83565b6108766106876111b7565b84838114801561088557508082145b6108f0576040517f08c379a000000000000000000000000000000000000000000000000000000000815260206004820152601d60248201527f5265636f766572793a20696e636f6e73697374656e742061727261797300000060448201526064015b60405180910390fd5b5f5b81811461065c5761098088888381811061090e5761090e613a2d565b905060200201602081019061092391906135b3565b85858481811061093557610935613a2d565b9050602002013588888581811061094e5761094e613a2d565b905060200201602081019061096391906135b3565b73ffffffffffffffffffffffffffffffffffffffff169190611e09565b6001016108f2565b6106e46109936111b7565b8261099c6111c0565b9190611e96565b5f61056a6109af611536565b5473ffffffffffffffffffffffffffffffffffffffff1690565b6109d46106876111b7565b6106e4816109e0611655565b90611f39565b5f61053c83836109f46111c0565b5f9283526020908152604080842073ffffffffffffffffffffffffffffffffffffffff909316845291905290205460ff1690565b606061056a610a356110f7565b611f86565b5f61056a610a466110f7565b6002015473ffffffffffffffffffffffffffffffffffffffff1690565b8015610a7b57610a7b82610a756115e6565b90611f97565b610a98610a866111b7565b8383610a90610f14565b929190611fa1565b5050565b5f61056a6109af6115e6565b610ab36106876111b7565b848381148015610ac257508082145b610b28576040517f08c379a000000000000000000000000000000000000000000000000000000000815260206004820152601d60248201527f5265636f766572793a20696e636f6e73697374656e742061727261797300000060448201526064016108e7565b5f5b81811461065c57858582818110610b4357610b43613a2d565b9050602002016020810190610b5891906135b3565b73ffffffffffffffffffffffffffffffffffffffff166323b872dd308a8a85818110610b8657610b86613a2d565b9050602002016020810190610b9b91906135b3565b878786818110610bad57610bad613a2d565b6040517fffffffff0000000000000000000000000000000000000000000000000000000060e088901b16815273ffffffffffffffffffffffffffffffffffffffff9586166004820152949093166024850152506020909102013560448201526064015f604051808303815f87803b158015610c26575f80fd5b505af1158015610c38573d5f803e3d5ffd5b50505050806001019050610b2a565b5f610c506111b7565b9050610c5e8161068f611536565b610782838383610c6c6111c0565b9291906120d0565b5f610c7d6111b7565b9050610cac7f6d696e7465720000000000000000000000000000000000000000000000000000826105a76111c0565b61074a818a8a808060200260200160405190810160405280939291908181526020018383602002808284375f9201919091525050604080516020808e0282810182019093528d82529093508d92508c9182918501908490808284375f9201919091525050604080516020808d0282810182019093528c82529093508c92508b9182918501908490808284375f9201919091525050604080516020601f8c018190048102820181019092528a815292508a91508990819084018382808284375f92019190915250610d7f9250610f14915050565b9493929190612198565b5f61053c8383610d97610f14565b919073ffffffffffffffffffffffffffffffffffffffff9182165f908152600193909301602090815260408085209290931684525290205460ff1690565b5f610dde6111b7565b9050610ded81886107216115e6565b610e0b81888888888888610dff610f14565b96959493929190612287565b50505050505050565b6106e4610e1f6111b7565b82610e28611536565b9190612469565b610e3a6106876111b7565b82818114610ea4576040517f08c379a000000000000000000000000000000000000000000000000000000000815260206004820152601d60248201527f5265636f766572793a20696e636f6e73697374656e742061727261797300000060448201526064016108e7565b5f5b81811461084657610f0c848483818110610ec257610ec2613a2d565b90506020020135878784818110610edb57610edb613a2d565b9050602002016020810190610ef091906135b3565b73ffffffffffffffffffffffffffffffffffffffff1690612594565b600101610ea6565b5f8061053f60017f5ccf5846fa27a68fafc8e588671a68f5e67c2f9b56af4263806a4d71735e8613613a87565b5f73ffffffffffffffffffffffffffffffffffffffff8316610fbf576040517f08c379a000000000000000000000000000000000000000000000000000000000815260206004820152601e60248201527f455243313135353a2062616c616e6365206f662061646472657373283029000060448201526064016108e7565b505f9081526020928352604080822073ffffffffffffffffffffffffffffffffffffffff9390931682529190925290205490565b5f8061053f60017fca9d3e17f264b0f3984e2634e94adb37fa3e6a8103f06aeae6fa59e21c769f5e613a87565b5f7c01000000000000000000000000000000000000000000000000000000007fffffffff0000000000000000000000000000000000000000000000000000000083160161106e57505f61053f565b7ffe003659000000000000000000000000000000000000000000000000000000007fffffffff000000000000000000000000000000000000000000000000000000008316016110bf5750600161053f565b507fffffffff00000000000000000000000000000000000000000000000000000000165f908152602091909152604090205460ff1690565b5f8061053f60017f7ea68fd2dcf1c056b94db6a0a537aa80d26fa9ab1eacd85da1ba0b61b7e7a8a5613a87565b6060815f01805461113490613a9a565b80601f016020809104026020016040519081016040528092919081815260200182805461116090613a9a565b80156111ab5780601f10611182576101008083540402835291602001916111ab565b820191905f5260205f20905b81548152906001019060200180831161118e57829003601f168201915b50505050509050919050565b5f61056a6126ea565b5f8061053f60017fc8827d3282af6f37b64c3e9e6f3ac9df286ab0bb0fccd6f8661bf19adb368b23613a87565b5f8281526020848152604080832073ffffffffffffffffffffffffffffffffffffffff8516845290915290205460ff166107825761122a8261282e565b60405160200161123a9190613aeb565b604080517fffffffffffffffffffffffffffffffffffffffffffffffffffffffffffffffe0818403018152908290527f08c379a00000000000000000000000000000000000000000000000000000000082526108e791600401613466565b73ffffffffffffffffffffffffffffffffffffffff8416611315576040517f08c379a000000000000000000000000000000000000000000000000000000000815260206004820152601b60248201527f455243313135353a206d696e7420746f2061646472657373283029000000000060448201526064016108e7565b825182518114611381576040517f08c379a000000000000000000000000000000000000000000000000000000000815260206004820152601c60248201527f455243313135353a20696e636f6e73697374656e74206172726179730000000060448201526064016108e7565b5f5b8181146113d0576113c888878784815181106113a1576113a1613a2d565b60200260200101518785815181106113bb576113bb613a2d565b60200260200101516129b9565b600101611383565b508473ffffffffffffffffffffffffffffffffffffffff165f73ffffffffffffffffffffffffffffffffffffffff168773ffffffffffffffffffffffffffffffffffffffff167f4a39dc06d4c0dbc64b70af90fd698a233a518aa5d07e595d983b8c0526c8f7fb8787604051611447929190613b56565b60405180910390a473ffffffffffffffffffffffffffffffffffffffff85163b15610e0b57610e0b865f87878787612a8b565b60028301546040517ff724dad700000000000000000000000000000000000000000000000000000000815273ffffffffffffffffffffffffffffffffffffffff848116600483015260248201849052606092169063f724dad7906044015f60405180830381865afa1580156114f1573d5f803e3d5ffd5b505050506040513d5f823e601f3d9081017fffffffffffffffffffffffffffffffffffffffffffffffffffffffffffffffe01682016040526107b69190810190613bb0565b5f8061053f60017fc9ed16f33ab3a66c84bfd83099ccb2a8845871e2e1c1928f63797152f0fd54cd613a87565b815473ffffffffffffffffffffffffffffffffffffffff828116911614610a98576040517f08c379a000000000000000000000000000000000000000000000000000000000815260206004820152601860248201527f4f776e6572736869703a206e6f7420746865206f776e6572000000000000000060448201526064016108e7565b5f8061053f60017f609b85bcafa81ecfaf3ff62cdde2c6c9082a68dbe4922f07399c706bdeb7cd31613a87565b81547fffffffffffffffffffffffff00000000000000000000000000000000000000001673ffffffffffffffffffffffffffffffffffffffff91909116179055565b5f8061053f60017f2c0cf10337caabbd02dcf226f05f5fd19a0919a41a8df8958c39b80007826858613a87565b825473ffffffffffffffffffffffffffffffffffffffff8116905f907401000000000000000000000000000000000000000090046bffffffffffffffffffffffff168315806116cf575080155b156116dc575f9150611721565b620186a084101561170657620186a06116f58286613c6b565b6116ff9190613c82565b9150611721565b80611714620186a086613c82565b61171e9190613c6b565b91505b50935093915050565b8073ffffffffffffffffffffffffffffffffffffffff168273ffffffffffffffffffffffffffffffffffffffff1614610782576107828383612bb0565b73ffffffffffffffffffffffffffffffffffffffff87166117e4576040517f08c379a000000000000000000000000000000000000000000000000000000000815260206004820152601f60248201527f455243313135353a207472616e7366657220746f20616464726573732830290060448201526064016108e7565b8483811461184e576040517f08c379a000000000000000000000000000000000000000000000000000000000815260206004820152601c60248201527f455243313135353a20696e636f6e73697374656e74206172726179730000000060448201526064016108e7565b6118598b8a8c612cd4565b6118bf576040517f08c379a000000000000000000000000000000000000000000000000000000000815260206004820152601c60248201527f455243313135353a206e6f6e2d617070726f7665642073656e6465720000000060448201526064016108e7565b5f5b81811461190d576119058c8b8b8b8b868181106118e0576118e0613a2d565b905060200201358a8a878181106118f9576118f9613a2d565b90506020020135612d47565b6001016118c1565b508773ffffffffffffffffffffffffffffffffffffffff168973ffffffffffffffffffffffffffffffffffffffff168b73ffffffffffffffffffffffffffffffffffffffff167f4a39dc06d4c0dbc64b70af90fd698a233a518aa5d07e595d983b8c0526c8f7fb8a8a8a8a6040516119889493929190613d03565b60405180910390a473ffffffffffffffffffffffffffffffffffffffff88163b15611a4e57611a4e8a8a8a8a8a808060200260200160405190810160405280939291908181526020018383602002808284375f9201919091525050604080516020808e0282810182019093528d82529093508d92508c9182918501908490808284375f9201919091525050604080516020601f8d018190048102820181019092528b815292508b91508a90819084018382808284375f92019190915250612a8b92505050565b5050505050505050505050565b5f8381526020858152604080832073ffffffffffffffffffffffffffffffffffffffff8616845290915290205460ff16611b2a575f8381526020858152604080832073ffffffffffffffffffffffffffffffffffffffff8681168086529184529382902080547fffffffffffffffffffffffffffffffffffffffffffffffffffffffffffffff00166001179055815187815292830152918316918101919091527f2f8788117e7eff1d82e926ec794901d17c78024a50270940304540a733656f0d906060015b60405180910390a15b50505050565b365f610791612ef8565b606083828114611ba6576040517f08c379a000000000000000000000000000000000000000000000000000000000815260206004820152601c60248201527f455243313135353a20696e636f6e73697374656e74206172726179730000000060448201526064016108e7565b8467ffffffffffffffff811115611bbf57611bbf613b83565b604051908082528060200260200182016040528015611be8578160200160208202803683370190505b5091505f5b818114611c6c57611c47878783818110611c0957611c09613a2d565b9050602002016020810190611c1e91906135b3565b868684818110611c3057611c30613a2d565b905060200201358a610f419092919063ffffffff16565b838281518110611c5957611c59613a2d565b6020908102919091010152600101611bed565b505095945050505050565b73ffffffffffffffffffffffffffffffffffffffff8416611cf4576040517f08c379a000000000000000000000000000000000000000000000000000000000815260206004820152601b60248201527f455243313135353a206d696e7420746f2061646472657373283029000000000060448201526064016108e7565b611d00868585856129b9565b604080518481526020810184905273ffffffffffffffffffffffffffffffffffffffff808716925f92918916917fc3d58168c5ae7397731d063d5bbf3d657854427343f4c083240f7aacaa2d0f62910160405180910390a473ffffffffffffffffffffffffffffffffffffffff84163b1561084657610846855f8686868661305d565b620186a0811115611dc3576040517f3affc6c4000000000000000000000000000000000000000000000000000000008152600481018290526024016108e7565b81546bffffffffffffffffffffffff909116740100000000000000000000000000000000000000000273ffffffffffffffffffffffffffffffffffffffff909116179055565b6040805173ffffffffffffffffffffffffffffffffffffffff8416602482015260448082018490528251808303909101815260649091019091526020810180517bffffffffffffffffffffffffffffffffffffffffffffffffffffffff167fa9059cbb000000000000000000000000000000000000000000000000000000001790526107829084906130b9565b611ea18382846111ed565b5f8181526020848152604080832073ffffffffffffffffffffffffffffffffffffffff86168085529083529281902080547fffffffffffffffffffffffffffffffffffffffffffffffffffffffffffffff0016905580518481529182018390528101919091527ff6391f5c32d9c69d2a47ea670b442974b53935d1edc7fd64eb21e047a839171b9060600160405180910390a1505050565b73ffffffffffffffffffffffffffffffffffffffff8116611613576040517f6fe1b4c800000000000000000000000000000000000000000000000000000000815260040160405180910390fd5b606081600101805461113490613a9a565b610a988282612bb0565b8273ffffffffffffffffffffffffffffffffffffffff168273ffffffffffffffffffffffffffffffffffffffff1603612036576040517f08c379a000000000000000000000000000000000000000000000000000000000815260206004820152601e60248201527f455243313135353a2073656c662d617070726f76616c20666f7220616c6c000060448201526064016108e7565b73ffffffffffffffffffffffffffffffffffffffff8381165f81815260018701602090815260408083209487168084529482529182902080547fffffffffffffffffffffffffffffffffffffffffffffffffffffffffffffff001686151590811790915591519182527f17307eab39ab6107e8899845ad3d59bd9653f200f220920489ca2b5937696c31910160405180910390a350505050565b5f8381526020858152604080832073ffffffffffffffffffffffffffffffffffffffff8616845290915290205460ff1615611b2a575f8381526020858152604080832073ffffffffffffffffffffffffffffffffffffffff8681168086529184529382902080547fffffffffffffffffffffffffffffffffffffffffffffffffffffffffffffff00169055815187815292830152918316918101919091527ff6391f5c32d9c69d2a47ea670b442974b53935d1edc7fd64eb21e047a839171b90606001611b21565b83518351811480156121aa5750825181145b612210576040517f08c379a000000000000000000000000000000000000000000000000000000000815260206004820152601c60248201527f455243313135353a20696e636f6e73697374656e74206172726179730000000060448201526064016108e7565b5f5b81811461065c5761227f8787838151811061222f5761222f613a2d565b602002602001015187848151811061224957612249613a2d565b602002602001015187858151811061226357612263613a2d565b6020026020010151878d611c779095949392919063ffffffff16565b600101612212565b73ffffffffffffffffffffffffffffffffffffffff8516612304576040517f08c379a000000000000000000000000000000000000000000000000000000000815260206004820152601f60248201527f455243313135353a207472616e7366657220746f20616464726573732830290060448201526064016108e7565b61230f888789612cd4565b612375576040517f08c379a000000000000000000000000000000000000000000000000000000000815260206004820152601c60248201527f455243313135353a206e6f6e2d617070726f7665642073656e6465720000000060448201526064016108e7565b6123828887878787612d47565b8473ffffffffffffffffffffffffffffffffffffffff168673ffffffffffffffffffffffffffffffffffffffff168873ffffffffffffffffffffffffffffffffffffffff167fc3d58168c5ae7397731d063d5bbf3d657854427343f4c083240f7aacaa2d0f628787604051612401929190918252602082015260400190565b60405180910390a473ffffffffffffffffffffffffffffffffffffffff85163b1561065c5761065c878787878787878080601f0160208091040260200160405190810160405280939291908181526020018383808284375f9201919091525061305d92505050565b825473ffffffffffffffffffffffffffffffffffffffff90811690831681146124ee576040517f08c379a000000000000000000000000000000000000000000000000000000000815260206004820152601860248201527f4f776e6572736869703a206e6f7420746865206f776e6572000000000000000060448201526064016108e7565b8173ffffffffffffffffffffffffffffffffffffffff168173ffffffffffffffffffffffffffffffffffffffff1614611b2a5783547fffffffffffffffffffffffff00000000000000000000000000000000000000001673ffffffffffffffffffffffffffffffffffffffff8381169182178655604051908316907f8be0079c531659141344cd1fd0a4f28419497f9722a3daafe3b4186f6b6457e0905f90a350505050565b804710156125fe576040517f08c379a000000000000000000000000000000000000000000000000000000000815260206004820152601d60248201527f416464726573733a20696e73756666696369656e742062616c616e636500000060448201526064016108e7565b5f8273ffffffffffffffffffffffffffffffffffffffff16826040515f6040518083038185875af1925050503d805f8114612654576040519150601f19603f3d011682016040523d82523d5f602084013e612659565b606091505b5050905080610782576040517f08c379a000000000000000000000000000000000000000000000000000000000815260206004820152603a60248201527f416464726573733a20756e61626c6520746f2073656e642076616c75652c207260448201527f6563697069656e74206d6179206861766520726576657274656400000000000060648201526084016108e7565b5f333214806126f95750601836105b1561270357503390565b7fffffffffffffffffffffffffffffffffffffffffffffffffffffffffffffffec36013560601c7f000000000000000000000000000000000000000000000000000000000000000073ffffffffffffffffffffffffffffffffffffffff1633148061281d57506040517f8929a8ca00000000000000000000000000000000000000000000000000000000815273ffffffffffffffffffffffffffffffffffffffff82811660048301523360248301527f00000000000000000000000000000000000000000000000000000000000000001690638929a8ca90604401602060405180830381865afa1580156127f9573d5f803e3d5ffd5b505050506040513d601f19601f8201168201806040525081019061281d9190613d29565b1561282757919050565b3391505090565b60605f82900361284b57505060408051602081019091525f815290565b5f8260405160200161285f91815260200190565b604080517fffffffffffffffffffffffffffffffffffffffffffffffffffffffffffffffe08184030181529190529050601f5b8181815181106128a4576128a4613a2d565b01602001517fff00000000000000000000000000000000000000000000000000000000000000165f036128f8577fffffffffffffffffffffffffffffffffffffffffffffffffffffffffffffffff01612892565b5f8160010167ffffffffffffffff81111561291557612915613b83565b6040519080825280601f01601f19166020018201604052801561293f576020820181803683370190505b5090505f5b8281116129b05783818151811061295d5761295d613a2d565b602001015160f81c60f81b82828151811061297a5761297a613a2d565b60200101907effffffffffffffffffffffffffffffffffffffffffffffffffffffffffffff191690815f1a905350600101612944565b50949350505050565b8015611b2a575f8281526020858152604080832073ffffffffffffffffffffffffffffffffffffffff87168452909152902054818101818111612a58576040517f08c379a000000000000000000000000000000000000000000000000000000000815260206004820152601960248201527f455243313135353a2062616c616e6365206f766572666c6f770000000000000060448201526064016108e7565b5f9384526020958652604080852073ffffffffffffffffffffffffffffffffffffffff9690961685529490955250502055565b6040517fbc197c81000000000000000000000000000000000000000000000000000000008082529073ffffffffffffffffffffffffffffffffffffffff86169063bc197c8190612ae7908a908a90899089908990600401613d44565b6020604051808303815f875af1158015612b03573d5f803e3d5ffd5b505050506040513d601f19601f82011682018060405250810190612b279190613dae565b7fffffffff000000000000000000000000000000000000000000000000000000001614610846576040517f08c379a000000000000000000000000000000000000000000000000000000000815260206004820152601a60248201527f455243313135353a207472616e736665722072656a656374656400000000000060448201526064016108e7565b815473ffffffffffffffffffffffffffffffffffffffff168015801590612bed57505f8173ffffffffffffffffffffffffffffffffffffffff163b115b15610782576040517fc617113400000000000000000000000000000000000000000000000000000000815230600482015273ffffffffffffffffffffffffffffffffffffffff838116602483015282169063c617113490604401602060405180830381865afa158015612c62573d5f803e3d5ffd5b505050506040513d601f19601f82011682018060405250810190612c869190613d29565b610782576040517fede71dcc00000000000000000000000000000000000000000000000000000000815273ffffffffffffffffffffffffffffffffffffffff831660048201526024016108e7565b5f8173ffffffffffffffffffffffffffffffffffffffff168373ffffffffffffffffffffffffffffffffffffffff1614806107b657505073ffffffffffffffffffffffffffffffffffffffff9182165f908152600193909301602090815260408085209290931684525290205460ff1690565b8015612ef1575f8281526020868152604080832073ffffffffffffffffffffffffffffffffffffffff88168452909152902054818103818110612de6576040517f08c379a000000000000000000000000000000000000000000000000000000000815260206004820152601d60248201527f455243313135353a20696e73756666696369656e742062616c616e636500000060448201526064016108e7565b8473ffffffffffffffffffffffffffffffffffffffff168673ffffffffffffffffffffffffffffffffffffffff1614610e0b575f8481526020888152604080832073ffffffffffffffffffffffffffffffffffffffff89168452909152902054838101818111612eb2576040517f08c379a000000000000000000000000000000000000000000000000000000000815260206004820152601960248201527f455243313135353a2062616c616e6365206f766572666c6f770000000000000060448201526064016108e7565b5f86815260208a8152604080832073ffffffffffffffffffffffffffffffffffffffff808d1685528184528285208890558b1684529091529020555050505b5050505050565b365f33321480612f085750601836105b15612f1557505f91369150565b3373ffffffffffffffffffffffffffffffffffffffff7f0000000000000000000000000000000000000000000000000000000000000000161480613048575073ffffffffffffffffffffffffffffffffffffffff7f000000000000000000000000000000000000000000000000000000000000000016638929a8ca367fffffffffffffffffffffffffffffffffffffffffffffffffffffffffffffffec013560601c6040517fffffffff0000000000000000000000000000000000000000000000000000000060e084901b16815273ffffffffffffffffffffffffffffffffffffffff9091166004820152336024820152604401602060405180830381865afa158015613024573d5f803e3d5ffd5b505050506040513d601f19601f820116820180604052508101906130489190613d29565b15613055576107916131c6565b505f91369150565b6040517ff23a6e61000000000000000000000000000000000000000000000000000000008082529073ffffffffffffffffffffffffffffffffffffffff86169063f23a6e6190612ae7908a908a90899089908990600401613dc9565b5f61311a826040518060400160405280602081526020017f5361666545524332303a206c6f772d6c6576656c2063616c6c206661696c65648152508573ffffffffffffffffffffffffffffffffffffffff166131f69092919063ffffffff16565b905080515f148061313a57508080602001905181019061313a9190613d29565b610782576040517f08c379a000000000000000000000000000000000000000000000000000000000815260206004820152602a60248201527f5361666545524332303a204552433230206f7065726174696f6e20646964206e60448201527f6f7420737563636565640000000000000000000000000000000000000000000060648201526084016108e7565b365f6107917fffffffffffffffffffffffffffffffffffffffffffffffffffffffffffffffec8301828481613e0d565b60606107b684845f85855f808673ffffffffffffffffffffffffffffffffffffffff1685876040516132289190613e34565b5f6040518083038185875af1925050503d805f8114613262576040519150601f19603f3d011682016040523d82523d5f602084013e613267565b606091505b509150915061327887838387613283565b979650505050505050565b606083156133185782515f036133115773ffffffffffffffffffffffffffffffffffffffff85163b613311576040517f08c379a000000000000000000000000000000000000000000000000000000000815260206004820152601d60248201527f416464726573733a2063616c6c20746f206e6f6e2d636f6e747261637400000060448201526064016108e7565b50816107b6565b6107b6838381511561332d5781518083602001fd5b806040517f08c379a00000000000000000000000000000000000000000000000000000000081526004016108e79190613466565b73ffffffffffffffffffffffffffffffffffffffff811681146106e4575f80fd5b5f8060408385031215613393575f80fd5b823561339e81613361565b946020939093013593505050565b7fffffffff00000000000000000000000000000000000000000000000000000000811681146106e4575f80fd5b5f602082840312156133e9575f80fd5b81356133f4816133ac565b9392505050565b5f5b838110156134155781810151838201526020016133fd565b50505f910152565b5f81518084526134348160208601602086016133fb565b601f017fffffffffffffffffffffffffffffffffffffffffffffffffffffffffffffffe0169290920160200192915050565b602081525f61053c602083018461341d565b5f8083601f840112613488575f80fd5b50813567ffffffffffffffff81111561349f575f80fd5b6020830191508360208260051b8501011115610702575f80fd5b5f8083601f8401126134c9575f80fd5b50813567ffffffffffffffff8111156134e0575f80fd5b602083019150836020828501011115610702575f80fd5b5f805f805f805f6080888a03121561350d575f80fd5b873561351881613361565b9650602088013567ffffffffffffffff80821115613534575f80fd5b6135408b838c01613478565b909850965060408a0135915080821115613558575f80fd5b6135648b838c01613478565b909650945060608a013591508082111561357c575f80fd5b506135898a828b016134b9565b989b979a50959850939692959293505050565b5f602082840312156135ac575f80fd5b5035919050565b5f602082840312156135c3575f80fd5b81356133f481613361565b5f80604083850312156135df575f80fd5b50508035926020909101359150565b5f805f805f805f8060a0898b031215613605575f80fd5b883561361081613361565b9750602089013561362081613361565b9650604089013567ffffffffffffffff8082111561363c575f80fd5b6136488c838d01613478565b909850965060608b0135915080821115613660575f80fd5b61366c8c838d01613478565b909650945060808b0135915080821115613684575f80fd5b506136918b828c016134b9565b999c989b5096995094979396929594505050565b5f80604083850312156136b6575f80fd5b8235915060208301356136c881613361565b809150509250929050565b60208152816020820152818360408301375f818301604090810191909152601f9092017fffffffffffffffffffffffffffffffffffffffffffffffffffffffffffffffe0160101919050565b5f805f8060408587031215613732575f80fd5b843567ffffffffffffffff80821115613749575f80fd5b61375588838901613478565b9096509450602087013591508082111561376d575f80fd5b5061377a87828801613478565b95989497509550505050565b5f8151808452602080850194508084015f5b838110156137b457815187529582019590820190600101613798565b509495945050505050565b602081525f61053c6020830184613786565b5f805f805f608086880312156137e5575f80fd5b85356137f081613361565b94506020860135935060408601359250606086013567ffffffffffffffff811115613819575f80fd5b613825888289016134b9565b969995985093965092949392505050565b5f805f805f806060878903121561384b575f80fd5b863567ffffffffffffffff80821115613862575f80fd5b61386e8a838b01613478565b90985096506020890135915080821115613886575f80fd5b6138928a838b01613478565b909650945060408901359150808211156138aa575f80fd5b506138b789828a01613478565b979a9699509497509295939492505050565b80151581146106e4575f80fd5b5f80604083850312156138e7575f80fd5b82356138f281613361565b915060208301356136c8816138c9565b5f805f805f805f806080898b031215613919575f80fd5b883567ffffffffffffffff80821115613930575f80fd5b61393c8c838d01613478565b909a50985060208b0135915080821115613954575f80fd5b6139608c838d01613478565b909850965060408b0135915080821115613978575f80fd5b6139848c838d01613478565b909650945060608b0135915080821115613684575f80fd5b5f80604083850312156139ad575f80fd5b82356139b881613361565b915060208301356136c881613361565b5f805f805f8060a087890312156139dd575f80fd5b86356139e881613361565b955060208701356139f881613361565b94506040870135935060608701359250608087013567ffffffffffffffff811115613a21575f80fd5b6138b789828a016134b9565b7f4e487b71000000000000000000000000000000000000000000000000000000005f52603260045260245ffd5b7f4e487b71000000000000000000000000000000000000000000000000000000005f52601160045260245ffd5b8181038181111561053f5761053f613a5a565b600181811c90821680613aae57607f821691505b602082108103613ae5577f4e487b71000000000000000000000000000000000000000000000000000000005f52602260045260245ffd5b50919050565b7f416363657373436f6e74726f6c3a206d697373696e672027000000000000000081525f8251613b228160188501602087016133fb565b7f2720726f6c6500000000000000000000000000000000000000000000000000006018939091019283015250601e01919050565b604081525f613b686040830185613786565b8281036020840152613b7a8185613786565b95945050505050565b7f4e487b71000000000000000000000000000000000000000000000000000000005f52604160045260245ffd5b5f60208284031215613bc0575f80fd5b815167ffffffffffffffff80821115613bd7575f80fd5b818401915084601f830112613bea575f80fd5b815181811115613bfc57613bfc613b83565b604051601f82017fffffffffffffffffffffffffffffffffffffffffffffffffffffffffffffffe0908116603f01168101908382118183101715613c4257613c42613b83565b81604052828152876020848701011115613c5a575f80fd5b6132788360208301602088016133fb565b808202811582820484141761053f5761053f613a5a565b5f82613cb5577f4e487b71000000000000000000000000000000000000000000000000000000005f52601260045260245ffd5b500490565b8183525f7f07ffffffffffffffffffffffffffffffffffffffffffffffffffffffffffffff831115613cea575f80fd5b8260051b80836020870137939093016020019392505050565b604081525f613d16604083018688613cba565b8281036020840152613278818587613cba565b5f60208284031215613d39575f80fd5b81516133f4816138c9565b5f73ffffffffffffffffffffffffffffffffffffffff808816835280871660208401525060a06040830152613d7c60a0830186613786565b8281036060840152613d8e8186613786565b90508281036080840152613da2818561341d565b98975050505050505050565b5f60208284031215613dbe575f80fd5b81516133f4816133ac565b5f73ffffffffffffffffffffffffffffffffffffffff808816835280871660208401525084604083015283606083015260a0608083015261327860a083018461341d565b5f8085851115613e1b575f80fd5b83861115613e27575f80fd5b5050820193919092039150565b5f8251613e458184602087016133fb565b919091019291505056fea2646970667358221220cb1e3f1c1ac54408b626da9e5883a14d096c00a763fd8e6c6c2de59b44087b3a64736f6c63430008150033",
  "linkReferences": {},
  "deployedLinkReferences": {}
}