{
  "_format": "hh-sol-artifact-1",
  "contractName": "ERC1155FullMock",
  "sourceName": "contracts/mocks/token/ERC1155/preset/ERC1155FullMock.sol",
  "abi": [
    {
      "inputs": [
        {
          "internalType": "string",
          "name": "tokenName",
          "type": "string"
        },
        {
          "internalType": "string",
          "name": "tokenSymbol",
          "type": "string"
        },
        {
          "internalType": "contract ITokenMetadataResolver",
          "name": "metadataResolver",
          "type": "address"
        },
        {
          "internalType": "contract IOperatorFilterRegistry",
          "name": "filterRegistry",
          "type": "address"
        },
        {
          "internalType": "contract IForwarderRegistry",
          "name": "forwarderRegistry",
          "type": "address"
        }
      ],
      "stateMutability": "nonpayable",
      "type": "constructor"
    },
    {
      "inputs": [],
      "name": "ERC1155BalanceOfAddressZero",
      "type": "error"
    },
    {
      "inputs": [
        {
          "internalType": "address",
          "name": "recipient",
          "type": "address"
        },
        {
          "internalType": "uint256",
          "name": "id",
          "type": "uint256"
        },
        {
          "internalType": "uint256",
          "name": "balance",
          "type": "uint256"
        },
        {
          "internalType": "uint256",
          "name": "value",
          "type": "uint256"
        }
      ],
      "name": "ERC1155BalanceOverflow",
      "type": "error"
    },
    {
      "inputs": [
        {
          "internalType": "address",
          "name": "owner",
          "type": "address"
        },
        {
          "internalType": "uint256",
          "name": "id",
          "type": "uint256"
        },
        {
          "internalType": "uint256",
          "name": "balance",
          "type": "uint256"
        },
        {
          "internalType": "uint256",
          "name": "value",
          "type": "uint256"
        }
      ],
      "name": "ERC1155InsufficientBalance",
      "type": "error"
    },
    {
      "inputs": [],
      "name": "ERC1155MintToAddressZero",
      "type": "error"
    },
    {
      "inputs": [
        {
          "internalType": "address",
          "name": "sender",
          "type": "address"
        },
        {
          "internalType": "address",
          "name": "owner",
          "type": "address"
        }
      ],
      "name": "ERC1155NonApproved",
      "type": "error"
    },
    {
      "inputs": [
        {
          "internalType": "address",
          "name": "recipient",
          "type": "address"
        },
        {
          "internalType": "uint256[]",
          "name": "ids",
          "type": "uint256[]"
        },
        {
          "internalType": "uint256[]",
          "name": "values",
          "type": "uint256[]"
        }
      ],
      "name": "ERC1155SafeBatchTransferRejected",
      "type": "error"
    },
    {
      "inputs": [
        {
          "internalType": "address",
          "name": "recipient",
          "type": "address"
        },
        {
          "internalType": "uint256",
          "name": "id",
          "type": "uint256"
        },
        {
          "internalType": "uint256",
          "name": "value",
          "type": "uint256"
        }
      ],
      "name": "ERC1155SafeTransferRejected",
      "type": "error"
    },
    {
      "inputs": [
        {
          "internalType": "address",
          "name": "account",
          "type": "address"
        }
      ],
      "name": "ERC1155SelfApprovalForAll",
      "type": "error"
    },
    {
      "inputs": [],
      "name": "ERC1155TransferToAddressZero",
      "type": "error"
    },
    {
      "inputs": [
        {
          "internalType": "uint256",
          "name": "percentage",
          "type": "uint256"
        }
      ],
      "name": "ERC2981IncorrectRoyaltyPercentage",
      "type": "error"
    },
    {
      "inputs": [],
      "name": "ERC2981IncorrectRoyaltyReceiver",
      "type": "error"
    },
    {
      "inputs": [],
      "name": "IllegalInterfaceId",
      "type": "error"
    },
    {
      "inputs": [],
      "name": "InconsistentArrayLengths",
      "type": "error"
    },
    {
      "inputs": [
        {
          "internalType": "address",
          "name": "account",
          "type": "address"
        }
      ],
      "name": "NotContractOwner",
      "type": "error"
    },
    {
      "inputs": [
        {
          "internalType": "bytes32",
          "name": "role",
          "type": "bytes32"
        },
        {
          "internalType": "address",
          "name": "account",
          "type": "address"
        }
      ],
      "name": "NotRoleHolder",
      "type": "error"
    },
    {
      "inputs": [
        {
          "internalType": "address",
          "name": "operator",
          "type": "address"
        }
      ],
      "name": "OperatorNotAllowed",
      "type": "error"
    },
    {
      "anonymous": false,
      "inputs": [
        {
          "indexed": true,
          "internalType": "address",
          "name": "owner",
          "type": "address"
        },
        {
          "indexed": true,
          "internalType": "address",
          "name": "operator",
          "type": "address"
        },
        {
          "indexed": false,
          "internalType": "bool",
          "name": "approved",
          "type": "bool"
        }
      ],
      "name": "ApprovalForAll",
      "type": "event"
    },
    {
      "anonymous": false,
      "inputs": [
        {
          "indexed": true,
          "internalType": "address",
          "name": "previousOwner",
          "type": "address"
        },
        {
          "indexed": true,
          "internalType": "address",
          "name": "newOwner",
          "type": "address"
        }
      ],
      "name": "OwnershipTransferred",
      "type": "event"
    },
    {
      "anonymous": false,
      "inputs": [
        {
          "indexed": false,
          "internalType": "bytes32",
          "name": "role",
          "type": "bytes32"
        },
        {
          "indexed": false,
          "internalType": "address",
          "name": "account",
          "type": "address"
        },
        {
          "indexed": false,
          "internalType": "address",
          "name": "operator",
          "type": "address"
        }
      ],
      "name": "RoleGranted",
      "type": "event"
    },
    {
      "anonymous": false,
      "inputs": [
        {
          "indexed": false,
          "internalType": "bytes32",
          "name": "role",
          "type": "bytes32"
        },
        {
          "indexed": false,
          "internalType": "address",
          "name": "account",
          "type": "address"
        },
        {
          "indexed": false,
          "internalType": "address",
          "name": "operator",
          "type": "address"
        }
      ],
      "name": "RoleRevoked",
      "type": "event"
    },
    {
      "anonymous": false,
      "inputs": [
        {
          "indexed": true,
          "internalType": "address",
          "name": "operator",
          "type": "address"
        },
        {
          "indexed": true,
          "internalType": "address",
          "name": "from",
          "type": "address"
        },
        {
          "indexed": true,
          "internalType": "address",
          "name": "to",
          "type": "address"
        },
        {
          "indexed": false,
          "internalType": "uint256[]",
          "name": "ids",
          "type": "uint256[]"
        },
        {
          "indexed": false,
          "internalType": "uint256[]",
          "name": "values",
          "type": "uint256[]"
        }
      ],
      "name": "TransferBatch",
      "type": "event"
    },
    {
      "anonymous": false,
      "inputs": [
        {
          "indexed": true,
          "internalType": "address",
          "name": "operator",
          "type": "address"
        },
        {
          "indexed": true,
          "internalType": "address",
          "name": "from",
          "type": "address"
        },
        {
          "indexed": true,
          "internalType": "address",
          "name": "to",
          "type": "address"
        },
        {
          "indexed": false,
          "internalType": "uint256",
          "name": "id",
          "type": "uint256"
        },
        {
          "indexed": false,
          "internalType": "uint256",
          "name": "value",
          "type": "uint256"
        }
      ],
      "name": "TransferSingle",
      "type": "event"
    },
    {
      "anonymous": false,
      "inputs": [
        {
          "indexed": false,
          "internalType": "string",
          "name": "value",
          "type": "string"
        },
        {
          "indexed": true,
          "internalType": "uint256",
          "name": "id",
          "type": "uint256"
        }
      ],
      "name": "URI",
      "type": "event"
    },
    {
      "inputs": [],
      "name": "MINTER_ROLE",
      "outputs": [
        {
          "internalType": "bytes32",
          "name": "",
          "type": "bytes32"
        }
      ],
      "stateMutability": "view",
      "type": "function"
    },
    {
      "inputs": [],
      "name": "ROYALTY_FEE_DENOMINATOR",
      "outputs": [
        {
          "internalType": "uint256",
          "name": "",
          "type": "uint256"
        }
      ],
      "stateMutability": "view",
      "type": "function"
    },
    {
      "inputs": [],
      "name": "__msgData",
      "outputs": [
        {
          "internalType": "bytes",
          "name": "",
          "type": "bytes"
        }
      ],
      "stateMutability": "view",
      "type": "function"
    },
    {
      "inputs": [
        {
          "internalType": "address",
          "name": "owner",
          "type": "address"
        },
        {
          "internalType": "uint256",
          "name": "id",
          "type": "uint256"
        }
      ],
      "name": "balanceOf",
      "outputs": [
        {
          "internalType": "uint256",
          "name": "balance",
          "type": "uint256"
        }
      ],
      "stateMutability": "view",
      "type": "function"
    },
    {
      "inputs": [
        {
          "internalType": "address[]",
          "name": "owners",
          "type": "address[]"
        },
        {
          "internalType": "uint256[]",
          "name": "ids",
          "type": "uint256[]"
        }
      ],
      "name": "balanceOfBatch",
      "outputs": [
        {
          "internalType": "uint256[]",
          "name": "balances",
          "type": "uint256[]"
        }
      ],
      "stateMutability": "view",
      "type": "function"
    },
    {
      "inputs": [],
      "name": "forwarderRegistry",
      "outputs": [
        {
          "internalType": "contract IForwarderRegistry",
          "name": "",
          "type": "address"
        }
      ],
      "stateMutability": "view",
      "type": "function"
    },
    {
      "inputs": [
        {
          "internalType": "bytes32",
          "name": "role",
          "type": "bytes32"
        },
        {
          "internalType": "address",
          "name": "account",
          "type": "address"
        }
      ],
      "name": "grantRole",
      "outputs": [],
      "stateMutability": "nonpayable",
      "type": "function"
    },
    {
      "inputs": [
        {
          "internalType": "bytes32",
          "name": "role",
          "type": "bytes32"
        },
        {
          "internalType": "address",
          "name": "account",
          "type": "address"
        }
      ],
      "name": "hasRole",
      "outputs": [
        {
          "internalType": "bool",
          "name": "hasRole_",
          "type": "bool"
        }
      ],
      "stateMutability": "view",
      "type": "function"
    },
    {
      "inputs": [
        {
          "internalType": "address",
          "name": "owner",
          "type": "address"
        },
        {
          "internalType": "address",
          "name": "operator",
          "type": "address"
        }
      ],
      "name": "isApprovedForAll",
      "outputs": [
        {
          "internalType": "bool",
          "name": "approvedForAll",
          "type": "bool"
        }
      ],
      "stateMutability": "view",
      "type": "function"
    },
    {
      "inputs": [
        {
          "internalType": "address",
          "name": "forwarder",
          "type": "address"
        }
      ],
      "name": "isTrustedForwarder",
      "outputs": [
        {
          "internalType": "bool",
          "name": "",
          "type": "bool"
        }
      ],
      "stateMutability": "view",
      "type": "function"
    },
    {
      "inputs": [],
      "name": "metadataResolver",
      "outputs": [
        {
          "internalType": "contract ITokenMetadataResolver",
          "name": "tokenMetadataResolver",
          "type": "address"
        }
      ],
      "stateMutability": "view",
      "type": "function"
    },
    {
      "inputs": [],
      "name": "name",
      "outputs": [
        {
          "internalType": "string",
          "name": "tokenName",
          "type": "string"
        }
      ],
      "stateMutability": "view",
      "type": "function"
    },
    {
      "inputs": [],
      "name": "operatorFilterRegistry",
      "outputs": [
        {
          "internalType": "contract IOperatorFilterRegistry",
          "name": "",
          "type": "address"
        }
      ],
      "stateMutability": "view",
      "type": "function"
    },
    {
      "inputs": [],
      "name": "owner",
      "outputs": [
        {
          "internalType": "address",
          "name": "",
          "type": "address"
        }
      ],
      "stateMutability": "view",
      "type": "function"
    },
    {
      "inputs": [
        {
          "internalType": "address[]",
          "name": "accounts",
          "type": "address[]"
        },
        {
          "internalType": "contract IERC20[]",
          "name": "tokens",
          "type": "address[]"
        },
        {
          "internalType": "uint256[]",
          "name": "amounts",
          "type": "uint256[]"
        }
      ],
      "name": "recoverERC20s",
      "outputs": [],
      "stateMutability": "nonpayable",
      "type": "function"
    },
    {
      "inputs": [
        {
          "internalType": "address[]",
          "name": "accounts",
          "type": "address[]"
        },
        {
          "internalType": "contract IERC721[]",
          "name": "contracts",
          "type": "address[]"
        },
        {
          "internalType": "uint256[]",
          "name": "tokenIds",
          "type": "uint256[]"
        }
      ],
      "name": "recoverERC721s",
      "outputs": [],
      "stateMutability": "nonpayable",
      "type": "function"
    },
    {
      "inputs": [
        {
          "internalType": "address payable[]",
          "name": "accounts",
          "type": "address[]"
        },
        {
          "internalType": "uint256[]",
          "name": "amounts",
          "type": "uint256[]"
        }
      ],
      "name": "recoverETH",
      "outputs": [],
      "stateMutability": "nonpayable",
      "type": "function"
    },
    {
      "inputs": [
        {
          "internalType": "bytes32",
          "name": "role",
          "type": "bytes32"
        }
      ],
      "name": "renounceRole",
      "outputs": [],
      "stateMutability": "nonpayable",
      "type": "function"
    },
    {
      "inputs": [
        {
          "internalType": "bytes32",
          "name": "role",
          "type": "bytes32"
        },
        {
          "internalType": "address",
          "name": "account",
          "type": "address"
        }
      ],
      "name": "revokeRole",
      "outputs": [],
      "stateMutability": "nonpayable",
      "type": "function"
    },
    {
      "inputs": [
        {
          "internalType": "uint256",
          "name": "tokenId",
          "type": "uint256"
        },
        {
          "internalType": "uint256",
          "name": "salePrice",
          "type": "uint256"
        }
      ],
      "name": "royaltyInfo",
      "outputs": [
        {
          "internalType": "address",
          "name": "receiver",
          "type": "address"
        },
        {
          "internalType": "uint256",
          "name": "royaltyAmount",
          "type": "uint256"
        }
      ],
      "stateMutability": "view",
      "type": "function"
    },
    {
      "inputs": [
        {
          "internalType": "address",
          "name": "to",
          "type": "address"
        },
        {
          "internalType": "uint256[]",
          "name": "ids",
          "type": "uint256[]"
        },
        {
          "internalType": "uint256[]",
          "name": "values",
          "type": "uint256[]"
        },
        {
          "internalType": "bytes",
          "name": "data",
          "type": "bytes"
        }
      ],
      "name": "safeBatchMint",
      "outputs": [],
      "stateMutability": "nonpayable",
      "type": "function"
    },
    {
      "inputs": [
        {
          "internalType": "address",
          "name": "from",
          "type": "address"
        },
        {
          "internalType": "address",
          "name": "to",
          "type": "address"
        },
        {
          "internalType": "uint256[]",
          "name": "ids",
          "type": "uint256[]"
        },
        {
          "internalType": "uint256[]",
          "name": "values",
          "type": "uint256[]"
        },
        {
          "internalType": "bytes",
          "name": "data",
          "type": "bytes"
        }
      ],
      "name": "safeBatchTransferFrom",
      "outputs": [],
      "stateMutability": "nonpayable",
      "type": "function"
    },
    {
      "inputs": [
        {
          "internalType": "address[]",
          "name": "recipients",
          "type": "address[]"
        },
        {
          "internalType": "uint256[]",
          "name": "ids",
          "type": "uint256[]"
        },
        {
          "internalType": "uint256[]",
          "name": "values",
          "type": "uint256[]"
        },
        {
          "internalType": "bytes",
          "name": "data",
          "type": "bytes"
        }
      ],
      "name": "safeDeliver",
      "outputs": [],
      "stateMutability": "nonpayable",
      "type": "function"
    },
    {
      "inputs": [
        {
          "internalType": "address",
          "name": "to",
          "type": "address"
        },
        {
          "internalType": "uint256",
          "name": "id",
          "type": "uint256"
        },
        {
          "internalType": "uint256",
          "name": "value",
          "type": "uint256"
        },
        {
          "internalType": "bytes",
          "name": "data",
          "type": "bytes"
        }
      ],
      "name": "safeMint",
      "outputs": [],
      "stateMutability": "nonpayable",
      "type": "function"
    },
    {
      "inputs": [
        {
          "internalType": "address",
          "name": "from",
          "type": "address"
        },
        {
          "internalType": "address",
          "name": "to",
          "type": "address"
        },
        {
          "internalType": "uint256",
          "name": "id",
          "type": "uint256"
        },
        {
          "internalType": "uint256",
          "name": "value",
          "type": "uint256"
        },
        {
          "internalType": "bytes",
          "name": "data",
          "type": "bytes"
        }
      ],
      "name": "safeTransferFrom",
      "outputs": [],
      "stateMutability": "nonpayable",
      "type": "function"
    },
    {
      "inputs": [
        {
          "internalType": "address",
          "name": "operator",
          "type": "address"
        },
        {
          "internalType": "bool",
          "name": "approved",
          "type": "bool"
        }
      ],
      "name": "setApprovalForAll",
      "outputs": [],
      "stateMutability": "nonpayable",
      "type": "function"
    },
    {
      "inputs": [
        {
          "internalType": "uint256",
          "name": "percentage",
          "type": "uint256"
        }
      ],
      "name": "setRoyaltyPercentage",
      "outputs": [],
      "stateMutability": "nonpayable",
      "type": "function"
    },
    {
      "inputs": [
        {
          "internalType": "address",
          "name": "receiver",
          "type": "address"
        }
      ],
      "name": "setRoyaltyReceiver",
      "outputs": [],
      "stateMutability": "nonpayable",
      "type": "function"
    },
    {
      "inputs": [
        {
          "internalType": "bytes4",
          "name": "interfaceId",
          "type": "bytes4"
        }
      ],
      "name": "supportsInterface",
      "outputs": [
        {
          "internalType": "bool",
          "name": "",
          "type": "bool"
        }
      ],
      "stateMutability": "view",
      "type": "function"
    },
    {
      "inputs": [],
      "name": "symbol",
      "outputs": [
        {
          "internalType": "string",
          "name": "tokenSymbol",
          "type": "string"
        }
      ],
      "stateMutability": "view",
      "type": "function"
    },
    {
      "inputs": [
        {
          "internalType": "address",
          "name": "newOwner",
          "type": "address"
        }
      ],
      "name": "transferOwnership",
      "outputs": [],
      "stateMutability": "nonpayable",
      "type": "function"
    },
    {
      "inputs": [
        {
          "internalType": "contract IOperatorFilterRegistry",
          "name": "registry",
          "type": "address"
        }
      ],
      "name": "updateOperatorFilterRegistry",
      "outputs": [],
      "stateMutability": "nonpayable",
      "type": "function"
    },
    {
      "inputs": [
        {
          "internalType": "uint256",
          "name": "tokenId",
          "type": "uint256"
        }
      ],
      "name": "uri",
      "outputs": [
        {
          "internalType": "string",
          "name": "metadataURI",
          "type": "string"
        }
      ],
      "stateMutability": "view",
      "type": "function"
    }
  ],
  "bytecode": "0x60a060405234801562000010575f80fd5b506040516200410f3803806200410f83398101604081905262000033916200041c565b84848484848080868686863362000055816200004e620000f2565b9062000127565b5062000060620001a1565b6200008d816200006f620001bb565b9081546001600160a01b0319166001600160a01b0391909116179055565b50620000a88383836200009f620001ea565b92919062000219565b620000b262000260565b50620000c091505062000278565b620000ca62000290565b620000d4620002a8565b6001600160a01b031660805250620006369950505050505050505050565b5f806200012160017fc9ed16f33ab3a66c84bfd83099ccb2a8845871e2e1c1928f63797152f0fd54cd620004c2565b92915050565b6001600160a01b038116156200017d5781546001600160a01b0319166001600160a01b03821690811783556040515f907f8be0079c531659141344cd1fd0a4f28419497f9722a3daafe3b4186f6b6457e0908290a35b6200019d6307f5828d60e41b600162000195620002bb565b9190620002ea565b5050565b620001b9636cdb3d1360e11b600162000195620002bb565b565b5f806200012160017f609b85bcafa81ecfaf3ff62cdde2c6c9082a68dbe4922f07399c706bdeb7cd31620004c2565b5f806200012160017f7ea68fd2dcf1c056b94db6a0a537aa80d26fa9ab1eacd85da1ba0b61b7e7a8a5620004c2565b836200022684826200056e565b50600184016200023783826200056e565b5060029390930180546001600160a01b0319166001600160a01b03909416939093179092555050565b620001b96303a24d0760e21b600162000195620002bb565b620001b9631464324b60e21b600162000195620002bb565b620001b9633a2ae73360e21b600162000195620002bb565b620001b963152a902d60e11b6001620001955b5f806200012160017fca9d3e17f264b0f3984e2634e94adb37fa3e6a8103f06aeae6fa59e21c769f5e620004c2565b600160e01b6001600160e01b031983160162000319576040516372c683bb60e01b815260040160405180910390fd5b6001600160e01b0319919091165f9081526020929092526040909120805460ff1916911515919091179055565b634e487b7160e01b5f52604160045260245ffd5b5f82601f8301126200036a575f80fd5b81516001600160401b038082111562000387576200038762000346565b604051601f8301601f19908116603f01168101908282118183101715620003b257620003b262000346565b81604052838152602092508683858801011115620003ce575f80fd5b5f91505b83821015620003f15785820183015181830184015290820190620003d2565b5f93810190920192909252949350505050565b6001600160a01b038116811462000419575f80fd5b50565b5f805f805f60a0868803121562000431575f80fd5b85516001600160401b038082111562000448575f80fd5b6200045689838a016200035a565b965060208801519150808211156200046c575f80fd5b506200047b888289016200035a565b94505060408601516200048e8162000404565b6060870151909350620004a18162000404565b6080870151909250620004b48162000404565b809150509295509295909350565b818103818111156200012157634e487b7160e01b5f52601160045260245ffd5b600181811c90821680620004f757607f821691505b6020821081036200051657634e487b7160e01b5f52602260045260245ffd5b50919050565b601f82111562000569575f81815260208120601f850160051c81016020861015620005445750805b601f850160051c820191505b81811015620005655782815560010162000550565b5050505b505050565b81516001600160401b038111156200058a576200058a62000346565b620005a2816200059b8454620004e2565b846200051c565b602080601f831160018114620005d8575f8415620005c05750858301515b5f19600386901b1c1916600185901b17855562000565565b5f85815260208120601f198616915b828110156200060857888601518255948401946001909101908401620005e7565b50858210156200062657878501515f19600388901b60f8161c191681555b5050505050600190811b01905550565b608051613a9d620006725f395f81816102de0152818161038f01528181612464015281816124ec01528181612aa70152612ae50152613a9d5ff3fe608060405234801561000f575f80fd5b5060043610610200575f3560e01c80638bb9c5bf11610123578063c3666c36116100b8578063e8ab9ccc11610088578063f242432a1161006e578063f242432a146104ee578063f2fde38b14610501578063f7ba94bd14610514575f80fd5b8063e8ab9ccc146104c8578063e985e9c5146104db575f80fd5b8063c3666c3614610471578063d539139314610484578063d547741f146104ab578063e1a8bf2c146104be575f80fd5b806395d89b41116100f357806395d89b4114610446578063a0c76f621461044e578063a22cb46514610456578063b0ccc31e14610469575f80fd5b80638bb9c5bf146104055780638da5cb5b146104185780638dc251e31461042057806391d1485414610433575f80fd5b80632eb2c2d611610199578063572b6c0511610169578063572b6c051461037f5780635cfa9297146103cc57806361ba27da146103df57806373c8a958146103f2575f80fd5b80632eb2c2d6146103235780632f2ff15d1461033657806331e66e1e146103495780634e1273f41461035f575f80fd5b80630e89341c116101d45780630e89341c14610277578063114ba8ee1461028a5780632a55205a1461029d5780632b4c9f16146102dc575f80fd5b8062fdd58e1461020457806301ffc9a71461022a57806306fdde031461024d5780630d6a5bbb14610262575b5f80fd5b610217610212366004612fbb565b610527565b6040519081526020015b60405180910390f35b61023d610238366004613012565b610545565b6040519015158152602001610221565b610255610558565b604051610221919061309f565b610275610270366004613130565b61056f565b005b6102556102853660046131d5565b610666565b6102756102983660046131ec565b61067c565b6102b06102ab366004613207565b6106e7565b6040805173ffffffffffffffffffffffffffffffffffffffff9093168352602083019190915201610221565b7f00000000000000000000000000000000000000000000000000000000000000005b60405173ffffffffffffffffffffffffffffffffffffffff9091168152602001610221565b610275610331366004613227565b610709565b6102756103443660046132de565b610755565b610351610787565b60405161022192919061330c565b61037261036d366004613358565b610799565b60405161022191906133f8565b61023d61038d3660046131ec565b7f000000000000000000000000000000000000000000000000000000000000000073ffffffffffffffffffffffffffffffffffffffff90811691161490565b6102756103da36600461340a565b6107be565b6102756103ed3660046131d5565b61084e565b61027561040036600461346f565b61086b565b6102756104133660046131d5565b610955565b6102fe610970565b61027561042e3660046131ec565b610996565b61023d6104413660046132de565b6109b3565b6102556109f5565b6102fe610a07565b61027561046436600461350f565b610a30565b6102fe610a69565b61027561047f36600461346f565b610a75565b6102177f6d696e746572000000000000000000000000000000000000000000000000000081565b6102756104b93660046132de565b610be6565b610217620186a081565b6102756104d636600461353b565b610c13565b61023d6104e93660046135d5565b610d28565b6102756104fc366004613601565b610d74565b61027561050f3660046131ec565b610db3565b610275610522366004613358565b610dce565b5f61053c8383610535610e83565b9190610eb0565b90505b92915050565b5f61053f82610552610f32565b90610f5f565b606061056a610565611036565b611063565b905090565b5f6105786110f6565b90506105ae7f6d696e7465720000000000000000000000000000000000000000000000000000826105a76110ff565b919061112c565b61065c81898989808060200260200160405190810160405280939291908181526020018383602002808284375f9201919091525050604080516020808d0282810182019093528c82529093508c92508b9182918501908490808284375f9201919091525050604080516020601f8c018190048102820181019092528a815292508a91508990819084018382808284375f920191909152506106529250610e83915050565b94939291906111b6565b5050505050505050565b606061053f3083610675611036565b9190611338565b6106956106876110f6565b61068f6113f4565b90611421565b6106e4816106a161148c565b9081547fffffffffffffffffffffffff00000000000000000000000000000000000000001673ffffffffffffffffffffffffffffffffffffffff91909116179055565b50565b5f806106fd84846106f66114fb565b9190611528565b915091505b9250929050565b5f6107126110f6565b9050610728818a61072161148c565b91906115d0565b61074a818a8a8a8a8a8a8a8a61073c610e83565b98979695949392919061160d565b505050505050505050565b5f61075e6110f6565b905061076c8161068f6113f4565b61078283838361077a6110ff565b929190611891565b505050565b365f610791611966565b915091509091565b60606107b3858585856107aa610e83565b93929190611970565b90505b949350505050565b5f6107c76110f6565b90506107f67f6d696e7465720000000000000000000000000000000000000000000000000000826105a76110ff565b6108468187878787878080601f0160208091040260200160405190810160405280939291908181526020018383808284375f9201919091525061083c9250610e83915050565b9493929190611a7d565b505050505050565b6108596106876110f6565b6106e4816108656114fb565b90611b59565b6108766106876110f6565b8483811415806108865750808214155b156108bd576040517f6582533600000000000000000000000000000000000000000000000000000000815260040160405180910390fd5b5f5b81811461065c5761094d8888838181106108db576108db613666565b90506020020160208101906108f091906131ec565b85858481811061090257610902613666565b9050602002013588888581811061091b5761091b613666565b905060200201602081019061093091906131ec565b73ffffffffffffffffffffffffffffffffffffffff169190611bdf565b6001016108bf565b6106e46109606110f6565b826109696110ff565b9190611c6c565b5f61056a61097c6113f4565b5473ffffffffffffffffffffffffffffffffffffffff1690565b6109a16106876110f6565b6106e4816109ad6114fb565b90611d0f565b5f61053c83836109c16110ff565b5f9283526020908152604080842073ffffffffffffffffffffffffffffffffffffffff909316845291905290205460ff1690565b606061056a610a02611036565b611d5c565b5f61056a610a13611036565b6002015473ffffffffffffffffffffffffffffffffffffffff1690565b8015610a4857610a4882610a4261148c565b90611d6d565b610a65610a536110f6565b8383610a5d610e83565b929190611d77565b5050565b5f61056a61097c61148c565b610a806106876110f6565b848381141580610a905750808214155b15610ac7576040517f6582533600000000000000000000000000000000000000000000000000000000815260040160405180910390fd5b5f5b81811461065c57858582818110610ae257610ae2613666565b9050602002016020810190610af791906131ec565b73ffffffffffffffffffffffffffffffffffffffff166323b872dd308a8a85818110610b2557610b25613666565b9050602002016020810190610b3a91906131ec565b878786818110610b4c57610b4c613666565b6040517fffffffff0000000000000000000000000000000000000000000000000000000060e088901b16815273ffffffffffffffffffffffffffffffffffffffff9586166004820152949093166024850152506020909102013560448201526064015f604051808303815f87803b158015610bc5575f80fd5b505af1158015610bd7573d5f803e3d5ffd5b50505050806001019050610ac9565b5f610bef6110f6565b9050610bfd8161068f6113f4565b610782838383610c0b6110ff565b929190611e8e565b5f610c1c6110f6565b9050610c4b7f6d696e7465720000000000000000000000000000000000000000000000000000826105a76110ff565b61074a818a8a808060200260200160405190810160405280939291908181526020018383602002808284375f9201919091525050604080516020808e0282810182019093528d82529093508d92508c9182918501908490808284375f9201919091525050604080516020808d0282810182019093528c82529093508c92508b9182918501908490808284375f9201919091525050604080516020601f8c018190048102820181019092528a815292508a91508990819084018382808284375f92019190915250610d1e9250610e83915050565b9493929190611f56565b5f61053c8383610d36610e83565b919073ffffffffffffffffffffffffffffffffffffffff9182165f908152600193909301602090815260408085209290931684525290205460ff1690565b5f610d7d6110f6565b9050610d8c818861072161148c565b610daa81888888888888610d9e610e83565b96959493929190612017565b50505050505050565b6106e4610dbe6110f6565b82610dc76113f4565b91906121b9565b610dd96106876110f6565b82818114610e13576040517f6582533600000000000000000000000000000000000000000000000000000000815260040160405180910390fd5b5f5b81811461084657610e7b848483818110610e3157610e31613666565b90506020020135878784818110610e4a57610e4a613666565b9050602002016020810190610e5f91906131ec565b73ffffffffffffffffffffffffffffffffffffffff16906122cc565b600101610e15565b5f8061053f60017f5ccf5846fa27a68fafc8e588671a68f5e67c2f9b56af4263806a4d71735e86136136c0565b5f73ffffffffffffffffffffffffffffffffffffffff8316610efe576040517fca2434a500000000000000000000000000000000000000000000000000000000815260040160405180910390fd5b505f9081526020928352604080822073ffffffffffffffffffffffffffffffffffffffff9390931682529190925290205490565b5f8061053f60017fca9d3e17f264b0f3984e2634e94adb37fa3e6a8103f06aeae6fa59e21c769f5e6136c0565b5f7c01000000000000000000000000000000000000000000000000000000007fffffffff00000000000000000000000000000000000000000000000000000000831601610fad57505f61053f565b7ffe003659000000000000000000000000000000000000000000000000000000007fffffffff00000000000000000000000000000000000000000000000000000000831601610ffe5750600161053f565b507fffffffff00000000000000000000000000000000000000000000000000000000165f908152602091909152604090205460ff1690565b5f8061053f60017f7ea68fd2dcf1c056b94db6a0a537aa80d26fa9ab1eacd85da1ba0b61b7e7a8a56136c0565b6060815f018054611073906136d3565b80601f016020809104026020016040519081016040528092919081815260200182805461109f906136d3565b80156110ea5780601f106110c1576101008083540402835291602001916110ea565b820191905f5260205f20905b8154815290600101906020018083116110cd57829003601f168201915b50505050509050919050565b5f61056a612422565b5f8061053f60017fc8827d3282af6f37b64c3e9e6f3ac9df286ab0bb0fccd6f8661bf19adb368b236136c0565b5f8281526020848152604080832073ffffffffffffffffffffffffffffffffffffffff8516845290915290205460ff16610782576040517f7aa728820000000000000000000000000000000000000000000000000000000081526004810183905273ffffffffffffffffffffffffffffffffffffffff821660248201526044015b60405180910390fd5b73ffffffffffffffffffffffffffffffffffffffff8416611203576040517f021149bd00000000000000000000000000000000000000000000000000000000815260040160405180910390fd5b82518251811461123f576040517f6582533600000000000000000000000000000000000000000000000000000000815260040160405180910390fd5b5f5b81811461128e57611286888787848151811061125f5761125f613666565b602002602001015187858151811061127957611279613666565b6020026020010151612566565b600101611241565b508473ffffffffffffffffffffffffffffffffffffffff165f73ffffffffffffffffffffffffffffffffffffffff168773ffffffffffffffffffffffffffffffffffffffff167f4a39dc06d4c0dbc64b70af90fd698a233a518aa5d07e595d983b8c0526c8f7fb8787604051611305929190613724565b60405180910390a473ffffffffffffffffffffffffffffffffffffffff85163b15610daa57610daa865f87878787612635565b60028301546040517ff724dad700000000000000000000000000000000000000000000000000000000815273ffffffffffffffffffffffffffffffffffffffff848116600483015260248201849052606092169063f724dad7906044015f60405180830381865afa1580156113af573d5f803e3d5ffd5b505050506040513d5f823e601f3d9081017fffffffffffffffffffffffffffffffffffffffffffffffffffffffffffffffe01682016040526107b6919081019061377e565b5f8061053f60017fc9ed16f33ab3a66c84bfd83099ccb2a8845871e2e1c1928f63797152f0fd54cd6136c0565b815473ffffffffffffffffffffffffffffffffffffffff828116911614610a65576040517f2ef4875e00000000000000000000000000000000000000000000000000000000815273ffffffffffffffffffffffffffffffffffffffff821660048201526024016111ad565b5f8061053f60017f609b85bcafa81ecfaf3ff62cdde2c6c9082a68dbe4922f07399c706bdeb7cd316136c0565b81547fffffffffffffffffffffffff00000000000000000000000000000000000000001673ffffffffffffffffffffffffffffffffffffffff91909116179055565b5f8061053f60017f2c0cf10337caabbd02dcf226f05f5fd19a0919a41a8df8958c39b800078268586136c0565b825473ffffffffffffffffffffffffffffffffffffffff8116905f907401000000000000000000000000000000000000000090046bffffffffffffffffffffffff16831580611575575080155b15611582575f91506115c7565b620186a08410156115ac57620186a061159b8286613839565b6115a59190613850565b91506115c7565b806115ba620186a086613850565b6115c49190613839565b91505b50935093915050565b8073ffffffffffffffffffffffffffffffffffffffff168273ffffffffffffffffffffffffffffffffffffffff1614610782576107828383612730565b73ffffffffffffffffffffffffffffffffffffffff871661165a576040517fb5e8901500000000000000000000000000000000000000000000000000000000815260040160405180910390fd5b84838114611694576040517f6582533600000000000000000000000000000000000000000000000000000000815260040160405180910390fd5b61169f8b8a8c612854565b6116f5576040517f05bbb9c400000000000000000000000000000000000000000000000000000000815273ffffffffffffffffffffffffffffffffffffffff808c1660048301528a1660248201526044016111ad565b5f5b8181146117435761173b8c8b8b8b8b8681811061171657611716613666565b905060200201358a8a8781811061172f5761172f613666565b905060200201356128c7565b6001016116f7565b508773ffffffffffffffffffffffffffffffffffffffff168973ffffffffffffffffffffffffffffffffffffffff168b73ffffffffffffffffffffffffffffffffffffffff167f4a39dc06d4c0dbc64b70af90fd698a233a518aa5d07e595d983b8c0526c8f7fb8a8a8a8a6040516117be94939291906138d1565b60405180910390a473ffffffffffffffffffffffffffffffffffffffff88163b15611884576118848a8a8a8a8a808060200260200160405190810160405280939291908181526020018383602002808284375f9201919091525050604080516020808e0282810182019093528d82529093508d92508c9182918501908490808284375f9201919091525050604080516020601f8d018190048102820181019092528b815292508b91508a90819084018382808284375f9201919091525061263592505050565b5050505050505050505050565b5f8381526020858152604080832073ffffffffffffffffffffffffffffffffffffffff8616845290915290205460ff16611960575f8381526020858152604080832073ffffffffffffffffffffffffffffffffffffffff8681168086529184529382902080547fffffffffffffffffffffffffffffffffffffffffffffffffffffffffffffff00166001179055815187815292830152918316918101919091527f2f8788117e7eff1d82e926ec794901d17c78024a50270940304540a733656f0d906060015b60405180910390a15b50505050565b365f610791612a72565b6060838281146119ac576040517f6582533600000000000000000000000000000000000000000000000000000000815260040160405180910390fd5b8467ffffffffffffffff8111156119c5576119c5613751565b6040519080825280602002602001820160405280156119ee578160200160208202803683370190505b5091505f5b818114611a7257611a4d878783818110611a0f57611a0f613666565b9050602002016020810190611a2491906131ec565b868684818110611a3657611a36613666565b905060200201358a610eb09092919063ffffffff16565b838281518110611a5f57611a5f613666565b60209081029190910101526001016119f3565b505095945050505050565b73ffffffffffffffffffffffffffffffffffffffff8416611aca576040517f021149bd00000000000000000000000000000000000000000000000000000000815260040160405180910390fd5b611ad686858585612566565b604080518481526020810184905273ffffffffffffffffffffffffffffffffffffffff808716925f92918916917fc3d58168c5ae7397731d063d5bbf3d657854427343f4c083240f7aacaa2d0f62910160405180910390a473ffffffffffffffffffffffffffffffffffffffff84163b1561084657610846855f86868686612bd7565b620186a0811115611b99576040517fac040408000000000000000000000000000000000000000000000000000000008152600481018290526024016111ad565b81546bffffffffffffffffffffffff909116740100000000000000000000000000000000000000000273ffffffffffffffffffffffffffffffffffffffff909116179055565b6040805173ffffffffffffffffffffffffffffffffffffffff8416602482015260448082018490528251808303909101815260649091019091526020810180517bffffffffffffffffffffffffffffffffffffffffffffffffffffffff167fa9059cbb00000000000000000000000000000000000000000000000000000000179052610782908490612cf2565b611c7783828461112c565b5f8181526020848152604080832073ffffffffffffffffffffffffffffffffffffffff86168085529083529281902080547fffffffffffffffffffffffffffffffffffffffffffffffffffffffffffffff0016905580518481529182018390528101919091527ff6391f5c32d9c69d2a47ea670b442974b53935d1edc7fd64eb21e047a839171b9060600160405180910390a1505050565b73ffffffffffffffffffffffffffffffffffffffff81166114b9576040517f16de0c8000000000000000000000000000000000000000000000000000000000815260040160405180910390fd5b6060816001018054611073906136d3565b610a658282612730565b8273ffffffffffffffffffffffffffffffffffffffff168273ffffffffffffffffffffffffffffffffffffffff1603611df4576040517ffb0fdf6100000000000000000000000000000000000000000000000000000000815273ffffffffffffffffffffffffffffffffffffffff841660048201526024016111ad565b73ffffffffffffffffffffffffffffffffffffffff8381165f81815260018701602090815260408083209487168084529482529182902080547fffffffffffffffffffffffffffffffffffffffffffffffffffffffffffffff001686151590811790915591519182527f17307eab39ab6107e8899845ad3d59bd9653f200f220920489ca2b5937696c31910160405180910390a350505050565b5f8381526020858152604080832073ffffffffffffffffffffffffffffffffffffffff8616845290915290205460ff1615611960575f8381526020858152604080832073ffffffffffffffffffffffffffffffffffffffff8681168086529184529382902080547fffffffffffffffffffffffffffffffffffffffffffffffffffffffffffffff00169055815187815292830152918316918101919091527ff6391f5c32d9c69d2a47ea670b442974b53935d1edc7fd64eb21e047a839171b90606001611957565b8351835181141580611f69575082518114155b15611fa0576040517f6582533600000000000000000000000000000000000000000000000000000000815260040160405180910390fd5b5f5b81811461065c5761200f87878381518110611fbf57611fbf613666565b6020026020010151878481518110611fd957611fd9613666565b6020026020010151878581518110611ff357611ff3613666565b6020026020010151878d611a7d9095949392919063ffffffff16565b600101611fa2565b73ffffffffffffffffffffffffffffffffffffffff8516612064576040517fb5e8901500000000000000000000000000000000000000000000000000000000815260040160405180910390fd5b61206f888789612854565b6120c5576040517f05bbb9c400000000000000000000000000000000000000000000000000000000815273ffffffffffffffffffffffffffffffffffffffff8089166004830152871660248201526044016111ad565b6120d288878787876128c7565b8473ffffffffffffffffffffffffffffffffffffffff168673ffffffffffffffffffffffffffffffffffffffff168873ffffffffffffffffffffffffffffffffffffffff167fc3d58168c5ae7397731d063d5bbf3d657854427343f4c083240f7aacaa2d0f628787604051612151929190918252602082015260400190565b60405180910390a473ffffffffffffffffffffffffffffffffffffffff85163b1561065c5761065c878787878787878080601f0160208091040260200160405190810160405280939291908181526020018383808284375f92019190915250612bd792505050565b825473ffffffffffffffffffffffffffffffffffffffff9081169083168114612226576040517f2ef4875e00000000000000000000000000000000000000000000000000000000815273ffffffffffffffffffffffffffffffffffffffff841660048201526024016111ad565b8173ffffffffffffffffffffffffffffffffffffffff168173ffffffffffffffffffffffffffffffffffffffff16146119605783547fffffffffffffffffffffffff00000000000000000000000000000000000000001673ffffffffffffffffffffffffffffffffffffffff8381169182178655604051908316907f8be0079c531659141344cd1fd0a4f28419497f9722a3daafe3b4186f6b6457e0905f90a350505050565b80471015612336576040517f08c379a000000000000000000000000000000000000000000000000000000000815260206004820152601d60248201527f416464726573733a20696e73756666696369656e742062616c616e636500000060448201526064016111ad565b5f8273ffffffffffffffffffffffffffffffffffffffff16826040515f6040518083038185875af1925050503d805f811461238c576040519150601f19603f3d011682016040523d82523d5f602084013e612391565b606091505b5050905080610782576040517f08c379a000000000000000000000000000000000000000000000000000000000815260206004820152603a60248201527f416464726573733a20756e61626c6520746f2073656e642076616c75652c207260448201527f6563697069656e74206d6179206861766520726576657274656400000000000060648201526084016111ad565b5f333214806124315750601836105b1561243b57503390565b7fffffffffffffffffffffffffffffffffffffffffffffffffffffffffffffffec36013560601c7f000000000000000000000000000000000000000000000000000000000000000073ffffffffffffffffffffffffffffffffffffffff1633148061255557506040517f8929a8ca00000000000000000000000000000000000000000000000000000000815273ffffffffffffffffffffffffffffffffffffffff82811660048301523360248301527f00000000000000000000000000000000000000000000000000000000000000001690638929a8ca90604401602060405180830381865afa158015612531573d5f803e3d5ffd5b505050506040513d601f19601f8201168201806040525081019061255591906138f7565b1561255f57919050565b3391505090565b8015611960575f8281526020858152604080832073ffffffffffffffffffffffffffffffffffffffff87168452909152902054818101818111612602576040517f42fb00bc00000000000000000000000000000000000000000000000000000000815273ffffffffffffffffffffffffffffffffffffffff861660048201526024810185905260448101839052606481018490526084016111ad565b5f9384526020958652604080852073ffffffffffffffffffffffffffffffffffffffff9690961685529490955250502055565b6040517fbc197c81000000000000000000000000000000000000000000000000000000008082529073ffffffffffffffffffffffffffffffffffffffff86169063bc197c8190612691908a908a90899089908990600401613912565b6020604051808303815f875af11580156126ad573d5f803e3d5ffd5b505050506040513d601f19601f820116820180604052508101906126d1919061397c565b7fffffffff000000000000000000000000000000000000000000000000000000001614610846578383836040517fc287817e0000000000000000000000000000000000000000000000000000000081526004016111ad93929190613997565b815473ffffffffffffffffffffffffffffffffffffffff16801580159061276d57505f8173ffffffffffffffffffffffffffffffffffffffff163b115b15610782576040517fc617113400000000000000000000000000000000000000000000000000000000815230600482015273ffffffffffffffffffffffffffffffffffffffff838116602483015282169063c617113490604401602060405180830381865afa1580156127e2573d5f803e3d5ffd5b505050506040513d601f19601f8201168201806040525081019061280691906138f7565b610782576040517fede71dcc00000000000000000000000000000000000000000000000000000000815273ffffffffffffffffffffffffffffffffffffffff831660048201526024016111ad565b5f8173ffffffffffffffffffffffffffffffffffffffff168373ffffffffffffffffffffffffffffffffffffffff1614806107b657505073ffffffffffffffffffffffffffffffffffffffff9182165f908152600193909301602090815260408085209290931684525290205460ff1690565b8015612a6b575f8281526020868152604080832073ffffffffffffffffffffffffffffffffffffffff88168452909152902054818103818110612963576040517f03dee4c500000000000000000000000000000000000000000000000000000000815273ffffffffffffffffffffffffffffffffffffffff871660048201526024810185905260448101839052606481018490526084016111ad565b8473ffffffffffffffffffffffffffffffffffffffff168673ffffffffffffffffffffffffffffffffffffffff1614610daa575f8481526020888152604080832073ffffffffffffffffffffffffffffffffffffffff89168452909152902054838101818111612a2c576040517f42fb00bc00000000000000000000000000000000000000000000000000000000815273ffffffffffffffffffffffffffffffffffffffff881660048201526024810187905260448101839052606481018690526084016111ad565b5f86815260208a8152604080832073ffffffffffffffffffffffffffffffffffffffff808d1685528184528285208890558b1684529091529020555050505b5050505050565b365f33321480612a825750601836105b15612a8f57505f91369150565b3373ffffffffffffffffffffffffffffffffffffffff7f0000000000000000000000000000000000000000000000000000000000000000161480612bc2575073ffffffffffffffffffffffffffffffffffffffff7f000000000000000000000000000000000000000000000000000000000000000016638929a8ca367fffffffffffffffffffffffffffffffffffffffffffffffffffffffffffffffec013560601c6040517fffffffff0000000000000000000000000000000000000000000000000000000060e084901b16815273ffffffffffffffffffffffffffffffffffffffff9091166004820152336024820152604401602060405180830381865afa158015612b9e573d5f803e3d5ffd5b505050506040513d601f19601f82011682018060405250810190612bc291906138f7565b15612bcf57610791612dff565b505f91369150565b6040517ff23a6e61000000000000000000000000000000000000000000000000000000008082529073ffffffffffffffffffffffffffffffffffffffff86169063f23a6e6190612c33908a908a908990899089906004016139e1565b6020604051808303815f875af1158015612c4f573d5f803e3d5ffd5b505050506040513d601f19601f82011682018060405250810190612c73919061397c565b7fffffffff000000000000000000000000000000000000000000000000000000001614610846576040517f40f39d3800000000000000000000000000000000000000000000000000000000815273ffffffffffffffffffffffffffffffffffffffff8516600482015260248101849052604481018390526064016111ad565b5f612d53826040518060400160405280602081526020017f5361666545524332303a206c6f772d6c6576656c2063616c6c206661696c65648152508573ffffffffffffffffffffffffffffffffffffffff16612e2f9092919063ffffffff16565b905080515f1480612d73575080806020019051810190612d7391906138f7565b610782576040517f08c379a000000000000000000000000000000000000000000000000000000000815260206004820152602a60248201527f5361666545524332303a204552433230206f7065726174696f6e20646964206e60448201527f6f7420737563636565640000000000000000000000000000000000000000000060648201526084016111ad565b365f6107917fffffffffffffffffffffffffffffffffffffffffffffffffffffffffffffffec8301828481613a25565b60606107b684845f85855f808673ffffffffffffffffffffffffffffffffffffffff168587604051612e619190613a4c565b5f6040518083038185875af1925050503d805f8114612e9b576040519150601f19603f3d011682016040523d82523d5f602084013e612ea0565b606091505b5091509150612eb187838387612ebc565b979650505050505050565b60608315612f515782515f03612f4a5773ffffffffffffffffffffffffffffffffffffffff85163b612f4a576040517f08c379a000000000000000000000000000000000000000000000000000000000815260206004820152601d60248201527f416464726573733a2063616c6c20746f206e6f6e2d636f6e747261637400000060448201526064016111ad565b50816107b6565b6107b68383815115612f665781518083602001fd5b806040517f08c379a00000000000000000000000000000000000000000000000000000000081526004016111ad919061309f565b73ffffffffffffffffffffffffffffffffffffffff811681146106e4575f80fd5b5f8060408385031215612fcc575f80fd5b8235612fd781612f9a565b946020939093013593505050565b7fffffffff00000000000000000000000000000000000000000000000000000000811681146106e4575f80fd5b5f60208284031215613022575f80fd5b813561302d81612fe5565b9392505050565b5f5b8381101561304e578181015183820152602001613036565b50505f910152565b5f815180845261306d816020860160208601613034565b601f017fffffffffffffffffffffffffffffffffffffffffffffffffffffffffffffffe0169290920160200192915050565b602081525f61053c6020830184613056565b5f8083601f8401126130c1575f80fd5b50813567ffffffffffffffff8111156130d8575f80fd5b6020830191508360208260051b8501011115610702575f80fd5b5f8083601f840112613102575f80fd5b50813567ffffffffffffffff811115613119575f80fd5b602083019150836020828501011115610702575f80fd5b5f805f805f805f6080888a031215613146575f80fd5b873561315181612f9a565b9650602088013567ffffffffffffffff8082111561316d575f80fd5b6131798b838c016130b1565b909850965060408a0135915080821115613191575f80fd5b61319d8b838c016130b1565b909650945060608a01359150808211156131b5575f80fd5b506131c28a828b016130f2565b989b979a50959850939692959293505050565b5f602082840312156131e5575f80fd5b5035919050565b5f602082840312156131fc575f80fd5b813561302d81612f9a565b5f8060408385031215613218575f80fd5b50508035926020909101359150565b5f805f805f805f8060a0898b03121561323e575f80fd5b883561324981612f9a565b9750602089013561325981612f9a565b9650604089013567ffffffffffffffff80821115613275575f80fd5b6132818c838d016130b1565b909850965060608b0135915080821115613299575f80fd5b6132a58c838d016130b1565b909650945060808b01359150808211156132bd575f80fd5b506132ca8b828c016130f2565b999c989b5096995094979396929594505050565b5f80604083850312156132ef575f80fd5b82359150602083013561330181612f9a565b809150509250929050565b60208152816020820152818360408301375f818301604090810191909152601f9092017fffffffffffffffffffffffffffffffffffffffffffffffffffffffffffffffe0160101919050565b5f805f806040858703121561336b575f80fd5b843567ffffffffffffffff80821115613382575f80fd5b61338e888389016130b1565b909650945060208701359150808211156133a6575f80fd5b506133b3878288016130b1565b95989497509550505050565b5f8151808452602080850194508084015f5b838110156133ed578151875295820195908201906001016133d1565b509495945050505050565b602081525f61053c60208301846133bf565b5f805f805f6080868803121561341e575f80fd5b853561342981612f9a565b94506020860135935060408601359250606086013567ffffffffffffffff811115613452575f80fd5b61345e888289016130f2565b969995985093965092949392505050565b5f805f805f8060608789031215613484575f80fd5b863567ffffffffffffffff8082111561349b575f80fd5b6134a78a838b016130b1565b909850965060208901359150808211156134bf575f80fd5b6134cb8a838b016130b1565b909650945060408901359150808211156134e3575f80fd5b506134f089828a016130b1565b979a9699509497509295939492505050565b80151581146106e4575f80fd5b5f8060408385031215613520575f80fd5b823561352b81612f9a565b9150602083013561330181613502565b5f805f805f805f806080898b031215613552575f80fd5b883567ffffffffffffffff80821115613569575f80fd5b6135758c838d016130b1565b909a50985060208b013591508082111561358d575f80fd5b6135998c838d016130b1565b909850965060408b01359150808211156135b1575f80fd5b6135bd8c838d016130b1565b909650945060608b01359150808211156132bd575f80fd5b5f80604083850312156135e6575f80fd5b82356135f181612f9a565b9150602083013561330181612f9a565b5f805f805f8060a08789031215613616575f80fd5b863561362181612f9a565b9550602087013561363181612f9a565b94506040870135935060608701359250608087013567ffffffffffffffff81111561365a575f80fd5b6134f089828a016130f2565b7f4e487b71000000000000000000000000000000000000000000000000000000005f52603260045260245ffd5b7f4e487b71000000000000000000000000000000000000000000000000000000005f52601160045260245ffd5b8181038181111561053f5761053f613693565b600181811c908216806136e757607f821691505b60208210810361371e577f4e487b71000000000000000000000000000000000000000000000000000000005f52602260045260245ffd5b50919050565b604081525f61373660408301856133bf565b828103602084015261374881856133bf565b95945050505050565b7f4e487b71000000000000000000000000000000000000000000000000000000005f52604160045260245ffd5b5f6020828403121561378e575f80fd5b815167ffffffffffffffff808211156137a5575f80fd5b818401915084601f8301126137b8575f80fd5b8151818111156137ca576137ca613751565b604051601f82017fffffffffffffffffffffffffffffffffffffffffffffffffffffffffffffffe0908116603f0116810190838211818310171561381057613810613751565b81604052828152876020848701011115613828575f80fd5b612eb1836020830160208801613034565b808202811582820484141761053f5761053f613693565b5f82613883577f4e487b71000000000000000000000000000000000000000000000000000000005f52601260045260245ffd5b500490565b8183525f7f07ffffffffffffffffffffffffffffffffffffffffffffffffffffffffffffff8311156138b8575f80fd5b8260051b80836020870137939093016020019392505050565b604081525f6138e4604083018688613888565b8281036020840152612eb1818587613888565b5f60208284031215613907575f80fd5b815161302d81613502565b5f73ffffffffffffffffffffffffffffffffffffffff808816835280871660208401525060a0604083015261394a60a08301866133bf565b828103606084015261395c81866133bf565b905082810360808401526139708185613056565b98975050505050505050565b5f6020828403121561398c575f80fd5b815161302d81612fe5565b73ffffffffffffffffffffffffffffffffffffffff84168152606060208201525f6139c560608301856133bf565b82810360408401526139d781856133bf565b9695505050505050565b5f73ffffffffffffffffffffffffffffffffffffffff808816835280871660208401525084604083015283606083015260a06080830152612eb160a0830184613056565b5f8085851115613a33575f80fd5b83861115613a3f575f80fd5b5050820193919092039150565b5f8251613a5d818460208701613034565b919091019291505056fea2646970667358221220ccb963a7e5492245a3b8ae4bb6edfdedb765d33a677c93eb68c98b3709f8e6b464736f6c63430008150033",
  "linkReferences": {},
  "deployedLinkReferences": {}
}