{
  "_format": "hh-sol-artifact-1",
  "contractName": "ERC20DetailedFacetMock",
  "sourceName": "contracts/mocks/token/ERC20/facets/ERC20DetailedFacetMock.sol",
  "abi": [
    {
      "inputs": [
        {
          "internalType": "contract IForwarderRegistry",
          "name": "forwarderRegistry",
          "type": "address"
        }
      ],
      "stateMutability": "nonpayable",
      "type": "constructor"
    },
    {
      "inputs": [],
      "name": "__msgData",
      "outputs": [
        {
          "internalType": "bytes",
          "name": "",
          "type": "bytes"
        }
      ],
      "stateMutability": "view",
      "type": "function"
    },
    {
      "inputs": [],
      "name": "decimals",
      "outputs": [
        {
          "internalType": "uint8",
          "name": "",
          "type": "uint8"
        }
      ],
      "stateMutability": "view",
      "type": "function"
    },
    {
      "inputs": [
        {
          "internalType": "string",
          "name": "tokenName",
          "type": "string"
        },
        {
          "internalType": "string",
          "name": "tokenSymbol",
          "type": "string"
        },
        {
          "internalType": "uint8",
          "name": "tokenDecimals",
          "type": "uint8"
        }
      ],
      "name": "initERC20DetailedStorage",
      "outputs": [],
      "stateMutability": "nonpayable",
      "type": "function"
    },
    {
      "inputs": [],
      "name": "name",
      "outputs": [
        {
          "internalType": "string",
          "name": "",
          "type": "string"
        }
      ],
      "stateMutability": "view",
      "type": "function"
    },
    {
      "inputs": [],
      "name": "symbol",
      "outputs": [
        {
          "internalType": "string",
          "name": "",
          "type": "string"
        }
      ],
      "stateMutability": "view",
      "type": "function"
    }
  ],
  "bytecode": "0x60a060405234801561000f575f80fd5b50604051610cdd380380610cdd83398101604081905261002e9161003f565b6001600160a01b031660805261006c565b5f6020828403121561004f575f80fd5b81516001600160a01b0381168114610065575f80fd5b9392505050565b608051610c446100995f395f818161025901528181610297015281816103dc01526104640152610c445ff3fe608060405234801561000f575f80fd5b5060043610610064575f3560e01c806331e66e1e1161004d57806331e66e1e146100a057806395d89b41146100b6578063ef961279146100be575f80fd5b806306fdde0314610068578063313ce56714610086575b5f80fd5b6100706100d3565b60405161007d919061082d565b60405180910390f35b61008e6100ea565b60405160ff909116815260200161007d565b6100a8610100565b60405161007d929190610896565b610070610112565b6100d16100cc366004610927565b610124565b005b60606100e56100e061015e565b610191565b905090565b5f6100e56100f661015e565b6002015460ff1690565b365f61010a610224565b915091509091565b60606100e561011f61015e565b610389565b61013d61012f61039a565b6101376104de565b9061050b565b610157858585858561014d61015e565b9493929190610597565b5050505050565b5f8061018b60017f335df4119bbb04f056b33eba33b826d3529129e458faf6daa9924b5a8f3b6a826109aa565b92915050565b6060815f0180546101a1906109e2565b80601f01602080910402602001604051908101604052809291908181526020018280546101cd906109e2565b80156102185780601f106101ef57610100808354040283529160200191610218565b820191905f5260205f20905b8154815290600101906020018083116101fb57829003601f168201915b50505050509050919050565b365f333214806102345750601836105b1561024157505f91369150565b3373ffffffffffffffffffffffffffffffffffffffff7f0000000000000000000000000000000000000000000000000000000000000000161480610374575073ffffffffffffffffffffffffffffffffffffffff7f000000000000000000000000000000000000000000000000000000000000000016638929a8ca367fffffffffffffffffffffffffffffffffffffffffffffffffffffffffffffffec013560601c6040517fffffffff0000000000000000000000000000000000000000000000000000000060e084901b16815273ffffffffffffffffffffffffffffffffffffffff9091166004820152336024820152604401602060405180830381865afa158015610350573d5f803e3d5ffd5b505050506040513d601f19601f820116820180604052508101906103749190610a33565b156103815761010a610655565b505f91369150565b60608160010180546101a1906109e2565b5f333214806103a95750601836105b156103b357503390565b7fffffffffffffffffffffffffffffffffffffffffffffffffffffffffffffffec36013560601c7f000000000000000000000000000000000000000000000000000000000000000073ffffffffffffffffffffffffffffffffffffffff163314806104cd57506040517f8929a8ca00000000000000000000000000000000000000000000000000000000815273ffffffffffffffffffffffffffffffffffffffff82811660048301523360248301527f00000000000000000000000000000000000000000000000000000000000000001690638929a8ca90604401602060405180830381865afa1580156104a9573d5f803e3d5ffd5b505050506040513d601f19601f820116820180604052508101906104cd9190610a33565b156104d757919050565b3391505090565b5f8061018b60017fb53127684a568b3173ae13b9f8a6016e243e63b6e8ee1178d6a717850b5d61046109aa565b815473ffffffffffffffffffffffffffffffffffffffff828116911614610593576040517f08c379a000000000000000000000000000000000000000000000000000000000815260206004820152601960248201527f50726f787941646d696e3a206e6f74207468652061646d696e0000000000000060448201526064015b60405180910390fd5b5050565b6105cc6105c560017fd217496980d1cb14720b20a80af36676bbece8e5feeb5d8970a9681a2c76bb756109aa565b6001610685565b856105d8858783610ad0565b50600186016105e8838583610ad0565b506002860180547fffffffffffffffffffffffffffffffffffffffffffffffffffffffffffffff001660ff831617905561064d7fa219a0250000000000000000000000000000000000000000000000000000000060016106466106f5565b9190610722565b505050505050565b365f61010a7fffffffffffffffffffffffffffffffffffffffffffffffffffffffffffffffec8301828481610be7565b8154829082116106f1576040517f08c379a000000000000000000000000000000000000000000000000000000000815260206004820152601660248201527f53746f726167653a207068617365207265616368656400000000000000000000604482015260640161058a565b5550565b5f8061018b60017fca9d3e17f264b0f3984e2634e94adb37fa3e6a8103f06aeae6fa59e21c769f5e6109aa565b7c01000000000000000000000000000000000000000000000000000000007fffffffff000000000000000000000000000000000000000000000000000000008316016107ca576040517f08c379a000000000000000000000000000000000000000000000000000000000815260206004820152601f60248201527f496e74657266616365446574656374696f6e3a2077726f6e672076616c756500604482015260640161058a565b7fffffffff00000000000000000000000000000000000000000000000000000000919091165f908152602092909252604090912080547fffffffffffffffffffffffffffffffffffffffffffffffffffffffffffffff0016911515919091179055565b5f6020808352835180828501525f5b818110156108585785810183015185820160400152820161083c565b505f6040828601015260407fffffffffffffffffffffffffffffffffffffffffffffffffffffffffffffffe0601f8301168501019250505092915050565b60208152816020820152818360408301375f818301604090810191909152601f9092017fffffffffffffffffffffffffffffffffffffffffffffffffffffffffffffffe0160101919050565b5f8083601f8401126108f2575f80fd5b50813567ffffffffffffffff811115610909575f80fd5b602083019150836020828501011115610920575f80fd5b9250929050565b5f805f805f6060868803121561093b575f80fd5b853567ffffffffffffffff80821115610952575f80fd5b61095e89838a016108e2565b90975095506020880135915080821115610976575f80fd5b50610983888289016108e2565b909450925050604086013560ff8116811461099c575f80fd5b809150509295509295909350565b8181038181111561018b577f4e487b71000000000000000000000000000000000000000000000000000000005f52601160045260245ffd5b600181811c908216806109f657607f821691505b602082108103610a2d577f4e487b71000000000000000000000000000000000000000000000000000000005f52602260045260245ffd5b50919050565b5f60208284031215610a43575f80fd5b81518015158114610a52575f80fd5b9392505050565b7f4e487b71000000000000000000000000000000000000000000000000000000005f52604160045260245ffd5b601f821115610acb575f81815260208120601f850160051c81016020861015610aac5750805b601f850160051c820191505b8181101561064d57828155600101610ab8565b505050565b67ffffffffffffffff831115610ae857610ae8610a59565b610afc83610af683546109e2565b83610a86565b5f601f841160018114610b4c575f8515610b165750838201355b7fffffffffffffffffffffffffffffffffffffffffffffffffffffffffffffffff600387901b1c1916600186901b178355610157565b5f838152602090207fffffffffffffffffffffffffffffffffffffffffffffffffffffffffffffffe0861690835b82811015610b9a5786850135825560209485019460019092019101610b7a565b5086821015610bd5577fffffffffffffffffffffffffffffffffffffffffffffffffffffffffffffffff60f88860031b161c19848701351681555b505060018560011b0183555050505050565b5f8085851115610bf5575f80fd5b83861115610c01575f80fd5b505082019391909203915056fea2646970667358221220c6e905377042a360013fe44f448e1f108754291830900cb431524925c215f6d464736f6c63430008150033",
  "linkReferences": {},
  "deployedLinkReferences": {}
}