{
  "_format": "hh-sol-artifact-1",
  "contractName": "ERC20DetailedFacetMock",
  "sourceName": "contracts/mocks/token/ERC20/facets/ERC20DetailedFacetMock.sol",
  "abi": [
    {
      "inputs": [
        {
          "internalType": "contract IForwarderRegistry",
          "name": "forwarderRegistry",
          "type": "address"
        }
      ],
      "stateMutability": "nonpayable",
      "type": "constructor"
    },
    {
      "inputs": [],
      "name": "IllegalInterfaceId",
      "type": "error"
    },
    {
      "inputs": [
        {
          "internalType": "uint256",
          "name": "currentPhase",
          "type": "uint256"
        },
        {
          "internalType": "uint256",
          "name": "newPhase",
          "type": "uint256"
        }
      ],
      "name": "InitializationPhaseAlreadyReached",
      "type": "error"
    },
    {
      "inputs": [
        {
          "internalType": "address",
          "name": "account",
          "type": "address"
        }
      ],
      "name": "NotProxyAdmin",
      "type": "error"
    },
    {
      "inputs": [],
      "name": "__msgData",
      "outputs": [
        {
          "internalType": "bytes",
          "name": "",
          "type": "bytes"
        }
      ],
      "stateMutability": "view",
      "type": "function"
    },
    {
      "inputs": [],
      "name": "decimals",
      "outputs": [
        {
          "internalType": "uint8",
          "name": "",
          "type": "uint8"
        }
      ],
      "stateMutability": "view",
      "type": "function"
    },
    {
      "inputs": [
        {
          "internalType": "string",
          "name": "tokenName",
          "type": "string"
        },
        {
          "internalType": "string",
          "name": "tokenSymbol",
          "type": "string"
        },
        {
          "internalType": "uint8",
          "name": "tokenDecimals",
          "type": "uint8"
        }
      ],
      "name": "initERC20DetailedStorage",
      "outputs": [],
      "stateMutability": "nonpayable",
      "type": "function"
    },
    {
      "inputs": [],
      "name": "name",
      "outputs": [
        {
          "internalType": "string",
          "name": "",
          "type": "string"
        }
      ],
      "stateMutability": "view",
      "type": "function"
    },
    {
      "inputs": [],
      "name": "symbol",
      "outputs": [
        {
          "internalType": "string",
          "name": "",
          "type": "string"
        }
      ],
      "stateMutability": "view",
      "type": "function"
    }
  ],
  "bytecode": "0x60a060405234801561001057600080fd5b50604051610cb0380380610cb083398101604081905261002f91610040565b6001600160a01b0316608052610070565b60006020828403121561005257600080fd5b81516001600160a01b038116811461006957600080fd5b9392505050565b608051610c106100a060003960008181610265015281816102a3015281816103ec01526104740152610c106000f3fe608060405234801561001057600080fd5b50600436106100675760003560e01c806331e66e1e1161005057806331e66e1e146100a457806395d89b41146100ba578063ef961279146100c257600080fd5b806306fdde031461006c578063313ce5671461008a575b600080fd5b6100746100d7565b60405161008191906107d7565b60405180910390f35b6100926100ee565b60405160ff9091168152602001610081565b6100ac610105565b604051610081929190610844565b610074610118565b6100d56100d03660046108da565b61012a565b005b60606100e96100e4610164565b610198565b905090565b60006100e96100fb610164565b6002015460ff1690565b36600061011061022e565b915091509091565b60606100e9610125610164565b610398565b6101436101356103a9565b61013d6104f0565b9061051e565b61015d8585858585610153610164565b9493929190610592565b5050505050565b60008061019260017f335df4119bbb04f056b33eba33b826d3529129e458faf6daa9924b5a8f3b6a82610964565b92915050565b60608160000180546101a99061099e565b80601f01602080910402602001604051908101604052809291908181526020018280546101d59061099e565b80156102225780601f106101f757610100808354040283529160200191610222565b820191906000526020600020905b81548152906001019060200180831161020557829003601f168201915b50505050509050919050565b3660003332148061023f5750601836105b1561024d5750600091369150565b3373ffffffffffffffffffffffffffffffffffffffff7f0000000000000000000000000000000000000000000000000000000000000000161480610382575073ffffffffffffffffffffffffffffffffffffffff7f000000000000000000000000000000000000000000000000000000000000000016638929a8ca367fffffffffffffffffffffffffffffffffffffffffffffffffffffffffffffffec013560601c6040517fffffffff0000000000000000000000000000000000000000000000000000000060e084901b16815273ffffffffffffffffffffffffffffffffffffffff9091166004820152336024820152604401602060405180830381865afa15801561035e573d6000803e3d6000fd5b505050506040513d601f19601f8201168201806040525081019061038291906109f1565b1561038f57610110610650565b50600091369150565b60608160010180546101a99061099e565b6000333214806103b95750601836105b156103c357503390565b7fffffffffffffffffffffffffffffffffffffffffffffffffffffffffffffffec36013560601c7f000000000000000000000000000000000000000000000000000000000000000073ffffffffffffffffffffffffffffffffffffffff163314806104df57506040517f8929a8ca00000000000000000000000000000000000000000000000000000000815273ffffffffffffffffffffffffffffffffffffffff82811660048301523360248301527f00000000000000000000000000000000000000000000000000000000000000001690638929a8ca90604401602060405180830381865afa1580156104bb573d6000803e3d6000fd5b505050506040513d601f19601f820116820180604052508101906104df91906109f1565b156104e957919050565b3391505090565b60008061019260017fb53127684a568b3173ae13b9f8a6016e243e63b6e8ee1178d6a717850b5d6104610964565b815473ffffffffffffffffffffffffffffffffffffffff82811691161461058e576040517f673a31a100000000000000000000000000000000000000000000000000000000815273ffffffffffffffffffffffffffffffffffffffff821660048201526024015b60405180910390fd5b5050565b6105c76105c060017fd217496980d1cb14720b20a80af36676bbece8e5feeb5d8970a9681a2c76bb75610964565b6001610681565b856105d3858783610a96565b50600186016105e3838583610a96565b506002860180547fffffffffffffffffffffffffffffffffffffffffffffffffffffffffffffff001660ff83161790556106487fa219a0250000000000000000000000000000000000000000000000000000000060016106416106cd565b91906106fb565b505050505050565b3660006101107fffffffffffffffffffffffffffffffffffffffffffffffffffffffffffffffec8301828481610bb0565b815482908281106106c8576040517fbf0c18ec0000000000000000000000000000000000000000000000000000000081526004810182905260248101849052604401610585565b505550565b60008061019260017fca9d3e17f264b0f3984e2634e94adb37fa3e6a8103f06aeae6fa59e21c769f5e610964565b7c01000000000000000000000000000000000000000000000000000000007fffffffff00000000000000000000000000000000000000000000000000000000831601610773576040517f72c683bb00000000000000000000000000000000000000000000000000000000815260040160405180910390fd5b7fffffffff00000000000000000000000000000000000000000000000000000000919091166000908152602092909252604090912080547fffffffffffffffffffffffffffffffffffffffffffffffffffffffffffffff0016911515919091179055565b60006020808352835180602085015260005b81811015610805578581018301518582016040015282016107e9565b5060006040828601015260407fffffffffffffffffffffffffffffffffffffffffffffffffffffffffffffffe0601f8301168501019250505092915050565b60208152816020820152818360408301376000818301604090810191909152601f9092017fffffffffffffffffffffffffffffffffffffffffffffffffffffffffffffffe0160101919050565b60008083601f8401126108a357600080fd5b50813567ffffffffffffffff8111156108bb57600080fd5b6020830191508360208285010111156108d357600080fd5b9250929050565b6000806000806000606086880312156108f257600080fd5b853567ffffffffffffffff8082111561090a57600080fd5b61091689838a01610891565b9097509550602088013591508082111561092f57600080fd5b5061093c88828901610891565b909450925050604086013560ff8116811461095657600080fd5b809150509295509295909350565b81810381811115610192577f4e487b7100000000000000000000000000000000000000000000000000000000600052601160045260246000fd5b600181811c908216806109b257607f821691505b6020821081036109eb577f4e487b7100000000000000000000000000000000000000000000000000000000600052602260045260246000fd5b50919050565b600060208284031215610a0357600080fd5b81518015158114610a1357600080fd5b9392505050565b7f4e487b7100000000000000000000000000000000000000000000000000000000600052604160045260246000fd5b601f821115610a91576000816000526020600020601f850160051c81016020861015610a725750805b601f850160051c820191505b8181101561064857828155600101610a7e565b505050565b67ffffffffffffffff831115610aae57610aae610a1a565b610ac283610abc835461099e565b83610a49565b6000601f841160018114610b145760008515610ade5750838201355b7fffffffffffffffffffffffffffffffffffffffffffffffffffffffffffffffff600387901b1c1916600186901b17835561015d565b6000838152602090207fffffffffffffffffffffffffffffffffffffffffffffffffffffffffffffffe0861690835b82811015610b635786850135825560209485019460019092019101610b43565b5086821015610b9e577fffffffffffffffffffffffffffffffffffffffffffffffffffffffffffffffff60f88860031b161c19848701351681555b505060018560011b0183555050505050565b60008085851115610bc057600080fd5b83861115610bcd57600080fd5b505082019391909203915056fea2646970667358221220af5197eb694ae35ca7fdadb39808df0163e43745c9abe7ef298521a593fdfcfa64736f6c63430008160033",
  "linkReferences": {},
  "deployedLinkReferences": {}
}