{
  "_format": "hh-sol-artifact-1",
  "contractName": "ERC20MintBurnMock",
  "sourceName": "contracts/mocks/token/ERC20/preset/ERC20MintBurnMock.sol",
  "abi": [
    {
      "inputs": [
        {
          "internalType": "string",
          "name": "tokenName",
          "type": "string"
        },
        {
          "internalType": "string",
          "name": "tokenSymbol",
          "type": "string"
        },
        {
          "internalType": "uint8",
          "name": "tokenDecimals",
          "type": "uint8"
        },
        {
          "internalType": "contract IForwarderRegistry",
          "name": "forwarderRegistry",
          "type": "address"
        }
      ],
      "stateMutability": "nonpayable",
      "type": "constructor"
    },
    {
      "anonymous": false,
      "inputs": [
        {
          "indexed": true,
          "internalType": "address",
          "name": "owner",
          "type": "address"
        },
        {
          "indexed": true,
          "internalType": "address",
          "name": "spender",
          "type": "address"
        },
        {
          "indexed": false,
          "internalType": "uint256",
          "name": "value",
          "type": "uint256"
        }
      ],
      "name": "Approval",
      "type": "event"
    },
    {
      "anonymous": false,
      "inputs": [
        {
          "indexed": true,
          "internalType": "address",
          "name": "previousOwner",
          "type": "address"
        },
        {
          "indexed": true,
          "internalType": "address",
          "name": "newOwner",
          "type": "address"
        }
      ],
      "name": "OwnershipTransferred",
      "type": "event"
    },
    {
      "anonymous": false,
      "inputs": [
        {
          "indexed": false,
          "internalType": "bytes32",
          "name": "role",
          "type": "bytes32"
        },
        {
          "indexed": false,
          "internalType": "address",
          "name": "account",
          "type": "address"
        },
        {
          "indexed": false,
          "internalType": "address",
          "name": "operator",
          "type": "address"
        }
      ],
      "name": "RoleGranted",
      "type": "event"
    },
    {
      "anonymous": false,
      "inputs": [
        {
          "indexed": false,
          "internalType": "bytes32",
          "name": "role",
          "type": "bytes32"
        },
        {
          "indexed": false,
          "internalType": "address",
          "name": "account",
          "type": "address"
        },
        {
          "indexed": false,
          "internalType": "address",
          "name": "operator",
          "type": "address"
        }
      ],
      "name": "RoleRevoked",
      "type": "event"
    },
    {
      "anonymous": false,
      "inputs": [
        {
          "indexed": true,
          "internalType": "address",
          "name": "from",
          "type": "address"
        },
        {
          "indexed": true,
          "internalType": "address",
          "name": "to",
          "type": "address"
        },
        {
          "indexed": false,
          "internalType": "uint256",
          "name": "value",
          "type": "uint256"
        }
      ],
      "name": "Transfer",
      "type": "event"
    },
    {
      "inputs": [],
      "name": "DOMAIN_SEPARATOR",
      "outputs": [
        {
          "internalType": "bytes32",
          "name": "",
          "type": "bytes32"
        }
      ],
      "stateMutability": "view",
      "type": "function"
    },
    {
      "inputs": [],
      "name": "MINTER_ROLE",
      "outputs": [
        {
          "internalType": "bytes32",
          "name": "",
          "type": "bytes32"
        }
      ],
      "stateMutability": "view",
      "type": "function"
    },
    {
      "inputs": [],
      "name": "__msgData",
      "outputs": [
        {
          "internalType": "bytes",
          "name": "",
          "type": "bytes"
        }
      ],
      "stateMutability": "view",
      "type": "function"
    },
    {
      "inputs": [
        {
          "internalType": "address",
          "name": "owner",
          "type": "address"
        },
        {
          "internalType": "address",
          "name": "spender",
          "type": "address"
        }
      ],
      "name": "allowance",
      "outputs": [
        {
          "internalType": "uint256",
          "name": "value",
          "type": "uint256"
        }
      ],
      "stateMutability": "view",
      "type": "function"
    },
    {
      "inputs": [
        {
          "internalType": "address",
          "name": "spender",
          "type": "address"
        },
        {
          "internalType": "uint256",
          "name": "value",
          "type": "uint256"
        }
      ],
      "name": "approve",
      "outputs": [
        {
          "internalType": "bool",
          "name": "result",
          "type": "bool"
        }
      ],
      "stateMutability": "nonpayable",
      "type": "function"
    },
    {
      "inputs": [
        {
          "internalType": "address",
          "name": "owner",
          "type": "address"
        }
      ],
      "name": "balanceOf",
      "outputs": [
        {
          "internalType": "uint256",
          "name": "balance",
          "type": "uint256"
        }
      ],
      "stateMutability": "view",
      "type": "function"
    },
    {
      "inputs": [
        {
          "internalType": "address[]",
          "name": "owners",
          "type": "address[]"
        },
        {
          "internalType": "uint256[]",
          "name": "values",
          "type": "uint256[]"
        }
      ],
      "name": "batchBurnFrom",
      "outputs": [
        {
          "internalType": "bool",
          "name": "",
          "type": "bool"
        }
      ],
      "stateMutability": "nonpayable",
      "type": "function"
    },
    {
      "inputs": [
        {
          "internalType": "address[]",
          "name": "recipients",
          "type": "address[]"
        },
        {
          "internalType": "uint256[]",
          "name": "values",
          "type": "uint256[]"
        }
      ],
      "name": "batchMint",
      "outputs": [],
      "stateMutability": "nonpayable",
      "type": "function"
    },
    {
      "inputs": [
        {
          "internalType": "address[]",
          "name": "recipients",
          "type": "address[]"
        },
        {
          "internalType": "uint256[]",
          "name": "values",
          "type": "uint256[]"
        }
      ],
      "name": "batchTransfer",
      "outputs": [
        {
          "internalType": "bool",
          "name": "",
          "type": "bool"
        }
      ],
      "stateMutability": "nonpayable",
      "type": "function"
    },
    {
      "inputs": [
        {
          "internalType": "address",
          "name": "from",
          "type": "address"
        },
        {
          "internalType": "address[]",
          "name": "recipients",
          "type": "address[]"
        },
        {
          "internalType": "uint256[]",
          "name": "values",
          "type": "uint256[]"
        }
      ],
      "name": "batchTransferFrom",
      "outputs": [
        {
          "internalType": "bool",
          "name": "",
          "type": "bool"
        }
      ],
      "stateMutability": "nonpayable",
      "type": "function"
    },
    {
      "inputs": [
        {
          "internalType": "uint256",
          "name": "value",
          "type": "uint256"
        }
      ],
      "name": "burn",
      "outputs": [
        {
          "internalType": "bool",
          "name": "",
          "type": "bool"
        }
      ],
      "stateMutability": "nonpayable",
      "type": "function"
    },
    {
      "inputs": [
        {
          "internalType": "address",
          "name": "from",
          "type": "address"
        },
        {
          "internalType": "uint256",
          "name": "value",
          "type": "uint256"
        }
      ],
      "name": "burnFrom",
      "outputs": [
        {
          "internalType": "bool",
          "name": "",
          "type": "bool"
        }
      ],
      "stateMutability": "nonpayable",
      "type": "function"
    },
    {
      "inputs": [],
      "name": "decimals",
      "outputs": [
        {
          "internalType": "uint8",
          "name": "",
          "type": "uint8"
        }
      ],
      "stateMutability": "view",
      "type": "function"
    },
    {
      "inputs": [
        {
          "internalType": "address",
          "name": "spender",
          "type": "address"
        },
        {
          "internalType": "uint256",
          "name": "subtractedValue",
          "type": "uint256"
        }
      ],
      "name": "decreaseAllowance",
      "outputs": [
        {
          "internalType": "bool",
          "name": "result",
          "type": "bool"
        }
      ],
      "stateMutability": "nonpayable",
      "type": "function"
    },
    {
      "inputs": [],
      "name": "forwarderRegistry",
      "outputs": [
        {
          "internalType": "contract IForwarderRegistry",
          "name": "",
          "type": "address"
        }
      ],
      "stateMutability": "view",
      "type": "function"
    },
    {
      "inputs": [
        {
          "internalType": "bytes32",
          "name": "role",
          "type": "bytes32"
        },
        {
          "internalType": "address",
          "name": "account",
          "type": "address"
        }
      ],
      "name": "grantRole",
      "outputs": [],
      "stateMutability": "nonpayable",
      "type": "function"
    },
    {
      "inputs": [
        {
          "internalType": "bytes32",
          "name": "role",
          "type": "bytes32"
        },
        {
          "internalType": "address",
          "name": "account",
          "type": "address"
        }
      ],
      "name": "hasRole",
      "outputs": [
        {
          "internalType": "bool",
          "name": "hasRole_",
          "type": "bool"
        }
      ],
      "stateMutability": "view",
      "type": "function"
    },
    {
      "inputs": [
        {
          "internalType": "address",
          "name": "spender",
          "type": "address"
        },
        {
          "internalType": "uint256",
          "name": "addedValue",
          "type": "uint256"
        }
      ],
      "name": "increaseAllowance",
      "outputs": [
        {
          "internalType": "bool",
          "name": "result",
          "type": "bool"
        }
      ],
      "stateMutability": "nonpayable",
      "type": "function"
    },
    {
      "inputs": [
        {
          "internalType": "address",
          "name": "forwarder",
          "type": "address"
        }
      ],
      "name": "isTrustedForwarder",
      "outputs": [
        {
          "internalType": "bool",
          "name": "",
          "type": "bool"
        }
      ],
      "stateMutability": "view",
      "type": "function"
    },
    {
      "inputs": [
        {
          "internalType": "address",
          "name": "to",
          "type": "address"
        },
        {
          "internalType": "uint256",
          "name": "value",
          "type": "uint256"
        }
      ],
      "name": "mint",
      "outputs": [],
      "stateMutability": "nonpayable",
      "type": "function"
    },
    {
      "inputs": [],
      "name": "name",
      "outputs": [
        {
          "internalType": "string",
          "name": "",
          "type": "string"
        }
      ],
      "stateMutability": "view",
      "type": "function"
    },
    {
      "inputs": [
        {
          "internalType": "address",
          "name": "owner",
          "type": "address"
        }
      ],
      "name": "nonces",
      "outputs": [
        {
          "internalType": "uint256",
          "name": "",
          "type": "uint256"
        }
      ],
      "stateMutability": "view",
      "type": "function"
    },
    {
      "inputs": [],
      "name": "owner",
      "outputs": [
        {
          "internalType": "address",
          "name": "",
          "type": "address"
        }
      ],
      "stateMutability": "view",
      "type": "function"
    },
    {
      "inputs": [
        {
          "internalType": "address",
          "name": "owner",
          "type": "address"
        },
        {
          "internalType": "address",
          "name": "spender",
          "type": "address"
        },
        {
          "internalType": "uint256",
          "name": "value",
          "type": "uint256"
        },
        {
          "internalType": "uint256",
          "name": "deadline",
          "type": "uint256"
        },
        {
          "internalType": "uint8",
          "name": "v",
          "type": "uint8"
        },
        {
          "internalType": "bytes32",
          "name": "r",
          "type": "bytes32"
        },
        {
          "internalType": "bytes32",
          "name": "s",
          "type": "bytes32"
        }
      ],
      "name": "permit",
      "outputs": [],
      "stateMutability": "nonpayable",
      "type": "function"
    },
    {
      "inputs": [
        {
          "internalType": "address[]",
          "name": "accounts",
          "type": "address[]"
        },
        {
          "internalType": "contract IERC20[]",
          "name": "tokens",
          "type": "address[]"
        },
        {
          "internalType": "uint256[]",
          "name": "amounts",
          "type": "uint256[]"
        }
      ],
      "name": "recoverERC20s",
      "outputs": [],
      "stateMutability": "nonpayable",
      "type": "function"
    },
    {
      "inputs": [
        {
          "internalType": "address[]",
          "name": "accounts",
          "type": "address[]"
        },
        {
          "internalType": "contract IERC721[]",
          "name": "contracts",
          "type": "address[]"
        },
        {
          "internalType": "uint256[]",
          "name": "tokenIds",
          "type": "uint256[]"
        }
      ],
      "name": "recoverERC721s",
      "outputs": [],
      "stateMutability": "nonpayable",
      "type": "function"
    },
    {
      "inputs": [
        {
          "internalType": "address payable[]",
          "name": "accounts",
          "type": "address[]"
        },
        {
          "internalType": "uint256[]",
          "name": "amounts",
          "type": "uint256[]"
        }
      ],
      "name": "recoverETH",
      "outputs": [],
      "stateMutability": "nonpayable",
      "type": "function"
    },
    {
      "inputs": [
        {
          "internalType": "bytes32",
          "name": "role",
          "type": "bytes32"
        }
      ],
      "name": "renounceRole",
      "outputs": [],
      "stateMutability": "nonpayable",
      "type": "function"
    },
    {
      "inputs": [
        {
          "internalType": "bytes32",
          "name": "role",
          "type": "bytes32"
        },
        {
          "internalType": "address",
          "name": "account",
          "type": "address"
        }
      ],
      "name": "revokeRole",
      "outputs": [],
      "stateMutability": "nonpayable",
      "type": "function"
    },
    {
      "inputs": [
        {
          "internalType": "address",
          "name": "to",
          "type": "address"
        },
        {
          "internalType": "uint256",
          "name": "value",
          "type": "uint256"
        },
        {
          "internalType": "bytes",
          "name": "data",
          "type": "bytes"
        }
      ],
      "name": "safeTransfer",
      "outputs": [
        {
          "internalType": "bool",
          "name": "",
          "type": "bool"
        }
      ],
      "stateMutability": "nonpayable",
      "type": "function"
    },
    {
      "inputs": [
        {
          "internalType": "address",
          "name": "from",
          "type": "address"
        },
        {
          "internalType": "address",
          "name": "to",
          "type": "address"
        },
        {
          "internalType": "uint256",
          "name": "value",
          "type": "uint256"
        },
        {
          "internalType": "bytes",
          "name": "data",
          "type": "bytes"
        }
      ],
      "name": "safeTransferFrom",
      "outputs": [
        {
          "internalType": "bool",
          "name": "",
          "type": "bool"
        }
      ],
      "stateMutability": "nonpayable",
      "type": "function"
    },
    {
      "inputs": [
        {
          "internalType": "string",
          "name": "uri",
          "type": "string"
        }
      ],
      "name": "setTokenURI",
      "outputs": [],
      "stateMutability": "nonpayable",
      "type": "function"
    },
    {
      "inputs": [
        {
          "internalType": "bytes4",
          "name": "interfaceId",
          "type": "bytes4"
        }
      ],
      "name": "supportsInterface",
      "outputs": [
        {
          "internalType": "bool",
          "name": "",
          "type": "bool"
        }
      ],
      "stateMutability": "view",
      "type": "function"
    },
    {
      "inputs": [],
      "name": "symbol",
      "outputs": [
        {
          "internalType": "string",
          "name": "",
          "type": "string"
        }
      ],
      "stateMutability": "view",
      "type": "function"
    },
    {
      "inputs": [],
      "name": "tokenURI",
      "outputs": [
        {
          "internalType": "string",
          "name": "",
          "type": "string"
        }
      ],
      "stateMutability": "view",
      "type": "function"
    },
    {
      "inputs": [],
      "name": "totalSupply",
      "outputs": [
        {
          "internalType": "uint256",
          "name": "supply",
          "type": "uint256"
        }
      ],
      "stateMutability": "view",
      "type": "function"
    },
    {
      "inputs": [
        {
          "internalType": "address",
          "name": "to",
          "type": "address"
        },
        {
          "internalType": "uint256",
          "name": "value",
          "type": "uint256"
        }
      ],
      "name": "transfer",
      "outputs": [
        {
          "internalType": "bool",
          "name": "result",
          "type": "bool"
        }
      ],
      "stateMutability": "nonpayable",
      "type": "function"
    },
    {
      "inputs": [
        {
          "internalType": "address",
          "name": "from",
          "type": "address"
        },
        {
          "internalType": "address",
          "name": "to",
          "type": "address"
        },
        {
          "internalType": "uint256",
          "name": "value",
          "type": "uint256"
        }
      ],
      "name": "transferFrom",
      "outputs": [
        {
          "internalType": "bool",
          "name": "result",
          "type": "bool"
        }
      ],
      "stateMutability": "nonpayable",
      "type": "function"
    },
    {
      "inputs": [
        {
          "internalType": "address",
          "name": "newOwner",
          "type": "address"
        }
      ],
      "name": "transferOwnership",
      "outputs": [],
      "stateMutability": "nonpayable",
      "type": "function"
    }
  ],
  "bytecode": "0x60a060405234801562000010575f80fd5b5060405162004a7938038062004a79833981016040819052620000339162000448565b8383838380803386868662000047620000d9565b620000618383836200005862000113565b92919062000148565b5050506200008081620000796200019e60201b60201c565b90620001cd565b506200008b6200023f565b6200009562000259565b6200009f62000271565b620000a962000289565b620000b3620002a1565b620000bd620002b9565b6001600160a01b03166080525062000659975050505050505050565b5f620000e4620002cc565b9050620000fb816336372b0760e01b6001620002fb565b6200011081634e83a8c360e11b6001620002fb565b50565b5f806200014260017f335df4119bbb04f056b33eba33b826d3529129e458faf6daa9924b5a8f3b6a82620004e5565b92915050565b8362000155848262000591565b506001840162000166838262000591565b5060028401805460ff191660ff83161790556200019863a219a02560e01b600162000190620002cc565b9190620002fb565b50505050565b5f806200014260017fc9ed16f33ab3a66c84bfd83099ccb2a8845871e2e1c1928f63797152f0fd54cd620004e5565b6001600160a01b03811615620002235781546001600160a01b0319166001600160a01b03821690811783556040515f907f8be0079c531659141344cd1fd0a4f28419497f9722a3daafe3b4186f6b6457e0908290a35b6200023b6307f5828d60e41b600162000190620002cc565b5050565b620002576303c130d960e41b600162000190620002cc565b565b62000257634ec7fbed60e11b600162000190620002cc565b620002576353f41a9760e01b600162000190620002cc565b6200025763602993f360e11b600162000190620002cc565b6200025763144b1f0f60e11b600162000190620002cc565b620002576320c07ed160e01b6001620001905b5f806200014260017fca9d3e17f264b0f3984e2634e94adb37fa3e6a8103f06aeae6fa59e21c769f5e620004e5565b600160e01b6001600160e01b03198316016200035d5760405162461bcd60e51b815260206004820152601f60248201527f496e74657266616365446574656374696f6e3a2077726f6e672076616c756500604482015260640160405180910390fd5b6001600160e01b0319919091165f9081526020929092526040909120805460ff1916911515919091179055565b634e487b7160e01b5f52604160045260245ffd5b5f82601f830112620003ae575f80fd5b81516001600160401b0380821115620003cb57620003cb6200038a565b604051601f8301601f19908116603f01168101908282118183101715620003f657620003f66200038a565b8160405283815260209250868385880101111562000412575f80fd5b5f91505b8382101562000435578582018301518183018401529082019062000416565b5f93810190920192909252949350505050565b5f805f80608085870312156200045c575f80fd5b84516001600160401b038082111562000473575f80fd5b62000481888389016200039e565b9550602087015191508082111562000497575f80fd5b50620004a6878288016200039e565b935050604085015160ff81168114620004bd575f80fd5b60608601519092506001600160a01b0381168114620004da575f80fd5b939692955090935050565b818103818111156200014257634e487b7160e01b5f52601160045260245ffd5b600181811c908216806200051a57607f821691505b6020821081036200053957634e487b7160e01b5f52602260045260245ffd5b50919050565b601f8211156200058c575f81815260208120601f850160051c81016020861015620005675750805b601f850160051c820191505b81811015620005885782815560010162000573565b5050505b505050565b81516001600160401b03811115620005ad57620005ad6200038a565b620005c581620005be845462000505565b846200053f565b602080601f831160018114620005fb575f8415620005e35750858301515b5f19600386901b1c1916600185901b17855562000588565b5f85815260208120601f198616915b828110156200062b578886015182559484019460019091019084016200060a565b50858210156200064957878501515f19600388901b60f8161c191681555b5050505050600190811b01905550565b6080516143e4620006955f395f818161032f01528181610425015281816133070152818161338f0152818161343e015261347c01526143e45ff3fe608060405234801561000f575f80fd5b506004361061029d575f3560e01c806373c8a95811610171578063b88d4fde116100d2578063dd62ed3e11610088578063eb7955491161006e578063eb795549146105c9578063f2fde38b146105dc578063f7ba94bd146105ef575f80fd5b8063dd62ed3e146105a3578063e0df5b6f146105b6575f80fd5b8063d505accf116100b8578063d505accf14610556578063d539139314610569578063d547741f14610590575f80fd5b8063b88d4fde14610530578063c3666c3614610543575f80fd5b80638da5cb5b1161012757806395d89b411161010d57806395d89b4114610502578063a457c2d71461050a578063a9059cbb1461051d575f80fd5b80638da5cb5b146104e757806391d14854146104ef575f80fd5b80637ecebe00116101575780637ecebe00146104ae57806388d695b2146104c15780638bb9c5bf146104d4575f80fd5b806373c8a9581461048857806379cc67901461049b575f80fd5b806331e66e1e1161021b57806342966c68116101d1578063572b6c05116101b7578063572b6c0514610415578063685731071461046257806370a0823114610475575f80fd5b806342966c68146103ef5780634885b25414610402575f80fd5b8063395093511161020157806339509351146103c15780633c130d90146103d457806340c10f19146103dc575f80fd5b806331e66e1e146103a35780633644e515146103b9575f80fd5b80631b9a7529116102705780632b4c9f16116102565780632b4c9f161461032d5780632f2ff15d14610374578063313ce56714610389575f80fd5b80631b9a75291461030757806323b872dd1461031a575f80fd5b806301ffc9a7146102a157806306fdde03146102c9578063095ea7b3146102de57806318160ddd146102f1575b5f80fd5b6102b46102af366004613af1565b610602565b60405190151581526020015b60405180910390f35b6102d161061b565b6040516102c09190613b77565b6102b46102ec366004613baa565b610632565b6102f9610659565b6040519081526020016102c0565b6102b4610315366004613c1c565b61066c565b6102b4610328366004613c83565b61069a565b7f00000000000000000000000000000000000000000000000000000000000000005b60405173ffffffffffffffffffffffffffffffffffffffff90911681526020016102c0565b610387610382366004613cc1565b6106c4565b005b6103916106fc565b60405160ff90911681526020016102c0565b6103ab610712565b6040516102c0929190613cef565b6102f9610724565b6102b46103cf366004613baa565b61072d565b6102d161074b565b6103876103ea366004613baa565b610758565b6102b46103fd366004613d3b565b6107ab565b6102b4610410366004613d52565b6107cf565b6102b4610423366004613dcf565b7f000000000000000000000000000000000000000000000000000000000000000073ffffffffffffffffffffffffffffffffffffffff90811691161490565b610387610470366004613c1c565b6107ff565b6102f9610483366004613dcf565b6108a7565b610387610496366004613dea565b6108dd565b6102b46104a9366004613baa565b610a0c565b6102f96104bc366004613dcf565b610a2a565b6102b46104cf366004613c1c565b610a37565b6103876104e2366004613d3b565b610a59565b61034f610a77565b6102b46104fd366004613cc1565b610a9d565b6102d1610ae6565b6102b4610518366004613baa565b610af8565b6102b461052b366004613baa565b610b16565b6102b461053e366004613ebb565b610b34565b610387610551366004613dea565b610b58565b610387610564366004613f18565b610cf7565b6102f97f6d696e746572000000000000000000000000000000000000000000000000000081565b61038761059e366004613cc1565b610d1e565b6102f96105b1366004613f89565b610d4b565b6103876105c4366004613fb5565b610d94565b6102b46105d7366004613ff4565b610db3565b6103876105ea366004613dcf565b610dd5565b6103876105fd366004613c1c565b610df0565b5f6106158261060f610edd565b90610f0a565b92915050565b606061062d610628610fe1565b61100e565b905090565b5f61065061063e6110a1565b84846106486110aa565b9291906110d7565b50600192915050565b5f61062d6106656110aa565b6002015490565b5f61068e6106786110a1565b868686866106846110aa565b94939291906111c5565b5060015b949350505050565b5f6106ba6106a66110a1565b8585856106b16110aa565b93929190611400565b5060019392505050565b5f6106cd6110a1565b90506106e1816106db611452565b9061147f565b6106f78383836106ef611502565b92919061152f565b505050565b5f61062d610708610fe1565b6002015460ff1690565b365f61071c611603565b915091509091565b5f61062d61160d565b5f6106506107396110a1565b84846107436110aa565b9291906116a7565b606061062d610628611871565b6107937f6d696e74657200000000000000000000000000000000000000000000000000006107846110a1565b61078c611502565b919061189e565b6107a782826107a06110aa565b9190611949565b5050565b5f6107c76107b76110a1565b836107c06110aa565b9190611ac1565b506001919050565b5f6107f36107db6110a1565b87878787876107e86110aa565b959493929190611bd4565b50600195945050505050565b61082b7f6d696e74657200000000000000000000000000000000000000000000000000006107846110a1565b6108a18484808060200260200160405190810160405280939291908181526020018383602002808284375f92019190915250506040805160208088028281018201909352878252909350879250869182918501908490808284375f9201919091525061089a92506110aa915050565b9190612010565b50505050565b5f610615826108b46110aa565b9073ffffffffffffffffffffffffffffffffffffffff165f908152602091909152604090205490565b6108f06108e86110a1565b6106db611452565b8483811480156108ff57508082145b61096a576040517f08c379a000000000000000000000000000000000000000000000000000000000815260206004820152601d60248201527f5265636f766572793a20696e636f6e73697374656e742061727261797300000060448201526064015b60405180910390fd5b5f5b818114610a02576109fa88888381811061098857610988614040565b905060200201602081019061099d9190613dcf565b8585848181106109af576109af614040565b905060200201358888858181106109c8576109c8614040565b90506020020160208101906109dd9190613dcf565b73ffffffffffffffffffffffffffffffffffffffff1691906122de565b60010161096c565b5050505050505050565b5f610650610a186110a1565b8484610a226110aa565b92919061236b565b5f610615826108b46123b5565b5f61068e610a436110a1565b86868686610a4f6110aa565b94939291906123e2565b610a74610a646110a1565b82610a6d611502565b91906127bd565b50565b5f61062d610a83611452565b5473ffffffffffffffffffffffffffffffffffffffff1690565b5f610adf8383610aab611502565b5f9283526020908152604080842073ffffffffffffffffffffffffffffffffffffffff909316845291905290205460ff1690565b9392505050565b606061062d610af3610fe1565b612860565b5f610650610b046110a1565b8484610b0e6110aa565b929190612871565b5f610650610b226110a1565b8484610b2c6110aa565b9291906129c2565b5f6107f3610b406110a1565b8787878787610b4d6110aa565b959493929190612ba1565b610b636108e86110a1565b848381148015610b7257508082145b610bd8576040517f08c379a000000000000000000000000000000000000000000000000000000000815260206004820152601d60248201527f5265636f766572793a20696e636f6e73697374656e74206172726179730000006044820152606401610961565b5f5b818114610a0257858582818110610bf357610bf3614040565b9050602002016020810190610c089190613dcf565b73ffffffffffffffffffffffffffffffffffffffff166323b872dd308a8a85818110610c3657610c36614040565b9050602002016020810190610c4b9190613dcf565b878786818110610c5d57610c5d614040565b6040517fffffffff0000000000000000000000000000000000000000000000000000000060e088901b16815273ffffffffffffffffffffffffffffffffffffffff9586166004820152949093166024850152506020909102013560448201526064015f604051808303815f87803b158015610cd6575f80fd5b505af1158015610ce8573d5f803e3d5ffd5b50505050806001019050610bda565b610d1587878787878787610d096123b5565b96959493929190612c0d565b50505050505050565b5f610d276110a1565b9050610d35816106db611452565b6106f7838383610d43611502565b929190612f05565b5f610adf8383610d596110aa565b919073ffffffffffffffffffffffffffffffffffffffff9182165f908152600193909301602090815260408085209290931684525290205490565b610d9f6108e86110a1565b6107a78282610dac611871565b9190612fcd565b5f61068e610dbf6110a1565b86868686610dcb6110aa565b9493929190612fd9565b610a74610de06110a1565b82610de9611452565b9190613044565b610dfb6108e86110a1565b82818114610e65576040517f08c379a000000000000000000000000000000000000000000000000000000000815260206004820152601d60248201527f5265636f766572793a20696e636f6e73697374656e74206172726179730000006044820152606401610961565b5f5b818114610ed557610ecd848483818110610e8357610e83614040565b90506020020135878784818110610e9c57610e9c614040565b9050602002016020810190610eb19190613dcf565b73ffffffffffffffffffffffffffffffffffffffff169061316f565b600101610e67565b505050505050565b5f8061061560017fca9d3e17f264b0f3984e2634e94adb37fa3e6a8103f06aeae6fa59e21c769f5e61406d565b5f7c01000000000000000000000000000000000000000000000000000000007fffffffff00000000000000000000000000000000000000000000000000000000831601610f5857505f610615565b7ffe003659000000000000000000000000000000000000000000000000000000007fffffffff00000000000000000000000000000000000000000000000000000000831601610fa957506001610615565b507fffffffff00000000000000000000000000000000000000000000000000000000165f908152602091909152604090205460ff1690565b5f8061061560017f335df4119bbb04f056b33eba33b826d3529129e458faf6daa9924b5a8f3b6a8261406d565b6060815f01805461101e906140a5565b80601f016020809104026020016040519081016040528092919081815260200182805461104a906140a5565b80156110955780601f1061106c57610100808354040283529160200191611095565b820191905f5260205f20905b81548152906001019060200180831161107857829003601f168201915b50505050509050919050565b5f61062d6132c5565b5f8061061560017f1da92899d3da68bf9787824388a37ea2bfa79780bcef91b9716c390eec8ecbef61406d565b73ffffffffffffffffffffffffffffffffffffffff8216611154576040517f08c379a000000000000000000000000000000000000000000000000000000000815260206004820152601d60248201527f45524332303a20617070726f76616c20746f20616464726573732830290000006044820152606401610961565b73ffffffffffffffffffffffffffffffffffffffff8381165f81815260018701602090815260408083209487168084529482529182902085905590518481527f8c5be1e5ebec7d5bd14f71427d1e84f3dd0314c0f7b2291e5b200ac8c7c3b92591015b60405180910390a350505050565b8281811461122f576040517f08c379a000000000000000000000000000000000000000000000000000000000815260206004820152601a60248201527f45524332303a20696e636f6e73697374656e74206172726179730000000000006044820152606401610961565b805f0361123c5750610ed5565b5f805b8281146113e4575f87878381811061125957611259614040565b905060200201602081019061126e9190613dcf565b90505f86868481811061128357611283614040565b9050602002013590508973ffffffffffffffffffffffffffffffffffffffff168273ffffffffffffffffffffffffffffffffffffffff16146112cb576112cb8b838c84612871565b801561138d5773ffffffffffffffffffffffffffffffffffffffff82165f90815260208c90526040902054818103818110611362576040517f08c379a000000000000000000000000000000000000000000000000000000000815260206004820152601b60248201527f45524332303a20696e73756666696369656e742062616c616e636500000000006044820152606401610961565b73ffffffffffffffffffffffffffffffffffffffff84165f90815260208e9052604090205550928301925b6040518181525f9073ffffffffffffffffffffffffffffffffffffffff8416907fddf252ad1be2c89b69c2b068fc378daa952ba7f163c4a11628f55a4df523b3ef9060200160405180910390a3505060010161123f565b508015610a025760028801805482900390555050505050505050565b8373ffffffffffffffffffffffffffffffffffffffff168373ffffffffffffffffffffffffffffffffffffffff161461143f5761143f85848684612871565b61144b858484846129c2565b5050505050565b5f8061061560017fc9ed16f33ab3a66c84bfd83099ccb2a8845871e2e1c1928f63797152f0fd54cd61406d565b815473ffffffffffffffffffffffffffffffffffffffff8281169116146107a7576040517f08c379a000000000000000000000000000000000000000000000000000000000815260206004820152601860248201527f4f776e6572736869703a206e6f7420746865206f776e657200000000000000006044820152606401610961565b5f8061061560017fc8827d3282af6f37b64c3e9e6f3ac9df286ab0bb0fccd6f8661bf19adb368b2361406d565b5f8381526020858152604080832073ffffffffffffffffffffffffffffffffffffffff8616845290915290205460ff166108a1575f8381526020858152604080832073ffffffffffffffffffffffffffffffffffffffff8681168086529184529382902080547fffffffffffffffffffffffffffffffffffffffffffffffffffffffffffffff00166001179055815187815292830152918316918101919091527f2f8788117e7eff1d82e926ec794901d17c78024a50270940304540a733656f0d906060015b60405180910390a150505050565b365f61071c613409565b5f467f8b73c3c69bb8fe3d512ecc4cf759cc79239f7b179b0ffacaa9a75d522b39400f61163b610628610fe1565b80516020918201206040805192830193909352918101919091527fc89efdaa54c0f20c7adf612882df0950f5a951637e0307cdcb4c672f298b8bc66060820152608081018290523060a082015260c0016040516020818303038152906040528051906020012091505090565b73ffffffffffffffffffffffffffffffffffffffff8216611724576040517f08c379a000000000000000000000000000000000000000000000000000000000815260206004820152601d60248201527f45524332303a20617070726f76616c20746f20616464726573732830290000006044820152606401610961565b73ffffffffffffffffffffffffffffffffffffffff8084165f9081526001860160209081526040808320938616835292905220548115611803578082018181116117ca576040517f08c379a000000000000000000000000000000000000000000000000000000000815260206004820152601960248201527f45524332303a20616c6c6f77616e6365206f766572666c6f77000000000000006044820152606401610961565b73ffffffffffffffffffffffffffffffffffffffff8086165f908152600188016020908152604080832093881683529290522081905590505b8273ffffffffffffffffffffffffffffffffffffffff168473ffffffffffffffffffffffffffffffffffffffff167f8c5be1e5ebec7d5bd14f71427d1e84f3dd0314c0f7b2291e5b200ac8c7c3b9258360405161186291815260200190565b60405180910390a35050505050565b5f8061061560017ff41bf6a5db26bffdfab174dcf66b31fbba8fdb7e3db040721ce1e62d61839ceb61406d565b5f8281526020848152604080832073ffffffffffffffffffffffffffffffffffffffff8516845290915290205460ff166106f7576118db8261356e565b6040516020016118eb91906140f6565b604080517fffffffffffffffffffffffffffffffffffffffffffffffffffffffffffffffe0818403018152908290527f08c379a000000000000000000000000000000000000000000000000000000000825261096191600401613b77565b73ffffffffffffffffffffffffffffffffffffffff82166119c6576040517f08c379a000000000000000000000000000000000000000000000000000000000815260206004820152601960248201527f45524332303a206d696e7420746f2061646472657373283029000000000000006044820152606401610961565b8015611a6e576002830154818101818111611a3d576040517f08c379a000000000000000000000000000000000000000000000000000000000815260206004820152601660248201527f45524332303a20737570706c79206f766572666c6f77000000000000000000006044820152606401610961565b60028501555073ffffffffffffffffffffffffffffffffffffffff82165f9081526020849052604090208054820190555b60405181815273ffffffffffffffffffffffffffffffffffffffff8316905f907fddf252ad1be2c89b69c2b068fc378daa952ba7f163c4a11628f55a4df523b3ef906020015b60405180910390a3505050565b8015611b8a5773ffffffffffffffffffffffffffffffffffffffff82165f90815260208490526040902054818103818110611b58576040517f08c379a000000000000000000000000000000000000000000000000000000000815260206004820152601b60248201527f45524332303a20696e73756666696369656e742062616c616e636500000000006044820152606401610961565b73ffffffffffffffffffffffffffffffffffffffff84165f908152602086905260409020555060028301805482900390555b6040518181525f9073ffffffffffffffffffffffffffffffffffffffff8416907fddf252ad1be2c89b69c2b068fc378daa952ba7f163c4a11628f55a4df523b3ef90602001611ab4565b82818114611c3e576040517f08c379a000000000000000000000000000000000000000000000000000000000815260206004820152601a60248201527f45524332303a20696e636f6e73697374656e74206172726179730000000000006044820152606401610961565b805f03611c4b5750610d15565b73ffffffffffffffffffffffffffffffffffffffff86165f908152602089905260408120549080805b848114611f19575f898983818110611c8e57611c8e614040565b9050602002016020810190611ca39190613dcf565b905073ffffffffffffffffffffffffffffffffffffffff8116611d22576040517f08c379a000000000000000000000000000000000000000000000000000000000815260206004820152601d60248201527f45524332303a207472616e7366657220746f20616464726573732830290000006044820152606401610961565b5f888884818110611d3557611d35614040565b905060200201359050805f14611ea857848101858111611db1576040517f08c379a000000000000000000000000000000000000000000000000000000000815260206004820152601660248201527f45524332303a2076616c756573206f766572666c6f77000000000000000000006044820152606401610961565b8095508273ffffffffffffffffffffffffffffffffffffffff168d73ffffffffffffffffffffffffffffffffffffffff1614611e3757818f5f015f8573ffffffffffffffffffffffffffffffffffffffff1673ffffffffffffffffffffffffffffffffffffffff1681526020019081526020015f205f8282540192505081905550611ea6565b86821115611ea1576040517f08c379a000000000000000000000000000000000000000000000000000000000815260206004820152601b60248201527f45524332303a20696e73756666696369656e742062616c616e636500000000006044820152606401610961565b938101935b505b8173ffffffffffffffffffffffffffffffffffffffff168c73ffffffffffffffffffffffffffffffffffffffff167fddf252ad1be2c89b69c2b068fc378daa952ba7f163c4a11628f55a4df523b3ef83604051611f0791815260200190565b60405180910390a35050600101611c74565b508115801590611f295750808214155b15611fc457818303838110611f9a576040517f08c379a000000000000000000000000000000000000000000000000000000000815260206004820152601b60248201527f45524332303a20696e73756666696369656e742062616c616e636500000000006044820152606401610961565b73ffffffffffffffffffffffffffffffffffffffff8a165f90815260208d90526040902090820190555b8973ffffffffffffffffffffffffffffffffffffffff168973ffffffffffffffffffffffffffffffffffffffff1614612003576120038b8a8c85612871565b5050505050505050505050565b81518151811461207c576040517f08c379a000000000000000000000000000000000000000000000000000000000815260206004820152601a60248201527f45524332303a20696e636f6e73697374656e74206172726179730000000000006044820152606401610961565b805f036120895750505050565b5f805b828114612259575f8582815181106120a6576120a6614040565b602002602001015190505f73ffffffffffffffffffffffffffffffffffffffff168173ffffffffffffffffffffffffffffffffffffffff1603612145576040517f08c379a000000000000000000000000000000000000000000000000000000000815260206004820152601960248201527f45524332303a206d696e7420746f2061646472657373283029000000000000006044820152606401610961565b5f85838151811061215857612158614040565b60200260200101519050805f14612202578381018481116121d5576040517f08c379a000000000000000000000000000000000000000000000000000000000815260206004820152601660248201527f45524332303a2076616c756573206f766572666c6f77000000000000000000006044820152606401610961565b73ffffffffffffffffffffffffffffffffffffffff83165f90815260208a90526040902080548301905593505b60405181815273ffffffffffffffffffffffffffffffffffffffff8316905f907fddf252ad1be2c89b69c2b068fc378daa952ba7f163c4a11628f55a4df523b3ef9060200160405180910390a3505060010161208c565b50801561144b5760028501548181018181116122d1576040517f08c379a000000000000000000000000000000000000000000000000000000000815260206004820152601660248201527f45524332303a20737570706c79206f766572666c6f77000000000000000000006044820152606401610961565b6002870155505050505050565b6040805173ffffffffffffffffffffffffffffffffffffffff8416602482015260448082018490528251808303909101815260649091019091526020810180517bffffffffffffffffffffffffffffffffffffffffffffffffffffffff167fa9059cbb000000000000000000000000000000000000000000000000000000001790526106f79084906136f9565b8273ffffffffffffffffffffffffffffffffffffffff168273ffffffffffffffffffffffffffffffffffffffff16146123aa576123aa84838584612871565b6108a1848383611ac1565b5f8061061560017f93fe0ff7226b064a4a8f0b09910762afb4bc2441835792c021ffd78cd513011e61406d565b8281811461244c576040517f08c379a000000000000000000000000000000000000000000000000000000000815260206004820152601a60248201527f45524332303a20696e636f6e73697374656e74206172726179730000000000006044820152606401610961565b805f036124595750610ed5565b73ffffffffffffffffffffffffffffffffffffffff86165f908152602088905260408120549080805b848114612706575f89898381811061249c5761249c614040565b90506020020160208101906124b19190613dcf565b905073ffffffffffffffffffffffffffffffffffffffff8116612530576040517f08c379a000000000000000000000000000000000000000000000000000000000815260206004820152601d60248201527f45524332303a207472616e7366657220746f20616464726573732830290000006044820152606401610961565b5f88888481811061254357612543614040565b905060200201359050805f14612695578481018581116125bf576040517f08c379a000000000000000000000000000000000000000000000000000000000815260206004820152601660248201527f45524332303a2076616c756573206f766572666c6f77000000000000000000006044820152606401610961565b8095508273ffffffffffffffffffffffffffffffffffffffff168d73ffffffffffffffffffffffffffffffffffffffff16146126245773ffffffffffffffffffffffffffffffffffffffff83165f90815260208f905260409020805483019055612693565b8682111561268e576040517f08c379a000000000000000000000000000000000000000000000000000000000815260206004820152601b60248201527f45524332303a20696e73756666696369656e742062616c616e636500000000006044820152606401610961565b938101935b505b8173ffffffffffffffffffffffffffffffffffffffff168c73ffffffffffffffffffffffffffffffffffffffff167fddf252ad1be2c89b69c2b068fc378daa952ba7f163c4a11628f55a4df523b3ef836040516126f491815260200190565b60405180910390a35050600101612482565b5081158015906127165750808214155b156127b157818303838110612787576040517f08c379a000000000000000000000000000000000000000000000000000000000815260206004820152601b60248201527f45524332303a20696e73756666696369656e742062616c616e636500000000006044820152606401610961565b73ffffffffffffffffffffffffffffffffffffffff8a165f90815260208c90526040902090820190555b50505050505050505050565b6127c883828461189e565b5f8181526020848152604080832073ffffffffffffffffffffffffffffffffffffffff86168085529083529281902080547fffffffffffffffffffffffffffffffffffffffffffffffffffffffffffffff0016905580518481529182018390528101919091527ff6391f5c32d9c69d2a47ea670b442974b53935d1edc7fd64eb21e047a839171b9060600160405180910390a1505050565b606081600101805461101e906140a5565b73ffffffffffffffffffffffffffffffffffffffff82166128ee576040517f08c379a000000000000000000000000000000000000000000000000000000000815260206004820152601d60248201527f45524332303a20617070726f76616c20746f20616464726573732830290000006044820152606401610961565b73ffffffffffffffffffffffffffffffffffffffff8084165f9081526001860160209081526040808320938616835292905220547fffffffffffffffffffffffffffffffffffffffffffffffffffffffffffffffff811480159061295157508115155b15611803578181038181106117ca576040517f08c379a000000000000000000000000000000000000000000000000000000000815260206004820152601d60248201527f45524332303a20696e73756666696369656e7420616c6c6f77616e63650000006044820152606401610961565b73ffffffffffffffffffffffffffffffffffffffff8216612a3f576040517f08c379a000000000000000000000000000000000000000000000000000000000815260206004820152601d60248201527f45524332303a207472616e7366657220746f20616464726573732830290000006044820152606401610961565b8015612b425773ffffffffffffffffffffffffffffffffffffffff83165f90815260208590526040902054818103818110612ad6576040517f08c379a000000000000000000000000000000000000000000000000000000000815260206004820152601b60248201527f45524332303a20696e73756666696369656e742062616c616e636500000000006044820152606401610961565b8373ffffffffffffffffffffffffffffffffffffffff168573ffffffffffffffffffffffffffffffffffffffff1614612b3f5773ffffffffffffffffffffffffffffffffffffffff8086165f908152602088905260408082208490559186168152208054840190555b50505b8173ffffffffffffffffffffffffffffffffffffffff168373ffffffffffffffffffffffffffffffffffffffff167fddf252ad1be2c89b69c2b068fc378daa952ba7f163c4a11628f55a4df523b3ef836040516111b791815260200190565b612bae8787878787611400565b73ffffffffffffffffffffffffffffffffffffffff84163b15610d1557610d158686868686868080601f0160208091040260200160405190810160405280939291908181526020018383808284375f9201919091525061380692505050565b73ffffffffffffffffffffffffffffffffffffffff8716612c8a576040517f08c379a000000000000000000000000000000000000000000000000000000000815260206004820152601d60248201527f45524332303a207065726d69742066726f6d20616464726573732830290000006044820152606401610961565b83421115612cf4576040517f08c379a000000000000000000000000000000000000000000000000000000000815260206004820152601560248201527f45524332303a2065787069726564207065726d697400000000000000000000006044820152606401610961565b73ffffffffffffffffffffffffffffffffffffffff8781165f81815260208b8152604080832080546001810190915581517f6e71edae12b1b97f4d1f60370fef10105fa2faae0126114a169c64845d6126c98185015280830195909552948b166060850152608084018a905260a084019490945260c08084018990528451808503909101815260e09093019093528151919092012090612d9261160d565b6040517f19010000000000000000000000000000000000000000000000000000000000006020820152602281019190915260428101839052606201604080517fffffffffffffffffffffffffffffffffffffffffffffffffffffffffffffffe081840301815282825280516020918201205f80855291840180845281905260ff89169284019290925260608301879052608083018690529092509060019060a0016020604051602081039080840390855afa158015612e53573d5f803e3d5ffd5b5050506020604051035190508973ffffffffffffffffffffffffffffffffffffffff168173ffffffffffffffffffffffffffffffffffffffff1614612ef4576040517f08c379a000000000000000000000000000000000000000000000000000000000815260206004820152601560248201527f45524332303a20696e76616c6964207065726d697400000000000000000000006044820152606401610961565b505050610a028787876106486110aa565b5f8381526020858152604080832073ffffffffffffffffffffffffffffffffffffffff8616845290915290205460ff16156108a1575f8381526020858152604080832073ffffffffffffffffffffffffffffffffffffffff8681168086529184529382902080547fffffffffffffffffffffffffffffffffffffffffffffffffffffffffffffff00169055815187815292830152918316918101919091527ff6391f5c32d9c69d2a47ea670b442974b53935d1edc7fd64eb21e047a839171b906060016115f5565b826108a18284836141d3565b612fe5868686866129c2565b73ffffffffffffffffffffffffffffffffffffffff84163b15610ed557610ed58586868686868080601f0160208091040260200160405190810160405280939291908181526020018383808284375f9201919091525061380692505050565b825473ffffffffffffffffffffffffffffffffffffffff90811690831681146130c9576040517f08c379a000000000000000000000000000000000000000000000000000000000815260206004820152601860248201527f4f776e6572736869703a206e6f7420746865206f776e657200000000000000006044820152606401610961565b8173ffffffffffffffffffffffffffffffffffffffff168173ffffffffffffffffffffffffffffffffffffffff16146108a15783547fffffffffffffffffffffffff00000000000000000000000000000000000000001673ffffffffffffffffffffffffffffffffffffffff8381169182178655604051908316907f8be0079c531659141344cd1fd0a4f28419497f9722a3daafe3b4186f6b6457e0905f90a350505050565b804710156131d9576040517f08c379a000000000000000000000000000000000000000000000000000000000815260206004820152601d60248201527f416464726573733a20696e73756666696369656e742062616c616e63650000006044820152606401610961565b5f8273ffffffffffffffffffffffffffffffffffffffff16826040515f6040518083038185875af1925050503d805f811461322f576040519150601f19603f3d011682016040523d82523d5f602084013e613234565b606091505b50509050806106f7576040517f08c379a000000000000000000000000000000000000000000000000000000000815260206004820152603a60248201527f416464726573733a20756e61626c6520746f2073656e642076616c75652c207260448201527f6563697069656e74206d617920686176652072657665727465640000000000006064820152608401610961565b5f333214806132d45750601836105b156132de57503390565b7fffffffffffffffffffffffffffffffffffffffffffffffffffffffffffffffec36013560601c7f000000000000000000000000000000000000000000000000000000000000000073ffffffffffffffffffffffffffffffffffffffff163314806133f857506040517f8929a8ca00000000000000000000000000000000000000000000000000000000815273ffffffffffffffffffffffffffffffffffffffff82811660048301523360248301527f00000000000000000000000000000000000000000000000000000000000000001690638929a8ca90604401602060405180830381865afa1580156133d4573d5f803e3d5ffd5b505050506040513d601f19601f820116820180604052508101906133f891906142ea565b1561340257919050565b3391505090565b365f333214806134195750601836105b1561342657505f91369150565b3373ffffffffffffffffffffffffffffffffffffffff7f0000000000000000000000000000000000000000000000000000000000000000161480613559575073ffffffffffffffffffffffffffffffffffffffff7f000000000000000000000000000000000000000000000000000000000000000016638929a8ca367fffffffffffffffffffffffffffffffffffffffffffffffffffffffffffffffec013560601c6040517fffffffff0000000000000000000000000000000000000000000000000000000060e084901b16815273ffffffffffffffffffffffffffffffffffffffff9091166004820152336024820152604401602060405180830381865afa158015613535573d5f803e3d5ffd5b505050506040513d601f19601f8201168201806040525081019061355991906142ea565b156135665761071c613929565b505f91369150565b60605f82900361358b57505060408051602081019091525f815290565b5f8260405160200161359f91815260200190565b604080517fffffffffffffffffffffffffffffffffffffffffffffffffffffffffffffffe08184030181529190529050601f5b8181815181106135e4576135e4614040565b01602001517fff00000000000000000000000000000000000000000000000000000000000000165f03613638577fffffffffffffffffffffffffffffffffffffffffffffffffffffffffffffffff016135d2565b5f8160010167ffffffffffffffff81111561365557613655614161565b6040519080825280601f01601f19166020018201604052801561367f576020820181803683370190505b5090505f5b8281116136f05783818151811061369d5761369d614040565b602001015160f81c60f81b8282815181106136ba576136ba614040565b60200101907effffffffffffffffffffffffffffffffffffffffffffffffffffffffffffff191690815f1a905350600101613684565b50949350505050565b5f61375a826040518060400160405280602081526020017f5361666545524332303a206c6f772d6c6576656c2063616c6c206661696c65648152508573ffffffffffffffffffffffffffffffffffffffff166139599092919063ffffffff16565b905080515f148061377a57508080602001905181019061377a91906142ea565b6106f7576040517f08c379a000000000000000000000000000000000000000000000000000000000815260206004820152602a60248201527f5361666545524332303a204552433230206f7065726174696f6e20646964206e60448201527f6f742073756363656564000000000000000000000000000000000000000000006064820152608401610961565b6040517f4fc35859000000000000000000000000000000000000000000000000000000008082529073ffffffffffffffffffffffffffffffffffffffff851690634fc3585990613860908990899088908890600401614309565b6020604051808303815f875af115801561387c573d5f803e3d5ffd5b505050506040513d601f19601f820116820180604052508101906138a09190614351565b7fffffffff00000000000000000000000000000000000000000000000000000000161461144b576040517f08c379a000000000000000000000000000000000000000000000000000000000815260206004820152601d60248201527f45524332303a2073616665207472616e736665722072656a65637465640000006044820152606401610961565b365f61071c7fffffffffffffffffffffffffffffffffffffffffffffffffffffffffffffffec830182848161436c565b606061069284845f85855f808673ffffffffffffffffffffffffffffffffffffffff16858760405161398b9190614393565b5f6040518083038185875af1925050503d805f81146139c5576040519150601f19603f3d011682016040523d82523d5f602084013e6139ca565b606091505b50915091506139db878383876139e6565b979650505050505050565b60608315613a7b5782515f03613a745773ffffffffffffffffffffffffffffffffffffffff85163b613a74576040517f08c379a000000000000000000000000000000000000000000000000000000000815260206004820152601d60248201527f416464726573733a2063616c6c20746f206e6f6e2d636f6e74726163740000006044820152606401610961565b5081610692565b6106928383815115613a905781518083602001fd5b806040517f08c379a00000000000000000000000000000000000000000000000000000000081526004016109619190613b77565b7fffffffff0000000000000000000000000000000000000000000000000000000081168114610a74575f80fd5b5f60208284031215613b01575f80fd5b8135610adf81613ac4565b5f5b83811015613b26578181015183820152602001613b0e565b50505f910152565b5f8151808452613b45816020860160208601613b0c565b601f017fffffffffffffffffffffffffffffffffffffffffffffffffffffffffffffffe0169290920160200192915050565b602081525f610adf6020830184613b2e565b73ffffffffffffffffffffffffffffffffffffffff81168114610a74575f80fd5b5f8060408385031215613bbb575f80fd5b8235613bc681613b89565b946020939093013593505050565b5f8083601f840112613be4575f80fd5b50813567ffffffffffffffff811115613bfb575f80fd5b6020830191508360208260051b8501011115613c15575f80fd5b9250929050565b5f805f8060408587031215613c2f575f80fd5b843567ffffffffffffffff80821115613c46575f80fd5b613c5288838901613bd4565b90965094506020870135915080821115613c6a575f80fd5b50613c7787828801613bd4565b95989497509550505050565b5f805f60608486031215613c95575f80fd5b8335613ca081613b89565b92506020840135613cb081613b89565b929592945050506040919091013590565b5f8060408385031215613cd2575f80fd5b823591506020830135613ce481613b89565b809150509250929050565b60208152816020820152818360408301375f818301604090810191909152601f9092017fffffffffffffffffffffffffffffffffffffffffffffffffffffffffffffffe0160101919050565b5f60208284031215613d4b575f80fd5b5035919050565b5f805f805f60608688031215613d66575f80fd5b8535613d7181613b89565b9450602086013567ffffffffffffffff80821115613d8d575f80fd5b613d9989838a01613bd4565b90965094506040880135915080821115613db1575f80fd5b50613dbe88828901613bd4565b969995985093965092949392505050565b5f60208284031215613ddf575f80fd5b8135610adf81613b89565b5f805f805f8060608789031215613dff575f80fd5b863567ffffffffffffffff80821115613e16575f80fd5b613e228a838b01613bd4565b90985096506020890135915080821115613e3a575f80fd5b613e468a838b01613bd4565b90965094506040890135915080821115613e5e575f80fd5b50613e6b89828a01613bd4565b979a9699509497509295939492505050565b5f8083601f840112613e8d575f80fd5b50813567ffffffffffffffff811115613ea4575f80fd5b602083019150836020828501011115613c15575f80fd5b5f805f805f60808688031215613ecf575f80fd5b8535613eda81613b89565b94506020860135613eea81613b89565b935060408601359250606086013567ffffffffffffffff811115613f0c575f80fd5b613dbe88828901613e7d565b5f805f805f805f60e0888a031215613f2e575f80fd5b8735613f3981613b89565b96506020880135613f4981613b89565b95506040880135945060608801359350608088013560ff81168114613f6c575f80fd5b9699959850939692959460a0840135945060c09093013592915050565b5f8060408385031215613f9a575f80fd5b8235613fa581613b89565b91506020830135613ce481613b89565b5f8060208385031215613fc6575f80fd5b823567ffffffffffffffff811115613fdc575f80fd5b613fe885828601613e7d565b90969095509350505050565b5f805f8060608587031215614007575f80fd5b843561401281613b89565b935060208501359250604085013567ffffffffffffffff811115614034575f80fd5b613c7787828801613e7d565b7f4e487b71000000000000000000000000000000000000000000000000000000005f52603260045260245ffd5b81810381811115610615577f4e487b71000000000000000000000000000000000000000000000000000000005f52601160045260245ffd5b600181811c908216806140b957607f821691505b6020821081036140f0577f4e487b71000000000000000000000000000000000000000000000000000000005f52602260045260245ffd5b50919050565b7f416363657373436f6e74726f6c3a206d697373696e672027000000000000000081525f825161412d816018850160208701613b0c565b7f2720726f6c6500000000000000000000000000000000000000000000000000006018939091019283015250601e01919050565b7f4e487b71000000000000000000000000000000000000000000000000000000005f52604160045260245ffd5b601f8211156106f7575f81815260208120601f850160051c810160208610156141b45750805b601f850160051c820191505b81811015610ed5578281556001016141c0565b67ffffffffffffffff8311156141eb576141eb614161565b6141ff836141f983546140a5565b8361418e565b5f601f84116001811461424f575f85156142195750838201355b7fffffffffffffffffffffffffffffffffffffffffffffffffffffffffffffffff600387901b1c1916600186901b17835561144b565b5f838152602090207fffffffffffffffffffffffffffffffffffffffffffffffffffffffffffffffe0861690835b8281101561429d578685013582556020948501946001909201910161427d565b50868210156142d8577fffffffffffffffffffffffffffffffffffffffffffffffffffffffffffffffff60f88860031b161c19848701351681555b505060018560011b0183555050505050565b5f602082840312156142fa575f80fd5b81518015158114610adf575f80fd5b5f73ffffffffffffffffffffffffffffffffffffffff8087168352808616602084015250836040830152608060608301526143476080830184613b2e565b9695505050505050565b5f60208284031215614361575f80fd5b8151610adf81613ac4565b5f808585111561437a575f80fd5b83861115614386575f80fd5b5050820193919092039150565b5f82516143a4818460208701613b0c565b919091019291505056fea26469706673582212209e94231d65793bce6e9d7fe556d0b6207681c51329e80bd5b6de7c33a8f3478b64736f6c63430008150033",
  "linkReferences": {},
  "deployedLinkReferences": {}
}