{
  "_format": "hh-sol-artifact-1",
  "contractName": "ERC20MintBurnMock",
  "sourceName": "contracts/mocks/token/ERC20/preset/ERC20MintBurnMock.sol",
  "abi": [
    {
      "inputs": [
        {
          "internalType": "string",
          "name": "tokenName",
          "type": "string"
        },
        {
          "internalType": "string",
          "name": "tokenSymbol",
          "type": "string"
        },
        {
          "internalType": "uint8",
          "name": "tokenDecimals",
          "type": "uint8"
        },
        {
          "internalType": "contract IForwarderRegistry",
          "name": "forwarderRegistry",
          "type": "address"
        }
      ],
      "stateMutability": "nonpayable",
      "type": "constructor"
    },
    {
      "anonymous": false,
      "inputs": [
        {
          "indexed": true,
          "internalType": "address",
          "name": "owner",
          "type": "address"
        },
        {
          "indexed": true,
          "internalType": "address",
          "name": "spender",
          "type": "address"
        },
        {
          "indexed": false,
          "internalType": "uint256",
          "name": "value",
          "type": "uint256"
        }
      ],
      "name": "Approval",
      "type": "event"
    },
    {
      "anonymous": false,
      "inputs": [
        {
          "indexed": true,
          "internalType": "address",
          "name": "previousOwner",
          "type": "address"
        },
        {
          "indexed": true,
          "internalType": "address",
          "name": "newOwner",
          "type": "address"
        }
      ],
      "name": "OwnershipTransferred",
      "type": "event"
    },
    {
      "anonymous": false,
      "inputs": [
        {
          "indexed": false,
          "internalType": "bytes32",
          "name": "role",
          "type": "bytes32"
        },
        {
          "indexed": false,
          "internalType": "address",
          "name": "account",
          "type": "address"
        },
        {
          "indexed": false,
          "internalType": "address",
          "name": "operator",
          "type": "address"
        }
      ],
      "name": "RoleGranted",
      "type": "event"
    },
    {
      "anonymous": false,
      "inputs": [
        {
          "indexed": false,
          "internalType": "bytes32",
          "name": "role",
          "type": "bytes32"
        },
        {
          "indexed": false,
          "internalType": "address",
          "name": "account",
          "type": "address"
        },
        {
          "indexed": false,
          "internalType": "address",
          "name": "operator",
          "type": "address"
        }
      ],
      "name": "RoleRevoked",
      "type": "event"
    },
    {
      "anonymous": false,
      "inputs": [
        {
          "indexed": true,
          "internalType": "address",
          "name": "from",
          "type": "address"
        },
        {
          "indexed": true,
          "internalType": "address",
          "name": "to",
          "type": "address"
        },
        {
          "indexed": false,
          "internalType": "uint256",
          "name": "value",
          "type": "uint256"
        }
      ],
      "name": "Transfer",
      "type": "event"
    },
    {
      "inputs": [],
      "name": "DOMAIN_SEPARATOR",
      "outputs": [
        {
          "internalType": "bytes32",
          "name": "",
          "type": "bytes32"
        }
      ],
      "stateMutability": "view",
      "type": "function"
    },
    {
      "inputs": [],
      "name": "MINTER_ROLE",
      "outputs": [
        {
          "internalType": "bytes32",
          "name": "",
          "type": "bytes32"
        }
      ],
      "stateMutability": "view",
      "type": "function"
    },
    {
      "inputs": [],
      "name": "__msgData",
      "outputs": [
        {
          "internalType": "bytes",
          "name": "",
          "type": "bytes"
        }
      ],
      "stateMutability": "view",
      "type": "function"
    },
    {
      "inputs": [
        {
          "internalType": "address",
          "name": "owner",
          "type": "address"
        },
        {
          "internalType": "address",
          "name": "spender",
          "type": "address"
        }
      ],
      "name": "allowance",
      "outputs": [
        {
          "internalType": "uint256",
          "name": "value",
          "type": "uint256"
        }
      ],
      "stateMutability": "view",
      "type": "function"
    },
    {
      "inputs": [
        {
          "internalType": "address",
          "name": "spender",
          "type": "address"
        },
        {
          "internalType": "uint256",
          "name": "value",
          "type": "uint256"
        }
      ],
      "name": "approve",
      "outputs": [
        {
          "internalType": "bool",
          "name": "result",
          "type": "bool"
        }
      ],
      "stateMutability": "nonpayable",
      "type": "function"
    },
    {
      "inputs": [
        {
          "internalType": "address",
          "name": "owner",
          "type": "address"
        }
      ],
      "name": "balanceOf",
      "outputs": [
        {
          "internalType": "uint256",
          "name": "balance",
          "type": "uint256"
        }
      ],
      "stateMutability": "view",
      "type": "function"
    },
    {
      "inputs": [
        {
          "internalType": "address[]",
          "name": "owners",
          "type": "address[]"
        },
        {
          "internalType": "uint256[]",
          "name": "values",
          "type": "uint256[]"
        }
      ],
      "name": "batchBurnFrom",
      "outputs": [
        {
          "internalType": "bool",
          "name": "",
          "type": "bool"
        }
      ],
      "stateMutability": "nonpayable",
      "type": "function"
    },
    {
      "inputs": [
        {
          "internalType": "address[]",
          "name": "recipients",
          "type": "address[]"
        },
        {
          "internalType": "uint256[]",
          "name": "values",
          "type": "uint256[]"
        }
      ],
      "name": "batchMint",
      "outputs": [],
      "stateMutability": "nonpayable",
      "type": "function"
    },
    {
      "inputs": [
        {
          "internalType": "address[]",
          "name": "recipients",
          "type": "address[]"
        },
        {
          "internalType": "uint256[]",
          "name": "values",
          "type": "uint256[]"
        }
      ],
      "name": "batchTransfer",
      "outputs": [
        {
          "internalType": "bool",
          "name": "",
          "type": "bool"
        }
      ],
      "stateMutability": "nonpayable",
      "type": "function"
    },
    {
      "inputs": [
        {
          "internalType": "address",
          "name": "from",
          "type": "address"
        },
        {
          "internalType": "address[]",
          "name": "recipients",
          "type": "address[]"
        },
        {
          "internalType": "uint256[]",
          "name": "values",
          "type": "uint256[]"
        }
      ],
      "name": "batchTransferFrom",
      "outputs": [
        {
          "internalType": "bool",
          "name": "",
          "type": "bool"
        }
      ],
      "stateMutability": "nonpayable",
      "type": "function"
    },
    {
      "inputs": [
        {
          "internalType": "uint256",
          "name": "value",
          "type": "uint256"
        }
      ],
      "name": "burn",
      "outputs": [
        {
          "internalType": "bool",
          "name": "",
          "type": "bool"
        }
      ],
      "stateMutability": "nonpayable",
      "type": "function"
    },
    {
      "inputs": [
        {
          "internalType": "address",
          "name": "from",
          "type": "address"
        },
        {
          "internalType": "uint256",
          "name": "value",
          "type": "uint256"
        }
      ],
      "name": "burnFrom",
      "outputs": [
        {
          "internalType": "bool",
          "name": "",
          "type": "bool"
        }
      ],
      "stateMutability": "nonpayable",
      "type": "function"
    },
    {
      "inputs": [],
      "name": "decimals",
      "outputs": [
        {
          "internalType": "uint8",
          "name": "",
          "type": "uint8"
        }
      ],
      "stateMutability": "view",
      "type": "function"
    },
    {
      "inputs": [
        {
          "internalType": "address",
          "name": "spender",
          "type": "address"
        },
        {
          "internalType": "uint256",
          "name": "subtractedValue",
          "type": "uint256"
        }
      ],
      "name": "decreaseAllowance",
      "outputs": [
        {
          "internalType": "bool",
          "name": "result",
          "type": "bool"
        }
      ],
      "stateMutability": "nonpayable",
      "type": "function"
    },
    {
      "inputs": [],
      "name": "forwarderRegistry",
      "outputs": [
        {
          "internalType": "contract IForwarderRegistry",
          "name": "",
          "type": "address"
        }
      ],
      "stateMutability": "view",
      "type": "function"
    },
    {
      "inputs": [
        {
          "internalType": "bytes32",
          "name": "role",
          "type": "bytes32"
        },
        {
          "internalType": "address",
          "name": "account",
          "type": "address"
        }
      ],
      "name": "grantRole",
      "outputs": [],
      "stateMutability": "nonpayable",
      "type": "function"
    },
    {
      "inputs": [
        {
          "internalType": "bytes32",
          "name": "role",
          "type": "bytes32"
        },
        {
          "internalType": "address",
          "name": "account",
          "type": "address"
        }
      ],
      "name": "hasRole",
      "outputs": [
        {
          "internalType": "bool",
          "name": "",
          "type": "bool"
        }
      ],
      "stateMutability": "view",
      "type": "function"
    },
    {
      "inputs": [
        {
          "internalType": "address",
          "name": "spender",
          "type": "address"
        },
        {
          "internalType": "uint256",
          "name": "addedValue",
          "type": "uint256"
        }
      ],
      "name": "increaseAllowance",
      "outputs": [
        {
          "internalType": "bool",
          "name": "result",
          "type": "bool"
        }
      ],
      "stateMutability": "nonpayable",
      "type": "function"
    },
    {
      "inputs": [
        {
          "internalType": "address",
          "name": "forwarder",
          "type": "address"
        }
      ],
      "name": "isTrustedForwarder",
      "outputs": [
        {
          "internalType": "bool",
          "name": "",
          "type": "bool"
        }
      ],
      "stateMutability": "view",
      "type": "function"
    },
    {
      "inputs": [
        {
          "internalType": "address",
          "name": "to",
          "type": "address"
        },
        {
          "internalType": "uint256",
          "name": "value",
          "type": "uint256"
        }
      ],
      "name": "mint",
      "outputs": [],
      "stateMutability": "nonpayable",
      "type": "function"
    },
    {
      "inputs": [],
      "name": "name",
      "outputs": [
        {
          "internalType": "string",
          "name": "",
          "type": "string"
        }
      ],
      "stateMutability": "view",
      "type": "function"
    },
    {
      "inputs": [
        {
          "internalType": "address",
          "name": "owner",
          "type": "address"
        }
      ],
      "name": "nonces",
      "outputs": [
        {
          "internalType": "uint256",
          "name": "",
          "type": "uint256"
        }
      ],
      "stateMutability": "view",
      "type": "function"
    },
    {
      "inputs": [],
      "name": "owner",
      "outputs": [
        {
          "internalType": "address",
          "name": "",
          "type": "address"
        }
      ],
      "stateMutability": "view",
      "type": "function"
    },
    {
      "inputs": [
        {
          "internalType": "address",
          "name": "owner",
          "type": "address"
        },
        {
          "internalType": "address",
          "name": "spender",
          "type": "address"
        },
        {
          "internalType": "uint256",
          "name": "value",
          "type": "uint256"
        },
        {
          "internalType": "uint256",
          "name": "deadline",
          "type": "uint256"
        },
        {
          "internalType": "uint8",
          "name": "v",
          "type": "uint8"
        },
        {
          "internalType": "bytes32",
          "name": "r",
          "type": "bytes32"
        },
        {
          "internalType": "bytes32",
          "name": "s",
          "type": "bytes32"
        }
      ],
      "name": "permit",
      "outputs": [],
      "stateMutability": "nonpayable",
      "type": "function"
    },
    {
      "inputs": [
        {
          "internalType": "address[]",
          "name": "accounts",
          "type": "address[]"
        },
        {
          "internalType": "contract IERC20[]",
          "name": "tokens",
          "type": "address[]"
        },
        {
          "internalType": "uint256[]",
          "name": "amounts",
          "type": "uint256[]"
        }
      ],
      "name": "recoverERC20s",
      "outputs": [],
      "stateMutability": "nonpayable",
      "type": "function"
    },
    {
      "inputs": [
        {
          "internalType": "address[]",
          "name": "accounts",
          "type": "address[]"
        },
        {
          "internalType": "contract IERC721[]",
          "name": "contracts",
          "type": "address[]"
        },
        {
          "internalType": "uint256[]",
          "name": "tokenIds",
          "type": "uint256[]"
        }
      ],
      "name": "recoverERC721s",
      "outputs": [],
      "stateMutability": "nonpayable",
      "type": "function"
    },
    {
      "inputs": [
        {
          "internalType": "address payable[]",
          "name": "accounts",
          "type": "address[]"
        },
        {
          "internalType": "uint256[]",
          "name": "amounts",
          "type": "uint256[]"
        }
      ],
      "name": "recoverETH",
      "outputs": [],
      "stateMutability": "nonpayable",
      "type": "function"
    },
    {
      "inputs": [
        {
          "internalType": "bytes32",
          "name": "role",
          "type": "bytes32"
        }
      ],
      "name": "renounceRole",
      "outputs": [],
      "stateMutability": "nonpayable",
      "type": "function"
    },
    {
      "inputs": [
        {
          "internalType": "bytes32",
          "name": "role",
          "type": "bytes32"
        },
        {
          "internalType": "address",
          "name": "account",
          "type": "address"
        }
      ],
      "name": "revokeRole",
      "outputs": [],
      "stateMutability": "nonpayable",
      "type": "function"
    },
    {
      "inputs": [
        {
          "internalType": "address",
          "name": "to",
          "type": "address"
        },
        {
          "internalType": "uint256",
          "name": "value",
          "type": "uint256"
        },
        {
          "internalType": "bytes",
          "name": "data",
          "type": "bytes"
        }
      ],
      "name": "safeTransfer",
      "outputs": [
        {
          "internalType": "bool",
          "name": "",
          "type": "bool"
        }
      ],
      "stateMutability": "nonpayable",
      "type": "function"
    },
    {
      "inputs": [
        {
          "internalType": "address",
          "name": "from",
          "type": "address"
        },
        {
          "internalType": "address",
          "name": "to",
          "type": "address"
        },
        {
          "internalType": "uint256",
          "name": "value",
          "type": "uint256"
        },
        {
          "internalType": "bytes",
          "name": "data",
          "type": "bytes"
        }
      ],
      "name": "safeTransferFrom",
      "outputs": [
        {
          "internalType": "bool",
          "name": "",
          "type": "bool"
        }
      ],
      "stateMutability": "nonpayable",
      "type": "function"
    },
    {
      "inputs": [
        {
          "internalType": "string",
          "name": "uri",
          "type": "string"
        }
      ],
      "name": "setTokenURI",
      "outputs": [],
      "stateMutability": "nonpayable",
      "type": "function"
    },
    {
      "inputs": [
        {
          "internalType": "bytes4",
          "name": "interfaceId",
          "type": "bytes4"
        }
      ],
      "name": "supportsInterface",
      "outputs": [
        {
          "internalType": "bool",
          "name": "",
          "type": "bool"
        }
      ],
      "stateMutability": "view",
      "type": "function"
    },
    {
      "inputs": [],
      "name": "symbol",
      "outputs": [
        {
          "internalType": "string",
          "name": "",
          "type": "string"
        }
      ],
      "stateMutability": "view",
      "type": "function"
    },
    {
      "inputs": [],
      "name": "tokenURI",
      "outputs": [
        {
          "internalType": "string",
          "name": "",
          "type": "string"
        }
      ],
      "stateMutability": "view",
      "type": "function"
    },
    {
      "inputs": [],
      "name": "totalSupply",
      "outputs": [
        {
          "internalType": "uint256",
          "name": "supply",
          "type": "uint256"
        }
      ],
      "stateMutability": "view",
      "type": "function"
    },
    {
      "inputs": [
        {
          "internalType": "address",
          "name": "to",
          "type": "address"
        },
        {
          "internalType": "uint256",
          "name": "value",
          "type": "uint256"
        }
      ],
      "name": "transfer",
      "outputs": [
        {
          "internalType": "bool",
          "name": "result",
          "type": "bool"
        }
      ],
      "stateMutability": "nonpayable",
      "type": "function"
    },
    {
      "inputs": [
        {
          "internalType": "address",
          "name": "from",
          "type": "address"
        },
        {
          "internalType": "address",
          "name": "to",
          "type": "address"
        },
        {
          "internalType": "uint256",
          "name": "value",
          "type": "uint256"
        }
      ],
      "name": "transferFrom",
      "outputs": [
        {
          "internalType": "bool",
          "name": "result",
          "type": "bool"
        }
      ],
      "stateMutability": "nonpayable",
      "type": "function"
    },
    {
      "inputs": [
        {
          "internalType": "address",
          "name": "newOwner",
          "type": "address"
        }
      ],
      "name": "transferOwnership",
      "outputs": [],
      "stateMutability": "nonpayable",
      "type": "function"
    }
  ],
  "bytecode": "0x60a06040523480156200001157600080fd5b5060405162004b9038038062004b90833981016040819052620000349162000456565b8383838380803386868662000048620000da565b620000628383836200005962000115565b9291906200014b565b50505062000081816200007a620001a160201b60201c565b90620001d1565b506200008c62000244565b620000966200025e565b620000a062000276565b620000aa6200028e565b620000b4620002a6565b620000be620002be565b6001600160a01b03166080525062000677975050505050505050565b6000620000e6620002d1565b9050620000fd816336372b0760e01b600162000301565b6200011281634e83a8c360e11b600162000301565b50565b6000806200014560017f335df4119bbb04f056b33eba33b826d3529129e458faf6daa9924b5a8f3b6a82620004fa565b92915050565b83620001588482620005ab565b5060018401620001698382620005ab565b5060028401805460ff191660ff83161790556200019b63a219a02560e01b600162000193620002d1565b919062000301565b50505050565b6000806200014560017fc9ed16f33ab3a66c84bfd83099ccb2a8845871e2e1c1928f63797152f0fd54cd620004fa565b6001600160a01b03811615620002285781546001600160a01b0319166001600160a01b03821690811783556040516000907f8be0079c531659141344cd1fd0a4f28419497f9722a3daafe3b4186f6b6457e0908290a35b620002406307f5828d60e41b600162000193620002d1565b5050565b6200025c6303c130d960e41b600162000193620002d1565b565b6200025c634ec7fbed60e11b600162000193620002d1565b6200025c6353f41a9760e01b600162000193620002d1565b6200025c63602993f360e11b600162000193620002d1565b6200025c63144b1f0f60e11b600162000193620002d1565b6200025c6320c07ed160e01b6001620001935b6000806200014560017fca9d3e17f264b0f3984e2634e94adb37fa3e6a8103f06aeae6fa59e21c769f5e620004fa565b600160e01b6001600160e01b0319831601620003635760405162461bcd60e51b815260206004820152601f60248201527f496e74657266616365446574656374696f6e3a2077726f6e672076616c756500604482015260640160405180910390fd5b6001600160e01b03199190911660009081526020929092526040909120805460ff1916911515919091179055565b634e487b7160e01b600052604160045260246000fd5b600082601f830112620003b957600080fd5b81516001600160401b0380821115620003d657620003d662000391565b604051601f8301601f19908116603f0116810190828211818310171562000401576200040162000391565b816040528381526020925086838588010111156200041e57600080fd5b600091505b8382101562000442578582018301518183018401529082019062000423565b600093810190920192909252949350505050565b600080600080608085870312156200046d57600080fd5b84516001600160401b03808211156200048557600080fd5b6200049388838901620003a7565b95506020870151915080821115620004aa57600080fd5b50620004b987828801620003a7565b935050604085015160ff81168114620004d157600080fd5b60608601519092506001600160a01b0381168114620004ef57600080fd5b939692955090935050565b818103818111156200014557634e487b7160e01b600052601160045260246000fd5b600181811c908216806200053157607f821691505b6020821081036200055257634e487b7160e01b600052602260045260246000fd5b50919050565b601f821115620005a657600081815260208120601f850160051c81016020861015620005815750805b601f850160051c820191505b81811015620005a2578281556001016200058d565b5050505b505050565b81516001600160401b03811115620005c757620005c762000391565b620005df81620005d884546200051c565b8462000558565b602080601f831160018114620006175760008415620005fe5750858301515b600019600386901b1c1916600185901b178555620005a2565b600085815260208120601f198616915b82811015620006485788860151825594840194600190910190840162000627565b5085821015620006675787850151600019600388901b60f8161c191681555b5050505050600190811b01905550565b6080516144da620006b660003960008181610340015281816104360152818161338a01528181613412015281816134c5015261350301526144da6000f3fe608060405234801561001057600080fd5b50600436106102ad5760003560e01c806373c8a9581161017b578063b88d4fde116100d8578063dd62ed3e1161008c578063eb79554911610071578063eb795549146105da578063f2fde38b146105ed578063f7ba94bd1461060057600080fd5b8063dd62ed3e146105b4578063e0df5b6f146105c757600080fd5b8063d505accf116100bd578063d505accf14610567578063d53913931461057a578063d547741f146105a157600080fd5b8063b88d4fde14610541578063c3666c361461055457600080fd5b80638da5cb5b1161012f57806395d89b411161011457806395d89b4114610513578063a457c2d71461051b578063a9059cbb1461052e57600080fd5b80638da5cb5b146104f857806391d148541461050057600080fd5b80637ecebe00116101605780637ecebe00146104bf57806388d695b2146104d25780638bb9c5bf146104e557600080fd5b806373c8a9581461049957806379cc6790146104ac57600080fd5b806331e66e1e1161022957806342966c68116101dd578063572b6c05116101c2578063572b6c0514610426578063685731071461047357806370a082311461048657600080fd5b806342966c68146104005780634885b2541461041357600080fd5b8063395093511161020e57806339509351146103d25780633c130d90146103e557806340c10f19146103ed57600080fd5b806331e66e1e146103b45780633644e515146103ca57600080fd5b80631b9a7529116102805780632b4c9f16116102655780632b4c9f161461033e5780632f2ff15d14610385578063313ce5671461039a57600080fd5b80631b9a75291461031857806323b872dd1461032b57600080fd5b806301ffc9a7146102b257806306fdde03146102da578063095ea7b3146102ef57806318160ddd14610302575b600080fd5b6102c56102c0366004613b8f565b610613565b60405190151581526020015b60405180910390f35b6102e261062d565b6040516102d19190613c1a565b6102c56102fd366004613c4f565b610644565b61030a61066c565b6040519081526020016102d1565b6102c5610326366004613cc7565b610680565b6102c5610339366004613d33565b6106af565b7f00000000000000000000000000000000000000000000000000000000000000005b60405173ffffffffffffffffffffffffffffffffffffffff90911681526020016102d1565b610398610393366004613d74565b6106da565b005b6103a2610713565b60405160ff90911681526020016102d1565b6103bc61072a565b6040516102d1929190613da4565b61030a61073d565b6102c56103e0366004613c4f565b610747565b6102e2610766565b6103986103fb366004613c4f565b610773565b6102c561040e366004613df1565b6107c6565b6102c5610421366004613e0a565b6107eb565b6102c5610434366004613e8d565b7f000000000000000000000000000000000000000000000000000000000000000073ffffffffffffffffffffffffffffffffffffffff90811691161490565b610398610481366004613cc7565b61081c565b61030a610494366004613e8d565b6108c6565b6103986104a7366004613eaa565b6108fe565b6102c56104ba366004613c4f565b610a2e565b61030a6104cd366004613e8d565b610a4d565b6102c56104e0366004613cc7565b610a5b565b6103986104f3366004613df1565b610a7e565b610360610a9c565b6102c561050e366004613d74565b610ac3565b6102e2610b0e565b6102c5610529366004613c4f565b610b20565b6102c561053c366004613c4f565b610b3f565b6102c561054f366004613f86565b610b5e565b610398610562366004613eaa565b610b83565b610398610575366004613fe8565b610d28565b61030a7f6d696e746572000000000000000000000000000000000000000000000000000081565b6103986105af366004613d74565b610d4f565b61030a6105c236600461405f565b610d7d565b6103986105d536600461408d565b610dc8565b6102c56105e83660046140cf565b610de7565b6103986105fb366004613e8d565b610e0a565b61039861060e366004613cc7565b610e25565b600061062782610621610f13565b90610f41565b92915050565b606061063f61063a61101b565b611049565b905090565b60006106636106516110df565b848461065b6110e9565b929190611117565b50600192915050565b600061063f6106796110e9565b6002015490565b60006106a361068d6110df565b868686866106996110e9565b9493929190611206565b5060015b949350505050565b60006106d06106bc6110df565b8585856106c76110e9565b93929190611448565b5060019392505050565b60006106e46110df565b90506106f8816106f261149a565b906114c8565b61070e83838361070661154b565b929190611579565b505050565b600061063f61072061101b565b6002015460ff1690565b36600061073561164f565b915091509091565b600061063f61165a565b60006106636107546110df565b848461075e6110e9565b9291906116f5565b606061063f61063a6118c1565b6107ae7f6d696e746572000000000000000000000000000000000000000000000000000061079f6110df565b6107a761154b565b91906118ef565b6107c282826107bb6110e9565b919061199b565b5050565b60006107e36107d36110df565b836107dc6110e9565b9190611b15565b506001919050565b60006108106107f86110df565b87878787876108056110e9565b959493929190611c2b565b50600195945050505050565b6108487f6d696e746572000000000000000000000000000000000000000000000000000061079f6110df565b6108c0848480806020026020016040519081016040528093929190818152602001838360200280828437600092019190915250506040805160208088028281018201909352878252909350879250869182918501908490808284376000920191909152506108b992506110e9915050565b9190612071565b50505050565b6000610627826108d46110e9565b9073ffffffffffffffffffffffffffffffffffffffff166000908152602091909152604090205490565b6109116109096110df565b6106f261149a565b84838114801561092057508082145b61098b576040517f08c379a000000000000000000000000000000000000000000000000000000000815260206004820152601d60248201527f5265636f766572793a20696e636f6e73697374656e742061727261797300000060448201526064015b60405180910390fd5b60005b818114610a2457610a1c8888838181106109aa576109aa61411f565b90506020020160208101906109bf9190613e8d565b8585848181106109d1576109d161411f565b905060200201358888858181106109ea576109ea61411f565b90506020020160208101906109ff9190613e8d565b73ffffffffffffffffffffffffffffffffffffffff169190612347565b60010161098e565b5050505050505050565b6000610663610a3b6110df565b8484610a456110e9565b9291906123d4565b6000610627826108d461241e565b60006106a3610a686110df565b86868686610a746110e9565b949392919061244c565b610a99610a896110df565b82610a9261154b565b919061282e565b50565b600061063f610aa961149a565b5473ffffffffffffffffffffffffffffffffffffffff1690565b6000610b078383610ad261154b565b60009283526020908152604080842073ffffffffffffffffffffffffffffffffffffffff909316845291905290205460ff1690565b9392505050565b606061063f610b1b61101b565b6128d2565b6000610663610b2d6110df565b8484610b376110e9565b9291906128e3565b6000610663610b4c6110df565b8484610b566110e9565b929190612a35565b6000610810610b6b6110df565b8787878787610b786110e9565b959493929190612c16565b610b8e6109096110df565b848381148015610b9d57508082145b610c03576040517f08c379a000000000000000000000000000000000000000000000000000000000815260206004820152601d60248201527f5265636f766572793a20696e636f6e73697374656e74206172726179730000006044820152606401610982565b60005b818114610a2457858582818110610c1f57610c1f61411f565b9050602002016020810190610c349190613e8d565b73ffffffffffffffffffffffffffffffffffffffff166323b872dd308a8a85818110610c6257610c6261411f565b9050602002016020810190610c779190613e8d565b878786818110610c8957610c8961411f565b6040517fffffffff0000000000000000000000000000000000000000000000000000000060e088901b16815273ffffffffffffffffffffffffffffffffffffffff958616600482015294909316602485015250602090910201356044820152606401600060405180830381600087803b158015610d0557600080fd5b505af1158015610d19573d6000803e3d6000fd5b50505050806001019050610c06565b610d4687878787878787610d3a61241e565b96959493929190612c83565b50505050505050565b6000610d596110df565b9050610d67816106f261149a565b61070e838383610d7561154b565b929190612f7f565b6000610b078383610d8c6110e9565b919073ffffffffffffffffffffffffffffffffffffffff9182166000908152600193909301602090815260408085209290931684525290205490565b610dd36109096110df565b6107c28282610de06118c1565b9190613049565b60006106a3610df46110df565b86868686610e006110e9565b9493929190613055565b610a99610e156110df565b82610e1e61149a565b91906130c1565b610e306109096110df565b82818114610e9a576040517f08c379a000000000000000000000000000000000000000000000000000000000815260206004820152601d60248201527f5265636f766572793a20696e636f6e73697374656e74206172726179730000006044820152606401610982565b60005b818114610f0b57610f03848483818110610eb957610eb961411f565b90506020020135878784818110610ed257610ed261411f565b9050602002016020810190610ee79190613e8d565b73ffffffffffffffffffffffffffffffffffffffff16906131ed565b600101610e9d565b505050505050565b60008061062760017fca9d3e17f264b0f3984e2634e94adb37fa3e6a8103f06aeae6fa59e21c769f5e61414e565b60007c01000000000000000000000000000000000000000000000000000000007fffffffff00000000000000000000000000000000000000000000000000000000831601610f9157506000610627565b7ffe003659000000000000000000000000000000000000000000000000000000007fffffffff00000000000000000000000000000000000000000000000000000000831601610fe257506001610627565b507fffffffff00000000000000000000000000000000000000000000000000000000166000908152602091909152604090205460ff1690565b60008061062760017f335df4119bbb04f056b33eba33b826d3529129e458faf6daa9924b5a8f3b6a8261414e565b606081600001805461105a90614188565b80601f016020809104026020016040519081016040528092919081815260200182805461108690614188565b80156110d35780601f106110a8576101008083540402835291602001916110d3565b820191906000526020600020905b8154815290600101906020018083116110b657829003601f168201915b50505050509050919050565b600061063f613347565b60008061062760017f1da92899d3da68bf9787824388a37ea2bfa79780bcef91b9716c390eec8ecbef61414e565b73ffffffffffffffffffffffffffffffffffffffff8216611194576040517f08c379a000000000000000000000000000000000000000000000000000000000815260206004820152601d60248201527f45524332303a20617070726f76616c20746f20616464726573732830290000006044820152606401610982565b73ffffffffffffffffffffffffffffffffffffffff838116600081815260018701602090815260408083209487168084529482529182902085905590518481527f8c5be1e5ebec7d5bd14f71427d1e84f3dd0314c0f7b2291e5b200ac8c7c3b92591015b60405180910390a350505050565b82818114611270576040517f08c379a000000000000000000000000000000000000000000000000000000000815260206004820152601a60248201527f45524332303a20696e636f6e73697374656e74206172726179730000000000006044820152606401610982565b8060000361127e5750610f0b565b6000805b82811461142c57600087878381811061129d5761129d61411f565b90506020020160208101906112b29190613e8d565b905060008686848181106112c8576112c861411f565b9050602002013590508973ffffffffffffffffffffffffffffffffffffffff168273ffffffffffffffffffffffffffffffffffffffff1614611310576113108b838c846128e3565b80156113d45773ffffffffffffffffffffffffffffffffffffffff8216600090815260208c905260409020548181038181106113a8576040517f08c379a000000000000000000000000000000000000000000000000000000000815260206004820152601b60248201527f45524332303a20696e73756666696369656e742062616c616e636500000000006044820152606401610982565b73ffffffffffffffffffffffffffffffffffffffff8416600090815260208e9052604090205550928301925b60405181815260009073ffffffffffffffffffffffffffffffffffffffff8416907fddf252ad1be2c89b69c2b068fc378daa952ba7f163c4a11628f55a4df523b3ef9060200160405180910390a35050600101611282565b508015610a245760028801805482900390555050505050505050565b8373ffffffffffffffffffffffffffffffffffffffff168373ffffffffffffffffffffffffffffffffffffffff161461148757611487858486846128e3565b61149385848484612a35565b5050505050565b60008061062760017fc9ed16f33ab3a66c84bfd83099ccb2a8845871e2e1c1928f63797152f0fd54cd61414e565b815473ffffffffffffffffffffffffffffffffffffffff8281169116146107c2576040517f08c379a000000000000000000000000000000000000000000000000000000000815260206004820152601860248201527f4f776e6572736869703a206e6f7420746865206f776e657200000000000000006044820152606401610982565b60008061062760017fc8827d3282af6f37b64c3e9e6f3ac9df286ab0bb0fccd6f8661bf19adb368b2361414e565b60008381526020858152604080832073ffffffffffffffffffffffffffffffffffffffff8616845290915290205460ff166108c05760008381526020858152604080832073ffffffffffffffffffffffffffffffffffffffff8681168086529184529382902080547fffffffffffffffffffffffffffffffffffffffffffffffffffffffffffffff00166001179055815187815292830152918316918101919091527f2f8788117e7eff1d82e926ec794901d17c78024a50270940304540a733656f0d906060015b60405180910390a150505050565b36600061073561348e565b6000467f8b73c3c69bb8fe3d512ecc4cf759cc79239f7b179b0ffacaa9a75d522b39400f61168961063a61101b565b80516020918201206040805192830193909352918101919091527fc89efdaa54c0f20c7adf612882df0950f5a951637e0307cdcb4c672f298b8bc66060820152608081018290523060a082015260c0016040516020818303038152906040528051906020012091505090565b73ffffffffffffffffffffffffffffffffffffffff8216611772576040517f08c379a000000000000000000000000000000000000000000000000000000000815260206004820152601d60248201527f45524332303a20617070726f76616c20746f20616464726573732830290000006044820152606401610982565b73ffffffffffffffffffffffffffffffffffffffff8084166000908152600186016020908152604080832093861683529290522054811561185357808201818111611819576040517f08c379a000000000000000000000000000000000000000000000000000000000815260206004820152601960248201527f45524332303a20616c6c6f77616e6365206f766572666c6f77000000000000006044820152606401610982565b73ffffffffffffffffffffffffffffffffffffffff8086166000908152600188016020908152604080832093881683529290522081905590505b8273ffffffffffffffffffffffffffffffffffffffff168473ffffffffffffffffffffffffffffffffffffffff167f8c5be1e5ebec7d5bd14f71427d1e84f3dd0314c0f7b2291e5b200ac8c7c3b925836040516118b291815260200190565b60405180910390a35050505050565b60008061062760017ff41bf6a5db26bffdfab174dcf66b31fbba8fdb7e3db040721ce1e62d61839ceb61414e565b60008281526020848152604080832073ffffffffffffffffffffffffffffffffffffffff8516845290915290205460ff1661070e5761192d826135f8565b60405160200161193d91906141db565b604080517fffffffffffffffffffffffffffffffffffffffffffffffffffffffffffffffe0818403018152908290527f08c379a000000000000000000000000000000000000000000000000000000000825261098291600401613c1a565b73ffffffffffffffffffffffffffffffffffffffff8216611a18576040517f08c379a000000000000000000000000000000000000000000000000000000000815260206004820152601960248201527f45524332303a206d696e7420746f2061646472657373283029000000000000006044820152606401610982565b8015611ac1576002830154818101818111611a8f576040517f08c379a000000000000000000000000000000000000000000000000000000000815260206004820152601660248201527f45524332303a20737570706c79206f766572666c6f77000000000000000000006044820152606401610982565b60028501555073ffffffffffffffffffffffffffffffffffffffff821660009081526020849052604090208054820190555b60405181815273ffffffffffffffffffffffffffffffffffffffff8316906000907fddf252ad1be2c89b69c2b068fc378daa952ba7f163c4a11628f55a4df523b3ef906020015b60405180910390a3505050565b8015611be05773ffffffffffffffffffffffffffffffffffffffff8216600090815260208490526040902054818103818110611bad576040517f08c379a000000000000000000000000000000000000000000000000000000000815260206004820152601b60248201527f45524332303a20696e73756666696369656e742062616c616e636500000000006044820152606401610982565b73ffffffffffffffffffffffffffffffffffffffff84166000908152602086905260409020555060028301805482900390555b60405181815260009073ffffffffffffffffffffffffffffffffffffffff8416907fddf252ad1be2c89b69c2b068fc378daa952ba7f163c4a11628f55a4df523b3ef90602001611b08565b82818114611c95576040517f08c379a000000000000000000000000000000000000000000000000000000000815260206004820152601a60248201527f45524332303a20696e636f6e73697374656e74206172726179730000000000006044820152606401610982565b80600003611ca35750610d46565b73ffffffffffffffffffffffffffffffffffffffff86166000908152602089905260408120549080805b848114611f79576000898983818110611ce857611ce861411f565b9050602002016020810190611cfd9190613e8d565b905073ffffffffffffffffffffffffffffffffffffffff8116611d7c576040517f08c379a000000000000000000000000000000000000000000000000000000000815260206004820152601d60248201527f45524332303a207472616e7366657220746f20616464726573732830290000006044820152606401610982565b6000888884818110611d9057611d9061411f565b90506020020135905080600014611f0857848101858111611e0d576040517f08c379a000000000000000000000000000000000000000000000000000000000815260206004820152601660248201527f45524332303a2076616c756573206f766572666c6f77000000000000000000006044820152606401610982565b8095508273ffffffffffffffffffffffffffffffffffffffff168d73ffffffffffffffffffffffffffffffffffffffff1614611e9757818f60000160008573ffffffffffffffffffffffffffffffffffffffff1673ffffffffffffffffffffffffffffffffffffffff16815260200190815260200160002060008282540192505081905550611f06565b86821115611f01576040517f08c379a000000000000000000000000000000000000000000000000000000000815260206004820152601b60248201527f45524332303a20696e73756666696369656e742062616c616e636500000000006044820152606401610982565b938101935b505b8173ffffffffffffffffffffffffffffffffffffffff168c73ffffffffffffffffffffffffffffffffffffffff167fddf252ad1be2c89b69c2b068fc378daa952ba7f163c4a11628f55a4df523b3ef83604051611f6791815260200190565b60405180910390a35050600101611ccd565b508115801590611f895750808214155b1561202557818303838110611ffa576040517f08c379a000000000000000000000000000000000000000000000000000000000815260206004820152601b60248201527f45524332303a20696e73756666696369656e742062616c616e636500000000006044820152606401610982565b73ffffffffffffffffffffffffffffffffffffffff8a16600090815260208d90526040902090820190555b8973ffffffffffffffffffffffffffffffffffffffff168973ffffffffffffffffffffffffffffffffffffffff1614612064576120648b8a8c856128e3565b5050505050505050505050565b8151815181146120dd576040517f08c379a000000000000000000000000000000000000000000000000000000000815260206004820152601a60248201527f45524332303a20696e636f6e73697374656e74206172726179730000000000006044820152606401610982565b806000036120eb5750505050565b6000805b8281146122c257600085828151811061210a5761210a61411f565b60200260200101519050600073ffffffffffffffffffffffffffffffffffffffff168173ffffffffffffffffffffffffffffffffffffffff16036121aa576040517f08c379a000000000000000000000000000000000000000000000000000000000815260206004820152601960248201527f45524332303a206d696e7420746f2061646472657373283029000000000000006044820152606401610982565b60008583815181106121be576121be61411f565b602002602001015190508060001461226a5783810184811161223c576040517f08c379a000000000000000000000000000000000000000000000000000000000815260206004820152601660248201527f45524332303a2076616c756573206f766572666c6f77000000000000000000006044820152606401610982565b73ffffffffffffffffffffffffffffffffffffffff8316600090815260208a90526040902080548301905593505b60405181815273ffffffffffffffffffffffffffffffffffffffff8316906000907fddf252ad1be2c89b69c2b068fc378daa952ba7f163c4a11628f55a4df523b3ef9060200160405180910390a350506001016120ef565b50801561149357600285015481810181811161233a576040517f08c379a000000000000000000000000000000000000000000000000000000000815260206004820152601660248201527f45524332303a20737570706c79206f766572666c6f77000000000000000000006044820152606401610982565b6002870155505050505050565b6040805173ffffffffffffffffffffffffffffffffffffffff8416602482015260448082018490528251808303909101815260649091019091526020810180517bffffffffffffffffffffffffffffffffffffffffffffffffffffffff167fa9059cbb0000000000000000000000000000000000000000000000000000000017905261070e90849061378a565b8273ffffffffffffffffffffffffffffffffffffffff168273ffffffffffffffffffffffffffffffffffffffff161461241357612413848385846128e3565b6108c0848383611b15565b60008061062760017f93fe0ff7226b064a4a8f0b09910762afb4bc2441835792c021ffd78cd513011e61414e565b828181146124b6576040517f08c379a000000000000000000000000000000000000000000000000000000000815260206004820152601a60248201527f45524332303a20696e636f6e73697374656e74206172726179730000000000006044820152606401610982565b806000036124c45750610f0b565b73ffffffffffffffffffffffffffffffffffffffff86166000908152602088905260408120549080805b8481146127765760008989838181106125095761250961411f565b905060200201602081019061251e9190613e8d565b905073ffffffffffffffffffffffffffffffffffffffff811661259d576040517f08c379a000000000000000000000000000000000000000000000000000000000815260206004820152601d60248201527f45524332303a207472616e7366657220746f20616464726573732830290000006044820152606401610982565b60008888848181106125b1576125b161411f565b905060200201359050806000146127055784810185811161262e576040517f08c379a000000000000000000000000000000000000000000000000000000000815260206004820152601660248201527f45524332303a2076616c756573206f766572666c6f77000000000000000000006044820152606401610982565b8095508273ffffffffffffffffffffffffffffffffffffffff168d73ffffffffffffffffffffffffffffffffffffffff16146126945773ffffffffffffffffffffffffffffffffffffffff8316600090815260208f905260409020805483019055612703565b868211156126fe576040517f08c379a000000000000000000000000000000000000000000000000000000000815260206004820152601b60248201527f45524332303a20696e73756666696369656e742062616c616e636500000000006044820152606401610982565b938101935b505b8173ffffffffffffffffffffffffffffffffffffffff168c73ffffffffffffffffffffffffffffffffffffffff167fddf252ad1be2c89b69c2b068fc378daa952ba7f163c4a11628f55a4df523b3ef8360405161276491815260200190565b60405180910390a350506001016124ee565b5081158015906127865750808214155b15612822578183038381106127f7576040517f08c379a000000000000000000000000000000000000000000000000000000000815260206004820152601b60248201527f45524332303a20696e73756666696369656e742062616c616e636500000000006044820152606401610982565b73ffffffffffffffffffffffffffffffffffffffff8a16600090815260208c90526040902090820190555b50505050505050505050565b6128398382846118ef565b60008181526020848152604080832073ffffffffffffffffffffffffffffffffffffffff86168085529083529281902080547fffffffffffffffffffffffffffffffffffffffffffffffffffffffffffffff0016905580518481529182018390528101919091527ff6391f5c32d9c69d2a47ea670b442974b53935d1edc7fd64eb21e047a839171b9060600160405180910390a1505050565b606081600101805461105a90614188565b73ffffffffffffffffffffffffffffffffffffffff8216612960576040517f08c379a000000000000000000000000000000000000000000000000000000000815260206004820152601d60248201527f45524332303a20617070726f76616c20746f20616464726573732830290000006044820152606401610982565b73ffffffffffffffffffffffffffffffffffffffff80841660009081526001860160209081526040808320938616835292905220547fffffffffffffffffffffffffffffffffffffffffffffffffffffffffffffffff81148015906129c457508115155b1561185357818103818110611819576040517f08c379a000000000000000000000000000000000000000000000000000000000815260206004820152601d60248201527f45524332303a20696e73756666696369656e7420616c6c6f77616e63650000006044820152606401610982565b73ffffffffffffffffffffffffffffffffffffffff8216612ab2576040517f08c379a000000000000000000000000000000000000000000000000000000000815260206004820152601d60248201527f45524332303a207472616e7366657220746f20616464726573732830290000006044820152606401610982565b8015612bb75773ffffffffffffffffffffffffffffffffffffffff8316600090815260208590526040902054818103818110612b4a576040517f08c379a000000000000000000000000000000000000000000000000000000000815260206004820152601b60248201527f45524332303a20696e73756666696369656e742062616c616e636500000000006044820152606401610982565b8373ffffffffffffffffffffffffffffffffffffffff168573ffffffffffffffffffffffffffffffffffffffff1614612bb45773ffffffffffffffffffffffffffffffffffffffff8086166000908152602088905260408082208490559186168152208054840190555b50505b8173ffffffffffffffffffffffffffffffffffffffff168373ffffffffffffffffffffffffffffffffffffffff167fddf252ad1be2c89b69c2b068fc378daa952ba7f163c4a11628f55a4df523b3ef836040516111f891815260200190565b612c238787878787611448565b73ffffffffffffffffffffffffffffffffffffffff84163b15610d4657610d468686868686868080601f01602080910402602001604051908101604052809392919081815260200183838082843760009201919091525061389992505050565b73ffffffffffffffffffffffffffffffffffffffff8716612d00576040517f08c379a000000000000000000000000000000000000000000000000000000000815260206004820152601d60248201527f45524332303a207065726d69742066726f6d20616464726573732830290000006044820152606401610982565b83421115612d6a576040517f08c379a000000000000000000000000000000000000000000000000000000000815260206004820152601560248201527f45524332303a2065787069726564207065726d697400000000000000000000006044820152606401610982565b73ffffffffffffffffffffffffffffffffffffffff878116600081815260208b8152604080832080546001810190915581517f6e71edae12b1b97f4d1f60370fef10105fa2faae0126114a169c64845d6126c98185015280830195909552948b166060850152608084018a905260a084019490945260c08084018990528451808503909101815260e09093019093528151919092012090612e0961165a565b6040517f19010000000000000000000000000000000000000000000000000000000000006020820152602281019190915260428101839052606201604080517fffffffffffffffffffffffffffffffffffffffffffffffffffffffffffffffe08184030181528282528051602091820120600080855291840180845281905260ff89169284019290925260608301879052608083018690529092509060019060a0016020604051602081039080840390855afa158015612ecd573d6000803e3d6000fd5b5050506020604051035190508973ffffffffffffffffffffffffffffffffffffffff168173ffffffffffffffffffffffffffffffffffffffff1614612f6e576040517f08c379a000000000000000000000000000000000000000000000000000000000815260206004820152601560248201527f45524332303a20696e76616c6964207065726d697400000000000000000000006044820152606401610982565b505050610a2487878761065b6110e9565b60008381526020858152604080832073ffffffffffffffffffffffffffffffffffffffff8616845290915290205460ff16156108c05760008381526020858152604080832073ffffffffffffffffffffffffffffffffffffffff8681168086529184529382902080547fffffffffffffffffffffffffffffffffffffffffffffffffffffffffffffff00169055815187815292830152918316918101919091527ff6391f5c32d9c69d2a47ea670b442974b53935d1edc7fd64eb21e047a839171b90606001611641565b826108c08284836142bc565b61306186868686612a35565b73ffffffffffffffffffffffffffffffffffffffff84163b15610f0b57610f0b8586868686868080601f01602080910402602001604051908101604052809392919081815260200183838082843760009201919091525061389992505050565b825473ffffffffffffffffffffffffffffffffffffffff9081169083168114613146576040517f08c379a000000000000000000000000000000000000000000000000000000000815260206004820152601860248201527f4f776e6572736869703a206e6f7420746865206f776e657200000000000000006044820152606401610982565b8173ffffffffffffffffffffffffffffffffffffffff168173ffffffffffffffffffffffffffffffffffffffff16146108c05783547fffffffffffffffffffffffff00000000000000000000000000000000000000001673ffffffffffffffffffffffffffffffffffffffff8381169182178655604051908316907f8be0079c531659141344cd1fd0a4f28419497f9722a3daafe3b4186f6b6457e090600090a350505050565b80471015613257576040517f08c379a000000000000000000000000000000000000000000000000000000000815260206004820152601d60248201527f416464726573733a20696e73756666696369656e742062616c616e63650000006044820152606401610982565b60008273ffffffffffffffffffffffffffffffffffffffff168260405160006040518083038185875af1925050503d80600081146132b1576040519150601f19603f3d011682016040523d82523d6000602084013e6132b6565b606091505b505090508061070e576040517f08c379a000000000000000000000000000000000000000000000000000000000815260206004820152603a60248201527f416464726573733a20756e61626c6520746f2073656e642076616c75652c207260448201527f6563697069656e74206d617920686176652072657665727465640000000000006064820152608401610982565b6000333214806133575750601836105b1561336157503390565b7fffffffffffffffffffffffffffffffffffffffffffffffffffffffffffffffec36013560601c7f000000000000000000000000000000000000000000000000000000000000000073ffffffffffffffffffffffffffffffffffffffff1633148061347d57506040517f8929a8ca00000000000000000000000000000000000000000000000000000000815273ffffffffffffffffffffffffffffffffffffffff82811660048301523360248301527f00000000000000000000000000000000000000000000000000000000000000001690638929a8ca90604401602060405180830381865afa158015613459573d6000803e3d6000fd5b505050506040513d601f19601f8201168201806040525081019061347d91906143d6565b1561348757919050565b3391505090565b3660003332148061349f5750601836105b156134ad5750600091369150565b3373ffffffffffffffffffffffffffffffffffffffff7f00000000000000000000000000000000000000000000000000000000000000001614806135e2575073ffffffffffffffffffffffffffffffffffffffff7f000000000000000000000000000000000000000000000000000000000000000016638929a8ca367fffffffffffffffffffffffffffffffffffffffffffffffffffffffffffffffec013560601c6040517fffffffff0000000000000000000000000000000000000000000000000000000060e084901b16815273ffffffffffffffffffffffffffffffffffffffff9091166004820152336024820152604401602060405180830381865afa1580156135be573d6000803e3d6000fd5b505050506040513d601f19601f820116820180604052508101906135e291906143d6565b156135ef576107356139bf565b50600091369150565b6060600082900361361757505060408051602081019091526000815290565b60008260405160200161362c91815260200190565b604080517fffffffffffffffffffffffffffffffffffffffffffffffffffffffffffffffe08184030181529190529050601f5b8181815181106136715761367161411f565b01602001517fff00000000000000000000000000000000000000000000000000000000000000166000036136c6577fffffffffffffffffffffffffffffffffffffffffffffffffffffffffffffffff0161365f565b60008160010167ffffffffffffffff8111156136e4576136e4614247565b6040519080825280601f01601f19166020018201604052801561370e576020820181803683370190505b50905060005b8281116137815783818151811061372d5761372d61411f565b602001015160f81c60f81b82828151811061374a5761374a61411f565b60200101907effffffffffffffffffffffffffffffffffffffffffffffffffffffffffffff1916908160001a905350600101613714565b50949350505050565b60006137ec826040518060400160405280602081526020017f5361666545524332303a206c6f772d6c6576656c2063616c6c206661696c65648152508573ffffffffffffffffffffffffffffffffffffffff166139f09092919063ffffffff16565b905080516000148061380d57508080602001905181019061380d91906143d6565b61070e576040517f08c379a000000000000000000000000000000000000000000000000000000000815260206004820152602a60248201527f5361666545524332303a204552433230206f7065726174696f6e20646964206e60448201527f6f742073756363656564000000000000000000000000000000000000000000006064820152608401610982565b6040517f4fc35859000000000000000000000000000000000000000000000000000000008082529073ffffffffffffffffffffffffffffffffffffffff851690634fc35859906138f39089908990889088906004016143f8565b6020604051808303816000875af1158015613912573d6000803e3d6000fd5b505050506040513d601f19601f820116820180604052508101906139369190614441565b7fffffffff000000000000000000000000000000000000000000000000000000001614611493576040517f08c379a000000000000000000000000000000000000000000000000000000000815260206004820152601d60248201527f45524332303a2073616665207472616e736665722072656a65637465640000006044820152606401610982565b3660006107357fffffffffffffffffffffffffffffffffffffffffffffffffffffffffffffffec830182848161445e565b60606106a78484600085856000808673ffffffffffffffffffffffffffffffffffffffff168587604051613a249190614488565b60006040518083038185875af1925050503d8060008114613a61576040519150601f19603f3d011682016040523d82523d6000602084013e613a66565b606091505b5091509150613a7787838387613a82565b979650505050505050565b60608315613b18578251600003613b115773ffffffffffffffffffffffffffffffffffffffff85163b613b11576040517f08c379a000000000000000000000000000000000000000000000000000000000815260206004820152601d60248201527f416464726573733a2063616c6c20746f206e6f6e2d636f6e74726163740000006044820152606401610982565b50816106a7565b6106a78383815115613b2d5781518083602001fd5b806040517f08c379a00000000000000000000000000000000000000000000000000000000081526004016109829190613c1a565b7fffffffff0000000000000000000000000000000000000000000000000000000081168114610a9957600080fd5b600060208284031215613ba157600080fd5b8135610b0781613b61565b60005b83811015613bc7578181015183820152602001613baf565b50506000910152565b60008151808452613be8816020860160208601613bac565b601f017fffffffffffffffffffffffffffffffffffffffffffffffffffffffffffffffe0169290920160200192915050565b602081526000610b076020830184613bd0565b73ffffffffffffffffffffffffffffffffffffffff81168114610a9957600080fd5b60008060408385031215613c6257600080fd5b8235613c6d81613c2d565b946020939093013593505050565b60008083601f840112613c8d57600080fd5b50813567ffffffffffffffff811115613ca557600080fd5b6020830191508360208260051b8501011115613cc057600080fd5b9250929050565b60008060008060408587031215613cdd57600080fd5b843567ffffffffffffffff80821115613cf557600080fd5b613d0188838901613c7b565b90965094506020870135915080821115613d1a57600080fd5b50613d2787828801613c7b565b95989497509550505050565b600080600060608486031215613d4857600080fd5b8335613d5381613c2d565b92506020840135613d6381613c2d565b929592945050506040919091013590565b60008060408385031215613d8757600080fd5b823591506020830135613d9981613c2d565b809150509250929050565b60208152816020820152818360408301376000818301604090810191909152601f9092017fffffffffffffffffffffffffffffffffffffffffffffffffffffffffffffffe0160101919050565b600060208284031215613e0357600080fd5b5035919050565b600080600080600060608688031215613e2257600080fd5b8535613e2d81613c2d565b9450602086013567ffffffffffffffff80821115613e4a57600080fd5b613e5689838a01613c7b565b90965094506040880135915080821115613e6f57600080fd5b50613e7c88828901613c7b565b969995985093965092949392505050565b600060208284031215613e9f57600080fd5b8135610b0781613c2d565b60008060008060008060608789031215613ec357600080fd5b863567ffffffffffffffff80821115613edb57600080fd5b613ee78a838b01613c7b565b90985096506020890135915080821115613f0057600080fd5b613f0c8a838b01613c7b565b90965094506040890135915080821115613f2557600080fd5b50613f3289828a01613c7b565b979a9699509497509295939492505050565b60008083601f840112613f5657600080fd5b50813567ffffffffffffffff811115613f6e57600080fd5b602083019150836020828501011115613cc057600080fd5b600080600080600060808688031215613f9e57600080fd5b8535613fa981613c2d565b94506020860135613fb981613c2d565b935060408601359250606086013567ffffffffffffffff811115613fdc57600080fd5b613e7c88828901613f44565b600080600080600080600060e0888a03121561400357600080fd5b873561400e81613c2d565b9650602088013561401e81613c2d565b95506040880135945060608801359350608088013560ff8116811461404257600080fd5b9699959850939692959460a0840135945060c09093013592915050565b6000806040838503121561407257600080fd5b823561407d81613c2d565b91506020830135613d9981613c2d565b600080602083850312156140a057600080fd5b823567ffffffffffffffff8111156140b757600080fd5b6140c385828601613f44565b90969095509350505050565b600080600080606085870312156140e557600080fd5b84356140f081613c2d565b935060208501359250604085013567ffffffffffffffff81111561411357600080fd5b613d2787828801613f44565b7f4e487b7100000000000000000000000000000000000000000000000000000000600052603260045260246000fd5b81810381811115610627577f4e487b7100000000000000000000000000000000000000000000000000000000600052601160045260246000fd5b600181811c9082168061419c57607f821691505b6020821081036141d5577f4e487b7100000000000000000000000000000000000000000000000000000000600052602260045260246000fd5b50919050565b7f416363657373436f6e74726f6c3a206d697373696e6720270000000000000000815260008251614213816018850160208701613bac565b7f2720726f6c6500000000000000000000000000000000000000000000000000006018939091019283015250601e01919050565b7f4e487b7100000000000000000000000000000000000000000000000000000000600052604160045260246000fd5b601f82111561070e57600081815260208120601f850160051c8101602086101561429d5750805b601f850160051c820191505b81811015610f0b578281556001016142a9565b67ffffffffffffffff8311156142d4576142d4614247565b6142e8836142e28354614188565b83614276565b6000601f84116001811461433a57600085156143045750838201355b7fffffffffffffffffffffffffffffffffffffffffffffffffffffffffffffffff600387901b1c1916600186901b178355611493565b6000838152602090207fffffffffffffffffffffffffffffffffffffffffffffffffffffffffffffffe0861690835b828110156143895786850135825560209485019460019092019101614369565b50868210156143c4577fffffffffffffffffffffffffffffffffffffffffffffffffffffffffffffffff60f88860031b161c19848701351681555b505060018560011b0183555050505050565b6000602082840312156143e857600080fd5b81518015158114610b0757600080fd5b600073ffffffffffffffffffffffffffffffffffffffff8087168352808616602084015250836040830152608060608301526144376080830184613bd0565b9695505050505050565b60006020828403121561445357600080fd5b8151610b0781613b61565b6000808585111561446e57600080fd5b8386111561447b57600080fd5b5050820193919092039150565b6000825161449a818460208701613bac565b919091019291505056fea2646970667358221220ef601cbfbb4d8f0e46248be22ab567269cc618930e2d2531c8ea9f49b5c6d47d64736f6c63430008130033",
  "linkReferences": {},
  "deployedLinkReferences": {}
}