{
  "_format": "hh-sol-artifact-1",
  "contractName": "ERC20PermitFacet",
  "sourceName": "contracts/token/ERC20/ERC20PermitFacet.sol",
  "abi": [
    {
      "inputs": [
        {
          "internalType": "contract IForwarderRegistry",
          "name": "forwarderRegistry",
          "type": "address"
        }
      ],
      "stateMutability": "nonpayable",
      "type": "constructor"
    },
    {
      "inputs": [],
      "name": "DOMAIN_SEPARATOR",
      "outputs": [
        {
          "internalType": "bytes32",
          "name": "",
          "type": "bytes32"
        }
      ],
      "stateMutability": "view",
      "type": "function"
    },
    {
      "inputs": [],
      "name": "initERC20PermitStorage",
      "outputs": [],
      "stateMutability": "nonpayable",
      "type": "function"
    },
    {
      "inputs": [
        {
          "internalType": "address",
          "name": "account",
          "type": "address"
        }
      ],
      "name": "nonces",
      "outputs": [
        {
          "internalType": "uint256",
          "name": "",
          "type": "uint256"
        }
      ],
      "stateMutability": "view",
      "type": "function"
    },
    {
      "inputs": [
        {
          "internalType": "address",
          "name": "owner",
          "type": "address"
        },
        {
          "internalType": "address",
          "name": "spender",
          "type": "address"
        },
        {
          "internalType": "uint256",
          "name": "value",
          "type": "uint256"
        },
        {
          "internalType": "uint256",
          "name": "deadline",
          "type": "uint256"
        },
        {
          "internalType": "uint8",
          "name": "v",
          "type": "uint8"
        },
        {
          "internalType": "bytes32",
          "name": "r",
          "type": "bytes32"
        },
        {
          "internalType": "bytes32",
          "name": "s",
          "type": "bytes32"
        }
      ],
      "name": "permit",
      "outputs": [],
      "stateMutability": "nonpayable",
      "type": "function"
    }
  ],
  "bytecode": "0x60a060405234801561001057600080fd5b50604051610ddd380380610ddd83398101604081905261002f91610040565b6001600160a01b0316608052610070565b60006020828403121561005257600080fd5b81516001600160a01b038116811461006957600080fd5b9392505050565b608051610d4b610092600039600081816106b201526107520152610d4b6000f3fe608060405234801561001057600080fd5b506004361061004c5760003560e01c80631de5d844146100515780633644e5151461005b5780637ecebe0014610075578063d505accf14610088575b600080fd5b61005961009b565b005b6100636100c6565b60405190815260200160405180910390f35b610063610083366004610b93565b6100d5565b610059610096366004610bb5565b610113565b6100b46100a661013a565b6100ae610144565b90610172565b6100c46100bf6101fe565b61022c565b565b60006100d06102a2565b905090565b600061010d826100e36101fe565b9073ffffffffffffffffffffffffffffffffffffffff166000908152602091909152604090205490565b92915050565b610131878787878787876101256101fe565b96959493929190610342565b50505050505050565b60006100d0610676565b60008061010d60017fb53127684a568b3173ae13b9f8a6016e243e63b6e8ee1178d6a717850b5d6104610c57565b815473ffffffffffffffffffffffffffffffffffffffff8281169116146101fa576040517f08c379a000000000000000000000000000000000000000000000000000000000815260206004820152601960248201527f50726f787941646d696e3a206e6f74207468652061646d696e0000000000000060448201526064015b60405180910390fd5b5050565b60008061010d60017f93fe0ff7226b064a4a8f0b09910762afb4bc2441835792c021ffd78cd513011e610c57565b61026161025a60017fe52e3378002774695d565c8e59c28de59fdd0964e5e3587a8892fdd680d08954610c57565b60016107ce565b6102967f9d8ff7da00000000000000000000000000000000000000000000000000000000600161028f61083e565b919061086c565b61029f8161095c565b50565b6000467f8b73c3c69bb8fe3d512ecc4cf759cc79239f7b179b0ffacaa9a75d522b39400f6102d66102d161098a565b6109b8565b80516020918201206040805192830193909352918101919091527fc89efdaa54c0f20c7adf612882df0950f5a951637e0307cdcb4c672f298b8bc66060820152608081018290523060a082015260c0016040516020818303038152906040528051906020012091505090565b73ffffffffffffffffffffffffffffffffffffffff87166103bf576040517f08c379a000000000000000000000000000000000000000000000000000000000815260206004820152601960248201527f45524332303a207a65726f2061646472657373206f776e65720000000000000060448201526064016101f1565b83421115610429576040517f08c379a000000000000000000000000000000000000000000000000000000000815260206004820152601560248201527f45524332303a2065787069726564207065726d6974000000000000000000000060448201526064016101f1565b73ffffffffffffffffffffffffffffffffffffffff8716600090815260208990526040812080547f6e71edae12b1b97f4d1f60370fef10105fa2faae0126114a169c64845d6126c9918a918a918a91908661048383610c6e565b9091555060408051602081019690965273ffffffffffffffffffffffffffffffffffffffff94851690860152929091166060840152608083015260a082015260c0810186905260e00160405160208183030381529060405280519060200120905060006104ee6102a2565b6040517f19010000000000000000000000000000000000000000000000000000000000006020820152602281019190915260428101839052606201604080517fffffffffffffffffffffffffffffffffffffffffffffffffffffffffffffffe08184030181528282528051602091820120600080855291840180845281905260ff89169284019290925260608301879052608083018690529092509060019060a0016020604051602081039080840390855afa1580156105b2573d6000803e3d6000fd5b5050506020604051035190508973ffffffffffffffffffffffffffffffffffffffff168173ffffffffffffffffffffffffffffffffffffffff1614610653576040517f08c379a000000000000000000000000000000000000000000000000000000000815260206004820152601560248201527f45524332303a20696e76616c6964207065726d6974000000000000000000000060448201526064016101f1565b6106698a8a8a610661610a4e565b929190610a7c565b5050505050505050505050565b60003332810361068557919050565b6000367fffffffffffffffffffffffffffffffffffffffffffffffffffffffffffffffec013560601c90507f000000000000000000000000000000000000000000000000000000000000000073ffffffffffffffffffffffffffffffffffffffff168273ffffffffffffffffffffffffffffffffffffffff1614806107bd57506040517fe60125d600000000000000000000000000000000000000000000000000000000815273ffffffffffffffffffffffffffffffffffffffff828116600483015283811660248301527f0000000000000000000000000000000000000000000000000000000000000000169063e60125d690604401602060405180830381865afa158015610799573d6000803e3d6000fd5b505050506040513d601f19601f820116820180604052508101906107bd9190610ca6565b156107c85792915050565b50919050565b81548290821161083a576040517f08c379a000000000000000000000000000000000000000000000000000000000815260206004820152601860248201527f53746f726167653a2076657273696f6e2072656163686564000000000000000060448201526064016101f1565b5550565b60008061010d60017fca9d3e17f264b0f3984e2634e94adb37fa3e6a8103f06aeae6fa59e21c769f5e610c57565b7fffffffff0000000000000000000000000000000000000000000000000000000080831690036108f8576040517f08c379a000000000000000000000000000000000000000000000000000000000815260206004820152601f60248201527f496e74657266616365446574656374696f6e3a2077726f6e672076616c75650060448201526064016101f1565b7fffffffff00000000000000000000000000000000000000000000000000000000919091166000908152602092909252604090912080547fffffffffffffffffffffffffffffffffffffffffffffffffffffffffffffff0016911515919091179055565b61029f7f9d8ff7da00000000000000000000000000000000000000000000000000000000600161028f61083e565b60008061010d60017f335df4119bbb04f056b33eba33b826d3529129e458faf6daa9924b5a8f3b6a82610c57565b60608160000180546109c990610cc8565b80601f01602080910402602001604051908101604052809291908181526020018280546109f590610cc8565b8015610a425780601f10610a1757610100808354040283529160200191610a42565b820191906000526020600020905b815481529060010190602001808311610a2557829003601f168201915b50505050509050919050565b60008061010d60017f1da92899d3da68bf9787824388a37ea2bfa79780bcef91b9716c390eec8ecbef610c57565b73ffffffffffffffffffffffffffffffffffffffff8216610af9576040517f08c379a000000000000000000000000000000000000000000000000000000000815260206004820152601b60248201527f45524332303a207a65726f2061646472657373207370656e646572000000000060448201526064016101f1565b73ffffffffffffffffffffffffffffffffffffffff838116600081815260018701602090815260408083209487168084529482529182902085905590518481527f8c5be1e5ebec7d5bd14f71427d1e84f3dd0314c0f7b2291e5b200ac8c7c3b925910160405180910390a350505050565b803573ffffffffffffffffffffffffffffffffffffffff81168114610b8e57600080fd5b919050565b600060208284031215610ba557600080fd5b610bae82610b6a565b9392505050565b600080600080600080600060e0888a031215610bd057600080fd5b610bd988610b6a565b9650610be760208901610b6a565b95506040880135945060608801359350608088013560ff81168114610c0b57600080fd5b9699959850939692959460a0840135945060c09093013592915050565b7f4e487b7100000000000000000000000000000000000000000000000000000000600052601160045260246000fd5b600082821015610c6957610c69610c28565b500390565b60007fffffffffffffffffffffffffffffffffffffffffffffffffffffffffffffffff8203610c9f57610c9f610c28565b5060010190565b600060208284031215610cb857600080fd5b81518015158114610bae57600080fd5b600181811c90821680610cdc57607f821691505b6020821081036107c8577f4e487b7100000000000000000000000000000000000000000000000000000000600052602260045260246000fdfea264697066735822122064af057019b74a5f58141db2a9aac74ad30b94197405afe2bfee07ba917dc8a464736f6c634300080e0033",
  "linkReferences": {},
  "deployedLinkReferences": {}
}