{
  "_format": "hh-sol-artifact-1",
  "contractName": "ERC20PermitFacetMock",
  "sourceName": "contracts/mocks/token/ERC20/facets/ERC20PermitFacetMock.sol",
  "abi": [
    {
      "inputs": [
        {
          "internalType": "contract IForwarderRegistry",
          "name": "forwarderRegistry",
          "type": "address"
        }
      ],
      "stateMutability": "nonpayable",
      "type": "constructor"
    },
    {
      "inputs": [
        {
          "internalType": "address",
          "name": "owner",
          "type": "address"
        }
      ],
      "name": "ERC20ApprovalToAddressZero",
      "type": "error"
    },
    {
      "inputs": [
        {
          "internalType": "uint256",
          "name": "deadline",
          "type": "uint256"
        }
      ],
      "name": "ERC20PermitExpired",
      "type": "error"
    },
    {
      "inputs": [],
      "name": "ERC20PermitFromAddressZero",
      "type": "error"
    },
    {
      "inputs": [],
      "name": "ERC20PermitInvalidSignature",
      "type": "error"
    },
    {
      "inputs": [],
      "name": "IllegalInterfaceId",
      "type": "error"
    },
    {
      "inputs": [
        {
          "internalType": "address",
          "name": "account",
          "type": "address"
        }
      ],
      "name": "NotProxyAdmin",
      "type": "error"
    },
    {
      "anonymous": false,
      "inputs": [
        {
          "indexed": true,
          "internalType": "address",
          "name": "owner",
          "type": "address"
        },
        {
          "indexed": true,
          "internalType": "address",
          "name": "spender",
          "type": "address"
        },
        {
          "indexed": false,
          "internalType": "uint256",
          "name": "value",
          "type": "uint256"
        }
      ],
      "name": "Approval",
      "type": "event"
    },
    {
      "inputs": [],
      "name": "DOMAIN_SEPARATOR",
      "outputs": [
        {
          "internalType": "bytes32",
          "name": "",
          "type": "bytes32"
        }
      ],
      "stateMutability": "view",
      "type": "function"
    },
    {
      "inputs": [],
      "name": "__msgData",
      "outputs": [
        {
          "internalType": "bytes",
          "name": "",
          "type": "bytes"
        }
      ],
      "stateMutability": "view",
      "type": "function"
    },
    {
      "inputs": [],
      "name": "initERC20PermitStorage",
      "outputs": [],
      "stateMutability": "nonpayable",
      "type": "function"
    },
    {
      "inputs": [
        {
          "internalType": "address",
          "name": "owner",
          "type": "address"
        }
      ],
      "name": "nonces",
      "outputs": [
        {
          "internalType": "uint256",
          "name": "",
          "type": "uint256"
        }
      ],
      "stateMutability": "view",
      "type": "function"
    },
    {
      "inputs": [
        {
          "internalType": "address",
          "name": "owner",
          "type": "address"
        },
        {
          "internalType": "address",
          "name": "spender",
          "type": "address"
        },
        {
          "internalType": "uint256",
          "name": "value",
          "type": "uint256"
        },
        {
          "internalType": "uint256",
          "name": "deadline",
          "type": "uint256"
        },
        {
          "internalType": "uint8",
          "name": "v",
          "type": "uint8"
        },
        {
          "internalType": "bytes32",
          "name": "r",
          "type": "bytes32"
        },
        {
          "internalType": "bytes32",
          "name": "s",
          "type": "bytes32"
        }
      ],
      "name": "permit",
      "outputs": [],
      "stateMutability": "nonpayable",
      "type": "function"
    }
  ],
  "bytecode": "0x60a060405234801561001057600080fd5b50604051610e24380380610e2483398101604081905261002f91610040565b6001600160a01b0316608052610070565b60006020828403121561005257600080fd5b81516001600160a01b038116811461006957600080fd5b9392505050565b608051610d846100a0600039600081816105f9015281816106810152818161083e015261087c0152610d846000f3fe608060405234801561001057600080fd5b50600436106100675760003560e01c80633644e515116100505780633644e515146100955780637ecebe00146100ab578063d505accf146100be57600080fd5b80631de5d8441461006c57806331e66e1e14610076575b600080fd5b6100746100d1565b005b61007e6100f4565b60405161008c929190610b6a565b60405180910390f35b61009d610107565b60405190815260200161008c565b61009d6100b9366004610be0565b610116565b6100746100cc366004610c02565b610154565b6100ea6100dc61017b565b6100e4610185565b906101b3565b6100f2610227565b565b3660006100ff61025c565b915091509091565b6000610111610267565b905090565b600061014e82610124610307565b9073ffffffffffffffffffffffffffffffffffffffff166000908152602091909152604090205490565b92915050565b61017287878787878787610166610307565b96959493929190610335565b50505050505050565b60006101116105b6565b60008061014e60017fb53127684a568b3173ae13b9f8a6016e243e63b6e8ee1178d6a717850b5d6104610c75565b815473ffffffffffffffffffffffffffffffffffffffff828116911614610223576040517f673a31a100000000000000000000000000000000000000000000000000000000815273ffffffffffffffffffffffffffffffffffffffff821660048201526024015b60405180910390fd5b5050565b6100f27f9d8ff7da0000000000000000000000000000000000000000000000000000000060016102556106fd565b919061072b565b3660006100ff610807565b6000467f8b73c3c69bb8fe3d512ecc4cf759cc79239f7b179b0ffacaa9a75d522b39400f61029b610296610971565b61099f565b80516020918201206040805192830193909352918101919091527fc89efdaa54c0f20c7adf612882df0950f5a951637e0307cdcb4c672f298b8bc66060820152608081018290523060a082015260c0016040516020818303038152906040528051906020012091505090565b60008061014e60017f93fe0ff7226b064a4a8f0b09910762afb4bc2441835792c021ffd78cd513011e610c75565b73ffffffffffffffffffffffffffffffffffffffff8716610382576040517fa974697600000000000000000000000000000000000000000000000000000000815260040160405180910390fd5b834211156103bf576040517fea2b6f580000000000000000000000000000000000000000000000000000000081526004810185905260240161021a565b73ffffffffffffffffffffffffffffffffffffffff878116600081815260208b8152604080832080546001810190915581517f6e71edae12b1b97f4d1f60370fef10105fa2faae0126114a169c64845d6126c98185015280830195909552948b166060850152608084018a905260a084019490945260c08084018990528451808503909101815260e0909301909352815191909201209061045e610267565b6040517f19010000000000000000000000000000000000000000000000000000000000006020820152602281019190915260428101839052606201604080517fffffffffffffffffffffffffffffffffffffffffffffffffffffffffffffffe08184030181528282528051602091820120600080855291840180845281905260ff89169284019290925260608301879052608083018690529092509060019060a0016020604051602081039080840390855afa158015610522573d6000803e3d6000fd5b5050506020604051035190508973ffffffffffffffffffffffffffffffffffffffff168173ffffffffffffffffffffffffffffffffffffffff1614610593576040517f822a64c800000000000000000000000000000000000000000000000000000000815260040160405180910390fd5b5050506105ac8787876105a4610a35565b929190610a63565b5050505050505050565b6000333214806105c65750601836105b156105d057503390565b7fffffffffffffffffffffffffffffffffffffffffffffffffffffffffffffffec36013560601c7f000000000000000000000000000000000000000000000000000000000000000073ffffffffffffffffffffffffffffffffffffffff163314806106ec57506040517f8929a8ca00000000000000000000000000000000000000000000000000000000815273ffffffffffffffffffffffffffffffffffffffff82811660048301523360248301527f00000000000000000000000000000000000000000000000000000000000000001690638929a8ca90604401602060405180830381865afa1580156106c8573d6000803e3d6000fd5b505050506040513d601f19601f820116820180604052508101906106ec9190610caf565b156106f657919050565b3391505090565b60008061014e60017fca9d3e17f264b0f3984e2634e94adb37fa3e6a8103f06aeae6fa59e21c769f5e610c75565b7c01000000000000000000000000000000000000000000000000000000007fffffffff000000000000000000000000000000000000000000000000000000008316016107a3576040517f72c683bb00000000000000000000000000000000000000000000000000000000815260040160405180910390fd5b7fffffffff00000000000000000000000000000000000000000000000000000000919091166000908152602092909252604090912080547fffffffffffffffffffffffffffffffffffffffffffffffffffffffffffffff0016911515919091179055565b366000333214806108185750601836105b156108265750600091369150565b3373ffffffffffffffffffffffffffffffffffffffff7f000000000000000000000000000000000000000000000000000000000000000016148061095b575073ffffffffffffffffffffffffffffffffffffffff7f000000000000000000000000000000000000000000000000000000000000000016638929a8ca367fffffffffffffffffffffffffffffffffffffffffffffffffffffffffffffffec013560601c6040517fffffffff0000000000000000000000000000000000000000000000000000000060e084901b16815273ffffffffffffffffffffffffffffffffffffffff9091166004820152336024820152604401602060405180830381865afa158015610937573d6000803e3d6000fd5b505050506040513d601f19601f8201168201806040525081019061095b9190610caf565b15610968576100ff610b39565b50600091369150565b60008061014e60017f335df4119bbb04f056b33eba33b826d3529129e458faf6daa9924b5a8f3b6a82610c75565b60608160000180546109b090610cd1565b80601f01602080910402602001604051908101604052809291908181526020018280546109dc90610cd1565b8015610a295780601f106109fe57610100808354040283529160200191610a29565b820191906000526020600020905b815481529060010190602001808311610a0c57829003601f168201915b50505050509050919050565b60008061014e60017f1da92899d3da68bf9787824388a37ea2bfa79780bcef91b9716c390eec8ecbef610c75565b73ffffffffffffffffffffffffffffffffffffffff8216610ac8576040517ff7e1ac0f00000000000000000000000000000000000000000000000000000000815273ffffffffffffffffffffffffffffffffffffffff8416600482015260240161021a565b73ffffffffffffffffffffffffffffffffffffffff838116600081815260018701602090815260408083209487168084529482529182902085905590518481527f8c5be1e5ebec7d5bd14f71427d1e84f3dd0314c0f7b2291e5b200ac8c7c3b925910160405180910390a350505050565b3660006100ff7fffffffffffffffffffffffffffffffffffffffffffffffffffffffffffffffec8301828481610d24565b60208152816020820152818360408301376000818301604090810191909152601f9092017fffffffffffffffffffffffffffffffffffffffffffffffffffffffffffffffe0160101919050565b803573ffffffffffffffffffffffffffffffffffffffff81168114610bdb57600080fd5b919050565b600060208284031215610bf257600080fd5b610bfb82610bb7565b9392505050565b600080600080600080600060e0888a031215610c1d57600080fd5b610c2688610bb7565b9650610c3460208901610bb7565b95506040880135945060608801359350608088013560ff81168114610c5857600080fd5b9699959850939692959460a0840135945060c09093013592915050565b8181038181111561014e577f4e487b7100000000000000000000000000000000000000000000000000000000600052601160045260246000fd5b600060208284031215610cc157600080fd5b81518015158114610bfb57600080fd5b600181811c90821680610ce557607f821691505b602082108103610d1e577f4e487b7100000000000000000000000000000000000000000000000000000000600052602260045260246000fd5b50919050565b60008085851115610d3457600080fd5b83861115610d4157600080fd5b505082019391909203915056fea2646970667358221220d845eb49b6cec92caa2351c7417d240851b3093d8e1fcb6ffc895fdf181b636264736f6c63430008180033",
  "linkReferences": {},
  "deployedLinkReferences": {}
}