{
  "_format": "hh-sol-artifact-1",
  "contractName": "AccessControlMock",
  "sourceName": "contracts/mocks/access/AccessControlMock.sol",
  "abi": [
    {
      "inputs": [
        {
          "internalType": "contract IForwarderRegistry",
          "name": "forwarderRegistry",
          "type": "address"
        }
      ],
      "stateMutability": "nonpayable",
      "type": "constructor"
    },
    {
      "anonymous": false,
      "inputs": [
        {
          "indexed": true,
          "internalType": "address",
          "name": "previousOwner",
          "type": "address"
        },
        {
          "indexed": true,
          "internalType": "address",
          "name": "newOwner",
          "type": "address"
        }
      ],
      "name": "OwnershipTransferred",
      "type": "event"
    },
    {
      "anonymous": false,
      "inputs": [
        {
          "indexed": false,
          "internalType": "bytes32",
          "name": "role",
          "type": "bytes32"
        },
        {
          "indexed": false,
          "internalType": "address",
          "name": "account",
          "type": "address"
        },
        {
          "indexed": false,
          "internalType": "address",
          "name": "operator",
          "type": "address"
        }
      ],
      "name": "RoleGranted",
      "type": "event"
    },
    {
      "anonymous": false,
      "inputs": [
        {
          "indexed": false,
          "internalType": "bytes32",
          "name": "role",
          "type": "bytes32"
        },
        {
          "indexed": false,
          "internalType": "address",
          "name": "account",
          "type": "address"
        },
        {
          "indexed": false,
          "internalType": "address",
          "name": "operator",
          "type": "address"
        }
      ],
      "name": "RoleRevoked",
      "type": "event"
    },
    {
      "inputs": [],
      "name": "TEST_ROLE",
      "outputs": [
        {
          "internalType": "bytes32",
          "name": "",
          "type": "bytes32"
        }
      ],
      "stateMutability": "view",
      "type": "function"
    },
    {
      "inputs": [],
      "name": "__msgData",
      "outputs": [
        {
          "internalType": "bytes",
          "name": "",
          "type": "bytes"
        }
      ],
      "stateMutability": "view",
      "type": "function"
    },
    {
      "inputs": [
        {
          "internalType": "bytes32",
          "name": "role",
          "type": "bytes32"
        },
        {
          "internalType": "address",
          "name": "account",
          "type": "address"
        }
      ],
      "name": "enforceHasRole",
      "outputs": [],
      "stateMutability": "view",
      "type": "function"
    },
    {
      "inputs": [],
      "name": "forwarderRegistry",
      "outputs": [
        {
          "internalType": "contract IForwarderRegistry",
          "name": "",
          "type": "address"
        }
      ],
      "stateMutability": "view",
      "type": "function"
    },
    {
      "inputs": [
        {
          "internalType": "bytes32",
          "name": "role",
          "type": "bytes32"
        },
        {
          "internalType": "address",
          "name": "account",
          "type": "address"
        }
      ],
      "name": "grantRole",
      "outputs": [],
      "stateMutability": "nonpayable",
      "type": "function"
    },
    {
      "inputs": [
        {
          "internalType": "bytes32",
          "name": "role",
          "type": "bytes32"
        },
        {
          "internalType": "address",
          "name": "account",
          "type": "address"
        }
      ],
      "name": "hasRole",
      "outputs": [
        {
          "internalType": "bool",
          "name": "",
          "type": "bool"
        }
      ],
      "stateMutability": "view",
      "type": "function"
    },
    {
      "inputs": [
        {
          "internalType": "address",
          "name": "forwarder",
          "type": "address"
        }
      ],
      "name": "isTrustedForwarder",
      "outputs": [
        {
          "internalType": "bool",
          "name": "",
          "type": "bool"
        }
      ],
      "stateMutability": "view",
      "type": "function"
    },
    {
      "inputs": [],
      "name": "owner",
      "outputs": [
        {
          "internalType": "address",
          "name": "",
          "type": "address"
        }
      ],
      "stateMutability": "view",
      "type": "function"
    },
    {
      "inputs": [
        {
          "internalType": "bytes32",
          "name": "role",
          "type": "bytes32"
        }
      ],
      "name": "renounceRole",
      "outputs": [],
      "stateMutability": "nonpayable",
      "type": "function"
    },
    {
      "inputs": [
        {
          "internalType": "bytes32",
          "name": "role",
          "type": "bytes32"
        },
        {
          "internalType": "address",
          "name": "account",
          "type": "address"
        }
      ],
      "name": "revokeRole",
      "outputs": [],
      "stateMutability": "nonpayable",
      "type": "function"
    },
    {
      "inputs": [
        {
          "internalType": "bytes4",
          "name": "interfaceId",
          "type": "bytes4"
        }
      ],
      "name": "supportsInterface",
      "outputs": [
        {
          "internalType": "bool",
          "name": "",
          "type": "bool"
        }
      ],
      "stateMutability": "view",
      "type": "function"
    },
    {
      "inputs": [
        {
          "internalType": "address",
          "name": "newOwner",
          "type": "address"
        }
      ],
      "name": "transferOwnership",
      "outputs": [],
      "stateMutability": "nonpayable",
      "type": "function"
    }
  ],
  "bytecode": "0x60a06040523480156200001157600080fd5b50604051620015bd380380620015bd833981016040819052620000349162000204565b8080336200006581620000516200007b60201b620003b81760201c565b620000b160201b620003e61790919060201c565b506001600160a01b031660805250620002589050565b600080620000ab60017fc9ed16f33ab3a66c84bfd83099ccb2a8845871e2e1c1928f63797152f0fd54cd62000236565b92915050565b6001600160a01b03811615620001085781546001600160a01b0319166001600160a01b03821690811783556040516000907f8be0079c531659141344cd1fd0a4f28419497f9722a3daafe3b4186f6b6457e0908290a35b620001406307f5828d60e41b60016200012b6200014460201b620004a31760201c565b6200017460201b620004d1179092919060201c565b5050565b600080620000ab60017fca9d3e17f264b0f3984e2634e94adb37fa3e6a8103f06aeae6fa59e21c769f5e62000236565b600160e01b6001600160e01b0319831601620001d65760405162461bcd60e51b815260206004820152601f60248201527f496e74657266616365446574656374696f6e3a2077726f6e672076616c756500604482015260640160405180910390fd5b6001600160e01b03199190911660009081526020929092526040909120805460ff1916911515919091179055565b6000602082840312156200021757600080fd5b81516001600160a01b03811681146200022f57600080fd5b9392505050565b81810381811115620000ab57634e487b7160e01b600052601160045260246000fd5b6080516113266200029760003960008181610103015281816101b801528181610be201528181610c6a01528181610d1d0152610d5b01526113266000f3fe608060405234801561001057600080fd5b50600436106100d45760003560e01c80638bb9c5bf11610081578063d547741f1161005b578063d547741f14610223578063db9b206a14610236578063f2fde38b1461024957600080fd5b80638bb9c5bf146101f55780638da5cb5b1461020857806391d148541461021057600080fd5b806331e66e1e116100b257806331e66e1e1461015d5780633ad554d014610173578063572b6c05146101a857600080fd5b806301ffc9a7146100d95780632b4c9f16146101015780632f2ff15d14610148575b600080fd5b6100ec6100e7366004611013565b61025c565b60405190151581526020015b60405180910390f35b7f00000000000000000000000000000000000000000000000000000000000000005b60405173ffffffffffffffffffffffffffffffffffffffff90911681526020016100f8565b61015b61015636600461107e565b610276565b005b6101656102af565b6040516100f89291906110aa565b61019a7f746573746572000000000000000000000000000000000000000000000000000081565b6040519081526020016100f8565b6100ec6101b63660046110f7565b7f000000000000000000000000000000000000000000000000000000000000000073ffffffffffffffffffffffffffffffffffffffff90811691161490565b61015b610203366004611112565b6102c2565b6101236102e0565b6100ec61021e36600461107e565b61030c565b61015b61023136600461107e565b610357565b61015b61024436600461107e565b610385565b61015b6102573660046110f7565b61039d565b60006102708261026a6104a3565b906105e2565b92915050565b60006102806106bc565b90506102948161028e6103b8565b906106c6565b6102aa8383836102a2610749565b929190610777565b505050565b3660006102ba61084e565b915091509091565b6102dd6102cd6106bc565b826102d6610749565b9190610859565b50565b60006103076102ed6103b8565b5473ffffffffffffffffffffffffffffffffffffffff1690565b905090565b6000610350838361031b610749565b60009283526020908152604080842073ffffffffffffffffffffffffffffffffffffffff909316845291905290205460ff1690565b9392505050565b60006103616106bc565b905061036f8161028e6103b8565b6102aa83838361037d610749565b9291906108fd565b6103998282610392610749565b91906109c7565b5050565b6102dd6103a86106bc565b826103b16103b8565b9190610a73565b60008061027060017fc9ed16f33ab3a66c84bfd83099ccb2a8845871e2e1c1928f63797152f0fd54cd61112b565b73ffffffffffffffffffffffffffffffffffffffff81161561046e5781547fffffffffffffffffffffffff00000000000000000000000000000000000000001673ffffffffffffffffffffffffffffffffffffffff821690811783556040516000907f8be0079c531659141344cd1fd0a4f28419497f9722a3daafe3b4186f6b6457e0908290a35b6103997f7f5828d000000000000000000000000000000000000000000000000000000000600161049c6104a3565b91906104d1565b60008061027060017fca9d3e17f264b0f3984e2634e94adb37fa3e6a8103f06aeae6fa59e21c769f5e61112b565b7c01000000000000000000000000000000000000000000000000000000007fffffffff0000000000000000000000000000000000000000000000000000000083160161057e576040517f08c379a000000000000000000000000000000000000000000000000000000000815260206004820152601f60248201527f496e74657266616365446574656374696f6e3a2077726f6e672076616c75650060448201526064015b60405180910390fd5b7fffffffff00000000000000000000000000000000000000000000000000000000919091166000908152602092909252604090912080547fffffffffffffffffffffffffffffffffffffffffffffffffffffffffffffff0016911515919091179055565b60007c01000000000000000000000000000000000000000000000000000000007fffffffff0000000000000000000000000000000000000000000000000000000083160161063257506000610270565b7ffe003659000000000000000000000000000000000000000000000000000000007fffffffff0000000000000000000000000000000000000000000000000000000083160161068357506001610270565b507fffffffff00000000000000000000000000000000000000000000000000000000166000908152602091909152604090205460ff1690565b6000610307610b9f565b815473ffffffffffffffffffffffffffffffffffffffff828116911614610399576040517f08c379a000000000000000000000000000000000000000000000000000000000815260206004820152601860248201527f4f776e6572736869703a206e6f7420746865206f776e657200000000000000006044820152606401610575565b60008061027060017fc8827d3282af6f37b64c3e9e6f3ac9df286ab0bb0fccd6f8661bf19adb368b2361112b565b60008381526020858152604080832073ffffffffffffffffffffffffffffffffffffffff8616845290915290205460ff166108485760008381526020858152604080832073ffffffffffffffffffffffffffffffffffffffff8681168086529184529382902080547fffffffffffffffffffffffffffffffffffffffffffffffffffffffffffffff00166001179055815187815292830152918316918101919091527f2f8788117e7eff1d82e926ec794901d17c78024a50270940304540a733656f0d906060015b60405180910390a15b50505050565b3660006102ba610ce6565b6108648382846109c7565b60008181526020848152604080832073ffffffffffffffffffffffffffffffffffffffff86168085529083529281902080547fffffffffffffffffffffffffffffffffffffffffffffffffffffffffffffff0016905580518481529182018390528101919091527ff6391f5c32d9c69d2a47ea670b442974b53935d1edc7fd64eb21e047a839171b9060600160405180910390a1505050565b60008381526020858152604080832073ffffffffffffffffffffffffffffffffffffffff8616845290915290205460ff16156108485760008381526020858152604080832073ffffffffffffffffffffffffffffffffffffffff8681168086529184529382902080547fffffffffffffffffffffffffffffffffffffffffffffffffffffffffffffff00169055815187815292830152918316918101919091527ff6391f5c32d9c69d2a47ea670b442974b53935d1edc7fd64eb21e047a839171b9060600161083f565b60008281526020848152604080832073ffffffffffffffffffffffffffffffffffffffff8516845290915290205460ff166102aa57610a0582610e50565b604051602001610a159190611189565b604080517fffffffffffffffffffffffffffffffffffffffffffffffffffffffffffffffe0818403018152908290527f08c379a0000000000000000000000000000000000000000000000000000000008252610575916004016111f5565b825473ffffffffffffffffffffffffffffffffffffffff9081169083168114610af8576040517f08c379a000000000000000000000000000000000000000000000000000000000815260206004820152601860248201527f4f776e6572736869703a206e6f7420746865206f776e657200000000000000006044820152606401610575565b8173ffffffffffffffffffffffffffffffffffffffff168173ffffffffffffffffffffffffffffffffffffffff16146108485783547fffffffffffffffffffffffff00000000000000000000000000000000000000001673ffffffffffffffffffffffffffffffffffffffff8381169182178655604051908316907f8be0079c531659141344cd1fd0a4f28419497f9722a3daafe3b4186f6b6457e090600090a350505050565b600033321480610baf5750601836105b15610bb957503390565b7fffffffffffffffffffffffffffffffffffffffffffffffffffffffffffffffec36013560601c7f000000000000000000000000000000000000000000000000000000000000000073ffffffffffffffffffffffffffffffffffffffff16331480610cd557506040517f8929a8ca00000000000000000000000000000000000000000000000000000000815273ffffffffffffffffffffffffffffffffffffffff82811660048301523360248301527f00000000000000000000000000000000000000000000000000000000000000001690638929a8ca90604401602060405180830381865afa158015610cb1573d6000803e3d6000fd5b505050506040513d601f19601f82011682018060405250810190610cd59190611246565b15610cdf57919050565b3391505090565b36600033321480610cf75750601836105b15610d055750600091369150565b3373ffffffffffffffffffffffffffffffffffffffff7f0000000000000000000000000000000000000000000000000000000000000000161480610e3a575073ffffffffffffffffffffffffffffffffffffffff7f000000000000000000000000000000000000000000000000000000000000000016638929a8ca367fffffffffffffffffffffffffffffffffffffffffffffffffffffffffffffffec013560601c6040517fffffffff0000000000000000000000000000000000000000000000000000000060e084901b16815273ffffffffffffffffffffffffffffffffffffffff9091166004820152336024820152604401602060405180830381865afa158015610e16573d6000803e3d6000fd5b505050506040513d601f19601f82011682018060405250810190610e3a9190611246565b15610e47576102ba610fe2565b50600091369150565b60606000829003610e6f57505060408051602081019091526000815290565b600082604051602001610e8491815260200190565b604080517fffffffffffffffffffffffffffffffffffffffffffffffffffffffffffffffe08184030181529190529050601f5b818181518110610ec957610ec9611268565b01602001517fff0000000000000000000000000000000000000000000000000000000000000016600003610f1e577fffffffffffffffffffffffffffffffffffffffffffffffffffffffffffffffff01610eb7565b60008160010167ffffffffffffffff811115610f3c57610f3c611297565b6040519080825280601f01601f191660200182016040528015610f66576020820181803683370190505b50905060005b828111610fd957838181518110610f8557610f85611268565b602001015160f81c60f81b828281518110610fa257610fa2611268565b60200101907effffffffffffffffffffffffffffffffffffffffffffffffffffffffffffff1916908160001a905350600101610f6c565b50949350505050565b3660006102ba7fffffffffffffffffffffffffffffffffffffffffffffffffffffffffffffffec83018284816112c6565b60006020828403121561102557600080fd5b81357fffffffff000000000000000000000000000000000000000000000000000000008116811461035057600080fd5b803573ffffffffffffffffffffffffffffffffffffffff8116811461107957600080fd5b919050565b6000806040838503121561109157600080fd5b823591506110a160208401611055565b90509250929050565b60208152816020820152818360408301376000818301604090810191909152601f9092017fffffffffffffffffffffffffffffffffffffffffffffffffffffffffffffffe0160101919050565b60006020828403121561110957600080fd5b61035082611055565b60006020828403121561112457600080fd5b5035919050565b81810381811115610270577f4e487b7100000000000000000000000000000000000000000000000000000000600052601160045260246000fd5b60005b83811015611180578181015183820152602001611168565b50506000910152565b7f416363657373436f6e74726f6c3a206d697373696e67202700000000000000008152600082516111c1816018850160208701611165565b7f2720726f6c6500000000000000000000000000000000000000000000000000006018939091019283015250601e01919050565b6020815260008251806020840152611214816040850160208701611165565b601f017fffffffffffffffffffffffffffffffffffffffffffffffffffffffffffffffe0169190910160400192915050565b60006020828403121561125857600080fd5b8151801515811461035057600080fd5b7f4e487b7100000000000000000000000000000000000000000000000000000000600052603260045260246000fd5b7f4e487b7100000000000000000000000000000000000000000000000000000000600052604160045260246000fd5b600080858511156112d657600080fd5b838611156112e357600080fd5b505082019391909203915056fea2646970667358221220afe313b20b748d712620f8ed73a535c6a7c750fe55536a3b7888fb30f72c01af64736f6c63430008110033",
  "linkReferences": {},
  "deployedLinkReferences": {}
}