{
  "_format": "hh-sol-artifact-1",
  "contractName": "AccessControlMock",
  "sourceName": "contracts/mocks/access/AccessControlMock.sol",
  "abi": [
    {
      "inputs": [
        {
          "internalType": "contract IForwarderRegistry",
          "name": "forwarderRegistry",
          "type": "address"
        }
      ],
      "stateMutability": "nonpayable",
      "type": "constructor"
    },
    {
      "anonymous": false,
      "inputs": [
        {
          "indexed": true,
          "internalType": "address",
          "name": "previousOwner",
          "type": "address"
        },
        {
          "indexed": true,
          "internalType": "address",
          "name": "newOwner",
          "type": "address"
        }
      ],
      "name": "OwnershipTransferred",
      "type": "event"
    },
    {
      "anonymous": false,
      "inputs": [
        {
          "indexed": false,
          "internalType": "bytes32",
          "name": "role",
          "type": "bytes32"
        },
        {
          "indexed": false,
          "internalType": "address",
          "name": "account",
          "type": "address"
        },
        {
          "indexed": false,
          "internalType": "address",
          "name": "operator",
          "type": "address"
        }
      ],
      "name": "RoleGranted",
      "type": "event"
    },
    {
      "anonymous": false,
      "inputs": [
        {
          "indexed": false,
          "internalType": "bytes32",
          "name": "role",
          "type": "bytes32"
        },
        {
          "indexed": false,
          "internalType": "address",
          "name": "account",
          "type": "address"
        },
        {
          "indexed": false,
          "internalType": "address",
          "name": "operator",
          "type": "address"
        }
      ],
      "name": "RoleRevoked",
      "type": "event"
    },
    {
      "inputs": [],
      "name": "TEST_ROLE",
      "outputs": [
        {
          "internalType": "bytes32",
          "name": "",
          "type": "bytes32"
        }
      ],
      "stateMutability": "view",
      "type": "function"
    },
    {
      "inputs": [],
      "name": "__msgData",
      "outputs": [
        {
          "internalType": "bytes",
          "name": "",
          "type": "bytes"
        }
      ],
      "stateMutability": "view",
      "type": "function"
    },
    {
      "inputs": [
        {
          "internalType": "bytes32",
          "name": "role",
          "type": "bytes32"
        },
        {
          "internalType": "address",
          "name": "account",
          "type": "address"
        }
      ],
      "name": "enforceHasRole",
      "outputs": [],
      "stateMutability": "view",
      "type": "function"
    },
    {
      "inputs": [
        {
          "internalType": "bytes32",
          "name": "role",
          "type": "bytes32"
        },
        {
          "internalType": "address",
          "name": "account",
          "type": "address"
        }
      ],
      "name": "grantRole",
      "outputs": [],
      "stateMutability": "nonpayable",
      "type": "function"
    },
    {
      "inputs": [
        {
          "internalType": "bytes32",
          "name": "role",
          "type": "bytes32"
        },
        {
          "internalType": "address",
          "name": "account",
          "type": "address"
        }
      ],
      "name": "hasRole",
      "outputs": [
        {
          "internalType": "bool",
          "name": "",
          "type": "bool"
        }
      ],
      "stateMutability": "view",
      "type": "function"
    },
    {
      "inputs": [],
      "name": "owner",
      "outputs": [
        {
          "internalType": "address",
          "name": "",
          "type": "address"
        }
      ],
      "stateMutability": "view",
      "type": "function"
    },
    {
      "inputs": [
        {
          "internalType": "bytes32",
          "name": "role",
          "type": "bytes32"
        }
      ],
      "name": "renounceRole",
      "outputs": [],
      "stateMutability": "nonpayable",
      "type": "function"
    },
    {
      "inputs": [
        {
          "internalType": "bytes32",
          "name": "role",
          "type": "bytes32"
        },
        {
          "internalType": "address",
          "name": "account",
          "type": "address"
        }
      ],
      "name": "revokeRole",
      "outputs": [],
      "stateMutability": "nonpayable",
      "type": "function"
    },
    {
      "inputs": [
        {
          "internalType": "bytes4",
          "name": "interfaceId",
          "type": "bytes4"
        }
      ],
      "name": "supportsInterface",
      "outputs": [
        {
          "internalType": "bool",
          "name": "",
          "type": "bool"
        }
      ],
      "stateMutability": "view",
      "type": "function"
    },
    {
      "inputs": [
        {
          "internalType": "address",
          "name": "newOwner",
          "type": "address"
        }
      ],
      "name": "transferOwnership",
      "outputs": [],
      "stateMutability": "nonpayable",
      "type": "function"
    }
  ],
  "bytecode": "0x60a06040523480156200001157600080fd5b50604051620016cd380380620016cd8339810160408190526200003491620002bc565b80336200006481620000506200007860201b620003331760201c565b620000ae60201b620003611790919060201c565b506001600160a01b03166080525062000314565b600080620000a860017fc9ed16f33ab3a66c84bfd83099ccb2a8845871e2e1c1928f63797152f0fd54cd620002ee565b92915050565b620000f5620000df60017fee885d75c0137bd61d17159c129386ad43dafce94360ecf87196edc1ebf47f8a620002ee565b60001b60016200018860201b620004531760201c565b6001600160a01b038116156200014c5781546001600160a01b0319166001600160a01b03821690811783556040516000907f8be0079c531659141344cd1fd0a4f28419497f9722a3daafe3b4186f6b6457e0908290a35b620001846307f5828d60e41b60016200016f620001ff60201b620004c81760201c565b6200022f60201b620004f6179092919060201c565b5050565b6000620001a083620002b960201b620005e61760201c565b905081816000015410620001fb5760405162461bcd60e51b815260206004820152601860248201527f53746f726167653a2076657273696f6e2072656163686564000000000000000060448201526064015b60405180910390fd5b5550565b600080620000a860017fca9d3e17f264b0f3984e2634e94adb37fa3e6a8103f06aeae6fa59e21c769f5e620002ee565b6001600160e01b031980831690036200028b5760405162461bcd60e51b815260206004820152601f60248201527f496e74657266616365446574656374696f6e3a2077726f6e672076616c7565006044820152606401620001f2565b6001600160e01b03199190911660009081526020929092526040909120805460ff1916911515919091179055565b90565b600060208284031215620002cf57600080fd5b81516001600160a01b0381168114620002e757600080fd5b9392505050565b6000828210156200030f57634e487b7160e01b600052601160045260246000fd5b500390565b6080516113886200034560003960008181610b9401528181610c3401528181610cc80152610d3201526113886000f3fe608060405234801561001057600080fd5b50600436106100be5760003560e01c80638da5cb5b11610076578063d547741f1161005b578063d547741f1461019e578063db9b206a146101b1578063f2fde38b146101c457600080fd5b80638da5cb5b1461015e57806391d148541461018b57600080fd5b806331e66e1e116100a757806331e66e1e146101005780633ad554d0146101165780638bb9c5bf1461014b57600080fd5b806301ffc9a7146100c35780632f2ff15d146100eb575b600080fd5b6100d66100d1366004610fdc565b6101d7565b60405190151581526020015b60405180910390f35b6100fe6100f9366004611047565b6101f1565b005b61010861022a565b6040516100e2929190611073565b61013d7f746573746572000000000000000000000000000000000000000000000000000081565b6040519081526020016100e2565b6100fe6101593660046110c0565b61023d565b61016661025b565b60405173ffffffffffffffffffffffffffffffffffffffff90911681526020016100e2565b6100d6610199366004611047565b610287565b6100fe6101ac366004611047565b6102d2565b6100fe6101bf366004611047565b610300565b6100fe6101d23660046110d9565b610318565b60006101eb826101e56104c8565b906105e9565b92915050565b60006101fb610675565b905061020f81610209610333565b9061067f565b61022583838361021d610702565b929190610730565b505050565b366000610235610807565b915091509091565b610258610248610675565b82610251610702565b9190610812565b50565b6000610282610268610333565b5473ffffffffffffffffffffffffffffffffffffffff1690565b905090565b60006102cb8383610296610702565b60009283526020908152604080842073ffffffffffffffffffffffffffffffffffffffff909316845291905290205460ff1690565b9392505050565b60006102dc610675565b90506102ea81610209610333565b6102258383836102f8610702565b9291906108b6565b610314828261030d610702565b9190610980565b5050565b610258610323610675565b8261032c610333565b9190610a2c565b6000806101eb60017fc9ed16f33ab3a66c84bfd83099ccb2a8845871e2e1c1928f63797152f0fd54cd611123565b61039661038f60017fee885d75c0137bd61d17159c129386ad43dafce94360ecf87196edc1ebf47f8a611123565b6001610453565b73ffffffffffffffffffffffffffffffffffffffff81161561041e5781547fffffffffffffffffffffffff00000000000000000000000000000000000000001673ffffffffffffffffffffffffffffffffffffffff821690811783556040516000907f8be0079c531659141344cd1fd0a4f28419497f9722a3daafe3b4186f6b6457e0908290a35b6103147f7f5828d000000000000000000000000000000000000000000000000000000000600161044c6104c8565b91906104f6565b8154829082116104c4576040517f08c379a000000000000000000000000000000000000000000000000000000000815260206004820152601860248201527f53746f726167653a2076657273696f6e2072656163686564000000000000000060448201526064015b60405180910390fd5b5550565b6000806101eb60017fca9d3e17f264b0f3984e2634e94adb37fa3e6a8103f06aeae6fa59e21c769f5e611123565b7fffffffff000000000000000000000000000000000000000000000000000000008083169003610582576040517f08c379a000000000000000000000000000000000000000000000000000000000815260206004820152601f60248201527f496e74657266616365446574656374696f6e3a2077726f6e672076616c75650060448201526064016104bb565b7fffffffff00000000000000000000000000000000000000000000000000000000919091166000908152602092909252604090912080547fffffffffffffffffffffffffffffffffffffffffffffffffffffffffffffff0016911515919091179055565b90565b60007ffe003659000000000000000000000000000000000000000000000000000000007fffffffff0000000000000000000000000000000000000000000000000000000083160161063c575060016101eb565b507fffffffff00000000000000000000000000000000000000000000000000000000166000908152602091909152604090205460ff1690565b6000610282610b58565b815473ffffffffffffffffffffffffffffffffffffffff828116911614610314576040517f08c379a000000000000000000000000000000000000000000000000000000000815260206004820152601860248201527f4f776e6572736869703a206e6f7420746865206f776e6572000000000000000060448201526064016104bb565b6000806101eb60017fc8827d3282af6f37b64c3e9e6f3ac9df286ab0bb0fccd6f8661bf19adb368b23611123565b60008381526020858152604080832073ffffffffffffffffffffffffffffffffffffffff8616845290915290205460ff166108015760008381526020858152604080832073ffffffffffffffffffffffffffffffffffffffff8681168086529184529382902080547fffffffffffffffffffffffffffffffffffffffffffffffffffffffffffffff00166001179055815187815292830152918316918101919091527f2f8788117e7eff1d82e926ec794901d17c78024a50270940304540a733656f0d906060015b60405180910390a15b50505050565b366000610235610cb0565b61081d838284610980565b60008181526020848152604080832073ffffffffffffffffffffffffffffffffffffffff86168085529083529281902080547fffffffffffffffffffffffffffffffffffffffffffffffffffffffffffffff0016905580518481529182018390528101919091527ff6391f5c32d9c69d2a47ea670b442974b53935d1edc7fd64eb21e047a839171b9060600160405180910390a1505050565b60008381526020858152604080832073ffffffffffffffffffffffffffffffffffffffff8616845290915290205460ff16156108015760008381526020858152604080832073ffffffffffffffffffffffffffffffffffffffff8681168086529184529382902080547fffffffffffffffffffffffffffffffffffffffffffffffffffffffffffffff00169055815187815292830152918316918101919091527ff6391f5c32d9c69d2a47ea670b442974b53935d1edc7fd64eb21e047a839171b906060016107f8565b60008281526020848152604080832073ffffffffffffffffffffffffffffffffffffffff8516845290915290205460ff16610225576109be82610e34565b6040516020016109ce9190611166565b604080517fffffffffffffffffffffffffffffffffffffffffffffffffffffffffffffffe0818403018152908290527f08c379a00000000000000000000000000000000000000000000000000000000082526104bb916004016111d2565b825473ffffffffffffffffffffffffffffffffffffffff9081169083168114610ab1576040517f08c379a000000000000000000000000000000000000000000000000000000000815260206004820152601860248201527f4f776e6572736869703a206e6f7420746865206f776e6572000000000000000060448201526064016104bb565b8173ffffffffffffffffffffffffffffffffffffffff168173ffffffffffffffffffffffffffffffffffffffff16146108015783547fffffffffffffffffffffffff00000000000000000000000000000000000000001673ffffffffffffffffffffffffffffffffffffffff8381169182178655604051908316907f8be0079c531659141344cd1fd0a4f28419497f9722a3daafe3b4186f6b6457e090600090a350505050565b600033328103610b6757919050565b6000367fffffffffffffffffffffffffffffffffffffffffffffffffffffffffffffffec013560601c90507f000000000000000000000000000000000000000000000000000000000000000073ffffffffffffffffffffffffffffffffffffffff168273ffffffffffffffffffffffffffffffffffffffff161480610c9f57506040517fe60125d600000000000000000000000000000000000000000000000000000000815273ffffffffffffffffffffffffffffffffffffffff828116600483015283811660248301527f0000000000000000000000000000000000000000000000000000000000000000169063e60125d690604401602060405180830381865afa158015610c7b573d6000803e3d6000fd5b505050506040513d601f19601f82011682018060405250810190610c9f9190611223565b15610caa5792915050565b50919050565b36600033328103610cc657506000923692509050565b7f000000000000000000000000000000000000000000000000000000000000000073ffffffffffffffffffffffffffffffffffffffff168173ffffffffffffffffffffffffffffffffffffffff161480610e13575073ffffffffffffffffffffffffffffffffffffffff7f00000000000000000000000000000000000000000000000000000000000000001663e60125d6367fffffffffffffffffffffffffffffffffffffffffffffffffffffffffffffffec013560601c6040517fffffffff0000000000000000000000000000000000000000000000000000000060e084901b16815273ffffffffffffffffffffffffffffffffffffffff91821660048201529084166024820152604401602060405180830381865afa158015610def573d6000803e3d6000fd5b505050506040513d601f19601f82011682018060405250810190610e139190611223565b15610e2957610e20610fbe565b92509250509091565b506000923692509050565b60606000829003610e5357505060408051602081019091526000815290565b600082604051602001610e6891815260200190565b604080517fffffffffffffffffffffffffffffffffffffffffffffffffffffffffffffffe08184030181529190529050601f5b818181518110610ead57610ead611245565b01602001517fff0000000000000000000000000000000000000000000000000000000000000016600003610eeb57610ee481611274565b9050610e9b565b6000610ef88260016112a9565b67ffffffffffffffff811115610f1057610f106112c1565b6040519080825280601f01601f191660200182016040528015610f3a576020820181803683370190505b50905060005b828111610fb557838181518110610f5957610f59611245565b602001015160f81c60f81b828281518110610f7657610f76611245565b60200101907effffffffffffffffffffffffffffffffffffffffffffffffffffffffffffff1916908160001a905350610fae816112f0565b9050610f40565b50949350505050565b366000808083610fcf601482611123565b9261023593929190611328565b600060208284031215610fee57600080fd5b81357fffffffff00000000000000000000000000000000000000000000000000000000811681146102cb57600080fd5b803573ffffffffffffffffffffffffffffffffffffffff8116811461104257600080fd5b919050565b6000806040838503121561105a57600080fd5b8235915061106a6020840161101e565b90509250929050565b60208152816020820152818360408301376000818301604090810191909152601f9092017fffffffffffffffffffffffffffffffffffffffffffffffffffffffffffffffe0160101919050565b6000602082840312156110d257600080fd5b5035919050565b6000602082840312156110eb57600080fd5b6102cb8261101e565b7f4e487b7100000000000000000000000000000000000000000000000000000000600052601160045260246000fd5b600082821015611135576111356110f4565b500390565b60005b8381101561115557818101518382015260200161113d565b838111156108015750506000910152565b7f416363657373436f6e74726f6c3a206d697373696e672027000000000000000081526000825161119e81601885016020870161113a565b7f2720726f6c6500000000000000000000000000000000000000000000000000006018939091019283015250601e01919050565b60208152600082518060208401526111f181604085016020870161113a565b601f017fffffffffffffffffffffffffffffffffffffffffffffffffffffffffffffffe0169190910160400192915050565b60006020828403121561123557600080fd5b815180151581146102cb57600080fd5b7f4e487b7100000000000000000000000000000000000000000000000000000000600052603260045260246000fd5b600081611283576112836110f4565b507fffffffffffffffffffffffffffffffffffffffffffffffffffffffffffffffff0190565b600082198211156112bc576112bc6110f4565b500190565b7f4e487b7100000000000000000000000000000000000000000000000000000000600052604160045260246000fd5b60007fffffffffffffffffffffffffffffffffffffffffffffffffffffffffffffffff8203611321576113216110f4565b5060010190565b6000808585111561133857600080fd5b8386111561134557600080fd5b505082019391909203915056fea2646970667358221220b31fe6f37d33d51308dc71ebab7657829cc308685338e21c8eaacd6f3f3a13c064736f6c634300080e0033",
  "linkReferences": {},
  "deployedLinkReferences": {}
}