{
  "_format": "hh-sol-artifact-1",
  "contractName": "MultiStaticCallMock",
  "sourceName": "contracts/mocks/utils/MultiStaticCallMock.sol",
  "abi": [
    {
      "inputs": [],
      "name": "Reverted",
      "type": "error"
    },
    {
      "inputs": [
        {
          "internalType": "address",
          "name": "target",
          "type": "address"
        },
        {
          "internalType": "bytes",
          "name": "data",
          "type": "bytes"
        }
      ],
      "name": "StaticCallReverted",
      "type": "error"
    },
    {
      "inputs": [],
      "name": "getBlockNumber",
      "outputs": [
        {
          "internalType": "uint256",
          "name": "blockNumber",
          "type": "uint256"
        }
      ],
      "stateMutability": "view",
      "type": "function"
    },
    {
      "inputs": [],
      "name": "getCurrentBlockCoinbase",
      "outputs": [
        {
          "internalType": "address",
          "name": "coinbase",
          "type": "address"
        }
      ],
      "stateMutability": "view",
      "type": "function"
    },
    {
      "inputs": [],
      "name": "getCurrentBlockGasLimit",
      "outputs": [
        {
          "internalType": "uint256",
          "name": "gaslimit",
          "type": "uint256"
        }
      ],
      "stateMutability": "view",
      "type": "function"
    },
    {
      "inputs": [],
      "name": "getCurrentBlockTimestamp",
      "outputs": [
        {
          "internalType": "uint256",
          "name": "timestamp",
          "type": "uint256"
        }
      ],
      "stateMutability": "view",
      "type": "function"
    },
    {
      "inputs": [
        {
          "internalType": "address",
          "name": "addr",
          "type": "address"
        }
      ],
      "name": "getEthBalance",
      "outputs": [
        {
          "internalType": "uint256",
          "name": "balance",
          "type": "uint256"
        }
      ],
      "stateMutability": "view",
      "type": "function"
    },
    {
      "inputs": [],
      "name": "revertingCall",
      "outputs": [],
      "stateMutability": "pure",
      "type": "function"
    },
    {
      "inputs": [],
      "name": "revertingCallWithoutMessage",
      "outputs": [],
      "stateMutability": "pure",
      "type": "function"
    },
    {
      "inputs": [
        {
          "internalType": "bool",
          "name": "requireSuccess",
          "type": "bool"
        },
        {
          "components": [
            {
              "internalType": "address",
              "name": "target",
              "type": "address"
            },
            {
              "internalType": "bytes",
              "name": "callData",
              "type": "bytes"
            }
          ],
          "internalType": "struct MultiStaticCall.Call[]",
          "name": "calls",
          "type": "tuple[]"
        }
      ],
      "name": "tryAggregate",
      "outputs": [
        {
          "components": [
            {
              "internalType": "bool",
              "name": "success",
              "type": "bool"
            },
            {
              "internalType": "bytes",
              "name": "returnData",
              "type": "bytes"
            }
          ],
          "internalType": "struct MultiStaticCall.Result[]",
          "name": "returnData",
          "type": "tuple[]"
        }
      ],
      "stateMutability": "view",
      "type": "function"
    },
    {
      "inputs": [
        {
          "internalType": "bool",
          "name": "requireSuccess",
          "type": "bool"
        },
        {
          "components": [
            {
              "internalType": "address",
              "name": "target",
              "type": "address"
            },
            {
              "internalType": "bytes",
              "name": "callData",
              "type": "bytes"
            }
          ],
          "internalType": "struct MultiStaticCall.Call[]",
          "name": "calls",
          "type": "tuple[]"
        }
      ],
      "name": "tryBlockAndAggregate",
      "outputs": [
        {
          "internalType": "uint256",
          "name": "blockNumber",
          "type": "uint256"
        },
        {
          "components": [
            {
              "internalType": "bool",
              "name": "success",
              "type": "bool"
            },
            {
              "internalType": "bytes",
              "name": "returnData",
              "type": "bytes"
            }
          ],
          "internalType": "struct MultiStaticCall.Result[]",
          "name": "returnData",
          "type": "tuple[]"
        }
      ],
      "stateMutability": "view",
      "type": "function"
    }
  ],
  "bytecode": "0x608060405234801561001057600080fd5b50610711806100206000396000f3fe608060405234801561001057600080fd5b50600436106100a35760003560e01c806386d516e811610076578063b62c53181161005b578063b62c531814610120578063bce38bd71461012a578063ce0d89f41461014a57600080fd5b806386d516e81461010c578063a8b0574e1461011257600080fd5b80630f28c97d146100a8578063399542e9146100bd57806342cbb15c146100de5780634d2301cc146100e4575b600080fd5b425b6040519081526020015b60405180910390f35b6100d06100cb366004610397565b610152565b6040516100b49291906104e8565b436100aa565b6100aa6100f2366004610509565b73ffffffffffffffffffffffffffffffffffffffff163190565b456100aa565b6040514181526020016100b4565b610128600080fd5b005b61013d610138366004610397565b61016a565b6040516100b49190610546565b610128610365565b43606061016085858561016a565b9050935093915050565b6060818067ffffffffffffffff81111561018657610186610559565b6040519080825280602002602001820160405280156101cc57816020015b6040805180820190915260008152606060208201528152602001906001900390816101a45790505b50915060005b8181101561035c5760008585838181106101ee576101ee610588565b905060200281019061020091906105b7565b61020e906020810190610509565b905036600087878581811061022557610225610588565b905060200281019061023791906105b7565b6102459060208101906105f5565b915091506000808473ffffffffffffffffffffffffffffffffffffffff168484604051610273929190610661565b600060405180830381855afa9150503d80600081146102ae576040519150601f19603f3d011682016040523d82523d6000602084013e6102b3565b606091505b50915091508a80156102c3575081155b1561031857805180156102d7578082602001fd5b8585856040517f1199c44200000000000000000000000000000000000000000000000000000000815260040161030f93929190610671565b60405180910390fd5b604051806040016040528083151581526020018281525088878151811061034157610341610588565b602002602001018190525050505050508060010190506101d2565b50509392505050565b6040517f4a5033eb00000000000000000000000000000000000000000000000000000000815260040160405180910390fd5b6000806000604084860312156103ac57600080fd5b833580151581146103bc57600080fd5b9250602084013567ffffffffffffffff808211156103d957600080fd5b818601915086601f8301126103ed57600080fd5b8135818111156103fc57600080fd5b8760208260051b850101111561041157600080fd5b6020830194508093505050509250925092565b600082825180855260208086019550808260051b8401018186016000805b858110156104da577fffffffffffffffffffffffffffffffffffffffffffffffffffffffffffffffe087850381018b5283518051151586528601516040878701819052815190870181905284905b808210156104ae578282018901518883016060015290880190610490565b87810160609081018790529d89019d601f90910190931690960190910194505091840191600101610442565b509198975050505050505050565b8281526040602082015260006105016040830184610424565b949350505050565b60006020828403121561051b57600080fd5b813573ffffffffffffffffffffffffffffffffffffffff8116811461053f57600080fd5b9392505050565b60208152600061053f6020830184610424565b7f4e487b7100000000000000000000000000000000000000000000000000000000600052604160045260246000fd5b7f4e487b7100000000000000000000000000000000000000000000000000000000600052603260045260246000fd5b600082357fffffffffffffffffffffffffffffffffffffffffffffffffffffffffffffffc18336030181126105eb57600080fd5b9190910192915050565b60008083357fffffffffffffffffffffffffffffffffffffffffffffffffffffffffffffffe184360301811261062a57600080fd5b83018035915067ffffffffffffffff82111561064557600080fd5b60200191503681900382131561065a57600080fd5b9250929050565b8183823760009101908152919050565b73ffffffffffffffffffffffffffffffffffffffff8416815260406020820152816040820152818360608301376000818301606090810191909152601f9092017fffffffffffffffffffffffffffffffffffffffffffffffffffffffffffffffe01601019291505056fea2646970667358221220561ab6fe3c613b1e1b74f4d1ebba86127c1147e1a20bd3df1934302899b6de2964736f6c63430008160033",
  "linkReferences": {},
  "deployedLinkReferences": {}
}