{
  "_format": "hh-sol-artifact-1",
  "contractName": "MultiStaticCallMock",
  "sourceName": "contracts/mocks/utils/MultiStaticCallMock.sol",
  "abi": [
    {
      "inputs": [],
      "name": "getBlockNumber",
      "outputs": [
        {
          "internalType": "uint256",
          "name": "blockNumber",
          "type": "uint256"
        }
      ],
      "stateMutability": "view",
      "type": "function"
    },
    {
      "inputs": [],
      "name": "getCurrentBlockCoinbase",
      "outputs": [
        {
          "internalType": "address",
          "name": "coinbase",
          "type": "address"
        }
      ],
      "stateMutability": "view",
      "type": "function"
    },
    {
      "inputs": [],
      "name": "getCurrentBlockGasLimit",
      "outputs": [
        {
          "internalType": "uint256",
          "name": "gaslimit",
          "type": "uint256"
        }
      ],
      "stateMutability": "view",
      "type": "function"
    },
    {
      "inputs": [],
      "name": "getCurrentBlockTimestamp",
      "outputs": [
        {
          "internalType": "uint256",
          "name": "timestamp",
          "type": "uint256"
        }
      ],
      "stateMutability": "view",
      "type": "function"
    },
    {
      "inputs": [
        {
          "internalType": "address",
          "name": "addr",
          "type": "address"
        }
      ],
      "name": "getEthBalance",
      "outputs": [
        {
          "internalType": "uint256",
          "name": "balance",
          "type": "uint256"
        }
      ],
      "stateMutability": "view",
      "type": "function"
    },
    {
      "inputs": [],
      "name": "revertingCall",
      "outputs": [],
      "stateMutability": "pure",
      "type": "function"
    },
    {
      "inputs": [
        {
          "internalType": "bool",
          "name": "requireSuccess",
          "type": "bool"
        },
        {
          "components": [
            {
              "internalType": "address",
              "name": "target",
              "type": "address"
            },
            {
              "internalType": "bytes",
              "name": "callData",
              "type": "bytes"
            }
          ],
          "internalType": "struct MultiStaticCall.Call[]",
          "name": "calls",
          "type": "tuple[]"
        }
      ],
      "name": "tryAggregate",
      "outputs": [
        {
          "components": [
            {
              "internalType": "bool",
              "name": "success",
              "type": "bool"
            },
            {
              "internalType": "bytes",
              "name": "returnData",
              "type": "bytes"
            }
          ],
          "internalType": "struct MultiStaticCall.Result[]",
          "name": "returnData",
          "type": "tuple[]"
        }
      ],
      "stateMutability": "view",
      "type": "function"
    },
    {
      "inputs": [
        {
          "internalType": "bool",
          "name": "requireSuccess",
          "type": "bool"
        },
        {
          "components": [
            {
              "internalType": "address",
              "name": "target",
              "type": "address"
            },
            {
              "internalType": "bytes",
              "name": "callData",
              "type": "bytes"
            }
          ],
          "internalType": "struct MultiStaticCall.Call[]",
          "name": "calls",
          "type": "tuple[]"
        }
      ],
      "name": "tryBlockAndAggregate",
      "outputs": [
        {
          "internalType": "uint256",
          "name": "blockNumber",
          "type": "uint256"
        },
        {
          "components": [
            {
              "internalType": "bool",
              "name": "success",
              "type": "bool"
            },
            {
              "internalType": "bytes",
              "name": "returnData",
              "type": "bytes"
            }
          ],
          "internalType": "struct MultiStaticCall.Result[]",
          "name": "returnData",
          "type": "tuple[]"
        }
      ],
      "stateMutability": "view",
      "type": "function"
    }
  ],
  "bytecode": "0x608060405234801561001057600080fd5b506106b1806100206000396000f3fe608060405234801561001057600080fd5b50600436106100885760003560e01c806386d516e81161005b57806386d516e8146100f1578063a8b0574e146100f7578063bce38bd714610105578063ce0d89f41461012557600080fd5b80630f28c97d1461008d578063399542e9146100a257806342cbb15c146100c35780634d2301cc146100c9575b600080fd5b425b6040519081526020015b60405180910390f35b6100b56100b03660046103a1565b61012f565b6040516100999291906104f2565b4361008f565b61008f6100d7366004610513565b73ffffffffffffffffffffffffffffffffffffffff163190565b4561008f565b604051418152602001610099565b6101186101133660046103a1565b610147565b6040516100999190610550565b61012d61033f565b005b43606061013d858585610147565b9050935093915050565b6060818067ffffffffffffffff81111561016357610163610563565b6040519080825280602002602001820160405280156101a957816020015b6040805180820190915260008152606060208201528152602001906001900390816101815790505b50915060005b818114610336576000808686848181106101cb576101cb610592565b90506020028101906101dd91906105c1565b6101eb906020810190610513565b73ffffffffffffffffffffffffffffffffffffffff1687878581811061021357610213610592565b905060200281019061022591906105c1565b6102339060208101906105ff565b60405161024192919061066b565b600060405180830381855afa9150503d806000811461027c576040519150601f19603f3d011682016040523d82523d6000602084013e610281565b606091505b509150915087156102f857816102f8576040517f08c379a000000000000000000000000000000000000000000000000000000000815260206004820152601c60248201527f4d756c746953746174696343616c6c3a2063616c6c206661696c65640000000060448201526064015b60405180910390fd5b604051806040016040528083151581526020018281525085848151811061032157610321610592565b602090810291909101015250506001016101af565b50509392505050565b6040517f08c379a000000000000000000000000000000000000000000000000000000000815260206004820152600860248201527f726576657274656400000000000000000000000000000000000000000000000060448201526064016102ef565b6000806000604084860312156103b657600080fd5b833580151581146103c657600080fd5b9250602084013567ffffffffffffffff808211156103e357600080fd5b818601915086601f8301126103f757600080fd5b81358181111561040657600080fd5b8760208260051b850101111561041b57600080fd5b6020830194508093505050509250925092565b600082825180855260208086019550808260051b8401018186016000805b858110156104e4577fffffffffffffffffffffffffffffffffffffffffffffffffffffffffffffffe087850381018b5283518051151586528601516040878701819052815190870181905284905b808210156104b857828201890151888301606001529088019061049a565b87810160609081018790529d89019d601f9091019093169096019091019450509184019160010161044c565b509198975050505050505050565b82815260406020820152600061050b604083018461042e565b949350505050565b60006020828403121561052557600080fd5b813573ffffffffffffffffffffffffffffffffffffffff8116811461054957600080fd5b9392505050565b602081526000610549602083018461042e565b7f4e487b7100000000000000000000000000000000000000000000000000000000600052604160045260246000fd5b7f4e487b7100000000000000000000000000000000000000000000000000000000600052603260045260246000fd5b600082357fffffffffffffffffffffffffffffffffffffffffffffffffffffffffffffffc18336030181126105f557600080fd5b9190910192915050565b60008083357fffffffffffffffffffffffffffffffffffffffffffffffffffffffffffffffe184360301811261063457600080fd5b83018035915067ffffffffffffffff82111561064f57600080fd5b60200191503681900382131561066457600080fd5b9250929050565b818382376000910190815291905056fea26469706673582212203b4a6d3bae326ab4f284aee1b01d981ce2761623dec79adf9746c143fd4b4e4564736f6c63430008130033",
  "linkReferences": {},
  "deployedLinkReferences": {}
}