{
  "_format": "hh-sol-artifact-1",
  "contractName": "MultiStaticCallMock",
  "sourceName": "contracts/mocks/utils/MultiStaticCallMock.sol",
  "abi": [
    {
      "inputs": [],
      "name": "getBlockNumber",
      "outputs": [
        {
          "internalType": "uint256",
          "name": "blockNumber",
          "type": "uint256"
        }
      ],
      "stateMutability": "view",
      "type": "function"
    },
    {
      "inputs": [],
      "name": "getCurrentBlockCoinbase",
      "outputs": [
        {
          "internalType": "address",
          "name": "coinbase",
          "type": "address"
        }
      ],
      "stateMutability": "view",
      "type": "function"
    },
    {
      "inputs": [],
      "name": "getCurrentBlockDifficulty",
      "outputs": [
        {
          "internalType": "uint256",
          "name": "difficulty",
          "type": "uint256"
        }
      ],
      "stateMutability": "view",
      "type": "function"
    },
    {
      "inputs": [],
      "name": "getCurrentBlockGasLimit",
      "outputs": [
        {
          "internalType": "uint256",
          "name": "gaslimit",
          "type": "uint256"
        }
      ],
      "stateMutability": "view",
      "type": "function"
    },
    {
      "inputs": [],
      "name": "getCurrentBlockTimestamp",
      "outputs": [
        {
          "internalType": "uint256",
          "name": "timestamp",
          "type": "uint256"
        }
      ],
      "stateMutability": "view",
      "type": "function"
    },
    {
      "inputs": [
        {
          "internalType": "address",
          "name": "addr",
          "type": "address"
        }
      ],
      "name": "getEthBalance",
      "outputs": [
        {
          "internalType": "uint256",
          "name": "balance",
          "type": "uint256"
        }
      ],
      "stateMutability": "view",
      "type": "function"
    },
    {
      "inputs": [],
      "name": "revertingCall",
      "outputs": [],
      "stateMutability": "pure",
      "type": "function"
    },
    {
      "inputs": [
        {
          "internalType": "bool",
          "name": "requireSuccess",
          "type": "bool"
        },
        {
          "components": [
            {
              "internalType": "address",
              "name": "target",
              "type": "address"
            },
            {
              "internalType": "bytes",
              "name": "callData",
              "type": "bytes"
            }
          ],
          "internalType": "struct MultiStaticCall.Call[]",
          "name": "calls",
          "type": "tuple[]"
        }
      ],
      "name": "tryAggregate",
      "outputs": [
        {
          "components": [
            {
              "internalType": "bool",
              "name": "success",
              "type": "bool"
            },
            {
              "internalType": "bytes",
              "name": "returnData",
              "type": "bytes"
            }
          ],
          "internalType": "struct MultiStaticCall.Result[]",
          "name": "returnData",
          "type": "tuple[]"
        }
      ],
      "stateMutability": "view",
      "type": "function"
    },
    {
      "inputs": [
        {
          "internalType": "bool",
          "name": "requireSuccess",
          "type": "bool"
        },
        {
          "components": [
            {
              "internalType": "address",
              "name": "target",
              "type": "address"
            },
            {
              "internalType": "bytes",
              "name": "callData",
              "type": "bytes"
            }
          ],
          "internalType": "struct MultiStaticCall.Call[]",
          "name": "calls",
          "type": "tuple[]"
        }
      ],
      "name": "tryBlockAndAggregate",
      "outputs": [
        {
          "internalType": "uint256",
          "name": "blockNumber",
          "type": "uint256"
        },
        {
          "components": [
            {
              "internalType": "bool",
              "name": "success",
              "type": "bool"
            },
            {
              "internalType": "bytes",
              "name": "returnData",
              "type": "bytes"
            }
          ],
          "internalType": "struct MultiStaticCall.Result[]",
          "name": "returnData",
          "type": "tuple[]"
        }
      ],
      "stateMutability": "view",
      "type": "function"
    }
  ],
  "bytecode": "0x608060405234801561001057600080fd5b506106d7806100206000396000f3fe608060405234801561001057600080fd5b50600436106100a35760003560e01c806372425d9d11610076578063a8b0574e1161005b578063a8b0574e14610118578063bce38bd714610126578063ce0d89f41461014657600080fd5b806372425d9d1461010c57806386d516e81461011257600080fd5b80630f28c97d146100a8578063399542e9146100bd57806342cbb15c146100de5780634d2301cc146100e4575b600080fd5b425b6040519081526020015b60405180910390f35b6100d06100cb3660046103c2565b610150565b6040516100b4929190610518565b436100aa565b6100aa6100f2366004610539565b73ffffffffffffffffffffffffffffffffffffffff163190565b446100aa565b456100aa565b6040514181526020016100b4565b6101396101343660046103c2565b610168565b6040516100b49190610576565b61014e610360565b005b43606061015e858585610168565b9050935093915050565b6060818067ffffffffffffffff81111561018457610184610589565b6040519080825280602002602001820160405280156101ca57816020015b6040805180820190915260008152606060208201528152602001906001900390816101a25790505b50915060005b818114610357576000808686848181106101ec576101ec6105b8565b90506020028101906101fe91906105e7565b61020c906020810190610539565b73ffffffffffffffffffffffffffffffffffffffff16878785818110610234576102346105b8565b905060200281019061024691906105e7565b610254906020810190610625565b604051610262929190610691565b600060405180830381855afa9150503d806000811461029d576040519150601f19603f3d011682016040523d82523d6000602084013e6102a2565b606091505b509150915087156103195781610319576040517f08c379a000000000000000000000000000000000000000000000000000000000815260206004820152601c60248201527f4d756c746953746174696343616c6c3a2063616c6c206661696c65640000000060448201526064015b60405180910390fd5b6040518060400160405280831515815260200182815250858481518110610342576103426105b8565b602090810291909101015250506001016101d0565b50509392505050565b6040517f08c379a000000000000000000000000000000000000000000000000000000000815260206004820152600860248201527f72657665727465640000000000000000000000000000000000000000000000006044820152606401610310565b6000806000604084860312156103d757600080fd5b833580151581146103e757600080fd5b9250602084013567ffffffffffffffff8082111561040457600080fd5b818601915086601f83011261041857600080fd5b81358181111561042757600080fd5b8760208260051b850101111561043c57600080fd5b6020830194508093505050509250925092565b600082825180855260208086019550808260051b8401018186016000805b8581101561050a577fffffffffffffffffffffffffffffffffffffffffffffffffffffffffffffffe087850381018b5283518051151586528601516040878701819052815190870181905284905b808210156104d95782820189015188830160600152908801906104bb565b808211156104ea57856060828a0101525b9c88019c601f01909216959095016060019450509184019160010161046d565b509198975050505050505050565b828152604060208201526000610531604083018461044f565b949350505050565b60006020828403121561054b57600080fd5b813573ffffffffffffffffffffffffffffffffffffffff8116811461056f57600080fd5b9392505050565b60208152600061056f602083018461044f565b7f4e487b7100000000000000000000000000000000000000000000000000000000600052604160045260246000fd5b7f4e487b7100000000000000000000000000000000000000000000000000000000600052603260045260246000fd5b600082357fffffffffffffffffffffffffffffffffffffffffffffffffffffffffffffffc183360301811261061b57600080fd5b9190910192915050565b60008083357fffffffffffffffffffffffffffffffffffffffffffffffffffffffffffffffe184360301811261065a57600080fd5b83018035915067ffffffffffffffff82111561067557600080fd5b60200191503681900382131561068a57600080fd5b9250929050565b818382376000910190815291905056fea2646970667358221220858ac62335349d2390469a0d233f8f78c14f4c7512f82270a1ed419dc670116664736f6c634300080f0033",
  "linkReferences": {},
  "deployedLinkReferences": {}
}