{
  "_format": "hh-sol-artifact-1",
  "contractName": "MultiStaticCallMock",
  "sourceName": "contracts/mocks/utils/MultiStaticCallMock.sol",
  "abi": [
    {
      "inputs": [],
      "name": "Reverted",
      "type": "error"
    },
    {
      "inputs": [
        {
          "internalType": "address",
          "name": "target",
          "type": "address"
        },
        {
          "internalType": "bytes",
          "name": "data",
          "type": "bytes"
        }
      ],
      "name": "StaticCallReverted",
      "type": "error"
    },
    {
      "inputs": [],
      "name": "getBlockNumber",
      "outputs": [
        {
          "internalType": "uint256",
          "name": "blockNumber",
          "type": "uint256"
        }
      ],
      "stateMutability": "view",
      "type": "function"
    },
    {
      "inputs": [],
      "name": "getCurrentBlockCoinbase",
      "outputs": [
        {
          "internalType": "address",
          "name": "coinbase",
          "type": "address"
        }
      ],
      "stateMutability": "view",
      "type": "function"
    },
    {
      "inputs": [],
      "name": "getCurrentBlockGasLimit",
      "outputs": [
        {
          "internalType": "uint256",
          "name": "gaslimit",
          "type": "uint256"
        }
      ],
      "stateMutability": "view",
      "type": "function"
    },
    {
      "inputs": [],
      "name": "getCurrentBlockTimestamp",
      "outputs": [
        {
          "internalType": "uint256",
          "name": "timestamp",
          "type": "uint256"
        }
      ],
      "stateMutability": "view",
      "type": "function"
    },
    {
      "inputs": [
        {
          "internalType": "address",
          "name": "addr",
          "type": "address"
        }
      ],
      "name": "getEthBalance",
      "outputs": [
        {
          "internalType": "uint256",
          "name": "balance",
          "type": "uint256"
        }
      ],
      "stateMutability": "view",
      "type": "function"
    },
    {
      "inputs": [],
      "name": "revertingCall",
      "outputs": [],
      "stateMutability": "pure",
      "type": "function"
    },
    {
      "inputs": [],
      "name": "revertingCallWithoutMessage",
      "outputs": [],
      "stateMutability": "pure",
      "type": "function"
    },
    {
      "inputs": [
        {
          "internalType": "bool",
          "name": "requireSuccess",
          "type": "bool"
        },
        {
          "components": [
            {
              "internalType": "address",
              "name": "target",
              "type": "address"
            },
            {
              "internalType": "bytes",
              "name": "callData",
              "type": "bytes"
            }
          ],
          "internalType": "struct MultiStaticCall.Call[]",
          "name": "calls",
          "type": "tuple[]"
        }
      ],
      "name": "tryAggregate",
      "outputs": [
        {
          "components": [
            {
              "internalType": "bool",
              "name": "success",
              "type": "bool"
            },
            {
              "internalType": "bytes",
              "name": "returnData",
              "type": "bytes"
            }
          ],
          "internalType": "struct MultiStaticCall.Result[]",
          "name": "returnData",
          "type": "tuple[]"
        }
      ],
      "stateMutability": "view",
      "type": "function"
    },
    {
      "inputs": [
        {
          "internalType": "bool",
          "name": "requireSuccess",
          "type": "bool"
        },
        {
          "components": [
            {
              "internalType": "address",
              "name": "target",
              "type": "address"
            },
            {
              "internalType": "bytes",
              "name": "callData",
              "type": "bytes"
            }
          ],
          "internalType": "struct MultiStaticCall.Call[]",
          "name": "calls",
          "type": "tuple[]"
        }
      ],
      "name": "tryBlockAndAggregate",
      "outputs": [
        {
          "internalType": "uint256",
          "name": "blockNumber",
          "type": "uint256"
        },
        {
          "components": [
            {
              "internalType": "bool",
              "name": "success",
              "type": "bool"
            },
            {
              "internalType": "bytes",
              "name": "returnData",
              "type": "bytes"
            }
          ],
          "internalType": "struct MultiStaticCall.Result[]",
          "name": "returnData",
          "type": "tuple[]"
        }
      ],
      "stateMutability": "view",
      "type": "function"
    }
  ],
  "bytecode": "0x608060405234801561000f575f80fd5b506106e48061001d5f395ff3fe608060405234801561000f575f80fd5b506004361061009f575f3560e01c806386d516e811610072578063b62c531811610058578063b62c53181461011b578063bce38bd714610124578063ce0d89f414610144575f80fd5b806386d516e814610107578063a8b0574e1461010d575f80fd5b80630f28c97d146100a3578063399542e9146100b857806342cbb15c146100d95780634d2301cc146100df575b5f80fd5b425b6040519081526020015b60405180910390f35b6100cb6100c6366004610388565b61014c565b6040516100af9291906104cc565b436100a5565b6100a56100ed3660046104ec565b73ffffffffffffffffffffffffffffffffffffffff163190565b456100a5565b6040514181526020016100af565b6101225f80fd5b005b610137610132366004610388565b610164565b6040516100af9190610526565b610122610356565b43606061015a858585610164565b9050935093915050565b6060818067ffffffffffffffff81111561018057610180610538565b6040519080825280602002602001820160405280156101c557816020015b604080518082019091525f81526060602082015281526020019060019003908161019e5790505b5091505f5b81811461034d575f8585838181106101e4576101e4610565565b90506020028101906101f69190610592565b6102049060208101906104ec565b9050365f87878581811061021a5761021a610565565b905060200281019061022c9190610592565b61023a9060208101906105ce565b915091505f808473ffffffffffffffffffffffffffffffffffffffff168484604051610267929190610636565b5f60405180830381855afa9150503d805f811461029f576040519150601f19603f3d011682016040523d82523d5f602084013e6102a4565b606091505b50915091508a80156102b4575081155b1561030957805180156102c8578082602001fd5b8585856040517f1199c44200000000000000000000000000000000000000000000000000000000815260040161030093929190610645565b60405180910390fd5b604051806040016040528083151581526020018281525088878151811061033257610332610565565b602002602001018190525050505050508060010190506101ca565b50509392505050565b6040517f4a5033eb00000000000000000000000000000000000000000000000000000000815260040160405180910390fd5b5f805f6040848603121561039a575f80fd5b833580151581146103a9575f80fd5b9250602084013567ffffffffffffffff808211156103c5575f80fd5b818601915086601f8301126103d8575f80fd5b8135818111156103e6575f80fd5b8760208260051b85010111156103fa575f80fd5b6020830194508093505050509250925092565b5f81518084526020808501808196508360051b810191508286015f805b868110156104be578385038a5282518051151586528601516040878701819052815190870181905283905b80821015610473578282018901518883016060015290880190610455565b87810160609081018690529c89019c601f9091017fffffffffffffffffffffffffffffffffffffffffffffffffffffffffffffffe0169097019096019550509185019160010161042a565b509298975050505050505050565b828152604060208201525f6104e4604083018461040d565b949350505050565b5f602082840312156104fc575f80fd5b813573ffffffffffffffffffffffffffffffffffffffff8116811461051f575f80fd5b9392505050565b602081525f61051f602083018461040d565b7f4e487b71000000000000000000000000000000000000000000000000000000005f52604160045260245ffd5b7f4e487b71000000000000000000000000000000000000000000000000000000005f52603260045260245ffd5b5f82357fffffffffffffffffffffffffffffffffffffffffffffffffffffffffffffffc18336030181126105c4575f80fd5b9190910192915050565b5f8083357fffffffffffffffffffffffffffffffffffffffffffffffffffffffffffffffe1843603018112610601575f80fd5b83018035915067ffffffffffffffff82111561061b575f80fd5b60200191503681900382131561062f575f80fd5b9250929050565b818382375f9101908152919050565b73ffffffffffffffffffffffffffffffffffffffff8416815260406020820152816040820152818360608301375f818301606090810191909152601f9092017fffffffffffffffffffffffffffffffffffffffffffffffffffffffffffffffe01601019291505056fea26469706673582212204a84b8e2db423309f4e1d1bc53c4197869ca53952ebdf9bbec186269b75e918264736f6c63430008150033",
  "linkReferences": {},
  "deployedLinkReferences": {}
}