{
  "_format": "hh-sol-artifact-1",
  "contractName": "ERC20MetadataFacet",
  "sourceName": "contracts/token/ERC20/ERC20MetadataFacet.sol",
  "abi": [
    {
      "inputs": [
        {
          "internalType": "contract IForwarderRegistry",
          "name": "forwarderRegistry",
          "type": "address"
        }
      ],
      "stateMutability": "nonpayable",
      "type": "constructor"
    },
    {
      "inputs": [
        {
          "internalType": "string",
          "name": "uri",
          "type": "string"
        }
      ],
      "name": "initERC20MetadataStorage",
      "outputs": [],
      "stateMutability": "nonpayable",
      "type": "function"
    },
    {
      "inputs": [
        {
          "internalType": "string",
          "name": "uri",
          "type": "string"
        }
      ],
      "name": "setTokenURI",
      "outputs": [],
      "stateMutability": "nonpayable",
      "type": "function"
    },
    {
      "inputs": [],
      "name": "tokenURI",
      "outputs": [
        {
          "internalType": "string",
          "name": "",
          "type": "string"
        }
      ],
      "stateMutability": "view",
      "type": "function"
    }
  ],
  "bytecode": "0x60a06040523480156200001157600080fd5b5060405162001ea838038062001ea88339818101604052810190620000379190620001c8565b806200006c7f6a83522c126b1f14401cda64886fc651a7060f385b5e2d289e620e1859fee4e760001b6200014460201b60201c565b620000a07ff6fd3c5688ac3ada9425e55f9cce326a85fd64fca9b1584401f3d2203aee560b60001b6200014460201b60201c565b620000d47fe7883c748f395270b53c914004a2b83ffb6acf3836fed33ec0a3c0eb061e618860001b6200014460201b60201c565b8073ffffffffffffffffffffffffffffffffffffffff1660808173ffffffffffffffffffffffffffffffffffffffff1681525050506200013d7f9a7db2a214f84d87b8c275ac21449198c8ff4ad9e5f0b93d6312dfc19a8d2c4c60001b6200014760201b60201c565b50620001fa565b50565b50565b600080fd5b600073ffffffffffffffffffffffffffffffffffffffff82169050919050565b60006200017c826200014f565b9050919050565b600062000190826200016f565b9050919050565b620001a28162000183565b8114620001ae57600080fd5b50565b600081519050620001c28162000197565b92915050565b600060208284031215620001e157620001e06200014a565b5b6000620001f184828501620001b1565b91505092915050565b608051611c8b6200021d60003960008181610e9d0152610ef20152611c8b6000f3fe608060405234801561001057600080fd5b50600436106100415760003560e01c80633c130d90146100465780638592febf14610064578063e0df5b6f14610080575b600080fd5b61004e61009c565b60405161005b9190611755565b60405180910390f35b61007e600480360381019061007991906118c0565b6101bb565b005b61009a600480360381019061009591906118c0565b6102d5565b005b60606100ca7fba50c45fff06a6f4cdfac82d86f512d6e1a1690324ce5185c76bb4db3ae8fa0460001b6103f5565b6100f67fe06eabd224bd41626e05861ba80be241fb1e2974ce8a71bb877270edf2113c9460001b6103f5565b6101227f73c0dac8b8725a6e1d81e241ebbd22c9040cf8f0a79e32d464fe0f781f88e27860001b6103f5565b61012a6103f8565b600001805461013890611938565b80601f016020809104026020016040519081016040528092919081815260200182805461016490611938565b80156101b15780601f10610186576101008083540402835291602001916101b1565b820191906000526020600020905b81548152906001019060200180831161019457829003601f168201915b5050505050905090565b6101e77fca747d85b0931591c343ff654e66efb6fb88b74e9e6f9b1421218f210424a42d60001b6104e8565b6102137fcf7050771e10077b2f9c39e8a66435969758f1028d5851d077756051464412e460001b6104e8565b61023f7f4d7bc6ea47bc48177b8cab43d428bedca5e06ca639894ec69dd9a424a454171960001b6104e8565b61026061024a6104eb565b61025261057e565b61066e90919063ffffffff16565b61028c7f14f9ef9ec02f4736478241e74fd953cbf5ba83755b65c72b8bd720e5730ccfd860001b6104e8565b6102b87f85f568728b98bfc0e3067cc6a108edb4eb13538d077c1d338eebcb178676f85160001b6104e8565b6102d2816102c46103f8565b6107e090919063ffffffff16565b50565b6103017fffb7f1e834f576186bf66446d5a935fe013108ed81c960d64a76605db1c5422d60001b6103f5565b61032d7fb2f37e874160dd2183a96521c4174652e44011fd35658967c0a6984857ce886d60001b6103f5565b6103597f806e41952683f733cf7759a235e775fb50704b657ece4807d1a30b5acb8e060a60001b6103f5565b61037a6103646104eb565b61036c6109ab565b610a9b90919063ffffffff16565b6103a67f80fb3c43de99ee8d444d32476202ac644ba670ba18c59c720bf77ecd960efe9e60001b6103f5565b6103d27f194cb5ce3ecc064b5b33b0c08c5dab801a08b36b404828e71f55ead28aa9820a60001b6103f5565b806103db6103f8565b60000190805190602001906103f1929190611619565b5050565b50565b60006104267f16a8e4a4becf3aa830d50acf96f473c17c66cd705e1efeb4f2f0432d7dc0c94860001b610c0d565b6104527fa3a50f95c6f48cb2d8bbb2bce826e5c49776ca6bac1eed6f36de6442a7a5127960001b610c0d565b61047e7fc0f4f9d35bc42ac155ee9f2fab6dc06c18edae4a8b10ae17c42fe4062b1bb40260001b610c0d565b600060017fc87f43a14dc74565aeab7214ba5e19ad52d80ea872054c16beb27b00e72b6feb60001c6104b091906119a2565b60001b90506104e17fcdc63d101a84fdf353dc5d3a8c676a6ecd1589e2f7f350c56df8b10bcf2f123e60001b610c0d565b8091505090565b50565b60006105197fc4e87d658e0937fd0720bf799be9f477681726b1db6e3d5af12f699ef30e558e60001b6104e8565b6105457fa35bd4b894089d14445a46a243e8ad2846f30d655653d530a08141fe2aa4ea7d60001b6104e8565b6105717f15e6874a6159349119c03992584a46bc8b538e30fb60417840ec39aa3d7927c460001b6104e8565b610579610c10565b905090565b60006105ac7f29f8332165901d83adc683db950bfa7095446b76821902b9cad5a516e9f9f82660001b6110ad565b6105d87f5c570bd87bb3a186c2c87ff3dd5f58d2c75a5776fe94e0a63fa851fe46a5fa6c60001b6110ad565b6106047f405d85ac952971491b2260d550a90002555502250fb83d68df5efc35f77841ce60001b6110ad565b600060017fb53127684a568b3173ae13b9f8a6016e243e63b6e8ee1178d6a717850b5d610460001c61063691906119a2565b60001b90506106677f1d9ce065e06330dbac07abf26a98b6d505daa95772ac105ad61ed7479f8c2b1260001b6110ad565b8091505090565b61069a7fbc11fd154e3161de2183b89db4eb967bb1b4cbab0325086fa95095436c11e72b60001b6110ad565b6106c67f1815b032362e96a6d2f880b8f118c97fe36f9016e4d7dde560dc18768369a66d60001b6110ad565b6106f27f25f11631eb07cc17d412b02bd63f72577eb8df190f4046eb3478c12a4bb8ae6860001b6110ad565b61071e7ff4fb509d189314ad76c001fa3c672e032a121e16ca67380d998b64660c91044960001b6110ad565b8160000160009054906101000a900473ffffffffffffffffffffffffffffffffffffffff1673ffffffffffffffffffffffffffffffffffffffff168173ffffffffffffffffffffffffffffffffffffffff16146107b0576040517f08c379a00000000000000000000000000000000000000000000000000000000081526004016107a790611a22565b60405180910390fd5b6107dc7f059066040512573aa34012041b24446b05cb97113084d9f5307dec4a489aeed260001b6110ad565b5050565b61080c7f25cc5b9aa3a3db826e4eb4bb6ea9b212227e59a1cea6f11ad5e96d1297bf450a60001b610c0d565b6108387f93f985d63583fe27ba2f53ed499c50308b952f1c12c67e3f95c83ca722d048a860001b610c0d565b6108647f1647388efe2e072eb890bde72a625ef4eeb5e49941aad6d2a862c18cfa4a0d8560001b610c0d565b6108a160017f549fae1d84472c847c31d7a237ccb8ce07bfaea941646b37e7bd4044c9d1ae7c60001c61089791906119a2565b60001b60016110b0565b6108cd7fc383fe26a7c70ec3c17f4e980841a24f2c28fef3d3d2fc71057fa6754814d9f360001b610c0d565b6108f97fd6cc041d2996ff1cfd999ba6b1670053164c485062baf2a9b6c546b286413c9360001b610c0d565b80826000019080519060200190610911929190611619565b5061093e7f80557d60b8a33d6fa2453f8a6fa3355384fb39d2fe1bd31745522c9a096fa8c060001b610c0d565b61096a7f8a6fb72076710bff924e10d02ce3b549af7bac5eb5a472339906c110840c6c4760001b610c0d565b6109a77f3c130d9000000000000000000000000000000000000000000000000000000000600161099861129d565b61138d9092919063ffffffff16565b5050565b60006109d97f12b4db1a13ae954a255ef0fa37765d8ee1e39537e429053253a663eff808644d60001b611599565b610a057feebae444011023bb1eb9d991a8900c1fc6c9dc05e526ab9149645480ea211c3e60001b611599565b610a317f7a85e8875e57667831d822c4c89a943f00106e2fdc910c0df83014dfd0d1477360001b611599565b600060017f6a1da6973104ff7dedb9b4f5cab5830b3f4a0284ed754366cfc45568bd2d38df60001c610a6391906119a2565b60001b9050610a947fcd65f8dce9f650605649809ea57b1b403b2167736801d4eb4d6da1b99327986060001b611599565b8091505090565b610ac77f311cb72dc07750d6828e4b4e89b77f33fb16c70db0f74c9dbf7e01b75fe2538460001b611599565b610af37f5a948a147df45bdb71c8f98a865604b23d4880b5921ab247626470201792a9d460001b611599565b610b1f7faa1ac481ace62e8856a31e42b6fa6ad7e8b29c10fa062b8775baa1bf5185f76360001b611599565b610b4b7fa565745ecf1d7ea43fd9e19c5a7b72dbef31f2d274ba98df9594459d1fdda02f60001b611599565b8160000160009054906101000a900473ffffffffffffffffffffffffffffffffffffffff1673ffffffffffffffffffffffffffffffffffffffff168173ffffffffffffffffffffffffffffffffffffffff1614610bdd576040517f08c379a0000000000000000000000000000000000000000000000000000000008152600401610bd490611a8e565b60405180910390fd5b610c097f3cdf1cbcd193a5f563b48f16d650e4ae6a3f20aa956e2ea1fe221c3ff0241bd160001b611599565b5050565b50565b6000610c3e7f21f83b85e7dbc596177bc46cc6795c14520638d6db8281a9a46e4d6aa22fb1aa60001b61159c565b610c6a7f9fe8a1e1e7c5f38bddac874222fbac3da358d377b550af606038c28c918342a660001b61159c565b610c967f4d776035fe014c48f9b8d211e07ad5f3e10a7407e640d6fd44f001ad72ec145460001b61159c565b6000339050610cc77f1470143c211ace273ad33be67e446aa27b56df8ff21c9e30df1c1ce1aab37faf60001b61159c565b610cf37f701a5aed6b7834b1cde40063ca2763d0cc2a2d369e96d6ffd63bd7f36d010be860001b61159c565b3273ffffffffffffffffffffffffffffffffffffffff168173ffffffffffffffffffffffffffffffffffffffff1603610db357610d527fde73d737f19da71f7e0a8be64041464998117e05c9bb9f65df2259a0779caaa960001b61159c565b610d7e7f2e1b1201e86447778e6a37c8701809fecc19c6c17c8cdf9a32e27254363f132c60001b61159c565b610daa7f06438a6776a73eebdc69485314350483a51cfddc04e159b6f57dde5e4030039060001b61159c565b809150506110aa565b610ddf7f6b510e6cfe0d366d8eb68be09db038d2dbfc0ca71029993b650b184340fc438a60001b61159c565b610e0b7fc81f2aa3e9c76ff8d9709ad059857726fb537b8fa6166dbedc9e3f598edddc4160001b61159c565b610e377fd5cec79665173c3237287beadc96f615eba8ff220376c7f0add1c603fa1dcb0260001b61159c565b6000610e4161159f565b9050610e6f7f16b7bdd4d503ca2d391b420534e7b71ff847aea146e0c5e9b1d972d25ac95cf360001b61159c565b610e9b7f8284349b0a2249652b224d12d5fd826a549839b4e0aab6630e88a99ebee0413860001b61159c565b7f000000000000000000000000000000000000000000000000000000000000000073ffffffffffffffffffffffffffffffffffffffff168273ffffffffffffffffffffffffffffffffffffffff161480610f8d57507f000000000000000000000000000000000000000000000000000000000000000073ffffffffffffffffffffffffffffffffffffffff1663e60125d682846040518363ffffffff1660e01b8152600401610f4b929190611aef565b602060405180830381865afa158015610f68573d6000803e3d6000fd5b505050506040513d601f19601f82011682018060405250810190610f8c9190611b50565b5b1561102057610fbe7ff1748450d5c67d16e99d465b5f46314c0a03cb614c0a36c7a01d0d452a42d63760001b61159c565b610fea7ffcb9fb7b37e10dcd260ee2b6500d072708cde8b16110ac602ac219c4f0ac7a8860001b61159c565b6110167f0b8b6cb7f0d04c4b23441400a0a579a14ccf6e6d955d51d0d443ae3b764fbf1e60001b61159c565b80925050506110aa565b61104c7fc6338ea7b912cb871ae88b37af8abae50806bb4e29d453caf0758aea491b82ab60001b61159c565b6110787fb1b2861ba78bbb686a91db34f76b76efe61d8e91016be1013861a8390b68a26860001b61159c565b6110a47f131b91089cbc4af49187f8d51fbbc23a25f13946f6ab1ab771005101548d429760001b61159c565b81925050505b90565b50565b6110dc7f523c5c55fa27c1465eb0ba13f6927ac81ca2e843dca5743a6ceafc60fd44a7a260001b611606565b6111087f04772ea788fd843b127a602e9cfb0c6a91dd658dfc8c6564fb399afa5c8187c060001b611606565b6111347fcb69cb3c0f8a75e2c548a59a9a6f16480c220dc9611455e2f2a5ff64c19012f660001b611606565b600061113f83611609565b905061116d7f05454e9c8dc486b9dafcaafcc4a6b37e8e4a0bd10c5a957d6788a08d4705e74a60001b611606565b6111997f545be28ad664a45fbd66a4b1cf9af17e7b7fa1c0858756e55615423b09c10cf960001b611606565b6111c57f7b74d3cbf19e745235b98e2e533402f6fea14c7950d83932d7459f8c0776ae7560001b611606565b8181600001541061120b576040517f08c379a000000000000000000000000000000000000000000000000000000000815260040161120290611bc9565b60405180910390fd5b6112377fb77e179c39cd483a2fb9d49c9d6baaf337e679c6fc0b0193351b78700052fb6060001b611606565b6112637f73251853a52f4546290b9dbdb4820ad06a75d361304d051af620ac9db846f98760001b611606565b61128f7f8670f345bbc08bb652aae01676abdbb142983e1527aecdd350c544d4ac9aa25360001b611606565b818160000181905550505050565b60006112cb7f33dac451eefd1a6808163eecf8d47d7cba5f56d00787de044ff0ddc2ee89447d60001b611613565b6112f77f80b5daaa693fe30ccf9f1f19243499ce9fe4bada91264dd37e7099a713fc8c0360001b611613565b6113237f66e2273229caef60ac0be45d070cc66ba1aaceeca2776bdf1fc50206d54f0f2260001b611613565b600060017f7180ffa89c91cf90d6c56dacabfc69bc5e36f3099d7eed2f5cc12c5dba016fe060001c61135591906119a2565b60001b90506113867f283bb7ffa148f4f77b397c4f3d35798bfd3f1214dd2b6c078e2824cd344247cc60001b611613565b8091505090565b6113b97ffeeaaad6b1efab2833cc700d80f740603a4ac6746f8e38068c950d299cc199bf60001b611613565b6113e57f3ca2cb9a9b6e35728cedd7c19d4c121988341387931213a51eab1b4bbaf4113560001b611613565b6114117f1f9cdb98c65d0ad87aac43319c2670926bcb7c14904c7f9d4ade6235d82de71960001b611613565b61143d7f5dbdac164f3e02893e8f90adfbe776f3f50c85847d234ab6fb16b0a4846759d760001b611613565b63ffffffff60e01b827bffffffffffffffffffffffffffffffffffffffffffffffffffffffff1916036114a5576040517f08c379a000000000000000000000000000000000000000000000000000000000815260040161149c90611c35565b60405180910390fd5b6114d17fd6b36b8472d324009615e496388c108ffb1831ab3bd7bded72d29ac4baf2ad1e60001b611613565b6114fd7f7b2218cefa5bbb0f0239126c55783358df88ffab00f11d9c8f8e38985d9a8c9860001b611613565b6115297f2ad1063a0d34755f3bea24bcd3cfaff3dbbf63fbfa3f9b4c9c252fdffa66ed3360001b611613565b80836000016000847bffffffffffffffffffffffffffffffffffffffffffffffffffffffff19167bffffffffffffffffffffffffffffffffffffffffffffffffffffffff1916815260200190815260200160002060006101000a81548160ff021916908315150217905550505050565b50565b50565b60006115cd7fd2d14d566965719ee17c5b60ff32623f910e7a0e574f2eeae19a64856bd35c4c60001b611616565b6115f97fa390d1eca31ebd819e35c63e13daa420bd40dcdd984217eef68768880371b01d60001b611616565b601436033560601c905090565b50565b6000819050919050565b50565b50565b82805461162590611938565b90600052602060002090601f016020900481019282611647576000855561168e565b82601f1061166057805160ff191683800117855561168e565b8280016001018555821561168e579182015b8281111561168d578251825591602001919060010190611672565b5b50905061169b919061169f565b5090565b5b808211156116b85760008160009055506001016116a0565b5090565b600081519050919050565b600082825260208201905092915050565b60005b838110156116f65780820151818401526020810190506116db565b83811115611705576000848401525b50505050565b6000601f19601f8301169050919050565b6000611727826116bc565b61173181856116c7565b93506117418185602086016116d8565b61174a8161170b565b840191505092915050565b6000602082019050818103600083015261176f818461171c565b905092915050565b6000604051905090565b600080fd5b600080fd5b600080fd5b600080fd5b7f4e487b7100000000000000000000000000000000000000000000000000000000600052604160045260246000fd5b6117cd8261170b565b810181811067ffffffffffffffff821117156117ec576117eb611795565b5b80604052505050565b60006117ff611777565b905061180b82826117c4565b919050565b600067ffffffffffffffff82111561182b5761182a611795565b5b6118348261170b565b9050602081019050919050565b82818337600083830152505050565b600061186361185e84611810565b6117f5565b90508281526020810184848401111561187f5761187e611790565b5b61188a848285611841565b509392505050565b600082601f8301126118a7576118a661178b565b5b81356118b7848260208601611850565b91505092915050565b6000602082840312156118d6576118d5611781565b5b600082013567ffffffffffffffff8111156118f4576118f3611786565b5b61190084828501611892565b91505092915050565b7f4e487b7100000000000000000000000000000000000000000000000000000000600052602260045260246000fd5b6000600282049050600182168061195057607f821691505b60208210810361196357611962611909565b5b50919050565b6000819050919050565b7f4e487b7100000000000000000000000000000000000000000000000000000000600052601160045260246000fd5b60006119ad82611969565b91506119b883611969565b9250828210156119cb576119ca611973565b5b828203905092915050565b7f50726f787941646d696e3a206e6f74207468652061646d696e00000000000000600082015250565b6000611a0c6019836116c7565b9150611a17826119d6565b602082019050919050565b60006020820190508181036000830152611a3b816119ff565b9050919050565b7f4f776e6572736869703a206e6f7420746865206f776e65720000000000000000600082015250565b6000611a786018836116c7565b9150611a8382611a42565b602082019050919050565b60006020820190508181036000830152611aa781611a6b565b9050919050565b600073ffffffffffffffffffffffffffffffffffffffff82169050919050565b6000611ad982611aae565b9050919050565b611ae981611ace565b82525050565b6000604082019050611b046000830185611ae0565b611b116020830184611ae0565b9392505050565b60008115159050919050565b611b2d81611b18565b8114611b3857600080fd5b50565b600081519050611b4a81611b24565b92915050565b600060208284031215611b6657611b65611781565b5b6000611b7484828501611b3b565b91505092915050565b7f53746f726167653a2076657273696f6e20726561636865640000000000000000600082015250565b6000611bb36018836116c7565b9150611bbe82611b7d565b602082019050919050565b60006020820190508181036000830152611be281611ba6565b9050919050565b7f496e74657266616365446574656374696f6e3a2077726f6e672076616c756500600082015250565b6000611c1f601f836116c7565b9150611c2a82611be9565b602082019050919050565b60006020820190508181036000830152611c4e81611c12565b905091905056fea2646970667358221220668bd8a833ad93c0a54b11b49b70f97b1ad08b7c59165b18f3fd8bc3cfdf218064736f6c634300080d0033",
  "linkReferences": {},
  "deployedLinkReferences": {}
}