{
  "_format": "hh-sol-artifact-1",
  "contractName": "ProxyAdminMock",
  "sourceName": "contracts/mocks/proxy/ProxyAdminMock.sol",
  "abi": [
    {
      "inputs": [
        {
          "internalType": "address",
          "name": "admin",
          "type": "address"
        }
      ],
      "stateMutability": "nonpayable",
      "type": "constructor"
    },
    {
      "anonymous": false,
      "inputs": [
        {
          "indexed": false,
          "internalType": "address",
          "name": "previousAdmin",
          "type": "address"
        },
        {
          "indexed": false,
          "internalType": "address",
          "name": "newAdmin",
          "type": "address"
        }
      ],
      "name": "AdminChanged",
      "type": "event"
    },
    {
      "inputs": [
        {
          "internalType": "address",
          "name": "newAdmin",
          "type": "address"
        }
      ],
      "name": "changeProxyAdmin",
      "outputs": [],
      "stateMutability": "nonpayable",
      "type": "function"
    },
    {
      "inputs": [
        {
          "internalType": "address",
          "name": "account",
          "type": "address"
        }
      ],
      "name": "enforceIsProxyAdmin",
      "outputs": [],
      "stateMutability": "view",
      "type": "function"
    },
    {
      "inputs": [],
      "name": "proxyAdmin",
      "outputs": [
        {
          "internalType": "address",
          "name": "admin",
          "type": "address"
        }
      ],
      "stateMutability": "view",
      "type": "function"
    }
  ],
  "bytecode": "0x608060405234801561001057600080fd5b5060405161064838038061064883398101604081905261002f91610147565b806100588161004661005f60201b6100f41760201c565b61009360201b6101281790919060201c565b505061019c565b60008061008d60017fb53127684a568b3173ae13b9f8a6016e243e63b6e8ee1178d6a717850b5d6104610177565b92915050565b6001600160a01b0381166100ed5760405162461bcd60e51b815260206004820152601c60248201527f50726f787941646d696e3a206e6f20696e697469616c2061646d696e00000000604482015260640160405180910390fd5b81546001600160a01b0319166001600160a01b0382169081178355604080516000815260208101929092527f7e644d79422f17c01e4894b5f4f588d331ebfa28653d42ae832dc59e38c9798f910160405180910390a15050565b60006020828403121561015957600080fd5b81516001600160a01b038116811461017057600080fd5b9392505050565b60008282101561019757634e487b7160e01b600052601160045260246000fd5b500390565b61049d806101ab6000396000f3fe608060405234801561001057600080fd5b50600436106100415760003560e01c80633e47158c146100465780638eafcf67146100775780639f712f2f1461008c575b600080fd5b61004e61009f565b60405173ffffffffffffffffffffffffffffffffffffffff909116815260200160405180910390f35b61008a6100853660046103ec565b6100cb565b005b61008a61009a3660046103ec565b6100e0565b60006100c66100ac6100f4565b5473ffffffffffffffffffffffffffffffffffffffff1690565b905090565b6100dd816100d76100f4565b90610229565b50565b6100dd33826100ed6100f4565b91906102b0565b60008061012260017fb53127684a568b3173ae13b9f8a6016e243e63b6e8ee1178d6a717850b5d6104610429565b92915050565b73ffffffffffffffffffffffffffffffffffffffff81166101aa576040517f08c379a000000000000000000000000000000000000000000000000000000000815260206004820152601c60248201527f50726f787941646d696e3a206e6f20696e697469616c2061646d696e0000000060448201526064015b60405180910390fd5b81547fffffffffffffffffffffffff00000000000000000000000000000000000000001673ffffffffffffffffffffffffffffffffffffffff82169081178355604080516000815260208101929092527f7e644d79422f17c01e4894b5f4f588d331ebfa28653d42ae832dc59e38c9798f910160405180910390a15050565b815473ffffffffffffffffffffffffffffffffffffffff8281169116146102ac576040517f08c379a000000000000000000000000000000000000000000000000000000000815260206004820152601960248201527f50726f787941646d696e3a206e6f74207468652061646d696e0000000000000060448201526064016101a1565b5050565b825473ffffffffffffffffffffffffffffffffffffffff9081169083168114610335576040517f08c379a000000000000000000000000000000000000000000000000000000000815260206004820152601960248201527f50726f787941646d696e3a206e6f74207468652061646d696e0000000000000060448201526064016101a1565b8173ffffffffffffffffffffffffffffffffffffffff168173ffffffffffffffffffffffffffffffffffffffff16146103e65783547fffffffffffffffffffffffff00000000000000000000000000000000000000001673ffffffffffffffffffffffffffffffffffffffff838116918217865560408051918416825260208201929092527f7e644d79422f17c01e4894b5f4f588d331ebfa28653d42ae832dc59e38c9798f910160405180910390a15b50505050565b6000602082840312156103fe57600080fd5b813573ffffffffffffffffffffffffffffffffffffffff8116811461042257600080fd5b9392505050565b600082821015610462577f4e487b7100000000000000000000000000000000000000000000000000000000600052601160045260246000fd5b50039056fea2646970667358221220ea0272c106133926920e089bd888afbb28b90eb1f7335be42628178756c3bd9564736f6c634300080e0033",
  "linkReferences": {},
  "deployedLinkReferences": {}
}