{
  "_format": "hh-sol-artifact-1",
  "contractName": "ProxyAdminMock",
  "sourceName": "contracts/mocks/proxy/ProxyAdminMock.sol",
  "abi": [
    {
      "inputs": [
        {
          "internalType": "address",
          "name": "admin",
          "type": "address"
        },
        {
          "internalType": "contract IForwarderRegistry",
          "name": "forwarderRegistry",
          "type": "address"
        }
      ],
      "stateMutability": "nonpayable",
      "type": "constructor"
    },
    {
      "anonymous": false,
      "inputs": [
        {
          "indexed": false,
          "internalType": "address",
          "name": "previousAdmin",
          "type": "address"
        },
        {
          "indexed": false,
          "internalType": "address",
          "name": "newAdmin",
          "type": "address"
        }
      ],
      "name": "AdminChanged",
      "type": "event"
    },
    {
      "inputs": [],
      "name": "__msgData",
      "outputs": [
        {
          "internalType": "bytes",
          "name": "",
          "type": "bytes"
        }
      ],
      "stateMutability": "view",
      "type": "function"
    },
    {
      "inputs": [
        {
          "internalType": "address",
          "name": "newAdmin",
          "type": "address"
        }
      ],
      "name": "changeProxyAdmin",
      "outputs": [],
      "stateMutability": "nonpayable",
      "type": "function"
    },
    {
      "inputs": [
        {
          "internalType": "address",
          "name": "account",
          "type": "address"
        }
      ],
      "name": "enforceIsProxyAdmin",
      "outputs": [],
      "stateMutability": "view",
      "type": "function"
    },
    {
      "inputs": [],
      "name": "forwarderRegistry",
      "outputs": [
        {
          "internalType": "contract IForwarderRegistry",
          "name": "",
          "type": "address"
        }
      ],
      "stateMutability": "view",
      "type": "function"
    },
    {
      "inputs": [
        {
          "internalType": "address",
          "name": "forwarder",
          "type": "address"
        }
      ],
      "name": "isTrustedForwarder",
      "outputs": [
        {
          "internalType": "bool",
          "name": "",
          "type": "bool"
        }
      ],
      "stateMutability": "view",
      "type": "function"
    },
    {
      "inputs": [],
      "name": "proxyAdmin",
      "outputs": [
        {
          "internalType": "address",
          "name": "admin",
          "type": "address"
        }
      ],
      "stateMutability": "view",
      "type": "function"
    }
  ],
  "bytecode": "0x60a060405234801561001057600080fd5b506040516109ff3803806109ff83398101604081905261002f9161015a565b8080836100448161003e61005a565b9061008e565b506001600160a01b0316608052506101b5915050565b60008061008860017fb53127684a568b3173ae13b9f8a6016e243e63b6e8ee1178d6a717850b5d6104610194565b92915050565b6001600160a01b0381166100e85760405162461bcd60e51b815260206004820152601c60248201527f50726f787941646d696e3a206e6f20696e697469616c2061646d696e00000000604482015260640160405180910390fd5b81546001600160a01b0319166001600160a01b0382169081178355604080516000815260208101929092527f7e644d79422f17c01e4894b5f4f588d331ebfa28653d42ae832dc59e38c9798f910160405180910390a15050565b6001600160a01b038116811461015757600080fd5b50565b6000806040838503121561016d57600080fd5b825161017881610142565b602084015190925061018981610142565b809150509250929050565b8181038181111561008857634e487b7160e01b600052601160045260246000fd5b60805161080e6101f16000396000818160790152818160f10152818161041d0152818161045b01528181610593015261061b015261080e6000f3fe608060405234801561001057600080fd5b50600436106100725760003560e01c8063572b6c0511610050578063572b6c05146100e15780638eafcf671461013e5780639f712f2f1461015357600080fd5b80632b4c9f161461007757806331e66e1e146100c35780633e47158c146100d9575b600080fd5b7f00000000000000000000000000000000000000000000000000000000000000005b60405173ffffffffffffffffffffffffffffffffffffffff90911681526020015b60405180910390f35b6100cb610166565b6040516100ba9291906106c8565b610099610179565b61012e6100ef366004610715565b7f000000000000000000000000000000000000000000000000000000000000000073ffffffffffffffffffffffffffffffffffffffff90811691161490565b60405190151581526020016100ba565b61015161014c366004610715565b6101a5565b005b610151610161366004610715565b6101ba565b3660006101716101d5565b915091509091565b60006101a06101866101e0565b5473ffffffffffffffffffffffffffffffffffffffff1690565b905090565b6101b7816101b16101e0565b90610214565b50565b6101b76101c56102a0565b826101ce6101e0565b91906102aa565b3660006101716103e6565b60008061020e60017fb53127684a568b3173ae13b9f8a6016e243e63b6e8ee1178d6a717850b5d6104610752565b92915050565b815473ffffffffffffffffffffffffffffffffffffffff82811691161461029c576040517f08c379a000000000000000000000000000000000000000000000000000000000815260206004820152601960248201527f50726f787941646d696e3a206e6f74207468652061646d696e0000000000000060448201526064015b60405180910390fd5b5050565b60006101a0610550565b825473ffffffffffffffffffffffffffffffffffffffff908116908316811461032f576040517f08c379a000000000000000000000000000000000000000000000000000000000815260206004820152601960248201527f50726f787941646d696e3a206e6f74207468652061646d696e000000000000006044820152606401610293565b8173ffffffffffffffffffffffffffffffffffffffff168173ffffffffffffffffffffffffffffffffffffffff16146103e05783547fffffffffffffffffffffffff00000000000000000000000000000000000000001673ffffffffffffffffffffffffffffffffffffffff838116918217865560408051918416825260208201929092527f7e644d79422f17c01e4894b5f4f588d331ebfa28653d42ae832dc59e38c9798f910160405180910390a15b50505050565b366000333214806103f75750601836105b156104055750600091369150565b3373ffffffffffffffffffffffffffffffffffffffff7f000000000000000000000000000000000000000000000000000000000000000016148061053a575073ffffffffffffffffffffffffffffffffffffffff7f000000000000000000000000000000000000000000000000000000000000000016638929a8ca367fffffffffffffffffffffffffffffffffffffffffffffffffffffffffffffffec013560601c6040517fffffffff0000000000000000000000000000000000000000000000000000000060e084901b16815273ffffffffffffffffffffffffffffffffffffffff9091166004820152336024820152604401602060405180830381865afa158015610516573d6000803e3d6000fd5b505050506040513d601f19601f8201168201806040525081019061053a919061078c565b1561054757610171610697565b50600091369150565b6000333214806105605750601836105b1561056a57503390565b7fffffffffffffffffffffffffffffffffffffffffffffffffffffffffffffffec36013560601c7f000000000000000000000000000000000000000000000000000000000000000073ffffffffffffffffffffffffffffffffffffffff1633148061068657506040517f8929a8ca00000000000000000000000000000000000000000000000000000000815273ffffffffffffffffffffffffffffffffffffffff82811660048301523360248301527f00000000000000000000000000000000000000000000000000000000000000001690638929a8ca90604401602060405180830381865afa158015610662573d6000803e3d6000fd5b505050506040513d601f19601f82011682018060405250810190610686919061078c565b1561069057919050565b3391505090565b3660006101717fffffffffffffffffffffffffffffffffffffffffffffffffffffffffffffffec83018284816107ae565b60208152816020820152818360408301376000818301604090810191909152601f9092017fffffffffffffffffffffffffffffffffffffffffffffffffffffffffffffffe0160101919050565b60006020828403121561072757600080fd5b813573ffffffffffffffffffffffffffffffffffffffff8116811461074b57600080fd5b9392505050565b8181038181111561020e577f4e487b7100000000000000000000000000000000000000000000000000000000600052601160045260246000fd5b60006020828403121561079e57600080fd5b8151801515811461074b57600080fd5b600080858511156107be57600080fd5b838611156107cb57600080fd5b505082019391909203915056fea26469706673582212203381ed0d8a86ff6fc091441e805e86c0f61723ae548a609ee2fece9c509a2e6664736f6c63430008130033",
  "linkReferences": {},
  "deployedLinkReferences": {}
}