{
  "_format": "hh-sol-artifact-1",
  "contractName": "ProxyAdminMock",
  "sourceName": "contracts/mocks/proxy/ProxyAdminMock.sol",
  "abi": [
    {
      "inputs": [
        {
          "internalType": "address",
          "name": "admin",
          "type": "address"
        }
      ],
      "stateMutability": "nonpayable",
      "type": "constructor"
    },
    {
      "anonymous": false,
      "inputs": [
        {
          "indexed": false,
          "internalType": "address",
          "name": "previousAdmin",
          "type": "address"
        },
        {
          "indexed": false,
          "internalType": "address",
          "name": "newAdmin",
          "type": "address"
        }
      ],
      "name": "AdminChanged",
      "type": "event"
    },
    {
      "inputs": [
        {
          "internalType": "address",
          "name": "newAdmin",
          "type": "address"
        }
      ],
      "name": "changeProxyAdmin",
      "outputs": [],
      "stateMutability": "nonpayable",
      "type": "function"
    },
    {
      "inputs": [
        {
          "internalType": "address",
          "name": "account",
          "type": "address"
        }
      ],
      "name": "enforceIsProxyAdmin",
      "outputs": [],
      "stateMutability": "view",
      "type": "function"
    },
    {
      "inputs": [],
      "name": "proxyAdmin",
      "outputs": [
        {
          "internalType": "address",
          "name": "admin",
          "type": "address"
        }
      ],
      "stateMutability": "view",
      "type": "function"
    }
  ],
  "bytecode": "0x608060405234801561001057600080fd5b506040516107a43803806107a483398101604081905261002f916101fb565b806100588161004661005f60201b6100f41760201c565b61009360201b6101281790919060201c565b5050610250565b60008061008d60017fb53127684a568b3173ae13b9f8a6016e243e63b6e8ee1178d6a717850b5d610461022b565b92915050565b6100d56100c160017f4ba39e466466abda8ede3880e9caad29e2f559ec3de284b4c5c4d6b8b206de2061022b565b60001b600161018a60201b61025e1760201c565b6001600160a01b0381166101305760405162461bcd60e51b815260206004820152601c60248201527f50726f787941646d696e3a206e6f20696e697469616c2061646d696e0000000060448201526064015b60405180910390fd5b81546001600160a01b0319166001600160a01b0382169081178355604080516000815260208101929092527f7e644d79422f17c01e4894b5f4f588d331ebfa28653d42ae832dc59e38c9798f910160405180910390a15050565b600061019f836101f860201b6102ce1760201c565b9050818160000154106101f45760405162461bcd60e51b815260206004820152601860248201527f53746f726167653a2076657273696f6e207265616368656400000000000000006044820152606401610127565b5550565b90565b60006020828403121561020d57600080fd5b81516001600160a01b038116811461022457600080fd5b9392505050565b60008282101561024b57634e487b7160e01b600052601160045260246000fd5b500390565b6105458061025f6000396000f3fe608060405234801561001057600080fd5b50600436106100415760003560e01c80633e47158c146100465780638eafcf67146100775780639f712f2f1461008c575b600080fd5b61004e61009f565b60405173ffffffffffffffffffffffffffffffffffffffff909116815260200160405180910390f35b61008a610085366004610494565b6100cb565b005b61008a61009a366004610494565b6100e0565b60006100c66100ac6100f4565b5473ffffffffffffffffffffffffffffffffffffffff1690565b905090565b6100dd816100d76100f4565b906102d1565b50565b6100dd33826100ed6100f4565b9190610358565b60008061012260017fb53127684a568b3173ae13b9f8a6016e243e63b6e8ee1178d6a717850b5d61046104d1565b92915050565b61015d61015660017f4ba39e466466abda8ede3880e9caad29e2f559ec3de284b4c5c4d6b8b206de206104d1565b600161025e565b73ffffffffffffffffffffffffffffffffffffffff81166101df576040517f08c379a000000000000000000000000000000000000000000000000000000000815260206004820152601c60248201527f50726f787941646d696e3a206e6f20696e697469616c2061646d696e0000000060448201526064015b60405180910390fd5b81547fffffffffffffffffffffffff00000000000000000000000000000000000000001673ffffffffffffffffffffffffffffffffffffffff82169081178355604080516000815260208101929092527f7e644d79422f17c01e4894b5f4f588d331ebfa28653d42ae832dc59e38c9798f910160405180910390a15050565b8154829082116102ca576040517f08c379a000000000000000000000000000000000000000000000000000000000815260206004820152601860248201527f53746f726167653a2076657273696f6e2072656163686564000000000000000060448201526064016101d6565b5550565b90565b815473ffffffffffffffffffffffffffffffffffffffff828116911614610354576040517f08c379a000000000000000000000000000000000000000000000000000000000815260206004820152601960248201527f50726f787941646d696e3a206e6f74207468652061646d696e0000000000000060448201526064016101d6565b5050565b825473ffffffffffffffffffffffffffffffffffffffff90811690831681146103dd576040517f08c379a000000000000000000000000000000000000000000000000000000000815260206004820152601960248201527f50726f787941646d696e3a206e6f74207468652061646d696e0000000000000060448201526064016101d6565b8173ffffffffffffffffffffffffffffffffffffffff168173ffffffffffffffffffffffffffffffffffffffff161461048e5783547fffffffffffffffffffffffff00000000000000000000000000000000000000001673ffffffffffffffffffffffffffffffffffffffff838116918217865560408051918416825260208201929092527f7e644d79422f17c01e4894b5f4f588d331ebfa28653d42ae832dc59e38c9798f910160405180910390a15b50505050565b6000602082840312156104a657600080fd5b813573ffffffffffffffffffffffffffffffffffffffff811681146104ca57600080fd5b9392505050565b60008282101561050a577f4e487b7100000000000000000000000000000000000000000000000000000000600052601160045260246000fd5b50039056fea2646970667358221220203c6bae451a07552fa883ad167a385ff35fdf044e1eea8554109ef23a22b03664736f6c634300080e0033",
  "linkReferences": {},
  "deployedLinkReferences": {}
}