{
  "_format": "hh-sol-artifact-1",
  "contractName": "ProxyAdminMock",
  "sourceName": "contracts/mocks/proxy/ProxyAdminMock.sol",
  "abi": [
    {
      "inputs": [
        {
          "internalType": "address",
          "name": "admin",
          "type": "address"
        },
        {
          "internalType": "contract IForwarderRegistry",
          "name": "forwarderRegistry",
          "type": "address"
        }
      ],
      "stateMutability": "nonpayable",
      "type": "constructor"
    },
    {
      "anonymous": false,
      "inputs": [
        {
          "indexed": false,
          "internalType": "address",
          "name": "previousAdmin",
          "type": "address"
        },
        {
          "indexed": false,
          "internalType": "address",
          "name": "newAdmin",
          "type": "address"
        }
      ],
      "name": "AdminChanged",
      "type": "event"
    },
    {
      "inputs": [],
      "name": "__msgData",
      "outputs": [
        {
          "internalType": "bytes",
          "name": "",
          "type": "bytes"
        }
      ],
      "stateMutability": "view",
      "type": "function"
    },
    {
      "inputs": [
        {
          "internalType": "address",
          "name": "newAdmin",
          "type": "address"
        }
      ],
      "name": "changeProxyAdmin",
      "outputs": [],
      "stateMutability": "nonpayable",
      "type": "function"
    },
    {
      "inputs": [
        {
          "internalType": "address",
          "name": "account",
          "type": "address"
        }
      ],
      "name": "enforceIsProxyAdmin",
      "outputs": [],
      "stateMutability": "view",
      "type": "function"
    },
    {
      "inputs": [],
      "name": "forwarderRegistry",
      "outputs": [
        {
          "internalType": "contract IForwarderRegistry",
          "name": "",
          "type": "address"
        }
      ],
      "stateMutability": "view",
      "type": "function"
    },
    {
      "inputs": [
        {
          "internalType": "address",
          "name": "forwarder",
          "type": "address"
        }
      ],
      "name": "isTrustedForwarder",
      "outputs": [
        {
          "internalType": "bool",
          "name": "",
          "type": "bool"
        }
      ],
      "stateMutability": "view",
      "type": "function"
    },
    {
      "inputs": [],
      "name": "proxyAdmin",
      "outputs": [
        {
          "internalType": "address",
          "name": "admin",
          "type": "address"
        }
      ],
      "stateMutability": "view",
      "type": "function"
    }
  ],
  "bytecode": "0x60a060405234801561000f575f80fd5b506040516109d63803806109d683398101604081905261002e91610156565b8080836100438161003d610059565b9061008c565b506001600160a01b0316608052506101ad915050565b5f8061008660017fb53127684a568b3173ae13b9f8a6016e243e63b6e8ee1178d6a717850b5d610461018e565b92915050565b6001600160a01b0381166100e65760405162461bcd60e51b815260206004820152601c60248201527f50726f787941646d696e3a206e6f20696e697469616c2061646d696e00000000604482015260640160405180910390fd5b81546001600160a01b0319166001600160a01b0382169081178355604080515f815260208101929092527f7e644d79422f17c01e4894b5f4f588d331ebfa28653d42ae832dc59e38c9798f910160405180910390a15050565b6001600160a01b0381168114610153575f80fd5b50565b5f8060408385031215610167575f80fd5b82516101728161013f565b60208401519092506101838161013f565b809150509250929050565b8181038181111561008657634e487b7160e01b5f52601160045260245ffd5b6080516107f06101e65f395f818160750152818160ed015281816104120152818161045001528181610584015261060c01526107f05ff3fe608060405234801561000f575f80fd5b506004361061006f575f3560e01c8063572b6c051161004d578063572b6c05146100dd5780638eafcf671461013a5780639f712f2f1461014f575f80fd5b80632b4c9f161461007357806331e66e1e146100bf5780633e47158c146100d5575b5f80fd5b7f00000000000000000000000000000000000000000000000000000000000000005b60405173ffffffffffffffffffffffffffffffffffffffff90911681526020015b60405180910390f35b6100c7610162565b6040516100b69291906106b6565b610095610174565b61012a6100eb366004610702565b7f000000000000000000000000000000000000000000000000000000000000000073ffffffffffffffffffffffffffffffffffffffff90811691161490565b60405190151581526020016100b6565b61014d610148366004610702565b61019f565b005b61014d61015d366004610702565b6101b4565b365f61016c6101cf565b915091509091565b5f61019a6101806101d9565b5473ffffffffffffffffffffffffffffffffffffffff1690565b905090565b6101b1816101ab6101d9565b9061020c565b50565b6101b16101bf610298565b826101c86101d9565b91906102a1565b365f61016c6103dd565b5f8061020660017fb53127684a568b3173ae13b9f8a6016e243e63b6e8ee1178d6a717850b5d610461073c565b92915050565b815473ffffffffffffffffffffffffffffffffffffffff828116911614610294576040517f08c379a000000000000000000000000000000000000000000000000000000000815260206004820152601960248201527f50726f787941646d696e3a206e6f74207468652061646d696e0000000000000060448201526064015b60405180910390fd5b5050565b5f61019a610542565b825473ffffffffffffffffffffffffffffffffffffffff9081169083168114610326576040517f08c379a000000000000000000000000000000000000000000000000000000000815260206004820152601960248201527f50726f787941646d696e3a206e6f74207468652061646d696e00000000000000604482015260640161028b565b8173ffffffffffffffffffffffffffffffffffffffff168173ffffffffffffffffffffffffffffffffffffffff16146103d75783547fffffffffffffffffffffffff00000000000000000000000000000000000000001673ffffffffffffffffffffffffffffffffffffffff838116918217865560408051918416825260208201929092527f7e644d79422f17c01e4894b5f4f588d331ebfa28653d42ae832dc59e38c9798f910160405180910390a15b50505050565b365f333214806103ed5750601836105b156103fa57505f91369150565b3373ffffffffffffffffffffffffffffffffffffffff7f000000000000000000000000000000000000000000000000000000000000000016148061052d575073ffffffffffffffffffffffffffffffffffffffff7f000000000000000000000000000000000000000000000000000000000000000016638929a8ca367fffffffffffffffffffffffffffffffffffffffffffffffffffffffffffffffec013560601c6040517fffffffff0000000000000000000000000000000000000000000000000000000060e084901b16815273ffffffffffffffffffffffffffffffffffffffff9091166004820152336024820152604401602060405180830381865afa158015610509573d5f803e3d5ffd5b505050506040513d601f19601f8201168201806040525081019061052d9190610774565b1561053a5761016c610686565b505f91369150565b5f333214806105515750601836105b1561055b57503390565b7fffffffffffffffffffffffffffffffffffffffffffffffffffffffffffffffec36013560601c7f000000000000000000000000000000000000000000000000000000000000000073ffffffffffffffffffffffffffffffffffffffff1633148061067557506040517f8929a8ca00000000000000000000000000000000000000000000000000000000815273ffffffffffffffffffffffffffffffffffffffff82811660048301523360248301527f00000000000000000000000000000000000000000000000000000000000000001690638929a8ca90604401602060405180830381865afa158015610651573d5f803e3d5ffd5b505050506040513d601f19601f820116820180604052508101906106759190610774565b1561067f57919050565b3391505090565b365f61016c7fffffffffffffffffffffffffffffffffffffffffffffffffffffffffffffffec8301828481610793565b60208152816020820152818360408301375f818301604090810191909152601f9092017fffffffffffffffffffffffffffffffffffffffffffffffffffffffffffffffe0160101919050565b5f60208284031215610712575f80fd5b813573ffffffffffffffffffffffffffffffffffffffff81168114610735575f80fd5b9392505050565b81810381811115610206577f4e487b71000000000000000000000000000000000000000000000000000000005f52601160045260245ffd5b5f60208284031215610784575f80fd5b81518015158114610735575f80fd5b5f80858511156107a1575f80fd5b838611156107ad575f80fd5b505082019391909203915056fea26469706673582212204db7378721b8c5a6d2c30e6878f82c773bf708f8d6054fa190faa6924b8f2a7864736f6c63430008150033",
  "linkReferences": {},
  "deployedLinkReferences": {}
}