{
  "_format": "hh-sol-artifact-1",
  "contractName": "CumulativeMerkleClaimMock",
  "sourceName": "contracts/mocks/payment/CumulativeMerkleClaimMock.sol",
  "abi": [
    {
      "inputs": [
        {
          "internalType": "address",
          "name": "recipient",
          "type": "address"
        },
        {
          "internalType": "bytes",
          "name": "claimData",
          "type": "bytes"
        },
        {
          "internalType": "uint256",
          "name": "nonce",
          "type": "uint256"
        }
      ],
      "name": "AlreadyClaimed",
      "type": "error"
    },
    {
      "inputs": [
        {
          "internalType": "address",
          "name": "recipient",
          "type": "address"
        },
        {
          "internalType": "bytes",
          "name": "claimData",
          "type": "bytes"
        },
        {
          "internalType": "uint256",
          "name": "nonce",
          "type": "uint256"
        }
      ],
      "name": "InvalidProof",
      "type": "error"
    },
    {
      "anonymous": false,
      "inputs": [
        {
          "indexed": false,
          "internalType": "address",
          "name": "recipient",
          "type": "address"
        },
        {
          "indexed": false,
          "internalType": "uint256",
          "name": "amount",
          "type": "uint256"
        }
      ],
      "name": "Distributed",
      "type": "event"
    },
    {
      "anonymous": false,
      "inputs": [
        {
          "indexed": false,
          "internalType": "bytes32",
          "name": "root",
          "type": "bytes32"
        }
      ],
      "name": "MerkleRootSet",
      "type": "event"
    },
    {
      "anonymous": false,
      "inputs": [
        {
          "indexed": true,
          "internalType": "address",
          "name": "previousOwner",
          "type": "address"
        },
        {
          "indexed": true,
          "internalType": "address",
          "name": "newOwner",
          "type": "address"
        }
      ],
      "name": "OwnershipTransferred",
      "type": "event"
    },
    {
      "anonymous": false,
      "inputs": [],
      "name": "Paused",
      "type": "event"
    },
    {
      "anonymous": false,
      "inputs": [
        {
          "indexed": false,
          "internalType": "bytes32",
          "name": "root",
          "type": "bytes32"
        },
        {
          "indexed": false,
          "internalType": "address",
          "name": "recipient",
          "type": "address"
        },
        {
          "indexed": false,
          "internalType": "bytes",
          "name": "claimData",
          "type": "bytes"
        },
        {
          "indexed": false,
          "internalType": "uint256",
          "name": "nonce",
          "type": "uint256"
        }
      ],
      "name": "PayoutClaimed",
      "type": "event"
    },
    {
      "anonymous": false,
      "inputs": [],
      "name": "Unpaused",
      "type": "event"
    },
    {
      "inputs": [
        {
          "internalType": "address",
          "name": "recipient",
          "type": "address"
        },
        {
          "internalType": "bytes",
          "name": "claimData",
          "type": "bytes"
        },
        {
          "internalType": "bytes32[]",
          "name": "proof",
          "type": "bytes32[]"
        }
      ],
      "name": "claimPayout",
      "outputs": [],
      "stateMutability": "nonpayable",
      "type": "function"
    },
    {
      "inputs": [
        {
          "internalType": "bytes32",
          "name": "",
          "type": "bytes32"
        }
      ],
      "name": "claimed",
      "outputs": [
        {
          "internalType": "bool",
          "name": "",
          "type": "bool"
        }
      ],
      "stateMutability": "view",
      "type": "function"
    },
    {
      "inputs": [],
      "name": "nonce",
      "outputs": [
        {
          "internalType": "uint256",
          "name": "",
          "type": "uint256"
        }
      ],
      "stateMutability": "view",
      "type": "function"
    },
    {
      "inputs": [],
      "name": "owner",
      "outputs": [
        {
          "internalType": "address",
          "name": "",
          "type": "address"
        }
      ],
      "stateMutability": "view",
      "type": "function"
    },
    {
      "inputs": [],
      "name": "pause",
      "outputs": [],
      "stateMutability": "nonpayable",
      "type": "function"
    },
    {
      "inputs": [],
      "name": "paused",
      "outputs": [
        {
          "internalType": "bool",
          "name": "",
          "type": "bool"
        }
      ],
      "stateMutability": "view",
      "type": "function"
    },
    {
      "inputs": [],
      "name": "root",
      "outputs": [
        {
          "internalType": "bytes32",
          "name": "",
          "type": "bytes32"
        }
      ],
      "stateMutability": "view",
      "type": "function"
    },
    {
      "inputs": [
        {
          "internalType": "bytes32",
          "name": "merkleRoot",
          "type": "bytes32"
        }
      ],
      "name": "setMerkleRoot",
      "outputs": [],
      "stateMutability": "nonpayable",
      "type": "function"
    },
    {
      "inputs": [
        {
          "internalType": "bytes4",
          "name": "interfaceId",
          "type": "bytes4"
        }
      ],
      "name": "supportsInterface",
      "outputs": [
        {
          "internalType": "bool",
          "name": "",
          "type": "bool"
        }
      ],
      "stateMutability": "view",
      "type": "function"
    },
    {
      "inputs": [
        {
          "internalType": "address",
          "name": "newOwner",
          "type": "address"
        }
      ],
      "name": "transferOwnership",
      "outputs": [],
      "stateMutability": "nonpayable",
      "type": "function"
    },
    {
      "inputs": [],
      "name": "unpause",
      "outputs": [],
      "stateMutability": "nonpayable",
      "type": "function"
    }
  ],
  "bytecode": "0x60806040523480156200001157600080fd5b5060013362000043816200002f6200007960201b620004691760201c565b620000af60201b620004971790919060201c565b5062000072816200005e6200014260201b620005581760201c565b6200017260201b620005861790919060201c565b5062000293565b600080620000a960017fc9ed16f33ab3a66c84bfd83099ccb2a8845871e2e1c1928f63797152f0fd54cd62000271565b92915050565b6001600160a01b03811615620001065781546001600160a01b0319166001600160a01b03821690811783556040516000907f8be0079c531659141344cd1fd0a4f28419497f9722a3daafe3b4186f6b6457e0908290a35b6200013e6307f5828d60e41b600162000129620001b160201b620005e21760201c565b620001e160201b62000610179092919060201c565b5050565b600080620000a960017f0186a05f63b1553398ad5ea3233c0ce68b8c9eecc47717f123c5c2b42fbd6d9f62000271565b80156200013e57815460ff191660011782556040517f9e87fac88ff661f02d44f95383c817fece4bce600a3dab7a54406878b965e75290600090a15050565b600080620000a960017fca9d3e17f264b0f3984e2634e94adb37fa3e6a8103f06aeae6fa59e21c769f5e62000271565b600160e01b6001600160e01b0319831601620002435760405162461bcd60e51b815260206004820152601f60248201527f496e74657266616365446574656374696f6e3a2077726f6e672076616c756500604482015260640160405180910390fd5b6001600160e01b03199190911660009081526020929092526040909120805460ff1916911515919091179055565b81810381811115620000a957634e487b7160e01b600052601160045260246000fd5b610f9e80620002a36000396000f3fe608060405234801561001057600080fd5b50600436106100c95760003560e01c80638da5cb5b11610081578063ebf0c7171161005b578063ebf0c7171461018a578063edcdebcc14610193578063f2fde38b146101a657600080fd5b80638da5cb5b14610123578063affed0e014610150578063cc3c0f061461016757600080fd5b80635c975abb116100b25780635c975abb146101005780637cb64759146101085780638456cb591461011b57600080fd5b806301ffc9a7146100ce5780633f4ba83a146100f6575b600080fd5b6100e16100dc366004610c32565b6101b9565b60405190151581526020015b60405180910390f35b6100fe6101d3565b005b6100e16101f8565b6100fe610116366004610c74565b610211565b6100fe61027a565b61012b610293565b60405173ffffffffffffffffffffffffffffffffffffffff90911681526020016100ed565b61015960015481565b6040519081526020016100ed565b6100e1610175366004610c74565b60026020526000908152604090205460ff1681565b61015960005481565b6100fe6101a1366004610cb6565b6102ba565b6100fe6101b4366004610d92565b610452565b60006101cd826101c76105e2565b9061071c565b92915050565b6101e6335b6101e0610469565b906107f6565b6101f66101f1610558565b610879565b565b600061020c610205610558565b5460ff1690565b905090565b61021a336101d8565b61022a610225610558565b6108d4565b8060008190555060016000815461024090610ddc565b909155506040518181527f42cbc405e4dbf1b691e85b9a34b08ecfcf7a9ad9078bf4d645ccfa1fac11c10b9060200160405180910390a150565b610283336101d8565b6101f661028e610558565b61093f565b600061020c6102a0610469565b5473ffffffffffffffffffffffffffffffffffffffff1690565b6102ca6102c5610558565b61099d565b600154600080546040519091906102eb908990899089908790602001610e14565b604080517fffffffffffffffffffffffffffffffffffffffffffffffffffffffffffffffe081840301815291815281516020928301206000818152600290935291205490915060ff161561037c57878787856040517f7fbf25470000000000000000000000000000000000000000000000000000000081526004016103739493929190610e9d565b60405180910390fd5b61038885858484610a09565b6103c657878787856040517f91ebfb310000000000000000000000000000000000000000000000000000000081526004016103739493929190610e9d565b6000818152600260205260409081902080547fffffffffffffffffffffffffffffffffffffffffffffffffffffffffffffff00166001179055517f6a4408e44c908d501056e1ef88baf30a72467f3a181544a67a30cb14c8e80598906104359084908b908b908b908990610ede565b60405180910390a1610448888888610a21565b5050505050505050565b610466338261045f610469565b9190610a87565b50565b6000806101cd60017fc9ed16f33ab3a66c84bfd83099ccb2a8845871e2e1c1928f63797152f0fd54cd610f26565b73ffffffffffffffffffffffffffffffffffffffff81161561051f5781547fffffffffffffffffffffffff00000000000000000000000000000000000000001673ffffffffffffffffffffffffffffffffffffffff821690811783556040516000907f8be0079c531659141344cd1fd0a4f28419497f9722a3daafe3b4186f6b6457e0908290a35b6105547f7f5828d000000000000000000000000000000000000000000000000000000000600161054d6105e2565b9190610610565b5050565b6000806101cd60017f0186a05f63b1553398ad5ea3233c0ce68b8c9eecc47717f123c5c2b42fbd6d9f610f26565b80156105545781547fffffffffffffffffffffffffffffffffffffffffffffffffffffffffffffff001660011782556040517f9e87fac88ff661f02d44f95383c817fece4bce600a3dab7a54406878b965e75290600090a15050565b6000806101cd60017fca9d3e17f264b0f3984e2634e94adb37fa3e6a8103f06aeae6fa59e21c769f5e610f26565b7c01000000000000000000000000000000000000000000000000000000007fffffffff000000000000000000000000000000000000000000000000000000008316016106b8576040517f08c379a000000000000000000000000000000000000000000000000000000000815260206004820152601f60248201527f496e74657266616365446574656374696f6e3a2077726f6e672076616c7565006044820152606401610373565b7fffffffff00000000000000000000000000000000000000000000000000000000919091166000908152602092909252604090912080547fffffffffffffffffffffffffffffffffffffffffffffffffffffffffffffff0016911515919091179055565b60007c01000000000000000000000000000000000000000000000000000000007fffffffff0000000000000000000000000000000000000000000000000000000083160161076c575060006101cd565b7ffe003659000000000000000000000000000000000000000000000000000000007fffffffff000000000000000000000000000000000000000000000000000000008316016107bd575060016101cd565b507fffffffff00000000000000000000000000000000000000000000000000000000166000908152602091909152604090205460ff1690565b815473ffffffffffffffffffffffffffffffffffffffff828116911614610554576040517f08c379a000000000000000000000000000000000000000000000000000000000815260206004820152601860248201527f4f776e6572736869703a206e6f7420746865206f776e657200000000000000006044820152606401610373565b610882816108d4565b80547fffffffffffffffffffffffffffffffffffffffffffffffffffffffffffffff001681556040517fa45f47fdea8a1efdd9029a5691c7f759c32b7c698632b563573e155625d1693390600090a150565b805460ff16610466576040517f08c379a000000000000000000000000000000000000000000000000000000000815260206004820152601160248201527f50617573653a206e6f74207061757365640000000000000000000000000000006044820152606401610373565b6109488161099d565b80547fffffffffffffffffffffffffffffffffffffffffffffffffffffffffffffff001660011781556040517f9e87fac88ff661f02d44f95383c817fece4bce600a3dab7a54406878b965e75290600090a150565b805460ff1615610466576040517f08c379a000000000000000000000000000000000000000000000000000000000815260206004820152600d60248201527f50617573653a20706175736564000000000000000000000000000000000000006044820152606401610373565b600082610a17868685610bb4565b1495945050505050565b6000610a2f82840184610c74565b6040805173ffffffffffffffffffffffffffffffffffffffff87168152602081018390529192507fb649c98f58055c520df0dcb5709eff2e931217ff2fb1e21376130d31bbb1c0af910160405180910390a150505050565b825473ffffffffffffffffffffffffffffffffffffffff9081169083168114610b0c576040517f08c379a000000000000000000000000000000000000000000000000000000000815260206004820152601860248201527f4f776e6572736869703a206e6f7420746865206f776e657200000000000000006044820152606401610373565b8173ffffffffffffffffffffffffffffffffffffffff168173ffffffffffffffffffffffffffffffffffffffff1614610bae5783547fffffffffffffffffffffffff00000000000000000000000000000000000000001673ffffffffffffffffffffffffffffffffffffffff8381169182178655604051908316907f8be0079c531659141344cd1fd0a4f28419497f9722a3daafe3b4186f6b6457e090600090a35b50505050565b600081815b84811015610bf757610be382878784818110610bd757610bd7610f39565b90506020020135610c00565b915080610bef81610ddc565b915050610bb9565b50949350505050565b6000818310610c1c576000828152602084905260409020610c2b565b60008381526020839052604090205b9392505050565b600060208284031215610c4457600080fd5b81357fffffffff0000000000000000000000000000000000000000000000000000000081168114610c2b57600080fd5b600060208284031215610c8657600080fd5b5035919050565b803573ffffffffffffffffffffffffffffffffffffffff81168114610cb157600080fd5b919050565b600080600080600060608688031215610cce57600080fd5b610cd786610c8d565b9450602086013567ffffffffffffffff80821115610cf457600080fd5b818801915088601f830112610d0857600080fd5b813581811115610d1757600080fd5b896020828501011115610d2957600080fd5b602083019650809550506040880135915080821115610d4757600080fd5b818801915088601f830112610d5b57600080fd5b813581811115610d6a57600080fd5b8960208260051b8501011115610d7f57600080fd5b9699959850939650602001949392505050565b600060208284031215610da457600080fd5b610c2b82610c8d565b7f4e487b7100000000000000000000000000000000000000000000000000000000600052601160045260246000fd5b60007fffffffffffffffffffffffffffffffffffffffffffffffffffffffffffffffff8203610e0d57610e0d610dad565b5060010190565b7fffffffffffffffffffffffffffffffffffffffff0000000000000000000000008560601b16815282846014830137601492019182015260340192915050565b8183528181602085013750600060208284010152600060207fffffffffffffffffffffffffffffffffffffffffffffffffffffffffffffffe0601f840116840101905092915050565b73ffffffffffffffffffffffffffffffffffffffff85168152606060208201526000610ecd606083018587610e54565b905082604083015295945050505050565b85815273ffffffffffffffffffffffffffffffffffffffff85166020820152608060408201526000610f14608083018587610e54565b90508260608301529695505050505050565b818103818111156101cd576101cd610dad565b7f4e487b7100000000000000000000000000000000000000000000000000000000600052603260045260246000fdfea26469706673582212200fc716227c2ddcc9d06ce0dd4ae4c7ca27f9654664b0cbb7c1015d768dd9adf764736f6c63430008110033",
  "linkReferences": {},
  "deployedLinkReferences": {}
}