{
  "_format": "hh-sol-artifact-1",
  "contractName": "CumulativeMerkleClaimMock",
  "sourceName": "contracts/mocks/payment/CumulativeMerkleClaimMock.sol",
  "abi": [
    {
      "inputs": [
        {
          "internalType": "address",
          "name": "recipient",
          "type": "address"
        },
        {
          "internalType": "bytes",
          "name": "claimData",
          "type": "bytes"
        },
        {
          "internalType": "uint256",
          "name": "nonce",
          "type": "uint256"
        }
      ],
      "name": "AlreadyClaimed",
      "type": "error"
    },
    {
      "inputs": [],
      "name": "IllegalInterfaceId",
      "type": "error"
    },
    {
      "inputs": [
        {
          "internalType": "address",
          "name": "recipient",
          "type": "address"
        },
        {
          "internalType": "bytes",
          "name": "claimData",
          "type": "bytes"
        },
        {
          "internalType": "uint256",
          "name": "nonce",
          "type": "uint256"
        }
      ],
      "name": "InvalidProof",
      "type": "error"
    },
    {
      "inputs": [
        {
          "internalType": "address",
          "name": "account",
          "type": "address"
        }
      ],
      "name": "NotContractOwner",
      "type": "error"
    },
    {
      "inputs": [],
      "name": "NotPaused",
      "type": "error"
    },
    {
      "inputs": [],
      "name": "Paused",
      "type": "error"
    },
    {
      "anonymous": false,
      "inputs": [
        {
          "indexed": false,
          "internalType": "address",
          "name": "recipient",
          "type": "address"
        },
        {
          "indexed": false,
          "internalType": "uint256",
          "name": "amount",
          "type": "uint256"
        }
      ],
      "name": "Distributed",
      "type": "event"
    },
    {
      "anonymous": false,
      "inputs": [
        {
          "indexed": false,
          "internalType": "bytes32",
          "name": "root",
          "type": "bytes32"
        }
      ],
      "name": "MerkleRootSet",
      "type": "event"
    },
    {
      "anonymous": false,
      "inputs": [
        {
          "indexed": true,
          "internalType": "address",
          "name": "previousOwner",
          "type": "address"
        },
        {
          "indexed": true,
          "internalType": "address",
          "name": "newOwner",
          "type": "address"
        }
      ],
      "name": "OwnershipTransferred",
      "type": "event"
    },
    {
      "anonymous": false,
      "inputs": [],
      "name": "Pause",
      "type": "event"
    },
    {
      "anonymous": false,
      "inputs": [
        {
          "indexed": true,
          "internalType": "bytes32",
          "name": "root",
          "type": "bytes32"
        },
        {
          "indexed": true,
          "internalType": "address",
          "name": "recipient",
          "type": "address"
        },
        {
          "indexed": false,
          "internalType": "bytes",
          "name": "claimData",
          "type": "bytes"
        },
        {
          "indexed": false,
          "internalType": "uint256",
          "name": "nonce",
          "type": "uint256"
        }
      ],
      "name": "PayoutClaimed",
      "type": "event"
    },
    {
      "anonymous": false,
      "inputs": [],
      "name": "Unpause",
      "type": "event"
    },
    {
      "inputs": [
        {
          "internalType": "address",
          "name": "recipient",
          "type": "address"
        },
        {
          "internalType": "bytes",
          "name": "claimData",
          "type": "bytes"
        },
        {
          "internalType": "bytes32[]",
          "name": "proof",
          "type": "bytes32[]"
        }
      ],
      "name": "claimPayout",
      "outputs": [],
      "stateMutability": "nonpayable",
      "type": "function"
    },
    {
      "inputs": [
        {
          "internalType": "bytes32",
          "name": "",
          "type": "bytes32"
        }
      ],
      "name": "claimed",
      "outputs": [
        {
          "internalType": "bool",
          "name": "",
          "type": "bool"
        }
      ],
      "stateMutability": "view",
      "type": "function"
    },
    {
      "inputs": [],
      "name": "nonce",
      "outputs": [
        {
          "internalType": "uint256",
          "name": "",
          "type": "uint256"
        }
      ],
      "stateMutability": "view",
      "type": "function"
    },
    {
      "inputs": [],
      "name": "owner",
      "outputs": [
        {
          "internalType": "address",
          "name": "",
          "type": "address"
        }
      ],
      "stateMutability": "view",
      "type": "function"
    },
    {
      "inputs": [],
      "name": "pause",
      "outputs": [],
      "stateMutability": "nonpayable",
      "type": "function"
    },
    {
      "inputs": [],
      "name": "paused",
      "outputs": [
        {
          "internalType": "bool",
          "name": "",
          "type": "bool"
        }
      ],
      "stateMutability": "view",
      "type": "function"
    },
    {
      "inputs": [],
      "name": "root",
      "outputs": [
        {
          "internalType": "bytes32",
          "name": "",
          "type": "bytes32"
        }
      ],
      "stateMutability": "view",
      "type": "function"
    },
    {
      "inputs": [
        {
          "internalType": "bytes32",
          "name": "merkleRoot",
          "type": "bytes32"
        }
      ],
      "name": "setMerkleRoot",
      "outputs": [],
      "stateMutability": "nonpayable",
      "type": "function"
    },
    {
      "inputs": [
        {
          "internalType": "bytes4",
          "name": "interfaceId",
          "type": "bytes4"
        }
      ],
      "name": "supportsInterface",
      "outputs": [
        {
          "internalType": "bool",
          "name": "",
          "type": "bool"
        }
      ],
      "stateMutability": "view",
      "type": "function"
    },
    {
      "inputs": [
        {
          "internalType": "address",
          "name": "newOwner",
          "type": "address"
        }
      ],
      "name": "transferOwnership",
      "outputs": [],
      "stateMutability": "nonpayable",
      "type": "function"
    },
    {
      "inputs": [],
      "name": "unpause",
      "outputs": [],
      "stateMutability": "nonpayable",
      "type": "function"
    }
  ],
  "bytecode": "0x608060405234801561001057600080fd5b506001336100268161002061003f565b90610073565b50610039816100336100e9565b90610117565b50610200565b60008061006d60017fc9ed16f33ab3a66c84bfd83099ccb2a8845871e2e1c1928f63797152f0fd54cd6101df565b92915050565b6001600160a01b038116156100c95781546001600160a01b0319166001600160a01b03821690811783556040516000907f8be0079c531659141344cd1fd0a4f28419497f9722a3daafe3b4186f6b6457e0908290a35b6100e56307f5828d60e41b60016100de610155565b9190610183565b5050565b60008061006d60017f0186a05f63b1553398ad5ea3233c0ce68b8c9eecc47717f123c5c2b42fbd6d9f6101df565b80156100e557815460ff191660011782556040517f6985a02210a168e66602d3235cb6db0e70f92b3ba4d376a33c0f3d9434bff62590600090a15050565b60008061006d60017fca9d3e17f264b0f3984e2634e94adb37fa3e6a8103f06aeae6fa59e21c769f5e6101df565b600160e01b6001600160e01b03198316016101b1576040516372c683bb60e01b815260040160405180910390fd5b6001600160e01b03199190911660009081526020929092526040909120805460ff1916911515919091179055565b8181038181111561006d57634e487b7160e01b600052601160045260246000fd5b610ca78061020f6000396000f3fe608060405234801561001057600080fd5b50600436106100c95760003560e01c80638da5cb5b11610081578063ebf0c7171161005b578063ebf0c7171461018a578063edcdebcc14610193578063f2fde38b146101a657600080fd5b80638da5cb5b14610123578063affed0e014610150578063cc3c0f061461016757600080fd5b80635c975abb116100b25780635c975abb146101005780637cb64759146101085780638456cb591461011b57600080fd5b806301ffc9a7146100ce5780633f4ba83a146100f6575b600080fd5b6100e16100dc366004610977565b6101b9565b60405190151581526020015b60405180910390f35b6100fe6101d3565b005b6100e16101f8565b6100fe6101163660046109b9565b610211565b6100fe610268565b61012b610281565b60405173ffffffffffffffffffffffffffffffffffffffff90911681526020016100ed565b61015960015481565b6040519081526020016100ed565b6100e16101753660046109b9565b60026020526000908152604090205460ff1681565b61015960005481565b6100fe6101a1366004610a47565b6102a8565b6100fe6101b4366004610aff565b610456565b60006101cd826101c761046d565b9061049b565b92915050565b6101e6335b6101e0610575565b906105a3565b6101f66101f1610612565b610640565b565b600061020c610205610612565b5460ff1690565b905090565b61021a336101d8565b6102256101f1610612565b600081905560018054810190556040518181527f42cbc405e4dbf1b691e85b9a34b08ecfcf7a9ad9078bf4d645ccfa1fac11c10b9060200160405180910390a150565b610271336101d8565b6101f661027c610612565b61069b565b600061020c61028e610575565b5473ffffffffffffffffffffffffffffffffffffffff1690565b6102b86102b3610612565b6106f9565b600154600080546040519091906102d9908990899089908790602001610b1a565b604080517fffffffffffffffffffffffffffffffffffffffffffffffffffffffffffffffe081840301815291815281516020928301206000818152600290935291205490915060ff161561036a57878787856040517f7fbf25470000000000000000000000000000000000000000000000000000000081526004016103619493929190610ba3565b60405180910390fd5b61037685858484610735565b6103b457878787856040517f91ebfb310000000000000000000000000000000000000000000000000000000081526004016103619493929190610ba3565b6000818152600260205260409081902080547fffffffffffffffffffffffffffffffffffffffffffffffffffffffffffffff001660011790555173ffffffffffffffffffffffffffffffffffffffff89169083907f6a4408e44c908d501056e1ef88baf30a72467f3a181544a67a30cb14c8e8059890610439908b908b908990610be4565b60405180910390a361044c88888861074d565b5050505050505050565b61046a3382610463610575565b91906107b3565b50565b6000806101cd60017fca9d3e17f264b0f3984e2634e94adb37fa3e6a8103f06aeae6fa59e21c769f5e610c08565b60007c01000000000000000000000000000000000000000000000000000000007fffffffff000000000000000000000000000000000000000000000000000000008316016104eb575060006101cd565b7ffe003659000000000000000000000000000000000000000000000000000000007fffffffff0000000000000000000000000000000000000000000000000000000083160161053c575060016101cd565b507fffffffff00000000000000000000000000000000000000000000000000000000166000908152602091909152604090205460ff1690565b6000806101cd60017fc9ed16f33ab3a66c84bfd83099ccb2a8845871e2e1c1928f63797152f0fd54cd610c08565b815473ffffffffffffffffffffffffffffffffffffffff82811691161461060e576040517f2ef4875e00000000000000000000000000000000000000000000000000000000815273ffffffffffffffffffffffffffffffffffffffff82166004820152602401610361565b5050565b6000806101cd60017f0186a05f63b1553398ad5ea3233c0ce68b8c9eecc47717f123c5c2b42fbd6d9f610c08565b610649816108c8565b80547fffffffffffffffffffffffffffffffffffffffffffffffffffffffffffffff001681556040517f7805862f689e2f13df9f062ff482ad3ad112aca9e0847911ed832e158c525b3390600090a150565b6106a4816106f9565b80547fffffffffffffffffffffffffffffffffffffffffffffffffffffffffffffff001660011781556040517f6985a02210a168e66602d3235cb6db0e70f92b3ba4d376a33c0f3d9434bff62590600090a150565b805460ff161561046a576040517f9e87fac800000000000000000000000000000000000000000000000000000000815260040160405180910390fd5b600082610743868685610903565b1495945050505050565b600061075b828401846109b9565b6040805173ffffffffffffffffffffffffffffffffffffffff87168152602081018390529192507fb649c98f58055c520df0dcb5709eff2e931217ff2fb1e21376130d31bbb1c0af910160405180910390a150505050565b825473ffffffffffffffffffffffffffffffffffffffff9081169083168114610820576040517f2ef4875e00000000000000000000000000000000000000000000000000000000815273ffffffffffffffffffffffffffffffffffffffff84166004820152602401610361565b8173ffffffffffffffffffffffffffffffffffffffff168173ffffffffffffffffffffffffffffffffffffffff16146108c25783547fffffffffffffffffffffffff00000000000000000000000000000000000000001673ffffffffffffffffffffffffffffffffffffffff8381169182178655604051908316907f8be0079c531659141344cd1fd0a4f28419497f9722a3daafe3b4186f6b6457e090600090a35b50505050565b805460ff1661046a576040517f6cd6020100000000000000000000000000000000000000000000000000000000815260040160405180910390fd5b600081815b8481101561093c576109328287878481811061092657610926610c42565b90506020020135610945565b9150600101610908565b50949350505050565b6000818310610961576000828152602084905260409020610970565b60008381526020839052604090205b9392505050565b60006020828403121561098957600080fd5b81357fffffffff000000000000000000000000000000000000000000000000000000008116811461097057600080fd5b6000602082840312156109cb57600080fd5b5035919050565b803573ffffffffffffffffffffffffffffffffffffffff811681146109f657600080fd5b919050565b60008083601f840112610a0d57600080fd5b50813567ffffffffffffffff811115610a2557600080fd5b6020830191508360208260051b8501011115610a4057600080fd5b9250929050565b600080600080600060608688031215610a5f57600080fd5b610a68866109d2565b9450602086013567ffffffffffffffff811115610a8457600080fd5b8601601f81018813610a9557600080fd5b803567ffffffffffffffff811115610aac57600080fd5b886020828401011115610abe57600080fd5b60209190910194509250604086013567ffffffffffffffff811115610ae257600080fd5b610aee888289016109fb565b969995985093965092949392505050565b600060208284031215610b1157600080fd5b610970826109d2565b7fffffffffffffffffffffffffffffffffffffffff0000000000000000000000008560601b16815282846014830137601492019182015260340192915050565b8183528181602085013750600060208284010152600060207fffffffffffffffffffffffffffffffffffffffffffffffffffffffffffffffe0601f840116840101905092915050565b73ffffffffffffffffffffffffffffffffffffffff85168152606060208201526000610bd3606083018587610b5a565b905082604083015295945050505050565b604081526000610bf8604083018587610b5a565b9050826020830152949350505050565b818103818111156101cd577f4e487b7100000000000000000000000000000000000000000000000000000000600052601160045260246000fd5b7f4e487b7100000000000000000000000000000000000000000000000000000000600052603260045260246000fdfea2646970667358221220468ef876f521189b93933973bb66e02062a9add07f9951fca034a2b36b65b7a764736f6c634300081c0033",
  "linkReferences": {},
  "deployedLinkReferences": {}
}