{
  "_format": "hh-sol-artifact-1",
  "contractName": "ERC20Storage",
  "sourceName": "contracts/token/ERC20/libraries/ERC20Storage.sol",
  "abi": [
    {
      "anonymous": false,
      "inputs": [
        {
          "indexed": true,
          "internalType": "address",
          "name": "owner",
          "type": "address"
        },
        {
          "indexed": true,
          "internalType": "address",
          "name": "spender",
          "type": "address"
        },
        {
          "indexed": false,
          "internalType": "uint256",
          "name": "value",
          "type": "uint256"
        }
      ],
      "name": "Approval",
      "type": "event"
    },
    {
      "anonymous": false,
      "inputs": [
        {
          "indexed": true,
          "internalType": "address",
          "name": "from",
          "type": "address"
        },
        {
          "indexed": true,
          "internalType": "address",
          "name": "to",
          "type": "address"
        },
        {
          "indexed": false,
          "internalType": "uint256",
          "name": "value",
          "type": "uint256"
        }
      ],
      "name": "Transfer",
      "type": "event"
    },
    {
      "inputs": [],
      "name": "ERC20_STORAGE_POSITION",
      "outputs": [
        {
          "internalType": "bytes32",
          "name": "",
          "type": "bytes32"
        }
      ],
      "stateMutability": "view",
      "type": "function"
    },
    {
      "inputs": [],
      "name": "ERC20_VERSION_SLOT",
      "outputs": [
        {
          "internalType": "bytes32",
          "name": "",
          "type": "bytes32"
        }
      ],
      "stateMutability": "view",
      "type": "function"
    }
  ],
  "bytecode": "0x6101c4610053600b82828239805160001a607314610046577f4e487b7100000000000000000000000000000000000000000000000000000000600052600060045260246000fd5b30600052607381538281f3fe73000000000000000000000000000000000000000030146080604052600436106100405760003560e01c8063390347f814610045578063fb9d45a514610063575b600080fd5b61004d610081565b60405161005a9190610106565b60405180910390f35b61006b6100b7565b6040516100789190610106565b60405180910390f35b60017f9b108a3a4d1bf9fcaf11faf730c194adcf4de5409616cf7026e57018b2743c2660001c6100b1919061015a565b60001b81565b60017fbf8178f96cb346c7aa2973a71aa437d56873dd3ed827751d2dd2abe6f717100760001c6100e7919061015a565b60001b81565b6000819050919050565b610100816100ed565b82525050565b600060208201905061011b60008301846100f7565b92915050565b6000819050919050565b7f4e487b7100000000000000000000000000000000000000000000000000000000600052601160045260246000fd5b600061016582610121565b915061017083610121565b9250828210156101835761018261012b565b5b82820390509291505056fea2646970667358221220aaeeeff0b6cbf1249fe201071fa36ed96f99e6f94ec1bd8c3fc26d8e66898a4164736f6c634300080d0033",
  "linkReferences": {},
  "deployedLinkReferences": {}
}