{
  "_format": "hh-sol-artifact-1",
  "contractName": "PausableMock",
  "sourceName": "contracts/mocks/lifecycle/PausableMock.sol",
  "abi": [
    {
      "inputs": [
        {
          "internalType": "bool",
          "name": "isPaused",
          "type": "bool"
        },
        {
          "internalType": "contract IForwarderRegistry",
          "name": "forwarderRegistry",
          "type": "address"
        }
      ],
      "stateMutability": "nonpayable",
      "type": "constructor"
    },
    {
      "anonymous": false,
      "inputs": [
        {
          "indexed": true,
          "internalType": "address",
          "name": "previousOwner",
          "type": "address"
        },
        {
          "indexed": true,
          "internalType": "address",
          "name": "newOwner",
          "type": "address"
        }
      ],
      "name": "OwnershipTransferred",
      "type": "event"
    },
    {
      "anonymous": false,
      "inputs": [],
      "name": "Paused",
      "type": "event"
    },
    {
      "anonymous": false,
      "inputs": [],
      "name": "Unpaused",
      "type": "event"
    },
    {
      "inputs": [],
      "name": "__msgData",
      "outputs": [
        {
          "internalType": "bytes",
          "name": "",
          "type": "bytes"
        }
      ],
      "stateMutability": "view",
      "type": "function"
    },
    {
      "inputs": [],
      "name": "enforceIsNotPaused",
      "outputs": [],
      "stateMutability": "view",
      "type": "function"
    },
    {
      "inputs": [],
      "name": "enforceIsPaused",
      "outputs": [],
      "stateMutability": "view",
      "type": "function"
    },
    {
      "inputs": [],
      "name": "owner",
      "outputs": [
        {
          "internalType": "address",
          "name": "",
          "type": "address"
        }
      ],
      "stateMutability": "view",
      "type": "function"
    },
    {
      "inputs": [],
      "name": "pause",
      "outputs": [],
      "stateMutability": "nonpayable",
      "type": "function"
    },
    {
      "inputs": [],
      "name": "paused",
      "outputs": [
        {
          "internalType": "bool",
          "name": "",
          "type": "bool"
        }
      ],
      "stateMutability": "view",
      "type": "function"
    },
    {
      "inputs": [
        {
          "internalType": "bytes4",
          "name": "interfaceId",
          "type": "bytes4"
        }
      ],
      "name": "supportsInterface",
      "outputs": [
        {
          "internalType": "bool",
          "name": "",
          "type": "bool"
        }
      ],
      "stateMutability": "view",
      "type": "function"
    },
    {
      "inputs": [
        {
          "internalType": "address",
          "name": "newOwner",
          "type": "address"
        }
      ],
      "name": "transferOwnership",
      "outputs": [],
      "stateMutability": "nonpayable",
      "type": "function"
    },
    {
      "inputs": [],
      "name": "unpause",
      "outputs": [],
      "stateMutability": "nonpayable",
      "type": "function"
    }
  ],
  "bytecode": "0x60a06040523480156200001157600080fd5b5060405162004a3c38038062004a3c8339818101604052810190620000379190620014d7565b8082336200006e7f93712213d35a2dee20c56e271600de4e102367846874dc8781923292350d8bd360001b620003a360201b60201c565b620000a27f7d7afdf85ccc889bef0696a37cb2f72027e2d22cb894cc3700f2d63c077e5b8260001b620003a360201b60201c565b620000d67f2e0b3bbf39bdb34b590ab4be455ea02f46406b61150cfa24c226be9346557efb60001b620003a360201b60201c565b62000100620000ef620003a660201b620007fb1760201c565b620004b860201b620008eb1760201c565b620001347fee77d43cdb84ff6f591a359dfe4c297ada9965eee979398c93ac2444248c090460001b6200064860201b60201c565b620001687fba0137411b19514ccdf31455419ba72ddd33445fd7a7565e465d1d1243ab8afb60001b6200064860201b60201c565b6200019c7ff6924492e56999d342aac88459ca91c16fe31e51b407e41458e9e3d94984953060001b6200064860201b60201c565b620001ca81620001b66200064b60201b62000a3d1760201c565b6200075d60201b62000b2d1790919060201c565b50620001ff7f9646f5b2ec3da4e24dea7a86514964eb7769dbcc2e162203a33f52a54733b87060001b62000b7c60201b60201c565b620002337f4b40a9f8e3880aa98212b3cd27f5b78b90d50a25a8b4d7b1b1875b9c5a63384560001b62000b7c60201b60201c565b620002677fd7cdfb4ce99b151de574cc9b89d9236c93e4c9e78b5e779d1d7a9c3f64f7946060001b62000b7c60201b60201c565b62000295816200028162000b7f60201b62000ebf1760201c565b62000c9160201b62000faf1790919060201c565b50620002ca7f6a83522c126b1f14401cda64886fc651a7060f385b5e2d289e620e1859fee4e760001b62000f7460201b60201c565b620002fe7ff6fd3c5688ac3ada9425e55f9cce326a85fd64fca9b1584401f3d2203aee560b60001b62000f7460201b60201c565b620003327fe7883c748f395270b53c914004a2b83ffb6acf3836fed33ec0a3c0eb061e618860001b62000f7460201b60201c565b8073ffffffffffffffffffffffffffffffffffffffff1660808173ffffffffffffffffffffffffffffffffffffffff1681525050506200039b7f5f0a228029fed486b350c927f9e8dcb3fda505af3daf92e210552ee0a6d2d67460001b62000f7760201b60201c565b505062001687565b50565b6000620003dc7f33dac451eefd1a6808163eecf8d47d7cba5f56d00787de044ff0ddc2ee89447d60001b62000f7a60201b60201c565b620004107f80b5daaa693fe30ccf9f1f19243499ce9fe4bada91264dd37e7099a713fc8c0360001b62000f7a60201b60201c565b620004447f66e2273229caef60ac0be45d070cc66ba1aaceeca2776bdf1fc50206d54f0f2260001b62000f7a60201b60201c565b600060017f7180ffa89c91cf90d6c56dacabfc69bc5e36f3099d7eed2f5cc12c5dba016fe060001c62000478919062001557565b60001b9050620004b17f283bb7ffa148f4f77b397c4f3d35798bfd3f1214dd2b6c078e2824cd344247cc60001b62000f7a60201b60201c565b8091505090565b620004ec7f5200586752970e3ad0d6bfb86359724ccb5bbca672323dd1340f822383a3a78a60001b62000f7a60201b60201c565b620005207f21e408fec048d3ce80d29705163530f5314fc555a45fc9ed3eec40536ac1181b60001b62000f7a60201b60201c565b620005547fdf39b92832ecc4113090a37ec124901cf4d2d8c7e6bd38a4644acf01b4acb95760001b62000f7a60201b60201c565b620005a060017f947245cdabe12ef4c13574b38217b361de48f57dd2dc345f43703c79bac2873d60001c6200058a919062001557565b60001b600162000f7d60201b620012291760201c565b620005d47fb775b727726cd7df9efcdd350b66fb2339470997ef5b7c30b825508f2ed6230060001b62000f7a60201b60201c565b620006087fdba9d8a730f53aaaf88810c499da24a361a60fb181cfa11a5a79504d369b1bf360001b62000f7a60201b60201c565b620006457f01ffc9a700000000000000000000000000000000000000000000000000000000600183620011c260201b62001416179092919060201c565b50565b50565b6000620006817f12b4db1a13ae954a255ef0fa37765d8ee1e39537e429053253a663eff808644d60001b6200140960201b60201c565b620006b57feebae444011023bb1eb9d991a8900c1fc6c9dc05e526ab9149645480ea211c3e60001b6200140960201b60201c565b620006e97f7a85e8875e57667831d822c4c89a943f00106e2fdc910c0df83014dfd0d1477360001b6200140960201b60201c565b600060017f6a1da6973104ff7dedb9b4f5cab5830b3f4a0284ed754366cfc45568bd2d38df60001c6200071d919062001557565b60001b9050620007567fcd65f8dce9f650605649809ea57b1b403b2167736801d4eb4d6da1b99327986060001b6200140960201b60201c565b8091505090565b620007917f7ade047f1b18d3d9e4cf2dbfa4799e6897d1938ea0071c35770980d99be7675260001b6200140960201b60201c565b620007c57fc0dd688ff28228f194ec76f495cc7b3de785a006ebf0721800218186e051433c60001b6200140960201b60201c565b620007f97f61c3ae71c4d526f3dfc13684ed672ca191550d63636ab205f7bffd9b572c6aef60001b6200140960201b60201c565b6200084560017ff1e2f4de496ffe5d046d751d8ec3c329ee011c6c6a229322971a7e02a207f97360001c6200082f919062001557565b60001b600162000f7d60201b620012291760201c565b620008797fd348f5ca66daae8709ef102811c105c3e31fe6f6cc1edc224d2702ff3009e1f360001b6200140960201b60201c565b620008ad7f2fc46fc72a173dcc9c44e150d62890a4da759120e0f0d8e0bc33685ddd0f71be60001b6200140960201b60201c565b600073ffffffffffffffffffffffffffffffffffffffff168173ffffffffffffffffffffffffffffffffffffffff161462000a8a57620009167f848a7b68acd8a245034bcc598f7508c96da067c4bf9df5962896ab6e4cbacbdc60001b6200140960201b60201c565b6200094a7ffdef29fccd1fc52788b15fca93499f63fa408221ea0a7069b8da1a7aaf65e10660001b6200140960201b60201c565b6200097e7f793ccf870c20f1e89df7f66b11ec23db8c2400e3975173b0217a0164a2d8add360001b6200140960201b60201c565b808260000160006101000a81548173ffffffffffffffffffffffffffffffffffffffff021916908373ffffffffffffffffffffffffffffffffffffffff160217905550620009f57fb8e5ea9fbb88bedd793f2345d140e5dd30fa2d6b312ff0e0f840f21e44632d1560001b6200140960201b60201c565b62000a297ffd7dc9b3efa62dab8d13f6b0e28c02f666353f25b3e027756a44e148e82691da60001b6200140960201b60201c565b8073ffffffffffffffffffffffffffffffffffffffff16600073ffffffffffffffffffffffffffffffffffffffff167f8be0079c531659141344cd1fd0a4f28419497f9722a3daafe3b4186f6b6457e060405160405180910390a362000abf565b62000abe7fa8ee02fcfeaac392aadc593dfe7e0afeeae4022baf9fc709470ae9e2d5ce63c460001b6200140960201b60201c565b5b62000af37f1da89fa828fcf0c756100601da9c9cead2f05c62afa4c1d26d316f4bd430b13960001b6200140960201b60201c565b62000b277f69b196e3069d1309b23672c2540a03d602ef55a0acb3cc82b52b164fa69b37bb60001b6200140960201b60201c565b62000b787f7f5828d000000000000000000000000000000000000000000000000000000000600162000b63620003a660201b620007fb1760201c565b620011c260201b62001416179092919060201c565b5050565b50565b600062000bb57fdebc1e9af392a36192084cee67e7ce35a3dad9d56d28914ba0b161a83e4a09bc60001b6200140c60201b60201c565b62000be97f53f6d6e51bbd6ce87e6ad32d8ac6b805fd31680c1bffced52305309188d6ddd760001b6200140c60201b60201c565b62000c1d7f03c34d4737e15fb617b65441edd1b0846e98c91aaa43f5f0a3301d41ae1ba74060001b6200140c60201b60201c565b600060017ffd6a7063f27337ade8f0157bddcda1459491d9175ccca22006adfec651d73f4960001c62000c51919062001557565b60001b905062000c8a7fc433678b8de1c9c218dbab453e8eda884db98e32abb8b55862a00566ac995f5060001b6200140c60201b60201c565b8091505090565b62000cc57f5b062bd1345e23baf5ae5a0f7099cf5230851794a03562928decc560c36e188460001b6200140c60201b60201c565b62000cf97fa780aaaed5b9a681c2cd8aad4b7e868ae13f53b842cef5d7c87fd4b1dae0c54a60001b6200140c60201b60201c565b62000d2d7fe05c702565d791ea9f274ad2a575f669136bd2203f500acc5dcf5b1ce8c9b20860001b6200140c60201b60201c565b62000d7960017fe5fb6784a0a1056070a5e6f0674bfa852aad166e8d480f190f09f2cc31863ff360001c62000d63919062001557565b60001b600162000f7d60201b620012291760201c565b62000dad7f4e11f420a20e01f4a4462dde7a75b78eab372f9c2b7b9c744d03de1b0510d77a60001b6200140c60201b60201c565b62000de17ffd4389b5ad7054a38c7e123a10fed24939fac4badd971041eb701451c3e4fc7c60001b6200140c60201b60201c565b801562000f3b5762000e1c7fd616d1e6e960dbe8359f3009ce7b95cd65d70b1c7b7756a5addd2864b536211060001b6200140c60201b60201c565b62000e507f4e61fdac988cd118b5133e8242a56238b5afb09f255972ee1a4d18f4f5be369e60001b6200140c60201b60201c565b62000e847fdb3af980545927d6b21e9d62d503fea51b2c30bbced05d96fe5ab1ee341d518160001b6200140c60201b60201c565b60018260000160006101000a81548160ff02191690831515021790555062000ed57f82141f863b459eda678664e66fbbee08e98ff62db4718b4bf857e3778c493dd560001b6200140c60201b60201c565b62000f097ffb0e0adfd17eff4f5bb4e5d1554e3f1db8c84dc2c2cf3e564d1b41684fdeb8c660001b6200140c60201b60201c565b7f9e87fac88ff661f02d44f95383c817fece4bce600a3dab7a54406878b965e75260405160405180910390a162000f70565b62000f6f7f8eb4fd389c8d8b0335ab8cdc21ceb802de40c17bdb6b8815c33916349f68740b60001b6200140c60201b60201c565b5b5050565b50565b50565b50565b62000fb17f523c5c55fa27c1465eb0ba13f6927ac81ca2e843dca5743a6ceafc60fd44a7a260001b6200140f60201b60201c565b62000fe57f04772ea788fd843b127a602e9cfb0c6a91dd658dfc8c6564fb399afa5c8187c060001b6200140f60201b60201c565b620010197fcb69cb3c0f8a75e2c548a59a9a6f16480c220dc9611455e2f2a5ff64c19012f660001b6200140f60201b60201c565b600062001031836200141260201b620016221760201c565b9050620010677f05454e9c8dc486b9dafcaafcc4a6b37e8e4a0bd10c5a957d6788a08d4705e74a60001b6200140f60201b60201c565b6200109b7f545be28ad664a45fbd66a4b1cf9af17e7b7fa1c0858756e55615423b09c10cf960001b6200140f60201b60201c565b620010cf7f7b74d3cbf19e745235b98e2e533402f6fea14c7950d83932d7459f8c0776ae7560001b6200140f60201b60201c565b8181600001541062001118576040517f08c379a00000000000000000000000000000000000000000000000000000000081526004016200110f90620015f3565b60405180910390fd5b6200114c7fb77e179c39cd483a2fb9d49c9d6baaf337e679c6fc0b0193351b78700052fb6060001b6200140f60201b60201c565b620011807f73251853a52f4546290b9dbdb4820ad06a75d361304d051af620ac9db846f98760001b6200140f60201b60201c565b620011b47f8670f345bbc08bb652aae01676abdbb142983e1527aecdd350c544d4ac9aa25360001b6200140f60201b60201c565b818160000181905550505050565b620011f67ffeeaaad6b1efab2833cc700d80f740603a4ac6746f8e38068c950d299cc199bf60001b62000f7a60201b60201c565b6200122a7f3ca2cb9a9b6e35728cedd7c19d4c121988341387931213a51eab1b4bbaf4113560001b62000f7a60201b60201c565b6200125e7f1f9cdb98c65d0ad87aac43319c2670926bcb7c14904c7f9d4ade6235d82de71960001b62000f7a60201b60201c565b620012927f5dbdac164f3e02893e8f90adfbe776f3f50c85847d234ab6fb16b0a4846759d760001b62000f7a60201b60201c565b63ffffffff60e01b827bffffffffffffffffffffffffffffffffffffffffffffffffffffffff191603620012fd576040517f08c379a0000000000000000000000000000000000000000000000000000000008152600401620012f49062001665565b60405180910390fd5b620013317fd6b36b8472d324009615e496388c108ffb1831ab3bd7bded72d29ac4baf2ad1e60001b62000f7a60201b60201c565b620013657f7b2218cefa5bbb0f0239126c55783358df88ffab00f11d9c8f8e38985d9a8c9860001b62000f7a60201b60201c565b620013997f2ad1063a0d34755f3bea24bcd3cfaff3dbbf63fbfa3f9b4c9c252fdffa66ed3360001b62000f7a60201b60201c565b80836000016000847bffffffffffffffffffffffffffffffffffffffffffffffffffffffff19167bffffffffffffffffffffffffffffffffffffffffffffffffffffffff1916815260200190815260200160002060006101000a81548160ff021916908315150217905550505050565b50565b50565b50565b6000819050919050565b600080fd5b60008115159050919050565b620014388162001421565b81146200144457600080fd5b50565b60008151905062001458816200142d565b92915050565b600073ffffffffffffffffffffffffffffffffffffffff82169050919050565b60006200148b826200145e565b9050919050565b60006200149f826200147e565b9050919050565b620014b18162001492565b8114620014bd57600080fd5b50565b600081519050620014d181620014a6565b92915050565b60008060408385031215620014f157620014f06200141c565b5b6000620015018582860162001447565b92505060206200151485828601620014c0565b9150509250929050565b6000819050919050565b7f4e487b7100000000000000000000000000000000000000000000000000000000600052601160045260246000fd5b600062001564826200151e565b915062001571836200151e565b92508282101562001587576200158662001528565b5b828203905092915050565b600082825260208201905092915050565b7f53746f726167653a2076657273696f6e20726561636865640000000000000000600082015250565b6000620015db60188362001592565b9150620015e882620015a3565b602082019050919050565b600060208201905081810360008301526200160e81620015cc565b9050919050565b7f496e74657266616365446574656374696f6e3a2077726f6e672076616c756500600082015250565b60006200164d601f8362001592565b91506200165a8262001615565b602082019050919050565b6000602082019050818103600083015262001680816200163e565b9050919050565b608051613384620016b8600039600081816126160152818161266b01528181612ac60152612b1b01526133846000f3fe608060405234801561001057600080fd5b50600436106100a35760003560e01c80638456cb59116100765780638da5cb5b1161005b5780638da5cb5b146101335780638ebd807314610151578063f2fde38b1461015b576100a3565b80638456cb591461011f578063859f7acb14610129576100a3565b806301ffc9a7146100a857806331e66e1e146100d85780633f4ba83a146100f75780635c975abb14610101575b600080fd5b6100c260048036038101906100bd9190612e53565b610177565b6040516100cf9190612e9b565b60405180910390f35b6100e061021e565b6040516100ee929190612f14565b60405180910390f35b6100ff6102b5565b005b6101096103c4565b6040516101169190612e9b565b60405180910390f35b61012761045f565b005b61013161056e565b005b61013b610604565b6040516101489190612f79565b60405180910390f35b6101596106bb565b005b61017560048036038101906101709190612fc0565b610751565b005b60006101a57ff8a50cb57dfbe5cd3087ac85b472f4e855947a0b492414ca3ed0d3ea9ce7678460001b61162c565b6101d17f74f508077361b12f3b9081a81671a8b810d2013470fc5f93bc3703060f4b948060001b61162c565b6101fd7f51d3a827738b8595e3720ba2309d5148006e9b73b285f86aca1f5570723bb89260001b61162c565b610217826102096107fb565b61162f90919063ffffffff16565b9050919050565b36600061024d7f16cfb18c787070965ca5cb7786f4c28cbb030b3a976ede84237104b7632124a560001b61171e565b6102797f9c2bcb76c404a3159bcc108ff905ab5319488473f8323b57d71ad3814e084a4060001b61171e565b6102a57faeff3772bb554c171e986bf0cc9a3e69a6c351332d68e12522c436e8d4bed61160001b61171e565b6102ad611721565b915091509091565b6102e17f6fff9989851e5ae8159c04a803e8e6d9df306768503cb56013714acbb54084a660001b6117b8565b61030d7fe1506cdb9a53a5d653ee6ca0e8aacc38165260daa5ff8c6ef7430dfc8a6e6af360001b6117b8565b6103397f3a415ac8e1b27a65fcb315c882d8d11f017848a51d888373c19f79fd7307292460001b6117b8565b61035a6103446117bb565b61034c610a3d565b61184e90919063ffffffff16565b6103867f41131bb173e1004ed6e18d64031da5e3487037e60a96f62cee3371525084dd4e60001b6117b8565b6103b27f03840184e2b2478492be5f4eeda1b2960b872861a9375de58933e27b5a5f02df60001b6117b8565b6103c26103bd610ebf565b6119c0565b565b60006103f27fd56720dda48b6d0fb47cbd4507fad1f67986e6ca1d61a44b09137c103ee012f960001b6117b8565b61041e7f11641a4048ac9d7047eda065499821cd88b0a580c44d43aff6fd90e5699744ba60001b6117b8565b61044a7f496a0fd73d59b177aaf85c0dcec0e2b2efbca209c7f7907c9ac41972ee39074160001b6117b8565b61045a610455610ebf565b611b49565b905090565b61048b7ff226eb85e9a0033ef97d98d6e9d490adac964c0f51a905c7e32cac8794b174b560001b6117b8565b6104b77ffe82579708000ae9aaed1d9867a80fcb50eacf3d0962c4da55be45df9137007a60001b6117b8565b6104e37f0e72df1ac57b382a9dfb23fa5740eb7a4c6e172794a4b66b7f30ab616207949660001b6117b8565b6105046104ee6117bb565b6104f6610a3d565b61184e90919063ffffffff16565b6105307ffa08cc028cd9d4cd0123f684a950d2f802ad72e80e4863f463612007c1a3087960001b6117b8565b61055c7f5bfb161f3c6da584f965049603fa5042043b8823fc25bbafc77ae7304f70523560001b6117b8565b61056c610567610ebf565b611be8565b565b61059a7f2fcfe7b93984961aea925be5ae268755a416f42676bdd453c2fc3bbc150564e060001b61171e565b6105c67feb1de45fdf7baafebc3e4bcb8b5d3da504d4c14b269ff5cc45a7f5a83f40c96f60001b61171e565b6105f27f1529c887e285846fb871088070ae1d034c6c6a885cba60d166d4d1eb9d34ee1e60001b61171e565b6106026105fd610ebf565b611d71565b565b60006106327f843413c3a80603a10b0aa10bd5f1f82cff0a1d8ec6b12e0fc267ea5481ebe15260001b611ea1565b61065e7f599f920b3cf0c2c31e8b9ef15872f4edba7b3d935eac1ce98786a62fe4c50c8360001b611ea1565b61068a7f2048414aa8fb1906a4a6033772a4078e3d4a3cda2661b375c19db4083725225c60001b611ea1565b610692610a3d565b60000160009054906101000a900473ffffffffffffffffffffffffffffffffffffffff16905090565b6106e77f95c39e5c578335f8e7c62877f44828f6ff2a261ff3a63b9c090d6872d1ecf0ae60001b61171e565b6107137fbe146a9a0b9ccb09159a69cf819bb49c8a84495d8cb9ba79dd6bbac3f4a6604b60001b61171e565b61073f7fd94a534d6866f21d0e974f74927fbbc2d0fafc71e4aee50aaa0416dd15d6cfc460001b61171e565b61074f61074a610ebf565b611ea4565b565b61077d7f5f13e2beb87a5bcbc201caa1ec970b16378cebed0eb297e1a40ddc137a86a63960001b611ea1565b6107a97f0298e1e039854de28e6fbf14e758e182d6ea7790f1874626c850541e13251cc660001b611ea1565b6107d57f86bf5d1cdbf7d3de856cb7a4aed493fe35fba57e8b307d0e58407beffd995f7460001b611ea1565b6107f86107e06117bb565b826107e9610a3d565b611fd59092919063ffffffff16565b50565b60006108297f33dac451eefd1a6808163eecf8d47d7cba5f56d00787de044ff0ddc2ee89447d60001b6123dc565b6108557f80b5daaa693fe30ccf9f1f19243499ce9fe4bada91264dd37e7099a713fc8c0360001b6123dc565b6108817f66e2273229caef60ac0be45d070cc66ba1aaceeca2776bdf1fc50206d54f0f2260001b6123dc565b600060017f7180ffa89c91cf90d6c56dacabfc69bc5e36f3099d7eed2f5cc12c5dba016fe060001c6108b39190613026565b60001b90506108e47f283bb7ffa148f4f77b397c4f3d35798bfd3f1214dd2b6c078e2824cd344247cc60001b6123dc565b8091505090565b6109177f5200586752970e3ad0d6bfb86359724ccb5bbca672323dd1340f822383a3a78a60001b6123dc565b6109437f21e408fec048d3ce80d29705163530f5314fc555a45fc9ed3eec40536ac1181b60001b6123dc565b61096f7fdf39b92832ecc4113090a37ec124901cf4d2d8c7e6bd38a4644acf01b4acb95760001b6123dc565b6109ac60017f947245cdabe12ef4c13574b38217b361de48f57dd2dc345f43703c79bac2873d60001c6109a29190613026565b60001b6001611229565b6109d87fb775b727726cd7df9efcdd350b66fb2339470997ef5b7c30b825508f2ed6230060001b6123dc565b610a047fdba9d8a730f53aaaf88810c499da24a361a60fb181cfa11a5a79504d369b1bf360001b6123dc565b610a3a7f01ffc9a7000000000000000000000000000000000000000000000000000000006001836114169092919063ffffffff16565b50565b6000610a6b7f12b4db1a13ae954a255ef0fa37765d8ee1e39537e429053253a663eff808644d60001b6123df565b610a977feebae444011023bb1eb9d991a8900c1fc6c9dc05e526ab9149645480ea211c3e60001b6123df565b610ac37f7a85e8875e57667831d822c4c89a943f00106e2fdc910c0df83014dfd0d1477360001b6123df565b600060017f6a1da6973104ff7dedb9b4f5cab5830b3f4a0284ed754366cfc45568bd2d38df60001c610af59190613026565b60001b9050610b267fcd65f8dce9f650605649809ea57b1b403b2167736801d4eb4d6da1b99327986060001b6123df565b8091505090565b610b597f7ade047f1b18d3d9e4cf2dbfa4799e6897d1938ea0071c35770980d99be7675260001b6123df565b610b857fc0dd688ff28228f194ec76f495cc7b3de785a006ebf0721800218186e051433c60001b6123df565b610bb17f61c3ae71c4d526f3dfc13684ed672ca191550d63636ab205f7bffd9b572c6aef60001b6123df565b610bee60017ff1e2f4de496ffe5d046d751d8ec3c329ee011c6c6a229322971a7e02a207f97360001c610be49190613026565b60001b6001611229565b610c1a7fd348f5ca66daae8709ef102811c105c3e31fe6f6cc1edc224d2702ff3009e1f360001b6123df565b610c467f2fc46fc72a173dcc9c44e150d62890a4da759120e0f0d8e0bc33685ddd0f71be60001b6123df565b600073ffffffffffffffffffffffffffffffffffffffff168173ffffffffffffffffffffffffffffffffffffffff1614610df957610ca67f848a7b68acd8a245034bcc598f7508c96da067c4bf9df5962896ab6e4cbacbdc60001b6123df565b610cd27ffdef29fccd1fc52788b15fca93499f63fa408221ea0a7069b8da1a7aaf65e10660001b6123df565b610cfe7f793ccf870c20f1e89df7f66b11ec23db8c2400e3975173b0217a0164a2d8add360001b6123df565b808260000160006101000a81548173ffffffffffffffffffffffffffffffffffffffff021916908373ffffffffffffffffffffffffffffffffffffffff160217905550610d6d7fb8e5ea9fbb88bedd793f2345d140e5dd30fa2d6b312ff0e0f840f21e44632d1560001b6123df565b610d997ffd7dc9b3efa62dab8d13f6b0e28c02f666353f25b3e027756a44e148e82691da60001b6123df565b8073ffffffffffffffffffffffffffffffffffffffff16600073ffffffffffffffffffffffffffffffffffffffff167f8be0079c531659141344cd1fd0a4f28419497f9722a3daafe3b4186f6b6457e060405160405180910390a3610e26565b610e257fa8ee02fcfeaac392aadc593dfe7e0afeeae4022baf9fc709470ae9e2d5ce63c460001b6123df565b5b610e527f1da89fa828fcf0c756100601da9c9cead2f05c62afa4c1d26d316f4bd430b13960001b6123df565b610e7e7f69b196e3069d1309b23672c2540a03d602ef55a0acb3cc82b52b164fa69b37bb60001b6123df565b610ebb7f7f5828d0000000000000000000000000000000000000000000000000000000006001610eac6107fb565b6114169092919063ffffffff16565b5050565b6000610eed7fdebc1e9af392a36192084cee67e7ce35a3dad9d56d28914ba0b161a83e4a09bc60001b6123e2565b610f197f53f6d6e51bbd6ce87e6ad32d8ac6b805fd31680c1bffced52305309188d6ddd760001b6123e2565b610f457f03c34d4737e15fb617b65441edd1b0846e98c91aaa43f5f0a3301d41ae1ba74060001b6123e2565b600060017ffd6a7063f27337ade8f0157bddcda1459491d9175ccca22006adfec651d73f4960001c610f779190613026565b60001b9050610fa87fc433678b8de1c9c218dbab453e8eda884db98e32abb8b55862a00566ac995f5060001b6123e2565b8091505090565b610fdb7f5b062bd1345e23baf5ae5a0f7099cf5230851794a03562928decc560c36e188460001b6123e2565b6110077fa780aaaed5b9a681c2cd8aad4b7e868ae13f53b842cef5d7c87fd4b1dae0c54a60001b6123e2565b6110337fe05c702565d791ea9f274ad2a575f669136bd2203f500acc5dcf5b1ce8c9b20860001b6123e2565b61107060017fe5fb6784a0a1056070a5e6f0674bfa852aad166e8d480f190f09f2cc31863ff360001c6110669190613026565b60001b6001611229565b61109c7f4e11f420a20e01f4a4462dde7a75b78eab372f9c2b7b9c744d03de1b0510d77a60001b6123e2565b6110c87ffd4389b5ad7054a38c7e123a10fed24939fac4badd971041eb701451c3e4fc7c60001b6123e2565b80156111f8576110fa7fd616d1e6e960dbe8359f3009ce7b95cd65d70b1c7b7756a5addd2864b536211060001b6123e2565b6111267f4e61fdac988cd118b5133e8242a56238b5afb09f255972ee1a4d18f4f5be369e60001b6123e2565b6111527fdb3af980545927d6b21e9d62d503fea51b2c30bbced05d96fe5ab1ee341d518160001b6123e2565b60018260000160006101000a81548160ff02191690831515021790555061119b7f82141f863b459eda678664e66fbbee08e98ff62db4718b4bf857e3778c493dd560001b6123e2565b6111c77ffb0e0adfd17eff4f5bb4e5d1554e3f1db8c84dc2c2cf3e564d1b41684fdeb8c660001b6123e2565b7f9e87fac88ff661f02d44f95383c817fece4bce600a3dab7a54406878b965e75260405160405180910390a1611225565b6112247f8eb4fd389c8d8b0335ab8cdc21ceb802de40c17bdb6b8815c33916349f68740b60001b6123e2565b5b5050565b6112557f523c5c55fa27c1465eb0ba13f6927ac81ca2e843dca5743a6ceafc60fd44a7a260001b6123e5565b6112817f04772ea788fd843b127a602e9cfb0c6a91dd658dfc8c6564fb399afa5c8187c060001b6123e5565b6112ad7fcb69cb3c0f8a75e2c548a59a9a6f16480c220dc9611455e2f2a5ff64c19012f660001b6123e5565b60006112b883611622565b90506112e67f05454e9c8dc486b9dafcaafcc4a6b37e8e4a0bd10c5a957d6788a08d4705e74a60001b6123e5565b6113127f545be28ad664a45fbd66a4b1cf9af17e7b7fa1c0858756e55615423b09c10cf960001b6123e5565b61133e7f7b74d3cbf19e745235b98e2e533402f6fea14c7950d83932d7459f8c0776ae7560001b6123e5565b81816000015410611384576040517f08c379a000000000000000000000000000000000000000000000000000000000815260040161137b906130b7565b60405180910390fd5b6113b07fb77e179c39cd483a2fb9d49c9d6baaf337e679c6fc0b0193351b78700052fb6060001b6123e5565b6113dc7f73251853a52f4546290b9dbdb4820ad06a75d361304d051af620ac9db846f98760001b6123e5565b6114087f8670f345bbc08bb652aae01676abdbb142983e1527aecdd350c544d4ac9aa25360001b6123e5565b818160000181905550505050565b6114427ffeeaaad6b1efab2833cc700d80f740603a4ac6746f8e38068c950d299cc199bf60001b6123dc565b61146e7f3ca2cb9a9b6e35728cedd7c19d4c121988341387931213a51eab1b4bbaf4113560001b6123dc565b61149a7f1f9cdb98c65d0ad87aac43319c2670926bcb7c14904c7f9d4ade6235d82de71960001b6123dc565b6114c67f5dbdac164f3e02893e8f90adfbe776f3f50c85847d234ab6fb16b0a4846759d760001b6123dc565b63ffffffff60e01b827bffffffffffffffffffffffffffffffffffffffffffffffffffffffff19160361152e576040517f08c379a000000000000000000000000000000000000000000000000000000000815260040161152590613123565b60405180910390fd5b61155a7fd6b36b8472d324009615e496388c108ffb1831ab3bd7bded72d29ac4baf2ad1e60001b6123dc565b6115867f7b2218cefa5bbb0f0239126c55783358df88ffab00f11d9c8f8e38985d9a8c9860001b6123dc565b6115b27f2ad1063a0d34755f3bea24bcd3cfaff3dbbf63fbfa3f9b4c9c252fdffa66ed3360001b6123dc565b80836000016000847bffffffffffffffffffffffffffffffffffffffffffffffffffffffff19167bffffffffffffffffffffffffffffffffffffffffffffffffffffffff1916815260200190815260200160002060006101000a81548160ff021916908315150217905550505050565b6000819050919050565b50565b600061165d7ff68de529962505f3d093bf9c43fad9167430b64756c71c5b05318be93a89528360001b6123dc565b6116897f5b3efc29f5fccb99b612e0281cedbf3b49bae6ffb452e10d5d3658b18b0e7f5760001b6123dc565b6116b57fcc4d3945ab61be60c39258bbdebab383f06bca561326ee57b4e10f10ad63938260001b6123dc565b826000016000837bffffffffffffffffffffffffffffffffffffffffffffffffffffffff19167bffffffffffffffffffffffffffffffffffffffffffffffffffffffff1916815260200190815260200160002060009054906101000a900460ff16905092915050565b50565b3660006117507fe6e53e1280a4728b1602371b5a6a9deb1aba909d82c537482d76e43acb42e7b360001b61171e565b61177c7f376e9225282cec64b3778a6ff0c8f2f1e164e5070052953b0aee9e2a8678a47c60001b61171e565b6117a87f79504a235c77aa2c06cac844d78aefe90c3c6b82c94594d2808d613bf87337c860001b61171e565b6117b06123e8565b915091509091565b50565b60006117e97f4343b5be0e39cde3bac7e783ae85c8c8de62b7c8900be2d4db66ce7233ab2b1460001b61171e565b6118157f8633cff5d8fbf2fab0583889532b2afba8602d8e2830579db2f83a189748857c60001b61171e565b6118417f1d208b5c8aa367335d385a9134c150ad300aa3d15d77e62459967bea8cc088ae60001b61171e565b611849612839565b905090565b61187a7f311cb72dc07750d6828e4b4e89b77f33fb16c70db0f74c9dbf7e01b75fe2538460001b6123df565b6118a67f5a948a147df45bdb71c8f98a865604b23d4880b5921ab247626470201792a9d460001b6123df565b6118d27faa1ac481ace62e8856a31e42b6fa6ad7e8b29c10fa062b8775baa1bf5185f76360001b6123df565b6118fe7fa565745ecf1d7ea43fd9e19c5a7b72dbef31f2d274ba98df9594459d1fdda02f60001b6123df565b8160000160009054906101000a900473ffffffffffffffffffffffffffffffffffffffff1673ffffffffffffffffffffffffffffffffffffffff168173ffffffffffffffffffffffffffffffffffffffff1614611990576040517f08c379a00000000000000000000000000000000000000000000000000000000081526004016119879061318f565b60405180910390fd5b6119bc7f3cdf1cbcd193a5f563b48f16d650e4ae6a3f20aa956e2ea1fe221c3ff0241bd160001b6123df565b5050565b6119ec7f9912fd1c6205d13db609ad8a722bba424bb759e3b30ead9a6c50024a3aa3f05460001b6123e2565b611a187f0f5cf322298b24454adfb2d580a43472cb010cf4db85c03991954938db0135a860001b6123e2565b611a447f592245fa71e8244008e3d2adb1f393ccdee939a2a79b657310177987d0c462e060001b6123e2565b611a4d81611d71565b611a797fc5ed3c78b57dfb1266393f1e71715e325844f32742429ba3383feb0509c256f860001b6123e2565b611aa57fb94a9246bf7b08d706dbd58f3f3ad14a8d69f6b3a0ff39fc4463036890e5df4c60001b6123e2565b60008160000160006101000a81548160ff021916908315150217905550611aee7f081d4ecda32330488baecd8de498660dc6ab7b81723bd60d9fecedecb9ccc37760001b6123e2565b611b1a7fa096f4c58652b8bb1a5101a45cbe5d358a48013ce2c28bd967232a7f9cdf99cc60001b6123e2565b7fa45f47fdea8a1efdd9029a5691c7f759c32b7c698632b563573e155625d1693360405160405180910390a150565b6000611b777fcad7b1c29c2f2edefe67ca4203ca642407b06acf245bef89bd906e539f7bbf3c60001b6123e2565b611ba37fa67a7e9321486ff9c56e451c6f9e88b7ccde69a01d6c131ddda5b7818469675560001b6123e2565b611bcf7f75f581c132f68b4bc2631dba32097e2c01e66fd29a6453766c1e3cf28cd00a9a60001b6123e2565b8160000160009054906101000a900460ff169050919050565b611c147f5613e0c53b5b8fa1364f20b594298d81b86e5b9189c5f302c8409b84f8a0c9b060001b6123e2565b611c407f5de887f545dd00c71c97cc2200326b07f6b0bf5599df5f6067a704239d06c1e560001b6123e2565b611c6c7fa25229c7a8a756c858623b44632b8f285ca2afa67ec542400a74b801cfa059cc60001b6123e2565b611c7581611ea4565b611ca17f3ae1699da2c35a35eca1d68d2984b50a877b149e77785ee778acfcbee695a75960001b6123e2565b611ccd7f50b19b375c55f591c4cf23180ed2216970394ef371fc7352d86e79fec42a3a4460001b6123e2565b60018160000160006101000a81548160ff021916908315150217905550611d167fd8326d73ac591164d337d52a569ad1667bb03fde455eb6f1508f1f5c42ea90e360001b6123e2565b611d427f0597abdaaa1d18a8a6d6476219a1d320fd1bfb8e37f9aa299b6709d46c2f485a60001b6123e2565b7f9e87fac88ff661f02d44f95383c817fece4bce600a3dab7a54406878b965e75260405160405180910390a150565b611d9d7fa7ec9910390f1685a196bd00f321be82df072c3638ebd4bfcdcfd0e77deee19660001b6123e2565b611dc97f95d4e915f7052e69e812613fe9287ec54e254853a00eed7a681005f3528c6c8460001b6123e2565b611df57f69e94e4f8f8f658e9b0c524ffd34f011cc6ab96d1b1b1acb32087849b24642f960001b6123e2565b611e217f2c5e5381e7bd3fd3b88907aa030d198dc892406f1215a4047a0a45ef7fadcc5560001b6123e2565b8060000160009054906101000a900460ff16611e72576040517f08c379a0000000000000000000000000000000000000000000000000000000008152600401611e69906131fb565b60405180910390fd5b611e9e7f156965570190b1a80e420eb24a6ff2d871a4c591e63293f6b791a57a4fc6582f60001b6123e2565b50565b50565b611ed07fd69718b9e5a26c3cc6944d404840f03efbd50544db45cc89f95647ec9fc249b060001b6123e2565b611efc7fd894e80b2db39936504ef8b2ae437f7ab7a21c3b7500725c698c58a99a2469f160001b6123e2565b611f287fad6626ff87340cbca78f4374e8f6c98cabe6a3ace736b66cf67e83bfa4af7e0960001b6123e2565b611f547f238e3e6d2a8f87408eb27c6976d58d8246a14f7f884723b63b43a66c370ffe2360001b6123e2565b8060000160009054906101000a900460ff1615611fa6576040517f08c379a0000000000000000000000000000000000000000000000000000000008152600401611f9d90613267565b60405180910390fd5b611fd27f7795cf7e5f1dfbf963746cd7ad09ca08361a777a126a9e92a2365a23e0ec28fa60001b6123e2565b50565b6120017fdf59544792feea399434a4930be72a28dcd387f84c2a5fe280a21a2da3cc04d660001b6123df565b61202d7f0e764948267560c4d66737a797428b691c6b7aab5c40985a77f33a37ab527c4b60001b6123df565b6120597f3331bc4470b962efb54bc393cde17bc0b2a105748f5f9e0432e40398096ecfad60001b6123df565b60008360000160009054906101000a900473ffffffffffffffffffffffffffffffffffffffff1690506120ae7f5c027b9c47dca10d5a9351c5839dfe289d1764bfdf2caabeb825431d723a22bf60001b6123df565b6120da7f230ea7519ca83615ab759ab061070b00f84308731b014082e940b2d3fa61847260001b6123df565b6121067f77bbade0c2cdbbf2f8a4624ab384529d8194416749b49fd6047fe47f7cd4cf1160001b6123df565b8073ffffffffffffffffffffffffffffffffffffffff168373ffffffffffffffffffffffffffffffffffffffff1614612174576040517f08c379a000000000000000000000000000000000000000000000000000000000815260040161216b9061318f565b60405180910390fd5b6121a07fed5f4915a9a3c36dd9176824b7053dca79a55dfedcb55697386f813091b980b860001b6123df565b6121cc7f1d9c58456e9dafcf49ace88031963e549d56f7729344a4ab5ea5b4e3b4f6ae5160001b6123df565b6121f87f7f6e5d89f70a00c4e073528fd8d9b4b8a56beb221caa3630871384ccdf1196eb60001b6123df565b8173ffffffffffffffffffffffffffffffffffffffff168173ffffffffffffffffffffffffffffffffffffffff16146123a9576122577f75344049457f04ccd6a4a70b6a90f0df5ef28524a10cc64f98d0d0c2bd92839260001b6123df565b6122837f848bee61996961633e02a17f0a9124d5735958ffa875ccdb1672acefc826797560001b6123df565b6122af7fd22fd39463f994f0dda77f27f8df1de6fe9579e23d1f177e6584b5a6d6598c3b60001b6123df565b818460000160006101000a81548173ffffffffffffffffffffffffffffffffffffffff021916908373ffffffffffffffffffffffffffffffffffffffff16021790555061231e7f93e7178407b10f5b416a8a4e9ae10426316afabe6f8cfeae01c20778706815b760001b6123df565b61234a7feaae940865dcfff7289e799138b181a7fb86d5d3bd4c617bfc2362ccb7fc73bc60001b6123df565b8173ffffffffffffffffffffffffffffffffffffffff168173ffffffffffffffffffffffffffffffffffffffff167f8be0079c531659141344cd1fd0a4f28419497f9722a3daafe3b4186f6b6457e060405160405180910390a36123d6565b6123d57f5269352f2b943550775f3b3039303ce1ead1abfb3ebd4cda535c7cbff25914b060001b6123df565b5b50505050565b50565b50565b50565b50565b3660006124177ff74f168f3cfe88b8c75939ced6593b63b3a80d84384ea84798e06eb70c27e8b560001b612cd6565b6124437f0c30881a465ce740e34b44da3f5682b69b261b3b3d916bf3cb638422722c466360001b612cd6565b61246f7f7d034622f0cfa82b1eafef58ff96909800ff5cbda4aec1c658399402313d1e4760001b612cd6565b60003390506124a07f3e7b906c7c24b8d911bba8092ce84f23b5c1596b35038fef4ace71fcce1f3a0e60001b612cd6565b6124cc7f76d316808c9e8931ac3d89e37ff8d9a597f8e50813fa0a88766b36313e96041060001b612cd6565b3273ffffffffffffffffffffffffffffffffffffffff168173ffffffffffffffffffffffffffffffffffffffff16036125905761252b7fa811c091d51641b1118f1402cc0638dc69041cba2f323377090e0a55500a152460001b612cd6565b6125577ff673674fd259625637c155f7345382b871e4581df73bc53013494d30dd1dc16460001b612cd6565b6125837f108112c7eebc35534afdbeeca8c2ad7449209fe78eeb1f9fdd0c5f6fb3111cce60001b612cd6565b6000369250925050612835565b6125bc7f8e23e3f35cdceddd8b15b45bf787b8d6ae38e04c5870f4020c01d683a2f10fc560001b612cd6565b6125e87fb4f48de4e10f2751022dce70d5876a74afb41b756eb77cdf4fe88835769afb1a60001b612cd6565b6126147f2afe9b0d9d36347d263d9c298082ea9eea1c1879c9904d44b9316a451e41b92f60001b612cd6565b7f000000000000000000000000000000000000000000000000000000000000000073ffffffffffffffffffffffffffffffffffffffff168173ffffffffffffffffffffffffffffffffffffffff16148061270d57507f000000000000000000000000000000000000000000000000000000000000000073ffffffffffffffffffffffffffffffffffffffff1663e60125d66126ad612cd9565b836040518363ffffffff1660e01b81526004016126cb929190613287565b602060405180830381865afa1580156126e8573d6000803e3d6000fd5b505050506040513d601f19601f8201168201806040525081019061270c91906132dc565b5b156127a85761273e7f2191333a031dc1f79f931a9c32f8cc636186c8d1941bf6ad2d0e09669ccdb2fd60001b612cd6565b61276a7f625d923af8cba91f74f7ad122740e01bcd36ee0be52b9596ca85f7881a963db360001b612cd6565b6127967f09e6b704caf4fc80a51357d4ff43f8bab75f1133b8a694db1fb7ac8851fe64b160001b612cd6565b61279e612d40565b9250925050612835565b6127d47fcfd0711298438e2e01b8a5c4d5745b4b2a1fa1742e9ef04643fd654ff78cfca960001b612cd6565b6128007faec17026272a3ca53764ba29e047c1b72c1edbf88732d32ffae6b5c0d7fcf39960001b612cd6565b61282c7f7518e0f5afdd21984f9ce13318f9370b2d82da30fc4ffdbb78362126da32d52960001b612cd6565b60003692509250505b9091565b60006128677f21f83b85e7dbc596177bc46cc6795c14520638d6db8281a9a46e4d6aa22fb1aa60001b612cd6565b6128937f9fe8a1e1e7c5f38bddac874222fbac3da358d377b550af606038c28c918342a660001b612cd6565b6128bf7f4d776035fe014c48f9b8d211e07ad5f3e10a7407e640d6fd44f001ad72ec145460001b612cd6565b60003390506128f07f1470143c211ace273ad33be67e446aa27b56df8ff21c9e30df1c1ce1aab37faf60001b612cd6565b61291c7f701a5aed6b7834b1cde40063ca2763d0cc2a2d369e96d6ffd63bd7f36d010be860001b612cd6565b3273ffffffffffffffffffffffffffffffffffffffff168173ffffffffffffffffffffffffffffffffffffffff16036129dc5761297b7fde73d737f19da71f7e0a8be64041464998117e05c9bb9f65df2259a0779caaa960001b612cd6565b6129a77f2e1b1201e86447778e6a37c8701809fecc19c6c17c8cdf9a32e27254363f132c60001b612cd6565b6129d37f06438a6776a73eebdc69485314350483a51cfddc04e159b6f57dde5e4030039060001b612cd6565b80915050612cd3565b612a087f6b510e6cfe0d366d8eb68be09db038d2dbfc0ca71029993b650b184340fc438a60001b612cd6565b612a347fc81f2aa3e9c76ff8d9709ad059857726fb537b8fa6166dbedc9e3f598edddc4160001b612cd6565b612a607fd5cec79665173c3237287beadc96f615eba8ff220376c7f0add1c603fa1dcb0260001b612cd6565b6000612a6a612cd9565b9050612a987f16b7bdd4d503ca2d391b420534e7b71ff847aea146e0c5e9b1d972d25ac95cf360001b612cd6565b612ac47f8284349b0a2249652b224d12d5fd826a549839b4e0aab6630e88a99ebee0413860001b612cd6565b7f000000000000000000000000000000000000000000000000000000000000000073ffffffffffffffffffffffffffffffffffffffff168273ffffffffffffffffffffffffffffffffffffffff161480612bb657507f000000000000000000000000000000000000000000000000000000000000000073ffffffffffffffffffffffffffffffffffffffff1663e60125d682846040518363ffffffff1660e01b8152600401612b74929190613287565b602060405180830381865afa158015612b91573d6000803e3d6000fd5b505050506040513d601f19601f82011682018060405250810190612bb591906132dc565b5b15612c4957612be77ff1748450d5c67d16e99d465b5f46314c0a03cb614c0a36c7a01d0d452a42d63760001b612cd6565b612c137ffcb9fb7b37e10dcd260ee2b6500d072708cde8b16110ac602ac219c4f0ac7a8860001b612cd6565b612c3f7f0b8b6cb7f0d04c4b23441400a0a579a14ccf6e6d955d51d0d443ae3b764fbf1e60001b612cd6565b8092505050612cd3565b612c757fc6338ea7b912cb871ae88b37af8abae50806bb4e29d453caf0758aea491b82ab60001b612cd6565b612ca17fb1b2861ba78bbb686a91db34f76b76efe61d8e91016be1013861a8390b68a26860001b612cd6565b612ccd7f131b91089cbc4af49187f8d51fbbc23a25f13946f6ab1ab771005101548d429760001b612cd6565b81925050505b90565b50565b6000612d077fd2d14d566965719ee17c5b60ff32623f910e7a0e574f2eeae19a64856bd35c4c60001b612df3565b612d337fa390d1eca31ebd819e35c63e13daa420bd40dcdd984217eef68768880371b01d60001b612df3565b601436033560601c905090565b366000612d6f7f7a9fde0e4d93131667b711f92dc641fa832990e5bb6a3b4626ffa6b5d4f3fdae60001b612df3565b612d9b7fc610f11635537ce6a03686b10e383cf783da248254319abfbb04eeb973e3acd760001b612df3565b612dc77f17531d10ccf76e2a802938b28b374efcd761ac66995a64071083ebf2a16e732060001b612df3565b60003660009060146000369050612dde9190613026565b92612deb93929190613313565b915091509091565b50565b600080fd5b60007fffffffff0000000000000000000000000000000000000000000000000000000082169050919050565b612e3081612dfb565b8114612e3b57600080fd5b50565b600081359050612e4d81612e27565b92915050565b600060208284031215612e6957612e68612df6565b5b6000612e7784828501612e3e565b91505092915050565b60008115159050919050565b612e9581612e80565b82525050565b6000602082019050612eb06000830184612e8c565b92915050565b600082825260208201905092915050565b82818337600083830152505050565b6000601f19601f8301169050919050565b6000612ef38385612eb6565b9350612f00838584612ec7565b612f0983612ed6565b840190509392505050565b60006020820190508181036000830152612f2f818486612ee7565b90509392505050565b600073ffffffffffffffffffffffffffffffffffffffff82169050919050565b6000612f6382612f38565b9050919050565b612f7381612f58565b82525050565b6000602082019050612f8e6000830184612f6a565b92915050565b612f9d81612f58565b8114612fa857600080fd5b50565b600081359050612fba81612f94565b92915050565b600060208284031215612fd657612fd5612df6565b5b6000612fe484828501612fab565b91505092915050565b6000819050919050565b7f4e487b7100000000000000000000000000000000000000000000000000000000600052601160045260246000fd5b600061303182612fed565b915061303c83612fed565b92508282101561304f5761304e612ff7565b5b828203905092915050565b600082825260208201905092915050565b7f53746f726167653a2076657273696f6e20726561636865640000000000000000600082015250565b60006130a160188361305a565b91506130ac8261306b565b602082019050919050565b600060208201905081810360008301526130d081613094565b9050919050565b7f496e74657266616365446574656374696f6e3a2077726f6e672076616c756500600082015250565b600061310d601f8361305a565b9150613118826130d7565b602082019050919050565b6000602082019050818103600083015261313c81613100565b9050919050565b7f4f776e6572736869703a206e6f7420746865206f776e65720000000000000000600082015250565b600061317960188361305a565b915061318482613143565b602082019050919050565b600060208201905081810360008301526131a88161316c565b9050919050565b7f50617573653a206e6f7420706175736564000000000000000000000000000000600082015250565b60006131e560118361305a565b91506131f0826131af565b602082019050919050565b60006020820190508181036000830152613214816131d8565b9050919050565b7f50617573653a2070617573656400000000000000000000000000000000000000600082015250565b6000613251600d8361305a565b915061325c8261321b565b602082019050919050565b6000602082019050818103600083015261328081613244565b9050919050565b600060408201905061329c6000830185612f6a565b6132a96020830184612f6a565b9392505050565b6132b981612e80565b81146132c457600080fd5b50565b6000815190506132d6816132b0565b92915050565b6000602082840312156132f2576132f1612df6565b5b6000613300848285016132c7565b91505092915050565b600080fd5b600080fd5b6000808585111561332757613326613309565b5b838611156133385761333761330e565b5b600185028301915084860390509450949250505056fea2646970667358221220c2d8896b6a9da70cd86d2e8a107783e4fdb2adad9382128f394f235ec6fa53f564736f6c634300080d0033",
  "linkReferences": {},
  "deployedLinkReferences": {}
}