{
  "_format": "hh-sol-artifact-1",
  "contractName": "ERC20SafeTransfersFacet",
  "sourceName": "contracts/token/ERC20/ERC20SafeTransfersFacet.sol",
  "abi": [
    {
      "inputs": [
        {
          "internalType": "contract IForwarderRegistry",
          "name": "forwarderRegistry",
          "type": "address"
        }
      ],
      "stateMutability": "nonpayable",
      "type": "constructor"
    },
    {
      "inputs": [],
      "name": "initERC20SafeTransfersStorage",
      "outputs": [],
      "stateMutability": "nonpayable",
      "type": "function"
    },
    {
      "inputs": [
        {
          "internalType": "address",
          "name": "to",
          "type": "address"
        },
        {
          "internalType": "uint256",
          "name": "value",
          "type": "uint256"
        },
        {
          "internalType": "bytes",
          "name": "data",
          "type": "bytes"
        }
      ],
      "name": "safeTransfer",
      "outputs": [
        {
          "internalType": "bool",
          "name": "",
          "type": "bool"
        }
      ],
      "stateMutability": "nonpayable",
      "type": "function"
    },
    {
      "inputs": [
        {
          "internalType": "address",
          "name": "from",
          "type": "address"
        },
        {
          "internalType": "address",
          "name": "to",
          "type": "address"
        },
        {
          "internalType": "uint256",
          "name": "value",
          "type": "uint256"
        },
        {
          "internalType": "bytes",
          "name": "data",
          "type": "bytes"
        }
      ],
      "name": "safeTransferFrom",
      "outputs": [
        {
          "internalType": "bool",
          "name": "",
          "type": "bool"
        }
      ],
      "stateMutability": "nonpayable",
      "type": "function"
    }
  ],
  "bytecode": "0x60a060405234801561001057600080fd5b50604051610ec6380380610ec683398101604081905261002f91610040565b6001600160a01b0316608052610070565b60006020828403121561005257600080fd5b81516001600160a01b038116811461006957600080fd5b9392505050565b608051610e346100926000396000818161064401526106e40152610e346000f3fe608060405234801561001057600080fd5b50600436106100415760003560e01c8063b88d4fde14610046578063d294f8eb1461006d578063eb79554914610077575b600080fd5b610059610054366004610c0d565b61008a565b604051901515815260200160405180910390f35b6100756100bb565b005b610059610085366004610c7c565b61010b565b60006100af610097610139565b87878787876100a4610148565b95949392919061017c565b50600195945050505050565b6100d46100c6610139565b6100ce6102dc565b9061030a565b6101097f53f41a97000000000000000000000000000000000000000000000000000000006001610102610391565b91906103bf565b565b600061012e610118610139565b86868686610124610148565b94939291906104af565b506001949350505050565b6000610143610608565b905090565b60008061017660017f1da92899d3da68bf9787824388a37ea2bfa79780bcef91b9716c390eec8ecbef610cd6565b92915050565b6101898787878787610760565b73ffffffffffffffffffffffffffffffffffffffff84163b156102d3576040517f4fc35859000000000000000000000000000000000000000000000000000000008082529073ffffffffffffffffffffffffffffffffffffffff861690634fc3585990610202908a908a90899089908990600401610d14565b6020604051808303816000875af1158015610221573d6000803e3d6000fd5b505050506040513d601f19601f820116820180604052508101906102459190610d93565b7fffffffff0000000000000000000000000000000000000000000000000000000016146102d3576040517f08c379a000000000000000000000000000000000000000000000000000000000815260206004820152601760248201527f45524332303a207472616e73666572207265667573656400000000000000000060448201526064015b60405180910390fd5b50505050505050565b60008061017660017fb53127684a568b3173ae13b9f8a6016e243e63b6e8ee1178d6a717850b5d6104610cd6565b815473ffffffffffffffffffffffffffffffffffffffff82811691161461038d576040517f08c379a000000000000000000000000000000000000000000000000000000000815260206004820152601960248201527f50726f787941646d696e3a206e6f74207468652061646d696e0000000000000060448201526064016102ca565b5050565b60008061017660017fca9d3e17f264b0f3984e2634e94adb37fa3e6a8103f06aeae6fa59e21c769f5e610cd6565b7fffffffff00000000000000000000000000000000000000000000000000000000808316900361044b576040517f08c379a000000000000000000000000000000000000000000000000000000000815260206004820152601f60248201527f496e74657266616365446574656374696f6e3a2077726f6e672076616c75650060448201526064016102ca565b7fffffffff00000000000000000000000000000000000000000000000000000000919091166000908152602092909252604090912080547fffffffffffffffffffffffffffffffffffffffffffffffffffffffffffffff0016911515919091179055565b6104bb868686866107b2565b73ffffffffffffffffffffffffffffffffffffffff84163b15610600576040517f4fc35859000000000000000000000000000000000000000000000000000000008082529073ffffffffffffffffffffffffffffffffffffffff861690634fc35859906105349089908190899089908990600401610d14565b6020604051808303816000875af1158015610553573d6000803e3d6000fd5b505050506040513d601f19601f820116820180604052508101906105779190610d93565b7fffffffff000000000000000000000000000000000000000000000000000000001614610600576040517f08c379a000000000000000000000000000000000000000000000000000000000815260206004820152601760248201527f45524332303a207472616e73666572207265667573656400000000000000000060448201526064016102ca565b505050505050565b60003332810361061757919050565b6000367fffffffffffffffffffffffffffffffffffffffffffffffffffffffffffffffec013560601c90507f000000000000000000000000000000000000000000000000000000000000000073ffffffffffffffffffffffffffffffffffffffff168273ffffffffffffffffffffffffffffffffffffffff16148061074f57506040517fe60125d600000000000000000000000000000000000000000000000000000000815273ffffffffffffffffffffffffffffffffffffffff828116600483015283811660248301527f0000000000000000000000000000000000000000000000000000000000000000169063e60125d690604401602060405180830381865afa15801561072b573d6000803e3d6000fd5b505050506040513d601f19601f8201168201806040525081019061074f9190610ddc565b1561075a5792915050565b50919050565b8373ffffffffffffffffffffffffffffffffffffffff168373ffffffffffffffffffffffffffffffffffffffff161461079f5761079f858486846109a1565b6107ab858484846107b2565b5050505050565b73ffffffffffffffffffffffffffffffffffffffff821661082f576040517f08c379a000000000000000000000000000000000000000000000000000000000815260206004820152601660248201527f45524332303a20746f207a65726f20616464726573730000000000000000000060448201526064016102ca565b80156109345773ffffffffffffffffffffffffffffffffffffffff83166000908152602085905260409020548181038181106108c7576040517f08c379a000000000000000000000000000000000000000000000000000000000815260206004820152601b60248201527f45524332303a20696e73756666696369656e742062616c616e6365000000000060448201526064016102ca565b8373ffffffffffffffffffffffffffffffffffffffff168573ffffffffffffffffffffffffffffffffffffffff16146109315773ffffffffffffffffffffffffffffffffffffffff8086166000908152602088905260408082208490559186168152208054840190555b50505b8173ffffffffffffffffffffffffffffffffffffffff168373ffffffffffffffffffffffffffffffffffffffff167fddf252ad1be2c89b69c2b068fc378daa952ba7f163c4a11628f55a4df523b3ef8360405161099391815260200190565b60405180910390a350505050565b73ffffffffffffffffffffffffffffffffffffffff8216610a1e576040517f08c379a000000000000000000000000000000000000000000000000000000000815260206004820152601b60248201527f45524332303a207a65726f2061646472657373207370656e646572000000000060448201526064016102ca565b73ffffffffffffffffffffffffffffffffffffffff80841660009081526001860160209081526040808320938616835292905220547fffffffffffffffffffffffffffffffffffffffffffffffffffffffffffffffff8114801590610a8257508115155b15610b2d57818103818110610af3576040517f08c379a000000000000000000000000000000000000000000000000000000000815260206004820152601d60248201527f45524332303a20696e73756666696369656e7420616c6c6f77616e636500000060448201526064016102ca565b73ffffffffffffffffffffffffffffffffffffffff8086166000908152600188016020908152604080832093881683529290522081905590505b8273ffffffffffffffffffffffffffffffffffffffff168473ffffffffffffffffffffffffffffffffffffffff167f8c5be1e5ebec7d5bd14f71427d1e84f3dd0314c0f7b2291e5b200ac8c7c3b92583604051610b8c91815260200190565b60405180910390a35050505050565b803573ffffffffffffffffffffffffffffffffffffffff81168114610bbf57600080fd5b919050565b60008083601f840112610bd657600080fd5b50813567ffffffffffffffff811115610bee57600080fd5b602083019150836020828501011115610c0657600080fd5b9250929050565b600080600080600060808688031215610c2557600080fd5b610c2e86610b9b565b9450610c3c60208701610b9b565b935060408601359250606086013567ffffffffffffffff811115610c5f57600080fd5b610c6b88828901610bc4565b969995985093965092949392505050565b60008060008060608587031215610c9257600080fd5b610c9b85610b9b565b935060208501359250604085013567ffffffffffffffff811115610cbe57600080fd5b610cca87828801610bc4565b95989497509550505050565b600082821015610d0f577f4e487b7100000000000000000000000000000000000000000000000000000000600052601160045260246000fd5b500390565b600073ffffffffffffffffffffffffffffffffffffffff808816835280871660208401525084604083015260806060830152826080830152828460a0840137600060a0848401015260a07fffffffffffffffffffffffffffffffffffffffffffffffffffffffffffffffe0601f85011683010190509695505050505050565b600060208284031215610da557600080fd5b81517fffffffff0000000000000000000000000000000000000000000000000000000081168114610dd557600080fd5b9392505050565b600060208284031215610dee57600080fd5b81518015158114610dd557600080fdfea2646970667358221220373fd1c2a18ac2d8aa56db579bbfb3fa151c4af6890d7cdb80c09661720db3ff64736f6c634300080e0033",
  "linkReferences": {},
  "deployedLinkReferences": {}
}