{
  "_format": "hh-sol-artifact-1",
  "contractName": "TokenRecoveryBase",
  "sourceName": "contracts/security/base/TokenRecoveryBase.sol",
  "abi": [
    {
      "inputs": [
        {
          "internalType": "address[]",
          "name": "accounts",
          "type": "address[]"
        },
        {
          "internalType": "contract IERC20[]",
          "name": "tokens",
          "type": "address[]"
        },
        {
          "internalType": "uint256[]",
          "name": "amounts",
          "type": "uint256[]"
        }
      ],
      "name": "recoverERC20s",
      "outputs": [],
      "stateMutability": "nonpayable",
      "type": "function"
    },
    {
      "inputs": [
        {
          "internalType": "address[]",
          "name": "accounts",
          "type": "address[]"
        },
        {
          "internalType": "contract IERC721[]",
          "name": "contracts",
          "type": "address[]"
        },
        {
          "internalType": "uint256[]",
          "name": "tokenIds",
          "type": "uint256[]"
        }
      ],
      "name": "recoverERC721s",
      "outputs": [],
      "stateMutability": "nonpayable",
      "type": "function"
    },
    {
      "inputs": [
        {
          "internalType": "address payable[]",
          "name": "accounts",
          "type": "address[]"
        },
        {
          "internalType": "uint256[]",
          "name": "amounts",
          "type": "uint256[]"
        }
      ],
      "name": "recoverETH",
      "outputs": [],
      "stateMutability": "nonpayable",
      "type": "function"
    }
  ],
  "bytecode": "0x608060405234801561001057600080fd5b50610cdb806100206000396000f3fe608060405234801561001057600080fd5b50600436106100415760003560e01c806373c8a95814610046578063c3666c361461005b578063f7ba94bd1461006e575b600080fd5b610059610054366004610a41565b610081565b005b610059610069366004610a41565b6101b1565b61005961007c366004610adb565b610354565b610094335b61008e610440565b90610474565b8483811480156100a357508082145b61010e576040517f08c379a000000000000000000000000000000000000000000000000000000000815260206004820152601d60248201527f5265636f766572793a20696e636f6e73697374656e742061727261797300000060448201526064015b60405180910390fd5b60005b8181146101a75761019f88888381811061012d5761012d610b47565b90506020020160208101906101429190610b9b565b85858481811061015457610154610b47565b9050602002013588888581811061016d5761016d610b47565b90506020020160208101906101829190610b9b565b73ffffffffffffffffffffffffffffffffffffffff1691906104fb565b600101610111565b5050505050505050565b6101ba33610086565b8483811480156101c957508082145b61022f576040517f08c379a000000000000000000000000000000000000000000000000000000000815260206004820152601d60248201527f5265636f766572793a20696e636f6e73697374656e74206172726179730000006044820152606401610105565b60005b8181146101a75785858281811061024b5761024b610b47565b90506020020160208101906102609190610b9b565b73ffffffffffffffffffffffffffffffffffffffff166323b872dd308a8a8581811061028e5761028e610b47565b90506020020160208101906102a39190610b9b565b8787868181106102b5576102b5610b47565b6040517fffffffff0000000000000000000000000000000000000000000000000000000060e088901b16815273ffffffffffffffffffffffffffffffffffffffff958616600482015294909316602485015250602090910201356044820152606401600060405180830381600087803b15801561033157600080fd5b505af1158015610345573d6000803e3d6000fd5b50505050806001019050610232565b61035d33610086565b828181146103c7576040517f08c379a000000000000000000000000000000000000000000000000000000000815260206004820152601d60248201527f5265636f766572793a20696e636f6e73697374656e74206172726179730000006044820152606401610105565b60005b818114610438576104308484838181106103e6576103e6610b47565b905060200201358787848181106103ff576103ff610b47565b90506020020160208101906104149190610b9b565b73ffffffffffffffffffffffffffffffffffffffff169061058d565b6001016103ca565b505050505050565b60008061046e60017fc9ed16f33ab3a66c84bfd83099ccb2a8845871e2e1c1928f63797152f0fd54cd610bb8565b92915050565b815473ffffffffffffffffffffffffffffffffffffffff8281169116146104f7576040517f08c379a000000000000000000000000000000000000000000000000000000000815260206004820152601860248201527f4f776e6572736869703a206e6f7420746865206f776e657200000000000000006044820152606401610105565b5050565b6040805173ffffffffffffffffffffffffffffffffffffffff8416602482015260448082018490528251808303909101815260649091019091526020810180517bffffffffffffffffffffffffffffffffffffffffffffffffffffffff167fa9059cbb000000000000000000000000000000000000000000000000000000001790526105889084906106e7565b505050565b804710156105f7576040517f08c379a000000000000000000000000000000000000000000000000000000000815260206004820152601d60248201527f416464726573733a20696e73756666696369656e742062616c616e63650000006044820152606401610105565b60008273ffffffffffffffffffffffffffffffffffffffff168260405160006040518083038185875af1925050503d8060008114610651576040519150601f19603f3d011682016040523d82523d6000602084013e610656565b606091505b5050905080610588576040517f08c379a000000000000000000000000000000000000000000000000000000000815260206004820152603a60248201527f416464726573733a20756e61626c6520746f2073656e642076616c75652c207260448201527f6563697069656e74206d617920686176652072657665727465640000000000006064820152608401610105565b6000610749826040518060400160405280602081526020017f5361666545524332303a206c6f772d6c6576656c2063616c6c206661696c65648152508573ffffffffffffffffffffffffffffffffffffffff166107f39092919063ffffffff16565b80519091501561058857808060200190518101906107679190610bf2565b610588576040517f08c379a000000000000000000000000000000000000000000000000000000000815260206004820152602a60248201527f5361666545524332303a204552433230206f7065726174696f6e20646964206e60448201527f6f742073756363656564000000000000000000000000000000000000000000006064820152608401610105565b6060610802848460008561080c565b90505b9392505050565b60608247101561089e576040517f08c379a000000000000000000000000000000000000000000000000000000000815260206004820152602660248201527f416464726573733a20696e73756666696369656e742062616c616e636520666f60448201527f722063616c6c00000000000000000000000000000000000000000000000000006064820152608401610105565b73ffffffffffffffffffffffffffffffffffffffff85163b61091c576040517f08c379a000000000000000000000000000000000000000000000000000000000815260206004820152601d60248201527f416464726573733a2063616c6c20746f206e6f6e2d636f6e74726163740000006044820152606401610105565b6000808673ffffffffffffffffffffffffffffffffffffffff1685876040516109459190610c38565b60006040518083038185875af1925050503d8060008114610982576040519150601f19603f3d011682016040523d82523d6000602084013e610987565b606091505b50915091506109978282866109a2565b979650505050505050565b606083156109b1575081610805565b8251156109c15782518084602001fd5b816040517f08c379a00000000000000000000000000000000000000000000000000000000081526004016101059190610c54565b60008083601f840112610a0757600080fd5b50813567ffffffffffffffff811115610a1f57600080fd5b6020830191508360208260051b8501011115610a3a57600080fd5b9250929050565b60008060008060008060608789031215610a5a57600080fd5b863567ffffffffffffffff80821115610a7257600080fd5b610a7e8a838b016109f5565b90985096506020890135915080821115610a9757600080fd5b610aa38a838b016109f5565b90965094506040890135915080821115610abc57600080fd5b50610ac989828a016109f5565b979a9699509497509295939492505050565b60008060008060408587031215610af157600080fd5b843567ffffffffffffffff80821115610b0957600080fd5b610b15888389016109f5565b90965094506020870135915080821115610b2e57600080fd5b50610b3b878288016109f5565b95989497509550505050565b7f4e487b7100000000000000000000000000000000000000000000000000000000600052603260045260246000fd5b73ffffffffffffffffffffffffffffffffffffffff81168114610b9857600080fd5b50565b600060208284031215610bad57600080fd5b813561080581610b76565b8181038181111561046e577f4e487b7100000000000000000000000000000000000000000000000000000000600052601160045260246000fd5b600060208284031215610c0457600080fd5b8151801515811461080557600080fd5b60005b83811015610c2f578181015183820152602001610c17565b50506000910152565b60008251610c4a818460208701610c14565b9190910192915050565b6020815260008251806020840152610c73816040850160208701610c14565b601f017fffffffffffffffffffffffffffffffffffffffffffffffffffffffffffffffe016919091016040019291505056fea264697066735822122066df1a23df6cb9b66d5706a18aa87f91b45bf8a707be8fe8435a185a782b045364736f6c63430008110033",
  "linkReferences": {},
  "deployedLinkReferences": {}
}