{
  "_format": "hh-sol-artifact-1",
  "contractName": "ERC721MetadataWithBaseURIFacetMock",
  "sourceName": "contracts/mocks/token/ERC721/facets/ERC721MetadataWithBaseURIFacetMock.sol",
  "abi": [
    {
      "inputs": [
        {
          "internalType": "contract IForwarderRegistry",
          "name": "forwarderRegistry",
          "type": "address"
        }
      ],
      "stateMutability": "nonpayable",
      "type": "constructor"
    },
    {
      "anonymous": false,
      "inputs": [
        {
          "indexed": false,
          "internalType": "string",
          "name": "baseMetadataURI",
          "type": "string"
        }
      ],
      "name": "BaseMetadataURISet",
      "type": "event"
    },
    {
      "inputs": [],
      "name": "__msgData",
      "outputs": [
        {
          "internalType": "bytes",
          "name": "",
          "type": "bytes"
        }
      ],
      "stateMutability": "view",
      "type": "function"
    },
    {
      "inputs": [],
      "name": "baseMetadataURI",
      "outputs": [
        {
          "internalType": "string",
          "name": "baseURI",
          "type": "string"
        }
      ],
      "stateMutability": "view",
      "type": "function"
    },
    {
      "inputs": [
        {
          "internalType": "string",
          "name": "tokenName",
          "type": "string"
        },
        {
          "internalType": "string",
          "name": "tokenSymbol",
          "type": "string"
        }
      ],
      "name": "initERC721MetadataStorage",
      "outputs": [],
      "stateMutability": "nonpayable",
      "type": "function"
    },
    {
      "inputs": [],
      "name": "name",
      "outputs": [
        {
          "internalType": "string",
          "name": "tokenName",
          "type": "string"
        }
      ],
      "stateMutability": "view",
      "type": "function"
    },
    {
      "inputs": [
        {
          "internalType": "string",
          "name": "baseURI",
          "type": "string"
        }
      ],
      "name": "setBaseMetadataURI",
      "outputs": [],
      "stateMutability": "nonpayable",
      "type": "function"
    },
    {
      "inputs": [],
      "name": "symbol",
      "outputs": [
        {
          "internalType": "string",
          "name": "tokenSymbol",
          "type": "string"
        }
      ],
      "stateMutability": "view",
      "type": "function"
    },
    {
      "inputs": [
        {
          "internalType": "uint256",
          "name": "tokenId",
          "type": "uint256"
        }
      ],
      "name": "tokenURI",
      "outputs": [
        {
          "internalType": "string",
          "name": "uri",
          "type": "string"
        }
      ],
      "stateMutability": "view",
      "type": "function"
    }
  ],
  "bytecode": "0x60a060405234801561001057600080fd5b5060405161122e38038061122e83398101604081905261002f91610040565b6001600160a01b0316608052610070565b60006020828403121561005257600080fd5b81516001600160a01b038116811461006957600080fd5b9392505050565b60805161118e6100a060003960008181610663015281816106a1015281816107d90152610861015261118e6000f3fe608060405234801561001057600080fd5b506004361061007d5760003560e01c80637e518ec81161005b5780637e518ec8146100be57806395d89b41146100d3578063ab7e8850146100db578063c87b56dd146100ee57600080fd5b806306fdde031461008257806331e66e1e146100a05780635b2bd79e146100b6575b600080fd5b61008a610101565b6040516100979190610c7c565b60405180910390f35b6100a8610118565b604051610097929190610d16565b61008a61012b565b6100d16100cc366004610d7b565b610138565b005b61008a610169565b6100d16100e9366004610dbd565b61017b565b61008a6100fc366004610e29565b6101b2565b606061011361010e6101df565b61020d565b905090565b3660006101236102a3565b915091509091565b606061011361010e6102ae565b6101516101436102dc565b61014b6102e6565b90610314565b610165828261015e6102ae565b919061039c565b5050565b60606101136101766101df565b6103e7565b6101946101866102dc565b61018e6103f8565b90610426565b6101ac848484846101a36101df565b939291906104a9565b50505050565b60606101c6826101c0610537565b90610565565b506101d9826101d36102ae565b906105f8565b92915050565b6000806101d960017f9c4269c0f9f430d98876ffe9767fbf3f3232ea91a549beb549e5329532520eb3610e42565b606081600001805461021e90610e7c565b80601f016020809104026020016040519081016040528092919081815260200182805461024a90610e7c565b80156102975780601f1061026c57610100808354040283529160200191610297565b820191906000526020600020905b81548152906001019060200180831161027a57829003601f168201915b50505050509050919050565b36600061012361062c565b6000806101d960017fe94434e3c6b941c5d90218142fadcc69cb2e13723993540bfa1c131dd1d3475a610e42565b6000610113610796565b6000806101d960017fc9ed16f33ab3a66c84bfd83099ccb2a8845871e2e1c1928f63797152f0fd54cd610e42565b815473ffffffffffffffffffffffffffffffffffffffff828116911614610165576040517f08c379a000000000000000000000000000000000000000000000000000000000815260206004820152601860248201527f4f776e6572736869703a206e6f7420746865206f776e6572000000000000000060448201526064015b60405180910390fd5b826103a8828483610f4d565b507f04b1dc5c136a3ce9fded8db0ce3d3366c58764ec3a8e4c2b9e52e4ddfe5ebbf782826040516103da929190610d16565b60405180910390a1505050565b606081600101805461021e90610e7c565b6000806101d960017fb53127684a568b3173ae13b9f8a6016e243e63b6e8ee1178d6a717850b5d6104610e42565b815473ffffffffffffffffffffffffffffffffffffffff828116911614610165576040517f08c379a000000000000000000000000000000000000000000000000000000000815260206004820152601960248201527f50726f787941646d696e3a206e6f74207468652061646d696e000000000000006044820152606401610393565b6104de6104d760017f5c5aabce181f75938de01fc8f3ad085dae040f02ff51dda186020471d60f770d610e42565b60016108dd565b846104ea848683610f4d565b50600185016104fa828483610f4d565b506105307f5b5e139f00000000000000000000000000000000000000000000000000000000600161052961094d565b919061097b565b5050505050565b6000806101d960017fddf3ee18ae6d688373c219468f8be446e7ae82215f4779d821c7ea5e8c13c0c1610e42565b60008181526020839052604081205473ffffffffffffffffffffffffffffffffffffffff81166105f1576040517f08c379a000000000000000000000000000000000000000000000000000000000815260206004820152601a60248201527f4552433732313a206e6f6e2d6578697374696e6720746f6b656e0000000000006044820152606401610393565b9392505050565b60608261060483610a87565b604051602001610615929190611067565b604051602081830303815290604052905092915050565b3660003332148061063d5750601836105b1561064b5750600091369150565b3373ffffffffffffffffffffffffffffffffffffffff7f0000000000000000000000000000000000000000000000000000000000000000161480610780575073ffffffffffffffffffffffffffffffffffffffff7f000000000000000000000000000000000000000000000000000000000000000016638929a8ca367fffffffffffffffffffffffffffffffffffffffffffffffffffffffffffffffec013560601c6040517fffffffff0000000000000000000000000000000000000000000000000000000060e084901b16815273ffffffffffffffffffffffffffffffffffffffff9091166004820152336024820152604401602060405180830381865afa15801561075c573d6000803e3d6000fd5b505050506040513d601f19601f82011682018060405250810190610780919061110c565b1561078d57610123610b45565b50600091369150565b6000333214806107a65750601836105b156107b057503390565b7fffffffffffffffffffffffffffffffffffffffffffffffffffffffffffffffec36013560601c7f000000000000000000000000000000000000000000000000000000000000000073ffffffffffffffffffffffffffffffffffffffff163314806108cc57506040517f8929a8ca00000000000000000000000000000000000000000000000000000000815273ffffffffffffffffffffffffffffffffffffffff82811660048301523360248301527f00000000000000000000000000000000000000000000000000000000000000001690638929a8ca90604401602060405180830381865afa1580156108a8573d6000803e3d6000fd5b505050506040513d601f19601f820116820180604052508101906108cc919061110c565b156108d657919050565b3391505090565b815482908211610949576040517f08c379a000000000000000000000000000000000000000000000000000000000815260206004820152601660248201527f53746f726167653a2070686173652072656163686564000000000000000000006044820152606401610393565b5550565b6000806101d960017fca9d3e17f264b0f3984e2634e94adb37fa3e6a8103f06aeae6fa59e21c769f5e610e42565b7c01000000000000000000000000000000000000000000000000000000007fffffffff00000000000000000000000000000000000000000000000000000000831601610a23576040517f08c379a000000000000000000000000000000000000000000000000000000000815260206004820152601f60248201527f496e74657266616365446574656374696f6e3a2077726f6e672076616c7565006044820152606401610393565b7fffffffff00000000000000000000000000000000000000000000000000000000919091166000908152602092909252604090912080547fffffffffffffffffffffffffffffffffffffffffffffffffffffffffffffff0016911515919091179055565b60606000610a9483610b76565b600101905060008167ffffffffffffffff811115610ab457610ab4610ecf565b6040519080825280601f01601f191660200182016040528015610ade576020820181803683370190505b5090508181016020015b7fffffffffffffffffffffffffffffffffffffffffffffffffffffffffffffffff017f3031323334353637383961626364656600000000000000000000000000000000600a86061a8153600a8504945084610ae857509392505050565b3660006101237fffffffffffffffffffffffffffffffffffffffffffffffffffffffffffffffec830182848161112e565b6000807a184f03e93ff9f4daa797ed6e38ed64bf6a1f0100000000000000008310610bbf577a184f03e93ff9f4daa797ed6e38ed64bf6a1f010000000000000000830492506040015b6d04ee2d6d415b85acef81000000008310610beb576d04ee2d6d415b85acef8100000000830492506020015b662386f26fc100008310610c0957662386f26fc10000830492506010015b6305f5e1008310610c21576305f5e100830492506008015b6127108310610c3557612710830492506004015b60648310610c47576064830492506002015b600a83106101d95760010192915050565b60005b83811015610c73578181015183820152602001610c5b565b50506000910152565b6020815260008251806020840152610c9b816040850160208701610c58565b601f017fffffffffffffffffffffffffffffffffffffffffffffffffffffffffffffffe0169190910160400192915050565b8183528181602085013750600060208284010152600060207fffffffffffffffffffffffffffffffffffffffffffffffffffffffffffffffe0601f840116840101905092915050565b602081526000610d2a602083018486610ccd565b949350505050565b60008083601f840112610d4457600080fd5b50813567ffffffffffffffff811115610d5c57600080fd5b602083019150836020828501011115610d7457600080fd5b9250929050565b60008060208385031215610d8e57600080fd5b823567ffffffffffffffff811115610da557600080fd5b610db185828601610d32565b90969095509350505050565b60008060008060408587031215610dd357600080fd5b843567ffffffffffffffff80821115610deb57600080fd5b610df788838901610d32565b90965094506020870135915080821115610e1057600080fd5b50610e1d87828801610d32565b95989497509550505050565b600060208284031215610e3b57600080fd5b5035919050565b818103818111156101d9577f4e487b7100000000000000000000000000000000000000000000000000000000600052601160045260246000fd5b600181811c90821680610e9057607f821691505b602082108103610ec9577f4e487b7100000000000000000000000000000000000000000000000000000000600052602260045260246000fd5b50919050565b7f4e487b7100000000000000000000000000000000000000000000000000000000600052604160045260246000fd5b601f821115610f4857600081815260208120601f850160051c81016020861015610f255750805b601f850160051c820191505b81811015610f4457828155600101610f31565b5050505b505050565b67ffffffffffffffff831115610f6557610f65610ecf565b610f7983610f738354610e7c565b83610efe565b6000601f841160018114610fcb5760008515610f955750838201355b7fffffffffffffffffffffffffffffffffffffffffffffffffffffffffffffffff600387901b1c1916600186901b178355610530565b6000838152602090207fffffffffffffffffffffffffffffffffffffffffffffffffffffffffffffffe0861690835b8281101561101a5786850135825560209485019460019092019101610ffa565b5086821015611055577fffffffffffffffffffffffffffffffffffffffffffffffffffffffffffffffff60f88860031b161c19848701351681555b505060018560011b0183555050505050565b600080845461107581610e7c565b6001828116801561108d57600181146110c0576110ef565b7fffffffffffffffffffffffffffffffffffffffffffffffffffffffffffffff00841687528215158302870194506110ef565b8860005260208060002060005b858110156110e65781548a8201529084019082016110cd565b50505082870194505b505050508351611103818360208801610c58565b01949350505050565b60006020828403121561111e57600080fd5b815180151581146105f157600080fd5b6000808585111561113e57600080fd5b8386111561114b57600080fd5b505082019391909203915056fea264697066735822122019fb28c3d5f47f6e07ec763c31c5922700383306fc6cbbce938c9a167ea7e0b264736f6c63430008130033",
  "linkReferences": {},
  "deployedLinkReferences": {}
}