{
  "_format": "hh-sol-artifact-1",
  "contractName": "ERC721MintableOnceFacetMock",
  "sourceName": "contracts/mocks/token/ERC721/ERC721MintableOnceFacetMock.sol",
  "abi": [
    {
      "inputs": [
        {
          "internalType": "contract IForwarderRegistry",
          "name": "forwarderRegistry",
          "type": "address"
        }
      ],
      "stateMutability": "nonpayable",
      "type": "constructor"
    },
    {
      "inputs": [],
      "name": "MINTER_ROLE",
      "outputs": [
        {
          "internalType": "bytes32",
          "name": "",
          "type": "bytes32"
        }
      ],
      "stateMutability": "view",
      "type": "function"
    },
    {
      "inputs": [],
      "name": "__msgData",
      "outputs": [
        {
          "internalType": "bytes",
          "name": "",
          "type": "bytes"
        }
      ],
      "stateMutability": "view",
      "type": "function"
    },
    {
      "inputs": [
        {
          "internalType": "address",
          "name": "to",
          "type": "address"
        },
        {
          "internalType": "uint256[]",
          "name": "tokenIds",
          "type": "uint256[]"
        }
      ],
      "name": "batchMint",
      "outputs": [],
      "stateMutability": "nonpayable",
      "type": "function"
    },
    {
      "inputs": [],
      "name": "initERC721MintableOnceStorage",
      "outputs": [],
      "stateMutability": "nonpayable",
      "type": "function"
    },
    {
      "inputs": [
        {
          "internalType": "address",
          "name": "to",
          "type": "address"
        },
        {
          "internalType": "uint256",
          "name": "tokenId",
          "type": "uint256"
        }
      ],
      "name": "mint",
      "outputs": [],
      "stateMutability": "nonpayable",
      "type": "function"
    },
    {
      "inputs": [
        {
          "internalType": "address",
          "name": "to",
          "type": "address"
        },
        {
          "internalType": "uint256",
          "name": "tokenId",
          "type": "uint256"
        },
        {
          "internalType": "bytes",
          "name": "data",
          "type": "bytes"
        }
      ],
      "name": "safeMint",
      "outputs": [],
      "stateMutability": "nonpayable",
      "type": "function"
    }
  ],
  "bytecode": "0x60a060405234801561001057600080fd5b5060405161160938038061160983398101604081905261002f91610040565b6001600160a01b0316608052610070565b60006020828403121561005257600080fd5b81516001600160a01b038116811461006957600080fd5b9392505050565b6080516115696100a060003960008181610a0c01528181610a7601528181610bb40152610c5401526115696000f3fe608060405234801561001057600080fd5b50600436106100725760003560e01c806383b0b7401161005057806383b0b740146100be5780638832e6e3146100c6578063d5391393146100d957600080fd5b806331e66e1e1461007757806340c10f19146100965780634684d7e9146100ab575b600080fd5b61007f61010e565b60405161008d92919061108a565b60405180910390f35b6100a96100a4366004611100565b610121565b005b6100a96100b936600461112a565b610191565b6100a961020a565b6100a96100d43660046111b0565b61025a565b6101007f6d696e746572000000000000000000000000000000000000000000000000000081565b60405190815260200161008d565b3660006101196102dc565b915091509091565b61015c7f6d696e746572000000000000000000000000000000000000000000000000000061014d6102e7565b6101556102f6565b919061032a565b61018d6101676102e7565b83836040518060200160405280600081525060006101836103df565b949392919061040d565b5050565b6101bd7f6d696e746572000000000000000000000000000000000000000000000000000061014d6102e7565b610205838383808060200260200160405190810160405280939291908181526020018383602002808284376000920191909152506101fe92506103df915050565b9190610633565b505050565b6102236102156102e7565b61021d610825565b90610853565b6102587f8e773e130000000000000000000000000000000000000000000000000000000060016102516108d6565b9190610904565b565b6102867f6d696e746572000000000000000000000000000000000000000000000000000061014d6102e7565b6102d66102916102e7565b858585858080601f0160208091040260200160405190810160405280939291908181526020018383808284376000920191909152506001925061018391506103df9050565b50505050565b3660006101196109f4565b60006102f1610b78565b905090565b60008061032460017fc8a24fbf085abf1493c5f225802d03df3ece6cd19f18edff36c56d854cddac9e611266565b92915050565b60008281526020848152604080832073ffffffffffffffffffffffffffffffffffffffff8516845290915290205460ff166102055761036882610cd0565b60405160200161037891906112a9565b604080517fffffffffffffffffffffffffffffffffffffffffffffffffffffffffffffffe0818403018152908290527f08c379a00000000000000000000000000000000000000000000000000000000082526103d69160040161135f565b60405180910390fd5b60008061032460017fddf3ee18ae6d688373c219468f8be446e7ae82215f4779d821c7ea5e8c13c0c1611266565b73ffffffffffffffffffffffffffffffffffffffff841661048a576040517f08c379a000000000000000000000000000000000000000000000000000000000815260206004820152601460248201527f4552433732313a206d696e7420746f207a65726f00000000000000000000000060448201526064016103d6565b600083815260018701602052604090205473ffffffffffffffffffffffffffffffffffffffff811615610519576040517f08c379a000000000000000000000000000000000000000000000000000000000815260206004820152601460248201527f4552433732313a206578697374696e67204e465400000000000000000000000060448201526064016103d6565b7fdead00000000000000000000000000000000000000000000000000000000000081036105a2576040517f08c379a000000000000000000000000000000000000000000000000000000000815260206004820152601160248201527f4552433732313a206275726e74204e465400000000000000000000000000000060448201526064016103d6565b6105af8786866000610e5a565b604051849073ffffffffffffffffffffffffffffffffffffffff8716906000907fddf252ad1be2c89b69c2b068fc378daa952ba7f163c4a11628f55a4df523b3ef908290a4818015610617575073ffffffffffffffffffffffffffffffffffffffff85163b15155b1561062a5761062a866000878787610f3f565b50505050505050565b73ffffffffffffffffffffffffffffffffffffffff82166106b0576040517f08c379a000000000000000000000000000000000000000000000000000000000815260206004820152601460248201527f4552433732313a206d696e7420746f207a65726f00000000000000000000000060448201526064016103d6565b805160005b8181146107e25760008382815181106106d0576106d0611379565b6020026020010151905060008660010160008381526020019081526020016000205490507fdead000000000000000000000000000000000000000000000000000000000000810361077d576040517f08c379a000000000000000000000000000000000000000000000000000000000815260206004820152601160248201527f4552433732313a206275726e74204e465400000000000000000000000000000060448201526064016103d6565b61078a8787846001610e5a565b604051829073ffffffffffffffffffffffffffffffffffffffff8816906000907fddf252ad1be2c89b69c2b068fc378daa952ba7f163c4a11628f55a4df523b3ef908290a45050806107db906113a8565b90506106b5565b5073ffffffffffffffffffffffffffffffffffffffff831660009081526002850160205260408120805483929061081a9084906113e0565b909155505050505050565b60008061032460017fb53127684a568b3173ae13b9f8a6016e243e63b6e8ee1178d6a717850b5d6104611266565b815473ffffffffffffffffffffffffffffffffffffffff82811691161461018d576040517f08c379a000000000000000000000000000000000000000000000000000000000815260206004820152601960248201527f50726f787941646d696e3a206e6f74207468652061646d696e0000000000000060448201526064016103d6565b60008061032460017f7180ffa89c91cf90d6c56dacabfc69bc5e36f3099d7eed2f5cc12c5dba016fe0611266565b7fffffffff000000000000000000000000000000000000000000000000000000008083169003610990576040517f08c379a000000000000000000000000000000000000000000000000000000000815260206004820152601f60248201527f496e74657266616365446574656374696f6e3a2077726f6e672076616c75650060448201526064016103d6565b7fffffffff00000000000000000000000000000000000000000000000000000000919091166000908152602092909252604090912080547fffffffffffffffffffffffffffffffffffffffffffffffffffffffffffffff0016911515919091179055565b36600033328103610a0a57506000923692509050565b7f000000000000000000000000000000000000000000000000000000000000000073ffffffffffffffffffffffffffffffffffffffff168173ffffffffffffffffffffffffffffffffffffffff161480610b57575073ffffffffffffffffffffffffffffffffffffffff7f00000000000000000000000000000000000000000000000000000000000000001663e60125d6367fffffffffffffffffffffffffffffffffffffffffffffffffffffffffffffffec013560601c6040517fffffffff0000000000000000000000000000000000000000000000000000000060e084901b16815273ffffffffffffffffffffffffffffffffffffffff91821660048201529084166024820152604401602060405180830381865afa158015610b33573d6000803e3d6000fd5b505050506040513d601f19601f82011682018060405250810190610b5791906113f8565b15610b6d57610b6461106c565b92509250509091565b506000923692509050565b600033328103610b8757919050565b6000367fffffffffffffffffffffffffffffffffffffffffffffffffffffffffffffffec013560601c90507f000000000000000000000000000000000000000000000000000000000000000073ffffffffffffffffffffffffffffffffffffffff168273ffffffffffffffffffffffffffffffffffffffff161480610cbf57506040517fe60125d600000000000000000000000000000000000000000000000000000000815273ffffffffffffffffffffffffffffffffffffffff828116600483015283811660248301527f0000000000000000000000000000000000000000000000000000000000000000169063e60125d690604401602060405180830381865afa158015610c9b573d6000803e3d6000fd5b505050506040513d601f19601f82011682018060405250810190610cbf91906113f8565b15610cca5792915050565b50919050565b60606000829003610cef57505060408051602081019091526000815290565b600082604051602001610d0491815260200190565b604080517fffffffffffffffffffffffffffffffffffffffffffffffffffffffffffffffe08184030181529190529050601f5b818181518110610d4957610d49611379565b01602001517fff0000000000000000000000000000000000000000000000000000000000000016600003610d8757610d808161141a565b9050610d37565b6000610d948260016113e0565b67ffffffffffffffff811115610dac57610dac61144f565b6040519080825280601f01601f191660200182016040528015610dd6576020820181803683370190505b50905060005b828111610e5157838181518110610df557610df5611379565b602001015160f81c60f81b828281518110610e1257610e12611379565b60200101907effffffffffffffffffffffffffffffffffffffffffffffffffffffffffffff1916908160001a905350610e4a816113a8565b9050610ddc565b50949350505050565b600082815260018501602052604090205415610ed2576040517f08c379a000000000000000000000000000000000000000000000000000000000815260206004820152601a60248201527f4552433732313a206578697374696e672f6275726e74204e465400000000000060448201526064016103d6565b6000828152600185016020526040902073ffffffffffffffffffffffffffffffffffffffff84169055806102d65773ffffffffffffffffffffffffffffffffffffffff8316600090815260028501602052604081208054909190610f35906113a8565b9091555050505050565b6040517f150b7a02000000000000000000000000000000000000000000000000000000008082529073ffffffffffffffffffffffffffffffffffffffff85169063150b7a0290610f9990899089908890889060040161147e565b6020604051808303816000875af1158015610fb8573d6000803e3d6000fd5b505050506040513d601f19601f82011682018060405250810190610fdc91906114c7565b7fffffffff000000000000000000000000000000000000000000000000000000001614611065576040517f08c379a000000000000000000000000000000000000000000000000000000000815260206004820152601860248201527f4552433732313a207472616e736665722072656675736564000000000000000060448201526064016103d6565b5050505050565b36600080808361107d601482611266565b9261011993929190611509565b60208152816020820152818360408301376000818301604090810191909152601f9092017fffffffffffffffffffffffffffffffffffffffffffffffffffffffffffffffe0160101919050565b803573ffffffffffffffffffffffffffffffffffffffff811681146110fb57600080fd5b919050565b6000806040838503121561111357600080fd5b61111c836110d7565b946020939093013593505050565b60008060006040848603121561113f57600080fd5b611148846110d7565b9250602084013567ffffffffffffffff8082111561116557600080fd5b818601915086601f83011261117957600080fd5b81358181111561118857600080fd5b8760208260051b850101111561119d57600080fd5b6020830194508093505050509250925092565b600080600080606085870312156111c657600080fd5b6111cf856110d7565b935060208501359250604085013567ffffffffffffffff808211156111f357600080fd5b818701915087601f83011261120757600080fd5b81358181111561121657600080fd5b88602082850101111561122857600080fd5b95989497505060200194505050565b7f4e487b7100000000000000000000000000000000000000000000000000000000600052601160045260246000fd5b60008282101561127857611278611237565b500390565b60005b83811015611298578181015183820152602001611280565b838111156102d65750506000910152565b7f416363657373436f6e74726f6c3a206d697373696e67202700000000000000008152600082516112e181601885016020870161127d565b7f2720726f6c6500000000000000000000000000000000000000000000000000006018939091019283015250601e01919050565b6000815180845261132d81602086016020860161127d565b601f017fffffffffffffffffffffffffffffffffffffffffffffffffffffffffffffffe0169290920160200192915050565b6020815260006113726020830184611315565b9392505050565b7f4e487b7100000000000000000000000000000000000000000000000000000000600052603260045260246000fd5b60007fffffffffffffffffffffffffffffffffffffffffffffffffffffffffffffffff82036113d9576113d9611237565b5060010190565b600082198211156113f3576113f3611237565b500190565b60006020828403121561140a57600080fd5b8151801515811461137257600080fd5b60008161142957611429611237565b507fffffffffffffffffffffffffffffffffffffffffffffffffffffffffffffffff0190565b7f4e487b7100000000000000000000000000000000000000000000000000000000600052604160045260246000fd5b600073ffffffffffffffffffffffffffffffffffffffff8087168352808616602084015250836040830152608060608301526114bd6080830184611315565b9695505050505050565b6000602082840312156114d957600080fd5b81517fffffffff000000000000000000000000000000000000000000000000000000008116811461137257600080fd5b6000808585111561151957600080fd5b8386111561152657600080fd5b505082019391909203915056fea2646970667358221220bd96367025629b9a95324dd6ec3d750ace11d4a01c98a91ebf40bd866eadf0ec64736f6c634300080d0033",
  "linkReferences": {},
  "deployedLinkReferences": {}
}