{
  "_format": "hh-sol-artifact-1",
  "contractName": "ERC721MintableOnceFacetMock",
  "sourceName": "contracts/mocks/token/ERC721/ERC721MintableOnceFacetMock.sol",
  "abi": [
    {
      "inputs": [
        {
          "internalType": "contract IForwarderRegistry",
          "name": "forwarderRegistry",
          "type": "address"
        }
      ],
      "stateMutability": "nonpayable",
      "type": "constructor"
    },
    {
      "inputs": [],
      "name": "MINTER_ROLE",
      "outputs": [
        {
          "internalType": "bytes32",
          "name": "",
          "type": "bytes32"
        }
      ],
      "stateMutability": "view",
      "type": "function"
    },
    {
      "inputs": [],
      "name": "__msgData",
      "outputs": [
        {
          "internalType": "bytes",
          "name": "",
          "type": "bytes"
        }
      ],
      "stateMutability": "view",
      "type": "function"
    },
    {
      "inputs": [
        {
          "internalType": "address",
          "name": "to",
          "type": "address"
        },
        {
          "internalType": "uint256[]",
          "name": "tokenIds",
          "type": "uint256[]"
        }
      ],
      "name": "batchMint",
      "outputs": [],
      "stateMutability": "nonpayable",
      "type": "function"
    },
    {
      "inputs": [],
      "name": "initERC721MintableOnceStorage",
      "outputs": [],
      "stateMutability": "nonpayable",
      "type": "function"
    },
    {
      "inputs": [
        {
          "internalType": "address",
          "name": "to",
          "type": "address"
        },
        {
          "internalType": "uint256",
          "name": "tokenId",
          "type": "uint256"
        }
      ],
      "name": "mint",
      "outputs": [],
      "stateMutability": "nonpayable",
      "type": "function"
    },
    {
      "inputs": [
        {
          "internalType": "address",
          "name": "to",
          "type": "address"
        },
        {
          "internalType": "uint256",
          "name": "tokenId",
          "type": "uint256"
        },
        {
          "internalType": "bytes",
          "name": "data",
          "type": "bytes"
        }
      ],
      "name": "safeMint",
      "outputs": [],
      "stateMutability": "nonpayable",
      "type": "function"
    }
  ],
  "bytecode": "0x60a060405234801561001057600080fd5b5060405161152138038061152183398101604081905261002f91610040565b6001600160a01b0316608052610070565b60006020828403121561005257600080fd5b81516001600160a01b038116811461006957600080fd5b9392505050565b6080516114816100a06000396000818161095b015281816109c501528181610b030152610ba301526114816000f3fe608060405234801561001057600080fd5b50600436106100725760003560e01c806383b0b7401161005057806383b0b740146100be5780638832e6e3146100c6578063d5391393146100d957600080fd5b806331e66e1e1461007757806340c10f19146100965780634684d7e9146100ab575b600080fd5b61007f61010e565b60405161008d92919061102f565b60405180910390f35b6100a96100a43660046110a5565b610121565b005b6100a96100b93660046110cf565b610174565b6100a96101ed565b6100a96100d4366004611155565b610210565b6101007f6d696e746572000000000000000000000000000000000000000000000000000081565b60405190815260200161008d565b366000610119610298565b915091509091565b61015c7f6d696e746572000000000000000000000000000000000000000000000000000061014d6102a3565b6101556102b2565b91906102e6565b610170828261016961039b565b91906103c9565b5050565b6101a07f6d696e746572000000000000000000000000000000000000000000000000000061014d6102a3565b6101e8838383808060200260200160405190810160405280939291908181526020018383602002808284376000920191909152506101e1925061039b915050565b91906105cb565b505050565b6102066101f86102a3565b610200610820565b9061084e565b61020e6108d1565b565b61023c7f6d696e746572000000000000000000000000000000000000000000000000000061014d6102a3565b6102926102476102a3565b858585858080601f016020809104026020016040519081016040528093929190818152602001838380828437600092019190915250610289925061039b915050565b93929190610906565b50505050565b366000610119610943565b60006102ad610ac7565b905090565b6000806102e060017fc8827d3282af6f37b64c3e9e6f3ac9df286ab0bb0fccd6f8661bf19adb368b236111dc565b92915050565b60008281526020848152604080832073ffffffffffffffffffffffffffffffffffffffff8516845290915290205460ff166101e85761032482610c1f565b6040516020016103349190611246565b604080517fffffffffffffffffffffffffffffffffffffffffffffffffffffffffffffffe0818403018152908290527f08c379a0000000000000000000000000000000000000000000000000000000008252610392916004016112fc565b60405180910390fd5b6000806102e060017fddf3ee18ae6d688373c219468f8be446e7ae82215f4779d821c7ea5e8c13c0c16111dc565b73ffffffffffffffffffffffffffffffffffffffff8216610446576040517f08c379a000000000000000000000000000000000000000000000000000000000815260206004820152601a60248201527f4552433732313a206d696e7420746f20616464726573732830290000000000006044820152606401610392565b60008181526020849052604090205473ffffffffffffffffffffffffffffffffffffffff8116156104d3576040517f08c379a000000000000000000000000000000000000000000000000000000000815260206004820152601660248201527f4552433732313a206578697374696e6720746f6b656e000000000000000000006044820152606401610392565b7fdead000000000000000000000000000000000000000000000000000000000000810361055c576040517f08c379a000000000000000000000000000000000000000000000000000000000815260206004820152601360248201527f4552433732313a206275726e7420746f6b656e000000000000000000000000006044820152606401610392565b60008281526020858152604080832073ffffffffffffffffffffffffffffffffffffffff87169081905580845260018089019093528184208054909301909255518492907fddf252ad1be2c89b69c2b068fc378daa952ba7f163c4a11628f55a4df523b3ef908290a450505050565b73ffffffffffffffffffffffffffffffffffffffff8216610648576040517f08c379a000000000000000000000000000000000000000000000000000000000815260206004820152601a60248201527f4552433732313a206d696e7420746f20616464726573732830290000000000006044820152606401610392565b805160005b8181146107eb57600083828151811061066857610668611316565b60209081029190910181015160008181529188905260409091205490915073ffffffffffffffffffffffffffffffffffffffff811615610704576040517f08c379a000000000000000000000000000000000000000000000000000000000815260206004820152601660248201527f4552433732313a206578697374696e6720746f6b656e000000000000000000006044820152606401610392565b7fdead000000000000000000000000000000000000000000000000000000000000810361078d576040517f08c379a000000000000000000000000000000000000000000000000000000000815260206004820152601360248201527f4552433732313a206275726e7420746f6b656e000000000000000000000000006044820152606401610392565b60008281526020889052604080822073ffffffffffffffffffffffffffffffffffffffff89169081905590518492907fddf252ad1be2c89b69c2b068fc378daa952ba7f163c4a11628f55a4df523b3ef908290a4505060010161064d565b5073ffffffffffffffffffffffffffffffffffffffff9092166000908152600190930160205250604090912080549091019055565b6000806102e060017fb53127684a568b3173ae13b9f8a6016e243e63b6e8ee1178d6a717850b5d61046111dc565b815473ffffffffffffffffffffffffffffffffffffffff828116911614610170576040517f08c379a000000000000000000000000000000000000000000000000000000000815260206004820152601960248201527f50726f787941646d696e3a206e6f74207468652061646d696e000000000000006044820152606401610392565b61020e7f8e773e130000000000000000000000000000000000000000000000000000000060016108ff610db1565b9190610ddf565b6109118584846103c9565b73ffffffffffffffffffffffffffffffffffffffff83163b1561093c5761093c846000858585610eeb565b5050505050565b3660003332810361095957506000923692509050565b7f000000000000000000000000000000000000000000000000000000000000000073ffffffffffffffffffffffffffffffffffffffff168173ffffffffffffffffffffffffffffffffffffffff161480610aa6575073ffffffffffffffffffffffffffffffffffffffff7f00000000000000000000000000000000000000000000000000000000000000001663e60125d6367fffffffffffffffffffffffffffffffffffffffffffffffffffffffffffffffec013560601c6040517fffffffff0000000000000000000000000000000000000000000000000000000060e084901b16815273ffffffffffffffffffffffffffffffffffffffff91821660048201529084166024820152604401602060405180830381865afa158015610a82573d6000803e3d6000fd5b505050506040513d601f19601f82011682018060405250810190610aa69190611345565b15610abc57610ab3611011565b92509250509091565b506000923692509050565b600033328103610ad657919050565b6000367fffffffffffffffffffffffffffffffffffffffffffffffffffffffffffffffec013560601c90507f000000000000000000000000000000000000000000000000000000000000000073ffffffffffffffffffffffffffffffffffffffff168273ffffffffffffffffffffffffffffffffffffffff161480610c0e57506040517fe60125d600000000000000000000000000000000000000000000000000000000815273ffffffffffffffffffffffffffffffffffffffff828116600483015283811660248301527f0000000000000000000000000000000000000000000000000000000000000000169063e60125d690604401602060405180830381865afa158015610bea573d6000803e3d6000fd5b505050506040513d601f19601f82011682018060405250810190610c0e9190611345565b15610c195792915050565b50919050565b60606000829003610c3e57505060408051602081019091526000815290565b600082604051602001610c5391815260200190565b604080517fffffffffffffffffffffffffffffffffffffffffffffffffffffffffffffffe08184030181529190529050601f5b818181518110610c9857610c98611316565b01602001517fff0000000000000000000000000000000000000000000000000000000000000016600003610ced577fffffffffffffffffffffffffffffffffffffffffffffffffffffffffffffffff01610c86565b60008160010167ffffffffffffffff811115610d0b57610d0b611367565b6040519080825280601f01601f191660200182016040528015610d35576020820181803683370190505b50905060005b828111610da857838181518110610d5457610d54611316565b602001015160f81c60f81b828281518110610d7157610d71611316565b60200101907effffffffffffffffffffffffffffffffffffffffffffffffffffffffffffff1916908160001a905350600101610d3b565b50949350505050565b6000806102e060017fca9d3e17f264b0f3984e2634e94adb37fa3e6a8103f06aeae6fa59e21c769f5e6111dc565b7c01000000000000000000000000000000000000000000000000000000007fffffffff00000000000000000000000000000000000000000000000000000000831601610e87576040517f08c379a000000000000000000000000000000000000000000000000000000000815260206004820152601f60248201527f496e74657266616365446574656374696f6e3a2077726f6e672076616c7565006044820152606401610392565b7fffffffff00000000000000000000000000000000000000000000000000000000919091166000908152602092909252604090912080547fffffffffffffffffffffffffffffffffffffffffffffffffffffffffffffff0016911515919091179055565b6040517f150b7a02000000000000000000000000000000000000000000000000000000008082529073ffffffffffffffffffffffffffffffffffffffff85169063150b7a0290610f45908990899088908890600401611396565b6020604051808303816000875af1158015610f64573d6000803e3d6000fd5b505050506040513d601f19601f82011682018060405250810190610f8891906113df565b7fffffffff00000000000000000000000000000000000000000000000000000000161461093c576040517f08c379a000000000000000000000000000000000000000000000000000000000815260206004820152601e60248201527f4552433732313a2073616665207472616e736665722072656a656374656400006044820152606401610392565b3660008080836110226014826111dc565b9261011993929190611421565b60208152816020820152818360408301376000818301604090810191909152601f9092017fffffffffffffffffffffffffffffffffffffffffffffffffffffffffffffffe0160101919050565b803573ffffffffffffffffffffffffffffffffffffffff811681146110a057600080fd5b919050565b600080604083850312156110b857600080fd5b6110c18361107c565b946020939093013593505050565b6000806000604084860312156110e457600080fd5b6110ed8461107c565b9250602084013567ffffffffffffffff8082111561110a57600080fd5b818601915086601f83011261111e57600080fd5b81358181111561112d57600080fd5b8760208260051b850101111561114257600080fd5b6020830194508093505050509250925092565b6000806000806060858703121561116b57600080fd5b6111748561107c565b935060208501359250604085013567ffffffffffffffff8082111561119857600080fd5b818701915087601f8301126111ac57600080fd5b8135818111156111bb57600080fd5b8860208285010111156111cd57600080fd5b95989497505060200194505050565b600082821015611215577f4e487b7100000000000000000000000000000000000000000000000000000000600052601160045260246000fd5b500390565b60005b8381101561123557818101518382015260200161121d565b838111156102925750506000910152565b7f416363657373436f6e74726f6c3a206d697373696e672027000000000000000081526000825161127e81601885016020870161121a565b7f2720726f6c6500000000000000000000000000000000000000000000000000006018939091019283015250601e01919050565b600081518084526112ca81602086016020860161121a565b601f017fffffffffffffffffffffffffffffffffffffffffffffffffffffffffffffffe0169290920160200192915050565b60208152600061130f60208301846112b2565b9392505050565b7f4e487b7100000000000000000000000000000000000000000000000000000000600052603260045260246000fd5b60006020828403121561135757600080fd5b8151801515811461130f57600080fd5b7f4e487b7100000000000000000000000000000000000000000000000000000000600052604160045260246000fd5b600073ffffffffffffffffffffffffffffffffffffffff8087168352808616602084015250836040830152608060608301526113d560808301846112b2565b9695505050505050565b6000602082840312156113f157600080fd5b81517fffffffff000000000000000000000000000000000000000000000000000000008116811461130f57600080fd5b6000808585111561143157600080fd5b8386111561143e57600080fd5b505082019391909203915056fea2646970667358221220648743295ea2a7753f3bcdaacfbb6658b5b60257a755348d5c688b0bb680925b64736f6c634300080e0033",
  "linkReferences": {},
  "deployedLinkReferences": {}
}