{
  "_format": "hh-sol-artifact-1",
  "contractName": "ERC721MintableOnceFacetMock",
  "sourceName": "contracts/mocks/token/ERC721/ERC721MintableOnceFacetMock.sol",
  "abi": [
    {
      "inputs": [
        {
          "internalType": "contract IForwarderRegistry",
          "name": "forwarderRegistry",
          "type": "address"
        }
      ],
      "stateMutability": "nonpayable",
      "type": "constructor"
    },
    {
      "inputs": [],
      "name": "MINTER_ROLE",
      "outputs": [
        {
          "internalType": "bytes32",
          "name": "",
          "type": "bytes32"
        }
      ],
      "stateMutability": "view",
      "type": "function"
    },
    {
      "inputs": [],
      "name": "__msgData",
      "outputs": [
        {
          "internalType": "bytes",
          "name": "",
          "type": "bytes"
        }
      ],
      "stateMutability": "view",
      "type": "function"
    },
    {
      "inputs": [
        {
          "internalType": "address",
          "name": "to",
          "type": "address"
        },
        {
          "internalType": "uint256[]",
          "name": "tokenIds",
          "type": "uint256[]"
        }
      ],
      "name": "batchMint",
      "outputs": [],
      "stateMutability": "nonpayable",
      "type": "function"
    },
    {
      "inputs": [],
      "name": "initERC721MintableOnceStorage",
      "outputs": [],
      "stateMutability": "nonpayable",
      "type": "function"
    },
    {
      "inputs": [
        {
          "internalType": "address",
          "name": "to",
          "type": "address"
        },
        {
          "internalType": "uint256",
          "name": "tokenId",
          "type": "uint256"
        }
      ],
      "name": "mint",
      "outputs": [],
      "stateMutability": "nonpayable",
      "type": "function"
    },
    {
      "inputs": [
        {
          "internalType": "address",
          "name": "to",
          "type": "address"
        },
        {
          "internalType": "uint256",
          "name": "tokenId",
          "type": "uint256"
        },
        {
          "internalType": "bytes",
          "name": "data",
          "type": "bytes"
        }
      ],
      "name": "safeMint",
      "outputs": [],
      "stateMutability": "nonpayable",
      "type": "function"
    },
    {
      "inputs": [
        {
          "internalType": "uint256",
          "name": "tokenId",
          "type": "uint256"
        }
      ],
      "name": "wasBurnt",
      "outputs": [
        {
          "internalType": "bool",
          "name": "tokenWasBurnt",
          "type": "bool"
        }
      ],
      "stateMutability": "view",
      "type": "function"
    }
  ],
  "bytecode": "0x60a060405234801561001057600080fd5b506040516115ae3803806115ae83398101604081905261002f91610040565b6001600160a01b0316608052610070565b60006020828403121561005257600080fd5b81516001600160a01b038116811461006957600080fd5b9392505050565b60805161150e6100a0600039600081816109d601528181610a4001528181610b7e0152610c1e015261150e6000f3fe608060405234801561001057600080fd5b506004361061007d5760003560e01c806383b0b7401161005b57806383b0b740146100c95780638832e6e3146100d1578063c77c6955146100e4578063d53913931461010757600080fd5b806331e66e1e1461008257806340c10f19146100a15780634684d7e9146100b6575b600080fd5b61008a61013c565b6040516100989291906110aa565b60405180910390f35b6100b46100af366004611120565b61014f565b005b6100b46100c436600461114a565b6101a2565b6100b461021b565b6100b46100df3660046111d0565b61023e565b6100f76100f2366004611257565b6102c6565b6040519015158152602001610098565b61012e7f6d696e746572000000000000000000000000000000000000000000000000000081565b604051908152602001610098565b3660006101476102e0565b915091509091565b61018a7f6d696e746572000000000000000000000000000000000000000000000000000061017b6102eb565b6101836102fa565b9190610328565b61019e82826101976103dd565b919061040b565b5050565b6101ce7f6d696e746572000000000000000000000000000000000000000000000000000061017b6102eb565b6102168383838080602002602001604051908101604052809392919081815260200183836020028082843760009201919091525061020f92506103dd915050565b919061060d565b505050565b6102346102266102eb565b61022e610862565b90610890565b61023c610913565b565b61026a7f6d696e746572000000000000000000000000000000000000000000000000000061017b6102eb565b6102c06102756102eb565b858585858080601f0160208091040260200160405190810160405280939291908181526020018383808284376000920191909152506102b792506103dd915050565b93929190610948565b50505050565b60006102da826102d46103dd565b90610985565b92915050565b3660006101476109be565b60006102f5610b42565b905090565b6000806102da60017fc8827d3282af6f37b64c3e9e6f3ac9df286ab0bb0fccd6f8661bf19adb368b23611270565b60008281526020848152604080832073ffffffffffffffffffffffffffffffffffffffff8516845290915290205460ff166102165761036682610c9a565b60405160200161037691906112da565b604080517fffffffffffffffffffffffffffffffffffffffffffffffffffffffffffffffe0818403018152908290527f08c379a00000000000000000000000000000000000000000000000000000000082526103d491600401611390565b60405180910390fd5b6000806102da60017fddf3ee18ae6d688373c219468f8be446e7ae82215f4779d821c7ea5e8c13c0c1611270565b73ffffffffffffffffffffffffffffffffffffffff8216610488576040517f08c379a000000000000000000000000000000000000000000000000000000000815260206004820152601a60248201527f4552433732313a206d696e7420746f206164647265737328302900000000000060448201526064016103d4565b60008181526020849052604090205473ffffffffffffffffffffffffffffffffffffffff811615610515576040517f08c379a000000000000000000000000000000000000000000000000000000000815260206004820152601660248201527f4552433732313a206578697374696e6720746f6b656e0000000000000000000060448201526064016103d4565b7fdead000000000000000000000000000000000000000000000000000000000000810361059e576040517f08c379a000000000000000000000000000000000000000000000000000000000815260206004820152601360248201527f4552433732313a206275726e7420746f6b656e0000000000000000000000000060448201526064016103d4565b60008281526020858152604080832073ffffffffffffffffffffffffffffffffffffffff87169081905580845260018089019093528184208054909301909255518492907fddf252ad1be2c89b69c2b068fc378daa952ba7f163c4a11628f55a4df523b3ef908290a450505050565b73ffffffffffffffffffffffffffffffffffffffff821661068a576040517f08c379a000000000000000000000000000000000000000000000000000000000815260206004820152601a60248201527f4552433732313a206d696e7420746f206164647265737328302900000000000060448201526064016103d4565b805160005b81811461082d5760008382815181106106aa576106aa6113a3565b60209081029190910181015160008181529188905260409091205490915073ffffffffffffffffffffffffffffffffffffffff811615610746576040517f08c379a000000000000000000000000000000000000000000000000000000000815260206004820152601660248201527f4552433732313a206578697374696e6720746f6b656e0000000000000000000060448201526064016103d4565b7fdead00000000000000000000000000000000000000000000000000000000000081036107cf576040517f08c379a000000000000000000000000000000000000000000000000000000000815260206004820152601360248201527f4552433732313a206275726e7420746f6b656e0000000000000000000000000060448201526064016103d4565b60008281526020889052604080822073ffffffffffffffffffffffffffffffffffffffff89169081905590518492907fddf252ad1be2c89b69c2b068fc378daa952ba7f163c4a11628f55a4df523b3ef908290a4505060010161068f565b5073ffffffffffffffffffffffffffffffffffffffff9092166000908152600190930160205250604090912080549091019055565b6000806102da60017fb53127684a568b3173ae13b9f8a6016e243e63b6e8ee1178d6a717850b5d6104611270565b815473ffffffffffffffffffffffffffffffffffffffff82811691161461019e576040517f08c379a000000000000000000000000000000000000000000000000000000000815260206004820152601960248201527f50726f787941646d696e3a206e6f74207468652061646d696e0000000000000060448201526064016103d4565b61023c7f8e773e13000000000000000000000000000000000000000000000000000000006001610941610e2c565b9190610e5a565b61095385848461040b565b73ffffffffffffffffffffffffffffffffffffffff83163b1561097e5761097e846000858585610f66565b5050505050565b6000818152602083905260408120547fdead000000000000000000000000000000000000000000000000000000000000145b9392505050565b366000333281036109d457506000923692509050565b7f000000000000000000000000000000000000000000000000000000000000000073ffffffffffffffffffffffffffffffffffffffff168173ffffffffffffffffffffffffffffffffffffffff161480610b21575073ffffffffffffffffffffffffffffffffffffffff7f00000000000000000000000000000000000000000000000000000000000000001663e60125d6367fffffffffffffffffffffffffffffffffffffffffffffffffffffffffffffffec013560601c6040517fffffffff0000000000000000000000000000000000000000000000000000000060e084901b16815273ffffffffffffffffffffffffffffffffffffffff91821660048201529084166024820152604401602060405180830381865afa158015610afd573d6000803e3d6000fd5b505050506040513d601f19601f82011682018060405250810190610b2191906113d2565b15610b3757610b2e61108c565b92509250509091565b506000923692509050565b600033328103610b5157919050565b6000367fffffffffffffffffffffffffffffffffffffffffffffffffffffffffffffffec013560601c90507f000000000000000000000000000000000000000000000000000000000000000073ffffffffffffffffffffffffffffffffffffffff168273ffffffffffffffffffffffffffffffffffffffff161480610c8957506040517fe60125d600000000000000000000000000000000000000000000000000000000815273ffffffffffffffffffffffffffffffffffffffff828116600483015283811660248301527f0000000000000000000000000000000000000000000000000000000000000000169063e60125d690604401602060405180830381865afa158015610c65573d6000803e3d6000fd5b505050506040513d601f19601f82011682018060405250810190610c8991906113d2565b15610c945792915050565b50919050565b60606000829003610cb957505060408051602081019091526000815290565b600082604051602001610cce91815260200190565b604080517fffffffffffffffffffffffffffffffffffffffffffffffffffffffffffffffe08184030181529190529050601f5b818181518110610d1357610d136113a3565b01602001517fff0000000000000000000000000000000000000000000000000000000000000016600003610d68577fffffffffffffffffffffffffffffffffffffffffffffffffffffffffffffffff01610d01565b60008160010167ffffffffffffffff811115610d8657610d866113f4565b6040519080825280601f01601f191660200182016040528015610db0576020820181803683370190505b50905060005b828111610e2357838181518110610dcf57610dcf6113a3565b602001015160f81c60f81b828281518110610dec57610dec6113a3565b60200101907effffffffffffffffffffffffffffffffffffffffffffffffffffffffffffff1916908160001a905350600101610db6565b50949350505050565b6000806102da60017fca9d3e17f264b0f3984e2634e94adb37fa3e6a8103f06aeae6fa59e21c769f5e611270565b7c01000000000000000000000000000000000000000000000000000000007fffffffff00000000000000000000000000000000000000000000000000000000831601610f02576040517f08c379a000000000000000000000000000000000000000000000000000000000815260206004820152601f60248201527f496e74657266616365446574656374696f6e3a2077726f6e672076616c75650060448201526064016103d4565b7fffffffff00000000000000000000000000000000000000000000000000000000919091166000908152602092909252604090912080547fffffffffffffffffffffffffffffffffffffffffffffffffffffffffffffff0016911515919091179055565b6040517f150b7a02000000000000000000000000000000000000000000000000000000008082529073ffffffffffffffffffffffffffffffffffffffff85169063150b7a0290610fc0908990899088908890600401611423565b6020604051808303816000875af1158015610fdf573d6000803e3d6000fd5b505050506040513d601f19601f82011682018060405250810190611003919061146c565b7fffffffff00000000000000000000000000000000000000000000000000000000161461097e576040517f08c379a000000000000000000000000000000000000000000000000000000000815260206004820152601e60248201527f4552433732313a2073616665207472616e736665722072656a6563746564000060448201526064016103d4565b36600080808361109d601482611270565b92610147939291906114ae565b60208152816020820152818360408301376000818301604090810191909152601f9092017fffffffffffffffffffffffffffffffffffffffffffffffffffffffffffffffe0160101919050565b803573ffffffffffffffffffffffffffffffffffffffff8116811461111b57600080fd5b919050565b6000806040838503121561113357600080fd5b61113c836110f7565b946020939093013593505050565b60008060006040848603121561115f57600080fd5b611168846110f7565b9250602084013567ffffffffffffffff8082111561118557600080fd5b818601915086601f83011261119957600080fd5b8135818111156111a857600080fd5b8760208260051b85010111156111bd57600080fd5b6020830194508093505050509250925092565b600080600080606085870312156111e657600080fd5b6111ef856110f7565b935060208501359250604085013567ffffffffffffffff8082111561121357600080fd5b818701915087601f83011261122757600080fd5b81358181111561123657600080fd5b88602082850101111561124857600080fd5b95989497505060200194505050565b60006020828403121561126957600080fd5b5035919050565b6000828210156112a9577f4e487b7100000000000000000000000000000000000000000000000000000000600052601160045260246000fd5b500390565b60005b838110156112c95781810151838201526020016112b1565b838111156102c05750506000910152565b7f416363657373436f6e74726f6c3a206d697373696e67202700000000000000008152600082516113128160188501602087016112ae565b7f2720726f6c6500000000000000000000000000000000000000000000000000006018939091019283015250601e01919050565b6000815180845261135e8160208601602086016112ae565b601f017fffffffffffffffffffffffffffffffffffffffffffffffffffffffffffffffe0169290920160200192915050565b6020815260006109b76020830184611346565b7f4e487b7100000000000000000000000000000000000000000000000000000000600052603260045260246000fd5b6000602082840312156113e457600080fd5b815180151581146109b757600080fd5b7f4e487b7100000000000000000000000000000000000000000000000000000000600052604160045260246000fd5b600073ffffffffffffffffffffffffffffffffffffffff8087168352808616602084015250836040830152608060608301526114626080830184611346565b9695505050505050565b60006020828403121561147e57600080fd5b81517fffffffff00000000000000000000000000000000000000000000000000000000811681146109b757600080fd5b600080858511156114be57600080fd5b838611156114cb57600080fd5b505082019391909203915056fea264697066735822122014c781568893813f4524e909f9c8b102644593033cb7b76feae4fd414c577d6464736f6c634300080e0033",
  "linkReferences": {},
  "deployedLinkReferences": {}
}