{
  "_format": "hh-sol-artifact-1",
  "contractName": "ERC721MintableOnceFacet",
  "sourceName": "contracts/token/ERC721/ERC721MintableOnceFacet.sol",
  "abi": [
    {
      "inputs": [
        {
          "internalType": "contract IForwarderRegistry",
          "name": "forwarderRegistry",
          "type": "address"
        }
      ],
      "stateMutability": "nonpayable",
      "type": "constructor"
    },
    {
      "inputs": [],
      "name": "MINTER_ROLE",
      "outputs": [
        {
          "internalType": "bytes32",
          "name": "",
          "type": "bytes32"
        }
      ],
      "stateMutability": "view",
      "type": "function"
    },
    {
      "inputs": [
        {
          "internalType": "address",
          "name": "to",
          "type": "address"
        },
        {
          "internalType": "uint256[]",
          "name": "tokenIds",
          "type": "uint256[]"
        }
      ],
      "name": "batchMint",
      "outputs": [],
      "stateMutability": "nonpayable",
      "type": "function"
    },
    {
      "inputs": [],
      "name": "initERC721MintableOnceStorage",
      "outputs": [],
      "stateMutability": "nonpayable",
      "type": "function"
    },
    {
      "inputs": [
        {
          "internalType": "address",
          "name": "to",
          "type": "address"
        },
        {
          "internalType": "uint256",
          "name": "tokenId",
          "type": "uint256"
        }
      ],
      "name": "mint",
      "outputs": [],
      "stateMutability": "nonpayable",
      "type": "function"
    },
    {
      "inputs": [
        {
          "internalType": "address",
          "name": "to",
          "type": "address"
        },
        {
          "internalType": "uint256",
          "name": "tokenId",
          "type": "uint256"
        },
        {
          "internalType": "bytes",
          "name": "data",
          "type": "bytes"
        }
      ],
      "name": "safeMint",
      "outputs": [],
      "stateMutability": "nonpayable",
      "type": "function"
    }
  ],
  "bytecode": "0x60a060405234801561001057600080fd5b5060405161128d38038061128d83398101604081905261002f91610040565b6001600160a01b0316608052610070565b60006020828403121561005257600080fd5b81516001600160a01b038116811461006957600080fd5b9392505050565b6080516111fb6100926000396000818161083701526108d701526111fb6000f3fe608060405234801561001057600080fd5b50600436106100675760003560e01c806383b0b7401161005057806383b0b740146100945780638832e6e31461009c578063d5391393146100af57600080fd5b806340c10f191461006c5780634684d7e914610081575b600080fd5b61007f61007a366004610e49565b6100e8565b005b61007f61008f366004610e73565b610158565b61007f6101d1565b61007f6100aa366004610ef9565b6101f4565b6100d67f6d696e746572000000000000000000000000000000000000000000000000000081565b60405190815260200160405180910390f35b6101237f6d696e7465720000000000000000000000000000000000000000000000000000610114610276565b61011c610285565b91906102b9565b61015461012e610276565b838360405180602001604052806000815250600061014a61036e565b949392919061039c565b5050565b6101847f6d696e7465720000000000000000000000000000000000000000000000000000610114610276565b6101cc838383808060200260200160405190810160405280939291908181526020018383602002808284376000920191909152506101c5925061036e915050565b9190610540565b505050565b6101ea6101dc610276565b6101e4610715565b90610743565b6101f26107c6565b565b6102207f6d696e7465720000000000000000000000000000000000000000000000000000610114610276565b61027061022b610276565b858585858080601f0160208091040260200160405190810160405280939291908181526020018383808284376000920191909152506001925061014a915061036e9050565b50505050565b60006102806107fb565b905090565b6000806102b360017fc8827d3282af6f37b64c3e9e6f3ac9df286ab0bb0fccd6f8661bf19adb368b23610f80565b92915050565b60008281526020848152604080832073ffffffffffffffffffffffffffffffffffffffff8516845290915290205460ff166101cc576102f782610953565b6040516020016103079190610fea565b604080517fffffffffffffffffffffffffffffffffffffffffffffffffffffffffffffffe0818403018152908290527f08c379a0000000000000000000000000000000000000000000000000000000008252610365916004016110a0565b60405180910390fd5b6000806102b360017fddf3ee18ae6d688373c219468f8be446e7ae82215f4779d821c7ea5e8c13c0c1610f80565b73ffffffffffffffffffffffffffffffffffffffff8416610419576040517f08c379a000000000000000000000000000000000000000000000000000000000815260206004820152601460248201527f4552433732313a206d696e7420746f207a65726f0000000000000000000000006044820152606401610365565b6000838152602087905260409020547f2153000000000000000000000000000000000000000000000000000000000000016104b0576040517f08c379a000000000000000000000000000000000000000000000000000000000815260206004820152601160248201527f4552433732313a206275726e74204e46540000000000000000000000000000006044820152606401610365565b6104bd8685856000610ae5565b604051839073ffffffffffffffffffffffffffffffffffffffff8616906000907fddf252ad1be2c89b69c2b068fc378daa952ba7f163c4a11628f55a4df523b3ef908290a4808015610525575073ffffffffffffffffffffffffffffffffffffffff84163b15155b1561053857610538856000868686610bb9565b505050505050565b73ffffffffffffffffffffffffffffffffffffffff82166105bd576040517f08c379a000000000000000000000000000000000000000000000000000000000815260206004820152601460248201527f4552433732313a206d696e7420746f207a65726f0000000000000000000000006044820152606401610365565b805160005b8181146106e05760008382815181106105dd576105dd6110ba565b602002602001015190507fdead0000000000000000000000000000000000000000000000000000000000008660000160008381526020019081526020016000205403610685576040517f08c379a000000000000000000000000000000000000000000000000000000000815260206004820152601160248201527f4552433732313a206275726e74204e46540000000000000000000000000000006044820152606401610365565b6106928686836001610ae5565b604051819073ffffffffffffffffffffffffffffffffffffffff8716906000907fddf252ad1be2c89b69c2b068fc378daa952ba7f163c4a11628f55a4df523b3ef908290a4506001016105c2565b5073ffffffffffffffffffffffffffffffffffffffff9092166000908152600190930160205250604090912080549091019055565b6000806102b360017fb53127684a568b3173ae13b9f8a6016e243e63b6e8ee1178d6a717850b5d6104610f80565b815473ffffffffffffffffffffffffffffffffffffffff828116911614610154576040517f08c379a000000000000000000000000000000000000000000000000000000000815260206004820152601960248201527f50726f787941646d696e3a206e6f74207468652061646d696e000000000000006044820152606401610365565b6101f27f8e773e130000000000000000000000000000000000000000000000000000000060016107f4610ce6565b9190610d14565b60003332810361080a57919050565b6000367fffffffffffffffffffffffffffffffffffffffffffffffffffffffffffffffec013560601c90507f000000000000000000000000000000000000000000000000000000000000000073ffffffffffffffffffffffffffffffffffffffff168273ffffffffffffffffffffffffffffffffffffffff16148061094257506040517fe60125d600000000000000000000000000000000000000000000000000000000815273ffffffffffffffffffffffffffffffffffffffff828116600483015283811660248301527f0000000000000000000000000000000000000000000000000000000000000000169063e60125d690604401602060405180830381865afa15801561091e573d6000803e3d6000fd5b505050506040513d601f19601f8201168201806040525081019061094291906110e9565b1561094d5792915050565b50919050565b6060600082900361097257505060408051602081019091526000815290565b60008260405160200161098791815260200190565b604080517fffffffffffffffffffffffffffffffffffffffffffffffffffffffffffffffe08184030181529190529050601f5b8181815181106109cc576109cc6110ba565b01602001517fff0000000000000000000000000000000000000000000000000000000000000016600003610a21577fffffffffffffffffffffffffffffffffffffffffffffffffffffffffffffffff016109ba565b60008160010167ffffffffffffffff811115610a3f57610a3f61110b565b6040519080825280601f01601f191660200182016040528015610a69576020820181803683370190505b50905060005b828111610adc57838181518110610a8857610a886110ba565b602001015160f81c60f81b828281518110610aa557610aa56110ba565b60200101907effffffffffffffffffffffffffffffffffffffffffffffffffffffffffffff1916908160001a905350600101610a6f565b50949350505050565b60008281526020859052604090205415610b5b576040517f08c379a000000000000000000000000000000000000000000000000000000000815260206004820152601a60248201527f4552433732313a206578697374696e672f6275726e74204e46540000000000006044820152606401610365565b600082815260208590526040902073ffffffffffffffffffffffffffffffffffffffff841690558061027057505073ffffffffffffffffffffffffffffffffffffffff16600090815260019182016020526040902080549091019055565b6040517f150b7a02000000000000000000000000000000000000000000000000000000008082529073ffffffffffffffffffffffffffffffffffffffff85169063150b7a0290610c1390899089908890889060040161113a565b6020604051808303816000875af1158015610c32573d6000803e3d6000fd5b505050506040513d601f19601f82011682018060405250810190610c569190611183565b7fffffffff000000000000000000000000000000000000000000000000000000001614610cdf576040517f08c379a000000000000000000000000000000000000000000000000000000000815260206004820152601860248201527f4552433732313a207472616e73666572207265667573656400000000000000006044820152606401610365565b5050505050565b6000806102b360017fca9d3e17f264b0f3984e2634e94adb37fa3e6a8103f06aeae6fa59e21c769f5e610f80565b7c01000000000000000000000000000000000000000000000000000000007fffffffff00000000000000000000000000000000000000000000000000000000831601610dbc576040517f08c379a000000000000000000000000000000000000000000000000000000000815260206004820152601f60248201527f496e74657266616365446574656374696f6e3a2077726f6e672076616c7565006044820152606401610365565b7fffffffff00000000000000000000000000000000000000000000000000000000919091166000908152602092909252604090912080547fffffffffffffffffffffffffffffffffffffffffffffffffffffffffffffff0016911515919091179055565b803573ffffffffffffffffffffffffffffffffffffffff81168114610e4457600080fd5b919050565b60008060408385031215610e5c57600080fd5b610e6583610e20565b946020939093013593505050565b600080600060408486031215610e8857600080fd5b610e9184610e20565b9250602084013567ffffffffffffffff80821115610eae57600080fd5b818601915086601f830112610ec257600080fd5b813581811115610ed157600080fd5b8760208260051b8501011115610ee657600080fd5b6020830194508093505050509250925092565b60008060008060608587031215610f0f57600080fd5b610f1885610e20565b935060208501359250604085013567ffffffffffffffff80821115610f3c57600080fd5b818701915087601f830112610f5057600080fd5b813581811115610f5f57600080fd5b886020828501011115610f7157600080fd5b95989497505060200194505050565b600082821015610fb9577f4e487b7100000000000000000000000000000000000000000000000000000000600052601160045260246000fd5b500390565b60005b83811015610fd9578181015183820152602001610fc1565b838111156102705750506000910152565b7f416363657373436f6e74726f6c3a206d697373696e6720270000000000000000815260008251611022816018850160208701610fbe565b7f2720726f6c6500000000000000000000000000000000000000000000000000006018939091019283015250601e01919050565b6000815180845261106e816020860160208601610fbe565b601f017fffffffffffffffffffffffffffffffffffffffffffffffffffffffffffffffe0169290920160200192915050565b6020815260006110b36020830184611056565b9392505050565b7f4e487b7100000000000000000000000000000000000000000000000000000000600052603260045260246000fd5b6000602082840312156110fb57600080fd5b815180151581146110b357600080fd5b7f4e487b7100000000000000000000000000000000000000000000000000000000600052604160045260246000fd5b600073ffffffffffffffffffffffffffffffffffffffff8087168352808616602084015250836040830152608060608301526111796080830184611056565b9695505050505050565b60006020828403121561119557600080fd5b81517fffffffff00000000000000000000000000000000000000000000000000000000811681146110b357600080fdfea264697066735822122081d27578535c37fcb7afdb41658d266a81bb21a9c7c22235ec079627e2716e2764736f6c634300080e0033",
  "linkReferences": {},
  "deployedLinkReferences": {}
}