{
  "_format": "hh-sol-artifact-1",
  "contractName": "ERC721MintableOnceFacet",
  "sourceName": "contracts/token/ERC721/ERC721MintableOnceFacet.sol",
  "abi": [
    {
      "inputs": [
        {
          "internalType": "contract IForwarderRegistry",
          "name": "forwarderRegistry",
          "type": "address"
        }
      ],
      "stateMutability": "nonpayable",
      "type": "constructor"
    },
    {
      "inputs": [
        {
          "internalType": "address",
          "name": "to",
          "type": "address"
        },
        {
          "internalType": "uint256[]",
          "name": "tokenIds",
          "type": "uint256[]"
        }
      ],
      "name": "batchMintOnce",
      "outputs": [],
      "stateMutability": "nonpayable",
      "type": "function"
    },
    {
      "inputs": [],
      "name": "initERC721MintableOnceStorage",
      "outputs": [],
      "stateMutability": "nonpayable",
      "type": "function"
    },
    {
      "inputs": [
        {
          "internalType": "address",
          "name": "to",
          "type": "address"
        },
        {
          "internalType": "uint256",
          "name": "tokenId",
          "type": "uint256"
        }
      ],
      "name": "mintOnce",
      "outputs": [],
      "stateMutability": "nonpayable",
      "type": "function"
    },
    {
      "inputs": [
        {
          "internalType": "address",
          "name": "to",
          "type": "address"
        },
        {
          "internalType": "uint256",
          "name": "tokenId",
          "type": "uint256"
        },
        {
          "internalType": "bytes",
          "name": "data",
          "type": "bytes"
        }
      ],
      "name": "safeMintOnce",
      "outputs": [],
      "stateMutability": "nonpayable",
      "type": "function"
    }
  ],
  "bytecode": "0x60a060405234801561001057600080fd5b50604051610f46380380610f4683398101604081905261002f91610040565b6001600160a01b0316608052610070565b60006020828403121561005257600080fd5b81516001600160a01b038116811461006957600080fd5b9392505050565b608051610eb46100926000396000818161081c01526108bc0152610eb46000f3fe608060405234801561001057600080fd5b506004361061004c5760003560e01c806383b0b74014610051578063b0ebfe0c1461005b578063e2366d3b1461006e578063f598136a14610081575b600080fd5b610059610094565b005b610059610069366004610b73565b6100e4565b61005961007c366004610bfa565b610144565b61005961008f366004610c80565b610191565b6100ad61009f6101c6565b6100a76101d5565b90610209565b6100e27fa745805d0000000000000000000000000000000000000000000000000000000060016100db610291565b91906102bf565b565b61013e6100ef6101c6565b858585858080601f0160208091040260200160405190810160405280939291908181526020018383808284376000920191909152506001925061013491506103af9050565b94939291906103dd565b50505050565b61018c8383838080602002602001604051908101604052809392919081815260200183836020028082843760009201919091525061018592506103af915050565b9190610586565b505050565b6101c261019c6101c6565b83836040518060200160405280600081525060006101b86103af565b94939291906106d3565b5050565b60006101d06107e0565b905090565b60008061020360017fb53127684a568b3173ae13b9f8a6016e243e63b6e8ee1178d6a717850b5d6104610cd9565b92915050565b815473ffffffffffffffffffffffffffffffffffffffff8281169116146101c2576040517f08c379a000000000000000000000000000000000000000000000000000000000815260206004820152601960248201527f50726f787941646d696e3a206e6f74207468652061646d696e0000000000000060448201526064015b60405180910390fd5b60008061020360017f7180ffa89c91cf90d6c56dacabfc69bc5e36f3099d7eed2f5cc12c5dba016fe0610cd9565b7fffffffff00000000000000000000000000000000000000000000000000000000808316900361034b576040517f08c379a000000000000000000000000000000000000000000000000000000000815260206004820152601f60248201527f496e74657266616365446574656374696f6e3a2077726f6e672076616c7565006044820152606401610288565b7fffffffff00000000000000000000000000000000000000000000000000000000919091166000908152602092909252604090912080547fffffffffffffffffffffffffffffffffffffffffffffffffffffffffffffff0016911515919091179055565b60008061020360017fddf3ee18ae6d688373c219468f8be446e7ae82215f4779d821c7ea5e8c13c0c1610cd9565b600083815260018701602052604090205473ffffffffffffffffffffffffffffffffffffffff81161561046c576040517f08c379a000000000000000000000000000000000000000000000000000000000815260206004820152601460248201527f4552433732313a206578697374696e67204e46540000000000000000000000006044820152606401610288565b7fdead00000000000000000000000000000000000000000000000000000000000081036104f5576040517f08c379a000000000000000000000000000000000000000000000000000000000815260206004820152601160248201527f4552433732313a206275726e74204e46540000000000000000000000000000006044820152606401610288565b6105028786866000610938565b604051849073ffffffffffffffffffffffffffffffffffffffff8716906000907fddf252ad1be2c89b69c2b068fc378daa952ba7f163c4a11628f55a4df523b3ef908290a481801561056a575073ffffffffffffffffffffffffffffffffffffffff85163b15155b1561057d5761057d866000878787610a1d565b50505050505050565b73ffffffffffffffffffffffffffffffffffffffff8216610603576040517f08c379a000000000000000000000000000000000000000000000000000000000815260206004820152601460248201527f4552433732313a206d696e7420746f207a65726f0000000000000000000000006044820152606401610288565b805160005b81811461069057600083828151811061062357610623610cf0565b6020026020010151905061063a8686836001610938565b604051819073ffffffffffffffffffffffffffffffffffffffff8716906000907fddf252ad1be2c89b69c2b068fc378daa952ba7f163c4a11628f55a4df523b3ef908290a45061068981610d1f565b9050610608565b5073ffffffffffffffffffffffffffffffffffffffff83166000908152600285016020526040812080548392906106c8908490610d57565b909155505050505050565b73ffffffffffffffffffffffffffffffffffffffff8416610750576040517f08c379a000000000000000000000000000000000000000000000000000000000815260206004820152601460248201527f4552433732313a206d696e7420746f207a65726f0000000000000000000000006044820152606401610288565b61075d8685856000610938565b604051839073ffffffffffffffffffffffffffffffffffffffff8616906000907fddf252ad1be2c89b69c2b068fc378daa952ba7f163c4a11628f55a4df523b3ef908290a48080156107c5575073ffffffffffffffffffffffffffffffffffffffff84163b15155b156107d8576107d8856000868686610a1d565b505050505050565b6000333281036107ef57919050565b6000367fffffffffffffffffffffffffffffffffffffffffffffffffffffffffffffffec013560601c90507f000000000000000000000000000000000000000000000000000000000000000073ffffffffffffffffffffffffffffffffffffffff168273ffffffffffffffffffffffffffffffffffffffff16148061092757506040517fe60125d600000000000000000000000000000000000000000000000000000000815273ffffffffffffffffffffffffffffffffffffffff828116600483015283811660248301527f0000000000000000000000000000000000000000000000000000000000000000169063e60125d690604401602060405180830381865afa158015610903573d6000803e3d6000fd5b505050506040513d601f19601f820116820180604052508101906109279190610d6f565b156109325792915050565b50919050565b6000828152600185016020526040902054156109b0576040517f08c379a000000000000000000000000000000000000000000000000000000000815260206004820152601a60248201527f4552433732313a206578697374696e672f6275726e74204e46540000000000006044820152606401610288565b6000828152600185016020526040902073ffffffffffffffffffffffffffffffffffffffff841690558061013e5773ffffffffffffffffffffffffffffffffffffffff8316600090815260028501602052604081208054909190610a1390610d1f565b9091555050505050565b6040517f150b7a02000000000000000000000000000000000000000000000000000000008082529073ffffffffffffffffffffffffffffffffffffffff85169063150b7a0290610a77908990899088908890600401610d98565b6020604051808303816000875af1158015610a96573d6000803e3d6000fd5b505050506040513d601f19601f82011682018060405250810190610aba9190610e3c565b7fffffffff000000000000000000000000000000000000000000000000000000001614610b43576040517f08c379a000000000000000000000000000000000000000000000000000000000815260206004820152601860248201527f4552433732313a207472616e73666572207265667573656400000000000000006044820152606401610288565b5050505050565b803573ffffffffffffffffffffffffffffffffffffffff81168114610b6e57600080fd5b919050565b60008060008060608587031215610b8957600080fd5b610b9285610b4a565b935060208501359250604085013567ffffffffffffffff80821115610bb657600080fd5b818701915087601f830112610bca57600080fd5b813581811115610bd957600080fd5b886020828501011115610beb57600080fd5b95989497505060200194505050565b600080600060408486031215610c0f57600080fd5b610c1884610b4a565b9250602084013567ffffffffffffffff80821115610c3557600080fd5b818601915086601f830112610c4957600080fd5b813581811115610c5857600080fd5b8760208260051b8501011115610c6d57600080fd5b6020830194508093505050509250925092565b60008060408385031215610c9357600080fd5b610c9c83610b4a565b946020939093013593505050565b7f4e487b7100000000000000000000000000000000000000000000000000000000600052601160045260246000fd5b600082821015610ceb57610ceb610caa565b500390565b7f4e487b7100000000000000000000000000000000000000000000000000000000600052603260045260246000fd5b60007fffffffffffffffffffffffffffffffffffffffffffffffffffffffffffffffff8203610d5057610d50610caa565b5060010190565b60008219821115610d6a57610d6a610caa565b500190565b600060208284031215610d8157600080fd5b81518015158114610d9157600080fd5b9392505050565b600073ffffffffffffffffffffffffffffffffffffffff8087168352602081871681850152856040850152608060608501528451915081608085015260005b82811015610df35785810182015185820160a001528101610dd7565b82811115610e0557600060a084870101525b5050601f017fffffffffffffffffffffffffffffffffffffffffffffffffffffffffffffffe0169190910160a00195945050505050565b600060208284031215610e4e57600080fd5b81517fffffffff0000000000000000000000000000000000000000000000000000000081168114610d9157600080fdfea2646970667358221220b92f00b71b0a393ad452e9780645920b53e5314583d4c43d69e32952570e248864736f6c634300080d0033",
  "linkReferences": {},
  "deployedLinkReferences": {}
}