{
  "_format": "hh-sol-artifact-1",
  "contractName": "ERC721FullBurnProxiedMock",
  "sourceName": "contracts/mocks/token/ERC721/preset/proxied/ERC721FullBurnProxiedMock.sol",
  "abi": [
    {
      "inputs": [
        {
          "internalType": "contract IForwarderRegistry",
          "name": "forwarderRegistry",
          "type": "address"
        }
      ],
      "stateMutability": "nonpayable",
      "type": "constructor"
    },
    {
      "inputs": [
        {
          "internalType": "uint256",
          "name": "percentage",
          "type": "uint256"
        }
      ],
      "name": "ERC2981IncorrectRoyaltyPercentage",
      "type": "error"
    },
    {
      "inputs": [],
      "name": "ERC2981IncorrectRoyaltyReceiver",
      "type": "error"
    },
    {
      "inputs": [],
      "name": "ERC721BalanceOfAddressZero",
      "type": "error"
    },
    {
      "inputs": [
        {
          "internalType": "uint256",
          "name": "tokenId",
          "type": "uint256"
        }
      ],
      "name": "ERC721ExistingToken",
      "type": "error"
    },
    {
      "inputs": [],
      "name": "ERC721MintToAddressZero",
      "type": "error"
    },
    {
      "inputs": [
        {
          "internalType": "address",
          "name": "sender",
          "type": "address"
        },
        {
          "internalType": "address",
          "name": "owner",
          "type": "address"
        },
        {
          "internalType": "uint256",
          "name": "tokenId",
          "type": "uint256"
        }
      ],
      "name": "ERC721NonApprovedForApproval",
      "type": "error"
    },
    {
      "inputs": [
        {
          "internalType": "address",
          "name": "sender",
          "type": "address"
        },
        {
          "internalType": "address",
          "name": "owner",
          "type": "address"
        },
        {
          "internalType": "uint256",
          "name": "tokenId",
          "type": "uint256"
        }
      ],
      "name": "ERC721NonApprovedForTransfer",
      "type": "error"
    },
    {
      "inputs": [
        {
          "internalType": "uint256",
          "name": "tokenId",
          "type": "uint256"
        }
      ],
      "name": "ERC721NonExistingToken",
      "type": "error"
    },
    {
      "inputs": [
        {
          "internalType": "address",
          "name": "account",
          "type": "address"
        },
        {
          "internalType": "uint256",
          "name": "tokenId",
          "type": "uint256"
        }
      ],
      "name": "ERC721NonOwnedToken",
      "type": "error"
    },
    {
      "inputs": [
        {
          "internalType": "address",
          "name": "recipient",
          "type": "address"
        },
        {
          "internalType": "uint256",
          "name": "tokenId",
          "type": "uint256"
        }
      ],
      "name": "ERC721SafeTransferRejected",
      "type": "error"
    },
    {
      "inputs": [
        {
          "internalType": "address",
          "name": "account",
          "type": "address"
        }
      ],
      "name": "ERC721SelfApproval",
      "type": "error"
    },
    {
      "inputs": [
        {
          "internalType": "address",
          "name": "account",
          "type": "address"
        }
      ],
      "name": "ERC721SelfApprovalForAll",
      "type": "error"
    },
    {
      "inputs": [],
      "name": "ERC721TransferToAddressZero",
      "type": "error"
    },
    {
      "inputs": [],
      "name": "IllegalInterfaceId",
      "type": "error"
    },
    {
      "inputs": [],
      "name": "InconsistentArrayLengths",
      "type": "error"
    },
    {
      "inputs": [
        {
          "internalType": "uint256",
          "name": "currentPhase",
          "type": "uint256"
        },
        {
          "internalType": "uint256",
          "name": "newPhase",
          "type": "uint256"
        }
      ],
      "name": "InitializationPhaseAlreadyReached",
      "type": "error"
    },
    {
      "inputs": [
        {
          "internalType": "address",
          "name": "account",
          "type": "address"
        }
      ],
      "name": "NotContractOwner",
      "type": "error"
    },
    {
      "inputs": [
        {
          "internalType": "bytes32",
          "name": "role",
          "type": "bytes32"
        },
        {
          "internalType": "address",
          "name": "account",
          "type": "address"
        }
      ],
      "name": "NotRoleHolder",
      "type": "error"
    },
    {
      "inputs": [
        {
          "internalType": "address",
          "name": "operator",
          "type": "address"
        }
      ],
      "name": "OperatorNotAllowed",
      "type": "error"
    },
    {
      "anonymous": false,
      "inputs": [
        {
          "indexed": true,
          "internalType": "address",
          "name": "owner",
          "type": "address"
        },
        {
          "indexed": true,
          "internalType": "address",
          "name": "approved",
          "type": "address"
        },
        {
          "indexed": true,
          "internalType": "uint256",
          "name": "tokenId",
          "type": "uint256"
        }
      ],
      "name": "Approval",
      "type": "event"
    },
    {
      "anonymous": false,
      "inputs": [
        {
          "indexed": true,
          "internalType": "address",
          "name": "owner",
          "type": "address"
        },
        {
          "indexed": true,
          "internalType": "address",
          "name": "operator",
          "type": "address"
        },
        {
          "indexed": false,
          "internalType": "bool",
          "name": "approved",
          "type": "bool"
        }
      ],
      "name": "ApprovalForAll",
      "type": "event"
    },
    {
      "anonymous": false,
      "inputs": [
        {
          "indexed": true,
          "internalType": "address",
          "name": "previousOwner",
          "type": "address"
        },
        {
          "indexed": true,
          "internalType": "address",
          "name": "newOwner",
          "type": "address"
        }
      ],
      "name": "OwnershipTransferred",
      "type": "event"
    },
    {
      "anonymous": false,
      "inputs": [
        {
          "indexed": false,
          "internalType": "bytes32",
          "name": "role",
          "type": "bytes32"
        },
        {
          "indexed": false,
          "internalType": "address",
          "name": "account",
          "type": "address"
        },
        {
          "indexed": false,
          "internalType": "address",
          "name": "operator",
          "type": "address"
        }
      ],
      "name": "RoleGranted",
      "type": "event"
    },
    {
      "anonymous": false,
      "inputs": [
        {
          "indexed": false,
          "internalType": "bytes32",
          "name": "role",
          "type": "bytes32"
        },
        {
          "indexed": false,
          "internalType": "address",
          "name": "account",
          "type": "address"
        },
        {
          "indexed": false,
          "internalType": "address",
          "name": "operator",
          "type": "address"
        }
      ],
      "name": "RoleRevoked",
      "type": "event"
    },
    {
      "anonymous": false,
      "inputs": [
        {
          "indexed": true,
          "internalType": "address",
          "name": "from",
          "type": "address"
        },
        {
          "indexed": true,
          "internalType": "address",
          "name": "to",
          "type": "address"
        },
        {
          "indexed": true,
          "internalType": "uint256",
          "name": "tokenId",
          "type": "uint256"
        }
      ],
      "name": "Transfer",
      "type": "event"
    },
    {
      "inputs": [],
      "name": "MINTER_ROLE",
      "outputs": [
        {
          "internalType": "bytes32",
          "name": "",
          "type": "bytes32"
        }
      ],
      "stateMutability": "view",
      "type": "function"
    },
    {
      "inputs": [],
      "name": "ROYALTY_FEE_DENOMINATOR",
      "outputs": [
        {
          "internalType": "uint256",
          "name": "",
          "type": "uint256"
        }
      ],
      "stateMutability": "view",
      "type": "function"
    },
    {
      "inputs": [],
      "name": "__msgData",
      "outputs": [
        {
          "internalType": "bytes",
          "name": "",
          "type": "bytes"
        }
      ],
      "stateMutability": "view",
      "type": "function"
    },
    {
      "inputs": [
        {
          "internalType": "address",
          "name": "to",
          "type": "address"
        },
        {
          "internalType": "uint256",
          "name": "tokenId",
          "type": "uint256"
        }
      ],
      "name": "approve",
      "outputs": [],
      "stateMutability": "nonpayable",
      "type": "function"
    },
    {
      "inputs": [
        {
          "internalType": "address",
          "name": "owner",
          "type": "address"
        }
      ],
      "name": "balanceOf",
      "outputs": [
        {
          "internalType": "uint256",
          "name": "balance",
          "type": "uint256"
        }
      ],
      "stateMutability": "view",
      "type": "function"
    },
    {
      "inputs": [
        {
          "internalType": "address",
          "name": "from",
          "type": "address"
        },
        {
          "internalType": "uint256[]",
          "name": "tokenIds",
          "type": "uint256[]"
        }
      ],
      "name": "batchBurnFrom",
      "outputs": [],
      "stateMutability": "nonpayable",
      "type": "function"
    },
    {
      "inputs": [
        {
          "internalType": "address",
          "name": "to",
          "type": "address"
        },
        {
          "internalType": "uint256[]",
          "name": "tokenIds",
          "type": "uint256[]"
        }
      ],
      "name": "batchMint",
      "outputs": [],
      "stateMutability": "nonpayable",
      "type": "function"
    },
    {
      "inputs": [
        {
          "internalType": "address",
          "name": "from",
          "type": "address"
        },
        {
          "internalType": "address",
          "name": "to",
          "type": "address"
        },
        {
          "internalType": "uint256[]",
          "name": "tokenIds",
          "type": "uint256[]"
        }
      ],
      "name": "batchTransferFrom",
      "outputs": [],
      "stateMutability": "nonpayable",
      "type": "function"
    },
    {
      "inputs": [
        {
          "internalType": "address",
          "name": "from",
          "type": "address"
        },
        {
          "internalType": "uint256",
          "name": "tokenId",
          "type": "uint256"
        }
      ],
      "name": "burnFrom",
      "outputs": [],
      "stateMutability": "nonpayable",
      "type": "function"
    },
    {
      "inputs": [
        {
          "internalType": "address[]",
          "name": "recipients",
          "type": "address[]"
        },
        {
          "internalType": "uint256[]",
          "name": "tokenIds",
          "type": "uint256[]"
        }
      ],
      "name": "deliver",
      "outputs": [],
      "stateMutability": "nonpayable",
      "type": "function"
    },
    {
      "inputs": [],
      "name": "forwarderRegistry",
      "outputs": [
        {
          "internalType": "contract IForwarderRegistry",
          "name": "",
          "type": "address"
        }
      ],
      "stateMutability": "view",
      "type": "function"
    },
    {
      "inputs": [
        {
          "internalType": "uint256",
          "name": "tokenId",
          "type": "uint256"
        }
      ],
      "name": "getApproved",
      "outputs": [
        {
          "internalType": "address",
          "name": "approved",
          "type": "address"
        }
      ],
      "stateMutability": "view",
      "type": "function"
    },
    {
      "inputs": [
        {
          "internalType": "bytes32",
          "name": "role",
          "type": "bytes32"
        },
        {
          "internalType": "address",
          "name": "account",
          "type": "address"
        }
      ],
      "name": "grantRole",
      "outputs": [],
      "stateMutability": "nonpayable",
      "type": "function"
    },
    {
      "inputs": [
        {
          "internalType": "bytes32",
          "name": "role",
          "type": "bytes32"
        },
        {
          "internalType": "address",
          "name": "account",
          "type": "address"
        }
      ],
      "name": "hasRole",
      "outputs": [
        {
          "internalType": "bool",
          "name": "hasRole_",
          "type": "bool"
        }
      ],
      "stateMutability": "view",
      "type": "function"
    },
    {
      "inputs": [
        {
          "internalType": "string",
          "name": "tokenName",
          "type": "string"
        },
        {
          "internalType": "string",
          "name": "tokenSymbol",
          "type": "string"
        },
        {
          "internalType": "contract ITokenMetadataResolver",
          "name": "metadataResolver",
          "type": "address"
        },
        {
          "internalType": "contract IOperatorFilterRegistry",
          "name": "filterRegistry",
          "type": "address"
        }
      ],
      "name": "init",
      "outputs": [],
      "stateMutability": "nonpayable",
      "type": "function"
    },
    {
      "inputs": [
        {
          "internalType": "address",
          "name": "owner",
          "type": "address"
        },
        {
          "internalType": "address",
          "name": "operator",
          "type": "address"
        }
      ],
      "name": "isApprovedForAll",
      "outputs": [
        {
          "internalType": "bool",
          "name": "approvedForAll",
          "type": "bool"
        }
      ],
      "stateMutability": "view",
      "type": "function"
    },
    {
      "inputs": [
        {
          "internalType": "address",
          "name": "forwarder",
          "type": "address"
        }
      ],
      "name": "isTrustedForwarder",
      "outputs": [
        {
          "internalType": "bool",
          "name": "",
          "type": "bool"
        }
      ],
      "stateMutability": "view",
      "type": "function"
    },
    {
      "inputs": [],
      "name": "metadataResolver",
      "outputs": [
        {
          "internalType": "contract ITokenMetadataResolver",
          "name": "tokenMetadataResolver",
          "type": "address"
        }
      ],
      "stateMutability": "view",
      "type": "function"
    },
    {
      "inputs": [
        {
          "internalType": "address",
          "name": "to",
          "type": "address"
        },
        {
          "internalType": "uint256",
          "name": "tokenId",
          "type": "uint256"
        }
      ],
      "name": "mint",
      "outputs": [],
      "stateMutability": "nonpayable",
      "type": "function"
    },
    {
      "inputs": [],
      "name": "name",
      "outputs": [
        {
          "internalType": "string",
          "name": "tokenName",
          "type": "string"
        }
      ],
      "stateMutability": "view",
      "type": "function"
    },
    {
      "inputs": [],
      "name": "operatorFilterRegistry",
      "outputs": [
        {
          "internalType": "contract IOperatorFilterRegistry",
          "name": "",
          "type": "address"
        }
      ],
      "stateMutability": "view",
      "type": "function"
    },
    {
      "inputs": [],
      "name": "owner",
      "outputs": [
        {
          "internalType": "address",
          "name": "",
          "type": "address"
        }
      ],
      "stateMutability": "view",
      "type": "function"
    },
    {
      "inputs": [
        {
          "internalType": "uint256",
          "name": "tokenId",
          "type": "uint256"
        }
      ],
      "name": "ownerOf",
      "outputs": [
        {
          "internalType": "address",
          "name": "tokenOwner",
          "type": "address"
        }
      ],
      "stateMutability": "view",
      "type": "function"
    },
    {
      "inputs": [
        {
          "internalType": "address[]",
          "name": "accounts",
          "type": "address[]"
        },
        {
          "internalType": "contract IERC20[]",
          "name": "tokens",
          "type": "address[]"
        },
        {
          "internalType": "uint256[]",
          "name": "amounts",
          "type": "uint256[]"
        }
      ],
      "name": "recoverERC20s",
      "outputs": [],
      "stateMutability": "nonpayable",
      "type": "function"
    },
    {
      "inputs": [
        {
          "internalType": "address[]",
          "name": "accounts",
          "type": "address[]"
        },
        {
          "internalType": "contract IERC721[]",
          "name": "contracts",
          "type": "address[]"
        },
        {
          "internalType": "uint256[]",
          "name": "tokenIds",
          "type": "uint256[]"
        }
      ],
      "name": "recoverERC721s",
      "outputs": [],
      "stateMutability": "nonpayable",
      "type": "function"
    },
    {
      "inputs": [
        {
          "internalType": "address payable[]",
          "name": "accounts",
          "type": "address[]"
        },
        {
          "internalType": "uint256[]",
          "name": "amounts",
          "type": "uint256[]"
        }
      ],
      "name": "recoverETH",
      "outputs": [],
      "stateMutability": "nonpayable",
      "type": "function"
    },
    {
      "inputs": [
        {
          "internalType": "bytes32",
          "name": "role",
          "type": "bytes32"
        }
      ],
      "name": "renounceRole",
      "outputs": [],
      "stateMutability": "nonpayable",
      "type": "function"
    },
    {
      "inputs": [
        {
          "internalType": "bytes32",
          "name": "role",
          "type": "bytes32"
        },
        {
          "internalType": "address",
          "name": "account",
          "type": "address"
        }
      ],
      "name": "revokeRole",
      "outputs": [],
      "stateMutability": "nonpayable",
      "type": "function"
    },
    {
      "inputs": [
        {
          "internalType": "uint256",
          "name": "tokenId",
          "type": "uint256"
        },
        {
          "internalType": "uint256",
          "name": "salePrice",
          "type": "uint256"
        }
      ],
      "name": "royaltyInfo",
      "outputs": [
        {
          "internalType": "address",
          "name": "receiver",
          "type": "address"
        },
        {
          "internalType": "uint256",
          "name": "royaltyAmount",
          "type": "uint256"
        }
      ],
      "stateMutability": "view",
      "type": "function"
    },
    {
      "inputs": [
        {
          "internalType": "address",
          "name": "to",
          "type": "address"
        },
        {
          "internalType": "uint256",
          "name": "tokenId",
          "type": "uint256"
        },
        {
          "internalType": "bytes",
          "name": "data",
          "type": "bytes"
        }
      ],
      "name": "safeMint",
      "outputs": [],
      "stateMutability": "nonpayable",
      "type": "function"
    },
    {
      "inputs": [
        {
          "internalType": "address",
          "name": "from",
          "type": "address"
        },
        {
          "internalType": "address",
          "name": "to",
          "type": "address"
        },
        {
          "internalType": "uint256",
          "name": "tokenId",
          "type": "uint256"
        }
      ],
      "name": "safeTransferFrom",
      "outputs": [],
      "stateMutability": "nonpayable",
      "type": "function"
    },
    {
      "inputs": [
        {
          "internalType": "address",
          "name": "from",
          "type": "address"
        },
        {
          "internalType": "address",
          "name": "to",
          "type": "address"
        },
        {
          "internalType": "uint256",
          "name": "tokenId",
          "type": "uint256"
        },
        {
          "internalType": "bytes",
          "name": "data",
          "type": "bytes"
        }
      ],
      "name": "safeTransferFrom",
      "outputs": [],
      "stateMutability": "nonpayable",
      "type": "function"
    },
    {
      "inputs": [
        {
          "internalType": "address",
          "name": "operator",
          "type": "address"
        },
        {
          "internalType": "bool",
          "name": "approved",
          "type": "bool"
        }
      ],
      "name": "setApprovalForAll",
      "outputs": [],
      "stateMutability": "nonpayable",
      "type": "function"
    },
    {
      "inputs": [
        {
          "internalType": "uint256",
          "name": "percentage",
          "type": "uint256"
        }
      ],
      "name": "setRoyaltyPercentage",
      "outputs": [],
      "stateMutability": "nonpayable",
      "type": "function"
    },
    {
      "inputs": [
        {
          "internalType": "address",
          "name": "receiver",
          "type": "address"
        }
      ],
      "name": "setRoyaltyReceiver",
      "outputs": [],
      "stateMutability": "nonpayable",
      "type": "function"
    },
    {
      "inputs": [
        {
          "internalType": "bytes4",
          "name": "interfaceId",
          "type": "bytes4"
        }
      ],
      "name": "supportsInterface",
      "outputs": [
        {
          "internalType": "bool",
          "name": "",
          "type": "bool"
        }
      ],
      "stateMutability": "view",
      "type": "function"
    },
    {
      "inputs": [],
      "name": "symbol",
      "outputs": [
        {
          "internalType": "string",
          "name": "tokenSymbol",
          "type": "string"
        }
      ],
      "stateMutability": "view",
      "type": "function"
    },
    {
      "inputs": [
        {
          "internalType": "uint256",
          "name": "tokenId",
          "type": "uint256"
        }
      ],
      "name": "tokenURI",
      "outputs": [
        {
          "internalType": "string",
          "name": "uri",
          "type": "string"
        }
      ],
      "stateMutability": "view",
      "type": "function"
    },
    {
      "inputs": [
        {
          "internalType": "address",
          "name": "from",
          "type": "address"
        },
        {
          "internalType": "address",
          "name": "to",
          "type": "address"
        },
        {
          "internalType": "uint256",
          "name": "tokenId",
          "type": "uint256"
        }
      ],
      "name": "transferFrom",
      "outputs": [],
      "stateMutability": "nonpayable",
      "type": "function"
    },
    {
      "inputs": [
        {
          "internalType": "address",
          "name": "newOwner",
          "type": "address"
        }
      ],
      "name": "transferOwnership",
      "outputs": [],
      "stateMutability": "nonpayable",
      "type": "function"
    },
    {
      "inputs": [
        {
          "internalType": "contract IOperatorFilterRegistry",
          "name": "registry",
          "type": "address"
        }
      ],
      "name": "updateOperatorFilterRegistry",
      "outputs": [],
      "stateMutability": "nonpayable",
      "type": "function"
    }
  ],
  "bytecode": "0x60a060405234801562000010575f80fd5b506040516200472638038062004726833981016040819052620000339162000045565b6001600160a01b031660805262000074565b5f6020828403121562000056575f80fd5b81516001600160a01b03811681146200006d575f80fd5b9392505050565b608051614676620000b05f395f81816103ca01528181610460015281816133c70152818161344f0152818161374d015261378b01526146765ff3fe608060405234801561000f575f80fd5b50600436106102c2575f3560e01c80638832e6e31161017c578063b88d4fde116100dd578063e1a8bf2c11610093578063f2fde38b1161006e578063f2fde38b1461063f578063f3993d1114610652578063f7ba94bd14610665575f80fd5b8063e1a8bf2c1461060f578063e985e9c514610619578063f24729651461062c575f80fd5b8063c87b56dd116100c3578063c87b56dd146105c2578063d5391393146105d5578063d547741f146105fc575f80fd5b8063b88d4fde1461059c578063c3666c36146105af575f80fd5b806395d89b4111610132578063a0c76f6211610118578063a0c76f6214610579578063a22cb46514610581578063b0ccc31e14610594575f80fd5b806395d89b411461055e5780639da5e83214610566575f80fd5b80638da5cb5b116101625780638da5cb5b146105305780638dc251e31461053857806391d148541461054b575f80fd5b80638832e6e31461050a5780638bb9c5bf1461051d575f80fd5b806331e66e1e1161022657806361ba27da116101dc57806370a08231116101c257806370a08231146104c357806373c8a958146104e457806379cc6790146104f7575f80fd5b806361ba27da1461049d5780636352211e146104b0575f80fd5b806342842e0e1161020c57806342842e0e1461042a5780634684d7e91461043d578063572b6c0514610450575f80fd5b806331e66e1e1461040157806340c10f1914610417575f80fd5b8063114ba8ee1161027b5780632a55205a116102615780632a55205a146103895780632b4c9f16146103c85780632f2ff15d146103ee575f80fd5b8063114ba8ee1461036357806323b872dd14610376575f80fd5b8063081812fc116102ab578063081812fc14610303578063095ea7b31461033b5780630e07f85414610350575f80fd5b806301ffc9a7146102c657806306fdde03146102ee575b5f80fd5b6102d96102d4366004613c75565b610678565b60405190151581526020015b60405180910390f35b6102f6610691565b6040516102e59190613cfb565b610316610311366004613d0d565b6106a0565b60405173ffffffffffffffffffffffffffffffffffffffff90911681526020016102e5565b61034e610349366004613d45565b6106b3565b005b61034e61035e366004613dad565b610702565b61034e610371366004613e3c565b610787565b61034e610384366004613e57565b6107f2565b61039c610397366004613e95565b61082f565b6040805173ffffffffffffffffffffffffffffffffffffffff90931683526020830191909152016102e5565b7f0000000000000000000000000000000000000000000000000000000000000000610316565b61034e6103fc366004613eb5565b610851565b610409610883565b6040516102e5929190613ee3565b61034e610425366004613d45565b610895565b61034e610438366004613e57565b6108e4565b61034e61044b366004613f70565b610914565b6102d961045e366004613e3c565b7f000000000000000000000000000000000000000000000000000000000000000073ffffffffffffffffffffffffffffffffffffffff90811691161490565b61034e6104ab366004613d0d565b610987565b6103166104be366004613d0d565b6109a4565b6104d66104d1366004613e3c565b6109b7565b6040519081526020016102e5565b61034e6104f2366004613fc1565b6109ca565b61034e610505366004613d45565b610abe565b61034e610518366004614054565b610adb565b61034e61052b366004613d0d565b610b5c565b610316610b77565b61034e610546366004613e3c565b610b9d565b6102d9610559366004613eb5565b610bba565b6102f6610c03565b61034e6105743660046140ac565b610c0d565b610316610caf565b61034e61058f366004614114565b610cd8565b610316610d07565b61034e6105aa366004614140565b610d13565b61034e6105bd366004613fc1565b610d47565b6102f66105d0366004613d0d565b610eb8565b6104d67f6d696e746572000000000000000000000000000000000000000000000000000081565b61034e61060a366004613eb5565b610edb565b6104d6620186a081565b6102d96106273660046141ae565b610f08565b61034e61063a366004613f70565b610f54565b61034e61064d366004613e3c565b610f73565b61034e6106603660046141da565b610f8e565b61034e6106733660046140ac565b610fc7565b5f61068b8261068561107c565b906110a9565b92915050565b606061069b611180565b905090565b5f61068b826106ad611192565b906111bf565b73ffffffffffffffffffffffffffffffffffffffff8216156106e1576106e1826106db611275565b906112a2565b6106fe6106ec6112ac565b83836106f6611192565b9291906112b5565b5050565b61071b61070d6112ac565b61071561152c565b90611559565b610723611598565b61072b6115cf565b6107336115fd565b61073b61162b565b610743611659565b61074b611687565b6107536116b5565b61076d86868686866107636116e3565b9493929190611710565b61077f81610779611275565b906117aa565b505050505050565b6107a06107926112ac565b61079a61152c565b9061181a565b6107ef816107ac611275565b9081547fffffffffffffffffffffffff00000000000000000000000000000000000000001673ffffffffffffffffffffffffffffffffffffffff91909116179055565b50565b5f6107fb6112ac565b9050610811818561080a611275565b9190611885565b61082981858585610820611192565b939291906118c2565b50505050565b5f80610845848461083e611b9c565b9190611bc9565b915091505b9250929050565b5f61085a6112ac565b90506108688161079a61152c565b61087e838383610876611c71565b929190611c9e565b505050565b365f61088d611d72565b915091509091565b6108d07f6d696e74657200000000000000000000000000000000000000000000000000006108c16112ac565b6108c9611c71565b9190611d7c565b6106fe82826108dd611192565b9190611e01565b5f6108ed6112ac565b90506108fc818561080a611275565b6108298185858561090b611192565b93929190611f19565b6109407f6d696e74657200000000000000000000000000000000000000000000000000006108c16112ac565b61087e838383808060200260200160405190810160405280939291908181526020018383602002808284375f920191909152506109809250611192915050565b9190611f5e565b6109926107926112ac565b6107ef8161099e611b9c565b906120ce565b5f61068b826109b1611192565b90612154565b5f61068b826109c4611192565b906121bc565b6109d56107926112ac565b8483811415806109e55750808214155b15610a1c576040517f6582533600000000000000000000000000000000000000000000000000000000815260040160405180910390fd5b5f5b818114610ab457610aac888883818110610a3a57610a3a61422f565b9050602002016020810190610a4f9190613e3c565b858584818110610a6157610a6161422f565b90506020020135888885818110610a7a57610a7a61422f565b9050602002016020810190610a8f9190613e3c565b73ffffffffffffffffffffffffffffffffffffffff169190612236565b600101610a1e565b5050505050505050565b6106fe610ac96112ac565b8383610ad3611192565b9291906122c3565b610b077f6d696e74657200000000000000000000000000000000000000000000000000006108c16112ac565b610829610b126112ac565b858585858080601f0160208091040260200160405190810160405280939291908181526020018383808284375f92019190915250610b539250611192915050565b9392919061250a565b6107ef610b676112ac565b82610b70611c71565b919061253f565b5f61069b610b8361152c565b5473ffffffffffffffffffffffffffffffffffffffff1690565b610ba86107926112ac565b6107ef81610bb4611b9c565b906125e2565b5f610bfc8383610bc8611c71565b5f9283526020908152604080842073ffffffffffffffffffffffffffffffffffffffff909316845291905290205460ff1690565b9392505050565b606061069b61262f565b610c397f6d696e74657200000000000000000000000000000000000000000000000000006108c16112ac565b6108298484808060200260200160405190810160405280939291908181526020018383602002808284375f92019190915250506040805160208088028281018201909352878252909350879250869182918501908490808284375f92019190915250610ca89250611192915050565b9190612641565b5f61069b610cbb6116e3565b6002015473ffffffffffffffffffffffffffffffffffffffff1690565b8015610cea57610cea826106db611275565b6106fe610cf56112ac565b8383610cff611192565b9291906126d5565b5f61069b610b83611275565b5f610d1c6112ac565b9050610d2b818761080a611275565b61077f818787878787610d3c611192565b9594939291906127ec565b610d526107926112ac565b848381141580610d625750808214155b15610d99576040517f6582533600000000000000000000000000000000000000000000000000000000815260040160405180910390fd5b5f5b818114610ab457858582818110610db457610db461422f565b9050602002016020810190610dc99190613e3c565b73ffffffffffffffffffffffffffffffffffffffff166323b872dd308a8a85818110610df757610df761422f565b9050602002016020810190610e0c9190613e3c565b878786818110610e1e57610e1e61422f565b6040517fffffffff0000000000000000000000000000000000000000000000000000000060e088901b16815273ffffffffffffffffffffffffffffffffffffffff9586166004820152949093166024850152506020909102013560448201526064015f604051808303815f87803b158015610e97575f80fd5b505af1158015610ea9573d5f803e3d5ffd5b50505050806001019050610d9b565b6060610ec6826109b1611192565b5061068b3083610ed46116e3565b9190612861565b5f610ee46112ac565b9050610ef28161079a61152c565b61087e838383610f00611c71565b92919061291d565b5f610bfc8383610f16611192565b919073ffffffffffffffffffffffffffffffffffffffff9182165f908152600393909301602090815260408085209290931684525290205460ff1690565b61087e610f5f6112ac565b848484610f6a611192565b939291906129e5565b6107ef610f7e6112ac565b82610f8761152c565b9190612c68565b5f610f976112ac565b9050610fa6818661080a611275565b610fc08186868686610fb6611192565b9493929190612d7b565b5050505050565b610fd26107926112ac565b8281811461100c576040517f6582533600000000000000000000000000000000000000000000000000000000815260040160405180910390fd5b5f5b81811461077f5761107484848381811061102a5761102a61422f565b905060200201358787848181106110435761104361422f565b90506020020160208101906110589190613e3c565b73ffffffffffffffffffffffffffffffffffffffff1690613078565b60010161100e565b5f8061068b60017fca9d3e17f264b0f3984e2634e94adb37fa3e6a8103f06aeae6fa59e21c769f5e614289565b5f7c01000000000000000000000000000000000000000000000000000000007fffffffff000000000000000000000000000000000000000000000000000000008316016110f757505f61068b565b7ffe003659000000000000000000000000000000000000000000000000000000007fffffffff000000000000000000000000000000000000000000000000000000008316016111485750600161068b565b507fffffffff00000000000000000000000000000000000000000000000000000000165f908152602091909152604090205460ff1690565b606061069b61118d6116e3565b6131ce565b5f8061068b60017fddf3ee18ae6d688373c219468f8be446e7ae82215f4779d821c7ea5e8c13c0c1614289565b5f8181526020839052604081205473ffffffffffffffffffffffffffffffffffffffff8116611222576040517fdd560475000000000000000000000000000000000000000000000000000000008152600481018490526024015b60405180910390fd5b7401000000000000000000000000000000000000000081161561126c5750505f81815260028301602052604090205473ffffffffffffffffffffffffffffffffffffffff1661068b565b5f91505061068b565b5f8061068b60017f609b85bcafa81ecfaf3ff62cdde2c6c9082a68dbe4922f07399c706bdeb7cd31614289565b6106fe8282613261565b5f61069b613385565b5f8181526020859052604090205473ffffffffffffffffffffffffffffffffffffffff8116611313576040517fdd56047500000000000000000000000000000000000000000000000000000000815260048101839052602401611219565b8073ffffffffffffffffffffffffffffffffffffffff8082169085160361137e576040517fb7fdc01000000000000000000000000000000000000000000000000000000000815273ffffffffffffffffffffffffffffffffffffffff82166004820152602401611219565b6113898682876134c9565b6113e6576040517fc7563a1800000000000000000000000000000000000000000000000000000000815273ffffffffffffffffffffffffffffffffffffffff80871660048301528216602482015260448101849052606401611219565b73ffffffffffffffffffffffffffffffffffffffff841661144a5774010000000000000000000000000000000000000000821615611445575f83815260208790526040902073ffffffffffffffffffffffffffffffffffffffff821690555b6114c9565b74010000000000000000000000000000000000000000821780831461147a575f8481526020889052604090208190555b505f838152600287016020526040902080547fffffffffffffffffffffffff00000000000000000000000000000000000000001673ffffffffffffffffffffffffffffffffffffffff86161790555b828473ffffffffffffffffffffffffffffffffffffffff168273ffffffffffffffffffffffffffffffffffffffff167f8c5be1e5ebec7d5bd14f71427d1e84f3dd0314c0f7b2291e5b200ac8c7c3b92560405160405180910390a4505050505050565b5f8061068b60017fc9ed16f33ab3a66c84bfd83099ccb2a8845871e2e1c1928f63797152f0fd54cd614289565b61158e61158760017f5b388d90dc1312ba799f321972f13311234fa1163bcabec7cf66101c4876eb84614289565b600161353c565b6106fe8282613588565b6115cd7f80ac58cd0000000000000000000000000000000000000000000000000000000060016115c661107c565b919061363d565b565b6115cd7ff3993d110000000000000000000000000000000000000000000000000000000060016115c661107c565b6115cd7f5b5e139f0000000000000000000000000000000000000000000000000000000060016115c661107c565b6115cd7f8e773e130000000000000000000000000000000000000000000000000000000060016115c661107c565b6115cd7f9da5e8320000000000000000000000000000000000000000000000000000000060016115c661107c565b6115cd7f8b8b4ef50000000000000000000000000000000000000000000000000000000060016115c661107c565b6115cd7f2a55205a0000000000000000000000000000000000000000000000000000000060016115c661107c565b5f8061068b60017f7ea68fd2dcf1c056b94db6a0a537aa80d26fa9ab1eacd85da1ba0b61b7e7a8a5614289565b61173e61158760017f92f72593ca50a0096f68ee94e7000db40ed086164b695855e2250750b8bfaf59614289565b8561174a85878361435f565b506001860161175a83858361435f565b5060029590950180547fffffffffffffffffffffffff00000000000000000000000000000000000000001673ffffffffffffffffffffffffffffffffffffffff9096169590951790945550505050565b6117d861158760017f2f02d396cb1be29636682c8684200b30a98554d3b74293aa4495cb5e1d252f6e614289565b81547fffffffffffffffffffffffff00000000000000000000000000000000000000001673ffffffffffffffffffffffffffffffffffffffff91909116179055565b815473ffffffffffffffffffffffffffffffffffffffff8281169116146106fe576040517f2ef4875e00000000000000000000000000000000000000000000000000000000815273ffffffffffffffffffffffffffffffffffffffff82166004820152602401611219565b8073ffffffffffffffffffffffffffffffffffffffff168273ffffffffffffffffffffffffffffffffffffffff161461087e5761087e8383613261565b73ffffffffffffffffffffffffffffffffffffffff821661190f576040517f86c8706700000000000000000000000000000000000000000000000000000000815260040160405180910390fd5b5f8181526020869052604090205473ffffffffffffffffffffffffffffffffffffffff811661196d576040517fdd56047500000000000000000000000000000000000000000000000000000000815260048101839052602401611219565b73ffffffffffffffffffffffffffffffffffffffff84168173ffffffffffffffffffffffffffffffffffffffff16146119f1576040517f14dbb53600000000000000000000000000000000000000000000000000000000815273ffffffffffffffffffffffffffffffffffffffff8516600482015260248101839052604401611219565b6119fc8685876134c9565b611aaa577401000000000000000000000000000000000000000081161580611a4c57505f82815260028701602052604090205473ffffffffffffffffffffffffffffffffffffffff868116911614155b15611aaa576040517fa4a3018b00000000000000000000000000000000000000000000000000000000815273ffffffffffffffffffffffffffffffffffffffff80871660048301528516602482015260448101839052606401611219565b5f82815260208790526040902073ffffffffffffffffffffffffffffffffffffffff80851691829055851614611b395773ffffffffffffffffffffffffffffffffffffffff8085165f9081526001808901602052604080832080547fffffffffffffffffffffffffffffffffffffffffffffffffffffffffffffffff0190559286168252919020805490910190555b818373ffffffffffffffffffffffffffffffffffffffff168573ffffffffffffffffffffffffffffffffffffffff167fddf252ad1be2c89b69c2b068fc378daa952ba7f163c4a11628f55a4df523b3ef60405160405180910390a4505050505050565b5f8061068b60017f2c0cf10337caabbd02dcf226f05f5fd19a0919a41a8df8958c39b80007826858614289565b825473ffffffffffffffffffffffffffffffffffffffff8116905f907401000000000000000000000000000000000000000090046bffffffffffffffffffffffff16831580611c16575080155b15611c23575f9150611c68565b620186a0841015611c4d57620186a0611c3c8286614476565b611c46919061448d565b9150611c68565b80611c5b620186a08661448d565b611c659190614476565b91505b50935093915050565b5f8061068b60017fc8827d3282af6f37b64c3e9e6f3ac9df286ab0bb0fccd6f8661bf19adb368b23614289565b5f8381526020858152604080832073ffffffffffffffffffffffffffffffffffffffff8616845290915290205460ff16610829575f8381526020858152604080832073ffffffffffffffffffffffffffffffffffffffff8681168086529184529382902080547fffffffffffffffffffffffffffffffffffffffffffffffffffffffffffffff00166001179055815187815292830152918316918101919091527f2f8788117e7eff1d82e926ec794901d17c78024a50270940304540a733656f0d906060015b60405180910390a150505050565b365f61088d613718565b5f8281526020848152604080832073ffffffffffffffffffffffffffffffffffffffff8516845290915290205460ff1661087e576040517f7aa728820000000000000000000000000000000000000000000000000000000081526004810183905273ffffffffffffffffffffffffffffffffffffffff82166024820152604401611219565b73ffffffffffffffffffffffffffffffffffffffff8216611e4e576040517f7851b9cd00000000000000000000000000000000000000000000000000000000815260040160405180910390fd5b5f8181526020849052604090205473ffffffffffffffffffffffffffffffffffffffff1615611eac576040517f753eceac00000000000000000000000000000000000000000000000000000000815260048101829052602401611219565b5f8181526020848152604080832073ffffffffffffffffffffffffffffffffffffffff86169081905580845260018088019093528184208054909301909255518392907fddf252ad1be2c89b69c2b068fc378daa952ba7f163c4a11628f55a4df523b3ef908290a4505050565b611f2685858585856118c2565b73ffffffffffffffffffffffffffffffffffffffff82163b15610fc057610fc08484848460405180602001604052805f81525061387d565b73ffffffffffffffffffffffffffffffffffffffff8216611fab576040517f7851b9cd00000000000000000000000000000000000000000000000000000000815260040160405180910390fd5b80515f5b81811461209a575f838281518110611fc957611fc961422f565b60200260200101519050612004865f015f8381526020019081526020015f205473ffffffffffffffffffffffffffffffffffffffff16151590565b1561203e576040517f753eceac00000000000000000000000000000000000000000000000000000000815260048101829052602401611219565b5f8181526020879052604080822073ffffffffffffffffffffffffffffffffffffffff88169081905590518392907fddf252ad1be2c89b69c2b068fc378daa952ba7f163c4a11628f55a4df523b3ef908290a450600101611faf565b5073ffffffffffffffffffffffffffffffffffffffff9092165f908152600190930160205250604090912080549091019055565b620186a081111561210e576040517fac04040800000000000000000000000000000000000000000000000000000000815260048101829052602401611219565b81546bffffffffffffffffffffffff909116740100000000000000000000000000000000000000000273ffffffffffffffffffffffffffffffffffffffff909116179055565b5f8181526020839052604081205473ffffffffffffffffffffffffffffffffffffffff81166121b2576040517fdd56047500000000000000000000000000000000000000000000000000000000815260048101849052602401611219565b805b949350505050565b5f73ffffffffffffffffffffffffffffffffffffffff821661220a576040517faefbce4e00000000000000000000000000000000000000000000000000000000815260040160405180910390fd5b5073ffffffffffffffffffffffffffffffffffffffff165f908152600191909101602052604090205490565b6040805173ffffffffffffffffffffffffffffffffffffffff8416602482015260448082018490528251808303909101815260649091019091526020810180517bffffffffffffffffffffffffffffffffffffffffffffffffffffffff167fa9059cbb0000000000000000000000000000000000000000000000000000000017905261087e90849061398f565b5f8181526020859052604090205473ffffffffffffffffffffffffffffffffffffffff8116612321576040517fdd56047500000000000000000000000000000000000000000000000000000000815260048101839052602401611219565b73ffffffffffffffffffffffffffffffffffffffff83168173ffffffffffffffffffffffffffffffffffffffff16146123a5576040517f14dbb53600000000000000000000000000000000000000000000000000000000815273ffffffffffffffffffffffffffffffffffffffff8416600482015260248101839052604401611219565b6123b08584866134c9565b61245e57740100000000000000000000000000000000000000008116158061240057505f82815260028601602052604090205473ffffffffffffffffffffffffffffffffffffffff858116911614155b1561245e576040517fa4a3018b00000000000000000000000000000000000000000000000000000000815273ffffffffffffffffffffffffffffffffffffffff80861660048301528416602482015260448101839052606401611219565b5f828152602086815260408083207fdead000000000000000000000000000000000000000000000000000000000000905573ffffffffffffffffffffffffffffffffffffffff86168084526001890190925280832080547fffffffffffffffffffffffffffffffffffffffffffffffffffffffffffffffff01905551849291907fddf252ad1be2c89b69c2b068fc378daa952ba7f163c4a11628f55a4df523b3ef908390a45050505050565b612515858484611e01565b73ffffffffffffffffffffffffffffffffffffffff83163b15610fc057610fc0845f85858561387d565b61254a838284611d7c565b5f8181526020848152604080832073ffffffffffffffffffffffffffffffffffffffff86168085529083529281902080547fffffffffffffffffffffffffffffffffffffffffffffffffffffffffffffff0016905580518481529182018390528101919091527ff6391f5c32d9c69d2a47ea670b442974b53935d1edc7fd64eb21e047a839171b9060600160405180910390a1505050565b73ffffffffffffffffffffffffffffffffffffffff81166117d8576040517f16de0c8000000000000000000000000000000000000000000000000000000000815260040160405180910390fd5b606061069b61263c6116e3565b613a9c565b81518151811461267d576040517f6582533600000000000000000000000000000000000000000000000000000000815260040160405180910390fd5b5f5b818114610fc0576126cd84828151811061269b5761269b61422f565b60200260200101518483815181106126b5576126b561422f565b602002602001015187611e019092919063ffffffff16565b60010161267f565b8273ffffffffffffffffffffffffffffffffffffffff168273ffffffffffffffffffffffffffffffffffffffff1603612752576040517fe4215c6a00000000000000000000000000000000000000000000000000000000815273ffffffffffffffffffffffffffffffffffffffff84166004820152602401611219565b73ffffffffffffffffffffffffffffffffffffffff8381165f81815260038701602090815260408083209487168084529482529182902080547fffffffffffffffffffffffffffffffffffffffffffffffffffffffffffffff001686151590811790915591519182527f17307eab39ab6107e8899845ad3d59bd9653f200f220920489ca2b5937696c31910160405180910390a350505050565b6127f987878787876118c2565b73ffffffffffffffffffffffffffffffffffffffff84163b15612858576128588686868686868080601f0160208091040260200160405190810160405280939291908181526020018383808284375f9201919091525061387d92505050565b50505050505050565b60028301546040517ff724dad700000000000000000000000000000000000000000000000000000000815273ffffffffffffffffffffffffffffffffffffffff848116600483015260248201849052606092169063f724dad7906044015f60405180830381865afa1580156128d8573d5f803e3d5ffd5b505050506040513d5f823e601f3d9081017fffffffffffffffffffffffffffffffffffffffffffffffffffffffffffffffe01682016040526121b491908101906144c5565b5f8381526020858152604080832073ffffffffffffffffffffffffffffffffffffffff8616845290915290205460ff1615610829575f8381526020858152604080832073ffffffffffffffffffffffffffffffffffffffff8681168086529184529382902080547fffffffffffffffffffffffffffffffffffffffffffffffffffffffffffffff00169055815187815292830152918316918101919091527ff6391f5c32d9c69d2a47ea670b442974b53935d1edc7fd64eb21e047a839171b90606001611d64565b5f6129f18685876134c9565b9050815f5b818114612c2b575f858583818110612a1057612a1061422f565b602090810292909201355f818152928c90526040909220549192505073ffffffffffffffffffffffffffffffffffffffff8116612a7c576040517fdd56047500000000000000000000000000000000000000000000000000000000815260048101839052602401611219565b73ffffffffffffffffffffffffffffffffffffffff88168173ffffffffffffffffffffffffffffffffffffffff1614612b00576040517f14dbb53600000000000000000000000000000000000000000000000000000000815273ffffffffffffffffffffffffffffffffffffffff8916600482015260248101839052604401611219565b84612baf577401000000000000000000000000000000000000000081161580612b5157505f82815260028b01602052604090205473ffffffffffffffffffffffffffffffffffffffff8a8116911614155b15612baf576040517fa4a3018b00000000000000000000000000000000000000000000000000000000815273ffffffffffffffffffffffffffffffffffffffff808b1660048301528916602482015260448101839052606401611219565b5f82815260208b905260408082207fdead00000000000000000000000000000000000000000000000000000000000090555183919073ffffffffffffffffffffffffffffffffffffffff8b16907fddf252ad1be2c89b69c2b068fc378daa952ba7f163c4a11628f55a4df523b3ef908390a450506001016129f6565b5080156128585773ffffffffffffffffffffffffffffffffffffffff85165f90815260018801602052604090208054829003905550505050505050565b825473ffffffffffffffffffffffffffffffffffffffff9081169083168114612cd5576040517f2ef4875e00000000000000000000000000000000000000000000000000000000815273ffffffffffffffffffffffffffffffffffffffff84166004820152602401611219565b8173ffffffffffffffffffffffffffffffffffffffff168173ffffffffffffffffffffffffffffffffffffffff16146108295783547fffffffffffffffffffffffff00000000000000000000000000000000000000001673ffffffffffffffffffffffffffffffffffffffff8381169182178655604051908316907f8be0079c531659141344cd1fd0a4f28419497f9722a3daafe3b4186f6b6457e0905f90a350505050565b73ffffffffffffffffffffffffffffffffffffffff8316612dc8576040517f86c8706700000000000000000000000000000000000000000000000000000000815260040160405180910390fd5b5f612dd48786886134c9565b9050815f5b818114612ff2575f858583818110612df357612df361422f565b602090810292909201355f818152928d90526040909220549192505073ffffffffffffffffffffffffffffffffffffffff8116612e5f576040517fdd56047500000000000000000000000000000000000000000000000000000000815260048101839052602401611219565b73ffffffffffffffffffffffffffffffffffffffff89168173ffffffffffffffffffffffffffffffffffffffff1614612ee3576040517f14dbb53600000000000000000000000000000000000000000000000000000000815273ffffffffffffffffffffffffffffffffffffffff8a16600482015260248101839052604401611219565b84612f92577401000000000000000000000000000000000000000081161580612f3457505f82815260028c01602052604090205473ffffffffffffffffffffffffffffffffffffffff8b8116911614155b15612f92576040517fa4a3018b00000000000000000000000000000000000000000000000000000000815273ffffffffffffffffffffffffffffffffffffffff808c1660048301528a16602482015260448101839052606401611219565b5f82815260208c9052604080822073ffffffffffffffffffffffffffffffffffffffff808c16918290559151859391928d16917fddf252ad1be2c89b69c2b068fc378daa952ba7f163c4a11628f55a4df523b3ef91a45050600101612dd9565b508473ffffffffffffffffffffffffffffffffffffffff168673ffffffffffffffffffffffffffffffffffffffff161415801561302e57508015155b15610ab45773ffffffffffffffffffffffffffffffffffffffff8087165f90815260018a016020526040808220805485900390559187168152208054820190555050505050505050565b804710156130e2576040517f08c379a000000000000000000000000000000000000000000000000000000000815260206004820152601d60248201527f416464726573733a20696e73756666696369656e742062616c616e63650000006044820152606401611219565b5f8273ffffffffffffffffffffffffffffffffffffffff16826040515f6040518083038185875af1925050503d805f8114613138576040519150601f19603f3d011682016040523d82523d5f602084013e61313d565b606091505b505090508061087e576040517f08c379a000000000000000000000000000000000000000000000000000000000815260206004820152603a60248201527f416464726573733a20756e61626c6520746f2073656e642076616c75652c207260448201527f6563697069656e74206d617920686176652072657665727465640000000000006064820152608401611219565b6060815f0180546131de906142c9565b80601f016020809104026020016040519081016040528092919081815260200182805461320a906142c9565b80156132555780601f1061322c57610100808354040283529160200191613255565b820191905f5260205f20905b81548152906001019060200180831161323857829003601f168201915b50505050509050919050565b815473ffffffffffffffffffffffffffffffffffffffff16801580159061329e57505f8173ffffffffffffffffffffffffffffffffffffffff163b115b1561087e576040517fc617113400000000000000000000000000000000000000000000000000000000815230600482015273ffffffffffffffffffffffffffffffffffffffff838116602483015282169063c617113490604401602060405180830381865afa158015613313573d5f803e3d5ffd5b505050506040513d601f19601f820116820180604052508101906133379190614580565b61087e576040517fede71dcc00000000000000000000000000000000000000000000000000000000815273ffffffffffffffffffffffffffffffffffffffff83166004820152602401611219565b5f333214806133945750601836105b1561339e57503390565b7fffffffffffffffffffffffffffffffffffffffffffffffffffffffffffffffec36013560601c7f000000000000000000000000000000000000000000000000000000000000000073ffffffffffffffffffffffffffffffffffffffff163314806134b857506040517f8929a8ca00000000000000000000000000000000000000000000000000000000815273ffffffffffffffffffffffffffffffffffffffff82811660048301523360248301527f00000000000000000000000000000000000000000000000000000000000000001690638929a8ca90604401602060405180830381865afa158015613494573d5f803e3d5ffd5b505050506040513d601f19601f820116820180604052508101906134b89190614580565b156134c257919050565b3391505090565b5f8173ffffffffffffffffffffffffffffffffffffffff168373ffffffffffffffffffffffffffffffffffffffff1614806121b457505073ffffffffffffffffffffffffffffffffffffffff9182165f908152600393909301602090815260408085209290931684525290205460ff1690565b81548290828110613583576040517fbf0c18ec0000000000000000000000000000000000000000000000000000000081526004810182905260248101849052604401611219565b505550565b73ffffffffffffffffffffffffffffffffffffffff81161561360f5781547fffffffffffffffffffffffff00000000000000000000000000000000000000001673ffffffffffffffffffffffffffffffffffffffff821690811783556040515f907f8be0079c531659141344cd1fd0a4f28419497f9722a3daafe3b4186f6b6457e0908290a35b6106fe7f7f5828d00000000000000000000000000000000000000000000000000000000060016115c661107c565b7c01000000000000000000000000000000000000000000000000000000007fffffffff000000000000000000000000000000000000000000000000000000008316016136b5576040517f72c683bb00000000000000000000000000000000000000000000000000000000815260040160405180910390fd5b7fffffffff00000000000000000000000000000000000000000000000000000000919091165f908152602092909252604090912080547fffffffffffffffffffffffffffffffffffffffffffffffffffffffffffffff0016911515919091179055565b365f333214806137285750601836105b1561373557505f91369150565b3373ffffffffffffffffffffffffffffffffffffffff7f0000000000000000000000000000000000000000000000000000000000000000161480613868575073ffffffffffffffffffffffffffffffffffffffff7f000000000000000000000000000000000000000000000000000000000000000016638929a8ca367fffffffffffffffffffffffffffffffffffffffffffffffffffffffffffffffec013560601c6040517fffffffff0000000000000000000000000000000000000000000000000000000060e084901b16815273ffffffffffffffffffffffffffffffffffffffff9091166004820152336024820152604401602060405180830381865afa158015613844573d5f803e3d5ffd5b505050506040513d601f19601f820116820180604052508101906138689190614580565b156138755761088d613aad565b505f91369150565b6040517f150b7a02000000000000000000000000000000000000000000000000000000008082529073ffffffffffffffffffffffffffffffffffffffff85169063150b7a02906138d790899089908890889060040161459b565b6020604051808303815f875af11580156138f3573d5f803e3d5ffd5b505050506040513d601f19601f8201168201806040525081019061391791906145e3565b7fffffffff000000000000000000000000000000000000000000000000000000001614610fc0576040517fc215a7a100000000000000000000000000000000000000000000000000000000815273ffffffffffffffffffffffffffffffffffffffff8416600482015260248101839052604401611219565b5f6139f0826040518060400160405280602081526020017f5361666545524332303a206c6f772d6c6576656c2063616c6c206661696c65648152508573ffffffffffffffffffffffffffffffffffffffff16613add9092919063ffffffff16565b905080515f1480613a10575080806020019051810190613a109190614580565b61087e576040517f08c379a000000000000000000000000000000000000000000000000000000000815260206004820152602a60248201527f5361666545524332303a204552433230206f7065726174696f6e20646964206e60448201527f6f742073756363656564000000000000000000000000000000000000000000006064820152608401611219565b60608160010180546131de906142c9565b365f61088d7fffffffffffffffffffffffffffffffffffffffffffffffffffffffffffffffec83018284816145fe565b60606121b484845f85855f808673ffffffffffffffffffffffffffffffffffffffff168587604051613b0f9190614625565b5f6040518083038185875af1925050503d805f8114613b49576040519150601f19603f3d011682016040523d82523d5f602084013e613b4e565b606091505b5091509150613b5f87838387613b6a565b979650505050505050565b60608315613bff5782515f03613bf85773ffffffffffffffffffffffffffffffffffffffff85163b613bf8576040517f08c379a000000000000000000000000000000000000000000000000000000000815260206004820152601d60248201527f416464726573733a2063616c6c20746f206e6f6e2d636f6e74726163740000006044820152606401611219565b50816121b4565b6121b48383815115613c145781518083602001fd5b806040517f08c379a00000000000000000000000000000000000000000000000000000000081526004016112199190613cfb565b7fffffffff00000000000000000000000000000000000000000000000000000000811681146107ef575f80fd5b5f60208284031215613c85575f80fd5b8135610bfc81613c48565b5f5b83811015613caa578181015183820152602001613c92565b50505f910152565b5f8151808452613cc9816020860160208601613c90565b601f017fffffffffffffffffffffffffffffffffffffffffffffffffffffffffffffffe0169290920160200192915050565b602081525f610bfc6020830184613cb2565b5f60208284031215613d1d575f80fd5b5035919050565b73ffffffffffffffffffffffffffffffffffffffff811681146107ef575f80fd5b5f8060408385031215613d56575f80fd5b8235613d6181613d24565b946020939093013593505050565b5f8083601f840112613d7f575f80fd5b50813567ffffffffffffffff811115613d96575f80fd5b60208301915083602082850101111561084a575f80fd5b5f805f805f8060808789031215613dc2575f80fd5b863567ffffffffffffffff80821115613dd9575f80fd5b613de58a838b01613d6f565b90985096506020890135915080821115613dfd575f80fd5b50613e0a89828a01613d6f565b9095509350506040870135613e1e81613d24565b91506060870135613e2e81613d24565b809150509295509295509295565b5f60208284031215613e4c575f80fd5b8135610bfc81613d24565b5f805f60608486031215613e69575f80fd5b8335613e7481613d24565b92506020840135613e8481613d24565b929592945050506040919091013590565b5f8060408385031215613ea6575f80fd5b50508035926020909101359150565b5f8060408385031215613ec6575f80fd5b823591506020830135613ed881613d24565b809150509250929050565b60208152816020820152818360408301375f818301604090810191909152601f9092017fffffffffffffffffffffffffffffffffffffffffffffffffffffffffffffffe0160101919050565b5f8083601f840112613f3f575f80fd5b50813567ffffffffffffffff811115613f56575f80fd5b6020830191508360208260051b850101111561084a575f80fd5b5f805f60408486031215613f82575f80fd5b8335613f8d81613d24565b9250602084013567ffffffffffffffff811115613fa8575f80fd5b613fb486828701613f2f565b9497909650939450505050565b5f805f805f8060608789031215613fd6575f80fd5b863567ffffffffffffffff80821115613fed575f80fd5b613ff98a838b01613f2f565b90985096506020890135915080821115614011575f80fd5b61401d8a838b01613f2f565b90965094506040890135915080821115614035575f80fd5b5061404289828a01613f2f565b979a9699509497509295939492505050565b5f805f8060608587031215614067575f80fd5b843561407281613d24565b935060208501359250604085013567ffffffffffffffff811115614094575f80fd5b6140a087828801613d6f565b95989497509550505050565b5f805f80604085870312156140bf575f80fd5b843567ffffffffffffffff808211156140d6575f80fd5b6140e288838901613f2f565b909650945060208701359150808211156140fa575f80fd5b506140a087828801613f2f565b80151581146107ef575f80fd5b5f8060408385031215614125575f80fd5b823561413081613d24565b91506020830135613ed881614107565b5f805f805f60808688031215614154575f80fd5b853561415f81613d24565b9450602086013561416f81613d24565b935060408601359250606086013567ffffffffffffffff811115614191575f80fd5b61419d88828901613d6f565b969995985093965092949392505050565b5f80604083850312156141bf575f80fd5b82356141ca81613d24565b91506020830135613ed881613d24565b5f805f80606085870312156141ed575f80fd5b84356141f881613d24565b9350602085013561420881613d24565b9250604085013567ffffffffffffffff811115614223575f80fd5b6140a087828801613f2f565b7f4e487b71000000000000000000000000000000000000000000000000000000005f52603260045260245ffd5b7f4e487b71000000000000000000000000000000000000000000000000000000005f52601160045260245ffd5b8181038181111561068b5761068b61425c565b7f4e487b71000000000000000000000000000000000000000000000000000000005f52604160045260245ffd5b600181811c908216806142dd57607f821691505b602082108103614314577f4e487b71000000000000000000000000000000000000000000000000000000005f52602260045260245ffd5b50919050565b601f82111561087e575f81815260208120601f850160051c810160208610156143405750805b601f850160051c820191505b8181101561077f5782815560010161434c565b67ffffffffffffffff8311156143775761437761429c565b61438b8361438583546142c9565b8361431a565b5f601f8411600181146143db575f85156143a55750838201355b7fffffffffffffffffffffffffffffffffffffffffffffffffffffffffffffffff600387901b1c1916600186901b178355610fc0565b5f838152602090207fffffffffffffffffffffffffffffffffffffffffffffffffffffffffffffffe0861690835b828110156144295786850135825560209485019460019092019101614409565b5086821015614464577fffffffffffffffffffffffffffffffffffffffffffffffffffffffffffffffff60f88860031b161c19848701351681555b505060018560011b0183555050505050565b808202811582820484141761068b5761068b61425c565b5f826144c0577f4e487b71000000000000000000000000000000000000000000000000000000005f52601260045260245ffd5b500490565b5f602082840312156144d5575f80fd5b815167ffffffffffffffff808211156144ec575f80fd5b818401915084601f8301126144ff575f80fd5b8151818111156145115761451161429c565b604051601f82017fffffffffffffffffffffffffffffffffffffffffffffffffffffffffffffffe0908116603f011681019083821181831017156145575761455761429c565b8160405282815287602084870101111561456f575f80fd5b613b5f836020830160208801613c90565b5f60208284031215614590575f80fd5b8151610bfc81614107565b5f73ffffffffffffffffffffffffffffffffffffffff8087168352808616602084015250836040830152608060608301526145d96080830184613cb2565b9695505050505050565b5f602082840312156145f3575f80fd5b8151610bfc81613c48565b5f808585111561460c575f80fd5b83861115614618575f80fd5b5050820193919092039150565b5f8251614636818460208701613c90565b919091019291505056fea2646970667358221220a62caf1af1863e28565cf6af3eaf58d1459bb71c6c1fb15104bb76dfa5e7c98764736f6c63430008150033",
  "linkReferences": {},
  "deployedLinkReferences": {}
}