{
  "_format": "hh-sol-artifact-1",
  "contractName": "ERC721FullBurnProxiedMock",
  "sourceName": "contracts/mocks/token/ERC721/preset/proxied/ERC721FullBurnProxiedMock.sol",
  "abi": [
    {
      "inputs": [
        {
          "internalType": "contract IForwarderRegistry",
          "name": "forwarderRegistry",
          "type": "address"
        }
      ],
      "stateMutability": "nonpayable",
      "type": "constructor"
    },
    {
      "inputs": [
        {
          "internalType": "uint256",
          "name": "percentage",
          "type": "uint256"
        }
      ],
      "name": "ERC2981IncorrectRoyaltyPercentage",
      "type": "error"
    },
    {
      "inputs": [],
      "name": "ERC2981IncorrectRoyaltyReceiver",
      "type": "error"
    },
    {
      "inputs": [],
      "name": "ERC721BalanceOfAddressZero",
      "type": "error"
    },
    {
      "inputs": [
        {
          "internalType": "uint256",
          "name": "tokenId",
          "type": "uint256"
        }
      ],
      "name": "ERC721ExistingToken",
      "type": "error"
    },
    {
      "inputs": [],
      "name": "ERC721MintToAddressZero",
      "type": "error"
    },
    {
      "inputs": [
        {
          "internalType": "address",
          "name": "sender",
          "type": "address"
        },
        {
          "internalType": "address",
          "name": "owner",
          "type": "address"
        },
        {
          "internalType": "uint256",
          "name": "tokenId",
          "type": "uint256"
        }
      ],
      "name": "ERC721NonApprovedForApproval",
      "type": "error"
    },
    {
      "inputs": [
        {
          "internalType": "address",
          "name": "sender",
          "type": "address"
        },
        {
          "internalType": "address",
          "name": "owner",
          "type": "address"
        },
        {
          "internalType": "uint256",
          "name": "tokenId",
          "type": "uint256"
        }
      ],
      "name": "ERC721NonApprovedForTransfer",
      "type": "error"
    },
    {
      "inputs": [
        {
          "internalType": "uint256",
          "name": "tokenId",
          "type": "uint256"
        }
      ],
      "name": "ERC721NonExistingToken",
      "type": "error"
    },
    {
      "inputs": [
        {
          "internalType": "address",
          "name": "account",
          "type": "address"
        },
        {
          "internalType": "uint256",
          "name": "tokenId",
          "type": "uint256"
        }
      ],
      "name": "ERC721NonOwnedToken",
      "type": "error"
    },
    {
      "inputs": [
        {
          "internalType": "address",
          "name": "recipient",
          "type": "address"
        },
        {
          "internalType": "uint256",
          "name": "tokenId",
          "type": "uint256"
        }
      ],
      "name": "ERC721SafeTransferRejected",
      "type": "error"
    },
    {
      "inputs": [
        {
          "internalType": "address",
          "name": "account",
          "type": "address"
        }
      ],
      "name": "ERC721SelfApproval",
      "type": "error"
    },
    {
      "inputs": [
        {
          "internalType": "address",
          "name": "account",
          "type": "address"
        }
      ],
      "name": "ERC721SelfApprovalForAll",
      "type": "error"
    },
    {
      "inputs": [],
      "name": "ERC721TransferToAddressZero",
      "type": "error"
    },
    {
      "inputs": [],
      "name": "IllegalInterfaceId",
      "type": "error"
    },
    {
      "inputs": [],
      "name": "InconsistentArrayLengths",
      "type": "error"
    },
    {
      "inputs": [
        {
          "internalType": "address",
          "name": "tokenContract",
          "type": "address"
        }
      ],
      "name": "IncorrectTokenContractType",
      "type": "error"
    },
    {
      "inputs": [
        {
          "internalType": "uint256",
          "name": "currentPhase",
          "type": "uint256"
        },
        {
          "internalType": "uint256",
          "name": "newPhase",
          "type": "uint256"
        }
      ],
      "name": "InitializationPhaseAlreadyReached",
      "type": "error"
    },
    {
      "inputs": [
        {
          "internalType": "address",
          "name": "account",
          "type": "address"
        }
      ],
      "name": "NotContractOwner",
      "type": "error"
    },
    {
      "inputs": [
        {
          "internalType": "bytes32",
          "name": "role",
          "type": "bytes32"
        },
        {
          "internalType": "address",
          "name": "account",
          "type": "address"
        }
      ],
      "name": "NotRoleHolder",
      "type": "error"
    },
    {
      "anonymous": false,
      "inputs": [
        {
          "indexed": true,
          "internalType": "address",
          "name": "owner",
          "type": "address"
        },
        {
          "indexed": true,
          "internalType": "address",
          "name": "approved",
          "type": "address"
        },
        {
          "indexed": true,
          "internalType": "uint256",
          "name": "tokenId",
          "type": "uint256"
        }
      ],
      "name": "Approval",
      "type": "event"
    },
    {
      "anonymous": false,
      "inputs": [
        {
          "indexed": true,
          "internalType": "address",
          "name": "owner",
          "type": "address"
        },
        {
          "indexed": true,
          "internalType": "address",
          "name": "operator",
          "type": "address"
        },
        {
          "indexed": false,
          "internalType": "bool",
          "name": "approved",
          "type": "bool"
        }
      ],
      "name": "ApprovalForAll",
      "type": "event"
    },
    {
      "anonymous": false,
      "inputs": [
        {
          "indexed": true,
          "internalType": "address",
          "name": "previousOwner",
          "type": "address"
        },
        {
          "indexed": true,
          "internalType": "address",
          "name": "newOwner",
          "type": "address"
        }
      ],
      "name": "OwnershipTransferred",
      "type": "event"
    },
    {
      "anonymous": false,
      "inputs": [
        {
          "indexed": false,
          "internalType": "bytes32",
          "name": "role",
          "type": "bytes32"
        },
        {
          "indexed": false,
          "internalType": "address",
          "name": "account",
          "type": "address"
        },
        {
          "indexed": false,
          "internalType": "address",
          "name": "operator",
          "type": "address"
        }
      ],
      "name": "RoleGranted",
      "type": "event"
    },
    {
      "anonymous": false,
      "inputs": [
        {
          "indexed": false,
          "internalType": "bytes32",
          "name": "role",
          "type": "bytes32"
        },
        {
          "indexed": false,
          "internalType": "address",
          "name": "account",
          "type": "address"
        },
        {
          "indexed": false,
          "internalType": "address",
          "name": "operator",
          "type": "address"
        }
      ],
      "name": "RoleRevoked",
      "type": "event"
    },
    {
      "anonymous": false,
      "inputs": [
        {
          "indexed": true,
          "internalType": "address",
          "name": "from",
          "type": "address"
        },
        {
          "indexed": true,
          "internalType": "address",
          "name": "to",
          "type": "address"
        },
        {
          "indexed": true,
          "internalType": "uint256",
          "name": "tokenId",
          "type": "uint256"
        }
      ],
      "name": "Transfer",
      "type": "event"
    },
    {
      "inputs": [],
      "name": "MINTER_ROLE",
      "outputs": [
        {
          "internalType": "bytes32",
          "name": "",
          "type": "bytes32"
        }
      ],
      "stateMutability": "view",
      "type": "function"
    },
    {
      "inputs": [],
      "name": "ROYALTY_FEE_DENOMINATOR",
      "outputs": [
        {
          "internalType": "uint256",
          "name": "",
          "type": "uint256"
        }
      ],
      "stateMutability": "view",
      "type": "function"
    },
    {
      "inputs": [],
      "name": "__msgData",
      "outputs": [
        {
          "internalType": "bytes",
          "name": "",
          "type": "bytes"
        }
      ],
      "stateMutability": "view",
      "type": "function"
    },
    {
      "inputs": [
        {
          "internalType": "address",
          "name": "to",
          "type": "address"
        },
        {
          "internalType": "uint256",
          "name": "tokenId",
          "type": "uint256"
        }
      ],
      "name": "approve",
      "outputs": [],
      "stateMutability": "nonpayable",
      "type": "function"
    },
    {
      "inputs": [
        {
          "internalType": "address",
          "name": "owner",
          "type": "address"
        }
      ],
      "name": "balanceOf",
      "outputs": [
        {
          "internalType": "uint256",
          "name": "balance",
          "type": "uint256"
        }
      ],
      "stateMutability": "view",
      "type": "function"
    },
    {
      "inputs": [
        {
          "internalType": "address",
          "name": "from",
          "type": "address"
        },
        {
          "internalType": "uint256[]",
          "name": "tokenIds",
          "type": "uint256[]"
        }
      ],
      "name": "batchBurnFrom",
      "outputs": [],
      "stateMutability": "nonpayable",
      "type": "function"
    },
    {
      "inputs": [
        {
          "internalType": "address",
          "name": "to",
          "type": "address"
        },
        {
          "internalType": "uint256[]",
          "name": "tokenIds",
          "type": "uint256[]"
        }
      ],
      "name": "batchMint",
      "outputs": [],
      "stateMutability": "nonpayable",
      "type": "function"
    },
    {
      "inputs": [
        {
          "internalType": "address",
          "name": "from",
          "type": "address"
        },
        {
          "internalType": "address",
          "name": "to",
          "type": "address"
        },
        {
          "internalType": "uint256[]",
          "name": "tokenIds",
          "type": "uint256[]"
        }
      ],
      "name": "batchTransferFrom",
      "outputs": [],
      "stateMutability": "nonpayable",
      "type": "function"
    },
    {
      "inputs": [
        {
          "internalType": "address",
          "name": "from",
          "type": "address"
        },
        {
          "internalType": "uint256",
          "name": "tokenId",
          "type": "uint256"
        }
      ],
      "name": "burnFrom",
      "outputs": [],
      "stateMutability": "nonpayable",
      "type": "function"
    },
    {
      "inputs": [
        {
          "internalType": "address[]",
          "name": "recipients",
          "type": "address[]"
        },
        {
          "internalType": "uint256[]",
          "name": "tokenIds",
          "type": "uint256[]"
        }
      ],
      "name": "deliver",
      "outputs": [],
      "stateMutability": "nonpayable",
      "type": "function"
    },
    {
      "inputs": [],
      "name": "forwarderRegistry",
      "outputs": [
        {
          "internalType": "contract IForwarderRegistry",
          "name": "",
          "type": "address"
        }
      ],
      "stateMutability": "view",
      "type": "function"
    },
    {
      "inputs": [
        {
          "internalType": "uint256",
          "name": "tokenId",
          "type": "uint256"
        }
      ],
      "name": "getApproved",
      "outputs": [
        {
          "internalType": "address",
          "name": "approved",
          "type": "address"
        }
      ],
      "stateMutability": "view",
      "type": "function"
    },
    {
      "inputs": [
        {
          "internalType": "bytes32",
          "name": "role",
          "type": "bytes32"
        },
        {
          "internalType": "address",
          "name": "account",
          "type": "address"
        }
      ],
      "name": "grantRole",
      "outputs": [],
      "stateMutability": "nonpayable",
      "type": "function"
    },
    {
      "inputs": [
        {
          "internalType": "bytes32",
          "name": "role",
          "type": "bytes32"
        },
        {
          "internalType": "address",
          "name": "account",
          "type": "address"
        }
      ],
      "name": "hasRole",
      "outputs": [
        {
          "internalType": "bool",
          "name": "hasRole_",
          "type": "bool"
        }
      ],
      "stateMutability": "view",
      "type": "function"
    },
    {
      "inputs": [
        {
          "internalType": "string",
          "name": "tokenName",
          "type": "string"
        },
        {
          "internalType": "string",
          "name": "tokenSymbol",
          "type": "string"
        },
        {
          "internalType": "contract ITokenMetadataResolver",
          "name": "metadataResolver",
          "type": "address"
        }
      ],
      "name": "init",
      "outputs": [],
      "stateMutability": "nonpayable",
      "type": "function"
    },
    {
      "inputs": [
        {
          "internalType": "address",
          "name": "owner",
          "type": "address"
        },
        {
          "internalType": "address",
          "name": "operator",
          "type": "address"
        }
      ],
      "name": "isApprovedForAll",
      "outputs": [
        {
          "internalType": "bool",
          "name": "approvedForAll",
          "type": "bool"
        }
      ],
      "stateMutability": "view",
      "type": "function"
    },
    {
      "inputs": [
        {
          "internalType": "address",
          "name": "forwarder",
          "type": "address"
        }
      ],
      "name": "isTrustedForwarder",
      "outputs": [
        {
          "internalType": "bool",
          "name": "",
          "type": "bool"
        }
      ],
      "stateMutability": "view",
      "type": "function"
    },
    {
      "inputs": [],
      "name": "metadataResolver",
      "outputs": [
        {
          "internalType": "contract ITokenMetadataResolver",
          "name": "tokenMetadataResolver",
          "type": "address"
        }
      ],
      "stateMutability": "view",
      "type": "function"
    },
    {
      "inputs": [
        {
          "internalType": "address",
          "name": "to",
          "type": "address"
        },
        {
          "internalType": "uint256",
          "name": "tokenId",
          "type": "uint256"
        }
      ],
      "name": "mint",
      "outputs": [],
      "stateMutability": "nonpayable",
      "type": "function"
    },
    {
      "inputs": [],
      "name": "name",
      "outputs": [
        {
          "internalType": "string",
          "name": "tokenName",
          "type": "string"
        }
      ],
      "stateMutability": "view",
      "type": "function"
    },
    {
      "inputs": [],
      "name": "owner",
      "outputs": [
        {
          "internalType": "address",
          "name": "",
          "type": "address"
        }
      ],
      "stateMutability": "view",
      "type": "function"
    },
    {
      "inputs": [
        {
          "internalType": "uint256",
          "name": "tokenId",
          "type": "uint256"
        }
      ],
      "name": "ownerOf",
      "outputs": [
        {
          "internalType": "address",
          "name": "tokenOwner",
          "type": "address"
        }
      ],
      "stateMutability": "view",
      "type": "function"
    },
    {
      "inputs": [
        {
          "internalType": "address[]",
          "name": "accounts",
          "type": "address[]"
        },
        {
          "internalType": "contract IERC20[]",
          "name": "tokens",
          "type": "address[]"
        },
        {
          "internalType": "uint256[]",
          "name": "amounts",
          "type": "uint256[]"
        }
      ],
      "name": "recoverERC20s",
      "outputs": [],
      "stateMutability": "nonpayable",
      "type": "function"
    },
    {
      "inputs": [
        {
          "internalType": "address[]",
          "name": "accounts",
          "type": "address[]"
        },
        {
          "internalType": "contract IERC721[]",
          "name": "contracts",
          "type": "address[]"
        },
        {
          "internalType": "uint256[]",
          "name": "tokenIds",
          "type": "uint256[]"
        }
      ],
      "name": "recoverERC721s",
      "outputs": [],
      "stateMutability": "nonpayable",
      "type": "function"
    },
    {
      "inputs": [
        {
          "internalType": "address payable[]",
          "name": "accounts",
          "type": "address[]"
        },
        {
          "internalType": "uint256[]",
          "name": "amounts",
          "type": "uint256[]"
        }
      ],
      "name": "recoverETH",
      "outputs": [],
      "stateMutability": "nonpayable",
      "type": "function"
    },
    {
      "inputs": [
        {
          "internalType": "bytes32",
          "name": "role",
          "type": "bytes32"
        }
      ],
      "name": "renounceRole",
      "outputs": [],
      "stateMutability": "nonpayable",
      "type": "function"
    },
    {
      "inputs": [
        {
          "internalType": "bytes32",
          "name": "role",
          "type": "bytes32"
        },
        {
          "internalType": "address",
          "name": "account",
          "type": "address"
        }
      ],
      "name": "revokeRole",
      "outputs": [],
      "stateMutability": "nonpayable",
      "type": "function"
    },
    {
      "inputs": [
        {
          "internalType": "uint256",
          "name": "tokenId",
          "type": "uint256"
        },
        {
          "internalType": "uint256",
          "name": "salePrice",
          "type": "uint256"
        }
      ],
      "name": "royaltyInfo",
      "outputs": [
        {
          "internalType": "address",
          "name": "receiver",
          "type": "address"
        },
        {
          "internalType": "uint256",
          "name": "royaltyAmount",
          "type": "uint256"
        }
      ],
      "stateMutability": "view",
      "type": "function"
    },
    {
      "inputs": [
        {
          "internalType": "address",
          "name": "to",
          "type": "address"
        },
        {
          "internalType": "uint256",
          "name": "tokenId",
          "type": "uint256"
        },
        {
          "internalType": "bytes",
          "name": "data",
          "type": "bytes"
        }
      ],
      "name": "safeMint",
      "outputs": [],
      "stateMutability": "nonpayable",
      "type": "function"
    },
    {
      "inputs": [
        {
          "internalType": "address",
          "name": "from",
          "type": "address"
        },
        {
          "internalType": "address",
          "name": "to",
          "type": "address"
        },
        {
          "internalType": "uint256",
          "name": "tokenId",
          "type": "uint256"
        }
      ],
      "name": "safeTransferFrom",
      "outputs": [],
      "stateMutability": "nonpayable",
      "type": "function"
    },
    {
      "inputs": [
        {
          "internalType": "address",
          "name": "from",
          "type": "address"
        },
        {
          "internalType": "address",
          "name": "to",
          "type": "address"
        },
        {
          "internalType": "uint256",
          "name": "tokenId",
          "type": "uint256"
        },
        {
          "internalType": "bytes",
          "name": "data",
          "type": "bytes"
        }
      ],
      "name": "safeTransferFrom",
      "outputs": [],
      "stateMutability": "nonpayable",
      "type": "function"
    },
    {
      "inputs": [
        {
          "internalType": "address",
          "name": "operator",
          "type": "address"
        },
        {
          "internalType": "bool",
          "name": "approved",
          "type": "bool"
        }
      ],
      "name": "setApprovalForAll",
      "outputs": [],
      "stateMutability": "nonpayable",
      "type": "function"
    },
    {
      "inputs": [
        {
          "internalType": "uint256",
          "name": "percentage",
          "type": "uint256"
        }
      ],
      "name": "setRoyaltyPercentage",
      "outputs": [],
      "stateMutability": "nonpayable",
      "type": "function"
    },
    {
      "inputs": [
        {
          "internalType": "address",
          "name": "receiver",
          "type": "address"
        }
      ],
      "name": "setRoyaltyReceiver",
      "outputs": [],
      "stateMutability": "nonpayable",
      "type": "function"
    },
    {
      "inputs": [
        {
          "internalType": "bytes4",
          "name": "interfaceId",
          "type": "bytes4"
        }
      ],
      "name": "supportsInterface",
      "outputs": [
        {
          "internalType": "bool",
          "name": "",
          "type": "bool"
        }
      ],
      "stateMutability": "view",
      "type": "function"
    },
    {
      "inputs": [],
      "name": "symbol",
      "outputs": [
        {
          "internalType": "string",
          "name": "tokenSymbol",
          "type": "string"
        }
      ],
      "stateMutability": "view",
      "type": "function"
    },
    {
      "inputs": [
        {
          "internalType": "uint256",
          "name": "tokenId",
          "type": "uint256"
        }
      ],
      "name": "tokenURI",
      "outputs": [
        {
          "internalType": "string",
          "name": "uri",
          "type": "string"
        }
      ],
      "stateMutability": "view",
      "type": "function"
    },
    {
      "inputs": [
        {
          "internalType": "address",
          "name": "from",
          "type": "address"
        },
        {
          "internalType": "address",
          "name": "to",
          "type": "address"
        },
        {
          "internalType": "uint256",
          "name": "tokenId",
          "type": "uint256"
        }
      ],
      "name": "transferFrom",
      "outputs": [],
      "stateMutability": "nonpayable",
      "type": "function"
    },
    {
      "inputs": [
        {
          "internalType": "address",
          "name": "newOwner",
          "type": "address"
        }
      ],
      "name": "transferOwnership",
      "outputs": [],
      "stateMutability": "nonpayable",
      "type": "function"
    }
  ],
  "bytecode": "0x60a06040523480156200001157600080fd5b506040516200463738038062004637833981016040819052620000349162000046565b6001600160a01b031660805262000078565b6000602082840312156200005957600080fd5b81516001600160a01b03811681146200007157600080fd5b9392505050565b608051614580620000b7600039600081816103900152818161042601528181613266015281816132ee01528181613416015261345401526145806000f3fe608060405234801561001057600080fd5b50600436106102ad5760003560e01c80638832e6e31161017b578063c3666c36116100d8578063e985e9c51161008c578063f2fde38b11610071578063f2fde38b14610610578063f3993d1114610623578063f7ba94bd1461063657600080fd5b8063e985e9c5146105ea578063f2472965146105fd57600080fd5b8063d5391393116100bd578063d5391393146105a6578063d547741f146105cd578063e1a8bf2c146105e057600080fd5b8063c3666c3614610580578063c87b56dd1461059357600080fd5b806395d89b411161012f578063a0c76f6211610114578063a0c76f6214610552578063a22cb4651461055a578063b88d4fde1461056d57600080fd5b806395d89b41146105375780639da5e8321461053f57600080fd5b80638da5cb5b116101605780638da5cb5b146105095780638dc251e31461051157806391d148541461052457600080fd5b80638832e6e3146104e35780638bb9c5bf146104f657600080fd5b806340c10f19116102295780636352211e116101dd57806370a08231116101c257806370a082311461049c57806373c8a958146104bd57806379cc6790146104d057600080fd5b80636352211e146104765780636ee5741a1461048957600080fd5b80634684d7e91161020e5780634684d7e914610403578063572b6c051461041657806361ba27da1461046357600080fd5b806340c10f19146103dd57806342842e0e146103f057600080fd5b806323b872dd116102805780632b4c9f16116102655780632b4c9f161461038e5780632f2ff15d146103b457806331e66e1e146103c757600080fd5b806323b872dd1461033c5780632a55205a1461034f57600080fd5b806301ffc9a7146102b257806306fdde03146102da578063081812fc146102ef578063095ea7b314610327575b600080fd5b6102c56102c0366004613b2c565b610649565b60405190151581526020015b60405180910390f35b6102e2610663565b6040516102d19190613bb7565b6103026102fd366004613bca565b610672565b60405173ffffffffffffffffffffffffffffffffffffffff90911681526020016102d1565b61033a610335366004613c05565b610686565b005b61033a61034a366004613c31565b6106a7565b61036261035d366004613c72565b6106cb565b6040805173ffffffffffffffffffffffffffffffffffffffff90931683526020830191909152016102d1565b7f0000000000000000000000000000000000000000000000000000000000000000610302565b61033a6103c2366004613c94565b6106ee565b6103cf610722565b6040516102d1929190613cc4565b61033a6103eb366004613c05565b610735565b61033a6103fe366004613c31565b610784565b61033a610411366004613d56565b6107a3565b6102c5610424366004613dab565b7f000000000000000000000000000000000000000000000000000000000000000073ffffffffffffffffffffffffffffffffffffffff90811691161490565b61033a610471366004613bca565b610817565b610302610484366004613bca565b61083f565b61033a610497366004613e0a565b610853565b6104af6104aa366004613dab565b6108c5565b6040519081526020016102d1565b61033a6104cb366004613e8e565b6108d9565b61033a6104de366004613c05565b6109cf565b61033a6104f1366004613f28565b6109ec565b61033a610504366004613bca565b610a74565b610302610a8f565b61033a61051f366004613dab565b610ab6565b6102c5610532366004613c94565b610ad3565b6102e2610b1e565b61033a61054d366004613f84565b610b28565b610302610bcc565b61033a610568366004613ff2565b610bf6565b61033a61057b366004614020565b610c13565b61033a61058e366004613e8e565b610c36565b6102e26105a1366004613bca565b610edc565b6104af7f6d696e746572000000000000000000000000000000000000000000000000000081565b61033a6105db366004613c94565b610eff565b6104af620186a081565b6102c56105f8366004614093565b610f2d565b61033a61060b366004613d56565b610f7b565b61033a61061e366004613dab565b610f9a565b61033a6106313660046140c1565b610fb5565b61033a610644366004613f84565b610fd6565b600061065d82610657611095565b906110c3565b92915050565b606061066d61119d565b905090565b600061065d826106806111af565b906111dd565b6106a3610691611291565b838361069b6111af565b92919061129b565b5050565b6106c66106b2611291565b8484846106bd6111af565b93929190611516565b505050565b6000806106e284846106db6117f4565b9190611822565b915091505b9250929050565b60006106f8611291565b905061070c816107066118cc565b906118fa565b6106c683838361071a611965565b929190611993565b36600061072d611a69565b915091509091565b6107707f6d696e7465720000000000000000000000000000000000000000000000000000610761611291565b610769611965565b9190611a74565b6106a3828261077d6111af565b9190611afa565b6106c661078f611291565b84848461079a6111af565b93929190611c14565b6107cf7f6d696e7465720000000000000000000000000000000000000000000000000000610761611291565b6106c68383838080602002602001604051908101604052809392919081815260200183836020028082843760009201919091525061081092506111af915050565b9190611c5a565b61082a610822611291565b6107066118cc565b61083c816108366117f4565b90611dd2565b50565b600061065d8261084d6111af565b90611e58565b61086c61085e611291565b6108666118cc565b90611ec1565b610874611f00565b61087c611f37565b610884611f65565b61088c611f93565b610894611fc1565b61089c611fef565b6108a461201d565b6108be85858585856108b461204b565b9493929190612079565b5050505050565b600061065d826108d36111af565b90612113565b6108e4610822611291565b8483811415806108f45750808214155b1561092b576040517f6582533600000000000000000000000000000000000000000000000000000000815260040160405180910390fd5b60005b818110156109c5576109bd88888381811061094b5761094b61411a565b90506020020160208101906109609190613dab565b8585848181106109725761097261411a565b9050602002013588888581811061098b5761098b61411a565b90506020020160208101906109a09190613dab565b73ffffffffffffffffffffffffffffffffffffffff16919061218f565b60010161092e565b5050505050505050565b6106a36109da611291565b83836109e46111af565b92919061221c565b610a187f6d696e7465720000000000000000000000000000000000000000000000000000610761611291565b610a6e610a23611291565b858585858080601f016020809104026020016040519081016040528093929190818152602001838380828437600092019190915250610a6592506111af915050565b93929190612466565b50505050565b61083c610a7f611291565b82610a88611965565b919061249c565b600061066d610a9c6118cc565b5473ffffffffffffffffffffffffffffffffffffffff1690565b610ac1610822611291565b61083c81610acd6117f4565b90612540565b6000610b178383610ae2611965565b60009283526020908152604080842073ffffffffffffffffffffffffffffffffffffffff909316845291905290205460ff1690565b9392505050565b606061066d6125cf565b610b547f6d696e7465720000000000000000000000000000000000000000000000000000610761611291565b610a6e84848080602002602001604051908101604052809392919081815260200183836020028082843760009201919091525050604080516020808802828101820190935287825290935087925086918291850190849080828437600092019190915250610bc592506111af915050565b91906125e1565b600061066d610bd961204b565b6002015473ffffffffffffffffffffffffffffffffffffffff1690565b6106a3610c01611291565b8383610c0b6111af565b929190612677565b6108be610c1e611291565b8686868686610c2b6111af565b95949392919061278f565b610c41610822611291565b848381141580610c515750808214155b15610c88576040517f6582533600000000000000000000000000000000000000000000000000000000815260040160405180910390fd5b60005b818110156109c5576000868683818110610ca757610ca761411a565b9050602002016020810190610cbc9190613dab565b6040517f01ffc9a70000000000000000000000000000000000000000000000000000000081527f80ac58cd00000000000000000000000000000000000000000000000000000000600482015290915073ffffffffffffffffffffffffffffffffffffffff8216906301ffc9a790602401602060405180830381865afa158015610d49573d6000803e3d6000fd5b505050506040513d601f19601f82011682018060405250810190610d6d9190614149565b610dc0576040517f986b9f1f00000000000000000000000000000000000000000000000000000000815273ffffffffffffffffffffffffffffffffffffffff821660048201526024015b60405180910390fd5b868683818110610dd257610dd261411a565b9050602002016020810190610de79190613dab565b73ffffffffffffffffffffffffffffffffffffffff166342842e0e308b8b86818110610e1557610e1561411a565b9050602002016020810190610e2a9190613dab565b888887818110610e3c57610e3c61411a565b6040517fffffffff0000000000000000000000000000000000000000000000000000000060e088901b16815273ffffffffffffffffffffffffffffffffffffffff958616600482015294909316602485015250602090910201356044820152606401600060405180830381600087803b158015610eb857600080fd5b505af1158015610ecc573d6000803e3d6000fd5b5050505050806001019050610c8b565b6060610eea8261084d6111af565b5061065d3083610ef861204b565b9190612805565b6000610f09611291565b9050610f17816107066118cc565b6106c6838383610f25611965565b9291906128c5565b6000610b178383610f3c6111af565b919073ffffffffffffffffffffffffffffffffffffffff9182166000908152600393909301602090815260408085209290931684525290205460ff1690565b6106c6610f86611291565b848484610f916111af565b9392919061298f565b61083c610fa5611291565b82610fae6118cc565b9190612c1a565b610a6e610fc0611291565b85858585610fcc6111af565b9493929190612d2e565b610fe1610822611291565b8281811461101b576040517f6582533600000000000000000000000000000000000000000000000000000000815260040160405180910390fd5b60005b8181101561108d5761108584848381811061103b5761103b61411a565b905060200201358787848181106110545761105461411a565b90506020020160208101906110699190613dab565b73ffffffffffffffffffffffffffffffffffffffff1690613033565b60010161101e565b505050505050565b60008061065d60017fca9d3e17f264b0f3984e2634e94adb37fa3e6a8103f06aeae6fa59e21c769f5e614195565b60007c01000000000000000000000000000000000000000000000000000000007fffffffff000000000000000000000000000000000000000000000000000000008316016111135750600061065d565b7ffe003659000000000000000000000000000000000000000000000000000000007fffffffff000000000000000000000000000000000000000000000000000000008316016111645750600161065d565b507fffffffff00000000000000000000000000000000000000000000000000000000166000908152602091909152604090205460ff1690565b606061066d6111aa61204b565b61318d565b60008061065d60017fddf3ee18ae6d688373c219468f8be446e7ae82215f4779d821c7ea5e8c13c0c1614195565b60008181526020839052604081205473ffffffffffffffffffffffffffffffffffffffff811661123c576040517fdd56047500000000000000000000000000000000000000000000000000000000815260048101849052602401610db7565b74010000000000000000000000000000000000000000811615611287575050600081815260028301602052604090205473ffffffffffffffffffffffffffffffffffffffff1661065d565b600091505061065d565b600061066d613223565b60008181526020859052604090205473ffffffffffffffffffffffffffffffffffffffff81166112fa576040517fdd56047500000000000000000000000000000000000000000000000000000000815260048101839052602401610db7565b8073ffffffffffffffffffffffffffffffffffffffff80821690851603611365576040517fb7fdc01000000000000000000000000000000000000000000000000000000000815273ffffffffffffffffffffffffffffffffffffffff82166004820152602401610db7565b61137086828761336a565b6113cd576040517fc7563a1800000000000000000000000000000000000000000000000000000000815273ffffffffffffffffffffffffffffffffffffffff80871660048301528216602482015260448101849052606401610db7565b73ffffffffffffffffffffffffffffffffffffffff8416611432577401000000000000000000000000000000000000000082161561142d57600083815260208790526040902073ffffffffffffffffffffffffffffffffffffffff821690555b6114b3565b7401000000000000000000000000000000000000000082178083146114635760008481526020889052604090208190555b506000838152600287016020526040902080547fffffffffffffffffffffffff00000000000000000000000000000000000000001673ffffffffffffffffffffffffffffffffffffffff86161790555b828473ffffffffffffffffffffffffffffffffffffffff168273ffffffffffffffffffffffffffffffffffffffff167f8c5be1e5ebec7d5bd14f71427d1e84f3dd0314c0f7b2291e5b200ac8c7c3b92560405160405180910390a4505050505050565b73ffffffffffffffffffffffffffffffffffffffff8216611563576040517f86c8706700000000000000000000000000000000000000000000000000000000815260040160405180910390fd5b60008181526020869052604090205473ffffffffffffffffffffffffffffffffffffffff81166115c2576040517fdd56047500000000000000000000000000000000000000000000000000000000815260048101839052602401610db7565b73ffffffffffffffffffffffffffffffffffffffff84168173ffffffffffffffffffffffffffffffffffffffff1614611646576040517f14dbb53600000000000000000000000000000000000000000000000000000000815273ffffffffffffffffffffffffffffffffffffffff8516600482015260248101839052604401610db7565b61165186858761336a565b6117005774010000000000000000000000000000000000000000811615806116a25750600082815260028701602052604090205473ffffffffffffffffffffffffffffffffffffffff868116911614155b15611700576040517fa4a3018b00000000000000000000000000000000000000000000000000000000815273ffffffffffffffffffffffffffffffffffffffff80871660048301528516602482015260448101839052606401610db7565b600082815260208790526040902073ffffffffffffffffffffffffffffffffffffffff808516918290558516146117915773ffffffffffffffffffffffffffffffffffffffff80851660009081526001808901602052604080832080547fffffffffffffffffffffffffffffffffffffffffffffffffffffffffffffffff0190559286168252919020805490910190555b818373ffffffffffffffffffffffffffffffffffffffff168573ffffffffffffffffffffffffffffffffffffffff167fddf252ad1be2c89b69c2b068fc378daa952ba7f163c4a11628f55a4df523b3ef60405160405180910390a4505050505050565b60008061065d60017f2c0cf10337caabbd02dcf226f05f5fd19a0919a41a8df8958c39b80007826858614195565b825473ffffffffffffffffffffffffffffffffffffffff8116906000907401000000000000000000000000000000000000000090046bffffffffffffffffffffffff16831580611870575080155b1561187e57600091506118c3565b620186a08410156118a857620186a061189782866141a8565b6118a191906141bf565b91506118c3565b806118b6620186a0866141bf565b6118c091906141a8565b91505b50935093915050565b60008061065d60017fc9ed16f33ab3a66c84bfd83099ccb2a8845871e2e1c1928f63797152f0fd54cd614195565b815473ffffffffffffffffffffffffffffffffffffffff8281169116146106a3576040517f2ef4875e00000000000000000000000000000000000000000000000000000000815273ffffffffffffffffffffffffffffffffffffffff82166004820152602401610db7565b60008061065d60017fc8827d3282af6f37b64c3e9e6f3ac9df286ab0bb0fccd6f8661bf19adb368b23614195565b60008381526020858152604080832073ffffffffffffffffffffffffffffffffffffffff8616845290915290205460ff16610a6e5760008381526020858152604080832073ffffffffffffffffffffffffffffffffffffffff8681168086529184529382902080547fffffffffffffffffffffffffffffffffffffffffffffffffffffffffffffff00166001179055815187815292830152918316918101919091527f2f8788117e7eff1d82e926ec794901d17c78024a50270940304540a733656f0d906060015b60405180910390a150505050565b36600061072d6133df565b60008281526020848152604080832073ffffffffffffffffffffffffffffffffffffffff8516845290915290205460ff166106c6576040517f7aa728820000000000000000000000000000000000000000000000000000000081526004810183905273ffffffffffffffffffffffffffffffffffffffff82166024820152604401610db7565b73ffffffffffffffffffffffffffffffffffffffff8216611b47576040517f7851b9cd00000000000000000000000000000000000000000000000000000000815260040160405180910390fd5b60008181526020849052604090205473ffffffffffffffffffffffffffffffffffffffff1615611ba6576040517f753eceac00000000000000000000000000000000000000000000000000000000815260048101829052602401610db7565b60008181526020848152604080832073ffffffffffffffffffffffffffffffffffffffff86169081905580845260018088019093528184208054909301909255518392907fddf252ad1be2c89b69c2b068fc378daa952ba7f163c4a11628f55a4df523b3ef908290a4505050565b611c218585858585611516565b73ffffffffffffffffffffffffffffffffffffffff82163b156108be576108be8484848460405180602001604052806000815250613549565b73ffffffffffffffffffffffffffffffffffffffff8216611ca7576040517f7851b9cd00000000000000000000000000000000000000000000000000000000815260040160405180910390fd5b805160005b81811015611d9d576000838281518110611cc857611cc861411a565b60200260200101519050611d068660000160008381526020019081526020016000205473ffffffffffffffffffffffffffffffffffffffff16151590565b15611d40576040517f753eceac00000000000000000000000000000000000000000000000000000000815260048101829052602401610db7565b60008181526020879052604080822073ffffffffffffffffffffffffffffffffffffffff88169081905590518392907fddf252ad1be2c89b69c2b068fc378daa952ba7f163c4a11628f55a4df523b3ef908290a450600101611cac565b5073ffffffffffffffffffffffffffffffffffffffff9092166000908152600190930160205250604090912080549091019055565b620186a0811115611e12576040517fac04040800000000000000000000000000000000000000000000000000000000815260048101829052602401610db7565b81546bffffffffffffffffffffffff909116740100000000000000000000000000000000000000000273ffffffffffffffffffffffffffffffffffffffff909116179055565b60008181526020839052604081205473ffffffffffffffffffffffffffffffffffffffff8116611eb7576040517fdd56047500000000000000000000000000000000000000000000000000000000815260048101849052602401610db7565b805b949350505050565b611ef6611eef60017f5b388d90dc1312ba799f321972f13311234fa1163bcabec7cf66101c4876eb84614195565b600161365e565b6106a382826136aa565b611f357f80ac58cd000000000000000000000000000000000000000000000000000000006001611f2e611095565b9190613760565b565b611f357ff3993d11000000000000000000000000000000000000000000000000000000006001611f2e611095565b611f357f5b5e139f000000000000000000000000000000000000000000000000000000006001611f2e611095565b611f357f8e773e13000000000000000000000000000000000000000000000000000000006001611f2e611095565b611f357f9da5e832000000000000000000000000000000000000000000000000000000006001611f2e611095565b611f357f8b8b4ef5000000000000000000000000000000000000000000000000000000006001611f2e611095565b611f357f2a55205a000000000000000000000000000000000000000000000000000000006001611f2e611095565b60008061065d60017f7ea68fd2dcf1c056b94db6a0a537aa80d26fa9ab1eacd85da1ba0b61b7e7a8a5614195565b6120a7611eef60017f92f72593ca50a0096f68ee94e7000db40ed086164b695855e2250750b8bfaf59614195565b856120b38587836142c4565b50600186016120c38385836142c4565b5060029590950180547fffffffffffffffffffffffff00000000000000000000000000000000000000001673ffffffffffffffffffffffffffffffffffffffff9096169590951790945550505050565b600073ffffffffffffffffffffffffffffffffffffffff8216612162576040517faefbce4e00000000000000000000000000000000000000000000000000000000815260040160405180910390fd5b5073ffffffffffffffffffffffffffffffffffffffff166000908152600191909101602052604090205490565b6040805173ffffffffffffffffffffffffffffffffffffffff8416602482015260448082018490528251808303909101815260649091019091526020810180517bffffffffffffffffffffffffffffffffffffffffffffffffffffffff167fa9059cbb000000000000000000000000000000000000000000000000000000001790526106c690849061383c565b60008181526020859052604090205473ffffffffffffffffffffffffffffffffffffffff811661227b576040517fdd56047500000000000000000000000000000000000000000000000000000000815260048101839052602401610db7565b73ffffffffffffffffffffffffffffffffffffffff83168173ffffffffffffffffffffffffffffffffffffffff16146122ff576040517f14dbb53600000000000000000000000000000000000000000000000000000000815273ffffffffffffffffffffffffffffffffffffffff8416600482015260248101839052604401610db7565b61230a85848661336a565b6123b957740100000000000000000000000000000000000000008116158061235b5750600082815260028601602052604090205473ffffffffffffffffffffffffffffffffffffffff858116911614155b156123b9576040517fa4a3018b00000000000000000000000000000000000000000000000000000000815273ffffffffffffffffffffffffffffffffffffffff80861660048301528416602482015260448101839052606401610db7565b6000828152602086815260408083207fdead000000000000000000000000000000000000000000000000000000000000905573ffffffffffffffffffffffffffffffffffffffff86168084526001890190925280832080547fffffffffffffffffffffffffffffffffffffffffffffffffffffffffffffffff01905551849291907fddf252ad1be2c89b69c2b068fc378daa952ba7f163c4a11628f55a4df523b3ef908390a45050505050565b612471858484611afa565b73ffffffffffffffffffffffffffffffffffffffff83163b156108be576108be846000858585613549565b6124a7838284611a74565b60008181526020848152604080832073ffffffffffffffffffffffffffffffffffffffff86168085529083529281902080547fffffffffffffffffffffffffffffffffffffffffffffffffffffffffffffff0016905580518481529182018390528101919091527ff6391f5c32d9c69d2a47ea670b442974b53935d1edc7fd64eb21e047a839171b9060600160405180910390a1505050565b73ffffffffffffffffffffffffffffffffffffffff811661258d576040517f16de0c8000000000000000000000000000000000000000000000000000000000815260040160405180910390fd5b81547fffffffffffffffffffffffff00000000000000000000000000000000000000001673ffffffffffffffffffffffffffffffffffffffff91909116179055565b606061066d6125dc61204b565b61394b565b81518151811461261d576040517f6582533600000000000000000000000000000000000000000000000000000000815260040160405180910390fd5b60005b818110156108be5761266f84828151811061263d5761263d61411a565b60200260200101518483815181106126575761265761411a565b602002602001015187611afa9092919063ffffffff16565b600101612620565b8273ffffffffffffffffffffffffffffffffffffffff168273ffffffffffffffffffffffffffffffffffffffff16036126f4576040517fe4215c6a00000000000000000000000000000000000000000000000000000000815273ffffffffffffffffffffffffffffffffffffffff84166004820152602401610db7565b73ffffffffffffffffffffffffffffffffffffffff838116600081815260038701602090815260408083209487168084529482529182902080547fffffffffffffffffffffffffffffffffffffffffffffffffffffffffffffff001686151590811790915591519182527f17307eab39ab6107e8899845ad3d59bd9653f200f220920489ca2b5937696c31910160405180910390a350505050565b61279c8787878787611516565b73ffffffffffffffffffffffffffffffffffffffff84163b156127fc576127fc8686868686868080601f01602080910402602001604051908101604052809392919081815260200183838082843760009201919091525061354992505050565b50505050505050565b60028301546040517ff724dad700000000000000000000000000000000000000000000000000000000815273ffffffffffffffffffffffffffffffffffffffff848116600483015260248201849052606092169063f724dad790604401600060405180830381865afa15801561287f573d6000803e3d6000fd5b505050506040513d6000823e601f3d9081017fffffffffffffffffffffffffffffffffffffffffffffffffffffffffffffffe0168201604052611eb991908101906143de565b60008381526020858152604080832073ffffffffffffffffffffffffffffffffffffffff8616845290915290205460ff1615610a6e5760008381526020858152604080832073ffffffffffffffffffffffffffffffffffffffff8681168086529184529382902080547fffffffffffffffffffffffffffffffffffffffffffffffffffffffffffffff00169055815187815292830152918316918101919091527ff6391f5c32d9c69d2a47ea670b442974b53935d1edc7fd64eb21e047a839171b90606001611a5b565b600061299c86858761336a565b90508160005b81811015612bdc5760008585838181106129be576129be61411a565b602090810292909201356000818152928c90526040909220549192505073ffffffffffffffffffffffffffffffffffffffff8116612a2b576040517fdd56047500000000000000000000000000000000000000000000000000000000815260048101839052602401610db7565b73ffffffffffffffffffffffffffffffffffffffff88168173ffffffffffffffffffffffffffffffffffffffff1614612aaf576040517f14dbb53600000000000000000000000000000000000000000000000000000000815273ffffffffffffffffffffffffffffffffffffffff8916600482015260248101839052604401610db7565b84612b5f577401000000000000000000000000000000000000000081161580612b015750600082815260028b01602052604090205473ffffffffffffffffffffffffffffffffffffffff8a8116911614155b15612b5f576040517fa4a3018b00000000000000000000000000000000000000000000000000000000815273ffffffffffffffffffffffffffffffffffffffff808b1660048301528916602482015260448101839052606401610db7565b600082815260208b905260408082207fdead00000000000000000000000000000000000000000000000000000000000090555183919073ffffffffffffffffffffffffffffffffffffffff8b16907fddf252ad1be2c89b69c2b068fc378daa952ba7f163c4a11628f55a4df523b3ef908390a450506001016129a2565b5080156127fc5773ffffffffffffffffffffffffffffffffffffffff8516600090815260018801602052604090208054829003905550505050505050565b825473ffffffffffffffffffffffffffffffffffffffff9081169083168114612c87576040517f2ef4875e00000000000000000000000000000000000000000000000000000000815273ffffffffffffffffffffffffffffffffffffffff84166004820152602401610db7565b8173ffffffffffffffffffffffffffffffffffffffff168173ffffffffffffffffffffffffffffffffffffffff1614610a6e5783547fffffffffffffffffffffffff00000000000000000000000000000000000000001673ffffffffffffffffffffffffffffffffffffffff8381169182178655604051908316907f8be0079c531659141344cd1fd0a4f28419497f9722a3daafe3b4186f6b6457e090600090a350505050565b73ffffffffffffffffffffffffffffffffffffffff8316612d7b576040517f86c8706700000000000000000000000000000000000000000000000000000000815260040160405180910390fd5b6000612d8887868861336a565b90508160005b81811015612fac576000858583818110612daa57612daa61411a565b602090810292909201356000818152928d90526040909220549192505073ffffffffffffffffffffffffffffffffffffffff8116612e17576040517fdd56047500000000000000000000000000000000000000000000000000000000815260048101839052602401610db7565b73ffffffffffffffffffffffffffffffffffffffff89168173ffffffffffffffffffffffffffffffffffffffff1614612e9b576040517f14dbb53600000000000000000000000000000000000000000000000000000000815273ffffffffffffffffffffffffffffffffffffffff8a16600482015260248101839052604401610db7565b84612f4b577401000000000000000000000000000000000000000081161580612eed5750600082815260028c01602052604090205473ffffffffffffffffffffffffffffffffffffffff8b8116911614155b15612f4b576040517fa4a3018b00000000000000000000000000000000000000000000000000000000815273ffffffffffffffffffffffffffffffffffffffff808c1660048301528a16602482015260448101839052606401610db7565b600082815260208c9052604080822073ffffffffffffffffffffffffffffffffffffffff808c16918290559151859391928d16917fddf252ad1be2c89b69c2b068fc378daa952ba7f163c4a11628f55a4df523b3ef91a45050600101612d8e565b508473ffffffffffffffffffffffffffffffffffffffff168673ffffffffffffffffffffffffffffffffffffffff1614158015612fe857508015155b156109c55773ffffffffffffffffffffffffffffffffffffffff808716600090815260018a016020526040808220805485900390559187168152208054820190555050505050505050565b8047101561309d576040517f08c379a000000000000000000000000000000000000000000000000000000000815260206004820152601d60248201527f416464726573733a20696e73756666696369656e742062616c616e63650000006044820152606401610db7565b60008273ffffffffffffffffffffffffffffffffffffffff168260405160006040518083038185875af1925050503d80600081146130f7576040519150601f19603f3d011682016040523d82523d6000602084013e6130fc565b606091505b50509050806106c6576040517f08c379a000000000000000000000000000000000000000000000000000000000815260206004820152603a60248201527f416464726573733a20756e61626c6520746f2073656e642076616c75652c207260448201527f6563697069656e74206d617920686176652072657665727465640000000000006064820152608401610db7565b606081600001805461319e90614229565b80601f01602080910402602001604051908101604052809291908181526020018280546131ca90614229565b80156132175780601f106131ec57610100808354040283529160200191613217565b820191906000526020600020905b8154815290600101906020018083116131fa57829003601f168201915b50505050509050919050565b6000333214806132335750601836105b1561323d57503390565b7fffffffffffffffffffffffffffffffffffffffffffffffffffffffffffffffec36013560601c7f000000000000000000000000000000000000000000000000000000000000000073ffffffffffffffffffffffffffffffffffffffff1633148061335957506040517f8929a8ca00000000000000000000000000000000000000000000000000000000815273ffffffffffffffffffffffffffffffffffffffff82811660048301523360248301527f00000000000000000000000000000000000000000000000000000000000000001690638929a8ca90604401602060405180830381865afa158015613335573d6000803e3d6000fd5b505050506040513d601f19601f820116820180604052508101906133599190614149565b1561336357919050565b3391505090565b60008173ffffffffffffffffffffffffffffffffffffffff168373ffffffffffffffffffffffffffffffffffffffff161480611eb957505073ffffffffffffffffffffffffffffffffffffffff9182166000908152600393909301602090815260408085209290931684525290205460ff1690565b366000333214806133f05750601836105b156133fe5750600091369150565b3373ffffffffffffffffffffffffffffffffffffffff7f0000000000000000000000000000000000000000000000000000000000000000161480613533575073ffffffffffffffffffffffffffffffffffffffff7f000000000000000000000000000000000000000000000000000000000000000016638929a8ca367fffffffffffffffffffffffffffffffffffffffffffffffffffffffffffffffec013560601c6040517fffffffff0000000000000000000000000000000000000000000000000000000060e084901b16815273ffffffffffffffffffffffffffffffffffffffff9091166004820152336024820152604401602060405180830381865afa15801561350f573d6000803e3d6000fd5b505050506040513d601f19601f820116820180604052508101906135339190614149565b156135405761072d61395c565b50600091369150565b6040517f150b7a02000000000000000000000000000000000000000000000000000000008082529073ffffffffffffffffffffffffffffffffffffffff85169063150b7a02906135a390899089908890889060040161449e565b6020604051808303816000875af11580156135c2573d6000803e3d6000fd5b505050506040513d601f19601f820116820180604052508101906135e691906144e7565b7fffffffff0000000000000000000000000000000000000000000000000000000016146108be576040517fc215a7a100000000000000000000000000000000000000000000000000000000815273ffffffffffffffffffffffffffffffffffffffff8416600482015260248101839052604401610db7565b815482908281106136a5576040517fbf0c18ec0000000000000000000000000000000000000000000000000000000081526004810182905260248101849052604401610db7565b505550565b73ffffffffffffffffffffffffffffffffffffffff8116156137325781547fffffffffffffffffffffffff00000000000000000000000000000000000000001673ffffffffffffffffffffffffffffffffffffffff821690811783556040516000907f8be0079c531659141344cd1fd0a4f28419497f9722a3daafe3b4186f6b6457e0908290a35b6106a37f7f5828d0000000000000000000000000000000000000000000000000000000006001611f2e611095565b7c01000000000000000000000000000000000000000000000000000000007fffffffff000000000000000000000000000000000000000000000000000000008316016137d8576040517f72c683bb00000000000000000000000000000000000000000000000000000000815260040160405180910390fd5b7fffffffff00000000000000000000000000000000000000000000000000000000919091166000908152602092909252604090912080547fffffffffffffffffffffffffffffffffffffffffffffffffffffffffffffff0016911515919091179055565b600061389e826040518060400160405280602081526020017f5361666545524332303a206c6f772d6c6576656c2063616c6c206661696c65648152508573ffffffffffffffffffffffffffffffffffffffff1661398d9092919063ffffffff16565b90508051600014806138bf5750808060200190518101906138bf9190614149565b6106c6576040517f08c379a000000000000000000000000000000000000000000000000000000000815260206004820152602a60248201527f5361666545524332303a204552433230206f7065726174696f6e20646964206e60448201527f6f742073756363656564000000000000000000000000000000000000000000006064820152608401610db7565b606081600101805461319e90614229565b36600061072d7fffffffffffffffffffffffffffffffffffffffffffffffffffffffffffffffec8301828481614504565b6060611eb98484600085856000808673ffffffffffffffffffffffffffffffffffffffff1685876040516139c1919061452e565b60006040518083038185875af1925050503d80600081146139fe576040519150601f19603f3d011682016040523d82523d6000602084013e613a03565b606091505b5091509150613a1487838387613a1f565b979650505050505050565b60608315613ab5578251600003613aae5773ffffffffffffffffffffffffffffffffffffffff85163b613aae576040517f08c379a000000000000000000000000000000000000000000000000000000000815260206004820152601d60248201527f416464726573733a2063616c6c20746f206e6f6e2d636f6e74726163740000006044820152606401610db7565b5081611eb9565b611eb98383815115613aca5781518083602001fd5b806040517f08c379a0000000000000000000000000000000000000000000000000000000008152600401610db79190613bb7565b7fffffffff000000000000000000000000000000000000000000000000000000008116811461083c57600080fd5b600060208284031215613b3e57600080fd5b8135610b1781613afe565b60005b83811015613b64578181015183820152602001613b4c565b50506000910152565b60008151808452613b85816020860160208601613b49565b601f017fffffffffffffffffffffffffffffffffffffffffffffffffffffffffffffffe0169290920160200192915050565b602081526000610b176020830184613b6d565b600060208284031215613bdc57600080fd5b5035919050565b73ffffffffffffffffffffffffffffffffffffffff8116811461083c57600080fd5b60008060408385031215613c1857600080fd5b8235613c2381613be3565b946020939093013593505050565b600080600060608486031215613c4657600080fd5b8335613c5181613be3565b92506020840135613c6181613be3565b929592945050506040919091013590565b60008060408385031215613c8557600080fd5b50508035926020909101359150565b60008060408385031215613ca757600080fd5b823591506020830135613cb981613be3565b809150509250929050565b60208152816020820152818360408301376000818301604090810191909152601f9092017fffffffffffffffffffffffffffffffffffffffffffffffffffffffffffffffe0160101919050565b60008083601f840112613d2357600080fd5b50813567ffffffffffffffff811115613d3b57600080fd5b6020830191508360208260051b85010111156106e757600080fd5b600080600060408486031215613d6b57600080fd5b8335613d7681613be3565b9250602084013567ffffffffffffffff811115613d9257600080fd5b613d9e86828701613d11565b9497909650939450505050565b600060208284031215613dbd57600080fd5b8135610b1781613be3565b60008083601f840112613dda57600080fd5b50813567ffffffffffffffff811115613df257600080fd5b6020830191508360208285010111156106e757600080fd5b600080600080600060608688031215613e2257600080fd5b853567ffffffffffffffff80821115613e3a57600080fd5b613e4689838a01613dc8565b90975095506020880135915080821115613e5f57600080fd5b50613e6c88828901613dc8565b9094509250506040860135613e8081613be3565b809150509295509295909350565b60008060008060008060608789031215613ea757600080fd5b863567ffffffffffffffff80821115613ebf57600080fd5b613ecb8a838b01613d11565b90985096506020890135915080821115613ee457600080fd5b613ef08a838b01613d11565b90965094506040890135915080821115613f0957600080fd5b50613f1689828a01613d11565b979a9699509497509295939492505050565b60008060008060608587031215613f3e57600080fd5b8435613f4981613be3565b935060208501359250604085013567ffffffffffffffff811115613f6c57600080fd5b613f7887828801613dc8565b95989497509550505050565b60008060008060408587031215613f9a57600080fd5b843567ffffffffffffffff80821115613fb257600080fd5b613fbe88838901613d11565b90965094506020870135915080821115613fd757600080fd5b50613f7887828801613d11565b801515811461083c57600080fd5b6000806040838503121561400557600080fd5b823561401081613be3565b91506020830135613cb981613fe4565b60008060008060006080868803121561403857600080fd5b853561404381613be3565b9450602086013561405381613be3565b935060408601359250606086013567ffffffffffffffff81111561407657600080fd5b61408288828901613dc8565b969995985093965092949392505050565b600080604083850312156140a657600080fd5b82356140b181613be3565b91506020830135613cb981613be3565b600080600080606085870312156140d757600080fd5b84356140e281613be3565b935060208501356140f281613be3565b9250604085013567ffffffffffffffff81111561410e57600080fd5b613f7887828801613d11565b7f4e487b7100000000000000000000000000000000000000000000000000000000600052603260045260246000fd5b60006020828403121561415b57600080fd5b8151610b1781613fe4565b7f4e487b7100000000000000000000000000000000000000000000000000000000600052601160045260246000fd5b8181038181111561065d5761065d614166565b808202811582820484141761065d5761065d614166565b6000826141f5577f4e487b7100000000000000000000000000000000000000000000000000000000600052601260045260246000fd5b500490565b7f4e487b7100000000000000000000000000000000000000000000000000000000600052604160045260246000fd5b600181811c9082168061423d57607f821691505b602082108103614276577f4e487b7100000000000000000000000000000000000000000000000000000000600052602260045260246000fd5b50919050565b601f8211156106c6576000816000526020600020601f850160051c810160208610156142a55750805b601f850160051c820191505b8181101561108d578281556001016142b1565b67ffffffffffffffff8311156142dc576142dc6141fa565b6142f0836142ea8354614229565b8361427c565b6000601f841160018114614342576000851561430c5750838201355b7fffffffffffffffffffffffffffffffffffffffffffffffffffffffffffffffff600387901b1c1916600186901b1783556108be565b6000838152602090207fffffffffffffffffffffffffffffffffffffffffffffffffffffffffffffffe0861690835b828110156143915786850135825560209485019460019092019101614371565b50868210156143cc577fffffffffffffffffffffffffffffffffffffffffffffffffffffffffffffffff60f88860031b161c19848701351681555b505060018560011b0183555050505050565b6000602082840312156143f057600080fd5b815167ffffffffffffffff8082111561440857600080fd5b818401915084601f83011261441c57600080fd5b81518181111561442e5761442e6141fa565b604051601f82017fffffffffffffffffffffffffffffffffffffffffffffffffffffffffffffffe0908116603f01168101908382118183101715614474576144746141fa565b8160405282815287602084870101111561448d57600080fd5b613a14836020830160208801613b49565b600073ffffffffffffffffffffffffffffffffffffffff8087168352808616602084015250836040830152608060608301526144dd6080830184613b6d565b9695505050505050565b6000602082840312156144f957600080fd5b8151610b1781613afe565b6000808585111561451457600080fd5b8386111561452157600080fd5b5050820193919092039150565b60008251614540818460208701613b49565b919091019291505056fea2646970667358221220ebd8a5da957e7edf4e0d06c60a21f30e49d58e5871d3e2c1bd86067c36eeba8d64736f6c63430008180033",
  "linkReferences": {},
  "deployedLinkReferences": {}
}