{
  "_format": "hh-sol-artifact-1",
  "contractName": "ERC721FullBurnProxiedMock",
  "sourceName": "contracts/mocks/token/ERC721/preset/proxied/ERC721FullBurnProxiedMock.sol",
  "abi": [
    {
      "inputs": [
        {
          "internalType": "contract IForwarderRegistry",
          "name": "forwarderRegistry",
          "type": "address"
        }
      ],
      "stateMutability": "nonpayable",
      "type": "constructor"
    },
    {
      "inputs": [
        {
          "internalType": "uint256",
          "name": "percentage",
          "type": "uint256"
        }
      ],
      "name": "IncorrectRoyaltyPercentage",
      "type": "error"
    },
    {
      "inputs": [],
      "name": "IncorrectRoyaltyReceiver",
      "type": "error"
    },
    {
      "inputs": [
        {
          "internalType": "address",
          "name": "operator",
          "type": "address"
        }
      ],
      "name": "OperatorNotAllowed",
      "type": "error"
    },
    {
      "anonymous": false,
      "inputs": [
        {
          "indexed": true,
          "internalType": "address",
          "name": "owner",
          "type": "address"
        },
        {
          "indexed": true,
          "internalType": "address",
          "name": "approved",
          "type": "address"
        },
        {
          "indexed": true,
          "internalType": "uint256",
          "name": "tokenId",
          "type": "uint256"
        }
      ],
      "name": "Approval",
      "type": "event"
    },
    {
      "anonymous": false,
      "inputs": [
        {
          "indexed": true,
          "internalType": "address",
          "name": "owner",
          "type": "address"
        },
        {
          "indexed": true,
          "internalType": "address",
          "name": "operator",
          "type": "address"
        },
        {
          "indexed": false,
          "internalType": "bool",
          "name": "approved",
          "type": "bool"
        }
      ],
      "name": "ApprovalForAll",
      "type": "event"
    },
    {
      "anonymous": false,
      "inputs": [
        {
          "indexed": true,
          "internalType": "address",
          "name": "previousOwner",
          "type": "address"
        },
        {
          "indexed": true,
          "internalType": "address",
          "name": "newOwner",
          "type": "address"
        }
      ],
      "name": "OwnershipTransferred",
      "type": "event"
    },
    {
      "anonymous": false,
      "inputs": [
        {
          "indexed": false,
          "internalType": "bytes32",
          "name": "role",
          "type": "bytes32"
        },
        {
          "indexed": false,
          "internalType": "address",
          "name": "account",
          "type": "address"
        },
        {
          "indexed": false,
          "internalType": "address",
          "name": "operator",
          "type": "address"
        }
      ],
      "name": "RoleGranted",
      "type": "event"
    },
    {
      "anonymous": false,
      "inputs": [
        {
          "indexed": false,
          "internalType": "bytes32",
          "name": "role",
          "type": "bytes32"
        },
        {
          "indexed": false,
          "internalType": "address",
          "name": "account",
          "type": "address"
        },
        {
          "indexed": false,
          "internalType": "address",
          "name": "operator",
          "type": "address"
        }
      ],
      "name": "RoleRevoked",
      "type": "event"
    },
    {
      "anonymous": false,
      "inputs": [
        {
          "indexed": true,
          "internalType": "address",
          "name": "from",
          "type": "address"
        },
        {
          "indexed": true,
          "internalType": "address",
          "name": "to",
          "type": "address"
        },
        {
          "indexed": true,
          "internalType": "uint256",
          "name": "tokenId",
          "type": "uint256"
        }
      ],
      "name": "Transfer",
      "type": "event"
    },
    {
      "inputs": [],
      "name": "MINTER_ROLE",
      "outputs": [
        {
          "internalType": "bytes32",
          "name": "",
          "type": "bytes32"
        }
      ],
      "stateMutability": "view",
      "type": "function"
    },
    {
      "inputs": [],
      "name": "ROYALTY_FEE_DENOMINATOR",
      "outputs": [
        {
          "internalType": "uint256",
          "name": "",
          "type": "uint256"
        }
      ],
      "stateMutability": "view",
      "type": "function"
    },
    {
      "inputs": [],
      "name": "__msgData",
      "outputs": [
        {
          "internalType": "bytes",
          "name": "",
          "type": "bytes"
        }
      ],
      "stateMutability": "view",
      "type": "function"
    },
    {
      "inputs": [
        {
          "internalType": "address",
          "name": "to",
          "type": "address"
        },
        {
          "internalType": "uint256",
          "name": "tokenId",
          "type": "uint256"
        }
      ],
      "name": "approve",
      "outputs": [],
      "stateMutability": "nonpayable",
      "type": "function"
    },
    {
      "inputs": [
        {
          "internalType": "address",
          "name": "owner",
          "type": "address"
        }
      ],
      "name": "balanceOf",
      "outputs": [
        {
          "internalType": "uint256",
          "name": "balance",
          "type": "uint256"
        }
      ],
      "stateMutability": "view",
      "type": "function"
    },
    {
      "inputs": [
        {
          "internalType": "address",
          "name": "from",
          "type": "address"
        },
        {
          "internalType": "uint256[]",
          "name": "tokenIds",
          "type": "uint256[]"
        }
      ],
      "name": "batchBurnFrom",
      "outputs": [],
      "stateMutability": "nonpayable",
      "type": "function"
    },
    {
      "inputs": [
        {
          "internalType": "address",
          "name": "to",
          "type": "address"
        },
        {
          "internalType": "uint256[]",
          "name": "tokenIds",
          "type": "uint256[]"
        }
      ],
      "name": "batchMint",
      "outputs": [],
      "stateMutability": "nonpayable",
      "type": "function"
    },
    {
      "inputs": [
        {
          "internalType": "address",
          "name": "from",
          "type": "address"
        },
        {
          "internalType": "address",
          "name": "to",
          "type": "address"
        },
        {
          "internalType": "uint256[]",
          "name": "tokenIds",
          "type": "uint256[]"
        }
      ],
      "name": "batchTransferFrom",
      "outputs": [],
      "stateMutability": "nonpayable",
      "type": "function"
    },
    {
      "inputs": [
        {
          "internalType": "address",
          "name": "from",
          "type": "address"
        },
        {
          "internalType": "uint256",
          "name": "tokenId",
          "type": "uint256"
        }
      ],
      "name": "burnFrom",
      "outputs": [],
      "stateMutability": "nonpayable",
      "type": "function"
    },
    {
      "inputs": [
        {
          "internalType": "address[]",
          "name": "recipients",
          "type": "address[]"
        },
        {
          "internalType": "uint256[]",
          "name": "tokenIds",
          "type": "uint256[]"
        }
      ],
      "name": "deliver",
      "outputs": [],
      "stateMutability": "nonpayable",
      "type": "function"
    },
    {
      "inputs": [],
      "name": "forwarderRegistry",
      "outputs": [
        {
          "internalType": "contract IForwarderRegistry",
          "name": "",
          "type": "address"
        }
      ],
      "stateMutability": "view",
      "type": "function"
    },
    {
      "inputs": [
        {
          "internalType": "uint256",
          "name": "tokenId",
          "type": "uint256"
        }
      ],
      "name": "getApproved",
      "outputs": [
        {
          "internalType": "address",
          "name": "approved",
          "type": "address"
        }
      ],
      "stateMutability": "view",
      "type": "function"
    },
    {
      "inputs": [
        {
          "internalType": "bytes32",
          "name": "role",
          "type": "bytes32"
        },
        {
          "internalType": "address",
          "name": "account",
          "type": "address"
        }
      ],
      "name": "grantRole",
      "outputs": [],
      "stateMutability": "nonpayable",
      "type": "function"
    },
    {
      "inputs": [
        {
          "internalType": "bytes32",
          "name": "role",
          "type": "bytes32"
        },
        {
          "internalType": "address",
          "name": "account",
          "type": "address"
        }
      ],
      "name": "hasRole",
      "outputs": [
        {
          "internalType": "bool",
          "name": "hasRole_",
          "type": "bool"
        }
      ],
      "stateMutability": "view",
      "type": "function"
    },
    {
      "inputs": [
        {
          "internalType": "string",
          "name": "tokenName",
          "type": "string"
        },
        {
          "internalType": "string",
          "name": "tokenSymbol",
          "type": "string"
        },
        {
          "internalType": "contract ITokenMetadataResolver",
          "name": "metadataResolver",
          "type": "address"
        },
        {
          "internalType": "contract IOperatorFilterRegistry",
          "name": "filterRegistry",
          "type": "address"
        }
      ],
      "name": "init",
      "outputs": [],
      "stateMutability": "nonpayable",
      "type": "function"
    },
    {
      "inputs": [
        {
          "internalType": "address",
          "name": "owner",
          "type": "address"
        },
        {
          "internalType": "address",
          "name": "operator",
          "type": "address"
        }
      ],
      "name": "isApprovedForAll",
      "outputs": [
        {
          "internalType": "bool",
          "name": "approvedForAll",
          "type": "bool"
        }
      ],
      "stateMutability": "view",
      "type": "function"
    },
    {
      "inputs": [
        {
          "internalType": "address",
          "name": "forwarder",
          "type": "address"
        }
      ],
      "name": "isTrustedForwarder",
      "outputs": [
        {
          "internalType": "bool",
          "name": "",
          "type": "bool"
        }
      ],
      "stateMutability": "view",
      "type": "function"
    },
    {
      "inputs": [],
      "name": "metadataResolver",
      "outputs": [
        {
          "internalType": "contract ITokenMetadataResolver",
          "name": "tokenMetadataResolver",
          "type": "address"
        }
      ],
      "stateMutability": "view",
      "type": "function"
    },
    {
      "inputs": [
        {
          "internalType": "address",
          "name": "to",
          "type": "address"
        },
        {
          "internalType": "uint256",
          "name": "tokenId",
          "type": "uint256"
        }
      ],
      "name": "mint",
      "outputs": [],
      "stateMutability": "nonpayable",
      "type": "function"
    },
    {
      "inputs": [],
      "name": "name",
      "outputs": [
        {
          "internalType": "string",
          "name": "tokenName",
          "type": "string"
        }
      ],
      "stateMutability": "view",
      "type": "function"
    },
    {
      "inputs": [],
      "name": "operatorFilterRegistry",
      "outputs": [
        {
          "internalType": "contract IOperatorFilterRegistry",
          "name": "",
          "type": "address"
        }
      ],
      "stateMutability": "view",
      "type": "function"
    },
    {
      "inputs": [],
      "name": "owner",
      "outputs": [
        {
          "internalType": "address",
          "name": "",
          "type": "address"
        }
      ],
      "stateMutability": "view",
      "type": "function"
    },
    {
      "inputs": [
        {
          "internalType": "uint256",
          "name": "tokenId",
          "type": "uint256"
        }
      ],
      "name": "ownerOf",
      "outputs": [
        {
          "internalType": "address",
          "name": "tokenOwner",
          "type": "address"
        }
      ],
      "stateMutability": "view",
      "type": "function"
    },
    {
      "inputs": [
        {
          "internalType": "address[]",
          "name": "accounts",
          "type": "address[]"
        },
        {
          "internalType": "contract IERC20[]",
          "name": "tokens",
          "type": "address[]"
        },
        {
          "internalType": "uint256[]",
          "name": "amounts",
          "type": "uint256[]"
        }
      ],
      "name": "recoverERC20s",
      "outputs": [],
      "stateMutability": "nonpayable",
      "type": "function"
    },
    {
      "inputs": [
        {
          "internalType": "address[]",
          "name": "accounts",
          "type": "address[]"
        },
        {
          "internalType": "contract IERC721[]",
          "name": "contracts",
          "type": "address[]"
        },
        {
          "internalType": "uint256[]",
          "name": "tokenIds",
          "type": "uint256[]"
        }
      ],
      "name": "recoverERC721s",
      "outputs": [],
      "stateMutability": "nonpayable",
      "type": "function"
    },
    {
      "inputs": [
        {
          "internalType": "address payable[]",
          "name": "accounts",
          "type": "address[]"
        },
        {
          "internalType": "uint256[]",
          "name": "amounts",
          "type": "uint256[]"
        }
      ],
      "name": "recoverETH",
      "outputs": [],
      "stateMutability": "nonpayable",
      "type": "function"
    },
    {
      "inputs": [
        {
          "internalType": "bytes32",
          "name": "role",
          "type": "bytes32"
        }
      ],
      "name": "renounceRole",
      "outputs": [],
      "stateMutability": "nonpayable",
      "type": "function"
    },
    {
      "inputs": [
        {
          "internalType": "bytes32",
          "name": "role",
          "type": "bytes32"
        },
        {
          "internalType": "address",
          "name": "account",
          "type": "address"
        }
      ],
      "name": "revokeRole",
      "outputs": [],
      "stateMutability": "nonpayable",
      "type": "function"
    },
    {
      "inputs": [
        {
          "internalType": "uint256",
          "name": "tokenId",
          "type": "uint256"
        },
        {
          "internalType": "uint256",
          "name": "salePrice",
          "type": "uint256"
        }
      ],
      "name": "royaltyInfo",
      "outputs": [
        {
          "internalType": "address",
          "name": "receiver",
          "type": "address"
        },
        {
          "internalType": "uint256",
          "name": "royaltyAmount",
          "type": "uint256"
        }
      ],
      "stateMutability": "view",
      "type": "function"
    },
    {
      "inputs": [
        {
          "internalType": "address",
          "name": "to",
          "type": "address"
        },
        {
          "internalType": "uint256",
          "name": "tokenId",
          "type": "uint256"
        },
        {
          "internalType": "bytes",
          "name": "data",
          "type": "bytes"
        }
      ],
      "name": "safeMint",
      "outputs": [],
      "stateMutability": "nonpayable",
      "type": "function"
    },
    {
      "inputs": [
        {
          "internalType": "address",
          "name": "from",
          "type": "address"
        },
        {
          "internalType": "address",
          "name": "to",
          "type": "address"
        },
        {
          "internalType": "uint256",
          "name": "tokenId",
          "type": "uint256"
        }
      ],
      "name": "safeTransferFrom",
      "outputs": [],
      "stateMutability": "nonpayable",
      "type": "function"
    },
    {
      "inputs": [
        {
          "internalType": "address",
          "name": "from",
          "type": "address"
        },
        {
          "internalType": "address",
          "name": "to",
          "type": "address"
        },
        {
          "internalType": "uint256",
          "name": "tokenId",
          "type": "uint256"
        },
        {
          "internalType": "bytes",
          "name": "data",
          "type": "bytes"
        }
      ],
      "name": "safeTransferFrom",
      "outputs": [],
      "stateMutability": "nonpayable",
      "type": "function"
    },
    {
      "inputs": [
        {
          "internalType": "address",
          "name": "operator",
          "type": "address"
        },
        {
          "internalType": "bool",
          "name": "approved",
          "type": "bool"
        }
      ],
      "name": "setApprovalForAll",
      "outputs": [],
      "stateMutability": "nonpayable",
      "type": "function"
    },
    {
      "inputs": [
        {
          "internalType": "uint256",
          "name": "percentage",
          "type": "uint256"
        }
      ],
      "name": "setRoyaltyPercentage",
      "outputs": [],
      "stateMutability": "nonpayable",
      "type": "function"
    },
    {
      "inputs": [
        {
          "internalType": "address",
          "name": "receiver",
          "type": "address"
        }
      ],
      "name": "setRoyaltyReceiver",
      "outputs": [],
      "stateMutability": "nonpayable",
      "type": "function"
    },
    {
      "inputs": [
        {
          "internalType": "bytes4",
          "name": "interfaceId",
          "type": "bytes4"
        }
      ],
      "name": "supportsInterface",
      "outputs": [
        {
          "internalType": "bool",
          "name": "",
          "type": "bool"
        }
      ],
      "stateMutability": "view",
      "type": "function"
    },
    {
      "inputs": [],
      "name": "symbol",
      "outputs": [
        {
          "internalType": "string",
          "name": "tokenSymbol",
          "type": "string"
        }
      ],
      "stateMutability": "view",
      "type": "function"
    },
    {
      "inputs": [
        {
          "internalType": "uint256",
          "name": "tokenId",
          "type": "uint256"
        }
      ],
      "name": "tokenURI",
      "outputs": [
        {
          "internalType": "string",
          "name": "uri",
          "type": "string"
        }
      ],
      "stateMutability": "view",
      "type": "function"
    },
    {
      "inputs": [
        {
          "internalType": "address",
          "name": "from",
          "type": "address"
        },
        {
          "internalType": "address",
          "name": "to",
          "type": "address"
        },
        {
          "internalType": "uint256",
          "name": "tokenId",
          "type": "uint256"
        }
      ],
      "name": "transferFrom",
      "outputs": [],
      "stateMutability": "nonpayable",
      "type": "function"
    },
    {
      "inputs": [
        {
          "internalType": "address",
          "name": "newOwner",
          "type": "address"
        }
      ],
      "name": "transferOwnership",
      "outputs": [],
      "stateMutability": "nonpayable",
      "type": "function"
    },
    {
      "inputs": [
        {
          "internalType": "contract IOperatorFilterRegistry",
          "name": "registry",
          "type": "address"
        }
      ],
      "name": "updateOperatorFilterRegistry",
      "outputs": [],
      "stateMutability": "nonpayable",
      "type": "function"
    }
  ],
  "bytecode": "0x60a060405234801562000010575f80fd5b5060405162004cc038038062004cc0833981016040819052620000339162000045565b6001600160a01b031660805262000074565b5f6020828403121562000056575f80fd5b81516001600160a01b03811681146200006d575f80fd5b9392505050565b608051614c10620000b05f395f81816103ca01528181610460015281816137060152818161378e01528181613ae00152613b1e0152614c105ff3fe608060405234801561000f575f80fd5b50600436106102c2575f3560e01c80638832e6e31161017c578063b88d4fde116100dd578063e1a8bf2c11610093578063f2fde38b1161006e578063f2fde38b1461063f578063f3993d1114610652578063f7ba94bd14610665575f80fd5b8063e1a8bf2c1461060f578063e985e9c514610619578063f24729651461062c575f80fd5b8063c87b56dd116100c3578063c87b56dd146105c2578063d5391393146105d5578063d547741f146105fc575f80fd5b8063b88d4fde1461059c578063c3666c36146105af575f80fd5b806395d89b4111610132578063a0c76f6211610118578063a0c76f6214610579578063a22cb46514610581578063b0ccc31e14610594575f80fd5b806395d89b411461055e5780639da5e83214610566575f80fd5b80638da5cb5b116101625780638da5cb5b146105305780638dc251e31461053857806391d148541461054b575f80fd5b80638832e6e31461050a5780638bb9c5bf1461051d575f80fd5b806331e66e1e1161022657806361ba27da116101dc57806370a08231116101c257806370a08231146104c357806373c8a958146104e457806379cc6790146104f7575f80fd5b806361ba27da1461049d5780636352211e146104b0575f80fd5b806342842e0e1161020c57806342842e0e1461042a5780634684d7e91461043d578063572b6c0514610450575f80fd5b806331e66e1e1461040157806340c10f1914610417575f80fd5b8063114ba8ee1161027b5780632a55205a116102615780632a55205a146103895780632b4c9f16146103c85780632f2ff15d146103ee575f80fd5b8063114ba8ee1461036357806323b872dd14610376575f80fd5b8063081812fc116102ab578063081812fc14610303578063095ea7b31461033b5780630e07f85414610350575f80fd5b806301ffc9a7146102c657806306fdde03146102ee575b5f80fd5b6102d96102d43660046141a4565b610678565b60405190151581526020015b60405180910390f35b6102f6610691565b6040516102e5919061422a565b61031661031136600461423c565b6106a0565b60405173ffffffffffffffffffffffffffffffffffffffff90911681526020016102e5565b61034e610349366004614274565b6106b3565b005b61034e61035e3660046142dc565b610702565b61034e61037136600461436b565b610787565b61034e610384366004614386565b6107f2565b61039c6103973660046143c4565b61082f565b6040805173ffffffffffffffffffffffffffffffffffffffff90931683526020830191909152016102e5565b7f0000000000000000000000000000000000000000000000000000000000000000610316565b61034e6103fc3660046143e4565b610851565b610409610883565b6040516102e5929190614412565b61034e610425366004614274565b610895565b61034e610438366004614386565b6108e4565b61034e61044b36600461449f565b610914565b6102d961045e36600461436b565b7f000000000000000000000000000000000000000000000000000000000000000073ffffffffffffffffffffffffffffffffffffffff90811691161490565b61034e6104ab36600461423c565b610987565b6103166104be36600461423c565b6109a4565b6104d66104d136600461436b565b6109b7565b6040519081526020016102e5565b61034e6104f23660046144f0565b6109ca565b61034e610505366004614274565b610af1565b61034e610518366004614583565b610b0e565b61034e61052b36600461423c565b610b8f565b610316610baa565b61034e61054636600461436b565b610bd0565b6102d96105593660046143e4565b610bed565b6102f6610c36565b61034e6105743660046145db565b610c40565b610316610ce2565b61034e61058f366004614643565b610d0b565b610316610d3a565b61034e6105aa36600461466f565b610d46565b61034e6105bd3660046144f0565b610d7a565b6102f66105d036600461423c565b610f19565b6104d67f6d696e746572000000000000000000000000000000000000000000000000000081565b61034e61060a3660046143e4565b610f3c565b6104d6620186a081565b6102d96106273660046146dd565b610f69565b61034e61063a36600461449f565b610fb5565b61034e61064d36600461436b565b610fd4565b61034e610660366004614709565b610fef565b61034e6106733660046145db565b611028565b5f61068b8261068561110d565b9061113a565b92915050565b606061069b611211565b905090565b5f61068b826106ad611223565b90611250565b73ffffffffffffffffffffffffffffffffffffffff8216156106e1576106e1826106db61132e565b9061135b565b6106fe6106ec611365565b83836106f6611223565b92919061136e565b5050565b61071b61070d611365565b610715611633565b90611660565b61072361169f565b61072b6116d6565b610733611704565b61073b611732565b610743611760565b61074b61178e565b6107536117bc565b61076d86868686866107636117ea565b9493929190611817565b61077f8161077961132e565b906118b1565b505050505050565b6107a0610792611365565b61079a611633565b90611921565b6107ef816107ac61132e565b9081547fffffffffffffffffffffffff00000000000000000000000000000000000000001673ffffffffffffffffffffffffffffffffffffffff91909116179055565b50565b5f6107fb611365565b9050610811818561080a61132e565b91906119a4565b61082981858585610820611223565b939291906119e1565b50505050565b5f80610845848461083e611d32565b9190611d5f565b915091505b9250929050565b5f61085a611365565b90506108688161079a611633565b61087e838383610876611e07565b929190611e34565b505050565b365f61088d611f08565b915091509091565b6108d07f6d696e74657200000000000000000000000000000000000000000000000000006108c1611365565b6108c9611e07565b9190611f12565b6106fe82826108dd611223565b9190611fbd565b5f6108ed611365565b90506108fc818561080a61132e565b6108298185858561090b611223565b93929190612132565b6109407f6d696e74657200000000000000000000000000000000000000000000000000006108c1611365565b61087e838383808060200260200160405190810160405280939291908181526020018383602002808284375f920191909152506109809250611223915050565b9190612177565b610992610792611365565b6107ef8161099e611d32565b90612344565b5f61068b826109b1611223565b906123ca565b5f61068b826109c4611223565b9061245f565b6109d5610792611365565b8483811480156109e457508082145b610a4f576040517f08c379a000000000000000000000000000000000000000000000000000000000815260206004820152601d60248201527f5265636f766572793a20696e636f6e73697374656e742061727261797300000060448201526064015b60405180910390fd5b5f5b818114610ae757610adf888883818110610a6d57610a6d61475e565b9050602002016020810190610a82919061436b565b858584818110610a9457610a9461475e565b90506020020135888885818110610aad57610aad61475e565b9050602002016020810190610ac2919061436b565b73ffffffffffffffffffffffffffffffffffffffff169190612509565b600101610a51565b5050505050505050565b6106fe610afc611365565b8383610b06611223565b929190612596565b610b3a7f6d696e74657200000000000000000000000000000000000000000000000000006108c1611365565b610829610b45611365565b858585858080601f0160208091040260200160405190810160405280939291908181526020018383808284375f92019190915250610b869250611223915050565b939291906127a7565b6107ef610b9a611365565b82610ba3611e07565b91906127dc565b5f61069b610bb6611633565b5473ffffffffffffffffffffffffffffffffffffffff1690565b610bdb610792611365565b6107ef81610be7611d32565b9061287f565b5f610c2f8383610bfb611e07565b5f9283526020908152604080842073ffffffffffffffffffffffffffffffffffffffff909316845291905290205460ff1690565b9392505050565b606061069b6128cc565b610c6c7f6d696e74657200000000000000000000000000000000000000000000000000006108c1611365565b6108298484808060200260200160405190810160405280939291908181526020018383602002808284375f92019190915250506040805160208088028281018201909352878252909350879250869182918501908490808284375f92019190915250610cdb9250611223915050565b91906128de565b5f61069b610cee6117ea565b6002015473ffffffffffffffffffffffffffffffffffffffff1690565b8015610d1d57610d1d826106db61132e565b6106fe610d28611365565b8383610d32611223565b9291906129a2565b5f61069b610bb661132e565b5f610d4f611365565b9050610d5e818761080a61132e565b61077f818787878787610d6f611223565b959493929190612ad1565b610d85610792611365565b848381148015610d9457508082145b610dfa576040517f08c379a000000000000000000000000000000000000000000000000000000000815260206004820152601d60248201527f5265636f766572793a20696e636f6e73697374656e74206172726179730000006044820152606401610a46565b5f5b818114610ae757858582818110610e1557610e1561475e565b9050602002016020810190610e2a919061436b565b73ffffffffffffffffffffffffffffffffffffffff166323b872dd308a8a85818110610e5857610e5861475e565b9050602002016020810190610e6d919061436b565b878786818110610e7f57610e7f61475e565b6040517fffffffff0000000000000000000000000000000000000000000000000000000060e088901b16815273ffffffffffffffffffffffffffffffffffffffff9586166004820152949093166024850152506020909102013560448201526064015f604051808303815f87803b158015610ef8575f80fd5b505af1158015610f0a573d5f803e3d5ffd5b50505050806001019050610dfc565b6060610f27826109b1611223565b5061068b3083610f356117ea565b9190612b46565b5f610f45611365565b9050610f538161079a611633565b61087e838383610f61611e07565b929190612c02565b5f610c2f8383610f77611223565b919073ffffffffffffffffffffffffffffffffffffffff9182165f908152600393909301602090815260408085209290931684525290205460ff1690565b61087e610fc0611365565b848484610fcb611223565b93929190612cca565b6107ef610fdf611365565b82610fe8611633565b9190612f18565b5f610ff8611365565b9050611007818661080a61132e565b6110218186868686611017611223565b9493929190613043565b5050505050565b611033610792611365565b8281811461109d576040517f08c379a000000000000000000000000000000000000000000000000000000000815260206004820152601d60248201527f5265636f766572793a20696e636f6e73697374656e74206172726179730000006044820152606401610a46565b5f5b81811461077f576111058484838181106110bb576110bb61475e565b905060200201358787848181106110d4576110d461475e565b90506020020160208101906110e9919061436b565b73ffffffffffffffffffffffffffffffffffffffff16906133b7565b60010161109f565b5f8061068b60017fca9d3e17f264b0f3984e2634e94adb37fa3e6a8103f06aeae6fa59e21c769f5e6147b8565b5f7c01000000000000000000000000000000000000000000000000000000007fffffffff0000000000000000000000000000000000000000000000000000000083160161118857505f61068b565b7ffe003659000000000000000000000000000000000000000000000000000000007fffffffff000000000000000000000000000000000000000000000000000000008316016111d95750600161068b565b507fffffffff00000000000000000000000000000000000000000000000000000000165f908152602091909152604090205460ff1690565b606061069b61121e6117ea565b61350d565b5f8061068b60017fddf3ee18ae6d688373c219468f8be446e7ae82215f4779d821c7ea5e8c13c0c16147b8565b5f8181526020839052604081205473ffffffffffffffffffffffffffffffffffffffff81166112db576040517f08c379a000000000000000000000000000000000000000000000000000000000815260206004820152601a60248201527f4552433732313a206e6f6e2d6578697374696e6720746f6b656e0000000000006044820152606401610a46565b740100000000000000000000000000000000000000008116156113255750505f81815260028301602052604090205473ffffffffffffffffffffffffffffffffffffffff1661068b565b5f91505061068b565b5f8061068b60017f609b85bcafa81ecfaf3ff62cdde2c6c9082a68dbe4922f07399c706bdeb7cd316147b8565b6106fe82826135a0565b5f61069b6136c4565b5f8181526020859052604090205473ffffffffffffffffffffffffffffffffffffffff81166113f9576040517f08c379a000000000000000000000000000000000000000000000000000000000815260206004820152601a60248201527f4552433732313a206e6f6e2d6578697374696e6720746f6b656e0000000000006044820152606401610a46565b8073ffffffffffffffffffffffffffffffffffffffff8082169085160361147c576040517f08c379a000000000000000000000000000000000000000000000000000000000815260206004820152601560248201527f4552433732313a2073656c662d617070726f76616c00000000000000000000006044820152606401610a46565b611487868287613808565b6114ed576040517f08c379a000000000000000000000000000000000000000000000000000000000815260206004820152601b60248201527f4552433732313a206e6f6e2d617070726f7665642073656e64657200000000006044820152606401610a46565b73ffffffffffffffffffffffffffffffffffffffff8416611551577401000000000000000000000000000000000000000082161561154c575f83815260208790526040902073ffffffffffffffffffffffffffffffffffffffff821690555b6115d0565b740100000000000000000000000000000000000000008217808314611581575f8481526020889052604090208190555b505f838152600287016020526040902080547fffffffffffffffffffffffff00000000000000000000000000000000000000001673ffffffffffffffffffffffffffffffffffffffff86161790555b828473ffffffffffffffffffffffffffffffffffffffff168273ffffffffffffffffffffffffffffffffffffffff167f8c5be1e5ebec7d5bd14f71427d1e84f3dd0314c0f7b2291e5b200ac8c7c3b92560405160405180910390a4505050505050565b5f8061068b60017fc9ed16f33ab3a66c84bfd83099ccb2a8845871e2e1c1928f63797152f0fd54cd6147b8565b61169561168e60017f5b388d90dc1312ba799f321972f13311234fa1163bcabec7cf66101c4876eb846147b8565b600161387b565b6106fe82826138eb565b6116d47f80ac58cd0000000000000000000000000000000000000000000000000000000060016116cd61110d565b91906139a0565b565b6116d47ff3993d110000000000000000000000000000000000000000000000000000000060016116cd61110d565b6116d47f5b5e139f0000000000000000000000000000000000000000000000000000000060016116cd61110d565b6116d47f8e773e130000000000000000000000000000000000000000000000000000000060016116cd61110d565b6116d47f9da5e8320000000000000000000000000000000000000000000000000000000060016116cd61110d565b6116d47f8b8b4ef50000000000000000000000000000000000000000000000000000000060016116cd61110d565b6116d47f2a55205a0000000000000000000000000000000000000000000000000000000060016116cd61110d565b5f8061068b60017f7ea68fd2dcf1c056b94db6a0a537aa80d26fa9ab1eacd85da1ba0b61b7e7a8a56147b8565b61184561168e60017f92f72593ca50a0096f68ee94e7000db40ed086164b695855e2250750b8bfaf596147b8565b8561185185878361488e565b506001860161186183858361488e565b5060029590950180547fffffffffffffffffffffffff00000000000000000000000000000000000000001673ffffffffffffffffffffffffffffffffffffffff9096169590951790945550505050565b6118df61168e60017f2f02d396cb1be29636682c8684200b30a98554d3b74293aa4495cb5e1d252f6e6147b8565b81547fffffffffffffffffffffffff00000000000000000000000000000000000000001673ffffffffffffffffffffffffffffffffffffffff91909116179055565b815473ffffffffffffffffffffffffffffffffffffffff8281169116146106fe576040517f08c379a000000000000000000000000000000000000000000000000000000000815260206004820152601860248201527f4f776e6572736869703a206e6f7420746865206f776e657200000000000000006044820152606401610a46565b8073ffffffffffffffffffffffffffffffffffffffff168273ffffffffffffffffffffffffffffffffffffffff161461087e5761087e83836135a0565b73ffffffffffffffffffffffffffffffffffffffff8216611a5e576040517f08c379a000000000000000000000000000000000000000000000000000000000815260206004820152601e60248201527f4552433732313a207472616e7366657220746f206164647265737328302900006044820152606401610a46565b5f8181526020869052604090205473ffffffffffffffffffffffffffffffffffffffff8116611ae9576040517f08c379a000000000000000000000000000000000000000000000000000000000815260206004820152601a60248201527f4552433732313a206e6f6e2d6578697374696e6720746f6b656e0000000000006044820152606401610a46565b73ffffffffffffffffffffffffffffffffffffffff84168173ffffffffffffffffffffffffffffffffffffffff1614611b7e576040517f08c379a000000000000000000000000000000000000000000000000000000000815260206004820152601760248201527f4552433732313a206e6f6e2d6f776e656420746f6b656e0000000000000000006044820152606401610a46565b611b89868587613808565b611c405774010000000000000000000000000000000000000000811615158015611bda57505f82815260028701602052604090205473ffffffffffffffffffffffffffffffffffffffff8681169116145b611c40576040517f08c379a000000000000000000000000000000000000000000000000000000000815260206004820152601b60248201527f4552433732313a206e6f6e2d617070726f7665642073656e64657200000000006044820152606401610a46565b5f82815260208790526040902073ffffffffffffffffffffffffffffffffffffffff80851691829055851614611ccf5773ffffffffffffffffffffffffffffffffffffffff8085165f9081526001808901602052604080832080547fffffffffffffffffffffffffffffffffffffffffffffffffffffffffffffffff0190559286168252919020805490910190555b818373ffffffffffffffffffffffffffffffffffffffff168573ffffffffffffffffffffffffffffffffffffffff167fddf252ad1be2c89b69c2b068fc378daa952ba7f163c4a11628f55a4df523b3ef60405160405180910390a4505050505050565b5f8061068b60017f2c0cf10337caabbd02dcf226f05f5fd19a0919a41a8df8958c39b800078268586147b8565b825473ffffffffffffffffffffffffffffffffffffffff8116905f907401000000000000000000000000000000000000000090046bffffffffffffffffffffffff16831580611dac575080155b15611db9575f9150611dfe565b620186a0841015611de357620186a0611dd282866149a5565b611ddc91906149bc565b9150611dfe565b80611df1620186a0866149bc565b611dfb91906149a5565b91505b50935093915050565b5f8061068b60017fc8827d3282af6f37b64c3e9e6f3ac9df286ab0bb0fccd6f8661bf19adb368b236147b8565b5f8381526020858152604080832073ffffffffffffffffffffffffffffffffffffffff8616845290915290205460ff16610829575f8381526020858152604080832073ffffffffffffffffffffffffffffffffffffffff8681168086529184529382902080547fffffffffffffffffffffffffffffffffffffffffffffffffffffffffffffff00166001179055815187815292830152918316918101919091527f2f8788117e7eff1d82e926ec794901d17c78024a50270940304540a733656f0d906060015b60405180910390a150505050565b365f61088d613aab565b5f8281526020848152604080832073ffffffffffffffffffffffffffffffffffffffff8516845290915290205460ff1661087e57611f4f82613c10565b604051602001611f5f91906149f4565b604080517fffffffffffffffffffffffffffffffffffffffffffffffffffffffffffffffe0818403018152908290527f08c379a0000000000000000000000000000000000000000000000000000000008252610a469160040161422a565b73ffffffffffffffffffffffffffffffffffffffff821661203a576040517f08c379a000000000000000000000000000000000000000000000000000000000815260206004820152601a60248201527f4552433732313a206d696e7420746f20616464726573732830290000000000006044820152606401610a46565b5f8181526020849052604090205473ffffffffffffffffffffffffffffffffffffffff16156120c5576040517f08c379a000000000000000000000000000000000000000000000000000000000815260206004820152601660248201527f4552433732313a206578697374696e6720746f6b656e000000000000000000006044820152606401610a46565b5f8181526020848152604080832073ffffffffffffffffffffffffffffffffffffffff86169081905580845260018088019093528184208054909301909255518392907fddf252ad1be2c89b69c2b068fc378daa952ba7f163c4a11628f55a4df523b3ef908290a4505050565b61213f85858585856119e1565b73ffffffffffffffffffffffffffffffffffffffff82163b15611021576110218484848460405180602001604052805f815250613d9b565b73ffffffffffffffffffffffffffffffffffffffff82166121f4576040517f08c379a000000000000000000000000000000000000000000000000000000000815260206004820152601a60248201527f4552433732313a206d696e7420746f20616464726573732830290000000000006044820152606401610a46565b80515f5b818114612310575f8382815181106122125761221261475e565b6020026020010151905061224d865f015f8381526020019081526020015f205473ffffffffffffffffffffffffffffffffffffffff16151590565b156122b4576040517f08c379a000000000000000000000000000000000000000000000000000000000815260206004820152601660248201527f4552433732313a206578697374696e6720746f6b656e000000000000000000006044820152606401610a46565b5f8181526020879052604080822073ffffffffffffffffffffffffffffffffffffffff88169081905590518392907fddf252ad1be2c89b69c2b068fc378daa952ba7f163c4a11628f55a4df523b3ef908290a4506001016121f8565b5073ffffffffffffffffffffffffffffffffffffffff9092165f908152600190930160205250604090912080549091019055565b620186a0811115612384576040517f3affc6c400000000000000000000000000000000000000000000000000000000815260048101829052602401610a46565b81546bffffffffffffffffffffffff909116740100000000000000000000000000000000000000000273ffffffffffffffffffffffffffffffffffffffff909116179055565b5f8181526020839052604081205473ffffffffffffffffffffffffffffffffffffffff8116612455576040517f08c379a000000000000000000000000000000000000000000000000000000000815260206004820152601a60248201527f4552433732313a206e6f6e2d6578697374696e6720746f6b656e0000000000006044820152606401610a46565b805b949350505050565b5f73ffffffffffffffffffffffffffffffffffffffff82166124dd576040517f08c379a000000000000000000000000000000000000000000000000000000000815260206004820152601d60248201527f4552433732313a2062616c616e6365206f6620616464726573732830290000006044820152606401610a46565b5073ffffffffffffffffffffffffffffffffffffffff165f908152600191909101602052604090205490565b6040805173ffffffffffffffffffffffffffffffffffffffff8416602482015260448082018490528251808303909101815260649091019091526020810180517bffffffffffffffffffffffffffffffffffffffffffffffffffffffff167fa9059cbb0000000000000000000000000000000000000000000000000000000017905261087e908490613ebe565b5f818152602085905260409020548073ffffffffffffffffffffffffffffffffffffffff168373ffffffffffffffffffffffffffffffffffffffff1614612639576040517f08c379a000000000000000000000000000000000000000000000000000000000815260206004820152601760248201527f4552433732313a206e6f6e2d6f776e656420746f6b656e0000000000000000006044820152606401610a46565b612644858486613808565b6126fb577401000000000000000000000000000000000000000081161515801561269557505f82815260028601602052604090205473ffffffffffffffffffffffffffffffffffffffff8581169116145b6126fb576040517f08c379a000000000000000000000000000000000000000000000000000000000815260206004820152601b60248201527f4552433732313a206e6f6e2d617070726f7665642073656e64657200000000006044820152606401610a46565b5f828152602086815260408083207fdead000000000000000000000000000000000000000000000000000000000000905573ffffffffffffffffffffffffffffffffffffffff86168084526001890190925280832080547fffffffffffffffffffffffffffffffffffffffffffffffffffffffffffffffff01905551849291907fddf252ad1be2c89b69c2b068fc378daa952ba7f163c4a11628f55a4df523b3ef908390a45050505050565b6127b2858484611fbd565b73ffffffffffffffffffffffffffffffffffffffff83163b1561102157611021845f858585613d9b565b6127e7838284611f12565b5f8181526020848152604080832073ffffffffffffffffffffffffffffffffffffffff86168085529083529281902080547fffffffffffffffffffffffffffffffffffffffffffffffffffffffffffffff0016905580518481529182018390528101919091527ff6391f5c32d9c69d2a47ea670b442974b53935d1edc7fd64eb21e047a839171b9060600160405180910390a1505050565b73ffffffffffffffffffffffffffffffffffffffff81166118df576040517f6fe1b4c800000000000000000000000000000000000000000000000000000000815260040160405180910390fd5b606061069b6128d96117ea565b613fcb565b81518151811461294a576040517f08c379a000000000000000000000000000000000000000000000000000000000815260206004820152601b60248201527f4552433732313a20696e636f6e73697374656e742061727261797300000000006044820152606401610a46565b5f5b8181146110215761299a8482815181106129685761296861475e565b60200260200101518483815181106129825761298261475e565b602002602001015187611fbd9092919063ffffffff16565b60010161294c565b8273ffffffffffffffffffffffffffffffffffffffff168273ffffffffffffffffffffffffffffffffffffffff1603612a37576040517f08c379a000000000000000000000000000000000000000000000000000000000815260206004820152601d60248201527f4552433732313a2073656c662d617070726f76616c20666f7220616c6c0000006044820152606401610a46565b73ffffffffffffffffffffffffffffffffffffffff8381165f81815260038701602090815260408083209487168084529482529182902080547fffffffffffffffffffffffffffffffffffffffffffffffffffffffffffffff001686151590811790915591519182527f17307eab39ab6107e8899845ad3d59bd9653f200f220920489ca2b5937696c31910160405180910390a350505050565b612ade87878787876119e1565b73ffffffffffffffffffffffffffffffffffffffff84163b15612b3d57612b3d8686868686868080601f0160208091040260200160405190810160405280939291908181526020018383808284375f92019190915250613d9b92505050565b50505050505050565b60028301546040517ff724dad700000000000000000000000000000000000000000000000000000000815273ffffffffffffffffffffffffffffffffffffffff848116600483015260248201849052606092169063f724dad7906044015f60405180830381865afa158015612bbd573d5f803e3d5ffd5b505050506040513d5f823e601f3d9081017fffffffffffffffffffffffffffffffffffffffffffffffffffffffffffffffe01682016040526124579190810190614a5f565b5f8381526020858152604080832073ffffffffffffffffffffffffffffffffffffffff8616845290915290205460ff1615610829575f8381526020858152604080832073ffffffffffffffffffffffffffffffffffffffff8681168086529184529382902080547fffffffffffffffffffffffffffffffffffffffffffffffffffffffffffffff00169055815187815292830152918316918101919091527ff6391f5c32d9c69d2a47ea670b442974b53935d1edc7fd64eb21e047a839171b90606001611efa565b5f612cd6868587613808565b9050815f5b818114612edb575f858583818110612cf557612cf561475e565b602090810292909201355f818152928c905260409092205491925081905073ffffffffffffffffffffffffffffffffffffffff168873ffffffffffffffffffffffffffffffffffffffff1614612da7576040517f08c379a000000000000000000000000000000000000000000000000000000000815260206004820152601760248201527f4552433732313a206e6f6e2d6f776e656420746f6b656e0000000000000000006044820152606401610a46565b84612e5f5774010000000000000000000000000000000000000000811615158015612df957505f82815260028b01602052604090205473ffffffffffffffffffffffffffffffffffffffff8a81169116145b612e5f576040517f08c379a000000000000000000000000000000000000000000000000000000000815260206004820152601b60248201527f4552433732313a206e6f6e2d617070726f7665642073656e64657200000000006044820152606401610a46565b5f82815260208b905260408082207fdead00000000000000000000000000000000000000000000000000000000000090555183919073ffffffffffffffffffffffffffffffffffffffff8b16907fddf252ad1be2c89b69c2b068fc378daa952ba7f163c4a11628f55a4df523b3ef908390a45050600101612cdb565b508015612b3d5773ffffffffffffffffffffffffffffffffffffffff85165f90815260018801602052604090208054829003905550505050505050565b825473ffffffffffffffffffffffffffffffffffffffff9081169083168114612f9d576040517f08c379a000000000000000000000000000000000000000000000000000000000815260206004820152601860248201527f4f776e6572736869703a206e6f7420746865206f776e657200000000000000006044820152606401610a46565b8173ffffffffffffffffffffffffffffffffffffffff168173ffffffffffffffffffffffffffffffffffffffff16146108295783547fffffffffffffffffffffffff00000000000000000000000000000000000000001673ffffffffffffffffffffffffffffffffffffffff8381169182178655604051908316907f8be0079c531659141344cd1fd0a4f28419497f9722a3daafe3b4186f6b6457e0905f90a350505050565b73ffffffffffffffffffffffffffffffffffffffff83166130c0576040517f08c379a000000000000000000000000000000000000000000000000000000000815260206004820152601e60248201527f4552433732313a207472616e7366657220746f206164647265737328302900006044820152606401610a46565b5f6130cc878688613808565b9050815f5b818114613331575f8585838181106130eb576130eb61475e565b602090810292909201355f818152928d90526040909220549192505073ffffffffffffffffffffffffffffffffffffffff8116613184576040517f08c379a000000000000000000000000000000000000000000000000000000000815260206004820152601a60248201527f4552433732313a206e6f6e2d6578697374696e6720746f6b656e0000000000006044820152606401610a46565b73ffffffffffffffffffffffffffffffffffffffff89168173ffffffffffffffffffffffffffffffffffffffff1614613219576040517f08c379a000000000000000000000000000000000000000000000000000000000815260206004820152601760248201527f4552433732313a206e6f6e2d6f776e656420746f6b656e0000000000000000006044820152606401610a46565b846132d1577401000000000000000000000000000000000000000081161515801561326b57505f82815260028c01602052604090205473ffffffffffffffffffffffffffffffffffffffff8b81169116145b6132d1576040517f08c379a000000000000000000000000000000000000000000000000000000000815260206004820152601b60248201527f4552433732313a206e6f6e2d617070726f7665642073656e64657200000000006044820152606401610a46565b5f82815260208c9052604080822073ffffffffffffffffffffffffffffffffffffffff808c16918290559151859391928d16917fddf252ad1be2c89b69c2b068fc378daa952ba7f163c4a11628f55a4df523b3ef91a450506001016130d1565b508473ffffffffffffffffffffffffffffffffffffffff168673ffffffffffffffffffffffffffffffffffffffff161415801561336d57508015155b15610ae75773ffffffffffffffffffffffffffffffffffffffff8087165f90815260018a016020526040808220805485900390559187168152208054820190555050505050505050565b80471015613421576040517f08c379a000000000000000000000000000000000000000000000000000000000815260206004820152601d60248201527f416464726573733a20696e73756666696369656e742062616c616e63650000006044820152606401610a46565b5f8273ffffffffffffffffffffffffffffffffffffffff16826040515f6040518083038185875af1925050503d805f8114613477576040519150601f19603f3d011682016040523d82523d5f602084013e61347c565b606091505b505090508061087e576040517f08c379a000000000000000000000000000000000000000000000000000000000815260206004820152603a60248201527f416464726573733a20756e61626c6520746f2073656e642076616c75652c207260448201527f6563697069656e74206d617920686176652072657665727465640000000000006064820152608401610a46565b6060815f01805461351d906147f8565b80601f0160208091040260200160405190810160405280929190818152602001828054613549906147f8565b80156135945780601f1061356b57610100808354040283529160200191613594565b820191905f5260205f20905b81548152906001019060200180831161357757829003601f168201915b50505050509050919050565b815473ffffffffffffffffffffffffffffffffffffffff1680158015906135dd57505f8173ffffffffffffffffffffffffffffffffffffffff163b115b1561087e576040517fc617113400000000000000000000000000000000000000000000000000000000815230600482015273ffffffffffffffffffffffffffffffffffffffff838116602483015282169063c617113490604401602060405180830381865afa158015613652573d5f803e3d5ffd5b505050506040513d601f19601f820116820180604052508101906136769190614b1a565b61087e576040517fede71dcc00000000000000000000000000000000000000000000000000000000815273ffffffffffffffffffffffffffffffffffffffff83166004820152602401610a46565b5f333214806136d35750601836105b156136dd57503390565b7fffffffffffffffffffffffffffffffffffffffffffffffffffffffffffffffec36013560601c7f000000000000000000000000000000000000000000000000000000000000000073ffffffffffffffffffffffffffffffffffffffff163314806137f757506040517f8929a8ca00000000000000000000000000000000000000000000000000000000815273ffffffffffffffffffffffffffffffffffffffff82811660048301523360248301527f00000000000000000000000000000000000000000000000000000000000000001690638929a8ca90604401602060405180830381865afa1580156137d3573d5f803e3d5ffd5b505050506040513d601f19601f820116820180604052508101906137f79190614b1a565b1561380157919050565b3391505090565b5f8173ffffffffffffffffffffffffffffffffffffffff168373ffffffffffffffffffffffffffffffffffffffff16148061245757505073ffffffffffffffffffffffffffffffffffffffff9182165f908152600393909301602090815260408085209290931684525290205460ff1690565b8154829082116138e7576040517f08c379a000000000000000000000000000000000000000000000000000000000815260206004820152601660248201527f53746f726167653a2070686173652072656163686564000000000000000000006044820152606401610a46565b5550565b73ffffffffffffffffffffffffffffffffffffffff8116156139725781547fffffffffffffffffffffffff00000000000000000000000000000000000000001673ffffffffffffffffffffffffffffffffffffffff821690811783556040515f907f8be0079c531659141344cd1fd0a4f28419497f9722a3daafe3b4186f6b6457e0908290a35b6106fe7f7f5828d00000000000000000000000000000000000000000000000000000000060016116cd61110d565b7c01000000000000000000000000000000000000000000000000000000007fffffffff00000000000000000000000000000000000000000000000000000000831601613a48576040517f08c379a000000000000000000000000000000000000000000000000000000000815260206004820152601f60248201527f496e74657266616365446574656374696f6e3a2077726f6e672076616c7565006044820152606401610a46565b7fffffffff00000000000000000000000000000000000000000000000000000000919091165f908152602092909252604090912080547fffffffffffffffffffffffffffffffffffffffffffffffffffffffffffffff0016911515919091179055565b365f33321480613abb5750601836105b15613ac857505f91369150565b3373ffffffffffffffffffffffffffffffffffffffff7f0000000000000000000000000000000000000000000000000000000000000000161480613bfb575073ffffffffffffffffffffffffffffffffffffffff7f000000000000000000000000000000000000000000000000000000000000000016638929a8ca367fffffffffffffffffffffffffffffffffffffffffffffffffffffffffffffffec013560601c6040517fffffffff0000000000000000000000000000000000000000000000000000000060e084901b16815273ffffffffffffffffffffffffffffffffffffffff9091166004820152336024820152604401602060405180830381865afa158015613bd7573d5f803e3d5ffd5b505050506040513d601f19601f82011682018060405250810190613bfb9190614b1a565b15613c085761088d613fdc565b505f91369150565b60605f829003613c2d57505060408051602081019091525f815290565b5f82604051602001613c4191815260200190565b604080517fffffffffffffffffffffffffffffffffffffffffffffffffffffffffffffffe08184030181529190529050601f5b818181518110613c8657613c8661475e565b01602001517fff00000000000000000000000000000000000000000000000000000000000000165f03613cda577fffffffffffffffffffffffffffffffffffffffffffffffffffffffffffffffff01613c74565b5f8160010167ffffffffffffffff811115613cf757613cf76147cb565b6040519080825280601f01601f191660200182016040528015613d21576020820181803683370190505b5090505f5b828111613d9257838181518110613d3f57613d3f61475e565b602001015160f81c60f81b828281518110613d5c57613d5c61475e565b60200101907effffffffffffffffffffffffffffffffffffffffffffffffffffffffffffff191690815f1a905350600101613d26565b50949350505050565b6040517f150b7a02000000000000000000000000000000000000000000000000000000008082529073ffffffffffffffffffffffffffffffffffffffff85169063150b7a0290613df5908990899088908890600401614b35565b6020604051808303815f875af1158015613e11573d5f803e3d5ffd5b505050506040513d601f19601f82011682018060405250810190613e359190614b7d565b7fffffffff000000000000000000000000000000000000000000000000000000001614611021576040517f08c379a000000000000000000000000000000000000000000000000000000000815260206004820152601e60248201527f4552433732313a2073616665207472616e736665722072656a656374656400006044820152606401610a46565b5f613f1f826040518060400160405280602081526020017f5361666545524332303a206c6f772d6c6576656c2063616c6c206661696c65648152508573ffffffffffffffffffffffffffffffffffffffff1661400c9092919063ffffffff16565b905080515f1480613f3f575080806020019051810190613f3f9190614b1a565b61087e576040517f08c379a000000000000000000000000000000000000000000000000000000000815260206004820152602a60248201527f5361666545524332303a204552433230206f7065726174696f6e20646964206e60448201527f6f742073756363656564000000000000000000000000000000000000000000006064820152608401610a46565b606081600101805461351d906147f8565b365f61088d7fffffffffffffffffffffffffffffffffffffffffffffffffffffffffffffffec8301828481614b98565b606061245784845f85855f808673ffffffffffffffffffffffffffffffffffffffff16858760405161403e9190614bbf565b5f6040518083038185875af1925050503d805f8114614078576040519150601f19603f3d011682016040523d82523d5f602084013e61407d565b606091505b509150915061408e87838387614099565b979650505050505050565b6060831561412e5782515f036141275773ffffffffffffffffffffffffffffffffffffffff85163b614127576040517f08c379a000000000000000000000000000000000000000000000000000000000815260206004820152601d60248201527f416464726573733a2063616c6c20746f206e6f6e2d636f6e74726163740000006044820152606401610a46565b5081612457565b61245783838151156141435781518083602001fd5b806040517f08c379a0000000000000000000000000000000000000000000000000000000008152600401610a46919061422a565b7fffffffff00000000000000000000000000000000000000000000000000000000811681146107ef575f80fd5b5f602082840312156141b4575f80fd5b8135610c2f81614177565b5f5b838110156141d95781810151838201526020016141c1565b50505f910152565b5f81518084526141f88160208601602086016141bf565b601f017fffffffffffffffffffffffffffffffffffffffffffffffffffffffffffffffe0169290920160200192915050565b602081525f610c2f60208301846141e1565b5f6020828403121561424c575f80fd5b5035919050565b73ffffffffffffffffffffffffffffffffffffffff811681146107ef575f80fd5b5f8060408385031215614285575f80fd5b823561429081614253565b946020939093013593505050565b5f8083601f8401126142ae575f80fd5b50813567ffffffffffffffff8111156142c5575f80fd5b60208301915083602082850101111561084a575f80fd5b5f805f805f80608087890312156142f1575f80fd5b863567ffffffffffffffff80821115614308575f80fd5b6143148a838b0161429e565b9098509650602089013591508082111561432c575f80fd5b5061433989828a0161429e565b909550935050604087013561434d81614253565b9150606087013561435d81614253565b809150509295509295509295565b5f6020828403121561437b575f80fd5b8135610c2f81614253565b5f805f60608486031215614398575f80fd5b83356143a381614253565b925060208401356143b381614253565b929592945050506040919091013590565b5f80604083850312156143d5575f80fd5b50508035926020909101359150565b5f80604083850312156143f5575f80fd5b82359150602083013561440781614253565b809150509250929050565b60208152816020820152818360408301375f818301604090810191909152601f9092017fffffffffffffffffffffffffffffffffffffffffffffffffffffffffffffffe0160101919050565b5f8083601f84011261446e575f80fd5b50813567ffffffffffffffff811115614485575f80fd5b6020830191508360208260051b850101111561084a575f80fd5b5f805f604084860312156144b1575f80fd5b83356144bc81614253565b9250602084013567ffffffffffffffff8111156144d7575f80fd5b6144e38682870161445e565b9497909650939450505050565b5f805f805f8060608789031215614505575f80fd5b863567ffffffffffffffff8082111561451c575f80fd5b6145288a838b0161445e565b90985096506020890135915080821115614540575f80fd5b61454c8a838b0161445e565b90965094506040890135915080821115614564575f80fd5b5061457189828a0161445e565b979a9699509497509295939492505050565b5f805f8060608587031215614596575f80fd5b84356145a181614253565b935060208501359250604085013567ffffffffffffffff8111156145c3575f80fd5b6145cf8782880161429e565b95989497509550505050565b5f805f80604085870312156145ee575f80fd5b843567ffffffffffffffff80821115614605575f80fd5b6146118883890161445e565b90965094506020870135915080821115614629575f80fd5b506145cf8782880161445e565b80151581146107ef575f80fd5b5f8060408385031215614654575f80fd5b823561465f81614253565b9150602083013561440781614636565b5f805f805f60808688031215614683575f80fd5b853561468e81614253565b9450602086013561469e81614253565b935060408601359250606086013567ffffffffffffffff8111156146c0575f80fd5b6146cc8882890161429e565b969995985093965092949392505050565b5f80604083850312156146ee575f80fd5b82356146f981614253565b9150602083013561440781614253565b5f805f806060858703121561471c575f80fd5b843561472781614253565b9350602085013561473781614253565b9250604085013567ffffffffffffffff811115614752575f80fd5b6145cf8782880161445e565b7f4e487b71000000000000000000000000000000000000000000000000000000005f52603260045260245ffd5b7f4e487b71000000000000000000000000000000000000000000000000000000005f52601160045260245ffd5b8181038181111561068b5761068b61478b565b7f4e487b71000000000000000000000000000000000000000000000000000000005f52604160045260245ffd5b600181811c9082168061480c57607f821691505b602082108103614843577f4e487b71000000000000000000000000000000000000000000000000000000005f52602260045260245ffd5b50919050565b601f82111561087e575f81815260208120601f850160051c8101602086101561486f5750805b601f850160051c820191505b8181101561077f5782815560010161487b565b67ffffffffffffffff8311156148a6576148a66147cb565b6148ba836148b483546147f8565b83614849565b5f601f84116001811461490a575f85156148d45750838201355b7fffffffffffffffffffffffffffffffffffffffffffffffffffffffffffffffff600387901b1c1916600186901b178355611021565b5f838152602090207fffffffffffffffffffffffffffffffffffffffffffffffffffffffffffffffe0861690835b828110156149585786850135825560209485019460019092019101614938565b5086821015614993577fffffffffffffffffffffffffffffffffffffffffffffffffffffffffffffffff60f88860031b161c19848701351681555b505060018560011b0183555050505050565b808202811582820484141761068b5761068b61478b565b5f826149ef577f4e487b71000000000000000000000000000000000000000000000000000000005f52601260045260245ffd5b500490565b7f416363657373436f6e74726f6c3a206d697373696e672027000000000000000081525f8251614a2b8160188501602087016141bf565b7f2720726f6c6500000000000000000000000000000000000000000000000000006018939091019283015250601e01919050565b5f60208284031215614a6f575f80fd5b815167ffffffffffffffff80821115614a86575f80fd5b818401915084601f830112614a99575f80fd5b815181811115614aab57614aab6147cb565b604051601f82017fffffffffffffffffffffffffffffffffffffffffffffffffffffffffffffffe0908116603f01168101908382118183101715614af157614af16147cb565b81604052828152876020848701011115614b09575f80fd5b61408e8360208301602088016141bf565b5f60208284031215614b2a575f80fd5b8151610c2f81614636565b5f73ffffffffffffffffffffffffffffffffffffffff808716835280861660208401525083604083015260806060830152614b7360808301846141e1565b9695505050505050565b5f60208284031215614b8d575f80fd5b8151610c2f81614177565b5f8085851115614ba6575f80fd5b83861115614bb2575f80fd5b5050820193919092039150565b5f8251614bd08184602087016141bf565b919091019291505056fea26469706673582212200ac9a9d0d3cd544a8d6d2b915b9a688be38f13e94ce7aa972dff30284291c69564736f6c63430008150033",
  "linkReferences": {},
  "deployedLinkReferences": {}
}