{
  "_format": "hh-sol-artifact-1",
  "contractName": "ForwarderRegistry",
  "sourceName": "contracts/metatx/ForwarderRegistry.sol",
  "abi": [
    {
      "inputs": [],
      "stateMutability": "nonpayable",
      "type": "constructor"
    },
    {
      "inputs": [
        {
          "internalType": "address",
          "name": "sender",
          "type": "address"
        },
        {
          "internalType": "address",
          "name": "forwarder",
          "type": "address"
        }
      ],
      "name": "ForwarderNotApproved",
      "type": "error"
    },
    {
      "inputs": [],
      "name": "InvalidEIP1271Signature",
      "type": "error"
    },
    {
      "inputs": [],
      "name": "WrongSigner",
      "type": "error"
    },
    {
      "anonymous": false,
      "inputs": [
        {
          "indexed": true,
          "internalType": "address",
          "name": "sender",
          "type": "address"
        },
        {
          "indexed": true,
          "internalType": "address",
          "name": "forwarder",
          "type": "address"
        },
        {
          "indexed": false,
          "internalType": "bool",
          "name": "approved",
          "type": "bool"
        },
        {
          "indexed": false,
          "internalType": "uint256",
          "name": "nonce",
          "type": "uint256"
        }
      ],
      "name": "ForwarderApproval",
      "type": "event"
    },
    {
      "inputs": [],
      "name": "DOMAIN_SEPARATOR",
      "outputs": [
        {
          "internalType": "bytes32",
          "name": "domainSeparator",
          "type": "bytes32"
        }
      ],
      "stateMutability": "view",
      "type": "function"
    },
    {
      "inputs": [
        {
          "internalType": "bytes",
          "name": "signature",
          "type": "bytes"
        },
        {
          "internalType": "bool",
          "name": "isEIP1271Signature",
          "type": "bool"
        },
        {
          "internalType": "address",
          "name": "target",
          "type": "address"
        },
        {
          "internalType": "bytes",
          "name": "data",
          "type": "bytes"
        }
      ],
      "name": "approveAndForward",
      "outputs": [],
      "stateMutability": "payable",
      "type": "function"
    },
    {
      "inputs": [
        {
          "internalType": "address",
          "name": "target",
          "type": "address"
        },
        {
          "internalType": "bytes",
          "name": "data",
          "type": "bytes"
        }
      ],
      "name": "forward",
      "outputs": [],
      "stateMutability": "payable",
      "type": "function"
    },
    {
      "inputs": [
        {
          "internalType": "address",
          "name": "sender",
          "type": "address"
        },
        {
          "internalType": "address",
          "name": "forwarder",
          "type": "address"
        }
      ],
      "name": "getNonce",
      "outputs": [
        {
          "internalType": "uint256",
          "name": "nonce",
          "type": "uint256"
        }
      ],
      "stateMutability": "view",
      "type": "function"
    },
    {
      "inputs": [
        {
          "internalType": "address",
          "name": "sender",
          "type": "address"
        },
        {
          "internalType": "address",
          "name": "forwarder",
          "type": "address"
        }
      ],
      "name": "isApprovedForwarder",
      "outputs": [
        {
          "internalType": "bool",
          "name": "",
          "type": "bool"
        }
      ],
      "stateMutability": "view",
      "type": "function"
    },
    {
      "inputs": [
        {
          "internalType": "address",
          "name": "",
          "type": "address"
        }
      ],
      "name": "isTrustedForwarder",
      "outputs": [
        {
          "internalType": "bool",
          "name": "",
          "type": "bool"
        }
      ],
      "stateMutability": "pure",
      "type": "function"
    },
    {
      "inputs": [
        {
          "internalType": "address",
          "name": "forwarder",
          "type": "address"
        }
      ],
      "name": "removeForwarderApproval",
      "outputs": [],
      "stateMutability": "nonpayable",
      "type": "function"
    },
    {
      "inputs": [
        {
          "internalType": "address",
          "name": "sender",
          "type": "address"
        },
        {
          "internalType": "address",
          "name": "forwarder",
          "type": "address"
        },
        {
          "internalType": "bool",
          "name": "approved",
          "type": "bool"
        },
        {
          "internalType": "bytes",
          "name": "signature",
          "type": "bytes"
        },
        {
          "internalType": "bool",
          "name": "isEIP1271Signature",
          "type": "bool"
        }
      ],
      "name": "setForwarderApproval",
      "outputs": [],
      "stateMutability": "nonpayable",
      "type": "function"
    }
  ],
  "bytecode": "0x60c060405234801561000f575f80fd5b50466080818152604080517f8cad95687ba82c2ce50e74f7b754645e5117c3a5bec8151c0726d5857980a8666020808301919091527f06a520fda4ca688235391b02e357c6a65eb2a3bb40a69c0199f3f7f9cccee041828401526060820185905230828501528251808303909401845260a0909101909152815191012060a0525060805160a0516111bb6100b15f395f6102ca01525f61022301526111bb5ff3fe608060405260043610610079575f3560e01c80638929a8ca1161004c5780638929a8ca146101085780639438f7f31461017d5780639c6a442414610190578063d828435d146101af575f80fd5b80633644e5151461007d578063572b6c05146100a45780636ed0f382146100d45780636fadcf72146100f5575b5f80fd5b348015610088575f80fd5b5061009161021f565b6040519081526020015b60405180910390f35b3480156100af575f80fd5b506100c46100be366004610ddc565b50600190565b604051901515815260200161009b565b3480156100df575f80fd5b506100f36100ee366004610ddc565b6102f0565b005b6100f3610103366004610e3a565b610354565b348015610113575f80fd5b506100c4610122366004610e89565b73ffffffffffffffffffffffffffffffffffffffff9182165f908152602081815260408083209390941682529190915220547f0100000000000000000000000000000000000000000000000000000000000000900460ff1690565b6100f361018b366004610ec9565b61047c565b34801561019b575f80fd5b506100f36101aa366004610f57565b6104d4565b3480156101ba575f80fd5b506100916101c9366004610e89565b73ffffffffffffffffffffffffffffffffffffffff9182165f908152602081815260408083209390941682529190915220547effffffffffffffffffffffffffffffffffffffffffffffffffffffffffffff1690565b5f467f000000000000000000000000000000000000000000000000000000000000000081146102c857604080517f8cad95687ba82c2ce50e74f7b754645e5117c3a5bec8151c0726d5857980a8666020808301919091527f06a520fda4ca688235391b02e357c6a65eb2a3bb40a69c0199f3f7f9cccee0418284015260608201849052306080808401919091528351808403909101815260a090920190925280519101206102ea565b7f00000000000000000000000000000000000000000000000000000000000000005b91505090565b335f8181526020818152604080832073ffffffffffffffffffffffffffffffffffffffff861684529091528120805490926103509284928691907effffffffffffffffffffffffffffffffffffffffffffffffffffffffffffff1661053e565b5050565b367fffffffffffffffffffffffffffffffffffffffffffffffffffffffffffffffec013560601c5f818152602081815260408083203384529091529020547f0100000000000000000000000000000000000000000000000000000000000000900460ff16610411576040517f3e29ee2e00000000000000000000000000000000000000000000000000000000815273ffffffffffffffffffffffffffffffffffffffff821660048201523360248201526044015b60405180910390fd5b61047583838360405160200161042993929190610fd7565b604080517fffffffffffffffffffffffffffffffffffffffffffffffffffffffffffffffe081840301815291905273ffffffffffffffffffffffffffffffffffffffff8616903461060e565b5050505050565b7fffffffffffffffffffffffffffffffffffffffffffffffffffffffffffffffec36013560601c6104b2813360018a8a8a6104d4565b6104ca83838360405160200161042993929190610fd7565b5050505050505050565b73ffffffffffffffffffffffffffffffffffffffff8087165f9081526020818152604080832093891683529290522080547effffffffffffffffffffffffffffffffffffffffffffffffffffffffffffff166105358888888489898961063c565b6104ca82898989855b600181017effffffffffffffffffffffffffffffffffffffffffffffffffffffffffffff168215157f010000000000000000000000000000000000000000000000000000000000000081027fff0000000000000000000000000000000000000000000000000000000000000016919091178655604080519182526020820183905273ffffffffffffffffffffffffffffffffffffffff85811692908716917f1e416512661bbe7bb72d89bfee596249d7767c125e8c56cf7cf82ee698b63a6a910160405180910390a35050505050565b606061063484848460405180606001604052806029815260200161115d602991396108bb565b949350505050565b5f61064561021f565b604080517f510634d3c850f3aab02dc8ab54bbb9b76a576f7e4edd8462a252673876bec9e5602082015273ffffffffffffffffffffffffffffffffffffffff808c16928201929092529089166060820152871515608082015260a0810187905260c001604051602081830303815290604052805190602001206040516020016107009291907f190100000000000000000000000000000000000000000000000000000000000081526002810192909252602282015260420190565b6040516020818303038152906040529050811561081157805160208201206040517f1626ba7e000000000000000000000000000000000000000000000000000000008082529173ffffffffffffffffffffffffffffffffffffffff8b1691631626ba7e916107749189908990600401611010565b602060405180830381865afa15801561078f573d5f803e3d5ffd5b505050506040513d601f19601f820116820180604052508101906107b39190611063565b7fffffffff00000000000000000000000000000000000000000000000000000000161461080c576040517f5d52cbe300000000000000000000000000000000000000000000000000000000815260040160405180910390fd5b6104ca565b8773ffffffffffffffffffffffffffffffffffffffff1661086e85858080601f0160208091040260200160405190810160405280939291908181526020018383808284375f920191909152505085516020870120929150506109d0565b73ffffffffffffffffffffffffffffffffffffffff16146104ca576040517fa7932e6a00000000000000000000000000000000000000000000000000000000815260040160405180910390fd5b60608247101561094d576040517f08c379a000000000000000000000000000000000000000000000000000000000815260206004820152602660248201527f416464726573733a20696e73756666696369656e742062616c616e636520666f60448201527f722063616c6c00000000000000000000000000000000000000000000000000006064820152608401610408565b5f808673ffffffffffffffffffffffffffffffffffffffff16858760405161097591906110c4565b5f6040518083038185875af1925050503d805f81146109af576040519150601f19603f3d011682016040523d82523d5f602084013e6109b4565b606091505b50915091506109c5878383876109f2565b979650505050505050565b5f805f6109dd8585610a91565b915091506109ea81610ad3565b509392505050565b60608315610a875782515f03610a805773ffffffffffffffffffffffffffffffffffffffff85163b610a80576040517f08c379a000000000000000000000000000000000000000000000000000000000815260206004820152601d60248201527f416464726573733a2063616c6c20746f206e6f6e2d636f6e74726163740000006044820152606401610408565b5081610634565b6106348383610c88565b5f808251604103610ac5576020830151604084015160608501515f1a610ab987828585610ccc565b94509450505050610acc565b505f905060025b9250929050565b5f816004811115610ae657610ae66110df565b03610aee5750565b6001816004811115610b0257610b026110df565b03610b69576040517f08c379a000000000000000000000000000000000000000000000000000000000815260206004820152601860248201527f45434453413a20696e76616c6964207369676e617475726500000000000000006044820152606401610408565b6002816004811115610b7d57610b7d6110df565b03610be4576040517f08c379a000000000000000000000000000000000000000000000000000000000815260206004820152601f60248201527f45434453413a20696e76616c6964207369676e6174757265206c656e677468006044820152606401610408565b6003816004811115610bf857610bf86110df565b03610c85576040517f08c379a000000000000000000000000000000000000000000000000000000000815260206004820152602260248201527f45434453413a20696e76616c6964207369676e6174757265202773272076616c60448201527f75650000000000000000000000000000000000000000000000000000000000006064820152608401610408565b50565b815115610c985781518083602001fd5b806040517f08c379a0000000000000000000000000000000000000000000000000000000008152600401610408919061110c565b5f807f7fffffffffffffffffffffffffffffff5d576e7357a4501ddfe92f46681b20a0831115610d0157505f90506003610dab565b604080515f8082526020820180845289905260ff881692820192909252606081018690526080810185905260019060a0016020604051602081039080840390855afa158015610d52573d5f803e3d5ffd5b50506040517fffffffffffffffffffffffffffffffffffffffffffffffffffffffffffffffe0015191505073ffffffffffffffffffffffffffffffffffffffff8116610da5575f60019250925050610dab565b91505f90505b94509492505050565b803573ffffffffffffffffffffffffffffffffffffffff81168114610dd7575f80fd5b919050565b5f60208284031215610dec575f80fd5b610df582610db4565b9392505050565b5f8083601f840112610e0c575f80fd5b50813567ffffffffffffffff811115610e23575f80fd5b602083019150836020828501011115610acc575f80fd5b5f805f60408486031215610e4c575f80fd5b610e5584610db4565b9250602084013567ffffffffffffffff811115610e70575f80fd5b610e7c86828701610dfc565b9497909650939450505050565b5f8060408385031215610e9a575f80fd5b610ea383610db4565b9150610eb160208401610db4565b90509250929050565b80358015158114610dd7575f80fd5b5f805f805f8060808789031215610ede575f80fd5b863567ffffffffffffffff80821115610ef5575f80fd5b610f018a838b01610dfc565b9098509650869150610f1560208a01610eba565b9550610f2360408a01610db4565b94506060890135915080821115610f38575f80fd5b50610f4589828a01610dfc565b979a9699509497509295939492505050565b5f805f805f8060a08789031215610f6c575f80fd5b610f7587610db4565b9550610f8360208801610db4565b9450610f9160408801610eba565b9350606087013567ffffffffffffffff811115610fac575f80fd5b610fb889828a01610dfc565b9094509250610fcb905060808801610eba565b90509295509295509295565b8284823760609190911b7fffffffffffffffffffffffffffffffffffffffff000000000000000000000000169101908152601401919050565b83815260406020820152816040820152818360608301375f818301606090810191909152601f9092017fffffffffffffffffffffffffffffffffffffffffffffffffffffffffffffffe016010192915050565b5f60208284031215611073575f80fd5b81517fffffffff0000000000000000000000000000000000000000000000000000000081168114610df5575f80fd5b5f5b838110156110bc5781810151838201526020016110a4565b50505f910152565b5f82516110d58184602087016110a2565b9190910192915050565b7f4e487b71000000000000000000000000000000000000000000000000000000005f52602160045260245ffd5b602081525f825180602084015261112a8160408501602087016110a2565b601f017fffffffffffffffffffffffffffffffffffffffffffffffffffffffffffffffe016919091016040019291505056fe416464726573733a206c6f772d6c6576656c2063616c6c20776974682076616c7565206661696c6564a2646970667358221220e77e6c4d75e9c6e104d710a37593aa60caa20b83f0a2ff7cedbf7974c5844fdd64736f6c63430008150033",
  "linkReferences": {},
  "deployedLinkReferences": {}
}