{
  "_format": "hh-sol-artifact-1",
  "contractName": "ForwarderRegistry",
  "sourceName": "contracts/metatx/ForwarderRegistry.sol",
  "abi": [
    {
      "inputs": [],
      "stateMutability": "nonpayable",
      "type": "constructor"
    },
    {
      "inputs": [
        {
          "internalType": "address",
          "name": "sender",
          "type": "address"
        },
        {
          "internalType": "address",
          "name": "forwarder",
          "type": "address"
        }
      ],
      "name": "ForwarderNotApproved",
      "type": "error"
    },
    {
      "inputs": [],
      "name": "InvalidEIP1271Signature",
      "type": "error"
    },
    {
      "inputs": [],
      "name": "WrongSigner",
      "type": "error"
    },
    {
      "anonymous": false,
      "inputs": [
        {
          "indexed": true,
          "internalType": "address",
          "name": "sender",
          "type": "address"
        },
        {
          "indexed": true,
          "internalType": "address",
          "name": "forwarder",
          "type": "address"
        },
        {
          "indexed": false,
          "internalType": "bool",
          "name": "approved",
          "type": "bool"
        },
        {
          "indexed": false,
          "internalType": "uint256",
          "name": "nonce",
          "type": "uint256"
        }
      ],
      "name": "ForwarderApproval",
      "type": "event"
    },
    {
      "inputs": [],
      "name": "DOMAIN_SEPARATOR",
      "outputs": [
        {
          "internalType": "bytes32",
          "name": "domainSeparator",
          "type": "bytes32"
        }
      ],
      "stateMutability": "view",
      "type": "function"
    },
    {
      "inputs": [
        {
          "internalType": "bytes",
          "name": "signature",
          "type": "bytes"
        },
        {
          "internalType": "bool",
          "name": "isEIP1271Signature",
          "type": "bool"
        },
        {
          "internalType": "address",
          "name": "target",
          "type": "address"
        },
        {
          "internalType": "bytes",
          "name": "data",
          "type": "bytes"
        }
      ],
      "name": "approveAndForward",
      "outputs": [],
      "stateMutability": "payable",
      "type": "function"
    },
    {
      "inputs": [
        {
          "internalType": "address",
          "name": "target",
          "type": "address"
        },
        {
          "internalType": "bytes",
          "name": "data",
          "type": "bytes"
        }
      ],
      "name": "forward",
      "outputs": [],
      "stateMutability": "payable",
      "type": "function"
    },
    {
      "inputs": [
        {
          "internalType": "address",
          "name": "sender",
          "type": "address"
        },
        {
          "internalType": "address",
          "name": "forwarder",
          "type": "address"
        }
      ],
      "name": "getNonce",
      "outputs": [
        {
          "internalType": "uint256",
          "name": "nonce",
          "type": "uint256"
        }
      ],
      "stateMutability": "view",
      "type": "function"
    },
    {
      "inputs": [
        {
          "internalType": "address",
          "name": "sender",
          "type": "address"
        },
        {
          "internalType": "address",
          "name": "forwarder",
          "type": "address"
        }
      ],
      "name": "isApprovedForwarder",
      "outputs": [
        {
          "internalType": "bool",
          "name": "",
          "type": "bool"
        }
      ],
      "stateMutability": "view",
      "type": "function"
    },
    {
      "inputs": [
        {
          "internalType": "address",
          "name": "",
          "type": "address"
        }
      ],
      "name": "isTrustedForwarder",
      "outputs": [
        {
          "internalType": "bool",
          "name": "",
          "type": "bool"
        }
      ],
      "stateMutability": "pure",
      "type": "function"
    },
    {
      "inputs": [
        {
          "internalType": "address",
          "name": "forwarder",
          "type": "address"
        }
      ],
      "name": "removeForwarderApproval",
      "outputs": [],
      "stateMutability": "nonpayable",
      "type": "function"
    },
    {
      "inputs": [
        {
          "internalType": "address",
          "name": "sender",
          "type": "address"
        },
        {
          "internalType": "address",
          "name": "forwarder",
          "type": "address"
        },
        {
          "internalType": "bool",
          "name": "approved",
          "type": "bool"
        },
        {
          "internalType": "bytes",
          "name": "signature",
          "type": "bytes"
        },
        {
          "internalType": "bool",
          "name": "isEIP1271Signature",
          "type": "bool"
        }
      ],
      "name": "setForwarderApproval",
      "outputs": [],
      "stateMutability": "nonpayable",
      "type": "function"
    }
  ],
  "bytecode": "0x60c060405234801561001057600080fd5b50466080818152604080517f8cad95687ba82c2ce50e74f7b754645e5117c3a5bec8151c0726d5857980a8666020808301919091527f06a520fda4ca688235391b02e357c6a65eb2a3bb40a69c0199f3f7f9cccee041828401526060820185905230828501528251808303909401845260a0909101909152815191012060a0525060805160a0516112036100b660003960006102d60152600061022f01526112036000f3fe60806040526004361061007b5760003560e01c80638929a8ca1161004e5780638929a8ca1461010e5780639438f7f3146101855780639c6a442414610198578063d828435d146101b857600080fd5b80633644e51514610080578063572b6c05146100a85780636ed0f382146100d95780636fadcf72146100fb575b600080fd5b34801561008c57600080fd5b5061009561022a565b6040519081526020015b60405180910390f35b3480156100b457600080fd5b506100c96100c3366004610e02565b50600190565b604051901515815260200161009f565b3480156100e557600080fd5b506100f96100f4366004610e02565b6102fc565b005b6100f9610109366004610e66565b610361565b34801561011a57600080fd5b506100c9610129366004610eb9565b73ffffffffffffffffffffffffffffffffffffffff9182166000908152602081815260408083209390941682529190915220547f0100000000000000000000000000000000000000000000000000000000000000900460ff1690565b6100f9610193366004610efc565b61048a565b3480156101a457600080fd5b506100f96101b3366004610f90565b6104e2565b3480156101c457600080fd5b506100956101d3366004610eb9565b73ffffffffffffffffffffffffffffffffffffffff9182166000908152602081815260408083209390941682529190915220547effffffffffffffffffffffffffffffffffffffffffffffffffffffffffffff1690565b6000467f000000000000000000000000000000000000000000000000000000000000000081146102d457604080517f8cad95687ba82c2ce50e74f7b754645e5117c3a5bec8151c0726d5857980a8666020808301919091527f06a520fda4ca688235391b02e357c6a65eb2a3bb40a69c0199f3f7f9cccee0418284015260608201849052306080808401919091528351808403909101815260a090920190925280519101206102f6565b7f00000000000000000000000000000000000000000000000000000000000000005b91505090565b3360008181526020818152604080832073ffffffffffffffffffffffffffffffffffffffff8616845290915281208054909261035d9284928691907effffffffffffffffffffffffffffffffffffffffffffffffffffffffffffff1661054d565b5050565b367fffffffffffffffffffffffffffffffffffffffffffffffffffffffffffffffec013560601c6000818152602081815260408083203384529091529020547f0100000000000000000000000000000000000000000000000000000000000000900460ff1661041f576040517f3e29ee2e00000000000000000000000000000000000000000000000000000000815273ffffffffffffffffffffffffffffffffffffffff821660048201523360248201526044015b60405180910390fd5b61048383838360405160200161043793929190611015565b604080517fffffffffffffffffffffffffffffffffffffffffffffffffffffffffffffffe081840301815291905273ffffffffffffffffffffffffffffffffffffffff8616903461061d565b5050505050565b7fffffffffffffffffffffffffffffffffffffffffffffffffffffffffffffffec36013560601c6104c0813360018a8a8a6104e2565b6104d883838360405160200161043793929190611015565b5050505050505050565b73ffffffffffffffffffffffffffffffffffffffff80871660009081526020818152604080832093891683529290522080547effffffffffffffffffffffffffffffffffffffffffffffffffffffffffffff166105448888888489898961064b565b6104d882898989855b600181017effffffffffffffffffffffffffffffffffffffffffffffffffffffffffffff168215157f010000000000000000000000000000000000000000000000000000000000000081027fff0000000000000000000000000000000000000000000000000000000000000016919091178655604080519182526020820183905273ffffffffffffffffffffffffffffffffffffffff85811692908716917f1e416512661bbe7bb72d89bfee596249d7767c125e8c56cf7cf82ee698b63a6a910160405180910390a35050505050565b60606106438484846040518060600160405280602981526020016111a5602991396108ce565b949350505050565b600061065561022a565b604080517f510634d3c850f3aab02dc8ab54bbb9b76a576f7e4edd8462a252673876bec9e5602082015273ffffffffffffffffffffffffffffffffffffffff808c16928201929092529089166060820152871515608082015260a0810187905260c001604051602081830303815290604052805190602001206040516020016107109291907f190100000000000000000000000000000000000000000000000000000000000081526002810192909252602282015260420190565b6040516020818303038152906040529050811561082357805160208201206040517f1626ba7e000000000000000000000000000000000000000000000000000000008082529173ffffffffffffffffffffffffffffffffffffffff8b1691631626ba7e91610784918990899060040161104e565b602060405180830381865afa1580156107a1573d6000803e3d6000fd5b505050506040513d601f19601f820116820180604052508101906107c591906110a2565b7fffffffff00000000000000000000000000000000000000000000000000000000161461081e576040517f5d52cbe300000000000000000000000000000000000000000000000000000000815260040160405180910390fd5b6104d8565b8773ffffffffffffffffffffffffffffffffffffffff1661088185858080601f0160208091040260200160405190810160405280939291908181526020018383808284376000920191909152505085516020870120929150506109e7565b73ffffffffffffffffffffffffffffffffffffffff16146104d8576040517fa7932e6a00000000000000000000000000000000000000000000000000000000815260040160405180910390fd5b606082471015610960576040517f08c379a000000000000000000000000000000000000000000000000000000000815260206004820152602660248201527f416464726573733a20696e73756666696369656e742062616c616e636520666f60448201527f722063616c6c00000000000000000000000000000000000000000000000000006064820152608401610416565b6000808673ffffffffffffffffffffffffffffffffffffffff1685876040516109899190611108565b60006040518083038185875af1925050503d80600081146109c6576040519150601f19603f3d011682016040523d82523d6000602084013e6109cb565b606091505b50915091506109dc87838387610a0b565b979650505050505050565b60008060006109f68585610aab565b91509150610a0381610af0565b509392505050565b60608315610aa1578251600003610a9a5773ffffffffffffffffffffffffffffffffffffffff85163b610a9a576040517f08c379a000000000000000000000000000000000000000000000000000000000815260206004820152601d60248201527f416464726573733a2063616c6c20746f206e6f6e2d636f6e74726163740000006044820152606401610416565b5081610643565b6106438383610ca6565b6000808251604103610ae15760208301516040840151606085015160001a610ad587828585610cea565b94509450505050610ae9565b506000905060025b9250929050565b6000816004811115610b0457610b04611124565b03610b0c5750565b6001816004811115610b2057610b20611124565b03610b87576040517f08c379a000000000000000000000000000000000000000000000000000000000815260206004820152601860248201527f45434453413a20696e76616c6964207369676e617475726500000000000000006044820152606401610416565b6002816004811115610b9b57610b9b611124565b03610c02576040517f08c379a000000000000000000000000000000000000000000000000000000000815260206004820152601f60248201527f45434453413a20696e76616c6964207369676e6174757265206c656e677468006044820152606401610416565b6003816004811115610c1657610c16611124565b03610ca3576040517f08c379a000000000000000000000000000000000000000000000000000000000815260206004820152602260248201527f45434453413a20696e76616c6964207369676e6174757265202773272076616c60448201527f75650000000000000000000000000000000000000000000000000000000000006064820152608401610416565b50565b815115610cb65781518083602001fd5b806040517f08c379a00000000000000000000000000000000000000000000000000000000081526004016104169190611153565b6000807f7fffffffffffffffffffffffffffffff5d576e7357a4501ddfe92f46681b20a0831115610d215750600090506003610dd0565b6040805160008082526020820180845289905260ff881692820192909252606081018690526080810185905260019060a0016020604051602081039080840390855afa158015610d75573d6000803e3d6000fd5b50506040517fffffffffffffffffffffffffffffffffffffffffffffffffffffffffffffffe0015191505073ffffffffffffffffffffffffffffffffffffffff8116610dc957600060019250925050610dd0565b9150600090505b94509492505050565b803573ffffffffffffffffffffffffffffffffffffffff81168114610dfd57600080fd5b919050565b600060208284031215610e1457600080fd5b610e1d82610dd9565b9392505050565b60008083601f840112610e3657600080fd5b50813567ffffffffffffffff811115610e4e57600080fd5b602083019150836020828501011115610ae957600080fd5b600080600060408486031215610e7b57600080fd5b610e8484610dd9565b9250602084013567ffffffffffffffff811115610ea057600080fd5b610eac86828701610e24565b9497909650939450505050565b60008060408385031215610ecc57600080fd5b610ed583610dd9565b9150610ee360208401610dd9565b90509250929050565b80358015158114610dfd57600080fd5b60008060008060008060808789031215610f1557600080fd5b863567ffffffffffffffff80821115610f2d57600080fd5b610f398a838b01610e24565b9098509650869150610f4d60208a01610eec565b9550610f5b60408a01610dd9565b94506060890135915080821115610f7157600080fd5b50610f7e89828a01610e24565b979a9699509497509295939492505050565b60008060008060008060a08789031215610fa957600080fd5b610fb287610dd9565b9550610fc060208801610dd9565b9450610fce60408801610eec565b9350606087013567ffffffffffffffff811115610fea57600080fd5b610ff689828a01610e24565b9094509250611009905060808801610eec565b90509295509295509295565b8284823760609190911b7fffffffffffffffffffffffffffffffffffffffff000000000000000000000000169101908152601401919050565b83815260406020820152816040820152818360608301376000818301606090810191909152601f9092017fffffffffffffffffffffffffffffffffffffffffffffffffffffffffffffffe016010192915050565b6000602082840312156110b457600080fd5b81517fffffffff0000000000000000000000000000000000000000000000000000000081168114610e1d57600080fd5b60005b838110156110ff5781810151838201526020016110e7565b50506000910152565b6000825161111a8184602087016110e4565b9190910192915050565b7f4e487b7100000000000000000000000000000000000000000000000000000000600052602160045260246000fd5b60208152600082518060208401526111728160408501602087016110e4565b601f017fffffffffffffffffffffffffffffffffffffffffffffffffffffffffffffffe016919091016040019291505056fe416464726573733a206c6f772d6c6576656c2063616c6c20776974682076616c7565206661696c6564a2646970667358221220b521531771a6b186a57c6b85c49c9a9f49c5e62816a1c063ea632b35b1fbd00f64736f6c63430008110033",
  "linkReferences": {},
  "deployedLinkReferences": {}
}