{
  "_format": "hh-sol-artifact-1",
  "contractName": "ERC20DetailedStorage",
  "sourceName": "contracts/token/ERC20/libraries/ERC20DetailedStorage.sol",
  "abi": [
    {
      "inputs": [],
      "name": "ERC20DETAILED_STORAGE_POSITION",
      "outputs": [
        {
          "internalType": "bytes32",
          "name": "",
          "type": "bytes32"
        }
      ],
      "stateMutability": "view",
      "type": "function"
    },
    {
      "inputs": [],
      "name": "ERC20DETAILED_VERSION_SLOT",
      "outputs": [
        {
          "internalType": "bytes32",
          "name": "",
          "type": "bytes32"
        }
      ],
      "stateMutability": "view",
      "type": "function"
    }
  ],
  "bytecode": "0x61012561003a600b82828239805160001a60731461002d57634e487b7160e01b600052600060045260246000fd5b30600052607381538281f3fe7300000000000000000000000000000000000000003014608060405260043610603d5760003560e01c80631b52972d14604257806399f1c0cf14605a575b600080fd5b60486060565b60405190815260200160405180910390f35b6048608c565b608960017f5d1a7e6bea56cb3c56898fa84ba3a9d9b39af6b3bb8ddb151202affa90d1a6c160b2565b81565b608960017f93fe4185b5c3372309a848859957e3c67d2cbb559903fd51818e10075909ab135b60008282101560ea577f4e487b7100000000000000000000000000000000000000000000000000000000600052601160045260246000fd5b50039056fea26469706673582212205328738069da7c32861d67a37dda1a988b05da502a434942b24d137ccb004eed64736f6c634300080e0033",
  "linkReferences": {},
  "deployedLinkReferences": {}
}