{
  "_format": "hh-sol-artifact-1",
  "contractName": "ERC1155MetadataURIWithBaseURIFacet",
  "sourceName": "contracts/token/ERC1155/facets/ERC1155MetadataURIWithBaseURIFacet.sol",
  "abi": [
    {
      "inputs": [
        {
          "internalType": "contract IForwarderRegistry",
          "name": "forwarderRegistry",
          "type": "address"
        }
      ],
      "stateMutability": "nonpayable",
      "type": "constructor"
    },
    {
      "anonymous": false,
      "inputs": [
        {
          "indexed": false,
          "internalType": "string",
          "name": "baseMetadataURI",
          "type": "string"
        }
      ],
      "name": "BaseMetadataURISet",
      "type": "event"
    },
    {
      "inputs": [],
      "name": "baseMetadataURI",
      "outputs": [
        {
          "internalType": "string",
          "name": "baseURI",
          "type": "string"
        }
      ],
      "stateMutability": "view",
      "type": "function"
    },
    {
      "inputs": [],
      "name": "initERC1155MetadataURIStorage",
      "outputs": [],
      "stateMutability": "nonpayable",
      "type": "function"
    },
    {
      "inputs": [
        {
          "internalType": "string",
          "name": "baseURI",
          "type": "string"
        }
      ],
      "name": "setBaseMetadataURI",
      "outputs": [],
      "stateMutability": "nonpayable",
      "type": "function"
    },
    {
      "inputs": [
        {
          "internalType": "uint256",
          "name": "id",
          "type": "uint256"
        }
      ],
      "name": "uri",
      "outputs": [
        {
          "internalType": "string",
          "name": "metadataURI",
          "type": "string"
        }
      ],
      "stateMutability": "view",
      "type": "function"
    }
  ],
  "bytecode": "0x60a060405234801561001057600080fd5b50604051610d37380380610d3783398101604081905261002f91610040565b6001600160a01b0316608052610070565b60006020828403121561005257600080fd5b81516001600160a01b038116811461006957600080fd5b9392505050565b608051610ca56100926000396000818161050e01526105960152610ca56000f3fe608060405234801561001057600080fd5b506004361061004c5760003560e01c80630e89341c146100515780635b2bd79e1461007a5780637e518ec814610082578063f310ed7914610097575b600080fd5b61006461005f36600461082e565b61009f565b604051610071919061086b565b60405180910390f35b6100646100b9565b6100956100903660046108bc565b6100d0565b005b610095610101565b60606100b3826100ad610124565b90610152565b92915050565b60606100cb6100c6610124565b610186565b905090565b6100e96100db61021c565b6100e3610226565b90610254565b6100fd82826100f6610124565b91906102dc565b5050565b61011a61010c61021c565b610114610327565b90610355565b6101226103d8565b565b6000806100b360017fe94434e3c6b941c5d90218142fadcc69cb2e13723993540bfa1c131dd1d3475a61092e565b60608261015e8361040d565b60405160200161016f9291906109bb565b604051602081830303815290604052905092915050565b606081600001805461019790610968565b80601f01602080910402602001604051908101604052809291908181526020018280546101c390610968565b80156102105780601f106101e557610100808354040283529160200191610210565b820191906000526020600020905b8154815290600101906020018083116101f357829003601f168201915b50505050509050919050565b60006100cb6104cb565b6000806100b360017fc9ed16f33ab3a66c84bfd83099ccb2a8845871e2e1c1928f63797152f0fd54cd61092e565b815473ffffffffffffffffffffffffffffffffffffffff8281169116146100fd576040517f08c379a000000000000000000000000000000000000000000000000000000000815260206004820152601860248201527f4f776e6572736869703a206e6f7420746865206f776e6572000000000000000060448201526064015b60405180910390fd5b826102e8828483610ade565b507f04b1dc5c136a3ce9fded8db0ce3d3366c58764ec3a8e4c2b9e52e4ddfe5ebbf7828260405161031a929190610bf9565b60405180910390a1505050565b6000806100b360017fb53127684a568b3173ae13b9f8a6016e243e63b6e8ee1178d6a717850b5d610461092e565b815473ffffffffffffffffffffffffffffffffffffffff8281169116146100fd576040517f08c379a000000000000000000000000000000000000000000000000000000000815260206004820152601960248201527f50726f787941646d696e3a206e6f74207468652061646d696e0000000000000060448201526064016102d3565b6101227f0e89341c000000000000000000000000000000000000000000000000000000006001610406610612565b9190610640565b6060600061041a8361074c565b600101905060008167ffffffffffffffff81111561043a5761043a610a60565b6040519080825280601f01601f191660200182016040528015610464576020820181803683370190505b5090508181016020015b7fffffffffffffffffffffffffffffffffffffffffffffffffffffffffffffffff017f3031323334353637383961626364656600000000000000000000000000000000600a86061a8153600a850494508461046e57509392505050565b6000333214806104db5750601836105b156104e557503390565b7fffffffffffffffffffffffffffffffffffffffffffffffffffffffffffffffec36013560601c7f000000000000000000000000000000000000000000000000000000000000000073ffffffffffffffffffffffffffffffffffffffff1633148061060157506040517f8929a8ca00000000000000000000000000000000000000000000000000000000815273ffffffffffffffffffffffffffffffffffffffff82811660048301523360248301527f00000000000000000000000000000000000000000000000000000000000000001690638929a8ca90604401602060405180830381865afa1580156105dd573d6000803e3d6000fd5b505050506040513d601f19601f820116820180604052508101906106019190610c46565b1561060b57919050565b3391505090565b6000806100b360017fca9d3e17f264b0f3984e2634e94adb37fa3e6a8103f06aeae6fa59e21c769f5e61092e565b7c01000000000000000000000000000000000000000000000000000000007fffffffff000000000000000000000000000000000000000000000000000000008316016106e8576040517f08c379a000000000000000000000000000000000000000000000000000000000815260206004820152601f60248201527f496e74657266616365446574656374696f6e3a2077726f6e672076616c75650060448201526064016102d3565b7fffffffff00000000000000000000000000000000000000000000000000000000919091166000908152602092909252604090912080547fffffffffffffffffffffffffffffffffffffffffffffffffffffffffffffff0016911515919091179055565b6000807a184f03e93ff9f4daa797ed6e38ed64bf6a1f0100000000000000008310610795577a184f03e93ff9f4daa797ed6e38ed64bf6a1f010000000000000000830492506040015b6d04ee2d6d415b85acef810000000083106107c1576d04ee2d6d415b85acef8100000000830492506020015b662386f26fc1000083106107df57662386f26fc10000830492506010015b6305f5e10083106107f7576305f5e100830492506008015b612710831061080b57612710830492506004015b6064831061081d576064830492506002015b600a83106100b35760010192915050565b60006020828403121561084057600080fd5b5035919050565b60005b8381101561086257818101518382015260200161084a565b50506000910152565b602081526000825180602084015261088a816040850160208701610847565b601f017fffffffffffffffffffffffffffffffffffffffffffffffffffffffffffffffe0169190910160400192915050565b600080602083850312156108cf57600080fd5b823567ffffffffffffffff808211156108e757600080fd5b818501915085601f8301126108fb57600080fd5b81358181111561090a57600080fd5b86602082850101111561091c57600080fd5b60209290920196919550909350505050565b818103818111156100b3577f4e487b7100000000000000000000000000000000000000000000000000000000600052601160045260246000fd5b600181811c9082168061097c57607f821691505b6020821081036109b5577f4e487b7100000000000000000000000000000000000000000000000000000000600052602260045260246000fd5b50919050565b60008084546109c981610968565b600182811680156109e15760018114610a1457610a43565b7fffffffffffffffffffffffffffffffffffffffffffffffffffffffffffffff0084168752821515830287019450610a43565b8860005260208060002060005b85811015610a3a5781548a820152908401908201610a21565b50505082870194505b505050508351610a57818360208801610847565b01949350505050565b7f4e487b7100000000000000000000000000000000000000000000000000000000600052604160045260246000fd5b601f821115610ad957600081815260208120601f850160051c81016020861015610ab65750805b601f850160051c820191505b81811015610ad557828155600101610ac2565b5050505b505050565b67ffffffffffffffff831115610af657610af6610a60565b610b0a83610b048354610968565b83610a8f565b6000601f841160018114610b5c5760008515610b265750838201355b7fffffffffffffffffffffffffffffffffffffffffffffffffffffffffffffffff600387901b1c1916600186901b178355610bf2565b6000838152602090207fffffffffffffffffffffffffffffffffffffffffffffffffffffffffffffffe0861690835b82811015610bab5786850135825560209485019460019092019101610b8b565b5086821015610be6577fffffffffffffffffffffffffffffffffffffffffffffffffffffffffffffffff60f88860031b161c19848701351681555b505060018560011b0183555b5050505050565b60208152816020820152818360408301376000818301604090810191909152601f9092017fffffffffffffffffffffffffffffffffffffffffffffffffffffffffffffffe0160101919050565b600060208284031215610c5857600080fd5b81518015158114610c6857600080fd5b939250505056fea264697066735822122067e6123343c056a3270011166ba88683e09e7d98d902e405fe87f23f0c27a91164736f6c63430008110033",
  "linkReferences": {},
  "deployedLinkReferences": {}
}