{
  "_format": "hh-sol-artifact-1",
  "contractName": "ERC2981FacetMock",
  "sourceName": "contracts/mocks/token/royalty/facets/ERC2981FacetMock.sol",
  "abi": [
    {
      "inputs": [
        {
          "internalType": "contract IForwarderRegistry",
          "name": "forwarderRegistry",
          "type": "address"
        }
      ],
      "stateMutability": "nonpayable",
      "type": "constructor"
    },
    {
      "inputs": [
        {
          "internalType": "uint256",
          "name": "percentage",
          "type": "uint256"
        }
      ],
      "name": "IncorrectRoyaltyPercentage",
      "type": "error"
    },
    {
      "inputs": [],
      "name": "IncorrectRoyaltyReceiver",
      "type": "error"
    },
    {
      "inputs": [],
      "name": "ROYALTY_FEE_DENOMINATOR",
      "outputs": [
        {
          "internalType": "uint256",
          "name": "",
          "type": "uint256"
        }
      ],
      "stateMutability": "view",
      "type": "function"
    },
    {
      "inputs": [],
      "name": "__msgData",
      "outputs": [
        {
          "internalType": "bytes",
          "name": "",
          "type": "bytes"
        }
      ],
      "stateMutability": "view",
      "type": "function"
    },
    {
      "inputs": [],
      "name": "initERC2981",
      "outputs": [],
      "stateMutability": "nonpayable",
      "type": "function"
    },
    {
      "inputs": [
        {
          "internalType": "uint256",
          "name": "tokenId",
          "type": "uint256"
        },
        {
          "internalType": "uint256",
          "name": "salePrice",
          "type": "uint256"
        }
      ],
      "name": "royaltyInfo",
      "outputs": [
        {
          "internalType": "address",
          "name": "receiver",
          "type": "address"
        },
        {
          "internalType": "uint256",
          "name": "royaltyAmount",
          "type": "uint256"
        }
      ],
      "stateMutability": "view",
      "type": "function"
    },
    {
      "inputs": [
        {
          "internalType": "uint256",
          "name": "percentage",
          "type": "uint256"
        }
      ],
      "name": "setRoyaltyPercentage",
      "outputs": [],
      "stateMutability": "nonpayable",
      "type": "function"
    },
    {
      "inputs": [
        {
          "internalType": "address",
          "name": "receiver",
          "type": "address"
        }
      ],
      "name": "setRoyaltyReceiver",
      "outputs": [],
      "stateMutability": "nonpayable",
      "type": "function"
    }
  ],
  "bytecode": "0x60a060405234801561000f575f80fd5b50604051610bce380380610bce83398101604081905261002e9161003f565b6001600160a01b031660805261006c565b5f6020828403121561004f575f80fd5b81516001600160a01b0381168114610065575f80fd5b9392505050565b608051610b356100995f395f8181610591015281816105cf01528181610703015261078b0152610b355ff3fe608060405234801561000f575f80fd5b506004361061006f575f3560e01c80638dc251e31161004d5780638dc251e3146100e2578063d60da201146100f5578063e1a8bf2c146100fd575f80fd5b80632a55205a1461007357806331e66e1e146100b757806361ba27da146100cd575b5f80fd5b61008661008136600461096d565b610115565b6040805173ffffffffffffffffffffffffffffffffffffffff90931683526020830191909152015b60405180910390f35b6100bf610136565b6040516100ae92919061098d565b6100e06100db3660046109d9565b610148565b005b6100e06100f03660046109f0565b610176565b6100e0610193565b610107620186a081565b6040519081526020016100ae565b5f8061012b84846101246101b6565b91906101e9565b915091509250929050565b365f610140610291565b915091509091565b61016161015361029b565b61015b6102a9565b906102d6565b6101738161016d6101b6565b90610362565b50565b61018161015361029b565b6101738161018d6101b6565b906103e8565b6101ac61019e61029b565b6101a6610477565b906104a4565b6101b4610527565b565b5f806101e360017f2c0cf10337caabbd02dcf226f05f5fd19a0919a41a8df8958c39b80007826858610a57565b92915050565b825473ffffffffffffffffffffffffffffffffffffffff8116905f907401000000000000000000000000000000000000000090046bffffffffffffffffffffffff16831580610236575080155b15610243575f9150610288565b620186a084101561026d57620186a061025c8286610a6a565b6102669190610a81565b9150610288565b8061027b620186a086610a81565b6102859190610a6a565b91505b50935093915050565b365f61014061055c565b5f6102a46106c1565b905090565b5f806101e360017fc9ed16f33ab3a66c84bfd83099ccb2a8845871e2e1c1928f63797152f0fd54cd610a57565b815473ffffffffffffffffffffffffffffffffffffffff82811691161461035e576040517f08c379a000000000000000000000000000000000000000000000000000000000815260206004820152601860248201527f4f776e6572736869703a206e6f7420746865206f776e6572000000000000000060448201526064015b60405180910390fd5b5050565b620186a08111156103a2576040517f3affc6c400000000000000000000000000000000000000000000000000000000815260048101829052602401610355565b81546bffffffffffffffffffffffff909116740100000000000000000000000000000000000000000273ffffffffffffffffffffffffffffffffffffffff909116179055565b73ffffffffffffffffffffffffffffffffffffffff8116610435576040517f6fe1b4c800000000000000000000000000000000000000000000000000000000815260040160405180910390fd5b81547fffffffffffffffffffffffff00000000000000000000000000000000000000001673ffffffffffffffffffffffffffffffffffffffff91909116179055565b5f806101e360017fb53127684a568b3173ae13b9f8a6016e243e63b6e8ee1178d6a717850b5d6104610a57565b815473ffffffffffffffffffffffffffffffffffffffff82811691161461035e576040517f08c379a000000000000000000000000000000000000000000000000000000000815260206004820152601960248201527f50726f787941646d696e3a206e6f74207468652061646d696e000000000000006044820152606401610355565b6101b47f2a55205a000000000000000000000000000000000000000000000000000000006001610555610805565b9190610832565b365f3332148061056c5750601836105b1561057957505f91369150565b3373ffffffffffffffffffffffffffffffffffffffff7f00000000000000000000000000000000000000000000000000000000000000001614806106ac575073ffffffffffffffffffffffffffffffffffffffff7f000000000000000000000000000000000000000000000000000000000000000016638929a8ca367fffffffffffffffffffffffffffffffffffffffffffffffffffffffffffffffec013560601c6040517fffffffff0000000000000000000000000000000000000000000000000000000060e084901b16815273ffffffffffffffffffffffffffffffffffffffff9091166004820152336024820152604401602060405180830381865afa158015610688573d5f803e3d5ffd5b505050506040513d601f19601f820116820180604052508101906106ac9190610ab9565b156106b95761014061093d565b505f91369150565b5f333214806106d05750601836105b156106da57503390565b7fffffffffffffffffffffffffffffffffffffffffffffffffffffffffffffffec36013560601c7f000000000000000000000000000000000000000000000000000000000000000073ffffffffffffffffffffffffffffffffffffffff163314806107f457506040517f8929a8ca00000000000000000000000000000000000000000000000000000000815273ffffffffffffffffffffffffffffffffffffffff82811660048301523360248301527f00000000000000000000000000000000000000000000000000000000000000001690638929a8ca90604401602060405180830381865afa1580156107d0573d5f803e3d5ffd5b505050506040513d601f19601f820116820180604052508101906107f49190610ab9565b156107fe57919050565b3391505090565b5f806101e360017fca9d3e17f264b0f3984e2634e94adb37fa3e6a8103f06aeae6fa59e21c769f5e610a57565b7c01000000000000000000000000000000000000000000000000000000007fffffffff000000000000000000000000000000000000000000000000000000008316016108da576040517f08c379a000000000000000000000000000000000000000000000000000000000815260206004820152601f60248201527f496e74657266616365446574656374696f6e3a2077726f6e672076616c7565006044820152606401610355565b7fffffffff00000000000000000000000000000000000000000000000000000000919091165f908152602092909252604090912080547fffffffffffffffffffffffffffffffffffffffffffffffffffffffffffffff0016911515919091179055565b365f6101407fffffffffffffffffffffffffffffffffffffffffffffffffffffffffffffffec8301828481610ad8565b5f806040838503121561097e575f80fd5b50508035926020909101359150565b60208152816020820152818360408301375f818301604090810191909152601f9092017fffffffffffffffffffffffffffffffffffffffffffffffffffffffffffffffe0160101919050565b5f602082840312156109e9575f80fd5b5035919050565b5f60208284031215610a00575f80fd5b813573ffffffffffffffffffffffffffffffffffffffff81168114610a23575f80fd5b9392505050565b7f4e487b71000000000000000000000000000000000000000000000000000000005f52601160045260245ffd5b818103818111156101e3576101e3610a2a565b80820281158282048414176101e3576101e3610a2a565b5f82610ab4577f4e487b71000000000000000000000000000000000000000000000000000000005f52601260045260245ffd5b500490565b5f60208284031215610ac9575f80fd5b81518015158114610a23575f80fd5b5f8085851115610ae6575f80fd5b83861115610af2575f80fd5b505082019391909203915056fea26469706673582212204fb18504afd46ca1e4abdc879e8fa1e82f89e203320b147f740363fb4e11d22b64736f6c63430008150033",
  "linkReferences": {},
  "deployedLinkReferences": {}
}