{
  "_format": "hh-sol-artifact-1",
  "contractName": "ERC165FacetMock",
  "sourceName": "contracts/mocks/introspection/ERC165FacetMock.sol",
  "abi": [
    {
      "inputs": [],
      "name": "initInterfaceDetectionStorage",
      "outputs": [],
      "stateMutability": "nonpayable",
      "type": "function"
    },
    {
      "inputs": [
        {
          "internalType": "bytes4",
          "name": "interfaceId",
          "type": "bytes4"
        },
        {
          "internalType": "bool",
          "name": "supported",
          "type": "bool"
        }
      ],
      "name": "setSupportedInterface",
      "outputs": [],
      "stateMutability": "nonpayable",
      "type": "function"
    },
    {
      "inputs": [
        {
          "internalType": "bytes4",
          "name": "interfaceId",
          "type": "bytes4"
        }
      ],
      "name": "supportsInterface",
      "outputs": [
        {
          "internalType": "bool",
          "name": "",
          "type": "bool"
        }
      ],
      "stateMutability": "view",
      "type": "function"
    }
  ],
  "bytecode": "0x608060405234801561001057600080fd5b506104c2806100206000396000f3fe608060405234801561001057600080fd5b50600436106100415760003560e01c806301ffc9a7146100465780637f73528b1461006d57806385297cdc14610082575b600080fd5b6100596100543660046103f0565b61008a565b604051901515815260200160405180910390f35b61008061007b366004610412565b6100d7565b005b6100806100ef565b60006100d182610098610113565b907fffffffff00000000000000000000000000000000000000000000000000000000166000908152602091909152604090205460ff1690565b92915050565b6100eb82826100e4610113565b9190610141565b5050565b610101336100fb610236565b90610264565b61011161010c610113565b6102e7565b565b6000806100d160017f7180ffa89c91cf90d6c56dacabfc69bc5e36f3099d7eed2f5cc12c5dba016fe061044e565b7fffffffff0000000000000000000000000000000000000000000000000000000080831690036101d2576040517f08c379a000000000000000000000000000000000000000000000000000000000815260206004820152601f60248201527f496e74657266616365446574656374696f6e3a2077726f6e672076616c75650060448201526064015b60405180910390fd5b7fffffffff00000000000000000000000000000000000000000000000000000000919091166000908152602092909252604090912080547fffffffffffffffffffffffffffffffffffffffffffffffffffffffffffffff0016911515919091179055565b6000806100d160017fb53127684a568b3173ae13b9f8a6016e243e63b6e8ee1178d6a717850b5d610461044e565b815473ffffffffffffffffffffffffffffffffffffffff8281169116146100eb576040517f08c379a000000000000000000000000000000000000000000000000000000000815260206004820152601960248201527f50726f787941646d696e3a206e6f74207468652061646d696e0000000000000060448201526064016101c9565b61031c61031560017f947245cdabe12ef4c13574b38217b361de48f57dd2dc345f43703c79bac2873d61044e565b600161034b565b610348817f01ffc9a7000000000000000000000000000000000000000000000000000000006001610141565b50565b8154829082116103b7576040517f08c379a000000000000000000000000000000000000000000000000000000000815260206004820152601860248201527f53746f726167653a2076657273696f6e2072656163686564000000000000000060448201526064016101c9565b5550565b80357fffffffff00000000000000000000000000000000000000000000000000000000811681146103eb57600080fd5b919050565b60006020828403121561040257600080fd5b61040b826103bb565b9392505050565b6000806040838503121561042557600080fd5b61042e836103bb565b91506020830135801515811461044357600080fd5b809150509250929050565b600082821015610487577f4e487b7100000000000000000000000000000000000000000000000000000000600052601160045260246000fd5b50039056fea264697066735822122051dfc61969fc6ebf66087a6cbe6b1522a03ac6aa3289176651bc264543bbfedd64736f6c634300080d0033",
  "linkReferences": {},
  "deployedLinkReferences": {}
}