{
  "_format": "hh-sol-artifact-1",
  "contractName": "ERC20FacetMock",
  "sourceName": "contracts/mocks/token/ERC20/ERC20FacetMock.sol",
  "abi": [
    {
      "inputs": [
        {
          "internalType": "contract IForwarderRegistry",
          "name": "forwarderRegistry",
          "type": "address"
        }
      ],
      "stateMutability": "nonpayable",
      "type": "constructor"
    },
    {
      "anonymous": false,
      "inputs": [
        {
          "indexed": true,
          "internalType": "address",
          "name": "owner",
          "type": "address"
        },
        {
          "indexed": true,
          "internalType": "address",
          "name": "spender",
          "type": "address"
        },
        {
          "indexed": false,
          "internalType": "uint256",
          "name": "value",
          "type": "uint256"
        }
      ],
      "name": "Approval",
      "type": "event"
    },
    {
      "anonymous": false,
      "inputs": [
        {
          "indexed": true,
          "internalType": "address",
          "name": "from",
          "type": "address"
        },
        {
          "indexed": true,
          "internalType": "address",
          "name": "to",
          "type": "address"
        },
        {
          "indexed": false,
          "internalType": "uint256",
          "name": "value",
          "type": "uint256"
        }
      ],
      "name": "Transfer",
      "type": "event"
    },
    {
      "inputs": [],
      "name": "__msgData",
      "outputs": [
        {
          "internalType": "bytes",
          "name": "",
          "type": "bytes"
        }
      ],
      "stateMutability": "view",
      "type": "function"
    },
    {
      "inputs": [
        {
          "internalType": "address",
          "name": "owner",
          "type": "address"
        },
        {
          "internalType": "address",
          "name": "spender",
          "type": "address"
        }
      ],
      "name": "allowance",
      "outputs": [
        {
          "internalType": "uint256",
          "name": "",
          "type": "uint256"
        }
      ],
      "stateMutability": "view",
      "type": "function"
    },
    {
      "inputs": [
        {
          "internalType": "address",
          "name": "spender",
          "type": "address"
        },
        {
          "internalType": "uint256",
          "name": "value",
          "type": "uint256"
        }
      ],
      "name": "approve",
      "outputs": [
        {
          "internalType": "bool",
          "name": "",
          "type": "bool"
        }
      ],
      "stateMutability": "nonpayable",
      "type": "function"
    },
    {
      "inputs": [
        {
          "internalType": "address",
          "name": "account",
          "type": "address"
        }
      ],
      "name": "balanceOf",
      "outputs": [
        {
          "internalType": "uint256",
          "name": "",
          "type": "uint256"
        }
      ],
      "stateMutability": "view",
      "type": "function"
    },
    {
      "inputs": [
        {
          "internalType": "address",
          "name": "spender",
          "type": "address"
        },
        {
          "internalType": "uint256",
          "name": "subtractedValue",
          "type": "uint256"
        }
      ],
      "name": "decreaseAllowance",
      "outputs": [
        {
          "internalType": "bool",
          "name": "",
          "type": "bool"
        }
      ],
      "stateMutability": "nonpayable",
      "type": "function"
    },
    {
      "inputs": [
        {
          "internalType": "address",
          "name": "spender",
          "type": "address"
        },
        {
          "internalType": "uint256",
          "name": "addedValue",
          "type": "uint256"
        }
      ],
      "name": "increaseAllowance",
      "outputs": [
        {
          "internalType": "bool",
          "name": "",
          "type": "bool"
        }
      ],
      "stateMutability": "nonpayable",
      "type": "function"
    },
    {
      "inputs": [
        {
          "internalType": "address[]",
          "name": "holders",
          "type": "address[]"
        },
        {
          "internalType": "uint256[]",
          "name": "allocations",
          "type": "uint256[]"
        }
      ],
      "name": "initERC20Storage",
      "outputs": [],
      "stateMutability": "nonpayable",
      "type": "function"
    },
    {
      "inputs": [],
      "name": "totalSupply",
      "outputs": [
        {
          "internalType": "uint256",
          "name": "",
          "type": "uint256"
        }
      ],
      "stateMutability": "view",
      "type": "function"
    },
    {
      "inputs": [
        {
          "internalType": "address",
          "name": "to",
          "type": "address"
        },
        {
          "internalType": "uint256",
          "name": "value",
          "type": "uint256"
        }
      ],
      "name": "transfer",
      "outputs": [
        {
          "internalType": "bool",
          "name": "",
          "type": "bool"
        }
      ],
      "stateMutability": "nonpayable",
      "type": "function"
    },
    {
      "inputs": [
        {
          "internalType": "address",
          "name": "from",
          "type": "address"
        },
        {
          "internalType": "address",
          "name": "to",
          "type": "address"
        },
        {
          "internalType": "uint256",
          "name": "value",
          "type": "uint256"
        }
      ],
      "name": "transferFrom",
      "outputs": [
        {
          "internalType": "bool",
          "name": "",
          "type": "bool"
        }
      ],
      "stateMutability": "nonpayable",
      "type": "function"
    }
  ],
  "bytecode": "0x60a06040523480156200001157600080fd5b5060405162004c7d38038062004c7d833981810160405281019062000037919062000201565b80806200006d7f6a83522c126b1f14401cda64886fc651a7060f385b5e2d289e620e1859fee4e760001b6200017a60201b60201c565b620000a17ff6fd3c5688ac3ada9425e55f9cce326a85fd64fca9b1584401f3d2203aee560b60001b6200017a60201b60201c565b620000d57fe7883c748f395270b53c914004a2b83ffb6acf3836fed33ec0a3c0eb061e618860001b6200017a60201b60201c565b8073ffffffffffffffffffffffffffffffffffffffff1660808173ffffffffffffffffffffffffffffffffffffffff1681525050506200013e7fa8e7bcdcf6e3fc02a10df784451d464484c9806ce88d436f07865feb64b65a7360001b6200017d60201b60201c565b50620001737f964a994bff72aee5ca28657529c352326b9f45fda089305418988be3495f789d60001b6200018060201b60201c565b5062000233565b50565b50565b50565b600080fd5b600073ffffffffffffffffffffffffffffffffffffffff82169050919050565b6000620001b58262000188565b9050919050565b6000620001c982620001a8565b9050919050565b620001db81620001bc565b8114620001e757600080fd5b50565b600081519050620001fb81620001d0565b92915050565b6000602082840312156200021a576200021962000183565b5b60006200022a84828501620001ea565b91505092915050565b608051614a196200026460003960008181612856015281816128ab01528181613ab20152613b070152614a196000f3fe608060405234801561001057600080fd5b50600436106100be5760003560e01c80633950935111610076578063a457c2d71161005b578063a457c2d7146101dc578063a9059cbb1461020c578063dd62ed3e1461023c576100be565b8063395093511461017c57806370a08231146101ac576100be565b806323b872dd116100a757806323b872dd1461011157806330a12c831461014157806331e66e1e1461015d576100be565b8063095ea7b3146100c357806318160ddd146100f3575b600080fd5b6100dd60048036038101906100d89190613ead565b61026c565b6040516100ea9190613f08565b60405180910390f35b6100fb610379565b6040516101089190613f32565b60405180910390f35b61012b60048036038101906101269190613f4d565b610410565b6040516101389190613f08565b60405180910390f35b61015b600480360381019061015691906141bc565b610520565b005b61016561063d565b604051610173929190614281565b60405180910390f35b61019660048036038101906101919190613ead565b6106d4565b6040516101a39190613f08565b60405180910390f35b6101c660048036038101906101c191906142a5565b6107e1565b6040516101d39190613f32565b60405180910390f35b6101f660048036038101906101f19190613ead565b6108b7565b6040516102039190613f08565b60405180910390f35b61022660048036038101906102219190613ead565b6109c4565b6040516102339190613f08565b60405180910390f35b610256600480360381019061025191906142d2565b610ad1565b6040516102639190613f32565b60405180910390f35b600061029a7fc4513faf2a23d0d3427be409f734320484c836068cb2e9911f44ed67e95d98a360001b610be5565b6102c67f4284765d9b2da01582cd3f194d18425012e20a5dfc57b5f1a5c552dcc2ff255f60001b610be5565b6102f27ffeb0394cbfef7663fed8f8d267dea8e3995122c981b2ead859477ae4d190193360001b610be5565b6103176102fd610be8565b8484610307610c7b565b610d6b909392919063ffffffff16565b6103437f8f96e1562b12f50c58541b7b55750444aa8c82d12ec067ed858705afe511416560001b610be5565b61036f7f6b7bf8fc403ee4c0ca78aefe59272db2355c609e54080d85f8272e123c73d7a860001b610be5565b6001905092915050565b60006103a77ffe12db143bd754070738cb388cb33075dbbd549d4a85c2ffb4a78f971e07672560001b610be5565b6103d37faafe511e83deddfbaad4e5f546570581bbe317ef6328113a38a9077654218d0860001b610be5565b6103ff7f7e7749a252c32b916334ee161052c0188fff66ef36bd1976dbb9bbad0f937b7b60001b610be5565b610407610c7b565b60020154905090565b600061043e7f969b495770a97a13ec98dfacf3640ccd264fdf80da77fb5958c2ed494ea318f160001b610be5565b61046a7f66849ca82c6b86f0667c622ec6e37b7b95d8a6100713546493f12c656b1cdc8260001b610be5565b6104967f94763e07c00c45aede6630bd6eaa2b95c50edbf62a6b00eaa6d1f4ffde028ba160001b610be5565b6104bd6104a1610be8565b8585856104ac610c7b565b61105490949392919063ffffffff16565b6104e97fe0c0d36973d28241b804ee57a311673022642d572158eddc1ffde140df1c2dfc60001b610be5565b6105157f70f640072d48d8dd30f4f6cb20ad460cef048fa000fe564e5dad2dce3ca291b960001b610be5565b600190509392505050565b61054c7fd0f3dd725087c3d94b31cb42fe89e65ccd900488dd821b0d4b0d2f6cff81b20660001b61124e565b6105787f7c0431072b026931db6c54ebeaf2f68182a326d521b74787fef86521857a8db660001b61124e565b6105a47f8e8883e82d47b33e51b05152b1b06322a1f8dda231d92b4c5ca7942cc066501b60001b61124e565b6105c56105af610be8565b6105b7611251565b61134190919063ffffffff16565b6105f17f233fe7b7290cb759052e40d1c0a0e030922049aa6a6ed442f26ff2c05412192160001b61124e565b61061d7f825acffae490a53d09e1287a138fea2113250849209f94530d361bc38b87917060001b61124e565b610639828261062a610c7b565b6114b39092919063ffffffff16565b5050565b36600061066c7fe43f80b6ca4703a3d287608baf32b650f26348caef736b1946c41882a6b6dd3060001b611710565b6106987fc768e8a04f1f8057909247f153a410c628af0a9819ce685c33022d74caa47f6a60001b611710565b6106c47f6838d51d842939a259f0bce11f8e16da2a2910efef655154179c32fb9e97114660001b611710565b6106cc611713565b915091509091565b60006107027f84faccaebc9eda31247cc49d38deab32f81a7c69d3a5a4ea7f11a392b07fbb9160001b610be5565b61072e7f6327d12925c43972a1de49b9ea7309d9522f7d2244f36cfd4db38a8a5c95d28460001b610be5565b61075a7f582e5a0d7e1fc131a2eba588dd01bf8cdadc35487c04d12cd0faa89d310e0f5d60001b610be5565b61077f610765610be8565b848461076f610c7b565b6117aa909392919063ffffffff16565b6107ab7fdae7414b4b60995b747fed46321416c03dfcfe3977fc63e62d7ec575633481fa60001b610be5565b6107d77f1357364cb6c1b5ce9ccf1121d902e4690d05440a870a73b1b637e52f263d528460001b610be5565b6001905092915050565b600061080f7f720450d86147c767baca66b5cc23258cce89283b8ce54fd954d10f16c3aa870560001b610be5565b61083b7f02aef33dff7adf9ce1cefa656608c6a7829f7475837183d928e16087d776d44e60001b610be5565b6108677f9f42a43f4d6d426e26873977a3ec6656c307a3f9d91add96fa0518fb1c2f710960001b610be5565b61086f610c7b565b60000160008373ffffffffffffffffffffffffffffffffffffffff1673ffffffffffffffffffffffffffffffffffffffff168152602001908152602001600020549050919050565b60006108e57fd07fa2c473f505fe07cd70d785682eb705491161e7e677159202c962ae13d96060001b610be5565b6109117fced41570fbc99fc4f55d60bd3e011cc0907bf08565c7f9820674bb01924360c960001b610be5565b61093d7fe967a7e46a07ccb9b63612856cbfff86fed05f52d4f7febe869cb439055e35e360001b610be5565b610962610948610be8565b8484610952610c7b565b611c4d909392919063ffffffff16565b61098e7fc62c409d91eb57ea2376d9a646fd60e826a6cbfb91ae36fa9ef2108727712d6760001b610be5565b6109ba7f77d62b32c45fa24491c9a5b496dd477da878670bf0d2598808352852be188c8b60001b610be5565b6001905092915050565b60006109f27fc2276bf6e076873d71826a4283283e54052d5bc0920374e550a4f2509c035d1660001b610be5565b610a1e7ffd1551c97aa99f8fee17cac015a72a7f3fb75810ea0996d3d6a75f88dcb62dba60001b610be5565b610a4a7f401df882a97fe58c85cc8565278ad1d2a1af75944f3a02ca4fd1625fa4e303a360001b610be5565b610a6f610a55610be8565b8484610a5f610c7b565b61211f909392919063ffffffff16565b610a9b7f273f8e12243792cb0464c7853a82698a37e08e7254ece27327347841714b294f60001b610be5565b610ac77f648fc737cecfd0dbfe14e66a75f196b078ad8d75e4d03aba7e726012cd9fe9e960001b610be5565b6001905092915050565b6000610aff7f1adca02bd2ff606e46a64a0a7f9d2a7e8fe35fd46c20c17cb8f5da8bf3f9a7a560001b610be5565b610b2b7fa7c1b88584803ebef0803cdd64235f2b1be2312d6c17c75c6389c64534c9b60860001b610be5565b610b577f81f94903abdb299e44bafc8d682cc27cef1ef384076139f89fe0431761f5316d60001b610be5565b610b5f610c7b565b60010160008473ffffffffffffffffffffffffffffffffffffffff1673ffffffffffffffffffffffffffffffffffffffff16815260200190815260200160002060008373ffffffffffffffffffffffffffffffffffffffff1673ffffffffffffffffffffffffffffffffffffffff16815260200190815260200160002054905092915050565b50565b6000610c167fc0b24fac5f84402d96a9040e719e43b12740490e4fba55014f1991b25b0d468f60001b61124e565b610c427fe33b53f8393c5c0b4c9f64eed1d8cb4e65829c80b1129aa69383c2a62242c9a260001b61124e565b610c6e7fc9a25faae8e144986dcd11c3301f1c4abd2daa0287cd652c99aeb6faa6432ccf60001b61124e565b610c766125c9565b905090565b6000610ca97f51a9cf70038f30e7c9e892b8da145f23a1ffb6ef6b800794b2ace46a9422057860001b612a66565b610cd57f39d6709454ef595be8dc4166f66a9d65b91a8f35311169ed9bb032b5b9840c7960001b612a66565b610d017f0a4ee4daa68a1d84599609cdff7036856a765dc4b0df8908075192de28f8767e60001b612a66565b600060017f9b108a3a4d1bf9fcaf11faf730c194adcf4de5409616cf7026e57018b2743c2660001c610d339190614341565b60001b9050610d647f42ce42b3b8252f79f4e5fbdd78f7d81d68585f23fbd9ec716f730b101ae4ba2b60001b612a66565b8091505090565b610d977f6360f1934053b41e98265f2db0b4ef24e6cfcd1696002c46e64c4777b333a00e60001b612a66565b610dc37fb2d138d4630e4c962ffd0ca5fcfa70e627c618bc9dbbfb26b2591bd368a83ad860001b612a66565b610def7f4d489d867b4cedc9e41388b0e0b0675443c44a6c3f093cf99cc2509890285ee360001b612a66565b610e1b7f3e5713943ded99e7e9a98bd993066690abde186a176f47c84dfbe65a70a7d26060001b612a66565b600073ffffffffffffffffffffffffffffffffffffffff168273ffffffffffffffffffffffffffffffffffffffff1603610e8a576040517f08c379a0000000000000000000000000000000000000000000000000000000008152600401610e81906143d2565b60405180910390fd5b610eb67f4145058c08061c3f637ac38274c04d85172fa117fec23c0b0298b49e4a0878bf60001b612a66565b610ee27f6841082474959aa536cbf90548678e959259685174397305c01fa181ee23327d60001b612a66565b610f0e7febcd8e3156354f0c48936c8f6f3dfe0c955fc8cff0804ed11826ae373b46f5d960001b612a66565b808460010160008573ffffffffffffffffffffffffffffffffffffffff1673ffffffffffffffffffffffffffffffffffffffff16815260200190815260200160002060008473ffffffffffffffffffffffffffffffffffffffff1673ffffffffffffffffffffffffffffffffffffffff16815260200190815260200160002081905550610fbd7f05b6e4c59671508f6e52c7576b90b81f265f577c6d7c8b04713caa2a37b927c460001b612a66565b610fe97f9c66c4d22730cfa38dafe42799e2df3b4bb8149ee88cc598cbb3e5c9473616ab60001b612a66565b8173ffffffffffffffffffffffffffffffffffffffff168373ffffffffffffffffffffffffffffffffffffffff167f8c5be1e5ebec7d5bd14f71427d1e84f3dd0314c0f7b2291e5b200ac8c7c3b925836040516110469190613f32565b60405180910390a350505050565b6110807faea811dbe67f82eddc22889c6d5329279bb85f516550cfdeb06d41f93fc374bb60001b612a66565b6110ac7fe72d4eaf3818c1c8fc4fba4bfe74959cc18fffd14ccd7e54e4f493238646796960001b612a66565b6110d87f08bd24e7dce75f98dfd335ddffa97d18e8fa124199022b3b8f38a11ead99f6f860001b612a66565b8373ffffffffffffffffffffffffffffffffffffffff168373ffffffffffffffffffffffffffffffffffffffff16146111ab576111377f3fa0025a023b72a427413401f19a9af7cf307e5803a7e244cc758d62b0d0ca0260001b612a66565b6111637f9b20127fd4ff62c2c2ee0a7fd616d603dad6fb66edace6ff32a004abef63da5a60001b612a66565b61118f7ff4cb7c44e96048d7e6751d6fa0062985e2134cbb67d3c4b51545b8e5b49d7da760001b612a66565b6111a683858388611c4d909392919063ffffffff16565b6111d8565b6111d77f68f56c0b01650024cd80140ef45981699b751388bd884f514a9d48c93195253760001b612a66565b5b6112047f2e679c8eb2cded45c03d71215248afdca9f307dd92ac240c5b32ac099fcc497b60001b612a66565b6112307f9e64ca22135558f7888426e8f1fabca0da8770934a62a87a7f8b433b463040b760001b612a66565b6112478383838861211f909392919063ffffffff16565b5050505050565b50565b600061127f7f29f8332165901d83adc683db950bfa7095446b76821902b9cad5a516e9f9f82660001b612a69565b6112ab7f5c570bd87bb3a186c2c87ff3dd5f58d2c75a5776fe94e0a63fa851fe46a5fa6c60001b612a69565b6112d77f405d85ac952971491b2260d550a90002555502250fb83d68df5efc35f77841ce60001b612a69565b600060017fb53127684a568b3173ae13b9f8a6016e243e63b6e8ee1178d6a717850b5d610460001c6113099190614341565b60001b905061133a7f1d9ce065e06330dbac07abf26a98b6d505daa95772ac105ad61ed7479f8c2b1260001b612a69565b8091505090565b61136d7fbc11fd154e3161de2183b89db4eb967bb1b4cbab0325086fa95095436c11e72b60001b612a69565b6113997f1815b032362e96a6d2f880b8f118c97fe36f9016e4d7dde560dc18768369a66d60001b612a69565b6113c57f25f11631eb07cc17d412b02bd63f72577eb8df190f4046eb3478c12a4bb8ae6860001b612a69565b6113f17ff4fb509d189314ad76c001fa3c672e032a121e16ca67380d998b64660c91044960001b612a69565b8160000160009054906101000a900473ffffffffffffffffffffffffffffffffffffffff1673ffffffffffffffffffffffffffffffffffffffff168173ffffffffffffffffffffffffffffffffffffffff1614611483576040517f08c379a000000000000000000000000000000000000000000000000000000000815260040161147a9061443e565b60405180910390fd5b6114af7f059066040512573aa34012041b24446b05cb97113084d9f5307dec4a489aeed260001b612a69565b5050565b6114df7f3285bba267b5b99b0ed687c357845e1b54d9c68847a328b7e53f373d3b516a0e60001b612a66565b61150b7f837307da86c5d196edfe9e01522b9563d99053d01ead798bac93539fc8b51d0160001b612a66565b6115377f49f2c3acc757d832fe65d57e656186f1e0eb75ffbf2ff4907ce6b85adb0ce7dc60001b612a66565b61157460017fbf8178f96cb346c7aa2973a71aa437d56873dd3ed827751d2dd2abe6f717100760001c61156a9190614341565b60001b6001612a6c565b6115a07f1fcbac7012f905c5c28ef729386096977a8010c6fbb9f79842ab982a2a8ee84460001b612a66565b6115cc7f68e1a15d3b53d741460245b1e63c0515161ac7510d92295a2e043310a06d1bfa60001b612a66565b6115e1828285612c599092919063ffffffff16565b61160d7f4fe9930745b6de15543fd185d20cee276286661e77b836a61cab8282770eb66360001b612a66565b6116397feee1cee0bcf9c07af17c8ffd9ca41d2dfb143ec92fa8789e8f2eb5a8b096540360001b612a66565b6116767f36372b07000000000000000000000000000000000000000000000000000000006001611667613588565b6136789092919063ffffffff16565b6116a27f7821055c041917f2a1bd2ab38edf550b925b0e965bc34fbec3fd7e254ab8a5e660001b612a66565b6116ce7f18b27d018ee88ca55a0b36dde2de471ba725bccaf15b4b489b938fc56c26525960001b612a66565b61170b7f9d0751860000000000000000000000000000000000000000000000000000000060016116fc613588565b6136789092919063ffffffff16565b505050565b50565b3660006117427f4488d32b731809f0421f19e378fb3ab815e7f6c7fc44f47deed04d96192b2d3d60001b61124e565b61176e7fc3a3a88dbde03014caab39c190925f4380743ee1509b5ef9b0cc14720c45b22b60001b61124e565b61179a7fd4ef82ee2d4864d8ad1da7255b5ee1e48101c8cd8bdbea914e8831051c3e40f160001b61124e565b6117a2613884565b915091509091565b6117d67f3f1a1e0400109c188e56409395617e11888b6ad154530fecebb32fc7aac90c0960001b612a66565b6118027f84bd35c3715bc94a75691aefa75e91bbb3fd19d55d238d578ac41d2c41384e1860001b612a66565b61182e7f106f69069325142c84e641a752c90120d689a6481d9578a4010248c9ae0f2bfd60001b612a66565b61185a7f638049cf888b7d84f2cd148cec53ca4fe494e1cfd0b9bd5eb78274169a5463fc60001b612a66565b600073ffffffffffffffffffffffffffffffffffffffff168273ffffffffffffffffffffffffffffffffffffffff16036118c9576040517f08c379a00000000000000000000000000000000000000000000000000000000081526004016118c0906143d2565b60405180910390fd5b6118f57f022c44e013084b1f904ad577b86b3245deff60ddde6ceed9082c12513830ec5560001b612a66565b6119217fa45a7b1180734b07403dc67aae8d089dfebdfd70f552f23ba7facab21829b8ff60001b612a66565b61194c7e7bd425784b18d465c9692efef40183a581055e30317e3246328d96f0bf564660001b612a66565b60008460010160008573ffffffffffffffffffffffffffffffffffffffff1673ffffffffffffffffffffffffffffffffffffffff16815260200190815260200160002060008473ffffffffffffffffffffffffffffffffffffffff1673ffffffffffffffffffffffffffffffffffffffff1681526020019081526020016000205490506119fb7f39ccf25751c3bfb32711a93e8c91ac5d34a422f2c50164cc0fdd13700fb37a2960001b612a66565b611a277f5e114d745f11a556e1b640feb930895816cab50c4ecb530d8995dbe588dbbf6760001b612a66565b60008214611b5c57611a5b7f1ab9b7494c91e7875311253be6729e8649493c05ac6e35fcc19f35398c25f9b660001b612a66565b611a877f2903297d62daf8ef377e649c369d0c504786bdc4bd395b1578c17aef4930334860001b612a66565b60008282019050818111611ad0576040517f08c379a0000000000000000000000000000000000000000000000000000000008152600401611ac7906144aa565b60405180910390fd5b808660010160008773ffffffffffffffffffffffffffffffffffffffff1673ffffffffffffffffffffffffffffffffffffffff16815260200190815260200160002060008673ffffffffffffffffffffffffffffffffffffffff1673ffffffffffffffffffffffffffffffffffffffff1681526020019081526020016000208190555080915050611b89565b611b887f319e7e39697b4865830e2f085cf66a5ac8bb8f276979a848b4a19074c1e8789860001b612a66565b5b611bb57f893a22971d462e11c5cb8e43d6c4c46f8d1d1be61765dad3cfd3148d360e073160001b612a66565b611be17f6317fc8f1099cfe4d0de88deccc270a8909dd33a84665b77fc8e709a45421e6b60001b612a66565b8273ffffffffffffffffffffffffffffffffffffffff168473ffffffffffffffffffffffffffffffffffffffff167f8c5be1e5ebec7d5bd14f71427d1e84f3dd0314c0f7b2291e5b200ac8c7c3b92583604051611c3e9190613f32565b60405180910390a35050505050565b611c797f5854c814cfeea66d80276c8a8c5c40d99d4aae55134f5b8742c370c98a2b110f60001b612a66565b611ca57ffcbb00a7f25d7cfa62afa72cb1d8fa7218f697d3b5a7ff88ec46342e3f2f7c0860001b612a66565b611cd17f8c0735416d362ff58f99da4b6aca2d876e82134aa6f0ed1af4763a61313d6db360001b612a66565b611cfd7ff2d79ce3f6351d21ec9ea7d4951e380ceba27d4a0b8118162f59be79dbd520d160001b612a66565b600073ffffffffffffffffffffffffffffffffffffffff168273ffffffffffffffffffffffffffffffffffffffff1603611d6c576040517f08c379a0000000000000000000000000000000000000000000000000000000008152600401611d63906143d2565b60405180910390fd5b611d987fa666d81d29654921b81bb9f863e153b7e3a187c9392ceb30641e94381dde9f9a60001b612a66565b611dc47f87e5d1a39776d1d013cd3814ff4cbb195714fde16bca5333e4f46cdf17d2412860001b612a66565b611df07f051e5723e8261c8cdc38406c8b18598c76babd621d75bfe49a9128fba4edbe6d60001b612a66565b60008460010160008573ffffffffffffffffffffffffffffffffffffffff1673ffffffffffffffffffffffffffffffffffffffff16815260200190815260200160002060008473ffffffffffffffffffffffffffffffffffffffff1673ffffffffffffffffffffffffffffffffffffffff168152602001908152602001600020549050611e9f7fa5d08d51320e666844ba53b4755cbf731933ffc2bc50c9a8d0faa520bf6ac0f760001b612a66565b611ecb7f72540b1451684d882bbd6cc8203f2d772e8152a4e89fb462275674da8727692060001b612a66565b7fffffffffffffffffffffffffffffffffffffffffffffffffffffffffffffffff8114158015611efc575060008214155b1561202e57611f2d7fa80a0fe431fb397c1eaf9578501bdc1e246237a667a7cb6de4ee15a3fa70fe1460001b612a66565b611f597f10f02bb08ba1cf50385255eed22e65c56e5bf7f9bbc0f5b5a3b92f9a591d3c8d60001b612a66565b60008282039050818110611fa2576040517f08c379a0000000000000000000000000000000000000000000000000000000008152600401611f9990614516565b60405180910390fd5b808660010160008773ffffffffffffffffffffffffffffffffffffffff1673ffffffffffffffffffffffffffffffffffffffff16815260200190815260200160002060008673ffffffffffffffffffffffffffffffffffffffff1673ffffffffffffffffffffffffffffffffffffffff168152602001908152602001600020819055508091505061205b565b61205a7f4ed0f1b72f85190a3d1a76a6a3209a65d95327b7a5aea06eefb2752bee90a3ce60001b612a66565b5b6120877feb984e860ffc3b5be05847b1cc8d4d8a96948d7eb999ca348b298f386438b4a260001b612a66565b6120b37f7c9f09d333f05f232a5ced30fb69fe8fa676bd12930e8d4746537c34dfd0169f60001b612a66565b8273ffffffffffffffffffffffffffffffffffffffff168473ffffffffffffffffffffffffffffffffffffffff167f8c5be1e5ebec7d5bd14f71427d1e84f3dd0314c0f7b2291e5b200ac8c7c3b925836040516121109190613f32565b60405180910390a35050505050565b61214b7f60d2cda72cd0a323e42b676fbb1e97ebeaeebbb3cc868db911870f4a51396f4c60001b612a66565b6121777fb4c12916776b9c5e35744186ef4d085e5527a89ba8266bc0f7235fe405130a9960001b612a66565b6121a37f8a9652f8a0ea84dbf798d2035164333028c75ac8569dc777c6a6ddce628f122860001b612a66565b6121cf7f35fc6054e63a1918b10b472405cfd99c2dd81e7ba9f461793477a7492b5cd1a160001b612a66565b600073ffffffffffffffffffffffffffffffffffffffff168273ffffffffffffffffffffffffffffffffffffffff160361223e576040517f08c379a000000000000000000000000000000000000000000000000000000000815260040161223590614582565b60405180910390fd5b61226a7fea5838569dda38e4ba1d7ac8586759223301e764041ef65b5945df40f8a4c83160001b612a66565b6122967f43d32c881c408ef437441888fcc080da323803535495092b64afa6eb3294e48060001b612a66565b6122c27f8957d1f69c07657cda8b7e021aca54253fc700c8edb19ca57f41395ea81f323d60001b612a66565b600081146124d9576122f67f3160e063c263bfa265c1fbc0adf43fe2d81e100725a64f8a8c8d6781fc586d3360001b612a66565b6123227fcc8e7da5bb5bcc0dc4b359ebd013abd182da8babf41938bfe5b4147742cdeda660001b612a66565b61234e7f0865807c7872f8a7f5e82789079b2dddf7bd70455d85cd8c14105e71028aab1060001b612a66565b60008460000160008573ffffffffffffffffffffffffffffffffffffffff1673ffffffffffffffffffffffffffffffffffffffff1681526020019081526020016000205490506123c07ff191250f961305c49f8d2fef59d9c8854354584b6fae203ba93897bc23d2bddf60001b612a66565b60008282039050818110612409576040517f08c379a0000000000000000000000000000000000000000000000000000000008152600401612400906145ee565b60405180910390fd5b8373ffffffffffffffffffffffffffffffffffffffff168573ffffffffffffffffffffffffffffffffffffffff16146124d257808660000160008773ffffffffffffffffffffffffffffffffffffffff1673ffffffffffffffffffffffffffffffffffffffff16815260200190815260200160002081905550828660000160008673ffffffffffffffffffffffffffffffffffffffff1673ffffffffffffffffffffffffffffffffffffffff168152602001908152602001600020600082825401925050819055505b5050612506565b6125057f6e394136ea9b5f3742eb13c1ef97c44fb8cc12f8bb30208dd69053599a910d2860001b612a66565b5b6125327fa573cf12203895f5f425a708bde7740fc3585728ec9c100d0ad97c266fb6134960001b612a66565b61255e7fc0375ba9c3aec48102686593394f16238aaafb5721e431888c4d8823d79a62cf60001b612a66565b8173ffffffffffffffffffffffffffffffffffffffff168373ffffffffffffffffffffffffffffffffffffffff167fddf252ad1be2c89b69c2b068fc378daa952ba7f163c4a11628f55a4df523b3ef836040516125bb9190613f32565b60405180910390a350505050565b60006125f77f21f83b85e7dbc596177bc46cc6795c14520638d6db8281a9a46e4d6aa22fb1aa60001b613cd5565b6126237f9fe8a1e1e7c5f38bddac874222fbac3da358d377b550af606038c28c918342a660001b613cd5565b61264f7f4d776035fe014c48f9b8d211e07ad5f3e10a7407e640d6fd44f001ad72ec145460001b613cd5565b60003390506126807f1470143c211ace273ad33be67e446aa27b56df8ff21c9e30df1c1ce1aab37faf60001b613cd5565b6126ac7f701a5aed6b7834b1cde40063ca2763d0cc2a2d369e96d6ffd63bd7f36d010be860001b613cd5565b3273ffffffffffffffffffffffffffffffffffffffff168173ffffffffffffffffffffffffffffffffffffffff160361276c5761270b7fde73d737f19da71f7e0a8be64041464998117e05c9bb9f65df2259a0779caaa960001b613cd5565b6127377f2e1b1201e86447778e6a37c8701809fecc19c6c17c8cdf9a32e27254363f132c60001b613cd5565b6127637f06438a6776a73eebdc69485314350483a51cfddc04e159b6f57dde5e4030039060001b613cd5565b80915050612a63565b6127987f6b510e6cfe0d366d8eb68be09db038d2dbfc0ca71029993b650b184340fc438a60001b613cd5565b6127c47fc81f2aa3e9c76ff8d9709ad059857726fb537b8fa6166dbedc9e3f598edddc4160001b613cd5565b6127f07fd5cec79665173c3237287beadc96f615eba8ff220376c7f0add1c603fa1dcb0260001b613cd5565b60006127fa613cd8565b90506128287f16b7bdd4d503ca2d391b420534e7b71ff847aea146e0c5e9b1d972d25ac95cf360001b613cd5565b6128547f8284349b0a2249652b224d12d5fd826a549839b4e0aab6630e88a99ebee0413860001b613cd5565b7f000000000000000000000000000000000000000000000000000000000000000073ffffffffffffffffffffffffffffffffffffffff168273ffffffffffffffffffffffffffffffffffffffff16148061294657507f000000000000000000000000000000000000000000000000000000000000000073ffffffffffffffffffffffffffffffffffffffff1663e60125d682846040518363ffffffff1660e01b815260040161290492919061461d565b602060405180830381865afa158015612921573d6000803e3d6000fd5b505050506040513d601f19601f820116820180604052508101906129459190614672565b5b156129d9576129777ff1748450d5c67d16e99d465b5f46314c0a03cb614c0a36c7a01d0d452a42d63760001b613cd5565b6129a37ffcb9fb7b37e10dcd260ee2b6500d072708cde8b16110ac602ac219c4f0ac7a8860001b613cd5565b6129cf7f0b8b6cb7f0d04c4b23441400a0a579a14ccf6e6d955d51d0d443ae3b764fbf1e60001b613cd5565b8092505050612a63565b612a057fc6338ea7b912cb871ae88b37af8abae50806bb4e29d453caf0758aea491b82ab60001b613cd5565b612a317fb1b2861ba78bbb686a91db34f76b76efe61d8e91016be1013861a8390b68a26860001b613cd5565b612a5d7f131b91089cbc4af49187f8d51fbbc23a25f13946f6ab1ab771005101548d429760001b613cd5565b81925050505b90565b50565b50565b612a987f523c5c55fa27c1465eb0ba13f6927ac81ca2e843dca5743a6ceafc60fd44a7a260001b613d3f565b612ac47f04772ea788fd843b127a602e9cfb0c6a91dd658dfc8c6564fb399afa5c8187c060001b613d3f565b612af07fcb69cb3c0f8a75e2c548a59a9a6f16480c220dc9611455e2f2a5ff64c19012f660001b613d3f565b6000612afb83613d42565b9050612b297f05454e9c8dc486b9dafcaafcc4a6b37e8e4a0bd10c5a957d6788a08d4705e74a60001b613d3f565b612b557f545be28ad664a45fbd66a4b1cf9af17e7b7fa1c0858756e55615423b09c10cf960001b613d3f565b612b817f7b74d3cbf19e745235b98e2e533402f6fea14c7950d83932d7459f8c0776ae7560001b613d3f565b81816000015410612bc7576040517f08c379a0000000000000000000000000000000000000000000000000000000008152600401612bbe906146eb565b60405180910390fd5b612bf37fb77e179c39cd483a2fb9d49c9d6baaf337e679c6fc0b0193351b78700052fb6060001b613d3f565b612c1f7f73251853a52f4546290b9dbdb4820ad06a75d361304d051af620ac9db846f98760001b613d3f565b612c4b7f8670f345bbc08bb652aae01676abdbb142983e1527aecdd350c544d4ac9aa25360001b613d3f565b818160000181905550505050565b612c857ff5bd43cfde7ce035d17176f68046e8b3a5b0b05dd5373e73d2cc78e82f595e5a60001b612a66565b612cb17f81a029ceadb1eaabe72f11a3bf1b278ca1c63e84dce7cf61cd9e1a80d3fff44160001b612a66565b612cdd7f36ffbdb2ef346858e8973ffe214c22836e2002a4327554281406221916bebac160001b612a66565b600082519050612d0f7f60b4ed87c79e7e67738e64e0f902cde93d3d0b09cfa984c6bae3379b44c4919460001b612a66565b612d3b7f3c8a8cb1b9afea31a9e218f9853684d576f662633ca9495eb42aa703aeffb86860001b612a66565b612d677f6d3a24a70dbe148314602b3a1d0ec821bdba3b7a669fbb13c77118abacde8a3e60001b612a66565b81518114612daa576040517f08c379a0000000000000000000000000000000000000000000000000000000008152600401612da190614757565b60405180910390fd5b612dd67faf0d6b0b77e39c652b4816268f489ed8196db844747d1231f38fa944a2bf54e060001b612a66565b612e027feb3e1d843173395acf921ac197c83b9ab7e7828348f4cadf5c209f88c83bf3de60001b612a66565b612e2e7fd88a60aa743aa367137ffd1cbe6bb82451725011f2ba81e23fed1d496a8ef4d060001b612a66565b60008103612e9457612e627fbc33a30cbac792fc5d5f1036227eb738150bf43e41bb36eaa02bfc9b66c37b7160001b612a66565b612e8e7ff300afb196ef3573faf600693c1166216b141c5495779feb96a7246959daa71860001b612a66565b50613583565b612ec07f7c37d88e36ebdd25e9350e8e877059c1a5c763d737ecb9dc5b9ce2469468170160001b612a66565b612eec7ff4f49e267902de78fa16572717e1be2575d67f2317c472b77a8e83bf087717e360001b612a66565b612f187f28007c1174d1a7a4df7eed26dec26c1f90838fe11c8c82c692964ac4380b413860001b612a66565b6000612f467f650e110d33fb8ad7fc43f51d9b83b1f2d4680f1bf1ffb11c1ab47fb30926dccb60001b612a66565b612f727fb972545b03585d67c4243a9e8b4eddb89f50932eddd416fe33f50df17194028460001b612a66565b60005b8281146133e057612fa87f3234b3b87691a1b4391b3eb6bae0914a726ab1de4d64e28e5c2e1f65c222abe660001b612a66565b612fd47fe3ef8fefe6ce4f0f849512c4c97611295f8996df8eb97840c33fb0690d5b314360001b612a66565b6000858281518110612fe957612fe8614777565b5b6020026020010151905061301f7f6efb7e4dfb3328329332d276f1a2fb67ae5aa715d49ed9b58558474b66df643b60001b612a66565b61304b7f13dd06aa6289465f649183eb8f7278cb09fde8e8e488e751081e8ea0aa31c2a260001b612a66565b6130777f32a40afc11f6db4842d75c4a82ad140ced7a9ba362f630709c7ab6795ca26e8460001b612a66565b600073ffffffffffffffffffffffffffffffffffffffff168173ffffffffffffffffffffffffffffffffffffffff16036130e6576040517f08c379a00000000000000000000000000000000000000000000000000000000081526004016130dd906147f2565b60405180910390fd5b6131127f77829d5b3e4bdc20aa33475a001f66138c3b43c8e424236711ab87eadac0b0cd60001b612a66565b61313e7ffa9022388824caef23331e91a94dc24838eb436edb8c029183484daa1d525aac60001b612a66565b61316a7fd552e1e0d82d6b4a1d068f5a60d8da665f82b0151c083e78bf2f8a3292509cb160001b612a66565b600085838151811061317f5761317e614777565b5b602002602001015190506131b57ff12ed7ed647f65cfd9564d69588515da5b604272351f83f6d759b13643903dd060001b612a66565b6131e17f63307f220d8a2d5d8ce8c62a5fdb9e5fd3521381cc5f982dad4a462377ec253060001b612a66565b600081146132e2576132157f34095a94ab97f9b383c5c6e75b45d3100586b27c586f1c36772ea89ea45b232e60001b612a66565b6132417fabc5bccf2f0f6d10a45030f08336f0172e9eb5c72b10a521bb7e605181eeaa7a60001b612a66565b6000818501905084811161328a576040517f08c379a00000000000000000000000000000000000000000000000000000000081526004016132819061485e565b60405180910390fd5b809450818960000160008573ffffffffffffffffffffffffffffffffffffffff1673ffffffffffffffffffffffffffffffffffffffff168152602001908152602001600020600082825401925050819055505061330f565b61330e7fbbb89e237966e2280cb02b56abc7a3ed33365e10bdeaf080dfd495b791f16e3860001b612a66565b5b61333b7f7d5fabe9fb46f803cc99069fb3ff9aa7916579e7f59e1ddd9246d6aee47b5a5560001b612a66565b6133677face4b810f6e41342846467aed83dd2bd7437bfb7691ec8d703b33ef27f9dbbc260001b612a66565b8173ffffffffffffffffffffffffffffffffffffffff16600073ffffffffffffffffffffffffffffffffffffffff167fddf252ad1be2c89b69c2b068fc378daa952ba7f163c4a11628f55a4df523b3ef836040516133c59190613f32565b60405180910390a35050806133d99061487e565b9050612f75565b5061340d7f5fcbed5bec23b40886553b5d2d6c280fe865bfe34a6606c774619c6f7061550060001b612a66565b6134397f2f91d651f6ccdfb80479807accd8f47ecdf6af23ec895d999c07a9ff3ccfed8d60001b612a66565b600081146135535761346d7f3bace79a2f8d152c3ca486ad0e15965e945f961c1841a272684114cabc91e23860001b612a66565b6134997ffcc92fbac9350f064cd28f1bd0657aa1b0d7be1f23038ba0c80ac81fef46837c60001b612a66565b6134c57f9cfc5f8e17ce9ec6a044728e3818c22aa997b7c01b1308768c637ea2bab3110e60001b612a66565b6000856002015490506134fa7ffdd9abf159a17b2b3813368f8427b2ee5bcd96b6523a5c8ba86400f7fcf74a7c60001b612a66565b60008282019050818111613543576040517f08c379a000000000000000000000000000000000000000000000000000000000815260040161353a90614912565b60405180910390fd5b8087600201819055505050613580565b61357f7f836fc48e5a656dd54778631c86b3ea3fbae3c79642f19a1f715ffc52a6b8027e60001b612a66565b5b50505b505050565b60006135b67f33dac451eefd1a6808163eecf8d47d7cba5f56d00787de044ff0ddc2ee89447d60001b613d4c565b6135e27f80b5daaa693fe30ccf9f1f19243499ce9fe4bada91264dd37e7099a713fc8c0360001b613d4c565b61360e7f66e2273229caef60ac0be45d070cc66ba1aaceeca2776bdf1fc50206d54f0f2260001b613d4c565b600060017f7180ffa89c91cf90d6c56dacabfc69bc5e36f3099d7eed2f5cc12c5dba016fe060001c6136409190614341565b60001b90506136717f283bb7ffa148f4f77b397c4f3d35798bfd3f1214dd2b6c078e2824cd344247cc60001b613d4c565b8091505090565b6136a47ffeeaaad6b1efab2833cc700d80f740603a4ac6746f8e38068c950d299cc199bf60001b613d4c565b6136d07f3ca2cb9a9b6e35728cedd7c19d4c121988341387931213a51eab1b4bbaf4113560001b613d4c565b6136fc7f1f9cdb98c65d0ad87aac43319c2670926bcb7c14904c7f9d4ade6235d82de71960001b613d4c565b6137287f5dbdac164f3e02893e8f90adfbe776f3f50c85847d234ab6fb16b0a4846759d760001b613d4c565b63ffffffff60e01b827bffffffffffffffffffffffffffffffffffffffffffffffffffffffff191603613790576040517f08c379a00000000000000000000000000000000000000000000000000000000081526004016137879061497e565b60405180910390fd5b6137bc7fd6b36b8472d324009615e496388c108ffb1831ab3bd7bded72d29ac4baf2ad1e60001b613d4c565b6137e87f7b2218cefa5bbb0f0239126c55783358df88ffab00f11d9c8f8e38985d9a8c9860001b613d4c565b6138147f2ad1063a0d34755f3bea24bcd3cfaff3dbbf63fbfa3f9b4c9c252fdffa66ed3360001b613d4c565b80836000016000847bffffffffffffffffffffffffffffffffffffffffffffffffffffffff19167bffffffffffffffffffffffffffffffffffffffffffffffffffffffff1916815260200190815260200160002060006101000a81548160ff021916908315150217905550505050565b3660006138b37ff74f168f3cfe88b8c75939ced6593b63b3a80d84384ea84798e06eb70c27e8b560001b613cd5565b6138df7f0c30881a465ce740e34b44da3f5682b69b261b3b3d916bf3cb638422722c466360001b613cd5565b61390b7f7d034622f0cfa82b1eafef58ff96909800ff5cbda4aec1c658399402313d1e4760001b613cd5565b600033905061393c7f3e7b906c7c24b8d911bba8092ce84f23b5c1596b35038fef4ace71fcce1f3a0e60001b613cd5565b6139687f76d316808c9e8931ac3d89e37ff8d9a597f8e50813fa0a88766b36313e96041060001b613cd5565b3273ffffffffffffffffffffffffffffffffffffffff168173ffffffffffffffffffffffffffffffffffffffff1603613a2c576139c77fa811c091d51641b1118f1402cc0638dc69041cba2f323377090e0a55500a152460001b613cd5565b6139f37ff673674fd259625637c155f7345382b871e4581df73bc53013494d30dd1dc16460001b613cd5565b613a1f7f108112c7eebc35534afdbeeca8c2ad7449209fe78eeb1f9fdd0c5f6fb3111cce60001b613cd5565b6000369250925050613cd1565b613a587f8e23e3f35cdceddd8b15b45bf787b8d6ae38e04c5870f4020c01d683a2f10fc560001b613cd5565b613a847fb4f48de4e10f2751022dce70d5876a74afb41b756eb77cdf4fe88835769afb1a60001b613cd5565b613ab07f2afe9b0d9d36347d263d9c298082ea9eea1c1879c9904d44b9316a451e41b92f60001b613cd5565b7f000000000000000000000000000000000000000000000000000000000000000073ffffffffffffffffffffffffffffffffffffffff168173ffffffffffffffffffffffffffffffffffffffff161480613ba957507f000000000000000000000000000000000000000000000000000000000000000073ffffffffffffffffffffffffffffffffffffffff1663e60125d6613b49613cd8565b836040518363ffffffff1660e01b8152600401613b6792919061461d565b602060405180830381865afa158015613b84573d6000803e3d6000fd5b505050506040513d601f19601f82011682018060405250810190613ba89190614672565b5b15613c4457613bda7f2191333a031dc1f79f931a9c32f8cc636186c8d1941bf6ad2d0e09669ccdb2fd60001b613cd5565b613c067f625d923af8cba91f74f7ad122740e01bcd36ee0be52b9596ca85f7881a963db360001b613cd5565b613c327f09e6b704caf4fc80a51357d4ff43f8bab75f1133b8a694db1fb7ac8851fe64b160001b613cd5565b613c3a613d4f565b9250925050613cd1565b613c707fcfd0711298438e2e01b8a5c4d5745b4b2a1fa1742e9ef04643fd654ff78cfca960001b613cd5565b613c9c7faec17026272a3ca53764ba29e047c1b72c1edbf88732d32ffae6b5c0d7fcf39960001b613cd5565b613cc87f7518e0f5afdd21984f9ce13318f9370b2d82da30fc4ffdbb78362126da32d52960001b613cd5565b60003692509250505b9091565b50565b6000613d067fd2d14d566965719ee17c5b60ff32623f910e7a0e574f2eeae19a64856bd35c4c60001b613e02565b613d327fa390d1eca31ebd819e35c63e13daa420bd40dcdd984217eef68768880371b01d60001b613e02565b601436033560601c905090565b50565b6000819050919050565b50565b366000613d7e7f7a9fde0e4d93131667b711f92dc641fa832990e5bb6a3b4626ffa6b5d4f3fdae60001b613e02565b613daa7fc610f11635537ce6a03686b10e383cf783da248254319abfbb04eeb973e3acd760001b613e02565b613dd67f17531d10ccf76e2a802938b28b374efcd761ac66995a64071083ebf2a16e732060001b613e02565b60003660009060146000369050613ded9190614341565b92613dfa939291906149a8565b915091509091565b50565b6000604051905090565b600080fd5b600080fd5b600073ffffffffffffffffffffffffffffffffffffffff82169050919050565b6000613e4482613e19565b9050919050565b613e5481613e39565b8114613e5f57600080fd5b50565b600081359050613e7181613e4b565b92915050565b6000819050919050565b613e8a81613e77565b8114613e9557600080fd5b50565b600081359050613ea781613e81565b92915050565b60008060408385031215613ec457613ec3613e0f565b5b6000613ed285828601613e62565b9250506020613ee385828601613e98565b9150509250929050565b60008115159050919050565b613f0281613eed565b82525050565b6000602082019050613f1d6000830184613ef9565b92915050565b613f2c81613e77565b82525050565b6000602082019050613f476000830184613f23565b92915050565b600080600060608486031215613f6657613f65613e0f565b5b6000613f7486828701613e62565b9350506020613f8586828701613e62565b9250506040613f9686828701613e98565b9150509250925092565b600080fd5b6000601f19601f8301169050919050565b7f4e487b7100000000000000000000000000000000000000000000000000000000600052604160045260246000fd5b613fee82613fa5565b810181811067ffffffffffffffff8211171561400d5761400c613fb6565b5b80604052505050565b6000614020613e05565b905061402c8282613fe5565b919050565b600067ffffffffffffffff82111561404c5761404b613fb6565b5b602082029050602081019050919050565b600080fd5b600061407561407084614031565b614016565b905080838252602082019050602084028301858111156140985761409761405d565b5b835b818110156140c157806140ad8882613e62565b84526020840193505060208101905061409a565b5050509392505050565b600082601f8301126140e0576140df613fa0565b5b81356140f0848260208601614062565b91505092915050565b600067ffffffffffffffff82111561411457614113613fb6565b5b602082029050602081019050919050565b6000614138614133846140f9565b614016565b9050808382526020820190506020840283018581111561415b5761415a61405d565b5b835b8181101561418457806141708882613e98565b84526020840193505060208101905061415d565b5050509392505050565b600082601f8301126141a3576141a2613fa0565b5b81356141b3848260208601614125565b91505092915050565b600080604083850312156141d3576141d2613e0f565b5b600083013567ffffffffffffffff8111156141f1576141f0613e14565b5b6141fd858286016140cb565b925050602083013567ffffffffffffffff81111561421e5761421d613e14565b5b61422a8582860161418e565b9150509250929050565b600082825260208201905092915050565b82818337600083830152505050565b60006142608385614234565b935061426d838584614245565b61427683613fa5565b840190509392505050565b6000602082019050818103600083015261429c818486614254565b90509392505050565b6000602082840312156142bb576142ba613e0f565b5b60006142c984828501613e62565b91505092915050565b600080604083850312156142e9576142e8613e0f565b5b60006142f785828601613e62565b925050602061430885828601613e62565b9150509250929050565b7f4e487b7100000000000000000000000000000000000000000000000000000000600052601160045260246000fd5b600061434c82613e77565b915061435783613e77565b92508282101561436a57614369614312565b5b828203905092915050565b600082825260208201905092915050565b7f45524332303a207a65726f2061646472657373207370656e6465720000000000600082015250565b60006143bc601b83614375565b91506143c782614386565b602082019050919050565b600060208201905081810360008301526143eb816143af565b9050919050565b7f50726f787941646d696e3a206e6f74207468652061646d696e00000000000000600082015250565b6000614428601983614375565b9150614433826143f2565b602082019050919050565b600060208201905081810360008301526144578161441b565b9050919050565b7f45524332303a20616c6c6f77616e6365206f766572666c6f7700000000000000600082015250565b6000614494601983614375565b915061449f8261445e565b602082019050919050565b600060208201905081810360008301526144c381614487565b9050919050565b7f45524332303a20696e73756666696369656e7420616c6c6f77616e6365000000600082015250565b6000614500601d83614375565b915061450b826144ca565b602082019050919050565b6000602082019050818103600083015261452f816144f3565b9050919050565b7f45524332303a20746f207a65726f206164647265737300000000000000000000600082015250565b600061456c601683614375565b915061457782614536565b602082019050919050565b6000602082019050818103600083015261459b8161455f565b9050919050565b7f45524332303a20696e73756666696369656e742062616c616e63650000000000600082015250565b60006145d8601b83614375565b91506145e3826145a2565b602082019050919050565b60006020820190508181036000830152614607816145cb565b9050919050565b61461781613e39565b82525050565b6000604082019050614632600083018561460e565b61463f602083018461460e565b9392505050565b61464f81613eed565b811461465a57600080fd5b50565b60008151905061466c81614646565b92915050565b60006020828403121561468857614687613e0f565b5b60006146968482850161465d565b91505092915050565b7f53746f726167653a2076657273696f6e20726561636865640000000000000000600082015250565b60006146d5601883614375565b91506146e08261469f565b602082019050919050565b60006020820190508181036000830152614704816146c8565b9050919050565b7f45524332303a20696e636f6e73697374656e7420617272617973000000000000600082015250565b6000614741601a83614375565b915061474c8261470b565b602082019050919050565b6000602082019050818103600083015261477081614734565b9050919050565b7f4e487b7100000000000000000000000000000000000000000000000000000000600052603260045260246000fd5b7f45524332303a206d696e7420746f207a65726f00000000000000000000000000600082015250565b60006147dc601383614375565b91506147e7826147a6565b602082019050919050565b6000602082019050818103600083015261480b816147cf565b9050919050565b7f45524332303a2076616c756573206f766572666c6f7700000000000000000000600082015250565b6000614848601683614375565b915061485382614812565b602082019050919050565b600060208201905081810360008301526148778161483b565b9050919050565b600061488982613e77565b91507fffffffffffffffffffffffffffffffffffffffffffffffffffffffffffffffff82036148bb576148ba614312565b5b600182019050919050565b7f45524332303a20737570706c79206f766572666c6f7700000000000000000000600082015250565b60006148fc601683614375565b9150614907826148c6565b602082019050919050565b6000602082019050818103600083015261492b816148ef565b9050919050565b7f496e74657266616365446574656374696f6e3a2077726f6e672076616c756500600082015250565b6000614968601f83614375565b915061497382614932565b602082019050919050565b600060208201905081810360008301526149978161495b565b9050919050565b600080fd5b600080fd5b600080858511156149bc576149bb61499e565b5b838611156149cd576149cc6149a3565b5b600185028301915084860390509450949250505056fea2646970667358221220a15a12c62abc0772b2fe519191fccbccb66e5d711bd88a853c9290fc27c07b7e64736f6c634300080d0033",
  "linkReferences": {},
  "deployedLinkReferences": {}
}