{
  "_format": "hh-sol-artifact-1",
  "contractName": "ERC20FacetMock",
  "sourceName": "contracts/mocks/token/ERC20/ERC20FacetMock.sol",
  "abi": [
    {
      "inputs": [
        {
          "internalType": "contract IForwarderRegistry",
          "name": "forwarderRegistry",
          "type": "address"
        }
      ],
      "stateMutability": "nonpayable",
      "type": "constructor"
    },
    {
      "anonymous": false,
      "inputs": [
        {
          "indexed": true,
          "internalType": "address",
          "name": "owner",
          "type": "address"
        },
        {
          "indexed": true,
          "internalType": "address",
          "name": "spender",
          "type": "address"
        },
        {
          "indexed": false,
          "internalType": "uint256",
          "name": "value",
          "type": "uint256"
        }
      ],
      "name": "Approval",
      "type": "event"
    },
    {
      "anonymous": false,
      "inputs": [
        {
          "indexed": true,
          "internalType": "address",
          "name": "from",
          "type": "address"
        },
        {
          "indexed": true,
          "internalType": "address",
          "name": "to",
          "type": "address"
        },
        {
          "indexed": false,
          "internalType": "uint256",
          "name": "value",
          "type": "uint256"
        }
      ],
      "name": "Transfer",
      "type": "event"
    },
    {
      "inputs": [],
      "name": "__msgData",
      "outputs": [
        {
          "internalType": "bytes",
          "name": "",
          "type": "bytes"
        }
      ],
      "stateMutability": "view",
      "type": "function"
    },
    {
      "inputs": [
        {
          "internalType": "address",
          "name": "owner",
          "type": "address"
        },
        {
          "internalType": "address",
          "name": "spender",
          "type": "address"
        }
      ],
      "name": "allowance",
      "outputs": [
        {
          "internalType": "uint256",
          "name": "",
          "type": "uint256"
        }
      ],
      "stateMutability": "view",
      "type": "function"
    },
    {
      "inputs": [
        {
          "internalType": "address",
          "name": "spender",
          "type": "address"
        },
        {
          "internalType": "uint256",
          "name": "value",
          "type": "uint256"
        }
      ],
      "name": "approve",
      "outputs": [
        {
          "internalType": "bool",
          "name": "",
          "type": "bool"
        }
      ],
      "stateMutability": "nonpayable",
      "type": "function"
    },
    {
      "inputs": [
        {
          "internalType": "address",
          "name": "account",
          "type": "address"
        }
      ],
      "name": "balanceOf",
      "outputs": [
        {
          "internalType": "uint256",
          "name": "",
          "type": "uint256"
        }
      ],
      "stateMutability": "view",
      "type": "function"
    },
    {
      "inputs": [
        {
          "internalType": "address",
          "name": "spender",
          "type": "address"
        },
        {
          "internalType": "uint256",
          "name": "subtractedValue",
          "type": "uint256"
        }
      ],
      "name": "decreaseAllowance",
      "outputs": [
        {
          "internalType": "bool",
          "name": "",
          "type": "bool"
        }
      ],
      "stateMutability": "nonpayable",
      "type": "function"
    },
    {
      "inputs": [
        {
          "internalType": "address",
          "name": "spender",
          "type": "address"
        },
        {
          "internalType": "uint256",
          "name": "addedValue",
          "type": "uint256"
        }
      ],
      "name": "increaseAllowance",
      "outputs": [
        {
          "internalType": "bool",
          "name": "",
          "type": "bool"
        }
      ],
      "stateMutability": "nonpayable",
      "type": "function"
    },
    {
      "inputs": [
        {
          "internalType": "address[]",
          "name": "holders",
          "type": "address[]"
        },
        {
          "internalType": "uint256[]",
          "name": "allocations",
          "type": "uint256[]"
        }
      ],
      "name": "initERC20Storage",
      "outputs": [],
      "stateMutability": "nonpayable",
      "type": "function"
    },
    {
      "inputs": [],
      "name": "totalSupply",
      "outputs": [
        {
          "internalType": "uint256",
          "name": "",
          "type": "uint256"
        }
      ],
      "stateMutability": "view",
      "type": "function"
    },
    {
      "inputs": [
        {
          "internalType": "address",
          "name": "to",
          "type": "address"
        },
        {
          "internalType": "uint256",
          "name": "value",
          "type": "uint256"
        }
      ],
      "name": "transfer",
      "outputs": [
        {
          "internalType": "bool",
          "name": "",
          "type": "bool"
        }
      ],
      "stateMutability": "nonpayable",
      "type": "function"
    },
    {
      "inputs": [
        {
          "internalType": "address",
          "name": "from",
          "type": "address"
        },
        {
          "internalType": "address",
          "name": "to",
          "type": "address"
        },
        {
          "internalType": "uint256",
          "name": "value",
          "type": "uint256"
        }
      ],
      "name": "transferFrom",
      "outputs": [
        {
          "internalType": "bool",
          "name": "",
          "type": "bool"
        }
      ],
      "stateMutability": "nonpayable",
      "type": "function"
    }
  ],
  "bytecode": "0x60a060405234801561001057600080fd5b5060405161174238038061174283398101604081905261002f91610040565b6001600160a01b0316608052610070565b60006020828403121561005257600080fd5b81516001600160a01b038116811461006957600080fd5b9392505050565b6080516116a26100a060003960008181610b4a01528181610bea015281816110eb015261115501526116a26000f3fe608060405234801561001057600080fd5b50600436106100be5760003560e01c80633950935111610076578063a457c2d71161005b578063a457c2d714610165578063a9059cbb14610178578063dd62ed3e1461018b57600080fd5b8063395093511461013f57806370a082311461015257600080fd5b806323b872dd116100a757806323b872dd1461010157806330a12c831461011457806331e66e1e1461012957600080fd5b8063095ea7b3146100c357806318160ddd146100eb575b600080fd5b6100d66100d136600461129e565b61019e565b60405190151581526020015b60405180910390f35b6100f36101c6565b6040519081526020016100e2565b6100d661010f3660046112c8565b6101d9565b610127610122366004611411565b610204565b005b610131610235565b6040516100e29291906114d1565b6100d661014d36600461129e565b610248565b6100f361016036600461151e565b610267565b6100d661017336600461129e565b61029d565b6100d661018636600461129e565b6102bc565b6100f3610199366004611540565b6102db565b60006101bd6101ab610322565b84846101b5610331565b929190610365565b50600192915050565b60006101d0610331565b60020154905090565b60006101fa6101e6610322565b8585856101f1610331565b93929190610459565b5060019392505050565b61021d61020f610322565b6102176104ab565b906104d9565b610231828261022a610331565b919061055c565b5050565b366000610240610604565b915091509091565b60006101bd610255610322565b848461025f610331565b92919061060f565b6000610271610331565b73ffffffffffffffffffffffffffffffffffffffff909216600090815260209290925250604090205490565b60006101bd6102aa610322565b84846102b4610331565b9291906107db565b60006101bd6102c9610322565b84846102d3610331565b92919061092d565b60006102e5610331565b73ffffffffffffffffffffffffffffffffffffffff9384166000908152600191909101602090815260408083209490951682529290925250205490565b600061032c610b0e565b905090565b60008061035f60017f1da92899d3da68bf9787824388a37ea2bfa79780bcef91b9716c390eec8ecbef6115a2565b92915050565b73ffffffffffffffffffffffffffffffffffffffff82166103e7576040517f08c379a000000000000000000000000000000000000000000000000000000000815260206004820152601b60248201527f45524332303a207a65726f2061646472657373207370656e646572000000000060448201526064015b60405180910390fd5b73ffffffffffffffffffffffffffffffffffffffff838116600081815260018701602090815260408083209487168084529482529182902085905590518481527f8c5be1e5ebec7d5bd14f71427d1e84f3dd0314c0f7b2291e5b200ac8c7c3b92591015b60405180910390a350505050565b8373ffffffffffffffffffffffffffffffffffffffff168373ffffffffffffffffffffffffffffffffffffffff161461049857610498858486846107db565b6104a48584848461092d565b5050505050565b60008061035f60017fb53127684a568b3173ae13b9f8a6016e243e63b6e8ee1178d6a717850b5d61046115a2565b815473ffffffffffffffffffffffffffffffffffffffff828116911614610231576040517f08c379a000000000000000000000000000000000000000000000000000000000815260206004820152601960248201527f50726f787941646d696e3a206e6f74207468652061646d696e0000000000000060448201526064016103de565b61059161058a60017f29556ab02630c82cd68880b714c652161a4c550fbc08f822cf0d4cbddfef3b546115a2565b6001610c66565b61059c838383610cd6565b6105d17f36372b070000000000000000000000000000000000000000000000000000000060016105ca610fb5565b9190610fe3565b6105ff7f9d0751860000000000000000000000000000000000000000000000000000000060016105ca610fb5565b505050565b3660006102406110d3565b73ffffffffffffffffffffffffffffffffffffffff821661068c576040517f08c379a000000000000000000000000000000000000000000000000000000000815260206004820152601b60248201527f45524332303a207a65726f2061646472657373207370656e646572000000000060448201526064016103de565b73ffffffffffffffffffffffffffffffffffffffff8084166000908152600186016020908152604080832093861683529290522054811561076d57808201818111610733576040517f08c379a000000000000000000000000000000000000000000000000000000000815260206004820152601960248201527f45524332303a20616c6c6f77616e6365206f766572666c6f770000000000000060448201526064016103de565b73ffffffffffffffffffffffffffffffffffffffff8086166000908152600188016020908152604080832093881683529290522081905590505b8273ffffffffffffffffffffffffffffffffffffffff168473ffffffffffffffffffffffffffffffffffffffff167f8c5be1e5ebec7d5bd14f71427d1e84f3dd0314c0f7b2291e5b200ac8c7c3b925836040516107cc91815260200190565b60405180910390a35050505050565b73ffffffffffffffffffffffffffffffffffffffff8216610858576040517f08c379a000000000000000000000000000000000000000000000000000000000815260206004820152601b60248201527f45524332303a207a65726f2061646472657373207370656e646572000000000060448201526064016103de565b73ffffffffffffffffffffffffffffffffffffffff80841660009081526001860160209081526040808320938616835292905220547fffffffffffffffffffffffffffffffffffffffffffffffffffffffffffffffff81148015906108bc57508115155b1561076d57818103818110610733576040517f08c379a000000000000000000000000000000000000000000000000000000000815260206004820152601d60248201527f45524332303a20696e73756666696369656e7420616c6c6f77616e636500000060448201526064016103de565b73ffffffffffffffffffffffffffffffffffffffff82166109aa576040517f08c379a000000000000000000000000000000000000000000000000000000000815260206004820152601660248201527f45524332303a20746f207a65726f20616464726573730000000000000000000060448201526064016103de565b8015610aaf5773ffffffffffffffffffffffffffffffffffffffff8316600090815260208590526040902054818103818110610a42576040517f08c379a000000000000000000000000000000000000000000000000000000000815260206004820152601b60248201527f45524332303a20696e73756666696369656e742062616c616e6365000000000060448201526064016103de565b8373ffffffffffffffffffffffffffffffffffffffff168573ffffffffffffffffffffffffffffffffffffffff1614610aac5773ffffffffffffffffffffffffffffffffffffffff8086166000908152602088905260408082208490559186168152208054840190555b50505b8173ffffffffffffffffffffffffffffffffffffffff168373ffffffffffffffffffffffffffffffffffffffff167fddf252ad1be2c89b69c2b068fc378daa952ba7f163c4a11628f55a4df523b3ef8360405161044b91815260200190565b600033328103610b1d57919050565b6000367fffffffffffffffffffffffffffffffffffffffffffffffffffffffffffffffec013560601c90507f000000000000000000000000000000000000000000000000000000000000000073ffffffffffffffffffffffffffffffffffffffff168273ffffffffffffffffffffffffffffffffffffffff161480610c5557506040517fe60125d600000000000000000000000000000000000000000000000000000000815273ffffffffffffffffffffffffffffffffffffffff828116600483015283811660248301527f0000000000000000000000000000000000000000000000000000000000000000169063e60125d690604401602060405180830381865afa158015610c31573d6000803e3d6000fd5b505050506040513d601f19601f82011682018060405250810190610c5591906115b9565b15610c605792915050565b50919050565b815482908211610cd2576040517f08c379a000000000000000000000000000000000000000000000000000000000815260206004820152601860248201527f53746f726167653a2076657273696f6e2072656163686564000000000000000060448201526064016103de565b5550565b815181518114610d42576040517f08c379a000000000000000000000000000000000000000000000000000000000815260206004820152601a60248201527f45524332303a20696e636f6e73697374656e742061727261797300000000000060448201526064016103de565b80600003610d505750505050565b6000805b828114610f30576000858281518110610d6f57610d6f6115db565b60200260200101519050600073ffffffffffffffffffffffffffffffffffffffff168173ffffffffffffffffffffffffffffffffffffffff1603610e0f576040517f08c379a000000000000000000000000000000000000000000000000000000000815260206004820152601360248201527f45524332303a206d696e7420746f207a65726f0000000000000000000000000060448201526064016103de565b6000858381518110610e2357610e236115db565b6020026020010151905080600014610ecf57838101848111610ea1576040517f08c379a000000000000000000000000000000000000000000000000000000000815260206004820152601660248201527f45524332303a2076616c756573206f766572666c6f770000000000000000000060448201526064016103de565b73ffffffffffffffffffffffffffffffffffffffff8316600090815260208a90526040902080548301905593505b60405181815273ffffffffffffffffffffffffffffffffffffffff8316906000907fddf252ad1be2c89b69c2b068fc378daa952ba7f163c4a11628f55a4df523b3ef9060200160405180910390a3505080610f299061160a565b9050610d54565b5080156104a4576002850154818101818111610fa8576040517f08c379a000000000000000000000000000000000000000000000000000000000815260206004820152601660248201527f45524332303a20737570706c79206f766572666c6f770000000000000000000060448201526064016103de565b6002870155505050505050565b60008061035f60017fca9d3e17f264b0f3984e2634e94adb37fa3e6a8103f06aeae6fa59e21c769f5e6115a2565b7fffffffff00000000000000000000000000000000000000000000000000000000808316900361106f576040517f08c379a000000000000000000000000000000000000000000000000000000000815260206004820152601f60248201527f496e74657266616365446574656374696f6e3a2077726f6e672076616c75650060448201526064016103de565b7fffffffff00000000000000000000000000000000000000000000000000000000919091166000908152602092909252604090912080547fffffffffffffffffffffffffffffffffffffffffffffffffffffffffffffff0016911515919091179055565b366000333281036110e957506000923692509050565b7f000000000000000000000000000000000000000000000000000000000000000073ffffffffffffffffffffffffffffffffffffffff168173ffffffffffffffffffffffffffffffffffffffff161480611236575073ffffffffffffffffffffffffffffffffffffffff7f00000000000000000000000000000000000000000000000000000000000000001663e60125d6367fffffffffffffffffffffffffffffffffffffffffffffffffffffffffffffffec013560601c6040517fffffffff0000000000000000000000000000000000000000000000000000000060e084901b16815273ffffffffffffffffffffffffffffffffffffffff91821660048201529084166024820152604401602060405180830381865afa158015611212573d6000803e3d6000fd5b505050506040513d601f19601f8201168201806040525081019061123691906115b9565b1561124c57611243611257565b92509250509091565b506000923692509050565b3660008080836112686014826115a2565b9261024093929190611642565b803573ffffffffffffffffffffffffffffffffffffffff8116811461129957600080fd5b919050565b600080604083850312156112b157600080fd5b6112ba83611275565b946020939093013593505050565b6000806000606084860312156112dd57600080fd5b6112e684611275565b92506112f460208501611275565b9150604084013590509250925092565b7f4e487b7100000000000000000000000000000000000000000000000000000000600052604160045260246000fd5b604051601f82017fffffffffffffffffffffffffffffffffffffffffffffffffffffffffffffffe016810167ffffffffffffffff8111828210171561137a5761137a611304565b604052919050565b600067ffffffffffffffff82111561139c5761139c611304565b5060051b60200190565b600082601f8301126113b757600080fd5b813560206113cc6113c783611382565b611333565b82815260059290921b840181019181810190868411156113eb57600080fd5b8286015b8481101561140657803583529183019183016113ef565b509695505050505050565b6000806040838503121561142457600080fd5b823567ffffffffffffffff8082111561143c57600080fd5b818501915085601f83011261145057600080fd5b813560206114606113c783611382565b82815260059290921b8401810191818101908984111561147f57600080fd5b948201945b838610156114a45761149586611275565b82529482019490820190611484565b965050860135925050808211156114ba57600080fd5b506114c7858286016113a6565b9150509250929050565b60208152816020820152818360408301376000818301604090810191909152601f9092017fffffffffffffffffffffffffffffffffffffffffffffffffffffffffffffffe0160101919050565b60006020828403121561153057600080fd5b61153982611275565b9392505050565b6000806040838503121561155357600080fd5b61155c83611275565b915061156a60208401611275565b90509250929050565b7f4e487b7100000000000000000000000000000000000000000000000000000000600052601160045260246000fd5b6000828210156115b4576115b4611573565b500390565b6000602082840312156115cb57600080fd5b8151801515811461153957600080fd5b7f4e487b7100000000000000000000000000000000000000000000000000000000600052603260045260246000fd5b60007fffffffffffffffffffffffffffffffffffffffffffffffffffffffffffffffff820361163b5761163b611573565b5060010190565b6000808585111561165257600080fd5b8386111561165f57600080fd5b505082019391909203915056fea2646970667358221220b39f5b9cf6f4e3605f5cdca97cb02f8d481a23934ba62c4efdfd56beb04e2d6164736f6c634300080e0033",
  "linkReferences": {},
  "deployedLinkReferences": {}
}