{
  "_format": "hh-sol-artifact-1",
  "contractName": "OperatorFiltererFacetMock",
  "sourceName": "contracts/mocks/token/royalty/facets/OperatorFiltererFacetMock.sol",
  "abi": [
    {
      "inputs": [
        {
          "internalType": "contract IForwarderRegistry",
          "name": "forwarderRegistry",
          "type": "address"
        }
      ],
      "stateMutability": "nonpayable",
      "type": "constructor"
    },
    {
      "inputs": [
        {
          "internalType": "uint256",
          "name": "currentPhase",
          "type": "uint256"
        },
        {
          "internalType": "uint256",
          "name": "newPhase",
          "type": "uint256"
        }
      ],
      "name": "InitializationPhaseAlreadyReached",
      "type": "error"
    },
    {
      "inputs": [
        {
          "internalType": "address",
          "name": "account",
          "type": "address"
        }
      ],
      "name": "NotContractOwner",
      "type": "error"
    },
    {
      "inputs": [
        {
          "internalType": "address",
          "name": "account",
          "type": "address"
        }
      ],
      "name": "NotProxyAdmin",
      "type": "error"
    },
    {
      "inputs": [],
      "name": "__msgData",
      "outputs": [
        {
          "internalType": "bytes",
          "name": "",
          "type": "bytes"
        }
      ],
      "stateMutability": "view",
      "type": "function"
    },
    {
      "inputs": [
        {
          "internalType": "contract IOperatorFilterRegistry",
          "name": "operatorFilterRegistry",
          "type": "address"
        }
      ],
      "name": "initOperatorFilterer",
      "outputs": [],
      "stateMutability": "nonpayable",
      "type": "function"
    },
    {
      "inputs": [],
      "name": "operatorFilterRegistry",
      "outputs": [
        {
          "internalType": "contract IOperatorFilterRegistry",
          "name": "",
          "type": "address"
        }
      ],
      "stateMutability": "view",
      "type": "function"
    },
    {
      "inputs": [
        {
          "internalType": "contract IOperatorFilterRegistry",
          "name": "registry",
          "type": "address"
        }
      ],
      "name": "updateOperatorFilterRegistry",
      "outputs": [],
      "stateMutability": "nonpayable",
      "type": "function"
    }
  ],
  "bytecode": "0x60a060405234801561000f575f80fd5b5060405161088338038061088383398101604081905261002e9161003f565b6001600160a01b031660805261006c565b5f6020828403121561004f575f80fd5b81516001600160a01b0381168114610065575f80fd5b9392505050565b6080516107ea6100995f395f81816103cd0152818161045501528181610550015261058e01526107ea5ff3fe608060405234801561000f575f80fd5b506004361061004a575f3560e01c8063114ba8ee1461004e57806330fd6a751461006357806331e66e1e14610076578063b0ccc31e14610095575b5f80fd5b61006161005c3660046106b0565b6100c2565b005b6100616100713660046106b0565b61012d565b61007e610158565b60405161008c9291906106ea565b60405180910390f35b61009d61016a565b60405173ffffffffffffffffffffffffffffffffffffffff909116815260200161008c565b6100db6100cd610195565b6100d561019e565b906101d1565b61012a816100e7610245565b9081547fffffffffffffffffffffffff00000000000000000000000000000000000000001673ffffffffffffffffffffffffffffffffffffffff91909116179055565b50565b610146610138610195565b610140610272565b9061029f565b61012a81610152610245565b9061030a565b365f610162610381565b915091509091565b5f610190610176610245565b5473ffffffffffffffffffffffffffffffffffffffff1690565b905090565b5f61019061038b565b5f806101cb60017fc9ed16f33ab3a66c84bfd83099ccb2a8845871e2e1c1928f63797152f0fd54cd610736565b92915050565b815473ffffffffffffffffffffffffffffffffffffffff828116911614610241576040517f2ef4875e00000000000000000000000000000000000000000000000000000000815273ffffffffffffffffffffffffffffffffffffffff821660048201526024015b60405180910390fd5b5050565b5f806101cb60017f609b85bcafa81ecfaf3ff62cdde2c6c9082a68dbe4922f07399c706bdeb7cd31610736565b5f806101cb60017fb53127684a568b3173ae13b9f8a6016e243e63b6e8ee1178d6a717850b5d6104610736565b815473ffffffffffffffffffffffffffffffffffffffff828116911614610241576040517f673a31a100000000000000000000000000000000000000000000000000000000815273ffffffffffffffffffffffffffffffffffffffff82166004820152602401610238565b61033f61033860017f2f02d396cb1be29636682c8684200b30a98554d3b74293aa4495cb5e1d252f6e610736565b60016104cf565b81547fffffffffffffffffffffffff00000000000000000000000000000000000000001673ffffffffffffffffffffffffffffffffffffffff91909116179055565b365f61016261051b565b5f3332148061039a5750601836105b156103a457503390565b7fffffffffffffffffffffffffffffffffffffffffffffffffffffffffffffffec36013560601c7f000000000000000000000000000000000000000000000000000000000000000073ffffffffffffffffffffffffffffffffffffffff163314806104be57506040517f8929a8ca00000000000000000000000000000000000000000000000000000000815273ffffffffffffffffffffffffffffffffffffffff82811660048301523360248301527f00000000000000000000000000000000000000000000000000000000000000001690638929a8ca90604401602060405180830381865afa15801561049a573d5f803e3d5ffd5b505050506040513d601f19601f820116820180604052508101906104be919061076e565b156104c857919050565b3391505090565b81548290828110610516576040517fbf0c18ec0000000000000000000000000000000000000000000000000000000081526004810182905260248101849052604401610238565b505550565b365f3332148061052b5750601836105b1561053857505f91369150565b3373ffffffffffffffffffffffffffffffffffffffff7f000000000000000000000000000000000000000000000000000000000000000016148061066b575073ffffffffffffffffffffffffffffffffffffffff7f000000000000000000000000000000000000000000000000000000000000000016638929a8ca367fffffffffffffffffffffffffffffffffffffffffffffffffffffffffffffffec013560601c6040517fffffffff0000000000000000000000000000000000000000000000000000000060e084901b16815273ffffffffffffffffffffffffffffffffffffffff9091166004820152336024820152604401602060405180830381865afa158015610647573d5f803e3d5ffd5b505050506040513d601f19601f8201168201806040525081019061066b919061076e565b1561067857610162610680565b505f91369150565b365f6101627fffffffffffffffffffffffffffffffffffffffffffffffffffffffffffffffec830182848161078d565b5f602082840312156106c0575f80fd5b813573ffffffffffffffffffffffffffffffffffffffff811681146106e3575f80fd5b9392505050565b60208152816020820152818360408301375f818301604090810191909152601f9092017fffffffffffffffffffffffffffffffffffffffffffffffffffffffffffffffe0160101919050565b818103818111156101cb577f4e487b71000000000000000000000000000000000000000000000000000000005f52601160045260245ffd5b5f6020828403121561077e575f80fd5b815180151581146106e3575f80fd5b5f808585111561079b575f80fd5b838611156107a7575f80fd5b505082019391909203915056fea2646970667358221220df61aed89f47d73ef5a3ec0623b5cc43b6593c338c1e148addbf1a5a1a962cc264736f6c63430008150033",
  "linkReferences": {},
  "deployedLinkReferences": {}
}