{
  "_format": "hh-sol-artifact-1",
  "contractName": "OperatorFiltererFacetMock",
  "sourceName": "contracts/mocks/token/royalty/facets/OperatorFiltererFacetMock.sol",
  "abi": [
    {
      "inputs": [
        {
          "internalType": "contract IForwarderRegistry",
          "name": "forwarderRegistry",
          "type": "address"
        }
      ],
      "stateMutability": "nonpayable",
      "type": "constructor"
    },
    {
      "inputs": [],
      "name": "__msgData",
      "outputs": [
        {
          "internalType": "bytes",
          "name": "",
          "type": "bytes"
        }
      ],
      "stateMutability": "view",
      "type": "function"
    },
    {
      "inputs": [
        {
          "internalType": "contract IOperatorFilterRegistry",
          "name": "operatorFilterRegistry",
          "type": "address"
        }
      ],
      "name": "initOperatorFilterer",
      "outputs": [],
      "stateMutability": "nonpayable",
      "type": "function"
    },
    {
      "inputs": [],
      "name": "operatorFilterRegistry",
      "outputs": [
        {
          "internalType": "contract IOperatorFilterRegistry",
          "name": "",
          "type": "address"
        }
      ],
      "stateMutability": "view",
      "type": "function"
    },
    {
      "inputs": [
        {
          "internalType": "contract IOperatorFilterRegistry",
          "name": "registry",
          "type": "address"
        }
      ],
      "name": "updateOperatorFilterRegistry",
      "outputs": [],
      "stateMutability": "nonpayable",
      "type": "function"
    }
  ],
  "bytecode": "0x60a060405234801561000f575f80fd5b506040516108d73803806108d783398101604081905261002e9161003f565b6001600160a01b031660805261006c565b5f6020828403121561004f575f80fd5b81516001600160a01b0381168114610065575f80fd5b9392505050565b60805161083e6100995f395f81816103fd01528181610485015281816105a401526105e2015261083e5ff3fe608060405234801561000f575f80fd5b506004361061004a575f3560e01c8063114ba8ee1461004e57806330fd6a751461006357806331e66e1e14610076578063b0ccc31e14610095575b5f80fd5b61006161005c366004610704565b6100c2565b005b610061610071366004610704565b61012d565b61007e610158565b60405161008c92919061073e565b60405180910390f35b61009d61016a565b60405173ffffffffffffffffffffffffffffffffffffffff909116815260200161008c565b6100db6100cd610195565b6100d561019e565b906101d1565b61012a816100e761025d565b9081547fffffffffffffffffffffffff00000000000000000000000000000000000000001673ffffffffffffffffffffffffffffffffffffffff91909116179055565b50565b610146610138610195565b61014061028a565b906102b7565b61012a8161015261025d565b9061033a565b365f6101626103b1565b915091509091565b5f61019061017661025d565b5473ffffffffffffffffffffffffffffffffffffffff1690565b905090565b5f6101906103bb565b5f806101cb60017fc9ed16f33ab3a66c84bfd83099ccb2a8845871e2e1c1928f63797152f0fd54cd61078a565b92915050565b815473ffffffffffffffffffffffffffffffffffffffff828116911614610259576040517f08c379a000000000000000000000000000000000000000000000000000000000815260206004820152601860248201527f4f776e6572736869703a206e6f7420746865206f776e6572000000000000000060448201526064015b60405180910390fd5b5050565b5f806101cb60017f609b85bcafa81ecfaf3ff62cdde2c6c9082a68dbe4922f07399c706bdeb7cd3161078a565b5f806101cb60017fb53127684a568b3173ae13b9f8a6016e243e63b6e8ee1178d6a717850b5d610461078a565b815473ffffffffffffffffffffffffffffffffffffffff828116911614610259576040517f08c379a000000000000000000000000000000000000000000000000000000000815260206004820152601960248201527f50726f787941646d696e3a206e6f74207468652061646d696e000000000000006044820152606401610250565b61036f61036860017f2f02d396cb1be29636682c8684200b30a98554d3b74293aa4495cb5e1d252f6e61078a565b60016104ff565b81547fffffffffffffffffffffffff00000000000000000000000000000000000000001673ffffffffffffffffffffffffffffffffffffffff91909116179055565b365f61016261056f565b5f333214806103ca5750601836105b156103d457503390565b7fffffffffffffffffffffffffffffffffffffffffffffffffffffffffffffffec36013560601c7f000000000000000000000000000000000000000000000000000000000000000073ffffffffffffffffffffffffffffffffffffffff163314806104ee57506040517f8929a8ca00000000000000000000000000000000000000000000000000000000815273ffffffffffffffffffffffffffffffffffffffff82811660048301523360248301527f00000000000000000000000000000000000000000000000000000000000000001690638929a8ca90604401602060405180830381865afa1580156104ca573d5f803e3d5ffd5b505050506040513d601f19601f820116820180604052508101906104ee91906107c2565b156104f857919050565b3391505090565b81548290821161056b576040517f08c379a000000000000000000000000000000000000000000000000000000000815260206004820152601660248201527f53746f726167653a2070686173652072656163686564000000000000000000006044820152606401610250565b5550565b365f3332148061057f5750601836105b1561058c57505f91369150565b3373ffffffffffffffffffffffffffffffffffffffff7f00000000000000000000000000000000000000000000000000000000000000001614806106bf575073ffffffffffffffffffffffffffffffffffffffff7f000000000000000000000000000000000000000000000000000000000000000016638929a8ca367fffffffffffffffffffffffffffffffffffffffffffffffffffffffffffffffec013560601c6040517fffffffff0000000000000000000000000000000000000000000000000000000060e084901b16815273ffffffffffffffffffffffffffffffffffffffff9091166004820152336024820152604401602060405180830381865afa15801561069b573d5f803e3d5ffd5b505050506040513d601f19601f820116820180604052508101906106bf91906107c2565b156106cc576101626106d4565b505f91369150565b365f6101627fffffffffffffffffffffffffffffffffffffffffffffffffffffffffffffffec83018284816107e1565b5f60208284031215610714575f80fd5b813573ffffffffffffffffffffffffffffffffffffffff81168114610737575f80fd5b9392505050565b60208152816020820152818360408301375f818301604090810191909152601f9092017fffffffffffffffffffffffffffffffffffffffffffffffffffffffffffffffe0160101919050565b818103818111156101cb577f4e487b71000000000000000000000000000000000000000000000000000000005f52601160045260245ffd5b5f602082840312156107d2575f80fd5b81518015158114610737575f80fd5b5f80858511156107ef575f80fd5b838611156107fb575f80fd5b505082019391909203915056fea264697066735822122022fd6ea8293b9d43952b7b8a559da87c9007134ae2151a5f333c9744e2902fd564736f6c63430008150033",
  "linkReferences": {},
  "deployedLinkReferences": {}
}