{
  "_format": "hh-sol-artifact-1",
  "contractName": "ProxyAdminFacetMock",
  "sourceName": "contracts/mocks/proxy/facets/ProxyAdminFacetMock.sol",
  "abi": [
    {
      "inputs": [
        {
          "internalType": "contract IForwarderRegistry",
          "name": "forwarderRegistry",
          "type": "address"
        }
      ],
      "stateMutability": "nonpayable",
      "type": "constructor"
    },
    {
      "inputs": [
        {
          "internalType": "uint256",
          "name": "currentPhase",
          "type": "uint256"
        },
        {
          "internalType": "uint256",
          "name": "newPhase",
          "type": "uint256"
        }
      ],
      "name": "InitializationPhaseAlreadyReached",
      "type": "error"
    },
    {
      "inputs": [],
      "name": "NoInitialProxyAdmin",
      "type": "error"
    },
    {
      "inputs": [
        {
          "internalType": "address",
          "name": "account",
          "type": "address"
        }
      ],
      "name": "NotProxyAdmin",
      "type": "error"
    },
    {
      "anonymous": false,
      "inputs": [
        {
          "indexed": false,
          "internalType": "address",
          "name": "previousAdmin",
          "type": "address"
        },
        {
          "indexed": false,
          "internalType": "address",
          "name": "newAdmin",
          "type": "address"
        }
      ],
      "name": "AdminChanged",
      "type": "event"
    },
    {
      "inputs": [],
      "name": "__msgData",
      "outputs": [
        {
          "internalType": "bytes",
          "name": "",
          "type": "bytes"
        }
      ],
      "stateMutability": "view",
      "type": "function"
    },
    {
      "inputs": [
        {
          "internalType": "address",
          "name": "newAdmin",
          "type": "address"
        }
      ],
      "name": "changeProxyAdmin",
      "outputs": [],
      "stateMutability": "nonpayable",
      "type": "function"
    },
    {
      "inputs": [
        {
          "internalType": "address",
          "name": "account",
          "type": "address"
        }
      ],
      "name": "enforceIsProxyAdmin",
      "outputs": [],
      "stateMutability": "view",
      "type": "function"
    },
    {
      "inputs": [
        {
          "internalType": "address",
          "name": "initialAdmin",
          "type": "address"
        }
      ],
      "name": "initProxyAdminStorage",
      "outputs": [],
      "stateMutability": "nonpayable",
      "type": "function"
    },
    {
      "inputs": [],
      "name": "proxyAdmin",
      "outputs": [
        {
          "internalType": "address",
          "name": "admin",
          "type": "address"
        }
      ],
      "stateMutability": "view",
      "type": "function"
    }
  ],
  "bytecode": "0x60a060405234801561001057600080fd5b5060405161097438038061097483398101604081905261002f91610040565b6001600160a01b0316608052610070565b60006020828403121561005257600080fd5b81516001600160a01b038116811461006957600080fd5b9392505050565b6080516108d46100a0600039600081816103cb015281816104090152818161065901526106e101526108d46000f3fe608060405234801561001057600080fd5b50600436106100675760003560e01c80634d350622116100505780634d350622146100b85780638eafcf67146100cd5780639f712f2f146100e057600080fd5b806331e66e1e1461006c5780633e47158c1461008b575b600080fd5b6100746100f3565b60405161008292919061078e565b60405180910390f35b610093610106565b60405173ffffffffffffffffffffffffffffffffffffffff9091168152602001610082565b6100cb6100c63660046107db565b610132565b005b6100cb6100db3660046107db565b610147565b6100cb6100ee3660046107db565b610159565b3660006100fe610174565b915091509091565b600061012d61011361017f565b5473ffffffffffffffffffffffffffffffffffffffff1690565b905090565b6101448161013e61017f565b906101b3565b50565b6101448161015361017f565b906101f6565b610144610164610266565b8261016d61017f565b9190610270565b3660006100fe610394565b6000806101ad60017fb53127684a568b3173ae13b9f8a6016e243e63b6e8ee1178d6a717850b5d6104610818565b92915050565b6101e86101e160017fc4214a2a0bb1b53325bec6bf1dc591abd32036bb3f39039f460ac4a3eb0f7298610818565b60016104fe565b6101f2828261054a565b5050565b815473ffffffffffffffffffffffffffffffffffffffff8281169116146101f2576040517f673a31a100000000000000000000000000000000000000000000000000000000815273ffffffffffffffffffffffffffffffffffffffff821660048201526024015b60405180910390fd5b600061012d610616565b825473ffffffffffffffffffffffffffffffffffffffff90811690831681146102dd576040517f673a31a100000000000000000000000000000000000000000000000000000000815273ffffffffffffffffffffffffffffffffffffffff8416600482015260240161025d565b8173ffffffffffffffffffffffffffffffffffffffff168173ffffffffffffffffffffffffffffffffffffffff161461038e5783547fffffffffffffffffffffffff00000000000000000000000000000000000000001673ffffffffffffffffffffffffffffffffffffffff838116918217865560408051918416825260208201929092527f7e644d79422f17c01e4894b5f4f588d331ebfa28653d42ae832dc59e38c9798f910160405180910390a15b50505050565b366000333214806103a55750601836105b156103b35750600091369150565b3373ffffffffffffffffffffffffffffffffffffffff7f00000000000000000000000000000000000000000000000000000000000000001614806104e8575073ffffffffffffffffffffffffffffffffffffffff7f000000000000000000000000000000000000000000000000000000000000000016638929a8ca367fffffffffffffffffffffffffffffffffffffffffffffffffffffffffffffffec013560601c6040517fffffffff0000000000000000000000000000000000000000000000000000000060e084901b16815273ffffffffffffffffffffffffffffffffffffffff9091166004820152336024820152604401602060405180830381865afa1580156104c4573d6000803e3d6000fd5b505050506040513d601f19601f820116820180604052508101906104e89190610852565b156104f5576100fe61075d565b50600091369150565b81548290828110610545576040517fbf0c18ec000000000000000000000000000000000000000000000000000000008152600481018290526024810184905260440161025d565b505550565b73ffffffffffffffffffffffffffffffffffffffff8116610597576040517fbf91956000000000000000000000000000000000000000000000000000000000815260040160405180910390fd5b81547fffffffffffffffffffffffff00000000000000000000000000000000000000001673ffffffffffffffffffffffffffffffffffffffff82169081178355604080516000815260208101929092527f7e644d79422f17c01e4894b5f4f588d331ebfa28653d42ae832dc59e38c9798f910160405180910390a15050565b6000333214806106265750601836105b1561063057503390565b7fffffffffffffffffffffffffffffffffffffffffffffffffffffffffffffffec36013560601c7f000000000000000000000000000000000000000000000000000000000000000073ffffffffffffffffffffffffffffffffffffffff1633148061074c57506040517f8929a8ca00000000000000000000000000000000000000000000000000000000815273ffffffffffffffffffffffffffffffffffffffff82811660048301523360248301527f00000000000000000000000000000000000000000000000000000000000000001690638929a8ca90604401602060405180830381865afa158015610728573d6000803e3d6000fd5b505050506040513d601f19601f8201168201806040525081019061074c9190610852565b1561075657919050565b3391505090565b3660006100fe7fffffffffffffffffffffffffffffffffffffffffffffffffffffffffffffffec8301828481610874565b60208152816020820152818360408301376000818301604090810191909152601f9092017fffffffffffffffffffffffffffffffffffffffffffffffffffffffffffffffe0160101919050565b6000602082840312156107ed57600080fd5b813573ffffffffffffffffffffffffffffffffffffffff8116811461081157600080fd5b9392505050565b818103818111156101ad577f4e487b7100000000000000000000000000000000000000000000000000000000600052601160045260246000fd5b60006020828403121561086457600080fd5b8151801515811461081157600080fd5b6000808585111561088457600080fd5b8386111561089157600080fd5b505082019391909203915056fea2646970667358221220243cd68e26cef1fa219b7188391950f14f59db46b7ad81a3b28d98d32052658164736f6c63430008150033",
  "linkReferences": {},
  "deployedLinkReferences": {}
}