{
  "_format": "hh-sol-artifact-1",
  "contractName": "ERC20BatchTransfersFacetMock",
  "sourceName": "contracts/mocks/token/ERC20/facets/ERC20BatchTransfersFacetMock.sol",
  "abi": [
    {
      "inputs": [
        {
          "internalType": "contract IForwarderRegistry",
          "name": "forwarderRegistry",
          "type": "address"
        }
      ],
      "stateMutability": "nonpayable",
      "type": "constructor"
    },
    {
      "anonymous": false,
      "inputs": [
        {
          "indexed": true,
          "internalType": "address",
          "name": "owner",
          "type": "address"
        },
        {
          "indexed": true,
          "internalType": "address",
          "name": "spender",
          "type": "address"
        },
        {
          "indexed": false,
          "internalType": "uint256",
          "name": "value",
          "type": "uint256"
        }
      ],
      "name": "Approval",
      "type": "event"
    },
    {
      "anonymous": false,
      "inputs": [
        {
          "indexed": true,
          "internalType": "address",
          "name": "from",
          "type": "address"
        },
        {
          "indexed": true,
          "internalType": "address",
          "name": "to",
          "type": "address"
        },
        {
          "indexed": false,
          "internalType": "uint256",
          "name": "value",
          "type": "uint256"
        }
      ],
      "name": "Transfer",
      "type": "event"
    },
    {
      "inputs": [],
      "name": "__msgData",
      "outputs": [
        {
          "internalType": "bytes",
          "name": "",
          "type": "bytes"
        }
      ],
      "stateMutability": "view",
      "type": "function"
    },
    {
      "inputs": [
        {
          "internalType": "address[]",
          "name": "recipients",
          "type": "address[]"
        },
        {
          "internalType": "uint256[]",
          "name": "values",
          "type": "uint256[]"
        }
      ],
      "name": "batchTransfer",
      "outputs": [
        {
          "internalType": "bool",
          "name": "",
          "type": "bool"
        }
      ],
      "stateMutability": "nonpayable",
      "type": "function"
    },
    {
      "inputs": [
        {
          "internalType": "address",
          "name": "from",
          "type": "address"
        },
        {
          "internalType": "address[]",
          "name": "recipients",
          "type": "address[]"
        },
        {
          "internalType": "uint256[]",
          "name": "values",
          "type": "uint256[]"
        }
      ],
      "name": "batchTransferFrom",
      "outputs": [
        {
          "internalType": "bool",
          "name": "",
          "type": "bool"
        }
      ],
      "stateMutability": "nonpayable",
      "type": "function"
    },
    {
      "inputs": [],
      "name": "initERC20BatchTransfersStorage",
      "outputs": [],
      "stateMutability": "nonpayable",
      "type": "function"
    }
  ],
  "bytecode": "0x60a060405234801561000f575f80fd5b506040516113d23803806113d283398101604081905261002e9161003f565b6001600160a01b031660805261006c565b5f6020828403121561004f575f80fd5b81516001600160a01b0381168114610065575f80fd5b9392505050565b6080516113396100995f395f8181610ac601528181610b0401528181610c380152610cc001526113395ff3fe608060405234801561000f575f80fd5b506004361061004a575f3560e01c806331e66e1e1461004e5780634885b2541461006d57806388d695b214610090578063c30f1be1146100a3575b5f80fd5b6100566100ad565b60405161006492919061109a565b60405180910390f35b61008061007b366004611156565b6100bf565b6040519015158152602001610064565b61008061009e3660046111d1565b6100ef565b6100ab61011c565b005b365f6100b761013f565b915091509091565b5f6100e36100cb610149565b87878787876100d8610157565b95949392919061018a565b50600195945050505050565b5f6101116100fb610149565b86868686610107610157565b94939291906105cc565b506001949350505050565b610135610127610149565b61012f6109a8565b906109d5565b61013d610a5c565b565b365f6100b7610a91565b5f610152610bf6565b905090565b5f8061018460017f1da92899d3da68bf9787824388a37ea2bfa79780bcef91b9716c390eec8ecbef611238565b92915050565b828181146101f9576040517f08c379a000000000000000000000000000000000000000000000000000000000815260206004820152601a60248201527f45524332303a20696e636f6e73697374656e742061727261797300000000000060448201526064015b60405180910390fd5b805f0361020657506105c3565b73ffffffffffffffffffffffffffffffffffffffff86165f908152602089905260408120549080805b8481146104d4575f89898381811061024957610249611270565b905060200201602081019061025e919061129d565b905073ffffffffffffffffffffffffffffffffffffffff81166102dd576040517f08c379a000000000000000000000000000000000000000000000000000000000815260206004820152601d60248201527f45524332303a207472616e7366657220746f206164647265737328302900000060448201526064016101f0565b5f8888848181106102f0576102f0611270565b905060200201359050805f146104635784810185811161036c576040517f08c379a000000000000000000000000000000000000000000000000000000000815260206004820152601660248201527f45524332303a2076616c756573206f766572666c6f770000000000000000000060448201526064016101f0565b8095508273ffffffffffffffffffffffffffffffffffffffff168d73ffffffffffffffffffffffffffffffffffffffff16146103f257818f5f015f8573ffffffffffffffffffffffffffffffffffffffff1673ffffffffffffffffffffffffffffffffffffffff1681526020019081526020015f205f8282540192505081905550610461565b8682111561045c576040517f08c379a000000000000000000000000000000000000000000000000000000000815260206004820152601b60248201527f45524332303a20696e73756666696369656e742062616c616e6365000000000060448201526064016101f0565b938101935b505b8173ffffffffffffffffffffffffffffffffffffffff168c73ffffffffffffffffffffffffffffffffffffffff167fddf252ad1be2c89b69c2b068fc378daa952ba7f163c4a11628f55a4df523b3ef836040516104c291815260200190565b60405180910390a3505060010161022f565b5081158015906104e45750808214155b1561057f57818303838110610555576040517f08c379a000000000000000000000000000000000000000000000000000000000815260206004820152601b60248201527f45524332303a20696e73756666696369656e742062616c616e6365000000000060448201526064016101f0565b73ffffffffffffffffffffffffffffffffffffffff8a165f90815260208d90526040902090820190555b8973ffffffffffffffffffffffffffffffffffffffff168973ffffffffffffffffffffffffffffffffffffffff16146105be576105be8b8a8c85610d3a565b505050505b50505050505050565b82818114610636576040517f08c379a000000000000000000000000000000000000000000000000000000000815260206004820152601a60248201527f45524332303a20696e636f6e73697374656e742061727261797300000000000060448201526064016101f0565b805f0361064357506109a0565b73ffffffffffffffffffffffffffffffffffffffff86165f908152602088905260408120549080805b8481146108f0575f89898381811061068657610686611270565b905060200201602081019061069b919061129d565b905073ffffffffffffffffffffffffffffffffffffffff811661071a576040517f08c379a000000000000000000000000000000000000000000000000000000000815260206004820152601d60248201527f45524332303a207472616e7366657220746f206164647265737328302900000060448201526064016101f0565b5f88888481811061072d5761072d611270565b905060200201359050805f1461087f578481018581116107a9576040517f08c379a000000000000000000000000000000000000000000000000000000000815260206004820152601660248201527f45524332303a2076616c756573206f766572666c6f770000000000000000000060448201526064016101f0565b8095508273ffffffffffffffffffffffffffffffffffffffff168d73ffffffffffffffffffffffffffffffffffffffff161461080e5773ffffffffffffffffffffffffffffffffffffffff83165f90815260208f90526040902080548301905561087d565b86821115610878576040517f08c379a000000000000000000000000000000000000000000000000000000000815260206004820152601b60248201527f45524332303a20696e73756666696369656e742062616c616e6365000000000060448201526064016101f0565b938101935b505b8173ffffffffffffffffffffffffffffffffffffffff168c73ffffffffffffffffffffffffffffffffffffffff167fddf252ad1be2c89b69c2b068fc378daa952ba7f163c4a11628f55a4df523b3ef836040516108de91815260200190565b60405180910390a3505060010161066c565b5081158015906109005750808214155b1561099b57818303838110610971576040517f08c379a000000000000000000000000000000000000000000000000000000000815260206004820152601b60248201527f45524332303a20696e73756666696369656e742062616c616e6365000000000060448201526064016101f0565b73ffffffffffffffffffffffffffffffffffffffff8a165f90815260208c90526040902090820190555b505050505b505050505050565b5f8061018460017fb53127684a568b3173ae13b9f8a6016e243e63b6e8ee1178d6a717850b5d6104611238565b815473ffffffffffffffffffffffffffffffffffffffff828116911614610a58576040517f08c379a000000000000000000000000000000000000000000000000000000000815260206004820152601960248201527f50726f787941646d696e3a206e6f74207468652061646d696e0000000000000060448201526064016101f0565b5050565b61013d7fc05327e6000000000000000000000000000000000000000000000000000000006001610a8a610f32565b9190610f5f565b365f33321480610aa15750601836105b15610aae57505f91369150565b3373ffffffffffffffffffffffffffffffffffffffff7f0000000000000000000000000000000000000000000000000000000000000000161480610be1575073ffffffffffffffffffffffffffffffffffffffff7f000000000000000000000000000000000000000000000000000000000000000016638929a8ca367fffffffffffffffffffffffffffffffffffffffffffffffffffffffffffffffec013560601c6040517fffffffff0000000000000000000000000000000000000000000000000000000060e084901b16815273ffffffffffffffffffffffffffffffffffffffff9091166004820152336024820152604401602060405180830381865afa158015610bbd573d5f803e3d5ffd5b505050506040513d601f19601f82011682018060405250810190610be191906112bd565b15610bee576100b761106a565b505f91369150565b5f33321480610c055750601836105b15610c0f57503390565b7fffffffffffffffffffffffffffffffffffffffffffffffffffffffffffffffec36013560601c7f000000000000000000000000000000000000000000000000000000000000000073ffffffffffffffffffffffffffffffffffffffff16331480610d2957506040517f8929a8ca00000000000000000000000000000000000000000000000000000000815273ffffffffffffffffffffffffffffffffffffffff82811660048301523360248301527f00000000000000000000000000000000000000000000000000000000000000001690638929a8ca90604401602060405180830381865afa158015610d05573d5f803e3d5ffd5b505050506040513d601f19601f82011682018060405250810190610d2991906112bd565b15610d3357919050565b3391505090565b73ffffffffffffffffffffffffffffffffffffffff8216610db7576040517f08c379a000000000000000000000000000000000000000000000000000000000815260206004820152601d60248201527f45524332303a20617070726f76616c20746f206164647265737328302900000060448201526064016101f0565b73ffffffffffffffffffffffffffffffffffffffff8084165f9081526001860160209081526040808320938616835292905220547fffffffffffffffffffffffffffffffffffffffffffffffffffffffffffffffff8114801590610e1a57508115155b15610ec457818103818110610e8b576040517f08c379a000000000000000000000000000000000000000000000000000000000815260206004820152601d60248201527f45524332303a20696e73756666696369656e7420616c6c6f77616e636500000060448201526064016101f0565b73ffffffffffffffffffffffffffffffffffffffff8086165f908152600188016020908152604080832093881683529290522081905590505b8273ffffffffffffffffffffffffffffffffffffffff168473ffffffffffffffffffffffffffffffffffffffff167f8c5be1e5ebec7d5bd14f71427d1e84f3dd0314c0f7b2291e5b200ac8c7c3b92583604051610f2391815260200190565b60405180910390a35050505050565b5f8061018460017fca9d3e17f264b0f3984e2634e94adb37fa3e6a8103f06aeae6fa59e21c769f5e611238565b7c01000000000000000000000000000000000000000000000000000000007fffffffff00000000000000000000000000000000000000000000000000000000831601611007576040517f08c379a000000000000000000000000000000000000000000000000000000000815260206004820152601f60248201527f496e74657266616365446574656374696f6e3a2077726f6e672076616c75650060448201526064016101f0565b7fffffffff00000000000000000000000000000000000000000000000000000000919091165f908152602092909252604090912080547fffffffffffffffffffffffffffffffffffffffffffffffffffffffffffffff0016911515919091179055565b365f6100b77fffffffffffffffffffffffffffffffffffffffffffffffffffffffffffffffec83018284816112dc565b60208152816020820152818360408301375f818301604090810191909152601f9092017fffffffffffffffffffffffffffffffffffffffffffffffffffffffffffffffe0160101919050565b803573ffffffffffffffffffffffffffffffffffffffff81168114611109575f80fd5b919050565b5f8083601f84011261111e575f80fd5b50813567ffffffffffffffff811115611135575f80fd5b6020830191508360208260051b850101111561114f575f80fd5b9250929050565b5f805f805f6060868803121561116a575f80fd5b611173866110e6565b9450602086013567ffffffffffffffff8082111561118f575f80fd5b61119b89838a0161110e565b909650945060408801359150808211156111b3575f80fd5b506111c08882890161110e565b969995985093965092949392505050565b5f805f80604085870312156111e4575f80fd5b843567ffffffffffffffff808211156111fb575f80fd5b6112078883890161110e565b9096509450602087013591508082111561121f575f80fd5b5061122c8782880161110e565b95989497509550505050565b81810381811115610184577f4e487b71000000000000000000000000000000000000000000000000000000005f52601160045260245ffd5b7f4e487b71000000000000000000000000000000000000000000000000000000005f52603260045260245ffd5b5f602082840312156112ad575f80fd5b6112b6826110e6565b9392505050565b5f602082840312156112cd575f80fd5b815180151581146112b6575f80fd5b5f80858511156112ea575f80fd5b838611156112f6575f80fd5b505082019391909203915056fea26469706673582212207a40dcff668654ae6c8b9bc07aa758b96ddf5dc702ca9fe763299fb37f3e3d2464736f6c63430008150033",
  "linkReferences": {},
  "deployedLinkReferences": {}
}