{
  "_format": "hh-sol-artifact-1",
  "contractName": "ERC20BatchTransfersFacetMock",
  "sourceName": "contracts/mocks/token/ERC20/facets/ERC20BatchTransfersFacetMock.sol",
  "abi": [
    {
      "inputs": [
        {
          "internalType": "contract IForwarderRegistry",
          "name": "forwarderRegistry",
          "type": "address"
        }
      ],
      "stateMutability": "nonpayable",
      "type": "constructor"
    },
    {
      "inputs": [],
      "name": "__msgData",
      "outputs": [
        {
          "internalType": "bytes",
          "name": "",
          "type": "bytes"
        }
      ],
      "stateMutability": "view",
      "type": "function"
    },
    {
      "inputs": [
        {
          "internalType": "address[]",
          "name": "recipients",
          "type": "address[]"
        },
        {
          "internalType": "uint256[]",
          "name": "values",
          "type": "uint256[]"
        }
      ],
      "name": "batchTransfer",
      "outputs": [
        {
          "internalType": "bool",
          "name": "",
          "type": "bool"
        }
      ],
      "stateMutability": "nonpayable",
      "type": "function"
    },
    {
      "inputs": [
        {
          "internalType": "address",
          "name": "from",
          "type": "address"
        },
        {
          "internalType": "address[]",
          "name": "recipients",
          "type": "address[]"
        },
        {
          "internalType": "uint256[]",
          "name": "values",
          "type": "uint256[]"
        }
      ],
      "name": "batchTransferFrom",
      "outputs": [
        {
          "internalType": "bool",
          "name": "",
          "type": "bool"
        }
      ],
      "stateMutability": "nonpayable",
      "type": "function"
    },
    {
      "inputs": [],
      "name": "initERC20BatchTransfersStorage",
      "outputs": [],
      "stateMutability": "nonpayable",
      "type": "function"
    }
  ],
  "bytecode": "0x60a060405234801561001057600080fd5b5060405161151738038061151783398101604081905261002f91610040565b6001600160a01b0316608052610070565b60006020828403121561005257600080fd5b81516001600160a01b038116811461006957600080fd5b9392505050565b6080516114776100a060003960008181610aae01528181610b1801528181610c560152610cf601526114776000f3fe608060405234801561001057600080fd5b506004361061004c5760003560e01c806331e66e1e146100515780634885b2541461007057806388d695b214610093578063c30f1be1146100a6575b600080fd5b6100596100b0565b6040516100679291906110c4565b60405180910390f35b61008361007e3660046112a9565b6100c3565b6040519015158152602001610067565b6100836100a136600461131d565b6100ee565b6100ae610116565b005b3660006100bb610139565b915091509091565b60006100e46100d0610144565b8585856100db610153565b93929190610187565b5060019392505050565b600061010d6100fb610144565b8484610105610153565b9291906105bc565b50600192915050565b61012f610121610144565b6101296109ac565b906109da565b610137610a61565b565b3660006100bb610a96565b600061014e610c1a565b905090565b60008061018160017f1da92899d3da68bf9787824388a37ea2bfa79780bcef91b9716c390eec8ecbef611381565b92915050565b8151815181146101f8576040517f08c379a000000000000000000000000000000000000000000000000000000000815260206004820152601a60248201527f45524332303a20696e636f6e73697374656e742061727261797300000000000060448201526064015b60405180910390fd5b8060000361020657506105b5565b73ffffffffffffffffffffffffffffffffffffffff84166000908152602087905260408120549080805b8481146104c557600087828151811061024b5761024b6113bf565b60200260200101519050600073ffffffffffffffffffffffffffffffffffffffff168173ffffffffffffffffffffffffffffffffffffffff16036102eb576040517f08c379a000000000000000000000000000000000000000000000000000000000815260206004820152601d60248201527f45524332303a207472616e7366657220746f206164647265737328302900000060448201526064016101ef565b60008783815181106102ff576102ff6113bf565b60200260200101519050806000146104545784810185811161037d576040517f08c379a000000000000000000000000000000000000000000000000000000000815260206004820152601660248201527f45524332303a2076616c756573206f766572666c6f770000000000000000000060448201526064016101ef565b8095508273ffffffffffffffffffffffffffffffffffffffff168b73ffffffffffffffffffffffffffffffffffffffff16146103e35773ffffffffffffffffffffffffffffffffffffffff8316600090815260208e905260409020805483019055610452565b8682111561044d576040517f08c379a000000000000000000000000000000000000000000000000000000000815260206004820152601b60248201527f45524332303a20696e73756666696369656e742062616c616e6365000000000060448201526064016101ef565b938101935b505b8173ffffffffffffffffffffffffffffffffffffffff168a73ffffffffffffffffffffffffffffffffffffffff167fddf252ad1be2c89b69c2b068fc378daa952ba7f163c4a11628f55a4df523b3ef836040516104b391815260200190565b60405180910390a35050600101610230565b5081158015906104d55750808214155b1561057157818303838110610546576040517f08c379a000000000000000000000000000000000000000000000000000000000815260206004820152601b60248201527f45524332303a20696e73756666696369656e742062616c616e6365000000000060448201526064016101ef565b73ffffffffffffffffffffffffffffffffffffffff8816600090815260208b90526040902090820190555b8773ffffffffffffffffffffffffffffffffffffffff168773ffffffffffffffffffffffffffffffffffffffff16146105b0576105b089888a85610d72565b505050505b5050505050565b815181518114610628576040517f08c379a000000000000000000000000000000000000000000000000000000000815260206004820152601a60248201527f45524332303a20696e636f6e73697374656e742061727261797300000000000060448201526064016101ef565b8060000361063657506109a6565b73ffffffffffffffffffffffffffffffffffffffff84166000908152602086905260408120549080805b8481146108f557600087828151811061067b5761067b6113bf565b60200260200101519050600073ffffffffffffffffffffffffffffffffffffffff168173ffffffffffffffffffffffffffffffffffffffff160361071b576040517f08c379a000000000000000000000000000000000000000000000000000000000815260206004820152601d60248201527f45524332303a207472616e7366657220746f206164647265737328302900000060448201526064016101ef565b600087838151811061072f5761072f6113bf565b6020026020010151905080600014610884578481018581116107ad576040517f08c379a000000000000000000000000000000000000000000000000000000000815260206004820152601660248201527f45524332303a2076616c756573206f766572666c6f770000000000000000000060448201526064016101ef565b8095508273ffffffffffffffffffffffffffffffffffffffff168b73ffffffffffffffffffffffffffffffffffffffff16146108135773ffffffffffffffffffffffffffffffffffffffff8316600090815260208d905260409020805483019055610882565b8682111561087d576040517f08c379a000000000000000000000000000000000000000000000000000000000815260206004820152601b60248201527f45524332303a20696e73756666696369656e742062616c616e6365000000000060448201526064016101ef565b938101935b505b8173ffffffffffffffffffffffffffffffffffffffff168a73ffffffffffffffffffffffffffffffffffffffff167fddf252ad1be2c89b69c2b068fc378daa952ba7f163c4a11628f55a4df523b3ef836040516108e391815260200190565b60405180910390a35050600101610660565b5081158015906109055750808214155b156109a157818303838110610976576040517f08c379a000000000000000000000000000000000000000000000000000000000815260206004820152601b60248201527f45524332303a20696e73756666696369656e742062616c616e6365000000000060448201526064016101ef565b73ffffffffffffffffffffffffffffffffffffffff8816600090815260208a90526040902090820190555b505050505b50505050565b60008061018160017fb53127684a568b3173ae13b9f8a6016e243e63b6e8ee1178d6a717850b5d6104611381565b815473ffffffffffffffffffffffffffffffffffffffff828116911614610a5d576040517f08c379a000000000000000000000000000000000000000000000000000000000815260206004820152601960248201527f50726f787941646d696e3a206e6f74207468652061646d696e0000000000000060448201526064016101ef565b5050565b6101377fc05327e6000000000000000000000000000000000000000000000000000000006001610a8f610f6c565b9190610f9a565b36600033328103610aac57506000923692509050565b7f000000000000000000000000000000000000000000000000000000000000000073ffffffffffffffffffffffffffffffffffffffff168173ffffffffffffffffffffffffffffffffffffffff161480610bf9575073ffffffffffffffffffffffffffffffffffffffff7f00000000000000000000000000000000000000000000000000000000000000001663e60125d6367fffffffffffffffffffffffffffffffffffffffffffffffffffffffffffffffec013560601c6040517fffffffff0000000000000000000000000000000000000000000000000000000060e084901b16815273ffffffffffffffffffffffffffffffffffffffff91821660048201529084166024820152604401602060405180830381865afa158015610bd5573d6000803e3d6000fd5b505050506040513d601f19601f82011682018060405250810190610bf991906113ee565b15610c0f57610c066110a6565b92509250509091565b506000923692509050565b600033328103610c2957919050565b6000367fffffffffffffffffffffffffffffffffffffffffffffffffffffffffffffffec013560601c90507f000000000000000000000000000000000000000000000000000000000000000073ffffffffffffffffffffffffffffffffffffffff168273ffffffffffffffffffffffffffffffffffffffff161480610d6157506040517fe60125d600000000000000000000000000000000000000000000000000000000815273ffffffffffffffffffffffffffffffffffffffff828116600483015283811660248301527f0000000000000000000000000000000000000000000000000000000000000000169063e60125d690604401602060405180830381865afa158015610d3d573d6000803e3d6000fd5b505050506040513d601f19601f82011682018060405250810190610d6191906113ee565b15610d6c5792915050565b50919050565b73ffffffffffffffffffffffffffffffffffffffff8216610def576040517f08c379a000000000000000000000000000000000000000000000000000000000815260206004820152601d60248201527f45524332303a20617070726f76616c20746f206164647265737328302900000060448201526064016101ef565b73ffffffffffffffffffffffffffffffffffffffff80841660009081526001860160209081526040808320938616835292905220547fffffffffffffffffffffffffffffffffffffffffffffffffffffffffffffffff8114801590610e5357508115155b15610efe57818103818110610ec4576040517f08c379a000000000000000000000000000000000000000000000000000000000815260206004820152601d60248201527f45524332303a20696e73756666696369656e7420616c6c6f77616e636500000060448201526064016101ef565b73ffffffffffffffffffffffffffffffffffffffff8086166000908152600188016020908152604080832093881683529290522081905590505b8273ffffffffffffffffffffffffffffffffffffffff168473ffffffffffffffffffffffffffffffffffffffff167f8c5be1e5ebec7d5bd14f71427d1e84f3dd0314c0f7b2291e5b200ac8c7c3b92583604051610f5d91815260200190565b60405180910390a35050505050565b60008061018160017fca9d3e17f264b0f3984e2634e94adb37fa3e6a8103f06aeae6fa59e21c769f5e611381565b7c01000000000000000000000000000000000000000000000000000000007fffffffff00000000000000000000000000000000000000000000000000000000831601611042576040517f08c379a000000000000000000000000000000000000000000000000000000000815260206004820152601f60248201527f496e74657266616365446574656374696f6e3a2077726f6e672076616c75650060448201526064016101ef565b7fffffffff00000000000000000000000000000000000000000000000000000000919091166000908152602092909252604090912080547fffffffffffffffffffffffffffffffffffffffffffffffffffffffffffffff0016911515919091179055565b3660008080836110b7601482611381565b926100bb93929190611417565b60208152816020820152818360408301376000818301604090810191909152601f9092017fffffffffffffffffffffffffffffffffffffffffffffffffffffffffffffffe0160101919050565b803573ffffffffffffffffffffffffffffffffffffffff8116811461113557600080fd5b919050565b7f4e487b7100000000000000000000000000000000000000000000000000000000600052604160045260246000fd5b604051601f82017fffffffffffffffffffffffffffffffffffffffffffffffffffffffffffffffe016810167ffffffffffffffff811182821017156111b0576111b061113a565b604052919050565b600067ffffffffffffffff8211156111d2576111d261113a565b5060051b60200190565b600082601f8301126111ed57600080fd5b813560206112026111fd836111b8565b611169565b82815260059290921b8401810191818101908684111561122157600080fd5b8286015b848110156112435761123681611111565b8352918301918301611225565b509695505050505050565b600082601f83011261125f57600080fd5b8135602061126f6111fd836111b8565b82815260059290921b8401810191818101908684111561128e57600080fd5b8286015b848110156112435780358352918301918301611292565b6000806000606084860312156112be57600080fd5b6112c784611111565b9250602084013567ffffffffffffffff808211156112e457600080fd5b6112f0878388016111dc565b9350604086013591508082111561130657600080fd5b506113138682870161124e565b9150509250925092565b6000806040838503121561133057600080fd5b823567ffffffffffffffff8082111561134857600080fd5b611354868387016111dc565b9350602085013591508082111561136a57600080fd5b506113778582860161124e565b9150509250929050565b6000828210156113ba577f4e487b7100000000000000000000000000000000000000000000000000000000600052601160045260246000fd5b500390565b7f4e487b7100000000000000000000000000000000000000000000000000000000600052603260045260246000fd5b60006020828403121561140057600080fd5b8151801515811461141057600080fd5b9392505050565b6000808585111561142757600080fd5b8386111561143457600080fd5b505082019391909203915056fea2646970667358221220e411348d3cbf74a1e90234bdadfc5b6503105d690a4cf3a2493c063e9684963d64736f6c634300080e0033",
  "linkReferences": {},
  "deployedLinkReferences": {}
}