{
  "_format": "hh-sol-artifact-1",
  "contractName": "ERC20BatchTransfersFacet",
  "sourceName": "contracts/token/ERC20/ERC20BatchTransfersFacet.sol",
  "abi": [
    {
      "inputs": [
        {
          "internalType": "contract IForwarderRegistry",
          "name": "forwarderRegistry",
          "type": "address"
        }
      ],
      "stateMutability": "nonpayable",
      "type": "constructor"
    },
    {
      "inputs": [
        {
          "internalType": "address[]",
          "name": "recipients",
          "type": "address[]"
        },
        {
          "internalType": "uint256[]",
          "name": "values",
          "type": "uint256[]"
        }
      ],
      "name": "batchTransfer",
      "outputs": [
        {
          "internalType": "bool",
          "name": "",
          "type": "bool"
        }
      ],
      "stateMutability": "nonpayable",
      "type": "function"
    },
    {
      "inputs": [
        {
          "internalType": "address",
          "name": "from",
          "type": "address"
        },
        {
          "internalType": "address[]",
          "name": "recipients",
          "type": "address[]"
        },
        {
          "internalType": "uint256[]",
          "name": "values",
          "type": "uint256[]"
        }
      ],
      "name": "batchTransferFrom",
      "outputs": [
        {
          "internalType": "bool",
          "name": "",
          "type": "bool"
        }
      ],
      "stateMutability": "nonpayable",
      "type": "function"
    },
    {
      "inputs": [],
      "name": "initERC20BatchTransfersStorage",
      "outputs": [],
      "stateMutability": "nonpayable",
      "type": "function"
    }
  ],
  "bytecode": "0x60a060405234801561001057600080fd5b506040516112ac3803806112ac83398101604081905261002f91610040565b6001600160a01b0316608052610070565b60006020828403121561005257600080fd5b81516001600160a01b038116811461006957600080fd5b9392505050565b60805161121a61009260003960008181610a8e0152610b2e015261121a6000f3fe608060405234801561001057600080fd5b50600436106100415760003560e01c80634885b2541461004657806388d695b21461006d578063c30f1be114610080575b600080fd5b610059610054366004611076565b61008a565b604051901515815260200160405180910390f35b61005961007b3660046110ea565b6100b5565b6100886100dd565b005b60006100ab610097610100565b8585856100a261010f565b93929190610143565b5060019392505050565b60006100d46100c2610100565b84846100cc61010f565b929190610578565b50600192915050565b6100f66100e8610100565b6100f0610968565b90610996565b6100fe610a1d565b565b600061010a610a52565b905090565b60008061013d60017f1da92899d3da68bf9787824388a37ea2bfa79780bcef91b9716c390eec8ecbef61114e565b92915050565b8151815181146101b4576040517f08c379a000000000000000000000000000000000000000000000000000000000815260206004820152601a60248201527f45524332303a20696e636f6e73697374656e742061727261797300000000000060448201526064015b60405180910390fd5b806000036101c25750610571565b73ffffffffffffffffffffffffffffffffffffffff84166000908152602087905260408120549080805b8481146104815760008782815181106102075761020761118c565b60200260200101519050600073ffffffffffffffffffffffffffffffffffffffff168173ffffffffffffffffffffffffffffffffffffffff16036102a7576040517f08c379a000000000000000000000000000000000000000000000000000000000815260206004820152601d60248201527f45524332303a207472616e7366657220746f206164647265737328302900000060448201526064016101ab565b60008783815181106102bb576102bb61118c565b602002602001015190508060001461041057848101858111610339576040517f08c379a000000000000000000000000000000000000000000000000000000000815260206004820152601660248201527f45524332303a2076616c756573206f766572666c6f770000000000000000000060448201526064016101ab565b8095508273ffffffffffffffffffffffffffffffffffffffff168b73ffffffffffffffffffffffffffffffffffffffff161461039f5773ffffffffffffffffffffffffffffffffffffffff8316600090815260208e90526040902080548301905561040e565b86821115610409576040517f08c379a000000000000000000000000000000000000000000000000000000000815260206004820152601b60248201527f45524332303a20696e73756666696369656e742062616c616e6365000000000060448201526064016101ab565b938101935b505b8173ffffffffffffffffffffffffffffffffffffffff168a73ffffffffffffffffffffffffffffffffffffffff167fddf252ad1be2c89b69c2b068fc378daa952ba7f163c4a11628f55a4df523b3ef8360405161046f91815260200190565b60405180910390a350506001016101ec565b5081158015906104915750808214155b1561052d57818303838110610502576040517f08c379a000000000000000000000000000000000000000000000000000000000815260206004820152601b60248201527f45524332303a20696e73756666696369656e742062616c616e6365000000000060448201526064016101ab565b73ffffffffffffffffffffffffffffffffffffffff8816600090815260208b90526040902090820190555b8773ffffffffffffffffffffffffffffffffffffffff168773ffffffffffffffffffffffffffffffffffffffff161461056c5761056c89888a85610baa565b505050505b5050505050565b8151815181146105e4576040517f08c379a000000000000000000000000000000000000000000000000000000000815260206004820152601a60248201527f45524332303a20696e636f6e73697374656e742061727261797300000000000060448201526064016101ab565b806000036105f25750610962565b73ffffffffffffffffffffffffffffffffffffffff84166000908152602086905260408120549080805b8481146108b15760008782815181106106375761063761118c565b60200260200101519050600073ffffffffffffffffffffffffffffffffffffffff168173ffffffffffffffffffffffffffffffffffffffff16036106d7576040517f08c379a000000000000000000000000000000000000000000000000000000000815260206004820152601d60248201527f45524332303a207472616e7366657220746f206164647265737328302900000060448201526064016101ab565b60008783815181106106eb576106eb61118c565b602002602001015190508060001461084057848101858111610769576040517f08c379a000000000000000000000000000000000000000000000000000000000815260206004820152601660248201527f45524332303a2076616c756573206f766572666c6f770000000000000000000060448201526064016101ab565b8095508273ffffffffffffffffffffffffffffffffffffffff168b73ffffffffffffffffffffffffffffffffffffffff16146107cf5773ffffffffffffffffffffffffffffffffffffffff8316600090815260208d90526040902080548301905561083e565b86821115610839576040517f08c379a000000000000000000000000000000000000000000000000000000000815260206004820152601b60248201527f45524332303a20696e73756666696369656e742062616c616e6365000000000060448201526064016101ab565b938101935b505b8173ffffffffffffffffffffffffffffffffffffffff168a73ffffffffffffffffffffffffffffffffffffffff167fddf252ad1be2c89b69c2b068fc378daa952ba7f163c4a11628f55a4df523b3ef8360405161089f91815260200190565b60405180910390a3505060010161061c565b5081158015906108c15750808214155b1561095d57818303838110610932576040517f08c379a000000000000000000000000000000000000000000000000000000000815260206004820152601b60248201527f45524332303a20696e73756666696369656e742062616c616e6365000000000060448201526064016101ab565b73ffffffffffffffffffffffffffffffffffffffff8816600090815260208a90526040902090820190555b505050505b50505050565b60008061013d60017fb53127684a568b3173ae13b9f8a6016e243e63b6e8ee1178d6a717850b5d610461114e565b815473ffffffffffffffffffffffffffffffffffffffff828116911614610a19576040517f08c379a000000000000000000000000000000000000000000000000000000000815260206004820152601960248201527f50726f787941646d696e3a206e6f74207468652061646d696e0000000000000060448201526064016101ab565b5050565b6100fe7fc05327e6000000000000000000000000000000000000000000000000000000006001610a4b610da4565b9190610dd2565b600033328103610a6157919050565b6000367fffffffffffffffffffffffffffffffffffffffffffffffffffffffffffffffec013560601c90507f000000000000000000000000000000000000000000000000000000000000000073ffffffffffffffffffffffffffffffffffffffff168273ffffffffffffffffffffffffffffffffffffffff161480610b9957506040517fe60125d600000000000000000000000000000000000000000000000000000000815273ffffffffffffffffffffffffffffffffffffffff828116600483015283811660248301527f0000000000000000000000000000000000000000000000000000000000000000169063e60125d690604401602060405180830381865afa158015610b75573d6000803e3d6000fd5b505050506040513d601f19601f82011682018060405250810190610b9991906111bb565b15610ba45792915050565b50919050565b73ffffffffffffffffffffffffffffffffffffffff8216610c27576040517f08c379a000000000000000000000000000000000000000000000000000000000815260206004820152601d60248201527f45524332303a20617070726f76616c20746f206164647265737328302900000060448201526064016101ab565b73ffffffffffffffffffffffffffffffffffffffff80841660009081526001860160209081526040808320938616835292905220547fffffffffffffffffffffffffffffffffffffffffffffffffffffffffffffffff8114801590610c8b57508115155b15610d3657818103818110610cfc576040517f08c379a000000000000000000000000000000000000000000000000000000000815260206004820152601d60248201527f45524332303a20696e73756666696369656e7420616c6c6f77616e636500000060448201526064016101ab565b73ffffffffffffffffffffffffffffffffffffffff8086166000908152600188016020908152604080832093881683529290522081905590505b8273ffffffffffffffffffffffffffffffffffffffff168473ffffffffffffffffffffffffffffffffffffffff167f8c5be1e5ebec7d5bd14f71427d1e84f3dd0314c0f7b2291e5b200ac8c7c3b92583604051610d9591815260200190565b60405180910390a35050505050565b60008061013d60017fca9d3e17f264b0f3984e2634e94adb37fa3e6a8103f06aeae6fa59e21c769f5e61114e565b7c01000000000000000000000000000000000000000000000000000000007fffffffff00000000000000000000000000000000000000000000000000000000831601610e7a576040517f08c379a000000000000000000000000000000000000000000000000000000000815260206004820152601f60248201527f496e74657266616365446574656374696f6e3a2077726f6e672076616c75650060448201526064016101ab565b7fffffffff00000000000000000000000000000000000000000000000000000000919091166000908152602092909252604090912080547fffffffffffffffffffffffffffffffffffffffffffffffffffffffffffffff0016911515919091179055565b803573ffffffffffffffffffffffffffffffffffffffff81168114610f0257600080fd5b919050565b7f4e487b7100000000000000000000000000000000000000000000000000000000600052604160045260246000fd5b604051601f82017fffffffffffffffffffffffffffffffffffffffffffffffffffffffffffffffe016810167ffffffffffffffff81118282101715610f7d57610f7d610f07565b604052919050565b600067ffffffffffffffff821115610f9f57610f9f610f07565b5060051b60200190565b600082601f830112610fba57600080fd5b81356020610fcf610fca83610f85565b610f36565b82815260059290921b84018101918181019086841115610fee57600080fd5b8286015b848110156110105761100381610ede565b8352918301918301610ff2565b509695505050505050565b600082601f83011261102c57600080fd5b8135602061103c610fca83610f85565b82815260059290921b8401810191818101908684111561105b57600080fd5b8286015b84811015611010578035835291830191830161105f565b60008060006060848603121561108b57600080fd5b61109484610ede565b9250602084013567ffffffffffffffff808211156110b157600080fd5b6110bd87838801610fa9565b935060408601359150808211156110d357600080fd5b506110e08682870161101b565b9150509250925092565b600080604083850312156110fd57600080fd5b823567ffffffffffffffff8082111561111557600080fd5b61112186838701610fa9565b9350602085013591508082111561113757600080fd5b506111448582860161101b565b9150509250929050565b600082821015611187577f4e487b7100000000000000000000000000000000000000000000000000000000600052601160045260246000fd5b500390565b7f4e487b7100000000000000000000000000000000000000000000000000000000600052603260045260246000fd5b6000602082840312156111cd57600080fd5b815180151581146111dd57600080fd5b939250505056fea264697066735822122042ca5aed5e06a50cdb38e1a7dcb0a8031bad5af6d6e8ab52a7ec3eff36ceadec64736f6c634300080e0033",
  "linkReferences": {},
  "deployedLinkReferences": {}
}