{
  "_format": "hh-sol-artifact-1",
  "contractName": "DiamondCutFacet",
  "sourceName": "contracts/diamond/facets/DiamondCutFacet.sol",
  "abi": [
    {
      "inputs": [
        {
          "internalType": "contract IForwarderRegistry",
          "name": "forwarderRegistry",
          "type": "address"
        }
      ],
      "stateMutability": "nonpayable",
      "type": "constructor"
    },
    {
      "inputs": [
        {
          "internalType": "address",
          "name": "facet",
          "type": "address"
        }
      ],
      "name": "EmptyFacet",
      "type": "error"
    },
    {
      "inputs": [
        {
          "internalType": "address",
          "name": "target",
          "type": "address"
        }
      ],
      "name": "EmptyInitCallData",
      "type": "error"
    },
    {
      "inputs": [
        {
          "internalType": "address",
          "name": "facet",
          "type": "address"
        },
        {
          "internalType": "bytes4",
          "name": "selector",
          "type": "bytes4"
        }
      ],
      "name": "FunctionAlreadyPresent",
      "type": "error"
    },
    {
      "inputs": [
        {
          "internalType": "bytes4",
          "name": "selector",
          "type": "bytes4"
        }
      ],
      "name": "FunctionNotFound",
      "type": "error"
    },
    {
      "inputs": [],
      "name": "IllegalInterfaceId",
      "type": "error"
    },
    {
      "inputs": [
        {
          "internalType": "address",
          "name": "target",
          "type": "address"
        },
        {
          "internalType": "bytes",
          "name": "data",
          "type": "bytes"
        }
      ],
      "name": "InitCallReverted",
      "type": "error"
    },
    {
      "inputs": [
        {
          "internalType": "bytes4",
          "name": "selector",
          "type": "bytes4"
        }
      ],
      "name": "ModifyingImmutableFunction",
      "type": "error"
    },
    {
      "inputs": [
        {
          "internalType": "address",
          "name": "facet",
          "type": "address"
        }
      ],
      "name": "NonContractFacet",
      "type": "error"
    },
    {
      "inputs": [
        {
          "internalType": "address",
          "name": "target",
          "type": "address"
        }
      ],
      "name": "NonContractInitCallTarget",
      "type": "error"
    },
    {
      "inputs": [
        {
          "internalType": "address",
          "name": "account",
          "type": "address"
        }
      ],
      "name": "NotProxyAdmin",
      "type": "error"
    },
    {
      "inputs": [
        {
          "internalType": "address",
          "name": "facet",
          "type": "address"
        }
      ],
      "name": "RemovingWithNonZeroAddressFacet",
      "type": "error"
    },
    {
      "inputs": [
        {
          "internalType": "address",
          "name": "facet",
          "type": "address"
        },
        {
          "internalType": "bytes4",
          "name": "selector",
          "type": "bytes4"
        }
      ],
      "name": "ReplacingFunctionByItself",
      "type": "error"
    },
    {
      "inputs": [],
      "name": "ZeroAddressTargetInitCallButNonEmptyData",
      "type": "error"
    },
    {
      "anonymous": false,
      "inputs": [
        {
          "components": [
            {
              "internalType": "address",
              "name": "facet",
              "type": "address"
            },
            {
              "internalType": "enum FacetCutAction",
              "name": "action",
              "type": "uint8"
            },
            {
              "internalType": "bytes4[]",
              "name": "selectors",
              "type": "bytes4[]"
            }
          ],
          "indexed": false,
          "internalType": "struct FacetCut[]",
          "name": "cuts",
          "type": "tuple[]"
        },
        {
          "indexed": false,
          "internalType": "address",
          "name": "target",
          "type": "address"
        },
        {
          "indexed": false,
          "internalType": "bytes",
          "name": "data",
          "type": "bytes"
        }
      ],
      "name": "DiamondCut",
      "type": "event"
    },
    {
      "inputs": [
        {
          "components": [
            {
              "internalType": "address",
              "name": "facet",
              "type": "address"
            },
            {
              "internalType": "enum FacetCutAction",
              "name": "action",
              "type": "uint8"
            },
            {
              "internalType": "bytes4[]",
              "name": "selectors",
              "type": "bytes4[]"
            }
          ],
          "internalType": "struct FacetCut[]",
          "name": "cuts",
          "type": "tuple[]"
        },
        {
          "internalType": "address",
          "name": "target",
          "type": "address"
        },
        {
          "internalType": "bytes",
          "name": "data",
          "type": "bytes"
        }
      ],
      "name": "diamondCut",
      "outputs": [],
      "stateMutability": "nonpayable",
      "type": "function"
    },
    {
      "inputs": [
        {
          "components": [
            {
              "internalType": "address",
              "name": "facet",
              "type": "address"
            },
            {
              "internalType": "enum FacetCutAction",
              "name": "action",
              "type": "uint8"
            },
            {
              "internalType": "bytes4[]",
              "name": "selectors",
              "type": "bytes4[]"
            }
          ],
          "internalType": "struct FacetCut[]",
          "name": "cuts",
          "type": "tuple[]"
        },
        {
          "components": [
            {
              "internalType": "address",
              "name": "target",
              "type": "address"
            },
            {
              "internalType": "bytes",
              "name": "data",
              "type": "bytes"
            }
          ],
          "internalType": "struct Initialization[]",
          "name": "initializations",
          "type": "tuple[]"
        }
      ],
      "name": "diamondCut",
      "outputs": [],
      "stateMutability": "nonpayable",
      "type": "function"
    },
    {
      "inputs": [],
      "name": "initDiamondCutStorage",
      "outputs": [],
      "stateMutability": "nonpayable",
      "type": "function"
    }
  ],
  "bytecode": "0x60a0604052348015600f57600080fd5b50604051611b2f380380611b2f833981016040819052602c91603c565b6001600160a01b0316608052606a565b600060208284031215604d57600080fd5b81516001600160a01b0381168114606357600080fd5b9392505050565b608051611aa361008c6000396000818161017b01526102030152611aa36000f3fe608060405234801561001057600080fd5b50600436106100415760003560e01c80631f931c1c1461004657806395bce6661461005b578063b2afc5b514610063575b600080fd5b610059610054366004611297565b610076565b005b6100596100ec565b610059610071366004611345565b610101565b61008f610081610138565b61008961027f565b906102b3565b6100e561009c858761149f565b8484848080601f0160208091040260200160405190810160405280939291908181526020018383808284376000920191909152506100dd9250610327915050565b929190610355565b5050505050565b6100f7610081610138565b6100ff6103aa565b565b61010c610081610138565b610132610119848661149f565b61012383856115fb565b61012b610327565b9190610411565b50505050565b6000333214806101485750601836105b1561015257503390565b7fffffffffffffffffffffffffffffffffffffffffffffffffffffffffffffffec36013560601c7f000000000000000000000000000000000000000000000000000000000000000073ffffffffffffffffffffffffffffffffffffffff1633148061026e57506040517f8929a8ca00000000000000000000000000000000000000000000000000000000815273ffffffffffffffffffffffffffffffffffffffff82811660048301523360248301527f00000000000000000000000000000000000000000000000000000000000000001690638929a8ca90604401602060405180830381865afa15801561024a573d6000803e3d6000fd5b505050506040513d601f19601f8201168201806040525081019061026e9190611727565b1561027857919050565b3391505090565b6000806102ad60017fb53127684a568b3173ae13b9f8a6016e243e63b6e8ee1178d6a717850b5d6104611750565b92915050565b815473ffffffffffffffffffffffffffffffffffffffff828116911614610323576040517f673a31a100000000000000000000000000000000000000000000000000000000815273ffffffffffffffffffffffffffffffffffffffff821660048201526024015b60405180910390fd5b5050565b6000806102ad60017f65d27473a5b05206737961f69a3b7a55316862d7a6ef82b3f5455fe92fab43e3611750565b61035f84846104a7565b6103698282610637565b7f8faa70878671ccd212d20771b795c50af8fd3ff6cf27f4bde57e5d4de0aeb67383838360405161039c93929190611957565b60405180910390a150505050565b60006103b4610818565b90506103e2817f1f931c1c000000000000000000000000000000000000000000000000000000006001610846565b61040e817fb2afc5b5000000000000000000000000000000000000000000000000000000006001610846565b50565b61041b83836104a7565b805160005b818110156104745761046c83828151811061043d5761043d6119a2565b60200260200101516000015184838151811061045b5761045b6119a2565b602002602001015160200151610637565b600101610420565b507f8faa70878671ccd212d20771b795c50af8fd3ff6cf27f4bde57e5d4de0aeb67383600060405161039c9291906119d1565b600182015461ffff8116908190600090600716156104d75750600381901c60009081526002850160205260409020545b835160005b818110156105d45760008682815181106104f8576104f86119a2565b6020026020010151905080604001515160000361055c5780516040517fb39ad1bb00000000000000000000000000000000000000000000000000000000815273ffffffffffffffffffffffffffffffffffffffff909116600482015260240161031a565b602081015160008160028111156105755761057561178a565b036105905761058689878785610922565b90965094506105ca565b60018160028111156105a4576105a461178a565b036105b8576105b38983610b56565b6105ca565b6105c489878785610e19565b90965094505b50506001016104dc565b5083831461060d576001860180547fffffffffffffffffffffffffffffffffffffffffffffffffffffffffffff00001661ffff85161790555b600783161561062f57600383901c600090815260028701602052604090208290555b505050505050565b73ffffffffffffffffffffffffffffffffffffffff821661068b57805115610323576040517fe694fd8000000000000000000000000000000000000000000000000000000000815260040160405180910390fd5b80516000036106de576040517ff2a2140000000000000000000000000000000000000000000000000000000000815273ffffffffffffffffffffffffffffffffffffffff8316600482015260240161031a565b73ffffffffffffffffffffffffffffffffffffffff821630146107615773ffffffffffffffffffffffffffffffffffffffff82163b610761576040517fdf3b7fa900000000000000000000000000000000000000000000000000000000815273ffffffffffffffffffffffffffffffffffffffff8316600482015260240161031a565b6000808373ffffffffffffffffffffffffffffffffffffffff16836040516107899190611a1a565b600060405180830381855af49150503d80600081146107c4576040519150601f19603f3d011682016040523d82523d6000602084013e6107c9565b606091505b50915091508161013257805180156107e2578082602001fd5b84846040517fe83ddca500000000000000000000000000000000000000000000000000000000815260040161031a929190611a36565b6000806102ad60017fca9d3e17f264b0f3984e2634e94adb37fa3e6a8103f06aeae6fa59e21c769f5e611750565b7c01000000000000000000000000000000000000000000000000000000007fffffffff000000000000000000000000000000000000000000000000000000008316016108be576040517f72c683bb00000000000000000000000000000000000000000000000000000000815260040160405180910390fd5b7fffffffff00000000000000000000000000000000000000000000000000000000919091166000908152602092909252604090912080547fffffffffffffffffffffffffffffffffffffffffffffffffffffffffffffff0016911515919091179055565b8051600090819073ffffffffffffffffffffffffffffffffffffffff1630148015906109645750825173ffffffffffffffffffffffffffffffffffffffff163b155b156109b65782516040517f32185e0200000000000000000000000000000000000000000000000000000000815273ffffffffffffffffffffffffffffffffffffffff909116600482015260240161031a565b60408301515160005b81811015610b48576000856040015182815181106109df576109df6119a2565b6020908102919091018101517fffffffff0000000000000000000000000000000000000000000000000000000081166000908152918b905260409091205490915060601c8015610a9b576040517fbe33d13600000000000000000000000000000000000000000000000000000000815273ffffffffffffffffffffffffffffffffffffffff821660048201527fffffffff000000000000000000000000000000000000000000000000000000008316602482015260440161031a565b86517fffffffff00000000000000000000000000000000000000000000000000000000838116600081815260208e90526040902060609390931b7fffffffffffffffffffffffffffffffffffffffff000000000000000000000000168c1790925560058b901b60e090811692831c91831c199a909a161798819003610b345760038a901c600090815260028c0160205260408120999099555b8960010199505050508060010190506109bf565b509496939550929350505050565b805173ffffffffffffffffffffffffffffffffffffffff81163b610bc15781516040517f32185e0200000000000000000000000000000000000000000000000000000000815273ffffffffffffffffffffffffffffffffffffffff909116600482015260240161031a565b60408201515160005b818110156100e557600084604001518281518110610bea57610bea6119a2565b6020908102919091018101517fffffffff000000000000000000000000000000000000000000000000000000008116600090815291889052604090912054909150606081901c80610c8b576040517f5416eb980000000000000000000000000000000000000000000000000000000081527fffffffff000000000000000000000000000000000000000000000000000000008416600482015260240161031a565b3073ffffffffffffffffffffffffffffffffffffffff821603610cfe576040517fc792bbba0000000000000000000000000000000000000000000000000000000081527fffffffff000000000000000000000000000000000000000000000000000000008416600482015260240161031a565b8573ffffffffffffffffffffffffffffffffffffffff168173ffffffffffffffffffffffffffffffffffffffff1603610da3576040517f73d5d79700000000000000000000000000000000000000000000000000000000815273ffffffffffffffffffffffffffffffffffffffff871660048201527fffffffff000000000000000000000000000000000000000000000000000000008416602482015260440161031a565b507fffffffff0000000000000000000000000000000000000000000000000000000090911660009081526020879052604090206bffffffffffffffffffffffff919091167fffffffffffffffffffffffffffffffffffffffff000000000000000000000000606086901b16179055600101610bca565b8051600090819073ffffffffffffffffffffffffffffffffffffffff1615610e885782516040517f91a5e1a300000000000000000000000000000000000000000000000000000000815273ffffffffffffffffffffffffffffffffffffffff909116600482015260240161031a565b600385901c6007861660005b85604001515181101561120e57600086604001518281518110610eb957610eb96119a2565b6020908102919091018101517fffffffff0000000000000000000000000000000000000000000000000000000081166000908152918c9052604090912054909150606081901c610f59576040517f5416eb980000000000000000000000000000000000000000000000000000000081527fffffffff000000000000000000000000000000000000000000000000000000008316600482015260240161031a565b7fffffffff000000000000000000000000000000000000000000000000000000008216600090815260208c905260409020543060609190911c03610fed576040517fc792bbba0000000000000000000000000000000000000000000000000000000081527fffffffff000000000000000000000000000000000000000000000000000000008316600482015260240161031a565b6000899003611037577fffffffffffffffffffffffffffffffffffffffffffffffffffffffffffffffff909401600081815260028c0160205260409020549850936007935061105d565b7fffffffffffffffffffffffffffffffffffffffffffffffffffffffffffffffff909301925b600584901b89901b6000807fffffffff00000000000000000000000000000000000000000000000000000000808416908616146110fc577fffffffff000000000000000000000000000000000000000000000000000000008316600090815260208f90526040902080547fffffffffffffffffffffffffffffffffffffffff000000000000000000000000166bffffffffffffffffffffffff86161790555b50507fffffffff000000000000000000000000000000000000000000000000000000008316600090815260208d90526040812055611fff600383901c1660e0600584901b1687821461118f57600082815260028f016020526040902080547fffffffff0000000000000000000000000000000000000000000000000000000080841c19909116908516831c1790556111e0565b80837bffffffffffffffffffffffffffffffffffffffffffffffffffffffff1916901c817fffffffff0000000000000000000000000000000000000000000000000000000060001b901c198d16179b505b866000036111fe57600088815260028f01602052604081208190559b505b5050505050806001019050610e94565b5060039190911b1796939550929350505050565b60008083601f84011261123457600080fd5b50813567ffffffffffffffff81111561124c57600080fd5b6020830191508360208260051b850101111561126757600080fd5b9250929050565b803573ffffffffffffffffffffffffffffffffffffffff8116811461129257600080fd5b919050565b6000806000806000606086880312156112af57600080fd5b853567ffffffffffffffff808211156112c757600080fd5b6112d389838a01611222565b90975095508591506112e76020890161126e565b945060408801359150808211156112fd57600080fd5b818801915088601f83011261131157600080fd5b81358181111561132057600080fd5b89602082850101111561133257600080fd5b9699959850939650602001949392505050565b6000806000806040858703121561135b57600080fd5b843567ffffffffffffffff8082111561137357600080fd5b61137f88838901611222565b9096509450602087013591508082111561139857600080fd5b506113a587828801611222565b95989497509550505050565b7f4e487b7100000000000000000000000000000000000000000000000000000000600052604160045260246000fd5b6040516060810167ffffffffffffffff81118282101715611403576114036113b1565b60405290565b6040805190810167ffffffffffffffff81118282101715611403576114036113b1565b604051601f82017fffffffffffffffffffffffffffffffffffffffffffffffffffffffffffffffe016810167ffffffffffffffff81118282101715611473576114736113b1565b604052919050565b600067ffffffffffffffff821115611495576114956113b1565b5060051b60200190565b60006114b26114ad8461147b565b61142c565b83815260208082019190600586811b8601368111156114d057600080fd5b865b818110156115ee57803567ffffffffffffffff808211156114f35760008081fd5b818a019150606082360312156115095760008081fd5b6115116113e0565b61151a8361126e565b8152868301356003811061152e5760008081fd5b81880152604083810135838111156115465760008081fd5b939093019236601f85011261155d57600092508283fd5b8335925061156d6114ad8461147b565b83815292871b8401880192888101903685111561158a5760008081fd5b948901945b848610156115d75785357fffffffff00000000000000000000000000000000000000000000000000000000811681146115c85760008081fd5b8252948901949089019061158f565b9183019190915250885250509483019483016114d2565b5092979650505050505050565b60006116096114ad8461147b565b80848252602080830192508560051b85013681111561162757600080fd5b855b8181101561171b57803567ffffffffffffffff8082111561164a5760008081fd5b8189019150604082360312156116605760008081fd5b611668611409565b6116718361126e565b815285830135828111156116855760008081fd5b9290920191601f368185011261169b5760008081fd5b8335838111156116ad576116ad6113b1565b6116dc887fffffffffffffffffffffffffffffffffffffffffffffffffffffffffffffffe0848401160161142c565b935080845236888287010111156116f557600091508182fd5b808886018986013760009084018801525080860191909152865250938201938201611629565b50919695505050505050565b60006020828403121561173957600080fd5b8151801515811461174957600080fd5b9392505050565b818103818111156102ad577f4e487b7100000000000000000000000000000000000000000000000000000000600052601160045260246000fd5b7f4e487b7100000000000000000000000000000000000000000000000000000000600052602160045260246000fd5b600082825180855260208086019550808260051b84010181860160005b848110156118dc577fffffffffffffffffffffffffffffffffffffffffffffffffffffffffffffffe08684030189528151606080850173ffffffffffffffffffffffffffffffffffffffff83511686528683015160038110611861577f4e487b7100000000000000000000000000000000000000000000000000000000600052602160045260246000fd5b86880152604092830151928601919091528151908190529085019060808501906000905b808210156118c75783517fffffffff00000000000000000000000000000000000000000000000000000000168352928701929187019160019190910190611885565b505099850199935050908301906001016117d6565b5090979650505050505050565b60005b838110156119045781810151838201526020016118ec565b50506000910152565b600081518084526119258160208601602086016118e9565b601f017fffffffffffffffffffffffffffffffffffffffffffffffffffffffffffffffe0169290920160200192915050565b60608152600061196a60608301866117b9565b73ffffffffffffffffffffffffffffffffffffffff851660208401528281036040840152611998818561190d565b9695505050505050565b7f4e487b7100000000000000000000000000000000000000000000000000000000600052603260045260246000fd5b6060815260006119e460608301856117b9565b73ffffffffffffffffffffffffffffffffffffffff84166020840152828103604084015260008152602081019150509392505050565b60008251611a2c8184602087016118e9565b9190910192915050565b73ffffffffffffffffffffffffffffffffffffffff83168152604060208201526000611a65604083018461190d565b94935050505056fea2646970667358221220a9abe8df8a049db93b71fcb93e18996a52664d6829516a54bbd7361659ed4af764736f6c63430008190033",
  "linkReferences": {},
  "deployedLinkReferences": {}
}