{
  "_format": "hh-sol-artifact-1",
  "contractName": "DiamondCutFacet",
  "sourceName": "contracts/diamond/facets/DiamondCutFacet.sol",
  "abi": [
    {
      "inputs": [
        {
          "internalType": "contract IForwarderRegistry",
          "name": "forwarderRegistry",
          "type": "address"
        }
      ],
      "stateMutability": "nonpayable",
      "type": "constructor"
    },
    {
      "inputs": [
        {
          "internalType": "address",
          "name": "facet",
          "type": "address"
        }
      ],
      "name": "EmptyFacet",
      "type": "error"
    },
    {
      "inputs": [
        {
          "internalType": "address",
          "name": "target",
          "type": "address"
        }
      ],
      "name": "EmptyInitCallData",
      "type": "error"
    },
    {
      "inputs": [
        {
          "internalType": "address",
          "name": "facet",
          "type": "address"
        },
        {
          "internalType": "bytes4",
          "name": "selector",
          "type": "bytes4"
        }
      ],
      "name": "FunctionAlreadyPresent",
      "type": "error"
    },
    {
      "inputs": [
        {
          "internalType": "bytes4",
          "name": "selector",
          "type": "bytes4"
        }
      ],
      "name": "FunctionNotFound",
      "type": "error"
    },
    {
      "inputs": [],
      "name": "IllegalInterfaceId",
      "type": "error"
    },
    {
      "inputs": [
        {
          "internalType": "address",
          "name": "target",
          "type": "address"
        },
        {
          "internalType": "bytes",
          "name": "data",
          "type": "bytes"
        }
      ],
      "name": "InitCallReverted",
      "type": "error"
    },
    {
      "inputs": [
        {
          "internalType": "bytes4",
          "name": "selector",
          "type": "bytes4"
        }
      ],
      "name": "ModifyingImmutableFunction",
      "type": "error"
    },
    {
      "inputs": [
        {
          "internalType": "address",
          "name": "facet",
          "type": "address"
        }
      ],
      "name": "NonContractFacet",
      "type": "error"
    },
    {
      "inputs": [
        {
          "internalType": "address",
          "name": "target",
          "type": "address"
        }
      ],
      "name": "NonContractInitCallTarget",
      "type": "error"
    },
    {
      "inputs": [
        {
          "internalType": "address",
          "name": "account",
          "type": "address"
        }
      ],
      "name": "NotProxyAdmin",
      "type": "error"
    },
    {
      "inputs": [
        {
          "internalType": "address",
          "name": "facet",
          "type": "address"
        }
      ],
      "name": "RemovingWithNonZeroAddressFacet",
      "type": "error"
    },
    {
      "inputs": [
        {
          "internalType": "address",
          "name": "facet",
          "type": "address"
        },
        {
          "internalType": "bytes4",
          "name": "selector",
          "type": "bytes4"
        }
      ],
      "name": "ReplacingFunctionByItself",
      "type": "error"
    },
    {
      "inputs": [],
      "name": "ZeroAddressTargetInitCallButNonEmptyData",
      "type": "error"
    },
    {
      "anonymous": false,
      "inputs": [
        {
          "components": [
            {
              "internalType": "address",
              "name": "facet",
              "type": "address"
            },
            {
              "internalType": "enum FacetCutAction",
              "name": "action",
              "type": "uint8"
            },
            {
              "internalType": "bytes4[]",
              "name": "selectors",
              "type": "bytes4[]"
            }
          ],
          "indexed": false,
          "internalType": "struct FacetCut[]",
          "name": "cuts",
          "type": "tuple[]"
        },
        {
          "indexed": false,
          "internalType": "address",
          "name": "target",
          "type": "address"
        },
        {
          "indexed": false,
          "internalType": "bytes",
          "name": "data",
          "type": "bytes"
        }
      ],
      "name": "DiamondCut",
      "type": "event"
    },
    {
      "inputs": [
        {
          "components": [
            {
              "internalType": "address",
              "name": "facet",
              "type": "address"
            },
            {
              "internalType": "enum FacetCutAction",
              "name": "action",
              "type": "uint8"
            },
            {
              "internalType": "bytes4[]",
              "name": "selectors",
              "type": "bytes4[]"
            }
          ],
          "internalType": "struct FacetCut[]",
          "name": "cuts",
          "type": "tuple[]"
        },
        {
          "internalType": "address",
          "name": "target",
          "type": "address"
        },
        {
          "internalType": "bytes",
          "name": "data",
          "type": "bytes"
        }
      ],
      "name": "diamondCut",
      "outputs": [],
      "stateMutability": "nonpayable",
      "type": "function"
    },
    {
      "inputs": [
        {
          "components": [
            {
              "internalType": "address",
              "name": "facet",
              "type": "address"
            },
            {
              "internalType": "enum FacetCutAction",
              "name": "action",
              "type": "uint8"
            },
            {
              "internalType": "bytes4[]",
              "name": "selectors",
              "type": "bytes4[]"
            }
          ],
          "internalType": "struct FacetCut[]",
          "name": "cuts",
          "type": "tuple[]"
        },
        {
          "components": [
            {
              "internalType": "address",
              "name": "target",
              "type": "address"
            },
            {
              "internalType": "bytes",
              "name": "data",
              "type": "bytes"
            }
          ],
          "internalType": "struct Initialization[]",
          "name": "initializations",
          "type": "tuple[]"
        }
      ],
      "name": "diamondCut",
      "outputs": [],
      "stateMutability": "nonpayable",
      "type": "function"
    },
    {
      "inputs": [],
      "name": "initDiamondCutStorage",
      "outputs": [],
      "stateMutability": "nonpayable",
      "type": "function"
    }
  ],
  "bytecode": "0x60a060405234801561000f575f80fd5b50604051611a98380380611a9883398101604081905261002e9161003f565b6001600160a01b031660805261006c565b5f6020828403121561004f575f80fd5b81516001600160a01b0381168114610065575f80fd5b9392505050565b608051611a0d61008b5f395f818161017601526101fe0152611a0d5ff3fe608060405234801561000f575f80fd5b506004361061003f575f3560e01c80631f931c1c1461004357806395bce66614610058578063b2afc5b514610060575b5f80fd5b61005661005136600461125a565b610073565b005b6100566100e8565b61005661006e3660046112ff565b6100fd565b61008c61007e610134565b610086610278565b906102ab565b6100e16100998587611451565b8484848080601f0160208091040260200160405190810160405280939291908181526020018383808284375f920191909152506100d9925061031f915050565b92919061034c565b5050505050565b6100f361007e610134565b6100fb6103a1565b565b61010861007e610134565b61012e6101158486611451565b61011f83856115a4565b61012761031f565b9190610407565b50505050565b5f333214806101435750601836105b1561014d57503390565b7fffffffffffffffffffffffffffffffffffffffffffffffffffffffffffffffec36013560601c7f000000000000000000000000000000000000000000000000000000000000000073ffffffffffffffffffffffffffffffffffffffff1633148061026757506040517f8929a8ca00000000000000000000000000000000000000000000000000000000815273ffffffffffffffffffffffffffffffffffffffff82811660048301523360248301527f00000000000000000000000000000000000000000000000000000000000000001690638929a8ca90604401602060405180830381865afa158015610243573d5f803e3d5ffd5b505050506040513d601f19601f8201168201806040525081019061026791906116c8565b1561027157919050565b3391505090565b5f806102a560017fb53127684a568b3173ae13b9f8a6016e243e63b6e8ee1178d6a717850b5d61046116ee565b92915050565b815473ffffffffffffffffffffffffffffffffffffffff82811691161461031b576040517f673a31a100000000000000000000000000000000000000000000000000000000815273ffffffffffffffffffffffffffffffffffffffff821660048201526024015b60405180910390fd5b5050565b5f806102a560017f65d27473a5b05206737961f69a3b7a55316862d7a6ef82b3f5455fe92fab43e36116ee565b6103568484610499565b6103608282610621565b7f8faa70878671ccd212d20771b795c50af8fd3ff6cf27f4bde57e5d4de0aeb673838383604051610393939291906118c8565b60405180910390a150505050565b5f6103aa6107fd565b90506103d8817f1f931c1c00000000000000000000000000000000000000000000000000000000600161082a565b610404817fb2afc5b500000000000000000000000000000000000000000000000000000000600161082a565b50565b6104118383610499565b80515f5b8181146104675761045f83828151811061043157610431611912565b60200260200101515f015184838151811061044e5761044e611912565b602002602001015160200151610621565b600101610415565b507f8faa70878671ccd212d20771b795c50af8fd3ff6cf27f4bde57e5d4de0aeb673835f60405161039392919061193f565b600182015461ffff81169081905f90600716156104c75750600381901c5f9081526002850160205260409020545b83515f5b8181146105bf575f8682815181106104e5576104e5611912565b602002602001015190508060400151515f036105485780516040517fb39ad1bb00000000000000000000000000000000000000000000000000000000815273ffffffffffffffffffffffffffffffffffffffff9091166004820152602401610312565b60208101515f81600281111561056057610560611726565b0361057b5761057189878785610905565b90965094506105b5565b600181600281111561058f5761058f611726565b036105a35761059e8983610b32565b6105b5565b6105af89878785610df0565b90965094505b50506001016104cb565b508383146105f8576001860180547fffffffffffffffffffffffffffffffffffffffffffffffffffffffffffff00001661ffff85161790555b600783161561061957600383901c5f90815260028701602052604090208290555b505050505050565b73ffffffffffffffffffffffffffffffffffffffff82166106755780511561031b576040517fe694fd8000000000000000000000000000000000000000000000000000000000815260040160405180910390fd5b80515f036106c7576040517ff2a2140000000000000000000000000000000000000000000000000000000000815273ffffffffffffffffffffffffffffffffffffffff83166004820152602401610312565b73ffffffffffffffffffffffffffffffffffffffff8216301461074a5773ffffffffffffffffffffffffffffffffffffffff82163b61074a576040517fdf3b7fa900000000000000000000000000000000000000000000000000000000815273ffffffffffffffffffffffffffffffffffffffff83166004820152602401610312565b5f808373ffffffffffffffffffffffffffffffffffffffff16836040516107719190611986565b5f60405180830381855af49150503d805f81146107a9576040519150601f19603f3d011682016040523d82523d5f602084013e6107ae565b606091505b50915091508161012e57805180156107c7578082602001fd5b84846040517fe83ddca50000000000000000000000000000000000000000000000000000000081526004016103129291906119a1565b5f806102a560017fca9d3e17f264b0f3984e2634e94adb37fa3e6a8103f06aeae6fa59e21c769f5e6116ee565b7c01000000000000000000000000000000000000000000000000000000007fffffffff000000000000000000000000000000000000000000000000000000008316016108a2576040517f72c683bb00000000000000000000000000000000000000000000000000000000815260040160405180910390fd5b7fffffffff00000000000000000000000000000000000000000000000000000000919091165f908152602092909252604090912080547fffffffffffffffffffffffffffffffffffffffffffffffffffffffffffffff0016911515919091179055565b80515f90819073ffffffffffffffffffffffffffffffffffffffff1630148015906109465750825173ffffffffffffffffffffffffffffffffffffffff163b155b156109985782516040517f32185e0200000000000000000000000000000000000000000000000000000000815273ffffffffffffffffffffffffffffffffffffffff9091166004820152602401610312565b6040830151515f5b818114610b24575f856040015182815181106109be576109be611912565b6020908102919091018101517fffffffff0000000000000000000000000000000000000000000000000000000081165f908152918b905260409091205490915060601c8015610a79576040517fbe33d13600000000000000000000000000000000000000000000000000000000815273ffffffffffffffffffffffffffffffffffffffff821660048201527fffffffff0000000000000000000000000000000000000000000000000000000083166024820152604401610312565b86517fffffffff000000000000000000000000000000000000000000000000000000008381165f81815260208e90526040902060609390931b7fffffffffffffffffffffffffffffffffffffffff000000000000000000000000168c1790925560058b901b60e090811692831c91831c199a909a161798819003610b105760038a901c5f90815260028c0160205260408120999099555b8960010199505050508060010190506109a0565b509496939550929350505050565b805173ffffffffffffffffffffffffffffffffffffffff81163b610b9d5781516040517f32185e0200000000000000000000000000000000000000000000000000000000815273ffffffffffffffffffffffffffffffffffffffff9091166004820152602401610312565b6040820151515f5b8181146100e1575f84604001518281518110610bc357610bc3611912565b6020908102919091018101517fffffffff0000000000000000000000000000000000000000000000000000000081165f90815291889052604090912054909150606081901c80610c63576040517f5416eb980000000000000000000000000000000000000000000000000000000081527fffffffff0000000000000000000000000000000000000000000000000000000084166004820152602401610312565b3073ffffffffffffffffffffffffffffffffffffffff821603610cd6576040517fc792bbba0000000000000000000000000000000000000000000000000000000081527fffffffff0000000000000000000000000000000000000000000000000000000084166004820152602401610312565b8573ffffffffffffffffffffffffffffffffffffffff168173ffffffffffffffffffffffffffffffffffffffff1603610d7b576040517f73d5d79700000000000000000000000000000000000000000000000000000000815273ffffffffffffffffffffffffffffffffffffffff871660048201527fffffffff0000000000000000000000000000000000000000000000000000000084166024820152604401610312565b507fffffffff000000000000000000000000000000000000000000000000000000009091165f9081526020879052604090206bffffffffffffffffffffffff919091167fffffffffffffffffffffffffffffffffffffffff000000000000000000000000606086901b16179055600101610ba5565b80515f90819073ffffffffffffffffffffffffffffffffffffffff1615610e5e5782516040517f91a5e1a300000000000000000000000000000000000000000000000000000000815273ffffffffffffffffffffffffffffffffffffffff9091166004820152602401610312565b600385901c600786165f5b85604001515181146111d6575f86604001518281518110610e8c57610e8c611912565b6020908102919091018101517fffffffff0000000000000000000000000000000000000000000000000000000081165f908152918c9052604090912054909150606081901c610f2b576040517f5416eb980000000000000000000000000000000000000000000000000000000081527fffffffff0000000000000000000000000000000000000000000000000000000083166004820152602401610312565b7fffffffff0000000000000000000000000000000000000000000000000000000082165f90815260208c905260409020543060609190911c03610fbe576040517fc792bbba0000000000000000000000000000000000000000000000000000000081527fffffffff0000000000000000000000000000000000000000000000000000000083166004820152602401610312565b5f899003611006577fffffffffffffffffffffffffffffffffffffffffffffffffffffffffffffffff9094015f81815260028c0160205260409020549850936007935061102c565b7fffffffffffffffffffffffffffffffffffffffffffffffffffffffffffffffff909301925b600584901b89901b5f807fffffffff00000000000000000000000000000000000000000000000000000000808416908616146110c9577fffffffff0000000000000000000000000000000000000000000000000000000083165f90815260208f90526040902080547fffffffffffffffffffffffffffffffffffffffff000000000000000000000000166bffffffffffffffffffffffff86161790555b50507fffffffff0000000000000000000000000000000000000000000000000000000083165f90815260208d90526040812055611fff600383901c1660e0600584901b1687821461115a575f82815260028f016020526040902080547fffffffff0000000000000000000000000000000000000000000000000000000080841c19909116908516831c1790556111aa565b80837bffffffffffffffffffffffffffffffffffffffffffffffffffffffff1916901c817fffffffff000000000000000000000000000000000000000000000000000000005f1b901c198d16179b505b865f036111c6575f88815260028f01602052604081208190559b505b5050505050806001019050610e69565b5060039190911b1796939550929350505050565b5f8083601f8401126111fa575f80fd5b50813567ffffffffffffffff811115611211575f80fd5b6020830191508360208260051b850101111561122b575f80fd5b9250929050565b803573ffffffffffffffffffffffffffffffffffffffff81168114611255575f80fd5b919050565b5f805f805f6060868803121561126e575f80fd5b853567ffffffffffffffff80821115611285575f80fd5b61129189838a016111ea565b90975095508591506112a560208901611232565b945060408801359150808211156112ba575f80fd5b818801915088601f8301126112cd575f80fd5b8135818111156112db575f80fd5b8960208285010111156112ec575f80fd5b9699959850939650602001949392505050565b5f805f8060408587031215611312575f80fd5b843567ffffffffffffffff80821115611329575f80fd5b611335888389016111ea565b9096509450602087013591508082111561134d575f80fd5b5061135a878288016111ea565b95989497509550505050565b7f4e487b71000000000000000000000000000000000000000000000000000000005f52604160045260245ffd5b6040516060810167ffffffffffffffff811182821017156113b6576113b6611366565b60405290565b6040805190810167ffffffffffffffff811182821017156113b6576113b6611366565b604051601f82017fffffffffffffffffffffffffffffffffffffffffffffffffffffffffffffffe016810167ffffffffffffffff8111828210171561142657611426611366565b604052919050565b5f67ffffffffffffffff82111561144757611447611366565b5060051b60200190565b5f61146361145e8461142e565b6113df565b83815260208082019190600586811b860136811115611480575f80fd5b865b8181101561159757803567ffffffffffffffff808211156114a2575f8081fd5b818a019150606082360312156114b7575f8081fd5b6114bf611393565b6114c883611232565b815286830135600381106114db575f8081fd5b81880152604083810135838111156114f2575f8081fd5b939093019236601f850112611508575f92508283fd5b8335925061151861145e8461142e565b83815292871b84018801928881019036851115611534575f8081fd5b948901945b848610156115805785357fffffffff0000000000000000000000000000000000000000000000000000000081168114611571575f8081fd5b82529489019490890190611539565b918301919091525088525050948301948301611482565b5092979650505050505050565b5f6115b161145e8461142e565b80848252602080830192508560051b8501368111156115ce575f80fd5b855b818110156116bc57803567ffffffffffffffff808211156115f0575f8081fd5b818901915060408236031215611605575f8081fd5b61160d6113bc565b61161683611232565b81528583013582811115611629575f8081fd5b9290920191601f368185011261163e575f8081fd5b83358381111561165057611650611366565b61167f887fffffffffffffffffffffffffffffffffffffffffffffffffffffffffffffffe084840116016113df565b93508084523688828701011115611697575f91508182fd5b80888601898601375f90840188015250808601919091528652509382019382016115d0565b50919695505050505050565b5f602082840312156116d8575f80fd5b815180151581146116e7575f80fd5b9392505050565b818103818111156102a5577f4e487b71000000000000000000000000000000000000000000000000000000005f52601160045260245ffd5b7f4e487b71000000000000000000000000000000000000000000000000000000005f52602160045260245ffd5b5f81518084526020808501808196508360051b810191508286015f5b858110156118505782840389528151606080860173ffffffffffffffffffffffffffffffffffffffff835116875287830151600381106117d6577f4e487b71000000000000000000000000000000000000000000000000000000005f52602160045260245ffd5b87890152604092830151928701919091528151908190529086019060808601905f905b8082101561183b5783517fffffffff000000000000000000000000000000000000000000000000000000001683529288019291880191600191909101906117f9565b5050998601999450509084019060010161176f565b5091979650505050505050565b5f5b8381101561187757818101518382015260200161185f565b50505f910152565b5f815180845261189681602086016020860161185d565b601f017fffffffffffffffffffffffffffffffffffffffffffffffffffffffffffffffe0169290920160200192915050565b606081525f6118da6060830186611753565b73ffffffffffffffffffffffffffffffffffffffff851660208401528281036040840152611908818561187f565b9695505050505050565b7f4e487b71000000000000000000000000000000000000000000000000000000005f52603260045260245ffd5b606081525f6119516060830185611753565b73ffffffffffffffffffffffffffffffffffffffff8416602084015282810360408401525f8152602081019150509392505050565b5f825161199781846020870161185d565b9190910192915050565b73ffffffffffffffffffffffffffffffffffffffff83168152604060208201525f6119cf604083018461187f565b94935050505056fea264697066735822122035b4d3ef8eccadbe9d5ffcf1480fb1268fa071a70ac1b0a195cf4841c6b0fc3f64736f6c63430008150033",
  "linkReferences": {},
  "deployedLinkReferences": {}
}