{
  "_format": "hh-sol-artifact-1",
  "contractName": "ERC20DetailedFacet",
  "sourceName": "contracts/token/ERC20/facets/ERC20DetailedFacet.sol",
  "abi": [
    {
      "inputs": [
        {
          "internalType": "contract IForwarderRegistry",
          "name": "forwarderRegistry",
          "type": "address"
        }
      ],
      "stateMutability": "nonpayable",
      "type": "constructor"
    },
    {
      "inputs": [],
      "name": "IllegalInterfaceId",
      "type": "error"
    },
    {
      "inputs": [
        {
          "internalType": "uint256",
          "name": "currentPhase",
          "type": "uint256"
        },
        {
          "internalType": "uint256",
          "name": "newPhase",
          "type": "uint256"
        }
      ],
      "name": "InitializationPhaseAlreadyReached",
      "type": "error"
    },
    {
      "inputs": [
        {
          "internalType": "address",
          "name": "account",
          "type": "address"
        }
      ],
      "name": "NotProxyAdmin",
      "type": "error"
    },
    {
      "inputs": [],
      "name": "decimals",
      "outputs": [
        {
          "internalType": "uint8",
          "name": "",
          "type": "uint8"
        }
      ],
      "stateMutability": "view",
      "type": "function"
    },
    {
      "inputs": [
        {
          "internalType": "string",
          "name": "tokenName",
          "type": "string"
        },
        {
          "internalType": "string",
          "name": "tokenSymbol",
          "type": "string"
        },
        {
          "internalType": "uint8",
          "name": "tokenDecimals",
          "type": "uint8"
        }
      ],
      "name": "initERC20DetailedStorage",
      "outputs": [],
      "stateMutability": "nonpayable",
      "type": "function"
    },
    {
      "inputs": [],
      "name": "name",
      "outputs": [
        {
          "internalType": "string",
          "name": "",
          "type": "string"
        }
      ],
      "stateMutability": "view",
      "type": "function"
    },
    {
      "inputs": [],
      "name": "symbol",
      "outputs": [
        {
          "internalType": "string",
          "name": "",
          "type": "string"
        }
      ],
      "stateMutability": "view",
      "type": "function"
    }
  ],
  "bytecode": "0x60a0604052348015600f57600080fd5b50604051610a4c380380610a4c833981016040819052602c91603c565b6001600160a01b0316608052606a565b600060208284031215604d57600080fd5b81516001600160a01b0381168114606357600080fd5b9392505050565b6080516109c061008c6000396000818161023e01526102cc01526109c06000f3fe608060405234801561001057600080fd5b506004361061004c5760003560e01c806306fdde0314610051578063313ce5671461006f57806395d89b4114610089578063ef96127914610091575b600080fd5b6100596100a6565b60405161006691906105fe565b60405180910390f35b6100776100bd565b60405160ff9091168152602001610066565b6100596100d4565b6100a461009f3660046106b4565b6100e6565b005b60606100b86100b3610120565b610154565b905090565b60006100b86100ca610120565b6002015460ff1690565b60606100b86100e1610120565b6101ea565b6100ff6100f16101fb565b6100f9610348565b90610376565b610119858585858561010f610120565b94939291906103ea565b5050505050565b60008061014e60017f335df4119bbb04f056b33eba33b826d3529129e458faf6daa9924b5a8f3b6a8261073e565b92915050565b606081600001805461016590610778565b80601f016020809104026020016040519081016040528092919081815260200182805461019190610778565b80156101de5780601f106101b3576101008083540402835291602001916101de565b820191906000526020600020905b8154815290600101906020018083116101c157829003601f168201915b50505050509050919050565b606081600101805461016590610778565b60003332148061020b5750601836105b1561021557503390565b7fffffffffffffffffffffffffffffffffffffffffffffffffffffffffffffffec36013560601c7f000000000000000000000000000000000000000000000000000000000000000073ffffffffffffffffffffffffffffffffffffffff1633148061033757506040517f019a202800000000000000000000000000000000000000000000000000000000815273ffffffffffffffffffffffffffffffffffffffff82811660048301523360248301523060448301527f0000000000000000000000000000000000000000000000000000000000000000169063019a202890606401602060405180830381865afa158015610313573d6000803e3d6000fd5b505050506040513d601f19601f8201168201806040525081019061033791906107cb565b1561034157919050565b3391505090565b60008061014e60017fb53127684a568b3173ae13b9f8a6016e243e63b6e8ee1178d6a717850b5d610461073e565b815473ffffffffffffffffffffffffffffffffffffffff8281169116146103e6576040517f673a31a100000000000000000000000000000000000000000000000000000000815273ffffffffffffffffffffffffffffffffffffffff821660048201526024015b60405180910390fd5b5050565b61041f61041860017fd217496980d1cb14720b20a80af36676bbece8e5feeb5d8970a9681a2c76bb7561073e565b60016104a8565b8561042b858783610870565b506001860161043b838583610870565b506002860180547fffffffffffffffffffffffffffffffffffffffffffffffffffffffffffffff001660ff83161790556104a07fa219a0250000000000000000000000000000000000000000000000000000000060016104996104f4565b9190610522565b505050505050565b815482908281106104ef576040517fbf0c18ec00000000000000000000000000000000000000000000000000000000815260048101829052602481018490526044016103dd565b505550565b60008061014e60017fca9d3e17f264b0f3984e2634e94adb37fa3e6a8103f06aeae6fa59e21c769f5e61073e565b7c01000000000000000000000000000000000000000000000000000000007fffffffff0000000000000000000000000000000000000000000000000000000083160161059a576040517f72c683bb00000000000000000000000000000000000000000000000000000000815260040160405180910390fd5b7fffffffff00000000000000000000000000000000000000000000000000000000919091166000908152602092909252604090912080547fffffffffffffffffffffffffffffffffffffffffffffffffffffffffffffff0016911515919091179055565b60006020808352835180602085015260005b8181101561062c57858101830151858201604001528201610610565b5060006040828601015260407fffffffffffffffffffffffffffffffffffffffffffffffffffffffffffffffe0601f8301168501019250505092915050565b60008083601f84011261067d57600080fd5b50813567ffffffffffffffff81111561069557600080fd5b6020830191508360208285010111156106ad57600080fd5b9250929050565b6000806000806000606086880312156106cc57600080fd5b853567ffffffffffffffff808211156106e457600080fd5b6106f089838a0161066b565b9097509550602088013591508082111561070957600080fd5b506107168882890161066b565b909450925050604086013560ff8116811461073057600080fd5b809150509295509295909350565b8181038181111561014e577f4e487b7100000000000000000000000000000000000000000000000000000000600052601160045260246000fd5b600181811c9082168061078c57607f821691505b6020821081036107c5577f4e487b7100000000000000000000000000000000000000000000000000000000600052602260045260246000fd5b50919050565b6000602082840312156107dd57600080fd5b815180151581146107ed57600080fd5b9392505050565b7f4e487b7100000000000000000000000000000000000000000000000000000000600052604160045260246000fd5b601f82111561086b576000816000526020600020601f850160051c8101602086101561084c5750805b601f850160051c820191505b818110156104a057828155600101610858565b505050565b67ffffffffffffffff831115610888576108886107f4565b61089c836108968354610778565b83610823565b6000601f8411600181146108ee57600085156108b85750838201355b7fffffffffffffffffffffffffffffffffffffffffffffffffffffffffffffffff600387901b1c1916600186901b178355610119565b6000838152602090207fffffffffffffffffffffffffffffffffffffffffffffffffffffffffffffffe0861690835b8281101561093d578685013582556020948501946001909201910161091d565b5086821015610978577fffffffffffffffffffffffffffffffffffffffffffffffffffffffffffffffff60f88860031b161c19848701351681555b505060018560011b018355505050505056fea2646970667358221220292d2bbe00e86b28d4b07e4c43fd5793c691e3094bdcfad16b652180e2ae77d364736f6c63430008190033",
  "linkReferences": {},
  "deployedLinkReferences": {}
}