{
  "_format": "hh-sol-artifact-1",
  "contractName": "ERC20DetailedFacet",
  "sourceName": "contracts/token/ERC20/facets/ERC20DetailedFacet.sol",
  "abi": [
    {
      "inputs": [
        {
          "internalType": "contract IForwarderRegistry",
          "name": "forwarderRegistry",
          "type": "address"
        }
      ],
      "stateMutability": "nonpayable",
      "type": "constructor"
    },
    {
      "inputs": [],
      "name": "IllegalInterfaceId",
      "type": "error"
    },
    {
      "inputs": [
        {
          "internalType": "uint256",
          "name": "currentPhase",
          "type": "uint256"
        },
        {
          "internalType": "uint256",
          "name": "newPhase",
          "type": "uint256"
        }
      ],
      "name": "InitializationPhaseAlreadyReached",
      "type": "error"
    },
    {
      "inputs": [
        {
          "internalType": "address",
          "name": "account",
          "type": "address"
        }
      ],
      "name": "NotProxyAdmin",
      "type": "error"
    },
    {
      "inputs": [],
      "name": "decimals",
      "outputs": [
        {
          "internalType": "uint8",
          "name": "",
          "type": "uint8"
        }
      ],
      "stateMutability": "view",
      "type": "function"
    },
    {
      "inputs": [
        {
          "internalType": "string",
          "name": "tokenName",
          "type": "string"
        },
        {
          "internalType": "string",
          "name": "tokenSymbol",
          "type": "string"
        },
        {
          "internalType": "uint8",
          "name": "tokenDecimals",
          "type": "uint8"
        }
      ],
      "name": "initERC20DetailedStorage",
      "outputs": [],
      "stateMutability": "nonpayable",
      "type": "function"
    },
    {
      "inputs": [],
      "name": "name",
      "outputs": [
        {
          "internalType": "string",
          "name": "",
          "type": "string"
        }
      ],
      "stateMutability": "view",
      "type": "function"
    },
    {
      "inputs": [],
      "name": "symbol",
      "outputs": [
        {
          "internalType": "string",
          "name": "",
          "type": "string"
        }
      ],
      "stateMutability": "view",
      "type": "function"
    }
  ],
  "bytecode": "0x60a060405234801561000f575f80fd5b50604051610a19380380610a1983398101604081905261002e9161003f565b6001600160a01b031660805261006c565b5f6020828403121561004f575f80fd5b81516001600160a01b0381168114610065575f80fd5b9392505050565b60805161098e61008b5f395f818161023501526102bd015261098e5ff3fe608060405234801561000f575f80fd5b506004361061004a575f3560e01c806306fdde031461004e578063313ce5671461006c57806395d89b4114610086578063ef9612791461008e575b5f80fd5b6100566100a3565b60405161006391906105ea565b60405180910390f35b6100746100ba565b60405160ff9091168152602001610063565b6100566100d0565b6100a161009c366004610698565b6100e2565b005b60606100b56100b061011c565b61014f565b905090565b5f6100b56100c661011c565b6002015460ff1690565b60606100b56100dd61011c565b6101e2565b6100fb6100ed6101f3565b6100f5610337565b90610364565b610115858585858561010b61011c565b94939291906103d8565b5050505050565b5f8061014960017f335df4119bbb04f056b33eba33b826d3529129e458faf6daa9924b5a8f3b6a8261071b565b92915050565b6060815f01805461015f90610753565b80601f016020809104026020016040519081016040528092919081815260200182805461018b90610753565b80156101d65780601f106101ad576101008083540402835291602001916101d6565b820191905f5260205f20905b8154815290600101906020018083116101b957829003601f168201915b50505050509050919050565b606081600101805461015f90610753565b5f333214806102025750601836105b1561020c57503390565b7fffffffffffffffffffffffffffffffffffffffffffffffffffffffffffffffec36013560601c7f000000000000000000000000000000000000000000000000000000000000000073ffffffffffffffffffffffffffffffffffffffff1633148061032657506040517f8929a8ca00000000000000000000000000000000000000000000000000000000815273ffffffffffffffffffffffffffffffffffffffff82811660048301523360248301527f00000000000000000000000000000000000000000000000000000000000000001690638929a8ca90604401602060405180830381865afa158015610302573d5f803e3d5ffd5b505050506040513d601f19601f8201168201806040525081019061032691906107a4565b1561033057919050565b3391505090565b5f8061014960017fb53127684a568b3173ae13b9f8a6016e243e63b6e8ee1178d6a717850b5d610461071b565b815473ffffffffffffffffffffffffffffffffffffffff8281169116146103d4576040517f673a31a100000000000000000000000000000000000000000000000000000000815273ffffffffffffffffffffffffffffffffffffffff821660048201526024015b60405180910390fd5b5050565b61040d61040660017fd217496980d1cb14720b20a80af36676bbece8e5feeb5d8970a9681a2c76bb7561071b565b6001610496565b85610419858783610841565b5060018601610429838583610841565b506002860180547fffffffffffffffffffffffffffffffffffffffffffffffffffffffffffffff001660ff831617905561048e7fa219a0250000000000000000000000000000000000000000000000000000000060016104876104e2565b919061050f565b505050505050565b815482908281106104dd576040517fbf0c18ec00000000000000000000000000000000000000000000000000000000815260048101829052602481018490526044016103cb565b505550565b5f8061014960017fca9d3e17f264b0f3984e2634e94adb37fa3e6a8103f06aeae6fa59e21c769f5e61071b565b7c01000000000000000000000000000000000000000000000000000000007fffffffff00000000000000000000000000000000000000000000000000000000831601610587576040517f72c683bb00000000000000000000000000000000000000000000000000000000815260040160405180910390fd5b7fffffffff00000000000000000000000000000000000000000000000000000000919091165f908152602092909252604090912080547fffffffffffffffffffffffffffffffffffffffffffffffffffffffffffffff0016911515919091179055565b5f6020808352835180828501525f5b81811015610615578581018301518582016040015282016105f9565b505f6040828601015260407fffffffffffffffffffffffffffffffffffffffffffffffffffffffffffffffe0601f8301168501019250505092915050565b5f8083601f840112610663575f80fd5b50813567ffffffffffffffff81111561067a575f80fd5b602083019150836020828501011115610691575f80fd5b9250929050565b5f805f805f606086880312156106ac575f80fd5b853567ffffffffffffffff808211156106c3575f80fd5b6106cf89838a01610653565b909750955060208801359150808211156106e7575f80fd5b506106f488828901610653565b909450925050604086013560ff8116811461070d575f80fd5b809150509295509295909350565b81810381811115610149577f4e487b71000000000000000000000000000000000000000000000000000000005f52601160045260245ffd5b600181811c9082168061076757607f821691505b60208210810361079e577f4e487b71000000000000000000000000000000000000000000000000000000005f52602260045260245ffd5b50919050565b5f602082840312156107b4575f80fd5b815180151581146107c3575f80fd5b9392505050565b7f4e487b71000000000000000000000000000000000000000000000000000000005f52604160045260245ffd5b601f82111561083c575f81815260208120601f850160051c8101602086101561081d5750805b601f850160051c820191505b8181101561048e57828155600101610829565b505050565b67ffffffffffffffff831115610859576108596107ca565b61086d836108678354610753565b836107f7565b5f601f8411600181146108bd575f85156108875750838201355b7fffffffffffffffffffffffffffffffffffffffffffffffffffffffffffffffff600387901b1c1916600186901b178355610115565b5f838152602090207fffffffffffffffffffffffffffffffffffffffffffffffffffffffffffffffe0861690835b8281101561090b57868501358255602094850194600190920191016108eb565b5086821015610946577fffffffffffffffffffffffffffffffffffffffffffffffffffffffffffffffff60f88860031b161c19848701351681555b505060018560011b018355505050505056fea26469706673582212207edce3ab7cbabb1ae385f6baa5f343881de3d0e24d19f8eb1a90f4141419c33b64736f6c63430008150033",
  "linkReferences": {},
  "deployedLinkReferences": {}
}