{
  "_format": "hh-sol-artifact-1",
  "contractName": "ERC721TokenMetadataMock",
  "sourceName": "contracts/mocks/token/ERC721/ERC721TokenMetadataMock.sol",
  "abi": [
    {
      "inputs": [
        {
          "internalType": "string",
          "name": "tokenName",
          "type": "string"
        },
        {
          "internalType": "string",
          "name": "tokenSymbol",
          "type": "string"
        },
        {
          "internalType": "contract IForwarderRegistry",
          "name": "forwarderRegistry",
          "type": "address"
        }
      ],
      "stateMutability": "nonpayable",
      "type": "constructor"
    },
    {
      "anonymous": false,
      "inputs": [
        {
          "indexed": true,
          "internalType": "address",
          "name": "owner",
          "type": "address"
        },
        {
          "indexed": true,
          "internalType": "address",
          "name": "approved",
          "type": "address"
        },
        {
          "indexed": true,
          "internalType": "uint256",
          "name": "tokenId",
          "type": "uint256"
        }
      ],
      "name": "Approval",
      "type": "event"
    },
    {
      "anonymous": false,
      "inputs": [
        {
          "indexed": true,
          "internalType": "address",
          "name": "owner",
          "type": "address"
        },
        {
          "indexed": true,
          "internalType": "address",
          "name": "operator",
          "type": "address"
        },
        {
          "indexed": false,
          "internalType": "bool",
          "name": "approved",
          "type": "bool"
        }
      ],
      "name": "ApprovalForAll",
      "type": "event"
    },
    {
      "anonymous": false,
      "inputs": [
        {
          "indexed": true,
          "internalType": "address",
          "name": "previousOwner",
          "type": "address"
        },
        {
          "indexed": true,
          "internalType": "address",
          "name": "newOwner",
          "type": "address"
        }
      ],
      "name": "OwnershipTransferred",
      "type": "event"
    },
    {
      "anonymous": false,
      "inputs": [
        {
          "indexed": false,
          "internalType": "bytes32",
          "name": "role",
          "type": "bytes32"
        },
        {
          "indexed": false,
          "internalType": "address",
          "name": "account",
          "type": "address"
        },
        {
          "indexed": false,
          "internalType": "address",
          "name": "operator",
          "type": "address"
        }
      ],
      "name": "RoleGranted",
      "type": "event"
    },
    {
      "anonymous": false,
      "inputs": [
        {
          "indexed": false,
          "internalType": "bytes32",
          "name": "role",
          "type": "bytes32"
        },
        {
          "indexed": false,
          "internalType": "address",
          "name": "account",
          "type": "address"
        },
        {
          "indexed": false,
          "internalType": "address",
          "name": "operator",
          "type": "address"
        }
      ],
      "name": "RoleRevoked",
      "type": "event"
    },
    {
      "anonymous": false,
      "inputs": [
        {
          "indexed": true,
          "internalType": "address",
          "name": "from",
          "type": "address"
        },
        {
          "indexed": true,
          "internalType": "address",
          "name": "to",
          "type": "address"
        },
        {
          "indexed": true,
          "internalType": "uint256",
          "name": "tokenId",
          "type": "uint256"
        }
      ],
      "name": "Transfer",
      "type": "event"
    },
    {
      "inputs": [],
      "name": "MINTER_ROLE",
      "outputs": [
        {
          "internalType": "bytes32",
          "name": "",
          "type": "bytes32"
        }
      ],
      "stateMutability": "view",
      "type": "function"
    },
    {
      "inputs": [],
      "name": "__msgData",
      "outputs": [
        {
          "internalType": "bytes",
          "name": "",
          "type": "bytes"
        }
      ],
      "stateMutability": "view",
      "type": "function"
    },
    {
      "inputs": [
        {
          "internalType": "address",
          "name": "to",
          "type": "address"
        },
        {
          "internalType": "uint256",
          "name": "tokenId",
          "type": "uint256"
        }
      ],
      "name": "approve",
      "outputs": [],
      "stateMutability": "nonpayable",
      "type": "function"
    },
    {
      "inputs": [
        {
          "internalType": "address",
          "name": "owner",
          "type": "address"
        }
      ],
      "name": "balanceOf",
      "outputs": [
        {
          "internalType": "uint256",
          "name": "",
          "type": "uint256"
        }
      ],
      "stateMutability": "view",
      "type": "function"
    },
    {
      "inputs": [
        {
          "internalType": "address",
          "name": "to",
          "type": "address"
        },
        {
          "internalType": "uint256[]",
          "name": "tokenIds",
          "type": "uint256[]"
        }
      ],
      "name": "batchMint",
      "outputs": [],
      "stateMutability": "nonpayable",
      "type": "function"
    },
    {
      "inputs": [
        {
          "internalType": "uint256[]",
          "name": "tokenIds",
          "type": "uint256[]"
        },
        {
          "internalType": "string[]",
          "name": "tokenURIs",
          "type": "string[]"
        }
      ],
      "name": "batchSetTokenURI",
      "outputs": [],
      "stateMutability": "nonpayable",
      "type": "function"
    },
    {
      "inputs": [
        {
          "internalType": "uint256",
          "name": "tokenId",
          "type": "uint256"
        }
      ],
      "name": "getApproved",
      "outputs": [
        {
          "internalType": "address",
          "name": "operator",
          "type": "address"
        }
      ],
      "stateMutability": "view",
      "type": "function"
    },
    {
      "inputs": [
        {
          "internalType": "bytes32",
          "name": "role",
          "type": "bytes32"
        },
        {
          "internalType": "address",
          "name": "account",
          "type": "address"
        }
      ],
      "name": "grantRole",
      "outputs": [],
      "stateMutability": "nonpayable",
      "type": "function"
    },
    {
      "inputs": [
        {
          "internalType": "bytes32",
          "name": "role",
          "type": "bytes32"
        },
        {
          "internalType": "address",
          "name": "account",
          "type": "address"
        }
      ],
      "name": "hasRole",
      "outputs": [
        {
          "internalType": "bool",
          "name": "",
          "type": "bool"
        }
      ],
      "stateMutability": "view",
      "type": "function"
    },
    {
      "inputs": [
        {
          "internalType": "address",
          "name": "owner",
          "type": "address"
        },
        {
          "internalType": "address",
          "name": "operator",
          "type": "address"
        }
      ],
      "name": "isApprovedForAll",
      "outputs": [
        {
          "internalType": "bool",
          "name": "",
          "type": "bool"
        }
      ],
      "stateMutability": "view",
      "type": "function"
    },
    {
      "inputs": [
        {
          "internalType": "address",
          "name": "to",
          "type": "address"
        },
        {
          "internalType": "uint256",
          "name": "tokenId",
          "type": "uint256"
        }
      ],
      "name": "mint",
      "outputs": [],
      "stateMutability": "nonpayable",
      "type": "function"
    },
    {
      "inputs": [],
      "name": "name",
      "outputs": [
        {
          "internalType": "string",
          "name": "",
          "type": "string"
        }
      ],
      "stateMutability": "view",
      "type": "function"
    },
    {
      "inputs": [],
      "name": "owner",
      "outputs": [
        {
          "internalType": "address",
          "name": "",
          "type": "address"
        }
      ],
      "stateMutability": "view",
      "type": "function"
    },
    {
      "inputs": [
        {
          "internalType": "uint256",
          "name": "tokenId",
          "type": "uint256"
        }
      ],
      "name": "ownerOf",
      "outputs": [
        {
          "internalType": "address",
          "name": "",
          "type": "address"
        }
      ],
      "stateMutability": "view",
      "type": "function"
    },
    {
      "inputs": [
        {
          "internalType": "bytes32",
          "name": "role",
          "type": "bytes32"
        }
      ],
      "name": "renounceRole",
      "outputs": [],
      "stateMutability": "nonpayable",
      "type": "function"
    },
    {
      "inputs": [
        {
          "internalType": "bytes32",
          "name": "role",
          "type": "bytes32"
        },
        {
          "internalType": "address",
          "name": "account",
          "type": "address"
        }
      ],
      "name": "revokeRole",
      "outputs": [],
      "stateMutability": "nonpayable",
      "type": "function"
    },
    {
      "inputs": [
        {
          "internalType": "address",
          "name": "to",
          "type": "address"
        },
        {
          "internalType": "uint256",
          "name": "tokenId",
          "type": "uint256"
        },
        {
          "internalType": "bytes",
          "name": "data",
          "type": "bytes"
        }
      ],
      "name": "safeMint",
      "outputs": [],
      "stateMutability": "nonpayable",
      "type": "function"
    },
    {
      "inputs": [
        {
          "internalType": "address",
          "name": "from",
          "type": "address"
        },
        {
          "internalType": "address",
          "name": "to",
          "type": "address"
        },
        {
          "internalType": "uint256",
          "name": "tokenId",
          "type": "uint256"
        }
      ],
      "name": "safeTransferFrom",
      "outputs": [],
      "stateMutability": "nonpayable",
      "type": "function"
    },
    {
      "inputs": [
        {
          "internalType": "address",
          "name": "from",
          "type": "address"
        },
        {
          "internalType": "address",
          "name": "to",
          "type": "address"
        },
        {
          "internalType": "uint256",
          "name": "tokenId",
          "type": "uint256"
        },
        {
          "internalType": "bytes",
          "name": "_data",
          "type": "bytes"
        }
      ],
      "name": "safeTransferFrom",
      "outputs": [],
      "stateMutability": "nonpayable",
      "type": "function"
    },
    {
      "inputs": [
        {
          "internalType": "address",
          "name": "operator",
          "type": "address"
        },
        {
          "internalType": "bool",
          "name": "approved",
          "type": "bool"
        }
      ],
      "name": "setApprovalForAll",
      "outputs": [],
      "stateMutability": "nonpayable",
      "type": "function"
    },
    {
      "inputs": [
        {
          "internalType": "uint256",
          "name": "tokenId",
          "type": "uint256"
        },
        {
          "internalType": "string",
          "name": "uri",
          "type": "string"
        }
      ],
      "name": "setTokenURI",
      "outputs": [],
      "stateMutability": "nonpayable",
      "type": "function"
    },
    {
      "inputs": [
        {
          "internalType": "bytes4",
          "name": "interfaceId",
          "type": "bytes4"
        }
      ],
      "name": "supportsInterface",
      "outputs": [
        {
          "internalType": "bool",
          "name": "",
          "type": "bool"
        }
      ],
      "stateMutability": "view",
      "type": "function"
    },
    {
      "inputs": [],
      "name": "symbol",
      "outputs": [
        {
          "internalType": "string",
          "name": "",
          "type": "string"
        }
      ],
      "stateMutability": "view",
      "type": "function"
    },
    {
      "inputs": [
        {
          "internalType": "uint256",
          "name": "tokenId",
          "type": "uint256"
        }
      ],
      "name": "tokenURI",
      "outputs": [
        {
          "internalType": "string",
          "name": "",
          "type": "string"
        }
      ],
      "stateMutability": "view",
      "type": "function"
    },
    {
      "inputs": [
        {
          "internalType": "address",
          "name": "from",
          "type": "address"
        },
        {
          "internalType": "address",
          "name": "to",
          "type": "address"
        },
        {
          "internalType": "uint256",
          "name": "tokenId",
          "type": "uint256"
        }
      ],
      "name": "transferFrom",
      "outputs": [],
      "stateMutability": "nonpayable",
      "type": "function"
    },
    {
      "inputs": [
        {
          "internalType": "address",
          "name": "newOwner",
          "type": "address"
        }
      ],
      "name": "transferOwnership",
      "outputs": [],
      "stateMutability": "nonpayable",
      "type": "function"
    }
  ],
  "bytecode": "0x60a06040523480156200001157600080fd5b50604051620035d7380380620035d78339810160408190526200003491620004a3565b82828280336200004e620000e560201b620008431760201c565b6200007c81620000686200010a60201b6200087a1760201c565b6200014060201b620008a81790919060201c565b50620000b5638e773e1360e01b6001620000a0620001be60201b6200095a1760201c565b620001ee60201b62000988179092919060201c565b6001600160a01b031660805250620000da82826200027b602090811b62000a7d17901c565b505050505062000592565b620001086380ac58cd60e01b6001620000a0620001be60201b6200095a1760201c565b565b6000806200013a60017fc9ed16f33ab3a66c84bfd83099ccb2a8845871e2e1c1928f63797152f0fd54cd62000530565b92915050565b6001600160a01b03811615620001975781546001600160a01b0319166001600160a01b03821690811783556040516000907f8be0079c531659141344cd1fd0a4f28419497f9722a3daafe3b4186f6b6457e0908290a35b620001ba6307f5828d60e41b6001620000a0620001be60201b6200095a1760201c565b5050565b6000806200013a60017fca9d3e17f264b0f3984e2634e94adb37fa3e6a8103f06aeae6fa59e21c769f5e62000530565b6001600160e01b031980831690036200024d5760405162461bcd60e51b815260206004820152601f60248201527f496e74657266616365446574656374696f6e3a2077726f6e672076616c756500604482015260640160405180910390fd5b6001600160e01b03199190911660009081526020929092526040909120805460ff1916911515919091179055565b620002ab828262000296620002ce60201b62000abf1760201c565b620002fe60201b62000aed179092919060201c565b620001ba635b5e139f60e01b6001620000a0620001be60201b6200095a1760201c565b6000806200013a60017f9c4269c0f9f430d98876ffe9767fbf3f3232ea91a549beb549e5329532520eb362000530565b815162000312908490602085019062000330565b5080516200032a906001850190602084019062000330565b50505050565b8280546200033e9062000556565b90600052602060002090601f016020900481019282620003625760008555620003ad565b82601f106200037d57805160ff1916838001178555620003ad565b82800160010185558215620003ad579182015b82811115620003ad57825182559160200191906001019062000390565b50620003bb929150620003bf565b5090565b5b80821115620003bb5760008155600101620003c0565b634e487b7160e01b600052604160045260246000fd5b600082601f830112620003fe57600080fd5b81516001600160401b03808211156200041b576200041b620003d6565b604051601f8301601f19908116603f01168101908282118183101715620004465762000446620003d6565b816040528381526020925086838588010111156200046357600080fd5b600091505b8382101562000487578582018301518183018401529082019062000468565b83821115620004995760008385830101525b9695505050505050565b600080600060608486031215620004b957600080fd5b83516001600160401b0380821115620004d157600080fd5b620004df87838801620003ec565b94506020860151915080821115620004f657600080fd5b506200050586828701620003ec565b604086015190935090506001600160a01b03811681146200052557600080fd5b809150509250925092565b6000828210156200055157634e487b7160e01b600052601160045260246000fd5b500390565b600181811c908216806200056b57607f821691505b6020821081036200058c57634e487b7160e01b600052602260045260246000fd5b50919050565b608051613014620005c360003960008181612189015281816122290152818161244401526124ae01526130146000f3fe608060405234801561001057600080fd5b50600436106101ae5760003560e01c806370a08231116100ee578063a22cb46511610097578063d539139311610071578063d53913931461038e578063d547741f146103b5578063e985e9c5146103c8578063f2fde38b146103db57600080fd5b8063a22cb46514610355578063b88d4fde14610368578063c87b56dd1461037b57600080fd5b80638da5cb5b116100c85780638da5cb5b1461033257806391d148541461033a57806395d89b411461034d57600080fd5b806370a08231146102eb5780638832e6e31461030c5780638bb9c5bf1461031f57600080fd5b80632f2ff15d1161015b57806342842e0e1161013557806342842e0e1461029f5780634684d7e9146102b25780636352211e146102c55780636706467b146102d857600080fd5b80632f2ff15d1461026357806331e66e1e1461027657806340c10f191461028c57600080fd5b8063095ea7b31161018c578063095ea7b314610228578063162094c41461023d57806323b872dd1461025057600080fd5b806301ffc9a7146101b357806306fdde03146101db578063081812fc146101f0575b600080fd5b6101c66101c136600461279c565b6103ee565b60405190151581526020015b60405180910390f35b6101e3610408565b6040516101d2919061282f565b6102036101fe366004612842565b61041f565b60405173ffffffffffffffffffffffffffffffffffffffff90911681526020016101d2565b61023b610236366004612884565b610433565b005b61023b61024b366004612971565b610454565b61023b61025e3660046129cc565b610481565b61023b610271366004612a08565b6104a5565b61027e6104d3565b6040516101d2929190612a34565b61023b61029a366004612884565b6104e6565b61023b6102ad3660046129cc565b610552565b61023b6102c0366004612acd565b610571565b6102036102d3366004612842565b6105e5565b61023b6102e6366004612b20565b6105f9565b6102fe6102f9366004612b8c565b610622565b6040519081526020016101d2565b61023b61031a366004612ba7565b610636565b61023b61032d366004612842565b6106b2565b6102036106d0565b6101c6610348366004612a08565b6106f7565b6101e3610742565b61023b610363366004612c3c565b610754565b61023b610376366004612c73565b610771565b6101e3610389366004612842565b610792565b6102fe7f6d696e746572000000000000000000000000000000000000000000000000000081565b61023b6103c3366004612a08565b6107b3565b6101c66103d6366004612cef565b6107e1565b61023b6103e9366004612b8c565b610828565b6000610402826103fc61095a565b90610b15565b92915050565b606061041a610415610abf565b610bd3565b905090565b60006104028261042d610c69565b90610c97565b61045061043e610d7a565b8383610448610c69565b929190610d84565b5050565b61046d61045f610d7a565b61046761087a565b90611040565b610450828261047a6110c3565b91906110f1565b6104a061048c610d7a565b848484610497610c69565b9392919061110e565b505050565b60006104af610d7a565b90506104bd8161046761087a565b6104a08383836104cb611134565b929190611162565b3660006104de611238565b915091509091565b6105217f6d696e7465720000000000000000000000000000000000000000000000000000610512610d7a565b61051a611134565b9190611243565b61045061052c610d7a565b8383604051806020016040528060008152506000610548610c69565b94939291906112ef565b6104a061055d610d7a565b848484610568610c69565b939291906113fc565b61059d7f6d696e7465720000000000000000000000000000000000000000000000000000610512610d7a565b6104a0838383808060200260200160405190810160405280939291908181526020018383602002808284376000920191909152506105de9250610c69915050565b919061141b565b6000610402826105f3610c69565b90611560565b61060461045f610d7a565b61061c848484846106136110c3565b939291906115ee565b50505050565b600061040282610630610c69565b906116cf565b6106627f6d696e7465720000000000000000000000000000000000000000000000000000610512610d7a565b61061c61066d610d7a565b858585858080601f016020809104026020016040519081016040528093929190818152602001838380828437600092019190915250600192506105489150610c699050565b6106cd6106bd610d7a565b826106c6611134565b919061177b565b50565b600061041a6106dd61087a565b5473ffffffffffffffffffffffffffffffffffffffff1690565b600061073b8383610706611134565b60009283526020908152604080842073ffffffffffffffffffffffffffffffffffffffff909316845291905290205460ff1690565b9392505050565b606061041a61074f610abf565b61181f565b61045061075f610d7a565b8383610769610c69565b929190611830565b61061c61077c610d7a565b85858585610788610c69565b949392919061195c565b60606107a0826105f3610c69565b50610402826107ad6110c3565b9061196c565b60006107bd610d7a565b90506107cb8161046761087a565b6104a08383836107d9611134565b929190611a0f565b600061073b83836107f0610c69565b73ffffffffffffffffffffffffffffffffffffffff928316600090815260209182526040808220939094168152919052205460ff1690565b6106cd610833610d7a565b8261083c61087a565b9190611ad9565b6108787f80ac58cd00000000000000000000000000000000000000000000000000000000600161087161095a565b9190610988565b565b60008061040260017fc9ed16f33ab3a66c84bfd83099ccb2a8845871e2e1c1928f63797152f0fd54cd612d48565b73ffffffffffffffffffffffffffffffffffffffff8116156109305781547fffffffffffffffffffffffff00000000000000000000000000000000000000001673ffffffffffffffffffffffffffffffffffffffff821690811783556040516000907f8be0079c531659141344cd1fd0a4f28419497f9722a3daafe3b4186f6b6457e0908290a35b6104507f7f5828d00000000000000000000000000000000000000000000000000000000060016108715b60008061040260017fca9d3e17f264b0f3984e2634e94adb37fa3e6a8103f06aeae6fa59e21c769f5e612d48565b7fffffffff000000000000000000000000000000000000000000000000000000008083169003610a19576040517f08c379a000000000000000000000000000000000000000000000000000000000815260206004820152601f60248201527f496e74657266616365446574656374696f6e3a2077726f6e672076616c75650060448201526064015b60405180910390fd5b7fffffffff00000000000000000000000000000000000000000000000000000000919091166000908152602092909252604090912080547fffffffffffffffffffffffffffffffffffffffffffffffffffffffffffffff0016911515919091179055565b610a918282610a8a610abf565b9190610aed565b6104507f5b5e139f00000000000000000000000000000000000000000000000000000000600161087161095a565b60008061040260017f9c4269c0f9f430d98876ffe9767fbf3f3232ea91a549beb549e5329532520eb3612d48565b8151610aff9084906020850190612643565b50805161061c9060018501906020840190612643565b60007fffffffff000000000000000000000000000000000000000000000000000000008083169003610b4957506000610402565b7ffe003659000000000000000000000000000000000000000000000000000000007fffffffff00000000000000000000000000000000000000000000000000000000831601610b9a57506001610402565b507fffffffff00000000000000000000000000000000000000000000000000000000166000908152602091909152604090205460ff1690565b6060816000018054610be490612d5f565b80601f0160208091040260200160405190810160405280929190818152602001828054610c1090612d5f565b8015610c5d5780601f10610c3257610100808354040283529160200191610c5d565b820191906000526020600020905b815481529060010190602001808311610c4057829003601f168201915b50505050509050919050565b60008061040260017fddf3ee18ae6d688373c219468f8be446e7ae82215f4779d821c7ea5e8c13c0c1612d48565b600081815260018301602052604081205473ffffffffffffffffffffffffffffffffffffffff8116610d25576040517f08c379a000000000000000000000000000000000000000000000000000000000815260206004820152601860248201527f4552433732313a206e6f6e2d6578697374696e67204e465400000000000000006044820152606401610a10565b74010000000000000000000000000000000000000000811615610d70575050600081815260038301602052604090205473ffffffffffffffffffffffffffffffffffffffff16610402565b6000915050610402565b600061041a611c05565b600081815260018501602052604081205490819003610dff576040517f08c379a000000000000000000000000000000000000000000000000000000000815260206004820152601860248201527f4552433732313a206e6f6e2d6578697374696e67204e465400000000000000006044820152606401610a10565b8073ffffffffffffffffffffffffffffffffffffffff80821690851603610e82576040517f08c379a000000000000000000000000000000000000000000000000000000000815260206004820152601560248201527f4552433732313a2073656c662d617070726f76616c00000000000000000000006044820152606401610a10565b610e8d868287611c0f565b610ef3576040517f08c379a000000000000000000000000000000000000000000000000000000000815260206004820152601b60248201527f4552433732313a206e6f6e2d617070726f7665642073656e64657200000000006044820152606401610a10565b73ffffffffffffffffffffffffffffffffffffffff8416610f5a5774010000000000000000000000000000000000000000821615610f55576000838152600187016020526040902073ffffffffffffffffffffffffffffffffffffffff821690555b610fdd565b740100000000000000000000000000000000000000008217808314610f8d57600084815260018801602052604090208190555b506000838152600387016020526040902080547fffffffffffffffffffffffff00000000000000000000000000000000000000001673ffffffffffffffffffffffffffffffffffffffff86161790555b828473ffffffffffffffffffffffffffffffffffffffff168273ffffffffffffffffffffffffffffffffffffffff167f8c5be1e5ebec7d5bd14f71427d1e84f3dd0314c0f7b2291e5b200ac8c7c3b92560405160405180910390a4505050505050565b815473ffffffffffffffffffffffffffffffffffffffff828116911614610450576040517f08c379a000000000000000000000000000000000000000000000000000000000815260206004820152601860248201527f4f776e6572736869703a206e6f7420746865206f776e657200000000000000006044820152606401610a10565b60008061040260017fcea153e5352e750a7f7d04182593def5961809dc6d3d38bc5f28032d416d02d8612d48565b600082815260208481526040909120825161061c92840190612643565b61112d8585858585604051806020016040528060008152506000611c83565b5050505050565b60008061040260017fc8827d3282af6f37b64c3e9e6f3ac9df286ab0bb0fccd6f8661bf19adb368b23612d48565b60008381526020858152604080832073ffffffffffffffffffffffffffffffffffffffff8616845290915290205460ff1661061c5760008381526020858152604080832073ffffffffffffffffffffffffffffffffffffffff8681168086529184529382902080547fffffffffffffffffffffffffffffffffffffffffffffffffffffffffffffff00166001179055815187815292830152918316918101919091527f2f8788117e7eff1d82e926ec794901d17c78024a50270940304540a733656f0d906060015b60405180910390a150505050565b3660006104de611db9565b60008281526020848152604080832073ffffffffffffffffffffffffffffffffffffffff8516845290915290205460ff166104a05761128182611dc4565b6040516020016112919190612dac565b604080517fffffffffffffffffffffffffffffffffffffffffffffffffffffffffffffffe0818403018152908290527f08c379a0000000000000000000000000000000000000000000000000000000008252610a109160040161282f565b73ffffffffffffffffffffffffffffffffffffffff841661136c576040517f08c379a000000000000000000000000000000000000000000000000000000000815260206004820152601460248201527f4552433732313a206d696e7420746f207a65726f0000000000000000000000006044820152606401610a10565b6113798685856000611f4e565b604051839073ffffffffffffffffffffffffffffffffffffffff8616906000907fddf252ad1be2c89b69c2b068fc378daa952ba7f163c4a11628f55a4df523b3ef908290a48080156113e1575073ffffffffffffffffffffffffffffffffffffffff84163b15155b156113f4576113f4856000868686612027565b505050505050565b61112d8585858585604051806020016040528060008152506001611c83565b73ffffffffffffffffffffffffffffffffffffffff8216611498576040517f08c379a000000000000000000000000000000000000000000000000000000000815260206004820152601460248201527f4552433732313a206d696e7420746f207a65726f0000000000000000000000006044820152606401610a10565b805160005b81811461151d5760008382815181106114b8576114b8612e18565b602002602001015190506114cf8686836001611f4e565b604051819073ffffffffffffffffffffffffffffffffffffffff8716906000907fddf252ad1be2c89b69c2b068fc378daa952ba7f163c4a11628f55a4df523b3ef908290a45060010161149d565b5073ffffffffffffffffffffffffffffffffffffffff8316600090815260028501602052604081208054839290611555908490612e47565b909155505050505050565b600081815260018301602052604081205473ffffffffffffffffffffffffffffffffffffffff811661073b576040517f08c379a000000000000000000000000000000000000000000000000000000000815260206004820152601860248201527f4552433732313a206e6f6e2d6578697374696e67204e465400000000000000006044820152606401610a10565b828114611657576040517f08c379a000000000000000000000000000000000000000000000000000000000815260206004820152601b60248201527f4552433732313a20696e636f6e73697374656e742061727261797300000000006044820152606401610a10565b60005b60ff81168411156113f45782828260ff1681811061167a5761167a612e18565b905060200281019061168c9190612e5f565b876000888860ff87168181106116a4576116a4612e18565b90506020020135815260200190815260200160002091906116c69291906126c7565b5060010161165a565b600073ffffffffffffffffffffffffffffffffffffffff821661174e576040517f08c379a000000000000000000000000000000000000000000000000000000000815260206004820152601460248201527f4552433732313a207a65726f20616464726573730000000000000000000000006044820152606401610a10565b5073ffffffffffffffffffffffffffffffffffffffff166000908152600291909101602052604090205490565b611786838284611243565b60008181526020848152604080832073ffffffffffffffffffffffffffffffffffffffff86168085529083529281902080547fffffffffffffffffffffffffffffffffffffffffffffffffffffffffffffff0016905580518481529182018390528101919091527ff6391f5c32d9c69d2a47ea670b442974b53935d1edc7fd64eb21e047a839171b9060600160405180910390a1505050565b6060816001018054610be490612d5f565b8273ffffffffffffffffffffffffffffffffffffffff168273ffffffffffffffffffffffffffffffffffffffff16036118c5576040517f08c379a000000000000000000000000000000000000000000000000000000000815260206004820152601560248201527f4552433732313a2073656c662d617070726f76616c00000000000000000000006044820152606401610a10565b73ffffffffffffffffffffffffffffffffffffffff8381166000818152602087815260408083209487168084529482529182902080547fffffffffffffffffffffffffffffffffffffffffffffffffffffffffffffff001686151590811790915591519182527f17307eab39ab6107e8899845ad3d59bd9653f200f220920489ca2b5937696c31910160405180910390a350505050565b6113f48686868686866001611c83565b600081815260208390526040902080546060919061198990612d5f565b80601f01602080910402602001604051908101604052809291908181526020018280546119b590612d5f565b8015611a025780601f106119d757610100808354040283529160200191611a02565b820191906000526020600020905b8154815290600101906020018083116119e557829003601f168201915b5050505050905092915050565b60008381526020858152604080832073ffffffffffffffffffffffffffffffffffffffff8616845290915290205460ff161561061c5760008381526020858152604080832073ffffffffffffffffffffffffffffffffffffffff8681168086529184529382902080547fffffffffffffffffffffffffffffffffffffffffffffffffffffffffffffff00169055815187815292830152918316918101919091527ff6391f5c32d9c69d2a47ea670b442974b53935d1edc7fd64eb21e047a839171b9060600161122a565b825473ffffffffffffffffffffffffffffffffffffffff9081169083168114611b5e576040517f08c379a000000000000000000000000000000000000000000000000000000000815260206004820152601860248201527f4f776e6572736869703a206e6f7420746865206f776e657200000000000000006044820152606401610a10565b8173ffffffffffffffffffffffffffffffffffffffff168173ffffffffffffffffffffffffffffffffffffffff161461061c5783547fffffffffffffffffffffffff00000000000000000000000000000000000000001673ffffffffffffffffffffffffffffffffffffffff8381169182178655604051908316907f8be0079c531659141344cd1fd0a4f28419497f9722a3daafe3b4186f6b6457e090600090a350505050565b600061041a61214d565b60008173ffffffffffffffffffffffffffffffffffffffff168373ffffffffffffffffffffffffffffffffffffffff161480611c7b575073ffffffffffffffffffffffffffffffffffffffff8084166000908152602086815260408083209386168352929052205460ff165b949350505050565b73ffffffffffffffffffffffffffffffffffffffff8416611d00576040517f08c379a000000000000000000000000000000000000000000000000000000000815260206004820152601860248201527f4552433732313a207472616e7366657220746f207a65726f00000000000000006044820152606401610a10565b6000611d0d888789611c0f565b9050611d1f88888888888660006122a5565b838573ffffffffffffffffffffffffffffffffffffffff168773ffffffffffffffffffffffffffffffffffffffff167fddf252ad1be2c89b69c2b068fc378daa952ba7f163c4a11628f55a4df523b3ef60405160405180910390a4818015611d9d575073ffffffffffffffffffffffffffffffffffffffff85163b15155b15611daf57611daf8787878787612027565b5050505050505050565b3660006104de61242c565b60606000829003611de357505060408051602081019091526000815290565b600082604051602001611df891815260200190565b604080517fffffffffffffffffffffffffffffffffffffffffffffffffffffffffffffffe08184030181529190529050601f5b818181518110611e3d57611e3d612e18565b01602001517fff0000000000000000000000000000000000000000000000000000000000000016600003611e7b57611e7481612ec4565b9050611e2b565b6000611e88826001612e47565b67ffffffffffffffff811115611ea057611ea06128ae565b6040519080825280601f01601f191660200182016040528015611eca576020820181803683370190505b50905060005b828111611f4557838181518110611ee957611ee9612e18565b602001015160f81c60f81b828281518110611f0657611f06612e18565b60200101907effffffffffffffffffffffffffffffffffffffffffffffffffffffffffffff1916908160001a905350611f3e81612ef9565b9050611ed0565b50949350505050565b600082815260018501602052604090205415611fc6576040517f08c379a000000000000000000000000000000000000000000000000000000000815260206004820152601a60248201527f4552433732313a206578697374696e672f6275726e74204e46540000000000006044820152606401610a10565b6000828152600185016020526040902073ffffffffffffffffffffffffffffffffffffffff841690558061061c57505073ffffffffffffffffffffffffffffffffffffffff1660009081526002919091016020526040902080546001019055565b6040517f150b7a02000000000000000000000000000000000000000000000000000000008082529073ffffffffffffffffffffffffffffffffffffffff85169063150b7a0290612081908990899088908890600401612f31565b6020604051808303816000875af11580156120a0573d6000803e3d6000fd5b505050506040513d601f19601f820116820180604052508101906120c49190612f7a565b7fffffffff00000000000000000000000000000000000000000000000000000000161461112d576040517f08c379a000000000000000000000000000000000000000000000000000000000815260206004820152601860248201527f4552433732313a207472616e73666572207265667573656400000000000000006044820152606401610a10565b60003332810361215c57919050565b6000367fffffffffffffffffffffffffffffffffffffffffffffffffffffffffffffffec013560601c90507f000000000000000000000000000000000000000000000000000000000000000073ffffffffffffffffffffffffffffffffffffffff168273ffffffffffffffffffffffffffffffffffffffff16148061229457506040517fe60125d600000000000000000000000000000000000000000000000000000000815273ffffffffffffffffffffffffffffffffffffffff828116600483015283811660248301527f0000000000000000000000000000000000000000000000000000000000000000169063e60125d690604401602060405180830381865afa158015612270573d6000803e3d6000fd5b505050506040513d601f19601f820116820180604052508101906122949190612f97565b1561229f5792915050565b50919050565b600083815260018801602052604090205473ffffffffffffffffffffffffffffffffffffffff86811690821614612338576040517f08c379a000000000000000000000000000000000000000000000000000000000815260206004820152601560248201527f4552433732313a206e6f6e2d6f776e6564204e465400000000000000000000006044820152606401610a10565b826123f1577401000000000000000000000000000000000000000081161580159061238b5750600084815260038901602052604090205473ffffffffffffffffffffffffffffffffffffffff8881169116145b6123f1576040517f08c379a000000000000000000000000000000000000000000000000000000000815260206004820152601b60248201527f4552433732313a206e6f6e2d617070726f7665642073656e64657200000000006044820152606401610a10565b6000848152600189016020526040902073ffffffffffffffffffffffffffffffffffffffff8616905581611daf57611daf88878760016125b0565b3660003332810361244257506000923692509050565b7f000000000000000000000000000000000000000000000000000000000000000073ffffffffffffffffffffffffffffffffffffffff168173ffffffffffffffffffffffffffffffffffffffff16148061258f575073ffffffffffffffffffffffffffffffffffffffff7f00000000000000000000000000000000000000000000000000000000000000001663e60125d6367fffffffffffffffffffffffffffffffffffffffffffffffffffffffffffffffec013560601c6040517fffffffff0000000000000000000000000000000000000000000000000000000060e084901b16815273ffffffffffffffffffffffffffffffffffffffff91821660048201529084166024820152604401602060405180830381865afa15801561256b573d6000803e3d6000fd5b505050506040513d601f19601f8201168201806040525081019061258f9190612f97565b156125a55761259c612625565b92509250509091565b506000923692509050565b8173ffffffffffffffffffffffffffffffffffffffff168373ffffffffffffffffffffffffffffffffffffffff161461061c5773ffffffffffffffffffffffffffffffffffffffff80841660009081526002860160205260408082208054859003905591841681522080548201905550505050565b366000808083612636601482612d48565b926104de93929190612fb4565b82805461264f90612d5f565b90600052602060002090601f01602090048101928261267157600085556126b7565b82601f1061268a57805160ff19168380011785556126b7565b828001600101855582156126b7579182015b828111156126b757825182559160200191906001019061269c565b506126c3929150612759565b5090565b8280546126d390612d5f565b90600052602060002090601f0160209004810192826126f557600085556126b7565b82601f1061272c578280017fffffffffffffffffffffffffffffffffffffffffffffffffffffffffffffff008235161785556126b7565b828001600101855582156126b7579182015b828111156126b757823582559160200191906001019061273e565b5b808211156126c3576000815560010161275a565b7fffffffff00000000000000000000000000000000000000000000000000000000811681146106cd57600080fd5b6000602082840312156127ae57600080fd5b813561073b8161276e565b60005b838110156127d45781810151838201526020016127bc565b8381111561061c5750506000910152565b600081518084526127fd8160208601602086016127b9565b601f017fffffffffffffffffffffffffffffffffffffffffffffffffffffffffffffffe0169290920160200192915050565b60208152600061073b60208301846127e5565b60006020828403121561285457600080fd5b5035919050565b803573ffffffffffffffffffffffffffffffffffffffff8116811461287f57600080fd5b919050565b6000806040838503121561289757600080fd5b6128a08361285b565b946020939093013593505050565b7f4e487b7100000000000000000000000000000000000000000000000000000000600052604160045260246000fd5b600067ffffffffffffffff808411156128f8576128f86128ae565b604051601f85017fffffffffffffffffffffffffffffffffffffffffffffffffffffffffffffffe0908116603f0116810190828211818310171561293e5761293e6128ae565b8160405280935085815286868601111561295757600080fd5b858560208301376000602087830101525050509392505050565b6000806040838503121561298457600080fd5b82359150602083013567ffffffffffffffff8111156129a257600080fd5b8301601f810185136129b357600080fd5b6129c2858235602084016128dd565b9150509250929050565b6000806000606084860312156129e157600080fd5b6129ea8461285b565b92506129f86020850161285b565b9150604084013590509250925092565b60008060408385031215612a1b57600080fd5b82359150612a2b6020840161285b565b90509250929050565b60208152816020820152818360408301376000818301604090810191909152601f9092017fffffffffffffffffffffffffffffffffffffffffffffffffffffffffffffffe0160101919050565b60008083601f840112612a9357600080fd5b50813567ffffffffffffffff811115612aab57600080fd5b6020830191508360208260051b8501011115612ac657600080fd5b9250929050565b600080600060408486031215612ae257600080fd5b612aeb8461285b565b9250602084013567ffffffffffffffff811115612b0757600080fd5b612b1386828701612a81565b9497909650939450505050565b60008060008060408587031215612b3657600080fd5b843567ffffffffffffffff80821115612b4e57600080fd5b612b5a88838901612a81565b90965094506020870135915080821115612b7357600080fd5b50612b8087828801612a81565b95989497509550505050565b600060208284031215612b9e57600080fd5b61073b8261285b565b60008060008060608587031215612bbd57600080fd5b612bc68561285b565b935060208501359250604085013567ffffffffffffffff80821115612bea57600080fd5b818701915087601f830112612bfe57600080fd5b813581811115612c0d57600080fd5b886020828501011115612c1f57600080fd5b95989497505060200194505050565b80151581146106cd57600080fd5b60008060408385031215612c4f57600080fd5b612c588361285b565b91506020830135612c6881612c2e565b809150509250929050565b60008060008060808587031215612c8957600080fd5b612c928561285b565b9350612ca06020860161285b565b925060408501359150606085013567ffffffffffffffff811115612cc357600080fd5b8501601f81018713612cd457600080fd5b612ce3878235602084016128dd565b91505092959194509250565b60008060408385031215612d0257600080fd5b612d0b8361285b565b9150612a2b6020840161285b565b7f4e487b7100000000000000000000000000000000000000000000000000000000600052601160045260246000fd5b600082821015612d5a57612d5a612d19565b500390565b600181811c90821680612d7357607f821691505b60208210810361229f577f4e487b7100000000000000000000000000000000000000000000000000000000600052602260045260246000fd5b7f416363657373436f6e74726f6c3a206d697373696e6720270000000000000000815260008251612de48160188501602087016127b9565b7f2720726f6c6500000000000000000000000000000000000000000000000000006018939091019283015250601e01919050565b7f4e487b7100000000000000000000000000000000000000000000000000000000600052603260045260246000fd5b60008219821115612e5a57612e5a612d19565b500190565b60008083357fffffffffffffffffffffffffffffffffffffffffffffffffffffffffffffffe1843603018112612e9457600080fd5b83018035915067ffffffffffffffff821115612eaf57600080fd5b602001915036819003821315612ac657600080fd5b600081612ed357612ed3612d19565b507fffffffffffffffffffffffffffffffffffffffffffffffffffffffffffffffff0190565b60007fffffffffffffffffffffffffffffffffffffffffffffffffffffffffffffffff8203612f2a57612f2a612d19565b5060010190565b600073ffffffffffffffffffffffffffffffffffffffff808716835280861660208401525083604083015260806060830152612f7060808301846127e5565b9695505050505050565b600060208284031215612f8c57600080fd5b815161073b8161276e565b600060208284031215612fa957600080fd5b815161073b81612c2e565b60008085851115612fc457600080fd5b83861115612fd157600080fd5b505082019391909203915056fea2646970667358221220a4c7b0c834dd9c19de0352e7ada01a9098f4de866516d5798c3653e2bb21a8ba64736f6c634300080e0033",
  "linkReferences": {},
  "deployedLinkReferences": {}
}