{
  "_format": "hh-sol-artifact-1",
  "contractName": "ERC721TokenMetadataMock",
  "sourceName": "contracts/mocks/token/ERC721/ERC721TokenMetadataMock.sol",
  "abi": [
    {
      "inputs": [
        {
          "internalType": "string",
          "name": "name_",
          "type": "string"
        },
        {
          "internalType": "string",
          "name": "symbol_",
          "type": "string"
        },
        {
          "internalType": "contract IForwarderRegistry",
          "name": "forwarderRegistry",
          "type": "address"
        }
      ],
      "stateMutability": "nonpayable",
      "type": "constructor"
    },
    {
      "anonymous": false,
      "inputs": [
        {
          "indexed": true,
          "internalType": "address",
          "name": "owner",
          "type": "address"
        },
        {
          "indexed": true,
          "internalType": "address",
          "name": "approved",
          "type": "address"
        },
        {
          "indexed": true,
          "internalType": "uint256",
          "name": "tokenId",
          "type": "uint256"
        }
      ],
      "name": "Approval",
      "type": "event"
    },
    {
      "anonymous": false,
      "inputs": [
        {
          "indexed": true,
          "internalType": "address",
          "name": "owner",
          "type": "address"
        },
        {
          "indexed": true,
          "internalType": "address",
          "name": "operator",
          "type": "address"
        },
        {
          "indexed": false,
          "internalType": "bool",
          "name": "approved",
          "type": "bool"
        }
      ],
      "name": "ApprovalForAll",
      "type": "event"
    },
    {
      "anonymous": false,
      "inputs": [
        {
          "indexed": true,
          "internalType": "address",
          "name": "previousOwner",
          "type": "address"
        },
        {
          "indexed": true,
          "internalType": "address",
          "name": "newOwner",
          "type": "address"
        }
      ],
      "name": "OwnershipTransferred",
      "type": "event"
    },
    {
      "anonymous": false,
      "inputs": [
        {
          "indexed": false,
          "internalType": "bytes32",
          "name": "role",
          "type": "bytes32"
        },
        {
          "indexed": false,
          "internalType": "address",
          "name": "account",
          "type": "address"
        },
        {
          "indexed": false,
          "internalType": "address",
          "name": "operator",
          "type": "address"
        }
      ],
      "name": "RoleGranted",
      "type": "event"
    },
    {
      "anonymous": false,
      "inputs": [
        {
          "indexed": false,
          "internalType": "bytes32",
          "name": "role",
          "type": "bytes32"
        },
        {
          "indexed": false,
          "internalType": "address",
          "name": "account",
          "type": "address"
        },
        {
          "indexed": false,
          "internalType": "address",
          "name": "operator",
          "type": "address"
        }
      ],
      "name": "RoleRevoked",
      "type": "event"
    },
    {
      "anonymous": false,
      "inputs": [
        {
          "indexed": true,
          "internalType": "address",
          "name": "from",
          "type": "address"
        },
        {
          "indexed": true,
          "internalType": "address",
          "name": "to",
          "type": "address"
        },
        {
          "indexed": true,
          "internalType": "uint256",
          "name": "tokenId",
          "type": "uint256"
        }
      ],
      "name": "Transfer",
      "type": "event"
    },
    {
      "inputs": [],
      "name": "MINTER_ROLE",
      "outputs": [
        {
          "internalType": "bytes32",
          "name": "",
          "type": "bytes32"
        }
      ],
      "stateMutability": "view",
      "type": "function"
    },
    {
      "inputs": [],
      "name": "__msgData",
      "outputs": [
        {
          "internalType": "bytes",
          "name": "",
          "type": "bytes"
        }
      ],
      "stateMutability": "view",
      "type": "function"
    },
    {
      "inputs": [
        {
          "internalType": "address",
          "name": "to",
          "type": "address"
        },
        {
          "internalType": "uint256",
          "name": "tokenId",
          "type": "uint256"
        }
      ],
      "name": "approve",
      "outputs": [],
      "stateMutability": "nonpayable",
      "type": "function"
    },
    {
      "inputs": [
        {
          "internalType": "address",
          "name": "owner",
          "type": "address"
        }
      ],
      "name": "balanceOf",
      "outputs": [
        {
          "internalType": "uint256",
          "name": "",
          "type": "uint256"
        }
      ],
      "stateMutability": "view",
      "type": "function"
    },
    {
      "inputs": [
        {
          "internalType": "address",
          "name": "to",
          "type": "address"
        },
        {
          "internalType": "uint256[]",
          "name": "tokenIds",
          "type": "uint256[]"
        }
      ],
      "name": "batchMint",
      "outputs": [],
      "stateMutability": "nonpayable",
      "type": "function"
    },
    {
      "inputs": [
        {
          "internalType": "uint256[]",
          "name": "tokenIds",
          "type": "uint256[]"
        },
        {
          "internalType": "string[]",
          "name": "tokenURIs",
          "type": "string[]"
        }
      ],
      "name": "batchSetTokenURI",
      "outputs": [],
      "stateMutability": "nonpayable",
      "type": "function"
    },
    {
      "inputs": [
        {
          "internalType": "uint256",
          "name": "tokenId",
          "type": "uint256"
        }
      ],
      "name": "getApproved",
      "outputs": [
        {
          "internalType": "address",
          "name": "operator",
          "type": "address"
        }
      ],
      "stateMutability": "view",
      "type": "function"
    },
    {
      "inputs": [
        {
          "internalType": "bytes32",
          "name": "role",
          "type": "bytes32"
        },
        {
          "internalType": "address",
          "name": "account",
          "type": "address"
        }
      ],
      "name": "grantRole",
      "outputs": [],
      "stateMutability": "nonpayable",
      "type": "function"
    },
    {
      "inputs": [
        {
          "internalType": "bytes32",
          "name": "role",
          "type": "bytes32"
        },
        {
          "internalType": "address",
          "name": "account",
          "type": "address"
        }
      ],
      "name": "hasRole",
      "outputs": [
        {
          "internalType": "bool",
          "name": "",
          "type": "bool"
        }
      ],
      "stateMutability": "view",
      "type": "function"
    },
    {
      "inputs": [
        {
          "internalType": "address",
          "name": "owner",
          "type": "address"
        },
        {
          "internalType": "address",
          "name": "operator",
          "type": "address"
        }
      ],
      "name": "isApprovedForAll",
      "outputs": [
        {
          "internalType": "bool",
          "name": "",
          "type": "bool"
        }
      ],
      "stateMutability": "view",
      "type": "function"
    },
    {
      "inputs": [
        {
          "internalType": "address",
          "name": "to",
          "type": "address"
        },
        {
          "internalType": "uint256",
          "name": "tokenId",
          "type": "uint256"
        }
      ],
      "name": "mint",
      "outputs": [],
      "stateMutability": "nonpayable",
      "type": "function"
    },
    {
      "inputs": [],
      "name": "name",
      "outputs": [
        {
          "internalType": "string",
          "name": "",
          "type": "string"
        }
      ],
      "stateMutability": "view",
      "type": "function"
    },
    {
      "inputs": [],
      "name": "owner",
      "outputs": [
        {
          "internalType": "address",
          "name": "",
          "type": "address"
        }
      ],
      "stateMutability": "view",
      "type": "function"
    },
    {
      "inputs": [
        {
          "internalType": "uint256",
          "name": "tokenId",
          "type": "uint256"
        }
      ],
      "name": "ownerOf",
      "outputs": [
        {
          "internalType": "address",
          "name": "",
          "type": "address"
        }
      ],
      "stateMutability": "view",
      "type": "function"
    },
    {
      "inputs": [
        {
          "internalType": "bytes32",
          "name": "role",
          "type": "bytes32"
        }
      ],
      "name": "renounceRole",
      "outputs": [],
      "stateMutability": "nonpayable",
      "type": "function"
    },
    {
      "inputs": [
        {
          "internalType": "bytes32",
          "name": "role",
          "type": "bytes32"
        },
        {
          "internalType": "address",
          "name": "account",
          "type": "address"
        }
      ],
      "name": "revokeRole",
      "outputs": [],
      "stateMutability": "nonpayable",
      "type": "function"
    },
    {
      "inputs": [
        {
          "internalType": "address",
          "name": "to",
          "type": "address"
        },
        {
          "internalType": "uint256",
          "name": "tokenId",
          "type": "uint256"
        },
        {
          "internalType": "bytes",
          "name": "data",
          "type": "bytes"
        }
      ],
      "name": "safeMint",
      "outputs": [],
      "stateMutability": "nonpayable",
      "type": "function"
    },
    {
      "inputs": [
        {
          "internalType": "address",
          "name": "from",
          "type": "address"
        },
        {
          "internalType": "address",
          "name": "to",
          "type": "address"
        },
        {
          "internalType": "uint256",
          "name": "tokenId",
          "type": "uint256"
        }
      ],
      "name": "safeTransferFrom",
      "outputs": [],
      "stateMutability": "nonpayable",
      "type": "function"
    },
    {
      "inputs": [
        {
          "internalType": "address",
          "name": "from",
          "type": "address"
        },
        {
          "internalType": "address",
          "name": "to",
          "type": "address"
        },
        {
          "internalType": "uint256",
          "name": "tokenId",
          "type": "uint256"
        },
        {
          "internalType": "bytes",
          "name": "_data",
          "type": "bytes"
        }
      ],
      "name": "safeTransferFrom",
      "outputs": [],
      "stateMutability": "nonpayable",
      "type": "function"
    },
    {
      "inputs": [
        {
          "internalType": "address",
          "name": "operator",
          "type": "address"
        },
        {
          "internalType": "bool",
          "name": "_approved",
          "type": "bool"
        }
      ],
      "name": "setApprovalForAll",
      "outputs": [],
      "stateMutability": "nonpayable",
      "type": "function"
    },
    {
      "inputs": [
        {
          "internalType": "uint256",
          "name": "tokenId",
          "type": "uint256"
        },
        {
          "internalType": "string",
          "name": "uri",
          "type": "string"
        }
      ],
      "name": "setTokenURI",
      "outputs": [],
      "stateMutability": "nonpayable",
      "type": "function"
    },
    {
      "inputs": [
        {
          "internalType": "bytes4",
          "name": "interfaceId",
          "type": "bytes4"
        }
      ],
      "name": "supportsInterface",
      "outputs": [
        {
          "internalType": "bool",
          "name": "",
          "type": "bool"
        }
      ],
      "stateMutability": "view",
      "type": "function"
    },
    {
      "inputs": [],
      "name": "symbol",
      "outputs": [
        {
          "internalType": "string",
          "name": "",
          "type": "string"
        }
      ],
      "stateMutability": "view",
      "type": "function"
    },
    {
      "inputs": [
        {
          "internalType": "uint256",
          "name": "tokenId",
          "type": "uint256"
        }
      ],
      "name": "tokenURI",
      "outputs": [
        {
          "internalType": "string",
          "name": "",
          "type": "string"
        }
      ],
      "stateMutability": "view",
      "type": "function"
    },
    {
      "inputs": [
        {
          "internalType": "address",
          "name": "from",
          "type": "address"
        },
        {
          "internalType": "address",
          "name": "to",
          "type": "address"
        },
        {
          "internalType": "uint256",
          "name": "tokenId",
          "type": "uint256"
        }
      ],
      "name": "transferFrom",
      "outputs": [],
      "stateMutability": "nonpayable",
      "type": "function"
    },
    {
      "inputs": [
        {
          "internalType": "address",
          "name": "newOwner",
          "type": "address"
        }
      ],
      "name": "transferOwnership",
      "outputs": [],
      "stateMutability": "nonpayable",
      "type": "function"
    }
  ],
  "bytecode": "0x60a06040523480156200001157600080fd5b506040516200375d3803806200375d833981016040819052620000349162000578565b828282803362000063620000526200013660201b620008431760201c565b6200016c60201b620008711760201c565b62000091816200007d6200019260201b620008a61760201c565b620001c260201b620008d41790919060201c565b50620000ca638e773e1360e01b6001620000b56200024060201b620009861760201c565b6200027060201b620009b4179092919060201c565b6001600160a01b031660805250620001088282620000f3620002fd602090811b62000aa917901c565b6200032d60201b62000ad7179092919060201c565b6200012b635b5e139f60e01b6001620000b56200024060201b620009861760201c565b505050505062000667565b6000806200016660017fddf3ee18ae6d688373c219468f8be446e7ae82215f4779d821c7ea5e8c13c0c162000605565b92915050565b6200018f6380ac58cd60e01b6001620000b56200024060201b620009861760201c565b50565b6000806200016660017fc9ed16f33ab3a66c84bfd83099ccb2a8845871e2e1c1928f63797152f0fd54cd62000605565b6001600160a01b03811615620002195781546001600160a01b0319166001600160a01b03821690811783556040516000907f8be0079c531659141344cd1fd0a4f28419497f9722a3daafe3b4186f6b6457e0908290a35b6200023c6307f5828d60e41b6001620000b56200024060201b620009861760201c565b5050565b6000806200016660017fca9d3e17f264b0f3984e2634e94adb37fa3e6a8103f06aeae6fa59e21c769f5e62000605565b6001600160e01b03198083169003620002cf5760405162461bcd60e51b815260206004820152601f60248201527f496e74657266616365446574656374696f6e3a2077726f6e672076616c756500604482015260640160405180910390fd5b6001600160e01b03199190911660009081526020929092526040909120805460ff1916911515919091179055565b6000806200016660017fcea153e5352e750a7f7d04182593def5961809dc6d3d38bc5f28032d416d02d862000605565b6200035d8282620003486200038560201b62000b191760201c565b620003b560201b62000b47179092919060201c565b62000380635b5e139f60e01b6001620000b56200024060201b620009861760201c565b505050565b6000806200016660017f9c4269c0f9f430d98876ffe9767fbf3f3232ea91a549beb549e5329532520eb362000605565b8151620003c9908490602085019062000405565b508051620003e1906001850190602084019062000405565b5062000380635b5e139f60e01b6001620000b56200024060201b620009861760201c565b82805462000413906200062b565b90600052602060002090601f01602090048101928262000437576000855562000482565b82601f106200045257805160ff191683800117855562000482565b8280016001018555821562000482579182015b828111156200048257825182559160200191906001019062000465565b506200049092915062000494565b5090565b5b8082111562000490576000815560010162000495565b634e487b7160e01b600052604160045260246000fd5b600082601f830112620004d357600080fd5b81516001600160401b0380821115620004f057620004f0620004ab565b604051601f8301601f19908116603f011681019082821181831017156200051b576200051b620004ab565b816040528381526020925086838588010111156200053857600080fd5b600091505b838210156200055c57858201830151818301840152908201906200053d565b838211156200056e5760008385830101525b9695505050505050565b6000806000606084860312156200058e57600080fd5b83516001600160401b0380821115620005a657600080fd5b620005b487838801620004c1565b94506020860151915080821115620005cb57600080fd5b50620005da86828701620004c1565b604086015190935090506001600160a01b0381168114620005fa57600080fd5b809150509250925092565b6000828210156200062657634e487b7160e01b600052601160045260246000fd5b500390565b600181811c908216806200064057607f821691505b6020821081036200066157634e487b7160e01b600052602260045260246000fd5b50919050565b6080516130c5620006986000396000818161223a015281816122da015281816124f5015261255f01526130c56000f3fe608060405234801561001057600080fd5b50600436106101ae5760003560e01c806370a08231116100ee578063a22cb46511610097578063d539139311610071578063d53913931461038e578063d547741f146103b5578063e985e9c5146103c8578063f2fde38b146103db57600080fd5b8063a22cb46514610355578063b88d4fde14610368578063c87b56dd1461037b57600080fd5b80638da5cb5b116100c85780638da5cb5b1461033257806391d148541461033a57806395d89b411461034d57600080fd5b806370a08231146102eb5780638832e6e31461030c5780638bb9c5bf1461031f57600080fd5b80632f2ff15d1161015b57806342842e0e1161013557806342842e0e1461029f5780634684d7e9146102b25780636352211e146102c55780636706467b146102d857600080fd5b80632f2ff15d1461026357806331e66e1e1461027657806340c10f191461028c57600080fd5b8063095ea7b31161018c578063095ea7b314610228578063162094c41461023d57806323b872dd1461025057600080fd5b806301ffc9a7146101b357806306fdde03146101db578063081812fc146101f0575b600080fd5b6101c66101c136600461284d565b6103ee565b60405190151581526020015b60405180910390f35b6101e3610408565b6040516101d291906128e0565b6102036101fe3660046128f3565b61041f565b60405173ffffffffffffffffffffffffffffffffffffffff90911681526020016101d2565b61023b610236366004612935565b610433565b005b61023b61024b366004612a22565b610454565b61023b61025e366004612a7d565b610481565b61023b610271366004612ab9565b6104a5565b61027e6104d3565b6040516101d2929190612ae5565b61023b61029a366004612935565b6104e6565b61023b6102ad366004612a7d565b610552565b61023b6102c0366004612b7e565b610571565b6102036102d33660046128f3565b6105e5565b61023b6102e6366004612bd1565b6105f9565b6102fe6102f9366004612c3d565b610622565b6040519081526020016101d2565b61023b61031a366004612c58565b610636565b61023b61032d3660046128f3565b6106b2565b6102036106d0565b6101c6610348366004612ab9565b6106f7565b6101e3610742565b61023b610363366004612ced565b610754565b61023b610376366004612d24565b610771565b6101e36103893660046128f3565b610792565b6102fe7f6d696e746572000000000000000000000000000000000000000000000000000081565b61023b6103c3366004612ab9565b6107b3565b6101c66103d6366004612da0565b6107e1565b61023b6103e9366004612c3d565b610828565b6000610402826103fc610986565b90610b9e565b92915050565b606061041a610415610b19565b610c5c565b905090565b60006104028261042d610843565b90610cf2565b61045061043e610dd5565b8383610448610843565b929190610ddf565b5050565b61046d61045f610dd5565b6104676108a6565b9061109b565b610450828261047a610aa9565b919061111e565b6104a061048c610dd5565b848484610497610843565b9392919061113b565b505050565b60006104af610dd5565b90506104bd816104676108a6565b6104a08383836104cb611161565b92919061118f565b3660006104de611265565b915091509091565b6105217f6d696e7465720000000000000000000000000000000000000000000000000000610512610dd5565b61051a611161565b9190611270565b61045061052c610dd5565b8383604051806020016040528060008152506000610548610843565b949392919061131c565b6104a061055d610dd5565b848484610568610843565b93929190611429565b61059d7f6d696e7465720000000000000000000000000000000000000000000000000000610512610dd5565b6104a0838383808060200260200160405190810160405280939291908181526020018383602002808284376000920191909152506105de9250610843915050565b9190611448565b6000610402826105f3610843565b9061158d565b61060461045f610dd5565b61061c84848484610613610aa9565b9392919061161b565b50505050565b600061040282610630610843565b906116fc565b6106627f6d696e7465720000000000000000000000000000000000000000000000000000610512610dd5565b61061c61066d610dd5565b858585858080601f0160208091040260200160405190810160405280939291908181526020018383808284376000920191909152506001925061054891506108439050565b6106cd6106bd610dd5565b826106c6611161565b91906117a8565b50565b600061041a6106dd6108a6565b5473ffffffffffffffffffffffffffffffffffffffff1690565b600061073b8383610706611161565b60009283526020908152604080842073ffffffffffffffffffffffffffffffffffffffff909316845291905290205460ff1690565b9392505050565b606061041a61074f610b19565b61184c565b61045061075f610dd5565b8383610769610843565b92919061185d565b61061c61077c610dd5565b85858585610788610843565b9493929190611989565b60606107a0826105f3610843565b50610402826107ad610aa9565b90611999565b60006107bd610dd5565b90506107cb816104676108a6565b6104a08383836107d9611161565b929190611ac0565b600061073b83836107f0610843565b73ffffffffffffffffffffffffffffffffffffffff928316600090815260209182526040808220939094168152919052205460ff1690565b6106cd610833610dd5565b8261083c6108a6565b9190611b8a565b60008061040260017fddf3ee18ae6d688373c219468f8be446e7ae82215f4779d821c7ea5e8c13c0c1612df9565b6106cd7f80ac58cd00000000000000000000000000000000000000000000000000000000600161089f610986565b91906109b4565b60008061040260017fc9ed16f33ab3a66c84bfd83099ccb2a8845871e2e1c1928f63797152f0fd54cd612df9565b73ffffffffffffffffffffffffffffffffffffffff81161561095c5781547fffffffffffffffffffffffff00000000000000000000000000000000000000001673ffffffffffffffffffffffffffffffffffffffff821690811783556040516000907f8be0079c531659141344cd1fd0a4f28419497f9722a3daafe3b4186f6b6457e0908290a35b6104507f7f5828d000000000000000000000000000000000000000000000000000000000600161089f5b60008061040260017fca9d3e17f264b0f3984e2634e94adb37fa3e6a8103f06aeae6fa59e21c769f5e612df9565b7fffffffff000000000000000000000000000000000000000000000000000000008083169003610a45576040517f08c379a000000000000000000000000000000000000000000000000000000000815260206004820152601f60248201527f496e74657266616365446574656374696f6e3a2077726f6e672076616c75650060448201526064015b60405180910390fd5b7fffffffff00000000000000000000000000000000000000000000000000000000919091166000908152602092909252604090912080547fffffffffffffffffffffffffffffffffffffffffffffffffffffffffffffff0016911515919091179055565b60008061040260017fcea153e5352e750a7f7d04182593def5961809dc6d3d38bc5f28032d416d02d8612df9565b610aeb8282610ae4610b19565b9190610b47565b6104a07f5b5e139f00000000000000000000000000000000000000000000000000000000600161089f610986565b60008061040260017f9c4269c0f9f430d98876ffe9767fbf3f3232ea91a549beb549e5329532520eb3612df9565b8151610b5990849060208501906126f4565b508051610b6f90600185019060208401906126f4565b506104a07f5b5e139f00000000000000000000000000000000000000000000000000000000600161089f610986565b60007fffffffff000000000000000000000000000000000000000000000000000000008083169003610bd257506000610402565b7ffe003659000000000000000000000000000000000000000000000000000000007fffffffff00000000000000000000000000000000000000000000000000000000831601610c2357506001610402565b507fffffffff00000000000000000000000000000000000000000000000000000000166000908152602091909152604090205460ff1690565b6060816000018054610c6d90612e10565b80601f0160208091040260200160405190810160405280929190818152602001828054610c9990612e10565b8015610ce65780601f10610cbb57610100808354040283529160200191610ce6565b820191906000526020600020905b815481529060010190602001808311610cc957829003601f168201915b50505050509050919050565b600081815260018301602052604081205473ffffffffffffffffffffffffffffffffffffffff8116610d80576040517f08c379a000000000000000000000000000000000000000000000000000000000815260206004820152601860248201527f4552433732313a206e6f6e2d6578697374696e67204e465400000000000000006044820152606401610a3c565b74010000000000000000000000000000000000000000811615610dcb575050600081815260038301602052604090205473ffffffffffffffffffffffffffffffffffffffff16610402565b6000915050610402565b600061041a611cb6565b600081815260018501602052604081205490819003610e5a576040517f08c379a000000000000000000000000000000000000000000000000000000000815260206004820152601860248201527f4552433732313a206e6f6e2d6578697374696e67204e465400000000000000006044820152606401610a3c565b8073ffffffffffffffffffffffffffffffffffffffff80821690851603610edd576040517f08c379a000000000000000000000000000000000000000000000000000000000815260206004820152601560248201527f4552433732313a2073656c662d617070726f76616c00000000000000000000006044820152606401610a3c565b610ee8868287611cc0565b610f4e576040517f08c379a000000000000000000000000000000000000000000000000000000000815260206004820152601b60248201527f4552433732313a206e6f6e2d617070726f7665642073656e64657200000000006044820152606401610a3c565b73ffffffffffffffffffffffffffffffffffffffff8416610fb55774010000000000000000000000000000000000000000821615610fb0576000838152600187016020526040902073ffffffffffffffffffffffffffffffffffffffff821690555b611038565b740100000000000000000000000000000000000000008217808314610fe857600084815260018801602052604090208190555b506000838152600387016020526040902080547fffffffffffffffffffffffff00000000000000000000000000000000000000001673ffffffffffffffffffffffffffffffffffffffff86161790555b828473ffffffffffffffffffffffffffffffffffffffff168273ffffffffffffffffffffffffffffffffffffffff167f8c5be1e5ebec7d5bd14f71427d1e84f3dd0314c0f7b2291e5b200ac8c7c3b92560405160405180910390a4505050505050565b815473ffffffffffffffffffffffffffffffffffffffff828116911614610450576040517f08c379a000000000000000000000000000000000000000000000000000000000815260206004820152601860248201527f4f776e6572736869703a206e6f7420746865206f776e657200000000000000006044820152606401610a3c565b600082815260208481526040909120825161061c928401906126f4565b61115a8585858585604051806020016040528060008152506000611d34565b5050505050565b60008061040260017fc8827d3282af6f37b64c3e9e6f3ac9df286ab0bb0fccd6f8661bf19adb368b23612df9565b60008381526020858152604080832073ffffffffffffffffffffffffffffffffffffffff8616845290915290205460ff1661061c5760008381526020858152604080832073ffffffffffffffffffffffffffffffffffffffff8681168086529184529382902080547fffffffffffffffffffffffffffffffffffffffffffffffffffffffffffffff00166001179055815187815292830152918316918101919091527f2f8788117e7eff1d82e926ec794901d17c78024a50270940304540a733656f0d906060015b60405180910390a150505050565b3660006104de611e6a565b60008281526020848152604080832073ffffffffffffffffffffffffffffffffffffffff8516845290915290205460ff166104a0576112ae82611e75565b6040516020016112be9190612e5d565b604080517fffffffffffffffffffffffffffffffffffffffffffffffffffffffffffffffe0818403018152908290527f08c379a0000000000000000000000000000000000000000000000000000000008252610a3c916004016128e0565b73ffffffffffffffffffffffffffffffffffffffff8416611399576040517f08c379a000000000000000000000000000000000000000000000000000000000815260206004820152601460248201527f4552433732313a206d696e7420746f207a65726f0000000000000000000000006044820152606401610a3c565b6113a68685856000611fff565b604051839073ffffffffffffffffffffffffffffffffffffffff8616906000907fddf252ad1be2c89b69c2b068fc378daa952ba7f163c4a11628f55a4df523b3ef908290a480801561140e575073ffffffffffffffffffffffffffffffffffffffff84163b15155b15611421576114218560008686866120d8565b505050505050565b61115a8585858585604051806020016040528060008152506001611d34565b73ffffffffffffffffffffffffffffffffffffffff82166114c5576040517f08c379a000000000000000000000000000000000000000000000000000000000815260206004820152601460248201527f4552433732313a206d696e7420746f207a65726f0000000000000000000000006044820152606401610a3c565b805160005b81811461154a5760008382815181106114e5576114e5612ec9565b602002602001015190506114fc8686836001611fff565b604051819073ffffffffffffffffffffffffffffffffffffffff8716906000907fddf252ad1be2c89b69c2b068fc378daa952ba7f163c4a11628f55a4df523b3ef908290a4506001016114ca565b5073ffffffffffffffffffffffffffffffffffffffff8316600090815260028501602052604081208054839290611582908490612ef8565b909155505050505050565b600081815260018301602052604081205473ffffffffffffffffffffffffffffffffffffffff811661073b576040517f08c379a000000000000000000000000000000000000000000000000000000000815260206004820152601860248201527f4552433732313a206e6f6e2d6578697374696e67204e465400000000000000006044820152606401610a3c565b828114611684576040517f08c379a000000000000000000000000000000000000000000000000000000000815260206004820152601b60248201527f4552433732313a20696e636f6e73697374656e742061727261797300000000006044820152606401610a3c565b60005b60ff81168411156114215782828260ff168181106116a7576116a7612ec9565b90506020028101906116b99190612f10565b876000888860ff87168181106116d1576116d1612ec9565b90506020020135815260200190815260200160002091906116f3929190612778565b50600101611687565b600073ffffffffffffffffffffffffffffffffffffffff821661177b576040517f08c379a000000000000000000000000000000000000000000000000000000000815260206004820152601460248201527f4552433732313a207a65726f20616464726573730000000000000000000000006044820152606401610a3c565b5073ffffffffffffffffffffffffffffffffffffffff166000908152600291909101602052604090205490565b6117b3838284611270565b60008181526020848152604080832073ffffffffffffffffffffffffffffffffffffffff86168085529083529281902080547fffffffffffffffffffffffffffffffffffffffffffffffffffffffffffffff0016905580518481529182018390528101919091527ff6391f5c32d9c69d2a47ea670b442974b53935d1edc7fd64eb21e047a839171b9060600160405180910390a1505050565b6060816001018054610c6d90612e10565b8273ffffffffffffffffffffffffffffffffffffffff168273ffffffffffffffffffffffffffffffffffffffff16036118f2576040517f08c379a000000000000000000000000000000000000000000000000000000000815260206004820152601560248201527f4552433732313a2073656c662d617070726f76616c00000000000000000000006044820152606401610a3c565b73ffffffffffffffffffffffffffffffffffffffff8381166000818152602087815260408083209487168084529482529182902080547fffffffffffffffffffffffffffffffffffffffffffffffffffffffffffffff001686151590811790915591519182527f17307eab39ab6107e8899845ad3d59bd9653f200f220920489ca2b5937696c31910160405180910390a350505050565b6114218686868686866001611d34565b60008181526020839052604090208054606091906119b690612e10565b9050600003611a21576040517f08c379a000000000000000000000000000000000000000000000000000000000815260206004820152601860248201527f4552433732313a206e6f6e2d6578697374696e67204e465400000000000000006044820152606401610a3c565b60008281526020849052604090208054611a3a90612e10565b80601f0160208091040260200160405190810160405280929190818152602001828054611a6690612e10565b8015611ab35780601f10611a8857610100808354040283529160200191611ab3565b820191906000526020600020905b815481529060010190602001808311611a9657829003601f168201915b5050505050905092915050565b60008381526020858152604080832073ffffffffffffffffffffffffffffffffffffffff8616845290915290205460ff161561061c5760008381526020858152604080832073ffffffffffffffffffffffffffffffffffffffff8681168086529184529382902080547fffffffffffffffffffffffffffffffffffffffffffffffffffffffffffffff00169055815187815292830152918316918101919091527ff6391f5c32d9c69d2a47ea670b442974b53935d1edc7fd64eb21e047a839171b90606001611257565b825473ffffffffffffffffffffffffffffffffffffffff9081169083168114611c0f576040517f08c379a000000000000000000000000000000000000000000000000000000000815260206004820152601860248201527f4f776e6572736869703a206e6f7420746865206f776e657200000000000000006044820152606401610a3c565b8173ffffffffffffffffffffffffffffffffffffffff168173ffffffffffffffffffffffffffffffffffffffff161461061c5783547fffffffffffffffffffffffff00000000000000000000000000000000000000001673ffffffffffffffffffffffffffffffffffffffff8381169182178655604051908316907f8be0079c531659141344cd1fd0a4f28419497f9722a3daafe3b4186f6b6457e090600090a350505050565b600061041a6121fe565b60008173ffffffffffffffffffffffffffffffffffffffff168373ffffffffffffffffffffffffffffffffffffffff161480611d2c575073ffffffffffffffffffffffffffffffffffffffff8084166000908152602086815260408083209386168352929052205460ff165b949350505050565b73ffffffffffffffffffffffffffffffffffffffff8416611db1576040517f08c379a000000000000000000000000000000000000000000000000000000000815260206004820152601860248201527f4552433732313a207472616e7366657220746f207a65726f00000000000000006044820152606401610a3c565b6000611dbe888789611cc0565b9050611dd08888888888866000612356565b838573ffffffffffffffffffffffffffffffffffffffff168773ffffffffffffffffffffffffffffffffffffffff167fddf252ad1be2c89b69c2b068fc378daa952ba7f163c4a11628f55a4df523b3ef60405160405180910390a4818015611e4e575073ffffffffffffffffffffffffffffffffffffffff85163b15155b15611e6057611e6087878787876120d8565b5050505050505050565b3660006104de6124dd565b60606000829003611e9457505060408051602081019091526000815290565b600082604051602001611ea991815260200190565b604080517fffffffffffffffffffffffffffffffffffffffffffffffffffffffffffffffe08184030181529190529050601f5b818181518110611eee57611eee612ec9565b01602001517fff0000000000000000000000000000000000000000000000000000000000000016600003611f2c57611f2581612f75565b9050611edc565b6000611f39826001612ef8565b67ffffffffffffffff811115611f5157611f5161295f565b6040519080825280601f01601f191660200182016040528015611f7b576020820181803683370190505b50905060005b828111611ff657838181518110611f9a57611f9a612ec9565b602001015160f81c60f81b828281518110611fb757611fb7612ec9565b60200101907effffffffffffffffffffffffffffffffffffffffffffffffffffffffffffff1916908160001a905350611fef81612faa565b9050611f81565b50949350505050565b600082815260018501602052604090205415612077576040517f08c379a000000000000000000000000000000000000000000000000000000000815260206004820152601a60248201527f4552433732313a206578697374696e672f6275726e74204e46540000000000006044820152606401610a3c565b6000828152600185016020526040902073ffffffffffffffffffffffffffffffffffffffff841690558061061c57505073ffffffffffffffffffffffffffffffffffffffff1660009081526002919091016020526040902080546001019055565b6040517f150b7a02000000000000000000000000000000000000000000000000000000008082529073ffffffffffffffffffffffffffffffffffffffff85169063150b7a0290612132908990899088908890600401612fe2565b6020604051808303816000875af1158015612151573d6000803e3d6000fd5b505050506040513d601f19601f82011682018060405250810190612175919061302b565b7fffffffff00000000000000000000000000000000000000000000000000000000161461115a576040517f08c379a000000000000000000000000000000000000000000000000000000000815260206004820152601860248201527f4552433732313a207472616e73666572207265667573656400000000000000006044820152606401610a3c565b60003332810361220d57919050565b6000367fffffffffffffffffffffffffffffffffffffffffffffffffffffffffffffffec013560601c90507f000000000000000000000000000000000000000000000000000000000000000073ffffffffffffffffffffffffffffffffffffffff168273ffffffffffffffffffffffffffffffffffffffff16148061234557506040517fe60125d600000000000000000000000000000000000000000000000000000000815273ffffffffffffffffffffffffffffffffffffffff828116600483015283811660248301527f0000000000000000000000000000000000000000000000000000000000000000169063e60125d690604401602060405180830381865afa158015612321573d6000803e3d6000fd5b505050506040513d601f19601f820116820180604052508101906123459190613048565b156123505792915050565b50919050565b600083815260018801602052604090205473ffffffffffffffffffffffffffffffffffffffff868116908216146123e9576040517f08c379a000000000000000000000000000000000000000000000000000000000815260206004820152601560248201527f4552433732313a206e6f6e2d6f776e6564204e465400000000000000000000006044820152606401610a3c565b826124a2577401000000000000000000000000000000000000000081161580159061243c5750600084815260038901602052604090205473ffffffffffffffffffffffffffffffffffffffff8881169116145b6124a2576040517f08c379a000000000000000000000000000000000000000000000000000000000815260206004820152601b60248201527f4552433732313a206e6f6e2d617070726f7665642073656e64657200000000006044820152606401610a3c565b6000848152600189016020526040902073ffffffffffffffffffffffffffffffffffffffff8616905581611e6057611e608887876001612661565b366000333281036124f357506000923692509050565b7f000000000000000000000000000000000000000000000000000000000000000073ffffffffffffffffffffffffffffffffffffffff168173ffffffffffffffffffffffffffffffffffffffff161480612640575073ffffffffffffffffffffffffffffffffffffffff7f00000000000000000000000000000000000000000000000000000000000000001663e60125d6367fffffffffffffffffffffffffffffffffffffffffffffffffffffffffffffffec013560601c6040517fffffffff0000000000000000000000000000000000000000000000000000000060e084901b16815273ffffffffffffffffffffffffffffffffffffffff91821660048201529084166024820152604401602060405180830381865afa15801561261c573d6000803e3d6000fd5b505050506040513d601f19601f820116820180604052508101906126409190613048565b156126565761264d6126d6565b92509250509091565b506000923692509050565b8173ffffffffffffffffffffffffffffffffffffffff168373ffffffffffffffffffffffffffffffffffffffff161461061c5773ffffffffffffffffffffffffffffffffffffffff80841660009081526002860160205260408082208054859003905591841681522080548201905550505050565b3660008080836126e7601482612df9565b926104de93929190613065565b82805461270090612e10565b90600052602060002090601f0160209004810192826127225760008555612768565b82601f1061273b57805160ff1916838001178555612768565b82800160010185558215612768579182015b8281111561276857825182559160200191906001019061274d565b5061277492915061280a565b5090565b82805461278490612e10565b90600052602060002090601f0160209004810192826127a65760008555612768565b82601f106127dd578280017fffffffffffffffffffffffffffffffffffffffffffffffffffffffffffffff00823516178555612768565b82800160010185558215612768579182015b828111156127685782358255916020019190600101906127ef565b5b80821115612774576000815560010161280b565b7fffffffff00000000000000000000000000000000000000000000000000000000811681146106cd57600080fd5b60006020828403121561285f57600080fd5b813561073b8161281f565b60005b8381101561288557818101518382015260200161286d565b8381111561061c5750506000910152565b600081518084526128ae81602086016020860161286a565b601f017fffffffffffffffffffffffffffffffffffffffffffffffffffffffffffffffe0169290920160200192915050565b60208152600061073b6020830184612896565b60006020828403121561290557600080fd5b5035919050565b803573ffffffffffffffffffffffffffffffffffffffff8116811461293057600080fd5b919050565b6000806040838503121561294857600080fd5b6129518361290c565b946020939093013593505050565b7f4e487b7100000000000000000000000000000000000000000000000000000000600052604160045260246000fd5b600067ffffffffffffffff808411156129a9576129a961295f565b604051601f85017fffffffffffffffffffffffffffffffffffffffffffffffffffffffffffffffe0908116603f011681019082821181831017156129ef576129ef61295f565b81604052809350858152868686011115612a0857600080fd5b858560208301376000602087830101525050509392505050565b60008060408385031215612a3557600080fd5b82359150602083013567ffffffffffffffff811115612a5357600080fd5b8301601f81018513612a6457600080fd5b612a738582356020840161298e565b9150509250929050565b600080600060608486031215612a9257600080fd5b612a9b8461290c565b9250612aa96020850161290c565b9150604084013590509250925092565b60008060408385031215612acc57600080fd5b82359150612adc6020840161290c565b90509250929050565b60208152816020820152818360408301376000818301604090810191909152601f9092017fffffffffffffffffffffffffffffffffffffffffffffffffffffffffffffffe0160101919050565b60008083601f840112612b4457600080fd5b50813567ffffffffffffffff811115612b5c57600080fd5b6020830191508360208260051b8501011115612b7757600080fd5b9250929050565b600080600060408486031215612b9357600080fd5b612b9c8461290c565b9250602084013567ffffffffffffffff811115612bb857600080fd5b612bc486828701612b32565b9497909650939450505050565b60008060008060408587031215612be757600080fd5b843567ffffffffffffffff80821115612bff57600080fd5b612c0b88838901612b32565b90965094506020870135915080821115612c2457600080fd5b50612c3187828801612b32565b95989497509550505050565b600060208284031215612c4f57600080fd5b61073b8261290c565b60008060008060608587031215612c6e57600080fd5b612c778561290c565b935060208501359250604085013567ffffffffffffffff80821115612c9b57600080fd5b818701915087601f830112612caf57600080fd5b813581811115612cbe57600080fd5b886020828501011115612cd057600080fd5b95989497505060200194505050565b80151581146106cd57600080fd5b60008060408385031215612d0057600080fd5b612d098361290c565b91506020830135612d1981612cdf565b809150509250929050565b60008060008060808587031215612d3a57600080fd5b612d438561290c565b9350612d516020860161290c565b925060408501359150606085013567ffffffffffffffff811115612d7457600080fd5b8501601f81018713612d8557600080fd5b612d948782356020840161298e565b91505092959194509250565b60008060408385031215612db357600080fd5b612dbc8361290c565b9150612adc6020840161290c565b7f4e487b7100000000000000000000000000000000000000000000000000000000600052601160045260246000fd5b600082821015612e0b57612e0b612dca565b500390565b600181811c90821680612e2457607f821691505b602082108103612350577f4e487b7100000000000000000000000000000000000000000000000000000000600052602260045260246000fd5b7f416363657373436f6e74726f6c3a206d697373696e6720270000000000000000815260008251612e9581601885016020870161286a565b7f2720726f6c6500000000000000000000000000000000000000000000000000006018939091019283015250601e01919050565b7f4e487b7100000000000000000000000000000000000000000000000000000000600052603260045260246000fd5b60008219821115612f0b57612f0b612dca565b500190565b60008083357fffffffffffffffffffffffffffffffffffffffffffffffffffffffffffffffe1843603018112612f4557600080fd5b83018035915067ffffffffffffffff821115612f6057600080fd5b602001915036819003821315612b7757600080fd5b600081612f8457612f84612dca565b507fffffffffffffffffffffffffffffffffffffffffffffffffffffffffffffffff0190565b60007fffffffffffffffffffffffffffffffffffffffffffffffffffffffffffffffff8203612fdb57612fdb612dca565b5060010190565b600073ffffffffffffffffffffffffffffffffffffffff8087168352808616602084015250836040830152608060608301526130216080830184612896565b9695505050505050565b60006020828403121561303d57600080fd5b815161073b8161281f565b60006020828403121561305a57600080fd5b815161073b81612cdf565b6000808585111561307557600080fd5b8386111561308257600080fd5b505082019391909203915056fea2646970667358221220e1bac0e20dd9829e04304db64535e83ef93ad331af215df75019701f0544e94764736f6c634300080e0033",
  "linkReferences": {},
  "deployedLinkReferences": {}
}