{
  "_format": "hh-sol-artifact-1",
  "contractName": "TokenMetadataResolverWithBaseURI",
  "sourceName": "contracts/token/metadata/TokenMetadataResolverWithBaseURI.sol",
  "abi": [
    {
      "inputs": [
        {
          "internalType": "address",
          "name": "tokenContract",
          "type": "address"
        },
        {
          "internalType": "address",
          "name": "account",
          "type": "address"
        }
      ],
      "name": "NotTargetContractOwner",
      "type": "error"
    },
    {
      "anonymous": false,
      "inputs": [
        {
          "indexed": false,
          "internalType": "address",
          "name": "tokenContract",
          "type": "address"
        },
        {
          "indexed": false,
          "internalType": "string",
          "name": "baseMetadataURI",
          "type": "string"
        }
      ],
      "name": "BaseMetadataURISet",
      "type": "event"
    },
    {
      "inputs": [
        {
          "internalType": "address",
          "name": "",
          "type": "address"
        }
      ],
      "name": "baseMetadataURI",
      "outputs": [
        {
          "internalType": "string",
          "name": "",
          "type": "string"
        }
      ],
      "stateMutability": "view",
      "type": "function"
    },
    {
      "inputs": [
        {
          "internalType": "address",
          "name": "tokenContract",
          "type": "address"
        },
        {
          "internalType": "string",
          "name": "baseURI",
          "type": "string"
        }
      ],
      "name": "setBaseMetadataURI",
      "outputs": [],
      "stateMutability": "nonpayable",
      "type": "function"
    },
    {
      "inputs": [
        {
          "internalType": "address",
          "name": "tokenContract",
          "type": "address"
        },
        {
          "internalType": "uint256",
          "name": "tokenId",
          "type": "uint256"
        }
      ],
      "name": "tokenMetadataURI",
      "outputs": [
        {
          "internalType": "string",
          "name": "tokenURI",
          "type": "string"
        }
      ],
      "stateMutability": "view",
      "type": "function"
    }
  ],
  "bytecode": "0x608060405234801561001057600080fd5b50610987806100206000396000f3fe608060405234801561001057600080fd5b50600436106100415760003560e01c80633fb0a0db146100465780636169966a1461006f578063f724dad714610084575b600080fd5b6100596100543660046104ef565b610097565b6040516100669190610537565b60405180910390f35b61008261007d366004610588565b610131565b005b61005961009236600461060d565b6101c2565b600060208190529081526040902080546100b090610639565b80601f01602080910402602001604051908101604052809291908181526020018280546100dc90610639565b80156101295780601f106100fe57610100808354040283529160200191610129565b820191906000526020600020905b81548152906001019060200180831161010c57829003601f168201915b505050505081565b61015173ffffffffffffffffffffffffffffffffffffffff84163361021b565b73ffffffffffffffffffffffffffffffffffffffff8316600090815260208190526040902061018182848361070a565b507f88abd97025db503bd9cbc01e09174912e82e0973d1b96c37a3d25d4f7e20f7a38383836040516101b593929190610825565b60405180910390a1505050565b73ffffffffffffffffffffffffffffffffffffffff821660009081526020819052604090206060906101f383610283565b60405160200161020492919061088f565b604051602081830303815290604052905092915050565b6102258282610341565b61027f576040517f29b9b08b00000000000000000000000000000000000000000000000000000000815273ffffffffffffffffffffffffffffffffffffffff80841660048301528216602482015260440160405180910390fd5b5050565b60606000610290836103e7565b600101905060008167ffffffffffffffff8111156102b0576102b061068c565b6040519080825280601f01601f1916602001820160405280156102da576020820181803683370190505b5090508181016020015b7fffffffffffffffffffffffffffffffffffffffffffffffffffffffffffffffff017f3031323334353637383961626364656600000000000000000000000000000000600a86061a8153600a85049450846102e457509392505050565b60008173ffffffffffffffffffffffffffffffffffffffff168373ffffffffffffffffffffffffffffffffffffffff16638da5cb5b6040518163ffffffff1660e01b8152600401602060405180830381865afa1580156103a5573d6000803e3d6000fd5b505050506040513d601f19601f820116820180604052508101906103c99190610934565b73ffffffffffffffffffffffffffffffffffffffff16149392505050565b6000807a184f03e93ff9f4daa797ed6e38ed64bf6a1f0100000000000000008310610430577a184f03e93ff9f4daa797ed6e38ed64bf6a1f010000000000000000830492506040015b6d04ee2d6d415b85acef8100000000831061045c576d04ee2d6d415b85acef8100000000830492506020015b662386f26fc10000831061047a57662386f26fc10000830492506010015b6305f5e1008310610492576305f5e100830492506008015b61271083106104a657612710830492506004015b606483106104b8576064830492506002015b600a83106104c4576001015b92915050565b73ffffffffffffffffffffffffffffffffffffffff811681146104ec57600080fd5b50565b60006020828403121561050157600080fd5b813561050c816104ca565b9392505050565b60005b8381101561052e578181015183820152602001610516565b50506000910152565b6020815260008251806020840152610556816040850160208701610513565b601f017fffffffffffffffffffffffffffffffffffffffffffffffffffffffffffffffe0169190910160400192915050565b60008060006040848603121561059d57600080fd5b83356105a8816104ca565b9250602084013567ffffffffffffffff808211156105c557600080fd5b818601915086601f8301126105d957600080fd5b8135818111156105e857600080fd5b8760208285010111156105fa57600080fd5b6020830194508093505050509250925092565b6000806040838503121561062057600080fd5b823561062b816104ca565b946020939093013593505050565b600181811c9082168061064d57607f821691505b602082108103610686577f4e487b7100000000000000000000000000000000000000000000000000000000600052602260045260246000fd5b50919050565b7f4e487b7100000000000000000000000000000000000000000000000000000000600052604160045260246000fd5b601f82111561070557600081815260208120601f850160051c810160208610156106e25750805b601f850160051c820191505b81811015610701578281556001016106ee565b5050505b505050565b67ffffffffffffffff8311156107225761072261068c565b610736836107308354610639565b836106bb565b6000601f84116001811461078857600085156107525750838201355b7fffffffffffffffffffffffffffffffffffffffffffffffffffffffffffffffff600387901b1c1916600186901b17835561081e565b6000838152602090207fffffffffffffffffffffffffffffffffffffffffffffffffffffffffffffffe0861690835b828110156107d757868501358255602094850194600190920191016107b7565b5086821015610812577fffffffffffffffffffffffffffffffffffffffffffffffffffffffffffffffff60f88860031b161c19848701351681555b505060018560011b0183555b5050505050565b73ffffffffffffffffffffffffffffffffffffffff8416815260406020820152816040820152818360608301376000818301606090810191909152601f9092017fffffffffffffffffffffffffffffffffffffffffffffffffffffffffffffffe016010192915050565b600080845461089d81610639565b600182811680156108b557600181146108e857610917565b7fffffffffffffffffffffffffffffffffffffffffffffffffffffffffffffff0084168752821515830287019450610917565b8860005260208060002060005b8581101561090e5781548a8201529084019082016108f5565b50505082870194505b50505050835161092b818360208801610513565b01949350505050565b60006020828403121561094657600080fd5b815161050c816104ca56fea2646970667358221220bb71262bdbbfc8299235f91c524edbe6927eb15858fbcb30f1f12530d0f4f57764736f6c63430008130033",
  "linkReferences": {},
  "deployedLinkReferences": {}
}