{
  "_format": "hh-sol-artifact-1",
  "contractName": "ERC20BurnableMock",
  "sourceName": "contracts/mocks/token/ERC20/ERC20BurnableMock.sol",
  "abi": [
    {
      "inputs": [
        {
          "internalType": "address[]",
          "name": "holders",
          "type": "address[]"
        },
        {
          "internalType": "uint256[]",
          "name": "allocations",
          "type": "uint256[]"
        },
        {
          "internalType": "string",
          "name": "tokenName",
          "type": "string"
        },
        {
          "internalType": "string",
          "name": "tokenSymbol",
          "type": "string"
        },
        {
          "internalType": "uint8",
          "name": "tokenDecimals",
          "type": "uint8"
        },
        {
          "internalType": "string",
          "name": "uri",
          "type": "string"
        },
        {
          "internalType": "contract IForwarderRegistry",
          "name": "forwarderRegistry",
          "type": "address"
        }
      ],
      "stateMutability": "nonpayable",
      "type": "constructor"
    },
    {
      "anonymous": false,
      "inputs": [
        {
          "indexed": true,
          "internalType": "address",
          "name": "owner",
          "type": "address"
        },
        {
          "indexed": true,
          "internalType": "address",
          "name": "spender",
          "type": "address"
        },
        {
          "indexed": false,
          "internalType": "uint256",
          "name": "value",
          "type": "uint256"
        }
      ],
      "name": "Approval",
      "type": "event"
    },
    {
      "anonymous": false,
      "inputs": [
        {
          "indexed": true,
          "internalType": "address",
          "name": "previousOwner",
          "type": "address"
        },
        {
          "indexed": true,
          "internalType": "address",
          "name": "newOwner",
          "type": "address"
        }
      ],
      "name": "OwnershipTransferred",
      "type": "event"
    },
    {
      "anonymous": false,
      "inputs": [
        {
          "indexed": false,
          "internalType": "bytes32",
          "name": "role",
          "type": "bytes32"
        },
        {
          "indexed": false,
          "internalType": "address",
          "name": "account",
          "type": "address"
        },
        {
          "indexed": false,
          "internalType": "address",
          "name": "operator",
          "type": "address"
        }
      ],
      "name": "RoleGranted",
      "type": "event"
    },
    {
      "anonymous": false,
      "inputs": [
        {
          "indexed": false,
          "internalType": "bytes32",
          "name": "role",
          "type": "bytes32"
        },
        {
          "indexed": false,
          "internalType": "address",
          "name": "account",
          "type": "address"
        },
        {
          "indexed": false,
          "internalType": "address",
          "name": "operator",
          "type": "address"
        }
      ],
      "name": "RoleRevoked",
      "type": "event"
    },
    {
      "anonymous": false,
      "inputs": [
        {
          "indexed": true,
          "internalType": "address",
          "name": "from",
          "type": "address"
        },
        {
          "indexed": true,
          "internalType": "address",
          "name": "to",
          "type": "address"
        },
        {
          "indexed": false,
          "internalType": "uint256",
          "name": "value",
          "type": "uint256"
        }
      ],
      "name": "Transfer",
      "type": "event"
    },
    {
      "inputs": [],
      "name": "DOMAIN_SEPARATOR",
      "outputs": [
        {
          "internalType": "bytes32",
          "name": "",
          "type": "bytes32"
        }
      ],
      "stateMutability": "view",
      "type": "function"
    },
    {
      "inputs": [],
      "name": "MINTER_ROLE",
      "outputs": [
        {
          "internalType": "bytes32",
          "name": "",
          "type": "bytes32"
        }
      ],
      "stateMutability": "view",
      "type": "function"
    },
    {
      "inputs": [],
      "name": "__msgData",
      "outputs": [
        {
          "internalType": "bytes",
          "name": "",
          "type": "bytes"
        }
      ],
      "stateMutability": "view",
      "type": "function"
    },
    {
      "inputs": [
        {
          "internalType": "address",
          "name": "owner",
          "type": "address"
        },
        {
          "internalType": "address",
          "name": "spender",
          "type": "address"
        }
      ],
      "name": "allowance",
      "outputs": [
        {
          "internalType": "uint256",
          "name": "value",
          "type": "uint256"
        }
      ],
      "stateMutability": "view",
      "type": "function"
    },
    {
      "inputs": [
        {
          "internalType": "address",
          "name": "spender",
          "type": "address"
        },
        {
          "internalType": "uint256",
          "name": "value",
          "type": "uint256"
        }
      ],
      "name": "approve",
      "outputs": [
        {
          "internalType": "bool",
          "name": "result",
          "type": "bool"
        }
      ],
      "stateMutability": "nonpayable",
      "type": "function"
    },
    {
      "inputs": [
        {
          "internalType": "address",
          "name": "owner",
          "type": "address"
        }
      ],
      "name": "balanceOf",
      "outputs": [
        {
          "internalType": "uint256",
          "name": "balance",
          "type": "uint256"
        }
      ],
      "stateMutability": "view",
      "type": "function"
    },
    {
      "inputs": [
        {
          "internalType": "address[]",
          "name": "owners",
          "type": "address[]"
        },
        {
          "internalType": "uint256[]",
          "name": "values",
          "type": "uint256[]"
        }
      ],
      "name": "batchBurnFrom",
      "outputs": [
        {
          "internalType": "bool",
          "name": "",
          "type": "bool"
        }
      ],
      "stateMutability": "nonpayable",
      "type": "function"
    },
    {
      "inputs": [
        {
          "internalType": "address[]",
          "name": "recipients",
          "type": "address[]"
        },
        {
          "internalType": "uint256[]",
          "name": "values",
          "type": "uint256[]"
        }
      ],
      "name": "batchMint",
      "outputs": [],
      "stateMutability": "nonpayable",
      "type": "function"
    },
    {
      "inputs": [
        {
          "internalType": "address[]",
          "name": "recipients",
          "type": "address[]"
        },
        {
          "internalType": "uint256[]",
          "name": "values",
          "type": "uint256[]"
        }
      ],
      "name": "batchTransfer",
      "outputs": [
        {
          "internalType": "bool",
          "name": "",
          "type": "bool"
        }
      ],
      "stateMutability": "nonpayable",
      "type": "function"
    },
    {
      "inputs": [
        {
          "internalType": "address",
          "name": "from",
          "type": "address"
        },
        {
          "internalType": "address[]",
          "name": "recipients",
          "type": "address[]"
        },
        {
          "internalType": "uint256[]",
          "name": "values",
          "type": "uint256[]"
        }
      ],
      "name": "batchTransferFrom",
      "outputs": [
        {
          "internalType": "bool",
          "name": "",
          "type": "bool"
        }
      ],
      "stateMutability": "nonpayable",
      "type": "function"
    },
    {
      "inputs": [
        {
          "internalType": "uint256",
          "name": "value",
          "type": "uint256"
        }
      ],
      "name": "burn",
      "outputs": [
        {
          "internalType": "bool",
          "name": "",
          "type": "bool"
        }
      ],
      "stateMutability": "nonpayable",
      "type": "function"
    },
    {
      "inputs": [
        {
          "internalType": "address",
          "name": "from",
          "type": "address"
        },
        {
          "internalType": "uint256",
          "name": "value",
          "type": "uint256"
        }
      ],
      "name": "burnFrom",
      "outputs": [
        {
          "internalType": "bool",
          "name": "",
          "type": "bool"
        }
      ],
      "stateMutability": "nonpayable",
      "type": "function"
    },
    {
      "inputs": [],
      "name": "decimals",
      "outputs": [
        {
          "internalType": "uint8",
          "name": "",
          "type": "uint8"
        }
      ],
      "stateMutability": "view",
      "type": "function"
    },
    {
      "inputs": [
        {
          "internalType": "address",
          "name": "spender",
          "type": "address"
        },
        {
          "internalType": "uint256",
          "name": "subtractedValue",
          "type": "uint256"
        }
      ],
      "name": "decreaseAllowance",
      "outputs": [
        {
          "internalType": "bool",
          "name": "result",
          "type": "bool"
        }
      ],
      "stateMutability": "nonpayable",
      "type": "function"
    },
    {
      "inputs": [],
      "name": "forwarderRegistry",
      "outputs": [
        {
          "internalType": "contract IForwarderRegistry",
          "name": "",
          "type": "address"
        }
      ],
      "stateMutability": "view",
      "type": "function"
    },
    {
      "inputs": [
        {
          "internalType": "bytes32",
          "name": "role",
          "type": "bytes32"
        },
        {
          "internalType": "address",
          "name": "account",
          "type": "address"
        }
      ],
      "name": "grantRole",
      "outputs": [],
      "stateMutability": "nonpayable",
      "type": "function"
    },
    {
      "inputs": [
        {
          "internalType": "bytes32",
          "name": "role",
          "type": "bytes32"
        },
        {
          "internalType": "address",
          "name": "account",
          "type": "address"
        }
      ],
      "name": "hasRole",
      "outputs": [
        {
          "internalType": "bool",
          "name": "",
          "type": "bool"
        }
      ],
      "stateMutability": "view",
      "type": "function"
    },
    {
      "inputs": [
        {
          "internalType": "address",
          "name": "spender",
          "type": "address"
        },
        {
          "internalType": "uint256",
          "name": "addedValue",
          "type": "uint256"
        }
      ],
      "name": "increaseAllowance",
      "outputs": [
        {
          "internalType": "bool",
          "name": "result",
          "type": "bool"
        }
      ],
      "stateMutability": "nonpayable",
      "type": "function"
    },
    {
      "inputs": [
        {
          "internalType": "address",
          "name": "forwarder",
          "type": "address"
        }
      ],
      "name": "isTrustedForwarder",
      "outputs": [
        {
          "internalType": "bool",
          "name": "",
          "type": "bool"
        }
      ],
      "stateMutability": "view",
      "type": "function"
    },
    {
      "inputs": [
        {
          "internalType": "address",
          "name": "to",
          "type": "address"
        },
        {
          "internalType": "uint256",
          "name": "value",
          "type": "uint256"
        }
      ],
      "name": "mint",
      "outputs": [],
      "stateMutability": "nonpayable",
      "type": "function"
    },
    {
      "inputs": [],
      "name": "name",
      "outputs": [
        {
          "internalType": "string",
          "name": "",
          "type": "string"
        }
      ],
      "stateMutability": "view",
      "type": "function"
    },
    {
      "inputs": [
        {
          "internalType": "address",
          "name": "owner",
          "type": "address"
        }
      ],
      "name": "nonces",
      "outputs": [
        {
          "internalType": "uint256",
          "name": "",
          "type": "uint256"
        }
      ],
      "stateMutability": "view",
      "type": "function"
    },
    {
      "inputs": [],
      "name": "owner",
      "outputs": [
        {
          "internalType": "address",
          "name": "",
          "type": "address"
        }
      ],
      "stateMutability": "view",
      "type": "function"
    },
    {
      "inputs": [
        {
          "internalType": "address",
          "name": "owner",
          "type": "address"
        },
        {
          "internalType": "address",
          "name": "spender",
          "type": "address"
        },
        {
          "internalType": "uint256",
          "name": "value",
          "type": "uint256"
        },
        {
          "internalType": "uint256",
          "name": "deadline",
          "type": "uint256"
        },
        {
          "internalType": "uint8",
          "name": "v",
          "type": "uint8"
        },
        {
          "internalType": "bytes32",
          "name": "r",
          "type": "bytes32"
        },
        {
          "internalType": "bytes32",
          "name": "s",
          "type": "bytes32"
        }
      ],
      "name": "permit",
      "outputs": [],
      "stateMutability": "nonpayable",
      "type": "function"
    },
    {
      "inputs": [
        {
          "internalType": "bytes32",
          "name": "role",
          "type": "bytes32"
        }
      ],
      "name": "renounceRole",
      "outputs": [],
      "stateMutability": "nonpayable",
      "type": "function"
    },
    {
      "inputs": [
        {
          "internalType": "bytes32",
          "name": "role",
          "type": "bytes32"
        },
        {
          "internalType": "address",
          "name": "account",
          "type": "address"
        }
      ],
      "name": "revokeRole",
      "outputs": [],
      "stateMutability": "nonpayable",
      "type": "function"
    },
    {
      "inputs": [
        {
          "internalType": "address",
          "name": "to",
          "type": "address"
        },
        {
          "internalType": "uint256",
          "name": "value",
          "type": "uint256"
        },
        {
          "internalType": "bytes",
          "name": "data",
          "type": "bytes"
        }
      ],
      "name": "safeTransfer",
      "outputs": [
        {
          "internalType": "bool",
          "name": "",
          "type": "bool"
        }
      ],
      "stateMutability": "nonpayable",
      "type": "function"
    },
    {
      "inputs": [
        {
          "internalType": "address",
          "name": "from",
          "type": "address"
        },
        {
          "internalType": "address",
          "name": "to",
          "type": "address"
        },
        {
          "internalType": "uint256",
          "name": "value",
          "type": "uint256"
        },
        {
          "internalType": "bytes",
          "name": "data",
          "type": "bytes"
        }
      ],
      "name": "safeTransferFrom",
      "outputs": [
        {
          "internalType": "bool",
          "name": "",
          "type": "bool"
        }
      ],
      "stateMutability": "nonpayable",
      "type": "function"
    },
    {
      "inputs": [
        {
          "internalType": "string",
          "name": "uri",
          "type": "string"
        }
      ],
      "name": "setTokenURI",
      "outputs": [],
      "stateMutability": "nonpayable",
      "type": "function"
    },
    {
      "inputs": [
        {
          "internalType": "bytes4",
          "name": "interfaceId",
          "type": "bytes4"
        }
      ],
      "name": "supportsInterface",
      "outputs": [
        {
          "internalType": "bool",
          "name": "",
          "type": "bool"
        }
      ],
      "stateMutability": "view",
      "type": "function"
    },
    {
      "inputs": [],
      "name": "symbol",
      "outputs": [
        {
          "internalType": "string",
          "name": "",
          "type": "string"
        }
      ],
      "stateMutability": "view",
      "type": "function"
    },
    {
      "inputs": [],
      "name": "tokenURI",
      "outputs": [
        {
          "internalType": "string",
          "name": "",
          "type": "string"
        }
      ],
      "stateMutability": "view",
      "type": "function"
    },
    {
      "inputs": [],
      "name": "totalSupply",
      "outputs": [
        {
          "internalType": "uint256",
          "name": "supply",
          "type": "uint256"
        }
      ],
      "stateMutability": "view",
      "type": "function"
    },
    {
      "inputs": [
        {
          "internalType": "address",
          "name": "to",
          "type": "address"
        },
        {
          "internalType": "uint256",
          "name": "value",
          "type": "uint256"
        }
      ],
      "name": "transfer",
      "outputs": [
        {
          "internalType": "bool",
          "name": "result",
          "type": "bool"
        }
      ],
      "stateMutability": "nonpayable",
      "type": "function"
    },
    {
      "inputs": [
        {
          "internalType": "address",
          "name": "from",
          "type": "address"
        },
        {
          "internalType": "address",
          "name": "to",
          "type": "address"
        },
        {
          "internalType": "uint256",
          "name": "value",
          "type": "uint256"
        }
      ],
      "name": "transferFrom",
      "outputs": [
        {
          "internalType": "bool",
          "name": "result",
          "type": "bool"
        }
      ],
      "stateMutability": "nonpayable",
      "type": "function"
    },
    {
      "inputs": [
        {
          "internalType": "address",
          "name": "newOwner",
          "type": "address"
        }
      ],
      "name": "transferOwnership",
      "outputs": [],
      "stateMutability": "nonpayable",
      "type": "function"
    }
  ],
  "bytecode": "0x60a06040523480156200001157600080fd5b5060405162004d5338038062004d538339810160408190526200003491620009e2565b86868686868686818585858a8a86808033858562000077828262000062620001a860201b62000c8c1760201c565b620001de60201b62000cba179092919060201c565b5050620000a781620000936200026160201b62000d291760201c565b6200029160201b62000d571790919060201c565b50620000bd6200032460201b62000e141760201c565b806001600160a01b03166080816001600160a01b03168152505050505050506200010e838383620000f86200034960201b62000e441760201c565b6200037960201b62000e7217909392919060201c565b5050506200013f816200012b620003cd60201b62000eea1760201c565b620003fd60201b62000f181790919060201c565b50620001556200042e60201b62000f521760201c565b6200016a6200045160201b62000f801760201c565b6200017f6200047460201b62000fae1760201c565b505050505050506200019b6200049760201b62000fdc1760201c565b5050505050505062000c7b565b600080620001d860017f1da92899d3da68bf9787824388a37ea2bfa79780bcef91b9716c390eec8ecbef62000ae8565b92915050565b620001fa828285620004ba60201b6200100a179092919060201c565b6000620002116200070c60201b620012e61760201c565b9050620002376336372b0760e01b6001836200073c60201b62001314179092919060201c565b6200025b634e83a8c360e11b6001836200073c60201b62001314179092919060201c565b50505050565b600080620001d860017fc9ed16f33ab3a66c84bfd83099ccb2a8845871e2e1c1928f63797152f0fd54cd62000ae8565b6001600160a01b03811615620002e85781546001600160a01b0319166001600160a01b03821690811783556040516000907f8be0079c531659141344cd1fd0a4f28419497f9722a3daafe3b4186f6b6457e0908290a35b620003206307f5828d60e41b60016200030b6200070c60201b620012e61760201c565b6200073c60201b62001314179092919060201c565b5050565b6200034763144b1f0f60e11b60016200030b6200070c60201b620012e61760201c565b565b600080620001d860017f335df4119bbb04f056b33eba33b826d3529129e458faf6daa9924b5a8f3b6a8262000ae8565b8362000386848262000b99565b506001840162000397838262000b99565b5060028401805460ff191660ff83161790556200025b63a219a02560e01b60016200030b6200070c602090811b620012e617901c565b600080620001d860017ff41bf6a5db26bffdfab174dcf66b31fbba8fdb7e3db040721ce1e62d61839ceb62000ae8565b816200040a828262000b99565b50620003206303c130d960e41b60016200030b6200070c60201b620012e61760201c565b62000347634ec7fbed60e11b60016200030b6200070c60201b620012e61760201c565b620003476353f41a9760e01b60016200030b6200070c60201b620012e61760201c565b6200034763602993f360e11b60016200030b6200070c60201b620012e61760201c565b620003476320c07ed160e01b60016200030b6200070c60201b620012e61760201c565b815181518114620005125760405162461bcd60e51b815260206004820152601a60248201527f45524332303a20696e636f6e73697374656e742061727261797300000000000060448201526064015b60405180910390fd5b80600003620005215750505050565b6000805b8281146200069d57600085828151811062000544576200054462000c65565b6020026020010151905060006001600160a01b0316816001600160a01b031603620005b25760405162461bcd60e51b815260206004820152601960248201527f45524332303a206d696e7420746f206164647265737328302900000000000000604482015260640162000509565b6000858381518110620005c957620005c962000c65565b60200260200101519050806000146200065157838101848111620006305760405162461bcd60e51b815260206004820152601660248201527f45524332303a2076616c756573206f766572666c6f7700000000000000000000604482015260640162000509565b6001600160a01b038316600090815260208a90526040902080548301905593505b6040518181526001600160a01b038316906000907fddf252ad1be2c89b69c2b068fc378daa952ba7f163c4a11628f55a4df523b3ef9060200160405180910390a3505060010162000525565b50801562000705576002850154818101818111620006fe5760405162461bcd60e51b815260206004820152601660248201527f45524332303a20737570706c79206f766572666c6f7700000000000000000000604482015260640162000509565b6002870155505b5050505050565b600080620001d860017fca9d3e17f264b0f3984e2634e94adb37fa3e6a8103f06aeae6fa59e21c769f5e62000ae8565b600160e01b6001600160e01b03198316016200079b5760405162461bcd60e51b815260206004820152601f60248201527f496e74657266616365446574656374696f6e3a2077726f6e672076616c756500604482015260640162000509565b6001600160e01b03199190911660009081526020929092526040909120805460ff1916911515919091179055565b634e487b7160e01b600052604160045260246000fd5b604051601f8201601f191681016001600160401b03811182821017156200080a576200080a620007c9565b604052919050565b60006001600160401b038211156200082e576200082e620007c9565b5060051b60200190565b6001600160a01b03811681146200084e57600080fd5b50565b600082601f8301126200086357600080fd5b815160206200087c620008768362000812565b620007df565b82815260059290921b840181019181810190868411156200089c57600080fd5b8286015b84811015620008c4578051620008b68162000838565b8352918301918301620008a0565b509695505050505050565b600082601f830112620008e157600080fd5b81516020620008f4620008768362000812565b82815260059290921b840181019181810190868411156200091457600080fd5b8286015b84811015620008c4578051835291830191830162000918565b600082601f8301126200094357600080fd5b81516001600160401b038111156200095f576200095f620007c9565b602062000975601f8301601f19168201620007df565b82815285828487010111156200098a57600080fd5b60005b83811015620009aa5785810183015182820184015282016200098d565b506000928101909101919091529392505050565b805160ff81168114620009d057600080fd5b919050565b8051620009d08162000838565b600080600080600080600060e0888a031215620009fe57600080fd5b87516001600160401b038082111562000a1657600080fd5b62000a248b838c0162000851565b985060208a015191508082111562000a3b57600080fd5b62000a498b838c01620008cf565b975060408a015191508082111562000a6057600080fd5b62000a6e8b838c0162000931565b965060608a015191508082111562000a8557600080fd5b62000a938b838c0162000931565b955062000aa360808b01620009be565b945060a08a015191508082111562000aba57600080fd5b5062000ac98a828b0162000931565b92505062000ada60c08901620009d5565b905092959891949750929550565b81810381811115620001d857634e487b7160e01b600052601160045260246000fd5b600181811c9082168062000b1f57607f821691505b60208210810362000b4057634e487b7160e01b600052602260045260246000fd5b50919050565b601f82111562000b9457600081815260208120601f850160051c8101602086101562000b6f5750805b601f850160051c820191505b8181101562000b905782815560010162000b7b565b5050505b505050565b81516001600160401b0381111562000bb55762000bb5620007c9565b62000bcd8162000bc6845462000b0a565b8462000b46565b602080601f83116001811462000c05576000841562000bec5750858301515b600019600386901b1c1916600185901b17855562000b90565b600085815260208120601f198616915b8281101562000c365788860151825594840194600190910190840162000c15565b508582101562000c555787850151600019600388901b60f8161c191681555b5050505050600190811b01905550565b634e487b7160e01b600052603260045260246000fd5b60805161409962000cba600039600081816102ef015281816103e50152818161354d015281816135d50152818161368801526136c601526140996000f3fe608060405234801561001057600080fd5b506004361061025c5760003560e01c806370a0823111610145578063a9059cbb116100bd578063d547741f1161008c578063e0df5b6f11610071578063e0df5b6f14610550578063eb79554914610563578063f2fde38b1461057657600080fd5b8063d547741f1461052a578063dd62ed3e1461053d57600080fd5b8063a9059cbb146104ca578063b88d4fde146104dd578063d505accf146104f0578063d53913931461050357600080fd5b80638bb9c5bf1161011457806391d14854116100f957806391d148541461049c57806395d89b41146104af578063a457c2d7146104b757600080fd5b80638bb9c5bf146104815780638da5cb5b1461049457600080fd5b806370a082311461043557806379cc6790146104485780637ecebe001461045b57806388d695b21461046e57600080fd5b806331e66e1e116101d857806340c10f19116101a75780634885b2541161018c5780634885b254146103c2578063572b6c05146103d5578063685731071461042257600080fd5b806340c10f191461039c57806342966c68146103af57600080fd5b806331e66e1e146103635780633644e5151461037957806339509351146103815780633c130d901461039457600080fd5b80631b9a75291161022f5780632b4c9f16116102145780632b4c9f16146102ed5780632f2ff15d14610334578063313ce5671461034957600080fd5b80631b9a7529146102c757806323b872dd146102da57600080fd5b806301ffc9a71461026157806306fdde0314610289578063095ea7b31461029e57806318160ddd146102b1575b600080fd5b61027461026f36600461381a565b610589565b60405190151581526020015b60405180910390f35b6102916105a3565b60405161028091906138a5565b6102746102ac3660046138e1565b6105ba565b6102b96105e2565b604051908152602001610280565b6102746102d5366004613957565b6105f6565b6102746102e83660046139c3565b610684565b7f00000000000000000000000000000000000000000000000000000000000000005b60405173ffffffffffffffffffffffffffffffffffffffff9091168152602001610280565b6103476103423660046139ff565b6106af565b005b6103516106e8565b60405160ff9091168152602001610280565b61036b6106ff565b604051610280929190613a2b565b6102b9610712565b61027461038f3660046138e1565b61071c565b61029161073b565b6103476103aa3660046138e1565b610748565b6102746103bd366004613a78565b61079b565b6102746103d0366004613a91565b6107c0565b6102746103e3366004613b12565b7f000000000000000000000000000000000000000000000000000000000000000073ffffffffffffffffffffffffffffffffffffffff90811691161490565b610347610430366004613957565b610851565b6102b9610443366004613b12565b6108fb565b6102746104563660046138e1565b610933565b6102b9610469366004613b12565b610952565b61027461047c366004613957565b610960565b61034761048f366004613a78565b6109e3565b61030f610a01565b6102746104aa3660046139ff565b610a28565b610291610a73565b6102746104c53660046138e1565b610a85565b6102746104d83660046138e1565b610aa4565b6102746104eb366004613b6f565b610ac3565b6103476104fe366004613bcd565b610b1d565b6102b97f6d696e746572000000000000000000000000000000000000000000000000000081565b6103476105383660046139ff565b610b44565b6102b961054b366004613c40565b610b72565b61034761055e366004613c6a565b610bbd565b610274610571366004613cac565b610c19565b610347610584366004613b12565b610c71565b600061059d826105976112e6565b90611420565b92915050565b60606105b56105b0610e44565b6114fa565b905090565b60006105d96105c7611590565b84846105d1610c8c565b92919061159a565b50600192915050565b60006105b56105ef610c8c565b6002015490565b6000610679610603611590565b86868080602002602001604051908101604052809392919081815260200183836020028082843760009201919091525050604080516020808a028281018201909352898252909350899250889182918501908490808284376000920191909152506106719250610c8c915050565b929190611689565b506001949350505050565b60006106a5610691611590565b85858561069c610c8c565b939291906118c0565b5060019392505050565b60006106b9611590565b90506106cd816106c7610d29565b9061190b565b6106e38383836106db61198e565b9291906119bc565b505050565b60006105b56106f5610e44565b6002015460ff1690565b36600061070a611a92565b915091509091565b60006105b5611a9d565b60006105d9610729611590565b8484610733610c8c565b929190611b38565b60606105b56105b0610eea565b6107837f6d696e7465720000000000000000000000000000000000000000000000000000610774611590565b61077c61198e565b9190611d04565b6107978282610790610c8c565b9190611db0565b5050565b60006107b86107a8611590565b836107b1610c8c565b9190611f2a565b506001919050565b60006108456107cd611590565b8787878080602002602001604051908101604052809392919081815260200183836020028082843760009201919091525050604080516020808b0282810182019093528a82529093508a92508991829185019084908082843760009201919091525061083c9250610c8c915050565b93929190612040565b50600195945050505050565b61087d7f6d696e7465720000000000000000000000000000000000000000000000000000610774611590565b6108f5848480806020026020016040519081016040528093929190818152602001838360200280828437600092019190915250506040805160208088028281018201909352878252909350879250869182918501908490808284376000920191909152506108ee9250610c8c915050565b919061100a565b50505050565b600061059d82610909610c8c565b9073ffffffffffffffffffffffffffffffffffffffff166000908152602091909152604090205490565b60006105d9610940611590565b848461094a610c8c565b92919061246f565b600061059d826109096124b9565b600061067961096d611590565b86868080602002602001604051908101604052809392919081815260200183836020028082843760009201919091525050604080516020808a028281018201909352898252909350899250889182918501908490808284376000920191909152506109db9250610c8c915050565b9291906124e7565b6109fe6109ee611590565b826109f761198e565b91906128d6565b50565b60006105b5610a0e610d29565b5473ffffffffffffffffffffffffffffffffffffffff1690565b6000610a6c8383610a3761198e565b60009283526020908152604080842073ffffffffffffffffffffffffffffffffffffffff909316845291905290205460ff1690565b9392505050565b60606105b5610a80610e44565b61297a565b60006105d9610a92611590565b8484610a9c610c8c565b92919061298b565b60006105d9610ab1611590565b8484610abb610c8c565b929190612add565b6000610845610ad0611590565b87878787878080601f016020809104026020016040519081016040528093929190818152602001838380828437600092019190915250610b139250610c8c915050565b9493929190612cbe565b610b3b87878787878787610b2f6124b9565b96959493929190612cf5565b50505050505050565b6000610b4e611590565b9050610b5c816106c7610d29565b6106e3838383610b6a61198e565b929190612ff1565b6000610a6c8383610b81610c8c565b919073ffffffffffffffffffffffffffffffffffffffff9182166000908152600193909301602090815260408085209290931684525290205490565b610bd0610bc8611590565b6106c7610d29565b61079782828080601f016020809104026020016040519081016040528093929190818152602001838380828437600092019190915250610c139250610eea915050565b906130bb565b6000610679610c26611590565b868686868080601f016020809104026020016040519081016040528093929190818152602001838380828437600092019190915250610c689250610c8c915050565b939291906130c6565b6109fe610c7c611590565b82610c85610d29565b91906130fc565b60008061059d60017f1da92899d3da68bf9787824388a37ea2bfa79780bcef91b9716c390eec8ecbef613cfa565b610cc583838361100a565b6000610ccf6112e6565b9050610cfd817f36372b07000000000000000000000000000000000000000000000000000000006001611314565b6108f5817f9d075186000000000000000000000000000000000000000000000000000000006001611314565b60008061059d60017fc9ed16f33ab3a66c84bfd83099ccb2a8845871e2e1c1928f63797152f0fd54cd613cfa565b73ffffffffffffffffffffffffffffffffffffffff811615610ddf5781547fffffffffffffffffffffffff00000000000000000000000000000000000000001673ffffffffffffffffffffffffffffffffffffffff821690811783556040516000907f8be0079c531659141344cd1fd0a4f28419497f9722a3daafe3b4186f6b6457e0908290a35b6107977f7f5828d0000000000000000000000000000000000000000000000000000000006001610e0d6112e6565b9190611314565b610e427f28963e1e000000000000000000000000000000000000000000000000000000006001610e0d6112e6565b565b60008061059d60017f335df4119bbb04f056b33eba33b826d3529129e458faf6daa9924b5a8f3b6a82613cfa565b83610e7d8482613dfc565b5060018401610e8c8382613dfc565b506002840180547fffffffffffffffffffffffffffffffffffffffffffffffffffffffffffffff001660ff83161790556108f57fa219a025000000000000000000000000000000000000000000000000000000006001610e0d6112e6565b60008061059d60017ff41bf6a5db26bffdfab174dcf66b31fbba8fdb7e3db040721ce1e62d61839ceb613cfa565b81610f238282613dfc565b506107977f3c130d90000000000000000000000000000000000000000000000000000000006001610e0d6112e6565b610e427f9d8ff7da000000000000000000000000000000000000000000000000000000006001610e0d6112e6565b610e427f53f41a97000000000000000000000000000000000000000000000000000000006001610e0d6112e6565b610e427fc05327e6000000000000000000000000000000000000000000000000000000006001610e0d6112e6565b610e427f20c07ed1000000000000000000000000000000000000000000000000000000006001610e0d6112e6565b81518151811461107b576040517f08c379a000000000000000000000000000000000000000000000000000000000815260206004820152601a60248201527f45524332303a20696e636f6e73697374656e742061727261797300000000000060448201526064015b60405180910390fd5b806000036110895750505050565b6000805b8281146112605760008582815181106110a8576110a8613f16565b60200260200101519050600073ffffffffffffffffffffffffffffffffffffffff168173ffffffffffffffffffffffffffffffffffffffff1603611148576040517f08c379a000000000000000000000000000000000000000000000000000000000815260206004820152601960248201527f45524332303a206d696e7420746f2061646472657373283029000000000000006044820152606401611072565b600085838151811061115c5761115c613f16565b6020026020010151905080600014611208578381018481116111da576040517f08c379a000000000000000000000000000000000000000000000000000000000815260206004820152601660248201527f45524332303a2076616c756573206f766572666c6f77000000000000000000006044820152606401611072565b73ffffffffffffffffffffffffffffffffffffffff8316600090815260208a90526040902080548301905593505b60405181815273ffffffffffffffffffffffffffffffffffffffff8316906000907fddf252ad1be2c89b69c2b068fc378daa952ba7f163c4a11628f55a4df523b3ef9060200160405180910390a3505060010161108d565b5080156112df5760028501548181018181116112d8576040517f08c379a000000000000000000000000000000000000000000000000000000000815260206004820152601660248201527f45524332303a20737570706c79206f766572666c6f77000000000000000000006044820152606401611072565b6002870155505b5050505050565b60008061059d60017fca9d3e17f264b0f3984e2634e94adb37fa3e6a8103f06aeae6fa59e21c769f5e613cfa565b7c01000000000000000000000000000000000000000000000000000000007fffffffff000000000000000000000000000000000000000000000000000000008316016113bc576040517f08c379a000000000000000000000000000000000000000000000000000000000815260206004820152601f60248201527f496e74657266616365446574656374696f6e3a2077726f6e672076616c7565006044820152606401611072565b7fffffffff00000000000000000000000000000000000000000000000000000000919091166000908152602092909252604090912080547fffffffffffffffffffffffffffffffffffffffffffffffffffffffffffffff0016911515919091179055565b60007c01000000000000000000000000000000000000000000000000000000007fffffffff000000000000000000000000000000000000000000000000000000008316016114705750600061059d565b7ffe003659000000000000000000000000000000000000000000000000000000007fffffffff000000000000000000000000000000000000000000000000000000008316016114c15750600161059d565b507fffffffff00000000000000000000000000000000000000000000000000000000166000908152602091909152604090205460ff1690565b606081600001805461150b90613d63565b80601f016020809104026020016040519081016040528092919081815260200182805461153790613d63565b80156115845780601f1061155957610100808354040283529160200191611584565b820191906000526020600020905b81548152906001019060200180831161156757829003601f168201915b50505050509050919050565b60006105b5613228565b73ffffffffffffffffffffffffffffffffffffffff8216611617576040517f08c379a000000000000000000000000000000000000000000000000000000000815260206004820152601d60248201527f45524332303a20617070726f76616c20746f20616464726573732830290000006044820152606401611072565b73ffffffffffffffffffffffffffffffffffffffff838116600081815260018701602090815260408083209487168084529482529182902085905590518481527f8c5be1e5ebec7d5bd14f71427d1e84f3dd0314c0f7b2291e5b200ac8c7c3b92591015b60405180910390a350505050565b8151815181146116f5576040517f08c379a000000000000000000000000000000000000000000000000000000000815260206004820152601a60248201527f45524332303a20696e636f6e73697374656e74206172726179730000000000006044820152606401611072565b8060000361170357506108f5565b6000805b8281146118a557600085828151811061172257611722613f16565b60200260200101519050600085838151811061174057611740613f16565b602002602001015190508773ffffffffffffffffffffffffffffffffffffffff168273ffffffffffffffffffffffffffffffffffffffff16146117895761178989838a8461298b565b801561184d5773ffffffffffffffffffffffffffffffffffffffff8216600090815260208a90526040902054818103818110611821576040517f08c379a000000000000000000000000000000000000000000000000000000000815260206004820152601b60248201527f45524332303a20696e73756666696369656e742062616c616e636500000000006044820152606401611072565b73ffffffffffffffffffffffffffffffffffffffff8416600090815260208c9052604090205550928301925b60405181815260009073ffffffffffffffffffffffffffffffffffffffff8416907fddf252ad1be2c89b69c2b068fc378daa952ba7f163c4a11628f55a4df523b3ef9060200160405180910390a35050600101611707565b5080156118b85760028601805482900390555b505050505050565b8373ffffffffffffffffffffffffffffffffffffffff168373ffffffffffffffffffffffffffffffffffffffff16146118ff576118ff8584868461298b565b6112df85848484612add565b815473ffffffffffffffffffffffffffffffffffffffff828116911614610797576040517f08c379a000000000000000000000000000000000000000000000000000000000815260206004820152601860248201527f4f776e6572736869703a206e6f7420746865206f776e657200000000000000006044820152606401611072565b60008061059d60017fc8827d3282af6f37b64c3e9e6f3ac9df286ab0bb0fccd6f8661bf19adb368b23613cfa565b60008381526020858152604080832073ffffffffffffffffffffffffffffffffffffffff8616845290915290205460ff166108f55760008381526020858152604080832073ffffffffffffffffffffffffffffffffffffffff8681168086529184529382902080547fffffffffffffffffffffffffffffffffffffffffffffffffffffffffffffff00166001179055815187815292830152918316918101919091527f2f8788117e7eff1d82e926ec794901d17c78024a50270940304540a733656f0d906060015b60405180910390a150505050565b36600061070a613232565b6000467f8b73c3c69bb8fe3d512ecc4cf759cc79239f7b179b0ffacaa9a75d522b39400f611acc6105b0610e44565b80516020918201206040805192830193909352918101919091527fc89efdaa54c0f20c7adf612882df0950f5a951637e0307cdcb4c672f298b8bc66060820152608081018290523060a082015260c0016040516020818303038152906040528051906020012091505090565b73ffffffffffffffffffffffffffffffffffffffff8216611bb5576040517f08c379a000000000000000000000000000000000000000000000000000000000815260206004820152601d60248201527f45524332303a20617070726f76616c20746f20616464726573732830290000006044820152606401611072565b73ffffffffffffffffffffffffffffffffffffffff80841660009081526001860160209081526040808320938616835292905220548115611c9657808201818111611c5c576040517f08c379a000000000000000000000000000000000000000000000000000000000815260206004820152601960248201527f45524332303a20616c6c6f77616e6365206f766572666c6f77000000000000006044820152606401611072565b73ffffffffffffffffffffffffffffffffffffffff8086166000908152600188016020908152604080832093881683529290522081905590505b8273ffffffffffffffffffffffffffffffffffffffff168473ffffffffffffffffffffffffffffffffffffffff167f8c5be1e5ebec7d5bd14f71427d1e84f3dd0314c0f7b2291e5b200ac8c7c3b92583604051611cf591815260200190565b60405180910390a35050505050565b60008281526020848152604080832073ffffffffffffffffffffffffffffffffffffffff8516845290915290205460ff166106e357611d428261323d565b604051602001611d529190613f45565b604080517fffffffffffffffffffffffffffffffffffffffffffffffffffffffffffffffe0818403018152908290527f08c379a0000000000000000000000000000000000000000000000000000000008252611072916004016138a5565b73ffffffffffffffffffffffffffffffffffffffff8216611e2d576040517f08c379a000000000000000000000000000000000000000000000000000000000815260206004820152601960248201527f45524332303a206d696e7420746f2061646472657373283029000000000000006044820152606401611072565b8015611ed6576002830154818101818111611ea4576040517f08c379a000000000000000000000000000000000000000000000000000000000815260206004820152601660248201527f45524332303a20737570706c79206f766572666c6f77000000000000000000006044820152606401611072565b60028501555073ffffffffffffffffffffffffffffffffffffffff821660009081526020849052604090208054820190555b60405181815273ffffffffffffffffffffffffffffffffffffffff8316906000907fddf252ad1be2c89b69c2b068fc378daa952ba7f163c4a11628f55a4df523b3ef906020015b60405180910390a3505050565b8015611ff55773ffffffffffffffffffffffffffffffffffffffff8216600090815260208490526040902054818103818110611fc2576040517f08c379a000000000000000000000000000000000000000000000000000000000815260206004820152601b60248201527f45524332303a20696e73756666696369656e742062616c616e636500000000006044820152606401611072565b73ffffffffffffffffffffffffffffffffffffffff84166000908152602086905260409020555060028301805482900390555b60405181815260009073ffffffffffffffffffffffffffffffffffffffff8416907fddf252ad1be2c89b69c2b068fc378daa952ba7f163c4a11628f55a4df523b3ef90602001611f1d565b8151815181146120ac576040517f08c379a000000000000000000000000000000000000000000000000000000000815260206004820152601a60248201527f45524332303a20696e636f6e73697374656e74206172726179730000000000006044820152606401611072565b806000036120ba57506112df565b73ffffffffffffffffffffffffffffffffffffffff84166000908152602087905260408120549080805b8481146123795760008782815181106120ff576120ff613f16565b60200260200101519050600073ffffffffffffffffffffffffffffffffffffffff168173ffffffffffffffffffffffffffffffffffffffff160361219f576040517f08c379a000000000000000000000000000000000000000000000000000000000815260206004820152601d60248201527f45524332303a207472616e7366657220746f20616464726573732830290000006044820152606401611072565b60008783815181106121b3576121b3613f16565b602002602001015190508060001461230857848101858111612231576040517f08c379a000000000000000000000000000000000000000000000000000000000815260206004820152601660248201527f45524332303a2076616c756573206f766572666c6f77000000000000000000006044820152606401611072565b8095508273ffffffffffffffffffffffffffffffffffffffff168b73ffffffffffffffffffffffffffffffffffffffff16146122975773ffffffffffffffffffffffffffffffffffffffff8316600090815260208e905260409020805483019055612306565b86821115612301576040517f08c379a000000000000000000000000000000000000000000000000000000000815260206004820152601b60248201527f45524332303a20696e73756666696369656e742062616c616e636500000000006044820152606401611072565b938101935b505b8173ffffffffffffffffffffffffffffffffffffffff168a73ffffffffffffffffffffffffffffffffffffffff167fddf252ad1be2c89b69c2b068fc378daa952ba7f163c4a11628f55a4df523b3ef8360405161236791815260200190565b60405180910390a350506001016120e4565b5081158015906123895750808214155b15612425578183038381106123fa576040517f08c379a000000000000000000000000000000000000000000000000000000000815260206004820152601b60248201527f45524332303a20696e73756666696369656e742062616c616e636500000000006044820152606401611072565b73ffffffffffffffffffffffffffffffffffffffff8816600090815260208b90526040902090820190555b8773ffffffffffffffffffffffffffffffffffffffff168773ffffffffffffffffffffffffffffffffffffffff16146124645761246489888a8561298b565b505050505050505050565b8273ffffffffffffffffffffffffffffffffffffffff168273ffffffffffffffffffffffffffffffffffffffff16146124ae576124ae8483858461298b565b6108f5848383611f2a565b60008061059d60017f93fe0ff7226b064a4a8f0b09910762afb4bc2441835792c021ffd78cd513011e613cfa565b815181518114612553576040517f08c379a000000000000000000000000000000000000000000000000000000000815260206004820152601a60248201527f45524332303a20696e636f6e73697374656e74206172726179730000000000006044820152606401611072565b8060000361256157506108f5565b73ffffffffffffffffffffffffffffffffffffffff84166000908152602086905260408120549080805b8481146128205760008782815181106125a6576125a6613f16565b60200260200101519050600073ffffffffffffffffffffffffffffffffffffffff168173ffffffffffffffffffffffffffffffffffffffff1603612646576040517f08c379a000000000000000000000000000000000000000000000000000000000815260206004820152601d60248201527f45524332303a207472616e7366657220746f20616464726573732830290000006044820152606401611072565b600087838151811061265a5761265a613f16565b60200260200101519050806000146127af578481018581116126d8576040517f08c379a000000000000000000000000000000000000000000000000000000000815260206004820152601660248201527f45524332303a2076616c756573206f766572666c6f77000000000000000000006044820152606401611072565b8095508273ffffffffffffffffffffffffffffffffffffffff168b73ffffffffffffffffffffffffffffffffffffffff161461273e5773ffffffffffffffffffffffffffffffffffffffff8316600090815260208d9052604090208054830190556127ad565b868211156127a8576040517f08c379a000000000000000000000000000000000000000000000000000000000815260206004820152601b60248201527f45524332303a20696e73756666696369656e742062616c616e636500000000006044820152606401611072565b938101935b505b8173ffffffffffffffffffffffffffffffffffffffff168a73ffffffffffffffffffffffffffffffffffffffff167fddf252ad1be2c89b69c2b068fc378daa952ba7f163c4a11628f55a4df523b3ef8360405161280e91815260200190565b60405180910390a3505060010161258b565b5081158015906128305750808214155b156128cc578183038381106128a1576040517f08c379a000000000000000000000000000000000000000000000000000000000815260206004820152601b60248201527f45524332303a20696e73756666696369656e742062616c616e636500000000006044820152606401611072565b73ffffffffffffffffffffffffffffffffffffffff8816600090815260208a90526040902090820190555b5050505050505050565b6128e1838284611d04565b60008181526020848152604080832073ffffffffffffffffffffffffffffffffffffffff86168085529083529281902080547fffffffffffffffffffffffffffffffffffffffffffffffffffffffffffffff0016905580518481529182018390528101919091527ff6391f5c32d9c69d2a47ea670b442974b53935d1edc7fd64eb21e047a839171b9060600160405180910390a1505050565b606081600101805461150b90613d63565b73ffffffffffffffffffffffffffffffffffffffff8216612a08576040517f08c379a000000000000000000000000000000000000000000000000000000000815260206004820152601d60248201527f45524332303a20617070726f76616c20746f20616464726573732830290000006044820152606401611072565b73ffffffffffffffffffffffffffffffffffffffff80841660009081526001860160209081526040808320938616835292905220547fffffffffffffffffffffffffffffffffffffffffffffffffffffffffffffffff8114801590612a6c57508115155b15611c9657818103818110611c5c576040517f08c379a000000000000000000000000000000000000000000000000000000000815260206004820152601d60248201527f45524332303a20696e73756666696369656e7420616c6c6f77616e63650000006044820152606401611072565b73ffffffffffffffffffffffffffffffffffffffff8216612b5a576040517f08c379a000000000000000000000000000000000000000000000000000000000815260206004820152601d60248201527f45524332303a207472616e7366657220746f20616464726573732830290000006044820152606401611072565b8015612c5f5773ffffffffffffffffffffffffffffffffffffffff8316600090815260208590526040902054818103818110612bf2576040517f08c379a000000000000000000000000000000000000000000000000000000000815260206004820152601b60248201527f45524332303a20696e73756666696369656e742062616c616e636500000000006044820152606401611072565b8373ffffffffffffffffffffffffffffffffffffffff168573ffffffffffffffffffffffffffffffffffffffff1614612c5c5773ffffffffffffffffffffffffffffffffffffffff8086166000908152602088905260408082208490559186168152208054840190555b50505b8173ffffffffffffffffffffffffffffffffffffffff168373ffffffffffffffffffffffffffffffffffffffff167fddf252ad1be2c89b69c2b068fc378daa952ba7f163c4a11628f55a4df523b3ef8360405161167b91815260200190565b612ccb86868686866118c0565b73ffffffffffffffffffffffffffffffffffffffff83163b156118b8576118b885858585856133cf565b73ffffffffffffffffffffffffffffffffffffffff8716612d72576040517f08c379a000000000000000000000000000000000000000000000000000000000815260206004820152601d60248201527f45524332303a207065726d69742066726f6d20616464726573732830290000006044820152606401611072565b83421115612ddc576040517f08c379a000000000000000000000000000000000000000000000000000000000815260206004820152601560248201527f45524332303a2065787069726564207065726d697400000000000000000000006044820152606401611072565b73ffffffffffffffffffffffffffffffffffffffff878116600081815260208b8152604080832080546001810190915581517f6e71edae12b1b97f4d1f60370fef10105fa2faae0126114a169c64845d6126c98185015280830195909552948b166060850152608084018a905260a084019490945260c08084018990528451808503909101815260e09093019093528151919092012090612e7b611a9d565b6040517f19010000000000000000000000000000000000000000000000000000000000006020820152602281019190915260428101839052606201604080517fffffffffffffffffffffffffffffffffffffffffffffffffffffffffffffffe08184030181528282528051602091820120600080855291840180845281905260ff89169284019290925260608301879052608083018690529092509060019060a0016020604051602081039080840390855afa158015612f3f573d6000803e3d6000fd5b5050506020604051035190508973ffffffffffffffffffffffffffffffffffffffff168173ffffffffffffffffffffffffffffffffffffffff1614612fe0576040517f08c379a000000000000000000000000000000000000000000000000000000000815260206004820152601560248201527f45524332303a20696e76616c6964207065726d697400000000000000000000006044820152606401611072565b5050506128cc8787876105d1610c8c565b60008381526020858152604080832073ffffffffffffffffffffffffffffffffffffffff8616845290915290205460ff16156108f55760008381526020858152604080832073ffffffffffffffffffffffffffffffffffffffff8681168086529184529382902080547fffffffffffffffffffffffffffffffffffffffffffffffffffffffffffffff00169055815187815292830152918316918101919091527ff6391f5c32d9c69d2a47ea670b442974b53935d1edc7fd64eb21e047a839171b90606001611a84565b816106e38282613dfc565b6130d285858585612add565b73ffffffffffffffffffffffffffffffffffffffff83163b156112df576112df84858585856133cf565b825473ffffffffffffffffffffffffffffffffffffffff9081169083168114613181576040517f08c379a000000000000000000000000000000000000000000000000000000000815260206004820152601860248201527f4f776e6572736869703a206e6f7420746865206f776e657200000000000000006044820152606401611072565b8173ffffffffffffffffffffffffffffffffffffffff168173ffffffffffffffffffffffffffffffffffffffff16146108f55783547fffffffffffffffffffffffff00000000000000000000000000000000000000001673ffffffffffffffffffffffffffffffffffffffff8381169182178655604051908316907f8be0079c531659141344cd1fd0a4f28419497f9722a3daafe3b4186f6b6457e090600090a350505050565b60006105b56134f5565b36600061070a6134ff565b6060600082900361325c57505060408051602081019091526000815290565b60008260405160200161327191815260200190565b604080517fffffffffffffffffffffffffffffffffffffffffffffffffffffffffffffffe08184030181529190529050601f5b8181815181106132b6576132b6613f16565b01602001517fff000000000000000000000000000000000000000000000000000000000000001660000361330b577fffffffffffffffffffffffffffffffffffffffffffffffffffffffffffffffff016132a4565b60008160010167ffffffffffffffff81111561332957613329613d34565b6040519080825280601f01601f191660200182016040528015613353576020820181803683370190505b50905060005b8281116133c65783818151811061337257613372613f16565b602001015160f81c60f81b82828151811061338f5761338f613f16565b60200101907effffffffffffffffffffffffffffffffffffffffffffffffffffffffffffff1916908160001a905350600101613359565b50949350505050565b6040517f4fc35859000000000000000000000000000000000000000000000000000000008082529073ffffffffffffffffffffffffffffffffffffffff851690634fc3585990613429908990899088908890600401613fb1565b6020604051808303816000875af1158015613448573d6000803e3d6000fd5b505050506040513d601f19601f8201168201806040525081019061346c9190613ffa565b7fffffffff0000000000000000000000000000000000000000000000000000000016146112df576040517f08c379a000000000000000000000000000000000000000000000000000000000815260206004820152601d60248201527f45524332303a2073616665207472616e736665722072656a65637465640000006044820152606401611072565b60006105b561350a565b36600061070a613651565b60003332148061351a5750601836105b1561352457503390565b7fffffffffffffffffffffffffffffffffffffffffffffffffffffffffffffffec36013560601c7f000000000000000000000000000000000000000000000000000000000000000073ffffffffffffffffffffffffffffffffffffffff1633148061364057506040517f8929a8ca00000000000000000000000000000000000000000000000000000000815273ffffffffffffffffffffffffffffffffffffffff82811660048301523360248301527f00000000000000000000000000000000000000000000000000000000000000001690638929a8ca90604401602060405180830381865afa15801561361c573d6000803e3d6000fd5b505050506040513d601f19601f820116820180604052508101906136409190614017565b1561364a57919050565b3391505090565b366000333214806136625750601836105b156136705750600091369150565b3373ffffffffffffffffffffffffffffffffffffffff7f00000000000000000000000000000000000000000000000000000000000000001614806137a5575073ffffffffffffffffffffffffffffffffffffffff7f000000000000000000000000000000000000000000000000000000000000000016638929a8ca367fffffffffffffffffffffffffffffffffffffffffffffffffffffffffffffffec013560601c6040517fffffffff0000000000000000000000000000000000000000000000000000000060e084901b16815273ffffffffffffffffffffffffffffffffffffffff9091166004820152336024820152604401602060405180830381865afa158015613781573d6000803e3d6000fd5b505050506040513d601f19601f820116820180604052508101906137a59190614017565b156137b25761070a6137bb565b50600091369150565b36600061070a7fffffffffffffffffffffffffffffffffffffffffffffffffffffffffffffffec8301828481614039565b7fffffffff00000000000000000000000000000000000000000000000000000000811681146109fe57600080fd5b60006020828403121561382c57600080fd5b8135610a6c816137ec565b60005b8381101561385257818101518382015260200161383a565b50506000910152565b60008151808452613873816020860160208601613837565b601f017fffffffffffffffffffffffffffffffffffffffffffffffffffffffffffffffe0169290920160200192915050565b602081526000610a6c602083018461385b565b803573ffffffffffffffffffffffffffffffffffffffff811681146138dc57600080fd5b919050565b600080604083850312156138f457600080fd5b6138fd836138b8565b946020939093013593505050565b60008083601f84011261391d57600080fd5b50813567ffffffffffffffff81111561393557600080fd5b6020830191508360208260051b850101111561395057600080fd5b9250929050565b6000806000806040858703121561396d57600080fd5b843567ffffffffffffffff8082111561398557600080fd5b6139918883890161390b565b909650945060208701359150808211156139aa57600080fd5b506139b78782880161390b565b95989497509550505050565b6000806000606084860312156139d857600080fd5b6139e1846138b8565b92506139ef602085016138b8565b9150604084013590509250925092565b60008060408385031215613a1257600080fd5b82359150613a22602084016138b8565b90509250929050565b60208152816020820152818360408301376000818301604090810191909152601f9092017fffffffffffffffffffffffffffffffffffffffffffffffffffffffffffffffe0160101919050565b600060208284031215613a8a57600080fd5b5035919050565b600080600080600060608688031215613aa957600080fd5b613ab2866138b8565b9450602086013567ffffffffffffffff80821115613acf57600080fd5b613adb89838a0161390b565b90965094506040880135915080821115613af457600080fd5b50613b018882890161390b565b969995985093965092949392505050565b600060208284031215613b2457600080fd5b610a6c826138b8565b60008083601f840112613b3f57600080fd5b50813567ffffffffffffffff811115613b5757600080fd5b60208301915083602082850101111561395057600080fd5b600080600080600060808688031215613b8757600080fd5b613b90866138b8565b9450613b9e602087016138b8565b935060408601359250606086013567ffffffffffffffff811115613bc157600080fd5b613b0188828901613b2d565b600080600080600080600060e0888a031215613be857600080fd5b613bf1886138b8565b9650613bff602089016138b8565b95506040880135945060608801359350608088013560ff81168114613c2357600080fd5b9699959850939692959460a0840135945060c09093013592915050565b60008060408385031215613c5357600080fd5b613c5c836138b8565b9150613a22602084016138b8565b60008060208385031215613c7d57600080fd5b823567ffffffffffffffff811115613c9457600080fd5b613ca085828601613b2d565b90969095509350505050565b60008060008060608587031215613cc257600080fd5b613ccb856138b8565b935060208501359250604085013567ffffffffffffffff811115613cee57600080fd5b6139b787828801613b2d565b8181038181111561059d577f4e487b7100000000000000000000000000000000000000000000000000000000600052601160045260246000fd5b7f4e487b7100000000000000000000000000000000000000000000000000000000600052604160045260246000fd5b600181811c90821680613d7757607f821691505b602082108103613db0577f4e487b7100000000000000000000000000000000000000000000000000000000600052602260045260246000fd5b50919050565b601f8211156106e357600081815260208120601f850160051c81016020861015613ddd5750805b601f850160051c820191505b818110156118b857828155600101613de9565b815167ffffffffffffffff811115613e1657613e16613d34565b613e2a81613e248454613d63565b84613db6565b602080601f831160018114613e7d5760008415613e475750858301515b7fffffffffffffffffffffffffffffffffffffffffffffffffffffffffffffffff600386901b1c1916600185901b1785556118b8565b6000858152602081207fffffffffffffffffffffffffffffffffffffffffffffffffffffffffffffffe08616915b82811015613eca57888601518255948401946001909101908401613eab565b5085821015613f0657878501517fffffffffffffffffffffffffffffffffffffffffffffffffffffffffffffffff600388901b60f8161c191681555b5050505050600190811b01905550565b7f4e487b7100000000000000000000000000000000000000000000000000000000600052603260045260246000fd5b7f416363657373436f6e74726f6c3a206d697373696e6720270000000000000000815260008251613f7d816018850160208701613837565b7f2720726f6c6500000000000000000000000000000000000000000000000000006018939091019283015250601e01919050565b600073ffffffffffffffffffffffffffffffffffffffff808716835280861660208401525083604083015260806060830152613ff0608083018461385b565b9695505050505050565b60006020828403121561400c57600080fd5b8151610a6c816137ec565b60006020828403121561402957600080fd5b81518015158114610a6c57600080fd5b6000808585111561404957600080fd5b8386111561405657600080fd5b505082019391909203915056fea2646970667358221220ffe569a1195eced8fa7ec1bc689e1e54d5571321409f0570a56ee910a4eabce364736f6c63430008100033",
  "linkReferences": {},
  "deployedLinkReferences": {}
}