{
  "_format": "hh-sol-artifact-1",
  "contractName": "ERC20BurnableMock",
  "sourceName": "contracts/mocks/token/ERC20/ERC20BurnableMock.sol",
  "abi": [
    {
      "inputs": [
        {
          "internalType": "address[]",
          "name": "holders",
          "type": "address[]"
        },
        {
          "internalType": "uint256[]",
          "name": "allocations",
          "type": "uint256[]"
        },
        {
          "internalType": "string",
          "name": "name_",
          "type": "string"
        },
        {
          "internalType": "string",
          "name": "symbol_",
          "type": "string"
        },
        {
          "internalType": "uint8",
          "name": "decimals_",
          "type": "uint8"
        },
        {
          "internalType": "string",
          "name": "tokenURI_",
          "type": "string"
        },
        {
          "internalType": "contract IForwarderRegistry",
          "name": "forwarderRegistry",
          "type": "address"
        }
      ],
      "stateMutability": "nonpayable",
      "type": "constructor"
    },
    {
      "anonymous": false,
      "inputs": [
        {
          "indexed": true,
          "internalType": "address",
          "name": "owner",
          "type": "address"
        },
        {
          "indexed": true,
          "internalType": "address",
          "name": "spender",
          "type": "address"
        },
        {
          "indexed": false,
          "internalType": "uint256",
          "name": "value",
          "type": "uint256"
        }
      ],
      "name": "Approval",
      "type": "event"
    },
    {
      "anonymous": false,
      "inputs": [
        {
          "indexed": true,
          "internalType": "address",
          "name": "previousOwner",
          "type": "address"
        },
        {
          "indexed": true,
          "internalType": "address",
          "name": "newOwner",
          "type": "address"
        }
      ],
      "name": "OwnershipTransferred",
      "type": "event"
    },
    {
      "anonymous": false,
      "inputs": [
        {
          "indexed": false,
          "internalType": "bytes32",
          "name": "role",
          "type": "bytes32"
        },
        {
          "indexed": false,
          "internalType": "address",
          "name": "account",
          "type": "address"
        },
        {
          "indexed": false,
          "internalType": "address",
          "name": "operator",
          "type": "address"
        }
      ],
      "name": "RoleGranted",
      "type": "event"
    },
    {
      "anonymous": false,
      "inputs": [
        {
          "indexed": false,
          "internalType": "bytes32",
          "name": "role",
          "type": "bytes32"
        },
        {
          "indexed": false,
          "internalType": "address",
          "name": "account",
          "type": "address"
        },
        {
          "indexed": false,
          "internalType": "address",
          "name": "operator",
          "type": "address"
        }
      ],
      "name": "RoleRevoked",
      "type": "event"
    },
    {
      "anonymous": false,
      "inputs": [
        {
          "indexed": true,
          "internalType": "address",
          "name": "from",
          "type": "address"
        },
        {
          "indexed": true,
          "internalType": "address",
          "name": "to",
          "type": "address"
        },
        {
          "indexed": false,
          "internalType": "uint256",
          "name": "value",
          "type": "uint256"
        }
      ],
      "name": "Transfer",
      "type": "event"
    },
    {
      "inputs": [],
      "name": "DOMAIN_SEPARATOR",
      "outputs": [
        {
          "internalType": "bytes32",
          "name": "",
          "type": "bytes32"
        }
      ],
      "stateMutability": "view",
      "type": "function"
    },
    {
      "inputs": [],
      "name": "MINTER_ROLE",
      "outputs": [
        {
          "internalType": "bytes32",
          "name": "",
          "type": "bytes32"
        }
      ],
      "stateMutability": "view",
      "type": "function"
    },
    {
      "inputs": [],
      "name": "__msgData",
      "outputs": [
        {
          "internalType": "bytes",
          "name": "",
          "type": "bytes"
        }
      ],
      "stateMutability": "view",
      "type": "function"
    },
    {
      "inputs": [
        {
          "internalType": "address",
          "name": "owner",
          "type": "address"
        },
        {
          "internalType": "address",
          "name": "spender",
          "type": "address"
        }
      ],
      "name": "allowance",
      "outputs": [
        {
          "internalType": "uint256",
          "name": "",
          "type": "uint256"
        }
      ],
      "stateMutability": "view",
      "type": "function"
    },
    {
      "inputs": [
        {
          "internalType": "address",
          "name": "spender",
          "type": "address"
        },
        {
          "internalType": "uint256",
          "name": "value",
          "type": "uint256"
        }
      ],
      "name": "approve",
      "outputs": [
        {
          "internalType": "bool",
          "name": "",
          "type": "bool"
        }
      ],
      "stateMutability": "nonpayable",
      "type": "function"
    },
    {
      "inputs": [
        {
          "internalType": "address",
          "name": "account",
          "type": "address"
        }
      ],
      "name": "balanceOf",
      "outputs": [
        {
          "internalType": "uint256",
          "name": "",
          "type": "uint256"
        }
      ],
      "stateMutability": "view",
      "type": "function"
    },
    {
      "inputs": [
        {
          "internalType": "address[]",
          "name": "owners",
          "type": "address[]"
        },
        {
          "internalType": "uint256[]",
          "name": "values",
          "type": "uint256[]"
        }
      ],
      "name": "batchBurnFrom",
      "outputs": [
        {
          "internalType": "bool",
          "name": "",
          "type": "bool"
        }
      ],
      "stateMutability": "nonpayable",
      "type": "function"
    },
    {
      "inputs": [
        {
          "internalType": "address[]",
          "name": "recipients",
          "type": "address[]"
        },
        {
          "internalType": "uint256[]",
          "name": "values",
          "type": "uint256[]"
        }
      ],
      "name": "batchMint",
      "outputs": [],
      "stateMutability": "nonpayable",
      "type": "function"
    },
    {
      "inputs": [
        {
          "internalType": "address[]",
          "name": "recipients",
          "type": "address[]"
        },
        {
          "internalType": "uint256[]",
          "name": "values",
          "type": "uint256[]"
        }
      ],
      "name": "batchTransfer",
      "outputs": [
        {
          "internalType": "bool",
          "name": "",
          "type": "bool"
        }
      ],
      "stateMutability": "nonpayable",
      "type": "function"
    },
    {
      "inputs": [
        {
          "internalType": "address",
          "name": "from",
          "type": "address"
        },
        {
          "internalType": "address[]",
          "name": "recipients",
          "type": "address[]"
        },
        {
          "internalType": "uint256[]",
          "name": "values",
          "type": "uint256[]"
        }
      ],
      "name": "batchTransferFrom",
      "outputs": [
        {
          "internalType": "bool",
          "name": "",
          "type": "bool"
        }
      ],
      "stateMutability": "nonpayable",
      "type": "function"
    },
    {
      "inputs": [
        {
          "internalType": "uint256",
          "name": "value",
          "type": "uint256"
        }
      ],
      "name": "burn",
      "outputs": [
        {
          "internalType": "bool",
          "name": "",
          "type": "bool"
        }
      ],
      "stateMutability": "nonpayable",
      "type": "function"
    },
    {
      "inputs": [
        {
          "internalType": "address",
          "name": "from",
          "type": "address"
        },
        {
          "internalType": "uint256",
          "name": "value",
          "type": "uint256"
        }
      ],
      "name": "burnFrom",
      "outputs": [
        {
          "internalType": "bool",
          "name": "",
          "type": "bool"
        }
      ],
      "stateMutability": "nonpayable",
      "type": "function"
    },
    {
      "inputs": [],
      "name": "decimals",
      "outputs": [
        {
          "internalType": "uint8",
          "name": "",
          "type": "uint8"
        }
      ],
      "stateMutability": "view",
      "type": "function"
    },
    {
      "inputs": [
        {
          "internalType": "address",
          "name": "spender",
          "type": "address"
        },
        {
          "internalType": "uint256",
          "name": "subtractedValue",
          "type": "uint256"
        }
      ],
      "name": "decreaseAllowance",
      "outputs": [
        {
          "internalType": "bool",
          "name": "",
          "type": "bool"
        }
      ],
      "stateMutability": "nonpayable",
      "type": "function"
    },
    {
      "inputs": [
        {
          "internalType": "bytes32",
          "name": "role",
          "type": "bytes32"
        },
        {
          "internalType": "address",
          "name": "account",
          "type": "address"
        }
      ],
      "name": "grantRole",
      "outputs": [],
      "stateMutability": "nonpayable",
      "type": "function"
    },
    {
      "inputs": [
        {
          "internalType": "bytes32",
          "name": "role",
          "type": "bytes32"
        },
        {
          "internalType": "address",
          "name": "account",
          "type": "address"
        }
      ],
      "name": "hasRole",
      "outputs": [
        {
          "internalType": "bool",
          "name": "",
          "type": "bool"
        }
      ],
      "stateMutability": "view",
      "type": "function"
    },
    {
      "inputs": [
        {
          "internalType": "address",
          "name": "spender",
          "type": "address"
        },
        {
          "internalType": "uint256",
          "name": "addedValue",
          "type": "uint256"
        }
      ],
      "name": "increaseAllowance",
      "outputs": [
        {
          "internalType": "bool",
          "name": "",
          "type": "bool"
        }
      ],
      "stateMutability": "nonpayable",
      "type": "function"
    },
    {
      "inputs": [
        {
          "internalType": "address",
          "name": "to",
          "type": "address"
        },
        {
          "internalType": "uint256",
          "name": "value",
          "type": "uint256"
        }
      ],
      "name": "mint",
      "outputs": [],
      "stateMutability": "nonpayable",
      "type": "function"
    },
    {
      "inputs": [],
      "name": "name",
      "outputs": [
        {
          "internalType": "string",
          "name": "",
          "type": "string"
        }
      ],
      "stateMutability": "view",
      "type": "function"
    },
    {
      "inputs": [
        {
          "internalType": "address",
          "name": "account",
          "type": "address"
        }
      ],
      "name": "nonces",
      "outputs": [
        {
          "internalType": "uint256",
          "name": "",
          "type": "uint256"
        }
      ],
      "stateMutability": "view",
      "type": "function"
    },
    {
      "inputs": [],
      "name": "owner",
      "outputs": [
        {
          "internalType": "address",
          "name": "",
          "type": "address"
        }
      ],
      "stateMutability": "view",
      "type": "function"
    },
    {
      "inputs": [
        {
          "internalType": "address",
          "name": "owner",
          "type": "address"
        },
        {
          "internalType": "address",
          "name": "spender",
          "type": "address"
        },
        {
          "internalType": "uint256",
          "name": "value",
          "type": "uint256"
        },
        {
          "internalType": "uint256",
          "name": "deadline",
          "type": "uint256"
        },
        {
          "internalType": "uint8",
          "name": "v",
          "type": "uint8"
        },
        {
          "internalType": "bytes32",
          "name": "r",
          "type": "bytes32"
        },
        {
          "internalType": "bytes32",
          "name": "s",
          "type": "bytes32"
        }
      ],
      "name": "permit",
      "outputs": [],
      "stateMutability": "nonpayable",
      "type": "function"
    },
    {
      "inputs": [
        {
          "internalType": "bytes32",
          "name": "role",
          "type": "bytes32"
        }
      ],
      "name": "renounceRole",
      "outputs": [],
      "stateMutability": "nonpayable",
      "type": "function"
    },
    {
      "inputs": [
        {
          "internalType": "bytes32",
          "name": "role",
          "type": "bytes32"
        },
        {
          "internalType": "address",
          "name": "account",
          "type": "address"
        }
      ],
      "name": "revokeRole",
      "outputs": [],
      "stateMutability": "nonpayable",
      "type": "function"
    },
    {
      "inputs": [
        {
          "internalType": "address",
          "name": "to",
          "type": "address"
        },
        {
          "internalType": "uint256",
          "name": "value",
          "type": "uint256"
        },
        {
          "internalType": "bytes",
          "name": "data",
          "type": "bytes"
        }
      ],
      "name": "safeTransfer",
      "outputs": [
        {
          "internalType": "bool",
          "name": "",
          "type": "bool"
        }
      ],
      "stateMutability": "nonpayable",
      "type": "function"
    },
    {
      "inputs": [
        {
          "internalType": "address",
          "name": "from",
          "type": "address"
        },
        {
          "internalType": "address",
          "name": "to",
          "type": "address"
        },
        {
          "internalType": "uint256",
          "name": "value",
          "type": "uint256"
        },
        {
          "internalType": "bytes",
          "name": "data",
          "type": "bytes"
        }
      ],
      "name": "safeTransferFrom",
      "outputs": [
        {
          "internalType": "bool",
          "name": "",
          "type": "bool"
        }
      ],
      "stateMutability": "nonpayable",
      "type": "function"
    },
    {
      "inputs": [
        {
          "internalType": "string",
          "name": "uri",
          "type": "string"
        }
      ],
      "name": "setTokenURI",
      "outputs": [],
      "stateMutability": "nonpayable",
      "type": "function"
    },
    {
      "inputs": [
        {
          "internalType": "bytes4",
          "name": "interfaceId",
          "type": "bytes4"
        }
      ],
      "name": "supportsInterface",
      "outputs": [
        {
          "internalType": "bool",
          "name": "",
          "type": "bool"
        }
      ],
      "stateMutability": "view",
      "type": "function"
    },
    {
      "inputs": [],
      "name": "symbol",
      "outputs": [
        {
          "internalType": "string",
          "name": "",
          "type": "string"
        }
      ],
      "stateMutability": "view",
      "type": "function"
    },
    {
      "inputs": [],
      "name": "tokenURI",
      "outputs": [
        {
          "internalType": "string",
          "name": "",
          "type": "string"
        }
      ],
      "stateMutability": "view",
      "type": "function"
    },
    {
      "inputs": [],
      "name": "totalSupply",
      "outputs": [
        {
          "internalType": "uint256",
          "name": "",
          "type": "uint256"
        }
      ],
      "stateMutability": "view",
      "type": "function"
    },
    {
      "inputs": [
        {
          "internalType": "address",
          "name": "to",
          "type": "address"
        },
        {
          "internalType": "uint256",
          "name": "value",
          "type": "uint256"
        }
      ],
      "name": "transfer",
      "outputs": [
        {
          "internalType": "bool",
          "name": "",
          "type": "bool"
        }
      ],
      "stateMutability": "nonpayable",
      "type": "function"
    },
    {
      "inputs": [
        {
          "internalType": "address",
          "name": "from",
          "type": "address"
        },
        {
          "internalType": "address",
          "name": "to",
          "type": "address"
        },
        {
          "internalType": "uint256",
          "name": "value",
          "type": "uint256"
        }
      ],
      "name": "transferFrom",
      "outputs": [
        {
          "internalType": "bool",
          "name": "",
          "type": "bool"
        }
      ],
      "stateMutability": "nonpayable",
      "type": "function"
    },
    {
      "inputs": [
        {
          "internalType": "address",
          "name": "newOwner",
          "type": "address"
        }
      ],
      "name": "transferOwnership",
      "outputs": [],
      "stateMutability": "nonpayable",
      "type": "function"
    }
  ],
  "bytecode": "0x60a06040523480156200001157600080fd5b5060405162004bbd38038062004bbd833981016040819052620000349162000a83565b86868686868686818585858a8a868033848462000076828262000061620001fc60201b620009b01760201c565b6200023260201b620009de179092919060201c565b5050620000a68162000092620002b560201b62000a531760201c565b620002e560201b62000a811790919060201c565b50620000df63144b1f0f60e11b6001620000ca6200036360201b62000b3e1760201c565b6200039360201b62000b6c179092919060201c565b6001600160a01b03166080525062000123915084905083836200010d62000421602090811b62000c6117901c565b6200045160201b62000c8f17909392919060201c565b505050620001548162000140620004b360201b62000d151760201c565b620004e360201b62000d431790919060201c565b506200017f6200016e6200051b60201b62000d841760201c565b6200054b60201b62000db21760201c565b620001a26353f41a9760e01b6001620000ca6200036360201b62000b3e1760201c565b620001c563602993f360e11b6001620000ca6200036360201b62000b3e1760201c565b50505050505050620001ef6320c07ed160e01b6001620000ca6200036360201b62000b3e1760201c565b5050505050505062000c01565b6000806200022c60017f1da92899d3da68bf9787824388a37ea2bfa79780bcef91b9716c390eec8ecbef62000b89565b92915050565b6200024e8282856200057160201b62000de0179092919060201c565b6000620002656200036360201b62000b3e1760201c565b90506200028b6336372b0760e01b6001836200039360201b62000b6c179092919060201c565b620002af634e83a8c360e11b6001836200039360201b62000b6c179092919060201c565b50505050565b6000806200022c60017fc9ed16f33ab3a66c84bfd83099ccb2a8845871e2e1c1928f63797152f0fd54cd62000b89565b6001600160a01b038116156200033c5781546001600160a01b0319166001600160a01b03821690811783556040516000907f8be0079c531659141344cd1fd0a4f28419497f9722a3daafe3b4186f6b6457e0908290a35b6200035f6307f5828d60e41b6001620000ca6200036360201b62000b3e1760201c565b5050565b6000806200022c60017fca9d3e17f264b0f3984e2634e94adb37fa3e6a8103f06aeae6fa59e21c769f5e62000b89565b6001600160e01b03198083169003620003f35760405162461bcd60e51b815260206004820152601f60248201527f496e74657266616365446574656374696f6e3a2077726f6e672076616c75650060448201526064015b60405180910390fd5b6001600160e01b03199190911660009081526020929092526040909120805460ff1916911515919091179055565b6000806200022c60017f335df4119bbb04f056b33eba33b826d3529129e458faf6daa9924b5a8f3b6a8262000b89565b8251620004659085906020860190620007bf565b5081516200047d9060018601906020850190620007bf565b5060028401805460ff191660ff8316179055620002af63a219a02560e01b6001620000ca62000363602090811b62000b3e17901c565b6000806200022c60017ff41bf6a5db26bffdfab174dcf66b31fbba8fdb7e3db040721ce1e62d61839ceb62000b89565b8051620004f79083906020840190620007bf565b506200035f6303c130d960e41b6001620000ca6200036360201b62000b3e1760201c565b6000806200022c60017f93fe0ff7226b064a4a8f0b09910762afb4bc2441835792c021ffd78cd513011e62000b89565b6200056e634ec7fbed60e11b6001620000ca6200036360201b62000b3e1760201c565b50565b815181518114620005c55760405162461bcd60e51b815260206004820152601a60248201527f45524332303a20696e636f6e73697374656e74206172726179730000000000006044820152606401620003ea565b80600003620005d45750505050565b6000805b82811462000750576000858281518110620005f757620005f762000baf565b6020026020010151905060006001600160a01b0316816001600160a01b031603620006655760405162461bcd60e51b815260206004820152601360248201527f45524332303a206d696e7420746f207a65726f000000000000000000000000006044820152606401620003ea565b60008583815181106200067c576200067c62000baf565b60200260200101519050806000146200070457838101848111620006e35760405162461bcd60e51b815260206004820152601660248201527f45524332303a2076616c756573206f766572666c6f77000000000000000000006044820152606401620003ea565b6001600160a01b038316600090815260208a90526040902080548301905593505b6040518181526001600160a01b038316906000907fddf252ad1be2c89b69c2b068fc378daa952ba7f163c4a11628f55a4df523b3ef9060200160405180910390a35050600101620005d8565b508015620007b8576002850154818101818111620007b15760405162461bcd60e51b815260206004820152601660248201527f45524332303a20737570706c79206f766572666c6f77000000000000000000006044820152606401620003ea565b6002870155505b5050505050565b828054620007cd9062000bc5565b90600052602060002090601f016020900481019282620007f157600085556200083c565b82601f106200080c57805160ff19168380011785556200083c565b828001600101855582156200083c579182015b828111156200083c5782518255916020019190600101906200081f565b506200084a9291506200084e565b5090565b5b808211156200084a57600081556001016200084f565b634e487b7160e01b600052604160045260246000fd5b604051601f8201601f191681016001600160401b0381118282101715620008a657620008a662000865565b604052919050565b60006001600160401b03821115620008ca57620008ca62000865565b5060051b60200190565b6001600160a01b03811681146200056e57600080fd5b600082601f830112620008fc57600080fd5b81516020620009156200090f83620008ae565b6200087b565b82815260059290921b840181019181810190868411156200093557600080fd5b8286015b848110156200095d5780516200094f81620008d4565b835291830191830162000939565b509695505050505050565b600082601f8301126200097a57600080fd5b815160206200098d6200090f83620008ae565b82815260059290921b84018101918181019086841115620009ad57600080fd5b8286015b848110156200095d5780518352918301918301620009b1565b600082601f830112620009dc57600080fd5b81516001600160401b03811115620009f857620009f862000865565b602062000a0e601f8301601f191682016200087b565b828152858284870101111562000a2357600080fd5b60005b8381101562000a4357858101830151828201840152820162000a26565b8381111562000a555760008385840101525b5095945050505050565b805160ff8116811462000a7157600080fd5b919050565b805162000a7181620008d4565b600080600080600080600060e0888a03121562000a9f57600080fd5b87516001600160401b038082111562000ab757600080fd5b62000ac58b838c01620008ea565b985060208a015191508082111562000adc57600080fd5b62000aea8b838c0162000968565b975060408a015191508082111562000b0157600080fd5b62000b0f8b838c01620009ca565b965060608a015191508082111562000b2657600080fd5b62000b348b838c01620009ca565b955062000b4460808b0162000a5f565b945060a08a015191508082111562000b5b57600080fd5b5062000b6a8a828b01620009ca565b92505062000b7b60c0890162000a76565b905092959891949750929550565b60008282101562000baa57634e487b7160e01b600052601160045260246000fd5b500390565b634e487b7160e01b600052603260045260246000fd5b600181811c9082168062000bda57607f821691505b60208210810362000bfb57634e487b7160e01b600052602260045260246000fd5b50919050565b608051613f8b62000c32600039600081816132d2015281816133720152818161340601526134700152613f8b6000f3fe608060405234801561001057600080fd5b50600436106102265760003560e01c806379cc67901161012a578063a9059cbb116100bd578063d547741f1161008c578063e0df5b6f11610071578063e0df5b6f146104ab578063eb795549146104be578063f2fde38b146104d157600080fd5b8063d547741f14610485578063dd62ed3e1461049857600080fd5b8063a9059cbb14610425578063b88d4fde14610438578063d505accf1461044b578063d53913931461045e57600080fd5b80638da5cb5b116100f95780638da5cb5b146103ca57806391d14854146103f757806395d89b411461040a578063a457c2d71461041257600080fd5b806379cc67901461037e5780637ecebe001461039157806388d695b2146103a45780638bb9c5bf146103b757600080fd5b806331e66e1e116101bd57806340c10f191161018c5780634885b254116101715780634885b25414610345578063685731071461035857806370a082311461036b57600080fd5b806340c10f191461031f57806342966c681461033257600080fd5b806331e66e1e146102e65780633644e515146102fc57806339509351146103045780633c130d901461031757600080fd5b80631b9a7529116101f95780631b9a75291461029157806323b872dd146102a45780632f2ff15d146102b7578063313ce567146102cc57600080fd5b806301ffc9a71461022b57806306fdde0314610253578063095ea7b31461026857806318160ddd1461027b575b600080fd5b61023e610239366004613657565b6104e4565b60405190151581526020015b60405180910390f35b61025b6104fe565b60405161024a91906136a0565b61023e61027636600461371a565b610515565b61028361053d565b60405190815260200161024a565b61023e61029f3660046138b3565b610551565b61023e6102b2366004613917565b610570565b6102ca6102c5366004613953565b61059b565b005b6102d46105d4565b60405160ff909116815260200161024a565b6102ee6105eb565b60405161024a9291906139c8565b6102836105fe565b61023e61031236600461371a565b610608565b61025b610627565b6102ca61032d36600461371a565b610634565b61023e6103403660046139e4565b610687565b61023e6103533660046139fd565b6106ac565b6102ca6103663660046138b3565b6106cd565b610283610379366004613a71565b61070d565b61023e61038c36600461371a565b610745565b61028361039f366004613a71565b610764565b61023e6103b23660046138b3565b610772565b6102ca6103c53660046139e4565b610791565b6103d26107af565b60405173ffffffffffffffffffffffffffffffffffffffff909116815260200161024a565b61023e610405366004613953565b6107d6565b61025b610821565b61023e61042036600461371a565b610833565b61023e61043336600461371a565b610852565b61023e610446366004613ad5565b610871565b6102ca610459366004613b44565b6108a2565b6102837f6d696e746572000000000000000000000000000000000000000000000000000081565b6102ca610493366004613953565b6108c9565b6102836104a6366004613bb7565b6108f7565b6102ca6104b9366004613be1565b610942565b61023e6104cc366004613c94565b610967565b6102ca6104df366004613a71565b610995565b60006104f8826104f2610b3e565b906110b7565b92915050565b606061051061050b610c61565b611175565b905090565b600061053461052261120b565b848461052c6109b0565b929190611215565b50600192915050565b600061051061054a6109b0565b6002015490565b600061053461055e61120b565b84846105686109b0565b929190611304565b600061059161057d61120b565b8585856105886109b0565b9392919061153b565b5060019392505050565b60006105a561120b565b90506105b9816105b3610a53565b90611586565b6105cf8383836105c7611609565b929190611637565b505050565b60006105106105e1610c61565b6002015460ff1690565b3660006105f661170d565b915091509091565b6000610510611718565b600061053461061561120b565b848461061f6109b0565b9291906117b3565b606061051061050b610d15565b61066f7f6d696e746572000000000000000000000000000000000000000000000000000061066061120b565b610668611609565b919061197f565b610683828261067c6109b0565b9190611a2b565b5050565b60006106a461069461120b565b8361069d6109b0565b9190611ba5565b506001919050565b60006105916106b961120b565b8585856106c46109b0565b93929190611cbb565b6106f97f6d696e746572000000000000000000000000000000000000000000000000000061066061120b565b61068382826107066109b0565b9190610de0565b60006104f88261071b6109b0565b9073ffffffffffffffffffffffffffffffffffffffff166000908152602091909152604090205490565b600061053461075261120b565b848461075c6109b0565b9291906120ea565b60006104f88261071b610d84565b600061053461077f61120b565b84846107896109b0565b929190612134565b6107ac61079c61120b565b826107a5611609565b9190612523565b50565b60006105106107bc610a53565b5473ffffffffffffffffffffffffffffffffffffffff1690565b600061081a83836107e5611609565b60009283526020908152604080842073ffffffffffffffffffffffffffffffffffffffff909316845291905290205460ff1690565b9392505050565b606061051061082e610c61565b6125c7565b600061053461084061120b565b848461084a6109b0565b9291906125d8565b600061053461085f61120b565b84846108696109b0565b92919061272a565b600061089661087e61120b565b878787878761088b6109b0565b95949392919061290b565b50600195945050505050565b6108c0878787878787876108b4610d84565b96959493929190612a5d565b50505050505050565b60006108d361120b565b90506108e1816105b3610a53565b6105cf8383836108ef611609565b929190612d89565b600061081a83836109066109b0565b919073ffffffffffffffffffffffffffffffffffffffff9182166000908152600193909301602090815260408085209290931684525290205490565b61095561094d61120b565b6105b3610a53565b6107ac81610961610d15565b90612e53565b600061098a61097461120b565b868686866109806109b0565b9493929190612e65565b506001949350505050565b6107ac6109a061120b565b826109a9610a53565b9190612fb6565b6000806104f860017f1da92899d3da68bf9787824388a37ea2bfa79780bcef91b9716c390eec8ecbef613d1d565b6109e9838383610de0565b60006109f3610b3e565b9050610a21817f36372b07000000000000000000000000000000000000000000000000000000006001610b6c565b610a4d817f9d075186000000000000000000000000000000000000000000000000000000006001610b6c565b50505050565b6000806104f860017fc9ed16f33ab3a66c84bfd83099ccb2a8845871e2e1c1928f63797152f0fd54cd613d1d565b73ffffffffffffffffffffffffffffffffffffffff811615610b095781547fffffffffffffffffffffffff00000000000000000000000000000000000000001673ffffffffffffffffffffffffffffffffffffffff821690811783556040516000907f8be0079c531659141344cd1fd0a4f28419497f9722a3daafe3b4186f6b6457e0908290a35b6106837f7f5828d0000000000000000000000000000000000000000000000000000000006001610b37610b3e565b9190610b6c565b6000806104f860017fca9d3e17f264b0f3984e2634e94adb37fa3e6a8103f06aeae6fa59e21c769f5e613d1d565b7fffffffff000000000000000000000000000000000000000000000000000000008083169003610bfd576040517f08c379a000000000000000000000000000000000000000000000000000000000815260206004820152601f60248201527f496e74657266616365446574656374696f6e3a2077726f6e672076616c75650060448201526064015b60405180910390fd5b7fffffffff00000000000000000000000000000000000000000000000000000000919091166000908152602092909252604090912080547fffffffffffffffffffffffffffffffffffffffffffffffffffffffffffffff0016911515919091179055565b6000806104f860017f335df4119bbb04f056b33eba33b826d3529129e458faf6daa9924b5a8f3b6a82613d1d565b8251610ca19085906020860190613590565b508151610cb79060018601906020850190613590565b506002840180547fffffffffffffffffffffffffffffffffffffffffffffffffffffffffffffff001660ff8316179055610a4d7fa219a025000000000000000000000000000000000000000000000000000000006001610b37610b3e565b6000806104f860017ff41bf6a5db26bffdfab174dcf66b31fbba8fdb7e3db040721ce1e62d61839ceb613d1d565b8051610d559083906020840190613590565b506106837f3c130d90000000000000000000000000000000000000000000000000000000006001610b37610b3e565b6000806104f860017f93fe0ff7226b064a4a8f0b09910762afb4bc2441835792c021ffd78cd513011e613d1d565b6107ac7f9d8ff7da000000000000000000000000000000000000000000000000000000006001610b37610b3e565b815181518114610e4c576040517f08c379a000000000000000000000000000000000000000000000000000000000815260206004820152601a60248201527f45524332303a20696e636f6e73697374656e74206172726179730000000000006044820152606401610bf4565b80600003610e5a5750505050565b6000805b828114611031576000858281518110610e7957610e79613d34565b60200260200101519050600073ffffffffffffffffffffffffffffffffffffffff168173ffffffffffffffffffffffffffffffffffffffff1603610f19576040517f08c379a000000000000000000000000000000000000000000000000000000000815260206004820152601360248201527f45524332303a206d696e7420746f207a65726f000000000000000000000000006044820152606401610bf4565b6000858381518110610f2d57610f2d613d34565b6020026020010151905080600014610fd957838101848111610fab576040517f08c379a000000000000000000000000000000000000000000000000000000000815260206004820152601660248201527f45524332303a2076616c756573206f766572666c6f77000000000000000000006044820152606401610bf4565b73ffffffffffffffffffffffffffffffffffffffff8316600090815260208a90526040902080548301905593505b60405181815273ffffffffffffffffffffffffffffffffffffffff8316906000907fddf252ad1be2c89b69c2b068fc378daa952ba7f163c4a11628f55a4df523b3ef9060200160405180910390a35050600101610e5e565b5080156110b05760028501548181018181116110a9576040517f08c379a000000000000000000000000000000000000000000000000000000000815260206004820152601660248201527f45524332303a20737570706c79206f766572666c6f77000000000000000000006044820152606401610bf4565b6002870155505b5050505050565b60007fffffffff0000000000000000000000000000000000000000000000000000000080831690036110eb575060006104f8565b7ffe003659000000000000000000000000000000000000000000000000000000007fffffffff0000000000000000000000000000000000000000000000000000000083160161113c575060016104f8565b507fffffffff00000000000000000000000000000000000000000000000000000000166000908152602091909152604090205460ff1690565b606081600001805461118690613d63565b80601f01602080910402602001604051908101604052809291908181526020018280546111b290613d63565b80156111ff5780601f106111d4576101008083540402835291602001916111ff565b820191906000526020600020905b8154815290600101906020018083116111e257829003601f168201915b50505050509050919050565b60006105106130e2565b73ffffffffffffffffffffffffffffffffffffffff8216611292576040517f08c379a000000000000000000000000000000000000000000000000000000000815260206004820152601b60248201527f45524332303a207a65726f2061646472657373207370656e64657200000000006044820152606401610bf4565b73ffffffffffffffffffffffffffffffffffffffff838116600081815260018701602090815260408083209487168084529482529182902085905590518481527f8c5be1e5ebec7d5bd14f71427d1e84f3dd0314c0f7b2291e5b200ac8c7c3b92591015b60405180910390a350505050565b815181518114611370576040517f08c379a000000000000000000000000000000000000000000000000000000000815260206004820152601a60248201527f45524332303a20696e636f6e73697374656e74206172726179730000000000006044820152606401610bf4565b8060000361137e5750610a4d565b6000805b82811461152057600085828151811061139d5761139d613d34565b6020026020010151905060008583815181106113bb576113bb613d34565b602002602001015190508773ffffffffffffffffffffffffffffffffffffffff168273ffffffffffffffffffffffffffffffffffffffff16146114045761140489838a846125d8565b80156114c85773ffffffffffffffffffffffffffffffffffffffff8216600090815260208a9052604090205481810381811061149c576040517f08c379a000000000000000000000000000000000000000000000000000000000815260206004820152601b60248201527f45524332303a20696e73756666696369656e742062616c616e636500000000006044820152606401610bf4565b73ffffffffffffffffffffffffffffffffffffffff8416600090815260208c9052604090205550928301925b60405181815260009073ffffffffffffffffffffffffffffffffffffffff8416907fddf252ad1be2c89b69c2b068fc378daa952ba7f163c4a11628f55a4df523b3ef9060200160405180910390a35050600101611382565b5080156115335760028601805482900390555b505050505050565b8373ffffffffffffffffffffffffffffffffffffffff168373ffffffffffffffffffffffffffffffffffffffff161461157a5761157a858486846125d8565b6110b08584848461272a565b815473ffffffffffffffffffffffffffffffffffffffff828116911614610683576040517f08c379a000000000000000000000000000000000000000000000000000000000815260206004820152601860248201527f4f776e6572736869703a206e6f7420746865206f776e657200000000000000006044820152606401610bf4565b6000806104f860017fc8827d3282af6f37b64c3e9e6f3ac9df286ab0bb0fccd6f8661bf19adb368b23613d1d565b60008381526020858152604080832073ffffffffffffffffffffffffffffffffffffffff8616845290915290205460ff16610a4d5760008381526020858152604080832073ffffffffffffffffffffffffffffffffffffffff8681168086529184529382902080547fffffffffffffffffffffffffffffffffffffffffffffffffffffffffffffff00166001179055815187815292830152918316918101919091527f2f8788117e7eff1d82e926ec794901d17c78024a50270940304540a733656f0d906060015b60405180910390a150505050565b3660006105f66130ec565b6000467f8b73c3c69bb8fe3d512ecc4cf759cc79239f7b179b0ffacaa9a75d522b39400f61174761050b610c61565b80516020918201206040805192830193909352918101919091527fc89efdaa54c0f20c7adf612882df0950f5a951637e0307cdcb4c672f298b8bc66060820152608081018290523060a082015260c0016040516020818303038152906040528051906020012091505090565b73ffffffffffffffffffffffffffffffffffffffff8216611830576040517f08c379a000000000000000000000000000000000000000000000000000000000815260206004820152601b60248201527f45524332303a207a65726f2061646472657373207370656e64657200000000006044820152606401610bf4565b73ffffffffffffffffffffffffffffffffffffffff80841660009081526001860160209081526040808320938616835292905220548115611911578082018181116118d7576040517f08c379a000000000000000000000000000000000000000000000000000000000815260206004820152601960248201527f45524332303a20616c6c6f77616e6365206f766572666c6f77000000000000006044820152606401610bf4565b73ffffffffffffffffffffffffffffffffffffffff8086166000908152600188016020908152604080832093881683529290522081905590505b8273ffffffffffffffffffffffffffffffffffffffff168473ffffffffffffffffffffffffffffffffffffffff167f8c5be1e5ebec7d5bd14f71427d1e84f3dd0314c0f7b2291e5b200ac8c7c3b9258360405161197091815260200190565b60405180910390a35050505050565b60008281526020848152604080832073ffffffffffffffffffffffffffffffffffffffff8516845290915290205460ff166105cf576119bd826130f7565b6040516020016119cd9190613db0565b604080517fffffffffffffffffffffffffffffffffffffffffffffffffffffffffffffffe0818403018152908290527f08c379a0000000000000000000000000000000000000000000000000000000008252610bf4916004016136a0565b73ffffffffffffffffffffffffffffffffffffffff8216611aa8576040517f08c379a000000000000000000000000000000000000000000000000000000000815260206004820152601360248201527f45524332303a206d696e7420746f207a65726f000000000000000000000000006044820152606401610bf4565b8015611b51576002830154818101818111611b1f576040517f08c379a000000000000000000000000000000000000000000000000000000000815260206004820152601660248201527f45524332303a20737570706c79206f766572666c6f77000000000000000000006044820152606401610bf4565b60028501555073ffffffffffffffffffffffffffffffffffffffff821660009081526020849052604090208054820190555b60405181815273ffffffffffffffffffffffffffffffffffffffff8316906000907fddf252ad1be2c89b69c2b068fc378daa952ba7f163c4a11628f55a4df523b3ef906020015b60405180910390a3505050565b8015611c705773ffffffffffffffffffffffffffffffffffffffff8216600090815260208490526040902054818103818110611c3d576040517f08c379a000000000000000000000000000000000000000000000000000000000815260206004820152601b60248201527f45524332303a20696e73756666696369656e742062616c616e636500000000006044820152606401610bf4565b73ffffffffffffffffffffffffffffffffffffffff84166000908152602086905260409020555060028301805482900390555b60405181815260009073ffffffffffffffffffffffffffffffffffffffff8416907fddf252ad1be2c89b69c2b068fc378daa952ba7f163c4a11628f55a4df523b3ef90602001611b98565b815181518114611d27576040517f08c379a000000000000000000000000000000000000000000000000000000000815260206004820152601a60248201527f45524332303a20696e636f6e73697374656e74206172726179730000000000006044820152606401610bf4565b80600003611d3557506110b0565b73ffffffffffffffffffffffffffffffffffffffff84166000908152602087905260408120549080805b848114611ff4576000878281518110611d7a57611d7a613d34565b60200260200101519050600073ffffffffffffffffffffffffffffffffffffffff168173ffffffffffffffffffffffffffffffffffffffff1603611e1a576040517f08c379a000000000000000000000000000000000000000000000000000000000815260206004820152601660248201527f45524332303a20746f207a65726f2061646472657373000000000000000000006044820152606401610bf4565b6000878381518110611e2e57611e2e613d34565b6020026020010151905080600014611f8357848101858111611eac576040517f08c379a000000000000000000000000000000000000000000000000000000000815260206004820152601660248201527f45524332303a2076616c756573206f766572666c6f77000000000000000000006044820152606401610bf4565b8095508273ffffffffffffffffffffffffffffffffffffffff168b73ffffffffffffffffffffffffffffffffffffffff1614611f125773ffffffffffffffffffffffffffffffffffffffff8316600090815260208e905260409020805483019055611f81565b86821115611f7c576040517f08c379a000000000000000000000000000000000000000000000000000000000815260206004820152601b60248201527f45524332303a20696e73756666696369656e742062616c616e636500000000006044820152606401610bf4565b938101935b505b8173ffffffffffffffffffffffffffffffffffffffff168a73ffffffffffffffffffffffffffffffffffffffff167fddf252ad1be2c89b69c2b068fc378daa952ba7f163c4a11628f55a4df523b3ef83604051611fe291815260200190565b60405180910390a35050600101611d5f565b5081158015906120045750808214155b156120a057818303838110612075576040517f08c379a000000000000000000000000000000000000000000000000000000000815260206004820152601b60248201527f45524332303a20696e73756666696369656e742062616c616e636500000000006044820152606401610bf4565b73ffffffffffffffffffffffffffffffffffffffff8816600090815260208b90526040902090820190555b8773ffffffffffffffffffffffffffffffffffffffff168773ffffffffffffffffffffffffffffffffffffffff16146120df576120df89888a856125d8565b505050505050505050565b8273ffffffffffffffffffffffffffffffffffffffff168273ffffffffffffffffffffffffffffffffffffffff161461212957612129848385846125d8565b610a4d848383611ba5565b8151815181146121a0576040517f08c379a000000000000000000000000000000000000000000000000000000000815260206004820152601a60248201527f45524332303a20696e636f6e73697374656e74206172726179730000000000006044820152606401610bf4565b806000036121ae5750610a4d565b73ffffffffffffffffffffffffffffffffffffffff84166000908152602086905260408120549080805b84811461246d5760008782815181106121f3576121f3613d34565b60200260200101519050600073ffffffffffffffffffffffffffffffffffffffff168173ffffffffffffffffffffffffffffffffffffffff1603612293576040517f08c379a000000000000000000000000000000000000000000000000000000000815260206004820152601660248201527f45524332303a20746f207a65726f2061646472657373000000000000000000006044820152606401610bf4565b60008783815181106122a7576122a7613d34565b60200260200101519050806000146123fc57848101858111612325576040517f08c379a000000000000000000000000000000000000000000000000000000000815260206004820152601660248201527f45524332303a2076616c756573206f766572666c6f77000000000000000000006044820152606401610bf4565b8095508273ffffffffffffffffffffffffffffffffffffffff168b73ffffffffffffffffffffffffffffffffffffffff161461238b5773ffffffffffffffffffffffffffffffffffffffff8316600090815260208d9052604090208054830190556123fa565b868211156123f5576040517f08c379a000000000000000000000000000000000000000000000000000000000815260206004820152601b60248201527f45524332303a20696e73756666696369656e742062616c616e636500000000006044820152606401610bf4565b938101935b505b8173ffffffffffffffffffffffffffffffffffffffff168a73ffffffffffffffffffffffffffffffffffffffff167fddf252ad1be2c89b69c2b068fc378daa952ba7f163c4a11628f55a4df523b3ef8360405161245b91815260200190565b60405180910390a350506001016121d8565b50811580159061247d5750808214155b15612519578183038381106124ee576040517f08c379a000000000000000000000000000000000000000000000000000000000815260206004820152601b60248201527f45524332303a20696e73756666696369656e742062616c616e636500000000006044820152606401610bf4565b73ffffffffffffffffffffffffffffffffffffffff8816600090815260208a90526040902090820190555b5050505050505050565b61252e83828461197f565b60008181526020848152604080832073ffffffffffffffffffffffffffffffffffffffff86168085529083529281902080547fffffffffffffffffffffffffffffffffffffffffffffffffffffffffffffff0016905580518481529182018390528101919091527ff6391f5c32d9c69d2a47ea670b442974b53935d1edc7fd64eb21e047a839171b9060600160405180910390a1505050565b606081600101805461118690613d63565b73ffffffffffffffffffffffffffffffffffffffff8216612655576040517f08c379a000000000000000000000000000000000000000000000000000000000815260206004820152601b60248201527f45524332303a207a65726f2061646472657373207370656e64657200000000006044820152606401610bf4565b73ffffffffffffffffffffffffffffffffffffffff80841660009081526001860160209081526040808320938616835292905220547fffffffffffffffffffffffffffffffffffffffffffffffffffffffffffffffff81148015906126b957508115155b15611911578181038181106118d7576040517f08c379a000000000000000000000000000000000000000000000000000000000815260206004820152601d60248201527f45524332303a20696e73756666696369656e7420616c6c6f77616e63650000006044820152606401610bf4565b73ffffffffffffffffffffffffffffffffffffffff82166127a7576040517f08c379a000000000000000000000000000000000000000000000000000000000815260206004820152601660248201527f45524332303a20746f207a65726f2061646472657373000000000000000000006044820152606401610bf4565b80156128ac5773ffffffffffffffffffffffffffffffffffffffff831660009081526020859052604090205481810381811061283f576040517f08c379a000000000000000000000000000000000000000000000000000000000815260206004820152601b60248201527f45524332303a20696e73756666696369656e742062616c616e636500000000006044820152606401610bf4565b8373ffffffffffffffffffffffffffffffffffffffff168573ffffffffffffffffffffffffffffffffffffffff16146128a95773ffffffffffffffffffffffffffffffffffffffff8086166000908152602088905260408082208490559186168152208054840190555b50505b8173ffffffffffffffffffffffffffffffffffffffff168373ffffffffffffffffffffffffffffffffffffffff167fddf252ad1be2c89b69c2b068fc378daa952ba7f163c4a11628f55a4df523b3ef836040516112f691815260200190565b612918878787878761153b565b73ffffffffffffffffffffffffffffffffffffffff84163b156108c0576040517f4fc35859000000000000000000000000000000000000000000000000000000008082529073ffffffffffffffffffffffffffffffffffffffff861690634fc3585990612991908a908a90899089908990600401613e1c565b6020604051808303816000875af11580156129b0573d6000803e3d6000fd5b505050506040513d601f19601f820116820180604052508101906129d49190613e67565b7fffffffff0000000000000000000000000000000000000000000000000000000016146108c0576040517f08c379a000000000000000000000000000000000000000000000000000000000815260206004820152601760248201527f45524332303a207472616e7366657220726566757365640000000000000000006044820152606401610bf4565b73ffffffffffffffffffffffffffffffffffffffff8716612ada576040517f08c379a000000000000000000000000000000000000000000000000000000000815260206004820152601960248201527f45524332303a207a65726f2061646472657373206f776e6572000000000000006044820152606401610bf4565b83421115612b44576040517f08c379a000000000000000000000000000000000000000000000000000000000815260206004820152601560248201527f45524332303a2065787069726564207065726d697400000000000000000000006044820152606401610bf4565b73ffffffffffffffffffffffffffffffffffffffff8716600090815260208990526040812080547f6e71edae12b1b97f4d1f60370fef10105fa2faae0126114a169c64845d6126c9918a918a918a919086612b9e83613e84565b9091555060408051602081019690965273ffffffffffffffffffffffffffffffffffffffff94851690860152929091166060840152608083015260a082015260c0810186905260e0016040516020818303038152906040528051906020012090506000612c09611718565b6040517f19010000000000000000000000000000000000000000000000000000000000006020820152602281019190915260428101839052606201604080517fffffffffffffffffffffffffffffffffffffffffffffffffffffffffffffffe08184030181528282528051602091820120600080855291840180845281905260ff89169284019290925260608301879052608083018690529092509060019060a0016020604051602081039080840390855afa158015612ccd573d6000803e3d6000fd5b5050506020604051035190508973ffffffffffffffffffffffffffffffffffffffff168173ffffffffffffffffffffffffffffffffffffffff1614612d6e576040517f08c379a000000000000000000000000000000000000000000000000000000000815260206004820152601560248201527f45524332303a20696e76616c6964207065726d697400000000000000000000006044820152606401610bf4565b612d7c8a8a8a61052c6109b0565b5050505050505050505050565b60008381526020858152604080832073ffffffffffffffffffffffffffffffffffffffff8616845290915290205460ff1615610a4d5760008381526020858152604080832073ffffffffffffffffffffffffffffffffffffffff8681168086529184529382902080547fffffffffffffffffffffffffffffffffffffffffffffffffffffffffffffff00169055815187815292830152918316918101919091527ff6391f5c32d9c69d2a47ea670b442974b53935d1edc7fd64eb21e047a839171b906060016116ff565b80516105cf9083906020840190613590565b612e718686868661272a565b73ffffffffffffffffffffffffffffffffffffffff84163b15611533576040517f4fc35859000000000000000000000000000000000000000000000000000000008082529073ffffffffffffffffffffffffffffffffffffffff861690634fc3585990612eea9089908190899089908990600401613e1c565b6020604051808303816000875af1158015612f09573d6000803e3d6000fd5b505050506040513d601f19601f82011682018060405250810190612f2d9190613e67565b7fffffffff000000000000000000000000000000000000000000000000000000001614611533576040517f08c379a000000000000000000000000000000000000000000000000000000000815260206004820152601760248201527f45524332303a207472616e7366657220726566757365640000000000000000006044820152606401610bf4565b825473ffffffffffffffffffffffffffffffffffffffff908116908316811461303b576040517f08c379a000000000000000000000000000000000000000000000000000000000815260206004820152601860248201527f4f776e6572736869703a206e6f7420746865206f776e657200000000000000006044820152606401610bf4565b8173ffffffffffffffffffffffffffffffffffffffff168173ffffffffffffffffffffffffffffffffffffffff1614610a4d5783547fffffffffffffffffffffffff00000000000000000000000000000000000000001673ffffffffffffffffffffffffffffffffffffffff8381169182178655604051908316907f8be0079c531659141344cd1fd0a4f28419497f9722a3daafe3b4186f6b6457e090600090a350505050565b6000610510613281565b3660006105f661328b565b6060600082900361311657505060408051602081019091526000815290565b60008260405160200161312b91815260200190565b604080517fffffffffffffffffffffffffffffffffffffffffffffffffffffffffffffffe08184030181529190529050601f5b81818151811061317057613170613d34565b01602001517fff00000000000000000000000000000000000000000000000000000000000000166000036131ae576131a781613ebc565b905061315e565b60006131bb826001613ef1565b67ffffffffffffffff8111156131d3576131d3613744565b6040519080825280601f01601f1916602001820160405280156131fd576020820181803683370190505b50905060005b8281116132785783818151811061321c5761321c613d34565b602001015160f81c60f81b82828151811061323957613239613d34565b60200101907effffffffffffffffffffffffffffffffffffffffffffffffffffffffffffff1916908160001a90535061327181613e84565b9050613203565b50949350505050565b6000610510613296565b3660006105f66133ee565b6000333281036132a557919050565b6000367fffffffffffffffffffffffffffffffffffffffffffffffffffffffffffffffec013560601c90507f000000000000000000000000000000000000000000000000000000000000000073ffffffffffffffffffffffffffffffffffffffff168273ffffffffffffffffffffffffffffffffffffffff1614806133dd57506040517fe60125d600000000000000000000000000000000000000000000000000000000815273ffffffffffffffffffffffffffffffffffffffff828116600483015283811660248301527f0000000000000000000000000000000000000000000000000000000000000000169063e60125d690604401602060405180830381865afa1580156133b9573d6000803e3d6000fd5b505050506040513d601f19601f820116820180604052508101906133dd9190613f09565b156133e85792915050565b50919050565b3660003332810361340457506000923692509050565b7f000000000000000000000000000000000000000000000000000000000000000073ffffffffffffffffffffffffffffffffffffffff168173ffffffffffffffffffffffffffffffffffffffff161480613551575073ffffffffffffffffffffffffffffffffffffffff7f00000000000000000000000000000000000000000000000000000000000000001663e60125d6367fffffffffffffffffffffffffffffffffffffffffffffffffffffffffffffffec013560601c6040517fffffffff0000000000000000000000000000000000000000000000000000000060e084901b16815273ffffffffffffffffffffffffffffffffffffffff91821660048201529084166024820152604401602060405180830381865afa15801561352d573d6000803e3d6000fd5b505050506040513d601f19601f820116820180604052508101906135519190613f09565b156135675761355e613572565b92509250509091565b506000923692509050565b366000808083613583601482613d1d565b926105f693929190613f2b565b82805461359c90613d63565b90600052602060002090601f0160209004810192826135be5760008555613604565b82601f106135d757805160ff1916838001178555613604565b82800160010185558215613604579182015b828111156136045782518255916020019190600101906135e9565b50613610929150613614565b5090565b5b808211156136105760008155600101613615565b7fffffffff00000000000000000000000000000000000000000000000000000000811681146107ac57600080fd5b60006020828403121561366957600080fd5b813561081a81613629565b60005b8381101561368f578181015183820152602001613677565b83811115610a4d5750506000910152565b60208152600082518060208401526136bf816040850160208701613674565b601f017fffffffffffffffffffffffffffffffffffffffffffffffffffffffffffffffe0169190910160400192915050565b803573ffffffffffffffffffffffffffffffffffffffff8116811461371557600080fd5b919050565b6000806040838503121561372d57600080fd5b613736836136f1565b946020939093013593505050565b7f4e487b7100000000000000000000000000000000000000000000000000000000600052604160045260246000fd5b604051601f82017fffffffffffffffffffffffffffffffffffffffffffffffffffffffffffffffe016810167ffffffffffffffff811182821017156137ba576137ba613744565b604052919050565b600067ffffffffffffffff8211156137dc576137dc613744565b5060051b60200190565b600082601f8301126137f757600080fd5b8135602061380c613807836137c2565b613773565b82815260059290921b8401810191818101908684111561382b57600080fd5b8286015b8481101561384d57613840816136f1565b835291830191830161382f565b509695505050505050565b600082601f83011261386957600080fd5b81356020613879613807836137c2565b82815260059290921b8401810191818101908684111561389857600080fd5b8286015b8481101561384d578035835291830191830161389c565b600080604083850312156138c657600080fd5b823567ffffffffffffffff808211156138de57600080fd5b6138ea868387016137e6565b9350602085013591508082111561390057600080fd5b5061390d85828601613858565b9150509250929050565b60008060006060848603121561392c57600080fd5b613935846136f1565b9250613943602085016136f1565b9150604084013590509250925092565b6000806040838503121561396657600080fd5b82359150613976602084016136f1565b90509250929050565b8183528181602085013750600060208284010152600060207fffffffffffffffffffffffffffffffffffffffffffffffffffffffffffffffe0601f840116840101905092915050565b6020815260006139dc60208301848661397f565b949350505050565b6000602082840312156139f657600080fd5b5035919050565b600080600060608486031215613a1257600080fd5b613a1b846136f1565b9250602084013567ffffffffffffffff80821115613a3857600080fd5b613a44878388016137e6565b93506040860135915080821115613a5a57600080fd5b50613a6786828701613858565b9150509250925092565b600060208284031215613a8357600080fd5b61081a826136f1565b60008083601f840112613a9e57600080fd5b50813567ffffffffffffffff811115613ab657600080fd5b602083019150836020828501011115613ace57600080fd5b9250929050565b600080600080600060808688031215613aed57600080fd5b613af6866136f1565b9450613b04602087016136f1565b935060408601359250606086013567ffffffffffffffff811115613b2757600080fd5b613b3388828901613a8c565b969995985093965092949392505050565b600080600080600080600060e0888a031215613b5f57600080fd5b613b68886136f1565b9650613b76602089016136f1565b95506040880135945060608801359350608088013560ff81168114613b9a57600080fd5b9699959850939692959460a0840135945060c09093013592915050565b60008060408385031215613bca57600080fd5b613bd3836136f1565b9150613976602084016136f1565b60006020808385031215613bf457600080fd5b823567ffffffffffffffff80821115613c0c57600080fd5b818501915085601f830112613c2057600080fd5b813581811115613c3257613c32613744565b613c62847fffffffffffffffffffffffffffffffffffffffffffffffffffffffffffffffe0601f84011601613773565b91508082528684828501011115613c7857600080fd5b8084840185840137600090820190930192909252509392505050565b60008060008060608587031215613caa57600080fd5b613cb3856136f1565b935060208501359250604085013567ffffffffffffffff811115613cd657600080fd5b613ce287828801613a8c565b95989497509550505050565b7f4e487b7100000000000000000000000000000000000000000000000000000000600052601160045260246000fd5b600082821015613d2f57613d2f613cee565b500390565b7f4e487b7100000000000000000000000000000000000000000000000000000000600052603260045260246000fd5b600181811c90821680613d7757607f821691505b6020821081036133e8577f4e487b7100000000000000000000000000000000000000000000000000000000600052602260045260246000fd5b7f416363657373436f6e74726f6c3a206d697373696e6720270000000000000000815260008251613de8816018850160208701613674565b7f2720726f6c6500000000000000000000000000000000000000000000000000006018939091019283015250601e01919050565b600073ffffffffffffffffffffffffffffffffffffffff808816835280871660208401525084604083015260806060830152613e5c60808301848661397f565b979650505050505050565b600060208284031215613e7957600080fd5b815161081a81613629565b60007fffffffffffffffffffffffffffffffffffffffffffffffffffffffffffffffff8203613eb557613eb5613cee565b5060010190565b600081613ecb57613ecb613cee565b507fffffffffffffffffffffffffffffffffffffffffffffffffffffffffffffffff0190565b60008219821115613f0457613f04613cee565b500190565b600060208284031215613f1b57600080fd5b8151801515811461081a57600080fd5b60008085851115613f3b57600080fd5b83861115613f4857600080fd5b505082019391909203915056fea2646970667358221220bdecc325101490ea20c00d383efa10f87adc8df78c6f25892be0e30e71946d4b64736f6c634300080e0033",
  "linkReferences": {},
  "deployedLinkReferences": {}
}