{
  "_format": "hh-sol-artifact-1",
  "contractName": "ERC20BurnableMock",
  "sourceName": "contracts/mocks/token/ERC20/ERC20BurnableMock.sol",
  "abi": [
    {
      "inputs": [
        {
          "internalType": "address[]",
          "name": "holders",
          "type": "address[]"
        },
        {
          "internalType": "uint256[]",
          "name": "allocations",
          "type": "uint256[]"
        },
        {
          "internalType": "string",
          "name": "tokenName",
          "type": "string"
        },
        {
          "internalType": "string",
          "name": "tokenSymbol",
          "type": "string"
        },
        {
          "internalType": "uint8",
          "name": "tokenDecimals",
          "type": "uint8"
        },
        {
          "internalType": "string",
          "name": "uri",
          "type": "string"
        },
        {
          "internalType": "contract IForwarderRegistry",
          "name": "forwarderRegistry",
          "type": "address"
        }
      ],
      "stateMutability": "nonpayable",
      "type": "constructor"
    },
    {
      "anonymous": false,
      "inputs": [
        {
          "indexed": true,
          "internalType": "address",
          "name": "owner",
          "type": "address"
        },
        {
          "indexed": true,
          "internalType": "address",
          "name": "spender",
          "type": "address"
        },
        {
          "indexed": false,
          "internalType": "uint256",
          "name": "value",
          "type": "uint256"
        }
      ],
      "name": "Approval",
      "type": "event"
    },
    {
      "anonymous": false,
      "inputs": [
        {
          "indexed": true,
          "internalType": "address",
          "name": "previousOwner",
          "type": "address"
        },
        {
          "indexed": true,
          "internalType": "address",
          "name": "newOwner",
          "type": "address"
        }
      ],
      "name": "OwnershipTransferred",
      "type": "event"
    },
    {
      "anonymous": false,
      "inputs": [
        {
          "indexed": false,
          "internalType": "bytes32",
          "name": "role",
          "type": "bytes32"
        },
        {
          "indexed": false,
          "internalType": "address",
          "name": "account",
          "type": "address"
        },
        {
          "indexed": false,
          "internalType": "address",
          "name": "operator",
          "type": "address"
        }
      ],
      "name": "RoleGranted",
      "type": "event"
    },
    {
      "anonymous": false,
      "inputs": [
        {
          "indexed": false,
          "internalType": "bytes32",
          "name": "role",
          "type": "bytes32"
        },
        {
          "indexed": false,
          "internalType": "address",
          "name": "account",
          "type": "address"
        },
        {
          "indexed": false,
          "internalType": "address",
          "name": "operator",
          "type": "address"
        }
      ],
      "name": "RoleRevoked",
      "type": "event"
    },
    {
      "anonymous": false,
      "inputs": [
        {
          "indexed": true,
          "internalType": "address",
          "name": "from",
          "type": "address"
        },
        {
          "indexed": true,
          "internalType": "address",
          "name": "to",
          "type": "address"
        },
        {
          "indexed": false,
          "internalType": "uint256",
          "name": "value",
          "type": "uint256"
        }
      ],
      "name": "Transfer",
      "type": "event"
    },
    {
      "inputs": [],
      "name": "DOMAIN_SEPARATOR",
      "outputs": [
        {
          "internalType": "bytes32",
          "name": "",
          "type": "bytes32"
        }
      ],
      "stateMutability": "view",
      "type": "function"
    },
    {
      "inputs": [],
      "name": "MINTER_ROLE",
      "outputs": [
        {
          "internalType": "bytes32",
          "name": "",
          "type": "bytes32"
        }
      ],
      "stateMutability": "view",
      "type": "function"
    },
    {
      "inputs": [],
      "name": "__msgData",
      "outputs": [
        {
          "internalType": "bytes",
          "name": "",
          "type": "bytes"
        }
      ],
      "stateMutability": "view",
      "type": "function"
    },
    {
      "inputs": [
        {
          "internalType": "address",
          "name": "owner",
          "type": "address"
        },
        {
          "internalType": "address",
          "name": "spender",
          "type": "address"
        }
      ],
      "name": "allowance",
      "outputs": [
        {
          "internalType": "uint256",
          "name": "value",
          "type": "uint256"
        }
      ],
      "stateMutability": "view",
      "type": "function"
    },
    {
      "inputs": [
        {
          "internalType": "address",
          "name": "spender",
          "type": "address"
        },
        {
          "internalType": "uint256",
          "name": "value",
          "type": "uint256"
        }
      ],
      "name": "approve",
      "outputs": [
        {
          "internalType": "bool",
          "name": "result",
          "type": "bool"
        }
      ],
      "stateMutability": "nonpayable",
      "type": "function"
    },
    {
      "inputs": [
        {
          "internalType": "address",
          "name": "owner",
          "type": "address"
        }
      ],
      "name": "balanceOf",
      "outputs": [
        {
          "internalType": "uint256",
          "name": "balance",
          "type": "uint256"
        }
      ],
      "stateMutability": "view",
      "type": "function"
    },
    {
      "inputs": [
        {
          "internalType": "address[]",
          "name": "owners",
          "type": "address[]"
        },
        {
          "internalType": "uint256[]",
          "name": "values",
          "type": "uint256[]"
        }
      ],
      "name": "batchBurnFrom",
      "outputs": [
        {
          "internalType": "bool",
          "name": "",
          "type": "bool"
        }
      ],
      "stateMutability": "nonpayable",
      "type": "function"
    },
    {
      "inputs": [
        {
          "internalType": "address[]",
          "name": "recipients",
          "type": "address[]"
        },
        {
          "internalType": "uint256[]",
          "name": "values",
          "type": "uint256[]"
        }
      ],
      "name": "batchMint",
      "outputs": [],
      "stateMutability": "nonpayable",
      "type": "function"
    },
    {
      "inputs": [
        {
          "internalType": "address[]",
          "name": "recipients",
          "type": "address[]"
        },
        {
          "internalType": "uint256[]",
          "name": "values",
          "type": "uint256[]"
        }
      ],
      "name": "batchTransfer",
      "outputs": [
        {
          "internalType": "bool",
          "name": "",
          "type": "bool"
        }
      ],
      "stateMutability": "nonpayable",
      "type": "function"
    },
    {
      "inputs": [
        {
          "internalType": "address",
          "name": "from",
          "type": "address"
        },
        {
          "internalType": "address[]",
          "name": "recipients",
          "type": "address[]"
        },
        {
          "internalType": "uint256[]",
          "name": "values",
          "type": "uint256[]"
        }
      ],
      "name": "batchTransferFrom",
      "outputs": [
        {
          "internalType": "bool",
          "name": "",
          "type": "bool"
        }
      ],
      "stateMutability": "nonpayable",
      "type": "function"
    },
    {
      "inputs": [
        {
          "internalType": "uint256",
          "name": "value",
          "type": "uint256"
        }
      ],
      "name": "burn",
      "outputs": [
        {
          "internalType": "bool",
          "name": "",
          "type": "bool"
        }
      ],
      "stateMutability": "nonpayable",
      "type": "function"
    },
    {
      "inputs": [
        {
          "internalType": "address",
          "name": "from",
          "type": "address"
        },
        {
          "internalType": "uint256",
          "name": "value",
          "type": "uint256"
        }
      ],
      "name": "burnFrom",
      "outputs": [
        {
          "internalType": "bool",
          "name": "",
          "type": "bool"
        }
      ],
      "stateMutability": "nonpayable",
      "type": "function"
    },
    {
      "inputs": [],
      "name": "decimals",
      "outputs": [
        {
          "internalType": "uint8",
          "name": "",
          "type": "uint8"
        }
      ],
      "stateMutability": "view",
      "type": "function"
    },
    {
      "inputs": [
        {
          "internalType": "address",
          "name": "spender",
          "type": "address"
        },
        {
          "internalType": "uint256",
          "name": "subtractedValue",
          "type": "uint256"
        }
      ],
      "name": "decreaseAllowance",
      "outputs": [
        {
          "internalType": "bool",
          "name": "result",
          "type": "bool"
        }
      ],
      "stateMutability": "nonpayable",
      "type": "function"
    },
    {
      "inputs": [],
      "name": "forwarderRegistry",
      "outputs": [
        {
          "internalType": "contract IForwarderRegistry",
          "name": "",
          "type": "address"
        }
      ],
      "stateMutability": "view",
      "type": "function"
    },
    {
      "inputs": [
        {
          "internalType": "bytes32",
          "name": "role",
          "type": "bytes32"
        },
        {
          "internalType": "address",
          "name": "account",
          "type": "address"
        }
      ],
      "name": "grantRole",
      "outputs": [],
      "stateMutability": "nonpayable",
      "type": "function"
    },
    {
      "inputs": [
        {
          "internalType": "bytes32",
          "name": "role",
          "type": "bytes32"
        },
        {
          "internalType": "address",
          "name": "account",
          "type": "address"
        }
      ],
      "name": "hasRole",
      "outputs": [
        {
          "internalType": "bool",
          "name": "",
          "type": "bool"
        }
      ],
      "stateMutability": "view",
      "type": "function"
    },
    {
      "inputs": [
        {
          "internalType": "address",
          "name": "spender",
          "type": "address"
        },
        {
          "internalType": "uint256",
          "name": "addedValue",
          "type": "uint256"
        }
      ],
      "name": "increaseAllowance",
      "outputs": [
        {
          "internalType": "bool",
          "name": "result",
          "type": "bool"
        }
      ],
      "stateMutability": "nonpayable",
      "type": "function"
    },
    {
      "inputs": [
        {
          "internalType": "address",
          "name": "forwarder",
          "type": "address"
        }
      ],
      "name": "isTrustedForwarder",
      "outputs": [
        {
          "internalType": "bool",
          "name": "",
          "type": "bool"
        }
      ],
      "stateMutability": "view",
      "type": "function"
    },
    {
      "inputs": [
        {
          "internalType": "address",
          "name": "to",
          "type": "address"
        },
        {
          "internalType": "uint256",
          "name": "value",
          "type": "uint256"
        }
      ],
      "name": "mint",
      "outputs": [],
      "stateMutability": "nonpayable",
      "type": "function"
    },
    {
      "inputs": [],
      "name": "name",
      "outputs": [
        {
          "internalType": "string",
          "name": "",
          "type": "string"
        }
      ],
      "stateMutability": "view",
      "type": "function"
    },
    {
      "inputs": [
        {
          "internalType": "address",
          "name": "owner",
          "type": "address"
        }
      ],
      "name": "nonces",
      "outputs": [
        {
          "internalType": "uint256",
          "name": "",
          "type": "uint256"
        }
      ],
      "stateMutability": "view",
      "type": "function"
    },
    {
      "inputs": [],
      "name": "owner",
      "outputs": [
        {
          "internalType": "address",
          "name": "",
          "type": "address"
        }
      ],
      "stateMutability": "view",
      "type": "function"
    },
    {
      "inputs": [
        {
          "internalType": "address",
          "name": "owner",
          "type": "address"
        },
        {
          "internalType": "address",
          "name": "spender",
          "type": "address"
        },
        {
          "internalType": "uint256",
          "name": "value",
          "type": "uint256"
        },
        {
          "internalType": "uint256",
          "name": "deadline",
          "type": "uint256"
        },
        {
          "internalType": "uint8",
          "name": "v",
          "type": "uint8"
        },
        {
          "internalType": "bytes32",
          "name": "r",
          "type": "bytes32"
        },
        {
          "internalType": "bytes32",
          "name": "s",
          "type": "bytes32"
        }
      ],
      "name": "permit",
      "outputs": [],
      "stateMutability": "nonpayable",
      "type": "function"
    },
    {
      "inputs": [
        {
          "internalType": "bytes32",
          "name": "role",
          "type": "bytes32"
        }
      ],
      "name": "renounceRole",
      "outputs": [],
      "stateMutability": "nonpayable",
      "type": "function"
    },
    {
      "inputs": [
        {
          "internalType": "bytes32",
          "name": "role",
          "type": "bytes32"
        },
        {
          "internalType": "address",
          "name": "account",
          "type": "address"
        }
      ],
      "name": "revokeRole",
      "outputs": [],
      "stateMutability": "nonpayable",
      "type": "function"
    },
    {
      "inputs": [
        {
          "internalType": "address",
          "name": "to",
          "type": "address"
        },
        {
          "internalType": "uint256",
          "name": "value",
          "type": "uint256"
        },
        {
          "internalType": "bytes",
          "name": "data",
          "type": "bytes"
        }
      ],
      "name": "safeTransfer",
      "outputs": [
        {
          "internalType": "bool",
          "name": "",
          "type": "bool"
        }
      ],
      "stateMutability": "nonpayable",
      "type": "function"
    },
    {
      "inputs": [
        {
          "internalType": "address",
          "name": "from",
          "type": "address"
        },
        {
          "internalType": "address",
          "name": "to",
          "type": "address"
        },
        {
          "internalType": "uint256",
          "name": "value",
          "type": "uint256"
        },
        {
          "internalType": "bytes",
          "name": "data",
          "type": "bytes"
        }
      ],
      "name": "safeTransferFrom",
      "outputs": [
        {
          "internalType": "bool",
          "name": "",
          "type": "bool"
        }
      ],
      "stateMutability": "nonpayable",
      "type": "function"
    },
    {
      "inputs": [
        {
          "internalType": "string",
          "name": "uri",
          "type": "string"
        }
      ],
      "name": "setTokenURI",
      "outputs": [],
      "stateMutability": "nonpayable",
      "type": "function"
    },
    {
      "inputs": [
        {
          "internalType": "bytes4",
          "name": "interfaceId",
          "type": "bytes4"
        }
      ],
      "name": "supportsInterface",
      "outputs": [
        {
          "internalType": "bool",
          "name": "",
          "type": "bool"
        }
      ],
      "stateMutability": "view",
      "type": "function"
    },
    {
      "inputs": [],
      "name": "symbol",
      "outputs": [
        {
          "internalType": "string",
          "name": "",
          "type": "string"
        }
      ],
      "stateMutability": "view",
      "type": "function"
    },
    {
      "inputs": [],
      "name": "tokenURI",
      "outputs": [
        {
          "internalType": "string",
          "name": "",
          "type": "string"
        }
      ],
      "stateMutability": "view",
      "type": "function"
    },
    {
      "inputs": [],
      "name": "totalSupply",
      "outputs": [
        {
          "internalType": "uint256",
          "name": "supply",
          "type": "uint256"
        }
      ],
      "stateMutability": "view",
      "type": "function"
    },
    {
      "inputs": [
        {
          "internalType": "address",
          "name": "to",
          "type": "address"
        },
        {
          "internalType": "uint256",
          "name": "value",
          "type": "uint256"
        }
      ],
      "name": "transfer",
      "outputs": [
        {
          "internalType": "bool",
          "name": "result",
          "type": "bool"
        }
      ],
      "stateMutability": "nonpayable",
      "type": "function"
    },
    {
      "inputs": [
        {
          "internalType": "address",
          "name": "from",
          "type": "address"
        },
        {
          "internalType": "address",
          "name": "to",
          "type": "address"
        },
        {
          "internalType": "uint256",
          "name": "value",
          "type": "uint256"
        }
      ],
      "name": "transferFrom",
      "outputs": [
        {
          "internalType": "bool",
          "name": "result",
          "type": "bool"
        }
      ],
      "stateMutability": "nonpayable",
      "type": "function"
    },
    {
      "inputs": [
        {
          "internalType": "address",
          "name": "newOwner",
          "type": "address"
        }
      ],
      "name": "transferOwnership",
      "outputs": [],
      "stateMutability": "nonpayable",
      "type": "function"
    }
  ],
  "bytecode": "0x60a06040523480156200001157600080fd5b5060405162004d3238038062004d328339810160408190526200003491620009e2565b86868686868686818585858a8a86808033858562000077828262000062620001a860201b62000acd1760201c565b620001de60201b62000afb179092919060201c565b5050620000a781620000936200026160201b62000b6a1760201c565b6200029160201b62000b981790919060201c565b50620000bd6200032460201b62000c551760201c565b806001600160a01b03166080816001600160a01b03168152505050505050506200010e838383620000f86200034960201b62000c851760201c565b6200037960201b62000cb317909392919060201c565b5050506200013f816200012b620003cd60201b62000d2b1760201c565b620003fd60201b62000d591790919060201c565b50620001556200042e60201b62000d931760201c565b6200016a6200045160201b62000dc11760201c565b6200017f6200047460201b62000def1760201c565b505050505050506200019b6200049760201b62000e1d1760201c565b5050505050505062000c7b565b600080620001d860017f1da92899d3da68bf9787824388a37ea2bfa79780bcef91b9716c390eec8ecbef62000ae8565b92915050565b620001fa828285620004ba60201b62000e4b179092919060201c565b6000620002116200070c60201b620011271760201c565b9050620002376336372b0760e01b6001836200073c60201b62001155179092919060201c565b6200025b634e83a8c360e11b6001836200073c60201b62001155179092919060201c565b50505050565b600080620001d860017fc9ed16f33ab3a66c84bfd83099ccb2a8845871e2e1c1928f63797152f0fd54cd62000ae8565b6001600160a01b03811615620002e85781546001600160a01b0319166001600160a01b03821690811783556040516000907f8be0079c531659141344cd1fd0a4f28419497f9722a3daafe3b4186f6b6457e0908290a35b620003206307f5828d60e41b60016200030b6200070c60201b620011271760201c565b6200073c60201b62001155179092919060201c565b5050565b6200034763144b1f0f60e11b60016200030b6200070c60201b620011271760201c565b565b600080620001d860017f335df4119bbb04f056b33eba33b826d3529129e458faf6daa9924b5a8f3b6a8262000ae8565b8362000386848262000b99565b506001840162000397838262000b99565b5060028401805460ff191660ff83161790556200025b63a219a02560e01b60016200030b6200070c602090811b6200112717901c565b600080620001d860017ff41bf6a5db26bffdfab174dcf66b31fbba8fdb7e3db040721ce1e62d61839ceb62000ae8565b816200040a828262000b99565b50620003206303c130d960e41b60016200030b6200070c60201b620011271760201c565b62000347634ec7fbed60e11b60016200030b6200070c60201b620011271760201c565b620003476353f41a9760e01b60016200030b6200070c60201b620011271760201c565b6200034763602993f360e11b60016200030b6200070c60201b620011271760201c565b620003476320c07ed160e01b60016200030b6200070c60201b620011271760201c565b815181518114620005125760405162461bcd60e51b815260206004820152601a60248201527f45524332303a20696e636f6e73697374656e742061727261797300000000000060448201526064015b60405180910390fd5b80600003620005215750505050565b6000805b8281146200069d57600085828151811062000544576200054462000c65565b6020026020010151905060006001600160a01b0316816001600160a01b031603620005b25760405162461bcd60e51b815260206004820152601960248201527f45524332303a206d696e7420746f206164647265737328302900000000000000604482015260640162000509565b6000858381518110620005c957620005c962000c65565b60200260200101519050806000146200065157838101848111620006305760405162461bcd60e51b815260206004820152601660248201527f45524332303a2076616c756573206f766572666c6f7700000000000000000000604482015260640162000509565b6001600160a01b038316600090815260208a90526040902080548301905593505b6040518181526001600160a01b038316906000907fddf252ad1be2c89b69c2b068fc378daa952ba7f163c4a11628f55a4df523b3ef9060200160405180910390a3505060010162000525565b50801562000705576002850154818101818111620006fe5760405162461bcd60e51b815260206004820152601660248201527f45524332303a20737570706c79206f766572666c6f7700000000000000000000604482015260640162000509565b6002870155505b5050505050565b600080620001d860017fca9d3e17f264b0f3984e2634e94adb37fa3e6a8103f06aeae6fa59e21c769f5e62000ae8565b600160e01b6001600160e01b03198316016200079b5760405162461bcd60e51b815260206004820152601f60248201527f496e74657266616365446574656374696f6e3a2077726f6e672076616c756500604482015260640162000509565b6001600160e01b03199190911660009081526020929092526040909120805460ff1916911515919091179055565b634e487b7160e01b600052604160045260246000fd5b604051601f8201601f191681016001600160401b03811182821017156200080a576200080a620007c9565b604052919050565b60006001600160401b038211156200082e576200082e620007c9565b5060051b60200190565b6001600160a01b03811681146200084e57600080fd5b50565b600082601f8301126200086357600080fd5b815160206200087c620008768362000812565b620007df565b82815260059290921b840181019181810190868411156200089c57600080fd5b8286015b84811015620008c4578051620008b68162000838565b8352918301918301620008a0565b509695505050505050565b600082601f830112620008e157600080fd5b81516020620008f4620008768362000812565b82815260059290921b840181019181810190868411156200091457600080fd5b8286015b84811015620008c4578051835291830191830162000918565b600082601f8301126200094357600080fd5b81516001600160401b038111156200095f576200095f620007c9565b602062000975601f8301601f19168201620007df565b82815285828487010111156200098a57600080fd5b60005b83811015620009aa5785810183015182820184015282016200098d565b506000928101909101919091529392505050565b805160ff81168114620009d057600080fd5b919050565b8051620009d08162000838565b600080600080600080600060e0888a031215620009fe57600080fd5b87516001600160401b038082111562000a1657600080fd5b62000a248b838c0162000851565b985060208a015191508082111562000a3b57600080fd5b62000a498b838c01620008cf565b975060408a015191508082111562000a6057600080fd5b62000a6e8b838c0162000931565b965060608a015191508082111562000a8557600080fd5b62000a938b838c0162000931565b955062000aa360808b01620009be565b945060a08a015191508082111562000aba57600080fd5b5062000ac98a828b0162000931565b92505062000ada60c08901620009d5565b905092959891949750929550565b81810381811115620001d857634e487b7160e01b600052601160045260246000fd5b600181811c9082168062000b1f57607f821691505b60208210810362000b4057634e487b7160e01b600052602260045260246000fd5b50919050565b601f82111562000b9457600081815260208120601f850160051c8101602086101562000b6f5750805b601f850160051c820191505b8181101562000b905782815560010162000b7b565b5050505b505050565b81516001600160401b0381111562000bb55762000bb5620007c9565b62000bcd8162000bc6845462000b0a565b8462000b46565b602080601f83116001811462000c05576000841562000bec5750858301515b600019600386901b1c1916600185901b17855562000b90565b600085815260208120601f198616915b8281101562000c365788860151825594840194600190910190840162000c15565b508582101562000c555787850151600019600388901b60f8161c191681555b5050505050600190811b01905550565b634e487b7160e01b600052603260045260246000fd5b60805161407862000cba600039600081816102ef015281816103e5015281816134120152818161349a0152818161354d015261358b01526140786000f3fe608060405234801561001057600080fd5b506004361061025c5760003560e01c806370a0823111610145578063a9059cbb116100bd578063d547741f1161008c578063e0df5b6f11610071578063e0df5b6f14610550578063eb79554914610563578063f2fde38b1461057657600080fd5b8063d547741f1461052a578063dd62ed3e1461053d57600080fd5b8063a9059cbb146104ca578063b88d4fde146104dd578063d505accf146104f0578063d53913931461050357600080fd5b80638bb9c5bf1161011457806391d14854116100f957806391d148541461049c57806395d89b41146104af578063a457c2d7146104b757600080fd5b80638bb9c5bf146104815780638da5cb5b1461049457600080fd5b806370a082311461043557806379cc6790146104485780637ecebe001461045b57806388d695b21461046e57600080fd5b806331e66e1e116101d857806340c10f19116101a75780634885b2541161018c5780634885b254146103c2578063572b6c05146103d5578063685731071461042257600080fd5b806340c10f191461039c57806342966c68146103af57600080fd5b806331e66e1e146103635780633644e5151461037957806339509351146103815780633c130d901461039457600080fd5b80631b9a75291161022f5780632b4c9f16116102145780632b4c9f16146102ed5780632f2ff15d14610334578063313ce5671461034957600080fd5b80631b9a7529146102c757806323b872dd146102da57600080fd5b806301ffc9a71461026157806306fdde0314610289578063095ea7b31461029e57806318160ddd146102b1575b600080fd5b61027461026f3660046136df565b610589565b60405190151581526020015b60405180910390f35b6102916105a3565b604051610280919061376a565b6102746102ac3660046137a6565b6105ba565b6102b96105e2565b604051908152602001610280565b6102746102d536600461381c565b6105f6565b6102746102e8366004613888565b610624565b7f00000000000000000000000000000000000000000000000000000000000000005b60405173ffffffffffffffffffffffffffffffffffffffff9091168152602001610280565b6103476103423660046138c4565b61064f565b005b610351610688565b60405160ff9091168152602001610280565b61036b61069f565b6040516102809291906138f0565b6102b96106b2565b61027461038f3660046137a6565b6106bc565b6102916106db565b6103476103aa3660046137a6565b6106e8565b6102746103bd36600461393d565b61073b565b6102746103d0366004613956565b610760565b6102746103e33660046139d7565b7f000000000000000000000000000000000000000000000000000000000000000073ffffffffffffffffffffffffffffffffffffffff90811691161490565b61034761043036600461381c565b610791565b6102b96104433660046139d7565b61083b565b6102746104563660046137a6565b610873565b6102b96104693660046139d7565b610892565b61027461047c36600461381c565b6108a0565b61034761048f36600461393d565b6108c3565b61030f6108e1565b6102746104aa3660046138c4565b610908565b610291610953565b6102746104c53660046137a6565b610965565b6102746104d83660046137a6565b610984565b6102746104eb366004613a34565b6109a3565b6103476104fe366004613a92565b6109c8565b6102b97f6d696e746572000000000000000000000000000000000000000000000000000081565b6103476105383660046138c4565b6109ef565b6102b961054b366004613b05565b610a1d565b61034761055e366004613b2f565b610a68565b610274610571366004613b71565b610a8f565b6103476105843660046139d7565b610ab2565b600061059d82610597611127565b90611261565b92915050565b60606105b56105b0610c85565b61133b565b905090565b60006105d96105c76113d1565b84846105d1610acd565b9291906113db565b50600192915050565b60006105b56105ef610acd565b6002015490565b60006106196106036113d1565b8686868661060f610acd565b94939291906114ca565b506001949350505050565b60006106456106316113d1565b85858561063c610acd565b9392919061170e565b5060019392505050565b60006106596113d1565b905061066d81610667610b6a565b90611759565b61068383838361067b6117dc565b92919061180a565b505050565b60006105b5610695610c85565b6002015460ff1690565b3660006106aa6118e0565b915091509091565b60006105b56118eb565b60006105d96106c96113d1565b84846106d3610acd565b929190611986565b60606105b56105b0610d2b565b6107237f6d696e74657200000000000000000000000000000000000000000000000000006107146113d1565b61071c6117dc565b9190611b52565b6107378282610730610acd565b9190611bfe565b5050565b60006107586107486113d1565b83610751610acd565b9190611d78565b506001919050565b600061078561076d6113d1565b878787878761077a610acd565b959493929190611e8e565b50600195945050505050565b6107bd7f6d696e74657200000000000000000000000000000000000000000000000000006107146113d1565b6108358484808060200260200160405190810160405280939291908181526020018383602002808284376000920191909152505060408051602080880282810182019093528782529093508792508691829185019084908082843760009201919091525061082e9250610acd915050565b9190610e4b565b50505050565b600061059d82610849610acd565b9073ffffffffffffffffffffffffffffffffffffffff166000908152602091909152604090205490565b60006105d96108806113d1565b848461088a610acd565b9291906122d4565b600061059d8261084961231e565b60006106196108ad6113d1565b868686866108b9610acd565b949392919061234c565b6108de6108ce6113d1565b826108d76117dc565b919061272e565b50565b60006105b56108ee610b6a565b5473ffffffffffffffffffffffffffffffffffffffff1690565b600061094c83836109176117dc565b60009283526020908152604080842073ffffffffffffffffffffffffffffffffffffffff909316845291905290205460ff1690565b9392505050565b60606105b5610960610c85565b6127d2565b60006105d96109726113d1565b848461097c610acd565b9291906127e3565b60006105d96109916113d1565b848461099b610acd565b929190612935565b60006107856109b06113d1565b87878787876109bd610acd565b959493929190612b16565b6109e6878787878787876109da61231e565b96959493929190612b83565b50505050505050565b60006109f96113d1565b9050610a0781610667610b6a565b610683838383610a156117dc565b929190612e7f565b600061094c8383610a2c610acd565b919073ffffffffffffffffffffffffffffffffffffffff9182166000908152600193909301602090815260408085209290931684525290205490565b610a7b610a736113d1565b610667610b6a565b6107378282610a88610d2b565b9190612f49565b6000610619610a9c6113d1565b86868686610aa8610acd565b9493929190612f55565b6108de610abd6113d1565b82610ac6610b6a565b9190612fc1565b60008061059d60017f1da92899d3da68bf9787824388a37ea2bfa79780bcef91b9716c390eec8ecbef613bbf565b610b06838383610e4b565b6000610b10611127565b9050610b3e817f36372b07000000000000000000000000000000000000000000000000000000006001611155565b610835817f9d075186000000000000000000000000000000000000000000000000000000006001611155565b60008061059d60017fc9ed16f33ab3a66c84bfd83099ccb2a8845871e2e1c1928f63797152f0fd54cd613bbf565b73ffffffffffffffffffffffffffffffffffffffff811615610c205781547fffffffffffffffffffffffff00000000000000000000000000000000000000001673ffffffffffffffffffffffffffffffffffffffff821690811783556040516000907f8be0079c531659141344cd1fd0a4f28419497f9722a3daafe3b4186f6b6457e0908290a35b6107377f7f5828d0000000000000000000000000000000000000000000000000000000006001610c4e611127565b9190611155565b610c837f28963e1e000000000000000000000000000000000000000000000000000000006001610c4e611127565b565b60008061059d60017f335df4119bbb04f056b33eba33b826d3529129e458faf6daa9924b5a8f3b6a82613bbf565b83610cbe8482613cc1565b5060018401610ccd8382613cc1565b506002840180547fffffffffffffffffffffffffffffffffffffffffffffffffffffffffffffff001660ff83161790556108357fa219a025000000000000000000000000000000000000000000000000000000006001610c4e611127565b60008061059d60017ff41bf6a5db26bffdfab174dcf66b31fbba8fdb7e3db040721ce1e62d61839ceb613bbf565b81610d648282613cc1565b506107377f3c130d90000000000000000000000000000000000000000000000000000000006001610c4e611127565b610c837f9d8ff7da000000000000000000000000000000000000000000000000000000006001610c4e611127565b610c837f53f41a97000000000000000000000000000000000000000000000000000000006001610c4e611127565b610c837fc05327e6000000000000000000000000000000000000000000000000000000006001610c4e611127565b610c837f20c07ed1000000000000000000000000000000000000000000000000000000006001610c4e611127565b815181518114610ebc576040517f08c379a000000000000000000000000000000000000000000000000000000000815260206004820152601a60248201527f45524332303a20696e636f6e73697374656e742061727261797300000000000060448201526064015b60405180910390fd5b80600003610eca5750505050565b6000805b8281146110a1576000858281518110610ee957610ee9613ddb565b60200260200101519050600073ffffffffffffffffffffffffffffffffffffffff168173ffffffffffffffffffffffffffffffffffffffff1603610f89576040517f08c379a000000000000000000000000000000000000000000000000000000000815260206004820152601960248201527f45524332303a206d696e7420746f2061646472657373283029000000000000006044820152606401610eb3565b6000858381518110610f9d57610f9d613ddb565b60200260200101519050806000146110495783810184811161101b576040517f08c379a000000000000000000000000000000000000000000000000000000000815260206004820152601660248201527f45524332303a2076616c756573206f766572666c6f77000000000000000000006044820152606401610eb3565b73ffffffffffffffffffffffffffffffffffffffff8316600090815260208a90526040902080548301905593505b60405181815273ffffffffffffffffffffffffffffffffffffffff8316906000907fddf252ad1be2c89b69c2b068fc378daa952ba7f163c4a11628f55a4df523b3ef9060200160405180910390a35050600101610ece565b508015611120576002850154818101818111611119576040517f08c379a000000000000000000000000000000000000000000000000000000000815260206004820152601660248201527f45524332303a20737570706c79206f766572666c6f77000000000000000000006044820152606401610eb3565b6002870155505b5050505050565b60008061059d60017fca9d3e17f264b0f3984e2634e94adb37fa3e6a8103f06aeae6fa59e21c769f5e613bbf565b7c01000000000000000000000000000000000000000000000000000000007fffffffff000000000000000000000000000000000000000000000000000000008316016111fd576040517f08c379a000000000000000000000000000000000000000000000000000000000815260206004820152601f60248201527f496e74657266616365446574656374696f6e3a2077726f6e672076616c7565006044820152606401610eb3565b7fffffffff00000000000000000000000000000000000000000000000000000000919091166000908152602092909252604090912080547fffffffffffffffffffffffffffffffffffffffffffffffffffffffffffffff0016911515919091179055565b60007c01000000000000000000000000000000000000000000000000000000007fffffffff000000000000000000000000000000000000000000000000000000008316016112b15750600061059d565b7ffe003659000000000000000000000000000000000000000000000000000000007fffffffff000000000000000000000000000000000000000000000000000000008316016113025750600161059d565b507fffffffff00000000000000000000000000000000000000000000000000000000166000908152602091909152604090205460ff1690565b606081600001805461134c90613c28565b80601f016020809104026020016040519081016040528092919081815260200182805461137890613c28565b80156113c55780601f1061139a576101008083540402835291602001916113c5565b820191906000526020600020905b8154815290600101906020018083116113a857829003601f168201915b50505050509050919050565b60006105b56130ed565b73ffffffffffffffffffffffffffffffffffffffff8216611458576040517f08c379a000000000000000000000000000000000000000000000000000000000815260206004820152601d60248201527f45524332303a20617070726f76616c20746f20616464726573732830290000006044820152606401610eb3565b73ffffffffffffffffffffffffffffffffffffffff838116600081815260018701602090815260408083209487168084529482529182902085905590518481527f8c5be1e5ebec7d5bd14f71427d1e84f3dd0314c0f7b2291e5b200ac8c7c3b92591015b60405180910390a350505050565b82818114611534576040517f08c379a000000000000000000000000000000000000000000000000000000000815260206004820152601a60248201527f45524332303a20696e636f6e73697374656e74206172726179730000000000006044820152606401610eb3565b806000036115425750611706565b6000805b8281146116f057600087878381811061156157611561613ddb565b905060200201602081019061157691906139d7565b9050600086868481811061158c5761158c613ddb565b9050602002013590508973ffffffffffffffffffffffffffffffffffffffff168273ffffffffffffffffffffffffffffffffffffffff16146115d4576115d48b838c846127e3565b80156116985773ffffffffffffffffffffffffffffffffffffffff8216600090815260208c9052604090205481810381811061166c576040517f08c379a000000000000000000000000000000000000000000000000000000000815260206004820152601b60248201527f45524332303a20696e73756666696369656e742062616c616e636500000000006044820152606401610eb3565b73ffffffffffffffffffffffffffffffffffffffff8416600090815260208e9052604090205550928301925b60405181815260009073ffffffffffffffffffffffffffffffffffffffff8416907fddf252ad1be2c89b69c2b068fc378daa952ba7f163c4a11628f55a4df523b3ef9060200160405180910390a35050600101611546565b5080156117035760028801805482900390555b50505b505050505050565b8373ffffffffffffffffffffffffffffffffffffffff168373ffffffffffffffffffffffffffffffffffffffff161461174d5761174d858486846127e3565b61112085848484612935565b815473ffffffffffffffffffffffffffffffffffffffff828116911614610737576040517f08c379a000000000000000000000000000000000000000000000000000000000815260206004820152601860248201527f4f776e6572736869703a206e6f7420746865206f776e657200000000000000006044820152606401610eb3565b60008061059d60017fc8827d3282af6f37b64c3e9e6f3ac9df286ab0bb0fccd6f8661bf19adb368b23613bbf565b60008381526020858152604080832073ffffffffffffffffffffffffffffffffffffffff8616845290915290205460ff166108355760008381526020858152604080832073ffffffffffffffffffffffffffffffffffffffff8681168086529184529382902080547fffffffffffffffffffffffffffffffffffffffffffffffffffffffffffffff00166001179055815187815292830152918316918101919091527f2f8788117e7eff1d82e926ec794901d17c78024a50270940304540a733656f0d906060015b60405180910390a150505050565b3660006106aa6130f7565b6000467f8b73c3c69bb8fe3d512ecc4cf759cc79239f7b179b0ffacaa9a75d522b39400f61191a6105b0610c85565b80516020918201206040805192830193909352918101919091527fc89efdaa54c0f20c7adf612882df0950f5a951637e0307cdcb4c672f298b8bc66060820152608081018290523060a082015260c0016040516020818303038152906040528051906020012091505090565b73ffffffffffffffffffffffffffffffffffffffff8216611a03576040517f08c379a000000000000000000000000000000000000000000000000000000000815260206004820152601d60248201527f45524332303a20617070726f76616c20746f20616464726573732830290000006044820152606401610eb3565b73ffffffffffffffffffffffffffffffffffffffff80841660009081526001860160209081526040808320938616835292905220548115611ae457808201818111611aaa576040517f08c379a000000000000000000000000000000000000000000000000000000000815260206004820152601960248201527f45524332303a20616c6c6f77616e6365206f766572666c6f77000000000000006044820152606401610eb3565b73ffffffffffffffffffffffffffffffffffffffff8086166000908152600188016020908152604080832093881683529290522081905590505b8273ffffffffffffffffffffffffffffffffffffffff168473ffffffffffffffffffffffffffffffffffffffff167f8c5be1e5ebec7d5bd14f71427d1e84f3dd0314c0f7b2291e5b200ac8c7c3b92583604051611b4391815260200190565b60405180910390a35050505050565b60008281526020848152604080832073ffffffffffffffffffffffffffffffffffffffff8516845290915290205460ff1661068357611b9082613102565b604051602001611ba09190613e0a565b604080517fffffffffffffffffffffffffffffffffffffffffffffffffffffffffffffffe0818403018152908290527f08c379a0000000000000000000000000000000000000000000000000000000008252610eb39160040161376a565b73ffffffffffffffffffffffffffffffffffffffff8216611c7b576040517f08c379a000000000000000000000000000000000000000000000000000000000815260206004820152601960248201527f45524332303a206d696e7420746f2061646472657373283029000000000000006044820152606401610eb3565b8015611d24576002830154818101818111611cf2576040517f08c379a000000000000000000000000000000000000000000000000000000000815260206004820152601660248201527f45524332303a20737570706c79206f766572666c6f77000000000000000000006044820152606401610eb3565b60028501555073ffffffffffffffffffffffffffffffffffffffff821660009081526020849052604090208054820190555b60405181815273ffffffffffffffffffffffffffffffffffffffff8316906000907fddf252ad1be2c89b69c2b068fc378daa952ba7f163c4a11628f55a4df523b3ef906020015b60405180910390a3505050565b8015611e435773ffffffffffffffffffffffffffffffffffffffff8216600090815260208490526040902054818103818110611e10576040517f08c379a000000000000000000000000000000000000000000000000000000000815260206004820152601b60248201527f45524332303a20696e73756666696369656e742062616c616e636500000000006044820152606401610eb3565b73ffffffffffffffffffffffffffffffffffffffff84166000908152602086905260409020555060028301805482900390555b60405181815260009073ffffffffffffffffffffffffffffffffffffffff8416907fddf252ad1be2c89b69c2b068fc378daa952ba7f163c4a11628f55a4df523b3ef90602001611d6b565b82818114611ef8576040517f08c379a000000000000000000000000000000000000000000000000000000000815260206004820152601a60248201527f45524332303a20696e636f6e73697374656e74206172726179730000000000006044820152606401610eb3565b80600003611f0657506109e6565b73ffffffffffffffffffffffffffffffffffffffff86166000908152602089905260408120549080805b8481146121dc576000898983818110611f4b57611f4b613ddb565b9050602002016020810190611f6091906139d7565b905073ffffffffffffffffffffffffffffffffffffffff8116611fdf576040517f08c379a000000000000000000000000000000000000000000000000000000000815260206004820152601d60248201527f45524332303a207472616e7366657220746f20616464726573732830290000006044820152606401610eb3565b6000888884818110611ff357611ff3613ddb565b9050602002013590508060001461216b57848101858111612070576040517f08c379a000000000000000000000000000000000000000000000000000000000815260206004820152601660248201527f45524332303a2076616c756573206f766572666c6f77000000000000000000006044820152606401610eb3565b8095508273ffffffffffffffffffffffffffffffffffffffff168d73ffffffffffffffffffffffffffffffffffffffff16146120fa57818f60000160008573ffffffffffffffffffffffffffffffffffffffff1673ffffffffffffffffffffffffffffffffffffffff16815260200190815260200160002060008282540192505081905550612169565b86821115612164576040517f08c379a000000000000000000000000000000000000000000000000000000000815260206004820152601b60248201527f45524332303a20696e73756666696369656e742062616c616e636500000000006044820152606401610eb3565b938101935b505b8173ffffffffffffffffffffffffffffffffffffffff168c73ffffffffffffffffffffffffffffffffffffffff167fddf252ad1be2c89b69c2b068fc378daa952ba7f163c4a11628f55a4df523b3ef836040516121ca91815260200190565b60405180910390a35050600101611f30565b5081158015906121ec5750808214155b156122885781830383811061225d576040517f08c379a000000000000000000000000000000000000000000000000000000000815260206004820152601b60248201527f45524332303a20696e73756666696369656e742062616c616e636500000000006044820152606401610eb3565b73ffffffffffffffffffffffffffffffffffffffff8a16600090815260208d90526040902090820190555b8973ffffffffffffffffffffffffffffffffffffffff168973ffffffffffffffffffffffffffffffffffffffff16146122c7576122c78b8a8c856127e3565b5050505050505050505050565b8273ffffffffffffffffffffffffffffffffffffffff168273ffffffffffffffffffffffffffffffffffffffff161461231357612313848385846127e3565b610835848383611d78565b60008061059d60017f93fe0ff7226b064a4a8f0b09910762afb4bc2441835792c021ffd78cd513011e613bbf565b828181146123b6576040517f08c379a000000000000000000000000000000000000000000000000000000000815260206004820152601a60248201527f45524332303a20696e636f6e73697374656e74206172726179730000000000006044820152606401610eb3565b806000036123c45750611706565b73ffffffffffffffffffffffffffffffffffffffff86166000908152602088905260408120549080805b84811461267657600089898381811061240957612409613ddb565b905060200201602081019061241e91906139d7565b905073ffffffffffffffffffffffffffffffffffffffff811661249d576040517f08c379a000000000000000000000000000000000000000000000000000000000815260206004820152601d60248201527f45524332303a207472616e7366657220746f20616464726573732830290000006044820152606401610eb3565b60008888848181106124b1576124b1613ddb565b905060200201359050806000146126055784810185811161252e576040517f08c379a000000000000000000000000000000000000000000000000000000000815260206004820152601660248201527f45524332303a2076616c756573206f766572666c6f77000000000000000000006044820152606401610eb3565b8095508273ffffffffffffffffffffffffffffffffffffffff168d73ffffffffffffffffffffffffffffffffffffffff16146125945773ffffffffffffffffffffffffffffffffffffffff8316600090815260208f905260409020805483019055612603565b868211156125fe576040517f08c379a000000000000000000000000000000000000000000000000000000000815260206004820152601b60248201527f45524332303a20696e73756666696369656e742062616c616e636500000000006044820152606401610eb3565b938101935b505b8173ffffffffffffffffffffffffffffffffffffffff168c73ffffffffffffffffffffffffffffffffffffffff167fddf252ad1be2c89b69c2b068fc378daa952ba7f163c4a11628f55a4df523b3ef8360405161266491815260200190565b60405180910390a350506001016123ee565b5081158015906126865750808214155b15612722578183038381106126f7576040517f08c379a000000000000000000000000000000000000000000000000000000000815260206004820152601b60248201527f45524332303a20696e73756666696369656e742062616c616e636500000000006044820152606401610eb3565b73ffffffffffffffffffffffffffffffffffffffff8a16600090815260208c90526040902090820190555b50505050505050505050565b612739838284611b52565b60008181526020848152604080832073ffffffffffffffffffffffffffffffffffffffff86168085529083529281902080547fffffffffffffffffffffffffffffffffffffffffffffffffffffffffffffff0016905580518481529182018390528101919091527ff6391f5c32d9c69d2a47ea670b442974b53935d1edc7fd64eb21e047a839171b9060600160405180910390a1505050565b606081600101805461134c90613c28565b73ffffffffffffffffffffffffffffffffffffffff8216612860576040517f08c379a000000000000000000000000000000000000000000000000000000000815260206004820152601d60248201527f45524332303a20617070726f76616c20746f20616464726573732830290000006044820152606401610eb3565b73ffffffffffffffffffffffffffffffffffffffff80841660009081526001860160209081526040808320938616835292905220547fffffffffffffffffffffffffffffffffffffffffffffffffffffffffffffffff81148015906128c457508115155b15611ae457818103818110611aaa576040517f08c379a000000000000000000000000000000000000000000000000000000000815260206004820152601d60248201527f45524332303a20696e73756666696369656e7420616c6c6f77616e63650000006044820152606401610eb3565b73ffffffffffffffffffffffffffffffffffffffff82166129b2576040517f08c379a000000000000000000000000000000000000000000000000000000000815260206004820152601d60248201527f45524332303a207472616e7366657220746f20616464726573732830290000006044820152606401610eb3565b8015612ab75773ffffffffffffffffffffffffffffffffffffffff8316600090815260208590526040902054818103818110612a4a576040517f08c379a000000000000000000000000000000000000000000000000000000000815260206004820152601b60248201527f45524332303a20696e73756666696369656e742062616c616e636500000000006044820152606401610eb3565b8373ffffffffffffffffffffffffffffffffffffffff168573ffffffffffffffffffffffffffffffffffffffff1614612ab45773ffffffffffffffffffffffffffffffffffffffff8086166000908152602088905260408082208490559186168152208054840190555b50505b8173ffffffffffffffffffffffffffffffffffffffff168373ffffffffffffffffffffffffffffffffffffffff167fddf252ad1be2c89b69c2b068fc378daa952ba7f163c4a11628f55a4df523b3ef836040516114bc91815260200190565b612b23878787878761170e565b73ffffffffffffffffffffffffffffffffffffffff84163b156109e6576109e68686868686868080601f01602080910402602001604051908101604052809392919081815260200183838082843760009201919091525061329492505050565b73ffffffffffffffffffffffffffffffffffffffff8716612c00576040517f08c379a000000000000000000000000000000000000000000000000000000000815260206004820152601d60248201527f45524332303a207065726d69742066726f6d20616464726573732830290000006044820152606401610eb3565b83421115612c6a576040517f08c379a000000000000000000000000000000000000000000000000000000000815260206004820152601560248201527f45524332303a2065787069726564207065726d697400000000000000000000006044820152606401610eb3565b73ffffffffffffffffffffffffffffffffffffffff878116600081815260208b8152604080832080546001810190915581517f6e71edae12b1b97f4d1f60370fef10105fa2faae0126114a169c64845d6126c98185015280830195909552948b166060850152608084018a905260a084019490945260c08084018990528451808503909101815260e09093019093528151919092012090612d096118eb565b6040517f19010000000000000000000000000000000000000000000000000000000000006020820152602281019190915260428101839052606201604080517fffffffffffffffffffffffffffffffffffffffffffffffffffffffffffffffe08184030181528282528051602091820120600080855291840180845281905260ff89169284019290925260608301879052608083018690529092509060019060a0016020604051602081039080840390855afa158015612dcd573d6000803e3d6000fd5b5050506020604051035190508973ffffffffffffffffffffffffffffffffffffffff168173ffffffffffffffffffffffffffffffffffffffff1614612e6e576040517f08c379a000000000000000000000000000000000000000000000000000000000815260206004820152601560248201527f45524332303a20696e76616c6964207065726d697400000000000000000000006044820152606401610eb3565b5050506117038787876105d1610acd565b60008381526020858152604080832073ffffffffffffffffffffffffffffffffffffffff8616845290915290205460ff16156108355760008381526020858152604080832073ffffffffffffffffffffffffffffffffffffffff8681168086529184529382902080547fffffffffffffffffffffffffffffffffffffffffffffffffffffffffffffff00169055815187815292830152918316918101919091527ff6391f5c32d9c69d2a47ea670b442974b53935d1edc7fd64eb21e047a839171b906060016118d2565b82610835828483613e76565b612f6186868686612935565b73ffffffffffffffffffffffffffffffffffffffff84163b15611706576117068586868686868080601f01602080910402602001604051908101604052809392919081815260200183838082843760009201919091525061329492505050565b825473ffffffffffffffffffffffffffffffffffffffff9081169083168114613046576040517f08c379a000000000000000000000000000000000000000000000000000000000815260206004820152601860248201527f4f776e6572736869703a206e6f7420746865206f776e657200000000000000006044820152606401610eb3565b8173ffffffffffffffffffffffffffffffffffffffff168173ffffffffffffffffffffffffffffffffffffffff16146108355783547fffffffffffffffffffffffff00000000000000000000000000000000000000001673ffffffffffffffffffffffffffffffffffffffff8381169182178655604051908316907f8be0079c531659141344cd1fd0a4f28419497f9722a3daafe3b4186f6b6457e090600090a350505050565b60006105b56133ba565b3660006106aa6133c4565b6060600082900361312157505060408051602081019091526000815290565b60008260405160200161313691815260200190565b604080517fffffffffffffffffffffffffffffffffffffffffffffffffffffffffffffffe08184030181529190529050601f5b81818151811061317b5761317b613ddb565b01602001517fff00000000000000000000000000000000000000000000000000000000000000166000036131d0577fffffffffffffffffffffffffffffffffffffffffffffffffffffffffffffffff01613169565b60008160010167ffffffffffffffff8111156131ee576131ee613bf9565b6040519080825280601f01601f191660200182016040528015613218576020820181803683370190505b50905060005b82811161328b5783818151811061323757613237613ddb565b602001015160f81c60f81b82828151811061325457613254613ddb565b60200101907effffffffffffffffffffffffffffffffffffffffffffffffffffffffffffff1916908160001a90535060010161321e565b50949350505050565b6040517f4fc35859000000000000000000000000000000000000000000000000000000008082529073ffffffffffffffffffffffffffffffffffffffff851690634fc35859906132ee908990899088908890600401613f90565b6020604051808303816000875af115801561330d573d6000803e3d6000fd5b505050506040513d601f19601f820116820180604052508101906133319190613fd9565b7fffffffff000000000000000000000000000000000000000000000000000000001614611120576040517f08c379a000000000000000000000000000000000000000000000000000000000815260206004820152601d60248201527f45524332303a2073616665207472616e736665722072656a65637465640000006044820152606401610eb3565b60006105b56133cf565b3660006106aa613516565b6000333214806133df5750601836105b156133e957503390565b7fffffffffffffffffffffffffffffffffffffffffffffffffffffffffffffffec36013560601c7f000000000000000000000000000000000000000000000000000000000000000073ffffffffffffffffffffffffffffffffffffffff1633148061350557506040517f8929a8ca00000000000000000000000000000000000000000000000000000000815273ffffffffffffffffffffffffffffffffffffffff82811660048301523360248301527f00000000000000000000000000000000000000000000000000000000000000001690638929a8ca90604401602060405180830381865afa1580156134e1573d6000803e3d6000fd5b505050506040513d601f19601f820116820180604052508101906135059190613ff6565b1561350f57919050565b3391505090565b366000333214806135275750601836105b156135355750600091369150565b3373ffffffffffffffffffffffffffffffffffffffff7f000000000000000000000000000000000000000000000000000000000000000016148061366a575073ffffffffffffffffffffffffffffffffffffffff7f000000000000000000000000000000000000000000000000000000000000000016638929a8ca367fffffffffffffffffffffffffffffffffffffffffffffffffffffffffffffffec013560601c6040517fffffffff0000000000000000000000000000000000000000000000000000000060e084901b16815273ffffffffffffffffffffffffffffffffffffffff9091166004820152336024820152604401602060405180830381865afa158015613646573d6000803e3d6000fd5b505050506040513d601f19601f8201168201806040525081019061366a9190613ff6565b15613677576106aa613680565b50600091369150565b3660006106aa7fffffffffffffffffffffffffffffffffffffffffffffffffffffffffffffffec8301828481614018565b7fffffffff00000000000000000000000000000000000000000000000000000000811681146108de57600080fd5b6000602082840312156136f157600080fd5b813561094c816136b1565b60005b838110156137175781810151838201526020016136ff565b50506000910152565b600081518084526137388160208601602086016136fc565b601f017fffffffffffffffffffffffffffffffffffffffffffffffffffffffffffffffe0169290920160200192915050565b60208152600061094c6020830184613720565b803573ffffffffffffffffffffffffffffffffffffffff811681146137a157600080fd5b919050565b600080604083850312156137b957600080fd5b6137c28361377d565b946020939093013593505050565b60008083601f8401126137e257600080fd5b50813567ffffffffffffffff8111156137fa57600080fd5b6020830191508360208260051b850101111561381557600080fd5b9250929050565b6000806000806040858703121561383257600080fd5b843567ffffffffffffffff8082111561384a57600080fd5b613856888389016137d0565b9096509450602087013591508082111561386f57600080fd5b5061387c878288016137d0565b95989497509550505050565b60008060006060848603121561389d57600080fd5b6138a68461377d565b92506138b46020850161377d565b9150604084013590509250925092565b600080604083850312156138d757600080fd5b823591506138e76020840161377d565b90509250929050565b60208152816020820152818360408301376000818301604090810191909152601f9092017fffffffffffffffffffffffffffffffffffffffffffffffffffffffffffffffe0160101919050565b60006020828403121561394f57600080fd5b5035919050565b60008060008060006060868803121561396e57600080fd5b6139778661377d565b9450602086013567ffffffffffffffff8082111561399457600080fd5b6139a089838a016137d0565b909650945060408801359150808211156139b957600080fd5b506139c6888289016137d0565b969995985093965092949392505050565b6000602082840312156139e957600080fd5b61094c8261377d565b60008083601f840112613a0457600080fd5b50813567ffffffffffffffff811115613a1c57600080fd5b60208301915083602082850101111561381557600080fd5b600080600080600060808688031215613a4c57600080fd5b613a558661377d565b9450613a636020870161377d565b935060408601359250606086013567ffffffffffffffff811115613a8657600080fd5b6139c6888289016139f2565b600080600080600080600060e0888a031215613aad57600080fd5b613ab68861377d565b9650613ac46020890161377d565b95506040880135945060608801359350608088013560ff81168114613ae857600080fd5b9699959850939692959460a0840135945060c09093013592915050565b60008060408385031215613b1857600080fd5b613b218361377d565b91506138e76020840161377d565b60008060208385031215613b4257600080fd5b823567ffffffffffffffff811115613b5957600080fd5b613b65858286016139f2565b90969095509350505050565b60008060008060608587031215613b8757600080fd5b613b908561377d565b935060208501359250604085013567ffffffffffffffff811115613bb357600080fd5b61387c878288016139f2565b8181038181111561059d577f4e487b7100000000000000000000000000000000000000000000000000000000600052601160045260246000fd5b7f4e487b7100000000000000000000000000000000000000000000000000000000600052604160045260246000fd5b600181811c90821680613c3c57607f821691505b602082108103613c75577f4e487b7100000000000000000000000000000000000000000000000000000000600052602260045260246000fd5b50919050565b601f82111561068357600081815260208120601f850160051c81016020861015613ca25750805b601f850160051c820191505b8181101561170657828155600101613cae565b815167ffffffffffffffff811115613cdb57613cdb613bf9565b613cef81613ce98454613c28565b84613c7b565b602080601f831160018114613d425760008415613d0c5750858301515b7fffffffffffffffffffffffffffffffffffffffffffffffffffffffffffffffff600386901b1c1916600185901b178555611706565b6000858152602081207fffffffffffffffffffffffffffffffffffffffffffffffffffffffffffffffe08616915b82811015613d8f57888601518255948401946001909101908401613d70565b5085821015613dcb57878501517fffffffffffffffffffffffffffffffffffffffffffffffffffffffffffffffff600388901b60f8161c191681555b5050505050600190811b01905550565b7f4e487b7100000000000000000000000000000000000000000000000000000000600052603260045260246000fd5b7f416363657373436f6e74726f6c3a206d697373696e6720270000000000000000815260008251613e428160188501602087016136fc565b7f2720726f6c6500000000000000000000000000000000000000000000000000006018939091019283015250601e01919050565b67ffffffffffffffff831115613e8e57613e8e613bf9565b613ea283613e9c8354613c28565b83613c7b565b6000601f841160018114613ef45760008515613ebe5750838201355b7fffffffffffffffffffffffffffffffffffffffffffffffffffffffffffffffff600387901b1c1916600186901b178355611120565b6000838152602090207fffffffffffffffffffffffffffffffffffffffffffffffffffffffffffffffe0861690835b82811015613f435786850135825560209485019460019092019101613f23565b5086821015613f7e577fffffffffffffffffffffffffffffffffffffffffffffffffffffffffffffffff60f88860031b161c19848701351681555b505060018560011b0183555050505050565b600073ffffffffffffffffffffffffffffffffffffffff808716835280861660208401525083604083015260806060830152613fcf6080830184613720565b9695505050505050565b600060208284031215613feb57600080fd5b815161094c816136b1565b60006020828403121561400857600080fd5b8151801515811461094c57600080fd5b6000808585111561402857600080fd5b8386111561403557600080fd5b505082019391909203915056fea264697066735822122063d8fdc6b59a3f2b4b33312931995df916975b0dacf741758115337f04566cde64736f6c63430008110033",
  "linkReferences": {},
  "deployedLinkReferences": {}
}