{
  "_format": "hh-sol-artifact-1",
  "contractName": "ERC1155MetadataURIPerTokenFacetMock",
  "sourceName": "contracts/mocks/token/ERC1155/facets/ERC1155MetadataURIPerTokenFacetMock.sol",
  "abi": [
    {
      "inputs": [
        {
          "internalType": "contract IForwarderRegistry",
          "name": "forwarderRegistry",
          "type": "address"
        }
      ],
      "stateMutability": "nonpayable",
      "type": "constructor"
    },
    {
      "inputs": [],
      "name": "__msgData",
      "outputs": [
        {
          "internalType": "bytes",
          "name": "",
          "type": "bytes"
        }
      ],
      "stateMutability": "view",
      "type": "function"
    },
    {
      "inputs": [
        {
          "internalType": "uint256[]",
          "name": "ids",
          "type": "uint256[]"
        },
        {
          "internalType": "string[]",
          "name": "metadataURIs",
          "type": "string[]"
        }
      ],
      "name": "batchSetTokenURI",
      "outputs": [],
      "stateMutability": "nonpayable",
      "type": "function"
    },
    {
      "inputs": [],
      "name": "initERC1155MetadataURIStorage",
      "outputs": [],
      "stateMutability": "nonpayable",
      "type": "function"
    },
    {
      "inputs": [
        {
          "internalType": "uint256",
          "name": "id",
          "type": "uint256"
        },
        {
          "internalType": "string",
          "name": "metadataURI",
          "type": "string"
        }
      ],
      "name": "setTokenURI",
      "outputs": [],
      "stateMutability": "nonpayable",
      "type": "function"
    },
    {
      "inputs": [
        {
          "internalType": "uint256",
          "name": "id",
          "type": "uint256"
        }
      ],
      "name": "uri",
      "outputs": [
        {
          "internalType": "string",
          "name": "metadataURI",
          "type": "string"
        }
      ],
      "stateMutability": "view",
      "type": "function"
    }
  ],
  "bytecode": "0x60a060405234801561001057600080fd5b506040516112ea3803806112ea83398101604081905261002f91610040565b6001600160a01b0316608052610070565b60006020828403121561005257600080fd5b81516001600160a01b038116811461006957600080fd5b9392505050565b60805161124a6100a0600039600081816105eb0152818161068b015281816108b1015261091b015261124a6000f3fe608060405234801561001057600080fd5b50600436106100675760003560e01c806331e66e1e1161005057806331e66e1e146100aa5780636706467b146100c0578063f310ed79146100d357600080fd5b80630e89341c1461006c578063162094c414610095575b600080fd5b61007f61007a366004610b75565b6100db565b60405161008c9190610bba565b60405180910390f35b6100a86100a3366004610c0b565b6100f5565b005b6100b2610180565b60405161008c929190610c87565b6100a86100ce366004610d20565b610193565b6100a86101dd565b60606100ef826100e9610200565b9061022e565b92915050565b6101307f6d696e74657200000000000000000000000000000000000000000000000000006101216102d1565b6101296102e0565b919061030e565b61017b8383838080601f0160208091040260200160405190810160405280939291908181526020018383808284376000920191909152506101749250610200915050565b91906103c3565b505050565b36600061018b6103db565b915091509091565b6101bf7f6d696e74657200000000000000000000000000000000000000000000000000006101216102d1565b6101d7848484846101ce610200565b939291906103e6565b50505050565b6101f66101e86102d1565b6101f06104c5565b906104f3565b6101fe61057a565b565b6000806100ef60017f10425d47eba0194223d0d18d437db44682fcfacfc9f759b1b8092cc8a56516aa610d8c565b600081815260208390526040902080546060919061024b90610dca565b80601f016020809104026020016040519081016040528092919081815260200182805461027790610dca565b80156102c45780601f10610299576101008083540402835291602001916102c4565b820191906000526020600020905b8154815290600101906020018083116102a757829003601f168201915b5050505050905092915050565b60006102db6105af565b905090565b6000806100ef60017fc8827d3282af6f37b64c3e9e6f3ac9df286ab0bb0fccd6f8661bf19adb368b23610d8c565b60008281526020848152604080832073ffffffffffffffffffffffffffffffffffffffff8516845290915290205460ff1661017b5761034c82610707565b60405160200161035c9190610e17565b604080517fffffffffffffffffffffffffffffffffffffffffffffffffffffffffffffffe0818403018152908290527f08c379a00000000000000000000000000000000000000000000000000000000082526103ba91600401610bba565b60405180910390fd5b60008281526020849052604090206101d78282610ef8565b36600061018b610899565b82811461044f576040517f08c379a000000000000000000000000000000000000000000000000000000000815260206004820152601d60248201527f4d657461646174613a20696e636f6e73697374656e742061727261797300000060448201526064016103ba565b60005b8084146104bd5782828281811061046b5761046b611012565b905060200281019061047d9190611041565b87600088888681811061049257610492611012565b90506020020135815260200190815260200160002091826104b49291906110a6565b50600101610452565b505050505050565b6000806100ef60017fb53127684a568b3173ae13b9f8a6016e243e63b6e8ee1178d6a717850b5d6104610d8c565b815473ffffffffffffffffffffffffffffffffffffffff828116911614610576576040517f08c379a000000000000000000000000000000000000000000000000000000000815260206004820152601960248201527f50726f787941646d696e3a206e6f74207468652061646d696e0000000000000060448201526064016103ba565b5050565b6101fe7f0e89341c0000000000000000000000000000000000000000000000000000000060016105a8610a1d565b9190610a4b565b6000333281036105be57919050565b6000367fffffffffffffffffffffffffffffffffffffffffffffffffffffffffffffffec013560601c90507f000000000000000000000000000000000000000000000000000000000000000073ffffffffffffffffffffffffffffffffffffffff168273ffffffffffffffffffffffffffffffffffffffff1614806106f657506040517fe60125d600000000000000000000000000000000000000000000000000000000815273ffffffffffffffffffffffffffffffffffffffff828116600483015283811660248301527f0000000000000000000000000000000000000000000000000000000000000000169063e60125d690604401602060405180830381865afa1580156106d2573d6000803e3d6000fd5b505050506040513d601f19601f820116820180604052508101906106f691906111c1565b156107015792915050565b50919050565b6060600082900361072657505060408051602081019091526000815290565b60008260405160200161073b91815260200190565b604080517fffffffffffffffffffffffffffffffffffffffffffffffffffffffffffffffe08184030181529190529050601f5b81818151811061078057610780611012565b01602001517fff00000000000000000000000000000000000000000000000000000000000000166000036107d5577fffffffffffffffffffffffffffffffffffffffffffffffffffffffffffffffff0161076e565b60008160010167ffffffffffffffff8111156107f3576107f3610e83565b6040519080825280601f01601f19166020018201604052801561081d576020820181803683370190505b50905060005b8281116108905783818151811061083c5761083c611012565b602001015160f81c60f81b82828151811061085957610859611012565b60200101907effffffffffffffffffffffffffffffffffffffffffffffffffffffffffffff1916908160001a905350600101610823565b50949350505050565b366000333281036108af57506000923692509050565b7f000000000000000000000000000000000000000000000000000000000000000073ffffffffffffffffffffffffffffffffffffffff168173ffffffffffffffffffffffffffffffffffffffff1614806109fc575073ffffffffffffffffffffffffffffffffffffffff7f00000000000000000000000000000000000000000000000000000000000000001663e60125d6367fffffffffffffffffffffffffffffffffffffffffffffffffffffffffffffffec013560601c6040517fffffffff0000000000000000000000000000000000000000000000000000000060e084901b16815273ffffffffffffffffffffffffffffffffffffffff91821660048201529084166024820152604401602060405180830381865afa1580156109d8573d6000803e3d6000fd5b505050506040513d601f19601f820116820180604052508101906109fc91906111c1565b15610a1257610a09610b57565b92509250509091565b506000923692509050565b6000806100ef60017fca9d3e17f264b0f3984e2634e94adb37fa3e6a8103f06aeae6fa59e21c769f5e610d8c565b7c01000000000000000000000000000000000000000000000000000000007fffffffff00000000000000000000000000000000000000000000000000000000831601610af3576040517f08c379a000000000000000000000000000000000000000000000000000000000815260206004820152601f60248201527f496e74657266616365446574656374696f6e3a2077726f6e672076616c75650060448201526064016103ba565b7fffffffff00000000000000000000000000000000000000000000000000000000919091166000908152602092909252604090912080547fffffffffffffffffffffffffffffffffffffffffffffffffffffffffffffff0016911515919091179055565b366000808083610b68601482610d8c565b9261018b939291906111ea565b600060208284031215610b8757600080fd5b5035919050565b60005b83811015610ba9578181015183820152602001610b91565b838111156101d75750506000910152565b6020815260008251806020840152610bd9816040850160208701610b8e565b601f017fffffffffffffffffffffffffffffffffffffffffffffffffffffffffffffffe0169190910160400192915050565b600080600060408486031215610c2057600080fd5b83359250602084013567ffffffffffffffff80821115610c3f57600080fd5b818601915086601f830112610c5357600080fd5b813581811115610c6257600080fd5b876020828501011115610c7457600080fd5b6020830194508093505050509250925092565b60208152816020820152818360408301376000818301604090810191909152601f9092017fffffffffffffffffffffffffffffffffffffffffffffffffffffffffffffffe0160101919050565b60008083601f840112610ce657600080fd5b50813567ffffffffffffffff811115610cfe57600080fd5b6020830191508360208260051b8501011115610d1957600080fd5b9250929050565b60008060008060408587031215610d3657600080fd5b843567ffffffffffffffff80821115610d4e57600080fd5b610d5a88838901610cd4565b90965094506020870135915080821115610d7357600080fd5b50610d8087828801610cd4565b95989497509550505050565b600082821015610dc5577f4e487b7100000000000000000000000000000000000000000000000000000000600052601160045260246000fd5b500390565b600181811c90821680610dde57607f821691505b602082108103610701577f4e487b7100000000000000000000000000000000000000000000000000000000600052602260045260246000fd5b7f416363657373436f6e74726f6c3a206d697373696e6720270000000000000000815260008251610e4f816018850160208701610b8e565b7f2720726f6c6500000000000000000000000000000000000000000000000000006018939091019283015250601e01919050565b7f4e487b7100000000000000000000000000000000000000000000000000000000600052604160045260246000fd5b601f82111561017b57600081815260208120601f850160051c81016020861015610ed95750805b601f850160051c820191505b818110156104bd57828155600101610ee5565b815167ffffffffffffffff811115610f1257610f12610e83565b610f2681610f208454610dca565b84610eb2565b602080601f831160018114610f795760008415610f435750858301515b7fffffffffffffffffffffffffffffffffffffffffffffffffffffffffffffffff600386901b1c1916600185901b1785556104bd565b6000858152602081207fffffffffffffffffffffffffffffffffffffffffffffffffffffffffffffffe08616915b82811015610fc657888601518255948401946001909101908401610fa7565b508582101561100257878501517fffffffffffffffffffffffffffffffffffffffffffffffffffffffffffffffff600388901b60f8161c191681555b5050505050600190811b01905550565b7f4e487b7100000000000000000000000000000000000000000000000000000000600052603260045260246000fd5b60008083357fffffffffffffffffffffffffffffffffffffffffffffffffffffffffffffffe184360301811261107657600080fd5b83018035915067ffffffffffffffff82111561109157600080fd5b602001915036819003821315610d1957600080fd5b67ffffffffffffffff8311156110be576110be610e83565b6110d2836110cc8354610dca565b83610eb2565b6000601f84116001811461112457600085156110ee5750838201355b7fffffffffffffffffffffffffffffffffffffffffffffffffffffffffffffffff600387901b1c1916600186901b1783556111ba565b6000838152602090207fffffffffffffffffffffffffffffffffffffffffffffffffffffffffffffffe0861690835b828110156111735786850135825560209485019460019092019101611153565b50868210156111ae577fffffffffffffffffffffffffffffffffffffffffffffffffffffffffffffffff60f88860031b161c19848701351681555b505060018560011b0183555b5050505050565b6000602082840312156111d357600080fd5b815180151581146111e357600080fd5b9392505050565b600080858511156111fa57600080fd5b8386111561120757600080fd5b505082019391909203915056fea26469706673582212207e03a0dc150fe1a3b4f1f5c50282116ee71500cf231889ddf7941528aee2983e64736f6c634300080f0033",
  "linkReferences": {},
  "deployedLinkReferences": {}
}