{
  "_format": "hh-sol-artifact-1",
  "contractName": "ERC1155MetadataURIPerTokenFacetMock",
  "sourceName": "contracts/mocks/token/ERC1155/facets/ERC1155MetadataURIPerTokenFacetMock.sol",
  "abi": [
    {
      "inputs": [
        {
          "internalType": "contract IForwarderRegistry",
          "name": "forwarderRegistry",
          "type": "address"
        }
      ],
      "stateMutability": "nonpayable",
      "type": "constructor"
    },
    {
      "inputs": [],
      "name": "__msgData",
      "outputs": [
        {
          "internalType": "bytes",
          "name": "",
          "type": "bytes"
        }
      ],
      "stateMutability": "view",
      "type": "function"
    },
    {
      "inputs": [
        {
          "internalType": "uint256[]",
          "name": "ids",
          "type": "uint256[]"
        },
        {
          "internalType": "string[]",
          "name": "metadataURIs",
          "type": "string[]"
        }
      ],
      "name": "batchSetTokenURI",
      "outputs": [],
      "stateMutability": "nonpayable",
      "type": "function"
    },
    {
      "inputs": [],
      "name": "initERC1155MetadataURIStorage",
      "outputs": [],
      "stateMutability": "nonpayable",
      "type": "function"
    },
    {
      "inputs": [
        {
          "internalType": "uint256",
          "name": "id",
          "type": "uint256"
        },
        {
          "internalType": "string",
          "name": "metadataURI",
          "type": "string"
        }
      ],
      "name": "setTokenURI",
      "outputs": [],
      "stateMutability": "nonpayable",
      "type": "function"
    },
    {
      "inputs": [
        {
          "internalType": "uint256",
          "name": "id",
          "type": "uint256"
        }
      ],
      "name": "uri",
      "outputs": [
        {
          "internalType": "string",
          "name": "metadataURI",
          "type": "string"
        }
      ],
      "stateMutability": "view",
      "type": "function"
    }
  ],
  "bytecode": "0x60a060405234801561001057600080fd5b506040516112d63803806112d683398101604081905261002f91610040565b6001600160a01b0316608052610070565b60006020828403121561005257600080fd5b81516001600160a01b038116811461006957600080fd5b9392505050565b6080516112366100a0600039600081816105f40152818161067c015281816108c101526108ff01526112366000f3fe608060405234801561001057600080fd5b50600436106100675760003560e01c806331e66e1e1161005057806331e66e1e146100aa5780636706467b146100c0578063f310ed79146100d357600080fd5b80630e89341c1461006c578063162094c414610095575b600080fd5b61007f61007a366004610b5f565b6100db565b60405161008c9190610b9c565b60405180910390f35b6100a86100a3366004610bed565b6100f5565b005b6100b2610180565b60405161008c929190610c69565b6100a86100ce366004610d02565b610193565b6100a86101dd565b60606100ef826100e9610200565b9061022e565b92915050565b6101307f6d696e74657200000000000000000000000000000000000000000000000000006101216102d1565b6101296102e0565b919061030e565b61017b8383838080601f0160208091040260200160405190810160405280939291908181526020018383808284376000920191909152506101749250610200915050565b91906103c3565b505050565b36600061018b6103db565b915091509091565b6101bf7f6d696e74657200000000000000000000000000000000000000000000000000006101216102d1565b6101d7848484846101ce610200565b939291906103e6565b50505050565b6101f66101e86102d1565b6101f06104c7565b906104f5565b6101fe61057c565b565b6000806100ef60017f10425d47eba0194223d0d18d437db44682fcfacfc9f759b1b8092cc8a56516aa610d6e565b600081815260208390526040902080546060919061024b90610da8565b80601f016020809104026020016040519081016040528092919081815260200182805461027790610da8565b80156102c45780601f10610299576101008083540402835291602001916102c4565b820191906000526020600020905b8154815290600101906020018083116102a757829003601f168201915b5050505050905092915050565b60006102db6105b1565b905090565b6000806100ef60017fc8827d3282af6f37b64c3e9e6f3ac9df286ab0bb0fccd6f8661bf19adb368b23610d6e565b60008281526020848152604080832073ffffffffffffffffffffffffffffffffffffffff8516845290915290205460ff1661017b5761034c826106f8565b60405160200161035c9190610dfb565b604080517fffffffffffffffffffffffffffffffffffffffffffffffffffffffffffffffe0818403018152908290527f08c379a00000000000000000000000000000000000000000000000000000000082526103ba91600401610b9c565b60405180910390fd5b60008281526020849052604090206101d78282610ee4565b36600061018b61088a565b82818114610450576040517f08c379a000000000000000000000000000000000000000000000000000000000815260206004820152601d60248201527f4d657461646174613a20696e636f6e73697374656e742061727261797300000060448201526064016103ba565b60005b8181146104be5783838281811061046c5761046c610ffe565b905060200281019061047e919061102d565b88600089898681811061049357610493610ffe565b90506020020135815260200190815260200160002091826104b5929190611092565b50600101610453565b50505050505050565b6000806100ef60017fb53127684a568b3173ae13b9f8a6016e243e63b6e8ee1178d6a717850b5d6104610d6e565b815473ffffffffffffffffffffffffffffffffffffffff828116911614610578576040517f08c379a000000000000000000000000000000000000000000000000000000000815260206004820152601960248201527f50726f787941646d696e3a206e6f74207468652061646d696e0000000000000060448201526064016103ba565b5050565b6101fe7f0e89341c0000000000000000000000000000000000000000000000000000000060016105aa6109f4565b9190610a22565b6000333214806105c15750601836105b156105cb57503390565b7fffffffffffffffffffffffffffffffffffffffffffffffffffffffffffffffec36013560601c7f000000000000000000000000000000000000000000000000000000000000000073ffffffffffffffffffffffffffffffffffffffff163314806106e757506040517f8929a8ca00000000000000000000000000000000000000000000000000000000815273ffffffffffffffffffffffffffffffffffffffff82811660048301523360248301527f00000000000000000000000000000000000000000000000000000000000000001690638929a8ca90604401602060405180830381865afa1580156106c3573d6000803e3d6000fd5b505050506040513d601f19601f820116820180604052508101906106e791906111ad565b156106f157919050565b3391505090565b6060600082900361071757505060408051602081019091526000815290565b60008260405160200161072c91815260200190565b604080517fffffffffffffffffffffffffffffffffffffffffffffffffffffffffffffffe08184030181529190529050601f5b81818151811061077157610771610ffe565b01602001517fff00000000000000000000000000000000000000000000000000000000000000166000036107c6577fffffffffffffffffffffffffffffffffffffffffffffffffffffffffffffffff0161075f565b60008160010167ffffffffffffffff8111156107e4576107e4610e67565b6040519080825280601f01601f19166020018201604052801561080e576020820181803683370190505b50905060005b8281116108815783818151811061082d5761082d610ffe565b602001015160f81c60f81b82828151811061084a5761084a610ffe565b60200101907effffffffffffffffffffffffffffffffffffffffffffffffffffffffffffff1916908160001a905350600101610814565b50949350505050565b3660003332148061089b5750601836105b156108a95750600091369150565b3373ffffffffffffffffffffffffffffffffffffffff7f00000000000000000000000000000000000000000000000000000000000000001614806109de575073ffffffffffffffffffffffffffffffffffffffff7f000000000000000000000000000000000000000000000000000000000000000016638929a8ca367fffffffffffffffffffffffffffffffffffffffffffffffffffffffffffffffec013560601c6040517fffffffff0000000000000000000000000000000000000000000000000000000060e084901b16815273ffffffffffffffffffffffffffffffffffffffff9091166004820152336024820152604401602060405180830381865afa1580156109ba573d6000803e3d6000fd5b505050506040513d601f19601f820116820180604052508101906109de91906111ad565b156109eb5761018b610b2e565b50600091369150565b6000806100ef60017fca9d3e17f264b0f3984e2634e94adb37fa3e6a8103f06aeae6fa59e21c769f5e610d6e565b7c01000000000000000000000000000000000000000000000000000000007fffffffff00000000000000000000000000000000000000000000000000000000831601610aca576040517f08c379a000000000000000000000000000000000000000000000000000000000815260206004820152601f60248201527f496e74657266616365446574656374696f6e3a2077726f6e672076616c75650060448201526064016103ba565b7fffffffff00000000000000000000000000000000000000000000000000000000919091166000908152602092909252604090912080547fffffffffffffffffffffffffffffffffffffffffffffffffffffffffffffff0016911515919091179055565b36600061018b7fffffffffffffffffffffffffffffffffffffffffffffffffffffffffffffffec83018284816111d6565b600060208284031215610b7157600080fd5b5035919050565b60005b83811015610b93578181015183820152602001610b7b565b50506000910152565b6020815260008251806020840152610bbb816040850160208701610b78565b601f017fffffffffffffffffffffffffffffffffffffffffffffffffffffffffffffffe0169190910160400192915050565b600080600060408486031215610c0257600080fd5b83359250602084013567ffffffffffffffff80821115610c2157600080fd5b818601915086601f830112610c3557600080fd5b813581811115610c4457600080fd5b876020828501011115610c5657600080fd5b6020830194508093505050509250925092565b60208152816020820152818360408301376000818301604090810191909152601f9092017fffffffffffffffffffffffffffffffffffffffffffffffffffffffffffffffe0160101919050565b60008083601f840112610cc857600080fd5b50813567ffffffffffffffff811115610ce057600080fd5b6020830191508360208260051b8501011115610cfb57600080fd5b9250929050565b60008060008060408587031215610d1857600080fd5b843567ffffffffffffffff80821115610d3057600080fd5b610d3c88838901610cb6565b90965094506020870135915080821115610d5557600080fd5b50610d6287828801610cb6565b95989497509550505050565b818103818111156100ef577f4e487b7100000000000000000000000000000000000000000000000000000000600052601160045260246000fd5b600181811c90821680610dbc57607f821691505b602082108103610df5577f4e487b7100000000000000000000000000000000000000000000000000000000600052602260045260246000fd5b50919050565b7f416363657373436f6e74726f6c3a206d697373696e6720270000000000000000815260008251610e33816018850160208701610b78565b7f2720726f6c6500000000000000000000000000000000000000000000000000006018939091019283015250601e01919050565b7f4e487b7100000000000000000000000000000000000000000000000000000000600052604160045260246000fd5b601f82111561017b57600081815260208120601f850160051c81016020861015610ebd5750805b601f850160051c820191505b81811015610edc57828155600101610ec9565b505050505050565b815167ffffffffffffffff811115610efe57610efe610e67565b610f1281610f0c8454610da8565b84610e96565b602080601f831160018114610f655760008415610f2f5750858301515b7fffffffffffffffffffffffffffffffffffffffffffffffffffffffffffffffff600386901b1c1916600185901b178555610edc565b6000858152602081207fffffffffffffffffffffffffffffffffffffffffffffffffffffffffffffffe08616915b82811015610fb257888601518255948401946001909101908401610f93565b5085821015610fee57878501517fffffffffffffffffffffffffffffffffffffffffffffffffffffffffffffffff600388901b60f8161c191681555b5050505050600190811b01905550565b7f4e487b7100000000000000000000000000000000000000000000000000000000600052603260045260246000fd5b60008083357fffffffffffffffffffffffffffffffffffffffffffffffffffffffffffffffe184360301811261106257600080fd5b83018035915067ffffffffffffffff82111561107d57600080fd5b602001915036819003821315610cfb57600080fd5b67ffffffffffffffff8311156110aa576110aa610e67565b6110be836110b88354610da8565b83610e96565b6000601f84116001811461111057600085156110da5750838201355b7fffffffffffffffffffffffffffffffffffffffffffffffffffffffffffffffff600387901b1c1916600186901b1783556111a6565b6000838152602090207fffffffffffffffffffffffffffffffffffffffffffffffffffffffffffffffe0861690835b8281101561115f578685013582556020948501946001909201910161113f565b508682101561119a577fffffffffffffffffffffffffffffffffffffffffffffffffffffffffffffffff60f88860031b161c19848701351681555b505060018560011b0183555b5050505050565b6000602082840312156111bf57600080fd5b815180151581146111cf57600080fd5b9392505050565b600080858511156111e657600080fd5b838611156111f357600080fd5b505082019391909203915056fea2646970667358221220ff0ae7a6a67c2f933dffc1d59574a3c04e65659ab413c7ef2edd6d0a2eb7400f64736f6c63430008110033",
  "linkReferences": {},
  "deployedLinkReferences": {}
}