{
  "_format": "hh-sol-artifact-1",
  "contractName": "ERC721MintableFacetMock",
  "sourceName": "contracts/mocks/token/ERC721/facets/ERC721MintableFacetMock.sol",
  "abi": [
    {
      "inputs": [
        {
          "internalType": "contract IForwarderRegistry",
          "name": "forwarderRegistry",
          "type": "address"
        }
      ],
      "stateMutability": "nonpayable",
      "type": "constructor"
    },
    {
      "inputs": [
        {
          "internalType": "uint256",
          "name": "tokenId",
          "type": "uint256"
        }
      ],
      "name": "ERC721ExistingToken",
      "type": "error"
    },
    {
      "inputs": [],
      "name": "ERC721MintToAddressZero",
      "type": "error"
    },
    {
      "inputs": [
        {
          "internalType": "address",
          "name": "recipient",
          "type": "address"
        },
        {
          "internalType": "uint256",
          "name": "tokenId",
          "type": "uint256"
        }
      ],
      "name": "ERC721SafeTransferRejected",
      "type": "error"
    },
    {
      "inputs": [],
      "name": "IllegalInterfaceId",
      "type": "error"
    },
    {
      "inputs": [
        {
          "internalType": "address",
          "name": "account",
          "type": "address"
        }
      ],
      "name": "NotProxyAdmin",
      "type": "error"
    },
    {
      "inputs": [
        {
          "internalType": "bytes32",
          "name": "role",
          "type": "bytes32"
        },
        {
          "internalType": "address",
          "name": "account",
          "type": "address"
        }
      ],
      "name": "NotRoleHolder",
      "type": "error"
    },
    {
      "anonymous": false,
      "inputs": [
        {
          "indexed": true,
          "internalType": "address",
          "name": "owner",
          "type": "address"
        },
        {
          "indexed": true,
          "internalType": "address",
          "name": "approved",
          "type": "address"
        },
        {
          "indexed": true,
          "internalType": "uint256",
          "name": "tokenId",
          "type": "uint256"
        }
      ],
      "name": "Approval",
      "type": "event"
    },
    {
      "anonymous": false,
      "inputs": [
        {
          "indexed": true,
          "internalType": "address",
          "name": "owner",
          "type": "address"
        },
        {
          "indexed": true,
          "internalType": "address",
          "name": "operator",
          "type": "address"
        },
        {
          "indexed": false,
          "internalType": "bool",
          "name": "approved",
          "type": "bool"
        }
      ],
      "name": "ApprovalForAll",
      "type": "event"
    },
    {
      "anonymous": false,
      "inputs": [
        {
          "indexed": true,
          "internalType": "address",
          "name": "from",
          "type": "address"
        },
        {
          "indexed": true,
          "internalType": "address",
          "name": "to",
          "type": "address"
        },
        {
          "indexed": true,
          "internalType": "uint256",
          "name": "tokenId",
          "type": "uint256"
        }
      ],
      "name": "Transfer",
      "type": "event"
    },
    {
      "inputs": [],
      "name": "MINTER_ROLE",
      "outputs": [
        {
          "internalType": "bytes32",
          "name": "",
          "type": "bytes32"
        }
      ],
      "stateMutability": "view",
      "type": "function"
    },
    {
      "inputs": [],
      "name": "__msgData",
      "outputs": [
        {
          "internalType": "bytes",
          "name": "",
          "type": "bytes"
        }
      ],
      "stateMutability": "view",
      "type": "function"
    },
    {
      "inputs": [
        {
          "internalType": "address",
          "name": "to",
          "type": "address"
        },
        {
          "internalType": "uint256[]",
          "name": "tokenIds",
          "type": "uint256[]"
        }
      ],
      "name": "batchMint",
      "outputs": [],
      "stateMutability": "nonpayable",
      "type": "function"
    },
    {
      "inputs": [],
      "name": "initERC721MintableStorage",
      "outputs": [],
      "stateMutability": "nonpayable",
      "type": "function"
    },
    {
      "inputs": [
        {
          "internalType": "address",
          "name": "to",
          "type": "address"
        },
        {
          "internalType": "uint256",
          "name": "tokenId",
          "type": "uint256"
        }
      ],
      "name": "mint",
      "outputs": [],
      "stateMutability": "nonpayable",
      "type": "function"
    },
    {
      "inputs": [
        {
          "internalType": "address",
          "name": "to",
          "type": "address"
        },
        {
          "internalType": "uint256",
          "name": "tokenId",
          "type": "uint256"
        },
        {
          "internalType": "bytes",
          "name": "data",
          "type": "bytes"
        }
      ],
      "name": "safeMint",
      "outputs": [],
      "stateMutability": "nonpayable",
      "type": "function"
    }
  ],
  "bytecode": "0x60a060405234801561001057600080fd5b5060405161105a38038061105a83398101604081905261002f91610040565b6001600160a01b0316608052610070565b60006020828403121561005257600080fd5b81516001600160a01b038116811461006957600080fd5b9392505050565b608051610fba6100a060003960008181610772015281816107b0015281816108e801526109700152610fba6000f3fe608060405234801561001057600080fd5b50600436106100725760003560e01c80638832e6e3116100505780638832e6e3146100be578063a920466f146100d1578063d5391393146100d957600080fd5b806331e66e1e1461007757806340c10f19146100965780634684d7e9146100ab575b600080fd5b61007f61010e565b60405161008d929190610c3c565b60405180910390f35b6100a96100a4366004610cb2565b610121565b005b6100a96100b9366004610cdc565b610174565b6100a96100cc366004610d62565b6101ed565b6100a9610275565b6101007f6d696e746572000000000000000000000000000000000000000000000000000081565b60405190815260200161008d565b366000610119610298565b915091509091565b61015c7f6d696e746572000000000000000000000000000000000000000000000000000061014d6102a3565b6101556102b2565b91906102e6565b6101708282610169610371565b919061039f565b5050565b6101a07f6d696e746572000000000000000000000000000000000000000000000000000061014d6102a3565b6101e8838383808060200260200160405190810160405280939291908181526020018383602002808284376000920191909152506101e19250610371915050565b91906104b9565b505050565b6102197f6d696e746572000000000000000000000000000000000000000000000000000061014d6102a3565b61026f6102246102a3565b858585858080601f0160208091040260200160405190810160405280939291908181526020018383808284376000920191909152506102669250610371915050565b93929190610630565b50505050565b61028e6102806102a3565b61028861066d565b9061069b565b610296610706565b565b36600061011961073b565b60006102ad6108a5565b905090565b6000806102e060017fc8827d3282af6f37b64c3e9e6f3ac9df286ab0bb0fccd6f8661bf19adb368b23610de9565b92915050565b60008281526020848152604080832073ffffffffffffffffffffffffffffffffffffffff8516845290915290205460ff166101e8576040517f7aa728820000000000000000000000000000000000000000000000000000000081526004810183905273ffffffffffffffffffffffffffffffffffffffff821660248201526044015b60405180910390fd5b6000806102e060017fddf3ee18ae6d688373c219468f8be446e7ae82215f4779d821c7ea5e8c13c0c1610de9565b73ffffffffffffffffffffffffffffffffffffffff82166103ec576040517f7851b9cd00000000000000000000000000000000000000000000000000000000815260040160405180910390fd5b60008181526020849052604090205473ffffffffffffffffffffffffffffffffffffffff161561044b576040517f753eceac00000000000000000000000000000000000000000000000000000000815260048101829052602401610368565b60008181526020848152604080832073ffffffffffffffffffffffffffffffffffffffff86169081905580845260018088019093528184208054909301909255518392907fddf252ad1be2c89b69c2b068fc378daa952ba7f163c4a11628f55a4df523b3ef908290a4505050565b73ffffffffffffffffffffffffffffffffffffffff8216610506576040517f7851b9cd00000000000000000000000000000000000000000000000000000000815260040160405180910390fd5b805160005b8181146105fb57600083828151811061052657610526610e23565b602002602001015190506105648660000160008381526020019081526020016000205473ffffffffffffffffffffffffffffffffffffffff16151590565b1561059e576040517f753eceac00000000000000000000000000000000000000000000000000000000815260048101829052602401610368565b60008181526020879052604080822073ffffffffffffffffffffffffffffffffffffffff88169081905590518392907fddf252ad1be2c89b69c2b068fc378daa952ba7f163c4a11628f55a4df523b3ef908290a45060010161050b565b5073ffffffffffffffffffffffffffffffffffffffff9092166000908152600190930160205250604090912080549091019055565b61063b85848461039f565b73ffffffffffffffffffffffffffffffffffffffff83163b15610666576106668460008585856109ec565b5050505050565b6000806102e060017fb53127684a568b3173ae13b9f8a6016e243e63b6e8ee1178d6a717850b5d6104610de9565b815473ffffffffffffffffffffffffffffffffffffffff828116911614610170576040517f673a31a100000000000000000000000000000000000000000000000000000000815273ffffffffffffffffffffffffffffffffffffffff82166004820152602401610368565b6102967f8e773e13000000000000000000000000000000000000000000000000000000006001610734610b01565b9190610b2f565b3660003332148061074c5750601836105b1561075a5750600091369150565b3373ffffffffffffffffffffffffffffffffffffffff7f000000000000000000000000000000000000000000000000000000000000000016148061088f575073ffffffffffffffffffffffffffffffffffffffff7f000000000000000000000000000000000000000000000000000000000000000016638929a8ca367fffffffffffffffffffffffffffffffffffffffffffffffffffffffffffffffec013560601c6040517fffffffff0000000000000000000000000000000000000000000000000000000060e084901b16815273ffffffffffffffffffffffffffffffffffffffff9091166004820152336024820152604401602060405180830381865afa15801561086b573d6000803e3d6000fd5b505050506040513d601f19601f8201168201806040525081019061088f9190610e52565b1561089c57610119610c0b565b50600091369150565b6000333214806108b55750601836105b156108bf57503390565b7fffffffffffffffffffffffffffffffffffffffffffffffffffffffffffffffec36013560601c7f000000000000000000000000000000000000000000000000000000000000000073ffffffffffffffffffffffffffffffffffffffff163314806109db57506040517f8929a8ca00000000000000000000000000000000000000000000000000000000815273ffffffffffffffffffffffffffffffffffffffff82811660048301523360248301527f00000000000000000000000000000000000000000000000000000000000000001690638929a8ca90604401602060405180830381865afa1580156109b7573d6000803e3d6000fd5b505050506040513d601f19601f820116820180604052508101906109db9190610e52565b156109e557919050565b3391505090565b6040517f150b7a02000000000000000000000000000000000000000000000000000000008082529073ffffffffffffffffffffffffffffffffffffffff85169063150b7a0290610a46908990899088908890600401610e7b565b6020604051808303816000875af1158015610a65573d6000803e3d6000fd5b505050506040513d601f19601f82011682018060405250810190610a899190610f18565b7fffffffff000000000000000000000000000000000000000000000000000000001614610666576040517fc215a7a100000000000000000000000000000000000000000000000000000000815273ffffffffffffffffffffffffffffffffffffffff8416600482015260248101839052604401610368565b6000806102e060017fca9d3e17f264b0f3984e2634e94adb37fa3e6a8103f06aeae6fa59e21c769f5e610de9565b7c01000000000000000000000000000000000000000000000000000000007fffffffff00000000000000000000000000000000000000000000000000000000831601610ba7576040517f72c683bb00000000000000000000000000000000000000000000000000000000815260040160405180910390fd5b7fffffffff00000000000000000000000000000000000000000000000000000000919091166000908152602092909252604090912080547fffffffffffffffffffffffffffffffffffffffffffffffffffffffffffffff0016911515919091179055565b3660006101197fffffffffffffffffffffffffffffffffffffffffffffffffffffffffffffffec8301828481610f5a565b60208152816020820152818360408301376000818301604090810191909152601f9092017fffffffffffffffffffffffffffffffffffffffffffffffffffffffffffffffe0160101919050565b803573ffffffffffffffffffffffffffffffffffffffff81168114610cad57600080fd5b919050565b60008060408385031215610cc557600080fd5b610cce83610c89565b946020939093013593505050565b600080600060408486031215610cf157600080fd5b610cfa84610c89565b9250602084013567ffffffffffffffff80821115610d1757600080fd5b818601915086601f830112610d2b57600080fd5b813581811115610d3a57600080fd5b8760208260051b8501011115610d4f57600080fd5b6020830194508093505050509250925092565b60008060008060608587031215610d7857600080fd5b610d8185610c89565b935060208501359250604085013567ffffffffffffffff80821115610da557600080fd5b818701915087601f830112610db957600080fd5b813581811115610dc857600080fd5b886020828501011115610dda57600080fd5b95989497505060200194505050565b818103818111156102e0577f4e487b7100000000000000000000000000000000000000000000000000000000600052601160045260246000fd5b7f4e487b7100000000000000000000000000000000000000000000000000000000600052603260045260246000fd5b600060208284031215610e6457600080fd5b81518015158114610e7457600080fd5b9392505050565b600073ffffffffffffffffffffffffffffffffffffffff8087168352602081871681850152856040850152608060608501528451915081608085015260005b82811015610ed65785810182015185820160a001528101610eba565b5050600060a0828501015260a07fffffffffffffffffffffffffffffffffffffffffffffffffffffffffffffffe0601f83011684010191505095945050505050565b600060208284031215610f2a57600080fd5b81517fffffffff0000000000000000000000000000000000000000000000000000000081168114610e7457600080fd5b60008085851115610f6a57600080fd5b83861115610f7757600080fd5b505082019391909203915056fea264697066735822122071d5c7743d733874ed71b38490aec80974990fe962afca32397d98b68607022864736f6c63430008150033",
  "linkReferences": {},
  "deployedLinkReferences": {}
}