{
  "_format": "hh-sol-artifact-1",
  "contractName": "AccessControlFacetMock",
  "sourceName": "contracts/mocks/access/AccessControlFacetMock.sol",
  "abi": [
    {
      "inputs": [
        {
          "internalType": "contract IForwarderRegistry",
          "name": "forwarderRegistry",
          "type": "address"
        }
      ],
      "stateMutability": "nonpayable",
      "type": "constructor"
    },
    {
      "anonymous": false,
      "inputs": [
        {
          "indexed": false,
          "internalType": "bytes32",
          "name": "role",
          "type": "bytes32"
        },
        {
          "indexed": false,
          "internalType": "address",
          "name": "account",
          "type": "address"
        },
        {
          "indexed": false,
          "internalType": "address",
          "name": "operator",
          "type": "address"
        }
      ],
      "name": "RoleGranted",
      "type": "event"
    },
    {
      "anonymous": false,
      "inputs": [
        {
          "indexed": false,
          "internalType": "bytes32",
          "name": "role",
          "type": "bytes32"
        },
        {
          "indexed": false,
          "internalType": "address",
          "name": "account",
          "type": "address"
        },
        {
          "indexed": false,
          "internalType": "address",
          "name": "operator",
          "type": "address"
        }
      ],
      "name": "RoleRevoked",
      "type": "event"
    },
    {
      "inputs": [],
      "name": "TEST_ROLE",
      "outputs": [
        {
          "internalType": "bytes32",
          "name": "",
          "type": "bytes32"
        }
      ],
      "stateMutability": "view",
      "type": "function"
    },
    {
      "inputs": [],
      "name": "__msgData",
      "outputs": [
        {
          "internalType": "bytes",
          "name": "",
          "type": "bytes"
        }
      ],
      "stateMutability": "view",
      "type": "function"
    },
    {
      "inputs": [
        {
          "internalType": "bytes32",
          "name": "role",
          "type": "bytes32"
        },
        {
          "internalType": "address",
          "name": "account",
          "type": "address"
        }
      ],
      "name": "enforceHasRole",
      "outputs": [],
      "stateMutability": "view",
      "type": "function"
    },
    {
      "inputs": [
        {
          "internalType": "bytes32",
          "name": "role",
          "type": "bytes32"
        },
        {
          "internalType": "address",
          "name": "account",
          "type": "address"
        }
      ],
      "name": "grantRole",
      "outputs": [],
      "stateMutability": "nonpayable",
      "type": "function"
    },
    {
      "inputs": [
        {
          "internalType": "bytes32",
          "name": "role",
          "type": "bytes32"
        },
        {
          "internalType": "address",
          "name": "account",
          "type": "address"
        }
      ],
      "name": "hasRole",
      "outputs": [
        {
          "internalType": "bool",
          "name": "",
          "type": "bool"
        }
      ],
      "stateMutability": "view",
      "type": "function"
    },
    {
      "inputs": [
        {
          "internalType": "bytes32",
          "name": "role",
          "type": "bytes32"
        }
      ],
      "name": "renounceRole",
      "outputs": [],
      "stateMutability": "nonpayable",
      "type": "function"
    },
    {
      "inputs": [
        {
          "internalType": "bytes32",
          "name": "role",
          "type": "bytes32"
        },
        {
          "internalType": "address",
          "name": "account",
          "type": "address"
        }
      ],
      "name": "revokeRole",
      "outputs": [],
      "stateMutability": "nonpayable",
      "type": "function"
    }
  ],
  "bytecode": "0x60a06040523480156200001157600080fd5b5060405162002e4938038062002e49833981810160405281019062000037919062000201565b80806200006d7f6a83522c126b1f14401cda64886fc651a7060f385b5e2d289e620e1859fee4e760001b6200017a60201b60201c565b620000a17ff6fd3c5688ac3ada9425e55f9cce326a85fd64fca9b1584401f3d2203aee560b60001b6200017a60201b60201c565b620000d57fe7883c748f395270b53c914004a2b83ffb6acf3836fed33ec0a3c0eb061e618860001b6200017a60201b60201c565b8073ffffffffffffffffffffffffffffffffffffffff1660808173ffffffffffffffffffffffffffffffffffffffff1681525050506200013e7f5159f23f76146a969857737eee6512182ed64c16f44b9350034234897ec6548260001b6200017d60201b60201c565b50620001737fddd23367d2c86c5674baffbb936732956869051830c5a941cdcde9036f2de1f060001b6200018060201b60201c565b5062000233565b50565b50565b50565b600080fd5b600073ffffffffffffffffffffffffffffffffffffffff82169050919050565b6000620001b58262000188565b9050919050565b6000620001c982620001a8565b9050919050565b620001db81620001bc565b8114620001e757600080fd5b50565b600081519050620001fb81620001d0565b92915050565b6000602082840312156200021a576200021962000183565b5b60006200022a84828501620001ea565b91505092915050565b608051612be56200026460003960008181611765015281816117ba01528181611ba90152611bfe0152612be56000f3fe608060405234801561001057600080fd5b506004361061007d5760003560e01c80638bb9c5bf1161005b5780638bb9c5bf146100db57806391d14854146100f7578063d547741f14610127578063db9b206a146101435761007d565b80632f2ff15d1461008257806331e66e1e1461009e5780633ad554d0146100bd575b600080fd5b61009c6004803603810190610097919061256e565b61015f565b005b6100a66102db565b6040516100b492919061260c565b60405180910390f35b6100c5610372565b6040516100d2919061263f565b60405180910390f35b6100f560048036038101906100f0919061265a565b610396565b005b610111600480360381019061010c919061256e565b610440565b60405161011e91906126a2565b60405180910390f35b610141600480360381019061013c919061256e565b6104ea565b005b61015d6004803603810190610158919061256e565b610667565b005b61018b7f80b05a2097e435a263836e5d47f12761752bb9158e0635003fa053c6035da64860001b61070b565b6101b77f30adbeef5d3eb6afa5dd95b7524f9b5e5c3b829f12981fbe75c98121c2f38e9260001b61070b565b6101e37f978fc0e2023f3f853abbcf1da0697aac38a188e8b02fa566c24d4cc75a6fd50f60001b61070b565b60006101ed61070e565b905061021b7f173bc9bdbd08d13f20b09b397a24a22588967a542f7a6d319a56c2b348afb26860001b61070b565b6102477f369b201760c4f0c261e10db722d1c0297e581204081cae0dcfe320678af1223960001b61070b565b610261816102536107a1565b61089190919063ffffffff16565b61028d7f77bce89e755c4be9647354c981df18058c625034fac8bfaefc6b6354791e1fee60001b61070b565b6102b87e27036b6636d5c8338e0aa48820ccfea7aed4ce3ad6dda53cb9a65150174cf460001b61070b565b6102d68383836102c6610a03565b610af3909392919063ffffffff16565b505050565b36600061030a7f193b4ef72ec6181cda1d9a187e8c229529917b8c1fb28472859c4b7e3b22cf9e60001b610d4a565b6103367f4320236c667fd95189026a5cf6ab93f51b3a1f60f10a5c8ea7aeec70cdb9210d60001b610d4a565b6103627fdcb4c94040aa514b1f9daca0c1a1803ac80e3bf3bbf55a49a2521e7b557487d660001b610d4a565b61036a610d4d565b915091509091565b7f746573746572000000000000000000000000000000000000000000000000000081565b6103c27fd87dbf3f8f15f543b00ad4449d93d3d4056b6895e58b56230fd7ed39574b8e1260001b61070b565b6103ee7fc1ca5bab37ce56db2b7c46eb8ad22dbdcb0c65e8ebc195086749d4ef197b071460001b61070b565b61041a7f7ff83bfd89b4da05855f0ecd82b7fe2b9a5c548394746d87d99bce68eb454f8460001b61070b565b61043d61042561070e565b8261042e610a03565b610de49092919063ffffffff16565b50565b600061046e7fdf89cb007b0b377e77804adc800f47adc3482596b24427c0fa0a371c1915d61860001b61070b565b61049a7f1f6c6e5f4fcfe66dc8295b419fe220d8de92b4becbc4b97c1f2e71508c24bd9b60001b61070b565b6104c67f712a0755a0afefb32c7d4cd56fc79b56fb34b7b9927983179be9743571e76eb960001b61070b565b6104e283836104d3610a03565b610fd89092919063ffffffff16565b905092915050565b6105167fd9e7377f84c1384761162a455f2013cbf48dfd186202f9ad36a7d8f64ab2a0b060001b61070b565b6105427f356c511da5b47dde42cbc6201343726412c8f1cd18cb77f54fece3db9e0c15ed60001b61070b565b61056e7f8dc7b380b2352ae483e4e697fc47cd6d8af51871a031ee68a9e36af3a947d42f60001b61070b565b600061057861070e565b90506105a67fc7f06b9e4712154827abf4f4d6916491397f219511f4e101ba821e46c2d21d3860001b61070b565b6105d27f48a9a09c517c78c7ff1cf9efc1c813e3d0f5e75f0edf4144ecf0f6b0152589f360001b61070b565b6105ec816105de6107a1565b61089190919063ffffffff16565b6106187fbc8b91168d1052f1070e4abfe191c3e63f80e0da4e089e5d8dfa1fe92090170760001b61070b565b6106447f6fce64ca36a4363f937f08c44a633fcd0c34b3a5a77f56218b1da15cd0f67a6f60001b61070b565b610662838383610652610a03565b6110c7909392919063ffffffff16565b505050565b6106937f017791d7a0625d4e2b315a30bdb5f317728855552c85075e7dc066f2fe93ebcf60001b610d4a565b6106bf7f5ed04da4caa71180178d037d9706ef7ce36f114673c4c0fcd023b1d1e2c0039e60001b610d4a565b6106eb7f1629107e74c1217a610f131956eb377669c39722e02491ecde6602d6939b8f2460001b610d4a565b61070782826106f8610a03565b61131f9092919063ffffffff16565b5050565b50565b600061073c7f247e80a41c94da8c0b694237464bdb656f76bb06635b01872ecbfdb137682e9b60001b6114d5565b6107687f59ecbd4a3ce499f574052e6da9975d860de7f6c58544a9c49920b1303c42757560001b6114d5565b6107947f2a17cde974fd43ae1f5c5f7ddadc93cb366213a0084c3548911102f9128c0ef760001b6114d5565b61079c6114d8565b905090565b60006107cf7f12b4db1a13ae954a255ef0fa37765d8ee1e39537e429053253a663eff808644d60001b611975565b6107fb7feebae444011023bb1eb9d991a8900c1fc6c9dc05e526ab9149645480ea211c3e60001b611975565b6108277f7a85e8875e57667831d822c4c89a943f00106e2fdc910c0df83014dfd0d1477360001b611975565b600060017f6a1da6973104ff7dedb9b4f5cab5830b3f4a0284ed754366cfc45568bd2d38df60001c61085991906126f6565b60001b905061088a7fcd65f8dce9f650605649809ea57b1b403b2167736801d4eb4d6da1b99327986060001b611975565b8091505090565b6108bd7f311cb72dc07750d6828e4b4e89b77f33fb16c70db0f74c9dbf7e01b75fe2538460001b611975565b6108e97f5a948a147df45bdb71c8f98a865604b23d4880b5921ab247626470201792a9d460001b611975565b6109157faa1ac481ace62e8856a31e42b6fa6ad7e8b29c10fa062b8775baa1bf5185f76360001b611975565b6109417fa565745ecf1d7ea43fd9e19c5a7b72dbef31f2d274ba98df9594459d1fdda02f60001b611975565b8160000160009054906101000a900473ffffffffffffffffffffffffffffffffffffffff1673ffffffffffffffffffffffffffffffffffffffff168173ffffffffffffffffffffffffffffffffffffffff16146109d3576040517f08c379a00000000000000000000000000000000000000000000000000000000081526004016109ca90612787565b60405180910390fd5b6109ff7f3cdf1cbcd193a5f563b48f16d650e4ae6a3f20aa956e2ea1fe221c3ff0241bd160001b611975565b5050565b6000610a317f801c8c79be2b05b59bfec30b799e1e89c42a285298d34516a11d9983ec0153d460001b611978565b610a5d7f0ad65999965d2b079fdc081d5b9eab8a14d9e7540af712c264dea05d4fa7557160001b611978565b610a897f447a3fd8863869a13a79f3075e8c91b7d7ac516e56bb07785551a7ddb15a748b60001b611978565b600060017fc8a24fbf085abf1493c5f225802d03df3ece6cd19f18edff36c56d854cddac9e60001c610abb91906126f6565b60001b9050610aec7f562c1f2c38f1a5c4ea4487aeb1c80e8f30c8d10d2e641b4fa90b1b60397fb4b760001b611978565b8091505090565b610b1f7ff11a98fdd230600ce87550d76b9fca1bbee4af2d578eb865f5c2c7bdc4a7527860001b611978565b610b4b7fc1ca4d6c587440c964ab53419719556be8542350c343e5018df4a2d28b50476460001b611978565b610b777fa427877c8b57af4b857c333a22ed56486662ec71eb0b741bcf2211e0b390c71260001b611978565b610b8c838386610fd89092919063ffffffff16565b610d1757610bbc7f8bd9108d1c1eea08a5b0f6dd9317607a2cc16adf430aa7b55c05fa840fd375fb60001b611978565b610be87f726b0cac448ebf373a33039956cabecb0de95898a416c8ed78a29b85ace9f46a60001b611978565b610c147f650416bdae4d58008b826eacf7aab32551609c81b06cdeac43cd2d751656004460001b611978565b600184600001600085815260200190815260200160002060008473ffffffffffffffffffffffffffffffffffffffff1673ffffffffffffffffffffffffffffffffffffffff16815260200190815260200160002060006101000a81548160ff021916908315150217905550610cab7f68941876742074ad513e3f5e021f724de89238c4ffa4d74f07539b4530b97be460001b611978565b610cd77f187f0667b0a253f9910d8e5a94ceecd9d5c8469661473899249e76485566307760001b611978565b7f2f8788117e7eff1d82e926ec794901d17c78024a50270940304540a733656f0d838383604051610d0a939291906127b6565b60405180910390a1610d44565b610d437feedd033d62d4e64c8e26959f54716e0f740a1d3e9600211e235a64ff2666ec0660001b611978565b5b50505050565b50565b366000610d7c7f465e51ea0b96c87674ff7f191213ff862da80d1ba56c804dce0287bd7149689960001b6114d5565b610da87fb96a0947f9bd59731b6ff06815c67dc87e123a5b2b7d20b3676b1a6ccd7bef1560001b6114d5565b610dd47f02557acae1113e031f4e6bd454bb2f20ed572abfb8b6d5209c1b777a4a1851e460001b6114d5565b610ddc61197b565b915091509091565b610e107f481f2971a2ab353060fd50cd2b7b201c2ad89f3532285e5e452105ff1bce4f8a60001b611978565b610e3c7f136266180d33263d718461d3f324d6e0336ef03075ac4e870d175ce9f137647b60001b611978565b610e687fd52a9d104bc9f0da2026dd91f07d9e046ef0e1f9ccc70280a43e9536dae82e6260001b611978565b610e7d81838561131f9092919063ffffffff16565b610ea97f2aa177f05b18f4f01de90fced46eeff52ce0b105498950f2828d1dc0511990a960001b611978565b610ed57f05470c7ccba26c54434ad25488fd1382c9a64e19dbd26967395efed83f0498de60001b611978565b600083600001600083815260200190815260200160002060008473ffffffffffffffffffffffffffffffffffffffff1673ffffffffffffffffffffffffffffffffffffffff16815260200190815260200160002060006101000a81548160ff021916908315150217905550610f6c7ff975a5ad204fa6cb678d6341e3b689532c41a21c95784b27408450ed805abe7260001b611978565b610f987fa262fd022b98727c62517f29d0f2f6262a47007a16cdd80ef61d45595bdaf66e60001b611978565b7ff6391f5c32d9c69d2a47ea670b442974b53935d1edc7fd64eb21e047a839171b818384604051610fcb939291906127b6565b60405180910390a1505050565b60006110067f0772773cfdc39ccb04de1cf07eabc404db44b2ed99c22e369a8bd443d82b540e60001b611978565b6110327fe049522e56d47dee99bb4bd6772fb6fdb67bcecb672685f40db35584219b970160001b611978565b61105e7ff7c9f22dff1cc7708f827bd849f309aa6a6190a523f2887883febc9f8833dacb60001b611978565b83600001600084815260200190815260200160002060008373ffffffffffffffffffffffffffffffffffffffff1673ffffffffffffffffffffffffffffffffffffffff16815260200190815260200160002060009054906101000a900460ff1690509392505050565b6110f37f33466c2e065f7002639f2b5fecc63430e365e319bd41179ff5237b6cd140d44660001b611978565b61111f7f58162bc6729c9b04d5d773658fcf1a351e3545c1a033deb72144d3868fa45d5f60001b611978565b61114b7fc127550bfd3148f92a5b4938be1adf84e02c195e9c94a3252268b9bf345a420060001b611978565b611160838386610fd89092919063ffffffff16565b156112ec576111917f60e8de5a992216a4c7c1dc139ff3e333feac14d6d3a27fa24337883270fc90c460001b611978565b6111bd7ff298c6ebd39cfa4fa96b161b4f0421f1921d798afa76409b3c1dc00c06502e7660001b611978565b6111e97fe16bb00d1c5298b1fb94c046082b6f8f00ef2feb2d2b2a393606d605a7e2be2860001b611978565b600084600001600085815260200190815260200160002060008473ffffffffffffffffffffffffffffffffffffffff1673ffffffffffffffffffffffffffffffffffffffff16815260200190815260200160002060006101000a81548160ff0219169083151502179055506112807f3dedbd82bfc666b3d23b461030201bebd9c1a452c2aaf72af6e44fe31059678860001b611978565b6112ac7f6bdd39899254149b7e8dfa76e7dd01c78f14fcd27dba7f86f8d56fb31c88807f60001b611978565b7ff6391f5c32d9c69d2a47ea670b442974b53935d1edc7fd64eb21e047a839171b8383836040516112df939291906127b6565b60405180910390a1611319565b6113187f6a13a1a3e95c1e5e5f97899eeb468df8308f4661855064cb4f6c5dba3ce566ff60001b611978565b5b50505050565b61134b7f81b6b5d48234abba9d1fb277991a3539b2421ecb71f6e328abc41262a195391560001b611978565b6113777fafa8513392110644796616c3f31e8847d87af3ba9e413dd74d1d89138a222b3460001b611978565b6113a37fc2137be5366d31cf998c7b8658bc23dea20a703bd5cff8f1e679cebe8356de1360001b611978565b6113b8828285610fd89092919063ffffffff16565b6114a4576113e87f1521956321cfb3a89da6b0453e3aca7b9b098ca723c8a37d55ed1e9814b492f560001b611978565b6114147ffa9449661e0af7aae708409feaa75780e768b400414b7509e29c6dd3634eccbc60001b611978565b6114407f2e220ace96639132671ab7a71af7e48e7faf59f266e7e79ee3d6d865108e392b60001b611978565b61144982611dcc565b60405160200161145991906128ff565b6040516020818303038152906040526040517f08c379a000000000000000000000000000000000000000000000000000000000815260040161149b9190612965565b60405180910390fd5b6114d07fc71cd2e6afcee82c0815f03d2ef069134033100cec5bff0b6000a959af1fc5b360001b611978565b505050565b50565b60006115067f21f83b85e7dbc596177bc46cc6795c14520638d6db8281a9a46e4d6aa22fb1aa60001b6123b2565b6115327f9fe8a1e1e7c5f38bddac874222fbac3da358d377b550af606038c28c918342a660001b6123b2565b61155e7f4d776035fe014c48f9b8d211e07ad5f3e10a7407e640d6fd44f001ad72ec145460001b6123b2565b600033905061158f7f1470143c211ace273ad33be67e446aa27b56df8ff21c9e30df1c1ce1aab37faf60001b6123b2565b6115bb7f701a5aed6b7834b1cde40063ca2763d0cc2a2d369e96d6ffd63bd7f36d010be860001b6123b2565b3273ffffffffffffffffffffffffffffffffffffffff168173ffffffffffffffffffffffffffffffffffffffff160361167b5761161a7fde73d737f19da71f7e0a8be64041464998117e05c9bb9f65df2259a0779caaa960001b6123b2565b6116467f2e1b1201e86447778e6a37c8701809fecc19c6c17c8cdf9a32e27254363f132c60001b6123b2565b6116727f06438a6776a73eebdc69485314350483a51cfddc04e159b6f57dde5e4030039060001b6123b2565b80915050611972565b6116a77f6b510e6cfe0d366d8eb68be09db038d2dbfc0ca71029993b650b184340fc438a60001b6123b2565b6116d37fc81f2aa3e9c76ff8d9709ad059857726fb537b8fa6166dbedc9e3f598edddc4160001b6123b2565b6116ff7fd5cec79665173c3237287beadc96f615eba8ff220376c7f0add1c603fa1dcb0260001b6123b2565b60006117096123b5565b90506117377f16b7bdd4d503ca2d391b420534e7b71ff847aea146e0c5e9b1d972d25ac95cf360001b6123b2565b6117637f8284349b0a2249652b224d12d5fd826a549839b4e0aab6630e88a99ebee0413860001b6123b2565b7f000000000000000000000000000000000000000000000000000000000000000073ffffffffffffffffffffffffffffffffffffffff168273ffffffffffffffffffffffffffffffffffffffff16148061185557507f000000000000000000000000000000000000000000000000000000000000000073ffffffffffffffffffffffffffffffffffffffff1663e60125d682846040518363ffffffff1660e01b8152600401611813929190612987565b602060405180830381865afa158015611830573d6000803e3d6000fd5b505050506040513d601f19601f8201168201806040525081019061185491906129dc565b5b156118e8576118867ff1748450d5c67d16e99d465b5f46314c0a03cb614c0a36c7a01d0d452a42d63760001b6123b2565b6118b27ffcb9fb7b37e10dcd260ee2b6500d072708cde8b16110ac602ac219c4f0ac7a8860001b6123b2565b6118de7f0b8b6cb7f0d04c4b23441400a0a579a14ccf6e6d955d51d0d443ae3b764fbf1e60001b6123b2565b8092505050611972565b6119147fc6338ea7b912cb871ae88b37af8abae50806bb4e29d453caf0758aea491b82ab60001b6123b2565b6119407fb1b2861ba78bbb686a91db34f76b76efe61d8e91016be1013861a8390b68a26860001b6123b2565b61196c7f131b91089cbc4af49187f8d51fbbc23a25f13946f6ab1ab771005101548d429760001b6123b2565b81925050505b90565b50565b50565b3660006119aa7ff74f168f3cfe88b8c75939ced6593b63b3a80d84384ea84798e06eb70c27e8b560001b6123b2565b6119d67f0c30881a465ce740e34b44da3f5682b69b261b3b3d916bf3cb638422722c466360001b6123b2565b611a027f7d034622f0cfa82b1eafef58ff96909800ff5cbda4aec1c658399402313d1e4760001b6123b2565b6000339050611a337f3e7b906c7c24b8d911bba8092ce84f23b5c1596b35038fef4ace71fcce1f3a0e60001b6123b2565b611a5f7f76d316808c9e8931ac3d89e37ff8d9a597f8e50813fa0a88766b36313e96041060001b6123b2565b3273ffffffffffffffffffffffffffffffffffffffff168173ffffffffffffffffffffffffffffffffffffffff1603611b2357611abe7fa811c091d51641b1118f1402cc0638dc69041cba2f323377090e0a55500a152460001b6123b2565b611aea7ff673674fd259625637c155f7345382b871e4581df73bc53013494d30dd1dc16460001b6123b2565b611b167f108112c7eebc35534afdbeeca8c2ad7449209fe78eeb1f9fdd0c5f6fb3111cce60001b6123b2565b6000369250925050611dc8565b611b4f7f8e23e3f35cdceddd8b15b45bf787b8d6ae38e04c5870f4020c01d683a2f10fc560001b6123b2565b611b7b7fb4f48de4e10f2751022dce70d5876a74afb41b756eb77cdf4fe88835769afb1a60001b6123b2565b611ba77f2afe9b0d9d36347d263d9c298082ea9eea1c1879c9904d44b9316a451e41b92f60001b6123b2565b7f000000000000000000000000000000000000000000000000000000000000000073ffffffffffffffffffffffffffffffffffffffff168173ffffffffffffffffffffffffffffffffffffffff161480611ca057507f000000000000000000000000000000000000000000000000000000000000000073ffffffffffffffffffffffffffffffffffffffff1663e60125d6611c406123b5565b836040518363ffffffff1660e01b8152600401611c5e929190612987565b602060405180830381865afa158015611c7b573d6000803e3d6000fd5b505050506040513d601f19601f82011682018060405250810190611c9f91906129dc565b5b15611d3b57611cd17f2191333a031dc1f79f931a9c32f8cc636186c8d1941bf6ad2d0e09669ccdb2fd60001b6123b2565b611cfd7f625d923af8cba91f74f7ad122740e01bcd36ee0be52b9596ca85f7881a963db360001b6123b2565b611d297f09e6b704caf4fc80a51357d4ff43f8bab75f1133b8a694db1fb7ac8851fe64b160001b6123b2565b611d3161241c565b9250925050611dc8565b611d677fcfd0711298438e2e01b8a5c4d5745b4b2a1fa1742e9ef04643fd654ff78cfca960001b6123b2565b611d937faec17026272a3ca53764ba29e047c1b72c1edbf88732d32ffae6b5c0d7fcf39960001b6123b2565b611dbf7f7518e0f5afdd21984f9ce13318f9370b2d82da30fc4ffdbb78362126da32d52960001b6123b2565b60003692509250505b9091565b6060611dfa7ff3e26c3bd85fdaa3d8f1259414605a7dd92cd33f6e0a5ea5aee2931a96d320aa60001b6124cf565b611e267f14846564a156e661f6474a94d4255a72cce0853ae6558cbf3e923deec39719ae60001b6124cf565b611e527f6c4f2a0e0bd15baa64804e395a91bd69578a6e2a90f55320b7b965282ed515d860001b6124cf565b6000801b8203611ecb57611e887f66382546bedd8a8744565683ec0549940fef9cc757873afd4aa5cbf1a1c3ddeb60001b6124cf565b611eb47f41f0fd3b61868a6d8df29e5b031aeec3a4ac9909f5a87803ff0e75a1215b2e1660001b6124cf565b6040518060200160405280600081525090506123ad565b611ef77fd7faff261f7667b6fdb79185d8e210684b89ebcf3c16989907a72e26c9a40bd360001b6124cf565b611f237fc963fd694ee00300e885d432326b79e852ff0d5d3d5e5b40d91d2cb7322e036860001b6124cf565b611f4f7f03d940c9787d5829f10521169b1c7207e10ebc0c689f231920f48ae83e75d20760001b6124cf565b600082604051602001611f629190612a2a565b6040516020818303038152906040529050611f9f7f3be4e21e8f54c6c99bff282d009276b8870f6abdb6debfddfa3e2b6b2db00e7760001b6124cf565b611fcb7f17306240d3cb74d3489a10c16165676d1e8bd6ae2ff4bb3eeac64cd88d80bb6a60001b6124cf565b6000601f9050611ffd7f5c1c0f404ad5f798e57f5a143443445b34b8ef27d98839f5300c77b624967d3260001b6124cf565b6120297ffe20543a09d660584d1a6b1ece822ac581d7a02e435ff8d6e1467dc3c1fc750560001b6124cf565b5b60011561216d5761205d7fecafc833e80060b602eb7f1f24a245850dfa0e85b27437f061a032e48428c77a60001b6124cf565b6120897f522a216e93d0e4f6e6309facb75020a88b47b2d64392071866ad5395e68a4f3f60001b6124cf565b600060f81b8282815181106120a1576120a0612a45565b5b602001015160f81c60f81b7effffffffffffffffffffffffffffffffffffffffffffffffffffffffffffff191614612104576120ff7fb60cfc2b2fdca331d300ee04d83eeaffc639b7f20ec67b5f0a2c76b38ceae2f660001b6124cf565b61216d565b6121307fb64ec942692486251857b64186a51a5dcbb575bb273ab2a68476fefa6ba7e85f60001b6124cf565b61215c7febb09476ab2c43de302339c8bda76901de4deb1e22a5a915a6428269658244ea60001b6124cf565b8061216690612a74565b905061202a565b6121997f6ef5bcf08ee5e813920ce44c7edcb5ccd95a074dd3355664e76ea5f90677c82160001b6124cf565b6121c57ff7f7c96094cd88ffccca7135e60d08b87b722cb510d705e1eebd625cc84a226060001b6124cf565b60006001826121d49190612a9d565b67ffffffffffffffff8111156121ed576121ec612af3565b5b6040519080825280601f01601f19166020018201604052801561221f5781602001600182028036833780820191505090505b50905061224e7f70479c5da0c7bb0ac8f3ac4c0d6fabd84387ce5353aac9f89c3de6a3ab64de4860001b6124cf565b61227a7fc19b5a8d1dea10c7016ae2e1347f69ddd08a429e857cf0d52301d9640eca840160001b6124cf565b60005b82811161234d576122b07f14f2a6a46e72ed58802d03d80c3041c7ea0a3d7c5d23f2471fc6af1c024bfe2e60001b6124cf565b6122dc7f538b385a5c613af0ebaf45feea1f5d29fec7f025d7383803dc0ff5cf1b259e9b60001b6124cf565b8381815181106122ef576122ee612a45565b5b602001015160f81c60f81b82828151811061230d5761230c612a45565b5b60200101907effffffffffffffffffffffffffffffffffffffffffffffffffffffffffffff1916908160001a9053508061234690612b22565b905061227d565b5061237a7ff8dc96e11a0aa5b43175ddf7e5527a22d125faa318ae8ab4e16ce609a2fb746160001b6124cf565b6123a67f9e6bab069cd7b2424e0a07809819bfaa214e4a57f459aa03649e424b72e84af060001b6124cf565b8093505050505b919050565b50565b60006123e37fd2d14d566965719ee17c5b60ff32623f910e7a0e574f2eeae19a64856bd35c4c60001b6124d2565b61240f7fa390d1eca31ebd819e35c63e13daa420bd40dcdd984217eef68768880371b01d60001b6124d2565b601436033560601c905090565b36600061244b7f7a9fde0e4d93131667b711f92dc641fa832990e5bb6a3b4626ffa6b5d4f3fdae60001b6124d2565b6124777fc610f11635537ce6a03686b10e383cf783da248254319abfbb04eeb973e3acd760001b6124d2565b6124a37f17531d10ccf76e2a802938b28b374efcd761ac66995a64071083ebf2a16e732060001b6124d2565b600036600090601460003690506124ba91906126f6565b926124c793929190612b74565b915091509091565b50565b50565b600080fd5b6000819050919050565b6124ed816124da565b81146124f857600080fd5b50565b60008135905061250a816124e4565b92915050565b600073ffffffffffffffffffffffffffffffffffffffff82169050919050565b600061253b82612510565b9050919050565b61254b81612530565b811461255657600080fd5b50565b60008135905061256881612542565b92915050565b60008060408385031215612585576125846124d5565b5b6000612593858286016124fb565b92505060206125a485828601612559565b9150509250929050565b600082825260208201905092915050565b82818337600083830152505050565b6000601f19601f8301169050919050565b60006125eb83856125ae565b93506125f88385846125bf565b612601836125ce565b840190509392505050565b600060208201905081810360008301526126278184866125df565b90509392505050565b612639816124da565b82525050565b60006020820190506126546000830184612630565b92915050565b6000602082840312156126705761266f6124d5565b5b600061267e848285016124fb565b91505092915050565b60008115159050919050565b61269c81612687565b82525050565b60006020820190506126b76000830184612693565b92915050565b6000819050919050565b7f4e487b7100000000000000000000000000000000000000000000000000000000600052601160045260246000fd5b6000612701826126bd565b915061270c836126bd565b92508282101561271f5761271e6126c7565b5b828203905092915050565b600082825260208201905092915050565b7f4f776e6572736869703a206e6f7420746865206f776e65720000000000000000600082015250565b600061277160188361272a565b915061277c8261273b565b602082019050919050565b600060208201905081810360008301526127a081612764565b9050919050565b6127b081612530565b82525050565b60006060820190506127cb6000830186612630565b6127d860208301856127a7565b6127e560408301846127a7565b949350505050565b600081905092915050565b7f416363657373436f6e74726f6c3a206d697373696e6720270000000000000000600082015250565b600061282e6018836127ed565b9150612839826127f8565b601882019050919050565b600081519050919050565b60005b8381101561286d578082015181840152602081019050612852565b8381111561287c576000848401525b50505050565b600061288d82612844565b61289781856127ed565b93506128a781856020860161284f565b80840191505092915050565b7f2720726f6c650000000000000000000000000000000000000000000000000000600082015250565b60006128e96006836127ed565b91506128f4826128b3565b600682019050919050565b600061290a82612821565b91506129168284612882565b9150612921826128dc565b915081905092915050565b600061293782612844565b612941818561272a565b935061295181856020860161284f565b61295a816125ce565b840191505092915050565b6000602082019050818103600083015261297f818461292c565b905092915050565b600060408201905061299c60008301856127a7565b6129a960208301846127a7565b9392505050565b6129b981612687565b81146129c457600080fd5b50565b6000815190506129d6816129b0565b92915050565b6000602082840312156129f2576129f16124d5565b5b6000612a00848285016129c7565b91505092915050565b6000819050919050565b612a24612a1f826124da565b612a09565b82525050565b6000612a368284612a13565b60208201915081905092915050565b7f4e487b7100000000000000000000000000000000000000000000000000000000600052603260045260246000fd5b6000612a7f826126bd565b915060008203612a9257612a916126c7565b5b600182039050919050565b6000612aa8826126bd565b9150612ab3836126bd565b9250827fffffffffffffffffffffffffffffffffffffffffffffffffffffffffffffffff03821115612ae857612ae76126c7565b5b828201905092915050565b7f4e487b7100000000000000000000000000000000000000000000000000000000600052604160045260246000fd5b6000612b2d826126bd565b91507fffffffffffffffffffffffffffffffffffffffffffffffffffffffffffffffff8203612b5f57612b5e6126c7565b5b600182019050919050565b600080fd5b600080fd5b60008085851115612b8857612b87612b6a565b5b83861115612b9957612b98612b6f565b5b600185028301915084860390509450949250505056fea26469706673582212209161b16f5c75117e506dc88a397b7958549cb9a4040ecacd6effc1e07d10791664736f6c634300080d0033",
  "linkReferences": {},
  "deployedLinkReferences": {}
}