{
  "_format": "hh-sol-artifact-1",
  "contractName": "AccessControlFacetMock",
  "sourceName": "contracts/mocks/access/AccessControlFacetMock.sol",
  "abi": [
    {
      "anonymous": false,
      "inputs": [
        {
          "indexed": false,
          "internalType": "bytes32",
          "name": "role",
          "type": "bytes32"
        },
        {
          "indexed": false,
          "internalType": "address",
          "name": "account",
          "type": "address"
        },
        {
          "indexed": false,
          "internalType": "address",
          "name": "operator",
          "type": "address"
        }
      ],
      "name": "RoleGranted",
      "type": "event"
    },
    {
      "anonymous": false,
      "inputs": [
        {
          "indexed": false,
          "internalType": "bytes32",
          "name": "role",
          "type": "bytes32"
        },
        {
          "indexed": false,
          "internalType": "address",
          "name": "account",
          "type": "address"
        },
        {
          "indexed": false,
          "internalType": "address",
          "name": "operator",
          "type": "address"
        }
      ],
      "name": "RoleRevoked",
      "type": "event"
    },
    {
      "inputs": [],
      "name": "TEST_ROLE",
      "outputs": [
        {
          "internalType": "bytes32",
          "name": "",
          "type": "bytes32"
        }
      ],
      "stateMutability": "view",
      "type": "function"
    },
    {
      "inputs": [
        {
          "internalType": "bytes32",
          "name": "role",
          "type": "bytes32"
        },
        {
          "internalType": "address",
          "name": "account",
          "type": "address"
        }
      ],
      "name": "enforceHasRole",
      "outputs": [],
      "stateMutability": "view",
      "type": "function"
    },
    {
      "inputs": [
        {
          "internalType": "bytes32",
          "name": "role",
          "type": "bytes32"
        },
        {
          "internalType": "address",
          "name": "account",
          "type": "address"
        }
      ],
      "name": "grantRole",
      "outputs": [],
      "stateMutability": "nonpayable",
      "type": "function"
    },
    {
      "inputs": [
        {
          "internalType": "bytes32",
          "name": "role",
          "type": "bytes32"
        },
        {
          "internalType": "address",
          "name": "account",
          "type": "address"
        }
      ],
      "name": "hasRole",
      "outputs": [
        {
          "internalType": "bool",
          "name": "",
          "type": "bool"
        }
      ],
      "stateMutability": "view",
      "type": "function"
    },
    {
      "inputs": [
        {
          "internalType": "bytes32",
          "name": "role",
          "type": "bytes32"
        }
      ],
      "name": "renounceRole",
      "outputs": [],
      "stateMutability": "nonpayable",
      "type": "function"
    },
    {
      "inputs": [
        {
          "internalType": "bytes32",
          "name": "role",
          "type": "bytes32"
        },
        {
          "internalType": "address",
          "name": "account",
          "type": "address"
        }
      ],
      "name": "revokeRole",
      "outputs": [],
      "stateMutability": "nonpayable",
      "type": "function"
    }
  ],
  "bytecode": "0x608060405234801561001057600080fd5b506109fc806100206000396000f3fe608060405234801561001057600080fd5b50600436106100725760003560e01c806391d148541161005057806391d14854146100d9578063d547741f146100fc578063db9b206a1461010f57600080fd5b80632f2ff15d146100775780633ad554d01461008c5780638bb9c5bf146100c6575b600080fd5b61008a610085366004610752565b610122565b005b6100b37f746573746572000000000000000000000000000000000000000000000000000081565b6040519081526020015b60405180910390f35b61008a6100d436600461079b565b610150565b6100ec6100e7366004610752565b610167565b60405190151581526020016100bd565b61008a61010a366004610752565b6101b2565b61008a61011d366004610752565b6101d5565b336101358161012f6101ed565b90610221565b61014b8383836101436102a9565b9291906102d7565b505050565b610164338261015d6102a9565b91906103ae565b50565b60006101ab83836101766102a9565b60009283526020908152604080842073ffffffffffffffffffffffffffffffffffffffff909316845291905290205460ff1690565b9392505050565b336101bf8161012f6101ed565b61014b8383836101cd6102a9565b929190610452565b6101e982826101e26102a9565b919061051c565b5050565b60008061021b60017f6a1da6973104ff7dedb9b4f5cab5830b3f4a0284ed754366cfc45568bd2d38df6107e3565b92915050565b815473ffffffffffffffffffffffffffffffffffffffff8281169116146101e9576040517f08c379a000000000000000000000000000000000000000000000000000000000815260206004820152601860248201527f4f776e6572736869703a206e6f7420746865206f776e6572000000000000000060448201526064015b60405180910390fd5b60008061021b60017fc8a24fbf085abf1493c5f225802d03df3ece6cd19f18edff36c56d854cddac9e6107e3565b60008381526020858152604080832073ffffffffffffffffffffffffffffffffffffffff8616845290915290205460ff166103a85760008381526020858152604080832073ffffffffffffffffffffffffffffffffffffffff8681168086529184529382902080547fffffffffffffffffffffffffffffffffffffffffffffffffffffffffffffff00166001179055815187815292830152918316918101919091527f2f8788117e7eff1d82e926ec794901d17c78024a50270940304540a733656f0d906060015b60405180910390a15b50505050565b6103b983828461051c565b60008181526020848152604080832073ffffffffffffffffffffffffffffffffffffffff86168085529083529281902080547fffffffffffffffffffffffffffffffffffffffffffffffffffffffffffffff0016905580518481529182018390528101919091527ff6391f5c32d9c69d2a47ea670b442974b53935d1edc7fd64eb21e047a839171b9060600160405180910390a1505050565b60008381526020858152604080832073ffffffffffffffffffffffffffffffffffffffff8616845290915290205460ff16156103a85760008381526020858152604080832073ffffffffffffffffffffffffffffffffffffffff8681168086529184529382902080547fffffffffffffffffffffffffffffffffffffffffffffffffffffffffffffff00169055815187815292830152918316918101919091527ff6391f5c32d9c69d2a47ea670b442974b53935d1edc7fd64eb21e047a839171b9060600161039f565b60008281526020848152604080832073ffffffffffffffffffffffffffffffffffffffff8516845290915290205460ff1661014b5761055a826105c8565b60405160200161056a9190610826565b604080517fffffffffffffffffffffffffffffffffffffffffffffffffffffffffffffffe0818403018152908290527f08c379a00000000000000000000000000000000000000000000000000000000082526102a091600401610892565b606060008290036105e757505060408051602081019091526000815290565b6000826040516020016105fc91815260200190565b604080517fffffffffffffffffffffffffffffffffffffffffffffffffffffffffffffffe08184030181529190529050601f5b818181518110610641576106416108e3565b01602001517fff000000000000000000000000000000000000000000000000000000000000001660000361067f5761067881610912565b905061062f565b600061068c826001610947565b67ffffffffffffffff8111156106a4576106a461095f565b6040519080825280601f01601f1916602001820160405280156106ce576020820181803683370190505b50905060005b828111610749578381815181106106ed576106ed6108e3565b602001015160f81c60f81b82828151811061070a5761070a6108e3565b60200101907effffffffffffffffffffffffffffffffffffffffffffffffffffffffffffff1916908160001a9053506107428161098e565b90506106d4565b50949350505050565b6000806040838503121561076557600080fd5b82359150602083013573ffffffffffffffffffffffffffffffffffffffff8116811461079057600080fd5b809150509250929050565b6000602082840312156107ad57600080fd5b5035919050565b7f4e487b7100000000000000000000000000000000000000000000000000000000600052601160045260246000fd5b6000828210156107f5576107f56107b4565b500390565b60005b838110156108155781810151838201526020016107fd565b838111156103a85750506000910152565b7f416363657373436f6e74726f6c3a206d697373696e672027000000000000000081526000825161085e8160188501602087016107fa565b7f2720726f6c6500000000000000000000000000000000000000000000000000006018939091019283015250601e01919050565b60208152600082518060208401526108b18160408501602087016107fa565b601f017fffffffffffffffffffffffffffffffffffffffffffffffffffffffffffffffe0169190910160400192915050565b7f4e487b7100000000000000000000000000000000000000000000000000000000600052603260045260246000fd5b600081610921576109216107b4565b507fffffffffffffffffffffffffffffffffffffffffffffffffffffffffffffffff0190565b6000821982111561095a5761095a6107b4565b500190565b7f4e487b7100000000000000000000000000000000000000000000000000000000600052604160045260246000fd5b60007fffffffffffffffffffffffffffffffffffffffffffffffffffffffffffffffff82036109bf576109bf6107b4565b506001019056fea2646970667358221220ffc1b24e4affdcceacd07126a9d5731ae98e3807b712e9e2f40aee8fb273ee0464736f6c634300080d0033",
  "linkReferences": {},
  "deployedLinkReferences": {}
}