{
  "_format": "hh-sol-artifact-1",
  "contractName": "ERC721MintableFacet",
  "sourceName": "contracts/token/ERC721/ERC721MintableFacet.sol",
  "abi": [
    {
      "inputs": [
        {
          "internalType": "contract IForwarderRegistry",
          "name": "forwarderRegistry",
          "type": "address"
        }
      ],
      "stateMutability": "nonpayable",
      "type": "constructor"
    },
    {
      "inputs": [],
      "name": "MINTER_ROLE",
      "outputs": [
        {
          "internalType": "bytes32",
          "name": "",
          "type": "bytes32"
        }
      ],
      "stateMutability": "view",
      "type": "function"
    },
    {
      "inputs": [
        {
          "internalType": "address",
          "name": "to",
          "type": "address"
        },
        {
          "internalType": "uint256[]",
          "name": "tokenIds",
          "type": "uint256[]"
        }
      ],
      "name": "batchMint",
      "outputs": [],
      "stateMutability": "nonpayable",
      "type": "function"
    },
    {
      "inputs": [],
      "name": "initERC721MintableStorage",
      "outputs": [],
      "stateMutability": "nonpayable",
      "type": "function"
    },
    {
      "inputs": [
        {
          "internalType": "address",
          "name": "to",
          "type": "address"
        },
        {
          "internalType": "uint256",
          "name": "tokenId",
          "type": "uint256"
        }
      ],
      "name": "mint",
      "outputs": [],
      "stateMutability": "nonpayable",
      "type": "function"
    },
    {
      "inputs": [
        {
          "internalType": "address",
          "name": "to",
          "type": "address"
        },
        {
          "internalType": "uint256",
          "name": "tokenId",
          "type": "uint256"
        },
        {
          "internalType": "bytes",
          "name": "data",
          "type": "bytes"
        }
      ],
      "name": "safeMint",
      "outputs": [],
      "stateMutability": "nonpayable",
      "type": "function"
    }
  ],
  "bytecode": "0x60a060405234801561001057600080fd5b5060405161115238038061115283398101604081905261002f91610040565b6001600160a01b0316608052610070565b60006020828403121561005257600080fd5b81516001600160a01b038116811461006957600080fd5b9392505050565b6080516110c0610092600039600081816106fc015261079c01526110c06000f3fe608060405234801561001057600080fd5b50600436106100675760003560e01c80638832e6e3116100505780638832e6e314610094578063a920466f146100a7578063d5391393146100af57600080fd5b806340c10f191461006c5780634684d7e914610081575b600080fd5b61007f61007a366004610d0e565b6100e8565b005b61007f61008f366004610d38565b610152565b61007f6100a2366004610dbe565b6101cb565b61007f61024d565b6100d67f6d696e746572000000000000000000000000000000000000000000000000000081565b60405190815260200160405180910390f35b6101237f6d696e7465720000000000000000000000000000000000000000000000000000610114610270565b61011c61027f565b91906102b3565b61014e60008383604051806020016040528060008152506000610144610368565b9493929190610396565b5050565b61017e7f6d696e7465720000000000000000000000000000000000000000000000000000610114610270565b6101c6838383808060200260200160405190810160405280939291908181526020018383602002808284376000920191909152506101bf9250610368915050565b91906104a3565b505050565b6101f77f6d696e7465720000000000000000000000000000000000000000000000000000610114610270565b610247610202610270565b858585858080601f0160208091040260200160405190810160405280939291908181526020018383808284376000920191909152506001925061014491506103689050565b50505050565b610266610258610270565b6102606105da565b90610608565b61026e61068b565b565b600061027a6106c0565b905090565b6000806102ad60017fc8827d3282af6f37b64c3e9e6f3ac9df286ab0bb0fccd6f8661bf19adb368b23610e45565b92915050565b60008281526020848152604080832073ffffffffffffffffffffffffffffffffffffffff8516845290915290205460ff166101c6576102f182610818565b6040516020016103019190610eaf565b604080517fffffffffffffffffffffffffffffffffffffffffffffffffffffffffffffffe0818403018152908290527f08c379a000000000000000000000000000000000000000000000000000000000825261035f91600401610f65565b60405180910390fd5b6000806102ad60017fddf3ee18ae6d688373c219468f8be446e7ae82215f4779d821c7ea5e8c13c0c1610e45565b73ffffffffffffffffffffffffffffffffffffffff8416610413576040517f08c379a000000000000000000000000000000000000000000000000000000000815260206004820152601460248201527f4552433732313a206d696e7420746f207a65726f000000000000000000000000604482015260640161035f565b61042086858560006109aa565b604051839073ffffffffffffffffffffffffffffffffffffffff8616906000907fddf252ad1be2c89b69c2b068fc378daa952ba7f163c4a11628f55a4df523b3ef908290a4808015610488575073ffffffffffffffffffffffffffffffffffffffff84163b15155b1561049b5761049b856000868686610a7e565b505050505050565b73ffffffffffffffffffffffffffffffffffffffff8216610520576040517f08c379a000000000000000000000000000000000000000000000000000000000815260206004820152601460248201527f4552433732313a206d696e7420746f207a65726f000000000000000000000000604482015260640161035f565b805160005b8181146105a557600083828151811061054057610540610f7f565b6020026020010151905061055786868360016109aa565b604051819073ffffffffffffffffffffffffffffffffffffffff8716906000907fddf252ad1be2c89b69c2b068fc378daa952ba7f163c4a11628f55a4df523b3ef908290a450600101610525565b5073ffffffffffffffffffffffffffffffffffffffff9092166000908152600190930160205250604090912080549091019055565b6000806102ad60017fb53127684a568b3173ae13b9f8a6016e243e63b6e8ee1178d6a717850b5d6104610e45565b815473ffffffffffffffffffffffffffffffffffffffff82811691161461014e576040517f08c379a000000000000000000000000000000000000000000000000000000000815260206004820152601960248201527f50726f787941646d696e3a206e6f74207468652061646d696e00000000000000604482015260640161035f565b61026e7f8e773e130000000000000000000000000000000000000000000000000000000060016106b9610bab565b9190610bd9565b6000333281036106cf57919050565b6000367fffffffffffffffffffffffffffffffffffffffffffffffffffffffffffffffec013560601c90507f000000000000000000000000000000000000000000000000000000000000000073ffffffffffffffffffffffffffffffffffffffff168273ffffffffffffffffffffffffffffffffffffffff16148061080757506040517fe60125d600000000000000000000000000000000000000000000000000000000815273ffffffffffffffffffffffffffffffffffffffff828116600483015283811660248301527f0000000000000000000000000000000000000000000000000000000000000000169063e60125d690604401602060405180830381865afa1580156107e3573d6000803e3d6000fd5b505050506040513d601f19601f820116820180604052508101906108079190610fae565b156108125792915050565b50919050565b6060600082900361083757505060408051602081019091526000815290565b60008260405160200161084c91815260200190565b604080517fffffffffffffffffffffffffffffffffffffffffffffffffffffffffffffffe08184030181529190529050601f5b81818151811061089157610891610f7f565b01602001517fff00000000000000000000000000000000000000000000000000000000000000166000036108e6577fffffffffffffffffffffffffffffffffffffffffffffffffffffffffffffffff0161087f565b60008160010167ffffffffffffffff81111561090457610904610fd0565b6040519080825280601f01601f19166020018201604052801561092e576020820181803683370190505b50905060005b8281116109a15783818151811061094d5761094d610f7f565b602001015160f81c60f81b82828151811061096a5761096a610f7f565b60200101907effffffffffffffffffffffffffffffffffffffffffffffffffffffffffffff1916908160001a905350600101610934565b50949350505050565b60008281526020859052604090205415610a20576040517f08c379a000000000000000000000000000000000000000000000000000000000815260206004820152601a60248201527f4552433732313a206578697374696e672f6275726e74204e4654000000000000604482015260640161035f565b600082815260208590526040902073ffffffffffffffffffffffffffffffffffffffff841690558061024757505073ffffffffffffffffffffffffffffffffffffffff16600090815260019182016020526040902080549091019055565b6040517f150b7a02000000000000000000000000000000000000000000000000000000008082529073ffffffffffffffffffffffffffffffffffffffff85169063150b7a0290610ad8908990899088908890600401610fff565b6020604051808303816000875af1158015610af7573d6000803e3d6000fd5b505050506040513d601f19601f82011682018060405250810190610b1b9190611048565b7fffffffff000000000000000000000000000000000000000000000000000000001614610ba4576040517f08c379a000000000000000000000000000000000000000000000000000000000815260206004820152601860248201527f4552433732313a207472616e7366657220726566757365640000000000000000604482015260640161035f565b5050505050565b6000806102ad60017fca9d3e17f264b0f3984e2634e94adb37fa3e6a8103f06aeae6fa59e21c769f5e610e45565b7c01000000000000000000000000000000000000000000000000000000007fffffffff00000000000000000000000000000000000000000000000000000000831601610c81576040517f08c379a000000000000000000000000000000000000000000000000000000000815260206004820152601f60248201527f496e74657266616365446574656374696f6e3a2077726f6e672076616c756500604482015260640161035f565b7fffffffff00000000000000000000000000000000000000000000000000000000919091166000908152602092909252604090912080547fffffffffffffffffffffffffffffffffffffffffffffffffffffffffffffff0016911515919091179055565b803573ffffffffffffffffffffffffffffffffffffffff81168114610d0957600080fd5b919050565b60008060408385031215610d2157600080fd5b610d2a83610ce5565b946020939093013593505050565b600080600060408486031215610d4d57600080fd5b610d5684610ce5565b9250602084013567ffffffffffffffff80821115610d7357600080fd5b818601915086601f830112610d8757600080fd5b813581811115610d9657600080fd5b8760208260051b8501011115610dab57600080fd5b6020830194508093505050509250925092565b60008060008060608587031215610dd457600080fd5b610ddd85610ce5565b935060208501359250604085013567ffffffffffffffff80821115610e0157600080fd5b818701915087601f830112610e1557600080fd5b813581811115610e2457600080fd5b886020828501011115610e3657600080fd5b95989497505060200194505050565b600082821015610e7e577f4e487b7100000000000000000000000000000000000000000000000000000000600052601160045260246000fd5b500390565b60005b83811015610e9e578181015183820152602001610e86565b838111156102475750506000910152565b7f416363657373436f6e74726f6c3a206d697373696e6720270000000000000000815260008251610ee7816018850160208701610e83565b7f2720726f6c6500000000000000000000000000000000000000000000000000006018939091019283015250601e01919050565b60008151808452610f33816020860160208601610e83565b601f017fffffffffffffffffffffffffffffffffffffffffffffffffffffffffffffffe0169290920160200192915050565b602081526000610f786020830184610f1b565b9392505050565b7f4e487b7100000000000000000000000000000000000000000000000000000000600052603260045260246000fd5b600060208284031215610fc057600080fd5b81518015158114610f7857600080fd5b7f4e487b7100000000000000000000000000000000000000000000000000000000600052604160045260246000fd5b600073ffffffffffffffffffffffffffffffffffffffff80871683528086166020840152508360408301526080606083015261103e6080830184610f1b565b9695505050505050565b60006020828403121561105a57600080fd5b81517fffffffff0000000000000000000000000000000000000000000000000000000081168114610f7857600080fdfea2646970667358221220489015e3839f1588d5e55ec3a78e405b5358150ba3b6506d4d0192b0aa5b366f64736f6c634300080e0033",
  "linkReferences": {},
  "deployedLinkReferences": {}
}