{
  "_format": "hh-sol-artifact-1",
  "contractName": "ERC721MintableFacet",
  "sourceName": "contracts/token/ERC721/ERC721MintableFacet.sol",
  "abi": [
    {
      "inputs": [
        {
          "internalType": "contract IForwarderRegistry",
          "name": "forwarderRegistry",
          "type": "address"
        }
      ],
      "stateMutability": "nonpayable",
      "type": "constructor"
    },
    {
      "inputs": [],
      "name": "MINTER_ROLE",
      "outputs": [
        {
          "internalType": "bytes32",
          "name": "",
          "type": "bytes32"
        }
      ],
      "stateMutability": "view",
      "type": "function"
    },
    {
      "inputs": [
        {
          "internalType": "address",
          "name": "to",
          "type": "address"
        },
        {
          "internalType": "uint256[]",
          "name": "tokenIds",
          "type": "uint256[]"
        }
      ],
      "name": "batchMint",
      "outputs": [],
      "stateMutability": "nonpayable",
      "type": "function"
    },
    {
      "inputs": [],
      "name": "initERC721MintableStorage",
      "outputs": [],
      "stateMutability": "nonpayable",
      "type": "function"
    },
    {
      "inputs": [
        {
          "internalType": "address",
          "name": "to",
          "type": "address"
        },
        {
          "internalType": "uint256",
          "name": "tokenId",
          "type": "uint256"
        }
      ],
      "name": "mint",
      "outputs": [],
      "stateMutability": "nonpayable",
      "type": "function"
    },
    {
      "inputs": [
        {
          "internalType": "address",
          "name": "to",
          "type": "address"
        },
        {
          "internalType": "uint256",
          "name": "tokenId",
          "type": "uint256"
        },
        {
          "internalType": "bytes",
          "name": "data",
          "type": "bytes"
        }
      ],
      "name": "safeMint",
      "outputs": [],
      "stateMutability": "nonpayable",
      "type": "function"
    }
  ],
  "bytecode": "0x60a060405234801561001057600080fd5b5060405161118438038061118483398101604081905261002f91610040565b6001600160a01b0316608052610070565b60006020828403121561005257600080fd5b81516001600160a01b038116811461006957600080fd5b9392505050565b6080516110f2610092600039600081816107d2015261087201526110f26000f3fe608060405234801561001057600080fd5b50600436106100675760003560e01c80638832e6e3116100505780638832e6e314610094578063a920466f146100a7578063d5391393146100af57600080fd5b806340c10f191461006c5780634684d7e914610081575b600080fd5b61007f61007a366004610cb3565b6100e8565b005b61007f61008f366004610cdd565b61011d565b61007f6100a2366004610d63565b6101a5565b61007f6101fb565b6100d67f6d696e746572000000000000000000000000000000000000000000000000000081565b60405190815260200160405180910390f35b6101196100f361024b565b838360405180602001604052806000815250600061010f61025a565b949392919061028e565b5050565b6101587f6d696e746572000000000000000000000000000000000000000000000000000061014961024b565b6101516103a0565b91906103ce565b6101a083838380806020026020016040519081016040528093929190818152602001838360200280828437600092019190915250610199925061025a915050565b919061047a565b505050565b6101f56101b061024b565b858585858080601f0160208091040260200160405190810160405280939291908181526020018383808284376000920191909152506001925061010f915061025a9050565b50505050565b61021461020661024b565b61020e6105c7565b906105f5565b6102497f8e773e13000000000000000000000000000000000000000000000000000000006001610242610678565b91906106a6565b565b6000610255610796565b905090565b60008061028860017fddf3ee18ae6d688373c219468f8be446e7ae82215f4779d821c7ea5e8c13c0c1610e19565b92915050565b73ffffffffffffffffffffffffffffffffffffffff8416610310576040517f08c379a000000000000000000000000000000000000000000000000000000000815260206004820152601460248201527f4552433732313a206d696e7420746f207a65726f00000000000000000000000060448201526064015b60405180910390fd5b61031d86858560006108ee565b604051839073ffffffffffffffffffffffffffffffffffffffff8616906000907fddf252ad1be2c89b69c2b068fc378daa952ba7f163c4a11628f55a4df523b3ef908290a4808015610385575073ffffffffffffffffffffffffffffffffffffffff84163b15155b15610398576103988560008686866109d3565b505050505050565b60008061028860017fc8a24fbf085abf1493c5f225802d03df3ece6cd19f18edff36c56d854cddac9e610e19565b60008281526020848152604080832073ffffffffffffffffffffffffffffffffffffffff8516845290915290205460ff166101a05761040c82610b00565b60405160200161041c9190610e5c565b604080517fffffffffffffffffffffffffffffffffffffffffffffffffffffffffffffffe0818403018152908290527f08c379a000000000000000000000000000000000000000000000000000000000825261030791600401610f12565b73ffffffffffffffffffffffffffffffffffffffff82166104f7576040517f08c379a000000000000000000000000000000000000000000000000000000000815260206004820152601460248201527f4552433732313a206d696e7420746f207a65726f0000000000000000000000006044820152606401610307565b805160005b81811461058457600083828151811061051757610517610f2c565b6020026020010151905061052e86868360016108ee565b604051819073ffffffffffffffffffffffffffffffffffffffff8716906000907fddf252ad1be2c89b69c2b068fc378daa952ba7f163c4a11628f55a4df523b3ef908290a45061057d81610f5b565b90506104fc565b5073ffffffffffffffffffffffffffffffffffffffff83166000908152600285016020526040812080548392906105bc908490610f93565b909155505050505050565b60008061028860017fb53127684a568b3173ae13b9f8a6016e243e63b6e8ee1178d6a717850b5d6104610e19565b815473ffffffffffffffffffffffffffffffffffffffff828116911614610119576040517f08c379a000000000000000000000000000000000000000000000000000000000815260206004820152601960248201527f50726f787941646d696e3a206e6f74207468652061646d696e000000000000006044820152606401610307565b60008061028860017f7180ffa89c91cf90d6c56dacabfc69bc5e36f3099d7eed2f5cc12c5dba016fe0610e19565b7fffffffff000000000000000000000000000000000000000000000000000000008083169003610732576040517f08c379a000000000000000000000000000000000000000000000000000000000815260206004820152601f60248201527f496e74657266616365446574656374696f6e3a2077726f6e672076616c7565006044820152606401610307565b7fffffffff00000000000000000000000000000000000000000000000000000000919091166000908152602092909252604090912080547fffffffffffffffffffffffffffffffffffffffffffffffffffffffffffffff0016911515919091179055565b6000333281036107a557919050565b6000367fffffffffffffffffffffffffffffffffffffffffffffffffffffffffffffffec013560601c90507f000000000000000000000000000000000000000000000000000000000000000073ffffffffffffffffffffffffffffffffffffffff168273ffffffffffffffffffffffffffffffffffffffff1614806108dd57506040517fe60125d600000000000000000000000000000000000000000000000000000000815273ffffffffffffffffffffffffffffffffffffffff828116600483015283811660248301527f0000000000000000000000000000000000000000000000000000000000000000169063e60125d690604401602060405180830381865afa1580156108b9573d6000803e3d6000fd5b505050506040513d601f19601f820116820180604052508101906108dd9190610fab565b156108e85792915050565b50919050565b600082815260018501602052604090205415610966576040517f08c379a000000000000000000000000000000000000000000000000000000000815260206004820152601a60248201527f4552433732313a206578697374696e672f6275726e74204e46540000000000006044820152606401610307565b6000828152600185016020526040902073ffffffffffffffffffffffffffffffffffffffff84169055806101f55773ffffffffffffffffffffffffffffffffffffffff83166000908152600285016020526040812080549091906109c990610f5b565b9091555050505050565b6040517f150b7a02000000000000000000000000000000000000000000000000000000008082529073ffffffffffffffffffffffffffffffffffffffff85169063150b7a0290610a2d908990899088908890600401610fcd565b6020604051808303816000875af1158015610a4c573d6000803e3d6000fd5b505050506040513d601f19601f82011682018060405250810190610a709190611016565b7fffffffff000000000000000000000000000000000000000000000000000000001614610af9576040517f08c379a000000000000000000000000000000000000000000000000000000000815260206004820152601860248201527f4552433732313a207472616e73666572207265667573656400000000000000006044820152606401610307565b5050505050565b60606000829003610b1f57505060408051602081019091526000815290565b600082604051602001610b3491815260200190565b604080517fffffffffffffffffffffffffffffffffffffffffffffffffffffffffffffffe08184030181529190529050601f5b818181518110610b7957610b79610f2c565b01602001517fff0000000000000000000000000000000000000000000000000000000000000016600003610bb757610bb081611058565b9050610b67565b6000610bc4826001610f93565b67ffffffffffffffff811115610bdc57610bdc61108d565b6040519080825280601f01601f191660200182016040528015610c06576020820181803683370190505b50905060005b828111610c8157838181518110610c2557610c25610f2c565b602001015160f81c60f81b828281518110610c4257610c42610f2c565b60200101907effffffffffffffffffffffffffffffffffffffffffffffffffffffffffffff1916908160001a905350610c7a81610f5b565b9050610c0c565b50949350505050565b803573ffffffffffffffffffffffffffffffffffffffff81168114610cae57600080fd5b919050565b60008060408385031215610cc657600080fd5b610ccf83610c8a565b946020939093013593505050565b600080600060408486031215610cf257600080fd5b610cfb84610c8a565b9250602084013567ffffffffffffffff80821115610d1857600080fd5b818601915086601f830112610d2c57600080fd5b813581811115610d3b57600080fd5b8760208260051b8501011115610d5057600080fd5b6020830194508093505050509250925092565b60008060008060608587031215610d7957600080fd5b610d8285610c8a565b935060208501359250604085013567ffffffffffffffff80821115610da657600080fd5b818701915087601f830112610dba57600080fd5b813581811115610dc957600080fd5b886020828501011115610ddb57600080fd5b95989497505060200194505050565b7f4e487b7100000000000000000000000000000000000000000000000000000000600052601160045260246000fd5b600082821015610e2b57610e2b610dea565b500390565b60005b83811015610e4b578181015183820152602001610e33565b838111156101f55750506000910152565b7f416363657373436f6e74726f6c3a206d697373696e6720270000000000000000815260008251610e94816018850160208701610e30565b7f2720726f6c6500000000000000000000000000000000000000000000000000006018939091019283015250601e01919050565b60008151808452610ee0816020860160208601610e30565b601f017fffffffffffffffffffffffffffffffffffffffffffffffffffffffffffffffe0169290920160200192915050565b602081526000610f256020830184610ec8565b9392505050565b7f4e487b7100000000000000000000000000000000000000000000000000000000600052603260045260246000fd5b60007fffffffffffffffffffffffffffffffffffffffffffffffffffffffffffffffff8203610f8c57610f8c610dea565b5060010190565b60008219821115610fa657610fa6610dea565b500190565b600060208284031215610fbd57600080fd5b81518015158114610f2557600080fd5b600073ffffffffffffffffffffffffffffffffffffffff80871683528086166020840152508360408301526080606083015261100c6080830184610ec8565b9695505050505050565b60006020828403121561102857600080fd5b81517fffffffff0000000000000000000000000000000000000000000000000000000081168114610f2557600080fd5b60008161106757611067610dea565b507fffffffffffffffffffffffffffffffffffffffffffffffffffffffffffffffff0190565b7f4e487b7100000000000000000000000000000000000000000000000000000000600052604160045260246000fdfea2646970667358221220a596aa78715411acb396bfe3e3cb4f4e88f768865ad45f53d85f92cad217852464736f6c634300080d0033",
  "linkReferences": {},
  "deployedLinkReferences": {}
}