{
  "_format": "hh-sol-artifact-1",
  "contractName": "TokenMetadataResolverPerToken",
  "sourceName": "contracts/token/metadata/TokenMetadataResolverPerToken.sol",
  "abi": [
    {
      "inputs": [],
      "name": "InconsistentArrays",
      "type": "error"
    },
    {
      "inputs": [
        {
          "internalType": "address",
          "name": "targetContract",
          "type": "address"
        },
        {
          "internalType": "bytes32",
          "name": "role",
          "type": "bytes32"
        },
        {
          "internalType": "address",
          "name": "account",
          "type": "address"
        }
      ],
      "name": "NotTargetContractRoleHolder",
      "type": "error"
    },
    {
      "inputs": [],
      "name": "MINTER_ROLE",
      "outputs": [
        {
          "internalType": "bytes32",
          "name": "",
          "type": "bytes32"
        }
      ],
      "stateMutability": "view",
      "type": "function"
    },
    {
      "inputs": [
        {
          "internalType": "address",
          "name": "tokenContract",
          "type": "address"
        },
        {
          "internalType": "uint256[]",
          "name": "tokenIds",
          "type": "uint256[]"
        },
        {
          "internalType": "string[]",
          "name": "tokenURIs",
          "type": "string[]"
        }
      ],
      "name": "batchSetTokenURI",
      "outputs": [],
      "stateMutability": "nonpayable",
      "type": "function"
    },
    {
      "inputs": [
        {
          "internalType": "address",
          "name": "",
          "type": "address"
        },
        {
          "internalType": "uint256",
          "name": "",
          "type": "uint256"
        }
      ],
      "name": "metadataURI",
      "outputs": [
        {
          "internalType": "string",
          "name": "",
          "type": "string"
        }
      ],
      "stateMutability": "view",
      "type": "function"
    },
    {
      "inputs": [
        {
          "internalType": "address",
          "name": "tokenContract",
          "type": "address"
        },
        {
          "internalType": "uint256",
          "name": "tokenId",
          "type": "uint256"
        },
        {
          "internalType": "string",
          "name": "tokenURI",
          "type": "string"
        }
      ],
      "name": "setTokenURI",
      "outputs": [],
      "stateMutability": "nonpayable",
      "type": "function"
    },
    {
      "inputs": [
        {
          "internalType": "address",
          "name": "tokenContract",
          "type": "address"
        },
        {
          "internalType": "uint256",
          "name": "tokenId",
          "type": "uint256"
        }
      ],
      "name": "tokenMetadataURI",
      "outputs": [
        {
          "internalType": "string",
          "name": "tokenURI",
          "type": "string"
        }
      ],
      "stateMutability": "view",
      "type": "function"
    }
  ],
  "bytecode": "0x608060405234801561001057600080fd5b50610a04806100206000396000f3fe608060405234801561001057600080fd5b50600436106100675760003560e01c8063626dc9a811610050578063626dc9a8146100aa578063d5391393146100bd578063f724dad7146100f257600080fd5b8063361953a31461006c5780634e5786bf14610095575b600080fd5b61007f61007a36600461053d565b610105565b60405161008c9190610567565b60405180910390f35b6100a86100a33660046105d3565b6101a7565b005b6100a86100b83660046106a6565b610228565b6100e47f6d696e746572000000000000000000000000000000000000000000000000000081565b60405190815260200161008c565b61007f61010036600461053d565b61033d565b60006020818152928152604080822090935290815220805461012690610727565b80601f016020809104026020016040519081016040528092919081815260200182805461015290610727565b801561019f5780601f106101745761010080835404028352916020019161019f565b820191906000526020600020905b81548152906001019060200180831161018257829003601f168201915b505050505081565b6101e873ffffffffffffffffffffffffffffffffffffffff85167f6d696e746572000000000000000000000000000000000000000000000000000033610400565b73ffffffffffffffffffffffffffffffffffffffff841660009081526020818152604080832086845290915290206102218284836107f7565b5050505050565b82818114610262576040517f35e83ac300000000000000000000000000000000000000000000000000000000815260040160405180910390fd5b6102a373ffffffffffffffffffffffffffffffffffffffff87167f6d696e746572000000000000000000000000000000000000000000000000000033610400565b60005b818114610334578383828181106102bf576102bf610911565b90506020028101906102d19190610940565b73ffffffffffffffffffffffffffffffffffffffff891660009081526020819052604081209089898681811061030957610309610911565b905060200201358152602001908152602001600020918261032b9291906107f7565b506001016102a6565b50505050505050565b73ffffffffffffffffffffffffffffffffffffffff8216600090815260208181526040808320848452909152902080546060919061037a90610727565b80601f01602080910402602001604051908101604052809291908181526020018280546103a690610727565b80156103f35780601f106103c8576101008083540402835291602001916103f3565b820191906000526020600020905b8154815290600101906020018083116103d657829003601f168201915b5050505050905092915050565b61040b838383610471565b61046c576040517f7a436c1600000000000000000000000000000000000000000000000000000000815273ffffffffffffffffffffffffffffffffffffffff8085166004830152602482018490528216604482015260640160405180910390fd5b505050565b6040517f91d148540000000000000000000000000000000000000000000000000000000081526004810183905273ffffffffffffffffffffffffffffffffffffffff8281166024830152600091908516906391d1485490604401602060405180830381865afa1580156104e8573d6000803e3d6000fd5b505050506040513d601f19601f8201168201806040525081019061050c91906109a5565b949350505050565b803573ffffffffffffffffffffffffffffffffffffffff8116811461053857600080fd5b919050565b6000806040838503121561055057600080fd5b61055983610514565b946020939093013593505050565b600060208083528351808285015260005b8181101561059457858101830151858201604001528201610578565b5060006040828601015260407fffffffffffffffffffffffffffffffffffffffffffffffffffffffffffffffe0601f8301168501019250505092915050565b600080600080606085870312156105e957600080fd5b6105f285610514565b935060208501359250604085013567ffffffffffffffff8082111561061657600080fd5b818701915087601f83011261062a57600080fd5b81358181111561063957600080fd5b88602082850101111561064b57600080fd5b95989497505060200194505050565b60008083601f84011261066c57600080fd5b50813567ffffffffffffffff81111561068457600080fd5b6020830191508360208260051b850101111561069f57600080fd5b9250929050565b6000806000806000606086880312156106be57600080fd5b6106c786610514565b9450602086013567ffffffffffffffff808211156106e457600080fd5b6106f089838a0161065a565b9096509450604088013591508082111561070957600080fd5b506107168882890161065a565b969995985093965092949392505050565b600181811c9082168061073b57607f821691505b602082108103610774577f4e487b7100000000000000000000000000000000000000000000000000000000600052602260045260246000fd5b50919050565b7f4e487b7100000000000000000000000000000000000000000000000000000000600052604160045260246000fd5b601f82111561046c57600081815260208120601f850160051c810160208610156107d05750805b601f850160051c820191505b818110156107ef578281556001016107dc565b505050505050565b67ffffffffffffffff83111561080f5761080f61077a565b6108238361081d8354610727565b836107a9565b6000601f841160018114610875576000851561083f5750838201355b7fffffffffffffffffffffffffffffffffffffffffffffffffffffffffffffffff600387901b1c1916600186901b178355610221565b6000838152602090207fffffffffffffffffffffffffffffffffffffffffffffffffffffffffffffffe0861690835b828110156108c457868501358255602094850194600190920191016108a4565b50868210156108ff577fffffffffffffffffffffffffffffffffffffffffffffffffffffffffffffffff60f88860031b161c19848701351681555b505060018560011b0183555050505050565b7f4e487b7100000000000000000000000000000000000000000000000000000000600052603260045260246000fd5b60008083357fffffffffffffffffffffffffffffffffffffffffffffffffffffffffffffffe184360301811261097557600080fd5b83018035915067ffffffffffffffff82111561099057600080fd5b60200191503681900382131561069f57600080fd5b6000602082840312156109b757600080fd5b815180151581146109c757600080fd5b939250505056fea26469706673582212202c94e52fa5d6ee18841850a34960a660d3bf4e41a0d1560ff402f3ae1bbe82d764736f6c63430008130033",
  "linkReferences": {},
  "deployedLinkReferences": {}
}