{
  "_format": "hh-sol-artifact-1",
  "contractName": "TokenMetadataResolverPerToken",
  "sourceName": "contracts/token/metadata/TokenMetadataResolverPerToken.sol",
  "abi": [
    {
      "inputs": [],
      "name": "InconsistentArrayLengths",
      "type": "error"
    },
    {
      "inputs": [
        {
          "internalType": "address",
          "name": "targetContract",
          "type": "address"
        },
        {
          "internalType": "bytes32",
          "name": "role",
          "type": "bytes32"
        },
        {
          "internalType": "address",
          "name": "account",
          "type": "address"
        }
      ],
      "name": "NotTargetContractRoleHolder",
      "type": "error"
    },
    {
      "inputs": [
        {
          "internalType": "address",
          "name": "targetContract",
          "type": "address"
        }
      ],
      "name": "TargetIsNotAContract",
      "type": "error"
    },
    {
      "inputs": [],
      "name": "MINTER_ROLE",
      "outputs": [
        {
          "internalType": "bytes32",
          "name": "",
          "type": "bytes32"
        }
      ],
      "stateMutability": "view",
      "type": "function"
    },
    {
      "inputs": [
        {
          "internalType": "address",
          "name": "tokenContract",
          "type": "address"
        },
        {
          "internalType": "uint256[]",
          "name": "tokenIds",
          "type": "uint256[]"
        },
        {
          "internalType": "string[]",
          "name": "tokenURIs",
          "type": "string[]"
        }
      ],
      "name": "batchSetTokenURI",
      "outputs": [],
      "stateMutability": "nonpayable",
      "type": "function"
    },
    {
      "inputs": [
        {
          "internalType": "address",
          "name": "",
          "type": "address"
        },
        {
          "internalType": "uint256",
          "name": "",
          "type": "uint256"
        }
      ],
      "name": "metadataURI",
      "outputs": [
        {
          "internalType": "string",
          "name": "",
          "type": "string"
        }
      ],
      "stateMutability": "view",
      "type": "function"
    },
    {
      "inputs": [
        {
          "internalType": "address",
          "name": "tokenContract",
          "type": "address"
        },
        {
          "internalType": "uint256",
          "name": "tokenId",
          "type": "uint256"
        },
        {
          "internalType": "string",
          "name": "tokenURI",
          "type": "string"
        }
      ],
      "name": "setTokenURI",
      "outputs": [],
      "stateMutability": "nonpayable",
      "type": "function"
    },
    {
      "inputs": [
        {
          "internalType": "address",
          "name": "tokenContract",
          "type": "address"
        },
        {
          "internalType": "uint256",
          "name": "tokenId",
          "type": "uint256"
        }
      ],
      "name": "tokenMetadataURI",
      "outputs": [
        {
          "internalType": "string",
          "name": "tokenURI",
          "type": "string"
        }
      ],
      "stateMutability": "view",
      "type": "function"
    }
  ],
  "bytecode": "0x6080604052348015600f57600080fd5b50610a6d8061001f6000396000f3fe608060405234801561001057600080fd5b50600436106100675760003560e01c8063626dc9a811610050578063626dc9a8146100aa578063d5391393146100bd578063f724dad7146100f257600080fd5b8063361953a31461006c5780634e5786bf14610095575b600080fd5b61007f61007a3660046105a3565b610105565b60405161008c91906105cd565b60405180910390f35b6100a86100a336600461063a565b6101a7565b005b6100a86100b836600461070d565b610228565b6100e47f6d696e746572000000000000000000000000000000000000000000000000000081565b60405190815260200161008c565b61007f6101003660046105a3565b61033e565b6000602081815292815260408082209093529081522080546101269061078e565b80601f01602080910402602001604051908101604052809291908181526020018280546101529061078e565b801561019f5780601f106101745761010080835404028352916020019161019f565b820191906000526020600020905b81548152906001019060200180831161018257829003601f168201915b505050505081565b6101e873ffffffffffffffffffffffffffffffffffffffff85167f6d696e746572000000000000000000000000000000000000000000000000000033610401565b73ffffffffffffffffffffffffffffffffffffffff84166000908152602081815260408083208684529091529020610221828483610860565b5050505050565b82818114610262576040517f6582533600000000000000000000000000000000000000000000000000000000815260040160405180910390fd5b6102a373ffffffffffffffffffffffffffffffffffffffff87167f6d696e746572000000000000000000000000000000000000000000000000000033610401565b60005b81811015610335578383828181106102c0576102c061097a565b90506020028101906102d291906109a9565b73ffffffffffffffffffffffffffffffffffffffff891660009081526020819052604081209089898681811061030a5761030a61097a565b905060200201358152602001908152602001600020918261032c929190610860565b506001016102a6565b50505050505050565b73ffffffffffffffffffffffffffffffffffffffff8216600090815260208181526040808320848452909152902080546060919061037b9061078e565b80601f01602080910402602001604051908101604052809291908181526020018280546103a79061078e565b80156103f45780601f106103c9576101008083540402835291602001916103f4565b820191906000526020600020905b8154815290600101906020018083116103d757829003601f168201915b5050505050905092915050565b61040c838383610473565b61046e576040517f7a436c1600000000000000000000000000000000000000000000000000000000815273ffffffffffffffffffffffffffffffffffffffff808516600483015260248201849052821660448201526064015b60405180910390fd5b505050565b600073ffffffffffffffffffffffffffffffffffffffff84163b6104db576040517f73a5b5e300000000000000000000000000000000000000000000000000000000815273ffffffffffffffffffffffffffffffffffffffff85166004820152602401610465565b6040517f91d148540000000000000000000000000000000000000000000000000000000081526004810184905273ffffffffffffffffffffffffffffffffffffffff83811660248301528516906391d1485490604401602060405180830381865afa15801561054e573d6000803e3d6000fd5b505050506040513d601f19601f820116820180604052508101906105729190610a0e565b949350505050565b803573ffffffffffffffffffffffffffffffffffffffff8116811461059e57600080fd5b919050565b600080604083850312156105b657600080fd5b6105bf8361057a565b946020939093013593505050565b60006020808352835180602085015260005b818110156105fb578581018301518582016040015282016105df565b5060006040828601015260407fffffffffffffffffffffffffffffffffffffffffffffffffffffffffffffffe0601f8301168501019250505092915050565b6000806000806060858703121561065057600080fd5b6106598561057a565b935060208501359250604085013567ffffffffffffffff8082111561067d57600080fd5b818701915087601f83011261069157600080fd5b8135818111156106a057600080fd5b8860208285010111156106b257600080fd5b95989497505060200194505050565b60008083601f8401126106d357600080fd5b50813567ffffffffffffffff8111156106eb57600080fd5b6020830191508360208260051b850101111561070657600080fd5b9250929050565b60008060008060006060868803121561072557600080fd5b61072e8661057a565b9450602086013567ffffffffffffffff8082111561074b57600080fd5b61075789838a016106c1565b9096509450604088013591508082111561077057600080fd5b5061077d888289016106c1565b969995985093965092949392505050565b600181811c908216806107a257607f821691505b6020821081036107db577f4e487b7100000000000000000000000000000000000000000000000000000000600052602260045260246000fd5b50919050565b7f4e487b7100000000000000000000000000000000000000000000000000000000600052604160045260246000fd5b601f82111561046e576000816000526020600020601f850160051c810160208610156108395750805b601f850160051c820191505b8181101561085857828155600101610845565b505050505050565b67ffffffffffffffff831115610878576108786107e1565b61088c83610886835461078e565b83610810565b6000601f8411600181146108de57600085156108a85750838201355b7fffffffffffffffffffffffffffffffffffffffffffffffffffffffffffffffff600387901b1c1916600186901b178355610221565b6000838152602090207fffffffffffffffffffffffffffffffffffffffffffffffffffffffffffffffe0861690835b8281101561092d578685013582556020948501946001909201910161090d565b5086821015610968577fffffffffffffffffffffffffffffffffffffffffffffffffffffffffffffffff60f88860031b161c19848701351681555b505060018560011b0183555050505050565b7f4e487b7100000000000000000000000000000000000000000000000000000000600052603260045260246000fd5b60008083357fffffffffffffffffffffffffffffffffffffffffffffffffffffffffffffffe18436030181126109de57600080fd5b83018035915067ffffffffffffffff8211156109f957600080fd5b60200191503681900382131561070657600080fd5b600060208284031215610a2057600080fd5b81518015158114610a3057600080fd5b939250505056fea2646970667358221220b4244fe3d73bd57805ab69b4647e93b2af3ab88c199a7cf19df63c332a3a5d2864736f6c63430008190033",
  "linkReferences": {},
  "deployedLinkReferences": {}
}