{
  "_format": "hh-sol-artifact-1",
  "contractName": "ERC20MetadataFacetMock",
  "sourceName": "contracts/mocks/token/ERC20/facets/ERC20MetadataFacetMock.sol",
  "abi": [
    {
      "inputs": [
        {
          "internalType": "contract IForwarderRegistry",
          "name": "forwarderRegistry",
          "type": "address"
        }
      ],
      "stateMutability": "nonpayable",
      "type": "constructor"
    },
    {
      "inputs": [],
      "name": "IllegalInterfaceId",
      "type": "error"
    },
    {
      "inputs": [
        {
          "internalType": "address",
          "name": "account",
          "type": "address"
        }
      ],
      "name": "NotContractOwner",
      "type": "error"
    },
    {
      "inputs": [
        {
          "internalType": "address",
          "name": "account",
          "type": "address"
        }
      ],
      "name": "NotProxyAdmin",
      "type": "error"
    },
    {
      "inputs": [],
      "name": "__msgData",
      "outputs": [
        {
          "internalType": "bytes",
          "name": "",
          "type": "bytes"
        }
      ],
      "stateMutability": "view",
      "type": "function"
    },
    {
      "inputs": [],
      "name": "initERC20MetadataStorage",
      "outputs": [],
      "stateMutability": "nonpayable",
      "type": "function"
    },
    {
      "inputs": [
        {
          "internalType": "string",
          "name": "uri",
          "type": "string"
        }
      ],
      "name": "setTokenURI",
      "outputs": [],
      "stateMutability": "nonpayable",
      "type": "function"
    },
    {
      "inputs": [],
      "name": "tokenURI",
      "outputs": [
        {
          "internalType": "string",
          "name": "",
          "type": "string"
        }
      ],
      "stateMutability": "view",
      "type": "function"
    }
  ],
  "bytecode": "0x60a060405234801561001057600080fd5b50604051610be3380380610be383398101604081905261002f91610040565b6001600160a01b0316608052610070565b60006020828403121561005257600080fd5b81516001600160a01b038116811461006957600080fd5b9392505050565b608051610b436100a0600039600081816103b4015281816103f20152818161052a01526105b20152610b436000f3fe608060405234801561001057600080fd5b506004361061004c5760003560e01c806331e66e1e146100515780633c130d9014610070578063529eec4714610085578063e0df5b6f1461008f575b600080fd5b6100596100a2565b604051610067929190610769565b60405180910390f35b6100786100b5565b60405161006791906107b6565b61008d6100cc565b005b61008d61009d366004610822565b6100ef565b3660006100ad610120565b915091509091565b60606100c76100c261012b565b61015f565b905090565b6100e56100d76101f5565b6100df6101ff565b9061022d565b6100ed61029d565b565b6101086100fa6101f5565b6101026102d2565b90610300565b61011c828261011561012b565b919061036b565b5050565b3660006100ad61037d565b60008061015960017ff41bf6a5db26bffdfab174dcf66b31fbba8fdb7e3db040721ce1e62d61839ceb610894565b92915050565b6060816000018054610170906108ce565b80601f016020809104026020016040519081016040528092919081815260200182805461019c906108ce565b80156101e95780601f106101be576101008083540402835291602001916101e9565b820191906000526020600020905b8154815290600101906020018083116101cc57829003601f168201915b50505050509050919050565b60006100c76104e7565b60008061015960017fb53127684a568b3173ae13b9f8a6016e243e63b6e8ee1178d6a717850b5d6104610894565b815473ffffffffffffffffffffffffffffffffffffffff82811691161461011c576040517f673a31a100000000000000000000000000000000000000000000000000000000815273ffffffffffffffffffffffffffffffffffffffff821660048201526024015b60405180910390fd5b6100ed7f3c130d900000000000000000000000000000000000000000000000000000000060016102cb61062e565b919061065c565b60008061015960017fc9ed16f33ab3a66c84bfd83099ccb2a8845871e2e1c1928f63797152f0fd54cd610894565b815473ffffffffffffffffffffffffffffffffffffffff82811691161461011c576040517f2ef4875e00000000000000000000000000000000000000000000000000000000815273ffffffffffffffffffffffffffffffffffffffff82166004820152602401610294565b8261037782848361099f565b50505050565b3660003332148061038e5750601836105b1561039c5750600091369150565b3373ffffffffffffffffffffffffffffffffffffffff7f00000000000000000000000000000000000000000000000000000000000000001614806104d1575073ffffffffffffffffffffffffffffffffffffffff7f000000000000000000000000000000000000000000000000000000000000000016638929a8ca367fffffffffffffffffffffffffffffffffffffffffffffffffffffffffffffffec013560601c6040517fffffffff0000000000000000000000000000000000000000000000000000000060e084901b16815273ffffffffffffffffffffffffffffffffffffffff9091166004820152336024820152604401602060405180830381865afa1580156104ad573d6000803e3d6000fd5b505050506040513d601f19601f820116820180604052508101906104d19190610aba565b156104de576100ad610738565b50600091369150565b6000333214806104f75750601836105b1561050157503390565b7fffffffffffffffffffffffffffffffffffffffffffffffffffffffffffffffec36013560601c7f000000000000000000000000000000000000000000000000000000000000000073ffffffffffffffffffffffffffffffffffffffff1633148061061d57506040517f8929a8ca00000000000000000000000000000000000000000000000000000000815273ffffffffffffffffffffffffffffffffffffffff82811660048301523360248301527f00000000000000000000000000000000000000000000000000000000000000001690638929a8ca90604401602060405180830381865afa1580156105f9573d6000803e3d6000fd5b505050506040513d601f19601f8201168201806040525081019061061d9190610aba565b1561062757919050565b3391505090565b60008061015960017fca9d3e17f264b0f3984e2634e94adb37fa3e6a8103f06aeae6fa59e21c769f5e610894565b7c01000000000000000000000000000000000000000000000000000000007fffffffff000000000000000000000000000000000000000000000000000000008316016106d4576040517f72c683bb00000000000000000000000000000000000000000000000000000000815260040160405180910390fd5b7fffffffff00000000000000000000000000000000000000000000000000000000919091166000908152602092909252604090912080547fffffffffffffffffffffffffffffffffffffffffffffffffffffffffffffff0016911515919091179055565b3660006100ad7fffffffffffffffffffffffffffffffffffffffffffffffffffffffffffffffec8301828481610ae3565b60208152816020820152818360408301376000818301604090810191909152601f9092017fffffffffffffffffffffffffffffffffffffffffffffffffffffffffffffffe0160101919050565b600060208083528351808285015260005b818110156107e3578581018301518582016040015282016107c7565b5060006040828601015260407fffffffffffffffffffffffffffffffffffffffffffffffffffffffffffffffe0601f8301168501019250505092915050565b6000806020838503121561083557600080fd5b823567ffffffffffffffff8082111561084d57600080fd5b818501915085601f83011261086157600080fd5b81358181111561087057600080fd5b86602082850101111561088257600080fd5b60209290920196919550909350505050565b81810381811115610159577f4e487b7100000000000000000000000000000000000000000000000000000000600052601160045260246000fd5b600181811c908216806108e257607f821691505b60208210810361091b577f4e487b7100000000000000000000000000000000000000000000000000000000600052602260045260246000fd5b50919050565b7f4e487b7100000000000000000000000000000000000000000000000000000000600052604160045260246000fd5b601f82111561099a57600081815260208120601f850160051c810160208610156109775750805b601f850160051c820191505b8181101561099657828155600101610983565b5050505b505050565b67ffffffffffffffff8311156109b7576109b7610921565b6109cb836109c583546108ce565b83610950565b6000601f841160018114610a1d57600085156109e75750838201355b7fffffffffffffffffffffffffffffffffffffffffffffffffffffffffffffffff600387901b1c1916600186901b178355610ab3565b6000838152602090207fffffffffffffffffffffffffffffffffffffffffffffffffffffffffffffffe0861690835b82811015610a6c5786850135825560209485019460019092019101610a4c565b5086821015610aa7577fffffffffffffffffffffffffffffffffffffffffffffffffffffffffffffffff60f88860031b161c19848701351681555b505060018560011b0183555b5050505050565b600060208284031215610acc57600080fd5b81518015158114610adc57600080fd5b9392505050565b60008085851115610af357600080fd5b83861115610b0057600080fd5b505082019391909203915056fea264697066735822122008ccac57a514ed9e1c7c2f453be59c2b01f653d378871036e2e6875bb13da67564736f6c63430008150033",
  "linkReferences": {},
  "deployedLinkReferences": {}
}