{
  "_format": "hh-sol-artifact-1",
  "contractName": "ERC20MetadataFacetMock",
  "sourceName": "contracts/mocks/token/ERC20/facets/ERC20MetadataFacetMock.sol",
  "abi": [
    {
      "inputs": [
        {
          "internalType": "contract IForwarderRegistry",
          "name": "forwarderRegistry",
          "type": "address"
        }
      ],
      "stateMutability": "nonpayable",
      "type": "constructor"
    },
    {
      "inputs": [],
      "name": "__msgData",
      "outputs": [
        {
          "internalType": "bytes",
          "name": "",
          "type": "bytes"
        }
      ],
      "stateMutability": "view",
      "type": "function"
    },
    {
      "inputs": [],
      "name": "initERC20MetadataStorage",
      "outputs": [],
      "stateMutability": "nonpayable",
      "type": "function"
    },
    {
      "inputs": [
        {
          "internalType": "string",
          "name": "uri",
          "type": "string"
        }
      ],
      "name": "setTokenURI",
      "outputs": [],
      "stateMutability": "nonpayable",
      "type": "function"
    },
    {
      "inputs": [],
      "name": "tokenURI",
      "outputs": [
        {
          "internalType": "string",
          "name": "",
          "type": "string"
        }
      ],
      "stateMutability": "view",
      "type": "function"
    }
  ],
  "bytecode": "0x60a060405234801561000f575f80fd5b50604051610c0b380380610c0b83398101604081905261002e9161003f565b6001600160a01b031660805261006c565b5f6020828403121561004f575f80fd5b81516001600160a01b0381168114610065575f80fd5b9392505050565b608051610b726100995f395f81816103d6015281816104140152818161054801526105d00152610b725ff3fe608060405234801561000f575f80fd5b506004361061004a575f3560e01c806331e66e1e1461004e5780633c130d901461006d578063529eec4714610082578063e0df5b6f1461008c575b5f80fd5b61005661009f565b6040516100649291906107b2565b60405180910390f35b6100756100b1565b60405161006491906107fe565b61008a6100c8565b005b61008a61009a366004610867565b6100eb565b365f6100a961011c565b915091509091565b60606100c36100be610126565b610159565b905090565b6100e16100d36101ec565b6100db6101f5565b90610222565b6100e96102aa565b565b6101046100f66101ec565b6100fe6102df565b9061030c565b6101188282610111610126565b919061038f565b5050565b365f6100a96103a1565b5f8061015360017ff41bf6a5db26bffdfab174dcf66b31fbba8fdb7e3db040721ce1e62d61839ceb6108d3565b92915050565b6060815f0180546101699061090b565b80601f01602080910402602001604051908101604052809291908181526020018280546101959061090b565b80156101e05780601f106101b7576101008083540402835291602001916101e0565b820191905f5260205f20905b8154815290600101906020018083116101c357829003601f168201915b50505050509050919050565b5f6100c3610506565b5f8061015360017fb53127684a568b3173ae13b9f8a6016e243e63b6e8ee1178d6a717850b5d61046108d3565b815473ffffffffffffffffffffffffffffffffffffffff828116911614610118576040517f08c379a000000000000000000000000000000000000000000000000000000000815260206004820152601960248201527f50726f787941646d696e3a206e6f74207468652061646d696e0000000000000060448201526064015b60405180910390fd5b6100e97f3c130d900000000000000000000000000000000000000000000000000000000060016102d861064a565b9190610677565b5f8061015360017fc9ed16f33ab3a66c84bfd83099ccb2a8845871e2e1c1928f63797152f0fd54cd6108d3565b815473ffffffffffffffffffffffffffffffffffffffff828116911614610118576040517f08c379a000000000000000000000000000000000000000000000000000000000815260206004820152601860248201527f4f776e6572736869703a206e6f7420746865206f776e6572000000000000000060448201526064016102a1565b8261039b8284836109d7565b50505050565b365f333214806103b15750601836105b156103be57505f91369150565b3373ffffffffffffffffffffffffffffffffffffffff7f00000000000000000000000000000000000000000000000000000000000000001614806104f1575073ffffffffffffffffffffffffffffffffffffffff7f000000000000000000000000000000000000000000000000000000000000000016638929a8ca367fffffffffffffffffffffffffffffffffffffffffffffffffffffffffffffffec013560601c6040517fffffffff0000000000000000000000000000000000000000000000000000000060e084901b16815273ffffffffffffffffffffffffffffffffffffffff9091166004820152336024820152604401602060405180830381865afa1580156104cd573d5f803e3d5ffd5b505050506040513d601f19601f820116820180604052508101906104f19190610aef565b156104fe576100a9610782565b505f91369150565b5f333214806105155750601836105b1561051f57503390565b7fffffffffffffffffffffffffffffffffffffffffffffffffffffffffffffffec36013560601c7f000000000000000000000000000000000000000000000000000000000000000073ffffffffffffffffffffffffffffffffffffffff1633148061063957506040517f8929a8ca00000000000000000000000000000000000000000000000000000000815273ffffffffffffffffffffffffffffffffffffffff82811660048301523360248301527f00000000000000000000000000000000000000000000000000000000000000001690638929a8ca90604401602060405180830381865afa158015610615573d5f803e3d5ffd5b505050506040513d601f19601f820116820180604052508101906106399190610aef565b1561064357919050565b3391505090565b5f8061015360017fca9d3e17f264b0f3984e2634e94adb37fa3e6a8103f06aeae6fa59e21c769f5e6108d3565b7c01000000000000000000000000000000000000000000000000000000007fffffffff0000000000000000000000000000000000000000000000000000000083160161071f576040517f08c379a000000000000000000000000000000000000000000000000000000000815260206004820152601f60248201527f496e74657266616365446574656374696f6e3a2077726f6e672076616c75650060448201526064016102a1565b7fffffffff00000000000000000000000000000000000000000000000000000000919091165f908152602092909252604090912080547fffffffffffffffffffffffffffffffffffffffffffffffffffffffffffffff0016911515919091179055565b365f6100a97fffffffffffffffffffffffffffffffffffffffffffffffffffffffffffffffec8301828481610b15565b60208152816020820152818360408301375f818301604090810191909152601f9092017fffffffffffffffffffffffffffffffffffffffffffffffffffffffffffffffe0160101919050565b5f6020808352835180828501525f5b818110156108295785810183015185820160400152820161080d565b505f6040828601015260407fffffffffffffffffffffffffffffffffffffffffffffffffffffffffffffffe0601f8301168501019250505092915050565b5f8060208385031215610878575f80fd5b823567ffffffffffffffff8082111561088f575f80fd5b818501915085601f8301126108a2575f80fd5b8135818111156108b0575f80fd5b8660208285010111156108c1575f80fd5b60209290920196919550909350505050565b81810381811115610153577f4e487b71000000000000000000000000000000000000000000000000000000005f52601160045260245ffd5b600181811c9082168061091f57607f821691505b602082108103610956577f4e487b71000000000000000000000000000000000000000000000000000000005f52602260045260245ffd5b50919050565b7f4e487b71000000000000000000000000000000000000000000000000000000005f52604160045260245ffd5b601f8211156109d2575f81815260208120601f850160051c810160208610156109af5750805b601f850160051c820191505b818110156109ce578281556001016109bb565b5050505b505050565b67ffffffffffffffff8311156109ef576109ef61095c565b610a03836109fd835461090b565b83610989565b5f601f841160018114610a53575f8515610a1d5750838201355b7fffffffffffffffffffffffffffffffffffffffffffffffffffffffffffffffff600387901b1c1916600186901b178355610ae8565b5f838152602090207fffffffffffffffffffffffffffffffffffffffffffffffffffffffffffffffe0861690835b82811015610aa15786850135825560209485019460019092019101610a81565b5086821015610adc577fffffffffffffffffffffffffffffffffffffffffffffffffffffffffffffffff60f88860031b161c19848701351681555b505060018560011b0183555b5050505050565b5f60208284031215610aff575f80fd5b81518015158114610b0e575f80fd5b9392505050565b5f8085851115610b23575f80fd5b83861115610b2f575f80fd5b505082019391909203915056fea26469706673582212200739e8c8108ae92a12f9633ad1b15399f0458dbd5e925cc6d65d290105100aee64736f6c63430008150033",
  "linkReferences": {},
  "deployedLinkReferences": {}
}