{
  "_format": "hh-sol-artifact-1",
  "contractName": "PayoutWalletFacet",
  "sourceName": "contracts/payment/PayoutWalletFacet.sol",
  "abi": [
    {
      "inputs": [
        {
          "internalType": "contract IForwarderRegistry",
          "name": "forwarderRegistry",
          "type": "address"
        }
      ],
      "stateMutability": "nonpayable",
      "type": "constructor"
    },
    {
      "anonymous": false,
      "inputs": [
        {
          "indexed": false,
          "internalType": "address",
          "name": "payoutWallet",
          "type": "address"
        }
      ],
      "name": "PayoutWalletSet",
      "type": "event"
    },
    {
      "inputs": [
        {
          "internalType": "address payable",
          "name": "initialPayoutWallet",
          "type": "address"
        }
      ],
      "name": "initPayoutWalletStorage",
      "outputs": [],
      "stateMutability": "nonpayable",
      "type": "function"
    },
    {
      "inputs": [],
      "name": "payoutWallet",
      "outputs": [
        {
          "internalType": "address payable",
          "name": "wallet",
          "type": "address"
        }
      ],
      "stateMutability": "view",
      "type": "function"
    },
    {
      "inputs": [
        {
          "internalType": "address payable",
          "name": "newPayoutWallet",
          "type": "address"
        }
      ],
      "name": "setPayoutWallet",
      "outputs": [],
      "stateMutability": "nonpayable",
      "type": "function"
    }
  ],
  "bytecode": "0x60a060405234801561001057600080fd5b5060405161072c38038061072c83398101604081905261002f91610040565b6001600160a01b0316608052610070565b60006020828403121561005257600080fd5b81516001600160a01b038116811461006957600080fd5b9392505050565b60805161069a6100926000396000818161043b01526104db015261069a6000f3fe608060405234801561001057600080fd5b50600436106100415760003560e01c80636b8f9c43146100465780638488bb4e1461005b578063a556589a1461008c575b600080fd5b6100596100543660046105c7565b61009f565b005b6100636100cd565b60405173ffffffffffffffffffffffffffffffffffffffff909116815260200160405180910390f35b61005961009a3660046105c7565b6100f3565b6100b86100aa61011e565b6100b261012d565b90610161565b6100ca816100c46101ed565b9061021b565b50565b60006100d76101ed565b5473ffffffffffffffffffffffffffffffffffffffff16919050565b61010c6100fe61011e565b61010661030f565b9061033d565b6100ca816101186101ed565b906103c0565b60006101286103ff565b905090565b60008061015b60017f6a1da6973104ff7dedb9b4f5cab5830b3f4a0284ed754366cfc45568bd2d38df610604565b92915050565b815473ffffffffffffffffffffffffffffffffffffffff8281169116146101e9576040517f08c379a000000000000000000000000000000000000000000000000000000000815260206004820152601860248201527f4f776e6572736869703a206e6f7420746865206f776e6572000000000000000060448201526064015b60405180910390fd5b5050565b60008061015b60017f89eb436ee4870c51a38e2f0153cc874917c373f6d1129026cdc184ead19d107d610604565b73ffffffffffffffffffffffffffffffffffffffff8116610298576040517f08c379a000000000000000000000000000000000000000000000000000000000815260206004820152601a60248201527f5061796f757457616c6c65743a207a65726f206164647265737300000000000060448201526064016101e0565b81547fffffffffffffffffffffffff00000000000000000000000000000000000000001673ffffffffffffffffffffffffffffffffffffffff821690811783556040519081527fdd880d24a789958a6398c99c2e54ce31bc10a638cbc42f7dd34285479ae0f8559060200160405180910390a15050565b60008061015b60017fb53127684a568b3173ae13b9f8a6016e243e63b6e8ee1178d6a717850b5d6104610604565b815473ffffffffffffffffffffffffffffffffffffffff8281169116146101e9576040517f08c379a000000000000000000000000000000000000000000000000000000000815260206004820152601960248201527f50726f787941646d696e3a206e6f74207468652061646d696e0000000000000060448201526064016101e0565b6103f56103ee60017f548ef50d3fd1a953000bd9658360ce0c0fab1e99be465a6bb58c1ef3beb53a80610604565b6001610557565b6101e9828261021b565b60003332810361040e57919050565b6000367fffffffffffffffffffffffffffffffffffffffffffffffffffffffffffffffec013560601c90507f000000000000000000000000000000000000000000000000000000000000000073ffffffffffffffffffffffffffffffffffffffff168273ffffffffffffffffffffffffffffffffffffffff16148061054657506040517fe60125d600000000000000000000000000000000000000000000000000000000815273ffffffffffffffffffffffffffffffffffffffff828116600483015283811660248301527f0000000000000000000000000000000000000000000000000000000000000000169063e60125d690604401602060405180830381865afa158015610522573d6000803e3d6000fd5b505050506040513d601f19601f820116820180604052508101906105469190610642565b156105515792915050565b50919050565b8154829082116105c3576040517f08c379a000000000000000000000000000000000000000000000000000000000815260206004820152601860248201527f53746f726167653a2076657273696f6e2072656163686564000000000000000060448201526064016101e0565b5550565b6000602082840312156105d957600080fd5b813573ffffffffffffffffffffffffffffffffffffffff811681146105fd57600080fd5b9392505050565b60008282101561063d577f4e487b7100000000000000000000000000000000000000000000000000000000600052601160045260246000fd5b500390565b60006020828403121561065457600080fd5b815180151581146105fd57600080fdfea26469706673582212203d488480e1563d85d25afca371fdc46d9fda76fc03f21926ae8fa2cce47071c764736f6c634300080d0033",
  "linkReferences": {},
  "deployedLinkReferences": {}
}