{
  "_format": "hh-sol-artifact-1",
  "contractName": "ERC721FullMock",
  "sourceName": "contracts/mocks/token/ERC721/preset/ERC721FullMock.sol",
  "abi": [
    {
      "inputs": [
        {
          "internalType": "string",
          "name": "tokenName",
          "type": "string"
        },
        {
          "internalType": "string",
          "name": "tokenSymbol",
          "type": "string"
        },
        {
          "internalType": "contract ITokenMetadataResolver",
          "name": "metadataResolver",
          "type": "address"
        },
        {
          "internalType": "contract IOperatorFilterRegistry",
          "name": "filterRegistry",
          "type": "address"
        },
        {
          "internalType": "contract IForwarderRegistry",
          "name": "forwarderRegistry",
          "type": "address"
        }
      ],
      "stateMutability": "nonpayable",
      "type": "constructor"
    },
    {
      "inputs": [
        {
          "internalType": "uint256",
          "name": "percentage",
          "type": "uint256"
        }
      ],
      "name": "IncorrectRoyaltyPercentage",
      "type": "error"
    },
    {
      "inputs": [],
      "name": "IncorrectRoyaltyReceiver",
      "type": "error"
    },
    {
      "inputs": [
        {
          "internalType": "address",
          "name": "operator",
          "type": "address"
        }
      ],
      "name": "OperatorNotAllowed",
      "type": "error"
    },
    {
      "anonymous": false,
      "inputs": [
        {
          "indexed": true,
          "internalType": "address",
          "name": "owner",
          "type": "address"
        },
        {
          "indexed": true,
          "internalType": "address",
          "name": "approved",
          "type": "address"
        },
        {
          "indexed": true,
          "internalType": "uint256",
          "name": "tokenId",
          "type": "uint256"
        }
      ],
      "name": "Approval",
      "type": "event"
    },
    {
      "anonymous": false,
      "inputs": [
        {
          "indexed": true,
          "internalType": "address",
          "name": "owner",
          "type": "address"
        },
        {
          "indexed": true,
          "internalType": "address",
          "name": "operator",
          "type": "address"
        },
        {
          "indexed": false,
          "internalType": "bool",
          "name": "approved",
          "type": "bool"
        }
      ],
      "name": "ApprovalForAll",
      "type": "event"
    },
    {
      "anonymous": false,
      "inputs": [
        {
          "indexed": true,
          "internalType": "address",
          "name": "previousOwner",
          "type": "address"
        },
        {
          "indexed": true,
          "internalType": "address",
          "name": "newOwner",
          "type": "address"
        }
      ],
      "name": "OwnershipTransferred",
      "type": "event"
    },
    {
      "anonymous": false,
      "inputs": [
        {
          "indexed": false,
          "internalType": "bytes32",
          "name": "role",
          "type": "bytes32"
        },
        {
          "indexed": false,
          "internalType": "address",
          "name": "account",
          "type": "address"
        },
        {
          "indexed": false,
          "internalType": "address",
          "name": "operator",
          "type": "address"
        }
      ],
      "name": "RoleGranted",
      "type": "event"
    },
    {
      "anonymous": false,
      "inputs": [
        {
          "indexed": false,
          "internalType": "bytes32",
          "name": "role",
          "type": "bytes32"
        },
        {
          "indexed": false,
          "internalType": "address",
          "name": "account",
          "type": "address"
        },
        {
          "indexed": false,
          "internalType": "address",
          "name": "operator",
          "type": "address"
        }
      ],
      "name": "RoleRevoked",
      "type": "event"
    },
    {
      "anonymous": false,
      "inputs": [
        {
          "indexed": true,
          "internalType": "address",
          "name": "from",
          "type": "address"
        },
        {
          "indexed": true,
          "internalType": "address",
          "name": "to",
          "type": "address"
        },
        {
          "indexed": true,
          "internalType": "uint256",
          "name": "tokenId",
          "type": "uint256"
        }
      ],
      "name": "Transfer",
      "type": "event"
    },
    {
      "inputs": [],
      "name": "MINTER_ROLE",
      "outputs": [
        {
          "internalType": "bytes32",
          "name": "",
          "type": "bytes32"
        }
      ],
      "stateMutability": "view",
      "type": "function"
    },
    {
      "inputs": [],
      "name": "ROYALTY_FEE_DENOMINATOR",
      "outputs": [
        {
          "internalType": "uint256",
          "name": "",
          "type": "uint256"
        }
      ],
      "stateMutability": "view",
      "type": "function"
    },
    {
      "inputs": [],
      "name": "__msgData",
      "outputs": [
        {
          "internalType": "bytes",
          "name": "",
          "type": "bytes"
        }
      ],
      "stateMutability": "view",
      "type": "function"
    },
    {
      "inputs": [
        {
          "internalType": "address",
          "name": "to",
          "type": "address"
        },
        {
          "internalType": "uint256",
          "name": "tokenId",
          "type": "uint256"
        }
      ],
      "name": "approve",
      "outputs": [],
      "stateMutability": "nonpayable",
      "type": "function"
    },
    {
      "inputs": [
        {
          "internalType": "address",
          "name": "owner",
          "type": "address"
        }
      ],
      "name": "balanceOf",
      "outputs": [
        {
          "internalType": "uint256",
          "name": "balance",
          "type": "uint256"
        }
      ],
      "stateMutability": "view",
      "type": "function"
    },
    {
      "inputs": [
        {
          "internalType": "address",
          "name": "to",
          "type": "address"
        },
        {
          "internalType": "uint256[]",
          "name": "tokenIds",
          "type": "uint256[]"
        }
      ],
      "name": "batchMint",
      "outputs": [],
      "stateMutability": "nonpayable",
      "type": "function"
    },
    {
      "inputs": [
        {
          "internalType": "address",
          "name": "from",
          "type": "address"
        },
        {
          "internalType": "address",
          "name": "to",
          "type": "address"
        },
        {
          "internalType": "uint256[]",
          "name": "tokenIds",
          "type": "uint256[]"
        }
      ],
      "name": "batchTransferFrom",
      "outputs": [],
      "stateMutability": "nonpayable",
      "type": "function"
    },
    {
      "inputs": [
        {
          "internalType": "address[]",
          "name": "recipients",
          "type": "address[]"
        },
        {
          "internalType": "uint256[]",
          "name": "tokenIds",
          "type": "uint256[]"
        }
      ],
      "name": "deliver",
      "outputs": [],
      "stateMutability": "nonpayable",
      "type": "function"
    },
    {
      "inputs": [],
      "name": "forwarderRegistry",
      "outputs": [
        {
          "internalType": "contract IForwarderRegistry",
          "name": "",
          "type": "address"
        }
      ],
      "stateMutability": "view",
      "type": "function"
    },
    {
      "inputs": [
        {
          "internalType": "uint256",
          "name": "tokenId",
          "type": "uint256"
        }
      ],
      "name": "getApproved",
      "outputs": [
        {
          "internalType": "address",
          "name": "approved",
          "type": "address"
        }
      ],
      "stateMutability": "view",
      "type": "function"
    },
    {
      "inputs": [
        {
          "internalType": "bytes32",
          "name": "role",
          "type": "bytes32"
        },
        {
          "internalType": "address",
          "name": "account",
          "type": "address"
        }
      ],
      "name": "grantRole",
      "outputs": [],
      "stateMutability": "nonpayable",
      "type": "function"
    },
    {
      "inputs": [
        {
          "internalType": "bytes32",
          "name": "role",
          "type": "bytes32"
        },
        {
          "internalType": "address",
          "name": "account",
          "type": "address"
        }
      ],
      "name": "hasRole",
      "outputs": [
        {
          "internalType": "bool",
          "name": "hasRole_",
          "type": "bool"
        }
      ],
      "stateMutability": "view",
      "type": "function"
    },
    {
      "inputs": [
        {
          "internalType": "address",
          "name": "owner",
          "type": "address"
        },
        {
          "internalType": "address",
          "name": "operator",
          "type": "address"
        }
      ],
      "name": "isApprovedForAll",
      "outputs": [
        {
          "internalType": "bool",
          "name": "approvedForAll",
          "type": "bool"
        }
      ],
      "stateMutability": "view",
      "type": "function"
    },
    {
      "inputs": [
        {
          "internalType": "address",
          "name": "forwarder",
          "type": "address"
        }
      ],
      "name": "isTrustedForwarder",
      "outputs": [
        {
          "internalType": "bool",
          "name": "",
          "type": "bool"
        }
      ],
      "stateMutability": "view",
      "type": "function"
    },
    {
      "inputs": [],
      "name": "metadataResolver",
      "outputs": [
        {
          "internalType": "contract ITokenMetadataResolver",
          "name": "tokenMetadataResolver",
          "type": "address"
        }
      ],
      "stateMutability": "view",
      "type": "function"
    },
    {
      "inputs": [
        {
          "internalType": "address",
          "name": "to",
          "type": "address"
        },
        {
          "internalType": "uint256",
          "name": "tokenId",
          "type": "uint256"
        }
      ],
      "name": "mint",
      "outputs": [],
      "stateMutability": "nonpayable",
      "type": "function"
    },
    {
      "inputs": [],
      "name": "name",
      "outputs": [
        {
          "internalType": "string",
          "name": "tokenName",
          "type": "string"
        }
      ],
      "stateMutability": "view",
      "type": "function"
    },
    {
      "inputs": [],
      "name": "operatorFilterRegistry",
      "outputs": [
        {
          "internalType": "contract IOperatorFilterRegistry",
          "name": "",
          "type": "address"
        }
      ],
      "stateMutability": "view",
      "type": "function"
    },
    {
      "inputs": [],
      "name": "owner",
      "outputs": [
        {
          "internalType": "address",
          "name": "",
          "type": "address"
        }
      ],
      "stateMutability": "view",
      "type": "function"
    },
    {
      "inputs": [
        {
          "internalType": "uint256",
          "name": "tokenId",
          "type": "uint256"
        }
      ],
      "name": "ownerOf",
      "outputs": [
        {
          "internalType": "address",
          "name": "tokenOwner",
          "type": "address"
        }
      ],
      "stateMutability": "view",
      "type": "function"
    },
    {
      "inputs": [
        {
          "internalType": "address[]",
          "name": "accounts",
          "type": "address[]"
        },
        {
          "internalType": "contract IERC20[]",
          "name": "tokens",
          "type": "address[]"
        },
        {
          "internalType": "uint256[]",
          "name": "amounts",
          "type": "uint256[]"
        }
      ],
      "name": "recoverERC20s",
      "outputs": [],
      "stateMutability": "nonpayable",
      "type": "function"
    },
    {
      "inputs": [
        {
          "internalType": "address[]",
          "name": "accounts",
          "type": "address[]"
        },
        {
          "internalType": "contract IERC721[]",
          "name": "contracts",
          "type": "address[]"
        },
        {
          "internalType": "uint256[]",
          "name": "tokenIds",
          "type": "uint256[]"
        }
      ],
      "name": "recoverERC721s",
      "outputs": [],
      "stateMutability": "nonpayable",
      "type": "function"
    },
    {
      "inputs": [
        {
          "internalType": "address payable[]",
          "name": "accounts",
          "type": "address[]"
        },
        {
          "internalType": "uint256[]",
          "name": "amounts",
          "type": "uint256[]"
        }
      ],
      "name": "recoverETH",
      "outputs": [],
      "stateMutability": "nonpayable",
      "type": "function"
    },
    {
      "inputs": [
        {
          "internalType": "bytes32",
          "name": "role",
          "type": "bytes32"
        }
      ],
      "name": "renounceRole",
      "outputs": [],
      "stateMutability": "nonpayable",
      "type": "function"
    },
    {
      "inputs": [
        {
          "internalType": "bytes32",
          "name": "role",
          "type": "bytes32"
        },
        {
          "internalType": "address",
          "name": "account",
          "type": "address"
        }
      ],
      "name": "revokeRole",
      "outputs": [],
      "stateMutability": "nonpayable",
      "type": "function"
    },
    {
      "inputs": [
        {
          "internalType": "uint256",
          "name": "tokenId",
          "type": "uint256"
        },
        {
          "internalType": "uint256",
          "name": "salePrice",
          "type": "uint256"
        }
      ],
      "name": "royaltyInfo",
      "outputs": [
        {
          "internalType": "address",
          "name": "receiver",
          "type": "address"
        },
        {
          "internalType": "uint256",
          "name": "royaltyAmount",
          "type": "uint256"
        }
      ],
      "stateMutability": "view",
      "type": "function"
    },
    {
      "inputs": [
        {
          "internalType": "address",
          "name": "to",
          "type": "address"
        },
        {
          "internalType": "uint256",
          "name": "tokenId",
          "type": "uint256"
        },
        {
          "internalType": "bytes",
          "name": "data",
          "type": "bytes"
        }
      ],
      "name": "safeMint",
      "outputs": [],
      "stateMutability": "nonpayable",
      "type": "function"
    },
    {
      "inputs": [
        {
          "internalType": "address",
          "name": "from",
          "type": "address"
        },
        {
          "internalType": "address",
          "name": "to",
          "type": "address"
        },
        {
          "internalType": "uint256",
          "name": "tokenId",
          "type": "uint256"
        }
      ],
      "name": "safeTransferFrom",
      "outputs": [],
      "stateMutability": "nonpayable",
      "type": "function"
    },
    {
      "inputs": [
        {
          "internalType": "address",
          "name": "from",
          "type": "address"
        },
        {
          "internalType": "address",
          "name": "to",
          "type": "address"
        },
        {
          "internalType": "uint256",
          "name": "tokenId",
          "type": "uint256"
        },
        {
          "internalType": "bytes",
          "name": "data",
          "type": "bytes"
        }
      ],
      "name": "safeTransferFrom",
      "outputs": [],
      "stateMutability": "nonpayable",
      "type": "function"
    },
    {
      "inputs": [
        {
          "internalType": "address",
          "name": "operator",
          "type": "address"
        },
        {
          "internalType": "bool",
          "name": "approved",
          "type": "bool"
        }
      ],
      "name": "setApprovalForAll",
      "outputs": [],
      "stateMutability": "nonpayable",
      "type": "function"
    },
    {
      "inputs": [
        {
          "internalType": "uint256",
          "name": "percentage",
          "type": "uint256"
        }
      ],
      "name": "setRoyaltyPercentage",
      "outputs": [],
      "stateMutability": "nonpayable",
      "type": "function"
    },
    {
      "inputs": [
        {
          "internalType": "address",
          "name": "receiver",
          "type": "address"
        }
      ],
      "name": "setRoyaltyReceiver",
      "outputs": [],
      "stateMutability": "nonpayable",
      "type": "function"
    },
    {
      "inputs": [
        {
          "internalType": "bytes4",
          "name": "interfaceId",
          "type": "bytes4"
        }
      ],
      "name": "supportsInterface",
      "outputs": [
        {
          "internalType": "bool",
          "name": "",
          "type": "bool"
        }
      ],
      "stateMutability": "view",
      "type": "function"
    },
    {
      "inputs": [],
      "name": "symbol",
      "outputs": [
        {
          "internalType": "string",
          "name": "tokenSymbol",
          "type": "string"
        }
      ],
      "stateMutability": "view",
      "type": "function"
    },
    {
      "inputs": [
        {
          "internalType": "uint256",
          "name": "tokenId",
          "type": "uint256"
        }
      ],
      "name": "tokenURI",
      "outputs": [
        {
          "internalType": "string",
          "name": "uri",
          "type": "string"
        }
      ],
      "stateMutability": "view",
      "type": "function"
    },
    {
      "inputs": [
        {
          "internalType": "address",
          "name": "from",
          "type": "address"
        },
        {
          "internalType": "address",
          "name": "to",
          "type": "address"
        },
        {
          "internalType": "uint256",
          "name": "tokenId",
          "type": "uint256"
        }
      ],
      "name": "transferFrom",
      "outputs": [],
      "stateMutability": "nonpayable",
      "type": "function"
    },
    {
      "inputs": [
        {
          "internalType": "address",
          "name": "newOwner",
          "type": "address"
        }
      ],
      "name": "transferOwnership",
      "outputs": [],
      "stateMutability": "nonpayable",
      "type": "function"
    },
    {
      "inputs": [
        {
          "internalType": "contract IOperatorFilterRegistry",
          "name": "registry",
          "type": "address"
        }
      ],
      "name": "updateOperatorFilterRegistry",
      "outputs": [],
      "stateMutability": "nonpayable",
      "type": "function"
    }
  ],
  "bytecode": "0x60a060405234801562000010575f80fd5b50604051620046da380380620046da833981016040819052620000339162000471565b84848484848080868686863362000055816200004e620000fc565b9062000131565b5062000060620001ab565b6200008d816200006f620001c5565b9081546001600160a01b0319166001600160a01b0391909116179055565b5062000098620001f4565b620000b2838383620000a96200020c565b9291906200023b565b620000bc62000282565b50620000ca9150506200029a565b620000d4620002b2565b620000de620002ca565b6001600160a01b0316608052506200068b9950505050505050505050565b5f806200012b60017fc9ed16f33ab3a66c84bfd83099ccb2a8845871e2e1c1928f63797152f0fd54cd62000517565b92915050565b6001600160a01b03811615620001875781546001600160a01b0319166001600160a01b03821690811783556040515f907f8be0079c531659141344cd1fd0a4f28419497f9722a3daafe3b4186f6b6457e0908290a35b620001a76307f5828d60e41b60016200019f620002dd565b91906200030c565b5050565b620001c36380ac58cd60e01b60016200019f620002dd565b565b5f806200012b60017f609b85bcafa81ecfaf3ff62cdde2c6c9082a68dbe4922f07399c706bdeb7cd3162000517565b620001c363f3993d1160e01b60016200019f620002dd565b5f806200012b60017f7ea68fd2dcf1c056b94db6a0a537aa80d26fa9ab1eacd85da1ba0b61b7e7a8a562000517565b83620002488482620005c3565b5060018401620002598382620005c3565b5060029390930180546001600160a01b0319166001600160a01b03909416939093179092555050565b620001c3635b5e139f60e01b60016200019f620002dd565b620001c3638e773e1360e01b60016200019f620002dd565b620001c3634ed2f41960e11b60016200019f620002dd565b620001c363152a902d60e11b60016200019f5b5f806200012b60017fca9d3e17f264b0f3984e2634e94adb37fa3e6a8103f06aeae6fa59e21c769f5e62000517565b600160e01b6001600160e01b03198316016200036e5760405162461bcd60e51b815260206004820152601f60248201527f496e74657266616365446574656374696f6e3a2077726f6e672076616c756500604482015260640160405180910390fd5b6001600160e01b0319919091165f9081526020929092526040909120805460ff1916911515919091179055565b634e487b7160e01b5f52604160045260245ffd5b5f82601f830112620003bf575f80fd5b81516001600160401b0380821115620003dc57620003dc6200039b565b604051601f8301601f19908116603f011681019082821181831017156200040757620004076200039b565b8160405283815260209250868385880101111562000423575f80fd5b5f91505b8382101562000446578582018301518183018401529082019062000427565b5f93810190920192909252949350505050565b6001600160a01b03811681146200046e575f80fd5b50565b5f805f805f60a0868803121562000486575f80fd5b85516001600160401b03808211156200049d575f80fd5b620004ab89838a01620003af565b96506020880151915080821115620004c1575f80fd5b50620004d088828901620003af565b9450506040860151620004e38162000459565b6060870151909350620004f68162000459565b6080870151909250620005098162000459565b809150509295509295909350565b818103818111156200012b57634e487b7160e01b5f52601160045260245ffd5b600181811c908216806200054c57607f821691505b6020821081036200056b57634e487b7160e01b5f52602260045260245ffd5b50919050565b601f821115620005be575f81815260208120601f850160051c81016020861015620005995750805b601f850160051c820191505b81811015620005ba57828155600101620005a5565b5050505b505050565b81516001600160401b03811115620005df57620005df6200039b565b620005f781620005f0845462000537565b8462000571565b602080601f8311600181146200062d575f8415620006155750858301515b5f19600386901b1c1916600185901b178555620005ba565b5f85815260208120601f198616915b828110156200065d578886015182559484019460019091019084016200063c565b50858210156200067b57878501515f19600388901b60f8161c191681555b5050505050600190811b01905550565b608051614013620006c75f395f81816103780152818161040e01528181612f2401528181612fac015281816130ce015261310c01526140135ff3fe608060405234801561000f575f80fd5b5060043610610283575f3560e01c80638bb9c5bf11610157578063b88d4fde116100d2578063e1a8bf2c11610088578063f2fde38b1161006e578063f2fde38b146105c7578063f3993d11146105da578063f7ba94bd146105ed575f80fd5b8063e1a8bf2c146105aa578063e985e9c5146105b4575f80fd5b8063c87b56dd116100b8578063c87b56dd1461055d578063d539139314610570578063d547741f14610597575f80fd5b8063b88d4fde14610537578063c3666c361461054a575f80fd5b806395d89b4111610127578063a0c76f621161010d578063a0c76f6214610514578063a22cb4651461051c578063b0ccc31e1461052f575f80fd5b806395d89b41146104f95780639da5e83214610501575f80fd5b80638bb9c5bf146104b85780638da5cb5b146104cb5780638dc251e3146104d357806391d14854146104e6575f80fd5b806331e66e1e1161020157806361ba27da116101b757806370a082311161019d57806370a082311461047157806373c8a958146104925780638832e6e3146104a5575f80fd5b806361ba27da1461044b5780636352211e1461045e575f80fd5b806342842e0e116101e757806342842e0e146103d85780634684d7e9146103eb578063572b6c05146103fe575f80fd5b806331e66e1e146103af57806340c10f19146103c5575f80fd5b8063114ba8ee116102565780632a55205a1161023c5780632a55205a146103375780632b4c9f16146103765780632f2ff15d1461039c575f80fd5b8063114ba8ee1461031157806323b872dd14610324575f80fd5b806301ffc9a71461028757806306fdde03146102af578063081812fc146102c4578063095ea7b3146102fc575b5f80fd5b61029a610295366004613792565b610600565b60405190151581526020015b60405180910390f35b6102b7610619565b6040516102a69190613818565b6102d76102d236600461382a565b610628565b60405173ffffffffffffffffffffffffffffffffffffffff90911681526020016102a6565b61030f61030a366004613862565b61063b565b005b61030f61031f36600461388c565b61068a565b61030f6103323660046138a7565b6106f5565b61034a6103453660046138e5565b610732565b6040805173ffffffffffffffffffffffffffffffffffffffff90931683526020830191909152016102a6565b7f00000000000000000000000000000000000000000000000000000000000000006102d7565b61030f6103aa366004613905565b610754565b6103b7610786565b6040516102a6929190613933565b61030f6103d3366004613862565b610798565b61030f6103e63660046138a7565b6107e7565b61030f6103f93660046139c0565b610817565b61029a61040c36600461388c565b7f000000000000000000000000000000000000000000000000000000000000000073ffffffffffffffffffffffffffffffffffffffff90811691161490565b61030f61045936600461382a565b61088a565b6102d761046c36600461382a565b6108a7565b61048461047f36600461388c565b6108ba565b6040519081526020016102a6565b61030f6104a0366004613a11565b6108cd565b61030f6104b3366004613ae2565b6109f4565b61030f6104c636600461382a565b610a75565b6102d7610a90565b61030f6104e136600461388c565b610ab6565b61029a6104f4366004613905565b610ad3565b6102b7610b1c565b61030f61050f366004613b3a565b610b26565b6102d7610bc8565b61030f61052a366004613ba2565b610bf1565b6102d7610c20565b61030f610545366004613bce565b610c2c565b61030f610558366004613a11565b610c68565b6102b761056b36600461382a565b610e07565b6104847f6d696e746572000000000000000000000000000000000000000000000000000081565b61030f6105a5366004613905565b610e2a565b610484620186a081565b61029a6105c2366004613c3c565b610e57565b61030f6105d536600461388c565b610ea3565b61030f6105e8366004613c68565b610ebe565b61030f6105fb366004613b3a565b610ef7565b5f6106138261060d610fdc565b90611009565b92915050565b60606106236110e0565b905090565b5f610613826106356110f2565b9061111f565b73ffffffffffffffffffffffffffffffffffffffff82161561066957610669826106636111fd565b9061122a565b610686610674611234565b838361067e6110f2565b92919061123d565b5050565b6106a3610695611234565b61069d611502565b9061152f565b6106f2816106af6111fd565b9081547fffffffffffffffffffffffff00000000000000000000000000000000000000001673ffffffffffffffffffffffffffffffffffffffff91909116179055565b50565b5f6106fe611234565b9050610714818561070d6111fd565b91906115f4565b61072c818585856107236110f2565b93929190611631565b50505050565b5f806107488484610741611982565b91906119af565b915091505b9250929050565b5f61075d611234565b905061076b8161069d611502565b610781838383610779611a57565b929190611a84565b505050565b365f610790611b58565b915091509091565b6107d37f6d696e74657200000000000000000000000000000000000000000000000000006107c4611234565b6107cc611a57565b9190611b62565b61068682826107e06110f2565b9190611c0d565b5f6107f0611234565b90506107ff818561070d6111fd565b61072c8185858561080e6110f2565b93929190611d82565b6108437f6d696e74657200000000000000000000000000000000000000000000000000006107c4611234565b610781838383808060200260200160405190810160405280939291908181526020018383602002808284375f9201919091525061088392506110f2915050565b9190611dc7565b610895610695611234565b6106f2816108a1611982565b90611f94565b5f610613826108b46110f2565b9061201a565b5f610613826108c76110f2565b906120af565b6108d8610695611234565b8483811480156108e757508082145b610952576040517f08c379a000000000000000000000000000000000000000000000000000000000815260206004820152601d60248201527f5265636f766572793a20696e636f6e73697374656e742061727261797300000060448201526064015b60405180910390fd5b5f5b8181146109ea576109e288888381811061097057610970613cbd565b9050602002016020810190610985919061388c565b85858481811061099757610997613cbd565b905060200201358888858181106109b0576109b0613cbd565b90506020020160208101906109c5919061388c565b73ffffffffffffffffffffffffffffffffffffffff169190612159565b600101610954565b5050505050505050565b610a207f6d696e74657200000000000000000000000000000000000000000000000000006107c4611234565b61072c610a2b611234565b858585858080601f0160208091040260200160405190810160405280939291908181526020018383808284375f92019190915250610a6c92506110f2915050565b939291906121e6565b6106f2610a80611234565b82610a89611a57565b919061221b565b5f610623610a9c611502565b5473ffffffffffffffffffffffffffffffffffffffff1690565b610ac1610695611234565b6106f281610acd611982565b906122be565b5f610b158383610ae1611a57565b5f9283526020908152604080842073ffffffffffffffffffffffffffffffffffffffff909316845291905290205460ff1690565b9392505050565b606061062361230b565b610b527f6d696e74657200000000000000000000000000000000000000000000000000006107c4611234565b61072c8484808060200260200160405190810160405280939291908181526020018383602002808284375f92019190915250506040805160208088028281018201909352878252909350879250869182918501908490808284375f92019190915250610bc192506110f2915050565b919061231d565b5f610623610bd46123e1565b6002015473ffffffffffffffffffffffffffffffffffffffff1690565b8015610c0357610c03826106636111fd565b610686610c0e611234565b8383610c186110f2565b92919061240e565b5f610623610a9c6111fd565b5f610c35611234565b9050610c44818761070d6111fd565b610c60818787878787610c556110f2565b95949392919061253d565b505050505050565b610c73610695611234565b848381148015610c8257508082145b610ce8576040517f08c379a000000000000000000000000000000000000000000000000000000000815260206004820152601d60248201527f5265636f766572793a20696e636f6e73697374656e74206172726179730000006044820152606401610949565b5f5b8181146109ea57858582818110610d0357610d03613cbd565b9050602002016020810190610d18919061388c565b73ffffffffffffffffffffffffffffffffffffffff166323b872dd308a8a85818110610d4657610d46613cbd565b9050602002016020810190610d5b919061388c565b878786818110610d6d57610d6d613cbd565b6040517fffffffff0000000000000000000000000000000000000000000000000000000060e088901b16815273ffffffffffffffffffffffffffffffffffffffff9586166004820152949093166024850152506020909102013560448201526064015f604051808303815f87803b158015610de6575f80fd5b505af1158015610df8573d5f803e3d5ffd5b50505050806001019050610cea565b6060610e15826108b46110f2565b506106133083610e236123e1565b91906125b2565b5f610e33611234565b9050610e418161069d611502565b610781838383610e4f611a57565b92919061266e565b5f610b158383610e656110f2565b919073ffffffffffffffffffffffffffffffffffffffff9182165f908152600393909301602090815260408085209290931684525290205460ff1690565b6106f2610eae611234565b82610eb7611502565b9190612736565b5f610ec7611234565b9050610ed6818661070d6111fd565b610ef08186868686610ee66110f2565b9493929190612861565b5050505050565b610f02610695611234565b82818114610f6c576040517f08c379a000000000000000000000000000000000000000000000000000000000815260206004820152601d60248201527f5265636f766572793a20696e636f6e73697374656e74206172726179730000006044820152606401610949565b5f5b818114610c6057610fd4848483818110610f8a57610f8a613cbd565b90506020020135878784818110610fa357610fa3613cbd565b9050602002016020810190610fb8919061388c565b73ffffffffffffffffffffffffffffffffffffffff1690612bd5565b600101610f6e565b5f8061061360017fca9d3e17f264b0f3984e2634e94adb37fa3e6a8103f06aeae6fa59e21c769f5e613d17565b5f7c01000000000000000000000000000000000000000000000000000000007fffffffff0000000000000000000000000000000000000000000000000000000083160161105757505f610613565b7ffe003659000000000000000000000000000000000000000000000000000000007fffffffff000000000000000000000000000000000000000000000000000000008316016110a857506001610613565b507fffffffff00000000000000000000000000000000000000000000000000000000165f908152602091909152604090205460ff1690565b60606106236110ed6123e1565b612d2b565b5f8061061360017fddf3ee18ae6d688373c219468f8be446e7ae82215f4779d821c7ea5e8c13c0c1613d17565b5f8181526020839052604081205473ffffffffffffffffffffffffffffffffffffffff81166111aa576040517f08c379a000000000000000000000000000000000000000000000000000000000815260206004820152601a60248201527f4552433732313a206e6f6e2d6578697374696e6720746f6b656e0000000000006044820152606401610949565b740100000000000000000000000000000000000000008116156111f45750505f81815260028301602052604090205473ffffffffffffffffffffffffffffffffffffffff16610613565b5f915050610613565b5f8061061360017f609b85bcafa81ecfaf3ff62cdde2c6c9082a68dbe4922f07399c706bdeb7cd31613d17565b6106868282612dbe565b5f610623612ee2565b5f8181526020859052604090205473ffffffffffffffffffffffffffffffffffffffff81166112c8576040517f08c379a000000000000000000000000000000000000000000000000000000000815260206004820152601a60248201527f4552433732313a206e6f6e2d6578697374696e6720746f6b656e0000000000006044820152606401610949565b8073ffffffffffffffffffffffffffffffffffffffff8082169085160361134b576040517f08c379a000000000000000000000000000000000000000000000000000000000815260206004820152601560248201527f4552433732313a2073656c662d617070726f76616c00000000000000000000006044820152606401610949565b611356868287613026565b6113bc576040517f08c379a000000000000000000000000000000000000000000000000000000000815260206004820152601b60248201527f4552433732313a206e6f6e2d617070726f7665642073656e64657200000000006044820152606401610949565b73ffffffffffffffffffffffffffffffffffffffff8416611420577401000000000000000000000000000000000000000082161561141b575f83815260208790526040902073ffffffffffffffffffffffffffffffffffffffff821690555b61149f565b740100000000000000000000000000000000000000008217808314611450575f8481526020889052604090208190555b505f838152600287016020526040902080547fffffffffffffffffffffffff00000000000000000000000000000000000000001673ffffffffffffffffffffffffffffffffffffffff86161790555b828473ffffffffffffffffffffffffffffffffffffffff168273ffffffffffffffffffffffffffffffffffffffff167f8c5be1e5ebec7d5bd14f71427d1e84f3dd0314c0f7b2291e5b200ac8c7c3b92560405160405180910390a4505050505050565b5f8061061360017fc9ed16f33ab3a66c84bfd83099ccb2a8845871e2e1c1928f63797152f0fd54cd613d17565b815473ffffffffffffffffffffffffffffffffffffffff828116911614610686576040517f08c379a000000000000000000000000000000000000000000000000000000000815260206004820152601860248201527f4f776e6572736869703a206e6f7420746865206f776e657200000000000000006044820152606401610949565b81547fffffffffffffffffffffffff00000000000000000000000000000000000000001673ffffffffffffffffffffffffffffffffffffffff91909116179055565b8073ffffffffffffffffffffffffffffffffffffffff168273ffffffffffffffffffffffffffffffffffffffff1614610781576107818383612dbe565b73ffffffffffffffffffffffffffffffffffffffff82166116ae576040517f08c379a000000000000000000000000000000000000000000000000000000000815260206004820152601e60248201527f4552433732313a207472616e7366657220746f206164647265737328302900006044820152606401610949565b5f8181526020869052604090205473ffffffffffffffffffffffffffffffffffffffff8116611739576040517f08c379a000000000000000000000000000000000000000000000000000000000815260206004820152601a60248201527f4552433732313a206e6f6e2d6578697374696e6720746f6b656e0000000000006044820152606401610949565b73ffffffffffffffffffffffffffffffffffffffff84168173ffffffffffffffffffffffffffffffffffffffff16146117ce576040517f08c379a000000000000000000000000000000000000000000000000000000000815260206004820152601760248201527f4552433732313a206e6f6e2d6f776e656420746f6b656e0000000000000000006044820152606401610949565b6117d9868587613026565b611890577401000000000000000000000000000000000000000081161515801561182a57505f82815260028701602052604090205473ffffffffffffffffffffffffffffffffffffffff8681169116145b611890576040517f08c379a000000000000000000000000000000000000000000000000000000000815260206004820152601b60248201527f4552433732313a206e6f6e2d617070726f7665642073656e64657200000000006044820152606401610949565b5f82815260208790526040902073ffffffffffffffffffffffffffffffffffffffff8085169182905585161461191f5773ffffffffffffffffffffffffffffffffffffffff8085165f9081526001808901602052604080832080547fffffffffffffffffffffffffffffffffffffffffffffffffffffffffffffffff0190559286168252919020805490910190555b818373ffffffffffffffffffffffffffffffffffffffff168573ffffffffffffffffffffffffffffffffffffffff167fddf252ad1be2c89b69c2b068fc378daa952ba7f163c4a11628f55a4df523b3ef60405160405180910390a4505050505050565b5f8061061360017f2c0cf10337caabbd02dcf226f05f5fd19a0919a41a8df8958c39b80007826858613d17565b825473ffffffffffffffffffffffffffffffffffffffff8116905f907401000000000000000000000000000000000000000090046bffffffffffffffffffffffff168315806119fc575080155b15611a09575f9150611a4e565b620186a0841015611a3357620186a0611a228286613d2a565b611a2c9190613d41565b9150611a4e565b80611a41620186a086613d41565b611a4b9190613d2a565b91505b50935093915050565b5f8061061360017fc8827d3282af6f37b64c3e9e6f3ac9df286ab0bb0fccd6f8661bf19adb368b23613d17565b5f8381526020858152604080832073ffffffffffffffffffffffffffffffffffffffff8616845290915290205460ff1661072c575f8381526020858152604080832073ffffffffffffffffffffffffffffffffffffffff8681168086529184529382902080547fffffffffffffffffffffffffffffffffffffffffffffffffffffffffffffff00166001179055815187815292830152918316918101919091527f2f8788117e7eff1d82e926ec794901d17c78024a50270940304540a733656f0d906060015b60405180910390a150505050565b365f610790613099565b5f8281526020848152604080832073ffffffffffffffffffffffffffffffffffffffff8516845290915290205460ff1661078157611b9f826131fe565b604051602001611baf9190613d79565b604080517fffffffffffffffffffffffffffffffffffffffffffffffffffffffffffffffe0818403018152908290527f08c379a000000000000000000000000000000000000000000000000000000000825261094991600401613818565b73ffffffffffffffffffffffffffffffffffffffff8216611c8a576040517f08c379a000000000000000000000000000000000000000000000000000000000815260206004820152601a60248201527f4552433732313a206d696e7420746f20616464726573732830290000000000006044820152606401610949565b5f8181526020849052604090205473ffffffffffffffffffffffffffffffffffffffff1615611d15576040517f08c379a000000000000000000000000000000000000000000000000000000000815260206004820152601660248201527f4552433732313a206578697374696e6720746f6b656e000000000000000000006044820152606401610949565b5f8181526020848152604080832073ffffffffffffffffffffffffffffffffffffffff86169081905580845260018088019093528184208054909301909255518392907fddf252ad1be2c89b69c2b068fc378daa952ba7f163c4a11628f55a4df523b3ef908290a4505050565b611d8f8585858585611631565b73ffffffffffffffffffffffffffffffffffffffff82163b15610ef057610ef08484848460405180602001604052805f815250613389565b73ffffffffffffffffffffffffffffffffffffffff8216611e44576040517f08c379a000000000000000000000000000000000000000000000000000000000815260206004820152601a60248201527f4552433732313a206d696e7420746f20616464726573732830290000000000006044820152606401610949565b80515f5b818114611f60575f838281518110611e6257611e62613cbd565b60200260200101519050611e9d865f015f8381526020019081526020015f205473ffffffffffffffffffffffffffffffffffffffff16151590565b15611f04576040517f08c379a000000000000000000000000000000000000000000000000000000000815260206004820152601660248201527f4552433732313a206578697374696e6720746f6b656e000000000000000000006044820152606401610949565b5f8181526020879052604080822073ffffffffffffffffffffffffffffffffffffffff88169081905590518392907fddf252ad1be2c89b69c2b068fc378daa952ba7f163c4a11628f55a4df523b3ef908290a450600101611e48565b5073ffffffffffffffffffffffffffffffffffffffff9092165f908152600190930160205250604090912080549091019055565b620186a0811115611fd4576040517f3affc6c400000000000000000000000000000000000000000000000000000000815260048101829052602401610949565b81546bffffffffffffffffffffffff909116740100000000000000000000000000000000000000000273ffffffffffffffffffffffffffffffffffffffff909116179055565b5f8181526020839052604081205473ffffffffffffffffffffffffffffffffffffffff81166120a5576040517f08c379a000000000000000000000000000000000000000000000000000000000815260206004820152601a60248201527f4552433732313a206e6f6e2d6578697374696e6720746f6b656e0000000000006044820152606401610949565b805b949350505050565b5f73ffffffffffffffffffffffffffffffffffffffff821661212d576040517f08c379a000000000000000000000000000000000000000000000000000000000815260206004820152601d60248201527f4552433732313a2062616c616e6365206f6620616464726573732830290000006044820152606401610949565b5073ffffffffffffffffffffffffffffffffffffffff165f908152600191909101602052604090205490565b6040805173ffffffffffffffffffffffffffffffffffffffff8416602482015260448082018490528251808303909101815260649091019091526020810180517bffffffffffffffffffffffffffffffffffffffffffffffffffffffff167fa9059cbb000000000000000000000000000000000000000000000000000000001790526107819084906134ac565b6121f1858484611c0d565b73ffffffffffffffffffffffffffffffffffffffff83163b15610ef057610ef0845f858585613389565b612226838284611b62565b5f8181526020848152604080832073ffffffffffffffffffffffffffffffffffffffff86168085529083529281902080547fffffffffffffffffffffffffffffffffffffffffffffffffffffffffffffff0016905580518481529182018390528101919091527ff6391f5c32d9c69d2a47ea670b442974b53935d1edc7fd64eb21e047a839171b9060600160405180910390a1505050565b73ffffffffffffffffffffffffffffffffffffffff81166115b2576040517f6fe1b4c800000000000000000000000000000000000000000000000000000000815260040160405180910390fd5b60606106236123186123e1565b6135b9565b815181518114612389576040517f08c379a000000000000000000000000000000000000000000000000000000000815260206004820152601b60248201527f4552433732313a20696e636f6e73697374656e742061727261797300000000006044820152606401610949565b5f5b818114610ef0576123d98482815181106123a7576123a7613cbd565b60200260200101518483815181106123c1576123c1613cbd565b602002602001015187611c0d9092919063ffffffff16565b60010161238b565b5f8061061360017f7ea68fd2dcf1c056b94db6a0a537aa80d26fa9ab1eacd85da1ba0b61b7e7a8a5613d17565b8273ffffffffffffffffffffffffffffffffffffffff168273ffffffffffffffffffffffffffffffffffffffff16036124a3576040517f08c379a000000000000000000000000000000000000000000000000000000000815260206004820152601d60248201527f4552433732313a2073656c662d617070726f76616c20666f7220616c6c0000006044820152606401610949565b73ffffffffffffffffffffffffffffffffffffffff8381165f81815260038701602090815260408083209487168084529482529182902080547fffffffffffffffffffffffffffffffffffffffffffffffffffffffffffffff001686151590811790915591519182527f17307eab39ab6107e8899845ad3d59bd9653f200f220920489ca2b5937696c31910160405180910390a350505050565b61254a8787878787611631565b73ffffffffffffffffffffffffffffffffffffffff84163b156125a9576125a98686868686868080601f0160208091040260200160405190810160405280939291908181526020018383808284375f9201919091525061338992505050565b50505050505050565b60028301546040517ff724dad700000000000000000000000000000000000000000000000000000000815273ffffffffffffffffffffffffffffffffffffffff848116600483015260248201849052606092169063f724dad7906044015f60405180830381865afa158015612629573d5f803e3d5ffd5b505050506040513d5f823e601f3d9081017fffffffffffffffffffffffffffffffffffffffffffffffffffffffffffffffe01682016040526120a79190810190613e11565b5f8381526020858152604080832073ffffffffffffffffffffffffffffffffffffffff8616845290915290205460ff161561072c575f8381526020858152604080832073ffffffffffffffffffffffffffffffffffffffff8681168086529184529382902080547fffffffffffffffffffffffffffffffffffffffffffffffffffffffffffffff00169055815187815292830152918316918101919091527ff6391f5c32d9c69d2a47ea670b442974b53935d1edc7fd64eb21e047a839171b90606001611b4a565b825473ffffffffffffffffffffffffffffffffffffffff90811690831681146127bb576040517f08c379a000000000000000000000000000000000000000000000000000000000815260206004820152601860248201527f4f776e6572736869703a206e6f7420746865206f776e657200000000000000006044820152606401610949565b8173ffffffffffffffffffffffffffffffffffffffff168173ffffffffffffffffffffffffffffffffffffffff161461072c5783547fffffffffffffffffffffffff00000000000000000000000000000000000000001673ffffffffffffffffffffffffffffffffffffffff8381169182178655604051908316907f8be0079c531659141344cd1fd0a4f28419497f9722a3daafe3b4186f6b6457e0905f90a350505050565b73ffffffffffffffffffffffffffffffffffffffff83166128de576040517f08c379a000000000000000000000000000000000000000000000000000000000815260206004820152601e60248201527f4552433732313a207472616e7366657220746f206164647265737328302900006044820152606401610949565b5f6128ea878688613026565b9050815f5b818114612b4f575f85858381811061290957612909613cbd565b602090810292909201355f818152928d90526040909220549192505073ffffffffffffffffffffffffffffffffffffffff81166129a2576040517f08c379a000000000000000000000000000000000000000000000000000000000815260206004820152601a60248201527f4552433732313a206e6f6e2d6578697374696e6720746f6b656e0000000000006044820152606401610949565b73ffffffffffffffffffffffffffffffffffffffff89168173ffffffffffffffffffffffffffffffffffffffff1614612a37576040517f08c379a000000000000000000000000000000000000000000000000000000000815260206004820152601760248201527f4552433732313a206e6f6e2d6f776e656420746f6b656e0000000000000000006044820152606401610949565b84612aef5774010000000000000000000000000000000000000000811615158015612a8957505f82815260028c01602052604090205473ffffffffffffffffffffffffffffffffffffffff8b81169116145b612aef576040517f08c379a000000000000000000000000000000000000000000000000000000000815260206004820152601b60248201527f4552433732313a206e6f6e2d617070726f7665642073656e64657200000000006044820152606401610949565b5f82815260208c9052604080822073ffffffffffffffffffffffffffffffffffffffff808c16918290559151859391928d16917fddf252ad1be2c89b69c2b068fc378daa952ba7f163c4a11628f55a4df523b3ef91a450506001016128ef565b508473ffffffffffffffffffffffffffffffffffffffff168673ffffffffffffffffffffffffffffffffffffffff1614158015612b8b57508015155b156109ea5773ffffffffffffffffffffffffffffffffffffffff8087165f90815260018a016020526040808220805485900390559187168152208054820190555050505050505050565b80471015612c3f576040517f08c379a000000000000000000000000000000000000000000000000000000000815260206004820152601d60248201527f416464726573733a20696e73756666696369656e742062616c616e63650000006044820152606401610949565b5f8273ffffffffffffffffffffffffffffffffffffffff16826040515f6040518083038185875af1925050503d805f8114612c95576040519150601f19603f3d011682016040523d82523d5f602084013e612c9a565b606091505b5050905080610781576040517f08c379a000000000000000000000000000000000000000000000000000000000815260206004820152603a60248201527f416464726573733a20756e61626c6520746f2073656e642076616c75652c207260448201527f6563697069656e74206d617920686176652072657665727465640000000000006064820152608401610949565b6060815f018054612d3b90613ecc565b80601f0160208091040260200160405190810160405280929190818152602001828054612d6790613ecc565b8015612db25780601f10612d8957610100808354040283529160200191612db2565b820191905f5260205f20905b815481529060010190602001808311612d9557829003601f168201915b50505050509050919050565b815473ffffffffffffffffffffffffffffffffffffffff168015801590612dfb57505f8173ffffffffffffffffffffffffffffffffffffffff163b115b15610781576040517fc617113400000000000000000000000000000000000000000000000000000000815230600482015273ffffffffffffffffffffffffffffffffffffffff838116602483015282169063c617113490604401602060405180830381865afa158015612e70573d5f803e3d5ffd5b505050506040513d601f19601f82011682018060405250810190612e949190613f1d565b610781576040517fede71dcc00000000000000000000000000000000000000000000000000000000815273ffffffffffffffffffffffffffffffffffffffff83166004820152602401610949565b5f33321480612ef15750601836105b15612efb57503390565b7fffffffffffffffffffffffffffffffffffffffffffffffffffffffffffffffec36013560601c7f000000000000000000000000000000000000000000000000000000000000000073ffffffffffffffffffffffffffffffffffffffff1633148061301557506040517f8929a8ca00000000000000000000000000000000000000000000000000000000815273ffffffffffffffffffffffffffffffffffffffff82811660048301523360248301527f00000000000000000000000000000000000000000000000000000000000000001690638929a8ca90604401602060405180830381865afa158015612ff1573d5f803e3d5ffd5b505050506040513d601f19601f820116820180604052508101906130159190613f1d565b1561301f57919050565b3391505090565b5f8173ffffffffffffffffffffffffffffffffffffffff168373ffffffffffffffffffffffffffffffffffffffff1614806120a757505073ffffffffffffffffffffffffffffffffffffffff9182165f908152600393909301602090815260408085209290931684525290205460ff1690565b365f333214806130a95750601836105b156130b657505f91369150565b3373ffffffffffffffffffffffffffffffffffffffff7f00000000000000000000000000000000000000000000000000000000000000001614806131e9575073ffffffffffffffffffffffffffffffffffffffff7f000000000000000000000000000000000000000000000000000000000000000016638929a8ca367fffffffffffffffffffffffffffffffffffffffffffffffffffffffffffffffec013560601c6040517fffffffff0000000000000000000000000000000000000000000000000000000060e084901b16815273ffffffffffffffffffffffffffffffffffffffff9091166004820152336024820152604401602060405180830381865afa1580156131c5573d5f803e3d5ffd5b505050506040513d601f19601f820116820180604052508101906131e99190613f1d565b156131f6576107906135ca565b505f91369150565b60605f82900361321b57505060408051602081019091525f815290565b5f8260405160200161322f91815260200190565b604080517fffffffffffffffffffffffffffffffffffffffffffffffffffffffffffffffe08184030181529190529050601f5b81818151811061327457613274613cbd565b01602001517fff00000000000000000000000000000000000000000000000000000000000000165f036132c8577fffffffffffffffffffffffffffffffffffffffffffffffffffffffffffffffff01613262565b5f8160010167ffffffffffffffff8111156132e5576132e5613de4565b6040519080825280601f01601f19166020018201604052801561330f576020820181803683370190505b5090505f5b8281116133805783818151811061332d5761332d613cbd565b602001015160f81c60f81b82828151811061334a5761334a613cbd565b60200101907effffffffffffffffffffffffffffffffffffffffffffffffffffffffffffff191690815f1a905350600101613314565b50949350505050565b6040517f150b7a02000000000000000000000000000000000000000000000000000000008082529073ffffffffffffffffffffffffffffffffffffffff85169063150b7a02906133e3908990899088908890600401613f38565b6020604051808303815f875af11580156133ff573d5f803e3d5ffd5b505050506040513d601f19601f820116820180604052508101906134239190613f80565b7fffffffff000000000000000000000000000000000000000000000000000000001614610ef0576040517f08c379a000000000000000000000000000000000000000000000000000000000815260206004820152601e60248201527f4552433732313a2073616665207472616e736665722072656a656374656400006044820152606401610949565b5f61350d826040518060400160405280602081526020017f5361666545524332303a206c6f772d6c6576656c2063616c6c206661696c65648152508573ffffffffffffffffffffffffffffffffffffffff166135fa9092919063ffffffff16565b905080515f148061352d57508080602001905181019061352d9190613f1d565b610781576040517f08c379a000000000000000000000000000000000000000000000000000000000815260206004820152602a60248201527f5361666545524332303a204552433230206f7065726174696f6e20646964206e60448201527f6f742073756363656564000000000000000000000000000000000000000000006064820152608401610949565b6060816001018054612d3b90613ecc565b365f6107907fffffffffffffffffffffffffffffffffffffffffffffffffffffffffffffffec8301828481613f9b565b60606120a784845f85855f808673ffffffffffffffffffffffffffffffffffffffff16858760405161362c9190613fc2565b5f6040518083038185875af1925050503d805f8114613666576040519150601f19603f3d011682016040523d82523d5f602084013e61366b565b606091505b509150915061367c87838387613687565b979650505050505050565b6060831561371c5782515f036137155773ffffffffffffffffffffffffffffffffffffffff85163b613715576040517f08c379a000000000000000000000000000000000000000000000000000000000815260206004820152601d60248201527f416464726573733a2063616c6c20746f206e6f6e2d636f6e74726163740000006044820152606401610949565b50816120a7565b6120a783838151156137315781518083602001fd5b806040517f08c379a00000000000000000000000000000000000000000000000000000000081526004016109499190613818565b7fffffffff00000000000000000000000000000000000000000000000000000000811681146106f2575f80fd5b5f602082840312156137a2575f80fd5b8135610b1581613765565b5f5b838110156137c75781810151838201526020016137af565b50505f910152565b5f81518084526137e68160208601602086016137ad565b601f017fffffffffffffffffffffffffffffffffffffffffffffffffffffffffffffffe0169290920160200192915050565b602081525f610b1560208301846137cf565b5f6020828403121561383a575f80fd5b5035919050565b73ffffffffffffffffffffffffffffffffffffffff811681146106f2575f80fd5b5f8060408385031215613873575f80fd5b823561387e81613841565b946020939093013593505050565b5f6020828403121561389c575f80fd5b8135610b1581613841565b5f805f606084860312156138b9575f80fd5b83356138c481613841565b925060208401356138d481613841565b929592945050506040919091013590565b5f80604083850312156138f6575f80fd5b50508035926020909101359150565b5f8060408385031215613916575f80fd5b82359150602083013561392881613841565b809150509250929050565b60208152816020820152818360408301375f818301604090810191909152601f9092017fffffffffffffffffffffffffffffffffffffffffffffffffffffffffffffffe0160101919050565b5f8083601f84011261398f575f80fd5b50813567ffffffffffffffff8111156139a6575f80fd5b6020830191508360208260051b850101111561074d575f80fd5b5f805f604084860312156139d2575f80fd5b83356139dd81613841565b9250602084013567ffffffffffffffff8111156139f8575f80fd5b613a048682870161397f565b9497909650939450505050565b5f805f805f8060608789031215613a26575f80fd5b863567ffffffffffffffff80821115613a3d575f80fd5b613a498a838b0161397f565b90985096506020890135915080821115613a61575f80fd5b613a6d8a838b0161397f565b90965094506040890135915080821115613a85575f80fd5b50613a9289828a0161397f565b979a9699509497509295939492505050565b5f8083601f840112613ab4575f80fd5b50813567ffffffffffffffff811115613acb575f80fd5b60208301915083602082850101111561074d575f80fd5b5f805f8060608587031215613af5575f80fd5b8435613b0081613841565b935060208501359250604085013567ffffffffffffffff811115613b22575f80fd5b613b2e87828801613aa4565b95989497509550505050565b5f805f8060408587031215613b4d575f80fd5b843567ffffffffffffffff80821115613b64575f80fd5b613b708883890161397f565b90965094506020870135915080821115613b88575f80fd5b50613b2e8782880161397f565b80151581146106f2575f80fd5b5f8060408385031215613bb3575f80fd5b8235613bbe81613841565b9150602083013561392881613b95565b5f805f805f60808688031215613be2575f80fd5b8535613bed81613841565b94506020860135613bfd81613841565b935060408601359250606086013567ffffffffffffffff811115613c1f575f80fd5b613c2b88828901613aa4565b969995985093965092949392505050565b5f8060408385031215613c4d575f80fd5b8235613c5881613841565b9150602083013561392881613841565b5f805f8060608587031215613c7b575f80fd5b8435613c8681613841565b93506020850135613c9681613841565b9250604085013567ffffffffffffffff811115613cb1575f80fd5b613b2e8782880161397f565b7f4e487b71000000000000000000000000000000000000000000000000000000005f52603260045260245ffd5b7f4e487b71000000000000000000000000000000000000000000000000000000005f52601160045260245ffd5b8181038181111561061357610613613cea565b808202811582820484141761061357610613613cea565b5f82613d74577f4e487b71000000000000000000000000000000000000000000000000000000005f52601260045260245ffd5b500490565b7f416363657373436f6e74726f6c3a206d697373696e672027000000000000000081525f8251613db08160188501602087016137ad565b7f2720726f6c6500000000000000000000000000000000000000000000000000006018939091019283015250601e01919050565b7f4e487b71000000000000000000000000000000000000000000000000000000005f52604160045260245ffd5b5f60208284031215613e21575f80fd5b815167ffffffffffffffff80821115613e38575f80fd5b818401915084601f830112613e4b575f80fd5b815181811115613e5d57613e5d613de4565b604051601f82017fffffffffffffffffffffffffffffffffffffffffffffffffffffffffffffffe0908116603f01168101908382118183101715613ea357613ea3613de4565b81604052828152876020848701011115613ebb575f80fd5b61367c8360208301602088016137ad565b600181811c90821680613ee057607f821691505b602082108103613f17577f4e487b71000000000000000000000000000000000000000000000000000000005f52602260045260245ffd5b50919050565b5f60208284031215613f2d575f80fd5b8151610b1581613b95565b5f73ffffffffffffffffffffffffffffffffffffffff808716835280861660208401525083604083015260806060830152613f7660808301846137cf565b9695505050505050565b5f60208284031215613f90575f80fd5b8151610b1581613765565b5f8085851115613fa9575f80fd5b83861115613fb5575f80fd5b5050820193919092039150565b5f8251613fd38184602087016137ad565b919091019291505056fea2646970667358221220abb9cc37fa571173230597b3b82dcc655fe7c4f1943781f09480ac18abe725e464736f6c63430008150033",
  "linkReferences": {},
  "deployedLinkReferences": {}
}