{
  "_format": "hh-sol-artifact-1",
  "contractName": "ERC721FullMock",
  "sourceName": "contracts/mocks/token/ERC721/preset/ERC721FullMock.sol",
  "abi": [
    {
      "inputs": [
        {
          "internalType": "string",
          "name": "tokenName",
          "type": "string"
        },
        {
          "internalType": "string",
          "name": "tokenSymbol",
          "type": "string"
        },
        {
          "internalType": "contract ITokenMetadataResolver",
          "name": "metadataResolver",
          "type": "address"
        },
        {
          "internalType": "contract IOperatorFilterRegistry",
          "name": "filterRegistry",
          "type": "address"
        },
        {
          "internalType": "contract IForwarderRegistry",
          "name": "forwarderRegistry",
          "type": "address"
        }
      ],
      "stateMutability": "nonpayable",
      "type": "constructor"
    },
    {
      "inputs": [
        {
          "internalType": "address",
          "name": "target",
          "type": "address"
        }
      ],
      "name": "AddressEmptyCode",
      "type": "error"
    },
    {
      "inputs": [
        {
          "internalType": "address",
          "name": "account",
          "type": "address"
        }
      ],
      "name": "AddressInsufficientBalance",
      "type": "error"
    },
    {
      "inputs": [
        {
          "internalType": "uint256",
          "name": "percentage",
          "type": "uint256"
        }
      ],
      "name": "ERC2981IncorrectRoyaltyPercentage",
      "type": "error"
    },
    {
      "inputs": [],
      "name": "ERC2981IncorrectRoyaltyReceiver",
      "type": "error"
    },
    {
      "inputs": [],
      "name": "ERC721BalanceOfAddressZero",
      "type": "error"
    },
    {
      "inputs": [
        {
          "internalType": "uint256",
          "name": "tokenId",
          "type": "uint256"
        }
      ],
      "name": "ERC721ExistingToken",
      "type": "error"
    },
    {
      "inputs": [],
      "name": "ERC721MintToAddressZero",
      "type": "error"
    },
    {
      "inputs": [
        {
          "internalType": "address",
          "name": "sender",
          "type": "address"
        },
        {
          "internalType": "address",
          "name": "owner",
          "type": "address"
        },
        {
          "internalType": "uint256",
          "name": "tokenId",
          "type": "uint256"
        }
      ],
      "name": "ERC721NonApprovedForApproval",
      "type": "error"
    },
    {
      "inputs": [
        {
          "internalType": "address",
          "name": "sender",
          "type": "address"
        },
        {
          "internalType": "address",
          "name": "owner",
          "type": "address"
        },
        {
          "internalType": "uint256",
          "name": "tokenId",
          "type": "uint256"
        }
      ],
      "name": "ERC721NonApprovedForTransfer",
      "type": "error"
    },
    {
      "inputs": [
        {
          "internalType": "uint256",
          "name": "tokenId",
          "type": "uint256"
        }
      ],
      "name": "ERC721NonExistingToken",
      "type": "error"
    },
    {
      "inputs": [
        {
          "internalType": "address",
          "name": "account",
          "type": "address"
        },
        {
          "internalType": "uint256",
          "name": "tokenId",
          "type": "uint256"
        }
      ],
      "name": "ERC721NonOwnedToken",
      "type": "error"
    },
    {
      "inputs": [
        {
          "internalType": "address",
          "name": "recipient",
          "type": "address"
        },
        {
          "internalType": "uint256",
          "name": "tokenId",
          "type": "uint256"
        }
      ],
      "name": "ERC721SafeTransferRejected",
      "type": "error"
    },
    {
      "inputs": [
        {
          "internalType": "address",
          "name": "account",
          "type": "address"
        }
      ],
      "name": "ERC721SelfApproval",
      "type": "error"
    },
    {
      "inputs": [
        {
          "internalType": "address",
          "name": "account",
          "type": "address"
        }
      ],
      "name": "ERC721SelfApprovalForAll",
      "type": "error"
    },
    {
      "inputs": [],
      "name": "ERC721TransferToAddressZero",
      "type": "error"
    },
    {
      "inputs": [],
      "name": "FailedInnerCall",
      "type": "error"
    },
    {
      "inputs": [],
      "name": "IllegalInterfaceId",
      "type": "error"
    },
    {
      "inputs": [],
      "name": "InconsistentArrayLengths",
      "type": "error"
    },
    {
      "inputs": [
        {
          "internalType": "address",
          "name": "tokenContract",
          "type": "address"
        }
      ],
      "name": "IncorrectTokenContractType",
      "type": "error"
    },
    {
      "inputs": [
        {
          "internalType": "address",
          "name": "account",
          "type": "address"
        }
      ],
      "name": "NotContractOwner",
      "type": "error"
    },
    {
      "inputs": [
        {
          "internalType": "bytes32",
          "name": "role",
          "type": "bytes32"
        },
        {
          "internalType": "address",
          "name": "account",
          "type": "address"
        }
      ],
      "name": "NotRoleHolder",
      "type": "error"
    },
    {
      "inputs": [
        {
          "internalType": "address",
          "name": "operator",
          "type": "address"
        }
      ],
      "name": "OperatorNotAllowed",
      "type": "error"
    },
    {
      "inputs": [
        {
          "internalType": "address",
          "name": "token",
          "type": "address"
        }
      ],
      "name": "SafeERC20FailedOperation",
      "type": "error"
    },
    {
      "anonymous": false,
      "inputs": [
        {
          "indexed": true,
          "internalType": "address",
          "name": "owner",
          "type": "address"
        },
        {
          "indexed": true,
          "internalType": "address",
          "name": "approved",
          "type": "address"
        },
        {
          "indexed": true,
          "internalType": "uint256",
          "name": "tokenId",
          "type": "uint256"
        }
      ],
      "name": "Approval",
      "type": "event"
    },
    {
      "anonymous": false,
      "inputs": [
        {
          "indexed": true,
          "internalType": "address",
          "name": "owner",
          "type": "address"
        },
        {
          "indexed": true,
          "internalType": "address",
          "name": "operator",
          "type": "address"
        },
        {
          "indexed": false,
          "internalType": "bool",
          "name": "approved",
          "type": "bool"
        }
      ],
      "name": "ApprovalForAll",
      "type": "event"
    },
    {
      "anonymous": false,
      "inputs": [
        {
          "indexed": true,
          "internalType": "address",
          "name": "previousOwner",
          "type": "address"
        },
        {
          "indexed": true,
          "internalType": "address",
          "name": "newOwner",
          "type": "address"
        }
      ],
      "name": "OwnershipTransferred",
      "type": "event"
    },
    {
      "anonymous": false,
      "inputs": [
        {
          "indexed": false,
          "internalType": "bytes32",
          "name": "role",
          "type": "bytes32"
        },
        {
          "indexed": false,
          "internalType": "address",
          "name": "account",
          "type": "address"
        },
        {
          "indexed": false,
          "internalType": "address",
          "name": "operator",
          "type": "address"
        }
      ],
      "name": "RoleGranted",
      "type": "event"
    },
    {
      "anonymous": false,
      "inputs": [
        {
          "indexed": false,
          "internalType": "bytes32",
          "name": "role",
          "type": "bytes32"
        },
        {
          "indexed": false,
          "internalType": "address",
          "name": "account",
          "type": "address"
        },
        {
          "indexed": false,
          "internalType": "address",
          "name": "operator",
          "type": "address"
        }
      ],
      "name": "RoleRevoked",
      "type": "event"
    },
    {
      "anonymous": false,
      "inputs": [
        {
          "indexed": true,
          "internalType": "address",
          "name": "from",
          "type": "address"
        },
        {
          "indexed": true,
          "internalType": "address",
          "name": "to",
          "type": "address"
        },
        {
          "indexed": true,
          "internalType": "uint256",
          "name": "tokenId",
          "type": "uint256"
        }
      ],
      "name": "Transfer",
      "type": "event"
    },
    {
      "inputs": [],
      "name": "MINTER_ROLE",
      "outputs": [
        {
          "internalType": "bytes32",
          "name": "",
          "type": "bytes32"
        }
      ],
      "stateMutability": "view",
      "type": "function"
    },
    {
      "inputs": [],
      "name": "ROYALTY_FEE_DENOMINATOR",
      "outputs": [
        {
          "internalType": "uint256",
          "name": "",
          "type": "uint256"
        }
      ],
      "stateMutability": "view",
      "type": "function"
    },
    {
      "inputs": [],
      "name": "__msgData",
      "outputs": [
        {
          "internalType": "bytes",
          "name": "",
          "type": "bytes"
        }
      ],
      "stateMutability": "view",
      "type": "function"
    },
    {
      "inputs": [
        {
          "internalType": "address",
          "name": "to",
          "type": "address"
        },
        {
          "internalType": "uint256",
          "name": "tokenId",
          "type": "uint256"
        }
      ],
      "name": "approve",
      "outputs": [],
      "stateMutability": "nonpayable",
      "type": "function"
    },
    {
      "inputs": [
        {
          "internalType": "address",
          "name": "owner",
          "type": "address"
        }
      ],
      "name": "balanceOf",
      "outputs": [
        {
          "internalType": "uint256",
          "name": "balance",
          "type": "uint256"
        }
      ],
      "stateMutability": "view",
      "type": "function"
    },
    {
      "inputs": [
        {
          "internalType": "address",
          "name": "to",
          "type": "address"
        },
        {
          "internalType": "uint256[]",
          "name": "tokenIds",
          "type": "uint256[]"
        }
      ],
      "name": "batchMint",
      "outputs": [],
      "stateMutability": "nonpayable",
      "type": "function"
    },
    {
      "inputs": [
        {
          "internalType": "address",
          "name": "from",
          "type": "address"
        },
        {
          "internalType": "address",
          "name": "to",
          "type": "address"
        },
        {
          "internalType": "uint256[]",
          "name": "tokenIds",
          "type": "uint256[]"
        }
      ],
      "name": "batchTransferFrom",
      "outputs": [],
      "stateMutability": "nonpayable",
      "type": "function"
    },
    {
      "inputs": [
        {
          "internalType": "address[]",
          "name": "recipients",
          "type": "address[]"
        },
        {
          "internalType": "uint256[]",
          "name": "tokenIds",
          "type": "uint256[]"
        }
      ],
      "name": "deliver",
      "outputs": [],
      "stateMutability": "nonpayable",
      "type": "function"
    },
    {
      "inputs": [],
      "name": "forwarderRegistry",
      "outputs": [
        {
          "internalType": "contract IForwarderRegistry",
          "name": "",
          "type": "address"
        }
      ],
      "stateMutability": "view",
      "type": "function"
    },
    {
      "inputs": [
        {
          "internalType": "uint256",
          "name": "tokenId",
          "type": "uint256"
        }
      ],
      "name": "getApproved",
      "outputs": [
        {
          "internalType": "address",
          "name": "approved",
          "type": "address"
        }
      ],
      "stateMutability": "view",
      "type": "function"
    },
    {
      "inputs": [
        {
          "internalType": "bytes32",
          "name": "role",
          "type": "bytes32"
        },
        {
          "internalType": "address",
          "name": "account",
          "type": "address"
        }
      ],
      "name": "grantRole",
      "outputs": [],
      "stateMutability": "nonpayable",
      "type": "function"
    },
    {
      "inputs": [
        {
          "internalType": "bytes32",
          "name": "role",
          "type": "bytes32"
        },
        {
          "internalType": "address",
          "name": "account",
          "type": "address"
        }
      ],
      "name": "hasRole",
      "outputs": [
        {
          "internalType": "bool",
          "name": "hasRole_",
          "type": "bool"
        }
      ],
      "stateMutability": "view",
      "type": "function"
    },
    {
      "inputs": [
        {
          "internalType": "address",
          "name": "owner",
          "type": "address"
        },
        {
          "internalType": "address",
          "name": "operator",
          "type": "address"
        }
      ],
      "name": "isApprovedForAll",
      "outputs": [
        {
          "internalType": "bool",
          "name": "approvedForAll",
          "type": "bool"
        }
      ],
      "stateMutability": "view",
      "type": "function"
    },
    {
      "inputs": [
        {
          "internalType": "address",
          "name": "forwarder",
          "type": "address"
        }
      ],
      "name": "isTrustedForwarder",
      "outputs": [
        {
          "internalType": "bool",
          "name": "",
          "type": "bool"
        }
      ],
      "stateMutability": "view",
      "type": "function"
    },
    {
      "inputs": [],
      "name": "metadataResolver",
      "outputs": [
        {
          "internalType": "contract ITokenMetadataResolver",
          "name": "tokenMetadataResolver",
          "type": "address"
        }
      ],
      "stateMutability": "view",
      "type": "function"
    },
    {
      "inputs": [
        {
          "internalType": "address",
          "name": "to",
          "type": "address"
        },
        {
          "internalType": "uint256",
          "name": "tokenId",
          "type": "uint256"
        }
      ],
      "name": "mint",
      "outputs": [],
      "stateMutability": "nonpayable",
      "type": "function"
    },
    {
      "inputs": [],
      "name": "name",
      "outputs": [
        {
          "internalType": "string",
          "name": "tokenName",
          "type": "string"
        }
      ],
      "stateMutability": "view",
      "type": "function"
    },
    {
      "inputs": [],
      "name": "operatorFilterRegistry",
      "outputs": [
        {
          "internalType": "contract IOperatorFilterRegistry",
          "name": "",
          "type": "address"
        }
      ],
      "stateMutability": "view",
      "type": "function"
    },
    {
      "inputs": [],
      "name": "owner",
      "outputs": [
        {
          "internalType": "address",
          "name": "",
          "type": "address"
        }
      ],
      "stateMutability": "view",
      "type": "function"
    },
    {
      "inputs": [
        {
          "internalType": "uint256",
          "name": "tokenId",
          "type": "uint256"
        }
      ],
      "name": "ownerOf",
      "outputs": [
        {
          "internalType": "address",
          "name": "tokenOwner",
          "type": "address"
        }
      ],
      "stateMutability": "view",
      "type": "function"
    },
    {
      "inputs": [
        {
          "internalType": "address[]",
          "name": "accounts",
          "type": "address[]"
        },
        {
          "internalType": "contract IERC20[]",
          "name": "tokens",
          "type": "address[]"
        },
        {
          "internalType": "uint256[]",
          "name": "amounts",
          "type": "uint256[]"
        }
      ],
      "name": "recoverERC20s",
      "outputs": [],
      "stateMutability": "nonpayable",
      "type": "function"
    },
    {
      "inputs": [
        {
          "internalType": "address[]",
          "name": "accounts",
          "type": "address[]"
        },
        {
          "internalType": "contract IERC721[]",
          "name": "contracts",
          "type": "address[]"
        },
        {
          "internalType": "uint256[]",
          "name": "tokenIds",
          "type": "uint256[]"
        }
      ],
      "name": "recoverERC721s",
      "outputs": [],
      "stateMutability": "nonpayable",
      "type": "function"
    },
    {
      "inputs": [
        {
          "internalType": "address payable[]",
          "name": "accounts",
          "type": "address[]"
        },
        {
          "internalType": "uint256[]",
          "name": "amounts",
          "type": "uint256[]"
        }
      ],
      "name": "recoverETH",
      "outputs": [],
      "stateMutability": "nonpayable",
      "type": "function"
    },
    {
      "inputs": [
        {
          "internalType": "bytes32",
          "name": "role",
          "type": "bytes32"
        }
      ],
      "name": "renounceRole",
      "outputs": [],
      "stateMutability": "nonpayable",
      "type": "function"
    },
    {
      "inputs": [
        {
          "internalType": "bytes32",
          "name": "role",
          "type": "bytes32"
        },
        {
          "internalType": "address",
          "name": "account",
          "type": "address"
        }
      ],
      "name": "revokeRole",
      "outputs": [],
      "stateMutability": "nonpayable",
      "type": "function"
    },
    {
      "inputs": [
        {
          "internalType": "uint256",
          "name": "tokenId",
          "type": "uint256"
        },
        {
          "internalType": "uint256",
          "name": "salePrice",
          "type": "uint256"
        }
      ],
      "name": "royaltyInfo",
      "outputs": [
        {
          "internalType": "address",
          "name": "receiver",
          "type": "address"
        },
        {
          "internalType": "uint256",
          "name": "royaltyAmount",
          "type": "uint256"
        }
      ],
      "stateMutability": "view",
      "type": "function"
    },
    {
      "inputs": [
        {
          "internalType": "address",
          "name": "to",
          "type": "address"
        },
        {
          "internalType": "uint256",
          "name": "tokenId",
          "type": "uint256"
        },
        {
          "internalType": "bytes",
          "name": "data",
          "type": "bytes"
        }
      ],
      "name": "safeMint",
      "outputs": [],
      "stateMutability": "nonpayable",
      "type": "function"
    },
    {
      "inputs": [
        {
          "internalType": "address",
          "name": "from",
          "type": "address"
        },
        {
          "internalType": "address",
          "name": "to",
          "type": "address"
        },
        {
          "internalType": "uint256",
          "name": "tokenId",
          "type": "uint256"
        }
      ],
      "name": "safeTransferFrom",
      "outputs": [],
      "stateMutability": "nonpayable",
      "type": "function"
    },
    {
      "inputs": [
        {
          "internalType": "address",
          "name": "from",
          "type": "address"
        },
        {
          "internalType": "address",
          "name": "to",
          "type": "address"
        },
        {
          "internalType": "uint256",
          "name": "tokenId",
          "type": "uint256"
        },
        {
          "internalType": "bytes",
          "name": "data",
          "type": "bytes"
        }
      ],
      "name": "safeTransferFrom",
      "outputs": [],
      "stateMutability": "nonpayable",
      "type": "function"
    },
    {
      "inputs": [
        {
          "internalType": "address",
          "name": "operator",
          "type": "address"
        },
        {
          "internalType": "bool",
          "name": "approved",
          "type": "bool"
        }
      ],
      "name": "setApprovalForAll",
      "outputs": [],
      "stateMutability": "nonpayable",
      "type": "function"
    },
    {
      "inputs": [
        {
          "internalType": "uint256",
          "name": "percentage",
          "type": "uint256"
        }
      ],
      "name": "setRoyaltyPercentage",
      "outputs": [],
      "stateMutability": "nonpayable",
      "type": "function"
    },
    {
      "inputs": [
        {
          "internalType": "address",
          "name": "receiver",
          "type": "address"
        }
      ],
      "name": "setRoyaltyReceiver",
      "outputs": [],
      "stateMutability": "nonpayable",
      "type": "function"
    },
    {
      "inputs": [
        {
          "internalType": "bytes4",
          "name": "interfaceId",
          "type": "bytes4"
        }
      ],
      "name": "supportsInterface",
      "outputs": [
        {
          "internalType": "bool",
          "name": "",
          "type": "bool"
        }
      ],
      "stateMutability": "view",
      "type": "function"
    },
    {
      "inputs": [],
      "name": "symbol",
      "outputs": [
        {
          "internalType": "string",
          "name": "tokenSymbol",
          "type": "string"
        }
      ],
      "stateMutability": "view",
      "type": "function"
    },
    {
      "inputs": [
        {
          "internalType": "uint256",
          "name": "tokenId",
          "type": "uint256"
        }
      ],
      "name": "tokenURI",
      "outputs": [
        {
          "internalType": "string",
          "name": "uri",
          "type": "string"
        }
      ],
      "stateMutability": "view",
      "type": "function"
    },
    {
      "inputs": [
        {
          "internalType": "address",
          "name": "from",
          "type": "address"
        },
        {
          "internalType": "address",
          "name": "to",
          "type": "address"
        },
        {
          "internalType": "uint256",
          "name": "tokenId",
          "type": "uint256"
        }
      ],
      "name": "transferFrom",
      "outputs": [],
      "stateMutability": "nonpayable",
      "type": "function"
    },
    {
      "inputs": [
        {
          "internalType": "address",
          "name": "newOwner",
          "type": "address"
        }
      ],
      "name": "transferOwnership",
      "outputs": [],
      "stateMutability": "nonpayable",
      "type": "function"
    },
    {
      "inputs": [
        {
          "internalType": "contract IOperatorFilterRegistry",
          "name": "registry",
          "type": "address"
        }
      ],
      "name": "updateOperatorFilterRegistry",
      "outputs": [],
      "stateMutability": "nonpayable",
      "type": "function"
    }
  ],
  "bytecode": "0x60a060405234801561001057600080fd5b506040516141c13803806141c183398101604081905261002f91610405565b84848484848080868686863361004d816100476100e0565b90610114565b5061005661018a565b610080816100626101a1565b9081546001600160a01b0319166001600160a01b0391909116179055565b506100896101cf565b61009f8383836100976101e4565b929190610212565b6100a7610255565b506100b391505061026a565b6100bb61027f565b6100c3610294565b6001600160a01b03166080525061060f9950505050505050505050565b60008061010e60017fc9ed16f33ab3a66c84bfd83099ccb2a8845871e2e1c1928f63797152f0fd54cd6104a4565b92915050565b6001600160a01b0381161561016a5781546001600160a01b0319166001600160a01b03821690811783556040516000907f8be0079c531659141344cd1fd0a4f28419497f9722a3daafe3b4186f6b6457e0908290a35b6101866307f5828d60e41b600161017f6102a5565b91906102d3565b5050565b61019f6380ac58cd60e01b600161017f6102a5565b565b60008061010e60017f609b85bcafa81ecfaf3ff62cdde2c6c9082a68dbe4922f07399c706bdeb7cd316104a4565b61019f63f3993d1160e01b600161017f6102a5565b60008061010e60017f7ea68fd2dcf1c056b94db6a0a537aa80d26fa9ab1eacd85da1ba0b61b7e7a8a56104a4565b8361021d8482610550565b506001840161022c8382610550565b5060029390930180546001600160a01b0319166001600160a01b03909416939093179092555050565b61019f635b5e139f60e01b600161017f6102a5565b61019f638e773e1360e01b600161017f6102a5565b61019f634ed2f41960e11b600161017f6102a5565b61019f63152a902d60e11b600161017f5b60008061010e60017fca9d3e17f264b0f3984e2634e94adb37fa3e6a8103f06aeae6fa59e21c769f5e6104a4565b600160e01b6001600160e01b0319831601610301576040516372c683bb60e01b815260040160405180910390fd5b6001600160e01b03199190911660009081526020929092526040909120805460ff1916911515919091179055565b634e487b7160e01b600052604160045260246000fd5b600082601f83011261035657600080fd5b81516001600160401b03808211156103705761037061032f565b604051601f8301601f19908116603f011681019082821181831017156103985761039861032f565b81604052838152602092508660208588010111156103b557600080fd5b600091505b838210156103d757858201830151818301840152908201906103ba565b6000602085830101528094505050505092915050565b6001600160a01b038116811461040257600080fd5b50565b600080600080600060a0868803121561041d57600080fd5b85516001600160401b038082111561043457600080fd5b61044089838a01610345565b9650602088015191508082111561045657600080fd5b5061046388828901610345565b9450506040860151610474816103ed565b6060870151909350610485816103ed565b6080870151909250610496816103ed565b809150509295509295909350565b8181038181111561010e57634e487b7160e01b600052601160045260246000fd5b600181811c908216806104d957607f821691505b6020821081036104f957634e487b7160e01b600052602260045260246000fd5b50919050565b601f82111561054b576000816000526020600020601f850160051c810160208610156105285750805b601f850160051c820191505b8181101561054757828155600101610534565b5050505b505050565b81516001600160401b038111156105695761056961032f565b61057d8161057784546104c5565b846104ff565b602080601f8311600181146105b2576000841561059a5750858301515b600019600386901b1c1916600185901b178555610547565b600085815260208120601f198616915b828110156105e1578886015182559484019460019091019084016105c2565b50858210156105ff5787850151600019600388901b60f8161c191681555b5050505050600190811b01905550565b608051613b7461064d600039600081816103880152818161041e01528181612c9b01528181612d2901528181612e510152612e8f0152613b746000f3fe608060405234801561001057600080fd5b50600436106102925760003560e01c80638bb9c5bf11610160578063b88d4fde116100d8578063e1a8bf2c1161008c578063f2fde38b11610071578063f2fde38b146105d7578063f3993d11146105ea578063f7ba94bd146105fd57600080fd5b8063e1a8bf2c146105ba578063e985e9c5146105c457600080fd5b8063c87b56dd116100bd578063c87b56dd1461056d578063d539139314610580578063d547741f146105a757600080fd5b8063b88d4fde14610547578063c3666c361461055a57600080fd5b806395d89b411161012f578063a0c76f6211610114578063a0c76f6214610524578063a22cb4651461052c578063b0ccc31e1461053f57600080fd5b806395d89b41146105095780639da5e8321461051157600080fd5b80638bb9c5bf146104c85780638da5cb5b146104db5780638dc251e3146104e357806391d14854146104f657600080fd5b806331e66e1e1161020e57806361ba27da116101c257806370a08231116101a757806370a082311461048157806373c8a958146104a25780638832e6e3146104b557600080fd5b806361ba27da1461045b5780636352211e1461046e57600080fd5b806342842e0e116101f357806342842e0e146103e85780634684d7e9146103fb578063572b6c051461040e57600080fd5b806331e66e1e146103bf57806340c10f19146103d557600080fd5b8063114ba8ee116102655780632a55205a1161024a5780632a55205a146103475780632b4c9f16146103865780632f2ff15d146103ac57600080fd5b8063114ba8ee1461032157806323b872dd1461033457600080fd5b806301ffc9a71461029757806306fdde03146102bf578063081812fc146102d4578063095ea7b31461030c575b600080fd5b6102aa6102a5366004613305565b610610565b60405190151581526020015b60405180910390f35b6102c761062a565b6040516102b69190613390565b6102e76102e23660046133a3565b610639565b60405173ffffffffffffffffffffffffffffffffffffffff90911681526020016102b6565b61031f61031a3660046133de565b61064d565b005b61031f61032f36600461340a565b61069c565b61031f610342366004613427565b610707565b61035a610355366004613468565b610745565b6040805173ffffffffffffffffffffffffffffffffffffffff90931683526020830191909152016102b6565b7f00000000000000000000000000000000000000000000000000000000000000006102e7565b61031f6103ba36600461348a565b610768565b6103c761079b565b6040516102b69291906134ba565b61031f6103e33660046133de565b6107ae565b61031f6103f6366004613427565b6107fd565b61031f61040936600461354c565b61082e565b6102aa61041c36600461340a565b7f000000000000000000000000000000000000000000000000000000000000000073ffffffffffffffffffffffffffffffffffffffff90811691161490565b61031f6104693660046133a3565b6108a2565b6102e761047c3660046133a3565b6108bf565b61049461048f36600461340a565b6108d3565b6040519081526020016102b6565b61031f6104b03660046135a1565b6108e7565b61031f6104c336600461367d565b6109dd565b61031f6104d63660046133a3565b610a5f565b6102e7610a7a565b61031f6104f136600461340a565b610aa1565b6102aa61050436600461348a565b610abe565b6102c7610b09565b61031f61051f3660046136d9565b610b13565b6102e7610bb7565b61031f61053a366004613747565b610be1565b6102e7610c10565b61031f610555366004613775565b610c1d565b61031f6105683660046135a1565b610c5a565b6102c761057b3660046133a3565b610f00565b6104947f6d696e746572000000000000000000000000000000000000000000000000000081565b61031f6105b536600461348a565b610f23565b610494620186a081565b6102aa6105d23660046137e8565b610f51565b61031f6105e536600461340a565b610f9f565b61031f6105f8366004613816565b610fba565b61031f61060b3660046136d9565b610ff4565b60006106248261061e6110ab565b906110d9565b92915050565b60606106346111b3565b905090565b6000610624826106476111c5565b906111f3565b73ffffffffffffffffffffffffffffffffffffffff82161561067b5761067b826106756112a7565b906112d5565b6106986106866112df565b83836106906111c5565b9291906112e9565b5050565b6106b56106a76112df565b6106af611564565b90611592565b610704816106c16112a7565b9081547fffffffffffffffffffffffff00000000000000000000000000000000000000001673ffffffffffffffffffffffffffffffffffffffff91909116179055565b50565b60006107116112df565b905061072781856107206112a7565b919061163f565b61073f818585856107366111c5565b9392919061167c565b50505050565b60008061075c848461075561195a565b9190611988565b915091505b9250929050565b60006107726112df565b9050610780816106af611564565b61079683838361078e611a32565b929190611a60565b505050565b3660006107a6611b36565b915091509091565b6107e97f6d696e74657200000000000000000000000000000000000000000000000000006107da6112df565b6107e2611a32565b9190611b41565b61069882826107f66111c5565b9190611bc7565b60006108076112df565b905061081681856107206112a7565b61073f818585856108256111c5565b93929190611ce1565b61085a7f6d696e74657200000000000000000000000000000000000000000000000000006107da6112df565b6107968383838080602002602001604051908101604052809392919081815260200183836020028082843760009201919091525061089b92506111c5915050565b9190611d27565b6108ad6106a76112df565b610704816108b961195a565b90611e9f565b6000610624826108cd6111c5565b90611f25565b6000610624826108e16111c5565b90611f8e565b6108f26106a76112df565b8483811415806109025750808214155b15610939576040517f6582533600000000000000000000000000000000000000000000000000000000815260040160405180910390fd5b60005b818110156109d3576109cb8888838181106109595761095961386f565b905060200201602081019061096e919061340a565b8585848181106109805761098061386f565b905060200201358888858181106109995761099961386f565b90506020020160208101906109ae919061340a565b73ffffffffffffffffffffffffffffffffffffffff16919061200a565b60010161093c565b5050505050505050565b610a097f6d696e74657200000000000000000000000000000000000000000000000000006107da6112df565b61073f610a146112df565b858585858080601f016020809104026020016040519081016040528093929190818152602001838380828437600092019190915250610a5692506111c5915050565b93929190612097565b610704610a6a6112df565b82610a73611a32565b91906120cd565b6000610634610a87611564565b5473ffffffffffffffffffffffffffffffffffffffff1690565b610aac6106a76112df565b61070481610ab861195a565b90612171565b6000610b028383610acd611a32565b60009283526020908152604080842073ffffffffffffffffffffffffffffffffffffffff909316845291905290205460ff1690565b9392505050565b60606106346121be565b610b3f7f6d696e74657200000000000000000000000000000000000000000000000000006107da6112df565b61073f84848080602002602001604051908101604052809392919081815260200183836020028082843760009201919091525050604080516020808802828101820190935287825290935087925086918291850190849080828437600092019190915250610bb092506111c5915050565b91906121d0565b6000610634610bc4612266565b6002015473ffffffffffffffffffffffffffffffffffffffff1690565b8015610bf357610bf3826106756112a7565b610698610bfe6112df565b8383610c086111c5565b929190612294565b6000610634610a876112a7565b6000610c276112df565b9050610c3681876107206112a7565b610c52818787878787610c476111c5565b9594939291906123ac565b505050505050565b610c656106a76112df565b848381141580610c755750808214155b15610cac576040517f6582533600000000000000000000000000000000000000000000000000000000815260040160405180910390fd5b60005b818110156109d3576000868683818110610ccb57610ccb61386f565b9050602002016020810190610ce0919061340a565b6040517f01ffc9a70000000000000000000000000000000000000000000000000000000081527f80ac58cd00000000000000000000000000000000000000000000000000000000600482015290915073ffffffffffffffffffffffffffffffffffffffff8216906301ffc9a790602401602060405180830381865afa158015610d6d573d6000803e3d6000fd5b505050506040513d601f19601f82011682018060405250810190610d91919061389e565b610de4576040517f986b9f1f00000000000000000000000000000000000000000000000000000000815273ffffffffffffffffffffffffffffffffffffffff821660048201526024015b60405180910390fd5b868683818110610df657610df661386f565b9050602002016020810190610e0b919061340a565b73ffffffffffffffffffffffffffffffffffffffff166342842e0e308b8b86818110610e3957610e3961386f565b9050602002016020810190610e4e919061340a565b888887818110610e6057610e6061386f565b6040517fffffffff0000000000000000000000000000000000000000000000000000000060e088901b16815273ffffffffffffffffffffffffffffffffffffffff958616600482015294909316602485015250602090910201356044820152606401600060405180830381600087803b158015610edc57600080fd5b505af1158015610ef0573d6000803e3d6000fd5b5050505050806001019050610caf565b6060610f0e826108cd6111c5565b506106243083610f1c612266565b9190612422565b6000610f2d6112df565b9050610f3b816106af611564565b610796838383610f49611a32565b9291906124e2565b6000610b028383610f606111c5565b919073ffffffffffffffffffffffffffffffffffffffff9182166000908152600393909301602090815260408085209290931684525290205460ff1690565b610704610faa6112df565b82610fb3611564565b91906125ac565b6000610fc46112df565b9050610fd381866107206112a7565b610fed8186868686610fe36111c5565b94939291906126c0565b5050505050565b610fff6106a76112df565b82818114611039576040517f6582533600000000000000000000000000000000000000000000000000000000815260040160405180910390fd5b60005b81811015610c52576110a38484838181106110595761105961386f565b905060200201358787848181106110725761107261386f565b9050602002016020810190611087919061340a565b73ffffffffffffffffffffffffffffffffffffffff16906129c5565b60010161103c565b60008061062460017fca9d3e17f264b0f3984e2634e94adb37fa3e6a8103f06aeae6fa59e21c769f5e6138ea565b60007c01000000000000000000000000000000000000000000000000000000007fffffffff0000000000000000000000000000000000000000000000000000000083160161112957506000610624565b7ffe003659000000000000000000000000000000000000000000000000000000007fffffffff0000000000000000000000000000000000000000000000000000000083160161117a57506001610624565b507fffffffff00000000000000000000000000000000000000000000000000000000166000908152602091909152604090205460ff1690565b60606106346111c0612266565b612a9b565b60008061062460017fddf3ee18ae6d688373c219468f8be446e7ae82215f4779d821c7ea5e8c13c0c16138ea565b60008181526020839052604081205473ffffffffffffffffffffffffffffffffffffffff8116611252576040517fdd56047500000000000000000000000000000000000000000000000000000000815260048101849052602401610ddb565b7401000000000000000000000000000000000000000081161561129d575050600081815260028301602052604090205473ffffffffffffffffffffffffffffffffffffffff16610624565b6000915050610624565b60008061062460017f609b85bcafa81ecfaf3ff62cdde2c6c9082a68dbe4922f07399c706bdeb7cd316138ea565b6106988282612b31565b6000610634612c58565b60008181526020859052604090205473ffffffffffffffffffffffffffffffffffffffff8116611348576040517fdd56047500000000000000000000000000000000000000000000000000000000815260048101839052602401610ddb565b8073ffffffffffffffffffffffffffffffffffffffff808216908516036113b3576040517fb7fdc01000000000000000000000000000000000000000000000000000000000815273ffffffffffffffffffffffffffffffffffffffff82166004820152602401610ddb565b6113be868287612da5565b61141b576040517fc7563a1800000000000000000000000000000000000000000000000000000000815273ffffffffffffffffffffffffffffffffffffffff80871660048301528216602482015260448101849052606401610ddb565b73ffffffffffffffffffffffffffffffffffffffff8416611480577401000000000000000000000000000000000000000082161561147b57600083815260208790526040902073ffffffffffffffffffffffffffffffffffffffff821690555b611501565b7401000000000000000000000000000000000000000082178083146114b15760008481526020889052604090208190555b506000838152600287016020526040902080547fffffffffffffffffffffffff00000000000000000000000000000000000000001673ffffffffffffffffffffffffffffffffffffffff86161790555b828473ffffffffffffffffffffffffffffffffffffffff168273ffffffffffffffffffffffffffffffffffffffff167f8c5be1e5ebec7d5bd14f71427d1e84f3dd0314c0f7b2291e5b200ac8c7c3b92560405160405180910390a4505050505050565b60008061062460017fc9ed16f33ab3a66c84bfd83099ccb2a8845871e2e1c1928f63797152f0fd54cd6138ea565b815473ffffffffffffffffffffffffffffffffffffffff828116911614610698576040517f2ef4875e00000000000000000000000000000000000000000000000000000000815273ffffffffffffffffffffffffffffffffffffffff82166004820152602401610ddb565b81547fffffffffffffffffffffffff00000000000000000000000000000000000000001673ffffffffffffffffffffffffffffffffffffffff91909116179055565b8073ffffffffffffffffffffffffffffffffffffffff168273ffffffffffffffffffffffffffffffffffffffff1614610796576107968383612b31565b73ffffffffffffffffffffffffffffffffffffffff82166116c9576040517f86c8706700000000000000000000000000000000000000000000000000000000815260040160405180910390fd5b60008181526020869052604090205473ffffffffffffffffffffffffffffffffffffffff8116611728576040517fdd56047500000000000000000000000000000000000000000000000000000000815260048101839052602401610ddb565b73ffffffffffffffffffffffffffffffffffffffff84168173ffffffffffffffffffffffffffffffffffffffff16146117ac576040517f14dbb53600000000000000000000000000000000000000000000000000000000815273ffffffffffffffffffffffffffffffffffffffff8516600482015260248101839052604401610ddb565b6117b7868587612da5565b6118665774010000000000000000000000000000000000000000811615806118085750600082815260028701602052604090205473ffffffffffffffffffffffffffffffffffffffff868116911614155b15611866576040517fa4a3018b00000000000000000000000000000000000000000000000000000000815273ffffffffffffffffffffffffffffffffffffffff80871660048301528516602482015260448101839052606401610ddb565b600082815260208790526040902073ffffffffffffffffffffffffffffffffffffffff808516918290558516146118f75773ffffffffffffffffffffffffffffffffffffffff80851660009081526001808901602052604080832080547fffffffffffffffffffffffffffffffffffffffffffffffffffffffffffffffff0190559286168252919020805490910190555b818373ffffffffffffffffffffffffffffffffffffffff168573ffffffffffffffffffffffffffffffffffffffff167fddf252ad1be2c89b69c2b068fc378daa952ba7f163c4a11628f55a4df523b3ef60405160405180910390a4505050505050565b60008061062460017f2c0cf10337caabbd02dcf226f05f5fd19a0919a41a8df8958c39b800078268586138ea565b825473ffffffffffffffffffffffffffffffffffffffff8116906000907401000000000000000000000000000000000000000090046bffffffffffffffffffffffff168315806119d6575080155b156119e45760009150611a29565b620186a0841015611a0e57620186a06119fd82866138fd565b611a079190613914565b9150611a29565b80611a1c620186a086613914565b611a2691906138fd565b91505b50935093915050565b60008061062460017fc8827d3282af6f37b64c3e9e6f3ac9df286ab0bb0fccd6f8661bf19adb368b236138ea565b60008381526020858152604080832073ffffffffffffffffffffffffffffffffffffffff8616845290915290205460ff1661073f5760008381526020858152604080832073ffffffffffffffffffffffffffffffffffffffff8681168086529184529382902080547fffffffffffffffffffffffffffffffffffffffffffffffffffffffffffffff00166001179055815187815292830152918316918101919091527f2f8788117e7eff1d82e926ec794901d17c78024a50270940304540a733656f0d906060015b60405180910390a150505050565b3660006107a6612e1a565b60008281526020848152604080832073ffffffffffffffffffffffffffffffffffffffff8516845290915290205460ff16610796576040517f7aa728820000000000000000000000000000000000000000000000000000000081526004810183905273ffffffffffffffffffffffffffffffffffffffff82166024820152604401610ddb565b73ffffffffffffffffffffffffffffffffffffffff8216611c14576040517f7851b9cd00000000000000000000000000000000000000000000000000000000815260040160405180910390fd5b60008181526020849052604090205473ffffffffffffffffffffffffffffffffffffffff1615611c73576040517f753eceac00000000000000000000000000000000000000000000000000000000815260048101829052602401610ddb565b60008181526020848152604080832073ffffffffffffffffffffffffffffffffffffffff86169081905580845260018088019093528184208054909301909255518392907fddf252ad1be2c89b69c2b068fc378daa952ba7f163c4a11628f55a4df523b3ef908290a4505050565b611cee858585858561167c565b73ffffffffffffffffffffffffffffffffffffffff82163b15610fed57610fed8484848460405180602001604052806000815250612f8a565b73ffffffffffffffffffffffffffffffffffffffff8216611d74576040517f7851b9cd00000000000000000000000000000000000000000000000000000000815260040160405180910390fd5b805160005b81811015611e6a576000838281518110611d9557611d9561386f565b60200260200101519050611dd38660000160008381526020019081526020016000205473ffffffffffffffffffffffffffffffffffffffff16151590565b15611e0d576040517f753eceac00000000000000000000000000000000000000000000000000000000815260048101829052602401610ddb565b60008181526020879052604080822073ffffffffffffffffffffffffffffffffffffffff88169081905590518392907fddf252ad1be2c89b69c2b068fc378daa952ba7f163c4a11628f55a4df523b3ef908290a450600101611d79565b5073ffffffffffffffffffffffffffffffffffffffff9092166000908152600190930160205250604090912080549091019055565b620186a0811115611edf576040517fac04040800000000000000000000000000000000000000000000000000000000815260048101829052602401610ddb565b81546bffffffffffffffffffffffff909116740100000000000000000000000000000000000000000273ffffffffffffffffffffffffffffffffffffffff909116179055565b60008181526020839052604081205473ffffffffffffffffffffffffffffffffffffffff8116611f84576040517fdd56047500000000000000000000000000000000000000000000000000000000815260048101849052602401610ddb565b805b949350505050565b600073ffffffffffffffffffffffffffffffffffffffff8216611fdd576040517faefbce4e00000000000000000000000000000000000000000000000000000000815260040160405180910390fd5b5073ffffffffffffffffffffffffffffffffffffffff166000908152600191909101602052604090205490565b6040805173ffffffffffffffffffffffffffffffffffffffff8416602482015260448082018490528251808303909101815260649091019091526020810180517bffffffffffffffffffffffffffffffffffffffffffffffffffffffff167fa9059cbb0000000000000000000000000000000000000000000000000000000017905261079690849061309f565b6120a2858484611bc7565b73ffffffffffffffffffffffffffffffffffffffff83163b15610fed57610fed846000858585612f8a565b6120d8838284611b41565b60008181526020848152604080832073ffffffffffffffffffffffffffffffffffffffff86168085529083529281902080547fffffffffffffffffffffffffffffffffffffffffffffffffffffffffffffff0016905580518481529182018390528101919091527ff6391f5c32d9c69d2a47ea670b442974b53935d1edc7fd64eb21e047a839171b9060600160405180910390a1505050565b73ffffffffffffffffffffffffffffffffffffffff81166115fd576040517f16de0c8000000000000000000000000000000000000000000000000000000000815260040160405180910390fd5b60606106346121cb612266565b613135565b81518151811461220c576040517f6582533600000000000000000000000000000000000000000000000000000000815260040160405180910390fd5b60005b81811015610fed5761225e84828151811061222c5761222c61386f565b60200260200101518483815181106122465761224661386f565b602002602001015187611bc79092919063ffffffff16565b60010161220f565b60008061062460017f7ea68fd2dcf1c056b94db6a0a537aa80d26fa9ab1eacd85da1ba0b61b7e7a8a56138ea565b8273ffffffffffffffffffffffffffffffffffffffff168273ffffffffffffffffffffffffffffffffffffffff1603612311576040517fe4215c6a00000000000000000000000000000000000000000000000000000000815273ffffffffffffffffffffffffffffffffffffffff84166004820152602401610ddb565b73ffffffffffffffffffffffffffffffffffffffff838116600081815260038701602090815260408083209487168084529482529182902080547fffffffffffffffffffffffffffffffffffffffffffffffffffffffffffffff001686151590811790915591519182527f17307eab39ab6107e8899845ad3d59bd9653f200f220920489ca2b5937696c31910160405180910390a350505050565b6123b9878787878761167c565b73ffffffffffffffffffffffffffffffffffffffff84163b15612419576124198686868686868080601f016020809104026020016040519081016040528093929190818152602001838380828437600092019190915250612f8a92505050565b50505050505050565b60028301546040517ff724dad700000000000000000000000000000000000000000000000000000000815273ffffffffffffffffffffffffffffffffffffffff848116600483015260248201849052606092169063f724dad790604401600060405180830381865afa15801561249c573d6000803e3d6000fd5b505050506040513d6000823e601f3d9081017fffffffffffffffffffffffffffffffffffffffffffffffffffffffffffffffe0168201604052611f86919081019061397e565b60008381526020858152604080832073ffffffffffffffffffffffffffffffffffffffff8616845290915290205460ff161561073f5760008381526020858152604080832073ffffffffffffffffffffffffffffffffffffffff8681168086529184529382902080547fffffffffffffffffffffffffffffffffffffffffffffffffffffffffffffff00169055815187815292830152918316918101919091527ff6391f5c32d9c69d2a47ea670b442974b53935d1edc7fd64eb21e047a839171b90606001611b28565b825473ffffffffffffffffffffffffffffffffffffffff9081169083168114612619576040517f2ef4875e00000000000000000000000000000000000000000000000000000000815273ffffffffffffffffffffffffffffffffffffffff84166004820152602401610ddb565b8173ffffffffffffffffffffffffffffffffffffffff168173ffffffffffffffffffffffffffffffffffffffff161461073f5783547fffffffffffffffffffffffff00000000000000000000000000000000000000001673ffffffffffffffffffffffffffffffffffffffff8381169182178655604051908316907f8be0079c531659141344cd1fd0a4f28419497f9722a3daafe3b4186f6b6457e090600090a350505050565b73ffffffffffffffffffffffffffffffffffffffff831661270d576040517f86c8706700000000000000000000000000000000000000000000000000000000815260040160405180910390fd5b600061271a878688612da5565b90508160005b8181101561293e57600085858381811061273c5761273c61386f565b602090810292909201356000818152928d90526040909220549192505073ffffffffffffffffffffffffffffffffffffffff81166127a9576040517fdd56047500000000000000000000000000000000000000000000000000000000815260048101839052602401610ddb565b73ffffffffffffffffffffffffffffffffffffffff89168173ffffffffffffffffffffffffffffffffffffffff161461282d576040517f14dbb53600000000000000000000000000000000000000000000000000000000815273ffffffffffffffffffffffffffffffffffffffff8a16600482015260248101839052604401610ddb565b846128dd57740100000000000000000000000000000000000000008116158061287f5750600082815260028c01602052604090205473ffffffffffffffffffffffffffffffffffffffff8b8116911614155b156128dd576040517fa4a3018b00000000000000000000000000000000000000000000000000000000815273ffffffffffffffffffffffffffffffffffffffff808c1660048301528a16602482015260448101839052606401610ddb565b600082815260208c9052604080822073ffffffffffffffffffffffffffffffffffffffff808c16918290559151859391928d16917fddf252ad1be2c89b69c2b068fc378daa952ba7f163c4a11628f55a4df523b3ef91a45050600101612720565b508473ffffffffffffffffffffffffffffffffffffffff168673ffffffffffffffffffffffffffffffffffffffff161415801561297a57508015155b156109d35773ffffffffffffffffffffffffffffffffffffffff808716600090815260018a016020526040808220805485900390559187168152208054820190555050505050505050565b80471015612a01576040517fcd786059000000000000000000000000000000000000000000000000000000008152306004820152602401610ddb565b60008273ffffffffffffffffffffffffffffffffffffffff168260405160006040518083038185875af1925050503d8060008114612a5b576040519150601f19603f3d011682016040523d82523d6000602084013e612a60565b606091505b5050905080610796576040517f1425ea4200000000000000000000000000000000000000000000000000000000815260040160405180910390fd5b6060816000018054612aac90613a49565b80601f0160208091040260200160405190810160405280929190818152602001828054612ad890613a49565b8015612b255780601f10612afa57610100808354040283529160200191612b25565b820191906000526020600020905b815481529060010190602001808311612b0857829003601f168201915b50505050509050919050565b815473ffffffffffffffffffffffffffffffffffffffff168015801590612b6f575060008173ffffffffffffffffffffffffffffffffffffffff163b115b15610796576040517fc617113400000000000000000000000000000000000000000000000000000000815230600482015273ffffffffffffffffffffffffffffffffffffffff838116602483015282169063c617113490604401602060405180830381865afa158015612be6573d6000803e3d6000fd5b505050506040513d601f19601f82011682018060405250810190612c0a919061389e565b610796576040517fede71dcc00000000000000000000000000000000000000000000000000000000815273ffffffffffffffffffffffffffffffffffffffff83166004820152602401610ddb565b600033321480612c685750601836105b15612c7257503390565b7fffffffffffffffffffffffffffffffffffffffffffffffffffffffffffffffec36013560601c7f000000000000000000000000000000000000000000000000000000000000000073ffffffffffffffffffffffffffffffffffffffff16331480612d9457506040517f019a202800000000000000000000000000000000000000000000000000000000815273ffffffffffffffffffffffffffffffffffffffff82811660048301523360248301523060448301527f0000000000000000000000000000000000000000000000000000000000000000169063019a202890606401602060405180830381865afa158015612d70573d6000803e3d6000fd5b505050506040513d601f19601f82011682018060405250810190612d94919061389e565b15612d9e57919050565b3391505090565b60008173ffffffffffffffffffffffffffffffffffffffff168373ffffffffffffffffffffffffffffffffffffffff161480611f8657505073ffffffffffffffffffffffffffffffffffffffff9182166000908152600393909301602090815260408085209290931684525290205460ff1690565b36600033321480612e2b5750601836105b15612e395750600091369150565b3373ffffffffffffffffffffffffffffffffffffffff7f0000000000000000000000000000000000000000000000000000000000000000161480612f74575073ffffffffffffffffffffffffffffffffffffffff7f00000000000000000000000000000000000000000000000000000000000000001663019a2028367fffffffffffffffffffffffffffffffffffffffffffffffffffffffffffffffec013560601c6040517fffffffff0000000000000000000000000000000000000000000000000000000060e084901b16815273ffffffffffffffffffffffffffffffffffffffff9091166004820152336024820152306044820152606401602060405180830381865afa158015612f50573d6000803e3d6000fd5b505050506040513d601f19601f82011682018060405250810190612f74919061389e565b15612f81576107a6613146565b50600091369150565b6040517f150b7a02000000000000000000000000000000000000000000000000000000008082529073ffffffffffffffffffffffffffffffffffffffff85169063150b7a0290612fe4908990899088908890600401613a9c565b6020604051808303816000875af1158015613003573d6000803e3d6000fd5b505050506040513d601f19601f820116820180604052508101906130279190613adb565b7fffffffff000000000000000000000000000000000000000000000000000000001614610fed576040517fc215a7a100000000000000000000000000000000000000000000000000000000815273ffffffffffffffffffffffffffffffffffffffff8416600482015260248101839052604401610ddb565b60006130c173ffffffffffffffffffffffffffffffffffffffff841683613177565b905080516000141580156130e65750808060200190518101906130e4919061389e565b155b15610796576040517f5274afe700000000000000000000000000000000000000000000000000000000815273ffffffffffffffffffffffffffffffffffffffff84166004820152602401610ddb565b6060816001018054612aac90613a49565b3660006107a67fffffffffffffffffffffffffffffffffffffffffffffffffffffffffffffffec8301828481613af8565b6060610b0283836000846000808573ffffffffffffffffffffffffffffffffffffffff1684866040516131aa9190613b22565b60006040518083038185875af1925050503d80600081146131e7576040519150601f19603f3d011682016040523d82523d6000602084013e6131ec565b606091505b50915091506131fc868383613206565b9695505050505050565b60608261321b5761321682613295565b610b02565b815115801561323f575073ffffffffffffffffffffffffffffffffffffffff84163b155b1561328e576040517f9996b31500000000000000000000000000000000000000000000000000000000815273ffffffffffffffffffffffffffffffffffffffff85166004820152602401610ddb565b5080610b02565b8051156132a55780518082602001fd5b6040517f1425ea4200000000000000000000000000000000000000000000000000000000815260040160405180910390fd5b7fffffffff000000000000000000000000000000000000000000000000000000008116811461070457600080fd5b60006020828403121561331757600080fd5b8135610b02816132d7565b60005b8381101561333d578181015183820152602001613325565b50506000910152565b6000815180845261335e816020860160208601613322565b601f017fffffffffffffffffffffffffffffffffffffffffffffffffffffffffffffffe0169290920160200192915050565b602081526000610b026020830184613346565b6000602082840312156133b557600080fd5b5035919050565b73ffffffffffffffffffffffffffffffffffffffff8116811461070457600080fd5b600080604083850312156133f157600080fd5b82356133fc816133bc565b946020939093013593505050565b60006020828403121561341c57600080fd5b8135610b02816133bc565b60008060006060848603121561343c57600080fd5b8335613447816133bc565b92506020840135613457816133bc565b929592945050506040919091013590565b6000806040838503121561347b57600080fd5b50508035926020909101359150565b6000806040838503121561349d57600080fd5b8235915060208301356134af816133bc565b809150509250929050565b60208152816020820152818360408301376000818301604090810191909152601f9092017fffffffffffffffffffffffffffffffffffffffffffffffffffffffffffffffe0160101919050565b60008083601f84011261351957600080fd5b50813567ffffffffffffffff81111561353157600080fd5b6020830191508360208260051b850101111561076157600080fd5b60008060006040848603121561356157600080fd5b833561356c816133bc565b9250602084013567ffffffffffffffff81111561358857600080fd5b61359486828701613507565b9497909650939450505050565b600080600080600080606087890312156135ba57600080fd5b863567ffffffffffffffff808211156135d257600080fd5b6135de8a838b01613507565b909850965060208901359150808211156135f757600080fd5b6136038a838b01613507565b9096509450604089013591508082111561361c57600080fd5b5061362989828a01613507565b979a9699509497509295939492505050565b60008083601f84011261364d57600080fd5b50813567ffffffffffffffff81111561366557600080fd5b60208301915083602082850101111561076157600080fd5b6000806000806060858703121561369357600080fd5b843561369e816133bc565b935060208501359250604085013567ffffffffffffffff8111156136c157600080fd5b6136cd8782880161363b565b95989497509550505050565b600080600080604085870312156136ef57600080fd5b843567ffffffffffffffff8082111561370757600080fd5b61371388838901613507565b9096509450602087013591508082111561372c57600080fd5b506136cd87828801613507565b801515811461070457600080fd5b6000806040838503121561375a57600080fd5b8235613765816133bc565b915060208301356134af81613739565b60008060008060006080868803121561378d57600080fd5b8535613798816133bc565b945060208601356137a8816133bc565b935060408601359250606086013567ffffffffffffffff8111156137cb57600080fd5b6137d78882890161363b565b969995985093965092949392505050565b600080604083850312156137fb57600080fd5b8235613806816133bc565b915060208301356134af816133bc565b6000806000806060858703121561382c57600080fd5b8435613837816133bc565b93506020850135613847816133bc565b9250604085013567ffffffffffffffff81111561386357600080fd5b6136cd87828801613507565b7f4e487b7100000000000000000000000000000000000000000000000000000000600052603260045260246000fd5b6000602082840312156138b057600080fd5b8151610b0281613739565b7f4e487b7100000000000000000000000000000000000000000000000000000000600052601160045260246000fd5b81810381811115610624576106246138bb565b8082028115828204841417610624576106246138bb565b60008261394a577f4e487b7100000000000000000000000000000000000000000000000000000000600052601260045260246000fd5b500490565b7f4e487b7100000000000000000000000000000000000000000000000000000000600052604160045260246000fd5b60006020828403121561399057600080fd5b815167ffffffffffffffff808211156139a857600080fd5b818401915084601f8301126139bc57600080fd5b8151818111156139ce576139ce61394f565b604051601f82017fffffffffffffffffffffffffffffffffffffffffffffffffffffffffffffffe0908116603f01168101908382118183101715613a1457613a1461394f565b81604052828152876020848701011115613a2d57600080fd5b613a3e836020830160208801613322565b979650505050505050565b600181811c90821680613a5d57607f821691505b602082108103613a96577f4e487b7100000000000000000000000000000000000000000000000000000000600052602260045260246000fd5b50919050565b600073ffffffffffffffffffffffffffffffffffffffff8087168352808616602084015250836040830152608060608301526131fc6080830184613346565b600060208284031215613aed57600080fd5b8151610b02816132d7565b60008085851115613b0857600080fd5b83861115613b1557600080fd5b5050820193919092039150565b60008251613b34818460208701613322565b919091019291505056fea26469706673582212202f2a0075e1da05790910790139a9dae1daa903cd2b05e231533971ce4efd1d9864736f6c63430008190033",
  "linkReferences": {},
  "deployedLinkReferences": {}
}