{
  "_format": "hh-sol-artifact-1",
  "contractName": "UInt256ToDecimalStringMock",
  "sourceName": "contracts/mocks/utils/types/UInt256ToDecimalStringMock.sol",
  "abi": [
    {
      "inputs": [
        {
          "internalType": "uint256",
          "name": "value",
          "type": "uint256"
        }
      ],
      "name": "toDecimalString",
      "outputs": [
        {
          "internalType": "string",
          "name": "result",
          "type": "string"
        }
      ],
      "stateMutability": "pure",
      "type": "function"
    }
  ],
  "bytecode": "0x608060405234801561001057600080fd5b50610377806100206000396000f3fe608060405234801561001057600080fd5b506004361061002b5760003560e01c8063e4eca9d614610030575b600080fd5b61004361003e36600461019e565b610059565b60405161005091906101b7565b60405180910390f35b60606100648261006a565b92915050565b6060816000036100ad57505060408051808201909152600181527f3000000000000000000000000000000000000000000000000000000000000000602082015290565b8160005b81156100d757806100c181610259565b91506100d09050600a83610291565b91506100b1565b60008167ffffffffffffffff8111156100f2576100f26102cc565b6040519080825280601f01601f19166020018201604052801561011c576020820181803683370190505b509050600061012c6001846102fb565b90508593505b831561019557600a840660300160f81b8282806001900393508151811061015b5761015b610312565b60200101907effffffffffffffffffffffffffffffffffffffffffffffffffffffffffffff1916908160001a905350600a84049350610132565b50949350505050565b6000602082840312156101b057600080fd5b5035919050565b600060208083528351808285015260005b818110156101e4578581018301518582016040015282016101c8565b818111156101f6576000604083870101525b50601f017fffffffffffffffffffffffffffffffffffffffffffffffffffffffffffffffe016929092016040019392505050565b7f4e487b7100000000000000000000000000000000000000000000000000000000600052601160045260246000fd5b60007fffffffffffffffffffffffffffffffffffffffffffffffffffffffffffffffff820361028a5761028a61022a565b5060010190565b6000826102c7577f4e487b7100000000000000000000000000000000000000000000000000000000600052601260045260246000fd5b500490565b7f4e487b7100000000000000000000000000000000000000000000000000000000600052604160045260246000fd5b60008282101561030d5761030d61022a565b500390565b7f4e487b7100000000000000000000000000000000000000000000000000000000600052603260045260246000fdfea26469706673582212206a321ff78e768327a9366921917bb86226ef43a4de079b516745b878e383f49b64736f6c634300080e0033",
  "linkReferences": {},
  "deployedLinkReferences": {}
}