{
  "_format": "hh-sol-artifact-1",
  "contractName": "ERC20BurnableFacetMock",
  "sourceName": "contracts/mocks/token/ERC20/ERC20BurnableFacetMock.sol",
  "abi": [
    {
      "inputs": [
        {
          "internalType": "contract IForwarderRegistry",
          "name": "forwarderRegistry",
          "type": "address"
        }
      ],
      "stateMutability": "nonpayable",
      "type": "constructor"
    },
    {
      "inputs": [],
      "name": "__msgData",
      "outputs": [
        {
          "internalType": "bytes",
          "name": "",
          "type": "bytes"
        }
      ],
      "stateMutability": "view",
      "type": "function"
    },
    {
      "inputs": [
        {
          "internalType": "address[]",
          "name": "owners",
          "type": "address[]"
        },
        {
          "internalType": "uint256[]",
          "name": "values",
          "type": "uint256[]"
        }
      ],
      "name": "batchBurnFrom",
      "outputs": [
        {
          "internalType": "bool",
          "name": "",
          "type": "bool"
        }
      ],
      "stateMutability": "nonpayable",
      "type": "function"
    },
    {
      "inputs": [
        {
          "internalType": "uint256",
          "name": "value",
          "type": "uint256"
        }
      ],
      "name": "burn",
      "outputs": [
        {
          "internalType": "bool",
          "name": "",
          "type": "bool"
        }
      ],
      "stateMutability": "nonpayable",
      "type": "function"
    },
    {
      "inputs": [
        {
          "internalType": "address",
          "name": "from",
          "type": "address"
        },
        {
          "internalType": "uint256",
          "name": "value",
          "type": "uint256"
        }
      ],
      "name": "burnFrom",
      "outputs": [
        {
          "internalType": "bool",
          "name": "",
          "type": "bool"
        }
      ],
      "stateMutability": "nonpayable",
      "type": "function"
    },
    {
      "inputs": [],
      "name": "initERC20BurnableStorage",
      "outputs": [],
      "stateMutability": "nonpayable",
      "type": "function"
    }
  ],
  "bytecode": "0x60a060405234801561001057600080fd5b506040516110c83803806110c883398101604081905261002f91610040565b6001600160a01b0316608052610070565b60006020828403121561005257600080fd5b81516001600160a01b038116811461006957600080fd5b9392505050565b6080516110286100a0600039600081816107b40152818161085401528181610ae20152610b4c01526110286000f3fe608060405234801561001057600080fd5b50600436106100675760003560e01c806342966c681161005057806342966c68146100aa578063751ec2d3146100bd57806379cc6790146100c757600080fd5b80631b9a75291461006c57806331e66e1e14610094575b600080fd5b61007f61007a366004610da2565b6100da565b60405190151581526020015b60405180910390f35b61009c610102565b60405161008b929190610e62565b61007f6100b8366004610eaf565b610115565b6100c561013a565b005b61007f6100d5366004610ec8565b61018a565b60006100f96100e76101a9565b84846100f16101b8565b9291906101ec565b50600192915050565b36600061010d610432565b915091509091565b60006101326101226101a9565b8361012b6101b8565b919061043d565b506001919050565b6101536101456101a9565b61014d61055b565b90610589565b6101887f20c07ed1000000000000000000000000000000000000000000000000000000006001610181610610565b919061063e565b565b60006100f96101976101a9565b84846101a16101b8565b92919061072e565b60006101b3610778565b905090565b6000806101e660017f9b108a3a4d1bf9fcaf11faf730c194adcf4de5409616cf7026e57018b2743c26610f21565b92915050565b81518151811461025d576040517f08c379a000000000000000000000000000000000000000000000000000000000815260206004820152601a60248201527f45524332303a20696e636f6e73697374656e742061727261797300000000000060448201526064015b60405180910390fd5b8060000361026b575061042c565b6000805b82811461041657600085828151811061028a5761028a610f38565b6020026020010151905060008583815181106102a8576102a8610f38565b602002602001015190508773ffffffffffffffffffffffffffffffffffffffff168273ffffffffffffffffffffffffffffffffffffffff16146102f1576102f189838a846108d0565b80156103b55773ffffffffffffffffffffffffffffffffffffffff8216600090815260208a90526040902054818103818110610389576040517f08c379a000000000000000000000000000000000000000000000000000000000815260206004820152601b60248201527f45524332303a20696e73756666696369656e742062616c616e636500000000006044820152606401610254565b73ffffffffffffffffffffffffffffffffffffffff8416600090815260208c9052604090205550928301925b60405181815260009073ffffffffffffffffffffffffffffffffffffffff8416907fddf252ad1be2c89b69c2b068fc378daa952ba7f163c4a11628f55a4df523b3ef9060200160405180910390a350508061040f90610f67565b905061026f565b5080156104295760028601805482900390555b50505b50505050565b36600061010d610aca565b80156105085773ffffffffffffffffffffffffffffffffffffffff82166000908152602084905260409020548181038181106104d5576040517f08c379a000000000000000000000000000000000000000000000000000000000815260206004820152601b60248201527f45524332303a20696e73756666696369656e742062616c616e636500000000006044820152606401610254565b73ffffffffffffffffffffffffffffffffffffffff84166000908152602086905260409020555060028301805482900390555b60405181815260009073ffffffffffffffffffffffffffffffffffffffff8416907fddf252ad1be2c89b69c2b068fc378daa952ba7f163c4a11628f55a4df523b3ef9060200160405180910390a3505050565b6000806101e660017fb53127684a568b3173ae13b9f8a6016e243e63b6e8ee1178d6a717850b5d6104610f21565b815473ffffffffffffffffffffffffffffffffffffffff82811691161461060c576040517f08c379a000000000000000000000000000000000000000000000000000000000815260206004820152601960248201527f50726f787941646d696e3a206e6f74207468652061646d696e000000000000006044820152606401610254565b5050565b6000806101e660017f7180ffa89c91cf90d6c56dacabfc69bc5e36f3099d7eed2f5cc12c5dba016fe0610f21565b7fffffffff0000000000000000000000000000000000000000000000000000000080831690036106ca576040517f08c379a000000000000000000000000000000000000000000000000000000000815260206004820152601f60248201527f496e74657266616365446574656374696f6e3a2077726f6e672076616c7565006044820152606401610254565b7fffffffff00000000000000000000000000000000000000000000000000000000919091166000908152602092909252604090912080547fffffffffffffffffffffffffffffffffffffffffffffffffffffffffffffff0016911515919091179055565b8273ffffffffffffffffffffffffffffffffffffffff168273ffffffffffffffffffffffffffffffffffffffff161461076d5761076d848385846108d0565b61042c84838361043d565b60003332810361078757919050565b6000367fffffffffffffffffffffffffffffffffffffffffffffffffffffffffffffffec013560601c90507f000000000000000000000000000000000000000000000000000000000000000073ffffffffffffffffffffffffffffffffffffffff168273ffffffffffffffffffffffffffffffffffffffff1614806108bf57506040517fe60125d600000000000000000000000000000000000000000000000000000000815273ffffffffffffffffffffffffffffffffffffffff828116600483015283811660248301527f0000000000000000000000000000000000000000000000000000000000000000169063e60125d690604401602060405180830381865afa15801561089b573d6000803e3d6000fd5b505050506040513d601f19601f820116820180604052508101906108bf9190610f9f565b156108ca5792915050565b50919050565b73ffffffffffffffffffffffffffffffffffffffff821661094d576040517f08c379a000000000000000000000000000000000000000000000000000000000815260206004820152601b60248201527f45524332303a207a65726f2061646472657373207370656e64657200000000006044820152606401610254565b73ffffffffffffffffffffffffffffffffffffffff80841660009081526001860160209081526040808320938616835292905220547fffffffffffffffffffffffffffffffffffffffffffffffffffffffffffffffff81148015906109b157508115155b15610a5c57818103818110610a22576040517f08c379a000000000000000000000000000000000000000000000000000000000815260206004820152601d60248201527f45524332303a20696e73756666696369656e7420616c6c6f77616e63650000006044820152606401610254565b73ffffffffffffffffffffffffffffffffffffffff8086166000908152600188016020908152604080832093881683529290522081905590505b8273ffffffffffffffffffffffffffffffffffffffff168473ffffffffffffffffffffffffffffffffffffffff167f8c5be1e5ebec7d5bd14f71427d1e84f3dd0314c0f7b2291e5b200ac8c7c3b92583604051610abb91815260200190565b60405180910390a35050505050565b36600033328103610ae057506000923692509050565b7f000000000000000000000000000000000000000000000000000000000000000073ffffffffffffffffffffffffffffffffffffffff168173ffffffffffffffffffffffffffffffffffffffff161480610c2d575073ffffffffffffffffffffffffffffffffffffffff7f00000000000000000000000000000000000000000000000000000000000000001663e60125d6367fffffffffffffffffffffffffffffffffffffffffffffffffffffffffffffffec013560601c6040517fffffffff0000000000000000000000000000000000000000000000000000000060e084901b16815273ffffffffffffffffffffffffffffffffffffffff91821660048201529084166024820152604401602060405180830381865afa158015610c09573d6000803e3d6000fd5b505050506040513d601f19601f82011682018060405250810190610c2d9190610f9f565b15610c4357610c3a610c4e565b92509250509091565b506000923692509050565b366000808083610c5f601482610f21565b9261010d93929190610fc8565b7f4e487b7100000000000000000000000000000000000000000000000000000000600052604160045260246000fd5b604051601f82017fffffffffffffffffffffffffffffffffffffffffffffffffffffffffffffffe016810167ffffffffffffffff81118282101715610ce257610ce2610c6c565b604052919050565b600067ffffffffffffffff821115610d0457610d04610c6c565b5060051b60200190565b803573ffffffffffffffffffffffffffffffffffffffff81168114610d3257600080fd5b919050565b600082601f830112610d4857600080fd5b81356020610d5d610d5883610cea565b610c9b565b82815260059290921b84018101918181019086841115610d7c57600080fd5b8286015b84811015610d975780358352918301918301610d80565b509695505050505050565b60008060408385031215610db557600080fd5b823567ffffffffffffffff80821115610dcd57600080fd5b818501915085601f830112610de157600080fd5b81356020610df1610d5883610cea565b82815260059290921b84018101918181019089841115610e1057600080fd5b948201945b83861015610e3557610e2686610d0e565b82529482019490820190610e15565b96505086013592505080821115610e4b57600080fd5b50610e5885828601610d37565b9150509250929050565b60208152816020820152818360408301376000818301604090810191909152601f9092017fffffffffffffffffffffffffffffffffffffffffffffffffffffffffffffffe0160101919050565b600060208284031215610ec157600080fd5b5035919050565b60008060408385031215610edb57600080fd5b610ee483610d0e565b946020939093013593505050565b7f4e487b7100000000000000000000000000000000000000000000000000000000600052601160045260246000fd5b600082821015610f3357610f33610ef2565b500390565b7f4e487b7100000000000000000000000000000000000000000000000000000000600052603260045260246000fd5b60007fffffffffffffffffffffffffffffffffffffffffffffffffffffffffffffffff8203610f9857610f98610ef2565b5060010190565b600060208284031215610fb157600080fd5b81518015158114610fc157600080fd5b9392505050565b60008085851115610fd857600080fd5b83861115610fe557600080fd5b505082019391909203915056fea2646970667358221220377728ee476758abda683bebea8a931f1973fc2a7bb91f7baa4c3fafb5a78d6d64736f6c634300080d0033",
  "linkReferences": {},
  "deployedLinkReferences": {}
}