{
  "_format": "hh-sol-artifact-1",
  "contractName": "ERC20BurnableFacetMock",
  "sourceName": "contracts/mocks/token/ERC20/ERC20BurnableFacetMock.sol",
  "abi": [
    {
      "inputs": [
        {
          "internalType": "contract IForwarderRegistry",
          "name": "forwarderRegistry",
          "type": "address"
        }
      ],
      "stateMutability": "nonpayable",
      "type": "constructor"
    },
    {
      "inputs": [],
      "name": "__msgData",
      "outputs": [
        {
          "internalType": "bytes",
          "name": "",
          "type": "bytes"
        }
      ],
      "stateMutability": "view",
      "type": "function"
    },
    {
      "inputs": [
        {
          "internalType": "address[]",
          "name": "owners",
          "type": "address[]"
        },
        {
          "internalType": "uint256[]",
          "name": "values",
          "type": "uint256[]"
        }
      ],
      "name": "batchBurnFrom",
      "outputs": [
        {
          "internalType": "bool",
          "name": "",
          "type": "bool"
        }
      ],
      "stateMutability": "nonpayable",
      "type": "function"
    },
    {
      "inputs": [
        {
          "internalType": "uint256",
          "name": "value",
          "type": "uint256"
        }
      ],
      "name": "burn",
      "outputs": [
        {
          "internalType": "bool",
          "name": "",
          "type": "bool"
        }
      ],
      "stateMutability": "nonpayable",
      "type": "function"
    },
    {
      "inputs": [
        {
          "internalType": "address",
          "name": "from",
          "type": "address"
        },
        {
          "internalType": "uint256",
          "name": "value",
          "type": "uint256"
        }
      ],
      "name": "burnFrom",
      "outputs": [
        {
          "internalType": "bool",
          "name": "",
          "type": "bool"
        }
      ],
      "stateMutability": "nonpayable",
      "type": "function"
    },
    {
      "inputs": [],
      "name": "initERC20BurnableStorage",
      "outputs": [],
      "stateMutability": "nonpayable",
      "type": "function"
    }
  ],
  "bytecode": "0x60a06040523480156200001157600080fd5b506040516200365238038062003652833981810160405281019062000037919062000201565b80806200006d7f6a83522c126b1f14401cda64886fc651a7060f385b5e2d289e620e1859fee4e760001b6200017a60201b60201c565b620000a17ff6fd3c5688ac3ada9425e55f9cce326a85fd64fca9b1584401f3d2203aee560b60001b6200017a60201b60201c565b620000d57fe7883c748f395270b53c914004a2b83ffb6acf3836fed33ec0a3c0eb061e618860001b6200017a60201b60201c565b8073ffffffffffffffffffffffffffffffffffffffff1660808173ffffffffffffffffffffffffffffffffffffffff1681525050506200013e7f445fbd80975f6b51356902c6771ea9da2111c82200c685db49a39b184dbcc3d760001b6200017d60201b60201c565b50620001737fff3699f2aa33b30cd6aa76804132309b720ff7250852929c51002cbf934bc79160001b6200018060201b60201c565b5062000233565b50565b50565b50565b600080fd5b600073ffffffffffffffffffffffffffffffffffffffff82169050919050565b6000620001b58262000188565b9050919050565b6000620001c982620001a8565b9050919050565b620001db81620001bc565b8114620001e757600080fd5b50565b600081519050620001fb81620001d0565b92915050565b6000602082840312156200021a576200021962000183565b5b60006200022a84828501620001ea565b91505092915050565b6080516133ee6200026460003960008181611e9901528181611eee015281816127ac015261280101526133ee6000f3fe608060405234801561001057600080fd5b50600436106100675760003560e01c806342966c681161005057806342966c68146100bb578063751ec2d3146100eb57806379cc6790146100f557610067565b80631b9a75291461006c57806331e66e1e1461009c575b600080fd5b61008660048036038101906100819190612db9565b610125565b6040516100939190612e4c565b60405180910390f35b6100a4610232565b6040516100b2929190612eb4565b60405180910390f35b6100d560048036038101906100d09190612ed8565b6102c9565b6040516100e29190612e4c565b60405180910390f35b6100f36103d3565b005b61010f600480360381019061010a9190612f05565b61050f565b60405161011c9190612e4c565b60405180910390f35b60006101537f0d8d35f92207975f615d36fda02007482ffe5c3bd6d70d08fc41020c691046c760001b61061c565b61017f7f956dfcf262a56206a52bacb07704d3afe7f5e861082810075e634a8d581947b760001b61061c565b6101ab7faba07ea786feb38ea5ee1590460f8a3054a78de4fa61136966ed278a9880001d60001b61061c565b6101d06101b661061f565b84846101c06106b2565b6107a2909392919063ffffffff16565b6101fc7fcda6797f383d521e70aa48bdc7687dc27eb81329007b773d0d433632b5108de460001b61061c565b6102287f0f59e3e6c9043f79d017060a89be9738d6ccfa46c4a5c5bc905d52fa52f4a39b60001b61061c565b6001905092915050565b3660006102617fef2bb54f689619b0a4453afd61e064b9ad152b4f5fcca964933aaad9e20f547060001b611100565b61028d7f95ab2fe49416ff427e141bdbaa4841750c549ec11c7b26b74cb3a5fdb8ef1d5d60001b611100565b6102b97fc1b18b370a6598bcbc85afa6999bfa3fc49ec4250423d336a20354dfb0d31c2a60001b611100565b6102c1611103565b915091509091565b60006102f77f5e5ac9241df72dcb2f849ba5be07d120f4f393adc531f8673094f24fbabb0f1a60001b61061c565b6103237f07265bbc6cf75423917cd5345d8123c038b21681760d10976347bf3c17a4e2ab60001b61061c565b61034f7f6535cdf1a06a39b9f0a2d1e3d761b3557aa60e948701407e427b8fe7bfe5b37c60001b61061c565b61037261035a61061f565b836103636106b2565b61119a9092919063ffffffff16565b61039e7f1a1d60b91fc6c38741103d8c156553296e04c66a8e40791b1f2a38e3ebcd4aaa60001b61061c565b6103ca7f370f15bf24f15440001db57c5b14b6e06fbbf49fe88e156f868e31646ec7297d60001b61061c565b60019050919050565b6103ff7f051441e8f14216ac24b397e69ea2957391b031a9f36f741e8b602d827c08b7a760001b6114b4565b61042b7f901682d34131b5106115dc5b749d9bd539598973202125db6497a0cd360dff9c60001b6114b4565b6104577f54d4048caf1254a59ca735e63356b0a601b2cca6869d41a9e5a25fa08f42789b60001b6114b4565b61047861046261061f565b61046a6114b7565b6115a790919063ffffffff16565b6104a47f861e82acd764f3ee9c95e4ff16f25d9958ea39fb077462b8bdd9fc8a8d877b6760001b6114b4565b6104d07f49c91ee1422fa0611d35ff7d11c0454ccdc18454444b530b0cc4fc235b43e3f960001b6114b4565b61050d7f20c07ed10000000000000000000000000000000000000000000000000000000060016104fe611719565b6118099092919063ffffffff16565b565b600061053d7f420ff4609b5c3ed694b2ece6f16846deeb28db41cc064a5c89448acaa684885760001b61061c565b6105697f7becc7b939be015d90609246e6561fefedfa41b243a8981f68f3e5688a6a50cf60001b61061c565b6105957fac0b503faf79c349ab17fc2b104a930835fd15ca5cbd243986719ce0811febba60001b61061c565b6105ba6105a061061f565b84846105aa6106b2565b611a15909392919063ffffffff16565b6105e67f9e933673df0fcf213607e382f298ccdc53300440a3160c5ee2789aa0d4480da060001b61061c565b6106127fa0868e926e822936fd87ef99ce3d0cc8c146a7122ef5125913d5a43cf79fdd7960001b61061c565b6001905092915050565b50565b600061064d7f62fa8626651cfc4862b88cecbeab9629c5135c352ea99417f3cb8a10677a85aa60001b6114b4565b6106797fc806d445aef2cdf25dc9d1d950055a434099e8b8f3863af2d4ce0d8ad7ba21fe60001b6114b4565b6106a57fcd6dc5d82e4710816418768b09d0da1f8ca8ed9cc6595224cfa9d1d568c727b760001b6114b4565b6106ad611c0c565b905090565b60006106e07f51a9cf70038f30e7c9e892b8da145f23a1ffb6ef6b800794b2ace46a9422057860001b6120a9565b61070c7f39d6709454ef595be8dc4166f66a9d65b91a8f35311169ed9bb032b5b9840c7960001b6120a9565b6107387f0a4ee4daa68a1d84599609cdff7036856a765dc4b0df8908075192de28f8767e60001b6120a9565b600060017f9b108a3a4d1bf9fcaf11faf730c194adcf4de5409616cf7026e57018b2743c2660001c61076a9190612f74565b60001b905061079b7f42ce42b3b8252f79f4e5fbdd78f7d81d68585f23fbd9ec716f730b101ae4ba2b60001b6120a9565b8091505090565b6107ce7fc3b3e5c93c3cddd19c79ec0f20ba2a5f15d25ca776f5a316c34e612ac0ef91c260001b6120a9565b6107fa7ff74756ee00aad994e7821cdc549f97b8d771c447019162abbd690639538699fd60001b6120a9565b6108267fe63d1de83e9328aa66e2de9c0db9a502ecf124f8b860f99bb5bce7be1fae894960001b6120a9565b6000825190506108587f0d6c4fefb76d728ee388f9f16f1283b84fd876683559c034b018408caf10b3ef60001b6120a9565b6108847ffcea8729999167b10b7bfe463a7a5b6aff5a576465348d5d05f04aaea2d0e1a360001b6120a9565b6108b07f798106bdd22716f7bd741d0c1eaa4b0976301299d54caec88feea5a845e6136760001b6120a9565b815181146108f3576040517f08c379a00000000000000000000000000000000000000000000000000000000081526004016108ea90613005565b60405180910390fd5b61091f7f6150c2c59ec7dfee31d808ed7c3fab518d0e8724e54438c97217785141d7996960001b6120a9565b61094b7ff3cc02d26ac76bae342946cc95ea70e62d033c10af0fdb555095ec1c2012fd6a60001b6120a9565b6109777faea070860f949b3a9760a2f5a94f942060f9bee4e2e75ca370a6e52433b0948460001b6120a9565b600081036109dd576109ab7fb8d2c00dc30e36c29a1b0bb0274ce19ad8dbee7f8f685f58ecbf4d397fd8b59360001b6120a9565b6109d77f33226331dcb12c9b8ba7fcebdd45ca95158e804cd707896166812dbf49e12f0360001b6120a9565b506110fa565b610a097fdb72daaf7dd38c48da4fafa4a5f73a3cd0f667a05de2367370827de23d7ef1bf60001b6120a9565b610a357f917660a4a7cdc7a137fdd422639d5ed7c9f7d6ac539cb259f578e64afd2c05a860001b6120a9565b610a617fcd3d98fec1914b9b481039db82413f225dff0c03a8d13784d0b3609acd5d3f6560001b6120a9565b6000610a8f7f81c6eb668acb49baa847cda1b39c0caa0fb78cd7b5a0d87438886af463683c0160001b6120a9565b610abb7f37a5bec94a6392d605d2b511483bd88d7a3bb0ee590642215cf0f90c9258844760001b6120a9565b60005b828114610ffa57610af17f7fdf4dbbae9fbdd17817c5bbe8dc1e223216914e02d953e8ad286530f986f8b260001b6120a9565b610b1d7f958f4615bbcc6625316f9fa7436e2e9c870a8865bf11ca5bc0fa495bcc19b23f60001b6120a9565b6000858281518110610b3257610b31613025565b5b60200260200101519050610b687f91fbed8326534f0687c0918720d37a785477baa9e6d3477ae6f6140ed1ba88fb60001b6120a9565b610b947f259973564918b6c737756953598141360775ebe29be9021df05c85401baa319460001b6120a9565b6000858381518110610ba957610ba8613025565b5b60200260200101519050610bdf7f276b90acb9f44066776f810ba20dcac48619e203b28ab2c21879171c09c29fba60001b6120a9565b610c0b7ffb7085f5f13d1d46d85c22b831e80acaa0695db51f51c06ad9ac0455cbec3a1160001b6120a9565b8773ffffffffffffffffffffffffffffffffffffffff168273ffffffffffffffffffffffffffffffffffffffff1614610cde57610c6a7f9661e6daf765bdf602bbdcb523e8795ff5fae249721644a0e2a55f826b05748060001b6120a9565b610c967fbbd2c78ff04a692d67d664787887dd891672e258da898f83a5505bdb1d4b6e2d60001b6120a9565b610cc27f6718f482151fa2b01139a57543689e5249481864405bf1557c7d420817a6e42060001b6120a9565b610cd98289838c6120ac909392919063ffffffff16565b610d0b565b610d0a7fb45fe204c9879707bdb4c55e856a16d0cf82b91a0755e53c21b9f0bbdb5631f360001b6120a9565b5b610d377f9b1d15764584e0681fac24d5adad46efc46b7c414810da5b8a4af0e84dea90b760001b6120a9565b610d637f2a2efd05396ea84156b2767922d57f6ef6c49cbb3f2d559c40160ac4d040f7fb60001b6120a9565b60008114610efc57610d977fbb32422e8d9bc737814a85eef1ce4c77f69035063c0ac554a3cf20877e2ccb9760001b6120a9565b610dc37f491def45cb35087e1dea57aef999a43f59049e723f783466ddd51c6e1073878f60001b6120a9565b610def7f5ec82a6620d8db7edd2e6210a79379d519f503e7883b24f17237a330328f399f60001b6120a9565b60008960000160008473ffffffffffffffffffffffffffffffffffffffff1673ffffffffffffffffffffffffffffffffffffffff168152602001908152602001600020549050610e617f80d6f12c05b5d5a529bfc6cac230dc7e2399dbeaa235c29911d3254f74da215f60001b6120a9565b60008282039050818110610eaa576040517f08c379a0000000000000000000000000000000000000000000000000000000008152600401610ea1906130a0565b60405180910390fd5b808b60000160008673ffffffffffffffffffffffffffffffffffffffff1673ffffffffffffffffffffffffffffffffffffffff1681526020019081526020016000208190555082860195505050610f29565b610f287f7a960e2026bb8957021a9f2fb5ddbf5e573b3dac7147ede40d449ebbd3317c6260001b6120a9565b5b610f557f1fecce14fb71540bb5e8217c20c654f9032e894136e0c9d436e8e7911dbb489360001b6120a9565b610f817f7356439ce4573ad20dd7e3debf375fc6793da886d64e6228cf6d4e3a64e46d0b60001b6120a9565b600073ffffffffffffffffffffffffffffffffffffffff168273ffffffffffffffffffffffffffffffffffffffff167fddf252ad1be2c89b69c2b068fc378daa952ba7f163c4a11628f55a4df523b3ef83604051610fdf91906130cf565b60405180910390a3505080610ff3906130ea565b9050610abe565b506110277f85256823d73259af8b6662a5eff7a1e8d6d4147e453e99bcd95fdcb4aa71b74f60001b6120a9565b6110537fc6d244413d59ed73ced86e6e26647f7841e222812c743b9bd08ee77644fb0e9460001b6120a9565b600081146110ca576110877f6ec2809317b031a0b7d40c5af6f0364e450d2252a357cf2f8e66d4f33d208ada60001b6120a9565b6110b37f4886a5f2cc89e5d7422c363b6b8db76ea47d2e28be73cb5fca962ba7563905fb60001b6120a9565b8086600201600082825403925050819055506110f7565b6110f67f56f77a0d174fc64404f769037fe1d3c858c4df05de0ce32e124aa15c763a188860001b6120a9565b5b50505b50505050565b50565b3660006111327f068419e7c7a8d6f41943c27a5174bc91a25ef91480a2f7c21bce2c8b96b4c1d360001b6114b4565b61115e7f06c2fb25872b490ead773dbd5a9621156b9ca0b9b043f39c5fccd8795442f45960001b6114b4565b61118a7f1ab81ff5d7af48e5902a2e4d277d4d75ef25eab7993b5e5c868737e0efc1ba1760001b6114b4565b61119261257e565b915091509091565b6111c67f67339b59619af13457da254239aade09aa88d0fefab1cffa4e3eb1a6c08da37c60001b6120a9565b6111f27ffe6a27139b65268c5a53d3dae95bc967c6ef85bdd5011179c3fbb9906bd5b80860001b6120a9565b61121e7f9ae52c4e16d6152f32fc728e5d1a410fa61f6777bd29084041b6c71de9f93ebe60001b6120a9565b600081146113c4576112527f045a31635288303a9899520b2964d6a9d134b33d868deb0c39a2f11585f322da60001b6120a9565b61127e7f9512ccda4dce9d4e27d15e0bc75f041eb88f0dc0ba88d269c55b2a51e99dc48260001b6120a9565b6112aa7f0933c6a2b21b9ea2ec9e8fe5a102ff83298c8de97c51ad53aaff53014c9719d660001b6120a9565b60008360000160008473ffffffffffffffffffffffffffffffffffffffff1673ffffffffffffffffffffffffffffffffffffffff16815260200190815260200160002054905061131c7f10eada29896e8c1fd720046791638b64acb52d1def731960c562d149f47a7e0160001b6120a9565b60008282039050818110611365576040517f08c379a000000000000000000000000000000000000000000000000000000000815260040161135c906130a0565b60405180910390fd5b808560000160008673ffffffffffffffffffffffffffffffffffffffff1673ffffffffffffffffffffffffffffffffffffffff1681526020019081526020016000208190555082856002016000828254039250508190555050506113f1565b6113f07ff3eecead4891a259389eac1c918ad28048a2a7c4caf46115427a4bb8b8c1949f60001b6120a9565b5b61141d7f9c4a14fe6f012a1e571115b086792d572a63cb8c6257478d7a59956725c2446460001b6120a9565b6114497f8a1554fa052eb2061fe588d692e778f155b6a97697f00902c0ce47f0c4d1bccd60001b6120a9565b600073ffffffffffffffffffffffffffffffffffffffff168273ffffffffffffffffffffffffffffffffffffffff167fddf252ad1be2c89b69c2b068fc378daa952ba7f163c4a11628f55a4df523b3ef836040516114a791906130cf565b60405180910390a3505050565b50565b60006114e57f29f8332165901d83adc683db950bfa7095446b76821902b9cad5a516e9f9f82660001b6129cf565b6115117f5c570bd87bb3a186c2c87ff3dd5f58d2c75a5776fe94e0a63fa851fe46a5fa6c60001b6129cf565b61153d7f405d85ac952971491b2260d550a90002555502250fb83d68df5efc35f77841ce60001b6129cf565b600060017fb53127684a568b3173ae13b9f8a6016e243e63b6e8ee1178d6a717850b5d610460001c61156f9190612f74565b60001b90506115a07f1d9ce065e06330dbac07abf26a98b6d505daa95772ac105ad61ed7479f8c2b1260001b6129cf565b8091505090565b6115d37fbc11fd154e3161de2183b89db4eb967bb1b4cbab0325086fa95095436c11e72b60001b6129cf565b6115ff7f1815b032362e96a6d2f880b8f118c97fe36f9016e4d7dde560dc18768369a66d60001b6129cf565b61162b7f25f11631eb07cc17d412b02bd63f72577eb8df190f4046eb3478c12a4bb8ae6860001b6129cf565b6116577ff4fb509d189314ad76c001fa3c672e032a121e16ca67380d998b64660c91044960001b6129cf565b8160000160009054906101000a900473ffffffffffffffffffffffffffffffffffffffff1673ffffffffffffffffffffffffffffffffffffffff168173ffffffffffffffffffffffffffffffffffffffff16146116e9576040517f08c379a00000000000000000000000000000000000000000000000000000000081526004016116e09061317e565b60405180910390fd5b6117157f059066040512573aa34012041b24446b05cb97113084d9f5307dec4a489aeed260001b6129cf565b5050565b60006117477f33dac451eefd1a6808163eecf8d47d7cba5f56d00787de044ff0ddc2ee89447d60001b6129d2565b6117737f80b5daaa693fe30ccf9f1f19243499ce9fe4bada91264dd37e7099a713fc8c0360001b6129d2565b61179f7f66e2273229caef60ac0be45d070cc66ba1aaceeca2776bdf1fc50206d54f0f2260001b6129d2565b600060017f7180ffa89c91cf90d6c56dacabfc69bc5e36f3099d7eed2f5cc12c5dba016fe060001c6117d19190612f74565b60001b90506118027f283bb7ffa148f4f77b397c4f3d35798bfd3f1214dd2b6c078e2824cd344247cc60001b6129d2565b8091505090565b6118357ffeeaaad6b1efab2833cc700d80f740603a4ac6746f8e38068c950d299cc199bf60001b6129d2565b6118617f3ca2cb9a9b6e35728cedd7c19d4c121988341387931213a51eab1b4bbaf4113560001b6129d2565b61188d7f1f9cdb98c65d0ad87aac43319c2670926bcb7c14904c7f9d4ade6235d82de71960001b6129d2565b6118b97f5dbdac164f3e02893e8f90adfbe776f3f50c85847d234ab6fb16b0a4846759d760001b6129d2565b63ffffffff60e01b827bffffffffffffffffffffffffffffffffffffffffffffffffffffffff191603611921576040517f08c379a0000000000000000000000000000000000000000000000000000000008152600401611918906131ea565b60405180910390fd5b61194d7fd6b36b8472d324009615e496388c108ffb1831ab3bd7bded72d29ac4baf2ad1e60001b6129d2565b6119797f7b2218cefa5bbb0f0239126c55783358df88ffab00f11d9c8f8e38985d9a8c9860001b6129d2565b6119a57f2ad1063a0d34755f3bea24bcd3cfaff3dbbf63fbfa3f9b4c9c252fdffa66ed3360001b6129d2565b80836000016000847bffffffffffffffffffffffffffffffffffffffffffffffffffffffff19167bffffffffffffffffffffffffffffffffffffffffffffffffffffffff1916815260200190815260200160002060006101000a81548160ff021916908315150217905550505050565b611a417fe400b5464fc68cb847089fee6401d26f840ed6a3aa904a53cf40c0e89d74dbfb60001b6120a9565b611a6d7fae8b74270ced98eead2616da64834926eaaaf96723203b008ad64e380806234060001b6120a9565b611a997fac85d0f3ce97b0eafffe751ba33853587e281f13b1aaa83ec0e14fe270e8de1960001b6120a9565b8273ffffffffffffffffffffffffffffffffffffffff168273ffffffffffffffffffffffffffffffffffffffff1614611b6c57611af87fd7e70631fd0e899623174efcd4ba696c8b45f77d2a432ff8a36113792c1b294960001b6120a9565b611b247f5ebd93dfd5d2f1050b1dc7fdf3b5190a6f825fe6e04fb3b2774ec65fe945609f60001b6120a9565b611b507f54bc61dc5453fede7aada7bb78274197da77f8d20a22be4757f9a6520be7e67360001b6120a9565b611b67828483876120ac909392919063ffffffff16565b611b99565b611b987febe21552d8082ad785e0ecb844a91acccdb292beda76218a8ff6d522a7034f6960001b6120a9565b5b611bc57fe633c53011b832d76e17a3b2bfca91921405988af38b47bc096e0803c525e4db60001b6120a9565b611bf17f725b26ef77538be8c083c086e73d8041a401b5f8d1198b8652ecc5ef1b3912e160001b6120a9565b611c0682828661119a9092919063ffffffff16565b50505050565b6000611c3a7f21f83b85e7dbc596177bc46cc6795c14520638d6db8281a9a46e4d6aa22fb1aa60001b6129d5565b611c667f9fe8a1e1e7c5f38bddac874222fbac3da358d377b550af606038c28c918342a660001b6129d5565b611c927f4d776035fe014c48f9b8d211e07ad5f3e10a7407e640d6fd44f001ad72ec145460001b6129d5565b6000339050611cc37f1470143c211ace273ad33be67e446aa27b56df8ff21c9e30df1c1ce1aab37faf60001b6129d5565b611cef7f701a5aed6b7834b1cde40063ca2763d0cc2a2d369e96d6ffd63bd7f36d010be860001b6129d5565b3273ffffffffffffffffffffffffffffffffffffffff168173ffffffffffffffffffffffffffffffffffffffff1603611daf57611d4e7fde73d737f19da71f7e0a8be64041464998117e05c9bb9f65df2259a0779caaa960001b6129d5565b611d7a7f2e1b1201e86447778e6a37c8701809fecc19c6c17c8cdf9a32e27254363f132c60001b6129d5565b611da67f06438a6776a73eebdc69485314350483a51cfddc04e159b6f57dde5e4030039060001b6129d5565b809150506120a6565b611ddb7f6b510e6cfe0d366d8eb68be09db038d2dbfc0ca71029993b650b184340fc438a60001b6129d5565b611e077fc81f2aa3e9c76ff8d9709ad059857726fb537b8fa6166dbedc9e3f598edddc4160001b6129d5565b611e337fd5cec79665173c3237287beadc96f615eba8ff220376c7f0add1c603fa1dcb0260001b6129d5565b6000611e3d6129d8565b9050611e6b7f16b7bdd4d503ca2d391b420534e7b71ff847aea146e0c5e9b1d972d25ac95cf360001b6129d5565b611e977f8284349b0a2249652b224d12d5fd826a549839b4e0aab6630e88a99ebee0413860001b6129d5565b7f000000000000000000000000000000000000000000000000000000000000000073ffffffffffffffffffffffffffffffffffffffff168273ffffffffffffffffffffffffffffffffffffffff161480611f8957507f000000000000000000000000000000000000000000000000000000000000000073ffffffffffffffffffffffffffffffffffffffff1663e60125d682846040518363ffffffff1660e01b8152600401611f47929190613219565b602060405180830381865afa158015611f64573d6000803e3d6000fd5b505050506040513d601f19601f82011682018060405250810190611f88919061326e565b5b1561201c57611fba7ff1748450d5c67d16e99d465b5f46314c0a03cb614c0a36c7a01d0d452a42d63760001b6129d5565b611fe67ffcb9fb7b37e10dcd260ee2b6500d072708cde8b16110ac602ac219c4f0ac7a8860001b6129d5565b6120127f0b8b6cb7f0d04c4b23441400a0a579a14ccf6e6d955d51d0d443ae3b764fbf1e60001b6129d5565b80925050506120a6565b6120487fc6338ea7b912cb871ae88b37af8abae50806bb4e29d453caf0758aea491b82ab60001b6129d5565b6120747fb1b2861ba78bbb686a91db34f76b76efe61d8e91016be1013861a8390b68a26860001b6129d5565b6120a07f131b91089cbc4af49187f8d51fbbc23a25f13946f6ab1ab771005101548d429760001b6129d5565b81925050505b90565b50565b6120d87f5854c814cfeea66d80276c8a8c5c40d99d4aae55134f5b8742c370c98a2b110f60001b6120a9565b6121047ffcbb00a7f25d7cfa62afa72cb1d8fa7218f697d3b5a7ff88ec46342e3f2f7c0860001b6120a9565b6121307f8c0735416d362ff58f99da4b6aca2d876e82134aa6f0ed1af4763a61313d6db360001b6120a9565b61215c7ff2d79ce3f6351d21ec9ea7d4951e380ceba27d4a0b8118162f59be79dbd520d160001b6120a9565b600073ffffffffffffffffffffffffffffffffffffffff168273ffffffffffffffffffffffffffffffffffffffff16036121cb576040517f08c379a00000000000000000000000000000000000000000000000000000000081526004016121c2906132e7565b60405180910390fd5b6121f77fa666d81d29654921b81bb9f863e153b7e3a187c9392ceb30641e94381dde9f9a60001b6120a9565b6122237f87e5d1a39776d1d013cd3814ff4cbb195714fde16bca5333e4f46cdf17d2412860001b6120a9565b61224f7f051e5723e8261c8cdc38406c8b18598c76babd621d75bfe49a9128fba4edbe6d60001b6120a9565b60008460010160008573ffffffffffffffffffffffffffffffffffffffff1673ffffffffffffffffffffffffffffffffffffffff16815260200190815260200160002060008473ffffffffffffffffffffffffffffffffffffffff1673ffffffffffffffffffffffffffffffffffffffff1681526020019081526020016000205490506122fe7fa5d08d51320e666844ba53b4755cbf731933ffc2bc50c9a8d0faa520bf6ac0f760001b6120a9565b61232a7f72540b1451684d882bbd6cc8203f2d772e8152a4e89fb462275674da8727692060001b6120a9565b7fffffffffffffffffffffffffffffffffffffffffffffffffffffffffffffffff811415801561235b575060008214155b1561248d5761238c7fa80a0fe431fb397c1eaf9578501bdc1e246237a667a7cb6de4ee15a3fa70fe1460001b6120a9565b6123b87f10f02bb08ba1cf50385255eed22e65c56e5bf7f9bbc0f5b5a3b92f9a591d3c8d60001b6120a9565b60008282039050818110612401576040517f08c379a00000000000000000000000000000000000000000000000000000000081526004016123f890613353565b60405180910390fd5b808660010160008773ffffffffffffffffffffffffffffffffffffffff1673ffffffffffffffffffffffffffffffffffffffff16815260200190815260200160002060008673ffffffffffffffffffffffffffffffffffffffff1673ffffffffffffffffffffffffffffffffffffffff16815260200190815260200160002081905550809150506124ba565b6124b97f4ed0f1b72f85190a3d1a76a6a3209a65d95327b7a5aea06eefb2752bee90a3ce60001b6120a9565b5b6124e67feb984e860ffc3b5be05847b1cc8d4d8a96948d7eb999ca348b298f386438b4a260001b6120a9565b6125127f7c9f09d333f05f232a5ced30fb69fe8fa676bd12930e8d4746537c34dfd0169f60001b6120a9565b8273ffffffffffffffffffffffffffffffffffffffff168473ffffffffffffffffffffffffffffffffffffffff167f8c5be1e5ebec7d5bd14f71427d1e84f3dd0314c0f7b2291e5b200ac8c7c3b9258360405161256f91906130cf565b60405180910390a35050505050565b3660006125ad7ff74f168f3cfe88b8c75939ced6593b63b3a80d84384ea84798e06eb70c27e8b560001b6129d5565b6125d97f0c30881a465ce740e34b44da3f5682b69b261b3b3d916bf3cb638422722c466360001b6129d5565b6126057f7d034622f0cfa82b1eafef58ff96909800ff5cbda4aec1c658399402313d1e4760001b6129d5565b60003390506126367f3e7b906c7c24b8d911bba8092ce84f23b5c1596b35038fef4ace71fcce1f3a0e60001b6129d5565b6126627f76d316808c9e8931ac3d89e37ff8d9a597f8e50813fa0a88766b36313e96041060001b6129d5565b3273ffffffffffffffffffffffffffffffffffffffff168173ffffffffffffffffffffffffffffffffffffffff1603612726576126c17fa811c091d51641b1118f1402cc0638dc69041cba2f323377090e0a55500a152460001b6129d5565b6126ed7ff673674fd259625637c155f7345382b871e4581df73bc53013494d30dd1dc16460001b6129d5565b6127197f108112c7eebc35534afdbeeca8c2ad7449209fe78eeb1f9fdd0c5f6fb3111cce60001b6129d5565b60003692509250506129cb565b6127527f8e23e3f35cdceddd8b15b45bf787b8d6ae38e04c5870f4020c01d683a2f10fc560001b6129d5565b61277e7fb4f48de4e10f2751022dce70d5876a74afb41b756eb77cdf4fe88835769afb1a60001b6129d5565b6127aa7f2afe9b0d9d36347d263d9c298082ea9eea1c1879c9904d44b9316a451e41b92f60001b6129d5565b7f000000000000000000000000000000000000000000000000000000000000000073ffffffffffffffffffffffffffffffffffffffff168173ffffffffffffffffffffffffffffffffffffffff1614806128a357507f000000000000000000000000000000000000000000000000000000000000000073ffffffffffffffffffffffffffffffffffffffff1663e60125d66128436129d8565b836040518363ffffffff1660e01b8152600401612861929190613219565b602060405180830381865afa15801561287e573d6000803e3d6000fd5b505050506040513d601f19601f820116820180604052508101906128a2919061326e565b5b1561293e576128d47f2191333a031dc1f79f931a9c32f8cc636186c8d1941bf6ad2d0e09669ccdb2fd60001b6129d5565b6129007f625d923af8cba91f74f7ad122740e01bcd36ee0be52b9596ca85f7881a963db360001b6129d5565b61292c7f09e6b704caf4fc80a51357d4ff43f8bab75f1133b8a694db1fb7ac8851fe64b160001b6129d5565b612934612a3f565b92509250506129cb565b61296a7fcfd0711298438e2e01b8a5c4d5745b4b2a1fa1742e9ef04643fd654ff78cfca960001b6129d5565b6129967faec17026272a3ca53764ba29e047c1b72c1edbf88732d32ffae6b5c0d7fcf39960001b6129d5565b6129c27f7518e0f5afdd21984f9ce13318f9370b2d82da30fc4ffdbb78362126da32d52960001b6129d5565b60003692509250505b9091565b50565b50565b50565b6000612a067fd2d14d566965719ee17c5b60ff32623f910e7a0e574f2eeae19a64856bd35c4c60001b612af2565b612a327fa390d1eca31ebd819e35c63e13daa420bd40dcdd984217eef68768880371b01d60001b612af2565b601436033560601c905090565b366000612a6e7f7a9fde0e4d93131667b711f92dc641fa832990e5bb6a3b4626ffa6b5d4f3fdae60001b612af2565b612a9a7fc610f11635537ce6a03686b10e383cf783da248254319abfbb04eeb973e3acd760001b612af2565b612ac67f17531d10ccf76e2a802938b28b374efcd761ac66995a64071083ebf2a16e732060001b612af2565b60003660009060146000369050612add9190612f74565b92612aea9392919061337d565b915091509091565b50565b6000604051905090565b600080fd5b600080fd5b600080fd5b6000601f19601f8301169050919050565b7f4e487b7100000000000000000000000000000000000000000000000000000000600052604160045260246000fd5b612b5782612b0e565b810181811067ffffffffffffffff82111715612b7657612b75612b1f565b5b80604052505050565b6000612b89612af5565b9050612b958282612b4e565b919050565b600067ffffffffffffffff821115612bb557612bb4612b1f565b5b602082029050602081019050919050565b600080fd5b600073ffffffffffffffffffffffffffffffffffffffff82169050919050565b6000612bf682612bcb565b9050919050565b612c0681612beb565b8114612c1157600080fd5b50565b600081359050612c2381612bfd565b92915050565b6000612c3c612c3784612b9a565b612b7f565b90508083825260208201905060208402830185811115612c5f57612c5e612bc6565b5b835b81811015612c885780612c748882612c14565b845260208401935050602081019050612c61565b5050509392505050565b600082601f830112612ca757612ca6612b09565b5b8135612cb7848260208601612c29565b91505092915050565b600067ffffffffffffffff821115612cdb57612cda612b1f565b5b602082029050602081019050919050565b6000819050919050565b612cff81612cec565b8114612d0a57600080fd5b50565b600081359050612d1c81612cf6565b92915050565b6000612d35612d3084612cc0565b612b7f565b90508083825260208201905060208402830185811115612d5857612d57612bc6565b5b835b81811015612d815780612d6d8882612d0d565b845260208401935050602081019050612d5a565b5050509392505050565b600082601f830112612da057612d9f612b09565b5b8135612db0848260208601612d22565b91505092915050565b60008060408385031215612dd057612dcf612aff565b5b600083013567ffffffffffffffff811115612dee57612ded612b04565b5b612dfa85828601612c92565b925050602083013567ffffffffffffffff811115612e1b57612e1a612b04565b5b612e2785828601612d8b565b9150509250929050565b60008115159050919050565b612e4681612e31565b82525050565b6000602082019050612e616000830184612e3d565b92915050565b600082825260208201905092915050565b82818337600083830152505050565b6000612e938385612e67565b9350612ea0838584612e78565b612ea983612b0e565b840190509392505050565b60006020820190508181036000830152612ecf818486612e87565b90509392505050565b600060208284031215612eee57612eed612aff565b5b6000612efc84828501612d0d565b91505092915050565b60008060408385031215612f1c57612f1b612aff565b5b6000612f2a85828601612c14565b9250506020612f3b85828601612d0d565b9150509250929050565b7f4e487b7100000000000000000000000000000000000000000000000000000000600052601160045260246000fd5b6000612f7f82612cec565b9150612f8a83612cec565b925082821015612f9d57612f9c612f45565b5b828203905092915050565b600082825260208201905092915050565b7f45524332303a20696e636f6e73697374656e7420617272617973000000000000600082015250565b6000612fef601a83612fa8565b9150612ffa82612fb9565b602082019050919050565b6000602082019050818103600083015261301e81612fe2565b9050919050565b7f4e487b7100000000000000000000000000000000000000000000000000000000600052603260045260246000fd5b7f45524332303a20696e73756666696369656e742062616c616e63650000000000600082015250565b600061308a601b83612fa8565b915061309582613054565b602082019050919050565b600060208201905081810360008301526130b98161307d565b9050919050565b6130c981612cec565b82525050565b60006020820190506130e460008301846130c0565b92915050565b60006130f582612cec565b91507fffffffffffffffffffffffffffffffffffffffffffffffffffffffffffffffff820361312757613126612f45565b5b600182019050919050565b7f50726f787941646d696e3a206e6f74207468652061646d696e00000000000000600082015250565b6000613168601983612fa8565b915061317382613132565b602082019050919050565b600060208201905081810360008301526131978161315b565b9050919050565b7f496e74657266616365446574656374696f6e3a2077726f6e672076616c756500600082015250565b60006131d4601f83612fa8565b91506131df8261319e565b602082019050919050565b60006020820190508181036000830152613203816131c7565b9050919050565b61321381612beb565b82525050565b600060408201905061322e600083018561320a565b61323b602083018461320a565b9392505050565b61324b81612e31565b811461325657600080fd5b50565b60008151905061326881613242565b92915050565b60006020828403121561328457613283612aff565b5b600061329284828501613259565b91505092915050565b7f45524332303a207a65726f2061646472657373207370656e6465720000000000600082015250565b60006132d1601b83612fa8565b91506132dc8261329b565b602082019050919050565b60006020820190508181036000830152613300816132c4565b9050919050565b7f45524332303a20696e73756666696369656e7420616c6c6f77616e6365000000600082015250565b600061333d601d83612fa8565b915061334882613307565b602082019050919050565b6000602082019050818103600083015261336c81613330565b9050919050565b600080fd5b600080fd5b6000808585111561339157613390613373565b5b838611156133a2576133a1613378565b5b600185028301915084860390509450949250505056fea2646970667358221220d3675bad454e90b253b9d2e40d6d05ae548c5b91e672f8a3b7f3cbda97f5cca264736f6c634300080d0033",
  "linkReferences": {},
  "deployedLinkReferences": {}
}