{
  "_format": "hh-sol-artifact-1",
  "contractName": "ERC1155SimpleMock",
  "sourceName": "contracts/mocks/token/ERC1155/ERC1155SimpleMock.sol",
  "abi": [
    {
      "inputs": [
        {
          "internalType": "contract IForwarderRegistry",
          "name": "forwarderRegistry",
          "type": "address"
        }
      ],
      "stateMutability": "nonpayable",
      "type": "constructor"
    },
    {
      "anonymous": false,
      "inputs": [
        {
          "indexed": true,
          "internalType": "address",
          "name": "owner",
          "type": "address"
        },
        {
          "indexed": true,
          "internalType": "address",
          "name": "operator",
          "type": "address"
        },
        {
          "indexed": false,
          "internalType": "bool",
          "name": "approved",
          "type": "bool"
        }
      ],
      "name": "ApprovalForAll",
      "type": "event"
    },
    {
      "anonymous": false,
      "inputs": [
        {
          "indexed": true,
          "internalType": "address",
          "name": "previousOwner",
          "type": "address"
        },
        {
          "indexed": true,
          "internalType": "address",
          "name": "newOwner",
          "type": "address"
        }
      ],
      "name": "OwnershipTransferred",
      "type": "event"
    },
    {
      "anonymous": false,
      "inputs": [
        {
          "indexed": false,
          "internalType": "bytes32",
          "name": "role",
          "type": "bytes32"
        },
        {
          "indexed": false,
          "internalType": "address",
          "name": "account",
          "type": "address"
        },
        {
          "indexed": false,
          "internalType": "address",
          "name": "operator",
          "type": "address"
        }
      ],
      "name": "RoleGranted",
      "type": "event"
    },
    {
      "anonymous": false,
      "inputs": [
        {
          "indexed": false,
          "internalType": "bytes32",
          "name": "role",
          "type": "bytes32"
        },
        {
          "indexed": false,
          "internalType": "address",
          "name": "account",
          "type": "address"
        },
        {
          "indexed": false,
          "internalType": "address",
          "name": "operator",
          "type": "address"
        }
      ],
      "name": "RoleRevoked",
      "type": "event"
    },
    {
      "anonymous": false,
      "inputs": [
        {
          "indexed": true,
          "internalType": "address",
          "name": "operator",
          "type": "address"
        },
        {
          "indexed": true,
          "internalType": "address",
          "name": "from",
          "type": "address"
        },
        {
          "indexed": true,
          "internalType": "address",
          "name": "to",
          "type": "address"
        },
        {
          "indexed": false,
          "internalType": "uint256[]",
          "name": "ids",
          "type": "uint256[]"
        },
        {
          "indexed": false,
          "internalType": "uint256[]",
          "name": "values",
          "type": "uint256[]"
        }
      ],
      "name": "TransferBatch",
      "type": "event"
    },
    {
      "anonymous": false,
      "inputs": [
        {
          "indexed": true,
          "internalType": "address",
          "name": "operator",
          "type": "address"
        },
        {
          "indexed": true,
          "internalType": "address",
          "name": "from",
          "type": "address"
        },
        {
          "indexed": true,
          "internalType": "address",
          "name": "to",
          "type": "address"
        },
        {
          "indexed": false,
          "internalType": "uint256",
          "name": "id",
          "type": "uint256"
        },
        {
          "indexed": false,
          "internalType": "uint256",
          "name": "value",
          "type": "uint256"
        }
      ],
      "name": "TransferSingle",
      "type": "event"
    },
    {
      "anonymous": false,
      "inputs": [
        {
          "indexed": false,
          "internalType": "string",
          "name": "value",
          "type": "string"
        },
        {
          "indexed": true,
          "internalType": "uint256",
          "name": "id",
          "type": "uint256"
        }
      ],
      "name": "URI",
      "type": "event"
    },
    {
      "inputs": [],
      "name": "MINTER_ROLE",
      "outputs": [
        {
          "internalType": "bytes32",
          "name": "",
          "type": "bytes32"
        }
      ],
      "stateMutability": "view",
      "type": "function"
    },
    {
      "inputs": [],
      "name": "__msgData",
      "outputs": [
        {
          "internalType": "bytes",
          "name": "",
          "type": "bytes"
        }
      ],
      "stateMutability": "view",
      "type": "function"
    },
    {
      "inputs": [
        {
          "internalType": "address",
          "name": "owner",
          "type": "address"
        },
        {
          "internalType": "uint256",
          "name": "id",
          "type": "uint256"
        }
      ],
      "name": "balanceOf",
      "outputs": [
        {
          "internalType": "uint256",
          "name": "balance",
          "type": "uint256"
        }
      ],
      "stateMutability": "view",
      "type": "function"
    },
    {
      "inputs": [
        {
          "internalType": "address[]",
          "name": "owners",
          "type": "address[]"
        },
        {
          "internalType": "uint256[]",
          "name": "ids",
          "type": "uint256[]"
        }
      ],
      "name": "balanceOfBatch",
      "outputs": [
        {
          "internalType": "uint256[]",
          "name": "balances",
          "type": "uint256[]"
        }
      ],
      "stateMutability": "view",
      "type": "function"
    },
    {
      "inputs": [],
      "name": "forwarderRegistry",
      "outputs": [
        {
          "internalType": "contract IForwarderRegistry",
          "name": "",
          "type": "address"
        }
      ],
      "stateMutability": "view",
      "type": "function"
    },
    {
      "inputs": [
        {
          "internalType": "bytes32",
          "name": "role",
          "type": "bytes32"
        },
        {
          "internalType": "address",
          "name": "account",
          "type": "address"
        }
      ],
      "name": "grantRole",
      "outputs": [],
      "stateMutability": "nonpayable",
      "type": "function"
    },
    {
      "inputs": [
        {
          "internalType": "bytes32",
          "name": "role",
          "type": "bytes32"
        },
        {
          "internalType": "address",
          "name": "account",
          "type": "address"
        }
      ],
      "name": "hasRole",
      "outputs": [
        {
          "internalType": "bool",
          "name": "",
          "type": "bool"
        }
      ],
      "stateMutability": "view",
      "type": "function"
    },
    {
      "inputs": [
        {
          "internalType": "address",
          "name": "owner",
          "type": "address"
        },
        {
          "internalType": "address",
          "name": "operator",
          "type": "address"
        }
      ],
      "name": "isApprovedForAll",
      "outputs": [
        {
          "internalType": "bool",
          "name": "approvedForAll",
          "type": "bool"
        }
      ],
      "stateMutability": "view",
      "type": "function"
    },
    {
      "inputs": [
        {
          "internalType": "address",
          "name": "forwarder",
          "type": "address"
        }
      ],
      "name": "isTrustedForwarder",
      "outputs": [
        {
          "internalType": "bool",
          "name": "",
          "type": "bool"
        }
      ],
      "stateMutability": "view",
      "type": "function"
    },
    {
      "inputs": [],
      "name": "owner",
      "outputs": [
        {
          "internalType": "address",
          "name": "",
          "type": "address"
        }
      ],
      "stateMutability": "view",
      "type": "function"
    },
    {
      "inputs": [
        {
          "internalType": "bytes32",
          "name": "role",
          "type": "bytes32"
        }
      ],
      "name": "renounceRole",
      "outputs": [],
      "stateMutability": "nonpayable",
      "type": "function"
    },
    {
      "inputs": [
        {
          "internalType": "bytes32",
          "name": "role",
          "type": "bytes32"
        },
        {
          "internalType": "address",
          "name": "account",
          "type": "address"
        }
      ],
      "name": "revokeRole",
      "outputs": [],
      "stateMutability": "nonpayable",
      "type": "function"
    },
    {
      "inputs": [
        {
          "internalType": "address",
          "name": "to",
          "type": "address"
        },
        {
          "internalType": "uint256[]",
          "name": "ids",
          "type": "uint256[]"
        },
        {
          "internalType": "uint256[]",
          "name": "values",
          "type": "uint256[]"
        },
        {
          "internalType": "bytes",
          "name": "data",
          "type": "bytes"
        }
      ],
      "name": "safeBatchMint",
      "outputs": [],
      "stateMutability": "nonpayable",
      "type": "function"
    },
    {
      "inputs": [
        {
          "internalType": "address",
          "name": "from",
          "type": "address"
        },
        {
          "internalType": "address",
          "name": "to",
          "type": "address"
        },
        {
          "internalType": "uint256[]",
          "name": "ids",
          "type": "uint256[]"
        },
        {
          "internalType": "uint256[]",
          "name": "values",
          "type": "uint256[]"
        },
        {
          "internalType": "bytes",
          "name": "data",
          "type": "bytes"
        }
      ],
      "name": "safeBatchTransferFrom",
      "outputs": [],
      "stateMutability": "nonpayable",
      "type": "function"
    },
    {
      "inputs": [
        {
          "internalType": "address",
          "name": "to",
          "type": "address"
        },
        {
          "internalType": "uint256",
          "name": "id",
          "type": "uint256"
        },
        {
          "internalType": "uint256",
          "name": "value",
          "type": "uint256"
        },
        {
          "internalType": "bytes",
          "name": "data",
          "type": "bytes"
        }
      ],
      "name": "safeMint",
      "outputs": [],
      "stateMutability": "nonpayable",
      "type": "function"
    },
    {
      "inputs": [
        {
          "internalType": "address",
          "name": "from",
          "type": "address"
        },
        {
          "internalType": "address",
          "name": "to",
          "type": "address"
        },
        {
          "internalType": "uint256",
          "name": "id",
          "type": "uint256"
        },
        {
          "internalType": "uint256",
          "name": "value",
          "type": "uint256"
        },
        {
          "internalType": "bytes",
          "name": "data",
          "type": "bytes"
        }
      ],
      "name": "safeTransferFrom",
      "outputs": [],
      "stateMutability": "nonpayable",
      "type": "function"
    },
    {
      "inputs": [
        {
          "internalType": "address",
          "name": "operator",
          "type": "address"
        },
        {
          "internalType": "bool",
          "name": "approved",
          "type": "bool"
        }
      ],
      "name": "setApprovalForAll",
      "outputs": [],
      "stateMutability": "nonpayable",
      "type": "function"
    },
    {
      "inputs": [
        {
          "internalType": "bytes4",
          "name": "interfaceId",
          "type": "bytes4"
        }
      ],
      "name": "supportsInterface",
      "outputs": [
        {
          "internalType": "bool",
          "name": "",
          "type": "bool"
        }
      ],
      "stateMutability": "view",
      "type": "function"
    },
    {
      "inputs": [
        {
          "internalType": "address",
          "name": "newOwner",
          "type": "address"
        }
      ],
      "name": "transferOwnership",
      "outputs": [],
      "stateMutability": "nonpayable",
      "type": "function"
    }
  ],
  "bytecode": "0x60a06040523480156200001157600080fd5b5060405162002cd238038062002cd2833981016040819052620000349162000215565b8080336200004162000077565b62000057816200005062000099565b90620000cf565b506200006262000142565b6001600160a01b031660805250620002699050565b62000097636cdb3d1360e11b60016200008f62000155565b919062000185565b565b600080620000c960017fc9ed16f33ab3a66c84bfd83099ccb2a8845871e2e1c1928f63797152f0fd54cd62000247565b92915050565b6001600160a01b03811615620001265781546001600160a01b0319166001600160a01b03821690811783556040516000907f8be0079c531659141344cd1fd0a4f28419497f9722a3daafe3b4186f6b6457e0908290a35b6200013e6307f5828d60e41b60016200008f62000155565b5050565b62000097631464324b60e21b60016200008f5b600080620000c960017fca9d3e17f264b0f3984e2634e94adb37fa3e6a8103f06aeae6fa59e21c769f5e62000247565b600160e01b6001600160e01b0319831601620001e75760405162461bcd60e51b815260206004820152601f60248201527f496e74657266616365446574656374696f6e3a2077726f6e672076616c756500604482015260640160405180910390fd5b6001600160e01b03199190911660009081526020929092526040909120805460ff1916911515919091179055565b6000602082840312156200022857600080fd5b81516001600160a01b03811681146200024057600080fd5b9392505050565b81810381811115620000c957634e487b7160e01b600052601160045260246000fd5b608051612a2a620002a8600039600081816101b501528181610266015281816118b50152818161193d01528181611faa0152611fe80152612a2a6000f3fe608060405234801561001057600080fd5b50600436106101505760003560e01c80635cfa9297116100cd578063d539139311610081578063e985e9c511610066578063e985e9c514610331578063f242432a14610344578063f2fde38b1461035757600080fd5b8063d5391393146102f7578063d547741f1461031e57600080fd5b80638da5cb5b116100b25780638da5cb5b146102c957806391d14854146102d1578063a22cb465146102e457600080fd5b80635cfa9297146102a35780638bb9c5bf146102b657600080fd5b80632eb2c2d61161012457806331e66e1e1161010957806331e66e1e146102205780634e1273f414610236578063572b6c051461025657600080fd5b80632eb2c2d6146101fa5780632f2ff15d1461020d57600080fd5b8062fdd58e1461015557806301ffc9a71461017b5780630d6a5bbb1461019e5780632b4c9f16146101b3575b600080fd5b610168610163366004612193565b61036a565b6040519081526020015b60405180910390f35b61018e6101893660046121eb565b610389565b6040519015158152602001610172565b6101b16101ac36600461229d565b61039d565b005b7f00000000000000000000000000000000000000000000000000000000000000005b60405173ffffffffffffffffffffffffffffffffffffffff9091168152602001610172565b6101b1610208366004612348565b610498565b6101b161021b366004612403565b6104c1565b6102286104fa565b60405161017292919061242f565b61024961024436600461247c565b61050d565b6040516101729190612523565b61018e610264366004612536565b7f000000000000000000000000000000000000000000000000000000000000000073ffffffffffffffffffffffffffffffffffffffff90811691161490565b6101b16102b1366004612551565b610530565b6101b16102c43660046125b9565b6105c2565b6101d56105e0565b61018e6102df366004612403565b61060c565b6101b16102f23660046125e0565b610650565b6101687f6d696e746572000000000000000000000000000000000000000000000000000081565b6101b161032c366004612403565b610671565b61018e61033f366004612617565b61069f565b6101b1610352366004612641565b6106ed565b6101b1610365366004612536565b610712565b6000610380838361037961072d565b919061075b565b90505b92915050565b600061038382610397610814565b90610842565b60006103a761091c565b90506103dd7f6d696e7465720000000000000000000000000000000000000000000000000000826103d6610926565b9190610954565b61048e818989898080602002602001604051908101604052809392919081815260200183836020028082843760009201919091525050604080516020808d0282810182019093528c82529093508c92508b91829185019084908082843760009201919091525050604080516020601f8c018190048102820181019092528a815292508a9150899081908401838280828437600092019190915250610484925061072d915050565b9493929190610a00565b5050505050505050565b61048e6104a361091c565b89898989898989896104b361072d565b989796959493929190610bee565b60006104cb61091c565b90506104df816104d9610ee6565b90610f14565b6104f58383836104ed610926565b929190610f97565b505050565b36600061050561106e565b915091509091565b60606105278585858561051e61072d565b93929190611079565b95945050505050565b600061053a61091c565b90506105697f6d696e7465720000000000000000000000000000000000000000000000000000826103d6610926565b6105ba8187878787878080601f0160208091040260200160405190810160405280939291908181526020018383808284376000920191909152506105b0925061072d915050565b94939291906111b7565b505050505050565b6105dd6105cd61091c565b826105d6610926565b91906112c5565b50565b60006106076105ed610ee6565b5473ffffffffffffffffffffffffffffffffffffffff1690565b905090565b6000610380838361061b610926565b60009283526020908152604080842073ffffffffffffffffffffffffffffffffffffffff909316845291905290205460ff1690565b61066d61065b61091c565b838361066561072d565b929190611369565b5050565b600061067b61091c565b9050610689816104d9610ee6565b6104f5838383610697610926565b929190611499565b600061038083836106ae61072d565b919073ffffffffffffffffffffffffffffffffffffffff9182166000908152600193909301602090815260408085209290931684525290205460ff1690565b6105ba6106f861091c565b87878787878761070661072d565b96959493929190611563565b6105dd61071d61091c565b82610726610ee6565b9190611746565b60008061038360017f5ccf5846fa27a68fafc8e588671a68f5e67c2f9b56af4263806a4d71735e86136126b9565b600073ffffffffffffffffffffffffffffffffffffffff83166107df576040517f08c379a000000000000000000000000000000000000000000000000000000000815260206004820152601e60248201527f455243313135353a2062616c616e6365206f662061646472657373283029000060448201526064015b60405180910390fd5b5060009081526020928352604080822073ffffffffffffffffffffffffffffffffffffffff9390931682529190925290205490565b60008061038360017fca9d3e17f264b0f3984e2634e94adb37fa3e6a8103f06aeae6fa59e21c769f5e6126b9565b60007c01000000000000000000000000000000000000000000000000000000007fffffffff0000000000000000000000000000000000000000000000000000000083160161089257506000610383565b7ffe003659000000000000000000000000000000000000000000000000000000007fffffffff000000000000000000000000000000000000000000000000000000008316016108e357506001610383565b507fffffffff00000000000000000000000000000000000000000000000000000000166000908152602091909152604090205460ff1690565b6000610607611872565b60008061038360017fc8827d3282af6f37b64c3e9e6f3ac9df286ab0bb0fccd6f8661bf19adb368b236126b9565b60008281526020848152604080832073ffffffffffffffffffffffffffffffffffffffff8516845290915290205460ff166104f557610992826119b9565b6040516020016109a29190612717565b604080517fffffffffffffffffffffffffffffffffffffffffffffffffffffffffffffffe0818403018152908290527f08c379a00000000000000000000000000000000000000000000000000000000082526107d6916004016127cd565b73ffffffffffffffffffffffffffffffffffffffff8416610a7d576040517f08c379a000000000000000000000000000000000000000000000000000000000815260206004820152601b60248201527f455243313135353a206d696e7420746f2061646472657373283029000000000060448201526064016107d6565b825182518114610ae9576040517f08c379a000000000000000000000000000000000000000000000000000000000815260206004820152601c60248201527f455243313135353a20696e636f6e73697374656e74206172726179730000000060448201526064016107d6565b60005b818114610b3957610b318887878481518110610b0a57610b0a6127e0565b6020026020010151878581518110610b2457610b246127e0565b6020026020010151611b4b565b600101610aec565b508473ffffffffffffffffffffffffffffffffffffffff16600073ffffffffffffffffffffffffffffffffffffffff168773ffffffffffffffffffffffffffffffffffffffff167f4a39dc06d4c0dbc64b70af90fd698a233a518aa5d07e595d983b8c0526c8f7fb8787604051610bb192919061280f565b60405180910390a473ffffffffffffffffffffffffffffffffffffffff85163b15610be557610be586600087878787611c1f565b50505050505050565b73ffffffffffffffffffffffffffffffffffffffff8716610c6b576040517f08c379a000000000000000000000000000000000000000000000000000000000815260206004820152601f60248201527f455243313135353a207472616e7366657220746f20616464726573732830290060448201526064016107d6565b84838114610cd5576040517f08c379a000000000000000000000000000000000000000000000000000000000815260206004820152601c60248201527f455243313135353a20696e636f6e73697374656e74206172726179730000000060448201526064016107d6565b610ce08b8a8c611d47565b610d46576040517f08c379a000000000000000000000000000000000000000000000000000000000815260206004820152601c60248201527f455243313135353a206e6f6e2d617070726f7665642073656e6465720000000060448201526064016107d6565b60005b818114610d9557610d8d8c8b8b8b8b86818110610d6857610d686127e0565b905060200201358a8a87818110610d8157610d816127e0565b90506020020135611dbf565b600101610d49565b508773ffffffffffffffffffffffffffffffffffffffff168973ffffffffffffffffffffffffffffffffffffffff168b73ffffffffffffffffffffffffffffffffffffffff167f4a39dc06d4c0dbc64b70af90fd698a233a518aa5d07e595d983b8c0526c8f7fb8a8a8a8a604051610e10949392919061287f565b60405180910390a473ffffffffffffffffffffffffffffffffffffffff88163b15610ed957610ed98a8a8a8a8a8080602002602001604051908101604052809392919081815260200183836020028082843760009201919091525050604080516020808e0282810182019093528d82529093508d92508c91829185019084908082843760009201919091525050604080516020601f8d018190048102820181019092528b815292508b91508a9081908401838280828437600092019190915250611c1f92505050565b5050505050505050505050565b60008061038360017fc9ed16f33ab3a66c84bfd83099ccb2a8845871e2e1c1928f63797152f0fd54cd6126b9565b815473ffffffffffffffffffffffffffffffffffffffff82811691161461066d576040517f08c379a000000000000000000000000000000000000000000000000000000000815260206004820152601860248201527f4f776e6572736869703a206e6f7420746865206f776e6572000000000000000060448201526064016107d6565b60008381526020858152604080832073ffffffffffffffffffffffffffffffffffffffff8616845290915290205460ff166110685760008381526020858152604080832073ffffffffffffffffffffffffffffffffffffffff8681168086529184529382902080547fffffffffffffffffffffffffffffffffffffffffffffffffffffffffffffff00166001179055815187815292830152918316918101919091527f2f8788117e7eff1d82e926ec794901d17c78024a50270940304540a733656f0d906060015b60405180910390a15b50505050565b366000610505611f73565b6060838281146110e5576040517f08c379a000000000000000000000000000000000000000000000000000000000815260206004820152601c60248201527f455243313135353a20696e636f6e73697374656e74206172726179730000000060448201526064016107d6565b8467ffffffffffffffff8111156110fe576110fe6128b1565b604051908082528060200260200182016040528015611127578160200160208202803683370190505b50915060005b8181146111ac57611187878783818110611149576111496127e0565b905060200201602081019061115e9190612536565b868684818110611170576111706127e0565b905060200201358a61075b9092919063ffffffff16565b838281518110611199576111996127e0565b602090810291909101015260010161112d565b505095945050505050565b73ffffffffffffffffffffffffffffffffffffffff8416611234576040517f08c379a000000000000000000000000000000000000000000000000000000000815260206004820152601b60248201527f455243313135353a206d696e7420746f2061646472657373283029000000000060448201526064016107d6565b61124086858585611b4b565b604080518481526020810184905273ffffffffffffffffffffffffffffffffffffffff80871692600092918916917fc3d58168c5ae7397731d063d5bbf3d657854427343f4c083240f7aacaa2d0f62910160405180910390a473ffffffffffffffffffffffffffffffffffffffff84163b156105ba576105ba856000868686866120dd565b6112d0838284610954565b60008181526020848152604080832073ffffffffffffffffffffffffffffffffffffffff86168085529083529281902080547fffffffffffffffffffffffffffffffffffffffffffffffffffffffffffffff0016905580518481529182018390528101919091527ff6391f5c32d9c69d2a47ea670b442974b53935d1edc7fd64eb21e047a839171b9060600160405180910390a1505050565b8273ffffffffffffffffffffffffffffffffffffffff168273ffffffffffffffffffffffffffffffffffffffff16036113fe576040517f08c379a000000000000000000000000000000000000000000000000000000000815260206004820152601e60248201527f455243313135353a2073656c662d617070726f76616c20666f7220616c6c000060448201526064016107d6565b73ffffffffffffffffffffffffffffffffffffffff838116600081815260018701602090815260408083209487168084529482529182902080547fffffffffffffffffffffffffffffffffffffffffffffffffffffffffffffff001686151590811790915591519182527f17307eab39ab6107e8899845ad3d59bd9653f200f220920489ca2b5937696c31910160405180910390a350505050565b60008381526020858152604080832073ffffffffffffffffffffffffffffffffffffffff8616845290915290205460ff16156110685760008381526020858152604080832073ffffffffffffffffffffffffffffffffffffffff8681168086529184529382902080547fffffffffffffffffffffffffffffffffffffffffffffffffffffffffffffff00169055815187815292830152918316918101919091527ff6391f5c32d9c69d2a47ea670b442974b53935d1edc7fd64eb21e047a839171b9060600161105f565b73ffffffffffffffffffffffffffffffffffffffff85166115e0576040517f08c379a000000000000000000000000000000000000000000000000000000000815260206004820152601f60248201527f455243313135353a207472616e7366657220746f20616464726573732830290060448201526064016107d6565b6115eb888789611d47565b611651576040517f08c379a000000000000000000000000000000000000000000000000000000000815260206004820152601c60248201527f455243313135353a206e6f6e2d617070726f7665642073656e6465720000000060448201526064016107d6565b61165e8887878787611dbf565b8473ffffffffffffffffffffffffffffffffffffffff168673ffffffffffffffffffffffffffffffffffffffff168873ffffffffffffffffffffffffffffffffffffffff167fc3d58168c5ae7397731d063d5bbf3d657854427343f4c083240f7aacaa2d0f6287876040516116dd929190918252602082015260400190565b60405180910390a473ffffffffffffffffffffffffffffffffffffffff85163b1561048e5761048e878787878787878080601f0160208091040260200160405190810160405280939291908181526020018383808284376000920191909152506120dd92505050565b825473ffffffffffffffffffffffffffffffffffffffff90811690831681146117cb576040517f08c379a000000000000000000000000000000000000000000000000000000000815260206004820152601860248201527f4f776e6572736869703a206e6f7420746865206f776e6572000000000000000060448201526064016107d6565b8173ffffffffffffffffffffffffffffffffffffffff168173ffffffffffffffffffffffffffffffffffffffff16146110685783547fffffffffffffffffffffffff00000000000000000000000000000000000000001673ffffffffffffffffffffffffffffffffffffffff8381169182178655604051908316907f8be0079c531659141344cd1fd0a4f28419497f9722a3daafe3b4186f6b6457e090600090a350505050565b6000333214806118825750601836105b1561188c57503390565b7fffffffffffffffffffffffffffffffffffffffffffffffffffffffffffffffec36013560601c7f000000000000000000000000000000000000000000000000000000000000000073ffffffffffffffffffffffffffffffffffffffff163314806119a857506040517f8929a8ca00000000000000000000000000000000000000000000000000000000815273ffffffffffffffffffffffffffffffffffffffff82811660048301523360248301527f00000000000000000000000000000000000000000000000000000000000000001690638929a8ca90604401602060405180830381865afa158015611984573d6000803e3d6000fd5b505050506040513d601f19601f820116820180604052508101906119a891906128e0565b156119b257919050565b3391505090565b606060008290036119d857505060408051602081019091526000815290565b6000826040516020016119ed91815260200190565b604080517fffffffffffffffffffffffffffffffffffffffffffffffffffffffffffffffe08184030181529190529050601f5b818181518110611a3257611a326127e0565b01602001517fff0000000000000000000000000000000000000000000000000000000000000016600003611a87577fffffffffffffffffffffffffffffffffffffffffffffffffffffffffffffffff01611a20565b60008160010167ffffffffffffffff811115611aa557611aa56128b1565b6040519080825280601f01601f191660200182016040528015611acf576020820181803683370190505b50905060005b828111611b4257838181518110611aee57611aee6127e0565b602001015160f81c60f81b828281518110611b0b57611b0b6127e0565b60200101907effffffffffffffffffffffffffffffffffffffffffffffffffffffffffffff1916908160001a905350600101611ad5565b50949350505050565b80156110685760008281526020858152604080832073ffffffffffffffffffffffffffffffffffffffff87168452909152902054818101818111611beb576040517f08c379a000000000000000000000000000000000000000000000000000000000815260206004820152601960248201527f455243313135353a2062616c616e6365206f766572666c6f770000000000000060448201526064016107d6565b60009384526020958652604080852073ffffffffffffffffffffffffffffffffffffffff9690961685529490955250502055565b6040517fbc197c81000000000000000000000000000000000000000000000000000000008082529073ffffffffffffffffffffffffffffffffffffffff86169063bc197c8190611c7b908a908a908990899089906004016128fd565b6020604051808303816000875af1158015611c9a573d6000803e3d6000fd5b505050506040513d601f19601f82011682018060405250810190611cbe9190612968565b7fffffffff0000000000000000000000000000000000000000000000000000000016146105ba576040517f08c379a000000000000000000000000000000000000000000000000000000000815260206004820152601a60248201527f455243313135353a207472616e736665722072656a656374656400000000000060448201526064016107d6565b60008173ffffffffffffffffffffffffffffffffffffffff168373ffffffffffffffffffffffffffffffffffffffff161480611db7575073ffffffffffffffffffffffffffffffffffffffff808416600090815260018601602090815260408083209386168352929052205460ff165b949350505050565b8015611f6c5760008281526020868152604080832073ffffffffffffffffffffffffffffffffffffffff88168452909152902054818103818110611e5f576040517f08c379a000000000000000000000000000000000000000000000000000000000815260206004820152601d60248201527f455243313135353a20696e73756666696369656e742062616c616e636500000060448201526064016107d6565b8473ffffffffffffffffffffffffffffffffffffffff168673ffffffffffffffffffffffffffffffffffffffff1614610be55760008481526020888152604080832073ffffffffffffffffffffffffffffffffffffffff89168452909152902054838101818111611f2c576040517f08c379a000000000000000000000000000000000000000000000000000000000815260206004820152601960248201527f455243313135353a2062616c616e6365206f766572666c6f770000000000000060448201526064016107d6565b600086815260208a8152604080832073ffffffffffffffffffffffffffffffffffffffff808d1685528184528285208890558b1684529091529020555050505b5050505050565b36600033321480611f845750601836105b15611f925750600091369150565b3373ffffffffffffffffffffffffffffffffffffffff7f00000000000000000000000000000000000000000000000000000000000000001614806120c7575073ffffffffffffffffffffffffffffffffffffffff7f000000000000000000000000000000000000000000000000000000000000000016638929a8ca367fffffffffffffffffffffffffffffffffffffffffffffffffffffffffffffffec013560601c6040517fffffffff0000000000000000000000000000000000000000000000000000000060e084901b16815273ffffffffffffffffffffffffffffffffffffffff9091166004820152336024820152604401602060405180830381865afa1580156120a3573d6000803e3d6000fd5b505050506040513d601f19601f820116820180604052508101906120c791906128e0565b156120d457610505612139565b50600091369150565b6040517ff23a6e61000000000000000000000000000000000000000000000000000000008082529073ffffffffffffffffffffffffffffffffffffffff86169063f23a6e6190611c7b908a908a90899089908990600401612985565b3660006105057fffffffffffffffffffffffffffffffffffffffffffffffffffffffffffffffec83018284816129ca565b803573ffffffffffffffffffffffffffffffffffffffff8116811461218e57600080fd5b919050565b600080604083850312156121a657600080fd5b6121af8361216a565b946020939093013593505050565b7fffffffff00000000000000000000000000000000000000000000000000000000811681146105dd57600080fd5b6000602082840312156121fd57600080fd5b8135612208816121bd565b9392505050565b60008083601f84011261222157600080fd5b50813567ffffffffffffffff81111561223957600080fd5b6020830191508360208260051b850101111561225457600080fd5b9250929050565b60008083601f84011261226d57600080fd5b50813567ffffffffffffffff81111561228557600080fd5b60208301915083602082850101111561225457600080fd5b60008060008060008060006080888a0312156122b857600080fd5b6122c18861216a565b9650602088013567ffffffffffffffff808211156122de57600080fd5b6122ea8b838c0161220f565b909850965060408a013591508082111561230357600080fd5b61230f8b838c0161220f565b909650945060608a013591508082111561232857600080fd5b506123358a828b0161225b565b989b979a50959850939692959293505050565b60008060008060008060008060a0898b03121561236457600080fd5b61236d8961216a565b975061237b60208a0161216a565b9650604089013567ffffffffffffffff8082111561239857600080fd5b6123a48c838d0161220f565b909850965060608b01359150808211156123bd57600080fd5b6123c98c838d0161220f565b909650945060808b01359150808211156123e257600080fd5b506123ef8b828c0161225b565b999c989b5096995094979396929594505050565b6000806040838503121561241657600080fd5b823591506124266020840161216a565b90509250929050565b60208152816020820152818360408301376000818301604090810191909152601f9092017fffffffffffffffffffffffffffffffffffffffffffffffffffffffffffffffe0160101919050565b6000806000806040858703121561249257600080fd5b843567ffffffffffffffff808211156124aa57600080fd5b6124b68883890161220f565b909650945060208701359150808211156124cf57600080fd5b506124dc8782880161220f565b95989497509550505050565b600081518084526020808501945080840160005b83811015612518578151875295820195908201906001016124fc565b509495945050505050565b60208152600061038060208301846124e8565b60006020828403121561254857600080fd5b6103808261216a565b60008060008060006080868803121561256957600080fd5b6125728661216a565b94506020860135935060408601359250606086013567ffffffffffffffff81111561259c57600080fd5b6125a88882890161225b565b969995985093965092949392505050565b6000602082840312156125cb57600080fd5b5035919050565b80151581146105dd57600080fd5b600080604083850312156125f357600080fd5b6125fc8361216a565b9150602083013561260c816125d2565b809150509250929050565b6000806040838503121561262a57600080fd5b6126338361216a565b91506124266020840161216a565b60008060008060008060a0878903121561265a57600080fd5b6126638761216a565b95506126716020880161216a565b94506040870135935060608701359250608087013567ffffffffffffffff81111561269b57600080fd5b6126a789828a0161225b565b979a9699509497509295939492505050565b81810381811115610383577f4e487b7100000000000000000000000000000000000000000000000000000000600052601160045260246000fd5b60005b8381101561270e5781810151838201526020016126f6565b50506000910152565b7f416363657373436f6e74726f6c3a206d697373696e672027000000000000000081526000825161274f8160188501602087016126f3565b7f2720726f6c6500000000000000000000000000000000000000000000000000006018939091019283015250601e01919050565b6000815180845261279b8160208601602086016126f3565b601f017fffffffffffffffffffffffffffffffffffffffffffffffffffffffffffffffe0169290920160200192915050565b6020815260006103806020830184612783565b7f4e487b7100000000000000000000000000000000000000000000000000000000600052603260045260246000fd5b60408152600061282260408301856124e8565b828103602084015261052781856124e8565b81835260007f07ffffffffffffffffffffffffffffffffffffffffffffffffffffffffffffff83111561286657600080fd5b8260051b80836020870137939093016020019392505050565b604081526000612893604083018688612834565b82810360208401526128a6818587612834565b979650505050505050565b7f4e487b7100000000000000000000000000000000000000000000000000000000600052604160045260246000fd5b6000602082840312156128f257600080fd5b8151612208816125d2565b600073ffffffffffffffffffffffffffffffffffffffff808816835280871660208401525060a0604083015261293660a08301866124e8565b828103606084015261294881866124e8565b9050828103608084015261295c8185612783565b98975050505050505050565b60006020828403121561297a57600080fd5b8151612208816121bd565b600073ffffffffffffffffffffffffffffffffffffffff808816835280871660208401525084604083015283606083015260a060808301526128a660a0830184612783565b600080858511156129da57600080fd5b838611156129e757600080fd5b505082019391909203915056fea26469706673582212209ef0c736c34e422958684bd8cd49766fccffa07fe787abdf1c9f96b4a1d85aa364736f6c63430008130033",
  "linkReferences": {},
  "deployedLinkReferences": {}
}