{
  "_format": "hh-sol-artifact-1",
  "contractName": "ERC1155BurnableProxiedMock",
  "sourceName": "contracts/mocks/token/ERC1155/proxied/ERC1155BurnableProxiedMock.sol",
  "abi": [
    {
      "inputs": [
        {
          "internalType": "contract IForwarderRegistry",
          "name": "forwarderRegistry",
          "type": "address"
        }
      ],
      "stateMutability": "nonpayable",
      "type": "constructor"
    },
    {
      "anonymous": false,
      "inputs": [
        {
          "indexed": true,
          "internalType": "address",
          "name": "owner",
          "type": "address"
        },
        {
          "indexed": true,
          "internalType": "address",
          "name": "operator",
          "type": "address"
        },
        {
          "indexed": false,
          "internalType": "bool",
          "name": "approved",
          "type": "bool"
        }
      ],
      "name": "ApprovalForAll",
      "type": "event"
    },
    {
      "anonymous": false,
      "inputs": [
        {
          "indexed": false,
          "internalType": "string",
          "name": "baseMetadataURI",
          "type": "string"
        }
      ],
      "name": "BaseMetadataURISet",
      "type": "event"
    },
    {
      "anonymous": false,
      "inputs": [
        {
          "indexed": true,
          "internalType": "address",
          "name": "previousOwner",
          "type": "address"
        },
        {
          "indexed": true,
          "internalType": "address",
          "name": "newOwner",
          "type": "address"
        }
      ],
      "name": "OwnershipTransferred",
      "type": "event"
    },
    {
      "anonymous": false,
      "inputs": [
        {
          "indexed": false,
          "internalType": "bytes32",
          "name": "role",
          "type": "bytes32"
        },
        {
          "indexed": false,
          "internalType": "address",
          "name": "account",
          "type": "address"
        },
        {
          "indexed": false,
          "internalType": "address",
          "name": "operator",
          "type": "address"
        }
      ],
      "name": "RoleGranted",
      "type": "event"
    },
    {
      "anonymous": false,
      "inputs": [
        {
          "indexed": false,
          "internalType": "bytes32",
          "name": "role",
          "type": "bytes32"
        },
        {
          "indexed": false,
          "internalType": "address",
          "name": "account",
          "type": "address"
        },
        {
          "indexed": false,
          "internalType": "address",
          "name": "operator",
          "type": "address"
        }
      ],
      "name": "RoleRevoked",
      "type": "event"
    },
    {
      "anonymous": false,
      "inputs": [
        {
          "indexed": true,
          "internalType": "address",
          "name": "operator",
          "type": "address"
        },
        {
          "indexed": true,
          "internalType": "address",
          "name": "from",
          "type": "address"
        },
        {
          "indexed": true,
          "internalType": "address",
          "name": "to",
          "type": "address"
        },
        {
          "indexed": false,
          "internalType": "uint256[]",
          "name": "ids",
          "type": "uint256[]"
        },
        {
          "indexed": false,
          "internalType": "uint256[]",
          "name": "values",
          "type": "uint256[]"
        }
      ],
      "name": "TransferBatch",
      "type": "event"
    },
    {
      "anonymous": false,
      "inputs": [
        {
          "indexed": true,
          "internalType": "address",
          "name": "operator",
          "type": "address"
        },
        {
          "indexed": true,
          "internalType": "address",
          "name": "from",
          "type": "address"
        },
        {
          "indexed": true,
          "internalType": "address",
          "name": "to",
          "type": "address"
        },
        {
          "indexed": false,
          "internalType": "uint256",
          "name": "id",
          "type": "uint256"
        },
        {
          "indexed": false,
          "internalType": "uint256",
          "name": "value",
          "type": "uint256"
        }
      ],
      "name": "TransferSingle",
      "type": "event"
    },
    {
      "anonymous": false,
      "inputs": [
        {
          "indexed": false,
          "internalType": "string",
          "name": "value",
          "type": "string"
        },
        {
          "indexed": true,
          "internalType": "uint256",
          "name": "id",
          "type": "uint256"
        }
      ],
      "name": "URI",
      "type": "event"
    },
    {
      "inputs": [],
      "name": "MINTER_ROLE",
      "outputs": [
        {
          "internalType": "bytes32",
          "name": "",
          "type": "bytes32"
        }
      ],
      "stateMutability": "view",
      "type": "function"
    },
    {
      "inputs": [],
      "name": "__msgData",
      "outputs": [
        {
          "internalType": "bytes",
          "name": "",
          "type": "bytes"
        }
      ],
      "stateMutability": "view",
      "type": "function"
    },
    {
      "inputs": [
        {
          "internalType": "address",
          "name": "owner",
          "type": "address"
        },
        {
          "internalType": "uint256",
          "name": "id",
          "type": "uint256"
        }
      ],
      "name": "balanceOf",
      "outputs": [
        {
          "internalType": "uint256",
          "name": "balance",
          "type": "uint256"
        }
      ],
      "stateMutability": "view",
      "type": "function"
    },
    {
      "inputs": [
        {
          "internalType": "address[]",
          "name": "owners",
          "type": "address[]"
        },
        {
          "internalType": "uint256[]",
          "name": "ids",
          "type": "uint256[]"
        }
      ],
      "name": "balanceOfBatch",
      "outputs": [
        {
          "internalType": "uint256[]",
          "name": "balances",
          "type": "uint256[]"
        }
      ],
      "stateMutability": "view",
      "type": "function"
    },
    {
      "inputs": [],
      "name": "baseMetadataURI",
      "outputs": [
        {
          "internalType": "string",
          "name": "baseURI",
          "type": "string"
        }
      ],
      "stateMutability": "view",
      "type": "function"
    },
    {
      "inputs": [
        {
          "internalType": "address",
          "name": "from",
          "type": "address"
        },
        {
          "internalType": "uint256[]",
          "name": "ids",
          "type": "uint256[]"
        },
        {
          "internalType": "uint256[]",
          "name": "values",
          "type": "uint256[]"
        }
      ],
      "name": "batchBurnFrom",
      "outputs": [],
      "stateMutability": "nonpayable",
      "type": "function"
    },
    {
      "inputs": [
        {
          "internalType": "address",
          "name": "from",
          "type": "address"
        },
        {
          "internalType": "uint256",
          "name": "id",
          "type": "uint256"
        },
        {
          "internalType": "uint256",
          "name": "value",
          "type": "uint256"
        }
      ],
      "name": "burnFrom",
      "outputs": [],
      "stateMutability": "nonpayable",
      "type": "function"
    },
    {
      "inputs": [],
      "name": "forwarderRegistry",
      "outputs": [
        {
          "internalType": "contract IForwarderRegistry",
          "name": "",
          "type": "address"
        }
      ],
      "stateMutability": "view",
      "type": "function"
    },
    {
      "inputs": [
        {
          "internalType": "bytes32",
          "name": "role",
          "type": "bytes32"
        },
        {
          "internalType": "address",
          "name": "account",
          "type": "address"
        }
      ],
      "name": "grantRole",
      "outputs": [],
      "stateMutability": "nonpayable",
      "type": "function"
    },
    {
      "inputs": [
        {
          "internalType": "bytes32",
          "name": "role",
          "type": "bytes32"
        },
        {
          "internalType": "address",
          "name": "account",
          "type": "address"
        }
      ],
      "name": "hasRole",
      "outputs": [
        {
          "internalType": "bool",
          "name": "",
          "type": "bool"
        }
      ],
      "stateMutability": "view",
      "type": "function"
    },
    {
      "inputs": [],
      "name": "init",
      "outputs": [],
      "stateMutability": "nonpayable",
      "type": "function"
    },
    {
      "inputs": [
        {
          "internalType": "string",
          "name": "baseMetadataURI",
          "type": "string"
        }
      ],
      "name": "init",
      "outputs": [],
      "stateMutability": "nonpayable",
      "type": "function"
    },
    {
      "inputs": [
        {
          "internalType": "address",
          "name": "owner",
          "type": "address"
        },
        {
          "internalType": "address",
          "name": "operator",
          "type": "address"
        }
      ],
      "name": "isApprovedForAll",
      "outputs": [
        {
          "internalType": "bool",
          "name": "approvedForAll",
          "type": "bool"
        }
      ],
      "stateMutability": "view",
      "type": "function"
    },
    {
      "inputs": [
        {
          "internalType": "address",
          "name": "forwarder",
          "type": "address"
        }
      ],
      "name": "isTrustedForwarder",
      "outputs": [
        {
          "internalType": "bool",
          "name": "",
          "type": "bool"
        }
      ],
      "stateMutability": "view",
      "type": "function"
    },
    {
      "inputs": [],
      "name": "owner",
      "outputs": [
        {
          "internalType": "address",
          "name": "",
          "type": "address"
        }
      ],
      "stateMutability": "view",
      "type": "function"
    },
    {
      "inputs": [
        {
          "internalType": "bytes32",
          "name": "role",
          "type": "bytes32"
        }
      ],
      "name": "renounceRole",
      "outputs": [],
      "stateMutability": "nonpayable",
      "type": "function"
    },
    {
      "inputs": [
        {
          "internalType": "bytes32",
          "name": "role",
          "type": "bytes32"
        },
        {
          "internalType": "address",
          "name": "account",
          "type": "address"
        }
      ],
      "name": "revokeRole",
      "outputs": [],
      "stateMutability": "nonpayable",
      "type": "function"
    },
    {
      "inputs": [
        {
          "internalType": "address",
          "name": "to",
          "type": "address"
        },
        {
          "internalType": "uint256[]",
          "name": "ids",
          "type": "uint256[]"
        },
        {
          "internalType": "uint256[]",
          "name": "values",
          "type": "uint256[]"
        },
        {
          "internalType": "bytes",
          "name": "data",
          "type": "bytes"
        }
      ],
      "name": "safeBatchMint",
      "outputs": [],
      "stateMutability": "nonpayable",
      "type": "function"
    },
    {
      "inputs": [
        {
          "internalType": "address",
          "name": "from",
          "type": "address"
        },
        {
          "internalType": "address",
          "name": "to",
          "type": "address"
        },
        {
          "internalType": "uint256[]",
          "name": "ids",
          "type": "uint256[]"
        },
        {
          "internalType": "uint256[]",
          "name": "values",
          "type": "uint256[]"
        },
        {
          "internalType": "bytes",
          "name": "data",
          "type": "bytes"
        }
      ],
      "name": "safeBatchTransferFrom",
      "outputs": [],
      "stateMutability": "nonpayable",
      "type": "function"
    },
    {
      "inputs": [
        {
          "internalType": "address[]",
          "name": "recipients",
          "type": "address[]"
        },
        {
          "internalType": "uint256[]",
          "name": "ids",
          "type": "uint256[]"
        },
        {
          "internalType": "uint256[]",
          "name": "values",
          "type": "uint256[]"
        },
        {
          "internalType": "bytes",
          "name": "data",
          "type": "bytes"
        }
      ],
      "name": "safeDeliver",
      "outputs": [],
      "stateMutability": "nonpayable",
      "type": "function"
    },
    {
      "inputs": [
        {
          "internalType": "address",
          "name": "to",
          "type": "address"
        },
        {
          "internalType": "uint256",
          "name": "id",
          "type": "uint256"
        },
        {
          "internalType": "uint256",
          "name": "value",
          "type": "uint256"
        },
        {
          "internalType": "bytes",
          "name": "data",
          "type": "bytes"
        }
      ],
      "name": "safeMint",
      "outputs": [],
      "stateMutability": "nonpayable",
      "type": "function"
    },
    {
      "inputs": [
        {
          "internalType": "address",
          "name": "from",
          "type": "address"
        },
        {
          "internalType": "address",
          "name": "to",
          "type": "address"
        },
        {
          "internalType": "uint256",
          "name": "id",
          "type": "uint256"
        },
        {
          "internalType": "uint256",
          "name": "value",
          "type": "uint256"
        },
        {
          "internalType": "bytes",
          "name": "data",
          "type": "bytes"
        }
      ],
      "name": "safeTransferFrom",
      "outputs": [],
      "stateMutability": "nonpayable",
      "type": "function"
    },
    {
      "inputs": [
        {
          "internalType": "address",
          "name": "operator",
          "type": "address"
        },
        {
          "internalType": "bool",
          "name": "approved",
          "type": "bool"
        }
      ],
      "name": "setApprovalForAll",
      "outputs": [],
      "stateMutability": "nonpayable",
      "type": "function"
    },
    {
      "inputs": [
        {
          "internalType": "string",
          "name": "baseURI",
          "type": "string"
        }
      ],
      "name": "setBaseMetadataURI",
      "outputs": [],
      "stateMutability": "nonpayable",
      "type": "function"
    },
    {
      "inputs": [
        {
          "internalType": "bytes4",
          "name": "interfaceId",
          "type": "bytes4"
        }
      ],
      "name": "supportsInterface",
      "outputs": [
        {
          "internalType": "bool",
          "name": "",
          "type": "bool"
        }
      ],
      "stateMutability": "view",
      "type": "function"
    },
    {
      "inputs": [
        {
          "internalType": "address",
          "name": "newOwner",
          "type": "address"
        }
      ],
      "name": "transferOwnership",
      "outputs": [],
      "stateMutability": "nonpayable",
      "type": "function"
    },
    {
      "inputs": [
        {
          "internalType": "uint256",
          "name": "id",
          "type": "uint256"
        }
      ],
      "name": "uri",
      "outputs": [
        {
          "internalType": "string",
          "name": "metadataURI",
          "type": "string"
        }
      ],
      "stateMutability": "view",
      "type": "function"
    }
  ],
  "bytecode": "0x60a06040523480156200001157600080fd5b5060405162003d8a38038062003d8a833981016040819052620000349162000046565b6001600160a01b031660805262000078565b6000602082840312156200005957600080fd5b81516001600160a01b03811681146200007157600080fd5b9392505050565b608051613cd3620000b7600039600081816102500152818161030101528181612d5c01528181612de401528181612e970152612ed50152613cd36000f3fe608060405234801561001057600080fd5b50600436106101b85760003560e01c80637e518ec8116100f9578063d547741f11610097578063e985e9c511610071578063e985e9c514610415578063f242432a14610428578063f2fde38b1461043b578063f9fbdb9e1461044e57600080fd5b8063d547741f146103e7578063e1c7392a146103fa578063e8ab9ccc1461040257600080fd5b80638da5cb5b116100d35780638da5cb5b1461039257806391d148541461039a578063a22cb465146103ad578063d5391393146103c057600080fd5b80637e518ec814610359578063805349341461036c5780638bb9c5bf1461037f57600080fd5b80632eb2c2d6116101665780634e1273f4116101405780634e1273f4146102d1578063572b6c05146102f15780635b2bd79e1461033e5780635cfa92971461034657600080fd5b80632eb2c2d6146102955780632f2ff15d146102a857806331e66e1e146102bb57600080fd5b80630e89341c116101975780630e89341c1461021b578063124d91e51461023b5780632b4c9f161461024e57600080fd5b8062fdd58e146101bd57806301ffc9a7146101e35780630d6a5bbb14610206575b600080fd5b6101d06101cb366004613024565b610461565b6040519081526020015b60405180910390f35b6101f66101f136600461307c565b610480565b60405190151581526020016101da565b61021961021436600461312e565b610494565b005b61022e6102293660046131d9565b61058f565b6040516101da9190613260565b610219610249366004613273565b6105a3565b7f00000000000000000000000000000000000000000000000000000000000000005b60405173ffffffffffffffffffffffffffffffffffffffff90911681526020016101da565b6102196102a33660046132a6565b6105c7565b6102196102b6366004613361565b610681565b6102c36106b5565b6040516101da92919061338d565b6102e46102df3660046133da565b6106c8565b6040516101da9190613481565b6101f66102ff366004613494565b7f000000000000000000000000000000000000000000000000000000000000000073ffffffffffffffffffffffffffffffffffffffff90811691161490565b61022e61074b565b6102196103543660046134af565b610762565b610219610367366004613517565b6107f4565b61021961037a366004613559565b610854565b61021961038d3660046131d9565b6108de565b6102706108fc565b6101f66103a8366004613361565b610923565b6102196103bb3660046135d7565b610967565b6101d07f6d696e746572000000000000000000000000000000000000000000000000000081565b6102196103f5366004613361565b610984565b6102196109b2565b61021961041036600461360e565b6109dd565b6101f66104233660046136b1565b610b02565b6102196104363660046136db565b610b50565b610219610449366004613494565b610baa565b61021961045c366004613517565b610bc5565b60006104778383610470610bd7565b9190610c05565b90505b92915050565b600061047a8261048e610cbe565b90610cec565b600061049e610dc6565b90506104d47f6d696e7465720000000000000000000000000000000000000000000000000000826104cd610dd0565b9190610dfe565b610585818989898080602002602001604051908101604052809392919081815260200183836020028082843760009201919091525050604080516020808d0282810182019093528c82529093508c92508b91829185019084908082843760009201919091525050604080516020601f8c018190048102820181019092528a815292508a915089908190840183828082843760009201919091525061057b9250610bd7915050565b9493929190610eaa565b5050505050505050565b606061047a8261059d611098565b906110c6565b6105c26105ae610dc6565b8484846105b9610bd7565b939291906110fa565b505050565b6105856105d2610dc6565b898989898080602002602001604051908101604052809392919081815260200183836020028082843760009201919091525050604080516020808d0282810182019093528c82529093508c92508b91829185019084908082843760009201919091525050604080516020601f8c018190048102820181019092528a815292508a91508990819084018382808284376000920191909152506106769250610bd7915050565b9594939291906111d7565b600061068b610dc6565b905061069f8161069961142c565b9061145a565b6105c28383836106ad610dd0565b9291906114dd565b3660006106c06115b4565b915091509091565b60606107428585808060200260200160405190810160405280939291908181526020018383602002808284376000920191909152505060408051602080890282810182019093528882529093508892508791829185019084908082843760009201919091525061073b9250610bd7915050565b91906115bf565b95945050505050565b606061075d610758611098565b6116f4565b905090565b600061076c610dc6565b905061079b7f6d696e7465720000000000000000000000000000000000000000000000000000826104cd610dd0565b6107ec8187878787878080601f0160208091040260200160405190810160405280939291908181526020018383808284376000920191909152506107e29250610bd7915050565b949392919061178a565b505050505050565b6108076107ff610dc6565b61069961142c565b61085082828080601f01602080910402602001604051908101604052809392919081815260200183838082843760009201919091525061084a9250611098915050565b90611898565b5050565b6108d761085f610dc6565b8686868080602002602001604051908101604052809392919081815260200183836020028082843760009201919091525050604080516020808a028281018201909352898252909350899250889182918501908490808284376000920191909152506108ce9250610bd7915050565b939291906118df565b5050505050565b6108f96108e9610dc6565b826108f2610dd0565b9190611a94565b50565b600061075d61090961142c565b5473ffffffffffffffffffffffffffffffffffffffff1690565b60006104778383610932610dd0565b60009283526020908152604080842073ffffffffffffffffffffffffffffffffffffffff909316845291905290205460ff1690565b610850610972610dc6565b838361097c610bd7565b929190611b38565b600061098e610dc6565b905061099c8161069961142c565b6105c28383836109aa610dd0565b929190611c68565b6109cb6109bd610dc6565b6109c561142c565b90611d32565b6109d3611d71565b6109db611da6565b565b60006109e7610dc6565b9050610a167f6d696e7465720000000000000000000000000000000000000000000000000000826104cd610dd0565b610af7818a8a8080602002602001604051908101604052809392919081815260200183836020028082843760009201919091525050604080516020808e0282810182019093528d82529093508d92508c91829185019084908082843760009201919091525050604080516020808d0282810182019093528c82529093508c92508b91829185019084908082843760009201919091525050604080516020601f8c018190048102820181019092528a815292508a9150899081908401838280828437600092019190915250610aed9250610bd7915050565b9493929190611dd4565b505050505050505050565b60006104778383610b11610bd7565b919073ffffffffffffffffffffffffffffffffffffffff9182166000908152600193909301602090815260408085209290931684525290205460ff1690565b6107ec610b5b610dc6565b8787878787878080601f016020809104026020016040519081016040528093929190818152602001838380828437600092019190915250610b9f9250610bd7915050565b959493929190611ec4565b6108f9610bb5610dc6565b82610bbe61142c565b9190612071565b610bcf828261219d565b6108506121fe565b60008061047a60017f5ccf5846fa27a68fafc8e588671a68f5e67c2f9b56af4263806a4d71735e8613613782565b600073ffffffffffffffffffffffffffffffffffffffff8316610c89576040517f08c379a000000000000000000000000000000000000000000000000000000000815260206004820152601e60248201527f455243313135353a2062616c616e6365206f662061646472657373283029000060448201526064015b60405180910390fd5b5060009081526020928352604080822073ffffffffffffffffffffffffffffffffffffffff9390931682529190925290205490565b60008061047a60017fca9d3e17f264b0f3984e2634e94adb37fa3e6a8103f06aeae6fa59e21c769f5e613782565b60007c01000000000000000000000000000000000000000000000000000000007fffffffff00000000000000000000000000000000000000000000000000000000831601610d3c5750600061047a565b7ffe003659000000000000000000000000000000000000000000000000000000007fffffffff00000000000000000000000000000000000000000000000000000000831601610d8d5750600161047a565b507fffffffff00000000000000000000000000000000000000000000000000000000166000908152602091909152604090205460ff1690565b600061075d61222c565b60008061047a60017fc8827d3282af6f37b64c3e9e6f3ac9df286ab0bb0fccd6f8661bf19adb368b23613782565b60008281526020848152604080832073ffffffffffffffffffffffffffffffffffffffff8516845290915290205460ff166105c257610e3c82612236565b604051602001610e4c9190613795565b604080517fffffffffffffffffffffffffffffffffffffffffffffffffffffffffffffffe0818403018152908290527f08c379a0000000000000000000000000000000000000000000000000000000008252610c8091600401613260565b73ffffffffffffffffffffffffffffffffffffffff8416610f27576040517f08c379a000000000000000000000000000000000000000000000000000000000815260206004820152601b60248201527f455243313135353a206d696e7420746f206164647265737328302900000000006044820152606401610c80565b825182518114610f93576040517f08c379a000000000000000000000000000000000000000000000000000000000815260206004820152601c60248201527f455243313135353a20696e636f6e73697374656e7420617272617973000000006044820152606401610c80565b60005b818114610fe357610fdb8887878481518110610fb457610fb4613801565b6020026020010151878581518110610fce57610fce613801565b60200260200101516123c8565b600101610f96565b508473ffffffffffffffffffffffffffffffffffffffff16600073ffffffffffffffffffffffffffffffffffffffff168773ffffffffffffffffffffffffffffffffffffffff167f4a39dc06d4c0dbc64b70af90fd698a233a518aa5d07e595d983b8c0526c8f7fb878760405161105b929190613830565b60405180910390a473ffffffffffffffffffffffffffffffffffffffff85163b1561108f5761108f8660008787878761249c565b50505050505050565b60008061047a60017fe94434e3c6b941c5d90218142fadcc69cb2e13723993540bfa1c131dd1d3475a613782565b6060826110d2836125c4565b6040516020016110e39291906138a8565b604051602081830303815290604052905092915050565b611105858486612701565b61116b576040517f08c379a000000000000000000000000000000000000000000000000000000000815260206004820152601c60248201527f455243313135353a206e6f6e2d617070726f7665642073656e646572000000006044820152606401610c80565b61117785848484612776565b604080518381526020810183905260009173ffffffffffffffffffffffffffffffffffffffff86811692908816917fc3d58168c5ae7397731d063d5bbf3d657854427343f4c083240f7aacaa2d0f62910160405180910390a45050505050565b73ffffffffffffffffffffffffffffffffffffffff8416611254576040517f08c379a000000000000000000000000000000000000000000000000000000000815260206004820152601f60248201527f455243313135353a207472616e7366657220746f2061646472657373283029006044820152606401610c80565b8251825181146112c0576040517f08c379a000000000000000000000000000000000000000000000000000000000815260206004820152601c60248201527f455243313135353a20696e636f6e73697374656e7420617272617973000000006044820152606401610c80565b6112cb888789612701565b611331576040517f08c379a000000000000000000000000000000000000000000000000000000000815260206004820152601c60248201527f455243313135353a206e6f6e2d617070726f7665642073656e646572000000006044820152606401610c80565b60005b8181146113825761137a89888888858151811061135357611353613801565b602002602001015188868151811061136d5761136d613801565b6020026020010151612816565b600101611334565b508473ffffffffffffffffffffffffffffffffffffffff168673ffffffffffffffffffffffffffffffffffffffff168873ffffffffffffffffffffffffffffffffffffffff167f4a39dc06d4c0dbc64b70af90fd698a233a518aa5d07e595d983b8c0526c8f7fb87876040516113f9929190613830565b60405180910390a473ffffffffffffffffffffffffffffffffffffffff85163b156105855761058587878787878761249c565b60008061047a60017fc9ed16f33ab3a66c84bfd83099ccb2a8845871e2e1c1928f63797152f0fd54cd613782565b815473ffffffffffffffffffffffffffffffffffffffff828116911614610850576040517f08c379a000000000000000000000000000000000000000000000000000000000815260206004820152601860248201527f4f776e6572736869703a206e6f7420746865206f776e657200000000000000006044820152606401610c80565b60008381526020858152604080832073ffffffffffffffffffffffffffffffffffffffff8616845290915290205460ff166115ae5760008381526020858152604080832073ffffffffffffffffffffffffffffffffffffffff8681168086529184529382902080547fffffffffffffffffffffffffffffffffffffffffffffffffffffffffffffff00166001179055815187815292830152918316918101919091527f2f8788117e7eff1d82e926ec794901d17c78024a50270940304540a733656f0d906060015b60405180910390a15b50505050565b3660006106c06129cd565b8151815160609190811461162f576040517f08c379a000000000000000000000000000000000000000000000000000000000815260206004820152601c60248201527f455243313135353a20696e636f6e73697374656e7420617272617973000000006044820152606401610c80565b835167ffffffffffffffff8111156116495761164961394d565b604051908082528060200260200182016040528015611672578160200160208202803683370190505b50915060005b8181146116eb576116c685828151811061169457611694613801565b60200260200101518583815181106116ae576116ae613801565b602002602001015188610c059092919063ffffffff16565b8382815181106116d8576116d8613801565b6020908102919091010152600101611678565b50509392505050565b606081600001805461170590613855565b80601f016020809104026020016040519081016040528092919081815260200182805461173190613855565b801561177e5780601f106117535761010080835404028352916020019161177e565b820191906000526020600020905b81548152906001019060200180831161176157829003601f168201915b50505050509050919050565b73ffffffffffffffffffffffffffffffffffffffff8416611807576040517f08c379a000000000000000000000000000000000000000000000000000000000815260206004820152601b60248201527f455243313135353a206d696e7420746f206164647265737328302900000000006044820152606401610c80565b611813868585856123c8565b604080518481526020810184905273ffffffffffffffffffffffffffffffffffffffff80871692600092918916917fc3d58168c5ae7397731d063d5bbf3d657854427343f4c083240f7aacaa2d0f62910160405180910390a473ffffffffffffffffffffffffffffffffffffffff84163b156107ec576107ec856000868686866129d8565b816118a382826139c2565b507f04b1dc5c136a3ce9fded8db0ce3d3366c58764ec3a8e4c2b9e52e4ddfe5ebbf7816040516118d39190613260565b60405180910390a15050565b81518151811461194b576040517f08c379a000000000000000000000000000000000000000000000000000000000815260206004820152601c60248201527f455243313135353a20696e636f6e73697374656e7420617272617973000000006044820152606401610c80565b611956868587612701565b6119bc576040517f08c379a000000000000000000000000000000000000000000000000000000000815260206004820152601c60248201527f455243313135353a206e6f6e2d617070726f7665642073656e646572000000006044820152606401610c80565b60005b818114611a0c57611a0487868684815181106119dd576119dd613801565b60200260200101518685815181106119f7576119f7613801565b6020026020010151612776565b6001016119bf565b50600073ffffffffffffffffffffffffffffffffffffffff168473ffffffffffffffffffffffffffffffffffffffff168673ffffffffffffffffffffffffffffffffffffffff167f4a39dc06d4c0dbc64b70af90fd698a233a518aa5d07e595d983b8c0526c8f7fb8686604051611a84929190613830565b60405180910390a4505050505050565b611a9f838284610dfe565b60008181526020848152604080832073ffffffffffffffffffffffffffffffffffffffff86168085529083529281902080547fffffffffffffffffffffffffffffffffffffffffffffffffffffffffffffff0016905580518481529182018390528101919091527ff6391f5c32d9c69d2a47ea670b442974b53935d1edc7fd64eb21e047a839171b9060600160405180910390a1505050565b8273ffffffffffffffffffffffffffffffffffffffff168273ffffffffffffffffffffffffffffffffffffffff1603611bcd576040517f08c379a000000000000000000000000000000000000000000000000000000000815260206004820152601e60248201527f455243313135353a2073656c662d617070726f76616c20666f7220616c6c00006044820152606401610c80565b73ffffffffffffffffffffffffffffffffffffffff838116600081815260018701602090815260408083209487168084529482529182902080547fffffffffffffffffffffffffffffffffffffffffffffffffffffffffffffff001686151590811790915591519182527f17307eab39ab6107e8899845ad3d59bd9653f200f220920489ca2b5937696c31910160405180910390a350505050565b60008381526020858152604080832073ffffffffffffffffffffffffffffffffffffffff8616845290915290205460ff16156115ae5760008381526020858152604080832073ffffffffffffffffffffffffffffffffffffffff8681168086529184529382902080547fffffffffffffffffffffffffffffffffffffffffffffffffffffffffffffff00169055815187815292830152918316918101919091527ff6391f5c32d9c69d2a47ea670b442974b53935d1edc7fd64eb21e047a839171b906060016115a5565b611d67611d6060017f5b388d90dc1312ba799f321972f13311234fa1163bcabec7cf66101c4876eb84613782565b6001612a34565b6108508282612aa4565b6109db7fd9b67a26000000000000000000000000000000000000000000000000000000006001611d9f610cbe565b9190612b5a565b6109db7f5190c92c000000000000000000000000000000000000000000000000000000006001611d9f610cbe565b8351835181148015611de65750825181145b611e4c576040517f08c379a000000000000000000000000000000000000000000000000000000000815260206004820152601c60248201527f455243313135353a20696e636f6e73697374656e7420617272617973000000006044820152606401610c80565b60005b81811461058557611ebc87878381518110611e6c57611e6c613801565b6020026020010151878481518110611e8657611e86613801565b6020026020010151878581518110611ea057611ea0613801565b6020026020010151878d61178a9095949392919063ffffffff16565b600101611e4f565b73ffffffffffffffffffffffffffffffffffffffff8416611f41576040517f08c379a000000000000000000000000000000000000000000000000000000000815260206004820152601f60248201527f455243313135353a207472616e7366657220746f2061646472657373283029006044820152606401610c80565b611f4c878688612701565b611fb2576040517f08c379a000000000000000000000000000000000000000000000000000000000815260206004820152601c60248201527f455243313135353a206e6f6e2d617070726f7665642073656e646572000000006044820152606401610c80565b611fbf8786868686612816565b8373ffffffffffffffffffffffffffffffffffffffff168573ffffffffffffffffffffffffffffffffffffffff168773ffffffffffffffffffffffffffffffffffffffff167fc3d58168c5ae7397731d063d5bbf3d657854427343f4c083240f7aacaa2d0f62868660405161203e929190918252602082015260400190565b60405180910390a473ffffffffffffffffffffffffffffffffffffffff84163b1561108f5761108f8686868686866129d8565b825473ffffffffffffffffffffffffffffffffffffffff90811690831681146120f6576040517f08c379a000000000000000000000000000000000000000000000000000000000815260206004820152601860248201527f4f776e6572736869703a206e6f7420746865206f776e657200000000000000006044820152606401610c80565b8173ffffffffffffffffffffffffffffffffffffffff168173ffffffffffffffffffffffffffffffffffffffff16146115ae5783547fffffffffffffffffffffffff00000000000000000000000000000000000000001673ffffffffffffffffffffffffffffffffffffffff8381169182178655604051908316907f8be0079c531659141344cd1fd0a4f28419497f9722a3daafe3b4186f6b6457e090600090a350505050565b6121a56109b2565b6121ad612c66565b6121b5612c94565b61085082828080601f0160208091040260200160405190810160405280939291908181526020018383808284376000920191909152506121f89250611098915050565b90612cc2565b6109db7f921ed8d1000000000000000000000000000000000000000000000000000000006001611d9f610cbe565b600061075d612cfa565b6060600082900361225557505060408051602081019091526000815290565b60008260405160200161226a91815260200190565b604080517fffffffffffffffffffffffffffffffffffffffffffffffffffffffffffffffe08184030181529190529050601f5b8181815181106122af576122af613801565b01602001517fff0000000000000000000000000000000000000000000000000000000000000016600003612304577fffffffffffffffffffffffffffffffffffffffffffffffffffffffffffffffff0161229d565b60008160010167ffffffffffffffff8111156123225761232261394d565b6040519080825280601f01601f19166020018201604052801561234c576020820181803683370190505b50905060005b8281116123bf5783818151811061236b5761236b613801565b602001015160f81c60f81b82828151811061238857612388613801565b60200101907effffffffffffffffffffffffffffffffffffffffffffffffffffffffffffff1916908160001a905350600101612352565b50949350505050565b80156115ae5760008281526020858152604080832073ffffffffffffffffffffffffffffffffffffffff87168452909152902054818101818111612468576040517f08c379a000000000000000000000000000000000000000000000000000000000815260206004820152601960248201527f455243313135353a2062616c616e6365206f766572666c6f77000000000000006044820152606401610c80565b60009384526020958652604080852073ffffffffffffffffffffffffffffffffffffffff9690961685529490955250502055565b6040517fbc197c81000000000000000000000000000000000000000000000000000000008082529073ffffffffffffffffffffffffffffffffffffffff86169063bc197c81906124f8908a908a90899089908990600401613adc565b6020604051808303816000875af1158015612517573d6000803e3d6000fd5b505050506040513d601f19601f8201168201806040525081019061253b9190613b47565b7fffffffff0000000000000000000000000000000000000000000000000000000016146107ec576040517f08c379a000000000000000000000000000000000000000000000000000000000815260206004820152601a60248201527f455243313135353a207472616e736665722072656a65637465640000000000006044820152606401610c80565b60608160000361260757505060408051808201909152600181527f3000000000000000000000000000000000000000000000000000000000000000602082015290565b8160005b8115612631578061261b81613b64565b915061262a9050600a83613bcb565b915061260b565b60008167ffffffffffffffff81111561264c5761264c61394d565b6040519080825280601f01601f191660200182016040528015612676576020820181803683370190505b5090505b84156126f95761268b600183613782565b9150612698600a86613bdf565b6126a3906030613bf3565b60f81b8183815181106126b8576126b8613801565b60200101907effffffffffffffffffffffffffffffffffffffffffffffffffffffffffffff1916908160001a9053506126f2600a86613bcb565b945061267a565b949350505050565b60008173ffffffffffffffffffffffffffffffffffffffff168373ffffffffffffffffffffffffffffffffffffffff1614806126f957505073ffffffffffffffffffffffffffffffffffffffff9182166000908152600193909301602090815260408085209290931684525290205460ff1690565b80156115ae5760008281526020858152604080832073ffffffffffffffffffffffffffffffffffffffff87168452909152902054818103818110612468576040517f08c379a000000000000000000000000000000000000000000000000000000000815260206004820152601d60248201527f455243313135353a20696e73756666696369656e742062616c616e63650000006044820152606401610c80565b80156108d75760008281526020868152604080832073ffffffffffffffffffffffffffffffffffffffff881684529091529020548181038181106128b6576040517f08c379a000000000000000000000000000000000000000000000000000000000815260206004820152601d60248201527f455243313135353a20696e73756666696369656e742062616c616e63650000006044820152606401610c80565b8473ffffffffffffffffffffffffffffffffffffffff168673ffffffffffffffffffffffffffffffffffffffff161461108f5760008481526020888152604080832073ffffffffffffffffffffffffffffffffffffffff89168452909152902054838101818111612983576040517f08c379a000000000000000000000000000000000000000000000000000000000815260206004820152601960248201527f455243313135353a2062616c616e6365206f766572666c6f77000000000000006044820152606401610c80565b60009586526020988952604080872073ffffffffffffffffffffffffffffffffffffffff998a16885290995288862092909255509390941682525092909220805490920190915550565b3660006106c0612d04565b6040517ff23a6e61000000000000000000000000000000000000000000000000000000008082529073ffffffffffffffffffffffffffffffffffffffff86169063f23a6e61906124f8908a908a90899089908990600401613c06565b815482908211612aa0576040517f08c379a000000000000000000000000000000000000000000000000000000000815260206004820152601660248201527f53746f726167653a2070686173652072656163686564000000000000000000006044820152606401610c80565b5550565b73ffffffffffffffffffffffffffffffffffffffff811615612b2c5781547fffffffffffffffffffffffff00000000000000000000000000000000000000001673ffffffffffffffffffffffffffffffffffffffff821690811783556040516000907f8be0079c531659141344cd1fd0a4f28419497f9722a3daafe3b4186f6b6457e0908290a35b6108507f7f5828d0000000000000000000000000000000000000000000000000000000006001611d9f610cbe565b7c01000000000000000000000000000000000000000000000000000000007fffffffff00000000000000000000000000000000000000000000000000000000831601612c02576040517f08c379a000000000000000000000000000000000000000000000000000000000815260206004820152601f60248201527f496e74657266616365446574656374696f6e3a2077726f6e672076616c7565006044820152606401610c80565b7fffffffff00000000000000000000000000000000000000000000000000000000919091166000908152602092909252604090912080547fffffffffffffffffffffffffffffffffffffffffffffffffffffffffffffff0016911515919091179055565b6109db7fe8ab9ccc000000000000000000000000000000000000000000000000000000006001611d9f610cbe565b6109db7f0e89341c000000000000000000000000000000000000000000000000000000006001611d9f610cbe565b612cf0611d6060017f4906b284a41a4863b44f418156dc67ff218ba42abca1a1c41f180669c98a302f613782565b6108508282612d0f565b600061075d612d19565b3660006106c0612e60565b6108508282611898565b600033321480612d295750601436105b15612d3357503390565b7fffffffffffffffffffffffffffffffffffffffffffffffffffffffffffffffec36013560601c7f000000000000000000000000000000000000000000000000000000000000000073ffffffffffffffffffffffffffffffffffffffff16331480612e4f57506040517f8929a8ca00000000000000000000000000000000000000000000000000000000815273ffffffffffffffffffffffffffffffffffffffff82811660048301523360248301527f00000000000000000000000000000000000000000000000000000000000000001690638929a8ca90604401602060405180830381865afa158015612e2b573d6000803e3d6000fd5b505050506040513d601f19601f82011682018060405250810190612e4f9190613c56565b15612e5957919050565b3391505090565b36600033321480612e715750601436105b15612e7f5750600091369150565b3373ffffffffffffffffffffffffffffffffffffffff7f0000000000000000000000000000000000000000000000000000000000000000161480612fb4575073ffffffffffffffffffffffffffffffffffffffff7f000000000000000000000000000000000000000000000000000000000000000016638929a8ca367fffffffffffffffffffffffffffffffffffffffffffffffffffffffffffffffec013560601c6040517fffffffff0000000000000000000000000000000000000000000000000000000060e084901b16815273ffffffffffffffffffffffffffffffffffffffff9091166004820152336024820152604401602060405180830381865afa158015612f90573d6000803e3d6000fd5b505050506040513d601f19601f82011682018060405250810190612fb49190613c56565b15612fc1576106c0612fca565b50600091369150565b3660006106c07fffffffffffffffffffffffffffffffffffffffffffffffffffffffffffffffec8301828481613c73565b803573ffffffffffffffffffffffffffffffffffffffff8116811461301f57600080fd5b919050565b6000806040838503121561303757600080fd5b61304083612ffb565b946020939093013593505050565b7fffffffff00000000000000000000000000000000000000000000000000000000811681146108f957600080fd5b60006020828403121561308e57600080fd5b81356130998161304e565b9392505050565b60008083601f8401126130b257600080fd5b50813567ffffffffffffffff8111156130ca57600080fd5b6020830191508360208260051b85010111156130e557600080fd5b9250929050565b60008083601f8401126130fe57600080fd5b50813567ffffffffffffffff81111561311657600080fd5b6020830191508360208285010111156130e557600080fd5b60008060008060008060006080888a03121561314957600080fd5b61315288612ffb565b9650602088013567ffffffffffffffff8082111561316f57600080fd5b61317b8b838c016130a0565b909850965060408a013591508082111561319457600080fd5b6131a08b838c016130a0565b909650945060608a01359150808211156131b957600080fd5b506131c68a828b016130ec565b989b979a50959850939692959293505050565b6000602082840312156131eb57600080fd5b5035919050565b60005b8381101561320d5781810151838201526020016131f5565b50506000910152565b6000815180845261322e8160208601602086016131f2565b601f017fffffffffffffffffffffffffffffffffffffffffffffffffffffffffffffffe0169290920160200192915050565b6020815260006104776020830184613216565b60008060006060848603121561328857600080fd5b61329184612ffb565b95602085013595506040909401359392505050565b60008060008060008060008060a0898b0312156132c257600080fd5b6132cb89612ffb565b97506132d960208a01612ffb565b9650604089013567ffffffffffffffff808211156132f657600080fd5b6133028c838d016130a0565b909850965060608b013591508082111561331b57600080fd5b6133278c838d016130a0565b909650945060808b013591508082111561334057600080fd5b5061334d8b828c016130ec565b999c989b5096995094979396929594505050565b6000806040838503121561337457600080fd5b8235915061338460208401612ffb565b90509250929050565b60208152816020820152818360408301376000818301604090810191909152601f9092017fffffffffffffffffffffffffffffffffffffffffffffffffffffffffffffffe0160101919050565b600080600080604085870312156133f057600080fd5b843567ffffffffffffffff8082111561340857600080fd5b613414888389016130a0565b9096509450602087013591508082111561342d57600080fd5b5061343a878288016130a0565b95989497509550505050565b600081518084526020808501945080840160005b838110156134765781518752958201959082019060010161345a565b509495945050505050565b6020815260006104776020830184613446565b6000602082840312156134a657600080fd5b61047782612ffb565b6000806000806000608086880312156134c757600080fd5b6134d086612ffb565b94506020860135935060408601359250606086013567ffffffffffffffff8111156134fa57600080fd5b613506888289016130ec565b969995985093965092949392505050565b6000806020838503121561352a57600080fd5b823567ffffffffffffffff81111561354157600080fd5b61354d858286016130ec565b90969095509350505050565b60008060008060006060868803121561357157600080fd5b61357a86612ffb565b9450602086013567ffffffffffffffff8082111561359757600080fd5b6135a389838a016130a0565b909650945060408801359150808211156135bc57600080fd5b50613506888289016130a0565b80151581146108f957600080fd5b600080604083850312156135ea57600080fd5b6135f383612ffb565b91506020830135613603816135c9565b809150509250929050565b6000806000806000806000806080898b03121561362a57600080fd5b883567ffffffffffffffff8082111561364257600080fd5b61364e8c838d016130a0565b909a50985060208b013591508082111561366757600080fd5b6136738c838d016130a0565b909850965060408b013591508082111561368c57600080fd5b6136988c838d016130a0565b909650945060608b013591508082111561334057600080fd5b600080604083850312156136c457600080fd5b6136cd83612ffb565b915061338460208401612ffb565b60008060008060008060a087890312156136f457600080fd5b6136fd87612ffb565b955061370b60208801612ffb565b94506040870135935060608701359250608087013567ffffffffffffffff81111561373557600080fd5b61374189828a016130ec565b979a9699509497509295939492505050565b7f4e487b7100000000000000000000000000000000000000000000000000000000600052601160045260246000fd5b8181038181111561047a5761047a613753565b7f416363657373436f6e74726f6c3a206d697373696e67202700000000000000008152600082516137cd8160188501602087016131f2565b7f2720726f6c6500000000000000000000000000000000000000000000000000006018939091019283015250601e01919050565b7f4e487b7100000000000000000000000000000000000000000000000000000000600052603260045260246000fd5b6040815260006138436040830185613446565b82810360208401526107428185613446565b600181811c9082168061386957607f821691505b6020821081036138a2577f4e487b7100000000000000000000000000000000000000000000000000000000600052602260045260246000fd5b50919050565b60008084546138b681613855565b600182811680156138ce576001811461390157613930565b7fffffffffffffffffffffffffffffffffffffffffffffffffffffffffffffff0084168752821515830287019450613930565b8860005260208060002060005b858110156139275781548a82015290840190820161390e565b50505082870194505b5050505083516139448183602088016131f2565b01949350505050565b7f4e487b7100000000000000000000000000000000000000000000000000000000600052604160045260246000fd5b601f8211156105c257600081815260208120601f850160051c810160208610156139a35750805b601f850160051c820191505b818110156107ec578281556001016139af565b815167ffffffffffffffff8111156139dc576139dc61394d565b6139f0816139ea8454613855565b8461397c565b602080601f831160018114613a435760008415613a0d5750858301515b7fffffffffffffffffffffffffffffffffffffffffffffffffffffffffffffffff600386901b1c1916600185901b1785556107ec565b6000858152602081207fffffffffffffffffffffffffffffffffffffffffffffffffffffffffffffffe08616915b82811015613a9057888601518255948401946001909101908401613a71565b5085821015613acc57878501517fffffffffffffffffffffffffffffffffffffffffffffffffffffffffffffffff600388901b60f8161c191681555b5050505050600190811b01905550565b600073ffffffffffffffffffffffffffffffffffffffff808816835280871660208401525060a06040830152613b1560a0830186613446565b8281036060840152613b278186613446565b90508281036080840152613b3b8185613216565b98975050505050505050565b600060208284031215613b5957600080fd5b81516130998161304e565b60007fffffffffffffffffffffffffffffffffffffffffffffffffffffffffffffffff8203613b9557613b95613753565b5060010190565b7f4e487b7100000000000000000000000000000000000000000000000000000000600052601260045260246000fd5b600082613bda57613bda613b9c565b500490565b600082613bee57613bee613b9c565b500690565b8082018082111561047a5761047a613753565b600073ffffffffffffffffffffffffffffffffffffffff808816835280871660208401525084604083015283606083015260a06080830152613c4b60a0830184613216565b979650505050505050565b600060208284031215613c6857600080fd5b8151613099816135c9565b60008085851115613c8357600080fd5b83861115613c9057600080fd5b505082019391909203915056fea264697066735822122007914a48eb9183af8f2e64465400c5acca01f059e090649293ff9689a95b06cc64736f6c63430008100033",
  "linkReferences": {},
  "deployedLinkReferences": {}
}