{
  "_format": "hh-sol-artifact-1",
  "contractName": "CheckpointsFacet",
  "sourceName": "contracts/lifecycle/CheckpointsFacet.sol",
  "abi": [
    {
      "inputs": [
        {
          "internalType": "contract IForwarderRegistry",
          "name": "forwarderRegistry",
          "type": "address"
        }
      ],
      "stateMutability": "nonpayable",
      "type": "constructor"
    },
    {
      "anonymous": false,
      "inputs": [
        {
          "indexed": false,
          "internalType": "bytes32",
          "name": "checkpointId",
          "type": "bytes32"
        },
        {
          "indexed": false,
          "internalType": "uint256",
          "name": "timestamp",
          "type": "uint256"
        }
      ],
      "name": "CheckpointSet",
      "type": "event"
    },
    {
      "inputs": [
        {
          "internalType": "bytes32",
          "name": "checkpointId",
          "type": "bytes32"
        }
      ],
      "name": "checkpoint",
      "outputs": [
        {
          "internalType": "uint256",
          "name": "",
          "type": "uint256"
        }
      ],
      "stateMutability": "view",
      "type": "function"
    },
    {
      "inputs": [
        {
          "internalType": "bytes32",
          "name": "checkpointId",
          "type": "bytes32"
        }
      ],
      "name": "checkpointReached",
      "outputs": [
        {
          "internalType": "bool",
          "name": "",
          "type": "bool"
        }
      ],
      "stateMutability": "view",
      "type": "function"
    },
    {
      "inputs": [
        {
          "internalType": "bytes32[]",
          "name": "checkpointIds",
          "type": "bytes32[]"
        },
        {
          "internalType": "uint256[]",
          "name": "timestamps",
          "type": "uint256[]"
        }
      ],
      "name": "initCheckpointsStorage",
      "outputs": [],
      "stateMutability": "nonpayable",
      "type": "function"
    },
    {
      "inputs": [
        {
          "internalType": "bytes32",
          "name": "checkpointId",
          "type": "bytes32"
        },
        {
          "internalType": "uint256",
          "name": "timestamp",
          "type": "uint256"
        }
      ],
      "name": "setCheckpoint",
      "outputs": [],
      "stateMutability": "nonpayable",
      "type": "function"
    },
    {
      "inputs": [
        {
          "internalType": "bytes32",
          "name": "checkpointId",
          "type": "bytes32"
        }
      ],
      "name": "triggerCheckpoint",
      "outputs": [],
      "stateMutability": "nonpayable",
      "type": "function"
    }
  ],
  "bytecode": "0x60a060405234801561001057600080fd5b50604051610eb6380380610eb683398101604081905261002f91610040565b6001600160a01b0316608052610070565b60006020828403121561005257600080fd5b81516001600160a01b038116811461006957600080fd5b9392505050565b608051610e246100926000396000818161063701526106d70152610e246000f3fe608060405234801561001057600080fd5b50600436106100665760003560e01c80634f410a80116100505780634f410a80146100a85780635b34eba0146100bb578063deb4d746146100dc57600080fd5b8062cb171d1461006b578063151bdba614610080575b600080fd5b61007e610079366004610a82565b6100ef565b005b61009361008e366004610b3b565b610120565b60405190151581526020015b60405180910390f35b61007e6100b6366004610b54565b61013a565b6100ce6100c9366004610b3b565b610167565b60405190815260200161009f565b61007e6100ea366004610b3b565b610185565b6101086100fa6101a5565b6101026101b4565b906101e2565b61011c828261011561026a565b9190610298565b5050565b60006101348261012e61026a565b906103ed565b92915050565b6101536101456101a5565b61014d610413565b90610441565b61011c828261016061026a565b91906104c4565b60006101348261017561026a565b6000918252602052604090205490565b6101906101456101a5565b6101a28161019c61026a565b906105a4565b50565b60006101af6105fb565b905090565b60008061013460017fb53127684a568b3173ae13b9f8a6016e243e63b6e8ee1178d6a717850b5d6104610ba5565b815473ffffffffffffffffffffffffffffffffffffffff82811691161461011c576040517f08c379a000000000000000000000000000000000000000000000000000000000815260206004820152601960248201527f50726f787941646d696e3a206e6f74207468652061646d696e0000000000000060448201526064015b60405180910390fd5b60008061013460017f0def758eb96c12015155889b8e63d1cb5c0dbce5585bbdf9d99ea353f56c716c610ba5565b6102cd6102c660017f8858fdbd26217ba96edbf7aa5726fd62723c732f51b324bfcc76d5301786e85c610ba5565b6001610753565b8051825114610338576040517f08c379a000000000000000000000000000000000000000000000000000000000815260206004820152601f60248201527f436865636b706f696e74733a2077726f6e67206172726179206c656e677468006044820152606401610261565b60005b82518110156103e757600082828151811061035857610358610bbc565b60200260200101519050806000146103d657600084838151811061037e5761037e610bbc565b602090810291909101810151600081815288835260409081902085905580518281529283018590529092507f099ea97db121bdf4a102e67113e27b6bb74713015b32a5f0e1c3ea0d44fb2953910160405180910390a1505b506103e081610beb565b905061033b565b50505050565b600081815260208390526040812054801580159061040b5750804210155b949350505050565b60008061013460017fc9ed16f33ab3a66c84bfd83099ccb2a8845871e2e1c1928f63797152f0fd54cd610ba5565b815473ffffffffffffffffffffffffffffffffffffffff82811691161461011c576040517f08c379a000000000000000000000000000000000000000000000000000000000815260206004820152601860248201527f4f776e6572736869703a206e6f7420746865206f776e657200000000000000006044820152606401610261565b6000828152602084905260409020541561054f576104e1826107c3565b6040516020016104f19190610c4f565b604080517fffffffffffffffffffffffffffffffffffffffffffffffffffffffffffffffe0818403018152908290527f08c379a000000000000000000000000000000000000000000000000000000000825261026191600401610cbb565b801561059f576000828152602084815260409182902083905581518481529081018390527f099ea97db121bdf4a102e67113e27b6bb74713015b32a5f0e1c3ea0d44fb2953910160405180910390a15b505050565b6105ae828261094d565b6000818152602083815260409182902042908190558251848152918201527f099ea97db121bdf4a102e67113e27b6bb74713015b32a5f0e1c3ea0d44fb2953910160405180910390a15050565b60003332810361060a57919050565b6000367fffffffffffffffffffffffffffffffffffffffffffffffffffffffffffffffec013560601c90507f000000000000000000000000000000000000000000000000000000000000000073ffffffffffffffffffffffffffffffffffffffff168273ffffffffffffffffffffffffffffffffffffffff16148061074257506040517fe60125d600000000000000000000000000000000000000000000000000000000815273ffffffffffffffffffffffffffffffffffffffff828116600483015283811660248301527f0000000000000000000000000000000000000000000000000000000000000000169063e60125d690604401602060405180830381865afa15801561071e573d6000803e3d6000fd5b505050506040513d601f19601f820116820180604052508101906107429190610d0c565b1561074d5792915050565b50919050565b8154829082116107bf576040517f08c379a000000000000000000000000000000000000000000000000000000000815260206004820152601860248201527f53746f726167653a2076657273696f6e207265616368656400000000000000006044820152606401610261565b5550565b606060008290036107e257505060408051602081019091526000815290565b6000826040516020016107f791815260200190565b604080517fffffffffffffffffffffffffffffffffffffffffffffffffffffffffffffffe08184030181529190529050601f5b81818151811061083c5761083c610bbc565b01602001517fff000000000000000000000000000000000000000000000000000000000000001660000361087a5761087381610d35565b905061082a565b6000610887826001610d6a565b67ffffffffffffffff81111561089f5761089f610975565b6040519080825280601f01601f1916602001820160405280156108c9576020820181803683370190505b50905060005b828111610944578381815181106108e8576108e8610bbc565b602001015160f81c60f81b82828151811061090557610905610bbc565b60200101907effffffffffffffffffffffffffffffffffffffffffffffffffffffffffffff1916908160001a90535061093d81610beb565b90506108cf565b50949350505050565b61095782826103ed565b1561011c57610965816107c3565b6040516020016104f19190610d82565b7f4e487b7100000000000000000000000000000000000000000000000000000000600052604160045260246000fd5b604051601f82017fffffffffffffffffffffffffffffffffffffffffffffffffffffffffffffffe016810167ffffffffffffffff811182821017156109eb576109eb610975565b604052919050565b600067ffffffffffffffff821115610a0d57610a0d610975565b5060051b60200190565b600082601f830112610a2857600080fd5b81356020610a3d610a38836109f3565b6109a4565b82815260059290921b84018101918181019086841115610a5c57600080fd5b8286015b84811015610a775780358352918301918301610a60565b509695505050505050565b60008060408385031215610a9557600080fd5b823567ffffffffffffffff80821115610aad57600080fd5b818501915085601f830112610ac157600080fd5b81356020610ad1610a38836109f3565b82815260059290921b84018101918181019089841115610af057600080fd5b948201945b83861015610b0e57853582529482019490820190610af5565b96505086013592505080821115610b2457600080fd5b50610b3185828601610a17565b9150509250929050565b600060208284031215610b4d57600080fd5b5035919050565b60008060408385031215610b6757600080fd5b50508035926020909101359150565b7f4e487b7100000000000000000000000000000000000000000000000000000000600052601160045260246000fd5b600082821015610bb757610bb7610b76565b500390565b7f4e487b7100000000000000000000000000000000000000000000000000000000600052603260045260246000fd5b60007fffffffffffffffffffffffffffffffffffffffffffffffffffffffffffffffff8203610c1c57610c1c610b76565b5060010190565b60005b83811015610c3e578181015183820152602001610c26565b838111156103e75750506000910152565b7f436865636b706f696e74733a20636865636b706f696e74202700000000000000815260008251610c87816019850160208701610c23565b7f2720616c726561647920736574000000000000000000000000000000000000006019939091019283015250602601919050565b6020815260008251806020840152610cda816040850160208701610c23565b601f017fffffffffffffffffffffffffffffffffffffffffffffffffffffffffffffffe0169190910160400192915050565b600060208284031215610d1e57600080fd5b81518015158114610d2e57600080fd5b9392505050565b600081610d4457610d44610b76565b507fffffffffffffffffffffffffffffffffffffffffffffffffffffffffffffffff0190565b60008219821115610d7d57610d7d610b76565b500190565b7f436865636b706f696e74733a20636865636b706f696e74202700000000000000815260008251610dba816019850160208701610c23565b7f2720616c726561647920726561636865640000000000000000000000000000006019939091019283015250602a0191905056fea2646970667358221220c69610c6b454472992cd444386c608c9d66561da9878a50f1fdf6a5224927f9464736f6c634300080e0033",
  "linkReferences": {},
  "deployedLinkReferences": {}
}