{
  "_format": "hh-sol-artifact-1",
  "contractName": "ERC1155FullBurn",
  "sourceName": "contracts/token/ERC1155/preset/ERC1155FullBurn.sol",
  "abi": [
    {
      "inputs": [
        {
          "internalType": "string",
          "name": "tokenName",
          "type": "string"
        },
        {
          "internalType": "string",
          "name": "tokenSymbol",
          "type": "string"
        },
        {
          "internalType": "contract ITokenMetadataResolver",
          "name": "metadataResolver",
          "type": "address"
        },
        {
          "internalType": "contract IOperatorFilterRegistry",
          "name": "filterRegistry",
          "type": "address"
        },
        {
          "internalType": "contract IForwarderRegistry",
          "name": "forwarderRegistry",
          "type": "address"
        }
      ],
      "stateMutability": "nonpayable",
      "type": "constructor"
    },
    {
      "inputs": [],
      "name": "ERC1155BalanceOfAddressZero",
      "type": "error"
    },
    {
      "inputs": [
        {
          "internalType": "address",
          "name": "recipient",
          "type": "address"
        },
        {
          "internalType": "uint256",
          "name": "id",
          "type": "uint256"
        },
        {
          "internalType": "uint256",
          "name": "balance",
          "type": "uint256"
        },
        {
          "internalType": "uint256",
          "name": "value",
          "type": "uint256"
        }
      ],
      "name": "ERC1155BalanceOverflow",
      "type": "error"
    },
    {
      "inputs": [
        {
          "internalType": "address",
          "name": "owner",
          "type": "address"
        },
        {
          "internalType": "uint256",
          "name": "id",
          "type": "uint256"
        },
        {
          "internalType": "uint256",
          "name": "balance",
          "type": "uint256"
        },
        {
          "internalType": "uint256",
          "name": "value",
          "type": "uint256"
        }
      ],
      "name": "ERC1155InsufficientBalance",
      "type": "error"
    },
    {
      "inputs": [],
      "name": "ERC1155MintToAddressZero",
      "type": "error"
    },
    {
      "inputs": [
        {
          "internalType": "address",
          "name": "sender",
          "type": "address"
        },
        {
          "internalType": "address",
          "name": "owner",
          "type": "address"
        }
      ],
      "name": "ERC1155NonApproved",
      "type": "error"
    },
    {
      "inputs": [
        {
          "internalType": "address",
          "name": "recipient",
          "type": "address"
        },
        {
          "internalType": "uint256[]",
          "name": "ids",
          "type": "uint256[]"
        },
        {
          "internalType": "uint256[]",
          "name": "values",
          "type": "uint256[]"
        }
      ],
      "name": "ERC1155SafeBatchTransferRejected",
      "type": "error"
    },
    {
      "inputs": [
        {
          "internalType": "address",
          "name": "recipient",
          "type": "address"
        },
        {
          "internalType": "uint256",
          "name": "id",
          "type": "uint256"
        },
        {
          "internalType": "uint256",
          "name": "value",
          "type": "uint256"
        }
      ],
      "name": "ERC1155SafeTransferRejected",
      "type": "error"
    },
    {
      "inputs": [
        {
          "internalType": "address",
          "name": "account",
          "type": "address"
        }
      ],
      "name": "ERC1155SelfApprovalForAll",
      "type": "error"
    },
    {
      "inputs": [],
      "name": "ERC1155TransferToAddressZero",
      "type": "error"
    },
    {
      "inputs": [
        {
          "internalType": "uint256",
          "name": "percentage",
          "type": "uint256"
        }
      ],
      "name": "ERC2981IncorrectRoyaltyPercentage",
      "type": "error"
    },
    {
      "inputs": [],
      "name": "ERC2981IncorrectRoyaltyReceiver",
      "type": "error"
    },
    {
      "inputs": [],
      "name": "IllegalInterfaceId",
      "type": "error"
    },
    {
      "inputs": [],
      "name": "InconsistentArrayLengths",
      "type": "error"
    },
    {
      "inputs": [
        {
          "internalType": "address",
          "name": "account",
          "type": "address"
        }
      ],
      "name": "NotContractOwner",
      "type": "error"
    },
    {
      "inputs": [
        {
          "internalType": "bytes32",
          "name": "role",
          "type": "bytes32"
        },
        {
          "internalType": "address",
          "name": "account",
          "type": "address"
        }
      ],
      "name": "NotRoleHolder",
      "type": "error"
    },
    {
      "inputs": [
        {
          "internalType": "address",
          "name": "operator",
          "type": "address"
        }
      ],
      "name": "OperatorNotAllowed",
      "type": "error"
    },
    {
      "anonymous": false,
      "inputs": [
        {
          "indexed": true,
          "internalType": "address",
          "name": "owner",
          "type": "address"
        },
        {
          "indexed": true,
          "internalType": "address",
          "name": "operator",
          "type": "address"
        },
        {
          "indexed": false,
          "internalType": "bool",
          "name": "approved",
          "type": "bool"
        }
      ],
      "name": "ApprovalForAll",
      "type": "event"
    },
    {
      "anonymous": false,
      "inputs": [
        {
          "indexed": true,
          "internalType": "address",
          "name": "previousOwner",
          "type": "address"
        },
        {
          "indexed": true,
          "internalType": "address",
          "name": "newOwner",
          "type": "address"
        }
      ],
      "name": "OwnershipTransferred",
      "type": "event"
    },
    {
      "anonymous": false,
      "inputs": [
        {
          "indexed": false,
          "internalType": "bytes32",
          "name": "role",
          "type": "bytes32"
        },
        {
          "indexed": false,
          "internalType": "address",
          "name": "account",
          "type": "address"
        },
        {
          "indexed": false,
          "internalType": "address",
          "name": "operator",
          "type": "address"
        }
      ],
      "name": "RoleGranted",
      "type": "event"
    },
    {
      "anonymous": false,
      "inputs": [
        {
          "indexed": false,
          "internalType": "bytes32",
          "name": "role",
          "type": "bytes32"
        },
        {
          "indexed": false,
          "internalType": "address",
          "name": "account",
          "type": "address"
        },
        {
          "indexed": false,
          "internalType": "address",
          "name": "operator",
          "type": "address"
        }
      ],
      "name": "RoleRevoked",
      "type": "event"
    },
    {
      "anonymous": false,
      "inputs": [
        {
          "indexed": true,
          "internalType": "address",
          "name": "operator",
          "type": "address"
        },
        {
          "indexed": true,
          "internalType": "address",
          "name": "from",
          "type": "address"
        },
        {
          "indexed": true,
          "internalType": "address",
          "name": "to",
          "type": "address"
        },
        {
          "indexed": false,
          "internalType": "uint256[]",
          "name": "ids",
          "type": "uint256[]"
        },
        {
          "indexed": false,
          "internalType": "uint256[]",
          "name": "values",
          "type": "uint256[]"
        }
      ],
      "name": "TransferBatch",
      "type": "event"
    },
    {
      "anonymous": false,
      "inputs": [
        {
          "indexed": true,
          "internalType": "address",
          "name": "operator",
          "type": "address"
        },
        {
          "indexed": true,
          "internalType": "address",
          "name": "from",
          "type": "address"
        },
        {
          "indexed": true,
          "internalType": "address",
          "name": "to",
          "type": "address"
        },
        {
          "indexed": false,
          "internalType": "uint256",
          "name": "id",
          "type": "uint256"
        },
        {
          "indexed": false,
          "internalType": "uint256",
          "name": "value",
          "type": "uint256"
        }
      ],
      "name": "TransferSingle",
      "type": "event"
    },
    {
      "anonymous": false,
      "inputs": [
        {
          "indexed": false,
          "internalType": "string",
          "name": "value",
          "type": "string"
        },
        {
          "indexed": true,
          "internalType": "uint256",
          "name": "id",
          "type": "uint256"
        }
      ],
      "name": "URI",
      "type": "event"
    },
    {
      "inputs": [],
      "name": "MINTER_ROLE",
      "outputs": [
        {
          "internalType": "bytes32",
          "name": "",
          "type": "bytes32"
        }
      ],
      "stateMutability": "view",
      "type": "function"
    },
    {
      "inputs": [],
      "name": "ROYALTY_FEE_DENOMINATOR",
      "outputs": [
        {
          "internalType": "uint256",
          "name": "",
          "type": "uint256"
        }
      ],
      "stateMutability": "view",
      "type": "function"
    },
    {
      "inputs": [
        {
          "internalType": "address",
          "name": "owner",
          "type": "address"
        },
        {
          "internalType": "uint256",
          "name": "id",
          "type": "uint256"
        }
      ],
      "name": "balanceOf",
      "outputs": [
        {
          "internalType": "uint256",
          "name": "balance",
          "type": "uint256"
        }
      ],
      "stateMutability": "view",
      "type": "function"
    },
    {
      "inputs": [
        {
          "internalType": "address[]",
          "name": "owners",
          "type": "address[]"
        },
        {
          "internalType": "uint256[]",
          "name": "ids",
          "type": "uint256[]"
        }
      ],
      "name": "balanceOfBatch",
      "outputs": [
        {
          "internalType": "uint256[]",
          "name": "balances",
          "type": "uint256[]"
        }
      ],
      "stateMutability": "view",
      "type": "function"
    },
    {
      "inputs": [
        {
          "internalType": "address",
          "name": "from",
          "type": "address"
        },
        {
          "internalType": "uint256[]",
          "name": "ids",
          "type": "uint256[]"
        },
        {
          "internalType": "uint256[]",
          "name": "values",
          "type": "uint256[]"
        }
      ],
      "name": "batchBurnFrom",
      "outputs": [],
      "stateMutability": "nonpayable",
      "type": "function"
    },
    {
      "inputs": [
        {
          "internalType": "address",
          "name": "from",
          "type": "address"
        },
        {
          "internalType": "uint256",
          "name": "id",
          "type": "uint256"
        },
        {
          "internalType": "uint256",
          "name": "value",
          "type": "uint256"
        }
      ],
      "name": "burnFrom",
      "outputs": [],
      "stateMutability": "nonpayable",
      "type": "function"
    },
    {
      "inputs": [],
      "name": "forwarderRegistry",
      "outputs": [
        {
          "internalType": "contract IForwarderRegistry",
          "name": "",
          "type": "address"
        }
      ],
      "stateMutability": "view",
      "type": "function"
    },
    {
      "inputs": [
        {
          "internalType": "bytes32",
          "name": "role",
          "type": "bytes32"
        },
        {
          "internalType": "address",
          "name": "account",
          "type": "address"
        }
      ],
      "name": "grantRole",
      "outputs": [],
      "stateMutability": "nonpayable",
      "type": "function"
    },
    {
      "inputs": [
        {
          "internalType": "bytes32",
          "name": "role",
          "type": "bytes32"
        },
        {
          "internalType": "address",
          "name": "account",
          "type": "address"
        }
      ],
      "name": "hasRole",
      "outputs": [
        {
          "internalType": "bool",
          "name": "hasRole_",
          "type": "bool"
        }
      ],
      "stateMutability": "view",
      "type": "function"
    },
    {
      "inputs": [
        {
          "internalType": "address",
          "name": "owner",
          "type": "address"
        },
        {
          "internalType": "address",
          "name": "operator",
          "type": "address"
        }
      ],
      "name": "isApprovedForAll",
      "outputs": [
        {
          "internalType": "bool",
          "name": "approvedForAll",
          "type": "bool"
        }
      ],
      "stateMutability": "view",
      "type": "function"
    },
    {
      "inputs": [
        {
          "internalType": "address",
          "name": "forwarder",
          "type": "address"
        }
      ],
      "name": "isTrustedForwarder",
      "outputs": [
        {
          "internalType": "bool",
          "name": "",
          "type": "bool"
        }
      ],
      "stateMutability": "view",
      "type": "function"
    },
    {
      "inputs": [],
      "name": "metadataResolver",
      "outputs": [
        {
          "internalType": "contract ITokenMetadataResolver",
          "name": "tokenMetadataResolver",
          "type": "address"
        }
      ],
      "stateMutability": "view",
      "type": "function"
    },
    {
      "inputs": [],
      "name": "name",
      "outputs": [
        {
          "internalType": "string",
          "name": "tokenName",
          "type": "string"
        }
      ],
      "stateMutability": "view",
      "type": "function"
    },
    {
      "inputs": [],
      "name": "operatorFilterRegistry",
      "outputs": [
        {
          "internalType": "contract IOperatorFilterRegistry",
          "name": "",
          "type": "address"
        }
      ],
      "stateMutability": "view",
      "type": "function"
    },
    {
      "inputs": [],
      "name": "owner",
      "outputs": [
        {
          "internalType": "address",
          "name": "",
          "type": "address"
        }
      ],
      "stateMutability": "view",
      "type": "function"
    },
    {
      "inputs": [
        {
          "internalType": "address[]",
          "name": "accounts",
          "type": "address[]"
        },
        {
          "internalType": "contract IERC20[]",
          "name": "tokens",
          "type": "address[]"
        },
        {
          "internalType": "uint256[]",
          "name": "amounts",
          "type": "uint256[]"
        }
      ],
      "name": "recoverERC20s",
      "outputs": [],
      "stateMutability": "nonpayable",
      "type": "function"
    },
    {
      "inputs": [
        {
          "internalType": "address[]",
          "name": "accounts",
          "type": "address[]"
        },
        {
          "internalType": "contract IERC721[]",
          "name": "contracts",
          "type": "address[]"
        },
        {
          "internalType": "uint256[]",
          "name": "tokenIds",
          "type": "uint256[]"
        }
      ],
      "name": "recoverERC721s",
      "outputs": [],
      "stateMutability": "nonpayable",
      "type": "function"
    },
    {
      "inputs": [
        {
          "internalType": "address payable[]",
          "name": "accounts",
          "type": "address[]"
        },
        {
          "internalType": "uint256[]",
          "name": "amounts",
          "type": "uint256[]"
        }
      ],
      "name": "recoverETH",
      "outputs": [],
      "stateMutability": "nonpayable",
      "type": "function"
    },
    {
      "inputs": [
        {
          "internalType": "bytes32",
          "name": "role",
          "type": "bytes32"
        }
      ],
      "name": "renounceRole",
      "outputs": [],
      "stateMutability": "nonpayable",
      "type": "function"
    },
    {
      "inputs": [
        {
          "internalType": "bytes32",
          "name": "role",
          "type": "bytes32"
        },
        {
          "internalType": "address",
          "name": "account",
          "type": "address"
        }
      ],
      "name": "revokeRole",
      "outputs": [],
      "stateMutability": "nonpayable",
      "type": "function"
    },
    {
      "inputs": [
        {
          "internalType": "uint256",
          "name": "tokenId",
          "type": "uint256"
        },
        {
          "internalType": "uint256",
          "name": "salePrice",
          "type": "uint256"
        }
      ],
      "name": "royaltyInfo",
      "outputs": [
        {
          "internalType": "address",
          "name": "receiver",
          "type": "address"
        },
        {
          "internalType": "uint256",
          "name": "royaltyAmount",
          "type": "uint256"
        }
      ],
      "stateMutability": "view",
      "type": "function"
    },
    {
      "inputs": [
        {
          "internalType": "address",
          "name": "to",
          "type": "address"
        },
        {
          "internalType": "uint256[]",
          "name": "ids",
          "type": "uint256[]"
        },
        {
          "internalType": "uint256[]",
          "name": "values",
          "type": "uint256[]"
        },
        {
          "internalType": "bytes",
          "name": "data",
          "type": "bytes"
        }
      ],
      "name": "safeBatchMint",
      "outputs": [],
      "stateMutability": "nonpayable",
      "type": "function"
    },
    {
      "inputs": [
        {
          "internalType": "address",
          "name": "from",
          "type": "address"
        },
        {
          "internalType": "address",
          "name": "to",
          "type": "address"
        },
        {
          "internalType": "uint256[]",
          "name": "ids",
          "type": "uint256[]"
        },
        {
          "internalType": "uint256[]",
          "name": "values",
          "type": "uint256[]"
        },
        {
          "internalType": "bytes",
          "name": "data",
          "type": "bytes"
        }
      ],
      "name": "safeBatchTransferFrom",
      "outputs": [],
      "stateMutability": "nonpayable",
      "type": "function"
    },
    {
      "inputs": [
        {
          "internalType": "address[]",
          "name": "recipients",
          "type": "address[]"
        },
        {
          "internalType": "uint256[]",
          "name": "ids",
          "type": "uint256[]"
        },
        {
          "internalType": "uint256[]",
          "name": "values",
          "type": "uint256[]"
        },
        {
          "internalType": "bytes",
          "name": "data",
          "type": "bytes"
        }
      ],
      "name": "safeDeliver",
      "outputs": [],
      "stateMutability": "nonpayable",
      "type": "function"
    },
    {
      "inputs": [
        {
          "internalType": "address",
          "name": "to",
          "type": "address"
        },
        {
          "internalType": "uint256",
          "name": "id",
          "type": "uint256"
        },
        {
          "internalType": "uint256",
          "name": "value",
          "type": "uint256"
        },
        {
          "internalType": "bytes",
          "name": "data",
          "type": "bytes"
        }
      ],
      "name": "safeMint",
      "outputs": [],
      "stateMutability": "nonpayable",
      "type": "function"
    },
    {
      "inputs": [
        {
          "internalType": "address",
          "name": "from",
          "type": "address"
        },
        {
          "internalType": "address",
          "name": "to",
          "type": "address"
        },
        {
          "internalType": "uint256",
          "name": "id",
          "type": "uint256"
        },
        {
          "internalType": "uint256",
          "name": "value",
          "type": "uint256"
        },
        {
          "internalType": "bytes",
          "name": "data",
          "type": "bytes"
        }
      ],
      "name": "safeTransferFrom",
      "outputs": [],
      "stateMutability": "nonpayable",
      "type": "function"
    },
    {
      "inputs": [
        {
          "internalType": "address",
          "name": "operator",
          "type": "address"
        },
        {
          "internalType": "bool",
          "name": "approved",
          "type": "bool"
        }
      ],
      "name": "setApprovalForAll",
      "outputs": [],
      "stateMutability": "nonpayable",
      "type": "function"
    },
    {
      "inputs": [
        {
          "internalType": "uint256",
          "name": "percentage",
          "type": "uint256"
        }
      ],
      "name": "setRoyaltyPercentage",
      "outputs": [],
      "stateMutability": "nonpayable",
      "type": "function"
    },
    {
      "inputs": [
        {
          "internalType": "address",
          "name": "receiver",
          "type": "address"
        }
      ],
      "name": "setRoyaltyReceiver",
      "outputs": [],
      "stateMutability": "nonpayable",
      "type": "function"
    },
    {
      "inputs": [
        {
          "internalType": "bytes4",
          "name": "interfaceId",
          "type": "bytes4"
        }
      ],
      "name": "supportsInterface",
      "outputs": [
        {
          "internalType": "bool",
          "name": "",
          "type": "bool"
        }
      ],
      "stateMutability": "view",
      "type": "function"
    },
    {
      "inputs": [],
      "name": "symbol",
      "outputs": [
        {
          "internalType": "string",
          "name": "tokenSymbol",
          "type": "string"
        }
      ],
      "stateMutability": "view",
      "type": "function"
    },
    {
      "inputs": [
        {
          "internalType": "address",
          "name": "newOwner",
          "type": "address"
        }
      ],
      "name": "transferOwnership",
      "outputs": [],
      "stateMutability": "nonpayable",
      "type": "function"
    },
    {
      "inputs": [
        {
          "internalType": "contract IOperatorFilterRegistry",
          "name": "registry",
          "type": "address"
        }
      ],
      "name": "updateOperatorFilterRegistry",
      "outputs": [],
      "stateMutability": "nonpayable",
      "type": "function"
    },
    {
      "inputs": [
        {
          "internalType": "uint256",
          "name": "tokenId",
          "type": "uint256"
        }
      ],
      "name": "uri",
      "outputs": [
        {
          "internalType": "string",
          "name": "metadataURI",
          "type": "string"
        }
      ],
      "stateMutability": "view",
      "type": "function"
    }
  ],
  "bytecode": "0x60a060405234801562000010575f80fd5b50604051620042e2380380620042e2833981016040819052620000339162000434565b80808686868633620000508162000049620000f2565b9062000127565b506200005b620001a1565b62000088816200006a620001bb565b9081546001600160a01b0319166001600160a01b0391909116179055565b50620000a38383836200009a620001ea565b92919062000219565b620000ad62000260565b50620000bb91505062000278565b620000c562000290565b620000cf620002a8565b620000d9620002c0565b6001600160a01b0316608052506200064e945050505050565b5f806200012160017fc9ed16f33ab3a66c84bfd83099ccb2a8845871e2e1c1928f63797152f0fd54cd620004da565b92915050565b6001600160a01b038116156200017d5781546001600160a01b0319166001600160a01b03821690811783556040515f907f8be0079c531659141344cd1fd0a4f28419497f9722a3daafe3b4186f6b6457e0908290a35b6200019d6307f5828d60e41b600162000195620002d3565b919062000302565b5050565b620001b9636cdb3d1360e11b600162000195620002d3565b565b5f806200012160017f609b85bcafa81ecfaf3ff62cdde2c6c9082a68dbe4922f07399c706bdeb7cd31620004da565b5f806200012160017f7ea68fd2dcf1c056b94db6a0a537aa80d26fa9ab1eacd85da1ba0b61b7e7a8a5620004da565b8362000226848262000586565b506001840162000237838262000586565b5060029390930180546001600160a01b0319166001600160a01b03909416939093179092555050565b620001b96303a24d0760e21b600162000195620002d3565b620001b9631464324b60e21b600162000195620002d3565b620001b9633a2ae73360e21b600162000195620002d3565b620001b963921ed8d160e01b600162000195620002d3565b620001b963152a902d60e11b6001620001955b5f806200012160017fca9d3e17f264b0f3984e2634e94adb37fa3e6a8103f06aeae6fa59e21c769f5e620004da565b600160e01b6001600160e01b031983160162000331576040516372c683bb60e01b815260040160405180910390fd5b6001600160e01b0319919091165f9081526020929092526040909120805460ff1916911515919091179055565b634e487b7160e01b5f52604160045260245ffd5b5f82601f83011262000382575f80fd5b81516001600160401b03808211156200039f576200039f6200035e565b604051601f8301601f19908116603f01168101908282118183101715620003ca57620003ca6200035e565b81604052838152602092508683858801011115620003e6575f80fd5b5f91505b83821015620004095785820183015181830184015290820190620003ea565b5f93810190920192909252949350505050565b6001600160a01b038116811462000431575f80fd5b50565b5f805f805f60a0868803121562000449575f80fd5b85516001600160401b038082111562000460575f80fd5b6200046e89838a0162000372565b9650602088015191508082111562000484575f80fd5b50620004938882890162000372565b9450506040860151620004a6816200041c565b6060870151909350620004b9816200041c565b6080870151909250620004cc816200041c565b809150509295509295909350565b818103818111156200012157634e487b7160e01b5f52601160045260245ffd5b600181811c908216806200050f57607f821691505b6020821081036200052e57634e487b7160e01b5f52602260045260245ffd5b50919050565b601f82111562000581575f81815260208120601f850160051c810160208610156200055c5750805b601f850160051c820191505b818110156200057d5782815560010162000568565b5050505b505050565b81516001600160401b03811115620005a257620005a26200035e565b620005ba81620005b38454620004fa565b8462000534565b602080601f831160018114620005f0575f8415620005d85750858301515b5f19600386901b1c1916600185901b1785556200057d565b5f85815260208120601f198616915b828110156200062057888601518255948401946001909101908401620005ff565b50858210156200063e57878501515f19600388901b60f8161c191681555b5050505050600190811b01905550565b608051613c666200067c5f395f818161030b015281816103a6015281816126fc01526127840152613c665ff3fe608060405234801561000f575f80fd5b506004361061021a575f3560e01c80638bb9c5bf11610123578063c3666c36116100b8578063e8ab9ccc11610088578063f242432a1161006e578063f242432a14610518578063f2fde38b1461052b578063f7ba94bd1461053e575f80fd5b8063e8ab9ccc146104f2578063e985e9c514610505575f80fd5b8063c3666c361461049b578063d5391393146104ae578063d547741f146104d5578063e1a8bf2c146104e8575f80fd5b806395d89b41116100f357806395d89b4114610470578063a0c76f6214610478578063a22cb46514610480578063b0ccc31e14610493575f80fd5b80638bb9c5bf1461042f5780638da5cb5b146104425780638dc251e31461044a57806391d148541461045d575f80fd5b80632b4c9f16116101b3578063572b6c051161018357806361ba27da1161016957806361ba27da146103f657806373c8a95814610409578063805349341461041c575f80fd5b8063572b6c05146103965780635cfa9297146103e3575f80fd5b80632b4c9f16146103095780632eb2c2d6146103505780632f2ff15d146103635780634e1273f414610376575f80fd5b80630e89341c116101ee5780630e89341c14610291578063114ba8ee146102a4578063124d91e5146102b75780632a55205a146102ca575f80fd5b8062fdd58e1461021e57806301ffc9a71461024457806306fdde03146102675780630d6a5bbb1461027c575b5f80fd5b61023161022c366004613159565b610551565b6040519081526020015b60405180910390f35b6102576102523660046131b0565b61056f565b604051901515815260200161023b565b61026f610582565b60405161023b919061323d565b61028f61028a3660046132ce565b610599565b005b61026f61029f366004613373565b610690565b61028f6102b236600461338a565b6106a6565b61028f6102c53660046133a5565b610711565b6102dd6102d83660046133d7565b610735565b6040805173ffffffffffffffffffffffffffffffffffffffff909316835260208301919091520161023b565b7f00000000000000000000000000000000000000000000000000000000000000005b60405173ffffffffffffffffffffffffffffffffffffffff909116815260200161023b565b61028f61035e3660046133f7565b610757565b61028f6103713660046134ae565b6107a3565b6103896103843660046134dc565b6107d0565b60405161023b919061357c565b6102576103a436600461338a565b7f000000000000000000000000000000000000000000000000000000000000000073ffffffffffffffffffffffffffffffffffffffff90811691161490565b61028f6103f136600461358e565b6107f5565b61028f610404366004613373565b610885565b61028f6104173660046135f3565b6108a2565b61028f61042a366004613686565b61098c565b61028f61043d366004613373565b6109b6565b61032b6109d1565b61028f61045836600461338a565b6109f7565b61025761046b3660046134ae565b610a14565b61026f610a56565b61032b610a68565b61028f61048e3660046136ff565b610a91565b61032b610aca565b61028f6104a93660046135f3565b610ad6565b6102317f6d696e746572000000000000000000000000000000000000000000000000000081565b61028f6104e33660046134ae565b610c47565b610231620186a081565b61028f61050036600461372b565b610c74565b6102576105133660046137c5565b610d89565b61028f6105263660046137f1565b610dd5565b61028f61053936600461338a565b610e14565b61028f61054c3660046134dc565b610e2f565b5f610566838361055f610ee4565b9190610f11565b90505b92915050565b5f6105698261057c610f93565b90610fc0565b606061059461058f611097565b6110c4565b905090565b5f6105a2611157565b90506105d87f6d696e7465720000000000000000000000000000000000000000000000000000826105d1611160565b919061118d565b61068681898989808060200260200160405190810160405280939291908181526020018383602002808284375f9201919091525050604080516020808d0282810182019093528c82529093508c92508b9182918501908490808284375f9201919091525050604080516020601f8c018190048102820181019092528a815292508a91508990819084018382808284375f9201919091525061067c9250610ee4915050565b9493929190611217565b5050505050505050565b6060610569308361069f611097565b9190611399565b6106bf6106b1611157565b6106b9611455565b90611482565b61070e816106cb6114ed565b9081547fffffffffffffffffffffffff00000000000000000000000000000000000000001673ffffffffffffffffffffffffffffffffffffffff91909116179055565b50565b61073061071c611157565b848484610727610ee4565b9392919061155c565b505050565b5f8061074b8484610744611628565b9190611655565b915091505b9250929050565b5f610760611157565b9050610776818a61076f6114ed565b91906116fd565b610798818a8a8a8a8a8a8a8a61078a610ee4565b98979695949392919061173a565b505050505050505050565b5f6107ac611157565b90506107ba816106b9611455565b6107308383836107c8611160565b9291906119be565b60606107ea858585856107e1610ee4565b93929190611a93565b90505b949350505050565b5f6107fe611157565b905061082d7f6d696e7465720000000000000000000000000000000000000000000000000000826105d1611160565b61087d8187878787878080601f0160208091040260200160405190810160405280939291908181526020018383808284375f920191909152506108739250610ee4915050565b9493929190611ba0565b505050505050565b6108906106b1611157565b61070e8161089c611628565b90611c7c565b6108ad6106b1611157565b8483811415806108bd5750808214155b156108f4576040517f6582533600000000000000000000000000000000000000000000000000000000815260040160405180910390fd5b5f5b8181146106865761098488888381811061091257610912613856565b9050602002016020810190610927919061338a565b85858481811061093957610939613856565b9050602002013588888581811061095257610952613856565b9050602002016020810190610967919061338a565b73ffffffffffffffffffffffffffffffffffffffff169190611d02565b6001016108f6565b6109af610997611157565b86868686866109a4610ee4565b959493929190611d8f565b5050505050565b61070e6109c1611157565b826109ca611160565b9190611f04565b5f6105946109dd611455565b5473ffffffffffffffffffffffffffffffffffffffff1690565b610a026106b1611157565b61070e81610a0e611628565b90611fa7565b5f6105668383610a22611160565b5f9283526020908152604080842073ffffffffffffffffffffffffffffffffffffffff909316845291905290205460ff1690565b6060610594610a63611097565b611ff4565b5f610594610a74611097565b6002015473ffffffffffffffffffffffffffffffffffffffff1690565b8015610aa957610aa982610aa36114ed565b90612005565b610ac6610ab4611157565b8383610abe610ee4565b92919061200f565b5050565b5f6105946109dd6114ed565b610ae16106b1611157565b848381141580610af15750808214155b15610b28576040517f6582533600000000000000000000000000000000000000000000000000000000815260040160405180910390fd5b5f5b81811461068657858582818110610b4357610b43613856565b9050602002016020810190610b58919061338a565b73ffffffffffffffffffffffffffffffffffffffff166323b872dd308a8a85818110610b8657610b86613856565b9050602002016020810190610b9b919061338a565b878786818110610bad57610bad613856565b6040517fffffffff0000000000000000000000000000000000000000000000000000000060e088901b16815273ffffffffffffffffffffffffffffffffffffffff9586166004820152949093166024850152506020909102013560448201526064015f604051808303815f87803b158015610c26575f80fd5b505af1158015610c38573d5f803e3d5ffd5b50505050806001019050610b2a565b5f610c50611157565b9050610c5e816106b9611455565b610730838383610c6c611160565b929190612126565b5f610c7d611157565b9050610cac7f6d696e7465720000000000000000000000000000000000000000000000000000826105d1611160565b610798818a8a808060200260200160405190810160405280939291908181526020018383602002808284375f9201919091525050604080516020808e0282810182019093528d82529093508d92508c9182918501908490808284375f9201919091525050604080516020808d0282810182019093528c82529093508c92508b9182918501908490808284375f9201919091525050604080516020601f8c018190048102820181019092528a815292508a91508990819084018382808284375f92019190915250610d7f9250610ee4915050565b94939291906121ee565b5f6105668383610d97610ee4565b919073ffffffffffffffffffffffffffffffffffffffff9182165f908152600193909301602090815260408085209290931684525290205460ff1690565b5f610dde611157565b9050610ded818861076f6114ed565b610e0b81888888888888610dff610ee4565b969594939291906122af565b50505050505050565b61070e610e1f611157565b82610e28611455565b9190612451565b610e3a6106b1611157565b82818114610e74576040517f6582533600000000000000000000000000000000000000000000000000000000815260040160405180910390fd5b5f5b81811461087d57610edc848483818110610e9257610e92613856565b90506020020135878784818110610eab57610eab613856565b9050602002016020810190610ec0919061338a565b73ffffffffffffffffffffffffffffffffffffffff1690612564565b600101610e76565b5f8061056960017f5ccf5846fa27a68fafc8e588671a68f5e67c2f9b56af4263806a4d71735e86136138b0565b5f73ffffffffffffffffffffffffffffffffffffffff8316610f5f576040517fca2434a500000000000000000000000000000000000000000000000000000000815260040160405180910390fd5b505f9081526020928352604080822073ffffffffffffffffffffffffffffffffffffffff9390931682529190925290205490565b5f8061056960017fca9d3e17f264b0f3984e2634e94adb37fa3e6a8103f06aeae6fa59e21c769f5e6138b0565b5f7c01000000000000000000000000000000000000000000000000000000007fffffffff0000000000000000000000000000000000000000000000000000000083160161100e57505f610569565b7ffe003659000000000000000000000000000000000000000000000000000000007fffffffff0000000000000000000000000000000000000000000000000000000083160161105f57506001610569565b507fffffffff00000000000000000000000000000000000000000000000000000000165f908152602091909152604090205460ff1690565b5f8061056960017f7ea68fd2dcf1c056b94db6a0a537aa80d26fa9ab1eacd85da1ba0b61b7e7a8a56138b0565b6060815f0180546110d4906138c3565b80601f0160208091040260200160405190810160405280929190818152602001828054611100906138c3565b801561114b5780601f106111225761010080835404028352916020019161114b565b820191905f5260205f20905b81548152906001019060200180831161112e57829003601f168201915b50505050509050919050565b5f6105946126ba565b5f8061056960017fc8827d3282af6f37b64c3e9e6f3ac9df286ab0bb0fccd6f8661bf19adb368b236138b0565b5f8281526020848152604080832073ffffffffffffffffffffffffffffffffffffffff8516845290915290205460ff16610730576040517f7aa728820000000000000000000000000000000000000000000000000000000081526004810183905273ffffffffffffffffffffffffffffffffffffffff821660248201526044015b60405180910390fd5b73ffffffffffffffffffffffffffffffffffffffff8416611264576040517f021149bd00000000000000000000000000000000000000000000000000000000815260040160405180910390fd5b8251825181146112a0576040517f6582533600000000000000000000000000000000000000000000000000000000815260040160405180910390fd5b5f5b8181146112ef576112e788878784815181106112c0576112c0613856565b60200260200101518785815181106112da576112da613856565b60200260200101516127fe565b6001016112a2565b508473ffffffffffffffffffffffffffffffffffffffff165f73ffffffffffffffffffffffffffffffffffffffff168773ffffffffffffffffffffffffffffffffffffffff167f4a39dc06d4c0dbc64b70af90fd698a233a518aa5d07e595d983b8c0526c8f7fb8787604051611366929190613914565b60405180910390a473ffffffffffffffffffffffffffffffffffffffff85163b15610e0b57610e0b865f878787876128cd565b60028301546040517ff724dad700000000000000000000000000000000000000000000000000000000815273ffffffffffffffffffffffffffffffffffffffff848116600483015260248201849052606092169063f724dad7906044015f60405180830381865afa158015611410573d5f803e3d5ffd5b505050506040513d5f823e601f3d9081017fffffffffffffffffffffffffffffffffffffffffffffffffffffffffffffffe01682016040526107ed919081019061396e565b5f8061056960017fc9ed16f33ab3a66c84bfd83099ccb2a8845871e2e1c1928f63797152f0fd54cd6138b0565b815473ffffffffffffffffffffffffffffffffffffffff828116911614610ac6576040517f2ef4875e00000000000000000000000000000000000000000000000000000000815273ffffffffffffffffffffffffffffffffffffffff8216600482015260240161120e565b5f8061056960017f609b85bcafa81ecfaf3ff62cdde2c6c9082a68dbe4922f07399c706bdeb7cd316138b0565b81547fffffffffffffffffffffffff00000000000000000000000000000000000000001673ffffffffffffffffffffffffffffffffffffffff91909116179055565b6115678584866129c8565b6115bd576040517f05bbb9c400000000000000000000000000000000000000000000000000000000815273ffffffffffffffffffffffffffffffffffffffff80861660048301528416602482015260440161120e565b6115c985848484612a3b565b60408051838152602081018390525f9173ffffffffffffffffffffffffffffffffffffffff86811692908816917fc3d58168c5ae7397731d063d5bbf3d657854427343f4c083240f7aacaa2d0f62910160405180910390a45050505050565b5f8061056960017f2c0cf10337caabbd02dcf226f05f5fd19a0919a41a8df8958c39b800078268586138b0565b825473ffffffffffffffffffffffffffffffffffffffff8116905f907401000000000000000000000000000000000000000090046bffffffffffffffffffffffff168315806116a2575080155b156116af575f91506116f4565b620186a08410156116d957620186a06116c88286613a29565b6116d29190613a40565b91506116f4565b806116e7620186a086613a40565b6116f19190613a29565b91505b50935093915050565b8073ffffffffffffffffffffffffffffffffffffffff168273ffffffffffffffffffffffffffffffffffffffff1614610730576107308383612ad7565b73ffffffffffffffffffffffffffffffffffffffff8716611787576040517fb5e8901500000000000000000000000000000000000000000000000000000000815260040160405180910390fd5b848381146117c1576040517f6582533600000000000000000000000000000000000000000000000000000000815260040160405180910390fd5b6117cc8b8a8c6129c8565b611822576040517f05bbb9c400000000000000000000000000000000000000000000000000000000815273ffffffffffffffffffffffffffffffffffffffff808c1660048301528a16602482015260440161120e565b5f5b818114611870576118688c8b8b8b8b8681811061184357611843613856565b905060200201358a8a8781811061185c5761185c613856565b90506020020135612bfb565b600101611824565b508773ffffffffffffffffffffffffffffffffffffffff168973ffffffffffffffffffffffffffffffffffffffff168b73ffffffffffffffffffffffffffffffffffffffff167f4a39dc06d4c0dbc64b70af90fd698a233a518aa5d07e595d983b8c0526c8f7fb8a8a8a8a6040516118eb9493929190613ac1565b60405180910390a473ffffffffffffffffffffffffffffffffffffffff88163b156119b1576119b18a8a8a8a8a808060200260200160405190810160405280939291908181526020018383602002808284375f9201919091525050604080516020808e0282810182019093528d82529093508d92508c9182918501908490808284375f9201919091525050604080516020601f8d018190048102820181019092528b815292508b91508a90819084018382808284375f920191909152506128cd92505050565b5050505050505050505050565b5f8381526020858152604080832073ffffffffffffffffffffffffffffffffffffffff8616845290915290205460ff16611a8d575f8381526020858152604080832073ffffffffffffffffffffffffffffffffffffffff8681168086529184529382902080547fffffffffffffffffffffffffffffffffffffffffffffffffffffffffffffff00166001179055815187815292830152918316918101919091527f2f8788117e7eff1d82e926ec794901d17c78024a50270940304540a733656f0d906060015b60405180910390a15b50505050565b606083828114611acf576040517f6582533600000000000000000000000000000000000000000000000000000000815260040160405180910390fd5b8467ffffffffffffffff811115611ae857611ae8613941565b604051908082528060200260200182016040528015611b11578160200160208202803683370190505b5091505f5b818114611b9557611b70878783818110611b3257611b32613856565b9050602002016020810190611b47919061338a565b868684818110611b5957611b59613856565b905060200201358a610f119092919063ffffffff16565b838281518110611b8257611b82613856565b6020908102919091010152600101611b16565b505095945050505050565b73ffffffffffffffffffffffffffffffffffffffff8416611bed576040517f021149bd00000000000000000000000000000000000000000000000000000000815260040160405180910390fd5b611bf9868585856127fe565b604080518481526020810184905273ffffffffffffffffffffffffffffffffffffffff808716925f92918916917fc3d58168c5ae7397731d063d5bbf3d657854427343f4c083240f7aacaa2d0f62910160405180910390a473ffffffffffffffffffffffffffffffffffffffff84163b1561087d5761087d855f86868686612da5565b620186a0811115611cbc576040517fac0404080000000000000000000000000000000000000000000000000000000081526004810182905260240161120e565b81546bffffffffffffffffffffffff909116740100000000000000000000000000000000000000000273ffffffffffffffffffffffffffffffffffffffff909116179055565b6040805173ffffffffffffffffffffffffffffffffffffffff8416602482015260448082018490528251808303909101815260649091019091526020810180517bffffffffffffffffffffffffffffffffffffffffffffffffffffffff167fa9059cbb00000000000000000000000000000000000000000000000000000000179052610730908490612ec0565b82818114611dc9576040517f6582533600000000000000000000000000000000000000000000000000000000815260040160405180910390fd5b611dd48887896129c8565b611e2a576040517f05bbb9c400000000000000000000000000000000000000000000000000000000815273ffffffffffffffffffffffffffffffffffffffff80891660048301528716602482015260440161120e565b5f5b818114611e7757611e6f8988888885818110611e4a57611e4a613856565b90506020020135878786818110611e6357611e63613856565b90506020020135612a3b565b600101611e2c565b505f73ffffffffffffffffffffffffffffffffffffffff168673ffffffffffffffffffffffffffffffffffffffff168873ffffffffffffffffffffffffffffffffffffffff167f4a39dc06d4c0dbc64b70af90fd698a233a518aa5d07e595d983b8c0526c8f7fb88888888604051611ef29493929190613ac1565b60405180910390a45050505050505050565b611f0f83828461118d565b5f8181526020848152604080832073ffffffffffffffffffffffffffffffffffffffff86168085529083529281902080547fffffffffffffffffffffffffffffffffffffffffffffffffffffffffffffff0016905580518481529182018390528101919091527ff6391f5c32d9c69d2a47ea670b442974b53935d1edc7fd64eb21e047a839171b9060600160405180910390a1505050565b73ffffffffffffffffffffffffffffffffffffffff811661151a576040517f16de0c8000000000000000000000000000000000000000000000000000000000815260040160405180910390fd5b60608160010180546110d4906138c3565b610ac68282612ad7565b8273ffffffffffffffffffffffffffffffffffffffff168273ffffffffffffffffffffffffffffffffffffffff160361208c576040517ffb0fdf6100000000000000000000000000000000000000000000000000000000815273ffffffffffffffffffffffffffffffffffffffff8416600482015260240161120e565b73ffffffffffffffffffffffffffffffffffffffff8381165f81815260018701602090815260408083209487168084529482529182902080547fffffffffffffffffffffffffffffffffffffffffffffffffffffffffffffff001686151590811790915591519182527f17307eab39ab6107e8899845ad3d59bd9653f200f220920489ca2b5937696c31910160405180910390a350505050565b5f8381526020858152604080832073ffffffffffffffffffffffffffffffffffffffff8616845290915290205460ff1615611a8d575f8381526020858152604080832073ffffffffffffffffffffffffffffffffffffffff8681168086529184529382902080547fffffffffffffffffffffffffffffffffffffffffffffffffffffffffffffff00169055815187815292830152918316918101919091527ff6391f5c32d9c69d2a47ea670b442974b53935d1edc7fd64eb21e047a839171b90606001611a84565b8351835181141580612201575082518114155b15612238576040517f6582533600000000000000000000000000000000000000000000000000000000815260040160405180910390fd5b5f5b818114610686576122a78787838151811061225757612257613856565b602002602001015187848151811061227157612271613856565b602002602001015187858151811061228b5761228b613856565b6020026020010151878d611ba09095949392919063ffffffff16565b60010161223a565b73ffffffffffffffffffffffffffffffffffffffff85166122fc576040517fb5e8901500000000000000000000000000000000000000000000000000000000815260040160405180910390fd5b6123078887896129c8565b61235d576040517f05bbb9c400000000000000000000000000000000000000000000000000000000815273ffffffffffffffffffffffffffffffffffffffff80891660048301528716602482015260440161120e565b61236a8887878787612bfb565b8473ffffffffffffffffffffffffffffffffffffffff168673ffffffffffffffffffffffffffffffffffffffff168873ffffffffffffffffffffffffffffffffffffffff167fc3d58168c5ae7397731d063d5bbf3d657854427343f4c083240f7aacaa2d0f6287876040516123e9929190918252602082015260400190565b60405180910390a473ffffffffffffffffffffffffffffffffffffffff85163b1561068657610686878787878787878080601f0160208091040260200160405190810160405280939291908181526020018383808284375f92019190915250612da592505050565b825473ffffffffffffffffffffffffffffffffffffffff90811690831681146124be576040517f2ef4875e00000000000000000000000000000000000000000000000000000000815273ffffffffffffffffffffffffffffffffffffffff8416600482015260240161120e565b8173ffffffffffffffffffffffffffffffffffffffff168173ffffffffffffffffffffffffffffffffffffffff1614611a8d5783547fffffffffffffffffffffffff00000000000000000000000000000000000000001673ffffffffffffffffffffffffffffffffffffffff8381169182178655604051908316907f8be0079c531659141344cd1fd0a4f28419497f9722a3daafe3b4186f6b6457e0905f90a350505050565b804710156125ce576040517f08c379a000000000000000000000000000000000000000000000000000000000815260206004820152601d60248201527f416464726573733a20696e73756666696369656e742062616c616e6365000000604482015260640161120e565b5f8273ffffffffffffffffffffffffffffffffffffffff16826040515f6040518083038185875af1925050503d805f8114612624576040519150601f19603f3d011682016040523d82523d5f602084013e612629565b606091505b5050905080610730576040517f08c379a000000000000000000000000000000000000000000000000000000000815260206004820152603a60248201527f416464726573733a20756e61626c6520746f2073656e642076616c75652c207260448201527f6563697069656e74206d61792068617665207265766572746564000000000000606482015260840161120e565b5f333214806126c95750601836105b156126d357503390565b7fffffffffffffffffffffffffffffffffffffffffffffffffffffffffffffffec36013560601c7f000000000000000000000000000000000000000000000000000000000000000073ffffffffffffffffffffffffffffffffffffffff163314806127ed57506040517f8929a8ca00000000000000000000000000000000000000000000000000000000815273ffffffffffffffffffffffffffffffffffffffff82811660048301523360248301527f00000000000000000000000000000000000000000000000000000000000000001690638929a8ca90604401602060405180830381865afa1580156127c9573d5f803e3d5ffd5b505050506040513d601f19601f820116820180604052508101906127ed9190613ae7565b156127f757919050565b3391505090565b8015611a8d575f8281526020858152604080832073ffffffffffffffffffffffffffffffffffffffff8716845290915290205481810181811161289a576040517f42fb00bc00000000000000000000000000000000000000000000000000000000815273ffffffffffffffffffffffffffffffffffffffff8616600482015260248101859052604481018390526064810184905260840161120e565b5f9384526020958652604080852073ffffffffffffffffffffffffffffffffffffffff9690961685529490955250502055565b6040517fbc197c81000000000000000000000000000000000000000000000000000000008082529073ffffffffffffffffffffffffffffffffffffffff86169063bc197c8190612929908a908a90899089908990600401613b02565b6020604051808303815f875af1158015612945573d5f803e3d5ffd5b505050506040513d601f19601f820116820180604052508101906129699190613b6c565b7fffffffff00000000000000000000000000000000000000000000000000000000161461087d578383836040517fc287817e00000000000000000000000000000000000000000000000000000000815260040161120e93929190613b87565b5f8173ffffffffffffffffffffffffffffffffffffffff168373ffffffffffffffffffffffffffffffffffffffff1614806107ed57505073ffffffffffffffffffffffffffffffffffffffff9182165f908152600193909301602090815260408085209290931684525290205460ff1690565b8015611a8d575f8281526020858152604080832073ffffffffffffffffffffffffffffffffffffffff8716845290915290205481810381811061289a576040517f03dee4c500000000000000000000000000000000000000000000000000000000815273ffffffffffffffffffffffffffffffffffffffff8616600482015260248101859052604481018390526064810184905260840161120e565b815473ffffffffffffffffffffffffffffffffffffffff168015801590612b1457505f8173ffffffffffffffffffffffffffffffffffffffff163b115b15610730576040517fc617113400000000000000000000000000000000000000000000000000000000815230600482015273ffffffffffffffffffffffffffffffffffffffff838116602483015282169063c617113490604401602060405180830381865afa158015612b89573d5f803e3d5ffd5b505050506040513d601f19601f82011682018060405250810190612bad9190613ae7565b610730576040517fede71dcc00000000000000000000000000000000000000000000000000000000815273ffffffffffffffffffffffffffffffffffffffff8316600482015260240161120e565b80156109af575f8281526020868152604080832073ffffffffffffffffffffffffffffffffffffffff88168452909152902054818103818110612c97576040517f03dee4c500000000000000000000000000000000000000000000000000000000815273ffffffffffffffffffffffffffffffffffffffff8716600482015260248101859052604481018390526064810184905260840161120e565b8473ffffffffffffffffffffffffffffffffffffffff168673ffffffffffffffffffffffffffffffffffffffff1614610e0b575f8481526020888152604080832073ffffffffffffffffffffffffffffffffffffffff89168452909152902054838101818111612d60576040517f42fb00bc00000000000000000000000000000000000000000000000000000000815273ffffffffffffffffffffffffffffffffffffffff8816600482015260248101879052604481018390526064810186905260840161120e565b5f86815260208a8152604080832073ffffffffffffffffffffffffffffffffffffffff808d1685528184528285208890558b1684529091529020555050505050505050565b6040517ff23a6e61000000000000000000000000000000000000000000000000000000008082529073ffffffffffffffffffffffffffffffffffffffff86169063f23a6e6190612e01908a908a90899089908990600401613bd1565b6020604051808303815f875af1158015612e1d573d5f803e3d5ffd5b505050506040513d601f19601f82011682018060405250810190612e419190613b6c565b7fffffffff00000000000000000000000000000000000000000000000000000000161461087d576040517f40f39d3800000000000000000000000000000000000000000000000000000000815273ffffffffffffffffffffffffffffffffffffffff85166004820152602481018490526044810183905260640161120e565b5f612f21826040518060400160405280602081526020017f5361666545524332303a206c6f772d6c6576656c2063616c6c206661696c65648152508573ffffffffffffffffffffffffffffffffffffffff16612fcd9092919063ffffffff16565b905080515f1480612f41575080806020019051810190612f419190613ae7565b610730576040517f08c379a000000000000000000000000000000000000000000000000000000000815260206004820152602a60248201527f5361666545524332303a204552433230206f7065726174696f6e20646964206e60448201527f6f74207375636365656400000000000000000000000000000000000000000000606482015260840161120e565b60606107ed84845f85855f808673ffffffffffffffffffffffffffffffffffffffff168587604051612fff9190613c15565b5f6040518083038185875af1925050503d805f8114613039576040519150601f19603f3d011682016040523d82523d5f602084013e61303e565b606091505b509150915061304f8783838761305a565b979650505050505050565b606083156130ef5782515f036130e85773ffffffffffffffffffffffffffffffffffffffff85163b6130e8576040517f08c379a000000000000000000000000000000000000000000000000000000000815260206004820152601d60248201527f416464726573733a2063616c6c20746f206e6f6e2d636f6e7472616374000000604482015260640161120e565b50816107ed565b6107ed83838151156131045781518083602001fd5b806040517f08c379a000000000000000000000000000000000000000000000000000000000815260040161120e919061323d565b73ffffffffffffffffffffffffffffffffffffffff8116811461070e575f80fd5b5f806040838503121561316a575f80fd5b823561317581613138565b946020939093013593505050565b7fffffffff000000000000000000000000000000000000000000000000000000008116811461070e575f80fd5b5f602082840312156131c0575f80fd5b81356131cb81613183565b9392505050565b5f5b838110156131ec5781810151838201526020016131d4565b50505f910152565b5f815180845261320b8160208601602086016131d2565b601f017fffffffffffffffffffffffffffffffffffffffffffffffffffffffffffffffe0169290920160200192915050565b602081525f61056660208301846131f4565b5f8083601f84011261325f575f80fd5b50813567ffffffffffffffff811115613276575f80fd5b6020830191508360208260051b8501011115610750575f80fd5b5f8083601f8401126132a0575f80fd5b50813567ffffffffffffffff8111156132b7575f80fd5b602083019150836020828501011115610750575f80fd5b5f805f805f805f6080888a0312156132e4575f80fd5b87356132ef81613138565b9650602088013567ffffffffffffffff8082111561330b575f80fd5b6133178b838c0161324f565b909850965060408a013591508082111561332f575f80fd5b61333b8b838c0161324f565b909650945060608a0135915080821115613353575f80fd5b506133608a828b01613290565b989b979a50959850939692959293505050565b5f60208284031215613383575f80fd5b5035919050565b5f6020828403121561339a575f80fd5b81356131cb81613138565b5f805f606084860312156133b7575f80fd5b83356133c281613138565b95602085013595506040909401359392505050565b5f80604083850312156133e8575f80fd5b50508035926020909101359150565b5f805f805f805f8060a0898b03121561340e575f80fd5b883561341981613138565b9750602089013561342981613138565b9650604089013567ffffffffffffffff80821115613445575f80fd5b6134518c838d0161324f565b909850965060608b0135915080821115613469575f80fd5b6134758c838d0161324f565b909650945060808b013591508082111561348d575f80fd5b5061349a8b828c01613290565b999c989b5096995094979396929594505050565b5f80604083850312156134bf575f80fd5b8235915060208301356134d181613138565b809150509250929050565b5f805f80604085870312156134ef575f80fd5b843567ffffffffffffffff80821115613506575f80fd5b6135128883890161324f565b9096509450602087013591508082111561352a575f80fd5b506135378782880161324f565b95989497509550505050565b5f8151808452602080850194508084015f5b8381101561357157815187529582019590820190600101613555565b509495945050505050565b602081525f6105666020830184613543565b5f805f805f608086880312156135a2575f80fd5b85356135ad81613138565b94506020860135935060408601359250606086013567ffffffffffffffff8111156135d6575f80fd5b6135e288828901613290565b969995985093965092949392505050565b5f805f805f8060608789031215613608575f80fd5b863567ffffffffffffffff8082111561361f575f80fd5b61362b8a838b0161324f565b90985096506020890135915080821115613643575f80fd5b61364f8a838b0161324f565b90965094506040890135915080821115613667575f80fd5b5061367489828a0161324f565b979a9699509497509295939492505050565b5f805f805f6060868803121561369a575f80fd5b85356136a581613138565b9450602086013567ffffffffffffffff808211156136c1575f80fd5b6136cd89838a0161324f565b909650945060408801359150808211156136e5575f80fd5b506135e28882890161324f565b801515811461070e575f80fd5b5f8060408385031215613710575f80fd5b823561371b81613138565b915060208301356134d1816136f2565b5f805f805f805f806080898b031215613742575f80fd5b883567ffffffffffffffff80821115613759575f80fd5b6137658c838d0161324f565b909a50985060208b013591508082111561377d575f80fd5b6137898c838d0161324f565b909850965060408b01359150808211156137a1575f80fd5b6137ad8c838d0161324f565b909650945060608b013591508082111561348d575f80fd5b5f80604083850312156137d6575f80fd5b82356137e181613138565b915060208301356134d181613138565b5f805f805f8060a08789031215613806575f80fd5b863561381181613138565b9550602087013561382181613138565b94506040870135935060608701359250608087013567ffffffffffffffff81111561384a575f80fd5b61367489828a01613290565b7f4e487b71000000000000000000000000000000000000000000000000000000005f52603260045260245ffd5b7f4e487b71000000000000000000000000000000000000000000000000000000005f52601160045260245ffd5b8181038181111561056957610569613883565b600181811c908216806138d757607f821691505b60208210810361390e577f4e487b71000000000000000000000000000000000000000000000000000000005f52602260045260245ffd5b50919050565b604081525f6139266040830185613543565b82810360208401526139388185613543565b95945050505050565b7f4e487b71000000000000000000000000000000000000000000000000000000005f52604160045260245ffd5b5f6020828403121561397e575f80fd5b815167ffffffffffffffff80821115613995575f80fd5b818401915084601f8301126139a8575f80fd5b8151818111156139ba576139ba613941565b604051601f82017fffffffffffffffffffffffffffffffffffffffffffffffffffffffffffffffe0908116603f01168101908382118183101715613a0057613a00613941565b81604052828152876020848701011115613a18575f80fd5b61304f8360208301602088016131d2565b808202811582820484141761056957610569613883565b5f82613a73577f4e487b71000000000000000000000000000000000000000000000000000000005f52601260045260245ffd5b500490565b8183525f7f07ffffffffffffffffffffffffffffffffffffffffffffffffffffffffffffff831115613aa8575f80fd5b8260051b80836020870137939093016020019392505050565b604081525f613ad4604083018688613a78565b828103602084015261304f818587613a78565b5f60208284031215613af7575f80fd5b81516131cb816136f2565b5f73ffffffffffffffffffffffffffffffffffffffff808816835280871660208401525060a06040830152613b3a60a0830186613543565b8281036060840152613b4c8186613543565b90508281036080840152613b6081856131f4565b98975050505050505050565b5f60208284031215613b7c575f80fd5b81516131cb81613183565b73ffffffffffffffffffffffffffffffffffffffff84168152606060208201525f613bb56060830185613543565b8281036040840152613bc78185613543565b9695505050505050565b5f73ffffffffffffffffffffffffffffffffffffffff808816835280871660208401525084604083015283606083015260a0608083015261304f60a08301846131f4565b5f8251613c268184602087016131d2565b919091019291505056fea264697066735822122043f279aad46d9b770990c780c6828454e28dc7cb23dc91ac64bda40ae945dd8a64736f6c63430008150033",
  "linkReferences": {},
  "deployedLinkReferences": {}
}