{
  "_format": "hh-sol-artifact-1",
  "contractName": "ERC1155FullBurn",
  "sourceName": "contracts/token/ERC1155/preset/ERC1155FullBurn.sol",
  "abi": [
    {
      "inputs": [
        {
          "internalType": "string",
          "name": "tokenName",
          "type": "string"
        },
        {
          "internalType": "string",
          "name": "tokenSymbol",
          "type": "string"
        },
        {
          "internalType": "contract ITokenMetadataResolver",
          "name": "metadataResolver",
          "type": "address"
        },
        {
          "internalType": "contract IOperatorFilterRegistry",
          "name": "filterRegistry",
          "type": "address"
        },
        {
          "internalType": "contract IForwarderRegistry",
          "name": "forwarderRegistry",
          "type": "address"
        }
      ],
      "stateMutability": "nonpayable",
      "type": "constructor"
    },
    {
      "inputs": [
        {
          "internalType": "uint256",
          "name": "percentage",
          "type": "uint256"
        }
      ],
      "name": "IncorrectRoyaltyPercentage",
      "type": "error"
    },
    {
      "inputs": [],
      "name": "IncorrectRoyaltyReceiver",
      "type": "error"
    },
    {
      "inputs": [
        {
          "internalType": "address",
          "name": "operator",
          "type": "address"
        }
      ],
      "name": "OperatorNotAllowed",
      "type": "error"
    },
    {
      "anonymous": false,
      "inputs": [
        {
          "indexed": true,
          "internalType": "address",
          "name": "owner",
          "type": "address"
        },
        {
          "indexed": true,
          "internalType": "address",
          "name": "operator",
          "type": "address"
        },
        {
          "indexed": false,
          "internalType": "bool",
          "name": "approved",
          "type": "bool"
        }
      ],
      "name": "ApprovalForAll",
      "type": "event"
    },
    {
      "anonymous": false,
      "inputs": [
        {
          "indexed": true,
          "internalType": "address",
          "name": "previousOwner",
          "type": "address"
        },
        {
          "indexed": true,
          "internalType": "address",
          "name": "newOwner",
          "type": "address"
        }
      ],
      "name": "OwnershipTransferred",
      "type": "event"
    },
    {
      "anonymous": false,
      "inputs": [
        {
          "indexed": false,
          "internalType": "bytes32",
          "name": "role",
          "type": "bytes32"
        },
        {
          "indexed": false,
          "internalType": "address",
          "name": "account",
          "type": "address"
        },
        {
          "indexed": false,
          "internalType": "address",
          "name": "operator",
          "type": "address"
        }
      ],
      "name": "RoleGranted",
      "type": "event"
    },
    {
      "anonymous": false,
      "inputs": [
        {
          "indexed": false,
          "internalType": "bytes32",
          "name": "role",
          "type": "bytes32"
        },
        {
          "indexed": false,
          "internalType": "address",
          "name": "account",
          "type": "address"
        },
        {
          "indexed": false,
          "internalType": "address",
          "name": "operator",
          "type": "address"
        }
      ],
      "name": "RoleRevoked",
      "type": "event"
    },
    {
      "anonymous": false,
      "inputs": [
        {
          "indexed": true,
          "internalType": "address",
          "name": "operator",
          "type": "address"
        },
        {
          "indexed": true,
          "internalType": "address",
          "name": "from",
          "type": "address"
        },
        {
          "indexed": true,
          "internalType": "address",
          "name": "to",
          "type": "address"
        },
        {
          "indexed": false,
          "internalType": "uint256[]",
          "name": "ids",
          "type": "uint256[]"
        },
        {
          "indexed": false,
          "internalType": "uint256[]",
          "name": "values",
          "type": "uint256[]"
        }
      ],
      "name": "TransferBatch",
      "type": "event"
    },
    {
      "anonymous": false,
      "inputs": [
        {
          "indexed": true,
          "internalType": "address",
          "name": "operator",
          "type": "address"
        },
        {
          "indexed": true,
          "internalType": "address",
          "name": "from",
          "type": "address"
        },
        {
          "indexed": true,
          "internalType": "address",
          "name": "to",
          "type": "address"
        },
        {
          "indexed": false,
          "internalType": "uint256",
          "name": "id",
          "type": "uint256"
        },
        {
          "indexed": false,
          "internalType": "uint256",
          "name": "value",
          "type": "uint256"
        }
      ],
      "name": "TransferSingle",
      "type": "event"
    },
    {
      "anonymous": false,
      "inputs": [
        {
          "indexed": false,
          "internalType": "string",
          "name": "value",
          "type": "string"
        },
        {
          "indexed": true,
          "internalType": "uint256",
          "name": "id",
          "type": "uint256"
        }
      ],
      "name": "URI",
      "type": "event"
    },
    {
      "inputs": [],
      "name": "MINTER_ROLE",
      "outputs": [
        {
          "internalType": "bytes32",
          "name": "",
          "type": "bytes32"
        }
      ],
      "stateMutability": "view",
      "type": "function"
    },
    {
      "inputs": [],
      "name": "ROYALTY_FEE_DENOMINATOR",
      "outputs": [
        {
          "internalType": "uint256",
          "name": "",
          "type": "uint256"
        }
      ],
      "stateMutability": "view",
      "type": "function"
    },
    {
      "inputs": [
        {
          "internalType": "address",
          "name": "owner",
          "type": "address"
        },
        {
          "internalType": "uint256",
          "name": "id",
          "type": "uint256"
        }
      ],
      "name": "balanceOf",
      "outputs": [
        {
          "internalType": "uint256",
          "name": "balance",
          "type": "uint256"
        }
      ],
      "stateMutability": "view",
      "type": "function"
    },
    {
      "inputs": [
        {
          "internalType": "address[]",
          "name": "owners",
          "type": "address[]"
        },
        {
          "internalType": "uint256[]",
          "name": "ids",
          "type": "uint256[]"
        }
      ],
      "name": "balanceOfBatch",
      "outputs": [
        {
          "internalType": "uint256[]",
          "name": "balances",
          "type": "uint256[]"
        }
      ],
      "stateMutability": "view",
      "type": "function"
    },
    {
      "inputs": [
        {
          "internalType": "address",
          "name": "from",
          "type": "address"
        },
        {
          "internalType": "uint256[]",
          "name": "ids",
          "type": "uint256[]"
        },
        {
          "internalType": "uint256[]",
          "name": "values",
          "type": "uint256[]"
        }
      ],
      "name": "batchBurnFrom",
      "outputs": [],
      "stateMutability": "nonpayable",
      "type": "function"
    },
    {
      "inputs": [
        {
          "internalType": "address",
          "name": "from",
          "type": "address"
        },
        {
          "internalType": "uint256",
          "name": "id",
          "type": "uint256"
        },
        {
          "internalType": "uint256",
          "name": "value",
          "type": "uint256"
        }
      ],
      "name": "burnFrom",
      "outputs": [],
      "stateMutability": "nonpayable",
      "type": "function"
    },
    {
      "inputs": [],
      "name": "forwarderRegistry",
      "outputs": [
        {
          "internalType": "contract IForwarderRegistry",
          "name": "",
          "type": "address"
        }
      ],
      "stateMutability": "view",
      "type": "function"
    },
    {
      "inputs": [
        {
          "internalType": "bytes32",
          "name": "role",
          "type": "bytes32"
        },
        {
          "internalType": "address",
          "name": "account",
          "type": "address"
        }
      ],
      "name": "grantRole",
      "outputs": [],
      "stateMutability": "nonpayable",
      "type": "function"
    },
    {
      "inputs": [
        {
          "internalType": "bytes32",
          "name": "role",
          "type": "bytes32"
        },
        {
          "internalType": "address",
          "name": "account",
          "type": "address"
        }
      ],
      "name": "hasRole",
      "outputs": [
        {
          "internalType": "bool",
          "name": "hasRole_",
          "type": "bool"
        }
      ],
      "stateMutability": "view",
      "type": "function"
    },
    {
      "inputs": [
        {
          "internalType": "address",
          "name": "owner",
          "type": "address"
        },
        {
          "internalType": "address",
          "name": "operator",
          "type": "address"
        }
      ],
      "name": "isApprovedForAll",
      "outputs": [
        {
          "internalType": "bool",
          "name": "approvedForAll",
          "type": "bool"
        }
      ],
      "stateMutability": "view",
      "type": "function"
    },
    {
      "inputs": [
        {
          "internalType": "address",
          "name": "forwarder",
          "type": "address"
        }
      ],
      "name": "isTrustedForwarder",
      "outputs": [
        {
          "internalType": "bool",
          "name": "",
          "type": "bool"
        }
      ],
      "stateMutability": "view",
      "type": "function"
    },
    {
      "inputs": [],
      "name": "metadataResolver",
      "outputs": [
        {
          "internalType": "contract ITokenMetadataResolver",
          "name": "tokenMetadataResolver",
          "type": "address"
        }
      ],
      "stateMutability": "view",
      "type": "function"
    },
    {
      "inputs": [],
      "name": "name",
      "outputs": [
        {
          "internalType": "string",
          "name": "tokenName",
          "type": "string"
        }
      ],
      "stateMutability": "view",
      "type": "function"
    },
    {
      "inputs": [],
      "name": "operatorFilterRegistry",
      "outputs": [
        {
          "internalType": "contract IOperatorFilterRegistry",
          "name": "",
          "type": "address"
        }
      ],
      "stateMutability": "view",
      "type": "function"
    },
    {
      "inputs": [],
      "name": "owner",
      "outputs": [
        {
          "internalType": "address",
          "name": "",
          "type": "address"
        }
      ],
      "stateMutability": "view",
      "type": "function"
    },
    {
      "inputs": [
        {
          "internalType": "address[]",
          "name": "accounts",
          "type": "address[]"
        },
        {
          "internalType": "contract IERC20[]",
          "name": "tokens",
          "type": "address[]"
        },
        {
          "internalType": "uint256[]",
          "name": "amounts",
          "type": "uint256[]"
        }
      ],
      "name": "recoverERC20s",
      "outputs": [],
      "stateMutability": "nonpayable",
      "type": "function"
    },
    {
      "inputs": [
        {
          "internalType": "address[]",
          "name": "accounts",
          "type": "address[]"
        },
        {
          "internalType": "contract IERC721[]",
          "name": "contracts",
          "type": "address[]"
        },
        {
          "internalType": "uint256[]",
          "name": "tokenIds",
          "type": "uint256[]"
        }
      ],
      "name": "recoverERC721s",
      "outputs": [],
      "stateMutability": "nonpayable",
      "type": "function"
    },
    {
      "inputs": [
        {
          "internalType": "address payable[]",
          "name": "accounts",
          "type": "address[]"
        },
        {
          "internalType": "uint256[]",
          "name": "amounts",
          "type": "uint256[]"
        }
      ],
      "name": "recoverETH",
      "outputs": [],
      "stateMutability": "nonpayable",
      "type": "function"
    },
    {
      "inputs": [
        {
          "internalType": "bytes32",
          "name": "role",
          "type": "bytes32"
        }
      ],
      "name": "renounceRole",
      "outputs": [],
      "stateMutability": "nonpayable",
      "type": "function"
    },
    {
      "inputs": [
        {
          "internalType": "bytes32",
          "name": "role",
          "type": "bytes32"
        },
        {
          "internalType": "address",
          "name": "account",
          "type": "address"
        }
      ],
      "name": "revokeRole",
      "outputs": [],
      "stateMutability": "nonpayable",
      "type": "function"
    },
    {
      "inputs": [
        {
          "internalType": "uint256",
          "name": "tokenId",
          "type": "uint256"
        },
        {
          "internalType": "uint256",
          "name": "salePrice",
          "type": "uint256"
        }
      ],
      "name": "royaltyInfo",
      "outputs": [
        {
          "internalType": "address",
          "name": "receiver",
          "type": "address"
        },
        {
          "internalType": "uint256",
          "name": "royaltyAmount",
          "type": "uint256"
        }
      ],
      "stateMutability": "view",
      "type": "function"
    },
    {
      "inputs": [
        {
          "internalType": "address",
          "name": "to",
          "type": "address"
        },
        {
          "internalType": "uint256[]",
          "name": "ids",
          "type": "uint256[]"
        },
        {
          "internalType": "uint256[]",
          "name": "values",
          "type": "uint256[]"
        },
        {
          "internalType": "bytes",
          "name": "data",
          "type": "bytes"
        }
      ],
      "name": "safeBatchMint",
      "outputs": [],
      "stateMutability": "nonpayable",
      "type": "function"
    },
    {
      "inputs": [
        {
          "internalType": "address",
          "name": "from",
          "type": "address"
        },
        {
          "internalType": "address",
          "name": "to",
          "type": "address"
        },
        {
          "internalType": "uint256[]",
          "name": "ids",
          "type": "uint256[]"
        },
        {
          "internalType": "uint256[]",
          "name": "values",
          "type": "uint256[]"
        },
        {
          "internalType": "bytes",
          "name": "data",
          "type": "bytes"
        }
      ],
      "name": "safeBatchTransferFrom",
      "outputs": [],
      "stateMutability": "nonpayable",
      "type": "function"
    },
    {
      "inputs": [
        {
          "internalType": "address[]",
          "name": "recipients",
          "type": "address[]"
        },
        {
          "internalType": "uint256[]",
          "name": "ids",
          "type": "uint256[]"
        },
        {
          "internalType": "uint256[]",
          "name": "values",
          "type": "uint256[]"
        },
        {
          "internalType": "bytes",
          "name": "data",
          "type": "bytes"
        }
      ],
      "name": "safeDeliver",
      "outputs": [],
      "stateMutability": "nonpayable",
      "type": "function"
    },
    {
      "inputs": [
        {
          "internalType": "address",
          "name": "to",
          "type": "address"
        },
        {
          "internalType": "uint256",
          "name": "id",
          "type": "uint256"
        },
        {
          "internalType": "uint256",
          "name": "value",
          "type": "uint256"
        },
        {
          "internalType": "bytes",
          "name": "data",
          "type": "bytes"
        }
      ],
      "name": "safeMint",
      "outputs": [],
      "stateMutability": "nonpayable",
      "type": "function"
    },
    {
      "inputs": [
        {
          "internalType": "address",
          "name": "from",
          "type": "address"
        },
        {
          "internalType": "address",
          "name": "to",
          "type": "address"
        },
        {
          "internalType": "uint256",
          "name": "id",
          "type": "uint256"
        },
        {
          "internalType": "uint256",
          "name": "value",
          "type": "uint256"
        },
        {
          "internalType": "bytes",
          "name": "data",
          "type": "bytes"
        }
      ],
      "name": "safeTransferFrom",
      "outputs": [],
      "stateMutability": "nonpayable",
      "type": "function"
    },
    {
      "inputs": [
        {
          "internalType": "address",
          "name": "operator",
          "type": "address"
        },
        {
          "internalType": "bool",
          "name": "approved",
          "type": "bool"
        }
      ],
      "name": "setApprovalForAll",
      "outputs": [],
      "stateMutability": "nonpayable",
      "type": "function"
    },
    {
      "inputs": [
        {
          "internalType": "uint256",
          "name": "percentage",
          "type": "uint256"
        }
      ],
      "name": "setRoyaltyPercentage",
      "outputs": [],
      "stateMutability": "nonpayable",
      "type": "function"
    },
    {
      "inputs": [
        {
          "internalType": "address",
          "name": "receiver",
          "type": "address"
        }
      ],
      "name": "setRoyaltyReceiver",
      "outputs": [],
      "stateMutability": "nonpayable",
      "type": "function"
    },
    {
      "inputs": [
        {
          "internalType": "bytes4",
          "name": "interfaceId",
          "type": "bytes4"
        }
      ],
      "name": "supportsInterface",
      "outputs": [
        {
          "internalType": "bool",
          "name": "",
          "type": "bool"
        }
      ],
      "stateMutability": "view",
      "type": "function"
    },
    {
      "inputs": [],
      "name": "symbol",
      "outputs": [
        {
          "internalType": "string",
          "name": "tokenSymbol",
          "type": "string"
        }
      ],
      "stateMutability": "view",
      "type": "function"
    },
    {
      "inputs": [
        {
          "internalType": "address",
          "name": "newOwner",
          "type": "address"
        }
      ],
      "name": "transferOwnership",
      "outputs": [],
      "stateMutability": "nonpayable",
      "type": "function"
    },
    {
      "inputs": [
        {
          "internalType": "contract IOperatorFilterRegistry",
          "name": "registry",
          "type": "address"
        }
      ],
      "name": "updateOperatorFilterRegistry",
      "outputs": [],
      "stateMutability": "nonpayable",
      "type": "function"
    },
    {
      "inputs": [
        {
          "internalType": "uint256",
          "name": "tokenId",
          "type": "uint256"
        }
      ],
      "name": "uri",
      "outputs": [
        {
          "internalType": "string",
          "name": "metadataURI",
          "type": "string"
        }
      ],
      "stateMutability": "view",
      "type": "function"
    }
  ],
  "bytecode": "0x60a060405234801562000010575f80fd5b506040516200475038038062004750833981016040819052620000339162000467565b80808686868633620000508162000049620000f2565b9062000127565b506200005b620001a1565b62000088816200006a620001bb565b9081546001600160a01b0319166001600160a01b0391909116179055565b50620000a38383836200009a620001ea565b92919062000219565b620000ad62000260565b50620000bb91505062000278565b620000c562000290565b620000cf620002a8565b620000d9620002c0565b6001600160a01b03166080525062000681945050505050565b5f806200012160017fc9ed16f33ab3a66c84bfd83099ccb2a8845871e2e1c1928f63797152f0fd54cd6200050d565b92915050565b6001600160a01b038116156200017d5781546001600160a01b0319166001600160a01b03821690811783556040515f907f8be0079c531659141344cd1fd0a4f28419497f9722a3daafe3b4186f6b6457e0908290a35b6200019d6307f5828d60e41b600162000195620002d3565b919062000302565b5050565b620001b9636cdb3d1360e11b600162000195620002d3565b565b5f806200012160017f609b85bcafa81ecfaf3ff62cdde2c6c9082a68dbe4922f07399c706bdeb7cd316200050d565b5f806200012160017f7ea68fd2dcf1c056b94db6a0a537aa80d26fa9ab1eacd85da1ba0b61b7e7a8a56200050d565b83620002268482620005b9565b5060018401620002378382620005b9565b5060029390930180546001600160a01b0319166001600160a01b03909416939093179092555050565b620001b96303a24d0760e21b600162000195620002d3565b620001b9631464324b60e21b600162000195620002d3565b620001b9633a2ae73360e21b600162000195620002d3565b620001b963921ed8d160e01b600162000195620002d3565b620001b963152a902d60e11b6001620001955b5f806200012160017fca9d3e17f264b0f3984e2634e94adb37fa3e6a8103f06aeae6fa59e21c769f5e6200050d565b600160e01b6001600160e01b0319831601620003645760405162461bcd60e51b815260206004820152601f60248201527f496e74657266616365446574656374696f6e3a2077726f6e672076616c756500604482015260640160405180910390fd5b6001600160e01b0319919091165f9081526020929092526040909120805460ff1916911515919091179055565b634e487b7160e01b5f52604160045260245ffd5b5f82601f830112620003b5575f80fd5b81516001600160401b0380821115620003d257620003d262000391565b604051601f8301601f19908116603f01168101908282118183101715620003fd57620003fd62000391565b8160405283815260209250868385880101111562000419575f80fd5b5f91505b838210156200043c57858201830151818301840152908201906200041d565b5f93810190920192909252949350505050565b6001600160a01b038116811462000464575f80fd5b50565b5f805f805f60a086880312156200047c575f80fd5b85516001600160401b038082111562000493575f80fd5b620004a189838a01620003a5565b96506020880151915080821115620004b7575f80fd5b50620004c688828901620003a5565b9450506040860151620004d9816200044f565b6060870151909350620004ec816200044f565b6080870151909250620004ff816200044f565b809150509295509295909350565b818103818111156200012157634e487b7160e01b5f52601160045260245ffd5b600181811c908216806200054257607f821691505b6020821081036200056157634e487b7160e01b5f52602260045260245ffd5b50919050565b601f821115620005b4575f81815260208120601f850160051c810160208610156200058f5750805b601f850160051c820191505b81811015620005b0578281556001016200059b565b5050505b505050565b81516001600160401b03811115620005d557620005d562000391565b620005ed81620005e684546200052d565b8462000567565b602080601f83116001811462000623575f84156200060b5750858301515b5f19600386901b1c1916600185901b178555620005b0565b5f85815260208120601f198616915b82811015620006535788860151825594840194600190910190840162000632565b50858210156200067157878501515f19600388901b60f8161c191681555b5050505050600190811b01905550565b6080516140a1620006af5f395f818161030b015281816103a601528181612a140152612a9c01526140a15ff3fe608060405234801561000f575f80fd5b506004361061021a575f3560e01c80638bb9c5bf11610123578063c3666c36116100b8578063e8ab9ccc11610088578063f242432a1161006e578063f242432a14610518578063f2fde38b1461052b578063f7ba94bd1461053e575f80fd5b8063e8ab9ccc146104f2578063e985e9c514610505575f80fd5b8063c3666c361461049b578063d5391393146104ae578063d547741f146104d5578063e1a8bf2c146104e8575f80fd5b806395d89b41116100f357806395d89b4114610470578063a0c76f6214610478578063a22cb46514610480578063b0ccc31e14610493575f80fd5b80638bb9c5bf1461042f5780638da5cb5b146104425780638dc251e31461044a57806391d148541461045d575f80fd5b80632b4c9f16116101b3578063572b6c051161018357806361ba27da1161016957806361ba27da146103f657806373c8a95814610409578063805349341461041c575f80fd5b8063572b6c05146103965780635cfa9297146103e3575f80fd5b80632b4c9f16146103095780632eb2c2d6146103505780632f2ff15d146103635780634e1273f414610376575f80fd5b80630e89341c116101ee5780630e89341c14610291578063114ba8ee146102a4578063124d91e5146102b75780632a55205a146102ca575f80fd5b8062fdd58e1461021e57806301ffc9a71461024457806306fdde03146102675780630d6a5bbb1461027c575b5f80fd5b61023161022c366004613573565b610551565b6040519081526020015b60405180910390f35b6102576102523660046135ca565b61056f565b604051901515815260200161023b565b61026f610582565b60405161023b9190613657565b61028f61028a3660046136e8565b610599565b005b61026f61029f36600461378d565b610690565b61028f6102b23660046137a4565b6106a6565b61028f6102c53660046137bf565b610711565b6102dd6102d83660046137f1565b610735565b6040805173ffffffffffffffffffffffffffffffffffffffff909316835260208301919091520161023b565b7f00000000000000000000000000000000000000000000000000000000000000005b60405173ffffffffffffffffffffffffffffffffffffffff909116815260200161023b565b61028f61035e366004613811565b610757565b61028f6103713660046138c8565b6107a3565b6103896103843660046138f6565b6107d0565b60405161023b9190613996565b6102576103a43660046137a4565b7f000000000000000000000000000000000000000000000000000000000000000073ffffffffffffffffffffffffffffffffffffffff90811691161490565b61028f6103f13660046139a8565b6107f5565b61028f61040436600461378d565b610885565b61028f610417366004613a0d565b6108a2565b61028f61042a366004613aa0565b6109bf565b61028f61043d36600461378d565b6109e9565b61032b610a04565b61028f6104583660046137a4565b610a2a565b61025761046b3660046138c8565b610a47565b61026f610a89565b61032b610a9b565b61028f61048e366004613b19565b610ac4565b61032b610afd565b61028f6104a9366004613a0d565b610b09565b6102317f6d696e746572000000000000000000000000000000000000000000000000000081565b61028f6104e33660046138c8565b610ca8565b610231620186a081565b61028f610500366004613b45565b610cd5565b610257610513366004613bdf565b610dea565b61028f610526366004613c0b565b610e36565b61028f6105393660046137a4565b610e75565b61028f61054c3660046138f6565b610e90565b5f610566838361055f610f75565b9190610fa2565b90505b92915050565b5f6105698261057c611054565b90611081565b606061059461058f611158565b611185565b905090565b5f6105a2611218565b90506105d87f6d696e7465720000000000000000000000000000000000000000000000000000826105d1611221565b919061124e565b61068681898989808060200260200160405190810160405280939291908181526020018383602002808284375f9201919091525050604080516020808d0282810182019093528c82529093508c92508b9182918501908490808284375f9201919091525050604080516020601f8c018190048102820181019092528a815292508a91508990819084018382808284375f9201919091525061067c9250610f75915050565b94939291906112f9565b5050505050505050565b6060610569308361069f611158565b91906114db565b6106bf6106b1611218565b6106b9611597565b906115c4565b61070e816106cb611647565b9081547fffffffffffffffffffffffff00000000000000000000000000000000000000001673ffffffffffffffffffffffffffffffffffffffff91909116179055565b50565b61073061071c611218565b848484610727610f75565b939291906116b6565b505050565b5f8061074b8484610744611792565b91906117bf565b915091505b9250929050565b5f610760611218565b9050610776818a61076f611647565b9190611867565b610798818a8a8a8a8a8a8a8a61078a610f75565b9897969594939291906118a4565b505050505050505050565b5f6107ac611218565b90506107ba816106b9611597565b6107308383836107c8611221565b929190611b98565b60606107ea858585856107e1610f75565b93929190611c6d565b90505b949350505050565b5f6107fe611218565b905061082d7f6d696e7465720000000000000000000000000000000000000000000000000000826105d1611221565b61087d8187878787878080601f0160208091040260200160405190810160405280939291908181526020018383808284375f920191909152506108739250610f75915050565b9493929190611daa565b505050505050565b6108906106b1611218565b61070e8161089c611792565b90611eb6565b6108ad6106b1611218565b8483811480156108bc57508082145b610927576040517f08c379a000000000000000000000000000000000000000000000000000000000815260206004820152601d60248201527f5265636f766572793a20696e636f6e73697374656e742061727261797300000060448201526064015b60405180910390fd5b5f5b818114610686576109b788888381811061094557610945613c70565b905060200201602081019061095a91906137a4565b85858481811061096c5761096c613c70565b9050602002013588888581811061098557610985613c70565b905060200201602081019061099a91906137a4565b73ffffffffffffffffffffffffffffffffffffffff169190611f3c565b600101610929565b6109e26109ca611218565b86868686866109d7610f75565b959493929190611fc9565b5050505050565b61070e6109f4611218565b826109fd611221565b919061217e565b5f610594610a10611597565b5473ffffffffffffffffffffffffffffffffffffffff1690565b610a356106b1611218565b61070e81610a41611792565b90612221565b5f6105668383610a55611221565b5f9283526020908152604080842073ffffffffffffffffffffffffffffffffffffffff909316845291905290205460ff1690565b6060610594610a96611158565b61226e565b5f610594610aa7611158565b6002015473ffffffffffffffffffffffffffffffffffffffff1690565b8015610adc57610adc82610ad6611647565b9061227f565b610af9610ae7611218565b8383610af1610f75565b929190612289565b5050565b5f610594610a10611647565b610b146106b1611218565b848381148015610b2357508082145b610b89576040517f08c379a000000000000000000000000000000000000000000000000000000000815260206004820152601d60248201527f5265636f766572793a20696e636f6e73697374656e7420617272617973000000604482015260640161091e565b5f5b81811461068657858582818110610ba457610ba4613c70565b9050602002016020810190610bb991906137a4565b73ffffffffffffffffffffffffffffffffffffffff166323b872dd308a8a85818110610be757610be7613c70565b9050602002016020810190610bfc91906137a4565b878786818110610c0e57610c0e613c70565b6040517fffffffff0000000000000000000000000000000000000000000000000000000060e088901b16815273ffffffffffffffffffffffffffffffffffffffff9586166004820152949093166024850152506020909102013560448201526064015f604051808303815f87803b158015610c87575f80fd5b505af1158015610c99573d5f803e3d5ffd5b50505050806001019050610b8b565b5f610cb1611218565b9050610cbf816106b9611597565b610730838383610ccd611221565b9291906123b8565b5f610cde611218565b9050610d0d7f6d696e7465720000000000000000000000000000000000000000000000000000826105d1611221565b610798818a8a808060200260200160405190810160405280939291908181526020018383602002808284375f9201919091525050604080516020808e0282810182019093528d82529093508d92508c9182918501908490808284375f9201919091525050604080516020808d0282810182019093528c82529093508c92508b9182918501908490808284375f9201919091525050604080516020601f8c018190048102820181019092528a815292508a91508990819084018382808284375f92019190915250610de09250610f75915050565b9493929190612480565b5f6105668383610df8610f75565b919073ffffffffffffffffffffffffffffffffffffffff9182165f908152600193909301602090815260408085209290931684525290205460ff1690565b5f610e3f611218565b9050610e4e818861076f611647565b610e6c81888888888888610e60610f75565b9695949392919061256f565b50505050505050565b61070e610e80611218565b82610e89611597565b9190612751565b610e9b6106b1611218565b82818114610f05576040517f08c379a000000000000000000000000000000000000000000000000000000000815260206004820152601d60248201527f5265636f766572793a20696e636f6e73697374656e7420617272617973000000604482015260640161091e565b5f5b81811461087d57610f6d848483818110610f2357610f23613c70565b90506020020135878784818110610f3c57610f3c613c70565b9050602002016020810190610f5191906137a4565b73ffffffffffffffffffffffffffffffffffffffff169061287c565b600101610f07565b5f8061056960017f5ccf5846fa27a68fafc8e588671a68f5e67c2f9b56af4263806a4d71735e8613613cca565b5f73ffffffffffffffffffffffffffffffffffffffff8316611020576040517f08c379a000000000000000000000000000000000000000000000000000000000815260206004820152601e60248201527f455243313135353a2062616c616e6365206f6620616464726573732830290000604482015260640161091e565b505f9081526020928352604080822073ffffffffffffffffffffffffffffffffffffffff9390931682529190925290205490565b5f8061056960017fca9d3e17f264b0f3984e2634e94adb37fa3e6a8103f06aeae6fa59e21c769f5e613cca565b5f7c01000000000000000000000000000000000000000000000000000000007fffffffff000000000000000000000000000000000000000000000000000000008316016110cf57505f610569565b7ffe003659000000000000000000000000000000000000000000000000000000007fffffffff0000000000000000000000000000000000000000000000000000000083160161112057506001610569565b507fffffffff00000000000000000000000000000000000000000000000000000000165f908152602091909152604090205460ff1690565b5f8061056960017f7ea68fd2dcf1c056b94db6a0a537aa80d26fa9ab1eacd85da1ba0b61b7e7a8a5613cca565b6060815f01805461119590613cdd565b80601f01602080910402602001604051908101604052809291908181526020018280546111c190613cdd565b801561120c5780601f106111e35761010080835404028352916020019161120c565b820191905f5260205f20905b8154815290600101906020018083116111ef57829003601f168201915b50505050509050919050565b5f6105946129d2565b5f8061056960017fc8827d3282af6f37b64c3e9e6f3ac9df286ab0bb0fccd6f8661bf19adb368b23613cca565b5f8281526020848152604080832073ffffffffffffffffffffffffffffffffffffffff8516845290915290205460ff166107305761128b82612b16565b60405160200161129b9190613d2e565b604080517fffffffffffffffffffffffffffffffffffffffffffffffffffffffffffffffe0818403018152908290527f08c379a000000000000000000000000000000000000000000000000000000000825261091e91600401613657565b73ffffffffffffffffffffffffffffffffffffffff8416611376576040517f08c379a000000000000000000000000000000000000000000000000000000000815260206004820152601b60248201527f455243313135353a206d696e7420746f20616464726573732830290000000000604482015260640161091e565b8251825181146113e2576040517f08c379a000000000000000000000000000000000000000000000000000000000815260206004820152601c60248201527f455243313135353a20696e636f6e73697374656e742061727261797300000000604482015260640161091e565b5f5b81811461143157611429888787848151811061140257611402613c70565b602002602001015187858151811061141c5761141c613c70565b6020026020010151612ca1565b6001016113e4565b508473ffffffffffffffffffffffffffffffffffffffff165f73ffffffffffffffffffffffffffffffffffffffff168773ffffffffffffffffffffffffffffffffffffffff167f4a39dc06d4c0dbc64b70af90fd698a233a518aa5d07e595d983b8c0526c8f7fb87876040516114a8929190613d99565b60405180910390a473ffffffffffffffffffffffffffffffffffffffff85163b15610e6c57610e6c865f87878787612d73565b60028301546040517ff724dad700000000000000000000000000000000000000000000000000000000815273ffffffffffffffffffffffffffffffffffffffff848116600483015260248201849052606092169063f724dad7906044015f60405180830381865afa158015611552573d5f803e3d5ffd5b505050506040513d5f823e601f3d9081017fffffffffffffffffffffffffffffffffffffffffffffffffffffffffffffffe01682016040526107ed9190810190613df3565b5f8061056960017fc9ed16f33ab3a66c84bfd83099ccb2a8845871e2e1c1928f63797152f0fd54cd613cca565b815473ffffffffffffffffffffffffffffffffffffffff828116911614610af9576040517f08c379a000000000000000000000000000000000000000000000000000000000815260206004820152601860248201527f4f776e6572736869703a206e6f7420746865206f776e65720000000000000000604482015260640161091e565b5f8061056960017f609b85bcafa81ecfaf3ff62cdde2c6c9082a68dbe4922f07399c706bdeb7cd31613cca565b81547fffffffffffffffffffffffff00000000000000000000000000000000000000001673ffffffffffffffffffffffffffffffffffffffff91909116179055565b6116c1858486612e98565b611727576040517f08c379a000000000000000000000000000000000000000000000000000000000815260206004820152601c60248201527f455243313135353a206e6f6e2d617070726f7665642073656e64657200000000604482015260640161091e565b61173385848484612f0b565b60408051838152602081018390525f9173ffffffffffffffffffffffffffffffffffffffff86811692908816917fc3d58168c5ae7397731d063d5bbf3d657854427343f4c083240f7aacaa2d0f62910160405180910390a45050505050565b5f8061056960017f2c0cf10337caabbd02dcf226f05f5fd19a0919a41a8df8958c39b80007826858613cca565b825473ffffffffffffffffffffffffffffffffffffffff8116905f907401000000000000000000000000000000000000000090046bffffffffffffffffffffffff1683158061180c575080155b15611819575f915061185e565b620186a084101561184357620186a06118328286613eae565b61183c9190613ec5565b915061185e565b80611851620186a086613ec5565b61185b9190613eae565b91505b50935093915050565b8073ffffffffffffffffffffffffffffffffffffffff168273ffffffffffffffffffffffffffffffffffffffff1614610730576107308383612faa565b73ffffffffffffffffffffffffffffffffffffffff8716611921576040517f08c379a000000000000000000000000000000000000000000000000000000000815260206004820152601f60248201527f455243313135353a207472616e7366657220746f206164647265737328302900604482015260640161091e565b8483811461198b576040517f08c379a000000000000000000000000000000000000000000000000000000000815260206004820152601c60248201527f455243313135353a20696e636f6e73697374656e742061727261797300000000604482015260640161091e565b6119968b8a8c612e98565b6119fc576040517f08c379a000000000000000000000000000000000000000000000000000000000815260206004820152601c60248201527f455243313135353a206e6f6e2d617070726f7665642073656e64657200000000604482015260640161091e565b5f5b818114611a4a57611a428c8b8b8b8b86818110611a1d57611a1d613c70565b905060200201358a8a87818110611a3657611a36613c70565b905060200201356130ce565b6001016119fe565b508773ffffffffffffffffffffffffffffffffffffffff168973ffffffffffffffffffffffffffffffffffffffff168b73ffffffffffffffffffffffffffffffffffffffff167f4a39dc06d4c0dbc64b70af90fd698a233a518aa5d07e595d983b8c0526c8f7fb8a8a8a8a604051611ac59493929190613f46565b60405180910390a473ffffffffffffffffffffffffffffffffffffffff88163b15611b8b57611b8b8a8a8a8a8a808060200260200160405190810160405280939291908181526020018383602002808284375f9201919091525050604080516020808e0282810182019093528d82529093508d92508c9182918501908490808284375f9201919091525050604080516020601f8d018190048102820181019092528b815292508b91508a90819084018382808284375f92019190915250612d7392505050565b5050505050505050505050565b5f8381526020858152604080832073ffffffffffffffffffffffffffffffffffffffff8616845290915290205460ff16611c67575f8381526020858152604080832073ffffffffffffffffffffffffffffffffffffffff8681168086529184529382902080547fffffffffffffffffffffffffffffffffffffffffffffffffffffffffffffff00166001179055815187815292830152918316918101919091527f2f8788117e7eff1d82e926ec794901d17c78024a50270940304540a733656f0d906060015b60405180910390a15b50505050565b606083828114611cd9576040517f08c379a000000000000000000000000000000000000000000000000000000000815260206004820152601c60248201527f455243313135353a20696e636f6e73697374656e742061727261797300000000604482015260640161091e565b8467ffffffffffffffff811115611cf257611cf2613dc6565b604051908082528060200260200182016040528015611d1b578160200160208202803683370190505b5091505f5b818114611d9f57611d7a878783818110611d3c57611d3c613c70565b9050602002016020810190611d5191906137a4565b868684818110611d6357611d63613c70565b905060200201358a610fa29092919063ffffffff16565b838281518110611d8c57611d8c613c70565b6020908102919091010152600101611d20565b505095945050505050565b73ffffffffffffffffffffffffffffffffffffffff8416611e27576040517f08c379a000000000000000000000000000000000000000000000000000000000815260206004820152601b60248201527f455243313135353a206d696e7420746f20616464726573732830290000000000604482015260640161091e565b611e3386858585612ca1565b604080518481526020810184905273ffffffffffffffffffffffffffffffffffffffff808716925f92918916917fc3d58168c5ae7397731d063d5bbf3d657854427343f4c083240f7aacaa2d0f62910160405180910390a473ffffffffffffffffffffffffffffffffffffffff84163b1561087d5761087d855f8686868661327e565b620186a0811115611ef6576040517f3affc6c40000000000000000000000000000000000000000000000000000000081526004810182905260240161091e565b81546bffffffffffffffffffffffff909116740100000000000000000000000000000000000000000273ffffffffffffffffffffffffffffffffffffffff909116179055565b6040805173ffffffffffffffffffffffffffffffffffffffff8416602482015260448082018490528251808303909101815260649091019091526020810180517bffffffffffffffffffffffffffffffffffffffffffffffffffffffff167fa9059cbb000000000000000000000000000000000000000000000000000000001790526107309084906132da565b82818114612033576040517f08c379a000000000000000000000000000000000000000000000000000000000815260206004820152601c60248201527f455243313135353a20696e636f6e73697374656e742061727261797300000000604482015260640161091e565b61203e888789612e98565b6120a4576040517f08c379a000000000000000000000000000000000000000000000000000000000815260206004820152601c60248201527f455243313135353a206e6f6e2d617070726f7665642073656e64657200000000604482015260640161091e565b5f5b8181146120f1576120e989888888858181106120c4576120c4613c70565b905060200201358787868181106120dd576120dd613c70565b90506020020135612f0b565b6001016120a6565b505f73ffffffffffffffffffffffffffffffffffffffff168673ffffffffffffffffffffffffffffffffffffffff168873ffffffffffffffffffffffffffffffffffffffff167f4a39dc06d4c0dbc64b70af90fd698a233a518aa5d07e595d983b8c0526c8f7fb8888888860405161216c9493929190613f46565b60405180910390a45050505050505050565b61218983828461124e565b5f8181526020848152604080832073ffffffffffffffffffffffffffffffffffffffff86168085529083529281902080547fffffffffffffffffffffffffffffffffffffffffffffffffffffffffffffff0016905580518481529182018390528101919091527ff6391f5c32d9c69d2a47ea670b442974b53935d1edc7fd64eb21e047a839171b9060600160405180910390a1505050565b73ffffffffffffffffffffffffffffffffffffffff8116611674576040517f6fe1b4c800000000000000000000000000000000000000000000000000000000815260040160405180910390fd5b606081600101805461119590613cdd565b610af98282612faa565b8273ffffffffffffffffffffffffffffffffffffffff168273ffffffffffffffffffffffffffffffffffffffff160361231e576040517f08c379a000000000000000000000000000000000000000000000000000000000815260206004820152601e60248201527f455243313135353a2073656c662d617070726f76616c20666f7220616c6c0000604482015260640161091e565b73ffffffffffffffffffffffffffffffffffffffff8381165f81815260018701602090815260408083209487168084529482529182902080547fffffffffffffffffffffffffffffffffffffffffffffffffffffffffffffff001686151590811790915591519182527f17307eab39ab6107e8899845ad3d59bd9653f200f220920489ca2b5937696c31910160405180910390a350505050565b5f8381526020858152604080832073ffffffffffffffffffffffffffffffffffffffff8616845290915290205460ff1615611c67575f8381526020858152604080832073ffffffffffffffffffffffffffffffffffffffff8681168086529184529382902080547fffffffffffffffffffffffffffffffffffffffffffffffffffffffffffffff00169055815187815292830152918316918101919091527ff6391f5c32d9c69d2a47ea670b442974b53935d1edc7fd64eb21e047a839171b90606001611c5e565b83518351811480156124925750825181145b6124f8576040517f08c379a000000000000000000000000000000000000000000000000000000000815260206004820152601c60248201527f455243313135353a20696e636f6e73697374656e742061727261797300000000604482015260640161091e565b5f5b818114610686576125678787838151811061251757612517613c70565b602002602001015187848151811061253157612531613c70565b602002602001015187858151811061254b5761254b613c70565b6020026020010151878d611daa9095949392919063ffffffff16565b6001016124fa565b73ffffffffffffffffffffffffffffffffffffffff85166125ec576040517f08c379a000000000000000000000000000000000000000000000000000000000815260206004820152601f60248201527f455243313135353a207472616e7366657220746f206164647265737328302900604482015260640161091e565b6125f7888789612e98565b61265d576040517f08c379a000000000000000000000000000000000000000000000000000000000815260206004820152601c60248201527f455243313135353a206e6f6e2d617070726f7665642073656e64657200000000604482015260640161091e565b61266a88878787876130ce565b8473ffffffffffffffffffffffffffffffffffffffff168673ffffffffffffffffffffffffffffffffffffffff168873ffffffffffffffffffffffffffffffffffffffff167fc3d58168c5ae7397731d063d5bbf3d657854427343f4c083240f7aacaa2d0f6287876040516126e9929190918252602082015260400190565b60405180910390a473ffffffffffffffffffffffffffffffffffffffff85163b1561068657610686878787878787878080601f0160208091040260200160405190810160405280939291908181526020018383808284375f9201919091525061327e92505050565b825473ffffffffffffffffffffffffffffffffffffffff90811690831681146127d6576040517f08c379a000000000000000000000000000000000000000000000000000000000815260206004820152601860248201527f4f776e6572736869703a206e6f7420746865206f776e65720000000000000000604482015260640161091e565b8173ffffffffffffffffffffffffffffffffffffffff168173ffffffffffffffffffffffffffffffffffffffff1614611c675783547fffffffffffffffffffffffff00000000000000000000000000000000000000001673ffffffffffffffffffffffffffffffffffffffff8381169182178655604051908316907f8be0079c531659141344cd1fd0a4f28419497f9722a3daafe3b4186f6b6457e0905f90a350505050565b804710156128e6576040517f08c379a000000000000000000000000000000000000000000000000000000000815260206004820152601d60248201527f416464726573733a20696e73756666696369656e742062616c616e6365000000604482015260640161091e565b5f8273ffffffffffffffffffffffffffffffffffffffff16826040515f6040518083038185875af1925050503d805f811461293c576040519150601f19603f3d011682016040523d82523d5f602084013e612941565b606091505b5050905080610730576040517f08c379a000000000000000000000000000000000000000000000000000000000815260206004820152603a60248201527f416464726573733a20756e61626c6520746f2073656e642076616c75652c207260448201527f6563697069656e74206d61792068617665207265766572746564000000000000606482015260840161091e565b5f333214806129e15750601836105b156129eb57503390565b7fffffffffffffffffffffffffffffffffffffffffffffffffffffffffffffffec36013560601c7f000000000000000000000000000000000000000000000000000000000000000073ffffffffffffffffffffffffffffffffffffffff16331480612b0557506040517f8929a8ca00000000000000000000000000000000000000000000000000000000815273ffffffffffffffffffffffffffffffffffffffff82811660048301523360248301527f00000000000000000000000000000000000000000000000000000000000000001690638929a8ca90604401602060405180830381865afa158015612ae1573d5f803e3d5ffd5b505050506040513d601f19601f82011682018060405250810190612b059190613f6c565b15612b0f57919050565b3391505090565b60605f829003612b3357505060408051602081019091525f815290565b5f82604051602001612b4791815260200190565b604080517fffffffffffffffffffffffffffffffffffffffffffffffffffffffffffffffe08184030181529190529050601f5b818181518110612b8c57612b8c613c70565b01602001517fff00000000000000000000000000000000000000000000000000000000000000165f03612be0577fffffffffffffffffffffffffffffffffffffffffffffffffffffffffffffffff01612b7a565b5f8160010167ffffffffffffffff811115612bfd57612bfd613dc6565b6040519080825280601f01601f191660200182016040528015612c27576020820181803683370190505b5090505f5b828111612c9857838181518110612c4557612c45613c70565b602001015160f81c60f81b828281518110612c6257612c62613c70565b60200101907effffffffffffffffffffffffffffffffffffffffffffffffffffffffffffff191690815f1a905350600101612c2c565b50949350505050565b8015611c67575f8281526020858152604080832073ffffffffffffffffffffffffffffffffffffffff87168452909152902054818101818111612d40576040517f08c379a000000000000000000000000000000000000000000000000000000000815260206004820152601960248201527f455243313135353a2062616c616e6365206f766572666c6f7700000000000000604482015260640161091e565b5f9384526020958652604080852073ffffffffffffffffffffffffffffffffffffffff9690961685529490955250502055565b6040517fbc197c81000000000000000000000000000000000000000000000000000000008082529073ffffffffffffffffffffffffffffffffffffffff86169063bc197c8190612dcf908a908a90899089908990600401613f87565b6020604051808303815f875af1158015612deb573d5f803e3d5ffd5b505050506040513d601f19601f82011682018060405250810190612e0f9190613ff1565b7fffffffff00000000000000000000000000000000000000000000000000000000161461087d576040517f08c379a000000000000000000000000000000000000000000000000000000000815260206004820152601a60248201527f455243313135353a207472616e736665722072656a6563746564000000000000604482015260640161091e565b5f8173ffffffffffffffffffffffffffffffffffffffff168373ffffffffffffffffffffffffffffffffffffffff1614806107ed57505073ffffffffffffffffffffffffffffffffffffffff9182165f908152600193909301602090815260408085209290931684525290205460ff1690565b8015611c67575f8281526020858152604080832073ffffffffffffffffffffffffffffffffffffffff87168452909152902054818103818110612d40576040517f08c379a000000000000000000000000000000000000000000000000000000000815260206004820152601d60248201527f455243313135353a20696e73756666696369656e742062616c616e6365000000604482015260640161091e565b815473ffffffffffffffffffffffffffffffffffffffff168015801590612fe757505f8173ffffffffffffffffffffffffffffffffffffffff163b115b15610730576040517fc617113400000000000000000000000000000000000000000000000000000000815230600482015273ffffffffffffffffffffffffffffffffffffffff838116602483015282169063c617113490604401602060405180830381865afa15801561305c573d5f803e3d5ffd5b505050506040513d601f19601f820116820180604052508101906130809190613f6c565b610730576040517fede71dcc00000000000000000000000000000000000000000000000000000000815273ffffffffffffffffffffffffffffffffffffffff8316600482015260240161091e565b80156109e2575f8281526020868152604080832073ffffffffffffffffffffffffffffffffffffffff8816845290915290205481810381811061316d576040517f08c379a000000000000000000000000000000000000000000000000000000000815260206004820152601d60248201527f455243313135353a20696e73756666696369656e742062616c616e6365000000604482015260640161091e565b8473ffffffffffffffffffffffffffffffffffffffff168673ffffffffffffffffffffffffffffffffffffffff1614610e6c575f8481526020888152604080832073ffffffffffffffffffffffffffffffffffffffff89168452909152902054838101818111613239576040517f08c379a000000000000000000000000000000000000000000000000000000000815260206004820152601960248201527f455243313135353a2062616c616e6365206f766572666c6f7700000000000000604482015260640161091e565b5f86815260208a8152604080832073ffffffffffffffffffffffffffffffffffffffff808d1685528184528285208890558b1684529091529020555050505050505050565b6040517ff23a6e61000000000000000000000000000000000000000000000000000000008082529073ffffffffffffffffffffffffffffffffffffffff86169063f23a6e6190612dcf908a908a9089908990899060040161400c565b5f61333b826040518060400160405280602081526020017f5361666545524332303a206c6f772d6c6576656c2063616c6c206661696c65648152508573ffffffffffffffffffffffffffffffffffffffff166133e79092919063ffffffff16565b905080515f148061335b57508080602001905181019061335b9190613f6c565b610730576040517f08c379a000000000000000000000000000000000000000000000000000000000815260206004820152602a60248201527f5361666545524332303a204552433230206f7065726174696f6e20646964206e60448201527f6f74207375636365656400000000000000000000000000000000000000000000606482015260840161091e565b60606107ed84845f85855f808673ffffffffffffffffffffffffffffffffffffffff1685876040516134199190614050565b5f6040518083038185875af1925050503d805f8114613453576040519150601f19603f3d011682016040523d82523d5f602084013e613458565b606091505b509150915061346987838387613474565b979650505050505050565b606083156135095782515f036135025773ffffffffffffffffffffffffffffffffffffffff85163b613502576040517f08c379a000000000000000000000000000000000000000000000000000000000815260206004820152601d60248201527f416464726573733a2063616c6c20746f206e6f6e2d636f6e7472616374000000604482015260640161091e565b50816107ed565b6107ed838381511561351e5781518083602001fd5b806040517f08c379a000000000000000000000000000000000000000000000000000000000815260040161091e9190613657565b73ffffffffffffffffffffffffffffffffffffffff8116811461070e575f80fd5b5f8060408385031215613584575f80fd5b823561358f81613552565b946020939093013593505050565b7fffffffff000000000000000000000000000000000000000000000000000000008116811461070e575f80fd5b5f602082840312156135da575f80fd5b81356135e58161359d565b9392505050565b5f5b838110156136065781810151838201526020016135ee565b50505f910152565b5f81518084526136258160208601602086016135ec565b601f017fffffffffffffffffffffffffffffffffffffffffffffffffffffffffffffffe0169290920160200192915050565b602081525f610566602083018461360e565b5f8083601f840112613679575f80fd5b50813567ffffffffffffffff811115613690575f80fd5b6020830191508360208260051b8501011115610750575f80fd5b5f8083601f8401126136ba575f80fd5b50813567ffffffffffffffff8111156136d1575f80fd5b602083019150836020828501011115610750575f80fd5b5f805f805f805f6080888a0312156136fe575f80fd5b873561370981613552565b9650602088013567ffffffffffffffff80821115613725575f80fd5b6137318b838c01613669565b909850965060408a0135915080821115613749575f80fd5b6137558b838c01613669565b909650945060608a013591508082111561376d575f80fd5b5061377a8a828b016136aa565b989b979a50959850939692959293505050565b5f6020828403121561379d575f80fd5b5035919050565b5f602082840312156137b4575f80fd5b81356135e581613552565b5f805f606084860312156137d1575f80fd5b83356137dc81613552565b95602085013595506040909401359392505050565b5f8060408385031215613802575f80fd5b50508035926020909101359150565b5f805f805f805f8060a0898b031215613828575f80fd5b883561383381613552565b9750602089013561384381613552565b9650604089013567ffffffffffffffff8082111561385f575f80fd5b61386b8c838d01613669565b909850965060608b0135915080821115613883575f80fd5b61388f8c838d01613669565b909650945060808b01359150808211156138a7575f80fd5b506138b48b828c016136aa565b999c989b5096995094979396929594505050565b5f80604083850312156138d9575f80fd5b8235915060208301356138eb81613552565b809150509250929050565b5f805f8060408587031215613909575f80fd5b843567ffffffffffffffff80821115613920575f80fd5b61392c88838901613669565b90965094506020870135915080821115613944575f80fd5b5061395187828801613669565b95989497509550505050565b5f8151808452602080850194508084015f5b8381101561398b5781518752958201959082019060010161396f565b509495945050505050565b602081525f610566602083018461395d565b5f805f805f608086880312156139bc575f80fd5b85356139c781613552565b94506020860135935060408601359250606086013567ffffffffffffffff8111156139f0575f80fd5b6139fc888289016136aa565b969995985093965092949392505050565b5f805f805f8060608789031215613a22575f80fd5b863567ffffffffffffffff80821115613a39575f80fd5b613a458a838b01613669565b90985096506020890135915080821115613a5d575f80fd5b613a698a838b01613669565b90965094506040890135915080821115613a81575f80fd5b50613a8e89828a01613669565b979a9699509497509295939492505050565b5f805f805f60608688031215613ab4575f80fd5b8535613abf81613552565b9450602086013567ffffffffffffffff80821115613adb575f80fd5b613ae789838a01613669565b90965094506040880135915080821115613aff575f80fd5b506139fc88828901613669565b801515811461070e575f80fd5b5f8060408385031215613b2a575f80fd5b8235613b3581613552565b915060208301356138eb81613b0c565b5f805f805f805f806080898b031215613b5c575f80fd5b883567ffffffffffffffff80821115613b73575f80fd5b613b7f8c838d01613669565b909a50985060208b0135915080821115613b97575f80fd5b613ba38c838d01613669565b909850965060408b0135915080821115613bbb575f80fd5b613bc78c838d01613669565b909650945060608b01359150808211156138a7575f80fd5b5f8060408385031215613bf0575f80fd5b8235613bfb81613552565b915060208301356138eb81613552565b5f805f805f8060a08789031215613c20575f80fd5b8635613c2b81613552565b95506020870135613c3b81613552565b94506040870135935060608701359250608087013567ffffffffffffffff811115613c64575f80fd5b613a8e89828a016136aa565b7f4e487b71000000000000000000000000000000000000000000000000000000005f52603260045260245ffd5b7f4e487b71000000000000000000000000000000000000000000000000000000005f52601160045260245ffd5b8181038181111561056957610569613c9d565b600181811c90821680613cf157607f821691505b602082108103613d28577f4e487b71000000000000000000000000000000000000000000000000000000005f52602260045260245ffd5b50919050565b7f416363657373436f6e74726f6c3a206d697373696e672027000000000000000081525f8251613d658160188501602087016135ec565b7f2720726f6c6500000000000000000000000000000000000000000000000000006018939091019283015250601e01919050565b604081525f613dab604083018561395d565b8281036020840152613dbd818561395d565b95945050505050565b7f4e487b71000000000000000000000000000000000000000000000000000000005f52604160045260245ffd5b5f60208284031215613e03575f80fd5b815167ffffffffffffffff80821115613e1a575f80fd5b818401915084601f830112613e2d575f80fd5b815181811115613e3f57613e3f613dc6565b604051601f82017fffffffffffffffffffffffffffffffffffffffffffffffffffffffffffffffe0908116603f01168101908382118183101715613e8557613e85613dc6565b81604052828152876020848701011115613e9d575f80fd5b6134698360208301602088016135ec565b808202811582820484141761056957610569613c9d565b5f82613ef8577f4e487b71000000000000000000000000000000000000000000000000000000005f52601260045260245ffd5b500490565b8183525f7f07ffffffffffffffffffffffffffffffffffffffffffffffffffffffffffffff831115613f2d575f80fd5b8260051b80836020870137939093016020019392505050565b604081525f613f59604083018688613efd565b8281036020840152613469818587613efd565b5f60208284031215613f7c575f80fd5b81516135e581613b0c565b5f73ffffffffffffffffffffffffffffffffffffffff808816835280871660208401525060a06040830152613fbf60a083018661395d565b8281036060840152613fd1818661395d565b90508281036080840152613fe5818561360e565b98975050505050505050565b5f60208284031215614001575f80fd5b81516135e58161359d565b5f73ffffffffffffffffffffffffffffffffffffffff808816835280871660208401525084604083015283606083015260a0608083015261346960a083018461360e565b5f82516140618184602087016135ec565b919091019291505056fea26469706673582212206b4b6f5c54110a524ddc5e8a5a841f3751f7cb4a52d258ffaea22e871d4032ac64736f6c63430008150033",
  "linkReferences": {},
  "deployedLinkReferences": {}
}