{
  "_format": "hh-sol-artifact-1",
  "contractName": "ERC1155FullBurn",
  "sourceName": "contracts/token/ERC1155/preset/ERC1155FullBurn.sol",
  "abi": [
    {
      "inputs": [
        {
          "internalType": "string",
          "name": "tokenName",
          "type": "string"
        },
        {
          "internalType": "string",
          "name": "tokenSymbol",
          "type": "string"
        },
        {
          "internalType": "contract ITokenMetadataResolver",
          "name": "metadataResolver",
          "type": "address"
        },
        {
          "internalType": "contract IOperatorFilterRegistry",
          "name": "filterRegistry",
          "type": "address"
        },
        {
          "internalType": "contract IForwarderRegistry",
          "name": "forwarderRegistry",
          "type": "address"
        }
      ],
      "stateMutability": "nonpayable",
      "type": "constructor"
    },
    {
      "inputs": [
        {
          "internalType": "address",
          "name": "target",
          "type": "address"
        }
      ],
      "name": "AddressEmptyCode",
      "type": "error"
    },
    {
      "inputs": [
        {
          "internalType": "address",
          "name": "account",
          "type": "address"
        }
      ],
      "name": "AddressInsufficientBalance",
      "type": "error"
    },
    {
      "inputs": [],
      "name": "ERC1155BalanceOfAddressZero",
      "type": "error"
    },
    {
      "inputs": [
        {
          "internalType": "address",
          "name": "recipient",
          "type": "address"
        },
        {
          "internalType": "uint256",
          "name": "id",
          "type": "uint256"
        },
        {
          "internalType": "uint256",
          "name": "balance",
          "type": "uint256"
        },
        {
          "internalType": "uint256",
          "name": "value",
          "type": "uint256"
        }
      ],
      "name": "ERC1155BalanceOverflow",
      "type": "error"
    },
    {
      "inputs": [
        {
          "internalType": "address",
          "name": "owner",
          "type": "address"
        },
        {
          "internalType": "uint256",
          "name": "id",
          "type": "uint256"
        },
        {
          "internalType": "uint256",
          "name": "balance",
          "type": "uint256"
        },
        {
          "internalType": "uint256",
          "name": "value",
          "type": "uint256"
        }
      ],
      "name": "ERC1155InsufficientBalance",
      "type": "error"
    },
    {
      "inputs": [],
      "name": "ERC1155MintToAddressZero",
      "type": "error"
    },
    {
      "inputs": [
        {
          "internalType": "address",
          "name": "sender",
          "type": "address"
        },
        {
          "internalType": "address",
          "name": "owner",
          "type": "address"
        }
      ],
      "name": "ERC1155NonApproved",
      "type": "error"
    },
    {
      "inputs": [
        {
          "internalType": "address",
          "name": "recipient",
          "type": "address"
        },
        {
          "internalType": "uint256[]",
          "name": "ids",
          "type": "uint256[]"
        },
        {
          "internalType": "uint256[]",
          "name": "values",
          "type": "uint256[]"
        }
      ],
      "name": "ERC1155SafeBatchTransferRejected",
      "type": "error"
    },
    {
      "inputs": [
        {
          "internalType": "address",
          "name": "recipient",
          "type": "address"
        },
        {
          "internalType": "uint256",
          "name": "id",
          "type": "uint256"
        },
        {
          "internalType": "uint256",
          "name": "value",
          "type": "uint256"
        }
      ],
      "name": "ERC1155SafeTransferRejected",
      "type": "error"
    },
    {
      "inputs": [
        {
          "internalType": "address",
          "name": "account",
          "type": "address"
        }
      ],
      "name": "ERC1155SelfApprovalForAll",
      "type": "error"
    },
    {
      "inputs": [],
      "name": "ERC1155TransferToAddressZero",
      "type": "error"
    },
    {
      "inputs": [
        {
          "internalType": "uint256",
          "name": "percentage",
          "type": "uint256"
        }
      ],
      "name": "ERC2981IncorrectRoyaltyPercentage",
      "type": "error"
    },
    {
      "inputs": [],
      "name": "ERC2981IncorrectRoyaltyReceiver",
      "type": "error"
    },
    {
      "inputs": [],
      "name": "FailedInnerCall",
      "type": "error"
    },
    {
      "inputs": [],
      "name": "IllegalInterfaceId",
      "type": "error"
    },
    {
      "inputs": [],
      "name": "InconsistentArrayLengths",
      "type": "error"
    },
    {
      "inputs": [
        {
          "internalType": "address",
          "name": "tokenContract",
          "type": "address"
        }
      ],
      "name": "IncorrectTokenContractType",
      "type": "error"
    },
    {
      "inputs": [
        {
          "internalType": "address",
          "name": "account",
          "type": "address"
        }
      ],
      "name": "NotContractOwner",
      "type": "error"
    },
    {
      "inputs": [
        {
          "internalType": "address",
          "name": "account",
          "type": "address"
        }
      ],
      "name": "NotMetadataResolver",
      "type": "error"
    },
    {
      "inputs": [
        {
          "internalType": "bytes32",
          "name": "role",
          "type": "bytes32"
        },
        {
          "internalType": "address",
          "name": "account",
          "type": "address"
        }
      ],
      "name": "NotRoleHolder",
      "type": "error"
    },
    {
      "inputs": [
        {
          "internalType": "address",
          "name": "operator",
          "type": "address"
        }
      ],
      "name": "OperatorNotAllowed",
      "type": "error"
    },
    {
      "inputs": [
        {
          "internalType": "address",
          "name": "token",
          "type": "address"
        }
      ],
      "name": "SafeERC20FailedOperation",
      "type": "error"
    },
    {
      "anonymous": false,
      "inputs": [
        {
          "indexed": true,
          "internalType": "address",
          "name": "owner",
          "type": "address"
        },
        {
          "indexed": true,
          "internalType": "address",
          "name": "operator",
          "type": "address"
        },
        {
          "indexed": false,
          "internalType": "bool",
          "name": "approved",
          "type": "bool"
        }
      ],
      "name": "ApprovalForAll",
      "type": "event"
    },
    {
      "anonymous": false,
      "inputs": [
        {
          "indexed": true,
          "internalType": "address",
          "name": "previousOwner",
          "type": "address"
        },
        {
          "indexed": true,
          "internalType": "address",
          "name": "newOwner",
          "type": "address"
        }
      ],
      "name": "OwnershipTransferred",
      "type": "event"
    },
    {
      "anonymous": false,
      "inputs": [
        {
          "indexed": false,
          "internalType": "bytes32",
          "name": "role",
          "type": "bytes32"
        },
        {
          "indexed": false,
          "internalType": "address",
          "name": "account",
          "type": "address"
        },
        {
          "indexed": false,
          "internalType": "address",
          "name": "operator",
          "type": "address"
        }
      ],
      "name": "RoleGranted",
      "type": "event"
    },
    {
      "anonymous": false,
      "inputs": [
        {
          "indexed": false,
          "internalType": "bytes32",
          "name": "role",
          "type": "bytes32"
        },
        {
          "indexed": false,
          "internalType": "address",
          "name": "account",
          "type": "address"
        },
        {
          "indexed": false,
          "internalType": "address",
          "name": "operator",
          "type": "address"
        }
      ],
      "name": "RoleRevoked",
      "type": "event"
    },
    {
      "anonymous": false,
      "inputs": [
        {
          "indexed": true,
          "internalType": "address",
          "name": "operator",
          "type": "address"
        },
        {
          "indexed": true,
          "internalType": "address",
          "name": "from",
          "type": "address"
        },
        {
          "indexed": true,
          "internalType": "address",
          "name": "to",
          "type": "address"
        },
        {
          "indexed": false,
          "internalType": "uint256[]",
          "name": "ids",
          "type": "uint256[]"
        },
        {
          "indexed": false,
          "internalType": "uint256[]",
          "name": "values",
          "type": "uint256[]"
        }
      ],
      "name": "TransferBatch",
      "type": "event"
    },
    {
      "anonymous": false,
      "inputs": [
        {
          "indexed": true,
          "internalType": "address",
          "name": "operator",
          "type": "address"
        },
        {
          "indexed": true,
          "internalType": "address",
          "name": "from",
          "type": "address"
        },
        {
          "indexed": true,
          "internalType": "address",
          "name": "to",
          "type": "address"
        },
        {
          "indexed": false,
          "internalType": "uint256",
          "name": "id",
          "type": "uint256"
        },
        {
          "indexed": false,
          "internalType": "uint256",
          "name": "value",
          "type": "uint256"
        }
      ],
      "name": "TransferSingle",
      "type": "event"
    },
    {
      "anonymous": false,
      "inputs": [
        {
          "indexed": false,
          "internalType": "string",
          "name": "value",
          "type": "string"
        },
        {
          "indexed": true,
          "internalType": "uint256",
          "name": "id",
          "type": "uint256"
        }
      ],
      "name": "URI",
      "type": "event"
    },
    {
      "inputs": [],
      "name": "MINTER_ROLE",
      "outputs": [
        {
          "internalType": "bytes32",
          "name": "",
          "type": "bytes32"
        }
      ],
      "stateMutability": "view",
      "type": "function"
    },
    {
      "inputs": [],
      "name": "ROYALTY_FEE_DENOMINATOR",
      "outputs": [
        {
          "internalType": "uint256",
          "name": "",
          "type": "uint256"
        }
      ],
      "stateMutability": "view",
      "type": "function"
    },
    {
      "inputs": [
        {
          "internalType": "address",
          "name": "owner",
          "type": "address"
        },
        {
          "internalType": "uint256",
          "name": "id",
          "type": "uint256"
        }
      ],
      "name": "balanceOf",
      "outputs": [
        {
          "internalType": "uint256",
          "name": "balance",
          "type": "uint256"
        }
      ],
      "stateMutability": "view",
      "type": "function"
    },
    {
      "inputs": [
        {
          "internalType": "address[]",
          "name": "owners",
          "type": "address[]"
        },
        {
          "internalType": "uint256[]",
          "name": "ids",
          "type": "uint256[]"
        }
      ],
      "name": "balanceOfBatch",
      "outputs": [
        {
          "internalType": "uint256[]",
          "name": "balances",
          "type": "uint256[]"
        }
      ],
      "stateMutability": "view",
      "type": "function"
    },
    {
      "inputs": [
        {
          "internalType": "address",
          "name": "from",
          "type": "address"
        },
        {
          "internalType": "uint256[]",
          "name": "ids",
          "type": "uint256[]"
        },
        {
          "internalType": "uint256[]",
          "name": "values",
          "type": "uint256[]"
        }
      ],
      "name": "batchBurnFrom",
      "outputs": [],
      "stateMutability": "nonpayable",
      "type": "function"
    },
    {
      "inputs": [
        {
          "internalType": "uint256[]",
          "name": "tokenIds",
          "type": "uint256[]"
        },
        {
          "internalType": "string[]",
          "name": "tokenURIs",
          "type": "string[]"
        }
      ],
      "name": "batchSetTokenURI",
      "outputs": [],
      "stateMutability": "nonpayable",
      "type": "function"
    },
    {
      "inputs": [
        {
          "internalType": "address",
          "name": "from",
          "type": "address"
        },
        {
          "internalType": "uint256",
          "name": "id",
          "type": "uint256"
        },
        {
          "internalType": "uint256",
          "name": "value",
          "type": "uint256"
        }
      ],
      "name": "burnFrom",
      "outputs": [],
      "stateMutability": "nonpayable",
      "type": "function"
    },
    {
      "inputs": [],
      "name": "forwarderRegistry",
      "outputs": [
        {
          "internalType": "contract IForwarderRegistry",
          "name": "",
          "type": "address"
        }
      ],
      "stateMutability": "view",
      "type": "function"
    },
    {
      "inputs": [
        {
          "internalType": "bytes32",
          "name": "role",
          "type": "bytes32"
        },
        {
          "internalType": "address",
          "name": "account",
          "type": "address"
        }
      ],
      "name": "grantRole",
      "outputs": [],
      "stateMutability": "nonpayable",
      "type": "function"
    },
    {
      "inputs": [
        {
          "internalType": "bytes32",
          "name": "role",
          "type": "bytes32"
        },
        {
          "internalType": "address",
          "name": "account",
          "type": "address"
        }
      ],
      "name": "hasRole",
      "outputs": [
        {
          "internalType": "bool",
          "name": "hasRole_",
          "type": "bool"
        }
      ],
      "stateMutability": "view",
      "type": "function"
    },
    {
      "inputs": [
        {
          "internalType": "address",
          "name": "owner",
          "type": "address"
        },
        {
          "internalType": "address",
          "name": "operator",
          "type": "address"
        }
      ],
      "name": "isApprovedForAll",
      "outputs": [
        {
          "internalType": "bool",
          "name": "approvedForAll",
          "type": "bool"
        }
      ],
      "stateMutability": "view",
      "type": "function"
    },
    {
      "inputs": [
        {
          "internalType": "address",
          "name": "forwarder",
          "type": "address"
        }
      ],
      "name": "isTrustedForwarder",
      "outputs": [
        {
          "internalType": "bool",
          "name": "",
          "type": "bool"
        }
      ],
      "stateMutability": "view",
      "type": "function"
    },
    {
      "inputs": [],
      "name": "metadataResolver",
      "outputs": [
        {
          "internalType": "contract ITokenMetadataResolver",
          "name": "tokenMetadataResolver",
          "type": "address"
        }
      ],
      "stateMutability": "view",
      "type": "function"
    },
    {
      "inputs": [],
      "name": "name",
      "outputs": [
        {
          "internalType": "string",
          "name": "tokenName",
          "type": "string"
        }
      ],
      "stateMutability": "view",
      "type": "function"
    },
    {
      "inputs": [],
      "name": "operatorFilterRegistry",
      "outputs": [
        {
          "internalType": "contract IOperatorFilterRegistry",
          "name": "",
          "type": "address"
        }
      ],
      "stateMutability": "view",
      "type": "function"
    },
    {
      "inputs": [],
      "name": "owner",
      "outputs": [
        {
          "internalType": "address",
          "name": "",
          "type": "address"
        }
      ],
      "stateMutability": "view",
      "type": "function"
    },
    {
      "inputs": [
        {
          "internalType": "address[]",
          "name": "accounts",
          "type": "address[]"
        },
        {
          "internalType": "contract IERC20[]",
          "name": "tokens",
          "type": "address[]"
        },
        {
          "internalType": "uint256[]",
          "name": "amounts",
          "type": "uint256[]"
        }
      ],
      "name": "recoverERC20s",
      "outputs": [],
      "stateMutability": "nonpayable",
      "type": "function"
    },
    {
      "inputs": [
        {
          "internalType": "address[]",
          "name": "accounts",
          "type": "address[]"
        },
        {
          "internalType": "contract IERC721[]",
          "name": "contracts",
          "type": "address[]"
        },
        {
          "internalType": "uint256[]",
          "name": "tokenIds",
          "type": "uint256[]"
        }
      ],
      "name": "recoverERC721s",
      "outputs": [],
      "stateMutability": "nonpayable",
      "type": "function"
    },
    {
      "inputs": [
        {
          "internalType": "address payable[]",
          "name": "accounts",
          "type": "address[]"
        },
        {
          "internalType": "uint256[]",
          "name": "amounts",
          "type": "uint256[]"
        }
      ],
      "name": "recoverETH",
      "outputs": [],
      "stateMutability": "nonpayable",
      "type": "function"
    },
    {
      "inputs": [
        {
          "internalType": "bytes32",
          "name": "role",
          "type": "bytes32"
        }
      ],
      "name": "renounceRole",
      "outputs": [],
      "stateMutability": "nonpayable",
      "type": "function"
    },
    {
      "inputs": [
        {
          "internalType": "bytes32",
          "name": "role",
          "type": "bytes32"
        },
        {
          "internalType": "address",
          "name": "account",
          "type": "address"
        }
      ],
      "name": "revokeRole",
      "outputs": [],
      "stateMutability": "nonpayable",
      "type": "function"
    },
    {
      "inputs": [
        {
          "internalType": "uint256",
          "name": "tokenId",
          "type": "uint256"
        },
        {
          "internalType": "uint256",
          "name": "salePrice",
          "type": "uint256"
        }
      ],
      "name": "royaltyInfo",
      "outputs": [
        {
          "internalType": "address",
          "name": "receiver",
          "type": "address"
        },
        {
          "internalType": "uint256",
          "name": "royaltyAmount",
          "type": "uint256"
        }
      ],
      "stateMutability": "view",
      "type": "function"
    },
    {
      "inputs": [
        {
          "internalType": "address",
          "name": "to",
          "type": "address"
        },
        {
          "internalType": "uint256[]",
          "name": "ids",
          "type": "uint256[]"
        },
        {
          "internalType": "uint256[]",
          "name": "values",
          "type": "uint256[]"
        },
        {
          "internalType": "bytes",
          "name": "data",
          "type": "bytes"
        }
      ],
      "name": "safeBatchMint",
      "outputs": [],
      "stateMutability": "nonpayable",
      "type": "function"
    },
    {
      "inputs": [
        {
          "internalType": "address",
          "name": "from",
          "type": "address"
        },
        {
          "internalType": "address",
          "name": "to",
          "type": "address"
        },
        {
          "internalType": "uint256[]",
          "name": "ids",
          "type": "uint256[]"
        },
        {
          "internalType": "uint256[]",
          "name": "values",
          "type": "uint256[]"
        },
        {
          "internalType": "bytes",
          "name": "data",
          "type": "bytes"
        }
      ],
      "name": "safeBatchTransferFrom",
      "outputs": [],
      "stateMutability": "nonpayable",
      "type": "function"
    },
    {
      "inputs": [
        {
          "internalType": "address[]",
          "name": "recipients",
          "type": "address[]"
        },
        {
          "internalType": "uint256[]",
          "name": "ids",
          "type": "uint256[]"
        },
        {
          "internalType": "uint256[]",
          "name": "values",
          "type": "uint256[]"
        },
        {
          "internalType": "bytes",
          "name": "data",
          "type": "bytes"
        }
      ],
      "name": "safeDeliver",
      "outputs": [],
      "stateMutability": "nonpayable",
      "type": "function"
    },
    {
      "inputs": [
        {
          "internalType": "address",
          "name": "to",
          "type": "address"
        },
        {
          "internalType": "uint256",
          "name": "id",
          "type": "uint256"
        },
        {
          "internalType": "uint256",
          "name": "value",
          "type": "uint256"
        },
        {
          "internalType": "bytes",
          "name": "data",
          "type": "bytes"
        }
      ],
      "name": "safeMint",
      "outputs": [],
      "stateMutability": "nonpayable",
      "type": "function"
    },
    {
      "inputs": [
        {
          "internalType": "address",
          "name": "from",
          "type": "address"
        },
        {
          "internalType": "address",
          "name": "to",
          "type": "address"
        },
        {
          "internalType": "uint256",
          "name": "id",
          "type": "uint256"
        },
        {
          "internalType": "uint256",
          "name": "value",
          "type": "uint256"
        },
        {
          "internalType": "bytes",
          "name": "data",
          "type": "bytes"
        }
      ],
      "name": "safeTransferFrom",
      "outputs": [],
      "stateMutability": "nonpayable",
      "type": "function"
    },
    {
      "inputs": [
        {
          "internalType": "address",
          "name": "operator",
          "type": "address"
        },
        {
          "internalType": "bool",
          "name": "approved",
          "type": "bool"
        }
      ],
      "name": "setApprovalForAll",
      "outputs": [],
      "stateMutability": "nonpayable",
      "type": "function"
    },
    {
      "inputs": [
        {
          "internalType": "uint256",
          "name": "percentage",
          "type": "uint256"
        }
      ],
      "name": "setRoyaltyPercentage",
      "outputs": [],
      "stateMutability": "nonpayable",
      "type": "function"
    },
    {
      "inputs": [
        {
          "internalType": "address",
          "name": "receiver",
          "type": "address"
        }
      ],
      "name": "setRoyaltyReceiver",
      "outputs": [],
      "stateMutability": "nonpayable",
      "type": "function"
    },
    {
      "inputs": [
        {
          "internalType": "uint256",
          "name": "tokenId",
          "type": "uint256"
        },
        {
          "internalType": "string",
          "name": "tokenURI",
          "type": "string"
        }
      ],
      "name": "setTokenURI",
      "outputs": [],
      "stateMutability": "nonpayable",
      "type": "function"
    },
    {
      "inputs": [
        {
          "internalType": "bytes4",
          "name": "interfaceId",
          "type": "bytes4"
        }
      ],
      "name": "supportsInterface",
      "outputs": [
        {
          "internalType": "bool",
          "name": "",
          "type": "bool"
        }
      ],
      "stateMutability": "view",
      "type": "function"
    },
    {
      "inputs": [],
      "name": "symbol",
      "outputs": [
        {
          "internalType": "string",
          "name": "tokenSymbol",
          "type": "string"
        }
      ],
      "stateMutability": "view",
      "type": "function"
    },
    {
      "inputs": [
        {
          "internalType": "address",
          "name": "newOwner",
          "type": "address"
        }
      ],
      "name": "transferOwnership",
      "outputs": [],
      "stateMutability": "nonpayable",
      "type": "function"
    },
    {
      "inputs": [
        {
          "internalType": "contract IOperatorFilterRegistry",
          "name": "registry",
          "type": "address"
        }
      ],
      "name": "updateOperatorFilterRegistry",
      "outputs": [],
      "stateMutability": "nonpayable",
      "type": "function"
    },
    {
      "inputs": [
        {
          "internalType": "uint256",
          "name": "tokenId",
          "type": "uint256"
        }
      ],
      "name": "uri",
      "outputs": [
        {
          "internalType": "string",
          "name": "metadataURI",
          "type": "string"
        }
      ],
      "stateMutability": "view",
      "type": "function"
    }
  ],
  "bytecode": "0x60a060405234801561001057600080fd5b506040516146e93803806146e983398101604081905261002f916103fb565b80808686868633610048816100426100d6565b9061010a565b50610051610180565b61007b8161005d610197565b9081546001600160a01b0319166001600160a01b0391909116179055565b5061009283838361008a6101c5565b9291906101f3565b61009a610236565b506100a691505061024b565b6100ae610260565b6100b6610275565b6100be61028a565b6001600160a01b031660805250610605945050505050565b60008061010460017fc9ed16f33ab3a66c84bfd83099ccb2a8845871e2e1c1928f63797152f0fd54cd61049a565b92915050565b6001600160a01b038116156101605781546001600160a01b0319166001600160a01b03821690811783556040516000907f8be0079c531659141344cd1fd0a4f28419497f9722a3daafe3b4186f6b6457e0908290a35b61017c6307f5828d60e41b600161017561029b565b91906102c9565b5050565b610195636cdb3d1360e11b600161017561029b565b565b60008061010460017f609b85bcafa81ecfaf3ff62cdde2c6c9082a68dbe4922f07399c706bdeb7cd3161049a565b60008061010460017f7ea68fd2dcf1c056b94db6a0a537aa80d26fa9ab1eacd85da1ba0b61b7e7a8a561049a565b836101fe8482610546565b506001840161020d8382610546565b5060029390930180546001600160a01b0319166001600160a01b03909416939093179092555050565b6101956303a24d0760e21b600161017561029b565b610195631464324b60e21b600161017561029b565b610195633a2ae73360e21b600161017561029b565b61019563921ed8d160e01b600161017561029b565b61019563152a902d60e11b60016101755b60008061010460017fca9d3e17f264b0f3984e2634e94adb37fa3e6a8103f06aeae6fa59e21c769f5e61049a565b600160e01b6001600160e01b03198316016102f7576040516372c683bb60e01b815260040160405180910390fd5b6001600160e01b03199190911660009081526020929092526040909120805460ff1916911515919091179055565b634e487b7160e01b600052604160045260246000fd5b600082601f83011261034c57600080fd5b81516001600160401b038082111561036657610366610325565b604051601f8301601f19908116603f0116810190828211818310171561038e5761038e610325565b81604052838152602092508660208588010111156103ab57600080fd5b600091505b838210156103cd57858201830151818301840152908201906103b0565b6000602085830101528094505050505092915050565b6001600160a01b03811681146103f857600080fd5b50565b600080600080600060a0868803121561041357600080fd5b85516001600160401b038082111561042a57600080fd5b61043689838a0161033b565b9650602088015191508082111561044c57600080fd5b506104598882890161033b565b945050604086015161046a816103e3565b606087015190935061047b816103e3565b608087015190925061048c816103e3565b809150509295509295909350565b8181038181111561010457634e487b7160e01b600052601160045260246000fd5b600181811c908216806104cf57607f821691505b6020821081036104ef57634e487b7160e01b600052602260045260246000fd5b50919050565b601f821115610541576000816000526020600020601f850160051c8101602086101561051e5750805b601f850160051c820191505b8181101561053d5782815560010161052a565b5050505b505050565b81516001600160401b0381111561055f5761055f610325565b6105738161056d84546104bb565b846104f5565b602080601f8311600181146105a857600084156105905750858301515b600019600386901b1c1916600185901b17855561053d565b600085815260208120601f198616915b828110156105d7578886015182559484019460019091019084016105b8565b50858210156105f55787850151600019600388901b60f8161c191681555b5050505050600190811b01905550565b6080516140b461063560003960008181610360015281816103fb01528181612a4d0152612adb01526140b46000f3fe608060405234801561001057600080fd5b506004361061025b5760003560e01c80638053493411610145578063c3666c36116100bd578063e8ab9ccc1161008c578063f242432a11610071578063f242432a14610580578063f2fde38b14610593578063f7ba94bd146105a657600080fd5b8063e8ab9ccc1461055a578063e985e9c51461056d57600080fd5b8063c3666c3614610503578063d539139314610516578063d547741f1461053d578063e1a8bf2c1461055057600080fd5b806391d1485411610114578063a0c76f62116100f9578063a0c76f62146104e0578063a22cb465146104e8578063b0ccc31e146104fb57600080fd5b806391d14854146104c557806395d89b41146104d857600080fd5b806380534934146104845780638bb9c5bf146104975780638da5cb5b146104aa5780638dc251e3146104b257600080fd5b80632b4c9f16116101d8578063572b6c05116101a757806361ba27da1161018c57806361ba27da1461044b5780636706467b1461045e57806373c8a9581461047157600080fd5b8063572b6c05146103eb5780635cfa92971461043857600080fd5b80632b4c9f161461035e5780632eb2c2d6146103a55780632f2ff15d146103b85780634e1273f4146103cb57600080fd5b80630e89341c1161022f578063124d91e511610214578063124d91e5146102f9578063162094c41461030c5780632a55205a1461031f57600080fd5b80630e89341c146102d3578063114ba8ee146102e657600080fd5b8062fdd58e1461026057806301ffc9a71461028657806306fdde03146102a95780630d6a5bbb146102be575b600080fd5b61027361026e366004613442565b6105b9565b6040519081526020015b60405180910390f35b61029961029436600461349c565b6105d8565b604051901515815260200161027d565b6102b16105ec565b60405161027d9190613527565b6102d16102cc3660046135c1565b610603565b005b6102b16102e136600461366e565b6106fe565b6102d16102f4366004613687565b610714565b6102d16103073660046136a4565b61077f565b6102d161031a3660046136d9565b6107a3565b61033261032d366004613725565b610875565b6040805173ffffffffffffffffffffffffffffffffffffffff909316835260208301919091520161027d565b7f00000000000000000000000000000000000000000000000000000000000000005b60405173ffffffffffffffffffffffffffffffffffffffff909116815260200161027d565b6102d16103b3366004613747565b610898565b6102d16103c6366004613806565b6108e5565b6103de6103d9366004613836565b610913565b60405161027d91906138de565b6102996103f9366004613687565b7f000000000000000000000000000000000000000000000000000000000000000073ffffffffffffffffffffffffffffffffffffffff90811691161490565b6102d16104463660046138f1565b610936565b6102d161045936600461366e565b6109c8565b6102d161046c366004613836565b6109e5565b6102d161047f36600461395b565b610b1d565b6102d16104923660046139f5565b610c09565b6102d16104a536600461366e565b610c2c565b610380610c47565b6102d16104c0366004613687565b610c6e565b6102996104d3366004613806565b610c8b565b6102b1610ccf565b610380610ce1565b6102d16104f6366004613a75565b610cee565b610380610d27565b6102d161051136600461395b565b610d34565b6102737f6d696e746572000000000000000000000000000000000000000000000000000081565b6102d161054b366004613806565b610fd5565b610273620186a081565b6102d1610568366004613aa3565b611003565b61029961057b366004613b46565b61111d565b6102d161058e366004613b74565b61116b565b6102d16105a1366004613687565b6111ab565b6102d16105b4366004613836565b6111c6565b60006105cf83836105c861127d565b91906112ab565b90505b92915050565b60006105d2826105e6611331565b9061135f565b60606105fe6105f9611439565b611467565b905090565b600061060d6114fd565b90506106437f6d696e74657200000000000000000000000000000000000000000000000000008261063c611507565b9190611535565b6106f4818989898080602002602001604051908101604052809392919081815260200183836020028082843760009201919091525050604080516020808d0282810182019093528c82529093508c92508b91829185019084908082843760009201919091525050604080516020601f8c018190048102820181019092528a815292508a91508990819084018382808284376000920191909152506106ea925061127d915050565b94939291906115bb565b5050505050505050565b60606105d2308361070d611439565b9190611741565b61072d61071f6114fd565b610727611809565b90611837565b61077c816107396118a2565b9081547fffffffffffffffffffffffff00000000000000000000000000000000000000001673ffffffffffffffffffffffffffffffffffffffff91909116179055565b50565b61079e61078a6114fd565b84848461079561127d565b93929190611912565b505050565b6107cb6107ae611439565b6002015473ffffffffffffffffffffffffffffffffffffffff1690565b73ffffffffffffffffffffffffffffffffffffffff163373ffffffffffffffffffffffffffffffffffffffff1614610836576040517f220606710000000000000000000000000000000000000000000000000000000081523360048201526024015b60405180910390fd5b827f6bb7ff708619ba0610cba295a58592e0451dee2622938c8755667688daf3529b8383604051610868929190613bde565b60405180910390a2505050565b60008061088c84846108856119df565b9190611a0d565b915091505b9250929050565b60006108a26114fd565b90506108b8818a6108b16118a2565b9190611ab7565b6108da818a8a8a8a8a8a8a8a6108cc61127d565b989796959493929190611af4565b505050505050505050565b60006108ef6114fd565b90506108fd81610727611809565b61079e83838361090b611507565b929190611d7d565b606061092d8585858561092461127d565b93929190611e54565b95945050505050565b60006109406114fd565b905061096f7f6d696e74657200000000000000000000000000000000000000000000000000008261063c611507565b6109c08187878787878080601f0160208091040260200160405190810160405280939291908181526020018383808284376000920191909152506109b6925061127d915050565b9493929190611f63565b505050505050565b6109d361071f6114fd565b61077c816109df6119df565b90612041565b828114610a1e576040517f6582533600000000000000000000000000000000000000000000000000000000815260040160405180910390fd5b610a296107ae611439565b73ffffffffffffffffffffffffffffffffffffffff163373ffffffffffffffffffffffffffffffffffffffff1614610a8f576040517f2206067100000000000000000000000000000000000000000000000000000000815233600482015260240161082d565b60005b83811015610b1657848482818110610aac57610aac613c2b565b905060200201357f6bb7ff708619ba0610cba295a58592e0451dee2622938c8755667688daf3529b848484818110610ae657610ae6613c2b565b9050602002810190610af89190613c5a565b604051610b06929190613bde565b60405180910390a2600101610a92565b5050505050565b610b2861071f6114fd565b848381141580610b385750808214155b15610b6f576040517f6582533600000000000000000000000000000000000000000000000000000000815260040160405180910390fd5b60005b818110156106f457610c01888883818110610b8f57610b8f613c2b565b9050602002016020810190610ba49190613687565b858584818110610bb657610bb6613c2b565b90506020020135888885818110610bcf57610bcf613c2b565b9050602002016020810190610be49190613687565b73ffffffffffffffffffffffffffffffffffffffff1691906120c7565b600101610b72565b610b16610c146114fd565b8686868686610c2161127d565b959493929190612154565b61077c610c376114fd565b82610c40611507565b91906122cc565b60006105fe610c54611809565b5473ffffffffffffffffffffffffffffffffffffffff1690565b610c7961071f6114fd565b61077c81610c856119df565b90612370565b60006105cf8383610c9a611507565b60009283526020908152604080842073ffffffffffffffffffffffffffffffffffffffff909316845291905290205460ff1690565b60606105fe610cdc611439565b6123bd565b60006105fe6107ae611439565b8015610d0657610d0682610d006118a2565b906123ce565b610d23610d116114fd565b8383610d1b61127d565b9291906123d8565b5050565b60006105fe610c546118a2565b610d3f61071f6114fd565b848381141580610d4f5750808214155b15610d86576040517f6582533600000000000000000000000000000000000000000000000000000000815260040160405180910390fd5b60005b818110156106f4576000868683818110610da557610da5613c2b565b9050602002016020810190610dba9190613687565b6040517f01ffc9a70000000000000000000000000000000000000000000000000000000081527f80ac58cd00000000000000000000000000000000000000000000000000000000600482015290915073ffffffffffffffffffffffffffffffffffffffff8216906301ffc9a790602401602060405180830381865afa158015610e47573d6000803e3d6000fd5b505050506040513d601f19601f82011682018060405250810190610e6b9190613cbf565b610eb9576040517f986b9f1f00000000000000000000000000000000000000000000000000000000815273ffffffffffffffffffffffffffffffffffffffff8216600482015260240161082d565b868683818110610ecb57610ecb613c2b565b9050602002016020810190610ee09190613687565b73ffffffffffffffffffffffffffffffffffffffff166342842e0e308b8b86818110610f0e57610f0e613c2b565b9050602002016020810190610f239190613687565b888887818110610f3557610f35613c2b565b6040517fffffffff0000000000000000000000000000000000000000000000000000000060e088901b16815273ffffffffffffffffffffffffffffffffffffffff958616600482015294909316602485015250602090910201356044820152606401600060405180830381600087803b158015610fb157600080fd5b505af1158015610fc5573d6000803e3d6000fd5b5050505050806001019050610d89565b6000610fdf6114fd565b9050610fed81610727611809565b61079e838383610ffb611507565b9291906124f0565b600061100d6114fd565b905061103c7f6d696e74657200000000000000000000000000000000000000000000000000008261063c611507565b6108da818a8a8080602002602001604051908101604052809392919081815260200183836020028082843760009201919091525050604080516020808e0282810182019093528d82529093508d92508c91829185019084908082843760009201919091525050604080516020808d0282810182019093528c82529093508c92508b91829185019084908082843760009201919091525050604080516020601f8c018190048102820181019092528a815292508a9150899081908401838280828437600092019190915250611113925061127d915050565b94939291906125ba565b60006105cf838361112c61127d565b919073ffffffffffffffffffffffffffffffffffffffff9182166000908152600193909301602090815260408085209290931684525290205460ff1690565b60006111756114fd565b905061118481886108b16118a2565b6111a28188888888888861119661127d565b9695949392919061267d565b50505050505050565b61077c6111b66114fd565b826111bf611809565b9190612820565b6111d161071f6114fd565b8281811461120b576040517f6582533600000000000000000000000000000000000000000000000000000000815260040160405180910390fd5b60005b818110156109c05761127584848381811061122b5761122b613c2b565b9050602002013587878481811061124457611244613c2b565b90506020020160208101906112599190613687565b73ffffffffffffffffffffffffffffffffffffffff1690612934565b60010161120e565b6000806105d260017f5ccf5846fa27a68fafc8e588671a68f5e67c2f9b56af4263806a4d71735e8613613d0b565b600073ffffffffffffffffffffffffffffffffffffffff83166112fa576040517fca2434a500000000000000000000000000000000000000000000000000000000815260040160405180910390fd5b5060008181526020848152604080832073ffffffffffffffffffffffffffffffffffffffff861684529091529020545b9392505050565b6000806105d260017fca9d3e17f264b0f3984e2634e94adb37fa3e6a8103f06aeae6fa59e21c769f5e613d0b565b60007c01000000000000000000000000000000000000000000000000000000007fffffffff000000000000000000000000000000000000000000000000000000008316016113af575060006105d2565b7ffe003659000000000000000000000000000000000000000000000000000000007fffffffff00000000000000000000000000000000000000000000000000000000831601611400575060016105d2565b507fffffffff00000000000000000000000000000000000000000000000000000000166000908152602091909152604090205460ff1690565b6000806105d260017f7ea68fd2dcf1c056b94db6a0a537aa80d26fa9ab1eacd85da1ba0b61b7e7a8a5613d0b565b606081600001805461147890613d1e565b80601f01602080910402602001604051908101604052809291908181526020018280546114a490613d1e565b80156114f15780601f106114c6576101008083540402835291602001916114f1565b820191906000526020600020905b8154815290600101906020018083116114d457829003601f168201915b50505050509050919050565b60006105fe612a0a565b6000806105d260017fc8827d3282af6f37b64c3e9e6f3ac9df286ab0bb0fccd6f8661bf19adb368b23613d0b565b60008281526020848152604080832073ffffffffffffffffffffffffffffffffffffffff8516845290915290205460ff1661079e576040517f7aa728820000000000000000000000000000000000000000000000000000000081526004810183905273ffffffffffffffffffffffffffffffffffffffff8216602482015260440161082d565b73ffffffffffffffffffffffffffffffffffffffff8416611608576040517f021149bd00000000000000000000000000000000000000000000000000000000815260040160405180910390fd5b825182518114611644576040517f6582533600000000000000000000000000000000000000000000000000000000815260040160405180910390fd5b60005b818110156116955761168d888787848151811061166657611666613c2b565b602002602001015187858151811061168057611680613c2b565b6020026020010151612b57565b600101611647565b508473ffffffffffffffffffffffffffffffffffffffff16600073ffffffffffffffffffffffffffffffffffffffff168773ffffffffffffffffffffffffffffffffffffffff167f4a39dc06d4c0dbc64b70af90fd698a233a518aa5d07e595d983b8c0526c8f7fb878760405161170d929190613d71565b60405180910390a473ffffffffffffffffffffffffffffffffffffffff85163b156111a2576111a286600087878787612c28565b60028301546040517ff724dad700000000000000000000000000000000000000000000000000000000815273ffffffffffffffffffffffffffffffffffffffff848116600483015260248201849052606092169063f724dad790604401600060405180830381865afa1580156117bb573d6000803e3d6000fd5b505050506040513d6000823e601f3d9081017fffffffffffffffffffffffffffffffffffffffffffffffffffffffffffffffe01682016040526118019190810190613dc5565b949350505050565b6000806105d260017fc9ed16f33ab3a66c84bfd83099ccb2a8845871e2e1c1928f63797152f0fd54cd613d0b565b815473ffffffffffffffffffffffffffffffffffffffff828116911614610d23576040517f2ef4875e00000000000000000000000000000000000000000000000000000000815273ffffffffffffffffffffffffffffffffffffffff8216600482015260240161082d565b6000806105d260017f609b85bcafa81ecfaf3ff62cdde2c6c9082a68dbe4922f07399c706bdeb7cd31613d0b565b81547fffffffffffffffffffffffff00000000000000000000000000000000000000001673ffffffffffffffffffffffffffffffffffffffff91909116179055565b61191d858486612d26565b611973576040517f05bbb9c400000000000000000000000000000000000000000000000000000000815273ffffffffffffffffffffffffffffffffffffffff80861660048301528416602482015260440161082d565b61197f85848484612d9b565b604080518381526020810183905260009173ffffffffffffffffffffffffffffffffffffffff86811692908816917fc3d58168c5ae7397731d063d5bbf3d657854427343f4c083240f7aacaa2d0f62910160405180910390a45050505050565b6000806105d260017f2c0cf10337caabbd02dcf226f05f5fd19a0919a41a8df8958c39b80007826858613d0b565b825473ffffffffffffffffffffffffffffffffffffffff8116906000907401000000000000000000000000000000000000000090046bffffffffffffffffffffffff16831580611a5b575080155b15611a695760009150611aae565b620186a0841015611a9357620186a0611a828286613e90565b611a8c9190613ea7565b9150611aae565b80611aa1620186a086613ea7565b611aab9190613e90565b91505b50935093915050565b8073ffffffffffffffffffffffffffffffffffffffff168273ffffffffffffffffffffffffffffffffffffffff161461079e5761079e8383612e38565b73ffffffffffffffffffffffffffffffffffffffff8716611b41576040517fb5e8901500000000000000000000000000000000000000000000000000000000815260040160405180910390fd5b84838114611b7b576040517f6582533600000000000000000000000000000000000000000000000000000000815260040160405180910390fd5b611b868b8a8c612d26565b611bdc576040517f05bbb9c400000000000000000000000000000000000000000000000000000000815273ffffffffffffffffffffffffffffffffffffffff808c1660048301528a16602482015260440161082d565b60005b81811015611c2c57611c248c8b8b8b8b86818110611bff57611bff613c2b565b905060200201358a8a87818110611c1857611c18613c2b565b90506020020135612f5f565b600101611bdf565b508773ffffffffffffffffffffffffffffffffffffffff168973ffffffffffffffffffffffffffffffffffffffff168b73ffffffffffffffffffffffffffffffffffffffff167f4a39dc06d4c0dbc64b70af90fd698a233a518aa5d07e595d983b8c0526c8f7fb8a8a8a8a604051611ca79493929190613f2d565b60405180910390a473ffffffffffffffffffffffffffffffffffffffff88163b15611d7057611d708a8a8a8a8a8080602002602001604051908101604052809392919081815260200183836020028082843760009201919091525050604080516020808e0282810182019093528d82529093508d92508c91829185019084908082843760009201919091525050604080516020601f8d018190048102820181019092528b815292508b91508a9081908401838280828437600092019190915250612c2892505050565b5050505050505050505050565b60008381526020858152604080832073ffffffffffffffffffffffffffffffffffffffff8616845290915290205460ff16611e4e5760008381526020858152604080832073ffffffffffffffffffffffffffffffffffffffff8681168086529184529382902080547fffffffffffffffffffffffffffffffffffffffffffffffffffffffffffffff00166001179055815187815292830152918316918101919091527f2f8788117e7eff1d82e926ec794901d17c78024a50270940304540a733656f0d906060015b60405180910390a15b50505050565b606083828114611e90576040517f6582533600000000000000000000000000000000000000000000000000000000815260040160405180910390fd5b8467ffffffffffffffff811115611ea957611ea9613d96565b604051908082528060200260200182016040528015611ed2578160200160208202803683370190505b50915060005b81811015611f5857611f33878783818110611ef557611ef5613c2b565b9050602002016020810190611f0a9190613687565b868684818110611f1c57611f1c613c2b565b905060200201358a6112ab9092919063ffffffff16565b838281518110611f4557611f45613c2b565b6020908102919091010152600101611ed8565b505095945050505050565b73ffffffffffffffffffffffffffffffffffffffff8416611fb0576040517f021149bd00000000000000000000000000000000000000000000000000000000815260040160405180910390fd5b611fbc86858585612b57565b604080518481526020810184905273ffffffffffffffffffffffffffffffffffffffff80871692600092918916917fc3d58168c5ae7397731d063d5bbf3d657854427343f4c083240f7aacaa2d0f62910160405180910390a473ffffffffffffffffffffffffffffffffffffffff84163b156109c0576109c08560008686868661310c565b620186a0811115612081576040517fac0404080000000000000000000000000000000000000000000000000000000081526004810182905260240161082d565b81546bffffffffffffffffffffffff909116740100000000000000000000000000000000000000000273ffffffffffffffffffffffffffffffffffffffff909116179055565b6040805173ffffffffffffffffffffffffffffffffffffffff8416602482015260448082018490528251808303909101815260649091019091526020810180517bffffffffffffffffffffffffffffffffffffffffffffffffffffffff167fa9059cbb0000000000000000000000000000000000000000000000000000000017905261079e90849061322a565b8281811461218e576040517f6582533600000000000000000000000000000000000000000000000000000000815260040160405180910390fd5b612199888789612d26565b6121ef576040517f05bbb9c400000000000000000000000000000000000000000000000000000000815273ffffffffffffffffffffffffffffffffffffffff80891660048301528716602482015260440161082d565b60005b8181101561223e57612236898888888581811061221157612211613c2b565b9050602002013587878681811061222a5761222a613c2b565b90506020020135612d9b565b6001016121f2565b50600073ffffffffffffffffffffffffffffffffffffffff168673ffffffffffffffffffffffffffffffffffffffff168873ffffffffffffffffffffffffffffffffffffffff167f4a39dc06d4c0dbc64b70af90fd698a233a518aa5d07e595d983b8c0526c8f7fb888888886040516122ba9493929190613f2d565b60405180910390a45050505050505050565b6122d7838284611535565b60008181526020848152604080832073ffffffffffffffffffffffffffffffffffffffff86168085529083529281902080547fffffffffffffffffffffffffffffffffffffffffffffffffffffffffffffff0016905580518481529182018390528101919091527ff6391f5c32d9c69d2a47ea670b442974b53935d1edc7fd64eb21e047a839171b9060600160405180910390a1505050565b73ffffffffffffffffffffffffffffffffffffffff81166118d0576040517f16de0c8000000000000000000000000000000000000000000000000000000000815260040160405180910390fd5b606081600101805461147890613d1e565b610d238282612e38565b8273ffffffffffffffffffffffffffffffffffffffff168273ffffffffffffffffffffffffffffffffffffffff1603612455576040517ffb0fdf6100000000000000000000000000000000000000000000000000000000815273ffffffffffffffffffffffffffffffffffffffff8416600482015260240161082d565b73ffffffffffffffffffffffffffffffffffffffff838116600081815260018701602090815260408083209487168084529482529182902080547fffffffffffffffffffffffffffffffffffffffffffffffffffffffffffffff001686151590811790915591519182527f17307eab39ab6107e8899845ad3d59bd9653f200f220920489ca2b5937696c31910160405180910390a350505050565b60008381526020858152604080832073ffffffffffffffffffffffffffffffffffffffff8616845290915290205460ff1615611e4e5760008381526020858152604080832073ffffffffffffffffffffffffffffffffffffffff8681168086529184529382902080547fffffffffffffffffffffffffffffffffffffffffffffffffffffffffffffff00169055815187815292830152918316918101919091527ff6391f5c32d9c69d2a47ea670b442974b53935d1edc7fd64eb21e047a839171b90606001611e45565b83518351811415806125cd575082518114155b15612604576040517f6582533600000000000000000000000000000000000000000000000000000000815260040160405180910390fd5b60005b818110156106f4576126758787838151811061262557612625613c2b565b602002602001015187848151811061263f5761263f613c2b565b602002602001015187858151811061265957612659613c2b565b6020026020010151878d611f639095949392919063ffffffff16565b600101612607565b73ffffffffffffffffffffffffffffffffffffffff85166126ca576040517fb5e8901500000000000000000000000000000000000000000000000000000000815260040160405180910390fd5b6126d5888789612d26565b61272b576040517f05bbb9c400000000000000000000000000000000000000000000000000000000815273ffffffffffffffffffffffffffffffffffffffff80891660048301528716602482015260440161082d565b6127388887878787612f5f565b8473ffffffffffffffffffffffffffffffffffffffff168673ffffffffffffffffffffffffffffffffffffffff168873ffffffffffffffffffffffffffffffffffffffff167fc3d58168c5ae7397731d063d5bbf3d657854427343f4c083240f7aacaa2d0f6287876040516127b7929190918252602082015260400190565b60405180910390a473ffffffffffffffffffffffffffffffffffffffff85163b156106f4576106f4878787878787878080601f01602080910402602001604051908101604052809392919081815260200183838082843760009201919091525061310c92505050565b825473ffffffffffffffffffffffffffffffffffffffff908116908316811461288d576040517f2ef4875e00000000000000000000000000000000000000000000000000000000815273ffffffffffffffffffffffffffffffffffffffff8416600482015260240161082d565b8173ffffffffffffffffffffffffffffffffffffffff168173ffffffffffffffffffffffffffffffffffffffff1614611e4e5783547fffffffffffffffffffffffff00000000000000000000000000000000000000001673ffffffffffffffffffffffffffffffffffffffff8381169182178655604051908316907f8be0079c531659141344cd1fd0a4f28419497f9722a3daafe3b4186f6b6457e090600090a350505050565b80471015612970576040517fcd78605900000000000000000000000000000000000000000000000000000000815230600482015260240161082d565b60008273ffffffffffffffffffffffffffffffffffffffff168260405160006040518083038185875af1925050503d80600081146129ca576040519150601f19603f3d011682016040523d82523d6000602084013e6129cf565b606091505b505090508061079e576040517f1425ea4200000000000000000000000000000000000000000000000000000000815260040160405180910390fd5b600033321480612a1a5750601836105b15612a2457503390565b7fffffffffffffffffffffffffffffffffffffffffffffffffffffffffffffffec36013560601c7f000000000000000000000000000000000000000000000000000000000000000073ffffffffffffffffffffffffffffffffffffffff16331480612b4657506040517f019a202800000000000000000000000000000000000000000000000000000000815273ffffffffffffffffffffffffffffffffffffffff82811660048301523360248301523060448301527f0000000000000000000000000000000000000000000000000000000000000000169063019a202890606401602060405180830381865afa158015612b22573d6000803e3d6000fd5b505050506040513d601f19601f82011682018060405250810190612b469190613cbf565b15612b5057919050565b3391505090565b8015611e4e5760008281526020858152604080832073ffffffffffffffffffffffffffffffffffffffff87168452909152902054818101818111612bf4576040517f42fb00bc00000000000000000000000000000000000000000000000000000000815273ffffffffffffffffffffffffffffffffffffffff8616600482015260248101859052604481018390526064810184905260840161082d565b60009384526020958652604080852073ffffffffffffffffffffffffffffffffffffffff9690961685529490955250502055565b6040517fbc197c81000000000000000000000000000000000000000000000000000000008082529073ffffffffffffffffffffffffffffffffffffffff86169063bc197c8190612c84908a908a90899089908990600401613f54565b6020604051808303816000875af1158015612ca3573d6000803e3d6000fd5b505050506040513d601f19601f82011682018060405250810190612cc79190613fbf565b7fffffffff0000000000000000000000000000000000000000000000000000000016146109c0578383836040517fc287817e00000000000000000000000000000000000000000000000000000000815260040161082d93929190613fdc565b60008173ffffffffffffffffffffffffffffffffffffffff168373ffffffffffffffffffffffffffffffffffffffff16148061180157505073ffffffffffffffffffffffffffffffffffffffff9182166000908152600193909301602090815260408085209290931684525290205460ff1690565b8015611e4e5760008281526020858152604080832073ffffffffffffffffffffffffffffffffffffffff87168452909152902054818103818110612bf4576040517f03dee4c500000000000000000000000000000000000000000000000000000000815273ffffffffffffffffffffffffffffffffffffffff8616600482015260248101859052604481018390526064810184905260840161082d565b815473ffffffffffffffffffffffffffffffffffffffff168015801590612e76575060008173ffffffffffffffffffffffffffffffffffffffff163b115b1561079e576040517fc617113400000000000000000000000000000000000000000000000000000000815230600482015273ffffffffffffffffffffffffffffffffffffffff838116602483015282169063c617113490604401602060405180830381865afa158015612eed573d6000803e3d6000fd5b505050506040513d601f19601f82011682018060405250810190612f119190613cbf565b61079e576040517fede71dcc00000000000000000000000000000000000000000000000000000000815273ffffffffffffffffffffffffffffffffffffffff8316600482015260240161082d565b8015610b165760008281526020868152604080832073ffffffffffffffffffffffffffffffffffffffff88168452909152902054818103818110612ffc576040517f03dee4c500000000000000000000000000000000000000000000000000000000815273ffffffffffffffffffffffffffffffffffffffff8716600482015260248101859052604481018390526064810184905260840161082d565b8473ffffffffffffffffffffffffffffffffffffffff168673ffffffffffffffffffffffffffffffffffffffff16146111a25760008481526020888152604080832073ffffffffffffffffffffffffffffffffffffffff891684529091529020548381018181116130c6576040517f42fb00bc00000000000000000000000000000000000000000000000000000000815273ffffffffffffffffffffffffffffffffffffffff8816600482015260248101879052604481018390526064810186905260840161082d565b600086815260208a8152604080832073ffffffffffffffffffffffffffffffffffffffff808d1685528184528285208890558b1684529091529020555050505050505050565b6040517ff23a6e61000000000000000000000000000000000000000000000000000000008082529073ffffffffffffffffffffffffffffffffffffffff86169063f23a6e6190613168908a908a9089908990899060040161401d565b6020604051808303816000875af1158015613187573d6000803e3d6000fd5b505050506040513d601f19601f820116820180604052508101906131ab9190613fbf565b7fffffffff0000000000000000000000000000000000000000000000000000000016146109c0576040517f40f39d3800000000000000000000000000000000000000000000000000000000815273ffffffffffffffffffffffffffffffffffffffff85166004820152602481018490526044810183905260640161082d565b600061324c73ffffffffffffffffffffffffffffffffffffffff8416836132c0565b9050805160001415801561327157508080602001905181019061326f9190613cbf565b155b1561079e576040517f5274afe700000000000000000000000000000000000000000000000000000000815273ffffffffffffffffffffffffffffffffffffffff8416600482015260240161082d565b60606105cf83836000846000808573ffffffffffffffffffffffffffffffffffffffff1684866040516132f39190614062565b60006040518083038185875af1925050503d8060008114613330576040519150601f19603f3d011682016040523d82523d6000602084013e613335565b606091505b509150915061334586838361334f565b9695505050505050565b6060826133645761335f826133de565b61132a565b8151158015613388575073ffffffffffffffffffffffffffffffffffffffff84163b155b156133d7576040517f9996b31500000000000000000000000000000000000000000000000000000000815273ffffffffffffffffffffffffffffffffffffffff8516600482015260240161082d565b508061132a565b8051156133ee5780518082602001fd5b6040517f1425ea4200000000000000000000000000000000000000000000000000000000815260040160405180910390fd5b73ffffffffffffffffffffffffffffffffffffffff8116811461077c57600080fd5b6000806040838503121561345557600080fd5b823561346081613420565b946020939093013593505050565b7fffffffff000000000000000000000000000000000000000000000000000000008116811461077c57600080fd5b6000602082840312156134ae57600080fd5b813561132a8161346e565b60005b838110156134d45781810151838201526020016134bc565b50506000910152565b600081518084526134f58160208601602086016134b9565b601f017fffffffffffffffffffffffffffffffffffffffffffffffffffffffffffffffe0169290920160200192915050565b6020815260006105cf60208301846134dd565b60008083601f84011261354c57600080fd5b50813567ffffffffffffffff81111561356457600080fd5b6020830191508360208260051b850101111561089157600080fd5b60008083601f84011261359157600080fd5b50813567ffffffffffffffff8111156135a957600080fd5b60208301915083602082850101111561089157600080fd5b60008060008060008060006080888a0312156135dc57600080fd5b87356135e781613420565b9650602088013567ffffffffffffffff8082111561360457600080fd5b6136108b838c0161353a565b909850965060408a013591508082111561362957600080fd5b6136358b838c0161353a565b909650945060608a013591508082111561364e57600080fd5b5061365b8a828b0161357f565b989b979a50959850939692959293505050565b60006020828403121561368057600080fd5b5035919050565b60006020828403121561369957600080fd5b813561132a81613420565b6000806000606084860312156136b957600080fd5b83356136c481613420565b95602085013595506040909401359392505050565b6000806000604084860312156136ee57600080fd5b83359250602084013567ffffffffffffffff81111561370c57600080fd5b6137188682870161357f565b9497909650939450505050565b6000806040838503121561373857600080fd5b50508035926020909101359150565b60008060008060008060008060a0898b03121561376357600080fd5b883561376e81613420565b9750602089013561377e81613420565b9650604089013567ffffffffffffffff8082111561379b57600080fd5b6137a78c838d0161353a565b909850965060608b01359150808211156137c057600080fd5b6137cc8c838d0161353a565b909650945060808b01359150808211156137e557600080fd5b506137f28b828c0161357f565b999c989b5096995094979396929594505050565b6000806040838503121561381957600080fd5b82359150602083013561382b81613420565b809150509250929050565b6000806000806040858703121561384c57600080fd5b843567ffffffffffffffff8082111561386457600080fd5b6138708883890161353a565b9096509450602087013591508082111561388957600080fd5b506138968782880161353a565b95989497509550505050565b60008151808452602080850194506020840160005b838110156138d3578151875295820195908201906001016138b7565b509495945050505050565b6020815260006105cf60208301846138a2565b60008060008060006080868803121561390957600080fd5b853561391481613420565b94506020860135935060408601359250606086013567ffffffffffffffff81111561393e57600080fd5b61394a8882890161357f565b969995985093965092949392505050565b6000806000806000806060878903121561397457600080fd5b863567ffffffffffffffff8082111561398c57600080fd5b6139988a838b0161353a565b909850965060208901359150808211156139b157600080fd5b6139bd8a838b0161353a565b909650945060408901359150808211156139d657600080fd5b506139e389828a0161353a565b979a9699509497509295939492505050565b600080600080600060608688031215613a0d57600080fd5b8535613a1881613420565b9450602086013567ffffffffffffffff80821115613a3557600080fd5b613a4189838a0161353a565b90965094506040880135915080821115613a5a57600080fd5b5061394a8882890161353a565b801515811461077c57600080fd5b60008060408385031215613a8857600080fd5b8235613a9381613420565b9150602083013561382b81613a67565b6000806000806000806000806080898b031215613abf57600080fd5b883567ffffffffffffffff80821115613ad757600080fd5b613ae38c838d0161353a565b909a50985060208b0135915080821115613afc57600080fd5b613b088c838d0161353a565b909850965060408b0135915080821115613b2157600080fd5b613b2d8c838d0161353a565b909650945060608b01359150808211156137e557600080fd5b60008060408385031215613b5957600080fd5b8235613b6481613420565b9150602083013561382b81613420565b60008060008060008060a08789031215613b8d57600080fd5b8635613b9881613420565b95506020870135613ba881613420565b94506040870135935060608701359250608087013567ffffffffffffffff811115613bd257600080fd5b6139e389828a0161357f565b60208152816020820152818360408301376000818301604090810191909152601f9092017fffffffffffffffffffffffffffffffffffffffffffffffffffffffffffffffe0160101919050565b7f4e487b7100000000000000000000000000000000000000000000000000000000600052603260045260246000fd5b60008083357fffffffffffffffffffffffffffffffffffffffffffffffffffffffffffffffe1843603018112613c8f57600080fd5b83018035915067ffffffffffffffff821115613caa57600080fd5b60200191503681900382131561089157600080fd5b600060208284031215613cd157600080fd5b815161132a81613a67565b7f4e487b7100000000000000000000000000000000000000000000000000000000600052601160045260246000fd5b818103818111156105d2576105d2613cdc565b600181811c90821680613d3257607f821691505b602082108103613d6b577f4e487b7100000000000000000000000000000000000000000000000000000000600052602260045260246000fd5b50919050565b604081526000613d8460408301856138a2565b828103602084015261092d81856138a2565b7f4e487b7100000000000000000000000000000000000000000000000000000000600052604160045260246000fd5b600060208284031215613dd757600080fd5b815167ffffffffffffffff80821115613def57600080fd5b818401915084601f830112613e0357600080fd5b815181811115613e1557613e15613d96565b604051601f82017fffffffffffffffffffffffffffffffffffffffffffffffffffffffffffffffe0908116603f01168101908382118183101715613e5b57613e5b613d96565b81604052828152876020848701011115613e7457600080fd5b613e858360208301602088016134b9565b979650505050505050565b80820281158282048414176105d2576105d2613cdc565b600082613edd577f4e487b7100000000000000000000000000000000000000000000000000000000600052601260045260246000fd5b500490565b81835260007f07ffffffffffffffffffffffffffffffffffffffffffffffffffffffffffffff831115613f1457600080fd5b8260051b80836020870137939093016020019392505050565b604081526000613f41604083018688613ee2565b8281036020840152613e85818587613ee2565b600073ffffffffffffffffffffffffffffffffffffffff808816835280871660208401525060a06040830152613f8d60a08301866138a2565b8281036060840152613f9f81866138a2565b90508281036080840152613fb381856134dd565b98975050505050505050565b600060208284031215613fd157600080fd5b815161132a8161346e565b73ffffffffffffffffffffffffffffffffffffffff8416815260606020820152600061400b60608301856138a2565b828103604084015261334581856138a2565b600073ffffffffffffffffffffffffffffffffffffffff808816835280871660208401525084604083015283606083015260a06080830152613e8560a08301846134dd565b600082516140748184602087016134b9565b919091019291505056fea264697066735822122050730c457b392ef64773083a7eefba83a44093359a58d0df0010446a9204bdf464736f6c63430008190033",
  "linkReferences": {},
  "deployedLinkReferences": {}
}