{
  "_format": "hh-sol-artifact-1",
  "contractName": "ERC721FullMintOnceBurnProxiedMock",
  "sourceName": "contracts/mocks/token/ERC721/preset/proxied/ERC721FullMintOnceBurnProxiedMock.sol",
  "abi": [
    {
      "inputs": [
        {
          "internalType": "contract IForwarderRegistry",
          "name": "forwarderRegistry",
          "type": "address"
        }
      ],
      "stateMutability": "nonpayable",
      "type": "constructor"
    },
    {
      "inputs": [
        {
          "internalType": "uint256",
          "name": "percentage",
          "type": "uint256"
        }
      ],
      "name": "ERC2981IncorrectRoyaltyPercentage",
      "type": "error"
    },
    {
      "inputs": [],
      "name": "ERC2981IncorrectRoyaltyReceiver",
      "type": "error"
    },
    {
      "inputs": [],
      "name": "ERC721BalanceOfAddressZero",
      "type": "error"
    },
    {
      "inputs": [
        {
          "internalType": "uint256",
          "name": "tokenId",
          "type": "uint256"
        }
      ],
      "name": "ERC721BurntToken",
      "type": "error"
    },
    {
      "inputs": [
        {
          "internalType": "uint256",
          "name": "tokenId",
          "type": "uint256"
        }
      ],
      "name": "ERC721ExistingToken",
      "type": "error"
    },
    {
      "inputs": [],
      "name": "ERC721MintToAddressZero",
      "type": "error"
    },
    {
      "inputs": [
        {
          "internalType": "address",
          "name": "sender",
          "type": "address"
        },
        {
          "internalType": "address",
          "name": "owner",
          "type": "address"
        },
        {
          "internalType": "uint256",
          "name": "tokenId",
          "type": "uint256"
        }
      ],
      "name": "ERC721NonApprovedForApproval",
      "type": "error"
    },
    {
      "inputs": [
        {
          "internalType": "address",
          "name": "sender",
          "type": "address"
        },
        {
          "internalType": "address",
          "name": "owner",
          "type": "address"
        },
        {
          "internalType": "uint256",
          "name": "tokenId",
          "type": "uint256"
        }
      ],
      "name": "ERC721NonApprovedForTransfer",
      "type": "error"
    },
    {
      "inputs": [
        {
          "internalType": "uint256",
          "name": "tokenId",
          "type": "uint256"
        }
      ],
      "name": "ERC721NonExistingToken",
      "type": "error"
    },
    {
      "inputs": [
        {
          "internalType": "address",
          "name": "account",
          "type": "address"
        },
        {
          "internalType": "uint256",
          "name": "tokenId",
          "type": "uint256"
        }
      ],
      "name": "ERC721NonOwnedToken",
      "type": "error"
    },
    {
      "inputs": [
        {
          "internalType": "address",
          "name": "recipient",
          "type": "address"
        },
        {
          "internalType": "uint256",
          "name": "tokenId",
          "type": "uint256"
        }
      ],
      "name": "ERC721SafeTransferRejected",
      "type": "error"
    },
    {
      "inputs": [
        {
          "internalType": "address",
          "name": "account",
          "type": "address"
        }
      ],
      "name": "ERC721SelfApproval",
      "type": "error"
    },
    {
      "inputs": [
        {
          "internalType": "address",
          "name": "account",
          "type": "address"
        }
      ],
      "name": "ERC721SelfApprovalForAll",
      "type": "error"
    },
    {
      "inputs": [],
      "name": "ERC721TransferToAddressZero",
      "type": "error"
    },
    {
      "inputs": [],
      "name": "FailedCall",
      "type": "error"
    },
    {
      "inputs": [],
      "name": "IllegalInterfaceId",
      "type": "error"
    },
    {
      "inputs": [],
      "name": "InconsistentArrayLengths",
      "type": "error"
    },
    {
      "inputs": [
        {
          "internalType": "address",
          "name": "tokenContract",
          "type": "address"
        }
      ],
      "name": "IncorrectTokenContractType",
      "type": "error"
    },
    {
      "inputs": [
        {
          "internalType": "uint256",
          "name": "currentPhase",
          "type": "uint256"
        },
        {
          "internalType": "uint256",
          "name": "newPhase",
          "type": "uint256"
        }
      ],
      "name": "InitializationPhaseAlreadyReached",
      "type": "error"
    },
    {
      "inputs": [
        {
          "internalType": "uint256",
          "name": "balance",
          "type": "uint256"
        },
        {
          "internalType": "uint256",
          "name": "needed",
          "type": "uint256"
        }
      ],
      "name": "InsufficientBalance",
      "type": "error"
    },
    {
      "inputs": [
        {
          "internalType": "address",
          "name": "account",
          "type": "address"
        }
      ],
      "name": "NotContractOwner",
      "type": "error"
    },
    {
      "inputs": [
        {
          "internalType": "bytes32",
          "name": "role",
          "type": "bytes32"
        },
        {
          "internalType": "address",
          "name": "account",
          "type": "address"
        }
      ],
      "name": "NotRoleHolder",
      "type": "error"
    },
    {
      "inputs": [
        {
          "internalType": "address",
          "name": "operator",
          "type": "address"
        }
      ],
      "name": "OperatorNotAllowed",
      "type": "error"
    },
    {
      "inputs": [
        {
          "internalType": "address",
          "name": "token",
          "type": "address"
        }
      ],
      "name": "SafeERC20FailedOperation",
      "type": "error"
    },
    {
      "anonymous": false,
      "inputs": [
        {
          "indexed": true,
          "internalType": "address",
          "name": "owner",
          "type": "address"
        },
        {
          "indexed": true,
          "internalType": "address",
          "name": "approved",
          "type": "address"
        },
        {
          "indexed": true,
          "internalType": "uint256",
          "name": "tokenId",
          "type": "uint256"
        }
      ],
      "name": "Approval",
      "type": "event"
    },
    {
      "anonymous": false,
      "inputs": [
        {
          "indexed": true,
          "internalType": "address",
          "name": "owner",
          "type": "address"
        },
        {
          "indexed": true,
          "internalType": "address",
          "name": "operator",
          "type": "address"
        },
        {
          "indexed": false,
          "internalType": "bool",
          "name": "approved",
          "type": "bool"
        }
      ],
      "name": "ApprovalForAll",
      "type": "event"
    },
    {
      "anonymous": false,
      "inputs": [
        {
          "indexed": true,
          "internalType": "address",
          "name": "previousOwner",
          "type": "address"
        },
        {
          "indexed": true,
          "internalType": "address",
          "name": "newOwner",
          "type": "address"
        }
      ],
      "name": "OwnershipTransferred",
      "type": "event"
    },
    {
      "anonymous": false,
      "inputs": [
        {
          "indexed": false,
          "internalType": "bytes32",
          "name": "role",
          "type": "bytes32"
        },
        {
          "indexed": false,
          "internalType": "address",
          "name": "account",
          "type": "address"
        },
        {
          "indexed": false,
          "internalType": "address",
          "name": "operator",
          "type": "address"
        }
      ],
      "name": "RoleGranted",
      "type": "event"
    },
    {
      "anonymous": false,
      "inputs": [
        {
          "indexed": false,
          "internalType": "bytes32",
          "name": "role",
          "type": "bytes32"
        },
        {
          "indexed": false,
          "internalType": "address",
          "name": "account",
          "type": "address"
        },
        {
          "indexed": false,
          "internalType": "address",
          "name": "operator",
          "type": "address"
        }
      ],
      "name": "RoleRevoked",
      "type": "event"
    },
    {
      "anonymous": false,
      "inputs": [
        {
          "indexed": true,
          "internalType": "address",
          "name": "from",
          "type": "address"
        },
        {
          "indexed": true,
          "internalType": "address",
          "name": "to",
          "type": "address"
        },
        {
          "indexed": true,
          "internalType": "uint256",
          "name": "tokenId",
          "type": "uint256"
        }
      ],
      "name": "Transfer",
      "type": "event"
    },
    {
      "inputs": [],
      "name": "MINTER_ROLE",
      "outputs": [
        {
          "internalType": "bytes32",
          "name": "",
          "type": "bytes32"
        }
      ],
      "stateMutability": "view",
      "type": "function"
    },
    {
      "inputs": [],
      "name": "ROYALTY_FEE_DENOMINATOR",
      "outputs": [
        {
          "internalType": "uint256",
          "name": "",
          "type": "uint256"
        }
      ],
      "stateMutability": "view",
      "type": "function"
    },
    {
      "inputs": [],
      "name": "__msgData",
      "outputs": [
        {
          "internalType": "bytes",
          "name": "",
          "type": "bytes"
        }
      ],
      "stateMutability": "view",
      "type": "function"
    },
    {
      "inputs": [
        {
          "internalType": "address",
          "name": "to",
          "type": "address"
        },
        {
          "internalType": "uint256",
          "name": "tokenId",
          "type": "uint256"
        }
      ],
      "name": "approve",
      "outputs": [],
      "stateMutability": "nonpayable",
      "type": "function"
    },
    {
      "inputs": [
        {
          "internalType": "address",
          "name": "owner",
          "type": "address"
        }
      ],
      "name": "balanceOf",
      "outputs": [
        {
          "internalType": "uint256",
          "name": "balance",
          "type": "uint256"
        }
      ],
      "stateMutability": "view",
      "type": "function"
    },
    {
      "inputs": [
        {
          "internalType": "address",
          "name": "from",
          "type": "address"
        },
        {
          "internalType": "uint256[]",
          "name": "tokenIds",
          "type": "uint256[]"
        }
      ],
      "name": "batchBurnFrom",
      "outputs": [],
      "stateMutability": "nonpayable",
      "type": "function"
    },
    {
      "inputs": [
        {
          "internalType": "address",
          "name": "to",
          "type": "address"
        },
        {
          "internalType": "uint256[]",
          "name": "tokenIds",
          "type": "uint256[]"
        }
      ],
      "name": "batchMint",
      "outputs": [],
      "stateMutability": "nonpayable",
      "type": "function"
    },
    {
      "inputs": [
        {
          "internalType": "address",
          "name": "from",
          "type": "address"
        },
        {
          "internalType": "address",
          "name": "to",
          "type": "address"
        },
        {
          "internalType": "uint256[]",
          "name": "tokenIds",
          "type": "uint256[]"
        }
      ],
      "name": "batchTransferFrom",
      "outputs": [],
      "stateMutability": "nonpayable",
      "type": "function"
    },
    {
      "inputs": [
        {
          "internalType": "address",
          "name": "from",
          "type": "address"
        },
        {
          "internalType": "uint256",
          "name": "tokenId",
          "type": "uint256"
        }
      ],
      "name": "burnFrom",
      "outputs": [],
      "stateMutability": "nonpayable",
      "type": "function"
    },
    {
      "inputs": [
        {
          "internalType": "address[]",
          "name": "recipients",
          "type": "address[]"
        },
        {
          "internalType": "uint256[]",
          "name": "tokenIds",
          "type": "uint256[]"
        }
      ],
      "name": "deliver",
      "outputs": [],
      "stateMutability": "nonpayable",
      "type": "function"
    },
    {
      "inputs": [],
      "name": "forwarderRegistry",
      "outputs": [
        {
          "internalType": "contract IForwarderRegistry",
          "name": "",
          "type": "address"
        }
      ],
      "stateMutability": "view",
      "type": "function"
    },
    {
      "inputs": [
        {
          "internalType": "uint256",
          "name": "tokenId",
          "type": "uint256"
        }
      ],
      "name": "getApproved",
      "outputs": [
        {
          "internalType": "address",
          "name": "approved",
          "type": "address"
        }
      ],
      "stateMutability": "view",
      "type": "function"
    },
    {
      "inputs": [
        {
          "internalType": "bytes32",
          "name": "role",
          "type": "bytes32"
        },
        {
          "internalType": "address",
          "name": "account",
          "type": "address"
        }
      ],
      "name": "grantRole",
      "outputs": [],
      "stateMutability": "nonpayable",
      "type": "function"
    },
    {
      "inputs": [
        {
          "internalType": "bytes32",
          "name": "role",
          "type": "bytes32"
        },
        {
          "internalType": "address",
          "name": "account",
          "type": "address"
        }
      ],
      "name": "hasRole",
      "outputs": [
        {
          "internalType": "bool",
          "name": "hasRole_",
          "type": "bool"
        }
      ],
      "stateMutability": "view",
      "type": "function"
    },
    {
      "inputs": [
        {
          "internalType": "string",
          "name": "tokenName",
          "type": "string"
        },
        {
          "internalType": "string",
          "name": "tokenSymbol",
          "type": "string"
        },
        {
          "internalType": "contract ITokenMetadataResolver",
          "name": "metadataResolver",
          "type": "address"
        },
        {
          "internalType": "contract IOperatorFilterRegistry",
          "name": "filterRegistry",
          "type": "address"
        }
      ],
      "name": "init",
      "outputs": [],
      "stateMutability": "nonpayable",
      "type": "function"
    },
    {
      "inputs": [
        {
          "internalType": "address",
          "name": "owner",
          "type": "address"
        },
        {
          "internalType": "address",
          "name": "operator",
          "type": "address"
        }
      ],
      "name": "isApprovedForAll",
      "outputs": [
        {
          "internalType": "bool",
          "name": "approvedForAll",
          "type": "bool"
        }
      ],
      "stateMutability": "view",
      "type": "function"
    },
    {
      "inputs": [
        {
          "internalType": "address",
          "name": "forwarder",
          "type": "address"
        }
      ],
      "name": "isTrustedForwarder",
      "outputs": [
        {
          "internalType": "bool",
          "name": "",
          "type": "bool"
        }
      ],
      "stateMutability": "view",
      "type": "function"
    },
    {
      "inputs": [],
      "name": "metadataResolver",
      "outputs": [
        {
          "internalType": "contract ITokenMetadataResolver",
          "name": "tokenMetadataResolver",
          "type": "address"
        }
      ],
      "stateMutability": "view",
      "type": "function"
    },
    {
      "inputs": [
        {
          "internalType": "address",
          "name": "to",
          "type": "address"
        },
        {
          "internalType": "uint256",
          "name": "tokenId",
          "type": "uint256"
        }
      ],
      "name": "mint",
      "outputs": [],
      "stateMutability": "nonpayable",
      "type": "function"
    },
    {
      "inputs": [],
      "name": "name",
      "outputs": [
        {
          "internalType": "string",
          "name": "tokenName",
          "type": "string"
        }
      ],
      "stateMutability": "view",
      "type": "function"
    },
    {
      "inputs": [],
      "name": "operatorFilterRegistry",
      "outputs": [
        {
          "internalType": "contract IOperatorFilterRegistry",
          "name": "",
          "type": "address"
        }
      ],
      "stateMutability": "view",
      "type": "function"
    },
    {
      "inputs": [],
      "name": "owner",
      "outputs": [
        {
          "internalType": "address",
          "name": "",
          "type": "address"
        }
      ],
      "stateMutability": "view",
      "type": "function"
    },
    {
      "inputs": [
        {
          "internalType": "uint256",
          "name": "tokenId",
          "type": "uint256"
        }
      ],
      "name": "ownerOf",
      "outputs": [
        {
          "internalType": "address",
          "name": "tokenOwner",
          "type": "address"
        }
      ],
      "stateMutability": "view",
      "type": "function"
    },
    {
      "inputs": [
        {
          "internalType": "address[]",
          "name": "accounts",
          "type": "address[]"
        },
        {
          "internalType": "contract IERC20[]",
          "name": "tokens",
          "type": "address[]"
        },
        {
          "internalType": "uint256[]",
          "name": "amounts",
          "type": "uint256[]"
        }
      ],
      "name": "recoverERC20s",
      "outputs": [],
      "stateMutability": "nonpayable",
      "type": "function"
    },
    {
      "inputs": [
        {
          "internalType": "address[]",
          "name": "accounts",
          "type": "address[]"
        },
        {
          "internalType": "contract IERC721[]",
          "name": "contracts",
          "type": "address[]"
        },
        {
          "internalType": "uint256[]",
          "name": "tokenIds",
          "type": "uint256[]"
        }
      ],
      "name": "recoverERC721s",
      "outputs": [],
      "stateMutability": "nonpayable",
      "type": "function"
    },
    {
      "inputs": [
        {
          "internalType": "address payable[]",
          "name": "accounts",
          "type": "address[]"
        },
        {
          "internalType": "uint256[]",
          "name": "amounts",
          "type": "uint256[]"
        }
      ],
      "name": "recoverETH",
      "outputs": [],
      "stateMutability": "nonpayable",
      "type": "function"
    },
    {
      "inputs": [
        {
          "internalType": "bytes32",
          "name": "role",
          "type": "bytes32"
        }
      ],
      "name": "renounceRole",
      "outputs": [],
      "stateMutability": "nonpayable",
      "type": "function"
    },
    {
      "inputs": [
        {
          "internalType": "bytes32",
          "name": "role",
          "type": "bytes32"
        },
        {
          "internalType": "address",
          "name": "account",
          "type": "address"
        }
      ],
      "name": "revokeRole",
      "outputs": [],
      "stateMutability": "nonpayable",
      "type": "function"
    },
    {
      "inputs": [
        {
          "internalType": "uint256",
          "name": "tokenId",
          "type": "uint256"
        },
        {
          "internalType": "uint256",
          "name": "salePrice",
          "type": "uint256"
        }
      ],
      "name": "royaltyInfo",
      "outputs": [
        {
          "internalType": "address",
          "name": "receiver",
          "type": "address"
        },
        {
          "internalType": "uint256",
          "name": "royaltyAmount",
          "type": "uint256"
        }
      ],
      "stateMutability": "view",
      "type": "function"
    },
    {
      "inputs": [
        {
          "internalType": "address",
          "name": "to",
          "type": "address"
        },
        {
          "internalType": "uint256",
          "name": "tokenId",
          "type": "uint256"
        },
        {
          "internalType": "bytes",
          "name": "data",
          "type": "bytes"
        }
      ],
      "name": "safeMint",
      "outputs": [],
      "stateMutability": "nonpayable",
      "type": "function"
    },
    {
      "inputs": [
        {
          "internalType": "address",
          "name": "from",
          "type": "address"
        },
        {
          "internalType": "address",
          "name": "to",
          "type": "address"
        },
        {
          "internalType": "uint256",
          "name": "tokenId",
          "type": "uint256"
        }
      ],
      "name": "safeTransferFrom",
      "outputs": [],
      "stateMutability": "nonpayable",
      "type": "function"
    },
    {
      "inputs": [
        {
          "internalType": "address",
          "name": "from",
          "type": "address"
        },
        {
          "internalType": "address",
          "name": "to",
          "type": "address"
        },
        {
          "internalType": "uint256",
          "name": "tokenId",
          "type": "uint256"
        },
        {
          "internalType": "bytes",
          "name": "data",
          "type": "bytes"
        }
      ],
      "name": "safeTransferFrom",
      "outputs": [],
      "stateMutability": "nonpayable",
      "type": "function"
    },
    {
      "inputs": [
        {
          "internalType": "address",
          "name": "operator",
          "type": "address"
        },
        {
          "internalType": "bool",
          "name": "approved",
          "type": "bool"
        }
      ],
      "name": "setApprovalForAll",
      "outputs": [],
      "stateMutability": "nonpayable",
      "type": "function"
    },
    {
      "inputs": [
        {
          "internalType": "uint256",
          "name": "percentage",
          "type": "uint256"
        }
      ],
      "name": "setRoyaltyPercentage",
      "outputs": [],
      "stateMutability": "nonpayable",
      "type": "function"
    },
    {
      "inputs": [
        {
          "internalType": "address",
          "name": "receiver",
          "type": "address"
        }
      ],
      "name": "setRoyaltyReceiver",
      "outputs": [],
      "stateMutability": "nonpayable",
      "type": "function"
    },
    {
      "inputs": [
        {
          "internalType": "bytes4",
          "name": "interfaceId",
          "type": "bytes4"
        }
      ],
      "name": "supportsInterface",
      "outputs": [
        {
          "internalType": "bool",
          "name": "",
          "type": "bool"
        }
      ],
      "stateMutability": "view",
      "type": "function"
    },
    {
      "inputs": [],
      "name": "symbol",
      "outputs": [
        {
          "internalType": "string",
          "name": "tokenSymbol",
          "type": "string"
        }
      ],
      "stateMutability": "view",
      "type": "function"
    },
    {
      "inputs": [
        {
          "internalType": "uint256",
          "name": "tokenId",
          "type": "uint256"
        }
      ],
      "name": "tokenURI",
      "outputs": [
        {
          "internalType": "string",
          "name": "uri",
          "type": "string"
        }
      ],
      "stateMutability": "view",
      "type": "function"
    },
    {
      "inputs": [
        {
          "internalType": "address",
          "name": "from",
          "type": "address"
        },
        {
          "internalType": "address",
          "name": "to",
          "type": "address"
        },
        {
          "internalType": "uint256",
          "name": "tokenId",
          "type": "uint256"
        }
      ],
      "name": "transferFrom",
      "outputs": [],
      "stateMutability": "nonpayable",
      "type": "function"
    },
    {
      "inputs": [
        {
          "internalType": "address",
          "name": "newOwner",
          "type": "address"
        }
      ],
      "name": "transferOwnership",
      "outputs": [],
      "stateMutability": "nonpayable",
      "type": "function"
    },
    {
      "inputs": [
        {
          "internalType": "contract IOperatorFilterRegistry",
          "name": "registry",
          "type": "address"
        }
      ],
      "name": "updateOperatorFilterRegistry",
      "outputs": [],
      "stateMutability": "nonpayable",
      "type": "function"
    },
    {
      "inputs": [
        {
          "internalType": "uint256",
          "name": "tokenId",
          "type": "uint256"
        }
      ],
      "name": "wasBurnt",
      "outputs": [
        {
          "internalType": "bool",
          "name": "tokenWasBurnt",
          "type": "bool"
        }
      ],
      "stateMutability": "view",
      "type": "function"
    }
  ],
  "bytecode": "0x60a060405234801561001057600080fd5b50604051614a1e380380614a1e83398101604081905261002f91610040565b6001600160a01b0316608052610070565b60006020828403121561005257600080fd5b81516001600160a01b038116811461006957600080fd5b9392505050565b6080516149706100ae600039600081816103e70152818161047d0152818161365f015281816136ed015281816139f30152613a3101526149706000f3fe608060405234801561001057600080fd5b50600436106102de5760003560e01c80638bb9c5bf11610186578063c3666c36116100e3578063e1a8bf2c11610097578063f2fde38b11610071578063f2fde38b1461066f578063f3993d1114610682578063f7ba94bd1461069557600080fd5b8063e1a8bf2c1461063f578063e985e9c514610649578063f24729651461065c57600080fd5b8063c87b56dd116100c8578063c87b56dd146105f2578063d539139314610605578063d547741f1461062c57600080fd5b8063c3666c36146105cc578063c77c6955146105df57600080fd5b80639da5e8321161013a578063a22cb4651161011f578063a22cb4651461059e578063b0ccc31e146105b1578063b88d4fde146105b957600080fd5b80639da5e83214610583578063a0c76f621461059657600080fd5b80638dc251e31161016b5780638dc251e31461055557806391d148541461056857806395d89b411461057b57600080fd5b80638bb9c5bf1461053a5780638da5cb5b1461054d57600080fd5b806331e66e1e1161023f57806361ba27da116101f357806373c8a958116101cd57806373c8a9581461050157806379cc6790146105145780638832e6e31461052757600080fd5b806361ba27da146104ba5780636352211e146104cd57806370a08231146104e057600080fd5b806342842e0e1161022457806342842e0e146104475780634684d7e91461045a578063572b6c051461046d57600080fd5b806331e66e1e1461041e57806340c10f191461043457600080fd5b8063114ba8ee116102965780632a55205a1161027b5780632a55205a146103a65780632b4c9f16146103e55780632f2ff15d1461040b57600080fd5b8063114ba8ee1461038057806323b872dd1461039357600080fd5b8063081812fc116102c7578063081812fc14610320578063095ea7b3146103585780630e07f8541461036d57600080fd5b806301ffc9a7146102e357806306fdde031461030b575b600080fd5b6102f66102f1366004613eda565b6106a8565b60405190151581526020015b60405180910390f35b6103136106c2565b6040516103029190613f65565b61033361032e366004613f78565b6106d1565b60405173ffffffffffffffffffffffffffffffffffffffff9091168152602001610302565b61036b610366366004613fb3565b6106e5565b005b61036b61037b366004614021565b610734565b61036b61038e3660046140bb565b6107b9565b61036b6103a13660046140d8565b610824565b6103b96103b4366004614119565b610862565b6040805173ffffffffffffffffffffffffffffffffffffffff9093168352602083019190915201610302565b7f0000000000000000000000000000000000000000000000000000000000000000610333565b61036b61041936600461413b565b610885565b6104266108b8565b60405161030292919061416b565b61036b610442366004613fb3565b6108cb565b61036b6104553660046140d8565b61091a565b61036b6104683660046141fd565b61094b565b6102f661047b3660046140bb565b7f000000000000000000000000000000000000000000000000000000000000000073ffffffffffffffffffffffffffffffffffffffff90811691161490565b61036b6104c8366004613f78565b6109bf565b6103336104db366004613f78565b6109dc565b6104f36104ee3660046140bb565b6109f0565b604051908152602001610302565b61036b61050f366004614252565b610a04565b61036b610522366004613fb3565b610a1d565b61036b6105353660046142f8565b610a3a565b61036b610548366004613f78565b610abc565b610333610ad7565b61036b6105633660046140bb565b610afe565b6102f661057636600461413b565b610b1b565b610313610b66565b61036b610591366004614354565b610b70565b610333610c14565b61036b6105ac3660046143c7565b610c3e565b610333610c6d565b61036b6105c73660046143f5565b610c7a565b61036b6105da366004614252565b610caf565b6102f66105ed366004613f78565b610cc8565b610313610600366004613f78565b610cdc565b6104f37f6d696e746572000000000000000000000000000000000000000000000000000081565b61036b61063a36600461413b565b610cff565b6104f3620186a081565b6102f6610657366004614468565b610d2d565b61036b61066a3660046141fd565b610d7b565b61036b61067d3660046140bb565b610d9a565b61036b610690366004614496565b610db5565b61036b6106a3366004614354565b610def565b60006106bc826106b6610e06565b90610e34565b92915050565b60606106cc610f0e565b905090565b60006106bc826106df610f20565b90610f4e565b73ffffffffffffffffffffffffffffffffffffffff821615610713576107138261070d611007565b90611035565b61073061071e61103f565b8383610728610f20565b929190611049565b5050565b61074d61073f61103f565b6107476112c4565b906112f2565b610755611331565b61075d611368565b610765611396565b61076d6113c4565b6107756113f2565b61077d611420565b61078561144e565b61079f868686868661079561147c565b94939291906114aa565b6107b1816107ab611007565b90611544565b505050505050565b6107d26107c461103f565b6107cc6112c4565b906115b4565b610821816107de611007565b9081547fffffffffffffffffffffffff00000000000000000000000000000000000000001673ffffffffffffffffffffffffffffffffffffffff91909116179055565b50565b600061082e61103f565b9050610844818561083d611007565b919061161f565b61085c81858585610853610f20565b9392919061165c565b50505050565b600080610879848461087261193a565b9190611968565b915091505b9250929050565b600061088f61103f565b905061089d816107cc6112c4565b6108b38383836108ab611a12565b929190611a40565b505050565b3660006108c3611b16565b915091509091565b6109067f6d696e74657200000000000000000000000000000000000000000000000000006108f761103f565b6108ff611a12565b9190611b21565b6107308282610913610f20565b9190611ba7565b600061092461103f565b9050610933818561083d611007565b61085c81858585610942610f20565b93929190611d1f565b6109777f6d696e74657200000000000000000000000000000000000000000000000000006108f761103f565b6108b3838383808060200260200160405190810160405280939291908181526020018383602002808284376000920191909152506109b89250610f20915050565b9190611d65565b6109ca6107c461103f565b610821816109d661193a565b90611f31565b60006106bc826109ea610f20565b90611fb7565b60006106bc826109fe610f20565b90612020565b610a0f6107c461103f565b6107b186868686868661209c565b610730610a2861103f565b8383610a32610f20565b929190612187565b610a667f6d696e74657200000000000000000000000000000000000000000000000000006108f761103f565b61085c610a7161103f565b858585858080601f016020809104026020016040519081016040528093929190818152602001838380828437600092019190915250610ab39250610f20915050565b939291906123d1565b610821610ac761103f565b82610ad0611a12565b9190612407565b60006106cc610ae46112c4565b5473ffffffffffffffffffffffffffffffffffffffff1690565b610b096107c461103f565b61082181610b1561193a565b906124ab565b6000610b5f8383610b2a611a12565b60009283526020908152604080842073ffffffffffffffffffffffffffffffffffffffff909316845291905290205460ff1690565b9392505050565b60606106cc6124f8565b610b9c7f6d696e74657200000000000000000000000000000000000000000000000000006108f761103f565b61085c84848080602002602001604051908101604052809392919081815260200183836020028082843760009201919091525050604080516020808802828101820190935287825290935087925086918291850190849080828437600092019190915250610c0d9250610f20915050565b919061250a565b60006106cc610c2161147c565b6002015473ffffffffffffffffffffffffffffffffffffffff1690565b8015610c5057610c508261070d611007565b610730610c5b61103f565b8383610c65610f20565b92919061272b565b60006106cc610ae4611007565b6000610c8461103f565b9050610c93818761083d611007565b6107b1818787878787610ca4610f20565b959493929190612843565b610cba6107c461103f565b6107b18686868686866128b9565b60006106bc82610cd6610f20565b90612b4f565b6060610cea826109ea610f20565b506106bc3083610cf861147c565b9190612b85565b6000610d0961103f565b9050610d17816107cc6112c4565b6108b3838383610d25611a12565b929190612c45565b6000610b5f8383610d3c610f20565b919073ffffffffffffffffffffffffffffffffffffffff9182166000908152600393909301602090815260408085209290931684525290205460ff1690565b6108b3610d8661103f565b848484610d91610f20565b93929190612d0f565b610821610da561103f565b82610dae6112c4565b9190612f9a565b6000610dbf61103f565b9050610dce818661083d611007565b610de88186868686610dde610f20565b94939291906130ae565b5050505050565b610dfa6107c461103f565b61085c848484846133b3565b6000806106bc60017fca9d3e17f264b0f3984e2634e94adb37fa3e6a8103f06aeae6fa59e21c769f5e614512565b60007c01000000000000000000000000000000000000000000000000000000007fffffffff00000000000000000000000000000000000000000000000000000000831601610e84575060006106bc565b7ffe003659000000000000000000000000000000000000000000000000000000007fffffffff00000000000000000000000000000000000000000000000000000000831601610ed5575060016106bc565b507fffffffff00000000000000000000000000000000000000000000000000000000166000908152602091909152604090205460ff1690565b60606106cc610f1b61147c565b61345f565b6000806106bc60017fddf3ee18ae6d688373c219468f8be446e7ae82215f4779d821c7ea5e8c13c0c1614512565b60008181526020839052604081205473ffffffffffffffffffffffffffffffffffffffff8116610fb2576040517fdd560475000000000000000000000000000000000000000000000000000000008152600481018490526024015b60405180910390fd5b74010000000000000000000000000000000000000000811615610ffd575050600081815260028301602052604090205473ffffffffffffffffffffffffffffffffffffffff166106bc565b60009150506106bc565b6000806106bc60017f609b85bcafa81ecfaf3ff62cdde2c6c9082a68dbe4922f07399c706bdeb7cd31614512565b61073082826134f5565b60006106cc61361c565b60008181526020859052604090205473ffffffffffffffffffffffffffffffffffffffff81166110a8576040517fdd56047500000000000000000000000000000000000000000000000000000000815260048101839052602401610fa9565b8073ffffffffffffffffffffffffffffffffffffffff80821690851603611113576040517fb7fdc01000000000000000000000000000000000000000000000000000000000815273ffffffffffffffffffffffffffffffffffffffff82166004820152602401610fa9565b61111e868287613769565b61117b576040517fc7563a1800000000000000000000000000000000000000000000000000000000815273ffffffffffffffffffffffffffffffffffffffff80871660048301528216602482015260448101849052606401610fa9565b73ffffffffffffffffffffffffffffffffffffffff84166111e057740100000000000000000000000000000000000000008216156111db57600083815260208790526040902073ffffffffffffffffffffffffffffffffffffffff821690555b611261565b7401000000000000000000000000000000000000000082178083146112115760008481526020889052604090208190555b506000838152600287016020526040902080547fffffffffffffffffffffffff00000000000000000000000000000000000000001673ffffffffffffffffffffffffffffffffffffffff86161790555b828473ffffffffffffffffffffffffffffffffffffffff168273ffffffffffffffffffffffffffffffffffffffff167f8c5be1e5ebec7d5bd14f71427d1e84f3dd0314c0f7b2291e5b200ac8c7c3b92560405160405180910390a4505050505050565b6000806106bc60017fc9ed16f33ab3a66c84bfd83099ccb2a8845871e2e1c1928f63797152f0fd54cd614512565b61132761132060017f5b388d90dc1312ba799f321972f13311234fa1163bcabec7cf66101c4876eb84614512565b60016137de565b610730828261382a565b6113667f80ac58cd00000000000000000000000000000000000000000000000000000000600161135f610e06565b91906138e0565b565b6113667ff3993d1100000000000000000000000000000000000000000000000000000000600161135f610e06565b6113667f5b5e139f00000000000000000000000000000000000000000000000000000000600161135f610e06565b6113667f8e773e1300000000000000000000000000000000000000000000000000000000600161135f610e06565b6113667f9da5e83200000000000000000000000000000000000000000000000000000000600161135f610e06565b6113667f8b8b4ef500000000000000000000000000000000000000000000000000000000600161135f610e06565b6113667f2a55205a00000000000000000000000000000000000000000000000000000000600161135f610e06565b6000806106bc60017f7ea68fd2dcf1c056b94db6a0a537aa80d26fa9ab1eacd85da1ba0b61b7e7a8a5614512565b6114d861132060017f92f72593ca50a0096f68ee94e7000db40ed086164b695855e2250750b8bfaf59614512565b856114e48587836145ee565b50600186016114f48385836145ee565b5060029590950180547fffffffffffffffffffffffff00000000000000000000000000000000000000001673ffffffffffffffffffffffffffffffffffffffff9096169590951790945550505050565b61157261132060017f2f02d396cb1be29636682c8684200b30a98554d3b74293aa4495cb5e1d252f6e614512565b81547fffffffffffffffffffffffff00000000000000000000000000000000000000001673ffffffffffffffffffffffffffffffffffffffff91909116179055565b815473ffffffffffffffffffffffffffffffffffffffff828116911614610730576040517f2ef4875e00000000000000000000000000000000000000000000000000000000815273ffffffffffffffffffffffffffffffffffffffff82166004820152602401610fa9565b8073ffffffffffffffffffffffffffffffffffffffff168273ffffffffffffffffffffffffffffffffffffffff16146108b3576108b383836134f5565b73ffffffffffffffffffffffffffffffffffffffff82166116a9576040517f86c8706700000000000000000000000000000000000000000000000000000000815260040160405180910390fd5b60008181526020869052604090205473ffffffffffffffffffffffffffffffffffffffff8116611708576040517fdd56047500000000000000000000000000000000000000000000000000000000815260048101839052602401610fa9565b73ffffffffffffffffffffffffffffffffffffffff84168173ffffffffffffffffffffffffffffffffffffffff161461178c576040517f14dbb53600000000000000000000000000000000000000000000000000000000815273ffffffffffffffffffffffffffffffffffffffff8516600482015260248101839052604401610fa9565b611797868587613769565b6118465774010000000000000000000000000000000000000000811615806117e85750600082815260028701602052604090205473ffffffffffffffffffffffffffffffffffffffff868116911614155b15611846576040517fa4a3018b00000000000000000000000000000000000000000000000000000000815273ffffffffffffffffffffffffffffffffffffffff80871660048301528516602482015260448101839052606401610fa9565b600082815260208790526040902073ffffffffffffffffffffffffffffffffffffffff808516918290558516146118d75773ffffffffffffffffffffffffffffffffffffffff80851660009081526001808901602052604080832080547fffffffffffffffffffffffffffffffffffffffffffffffffffffffffffffffff0190559286168252919020805490910190555b818373ffffffffffffffffffffffffffffffffffffffff168573ffffffffffffffffffffffffffffffffffffffff167fddf252ad1be2c89b69c2b068fc378daa952ba7f163c4a11628f55a4df523b3ef60405160405180910390a4505050505050565b6000806106bc60017f2c0cf10337caabbd02dcf226f05f5fd19a0919a41a8df8958c39b80007826858614512565b825473ffffffffffffffffffffffffffffffffffffffff8116906000907401000000000000000000000000000000000000000090046bffffffffffffffffffffffff168315806119b6575080155b156119c45760009150611a09565b620186a08410156119ee57620186a06119dd8286614708565b6119e7919061471f565b9150611a09565b806119fc620186a08661471f565b611a069190614708565b91505b50935093915050565b6000806106bc60017fc8827d3282af6f37b64c3e9e6f3ac9df286ab0bb0fccd6f8661bf19adb368b23614512565b60008381526020858152604080832073ffffffffffffffffffffffffffffffffffffffff8616845290915290205460ff1661085c5760008381526020858152604080832073ffffffffffffffffffffffffffffffffffffffff8681168086529184529382902080547fffffffffffffffffffffffffffffffffffffffffffffffffffffffffffffff00166001179055815187815292830152918316918101919091527f2f8788117e7eff1d82e926ec794901d17c78024a50270940304540a733656f0d906060015b60405180910390a150505050565b3660006108c36139bc565b60008281526020848152604080832073ffffffffffffffffffffffffffffffffffffffff8516845290915290205460ff166108b3576040517f7aa728820000000000000000000000000000000000000000000000000000000081526004810183905273ffffffffffffffffffffffffffffffffffffffff82166024820152604401610fa9565b73ffffffffffffffffffffffffffffffffffffffff8216611bf4576040517f7851b9cd00000000000000000000000000000000000000000000000000000000815260040160405180910390fd5b60008181526020849052604090205473ffffffffffffffffffffffffffffffffffffffff811615611c54576040517f753eceac00000000000000000000000000000000000000000000000000000000815260048101839052602401610fa9565b7fdead0000000000000000000000000000000000000000000000000000000000008103611cb0576040517f31e8d3d500000000000000000000000000000000000000000000000000000000815260048101839052602401610fa9565b60008281526020858152604080832073ffffffffffffffffffffffffffffffffffffffff87169081905580845260018089019093528184208054909301909255518492907fddf252ad1be2c89b69c2b068fc378daa952ba7f163c4a11628f55a4df523b3ef908290a450505050565b611d2c858585858561165c565b73ffffffffffffffffffffffffffffffffffffffff82163b15610de857610de88484848460405180602001604052806000815250613b2c565b73ffffffffffffffffffffffffffffffffffffffff8216611db2576040517f7851b9cd00000000000000000000000000000000000000000000000000000000815260040160405180910390fd5b805160005b81811015611efc576000838281518110611dd357611dd361475a565b60209081029190910181015160008181529188905260409091205490915073ffffffffffffffffffffffffffffffffffffffff811615611e42576040517f753eceac00000000000000000000000000000000000000000000000000000000815260048101839052602401610fa9565b7fdead0000000000000000000000000000000000000000000000000000000000008103611e9e576040517f31e8d3d500000000000000000000000000000000000000000000000000000000815260048101839052602401610fa9565b60008281526020889052604080822073ffffffffffffffffffffffffffffffffffffffff89169081905590518492907fddf252ad1be2c89b69c2b068fc378daa952ba7f163c4a11628f55a4df523b3ef908290a45050600101611db7565b5073ffffffffffffffffffffffffffffffffffffffff9092166000908152600190930160205250604090912080549091019055565b620186a0811115611f71576040517fac04040800000000000000000000000000000000000000000000000000000000815260048101829052602401610fa9565b81546bffffffffffffffffffffffff909116740100000000000000000000000000000000000000000273ffffffffffffffffffffffffffffffffffffffff909116179055565b60008181526020839052604081205473ffffffffffffffffffffffffffffffffffffffff8116612016576040517fdd56047500000000000000000000000000000000000000000000000000000000815260048101849052602401610fa9565b805b949350505050565b600073ffffffffffffffffffffffffffffffffffffffff821661206f576040517faefbce4e00000000000000000000000000000000000000000000000000000000815260040160405180910390fd5b5073ffffffffffffffffffffffffffffffffffffffff166000908152600191909101602052604090205490565b8483811415806120ac5750808214155b156120e3576040517f6582533600000000000000000000000000000000000000000000000000000000815260040160405180910390fd5b60005b8181101561217d576121758888838181106121035761210361475a565b905060200201602081019061211891906140bb565b85858481811061212a5761212a61475a565b905060200201358888858181106121435761214361475a565b905060200201602081019061215891906140bb565b73ffffffffffffffffffffffffffffffffffffffff169190613c41565b6001016120e6565b5050505050505050565b60008181526020859052604090205473ffffffffffffffffffffffffffffffffffffffff81166121e6576040517fdd56047500000000000000000000000000000000000000000000000000000000815260048101839052602401610fa9565b73ffffffffffffffffffffffffffffffffffffffff83168173ffffffffffffffffffffffffffffffffffffffff161461226a576040517f14dbb53600000000000000000000000000000000000000000000000000000000815273ffffffffffffffffffffffffffffffffffffffff8416600482015260248101839052604401610fa9565b612275858486613769565b6123245774010000000000000000000000000000000000000000811615806122c65750600082815260028601602052604090205473ffffffffffffffffffffffffffffffffffffffff858116911614155b15612324576040517fa4a3018b00000000000000000000000000000000000000000000000000000000815273ffffffffffffffffffffffffffffffffffffffff80861660048301528416602482015260448101839052606401610fa9565b6000828152602086815260408083207fdead000000000000000000000000000000000000000000000000000000000000905573ffffffffffffffffffffffffffffffffffffffff86168084526001890190925280832080547fffffffffffffffffffffffffffffffffffffffffffffffffffffffffffffffff01905551849291907fddf252ad1be2c89b69c2b068fc378daa952ba7f163c4a11628f55a4df523b3ef908390a45050505050565b6123dc858484611ba7565b73ffffffffffffffffffffffffffffffffffffffff83163b15610de857610de8846000858585613b2c565b612412838284611b21565b60008181526020848152604080832073ffffffffffffffffffffffffffffffffffffffff86168085529083529281902080547fffffffffffffffffffffffffffffffffffffffffffffffffffffffffffffff0016905580518481529182018390528101919091527ff6391f5c32d9c69d2a47ea670b442974b53935d1edc7fd64eb21e047a839171b9060600160405180910390a1505050565b73ffffffffffffffffffffffffffffffffffffffff8116611572576040517f16de0c8000000000000000000000000000000000000000000000000000000000815260040160405180910390fd5b60606106cc61250561147c565b613cce565b815181518114612546576040517f6582533600000000000000000000000000000000000000000000000000000000815260040160405180910390fd5b60005b81811015610de85760008482815181106125655761256561475a565b60200260200101519050600073ffffffffffffffffffffffffffffffffffffffff168173ffffffffffffffffffffffffffffffffffffffff16036125d5576040517f7851b9cd00000000000000000000000000000000000000000000000000000000815260040160405180910390fd5b60008483815181106125e9576125e961475a565b60209081029190910181015160008181529189905260409091205490915073ffffffffffffffffffffffffffffffffffffffff811615612658576040517f753eceac00000000000000000000000000000000000000000000000000000000815260048101839052602401610fa9565b7fdead00000000000000000000000000000000000000000000000000000000000081036126b4576040517f31e8d3d500000000000000000000000000000000000000000000000000000000815260048101839052602401610fa9565b60008281526020898152604080832073ffffffffffffffffffffffffffffffffffffffff8716908190558084526001808d019093528184208054909301909255518492907fddf252ad1be2c89b69c2b068fc378daa952ba7f163c4a11628f55a4df523b3ef908290a4505050806001019050612549565b8273ffffffffffffffffffffffffffffffffffffffff168273ffffffffffffffffffffffffffffffffffffffff16036127a8576040517fe4215c6a00000000000000000000000000000000000000000000000000000000815273ffffffffffffffffffffffffffffffffffffffff84166004820152602401610fa9565b73ffffffffffffffffffffffffffffffffffffffff838116600081815260038701602090815260408083209487168084529482529182902080547fffffffffffffffffffffffffffffffffffffffffffffffffffffffffffffff001686151590811790915591519182527f17307eab39ab6107e8899845ad3d59bd9653f200f220920489ca2b5937696c31910160405180910390a350505050565b612850878787878761165c565b73ffffffffffffffffffffffffffffffffffffffff84163b156128b0576128b08686868686868080601f016020809104026020016040519081016040528093929190818152602001838380828437600092019190915250613b2c92505050565b50505050505050565b8483811415806128c95750808214155b15612900576040517f6582533600000000000000000000000000000000000000000000000000000000815260040160405180910390fd5b60005b8181101561217d57600086868381811061291f5761291f61475a565b905060200201602081019061293491906140bb565b6040517f01ffc9a70000000000000000000000000000000000000000000000000000000081527f80ac58cd00000000000000000000000000000000000000000000000000000000600482015290915073ffffffffffffffffffffffffffffffffffffffff8216906301ffc9a790602401602060405180830381865afa1580156129c1573d6000803e3d6000fd5b505050506040513d601f19601f820116820180604052508101906129e59190614789565b612a33576040517f986b9f1f00000000000000000000000000000000000000000000000000000000815273ffffffffffffffffffffffffffffffffffffffff82166004820152602401610fa9565b868683818110612a4557612a4561475a565b9050602002016020810190612a5a91906140bb565b73ffffffffffffffffffffffffffffffffffffffff166342842e0e308b8b86818110612a8857612a8861475a565b9050602002016020810190612a9d91906140bb565b888887818110612aaf57612aaf61475a565b6040517fffffffff0000000000000000000000000000000000000000000000000000000060e088901b16815273ffffffffffffffffffffffffffffffffffffffff958616600482015294909316602485015250602090910201356044820152606401600060405180830381600087803b158015612b2b57600080fd5b505af1158015612b3f573d6000803e3d6000fd5b5050505050806001019050612903565b6000818152602083905260408120547fdead00000000000000000000000000000000000000000000000000000000000014610b5f565b60028301546040517ff724dad700000000000000000000000000000000000000000000000000000000815273ffffffffffffffffffffffffffffffffffffffff848116600483015260248201849052606092169063f724dad790604401600060405180830381865afa158015612bff573d6000803e3d6000fd5b505050506040513d6000823e601f3d9081017fffffffffffffffffffffffffffffffffffffffffffffffffffffffffffffffe016820160405261201891908101906147a6565b60008381526020858152604080832073ffffffffffffffffffffffffffffffffffffffff8616845290915290205460ff161561085c5760008381526020858152604080832073ffffffffffffffffffffffffffffffffffffffff8681168086529184529382902080547fffffffffffffffffffffffffffffffffffffffffffffffffffffffffffffff00169055815187815292830152918316918101919091527ff6391f5c32d9c69d2a47ea670b442974b53935d1edc7fd64eb21e047a839171b90606001611b08565b6000612d1c868587613769565b90508160005b81811015612f5c576000858583818110612d3e57612d3e61475a565b602090810292909201356000818152928c90526040909220549192505073ffffffffffffffffffffffffffffffffffffffff8116612dab576040517fdd56047500000000000000000000000000000000000000000000000000000000815260048101839052602401610fa9565b73ffffffffffffffffffffffffffffffffffffffff88168173ffffffffffffffffffffffffffffffffffffffff1614612e2f576040517f14dbb53600000000000000000000000000000000000000000000000000000000815273ffffffffffffffffffffffffffffffffffffffff8916600482015260248101839052604401610fa9565b84612edf577401000000000000000000000000000000000000000081161580612e815750600082815260028b01602052604090205473ffffffffffffffffffffffffffffffffffffffff8a8116911614155b15612edf576040517fa4a3018b00000000000000000000000000000000000000000000000000000000815273ffffffffffffffffffffffffffffffffffffffff808b1660048301528916602482015260448101839052606401610fa9565b600082815260208b905260408082207fdead00000000000000000000000000000000000000000000000000000000000090555183919073ffffffffffffffffffffffffffffffffffffffff8b16907fddf252ad1be2c89b69c2b068fc378daa952ba7f163c4a11628f55a4df523b3ef908390a45050600101612d22565b5080156128b05773ffffffffffffffffffffffffffffffffffffffff8516600090815260018801602052604090208054829003905550505050505050565b825473ffffffffffffffffffffffffffffffffffffffff9081169083168114613007576040517f2ef4875e00000000000000000000000000000000000000000000000000000000815273ffffffffffffffffffffffffffffffffffffffff84166004820152602401610fa9565b8173ffffffffffffffffffffffffffffffffffffffff168173ffffffffffffffffffffffffffffffffffffffff161461085c5783547fffffffffffffffffffffffff00000000000000000000000000000000000000001673ffffffffffffffffffffffffffffffffffffffff8381169182178655604051908316907f8be0079c531659141344cd1fd0a4f28419497f9722a3daafe3b4186f6b6457e090600090a350505050565b73ffffffffffffffffffffffffffffffffffffffff83166130fb576040517f86c8706700000000000000000000000000000000000000000000000000000000815260040160405180910390fd5b6000613108878688613769565b90508160005b8181101561332c57600085858381811061312a5761312a61475a565b602090810292909201356000818152928d90526040909220549192505073ffffffffffffffffffffffffffffffffffffffff8116613197576040517fdd56047500000000000000000000000000000000000000000000000000000000815260048101839052602401610fa9565b73ffffffffffffffffffffffffffffffffffffffff89168173ffffffffffffffffffffffffffffffffffffffff161461321b576040517f14dbb53600000000000000000000000000000000000000000000000000000000815273ffffffffffffffffffffffffffffffffffffffff8a16600482015260248101839052604401610fa9565b846132cb57740100000000000000000000000000000000000000008116158061326d5750600082815260028c01602052604090205473ffffffffffffffffffffffffffffffffffffffff8b8116911614155b156132cb576040517fa4a3018b00000000000000000000000000000000000000000000000000000000815273ffffffffffffffffffffffffffffffffffffffff808c1660048301528a16602482015260448101839052606401610fa9565b600082815260208c9052604080822073ffffffffffffffffffffffffffffffffffffffff808c16918290559151859391928d16917fddf252ad1be2c89b69c2b068fc378daa952ba7f163c4a11628f55a4df523b3ef91a4505060010161310e565b508473ffffffffffffffffffffffffffffffffffffffff168673ffffffffffffffffffffffffffffffffffffffff161415801561336857508015155b1561217d5773ffffffffffffffffffffffffffffffffffffffff808716600090815260018a016020526040808220805485900390559187168152208054820190555050505050505050565b828181146133ed576040517f6582533600000000000000000000000000000000000000000000000000000000815260040160405180910390fd5b60005b818110156107b15761345784848381811061340d5761340d61475a565b905060200201358787848181106134265761342661475a565b905060200201602081019061343b91906140bb565b73ffffffffffffffffffffffffffffffffffffffff1690613cdf565b6001016133f0565b606081600001805461347090614554565b80601f016020809104026020016040519081016040528092919081815260200182805461349c90614554565b80156134e95780601f106134be576101008083540402835291602001916134e9565b820191906000526020600020905b8154815290600101906020018083116134cc57829003601f168201915b50505050509050919050565b815473ffffffffffffffffffffffffffffffffffffffff168015801590613533575060008173ffffffffffffffffffffffffffffffffffffffff163b115b156108b3576040517fc617113400000000000000000000000000000000000000000000000000000000815230600482015273ffffffffffffffffffffffffffffffffffffffff838116602483015282169063c617113490604401602060405180830381865afa1580156135aa573d6000803e3d6000fd5b505050506040513d601f19601f820116820180604052508101906135ce9190614789565b6108b3576040517fede71dcc00000000000000000000000000000000000000000000000000000000815273ffffffffffffffffffffffffffffffffffffffff83166004820152602401610fa9565b60003332148061362c5750601836105b1561363657503390565b7fffffffffffffffffffffffffffffffffffffffffffffffffffffffffffffffec36013560601c7f000000000000000000000000000000000000000000000000000000000000000073ffffffffffffffffffffffffffffffffffffffff1633148061375857506040517f019a202800000000000000000000000000000000000000000000000000000000815273ffffffffffffffffffffffffffffffffffffffff82811660048301523360248301523060448301527f0000000000000000000000000000000000000000000000000000000000000000169063019a202890606401602060405180830381865afa158015613734573d6000803e3d6000fd5b505050506040513d601f19601f820116820180604052508101906137589190614789565b1561376257919050565b3391505090565b60008173ffffffffffffffffffffffffffffffffffffffff168373ffffffffffffffffffffffffffffffffffffffff16148061201857505073ffffffffffffffffffffffffffffffffffffffff9182166000908152600393909301602090815260408085209290931684525290205460ff1690565b81548290828110613825576040517fbf0c18ec0000000000000000000000000000000000000000000000000000000081526004810182905260248101849052604401610fa9565b505550565b73ffffffffffffffffffffffffffffffffffffffff8116156138b25781547fffffffffffffffffffffffff00000000000000000000000000000000000000001673ffffffffffffffffffffffffffffffffffffffff821690811783556040516000907f8be0079c531659141344cd1fd0a4f28419497f9722a3daafe3b4186f6b6457e0908290a35b6107307f7f5828d000000000000000000000000000000000000000000000000000000000600161135f610e06565b7c01000000000000000000000000000000000000000000000000000000007fffffffff00000000000000000000000000000000000000000000000000000000831601613958576040517f72c683bb00000000000000000000000000000000000000000000000000000000815260040160405180910390fd5b7fffffffff00000000000000000000000000000000000000000000000000000000919091166000908152602092909252604090912080547fffffffffffffffffffffffffffffffffffffffffffffffffffffffffffffff0016911515919091179055565b366000333214806139cd5750601836105b156139db5750600091369150565b3373ffffffffffffffffffffffffffffffffffffffff7f0000000000000000000000000000000000000000000000000000000000000000161480613b16575073ffffffffffffffffffffffffffffffffffffffff7f00000000000000000000000000000000000000000000000000000000000000001663019a2028367fffffffffffffffffffffffffffffffffffffffffffffffffffffffffffffffec013560601c6040517fffffffff0000000000000000000000000000000000000000000000000000000060e084901b16815273ffffffffffffffffffffffffffffffffffffffff9091166004820152336024820152306044820152606401602060405180830381865afa158015613af2573d6000803e3d6000fd5b505050506040513d601f19601f82011682018060405250810190613b169190614789565b15613b23576108c3613d95565b50600091369150565b6040517f150b7a02000000000000000000000000000000000000000000000000000000008082529073ffffffffffffffffffffffffffffffffffffffff85169063150b7a0290613b86908990899088908890600401614898565b6020604051808303816000875af1158015613ba5573d6000803e3d6000fd5b505050506040513d601f19601f82011682018060405250810190613bc991906148f3565b7fffffffff000000000000000000000000000000000000000000000000000000001614610de8576040517fc215a7a100000000000000000000000000000000000000000000000000000000815273ffffffffffffffffffffffffffffffffffffffff8416600482015260248101839052604401610fa9565b6040805173ffffffffffffffffffffffffffffffffffffffff8416602482015260448082018490528251808303909101815260649091019091526020810180517bffffffffffffffffffffffffffffffffffffffffffffffffffffffff167fa9059cbb000000000000000000000000000000000000000000000000000000001790526108b3908490613dc6565b606081600101805461347090614554565b80471015613d22576040517fcf47918100000000000000000000000000000000000000000000000000000000815247600482015260248101829052604401610fa9565b6000808373ffffffffffffffffffffffffffffffffffffffff168360405160006040518083038185875af1925050503d8060008114613d7d576040519150601f19603f3d011682016040523d82523d6000602084013e613d82565b606091505b50915091508161085c5761085c81613e6a565b3660006108c37fffffffffffffffffffffffffffffffffffffffffffffffffffffffffffffffec8301828481614910565b600080602060008451602086016000885af180613de9576040513d6000823e3d81fd5b50506000513d91508115613e01578060011415613e1b565b73ffffffffffffffffffffffffffffffffffffffff84163b155b1561085c576040517f5274afe700000000000000000000000000000000000000000000000000000000815273ffffffffffffffffffffffffffffffffffffffff85166004820152602401610fa9565b805115613e7a5780518082602001fd5b6040517fd6bda27500000000000000000000000000000000000000000000000000000000815260040160405180910390fd5b7fffffffff000000000000000000000000000000000000000000000000000000008116811461082157600080fd5b600060208284031215613eec57600080fd5b8135610b5f81613eac565b60005b83811015613f12578181015183820152602001613efa565b50506000910152565b60008151808452613f33816020860160208601613ef7565b601f017fffffffffffffffffffffffffffffffffffffffffffffffffffffffffffffffe0169290920160200192915050565b602081526000610b5f6020830184613f1b565b600060208284031215613f8a57600080fd5b5035919050565b73ffffffffffffffffffffffffffffffffffffffff8116811461082157600080fd5b60008060408385031215613fc657600080fd5b8235613fd181613f91565b946020939093013593505050565b60008083601f840112613ff157600080fd5b50813567ffffffffffffffff81111561400957600080fd5b60208301915083602082850101111561087e57600080fd5b6000806000806000806080878903121561403a57600080fd5b863567ffffffffffffffff81111561405157600080fd5b61405d89828a01613fdf565b909750955050602087013567ffffffffffffffff81111561407d57600080fd5b61408989828a01613fdf565b909550935050604087013561409d81613f91565b915060608701356140ad81613f91565b809150509295509295509295565b6000602082840312156140cd57600080fd5b8135610b5f81613f91565b6000806000606084860312156140ed57600080fd5b83356140f881613f91565b9250602084013561410881613f91565b929592945050506040919091013590565b6000806040838503121561412c57600080fd5b50508035926020909101359150565b6000806040838503121561414e57600080fd5b82359150602083013561416081613f91565b809150509250929050565b60208152816020820152818360408301376000818301604090810191909152601f9092017fffffffffffffffffffffffffffffffffffffffffffffffffffffffffffffffe0160101919050565b60008083601f8401126141ca57600080fd5b50813567ffffffffffffffff8111156141e257600080fd5b6020830191508360208260051b850101111561087e57600080fd5b60008060006040848603121561421257600080fd5b833561421d81613f91565b9250602084013567ffffffffffffffff81111561423957600080fd5b614245868287016141b8565b9497909650939450505050565b6000806000806000806060878903121561426b57600080fd5b863567ffffffffffffffff81111561428257600080fd5b61428e89828a016141b8565b909750955050602087013567ffffffffffffffff8111156142ae57600080fd5b6142ba89828a016141b8565b909550935050604087013567ffffffffffffffff8111156142da57600080fd5b6142e689828a016141b8565b979a9699509497509295939492505050565b6000806000806060858703121561430e57600080fd5b843561431981613f91565b935060208501359250604085013567ffffffffffffffff81111561433c57600080fd5b61434887828801613fdf565b95989497509550505050565b6000806000806040858703121561436a57600080fd5b843567ffffffffffffffff81111561438157600080fd5b61438d878288016141b8565b909550935050602085013567ffffffffffffffff8111156143ad57600080fd5b614348878288016141b8565b801515811461082157600080fd5b600080604083850312156143da57600080fd5b82356143e581613f91565b91506020830135614160816143b9565b60008060008060006080868803121561440d57600080fd5b853561441881613f91565b9450602086013561442881613f91565b935060408601359250606086013567ffffffffffffffff81111561444b57600080fd5b61445788828901613fdf565b969995985093965092949392505050565b6000806040838503121561447b57600080fd5b823561448681613f91565b9150602083013561416081613f91565b600080600080606085870312156144ac57600080fd5b84356144b781613f91565b935060208501356144c781613f91565b9250604085013567ffffffffffffffff8111156143ad57600080fd5b7f4e487b7100000000000000000000000000000000000000000000000000000000600052601160045260246000fd5b818103818111156106bc576106bc6144e3565b7f4e487b7100000000000000000000000000000000000000000000000000000000600052604160045260246000fd5b600181811c9082168061456857607f821691505b6020821081036145a1577f4e487b7100000000000000000000000000000000000000000000000000000000600052602260045260246000fd5b50919050565b601f8211156108b357806000526020600020601f840160051c810160208510156145ce5750805b601f840160051c820191505b81811015610de857600081556001016145da565b67ffffffffffffffff83111561460657614606614525565b61461a836146148354614554565b836145a7565b6000601f84116001811461466c57600085156146365750838201355b7fffffffffffffffffffffffffffffffffffffffffffffffffffffffffffffffff600387901b1c1916600186901b178355610de8565b6000838152602090207fffffffffffffffffffffffffffffffffffffffffffffffffffffffffffffffe0861690835b828110156146bb578685013582556020948501946001909201910161469b565b50868210156146f6577fffffffffffffffffffffffffffffffffffffffffffffffffffffffffffffffff60f88860031b161c19848701351681555b505060018560011b0183555050505050565b80820281158282048414176106bc576106bc6144e3565b600082614755577f4e487b7100000000000000000000000000000000000000000000000000000000600052601260045260246000fd5b500490565b7f4e487b7100000000000000000000000000000000000000000000000000000000600052603260045260246000fd5b60006020828403121561479b57600080fd5b8151610b5f816143b9565b6000602082840312156147b857600080fd5b815167ffffffffffffffff8111156147cf57600080fd5b8201601f810184136147e057600080fd5b805167ffffffffffffffff8111156147fa576147fa614525565b6040517fffffffffffffffffffffffffffffffffffffffffffffffffffffffffffffffe0603f7fffffffffffffffffffffffffffffffffffffffffffffffffffffffffffffffe0601f8501160116810181811067ffffffffffffffff8211171561486657614866614525565b60405281815282820160200186101561487e57600080fd5b61488f826020830160208601613ef7565b95945050505050565b73ffffffffffffffffffffffffffffffffffffffff8516815273ffffffffffffffffffffffffffffffffffffffff841660208201528260408201526080606082015260006148e96080830184613f1b565b9695505050505050565b60006020828403121561490557600080fd5b8151610b5f81613eac565b6000808585111561492057600080fd5b8386111561492d57600080fd5b505082019391909203915056fea26469706673582212208bd1b1c0bb804b98f5c54704c8def1957b6b6c475be454c606a876d549226b0d64736f6c634300081c0033",
  "linkReferences": {},
  "deployedLinkReferences": {}
}