{
  "_format": "hh-sol-artifact-1",
  "contractName": "ERC721FullMintOnceBurnProxiedMock",
  "sourceName": "contracts/mocks/token/ERC721/preset/proxied/ERC721FullMintOnceBurnProxiedMock.sol",
  "abi": [
    {
      "inputs": [
        {
          "internalType": "contract IForwarderRegistry",
          "name": "forwarderRegistry",
          "type": "address"
        }
      ],
      "stateMutability": "nonpayable",
      "type": "constructor"
    },
    {
      "inputs": [
        {
          "internalType": "uint256",
          "name": "percentage",
          "type": "uint256"
        }
      ],
      "name": "IncorrectRoyaltyPercentage",
      "type": "error"
    },
    {
      "inputs": [],
      "name": "IncorrectRoyaltyReceiver",
      "type": "error"
    },
    {
      "inputs": [
        {
          "internalType": "address",
          "name": "operator",
          "type": "address"
        }
      ],
      "name": "OperatorNotAllowed",
      "type": "error"
    },
    {
      "anonymous": false,
      "inputs": [
        {
          "indexed": true,
          "internalType": "address",
          "name": "owner",
          "type": "address"
        },
        {
          "indexed": true,
          "internalType": "address",
          "name": "approved",
          "type": "address"
        },
        {
          "indexed": true,
          "internalType": "uint256",
          "name": "tokenId",
          "type": "uint256"
        }
      ],
      "name": "Approval",
      "type": "event"
    },
    {
      "anonymous": false,
      "inputs": [
        {
          "indexed": true,
          "internalType": "address",
          "name": "owner",
          "type": "address"
        },
        {
          "indexed": true,
          "internalType": "address",
          "name": "operator",
          "type": "address"
        },
        {
          "indexed": false,
          "internalType": "bool",
          "name": "approved",
          "type": "bool"
        }
      ],
      "name": "ApprovalForAll",
      "type": "event"
    },
    {
      "anonymous": false,
      "inputs": [
        {
          "indexed": true,
          "internalType": "address",
          "name": "previousOwner",
          "type": "address"
        },
        {
          "indexed": true,
          "internalType": "address",
          "name": "newOwner",
          "type": "address"
        }
      ],
      "name": "OwnershipTransferred",
      "type": "event"
    },
    {
      "anonymous": false,
      "inputs": [
        {
          "indexed": false,
          "internalType": "bytes32",
          "name": "role",
          "type": "bytes32"
        },
        {
          "indexed": false,
          "internalType": "address",
          "name": "account",
          "type": "address"
        },
        {
          "indexed": false,
          "internalType": "address",
          "name": "operator",
          "type": "address"
        }
      ],
      "name": "RoleGranted",
      "type": "event"
    },
    {
      "anonymous": false,
      "inputs": [
        {
          "indexed": false,
          "internalType": "bytes32",
          "name": "role",
          "type": "bytes32"
        },
        {
          "indexed": false,
          "internalType": "address",
          "name": "account",
          "type": "address"
        },
        {
          "indexed": false,
          "internalType": "address",
          "name": "operator",
          "type": "address"
        }
      ],
      "name": "RoleRevoked",
      "type": "event"
    },
    {
      "anonymous": false,
      "inputs": [
        {
          "indexed": true,
          "internalType": "address",
          "name": "from",
          "type": "address"
        },
        {
          "indexed": true,
          "internalType": "address",
          "name": "to",
          "type": "address"
        },
        {
          "indexed": true,
          "internalType": "uint256",
          "name": "tokenId",
          "type": "uint256"
        }
      ],
      "name": "Transfer",
      "type": "event"
    },
    {
      "inputs": [],
      "name": "MINTER_ROLE",
      "outputs": [
        {
          "internalType": "bytes32",
          "name": "",
          "type": "bytes32"
        }
      ],
      "stateMutability": "view",
      "type": "function"
    },
    {
      "inputs": [],
      "name": "ROYALTY_FEE_DENOMINATOR",
      "outputs": [
        {
          "internalType": "uint256",
          "name": "",
          "type": "uint256"
        }
      ],
      "stateMutability": "view",
      "type": "function"
    },
    {
      "inputs": [],
      "name": "__msgData",
      "outputs": [
        {
          "internalType": "bytes",
          "name": "",
          "type": "bytes"
        }
      ],
      "stateMutability": "view",
      "type": "function"
    },
    {
      "inputs": [
        {
          "internalType": "address",
          "name": "to",
          "type": "address"
        },
        {
          "internalType": "uint256",
          "name": "tokenId",
          "type": "uint256"
        }
      ],
      "name": "approve",
      "outputs": [],
      "stateMutability": "nonpayable",
      "type": "function"
    },
    {
      "inputs": [
        {
          "internalType": "address",
          "name": "owner",
          "type": "address"
        }
      ],
      "name": "balanceOf",
      "outputs": [
        {
          "internalType": "uint256",
          "name": "balance",
          "type": "uint256"
        }
      ],
      "stateMutability": "view",
      "type": "function"
    },
    {
      "inputs": [
        {
          "internalType": "address",
          "name": "from",
          "type": "address"
        },
        {
          "internalType": "uint256[]",
          "name": "tokenIds",
          "type": "uint256[]"
        }
      ],
      "name": "batchBurnFrom",
      "outputs": [],
      "stateMutability": "nonpayable",
      "type": "function"
    },
    {
      "inputs": [
        {
          "internalType": "address",
          "name": "to",
          "type": "address"
        },
        {
          "internalType": "uint256[]",
          "name": "tokenIds",
          "type": "uint256[]"
        }
      ],
      "name": "batchMint",
      "outputs": [],
      "stateMutability": "nonpayable",
      "type": "function"
    },
    {
      "inputs": [
        {
          "internalType": "address",
          "name": "from",
          "type": "address"
        },
        {
          "internalType": "address",
          "name": "to",
          "type": "address"
        },
        {
          "internalType": "uint256[]",
          "name": "tokenIds",
          "type": "uint256[]"
        }
      ],
      "name": "batchTransferFrom",
      "outputs": [],
      "stateMutability": "nonpayable",
      "type": "function"
    },
    {
      "inputs": [
        {
          "internalType": "address",
          "name": "from",
          "type": "address"
        },
        {
          "internalType": "uint256",
          "name": "tokenId",
          "type": "uint256"
        }
      ],
      "name": "burnFrom",
      "outputs": [],
      "stateMutability": "nonpayable",
      "type": "function"
    },
    {
      "inputs": [
        {
          "internalType": "address[]",
          "name": "recipients",
          "type": "address[]"
        },
        {
          "internalType": "uint256[]",
          "name": "tokenIds",
          "type": "uint256[]"
        }
      ],
      "name": "deliver",
      "outputs": [],
      "stateMutability": "nonpayable",
      "type": "function"
    },
    {
      "inputs": [],
      "name": "forwarderRegistry",
      "outputs": [
        {
          "internalType": "contract IForwarderRegistry",
          "name": "",
          "type": "address"
        }
      ],
      "stateMutability": "view",
      "type": "function"
    },
    {
      "inputs": [
        {
          "internalType": "uint256",
          "name": "tokenId",
          "type": "uint256"
        }
      ],
      "name": "getApproved",
      "outputs": [
        {
          "internalType": "address",
          "name": "approved",
          "type": "address"
        }
      ],
      "stateMutability": "view",
      "type": "function"
    },
    {
      "inputs": [
        {
          "internalType": "bytes32",
          "name": "role",
          "type": "bytes32"
        },
        {
          "internalType": "address",
          "name": "account",
          "type": "address"
        }
      ],
      "name": "grantRole",
      "outputs": [],
      "stateMutability": "nonpayable",
      "type": "function"
    },
    {
      "inputs": [
        {
          "internalType": "bytes32",
          "name": "role",
          "type": "bytes32"
        },
        {
          "internalType": "address",
          "name": "account",
          "type": "address"
        }
      ],
      "name": "hasRole",
      "outputs": [
        {
          "internalType": "bool",
          "name": "hasRole_",
          "type": "bool"
        }
      ],
      "stateMutability": "view",
      "type": "function"
    },
    {
      "inputs": [
        {
          "internalType": "string",
          "name": "tokenName",
          "type": "string"
        },
        {
          "internalType": "string",
          "name": "tokenSymbol",
          "type": "string"
        },
        {
          "internalType": "contract ITokenMetadataResolver",
          "name": "metadataResolver",
          "type": "address"
        },
        {
          "internalType": "contract IOperatorFilterRegistry",
          "name": "filterRegistry",
          "type": "address"
        }
      ],
      "name": "init",
      "outputs": [],
      "stateMutability": "nonpayable",
      "type": "function"
    },
    {
      "inputs": [
        {
          "internalType": "address",
          "name": "owner",
          "type": "address"
        },
        {
          "internalType": "address",
          "name": "operator",
          "type": "address"
        }
      ],
      "name": "isApprovedForAll",
      "outputs": [
        {
          "internalType": "bool",
          "name": "approvedForAll",
          "type": "bool"
        }
      ],
      "stateMutability": "view",
      "type": "function"
    },
    {
      "inputs": [
        {
          "internalType": "address",
          "name": "forwarder",
          "type": "address"
        }
      ],
      "name": "isTrustedForwarder",
      "outputs": [
        {
          "internalType": "bool",
          "name": "",
          "type": "bool"
        }
      ],
      "stateMutability": "view",
      "type": "function"
    },
    {
      "inputs": [],
      "name": "metadataResolver",
      "outputs": [
        {
          "internalType": "contract ITokenMetadataResolver",
          "name": "tokenMetadataResolver",
          "type": "address"
        }
      ],
      "stateMutability": "view",
      "type": "function"
    },
    {
      "inputs": [
        {
          "internalType": "address",
          "name": "to",
          "type": "address"
        },
        {
          "internalType": "uint256",
          "name": "tokenId",
          "type": "uint256"
        }
      ],
      "name": "mint",
      "outputs": [],
      "stateMutability": "nonpayable",
      "type": "function"
    },
    {
      "inputs": [],
      "name": "name",
      "outputs": [
        {
          "internalType": "string",
          "name": "tokenName",
          "type": "string"
        }
      ],
      "stateMutability": "view",
      "type": "function"
    },
    {
      "inputs": [],
      "name": "operatorFilterRegistry",
      "outputs": [
        {
          "internalType": "contract IOperatorFilterRegistry",
          "name": "",
          "type": "address"
        }
      ],
      "stateMutability": "view",
      "type": "function"
    },
    {
      "inputs": [],
      "name": "owner",
      "outputs": [
        {
          "internalType": "address",
          "name": "",
          "type": "address"
        }
      ],
      "stateMutability": "view",
      "type": "function"
    },
    {
      "inputs": [
        {
          "internalType": "uint256",
          "name": "tokenId",
          "type": "uint256"
        }
      ],
      "name": "ownerOf",
      "outputs": [
        {
          "internalType": "address",
          "name": "tokenOwner",
          "type": "address"
        }
      ],
      "stateMutability": "view",
      "type": "function"
    },
    {
      "inputs": [
        {
          "internalType": "address[]",
          "name": "accounts",
          "type": "address[]"
        },
        {
          "internalType": "contract IERC20[]",
          "name": "tokens",
          "type": "address[]"
        },
        {
          "internalType": "uint256[]",
          "name": "amounts",
          "type": "uint256[]"
        }
      ],
      "name": "recoverERC20s",
      "outputs": [],
      "stateMutability": "nonpayable",
      "type": "function"
    },
    {
      "inputs": [
        {
          "internalType": "address[]",
          "name": "accounts",
          "type": "address[]"
        },
        {
          "internalType": "contract IERC721[]",
          "name": "contracts",
          "type": "address[]"
        },
        {
          "internalType": "uint256[]",
          "name": "tokenIds",
          "type": "uint256[]"
        }
      ],
      "name": "recoverERC721s",
      "outputs": [],
      "stateMutability": "nonpayable",
      "type": "function"
    },
    {
      "inputs": [
        {
          "internalType": "address payable[]",
          "name": "accounts",
          "type": "address[]"
        },
        {
          "internalType": "uint256[]",
          "name": "amounts",
          "type": "uint256[]"
        }
      ],
      "name": "recoverETH",
      "outputs": [],
      "stateMutability": "nonpayable",
      "type": "function"
    },
    {
      "inputs": [
        {
          "internalType": "bytes32",
          "name": "role",
          "type": "bytes32"
        }
      ],
      "name": "renounceRole",
      "outputs": [],
      "stateMutability": "nonpayable",
      "type": "function"
    },
    {
      "inputs": [
        {
          "internalType": "bytes32",
          "name": "role",
          "type": "bytes32"
        },
        {
          "internalType": "address",
          "name": "account",
          "type": "address"
        }
      ],
      "name": "revokeRole",
      "outputs": [],
      "stateMutability": "nonpayable",
      "type": "function"
    },
    {
      "inputs": [
        {
          "internalType": "uint256",
          "name": "tokenId",
          "type": "uint256"
        },
        {
          "internalType": "uint256",
          "name": "salePrice",
          "type": "uint256"
        }
      ],
      "name": "royaltyInfo",
      "outputs": [
        {
          "internalType": "address",
          "name": "receiver",
          "type": "address"
        },
        {
          "internalType": "uint256",
          "name": "royaltyAmount",
          "type": "uint256"
        }
      ],
      "stateMutability": "view",
      "type": "function"
    },
    {
      "inputs": [
        {
          "internalType": "address",
          "name": "to",
          "type": "address"
        },
        {
          "internalType": "uint256",
          "name": "tokenId",
          "type": "uint256"
        },
        {
          "internalType": "bytes",
          "name": "data",
          "type": "bytes"
        }
      ],
      "name": "safeMint",
      "outputs": [],
      "stateMutability": "nonpayable",
      "type": "function"
    },
    {
      "inputs": [
        {
          "internalType": "address",
          "name": "from",
          "type": "address"
        },
        {
          "internalType": "address",
          "name": "to",
          "type": "address"
        },
        {
          "internalType": "uint256",
          "name": "tokenId",
          "type": "uint256"
        }
      ],
      "name": "safeTransferFrom",
      "outputs": [],
      "stateMutability": "nonpayable",
      "type": "function"
    },
    {
      "inputs": [
        {
          "internalType": "address",
          "name": "from",
          "type": "address"
        },
        {
          "internalType": "address",
          "name": "to",
          "type": "address"
        },
        {
          "internalType": "uint256",
          "name": "tokenId",
          "type": "uint256"
        },
        {
          "internalType": "bytes",
          "name": "data",
          "type": "bytes"
        }
      ],
      "name": "safeTransferFrom",
      "outputs": [],
      "stateMutability": "nonpayable",
      "type": "function"
    },
    {
      "inputs": [
        {
          "internalType": "address",
          "name": "operator",
          "type": "address"
        },
        {
          "internalType": "bool",
          "name": "approved",
          "type": "bool"
        }
      ],
      "name": "setApprovalForAll",
      "outputs": [],
      "stateMutability": "nonpayable",
      "type": "function"
    },
    {
      "inputs": [
        {
          "internalType": "uint256",
          "name": "percentage",
          "type": "uint256"
        }
      ],
      "name": "setRoyaltyPercentage",
      "outputs": [],
      "stateMutability": "nonpayable",
      "type": "function"
    },
    {
      "inputs": [
        {
          "internalType": "address",
          "name": "receiver",
          "type": "address"
        }
      ],
      "name": "setRoyaltyReceiver",
      "outputs": [],
      "stateMutability": "nonpayable",
      "type": "function"
    },
    {
      "inputs": [
        {
          "internalType": "bytes4",
          "name": "interfaceId",
          "type": "bytes4"
        }
      ],
      "name": "supportsInterface",
      "outputs": [
        {
          "internalType": "bool",
          "name": "",
          "type": "bool"
        }
      ],
      "stateMutability": "view",
      "type": "function"
    },
    {
      "inputs": [],
      "name": "symbol",
      "outputs": [
        {
          "internalType": "string",
          "name": "tokenSymbol",
          "type": "string"
        }
      ],
      "stateMutability": "view",
      "type": "function"
    },
    {
      "inputs": [
        {
          "internalType": "uint256",
          "name": "tokenId",
          "type": "uint256"
        }
      ],
      "name": "tokenURI",
      "outputs": [
        {
          "internalType": "string",
          "name": "uri",
          "type": "string"
        }
      ],
      "stateMutability": "view",
      "type": "function"
    },
    {
      "inputs": [
        {
          "internalType": "address",
          "name": "from",
          "type": "address"
        },
        {
          "internalType": "address",
          "name": "to",
          "type": "address"
        },
        {
          "internalType": "uint256",
          "name": "tokenId",
          "type": "uint256"
        }
      ],
      "name": "transferFrom",
      "outputs": [],
      "stateMutability": "nonpayable",
      "type": "function"
    },
    {
      "inputs": [
        {
          "internalType": "address",
          "name": "newOwner",
          "type": "address"
        }
      ],
      "name": "transferOwnership",
      "outputs": [],
      "stateMutability": "nonpayable",
      "type": "function"
    },
    {
      "inputs": [
        {
          "internalType": "contract IOperatorFilterRegistry",
          "name": "registry",
          "type": "address"
        }
      ],
      "name": "updateOperatorFilterRegistry",
      "outputs": [],
      "stateMutability": "nonpayable",
      "type": "function"
    },
    {
      "inputs": [
        {
          "internalType": "uint256",
          "name": "tokenId",
          "type": "uint256"
        }
      ],
      "name": "wasBurnt",
      "outputs": [
        {
          "internalType": "bool",
          "name": "tokenWasBurnt",
          "type": "bool"
        }
      ],
      "stateMutability": "view",
      "type": "function"
    }
  ],
  "bytecode": "0x60a060405234801562000010575f80fd5b506040516200504438038062005044833981016040819052620000339162000045565b6001600160a01b031660805262000074565b5f6020828403121562000056575f80fd5b81516001600160a01b03811681146200006d575f80fd5b9392505050565b608051614f94620000b05f395f81816103d50152818161046b01528181613a8a01528181613b1201528181613e640152613ea20152614f945ff3fe608060405234801561000f575f80fd5b50600436106102cd575f3560e01c80638bb9c5bf1161017c578063c3666c36116100dd578063e1a8bf2c11610093578063f2fde38b1161006e578063f2fde38b1461065d578063f3993d1114610670578063f7ba94bd14610683575f80fd5b8063e1a8bf2c1461062d578063e985e9c514610637578063f24729651461064a575f80fd5b8063c87b56dd116100c3578063c87b56dd146105e0578063d5391393146105f3578063d547741f1461061a575f80fd5b8063c3666c36146105ba578063c77c6955146105cd575f80fd5b80639da5e83211610132578063a22cb46511610118578063a22cb4651461058c578063b0ccc31e1461059f578063b88d4fde146105a7575f80fd5b80639da5e83214610571578063a0c76f6214610584575f80fd5b80638dc251e3116101625780638dc251e31461054357806391d148541461055657806395d89b4114610569575f80fd5b80638bb9c5bf146105285780638da5cb5b1461053b575f80fd5b806331e66e1e1161023157806361ba27da116101e757806373c8a958116101c257806373c8a958146104ef57806379cc6790146105025780638832e6e314610515575f80fd5b806361ba27da146104a85780636352211e146104bb57806370a08231146104ce575f80fd5b806342842e0e1161021757806342842e0e146104355780634684d7e914610448578063572b6c051461045b575f80fd5b806331e66e1e1461040c57806340c10f1914610422575f80fd5b8063114ba8ee116102865780632a55205a1161026c5780632a55205a146103945780632b4c9f16146103d35780632f2ff15d146103f9575f80fd5b8063114ba8ee1461036e57806323b872dd14610381575f80fd5b8063081812fc116102b6578063081812fc1461030e578063095ea7b3146103465780630e07f8541461035b575f80fd5b806301ffc9a7146102d157806306fdde03146102f9575b5f80fd5b6102e46102df366004614528565b610696565b60405190151581526020015b60405180910390f35b6103016106af565b6040516102f091906145ae565b61032161031c3660046145c0565b6106be565b60405173ffffffffffffffffffffffffffffffffffffffff90911681526020016102f0565b6103596103543660046145f8565b6106d1565b005b610359610369366004614660565b610720565b61035961037c3660046146ef565b6107a5565b61035961038f36600461470a565b610810565b6103a76103a2366004614748565b61084d565b6040805173ffffffffffffffffffffffffffffffffffffffff90931683526020830191909152016102f0565b7f0000000000000000000000000000000000000000000000000000000000000000610321565b610359610407366004614768565b61086f565b6104146108a1565b6040516102f0929190614796565b6103596104303660046145f8565b6108b3565b61035961044336600461470a565b610902565b610359610456366004614823565b610932565b6102e46104693660046146ef565b7f000000000000000000000000000000000000000000000000000000000000000073ffffffffffffffffffffffffffffffffffffffff90811691161490565b6103596104b63660046145c0565b6109a5565b6103216104c93660046145c0565b6109c2565b6104e16104dc3660046146ef565b6109d5565b6040519081526020016102f0565b6103596104fd366004614874565b6109e8565b6103596105103660046145f8565b610b0f565b610359610523366004614907565b610b2c565b6103596105363660046145c0565b610bad565b610321610bc8565b6103596105513660046146ef565b610bee565b6102e4610564366004614768565b610c0b565b610301610c54565b61035961057f36600461495f565b610c5e565b610321610d00565b61035961059a3660046149c7565b610d29565b610321610d58565b6103596105b53660046149f3565b610d64565b6103596105c8366004614874565b610d98565b6102e46105db3660046145c0565b610f37565b6103016105ee3660046145c0565b610f4a565b6104e17f6d696e746572000000000000000000000000000000000000000000000000000081565b610359610628366004614768565b610f6d565b6104e1620186a081565b6102e4610645366004614a61565b610f9a565b610359610658366004614823565b610fe6565b61035961066b3660046146ef565b611005565b61035961067e366004614a8d565b611020565b61035961069136600461495f565b611059565b5f6106a9826106a361113e565b9061116b565b92915050565b60606106b9611242565b905090565b5f6106a9826106cb611254565b90611281565b73ffffffffffffffffffffffffffffffffffffffff8216156106ff576106ff826106f961135f565b9061138c565b61071c61070a611396565b8383610714611254565b92919061139f565b5050565b61073961072b611396565b610733611664565b90611691565b6107416116d0565b610749611707565b610751611735565b610759611763565b610761611791565b6107696117bf565b6107716117ed565b61078b868686868661078161181b565b9493929190611848565b61079d8161079761135f565b906118e2565b505050505050565b6107be6107b0611396565b6107b8611664565b90611952565b61080d816107ca61135f565b9081547fffffffffffffffffffffffff00000000000000000000000000000000000000001673ffffffffffffffffffffffffffffffffffffffff91909116179055565b50565b5f610819611396565b905061082f818561082861135f565b91906119d5565b6108478185858561083e611254565b93929190611a12565b50505050565b5f80610863848461085c611d63565b9190611d90565b915091505b9250929050565b5f610878611396565b9050610886816107b8611664565b61089c838383610894611e38565b929190611e65565b505050565b365f6108ab611f39565b915091509091565b6108ee7f6d696e74657200000000000000000000000000000000000000000000000000006108df611396565b6108e7611e38565b9190611f43565b61071c82826108fb611254565b9190611fee565b5f61090b611396565b905061091a818561082861135f565b61084781858585610929611254565b939291906121ee565b61095e7f6d696e74657200000000000000000000000000000000000000000000000000006108df611396565b61089c838383808060200260200160405190810160405280939291908181526020018383602002808284375f9201919091525061099e9250611254915050565b9190612233565b6109b06107b0611396565b61080d816109bc611d63565b90612483565b5f6106a9826109cf611254565b90612509565b5f6106a9826109e2611254565b9061259e565b6109f36107b0611396565b848381148015610a0257508082145b610a6d576040517f08c379a000000000000000000000000000000000000000000000000000000000815260206004820152601d60248201527f5265636f766572793a20696e636f6e73697374656e742061727261797300000060448201526064015b60405180910390fd5b5f5b818114610b0557610afd888883818110610a8b57610a8b614ae2565b9050602002016020810190610aa091906146ef565b858584818110610ab257610ab2614ae2565b90506020020135888885818110610acb57610acb614ae2565b9050602002016020810190610ae091906146ef565b73ffffffffffffffffffffffffffffffffffffffff169190612648565b600101610a6f565b5050505050505050565b61071c610b1a611396565b8383610b24611254565b9291906126d5565b610b587f6d696e74657200000000000000000000000000000000000000000000000000006108df611396565b610847610b63611396565b858585858080601f0160208091040260200160405190810160405280939291908181526020018383808284375f92019190915250610ba49250611254915050565b939291906128e6565b61080d610bb8611396565b82610bc1611e38565b919061291b565b5f6106b9610bd4611664565b5473ffffffffffffffffffffffffffffffffffffffff1690565b610bf96107b0611396565b61080d81610c05611d63565b906129be565b5f610c4d8383610c19611e38565b5f9283526020908152604080842073ffffffffffffffffffffffffffffffffffffffff909316845291905290205460ff1690565b9392505050565b60606106b9612a0b565b610c8a7f6d696e74657200000000000000000000000000000000000000000000000000006108df611396565b6108478484808060200260200160405190810160405280939291908181526020018383602002808284375f92019190915250506040805160208088028281018201909352878252909350879250869182918501908490808284375f92019190915250610cf99250611254915050565b9190612a1d565b5f6106b9610d0c61181b565b6002015473ffffffffffffffffffffffffffffffffffffffff1690565b8015610d3b57610d3b826106f961135f565b61071c610d46611396565b8383610d50611254565b929190612cf1565b5f6106b9610bd461135f565b5f610d6d611396565b9050610d7c818761082861135f565b61079d818787878787610d8d611254565b959493929190612e20565b610da36107b0611396565b848381148015610db257508082145b610e18576040517f08c379a000000000000000000000000000000000000000000000000000000000815260206004820152601d60248201527f5265636f766572793a20696e636f6e73697374656e74206172726179730000006044820152606401610a64565b5f5b818114610b0557858582818110610e3357610e33614ae2565b9050602002016020810190610e4891906146ef565b73ffffffffffffffffffffffffffffffffffffffff166323b872dd308a8a85818110610e7657610e76614ae2565b9050602002016020810190610e8b91906146ef565b878786818110610e9d57610e9d614ae2565b6040517fffffffff0000000000000000000000000000000000000000000000000000000060e088901b16815273ffffffffffffffffffffffffffffffffffffffff9586166004820152949093166024850152506020909102013560448201526064015f604051808303815f87803b158015610f16575f80fd5b505af1158015610f28573d5f803e3d5ffd5b50505050806001019050610e1a565b5f6106a982610f44611254565b90612e95565b6060610f58826109cf611254565b506106a93083610f6661181b565b9190612eca565b5f610f76611396565b9050610f84816107b8611664565b61089c838383610f92611e38565b929190612f86565b5f610c4d8383610fa8611254565b919073ffffffffffffffffffffffffffffffffffffffff9182165f908152600393909301602090815260408085209290931684525290205460ff1690565b61089c610ff1611396565b848484610ffc611254565b9392919061304e565b61080d611010611396565b82611019611664565b919061329c565b5f611029611396565b9050611038818661082861135f565b6110528186868686611048611254565b94939291906133c7565b5050505050565b6110646107b0611396565b828181146110ce576040517f08c379a000000000000000000000000000000000000000000000000000000000815260206004820152601d60248201527f5265636f766572793a20696e636f6e73697374656e74206172726179730000006044820152606401610a64565b5f5b81811461079d576111368484838181106110ec576110ec614ae2565b9050602002013587878481811061110557611105614ae2565b905060200201602081019061111a91906146ef565b73ffffffffffffffffffffffffffffffffffffffff169061373b565b6001016110d0565b5f806106a960017fca9d3e17f264b0f3984e2634e94adb37fa3e6a8103f06aeae6fa59e21c769f5e614b3c565b5f7c01000000000000000000000000000000000000000000000000000000007fffffffff000000000000000000000000000000000000000000000000000000008316016111b957505f6106a9565b7ffe003659000000000000000000000000000000000000000000000000000000007fffffffff0000000000000000000000000000000000000000000000000000000083160161120a575060016106a9565b507fffffffff00000000000000000000000000000000000000000000000000000000165f908152602091909152604090205460ff1690565b60606106b961124f61181b565b613891565b5f806106a960017fddf3ee18ae6d688373c219468f8be446e7ae82215f4779d821c7ea5e8c13c0c1614b3c565b5f8181526020839052604081205473ffffffffffffffffffffffffffffffffffffffff811661130c576040517f08c379a000000000000000000000000000000000000000000000000000000000815260206004820152601a60248201527f4552433732313a206e6f6e2d6578697374696e6720746f6b656e0000000000006044820152606401610a64565b740100000000000000000000000000000000000000008116156113565750505f81815260028301602052604090205473ffffffffffffffffffffffffffffffffffffffff166106a9565b5f9150506106a9565b5f806106a960017f609b85bcafa81ecfaf3ff62cdde2c6c9082a68dbe4922f07399c706bdeb7cd31614b3c565b61071c8282613924565b5f6106b9613a48565b5f8181526020859052604090205473ffffffffffffffffffffffffffffffffffffffff811661142a576040517f08c379a000000000000000000000000000000000000000000000000000000000815260206004820152601a60248201527f4552433732313a206e6f6e2d6578697374696e6720746f6b656e0000000000006044820152606401610a64565b8073ffffffffffffffffffffffffffffffffffffffff808216908516036114ad576040517f08c379a000000000000000000000000000000000000000000000000000000000815260206004820152601560248201527f4552433732313a2073656c662d617070726f76616c00000000000000000000006044820152606401610a64565b6114b8868287613b8c565b61151e576040517f08c379a000000000000000000000000000000000000000000000000000000000815260206004820152601b60248201527f4552433732313a206e6f6e2d617070726f7665642073656e64657200000000006044820152606401610a64565b73ffffffffffffffffffffffffffffffffffffffff8416611582577401000000000000000000000000000000000000000082161561157d575f83815260208790526040902073ffffffffffffffffffffffffffffffffffffffff821690555b611601565b7401000000000000000000000000000000000000000082178083146115b2575f8481526020889052604090208190555b505f838152600287016020526040902080547fffffffffffffffffffffffff00000000000000000000000000000000000000001673ffffffffffffffffffffffffffffffffffffffff86161790555b828473ffffffffffffffffffffffffffffffffffffffff168273ffffffffffffffffffffffffffffffffffffffff167f8c5be1e5ebec7d5bd14f71427d1e84f3dd0314c0f7b2291e5b200ac8c7c3b92560405160405180910390a4505050505050565b5f806106a960017fc9ed16f33ab3a66c84bfd83099ccb2a8845871e2e1c1928f63797152f0fd54cd614b3c565b6116c66116bf60017f5b388d90dc1312ba799f321972f13311234fa1163bcabec7cf66101c4876eb84614b3c565b6001613bff565b61071c8282613c6f565b6117057f80ac58cd0000000000000000000000000000000000000000000000000000000060016116fe61113e565b9190613d24565b565b6117057ff3993d110000000000000000000000000000000000000000000000000000000060016116fe61113e565b6117057f5b5e139f0000000000000000000000000000000000000000000000000000000060016116fe61113e565b6117057f8e773e130000000000000000000000000000000000000000000000000000000060016116fe61113e565b6117057f9da5e8320000000000000000000000000000000000000000000000000000000060016116fe61113e565b6117057f8b8b4ef50000000000000000000000000000000000000000000000000000000060016116fe61113e565b6117057f2a55205a0000000000000000000000000000000000000000000000000000000060016116fe61113e565b5f806106a960017f7ea68fd2dcf1c056b94db6a0a537aa80d26fa9ab1eacd85da1ba0b61b7e7a8a5614b3c565b6118766116bf60017f92f72593ca50a0096f68ee94e7000db40ed086164b695855e2250750b8bfaf59614b3c565b85611882858783614c12565b5060018601611892838583614c12565b5060029590950180547fffffffffffffffffffffffff00000000000000000000000000000000000000001673ffffffffffffffffffffffffffffffffffffffff9096169590951790945550505050565b6119106116bf60017f2f02d396cb1be29636682c8684200b30a98554d3b74293aa4495cb5e1d252f6e614b3c565b81547fffffffffffffffffffffffff00000000000000000000000000000000000000001673ffffffffffffffffffffffffffffffffffffffff91909116179055565b815473ffffffffffffffffffffffffffffffffffffffff82811691161461071c576040517f08c379a000000000000000000000000000000000000000000000000000000000815260206004820152601860248201527f4f776e6572736869703a206e6f7420746865206f776e657200000000000000006044820152606401610a64565b8073ffffffffffffffffffffffffffffffffffffffff168273ffffffffffffffffffffffffffffffffffffffff161461089c5761089c8383613924565b73ffffffffffffffffffffffffffffffffffffffff8216611a8f576040517f08c379a000000000000000000000000000000000000000000000000000000000815260206004820152601e60248201527f4552433732313a207472616e7366657220746f206164647265737328302900006044820152606401610a64565b5f8181526020869052604090205473ffffffffffffffffffffffffffffffffffffffff8116611b1a576040517f08c379a000000000000000000000000000000000000000000000000000000000815260206004820152601a60248201527f4552433732313a206e6f6e2d6578697374696e6720746f6b656e0000000000006044820152606401610a64565b73ffffffffffffffffffffffffffffffffffffffff84168173ffffffffffffffffffffffffffffffffffffffff1614611baf576040517f08c379a000000000000000000000000000000000000000000000000000000000815260206004820152601760248201527f4552433732313a206e6f6e2d6f776e656420746f6b656e0000000000000000006044820152606401610a64565b611bba868587613b8c565b611c715774010000000000000000000000000000000000000000811615158015611c0b57505f82815260028701602052604090205473ffffffffffffffffffffffffffffffffffffffff8681169116145b611c71576040517f08c379a000000000000000000000000000000000000000000000000000000000815260206004820152601b60248201527f4552433732313a206e6f6e2d617070726f7665642073656e64657200000000006044820152606401610a64565b5f82815260208790526040902073ffffffffffffffffffffffffffffffffffffffff80851691829055851614611d005773ffffffffffffffffffffffffffffffffffffffff8085165f9081526001808901602052604080832080547fffffffffffffffffffffffffffffffffffffffffffffffffffffffffffffffff0190559286168252919020805490910190555b818373ffffffffffffffffffffffffffffffffffffffff168573ffffffffffffffffffffffffffffffffffffffff167fddf252ad1be2c89b69c2b068fc378daa952ba7f163c4a11628f55a4df523b3ef60405160405180910390a4505050505050565b5f806106a960017f2c0cf10337caabbd02dcf226f05f5fd19a0919a41a8df8958c39b80007826858614b3c565b825473ffffffffffffffffffffffffffffffffffffffff8116905f907401000000000000000000000000000000000000000090046bffffffffffffffffffffffff16831580611ddd575080155b15611dea575f9150611e2f565b620186a0841015611e1457620186a0611e038286614d29565b611e0d9190614d40565b9150611e2f565b80611e22620186a086614d40565b611e2c9190614d29565b91505b50935093915050565b5f806106a960017fc8827d3282af6f37b64c3e9e6f3ac9df286ab0bb0fccd6f8661bf19adb368b23614b3c565b5f8381526020858152604080832073ffffffffffffffffffffffffffffffffffffffff8616845290915290205460ff16610847575f8381526020858152604080832073ffffffffffffffffffffffffffffffffffffffff8681168086529184529382902080547fffffffffffffffffffffffffffffffffffffffffffffffffffffffffffffff00166001179055815187815292830152918316918101919091527f2f8788117e7eff1d82e926ec794901d17c78024a50270940304540a733656f0d906060015b60405180910390a150505050565b365f6108ab613e2f565b5f8281526020848152604080832073ffffffffffffffffffffffffffffffffffffffff8516845290915290205460ff1661089c57611f8082613f94565b604051602001611f909190614d78565b604080517fffffffffffffffffffffffffffffffffffffffffffffffffffffffffffffffe0818403018152908290527f08c379a0000000000000000000000000000000000000000000000000000000008252610a64916004016145ae565b73ffffffffffffffffffffffffffffffffffffffff821661206b576040517f08c379a000000000000000000000000000000000000000000000000000000000815260206004820152601a60248201527f4552433732313a206d696e7420746f20616464726573732830290000000000006044820152606401610a64565b5f8181526020849052604090205473ffffffffffffffffffffffffffffffffffffffff8116156120f7576040517f08c379a000000000000000000000000000000000000000000000000000000000815260206004820152601660248201527f4552433732313a206578697374696e6720746f6b656e000000000000000000006044820152606401610a64565b7fdead0000000000000000000000000000000000000000000000000000000000008103612180576040517f08c379a000000000000000000000000000000000000000000000000000000000815260206004820152601360248201527f4552433732313a206275726e7420746f6b656e000000000000000000000000006044820152606401610a64565b5f8281526020858152604080832073ffffffffffffffffffffffffffffffffffffffff87169081905580845260018089019093528184208054909301909255518492907fddf252ad1be2c89b69c2b068fc378daa952ba7f163c4a11628f55a4df523b3ef908290a450505050565b6121fb8585858585611a12565b73ffffffffffffffffffffffffffffffffffffffff82163b15611052576110528484848460405180602001604052805f81525061411f565b73ffffffffffffffffffffffffffffffffffffffff82166122b0576040517f08c379a000000000000000000000000000000000000000000000000000000000815260206004820152601a60248201527f4552433732313a206d696e7420746f20616464726573732830290000000000006044820152606401610a64565b80515f5b81811461244f575f8382815181106122ce576122ce614ae2565b6020908102919091018101515f8181529188905260409091205490915073ffffffffffffffffffffffffffffffffffffffff811615612369576040517f08c379a000000000000000000000000000000000000000000000000000000000815260206004820152601660248201527f4552433732313a206578697374696e6720746f6b656e000000000000000000006044820152606401610a64565b7fdead00000000000000000000000000000000000000000000000000000000000081036123f2576040517f08c379a000000000000000000000000000000000000000000000000000000000815260206004820152601360248201527f4552433732313a206275726e7420746f6b656e000000000000000000000000006044820152606401610a64565b5f8281526020889052604080822073ffffffffffffffffffffffffffffffffffffffff89169081905590518492907fddf252ad1be2c89b69c2b068fc378daa952ba7f163c4a11628f55a4df523b3ef908290a450506001016122b4565b5073ffffffffffffffffffffffffffffffffffffffff9092165f908152600190930160205250604090912080549091019055565b620186a08111156124c3576040517f3affc6c400000000000000000000000000000000000000000000000000000000815260048101829052602401610a64565b81546bffffffffffffffffffffffff909116740100000000000000000000000000000000000000000273ffffffffffffffffffffffffffffffffffffffff909116179055565b5f8181526020839052604081205473ffffffffffffffffffffffffffffffffffffffff8116612594576040517f08c379a000000000000000000000000000000000000000000000000000000000815260206004820152601a60248201527f4552433732313a206e6f6e2d6578697374696e6720746f6b656e0000000000006044820152606401610a64565b805b949350505050565b5f73ffffffffffffffffffffffffffffffffffffffff821661261c576040517f08c379a000000000000000000000000000000000000000000000000000000000815260206004820152601d60248201527f4552433732313a2062616c616e6365206f6620616464726573732830290000006044820152606401610a64565b5073ffffffffffffffffffffffffffffffffffffffff165f908152600191909101602052604090205490565b6040805173ffffffffffffffffffffffffffffffffffffffff8416602482015260448082018490528251808303909101815260649091019091526020810180517bffffffffffffffffffffffffffffffffffffffffffffffffffffffff167fa9059cbb0000000000000000000000000000000000000000000000000000000017905261089c908490614242565b5f818152602085905260409020548073ffffffffffffffffffffffffffffffffffffffff168373ffffffffffffffffffffffffffffffffffffffff1614612778576040517f08c379a000000000000000000000000000000000000000000000000000000000815260206004820152601760248201527f4552433732313a206e6f6e2d6f776e656420746f6b656e0000000000000000006044820152606401610a64565b612783858486613b8c565b61283a57740100000000000000000000000000000000000000008116151580156127d457505f82815260028601602052604090205473ffffffffffffffffffffffffffffffffffffffff8581169116145b61283a576040517f08c379a000000000000000000000000000000000000000000000000000000000815260206004820152601b60248201527f4552433732313a206e6f6e2d617070726f7665642073656e64657200000000006044820152606401610a64565b5f828152602086815260408083207fdead000000000000000000000000000000000000000000000000000000000000905573ffffffffffffffffffffffffffffffffffffffff86168084526001890190925280832080547fffffffffffffffffffffffffffffffffffffffffffffffffffffffffffffffff01905551849291907fddf252ad1be2c89b69c2b068fc378daa952ba7f163c4a11628f55a4df523b3ef908390a45050505050565b6128f1858484611fee565b73ffffffffffffffffffffffffffffffffffffffff83163b1561105257611052845f85858561411f565b612926838284611f43565b5f8181526020848152604080832073ffffffffffffffffffffffffffffffffffffffff86168085529083529281902080547fffffffffffffffffffffffffffffffffffffffffffffffffffffffffffffff0016905580518481529182018390528101919091527ff6391f5c32d9c69d2a47ea670b442974b53935d1edc7fd64eb21e047a839171b9060600160405180910390a1505050565b73ffffffffffffffffffffffffffffffffffffffff8116611910576040517f6fe1b4c800000000000000000000000000000000000000000000000000000000815260040160405180910390fd5b60606106b9612a1861181b565b61434f565b815181518114612a89576040517f08c379a000000000000000000000000000000000000000000000000000000000815260206004820152601b60248201527f4552433732313a20696e636f6e73697374656e742061727261797300000000006044820152606401610a64565b5f5b818114611052575f848281518110612aa557612aa5614ae2565b602002602001015190505f73ffffffffffffffffffffffffffffffffffffffff168173ffffffffffffffffffffffffffffffffffffffff1603612b44576040517f08c379a000000000000000000000000000000000000000000000000000000000815260206004820152601a60248201527f4552433732313a206d696e7420746f20616464726573732830290000000000006044820152606401610a64565b5f848381518110612b5757612b57614ae2565b6020908102919091018101515f8181529189905260409091205490915073ffffffffffffffffffffffffffffffffffffffff811615612bf2576040517f08c379a000000000000000000000000000000000000000000000000000000000815260206004820152601660248201527f4552433732313a206578697374696e6720746f6b656e000000000000000000006044820152606401610a64565b7fdead0000000000000000000000000000000000000000000000000000000000008103612c7b576040517f08c379a000000000000000000000000000000000000000000000000000000000815260206004820152601360248201527f4552433732313a206275726e7420746f6b656e000000000000000000000000006044820152606401610a64565b5f8281526020898152604080832073ffffffffffffffffffffffffffffffffffffffff8716908190558084526001808d019093528184208054909301909255518492907fddf252ad1be2c89b69c2b068fc378daa952ba7f163c4a11628f55a4df523b3ef908290a4505050806001019050612a8b565b8273ffffffffffffffffffffffffffffffffffffffff168273ffffffffffffffffffffffffffffffffffffffff1603612d86576040517f08c379a000000000000000000000000000000000000000000000000000000000815260206004820152601d60248201527f4552433732313a2073656c662d617070726f76616c20666f7220616c6c0000006044820152606401610a64565b73ffffffffffffffffffffffffffffffffffffffff8381165f81815260038701602090815260408083209487168084529482529182902080547fffffffffffffffffffffffffffffffffffffffffffffffffffffffffffffff001686151590811790915591519182527f17307eab39ab6107e8899845ad3d59bd9653f200f220920489ca2b5937696c31910160405180910390a350505050565b612e2d8787878787611a12565b73ffffffffffffffffffffffffffffffffffffffff84163b15612e8c57612e8c8686868686868080601f0160208091040260200160405190810160405280939291908181526020018383808284375f9201919091525061411f92505050565b50505050505050565b5f818152602083905260408120547fdead00000000000000000000000000000000000000000000000000000000000014610c4d565b60028301546040517ff724dad700000000000000000000000000000000000000000000000000000000815273ffffffffffffffffffffffffffffffffffffffff848116600483015260248201849052606092169063f724dad7906044015f60405180830381865afa158015612f41573d5f803e3d5ffd5b505050506040513d5f823e601f3d9081017fffffffffffffffffffffffffffffffffffffffffffffffffffffffffffffffe01682016040526125969190810190614de3565b5f8381526020858152604080832073ffffffffffffffffffffffffffffffffffffffff8616845290915290205460ff1615610847575f8381526020858152604080832073ffffffffffffffffffffffffffffffffffffffff8681168086529184529382902080547fffffffffffffffffffffffffffffffffffffffffffffffffffffffffffffff00169055815187815292830152918316918101919091527ff6391f5c32d9c69d2a47ea670b442974b53935d1edc7fd64eb21e047a839171b90606001611f2b565b5f61305a868587613b8c565b9050815f5b81811461325f575f85858381811061307957613079614ae2565b602090810292909201355f818152928c905260409092205491925081905073ffffffffffffffffffffffffffffffffffffffff168873ffffffffffffffffffffffffffffffffffffffff161461312b576040517f08c379a000000000000000000000000000000000000000000000000000000000815260206004820152601760248201527f4552433732313a206e6f6e2d6f776e656420746f6b656e0000000000000000006044820152606401610a64565b846131e3577401000000000000000000000000000000000000000081161515801561317d57505f82815260028b01602052604090205473ffffffffffffffffffffffffffffffffffffffff8a81169116145b6131e3576040517f08c379a000000000000000000000000000000000000000000000000000000000815260206004820152601b60248201527f4552433732313a206e6f6e2d617070726f7665642073656e64657200000000006044820152606401610a64565b5f82815260208b905260408082207fdead00000000000000000000000000000000000000000000000000000000000090555183919073ffffffffffffffffffffffffffffffffffffffff8b16907fddf252ad1be2c89b69c2b068fc378daa952ba7f163c4a11628f55a4df523b3ef908390a4505060010161305f565b508015612e8c5773ffffffffffffffffffffffffffffffffffffffff85165f90815260018801602052604090208054829003905550505050505050565b825473ffffffffffffffffffffffffffffffffffffffff9081169083168114613321576040517f08c379a000000000000000000000000000000000000000000000000000000000815260206004820152601860248201527f4f776e6572736869703a206e6f7420746865206f776e657200000000000000006044820152606401610a64565b8173ffffffffffffffffffffffffffffffffffffffff168173ffffffffffffffffffffffffffffffffffffffff16146108475783547fffffffffffffffffffffffff00000000000000000000000000000000000000001673ffffffffffffffffffffffffffffffffffffffff8381169182178655604051908316907f8be0079c531659141344cd1fd0a4f28419497f9722a3daafe3b4186f6b6457e0905f90a350505050565b73ffffffffffffffffffffffffffffffffffffffff8316613444576040517f08c379a000000000000000000000000000000000000000000000000000000000815260206004820152601e60248201527f4552433732313a207472616e7366657220746f206164647265737328302900006044820152606401610a64565b5f613450878688613b8c565b9050815f5b8181146136b5575f85858381811061346f5761346f614ae2565b602090810292909201355f818152928d90526040909220549192505073ffffffffffffffffffffffffffffffffffffffff8116613508576040517f08c379a000000000000000000000000000000000000000000000000000000000815260206004820152601a60248201527f4552433732313a206e6f6e2d6578697374696e6720746f6b656e0000000000006044820152606401610a64565b73ffffffffffffffffffffffffffffffffffffffff89168173ffffffffffffffffffffffffffffffffffffffff161461359d576040517f08c379a000000000000000000000000000000000000000000000000000000000815260206004820152601760248201527f4552433732313a206e6f6e2d6f776e656420746f6b656e0000000000000000006044820152606401610a64565b8461365557740100000000000000000000000000000000000000008116151580156135ef57505f82815260028c01602052604090205473ffffffffffffffffffffffffffffffffffffffff8b81169116145b613655576040517f08c379a000000000000000000000000000000000000000000000000000000000815260206004820152601b60248201527f4552433732313a206e6f6e2d617070726f7665642073656e64657200000000006044820152606401610a64565b5f82815260208c9052604080822073ffffffffffffffffffffffffffffffffffffffff808c16918290559151859391928d16917fddf252ad1be2c89b69c2b068fc378daa952ba7f163c4a11628f55a4df523b3ef91a45050600101613455565b508473ffffffffffffffffffffffffffffffffffffffff168673ffffffffffffffffffffffffffffffffffffffff16141580156136f157508015155b15610b055773ffffffffffffffffffffffffffffffffffffffff8087165f90815260018a016020526040808220805485900390559187168152208054820190555050505050505050565b804710156137a5576040517f08c379a000000000000000000000000000000000000000000000000000000000815260206004820152601d60248201527f416464726573733a20696e73756666696369656e742062616c616e63650000006044820152606401610a64565b5f8273ffffffffffffffffffffffffffffffffffffffff16826040515f6040518083038185875af1925050503d805f81146137fb576040519150601f19603f3d011682016040523d82523d5f602084013e613800565b606091505b505090508061089c576040517f08c379a000000000000000000000000000000000000000000000000000000000815260206004820152603a60248201527f416464726573733a20756e61626c6520746f2073656e642076616c75652c207260448201527f6563697069656e74206d617920686176652072657665727465640000000000006064820152608401610a64565b6060815f0180546138a190614b7c565b80601f01602080910402602001604051908101604052809291908181526020018280546138cd90614b7c565b80156139185780601f106138ef57610100808354040283529160200191613918565b820191905f5260205f20905b8154815290600101906020018083116138fb57829003601f168201915b50505050509050919050565b815473ffffffffffffffffffffffffffffffffffffffff16801580159061396157505f8173ffffffffffffffffffffffffffffffffffffffff163b115b1561089c576040517fc617113400000000000000000000000000000000000000000000000000000000815230600482015273ffffffffffffffffffffffffffffffffffffffff838116602483015282169063c617113490604401602060405180830381865afa1580156139d6573d5f803e3d5ffd5b505050506040513d601f19601f820116820180604052508101906139fa9190614e9e565b61089c576040517fede71dcc00000000000000000000000000000000000000000000000000000000815273ffffffffffffffffffffffffffffffffffffffff83166004820152602401610a64565b5f33321480613a575750601836105b15613a6157503390565b7fffffffffffffffffffffffffffffffffffffffffffffffffffffffffffffffec36013560601c7f000000000000000000000000000000000000000000000000000000000000000073ffffffffffffffffffffffffffffffffffffffff16331480613b7b57506040517f8929a8ca00000000000000000000000000000000000000000000000000000000815273ffffffffffffffffffffffffffffffffffffffff82811660048301523360248301527f00000000000000000000000000000000000000000000000000000000000000001690638929a8ca90604401602060405180830381865afa158015613b57573d5f803e3d5ffd5b505050506040513d601f19601f82011682018060405250810190613b7b9190614e9e565b15613b8557919050565b3391505090565b5f8173ffffffffffffffffffffffffffffffffffffffff168373ffffffffffffffffffffffffffffffffffffffff16148061259657505073ffffffffffffffffffffffffffffffffffffffff9182165f908152600393909301602090815260408085209290931684525290205460ff1690565b815482908211613c6b576040517f08c379a000000000000000000000000000000000000000000000000000000000815260206004820152601660248201527f53746f726167653a2070686173652072656163686564000000000000000000006044820152606401610a64565b5550565b73ffffffffffffffffffffffffffffffffffffffff811615613cf65781547fffffffffffffffffffffffff00000000000000000000000000000000000000001673ffffffffffffffffffffffffffffffffffffffff821690811783556040515f907f8be0079c531659141344cd1fd0a4f28419497f9722a3daafe3b4186f6b6457e0908290a35b61071c7f7f5828d00000000000000000000000000000000000000000000000000000000060016116fe61113e565b7c01000000000000000000000000000000000000000000000000000000007fffffffff00000000000000000000000000000000000000000000000000000000831601613dcc576040517f08c379a000000000000000000000000000000000000000000000000000000000815260206004820152601f60248201527f496e74657266616365446574656374696f6e3a2077726f6e672076616c7565006044820152606401610a64565b7fffffffff00000000000000000000000000000000000000000000000000000000919091165f908152602092909252604090912080547fffffffffffffffffffffffffffffffffffffffffffffffffffffffffffffff0016911515919091179055565b365f33321480613e3f5750601836105b15613e4c57505f91369150565b3373ffffffffffffffffffffffffffffffffffffffff7f0000000000000000000000000000000000000000000000000000000000000000161480613f7f575073ffffffffffffffffffffffffffffffffffffffff7f000000000000000000000000000000000000000000000000000000000000000016638929a8ca367fffffffffffffffffffffffffffffffffffffffffffffffffffffffffffffffec013560601c6040517fffffffff0000000000000000000000000000000000000000000000000000000060e084901b16815273ffffffffffffffffffffffffffffffffffffffff9091166004820152336024820152604401602060405180830381865afa158015613f5b573d5f803e3d5ffd5b505050506040513d601f19601f82011682018060405250810190613f7f9190614e9e565b15613f8c576108ab614360565b505f91369150565b60605f829003613fb157505060408051602081019091525f815290565b5f82604051602001613fc591815260200190565b604080517fffffffffffffffffffffffffffffffffffffffffffffffffffffffffffffffe08184030181529190529050601f5b81818151811061400a5761400a614ae2565b01602001517fff00000000000000000000000000000000000000000000000000000000000000165f0361405e577fffffffffffffffffffffffffffffffffffffffffffffffffffffffffffffffff01613ff8565b5f8160010167ffffffffffffffff81111561407b5761407b614b4f565b6040519080825280601f01601f1916602001820160405280156140a5576020820181803683370190505b5090505f5b828111614116578381815181106140c3576140c3614ae2565b602001015160f81c60f81b8282815181106140e0576140e0614ae2565b60200101907effffffffffffffffffffffffffffffffffffffffffffffffffffffffffffff191690815f1a9053506001016140aa565b50949350505050565b6040517f150b7a02000000000000000000000000000000000000000000000000000000008082529073ffffffffffffffffffffffffffffffffffffffff85169063150b7a0290614179908990899088908890600401614eb9565b6020604051808303815f875af1158015614195573d5f803e3d5ffd5b505050506040513d601f19601f820116820180604052508101906141b99190614f01565b7fffffffff000000000000000000000000000000000000000000000000000000001614611052576040517f08c379a000000000000000000000000000000000000000000000000000000000815260206004820152601e60248201527f4552433732313a2073616665207472616e736665722072656a656374656400006044820152606401610a64565b5f6142a3826040518060400160405280602081526020017f5361666545524332303a206c6f772d6c6576656c2063616c6c206661696c65648152508573ffffffffffffffffffffffffffffffffffffffff166143909092919063ffffffff16565b905080515f14806142c35750808060200190518101906142c39190614e9e565b61089c576040517f08c379a000000000000000000000000000000000000000000000000000000000815260206004820152602a60248201527f5361666545524332303a204552433230206f7065726174696f6e20646964206e60448201527f6f742073756363656564000000000000000000000000000000000000000000006064820152608401610a64565b60608160010180546138a190614b7c565b365f6108ab7fffffffffffffffffffffffffffffffffffffffffffffffffffffffffffffffec8301828481614f1c565b606061259684845f85855f808673ffffffffffffffffffffffffffffffffffffffff1685876040516143c29190614f43565b5f6040518083038185875af1925050503d805f81146143fc576040519150601f19603f3d011682016040523d82523d5f602084013e614401565b606091505b50915091506144128783838761441d565b979650505050505050565b606083156144b25782515f036144ab5773ffffffffffffffffffffffffffffffffffffffff85163b6144ab576040517f08c379a000000000000000000000000000000000000000000000000000000000815260206004820152601d60248201527f416464726573733a2063616c6c20746f206e6f6e2d636f6e74726163740000006044820152606401610a64565b5081612596565b61259683838151156144c75781518083602001fd5b806040517f08c379a0000000000000000000000000000000000000000000000000000000008152600401610a6491906145ae565b7fffffffff000000000000000000000000000000000000000000000000000000008116811461080d575f80fd5b5f60208284031215614538575f80fd5b8135610c4d816144fb565b5f5b8381101561455d578181015183820152602001614545565b50505f910152565b5f815180845261457c816020860160208601614543565b601f017fffffffffffffffffffffffffffffffffffffffffffffffffffffffffffffffe0169290920160200192915050565b602081525f610c4d6020830184614565565b5f602082840312156145d0575f80fd5b5035919050565b73ffffffffffffffffffffffffffffffffffffffff8116811461080d575f80fd5b5f8060408385031215614609575f80fd5b8235614614816145d7565b946020939093013593505050565b5f8083601f840112614632575f80fd5b50813567ffffffffffffffff811115614649575f80fd5b602083019150836020828501011115610868575f80fd5b5f805f805f8060808789031215614675575f80fd5b863567ffffffffffffffff8082111561468c575f80fd5b6146988a838b01614622565b909850965060208901359150808211156146b0575f80fd5b506146bd89828a01614622565b90955093505060408701356146d1816145d7565b915060608701356146e1816145d7565b809150509295509295509295565b5f602082840312156146ff575f80fd5b8135610c4d816145d7565b5f805f6060848603121561471c575f80fd5b8335614727816145d7565b92506020840135614737816145d7565b929592945050506040919091013590565b5f8060408385031215614759575f80fd5b50508035926020909101359150565b5f8060408385031215614779575f80fd5b82359150602083013561478b816145d7565b809150509250929050565b60208152816020820152818360408301375f818301604090810191909152601f9092017fffffffffffffffffffffffffffffffffffffffffffffffffffffffffffffffe0160101919050565b5f8083601f8401126147f2575f80fd5b50813567ffffffffffffffff811115614809575f80fd5b6020830191508360208260051b8501011115610868575f80fd5b5f805f60408486031215614835575f80fd5b8335614840816145d7565b9250602084013567ffffffffffffffff81111561485b575f80fd5b614867868287016147e2565b9497909650939450505050565b5f805f805f8060608789031215614889575f80fd5b863567ffffffffffffffff808211156148a0575f80fd5b6148ac8a838b016147e2565b909850965060208901359150808211156148c4575f80fd5b6148d08a838b016147e2565b909650945060408901359150808211156148e8575f80fd5b506148f589828a016147e2565b979a9699509497509295939492505050565b5f805f806060858703121561491a575f80fd5b8435614925816145d7565b935060208501359250604085013567ffffffffffffffff811115614947575f80fd5b61495387828801614622565b95989497509550505050565b5f805f8060408587031215614972575f80fd5b843567ffffffffffffffff80821115614989575f80fd5b614995888389016147e2565b909650945060208701359150808211156149ad575f80fd5b50614953878288016147e2565b801515811461080d575f80fd5b5f80604083850312156149d8575f80fd5b82356149e3816145d7565b9150602083013561478b816149ba565b5f805f805f60808688031215614a07575f80fd5b8535614a12816145d7565b94506020860135614a22816145d7565b935060408601359250606086013567ffffffffffffffff811115614a44575f80fd5b614a5088828901614622565b969995985093965092949392505050565b5f8060408385031215614a72575f80fd5b8235614a7d816145d7565b9150602083013561478b816145d7565b5f805f8060608587031215614aa0575f80fd5b8435614aab816145d7565b93506020850135614abb816145d7565b9250604085013567ffffffffffffffff811115614ad6575f80fd5b614953878288016147e2565b7f4e487b71000000000000000000000000000000000000000000000000000000005f52603260045260245ffd5b7f4e487b71000000000000000000000000000000000000000000000000000000005f52601160045260245ffd5b818103818111156106a9576106a9614b0f565b7f4e487b71000000000000000000000000000000000000000000000000000000005f52604160045260245ffd5b600181811c90821680614b9057607f821691505b602082108103614bc7577f4e487b71000000000000000000000000000000000000000000000000000000005f52602260045260245ffd5b50919050565b601f82111561089c575f81815260208120601f850160051c81016020861015614bf35750805b601f850160051c820191505b8181101561079d57828155600101614bff565b67ffffffffffffffff831115614c2a57614c2a614b4f565b614c3e83614c388354614b7c565b83614bcd565b5f601f841160018114614c8e575f8515614c585750838201355b7fffffffffffffffffffffffffffffffffffffffffffffffffffffffffffffffff600387901b1c1916600186901b178355611052565b5f838152602090207fffffffffffffffffffffffffffffffffffffffffffffffffffffffffffffffe0861690835b82811015614cdc5786850135825560209485019460019092019101614cbc565b5086821015614d17577fffffffffffffffffffffffffffffffffffffffffffffffffffffffffffffffff60f88860031b161c19848701351681555b505060018560011b0183555050505050565b80820281158282048414176106a9576106a9614b0f565b5f82614d73577f4e487b71000000000000000000000000000000000000000000000000000000005f52601260045260245ffd5b500490565b7f416363657373436f6e74726f6c3a206d697373696e672027000000000000000081525f8251614daf816018850160208701614543565b7f2720726f6c6500000000000000000000000000000000000000000000000000006018939091019283015250601e01919050565b5f60208284031215614df3575f80fd5b815167ffffffffffffffff80821115614e0a575f80fd5b818401915084601f830112614e1d575f80fd5b815181811115614e2f57614e2f614b4f565b604051601f82017fffffffffffffffffffffffffffffffffffffffffffffffffffffffffffffffe0908116603f01168101908382118183101715614e7557614e75614b4f565b81604052828152876020848701011115614e8d575f80fd5b614412836020830160208801614543565b5f60208284031215614eae575f80fd5b8151610c4d816149ba565b5f73ffffffffffffffffffffffffffffffffffffffff808716835280861660208401525083604083015260806060830152614ef76080830184614565565b9695505050505050565b5f60208284031215614f11575f80fd5b8151610c4d816144fb565b5f8085851115614f2a575f80fd5b83861115614f36575f80fd5b5050820193919092039150565b5f8251614f54818460208701614543565b919091019291505056fea2646970667358221220f54fef4be543ad862cbc695ac3ab1f2f437fbd2ec0db3ad926e6801e7651610864736f6c63430008150033",
  "linkReferences": {},
  "deployedLinkReferences": {}
}