{
  "_format": "hh-sol-artifact-1",
  "contractName": "ERC721BurnableFacet",
  "sourceName": "contracts/token/ERC721/facets/ERC721BurnableFacet.sol",
  "abi": [
    {
      "inputs": [
        {
          "internalType": "contract IForwarderRegistry",
          "name": "forwarderRegistry",
          "type": "address"
        }
      ],
      "stateMutability": "nonpayable",
      "type": "constructor"
    },
    {
      "inputs": [
        {
          "internalType": "address",
          "name": "sender",
          "type": "address"
        },
        {
          "internalType": "address",
          "name": "owner",
          "type": "address"
        },
        {
          "internalType": "uint256",
          "name": "tokenId",
          "type": "uint256"
        }
      ],
      "name": "ERC721NonApprovedForTransfer",
      "type": "error"
    },
    {
      "inputs": [
        {
          "internalType": "uint256",
          "name": "tokenId",
          "type": "uint256"
        }
      ],
      "name": "ERC721NonExistingToken",
      "type": "error"
    },
    {
      "inputs": [
        {
          "internalType": "address",
          "name": "account",
          "type": "address"
        },
        {
          "internalType": "uint256",
          "name": "tokenId",
          "type": "uint256"
        }
      ],
      "name": "ERC721NonOwnedToken",
      "type": "error"
    },
    {
      "inputs": [],
      "name": "IllegalInterfaceId",
      "type": "error"
    },
    {
      "inputs": [
        {
          "internalType": "address",
          "name": "account",
          "type": "address"
        }
      ],
      "name": "NotProxyAdmin",
      "type": "error"
    },
    {
      "anonymous": false,
      "inputs": [
        {
          "indexed": true,
          "internalType": "address",
          "name": "owner",
          "type": "address"
        },
        {
          "indexed": true,
          "internalType": "address",
          "name": "approved",
          "type": "address"
        },
        {
          "indexed": true,
          "internalType": "uint256",
          "name": "tokenId",
          "type": "uint256"
        }
      ],
      "name": "Approval",
      "type": "event"
    },
    {
      "anonymous": false,
      "inputs": [
        {
          "indexed": true,
          "internalType": "address",
          "name": "owner",
          "type": "address"
        },
        {
          "indexed": true,
          "internalType": "address",
          "name": "operator",
          "type": "address"
        },
        {
          "indexed": false,
          "internalType": "bool",
          "name": "approved",
          "type": "bool"
        }
      ],
      "name": "ApprovalForAll",
      "type": "event"
    },
    {
      "anonymous": false,
      "inputs": [
        {
          "indexed": true,
          "internalType": "address",
          "name": "from",
          "type": "address"
        },
        {
          "indexed": true,
          "internalType": "address",
          "name": "to",
          "type": "address"
        },
        {
          "indexed": true,
          "internalType": "uint256",
          "name": "tokenId",
          "type": "uint256"
        }
      ],
      "name": "Transfer",
      "type": "event"
    },
    {
      "inputs": [
        {
          "internalType": "address",
          "name": "from",
          "type": "address"
        },
        {
          "internalType": "uint256[]",
          "name": "tokenIds",
          "type": "uint256[]"
        }
      ],
      "name": "batchBurnFrom",
      "outputs": [],
      "stateMutability": "nonpayable",
      "type": "function"
    },
    {
      "inputs": [
        {
          "internalType": "address",
          "name": "from",
          "type": "address"
        },
        {
          "internalType": "uint256",
          "name": "tokenId",
          "type": "uint256"
        }
      ],
      "name": "burnFrom",
      "outputs": [],
      "stateMutability": "nonpayable",
      "type": "function"
    },
    {
      "inputs": [],
      "name": "initERC721BurnableStorage",
      "outputs": [],
      "stateMutability": "nonpayable",
      "type": "function"
    }
  ],
  "bytecode": "0x60a060405234801561000f575f80fd5b50604051610b96380380610b9683398101604081905261002e9161003f565b6001600160a01b031660805261006c565b5f6020828403121561004f575f80fd5b81516001600160a01b0381168114610065575f80fd5b9392505050565b608051610b0b61008b5f395f81816106fb01526107830152610b0b5ff3fe608060405234801561000f575f80fd5b506004361061003f575f3560e01c806379cc679014610043578063de81581114610058578063f247296514610060575b5f80fd5b6100566100513660046109a3565b610073565b005b610056610094565b61005661006e3660046109cb565b6100b7565b61009061007e6100db565b83836100886100e9565b92919061011c565b5050565b6100ad61009f6100db565b6100a7610368565b90610395565b6100b5610400565b565b6100d66100c26100db565b8484846100cd6100e9565b93929190610435565b505050565b5f6100e46106b9565b905090565b5f8061011660017fddf3ee18ae6d688373c219468f8be446e7ae82215f4779d821c7ea5e8c13c0c1610a4a565b92915050565b5f8181526020859052604090205473ffffffffffffffffffffffffffffffffffffffff811661017f576040517fdd560475000000000000000000000000000000000000000000000000000000008152600481018390526024015b60405180910390fd5b73ffffffffffffffffffffffffffffffffffffffff83168173ffffffffffffffffffffffffffffffffffffffff1614610203576040517f14dbb53600000000000000000000000000000000000000000000000000000000815273ffffffffffffffffffffffffffffffffffffffff8416600482015260248101839052604401610176565b61020e8584866107fd565b6102bc57740100000000000000000000000000000000000000008116158061025e57505f82815260028601602052604090205473ffffffffffffffffffffffffffffffffffffffff858116911614155b156102bc576040517fa4a3018b00000000000000000000000000000000000000000000000000000000815273ffffffffffffffffffffffffffffffffffffffff80861660048301528416602482015260448101839052606401610176565b5f828152602086815260408083207fdead000000000000000000000000000000000000000000000000000000000000905573ffffffffffffffffffffffffffffffffffffffff86168084526001890190925280832080547fffffffffffffffffffffffffffffffffffffffffffffffffffffffffffffffff01905551849291907fddf252ad1be2c89b69c2b068fc378daa952ba7f163c4a11628f55a4df523b3ef908390a45050505050565b5f8061011660017fb53127684a568b3173ae13b9f8a6016e243e63b6e8ee1178d6a717850b5d6104610a4a565b815473ffffffffffffffffffffffffffffffffffffffff828116911614610090576040517f673a31a100000000000000000000000000000000000000000000000000000000815273ffffffffffffffffffffffffffffffffffffffff82166004820152602401610176565b6100b57f8b8b4ef500000000000000000000000000000000000000000000000000000000600161042e610873565b91906108a0565b5f6104418685876107fd565b9050815f5b81811461067b575f85858381811061046057610460610a82565b602090810292909201355f818152928c90526040909220549192505073ffffffffffffffffffffffffffffffffffffffff81166104cc576040517fdd56047500000000000000000000000000000000000000000000000000000000815260048101839052602401610176565b73ffffffffffffffffffffffffffffffffffffffff88168173ffffffffffffffffffffffffffffffffffffffff1614610550576040517f14dbb53600000000000000000000000000000000000000000000000000000000815273ffffffffffffffffffffffffffffffffffffffff8916600482015260248101839052604401610176565b846105ff5774010000000000000000000000000000000000000000811615806105a157505f82815260028b01602052604090205473ffffffffffffffffffffffffffffffffffffffff8a8116911614155b156105ff576040517fa4a3018b00000000000000000000000000000000000000000000000000000000815273ffffffffffffffffffffffffffffffffffffffff808b1660048301528916602482015260448101839052606401610176565b5f82815260208b905260408082207fdead00000000000000000000000000000000000000000000000000000000000090555183919073ffffffffffffffffffffffffffffffffffffffff8b16907fddf252ad1be2c89b69c2b068fc378daa952ba7f163c4a11628f55a4df523b3ef908390a45050600101610446565b5080156106b05773ffffffffffffffffffffffffffffffffffffffff85165f9081526001880160205260409020805482900390555b50505050505050565b5f333214806106c85750601836105b156106d257503390565b7fffffffffffffffffffffffffffffffffffffffffffffffffffffffffffffffec36013560601c7f000000000000000000000000000000000000000000000000000000000000000073ffffffffffffffffffffffffffffffffffffffff163314806107ec57506040517f8929a8ca00000000000000000000000000000000000000000000000000000000815273ffffffffffffffffffffffffffffffffffffffff82811660048301523360248301527f00000000000000000000000000000000000000000000000000000000000000001690638929a8ca90604401602060405180830381865afa1580156107c8573d5f803e3d5ffd5b505050506040513d601f19601f820116820180604052508101906107ec9190610aaf565b156107f657919050565b3391505090565b5f8173ffffffffffffffffffffffffffffffffffffffff168373ffffffffffffffffffffffffffffffffffffffff16148061086b575073ffffffffffffffffffffffffffffffffffffffff8084165f90815260038601602090815260408083209386168352929052205460ff165b949350505050565b5f8061011660017fca9d3e17f264b0f3984e2634e94adb37fa3e6a8103f06aeae6fa59e21c769f5e610a4a565b7c01000000000000000000000000000000000000000000000000000000007fffffffff00000000000000000000000000000000000000000000000000000000831601610918576040517f72c683bb00000000000000000000000000000000000000000000000000000000815260040160405180910390fd5b7fffffffff00000000000000000000000000000000000000000000000000000000919091165f908152602092909252604090912080547fffffffffffffffffffffffffffffffffffffffffffffffffffffffffffffff0016911515919091179055565b803573ffffffffffffffffffffffffffffffffffffffff8116811461099e575f80fd5b919050565b5f80604083850312156109b4575f80fd5b6109bd8361097b565b946020939093013593505050565b5f805f604084860312156109dd575f80fd5b6109e68461097b565b9250602084013567ffffffffffffffff80821115610a02575f80fd5b818601915086601f830112610a15575f80fd5b813581811115610a23575f80fd5b8760208260051b8501011115610a37575f80fd5b6020830194508093505050509250925092565b81810381811115610116577f4e487b71000000000000000000000000000000000000000000000000000000005f52601160045260245ffd5b7f4e487b71000000000000000000000000000000000000000000000000000000005f52603260045260245ffd5b5f60208284031215610abf575f80fd5b81518015158114610ace575f80fd5b939250505056fea264697066735822122058bfa3373cde9bad540fb18e985f0dc78df1919a28d11d9ec3144c3909b50c7f64736f6c63430008150033",
  "linkReferences": {},
  "deployedLinkReferences": {}
}