{
  "_format": "hh-sol-artifact-1",
  "contractName": "ERC2981Mock",
  "sourceName": "contracts/mocks/token/royalty/ERC2981Mock.sol",
  "abi": [
    {
      "inputs": [
        {
          "internalType": "contract IForwarderRegistry",
          "name": "forwarderRegistry",
          "type": "address"
        }
      ],
      "stateMutability": "nonpayable",
      "type": "constructor"
    },
    {
      "inputs": [
        {
          "internalType": "uint256",
          "name": "percentage",
          "type": "uint256"
        }
      ],
      "name": "IncorrectRoyaltyPercentage",
      "type": "error"
    },
    {
      "inputs": [],
      "name": "IncorrectRoyaltyReceiver",
      "type": "error"
    },
    {
      "anonymous": false,
      "inputs": [
        {
          "indexed": true,
          "internalType": "address",
          "name": "previousOwner",
          "type": "address"
        },
        {
          "indexed": true,
          "internalType": "address",
          "name": "newOwner",
          "type": "address"
        }
      ],
      "name": "OwnershipTransferred",
      "type": "event"
    },
    {
      "anonymous": false,
      "inputs": [
        {
          "indexed": false,
          "internalType": "bytes32",
          "name": "role",
          "type": "bytes32"
        },
        {
          "indexed": false,
          "internalType": "address",
          "name": "account",
          "type": "address"
        },
        {
          "indexed": false,
          "internalType": "address",
          "name": "operator",
          "type": "address"
        }
      ],
      "name": "RoleGranted",
      "type": "event"
    },
    {
      "anonymous": false,
      "inputs": [
        {
          "indexed": false,
          "internalType": "bytes32",
          "name": "role",
          "type": "bytes32"
        },
        {
          "indexed": false,
          "internalType": "address",
          "name": "account",
          "type": "address"
        },
        {
          "indexed": false,
          "internalType": "address",
          "name": "operator",
          "type": "address"
        }
      ],
      "name": "RoleRevoked",
      "type": "event"
    },
    {
      "inputs": [],
      "name": "ROYALTY_FEE_DENOMINATOR",
      "outputs": [
        {
          "internalType": "uint256",
          "name": "",
          "type": "uint256"
        }
      ],
      "stateMutability": "pure",
      "type": "function"
    },
    {
      "inputs": [],
      "name": "__msgData",
      "outputs": [
        {
          "internalType": "bytes",
          "name": "",
          "type": "bytes"
        }
      ],
      "stateMutability": "view",
      "type": "function"
    },
    {
      "inputs": [],
      "name": "forwarderRegistry",
      "outputs": [
        {
          "internalType": "contract IForwarderRegistry",
          "name": "",
          "type": "address"
        }
      ],
      "stateMutability": "view",
      "type": "function"
    },
    {
      "inputs": [
        {
          "internalType": "bytes32",
          "name": "role",
          "type": "bytes32"
        },
        {
          "internalType": "address",
          "name": "account",
          "type": "address"
        }
      ],
      "name": "grantRole",
      "outputs": [],
      "stateMutability": "nonpayable",
      "type": "function"
    },
    {
      "inputs": [
        {
          "internalType": "bytes32",
          "name": "role",
          "type": "bytes32"
        },
        {
          "internalType": "address",
          "name": "account",
          "type": "address"
        }
      ],
      "name": "hasRole",
      "outputs": [
        {
          "internalType": "bool",
          "name": "",
          "type": "bool"
        }
      ],
      "stateMutability": "view",
      "type": "function"
    },
    {
      "inputs": [
        {
          "internalType": "address",
          "name": "forwarder",
          "type": "address"
        }
      ],
      "name": "isTrustedForwarder",
      "outputs": [
        {
          "internalType": "bool",
          "name": "",
          "type": "bool"
        }
      ],
      "stateMutability": "view",
      "type": "function"
    },
    {
      "inputs": [],
      "name": "owner",
      "outputs": [
        {
          "internalType": "address",
          "name": "",
          "type": "address"
        }
      ],
      "stateMutability": "view",
      "type": "function"
    },
    {
      "inputs": [
        {
          "internalType": "bytes32",
          "name": "role",
          "type": "bytes32"
        }
      ],
      "name": "renounceRole",
      "outputs": [],
      "stateMutability": "nonpayable",
      "type": "function"
    },
    {
      "inputs": [
        {
          "internalType": "bytes32",
          "name": "role",
          "type": "bytes32"
        },
        {
          "internalType": "address",
          "name": "account",
          "type": "address"
        }
      ],
      "name": "revokeRole",
      "outputs": [],
      "stateMutability": "nonpayable",
      "type": "function"
    },
    {
      "inputs": [
        {
          "internalType": "uint256",
          "name": "tokenId",
          "type": "uint256"
        },
        {
          "internalType": "uint256",
          "name": "salePrice",
          "type": "uint256"
        }
      ],
      "name": "royaltyInfo",
      "outputs": [
        {
          "internalType": "address",
          "name": "receiver",
          "type": "address"
        },
        {
          "internalType": "uint256",
          "name": "royaltyAmount",
          "type": "uint256"
        }
      ],
      "stateMutability": "view",
      "type": "function"
    },
    {
      "inputs": [
        {
          "internalType": "uint256",
          "name": "percentage",
          "type": "uint256"
        }
      ],
      "name": "setRoyaltyPercentage",
      "outputs": [],
      "stateMutability": "nonpayable",
      "type": "function"
    },
    {
      "inputs": [
        {
          "internalType": "address",
          "name": "receiver",
          "type": "address"
        }
      ],
      "name": "setRoyaltyReceiver",
      "outputs": [],
      "stateMutability": "nonpayable",
      "type": "function"
    },
    {
      "inputs": [
        {
          "internalType": "bytes4",
          "name": "interfaceId",
          "type": "bytes4"
        }
      ],
      "name": "supportsInterface",
      "outputs": [
        {
          "internalType": "bool",
          "name": "",
          "type": "bool"
        }
      ],
      "stateMutability": "view",
      "type": "function"
    },
    {
      "inputs": [
        {
          "internalType": "address",
          "name": "newOwner",
          "type": "address"
        }
      ],
      "name": "transferOwnership",
      "outputs": [],
      "stateMutability": "nonpayable",
      "type": "function"
    }
  ],
  "bytecode": "0x60a06040523480156200001157600080fd5b50604051620019243803806200192483398101604081905262000034916200023e565b8080336200006581620000516200009060201b620004481760201c565b620000c660201b620004761790919060201c565b506200007b6200015960201b620005371760201c565b6001600160a01b031660805250620002929050565b600080620000c060017fc9ed16f33ab3a66c84bfd83099ccb2a8845871e2e1c1928f63797152f0fd54cd62000270565b92915050565b6001600160a01b038116156200011d5781546001600160a01b0319166001600160a01b03821690811783556040516000907f8be0079c531659141344cd1fd0a4f28419497f9722a3daafe3b4186f6b6457e0908290a35b620001556307f5828d60e41b6001620001406200017e60201b620005671760201c565b620001ae60201b62000595179092919060201c565b5050565b6200017c63152a902d60e11b6001620001406200017e60201b620005671760201c565b565b600080620000c060017fca9d3e17f264b0f3984e2634e94adb37fa3e6a8103f06aeae6fa59e21c769f5e62000270565b600160e01b6001600160e01b0319831601620002105760405162461bcd60e51b815260206004820152601f60248201527f496e74657266616365446574656374696f6e3a2077726f6e672076616c756500604482015260640160405180910390fd5b6001600160e01b03199190911660009081526020929092526040909120805460ff1916911515919091179055565b6000602082840312156200025157600080fd5b81516001600160a01b03811681146200026957600080fd5b9392505050565b81810381811115620000c057634e487b7160e01b600052601160045260246000fd5b608051611653620002d160003960008181610158015281816101d801528181610de701528181610e6f01528181610f220152610f6001526116536000f3fe608060405234801561001057600080fd5b50600436106100ea5760003560e01c80638bb9c5bf1161008c57806391d148541161006657806391d1485414610256578063d547741f14610269578063e1a8bf2c1461027c578063f2fde38b1461028d57600080fd5b80638bb9c5bf146102285780638da5cb5b1461023b5780638dc251e31461024357600080fd5b80632f2ff15d116100c85780632f2ff15d1461019d57806331e66e1e146101b2578063572b6c05146101c857806361ba27da1461021557600080fd5b806301ffc9a7146100ef5780632a55205a146101175780632b4c9f1614610156575b600080fd5b6101026100fd3660046112c4565b6102a0565b60405190151581526020015b60405180910390f35b61012a610125366004611306565b6102ba565b6040805173ffffffffffffffffffffffffffffffffffffffff909316835260208301919091520161010e565b7f00000000000000000000000000000000000000000000000000000000000000005b60405173ffffffffffffffffffffffffffffffffffffffff909116815260200161010e565b6101b06101ab366004611351565b6102dc565b005b6101ba610315565b60405161010e92919061137d565b6101026101d63660046113ca565b7f000000000000000000000000000000000000000000000000000000000000000073ffffffffffffffffffffffffffffffffffffffff90811691161490565b6101b06102233660046113e5565b610328565b6101b06102363660046113e5565b610350565b61017861036b565b6101b06102513660046113ca565b610397565b610102610264366004611351565b6103b4565b6101b0610277366004611351565b6103ff565b604051620186a0815260200161010e565b6101b061029b3660046113ca565b61042d565b60006102b4826102ae610567565b906106a6565b92915050565b6000806102d184846102ca610780565b91906107ae565b915091509250929050565b60006102e6610858565b90506102fa816102f4610448565b90610862565b6103108383836103086108e5565b929190610913565b505050565b3660006103206109ea565b915091509091565b61033b610333610858565b6102f4610448565b61034d81610347610780565b906109f5565b50565b61034d61035b610858565b826103646108e5565b9190610a7b565b6000610392610378610448565b5473ffffffffffffffffffffffffffffffffffffffff1690565b905090565b6103a2610333610858565b61034d816103ae610780565b90610b1f565b60006103f883836103c36108e5565b60009283526020908152604080842073ffffffffffffffffffffffffffffffffffffffff909316845291905290205460ff1690565b9392505050565b6000610409610858565b9050610417816102f4610448565b6103108383836104256108e5565b929190610bae565b61034d610438610858565b82610441610448565b9190610c78565b6000806102b460017fc9ed16f33ab3a66c84bfd83099ccb2a8845871e2e1c1928f63797152f0fd54cd61142d565b73ffffffffffffffffffffffffffffffffffffffff8116156104fe5781547fffffffffffffffffffffffff00000000000000000000000000000000000000001673ffffffffffffffffffffffffffffffffffffffff821690811783556040516000907f8be0079c531659141344cd1fd0a4f28419497f9722a3daafe3b4186f6b6457e0908290a35b6105337f7f5828d000000000000000000000000000000000000000000000000000000000600161052c610567565b9190610595565b5050565b6105657f2a55205a00000000000000000000000000000000000000000000000000000000600161052c610567565b565b6000806102b460017fca9d3e17f264b0f3984e2634e94adb37fa3e6a8103f06aeae6fa59e21c769f5e61142d565b7c01000000000000000000000000000000000000000000000000000000007fffffffff00000000000000000000000000000000000000000000000000000000831601610642576040517f08c379a000000000000000000000000000000000000000000000000000000000815260206004820152601f60248201527f496e74657266616365446574656374696f6e3a2077726f6e672076616c75650060448201526064015b60405180910390fd5b7fffffffff00000000000000000000000000000000000000000000000000000000919091166000908152602092909252604090912080547fffffffffffffffffffffffffffffffffffffffffffffffffffffffffffffff0016911515919091179055565b60007c01000000000000000000000000000000000000000000000000000000007fffffffff000000000000000000000000000000000000000000000000000000008316016106f6575060006102b4565b7ffe003659000000000000000000000000000000000000000000000000000000007fffffffff00000000000000000000000000000000000000000000000000000000831601610747575060016102b4565b507fffffffff00000000000000000000000000000000000000000000000000000000166000908152602091909152604090205460ff1690565b6000806102b460017f7279af4e82b002cd853124ecd1155758bb83729208e83bbb0dffebc4636ba25161142d565b825473ffffffffffffffffffffffffffffffffffffffff8116906000907401000000000000000000000000000000000000000090046bffffffffffffffffffffffff168315806107fc575080155b1561080a576000915061084f565b620186a084101561083457620186a06108238286611440565b61082d9190611457565b915061084f565b80610842620186a086611457565b61084c9190611440565b91505b50935093915050565b6000610392610da4565b815473ffffffffffffffffffffffffffffffffffffffff828116911614610533576040517f08c379a000000000000000000000000000000000000000000000000000000000815260206004820152601860248201527f4f776e6572736869703a206e6f7420746865206f776e657200000000000000006044820152606401610639565b6000806102b460017fc8827d3282af6f37b64c3e9e6f3ac9df286ab0bb0fccd6f8661bf19adb368b2361142d565b60008381526020858152604080832073ffffffffffffffffffffffffffffffffffffffff8616845290915290205460ff166109e45760008381526020858152604080832073ffffffffffffffffffffffffffffffffffffffff8681168086529184529382902080547fffffffffffffffffffffffffffffffffffffffffffffffffffffffffffffff00166001179055815187815292830152918316918101919091527f2f8788117e7eff1d82e926ec794901d17c78024a50270940304540a733656f0d906060015b60405180910390a15b50505050565b366000610320610eeb565b620186a0811115610a35576040517f3affc6c400000000000000000000000000000000000000000000000000000000815260048101829052602401610639565b81546bffffffffffffffffffffffff909116740100000000000000000000000000000000000000000273ffffffffffffffffffffffffffffffffffffffff909116179055565b610a86838284611055565b60008181526020848152604080832073ffffffffffffffffffffffffffffffffffffffff86168085529083529281902080547fffffffffffffffffffffffffffffffffffffffffffffffffffffffffffffff0016905580518481529182018390528101919091527ff6391f5c32d9c69d2a47ea670b442974b53935d1edc7fd64eb21e047a839171b9060600160405180910390a1505050565b73ffffffffffffffffffffffffffffffffffffffff8116610b6c576040517f6fe1b4c800000000000000000000000000000000000000000000000000000000815260040160405180910390fd5b81547fffffffffffffffffffffffff00000000000000000000000000000000000000001673ffffffffffffffffffffffffffffffffffffffff91909116179055565b60008381526020858152604080832073ffffffffffffffffffffffffffffffffffffffff8616845290915290205460ff16156109e45760008381526020858152604080832073ffffffffffffffffffffffffffffffffffffffff8681168086529184529382902080547fffffffffffffffffffffffffffffffffffffffffffffffffffffffffffffff00169055815187815292830152918316918101919091527ff6391f5c32d9c69d2a47ea670b442974b53935d1edc7fd64eb21e047a839171b906060016109db565b825473ffffffffffffffffffffffffffffffffffffffff9081169083168114610cfd576040517f08c379a000000000000000000000000000000000000000000000000000000000815260206004820152601860248201527f4f776e6572736869703a206e6f7420746865206f776e657200000000000000006044820152606401610639565b8173ffffffffffffffffffffffffffffffffffffffff168173ffffffffffffffffffffffffffffffffffffffff16146109e45783547fffffffffffffffffffffffff00000000000000000000000000000000000000001673ffffffffffffffffffffffffffffffffffffffff8381169182178655604051908316907f8be0079c531659141344cd1fd0a4f28419497f9722a3daafe3b4186f6b6457e090600090a350505050565b600033321480610db45750601836105b15610dbe57503390565b7fffffffffffffffffffffffffffffffffffffffffffffffffffffffffffffffec36013560601c7f000000000000000000000000000000000000000000000000000000000000000073ffffffffffffffffffffffffffffffffffffffff16331480610eda57506040517f8929a8ca00000000000000000000000000000000000000000000000000000000815273ffffffffffffffffffffffffffffffffffffffff82811660048301523360248301527f00000000000000000000000000000000000000000000000000000000000000001690638929a8ca90604401602060405180830381865afa158015610eb6573d6000803e3d6000fd5b505050506040513d601f19601f82011682018060405250810190610eda9190611492565b15610ee457919050565b3391505090565b36600033321480610efc5750601836105b15610f0a5750600091369150565b3373ffffffffffffffffffffffffffffffffffffffff7f000000000000000000000000000000000000000000000000000000000000000016148061103f575073ffffffffffffffffffffffffffffffffffffffff7f000000000000000000000000000000000000000000000000000000000000000016638929a8ca367fffffffffffffffffffffffffffffffffffffffffffffffffffffffffffffffec013560601c6040517fffffffff0000000000000000000000000000000000000000000000000000000060e084901b16815273ffffffffffffffffffffffffffffffffffffffff9091166004820152336024820152604401602060405180830381865afa15801561101b573d6000803e3d6000fd5b505050506040513d601f19601f8201168201806040525081019061103f9190611492565b1561104c57610320611101565b50600091369150565b60008281526020848152604080832073ffffffffffffffffffffffffffffffffffffffff8516845290915290205460ff166103105761109382611132565b6040516020016110a391906114d8565b604080517fffffffffffffffffffffffffffffffffffffffffffffffffffffffffffffffe0818403018152908290527f08c379a000000000000000000000000000000000000000000000000000000000825261063991600401611544565b3660006103207fffffffffffffffffffffffffffffffffffffffffffffffffffffffffffffffec8301828481611595565b6060600082900361115157505060408051602081019091526000815290565b60008260405160200161116691815260200190565b604080517fffffffffffffffffffffffffffffffffffffffffffffffffffffffffffffffe08184030181529190529050601f5b8181815181106111ab576111ab6115bf565b01602001517fff0000000000000000000000000000000000000000000000000000000000000016600003611200577fffffffffffffffffffffffffffffffffffffffffffffffffffffffffffffffff01611199565b60008160010167ffffffffffffffff81111561121e5761121e6115ee565b6040519080825280601f01601f191660200182016040528015611248576020820181803683370190505b50905060005b8281116112bb57838181518110611267576112676115bf565b602001015160f81c60f81b828281518110611284576112846115bf565b60200101907effffffffffffffffffffffffffffffffffffffffffffffffffffffffffffff1916908160001a90535060010161124e565b50949350505050565b6000602082840312156112d657600080fd5b81357fffffffff00000000000000000000000000000000000000000000000000000000811681146103f857600080fd5b6000806040838503121561131957600080fd5b50508035926020909101359150565b803573ffffffffffffffffffffffffffffffffffffffff8116811461134c57600080fd5b919050565b6000806040838503121561136457600080fd5b8235915061137460208401611328565b90509250929050565b60208152816020820152818360408301376000818301604090810191909152601f9092017fffffffffffffffffffffffffffffffffffffffffffffffffffffffffffffffe0160101919050565b6000602082840312156113dc57600080fd5b6103f882611328565b6000602082840312156113f757600080fd5b5035919050565b7f4e487b7100000000000000000000000000000000000000000000000000000000600052601160045260246000fd5b818103818111156102b4576102b46113fe565b80820281158282048414176102b4576102b46113fe565b60008261148d577f4e487b7100000000000000000000000000000000000000000000000000000000600052601260045260246000fd5b500490565b6000602082840312156114a457600080fd5b815180151581146103f857600080fd5b60005b838110156114cf5781810151838201526020016114b7565b50506000910152565b7f416363657373436f6e74726f6c3a206d697373696e67202700000000000000008152600082516115108160188501602087016114b4565b7f2720726f6c6500000000000000000000000000000000000000000000000000006018939091019283015250601e01919050565b60208152600082518060208401526115638160408501602087016114b4565b601f017fffffffffffffffffffffffffffffffffffffffffffffffffffffffffffffffe0169190910160400192915050565b600080858511156115a557600080fd5b838611156115b257600080fd5b5050820193919092039150565b7f4e487b7100000000000000000000000000000000000000000000000000000000600052603260045260246000fd5b7f4e487b7100000000000000000000000000000000000000000000000000000000600052604160045260246000fdfea26469706673582212207a6f3aaa5649d8e32621842f2dcf9b870db57c40b612c4b35936b5ed38ad1a7464736f6c63430008110033",
  "linkReferences": {},
  "deployedLinkReferences": {}
}