{
  "_format": "hh-sol-artifact-1",
  "contractName": "ERC1155FullProxiedMock",
  "sourceName": "contracts/mocks/token/ERC1155/preset/proxied/ERC1155FullProxiedMock.sol",
  "abi": [
    {
      "inputs": [
        {
          "internalType": "contract IForwarderRegistry",
          "name": "forwarderRegistry",
          "type": "address"
        }
      ],
      "stateMutability": "nonpayable",
      "type": "constructor"
    },
    {
      "inputs": [],
      "name": "ERC1155BalanceOfAddressZero",
      "type": "error"
    },
    {
      "inputs": [
        {
          "internalType": "address",
          "name": "recipient",
          "type": "address"
        },
        {
          "internalType": "uint256",
          "name": "id",
          "type": "uint256"
        },
        {
          "internalType": "uint256",
          "name": "balance",
          "type": "uint256"
        },
        {
          "internalType": "uint256",
          "name": "value",
          "type": "uint256"
        }
      ],
      "name": "ERC1155BalanceOverflow",
      "type": "error"
    },
    {
      "inputs": [
        {
          "internalType": "address",
          "name": "owner",
          "type": "address"
        },
        {
          "internalType": "uint256",
          "name": "id",
          "type": "uint256"
        },
        {
          "internalType": "uint256",
          "name": "balance",
          "type": "uint256"
        },
        {
          "internalType": "uint256",
          "name": "value",
          "type": "uint256"
        }
      ],
      "name": "ERC1155InsufficientBalance",
      "type": "error"
    },
    {
      "inputs": [],
      "name": "ERC1155MintToAddressZero",
      "type": "error"
    },
    {
      "inputs": [
        {
          "internalType": "address",
          "name": "sender",
          "type": "address"
        },
        {
          "internalType": "address",
          "name": "owner",
          "type": "address"
        }
      ],
      "name": "ERC1155NonApproved",
      "type": "error"
    },
    {
      "inputs": [
        {
          "internalType": "address",
          "name": "recipient",
          "type": "address"
        },
        {
          "internalType": "uint256[]",
          "name": "ids",
          "type": "uint256[]"
        },
        {
          "internalType": "uint256[]",
          "name": "values",
          "type": "uint256[]"
        }
      ],
      "name": "ERC1155SafeBatchTransferRejected",
      "type": "error"
    },
    {
      "inputs": [
        {
          "internalType": "address",
          "name": "recipient",
          "type": "address"
        },
        {
          "internalType": "uint256",
          "name": "id",
          "type": "uint256"
        },
        {
          "internalType": "uint256",
          "name": "value",
          "type": "uint256"
        }
      ],
      "name": "ERC1155SafeTransferRejected",
      "type": "error"
    },
    {
      "inputs": [
        {
          "internalType": "address",
          "name": "account",
          "type": "address"
        }
      ],
      "name": "ERC1155SelfApprovalForAll",
      "type": "error"
    },
    {
      "inputs": [],
      "name": "ERC1155TransferToAddressZero",
      "type": "error"
    },
    {
      "inputs": [
        {
          "internalType": "uint256",
          "name": "percentage",
          "type": "uint256"
        }
      ],
      "name": "ERC2981IncorrectRoyaltyPercentage",
      "type": "error"
    },
    {
      "inputs": [],
      "name": "ERC2981IncorrectRoyaltyReceiver",
      "type": "error"
    },
    {
      "inputs": [],
      "name": "IllegalInterfaceId",
      "type": "error"
    },
    {
      "inputs": [],
      "name": "InconsistentArrayLengths",
      "type": "error"
    },
    {
      "inputs": [
        {
          "internalType": "address",
          "name": "tokenContract",
          "type": "address"
        }
      ],
      "name": "IncorrectTokenContractType",
      "type": "error"
    },
    {
      "inputs": [
        {
          "internalType": "uint256",
          "name": "currentPhase",
          "type": "uint256"
        },
        {
          "internalType": "uint256",
          "name": "newPhase",
          "type": "uint256"
        }
      ],
      "name": "InitializationPhaseAlreadyReached",
      "type": "error"
    },
    {
      "inputs": [
        {
          "internalType": "address",
          "name": "account",
          "type": "address"
        }
      ],
      "name": "NotContractOwner",
      "type": "error"
    },
    {
      "inputs": [
        {
          "internalType": "address",
          "name": "account",
          "type": "address"
        }
      ],
      "name": "NotMetadataResolver",
      "type": "error"
    },
    {
      "inputs": [
        {
          "internalType": "bytes32",
          "name": "role",
          "type": "bytes32"
        },
        {
          "internalType": "address",
          "name": "account",
          "type": "address"
        }
      ],
      "name": "NotRoleHolder",
      "type": "error"
    },
    {
      "anonymous": false,
      "inputs": [
        {
          "indexed": true,
          "internalType": "address",
          "name": "owner",
          "type": "address"
        },
        {
          "indexed": true,
          "internalType": "address",
          "name": "operator",
          "type": "address"
        },
        {
          "indexed": false,
          "internalType": "bool",
          "name": "approved",
          "type": "bool"
        }
      ],
      "name": "ApprovalForAll",
      "type": "event"
    },
    {
      "anonymous": false,
      "inputs": [
        {
          "indexed": true,
          "internalType": "address",
          "name": "previousOwner",
          "type": "address"
        },
        {
          "indexed": true,
          "internalType": "address",
          "name": "newOwner",
          "type": "address"
        }
      ],
      "name": "OwnershipTransferred",
      "type": "event"
    },
    {
      "anonymous": false,
      "inputs": [
        {
          "indexed": false,
          "internalType": "bytes32",
          "name": "role",
          "type": "bytes32"
        },
        {
          "indexed": false,
          "internalType": "address",
          "name": "account",
          "type": "address"
        },
        {
          "indexed": false,
          "internalType": "address",
          "name": "operator",
          "type": "address"
        }
      ],
      "name": "RoleGranted",
      "type": "event"
    },
    {
      "anonymous": false,
      "inputs": [
        {
          "indexed": false,
          "internalType": "bytes32",
          "name": "role",
          "type": "bytes32"
        },
        {
          "indexed": false,
          "internalType": "address",
          "name": "account",
          "type": "address"
        },
        {
          "indexed": false,
          "internalType": "address",
          "name": "operator",
          "type": "address"
        }
      ],
      "name": "RoleRevoked",
      "type": "event"
    },
    {
      "anonymous": false,
      "inputs": [
        {
          "indexed": true,
          "internalType": "address",
          "name": "operator",
          "type": "address"
        },
        {
          "indexed": true,
          "internalType": "address",
          "name": "from",
          "type": "address"
        },
        {
          "indexed": true,
          "internalType": "address",
          "name": "to",
          "type": "address"
        },
        {
          "indexed": false,
          "internalType": "uint256[]",
          "name": "ids",
          "type": "uint256[]"
        },
        {
          "indexed": false,
          "internalType": "uint256[]",
          "name": "values",
          "type": "uint256[]"
        }
      ],
      "name": "TransferBatch",
      "type": "event"
    },
    {
      "anonymous": false,
      "inputs": [
        {
          "indexed": true,
          "internalType": "address",
          "name": "operator",
          "type": "address"
        },
        {
          "indexed": true,
          "internalType": "address",
          "name": "from",
          "type": "address"
        },
        {
          "indexed": true,
          "internalType": "address",
          "name": "to",
          "type": "address"
        },
        {
          "indexed": false,
          "internalType": "uint256",
          "name": "id",
          "type": "uint256"
        },
        {
          "indexed": false,
          "internalType": "uint256",
          "name": "value",
          "type": "uint256"
        }
      ],
      "name": "TransferSingle",
      "type": "event"
    },
    {
      "anonymous": false,
      "inputs": [
        {
          "indexed": false,
          "internalType": "string",
          "name": "value",
          "type": "string"
        },
        {
          "indexed": true,
          "internalType": "uint256",
          "name": "id",
          "type": "uint256"
        }
      ],
      "name": "URI",
      "type": "event"
    },
    {
      "inputs": [],
      "name": "MINTER_ROLE",
      "outputs": [
        {
          "internalType": "bytes32",
          "name": "",
          "type": "bytes32"
        }
      ],
      "stateMutability": "view",
      "type": "function"
    },
    {
      "inputs": [],
      "name": "ROYALTY_FEE_DENOMINATOR",
      "outputs": [
        {
          "internalType": "uint256",
          "name": "",
          "type": "uint256"
        }
      ],
      "stateMutability": "view",
      "type": "function"
    },
    {
      "inputs": [],
      "name": "__msgData",
      "outputs": [
        {
          "internalType": "bytes",
          "name": "",
          "type": "bytes"
        }
      ],
      "stateMutability": "view",
      "type": "function"
    },
    {
      "inputs": [
        {
          "internalType": "address",
          "name": "owner",
          "type": "address"
        },
        {
          "internalType": "uint256",
          "name": "id",
          "type": "uint256"
        }
      ],
      "name": "balanceOf",
      "outputs": [
        {
          "internalType": "uint256",
          "name": "balance",
          "type": "uint256"
        }
      ],
      "stateMutability": "view",
      "type": "function"
    },
    {
      "inputs": [
        {
          "internalType": "address[]",
          "name": "owners",
          "type": "address[]"
        },
        {
          "internalType": "uint256[]",
          "name": "ids",
          "type": "uint256[]"
        }
      ],
      "name": "balanceOfBatch",
      "outputs": [
        {
          "internalType": "uint256[]",
          "name": "balances",
          "type": "uint256[]"
        }
      ],
      "stateMutability": "view",
      "type": "function"
    },
    {
      "inputs": [
        {
          "internalType": "uint256[]",
          "name": "tokenIds",
          "type": "uint256[]"
        },
        {
          "internalType": "string[]",
          "name": "tokenURIs",
          "type": "string[]"
        }
      ],
      "name": "batchSetTokenURI",
      "outputs": [],
      "stateMutability": "nonpayable",
      "type": "function"
    },
    {
      "inputs": [],
      "name": "forwarderRegistry",
      "outputs": [
        {
          "internalType": "contract IForwarderRegistry",
          "name": "",
          "type": "address"
        }
      ],
      "stateMutability": "view",
      "type": "function"
    },
    {
      "inputs": [
        {
          "internalType": "bytes32",
          "name": "role",
          "type": "bytes32"
        },
        {
          "internalType": "address",
          "name": "account",
          "type": "address"
        }
      ],
      "name": "grantRole",
      "outputs": [],
      "stateMutability": "nonpayable",
      "type": "function"
    },
    {
      "inputs": [
        {
          "internalType": "bytes32",
          "name": "role",
          "type": "bytes32"
        },
        {
          "internalType": "address",
          "name": "account",
          "type": "address"
        }
      ],
      "name": "hasRole",
      "outputs": [
        {
          "internalType": "bool",
          "name": "hasRole_",
          "type": "bool"
        }
      ],
      "stateMutability": "view",
      "type": "function"
    },
    {
      "inputs": [
        {
          "internalType": "string",
          "name": "tokenName",
          "type": "string"
        },
        {
          "internalType": "string",
          "name": "tokenSymbol",
          "type": "string"
        },
        {
          "internalType": "contract ITokenMetadataResolver",
          "name": "metadataResolver",
          "type": "address"
        }
      ],
      "name": "init",
      "outputs": [],
      "stateMutability": "nonpayable",
      "type": "function"
    },
    {
      "inputs": [
        {
          "internalType": "address",
          "name": "owner",
          "type": "address"
        },
        {
          "internalType": "address",
          "name": "operator",
          "type": "address"
        }
      ],
      "name": "isApprovedForAll",
      "outputs": [
        {
          "internalType": "bool",
          "name": "approvedForAll",
          "type": "bool"
        }
      ],
      "stateMutability": "view",
      "type": "function"
    },
    {
      "inputs": [
        {
          "internalType": "address",
          "name": "forwarder",
          "type": "address"
        }
      ],
      "name": "isTrustedForwarder",
      "outputs": [
        {
          "internalType": "bool",
          "name": "",
          "type": "bool"
        }
      ],
      "stateMutability": "view",
      "type": "function"
    },
    {
      "inputs": [],
      "name": "metadataResolver",
      "outputs": [
        {
          "internalType": "contract ITokenMetadataResolver",
          "name": "tokenMetadataResolver",
          "type": "address"
        }
      ],
      "stateMutability": "view",
      "type": "function"
    },
    {
      "inputs": [],
      "name": "name",
      "outputs": [
        {
          "internalType": "string",
          "name": "tokenName",
          "type": "string"
        }
      ],
      "stateMutability": "view",
      "type": "function"
    },
    {
      "inputs": [],
      "name": "owner",
      "outputs": [
        {
          "internalType": "address",
          "name": "",
          "type": "address"
        }
      ],
      "stateMutability": "view",
      "type": "function"
    },
    {
      "inputs": [
        {
          "internalType": "address[]",
          "name": "accounts",
          "type": "address[]"
        },
        {
          "internalType": "contract IERC20[]",
          "name": "tokens",
          "type": "address[]"
        },
        {
          "internalType": "uint256[]",
          "name": "amounts",
          "type": "uint256[]"
        }
      ],
      "name": "recoverERC20s",
      "outputs": [],
      "stateMutability": "nonpayable",
      "type": "function"
    },
    {
      "inputs": [
        {
          "internalType": "address[]",
          "name": "accounts",
          "type": "address[]"
        },
        {
          "internalType": "contract IERC721[]",
          "name": "contracts",
          "type": "address[]"
        },
        {
          "internalType": "uint256[]",
          "name": "tokenIds",
          "type": "uint256[]"
        }
      ],
      "name": "recoverERC721s",
      "outputs": [],
      "stateMutability": "nonpayable",
      "type": "function"
    },
    {
      "inputs": [
        {
          "internalType": "address payable[]",
          "name": "accounts",
          "type": "address[]"
        },
        {
          "internalType": "uint256[]",
          "name": "amounts",
          "type": "uint256[]"
        }
      ],
      "name": "recoverETH",
      "outputs": [],
      "stateMutability": "nonpayable",
      "type": "function"
    },
    {
      "inputs": [
        {
          "internalType": "bytes32",
          "name": "role",
          "type": "bytes32"
        }
      ],
      "name": "renounceRole",
      "outputs": [],
      "stateMutability": "nonpayable",
      "type": "function"
    },
    {
      "inputs": [
        {
          "internalType": "bytes32",
          "name": "role",
          "type": "bytes32"
        },
        {
          "internalType": "address",
          "name": "account",
          "type": "address"
        }
      ],
      "name": "revokeRole",
      "outputs": [],
      "stateMutability": "nonpayable",
      "type": "function"
    },
    {
      "inputs": [
        {
          "internalType": "uint256",
          "name": "tokenId",
          "type": "uint256"
        },
        {
          "internalType": "uint256",
          "name": "salePrice",
          "type": "uint256"
        }
      ],
      "name": "royaltyInfo",
      "outputs": [
        {
          "internalType": "address",
          "name": "receiver",
          "type": "address"
        },
        {
          "internalType": "uint256",
          "name": "royaltyAmount",
          "type": "uint256"
        }
      ],
      "stateMutability": "view",
      "type": "function"
    },
    {
      "inputs": [
        {
          "internalType": "address",
          "name": "to",
          "type": "address"
        },
        {
          "internalType": "uint256[]",
          "name": "ids",
          "type": "uint256[]"
        },
        {
          "internalType": "uint256[]",
          "name": "values",
          "type": "uint256[]"
        },
        {
          "internalType": "bytes",
          "name": "data",
          "type": "bytes"
        }
      ],
      "name": "safeBatchMint",
      "outputs": [],
      "stateMutability": "nonpayable",
      "type": "function"
    },
    {
      "inputs": [
        {
          "internalType": "address",
          "name": "from",
          "type": "address"
        },
        {
          "internalType": "address",
          "name": "to",
          "type": "address"
        },
        {
          "internalType": "uint256[]",
          "name": "ids",
          "type": "uint256[]"
        },
        {
          "internalType": "uint256[]",
          "name": "values",
          "type": "uint256[]"
        },
        {
          "internalType": "bytes",
          "name": "data",
          "type": "bytes"
        }
      ],
      "name": "safeBatchTransferFrom",
      "outputs": [],
      "stateMutability": "nonpayable",
      "type": "function"
    },
    {
      "inputs": [
        {
          "internalType": "address[]",
          "name": "recipients",
          "type": "address[]"
        },
        {
          "internalType": "uint256[]",
          "name": "ids",
          "type": "uint256[]"
        },
        {
          "internalType": "uint256[]",
          "name": "values",
          "type": "uint256[]"
        },
        {
          "internalType": "bytes",
          "name": "data",
          "type": "bytes"
        }
      ],
      "name": "safeDeliver",
      "outputs": [],
      "stateMutability": "nonpayable",
      "type": "function"
    },
    {
      "inputs": [
        {
          "internalType": "address",
          "name": "to",
          "type": "address"
        },
        {
          "internalType": "uint256",
          "name": "id",
          "type": "uint256"
        },
        {
          "internalType": "uint256",
          "name": "value",
          "type": "uint256"
        },
        {
          "internalType": "bytes",
          "name": "data",
          "type": "bytes"
        }
      ],
      "name": "safeMint",
      "outputs": [],
      "stateMutability": "nonpayable",
      "type": "function"
    },
    {
      "inputs": [
        {
          "internalType": "address",
          "name": "from",
          "type": "address"
        },
        {
          "internalType": "address",
          "name": "to",
          "type": "address"
        },
        {
          "internalType": "uint256",
          "name": "id",
          "type": "uint256"
        },
        {
          "internalType": "uint256",
          "name": "value",
          "type": "uint256"
        },
        {
          "internalType": "bytes",
          "name": "data",
          "type": "bytes"
        }
      ],
      "name": "safeTransferFrom",
      "outputs": [],
      "stateMutability": "nonpayable",
      "type": "function"
    },
    {
      "inputs": [
        {
          "internalType": "address",
          "name": "operator",
          "type": "address"
        },
        {
          "internalType": "bool",
          "name": "approved",
          "type": "bool"
        }
      ],
      "name": "setApprovalForAll",
      "outputs": [],
      "stateMutability": "nonpayable",
      "type": "function"
    },
    {
      "inputs": [
        {
          "internalType": "uint256",
          "name": "percentage",
          "type": "uint256"
        }
      ],
      "name": "setRoyaltyPercentage",
      "outputs": [],
      "stateMutability": "nonpayable",
      "type": "function"
    },
    {
      "inputs": [
        {
          "internalType": "address",
          "name": "receiver",
          "type": "address"
        }
      ],
      "name": "setRoyaltyReceiver",
      "outputs": [],
      "stateMutability": "nonpayable",
      "type": "function"
    },
    {
      "inputs": [
        {
          "internalType": "uint256",
          "name": "tokenId",
          "type": "uint256"
        },
        {
          "internalType": "string",
          "name": "tokenURI",
          "type": "string"
        }
      ],
      "name": "setTokenURI",
      "outputs": [],
      "stateMutability": "nonpayable",
      "type": "function"
    },
    {
      "inputs": [
        {
          "internalType": "bytes4",
          "name": "interfaceId",
          "type": "bytes4"
        }
      ],
      "name": "supportsInterface",
      "outputs": [
        {
          "internalType": "bool",
          "name": "",
          "type": "bool"
        }
      ],
      "stateMutability": "view",
      "type": "function"
    },
    {
      "inputs": [],
      "name": "symbol",
      "outputs": [
        {
          "internalType": "string",
          "name": "tokenSymbol",
          "type": "string"
        }
      ],
      "stateMutability": "view",
      "type": "function"
    },
    {
      "inputs": [
        {
          "internalType": "address",
          "name": "newOwner",
          "type": "address"
        }
      ],
      "name": "transferOwnership",
      "outputs": [],
      "stateMutability": "nonpayable",
      "type": "function"
    },
    {
      "inputs": [
        {
          "internalType": "uint256",
          "name": "tokenId",
          "type": "uint256"
        }
      ],
      "name": "uri",
      "outputs": [
        {
          "internalType": "string",
          "name": "metadataURI",
          "type": "string"
        }
      ],
      "stateMutability": "view",
      "type": "function"
    }
  ],
  "bytecode": "0x60a06040523480156200001157600080fd5b50604051620043f5380380620043f5833981016040819052620000349162000046565b6001600160a01b031660805262000078565b6000602082840312156200005957600080fd5b81516001600160a01b03811681146200007157600080fd5b9392505050565b60805161433e620000b760003960008181610304015281816103b5015281816129160152818161299e01528181612e420152612e80015261433e6000f3fe608060405234801561001057600080fd5b50600436106102255760003560e01c806373c8a9581161012a578063c3666c36116100bd578063e8ab9ccc1161008c578063f242432a11610071578063f242432a14610532578063f2fde38b14610545578063f7ba94bd1461055857600080fd5b8063e8ab9ccc1461050c578063e985e9c51461051f57600080fd5b8063c3666c36146104b5578063d5391393146104c8578063d547741f146104ef578063e1a8bf2c1461050257600080fd5b806391d14854116100f957806391d148541461047f57806395d89b4114610492578063a0c76f621461049a578063a22cb465146104a257600080fd5b806373c8a9581461043e5780638bb9c5bf146104515780638da5cb5b146104645780638dc251e31461046c57600080fd5b80632eb2c2d6116101bd578063572b6c051161018c57806361ba27da1161017157806361ba27da146104055780636706467b146104185780636ee5741a1461042b57600080fd5b8063572b6c05146103a55780635cfa9297146103f257600080fd5b80632eb2c2d6146103495780632f2ff15d1461035c57806331e66e1e1461036f5780634e1273f41461038557600080fd5b80630e89341c116101f95780630e89341c1461029d578063162094c4146102b05780632a55205a146102c35780632b4c9f161461030257600080fd5b8062fdd58e1461022a57806301ffc9a71461025057806306fdde03146102735780630d6a5bbb14610288575b600080fd5b61023d610238366004613544565b61056b565b6040519081526020015b60405180910390f35b61026361025e36600461359e565b61058a565b6040519015158152602001610247565b61027b61059e565b6040516102479190613630565b61029b6102963660046136ca565b6105b5565b005b61027b6102ab366004613777565b6106b0565b61029b6102be366004613790565b6106c6565b6102d66102d13660046137dc565b610798565b6040805173ffffffffffffffffffffffffffffffffffffffff9093168352602083019190915201610247565b7f00000000000000000000000000000000000000000000000000000000000000005b60405173ffffffffffffffffffffffffffffffffffffffff9091168152602001610247565b61029b6103573660046137fe565b6107bb565b61029b61036a3660046138bd565b6107e4565b61037761081d565b604051610247929190613936565b61039861039336600461394a565b610830565b60405161024791906139f2565b6102636103b3366004613a05565b7f000000000000000000000000000000000000000000000000000000000000000073ffffffffffffffffffffffffffffffffffffffff90811691161490565b61029b610400366004613a22565b610855565b61029b610413366004613777565b6108e7565b61029b61042636600461394a565b61090f565b61029b610439366004613a8c565b610a47565b61029b61044c366004613b10565b610aa2565b61029b61045f366004613777565b610b8e565b610324610ba9565b61029b61047a366004613a05565b610bd0565b61026361048d3660046138bd565b610bed565b61027b610c31565b610324610c43565b61029b6104b0366004613bb8565b610c50565b61029b6104c3366004613b10565b610c71565b61023d7f6d696e746572000000000000000000000000000000000000000000000000000081565b61029b6104fd3660046138bd565b610f12565b61023d620186a081565b61029b61051a366004613be6565b610f40565b61026361052d366004613c89565b611065565b61029b610540366004613cb7565b6110b3565b61029b610553366004613a05565b6110d8565b61029b61056636600461394a565b6110f3565b6000610581838361057a6111aa565b91906111d8565b90505b92915050565b60006105848261059861125c565b9061128a565b60606105b06105ab611364565b611392565b905090565b60006105bf611428565b90506105f57f6d696e7465720000000000000000000000000000000000000000000000000000826105ee611432565b9190611460565b6106a6818989898080602002602001604051908101604052809392919081815260200183836020028082843760009201919091525050604080516020808d0282810182019093528c82529093508c92508b91829185019084908082843760009201919091525050604080516020601f8c018190048102820181019092528a815292508a915089908190840183828082843760009201919091525061069c92506111aa915050565b94939291906114e6565b5050505050505050565b606061058430836106bf611364565b9190611675565b6106ee6106d1611364565b6002015473ffffffffffffffffffffffffffffffffffffffff1690565b73ffffffffffffffffffffffffffffffffffffffff163373ffffffffffffffffffffffffffffffffffffffff1614610759576040517f220606710000000000000000000000000000000000000000000000000000000081523360048201526024015b60405180910390fd5b827f6bb7ff708619ba0610cba295a58592e0451dee2622938c8755667688daf3529b838360405161078b929190613936565b60405180910390a2505050565b6000806107af84846107a8611735565b9190611763565b915091505b9250929050565b6106a66107c6611428565b89898989898989896107d66111aa565b98979695949392919061180d565b60006107ee611428565b9050610802816107fc611a96565b90611ac4565b610818838383610810611432565b929190611b2f565b505050565b366000610828611c06565b915091509091565b606061084a858585856108416111aa565b93929190611c11565b90505b949350505050565b600061085f611428565b905061088e7f6d696e7465720000000000000000000000000000000000000000000000000000826105ee611432565b6108df8187878787878080601f0160208091040260200160405190810160405280939291908181526020018383808284376000920191909152506108d592506111aa915050565b9493929190611d20565b505050505050565b6108fa6108f2611428565b6107fc611a96565b61090c81610906611735565b90611dfe565b50565b828114610948576040517f6582533600000000000000000000000000000000000000000000000000000000815260040160405180910390fd5b6109536106d1611364565b73ffffffffffffffffffffffffffffffffffffffff163373ffffffffffffffffffffffffffffffffffffffff16146109b9576040517f22060671000000000000000000000000000000000000000000000000000000008152336004820152602401610750565b60005b83811015610a40578484828181106109d6576109d6613d21565b905060200201357f6bb7ff708619ba0610cba295a58592e0451dee2622938c8755667688daf3529b848484818110610a1057610a10613d21565b9050602002810190610a229190613d50565b604051610a30929190613936565b60405180910390a26001016109bc565b5050505050565b610a60610a52611428565b610a5a611a96565b90611e84565b610a68611ec3565b610a70611efa565b610a78611f28565b610a80611f56565b610a88611f84565b610a408585858585610a98611364565b9493929190611fb2565b610aad6108f2611428565b848381141580610abd5750808214155b15610af4576040517f6582533600000000000000000000000000000000000000000000000000000000815260040160405180910390fd5b60005b818110156106a657610b86888883818110610b1457610b14613d21565b9050602002016020810190610b299190613a05565b858584818110610b3b57610b3b613d21565b90506020020135888885818110610b5457610b54613d21565b9050602002016020810190610b699190613a05565b73ffffffffffffffffffffffffffffffffffffffff16919061204c565b600101610af7565b61090c610b99611428565b82610ba2611432565b91906120d9565b60006105b0610bb6611a96565b5473ffffffffffffffffffffffffffffffffffffffff1690565b610bdb6108f2611428565b61090c81610be7611735565b9061217d565b60006105818383610bfc611432565b60009283526020908152604080842073ffffffffffffffffffffffffffffffffffffffff909316845291905290205460ff1690565b60606105b0610c3e611364565b61220c565b60006105b06106d1611364565b610c6d610c5b611428565b8383610c656111aa565b92919061221d565b5050565b610c7c6108f2611428565b848381141580610c8c5750808214155b15610cc3576040517f6582533600000000000000000000000000000000000000000000000000000000815260040160405180910390fd5b60005b818110156106a6576000868683818110610ce257610ce2613d21565b9050602002016020810190610cf79190613a05565b6040517f01ffc9a70000000000000000000000000000000000000000000000000000000081527f80ac58cd00000000000000000000000000000000000000000000000000000000600482015290915073ffffffffffffffffffffffffffffffffffffffff8216906301ffc9a790602401602060405180830381865afa158015610d84573d6000803e3d6000fd5b505050506040513d601f19601f82011682018060405250810190610da89190613db5565b610df6576040517f986b9f1f00000000000000000000000000000000000000000000000000000000815273ffffffffffffffffffffffffffffffffffffffff82166004820152602401610750565b868683818110610e0857610e08613d21565b9050602002016020810190610e1d9190613a05565b73ffffffffffffffffffffffffffffffffffffffff166342842e0e308b8b86818110610e4b57610e4b613d21565b9050602002016020810190610e609190613a05565b888887818110610e7257610e72613d21565b6040517fffffffff0000000000000000000000000000000000000000000000000000000060e088901b16815273ffffffffffffffffffffffffffffffffffffffff958616600482015294909316602485015250602090910201356044820152606401600060405180830381600087803b158015610eee57600080fd5b505af1158015610f02573d6000803e3d6000fd5b5050505050806001019050610cc6565b6000610f1c611428565b9050610f2a816107fc611a96565b610818838383610f38611432565b929190612335565b6000610f4a611428565b9050610f797f6d696e7465720000000000000000000000000000000000000000000000000000826105ee611432565b61105a818a8a8080602002602001604051908101604052809392919081815260200183836020028082843760009201919091525050604080516020808e0282810182019093528d82529093508d92508c91829185019084908082843760009201919091525050604080516020808d0282810182019093528c82529093508c92508b91829185019084908082843760009201919091525050604080516020601f8c018190048102820181019092528a815292508a915089908190840183828082843760009201919091525061105092506111aa915050565b94939291906123ff565b505050505050505050565b600061058183836110746111aa565b919073ffffffffffffffffffffffffffffffffffffffff9182166000908152600193909301602090815260408085209290931684525290205460ff1690565b6108df6110be611428565b8787878787876110cc6111aa565b969594939291906124c2565b61090c6110e3611428565b826110ec611a96565b9190612665565b6110fe6108f2611428565b82818114611138576040517f6582533600000000000000000000000000000000000000000000000000000000815260040160405180910390fd5b60005b818110156108df576111a284848381811061115857611158613d21565b9050602002013587878481811061117157611171613d21565b90506020020160208101906111869190613a05565b73ffffffffffffffffffffffffffffffffffffffff1690612779565b60010161113b565b60008061058460017f5ccf5846fa27a68fafc8e588671a68f5e67c2f9b56af4263806a4d71735e8613613e01565b600073ffffffffffffffffffffffffffffffffffffffff8316611227576040517fca2434a500000000000000000000000000000000000000000000000000000000815260040160405180910390fd5b5060009081526020928352604080822073ffffffffffffffffffffffffffffffffffffffff9390931682529190925290205490565b60008061058460017fca9d3e17f264b0f3984e2634e94adb37fa3e6a8103f06aeae6fa59e21c769f5e613e01565b60007c01000000000000000000000000000000000000000000000000000000007fffffffff000000000000000000000000000000000000000000000000000000008316016112da57506000610584565b7ffe003659000000000000000000000000000000000000000000000000000000007fffffffff0000000000000000000000000000000000000000000000000000000083160161132b57506001610584565b507fffffffff00000000000000000000000000000000000000000000000000000000166000908152602091909152604090205460ff1690565b60008061058460017f7ea68fd2dcf1c056b94db6a0a537aa80d26fa9ab1eacd85da1ba0b61b7e7a8a5613e01565b60608160000180546113a390613e14565b80601f01602080910402602001604051908101604052809291908181526020018280546113cf90613e14565b801561141c5780601f106113f15761010080835404028352916020019161141c565b820191906000526020600020905b8154815290600101906020018083116113ff57829003601f168201915b50505050509050919050565b60006105b06128d3565b60008061058460017fc8827d3282af6f37b64c3e9e6f3ac9df286ab0bb0fccd6f8661bf19adb368b23613e01565b60008281526020848152604080832073ffffffffffffffffffffffffffffffffffffffff8516845290915290205460ff16610818576040517f7aa728820000000000000000000000000000000000000000000000000000000081526004810183905273ffffffffffffffffffffffffffffffffffffffff82166024820152604401610750565b73ffffffffffffffffffffffffffffffffffffffff8416611533576040517f021149bd00000000000000000000000000000000000000000000000000000000815260040160405180910390fd5b82518251811461156f576040517f6582533600000000000000000000000000000000000000000000000000000000815260040160405180910390fd5b60005b818110156115c0576115b8888787848151811061159157611591613d21565b60200260200101518785815181106115ab576115ab613d21565b6020026020010151612a1a565b600101611572565b508473ffffffffffffffffffffffffffffffffffffffff16600073ffffffffffffffffffffffffffffffffffffffff168773ffffffffffffffffffffffffffffffffffffffff167f4a39dc06d4c0dbc64b70af90fd698a233a518aa5d07e595d983b8c0526c8f7fb8787604051611638929190613e67565b60405180910390a473ffffffffffffffffffffffffffffffffffffffff85163b1561166c5761166c86600087878787612aeb565b50505050505050565b60028301546040517ff724dad700000000000000000000000000000000000000000000000000000000815273ffffffffffffffffffffffffffffffffffffffff848116600483015260248201849052606092169063f724dad790604401600060405180830381865afa1580156116ef573d6000803e3d6000fd5b505050506040513d6000823e601f3d9081017fffffffffffffffffffffffffffffffffffffffffffffffffffffffffffffffe016820160405261084d9190810190613ec4565b60008061058460017f2c0cf10337caabbd02dcf226f05f5fd19a0919a41a8df8958c39b80007826858613e01565b825473ffffffffffffffffffffffffffffffffffffffff8116906000907401000000000000000000000000000000000000000090046bffffffffffffffffffffffff168315806117b1575080155b156117bf5760009150611804565b620186a08410156117e957620186a06117d88286613f84565b6117e29190613f9b565b9150611804565b806117f7620186a086613f9b565b6118019190613f84565b91505b50935093915050565b73ffffffffffffffffffffffffffffffffffffffff871661185a576040517fb5e8901500000000000000000000000000000000000000000000000000000000815260040160405180910390fd5b84838114611894576040517f6582533600000000000000000000000000000000000000000000000000000000815260040160405180910390fd5b61189f8b8a8c612be9565b6118f5576040517f05bbb9c400000000000000000000000000000000000000000000000000000000815273ffffffffffffffffffffffffffffffffffffffff808c1660048301528a166024820152604401610750565b60005b818110156119455761193d8c8b8b8b8b8681811061191857611918613d21565b905060200201358a8a8781811061193157611931613d21565b90506020020135612c5e565b6001016118f8565b508773ffffffffffffffffffffffffffffffffffffffff168973ffffffffffffffffffffffffffffffffffffffff168b73ffffffffffffffffffffffffffffffffffffffff167f4a39dc06d4c0dbc64b70af90fd698a233a518aa5d07e595d983b8c0526c8f7fb8a8a8a8a6040516119c09493929190614021565b60405180910390a473ffffffffffffffffffffffffffffffffffffffff88163b15611a8957611a898a8a8a8a8a8080602002602001604051908101604052809392919081815260200183836020028082843760009201919091525050604080516020808e0282810182019093528d82529093508d92508c91829185019084908082843760009201919091525050604080516020601f8d018190048102820181019092528b815292508b91508a9081908401838280828437600092019190915250612aeb92505050565b5050505050505050505050565b60008061058460017fc9ed16f33ab3a66c84bfd83099ccb2a8845871e2e1c1928f63797152f0fd54cd613e01565b815473ffffffffffffffffffffffffffffffffffffffff828116911614610c6d576040517f2ef4875e00000000000000000000000000000000000000000000000000000000815273ffffffffffffffffffffffffffffffffffffffff82166004820152602401610750565b60008381526020858152604080832073ffffffffffffffffffffffffffffffffffffffff8616845290915290205460ff16611c005760008381526020858152604080832073ffffffffffffffffffffffffffffffffffffffff8681168086529184529382902080547fffffffffffffffffffffffffffffffffffffffffffffffffffffffffffffff00166001179055815187815292830152918316918101919091527f2f8788117e7eff1d82e926ec794901d17c78024a50270940304540a733656f0d906060015b60405180910390a15b50505050565b366000610828612e0b565b606083828114611c4d576040517f6582533600000000000000000000000000000000000000000000000000000000815260040160405180910390fd5b8467ffffffffffffffff811115611c6657611c66613e95565b604051908082528060200260200182016040528015611c8f578160200160208202803683370190505b50915060005b81811015611d1557611cf0878783818110611cb257611cb2613d21565b9050602002016020810190611cc79190613a05565b868684818110611cd957611cd9613d21565b905060200201358a6111d89092919063ffffffff16565b838281518110611d0257611d02613d21565b6020908102919091010152600101611c95565b505095945050505050565b73ffffffffffffffffffffffffffffffffffffffff8416611d6d576040517f021149bd00000000000000000000000000000000000000000000000000000000815260040160405180910390fd5b611d7986858585612a1a565b604080518481526020810184905273ffffffffffffffffffffffffffffffffffffffff80871692600092918916917fc3d58168c5ae7397731d063d5bbf3d657854427343f4c083240f7aacaa2d0f62910160405180910390a473ffffffffffffffffffffffffffffffffffffffff84163b156108df576108df85600086868686612f75565b620186a0811115611e3e576040517fac04040800000000000000000000000000000000000000000000000000000000815260048101829052602401610750565b81546bffffffffffffffffffffffff909116740100000000000000000000000000000000000000000273ffffffffffffffffffffffffffffffffffffffff909116179055565b611eb9611eb260017f5b388d90dc1312ba799f321972f13311234fa1163bcabec7cf66101c4876eb84613e01565b6001613093565b610c6d82826130df565b611ef87fd9b67a26000000000000000000000000000000000000000000000000000000006001611ef161125c565b9190613195565b565b611ef87f0e89341c000000000000000000000000000000000000000000000000000000006001611ef161125c565b611ef87f5190c92c000000000000000000000000000000000000000000000000000000006001611ef161125c565b611ef87fe8ab9ccc000000000000000000000000000000000000000000000000000000006001611ef161125c565b611ef87f2a55205a000000000000000000000000000000000000000000000000000000006001611ef161125c565b611fe0611eb260017f92f72593ca50a0096f68ee94e7000db40ed086164b695855e2250750b8bfaf59613e01565b85611fec858783614090565b5060018601611ffc838583614090565b5060029590950180547fffffffffffffffffffffffff00000000000000000000000000000000000000001673ffffffffffffffffffffffffffffffffffffffff9096169590951790945550505050565b6040805173ffffffffffffffffffffffffffffffffffffffff8416602482015260448082018490528251808303909101815260649091019091526020810180517bffffffffffffffffffffffffffffffffffffffffffffffffffffffff167fa9059cbb00000000000000000000000000000000000000000000000000000000179052610818908490613271565b6120e4838284611460565b60008181526020848152604080832073ffffffffffffffffffffffffffffffffffffffff86168085529083529281902080547fffffffffffffffffffffffffffffffffffffffffffffffffffffffffffffff0016905580518481529182018390528101919091527ff6391f5c32d9c69d2a47ea670b442974b53935d1edc7fd64eb21e047a839171b9060600160405180910390a1505050565b73ffffffffffffffffffffffffffffffffffffffff81166121ca576040517f16de0c8000000000000000000000000000000000000000000000000000000000815260040160405180910390fd5b81547fffffffffffffffffffffffff00000000000000000000000000000000000000001673ffffffffffffffffffffffffffffffffffffffff91909116179055565b60608160010180546113a390613e14565b8273ffffffffffffffffffffffffffffffffffffffff168273ffffffffffffffffffffffffffffffffffffffff160361229a576040517ffb0fdf6100000000000000000000000000000000000000000000000000000000815273ffffffffffffffffffffffffffffffffffffffff84166004820152602401610750565b73ffffffffffffffffffffffffffffffffffffffff838116600081815260018701602090815260408083209487168084529482529182902080547fffffffffffffffffffffffffffffffffffffffffffffffffffffffffffffff001686151590811790915591519182527f17307eab39ab6107e8899845ad3d59bd9653f200f220920489ca2b5937696c31910160405180910390a350505050565b60008381526020858152604080832073ffffffffffffffffffffffffffffffffffffffff8616845290915290205460ff1615611c005760008381526020858152604080832073ffffffffffffffffffffffffffffffffffffffff8681168086529184529382902080547fffffffffffffffffffffffffffffffffffffffffffffffffffffffffffffff00169055815187815292830152918316918101919091527ff6391f5c32d9c69d2a47ea670b442974b53935d1edc7fd64eb21e047a839171b90606001611bf7565b8351835181141580612412575082518114155b15612449576040517f6582533600000000000000000000000000000000000000000000000000000000815260040160405180910390fd5b60005b818110156106a6576124ba8787838151811061246a5761246a613d21565b602002602001015187848151811061248457612484613d21565b602002602001015187858151811061249e5761249e613d21565b6020026020010151878d611d209095949392919063ffffffff16565b60010161244c565b73ffffffffffffffffffffffffffffffffffffffff851661250f576040517fb5e8901500000000000000000000000000000000000000000000000000000000815260040160405180910390fd5b61251a888789612be9565b612570576040517f05bbb9c400000000000000000000000000000000000000000000000000000000815273ffffffffffffffffffffffffffffffffffffffff808916600483015287166024820152604401610750565b61257d8887878787612c5e565b8473ffffffffffffffffffffffffffffffffffffffff168673ffffffffffffffffffffffffffffffffffffffff168873ffffffffffffffffffffffffffffffffffffffff167fc3d58168c5ae7397731d063d5bbf3d657854427343f4c083240f7aacaa2d0f6287876040516125fc929190918252602082015260400190565b60405180910390a473ffffffffffffffffffffffffffffffffffffffff85163b156106a6576106a6878787878787878080601f016020809104026020016040519081016040528093929190818152602001838380828437600092019190915250612f7592505050565b825473ffffffffffffffffffffffffffffffffffffffff90811690831681146126d2576040517f2ef4875e00000000000000000000000000000000000000000000000000000000815273ffffffffffffffffffffffffffffffffffffffff84166004820152602401610750565b8173ffffffffffffffffffffffffffffffffffffffff168173ffffffffffffffffffffffffffffffffffffffff1614611c005783547fffffffffffffffffffffffff00000000000000000000000000000000000000001673ffffffffffffffffffffffffffffffffffffffff8381169182178655604051908316907f8be0079c531659141344cd1fd0a4f28419497f9722a3daafe3b4186f6b6457e090600090a350505050565b804710156127e3576040517f08c379a000000000000000000000000000000000000000000000000000000000815260206004820152601d60248201527f416464726573733a20696e73756666696369656e742062616c616e63650000006044820152606401610750565b60008273ffffffffffffffffffffffffffffffffffffffff168260405160006040518083038185875af1925050503d806000811461283d576040519150601f19603f3d011682016040523d82523d6000602084013e612842565b606091505b5050905080610818576040517f08c379a000000000000000000000000000000000000000000000000000000000815260206004820152603a60248201527f416464726573733a20756e61626c6520746f2073656e642076616c75652c207260448201527f6563697069656e74206d617920686176652072657665727465640000000000006064820152608401610750565b6000333214806128e35750601836105b156128ed57503390565b7fffffffffffffffffffffffffffffffffffffffffffffffffffffffffffffffec36013560601c7f000000000000000000000000000000000000000000000000000000000000000073ffffffffffffffffffffffffffffffffffffffff16331480612a0957506040517f8929a8ca00000000000000000000000000000000000000000000000000000000815273ffffffffffffffffffffffffffffffffffffffff82811660048301523360248301527f00000000000000000000000000000000000000000000000000000000000000001690638929a8ca90604401602060405180830381865afa1580156129e5573d6000803e3d6000fd5b505050506040513d601f19601f82011682018060405250810190612a099190613db5565b15612a1357919050565b3391505090565b8015611c005760008281526020858152604080832073ffffffffffffffffffffffffffffffffffffffff87168452909152902054818101818111612ab7576040517f42fb00bc00000000000000000000000000000000000000000000000000000000815273ffffffffffffffffffffffffffffffffffffffff86166004820152602481018590526044810183905260648101849052608401610750565b60009384526020958652604080852073ffffffffffffffffffffffffffffffffffffffff9690961685529490955250502055565b6040517fbc197c81000000000000000000000000000000000000000000000000000000008082529073ffffffffffffffffffffffffffffffffffffffff86169063bc197c8190612b47908a908a908990899089906004016141aa565b6020604051808303816000875af1158015612b66573d6000803e3d6000fd5b505050506040513d601f19601f82011682018060405250810190612b8a9190614215565b7fffffffff0000000000000000000000000000000000000000000000000000000016146108df578383836040517fc287817e00000000000000000000000000000000000000000000000000000000815260040161075093929190614232565b60008173ffffffffffffffffffffffffffffffffffffffff168373ffffffffffffffffffffffffffffffffffffffff16148061084d57505073ffffffffffffffffffffffffffffffffffffffff9182166000908152600193909301602090815260408085209290931684525290205460ff1690565b8015610a405760008281526020868152604080832073ffffffffffffffffffffffffffffffffffffffff88168452909152902054818103818110612cfb576040517f03dee4c500000000000000000000000000000000000000000000000000000000815273ffffffffffffffffffffffffffffffffffffffff87166004820152602481018590526044810183905260648101849052608401610750565b8473ffffffffffffffffffffffffffffffffffffffff168673ffffffffffffffffffffffffffffffffffffffff161461166c5760008481526020888152604080832073ffffffffffffffffffffffffffffffffffffffff89168452909152902054838101818111612dc5576040517f42fb00bc00000000000000000000000000000000000000000000000000000000815273ffffffffffffffffffffffffffffffffffffffff88166004820152602481018790526044810183905260648101869052608401610750565b600086815260208a8152604080832073ffffffffffffffffffffffffffffffffffffffff808d1685528184528285208890558b1684529091529020555050505050505050565b36600033321480612e1c5750601836105b15612e2a5750600091369150565b3373ffffffffffffffffffffffffffffffffffffffff7f0000000000000000000000000000000000000000000000000000000000000000161480612f5f575073ffffffffffffffffffffffffffffffffffffffff7f000000000000000000000000000000000000000000000000000000000000000016638929a8ca367fffffffffffffffffffffffffffffffffffffffffffffffffffffffffffffffec013560601c6040517fffffffff0000000000000000000000000000000000000000000000000000000060e084901b16815273ffffffffffffffffffffffffffffffffffffffff9091166004820152336024820152604401602060405180830381865afa158015612f3b573d6000803e3d6000fd5b505050506040513d601f19601f82011682018060405250810190612f5f9190613db5565b15612f6c57610828613380565b50600091369150565b6040517ff23a6e61000000000000000000000000000000000000000000000000000000008082529073ffffffffffffffffffffffffffffffffffffffff86169063f23a6e6190612fd1908a908a9089908990899060040161427d565b6020604051808303816000875af1158015612ff0573d6000803e3d6000fd5b505050506040513d601f19601f820116820180604052508101906130149190614215565b7fffffffff0000000000000000000000000000000000000000000000000000000016146108df576040517f40f39d3800000000000000000000000000000000000000000000000000000000815273ffffffffffffffffffffffffffffffffffffffff851660048201526024810184905260448101839052606401610750565b815482908281106130da576040517fbf0c18ec0000000000000000000000000000000000000000000000000000000081526004810182905260248101849052604401610750565b505550565b73ffffffffffffffffffffffffffffffffffffffff8116156131675781547fffffffffffffffffffffffff00000000000000000000000000000000000000001673ffffffffffffffffffffffffffffffffffffffff821690811783556040516000907f8be0079c531659141344cd1fd0a4f28419497f9722a3daafe3b4186f6b6457e0908290a35b610c6d7f7f5828d0000000000000000000000000000000000000000000000000000000006001611ef161125c565b7c01000000000000000000000000000000000000000000000000000000007fffffffff0000000000000000000000000000000000000000000000000000000083160161320d576040517f72c683bb00000000000000000000000000000000000000000000000000000000815260040160405180910390fd5b7fffffffff00000000000000000000000000000000000000000000000000000000919091166000908152602092909252604090912080547fffffffffffffffffffffffffffffffffffffffffffffffffffffffffffffff0016911515919091179055565b60006132d3826040518060400160405280602081526020017f5361666545524332303a206c6f772d6c6576656c2063616c6c206661696c65648152508573ffffffffffffffffffffffffffffffffffffffff166133b19092919063ffffffff16565b90508051600014806132f45750808060200190518101906132f49190613db5565b610818576040517f08c379a000000000000000000000000000000000000000000000000000000000815260206004820152602a60248201527f5361666545524332303a204552433230206f7065726174696f6e20646964206e60448201527f6f742073756363656564000000000000000000000000000000000000000000006064820152608401610750565b3660006108287fffffffffffffffffffffffffffffffffffffffffffffffffffffffffffffffec83018284816142c2565b606061084d8484600085856000808673ffffffffffffffffffffffffffffffffffffffff1685876040516133e591906142ec565b60006040518083038185875af1925050503d8060008114613422576040519150601f19603f3d011682016040523d82523d6000602084013e613427565b606091505b509150915061343887838387613443565b979650505050505050565b606083156134d95782516000036134d25773ffffffffffffffffffffffffffffffffffffffff85163b6134d2576040517f08c379a000000000000000000000000000000000000000000000000000000000815260206004820152601d60248201527f416464726573733a2063616c6c20746f206e6f6e2d636f6e74726163740000006044820152606401610750565b508161084d565b61084d83838151156134ee5781518083602001fd5b806040517f08c379a00000000000000000000000000000000000000000000000000000000081526004016107509190613630565b73ffffffffffffffffffffffffffffffffffffffff8116811461090c57600080fd5b6000806040838503121561355757600080fd5b823561356281613522565b946020939093013593505050565b7fffffffff000000000000000000000000000000000000000000000000000000008116811461090c57600080fd5b6000602082840312156135b057600080fd5b81356135bb81613570565b9392505050565b60005b838110156135dd5781810151838201526020016135c5565b50506000910152565b600081518084526135fe8160208601602086016135c2565b601f017fffffffffffffffffffffffffffffffffffffffffffffffffffffffffffffffe0169290920160200192915050565b60208152600061058160208301846135e6565b60008083601f84011261365557600080fd5b50813567ffffffffffffffff81111561366d57600080fd5b6020830191508360208260051b85010111156107b457600080fd5b60008083601f84011261369a57600080fd5b50813567ffffffffffffffff8111156136b257600080fd5b6020830191508360208285010111156107b457600080fd5b60008060008060008060006080888a0312156136e557600080fd5b87356136f081613522565b9650602088013567ffffffffffffffff8082111561370d57600080fd5b6137198b838c01613643565b909850965060408a013591508082111561373257600080fd5b61373e8b838c01613643565b909650945060608a013591508082111561375757600080fd5b506137648a828b01613688565b989b979a50959850939692959293505050565b60006020828403121561378957600080fd5b5035919050565b6000806000604084860312156137a557600080fd5b83359250602084013567ffffffffffffffff8111156137c357600080fd5b6137cf86828701613688565b9497909650939450505050565b600080604083850312156137ef57600080fd5b50508035926020909101359150565b60008060008060008060008060a0898b03121561381a57600080fd5b883561382581613522565b9750602089013561383581613522565b9650604089013567ffffffffffffffff8082111561385257600080fd5b61385e8c838d01613643565b909850965060608b013591508082111561387757600080fd5b6138838c838d01613643565b909650945060808b013591508082111561389c57600080fd5b506138a98b828c01613688565b999c989b5096995094979396929594505050565b600080604083850312156138d057600080fd5b8235915060208301356138e281613522565b809150509250929050565b8183528181602085013750600060208284010152600060207fffffffffffffffffffffffffffffffffffffffffffffffffffffffffffffffe0601f840116840101905092915050565b60208152600061084d6020830184866138ed565b6000806000806040858703121561396057600080fd5b843567ffffffffffffffff8082111561397857600080fd5b61398488838901613643565b9096509450602087013591508082111561399d57600080fd5b506139aa87828801613643565b95989497509550505050565b60008151808452602080850194506020840160005b838110156139e7578151875295820195908201906001016139cb565b509495945050505050565b60208152600061058160208301846139b6565b600060208284031215613a1757600080fd5b81356135bb81613522565b600080600080600060808688031215613a3a57600080fd5b8535613a4581613522565b94506020860135935060408601359250606086013567ffffffffffffffff811115613a6f57600080fd5b613a7b88828901613688565b969995985093965092949392505050565b600080600080600060608688031215613aa457600080fd5b853567ffffffffffffffff80821115613abc57600080fd5b613ac889838a01613688565b90975095506020880135915080821115613ae157600080fd5b50613aee88828901613688565b9094509250506040860135613b0281613522565b809150509295509295909350565b60008060008060008060608789031215613b2957600080fd5b863567ffffffffffffffff80821115613b4157600080fd5b613b4d8a838b01613643565b90985096506020890135915080821115613b6657600080fd5b613b728a838b01613643565b90965094506040890135915080821115613b8b57600080fd5b50613b9889828a01613643565b979a9699509497509295939492505050565b801515811461090c57600080fd5b60008060408385031215613bcb57600080fd5b8235613bd681613522565b915060208301356138e281613baa565b6000806000806000806000806080898b031215613c0257600080fd5b883567ffffffffffffffff80821115613c1a57600080fd5b613c268c838d01613643565b909a50985060208b0135915080821115613c3f57600080fd5b613c4b8c838d01613643565b909850965060408b0135915080821115613c6457600080fd5b613c708c838d01613643565b909650945060608b013591508082111561389c57600080fd5b60008060408385031215613c9c57600080fd5b8235613ca781613522565b915060208301356138e281613522565b60008060008060008060a08789031215613cd057600080fd5b8635613cdb81613522565b95506020870135613ceb81613522565b94506040870135935060608701359250608087013567ffffffffffffffff811115613d1557600080fd5b613b9889828a01613688565b7f4e487b7100000000000000000000000000000000000000000000000000000000600052603260045260246000fd5b60008083357fffffffffffffffffffffffffffffffffffffffffffffffffffffffffffffffe1843603018112613d8557600080fd5b83018035915067ffffffffffffffff821115613da057600080fd5b6020019150368190038213156107b457600080fd5b600060208284031215613dc757600080fd5b81516135bb81613baa565b7f4e487b7100000000000000000000000000000000000000000000000000000000600052601160045260246000fd5b8181038181111561058457610584613dd2565b600181811c90821680613e2857607f821691505b602082108103613e61577f4e487b7100000000000000000000000000000000000000000000000000000000600052602260045260246000fd5b50919050565b604081526000613e7a60408301856139b6565b8281036020840152613e8c81856139b6565b95945050505050565b7f4e487b7100000000000000000000000000000000000000000000000000000000600052604160045260246000fd5b600060208284031215613ed657600080fd5b815167ffffffffffffffff80821115613eee57600080fd5b818401915084601f830112613f0257600080fd5b815181811115613f1457613f14613e95565b604051601f82017fffffffffffffffffffffffffffffffffffffffffffffffffffffffffffffffe0908116603f01168101908382118183101715613f5a57613f5a613e95565b81604052828152876020848701011115613f7357600080fd5b6134388360208301602088016135c2565b808202811582820484141761058457610584613dd2565b600082613fd1577f4e487b7100000000000000000000000000000000000000000000000000000000600052601260045260246000fd5b500490565b81835260007f07ffffffffffffffffffffffffffffffffffffffffffffffffffffffffffffff83111561400857600080fd5b8260051b80836020870137939093016020019392505050565b604081526000614035604083018688613fd6565b8281036020840152613438818587613fd6565b601f821115610818576000816000526020600020601f850160051c810160208610156140715750805b601f850160051c820191505b818110156108df5782815560010161407d565b67ffffffffffffffff8311156140a8576140a8613e95565b6140bc836140b68354613e14565b83614048565b6000601f84116001811461410e57600085156140d85750838201355b7fffffffffffffffffffffffffffffffffffffffffffffffffffffffffffffffff600387901b1c1916600186901b178355610a40565b6000838152602090207fffffffffffffffffffffffffffffffffffffffffffffffffffffffffffffffe0861690835b8281101561415d578685013582556020948501946001909201910161413d565b5086821015614198577fffffffffffffffffffffffffffffffffffffffffffffffffffffffffffffffff60f88860031b161c19848701351681555b505060018560011b0183555050505050565b600073ffffffffffffffffffffffffffffffffffffffff808816835280871660208401525060a060408301526141e360a08301866139b6565b82810360608401526141f581866139b6565b9050828103608084015261420981856135e6565b98975050505050505050565b60006020828403121561422757600080fd5b81516135bb81613570565b73ffffffffffffffffffffffffffffffffffffffff8416815260606020820152600061426160608301856139b6565b828103604084015261427381856139b6565b9695505050505050565b600073ffffffffffffffffffffffffffffffffffffffff808816835280871660208401525084604083015283606083015260a0608083015261343860a08301846135e6565b600080858511156142d257600080fd5b838611156142df57600080fd5b5050820193919092039150565b600082516142fe8184602087016135c2565b919091019291505056fea264697066735822122067ab82b9654288ed5ca6ca2c546effea381bb3a56dbeaad7f9e2d9b1f4ca8cae64736f6c63430008180033",
  "linkReferences": {},
  "deployedLinkReferences": {}
}