{
  "_format": "hh-sol-artifact-1",
  "contractName": "ERC1155FullProxiedMock",
  "sourceName": "contracts/mocks/token/ERC1155/preset/proxied/ERC1155FullProxiedMock.sol",
  "abi": [
    {
      "inputs": [
        {
          "internalType": "contract IForwarderRegistry",
          "name": "forwarderRegistry",
          "type": "address"
        }
      ],
      "stateMutability": "nonpayable",
      "type": "constructor"
    },
    {
      "inputs": [],
      "name": "ERC1155BalanceOfAddressZero",
      "type": "error"
    },
    {
      "inputs": [
        {
          "internalType": "address",
          "name": "recipient",
          "type": "address"
        },
        {
          "internalType": "uint256",
          "name": "id",
          "type": "uint256"
        },
        {
          "internalType": "uint256",
          "name": "balance",
          "type": "uint256"
        },
        {
          "internalType": "uint256",
          "name": "value",
          "type": "uint256"
        }
      ],
      "name": "ERC1155BalanceOverflow",
      "type": "error"
    },
    {
      "inputs": [
        {
          "internalType": "address",
          "name": "owner",
          "type": "address"
        },
        {
          "internalType": "uint256",
          "name": "id",
          "type": "uint256"
        },
        {
          "internalType": "uint256",
          "name": "balance",
          "type": "uint256"
        },
        {
          "internalType": "uint256",
          "name": "value",
          "type": "uint256"
        }
      ],
      "name": "ERC1155InsufficientBalance",
      "type": "error"
    },
    {
      "inputs": [],
      "name": "ERC1155MintToAddressZero",
      "type": "error"
    },
    {
      "inputs": [
        {
          "internalType": "address",
          "name": "sender",
          "type": "address"
        },
        {
          "internalType": "address",
          "name": "owner",
          "type": "address"
        }
      ],
      "name": "ERC1155NonApproved",
      "type": "error"
    },
    {
      "inputs": [
        {
          "internalType": "address",
          "name": "recipient",
          "type": "address"
        },
        {
          "internalType": "uint256[]",
          "name": "ids",
          "type": "uint256[]"
        },
        {
          "internalType": "uint256[]",
          "name": "values",
          "type": "uint256[]"
        }
      ],
      "name": "ERC1155SafeBatchTransferRejected",
      "type": "error"
    },
    {
      "inputs": [
        {
          "internalType": "address",
          "name": "recipient",
          "type": "address"
        },
        {
          "internalType": "uint256",
          "name": "id",
          "type": "uint256"
        },
        {
          "internalType": "uint256",
          "name": "value",
          "type": "uint256"
        }
      ],
      "name": "ERC1155SafeTransferRejected",
      "type": "error"
    },
    {
      "inputs": [
        {
          "internalType": "address",
          "name": "account",
          "type": "address"
        }
      ],
      "name": "ERC1155SelfApprovalForAll",
      "type": "error"
    },
    {
      "inputs": [],
      "name": "ERC1155TransferToAddressZero",
      "type": "error"
    },
    {
      "inputs": [
        {
          "internalType": "uint256",
          "name": "percentage",
          "type": "uint256"
        }
      ],
      "name": "ERC2981IncorrectRoyaltyPercentage",
      "type": "error"
    },
    {
      "inputs": [],
      "name": "ERC2981IncorrectRoyaltyReceiver",
      "type": "error"
    },
    {
      "inputs": [],
      "name": "IllegalInterfaceId",
      "type": "error"
    },
    {
      "inputs": [],
      "name": "InconsistentArrayLengths",
      "type": "error"
    },
    {
      "inputs": [
        {
          "internalType": "uint256",
          "name": "currentPhase",
          "type": "uint256"
        },
        {
          "internalType": "uint256",
          "name": "newPhase",
          "type": "uint256"
        }
      ],
      "name": "InitializationPhaseAlreadyReached",
      "type": "error"
    },
    {
      "inputs": [
        {
          "internalType": "address",
          "name": "account",
          "type": "address"
        }
      ],
      "name": "NotContractOwner",
      "type": "error"
    },
    {
      "inputs": [
        {
          "internalType": "address",
          "name": "account",
          "type": "address"
        }
      ],
      "name": "NotMetadataResolver",
      "type": "error"
    },
    {
      "inputs": [
        {
          "internalType": "bytes32",
          "name": "role",
          "type": "bytes32"
        },
        {
          "internalType": "address",
          "name": "account",
          "type": "address"
        }
      ],
      "name": "NotRoleHolder",
      "type": "error"
    },
    {
      "inputs": [
        {
          "internalType": "address",
          "name": "operator",
          "type": "address"
        }
      ],
      "name": "OperatorNotAllowed",
      "type": "error"
    },
    {
      "anonymous": false,
      "inputs": [
        {
          "indexed": true,
          "internalType": "address",
          "name": "owner",
          "type": "address"
        },
        {
          "indexed": true,
          "internalType": "address",
          "name": "operator",
          "type": "address"
        },
        {
          "indexed": false,
          "internalType": "bool",
          "name": "approved",
          "type": "bool"
        }
      ],
      "name": "ApprovalForAll",
      "type": "event"
    },
    {
      "anonymous": false,
      "inputs": [
        {
          "indexed": true,
          "internalType": "address",
          "name": "previousOwner",
          "type": "address"
        },
        {
          "indexed": true,
          "internalType": "address",
          "name": "newOwner",
          "type": "address"
        }
      ],
      "name": "OwnershipTransferred",
      "type": "event"
    },
    {
      "anonymous": false,
      "inputs": [
        {
          "indexed": false,
          "internalType": "bytes32",
          "name": "role",
          "type": "bytes32"
        },
        {
          "indexed": false,
          "internalType": "address",
          "name": "account",
          "type": "address"
        },
        {
          "indexed": false,
          "internalType": "address",
          "name": "operator",
          "type": "address"
        }
      ],
      "name": "RoleGranted",
      "type": "event"
    },
    {
      "anonymous": false,
      "inputs": [
        {
          "indexed": false,
          "internalType": "bytes32",
          "name": "role",
          "type": "bytes32"
        },
        {
          "indexed": false,
          "internalType": "address",
          "name": "account",
          "type": "address"
        },
        {
          "indexed": false,
          "internalType": "address",
          "name": "operator",
          "type": "address"
        }
      ],
      "name": "RoleRevoked",
      "type": "event"
    },
    {
      "anonymous": false,
      "inputs": [
        {
          "indexed": true,
          "internalType": "address",
          "name": "operator",
          "type": "address"
        },
        {
          "indexed": true,
          "internalType": "address",
          "name": "from",
          "type": "address"
        },
        {
          "indexed": true,
          "internalType": "address",
          "name": "to",
          "type": "address"
        },
        {
          "indexed": false,
          "internalType": "uint256[]",
          "name": "ids",
          "type": "uint256[]"
        },
        {
          "indexed": false,
          "internalType": "uint256[]",
          "name": "values",
          "type": "uint256[]"
        }
      ],
      "name": "TransferBatch",
      "type": "event"
    },
    {
      "anonymous": false,
      "inputs": [
        {
          "indexed": true,
          "internalType": "address",
          "name": "operator",
          "type": "address"
        },
        {
          "indexed": true,
          "internalType": "address",
          "name": "from",
          "type": "address"
        },
        {
          "indexed": true,
          "internalType": "address",
          "name": "to",
          "type": "address"
        },
        {
          "indexed": false,
          "internalType": "uint256",
          "name": "id",
          "type": "uint256"
        },
        {
          "indexed": false,
          "internalType": "uint256",
          "name": "value",
          "type": "uint256"
        }
      ],
      "name": "TransferSingle",
      "type": "event"
    },
    {
      "anonymous": false,
      "inputs": [
        {
          "indexed": false,
          "internalType": "string",
          "name": "value",
          "type": "string"
        },
        {
          "indexed": true,
          "internalType": "uint256",
          "name": "id",
          "type": "uint256"
        }
      ],
      "name": "URI",
      "type": "event"
    },
    {
      "inputs": [],
      "name": "MINTER_ROLE",
      "outputs": [
        {
          "internalType": "bytes32",
          "name": "",
          "type": "bytes32"
        }
      ],
      "stateMutability": "view",
      "type": "function"
    },
    {
      "inputs": [],
      "name": "ROYALTY_FEE_DENOMINATOR",
      "outputs": [
        {
          "internalType": "uint256",
          "name": "",
          "type": "uint256"
        }
      ],
      "stateMutability": "view",
      "type": "function"
    },
    {
      "inputs": [],
      "name": "__msgData",
      "outputs": [
        {
          "internalType": "bytes",
          "name": "",
          "type": "bytes"
        }
      ],
      "stateMutability": "view",
      "type": "function"
    },
    {
      "inputs": [
        {
          "internalType": "address",
          "name": "owner",
          "type": "address"
        },
        {
          "internalType": "uint256",
          "name": "id",
          "type": "uint256"
        }
      ],
      "name": "balanceOf",
      "outputs": [
        {
          "internalType": "uint256",
          "name": "balance",
          "type": "uint256"
        }
      ],
      "stateMutability": "view",
      "type": "function"
    },
    {
      "inputs": [
        {
          "internalType": "address[]",
          "name": "owners",
          "type": "address[]"
        },
        {
          "internalType": "uint256[]",
          "name": "ids",
          "type": "uint256[]"
        }
      ],
      "name": "balanceOfBatch",
      "outputs": [
        {
          "internalType": "uint256[]",
          "name": "balances",
          "type": "uint256[]"
        }
      ],
      "stateMutability": "view",
      "type": "function"
    },
    {
      "inputs": [
        {
          "internalType": "uint256[]",
          "name": "tokenIds",
          "type": "uint256[]"
        },
        {
          "internalType": "string[]",
          "name": "tokenURIs",
          "type": "string[]"
        }
      ],
      "name": "batchSetTokenURI",
      "outputs": [],
      "stateMutability": "nonpayable",
      "type": "function"
    },
    {
      "inputs": [],
      "name": "forwarderRegistry",
      "outputs": [
        {
          "internalType": "contract IForwarderRegistry",
          "name": "",
          "type": "address"
        }
      ],
      "stateMutability": "view",
      "type": "function"
    },
    {
      "inputs": [
        {
          "internalType": "bytes32",
          "name": "role",
          "type": "bytes32"
        },
        {
          "internalType": "address",
          "name": "account",
          "type": "address"
        }
      ],
      "name": "grantRole",
      "outputs": [],
      "stateMutability": "nonpayable",
      "type": "function"
    },
    {
      "inputs": [
        {
          "internalType": "bytes32",
          "name": "role",
          "type": "bytes32"
        },
        {
          "internalType": "address",
          "name": "account",
          "type": "address"
        }
      ],
      "name": "hasRole",
      "outputs": [
        {
          "internalType": "bool",
          "name": "hasRole_",
          "type": "bool"
        }
      ],
      "stateMutability": "view",
      "type": "function"
    },
    {
      "inputs": [
        {
          "internalType": "string",
          "name": "tokenName",
          "type": "string"
        },
        {
          "internalType": "string",
          "name": "tokenSymbol",
          "type": "string"
        },
        {
          "internalType": "contract ITokenMetadataResolver",
          "name": "metadataResolver",
          "type": "address"
        },
        {
          "internalType": "contract IOperatorFilterRegistry",
          "name": "filterRegistry",
          "type": "address"
        }
      ],
      "name": "init",
      "outputs": [],
      "stateMutability": "nonpayable",
      "type": "function"
    },
    {
      "inputs": [
        {
          "internalType": "address",
          "name": "owner",
          "type": "address"
        },
        {
          "internalType": "address",
          "name": "operator",
          "type": "address"
        }
      ],
      "name": "isApprovedForAll",
      "outputs": [
        {
          "internalType": "bool",
          "name": "approvedForAll",
          "type": "bool"
        }
      ],
      "stateMutability": "view",
      "type": "function"
    },
    {
      "inputs": [
        {
          "internalType": "address",
          "name": "forwarder",
          "type": "address"
        }
      ],
      "name": "isTrustedForwarder",
      "outputs": [
        {
          "internalType": "bool",
          "name": "",
          "type": "bool"
        }
      ],
      "stateMutability": "view",
      "type": "function"
    },
    {
      "inputs": [],
      "name": "metadataResolver",
      "outputs": [
        {
          "internalType": "contract ITokenMetadataResolver",
          "name": "tokenMetadataResolver",
          "type": "address"
        }
      ],
      "stateMutability": "view",
      "type": "function"
    },
    {
      "inputs": [],
      "name": "name",
      "outputs": [
        {
          "internalType": "string",
          "name": "tokenName",
          "type": "string"
        }
      ],
      "stateMutability": "view",
      "type": "function"
    },
    {
      "inputs": [],
      "name": "operatorFilterRegistry",
      "outputs": [
        {
          "internalType": "contract IOperatorFilterRegistry",
          "name": "",
          "type": "address"
        }
      ],
      "stateMutability": "view",
      "type": "function"
    },
    {
      "inputs": [],
      "name": "owner",
      "outputs": [
        {
          "internalType": "address",
          "name": "",
          "type": "address"
        }
      ],
      "stateMutability": "view",
      "type": "function"
    },
    {
      "inputs": [
        {
          "internalType": "address[]",
          "name": "accounts",
          "type": "address[]"
        },
        {
          "internalType": "contract IERC20[]",
          "name": "tokens",
          "type": "address[]"
        },
        {
          "internalType": "uint256[]",
          "name": "amounts",
          "type": "uint256[]"
        }
      ],
      "name": "recoverERC20s",
      "outputs": [],
      "stateMutability": "nonpayable",
      "type": "function"
    },
    {
      "inputs": [
        {
          "internalType": "address[]",
          "name": "accounts",
          "type": "address[]"
        },
        {
          "internalType": "contract IERC721[]",
          "name": "contracts",
          "type": "address[]"
        },
        {
          "internalType": "uint256[]",
          "name": "tokenIds",
          "type": "uint256[]"
        }
      ],
      "name": "recoverERC721s",
      "outputs": [],
      "stateMutability": "nonpayable",
      "type": "function"
    },
    {
      "inputs": [
        {
          "internalType": "address payable[]",
          "name": "accounts",
          "type": "address[]"
        },
        {
          "internalType": "uint256[]",
          "name": "amounts",
          "type": "uint256[]"
        }
      ],
      "name": "recoverETH",
      "outputs": [],
      "stateMutability": "nonpayable",
      "type": "function"
    },
    {
      "inputs": [
        {
          "internalType": "bytes32",
          "name": "role",
          "type": "bytes32"
        }
      ],
      "name": "renounceRole",
      "outputs": [],
      "stateMutability": "nonpayable",
      "type": "function"
    },
    {
      "inputs": [
        {
          "internalType": "bytes32",
          "name": "role",
          "type": "bytes32"
        },
        {
          "internalType": "address",
          "name": "account",
          "type": "address"
        }
      ],
      "name": "revokeRole",
      "outputs": [],
      "stateMutability": "nonpayable",
      "type": "function"
    },
    {
      "inputs": [
        {
          "internalType": "uint256",
          "name": "tokenId",
          "type": "uint256"
        },
        {
          "internalType": "uint256",
          "name": "salePrice",
          "type": "uint256"
        }
      ],
      "name": "royaltyInfo",
      "outputs": [
        {
          "internalType": "address",
          "name": "receiver",
          "type": "address"
        },
        {
          "internalType": "uint256",
          "name": "royaltyAmount",
          "type": "uint256"
        }
      ],
      "stateMutability": "view",
      "type": "function"
    },
    {
      "inputs": [
        {
          "internalType": "address",
          "name": "to",
          "type": "address"
        },
        {
          "internalType": "uint256[]",
          "name": "ids",
          "type": "uint256[]"
        },
        {
          "internalType": "uint256[]",
          "name": "values",
          "type": "uint256[]"
        },
        {
          "internalType": "bytes",
          "name": "data",
          "type": "bytes"
        }
      ],
      "name": "safeBatchMint",
      "outputs": [],
      "stateMutability": "nonpayable",
      "type": "function"
    },
    {
      "inputs": [
        {
          "internalType": "address",
          "name": "from",
          "type": "address"
        },
        {
          "internalType": "address",
          "name": "to",
          "type": "address"
        },
        {
          "internalType": "uint256[]",
          "name": "ids",
          "type": "uint256[]"
        },
        {
          "internalType": "uint256[]",
          "name": "values",
          "type": "uint256[]"
        },
        {
          "internalType": "bytes",
          "name": "data",
          "type": "bytes"
        }
      ],
      "name": "safeBatchTransferFrom",
      "outputs": [],
      "stateMutability": "nonpayable",
      "type": "function"
    },
    {
      "inputs": [
        {
          "internalType": "address[]",
          "name": "recipients",
          "type": "address[]"
        },
        {
          "internalType": "uint256[]",
          "name": "ids",
          "type": "uint256[]"
        },
        {
          "internalType": "uint256[]",
          "name": "values",
          "type": "uint256[]"
        },
        {
          "internalType": "bytes",
          "name": "data",
          "type": "bytes"
        }
      ],
      "name": "safeDeliver",
      "outputs": [],
      "stateMutability": "nonpayable",
      "type": "function"
    },
    {
      "inputs": [
        {
          "internalType": "address",
          "name": "to",
          "type": "address"
        },
        {
          "internalType": "uint256",
          "name": "id",
          "type": "uint256"
        },
        {
          "internalType": "uint256",
          "name": "value",
          "type": "uint256"
        },
        {
          "internalType": "bytes",
          "name": "data",
          "type": "bytes"
        }
      ],
      "name": "safeMint",
      "outputs": [],
      "stateMutability": "nonpayable",
      "type": "function"
    },
    {
      "inputs": [
        {
          "internalType": "address",
          "name": "from",
          "type": "address"
        },
        {
          "internalType": "address",
          "name": "to",
          "type": "address"
        },
        {
          "internalType": "uint256",
          "name": "id",
          "type": "uint256"
        },
        {
          "internalType": "uint256",
          "name": "value",
          "type": "uint256"
        },
        {
          "internalType": "bytes",
          "name": "data",
          "type": "bytes"
        }
      ],
      "name": "safeTransferFrom",
      "outputs": [],
      "stateMutability": "nonpayable",
      "type": "function"
    },
    {
      "inputs": [
        {
          "internalType": "address",
          "name": "operator",
          "type": "address"
        },
        {
          "internalType": "bool",
          "name": "approved",
          "type": "bool"
        }
      ],
      "name": "setApprovalForAll",
      "outputs": [],
      "stateMutability": "nonpayable",
      "type": "function"
    },
    {
      "inputs": [
        {
          "internalType": "uint256",
          "name": "percentage",
          "type": "uint256"
        }
      ],
      "name": "setRoyaltyPercentage",
      "outputs": [],
      "stateMutability": "nonpayable",
      "type": "function"
    },
    {
      "inputs": [
        {
          "internalType": "address",
          "name": "receiver",
          "type": "address"
        }
      ],
      "name": "setRoyaltyReceiver",
      "outputs": [],
      "stateMutability": "nonpayable",
      "type": "function"
    },
    {
      "inputs": [
        {
          "internalType": "uint256",
          "name": "tokenId",
          "type": "uint256"
        },
        {
          "internalType": "string",
          "name": "tokenURI",
          "type": "string"
        }
      ],
      "name": "setTokenURI",
      "outputs": [],
      "stateMutability": "nonpayable",
      "type": "function"
    },
    {
      "inputs": [
        {
          "internalType": "bytes4",
          "name": "interfaceId",
          "type": "bytes4"
        }
      ],
      "name": "supportsInterface",
      "outputs": [
        {
          "internalType": "bool",
          "name": "",
          "type": "bool"
        }
      ],
      "stateMutability": "view",
      "type": "function"
    },
    {
      "inputs": [],
      "name": "symbol",
      "outputs": [
        {
          "internalType": "string",
          "name": "tokenSymbol",
          "type": "string"
        }
      ],
      "stateMutability": "view",
      "type": "function"
    },
    {
      "inputs": [
        {
          "internalType": "address",
          "name": "newOwner",
          "type": "address"
        }
      ],
      "name": "transferOwnership",
      "outputs": [],
      "stateMutability": "nonpayable",
      "type": "function"
    },
    {
      "inputs": [
        {
          "internalType": "contract IOperatorFilterRegistry",
          "name": "registry",
          "type": "address"
        }
      ],
      "name": "updateOperatorFilterRegistry",
      "outputs": [],
      "stateMutability": "nonpayable",
      "type": "function"
    },
    {
      "inputs": [
        {
          "internalType": "uint256",
          "name": "tokenId",
          "type": "uint256"
        }
      ],
      "name": "uri",
      "outputs": [
        {
          "internalType": "string",
          "name": "metadataURI",
          "type": "string"
        }
      ],
      "stateMutability": "view",
      "type": "function"
    }
  ],
  "bytecode": "0x60a06040523480156200001157600080fd5b50604051620045a9380380620045a9833981016040819052620000349162000046565b6001600160a01b031660805262000078565b6000602082840312156200005957600080fd5b81516001600160a01b03811681146200007157600080fd5b9392505050565b6080516144f2620000b760003960008181610360015281816104110152818161299501528181612a1d015281816131c6015261320401526144f26000f3fe608060405234801561001057600080fd5b506004361061025b5760003560e01c806373c8a95811610145578063c3666c36116100bd578063e8ab9ccc1161008c578063f242432a11610071578063f242432a14610583578063f2fde38b14610596578063f7ba94bd146105a957600080fd5b8063e8ab9ccc1461055d578063e985e9c51461057057600080fd5b8063c3666c3614610506578063d539139314610519578063d547741f14610540578063e1a8bf2c1461055357600080fd5b806391d1485411610114578063a0c76f62116100f9578063a0c76f62146104e3578063a22cb465146104eb578063b0ccc31e146104fe57600080fd5b806391d14854146104c857806395d89b41146104db57600080fd5b806373c8a958146104875780638bb9c5bf1461049a5780638da5cb5b146104ad5780638dc251e3146104b557600080fd5b80632b4c9f16116101d85780634e1273f4116101a75780635cfa92971161018c5780635cfa92971461044e57806361ba27da146104615780636706467b1461047457600080fd5b80634e1273f4146103e1578063572b6c051461040157600080fd5b80632b4c9f161461035e5780632eb2c2d6146103a55780632f2ff15d146103b857806331e66e1e146103cb57600080fd5b80630e07f8541161022f578063114ba8ee11610214578063114ba8ee146102f9578063162094c41461030c5780632a55205a1461031f57600080fd5b80630e07f854146102d35780630e89341c146102e657600080fd5b8062fdd58e1461026057806301ffc9a71461028657806306fdde03146102a95780630d6a5bbb146102be575b600080fd5b61027361026e3660046136ea565b6105bc565b6040519081526020015b60405180910390f35b610299610294366004613744565b6105db565b604051901515815260200161027d565b6102b16105ef565b60405161027d91906137d6565b6102d16102cc366004613870565b610606565b005b6102d16102e136600461391d565b610701565b6102b16102f43660046139b2565b610776565b6102d16103073660046139cb565b61078c565b6102d161031a3660046139e8565b6107f7565b61033261032d366004613a34565b6108c9565b6040805173ffffffffffffffffffffffffffffffffffffffff909316835260208301919091520161027d565b7f00000000000000000000000000000000000000000000000000000000000000005b60405173ffffffffffffffffffffffffffffffffffffffff909116815260200161027d565b6102d16103b3366004613a56565b6108ec565b6102d16103c6366004613b15565b610939565b6103d361096c565b60405161027d929190613b8e565b6103f46103ef366004613ba2565b61097f565b60405161027d9190613c49565b61029961040f3660046139cb565b7f000000000000000000000000000000000000000000000000000000000000000073ffffffffffffffffffffffffffffffffffffffff90811691161490565b6102d161045c366004613c5c565b6109a4565b6102d161046f3660046139b2565b610a2e565b6102d1610482366004613ba2565b610a4b565b6102d1610495366004613cc6565b610b82565b6102d16104a83660046139b2565b610c6d565b610380610c88565b6102d16104c33660046139cb565b610caf565b6102996104d6366004613b15565b610ccc565b6102b1610d10565b610380610d22565b6102d16104f9366004613d6e565b610d2f565b610380610d68565b6102d1610514366004613cc6565b610d75565b6102737f6d696e746572000000000000000000000000000000000000000000000000000081565b6102d161054e366004613b15565b610eec565b610273620186a081565b6102d161056b366004613d9c565b610f1a565b61029961057e366004613e3f565b611034565b6102d1610591366004613e6d565b611082565b6102d16105a43660046139cb565b6110c2565b6102d16105b7366004613ba2565b6110dd565b60006105d283836105cb611193565b91906111c1565b90505b92915050565b60006105d5826105e9611245565b90611273565b60606106016105fc61134d565b61137b565b905090565b6000610610611411565b90506106467f6d696e74657200000000000000000000000000000000000000000000000000008261063f61141b565b9190611449565b6106f7818989898080602002602001604051908101604052809392919081815260200183836020028082843760009201919091525050604080516020808d0282810182019093528c82529093508c92508b91829185019084908082843760009201919091525050604080516020601f8c018190048102820181019092528a815292508a91508990819084018382808284376000920191909152506106ed9250611193915050565b94939291906114cf565b5050505050505050565b61071a61070c611411565b610714611654565b90611682565b6107226116c1565b61072a6116f8565b610732611726565b61073a611754565b610742611782565b61075c868686868661075261134d565b94939291906117b0565b61076e8161076861184a565b90611878565b505050505050565b60606105d5308361078561134d565b91906118e8565b6107a5610797611411565b61079f611654565b906119a8565b6107f4816107b161184a565b9081547fffffffffffffffffffffffff00000000000000000000000000000000000000001673ffffffffffffffffffffffffffffffffffffffff91909116179055565b50565b61081f61080261134d565b6002015473ffffffffffffffffffffffffffffffffffffffff1690565b73ffffffffffffffffffffffffffffffffffffffff163373ffffffffffffffffffffffffffffffffffffffff161461088a576040517f220606710000000000000000000000000000000000000000000000000000000081523360048201526024015b60405180910390fd5b827f6bb7ff708619ba0610cba295a58592e0451dee2622938c8755667688daf3529b83836040516108bc929190613b8e565b60405180910390a2505050565b6000806108e084846108d9611a13565b9190611a41565b915091505b9250929050565b60006108f6611411565b905061090c818a61090561184a565b9190611aeb565b61092e818a8a8a8a8a8a8a8a610920611193565b989796959493929190611b28565b505050505050505050565b6000610943611411565b90506109518161079f611654565b61096783838361095f61141b565b929190611db0565b505050565b366000610977611e87565b915091509091565b606061099985858585610990611193565b93929190611e92565b90505b949350505050565b60006109ae611411565b90506109dd7f6d696e74657200000000000000000000000000000000000000000000000000008261063f61141b565b61076e8187878787878080601f016020809104026020016040519081016040528093929190818152602001838380828437600092019190915250610a249250611193915050565b9493929190611fa0565b610a39610797611411565b6107f481610a45611a13565b9061207e565b828114610a84576040517f6582533600000000000000000000000000000000000000000000000000000000815260040160405180910390fd5b610a8f61080261134d565b73ffffffffffffffffffffffffffffffffffffffff163373ffffffffffffffffffffffffffffffffffffffff1614610af5576040517f22060671000000000000000000000000000000000000000000000000000000008152336004820152602401610881565b60005b808414610b7b57848482818110610b1157610b11613ed7565b905060200201357f6bb7ff708619ba0610cba295a58592e0451dee2622938c8755667688daf3529b848484818110610b4b57610b4b613ed7565b9050602002810190610b5d9190613f06565b604051610b6b929190613b8e565b60405180910390a2600101610af8565b5050505050565b610b8d610797611411565b848381141580610b9d5750808214155b15610bd4576040517f6582533600000000000000000000000000000000000000000000000000000000815260040160405180910390fd5b60005b8181146106f757610c65888883818110610bf357610bf3613ed7565b9050602002016020810190610c0891906139cb565b858584818110610c1a57610c1a613ed7565b90506020020135888885818110610c3357610c33613ed7565b9050602002016020810190610c4891906139cb565b73ffffffffffffffffffffffffffffffffffffffff169190612104565b600101610bd7565b6107f4610c78611411565b82610c8161141b565b9190612191565b6000610601610c95611654565b5473ffffffffffffffffffffffffffffffffffffffff1690565b610cba610797611411565b6107f481610cc6611a13565b90612235565b60006105d28383610cdb61141b565b60009283526020908152604080842073ffffffffffffffffffffffffffffffffffffffff909316845291905290205460ff1690565b6060610601610d1d61134d565b612282565b600061060161080261134d565b8015610d4757610d4782610d4161184a565b90612293565b610d64610d52611411565b8383610d5c611193565b92919061229d565b5050565b6000610601610c9561184a565b610d80610797611411565b848381141580610d905750808214155b15610dc7576040517f6582533600000000000000000000000000000000000000000000000000000000815260040160405180910390fd5b60005b8181146106f757858582818110610de357610de3613ed7565b9050602002016020810190610df891906139cb565b73ffffffffffffffffffffffffffffffffffffffff166323b872dd308a8a85818110610e2657610e26613ed7565b9050602002016020810190610e3b91906139cb565b878786818110610e4d57610e4d613ed7565b6040517fffffffff0000000000000000000000000000000000000000000000000000000060e088901b16815273ffffffffffffffffffffffffffffffffffffffff958616600482015294909316602485015250602090910201356044820152606401600060405180830381600087803b158015610ec957600080fd5b505af1158015610edd573d6000803e3d6000fd5b50505050806001019050610dca565b6000610ef6611411565b9050610f048161079f611654565b610967838383610f1261141b565b9291906123b5565b6000610f24611411565b9050610f537f6d696e74657200000000000000000000000000000000000000000000000000008261063f61141b565b61092e818a8a8080602002602001604051908101604052809392919081815260200183836020028082843760009201919091525050604080516020808e0282810182019093528d82529093508d92508c91829185019084908082843760009201919091525050604080516020808d0282810182019093528c82529093508c92508b91829185019084908082843760009201919091525050604080516020601f8c018190048102820181019092528a815292508a915089908190840183828082843760009201919091525061102a9250611193915050565b949392919061247f565b60006105d28383611043611193565b919073ffffffffffffffffffffffffffffffffffffffff9182166000908152600193909301602090815260408085209290931684525290205460ff1690565b600061108c611411565b905061109b818861090561184a565b6110b9818888888888886110ad611193565b96959493929190612541565b50505050505050565b6107f46110cd611411565b826110d6611654565b91906126e4565b6110e8610797611411565b82818114611122576040517f6582533600000000000000000000000000000000000000000000000000000000815260040160405180910390fd5b60005b81811461076e5761118b84848381811061114157611141613ed7565b9050602002013587878481811061115a5761115a613ed7565b905060200201602081019061116f91906139cb565b73ffffffffffffffffffffffffffffffffffffffff16906127f8565b600101611125565b6000806105d560017f5ccf5846fa27a68fafc8e588671a68f5e67c2f9b56af4263806a4d71735e8613613f9a565b600073ffffffffffffffffffffffffffffffffffffffff8316611210576040517fca2434a500000000000000000000000000000000000000000000000000000000815260040160405180910390fd5b5060009081526020928352604080822073ffffffffffffffffffffffffffffffffffffffff9390931682529190925290205490565b6000806105d560017fca9d3e17f264b0f3984e2634e94adb37fa3e6a8103f06aeae6fa59e21c769f5e613f9a565b60007c01000000000000000000000000000000000000000000000000000000007fffffffff000000000000000000000000000000000000000000000000000000008316016112c3575060006105d5565b7ffe003659000000000000000000000000000000000000000000000000000000007fffffffff00000000000000000000000000000000000000000000000000000000831601611314575060016105d5565b507fffffffff00000000000000000000000000000000000000000000000000000000166000908152602091909152604090205460ff1690565b6000806105d560017f7ea68fd2dcf1c056b94db6a0a537aa80d26fa9ab1eacd85da1ba0b61b7e7a8a5613f9a565b606081600001805461138c90613fad565b80601f01602080910402602001604051908101604052809291908181526020018280546113b890613fad565b80156114055780601f106113da57610100808354040283529160200191611405565b820191906000526020600020905b8154815290600101906020018083116113e857829003601f168201915b50505050509050919050565b6000610601612952565b6000806105d560017fc8827d3282af6f37b64c3e9e6f3ac9df286ab0bb0fccd6f8661bf19adb368b23613f9a565b60008281526020848152604080832073ffffffffffffffffffffffffffffffffffffffff8516845290915290205460ff16610967576040517f7aa728820000000000000000000000000000000000000000000000000000000081526004810183905273ffffffffffffffffffffffffffffffffffffffff82166024820152604401610881565b73ffffffffffffffffffffffffffffffffffffffff841661151c576040517f021149bd00000000000000000000000000000000000000000000000000000000815260040160405180910390fd5b825182518114611558576040517f6582533600000000000000000000000000000000000000000000000000000000815260040160405180910390fd5b60005b8181146115a8576115a0888787848151811061157957611579613ed7565b602002602001015187858151811061159357611593613ed7565b6020026020010151612a99565b60010161155b565b508473ffffffffffffffffffffffffffffffffffffffff16600073ffffffffffffffffffffffffffffffffffffffff168773ffffffffffffffffffffffffffffffffffffffff167f4a39dc06d4c0dbc64b70af90fd698a233a518aa5d07e595d983b8c0526c8f7fb8787604051611620929190614000565b60405180910390a473ffffffffffffffffffffffffffffffffffffffff85163b156110b9576110b986600087878787612b6a565b6000806105d560017fc9ed16f33ab3a66c84bfd83099ccb2a8845871e2e1c1928f63797152f0fd54cd613f9a565b6116b76116b060017f5b388d90dc1312ba799f321972f13311234fa1163bcabec7cf66101c4876eb84613f9a565b6001612c68565b610d648282612cb4565b6116f67fd9b67a260000000000000000000000000000000000000000000000000000000060016116ef611245565b9190612d6a565b565b6116f67f0e89341c0000000000000000000000000000000000000000000000000000000060016116ef611245565b6116f67f5190c92c0000000000000000000000000000000000000000000000000000000060016116ef611245565b6116f67fe8ab9ccc0000000000000000000000000000000000000000000000000000000060016116ef611245565b6116f67f2a55205a0000000000000000000000000000000000000000000000000000000060016116ef611245565b6117de6116b060017f92f72593ca50a0096f68ee94e7000db40ed086164b695855e2250750b8bfaf59613f9a565b856117ea8587836140a3565b50600186016117fa8385836140a3565b5060029590950180547fffffffffffffffffffffffff00000000000000000000000000000000000000001673ffffffffffffffffffffffffffffffffffffffff9096169590951790945550505050565b6000806105d560017f609b85bcafa81ecfaf3ff62cdde2c6c9082a68dbe4922f07399c706bdeb7cd31613f9a565b6118a66116b060017f2f02d396cb1be29636682c8684200b30a98554d3b74293aa4495cb5e1d252f6e613f9a565b81547fffffffffffffffffffffffff00000000000000000000000000000000000000001673ffffffffffffffffffffffffffffffffffffffff91909116179055565b60028301546040517ff724dad700000000000000000000000000000000000000000000000000000000815273ffffffffffffffffffffffffffffffffffffffff848116600483015260248201849052606092169063f724dad790604401600060405180830381865afa158015611962573d6000803e3d6000fd5b505050506040513d6000823e601f3d9081017fffffffffffffffffffffffffffffffffffffffffffffffffffffffffffffffe016820160405261099c91908101906141bd565b815473ffffffffffffffffffffffffffffffffffffffff828116911614610d64576040517f2ef4875e00000000000000000000000000000000000000000000000000000000815273ffffffffffffffffffffffffffffffffffffffff82166004820152602401610881565b6000806105d560017f2c0cf10337caabbd02dcf226f05f5fd19a0919a41a8df8958c39b80007826858613f9a565b825473ffffffffffffffffffffffffffffffffffffffff8116906000907401000000000000000000000000000000000000000090046bffffffffffffffffffffffff16831580611a8f575080155b15611a9d5760009150611ae2565b620186a0841015611ac757620186a0611ab6828661427d565b611ac09190614294565b9150611ae2565b80611ad5620186a086614294565b611adf919061427d565b91505b50935093915050565b8073ffffffffffffffffffffffffffffffffffffffff168273ffffffffffffffffffffffffffffffffffffffff1614610967576109678383612e46565b73ffffffffffffffffffffffffffffffffffffffff8716611b75576040517fb5e8901500000000000000000000000000000000000000000000000000000000815260040160405180910390fd5b84838114611baf576040517f6582533600000000000000000000000000000000000000000000000000000000815260040160405180910390fd5b611bba8b8a8c612f6d565b611c10576040517f05bbb9c400000000000000000000000000000000000000000000000000000000815273ffffffffffffffffffffffffffffffffffffffff808c1660048301528a166024820152604401610881565b60005b818114611c5f57611c578c8b8b8b8b86818110611c3257611c32613ed7565b905060200201358a8a87818110611c4b57611c4b613ed7565b90506020020135612fe2565b600101611c13565b508773ffffffffffffffffffffffffffffffffffffffff168973ffffffffffffffffffffffffffffffffffffffff168b73ffffffffffffffffffffffffffffffffffffffff167f4a39dc06d4c0dbc64b70af90fd698a233a518aa5d07e595d983b8c0526c8f7fb8a8a8a8a604051611cda949392919061431a565b60405180910390a473ffffffffffffffffffffffffffffffffffffffff88163b15611da357611da38a8a8a8a8a8080602002602001604051908101604052809392919081815260200183836020028082843760009201919091525050604080516020808e0282810182019093528d82529093508d92508c91829185019084908082843760009201919091525050604080516020601f8d018190048102820181019092528b815292508b91508a9081908401838280828437600092019190915250612b6a92505050565b5050505050505050505050565b60008381526020858152604080832073ffffffffffffffffffffffffffffffffffffffff8616845290915290205460ff16611e815760008381526020858152604080832073ffffffffffffffffffffffffffffffffffffffff8681168086529184529382902080547fffffffffffffffffffffffffffffffffffffffffffffffffffffffffffffff00166001179055815187815292830152918316918101919091527f2f8788117e7eff1d82e926ec794901d17c78024a50270940304540a733656f0d906060015b60405180910390a15b50505050565b36600061097761318f565b606083828114611ece576040517f6582533600000000000000000000000000000000000000000000000000000000815260040160405180910390fd5b8467ffffffffffffffff811115611ee757611ee761402e565b604051908082528060200260200182016040528015611f10578160200160208202803683370190505b50915060005b818114611f9557611f70878783818110611f3257611f32613ed7565b9050602002016020810190611f4791906139cb565b868684818110611f5957611f59613ed7565b905060200201358a6111c19092919063ffffffff16565b838281518110611f8257611f82613ed7565b6020908102919091010152600101611f16565b505095945050505050565b73ffffffffffffffffffffffffffffffffffffffff8416611fed576040517f021149bd00000000000000000000000000000000000000000000000000000000815260040160405180910390fd5b611ff986858585612a99565b604080518481526020810184905273ffffffffffffffffffffffffffffffffffffffff80871692600092918916917fc3d58168c5ae7397731d063d5bbf3d657854427343f4c083240f7aacaa2d0f62910160405180910390a473ffffffffffffffffffffffffffffffffffffffff84163b1561076e5761076e856000868686866132f9565b620186a08111156120be576040517fac04040800000000000000000000000000000000000000000000000000000000815260048101829052602401610881565b81546bffffffffffffffffffffffff909116740100000000000000000000000000000000000000000273ffffffffffffffffffffffffffffffffffffffff909116179055565b6040805173ffffffffffffffffffffffffffffffffffffffff8416602482015260448082018490528251808303909101815260649091019091526020810180517bffffffffffffffffffffffffffffffffffffffffffffffffffffffff167fa9059cbb00000000000000000000000000000000000000000000000000000000179052610967908490613417565b61219c838284611449565b60008181526020848152604080832073ffffffffffffffffffffffffffffffffffffffff86168085529083529281902080547fffffffffffffffffffffffffffffffffffffffffffffffffffffffffffffff0016905580518481529182018390528101919091527ff6391f5c32d9c69d2a47ea670b442974b53935d1edc7fd64eb21e047a839171b9060600160405180910390a1505050565b73ffffffffffffffffffffffffffffffffffffffff81166118a6576040517f16de0c8000000000000000000000000000000000000000000000000000000000815260040160405180910390fd5b606081600101805461138c90613fad565b610d648282612e46565b8273ffffffffffffffffffffffffffffffffffffffff168273ffffffffffffffffffffffffffffffffffffffff160361231a576040517ffb0fdf6100000000000000000000000000000000000000000000000000000000815273ffffffffffffffffffffffffffffffffffffffff84166004820152602401610881565b73ffffffffffffffffffffffffffffffffffffffff838116600081815260018701602090815260408083209487168084529482529182902080547fffffffffffffffffffffffffffffffffffffffffffffffffffffffffffffff001686151590811790915591519182527f17307eab39ab6107e8899845ad3d59bd9653f200f220920489ca2b5937696c31910160405180910390a350505050565b60008381526020858152604080832073ffffffffffffffffffffffffffffffffffffffff8616845290915290205460ff1615611e815760008381526020858152604080832073ffffffffffffffffffffffffffffffffffffffff8681168086529184529382902080547fffffffffffffffffffffffffffffffffffffffffffffffffffffffffffffff00169055815187815292830152918316918101919091527ff6391f5c32d9c69d2a47ea670b442974b53935d1edc7fd64eb21e047a839171b90606001611e78565b8351835181141580612492575082518114155b156124c9576040517f6582533600000000000000000000000000000000000000000000000000000000815260040160405180910390fd5b60005b8181146106f757612539878783815181106124e9576124e9613ed7565b602002602001015187848151811061250357612503613ed7565b602002602001015187858151811061251d5761251d613ed7565b6020026020010151878d611fa09095949392919063ffffffff16565b6001016124cc565b73ffffffffffffffffffffffffffffffffffffffff851661258e576040517fb5e8901500000000000000000000000000000000000000000000000000000000815260040160405180910390fd5b612599888789612f6d565b6125ef576040517f05bbb9c400000000000000000000000000000000000000000000000000000000815273ffffffffffffffffffffffffffffffffffffffff808916600483015287166024820152604401610881565b6125fc8887878787612fe2565b8473ffffffffffffffffffffffffffffffffffffffff168673ffffffffffffffffffffffffffffffffffffffff168873ffffffffffffffffffffffffffffffffffffffff167fc3d58168c5ae7397731d063d5bbf3d657854427343f4c083240f7aacaa2d0f62878760405161267b929190918252602082015260400190565b60405180910390a473ffffffffffffffffffffffffffffffffffffffff85163b156106f7576106f7878787878787878080601f0160208091040260200160405190810160405280939291908181526020018383808284376000920191909152506132f992505050565b825473ffffffffffffffffffffffffffffffffffffffff9081169083168114612751576040517f2ef4875e00000000000000000000000000000000000000000000000000000000815273ffffffffffffffffffffffffffffffffffffffff84166004820152602401610881565b8173ffffffffffffffffffffffffffffffffffffffff168173ffffffffffffffffffffffffffffffffffffffff1614611e815783547fffffffffffffffffffffffff00000000000000000000000000000000000000001673ffffffffffffffffffffffffffffffffffffffff8381169182178655604051908316907f8be0079c531659141344cd1fd0a4f28419497f9722a3daafe3b4186f6b6457e090600090a350505050565b80471015612862576040517f08c379a000000000000000000000000000000000000000000000000000000000815260206004820152601d60248201527f416464726573733a20696e73756666696369656e742062616c616e63650000006044820152606401610881565b60008273ffffffffffffffffffffffffffffffffffffffff168260405160006040518083038185875af1925050503d80600081146128bc576040519150601f19603f3d011682016040523d82523d6000602084013e6128c1565b606091505b5050905080610967576040517f08c379a000000000000000000000000000000000000000000000000000000000815260206004820152603a60248201527f416464726573733a20756e61626c6520746f2073656e642076616c75652c207260448201527f6563697069656e74206d617920686176652072657665727465640000000000006064820152608401610881565b6000333214806129625750601836105b1561296c57503390565b7fffffffffffffffffffffffffffffffffffffffffffffffffffffffffffffffec36013560601c7f000000000000000000000000000000000000000000000000000000000000000073ffffffffffffffffffffffffffffffffffffffff16331480612a8857506040517f8929a8ca00000000000000000000000000000000000000000000000000000000815273ffffffffffffffffffffffffffffffffffffffff82811660048301523360248301527f00000000000000000000000000000000000000000000000000000000000000001690638929a8ca90604401602060405180830381865afa158015612a64573d6000803e3d6000fd5b505050506040513d601f19601f82011682018060405250810190612a889190614341565b15612a9257919050565b3391505090565b8015611e815760008281526020858152604080832073ffffffffffffffffffffffffffffffffffffffff87168452909152902054818101818111612b36576040517f42fb00bc00000000000000000000000000000000000000000000000000000000815273ffffffffffffffffffffffffffffffffffffffff86166004820152602481018590526044810183905260648101849052608401610881565b60009384526020958652604080852073ffffffffffffffffffffffffffffffffffffffff9690961685529490955250502055565b6040517fbc197c81000000000000000000000000000000000000000000000000000000008082529073ffffffffffffffffffffffffffffffffffffffff86169063bc197c8190612bc6908a908a9089908990899060040161435e565b6020604051808303816000875af1158015612be5573d6000803e3d6000fd5b505050506040513d601f19601f82011682018060405250810190612c0991906143c9565b7fffffffff00000000000000000000000000000000000000000000000000000000161461076e578383836040517fc287817e000000000000000000000000000000000000000000000000000000008152600401610881939291906143e6565b81548290828110612caf576040517fbf0c18ec0000000000000000000000000000000000000000000000000000000081526004810182905260248101849052604401610881565b505550565b73ffffffffffffffffffffffffffffffffffffffff811615612d3c5781547fffffffffffffffffffffffff00000000000000000000000000000000000000001673ffffffffffffffffffffffffffffffffffffffff821690811783556040516000907f8be0079c531659141344cd1fd0a4f28419497f9722a3daafe3b4186f6b6457e0908290a35b610d647f7f5828d00000000000000000000000000000000000000000000000000000000060016116ef611245565b7c01000000000000000000000000000000000000000000000000000000007fffffffff00000000000000000000000000000000000000000000000000000000831601612de2576040517f72c683bb00000000000000000000000000000000000000000000000000000000815260040160405180910390fd5b7fffffffff00000000000000000000000000000000000000000000000000000000919091166000908152602092909252604090912080547fffffffffffffffffffffffffffffffffffffffffffffffffffffffffffffff0016911515919091179055565b815473ffffffffffffffffffffffffffffffffffffffff168015801590612e84575060008173ffffffffffffffffffffffffffffffffffffffff163b115b15610967576040517fc617113400000000000000000000000000000000000000000000000000000000815230600482015273ffffffffffffffffffffffffffffffffffffffff838116602483015282169063c617113490604401602060405180830381865afa158015612efb573d6000803e3d6000fd5b505050506040513d601f19601f82011682018060405250810190612f1f9190614341565b610967576040517fede71dcc00000000000000000000000000000000000000000000000000000000815273ffffffffffffffffffffffffffffffffffffffff83166004820152602401610881565b60008173ffffffffffffffffffffffffffffffffffffffff168373ffffffffffffffffffffffffffffffffffffffff16148061099c57505073ffffffffffffffffffffffffffffffffffffffff9182166000908152600193909301602090815260408085209290931684525290205460ff1690565b8015610b7b5760008281526020868152604080832073ffffffffffffffffffffffffffffffffffffffff8816845290915290205481810381811061307f576040517f03dee4c500000000000000000000000000000000000000000000000000000000815273ffffffffffffffffffffffffffffffffffffffff87166004820152602481018590526044810183905260648101849052608401610881565b8473ffffffffffffffffffffffffffffffffffffffff168673ffffffffffffffffffffffffffffffffffffffff16146110b95760008481526020888152604080832073ffffffffffffffffffffffffffffffffffffffff89168452909152902054838101818111613149576040517f42fb00bc00000000000000000000000000000000000000000000000000000000815273ffffffffffffffffffffffffffffffffffffffff88166004820152602481018790526044810183905260648101869052608401610881565b600086815260208a8152604080832073ffffffffffffffffffffffffffffffffffffffff808d1685528184528285208890558b1684529091529020555050505050505050565b366000333214806131a05750601836105b156131ae5750600091369150565b3373ffffffffffffffffffffffffffffffffffffffff7f00000000000000000000000000000000000000000000000000000000000000001614806132e3575073ffffffffffffffffffffffffffffffffffffffff7f000000000000000000000000000000000000000000000000000000000000000016638929a8ca367fffffffffffffffffffffffffffffffffffffffffffffffffffffffffffffffec013560601c6040517fffffffff0000000000000000000000000000000000000000000000000000000060e084901b16815273ffffffffffffffffffffffffffffffffffffffff9091166004820152336024820152604401602060405180830381865afa1580156132bf573d6000803e3d6000fd5b505050506040513d601f19601f820116820180604052508101906132e39190614341565b156132f057610977613526565b50600091369150565b6040517ff23a6e61000000000000000000000000000000000000000000000000000000008082529073ffffffffffffffffffffffffffffffffffffffff86169063f23a6e6190613355908a908a90899089908990600401614431565b6020604051808303816000875af1158015613374573d6000803e3d6000fd5b505050506040513d601f19601f8201168201806040525081019061339891906143c9565b7fffffffff00000000000000000000000000000000000000000000000000000000161461076e576040517f40f39d3800000000000000000000000000000000000000000000000000000000815273ffffffffffffffffffffffffffffffffffffffff851660048201526024810184905260448101839052606401610881565b6000613479826040518060400160405280602081526020017f5361666545524332303a206c6f772d6c6576656c2063616c6c206661696c65648152508573ffffffffffffffffffffffffffffffffffffffff166135579092919063ffffffff16565b905080516000148061349a57508080602001905181019061349a9190614341565b610967576040517f08c379a000000000000000000000000000000000000000000000000000000000815260206004820152602a60248201527f5361666545524332303a204552433230206f7065726174696f6e20646964206e60448201527f6f742073756363656564000000000000000000000000000000000000000000006064820152608401610881565b3660006109777fffffffffffffffffffffffffffffffffffffffffffffffffffffffffffffffec8301828481614476565b606061099c8484600085856000808673ffffffffffffffffffffffffffffffffffffffff16858760405161358b91906144a0565b60006040518083038185875af1925050503d80600081146135c8576040519150601f19603f3d011682016040523d82523d6000602084013e6135cd565b606091505b50915091506135de878383876135e9565b979650505050505050565b6060831561367f5782516000036136785773ffffffffffffffffffffffffffffffffffffffff85163b613678576040517f08c379a000000000000000000000000000000000000000000000000000000000815260206004820152601d60248201527f416464726573733a2063616c6c20746f206e6f6e2d636f6e74726163740000006044820152606401610881565b508161099c565b61099c83838151156136945781518083602001fd5b806040517f08c379a000000000000000000000000000000000000000000000000000000000815260040161088191906137d6565b73ffffffffffffffffffffffffffffffffffffffff811681146107f457600080fd5b600080604083850312156136fd57600080fd5b8235613708816136c8565b946020939093013593505050565b7fffffffff00000000000000000000000000000000000000000000000000000000811681146107f457600080fd5b60006020828403121561375657600080fd5b813561376181613716565b9392505050565b60005b8381101561378357818101518382015260200161376b565b50506000910152565b600081518084526137a4816020860160208601613768565b601f017fffffffffffffffffffffffffffffffffffffffffffffffffffffffffffffffe0169290920160200192915050565b6020815260006105d2602083018461378c565b60008083601f8401126137fb57600080fd5b50813567ffffffffffffffff81111561381357600080fd5b6020830191508360208260051b85010111156108e557600080fd5b60008083601f84011261384057600080fd5b50813567ffffffffffffffff81111561385857600080fd5b6020830191508360208285010111156108e557600080fd5b60008060008060008060006080888a03121561388b57600080fd5b8735613896816136c8565b9650602088013567ffffffffffffffff808211156138b357600080fd5b6138bf8b838c016137e9565b909850965060408a01359150808211156138d857600080fd5b6138e48b838c016137e9565b909650945060608a01359150808211156138fd57600080fd5b5061390a8a828b0161382e565b989b979a50959850939692959293505050565b6000806000806000806080878903121561393657600080fd5b863567ffffffffffffffff8082111561394e57600080fd5b61395a8a838b0161382e565b9098509650602089013591508082111561397357600080fd5b5061398089828a0161382e565b9095509350506040870135613994816136c8565b915060608701356139a4816136c8565b809150509295509295509295565b6000602082840312156139c457600080fd5b5035919050565b6000602082840312156139dd57600080fd5b8135613761816136c8565b6000806000604084860312156139fd57600080fd5b83359250602084013567ffffffffffffffff811115613a1b57600080fd5b613a278682870161382e565b9497909650939450505050565b60008060408385031215613a4757600080fd5b50508035926020909101359150565b60008060008060008060008060a0898b031215613a7257600080fd5b8835613a7d816136c8565b97506020890135613a8d816136c8565b9650604089013567ffffffffffffffff80821115613aaa57600080fd5b613ab68c838d016137e9565b909850965060608b0135915080821115613acf57600080fd5b613adb8c838d016137e9565b909650945060808b0135915080821115613af457600080fd5b50613b018b828c0161382e565b999c989b5096995094979396929594505050565b60008060408385031215613b2857600080fd5b823591506020830135613b3a816136c8565b809150509250929050565b8183528181602085013750600060208284010152600060207fffffffffffffffffffffffffffffffffffffffffffffffffffffffffffffffe0601f840116840101905092915050565b60208152600061099c602083018486613b45565b60008060008060408587031215613bb857600080fd5b843567ffffffffffffffff80821115613bd057600080fd5b613bdc888389016137e9565b90965094506020870135915080821115613bf557600080fd5b50613c02878288016137e9565b95989497509550505050565b600081518084526020808501945080840160005b83811015613c3e57815187529582019590820190600101613c22565b509495945050505050565b6020815260006105d26020830184613c0e565b600080600080600060808688031215613c7457600080fd5b8535613c7f816136c8565b94506020860135935060408601359250606086013567ffffffffffffffff811115613ca957600080fd5b613cb58882890161382e565b969995985093965092949392505050565b60008060008060008060608789031215613cdf57600080fd5b863567ffffffffffffffff80821115613cf757600080fd5b613d038a838b016137e9565b90985096506020890135915080821115613d1c57600080fd5b613d288a838b016137e9565b90965094506040890135915080821115613d4157600080fd5b50613d4e89828a016137e9565b979a9699509497509295939492505050565b80151581146107f457600080fd5b60008060408385031215613d8157600080fd5b8235613d8c816136c8565b91506020830135613b3a81613d60565b6000806000806000806000806080898b031215613db857600080fd5b883567ffffffffffffffff80821115613dd057600080fd5b613ddc8c838d016137e9565b909a50985060208b0135915080821115613df557600080fd5b613e018c838d016137e9565b909850965060408b0135915080821115613e1a57600080fd5b613e268c838d016137e9565b909650945060608b0135915080821115613af457600080fd5b60008060408385031215613e5257600080fd5b8235613e5d816136c8565b91506020830135613b3a816136c8565b60008060008060008060a08789031215613e8657600080fd5b8635613e91816136c8565b95506020870135613ea1816136c8565b94506040870135935060608701359250608087013567ffffffffffffffff811115613ecb57600080fd5b613d4e89828a0161382e565b7f4e487b7100000000000000000000000000000000000000000000000000000000600052603260045260246000fd5b60008083357fffffffffffffffffffffffffffffffffffffffffffffffffffffffffffffffe1843603018112613f3b57600080fd5b83018035915067ffffffffffffffff821115613f5657600080fd5b6020019150368190038213156108e557600080fd5b7f4e487b7100000000000000000000000000000000000000000000000000000000600052601160045260246000fd5b818103818111156105d5576105d5613f6b565b600181811c90821680613fc157607f821691505b602082108103613ffa577f4e487b7100000000000000000000000000000000000000000000000000000000600052602260045260246000fd5b50919050565b6040815260006140136040830185613c0e565b82810360208401526140258185613c0e565b95945050505050565b7f4e487b7100000000000000000000000000000000000000000000000000000000600052604160045260246000fd5b601f82111561096757600081815260208120601f850160051c810160208610156140845750805b601f850160051c820191505b8181101561076e57828155600101614090565b67ffffffffffffffff8311156140bb576140bb61402e565b6140cf836140c98354613fad565b8361405d565b6000601f84116001811461412157600085156140eb5750838201355b7fffffffffffffffffffffffffffffffffffffffffffffffffffffffffffffffff600387901b1c1916600186901b178355610b7b565b6000838152602090207fffffffffffffffffffffffffffffffffffffffffffffffffffffffffffffffe0861690835b828110156141705786850135825560209485019460019092019101614150565b50868210156141ab577fffffffffffffffffffffffffffffffffffffffffffffffffffffffffffffffff60f88860031b161c19848701351681555b505060018560011b0183555050505050565b6000602082840312156141cf57600080fd5b815167ffffffffffffffff808211156141e757600080fd5b818401915084601f8301126141fb57600080fd5b81518181111561420d5761420d61402e565b604051601f82017fffffffffffffffffffffffffffffffffffffffffffffffffffffffffffffffe0908116603f011681019083821181831017156142535761425361402e565b8160405282815287602084870101111561426c57600080fd5b6135de836020830160208801613768565b80820281158282048414176105d5576105d5613f6b565b6000826142ca577f4e487b7100000000000000000000000000000000000000000000000000000000600052601260045260246000fd5b500490565b81835260007f07ffffffffffffffffffffffffffffffffffffffffffffffffffffffffffffff83111561430157600080fd5b8260051b80836020870137939093016020019392505050565b60408152600061432e6040830186886142cf565b82810360208401526135de8185876142cf565b60006020828403121561435357600080fd5b815161376181613d60565b600073ffffffffffffffffffffffffffffffffffffffff808816835280871660208401525060a0604083015261439760a0830186613c0e565b82810360608401526143a98186613c0e565b905082810360808401526143bd818561378c565b98975050505050505050565b6000602082840312156143db57600080fd5b815161376181613716565b73ffffffffffffffffffffffffffffffffffffffff841681526060602082015260006144156060830185613c0e565b82810360408401526144278185613c0e565b9695505050505050565b600073ffffffffffffffffffffffffffffffffffffffff808816835280871660208401525084604083015283606083015260a060808301526135de60a083018461378c565b6000808585111561448657600080fd5b8386111561449357600080fd5b5050820193919092039150565b600082516144b2818460208701613768565b919091019291505056fea2646970667358221220a7273b49901211df9e963f694e33a51ce1ac4f2454d6a81692a7a90c820aed2d64736f6c63430008150033",
  "linkReferences": {},
  "deployedLinkReferences": {}
}