{
  "_format": "hh-sol-artifact-1",
  "contractName": "ERC1155FullProxiedMock",
  "sourceName": "contracts/mocks/token/ERC1155/preset/proxied/ERC1155FullProxiedMock.sol",
  "abi": [
    {
      "inputs": [
        {
          "internalType": "contract IForwarderRegistry",
          "name": "forwarderRegistry",
          "type": "address"
        }
      ],
      "stateMutability": "nonpayable",
      "type": "constructor"
    },
    {
      "inputs": [],
      "name": "ERC1155BalanceOfAddressZero",
      "type": "error"
    },
    {
      "inputs": [
        {
          "internalType": "address",
          "name": "recipient",
          "type": "address"
        },
        {
          "internalType": "uint256",
          "name": "id",
          "type": "uint256"
        },
        {
          "internalType": "uint256",
          "name": "balance",
          "type": "uint256"
        },
        {
          "internalType": "uint256",
          "name": "value",
          "type": "uint256"
        }
      ],
      "name": "ERC1155BalanceOverflow",
      "type": "error"
    },
    {
      "inputs": [
        {
          "internalType": "address",
          "name": "owner",
          "type": "address"
        },
        {
          "internalType": "uint256",
          "name": "id",
          "type": "uint256"
        },
        {
          "internalType": "uint256",
          "name": "balance",
          "type": "uint256"
        },
        {
          "internalType": "uint256",
          "name": "value",
          "type": "uint256"
        }
      ],
      "name": "ERC1155InsufficientBalance",
      "type": "error"
    },
    {
      "inputs": [],
      "name": "ERC1155MintToAddressZero",
      "type": "error"
    },
    {
      "inputs": [
        {
          "internalType": "address",
          "name": "sender",
          "type": "address"
        },
        {
          "internalType": "address",
          "name": "owner",
          "type": "address"
        }
      ],
      "name": "ERC1155NonApproved",
      "type": "error"
    },
    {
      "inputs": [
        {
          "internalType": "address",
          "name": "recipient",
          "type": "address"
        },
        {
          "internalType": "uint256[]",
          "name": "ids",
          "type": "uint256[]"
        },
        {
          "internalType": "uint256[]",
          "name": "values",
          "type": "uint256[]"
        }
      ],
      "name": "ERC1155SafeBatchTransferRejected",
      "type": "error"
    },
    {
      "inputs": [
        {
          "internalType": "address",
          "name": "recipient",
          "type": "address"
        },
        {
          "internalType": "uint256",
          "name": "id",
          "type": "uint256"
        },
        {
          "internalType": "uint256",
          "name": "value",
          "type": "uint256"
        }
      ],
      "name": "ERC1155SafeTransferRejected",
      "type": "error"
    },
    {
      "inputs": [
        {
          "internalType": "address",
          "name": "account",
          "type": "address"
        }
      ],
      "name": "ERC1155SelfApprovalForAll",
      "type": "error"
    },
    {
      "inputs": [],
      "name": "ERC1155TransferToAddressZero",
      "type": "error"
    },
    {
      "inputs": [
        {
          "internalType": "uint256",
          "name": "percentage",
          "type": "uint256"
        }
      ],
      "name": "ERC2981IncorrectRoyaltyPercentage",
      "type": "error"
    },
    {
      "inputs": [],
      "name": "ERC2981IncorrectRoyaltyReceiver",
      "type": "error"
    },
    {
      "inputs": [],
      "name": "FailedCall",
      "type": "error"
    },
    {
      "inputs": [],
      "name": "IllegalInterfaceId",
      "type": "error"
    },
    {
      "inputs": [],
      "name": "InconsistentArrayLengths",
      "type": "error"
    },
    {
      "inputs": [
        {
          "internalType": "address",
          "name": "tokenContract",
          "type": "address"
        }
      ],
      "name": "IncorrectTokenContractType",
      "type": "error"
    },
    {
      "inputs": [
        {
          "internalType": "uint256",
          "name": "currentPhase",
          "type": "uint256"
        },
        {
          "internalType": "uint256",
          "name": "newPhase",
          "type": "uint256"
        }
      ],
      "name": "InitializationPhaseAlreadyReached",
      "type": "error"
    },
    {
      "inputs": [
        {
          "internalType": "uint256",
          "name": "balance",
          "type": "uint256"
        },
        {
          "internalType": "uint256",
          "name": "needed",
          "type": "uint256"
        }
      ],
      "name": "InsufficientBalance",
      "type": "error"
    },
    {
      "inputs": [
        {
          "internalType": "address",
          "name": "account",
          "type": "address"
        }
      ],
      "name": "NotContractOwner",
      "type": "error"
    },
    {
      "inputs": [
        {
          "internalType": "address",
          "name": "account",
          "type": "address"
        }
      ],
      "name": "NotMetadataResolver",
      "type": "error"
    },
    {
      "inputs": [
        {
          "internalType": "bytes32",
          "name": "role",
          "type": "bytes32"
        },
        {
          "internalType": "address",
          "name": "account",
          "type": "address"
        }
      ],
      "name": "NotRoleHolder",
      "type": "error"
    },
    {
      "inputs": [
        {
          "internalType": "address",
          "name": "operator",
          "type": "address"
        }
      ],
      "name": "OperatorNotAllowed",
      "type": "error"
    },
    {
      "inputs": [
        {
          "internalType": "address",
          "name": "token",
          "type": "address"
        }
      ],
      "name": "SafeERC20FailedOperation",
      "type": "error"
    },
    {
      "anonymous": false,
      "inputs": [
        {
          "indexed": true,
          "internalType": "address",
          "name": "owner",
          "type": "address"
        },
        {
          "indexed": true,
          "internalType": "address",
          "name": "operator",
          "type": "address"
        },
        {
          "indexed": false,
          "internalType": "bool",
          "name": "approved",
          "type": "bool"
        }
      ],
      "name": "ApprovalForAll",
      "type": "event"
    },
    {
      "anonymous": false,
      "inputs": [
        {
          "indexed": true,
          "internalType": "address",
          "name": "previousOwner",
          "type": "address"
        },
        {
          "indexed": true,
          "internalType": "address",
          "name": "newOwner",
          "type": "address"
        }
      ],
      "name": "OwnershipTransferred",
      "type": "event"
    },
    {
      "anonymous": false,
      "inputs": [
        {
          "indexed": false,
          "internalType": "bytes32",
          "name": "role",
          "type": "bytes32"
        },
        {
          "indexed": false,
          "internalType": "address",
          "name": "account",
          "type": "address"
        },
        {
          "indexed": false,
          "internalType": "address",
          "name": "operator",
          "type": "address"
        }
      ],
      "name": "RoleGranted",
      "type": "event"
    },
    {
      "anonymous": false,
      "inputs": [
        {
          "indexed": false,
          "internalType": "bytes32",
          "name": "role",
          "type": "bytes32"
        },
        {
          "indexed": false,
          "internalType": "address",
          "name": "account",
          "type": "address"
        },
        {
          "indexed": false,
          "internalType": "address",
          "name": "operator",
          "type": "address"
        }
      ],
      "name": "RoleRevoked",
      "type": "event"
    },
    {
      "anonymous": false,
      "inputs": [
        {
          "indexed": true,
          "internalType": "address",
          "name": "operator",
          "type": "address"
        },
        {
          "indexed": true,
          "internalType": "address",
          "name": "from",
          "type": "address"
        },
        {
          "indexed": true,
          "internalType": "address",
          "name": "to",
          "type": "address"
        },
        {
          "indexed": false,
          "internalType": "uint256[]",
          "name": "ids",
          "type": "uint256[]"
        },
        {
          "indexed": false,
          "internalType": "uint256[]",
          "name": "values",
          "type": "uint256[]"
        }
      ],
      "name": "TransferBatch",
      "type": "event"
    },
    {
      "anonymous": false,
      "inputs": [
        {
          "indexed": true,
          "internalType": "address",
          "name": "operator",
          "type": "address"
        },
        {
          "indexed": true,
          "internalType": "address",
          "name": "from",
          "type": "address"
        },
        {
          "indexed": true,
          "internalType": "address",
          "name": "to",
          "type": "address"
        },
        {
          "indexed": false,
          "internalType": "uint256",
          "name": "id",
          "type": "uint256"
        },
        {
          "indexed": false,
          "internalType": "uint256",
          "name": "value",
          "type": "uint256"
        }
      ],
      "name": "TransferSingle",
      "type": "event"
    },
    {
      "anonymous": false,
      "inputs": [
        {
          "indexed": false,
          "internalType": "string",
          "name": "value",
          "type": "string"
        },
        {
          "indexed": true,
          "internalType": "uint256",
          "name": "id",
          "type": "uint256"
        }
      ],
      "name": "URI",
      "type": "event"
    },
    {
      "inputs": [],
      "name": "MINTER_ROLE",
      "outputs": [
        {
          "internalType": "bytes32",
          "name": "",
          "type": "bytes32"
        }
      ],
      "stateMutability": "view",
      "type": "function"
    },
    {
      "inputs": [],
      "name": "ROYALTY_FEE_DENOMINATOR",
      "outputs": [
        {
          "internalType": "uint256",
          "name": "",
          "type": "uint256"
        }
      ],
      "stateMutability": "view",
      "type": "function"
    },
    {
      "inputs": [],
      "name": "__msgData",
      "outputs": [
        {
          "internalType": "bytes",
          "name": "",
          "type": "bytes"
        }
      ],
      "stateMutability": "view",
      "type": "function"
    },
    {
      "inputs": [
        {
          "internalType": "address",
          "name": "owner",
          "type": "address"
        },
        {
          "internalType": "uint256",
          "name": "id",
          "type": "uint256"
        }
      ],
      "name": "balanceOf",
      "outputs": [
        {
          "internalType": "uint256",
          "name": "balance",
          "type": "uint256"
        }
      ],
      "stateMutability": "view",
      "type": "function"
    },
    {
      "inputs": [
        {
          "internalType": "address[]",
          "name": "owners",
          "type": "address[]"
        },
        {
          "internalType": "uint256[]",
          "name": "ids",
          "type": "uint256[]"
        }
      ],
      "name": "balanceOfBatch",
      "outputs": [
        {
          "internalType": "uint256[]",
          "name": "balances",
          "type": "uint256[]"
        }
      ],
      "stateMutability": "view",
      "type": "function"
    },
    {
      "inputs": [
        {
          "internalType": "uint256[]",
          "name": "tokenIds",
          "type": "uint256[]"
        },
        {
          "internalType": "string[]",
          "name": "tokenURIs",
          "type": "string[]"
        }
      ],
      "name": "batchSetTokenURI",
      "outputs": [],
      "stateMutability": "nonpayable",
      "type": "function"
    },
    {
      "inputs": [],
      "name": "forwarderRegistry",
      "outputs": [
        {
          "internalType": "contract IForwarderRegistry",
          "name": "",
          "type": "address"
        }
      ],
      "stateMutability": "view",
      "type": "function"
    },
    {
      "inputs": [
        {
          "internalType": "bytes32",
          "name": "role",
          "type": "bytes32"
        },
        {
          "internalType": "address",
          "name": "account",
          "type": "address"
        }
      ],
      "name": "grantRole",
      "outputs": [],
      "stateMutability": "nonpayable",
      "type": "function"
    },
    {
      "inputs": [
        {
          "internalType": "bytes32",
          "name": "role",
          "type": "bytes32"
        },
        {
          "internalType": "address",
          "name": "account",
          "type": "address"
        }
      ],
      "name": "hasRole",
      "outputs": [
        {
          "internalType": "bool",
          "name": "hasRole_",
          "type": "bool"
        }
      ],
      "stateMutability": "view",
      "type": "function"
    },
    {
      "inputs": [
        {
          "internalType": "string",
          "name": "tokenName",
          "type": "string"
        },
        {
          "internalType": "string",
          "name": "tokenSymbol",
          "type": "string"
        },
        {
          "internalType": "contract ITokenMetadataResolver",
          "name": "metadataResolver",
          "type": "address"
        },
        {
          "internalType": "contract IOperatorFilterRegistry",
          "name": "filterRegistry",
          "type": "address"
        }
      ],
      "name": "init",
      "outputs": [],
      "stateMutability": "nonpayable",
      "type": "function"
    },
    {
      "inputs": [
        {
          "internalType": "address",
          "name": "owner",
          "type": "address"
        },
        {
          "internalType": "address",
          "name": "operator",
          "type": "address"
        }
      ],
      "name": "isApprovedForAll",
      "outputs": [
        {
          "internalType": "bool",
          "name": "approvedForAll",
          "type": "bool"
        }
      ],
      "stateMutability": "view",
      "type": "function"
    },
    {
      "inputs": [
        {
          "internalType": "address",
          "name": "forwarder",
          "type": "address"
        }
      ],
      "name": "isTrustedForwarder",
      "outputs": [
        {
          "internalType": "bool",
          "name": "",
          "type": "bool"
        }
      ],
      "stateMutability": "view",
      "type": "function"
    },
    {
      "inputs": [],
      "name": "metadataResolver",
      "outputs": [
        {
          "internalType": "contract ITokenMetadataResolver",
          "name": "tokenMetadataResolver",
          "type": "address"
        }
      ],
      "stateMutability": "view",
      "type": "function"
    },
    {
      "inputs": [],
      "name": "name",
      "outputs": [
        {
          "internalType": "string",
          "name": "tokenName",
          "type": "string"
        }
      ],
      "stateMutability": "view",
      "type": "function"
    },
    {
      "inputs": [],
      "name": "operatorFilterRegistry",
      "outputs": [
        {
          "internalType": "contract IOperatorFilterRegistry",
          "name": "",
          "type": "address"
        }
      ],
      "stateMutability": "view",
      "type": "function"
    },
    {
      "inputs": [],
      "name": "owner",
      "outputs": [
        {
          "internalType": "address",
          "name": "",
          "type": "address"
        }
      ],
      "stateMutability": "view",
      "type": "function"
    },
    {
      "inputs": [
        {
          "internalType": "address[]",
          "name": "accounts",
          "type": "address[]"
        },
        {
          "internalType": "contract IERC20[]",
          "name": "tokens",
          "type": "address[]"
        },
        {
          "internalType": "uint256[]",
          "name": "amounts",
          "type": "uint256[]"
        }
      ],
      "name": "recoverERC20s",
      "outputs": [],
      "stateMutability": "nonpayable",
      "type": "function"
    },
    {
      "inputs": [
        {
          "internalType": "address[]",
          "name": "accounts",
          "type": "address[]"
        },
        {
          "internalType": "contract IERC721[]",
          "name": "contracts",
          "type": "address[]"
        },
        {
          "internalType": "uint256[]",
          "name": "tokenIds",
          "type": "uint256[]"
        }
      ],
      "name": "recoverERC721s",
      "outputs": [],
      "stateMutability": "nonpayable",
      "type": "function"
    },
    {
      "inputs": [
        {
          "internalType": "address payable[]",
          "name": "accounts",
          "type": "address[]"
        },
        {
          "internalType": "uint256[]",
          "name": "amounts",
          "type": "uint256[]"
        }
      ],
      "name": "recoverETH",
      "outputs": [],
      "stateMutability": "nonpayable",
      "type": "function"
    },
    {
      "inputs": [
        {
          "internalType": "bytes32",
          "name": "role",
          "type": "bytes32"
        }
      ],
      "name": "renounceRole",
      "outputs": [],
      "stateMutability": "nonpayable",
      "type": "function"
    },
    {
      "inputs": [
        {
          "internalType": "bytes32",
          "name": "role",
          "type": "bytes32"
        },
        {
          "internalType": "address",
          "name": "account",
          "type": "address"
        }
      ],
      "name": "revokeRole",
      "outputs": [],
      "stateMutability": "nonpayable",
      "type": "function"
    },
    {
      "inputs": [
        {
          "internalType": "uint256",
          "name": "tokenId",
          "type": "uint256"
        },
        {
          "internalType": "uint256",
          "name": "salePrice",
          "type": "uint256"
        }
      ],
      "name": "royaltyInfo",
      "outputs": [
        {
          "internalType": "address",
          "name": "receiver",
          "type": "address"
        },
        {
          "internalType": "uint256",
          "name": "royaltyAmount",
          "type": "uint256"
        }
      ],
      "stateMutability": "view",
      "type": "function"
    },
    {
      "inputs": [
        {
          "internalType": "address",
          "name": "to",
          "type": "address"
        },
        {
          "internalType": "uint256[]",
          "name": "ids",
          "type": "uint256[]"
        },
        {
          "internalType": "uint256[]",
          "name": "values",
          "type": "uint256[]"
        },
        {
          "internalType": "bytes",
          "name": "data",
          "type": "bytes"
        }
      ],
      "name": "safeBatchMint",
      "outputs": [],
      "stateMutability": "nonpayable",
      "type": "function"
    },
    {
      "inputs": [
        {
          "internalType": "address",
          "name": "from",
          "type": "address"
        },
        {
          "internalType": "address",
          "name": "to",
          "type": "address"
        },
        {
          "internalType": "uint256[]",
          "name": "ids",
          "type": "uint256[]"
        },
        {
          "internalType": "uint256[]",
          "name": "values",
          "type": "uint256[]"
        },
        {
          "internalType": "bytes",
          "name": "data",
          "type": "bytes"
        }
      ],
      "name": "safeBatchTransferFrom",
      "outputs": [],
      "stateMutability": "nonpayable",
      "type": "function"
    },
    {
      "inputs": [
        {
          "internalType": "address[]",
          "name": "recipients",
          "type": "address[]"
        },
        {
          "internalType": "uint256[]",
          "name": "ids",
          "type": "uint256[]"
        },
        {
          "internalType": "uint256[]",
          "name": "values",
          "type": "uint256[]"
        },
        {
          "internalType": "bytes",
          "name": "data",
          "type": "bytes"
        }
      ],
      "name": "safeDeliver",
      "outputs": [],
      "stateMutability": "nonpayable",
      "type": "function"
    },
    {
      "inputs": [
        {
          "internalType": "address",
          "name": "to",
          "type": "address"
        },
        {
          "internalType": "uint256",
          "name": "id",
          "type": "uint256"
        },
        {
          "internalType": "uint256",
          "name": "value",
          "type": "uint256"
        },
        {
          "internalType": "bytes",
          "name": "data",
          "type": "bytes"
        }
      ],
      "name": "safeMint",
      "outputs": [],
      "stateMutability": "nonpayable",
      "type": "function"
    },
    {
      "inputs": [
        {
          "internalType": "address",
          "name": "from",
          "type": "address"
        },
        {
          "internalType": "address",
          "name": "to",
          "type": "address"
        },
        {
          "internalType": "uint256",
          "name": "id",
          "type": "uint256"
        },
        {
          "internalType": "uint256",
          "name": "value",
          "type": "uint256"
        },
        {
          "internalType": "bytes",
          "name": "data",
          "type": "bytes"
        }
      ],
      "name": "safeTransferFrom",
      "outputs": [],
      "stateMutability": "nonpayable",
      "type": "function"
    },
    {
      "inputs": [
        {
          "internalType": "address",
          "name": "operator",
          "type": "address"
        },
        {
          "internalType": "bool",
          "name": "approved",
          "type": "bool"
        }
      ],
      "name": "setApprovalForAll",
      "outputs": [],
      "stateMutability": "nonpayable",
      "type": "function"
    },
    {
      "inputs": [
        {
          "internalType": "uint256",
          "name": "percentage",
          "type": "uint256"
        }
      ],
      "name": "setRoyaltyPercentage",
      "outputs": [],
      "stateMutability": "nonpayable",
      "type": "function"
    },
    {
      "inputs": [
        {
          "internalType": "address",
          "name": "receiver",
          "type": "address"
        }
      ],
      "name": "setRoyaltyReceiver",
      "outputs": [],
      "stateMutability": "nonpayable",
      "type": "function"
    },
    {
      "inputs": [
        {
          "internalType": "uint256",
          "name": "tokenId",
          "type": "uint256"
        },
        {
          "internalType": "string",
          "name": "tokenURI",
          "type": "string"
        }
      ],
      "name": "setTokenURI",
      "outputs": [],
      "stateMutability": "nonpayable",
      "type": "function"
    },
    {
      "inputs": [
        {
          "internalType": "bytes4",
          "name": "interfaceId",
          "type": "bytes4"
        }
      ],
      "name": "supportsInterface",
      "outputs": [
        {
          "internalType": "bool",
          "name": "",
          "type": "bool"
        }
      ],
      "stateMutability": "view",
      "type": "function"
    },
    {
      "inputs": [],
      "name": "symbol",
      "outputs": [
        {
          "internalType": "string",
          "name": "tokenSymbol",
          "type": "string"
        }
      ],
      "stateMutability": "view",
      "type": "function"
    },
    {
      "inputs": [
        {
          "internalType": "address",
          "name": "newOwner",
          "type": "address"
        }
      ],
      "name": "transferOwnership",
      "outputs": [],
      "stateMutability": "nonpayable",
      "type": "function"
    },
    {
      "inputs": [
        {
          "internalType": "contract IOperatorFilterRegistry",
          "name": "registry",
          "type": "address"
        }
      ],
      "name": "updateOperatorFilterRegistry",
      "outputs": [],
      "stateMutability": "nonpayable",
      "type": "function"
    },
    {
      "inputs": [
        {
          "internalType": "uint256",
          "name": "tokenId",
          "type": "uint256"
        }
      ],
      "name": "uri",
      "outputs": [
        {
          "internalType": "string",
          "name": "metadataURI",
          "type": "string"
        }
      ],
      "stateMutability": "view",
      "type": "function"
    }
  ],
  "bytecode": "0x60a060405234801561001057600080fd5b5060405161451c38038061451c83398101604081905261002f91610040565b6001600160a01b0316608052610070565b60006020828403121561005257600080fd5b81516001600160a01b038116811461006957600080fd5b9392505050565b60805161446e6100ae600039600081816103600152818161041101528181612a2801528181612ab60152818161325f015261329d015261446e6000f3fe608060405234801561001057600080fd5b506004361061025b5760003560e01c806373c8a95811610145578063c3666c36116100bd578063e8ab9ccc1161008c578063f242432a11610071578063f242432a14610583578063f2fde38b14610596578063f7ba94bd146105a957600080fd5b8063e8ab9ccc1461055d578063e985e9c51461057057600080fd5b8063c3666c3614610506578063d539139314610519578063d547741f14610540578063e1a8bf2c1461055357600080fd5b806391d1485411610114578063a0c76f62116100f9578063a0c76f62146104e3578063a22cb465146104eb578063b0ccc31e146104fe57600080fd5b806391d14854146104c857806395d89b41146104db57600080fd5b806373c8a958146104875780638bb9c5bf1461049a5780638da5cb5b146104ad5780638dc251e3146104b557600080fd5b80632b4c9f16116101d85780634e1273f4116101a75780635cfa92971161018c5780635cfa92971461044e57806361ba27da146104615780636706467b1461047457600080fd5b80634e1273f4146103e1578063572b6c051461040157600080fd5b80632b4c9f161461035e5780632eb2c2d6146103a55780632f2ff15d146103b857806331e66e1e146103cb57600080fd5b80630e07f8541161022f578063114ba8ee11610214578063114ba8ee146102f9578063162094c41461030c5780632a55205a1461031f57600080fd5b80630e07f854146102d35780630e89341c146102e657600080fd5b8062fdd58e1461026057806301ffc9a71461028657806306fdde03146102a95780630d6a5bbb146102be575b600080fd5b61027361026e3660046135ef565b6105bc565b6040519081526020015b60405180910390f35b610299610294366004613649565b6105db565b604051901515815260200161027d565b6102b16105ef565b60405161027d91906136db565b6102d16102cc366004613775565b610606565b005b6102d16102e136600461382e565b610701565b6102b16102f43660046138c8565b610776565b6102d16103073660046138e1565b61078c565b6102d161031a3660046138fe565b6107f7565b61033261032d36600461394a565b6108c9565b6040805173ffffffffffffffffffffffffffffffffffffffff909316835260208301919091520161027d565b7f00000000000000000000000000000000000000000000000000000000000000005b60405173ffffffffffffffffffffffffffffffffffffffff909116815260200161027d565b6102d16103b336600461396c565b6108ec565b6102d16103c6366004613a37565b610939565b6103d361096c565b60405161027d929190613ab0565b6103f46103ef366004613ac4565b61097f565b60405161027d9190613b71565b61029961040f3660046138e1565b7f000000000000000000000000000000000000000000000000000000000000000073ffffffffffffffffffffffffffffffffffffffff90811691161490565b6102d161045c366004613b84565b6109a2565b6102d161046f3660046138c8565b610a2c565b6102d1610482366004613ac4565b610a49565b6102d1610495366004613bee565b610b81565b6102d16104a83660046138c8565b610c6d565b610380610c88565b6102d16104c33660046138e1565b610caf565b6102996104d6366004613a37565b610ccc565b6102b1610d10565b610380610d22565b6102d16104f9366004613ca2565b610d2f565b610380610d68565b6102d1610514366004613bee565b610d75565b6102737f6d696e746572000000000000000000000000000000000000000000000000000081565b6102d161054e366004613a37565b611016565b610273620186a081565b6102d161056b366004613cd0565b611044565b61029961057e366004613d87565b61115e565b6102d1610591366004613db5565b6111ac565b6102d16105a43660046138e1565b6111ec565b6102d16105b7366004613ac4565b611207565b60006105d283836105cb6112be565b91906112ec565b90505b92915050565b60006105d5826105e9611370565b9061139e565b60606106016105fc611478565b6114a6565b905090565b600061061061153c565b90506106467f6d696e74657200000000000000000000000000000000000000000000000000008261063f611546565b9190611574565b6106f7818989898080602002602001604051908101604052809392919081815260200183836020028082843760009201919091525050604080516020808d0282810182019093528c82529093508c92508b91829185019084908082843760009201919091525050604080516020601f8c018190048102820181019092528a815292508a91508990819084018382808284376000920191909152506106ed92506112be915050565b94939291906115fa565b5050505050505050565b61071a61070c61153c565b610714611780565b906117ae565b6107226117ed565b61072a611824565b610732611852565b61073a611880565b6107426118ae565b61075c8686868686610752611478565b94939291906118dc565b61076e81610768611976565b906119a4565b505050505050565b60606105d53083610785611478565b9190611a14565b6107a561079761153c565b61079f611780565b90611adc565b6107f4816107b1611976565b9081547fffffffffffffffffffffffff00000000000000000000000000000000000000001673ffffffffffffffffffffffffffffffffffffffff91909116179055565b50565b61081f610802611478565b6002015473ffffffffffffffffffffffffffffffffffffffff1690565b73ffffffffffffffffffffffffffffffffffffffff163373ffffffffffffffffffffffffffffffffffffffff161461088a576040517f220606710000000000000000000000000000000000000000000000000000000081523360048201526024015b60405180910390fd5b827f6bb7ff708619ba0610cba295a58592e0451dee2622938c8755667688daf3529b83836040516108bc929190613ab0565b60405180910390a2505050565b6000806108e084846108d9611b47565b9190611b75565b915091505b9250929050565b60006108f661153c565b905061090c818a610905611976565b9190611c1f565b61092e818a8a8a8a8a8a8a8a6109206112be565b989796959493929190611c5c565b505050505050505050565b600061094361153c565b90506109518161079f611780565b61096783838361095f611546565b929190611ee5565b505050565b366000610977611fbc565b915091509091565b6060610999858585856109906112be565b93929190611fc7565b95945050505050565b60006109ac61153c565b90506109db7f6d696e74657200000000000000000000000000000000000000000000000000008261063f611546565b61076e8187878787878080601f016020809104026020016040519081016040528093929190818152602001838380828437600092019190915250610a2292506112be915050565b94939291906120d6565b610a3761079761153c565b6107f481610a43611b47565b906121b4565b828114610a82576040517f6582533600000000000000000000000000000000000000000000000000000000815260040160405180910390fd5b610a8d610802611478565b73ffffffffffffffffffffffffffffffffffffffff163373ffffffffffffffffffffffffffffffffffffffff1614610af3576040517f22060671000000000000000000000000000000000000000000000000000000008152336004820152602401610881565b60005b83811015610b7a57848482818110610b1057610b10613e1f565b905060200201357f6bb7ff708619ba0610cba295a58592e0451dee2622938c8755667688daf3529b848484818110610b4a57610b4a613e1f565b9050602002810190610b5c9190613e4e565b604051610b6a929190613ab0565b60405180910390a2600101610af6565b5050505050565b610b8c61079761153c565b848381141580610b9c5750808214155b15610bd3576040517f6582533600000000000000000000000000000000000000000000000000000000815260040160405180910390fd5b60005b818110156106f757610c65888883818110610bf357610bf3613e1f565b9050602002016020810190610c0891906138e1565b858584818110610c1a57610c1a613e1f565b90506020020135888885818110610c3357610c33613e1f565b9050602002016020810190610c4891906138e1565b73ffffffffffffffffffffffffffffffffffffffff16919061223a565b600101610bd6565b6107f4610c7861153c565b82610c81611546565b91906122c7565b6000610601610c95611780565b5473ffffffffffffffffffffffffffffffffffffffff1690565b610cba61079761153c565b6107f481610cc6611b47565b9061236b565b60006105d28383610cdb611546565b60009283526020908152604080842073ffffffffffffffffffffffffffffffffffffffff909316845291905290205460ff1690565b6060610601610d1d611478565b6123b8565b6000610601610802611478565b8015610d4757610d4782610d41611976565b906123c9565b610d64610d5261153c565b8383610d5c6112be565b9291906123d3565b5050565b6000610601610c95611976565b610d8061079761153c565b848381141580610d905750808214155b15610dc7576040517f6582533600000000000000000000000000000000000000000000000000000000815260040160405180910390fd5b60005b818110156106f7576000868683818110610de657610de6613e1f565b9050602002016020810190610dfb91906138e1565b6040517f01ffc9a70000000000000000000000000000000000000000000000000000000081527f80ac58cd00000000000000000000000000000000000000000000000000000000600482015290915073ffffffffffffffffffffffffffffffffffffffff8216906301ffc9a790602401602060405180830381865afa158015610e88573d6000803e3d6000fd5b505050506040513d601f19601f82011682018060405250810190610eac9190613eb3565b610efa576040517f986b9f1f00000000000000000000000000000000000000000000000000000000815273ffffffffffffffffffffffffffffffffffffffff82166004820152602401610881565b868683818110610f0c57610f0c613e1f565b9050602002016020810190610f2191906138e1565b73ffffffffffffffffffffffffffffffffffffffff166342842e0e308b8b86818110610f4f57610f4f613e1f565b9050602002016020810190610f6491906138e1565b888887818110610f7657610f76613e1f565b6040517fffffffff0000000000000000000000000000000000000000000000000000000060e088901b16815273ffffffffffffffffffffffffffffffffffffffff958616600482015294909316602485015250602090910201356044820152606401600060405180830381600087803b158015610ff257600080fd5b505af1158015611006573d6000803e3d6000fd5b5050505050806001019050610dca565b600061102061153c565b905061102e8161079f611780565b61096783838361103c611546565b9291906124eb565b600061104e61153c565b905061107d7f6d696e74657200000000000000000000000000000000000000000000000000008261063f611546565b61092e818a8a8080602002602001604051908101604052809392919081815260200183836020028082843760009201919091525050604080516020808e0282810182019093528d82529093508d92508c91829185019084908082843760009201919091525050604080516020808d0282810182019093528c82529093508c92508b91829185019084908082843760009201919091525050604080516020601f8c018190048102820181019092528a815292508a915089908190840183828082843760009201919091525061115492506112be915050565b94939291906125b5565b60006105d2838361116d6112be565b919073ffffffffffffffffffffffffffffffffffffffff9182166000908152600193909301602090815260408085209290931684525290205460ff1690565b60006111b661153c565b90506111c58188610905611976565b6111e3818888888888886111d76112be565b96959493929190612678565b50505050505050565b6107f46111f761153c565b82611200611780565b919061281b565b61121261079761153c565b8281811461124c576040517f6582533600000000000000000000000000000000000000000000000000000000815260040160405180910390fd5b60005b8181101561076e576112b684848381811061126c5761126c613e1f565b9050602002013587878481811061128557611285613e1f565b905060200201602081019061129a91906138e1565b73ffffffffffffffffffffffffffffffffffffffff169061292f565b60010161124f565b6000806105d560017f5ccf5846fa27a68fafc8e588671a68f5e67c2f9b56af4263806a4d71735e8613613eff565b600073ffffffffffffffffffffffffffffffffffffffff831661133b576040517fca2434a500000000000000000000000000000000000000000000000000000000815260040160405180910390fd5b5060009081526020928352604080822073ffffffffffffffffffffffffffffffffffffffff9390931682529190925290205490565b6000806105d560017fca9d3e17f264b0f3984e2634e94adb37fa3e6a8103f06aeae6fa59e21c769f5e613eff565b60007c01000000000000000000000000000000000000000000000000000000007fffffffff000000000000000000000000000000000000000000000000000000008316016113ee575060006105d5565b7ffe003659000000000000000000000000000000000000000000000000000000007fffffffff0000000000000000000000000000000000000000000000000000000083160161143f575060016105d5565b507fffffffff00000000000000000000000000000000000000000000000000000000166000908152602091909152604090205460ff1690565b6000806105d560017f7ea68fd2dcf1c056b94db6a0a537aa80d26fa9ab1eacd85da1ba0b61b7e7a8a5613eff565b60608160000180546114b790613f12565b80601f01602080910402602001604051908101604052809291908181526020018280546114e390613f12565b80156115305780601f1061150557610100808354040283529160200191611530565b820191906000526020600020905b81548152906001019060200180831161151357829003601f168201915b50505050509050919050565b60006106016129e5565b6000806105d560017fc8827d3282af6f37b64c3e9e6f3ac9df286ab0bb0fccd6f8661bf19adb368b23613eff565b60008281526020848152604080832073ffffffffffffffffffffffffffffffffffffffff8516845290915290205460ff16610967576040517f7aa728820000000000000000000000000000000000000000000000000000000081526004810183905273ffffffffffffffffffffffffffffffffffffffff82166024820152604401610881565b73ffffffffffffffffffffffffffffffffffffffff8416611647576040517f021149bd00000000000000000000000000000000000000000000000000000000815260040160405180910390fd5b825182518114611683576040517f6582533600000000000000000000000000000000000000000000000000000000815260040160405180910390fd5b60005b818110156116d4576116cc88878784815181106116a5576116a5613e1f565b60200260200101518785815181106116bf576116bf613e1f565b6020026020010151612b32565b600101611686565b508473ffffffffffffffffffffffffffffffffffffffff16600073ffffffffffffffffffffffffffffffffffffffff168773ffffffffffffffffffffffffffffffffffffffff167f4a39dc06d4c0dbc64b70af90fd698a233a518aa5d07e595d983b8c0526c8f7fb878760405161174c929190613f65565b60405180910390a473ffffffffffffffffffffffffffffffffffffffff85163b156111e3576111e386600087878787612c03565b6000806105d560017fc9ed16f33ab3a66c84bfd83099ccb2a8845871e2e1c1928f63797152f0fd54cd613eff565b6117e36117dc60017f5b388d90dc1312ba799f321972f13311234fa1163bcabec7cf66101c4876eb84613eff565b6001612d01565b610d648282612d4d565b6118227fd9b67a2600000000000000000000000000000000000000000000000000000000600161181b611370565b9190612e03565b565b6118227f0e89341c00000000000000000000000000000000000000000000000000000000600161181b611370565b6118227f5190c92c00000000000000000000000000000000000000000000000000000000600161181b611370565b6118227fe8ab9ccc00000000000000000000000000000000000000000000000000000000600161181b611370565b6118227f2a55205a00000000000000000000000000000000000000000000000000000000600161181b611370565b61190a6117dc60017f92f72593ca50a0096f68ee94e7000db40ed086164b695855e2250750b8bfaf59613eff565b85611916858783614000565b5060018601611926838583614000565b5060029590950180547fffffffffffffffffffffffff00000000000000000000000000000000000000001673ffffffffffffffffffffffffffffffffffffffff9096169590951790945550505050565b6000806105d560017f609b85bcafa81ecfaf3ff62cdde2c6c9082a68dbe4922f07399c706bdeb7cd31613eff565b6119d26117dc60017f2f02d396cb1be29636682c8684200b30a98554d3b74293aa4495cb5e1d252f6e613eff565b81547fffffffffffffffffffffffff00000000000000000000000000000000000000001673ffffffffffffffffffffffffffffffffffffffff91909116179055565b60028301546040517ff724dad700000000000000000000000000000000000000000000000000000000815273ffffffffffffffffffffffffffffffffffffffff848116600483015260248201849052606092169063f724dad790604401600060405180830381865afa158015611a8e573d6000803e3d6000fd5b505050506040513d6000823e601f3d9081017fffffffffffffffffffffffffffffffffffffffffffffffffffffffffffffffe0168201604052611ad4919081019061411a565b949350505050565b815473ffffffffffffffffffffffffffffffffffffffff828116911614610d64576040517f2ef4875e00000000000000000000000000000000000000000000000000000000815273ffffffffffffffffffffffffffffffffffffffff82166004820152602401610881565b6000806105d560017f2c0cf10337caabbd02dcf226f05f5fd19a0919a41a8df8958c39b80007826858613eff565b825473ffffffffffffffffffffffffffffffffffffffff8116906000907401000000000000000000000000000000000000000090046bffffffffffffffffffffffff16831580611bc3575080155b15611bd15760009150611c16565b620186a0841015611bfb57620186a0611bea8286614203565b611bf4919061421a565b9150611c16565b80611c09620186a08661421a565b611c139190614203565b91505b50935093915050565b8073ffffffffffffffffffffffffffffffffffffffff168273ffffffffffffffffffffffffffffffffffffffff1614610967576109678383612edf565b73ffffffffffffffffffffffffffffffffffffffff8716611ca9576040517fb5e8901500000000000000000000000000000000000000000000000000000000815260040160405180910390fd5b84838114611ce3576040517f6582533600000000000000000000000000000000000000000000000000000000815260040160405180910390fd5b611cee8b8a8c613006565b611d44576040517f05bbb9c400000000000000000000000000000000000000000000000000000000815273ffffffffffffffffffffffffffffffffffffffff808c1660048301528a166024820152604401610881565b60005b81811015611d9457611d8c8c8b8b8b8b86818110611d6757611d67613e1f565b905060200201358a8a87818110611d8057611d80613e1f565b9050602002013561307b565b600101611d47565b508773ffffffffffffffffffffffffffffffffffffffff168973ffffffffffffffffffffffffffffffffffffffff168b73ffffffffffffffffffffffffffffffffffffffff167f4a39dc06d4c0dbc64b70af90fd698a233a518aa5d07e595d983b8c0526c8f7fb8a8a8a8a604051611e0f94939291906142a0565b60405180910390a473ffffffffffffffffffffffffffffffffffffffff88163b15611ed857611ed88a8a8a8a8a8080602002602001604051908101604052809392919081815260200183836020028082843760009201919091525050604080516020808e0282810182019093528d82529093508d92508c91829185019084908082843760009201919091525050604080516020601f8d018190048102820181019092528b815292508b91508a9081908401838280828437600092019190915250612c0392505050565b5050505050505050505050565b60008381526020858152604080832073ffffffffffffffffffffffffffffffffffffffff8616845290915290205460ff16611fb65760008381526020858152604080832073ffffffffffffffffffffffffffffffffffffffff8681168086529184529382902080547fffffffffffffffffffffffffffffffffffffffffffffffffffffffffffffff00166001179055815187815292830152918316918101919091527f2f8788117e7eff1d82e926ec794901d17c78024a50270940304540a733656f0d906060015b60405180910390a15b50505050565b366000610977613228565b606083828114612003576040517f6582533600000000000000000000000000000000000000000000000000000000815260040160405180910390fd5b8467ffffffffffffffff81111561201c5761201c613f8a565b604051908082528060200260200182016040528015612045578160200160208202803683370190505b50915060005b818110156120cb576120a687878381811061206857612068613e1f565b905060200201602081019061207d91906138e1565b86868481811061208f5761208f613e1f565b905060200201358a6112ec9092919063ffffffff16565b8382815181106120b8576120b8613e1f565b602090810291909101015260010161204b565b505095945050505050565b73ffffffffffffffffffffffffffffffffffffffff8416612123576040517f021149bd00000000000000000000000000000000000000000000000000000000815260040160405180910390fd5b61212f86858585612b32565b604080518481526020810184905273ffffffffffffffffffffffffffffffffffffffff80871692600092918916917fc3d58168c5ae7397731d063d5bbf3d657854427343f4c083240f7aacaa2d0f62910160405180910390a473ffffffffffffffffffffffffffffffffffffffff84163b1561076e5761076e85600086868686613398565b620186a08111156121f4576040517fac04040800000000000000000000000000000000000000000000000000000000815260048101829052602401610881565b81546bffffffffffffffffffffffff909116740100000000000000000000000000000000000000000273ffffffffffffffffffffffffffffffffffffffff909116179055565b6040805173ffffffffffffffffffffffffffffffffffffffff8416602482015260448082018490528251808303909101815260649091019091526020810180517bffffffffffffffffffffffffffffffffffffffffffffffffffffffff167fa9059cbb000000000000000000000000000000000000000000000000000000001790526109679084906134b6565b6122d2838284611574565b60008181526020848152604080832073ffffffffffffffffffffffffffffffffffffffff86168085529083529281902080547fffffffffffffffffffffffffffffffffffffffffffffffffffffffffffffff0016905580518481529182018390528101919091527ff6391f5c32d9c69d2a47ea670b442974b53935d1edc7fd64eb21e047a839171b9060600160405180910390a1505050565b73ffffffffffffffffffffffffffffffffffffffff81166119d2576040517f16de0c8000000000000000000000000000000000000000000000000000000000815260040160405180910390fd5b60608160010180546114b790613f12565b610d648282612edf565b8273ffffffffffffffffffffffffffffffffffffffff168273ffffffffffffffffffffffffffffffffffffffff1603612450576040517ffb0fdf6100000000000000000000000000000000000000000000000000000000815273ffffffffffffffffffffffffffffffffffffffff84166004820152602401610881565b73ffffffffffffffffffffffffffffffffffffffff838116600081815260018701602090815260408083209487168084529482529182902080547fffffffffffffffffffffffffffffffffffffffffffffffffffffffffffffff001686151590811790915591519182527f17307eab39ab6107e8899845ad3d59bd9653f200f220920489ca2b5937696c31910160405180910390a350505050565b60008381526020858152604080832073ffffffffffffffffffffffffffffffffffffffff8616845290915290205460ff1615611fb65760008381526020858152604080832073ffffffffffffffffffffffffffffffffffffffff8681168086529184529382902080547fffffffffffffffffffffffffffffffffffffffffffffffffffffffffffffff00169055815187815292830152918316918101919091527ff6391f5c32d9c69d2a47ea670b442974b53935d1edc7fd64eb21e047a839171b90606001611fad565b83518351811415806125c8575082518114155b156125ff576040517f6582533600000000000000000000000000000000000000000000000000000000815260040160405180910390fd5b60005b818110156106f7576126708787838151811061262057612620613e1f565b602002602001015187848151811061263a5761263a613e1f565b602002602001015187858151811061265457612654613e1f565b6020026020010151878d6120d69095949392919063ffffffff16565b600101612602565b73ffffffffffffffffffffffffffffffffffffffff85166126c5576040517fb5e8901500000000000000000000000000000000000000000000000000000000815260040160405180910390fd5b6126d0888789613006565b612726576040517f05bbb9c400000000000000000000000000000000000000000000000000000000815273ffffffffffffffffffffffffffffffffffffffff808916600483015287166024820152604401610881565b612733888787878761307b565b8473ffffffffffffffffffffffffffffffffffffffff168673ffffffffffffffffffffffffffffffffffffffff168873ffffffffffffffffffffffffffffffffffffffff167fc3d58168c5ae7397731d063d5bbf3d657854427343f4c083240f7aacaa2d0f6287876040516127b2929190918252602082015260400190565b60405180910390a473ffffffffffffffffffffffffffffffffffffffff85163b156106f7576106f7878787878787878080601f01602080910402602001604051908101604052809392919081815260200183838082843760009201919091525061339892505050565b825473ffffffffffffffffffffffffffffffffffffffff9081169083168114612888576040517f2ef4875e00000000000000000000000000000000000000000000000000000000815273ffffffffffffffffffffffffffffffffffffffff84166004820152602401610881565b8173ffffffffffffffffffffffffffffffffffffffff168173ffffffffffffffffffffffffffffffffffffffff1614611fb65783547fffffffffffffffffffffffff00000000000000000000000000000000000000001673ffffffffffffffffffffffffffffffffffffffff8381169182178655604051908316907f8be0079c531659141344cd1fd0a4f28419497f9722a3daafe3b4186f6b6457e090600090a350505050565b80471015612972576040517fcf47918100000000000000000000000000000000000000000000000000000000815247600482015260248101829052604401610881565b6000808373ffffffffffffffffffffffffffffffffffffffff168360405160006040518083038185875af1925050503d80600081146129cd576040519150601f19603f3d011682016040523d82523d6000602084013e6129d2565b606091505b509150915081611fb657611fb68161355a565b6000333214806129f55750601836105b156129ff57503390565b7fffffffffffffffffffffffffffffffffffffffffffffffffffffffffffffffec36013560601c7f000000000000000000000000000000000000000000000000000000000000000073ffffffffffffffffffffffffffffffffffffffff16331480612b2157506040517f019a202800000000000000000000000000000000000000000000000000000000815273ffffffffffffffffffffffffffffffffffffffff82811660048301523360248301523060448301527f0000000000000000000000000000000000000000000000000000000000000000169063019a202890606401602060405180830381865afa158015612afd573d6000803e3d6000fd5b505050506040513d601f19601f82011682018060405250810190612b219190613eb3565b15612b2b57919050565b3391505090565b8015611fb65760008281526020858152604080832073ffffffffffffffffffffffffffffffffffffffff87168452909152902054818101818111612bcf576040517f42fb00bc00000000000000000000000000000000000000000000000000000000815273ffffffffffffffffffffffffffffffffffffffff86166004820152602481018590526044810183905260648101849052608401610881565b60009384526020958652604080852073ffffffffffffffffffffffffffffffffffffffff9690961685529490955250502055565b6040517fbc197c81000000000000000000000000000000000000000000000000000000008082529073ffffffffffffffffffffffffffffffffffffffff86169063bc197c8190612c5f908a908a908990899089906004016142d2565b6020604051808303816000875af1158015612c7e573d6000803e3d6000fd5b505050506040513d601f19601f82011682018060405250810190612ca2919061434f565b7fffffffff00000000000000000000000000000000000000000000000000000000161461076e578383836040517fc287817e0000000000000000000000000000000000000000000000000000000081526004016108819392919061436c565b81548290828110612d48576040517fbf0c18ec0000000000000000000000000000000000000000000000000000000081526004810182905260248101849052604401610881565b505550565b73ffffffffffffffffffffffffffffffffffffffff811615612dd55781547fffffffffffffffffffffffff00000000000000000000000000000000000000001673ffffffffffffffffffffffffffffffffffffffff821690811783556040516000907f8be0079c531659141344cd1fd0a4f28419497f9722a3daafe3b4186f6b6457e0908290a35b610d647f7f5828d000000000000000000000000000000000000000000000000000000000600161181b611370565b7c01000000000000000000000000000000000000000000000000000000007fffffffff00000000000000000000000000000000000000000000000000000000831601612e7b576040517f72c683bb00000000000000000000000000000000000000000000000000000000815260040160405180910390fd5b7fffffffff00000000000000000000000000000000000000000000000000000000919091166000908152602092909252604090912080547fffffffffffffffffffffffffffffffffffffffffffffffffffffffffffffff0016911515919091179055565b815473ffffffffffffffffffffffffffffffffffffffff168015801590612f1d575060008173ffffffffffffffffffffffffffffffffffffffff163b115b15610967576040517fc617113400000000000000000000000000000000000000000000000000000000815230600482015273ffffffffffffffffffffffffffffffffffffffff838116602483015282169063c617113490604401602060405180830381865afa158015612f94573d6000803e3d6000fd5b505050506040513d601f19601f82011682018060405250810190612fb89190613eb3565b610967576040517fede71dcc00000000000000000000000000000000000000000000000000000000815273ffffffffffffffffffffffffffffffffffffffff83166004820152602401610881565b60008173ffffffffffffffffffffffffffffffffffffffff168373ffffffffffffffffffffffffffffffffffffffff161480611ad457505073ffffffffffffffffffffffffffffffffffffffff9182166000908152600193909301602090815260408085209290931684525290205460ff1690565b8015610b7a5760008281526020868152604080832073ffffffffffffffffffffffffffffffffffffffff88168452909152902054818103818110613118576040517f03dee4c500000000000000000000000000000000000000000000000000000000815273ffffffffffffffffffffffffffffffffffffffff87166004820152602481018590526044810183905260648101849052608401610881565b8473ffffffffffffffffffffffffffffffffffffffff168673ffffffffffffffffffffffffffffffffffffffff16146111e35760008481526020888152604080832073ffffffffffffffffffffffffffffffffffffffff891684529091529020548381018181116131e2576040517f42fb00bc00000000000000000000000000000000000000000000000000000000815273ffffffffffffffffffffffffffffffffffffffff88166004820152602481018790526044810183905260648101869052608401610881565b600086815260208a8152604080832073ffffffffffffffffffffffffffffffffffffffff808d1685528184528285208890558b1684529091529020555050505050505050565b366000333214806132395750601836105b156132475750600091369150565b3373ffffffffffffffffffffffffffffffffffffffff7f0000000000000000000000000000000000000000000000000000000000000000161480613382575073ffffffffffffffffffffffffffffffffffffffff7f00000000000000000000000000000000000000000000000000000000000000001663019a2028367fffffffffffffffffffffffffffffffffffffffffffffffffffffffffffffffec013560601c6040517fffffffff0000000000000000000000000000000000000000000000000000000060e084901b16815273ffffffffffffffffffffffffffffffffffffffff9091166004820152336024820152306044820152606401602060405180830381865afa15801561335e573d6000803e3d6000fd5b505050506040513d601f19601f820116820180604052508101906133829190613eb3565b1561338f5761097761359c565b50600091369150565b6040517ff23a6e61000000000000000000000000000000000000000000000000000000008082529073ffffffffffffffffffffffffffffffffffffffff86169063f23a6e61906133f4908a908a908990899089906004016143b7565b6020604051808303816000875af1158015613413573d6000803e3d6000fd5b505050506040513d601f19601f82011682018060405250810190613437919061434f565b7fffffffff00000000000000000000000000000000000000000000000000000000161461076e576040517f40f39d3800000000000000000000000000000000000000000000000000000000815273ffffffffffffffffffffffffffffffffffffffff851660048201526024810184905260448101839052606401610881565b600080602060008451602086016000885af1806134d9576040513d6000823e3d81fd5b50506000513d915081156134f157806001141561350b565b73ffffffffffffffffffffffffffffffffffffffff84163b155b15611fb6576040517f5274afe700000000000000000000000000000000000000000000000000000000815273ffffffffffffffffffffffffffffffffffffffff85166004820152602401610881565b80511561356a5780518082602001fd5b6040517fd6bda27500000000000000000000000000000000000000000000000000000000815260040160405180910390fd5b3660006109777fffffffffffffffffffffffffffffffffffffffffffffffffffffffffffffffec830182848161440e565b73ffffffffffffffffffffffffffffffffffffffff811681146107f457600080fd5b6000806040838503121561360257600080fd5b823561360d816135cd565b946020939093013593505050565b7fffffffff00000000000000000000000000000000000000000000000000000000811681146107f457600080fd5b60006020828403121561365b57600080fd5b81356136668161361b565b9392505050565b60005b83811015613688578181015183820152602001613670565b50506000910152565b600081518084526136a981602086016020860161366d565b601f017fffffffffffffffffffffffffffffffffffffffffffffffffffffffffffffffe0169290920160200192915050565b6020815260006105d26020830184613691565b60008083601f84011261370057600080fd5b50813567ffffffffffffffff81111561371857600080fd5b6020830191508360208260051b85010111156108e557600080fd5b60008083601f84011261374557600080fd5b50813567ffffffffffffffff81111561375d57600080fd5b6020830191508360208285010111156108e557600080fd5b60008060008060008060006080888a03121561379057600080fd5b873561379b816135cd565b9650602088013567ffffffffffffffff8111156137b757600080fd5b6137c38a828b016136ee565b909750955050604088013567ffffffffffffffff8111156137e357600080fd5b6137ef8a828b016136ee565b909550935050606088013567ffffffffffffffff81111561380f57600080fd5b61381b8a828b01613733565b989b979a50959850939692959293505050565b6000806000806000806080878903121561384757600080fd5b863567ffffffffffffffff81111561385e57600080fd5b61386a89828a01613733565b909750955050602087013567ffffffffffffffff81111561388a57600080fd5b61389689828a01613733565b90955093505060408701356138aa816135cd565b915060608701356138ba816135cd565b809150509295509295509295565b6000602082840312156138da57600080fd5b5035919050565b6000602082840312156138f357600080fd5b8135613666816135cd565b60008060006040848603121561391357600080fd5b83359250602084013567ffffffffffffffff81111561393157600080fd5b61393d86828701613733565b9497909650939450505050565b6000806040838503121561395d57600080fd5b50508035926020909101359150565b60008060008060008060008060a0898b03121561398857600080fd5b8835613993816135cd565b975060208901356139a3816135cd565b9650604089013567ffffffffffffffff8111156139bf57600080fd5b6139cb8b828c016136ee565b909750955050606089013567ffffffffffffffff8111156139eb57600080fd5b6139f78b828c016136ee565b909550935050608089013567ffffffffffffffff811115613a1757600080fd5b613a238b828c01613733565b999c989b5096995094979396929594505050565b60008060408385031215613a4a57600080fd5b823591506020830135613a5c816135cd565b809150509250929050565b8183528181602085013750600060208284010152600060207fffffffffffffffffffffffffffffffffffffffffffffffffffffffffffffffe0601f840116840101905092915050565b602081526000611ad4602083018486613a67565b60008060008060408587031215613ada57600080fd5b843567ffffffffffffffff811115613af157600080fd5b613afd878288016136ee565b909550935050602085013567ffffffffffffffff811115613b1d57600080fd5b613b29878288016136ee565b95989497509550505050565b600081518084526020840193506020830160005b82811015613b67578151865260209586019590910190600101613b49565b5093949350505050565b6020815260006105d26020830184613b35565b600080600080600060808688031215613b9c57600080fd5b8535613ba7816135cd565b94506020860135935060408601359250606086013567ffffffffffffffff811115613bd157600080fd5b613bdd88828901613733565b969995985093965092949392505050565b60008060008060008060608789031215613c0757600080fd5b863567ffffffffffffffff811115613c1e57600080fd5b613c2a89828a016136ee565b909750955050602087013567ffffffffffffffff811115613c4a57600080fd5b613c5689828a016136ee565b909550935050604087013567ffffffffffffffff811115613c7657600080fd5b613c8289828a016136ee565b979a9699509497509295939492505050565b80151581146107f457600080fd5b60008060408385031215613cb557600080fd5b8235613cc0816135cd565b91506020830135613a5c81613c94565b6000806000806000806000806080898b031215613cec57600080fd5b883567ffffffffffffffff811115613d0357600080fd5b613d0f8b828c016136ee565b909950975050602089013567ffffffffffffffff811115613d2f57600080fd5b613d3b8b828c016136ee565b909750955050604089013567ffffffffffffffff811115613d5b57600080fd5b613d678b828c016136ee565b909550935050606089013567ffffffffffffffff811115613a1757600080fd5b60008060408385031215613d9a57600080fd5b8235613da5816135cd565b91506020830135613a5c816135cd565b60008060008060008060a08789031215613dce57600080fd5b8635613dd9816135cd565b95506020870135613de9816135cd565b94506040870135935060608701359250608087013567ffffffffffffffff811115613e1357600080fd5b613c8289828a01613733565b7f4e487b7100000000000000000000000000000000000000000000000000000000600052603260045260246000fd5b60008083357fffffffffffffffffffffffffffffffffffffffffffffffffffffffffffffffe1843603018112613e8357600080fd5b83018035915067ffffffffffffffff821115613e9e57600080fd5b6020019150368190038213156108e557600080fd5b600060208284031215613ec557600080fd5b815161366681613c94565b7f4e487b7100000000000000000000000000000000000000000000000000000000600052601160045260246000fd5b818103818111156105d5576105d5613ed0565b600181811c90821680613f2657607f821691505b602082108103613f5f577f4e487b7100000000000000000000000000000000000000000000000000000000600052602260045260246000fd5b50919050565b604081526000613f786040830185613b35565b82810360208401526109998185613b35565b7f4e487b7100000000000000000000000000000000000000000000000000000000600052604160045260246000fd5b601f82111561096757806000526020600020601f840160051c81016020851015613fe05750805b601f840160051c820191505b81811015610b7a5760008155600101613fec565b67ffffffffffffffff83111561401857614018613f8a565b61402c836140268354613f12565b83613fb9565b6000601f84116001811461407e57600085156140485750838201355b7fffffffffffffffffffffffffffffffffffffffffffffffffffffffffffffffff600387901b1c1916600186901b178355610b7a565b6000838152602090207fffffffffffffffffffffffffffffffffffffffffffffffffffffffffffffffe0861690835b828110156140cd57868501358255602094850194600190920191016140ad565b5086821015614108577fffffffffffffffffffffffffffffffffffffffffffffffffffffffffffffffff60f88860031b161c19848701351681555b505060018560011b0183555050505050565b60006020828403121561412c57600080fd5b815167ffffffffffffffff81111561414357600080fd5b8201601f8101841361415457600080fd5b805167ffffffffffffffff81111561416e5761416e613f8a565b6040517fffffffffffffffffffffffffffffffffffffffffffffffffffffffffffffffe0603f7fffffffffffffffffffffffffffffffffffffffffffffffffffffffffffffffe0601f8501160116810181811067ffffffffffffffff821117156141da576141da613f8a565b6040528181528282016020018610156141f257600080fd5b61099982602083016020860161366d565b80820281158282048414176105d5576105d5613ed0565b600082614250577f4e487b7100000000000000000000000000000000000000000000000000000000600052601260045260246000fd5b500490565b81835260007f07ffffffffffffffffffffffffffffffffffffffffffffffffffffffffffffff83111561428757600080fd5b8260051b80836020870137939093016020019392505050565b6040815260006142b4604083018688614255565b82810360208401526142c7818587614255565b979650505050505050565b73ffffffffffffffffffffffffffffffffffffffff8616815273ffffffffffffffffffffffffffffffffffffffff8516602082015260a06040820152600061431d60a0830186613b35565b828103606084015261432f8186613b35565b905082810360808401526143438185613691565b98975050505050505050565b60006020828403121561436157600080fd5b81516136668161361b565b73ffffffffffffffffffffffffffffffffffffffff8416815260606020820152600061439b6060830185613b35565b82810360408401526143ad8185613b35565b9695505050505050565b73ffffffffffffffffffffffffffffffffffffffff8616815273ffffffffffffffffffffffffffffffffffffffff8516602082015283604082015282606082015260a0608082015260006142c760a0830184613691565b6000808585111561441e57600080fd5b8386111561442b57600080fd5b505082019391909203915056fea2646970667358221220a400960d8540790b387dbd924135d3b1c859c83de807ab1d2a54057dac41a10464736f6c634300081c0033",
  "linkReferences": {},
  "deployedLinkReferences": {}
}